{
    "contractName": "BookOfSHA",
    "abi": [
        {
            "anonymous": false,
            "inputs": [
                {
                    "indexed": false,
                    "internalType": "address",
                    "name": "pointer",
                    "type": "address"
                }
            ],
            "name": "ChangePointer",
            "type": "event"
        },
        {
            "anonymous": false,
            "inputs": [
                {
                    "indexed": false,
                    "internalType": "uint256",
                    "name": "owner",
                    "type": "uint256"
                },
                {
                    "indexed": false,
                    "internalType": "address",
                    "name": "directKeeper",
                    "type": "address"
                },
                {
                    "indexed": false,
                    "internalType": "address",
                    "name": "regCenter",
                    "type": "address"
                },
                {
                    "indexed": false,
                    "internalType": "address",
                    "name": "generalKeeper",
                    "type": "address"
                }
            ],
            "name": "Init",
            "type": "event"
        },
        {
            "anonymous": false,
            "inputs": [],
            "name": "LockContents",
            "type": "event"
        },
        {
            "anonymous": false,
            "inputs": [
                {
                    "indexed": true,
                    "internalType": "address",
                    "name": "body",
                    "type": "address"
                }
            ],
            "name": "RemoveDoc",
            "type": "event"
        },
        {
            "anonymous": false,
            "inputs": [
                {
                    "indexed": false,
                    "internalType": "address",
                    "name": "keeper",
                    "type": "address"
                }
            ],
            "name": "SetDirectKeeper",
            "type": "event"
        },
        {
            "anonymous": false,
            "inputs": [
                {
                    "indexed": false,
                    "internalType": "uint256",
                    "name": "acct",
                    "type": "uint256"
                }
            ],
            "name": "SetGeneralCounsel",
            "type": "event"
        },
        {
            "anonymous": false,
            "inputs": [
                {
                    "indexed": false,
                    "internalType": "address",
                    "name": "gk",
                    "type": "address"
                }
            ],
            "name": "SetGeneralKeeper",
            "type": "event"
        },
        {
            "anonymous": false,
            "inputs": [
                {
                    "indexed": false,
                    "internalType": "uint256",
                    "name": "acct",
                    "type": "uint256"
                }
            ],
            "name": "SetOwner",
            "type": "event"
        },
        {
            "anonymous": false,
            "inputs": [
                {
                    "indexed": false,
                    "internalType": "address",
                    "name": "rc",
                    "type": "address"
                }
            ],
            "name": "SetRegCenter",
            "type": "event"
        },
        {
            "anonymous": false,
            "inputs": [
                {
                    "indexed": true,
                    "internalType": "address",
                    "name": "temp",
                    "type": "address"
                },
                {
                    "indexed": false,
                    "internalType": "uint256",
                    "name": "typeOfDoc",
                    "type": "uint256"
                }
            ],
            "name": "SetTemplate",
            "type": "event"
        },
        {
            "anonymous": false,
            "inputs": [
                {
                    "indexed": true,
                    "internalType": "address",
                    "name": "body",
                    "type": "address"
                },
                {
                    "indexed": false,
                    "internalType": "uint8",
                    "name": "state",
                    "type": "uint8"
                }
            ],
            "name": "UpdateStateOfDoc",
            "type": "event"
        },
        {
            "inputs": [
                {
                    "internalType": "bytes32",
                    "name": "role",
                    "type": "bytes32"
                }
            ],
            "name": "abandonRole",
            "outputs": [],
            "stateMutability": "nonpayable",
            "type": "function"
        },
        {
            "inputs": [
                {
                    "internalType": "address",
                    "name": "body",
                    "type": "address"
                }
            ],
            "name": "changePointer",
            "outputs": [],
            "stateMutability": "nonpayable",
            "type": "function"
        },
        {
            "inputs": [
                {
                    "internalType": "address",
                    "name": "body",
                    "type": "address"
                },
                {
                    "components": [
                        {
                            "internalType": "uint16",
                            "name": "seq",
                            "type": "uint16"
                        },
                        {
                            "internalType": "uint8",
                            "name": "qtyOfSubRule",
                            "type": "uint8"
                        },
                        {
                            "internalType": "uint8",
                            "name": "seqOfSubRule",
                            "type": "uint8"
                        },
                        {
                            "internalType": "uint8",
                            "name": "authority",
                            "type": "uint8"
                        },
                        {
                            "internalType": "uint16",
                            "name": "headRatio",
                            "type": "uint16"
                        },
                        {
                            "internalType": "uint16",
                            "name": "amountRatio",
                            "type": "uint16"
                        },
                        {
                            "internalType": "bool",
                            "name": "onlyAttendance",
                            "type": "bool"
                        },
                        {
                            "internalType": "bool",
                            "name": "impliedConsent",
                            "type": "bool"
                        },
                        {
                            "internalType": "bool",
                            "name": "partyAsConsent",
                            "type": "bool"
                        },
                        {
                            "internalType": "bool",
                            "name": "againstShallBuy",
                            "type": "bool"
                        },
                        {
                            "internalType": "uint8",
                            "name": "shaExecDays",
                            "type": "uint8"
                        },
                        {
                            "internalType": "uint8",
                            "name": "reviewDays",
                            "type": "uint8"
                        },
                        {
                            "internalType": "uint8",
                            "name": "votingDays",
                            "type": "uint8"
                        },
                        {
                            "internalType": "uint8",
                            "name": "execDaysForPutOpt",
                            "type": "uint8"
                        },
                        {
                            "internalType": "uint40[3]",
                            "name": "vetoers",
                            "type": "uint40[3]"
                        }
                    ],
                    "internalType": "struct RulesParser.VotingRule",
                    "name": "vr",
                    "type": "tuple"
                },
                {
                    "internalType": "bytes32",
                    "name": "docUrl",
                    "type": "bytes32"
                },
                {
                    "internalType": "bytes32",
                    "name": "docHash",
                    "type": "bytes32"
                }
            ],
            "name": "circulateDoc",
            "outputs": [],
            "stateMutability": "nonpayable",
            "type": "function"
        },
        {
            "inputs": [
                {
                    "internalType": "uint256",
                    "name": "typeOfDoc",
                    "type": "uint256"
                },
                {
                    "internalType": "uint256",
                    "name": "creator",
                    "type": "uint256"
                }
            ],
            "name": "createDoc",
            "outputs": [
                {
                    "internalType": "address",
                    "name": "body",
                    "type": "address"
                }
            ],
            "stateMutability": "nonpayable",
            "type": "function"
        },
        {
            "inputs": [],
            "name": "docsList",
            "outputs": [
                {
                    "internalType": "address[]",
                    "name": "",
                    "type": "address[]"
                }
            ],
            "stateMutability": "view",
            "type": "function"
        },
        {
            "inputs": [],
            "name": "finalized",
            "outputs": [
                {
                    "internalType": "bool",
                    "name": "",
                    "type": "bool"
                }
            ],
            "stateMutability": "view",
            "type": "function"
        },
        {
            "inputs": [],
            "name": "getBookeeper",
            "outputs": [
                {
                    "internalType": "address",
                    "name": "",
                    "type": "address"
                }
            ],
            "stateMutability": "view",
            "type": "function"
        },
        {
            "inputs": [],
            "name": "getGeneralCounsel",
            "outputs": [
                {
                    "internalType": "uint40",
                    "name": "",
                    "type": "uint40"
                }
            ],
            "stateMutability": "view",
            "type": "function"
        },
        {
            "inputs": [
                {
                    "internalType": "address",
                    "name": "body",
                    "type": "address"
                }
            ],
            "name": "getHeadOfDoc",
            "outputs": [
                {
                    "components": [
                        {
                            "internalType": "uint8",
                            "name": "typeOfDoc",
                            "type": "uint8"
                        },
                        {
                            "internalType": "uint40",
                            "name": "creator",
                            "type": "uint40"
                        },
                        {
                            "internalType": "uint48",
                            "name": "createDate",
                            "type": "uint48"
                        },
                        {
                            "internalType": "uint48",
                            "name": "shaExecDeadline",
                            "type": "uint48"
                        },
                        {
                            "internalType": "uint48",
                            "name": "proposeDeadline",
                            "type": "uint48"
                        },
                        {
                            "internalType": "uint8",
                            "name": "state",
                            "type": "uint8"
                        }
                    ],
                    "internalType": "struct IRepoOfDocs.Head",
                    "name": "head",
                    "type": "tuple"
                }
            ],
            "stateMutability": "view",
            "type": "function"
        },
        {
            "inputs": [],
            "name": "getOwner",
            "outputs": [
                {
                    "internalType": "uint40",
                    "name": "",
                    "type": "uint40"
                }
            ],
            "stateMutability": "view",
            "type": "function"
        },
        {
            "inputs": [
                {
                    "internalType": "address",
                    "name": "body",
                    "type": "address"
                }
            ],
            "name": "getRefOfDoc",
            "outputs": [
                {
                    "internalType": "bytes32",
                    "name": "docUrl",
                    "type": "bytes32"
                },
                {
                    "internalType": "bytes32",
                    "name": "docHash",
                    "type": "bytes32"
                }
            ],
            "stateMutability": "view",
            "type": "function"
        },
        {
            "inputs": [
                {
                    "internalType": "bytes32",
                    "name": "role",
                    "type": "bytes32"
                },
                {
                    "internalType": "uint256",
                    "name": "acct",
                    "type": "uint256"
                }
            ],
            "name": "grantRole",
            "outputs": [],
            "stateMutability": "nonpayable",
            "type": "function"
        },
        {
            "inputs": [
                {
                    "internalType": "bytes32",
                    "name": "role",
                    "type": "bytes32"
                },
                {
                    "internalType": "uint256",
                    "name": "acct",
                    "type": "uint256"
                }
            ],
            "name": "hasRole",
            "outputs": [
                {
                    "internalType": "bool",
                    "name": "",
                    "type": "bool"
                }
            ],
            "stateMutability": "view",
            "type": "function"
        },
        {
            "inputs": [
                {
                    "internalType": "uint256",
                    "name": "owner",
                    "type": "uint256"
                },
                {
                    "internalType": "address",
                    "name": "directKeeper",
                    "type": "address"
                },
                {
                    "internalType": "address",
                    "name": "regCenter",
                    "type": "address"
                },
                {
                    "internalType": "address",
                    "name": "generalKeeper",
                    "type": "address"
                }
            ],
            "name": "init",
            "outputs": [],
            "stateMutability": "nonpayable",
            "type": "function"
        },
        {
            "inputs": [
                {
                    "internalType": "address",
                    "name": "body",
                    "type": "address"
                }
            ],
            "name": "isRegistered",
            "outputs": [
                {
                    "internalType": "bool",
                    "name": "",
                    "type": "bool"
                }
            ],
            "stateMutability": "view",
            "type": "function"
        },
        {
            "inputs": [],
            "name": "lockContents",
            "outputs": [],
            "stateMutability": "nonpayable",
            "type": "function"
        },
        {
            "inputs": [],
            "name": "pointer",
            "outputs": [
                {
                    "internalType": "address",
                    "name": "",
                    "type": "address"
                }
            ],
            "stateMutability": "view",
            "type": "function"
        },
        {
            "inputs": [],
            "name": "qtyOfDocs",
            "outputs": [
                {
                    "internalType": "uint256",
                    "name": "",
                    "type": "uint256"
                }
            ],
            "stateMutability": "view",
            "type": "function"
        },
        {
            "inputs": [
                {
                    "internalType": "address",
                    "name": "body",
                    "type": "address"
                }
            ],
            "name": "removeDoc",
            "outputs": [],
            "stateMutability": "nonpayable",
            "type": "function"
        },
        {
            "inputs": [
                {
                    "internalType": "bytes32",
                    "name": "role",
                    "type": "bytes32"
                }
            ],
            "name": "renounceRole",
            "outputs": [],
            "stateMutability": "nonpayable",
            "type": "function"
        },
        {
            "inputs": [
                {
                    "internalType": "bytes32",
                    "name": "role",
                    "type": "bytes32"
                },
                {
                    "internalType": "uint256",
                    "name": "acct",
                    "type": "uint256"
                }
            ],
            "name": "revokeRole",
            "outputs": [],
            "stateMutability": "nonpayable",
            "type": "function"
        },
        {
            "inputs": [
                {
                    "internalType": "address",
                    "name": "keeper",
                    "type": "address"
                }
            ],
            "name": "setDirectKeeper",
            "outputs": [],
            "stateMutability": "nonpayable",
            "type": "function"
        },
        {
            "inputs": [
                {
                    "internalType": "uint256",
                    "name": "acct",
                    "type": "uint256"
                }
            ],
            "name": "setGeneralCounsel",
            "outputs": [],
            "stateMutability": "nonpayable",
            "type": "function"
        },
        {
            "inputs": [
                {
                    "internalType": "uint256",
                    "name": "acct",
                    "type": "uint256"
                }
            ],
            "name": "setOwner",
            "outputs": [],
            "stateMutability": "nonpayable",
            "type": "function"
        },
        {
            "inputs": [
                {
                    "internalType": "bytes32",
                    "name": "role",
                    "type": "bytes32"
                },
                {
                    "internalType": "uint256",
                    "name": "acct",
                    "type": "uint256"
                }
            ],
            "name": "setRoleAdmin",
            "outputs": [],
            "stateMutability": "nonpayable",
            "type": "function"
        },
        {
            "inputs": [
                {
                    "internalType": "address",
                    "name": "body",
                    "type": "address"
                },
                {
                    "internalType": "uint8",
                    "name": "state",
                    "type": "uint8"
                }
            ],
            "name": "setStateOfDoc",
            "outputs": [],
            "stateMutability": "nonpayable",
            "type": "function"
        },
        {
            "inputs": [
                {
                    "internalType": "address",
                    "name": "body",
                    "type": "address"
                },
                {
                    "internalType": "uint256",
                    "name": "typeOfDoc",
                    "type": "uint256"
                }
            ],
            "name": "setTemplate",
            "outputs": [],
            "stateMutability": "nonpayable",
            "type": "function"
        },
        {
            "inputs": [
                {
                    "internalType": "uint256",
                    "name": "typeOfDoc",
                    "type": "uint256"
                }
            ],
            "name": "tempReadyFor",
            "outputs": [
                {
                    "internalType": "bool",
                    "name": "",
                    "type": "bool"
                }
            ],
            "stateMutability": "view",
            "type": "function"
        },
        {
            "inputs": [
                {
                    "internalType": "uint256",
                    "name": "typeOfDoc",
                    "type": "uint256"
                }
            ],
            "name": "template",
            "outputs": [
                {
                    "internalType": "address",
                    "name": "",
                    "type": "address"
                }
            ],
            "stateMutability": "view",
            "type": "function"
        },
        {
            "inputs": [],
            "name": "tempsList",
            "outputs": [
                {
                    "internalType": "uint256[]",
                    "name": "",
                    "type": "uint256[]"
                }
            ],
            "stateMutability": "view",
            "type": "function"
        }
    ],
    "bytecode": "608060405234801561001057600080fd5b50612d06806100206000396000f3fe608060405234801561001057600080fd5b50600436106101da5760003560e01c8063893d20e811610104578063c3c5a547116100a2578063e71d875811610071578063e71d87581461047d578063ed211023146104a6578063ee4b47c1146104ae578063f045a769146104c457600080fd5b8063c3c5a547146103c8578063d42186fa146103db578063dc890da9146103ee578063de154c271461040157600080fd5b80638c32f23d116100de5780638c32f23d1461037b5780639f4d332f1461038e578063b3f05b97146103a1578063b70ebcd8146103b557600080fd5b8063893d20e81461034d5780638a4640da146103555780638bb9c5bf1461036857600080fd5b8063309ed9c81161017c5780635171ebd41161014b5780635171ebd4146102f15780636be8496f146103045780637e063c5a146103175780638041494e1461033a57600080fd5b8063309ed9c8146102a15780633da9a600146102b65780634a14beb1146102c95780634be157d5146102dc57600080fd5b8063211f5816116101b8578063211f58161461022a57806324344f111461023d578063289aeb57146102685780632f5f3b3c1461029057600080fd5b8063103f6edd146101df57806319d61ad9146102025780631b6ea9f914610217575b600080fd5b6101e76104cc565b60405164ffffffffff90911681526020015b60405180910390f35b61021561021036600461258e565b610558565b005b61021561022536600461258e565b6105ec565b6102156102383660046125de565b610611565b61025061024b36600461258e565b6107fe565b6040516001600160a01b0390911681526020016101f9565b61027b610276366004612613565b610c7e565b604080519283526020830191909152016101f9565b600a546001600160a01b0316610250565b6102a9610d5c565b6040516101f99190612630565b6102156102c4366004612674565b610de6565b6102156102d7366004612674565b610ef8565b6102e46110e8565b6040516101f9919061268d565b6102156102ff36600461258e565b611172565b610215610312366004612613565b611197565b61032a61032536600461258e565b611249565b60405190151581526020016101f9565b610215610348366004612674565b6112e4565b6101e76114c9565b61032a610363366004612674565b611504565b610215610376366004612674565b611598565b6102156103893660046127f4565b6115f1565b61021561039c366004612613565b611823565b60028054600160f01b900460ff161461032a565b6102156103c3366004612957565b611a00565b61032a6103d6366004612613565b611ba3565b6102156103e9366004612613565b611bed565b6102156103fc366004612983565b611e08565b61041461040f366004612613565b611eeb565b6040516101f99190600060c08201905060ff835116825264ffffffffff6020840151166020830152604083015165ffffffffffff8082166040850152806060860151166060850152806080860151166080850152505060ff60a08401511660a083015292915050565b61025061048b366004612674565b6000908152600460205260409020546001600160a01b031690565b610250612052565b6104b66120d8565b6040519081526020016101f9565b61021561215e565b60405163e8c0cc1d60e01b81526002600482015260009073__$364aad554dc80380f414546becdd2c1584$__9063e8c0cc1d906024015b60206040518083038186803b15801561051b57600080fd5b505af415801561052f573d6000803e3d6000fd5b505050506040513d601f19601f8201168201806040525081019061055391906129d6565b905090565b73__$364aad554dc80380f414546becdd2c1584$__6382daafaa60028461057d61237c565b6040516001600160e01b031960e086901b1681526004810193909352602483019190915264ffffffffff166044820152606481018490526084015b60006040518083038186803b1580156105d057600080fd5b505af41580156105e4573d6000803e3d6000fd5b505050505050565b73__$364aad554dc80380f414546becdd2c1584$__636320d75e60028461057d61237c565b60405163f698b0f160e01b8152600860048201526001600160a01b0383166024820152829073__$8c1a4844a0a0988ea2454cf87145a95df1$__9063f698b0f19060440160206040518083038186803b15801561066d57600080fd5b505af4158015610681573d6000803e3d6000fd5b505050506040513d601f19601f820116820180604052508101906106a591906129f3565b6106ca5760405162461bcd60e51b81526004016106c190612a10565b60405180910390fd5b6001546040516335d2155560e11b81523360048201526001600160a01b0390911690636ba42aaa9060240160206040518083038186803b15801561070d57600080fd5b505afa158015610721573d6000803e3d6000fd5b505050506040513d601f19601f8201168201806040525081019061074591906129f3565b6107855760405162461bcd60e51b815260206004820152601160248201527020a19737b59d103737ba1025b2b2b832b960791b60448201526064016106c1565b60405160ff831681526001600160a01b038416907f7d25780785c2b2fefad30c6603980e64e6005c311412119d7e4702f602fd730a9060200160405180910390a2506001600160a01b039091166000908152600760205260409020805460ff909216600160c01b0260ff60c01b19909216919091179055565b604051633b11adbf60e21b81526002600482015233602482015260009073__$364aad554dc80380f414546becdd2c1584$__9063ec46b6fc9060440160206040518083038186803b15801561085257600080fd5b505af4158015610866573d6000803e3d6000fd5b505050506040513d601f19601f8201168201806040525081019061088a91906129f3565b6108a65760405162461bcd60e51b81526004016106c190612a47565b604051633f5f77cd60e01b81526005600482015260248101849052839073__$8c1a4844a0a0988ea2454cf87145a95df1$__90633f5f77cd9060440160206040518083038186803b1580156108fa57600080fd5b505af415801561090e573d6000803e3d6000fd5b505050506040513d601f19601f8201168201806040525081019061093291906129f3565b61097e5760405162461bcd60e51b815260206004820152601b60248201527f524f442e6d642e54523a2074656d706c617465204e4f5420736574000000000060448201526064016106c1565b604051633f5f77cd60e01b8152600560048201526000602482018190529073__$8c1a4844a0a0988ea2454cf87145a95df1$__90633f5f77cd9060440160206040518083038186803b1580156109d357600080fd5b505af41580156109e7573d6000803e3d6000fd5b505050506040513d601f19601f82011682018060405250810190610a0b91906129f3565b610a575760405162461bcd60e51b815260206004820152601b60248201527f524f442e6d642e54523a2074656d706c617465204e4f5420736574000000000060448201526064016106c1565b600085815260046020526040812054610a78906001600160a01b03166123d6565b604051633e244cf360e01b8152600860048201526001600160a01b038216602482015290915073__$8c1a4844a0a0988ea2454cf87145a95df1$__90633e244cf39060440160206040518083038186803b158015610ad557600080fd5b505af4158015610ae9573d6000803e3d6000fd5b505050506040513d601f19601f82011682018060405250810190610b0d91906129f3565b15610c75579250826001600160a01b0381167f7d25780785c2b2fefad30c6603980e64e6005c311412119d7e4702f602fd730a600160405160ff909116815260200160405180910390a26040805160c08101825260ff8816815264ffffffffff8716602082015265ffffffffffff421691810191909152600060608201819052608082015260a08101600160ff9081169091526001600160a01b0386166000908152600760209081526040918290208451815492860151938601516060870151608088015160a0909801518716600160c01b0260ff60c01b1965ffffffffffff998a16600160901b021666ffffffffffffff60901b19928a16600160601b0265ffffffffffff60601b199a9094166601000000000000029990991671ffffffffffffffffffffffff0000000000001964ffffffffff9098166101000265ffffffffffff1990971694909816939093179490941794909416949094179290921716929092171790555b50505092915050565b60405163f698b0f160e01b8152600860048201526001600160a01b03821660248201526000908190839073__$8c1a4844a0a0988ea2454cf87145a95df1$__9063f698b0f19060440160206040518083038186803b158015610cdf57600080fd5b505af4158015610cf3573d6000803e3d6000fd5b505050506040513d601f19601f82011682018060405250810190610d1791906129f3565b610d335760405162461bcd60e51b81526004016106c190612a10565b5050506001600160a01b0316600090815260076020526040902060018101546002909101549091565b60405163034306e160e21b81526005600482015260609073__$8c1a4844a0a0988ea2454cf87145a95df1$__90630d0c1b849060240160006040518083038186803b158015610daa57600080fd5b505af4158015610dbe573d6000803e3d6000fd5b505050506040513d6000823e601f3d908101601f191682016040526105539190810190612ab1565b604051633b11adbf60e21b81526002600482015233602482015273__$364aad554dc80380f414546becdd2c1584$__9063ec46b6fc9060440160206040518083038186803b158015610e3757600080fd5b505af4158015610e4b573d6000803e3d6000fd5b505050506040513d601f19601f82011682018060405250810190610e6f91906129f3565b610e8b5760405162461bcd60e51b81526004016106c190612a47565b60405163cc99e11b60e01b8152600260048201526024810182905273__$364aad554dc80380f414546becdd2c1584$__9063cc99e11b9060440160006040518083038186803b158015610edd57600080fd5b505af4158015610ef1573d6000803e3d6000fd5b5050505050565b604051633b11adbf60e21b81526002600482015233602482015273__$364aad554dc80380f414546becdd2c1584$__9063ec46b6fc9060440160206040518083038186803b158015610f4957600080fd5b505af4158015610f5d573d6000803e3d6000fd5b505050506040513d601f19601f82011682018060405250810190610f8191906129f3565b80611026575073__$364aad554dc80380f414546becdd2c1584$__63fe2710866002610fab61237c565b6040516001600160e01b031960e085901b168152600481019290925264ffffffffff16602482015260440160206040518083038186803b158015610fee57600080fd5b505af4158015611002573d6000803e3d6000fd5b505050506040513d601f19601f8201168201806040525081019061102691906129f3565b6110425760405162461bcd60e51b81526004016106c190612b47565b604051632725ebef60e21b8152600260048201526024810182905273__$364aad554dc80380f414546becdd2c1584$__90639c97afbc9060440160006040518083038186803b15801561109457600080fd5b505af41580156110a8573d6000803e3d6000fd5b505050507ff2735f34b69be1e6342dea95f9162f84d0db925fab655ca9f1f312ac8cbfc99d816040516110dd91815260200190565b60405180910390a150565b604051638f65372b60e01b81526008600482015260609073__$8c1a4844a0a0988ea2454cf87145a95df1$__90638f65372b9060240160006040518083038186803b15801561113657600080fd5b505af415801561114a573d6000803e3d6000fd5b505050506040513d6000823e601f3d908101601f191682016040526105539190810190612b9d565b73__$364aad554dc80380f414546becdd2c1584$__63ee98b31360028461057d61237c565b604051630f07232560e01b8152600260048201523360248201526001600160a01b038216604482015273__$364aad554dc80380f414546becdd2c1584$__90630f0723259060640160006040518083038186803b1580156111f757600080fd5b505af415801561120b573d6000803e3d6000fd5b50506040516001600160a01b03841681527fe435cbeab64e4eae6497b9d8289704bd709d624a80704ef3ca9af777534bc6ec925060200190506110dd565b604051632a3be56b60e21b815260026004820152602481018390526044810182905260009073__$364aad554dc80380f414546becdd2c1584$__9063a8ef95ac9060640160206040518083038186803b1580156112a557600080fd5b505af41580156112b9573d6000803e3d6000fd5b505050506040513d601f19601f820116820180604052508101906112dd91906129f3565b9392505050565b604051633b11adbf60e21b81526002600482015233602482015273__$364aad554dc80380f414546becdd2c1584$__9063ec46b6fc9060440160206040518083038186803b15801561133557600080fd5b505af4158015611349573d6000803e3d6000fd5b505050506040513d601f19601f8201168201806040525081019061136d91906129f3565b80611412575073__$364aad554dc80380f414546becdd2c1584$__63fe271086600261139761237c565b6040516001600160e01b031960e085901b168152600481019290925264ffffffffff16602482015260440160206040518083038186803b1580156113da57600080fd5b505af41580156113ee573d6000803e3d6000fd5b505050506040513d601f19601f8201168201806040525081019061141291906129f3565b61142e5760405162461bcd60e51b81526004016106c190612b47565b60405163b6e38a2960e01b8152600260048201526024810182905273__$364aad554dc80380f414546becdd2c1584$__9063b6e38a299060440160006040518083038186803b15801561148057600080fd5b505af4158015611494573d6000803e3d6000fd5b505050507f8b6f40f36b4ae8cc5f55e895036457c43da4ab1f80f58c46f5ff0d72a650033b816040516110dd91815260200190565b60405163987ad15360e01b81526002600482015260009073__$364aad554dc80380f414546becdd2c1584$__9063987ad15390602401610503565b604051633f5f77cd60e01b8152600560048201526024810182905260009073__$8c1a4844a0a0988ea2454cf87145a95df1$__90633f5f77cd906044015b60206040518083038186803b15801561155a57600080fd5b505af415801561156e573d6000803e3d6000fd5b505050506040513d601f19601f8201168201806040525081019061159291906129f3565b92915050565b60006115a261237c565b60405163cc0d511b60e01b8152600260048201526024810184905264ffffffffff8216604482015290915073__$364aad554dc80380f414546becdd2c1584$__9063cc0d511b906064016105b8565b604051633b11adbf60e21b81526002600482015233602482015273__$364aad554dc80380f414546becdd2c1584$__9063ec46b6fc9060440160206040518083038186803b15801561164257600080fd5b505af4158015611656573d6000803e3d6000fd5b505050506040513d601f19601f8201168201806040525081019061167a91906129f3565b6116965760405162461bcd60e51b81526004016106c190612a47565b6001600160a01b038416600090815260076020526040902054849060ff600160c01b9091041660011461170b5760405162461bcd60e51b815260206004820152601b60248201527f524f442e6d642e4f46503a20446f63206e6f742070656e64696e67000000000060448201526064016106c1565b604051600281526001600160a01b038616907f7d25780785c2b2fefad30c6603980e64e6005c311412119d7e4702f602fd730a9060200160405180910390a26001600160a01b03851660009081526007602052604090206101408501516117789060ff1662015180612c42565b6117829042612c70565b815465ffffffffffff91909116600160601b0265ffffffffffff60601b199091161781556101608501516117bc9060ff1662015180612c42565b81546117d79190600160601b900465ffffffffffff16612c70565b815460018301959095556002820193909355600160c11b66ffffffffffffff60901b1990941665ffffffffffff909316600160901b0260ff60c01b191692909217929092179055505050565b604051633b11adbf60e21b81526002600482015233602482015273__$364aad554dc80380f414546becdd2c1584$__9063ec46b6fc9060440160206040518083038186803b15801561187457600080fd5b505af4158015611888573d6000803e3d6000fd5b505050506040513d601f19601f820116820180604052508101906118ac91906129f3565b6118c85760405162461bcd60e51b81526004016106c190612a47565b60405163f698b0f160e01b8152600860048201526001600160a01b0382166024820152819073__$8c1a4844a0a0988ea2454cf87145a95df1$__9063f698b0f19060440160206040518083038186803b15801561192457600080fd5b505af4158015611938573d6000803e3d6000fd5b505050506040513d601f19601f8201168201806040525081019061195c91906129f3565b6119785760405162461bcd60e51b81526004016106c190612a10565b600a546001600160a01b0316156119a057600a546119a0906001600160a01b03166007610611565b6119ab826006610611565b600a80546001600160a01b0319166001600160a01b0384169081179091556040519081527f8ac18d4db45c0c75a47f58fea54c52214d312783e8916556d79566e6103d0f1e9060200160405180910390a15050565b604051633b11adbf60e21b81526002600482015233602482015273__$364aad554dc80380f414546becdd2c1584$__9063ec46b6fc9060440160206040518083038186803b158015611a5157600080fd5b505af4158015611a65573d6000803e3d6000fd5b505050506040513d601f19601f82011682018060405250810190611a8991906129f3565b611aa55760405162461bcd60e51b81526004016106c190612a47565b816001600160a01b03167f69e0d9bafb5046296417aaeb6e5f2d326263f2c4211bc67a7d7fa7f03b0e437382604051611ae091815260200190565b60405180910390a260008181526004602081905260409182902080546001600160a01b0319166001600160a01b03861617905590516392f13c3f60e01b81526005918101919091526024810182905273__$8c1a4844a0a0988ea2454cf87145a95df1$__906392f13c3f9060440160206040518083038186803b158015611b6657600080fd5b505af4158015611b7a573d6000803e3d6000fd5b505050506040513d601f19601f82011682018060405250810190611b9e91906129f3565b505050565b60405163f698b0f160e01b8152600860048201526001600160a01b038216602482015260009073__$8c1a4844a0a0988ea2454cf87145a95df1$__9063f698b0f190604401611542565b604051633b11adbf60e21b81526002600482015233602482015273__$364aad554dc80380f414546becdd2c1584$__9063ec46b6fc9060440160206040518083038186803b158015611c3e57600080fd5b505af4158015611c52573d6000803e3d6000fd5b505050506040513d601f19601f82011682018060405250810190611c7691906129f3565b611c925760405162461bcd60e51b81526004016106c190612a47565b6001600160a01b038116600090815260076020526040902054819060ff600160c01b90910416600114611d075760405162461bcd60e51b815260206004820152601b60248201527f524f442e6d642e4f46503a20446f63206e6f742070656e64696e67000000000060448201526064016106c1565b604051636ea2751560e01b8152600860048201526001600160a01b038316602482015273__$8c1a4844a0a0988ea2454cf87145a95df1$__90636ea275159060440160206040518083038186803b158015611d6157600080fd5b505af4158015611d75573d6000803e3d6000fd5b505050506040513d601f19601f82011682018060405250810190611d9991906129f3565b15611e04576040516001600160a01b038316907f05633b380cd1dd8bb1af7cbbf29e862857a3f147da66cbb23bdad8f7e527830b90600090a26001600160a01b038216600090815260076020526040812080546001600160c81b031916815560018101829055600201555b5050565b611e1182612428565b611e1a816124d7565b604051636cdd0edf60e11b815260026004820152602481018590526001600160a01b038416604482015273__$364aad554dc80380f414546becdd2c1584$__9063d9ba1dbe9060640160006040518083038186803b158015611e7b57600080fd5b505af4158015611e8f573d6000803e3d6000fd5b5050604080518781526001600160a01b038781166020830152868116828401528516606082015290517f3abb2418c66fe32ba9c883030a75ce583971d9af9192b9b74e44e67c5e6c8c1f9350908190036080019150a150505050565b6040805160c081018252600080825260208201819052818301819052606082018190526080820181905260a0820152905163f698b0f160e01b8152600860048201526001600160a01b0383166024820152829073__$8c1a4844a0a0988ea2454cf87145a95df1$__9063f698b0f19060440160206040518083038186803b158015611f7557600080fd5b505af4158015611f89573d6000803e3d6000fd5b505050506040513d601f19601f82011682018060405250810190611fad91906129f3565b611fc95760405162461bcd60e51b81526004016106c190612a10565b50506001600160a01b0316600090815260076020908152604091829020825160c081018452905460ff808216835264ffffffffff6101008304169383019390935265ffffffffffff66010000000000008204811694830194909452600160601b810484166060830152600160901b81049093166080820152600160c01b9092041660a082015290565b604051633c3e56c160e11b81526002600482015260009073__$364aad554dc80380f414546becdd2c1584$__9063787cad829060240160206040518083038186803b1580156120a057600080fd5b505af41580156120b4573d6000803e3d6000fd5b505050506040513d601f19601f820116820180604052508101906105539190612c9a565b604051635e77c9af60e01b81526008600482015260009073__$8c1a4844a0a0988ea2454cf87145a95df1$__90635e77c9af9060240160206040518083038186803b15801561212657600080fd5b505af415801561213a573d6000803e3d6000fd5b505050506040513d601f19601f820116820180604052508101906105539190612cb7565b604051633b11adbf60e21b81526002600482015233602482015273__$364aad554dc80380f414546becdd2c1584$__9063ec46b6fc9060440160206040518083038186803b1580156121af57600080fd5b505af41580156121c3573d6000803e3d6000fd5b505050506040513d601f19601f820116820180604052508101906121e791906129f3565b6122035760405162461bcd60e51b81526004016106c190612a47565b600254600160f01b900460ff1660011461225f5760405162461bcd60e51b815260206004820181905260248201527f41432e6f6e6c7950656e64696e673a20446f632069732066696e616c697a656460448201526064016106c1565b60405163cc99e11b60e01b815260026004820152684174746f726e65797360b81b602482015273__$364aad554dc80380f414546becdd2c1584$__9063cc99e11b9060440160006040518083038186803b1580156122bc57600080fd5b505af41580156122d0573d6000803e3d6000fd5b5050604051632725ebef60e21b8152600260048201526000602482015273__$364aad554dc80380f414546becdd2c1584$__9250639c97afbc915060440160006040518083038186803b15801561232657600080fd5b505af415801561233a573d6000803e3d6000fd5b50506002805460ff60f01b1916600160f11b17905550506040517f35012b512309c322acf68632cd6cb702ff0e1d776fbe9394e38ffc13b434fe7590600090a1565b60008054604051634de835e760e11b81523360048201526001600160a01b0390911690639bd06bce90602401602060405180830381600087803b1580156123c257600080fd5b505af115801561052f573d6000803e3d6000fd5b6000808260601b9050604051733d602d80600a3d3981f3363d3d373d3d3d363d7360601b81528160148201526e5af43d82803e903d91602b57fd5bf360881b60288201526037816000f0949350505050565b6000546001600160a01b0316156124795760405162461bcd60e51b815260206004820152601560248201527430b63932b0b23c9039b2ba103932b3a1b2b73a32b960591b60448201526064016106c1565b6040516001600160a01b03821681527f318da6c7624c71cbc0afe346c9d8827f119d0ecefb241a7b0c87217a076a8e029060200160405180910390a1600080546001600160a01b0319166001600160a01b0392909216919091179055565b6001546001600160a01b0316156125305760405162461bcd60e51b815260206004820152601960248201527f616c7265616479207365742067656e6572616c4b65657065720000000000000060448201526064016106c1565b6040516001600160a01b03821681527fe513d3e0f0d0a3877029dcc588748679a7a3450ec1ec7ed56d96bd012c3e61aa9060200160405180910390a1600180546001600160a01b0319166001600160a01b0392909216919091179055565b600080604083850312156125a157600080fd5b50508035926020909101359150565b6001600160a01b03811681146125c557600080fd5b50565b803560ff811681146125d957600080fd5b919050565b600080604083850312156125f157600080fd5b82356125fc816125b0565b915061260a602084016125c8565b90509250929050565b60006020828403121561262557600080fd5b81356112dd816125b0565b6020808252825182820181905260009190848201906040850190845b818110156126685783518352928401929184019160010161264c565b50909695505050505050565b60006020828403121561268657600080fd5b5035919050565b6020808252825182820181905260009190848201906040850190845b818110156126685783516001600160a01b0316835292840192918401916001016126a9565b634e487b7160e01b600052604160045260246000fd5b6040516101e0810167ffffffffffffffff81118282101715612708576127086126ce565b60405290565b604051601f8201601f1916810167ffffffffffffffff81118282101715612737576127376126ce565b604052919050565b803561ffff811681146125d957600080fd5b80151581146125c557600080fd5b80356125d981612751565b64ffffffffff811681146125c557600080fd5b600082601f83011261278e57600080fd5b6040516060810181811067ffffffffffffffff821117156127b1576127b16126ce565b6040528060608401858111156127c657600080fd5b845b818110156127e95780356127db8161276a565b8352602092830192016127c8565b509195945050505050565b60008060008084860361028081121561280c57600080fd5b8535612817816125b0565b9450610220601f198201121561282c57600080fd5b506128356126e4565b6128416020870161273f565b815261284f604087016125c8565b6020820152612860606087016125c8565b6040820152612871608087016125c8565b606082015261288260a0870161273f565b608082015261289360c0870161273f565b60a08201526128a460e0870161275f565b60c08201526101006128b781880161275f565b60e08301526101206128ca81890161275f565b8284015261014091506128de82890161275f565b908301526101606128f08882016125c8565b8284015261018091506129048289016125c8565b908301526101a06129168882016125c8565b828401526101c0915061292a8289016125c8565b9083015261293c886101e0890161277d565b90820152939693955050505061024082013591610260013590565b6000806040838503121561296a57600080fd5b8235612975816125b0565b946020939093013593505050565b6000806000806080858703121561299957600080fd5b8435935060208501356129ab816125b0565b925060408501356129bb816125b0565b915060608501356129cb816125b0565b939692955090935050565b6000602082840312156129e857600080fd5b81516112dd8161276a565b600060208284031215612a0557600080fd5b81516112dd81612751565b6020808252601d908201527f524f442e6d642e4f523a20646f63204e4f542072656769737465726564000000604082015260600190565b60208082526026908201527f41432e6f6e6c794469726563744b65657065723a206e6f74206469726563742060408201526535b2b2b832b960d11b606082015260800190565b600067ffffffffffffffff821115612aa757612aa76126ce565b5060051b60200190565b60006020808385031215612ac457600080fd5b825167ffffffffffffffff811115612adb57600080fd5b8301601f81018513612aec57600080fd5b8051612aff612afa82612a8d565b61270e565b81815260059190911b82018301908381019087831115612b1e57600080fd5b928401925b82841015612b3c57835182529284019290840190612b23565b979650505050505050565b60208082526036908201527f41432e6f776e65724f72446972656374426f6f6b65657065723a206e6569746860408201527532b91037bbb732b9103737b9103137b7b5b2b2b832b960511b606082015260800190565b60006020808385031215612bb057600080fd5b825167ffffffffffffffff811115612bc757600080fd5b8301601f81018513612bd857600080fd5b8051612be6612afa82612a8d565b81815260059190911b82018301908381019087831115612c0557600080fd5b928401925b82841015612b3c578351612c1d816125b0565b82529284019290840190612c0a565b634e487b7160e01b600052601160045260246000fd5b600065ffffffffffff80831681851681830481118215151615612c6757612c67612c2c565b02949350505050565b600065ffffffffffff808316818516808303821115612c9157612c91612c2c565b01949350505050565b600060208284031215612cac57600080fd5b81516112dd816125b0565b600060208284031215612cc957600080fd5b505191905056fea26469706673582212201ea1e5a2c17d0a8b09c9c105a0eb5d1f4ceb7d2d7f63aa9de44421262a9e8cc064736f6c63430008080033",
    "sourcePath": "/Users/kaptain/github.com/hardhat/comboox/contracts/books/boh/BookOfSHA.sol",
    "compiler": {
        "name": "solc",
        "version": "0.8.8+commit.dddeac2f"
    },
    "functionHashes": {
        "abandonRole(bytes32)": "3da9a600",
        "changePointer(address)": "9f4d332f",
        "circulateDoc(address,(uint16,uint8,uint8,uint8,uint16,uint16,bool,bool,bool,bool,uint8,uint8,uint8,uint8,uint40[3]),bytes32,bytes32)": "8c32f23d",
        "createDoc(uint256,uint256)": "24344f11",
        "docsList()": "4be157d5",
        "finalized()": "b3f05b97",
        "getBookeeper()": "ed211023",
        "getGeneralCounsel()": "103f6edd",
        "getHeadOfDoc(address)": "de154c27",
        "getOwner()": "893d20e8",
        "getRefOfDoc(address)": "289aeb57",
        "grantRole(bytes32,uint256)": "1b6ea9f9",
        "hasRole(bytes32,uint256)": "7e063c5a",
        "init(uint256,address,address,address)": "dc890da9",
        "isRegistered(address)": "c3c5a547",
        "lockContents()": "f045a769",
        "pointer()": "2f5f3b3c",
        "qtyOfDocs()": "ee4b47c1",
        "removeDoc(address)": "d42186fa",
        "renounceRole(bytes32)": "8bb9c5bf",
        "revokeRole(bytes32,uint256)": "19d61ad9",
        "setDirectKeeper(address)": "6be8496f",
        "setGeneralCounsel(uint256)": "4a14beb1",
        "setOwner(uint256)": "8041494e",
        "setRoleAdmin(bytes32,uint256)": "5171ebd4",
        "setStateOfDoc(address,uint8)": "211f5816",
        "setTemplate(address,uint256)": "b70ebcd8",
        "tempReadyFor(uint256)": "8a4640da",
        "template(uint256)": "e71d8758",
        "tempsList()": "309ed9c8"
    },
    "gasEstimates": {
        "creation": {
            "codeDepositCost": "2305200",
            "executionCost": "2471",
            "totalCost": "2307671"
        },
        "external": {
            "abandonRole(bytes32)": "infinite",
            "changePointer(address)": "infinite",
            "circulateDoc(address,(uint16,uint8,uint8,uint8,uint16,uint16,bool,bool,bool,bool,uint8,uint8,uint8,uint8,uint40[3]),bytes32,bytes32)": "infinite",
            "createDoc(uint256,uint256)": "infinite",
            "docsList()": "infinite",
            "finalized()": "2416",
            "getBookeeper()": "infinite",
            "getGeneralCounsel()": "infinite",
            "getHeadOfDoc(address)": "infinite",
            "getOwner()": "infinite",
            "getRefOfDoc(address)": "infinite",
            "grantRole(bytes32,uint256)": "infinite",
            "hasRole(bytes32,uint256)": "infinite",
            "init(uint256,address,address,address)": "infinite",
            "isRegistered(address)": "infinite",
            "lockContents()": "infinite",
            "pointer()": "2443",
            "qtyOfDocs()": "infinite",
            "removeDoc(address)": "infinite",
            "renounceRole(bytes32)": "infinite",
            "revokeRole(bytes32,uint256)": "infinite",
            "setDirectKeeper(address)": "infinite",
            "setGeneralCounsel(uint256)": "infinite",
            "setOwner(uint256)": "infinite",
            "setRoleAdmin(bytes32,uint256)": "infinite",
            "setStateOfDoc(address,uint8)": "infinite",
            "setTemplate(address,uint256)": "infinite",
            "tempReadyFor(uint256)": "infinite",
            "template(uint256)": "2521",
            "tempsList()": "infinite"
        }
    }
}