{
    "contractName": "BookOfSHA",
    "abi": [
        {
            "anonymous": false,
            "inputs": [
                {
                    "indexed": false,
                    "internalType": "address",
                    "name": "pointer",
                    "type": "address"
                }
            ],
            "name": "ChangePointer",
            "type": "event"
        },
        {
            "anonymous": false,
            "inputs": [
                {
                    "indexed": false,
                    "internalType": "uint256",
                    "name": "owner",
                    "type": "uint256"
                },
                {
                    "indexed": false,
                    "internalType": "address",
                    "name": "directKeeper",
                    "type": "address"
                },
                {
                    "indexed": false,
                    "internalType": "address",
                    "name": "regCenter",
                    "type": "address"
                },
                {
                    "indexed": false,
                    "internalType": "address",
                    "name": "generalKeeper",
                    "type": "address"
                }
            ],
            "name": "Init",
            "type": "event"
        },
        {
            "anonymous": false,
            "inputs": [],
            "name": "LockContents",
            "type": "event"
        },
        {
            "anonymous": false,
            "inputs": [
                {
                    "indexed": false,
                    "internalType": "address",
                    "name": "keeper",
                    "type": "address"
                }
            ],
            "name": "SetDirectKeeper",
            "type": "event"
        },
        {
            "anonymous": false,
            "inputs": [
                {
                    "indexed": false,
                    "internalType": "uint256",
                    "name": "acct",
                    "type": "uint256"
                }
            ],
            "name": "SetGeneralCounsel",
            "type": "event"
        },
        {
            "anonymous": false,
            "inputs": [
                {
                    "indexed": false,
                    "internalType": "uint256",
                    "name": "acct",
                    "type": "uint256"
                }
            ],
            "name": "SetOwner",
            "type": "event"
        },
        {
            "anonymous": false,
            "inputs": [
                {
                    "indexed": true,
                    "internalType": "address",
                    "name": "body",
                    "type": "address"
                },
                {
                    "indexed": false,
                    "internalType": "uint8",
                    "name": "state",
                    "type": "uint8"
                }
            ],
            "name": "UpdateStateOfFile",
            "type": "event"
        },
        {
            "inputs": [
                {
                    "internalType": "bytes32",
                    "name": "role",
                    "type": "bytes32"
                }
            ],
            "name": "abandonRole",
            "outputs": [],
            "stateMutability": "nonpayable",
            "type": "function"
        },
        {
            "inputs": [
                {
                    "internalType": "address",
                    "name": "body",
                    "type": "address"
                }
            ],
            "name": "changePointer",
            "outputs": [],
            "stateMutability": "nonpayable",
            "type": "function"
        },
        {
            "inputs": [
                {
                    "internalType": "address",
                    "name": "body",
                    "type": "address"
                },
                {
                    "components": [
                        {
                            "internalType": "uint16",
                            "name": "seqOfRule",
                            "type": "uint16"
                        },
                        {
                            "internalType": "uint8",
                            "name": "qtyOfSubRule",
                            "type": "uint8"
                        },
                        {
                            "internalType": "uint8",
                            "name": "seqOfSubRule",
                            "type": "uint8"
                        },
                        {
                            "internalType": "uint16",
                            "name": "authority",
                            "type": "uint16"
                        },
                        {
                            "internalType": "uint16",
                            "name": "headRatio",
                            "type": "uint16"
                        },
                        {
                            "internalType": "uint16",
                            "name": "amountRatio",
                            "type": "uint16"
                        },
                        {
                            "internalType": "bool",
                            "name": "onlyAttendance",
                            "type": "bool"
                        },
                        {
                            "internalType": "bool",
                            "name": "impliedConsent",
                            "type": "bool"
                        },
                        {
                            "internalType": "bool",
                            "name": "partyAsConsent",
                            "type": "bool"
                        },
                        {
                            "internalType": "bool",
                            "name": "againstShallBuy",
                            "type": "bool"
                        },
                        {
                            "internalType": "uint16",
                            "name": "shaExecDays",
                            "type": "uint16"
                        },
                        {
                            "internalType": "uint16",
                            "name": "reviewDays",
                            "type": "uint16"
                        },
                        {
                            "internalType": "uint16",
                            "name": "votingDays",
                            "type": "uint16"
                        },
                        {
                            "internalType": "uint16",
                            "name": "execDaysForPutOpt",
                            "type": "uint16"
                        },
                        {
                            "internalType": "uint40[2]",
                            "name": "vetoers",
                            "type": "uint40[2]"
                        }
                    ],
                    "internalType": "struct RulesParser.VotingRule",
                    "name": "vr",
                    "type": "tuple"
                },
                {
                    "internalType": "bytes32",
                    "name": "docUrl",
                    "type": "bytes32"
                },
                {
                    "internalType": "bytes32",
                    "name": "docHash",
                    "type": "bytes32"
                }
            ],
            "name": "circulateDoc",
            "outputs": [],
            "stateMutability": "nonpayable",
            "type": "function"
        },
        {
            "inputs": [],
            "name": "filesList",
            "outputs": [
                {
                    "internalType": "address[]",
                    "name": "",
                    "type": "address[]"
                }
            ],
            "stateMutability": "view",
            "type": "function"
        },
        {
            "inputs": [],
            "name": "finalized",
            "outputs": [
                {
                    "internalType": "bool",
                    "name": "",
                    "type": "bool"
                }
            ],
            "stateMutability": "view",
            "type": "function"
        },
        {
            "inputs": [],
            "name": "getBookeeper",
            "outputs": [
                {
                    "internalType": "address",
                    "name": "",
                    "type": "address"
                }
            ],
            "stateMutability": "view",
            "type": "function"
        },
        {
            "inputs": [],
            "name": "getGeneralCounsel",
            "outputs": [
                {
                    "internalType": "uint40",
                    "name": "",
                    "type": "uint40"
                }
            ],
            "stateMutability": "view",
            "type": "function"
        },
        {
            "inputs": [
                {
                    "internalType": "address",
                    "name": "body",
                    "type": "address"
                }
            ],
            "name": "getHeadOfFile",
            "outputs": [
                {
                    "components": [
                        {
                            "internalType": "uint256",
                            "name": "snOfDoc",
                            "type": "uint256"
                        },
                        {
                            "internalType": "uint48",
                            "name": "shaExecDeadline",
                            "type": "uint48"
                        },
                        {
                            "internalType": "uint48",
                            "name": "proposeDeadline",
                            "type": "uint48"
                        },
                        {
                            "internalType": "uint8",
                            "name": "state",
                            "type": "uint8"
                        }
                    ],
                    "internalType": "struct IFilesFolder.Head",
                    "name": "head",
                    "type": "tuple"
                }
            ],
            "stateMutability": "view",
            "type": "function"
        },
        {
            "inputs": [],
            "name": "getOwner",
            "outputs": [
                {
                    "internalType": "uint40",
                    "name": "",
                    "type": "uint40"
                }
            ],
            "stateMutability": "view",
            "type": "function"
        },
        {
            "inputs": [
                {
                    "internalType": "address",
                    "name": "body",
                    "type": "address"
                }
            ],
            "name": "getRefOfFile",
            "outputs": [
                {
                    "components": [
                        {
                            "internalType": "bytes32",
                            "name": "docUrl",
                            "type": "bytes32"
                        },
                        {
                            "internalType": "bytes32",
                            "name": "docHash",
                            "type": "bytes32"
                        }
                    ],
                    "internalType": "struct IFilesFolder.Ref",
                    "name": "ref",
                    "type": "tuple"
                }
            ],
            "stateMutability": "view",
            "type": "function"
        },
        {
            "inputs": [
                {
                    "internalType": "bytes32",
                    "name": "role",
                    "type": "bytes32"
                },
                {
                    "internalType": "uint256",
                    "name": "acct",
                    "type": "uint256"
                }
            ],
            "name": "grantRole",
            "outputs": [],
            "stateMutability": "nonpayable",
            "type": "function"
        },
        {
            "inputs": [
                {
                    "internalType": "bytes32",
                    "name": "role",
                    "type": "bytes32"
                },
                {
                    "internalType": "uint256",
                    "name": "acct",
                    "type": "uint256"
                }
            ],
            "name": "hasRole",
            "outputs": [
                {
                    "internalType": "bool",
                    "name": "",
                    "type": "bool"
                }
            ],
            "stateMutability": "view",
            "type": "function"
        },
        {
            "inputs": [
                {
                    "internalType": "uint256",
                    "name": "owner",
                    "type": "uint256"
                },
                {
                    "internalType": "address",
                    "name": "directKeeper",
                    "type": "address"
                },
                {
                    "internalType": "address",
                    "name": "regCenter",
                    "type": "address"
                },
                {
                    "internalType": "address",
                    "name": "generalKeeper",
                    "type": "address"
                }
            ],
            "name": "init",
            "outputs": [],
            "stateMutability": "nonpayable",
            "type": "function"
        },
        {
            "inputs": [
                {
                    "internalType": "address",
                    "name": "body",
                    "type": "address"
                }
            ],
            "name": "isRegistered",
            "outputs": [
                {
                    "internalType": "bool",
                    "name": "",
                    "type": "bool"
                }
            ],
            "stateMutability": "view",
            "type": "function"
        },
        {
            "inputs": [],
            "name": "lockContents",
            "outputs": [],
            "stateMutability": "nonpayable",
            "type": "function"
        },
        {
            "inputs": [],
            "name": "pointer",
            "outputs": [
                {
                    "internalType": "address",
                    "name": "",
                    "type": "address"
                }
            ],
            "stateMutability": "view",
            "type": "function"
        },
        {
            "inputs": [],
            "name": "qtyOfFiles",
            "outputs": [
                {
                    "internalType": "uint256",
                    "name": "",
                    "type": "uint256"
                }
            ],
            "stateMutability": "view",
            "type": "function"
        },
        {
            "inputs": [
                {
                    "internalType": "uint256",
                    "name": "snOfDoc",
                    "type": "uint256"
                },
                {
                    "internalType": "address",
                    "name": "body",
                    "type": "address"
                }
            ],
            "name": "regFile",
            "outputs": [],
            "stateMutability": "nonpayable",
            "type": "function"
        },
        {
            "inputs": [
                {
                    "internalType": "bytes32",
                    "name": "role",
                    "type": "bytes32"
                }
            ],
            "name": "renounceRole",
            "outputs": [],
            "stateMutability": "nonpayable",
            "type": "function"
        },
        {
            "inputs": [
                {
                    "internalType": "bytes32",
                    "name": "role",
                    "type": "bytes32"
                },
                {
                    "internalType": "uint256",
                    "name": "acct",
                    "type": "uint256"
                }
            ],
            "name": "revokeRole",
            "outputs": [],
            "stateMutability": "nonpayable",
            "type": "function"
        },
        {
            "inputs": [
                {
                    "internalType": "address",
                    "name": "keeper",
                    "type": "address"
                }
            ],
            "name": "setDirectKeeper",
            "outputs": [],
            "stateMutability": "nonpayable",
            "type": "function"
        },
        {
            "inputs": [
                {
                    "internalType": "uint256",
                    "name": "acct",
                    "type": "uint256"
                }
            ],
            "name": "setGeneralCounsel",
            "outputs": [],
            "stateMutability": "nonpayable",
            "type": "function"
        },
        {
            "inputs": [
                {
                    "internalType": "uint256",
                    "name": "acct",
                    "type": "uint256"
                }
            ],
            "name": "setOwner",
            "outputs": [],
            "stateMutability": "nonpayable",
            "type": "function"
        },
        {
            "inputs": [
                {
                    "internalType": "bytes32",
                    "name": "role",
                    "type": "bytes32"
                },
                {
                    "internalType": "uint256",
                    "name": "acct",
                    "type": "uint256"
                }
            ],
            "name": "setRoleAdmin",
            "outputs": [],
            "stateMutability": "nonpayable",
            "type": "function"
        },
        {
            "inputs": [
                {
                    "internalType": "address",
                    "name": "body",
                    "type": "address"
                },
                {
                    "internalType": "uint8",
                    "name": "state",
                    "type": "uint8"
                }
            ],
            "name": "setStateOfFile",
            "outputs": [],
            "stateMutability": "nonpayable",
            "type": "function"
        }
    ],
    "bytecode": "608060405234801561001057600080fd5b5061216f806100206000396000f3fe608060405234801561001057600080fd5b50600436106101735760003560e01c80637e063c5a116100de5780639f4d332f11610097578063d02ef14d11610071578063d02ef14d14610394578063dc890da9146103a7578063ed211023146103ba578063f045a769146103c257600080fd5b80639f4d332f1461035a578063b3f05b971461036d578063c3c5a5471461038157600080fd5b80637e063c5a146102de5780638041494e14610301578063893d20e8146103145780638bb9c5bf1461031c5780638fefe1cd1461032f5780639ee4ad4e1461034457600080fd5b8063511b707d11610130578063511b707d1461020e5780635171ebd41461022157806358598c35146102345780636894f921146102625780636be8496f146102755780636e0cdd3a1461028857600080fd5b8063103f6edd1461017857806319d61ad91461019b5780631b6ea9f9146101b05780632f5f3b3c146101c35780633da9a600146101e85780634a14beb1146101fb575b600080fd5b6101806103ca565b60405164ffffffffff90911681526020015b60405180910390f35b6101ae6101a9366004611b16565b610456565b005b6101ae6101be366004611b16565b6104e8565b6007546001600160a01b03165b6040516001600160a01b039091168152602001610192565b6101ae6101f6366004611b38565b61050e565b6101ae610209366004611b38565b610599565b6101ae61021c366004611b7f565b6107fb565b6101ae61022f366004611b16565b6109e2565b610247610242366004611bb4565b610a08565b60408051825181526020928301519281019290925201610192565b6101ae610270366004611cf9565b610b01565b6101ae610283366004611bb4565b610d4d565b61029b610296366004611bb4565b610dff565b604080518251815260208084015165ffffffffffff9081169183019190915283830151169181019190915260609182015160ff1691810191909152608001610192565b6102f16102ec366004611b16565b610f35565b6040519015158152602001610192565b6101ae61030f366004611b38565b610fd0565b610180611089565b6101ae61032a366004611b38565b6110c4565b6103376110e9565b6040516101929190611e5c565b61034c611173565b604051908152602001610192565b6101ae610368366004611bb4565b6111f9565b60028054600160f01b900460ff16146102f1565b6102f161038f366004611bb4565b6113d8565b6101ae6103a2366004611ea9565b611473565b6101ae6103b5366004611ed9565b611622565b6101d0611704565b6101ae61178a565b60405163e8c0cc1d60e01b81526002600482015260009073__$364aad554dc80380f414546becdd2c1584$__9063e8c0cc1d906024015b60206040518083038186803b15801561041957600080fd5b505af415801561042d573d6000803e3d6000fd5b505050506040513d601f19601f820116820180604052508101906104519190611f2c565b905090565b73__$364aad554dc80380f414546becdd2c1584$__6382daafaa6002848461047c6119ce565b6040516001600160e01b031960e087901b16815260048101949094526024840192909252604483015264ffffffffff16606482015260840160006040518083038186803b1580156104cc57600080fd5b505af41580156104e0573d6000803e3d6000fd5b505050505050565b73__$364aad554dc80380f414546becdd2c1584$__636320d75e6002848461047c6119ce565b73__$364aad554dc80380f414546becdd2c1584$__63c51b295f6002836105336119ce565b6040516001600160e01b031960e086901b1681526004810193909352602483019190915264ffffffffff16604482015260640160006040518083038186803b15801561057e57600080fd5b505af4158015610592573d6000803e3d6000fd5b5050505050565b604051633b11adbf60e21b81526002600482015233602482015273__$364aad554dc80380f414546becdd2c1584$__9063ec46b6fc9060440160206040518083038186803b1580156105ea57600080fd5b505af41580156105fe573d6000803e3d6000fd5b505050506040513d601f19601f820116820180604052508101906106229190611f49565b806106c7575073__$364aad554dc80380f414546becdd2c1584$__63fe271086600261064c6119ce565b6040516001600160e01b031960e085901b168152600481019290925264ffffffffff16602482015260440160206040518083038186803b15801561068f57600080fd5b505af41580156106a3573d6000803e3d6000fd5b505050506040513d601f19601f820116820180604052508101906106c79190611f49565b6107375760405162461bcd60e51b815260206004820152603660248201527f41432e6f776e65724f72446972656374426f6f6b65657065723a206e6569746860448201527532b91037bbb732b9103737b9103137b7b5b2b2b832b960511b60648201526084015b60405180910390fd5b73__$364aad554dc80380f414546becdd2c1584$__639b4510de60028361075c6119ce565b6040516001600160e01b031960e086901b1681526004810193909352602483019190915264ffffffffff16604482015260640160006040518083038186803b1580156107a757600080fd5b505af41580156107bb573d6000803e3d6000fd5b505050507ff2735f34b69be1e6342dea95f9162f84d0db925fab655ca9f1f312ac8cbfc99d816040516107f091815260200190565b60405180910390a150565b60405163f698b0f160e01b8152600560048201526001600160a01b0383166024820152829073__$8c1a4844a0a0988ea2454cf87145a95df1$__9063f698b0f19060440160206040518083038186803b15801561085757600080fd5b505af415801561086b573d6000803e3d6000fd5b505050506040513d601f19601f8201168201806040525081019061088f9190611f49565b6108ab5760405162461bcd60e51b815260040161072e90611f66565b6001546040516335d2155560e11b81523360048201526001600160a01b0390911690636ba42aaa9060240160206040518083038186803b1580156108ee57600080fd5b505afa158015610902573d6000803e3d6000fd5b505050506040513d601f19601f820116820180604052508101906109269190611f49565b6109665760405162461bcd60e51b815260206004820152601160248201527020a19737b59d103737ba1025b2b2b832b960791b604482015260640161072e565b60405160ff831681526001600160a01b038416907f2d08d607752701152f91f7b4b08b7903d35b1065aef684baddcee316cc28565d9060200160405180910390a2506001600160a01b039091166000908152600460205260409020600101805460ff909216600160601b0260ff60601b19909216919091179055565b73__$364aad554dc80380f414546becdd2c1584$__63ee98b3136002848461047c6119ce565b60408051808201825260008082526020820152905163f698b0f160e01b8152600560048201526001600160a01b0383166024820152829073__$8c1a4844a0a0988ea2454cf87145a95df1$__9063f698b0f19060440160206040518083038186803b158015610a7657600080fd5b505af4158015610a8a573d6000803e3d6000fd5b505050506040513d601f19601f82011682018060405250810190610aae9190611f49565b610aca5760405162461bcd60e51b815260040161072e90611f66565b50506001600160a01b0316600090815260046020908152604091829020825180840190935260028101548352600301549082015290565b604051633b11adbf60e21b81526002600482015233602482015273__$364aad554dc80380f414546becdd2c1584$__9063ec46b6fc9060440160206040518083038186803b158015610b5257600080fd5b505af4158015610b66573d6000803e3d6000fd5b505050506040513d601f19601f82011682018060405250810190610b8a9190611f49565b610ba65760405162461bcd60e51b815260040161072e90611f9d565b8360016001600160a01b038216600090815260046020526040902060010154600160601b900460ff908116911614610c205760405162461bcd60e51b815260206004820152601b60248201527f524f442e6d642e4f46503a20446f63206e6f742070656e64696e670000000000604482015260640161072e565b604051600281526001600160a01b038616907f2d08d607752701152f91f7b4b08b7903d35b1065aef684baddcee316cc28565d9060200160405180910390a26001600160a01b0385166000908152600460205260409020610140850151610c8e9061ffff1662015180611ff9565b610c989042612027565b60018201805465ffffffffffff191665ffffffffffff92909216919091179055610160850151610ccf9061ffff1662015180611ff9565b6001820154610ce6919065ffffffffffff16612027565b600182018054600160611b6cffffffffffffff0000000000001990911665ffffffffffff9390931666010000000000000260ff60601b19169290921791909117905583151580610d3557508215155b156104e0576002810193909355506003909101555050565b604051630f07232560e01b8152600260048201526001600160a01b038216602482015233604482015273__$364aad554dc80380f414546becdd2c1584$__90630f0723259060640160006040518083038186803b158015610dad57600080fd5b505af4158015610dc1573d6000803e3d6000fd5b50506040516001600160a01b03841681527fe435cbeab64e4eae6497b9d8289704bd709d624a80704ef3ca9af777534bc6ec925060200190506107f0565b604080516080810182526000808252602082018190528183018190526060820152905163f698b0f160e01b8152600560048201526001600160a01b0383166024820152829073__$8c1a4844a0a0988ea2454cf87145a95df1$__9063f698b0f19060440160206040518083038186803b158015610e7b57600080fd5b505af4158015610e8f573d6000803e3d6000fd5b505050506040513d601f19601f82011682018060405250810190610eb39190611f49565b610ecf5760405162461bcd60e51b815260040161072e90611f66565b50506001600160a01b031660009081526004602090815260409182902082516080810184528154815260019091015465ffffffffffff808216938301939093526601000000000000810490921692810192909252600160601b900460ff16606082015290565b604051632a3be56b60e21b815260026004820152602481018390526044810182905260009073__$364aad554dc80380f414546becdd2c1584$__9063a8ef95ac9060640160206040518083038186803b158015610f9157600080fd5b505af4158015610fa5573d6000803e3d6000fd5b505050506040513d601f19601f82011682018060405250810190610fc99190611f49565b9392505050565b73__$364aad554dc80380f414546becdd2c1584$__639b48160c600283610ff56119ce565b6040516001600160e01b031960e086901b1681526004810193909352602483019190915264ffffffffff16604482015260640160006040518083038186803b15801561104057600080fd5b505af4158015611054573d6000803e3d6000fd5b505050507f8b6f40f36b4ae8cc5f55e895036457c43da4ab1f80f58c46f5ff0d72a650033b816040516107f091815260200190565b60405163987ad15360e01b81526002600482015260009073__$364aad554dc80380f414546becdd2c1584$__9063987ad15390602401610401565b73__$364aad554dc80380f414546becdd2c1584$__63cc0d511b6002836105336119ce565b604051638f65372b60e01b81526005600482015260609073__$8c1a4844a0a0988ea2454cf87145a95df1$__90638f65372b9060240160006040518083038186803b15801561113757600080fd5b505af415801561114b573d6000803e3d6000fd5b505050506040513d6000823e601f3d908101601f191682016040526104519190810190612051565b604051635e77c9af60e01b81526005600482015260009073__$8c1a4844a0a0988ea2454cf87145a95df1$__90635e77c9af9060240160206040518083038186803b1580156111c157600080fd5b505af41580156111d5573d6000803e3d6000fd5b505050506040513d601f19601f820116820180604052508101906104519190612103565b604051633b11adbf60e21b81526002600482015233602482015273__$364aad554dc80380f414546becdd2c1584$__9063ec46b6fc9060440160206040518083038186803b15801561124a57600080fd5b505af415801561125e573d6000803e3d6000fd5b505050506040513d601f19601f820116820180604052508101906112829190611f49565b61129e5760405162461bcd60e51b815260040161072e90611f9d565b60405163f698b0f160e01b8152600560048201526001600160a01b0382166024820152819073__$8c1a4844a0a0988ea2454cf87145a95df1$__9063f698b0f19060440160206040518083038186803b1580156112fa57600080fd5b505af415801561130e573d6000803e3d6000fd5b505050506040513d601f19601f820116820180604052508101906113329190611f49565b61134e5760405162461bcd60e51b815260040161072e90611f66565b6007546001600160a01b0316156113785760078054611378916001600160a01b03909116906107fb565b6113838260066107fb565b600780546001600160a01b0319166001600160a01b0384169081179091556040519081527f8ac18d4db45c0c75a47f58fea54c52214d312783e8916556d79566e6103d0f1e9060200160405180910390a15050565b60405163f698b0f160e01b8152600560048201526001600160a01b038216602482015260009073__$8c1a4844a0a0988ea2454cf87145a95df1$__9063f698b0f19060440160206040518083038186803b15801561143557600080fd5b505af4158015611449573d6000803e3d6000fd5b505050506040513d601f19601f8201168201806040525081019061146d9190611f49565b92915050565b604051633b11adbf60e21b81526002600482015233602482015273__$364aad554dc80380f414546becdd2c1584$__9063ec46b6fc9060440160206040518083038186803b1580156114c457600080fd5b505af41580156114d8573d6000803e3d6000fd5b505050506040513d601f19601f820116820180604052508101906114fc9190611f49565b6115185760405162461bcd60e51b815260040161072e90611f9d565b604051633e244cf360e01b8152600560048201526001600160a01b038216602482015273__$8c1a4844a0a0988ea2454cf87145a95df1$__90633e244cf39060440160206040518083038186803b15801561157257600080fd5b505af4158015611586573d6000803e3d6000fd5b505050506040513d601f19601f820116820180604052508101906115aa9190611f49565b1561161e57604051600181526001600160a01b038216907f2d08d607752701152f91f7b4b08b7903d35b1065aef684baddcee316cc28565d9060200160405180910390a26001600160a01b0381166000908152600460205260409020828155600101805460ff60601b1916600160601b1790555b5050565b604051636cdd0edf60e11b815260026004820152602481018590526001600160a01b038416604482015273__$364aad554dc80380f414546becdd2c1584$__9063d9ba1dbe9060640160006040518083038186803b15801561168357600080fd5b505af4158015611697573d6000803e3d6000fd5b505050506116a482611a28565b6116ad81611a9b565b604080518581526001600160a01b038581166020830152848116828401528316606082015290517f3abb2418c66fe32ba9c883030a75ce583971d9af9192b9b74e44e67c5e6c8c1f9181900360800190a150505050565b604051633c3e56c160e11b81526002600482015260009073__$364aad554dc80380f414546becdd2c1584$__9063787cad829060240160206040518083038186803b15801561175257600080fd5b505af4158015611766573d6000803e3d6000fd5b505050506040513d601f19601f82011682018060405250810190610451919061211c565b600254600160f01b900460ff166001146117e65760405162461bcd60e51b815260206004820152601760248201527f41432e4c433a20446f632069732066696e616c697a6564000000000000000000604482015260640161072e565b73__$364aad554dc80380f414546becdd2c1584$__63c51b295f6002684174746f726e65797360b81b6118176119ce565b6040516001600160e01b031960e086901b1681526004810193909352602483019190915264ffffffffff16604482015260640160006040518083038186803b15801561186257600080fd5b505af4158015611876573d6000803e3d6000fd5b50505050600273__$364aad554dc80380f414546becdd2c1584$__639b4510de909160006118a26119ce565b6040516001600160e01b031960e086901b1681526004810193909352602483019190915264ffffffffff16604482015260640160006040518083038186803b1580156118ed57600080fd5b505af4158015611901573d6000803e3d6000fd5b50505050600273__$364aad554dc80380f414546becdd2c1584$__639b48160c9091600061192d6119ce565b6040516001600160e01b031960e086901b1681526004810193909352602483019190915264ffffffffff16604482015260640160006040518083038186803b15801561197857600080fd5b505af415801561198c573d6000803e3d6000fd5b50506002805460ff60f01b1916600160f11b17905550506040517f35012b512309c322acf68632cd6cb702ff0e1d776fbe9394e38ffc13b434fe7590600090a1565b60008054604051636ae3b70d60e11b81523360048201526001600160a01b039091169063d5c76e1a90602401602060405180830381600087803b158015611a1457600080fd5b505af115801561042d573d6000803e3d6000fd5b6000546001600160a01b031615611a795760405162461bcd60e51b815260206004820152601560248201527430b63932b0b23c9039b2ba103932b3a1b2b73a32b960591b604482015260640161072e565b600080546001600160a01b0319166001600160a01b0392909216919091179055565b6001546001600160a01b031615611af45760405162461bcd60e51b815260206004820152601960248201527f616c7265616479207365742067656e6572616c4b656570657200000000000000604482015260640161072e565b600180546001600160a01b0319166001600160a01b0392909216919091179055565b60008060408385031215611b2957600080fd5b50508035926020909101359150565b600060208284031215611b4a57600080fd5b5035919050565b6001600160a01b0381168114611b6657600080fd5b50565b803560ff81168114611b7a57600080fd5b919050565b60008060408385031215611b9257600080fd5b8235611b9d81611b51565b9150611bab60208401611b69565b90509250929050565b600060208284031215611bc657600080fd5b8135610fc981611b51565b634e487b7160e01b600052604160045260246000fd5b6040516101e0810167ffffffffffffffff81118282101715611c0b57611c0b611bd1565b60405290565b604051601f8201601f1916810167ffffffffffffffff81118282101715611c3a57611c3a611bd1565b604052919050565b803561ffff81168114611b7a57600080fd5b8015158114611b6657600080fd5b8035611b7a81611c54565b64ffffffffff81168114611b6657600080fd5b600082601f830112611c9157600080fd5b6040516040810181811067ffffffffffffffff82111715611cb457611cb4611bd1565b8060405250806040840185811115611ccb57600080fd5b845b81811015611cee578035611ce081611c6d565b835260209283019201611ccd565b509195945050505050565b600080600080848603610260811215611d1157600080fd5b8535611d1c81611b51565b9450610200601f1982011215611d3157600080fd5b50611d3a611be7565b611d4660208701611c42565b8152611d5460408701611b69565b6020820152611d6560608701611b69565b6040820152611d7660808701611c42565b6060820152611d8760a08701611c42565b6080820152611d9860c08701611c42565b60a0820152611da960e08701611c62565b60c0820152610100611dbc818801611c62565b60e0830152610120611dcf818901611c62565b828401526101409150611de3828901611c62565b90830152610160611df5888201611c42565b828401526101809150611e09828901611c42565b908301526101a0611e1b888201611c42565b828401526101c09150611e2f828901611c42565b90830152611e41886101e08901611c80565b90820152939693955050505061022082013591610240013590565b6020808252825182820181905260009190848201906040850190845b81811015611e9d5783516001600160a01b031683529284019291840191600101611e78565b50909695505050505050565b60008060408385031215611ebc57600080fd5b823591506020830135611ece81611b51565b809150509250929050565b60008060008060808587031215611eef57600080fd5b843593506020850135611f0181611b51565b92506040850135611f1181611b51565b91506060850135611f2181611b51565b939692955090935050565b600060208284031215611f3e57600080fd5b8151610fc981611c6d565b600060208284031215611f5b57600080fd5b8151610fc981611c54565b6020808252601d908201527f524f442e6d642e4f523a20646f63204e4f542072656769737465726564000000604082015260600190565b60208082526026908201527f41432e6f6e6c794469726563744b65657065723a206e6f74206469726563742060408201526535b2b2b832b960d11b606082015260800190565b634e487b7160e01b600052601160045260246000fd5b600065ffffffffffff8083168185168183048111821515161561201e5761201e611fe3565b02949350505050565b600065ffffffffffff80831681851680830382111561204857612048611fe3565b01949350505050565b6000602080838503121561206457600080fd5b825167ffffffffffffffff8082111561207c57600080fd5b818501915085601f83011261209057600080fd5b8151818111156120a2576120a2611bd1565b8060051b91506120b3848301611c11565b81815291830184019184810190888411156120cd57600080fd5b938501935b838510156120f757845192506120e783611b51565b82825293850193908501906120d2565b98975050505050505050565b60006020828403121561211557600080fd5b5051919050565b60006020828403121561212e57600080fd5b8151610fc981611b5156fea264697066735822122014e37a84964164bf4cf319e09f9489b77976686c961ec8bd00d86f4633c0e63a64736f6c63430008080033",
    "sourcePath": "/Users/kaptain/github.com/hardhat/comboox/contracts/books/boh/BookOfSHA.sol",
    "compiler": {
        "name": "solc",
        "version": "0.8.8+commit.dddeac2f"
    },
    "functionHashes": {
        "abandonRole(bytes32)": "3da9a600",
        "changePointer(address)": "9f4d332f",
        "circulateDoc(address,(uint16,uint8,uint8,uint16,uint16,uint16,bool,bool,bool,bool,uint16,uint16,uint16,uint16,uint40[2]),bytes32,bytes32)": "6894f921",
        "filesList()": "8fefe1cd",
        "finalized()": "b3f05b97",
        "getBookeeper()": "ed211023",
        "getGeneralCounsel()": "103f6edd",
        "getHeadOfFile(address)": "6e0cdd3a",
        "getOwner()": "893d20e8",
        "getRefOfFile(address)": "58598c35",
        "grantRole(bytes32,uint256)": "1b6ea9f9",
        "hasRole(bytes32,uint256)": "7e063c5a",
        "init(uint256,address,address,address)": "dc890da9",
        "isRegistered(address)": "c3c5a547",
        "lockContents()": "f045a769",
        "pointer()": "2f5f3b3c",
        "qtyOfFiles()": "9ee4ad4e",
        "regFile(uint256,address)": "d02ef14d",
        "renounceRole(bytes32)": "8bb9c5bf",
        "revokeRole(bytes32,uint256)": "19d61ad9",
        "setDirectKeeper(address)": "6be8496f",
        "setGeneralCounsel(uint256)": "4a14beb1",
        "setOwner(uint256)": "8041494e",
        "setRoleAdmin(bytes32,uint256)": "5171ebd4",
        "setStateOfFile(address,uint8)": "511b707d"
    },
    "gasEstimates": {
        "creation": {
            "codeDepositCost": "1711800",
            "executionCost": "1799",
            "totalCost": "1713599"
        },
        "external": {
            "abandonRole(bytes32)": "infinite",
            "changePointer(address)": "infinite",
            "circulateDoc(address,(uint16,uint8,uint8,uint16,uint16,uint16,bool,bool,bool,bool,uint16,uint16,uint16,uint16,uint40[2]),bytes32,bytes32)": "infinite",
            "filesList()": "infinite",
            "finalized()": "2394",
            "getBookeeper()": "infinite",
            "getGeneralCounsel()": "infinite",
            "getHeadOfFile(address)": "infinite",
            "getOwner()": "infinite",
            "getRefOfFile(address)": "infinite",
            "grantRole(bytes32,uint256)": "infinite",
            "hasRole(bytes32,uint256)": "infinite",
            "init(uint256,address,address,address)": "infinite",
            "isRegistered(address)": "infinite",
            "lockContents()": "infinite",
            "pointer()": "2410",
            "qtyOfFiles()": "infinite",
            "regFile(uint256,address)": "infinite",
            "renounceRole(bytes32)": "infinite",
            "revokeRole(bytes32,uint256)": "infinite",
            "setDirectKeeper(address)": "infinite",
            "setGeneralCounsel(uint256)": "infinite",
            "setOwner(uint256)": "infinite",
            "setRoleAdmin(bytes32,uint256)": "infinite",
            "setStateOfFile(address,uint8)": "infinite"
        }
    }
}