{
    "contractName": "BookOfSHA",
    "abi": [
        {
            "anonymous": false,
            "inputs": [
                {
                    "indexed": false,
                    "internalType": "address",
                    "name": "pointer",
                    "type": "address"
                }
            ],
            "name": "ChangePointer",
            "type": "event"
        },
        {
            "anonymous": false,
            "inputs": [
                {
                    "indexed": false,
                    "internalType": "uint256",
                    "name": "owner",
                    "type": "uint256"
                },
                {
                    "indexed": false,
                    "internalType": "address",
                    "name": "directKeeper",
                    "type": "address"
                },
                {
                    "indexed": false,
                    "internalType": "address",
                    "name": "regCenter",
                    "type": "address"
                },
                {
                    "indexed": false,
                    "internalType": "address",
                    "name": "generalKeeper",
                    "type": "address"
                }
            ],
            "name": "Init",
            "type": "event"
        },
        {
            "anonymous": false,
            "inputs": [],
            "name": "LockContents",
            "type": "event"
        },
        {
            "anonymous": false,
            "inputs": [
                {
                    "indexed": false,
                    "internalType": "uint256",
                    "name": "title",
                    "type": "uint256"
                },
                {
                    "indexed": false,
                    "internalType": "address",
                    "name": "book",
                    "type": "address"
                }
            ],
            "name": "SetBookRuting",
            "type": "event"
        },
        {
            "anonymous": false,
            "inputs": [
                {
                    "indexed": false,
                    "internalType": "address",
                    "name": "keeper",
                    "type": "address"
                }
            ],
            "name": "SetDirectKeeper",
            "type": "event"
        },
        {
            "anonymous": false,
            "inputs": [
                {
                    "indexed": false,
                    "internalType": "uint256",
                    "name": "acct",
                    "type": "uint256"
                }
            ],
            "name": "SetGeneralCounsel",
            "type": "event"
        },
        {
            "anonymous": false,
            "inputs": [
                {
                    "indexed": false,
                    "internalType": "address",
                    "name": "gk",
                    "type": "address"
                }
            ],
            "name": "SetGeneralKeeper",
            "type": "event"
        },
        {
            "anonymous": false,
            "inputs": [
                {
                    "indexed": false,
                    "internalType": "uint256",
                    "name": "acct",
                    "type": "uint256"
                }
            ],
            "name": "SetOwner",
            "type": "event"
        },
        {
            "anonymous": false,
            "inputs": [
                {
                    "indexed": false,
                    "internalType": "address",
                    "name": "rc",
                    "type": "address"
                }
            ],
            "name": "SetRegCenter",
            "type": "event"
        },
        {
            "anonymous": false,
            "inputs": [
                {
                    "indexed": true,
                    "internalType": "address",
                    "name": "body",
                    "type": "address"
                },
                {
                    "indexed": false,
                    "internalType": "uint8",
                    "name": "state",
                    "type": "uint8"
                }
            ],
            "name": "UpdateStateOfFile",
            "type": "event"
        },
        {
            "inputs": [
                {
                    "internalType": "bytes32",
                    "name": "role",
                    "type": "bytes32"
                }
            ],
            "name": "abandonRole",
            "outputs": [],
            "stateMutability": "nonpayable",
            "type": "function"
        },
        {
            "inputs": [
                {
                    "internalType": "address",
                    "name": "body",
                    "type": "address"
                }
            ],
            "name": "changePointer",
            "outputs": [],
            "stateMutability": "nonpayable",
            "type": "function"
        },
        {
            "inputs": [
                {
                    "internalType": "address",
                    "name": "body",
                    "type": "address"
                },
                {
                    "components": [
                        {
                            "internalType": "uint16",
                            "name": "seq",
                            "type": "uint16"
                        },
                        {
                            "internalType": "uint8",
                            "name": "qtyOfSubRule",
                            "type": "uint8"
                        },
                        {
                            "internalType": "uint8",
                            "name": "seqOfSubRule",
                            "type": "uint8"
                        },
                        {
                            "internalType": "uint8",
                            "name": "authority",
                            "type": "uint8"
                        },
                        {
                            "internalType": "uint16",
                            "name": "headRatio",
                            "type": "uint16"
                        },
                        {
                            "internalType": "uint16",
                            "name": "amountRatio",
                            "type": "uint16"
                        },
                        {
                            "internalType": "bool",
                            "name": "onlyAttendance",
                            "type": "bool"
                        },
                        {
                            "internalType": "bool",
                            "name": "impliedConsent",
                            "type": "bool"
                        },
                        {
                            "internalType": "bool",
                            "name": "partyAsConsent",
                            "type": "bool"
                        },
                        {
                            "internalType": "bool",
                            "name": "againstShallBuy",
                            "type": "bool"
                        },
                        {
                            "internalType": "uint8",
                            "name": "shaExecDays",
                            "type": "uint8"
                        },
                        {
                            "internalType": "uint8",
                            "name": "reviewDays",
                            "type": "uint8"
                        },
                        {
                            "internalType": "uint8",
                            "name": "votingDays",
                            "type": "uint8"
                        },
                        {
                            "internalType": "uint8",
                            "name": "execDaysForPutOpt",
                            "type": "uint8"
                        },
                        {
                            "internalType": "uint40[3]",
                            "name": "vetoers",
                            "type": "uint40[3]"
                        }
                    ],
                    "internalType": "struct RulesParser.VotingRule",
                    "name": "vr",
                    "type": "tuple"
                },
                {
                    "internalType": "bytes32",
                    "name": "docUrl",
                    "type": "bytes32"
                },
                {
                    "internalType": "bytes32",
                    "name": "docHash",
                    "type": "bytes32"
                }
            ],
            "name": "circulateDoc",
            "outputs": [],
            "stateMutability": "nonpayable",
            "type": "function"
        },
        {
            "inputs": [
                {
                    "internalType": "uint16",
                    "name": "typeOfDoc",
                    "type": "uint16"
                },
                {
                    "internalType": "uint16",
                    "name": "version",
                    "type": "uint16"
                },
                {
                    "internalType": "uint40",
                    "name": "creator",
                    "type": "uint40"
                }
            ],
            "name": "createDoc",
            "outputs": [
                {
                    "internalType": "address",
                    "name": "body",
                    "type": "address"
                }
            ],
            "stateMutability": "nonpayable",
            "type": "function"
        },
        {
            "inputs": [],
            "name": "filesList",
            "outputs": [
                {
                    "internalType": "address[]",
                    "name": "",
                    "type": "address[]"
                }
            ],
            "stateMutability": "view",
            "type": "function"
        },
        {
            "inputs": [],
            "name": "finalized",
            "outputs": [
                {
                    "internalType": "bool",
                    "name": "",
                    "type": "bool"
                }
            ],
            "stateMutability": "view",
            "type": "function"
        },
        {
            "inputs": [],
            "name": "getBookeeper",
            "outputs": [
                {
                    "internalType": "address",
                    "name": "",
                    "type": "address"
                }
            ],
            "stateMutability": "view",
            "type": "function"
        },
        {
            "inputs": [],
            "name": "getGeneralCounsel",
            "outputs": [
                {
                    "internalType": "uint40",
                    "name": "",
                    "type": "uint40"
                }
            ],
            "stateMutability": "view",
            "type": "function"
        },
        {
            "inputs": [
                {
                    "internalType": "address",
                    "name": "body",
                    "type": "address"
                }
            ],
            "name": "getHeadOfFile",
            "outputs": [
                {
                    "components": [
                        {
                            "internalType": "uint256",
                            "name": "snOfDoc",
                            "type": "uint256"
                        },
                        {
                            "internalType": "uint48",
                            "name": "shaExecDeadline",
                            "type": "uint48"
                        },
                        {
                            "internalType": "uint48",
                            "name": "proposeDeadline",
                            "type": "uint48"
                        },
                        {
                            "internalType": "uint8",
                            "name": "state",
                            "type": "uint8"
                        }
                    ],
                    "internalType": "struct IFilesFolder.Head",
                    "name": "head",
                    "type": "tuple"
                }
            ],
            "stateMutability": "view",
            "type": "function"
        },
        {
            "inputs": [],
            "name": "getOwner",
            "outputs": [
                {
                    "internalType": "uint40",
                    "name": "",
                    "type": "uint40"
                }
            ],
            "stateMutability": "view",
            "type": "function"
        },
        {
            "inputs": [
                {
                    "internalType": "address",
                    "name": "body",
                    "type": "address"
                }
            ],
            "name": "getRefOfFile",
            "outputs": [
                {
                    "components": [
                        {
                            "internalType": "bytes32",
                            "name": "docUrl",
                            "type": "bytes32"
                        },
                        {
                            "internalType": "bytes32",
                            "name": "docHash",
                            "type": "bytes32"
                        }
                    ],
                    "internalType": "struct IFilesFolder.Ref",
                    "name": "ref",
                    "type": "tuple"
                }
            ],
            "stateMutability": "view",
            "type": "function"
        },
        {
            "inputs": [
                {
                    "internalType": "bytes32",
                    "name": "role",
                    "type": "bytes32"
                },
                {
                    "internalType": "uint256",
                    "name": "acct",
                    "type": "uint256"
                }
            ],
            "name": "grantRole",
            "outputs": [],
            "stateMutability": "nonpayable",
            "type": "function"
        },
        {
            "inputs": [
                {
                    "internalType": "bytes32",
                    "name": "role",
                    "type": "bytes32"
                },
                {
                    "internalType": "uint256",
                    "name": "acct",
                    "type": "uint256"
                }
            ],
            "name": "hasRole",
            "outputs": [
                {
                    "internalType": "bool",
                    "name": "",
                    "type": "bool"
                }
            ],
            "stateMutability": "view",
            "type": "function"
        },
        {
            "inputs": [
                {
                    "internalType": "uint256",
                    "name": "owner",
                    "type": "uint256"
                },
                {
                    "internalType": "address",
                    "name": "directKeeper",
                    "type": "address"
                },
                {
                    "internalType": "address",
                    "name": "regCenter",
                    "type": "address"
                },
                {
                    "internalType": "address",
                    "name": "generalKeeper",
                    "type": "address"
                }
            ],
            "name": "init",
            "outputs": [],
            "stateMutability": "nonpayable",
            "type": "function"
        },
        {
            "inputs": [
                {
                    "internalType": "address",
                    "name": "body",
                    "type": "address"
                }
            ],
            "name": "isRegistered",
            "outputs": [
                {
                    "internalType": "bool",
                    "name": "",
                    "type": "bool"
                }
            ],
            "stateMutability": "view",
            "type": "function"
        },
        {
            "inputs": [],
            "name": "lockContents",
            "outputs": [],
            "stateMutability": "nonpayable",
            "type": "function"
        },
        {
            "inputs": [],
            "name": "pointer",
            "outputs": [
                {
                    "internalType": "address",
                    "name": "",
                    "type": "address"
                }
            ],
            "stateMutability": "view",
            "type": "function"
        },
        {
            "inputs": [],
            "name": "qtyOfFiles",
            "outputs": [
                {
                    "internalType": "uint256",
                    "name": "",
                    "type": "uint256"
                }
            ],
            "stateMutability": "view",
            "type": "function"
        },
        {
            "inputs": [
                {
                    "internalType": "bytes32",
                    "name": "role",
                    "type": "bytes32"
                }
            ],
            "name": "renounceRole",
            "outputs": [],
            "stateMutability": "nonpayable",
            "type": "function"
        },
        {
            "inputs": [
                {
                    "internalType": "bytes32",
                    "name": "role",
                    "type": "bytes32"
                },
                {
                    "internalType": "uint256",
                    "name": "acct",
                    "type": "uint256"
                }
            ],
            "name": "revokeRole",
            "outputs": [],
            "stateMutability": "nonpayable",
            "type": "function"
        },
        {
            "inputs": [
                {
                    "internalType": "address",
                    "name": "keeper",
                    "type": "address"
                }
            ],
            "name": "setDirectKeeper",
            "outputs": [],
            "stateMutability": "nonpayable",
            "type": "function"
        },
        {
            "inputs": [
                {
                    "internalType": "uint256",
                    "name": "acct",
                    "type": "uint256"
                }
            ],
            "name": "setGeneralCounsel",
            "outputs": [],
            "stateMutability": "nonpayable",
            "type": "function"
        },
        {
            "inputs": [
                {
                    "internalType": "uint256",
                    "name": "acct",
                    "type": "uint256"
                }
            ],
            "name": "setOwner",
            "outputs": [],
            "stateMutability": "nonpayable",
            "type": "function"
        },
        {
            "inputs": [
                {
                    "internalType": "bytes32",
                    "name": "role",
                    "type": "bytes32"
                },
                {
                    "internalType": "uint256",
                    "name": "acct",
                    "type": "uint256"
                }
            ],
            "name": "setRoleAdmin",
            "outputs": [],
            "stateMutability": "nonpayable",
            "type": "function"
        },
        {
            "inputs": [
                {
                    "internalType": "address",
                    "name": "body",
                    "type": "address"
                },
                {
                    "internalType": "uint8",
                    "name": "state",
                    "type": "uint8"
                }
            ],
            "name": "setStateOfFile",
            "outputs": [],
            "stateMutability": "nonpayable",
            "type": "function"
        }
    ],
    "bytecode": "608060405234801561001057600080fd5b5061247c806100206000396000f3fe608060405234801561001057600080fd5b50600436106101735760003560e01c80638041494e116100de5780639f4d332f11610097578063dc890da911610071578063dc890da914610394578063ed211023146103a7578063f045a769146103af578063f15e6452146103b757600080fd5b80639f4d332f1461035a578063b3f05b971461036d578063c3c5a5471461038157600080fd5b80638041494e146102ee578063893d20e8146103015780638bb9c5bf146103095780638c32f23d1461031c5780638fefe1cd1461032f5780639ee4ad4e1461034457600080fd5b8063511b707d11610130578063511b707d1461020e5780635171ebd41461022157806358598c35146102345780636be8496f146102625780636e0cdd3a146102755780637e063c5a146102cb57600080fd5b8063103f6edd1461017857806319d61ad91461019b5780631b6ea9f9146101b05780632f5f3b3c146101c35780633da9a600146101e85780634a14beb1146101fb575b600080fd5b6101806103ca565b60405164ffffffffff90911681526020015b60405180910390f35b6101ae6101a9366004611d88565b610456565b005b6101ae6101be366004611d88565b6104ea565b6007546001600160a01b03165b6040516001600160a01b039091168152602001610192565b6101ae6101f6366004611daa565b61050f565b6101ae610209366004611daa565b61062a565b6101ae61021c366004611df1565b61081a565b6101ae61022f366004611d88565b610a01565b610247610242366004611e26565b610a26565b60408051825181526020928301519281019290925201610192565b6101ae610270366004611e26565b610b1f565b610288610283366004611e26565b610bd1565b604080518251815260208084015165ffffffffffff9081169183019190915283830151169181019190915260609182015160ff1691810191909152608001610192565b6102de6102d9366004611d88565b610d07565b6040519015158152602001610192565b6101ae6102fc366004611daa565b610da2565b610180610f87565b6101ae610317366004611daa565b610fc2565b6101ae61032a366004611f69565b61101b565b610337611265565b60405161019291906120cc565b61034c6112ef565b604051908152602001610192565b6101ae610368366004611e26565b611375565b60028054600160f01b900460ff16146102de565b6102de61038f366004611e26565b611554565b6101ae6103a2366004612119565b6115ef565b6101d06116d2565b6101ae611758565b6101d06103c536600461216c565b611976565b60405163e8c0cc1d60e01b81526002600482015260009073__$364aad554dc80380f414546becdd2c1584$__9063e8c0cc1d906024015b60206040518083038186803b15801561041957600080fd5b505af415801561042d573d6000803e3d6000fd5b505050506040513d601f19601f8201168201806040525081019061045191906121b3565b905090565b73__$364aad554dc80380f414546becdd2c1584$__6382daafaa60028461047b611bc8565b6040516001600160e01b031960e086901b1681526004810193909352602483019190915264ffffffffff166044820152606481018490526084015b60006040518083038186803b1580156104ce57600080fd5b505af41580156104e2573d6000803e3d6000fd5b505050505050565b73__$364aad554dc80380f414546becdd2c1584$__636320d75e60028461047b611bc8565b604051633b11adbf60e21b81526002600482015233602482015273__$364aad554dc80380f414546becdd2c1584$__9063ec46b6fc9060440160206040518083038186803b15801561056057600080fd5b505af4158015610574573d6000803e3d6000fd5b505050506040513d601f19601f8201168201806040525081019061059891906121d0565b6105bd5760405162461bcd60e51b81526004016105b4906121ed565b60405180910390fd5b60405163cc99e11b60e01b8152600260048201526024810182905273__$364aad554dc80380f414546becdd2c1584$__9063cc99e11b9060440160006040518083038186803b15801561060f57600080fd5b505af4158015610623573d6000803e3d6000fd5b5050505050565b604051633b11adbf60e21b81526002600482015233602482015273__$364aad554dc80380f414546becdd2c1584$__9063ec46b6fc9060440160206040518083038186803b15801561067b57600080fd5b505af415801561068f573d6000803e3d6000fd5b505050506040513d601f19601f820116820180604052508101906106b391906121d0565b80610758575073__$364aad554dc80380f414546becdd2c1584$__63fe27108660026106dd611bc8565b6040516001600160e01b031960e085901b168152600481019290925264ffffffffff16602482015260440160206040518083038186803b15801561072057600080fd5b505af4158015610734573d6000803e3d6000fd5b505050506040513d601f19601f8201168201806040525081019061075891906121d0565b6107745760405162461bcd60e51b81526004016105b490612233565b604051632725ebef60e21b8152600260048201526024810182905273__$364aad554dc80380f414546becdd2c1584$__90639c97afbc9060440160006040518083038186803b1580156107c657600080fd5b505af41580156107da573d6000803e3d6000fd5b505050507ff2735f34b69be1e6342dea95f9162f84d0db925fab655ca9f1f312ac8cbfc99d8160405161080f91815260200190565b60405180910390a150565b60405163f698b0f160e01b8152600560048201526001600160a01b0383166024820152829073__$8c1a4844a0a0988ea2454cf87145a95df1$__9063f698b0f19060440160206040518083038186803b15801561087657600080fd5b505af415801561088a573d6000803e3d6000fd5b505050506040513d601f19601f820116820180604052508101906108ae91906121d0565b6108ca5760405162461bcd60e51b81526004016105b490612289565b6001546040516335d2155560e11b81523360048201526001600160a01b0390911690636ba42aaa9060240160206040518083038186803b15801561090d57600080fd5b505afa158015610921573d6000803e3d6000fd5b505050506040513d601f19601f8201168201806040525081019061094591906121d0565b6109855760405162461bcd60e51b815260206004820152601160248201527020a19737b59d103737ba1025b2b2b832b960791b60448201526064016105b4565b60405160ff831681526001600160a01b038416907f2d08d607752701152f91f7b4b08b7903d35b1065aef684baddcee316cc28565d9060200160405180910390a2506001600160a01b039091166000908152600460205260409020600101805460ff909216600160601b0260ff60601b19909216919091179055565b73__$364aad554dc80380f414546becdd2c1584$__63ee98b31360028461047b611bc8565b60408051808201825260008082526020820152905163f698b0f160e01b8152600560048201526001600160a01b0383166024820152829073__$8c1a4844a0a0988ea2454cf87145a95df1$__9063f698b0f19060440160206040518083038186803b158015610a9457600080fd5b505af4158015610aa8573d6000803e3d6000fd5b505050506040513d601f19601f82011682018060405250810190610acc91906121d0565b610ae85760405162461bcd60e51b81526004016105b490612289565b50506001600160a01b0316600090815260046020908152604091829020825180840190935260028101548352600301549082015290565b604051630f07232560e01b8152600260048201523360248201526001600160a01b038216604482015273__$364aad554dc80380f414546becdd2c1584$__90630f0723259060640160006040518083038186803b158015610b7f57600080fd5b505af4158015610b93573d6000803e3d6000fd5b50506040516001600160a01b03841681527fe435cbeab64e4eae6497b9d8289704bd709d624a80704ef3ca9af777534bc6ec9250602001905061080f565b604080516080810182526000808252602082018190528183018190526060820152905163f698b0f160e01b8152600560048201526001600160a01b0383166024820152829073__$8c1a4844a0a0988ea2454cf87145a95df1$__9063f698b0f19060440160206040518083038186803b158015610c4d57600080fd5b505af4158015610c61573d6000803e3d6000fd5b505050506040513d601f19601f82011682018060405250810190610c8591906121d0565b610ca15760405162461bcd60e51b81526004016105b490612289565b50506001600160a01b031660009081526004602090815260409182902082516080810184528154815260019091015465ffffffffffff808216938301939093526601000000000000810490921692810192909252600160601b900460ff16606082015290565b604051632a3be56b60e21b815260026004820152602481018390526044810182905260009073__$364aad554dc80380f414546becdd2c1584$__9063a8ef95ac9060640160206040518083038186803b158015610d6357600080fd5b505af4158015610d77573d6000803e3d6000fd5b505050506040513d601f19601f82011682018060405250810190610d9b91906121d0565b9392505050565b604051633b11adbf60e21b81526002600482015233602482015273__$364aad554dc80380f414546becdd2c1584$__9063ec46b6fc9060440160206040518083038186803b158015610df357600080fd5b505af4158015610e07573d6000803e3d6000fd5b505050506040513d601f19601f82011682018060405250810190610e2b91906121d0565b80610ed0575073__$364aad554dc80380f414546becdd2c1584$__63fe2710866002610e55611bc8565b6040516001600160e01b031960e085901b168152600481019290925264ffffffffff16602482015260440160206040518083038186803b158015610e9857600080fd5b505af4158015610eac573d6000803e3d6000fd5b505050506040513d601f19601f82011682018060405250810190610ed091906121d0565b610eec5760405162461bcd60e51b81526004016105b490612233565b60405163b6e38a2960e01b8152600260048201526024810182905273__$364aad554dc80380f414546becdd2c1584$__9063b6e38a299060440160006040518083038186803b158015610f3e57600080fd5b505af4158015610f52573d6000803e3d6000fd5b505050507f8b6f40f36b4ae8cc5f55e895036457c43da4ab1f80f58c46f5ff0d72a650033b8160405161080f91815260200190565b60405163987ad15360e01b81526002600482015260009073__$364aad554dc80380f414546becdd2c1584$__9063987ad15390602401610401565b6000610fcc611bc8565b60405163cc0d511b60e01b8152600260048201526024810184905264ffffffffff8216604482015290915073__$364aad554dc80380f414546becdd2c1584$__9063cc0d511b906064016104b6565b604051633b11adbf60e21b81526002600482015233602482015273__$364aad554dc80380f414546becdd2c1584$__9063ec46b6fc9060440160206040518083038186803b15801561106c57600080fd5b505af4158015611080573d6000803e3d6000fd5b505050506040513d601f19601f820116820180604052508101906110a491906121d0565b6110c05760405162461bcd60e51b81526004016105b4906121ed565b8360016001600160a01b038216600090815260046020526040902060010154600160601b900460ff90811691161461113a5760405162461bcd60e51b815260206004820152601b60248201527f524f442e6d642e4f46503a20446f63206e6f742070656e64696e67000000000060448201526064016105b4565b604051600281526001600160a01b038616907f2d08d607752701152f91f7b4b08b7903d35b1065aef684baddcee316cc28565d9060200160405180910390a26001600160a01b03851660009081526004602052604090206101408501516111a79060ff16620151806122d6565b6111b19042612304565b60018201805465ffffffffffff191665ffffffffffff929092169190911790556101608501516111e79060ff16620151806122d6565b60018201546111fe919065ffffffffffff16612304565b600182018054600160611b6cffffffffffffff0000000000001990911665ffffffffffff9390931666010000000000000260ff60601b1916929092179190911790558315158061124d57508215155b156104e2576002810193909355506003909101555050565b604051638f65372b60e01b81526005600482015260609073__$8c1a4844a0a0988ea2454cf87145a95df1$__90638f65372b9060240160006040518083038186803b1580156112b357600080fd5b505af41580156112c7573d6000803e3d6000fd5b505050506040513d6000823e601f3d908101601f19168201604052610451919081019061232e565b604051635e77c9af60e01b81526005600482015260009073__$8c1a4844a0a0988ea2454cf87145a95df1$__90635e77c9af9060240160206040518083038186803b15801561133d57600080fd5b505af4158015611351573d6000803e3d6000fd5b505050506040513d601f19601f8201168201806040525081019061045191906123e0565b604051633b11adbf60e21b81526002600482015233602482015273__$364aad554dc80380f414546becdd2c1584$__9063ec46b6fc9060440160206040518083038186803b1580156113c657600080fd5b505af41580156113da573d6000803e3d6000fd5b505050506040513d601f19601f820116820180604052508101906113fe91906121d0565b61141a5760405162461bcd60e51b81526004016105b4906121ed565b60405163f698b0f160e01b8152600560048201526001600160a01b0382166024820152819073__$8c1a4844a0a0988ea2454cf87145a95df1$__9063f698b0f19060440160206040518083038186803b15801561147657600080fd5b505af415801561148a573d6000803e3d6000fd5b505050506040513d601f19601f820116820180604052508101906114ae91906121d0565b6114ca5760405162461bcd60e51b81526004016105b490612289565b6007546001600160a01b0316156114f457600780546114f4916001600160a01b039091169061081a565b6114ff82600661081a565b600780546001600160a01b0319166001600160a01b0384169081179091556040519081527f8ac18d4db45c0c75a47f58fea54c52214d312783e8916556d79566e6103d0f1e9060200160405180910390a15050565b60405163f698b0f160e01b8152600560048201526001600160a01b038216602482015260009073__$8c1a4844a0a0988ea2454cf87145a95df1$__9063f698b0f19060440160206040518083038186803b1580156115b157600080fd5b505af41580156115c5573d6000803e3d6000fd5b505050506040513d601f19601f820116820180604052508101906115e991906121d0565b92915050565b6115f882611c22565b61160181611cd1565b604051636cdd0edf60e11b815260026004820152602481018590526001600160a01b038416604482015273__$364aad554dc80380f414546becdd2c1584$__9063d9ba1dbe9060640160006040518083038186803b15801561166257600080fd5b505af4158015611676573d6000803e3d6000fd5b5050604080518781526001600160a01b038781166020830152868116828401528516606082015290517f3abb2418c66fe32ba9c883030a75ce583971d9af9192b9b74e44e67c5e6c8c1f9350908190036080019150a150505050565b604051633c3e56c160e11b81526002600482015260009073__$364aad554dc80380f414546becdd2c1584$__9063787cad829060240160206040518083038186803b15801561172057600080fd5b505af4158015611734573d6000803e3d6000fd5b505050506040513d601f19601f8201168201806040525081019061045191906123f9565b604051633b11adbf60e21b81526002600482015233602482015273__$364aad554dc80380f414546becdd2c1584$__9063ec46b6fc9060440160206040518083038186803b1580156117a957600080fd5b505af41580156117bd573d6000803e3d6000fd5b505050506040513d601f19601f820116820180604052508101906117e191906121d0565b6117fd5760405162461bcd60e51b81526004016105b4906121ed565b600254600160f01b900460ff166001146118595760405162461bcd60e51b815260206004820181905260248201527f41432e6f6e6c7950656e64696e673a20446f632069732066696e616c697a656460448201526064016105b4565b60405163cc99e11b60e01b815260026004820152684174746f726e65797360b81b602482015273__$364aad554dc80380f414546becdd2c1584$__9063cc99e11b9060440160006040518083038186803b1580156118b657600080fd5b505af41580156118ca573d6000803e3d6000fd5b5050604051632725ebef60e21b8152600260048201526000602482015273__$364aad554dc80380f414546becdd2c1584$__9250639c97afbc915060440160006040518083038186803b15801561192057600080fd5b505af4158015611934573d6000803e3d6000fd5b50506002805460ff60f01b1916600160f11b17905550506040517f35012b512309c322acf68632cd6cb702ff0e1d776fbe9394e38ffc13b434fe7590600090a1565b604051633b11adbf60e21b81526002600482015233602482015260009073__$364aad554dc80380f414546becdd2c1584$__9063ec46b6fc9060440160206040518083038186803b1580156119ca57600080fd5b505af41580156119de573d6000803e3d6000fd5b505050506040513d601f19601f82011682018060405250810190611a0291906121d0565b611a1e5760405162461bcd60e51b81526004016105b4906121ed565b600080546040516378af322960e11b815261ffff80881660048301528616602482015264ffffffffff851660448201526001600160a01b039091169063f15e6452906064016040805180830381600087803b158015611a7c57600080fd5b505af1158015611a90573d6000803e3d6000fd5b505050506040513d601f19601f82011682018060405250810190611ab49190612416565b604051633e244cf360e01b8152600560048201526001600160a01b038216602482015290935090915073__$8c1a4844a0a0988ea2454cf87145a95df1$__90633e244cf39060440160206040518083038186803b158015611b1457600080fd5b505af4158015611b28573d6000803e3d6000fd5b505050506040513d601f19601f82011682018060405250810190611b4c91906121d0565b15611bc057604051600181526001600160a01b038316907f2d08d607752701152f91f7b4b08b7903d35b1065aef684baddcee316cc28565d9060200160405180910390a26001600160a01b0382166000908152600460205260409020818155600101805460ff60601b1916600160601b1790555b509392505050565b60008054604051636ae3b70d60e11b81523360048201526001600160a01b039091169063d5c76e1a90602401602060405180830381600087803b158015611c0e57600080fd5b505af115801561042d573d6000803e3d6000fd5b6000546001600160a01b031615611c735760405162461bcd60e51b815260206004820152601560248201527430b63932b0b23c9039b2ba103932b3a1b2b73a32b960591b60448201526064016105b4565b6040516001600160a01b03821681527f318da6c7624c71cbc0afe346c9d8827f119d0ecefb241a7b0c87217a076a8e029060200160405180910390a1600080546001600160a01b0319166001600160a01b0392909216919091179055565b6001546001600160a01b031615611d2a5760405162461bcd60e51b815260206004820152601960248201527f616c7265616479207365742067656e6572616c4b65657065720000000000000060448201526064016105b4565b6040516001600160a01b03821681527fe513d3e0f0d0a3877029dcc588748679a7a3450ec1ec7ed56d96bd012c3e61aa9060200160405180910390a1600180546001600160a01b0319166001600160a01b0392909216919091179055565b60008060408385031215611d9b57600080fd5b50508035926020909101359150565b600060208284031215611dbc57600080fd5b5035919050565b6001600160a01b0381168114611dd857600080fd5b50565b803560ff81168114611dec57600080fd5b919050565b60008060408385031215611e0457600080fd5b8235611e0f81611dc3565b9150611e1d60208401611ddb565b90509250929050565b600060208284031215611e3857600080fd5b8135610d9b81611dc3565b634e487b7160e01b600052604160045260246000fd5b6040516101e0810167ffffffffffffffff81118282101715611e7d57611e7d611e43565b60405290565b604051601f8201601f1916810167ffffffffffffffff81118282101715611eac57611eac611e43565b604052919050565b803561ffff81168114611dec57600080fd5b8015158114611dd857600080fd5b8035611dec81611ec6565b64ffffffffff81168114611dd857600080fd5b600082601f830112611f0357600080fd5b6040516060810181811067ffffffffffffffff82111715611f2657611f26611e43565b604052806060840185811115611f3b57600080fd5b845b81811015611f5e578035611f5081611edf565b835260209283019201611f3d565b509195945050505050565b600080600080848603610280811215611f8157600080fd5b8535611f8c81611dc3565b9450610220601f1982011215611fa157600080fd5b50611faa611e59565b611fb660208701611eb4565b8152611fc460408701611ddb565b6020820152611fd560608701611ddb565b6040820152611fe660808701611ddb565b6060820152611ff760a08701611eb4565b608082015261200860c08701611eb4565b60a082015261201960e08701611ed4565b60c082015261010061202c818801611ed4565b60e083015261012061203f818901611ed4565b828401526101409150612053828901611ed4565b90830152610160612065888201611ddb565b828401526101809150612079828901611ddb565b908301526101a061208b888201611ddb565b828401526101c0915061209f828901611ddb565b908301526120b1886101e08901611ef2565b90820152939693955050505061024082013591610260013590565b6020808252825182820181905260009190848201906040850190845b8181101561210d5783516001600160a01b0316835292840192918401916001016120e8565b50909695505050505050565b6000806000806080858703121561212f57600080fd5b84359350602085013561214181611dc3565b9250604085013561215181611dc3565b9150606085013561216181611dc3565b939692955090935050565b60008060006060848603121561218157600080fd5b61218a84611eb4565b925061219860208501611eb4565b915060408401356121a881611edf565b809150509250925092565b6000602082840312156121c557600080fd5b8151610d9b81611edf565b6000602082840312156121e257600080fd5b8151610d9b81611ec6565b60208082526026908201527f41432e6f6e6c794469726563744b65657065723a206e6f74206469726563742060408201526535b2b2b832b960d11b606082015260800190565b60208082526036908201527f41432e6f776e65724f72446972656374426f6f6b65657065723a206e6569746860408201527532b91037bbb732b9103737b9103137b7b5b2b2b832b960511b606082015260800190565b6020808252601d908201527f524f442e6d642e4f523a20646f63204e4f542072656769737465726564000000604082015260600190565b634e487b7160e01b600052601160045260246000fd5b600065ffffffffffff808316818516818304811182151516156122fb576122fb6122c0565b02949350505050565b600065ffffffffffff808316818516808303821115612325576123256122c0565b01949350505050565b6000602080838503121561234157600080fd5b825167ffffffffffffffff8082111561235957600080fd5b818501915085601f83011261236d57600080fd5b81518181111561237f5761237f611e43565b8060051b9150612390848301611e83565b81815291830184019184810190888411156123aa57600080fd5b938501935b838510156123d457845192506123c483611dc3565b82825293850193908501906123af565b98975050505050505050565b6000602082840312156123f257600080fd5b5051919050565b60006020828403121561240b57600080fd5b8151610d9b81611dc3565b6000806040838503121561242957600080fd5b82519150602083015161243b81611dc3565b80915050925092905056fea2646970667358221220888917ed5b93d34e88ccaec09063ec5accef0f1a6c4a81b6b8135b52aed8bb1f64736f6c63430008080033",
    "sourcePath": "/Users/kaptain/github.com/hardhat/comboox/contracts/books/boh/BookOfSHA.sol",
    "compiler": {
        "name": "solc",
        "version": "0.8.8+commit.dddeac2f"
    },
    "functionHashes": {
        "abandonRole(bytes32)": "3da9a600",
        "changePointer(address)": "9f4d332f",
        "circulateDoc(address,(uint16,uint8,uint8,uint8,uint16,uint16,bool,bool,bool,bool,uint8,uint8,uint8,uint8,uint40[3]),bytes32,bytes32)": "8c32f23d",
        "createDoc(uint16,uint16,uint40)": "f15e6452",
        "filesList()": "8fefe1cd",
        "finalized()": "b3f05b97",
        "getBookeeper()": "ed211023",
        "getGeneralCounsel()": "103f6edd",
        "getHeadOfFile(address)": "6e0cdd3a",
        "getOwner()": "893d20e8",
        "getRefOfFile(address)": "58598c35",
        "grantRole(bytes32,uint256)": "1b6ea9f9",
        "hasRole(bytes32,uint256)": "7e063c5a",
        "init(uint256,address,address,address)": "dc890da9",
        "isRegistered(address)": "c3c5a547",
        "lockContents()": "f045a769",
        "pointer()": "2f5f3b3c",
        "qtyOfFiles()": "9ee4ad4e",
        "renounceRole(bytes32)": "8bb9c5bf",
        "revokeRole(bytes32,uint256)": "19d61ad9",
        "setDirectKeeper(address)": "6be8496f",
        "setGeneralCounsel(uint256)": "4a14beb1",
        "setOwner(uint256)": "8041494e",
        "setRoleAdmin(bytes32,uint256)": "5171ebd4",
        "setStateOfFile(address,uint8)": "511b707d"
    },
    "gasEstimates": {
        "creation": {
            "codeDepositCost": "1868000",
            "executionCost": "1969",
            "totalCost": "1869969"
        },
        "external": {
            "abandonRole(bytes32)": "infinite",
            "changePointer(address)": "infinite",
            "circulateDoc(address,(uint16,uint8,uint8,uint8,uint16,uint16,bool,bool,bool,bool,uint8,uint8,uint8,uint8,uint40[3]),bytes32,bytes32)": "infinite",
            "createDoc(uint16,uint16,uint40)": "infinite",
            "filesList()": "infinite",
            "finalized()": "2394",
            "getBookeeper()": "infinite",
            "getGeneralCounsel()": "infinite",
            "getHeadOfFile(address)": "infinite",
            "getOwner()": "infinite",
            "getRefOfFile(address)": "infinite",
            "grantRole(bytes32,uint256)": "infinite",
            "hasRole(bytes32,uint256)": "infinite",
            "init(uint256,address,address,address)": "infinite",
            "isRegistered(address)": "infinite",
            "lockContents()": "infinite",
            "pointer()": "2410",
            "qtyOfFiles()": "infinite",
            "renounceRole(bytes32)": "infinite",
            "revokeRole(bytes32,uint256)": "infinite",
            "setDirectKeeper(address)": "infinite",
            "setGeneralCounsel(uint256)": "infinite",
            "setOwner(uint256)": "infinite",
            "setRoleAdmin(bytes32,uint256)": "infinite",
            "setStateOfFile(address,uint8)": "infinite"
        }
    }
}