{
    "contractName": "BookOfSHA",
    "abi": [
        {
            "anonymous": false,
            "inputs": [
                {
                    "indexed": false,
                    "internalType": "address",
                    "name": "pointer",
                    "type": "address"
                }
            ],
            "name": "ChangePointer",
            "type": "event"
        },
        {
            "anonymous": false,
            "inputs": [
                {
                    "indexed": false,
                    "internalType": "uint256",
                    "name": "owner",
                    "type": "uint256"
                },
                {
                    "indexed": false,
                    "internalType": "address",
                    "name": "directKeeper",
                    "type": "address"
                },
                {
                    "indexed": false,
                    "internalType": "address",
                    "name": "regCenter",
                    "type": "address"
                },
                {
                    "indexed": false,
                    "internalType": "address",
                    "name": "generalKeeper",
                    "type": "address"
                }
            ],
            "name": "Init",
            "type": "event"
        },
        {
            "anonymous": false,
            "inputs": [],
            "name": "LockContents",
            "type": "event"
        },
        {
            "anonymous": false,
            "inputs": [
                {
                    "indexed": true,
                    "internalType": "address",
                    "name": "body",
                    "type": "address"
                }
            ],
            "name": "RemoveDoc",
            "type": "event"
        },
        {
            "anonymous": false,
            "inputs": [
                {
                    "indexed": false,
                    "internalType": "address",
                    "name": "keeper",
                    "type": "address"
                }
            ],
            "name": "SetDirectKeeper",
            "type": "event"
        },
        {
            "anonymous": false,
            "inputs": [
                {
                    "indexed": false,
                    "internalType": "uint256",
                    "name": "acct",
                    "type": "uint256"
                }
            ],
            "name": "SetGeneralCounsel",
            "type": "event"
        },
        {
            "anonymous": false,
            "inputs": [
                {
                    "indexed": false,
                    "internalType": "address",
                    "name": "gk",
                    "type": "address"
                }
            ],
            "name": "SetGeneralKeeper",
            "type": "event"
        },
        {
            "anonymous": false,
            "inputs": [
                {
                    "indexed": false,
                    "internalType": "uint256",
                    "name": "acct",
                    "type": "uint256"
                }
            ],
            "name": "SetOwner",
            "type": "event"
        },
        {
            "anonymous": false,
            "inputs": [
                {
                    "indexed": false,
                    "internalType": "address",
                    "name": "rc",
                    "type": "address"
                }
            ],
            "name": "SetRegCenter",
            "type": "event"
        },
        {
            "anonymous": false,
            "inputs": [
                {
                    "indexed": true,
                    "internalType": "address",
                    "name": "temp",
                    "type": "address"
                },
                {
                    "indexed": false,
                    "internalType": "uint256",
                    "name": "typeOfDoc",
                    "type": "uint256"
                }
            ],
            "name": "SetTemplate",
            "type": "event"
        },
        {
            "anonymous": false,
            "inputs": [
                {
                    "indexed": true,
                    "internalType": "address",
                    "name": "body",
                    "type": "address"
                },
                {
                    "indexed": false,
                    "internalType": "uint8",
                    "name": "state",
                    "type": "uint8"
                }
            ],
            "name": "UpdateStateOfDoc",
            "type": "event"
        },
        {
            "inputs": [
                {
                    "internalType": "bytes32",
                    "name": "role",
                    "type": "bytes32"
                }
            ],
            "name": "abandonRole",
            "outputs": [],
            "stateMutability": "nonpayable",
            "type": "function"
        },
        {
            "inputs": [
                {
                    "internalType": "address",
                    "name": "body",
                    "type": "address"
                }
            ],
            "name": "changePointer",
            "outputs": [],
            "stateMutability": "nonpayable",
            "type": "function"
        },
        {
            "inputs": [
                {
                    "internalType": "address",
                    "name": "body",
                    "type": "address"
                },
                {
                    "components": [
                        {
                            "internalType": "uint16",
                            "name": "seq",
                            "type": "uint16"
                        },
                        {
                            "internalType": "uint8",
                            "name": "qtyOfSubRule",
                            "type": "uint8"
                        },
                        {
                            "internalType": "uint8",
                            "name": "seqOfSubRule",
                            "type": "uint8"
                        },
                        {
                            "internalType": "uint8",
                            "name": "authority",
                            "type": "uint8"
                        },
                        {
                            "internalType": "uint16",
                            "name": "headRatio",
                            "type": "uint16"
                        },
                        {
                            "internalType": "uint16",
                            "name": "amountRatio",
                            "type": "uint16"
                        },
                        {
                            "internalType": "bool",
                            "name": "onlyAttendance",
                            "type": "bool"
                        },
                        {
                            "internalType": "bool",
                            "name": "impliedConsent",
                            "type": "bool"
                        },
                        {
                            "internalType": "bool",
                            "name": "partyAsConsent",
                            "type": "bool"
                        },
                        {
                            "internalType": "bool",
                            "name": "againstShallBuy",
                            "type": "bool"
                        },
                        {
                            "internalType": "uint8",
                            "name": "shaExecDays",
                            "type": "uint8"
                        },
                        {
                            "internalType": "uint8",
                            "name": "reviewDays",
                            "type": "uint8"
                        },
                        {
                            "internalType": "uint8",
                            "name": "votingDays",
                            "type": "uint8"
                        },
                        {
                            "internalType": "uint8",
                            "name": "execDaysForPutOpt",
                            "type": "uint8"
                        },
                        {
                            "internalType": "uint40[3]",
                            "name": "vetoers",
                            "type": "uint40[3]"
                        }
                    ],
                    "internalType": "struct RulesParser.VotingRule",
                    "name": "vr",
                    "type": "tuple"
                },
                {
                    "internalType": "bytes32",
                    "name": "docUrl",
                    "type": "bytes32"
                },
                {
                    "internalType": "bytes32",
                    "name": "docHash",
                    "type": "bytes32"
                }
            ],
            "name": "circulateDoc",
            "outputs": [],
            "stateMutability": "nonpayable",
            "type": "function"
        },
        {
            "inputs": [
                {
                    "internalType": "uint8",
                    "name": "docType",
                    "type": "uint8"
                },
                {
                    "internalType": "uint256",
                    "name": "creator",
                    "type": "uint256"
                }
            ],
            "name": "createDoc",
            "outputs": [
                {
                    "internalType": "address",
                    "name": "body",
                    "type": "address"
                },
                {
                    "internalType": "address",
                    "name": "sigPage",
                    "type": "address"
                }
            ],
            "stateMutability": "nonpayable",
            "type": "function"
        },
        {
            "inputs": [],
            "name": "docsList",
            "outputs": [
                {
                    "internalType": "address[]",
                    "name": "",
                    "type": "address[]"
                }
            ],
            "stateMutability": "view",
            "type": "function"
        },
        {
            "inputs": [],
            "name": "finalized",
            "outputs": [
                {
                    "internalType": "bool",
                    "name": "",
                    "type": "bool"
                }
            ],
            "stateMutability": "view",
            "type": "function"
        },
        {
            "inputs": [],
            "name": "getBookeeper",
            "outputs": [
                {
                    "internalType": "address",
                    "name": "",
                    "type": "address"
                }
            ],
            "stateMutability": "view",
            "type": "function"
        },
        {
            "inputs": [],
            "name": "getGeneralCounsel",
            "outputs": [
                {
                    "internalType": "uint256",
                    "name": "",
                    "type": "uint256"
                }
            ],
            "stateMutability": "view",
            "type": "function"
        },
        {
            "inputs": [
                {
                    "internalType": "address",
                    "name": "body",
                    "type": "address"
                }
            ],
            "name": "getHeadOfDoc",
            "outputs": [
                {
                    "components": [
                        {
                            "internalType": "uint8",
                            "name": "docType",
                            "type": "uint8"
                        },
                        {
                            "internalType": "uint40",
                            "name": "creator",
                            "type": "uint40"
                        },
                        {
                            "internalType": "uint48",
                            "name": "createDate",
                            "type": "uint48"
                        },
                        {
                            "internalType": "uint48",
                            "name": "shaExecDeadline",
                            "type": "uint48"
                        },
                        {
                            "internalType": "uint48",
                            "name": "proposeDeadline",
                            "type": "uint48"
                        },
                        {
                            "internalType": "uint8",
                            "name": "state",
                            "type": "uint8"
                        }
                    ],
                    "internalType": "struct IRepoOfDocs.Head",
                    "name": "head",
                    "type": "tuple"
                }
            ],
            "stateMutability": "view",
            "type": "function"
        },
        {
            "inputs": [],
            "name": "getOwner",
            "outputs": [
                {
                    "internalType": "uint256",
                    "name": "",
                    "type": "uint256"
                }
            ],
            "stateMutability": "view",
            "type": "function"
        },
        {
            "inputs": [
                {
                    "internalType": "address",
                    "name": "body",
                    "type": "address"
                }
            ],
            "name": "getRefOfDoc",
            "outputs": [
                {
                    "internalType": "bytes32",
                    "name": "docUrl",
                    "type": "bytes32"
                },
                {
                    "internalType": "bytes32",
                    "name": "docHash",
                    "type": "bytes32"
                }
            ],
            "stateMutability": "view",
            "type": "function"
        },
        {
            "inputs": [
                {
                    "internalType": "bytes32",
                    "name": "role",
                    "type": "bytes32"
                },
                {
                    "internalType": "uint256",
                    "name": "acct",
                    "type": "uint256"
                }
            ],
            "name": "grantRole",
            "outputs": [],
            "stateMutability": "nonpayable",
            "type": "function"
        },
        {
            "inputs": [
                {
                    "internalType": "bytes32",
                    "name": "role",
                    "type": "bytes32"
                },
                {
                    "internalType": "uint256",
                    "name": "acct",
                    "type": "uint256"
                }
            ],
            "name": "hasRole",
            "outputs": [
                {
                    "internalType": "bool",
                    "name": "",
                    "type": "bool"
                }
            ],
            "stateMutability": "view",
            "type": "function"
        },
        {
            "inputs": [
                {
                    "internalType": "uint256",
                    "name": "owner",
                    "type": "uint256"
                },
                {
                    "internalType": "address",
                    "name": "directKeeper",
                    "type": "address"
                },
                {
                    "internalType": "address",
                    "name": "regCenter",
                    "type": "address"
                },
                {
                    "internalType": "address",
                    "name": "generalKeeper",
                    "type": "address"
                }
            ],
            "name": "init",
            "outputs": [],
            "stateMutability": "nonpayable",
            "type": "function"
        },
        {
            "inputs": [
                {
                    "internalType": "address",
                    "name": "body",
                    "type": "address"
                }
            ],
            "name": "isRegistered",
            "outputs": [
                {
                    "internalType": "bool",
                    "name": "",
                    "type": "bool"
                }
            ],
            "stateMutability": "view",
            "type": "function"
        },
        {
            "inputs": [],
            "name": "lockContents",
            "outputs": [],
            "stateMutability": "nonpayable",
            "type": "function"
        },
        {
            "inputs": [],
            "name": "pointer",
            "outputs": [
                {
                    "internalType": "address",
                    "name": "",
                    "type": "address"
                }
            ],
            "stateMutability": "view",
            "type": "function"
        },
        {
            "inputs": [],
            "name": "qtyOfDocs",
            "outputs": [
                {
                    "internalType": "uint256",
                    "name": "",
                    "type": "uint256"
                }
            ],
            "stateMutability": "view",
            "type": "function"
        },
        {
            "inputs": [
                {
                    "internalType": "address",
                    "name": "body",
                    "type": "address"
                }
            ],
            "name": "removeDoc",
            "outputs": [],
            "stateMutability": "nonpayable",
            "type": "function"
        },
        {
            "inputs": [
                {
                    "internalType": "bytes32",
                    "name": "role",
                    "type": "bytes32"
                }
            ],
            "name": "renounceRole",
            "outputs": [],
            "stateMutability": "nonpayable",
            "type": "function"
        },
        {
            "inputs": [
                {
                    "internalType": "bytes32",
                    "name": "role",
                    "type": "bytes32"
                },
                {
                    "internalType": "uint256",
                    "name": "acct",
                    "type": "uint256"
                }
            ],
            "name": "revokeRole",
            "outputs": [],
            "stateMutability": "nonpayable",
            "type": "function"
        },
        {
            "inputs": [
                {
                    "internalType": "address",
                    "name": "keeper",
                    "type": "address"
                }
            ],
            "name": "setDirectKeeper",
            "outputs": [],
            "stateMutability": "nonpayable",
            "type": "function"
        },
        {
            "inputs": [
                {
                    "internalType": "uint256",
                    "name": "acct",
                    "type": "uint256"
                }
            ],
            "name": "setGeneralCounsel",
            "outputs": [],
            "stateMutability": "nonpayable",
            "type": "function"
        },
        {
            "inputs": [
                {
                    "internalType": "uint256",
                    "name": "acct",
                    "type": "uint256"
                }
            ],
            "name": "setOwner",
            "outputs": [],
            "stateMutability": "nonpayable",
            "type": "function"
        },
        {
            "inputs": [
                {
                    "internalType": "bytes32",
                    "name": "role",
                    "type": "bytes32"
                },
                {
                    "internalType": "uint256",
                    "name": "acct",
                    "type": "uint256"
                }
            ],
            "name": "setRoleAdmin",
            "outputs": [],
            "stateMutability": "nonpayable",
            "type": "function"
        },
        {
            "inputs": [
                {
                    "internalType": "address",
                    "name": "body",
                    "type": "address"
                },
                {
                    "internalType": "uint8",
                    "name": "state",
                    "type": "uint8"
                }
            ],
            "name": "setStateOfDoc",
            "outputs": [],
            "stateMutability": "nonpayable",
            "type": "function"
        },
        {
            "inputs": [
                {
                    "internalType": "address",
                    "name": "body",
                    "type": "address"
                },
                {
                    "internalType": "uint8",
                    "name": "typeOfDoc",
                    "type": "uint8"
                }
            ],
            "name": "setTemplate",
            "outputs": [],
            "stateMutability": "nonpayable",
            "type": "function"
        },
        {
            "inputs": [
                {
                    "internalType": "address",
                    "name": "body",
                    "type": "address"
                }
            ],
            "name": "sigPageOfDoc",
            "outputs": [
                {
                    "internalType": "contract ISigPage",
                    "name": "sigPage",
                    "type": "address"
                }
            ],
            "stateMutability": "view",
            "type": "function"
        },
        {
            "inputs": [
                {
                    "internalType": "uint8",
                    "name": "typeOfDoc",
                    "type": "uint8"
                }
            ],
            "name": "tempReadyFor",
            "outputs": [
                {
                    "internalType": "bool",
                    "name": "",
                    "type": "bool"
                }
            ],
            "stateMutability": "view",
            "type": "function"
        },
        {
            "inputs": [
                {
                    "internalType": "uint8",
                    "name": "typeOfDoc",
                    "type": "uint8"
                }
            ],
            "name": "template",
            "outputs": [
                {
                    "internalType": "address",
                    "name": "",
                    "type": "address"
                }
            ],
            "stateMutability": "view",
            "type": "function"
        },
        {
            "inputs": [],
            "name": "tempsList",
            "outputs": [
                {
                    "internalType": "uint256[]",
                    "name": "",
                    "type": "uint256[]"
                }
            ],
            "stateMutability": "view",
            "type": "function"
        }
    ],
    "bytecode": "608060405234801561001057600080fd5b50612ece806100206000396000f3fe608060405234801561001057600080fd5b50600436106101e55760003560e01c80636be8496f1161010f578063b3f05b97116100a2578063de154c2711610071578063de154c271461045f578063ed211023146104db578063ee4b47c1146104e3578063f045a769146104eb57600080fd5b8063b3f05b9714610412578063c3c5a54714610426578063d42186fa14610439578063dc890da91461044c57600080fd5b80638bb9c5bf116100de5780638bb9c5bf146103c65780638c32f23d146103d95780639f4d332f146103ec578063aa596576146103ff57600080fd5b80636be8496f146103855780637e063c5a146103985780638041494e146103ab578063893d20e8146103be57600080fd5b8063309ed9c8116101875780634be157d5116101565780634be157d51461031e5780634efd15f2146103335780635171ebd41461035f57806365a1f3d81461037257600080fd5b8063309ed9c8146102b05780633da9a600146102c5578063499de718146102d85780634a14beb11461030b57600080fd5b80631b6ea9f9116101c35780631b6ea9f91461023d578063211f581614610250578063289aeb57146102635780632f5f3b3c1461028b57600080fd5b8063067488cf146101ea578063103f6edd1461021257806319d61ad914610228575b600080fd5b6101fd6101f8366004612753565b6104f3565b60405190151581526020015b60405180910390f35b61021a610589565b604051908152602001610209565b61023b61023636600461276e565b61061c565b005b61023b61024b36600461276e565b6106b0565b61023b61025e3660046127a8565b6106d5565b6102766102713660046127dd565b6108c2565b60408051928352602083019190915201610209565b600a546001600160a01b03165b6040516001600160a01b039091168152602001610209565b6102b86109a0565b60405161020991906127fa565b61023b6102d336600461283e565b610a2f565b6102eb6102e6366004612857565b610b41565b604080516001600160a01b03938416815292909116602083015201610209565b61023b61031936600461283e565b61102c565b61032661121c565b6040516102099190612881565b610298610341366004612753565b60ff166000908152600460205260409020546001600160a01b031690565b61023b61036d36600461276e565b6112a6565b6102986103803660046127dd565b6112cb565b61023b6103933660046127dd565b6113a1565b6101fd6103a636600461276e565b611453565b61023b6103b936600461283e565b6114ee565b61021a6116d3565b61023b6103d436600461283e565b61170e565b61023b6103e73660046129e8565b611767565b61023b6103fa3660046127dd565b611999565b61023b61040d3660046127a8565b611b76565b60028054600160f01b900460ff16146101fd565b6101fd6104343660046127dd565b611d1c565b61023b6104473660046127dd565b611d66565b61023b61045a366004612b4b565b611f93565b61047261046d3660046127dd565b612076565b6040516102099190600060c08201905060ff835116825264ffffffffff6020840151166020830152604083015165ffffffffffff8082166040850152806060860151166060850152806080860151166080850152505060ff60a08401511660a083015292915050565b6102986121dd565b61021a612263565b61023b6122e9565b604051633f5f77cd60e01b81526005600482015260ff8216602482015260009073__$8c1a4844a0a0988ea2454cf87145a95df1$__90633f5f77cd906044015b60206040518083038186803b15801561054b57600080fd5b505af415801561055f573d6000803e3d6000fd5b505050506040513d601f19601f820116820180604052508101906105839190612b9e565b92915050565b60405163e8c0cc1d60e01b81526002600482015260009073__$364aad554dc80380f414546becdd2c1584$__9063e8c0cc1d906024015b60206040518083038186803b1580156105d857600080fd5b505af41580156105ec573d6000803e3d6000fd5b505050506040513d601f19601f820116820180604052508101906106109190612bbb565b64ffffffffff16905090565b73__$364aad554dc80380f414546becdd2c1584$__6382daafaa600284610641612507565b6040516001600160e01b031960e086901b1681526004810193909352602483019190915264ffffffffff166044820152606481018490526084015b60006040518083038186803b15801561069457600080fd5b505af41580156106a8573d6000803e3d6000fd5b505050505050565b73__$364aad554dc80380f414546becdd2c1584$__636320d75e600284610641612507565b60405163f698b0f160e01b8152600860048201526001600160a01b0383166024820152829073__$8c1a4844a0a0988ea2454cf87145a95df1$__9063f698b0f19060440160206040518083038186803b15801561073157600080fd5b505af4158015610745573d6000803e3d6000fd5b505050506040513d601f19601f820116820180604052508101906107699190612b9e565b61078e5760405162461bcd60e51b815260040161078590612bd8565b60405180910390fd5b6001546040516335d2155560e11b81523360048201526001600160a01b0390911690636ba42aaa9060240160206040518083038186803b1580156107d157600080fd5b505afa1580156107e5573d6000803e3d6000fd5b505050506040513d601f19601f820116820180604052508101906108099190612b9e565b6108495760405162461bcd60e51b815260206004820152601160248201527020a19737b59d103737ba1025b2b2b832b960791b6044820152606401610785565b60405160ff831681526001600160a01b038416907f7d25780785c2b2fefad30c6603980e64e6005c311412119d7e4702f602fd730a9060200160405180910390a2506001600160a01b039091166000908152600760205260409020805460ff909216600160c01b0260ff60c01b19909216919091179055565b60405163f698b0f160e01b8152600860048201526001600160a01b03821660248201526000908190839073__$8c1a4844a0a0988ea2454cf87145a95df1$__9063f698b0f19060440160206040518083038186803b15801561092357600080fd5b505af4158015610937573d6000803e3d6000fd5b505050506040513d601f19601f8201168201806040525081019061095b9190612b9e565b6109775760405162461bcd60e51b815260040161078590612bd8565b5050506001600160a01b0316600090815260076020526040902060018101546002909101549091565b60405163034306e160e21b81526005600482015260609073__$8c1a4844a0a0988ea2454cf87145a95df1$__90630d0c1b849060240160006040518083038186803b1580156109ee57600080fd5b505af4158015610a02573d6000803e3d6000fd5b505050506040513d6000823e601f3d908101601f19168201604052610a2a9190810190612c33565b905090565b604051633b11adbf60e21b81526002600482015233602482015273__$364aad554dc80380f414546becdd2c1584$__9063ec46b6fc9060440160206040518083038186803b158015610a8057600080fd5b505af4158015610a94573d6000803e3d6000fd5b505050506040513d601f19601f82011682018060405250810190610ab89190612b9e565b610ad45760405162461bcd60e51b815260040161078590612cc9565b60405163cc99e11b60e01b8152600260048201526024810182905273__$364aad554dc80380f414546becdd2c1584$__9063cc99e11b9060440160006040518083038186803b158015610b2657600080fd5b505af4158015610b3a573d6000803e3d6000fd5b5050505050565b604051633b11adbf60e21b815260026004820152336024820152600090819073__$364aad554dc80380f414546becdd2c1584$__9063ec46b6fc9060440160206040518083038186803b158015610b9757600080fd5b505af4158015610bab573d6000803e3d6000fd5b505050506040513d601f19601f82011682018060405250810190610bcf9190612b9e565b610beb5760405162461bcd60e51b815260040161078590612cc9565b604051633f5f77cd60e01b81526005600482015260ff85166024820152849073__$8c1a4844a0a0988ea2454cf87145a95df1$__90633f5f77cd9060440160206040518083038186803b158015610c4157600080fd5b505af4158015610c55573d6000803e3d6000fd5b505050506040513d601f19601f82011682018060405250810190610c799190612b9e565b610cc55760405162461bcd60e51b815260206004820152601b60248201527f524f442e6d642e54523a2074656d706c617465204e4f542073657400000000006044820152606401610785565b6000604051633f5f77cd60e01b81526005600482015260ff8216602482015273__$8c1a4844a0a0988ea2454cf87145a95df1$__90633f5f77cd9060440160206040518083038186803b158015610d1b57600080fd5b505af4158015610d2f573d6000803e3d6000fd5b505050506040513d601f19601f82011682018060405250810190610d539190612b9e565b610d9f5760405162461bcd60e51b815260206004820152601b60248201527f524f442e6d642e54523a2074656d706c617465204e4f542073657400000000006044820152606401610785565b60ff8616600090815260046020526040812054610dc4906001600160a01b0316612585565b604051633e244cf360e01b8152600860048201526001600160a01b038216602482015290915073__$8c1a4844a0a0988ea2454cf87145a95df1$__90633e244cf39060440160206040518083038186803b158015610e2157600080fd5b505af4158015610e35573d6000803e3d6000fd5b505050506040513d601f19601f82011682018060405250810190610e599190612b9e565b15611022579350836001600160a01b0381167f7d25780785c2b2fefad30c6603980e64e6005c311412119d7e4702f602fd730a600160405160ff909116815260200160405180910390a26040805160c08101825260ff8916815264ffffffffff8816602082015265ffffffffffff421691810191909152600060608201819052608082015260a08101600160ff9081169091526001600160a01b03871660009081526007602090815260408083208551815493870151928701516060880151608089015160a09099015192881665ffffffffffff199096169590951761010064ffffffffff909516949094029390931771ffffffffffffffffffffffff0000000000001916660100000000000065ffffffffffff9485160265ffffffffffff60601b191617600160601b948416949094029390931766ffffffffffffff60901b1916600160901b929096169190910260ff60c01b191694909417600160c01b919093160291909117909155610fee906004908060ff1681526020810191909152604001600020546001600160a01b0316612585565b6001600160a01b03868116600090815260076020526040902060030180546001600160a01b03191691831691909117905593505b5050509250929050565b604051633b11adbf60e21b81526002600482015233602482015273__$364aad554dc80380f414546becdd2c1584$__9063ec46b6fc9060440160206040518083038186803b15801561107d57600080fd5b505af4158015611091573d6000803e3d6000fd5b505050506040513d601f19601f820116820180604052508101906110b59190612b9e565b8061115a575073__$364aad554dc80380f414546becdd2c1584$__63fe27108660026110df612507565b6040516001600160e01b031960e085901b168152600481019290925264ffffffffff16602482015260440160206040518083038186803b15801561112257600080fd5b505af4158015611136573d6000803e3d6000fd5b505050506040513d601f19601f8201168201806040525081019061115a9190612b9e565b6111765760405162461bcd60e51b815260040161078590612d0f565b604051632725ebef60e21b8152600260048201526024810182905273__$364aad554dc80380f414546becdd2c1584$__90639c97afbc9060440160006040518083038186803b1580156111c857600080fd5b505af41580156111dc573d6000803e3d6000fd5b505050507ff2735f34b69be1e6342dea95f9162f84d0db925fab655ca9f1f312ac8cbfc99d8160405161121191815260200190565b60405180910390a150565b604051638f65372b60e01b81526008600482015260609073__$8c1a4844a0a0988ea2454cf87145a95df1$__90638f65372b9060240160006040518083038186803b15801561126a57600080fd5b505af415801561127e573d6000803e3d6000fd5b505050506040513d6000823e601f3d908101601f19168201604052610a2a9190810190612d65565b73__$364aad554dc80380f414546becdd2c1584$__63ee98b313600284610641612507565b60405163f698b0f160e01b8152600860048201526001600160a01b0382166024820152600090829073__$8c1a4844a0a0988ea2454cf87145a95df1$__9063f698b0f19060440160206040518083038186803b15801561132a57600080fd5b505af415801561133e573d6000803e3d6000fd5b505050506040513d601f19601f820116820180604052508101906113629190612b9e565b61137e5760405162461bcd60e51b815260040161078590612bd8565b50506001600160a01b039081166000908152600760205260409020600301541690565b604051630f07232560e01b8152600260048201523360248201526001600160a01b038216604482015273__$364aad554dc80380f414546becdd2c1584$__90630f0723259060640160006040518083038186803b15801561140157600080fd5b505af4158015611415573d6000803e3d6000fd5b50506040516001600160a01b03841681527fe435cbeab64e4eae6497b9d8289704bd709d624a80704ef3ca9af777534bc6ec92506020019050611211565b604051632a3be56b60e21b815260026004820152602481018390526044810182905260009073__$364aad554dc80380f414546becdd2c1584$__9063a8ef95ac9060640160206040518083038186803b1580156114af57600080fd5b505af41580156114c3573d6000803e3d6000fd5b505050506040513d601f19601f820116820180604052508101906114e79190612b9e565b9392505050565b604051633b11adbf60e21b81526002600482015233602482015273__$364aad554dc80380f414546becdd2c1584$__9063ec46b6fc9060440160206040518083038186803b15801561153f57600080fd5b505af4158015611553573d6000803e3d6000fd5b505050506040513d601f19601f820116820180604052508101906115779190612b9e565b8061161c575073__$364aad554dc80380f414546becdd2c1584$__63fe27108660026115a1612507565b6040516001600160e01b031960e085901b168152600481019290925264ffffffffff16602482015260440160206040518083038186803b1580156115e457600080fd5b505af41580156115f8573d6000803e3d6000fd5b505050506040513d601f19601f8201168201806040525081019061161c9190612b9e565b6116385760405162461bcd60e51b815260040161078590612d0f565b60405163b6e38a2960e01b8152600260048201526024810182905273__$364aad554dc80380f414546becdd2c1584$__9063b6e38a299060440160006040518083038186803b15801561168a57600080fd5b505af415801561169e573d6000803e3d6000fd5b505050507f8b6f40f36b4ae8cc5f55e895036457c43da4ab1f80f58c46f5ff0d72a650033b8160405161121191815260200190565b60405163987ad15360e01b81526002600482015260009073__$364aad554dc80380f414546becdd2c1584$__9063987ad153906024016105c0565b6000611718612507565b60405163cc0d511b60e01b8152600260048201526024810184905264ffffffffff8216604482015290915073__$364aad554dc80380f414546becdd2c1584$__9063cc0d511b9060640161067c565b604051633b11adbf60e21b81526002600482015233602482015273__$364aad554dc80380f414546becdd2c1584$__9063ec46b6fc9060440160206040518083038186803b1580156117b857600080fd5b505af41580156117cc573d6000803e3d6000fd5b505050506040513d601f19601f820116820180604052508101906117f09190612b9e565b61180c5760405162461bcd60e51b815260040161078590612cc9565b6001600160a01b038416600090815260076020526040902054849060ff600160c01b909104166001146118815760405162461bcd60e51b815260206004820152601b60248201527f524f442e6d642e4f46503a20446f63206e6f742070656e64696e6700000000006044820152606401610785565b604051600281526001600160a01b038616907f7d25780785c2b2fefad30c6603980e64e6005c311412119d7e4702f602fd730a9060200160405180910390a26001600160a01b03851660009081526007602052604090206101408501516118ee9060ff1662015180612e0a565b6118f89042612e38565b815465ffffffffffff91909116600160601b0265ffffffffffff60601b199091161781556101608501516119329060ff1662015180612e0a565b815461194d9190600160601b900465ffffffffffff16612e38565b815460018301959095556002820193909355600160c11b66ffffffffffffff60901b1990941665ffffffffffff909316600160901b0260ff60c01b191692909217929092179055505050565b604051633b11adbf60e21b81526002600482015233602482015273__$364aad554dc80380f414546becdd2c1584$__9063ec46b6fc9060440160206040518083038186803b1580156119ea57600080fd5b505af41580156119fe573d6000803e3d6000fd5b505050506040513d601f19601f82011682018060405250810190611a229190612b9e565b611a3e5760405162461bcd60e51b815260040161078590612cc9565b60405163f698b0f160e01b8152600860048201526001600160a01b0382166024820152819073__$8c1a4844a0a0988ea2454cf87145a95df1$__9063f698b0f19060440160206040518083038186803b158015611a9a57600080fd5b505af4158015611aae573d6000803e3d6000fd5b505050506040513d601f19601f82011682018060405250810190611ad29190612b9e565b611aee5760405162461bcd60e51b815260040161078590612bd8565b600a546001600160a01b031615611b1657600a54611b16906001600160a01b031660076106d5565b611b218260066106d5565b600a80546001600160a01b0319166001600160a01b0384169081179091556040519081527f8ac18d4db45c0c75a47f58fea54c52214d312783e8916556d79566e6103d0f1e9060200160405180910390a15050565b604051633b11adbf60e21b81526002600482015233602482015273__$364aad554dc80380f414546becdd2c1584$__9063ec46b6fc9060440160206040518083038186803b158015611bc757600080fd5b505af4158015611bdb573d6000803e3d6000fd5b505050506040513d601f19601f82011682018060405250810190611bff9190612b9e565b611c1b5760405162461bcd60e51b815260040161078590612cc9565b60405160ff821681526001600160a01b038316907f69e0d9bafb5046296417aaeb6e5f2d326263f2c4211bc67a7d7fa7f03b0e43739060200160405180910390a260ff811660008181526004602081905260409182902080546001600160a01b0319166001600160a01b03871617905590516392f13c3f60e01b8152600591810191909152602481019190915273__$8c1a4844a0a0988ea2454cf87145a95df1$__906392f13c3f9060440160206040518083038186803b158015611cdf57600080fd5b505af4158015611cf3573d6000803e3d6000fd5b505050506040513d601f19601f82011682018060405250810190611d179190612b9e565b505050565b60405163f698b0f160e01b8152600860048201526001600160a01b038216602482015260009073__$8c1a4844a0a0988ea2454cf87145a95df1$__9063f698b0f190604401610533565b604051633b11adbf60e21b81526002600482015233602482015273__$364aad554dc80380f414546becdd2c1584$__9063ec46b6fc9060440160206040518083038186803b158015611db757600080fd5b505af4158015611dcb573d6000803e3d6000fd5b505050506040513d601f19601f82011682018060405250810190611def9190612b9e565b611e0b5760405162461bcd60e51b815260040161078590612cc9565b6001600160a01b038116600090815260076020526040902054819060ff600160c01b90910416600114611e805760405162461bcd60e51b815260206004820152601b60248201527f524f442e6d642e4f46503a20446f63206e6f742070656e64696e6700000000006044820152606401610785565b604051636ea2751560e01b8152600860048201526001600160a01b038316602482015273__$8c1a4844a0a0988ea2454cf87145a95df1$__90636ea275159060440160206040518083038186803b158015611eda57600080fd5b505af4158015611eee573d6000803e3d6000fd5b505050506040513d601f19601f82011682018060405250810190611f129190612b9e565b15611f8f576040516001600160a01b038316907f05633b380cd1dd8bb1af7cbbf29e862857a3f147da66cbb23bdad8f7e527830b90600090a26001600160a01b03821660009081526007602052604081206003810180546001600160a01b031916905580546001600160c81b031916815560018101829055600201555b5050565b611f9c826125d7565b611fa581612686565b604051636cdd0edf60e11b815260026004820152602481018590526001600160a01b038416604482015273__$364aad554dc80380f414546becdd2c1584$__9063d9ba1dbe9060640160006040518083038186803b15801561200657600080fd5b505af415801561201a573d6000803e3d6000fd5b5050604080518781526001600160a01b038781166020830152868116828401528516606082015290517f3abb2418c66fe32ba9c883030a75ce583971d9af9192b9b74e44e67c5e6c8c1f9350908190036080019150a150505050565b6040805160c081018252600080825260208201819052818301819052606082018190526080820181905260a0820152905163f698b0f160e01b8152600860048201526001600160a01b0383166024820152829073__$8c1a4844a0a0988ea2454cf87145a95df1$__9063f698b0f19060440160206040518083038186803b15801561210057600080fd5b505af4158015612114573d6000803e3d6000fd5b505050506040513d601f19601f820116820180604052508101906121389190612b9e565b6121545760405162461bcd60e51b815260040161078590612bd8565b50506001600160a01b0316600090815260076020908152604091829020825160c081018452905460ff808216835264ffffffffff6101008304169383019390935265ffffffffffff66010000000000008204811694830194909452600160601b810484166060830152600160901b81049093166080820152600160c01b9092041660a082015290565b604051633c3e56c160e11b81526002600482015260009073__$364aad554dc80380f414546becdd2c1584$__9063787cad829060240160206040518083038186803b15801561222b57600080fd5b505af415801561223f573d6000803e3d6000fd5b505050506040513d601f19601f82011682018060405250810190610a2a9190612e62565b604051635e77c9af60e01b81526008600482015260009073__$8c1a4844a0a0988ea2454cf87145a95df1$__90635e77c9af9060240160206040518083038186803b1580156122b157600080fd5b505af41580156122c5573d6000803e3d6000fd5b505050506040513d601f19601f82011682018060405250810190610a2a9190612e7f565b604051633b11adbf60e21b81526002600482015233602482015273__$364aad554dc80380f414546becdd2c1584$__9063ec46b6fc9060440160206040518083038186803b15801561233a57600080fd5b505af415801561234e573d6000803e3d6000fd5b505050506040513d601f19601f820116820180604052508101906123729190612b9e565b61238e5760405162461bcd60e51b815260040161078590612cc9565b600254600160f01b900460ff166001146123ea5760405162461bcd60e51b815260206004820181905260248201527f41432e6f6e6c7950656e64696e673a20446f632069732066696e616c697a65646044820152606401610785565b60405163cc99e11b60e01b815260026004820152684174746f726e65797360b81b602482015273__$364aad554dc80380f414546becdd2c1584$__9063cc99e11b9060440160006040518083038186803b15801561244757600080fd5b505af415801561245b573d6000803e3d6000fd5b5050604051632725ebef60e21b8152600260048201526000602482015273__$364aad554dc80380f414546becdd2c1584$__9250639c97afbc915060440160006040518083038186803b1580156124b157600080fd5b505af41580156124c5573d6000803e3d6000fd5b50506002805460ff60f01b1916600160f11b17905550506040517f35012b512309c322acf68632cd6cb702ff0e1d776fbe9394e38ffc13b434fe7590600090a1565b60008054604051634de835e760e11b81523360048201526001600160a01b0390911690639bd06bce90602401602060405180830381600087803b15801561254d57600080fd5b505af1158015612561573d6000803e3d6000fd5b505050506040513d601f19601f82011682018060405250810190610a2a9190612bbb565b6000808260601b9050604051733d602d80600a3d3981f3363d3d373d3d3d363d7360601b81528160148201526e5af43d82803e903d91602b57fd5bf360881b60288201526037816000f0949350505050565b6000546001600160a01b0316156126285760405162461bcd60e51b815260206004820152601560248201527430b63932b0b23c9039b2ba103932b3a1b2b73a32b960591b6044820152606401610785565b6040516001600160a01b03821681527f318da6c7624c71cbc0afe346c9d8827f119d0ecefb241a7b0c87217a076a8e029060200160405180910390a1600080546001600160a01b0319166001600160a01b0392909216919091179055565b6001546001600160a01b0316156126df5760405162461bcd60e51b815260206004820152601960248201527f616c7265616479207365742067656e6572616c4b6565706572000000000000006044820152606401610785565b6040516001600160a01b03821681527fe513d3e0f0d0a3877029dcc588748679a7a3450ec1ec7ed56d96bd012c3e61aa9060200160405180910390a1600180546001600160a01b0319166001600160a01b0392909216919091179055565b803560ff8116811461274e57600080fd5b919050565b60006020828403121561276557600080fd5b6114e78261273d565b6000806040838503121561278157600080fd5b50508035926020909101359150565b6001600160a01b03811681146127a557600080fd5b50565b600080604083850312156127bb57600080fd5b82356127c681612790565b91506127d46020840161273d565b90509250929050565b6000602082840312156127ef57600080fd5b81356114e781612790565b6020808252825182820181905260009190848201906040850190845b8181101561283257835183529284019291840191600101612816565b50909695505050505050565b60006020828403121561285057600080fd5b5035919050565b6000806040838503121561286a57600080fd5b6128738361273d565b946020939093013593505050565b6020808252825182820181905260009190848201906040850190845b818110156128325783516001600160a01b03168352928401929184019160010161289d565b634e487b7160e01b600052604160045260246000fd5b6040516101e0810167ffffffffffffffff811182821017156128fc576128fc6128c2565b60405290565b604051601f8201601f1916810167ffffffffffffffff8111828210171561292b5761292b6128c2565b604052919050565b803561ffff8116811461274e57600080fd5b80151581146127a557600080fd5b803561274e81612945565b64ffffffffff811681146127a557600080fd5b600082601f83011261298257600080fd5b6040516060810181811067ffffffffffffffff821117156129a5576129a56128c2565b6040528060608401858111156129ba57600080fd5b845b818110156129dd5780356129cf8161295e565b8352602092830192016129bc565b509195945050505050565b600080600080848603610280811215612a0057600080fd5b8535612a0b81612790565b9450610220601f1982011215612a2057600080fd5b50612a296128d8565b612a3560208701612933565b8152612a436040870161273d565b6020820152612a546060870161273d565b6040820152612a656080870161273d565b6060820152612a7660a08701612933565b6080820152612a8760c08701612933565b60a0820152612a9860e08701612953565b60c0820152610100612aab818801612953565b60e0830152610120612abe818901612953565b828401526101409150612ad2828901612953565b90830152610160612ae488820161273d565b828401526101809150612af882890161273d565b908301526101a0612b0a88820161273d565b828401526101c09150612b1e82890161273d565b90830152612b30886101e08901612971565b90820152939693955050505061024082013591610260013590565b60008060008060808587031215612b6157600080fd5b843593506020850135612b7381612790565b92506040850135612b8381612790565b91506060850135612b9381612790565b939692955090935050565b600060208284031215612bb057600080fd5b81516114e781612945565b600060208284031215612bcd57600080fd5b81516114e78161295e565b6020808252601d908201527f524f442e6d642e4f523a20646f63204e4f542072656769737465726564000000604082015260600190565b600067ffffffffffffffff821115612c2957612c296128c2565b5060051b60200190565b60006020808385031215612c4657600080fd5b825167ffffffffffffffff811115612c5d57600080fd5b8301601f81018513612c6e57600080fd5b8051612c81612c7c82612c0f565b612902565b81815260059190911b82018301908381019087831115612ca057600080fd5b928401925b82841015612cbe57835182529284019290840190612ca5565b979650505050505050565b60208082526026908201527f41432e6f6e6c794469726563744b65657065723a206e6f74206469726563742060408201526535b2b2b832b960d11b606082015260800190565b60208082526036908201527f41432e6f776e65724f72446972656374426f6f6b65657065723a206e6569746860408201527532b91037bbb732b9103737b9103137b7b5b2b2b832b960511b606082015260800190565b60006020808385031215612d7857600080fd5b825167ffffffffffffffff811115612d8f57600080fd5b8301601f81018513612da057600080fd5b8051612dae612c7c82612c0f565b81815260059190911b82018301908381019087831115612dcd57600080fd5b928401925b82841015612cbe578351612de581612790565b82529284019290840190612dd2565b634e487b7160e01b600052601160045260246000fd5b600065ffffffffffff80831681851681830481118215151615612e2f57612e2f612df4565b02949350505050565b600065ffffffffffff808316818516808303821115612e5957612e59612df4565b01949350505050565b600060208284031215612e7457600080fd5b81516114e781612790565b600060208284031215612e9157600080fd5b505191905056fea2646970667358221220bd19db17634d720c996c5905cc791a4a00d75c09c448b39ece46c240552493bc64736f6c63430008080033",
    "sourcePath": "/Users/kaptain/github.com/hardhat/comboox/contracts/books/boh/BookOfSHA.sol",
    "compiler": {
        "name": "solc",
        "version": "0.8.8+commit.dddeac2f"
    },
    "functionHashes": {
        "abandonRole(bytes32)": "3da9a600",
        "changePointer(address)": "9f4d332f",
        "circulateDoc(address,(uint16,uint8,uint8,uint8,uint16,uint16,bool,bool,bool,bool,uint8,uint8,uint8,uint8,uint40[3]),bytes32,bytes32)": "8c32f23d",
        "createDoc(uint8,uint256)": "499de718",
        "docsList()": "4be157d5",
        "finalized()": "b3f05b97",
        "getBookeeper()": "ed211023",
        "getGeneralCounsel()": "103f6edd",
        "getHeadOfDoc(address)": "de154c27",
        "getOwner()": "893d20e8",
        "getRefOfDoc(address)": "289aeb57",
        "grantRole(bytes32,uint256)": "1b6ea9f9",
        "hasRole(bytes32,uint256)": "7e063c5a",
        "init(uint256,address,address,address)": "dc890da9",
        "isRegistered(address)": "c3c5a547",
        "lockContents()": "f045a769",
        "pointer()": "2f5f3b3c",
        "qtyOfDocs()": "ee4b47c1",
        "removeDoc(address)": "d42186fa",
        "renounceRole(bytes32)": "8bb9c5bf",
        "revokeRole(bytes32,uint256)": "19d61ad9",
        "setDirectKeeper(address)": "6be8496f",
        "setGeneralCounsel(uint256)": "4a14beb1",
        "setOwner(uint256)": "8041494e",
        "setRoleAdmin(bytes32,uint256)": "5171ebd4",
        "setStateOfDoc(address,uint8)": "211f5816",
        "setTemplate(address,uint8)": "aa596576",
        "sigPageOfDoc(address)": "65a1f3d8",
        "tempReadyFor(uint8)": "067488cf",
        "template(uint8)": "4efd15f2",
        "tempsList()": "309ed9c8"
    },
    "gasEstimates": {
        "creation": {
            "codeDepositCost": "2396400",
            "executionCost": "2575",
            "totalCost": "2398975"
        },
        "external": {
            "abandonRole(bytes32)": "infinite",
            "changePointer(address)": "infinite",
            "circulateDoc(address,(uint16,uint8,uint8,uint8,uint16,uint16,bool,bool,bool,bool,uint8,uint8,uint8,uint8,uint40[3]),bytes32,bytes32)": "infinite",
            "createDoc(uint8,uint256)": "infinite",
            "docsList()": "infinite",
            "finalized()": "2361",
            "getBookeeper()": "infinite",
            "getGeneralCounsel()": "infinite",
            "getHeadOfDoc(address)": "infinite",
            "getOwner()": "infinite",
            "getRefOfDoc(address)": "infinite",
            "grantRole(bytes32,uint256)": "infinite",
            "hasRole(bytes32,uint256)": "infinite",
            "init(uint256,address,address,address)": "infinite",
            "isRegistered(address)": "infinite",
            "lockContents()": "infinite",
            "pointer()": "2432",
            "qtyOfDocs()": "infinite",
            "removeDoc(address)": "infinite",
            "renounceRole(bytes32)": "infinite",
            "revokeRole(bytes32,uint256)": "infinite",
            "setDirectKeeper(address)": "infinite",
            "setGeneralCounsel(uint256)": "infinite",
            "setOwner(uint256)": "infinite",
            "setRoleAdmin(bytes32,uint256)": "infinite",
            "setStateOfDoc(address,uint8)": "infinite",
            "setTemplate(address,uint8)": "infinite",
            "sigPageOfDoc(address)": "infinite",
            "tempReadyFor(uint8)": "infinite",
            "template(uint8)": "2619",
            "tempsList()": "infinite"
        }
    }
}