{
    "contractName": "ShareholdersAgreement",
    "abi": [
        {
            "anonymous": false,
            "inputs": [
                {
                    "indexed": false,
                    "internalType": "uint256",
                    "name": "owner",
                    "type": "uint256"
                },
                {
                    "indexed": false,
                    "internalType": "address",
                    "name": "directKeeper",
                    "type": "address"
                },
                {
                    "indexed": false,
                    "internalType": "address",
                    "name": "regCenter",
                    "type": "address"
                },
                {
                    "indexed": false,
                    "internalType": "address",
                    "name": "generalKeeper",
                    "type": "address"
                }
            ],
            "name": "Init",
            "type": "event"
        },
        {
            "anonymous": false,
            "inputs": [],
            "name": "LockContents",
            "type": "event"
        },
        {
            "anonymous": false,
            "inputs": [
                {
                    "indexed": false,
                    "internalType": "address",
                    "name": "keeper",
                    "type": "address"
                }
            ],
            "name": "SetDirectKeeper",
            "type": "event"
        },
        {
            "anonymous": false,
            "inputs": [
                {
                    "indexed": false,
                    "internalType": "uint256",
                    "name": "acct",
                    "type": "uint256"
                }
            ],
            "name": "SetGeneralCounsel",
            "type": "event"
        },
        {
            "anonymous": false,
            "inputs": [
                {
                    "indexed": false,
                    "internalType": "address",
                    "name": "gk",
                    "type": "address"
                }
            ],
            "name": "SetGeneralKeeper",
            "type": "event"
        },
        {
            "anonymous": false,
            "inputs": [
                {
                    "indexed": false,
                    "internalType": "uint256",
                    "name": "acct",
                    "type": "uint256"
                }
            ],
            "name": "SetOwner",
            "type": "event"
        },
        {
            "anonymous": false,
            "inputs": [
                {
                    "indexed": false,
                    "internalType": "address",
                    "name": "rc",
                    "type": "address"
                }
            ],
            "name": "SetRegCenter",
            "type": "event"
        },
        {
            "anonymous": false,
            "inputs": [
                {
                    "indexed": false,
                    "internalType": "bool",
                    "name": "initPage",
                    "type": "bool"
                },
                {
                    "indexed": false,
                    "internalType": "uint48",
                    "name": "SigDeadline",
                    "type": "uint48"
                }
            ],
            "name": "SetSigDeadline",
            "type": "event"
        },
        {
            "inputs": [
                {
                    "internalType": "bytes32",
                    "name": "role",
                    "type": "bytes32"
                }
            ],
            "name": "abandonRole",
            "outputs": [],
            "stateMutability": "nonpayable",
            "type": "function"
        },
        {
            "inputs": [
                {
                    "internalType": "bool",
                    "name": "beBuyer",
                    "type": "bool"
                },
                {
                    "internalType": "uint256",
                    "name": "seqOfDeal",
                    "type": "uint256"
                },
                {
                    "internalType": "uint256",
                    "name": "acct",
                    "type": "uint256"
                }
            ],
            "name": "addBlank",
            "outputs": [],
            "stateMutability": "nonpayable",
            "type": "function"
        },
        {
            "inputs": [
                {
                    "internalType": "uint256",
                    "name": "rule",
                    "type": "uint256"
                }
            ],
            "name": "addRule",
            "outputs": [],
            "stateMutability": "nonpayable",
            "type": "function"
        },
        {
            "inputs": [
                {
                    "internalType": "uint256",
                    "name": "title",
                    "type": "uint256"
                }
            ],
            "name": "createTerm",
            "outputs": [
                {
                    "internalType": "address",
                    "name": "body",
                    "type": "address"
                }
            ],
            "stateMutability": "nonpayable",
            "type": "function"
        },
        {
            "inputs": [],
            "name": "established",
            "outputs": [
                {
                    "internalType": "bool",
                    "name": "flag",
                    "type": "bool"
                }
            ],
            "stateMutability": "view",
            "type": "function"
        },
        {
            "inputs": [],
            "name": "finalizeTerms",
            "outputs": [],
            "stateMutability": "nonpayable",
            "type": "function"
        },
        {
            "inputs": [],
            "name": "finalized",
            "outputs": [
                {
                    "internalType": "bool",
                    "name": "",
                    "type": "bool"
                }
            ],
            "stateMutability": "view",
            "type": "function"
        },
        {
            "inputs": [],
            "name": "getBookeeper",
            "outputs": [
                {
                    "internalType": "address",
                    "name": "",
                    "type": "address"
                }
            ],
            "stateMutability": "view",
            "type": "function"
        },
        {
            "inputs": [
                {
                    "internalType": "bool",
                    "name": "initPage",
                    "type": "bool"
                }
            ],
            "name": "getBuyers",
            "outputs": [
                {
                    "internalType": "uint256[]",
                    "name": "buyers",
                    "type": "uint256[]"
                }
            ],
            "stateMutability": "view",
            "type": "function"
        },
        {
            "inputs": [],
            "name": "getGeneralCounsel",
            "outputs": [
                {
                    "internalType": "uint40",
                    "name": "",
                    "type": "uint40"
                }
            ],
            "stateMutability": "view",
            "type": "function"
        },
        {
            "inputs": [],
            "name": "getOwner",
            "outputs": [
                {
                    "internalType": "uint40",
                    "name": "",
                    "type": "uint40"
                }
            ],
            "stateMutability": "view",
            "type": "function"
        },
        {
            "inputs": [
                {
                    "internalType": "bool",
                    "name": "initPage",
                    "type": "bool"
                }
            ],
            "name": "getParasOfPage",
            "outputs": [
                {
                    "components": [
                        {
                            "internalType": "uint40",
                            "name": "signer",
                            "type": "uint40"
                        },
                        {
                            "internalType": "uint48",
                            "name": "sigDate",
                            "type": "uint48"
                        },
                        {
                            "internalType": "uint64",
                            "name": "blocknumber",
                            "type": "uint64"
                        },
                        {
                            "internalType": "bytes32",
                            "name": "sigHash",
                            "type": "bytes32"
                        }
                    ],
                    "internalType": "struct SigsRepo.Signature",
                    "name": "",
                    "type": "tuple"
                }
            ],
            "stateMutability": "view",
            "type": "function"
        },
        {
            "inputs": [],
            "name": "getParties",
            "outputs": [
                {
                    "internalType": "uint256[]",
                    "name": "parties",
                    "type": "uint256[]"
                }
            ],
            "stateMutability": "view",
            "type": "function"
        },
        {
            "inputs": [
                {
                    "internalType": "uint256",
                    "name": "seq",
                    "type": "uint256"
                }
            ],
            "name": "getRule",
            "outputs": [
                {
                    "internalType": "uint256",
                    "name": "",
                    "type": "uint256"
                }
            ],
            "stateMutability": "view",
            "type": "function"
        },
        {
            "inputs": [
                {
                    "internalType": "bool",
                    "name": "initPage",
                    "type": "bool"
                }
            ],
            "name": "getSellers",
            "outputs": [
                {
                    "internalType": "uint256[]",
                    "name": "sellers",
                    "type": "uint256[]"
                }
            ],
            "stateMutability": "view",
            "type": "function"
        },
        {
            "inputs": [
                {
                    "internalType": "bool",
                    "name": "initPage",
                    "type": "bool"
                },
                {
                    "internalType": "uint256",
                    "name": "acct",
                    "type": "uint256"
                }
            ],
            "name": "getSigOfParty",
            "outputs": [
                {
                    "internalType": "uint256[]",
                    "name": "seqOfDeals",
                    "type": "uint256[]"
                },
                {
                    "components": [
                        {
                            "internalType": "uint40",
                            "name": "signer",
                            "type": "uint40"
                        },
                        {
                            "internalType": "uint48",
                            "name": "sigDate",
                            "type": "uint48"
                        },
                        {
                            "internalType": "uint64",
                            "name": "blocknumber",
                            "type": "uint64"
                        },
                        {
                            "internalType": "bytes32",
                            "name": "sigHash",
                            "type": "bytes32"
                        }
                    ],
                    "internalType": "struct SigsRepo.Signature",
                    "name": "sig",
                    "type": "tuple"
                }
            ],
            "stateMutability": "view",
            "type": "function"
        },
        {
            "inputs": [
                {
                    "internalType": "bool",
                    "name": "initPage",
                    "type": "bool"
                }
            ],
            "name": "getSigsOfPage",
            "outputs": [
                {
                    "components": [
                        {
                            "internalType": "uint40",
                            "name": "signer",
                            "type": "uint40"
                        },
                        {
                            "internalType": "uint48",
                            "name": "sigDate",
                            "type": "uint48"
                        },
                        {
                            "internalType": "uint64",
                            "name": "blocknumber",
                            "type": "uint64"
                        },
                        {
                            "internalType": "bytes32",
                            "name": "sigHash",
                            "type": "bytes32"
                        }
                    ],
                    "internalType": "struct SigsRepo.Signature[]",
                    "name": "sigsOfBuyer",
                    "type": "tuple[]"
                },
                {
                    "components": [
                        {
                            "internalType": "uint40",
                            "name": "signer",
                            "type": "uint40"
                        },
                        {
                            "internalType": "uint48",
                            "name": "sigDate",
                            "type": "uint48"
                        },
                        {
                            "internalType": "uint64",
                            "name": "blocknumber",
                            "type": "uint64"
                        },
                        {
                            "internalType": "bytes32",
                            "name": "sigHash",
                            "type": "bytes32"
                        }
                    ],
                    "internalType": "struct SigsRepo.Signature[]",
                    "name": "sigsOfSeller",
                    "type": "tuple[]"
                }
            ],
            "stateMutability": "view",
            "type": "function"
        },
        {
            "inputs": [
                {
                    "internalType": "uint256",
                    "name": "title",
                    "type": "uint256"
                }
            ],
            "name": "getTerm",
            "outputs": [
                {
                    "internalType": "address",
                    "name": "",
                    "type": "address"
                }
            ],
            "stateMutability": "view",
            "type": "function"
        },
        {
            "inputs": [
                {
                    "internalType": "bytes32",
                    "name": "role",
                    "type": "bytes32"
                },
                {
                    "internalType": "uint256",
                    "name": "acct",
                    "type": "uint256"
                }
            ],
            "name": "grantRole",
            "outputs": [],
            "stateMutability": "nonpayable",
            "type": "function"
        },
        {
            "inputs": [
                {
                    "internalType": "bytes32",
                    "name": "role",
                    "type": "bytes32"
                },
                {
                    "internalType": "uint256",
                    "name": "acct",
                    "type": "uint256"
                }
            ],
            "name": "hasRole",
            "outputs": [
                {
                    "internalType": "bool",
                    "name": "",
                    "type": "bool"
                }
            ],
            "stateMutability": "view",
            "type": "function"
        },
        {
            "inputs": [
                {
                    "internalType": "uint256",
                    "name": "seq",
                    "type": "uint256"
                }
            ],
            "name": "hasRule",
            "outputs": [
                {
                    "internalType": "bool",
                    "name": "",
                    "type": "bool"
                }
            ],
            "stateMutability": "view",
            "type": "function"
        },
        {
            "inputs": [
                {
                    "internalType": "uint256",
                    "name": "title",
                    "type": "uint256"
                }
            ],
            "name": "hasTitle",
            "outputs": [
                {
                    "internalType": "bool",
                    "name": "",
                    "type": "bool"
                }
            ],
            "stateMutability": "view",
            "type": "function"
        },
        {
            "inputs": [
                {
                    "internalType": "uint256",
                    "name": "owner",
                    "type": "uint256"
                },
                {
                    "internalType": "address",
                    "name": "directKeeper",
                    "type": "address"
                },
                {
                    "internalType": "address",
                    "name": "regCenter",
                    "type": "address"
                },
                {
                    "internalType": "address",
                    "name": "generalKeeper",
                    "type": "address"
                }
            ],
            "name": "init",
            "outputs": [],
            "stateMutability": "nonpayable",
            "type": "function"
        },
        {
            "inputs": [
                {
                    "internalType": "bool",
                    "name": "initPage",
                    "type": "bool"
                },
                {
                    "internalType": "uint256",
                    "name": "acct",
                    "type": "uint256"
                }
            ],
            "name": "isBuyer",
            "outputs": [
                {
                    "internalType": "bool",
                    "name": "flag",
                    "type": "bool"
                }
            ],
            "stateMutability": "view",
            "type": "function"
        },
        {
            "inputs": [
                {
                    "internalType": "bool",
                    "name": "initPage",
                    "type": "bool"
                },
                {
                    "internalType": "uint256",
                    "name": "acct",
                    "type": "uint256"
                }
            ],
            "name": "isParty",
            "outputs": [
                {
                    "internalType": "bool",
                    "name": "flag",
                    "type": "bool"
                }
            ],
            "stateMutability": "view",
            "type": "function"
        },
        {
            "inputs": [
                {
                    "internalType": "uint256",
                    "name": "acct",
                    "type": "uint256"
                }
            ],
            "name": "isParty",
            "outputs": [
                {
                    "internalType": "bool",
                    "name": "flag",
                    "type": "bool"
                }
            ],
            "stateMutability": "view",
            "type": "function"
        },
        {
            "inputs": [
                {
                    "internalType": "bool",
                    "name": "initPage",
                    "type": "bool"
                },
                {
                    "internalType": "uint256",
                    "name": "acct",
                    "type": "uint256"
                }
            ],
            "name": "isSeller",
            "outputs": [
                {
                    "internalType": "bool",
                    "name": "flag",
                    "type": "bool"
                }
            ],
            "stateMutability": "view",
            "type": "function"
        },
        {
            "inputs": [
                {
                    "internalType": "bool",
                    "name": "initPage",
                    "type": "bool"
                },
                {
                    "internalType": "uint256",
                    "name": "acct",
                    "type": "uint256"
                }
            ],
            "name": "isSigner",
            "outputs": [
                {
                    "internalType": "bool",
                    "name": "flag",
                    "type": "bool"
                }
            ],
            "stateMutability": "view",
            "type": "function"
        },
        {
            "inputs": [],
            "name": "lockContents",
            "outputs": [],
            "stateMutability": "nonpayable",
            "type": "function"
        },
        {
            "inputs": [],
            "name": "qtyOfRules",
            "outputs": [
                {
                    "internalType": "uint256",
                    "name": "",
                    "type": "uint256"
                }
            ],
            "stateMutability": "view",
            "type": "function"
        },
        {
            "inputs": [],
            "name": "qtyOfTerms",
            "outputs": [
                {
                    "internalType": "uint256",
                    "name": "",
                    "type": "uint256"
                }
            ],
            "stateMutability": "view",
            "type": "function"
        },
        {
            "inputs": [
                {
                    "internalType": "uint256",
                    "name": "seqOfDeal",
                    "type": "uint256"
                },
                {
                    "internalType": "uint256",
                    "name": "signer",
                    "type": "uint256"
                },
                {
                    "internalType": "uint48",
                    "name": "sigDate",
                    "type": "uint48"
                },
                {
                    "internalType": "bytes32",
                    "name": "sigHash",
                    "type": "bytes32"
                }
            ],
            "name": "regSig",
            "outputs": [
                {
                    "internalType": "bool",
                    "name": "flag",
                    "type": "bool"
                }
            ],
            "stateMutability": "nonpayable",
            "type": "function"
        },
        {
            "inputs": [
                {
                    "internalType": "uint256",
                    "name": "seq",
                    "type": "uint256"
                }
            ],
            "name": "removeRule",
            "outputs": [],
            "stateMutability": "nonpayable",
            "type": "function"
        },
        {
            "inputs": [
                {
                    "internalType": "uint256",
                    "name": "title",
                    "type": "uint256"
                }
            ],
            "name": "removeTerm",
            "outputs": [],
            "stateMutability": "nonpayable",
            "type": "function"
        },
        {
            "inputs": [
                {
                    "internalType": "bytes32",
                    "name": "role",
                    "type": "bytes32"
                }
            ],
            "name": "renounceRole",
            "outputs": [],
            "stateMutability": "nonpayable",
            "type": "function"
        },
        {
            "inputs": [
                {
                    "internalType": "bytes32",
                    "name": "role",
                    "type": "bytes32"
                },
                {
                    "internalType": "uint256",
                    "name": "acct",
                    "type": "uint256"
                }
            ],
            "name": "revokeRole",
            "outputs": [],
            "stateMutability": "nonpayable",
            "type": "function"
        },
        {
            "inputs": [],
            "name": "rules",
            "outputs": [
                {
                    "internalType": "uint256[]",
                    "name": "",
                    "type": "uint256[]"
                }
            ],
            "stateMutability": "view",
            "type": "function"
        },
        {
            "inputs": [
                {
                    "internalType": "address",
                    "name": "keeper",
                    "type": "address"
                }
            ],
            "name": "setDirectKeeper",
            "outputs": [],
            "stateMutability": "nonpayable",
            "type": "function"
        },
        {
            "inputs": [
                {
                    "internalType": "uint256",
                    "name": "acct",
                    "type": "uint256"
                }
            ],
            "name": "setGeneralCounsel",
            "outputs": [],
            "stateMutability": "nonpayable",
            "type": "function"
        },
        {
            "inputs": [
                {
                    "internalType": "uint256",
                    "name": "acct",
                    "type": "uint256"
                }
            ],
            "name": "setOwner",
            "outputs": [],
            "stateMutability": "nonpayable",
            "type": "function"
        },
        {
            "inputs": [
                {
                    "internalType": "bytes32",
                    "name": "role",
                    "type": "bytes32"
                },
                {
                    "internalType": "uint256",
                    "name": "acct",
                    "type": "uint256"
                }
            ],
            "name": "setRoleAdmin",
            "outputs": [],
            "stateMutability": "nonpayable",
            "type": "function"
        },
        {
            "inputs": [
                {
                    "internalType": "bool",
                    "name": "initPage",
                    "type": "bool"
                },
                {
                    "internalType": "uint48",
                    "name": "sigDeadline",
                    "type": "uint48"
                }
            ],
            "name": "setSigDeadline",
            "outputs": [],
            "stateMutability": "nonpayable",
            "type": "function"
        },
        {
            "inputs": [
                {
                    "internalType": "bool",
                    "name": "initPage",
                    "type": "bool"
                },
                {
                    "internalType": "uint256",
                    "name": "caller",
                    "type": "uint256"
                },
                {
                    "internalType": "bytes32",
                    "name": "sigHash",
                    "type": "bytes32"
                }
            ],
            "name": "signDoc",
            "outputs": [],
            "stateMutability": "nonpayable",
            "type": "function"
        },
        {
            "inputs": [
                {
                    "internalType": "uint256",
                    "name": "title",
                    "type": "uint256"
                },
                {
                    "internalType": "address",
                    "name": "ia",
                    "type": "address"
                },
                {
                    "internalType": "uint256",
                    "name": "seqOfDeal",
                    "type": "uint256"
                }
            ],
            "name": "termIsExempted",
            "outputs": [
                {
                    "internalType": "bool",
                    "name": "",
                    "type": "bool"
                }
            ],
            "stateMutability": "view",
            "type": "function"
        },
        {
            "inputs": [
                {
                    "internalType": "uint256",
                    "name": "title",
                    "type": "uint256"
                },
                {
                    "internalType": "address",
                    "name": "ia",
                    "type": "address"
                },
                {
                    "internalType": "uint256",
                    "name": "seqOfDeal",
                    "type": "uint256"
                }
            ],
            "name": "termIsTriggered",
            "outputs": [
                {
                    "internalType": "bool",
                    "name": "",
                    "type": "bool"
                }
            ],
            "stateMutability": "view",
            "type": "function"
        },
        {
            "inputs": [],
            "name": "titles",
            "outputs": [
                {
                    "internalType": "uint256[]",
                    "name": "",
                    "type": "uint256[]"
                }
            ],
            "stateMutability": "view",
            "type": "function"
        }
    ],
    "bytecode": "608060405234801561001057600080fd5b5061400c806100206000396000f3fe608060405234801561001057600080fd5b506004361061028a5760003560e01c80638041494e1161015c578063b3f05b97116100ce578063d70da38b11610087578063d70da38b146105d1578063dc890da9146105e4578063eb1a79f4146105f7578063ed2110231461060a578063f045a76914610612578063f2724eb21461061a57600080fd5b8063b3f05b9714610567578063b69046e81461057b578063bc3ffc701461058e578063cb2123e414610596578063ccb2f415146105a9578063d0c504b0146105c957600080fd5b80638c77db08116101205780638c77db081461050b578063a8311aa81461051e578063a959c69c14610526578063a9acd94414610539578063ac06784314610541578063b11523351461055457600080fd5b80638041494e146104c2578063893d20e8146104d55780638969d43a146104dd5780638bb9c5bf146104e55780638c5f9170146104f857600080fd5b8063460a0d0b1161020057806351b171a3116101b957806351b171a31461044e57806352f6747a146104615780635d24f35b146104765780636be8496f14610489578063717654491461049c5780637e063c5a146104af57600080fd5b8063460a0d0b146103cc5780634844f541146103df57806348462037146103e75780634a14beb11461041557806350a31ef9146104285780635171ebd41461043b57600080fd5b806325abe7901161025257806325abe790146103005780632e4c9cd5146103215780633436731314610334578063346ba94114610355578063379ef4a6146103965780633da9a600146103b957600080fd5b8063103f6edd1461028f5780631958ac5a146102b257806319d61ad9146102c75780631b6ea9f9146102da578063241f4aaa146102ed575b600080fd5b61029761062d565b60405164ffffffffff90911681526020015b60405180910390f35b6102c56102c03660046134be565b6106b9565b005b6102c56102d53660046134f3565b610841565b6102c56102e83660046134f3565b6108d5565b6102c56102fb366004613515565b6108fa565b61031361030e36600461352e565b610a6a565b6040516102a99291906135ce565b6102c561032f366004613607565b610b1c565b610347610342366004613640565b610d1f565b6040516102a992919061369c565b61037e610363366004613515565b6000908152600e60205260409020546001600160a01b031690565b6040516001600160a01b0390911681526020016102a9565b6103a96103a4366004613515565b610dfe565b60405190151581526020016102a9565b6102c56103c7366004613515565b610e92565b6103a96103da366004613640565b610fa4565b6103a9610fc7565b6104076103f5366004613515565b60009081526011602052604090205490565b6040519081526020016102a9565b6102c5610423366004613515565b611198565b6102c56104363660046134be565b611388565b6102c56104493660046134f3565b61149d565b6103a961045c366004613640565b6114c2565b6104696115e4565b6040516102a991906136be565b6103a96104843660046136e6565b61166f565b6102c561049736600461371e565b6117bd565b6103a96104aa366004613515565b61186f565b6103a96104bd3660046134f3565b6118b1565b6102c56104d0366004613515565b6118fa565b610297611adf565b6102c5611b1a565b6102c56104f3366004613515565b611d75565b6103a9610506366004613515565b611dce565b61037e610519366004613515565b611fc0565b6104696123c9565b61046961053436600461352e565b6125a9565b6104696126c5565b6103a961054f3660046136e6565b612700565b6103a9610562366004613640565b612771565b60028054600160f01b900460ff16146103a9565b6102c5610589366004613515565b6127f6565b610407612973565b6103a96105a4366004613640565b6129fa565b6105bc6105b736600461352e565b612a7e565b6040516102a9919061373b565b610407612b55565b6102c56105df366004613515565b612b90565b6102c56105f2366004613749565b612d00565b6103a961060536600461379c565b612de3565b61037e612f2a565b6102c5612fb0565b61046961062836600461352e565b6131ce565b60405163e8c0cc1d60e01b81526002600482015260009073__$364aad554dc80380f414546becdd2c1584$__9063e8c0cc1d906024015b60206040518083038186803b15801561067c57600080fd5b505af4158015610690573d6000803e3d6000fd5b505050506040513d601f19601f820116820180604052508101906106b491906137f5565b905090565b6001546040516335d2155560e11b81523360048201526001600160a01b0390911690636ba42aaa9060240160206040518083038186803b1580156106fc57600080fd5b505afa158015610710573d6000803e3d6000fd5b505050506040513d601f19601f820116820180604052508101906107349190613810565b6107595760405162461bcd60e51b81526004016107509061382d565b60405180910390fd5b82156107f6576040516368c2325360e01b8152600481810152602481018390526044810182905273__$47b88465a20692378cf12e8e0c338f01dd$__906368c23253906064015b60206040518083038186803b1580156107b857600080fd5b505af41580156107cc573d6000803e3d6000fd5b505050506040513d601f19601f820116820180604052508101906107f09190613810565b50505050565b6040516368c2325360e01b815260096004820152602481018390526044810182905273__$47b88465a20692378cf12e8e0c338f01dd$__906368c23253906064016107a0565b505050565b73__$364aad554dc80380f414546becdd2c1584$__6382daafaa600284610866613245565b6040516001600160e01b031960e086901b1681526004810193909352602483019190915264ffffffffff166044820152606481018490526084015b60006040518083038186803b1580156108b957600080fd5b505af41580156108cd573d6000803e3d6000fd5b505050505050565b73__$364aad554dc80380f414546becdd2c1584$__636320d75e600284610866613245565b73__$364aad554dc80380f414546becdd2c1584$__63a8ef95ac6002684174746f726e65797360b81b61092b613245565b6040516001600160e01b031960e086901b1681526004810193909352602483019190915264ffffffffff16604482015260640160206040518083038186803b15801561097657600080fd5b505af415801561098a573d6000803e3d6000fd5b505050506040513d601f19601f820116820180604052508101906109ae9190613810565b6109ca5760405162461bcd60e51b815260040161075090613858565b60f081901c60008181526011602052604090819020839055516392f13c3f60e01b8152601260048201526024810182905273__$8c1a4844a0a0988ea2454cf87145a95df1$__906392f13c3f9060440160206040518083038186803b158015610a3257600080fd5b505af4158015610a46573d6000803e3d6000fd5b505050506040513d601f19601f8201168201806040525081019061083c9190613810565b6060808215610b1357600460005b6005020173__$47b88465a20692378cf12e8e0c338f01dd$__63c018ec8790916040518263ffffffff1660e01b8152600401610ab691815260200190565b60006040518083038186803b158015610ace57600080fd5b505af4158015610ae2573d6000803e3d6000fd5b505050506040513d6000823e601f3d908101601f19168201604052610b0a9190810190613a49565b91509150915091565b60046001610a78565b73__$364aad554dc80380f414546becdd2c1584$__63a8ef95ac6002684174746f726e65797360b81b610b4d613245565b6040516001600160e01b031960e086901b1681526004810193909352602483019190915264ffffffffff16604482015260640160206040518083038186803b158015610b9857600080fd5b505af4158015610bac573d6000803e3d6000fd5b505050506040513d601f19601f82011682018060405250810190610bd09190613810565b610bec5760405162461bcd60e51b815260040161075090613858565b8115610c6757604051635284fe6760e11b815260048181015265ffffffffffff8216602482015273__$47b88465a20692378cf12e8e0c338f01dd$__9063a509fcce9060440160006040518083038186803b158015610c4a57600080fd5b505af4158015610c5e573d6000803e3d6000fd5b50505050610cd9565b604051635284fe6760e11b81526009600482015265ffffffffffff8216602482015273__$47b88465a20692378cf12e8e0c338f01dd$__9063a509fcce9060440160006040518083038186803b158015610cc057600080fd5b505af4158015610cd4573d6000803e3d6000fd5b505050505b60408051831515815265ffffffffffff831660208201527f523844b7b23204192ed69d6efc62131f2a86a16ecf1326fd0084e459b31cb62d910160405180910390a15050565b604080516080810182526000808252602082018190529181018290526060818101929092528315610dee57600460005b604051630b5b0ad560e01b81526005919091029190910160048201526024810184905273__$47b88465a20692378cf12e8e0c338f01dd$__90630b5b0ad59060440160006040518083038186803b158015610da957600080fd5b505af4158015610dbd573d6000803e3d6000fd5b505050506040513d6000823e601f3d908101601f19168201604052610de59190810190613b07565b91509150610df7565b60046001610d4f565b9250929050565b604051633f5f77cd60e01b8152601260048201526024810182905260009073__$8c1a4844a0a0988ea2454cf87145a95df1$__90633f5f77cd906044015b60206040518083038186803b158015610e5457600080fd5b505af4158015610e68573d6000803e3d6000fd5b505050506040513d601f19601f82011682018060405250810190610e8c9190613810565b92915050565b604051633b11adbf60e21b81526002600482015233602482015273__$364aad554dc80380f414546becdd2c1584$__9063ec46b6fc9060440160206040518083038186803b158015610ee357600080fd5b505af4158015610ef7573d6000803e3d6000fd5b505050506040513d601f19601f82011682018060405250810190610f1b9190613810565b610f375760405162461bcd60e51b815260040161075090613b55565b60405163cc99e11b60e01b8152600260048201526024810182905273__$364aad554dc80380f414546becdd2c1584$__9063cc99e11b9060440160006040518083038186803b158015610f8957600080fd5b505af4158015610f9d573d6000803e3d6000fd5b5050505050565b6000610fb08383612771565b80610fc05750610fc083836114c2565b9392505050565b60405163c2b46a8560e01b8152600a6004820152600090819073__$8c1a4844a0a0988ea2454cf87145a95df1$__9063c2b46a859060240160206040518083038186803b15801561101757600080fd5b505af415801561102b573d6000803e3d6000fd5b505050506040513d601f19601f8201168201806040525081019061104f9190613b9b565b116110d7576040516318a7841360e11b815260048181015273__$47b88465a20692378cf12e8e0c338f01dd$__9063314f0826906024015b60206040518083038186803b15801561109f57600080fd5b505af41580156110b3573d6000803e3d6000fd5b505050506040513d601f19601f820116820180604052508101906106b49190613810565b6040516318a7841360e11b81526009600482015273__$47b88465a20692378cf12e8e0c338f01dd$__9063314f08269060240160206040518083038186803b15801561112257600080fd5b505af4158015611136573d6000803e3d6000fd5b505050506040513d601f19601f8201168201806040525081019061115a9190613810565b80156106b457506040516318a7841360e11b815260048181015273__$47b88465a20692378cf12e8e0c338f01dd$__9063314f082690602401611087565b604051633b11adbf60e21b81526002600482015233602482015273__$364aad554dc80380f414546becdd2c1584$__9063ec46b6fc9060440160206040518083038186803b1580156111e957600080fd5b505af41580156111fd573d6000803e3d6000fd5b505050506040513d601f19601f820116820180604052508101906112219190613810565b806112c6575073__$364aad554dc80380f414546becdd2c1584$__63fe271086600261124b613245565b6040516001600160e01b031960e085901b168152600481019290925264ffffffffff16602482015260440160206040518083038186803b15801561128e57600080fd5b505af41580156112a2573d6000803e3d6000fd5b505050506040513d601f19601f820116820180604052508101906112c69190613810565b6112e25760405162461bcd60e51b815260040161075090613bb4565b604051632725ebef60e21b8152600260048201526024810182905273__$364aad554dc80380f414546becdd2c1584$__90639c97afbc9060440160006040518083038186803b15801561133457600080fd5b505af4158015611348573d6000803e3d6000fd5b505050507ff2735f34b69be1e6342dea95f9162f84d0db925fab655ca9f1f312ac8cbfc99d8160405161137d91815260200190565b60405180910390a150565b6001546040516335d2155560e11b81523360048201526001600160a01b0390911690636ba42aaa9060240160206040518083038186803b1580156113cb57600080fd5b505afa1580156113df573d6000803e3d6000fd5b505050506040513d601f19601f820116820180604052508101906114039190613810565b61141f5760405162461bcd60e51b81526004016107509061382d565b604051630dfb57ab60e11b8152600960048201528315156024820152604481018390526064810182905273__$47b88465a20692378cf12e8e0c338f01dd$__90631bf6af569060840160006040518083038186803b15801561148057600080fd5b505af4158015611494573d6000803e3d6000fd5b50505050505050565b73__$364aad554dc80380f414546becdd2c1584$__63ee98b313600284610866613245565b60008261155957604051633f5f77cd60e01b8152600c60048201526024810183905273__$8c1a4844a0a0988ea2454cf87145a95df1$__90633f5f77cd906044015b60206040518083038186803b15801561151c57600080fd5b505af4158015611530573d6000803e3d6000fd5b505050506040513d601f19601f820116820180604052508101906115549190613810565b610fc0565b604051633f5f77cd60e01b8152600760048201526024810183905273__$8c1a4844a0a0988ea2454cf87145a95df1$__90633f5f77cd906044015b60206040518083038186803b1580156115ac57600080fd5b505af41580156115c0573d6000803e3d6000fd5b505050506040513d601f19601f82011682018060405250810190610fc09190613810565b60405163034306e160e21b81526012600482015260609073__$8c1a4844a0a0988ea2454cf87145a95df1$__90630d0c1b84906024015b60006040518083038186803b15801561163357600080fd5b505af4158015611647573d6000803e3d6000fd5b505050506040513d6000823e601f3d908101601f191682016040526106b49190810190613c0a565b60008361167b8161186f565b6116975760405162461bcd60e51b815260040161075090613c46565b6116a2858585612700565b6116af57600191506117b5565b6000858152600e6020526040908190205490516320bf56eb60e21b8152600481018590526001600160a01b039182169163237006e09187918216906382fd5bac906024015b6101e06040518083038186803b15801561170d57600080fd5b505afa158015611721573d6000803e3d6000fd5b505050506040513d601f19601f820116820180604052508101906117459190613d59565b6040518363ffffffff1660e01b8152600401611762929190613e4d565b60206040518083038186803b15801561177a57600080fd5b505afa15801561178e573d6000803e3d6000fd5b505050506040513d601f19601f820116820180604052508101906117b29190613810565b91505b509392505050565b604051630f07232560e01b8152600260048201523360248201526001600160a01b038216604482015273__$364aad554dc80380f414546becdd2c1584$__90630f0723259060640160006040518083038186803b15801561181d57600080fd5b505af4158015611831573d6000803e3d6000fd5b50506040516001600160a01b03841681527fe435cbeab64e4eae6497b9d8289704bd709d624a80704ef3ca9af777534bc6ec9250602001905061137d565b604051633f5f77cd60e01b8152600f60048201526024810182905260009073__$8c1a4844a0a0988ea2454cf87145a95df1$__90633f5f77cd90604401610e3c565b604051632a3be56b60e21b815260026004820152602481018390526044810182905260009073__$364aad554dc80380f414546becdd2c1584$__9063a8ef95ac90606401611594565b604051633b11adbf60e21b81526002600482015233602482015273__$364aad554dc80380f414546becdd2c1584$__9063ec46b6fc9060440160206040518083038186803b15801561194b57600080fd5b505af415801561195f573d6000803e3d6000fd5b505050506040513d601f19601f820116820180604052508101906119839190613810565b80611a28575073__$364aad554dc80380f414546becdd2c1584$__63fe27108660026119ad613245565b6040516001600160e01b031960e085901b168152600481019290925264ffffffffff16602482015260440160206040518083038186803b1580156119f057600080fd5b505af4158015611a04573d6000803e3d6000fd5b505050506040513d601f19601f82011682018060405250810190611a289190613810565b611a445760405162461bcd60e51b815260040161075090613bb4565b60405163b6e38a2960e01b8152600260048201526024810182905273__$364aad554dc80380f414546becdd2c1584$__9063b6e38a299060440160006040518083038186803b158015611a9657600080fd5b505af4158015611aaa573d6000803e3d6000fd5b505050507f8b6f40f36b4ae8cc5f55e895036457c43da4ab1f80f58c46f5ff0d72a650033b8160405161137d91815260200190565b60405163987ad15360e01b81526002600482015260009073__$364aad554dc80380f414546becdd2c1584$__9063987ad15390602401610664565b604051633b11adbf60e21b81526002600482015233602482015273__$364aad554dc80380f414546becdd2c1584$__9063ec46b6fc9060440160206040518083038186803b158015611b6b57600080fd5b505af4158015611b7f573d6000803e3d6000fd5b505050506040513d601f19601f82011682018060405250810190611ba39190613810565b611bbf5760405162461bcd60e51b815260040161075090613b55565b60405163c2b46a8560e01b8152600f600482015260009073__$8c1a4844a0a0988ea2454cf87145a95df1$__9063c2b46a859060240160206040518083038186803b158015611c0d57600080fd5b505af4158015611c21573d6000803e3d6000fd5b505050506040513d601f19601f82011682018060405250810190611c459190613b9b565b905060005b81811015611d6957604051630ef6982f60e41b8152600f600482015260248101829052600e9060009073__$8c1a4844a0a0988ea2454cf87145a95df1$__9063ef6982f09060440160206040518083038186803b158015611caa57600080fd5b505af4158015611cbe573d6000803e3d6000fd5b505050506040513d601f19601f82011682018060405250810190611ce29190613b9b565b815260200190815260200160002060009054906101000a90046001600160a01b03166001600160a01b031663f045a7696040518163ffffffff1660e01b8152600401600060405180830381600087803b158015611d3e57600080fd5b505af1158015611d52573d6000803e3d6000fd5b505050508080611d6190613f6b565b915050611c4a565b50611d72612fb0565b50565b6000611d7f613245565b60405163cc0d511b60e01b8152600260048201526024810184905264ffffffffff8216604482015290915073__$364aad554dc80380f414546becdd2c1584$__9063cc0d511b906064016108a1565b604051633f5f77cd60e01b8152600560048201526024810182905260009073__$8c1a4844a0a0988ea2454cf87145a95df1$__90633f5f77cd9060440160206040518083038186803b158015611e2357600080fd5b505af4158015611e37573d6000803e3d6000fd5b505050506040513d601f19601f82011682018060405250810190611e5b9190613810565b80611eeb5750604051633f5f77cd60e01b8152600760048201526024810183905273__$8c1a4844a0a0988ea2454cf87145a95df1$__90633f5f77cd9060440160206040518083038186803b158015611eb357600080fd5b505af4158015611ec7573d6000803e3d6000fd5b505050506040513d601f19601f82011682018060405250810190611eeb9190613810565b80611f7b5750604051633f5f77cd60e01b8152600a60048201526024810183905273__$8c1a4844a0a0988ea2454cf87145a95df1$__90633f5f77cd9060440160206040518083038186803b158015611f4357600080fd5b505af4158015611f57573d6000803e3d6000fd5b505050506040513d601f19601f82011682018060405250810190611f7b9190613810565b80610e8c5750604051633f5f77cd60e01b8152600c60048201526024810183905273__$8c1a4844a0a0988ea2454cf87145a95df1$__90633f5f77cd90604401610e3c565b600073__$364aad554dc80380f414546becdd2c1584$__6331a349c06002611fe6613245565b6040516001600160e01b031960e085901b168152600481019290925264ffffffffff16602482015260440160206040518083038186803b15801561202957600080fd5b505af415801561203d573d6000803e3d6000fd5b505050506040513d601f19601f820116820180604052508101906120619190613810565b6120ad5760405162461bcd60e51b815260206004820152601b60248201527f41432e6f67633a206e6f742067656e6572616c20636f756e73656c00000000006044820152606401610750565b816120b661329f565b6001600160a01b0316638a4640da826040518263ffffffff1660e01b81526004016120e391815260200190565b60206040518083038186803b1580156120fb57600080fd5b505afa15801561210f573d6000803e3d6000fd5b505050506040513d601f19601f820116820180604052508101906121339190613810565b61218b5760405162461bcd60e51b8152602060048201526024808201527f5348412e74656d705265616479466f723a2054656d706c617465204e4f5420726044820152636561647960e01b6064820152608401610750565b61221861219661329f565b6001600160a01b031663e71d8758856040518263ffffffff1660e01b81526004016121c391815260200190565b60206040518083038186803b1580156121db57600080fd5b505afa1580156121ef573d6000803e3d6000fd5b505050506040513d601f19601f820116820180604052508101906122139190613f94565b6132f8565b91506000612224611adf565b9050600061223061062d565b60005460015460405163dc890da960e01b815264ffffffffff861660048201523060248201526001600160a01b039283166044820152908216606482015291925085169063dc890da990608401600060405180830381600087803b15801561229757600080fd5b505af11580156122ab573d6000803e3d6000fd5b5050604051634a14beb160e01b815264ffffffffff841660048201526001600160a01b0387169250634a14beb19150602401600060405180830381600087803b1580156122f757600080fd5b505af115801561230b573d6000803e3d6000fd5b5050506000868152600e60205260409081902080546001600160a01b0319166001600160a01b038816179055516392f13c3f60e01b8152600f60048201526024810187905273__$8c1a4844a0a0988ea2454cf87145a95df1$__91506392f13c3f9060440160206040518083038186803b15801561238857600080fd5b505af415801561239c573d6000803e3d6000fd5b505050506040513d601f19601f820116820180604052508101906123c09190613810565b50505050919050565b606060006123d760016125a9565b905073__$ccb256085f563a601d001f7c9087d87207$__63088b9bf6826123fe60006125a9565b6040518363ffffffff1660e01b815260040161241b929190613fb1565b60006040518083038186803b15801561243357600080fd5b505af4158015612447573d6000803e3d6000fd5b505050506040513d6000823e601f3d908101601f1916820160405261246f9190810190613c0a565b50600061247c60016131ce565b905073__$ccb256085f563a601d001f7c9087d87207$__63088b9bf6826124a360006131ce565b6040518363ffffffff1660e01b81526004016124c0929190613fb1565b60006040518083038186803b1580156124d857600080fd5b505af41580156124ec573d6000803e3d6000fd5b505050506040513d6000823e601f3d908101601f191682016040526125149190810190613c0a565b50604051630445cdfb60e11b815273__$ccb256085f563a601d001f7c9087d87207$__9063088b9bf69061254e9085908590600401613fb1565b60006040518083038186803b15801561256657600080fd5b505af415801561257a573d6000803e3d6000fd5b505050506040513d6000823e601f3d908101601f191682016040526125a29190810190613c0a565b9250505090565b60608161263d5760405163034306e160e21b81526005600482015273__$8c1a4844a0a0988ea2454cf87145a95df1$__90630d0c1b84906024015b60006040518083038186803b1580156125fc57600080fd5b505af4158015612610573d6000803e3d6000fd5b505050506040513d6000823e601f3d908101601f191682016040526126389190810190613c0a565b610e8c565b60405163034306e160e21b81526005600482015273__$8c1a4844a0a0988ea2454cf87145a95df1$__90630d0c1b84906024015b60006040518083038186803b15801561268957600080fd5b505af415801561269d573d6000803e3d6000fd5b505050506040513d6000823e601f3d908101601f19168201604052610e8c9190810190613c0a565b60405163034306e160e21b8152600f600482015260609073__$8c1a4844a0a0988ea2454cf87145a95df1$__90630d0c1b849060240161161b565b60008361270c8161186f565b6127285760405162461bcd60e51b815260040161075090613c46565b6000858152600e6020526040908190205490516320bf56eb60e21b8152600481018590526001600160a01b03918216916306c4b2089187918216906382fd5bac906024016116f4565b6000826127b757604051633f5f77cd60e01b8152600a60048201526024810183905273__$8c1a4844a0a0988ea2454cf87145a95df1$__90633f5f77cd90604401611504565b604051633f5f77cd60e01b8152600560048201526024810183905273__$8c1a4844a0a0988ea2454cf87145a95df1$__90633f5f77cd90604401611594565b73__$364aad554dc80380f414546becdd2c1584$__63a8ef95ac6002684174746f726e65797360b81b612827613245565b6040516001600160e01b031960e086901b1681526004810193909352602483019190915264ffffffffff16604482015260640160206040518083038186803b15801561287257600080fd5b505af4158015612886573d6000803e3d6000fd5b505050506040513d601f19601f820116820180604052508101906128aa9190613810565b6128c65760405162461bcd60e51b815260040161075090613858565b6040516392fd02df60e01b8152600f60048201526024810182905273__$8c1a4844a0a0988ea2454cf87145a95df1$__906392fd02df9060440160206040518083038186803b15801561291857600080fd5b505af415801561292c573d6000803e3d6000fd5b505050506040513d601f19601f820116820180604052508101906129509190613810565b15611d72576000908152600e6020526040902080546001600160a01b0319169055565b60405163c2b46a8560e01b8152600f600482015260009073__$8c1a4844a0a0988ea2454cf87145a95df1$__9063c2b46a85906024015b60206040518083038186803b1580156129c257600080fd5b505af41580156129d6573d6000803e3d6000fd5b505050506040513d601f19601f820116820180604052508101906106b49190613b9b565b600082612a40576040516324d431a360e01b8152600960048201526024810183905273__$47b88465a20692378cf12e8e0c338f01dd$__906324d431a390604401611504565b6040516324d431a360e01b81526004818101526024810183905273__$47b88465a20692378cf12e8e0c338f01dd$__906324d431a390604401611594565b60408051608081018252600080825260208201819052918101829052606081019190915281612ad6576000805260096020527fec8156718a8372b1db44bb411437d0870f3e3790d4a08526d024ce1b0b668f6d612b01565b6000805260046020527f17ef568e3e12ab5b9c7254a8d58478811de00f9e6eb34345acd53bf8fd09d3ee5b60408051608081018252825464ffffffffff8116825265010000000000810465ffffffffffff166020830152600160581b90046001600160401b031691810191909152600190910154606082015292915050565b60405163c2b46a8560e01b81526012600482015260009073__$8c1a4844a0a0988ea2454cf87145a95df1$__9063c2b46a85906024016129aa565b73__$364aad554dc80380f414546becdd2c1584$__63a8ef95ac6002684174746f726e65797360b81b612bc1613245565b6040516001600160e01b031960e086901b1681526004810193909352602483019190915264ffffffffff16604482015260640160206040518083038186803b158015612c0c57600080fd5b505af4158015612c20573d6000803e3d6000fd5b505050506040513d601f19601f82011682018060405250810190612c449190613810565b612c605760405162461bcd60e51b815260040161075090613858565b6040516392fd02df60e01b8152601260048201526024810182905273__$8c1a4844a0a0988ea2454cf87145a95df1$__906392fd02df9060440160206040518083038186803b158015612cb257600080fd5b505af4158015612cc6573d6000803e3d6000fd5b505050506040513d601f19601f82011682018060405250810190612cea9190613810565b15611d7257600090815260116020526040812055565b612d098261334a565b612d12816133f9565b604051636cdd0edf60e11b815260026004820152602481018590526001600160a01b038416604482015273__$364aad554dc80380f414546becdd2c1584$__9063d9ba1dbe9060640160006040518083038186803b158015612d7357600080fd5b505af4158015612d87573d6000803e3d6000fd5b5050604080518781526001600160a01b038781166020830152868116828401528516606082015290517f3abb2418c66fe32ba9c883030a75ce583971d9af9192b9b74e44e67c5e6c8c1f9350908190036080019150a150505050565b6001546040516335d2155560e11b81523360048201526000916001600160a01b031690636ba42aaa9060240160206040518083038186803b158015612e2757600080fd5b505afa158015612e3b573d6000803e3d6000fd5b505050506040513d601f19601f82011682018060405250810190612e5f9190613810565b612e7b5760405162461bcd60e51b81526004016107509061382d565b60405163031559a160e01b815260096004820152602481018690526044810185905265ffffffffffff841660648201526084810183905273__$47b88465a20692378cf12e8e0c338f01dd$__9063031559a19060a40160206040518083038186803b158015612ee957600080fd5b505af4158015612efd573d6000803e3d6000fd5b505050506040513d601f19601f82011682018060405250810190612f219190613810565b95945050505050565b604051633c3e56c160e11b81526002600482015260009073__$364aad554dc80380f414546becdd2c1584$__9063787cad829060240160206040518083038186803b158015612f7857600080fd5b505af4158015612f8c573d6000803e3d6000fd5b505050506040513d601f19601f820116820180604052508101906106b49190613f94565b604051633b11adbf60e21b81526002600482015233602482015273__$364aad554dc80380f414546becdd2c1584$__9063ec46b6fc9060440160206040518083038186803b15801561300157600080fd5b505af4158015613015573d6000803e3d6000fd5b505050506040513d601f19601f820116820180604052508101906130399190613810565b6130555760405162461bcd60e51b815260040161075090613b55565b600254600160f01b900460ff166001146130b15760405162461bcd60e51b815260206004820181905260248201527f41432e6f6e6c7950656e64696e673a20446f632069732066696e616c697a65646044820152606401610750565b60405163cc99e11b60e01b815260026004820152684174746f726e65797360b81b602482015273__$364aad554dc80380f414546becdd2c1584$__9063cc99e11b9060440160006040518083038186803b15801561310e57600080fd5b505af4158015613122573d6000803e3d6000fd5b5050604051632725ebef60e21b8152600260048201526000602482015273__$364aad554dc80380f414546becdd2c1584$__9250639c97afbc915060440160006040518083038186803b15801561317857600080fd5b505af415801561318c573d6000803e3d6000fd5b50506002805460ff60f01b1916600160f11b17905550506040517f35012b512309c322acf68632cd6cb702ff0e1d776fbe9394e38ffc13b434fe7590600090a1565b60608161320d5760405163034306e160e21b8152600c600482015273__$8c1a4844a0a0988ea2454cf87145a95df1$__90630d0c1b84906024016125e4565b60405163034306e160e21b81526007600482015273__$8c1a4844a0a0988ea2454cf87145a95df1$__90630d0c1b8490602401612671565b60008054604051634de835e760e11b81523360048201526001600160a01b0390911690639bd06bce90602401602060405180830381600087803b15801561328b57600080fd5b505af1158015610690573d6000803e3d6000fd5b60015460405163e0ff5b8b60e01b8152600360048201526000916001600160a01b03169063e0ff5b8b9060240160206040518083038186803b1580156132e457600080fd5b505afa158015612f8c573d6000803e3d6000fd5b6000808260601b9050604051733d602d80600a3d3981f3363d3d373d3d3d363d7360601b81528160148201526e5af43d82803e903d91602b57fd5bf360881b60288201526037816000f0949350505050565b6000546001600160a01b03161561339b5760405162461bcd60e51b815260206004820152601560248201527430b63932b0b23c9039b2ba103932b3a1b2b73a32b960591b6044820152606401610750565b6040516001600160a01b03821681527f318da6c7624c71cbc0afe346c9d8827f119d0ecefb241a7b0c87217a076a8e029060200160405180910390a1600080546001600160a01b0319166001600160a01b0392909216919091179055565b6001546001600160a01b0316156134525760405162461bcd60e51b815260206004820152601960248201527f616c7265616479207365742067656e6572616c4b6565706572000000000000006044820152606401610750565b6040516001600160a01b03821681527fe513d3e0f0d0a3877029dcc588748679a7a3450ec1ec7ed56d96bd012c3e61aa9060200160405180910390a1600180546001600160a01b0319166001600160a01b0392909216919091179055565b8015158114611d7257600080fd5b6000806000606084860312156134d357600080fd5b83356134de816134b0565b95602085013595506040909401359392505050565b6000806040838503121561350657600080fd5b50508035926020909101359150565b60006020828403121561352757600080fd5b5035919050565b60006020828403121561354057600080fd5b8135610fc0816134b0565b64ffffffffff815116825265ffffffffffff60208201511660208301526001600160401b036040820151166040830152606081015160608301525050565b600081518084526020808501945080840160005b838110156135c3576135b087835161354b565b608096909601959082019060010161359d565b509495945050505050565b6040815260006135e16040830185613589565b82810360208401526117b28185613589565b65ffffffffffff81168114611d7257600080fd5b6000806040838503121561361a57600080fd5b8235613625816134b0565b91506020830135613635816135f3565b809150509250929050565b6000806040838503121561365357600080fd5b823561365e816134b0565b946020939093013593505050565b600081518084526020808501945080840160005b838110156135c357815187529582019590820190600101613680565b60a0815260006136af60a083018561366c565b9050610fc0602083018461354b565b602081526000610fc0602083018461366c565b6001600160a01b0381168114611d7257600080fd5b6000806000606084860312156136fb57600080fd5b83359250602084013561370d816136d1565b929592945050506040919091013590565b60006020828403121561373057600080fd5b8135610fc0816136d1565b60808101610e8c828461354b565b6000806000806080858703121561375f57600080fd5b843593506020850135613771816136d1565b92506040850135613781816136d1565b91506060850135613791816136d1565b939692955090935050565b600080600080608085870312156137b257600080fd5b843593506020850135925060408501356137cb816135f3565b9396929550929360600135925050565b805164ffffffffff811681146137f057600080fd5b919050565b60006020828403121561380757600080fd5b610fc0826137db565b60006020828403121561382257600080fd5b8151610fc0816134b0565b60208082526011908201527020a19737b59d103737ba1025b2b2b832b960791b604082015260600190565b60208082526013908201527241432e6f743a206e6f74204174746f726e657960681b604082015260600190565b634e487b7160e01b600052604160045260246000fd5b604051606081016001600160401b03811182821017156138bd576138bd613885565b60405290565b60405161012081016001600160401b03811182821017156138bd576138bd613885565b604051601f8201601f191681016001600160401b038111828210171561390e5761390e613885565b604052919050565b60006001600160401b0382111561392f5761392f613885565b5060051b60200190565b80516137f0816135f3565b80516001600160401b03811681146137f057600080fd5b60006080828403121561396d57600080fd5b604051608081018181106001600160401b038211171561398f5761398f613885565b60405290508061399e836137db565b815260208301516139ae816135f3565b60208201526139bf60408401613944565b6040820152606083015160608201525092915050565b600082601f8301126139e657600080fd5b815160206139fb6139f683613916565b6138e6565b82815260079290921b84018101918181019086841115613a1a57600080fd5b8286015b84811015613a3e57613a30888261395b565b835291830191608001613a1e565b509695505050505050565b60008060408385031215613a5c57600080fd5b82516001600160401b0380821115613a7357600080fd5b613a7f868387016139d5565b93506020850151915080821115613a9557600080fd5b50613aa2858286016139d5565b9150509250929050565b600082601f830112613abd57600080fd5b81516020613acd6139f683613916565b82815260059290921b84018101918181019086841115613aec57600080fd5b8286015b84811015613a3e5780518352918301918301613af0565b60008060a08385031215613b1a57600080fd5b82516001600160401b03811115613b3057600080fd5b613b3c85828601613aac565b925050613b4c846020850161395b565b90509250929050565b60208082526026908201527f41432e6f6e6c794469726563744b65657065723a206e6f74206469726563742060408201526535b2b2b832b960d11b606082015260800190565b600060208284031215613bad57600080fd5b5051919050565b60208082526036908201527f41432e6f776e65724f72446972656374426f6f6b65657065723a206e6569746860408201527532b91037bbb732b9103737b9103137b7b5b2b2b832b960511b606082015260800190565b600060208284031215613c1c57600080fd5b81516001600160401b03811115613c3257600080fd5b613c3e84828501613aac565b949350505050565b6020808252602c908201527f5348412e7469746c6545786973743a2053484120646f6573206e6f742068617660408201526b652073756368207469746c6560a01b606082015260800190565b805160ff811681146137f057600080fd5b805161ffff811681146137f057600080fd5b805163ffffffff811681146137f057600080fd5b600060a08284031215613cdb57600080fd5b60405160a081018181106001600160401b0382111715613cfd57613cfd613885565b604052905080613d0c836137db565b8152613d1a602084016137db565b6020820152613d2b60408401613944565b6040820152613d3c60608401613944565b6060820152613d4d60808401613c92565b60808201525092915050565b60008183036101e0811215613d6d57600080fd5b613d7561389b565b61012080831215613d8557600080fd5b613d8d6138c3565b9250613d9885613c92565b8352613da660208601613ca3565b6020840152613db760408601613ca3565b6040840152613dc860608601613ca3565b6060840152613dd960808601613cb5565b6080840152613dea60a086016137db565b60a0840152613dfb60c08601613cb5565b60c0840152613e0c60e08601613cb5565b60e0840152610100613e1f818701613939565b90840152828252613e3286868301613cc9565b6020830152506101c093909301516040840152509092915050565b60006102008201905060018060a01b0384168252825160ff815116602084015261ffff60208201511660408401526040810151613e90606085018261ffff169052565b50606081015161ffff8116608085015250608081015163ffffffff811660a08501525060a081015164ffffffffff811660c08501525060c081015163ffffffff811660e08501525060e0810151610100613ef18186018363ffffffff169052565b919091015165ffffffffffff1661012084015250602083810151805164ffffffffff908116610140860152918101519091166101608401526040808201516001600160401b039081166101808601526060830151166101a085015260809091015160ff166101c0840152909201516101e090910152919050565b6000600019821415613f8d57634e487b7160e01b600052601160045260246000fd5b5060010190565b600060208284031215613fa657600080fd5b8151610fc0816136d1565b604081526000613fc4604083018561366c565b82810360208401526117b2818561366c56fea26469706673582212202baff0971f387eb46bca3abd0a4fa387091142342066f7805c9485914c04e5d164736f6c63430008080033",
    "sourcePath": "/Users/kaptain/github.com/hardhat/comboox/contracts/books/boh/ShareholdersAgreement.sol",
    "compiler": {
        "name": "solc",
        "version": "0.8.8+commit.dddeac2f"
    },
    "functionHashes": {
        "abandonRole(bytes32)": "3da9a600",
        "addBlank(bool,uint256,uint256)": "50a31ef9",
        "addRule(uint256)": "241f4aaa",
        "createTerm(uint256)": "8c77db08",
        "established()": "4844f541",
        "finalizeTerms()": "8969d43a",
        "finalized()": "b3f05b97",
        "getBookeeper()": "ed211023",
        "getBuyers(bool)": "a959c69c",
        "getGeneralCounsel()": "103f6edd",
        "getOwner()": "893d20e8",
        "getParasOfPage(bool)": "ccb2f415",
        "getParties()": "a8311aa8",
        "getRule(uint256)": "48462037",
        "getSellers(bool)": "f2724eb2",
        "getSigOfParty(bool,uint256)": "34367313",
        "getSigsOfPage(bool)": "25abe790",
        "getTerm(uint256)": "346ba941",
        "grantRole(bytes32,uint256)": "1b6ea9f9",
        "hasRole(bytes32,uint256)": "7e063c5a",
        "hasRule(uint256)": "379ef4a6",
        "hasTitle(uint256)": "71765449",
        "init(uint256,address,address,address)": "dc890da9",
        "isBuyer(bool,uint256)": "b1152335",
        "isParty(bool,uint256)": "460a0d0b",
        "isParty(uint256)": "8c5f9170",
        "isSeller(bool,uint256)": "51b171a3",
        "isSigner(bool,uint256)": "cb2123e4",
        "lockContents()": "f045a769",
        "qtyOfRules()": "d0c504b0",
        "qtyOfTerms()": "bc3ffc70",
        "regSig(uint256,uint256,uint48,bytes32)": "eb1a79f4",
        "removeRule(uint256)": "d70da38b",
        "removeTerm(uint256)": "b69046e8",
        "renounceRole(bytes32)": "8bb9c5bf",
        "revokeRole(bytes32,uint256)": "19d61ad9",
        "rules()": "52f6747a",
        "setDirectKeeper(address)": "6be8496f",
        "setGeneralCounsel(uint256)": "4a14beb1",
        "setOwner(uint256)": "8041494e",
        "setRoleAdmin(bytes32,uint256)": "5171ebd4",
        "setSigDeadline(bool,uint48)": "2e4c9cd5",
        "signDoc(bool,uint256,bytes32)": "1958ac5a",
        "termIsExempted(uint256,address,uint256)": "5d24f35b",
        "termIsTriggered(uint256,address,uint256)": "ac067843",
        "titles()": "a9acd944"
    },
    "gasEstimates": {
        "creation": {
            "codeDepositCost": "3279200",
            "executionCost": "3643",
            "totalCost": "3282843"
        },
        "external": {
            "abandonRole(bytes32)": "infinite",
            "addBlank(bool,uint256,uint256)": "infinite",
            "addRule(uint256)": "infinite",
            "createTerm(uint256)": "infinite",
            "established()": "infinite",
            "finalizeTerms()": "infinite",
            "finalized()": "2372",
            "getBookeeper()": "infinite",
            "getBuyers(bool)": "infinite",
            "getGeneralCounsel()": "infinite",
            "getOwner()": "infinite",
            "getParasOfPage(bool)": "5180",
            "getParties()": "infinite",
            "getRule(uint256)": "2528",
            "getSellers(bool)": "infinite",
            "getSigOfParty(bool,uint256)": "infinite",
            "getSigsOfPage(bool)": "infinite",
            "getTerm(uint256)": "2589",
            "grantRole(bytes32,uint256)": "infinite",
            "hasRole(bytes32,uint256)": "infinite",
            "hasRule(uint256)": "infinite",
            "hasTitle(uint256)": "infinite",
            "init(uint256,address,address,address)": "infinite",
            "isBuyer(bool,uint256)": "infinite",
            "isParty(bool,uint256)": "infinite",
            "isParty(uint256)": "infinite",
            "isSeller(bool,uint256)": "infinite",
            "isSigner(bool,uint256)": "infinite",
            "lockContents()": "infinite",
            "qtyOfRules()": "infinite",
            "qtyOfTerms()": "infinite",
            "regSig(uint256,uint256,uint48,bytes32)": "infinite",
            "removeRule(uint256)": "infinite",
            "removeTerm(uint256)": "infinite",
            "renounceRole(bytes32)": "infinite",
            "revokeRole(bytes32,uint256)": "infinite",
            "rules()": "infinite",
            "setDirectKeeper(address)": "infinite",
            "setGeneralCounsel(uint256)": "infinite",
            "setOwner(uint256)": "infinite",
            "setRoleAdmin(bytes32,uint256)": "infinite",
            "setSigDeadline(bool,uint48)": "infinite",
            "signDoc(bool,uint256,bytes32)": "infinite",
            "termIsExempted(uint256,address,uint256)": "infinite",
            "termIsTriggered(uint256,address,uint256)": "infinite",
            "titles()": "infinite"
        }
    }
}