{
    "contractName": "ShareholdersAgreement",
    "abi": [
        {
            "anonymous": false,
            "inputs": [
                {
                    "indexed": false,
                    "internalType": "uint256",
                    "name": "owner",
                    "type": "uint256"
                },
                {
                    "indexed": false,
                    "internalType": "address",
                    "name": "directKeeper",
                    "type": "address"
                },
                {
                    "indexed": false,
                    "internalType": "address",
                    "name": "regCenter",
                    "type": "address"
                },
                {
                    "indexed": false,
                    "internalType": "address",
                    "name": "generalKeeper",
                    "type": "address"
                }
            ],
            "name": "Init",
            "type": "event"
        },
        {
            "anonymous": false,
            "inputs": [],
            "name": "LockContents",
            "type": "event"
        },
        {
            "anonymous": false,
            "inputs": [
                {
                    "indexed": false,
                    "internalType": "address",
                    "name": "keeper",
                    "type": "address"
                }
            ],
            "name": "SetDirectKeeper",
            "type": "event"
        },
        {
            "anonymous": false,
            "inputs": [
                {
                    "indexed": false,
                    "internalType": "uint256",
                    "name": "acct",
                    "type": "uint256"
                }
            ],
            "name": "SetGeneralCounsel",
            "type": "event"
        },
        {
            "anonymous": false,
            "inputs": [
                {
                    "indexed": false,
                    "internalType": "uint256",
                    "name": "acct",
                    "type": "uint256"
                }
            ],
            "name": "SetOwner",
            "type": "event"
        },
        {
            "anonymous": false,
            "inputs": [
                {
                    "indexed": false,
                    "internalType": "bool",
                    "name": "initPage",
                    "type": "bool"
                },
                {
                    "indexed": false,
                    "internalType": "uint48",
                    "name": "SigDeadline",
                    "type": "uint48"
                }
            ],
            "name": "SetSigDeadline",
            "type": "event"
        },
        {
            "inputs": [
                {
                    "internalType": "bytes32",
                    "name": "role",
                    "type": "bytes32"
                }
            ],
            "name": "abandonRole",
            "outputs": [],
            "stateMutability": "nonpayable",
            "type": "function"
        },
        {
            "inputs": [
                {
                    "internalType": "bool",
                    "name": "beBuyer",
                    "type": "bool"
                },
                {
                    "internalType": "uint256",
                    "name": "seqOfDeal",
                    "type": "uint256"
                },
                {
                    "internalType": "uint256",
                    "name": "acct",
                    "type": "uint256"
                }
            ],
            "name": "addBlank",
            "outputs": [],
            "stateMutability": "nonpayable",
            "type": "function"
        },
        {
            "inputs": [
                {
                    "internalType": "uint256",
                    "name": "rule",
                    "type": "uint256"
                }
            ],
            "name": "addRule",
            "outputs": [],
            "stateMutability": "nonpayable",
            "type": "function"
        },
        {
            "inputs": [
                {
                    "internalType": "uint16",
                    "name": "typeOfDoc",
                    "type": "uint16"
                },
                {
                    "internalType": "uint16",
                    "name": "version",
                    "type": "uint16"
                }
            ],
            "name": "createTerm",
            "outputs": [
                {
                    "internalType": "address",
                    "name": "body",
                    "type": "address"
                }
            ],
            "stateMutability": "nonpayable",
            "type": "function"
        },
        {
            "inputs": [],
            "name": "established",
            "outputs": [
                {
                    "internalType": "bool",
                    "name": "flag",
                    "type": "bool"
                }
            ],
            "stateMutability": "view",
            "type": "function"
        },
        {
            "inputs": [],
            "name": "finalized",
            "outputs": [
                {
                    "internalType": "bool",
                    "name": "",
                    "type": "bool"
                }
            ],
            "stateMutability": "view",
            "type": "function"
        },
        {
            "inputs": [],
            "name": "getBookeeper",
            "outputs": [
                {
                    "internalType": "address",
                    "name": "",
                    "type": "address"
                }
            ],
            "stateMutability": "view",
            "type": "function"
        },
        {
            "inputs": [
                {
                    "internalType": "bool",
                    "name": "initPage",
                    "type": "bool"
                }
            ],
            "name": "getBuyers",
            "outputs": [
                {
                    "internalType": "uint256[]",
                    "name": "buyers",
                    "type": "uint256[]"
                }
            ],
            "stateMutability": "view",
            "type": "function"
        },
        {
            "inputs": [],
            "name": "getGeneralCounsel",
            "outputs": [
                {
                    "internalType": "uint40",
                    "name": "",
                    "type": "uint40"
                }
            ],
            "stateMutability": "view",
            "type": "function"
        },
        {
            "inputs": [],
            "name": "getOwner",
            "outputs": [
                {
                    "internalType": "uint40",
                    "name": "",
                    "type": "uint40"
                }
            ],
            "stateMutability": "view",
            "type": "function"
        },
        {
            "inputs": [
                {
                    "internalType": "bool",
                    "name": "initPage",
                    "type": "bool"
                }
            ],
            "name": "getParasOfPage",
            "outputs": [
                {
                    "components": [
                        {
                            "internalType": "uint40",
                            "name": "signer",
                            "type": "uint40"
                        },
                        {
                            "internalType": "uint48",
                            "name": "sigDate",
                            "type": "uint48"
                        },
                        {
                            "internalType": "uint64",
                            "name": "blocknumber",
                            "type": "uint64"
                        },
                        {
                            "internalType": "bytes32",
                            "name": "sigHash",
                            "type": "bytes32"
                        }
                    ],
                    "internalType": "struct SigsRepo.Signature",
                    "name": "",
                    "type": "tuple"
                }
            ],
            "stateMutability": "view",
            "type": "function"
        },
        {
            "inputs": [],
            "name": "getParties",
            "outputs": [
                {
                    "internalType": "uint256[]",
                    "name": "parties",
                    "type": "uint256[]"
                }
            ],
            "stateMutability": "view",
            "type": "function"
        },
        {
            "inputs": [
                {
                    "internalType": "uint256",
                    "name": "seq",
                    "type": "uint256"
                }
            ],
            "name": "getRule",
            "outputs": [
                {
                    "internalType": "uint256",
                    "name": "",
                    "type": "uint256"
                }
            ],
            "stateMutability": "view",
            "type": "function"
        },
        {
            "inputs": [
                {
                    "internalType": "bool",
                    "name": "initPage",
                    "type": "bool"
                }
            ],
            "name": "getSellers",
            "outputs": [
                {
                    "internalType": "uint256[]",
                    "name": "sellers",
                    "type": "uint256[]"
                }
            ],
            "stateMutability": "view",
            "type": "function"
        },
        {
            "inputs": [
                {
                    "internalType": "bool",
                    "name": "initPage",
                    "type": "bool"
                },
                {
                    "internalType": "uint256",
                    "name": "acct",
                    "type": "uint256"
                }
            ],
            "name": "getSigOfParty",
            "outputs": [
                {
                    "internalType": "uint256[]",
                    "name": "seqOfDeals",
                    "type": "uint256[]"
                },
                {
                    "components": [
                        {
                            "internalType": "uint40",
                            "name": "signer",
                            "type": "uint40"
                        },
                        {
                            "internalType": "uint48",
                            "name": "sigDate",
                            "type": "uint48"
                        },
                        {
                            "internalType": "uint64",
                            "name": "blocknumber",
                            "type": "uint64"
                        },
                        {
                            "internalType": "bytes32",
                            "name": "sigHash",
                            "type": "bytes32"
                        }
                    ],
                    "internalType": "struct SigsRepo.Signature",
                    "name": "sig",
                    "type": "tuple"
                }
            ],
            "stateMutability": "view",
            "type": "function"
        },
        {
            "inputs": [
                {
                    "internalType": "bool",
                    "name": "initPage",
                    "type": "bool"
                }
            ],
            "name": "getSigsOfPage",
            "outputs": [
                {
                    "components": [
                        {
                            "internalType": "uint40",
                            "name": "signer",
                            "type": "uint40"
                        },
                        {
                            "internalType": "uint48",
                            "name": "sigDate",
                            "type": "uint48"
                        },
                        {
                            "internalType": "uint64",
                            "name": "blocknumber",
                            "type": "uint64"
                        },
                        {
                            "internalType": "bytes32",
                            "name": "sigHash",
                            "type": "bytes32"
                        }
                    ],
                    "internalType": "struct SigsRepo.Signature[]",
                    "name": "sigsOfBuyer",
                    "type": "tuple[]"
                },
                {
                    "components": [
                        {
                            "internalType": "uint40",
                            "name": "signer",
                            "type": "uint40"
                        },
                        {
                            "internalType": "uint48",
                            "name": "sigDate",
                            "type": "uint48"
                        },
                        {
                            "internalType": "uint64",
                            "name": "blocknumber",
                            "type": "uint64"
                        },
                        {
                            "internalType": "bytes32",
                            "name": "sigHash",
                            "type": "bytes32"
                        }
                    ],
                    "internalType": "struct SigsRepo.Signature[]",
                    "name": "sigsOfSeller",
                    "type": "tuple[]"
                }
            ],
            "stateMutability": "view",
            "type": "function"
        },
        {
            "inputs": [
                {
                    "internalType": "uint256",
                    "name": "title",
                    "type": "uint256"
                }
            ],
            "name": "getTerm",
            "outputs": [
                {
                    "internalType": "address",
                    "name": "",
                    "type": "address"
                }
            ],
            "stateMutability": "view",
            "type": "function"
        },
        {
            "inputs": [
                {
                    "internalType": "bytes32",
                    "name": "role",
                    "type": "bytes32"
                },
                {
                    "internalType": "uint256",
                    "name": "acct",
                    "type": "uint256"
                }
            ],
            "name": "grantRole",
            "outputs": [],
            "stateMutability": "nonpayable",
            "type": "function"
        },
        {
            "inputs": [
                {
                    "internalType": "bytes32",
                    "name": "role",
                    "type": "bytes32"
                },
                {
                    "internalType": "uint256",
                    "name": "acct",
                    "type": "uint256"
                }
            ],
            "name": "hasRole",
            "outputs": [
                {
                    "internalType": "bool",
                    "name": "",
                    "type": "bool"
                }
            ],
            "stateMutability": "view",
            "type": "function"
        },
        {
            "inputs": [
                {
                    "internalType": "uint256",
                    "name": "seq",
                    "type": "uint256"
                }
            ],
            "name": "hasRule",
            "outputs": [
                {
                    "internalType": "bool",
                    "name": "",
                    "type": "bool"
                }
            ],
            "stateMutability": "view",
            "type": "function"
        },
        {
            "inputs": [
                {
                    "internalType": "uint256",
                    "name": "title",
                    "type": "uint256"
                }
            ],
            "name": "hasTitle",
            "outputs": [
                {
                    "internalType": "bool",
                    "name": "",
                    "type": "bool"
                }
            ],
            "stateMutability": "view",
            "type": "function"
        },
        {
            "inputs": [
                {
                    "internalType": "uint256",
                    "name": "owner",
                    "type": "uint256"
                },
                {
                    "internalType": "address",
                    "name": "directKeeper",
                    "type": "address"
                },
                {
                    "internalType": "address",
                    "name": "regCenter",
                    "type": "address"
                },
                {
                    "internalType": "address",
                    "name": "generalKeeper",
                    "type": "address"
                }
            ],
            "name": "init",
            "outputs": [],
            "stateMutability": "nonpayable",
            "type": "function"
        },
        {
            "inputs": [
                {
                    "internalType": "bool",
                    "name": "initPage",
                    "type": "bool"
                },
                {
                    "internalType": "uint256",
                    "name": "acct",
                    "type": "uint256"
                }
            ],
            "name": "isBuyer",
            "outputs": [
                {
                    "internalType": "bool",
                    "name": "flag",
                    "type": "bool"
                }
            ],
            "stateMutability": "view",
            "type": "function"
        },
        {
            "inputs": [
                {
                    "internalType": "bool",
                    "name": "initPage",
                    "type": "bool"
                },
                {
                    "internalType": "uint256",
                    "name": "acct",
                    "type": "uint256"
                }
            ],
            "name": "isParty",
            "outputs": [
                {
                    "internalType": "bool",
                    "name": "flag",
                    "type": "bool"
                }
            ],
            "stateMutability": "view",
            "type": "function"
        },
        {
            "inputs": [
                {
                    "internalType": "uint256",
                    "name": "acct",
                    "type": "uint256"
                }
            ],
            "name": "isParty",
            "outputs": [
                {
                    "internalType": "bool",
                    "name": "flag",
                    "type": "bool"
                }
            ],
            "stateMutability": "view",
            "type": "function"
        },
        {
            "inputs": [
                {
                    "internalType": "bool",
                    "name": "initPage",
                    "type": "bool"
                },
                {
                    "internalType": "uint256",
                    "name": "acct",
                    "type": "uint256"
                }
            ],
            "name": "isSeller",
            "outputs": [
                {
                    "internalType": "bool",
                    "name": "flag",
                    "type": "bool"
                }
            ],
            "stateMutability": "view",
            "type": "function"
        },
        {
            "inputs": [
                {
                    "internalType": "bool",
                    "name": "initPage",
                    "type": "bool"
                },
                {
                    "internalType": "uint256",
                    "name": "acct",
                    "type": "uint256"
                }
            ],
            "name": "isSigner",
            "outputs": [
                {
                    "internalType": "bool",
                    "name": "flag",
                    "type": "bool"
                }
            ],
            "stateMutability": "view",
            "type": "function"
        },
        {
            "inputs": [],
            "name": "lockContents",
            "outputs": [],
            "stateMutability": "nonpayable",
            "type": "function"
        },
        {
            "inputs": [],
            "name": "qtyOfRules",
            "outputs": [
                {
                    "internalType": "uint256",
                    "name": "",
                    "type": "uint256"
                }
            ],
            "stateMutability": "view",
            "type": "function"
        },
        {
            "inputs": [],
            "name": "qtyOfTerms",
            "outputs": [
                {
                    "internalType": "uint256",
                    "name": "",
                    "type": "uint256"
                }
            ],
            "stateMutability": "view",
            "type": "function"
        },
        {
            "inputs": [
                {
                    "internalType": "uint256",
                    "name": "seqOfDeal",
                    "type": "uint256"
                },
                {
                    "internalType": "uint256",
                    "name": "signer",
                    "type": "uint256"
                },
                {
                    "internalType": "uint48",
                    "name": "sigDate",
                    "type": "uint48"
                },
                {
                    "internalType": "bytes32",
                    "name": "sigHash",
                    "type": "bytes32"
                }
            ],
            "name": "regSig",
            "outputs": [
                {
                    "internalType": "bool",
                    "name": "flag",
                    "type": "bool"
                }
            ],
            "stateMutability": "nonpayable",
            "type": "function"
        },
        {
            "inputs": [
                {
                    "internalType": "uint256",
                    "name": "seq",
                    "type": "uint256"
                }
            ],
            "name": "removeRule",
            "outputs": [],
            "stateMutability": "nonpayable",
            "type": "function"
        },
        {
            "inputs": [
                {
                    "internalType": "uint16",
                    "name": "typeOfDoc",
                    "type": "uint16"
                }
            ],
            "name": "removeTerm",
            "outputs": [],
            "stateMutability": "nonpayable",
            "type": "function"
        },
        {
            "inputs": [
                {
                    "internalType": "bytes32",
                    "name": "role",
                    "type": "bytes32"
                }
            ],
            "name": "renounceRole",
            "outputs": [],
            "stateMutability": "nonpayable",
            "type": "function"
        },
        {
            "inputs": [
                {
                    "internalType": "bytes32",
                    "name": "role",
                    "type": "bytes32"
                },
                {
                    "internalType": "uint256",
                    "name": "acct",
                    "type": "uint256"
                }
            ],
            "name": "revokeRole",
            "outputs": [],
            "stateMutability": "nonpayable",
            "type": "function"
        },
        {
            "inputs": [],
            "name": "rules",
            "outputs": [
                {
                    "internalType": "uint256[]",
                    "name": "",
                    "type": "uint256[]"
                }
            ],
            "stateMutability": "view",
            "type": "function"
        },
        {
            "inputs": [
                {
                    "internalType": "address",
                    "name": "keeper",
                    "type": "address"
                }
            ],
            "name": "setDirectKeeper",
            "outputs": [],
            "stateMutability": "nonpayable",
            "type": "function"
        },
        {
            "inputs": [
                {
                    "internalType": "uint256",
                    "name": "acct",
                    "type": "uint256"
                }
            ],
            "name": "setGeneralCounsel",
            "outputs": [],
            "stateMutability": "nonpayable",
            "type": "function"
        },
        {
            "inputs": [
                {
                    "internalType": "uint256",
                    "name": "acct",
                    "type": "uint256"
                }
            ],
            "name": "setOwner",
            "outputs": [],
            "stateMutability": "nonpayable",
            "type": "function"
        },
        {
            "inputs": [
                {
                    "internalType": "bytes32",
                    "name": "role",
                    "type": "bytes32"
                },
                {
                    "internalType": "uint256",
                    "name": "acct",
                    "type": "uint256"
                }
            ],
            "name": "setRoleAdmin",
            "outputs": [],
            "stateMutability": "nonpayable",
            "type": "function"
        },
        {
            "inputs": [
                {
                    "internalType": "bool",
                    "name": "initPage",
                    "type": "bool"
                },
                {
                    "internalType": "uint48",
                    "name": "sigDeadline",
                    "type": "uint48"
                }
            ],
            "name": "setSigDeadline",
            "outputs": [],
            "stateMutability": "nonpayable",
            "type": "function"
        },
        {
            "inputs": [
                {
                    "internalType": "bool",
                    "name": "initPage",
                    "type": "bool"
                },
                {
                    "internalType": "uint256",
                    "name": "caller",
                    "type": "uint256"
                },
                {
                    "internalType": "bytes32",
                    "name": "sigHash",
                    "type": "bytes32"
                }
            ],
            "name": "signDoc",
            "outputs": [],
            "stateMutability": "nonpayable",
            "type": "function"
        },
        {
            "inputs": [
                {
                    "internalType": "uint256",
                    "name": "title",
                    "type": "uint256"
                },
                {
                    "internalType": "address",
                    "name": "ia",
                    "type": "address"
                },
                {
                    "internalType": "uint256",
                    "name": "seqOfDeal",
                    "type": "uint256"
                }
            ],
            "name": "termIsExempted",
            "outputs": [
                {
                    "internalType": "bool",
                    "name": "",
                    "type": "bool"
                }
            ],
            "stateMutability": "view",
            "type": "function"
        },
        {
            "inputs": [
                {
                    "internalType": "uint256",
                    "name": "title",
                    "type": "uint256"
                },
                {
                    "internalType": "address",
                    "name": "ia",
                    "type": "address"
                },
                {
                    "internalType": "uint256",
                    "name": "seqOfDeal",
                    "type": "uint256"
                }
            ],
            "name": "termIsTriggered",
            "outputs": [
                {
                    "internalType": "bool",
                    "name": "",
                    "type": "bool"
                }
            ],
            "stateMutability": "view",
            "type": "function"
        },
        {
            "inputs": [],
            "name": "titles",
            "outputs": [
                {
                    "internalType": "uint256[]",
                    "name": "",
                    "type": "uint256[]"
                }
            ],
            "stateMutability": "view",
            "type": "function"
        }
    ],
    "bytecode": "608060405234801561001057600080fd5b506139b3806100206000396000f3fe608060405234801561001057600080fd5b506004361061027f5760003560e01c80637e063c5a1161015c578063bc3ffc70116100ce578063debca88c11610087578063debca88c146105be578063eb1a1177146105d1578063eb1a79f4146105e4578063ed211023146105f7578063f045a769146105ff578063f2724eb21461060757600080fd5b8063bc3ffc7014610555578063cb2123e41461055d578063ccb2f41514610570578063d0c504b014610590578063d70da38b14610598578063dc890da9146105ab57600080fd5b8063a8311aa811610120578063a8311aa8146104f8578063a959c69c14610500578063a9acd94414610513578063ac0678431461051b578063b11523351461052e578063b3f05b971461054157600080fd5b80637e063c5a146104a45780638041494e146104b7578063893d20e8146104ca5780638bb9c5bf146104d25780638c5f9170146104e557600080fd5b8063460a0d0b116101f55780635171ebd4116101b95780635171ebd41461043057806351b171a31461044357806352f6747a146104565780635d24f35b1461046b5780636be8496f1461047e578063717654491461049157600080fd5b8063460a0d0b146103c15780634844f541146103d457806348462037146103dc5780634a14beb11461040a57806350a31ef91461041d57600080fd5b806325abe7901161024757806325abe790146102f55780632e4c9cd5146103165780633436731314610329578063346ba9411461034a578063379ef4a61461038b5780633da9a600146103ae57600080fd5b8063103f6edd146102845780631958ac5a146102a757806319d61ad9146102bc5780631b6ea9f9146102cf578063241f4aaa146102e2575b600080fd5b61028c61061a565b60405164ffffffffff90911681526020015b60405180910390f35b6102ba6102b5366004612efd565b6106a6565b005b6102ba6102ca366004612f32565b61082e565b6102ba6102dd366004612f32565b6108c0565b6102ba6102f0366004612f54565b6108e6565b610308610303366004612f6d565b610a56565b60405161029e92919061300d565b6102ba610324366004613046565b610b08565b61033c61033736600461307f565b610d0b565b60405161029e9291906130db565b610373610358366004612f54565b6000908152600e60205260409020546001600160a01b031690565b6040516001600160a01b03909116815260200161029e565b61039e610399366004612f54565b610dea565b604051901515815260200161029e565b6102ba6103bc366004612f54565b610e7e565b61039e6103cf36600461307f565b610f09565b61039e610f2c565b6103fc6103ea366004612f54565b60009081526011602052604090205490565b60405190815260200161029e565b6102ba610418366004612f54565b6110fd565b6102ba61042b366004612efd565b61135a565b6102ba61043e366004612f32565b61146f565b61039e61045136600461307f565b611495565b61045e6115b7565b60405161029e91906130fd565b61039e610479366004613125565b611642565b6102ba61048c36600461315d565b6117c0565b61039e61049f366004612f54565b611872565b61039e6104b2366004612f32565b6118b4565b6102ba6104c5366004612f54565b6118fd565b61028c6119b6565b6102ba6104e0366004612f54565b6119f1565b61039e6104f3366004612f54565b611a16565b61045e611c08565b61045e61050e366004612f6d565b611de8565b61045e611f04565b61039e610529366004613125565b611f3f565b61039e61053c36600461307f565b611fe0565b60028054600160f01b900460ff161461039e565b6103fc612065565b61039e61056b36600461307f565b6120ec565b61058361057e366004612f6d565b612170565b60405161029e919061317a565b6103fc612247565b6102ba6105a6366004612f54565b612282565b6102ba6105b9366004613188565b6123f4565b6103736105cc3660046131eb565b6124d6565b6102ba6105df366004613219565b61279b565b61039e6105f2366004613236565b61291f565b610373612a66565b6102ba612aec565b61045e610615366004612f6d565b612d30565b60405163e8c0cc1d60e01b81526002600482015260009073__$364aad554dc80380f414546becdd2c1584$__9063e8c0cc1d906024015b60206040518083038186803b15801561066957600080fd5b505af415801561067d573d6000803e3d6000fd5b505050506040513d601f19601f820116820180604052508101906106a1919061328f565b905090565b6001546040516335d2155560e11b81523360048201526001600160a01b0390911690636ba42aaa9060240160206040518083038186803b1580156106e957600080fd5b505afa1580156106fd573d6000803e3d6000fd5b505050506040513d601f19601f8201168201806040525081019061072191906132aa565b6107465760405162461bcd60e51b815260040161073d906132c7565b60405180910390fd5b82156107e3576040516368c2325360e01b8152600481810152602481018390526044810182905273__$47b88465a20692378cf12e8e0c338f01dd$__906368c23253906064015b60206040518083038186803b1580156107a557600080fd5b505af41580156107b9573d6000803e3d6000fd5b505050506040513d601f19601f820116820180604052508101906107dd91906132aa565b50505050565b6040516368c2325360e01b815260096004820152602481018390526044810182905273__$47b88465a20692378cf12e8e0c338f01dd$__906368c232539060640161078d565b505050565b73__$364aad554dc80380f414546becdd2c1584$__6382daafaa60028484610854612da7565b6040516001600160e01b031960e087901b16815260048101949094526024840192909252604483015264ffffffffff16606482015260840160006040518083038186803b1580156108a457600080fd5b505af41580156108b8573d6000803e3d6000fd5b505050505050565b73__$364aad554dc80380f414546becdd2c1584$__636320d75e60028484610854612da7565b73__$364aad554dc80380f414546becdd2c1584$__63a8ef95ac6002684174746f726e65797360b81b610917612da7565b6040516001600160e01b031960e086901b1681526004810193909352602483019190915264ffffffffff16604482015260640160206040518083038186803b15801561096257600080fd5b505af4158015610976573d6000803e3d6000fd5b505050506040513d601f19601f8201168201806040525081019061099a91906132aa565b6109b65760405162461bcd60e51b815260040161073d906132f2565b60f081901c60008181526011602052604090819020839055516392f13c3f60e01b8152601260048201526024810182905273__$8c1a4844a0a0988ea2454cf87145a95df1$__906392f13c3f9060440160206040518083038186803b158015610a1e57600080fd5b505af4158015610a32573d6000803e3d6000fd5b505050506040513d601f19601f8201168201806040525081019061082991906132aa565b6060808215610aff57600460005b6005020173__$47b88465a20692378cf12e8e0c338f01dd$__63c018ec8790916040518263ffffffff1660e01b8152600401610aa291815260200190565b60006040518083038186803b158015610aba57600080fd5b505af4158015610ace573d6000803e3d6000fd5b505050506040513d6000823e601f3d908101601f19168201604052610af691908101906134e3565b91509150915091565b60046001610a64565b73__$364aad554dc80380f414546becdd2c1584$__63a8ef95ac6002684174746f726e65797360b81b610b39612da7565b6040516001600160e01b031960e086901b1681526004810193909352602483019190915264ffffffffff16604482015260640160206040518083038186803b158015610b8457600080fd5b505af4158015610b98573d6000803e3d6000fd5b505050506040513d601f19601f82011682018060405250810190610bbc91906132aa565b610bd85760405162461bcd60e51b815260040161073d906132f2565b8115610c5357604051635284fe6760e11b815260048181015265ffffffffffff8216602482015273__$47b88465a20692378cf12e8e0c338f01dd$__9063a509fcce9060440160006040518083038186803b158015610c3657600080fd5b505af4158015610c4a573d6000803e3d6000fd5b50505050610cc5565b604051635284fe6760e11b81526009600482015265ffffffffffff8216602482015273__$47b88465a20692378cf12e8e0c338f01dd$__9063a509fcce9060440160006040518083038186803b158015610cac57600080fd5b505af4158015610cc0573d6000803e3d6000fd5b505050505b60408051831515815265ffffffffffff831660208201527f523844b7b23204192ed69d6efc62131f2a86a16ecf1326fd0084e459b31cb62d910160405180910390a15050565b604080516080810182526000808252602082018190529181018290526060818101929092528315610dda57600460005b604051630b5b0ad560e01b81526005919091029190910160048201526024810184905273__$47b88465a20692378cf12e8e0c338f01dd$__90630b5b0ad59060440160006040518083038186803b158015610d9557600080fd5b505af4158015610da9573d6000803e3d6000fd5b505050506040513d6000823e601f3d908101601f19168201604052610dd191908101906135a1565b91509150610de3565b60046001610d3b565b9250929050565b604051633f5f77cd60e01b8152601260048201526024810182905260009073__$8c1a4844a0a0988ea2454cf87145a95df1$__90633f5f77cd906044015b60206040518083038186803b158015610e4057600080fd5b505af4158015610e54573d6000803e3d6000fd5b505050506040513d601f19601f82011682018060405250810190610e7891906132aa565b92915050565b73__$364aad554dc80380f414546becdd2c1584$__63c51b295f600283610ea3612da7565b6040516001600160e01b031960e086901b1681526004810193909352602483019190915264ffffffffff16604482015260640160006040518083038186803b158015610eee57600080fd5b505af4158015610f02573d6000803e3d6000fd5b5050505050565b6000610f158383611fe0565b80610f255750610f258383611495565b9392505050565b60405163c2b46a8560e01b8152600a6004820152600090819073__$8c1a4844a0a0988ea2454cf87145a95df1$__9063c2b46a859060240160206040518083038186803b158015610f7c57600080fd5b505af4158015610f90573d6000803e3d6000fd5b505050506040513d601f19601f82011682018060405250810190610fb491906135ef565b1161103c576040516318a7841360e11b815260048181015273__$47b88465a20692378cf12e8e0c338f01dd$__9063314f0826906024015b60206040518083038186803b15801561100457600080fd5b505af4158015611018573d6000803e3d6000fd5b505050506040513d601f19601f820116820180604052508101906106a191906132aa565b6040516318a7841360e11b81526009600482015273__$47b88465a20692378cf12e8e0c338f01dd$__9063314f08269060240160206040518083038186803b15801561108757600080fd5b505af415801561109b573d6000803e3d6000fd5b505050506040513d601f19601f820116820180604052508101906110bf91906132aa565b80156106a157506040516318a7841360e11b815260048181015273__$47b88465a20692378cf12e8e0c338f01dd$__9063314f082690602401610fec565b604051633b11adbf60e21b81526002600482015233602482015273__$364aad554dc80380f414546becdd2c1584$__9063ec46b6fc9060440160206040518083038186803b15801561114e57600080fd5b505af4158015611162573d6000803e3d6000fd5b505050506040513d601f19601f8201168201806040525081019061118691906132aa565b8061122b575073__$364aad554dc80380f414546becdd2c1584$__63fe27108660026111b0612da7565b6040516001600160e01b031960e085901b168152600481019290925264ffffffffff16602482015260440160206040518083038186803b1580156111f357600080fd5b505af4158015611207573d6000803e3d6000fd5b505050506040513d601f19601f8201168201806040525081019061122b91906132aa565b6112965760405162461bcd60e51b815260206004820152603660248201527f41432e6f776e65724f72446972656374426f6f6b65657065723a206e6569746860448201527532b91037bbb732b9103737b9103137b7b5b2b2b832b960511b606482015260840161073d565b73__$364aad554dc80380f414546becdd2c1584$__639b4510de6002836112bb612da7565b6040516001600160e01b031960e086901b1681526004810193909352602483019190915264ffffffffff16604482015260640160006040518083038186803b15801561130657600080fd5b505af415801561131a573d6000803e3d6000fd5b505050507ff2735f34b69be1e6342dea95f9162f84d0db925fab655ca9f1f312ac8cbfc99d8160405161134f91815260200190565b60405180910390a150565b6001546040516335d2155560e11b81523360048201526001600160a01b0390911690636ba42aaa9060240160206040518083038186803b15801561139d57600080fd5b505afa1580156113b1573d6000803e3d6000fd5b505050506040513d601f19601f820116820180604052508101906113d591906132aa565b6113f15760405162461bcd60e51b815260040161073d906132c7565b604051630dfb57ab60e11b8152600960048201528315156024820152604481018390526064810182905273__$47b88465a20692378cf12e8e0c338f01dd$__90631bf6af569060840160006040518083038186803b15801561145257600080fd5b505af4158015611466573d6000803e3d6000fd5b50505050505050565b73__$364aad554dc80380f414546becdd2c1584$__63ee98b31360028484610854612da7565b60008261152c57604051633f5f77cd60e01b8152600c60048201526024810183905273__$8c1a4844a0a0988ea2454cf87145a95df1$__90633f5f77cd906044015b60206040518083038186803b1580156114ef57600080fd5b505af4158015611503573d6000803e3d6000fd5b505050506040513d601f19601f8201168201806040525081019061152791906132aa565b610f25565b604051633f5f77cd60e01b8152600760048201526024810183905273__$8c1a4844a0a0988ea2454cf87145a95df1$__90633f5f77cd906044015b60206040518083038186803b15801561157f57600080fd5b505af4158015611593573d6000803e3d6000fd5b505050506040513d601f19601f82011682018060405250810190610f2591906132aa565b60405163034306e160e21b81526012600482015260609073__$8c1a4844a0a0988ea2454cf87145a95df1$__90630d0c1b84906024015b60006040518083038186803b15801561160657600080fd5b505af415801561161a573d6000803e3d6000fd5b505050506040513d6000823e601f3d908101601f191682016040526106a19190810190613608565b60008361164e81611872565b61169a5760405162461bcd60e51b815260206004820152601a60248201527f5348412e6d662e54453a207469746c65206e6f74206578697374000000000000604482015260640161073d565b6116a5858585611f3f565b6116b257600191506117b8565b6000858152600e6020526040908190205490516320bf56eb60e21b8152600481018590526001600160a01b039182169163237006e09187918216906382fd5bac906024015b6101e06040518083038186803b15801561171057600080fd5b505afa158015611724573d6000803e3d6000fd5b505050506040513d601f19601f820116820180604052508101906117489190613704565b6040518363ffffffff1660e01b81526004016117659291906137f8565b60206040518083038186803b15801561177d57600080fd5b505afa158015611791573d6000803e3d6000fd5b505050506040513d601f19601f820116820180604052508101906117b591906132aa565b91505b509392505050565b604051630f07232560e01b8152600260048201526001600160a01b038216602482015233604482015273__$364aad554dc80380f414546becdd2c1584$__90630f0723259060640160006040518083038186803b15801561182057600080fd5b505af4158015611834573d6000803e3d6000fd5b50506040516001600160a01b03841681527fe435cbeab64e4eae6497b9d8289704bd709d624a80704ef3ca9af777534bc6ec9250602001905061134f565b604051633f5f77cd60e01b8152600f60048201526024810182905260009073__$8c1a4844a0a0988ea2454cf87145a95df1$__90633f5f77cd90604401610e28565b604051632a3be56b60e21b815260026004820152602481018390526044810182905260009073__$364aad554dc80380f414546becdd2c1584$__9063a8ef95ac90606401611567565b73__$364aad554dc80380f414546becdd2c1584$__639b48160c600283611922612da7565b6040516001600160e01b031960e086901b1681526004810193909352602483019190915264ffffffffff16604482015260640160006040518083038186803b15801561196d57600080fd5b505af4158015611981573d6000803e3d6000fd5b505050507f8b6f40f36b4ae8cc5f55e895036457c43da4ab1f80f58c46f5ff0d72a650033b8160405161134f91815260200190565b60405163987ad15360e01b81526002600482015260009073__$364aad554dc80380f414546becdd2c1584$__9063987ad15390602401610651565b73__$364aad554dc80380f414546becdd2c1584$__63cc0d511b600283610ea3612da7565b604051633f5f77cd60e01b8152600560048201526024810182905260009073__$8c1a4844a0a0988ea2454cf87145a95df1$__90633f5f77cd9060440160206040518083038186803b158015611a6b57600080fd5b505af4158015611a7f573d6000803e3d6000fd5b505050506040513d601f19601f82011682018060405250810190611aa391906132aa565b80611b335750604051633f5f77cd60e01b8152600760048201526024810183905273__$8c1a4844a0a0988ea2454cf87145a95df1$__90633f5f77cd9060440160206040518083038186803b158015611afb57600080fd5b505af4158015611b0f573d6000803e3d6000fd5b505050506040513d601f19601f82011682018060405250810190611b3391906132aa565b80611bc35750604051633f5f77cd60e01b8152600a60048201526024810183905273__$8c1a4844a0a0988ea2454cf87145a95df1$__90633f5f77cd9060440160206040518083038186803b158015611b8b57600080fd5b505af4158015611b9f573d6000803e3d6000fd5b505050506040513d601f19601f82011682018060405250810190611bc391906132aa565b80610e785750604051633f5f77cd60e01b8152600c60048201526024810183905273__$8c1a4844a0a0988ea2454cf87145a95df1$__90633f5f77cd90604401610e28565b60606000611c166001611de8565b905073__$ccb256085f563a601d001f7c9087d87207$__63088b9bf682611c3d6000611de8565b6040518363ffffffff1660e01b8152600401611c5a929190613916565b60006040518083038186803b158015611c7257600080fd5b505af4158015611c86573d6000803e3d6000fd5b505050506040513d6000823e601f3d908101601f19168201604052611cae9190810190613608565b506000611cbb6001612d30565b905073__$ccb256085f563a601d001f7c9087d87207$__63088b9bf682611ce26000612d30565b6040518363ffffffff1660e01b8152600401611cff929190613916565b60006040518083038186803b158015611d1757600080fd5b505af4158015611d2b573d6000803e3d6000fd5b505050506040513d6000823e601f3d908101601f19168201604052611d539190810190613608565b50604051630445cdfb60e11b815273__$ccb256085f563a601d001f7c9087d87207$__9063088b9bf690611d8d9085908590600401613916565b60006040518083038186803b158015611da557600080fd5b505af4158015611db9573d6000803e3d6000fd5b505050506040513d6000823e601f3d908101601f19168201604052611de19190810190613608565b9250505090565b606081611e7c5760405163034306e160e21b81526005600482015273__$8c1a4844a0a0988ea2454cf87145a95df1$__90630d0c1b84906024015b60006040518083038186803b158015611e3b57600080fd5b505af4158015611e4f573d6000803e3d6000fd5b505050506040513d6000823e601f3d908101601f19168201604052611e779190810190613608565b610e78565b60405163034306e160e21b81526005600482015273__$8c1a4844a0a0988ea2454cf87145a95df1$__90630d0c1b84906024015b60006040518083038186803b158015611ec857600080fd5b505af4158015611edc573d6000803e3d6000fd5b505050506040513d6000823e601f3d908101601f19168201604052610e789190810190613608565b60405163034306e160e21b8152600f600482015260609073__$8c1a4844a0a0988ea2454cf87145a95df1$__90630d0c1b84906024016115ee565b600083611f4b81611872565b611f975760405162461bcd60e51b815260206004820152601a60248201527f5348412e6d662e54453a207469746c65206e6f74206578697374000000000000604482015260640161073d565b6000858152600e6020526040908190205490516320bf56eb60e21b8152600481018590526001600160a01b03918216916306c4b2089187918216906382fd5bac906024016116f7565b60008261202657604051633f5f77cd60e01b8152600a60048201526024810183905273__$8c1a4844a0a0988ea2454cf87145a95df1$__90633f5f77cd906044016114d7565b604051633f5f77cd60e01b8152600560048201526024810183905273__$8c1a4844a0a0988ea2454cf87145a95df1$__90633f5f77cd90604401611567565b60405163c2b46a8560e01b8152600f600482015260009073__$8c1a4844a0a0988ea2454cf87145a95df1$__9063c2b46a85906024015b60206040518083038186803b1580156120b457600080fd5b505af41580156120c8573d6000803e3d6000fd5b505050506040513d601f19601f820116820180604052508101906106a191906135ef565b600082612132576040516324d431a360e01b8152600960048201526024810183905273__$47b88465a20692378cf12e8e0c338f01dd$__906324d431a3906044016114d7565b6040516324d431a360e01b81526004818101526024810183905273__$47b88465a20692378cf12e8e0c338f01dd$__906324d431a390604401611567565b604080516080810182526000808252602082018190529181018290526060810191909152816121c8576000805260096020527fec8156718a8372b1db44bb411437d0870f3e3790d4a08526d024ce1b0b668f6d6121f3565b6000805260046020527f17ef568e3e12ab5b9c7254a8d58478811de00f9e6eb34345acd53bf8fd09d3ee5b60408051608081018252825464ffffffffff8116825265010000000000810465ffffffffffff166020830152600160581b90046001600160401b031691810191909152600190910154606082015292915050565b60405163c2b46a8560e01b81526012600482015260009073__$8c1a4844a0a0988ea2454cf87145a95df1$__9063c2b46a859060240161209c565b73__$364aad554dc80380f414546becdd2c1584$__63a8ef95ac6002684174746f726e65797360b81b6122b3612da7565b6040516001600160e01b031960e086901b1681526004810193909352602483019190915264ffffffffff16604482015260640160206040518083038186803b1580156122fe57600080fd5b505af4158015612312573d6000803e3d6000fd5b505050506040513d601f19601f8201168201806040525081019061233691906132aa565b6123525760405162461bcd60e51b815260040161073d906132f2565b6040516392fd02df60e01b8152601260048201526024810182905273__$8c1a4844a0a0988ea2454cf87145a95df1$__906392fd02df9060440160206040518083038186803b1580156123a457600080fd5b505af41580156123b8573d6000803e3d6000fd5b505050506040513d601f19601f820116820180604052508101906123dc91906132aa565b156123f1576000818152601160205260408120555b50565b604051636cdd0edf60e11b815260026004820152602481018590526001600160a01b038416604482015273__$364aad554dc80380f414546becdd2c1584$__9063d9ba1dbe9060640160006040518083038186803b15801561245557600080fd5b505af4158015612469573d6000803e3d6000fd5b5050505061247682612e01565b61247f81612e74565b604080518581526001600160a01b038581166020830152848116828401528316606082015290517f3abb2418c66fe32ba9c883030a75ce583971d9af9192b9b74e44e67c5e6c8c1f9181900360800190a150505050565b600073__$364aad554dc80380f414546becdd2c1584$__6331a349c060026124fc612da7565b6040516001600160e01b031960e085901b168152600481019290925264ffffffffff16602482015260440160206040518083038186803b15801561253f57600080fd5b505af4158015612553573d6000803e3d6000fd5b505050506040513d601f19601f8201168201806040525081019061257791906132aa565b6125c35760405162461bcd60e51b815260206004820152601b60248201527f41432e6f67633a206e6f742067656e6572616c20636f756e73656c0000000000604482015260640161073d565b60006125cd61061a565b600054604051631304c1d360e31b815261ffff8088166004830152861660248201523360448201529192506001600160a01b0316906398260e98906064016040805180830381600087803b15801561262457600080fd5b505af1158015612638573d6000803e3d6000fd5b505050506040513d601f19601f8201168201806040525081019061265c919061393b565b60005460015460405163dc890da960e01b815264ffffffffff861660048201523060248201526001600160a01b03928316604482015290821660648201529194508416915063dc890da990608401600060405180830381600087803b1580156126c457600080fd5b505af11580156126d8573d6000803e3d6000fd5b5050505061ffff84166000818152600e60205260409081902080546001600160a01b0319166001600160a01b038616179055516392f13c3f60e01b8152600f6004820152602481019190915273__$8c1a4844a0a0988ea2454cf87145a95df1$__906392f13c3f9060440160206040518083038186803b15801561275b57600080fd5b505af415801561276f573d6000803e3d6000fd5b505050506040513d601f19601f8201168201806040525081019061279391906132aa565b505092915050565b73__$364aad554dc80380f414546becdd2c1584$__63a8ef95ac6002684174746f726e65797360b81b6127cc612da7565b6040516001600160e01b031960e086901b1681526004810193909352602483019190915264ffffffffff16604482015260640160206040518083038186803b15801561281757600080fd5b505af415801561282b573d6000803e3d6000fd5b505050506040513d601f19601f8201168201806040525081019061284f91906132aa565b61286b5760405162461bcd60e51b815260040161073d906132f2565b6040516392fd02df60e01b8152600f600482015261ffff8216602482015273__$8c1a4844a0a0988ea2454cf87145a95df1$__906392fd02df9060440160206040518083038186803b1580156128c057600080fd5b505af41580156128d4573d6000803e3d6000fd5b505050506040513d601f19601f820116820180604052508101906128f891906132aa565b156123f15761ffff166000908152600e6020526040902080546001600160a01b0319169055565b6001546040516335d2155560e11b81523360048201526000916001600160a01b031690636ba42aaa9060240160206040518083038186803b15801561296357600080fd5b505afa158015612977573d6000803e3d6000fd5b505050506040513d601f19601f8201168201806040525081019061299b91906132aa565b6129b75760405162461bcd60e51b815260040161073d906132c7565b60405163031559a160e01b815260096004820152602481018690526044810185905265ffffffffffff841660648201526084810183905273__$47b88465a20692378cf12e8e0c338f01dd$__9063031559a19060a40160206040518083038186803b158015612a2557600080fd5b505af4158015612a39573d6000803e3d6000fd5b505050506040513d601f19601f82011682018060405250810190612a5d91906132aa565b95945050505050565b604051633c3e56c160e11b81526002600482015260009073__$364aad554dc80380f414546becdd2c1584$__9063787cad829060240160206040518083038186803b158015612ab457600080fd5b505af4158015612ac8573d6000803e3d6000fd5b505050506040513d601f19601f820116820180604052508101906106a19190613960565b600254600160f01b900460ff16600114612b485760405162461bcd60e51b815260206004820152601760248201527f41432e4c433a20446f632069732066696e616c697a6564000000000000000000604482015260640161073d565b73__$364aad554dc80380f414546becdd2c1584$__63c51b295f6002684174746f726e65797360b81b612b79612da7565b6040516001600160e01b031960e086901b1681526004810193909352602483019190915264ffffffffff16604482015260640160006040518083038186803b158015612bc457600080fd5b505af4158015612bd8573d6000803e3d6000fd5b50505050600273__$364aad554dc80380f414546becdd2c1584$__639b4510de90916000612c04612da7565b6040516001600160e01b031960e086901b1681526004810193909352602483019190915264ffffffffff16604482015260640160006040518083038186803b158015612c4f57600080fd5b505af4158015612c63573d6000803e3d6000fd5b50505050600273__$364aad554dc80380f414546becdd2c1584$__639b48160c90916000612c8f612da7565b6040516001600160e01b031960e086901b1681526004810193909352602483019190915264ffffffffff16604482015260640160006040518083038186803b158015612cda57600080fd5b505af4158015612cee573d6000803e3d6000fd5b50506002805460ff60f01b1916600160f11b17905550506040517f35012b512309c322acf68632cd6cb702ff0e1d776fbe9394e38ffc13b434fe7590600090a1565b606081612d6f5760405163034306e160e21b8152600c600482015273__$8c1a4844a0a0988ea2454cf87145a95df1$__90630d0c1b8490602401611e23565b60405163034306e160e21b81526007600482015273__$8c1a4844a0a0988ea2454cf87145a95df1$__90630d0c1b8490602401611eb0565b60008054604051636ae3b70d60e11b81523360048201526001600160a01b039091169063d5c76e1a90602401602060405180830381600087803b158015612ded57600080fd5b505af115801561067d573d6000803e3d6000fd5b6000546001600160a01b031615612e525760405162461bcd60e51b815260206004820152601560248201527430b63932b0b23c9039b2ba103932b3a1b2b73a32b960591b604482015260640161073d565b600080546001600160a01b0319166001600160a01b0392909216919091179055565b6001546001600160a01b031615612ecd5760405162461bcd60e51b815260206004820152601960248201527f616c7265616479207365742067656e6572616c4b656570657200000000000000604482015260640161073d565b600180546001600160a01b0319166001600160a01b0392909216919091179055565b80151581146123f157600080fd5b600080600060608486031215612f1257600080fd5b8335612f1d81612eef565b95602085013595506040909401359392505050565b60008060408385031215612f4557600080fd5b50508035926020909101359150565b600060208284031215612f6657600080fd5b5035919050565b600060208284031215612f7f57600080fd5b8135610f2581612eef565b64ffffffffff815116825265ffffffffffff60208201511660208301526001600160401b036040820151166040830152606081015160608301525050565b600081518084526020808501945080840160005b8381101561300257612fef878351612f8a565b6080969096019590820190600101612fdc565b509495945050505050565b6040815260006130206040830185612fc8565b82810360208401526117b58185612fc8565b65ffffffffffff811681146123f157600080fd5b6000806040838503121561305957600080fd5b823561306481612eef565b9150602083013561307481613032565b809150509250929050565b6000806040838503121561309257600080fd5b823561309d81612eef565b946020939093013593505050565b600081518084526020808501945080840160005b83811015613002578151875295820195908201906001016130bf565b60a0815260006130ee60a08301856130ab565b9050610f256020830184612f8a565b602081526000610f2560208301846130ab565b6001600160a01b03811681146123f157600080fd5b60008060006060848603121561313a57600080fd5b83359250602084013561314c81613110565b929592945050506040919091013590565b60006020828403121561316f57600080fd5b8135610f2581613110565b60808101610e788284612f8a565b6000806000806080858703121561319e57600080fd5b8435935060208501356131b081613110565b925060408501356131c081613110565b915060608501356131d081613110565b939692955090935050565b61ffff811681146123f157600080fd5b600080604083850312156131fe57600080fd5b8235613209816131db565b91506020830135613074816131db565b60006020828403121561322b57600080fd5b8135610f25816131db565b6000806000806080858703121561324c57600080fd5b8435935060208501359250604085013561326581613032565b9396929550929360600135925050565b805164ffffffffff8116811461328a57600080fd5b919050565b6000602082840312156132a157600080fd5b610f2582613275565b6000602082840312156132bc57600080fd5b8151610f2581612eef565b60208082526011908201527020a19737b59d103737ba1025b2b2b832b960791b604082015260600190565b60208082526013908201527241432e6f743a206e6f74204174746f726e657960681b604082015260600190565b634e487b7160e01b600052604160045260246000fd5b604051606081016001600160401b03811182821017156133575761335761331f565b60405290565b60405161012081016001600160401b03811182821017156133575761335761331f565b604051601f8201601f191681016001600160401b03811182821017156133a8576133a861331f565b604052919050565b60006001600160401b038211156133c9576133c961331f565b5060051b60200190565b805161328a81613032565b80516001600160401b038116811461328a57600080fd5b60006080828403121561340757600080fd5b604051608081018181106001600160401b03821117156134295761342961331f565b60405290508061343883613275565b8152602083015161344881613032565b6020820152613459604084016133de565b6040820152606083015160608201525092915050565b600082601f83011261348057600080fd5b81516020613495613490836133b0565b613380565b82815260079290921b840181019181810190868411156134b457600080fd5b8286015b848110156134d8576134ca88826133f5565b8352918301916080016134b8565b509695505050505050565b600080604083850312156134f657600080fd5b82516001600160401b038082111561350d57600080fd5b6135198683870161346f565b9350602085015191508082111561352f57600080fd5b5061353c8582860161346f565b9150509250929050565b600082601f83011261355757600080fd5b81516020613567613490836133b0565b82815260059290921b8401810191818101908684111561358657600080fd5b8286015b848110156134d8578051835291830191830161358a565b60008060a083850312156135b457600080fd5b82516001600160401b038111156135ca57600080fd5b6135d685828601613546565b9250506135e684602085016133f5565b90509250929050565b60006020828403121561360157600080fd5b5051919050565b60006020828403121561361a57600080fd5b81516001600160401b0381111561363057600080fd5b61363c84828501613546565b949350505050565b805160ff8116811461328a57600080fd5b805161328a816131db565b805163ffffffff8116811461328a57600080fd5b600060a0828403121561368657600080fd5b60405160a081018181106001600160401b03821117156136a8576136a861331f565b6040529050806136b783613275565b81526136c560208401613275565b60208201526136d6604084016133de565b60408201526136e7606084016133de565b60608201526136f860808401613644565b60808201525092915050565b60008183036101e081121561371857600080fd5b613720613335565b6101208083121561373057600080fd5b61373861335d565b925061374385613644565b835261375160208601613655565b602084015261376260408601613655565b604084015261377360608601613655565b606084015261378460808601613660565b608084015261379560a08601613275565b60a08401526137a660c08601613660565b60c08401526137b760e08601613660565b60e08401526101006137ca8187016133d3565b908401528282526137dd86868301613674565b6020830152506101c093909301516040840152509092915050565b60006102008201905060018060a01b0384168252825160ff815116602084015261ffff6020820151166040840152604081015161383b606085018261ffff169052565b50606081015161ffff8116608085015250608081015163ffffffff811660a08501525060a081015164ffffffffff811660c08501525060c081015163ffffffff811660e08501525060e081015161010061389c8186018363ffffffff169052565b919091015165ffffffffffff1661012084015250602083810151805164ffffffffff908116610140860152918101519091166101608401526040808201516001600160401b039081166101808601526060830151166101a085015260809091015160ff166101c0840152909201516101e090910152919050565b60408152600061392960408301856130ab565b82810360208401526117b581856130ab565b6000806040838503121561394e57600080fd5b82519150602083015161307481613110565b60006020828403121561397257600080fd5b8151610f258161311056fea26469706673582212200a81411e8835bb9d540cfc00552da961139d17daa2cc643d7a073745043ffe8964736f6c63430008080033",
    "sourcePath": "/Users/kaptain/github.com/hardhat/comboox/contracts/books/boh/ShareholdersAgreement.sol",
    "compiler": {
        "name": "solc",
        "version": "0.8.8+commit.dddeac2f"
    },
    "functionHashes": {
        "abandonRole(bytes32)": "3da9a600",
        "addBlank(bool,uint256,uint256)": "50a31ef9",
        "addRule(uint256)": "241f4aaa",
        "createTerm(uint16,uint16)": "debca88c",
        "established()": "4844f541",
        "finalized()": "b3f05b97",
        "getBookeeper()": "ed211023",
        "getBuyers(bool)": "a959c69c",
        "getGeneralCounsel()": "103f6edd",
        "getOwner()": "893d20e8",
        "getParasOfPage(bool)": "ccb2f415",
        "getParties()": "a8311aa8",
        "getRule(uint256)": "48462037",
        "getSellers(bool)": "f2724eb2",
        "getSigOfParty(bool,uint256)": "34367313",
        "getSigsOfPage(bool)": "25abe790",
        "getTerm(uint256)": "346ba941",
        "grantRole(bytes32,uint256)": "1b6ea9f9",
        "hasRole(bytes32,uint256)": "7e063c5a",
        "hasRule(uint256)": "379ef4a6",
        "hasTitle(uint256)": "71765449",
        "init(uint256,address,address,address)": "dc890da9",
        "isBuyer(bool,uint256)": "b1152335",
        "isParty(bool,uint256)": "460a0d0b",
        "isParty(uint256)": "8c5f9170",
        "isSeller(bool,uint256)": "51b171a3",
        "isSigner(bool,uint256)": "cb2123e4",
        "lockContents()": "f045a769",
        "qtyOfRules()": "d0c504b0",
        "qtyOfTerms()": "bc3ffc70",
        "regSig(uint256,uint256,uint48,bytes32)": "eb1a79f4",
        "removeRule(uint256)": "d70da38b",
        "removeTerm(uint16)": "eb1a1177",
        "renounceRole(bytes32)": "8bb9c5bf",
        "revokeRole(bytes32,uint256)": "19d61ad9",
        "rules()": "52f6747a",
        "setDirectKeeper(address)": "6be8496f",
        "setGeneralCounsel(uint256)": "4a14beb1",
        "setOwner(uint256)": "8041494e",
        "setRoleAdmin(bytes32,uint256)": "5171ebd4",
        "setSigDeadline(bool,uint48)": "2e4c9cd5",
        "signDoc(bool,uint256,bytes32)": "1958ac5a",
        "termIsExempted(uint256,address,uint256)": "5d24f35b",
        "termIsTriggered(uint256,address,uint256)": "ac067843",
        "titles()": "a9acd944"
    },
    "gasEstimates": {
        "creation": {
            "codeDepositCost": "2954200",
            "executionCost": "3239",
            "totalCost": "2957439"
        },
        "external": {
            "abandonRole(bytes32)": "infinite",
            "addBlank(bool,uint256,uint256)": "infinite",
            "addRule(uint256)": "infinite",
            "createTerm(uint16,uint16)": "infinite",
            "established()": "infinite",
            "finalized()": "2482",
            "getBookeeper()": "infinite",
            "getBuyers(bool)": "infinite",
            "getGeneralCounsel()": "infinite",
            "getOwner()": "infinite",
            "getParasOfPage(bool)": "5136",
            "getParties()": "infinite",
            "getRule(uint256)": "2528",
            "getSellers(bool)": "infinite",
            "getSigOfParty(bool,uint256)": "infinite",
            "getSigsOfPage(bool)": "infinite",
            "getTerm(uint256)": "2589",
            "grantRole(bytes32,uint256)": "infinite",
            "hasRole(bytes32,uint256)": "infinite",
            "hasRule(uint256)": "infinite",
            "hasTitle(uint256)": "infinite",
            "init(uint256,address,address,address)": "infinite",
            "isBuyer(bool,uint256)": "infinite",
            "isParty(bool,uint256)": "infinite",
            "isParty(uint256)": "infinite",
            "isSeller(bool,uint256)": "infinite",
            "isSigner(bool,uint256)": "infinite",
            "lockContents()": "infinite",
            "qtyOfRules()": "infinite",
            "qtyOfTerms()": "infinite",
            "regSig(uint256,uint256,uint48,bytes32)": "infinite",
            "removeRule(uint256)": "infinite",
            "removeTerm(uint16)": "infinite",
            "renounceRole(bytes32)": "infinite",
            "revokeRole(bytes32,uint256)": "infinite",
            "rules()": "infinite",
            "setDirectKeeper(address)": "infinite",
            "setGeneralCounsel(uint256)": "infinite",
            "setOwner(uint256)": "infinite",
            "setRoleAdmin(bytes32,uint256)": "infinite",
            "setSigDeadline(bool,uint48)": "infinite",
            "signDoc(bool,uint256,bytes32)": "infinite",
            "termIsExempted(uint256,address,uint256)": "infinite",
            "termIsTriggered(uint256,address,uint256)": "infinite",
            "titles()": "infinite"
        }
    }
}