{
    "contractName": "ShareholdersAgreement",
    "abi": [
        {
            "anonymous": false,
            "inputs": [
                {
                    "indexed": false,
                    "internalType": "uint40",
                    "name": "owner",
                    "type": "uint40"
                },
                {
                    "indexed": false,
                    "internalType": "address",
                    "name": "directKeeper",
                    "type": "address"
                },
                {
                    "indexed": false,
                    "internalType": "address",
                    "name": "regCenter",
                    "type": "address"
                },
                {
                    "indexed": false,
                    "internalType": "address",
                    "name": "generalKeeper",
                    "type": "address"
                }
            ],
            "name": "Init",
            "type": "event"
        },
        {
            "anonymous": false,
            "inputs": [],
            "name": "LockContents",
            "type": "event"
        },
        {
            "anonymous": false,
            "inputs": [
                {
                    "indexed": false,
                    "internalType": "address",
                    "name": "keeper",
                    "type": "address"
                }
            ],
            "name": "SetDirectKeeper",
            "type": "event"
        },
        {
            "anonymous": false,
            "inputs": [
                {
                    "indexed": false,
                    "internalType": "uint256",
                    "name": "acct",
                    "type": "uint256"
                }
            ],
            "name": "SetGeneralCounsel",
            "type": "event"
        },
        {
            "anonymous": false,
            "inputs": [
                {
                    "indexed": false,
                    "internalType": "address",
                    "name": "gk",
                    "type": "address"
                }
            ],
            "name": "SetGeneralKeeper",
            "type": "event"
        },
        {
            "anonymous": false,
            "inputs": [
                {
                    "indexed": false,
                    "internalType": "uint256",
                    "name": "acct",
                    "type": "uint256"
                }
            ],
            "name": "SetOwner",
            "type": "event"
        },
        {
            "anonymous": false,
            "inputs": [
                {
                    "indexed": false,
                    "internalType": "address",
                    "name": "rc",
                    "type": "address"
                }
            ],
            "name": "SetRegCenter",
            "type": "event"
        },
        {
            "inputs": [
                {
                    "internalType": "bytes32",
                    "name": "role",
                    "type": "bytes32"
                }
            ],
            "name": "abandonRole",
            "outputs": [],
            "stateMutability": "nonpayable",
            "type": "function"
        },
        {
            "inputs": [
                {
                    "internalType": "bytes32",
                    "name": "rule",
                    "type": "bytes32"
                }
            ],
            "name": "addRule",
            "outputs": [],
            "stateMutability": "nonpayable",
            "type": "function"
        },
        {
            "inputs": [
                {
                    "internalType": "uint8",
                    "name": "title",
                    "type": "uint8"
                }
            ],
            "name": "createTerm",
            "outputs": [
                {
                    "internalType": "address",
                    "name": "body",
                    "type": "address"
                }
            ],
            "stateMutability": "nonpayable",
            "type": "function"
        },
        {
            "inputs": [],
            "name": "finalizeTerms",
            "outputs": [],
            "stateMutability": "nonpayable",
            "type": "function"
        },
        {
            "inputs": [],
            "name": "finalized",
            "outputs": [
                {
                    "internalType": "bool",
                    "name": "",
                    "type": "bool"
                }
            ],
            "stateMutability": "view",
            "type": "function"
        },
        {
            "inputs": [],
            "name": "getBookeeper",
            "outputs": [
                {
                    "internalType": "address",
                    "name": "",
                    "type": "address"
                }
            ],
            "stateMutability": "view",
            "type": "function"
        },
        {
            "inputs": [],
            "name": "getGeneralCounsel",
            "outputs": [
                {
                    "internalType": "uint40",
                    "name": "",
                    "type": "uint40"
                }
            ],
            "stateMutability": "view",
            "type": "function"
        },
        {
            "inputs": [],
            "name": "getOwner",
            "outputs": [
                {
                    "internalType": "uint40",
                    "name": "",
                    "type": "uint40"
                }
            ],
            "stateMutability": "view",
            "type": "function"
        },
        {
            "inputs": [
                {
                    "internalType": "uint256",
                    "name": "seq",
                    "type": "uint256"
                }
            ],
            "name": "getRule",
            "outputs": [
                {
                    "internalType": "bytes32",
                    "name": "",
                    "type": "bytes32"
                }
            ],
            "stateMutability": "view",
            "type": "function"
        },
        {
            "inputs": [],
            "name": "getSigPage",
            "outputs": [
                {
                    "internalType": "contract ISigPage",
                    "name": "",
                    "type": "address"
                }
            ],
            "stateMutability": "view",
            "type": "function"
        },
        {
            "inputs": [
                {
                    "internalType": "uint256",
                    "name": "title",
                    "type": "uint256"
                }
            ],
            "name": "getTerm",
            "outputs": [
                {
                    "internalType": "address",
                    "name": "",
                    "type": "address"
                }
            ],
            "stateMutability": "view",
            "type": "function"
        },
        {
            "inputs": [
                {
                    "internalType": "bytes32",
                    "name": "role",
                    "type": "bytes32"
                },
                {
                    "internalType": "uint40",
                    "name": "acct",
                    "type": "uint40"
                }
            ],
            "name": "grantRole",
            "outputs": [],
            "stateMutability": "nonpayable",
            "type": "function"
        },
        {
            "inputs": [
                {
                    "internalType": "bytes32",
                    "name": "role",
                    "type": "bytes32"
                },
                {
                    "internalType": "uint40",
                    "name": "acct",
                    "type": "uint40"
                }
            ],
            "name": "hasRole",
            "outputs": [
                {
                    "internalType": "bool",
                    "name": "",
                    "type": "bool"
                }
            ],
            "stateMutability": "view",
            "type": "function"
        },
        {
            "inputs": [
                {
                    "internalType": "uint256",
                    "name": "seq",
                    "type": "uint256"
                }
            ],
            "name": "hasRule",
            "outputs": [
                {
                    "internalType": "bool",
                    "name": "",
                    "type": "bool"
                }
            ],
            "stateMutability": "view",
            "type": "function"
        },
        {
            "inputs": [
                {
                    "internalType": "uint256",
                    "name": "title",
                    "type": "uint256"
                }
            ],
            "name": "hasTitle",
            "outputs": [
                {
                    "internalType": "bool",
                    "name": "",
                    "type": "bool"
                }
            ],
            "stateMutability": "view",
            "type": "function"
        },
        {
            "inputs": [
                {
                    "internalType": "uint40",
                    "name": "owner",
                    "type": "uint40"
                },
                {
                    "internalType": "address",
                    "name": "directKeeper",
                    "type": "address"
                },
                {
                    "internalType": "address",
                    "name": "regCenter",
                    "type": "address"
                },
                {
                    "internalType": "address",
                    "name": "generalKeeper",
                    "type": "address"
                }
            ],
            "name": "init",
            "outputs": [],
            "stateMutability": "nonpayable",
            "type": "function"
        },
        {
            "inputs": [],
            "name": "lockContents",
            "outputs": [],
            "stateMutability": "nonpayable",
            "type": "function"
        },
        {
            "inputs": [],
            "name": "qtyOfRules",
            "outputs": [
                {
                    "internalType": "uint256",
                    "name": "",
                    "type": "uint256"
                }
            ],
            "stateMutability": "view",
            "type": "function"
        },
        {
            "inputs": [],
            "name": "qtyOfTerms",
            "outputs": [
                {
                    "internalType": "uint256",
                    "name": "",
                    "type": "uint256"
                }
            ],
            "stateMutability": "view",
            "type": "function"
        },
        {
            "inputs": [
                {
                    "internalType": "uint16",
                    "name": "seq",
                    "type": "uint16"
                }
            ],
            "name": "removeRule",
            "outputs": [],
            "stateMutability": "nonpayable",
            "type": "function"
        },
        {
            "inputs": [
                {
                    "internalType": "uint8",
                    "name": "title",
                    "type": "uint8"
                }
            ],
            "name": "removeTerm",
            "outputs": [],
            "stateMutability": "nonpayable",
            "type": "function"
        },
        {
            "inputs": [
                {
                    "internalType": "bytes32",
                    "name": "role",
                    "type": "bytes32"
                }
            ],
            "name": "renounceRole",
            "outputs": [],
            "stateMutability": "nonpayable",
            "type": "function"
        },
        {
            "inputs": [
                {
                    "internalType": "bytes32",
                    "name": "role",
                    "type": "bytes32"
                },
                {
                    "internalType": "uint40",
                    "name": "acct",
                    "type": "uint40"
                }
            ],
            "name": "revokeRole",
            "outputs": [],
            "stateMutability": "nonpayable",
            "type": "function"
        },
        {
            "inputs": [],
            "name": "rules",
            "outputs": [
                {
                    "internalType": "uint256[]",
                    "name": "",
                    "type": "uint256[]"
                }
            ],
            "stateMutability": "view",
            "type": "function"
        },
        {
            "inputs": [
                {
                    "internalType": "address",
                    "name": "keeper",
                    "type": "address"
                }
            ],
            "name": "setDirectKeeper",
            "outputs": [],
            "stateMutability": "nonpayable",
            "type": "function"
        },
        {
            "inputs": [
                {
                    "internalType": "uint40",
                    "name": "acct",
                    "type": "uint40"
                }
            ],
            "name": "setGeneralCounsel",
            "outputs": [],
            "stateMutability": "nonpayable",
            "type": "function"
        },
        {
            "inputs": [
                {
                    "internalType": "uint40",
                    "name": "acct",
                    "type": "uint40"
                }
            ],
            "name": "setOwner",
            "outputs": [],
            "stateMutability": "nonpayable",
            "type": "function"
        },
        {
            "inputs": [
                {
                    "internalType": "bytes32",
                    "name": "role",
                    "type": "bytes32"
                },
                {
                    "internalType": "uint40",
                    "name": "acct",
                    "type": "uint40"
                }
            ],
            "name": "setRoleAdmin",
            "outputs": [],
            "stateMutability": "nonpayable",
            "type": "function"
        },
        {
            "inputs": [
                {
                    "internalType": "address",
                    "name": "sigPage",
                    "type": "address"
                }
            ],
            "name": "setSigPage",
            "outputs": [],
            "stateMutability": "nonpayable",
            "type": "function"
        },
        {
            "inputs": [
                {
                    "internalType": "uint256",
                    "name": "title",
                    "type": "uint256"
                },
                {
                    "internalType": "address",
                    "name": "ia",
                    "type": "address"
                },
                {
                    "internalType": "bytes32",
                    "name": "snOfDeal",
                    "type": "bytes32"
                }
            ],
            "name": "termIsExempted",
            "outputs": [
                {
                    "internalType": "bool",
                    "name": "",
                    "type": "bool"
                }
            ],
            "stateMutability": "view",
            "type": "function"
        },
        {
            "inputs": [
                {
                    "internalType": "uint256",
                    "name": "title",
                    "type": "uint256"
                },
                {
                    "internalType": "address",
                    "name": "ia",
                    "type": "address"
                },
                {
                    "internalType": "bytes32",
                    "name": "snOfDeal",
                    "type": "bytes32"
                }
            ],
            "name": "termIsTriggered",
            "outputs": [
                {
                    "internalType": "bool",
                    "name": "",
                    "type": "bool"
                }
            ],
            "stateMutability": "view",
            "type": "function"
        },
        {
            "inputs": [],
            "name": "titles",
            "outputs": [
                {
                    "internalType": "uint256[]",
                    "name": "",
                    "type": "uint256[]"
                }
            ],
            "stateMutability": "view",
            "type": "function"
        }
    ],
    "bytecode": "608060405234801561001057600080fd5b50612822806100206000396000f3fe608060405234801561001057600080fd5b50600436106101f05760003560e01c806379b2ec121161010f578063b71754c7116100a2578063d0c504b011610071578063d0c504b014610449578063e179f98114610451578063ed21102314610464578063f045a7691461046c57600080fd5b8063b71754c71461040a578063b931f29b1461041d578063bc3ffc701461042e578063cd75bd3f1461043657600080fd5b80638969d43a116100de5780638969d43a146103d35780638bb9c5bf146103db578063a9acd944146103ee578063b3f05b97146103f657600080fd5b806379b2ec12146103925780637ba706e8146103a5578063821ee8ea146103b8578063893d20e8146103cb57600080fd5b80633da9a6001161018757806363068e7f1161015657806363068e7f146103465780636be8496f14610359578063717654491461036c578063740998151461037f57600080fd5b80633da9a600146102dd57806348462037146102f057806352f6747a1461031e5780635fa3140c1461033357600080fd5b80632f88bb5a116101c35780632f88bb5a146102535780633178a9a914610276578063346ba94114610289578063379ef4a6146102ca57600080fd5b806305ee7735146101f5578063103f6edd1461020a57806316dc517e1461022d57806317c51fec14610240575b600080fd5b610208610203366004612375565b610474565b005b61021261070e565b60405164ffffffffff90911681526020015b60405180910390f35b61020861023b3660046123a1565b61079a565b61020861024e3660046123a1565b610830565b6102666102613660046123e6565b610855565b6040519015158152602001610224565b61020861028436600461241e565b610932565b6102b2610297366004612375565b6000908152600560205260409020546001600160a01b031690565b6040516001600160a01b039091168152602001610224565b6102666102d8366004612375565b610b2b565b6102086102eb366004612375565b610bbf565b6103106102fe366004612375565b60009081526008602052604090205490565b604051908152602001610224565b610326610cd1565b604051610224919061243b565b61020861034136600461247f565b610d5c565b6102086103543660046124ac565b610e6b565b61020861036736600461247f565b610fe5565b61026661037a366004612375565b611097565b61020861038d3660046123a1565b6110d9565b6102666103a03660046123a1565b6110fe565b6102086103b336600461241e565b61119f565b6102086103c63660046124c9565b611391565b610212611481565b6102086114bc565b6102086103e9366004612375565b611714565b61032661176d565b60028054600160f01b900460ff1614610266565b6102b2610418366004612525565b6117a8565b6004546001600160a01b03166102b2565b610310611bb4565b610208610444366004612525565b611c3b565b610310611dbd565b61026661045f3660046123e6565b611df8565b6102b2611e66565b610208611eec565b73__$364aad554dc80380f414546becdd2c1584$__63a8ef95ac6002684174746f726e65797360b81b6104a561210a565b6040516001600160e01b031960e086901b1681526004810193909352602483019190915264ffffffffff16604482015260640160206040518083038186803b1580156104f057600080fd5b505af4158015610504573d6000803e3d6000fd5b505050506040513d601f19601f820116820180604052508101906105289190612548565b61054d5760405162461bcd60e51b81526004016105449061256a565b60405180910390fd5b604051630e68ae1160e31b815260048101829052819060089060009073__$94c94c1f27eaba30857c7d0c37f90b5581$__9063734570889060240160206040518083038186803b1580156105a057600080fd5b505af41580156105b4573d6000803e3d6000fd5b505050506040513d601f19601f820116820180604052508101906105d89190612597565b61ffff168152602081019190915260409081016000209190915551630e68ae1160e31b81526004810182905273__$8c1a4844a0a0988ea2454cf87145a95df1$__906392f13c3f9060099073__$94c94c1f27eaba30857c7d0c37f90b5581$__9063734570889060240160206040518083038186803b15801561065a57600080fd5b505af415801561066e573d6000803e3d6000fd5b505050506040513d601f19601f820116820180604052508101906106929190612597565b6040516001600160e01b031960e085901b168152600481019290925261ffff16602482015260440160206040518083038186803b1580156106d257600080fd5b505af41580156106e6573d6000803e3d6000fd5b505050506040513d601f19601f8201168201806040525081019061070a9190612548565b5050565b60405163e8c0cc1d60e01b81526002600482015260009073__$364aad554dc80380f414546becdd2c1584$__9063e8c0cc1d906024015b60206040518083038186803b15801561075d57600080fd5b505af4158015610771573d6000803e3d6000fd5b505050506040513d601f19601f8201168201806040525081019061079591906125b4565b905090565b73__$364aad554dc80380f414546becdd2c1584$__63427abff46002846107bf61210a565b6040516001600160e01b031960e086901b1681526004810193909352602483019190915264ffffffffff9081166044830152841660648201526084015b60006040518083038186803b15801561081457600080fd5b505af4158015610828573d6000803e3d6000fd5b505050505050565b73__$364aad554dc80380f414546becdd2c1584$__638ce158456002846107bf61210a565b60008361086181611097565b61087d5760405162461bcd60e51b8152600401610544906125d1565b610888858585611df8565b610895576001915061092a565b600085815260056020526040908190205490516352000f5160e01b81526001600160a01b03868116600483015260248201869052909116906352000f51906044015b60206040518083038186803b1580156108ef57600080fd5b505afa158015610903573d6000803e3d6000fd5b505050506040513d601f19601f820116820180604052508101906109279190612548565b91505b509392505050565b604051633b11adbf60e21b81526002600482015233602482015273__$364aad554dc80380f414546becdd2c1584$__9063ec46b6fc9060440160206040518083038186803b15801561098357600080fd5b505af4158015610997573d6000803e3d6000fd5b505050506040513d601f19601f820116820180604052508101906109bb9190612548565b80610a60575073__$364aad554dc80380f414546becdd2c1584$__63fe27108660026109e561210a565b6040516001600160e01b031960e085901b168152600481019290925264ffffffffff16602482015260440160206040518083038186803b158015610a2857600080fd5b505af4158015610a3c573d6000803e3d6000fd5b505050506040513d601f19601f82011682018060405250810190610a609190612548565b610a7c5760405162461bcd60e51b81526004016105449061261d565b604051632725ebef60e21b81526002600482015264ffffffffff8216602482015273__$364aad554dc80380f414546becdd2c1584$__90639c97afbc9060440160006040518083038186803b158015610ad457600080fd5b505af4158015610ae8573d6000803e3d6000fd5b505060405164ffffffffff841681527ff2735f34b69be1e6342dea95f9162f84d0db925fab655ca9f1f312ac8cbfc99d925060200190505b60405180910390a150565b604051633f5f77cd60e01b8152600960048201526024810182905260009073__$8c1a4844a0a0988ea2454cf87145a95df1$__90633f5f77cd906044015b60206040518083038186803b158015610b8157600080fd5b505af4158015610b95573d6000803e3d6000fd5b505050506040513d601f19601f82011682018060405250810190610bb99190612548565b92915050565b604051633b11adbf60e21b81526002600482015233602482015273__$364aad554dc80380f414546becdd2c1584$__9063ec46b6fc9060440160206040518083038186803b158015610c1057600080fd5b505af4158015610c24573d6000803e3d6000fd5b505050506040513d601f19601f82011682018060405250810190610c489190612548565b610c645760405162461bcd60e51b815260040161054490612673565b60405163cc99e11b60e01b8152600260048201526024810182905273__$364aad554dc80380f414546becdd2c1584$__9063cc99e11b9060440160006040518083038186803b158015610cb657600080fd5b505af4158015610cca573d6000803e3d6000fd5b5050505050565b60405163034306e160e21b81526009600482015260609073__$8c1a4844a0a0988ea2454cf87145a95df1$__90630d0c1b84906024015b60006040518083038186803b158015610d2057600080fd5b505af4158015610d34573d6000803e3d6000fd5b505050506040513d6000823e601f3d908101601f1916820160405261079591908101906126cf565b604051633b11adbf60e21b81526002600482015233602482015273__$364aad554dc80380f414546becdd2c1584$__9063ec46b6fc9060440160206040518083038186803b158015610dad57600080fd5b505af4158015610dc1573d6000803e3d6000fd5b505050506040513d601f19601f82011682018060405250810190610de59190612548565b610e015760405162461bcd60e51b815260040161054490612673565b600480546001600160a01b0319166001600160a01b03831690811782556040516334ef525760e11b81523092810192909252906369dea4ae90602401600060405180830381600087803b158015610e5757600080fd5b505af1158015610cca573d6000803e3d6000fd5b73__$364aad554dc80380f414546becdd2c1584$__63a8ef95ac6002684174746f726e65797360b81b610e9c61210a565b6040516001600160e01b031960e086901b1681526004810193909352602483019190915264ffffffffff16604482015260640160206040518083038186803b158015610ee757600080fd5b505af4158015610efb573d6000803e3d6000fd5b505050506040513d601f19601f82011682018060405250810190610f1f9190612548565b610f3b5760405162461bcd60e51b81526004016105449061256a565b6040516392fd02df60e01b81526009600482015261ffff8216602482015273__$8c1a4844a0a0988ea2454cf87145a95df1$__906392fd02df9060440160206040518083038186803b158015610f9057600080fd5b505af4158015610fa4573d6000803e3d6000fd5b505050506040513d601f19601f82011682018060405250810190610fc89190612548565b15610fe25761ffff81166000908152600860205260408120555b50565b604051630f07232560e01b8152600260048201523360248201526001600160a01b038216604482015273__$364aad554dc80380f414546becdd2c1584$__90630f0723259060640160006040518083038186803b15801561104557600080fd5b505af4158015611059573d6000803e3d6000fd5b50506040516001600160a01b03841681527fe435cbeab64e4eae6497b9d8289704bd709d624a80704ef3ca9af777534bc6ec92506020019050610b20565b604051633f5f77cd60e01b8152600660048201526024810182905260009073__$8c1a4844a0a0988ea2454cf87145a95df1$__90633f5f77cd90604401610b69565b73__$364aad554dc80380f414546becdd2c1584$__63d2a15ba76002846107bf61210a565b604051632a3be56b60e21b8152600260048201526024810183905264ffffffffff8216604482015260009073__$364aad554dc80380f414546becdd2c1584$__9063a8ef95ac9060640160206040518083038186803b15801561116057600080fd5b505af4158015611174573d6000803e3d6000fd5b505050506040513d601f19601f820116820180604052508101906111989190612548565b9392505050565b604051633b11adbf60e21b81526002600482015233602482015273__$364aad554dc80380f414546becdd2c1584$__9063ec46b6fc9060440160206040518083038186803b1580156111f057600080fd5b505af4158015611204573d6000803e3d6000fd5b505050506040513d601f19601f820116820180604052508101906112289190612548565b806112cd575073__$364aad554dc80380f414546becdd2c1584$__63fe271086600261125261210a565b6040516001600160e01b031960e085901b168152600481019290925264ffffffffff16602482015260440160206040518083038186803b15801561129557600080fd5b505af41580156112a9573d6000803e3d6000fd5b505050506040513d601f19601f820116820180604052508101906112cd9190612548565b6112e95760405162461bcd60e51b81526004016105449061261d565b60405163b6e38a2960e01b81526002600482015264ffffffffff8216602482015273__$364aad554dc80380f414546becdd2c1584$__9063b6e38a299060440160006040518083038186803b15801561134157600080fd5b505af4158015611355573d6000803e3d6000fd5b505060405164ffffffffff841681527f8b6f40f36b4ae8cc5f55e895036457c43da4ab1f80f58c46f5ff0d72a650033b92506020019050610b20565b61139a82612164565b6113a381612213565b604051636cdd0edf60e11b81526002600482015264ffffffffff851660248201526001600160a01b038416604482015273__$364aad554dc80380f414546becdd2c1584$__9063d9ba1dbe9060640160006040518083038186803b15801561140a57600080fd5b505af415801561141e573d6000803e3d6000fd5b50506040805164ffffffffff881681526001600160a01b038781166020830152868116828401528516606082015290517f4d18c0021addc919105cb1ed2c11ad241e859cc1d9e77d4ee1d9ca2cdc1f255b9350908190036080019150a150505050565b60405163987ad15360e01b81526002600482015260009073__$364aad554dc80380f414546becdd2c1584$__9063987ad15390602401610745565b604051633b11adbf60e21b81526002600482015233602482015273__$364aad554dc80380f414546becdd2c1584$__9063ec46b6fc9060440160206040518083038186803b15801561150d57600080fd5b505af4158015611521573d6000803e3d6000fd5b505050506040513d601f19601f820116820180604052508101906115459190612548565b6115615760405162461bcd60e51b815260040161054490612673565b60405163c2b46a8560e01b81526006600482015260009073__$8c1a4844a0a0988ea2454cf87145a95df1$__9063c2b46a859060240160206040518083038186803b1580156115af57600080fd5b505af41580156115c3573d6000803e3d6000fd5b505050506040513d601f19601f820116820180604052508101906115e7919061278d565b905060005b8181101561170b57604051630ef6982f60e41b8152600660048201526024810182905260059060009073__$8c1a4844a0a0988ea2454cf87145a95df1$__9063ef6982f09060440160206040518083038186803b15801561164c57600080fd5b505af4158015611660573d6000803e3d6000fd5b505050506040513d601f19601f82011682018060405250810190611684919061278d565b815260200190815260200160002060009054906101000a90046001600160a01b03166001600160a01b031663f045a7696040518163ffffffff1660e01b8152600401600060405180830381600087803b1580156116e057600080fd5b505af11580156116f4573d6000803e3d6000fd5b505050508080611703906127a6565b9150506115ec565b50610fe2611eec565b600061171e61210a565b604051637963595360e11b8152600260048201526024810184905264ffffffffff8216604482015290915073__$364aad554dc80380f414546becdd2c1584$__9063f2c6b2a6906064016107fc565b60405163034306e160e21b81526006600482015260609073__$8c1a4844a0a0988ea2454cf87145a95df1$__90630d0c1b8490602401610d08565b600073__$364aad554dc80380f414546becdd2c1584$__6331a349c060026117ce61210a565b6040516001600160e01b031960e085901b168152600481019290925264ffffffffff16602482015260440160206040518083038186803b15801561181157600080fd5b505af4158015611825573d6000803e3d6000fd5b505050506040513d601f19601f820116820180604052508101906118499190612548565b6118955760405162461bcd60e51b815260206004820152601b60248201527f41432e6f67633a206e6f742067656e6572616c20636f756e73656c00000000006044820152606401610544565b8161189e6122ca565b60405163067488cf60e01b815260ff831660048201526001600160a01b03919091169063067488cf9060240160206040518083038186803b1580156118e257600080fd5b505afa1580156118f6573d6000803e3d6000fd5b505050506040513d601f19601f8201168201806040525081019061191a9190612548565b6119725760405162461bcd60e51b8152602060048201526024808201527f5348412e74656d705265616479466f723a2054656d706c617465204e4f5420726044820152636561647960e01b6064820152608401610544565b6119fe61197d6122ca565b60405163277e8af960e11b815260ff861660048201526001600160a01b039190911690634efd15f29060240160206040518083038186803b1580156119c157600080fd5b505afa1580156119d5573d6000803e3d6000fd5b505050506040513d601f19601f820116820180604052508101906119f991906127cf565b612323565b91506000611a0a611481565b90506000611a1661070e565b60005460015460405163410f747560e11b815264ffffffffff861660048201523060248201526001600160a01b039283166044820152908216606482015291925085169063821ee8ea90608401600060405180830381600087803b158015611a7d57600080fd5b505af1158015611a91573d6000803e3d6000fd5b5050604051633178a9a960e01b815264ffffffffff841660048201526001600160a01b0387169250633178a9a99150602401600060405180830381600087803b158015611add57600080fd5b505af1158015611af1573d6000803e3d6000fd5b5050505060ff85166000818152600560205260409081902080546001600160a01b0319166001600160a01b038816179055516392f13c3f60e01b815260066004820152602481019190915273__$8c1a4844a0a0988ea2454cf87145a95df1$__906392f13c3f9060440160206040518083038186803b158015611b7357600080fd5b505af4158015611b87573d6000803e3d6000fd5b505050506040513d601f19601f82011682018060405250810190611bab9190612548565b50505050919050565b60405163c2b46a8560e01b81526006600482015260009073__$8c1a4844a0a0988ea2454cf87145a95df1$__9063c2b46a85906024015b60206040518083038186803b158015611c0357600080fd5b505af4158015611c17573d6000803e3d6000fd5b505050506040513d601f19601f82011682018060405250810190610795919061278d565b73__$364aad554dc80380f414546becdd2c1584$__63a8ef95ac6002684174746f726e65797360b81b611c6c61210a565b6040516001600160e01b031960e086901b1681526004810193909352602483019190915264ffffffffff16604482015260640160206040518083038186803b158015611cb757600080fd5b505af4158015611ccb573d6000803e3d6000fd5b505050506040513d601f19601f82011682018060405250810190611cef9190612548565b611d0b5760405162461bcd60e51b81526004016105449061256a565b6040516392fd02df60e01b81526006600482015260ff8216602482015273__$8c1a4844a0a0988ea2454cf87145a95df1$__906392fd02df9060440160206040518083038186803b158015611d5f57600080fd5b505af4158015611d73573d6000803e3d6000fd5b505050506040513d601f19601f82011682018060405250810190611d979190612548565b15610fe25760ff16600090815260056020526040902080546001600160a01b0319169055565b60405163c2b46a8560e01b81526009600482015260009073__$8c1a4844a0a0988ea2454cf87145a95df1$__9063c2b46a8590602401611beb565b600083611e0481611097565b611e205760405162461bcd60e51b8152600401610544906125d1565b60008581526005602052604090819020549051638e5a886f60e01b81526001600160a01b0386811660048301526024820186905290911690638e5a886f906044016108d7565b604051633c3e56c160e11b81526002600482015260009073__$364aad554dc80380f414546becdd2c1584$__9063787cad829060240160206040518083038186803b158015611eb457600080fd5b505af4158015611ec8573d6000803e3d6000fd5b505050506040513d601f19601f8201168201806040525081019061079591906127cf565b604051633b11adbf60e21b81526002600482015233602482015273__$364aad554dc80380f414546becdd2c1584$__9063ec46b6fc9060440160206040518083038186803b158015611f3d57600080fd5b505af4158015611f51573d6000803e3d6000fd5b505050506040513d601f19601f82011682018060405250810190611f759190612548565b611f915760405162461bcd60e51b815260040161054490612673565b600254600160f01b900460ff16600114611fed5760405162461bcd60e51b815260206004820181905260248201527f41432e6f6e6c7950656e64696e673a20446f632069732066696e616c697a65646044820152606401610544565b60405163cc99e11b60e01b815260026004820152684174746f726e65797360b81b602482015273__$364aad554dc80380f414546becdd2c1584$__9063cc99e11b9060440160006040518083038186803b15801561204a57600080fd5b505af415801561205e573d6000803e3d6000fd5b5050604051632725ebef60e21b8152600260048201526000602482015273__$364aad554dc80380f414546becdd2c1584$__9250639c97afbc915060440160006040518083038186803b1580156120b457600080fd5b505af41580156120c8573d6000803e3d6000fd5b50506002805460ff60f01b1916600160f11b17905550506040517f35012b512309c322acf68632cd6cb702ff0e1d776fbe9394e38ffc13b434fe7590600090a1565b60008054604051634de835e760e11b81523360048201526001600160a01b0390911690639bd06bce90602401602060405180830381600087803b15801561215057600080fd5b505af1158015610771573d6000803e3d6000fd5b6000546001600160a01b0316156121b55760405162461bcd60e51b815260206004820152601560248201527430b63932b0b23c9039b2ba103932b3a1b2b73a32b960591b6044820152606401610544565b6040516001600160a01b03821681527f318da6c7624c71cbc0afe346c9d8827f119d0ecefb241a7b0c87217a076a8e029060200160405180910390a1600080546001600160a01b0319166001600160a01b0392909216919091179055565b6001546001600160a01b03161561226c5760405162461bcd60e51b815260206004820152601960248201527f616c7265616479207365742067656e6572616c4b6565706572000000000000006044820152606401610544565b6040516001600160a01b03821681527fe513d3e0f0d0a3877029dcc588748679a7a3450ec1ec7ed56d96bd012c3e61aa9060200160405180910390a1600180546001600160a01b0319166001600160a01b0392909216919091179055565b60015460405163381baea360e21b8152600360048201526000916001600160a01b03169063e06eba8c9060240160206040518083038186803b15801561230f57600080fd5b505afa158015611ec8573d6000803e3d6000fd5b6000808260601b9050604051733d602d80600a3d3981f3363d3d373d3d3d363d7360601b81528160148201526e5af43d82803e903d91602b57fd5bf360881b60288201526037816000f0949350505050565b60006020828403121561238757600080fd5b5035919050565b64ffffffffff81168114610fe257600080fd5b600080604083850312156123b457600080fd5b8235915060208301356123c68161238e565b809150509250929050565b6001600160a01b0381168114610fe257600080fd5b6000806000606084860312156123fb57600080fd5b83359250602084013561240d816123d1565b929592945050506040919091013590565b60006020828403121561243057600080fd5b81356111988161238e565b6020808252825182820181905260009190848201906040850190845b8181101561247357835183529284019291840191600101612457565b50909695505050505050565b60006020828403121561249157600080fd5b8135611198816123d1565b61ffff81168114610fe257600080fd5b6000602082840312156124be57600080fd5b81356111988161249c565b600080600080608085870312156124df57600080fd5b84356124ea8161238e565b935060208501356124fa816123d1565b9250604085013561250a816123d1565b9150606085013561251a816123d1565b939692955090935050565b60006020828403121561253757600080fd5b813560ff8116811461119857600080fd5b60006020828403121561255a57600080fd5b8151801515811461119857600080fd5b60208082526013908201527241432e6f743a206e6f74204174746f726e657960681b604082015260600190565b6000602082840312156125a957600080fd5b81516111988161249c565b6000602082840312156125c657600080fd5b81516111988161238e565b6020808252602c908201527f5348412e7469746c6545786973743a2053484120646f6573206e6f742068617660408201526b652073756368207469746c6560a01b606082015260800190565b60208082526036908201527f41432e6f776e65724f72446972656374426f6f6b65657065723a206e6569746860408201527532b91037bbb732b9103737b9103137b7b5b2b2b832b960511b606082015260800190565b60208082526026908201527f41432e6f6e6c794469726563744b65657065723a206e6f74206469726563742060408201526535b2b2b832b960d11b606082015260800190565b634e487b7160e01b600052604160045260246000fd5b600060208083850312156126e257600080fd5b825167ffffffffffffffff808211156126fa57600080fd5b818501915085601f83011261270e57600080fd5b815181811115612720576127206126b9565b8060051b604051601f19603f83011681018181108582111715612745576127456126b9565b60405291825284820192508381018501918883111561276357600080fd5b938501935b8285101561278157845184529385019392850192612768565b98975050505050505050565b60006020828403121561279f57600080fd5b5051919050565b60006000198214156127c857634e487b7160e01b600052601160045260246000fd5b5060010190565b6000602082840312156127e157600080fd5b8151611198816123d156fea2646970667358221220cc453458f68a2ba57f94e922141da5b9232d525278832130228667d9bb394c2f64736f6c63430008080033",
    "sourcePath": "/Users/kaptain/github.com/hardhat/comboox/contracts/books/boh/ShareholdersAgreement.sol",
    "compiler": {
        "name": "solc",
        "version": "0.8.8+commit.dddeac2f"
    },
    "functionHashes": {
        "abandonRole(bytes32)": "3da9a600",
        "addRule(bytes32)": "05ee7735",
        "createTerm(uint8)": "b71754c7",
        "finalizeTerms()": "8969d43a",
        "finalized()": "b3f05b97",
        "getBookeeper()": "ed211023",
        "getGeneralCounsel()": "103f6edd",
        "getOwner()": "893d20e8",
        "getRule(uint256)": "48462037",
        "getSigPage()": "b931f29b",
        "getTerm(uint256)": "346ba941",
        "grantRole(bytes32,uint40)": "74099815",
        "hasRole(bytes32,uint40)": "79b2ec12",
        "hasRule(uint256)": "379ef4a6",
        "hasTitle(uint256)": "71765449",
        "init(uint40,address,address,address)": "821ee8ea",
        "lockContents()": "f045a769",
        "qtyOfRules()": "d0c504b0",
        "qtyOfTerms()": "bc3ffc70",
        "removeRule(uint16)": "63068e7f",
        "removeTerm(uint8)": "cd75bd3f",
        "renounceRole(bytes32)": "8bb9c5bf",
        "revokeRole(bytes32,uint40)": "17c51fec",
        "rules()": "52f6747a",
        "setDirectKeeper(address)": "6be8496f",
        "setGeneralCounsel(uint40)": "3178a9a9",
        "setOwner(uint40)": "7ba706e8",
        "setRoleAdmin(bytes32,uint40)": "16dc517e",
        "setSigPage(address)": "5fa3140c",
        "termIsExempted(uint256,address,bytes32)": "2f88bb5a",
        "termIsTriggered(uint256,address,bytes32)": "e179f981",
        "titles()": "a9acd944"
    },
    "gasEstimates": {
        "creation": {
            "codeDepositCost": "2054800",
            "executionCost": "2185",
            "totalCost": "2056985"
        },
        "external": {
            "abandonRole(bytes32)": "infinite",
            "addRule(bytes32)": "infinite",
            "createTerm(uint8)": "infinite",
            "finalizeTerms()": "infinite",
            "finalized()": "2438",
            "getBookeeper()": "infinite",
            "getGeneralCounsel()": "infinite",
            "getOwner()": "infinite",
            "getRule(uint256)": "2506",
            "getSigPage()": "2398",
            "getTerm(uint256)": "2567",
            "grantRole(bytes32,uint40)": "infinite",
            "hasRole(bytes32,uint40)": "infinite",
            "hasRule(uint256)": "infinite",
            "hasTitle(uint256)": "infinite",
            "init(uint40,address,address,address)": "infinite",
            "lockContents()": "infinite",
            "qtyOfRules()": "infinite",
            "qtyOfTerms()": "infinite",
            "removeRule(uint16)": "infinite",
            "removeTerm(uint8)": "infinite",
            "renounceRole(bytes32)": "infinite",
            "revokeRole(bytes32,uint40)": "infinite",
            "rules()": "infinite",
            "setDirectKeeper(address)": "infinite",
            "setGeneralCounsel(uint40)": "infinite",
            "setOwner(uint40)": "infinite",
            "setRoleAdmin(bytes32,uint40)": "infinite",
            "setSigPage(address)": "infinite",
            "termIsExempted(uint256,address,bytes32)": "infinite",
            "termIsTriggered(uint256,address,bytes32)": "infinite",
            "titles()": "infinite"
        }
    }
}