{
    "contractName": "ShareholdersAgreement",
    "abi": [
        {
            "anonymous": false,
            "inputs": [],
            "name": "CirculateDoc",
            "type": "event"
        },
        {
            "anonymous": false,
            "inputs": [
                {
                    "indexed": false,
                    "internalType": "uint256",
                    "name": "owner",
                    "type": "uint256"
                },
                {
                    "indexed": false,
                    "internalType": "address",
                    "name": "directKeeper",
                    "type": "address"
                },
                {
                    "indexed": false,
                    "internalType": "address",
                    "name": "regCenter",
                    "type": "address"
                },
                {
                    "indexed": false,
                    "internalType": "address",
                    "name": "generalKeeper",
                    "type": "address"
                }
            ],
            "name": "Init",
            "type": "event"
        },
        {
            "anonymous": false,
            "inputs": [],
            "name": "LockContents",
            "type": "event"
        },
        {
            "anonymous": false,
            "inputs": [
                {
                    "indexed": false,
                    "internalType": "address",
                    "name": "target",
                    "type": "address"
                }
            ],
            "name": "RemoveDirectKeeper",
            "type": "event"
        },
        {
            "anonymous": false,
            "inputs": [
                {
                    "indexed": false,
                    "internalType": "address",
                    "name": "keeper",
                    "type": "address"
                }
            ],
            "name": "SetDirectKeeper",
            "type": "event"
        },
        {
            "anonymous": false,
            "inputs": [
                {
                    "indexed": false,
                    "internalType": "uint256",
                    "name": "acct",
                    "type": "uint256"
                }
            ],
            "name": "SetGeneralCounsel",
            "type": "event"
        },
        {
            "anonymous": false,
            "inputs": [
                {
                    "indexed": false,
                    "internalType": "uint256",
                    "name": "acct",
                    "type": "uint256"
                }
            ],
            "name": "SetOwner",
            "type": "event"
        },
        {
            "anonymous": false,
            "inputs": [
                {
                    "indexed": false,
                    "internalType": "bool",
                    "name": "initPage",
                    "type": "bool"
                },
                {
                    "indexed": false,
                    "internalType": "uint256",
                    "name": "signingDays",
                    "type": "uint256"
                },
                {
                    "indexed": false,
                    "internalType": "uint256",
                    "name": "closingDays",
                    "type": "uint256"
                }
            ],
            "name": "SetTiming",
            "type": "event"
        },
        {
            "inputs": [
                {
                    "internalType": "bytes32",
                    "name": "role",
                    "type": "bytes32"
                }
            ],
            "name": "abandonRole",
            "outputs": [],
            "stateMutability": "nonpayable",
            "type": "function"
        },
        {
            "inputs": [
                {
                    "internalType": "bool",
                    "name": "beBuyer",
                    "type": "bool"
                },
                {
                    "internalType": "uint256",
                    "name": "seqOfDeal",
                    "type": "uint256"
                },
                {
                    "internalType": "uint256",
                    "name": "acct",
                    "type": "uint256"
                }
            ],
            "name": "addBlank",
            "outputs": [],
            "stateMutability": "nonpayable",
            "type": "function"
        },
        {
            "inputs": [
                {
                    "internalType": "bytes32",
                    "name": "rule",
                    "type": "bytes32"
                }
            ],
            "name": "addRule",
            "outputs": [],
            "stateMutability": "nonpayable",
            "type": "function"
        },
        {
            "inputs": [],
            "name": "circulateDoc",
            "outputs": [],
            "stateMutability": "nonpayable",
            "type": "function"
        },
        {
            "inputs": [],
            "name": "circulated",
            "outputs": [
                {
                    "internalType": "bool",
                    "name": "",
                    "type": "bool"
                }
            ],
            "stateMutability": "view",
            "type": "function"
        },
        {
            "inputs": [
                {
                    "internalType": "uint256",
                    "name": "typeOfDoc",
                    "type": "uint256"
                },
                {
                    "internalType": "uint256",
                    "name": "version",
                    "type": "uint256"
                }
            ],
            "name": "createTerm",
            "outputs": [
                {
                    "internalType": "address",
                    "name": "body",
                    "type": "address"
                }
            ],
            "stateMutability": "nonpayable",
            "type": "function"
        },
        {
            "inputs": [],
            "name": "established",
            "outputs": [
                {
                    "internalType": "bool",
                    "name": "flag",
                    "type": "bool"
                }
            ],
            "stateMutability": "view",
            "type": "function"
        },
        {
            "inputs": [],
            "name": "finalized",
            "outputs": [
                {
                    "internalType": "bool",
                    "name": "",
                    "type": "bool"
                }
            ],
            "stateMutability": "view",
            "type": "function"
        },
        {
            "inputs": [],
            "name": "getBookeeper",
            "outputs": [
                {
                    "internalType": "address",
                    "name": "",
                    "type": "address"
                }
            ],
            "stateMutability": "view",
            "type": "function"
        },
        {
            "inputs": [
                {
                    "internalType": "bool",
                    "name": "initPage",
                    "type": "bool"
                }
            ],
            "name": "getBuyers",
            "outputs": [
                {
                    "internalType": "uint256[]",
                    "name": "buyers",
                    "type": "uint256[]"
                }
            ],
            "stateMutability": "view",
            "type": "function"
        },
        {
            "inputs": [],
            "name": "getCirculateDate",
            "outputs": [
                {
                    "internalType": "uint48",
                    "name": "",
                    "type": "uint48"
                }
            ],
            "stateMutability": "view",
            "type": "function"
        },
        {
            "inputs": [],
            "name": "getClosingDays",
            "outputs": [
                {
                    "internalType": "uint16",
                    "name": "",
                    "type": "uint16"
                }
            ],
            "stateMutability": "view",
            "type": "function"
        },
        {
            "inputs": [],
            "name": "getClosingDeadline",
            "outputs": [
                {
                    "internalType": "uint48",
                    "name": "",
                    "type": "uint48"
                }
            ],
            "stateMutability": "view",
            "type": "function"
        },
        {
            "inputs": [],
            "name": "getGeneralCounsel",
            "outputs": [
                {
                    "internalType": "uint40",
                    "name": "",
                    "type": "uint40"
                }
            ],
            "stateMutability": "view",
            "type": "function"
        },
        {
            "inputs": [],
            "name": "getOwner",
            "outputs": [
                {
                    "internalType": "uint40",
                    "name": "",
                    "type": "uint40"
                }
            ],
            "stateMutability": "view",
            "type": "function"
        },
        {
            "inputs": [
                {
                    "internalType": "bool",
                    "name": "initPage",
                    "type": "bool"
                }
            ],
            "name": "getParasOfPage",
            "outputs": [
                {
                    "components": [
                        {
                            "internalType": "uint40",
                            "name": "signer",
                            "type": "uint40"
                        },
                        {
                            "internalType": "uint48",
                            "name": "sigDate",
                            "type": "uint48"
                        },
                        {
                            "internalType": "uint64",
                            "name": "blocknumber",
                            "type": "uint64"
                        },
                        {
                            "internalType": "bool",
                            "name": "flag",
                            "type": "bool"
                        },
                        {
                            "internalType": "uint16",
                            "name": "para",
                            "type": "uint16"
                        },
                        {
                            "internalType": "uint16",
                            "name": "arg",
                            "type": "uint16"
                        },
                        {
                            "internalType": "uint16",
                            "name": "seq",
                            "type": "uint16"
                        },
                        {
                            "internalType": "uint16",
                            "name": "attr",
                            "type": "uint16"
                        },
                        {
                            "internalType": "uint32",
                            "name": "data",
                            "type": "uint32"
                        }
                    ],
                    "internalType": "struct SigsRepo.Signature",
                    "name": "",
                    "type": "tuple"
                }
            ],
            "stateMutability": "view",
            "type": "function"
        },
        {
            "inputs": [],
            "name": "getParties",
            "outputs": [
                {
                    "internalType": "uint256[]",
                    "name": "parties",
                    "type": "uint256[]"
                }
            ],
            "stateMutability": "view",
            "type": "function"
        },
        {
            "inputs": [
                {
                    "internalType": "uint256",
                    "name": "seq",
                    "type": "uint256"
                }
            ],
            "name": "getRule",
            "outputs": [
                {
                    "internalType": "bytes32",
                    "name": "",
                    "type": "bytes32"
                }
            ],
            "stateMutability": "view",
            "type": "function"
        },
        {
            "inputs": [
                {
                    "internalType": "bool",
                    "name": "initPage",
                    "type": "bool"
                }
            ],
            "name": "getSellers",
            "outputs": [
                {
                    "internalType": "uint256[]",
                    "name": "sellers",
                    "type": "uint256[]"
                }
            ],
            "stateMutability": "view",
            "type": "function"
        },
        {
            "inputs": [],
            "name": "getSigDeadline",
            "outputs": [
                {
                    "internalType": "uint48",
                    "name": "",
                    "type": "uint48"
                }
            ],
            "stateMutability": "view",
            "type": "function"
        },
        {
            "inputs": [
                {
                    "internalType": "bool",
                    "name": "initPage",
                    "type": "bool"
                },
                {
                    "internalType": "uint256",
                    "name": "acct",
                    "type": "uint256"
                }
            ],
            "name": "getSigOfParty",
            "outputs": [
                {
                    "internalType": "uint256[]",
                    "name": "seqOfDeals",
                    "type": "uint256[]"
                },
                {
                    "components": [
                        {
                            "internalType": "uint40",
                            "name": "signer",
                            "type": "uint40"
                        },
                        {
                            "internalType": "uint48",
                            "name": "sigDate",
                            "type": "uint48"
                        },
                        {
                            "internalType": "uint64",
                            "name": "blocknumber",
                            "type": "uint64"
                        },
                        {
                            "internalType": "bool",
                            "name": "flag",
                            "type": "bool"
                        },
                        {
                            "internalType": "uint16",
                            "name": "para",
                            "type": "uint16"
                        },
                        {
                            "internalType": "uint16",
                            "name": "arg",
                            "type": "uint16"
                        },
                        {
                            "internalType": "uint16",
                            "name": "seq",
                            "type": "uint16"
                        },
                        {
                            "internalType": "uint16",
                            "name": "attr",
                            "type": "uint16"
                        },
                        {
                            "internalType": "uint32",
                            "name": "data",
                            "type": "uint32"
                        }
                    ],
                    "internalType": "struct SigsRepo.Signature",
                    "name": "sig",
                    "type": "tuple"
                },
                {
                    "internalType": "bytes32",
                    "name": "sigHash",
                    "type": "bytes32"
                }
            ],
            "stateMutability": "view",
            "type": "function"
        },
        {
            "inputs": [],
            "name": "getSigningDays",
            "outputs": [
                {
                    "internalType": "uint16",
                    "name": "",
                    "type": "uint16"
                }
            ],
            "stateMutability": "view",
            "type": "function"
        },
        {
            "inputs": [
                {
                    "internalType": "bool",
                    "name": "initPage",
                    "type": "bool"
                }
            ],
            "name": "getSigsOfPage",
            "outputs": [
                {
                    "components": [
                        {
                            "internalType": "uint40",
                            "name": "signer",
                            "type": "uint40"
                        },
                        {
                            "internalType": "uint48",
                            "name": "sigDate",
                            "type": "uint48"
                        },
                        {
                            "internalType": "uint64",
                            "name": "blocknumber",
                            "type": "uint64"
                        },
                        {
                            "internalType": "bool",
                            "name": "flag",
                            "type": "bool"
                        },
                        {
                            "internalType": "uint16",
                            "name": "para",
                            "type": "uint16"
                        },
                        {
                            "internalType": "uint16",
                            "name": "arg",
                            "type": "uint16"
                        },
                        {
                            "internalType": "uint16",
                            "name": "seq",
                            "type": "uint16"
                        },
                        {
                            "internalType": "uint16",
                            "name": "attr",
                            "type": "uint16"
                        },
                        {
                            "internalType": "uint32",
                            "name": "data",
                            "type": "uint32"
                        }
                    ],
                    "internalType": "struct SigsRepo.Signature[]",
                    "name": "sigsOfBuyer",
                    "type": "tuple[]"
                },
                {
                    "components": [
                        {
                            "internalType": "uint40",
                            "name": "signer",
                            "type": "uint40"
                        },
                        {
                            "internalType": "uint48",
                            "name": "sigDate",
                            "type": "uint48"
                        },
                        {
                            "internalType": "uint64",
                            "name": "blocknumber",
                            "type": "uint64"
                        },
                        {
                            "internalType": "bool",
                            "name": "flag",
                            "type": "bool"
                        },
                        {
                            "internalType": "uint16",
                            "name": "para",
                            "type": "uint16"
                        },
                        {
                            "internalType": "uint16",
                            "name": "arg",
                            "type": "uint16"
                        },
                        {
                            "internalType": "uint16",
                            "name": "seq",
                            "type": "uint16"
                        },
                        {
                            "internalType": "uint16",
                            "name": "attr",
                            "type": "uint16"
                        },
                        {
                            "internalType": "uint32",
                            "name": "data",
                            "type": "uint32"
                        }
                    ],
                    "internalType": "struct SigsRepo.Signature[]",
                    "name": "sigsOfSeller",
                    "type": "tuple[]"
                }
            ],
            "stateMutability": "view",
            "type": "function"
        },
        {
            "inputs": [
                {
                    "internalType": "uint256",
                    "name": "title",
                    "type": "uint256"
                }
            ],
            "name": "getTerm",
            "outputs": [
                {
                    "internalType": "address",
                    "name": "",
                    "type": "address"
                }
            ],
            "stateMutability": "view",
            "type": "function"
        },
        {
            "inputs": [
                {
                    "internalType": "bytes32",
                    "name": "role",
                    "type": "bytes32"
                },
                {
                    "internalType": "uint256",
                    "name": "acct",
                    "type": "uint256"
                }
            ],
            "name": "grantRole",
            "outputs": [],
            "stateMutability": "nonpayable",
            "type": "function"
        },
        {
            "inputs": [
                {
                    "internalType": "bytes32",
                    "name": "role",
                    "type": "bytes32"
                },
                {
                    "internalType": "uint256",
                    "name": "acct",
                    "type": "uint256"
                }
            ],
            "name": "hasRole",
            "outputs": [
                {
                    "internalType": "bool",
                    "name": "",
                    "type": "bool"
                }
            ],
            "stateMutability": "view",
            "type": "function"
        },
        {
            "inputs": [
                {
                    "internalType": "uint256",
                    "name": "seq",
                    "type": "uint256"
                }
            ],
            "name": "hasRule",
            "outputs": [
                {
                    "internalType": "bool",
                    "name": "",
                    "type": "bool"
                }
            ],
            "stateMutability": "view",
            "type": "function"
        },
        {
            "inputs": [
                {
                    "internalType": "uint256",
                    "name": "title",
                    "type": "uint256"
                }
            ],
            "name": "hasTitle",
            "outputs": [
                {
                    "internalType": "bool",
                    "name": "",
                    "type": "bool"
                }
            ],
            "stateMutability": "view",
            "type": "function"
        },
        {
            "inputs": [
                {
                    "internalType": "uint256",
                    "name": "owner",
                    "type": "uint256"
                },
                {
                    "internalType": "address",
                    "name": "directKeeper",
                    "type": "address"
                },
                {
                    "internalType": "address",
                    "name": "regCenter",
                    "type": "address"
                },
                {
                    "internalType": "address",
                    "name": "generalKeeper",
                    "type": "address"
                }
            ],
            "name": "init",
            "outputs": [],
            "stateMutability": "nonpayable",
            "type": "function"
        },
        {
            "inputs": [
                {
                    "internalType": "bool",
                    "name": "initPage",
                    "type": "bool"
                },
                {
                    "internalType": "uint256",
                    "name": "acct",
                    "type": "uint256"
                }
            ],
            "name": "isBuyer",
            "outputs": [
                {
                    "internalType": "bool",
                    "name": "flag",
                    "type": "bool"
                }
            ],
            "stateMutability": "view",
            "type": "function"
        },
        {
            "inputs": [
                {
                    "internalType": "uint256",
                    "name": "acct",
                    "type": "uint256"
                }
            ],
            "name": "isParty",
            "outputs": [
                {
                    "internalType": "bool",
                    "name": "flag",
                    "type": "bool"
                }
            ],
            "stateMutability": "view",
            "type": "function"
        },
        {
            "inputs": [
                {
                    "internalType": "bool",
                    "name": "initPage",
                    "type": "bool"
                },
                {
                    "internalType": "uint256",
                    "name": "acct",
                    "type": "uint256"
                }
            ],
            "name": "isSeller",
            "outputs": [
                {
                    "internalType": "bool",
                    "name": "flag",
                    "type": "bool"
                }
            ],
            "stateMutability": "view",
            "type": "function"
        },
        {
            "inputs": [
                {
                    "internalType": "uint256",
                    "name": "acct",
                    "type": "uint256"
                }
            ],
            "name": "isSigner",
            "outputs": [
                {
                    "internalType": "bool",
                    "name": "flag",
                    "type": "bool"
                }
            ],
            "stateMutability": "view",
            "type": "function"
        },
        {
            "inputs": [],
            "name": "lockContents",
            "outputs": [],
            "stateMutability": "nonpayable",
            "type": "function"
        },
        {
            "inputs": [],
            "name": "qtyOfRules",
            "outputs": [
                {
                    "internalType": "uint256",
                    "name": "",
                    "type": "uint256"
                }
            ],
            "stateMutability": "view",
            "type": "function"
        },
        {
            "inputs": [],
            "name": "qtyOfTerms",
            "outputs": [
                {
                    "internalType": "uint256",
                    "name": "",
                    "type": "uint256"
                }
            ],
            "stateMutability": "view",
            "type": "function"
        },
        {
            "inputs": [
                {
                    "internalType": "uint256",
                    "name": "seqOfDeal",
                    "type": "uint256"
                },
                {
                    "internalType": "uint256",
                    "name": "signer",
                    "type": "uint256"
                },
                {
                    "internalType": "uint256",
                    "name": "sigDate",
                    "type": "uint256"
                },
                {
                    "internalType": "bytes32",
                    "name": "sigHash",
                    "type": "bytes32"
                }
            ],
            "name": "regSig",
            "outputs": [
                {
                    "internalType": "bool",
                    "name": "flag",
                    "type": "bool"
                }
            ],
            "stateMutability": "nonpayable",
            "type": "function"
        },
        {
            "inputs": [
                {
                    "internalType": "address",
                    "name": "target",
                    "type": "address"
                }
            ],
            "name": "removeDirectKeeper",
            "outputs": [],
            "stateMutability": "nonpayable",
            "type": "function"
        },
        {
            "inputs": [
                {
                    "internalType": "uint256",
                    "name": "seq",
                    "type": "uint256"
                }
            ],
            "name": "removeRule",
            "outputs": [],
            "stateMutability": "nonpayable",
            "type": "function"
        },
        {
            "inputs": [
                {
                    "internalType": "uint256",
                    "name": "typeOfDoc",
                    "type": "uint256"
                }
            ],
            "name": "removeTerm",
            "outputs": [],
            "stateMutability": "nonpayable",
            "type": "function"
        },
        {
            "inputs": [
                {
                    "internalType": "bytes32",
                    "name": "role",
                    "type": "bytes32"
                }
            ],
            "name": "renounceRole",
            "outputs": [],
            "stateMutability": "nonpayable",
            "type": "function"
        },
        {
            "inputs": [
                {
                    "internalType": "bytes32",
                    "name": "role",
                    "type": "bytes32"
                },
                {
                    "internalType": "uint256",
                    "name": "acct",
                    "type": "uint256"
                }
            ],
            "name": "revokeRole",
            "outputs": [],
            "stateMutability": "nonpayable",
            "type": "function"
        },
        {
            "inputs": [],
            "name": "rules",
            "outputs": [
                {
                    "internalType": "uint256[]",
                    "name": "",
                    "type": "uint256[]"
                }
            ],
            "stateMutability": "view",
            "type": "function"
        },
        {
            "inputs": [
                {
                    "internalType": "address",
                    "name": "keeper",
                    "type": "address"
                }
            ],
            "name": "setDirectKeeper",
            "outputs": [],
            "stateMutability": "nonpayable",
            "type": "function"
        },
        {
            "inputs": [
                {
                    "internalType": "uint256",
                    "name": "acct",
                    "type": "uint256"
                }
            ],
            "name": "setGeneralCounsel",
            "outputs": [],
            "stateMutability": "nonpayable",
            "type": "function"
        },
        {
            "inputs": [
                {
                    "internalType": "uint256",
                    "name": "acct",
                    "type": "uint256"
                }
            ],
            "name": "setOwner",
            "outputs": [],
            "stateMutability": "nonpayable",
            "type": "function"
        },
        {
            "inputs": [
                {
                    "internalType": "bytes32",
                    "name": "role",
                    "type": "bytes32"
                },
                {
                    "internalType": "uint256",
                    "name": "acct",
                    "type": "uint256"
                }
            ],
            "name": "setRoleAdmin",
            "outputs": [],
            "stateMutability": "nonpayable",
            "type": "function"
        },
        {
            "inputs": [
                {
                    "internalType": "bool",
                    "name": "initPage",
                    "type": "bool"
                },
                {
                    "internalType": "uint256",
                    "name": "signingDays",
                    "type": "uint256"
                },
                {
                    "internalType": "uint256",
                    "name": "closingDays",
                    "type": "uint256"
                }
            ],
            "name": "setTiming",
            "outputs": [],
            "stateMutability": "nonpayable",
            "type": "function"
        },
        {
            "inputs": [
                {
                    "internalType": "bool",
                    "name": "initPage",
                    "type": "bool"
                },
                {
                    "internalType": "uint256",
                    "name": "caller",
                    "type": "uint256"
                },
                {
                    "internalType": "bytes32",
                    "name": "sigHash",
                    "type": "bytes32"
                }
            ],
            "name": "signDoc",
            "outputs": [
                {
                    "internalType": "bool",
                    "name": "",
                    "type": "bool"
                }
            ],
            "stateMutability": "nonpayable",
            "type": "function"
        },
        {
            "inputs": [
                {
                    "internalType": "uint256",
                    "name": "title",
                    "type": "uint256"
                },
                {
                    "internalType": "address",
                    "name": "ia",
                    "type": "address"
                },
                {
                    "internalType": "uint256",
                    "name": "seqOfDeal",
                    "type": "uint256"
                }
            ],
            "name": "termIsExempted",
            "outputs": [
                {
                    "internalType": "bool",
                    "name": "",
                    "type": "bool"
                }
            ],
            "stateMutability": "view",
            "type": "function"
        },
        {
            "inputs": [
                {
                    "internalType": "uint256",
                    "name": "title",
                    "type": "uint256"
                },
                {
                    "internalType": "address",
                    "name": "ia",
                    "type": "address"
                },
                {
                    "internalType": "uint256",
                    "name": "seqOfDeal",
                    "type": "uint256"
                }
            ],
            "name": "termIsTriggered",
            "outputs": [
                {
                    "internalType": "bool",
                    "name": "",
                    "type": "bool"
                }
            ],
            "stateMutability": "view",
            "type": "function"
        },
        {
            "inputs": [],
            "name": "titles",
            "outputs": [
                {
                    "internalType": "uint256[]",
                    "name": "",
                    "type": "uint256[]"
                }
            ],
            "stateMutability": "view",
            "type": "function"
        }
    ],
    "bytecode": "608060405234801561001057600080fd5b50614589806100206000396000f3fe608060405234801561001057600080fd5b506004361061030c5760003560e01c80636be8496f1161019d578063ac067843116100e9578063d0c504b0116100a2578063dc890da91161007c578063dc890da9146106d4578063ed211023146106e7578063f045a769146106ef578063f2724eb2146106f757600080fd5b8063d0c504b0146106a6578063d5926e3f146106ae578063d70da38b146106c157600080fd5b8063ac06784314610631578063b115233514610644578063b3f05b9714610657578063b69046e81461066b578063bc3ffc701461067e578063ccb2f4151461068657600080fd5b80638bb9c5bf11610156578063a4052db411610130578063a4052db4146105fb578063a8311aa81461060e578063a959c69c14610616578063a9acd9441461062957600080fd5b80638bb9c5bf146105cd5780638c5f9170146105e05780638d6a31d4146105f357600080fd5b80636be8496f1461057157806371765449146105845780637e063c5a146105975780638041494e146105aa578063893ce252146105bd578063893d20e8146105c557600080fd5b80633da9a6001161025c5780635171ebd41161021557806357330fd2116101ef57806357330fd21461053b5780635b041ead146105435780635d24f35b1461054b5780635d7ad88f1461055e57600080fd5b80635171ebd41461050057806351b171a31461051357806352f6747a1461052657600080fd5b80633da9a600146104765780634844f5411461048957806348462037146104915780634a14beb1146104bf5780635041de82146104d257806350a31ef9146104ed57600080fd5b80631b6ea9f9116102c957806328769ede116102a357806328769ede146103ed5780633436731314610400578063346ba94114610422578063379ef4a61461046357600080fd5b80631b6ea9f9146103b15780631c315ec6146103c457806325abe790146103cc57600080fd5b806305ee773514610311578063094f0cfc14610326578063103f6edd14610339578063157116201461035c5780631958ac5a1461037b57806319d61ad91461039e575b600080fd5b61032461031f36600461385f565b61070a565b005b610324610334366004613886565b610888565b610341610b3d565b60405164ffffffffff90911681526020015b60405180910390f35b610364610bc9565b60405165ffffffffffff9091168152602001610353565b61038e610389366004613886565b610c4f565b6040519015158152602001610353565b6103246103ac3660046138bb565b610e33565b6103246103bf3660046138bb565b610ec5565b61038e610eeb565b6103df6103da3660046138dd565b610f71565b6040516103539291906139f6565b61038e6103fb36600461385f565b611023565b61041361040e366004613a1b565b611146565b60405161035393929190613a77565b61044b61043036600461385f565b6000908152600e60205260409020546001600160a01b031690565b6040516001600160a01b039091168152602001610353565b61038e61047136600461385f565b61120e565b61032461048436600461385f565b611250565b61038e6112db565b6104b161049f36600461385f565b60009081526011602052604090205490565b604051908152602001610353565b6103246104cd36600461385f565b611460565b6104da6116bd565b60405161ffff9091168152602001610353565b6103246104fb366004613886565b611743565b61032461050e3660046138bb565b6118e7565b61038e610521366004613a1b565b61190d565b61052e611a2f565b6040516103539190613aaa565b610364611aba565b610324611af4565b61038e610559366004613ad2565b611d29565b61032461056c366004613b0a565b611ea7565b61032461057f366004613b0a565b61201e565b61038e61059236600461385f565b6120d0565b61038e6105a53660046138bb565b612112565b6103246105b836600461385f565b61215b565b610364612214565b61034161224e565b6103246105db36600461385f565b612289565b61038e6105ee36600461385f565b6122ae565b6104da6124a0565b61038e610609366004613b27565b6124da565b61052e6126ab565b61052e6106243660046138dd565b61288b565b61052e6129a7565b61038e61063f366004613ad2565b6129e2565b61038e610652366004613a1b565b612a83565b60028054600160f01b900460ff161461038e565b61032461067936600461385f565b612b08565b6104b1612c87565b6106996106943660046138dd565b612d0e565b6040516103539190613b59565b6104b1612e1e565b61044b6106bc3660046138bb565b612e59565b6103246106cf36600461385f565b613138565b6103246106e2366004613b68565b6132a8565b61044b61338a565b610324613410565b61052e6107053660046138dd565b613654565b73__$364aad554dc80380f414546becdd2c1584$__63a8ef95ac6002684174746f726e65797360b81b61073b6136cb565b6040516001600160e01b031960e086901b1681526004810193909352602483019190915264ffffffffff16604482015260640160206040518083038186803b15801561078657600080fd5b505af415801561079a573d6000803e3d6000fd5b505050506040513d601f19601f820116820180604052508101906107be9190613bcb565b6107e35760405162461bcd60e51b81526004016107da90613be8565b60405180910390fd5b60f081901c60008181526011602052604090819020839055516392f13c3f60e01b8152601260048201526024810182905273__$8c1a4844a0a0988ea2454cf87145a95df1$__906392f13c3f9060440160206040518083038186803b15801561084b57600080fd5b505af415801561085f573d6000803e3d6000fd5b505050506040513d601f19601f820116820180604052508101906108839190613bcb565b505050565b73__$364aad554dc80380f414546becdd2c1584$__63a8ef95ac6002684174746f726e65797360b81b6108b96136cb565b6040516001600160e01b031960e086901b1681526004810193909352602483019190915264ffffffffff16604482015260640160206040518083038186803b15801561090457600080fd5b505af4158015610918573d6000803e3d6000fd5b505050506040513d601f19601f8201168201806040525081019061093c9190613bcb565b806109bd57506001546040516335d2155560e11b81523360048201526001600160a01b0390911690636ba42aaa9060240160206040518083038186803b15801561098557600080fd5b505afa158015610999573d6000803e3d6000fd5b505050506040513d601f19601f820116820180604052508101906109bd9190613bcb565b610a095760405162461bcd60e51b815260206004820152601e60248201527f6e656974686572204174746f726e6579206e6f7220426f6f6b6565706572000060448201526064016107da565b82610a8457604051630432bea560e41b815260096004820152602481018390526044810182905273__$47b88465a20692378cf12e8e0c338f01dd$__9063432bea509060640160006040518083038186803b158015610a6757600080fd5b505af4158015610a7b573d6000803e3d6000fd5b50505050610af5565b604051630432bea560e41b8152600481810152602481018390526044810182905273__$47b88465a20692378cf12e8e0c338f01dd$__9063432bea509060640160006040518083038186803b158015610adc57600080fd5b505af4158015610af0573d6000803e3d6000fd5b505050505b604080518415158152602081018490529081018290527fe5af01cd0ebc78ecfefaf7563ce0e5082cb4eca465bd378e6cc9f6115f5d158b9060600160405180910390a1505050565b60405163e8c0cc1d60e01b81526002600482015260009073__$364aad554dc80380f414546becdd2c1584$__9063e8c0cc1d906024015b60206040518083038186803b158015610b8c57600080fd5b505af4158015610ba0573d6000803e3d6000fd5b505050506040513d601f19601f82011682018060405250810190610bc49190613c40565b905090565b6040516361a92f2160e11b815260048181015260009073__$47b88465a20692378cf12e8e0c338f01dd$__9063c3525e42906024015b60206040518083038186803b158015610c1757600080fd5b505af4158015610c2b573d6000803e3d6000fd5b505050506040513d601f19601f82011682018060405250810190610bc49190613c71565b604051633b11adbf60e21b81526002600482015233602482015260009073__$364aad554dc80380f414546becdd2c1584$__9063ec46b6fc9060440160206040518083038186803b158015610ca357600080fd5b505af4158015610cb7573d6000803e3d6000fd5b505050506040513d601f19601f82011682018060405250810190610cdb9190613bcb565b80610d5c57506001546040516335d2155560e11b81523360048201526001600160a01b0390911690636ba42aaa9060240160206040518083038186803b158015610d2457600080fd5b505afa158015610d38573d6000803e3d6000fd5b505050506040513d601f19601f82011682018060405250810190610d5c9190613bcb565b610d785760405162461bcd60e51b81526004016107da90613c8c565b8315610e2357600460005b6040516368c2325360e01b8152600591909102919091016004820152602481018490526044810183905273__$47b88465a20692378cf12e8e0c338f01dd$__906368c232539060640160206040518083038186803b158015610de457600080fd5b505af4158015610df8573d6000803e3d6000fd5b505050506040513d601f19601f82011682018060405250810190610e1c9190613bcb565b9050610e2c565b60046001610d83565b9392505050565b73__$364aad554dc80380f414546becdd2c1584$__6382daafaa60028484610e596136cb565b6040516001600160e01b031960e087901b16815260048101949094526024840192909252604483015264ffffffffff16606482015260840160006040518083038186803b158015610ea957600080fd5b505af4158015610ebd573d6000803e3d6000fd5b505050505050565b73__$364aad554dc80380f414546becdd2c1584$__636320d75e60028484610e596136cb565b60405163370143a760e21b815260048181015260009073__$47b88465a20692378cf12e8e0c338f01dd$__9063dc050e9c906024015b60206040518083038186803b158015610f3957600080fd5b505af4158015610f4d573d6000803e3d6000fd5b505050506040513d601f19601f82011682018060405250810190610bc49190613bcb565b606080821561101a57600460005b6005020173__$47b88465a20692378cf12e8e0c338f01dd$__63c018ec8790916040518263ffffffff1660e01b8152600401610fbd91815260200190565b60006040518083038186803b158015610fd557600080fd5b505af4158015610fe9573d6000803e3d6000fd5b505050506040513d6000823e601f3d908101601f191682016040526110119190810190613f1a565b91509150915091565b60046001610f7f565b6040516324d431a360e01b81526004818101526024810182905260009073__$47b88465a20692378cf12e8e0c338f01dd$__906324d431a39060440160206040518083038186803b15801561107757600080fd5b505af415801561108b573d6000803e3d6000fd5b505050506040513d601f19601f820116820180604052508101906110af9190613bcb565b8061114057506040516324d431a360e01b8152600960048201526024810183905273__$47b88465a20692378cf12e8e0c338f01dd$__906324d431a3906044015b60206040518083038186803b15801561110857600080fd5b505af415801561111c573d6000803e3d6000fd5b505050506040513d601f19601f820116820180604052508101906111409190613bcb565b92915050565b6060611150613813565b600084156111fe57600460005b604051630b5b0ad560e01b81526005919091029190910160048201526024810185905273__$47b88465a20692378cf12e8e0c338f01dd$__90630b5b0ad59060440160006040518083038186803b1580156111b757600080fd5b505af41580156111cb573d6000803e3d6000fd5b505050506040513d6000823e601f3d908101601f191682016040526111f39190810190613fe3565b925092509250611207565b6004600161115d565b9250925092565b604051633f5f77cd60e01b8152601260048201526024810182905260009073__$8c1a4844a0a0988ea2454cf87145a95df1$__90633f5f77cd906044016110f0565b73__$364aad554dc80380f414546becdd2c1584$__63c51b295f6002836112756136cb565b6040516001600160e01b031960e086901b1681526004810193909352602483019190915264ffffffffff16604482015260640160006040518083038186803b1580156112c057600080fd5b505af41580156112d4573d6000803e3d6000fd5b5050505050565b60405163c2b46a8560e01b8152600a6004820152600090819073__$8c1a4844a0a0988ea2454cf87145a95df1$__9063c2b46a859060240160206040518083038186803b15801561132b57600080fd5b505af415801561133f573d6000803e3d6000fd5b505050506040513d601f19601f82011682018060405250810190611363919061403c565b1161139f576040516318a7841360e11b815260048181015273__$47b88465a20692378cf12e8e0c338f01dd$__9063314f082690602401610f21565b6040516318a7841360e11b81526009600482015273__$47b88465a20692378cf12e8e0c338f01dd$__9063314f08269060240160206040518083038186803b1580156113ea57600080fd5b505af41580156113fe573d6000803e3d6000fd5b505050506040513d601f19601f820116820180604052508101906114229190613bcb565b8015610bc457506040516318a7841360e11b815260048181015273__$47b88465a20692378cf12e8e0c338f01dd$__9063314f082690602401610f21565b604051633b11adbf60e21b81526002600482015233602482015273__$364aad554dc80380f414546becdd2c1584$__9063ec46b6fc9060440160206040518083038186803b1580156114b157600080fd5b505af41580156114c5573d6000803e3d6000fd5b505050506040513d601f19601f820116820180604052508101906114e99190613bcb565b8061158e575073__$364aad554dc80380f414546becdd2c1584$__63fe27108660026115136136cb565b6040516001600160e01b031960e085901b168152600481019290925264ffffffffff16602482015260440160206040518083038186803b15801561155657600080fd5b505af415801561156a573d6000803e3d6000fd5b505050506040513d601f19601f8201168201806040525081019061158e9190613bcb565b6115f95760405162461bcd60e51b815260206004820152603660248201527f41432e6f776e65724f72446972656374426f6f6b65657065723a206e6569746860448201527532b91037bbb732b9103737b9103137b7b5b2b2b832b960511b60648201526084016107da565b73__$364aad554dc80380f414546becdd2c1584$__639b4510de60028361161e6136cb565b6040516001600160e01b031960e086901b1681526004810193909352602483019190915264ffffffffff16604482015260640160006040518083038186803b15801561166957600080fd5b505af415801561167d573d6000803e3d6000fd5b505050507ff2735f34b69be1e6342dea95f9162f84d0db925fab655ca9f1f312ac8cbfc99d816040516116b291815260200190565b60405180910390a150565b604051633143387560e21b815260048181015260009073__$47b88465a20692378cf12e8e0c338f01dd$__9063c50ce1d4906024015b60206040518083038186803b15801561170b57600080fd5b505af415801561171f573d6000803e3d6000fd5b505050506040513d601f19601f82011682018060405250810190610bc49190614055565b604051633b11adbf60e21b81526002600482015233602482015273__$364aad554dc80380f414546becdd2c1584$__9063ec46b6fc9060440160206040518083038186803b15801561179457600080fd5b505af41580156117a8573d6000803e3d6000fd5b505050506040513d601f19601f820116820180604052508101906117cc9190613bcb565b8061184d57506001546040516335d2155560e11b81523360048201526001600160a01b0390911690636ba42aaa9060240160206040518083038186803b15801561181557600080fd5b505afa158015611829573d6000803e3d6000fd5b505050506040513d601f19601f8201168201806040525081019061184d9190613bcb565b6118695760405162461bcd60e51b81526004016107da90613c8c565b604051630dfb57ab60e11b8152600960048201528315156024820152604481018390526064810182905273__$47b88465a20692378cf12e8e0c338f01dd$__90631bf6af569060840160006040518083038186803b1580156118ca57600080fd5b505af41580156118de573d6000803e3d6000fd5b50505050505050565b73__$364aad554dc80380f414546becdd2c1584$__63ee98b31360028484610e596136cb565b6000826119a457604051633f5f77cd60e01b8152600c60048201526024810183905273__$8c1a4844a0a0988ea2454cf87145a95df1$__90633f5f77cd906044015b60206040518083038186803b15801561196757600080fd5b505af415801561197b573d6000803e3d6000fd5b505050506040513d601f19601f8201168201806040525081019061199f9190613bcb565b610e2c565b604051633f5f77cd60e01b8152600760048201526024810183905273__$8c1a4844a0a0988ea2454cf87145a95df1$__90633f5f77cd906044015b60206040518083038186803b1580156119f757600080fd5b505af4158015611a0b573d6000803e3d6000fd5b505050506040513d601f19601f82011682018060405250810190610e2c9190613bcb565b60405163034306e160e21b81526012600482015260609073__$8c1a4844a0a0988ea2454cf87145a95df1$__90630d0c1b84906024015b60006040518083038186803b158015611a7e57600080fd5b505af4158015611a92573d6000803e3d6000fd5b505050506040513d6000823e601f3d908101601f19168201604052610bc49190810190614070565b604051631197dba160e11b815260048181015260009073__$47b88465a20692378cf12e8e0c338f01dd$__9063232fb74290602401610bff565b604051633b11adbf60e21b81526002600482015233602482015273__$364aad554dc80380f414546becdd2c1584$__9063ec46b6fc9060440160206040518083038186803b158015611b4557600080fd5b505af4158015611b59573d6000803e3d6000fd5b505050506040513d601f19601f82011682018060405250810190611b7d9190613bcb565b80611bfe57506001546040516335d2155560e11b81523360048201526001600160a01b0390911690636ba42aaa9060240160206040518083038186803b158015611bc657600080fd5b505afa158015611bda573d6000803e3d6000fd5b505050506040513d601f19601f82011682018060405250810190611bfe9190613bcb565b611c1a5760405162461bcd60e51b81526004016107da90613c8c565b60405163089ee29f60e01b815260048181015273__$47b88465a20692378cf12e8e0c338f01dd$__9063089ee29f9060240160006040518083038186803b158015611c6457600080fd5b505af4158015611c78573d6000803e3d6000fd5b505050506004600160028110611c9057611c90613c15565b6005020173__$47b88465a20692378cf12e8e0c338f01dd$__63089ee29f90916040518263ffffffff1660e01b8152600401611cce91815260200190565b60006040518083038186803b158015611ce657600080fd5b505af4158015611cfa573d6000803e3d6000fd5b50506040517fcd75a8458a0b82026b91f38cb5901e89ba19145af6cfe114527e789b707018df925060009150a1565b600083611d35816120d0565b611d815760405162461bcd60e51b815260206004820152601a60248201527f5348412e6d662e54453a207469746c65206e6f7420657869737400000000000060448201526064016107da565b611d8c8585856129e2565b611d995760019150611e9f565b6000858152600e6020526040908190205490516320bf56eb60e21b8152600481018590526001600160a01b03918216916389174a9d9187918216906382fd5bac906024015b6102606040518083038186803b158015611df757600080fd5b505afa158015611e0b573d6000803e3d6000fd5b505050506040513d601f19601f82011682018060405250810190611e2f9190614185565b6040518363ffffffff1660e01b8152600401611e4c92919061430b565b60206040518083038186803b158015611e6457600080fd5b505afa158015611e78573d6000803e3d6000fd5b505050506040513d601f19601f82011682018060405250810190611e9c9190613bcb565b91505b509392505050565b604051633b11adbf60e21b81526002600482015233602482015273__$364aad554dc80380f414546becdd2c1584$__9063ec46b6fc9060440160206040518083038186803b158015611ef857600080fd5b505af4158015611f0c573d6000803e3d6000fd5b505050506040513d601f19601f82011682018060405250810190611f309190613bcb565b611f8b5760405162461bcd60e51b815260206004820152602660248201527f41432e6f6e6c794469726563744b65657065723a206e6f74206469726563742060448201526535b2b2b832b960d11b60648201526084016107da565b604051636be8496f60e01b81523360048201526001600160a01b03821690636be8496f90602401600060405180830381600087803b158015611fcc57600080fd5b505af1158015611fe0573d6000803e3d6000fd5b50506040516001600160a01b03841681527f64dd6e84044f0067086012335dcfab3188db6615b5cc7debf18c9a621ebd5d91925060200190506116b2565b604051630f07232560e01b8152600260048201526001600160a01b038216602482015233604482015273__$364aad554dc80380f414546becdd2c1584$__90630f0723259060640160006040518083038186803b15801561207e57600080fd5b505af4158015612092573d6000803e3d6000fd5b50506040516001600160a01b03841681527fe435cbeab64e4eae6497b9d8289704bd709d624a80704ef3ca9af777534bc6ec925060200190506116b2565b604051633f5f77cd60e01b8152600f60048201526024810182905260009073__$8c1a4844a0a0988ea2454cf87145a95df1$__90633f5f77cd906044016110f0565b604051632a3be56b60e21b815260026004820152602481018390526044810182905260009073__$364aad554dc80380f414546becdd2c1584$__9063a8ef95ac906064016119df565b73__$364aad554dc80380f414546becdd2c1584$__639b48160c6002836121806136cb565b6040516001600160e01b031960e086901b1681526004810193909352602483019190915264ffffffffff16604482015260640160006040518083038186803b1580156121cb57600080fd5b505af41580156121df573d6000803e3d6000fd5b505050507f8b6f40f36b4ae8cc5f55e895036457c43da4ab1f80f58c46f5ff0d72a650033b816040516116b291815260200190565b60405163c37e0e1b60e01b815260048181015260009073__$47b88465a20692378cf12e8e0c338f01dd$__9063c37e0e1b90602401610bff565b60405163987ad15360e01b81526002600482015260009073__$364aad554dc80380f414546becdd2c1584$__9063987ad15390602401610b74565b73__$364aad554dc80380f414546becdd2c1584$__63cc0d511b6002836112756136cb565b604051633f5f77cd60e01b8152600560048201526024810182905260009073__$8c1a4844a0a0988ea2454cf87145a95df1$__90633f5f77cd9060440160206040518083038186803b15801561230357600080fd5b505af4158015612317573d6000803e3d6000fd5b505050506040513d601f19601f8201168201806040525081019061233b9190613bcb565b806123cb5750604051633f5f77cd60e01b8152600760048201526024810183905273__$8c1a4844a0a0988ea2454cf87145a95df1$__90633f5f77cd9060440160206040518083038186803b15801561239357600080fd5b505af41580156123a7573d6000803e3d6000fd5b505050506040513d601f19601f820116820180604052508101906123cb9190613bcb565b8061245b5750604051633f5f77cd60e01b8152600a60048201526024810183905273__$8c1a4844a0a0988ea2454cf87145a95df1$__90633f5f77cd9060440160206040518083038186803b15801561242357600080fd5b505af4158015612437573d6000803e3d6000fd5b505050506040513d601f19601f8201168201806040525081019061245b9190613bcb565b806111405750604051633f5f77cd60e01b8152600c60048201526024810183905273__$8c1a4844a0a0988ea2454cf87145a95df1$__90633f5f77cd906044016110f0565b604051630310ebfb60e21b815260048181015260009073__$47b88465a20692378cf12e8e0c338f01dd$__90630c43afec906024016116f3565b604051633b11adbf60e21b81526002600482015233602482015260009073__$364aad554dc80380f414546becdd2c1584$__9063ec46b6fc9060440160206040518083038186803b15801561252e57600080fd5b505af4158015612542573d6000803e3d6000fd5b505050506040513d601f19601f820116820180604052508101906125669190613bcb565b806125e757506001546040516335d2155560e11b81523360048201526001600160a01b0390911690636ba42aaa9060240160206040518083038186803b1580156125af57600080fd5b505afa1580156125c3573d6000803e3d6000fd5b505050506040513d601f19601f820116820180604052508101906125e79190613bcb565b6126035760405162461bcd60e51b81526004016107da90613c8c565b604051635cd0bc7d60e01b8152600960048201526024810186905260448101859052606481018490526084810183905273__$47b88465a20692378cf12e8e0c338f01dd$__90635cd0bc7d9060a40160206040518083038186803b15801561266a57600080fd5b505af415801561267e573d6000803e3d6000fd5b505050506040513d601f19601f820116820180604052508101906126a29190613bcb565b95945050505050565b606060006126b9600161288b565b905073__$ccb256085f563a601d001f7c9087d87207$__63088b9bf6826126e0600061288b565b6040518363ffffffff1660e01b81526004016126fd9291906143fa565b60006040518083038186803b15801561271557600080fd5b505af4158015612729573d6000803e3d6000fd5b505050506040513d6000823e601f3d908101601f191682016040526127519190810190614070565b50600061275e6001613654565b905073__$ccb256085f563a601d001f7c9087d87207$__63088b9bf6826127856000613654565b6040518363ffffffff1660e01b81526004016127a29291906143fa565b60006040518083038186803b1580156127ba57600080fd5b505af41580156127ce573d6000803e3d6000fd5b505050506040513d6000823e601f3d908101601f191682016040526127f69190810190614070565b50604051630445cdfb60e11b815273__$ccb256085f563a601d001f7c9087d87207$__9063088b9bf69061283090859085906004016143fa565b60006040518083038186803b15801561284857600080fd5b505af415801561285c573d6000803e3d6000fd5b505050506040513d6000823e601f3d908101601f191682016040526128849190810190614070565b9250505090565b60608161291f5760405163034306e160e21b81526005600482015273__$8c1a4844a0a0988ea2454cf87145a95df1$__90630d0c1b84906024015b60006040518083038186803b1580156128de57600080fd5b505af41580156128f2573d6000803e3d6000fd5b505050506040513d6000823e601f3d908101601f1916820160405261291a9190810190614070565b611140565b60405163034306e160e21b81526005600482015273__$8c1a4844a0a0988ea2454cf87145a95df1$__90630d0c1b84906024015b60006040518083038186803b15801561296b57600080fd5b505af415801561297f573d6000803e3d6000fd5b505050506040513d6000823e601f3d908101601f191682016040526111409190810190614070565b60405163034306e160e21b8152600f600482015260609073__$8c1a4844a0a0988ea2454cf87145a95df1$__90630d0c1b8490602401611a66565b6000836129ee816120d0565b612a3a5760405162461bcd60e51b815260206004820152601a60248201527f5348412e6d662e54453a207469746c65206e6f7420657869737400000000000060448201526064016107da565b6000858152600e6020526040908190205490516320bf56eb60e21b8152600481018590526001600160a01b039182169163e06522859187918216906382fd5bac90602401611dde565b600082612ac957604051633f5f77cd60e01b8152600a60048201526024810183905273__$8c1a4844a0a0988ea2454cf87145a95df1$__90633f5f77cd9060440161194f565b604051633f5f77cd60e01b8152600560048201526024810183905273__$8c1a4844a0a0988ea2454cf87145a95df1$__90633f5f77cd906044016119df565b73__$364aad554dc80380f414546becdd2c1584$__63a8ef95ac6002684174746f726e65797360b81b612b396136cb565b6040516001600160e01b031960e086901b1681526004810193909352602483019190915264ffffffffff16604482015260640160206040518083038186803b158015612b8457600080fd5b505af4158015612b98573d6000803e3d6000fd5b505050506040513d601f19601f82011682018060405250810190612bbc9190613bcb565b612bd85760405162461bcd60e51b81526004016107da90613be8565b6040516392fd02df60e01b8152600f60048201526024810182905273__$8c1a4844a0a0988ea2454cf87145a95df1$__906392fd02df9060440160206040518083038186803b158015612c2a57600080fd5b505af4158015612c3e573d6000803e3d6000fd5b505050506040513d601f19601f82011682018060405250810190612c629190613bcb565b15612c84576000818152600e6020526040902080546001600160a01b03191690555b50565b60405163c2b46a8560e01b8152600f600482015260009073__$8c1a4844a0a0988ea2454cf87145a95df1$__9063c2b46a85906024015b60206040518083038186803b158015612cd657600080fd5b505af4158015612cea573d6000803e3d6000fd5b505050506040513d601f19601f82011682018060405250810190610bc4919061403c565b612d16613813565b81612d4a576000805260096020527fec8156718a8372b1db44bb411437d0870f3e3790d4a08526d024ce1b0b668f6d612d75565b6000805260046020527f17ef568e3e12ab5b9c7254a8d58478811de00f9e6eb34345acd53bf8fd09d3ee5b6040805161012081018252915464ffffffffff8116835265ffffffffffff6501000000000082041660208401526001600160401b03600160581b8204169183019190915260ff600160981b8204161515606083015261ffff600160a01b820481166080840152600160b01b8204811660a0840152600160c01b8204811660c0840152600160d01b82041660e083015263ffffffff600160e01b9091041661010082015292915050565b60405163c2b46a8560e01b81526012600482015260009073__$8c1a4844a0a0988ea2454cf87145a95df1$__9063c2b46a8590602401612cbe565b600073__$364aad554dc80380f414546becdd2c1584$__6331a349c06002612e7f6136cb565b6040516001600160e01b031960e085901b168152600481019290925264ffffffffff16602482015260440160206040518083038186803b158015612ec257600080fd5b505af4158015612ed6573d6000803e3d6000fd5b505050506040513d601f19601f82011682018060405250810190612efa9190613bcb565b612f465760405162461bcd60e51b815260206004820152601b60248201527f41432e6f67633a206e6f742067656e6572616c20636f756e73656c000000000060448201526064016107da565b6000612f50610b3d565b90506000612f6f6001600160f01b0360e086901b1660f087901b61441f565b6000805460405163966ef88d60e01b81526004810184905233602482015292935090916001600160a01b039091169063966ef88d9060440161014060405180830381600087803b158015612fc257600080fd5b505af1158015612fd6573d6000803e3d6000fd5b505050506040513d601f19601f82011682018060405250810190612ffa9190614450565b602081015160005460015460405163dc890da960e01b815264ffffffffff881660048201523060248201526001600160a01b0392831660448201529082166064820152929350169063dc890da990608401600060405180830381600087803b15801561306557600080fd5b505af1158015613079573d6000803e3d6000fd5b5050506000878152600e60205260409081902080546001600160a01b0319166001600160a01b038816179055516392f13c3f60e01b8152600f60048201526024810188905273__$8c1a4844a0a0988ea2454cf87145a95df1$__91506392f13c3f9060440160206040518083038186803b1580156130f657600080fd5b505af415801561310a573d6000803e3d6000fd5b505050506040513d601f19601f8201168201806040525081019061312e9190613bcb565b5050505092915050565b73__$364aad554dc80380f414546becdd2c1584$__63a8ef95ac6002684174746f726e65797360b81b6131696136cb565b6040516001600160e01b031960e086901b1681526004810193909352602483019190915264ffffffffff16604482015260640160206040518083038186803b1580156131b457600080fd5b505af41580156131c8573d6000803e3d6000fd5b505050506040513d601f19601f820116820180604052508101906131ec9190613bcb565b6132085760405162461bcd60e51b81526004016107da90613be8565b6040516392fd02df60e01b8152601260048201526024810182905273__$8c1a4844a0a0988ea2454cf87145a95df1$__906392fd02df9060440160206040518083038186803b15801561325a57600080fd5b505af415801561326e573d6000803e3d6000fd5b505050506040513d601f19601f820116820180604052508101906132929190613bcb565b15612c8457600090815260116020526040812055565b604051636cdd0edf60e11b815260026004820152602481018590526001600160a01b038416604482015273__$364aad554dc80380f414546becdd2c1584$__9063d9ba1dbe9060640160006040518083038186803b15801561330957600080fd5b505af415801561331d573d6000803e3d6000fd5b5050505061332a82613725565b61333381613798565b604080518581526001600160a01b038581166020830152848116828401528316606082015290517f3abb2418c66fe32ba9c883030a75ce583971d9af9192b9b74e44e67c5e6c8c1f9181900360800190a150505050565b604051633c3e56c160e11b81526002600482015260009073__$364aad554dc80380f414546becdd2c1584$__9063787cad829060240160206040518083038186803b1580156133d857600080fd5b505af41580156133ec573d6000803e3d6000fd5b505050506040513d601f19601f82011682018060405250810190610bc49190614536565b600254600160f01b900460ff1660011461346c5760405162461bcd60e51b815260206004820152601760248201527f41432e4c433a20446f632069732066696e616c697a656400000000000000000060448201526064016107da565b73__$364aad554dc80380f414546becdd2c1584$__63c51b295f6002684174746f726e65797360b81b61349d6136cb565b6040516001600160e01b031960e086901b1681526004810193909352602483019190915264ffffffffff16604482015260640160006040518083038186803b1580156134e857600080fd5b505af41580156134fc573d6000803e3d6000fd5b50505050600273__$364aad554dc80380f414546becdd2c1584$__639b4510de909160006135286136cb565b6040516001600160e01b031960e086901b1681526004810193909352602483019190915264ffffffffff16604482015260640160006040518083038186803b15801561357357600080fd5b505af4158015613587573d6000803e3d6000fd5b50505050600273__$364aad554dc80380f414546becdd2c1584$__639b48160c909160006135b36136cb565b6040516001600160e01b031960e086901b1681526004810193909352602483019190915264ffffffffff16604482015260640160006040518083038186803b1580156135fe57600080fd5b505af4158015613612573d6000803e3d6000fd5b50506002805460ff60f01b1916600160f11b17905550506040517f35012b512309c322acf68632cd6cb702ff0e1d776fbe9394e38ffc13b434fe7590600090a1565b6060816136935760405163034306e160e21b8152600c600482015273__$8c1a4844a0a0988ea2454cf87145a95df1$__90630d0c1b84906024016128c6565b60405163034306e160e21b81526007600482015273__$8c1a4844a0a0988ea2454cf87145a95df1$__90630d0c1b8490602401612953565b60008054604051636ae3b70d60e11b81523360048201526001600160a01b039091169063d5c76e1a90602401602060405180830381600087803b15801561371157600080fd5b505af1158015610ba0573d6000803e3d6000fd5b6000546001600160a01b0316156137765760405162461bcd60e51b815260206004820152601560248201527430b63932b0b23c9039b2ba103932b3a1b2b73a32b960591b60448201526064016107da565b600080546001600160a01b0319166001600160a01b0392909216919091179055565b6001546001600160a01b0316156137f15760405162461bcd60e51b815260206004820152601960248201527f616c7265616479207365742067656e6572616c4b65657065720000000000000060448201526064016107da565b600180546001600160a01b0319166001600160a01b0392909216919091179055565b6040805161012081018252600080825260208201819052918101829052606081018290526080810182905260a0810182905260c0810182905260e0810182905261010081019190915290565b60006020828403121561387157600080fd5b5035919050565b8015158114612c8457600080fd5b60008060006060848603121561389b57600080fd5b83356138a681613878565b95602085013595506040909401359392505050565b600080604083850312156138ce57600080fd5b50508035926020909101359150565b6000602082840312156138ef57600080fd5b8135610e2c81613878565b64ffffffffff815116825265ffffffffffff6020820151166020830152604081015161393160408401826001600160401b03169052565b506060810151613945606084018215159052565b50608081015161395b608084018261ffff169052565b5060a081015161397160a084018261ffff169052565b5060c081015161398760c084018261ffff169052565b5060e081015161399d60e084018261ffff169052565b506101009081015163ffffffff16910152565b600081518084526020808501945080840160005b838110156139eb576139d78783516138fa565b6101209690960195908201906001016139c4565b509495945050505050565b604081526000613a0960408301856139b0565b8281036020840152611e9c81856139b0565b60008060408385031215613a2e57600080fd5b8235613a3981613878565b946020939093013593505050565b600081518084526020808501945080840160005b838110156139eb57815187529582019590820190600101613a5b565b6000610160808352613a8b81840187613a47565b915050613a9b60208301856138fa565b82610140830152949350505050565b602081526000610e2c6020830184613a47565b6001600160a01b0381168114612c8457600080fd5b600080600060608486031215613ae757600080fd5b833592506020840135613af981613abd565b929592945050506040919091013590565b600060208284031215613b1c57600080fd5b8135610e2c81613abd565b60008060008060808587031215613b3d57600080fd5b5050823594602084013594506040840135936060013592509050565b610120810161114082846138fa565b60008060008060808587031215613b7e57600080fd5b843593506020850135613b9081613abd565b92506040850135613ba081613abd565b91506060850135613bb081613abd565b939692955090935050565b8051613bc681613878565b919050565b600060208284031215613bdd57600080fd5b8151610e2c81613878565b60208082526013908201527241432e6f743a206e6f74204174746f726e657960681b604082015260600190565b634e487b7160e01b600052603260045260246000fd5b805164ffffffffff81168114613bc657600080fd5b600060208284031215613c5257600080fd5b610e2c82613c2b565b805165ffffffffffff81168114613bc657600080fd5b600060208284031215613c8357600080fd5b610e2c82613c5b565b60208082526011908201527020a19737b59d103737ba1025b2b2b832b960791b604082015260600190565b634e487b7160e01b600052604160045260246000fd5b60405161012081016001600160401b0381118282101715613cf057613cf0613cb7565b60405290565b604051606081016001600160401b0381118282101715613cf057613cf0613cb7565b60405161014081016001600160401b0381118282101715613cf057613cf0613cb7565b604080519081016001600160401b0381118282101715613cf057613cf0613cb7565b604051601f8201601f191681016001600160401b0381118282101715613d8557613d85613cb7565b604052919050565b60006001600160401b03821115613da657613da6613cb7565b5060051b60200190565b80516001600160401b0381168114613bc657600080fd5b805161ffff81168114613bc657600080fd5b805163ffffffff81168114613bc657600080fd5b60006101208284031215613e0057600080fd5b613e08613ccd565b9050613e1382613c2b565b8152613e2160208301613c5b565b6020820152613e3260408301613db0565b6040820152613e4360608301613bbb565b6060820152613e5460808301613dc7565b6080820152613e6560a08301613dc7565b60a0820152613e7660c08301613dc7565b60c0820152613e8760e08301613dc7565b60e0820152610100613e9a818401613dd9565b9082015292915050565b600082601f830112613eb557600080fd5b81516020613eca613ec583613d8d565b613d5d565b8281526101209283028501820192828201919087851115613eea57600080fd5b8387015b85811015613f0d57613f008982613ded565b8452928401928101613eee565b5090979650505050505050565b60008060408385031215613f2d57600080fd5b82516001600160401b0380821115613f4457600080fd5b613f5086838701613ea4565b93506020850151915080821115613f6657600080fd5b50613f7385828601613ea4565b9150509250929050565b600082601f830112613f8e57600080fd5b81516020613f9e613ec583613d8d565b82815260059290921b84018101918181019086841115613fbd57600080fd5b8286015b84811015613fd85780518352918301918301613fc1565b509695505050505050565b60008060006101608486031215613ff957600080fd5b83516001600160401b0381111561400f57600080fd5b61401b86828701613f7d565b93505061402b8560208601613ded565b915061014084015190509250925092565b60006020828403121561404e57600080fd5b5051919050565b60006020828403121561406757600080fd5b610e2c82613dc7565b60006020828403121561408257600080fd5b81516001600160401b0381111561409857600080fd5b6140a484828501613f7d565b949350505050565b805160ff81168114613bc657600080fd5b60006101008083850312156140d157600080fd5b604051908101906001600160401b03821181831017156140f3576140f3613cb7565b8160405280925061410384613c2b565b815261411160208501613c2b565b602082015261412260408501613db0565b604082015261413360608501613db0565b6060820152614144608085016140ac565b608082015261415560a08501613dc7565b60a082015261416660c08501613dc7565b60c082015260e0840151915061417b82613878565b60e0015292915050565b600081830361026081121561419957600080fd5b6141a1613cf6565b610140808312156141b157600080fd5b6141b9613d18565b92506141c4856140ac565b83526141d260208601613dc7565b60208401526141e360408601613dc7565b60408401526141f460608601613dc7565b606084015261420560808601613dd9565b608084015261421660a08601613c2b565b60a084015261422760c08601613dd9565b60c084015261423860e08601613dd9565b60e084015261010061424b818701613c5b565b9084015261012061425d868201613dc7565b90840152828252614270868683016140bd565b60208301525061024093909301516040840152509092915050565b64ffffffffff8082511683528060208301511660208401525060408101516001600160401b038082166040850152806060840151166060850152505060ff608082015116608083015261ffff60a08201511660a083015260c08101516142f760c084018261ffff169052565b5060e081015161088360e084018215159052565b6001600160a01b03831681528151805160ff166020830152610280820190602081015161ffff8116604085015250604081015161ffff8116606085015250606081015161ffff8116608085015250608081015163ffffffff811660a08501525060a081015164ffffffffff811660c08501525060c081015163ffffffff811660e08501525060e08101516101006143a98186018363ffffffff169052565b82015190506101206143c48582018365ffffffffffff169052565b919091015161ffff166101408401525060208301516143e761016084018261428b565b5060408301516102608301529392505050565b60408152600061440d6040830185613a47565b8281036020840152611e9c8185613a47565b6000821982111561444057634e487b7160e01b600052601160045260246000fd5b500190565b8051613bc681613abd565b600081830361014081121561446457600080fd5b61446c613d3b565b6101208083121561447c57600080fd5b614484613ccd565b925061448f85613dc7565b835261449d60208601613dc7565b60208401526144ae60408601613db0565b60408401526144bf60608601613c2b565b60608401526144d060808601613c5b565b60808401526144e160a08601613dc7565b60a08401526144f260c08601613dc7565b60c084015261450360e08601613dd9565b60e08401526101006145168187016140ac565b90840152828252614528858201614445565b602083015250949350505050565b60006020828403121561454857600080fd5b8151610e2c81613abd56fea2646970667358221220feba797073f893f0f7ddfa4f9a15e1f33d640fef48ac1c49c1c70bd88f74e44664736f6c63430008080033",
    "sourcePath": "/Users/kaptain/github.com/hardhat/comboox/contracts/books/boh/ShareholdersAgreement.sol",
    "compiler": {
        "name": "solc",
        "version": "0.8.8+commit.dddeac2f"
    },
    "functionHashes": {
        "abandonRole(bytes32)": "3da9a600",
        "addBlank(bool,uint256,uint256)": "50a31ef9",
        "addRule(bytes32)": "05ee7735",
        "circulateDoc()": "5b041ead",
        "circulated()": "1c315ec6",
        "createTerm(uint256,uint256)": "d5926e3f",
        "established()": "4844f541",
        "finalized()": "b3f05b97",
        "getBookeeper()": "ed211023",
        "getBuyers(bool)": "a959c69c",
        "getCirculateDate()": "893ce252",
        "getClosingDays()": "8d6a31d4",
        "getClosingDeadline()": "15711620",
        "getGeneralCounsel()": "103f6edd",
        "getOwner()": "893d20e8",
        "getParasOfPage(bool)": "ccb2f415",
        "getParties()": "a8311aa8",
        "getRule(uint256)": "48462037",
        "getSellers(bool)": "f2724eb2",
        "getSigDeadline()": "57330fd2",
        "getSigOfParty(bool,uint256)": "34367313",
        "getSigningDays()": "5041de82",
        "getSigsOfPage(bool)": "25abe790",
        "getTerm(uint256)": "346ba941",
        "grantRole(bytes32,uint256)": "1b6ea9f9",
        "hasRole(bytes32,uint256)": "7e063c5a",
        "hasRule(uint256)": "379ef4a6",
        "hasTitle(uint256)": "71765449",
        "init(uint256,address,address,address)": "dc890da9",
        "isBuyer(bool,uint256)": "b1152335",
        "isParty(uint256)": "8c5f9170",
        "isSeller(bool,uint256)": "51b171a3",
        "isSigner(uint256)": "28769ede",
        "lockContents()": "f045a769",
        "qtyOfRules()": "d0c504b0",
        "qtyOfTerms()": "bc3ffc70",
        "regSig(uint256,uint256,uint256,bytes32)": "a4052db4",
        "removeDirectKeeper(address)": "5d7ad88f",
        "removeRule(uint256)": "d70da38b",
        "removeTerm(uint256)": "b69046e8",
        "renounceRole(bytes32)": "8bb9c5bf",
        "revokeRole(bytes32,uint256)": "19d61ad9",
        "rules()": "52f6747a",
        "setDirectKeeper(address)": "6be8496f",
        "setGeneralCounsel(uint256)": "4a14beb1",
        "setOwner(uint256)": "8041494e",
        "setRoleAdmin(bytes32,uint256)": "5171ebd4",
        "setTiming(bool,uint256,uint256)": "094f0cfc",
        "signDoc(bool,uint256,bytes32)": "1958ac5a",
        "termIsExempted(uint256,address,uint256)": "5d24f35b",
        "termIsTriggered(uint256,address,uint256)": "ac067843",
        "titles()": "a9acd944"
    },
    "gasEstimates": {
        "creation": {
            "codeDepositCost": "3560200",
            "executionCost": "3998",
            "totalCost": "3564198"
        },
        "external": {
            "abandonRole(bytes32)": "infinite",
            "addBlank(bool,uint256,uint256)": "infinite",
            "addRule(bytes32)": "infinite",
            "circulateDoc()": "infinite",
            "circulated()": "infinite",
            "createTerm(uint256,uint256)": "infinite",
            "established()": "infinite",
            "finalized()": "2416",
            "getBookeeper()": "infinite",
            "getBuyers(bool)": "infinite",
            "getCirculateDate()": "infinite",
            "getClosingDays()": "infinite",
            "getClosingDeadline()": "infinite",
            "getGeneralCounsel()": "infinite",
            "getOwner()": "infinite",
            "getParasOfPage(bool)": "3732",
            "getParties()": "infinite",
            "getRule(uint256)": "2528",
            "getSellers(bool)": "infinite",
            "getSigDeadline()": "infinite",
            "getSigOfParty(bool,uint256)": "infinite",
            "getSigningDays()": "infinite",
            "getSigsOfPage(bool)": "infinite",
            "getTerm(uint256)": "2589",
            "grantRole(bytes32,uint256)": "infinite",
            "hasRole(bytes32,uint256)": "infinite",
            "hasRule(uint256)": "infinite",
            "hasTitle(uint256)": "infinite",
            "init(uint256,address,address,address)": "infinite",
            "isBuyer(bool,uint256)": "infinite",
            "isParty(uint256)": "infinite",
            "isSeller(bool,uint256)": "infinite",
            "isSigner(uint256)": "infinite",
            "lockContents()": "infinite",
            "qtyOfRules()": "infinite",
            "qtyOfTerms()": "infinite",
            "regSig(uint256,uint256,uint256,bytes32)": "infinite",
            "removeDirectKeeper(address)": "infinite",
            "removeRule(uint256)": "infinite",
            "removeTerm(uint256)": "infinite",
            "renounceRole(bytes32)": "infinite",
            "revokeRole(bytes32,uint256)": "infinite",
            "rules()": "infinite",
            "setDirectKeeper(address)": "infinite",
            "setGeneralCounsel(uint256)": "infinite",
            "setOwner(uint256)": "infinite",
            "setRoleAdmin(bytes32,uint256)": "infinite",
            "setTiming(bool,uint256,uint256)": "infinite",
            "signDoc(bool,uint256,bytes32)": "infinite",
            "termIsExempted(uint256,address,uint256)": "infinite",
            "termIsTriggered(uint256,address,uint256)": "infinite",
            "titles()": "infinite"
        }
    }
}