{
    "contractName": "ShareholdersAgreement",
    "abi": [
        {
            "anonymous": false,
            "inputs": [
                {
                    "indexed": false,
                    "internalType": "uint256",
                    "name": "owner",
                    "type": "uint256"
                },
                {
                    "indexed": false,
                    "internalType": "address",
                    "name": "directKeeper",
                    "type": "address"
                },
                {
                    "indexed": false,
                    "internalType": "address",
                    "name": "regCenter",
                    "type": "address"
                },
                {
                    "indexed": false,
                    "internalType": "address",
                    "name": "generalKeeper",
                    "type": "address"
                }
            ],
            "name": "Init",
            "type": "event"
        },
        {
            "anonymous": false,
            "inputs": [],
            "name": "LockContents",
            "type": "event"
        },
        {
            "anonymous": false,
            "inputs": [
                {
                    "indexed": false,
                    "internalType": "address",
                    "name": "keeper",
                    "type": "address"
                }
            ],
            "name": "SetDirectKeeper",
            "type": "event"
        },
        {
            "anonymous": false,
            "inputs": [
                {
                    "indexed": false,
                    "internalType": "uint256",
                    "name": "acct",
                    "type": "uint256"
                }
            ],
            "name": "SetGeneralCounsel",
            "type": "event"
        },
        {
            "anonymous": false,
            "inputs": [
                {
                    "indexed": false,
                    "internalType": "address",
                    "name": "gk",
                    "type": "address"
                }
            ],
            "name": "SetGeneralKeeper",
            "type": "event"
        },
        {
            "anonymous": false,
            "inputs": [
                {
                    "indexed": false,
                    "internalType": "uint256",
                    "name": "acct",
                    "type": "uint256"
                }
            ],
            "name": "SetOwner",
            "type": "event"
        },
        {
            "anonymous": false,
            "inputs": [
                {
                    "indexed": false,
                    "internalType": "address",
                    "name": "rc",
                    "type": "address"
                }
            ],
            "name": "SetRegCenter",
            "type": "event"
        },
        {
            "anonymous": false,
            "inputs": [
                {
                    "indexed": false,
                    "internalType": "bool",
                    "name": "initPage",
                    "type": "bool"
                },
                {
                    "indexed": false,
                    "internalType": "uint48",
                    "name": "SigDeadline",
                    "type": "uint48"
                }
            ],
            "name": "SetSigDeadline",
            "type": "event"
        },
        {
            "inputs": [
                {
                    "internalType": "bytes32",
                    "name": "role",
                    "type": "bytes32"
                }
            ],
            "name": "abandonRole",
            "outputs": [],
            "stateMutability": "nonpayable",
            "type": "function"
        },
        {
            "inputs": [
                {
                    "internalType": "bytes32",
                    "name": "rule",
                    "type": "bytes32"
                }
            ],
            "name": "addRule",
            "outputs": [],
            "stateMutability": "nonpayable",
            "type": "function"
        },
        {
            "inputs": [
                {
                    "internalType": "uint8",
                    "name": "title",
                    "type": "uint8"
                }
            ],
            "name": "createTerm",
            "outputs": [
                {
                    "internalType": "address",
                    "name": "body",
                    "type": "address"
                }
            ],
            "stateMutability": "nonpayable",
            "type": "function"
        },
        {
            "inputs": [],
            "name": "established",
            "outputs": [
                {
                    "internalType": "bool",
                    "name": "flag",
                    "type": "bool"
                }
            ],
            "stateMutability": "view",
            "type": "function"
        },
        {
            "inputs": [],
            "name": "finalizeTerms",
            "outputs": [],
            "stateMutability": "nonpayable",
            "type": "function"
        },
        {
            "inputs": [],
            "name": "finalized",
            "outputs": [
                {
                    "internalType": "bool",
                    "name": "",
                    "type": "bool"
                }
            ],
            "stateMutability": "view",
            "type": "function"
        },
        {
            "inputs": [],
            "name": "getBookeeper",
            "outputs": [
                {
                    "internalType": "address",
                    "name": "",
                    "type": "address"
                }
            ],
            "stateMutability": "view",
            "type": "function"
        },
        {
            "inputs": [
                {
                    "internalType": "bool",
                    "name": "initPage",
                    "type": "bool"
                }
            ],
            "name": "getBuyers",
            "outputs": [
                {
                    "internalType": "uint256[]",
                    "name": "buyers",
                    "type": "uint256[]"
                }
            ],
            "stateMutability": "view",
            "type": "function"
        },
        {
            "inputs": [],
            "name": "getGeneralCounsel",
            "outputs": [
                {
                    "internalType": "uint40",
                    "name": "",
                    "type": "uint40"
                }
            ],
            "stateMutability": "view",
            "type": "function"
        },
        {
            "inputs": [],
            "name": "getOwner",
            "outputs": [
                {
                    "internalType": "uint40",
                    "name": "",
                    "type": "uint40"
                }
            ],
            "stateMutability": "view",
            "type": "function"
        },
        {
            "inputs": [
                {
                    "internalType": "bool",
                    "name": "initPage",
                    "type": "bool"
                }
            ],
            "name": "getParasOfPage",
            "outputs": [
                {
                    "components": [
                        {
                            "internalType": "uint40",
                            "name": "signer",
                            "type": "uint40"
                        },
                        {
                            "internalType": "uint48",
                            "name": "sigDate",
                            "type": "uint48"
                        },
                        {
                            "internalType": "uint64",
                            "name": "blocknumber",
                            "type": "uint64"
                        },
                        {
                            "internalType": "bytes32",
                            "name": "sigHash",
                            "type": "bytes32"
                        }
                    ],
                    "internalType": "struct SigsRepo.Signature",
                    "name": "",
                    "type": "tuple"
                }
            ],
            "stateMutability": "view",
            "type": "function"
        },
        {
            "inputs": [],
            "name": "getParties",
            "outputs": [
                {
                    "internalType": "uint256[]",
                    "name": "parties",
                    "type": "uint256[]"
                }
            ],
            "stateMutability": "view",
            "type": "function"
        },
        {
            "inputs": [
                {
                    "internalType": "uint256",
                    "name": "seq",
                    "type": "uint256"
                }
            ],
            "name": "getRule",
            "outputs": [
                {
                    "internalType": "bytes32",
                    "name": "",
                    "type": "bytes32"
                }
            ],
            "stateMutability": "view",
            "type": "function"
        },
        {
            "inputs": [
                {
                    "internalType": "bool",
                    "name": "initPage",
                    "type": "bool"
                }
            ],
            "name": "getSellers",
            "outputs": [
                {
                    "internalType": "uint256[]",
                    "name": "sellers",
                    "type": "uint256[]"
                }
            ],
            "stateMutability": "view",
            "type": "function"
        },
        {
            "inputs": [
                {
                    "internalType": "bool",
                    "name": "initPage",
                    "type": "bool"
                },
                {
                    "internalType": "uint256",
                    "name": "acct",
                    "type": "uint256"
                }
            ],
            "name": "getSigOfParty",
            "outputs": [
                {
                    "internalType": "uint256[]",
                    "name": "seqOfDeals",
                    "type": "uint256[]"
                },
                {
                    "components": [
                        {
                            "internalType": "uint40",
                            "name": "signer",
                            "type": "uint40"
                        },
                        {
                            "internalType": "uint48",
                            "name": "sigDate",
                            "type": "uint48"
                        },
                        {
                            "internalType": "uint64",
                            "name": "blocknumber",
                            "type": "uint64"
                        },
                        {
                            "internalType": "bytes32",
                            "name": "sigHash",
                            "type": "bytes32"
                        }
                    ],
                    "internalType": "struct SigsRepo.Signature",
                    "name": "sig",
                    "type": "tuple"
                }
            ],
            "stateMutability": "view",
            "type": "function"
        },
        {
            "inputs": [
                {
                    "internalType": "bool",
                    "name": "initPage",
                    "type": "bool"
                }
            ],
            "name": "getSigsOfPage",
            "outputs": [
                {
                    "components": [
                        {
                            "internalType": "uint40",
                            "name": "signer",
                            "type": "uint40"
                        },
                        {
                            "internalType": "uint48",
                            "name": "sigDate",
                            "type": "uint48"
                        },
                        {
                            "internalType": "uint64",
                            "name": "blocknumber",
                            "type": "uint64"
                        },
                        {
                            "internalType": "bytes32",
                            "name": "sigHash",
                            "type": "bytes32"
                        }
                    ],
                    "internalType": "struct SigsRepo.Signature[]",
                    "name": "sigsOfBuyer",
                    "type": "tuple[]"
                },
                {
                    "components": [
                        {
                            "internalType": "uint40",
                            "name": "signer",
                            "type": "uint40"
                        },
                        {
                            "internalType": "uint48",
                            "name": "sigDate",
                            "type": "uint48"
                        },
                        {
                            "internalType": "uint64",
                            "name": "blocknumber",
                            "type": "uint64"
                        },
                        {
                            "internalType": "bytes32",
                            "name": "sigHash",
                            "type": "bytes32"
                        }
                    ],
                    "internalType": "struct SigsRepo.Signature[]",
                    "name": "sigsOfSeller",
                    "type": "tuple[]"
                }
            ],
            "stateMutability": "view",
            "type": "function"
        },
        {
            "inputs": [
                {
                    "internalType": "uint256",
                    "name": "title",
                    "type": "uint256"
                }
            ],
            "name": "getTerm",
            "outputs": [
                {
                    "internalType": "address",
                    "name": "",
                    "type": "address"
                }
            ],
            "stateMutability": "view",
            "type": "function"
        },
        {
            "inputs": [
                {
                    "internalType": "bytes32",
                    "name": "role",
                    "type": "bytes32"
                },
                {
                    "internalType": "uint256",
                    "name": "acct",
                    "type": "uint256"
                }
            ],
            "name": "grantRole",
            "outputs": [],
            "stateMutability": "nonpayable",
            "type": "function"
        },
        {
            "inputs": [
                {
                    "internalType": "bytes32",
                    "name": "role",
                    "type": "bytes32"
                },
                {
                    "internalType": "uint256",
                    "name": "acct",
                    "type": "uint256"
                }
            ],
            "name": "hasRole",
            "outputs": [
                {
                    "internalType": "bool",
                    "name": "",
                    "type": "bool"
                }
            ],
            "stateMutability": "view",
            "type": "function"
        },
        {
            "inputs": [
                {
                    "internalType": "uint256",
                    "name": "seq",
                    "type": "uint256"
                }
            ],
            "name": "hasRule",
            "outputs": [
                {
                    "internalType": "bool",
                    "name": "",
                    "type": "bool"
                }
            ],
            "stateMutability": "view",
            "type": "function"
        },
        {
            "inputs": [
                {
                    "internalType": "uint256",
                    "name": "title",
                    "type": "uint256"
                }
            ],
            "name": "hasTitle",
            "outputs": [
                {
                    "internalType": "bool",
                    "name": "",
                    "type": "bool"
                }
            ],
            "stateMutability": "view",
            "type": "function"
        },
        {
            "inputs": [
                {
                    "internalType": "uint256",
                    "name": "owner",
                    "type": "uint256"
                },
                {
                    "internalType": "address",
                    "name": "directKeeper",
                    "type": "address"
                },
                {
                    "internalType": "address",
                    "name": "regCenter",
                    "type": "address"
                },
                {
                    "internalType": "address",
                    "name": "generalKeeper",
                    "type": "address"
                }
            ],
            "name": "init",
            "outputs": [],
            "stateMutability": "nonpayable",
            "type": "function"
        },
        {
            "inputs": [
                {
                    "internalType": "bool",
                    "name": "initPage",
                    "type": "bool"
                },
                {
                    "internalType": "uint256",
                    "name": "acct",
                    "type": "uint256"
                }
            ],
            "name": "isBuyer",
            "outputs": [
                {
                    "internalType": "bool",
                    "name": "flag",
                    "type": "bool"
                }
            ],
            "stateMutability": "view",
            "type": "function"
        },
        {
            "inputs": [
                {
                    "internalType": "bool",
                    "name": "initPage",
                    "type": "bool"
                },
                {
                    "internalType": "uint256",
                    "name": "acct",
                    "type": "uint256"
                }
            ],
            "name": "isParty",
            "outputs": [
                {
                    "internalType": "bool",
                    "name": "flag",
                    "type": "bool"
                }
            ],
            "stateMutability": "view",
            "type": "function"
        },
        {
            "inputs": [
                {
                    "internalType": "uint256",
                    "name": "acct",
                    "type": "uint256"
                }
            ],
            "name": "isParty",
            "outputs": [
                {
                    "internalType": "bool",
                    "name": "flag",
                    "type": "bool"
                }
            ],
            "stateMutability": "view",
            "type": "function"
        },
        {
            "inputs": [
                {
                    "internalType": "bool",
                    "name": "initPage",
                    "type": "bool"
                },
                {
                    "internalType": "uint256",
                    "name": "acct",
                    "type": "uint256"
                }
            ],
            "name": "isSeller",
            "outputs": [
                {
                    "internalType": "bool",
                    "name": "flag",
                    "type": "bool"
                }
            ],
            "stateMutability": "view",
            "type": "function"
        },
        {
            "inputs": [
                {
                    "internalType": "bool",
                    "name": "initPage",
                    "type": "bool"
                },
                {
                    "internalType": "uint256",
                    "name": "acct",
                    "type": "uint256"
                }
            ],
            "name": "isSigner",
            "outputs": [
                {
                    "internalType": "bool",
                    "name": "flag",
                    "type": "bool"
                }
            ],
            "stateMutability": "view",
            "type": "function"
        },
        {
            "inputs": [],
            "name": "lockContents",
            "outputs": [],
            "stateMutability": "nonpayable",
            "type": "function"
        },
        {
            "inputs": [],
            "name": "qtyOfRules",
            "outputs": [
                {
                    "internalType": "uint256",
                    "name": "",
                    "type": "uint256"
                }
            ],
            "stateMutability": "view",
            "type": "function"
        },
        {
            "inputs": [],
            "name": "qtyOfTerms",
            "outputs": [
                {
                    "internalType": "uint256",
                    "name": "",
                    "type": "uint256"
                }
            ],
            "stateMutability": "view",
            "type": "function"
        },
        {
            "inputs": [
                {
                    "internalType": "uint256",
                    "name": "seqOfDeal",
                    "type": "uint256"
                },
                {
                    "internalType": "uint256",
                    "name": "signer",
                    "type": "uint256"
                },
                {
                    "internalType": "uint48",
                    "name": "sigDate",
                    "type": "uint48"
                },
                {
                    "internalType": "bytes32",
                    "name": "sigHash",
                    "type": "bytes32"
                }
            ],
            "name": "regSig",
            "outputs": [
                {
                    "internalType": "bool",
                    "name": "flag",
                    "type": "bool"
                }
            ],
            "stateMutability": "nonpayable",
            "type": "function"
        },
        {
            "inputs": [
                {
                    "internalType": "uint256",
                    "name": "seq",
                    "type": "uint256"
                }
            ],
            "name": "removeRule",
            "outputs": [],
            "stateMutability": "nonpayable",
            "type": "function"
        },
        {
            "inputs": [
                {
                    "internalType": "uint8",
                    "name": "title",
                    "type": "uint8"
                }
            ],
            "name": "removeTerm",
            "outputs": [],
            "stateMutability": "nonpayable",
            "type": "function"
        },
        {
            "inputs": [
                {
                    "internalType": "bytes32",
                    "name": "role",
                    "type": "bytes32"
                }
            ],
            "name": "renounceRole",
            "outputs": [],
            "stateMutability": "nonpayable",
            "type": "function"
        },
        {
            "inputs": [
                {
                    "internalType": "bytes32",
                    "name": "role",
                    "type": "bytes32"
                },
                {
                    "internalType": "uint256",
                    "name": "acct",
                    "type": "uint256"
                }
            ],
            "name": "revokeRole",
            "outputs": [],
            "stateMutability": "nonpayable",
            "type": "function"
        },
        {
            "inputs": [],
            "name": "rules",
            "outputs": [
                {
                    "internalType": "uint256[]",
                    "name": "",
                    "type": "uint256[]"
                }
            ],
            "stateMutability": "view",
            "type": "function"
        },
        {
            "inputs": [
                {
                    "internalType": "address",
                    "name": "keeper",
                    "type": "address"
                }
            ],
            "name": "setDirectKeeper",
            "outputs": [],
            "stateMutability": "nonpayable",
            "type": "function"
        },
        {
            "inputs": [
                {
                    "internalType": "uint256",
                    "name": "acct",
                    "type": "uint256"
                }
            ],
            "name": "setGeneralCounsel",
            "outputs": [],
            "stateMutability": "nonpayable",
            "type": "function"
        },
        {
            "inputs": [
                {
                    "internalType": "uint256",
                    "name": "acct",
                    "type": "uint256"
                }
            ],
            "name": "setOwner",
            "outputs": [],
            "stateMutability": "nonpayable",
            "type": "function"
        },
        {
            "inputs": [
                {
                    "internalType": "bytes32",
                    "name": "role",
                    "type": "bytes32"
                },
                {
                    "internalType": "uint256",
                    "name": "acct",
                    "type": "uint256"
                }
            ],
            "name": "setRoleAdmin",
            "outputs": [],
            "stateMutability": "nonpayable",
            "type": "function"
        },
        {
            "inputs": [
                {
                    "internalType": "bool",
                    "name": "initPage",
                    "type": "bool"
                },
                {
                    "internalType": "uint48",
                    "name": "sigDeadline",
                    "type": "uint48"
                }
            ],
            "name": "setSigDeadline",
            "outputs": [],
            "stateMutability": "nonpayable",
            "type": "function"
        },
        {
            "inputs": [
                {
                    "internalType": "bool",
                    "name": "initPage",
                    "type": "bool"
                },
                {
                    "internalType": "uint256",
                    "name": "caller",
                    "type": "uint256"
                },
                {
                    "internalType": "bytes32",
                    "name": "sigHash",
                    "type": "bytes32"
                }
            ],
            "name": "signDoc",
            "outputs": [],
            "stateMutability": "nonpayable",
            "type": "function"
        },
        {
            "inputs": [
                {
                    "internalType": "uint256",
                    "name": "title",
                    "type": "uint256"
                },
                {
                    "internalType": "address",
                    "name": "ia",
                    "type": "address"
                },
                {
                    "internalType": "uint256",
                    "name": "snOfDeal",
                    "type": "uint256"
                }
            ],
            "name": "termIsExempted",
            "outputs": [
                {
                    "internalType": "bool",
                    "name": "",
                    "type": "bool"
                }
            ],
            "stateMutability": "view",
            "type": "function"
        },
        {
            "inputs": [
                {
                    "internalType": "uint256",
                    "name": "title",
                    "type": "uint256"
                },
                {
                    "internalType": "address",
                    "name": "ia",
                    "type": "address"
                },
                {
                    "internalType": "uint256",
                    "name": "snOfDeal",
                    "type": "uint256"
                }
            ],
            "name": "termIsTriggered",
            "outputs": [
                {
                    "internalType": "bool",
                    "name": "",
                    "type": "bool"
                }
            ],
            "stateMutability": "view",
            "type": "function"
        },
        {
            "inputs": [],
            "name": "titles",
            "outputs": [
                {
                    "internalType": "uint256[]",
                    "name": "",
                    "type": "uint256[]"
                }
            ],
            "stateMutability": "view",
            "type": "function"
        }
    ],
    "bytecode": "608060405234801561001057600080fd5b50613f19806100206000396000f3fe608060405234801561001057600080fd5b506004361061027f5760003560e01c80638041494e1161015c578063b71754c7116100ce578063d70da38b11610087578063d70da38b146105b3578063dc890da9146105c6578063eb1a79f4146105d9578063ed211023146105ec578063f045a769146105f4578063f2724eb2146105fc57600080fd5b8063b71754c71461054a578063bc3ffc701461055d578063cb2123e414610565578063ccb2f41514610578578063cd75bd3f14610598578063d0c504b0146105ab57600080fd5b8063a8311aa811610120578063a8311aa8146104ed578063a959c69c146104f5578063a9acd94414610508578063ac06784314610510578063b115233514610523578063b3f05b971461053657600080fd5b80638041494e146104a4578063893d20e8146104b75780638969d43a146104bf5780638bb9c5bf146104c75780638c5f9170146104da57600080fd5b8063460a0d0b116101f557806351b171a3116101b957806351b171a31461043057806352f6747a146104435780635d24f35b146104585780636be8496f1461046b578063717654491461047e5780637e063c5a1461049157600080fd5b8063460a0d0b146103c15780634844f541146103d457806348462037146103dc5780634a14beb11461040a5780635171ebd41461041d57600080fd5b806325abe7901161024757806325abe790146102f55780632e4c9cd5146103165780633436731314610329578063346ba9411461034a578063379ef4a61461038b5780633da9a600146103ae57600080fd5b806305ee773514610284578063103f6edd146102995780631958ac5a146102bc57806319d61ad9146102cf5780631b6ea9f9146102e2575b600080fd5b6102976102923660046133ce565b61060f565b005b6102a161078d565b60405164ffffffffff90911681526020015b60405180910390f35b6102976102ca3660046133f5565b610819565b6102976102dd36600461342a565b6109b7565b6102976102f036600461342a565b610a4b565b61030861030336600461344c565b610a70565b6040516102b39291906134ed565b610297610324366004613526565b610b22565b61033c61033736600461355f565b610d25565b6040516102b39291906135bb565b6103736103583660046133ce565b6000908152600e60205260409020546001600160a01b031690565b6040516001600160a01b0390911681526020016102b3565b61039e6103993660046133ce565b610e04565b60405190151581526020016102b3565b6102976103bc3660046133ce565b610e98565b61039e6103cf36600461355f565b610faa565b61039e610fcd565b6103fc6103ea3660046133ce565b60009081526011602052604090205490565b6040519081526020016102b3565b6102976104183660046133ce565b61119e565b61029761042b36600461342a565b61138e565b61039e61043e36600461355f565b6113b3565b61044b6114d5565b6040516102b391906135dd565b61039e610466366004613605565b611560565b61029761047936600461363d565b6116ae565b61039e61048c3660046133ce565b611760565b61039e61049f36600461342a565b6117a2565b6102976104b23660046133ce565b6117eb565b6102a16119d0565b610297611a0b565b6102976104d53660046133ce565b611c66565b61039e6104e83660046133ce565b611cbf565b61044b611eb1565b61044b61050336600461344c565b612091565b61044b6121ad565b61039e61051e366004613605565b6121e8565b61039e61053136600461355f565b612259565b60028054600160f01b900460ff161461039e565b610373610558366004613669565b6122de565b6103fc6126ea565b61039e61057336600461355f565b612771565b61058b61058636600461344c565b6127f5565b6040516102b39190613686565b6102976105a6366004613669565b6128cd565b6103fc612a4f565b6102976105c13660046133ce565b612a8a565b6102976105d4366004613694565b612bfa565b61039e6105e73660046136e7565b612cdd565b610373612e48565b610297612ece565b61044b61060a36600461344c565b6130ec565b73__$364aad554dc80380f414546becdd2c1584$__63a8ef95ac6002684174746f726e65797360b81b610640613163565b6040516001600160e01b031960e086901b1681526004810193909352602483019190915264ffffffffff16604482015260640160206040518083038186803b15801561068b57600080fd5b505af415801561069f573d6000803e3d6000fd5b505050506040513d601f19601f820116820180604052508101906106c39190613726565b6106e85760405162461bcd60e51b81526004016106df90613743565b60405180910390fd5b60f081901c60008181526011602052604090819020839055516392f13c3f60e01b8152601260048201526024810182905273__$8c1a4844a0a0988ea2454cf87145a95df1$__906392f13c3f9060440160206040518083038186803b15801561075057600080fd5b505af4158015610764573d6000803e3d6000fd5b505050506040513d601f19601f820116820180604052508101906107889190613726565b505050565b60405163e8c0cc1d60e01b81526002600482015260009073__$364aad554dc80380f414546becdd2c1584$__9063e8c0cc1d906024015b60206040518083038186803b1580156107dc57600080fd5b505af41580156107f0573d6000803e3d6000fd5b505050506040513d601f19601f82011682018060405250810190610814919061378a565b905090565b6001546040516335d2155560e11b81523360048201526001600160a01b0390911690636ba42aaa9060240160206040518083038186803b15801561085c57600080fd5b505afa158015610870573d6000803e3d6000fd5b505050506040513d601f19601f820116820180604052508101906108949190613726565b6108d45760405162461bcd60e51b815260206004820152601160248201527020a19737b59d103737ba1025b2b2b832b960791b60448201526064016106df565b8215610971576040516368c2325360e01b8152600481810152602481018390526044810182905273__$47b88465a20692378cf12e8e0c338f01dd$__906368c23253906064015b60206040518083038186803b15801561093357600080fd5b505af4158015610947573d6000803e3d6000fd5b505050506040513d601f19601f8201168201806040525081019061096b9190613726565b50505050565b6040516368c2325360e01b815260096004820152602481018390526044810182905273__$47b88465a20692378cf12e8e0c338f01dd$__906368c232539060640161091b565b73__$364aad554dc80380f414546becdd2c1584$__6382daafaa6002846109dc613163565b6040516001600160e01b031960e086901b1681526004810193909352602483019190915264ffffffffff166044820152606481018490526084015b60006040518083038186803b158015610a2f57600080fd5b505af4158015610a43573d6000803e3d6000fd5b505050505050565b73__$364aad554dc80380f414546becdd2c1584$__636320d75e6002846109dc613163565b6060808215610b1957600460005b6005020173__$47b88465a20692378cf12e8e0c338f01dd$__63c018ec8790916040518263ffffffff1660e01b8152600401610abc91815260200190565b60006040518083038186803b158015610ad457600080fd5b505af4158015610ae8573d6000803e3d6000fd5b505050506040513d6000823e601f3d908101601f19168201604052610b109190810190613972565b91509150915091565b60046001610a7e565b73__$364aad554dc80380f414546becdd2c1584$__63a8ef95ac6002684174746f726e65797360b81b610b53613163565b6040516001600160e01b031960e086901b1681526004810193909352602483019190915264ffffffffff16604482015260640160206040518083038186803b158015610b9e57600080fd5b505af4158015610bb2573d6000803e3d6000fd5b505050506040513d601f19601f82011682018060405250810190610bd69190613726565b610bf25760405162461bcd60e51b81526004016106df90613743565b8115610c6d57604051635284fe6760e11b815260048181015265ffffffffffff8216602482015273__$47b88465a20692378cf12e8e0c338f01dd$__9063a509fcce9060440160006040518083038186803b158015610c5057600080fd5b505af4158015610c64573d6000803e3d6000fd5b50505050610cdf565b604051635284fe6760e11b81526009600482015265ffffffffffff8216602482015273__$47b88465a20692378cf12e8e0c338f01dd$__9063a509fcce9060440160006040518083038186803b158015610cc657600080fd5b505af4158015610cda573d6000803e3d6000fd5b505050505b60408051831515815265ffffffffffff831660208201527f523844b7b23204192ed69d6efc62131f2a86a16ecf1326fd0084e459b31cb62d910160405180910390a15050565b604080516080810182526000808252602082018190529181018290526060818101929092528315610df457600460005b604051630b5b0ad560e01b81526005919091029190910160048201526024810184905273__$47b88465a20692378cf12e8e0c338f01dd$__90630b5b0ad59060440160006040518083038186803b158015610daf57600080fd5b505af4158015610dc3573d6000803e3d6000fd5b505050506040513d6000823e601f3d908101601f19168201604052610deb9190810190613a31565b91509150610dfd565b60046001610d55565b9250929050565b604051633f5f77cd60e01b8152601260048201526024810182905260009073__$8c1a4844a0a0988ea2454cf87145a95df1$__90633f5f77cd906044015b60206040518083038186803b158015610e5a57600080fd5b505af4158015610e6e573d6000803e3d6000fd5b505050506040513d601f19601f82011682018060405250810190610e929190613726565b92915050565b604051633b11adbf60e21b81526002600482015233602482015273__$364aad554dc80380f414546becdd2c1584$__9063ec46b6fc9060440160206040518083038186803b158015610ee957600080fd5b505af4158015610efd573d6000803e3d6000fd5b505050506040513d601f19601f82011682018060405250810190610f219190613726565b610f3d5760405162461bcd60e51b81526004016106df90613a80565b60405163cc99e11b60e01b8152600260048201526024810182905273__$364aad554dc80380f414546becdd2c1584$__9063cc99e11b9060440160006040518083038186803b158015610f8f57600080fd5b505af4158015610fa3573d6000803e3d6000fd5b5050505050565b6000610fb68383612259565b80610fc65750610fc683836113b3565b9392505050565b60405163c2b46a8560e01b8152600a6004820152600090819073__$8c1a4844a0a0988ea2454cf87145a95df1$__9063c2b46a859060240160206040518083038186803b15801561101d57600080fd5b505af4158015611031573d6000803e3d6000fd5b505050506040513d601f19601f820116820180604052508101906110559190613ac6565b116110dd576040516318a7841360e11b815260048181015273__$47b88465a20692378cf12e8e0c338f01dd$__9063314f0826906024015b60206040518083038186803b1580156110a557600080fd5b505af41580156110b9573d6000803e3d6000fd5b505050506040513d601f19601f820116820180604052508101906108149190613726565b6040516318a7841360e11b81526009600482015273__$47b88465a20692378cf12e8e0c338f01dd$__9063314f08269060240160206040518083038186803b15801561112857600080fd5b505af415801561113c573d6000803e3d6000fd5b505050506040513d601f19601f820116820180604052508101906111609190613726565b801561081457506040516318a7841360e11b815260048181015273__$47b88465a20692378cf12e8e0c338f01dd$__9063314f08269060240161108d565b604051633b11adbf60e21b81526002600482015233602482015273__$364aad554dc80380f414546becdd2c1584$__9063ec46b6fc9060440160206040518083038186803b1580156111ef57600080fd5b505af4158015611203573d6000803e3d6000fd5b505050506040513d601f19601f820116820180604052508101906112279190613726565b806112cc575073__$364aad554dc80380f414546becdd2c1584$__63fe2710866002611251613163565b6040516001600160e01b031960e085901b168152600481019290925264ffffffffff16602482015260440160206040518083038186803b15801561129457600080fd5b505af41580156112a8573d6000803e3d6000fd5b505050506040513d601f19601f820116820180604052508101906112cc9190613726565b6112e85760405162461bcd60e51b81526004016106df90613adf565b604051632725ebef60e21b8152600260048201526024810182905273__$364aad554dc80380f414546becdd2c1584$__90639c97afbc9060440160006040518083038186803b15801561133a57600080fd5b505af415801561134e573d6000803e3d6000fd5b505050507ff2735f34b69be1e6342dea95f9162f84d0db925fab655ca9f1f312ac8cbfc99d8160405161138391815260200190565b60405180910390a150565b73__$364aad554dc80380f414546becdd2c1584$__63ee98b3136002846109dc613163565b60008261144a57604051633f5f77cd60e01b8152600c60048201526024810183905273__$8c1a4844a0a0988ea2454cf87145a95df1$__90633f5f77cd906044015b60206040518083038186803b15801561140d57600080fd5b505af4158015611421573d6000803e3d6000fd5b505050506040513d601f19601f820116820180604052508101906114459190613726565b610fc6565b604051633f5f77cd60e01b8152600760048201526024810183905273__$8c1a4844a0a0988ea2454cf87145a95df1$__90633f5f77cd906044015b60206040518083038186803b15801561149d57600080fd5b505af41580156114b1573d6000803e3d6000fd5b505050506040513d601f19601f82011682018060405250810190610fc69190613726565b60405163034306e160e21b81526012600482015260609073__$8c1a4844a0a0988ea2454cf87145a95df1$__90630d0c1b84906024015b60006040518083038186803b15801561152457600080fd5b505af4158015611538573d6000803e3d6000fd5b505050506040513d6000823e601f3d908101601f191682016040526108149190810190613b35565b60008361156c81611760565b6115885760405162461bcd60e51b81526004016106df90613b72565b6115938585856121e8565b6115a057600191506116a6565b6000858152600e6020526040908190205490516320bf56eb60e21b8152600481018590526001600160a01b03918216916368d89b569187918216906382fd5bac906024015b6101e06040518083038186803b1580156115fe57600080fd5b505afa158015611612573d6000803e3d6000fd5b505050506040513d601f19601f820116820180604052508101906116369190613c4f565b6040518363ffffffff1660e01b8152600401611653929190613d55565b60206040518083038186803b15801561166b57600080fd5b505afa15801561167f573d6000803e3d6000fd5b505050506040513d601f19601f820116820180604052508101906116a39190613726565b91505b509392505050565b604051630f07232560e01b8152600260048201523360248201526001600160a01b038216604482015273__$364aad554dc80380f414546becdd2c1584$__90630f0723259060640160006040518083038186803b15801561170e57600080fd5b505af4158015611722573d6000803e3d6000fd5b50506040516001600160a01b03841681527fe435cbeab64e4eae6497b9d8289704bd709d624a80704ef3ca9af777534bc6ec92506020019050611383565b604051633f5f77cd60e01b8152600f60048201526024810182905260009073__$8c1a4844a0a0988ea2454cf87145a95df1$__90633f5f77cd90604401610e42565b604051632a3be56b60e21b815260026004820152602481018390526044810182905260009073__$364aad554dc80380f414546becdd2c1584$__9063a8ef95ac90606401611485565b604051633b11adbf60e21b81526002600482015233602482015273__$364aad554dc80380f414546becdd2c1584$__9063ec46b6fc9060440160206040518083038186803b15801561183c57600080fd5b505af4158015611850573d6000803e3d6000fd5b505050506040513d601f19601f820116820180604052508101906118749190613726565b80611919575073__$364aad554dc80380f414546becdd2c1584$__63fe271086600261189e613163565b6040516001600160e01b031960e085901b168152600481019290925264ffffffffff16602482015260440160206040518083038186803b1580156118e157600080fd5b505af41580156118f5573d6000803e3d6000fd5b505050506040513d601f19601f820116820180604052508101906119199190613726565b6119355760405162461bcd60e51b81526004016106df90613adf565b60405163b6e38a2960e01b8152600260048201526024810182905273__$364aad554dc80380f414546becdd2c1584$__9063b6e38a299060440160006040518083038186803b15801561198757600080fd5b505af415801561199b573d6000803e3d6000fd5b505050507f8b6f40f36b4ae8cc5f55e895036457c43da4ab1f80f58c46f5ff0d72a650033b8160405161138391815260200190565b60405163987ad15360e01b81526002600482015260009073__$364aad554dc80380f414546becdd2c1584$__9063987ad153906024016107c4565b604051633b11adbf60e21b81526002600482015233602482015273__$364aad554dc80380f414546becdd2c1584$__9063ec46b6fc9060440160206040518083038186803b158015611a5c57600080fd5b505af4158015611a70573d6000803e3d6000fd5b505050506040513d601f19601f82011682018060405250810190611a949190613726565b611ab05760405162461bcd60e51b81526004016106df90613a80565b60405163c2b46a8560e01b8152600f600482015260009073__$8c1a4844a0a0988ea2454cf87145a95df1$__9063c2b46a859060240160206040518083038186803b158015611afe57600080fd5b505af4158015611b12573d6000803e3d6000fd5b505050506040513d601f19601f82011682018060405250810190611b369190613ac6565b905060005b81811015611c5a57604051630ef6982f60e41b8152600f600482015260248101829052600e9060009073__$8c1a4844a0a0988ea2454cf87145a95df1$__9063ef6982f09060440160206040518083038186803b158015611b9b57600080fd5b505af4158015611baf573d6000803e3d6000fd5b505050506040513d601f19601f82011682018060405250810190611bd39190613ac6565b815260200190815260200160002060009054906101000a90046001600160a01b03166001600160a01b031663f045a7696040518163ffffffff1660e01b8152600401600060405180830381600087803b158015611c2f57600080fd5b505af1158015611c43573d6000803e3d6000fd5b505050508080611c5290613e78565b915050611b3b565b50611c63612ece565b50565b6000611c70613163565b60405163cc0d511b60e01b8152600260048201526024810184905264ffffffffff8216604482015290915073__$364aad554dc80380f414546becdd2c1584$__9063cc0d511b90606401610a17565b604051633f5f77cd60e01b8152600560048201526024810182905260009073__$8c1a4844a0a0988ea2454cf87145a95df1$__90633f5f77cd9060440160206040518083038186803b158015611d1457600080fd5b505af4158015611d28573d6000803e3d6000fd5b505050506040513d601f19601f82011682018060405250810190611d4c9190613726565b80611ddc5750604051633f5f77cd60e01b8152600760048201526024810183905273__$8c1a4844a0a0988ea2454cf87145a95df1$__90633f5f77cd9060440160206040518083038186803b158015611da457600080fd5b505af4158015611db8573d6000803e3d6000fd5b505050506040513d601f19601f82011682018060405250810190611ddc9190613726565b80611e6c5750604051633f5f77cd60e01b8152600a60048201526024810183905273__$8c1a4844a0a0988ea2454cf87145a95df1$__90633f5f77cd9060440160206040518083038186803b158015611e3457600080fd5b505af4158015611e48573d6000803e3d6000fd5b505050506040513d601f19601f82011682018060405250810190611e6c9190613726565b80610e925750604051633f5f77cd60e01b8152600c60048201526024810183905273__$8c1a4844a0a0988ea2454cf87145a95df1$__90633f5f77cd90604401610e42565b60606000611ebf6001612091565b905073__$ccb256085f563a601d001f7c9087d87207$__63088b9bf682611ee66000612091565b6040518363ffffffff1660e01b8152600401611f03929190613ea1565b60006040518083038186803b158015611f1b57600080fd5b505af4158015611f2f573d6000803e3d6000fd5b505050506040513d6000823e601f3d908101601f19168201604052611f579190810190613b35565b506000611f6460016130ec565b905073__$ccb256085f563a601d001f7c9087d87207$__63088b9bf682611f8b60006130ec565b6040518363ffffffff1660e01b8152600401611fa8929190613ea1565b60006040518083038186803b158015611fc057600080fd5b505af4158015611fd4573d6000803e3d6000fd5b505050506040513d6000823e601f3d908101601f19168201604052611ffc9190810190613b35565b50604051630445cdfb60e11b815273__$ccb256085f563a601d001f7c9087d87207$__9063088b9bf6906120369085908590600401613ea1565b60006040518083038186803b15801561204e57600080fd5b505af4158015612062573d6000803e3d6000fd5b505050506040513d6000823e601f3d908101601f1916820160405261208a9190810190613b35565b9250505090565b6060816121255760405163034306e160e21b81526005600482015273__$8c1a4844a0a0988ea2454cf87145a95df1$__90630d0c1b84906024015b60006040518083038186803b1580156120e457600080fd5b505af41580156120f8573d6000803e3d6000fd5b505050506040513d6000823e601f3d908101601f191682016040526121209190810190613b35565b610e92565b60405163034306e160e21b81526005600482015273__$8c1a4844a0a0988ea2454cf87145a95df1$__90630d0c1b84906024015b60006040518083038186803b15801561217157600080fd5b505af4158015612185573d6000803e3d6000fd5b505050506040513d6000823e601f3d908101601f19168201604052610e929190810190613b35565b60405163034306e160e21b8152600f600482015260609073__$8c1a4844a0a0988ea2454cf87145a95df1$__90630d0c1b849060240161150c565b6000836121f481611760565b6122105760405162461bcd60e51b81526004016106df90613b72565b6000858152600e6020526040908190205490516320bf56eb60e21b8152600481018590526001600160a01b0391821691633a8a879f9187918216906382fd5bac906024016115e5565b60008261229f57604051633f5f77cd60e01b8152600a60048201526024810183905273__$8c1a4844a0a0988ea2454cf87145a95df1$__90633f5f77cd906044016113f5565b604051633f5f77cd60e01b8152600560048201526024810183905273__$8c1a4844a0a0988ea2454cf87145a95df1$__90633f5f77cd90604401611485565b600073__$364aad554dc80380f414546becdd2c1584$__6331a349c06002612304613163565b6040516001600160e01b031960e085901b168152600481019290925264ffffffffff16602482015260440160206040518083038186803b15801561234757600080fd5b505af415801561235b573d6000803e3d6000fd5b505050506040513d601f19601f8201168201806040525081019061237f9190613726565b6123cb5760405162461bcd60e51b815260206004820152601b60248201527f41432e6f67633a206e6f742067656e6572616c20636f756e73656c000000000060448201526064016106df565b816123d46131bd565b604051634523206d60e11b815260ff831660048201526001600160a01b039190911690638a4640da9060240160206040518083038186803b15801561241857600080fd5b505afa15801561242c573d6000803e3d6000fd5b505050506040513d601f19601f820116820180604052508101906124509190613726565b6124a85760405162461bcd60e51b8152602060048201526024808201527f5348412e74656d705265616479466f723a2054656d706c617465204e4f5420726044820152636561647960e01b60648201526084016106df565b6125346124b36131bd565b604051631ce3b0eb60e31b815260ff861660048201526001600160a01b03919091169063e71d87589060240160206040518083038186803b1580156124f757600080fd5b505afa15801561250b573d6000803e3d6000fd5b505050506040513d601f19601f8201168201806040525081019061252f9190613ec6565b613216565b915060006125406119d0565b9050600061254c61078d565b60005460015460405163dc890da960e01b815264ffffffffff861660048201523060248201526001600160a01b039283166044820152908216606482015291925085169063dc890da990608401600060405180830381600087803b1580156125b357600080fd5b505af11580156125c7573d6000803e3d6000fd5b5050604051634a14beb160e01b815264ffffffffff841660048201526001600160a01b0387169250634a14beb19150602401600060405180830381600087803b15801561261357600080fd5b505af1158015612627573d6000803e3d6000fd5b5050505060ff85166000818152600e60205260409081902080546001600160a01b0319166001600160a01b038816179055516392f13c3f60e01b8152600f6004820152602481019190915273__$8c1a4844a0a0988ea2454cf87145a95df1$__906392f13c3f9060440160206040518083038186803b1580156126a957600080fd5b505af41580156126bd573d6000803e3d6000fd5b505050506040513d601f19601f820116820180604052508101906126e19190613726565b50505050919050565b60405163c2b46a8560e01b8152600f600482015260009073__$8c1a4844a0a0988ea2454cf87145a95df1$__9063c2b46a85906024015b60206040518083038186803b15801561273957600080fd5b505af415801561274d573d6000803e3d6000fd5b505050506040513d601f19601f820116820180604052508101906108149190613ac6565b6000826127b7576040516324d431a360e01b8152600960048201526024810183905273__$47b88465a20692378cf12e8e0c338f01dd$__906324d431a3906044016113f5565b6040516324d431a360e01b81526004818101526024810183905273__$47b88465a20692378cf12e8e0c338f01dd$__906324d431a390604401611485565b6040805160808101825260008082526020820181905291810182905260608101919091528161284d576000805260096020527fec8156718a8372b1db44bb411437d0870f3e3790d4a08526d024ce1b0b668f6d612878565b6000805260046020527f17ef568e3e12ab5b9c7254a8d58478811de00f9e6eb34345acd53bf8fd09d3ee5b60408051608081018252825464ffffffffff8116825265010000000000810465ffffffffffff166020830152600160581b900467ffffffffffffffff1691810191909152600190910154606082015292915050565b73__$364aad554dc80380f414546becdd2c1584$__63a8ef95ac6002684174746f726e65797360b81b6128fe613163565b6040516001600160e01b031960e086901b1681526004810193909352602483019190915264ffffffffff16604482015260640160206040518083038186803b15801561294957600080fd5b505af415801561295d573d6000803e3d6000fd5b505050506040513d601f19601f820116820180604052508101906129819190613726565b61299d5760405162461bcd60e51b81526004016106df90613743565b6040516392fd02df60e01b8152600f600482015260ff8216602482015273__$8c1a4844a0a0988ea2454cf87145a95df1$__906392fd02df9060440160206040518083038186803b1580156129f157600080fd5b505af4158015612a05573d6000803e3d6000fd5b505050506040513d601f19601f82011682018060405250810190612a299190613726565b15611c635760ff166000908152600e6020526040902080546001600160a01b0319169055565b60405163c2b46a8560e01b81526012600482015260009073__$8c1a4844a0a0988ea2454cf87145a95df1$__9063c2b46a8590602401612721565b73__$364aad554dc80380f414546becdd2c1584$__63a8ef95ac6002684174746f726e65797360b81b612abb613163565b6040516001600160e01b031960e086901b1681526004810193909352602483019190915264ffffffffff16604482015260640160206040518083038186803b158015612b0657600080fd5b505af4158015612b1a573d6000803e3d6000fd5b505050506040513d601f19601f82011682018060405250810190612b3e9190613726565b612b5a5760405162461bcd60e51b81526004016106df90613743565b6040516392fd02df60e01b8152601260048201526024810182905273__$8c1a4844a0a0988ea2454cf87145a95df1$__906392fd02df9060440160206040518083038186803b158015612bac57600080fd5b505af4158015612bc0573d6000803e3d6000fd5b505050506040513d601f19601f82011682018060405250810190612be49190613726565b15611c6357600090815260116020526040812055565b612c0382613268565b612c0c81613317565b604051636cdd0edf60e11b815260026004820152602481018590526001600160a01b038416604482015273__$364aad554dc80380f414546becdd2c1584$__9063d9ba1dbe9060640160006040518083038186803b158015612c6d57600080fd5b505af4158015612c81573d6000803e3d6000fd5b5050604080518781526001600160a01b038781166020830152868116828401528516606082015290517f3abb2418c66fe32ba9c883030a75ce583971d9af9192b9b74e44e67c5e6c8c1f9350908190036080019150a150505050565b6001546040516335d2155560e11b81523360048201526000916001600160a01b031690636ba42aaa9060240160206040518083038186803b158015612d2157600080fd5b505afa158015612d35573d6000803e3d6000fd5b505050506040513d601f19601f82011682018060405250810190612d599190613726565b612d995760405162461bcd60e51b815260206004820152601160248201527020a19737b59d103737ba1025b2b2b832b960791b60448201526064016106df565b60405163031559a160e01b815260096004820152602481018690526044810185905265ffffffffffff841660648201526084810183905273__$47b88465a20692378cf12e8e0c338f01dd$__9063031559a19060a40160206040518083038186803b158015612e0757600080fd5b505af4158015612e1b573d6000803e3d6000fd5b505050506040513d601f19601f82011682018060405250810190612e3f9190613726565b95945050505050565b604051633c3e56c160e11b81526002600482015260009073__$364aad554dc80380f414546becdd2c1584$__9063787cad829060240160206040518083038186803b158015612e9657600080fd5b505af4158015612eaa573d6000803e3d6000fd5b505050506040513d601f19601f820116820180604052508101906108149190613ec6565b604051633b11adbf60e21b81526002600482015233602482015273__$364aad554dc80380f414546becdd2c1584$__9063ec46b6fc9060440160206040518083038186803b158015612f1f57600080fd5b505af4158015612f33573d6000803e3d6000fd5b505050506040513d601f19601f82011682018060405250810190612f579190613726565b612f735760405162461bcd60e51b81526004016106df90613a80565b600254600160f01b900460ff16600114612fcf5760405162461bcd60e51b815260206004820181905260248201527f41432e6f6e6c7950656e64696e673a20446f632069732066696e616c697a656460448201526064016106df565b60405163cc99e11b60e01b815260026004820152684174746f726e65797360b81b602482015273__$364aad554dc80380f414546becdd2c1584$__9063cc99e11b9060440160006040518083038186803b15801561302c57600080fd5b505af4158015613040573d6000803e3d6000fd5b5050604051632725ebef60e21b8152600260048201526000602482015273__$364aad554dc80380f414546becdd2c1584$__9250639c97afbc915060440160006040518083038186803b15801561309657600080fd5b505af41580156130aa573d6000803e3d6000fd5b50506002805460ff60f01b1916600160f11b17905550506040517f35012b512309c322acf68632cd6cb702ff0e1d776fbe9394e38ffc13b434fe7590600090a1565b60608161312b5760405163034306e160e21b8152600c600482015273__$8c1a4844a0a0988ea2454cf87145a95df1$__90630d0c1b84906024016120cc565b60405163034306e160e21b81526007600482015273__$8c1a4844a0a0988ea2454cf87145a95df1$__90630d0c1b8490602401612159565b60008054604051634de835e760e11b81523360048201526001600160a01b0390911690639bd06bce90602401602060405180830381600087803b1580156131a957600080fd5b505af11580156107f0573d6000803e3d6000fd5b60015460405163e0ff5b8b60e01b8152600360048201526000916001600160a01b03169063e0ff5b8b9060240160206040518083038186803b15801561320257600080fd5b505afa158015612eaa573d6000803e3d6000fd5b6000808260601b9050604051733d602d80600a3d3981f3363d3d373d3d3d363d7360601b81528160148201526e5af43d82803e903d91602b57fd5bf360881b60288201526037816000f0949350505050565b6000546001600160a01b0316156132b95760405162461bcd60e51b815260206004820152601560248201527430b63932b0b23c9039b2ba103932b3a1b2b73a32b960591b60448201526064016106df565b6040516001600160a01b03821681527f318da6c7624c71cbc0afe346c9d8827f119d0ecefb241a7b0c87217a076a8e029060200160405180910390a1600080546001600160a01b0319166001600160a01b0392909216919091179055565b6001546001600160a01b0316156133705760405162461bcd60e51b815260206004820152601960248201527f616c7265616479207365742067656e6572616c4b65657065720000000000000060448201526064016106df565b6040516001600160a01b03821681527fe513d3e0f0d0a3877029dcc588748679a7a3450ec1ec7ed56d96bd012c3e61aa9060200160405180910390a1600180546001600160a01b0319166001600160a01b0392909216919091179055565b6000602082840312156133e057600080fd5b5035919050565b8015158114611c6357600080fd5b60008060006060848603121561340a57600080fd5b8335613415816133e7565b95602085013595506040909401359392505050565b6000806040838503121561343d57600080fd5b50508035926020909101359150565b60006020828403121561345e57600080fd5b8135610fc6816133e7565b64ffffffffff815116825265ffffffffffff602082015116602083015267ffffffffffffffff6040820151166040830152606081015160608301525050565b600081518084526020808501945080840160005b838110156134e2576134cf878351613469565b60809690960195908201906001016134bc565b509495945050505050565b60408152600061350060408301856134a8565b82810360208401526116a381856134a8565b65ffffffffffff81168114611c6357600080fd5b6000806040838503121561353957600080fd5b8235613544816133e7565b9150602083013561355481613512565b809150509250929050565b6000806040838503121561357257600080fd5b823561357d816133e7565b946020939093013593505050565b600081518084526020808501945080840160005b838110156134e25781518752958201959082019060010161359f565b60a0815260006135ce60a083018561358b565b9050610fc66020830184613469565b602081526000610fc6602083018461358b565b6001600160a01b0381168114611c6357600080fd5b60008060006060848603121561361a57600080fd5b83359250602084013561362c816135f0565b929592945050506040919091013590565b60006020828403121561364f57600080fd5b8135610fc6816135f0565b60ff81168114611c6357600080fd5b60006020828403121561367b57600080fd5b8135610fc68161365a565b60808101610e928284613469565b600080600080608085870312156136aa57600080fd5b8435935060208501356136bc816135f0565b925060408501356136cc816135f0565b915060608501356136dc816135f0565b939692955090935050565b600080600080608085870312156136fd57600080fd5b8435935060208501359250604085013561371681613512565b9396929550929360600135925050565b60006020828403121561373857600080fd5b8151610fc6816133e7565b60208082526013908201527241432e6f743a206e6f74204174746f726e657960681b604082015260600190565b805164ffffffffff8116811461378557600080fd5b919050565b60006020828403121561379c57600080fd5b610fc682613770565b634e487b7160e01b600052604160045260246000fd5b6040516080810167ffffffffffffffff811182821017156137de576137de6137a5565b60405290565b6040516060810167ffffffffffffffff811182821017156137de576137de6137a5565b604051610140810167ffffffffffffffff811182821017156137de576137de6137a5565b604051601f8201601f1916810167ffffffffffffffff81118282101715613854576138546137a5565b604052919050565b600067ffffffffffffffff821115613876576138766137a5565b5060051b60200190565b805161378581613512565b805167ffffffffffffffff8116811461378557600080fd5b6000608082840312156138b557600080fd5b6138bd6137bb565b90506138c882613770565b815260208201516138d881613512565b60208201526138e96040830161388b565b60408201526060820151606082015292915050565b600082601f83011261390f57600080fd5b8151602061392461391f8361385c565b61382b565b82815260079290921b8401810191818101908684111561394357600080fd5b8286015b848110156139675761395988826138a3565b835291830191608001613947565b509695505050505050565b6000806040838503121561398557600080fd5b825167ffffffffffffffff8082111561399d57600080fd5b6139a9868387016138fe565b935060208501519150808211156139bf57600080fd5b506139cc858286016138fe565b9150509250929050565b600082601f8301126139e757600080fd5b815160206139f761391f8361385c565b82815260059290921b84018101918181019086841115613a1657600080fd5b8286015b848110156139675780518352918301918301613a1a565b60008060a08385031215613a4457600080fd5b825167ffffffffffffffff811115613a5b57600080fd5b613a67858286016139d6565b925050613a7784602085016138a3565b90509250929050565b60208082526026908201527f41432e6f6e6c794469726563744b65657065723a206e6f74206469726563742060408201526535b2b2b832b960d11b606082015260800190565b600060208284031215613ad857600080fd5b5051919050565b60208082526036908201527f41432e6f776e65724f72446972656374426f6f6b65657065723a206e6569746860408201527532b91037bbb732b9103737b9103137b7b5b2b2b832b960511b606082015260800190565b600060208284031215613b4757600080fd5b815167ffffffffffffffff811115613b5e57600080fd5b613b6a848285016139d6565b949350505050565b6020808252602c908201527f5348412e7469746c6545786973743a2053484120646f6573206e6f742068617660408201526b652073756368207469746c6560a01b606082015260800190565b80516137858161365a565b805161ffff8116811461378557600080fd5b805163ffffffff8116811461378557600080fd5b600060808284031215613c0157600080fd5b613c096137bb565b9050613c1482613770565b8152613c2260208301613770565b6020820152613c336040830161388b565b6040820152613c446060830161388b565b606082015292915050565b60008183036101e0811215613c6357600080fd5b613c6b6137e4565b61014080831215613c7b57600080fd5b613c83613807565b9250613c8e85613bbe565b8352613c9c60208601613bc9565b6020840152613cad60408601613bc9565b6040840152613cbe60608601613bc9565b6060840152613ccf60808601613bdb565b6080840152613ce060a08601613770565b60a0840152613cf160c08601613bdb565b60c0840152613d0260e08601613bdb565b60e0840152610100613d15818701613880565b90840152610120613d27868201613bbe565b90840152828252613d3a86868301613bef565b6020830152506101c093909301516040840152509092915050565b6001600160a01b03831681528151805160ff166020830152610200820190602081015161ffff8116604085015250604081015161ffff8116606085015250606081015161ffff8116608085015250608081015163ffffffff811660a08501525060a081015164ffffffffff811660c08501525060c081015163ffffffff811660e08501525060e0810151610100613df38186018363ffffffff169052565b8201519050610120613e0e8582018365ffffffffffff169052565b919091015160ff1661014084015250602083810151805164ffffffffff9081166101608601529181015190911661018084015260408082015167ffffffffffffffff9081166101a08601526060909201519091166101c0840152909201516101e090910152919050565b6000600019821415613e9a57634e487b7160e01b600052601160045260246000fd5b5060010190565b604081526000613eb4604083018561358b565b82810360208401526116a3818561358b565b600060208284031215613ed857600080fd5b8151610fc6816135f056fea2646970667358221220030573017766363f0913da2615d55050029474cc08c1baf0b16186d5344bef8764736f6c63430008080033",
    "sourcePath": "/Users/kaptain/github.com/hardhat/comboox/contracts/books/boh/ShareholdersAgreement.sol",
    "compiler": {
        "name": "solc",
        "version": "0.8.8+commit.dddeac2f"
    },
    "functionHashes": {
        "abandonRole(bytes32)": "3da9a600",
        "addRule(bytes32)": "05ee7735",
        "createTerm(uint8)": "b71754c7",
        "established()": "4844f541",
        "finalizeTerms()": "8969d43a",
        "finalized()": "b3f05b97",
        "getBookeeper()": "ed211023",
        "getBuyers(bool)": "a959c69c",
        "getGeneralCounsel()": "103f6edd",
        "getOwner()": "893d20e8",
        "getParasOfPage(bool)": "ccb2f415",
        "getParties()": "a8311aa8",
        "getRule(uint256)": "48462037",
        "getSellers(bool)": "f2724eb2",
        "getSigOfParty(bool,uint256)": "34367313",
        "getSigsOfPage(bool)": "25abe790",
        "getTerm(uint256)": "346ba941",
        "grantRole(bytes32,uint256)": "1b6ea9f9",
        "hasRole(bytes32,uint256)": "7e063c5a",
        "hasRule(uint256)": "379ef4a6",
        "hasTitle(uint256)": "71765449",
        "init(uint256,address,address,address)": "dc890da9",
        "isBuyer(bool,uint256)": "b1152335",
        "isParty(bool,uint256)": "460a0d0b",
        "isParty(uint256)": "8c5f9170",
        "isSeller(bool,uint256)": "51b171a3",
        "isSigner(bool,uint256)": "cb2123e4",
        "lockContents()": "f045a769",
        "qtyOfRules()": "d0c504b0",
        "qtyOfTerms()": "bc3ffc70",
        "regSig(uint256,uint256,uint48,bytes32)": "eb1a79f4",
        "removeRule(uint256)": "d70da38b",
        "removeTerm(uint8)": "cd75bd3f",
        "renounceRole(bytes32)": "8bb9c5bf",
        "revokeRole(bytes32,uint256)": "19d61ad9",
        "rules()": "52f6747a",
        "setDirectKeeper(address)": "6be8496f",
        "setGeneralCounsel(uint256)": "4a14beb1",
        "setOwner(uint256)": "8041494e",
        "setRoleAdmin(bytes32,uint256)": "5171ebd4",
        "setSigDeadline(bool,uint48)": "2e4c9cd5",
        "signDoc(bool,uint256,bytes32)": "1958ac5a",
        "termIsExempted(uint256,address,uint256)": "5d24f35b",
        "termIsTriggered(uint256,address,uint256)": "ac067843",
        "titles()": "a9acd944"
    },
    "gasEstimates": {
        "creation": {
            "codeDepositCost": "3230600",
            "executionCost": "3579",
            "totalCost": "3234179"
        },
        "external": {
            "abandonRole(bytes32)": "infinite",
            "addRule(bytes32)": "infinite",
            "createTerm(uint8)": "infinite",
            "established()": "infinite",
            "finalizeTerms()": "infinite",
            "finalized()": "2482",
            "getBookeeper()": "infinite",
            "getBuyers(bool)": "infinite",
            "getGeneralCounsel()": "infinite",
            "getOwner()": "infinite",
            "getParasOfPage(bool)": "5134",
            "getParties()": "infinite",
            "getRule(uint256)": "2528",
            "getSellers(bool)": "infinite",
            "getSigOfParty(bool,uint256)": "infinite",
            "getSigsOfPage(bool)": "infinite",
            "getTerm(uint256)": "2589",
            "grantRole(bytes32,uint256)": "infinite",
            "hasRole(bytes32,uint256)": "infinite",
            "hasRule(uint256)": "infinite",
            "hasTitle(uint256)": "infinite",
            "init(uint256,address,address,address)": "infinite",
            "isBuyer(bool,uint256)": "infinite",
            "isParty(bool,uint256)": "infinite",
            "isParty(uint256)": "infinite",
            "isSeller(bool,uint256)": "infinite",
            "isSigner(bool,uint256)": "infinite",
            "lockContents()": "infinite",
            "qtyOfRules()": "infinite",
            "qtyOfTerms()": "infinite",
            "regSig(uint256,uint256,uint48,bytes32)": "infinite",
            "removeRule(uint256)": "infinite",
            "removeTerm(uint8)": "infinite",
            "renounceRole(bytes32)": "infinite",
            "revokeRole(bytes32,uint256)": "infinite",
            "rules()": "infinite",
            "setDirectKeeper(address)": "infinite",
            "setGeneralCounsel(uint256)": "infinite",
            "setOwner(uint256)": "infinite",
            "setRoleAdmin(bytes32,uint256)": "infinite",
            "setSigDeadline(bool,uint48)": "infinite",
            "signDoc(bool,uint256,bytes32)": "infinite",
            "termIsExempted(uint256,address,uint256)": "infinite",
            "termIsTriggered(uint256,address,uint256)": "infinite",
            "titles()": "infinite"
        }
    }
}