{
    "contractName": "ShareholdersAgreement",
    "abi": [
        {
            "anonymous": false,
            "inputs": [
                {
                    "indexed": false,
                    "internalType": "uint40",
                    "name": "owner",
                    "type": "uint40"
                },
                {
                    "indexed": false,
                    "internalType": "address",
                    "name": "directKeeper",
                    "type": "address"
                },
                {
                    "indexed": false,
                    "internalType": "address",
                    "name": "regCenter",
                    "type": "address"
                },
                {
                    "indexed": false,
                    "internalType": "address",
                    "name": "generalKeeper",
                    "type": "address"
                }
            ],
            "name": "Init",
            "type": "event"
        },
        {
            "anonymous": false,
            "inputs": [],
            "name": "LockContents",
            "type": "event"
        },
        {
            "anonymous": false,
            "inputs": [
                {
                    "indexed": false,
                    "internalType": "address",
                    "name": "keeper",
                    "type": "address"
                }
            ],
            "name": "SetDirectKeeper",
            "type": "event"
        },
        {
            "anonymous": false,
            "inputs": [
                {
                    "indexed": false,
                    "internalType": "uint256",
                    "name": "acct",
                    "type": "uint256"
                }
            ],
            "name": "SetGeneralCounsel",
            "type": "event"
        },
        {
            "anonymous": false,
            "inputs": [
                {
                    "indexed": false,
                    "internalType": "address",
                    "name": "gk",
                    "type": "address"
                }
            ],
            "name": "SetGeneralKeeper",
            "type": "event"
        },
        {
            "anonymous": false,
            "inputs": [
                {
                    "indexed": false,
                    "internalType": "uint256",
                    "name": "acct",
                    "type": "uint256"
                }
            ],
            "name": "SetOwner",
            "type": "event"
        },
        {
            "anonymous": false,
            "inputs": [
                {
                    "indexed": false,
                    "internalType": "address",
                    "name": "rc",
                    "type": "address"
                }
            ],
            "name": "SetRegCenter",
            "type": "event"
        },
        {
            "inputs": [
                {
                    "internalType": "bytes32",
                    "name": "role",
                    "type": "bytes32"
                }
            ],
            "name": "abandonRole",
            "outputs": [],
            "stateMutability": "nonpayable",
            "type": "function"
        },
        {
            "inputs": [
                {
                    "internalType": "uint40",
                    "name": "acct",
                    "type": "uint40"
                }
            ],
            "name": "addParty",
            "outputs": [],
            "stateMutability": "nonpayable",
            "type": "function"
        },
        {
            "inputs": [
                {
                    "internalType": "bytes32",
                    "name": "rule",
                    "type": "bytes32"
                }
            ],
            "name": "addRule",
            "outputs": [],
            "stateMutability": "nonpayable",
            "type": "function"
        },
        {
            "inputs": [
                {
                    "internalType": "uint8",
                    "name": "title",
                    "type": "uint8"
                }
            ],
            "name": "createTerm",
            "outputs": [
                {
                    "internalType": "address",
                    "name": "body",
                    "type": "address"
                }
            ],
            "stateMutability": "nonpayable",
            "type": "function"
        },
        {
            "inputs": [],
            "name": "finalizeTerms",
            "outputs": [],
            "stateMutability": "nonpayable",
            "type": "function"
        },
        {
            "inputs": [],
            "name": "finalized",
            "outputs": [
                {
                    "internalType": "bool",
                    "name": "",
                    "type": "bool"
                }
            ],
            "stateMutability": "view",
            "type": "function"
        },
        {
            "inputs": [],
            "name": "getBookeeper",
            "outputs": [
                {
                    "internalType": "address",
                    "name": "",
                    "type": "address"
                }
            ],
            "stateMutability": "view",
            "type": "function"
        },
        {
            "inputs": [],
            "name": "getGeneralCounsel",
            "outputs": [
                {
                    "internalType": "uint40",
                    "name": "",
                    "type": "uint40"
                }
            ],
            "stateMutability": "view",
            "type": "function"
        },
        {
            "inputs": [],
            "name": "getOwner",
            "outputs": [
                {
                    "internalType": "uint40",
                    "name": "",
                    "type": "uint40"
                }
            ],
            "stateMutability": "view",
            "type": "function"
        },
        {
            "inputs": [
                {
                    "internalType": "uint256",
                    "name": "seq",
                    "type": "uint256"
                }
            ],
            "name": "getRule",
            "outputs": [
                {
                    "internalType": "bytes32",
                    "name": "",
                    "type": "bytes32"
                }
            ],
            "stateMutability": "view",
            "type": "function"
        },
        {
            "inputs": [
                {
                    "internalType": "uint256",
                    "name": "title",
                    "type": "uint256"
                }
            ],
            "name": "getTerm",
            "outputs": [
                {
                    "internalType": "address",
                    "name": "",
                    "type": "address"
                }
            ],
            "stateMutability": "view",
            "type": "function"
        },
        {
            "inputs": [
                {
                    "internalType": "bytes32",
                    "name": "role",
                    "type": "bytes32"
                },
                {
                    "internalType": "uint40",
                    "name": "acct",
                    "type": "uint40"
                }
            ],
            "name": "grantRole",
            "outputs": [],
            "stateMutability": "nonpayable",
            "type": "function"
        },
        {
            "inputs": [
                {
                    "internalType": "bytes32",
                    "name": "role",
                    "type": "bytes32"
                },
                {
                    "internalType": "uint40",
                    "name": "acct",
                    "type": "uint40"
                }
            ],
            "name": "hasRole",
            "outputs": [
                {
                    "internalType": "bool",
                    "name": "",
                    "type": "bool"
                }
            ],
            "stateMutability": "view",
            "type": "function"
        },
        {
            "inputs": [
                {
                    "internalType": "uint256",
                    "name": "seq",
                    "type": "uint256"
                }
            ],
            "name": "hasRule",
            "outputs": [
                {
                    "internalType": "bool",
                    "name": "",
                    "type": "bool"
                }
            ],
            "stateMutability": "view",
            "type": "function"
        },
        {
            "inputs": [
                {
                    "internalType": "uint256",
                    "name": "title",
                    "type": "uint256"
                }
            ],
            "name": "hasTitle",
            "outputs": [
                {
                    "internalType": "bool",
                    "name": "",
                    "type": "bool"
                }
            ],
            "stateMutability": "view",
            "type": "function"
        },
        {
            "inputs": [
                {
                    "internalType": "uint40",
                    "name": "owner",
                    "type": "uint40"
                },
                {
                    "internalType": "address",
                    "name": "directKeeper",
                    "type": "address"
                },
                {
                    "internalType": "address",
                    "name": "regCenter",
                    "type": "address"
                },
                {
                    "internalType": "address",
                    "name": "generalKeeper",
                    "type": "address"
                }
            ],
            "name": "init",
            "outputs": [],
            "stateMutability": "nonpayable",
            "type": "function"
        },
        {
            "inputs": [],
            "name": "lockContents",
            "outputs": [],
            "stateMutability": "nonpayable",
            "type": "function"
        },
        {
            "inputs": [],
            "name": "qtyOfRules",
            "outputs": [
                {
                    "internalType": "uint256",
                    "name": "",
                    "type": "uint256"
                }
            ],
            "stateMutability": "view",
            "type": "function"
        },
        {
            "inputs": [],
            "name": "qtyOfTerms",
            "outputs": [
                {
                    "internalType": "uint256",
                    "name": "",
                    "type": "uint256"
                }
            ],
            "stateMutability": "view",
            "type": "function"
        },
        {
            "inputs": [
                {
                    "internalType": "uint40",
                    "name": "acct",
                    "type": "uint40"
                },
                {
                    "internalType": "uint16",
                    "name": "seq",
                    "type": "uint16"
                }
            ],
            "name": "removeBlank",
            "outputs": [],
            "stateMutability": "nonpayable",
            "type": "function"
        },
        {
            "inputs": [
                {
                    "internalType": "uint16",
                    "name": "seq",
                    "type": "uint16"
                }
            ],
            "name": "removeRule",
            "outputs": [],
            "stateMutability": "nonpayable",
            "type": "function"
        },
        {
            "inputs": [
                {
                    "internalType": "uint8",
                    "name": "title",
                    "type": "uint8"
                }
            ],
            "name": "removeTerm",
            "outputs": [],
            "stateMutability": "nonpayable",
            "type": "function"
        },
        {
            "inputs": [
                {
                    "internalType": "bytes32",
                    "name": "role",
                    "type": "bytes32"
                }
            ],
            "name": "renounceRole",
            "outputs": [],
            "stateMutability": "nonpayable",
            "type": "function"
        },
        {
            "inputs": [
                {
                    "internalType": "bytes32",
                    "name": "role",
                    "type": "bytes32"
                },
                {
                    "internalType": "uint40",
                    "name": "acct",
                    "type": "uint40"
                }
            ],
            "name": "revokeRole",
            "outputs": [],
            "stateMutability": "nonpayable",
            "type": "function"
        },
        {
            "inputs": [],
            "name": "rules",
            "outputs": [
                {
                    "internalType": "uint256[]",
                    "name": "",
                    "type": "uint256[]"
                }
            ],
            "stateMutability": "view",
            "type": "function"
        },
        {
            "inputs": [
                {
                    "internalType": "uint48",
                    "name": "deadline",
                    "type": "uint48"
                }
            ],
            "name": "setClosingDeadline",
            "outputs": [],
            "stateMutability": "nonpayable",
            "type": "function"
        },
        {
            "inputs": [
                {
                    "internalType": "address",
                    "name": "keeper",
                    "type": "address"
                }
            ],
            "name": "setDirectKeeper",
            "outputs": [],
            "stateMutability": "nonpayable",
            "type": "function"
        },
        {
            "inputs": [
                {
                    "internalType": "uint40",
                    "name": "acct",
                    "type": "uint40"
                }
            ],
            "name": "setGeneralCounsel",
            "outputs": [],
            "stateMutability": "nonpayable",
            "type": "function"
        },
        {
            "inputs": [
                {
                    "internalType": "uint40",
                    "name": "acct",
                    "type": "uint40"
                }
            ],
            "name": "setOwner",
            "outputs": [],
            "stateMutability": "nonpayable",
            "type": "function"
        },
        {
            "inputs": [
                {
                    "internalType": "contract IRepoOfDocs",
                    "name": "rod",
                    "type": "address"
                }
            ],
            "name": "setROD",
            "outputs": [],
            "stateMutability": "nonpayable",
            "type": "function"
        },
        {
            "inputs": [
                {
                    "internalType": "bytes32",
                    "name": "role",
                    "type": "bytes32"
                },
                {
                    "internalType": "uint40",
                    "name": "acct",
                    "type": "uint40"
                }
            ],
            "name": "setRoleAdmin",
            "outputs": [],
            "stateMutability": "nonpayable",
            "type": "function"
        },
        {
            "inputs": [
                {
                    "internalType": "uint48",
                    "name": "deadline",
                    "type": "uint48"
                }
            ],
            "name": "setSigDeadline",
            "outputs": [],
            "stateMutability": "nonpayable",
            "type": "function"
        },
        {
            "inputs": [
                {
                    "internalType": "uint256",
                    "name": "title",
                    "type": "uint256"
                },
                {
                    "internalType": "address",
                    "name": "ia",
                    "type": "address"
                },
                {
                    "internalType": "bytes32",
                    "name": "snOfDeal",
                    "type": "bytes32"
                }
            ],
            "name": "termIsExempted",
            "outputs": [
                {
                    "internalType": "bool",
                    "name": "",
                    "type": "bool"
                }
            ],
            "stateMutability": "view",
            "type": "function"
        },
        {
            "inputs": [
                {
                    "internalType": "uint256",
                    "name": "title",
                    "type": "uint256"
                },
                {
                    "internalType": "address",
                    "name": "ia",
                    "type": "address"
                },
                {
                    "internalType": "bytes32",
                    "name": "snOfDeal",
                    "type": "bytes32"
                }
            ],
            "name": "termIsTriggered",
            "outputs": [
                {
                    "internalType": "bool",
                    "name": "",
                    "type": "bool"
                }
            ],
            "stateMutability": "view",
            "type": "function"
        },
        {
            "inputs": [],
            "name": "titles",
            "outputs": [
                {
                    "internalType": "uint256[]",
                    "name": "",
                    "type": "uint256[]"
                }
            ],
            "stateMutability": "view",
            "type": "function"
        }
    ],
    "bytecode": "608060405234801561001057600080fd5b50612cc4806100206000396000f3fe608060405234801561001057600080fd5b50600436106102115760003560e01c806379b2ec1211610125578063bc3ffc70116100ad578063e179f9811161007c578063e179f98114610487578063ea8457f81461049a578063ed211023146104ad578063f045a769146104b5578063fd04390a146104bd57600080fd5b8063bc3ffc7014610451578063cd75bd3f14610459578063d0c504b01461046c578063d68763051461047457600080fd5b80638969d43a116100f45780638969d43a146104075780638bb9c5bf1461040f578063a9acd94414610422578063b3f05b971461042a578063b71754c71461043e57600080fd5b806379b2ec12146103c65780637ba706e8146103d9578063821ee8ea146103ec578063893d20e8146103ff57600080fd5b80633da9a600116101a857806363068e7f1161017757806363068e7f146103675780636451c6e51461037a5780636be8496f1461038d57806371765449146103a057806374099815146103b357600080fd5b80633da9a600146102fe5780634794be0714610311578063484620371461032457806352f6747a1461035257600080fd5b80632f88bb5a116101e45780632f88bb5a146102745780633178a9a914610297578063346ba941146102aa578063379ef4a6146102eb57600080fd5b806305ee773514610216578063103f6edd1461022b57806316dc517e1461024e57806317c51fec14610261575b600080fd5b6102296102243660046127c1565b6104d0565b005b61023361076a565b60405164ffffffffff90911681526020015b60405180910390f35b61022961025c3660046127ed565b6107f6565b61022961026f3660046127ed565b61088c565b610287610282366004612832565b6108b1565b6040519015158152602001610245565b6102296102a536600461286a565b61098e565b6102d36102b83660046127c1565b6000908152600560205260409020546001600160a01b031690565b6040516001600160a01b039091168152602001610245565b6102876102f93660046127c1565b610b87565b61022961030c3660046127c1565b610c1b565b61022961031f366004612887565b610d2d565b6103446103323660046127c1565b60009081526008602052604090205490565b604051908152602001610245565b61035a610e60565b60405161024591906128af565b610229610375366004612903565b610eeb565b610229610388366004612920565b611065565b61022961039b366004612920565b61112c565b6102876103ae3660046127c1565b6111de565b6102296103c13660046127ed565b611220565b6102876103d43660046127ed565b611245565b6102296103e736600461286a565b6112e6565b6102296103fa36600461293d565b6114d8565b6102336115c8565b610229611603565b61022961041d3660046127c1565b61185b565b61035a6118b4565b60028054600160f01b900460ff1614610287565b6102d361044c366004612999565b6118ef565b610344611cf7565b610229610467366004612999565b611d7e565b610344611f00565b6102296104823660046129bc565b611f3b565b610287610495366004612832565b612077565b6102296104a8366004612887565b6120e5565b6102d36121ee565b610229612274565b6102296104cb36600461286a565b612492565b73__$364aad554dc80380f414546becdd2c1584$__63a8ef95ac6002684174746f726e65797360b81b61050161256d565b6040516001600160e01b031960e086901b1681526004810193909352602483019190915264ffffffffff16604482015260640160206040518083038186803b15801561054c57600080fd5b505af4158015610560573d6000803e3d6000fd5b505050506040513d601f19601f8201168201806040525081019061058491906129ea565b6105a95760405162461bcd60e51b81526004016105a090612a0c565b60405180910390fd5b604051630e68ae1160e31b815260048101829052819060089060009073__$94c94c1f27eaba30857c7d0c37f90b5581$__9063734570889060240160206040518083038186803b1580156105fc57600080fd5b505af4158015610610573d6000803e3d6000fd5b505050506040513d601f19601f820116820180604052508101906106349190612a39565b61ffff168152602081019190915260409081016000209190915551630e68ae1160e31b81526004810182905273__$8c1a4844a0a0988ea2454cf87145a95df1$__906392f13c3f9060099073__$94c94c1f27eaba30857c7d0c37f90b5581$__9063734570889060240160206040518083038186803b1580156106b657600080fd5b505af41580156106ca573d6000803e3d6000fd5b505050506040513d601f19601f820116820180604052508101906106ee9190612a39565b6040516001600160e01b031960e085901b168152600481019290925261ffff16602482015260440160206040518083038186803b15801561072e57600080fd5b505af4158015610742573d6000803e3d6000fd5b505050506040513d601f19601f8201168201806040525081019061076691906129ea565b5050565b60405163e8c0cc1d60e01b81526002600482015260009073__$364aad554dc80380f414546becdd2c1584$__9063e8c0cc1d906024015b60206040518083038186803b1580156107b957600080fd5b505af41580156107cd573d6000803e3d6000fd5b505050506040513d601f19601f820116820180604052508101906107f19190612a56565b905090565b73__$364aad554dc80380f414546becdd2c1584$__63427abff460028461081b61256d565b6040516001600160e01b031960e086901b1681526004810193909352602483019190915264ffffffffff9081166044830152841660648201526084015b60006040518083038186803b15801561087057600080fd5b505af4158015610884573d6000803e3d6000fd5b505050505050565b73__$364aad554dc80380f414546becdd2c1584$__638ce1584560028461081b61256d565b6000836108bd816111de565b6108d95760405162461bcd60e51b81526004016105a090612a73565b6108e4858585612077565b6108f15760019150610986565b600085815260056020526040908190205490516352000f5160e01b81526001600160a01b03868116600483015260248201869052909116906352000f51906044015b60206040518083038186803b15801561094b57600080fd5b505afa15801561095f573d6000803e3d6000fd5b505050506040513d601f19601f8201168201806040525081019061098391906129ea565b91505b509392505050565b604051633b11adbf60e21b81526002600482015233602482015273__$364aad554dc80380f414546becdd2c1584$__9063ec46b6fc9060440160206040518083038186803b1580156109df57600080fd5b505af41580156109f3573d6000803e3d6000fd5b505050506040513d601f19601f82011682018060405250810190610a1791906129ea565b80610abc575073__$364aad554dc80380f414546becdd2c1584$__63fe2710866002610a4161256d565b6040516001600160e01b031960e085901b168152600481019290925264ffffffffff16602482015260440160206040518083038186803b158015610a8457600080fd5b505af4158015610a98573d6000803e3d6000fd5b505050506040513d601f19601f82011682018060405250810190610abc91906129ea565b610ad85760405162461bcd60e51b81526004016105a090612abf565b604051632725ebef60e21b81526002600482015264ffffffffff8216602482015273__$364aad554dc80380f414546becdd2c1584$__90639c97afbc9060440160006040518083038186803b158015610b3057600080fd5b505af4158015610b44573d6000803e3d6000fd5b505060405164ffffffffff841681527ff2735f34b69be1e6342dea95f9162f84d0db925fab655ca9f1f312ac8cbfc99d925060200190505b60405180910390a150565b604051633f5f77cd60e01b8152600960048201526024810182905260009073__$8c1a4844a0a0988ea2454cf87145a95df1$__90633f5f77cd906044015b60206040518083038186803b158015610bdd57600080fd5b505af4158015610bf1573d6000803e3d6000fd5b505050506040513d601f19601f82011682018060405250810190610c1591906129ea565b92915050565b604051633b11adbf60e21b81526002600482015233602482015273__$364aad554dc80380f414546becdd2c1584$__9063ec46b6fc9060440160206040518083038186803b158015610c6c57600080fd5b505af4158015610c80573d6000803e3d6000fd5b505050506040513d601f19601f82011682018060405250810190610ca491906129ea565b610cc05760405162461bcd60e51b81526004016105a090612b15565b60405163cc99e11b60e01b8152600260048201526024810182905273__$364aad554dc80380f414546becdd2c1584$__9063cc99e11b9060440160006040518083038186803b158015610d1257600080fd5b505af4158015610d26573d6000803e3d6000fd5b5050505050565b73__$364aad554dc80380f414546becdd2c1584$__63a8ef95ac6002684174746f726e65797360b81b610d5e61256d565b6040516001600160e01b031960e086901b1681526004810193909352602483019190915264ffffffffff16604482015260640160206040518083038186803b158015610da957600080fd5b505af4158015610dbd573d6000803e3d6000fd5b505050506040513d601f19601f82011682018060405250810190610de191906129ea565b610dfd5760405162461bcd60e51b81526004016105a090612a0c565b60048054604051634794be0760e01b815265ffffffffffff8416928101929092526001600160a01b031690634794be07906024015b600060405180830381600087803b158015610e4c57600080fd5b505af1158015610d26573d6000803e3d6000fd5b60405163034306e160e21b81526009600482015260609073__$8c1a4844a0a0988ea2454cf87145a95df1$__90630d0c1b84906024015b60006040518083038186803b158015610eaf57600080fd5b505af4158015610ec3573d6000803e3d6000fd5b505050506040513d6000823e601f3d908101601f191682016040526107f19190810190612b71565b73__$364aad554dc80380f414546becdd2c1584$__63a8ef95ac6002684174746f726e65797360b81b610f1c61256d565b6040516001600160e01b031960e086901b1681526004810193909352602483019190915264ffffffffff16604482015260640160206040518083038186803b158015610f6757600080fd5b505af4158015610f7b573d6000803e3d6000fd5b505050506040513d601f19601f82011682018060405250810190610f9f91906129ea565b610fbb5760405162461bcd60e51b81526004016105a090612a0c565b6040516392fd02df60e01b81526009600482015261ffff8216602482015273__$8c1a4844a0a0988ea2454cf87145a95df1$__906392fd02df9060440160206040518083038186803b15801561101057600080fd5b505af4158015611024573d6000803e3d6000fd5b505050506040513d601f19601f8201168201806040525081019061104891906129ea565b156110625761ffff81166000908152600860205260408120555b50565b604051633b11adbf60e21b81526002600482015233602482015273__$364aad554dc80380f414546becdd2c1584$__9063ec46b6fc9060440160206040518083038186803b1580156110b657600080fd5b505af41580156110ca573d6000803e3d6000fd5b505050506040513d601f19601f820116820180604052508101906110ee91906129ea565b61110a5760405162461bcd60e51b81526004016105a090612b15565b600480546001600160a01b0319166001600160a01b0392909216919091179055565b604051630f07232560e01b8152600260048201523360248201526001600160a01b038216604482015273__$364aad554dc80380f414546becdd2c1584$__90630f0723259060640160006040518083038186803b15801561118c57600080fd5b505af41580156111a0573d6000803e3d6000fd5b50506040516001600160a01b03841681527fe435cbeab64e4eae6497b9d8289704bd709d624a80704ef3ca9af777534bc6ec92506020019050610b7c565b604051633f5f77cd60e01b8152600660048201526024810182905260009073__$8c1a4844a0a0988ea2454cf87145a95df1$__90633f5f77cd90604401610bc5565b73__$364aad554dc80380f414546becdd2c1584$__63d2a15ba760028461081b61256d565b604051632a3be56b60e21b8152600260048201526024810183905264ffffffffff8216604482015260009073__$364aad554dc80380f414546becdd2c1584$__9063a8ef95ac9060640160206040518083038186803b1580156112a757600080fd5b505af41580156112bb573d6000803e3d6000fd5b505050506040513d601f19601f820116820180604052508101906112df91906129ea565b9392505050565b604051633b11adbf60e21b81526002600482015233602482015273__$364aad554dc80380f414546becdd2c1584$__9063ec46b6fc9060440160206040518083038186803b15801561133757600080fd5b505af415801561134b573d6000803e3d6000fd5b505050506040513d601f19601f8201168201806040525081019061136f91906129ea565b80611414575073__$364aad554dc80380f414546becdd2c1584$__63fe271086600261139961256d565b6040516001600160e01b031960e085901b168152600481019290925264ffffffffff16602482015260440160206040518083038186803b1580156113dc57600080fd5b505af41580156113f0573d6000803e3d6000fd5b505050506040513d601f19601f8201168201806040525081019061141491906129ea565b6114305760405162461bcd60e51b81526004016105a090612abf565b60405163b6e38a2960e01b81526002600482015264ffffffffff8216602482015273__$364aad554dc80380f414546becdd2c1584$__9063b6e38a299060440160006040518083038186803b15801561148857600080fd5b505af415801561149c573d6000803e3d6000fd5b505060405164ffffffffff841681527f8b6f40f36b4ae8cc5f55e895036457c43da4ab1f80f58c46f5ff0d72a650033b92506020019050610b7c565b6114e1826125c7565b6114ea81612676565b604051636cdd0edf60e11b81526002600482015264ffffffffff851660248201526001600160a01b038416604482015273__$364aad554dc80380f414546becdd2c1584$__9063d9ba1dbe9060640160006040518083038186803b15801561155157600080fd5b505af4158015611565573d6000803e3d6000fd5b50506040805164ffffffffff881681526001600160a01b038781166020830152868116828401528516606082015290517f4d18c0021addc919105cb1ed2c11ad241e859cc1d9e77d4ee1d9ca2cdc1f255b9350908190036080019150a150505050565b60405163987ad15360e01b81526002600482015260009073__$364aad554dc80380f414546becdd2c1584$__9063987ad153906024016107a1565b604051633b11adbf60e21b81526002600482015233602482015273__$364aad554dc80380f414546becdd2c1584$__9063ec46b6fc9060440160206040518083038186803b15801561165457600080fd5b505af4158015611668573d6000803e3d6000fd5b505050506040513d601f19601f8201168201806040525081019061168c91906129ea565b6116a85760405162461bcd60e51b81526004016105a090612b15565b60405163c2b46a8560e01b81526006600482015260009073__$8c1a4844a0a0988ea2454cf87145a95df1$__9063c2b46a859060240160206040518083038186803b1580156116f657600080fd5b505af415801561170a573d6000803e3d6000fd5b505050506040513d601f19601f8201168201806040525081019061172e9190612c2f565b905060005b8181101561185257604051630ef6982f60e41b8152600660048201526024810182905260059060009073__$8c1a4844a0a0988ea2454cf87145a95df1$__9063ef6982f09060440160206040518083038186803b15801561179357600080fd5b505af41580156117a7573d6000803e3d6000fd5b505050506040513d601f19601f820116820180604052508101906117cb9190612c2f565b815260200190815260200160002060009054906101000a90046001600160a01b03166001600160a01b031663f045a7696040518163ffffffff1660e01b8152600401600060405180830381600087803b15801561182757600080fd5b505af115801561183b573d6000803e3d6000fd5b50505050808061184a90612c48565b915050611733565b50611062612274565b600061186561256d565b604051637963595360e11b8152600260048201526024810184905264ffffffffff8216604482015290915073__$364aad554dc80380f414546becdd2c1584$__9063f2c6b2a690606401610858565b60405163034306e160e21b81526006600482015260609073__$8c1a4844a0a0988ea2454cf87145a95df1$__90630d0c1b8490602401610e97565b600073__$364aad554dc80380f414546becdd2c1584$__6331a349c0600261191561256d565b6040516001600160e01b031960e085901b168152600481019290925264ffffffffff16602482015260440160206040518083038186803b15801561195857600080fd5b505af415801561196c573d6000803e3d6000fd5b505050506040513d601f19601f8201168201806040525081019061199091906129ea565b6119dc5760405162461bcd60e51b815260206004820152601b60248201527f41432e6f67633a206e6f742067656e6572616c20636f756e73656c000000000060448201526064016105a0565b6004805460405163277e8af960e11b815260ff85169281019290925283916000916001600160a01b031690634efd15f29060240160206040518083038186803b158015611a2857600080fd5b505afa158015611a3c573d6000803e3d6000fd5b505050506040513d601f19601f82011682018060405250810190611a609190612c71565b6001600160a01b03161415611ab75760405162461bcd60e51b815260206004820152601b60248201527f524f442e6d642e74723a2074656d706c617465204e4f5420736574000000000060448201526064016105a0565b6004805460405163277e8af960e11b815260ff861692810192909252611b41916001600160a01b0390911690634efd15f29060240160206040518083038186803b158015611b0457600080fd5b505afa158015611b18573d6000803e3d6000fd5b505050506040513d601f19601f82011682018060405250810190611b3c9190612c71565b61272d565b91506000611b4d6115c8565b90506000611b5961076a565b60005460015460405163410f747560e11b815264ffffffffff861660048201523060248201526001600160a01b039283166044820152908216606482015291925085169063821ee8ea90608401600060405180830381600087803b158015611bc057600080fd5b505af1158015611bd4573d6000803e3d6000fd5b5050604051633178a9a960e01b815264ffffffffff841660048201526001600160a01b0387169250633178a9a99150602401600060405180830381600087803b158015611c2057600080fd5b505af1158015611c34573d6000803e3d6000fd5b5050505060ff85166000818152600560205260409081902080546001600160a01b0319166001600160a01b038816179055516392f13c3f60e01b815260066004820152602481019190915273__$8c1a4844a0a0988ea2454cf87145a95df1$__906392f13c3f9060440160206040518083038186803b158015611cb657600080fd5b505af4158015611cca573d6000803e3d6000fd5b505050506040513d601f19601f82011682018060405250810190611cee91906129ea565b50505050919050565b60405163c2b46a8560e01b81526006600482015260009073__$8c1a4844a0a0988ea2454cf87145a95df1$__9063c2b46a85906024015b60206040518083038186803b158015611d4657600080fd5b505af4158015611d5a573d6000803e3d6000fd5b505050506040513d601f19601f820116820180604052508101906107f19190612c2f565b73__$364aad554dc80380f414546becdd2c1584$__63a8ef95ac6002684174746f726e65797360b81b611daf61256d565b6040516001600160e01b031960e086901b1681526004810193909352602483019190915264ffffffffff16604482015260640160206040518083038186803b158015611dfa57600080fd5b505af4158015611e0e573d6000803e3d6000fd5b505050506040513d601f19601f82011682018060405250810190611e3291906129ea565b611e4e5760405162461bcd60e51b81526004016105a090612a0c565b6040516392fd02df60e01b81526006600482015260ff8216602482015273__$8c1a4844a0a0988ea2454cf87145a95df1$__906392fd02df9060440160206040518083038186803b158015611ea257600080fd5b505af4158015611eb6573d6000803e3d6000fd5b505050506040513d601f19601f82011682018060405250810190611eda91906129ea565b156110625760ff16600090815260056020526040902080546001600160a01b0319169055565b60405163c2b46a8560e01b81526009600482015260009073__$8c1a4844a0a0988ea2454cf87145a95df1$__9063c2b46a8590602401611d2e565b73__$364aad554dc80380f414546becdd2c1584$__63a8ef95ac6002684174746f726e65797360b81b611f6c61256d565b6040516001600160e01b031960e086901b1681526004810193909352602483019190915264ffffffffff16604482015260640160206040518083038186803b158015611fb757600080fd5b505af4158015611fcb573d6000803e3d6000fd5b505050506040513d601f19601f82011682018060405250810190611fef91906129ea565b61200b5760405162461bcd60e51b81526004016105a090612a0c565b6004805460405163d687630560e01b815264ffffffffff85169281019290925261ffff831660248301526001600160a01b03169063d6876305906044015b600060405180830381600087803b15801561206357600080fd5b505af1158015610884573d6000803e3d6000fd5b600083612083816111de565b61209f5760405162461bcd60e51b81526004016105a090612a73565b60008581526005602052604090819020549051638e5a886f60e01b81526001600160a01b0386811660048301526024820186905290911690638e5a886f90604401610933565b73__$364aad554dc80380f414546becdd2c1584$__63a8ef95ac6002684174746f726e65797360b81b61211661256d565b6040516001600160e01b031960e086901b1681526004810193909352602483019190915264ffffffffff16604482015260640160206040518083038186803b15801561216157600080fd5b505af4158015612175573d6000803e3d6000fd5b505050506040513d601f19601f8201168201806040525081019061219991906129ea565b6121b55760405162461bcd60e51b81526004016105a090612a0c565b60048054604051631d508aff60e31b815265ffffffffffff8416928101929092526001600160a01b03169063ea8457f890602401610e32565b604051633c3e56c160e11b81526002600482015260009073__$364aad554dc80380f414546becdd2c1584$__9063787cad829060240160206040518083038186803b15801561223c57600080fd5b505af4158015612250573d6000803e3d6000fd5b505050506040513d601f19601f820116820180604052508101906107f19190612c71565b604051633b11adbf60e21b81526002600482015233602482015273__$364aad554dc80380f414546becdd2c1584$__9063ec46b6fc9060440160206040518083038186803b1580156122c557600080fd5b505af41580156122d9573d6000803e3d6000fd5b505050506040513d601f19601f820116820180604052508101906122fd91906129ea565b6123195760405162461bcd60e51b81526004016105a090612b15565b600254600160f01b900460ff166001146123755760405162461bcd60e51b815260206004820181905260248201527f41432e6f6e6c7950656e64696e673a20446f632069732066696e616c697a656460448201526064016105a0565b60405163cc99e11b60e01b815260026004820152684174746f726e65797360b81b602482015273__$364aad554dc80380f414546becdd2c1584$__9063cc99e11b9060440160006040518083038186803b1580156123d257600080fd5b505af41580156123e6573d6000803e3d6000fd5b5050604051632725ebef60e21b8152600260048201526000602482015273__$364aad554dc80380f414546becdd2c1584$__9250639c97afbc915060440160006040518083038186803b15801561243c57600080fd5b505af4158015612450573d6000803e3d6000fd5b50506002805460ff60f01b1916600160f11b17905550506040517f35012b512309c322acf68632cd6cb702ff0e1d776fbe9394e38ffc13b434fe7590600090a1565b73__$364aad554dc80380f414546becdd2c1584$__63a8ef95ac6002684174746f726e65797360b81b6124c361256d565b6040516001600160e01b031960e086901b1681526004810193909352602483019190915264ffffffffff16604482015260640160206040518083038186803b15801561250e57600080fd5b505af4158015612522573d6000803e3d6000fd5b505050506040513d601f19601f8201168201806040525081019061254691906129ea565b6125625760405162461bcd60e51b81526004016105a090612a0c565b61106281600061277f565b60008054604051634de835e760e11b81523360048201526001600160a01b0390911690639bd06bce90602401602060405180830381600087803b1580156125b357600080fd5b505af11580156107cd573d6000803e3d6000fd5b6000546001600160a01b0316156126185760405162461bcd60e51b815260206004820152601560248201527430b63932b0b23c9039b2ba103932b3a1b2b73a32b960591b60448201526064016105a0565b6040516001600160a01b03821681527f318da6c7624c71cbc0afe346c9d8827f119d0ecefb241a7b0c87217a076a8e029060200160405180910390a1600080546001600160a01b0319166001600160a01b0392909216919091179055565b6001546001600160a01b0316156126cf5760405162461bcd60e51b815260206004820152601960248201527f616c7265616479207365742067656e6572616c4b65657065720000000000000060448201526064016105a0565b6040516001600160a01b03821681527fe513d3e0f0d0a3877029dcc588748679a7a3450ec1ec7ed56d96bd012c3e61aa9060200160405180910390a1600180546001600160a01b0319166001600160a01b0392909216919091179055565b6000808260601b9050604051733d602d80600a3d3981f3363d3d373d3d3d363d7360601b81528160148201526e5af43d82803e903d91602b57fd5bf360881b60288201526037816000f0949350505050565b60048054604051636ea2bc5560e11b815264ffffffffff85169281019290925261ffff831660248301526001600160a01b03169063dd4578aa90604401612049565b6000602082840312156127d357600080fd5b5035919050565b64ffffffffff8116811461106257600080fd5b6000806040838503121561280057600080fd5b823591506020830135612812816127da565b809150509250929050565b6001600160a01b038116811461106257600080fd5b60008060006060848603121561284757600080fd5b8335925060208401356128598161281d565b929592945050506040919091013590565b60006020828403121561287c57600080fd5b81356112df816127da565b60006020828403121561289957600080fd5b813565ffffffffffff811681146112df57600080fd5b6020808252825182820181905260009190848201906040850190845b818110156128e7578351835292840192918401916001016128cb565b50909695505050505050565b61ffff8116811461106257600080fd5b60006020828403121561291557600080fd5b81356112df816128f3565b60006020828403121561293257600080fd5b81356112df8161281d565b6000806000806080858703121561295357600080fd5b843561295e816127da565b9350602085013561296e8161281d565b9250604085013561297e8161281d565b9150606085013561298e8161281d565b939692955090935050565b6000602082840312156129ab57600080fd5b813560ff811681146112df57600080fd5b600080604083850312156129cf57600080fd5b82356129da816127da565b91506020830135612812816128f3565b6000602082840312156129fc57600080fd5b815180151581146112df57600080fd5b60208082526013908201527241432e6f743a206e6f74204174746f726e657960681b604082015260600190565b600060208284031215612a4b57600080fd5b81516112df816128f3565b600060208284031215612a6857600080fd5b81516112df816127da565b6020808252602c908201527f5348412e7469746c6545786973743a2053484120646f6573206e6f742068617660408201526b652073756368207469746c6560a01b606082015260800190565b60208082526036908201527f41432e6f776e65724f72446972656374426f6f6b65657065723a206e6569746860408201527532b91037bbb732b9103737b9103137b7b5b2b2b832b960511b606082015260800190565b60208082526026908201527f41432e6f6e6c794469726563744b65657065723a206e6f74206469726563742060408201526535b2b2b832b960d11b606082015260800190565b634e487b7160e01b600052604160045260246000fd5b60006020808385031215612b8457600080fd5b825167ffffffffffffffff80821115612b9c57600080fd5b818501915085601f830112612bb057600080fd5b815181811115612bc257612bc2612b5b565b8060051b604051601f19603f83011681018181108582111715612be757612be7612b5b565b604052918252848201925083810185019188831115612c0557600080fd5b938501935b82851015612c2357845184529385019392850192612c0a565b98975050505050505050565b600060208284031215612c4157600080fd5b5051919050565b6000600019821415612c6a57634e487b7160e01b600052601160045260246000fd5b5060010190565b600060208284031215612c8357600080fd5b81516112df8161281d56fea2646970667358221220209cf70782de6938b8b224a80e1c00d790f12c93ab04585d2cd69205aab70d0a64736f6c63430008080033",
    "sourcePath": "/Users/kaptain/github.com/hardhat/comboox/contracts/books/boh/ShareholdersAgreement.sol",
    "compiler": {
        "name": "solc",
        "version": "0.8.8+commit.dddeac2f"
    },
    "functionHashes": {
        "abandonRole(bytes32)": "3da9a600",
        "addParty(uint40)": "fd04390a",
        "addRule(bytes32)": "05ee7735",
        "createTerm(uint8)": "b71754c7",
        "finalizeTerms()": "8969d43a",
        "finalized()": "b3f05b97",
        "getBookeeper()": "ed211023",
        "getGeneralCounsel()": "103f6edd",
        "getOwner()": "893d20e8",
        "getRule(uint256)": "48462037",
        "getTerm(uint256)": "346ba941",
        "grantRole(bytes32,uint40)": "74099815",
        "hasRole(bytes32,uint40)": "79b2ec12",
        "hasRule(uint256)": "379ef4a6",
        "hasTitle(uint256)": "71765449",
        "init(uint40,address,address,address)": "821ee8ea",
        "lockContents()": "f045a769",
        "qtyOfRules()": "d0c504b0",
        "qtyOfTerms()": "bc3ffc70",
        "removeBlank(uint40,uint16)": "d6876305",
        "removeRule(uint16)": "63068e7f",
        "removeTerm(uint8)": "cd75bd3f",
        "renounceRole(bytes32)": "8bb9c5bf",
        "revokeRole(bytes32,uint40)": "17c51fec",
        "rules()": "52f6747a",
        "setClosingDeadline(uint48)": "4794be07",
        "setDirectKeeper(address)": "6be8496f",
        "setGeneralCounsel(uint40)": "3178a9a9",
        "setOwner(uint40)": "7ba706e8",
        "setROD(address)": "6451c6e5",
        "setRoleAdmin(bytes32,uint40)": "16dc517e",
        "setSigDeadline(uint48)": "ea8457f8",
        "termIsExempted(uint256,address,bytes32)": "2f88bb5a",
        "termIsTriggered(uint256,address,bytes32)": "e179f981",
        "titles()": "a9acd944"
    },
    "gasEstimates": {
        "creation": {
            "codeDepositCost": "2292000",
            "executionCost": "2456",
            "totalCost": "2294456"
        },
        "external": {
            "abandonRole(bytes32)": "infinite",
            "addParty(uint40)": "infinite",
            "addRule(bytes32)": "infinite",
            "createTerm(uint8)": "infinite",
            "finalizeTerms()": "infinite",
            "finalized()": "2438",
            "getBookeeper()": "infinite",
            "getGeneralCounsel()": "infinite",
            "getOwner()": "infinite",
            "getRule(uint256)": "2528",
            "getTerm(uint256)": "2567",
            "grantRole(bytes32,uint40)": "infinite",
            "hasRole(bytes32,uint40)": "infinite",
            "hasRule(uint256)": "infinite",
            "hasTitle(uint256)": "infinite",
            "init(uint40,address,address,address)": "infinite",
            "lockContents()": "infinite",
            "qtyOfRules()": "infinite",
            "qtyOfTerms()": "infinite",
            "removeBlank(uint40,uint16)": "infinite",
            "removeRule(uint16)": "infinite",
            "removeTerm(uint8)": "infinite",
            "renounceRole(bytes32)": "infinite",
            "revokeRole(bytes32,uint40)": "infinite",
            "rules()": "infinite",
            "setClosingDeadline(uint48)": "infinite",
            "setDirectKeeper(address)": "infinite",
            "setGeneralCounsel(uint40)": "infinite",
            "setOwner(uint40)": "infinite",
            "setROD(address)": "infinite",
            "setRoleAdmin(bytes32,uint40)": "infinite",
            "setSigDeadline(uint48)": "infinite",
            "termIsExempted(uint256,address,bytes32)": "infinite",
            "termIsTriggered(uint256,address,bytes32)": "infinite",
            "titles()": "infinite"
        }
    }
}