{
    "contractName": "ShareholdersAgreement",
    "abi": [
        {
            "anonymous": false,
            "inputs": [
                {
                    "indexed": false,
                    "internalType": "uint256",
                    "name": "owner",
                    "type": "uint256"
                },
                {
                    "indexed": false,
                    "internalType": "address",
                    "name": "directKeeper",
                    "type": "address"
                },
                {
                    "indexed": false,
                    "internalType": "address",
                    "name": "regCenter",
                    "type": "address"
                },
                {
                    "indexed": false,
                    "internalType": "address",
                    "name": "generalKeeper",
                    "type": "address"
                }
            ],
            "name": "Init",
            "type": "event"
        },
        {
            "anonymous": false,
            "inputs": [],
            "name": "LockContents",
            "type": "event"
        },
        {
            "anonymous": false,
            "inputs": [
                {
                    "indexed": false,
                    "internalType": "uint256",
                    "name": "title",
                    "type": "uint256"
                },
                {
                    "indexed": false,
                    "internalType": "address",
                    "name": "book",
                    "type": "address"
                }
            ],
            "name": "SetBookRuting",
            "type": "event"
        },
        {
            "anonymous": false,
            "inputs": [
                {
                    "indexed": false,
                    "internalType": "address",
                    "name": "keeper",
                    "type": "address"
                }
            ],
            "name": "SetDirectKeeper",
            "type": "event"
        },
        {
            "anonymous": false,
            "inputs": [
                {
                    "indexed": false,
                    "internalType": "uint256",
                    "name": "acct",
                    "type": "uint256"
                }
            ],
            "name": "SetGeneralCounsel",
            "type": "event"
        },
        {
            "anonymous": false,
            "inputs": [
                {
                    "indexed": false,
                    "internalType": "address",
                    "name": "gk",
                    "type": "address"
                }
            ],
            "name": "SetGeneralKeeper",
            "type": "event"
        },
        {
            "anonymous": false,
            "inputs": [
                {
                    "indexed": false,
                    "internalType": "uint256",
                    "name": "acct",
                    "type": "uint256"
                }
            ],
            "name": "SetOwner",
            "type": "event"
        },
        {
            "anonymous": false,
            "inputs": [
                {
                    "indexed": false,
                    "internalType": "address",
                    "name": "rc",
                    "type": "address"
                }
            ],
            "name": "SetRegCenter",
            "type": "event"
        },
        {
            "anonymous": false,
            "inputs": [
                {
                    "indexed": false,
                    "internalType": "bool",
                    "name": "initPage",
                    "type": "bool"
                },
                {
                    "indexed": false,
                    "internalType": "uint48",
                    "name": "SigDeadline",
                    "type": "uint48"
                }
            ],
            "name": "SetSigDeadline",
            "type": "event"
        },
        {
            "inputs": [
                {
                    "internalType": "bytes32",
                    "name": "role",
                    "type": "bytes32"
                }
            ],
            "name": "abandonRole",
            "outputs": [],
            "stateMutability": "nonpayable",
            "type": "function"
        },
        {
            "inputs": [
                {
                    "internalType": "bool",
                    "name": "beBuyer",
                    "type": "bool"
                },
                {
                    "internalType": "uint256",
                    "name": "seqOfDeal",
                    "type": "uint256"
                },
                {
                    "internalType": "uint256",
                    "name": "acct",
                    "type": "uint256"
                }
            ],
            "name": "addBlank",
            "outputs": [],
            "stateMutability": "nonpayable",
            "type": "function"
        },
        {
            "inputs": [
                {
                    "internalType": "uint256",
                    "name": "rule",
                    "type": "uint256"
                }
            ],
            "name": "addRule",
            "outputs": [],
            "stateMutability": "nonpayable",
            "type": "function"
        },
        {
            "inputs": [
                {
                    "internalType": "uint16",
                    "name": "typeOfDoc",
                    "type": "uint16"
                },
                {
                    "internalType": "uint16",
                    "name": "version",
                    "type": "uint16"
                }
            ],
            "name": "createTerm",
            "outputs": [
                {
                    "internalType": "address",
                    "name": "body",
                    "type": "address"
                }
            ],
            "stateMutability": "nonpayable",
            "type": "function"
        },
        {
            "inputs": [],
            "name": "established",
            "outputs": [
                {
                    "internalType": "bool",
                    "name": "flag",
                    "type": "bool"
                }
            ],
            "stateMutability": "view",
            "type": "function"
        },
        {
            "inputs": [],
            "name": "finalizeTerms",
            "outputs": [],
            "stateMutability": "nonpayable",
            "type": "function"
        },
        {
            "inputs": [],
            "name": "finalized",
            "outputs": [
                {
                    "internalType": "bool",
                    "name": "",
                    "type": "bool"
                }
            ],
            "stateMutability": "view",
            "type": "function"
        },
        {
            "inputs": [],
            "name": "getBookeeper",
            "outputs": [
                {
                    "internalType": "address",
                    "name": "",
                    "type": "address"
                }
            ],
            "stateMutability": "view",
            "type": "function"
        },
        {
            "inputs": [
                {
                    "internalType": "bool",
                    "name": "initPage",
                    "type": "bool"
                }
            ],
            "name": "getBuyers",
            "outputs": [
                {
                    "internalType": "uint256[]",
                    "name": "buyers",
                    "type": "uint256[]"
                }
            ],
            "stateMutability": "view",
            "type": "function"
        },
        {
            "inputs": [],
            "name": "getGeneralCounsel",
            "outputs": [
                {
                    "internalType": "uint40",
                    "name": "",
                    "type": "uint40"
                }
            ],
            "stateMutability": "view",
            "type": "function"
        },
        {
            "inputs": [],
            "name": "getOwner",
            "outputs": [
                {
                    "internalType": "uint40",
                    "name": "",
                    "type": "uint40"
                }
            ],
            "stateMutability": "view",
            "type": "function"
        },
        {
            "inputs": [
                {
                    "internalType": "bool",
                    "name": "initPage",
                    "type": "bool"
                }
            ],
            "name": "getParasOfPage",
            "outputs": [
                {
                    "components": [
                        {
                            "internalType": "uint40",
                            "name": "signer",
                            "type": "uint40"
                        },
                        {
                            "internalType": "uint48",
                            "name": "sigDate",
                            "type": "uint48"
                        },
                        {
                            "internalType": "uint64",
                            "name": "blocknumber",
                            "type": "uint64"
                        },
                        {
                            "internalType": "bytes32",
                            "name": "sigHash",
                            "type": "bytes32"
                        }
                    ],
                    "internalType": "struct SigsRepo.Signature",
                    "name": "",
                    "type": "tuple"
                }
            ],
            "stateMutability": "view",
            "type": "function"
        },
        {
            "inputs": [],
            "name": "getParties",
            "outputs": [
                {
                    "internalType": "uint256[]",
                    "name": "parties",
                    "type": "uint256[]"
                }
            ],
            "stateMutability": "view",
            "type": "function"
        },
        {
            "inputs": [
                {
                    "internalType": "uint256",
                    "name": "seq",
                    "type": "uint256"
                }
            ],
            "name": "getRule",
            "outputs": [
                {
                    "internalType": "uint256",
                    "name": "",
                    "type": "uint256"
                }
            ],
            "stateMutability": "view",
            "type": "function"
        },
        {
            "inputs": [
                {
                    "internalType": "bool",
                    "name": "initPage",
                    "type": "bool"
                }
            ],
            "name": "getSellers",
            "outputs": [
                {
                    "internalType": "uint256[]",
                    "name": "sellers",
                    "type": "uint256[]"
                }
            ],
            "stateMutability": "view",
            "type": "function"
        },
        {
            "inputs": [
                {
                    "internalType": "bool",
                    "name": "initPage",
                    "type": "bool"
                },
                {
                    "internalType": "uint256",
                    "name": "acct",
                    "type": "uint256"
                }
            ],
            "name": "getSigOfParty",
            "outputs": [
                {
                    "internalType": "uint256[]",
                    "name": "seqOfDeals",
                    "type": "uint256[]"
                },
                {
                    "components": [
                        {
                            "internalType": "uint40",
                            "name": "signer",
                            "type": "uint40"
                        },
                        {
                            "internalType": "uint48",
                            "name": "sigDate",
                            "type": "uint48"
                        },
                        {
                            "internalType": "uint64",
                            "name": "blocknumber",
                            "type": "uint64"
                        },
                        {
                            "internalType": "bytes32",
                            "name": "sigHash",
                            "type": "bytes32"
                        }
                    ],
                    "internalType": "struct SigsRepo.Signature",
                    "name": "sig",
                    "type": "tuple"
                }
            ],
            "stateMutability": "view",
            "type": "function"
        },
        {
            "inputs": [
                {
                    "internalType": "bool",
                    "name": "initPage",
                    "type": "bool"
                }
            ],
            "name": "getSigsOfPage",
            "outputs": [
                {
                    "components": [
                        {
                            "internalType": "uint40",
                            "name": "signer",
                            "type": "uint40"
                        },
                        {
                            "internalType": "uint48",
                            "name": "sigDate",
                            "type": "uint48"
                        },
                        {
                            "internalType": "uint64",
                            "name": "blocknumber",
                            "type": "uint64"
                        },
                        {
                            "internalType": "bytes32",
                            "name": "sigHash",
                            "type": "bytes32"
                        }
                    ],
                    "internalType": "struct SigsRepo.Signature[]",
                    "name": "sigsOfBuyer",
                    "type": "tuple[]"
                },
                {
                    "components": [
                        {
                            "internalType": "uint40",
                            "name": "signer",
                            "type": "uint40"
                        },
                        {
                            "internalType": "uint48",
                            "name": "sigDate",
                            "type": "uint48"
                        },
                        {
                            "internalType": "uint64",
                            "name": "blocknumber",
                            "type": "uint64"
                        },
                        {
                            "internalType": "bytes32",
                            "name": "sigHash",
                            "type": "bytes32"
                        }
                    ],
                    "internalType": "struct SigsRepo.Signature[]",
                    "name": "sigsOfSeller",
                    "type": "tuple[]"
                }
            ],
            "stateMutability": "view",
            "type": "function"
        },
        {
            "inputs": [
                {
                    "internalType": "uint256",
                    "name": "title",
                    "type": "uint256"
                }
            ],
            "name": "getTerm",
            "outputs": [
                {
                    "internalType": "address",
                    "name": "",
                    "type": "address"
                }
            ],
            "stateMutability": "view",
            "type": "function"
        },
        {
            "inputs": [
                {
                    "internalType": "bytes32",
                    "name": "role",
                    "type": "bytes32"
                },
                {
                    "internalType": "uint256",
                    "name": "acct",
                    "type": "uint256"
                }
            ],
            "name": "grantRole",
            "outputs": [],
            "stateMutability": "nonpayable",
            "type": "function"
        },
        {
            "inputs": [
                {
                    "internalType": "bytes32",
                    "name": "role",
                    "type": "bytes32"
                },
                {
                    "internalType": "uint256",
                    "name": "acct",
                    "type": "uint256"
                }
            ],
            "name": "hasRole",
            "outputs": [
                {
                    "internalType": "bool",
                    "name": "",
                    "type": "bool"
                }
            ],
            "stateMutability": "view",
            "type": "function"
        },
        {
            "inputs": [
                {
                    "internalType": "uint256",
                    "name": "seq",
                    "type": "uint256"
                }
            ],
            "name": "hasRule",
            "outputs": [
                {
                    "internalType": "bool",
                    "name": "",
                    "type": "bool"
                }
            ],
            "stateMutability": "view",
            "type": "function"
        },
        {
            "inputs": [
                {
                    "internalType": "uint256",
                    "name": "title",
                    "type": "uint256"
                }
            ],
            "name": "hasTitle",
            "outputs": [
                {
                    "internalType": "bool",
                    "name": "",
                    "type": "bool"
                }
            ],
            "stateMutability": "view",
            "type": "function"
        },
        {
            "inputs": [
                {
                    "internalType": "uint256",
                    "name": "owner",
                    "type": "uint256"
                },
                {
                    "internalType": "address",
                    "name": "directKeeper",
                    "type": "address"
                },
                {
                    "internalType": "address",
                    "name": "regCenter",
                    "type": "address"
                },
                {
                    "internalType": "address",
                    "name": "generalKeeper",
                    "type": "address"
                }
            ],
            "name": "init",
            "outputs": [],
            "stateMutability": "nonpayable",
            "type": "function"
        },
        {
            "inputs": [],
            "name": "initBOH",
            "outputs": [],
            "stateMutability": "nonpayable",
            "type": "function"
        },
        {
            "inputs": [
                {
                    "internalType": "bool",
                    "name": "initPage",
                    "type": "bool"
                },
                {
                    "internalType": "uint256",
                    "name": "acct",
                    "type": "uint256"
                }
            ],
            "name": "isBuyer",
            "outputs": [
                {
                    "internalType": "bool",
                    "name": "flag",
                    "type": "bool"
                }
            ],
            "stateMutability": "view",
            "type": "function"
        },
        {
            "inputs": [
                {
                    "internalType": "bool",
                    "name": "initPage",
                    "type": "bool"
                },
                {
                    "internalType": "uint256",
                    "name": "acct",
                    "type": "uint256"
                }
            ],
            "name": "isParty",
            "outputs": [
                {
                    "internalType": "bool",
                    "name": "flag",
                    "type": "bool"
                }
            ],
            "stateMutability": "view",
            "type": "function"
        },
        {
            "inputs": [
                {
                    "internalType": "uint256",
                    "name": "acct",
                    "type": "uint256"
                }
            ],
            "name": "isParty",
            "outputs": [
                {
                    "internalType": "bool",
                    "name": "flag",
                    "type": "bool"
                }
            ],
            "stateMutability": "view",
            "type": "function"
        },
        {
            "inputs": [
                {
                    "internalType": "bool",
                    "name": "initPage",
                    "type": "bool"
                },
                {
                    "internalType": "uint256",
                    "name": "acct",
                    "type": "uint256"
                }
            ],
            "name": "isSeller",
            "outputs": [
                {
                    "internalType": "bool",
                    "name": "flag",
                    "type": "bool"
                }
            ],
            "stateMutability": "view",
            "type": "function"
        },
        {
            "inputs": [
                {
                    "internalType": "bool",
                    "name": "initPage",
                    "type": "bool"
                },
                {
                    "internalType": "uint256",
                    "name": "acct",
                    "type": "uint256"
                }
            ],
            "name": "isSigner",
            "outputs": [
                {
                    "internalType": "bool",
                    "name": "flag",
                    "type": "bool"
                }
            ],
            "stateMutability": "view",
            "type": "function"
        },
        {
            "inputs": [],
            "name": "lockContents",
            "outputs": [],
            "stateMutability": "nonpayable",
            "type": "function"
        },
        {
            "inputs": [],
            "name": "qtyOfRules",
            "outputs": [
                {
                    "internalType": "uint256",
                    "name": "",
                    "type": "uint256"
                }
            ],
            "stateMutability": "view",
            "type": "function"
        },
        {
            "inputs": [],
            "name": "qtyOfTerms",
            "outputs": [
                {
                    "internalType": "uint256",
                    "name": "",
                    "type": "uint256"
                }
            ],
            "stateMutability": "view",
            "type": "function"
        },
        {
            "inputs": [
                {
                    "internalType": "uint256",
                    "name": "seqOfDeal",
                    "type": "uint256"
                },
                {
                    "internalType": "uint256",
                    "name": "signer",
                    "type": "uint256"
                },
                {
                    "internalType": "uint48",
                    "name": "sigDate",
                    "type": "uint48"
                },
                {
                    "internalType": "bytes32",
                    "name": "sigHash",
                    "type": "bytes32"
                }
            ],
            "name": "regSig",
            "outputs": [
                {
                    "internalType": "bool",
                    "name": "flag",
                    "type": "bool"
                }
            ],
            "stateMutability": "nonpayable",
            "type": "function"
        },
        {
            "inputs": [
                {
                    "internalType": "uint256",
                    "name": "seq",
                    "type": "uint256"
                }
            ],
            "name": "removeRule",
            "outputs": [],
            "stateMutability": "nonpayable",
            "type": "function"
        },
        {
            "inputs": [
                {
                    "internalType": "uint16",
                    "name": "typeOfDoc",
                    "type": "uint16"
                }
            ],
            "name": "removeTerm",
            "outputs": [],
            "stateMutability": "nonpayable",
            "type": "function"
        },
        {
            "inputs": [
                {
                    "internalType": "bytes32",
                    "name": "role",
                    "type": "bytes32"
                }
            ],
            "name": "renounceRole",
            "outputs": [],
            "stateMutability": "nonpayable",
            "type": "function"
        },
        {
            "inputs": [
                {
                    "internalType": "bytes32",
                    "name": "role",
                    "type": "bytes32"
                },
                {
                    "internalType": "uint256",
                    "name": "acct",
                    "type": "uint256"
                }
            ],
            "name": "revokeRole",
            "outputs": [],
            "stateMutability": "nonpayable",
            "type": "function"
        },
        {
            "inputs": [],
            "name": "rules",
            "outputs": [
                {
                    "internalType": "uint256[]",
                    "name": "",
                    "type": "uint256[]"
                }
            ],
            "stateMutability": "view",
            "type": "function"
        },
        {
            "inputs": [
                {
                    "internalType": "address",
                    "name": "keeper",
                    "type": "address"
                }
            ],
            "name": "setDirectKeeper",
            "outputs": [],
            "stateMutability": "nonpayable",
            "type": "function"
        },
        {
            "inputs": [
                {
                    "internalType": "uint256",
                    "name": "acct",
                    "type": "uint256"
                }
            ],
            "name": "setGeneralCounsel",
            "outputs": [],
            "stateMutability": "nonpayable",
            "type": "function"
        },
        {
            "inputs": [
                {
                    "internalType": "uint256",
                    "name": "acct",
                    "type": "uint256"
                }
            ],
            "name": "setOwner",
            "outputs": [],
            "stateMutability": "nonpayable",
            "type": "function"
        },
        {
            "inputs": [
                {
                    "internalType": "bytes32",
                    "name": "role",
                    "type": "bytes32"
                },
                {
                    "internalType": "uint256",
                    "name": "acct",
                    "type": "uint256"
                }
            ],
            "name": "setRoleAdmin",
            "outputs": [],
            "stateMutability": "nonpayable",
            "type": "function"
        },
        {
            "inputs": [
                {
                    "internalType": "bool",
                    "name": "initPage",
                    "type": "bool"
                },
                {
                    "internalType": "uint48",
                    "name": "sigDeadline",
                    "type": "uint48"
                }
            ],
            "name": "setSigDeadline",
            "outputs": [],
            "stateMutability": "nonpayable",
            "type": "function"
        },
        {
            "inputs": [
                {
                    "internalType": "bool",
                    "name": "initPage",
                    "type": "bool"
                },
                {
                    "internalType": "uint256",
                    "name": "caller",
                    "type": "uint256"
                },
                {
                    "internalType": "bytes32",
                    "name": "sigHash",
                    "type": "bytes32"
                }
            ],
            "name": "signDoc",
            "outputs": [],
            "stateMutability": "nonpayable",
            "type": "function"
        },
        {
            "inputs": [
                {
                    "internalType": "uint256",
                    "name": "title",
                    "type": "uint256"
                },
                {
                    "internalType": "address",
                    "name": "ia",
                    "type": "address"
                },
                {
                    "internalType": "uint256",
                    "name": "seqOfDeal",
                    "type": "uint256"
                }
            ],
            "name": "termIsExempted",
            "outputs": [
                {
                    "internalType": "bool",
                    "name": "",
                    "type": "bool"
                }
            ],
            "stateMutability": "view",
            "type": "function"
        },
        {
            "inputs": [
                {
                    "internalType": "uint256",
                    "name": "title",
                    "type": "uint256"
                },
                {
                    "internalType": "address",
                    "name": "ia",
                    "type": "address"
                },
                {
                    "internalType": "uint256",
                    "name": "seqOfDeal",
                    "type": "uint256"
                }
            ],
            "name": "termIsTriggered",
            "outputs": [
                {
                    "internalType": "bool",
                    "name": "",
                    "type": "bool"
                }
            ],
            "stateMutability": "view",
            "type": "function"
        },
        {
            "inputs": [],
            "name": "titles",
            "outputs": [
                {
                    "internalType": "uint256[]",
                    "name": "",
                    "type": "uint256[]"
                }
            ],
            "stateMutability": "view",
            "type": "function"
        }
    ],
    "bytecode": "608060405234801561001057600080fd5b50614017806100206000396000f3fe608060405234801561001057600080fd5b50600436106102955760003560e01c80637e063c5a11610167578063bc3ffc70116100ce578063debca88c11610087578063debca88c146105e5578063eb1a1177146105f8578063eb1a79f41461060b578063ed2110231461061e578063f045a76914610626578063f2724eb21461062e57600080fd5b8063bc3ffc701461057c578063cb2123e414610584578063ccb2f41514610597578063d0c504b0146105b7578063d70da38b146105bf578063dc890da9146105d257600080fd5b8063a8311aa811610120578063a8311aa81461051e578063a959c69c14610526578063a9acd94414610539578063ac06784314610541578063b115233514610554578063b3f05b971461056757600080fd5b80637e063c5a146104c25780638041494e146104d5578063893d20e8146104e85780638969d43a146104f05780638bb9c5bf146104f85780638c5f91701461050b57600080fd5b80633da9a6001161020b5780635171ebd4116101c45780635171ebd41461044e57806351b171a31461046157806352f6747a146104745780635d24f35b146104895780636be8496f1461049c57806371765449146104af57600080fd5b80633da9a600146103cc578063460a0d0b146103df5780634844f541146103f257806348462037146103fa5780634a14beb11461042857806350a31ef91461043b57600080fd5b806325abe7901161025d57806325abe7901461030b57806325cbca631461032c5780632e4c9cd5146103345780633436731314610347578063346ba94114610368578063379ef4a6146103a957600080fd5b8063103f6edd1461029a5780631958ac5a146102bd57806319d61ad9146102d25780631b6ea9f9146102e5578063241f4aaa146102f8575b600080fd5b6102a2610641565b60405164ffffffffff90911681526020015b60405180910390f35b6102d06102cb36600461349c565b6106cd565b005b6102d06102e03660046134d1565b610856565b6102d06102f33660046134d1565b6108ea565b6102d06103063660046134f3565b61090f565b61031e61031936600461350c565b610a7f565b6040516102b49291906135ac565b6102d0610b31565b6102d06103423660046135e5565b610c0a565b61035a61035536600461361e565b610e0e565b6040516102b492919061367a565b6103916103763660046134f3565b6000908152600f60205260409020546001600160a01b031690565b6040516001600160a01b0390911681526020016102b4565b6103bc6103b73660046134f3565b610eed565b60405190151581526020016102b4565b6102d06103da3660046134f3565b610f81565b6103bc6103ed36600461361e565b611093565b6103bc6110b6565b61041a6104083660046134f3565b60009081526012602052604090205490565b6040519081526020016102b4565b6102d06104363660046134f3565b611289565b6102d061044936600461349c565b611479565b6102d061045c3660046134d1565b61158e565b6103bc61046f36600461361e565b6115b3565b61047c6116d5565b6040516102b4919061369c565b6103bc6104973660046136c4565b611760565b6102d06104aa3660046136fc565b6118de565b6103bc6104bd3660046134f3565b611990565b6103bc6104d03660046134d1565b6119d2565b6102d06104e33660046134f3565b611a1b565b6102a2611c00565b6102d0611c3b565b6102d06105063660046134f3565b611e96565b6103bc6105193660046134f3565b611eef565b61047c6120e1565b61047c61053436600461350c565b6122c1565b61047c6123dd565b6103bc61054f3660046136c4565b612418565b6103bc61056236600461361e565b6124b9565b600354600160f01b900460ff166002146103bc565b61041a61253e565b6103bc61059236600461361e565b6125c5565b6105aa6105a536600461350c565b61264a565b6040516102b49190613719565b61041a612721565b6102d06105cd3660046134f3565b61275c565b6102d06105e0366004613727565b6128cc565b6103916105f336600461378a565b6129af565b6102d06106063660046137b8565b612ce8565b6103bc6106193660046137d5565b612e6c565b610391612fb3565b6102d0613039565b61047c61063c36600461350c565b613257565b60405163e8c0cc1d60e01b81526003600482015260009073__$364aad554dc80380f414546becdd2c1584$__9063e8c0cc1d906024015b60206040518083038186803b15801561069057600080fd5b505af41580156106a4573d6000803e3d6000fd5b505050506040513d601f19601f820116820180604052508101906106c8919061382e565b905090565b6001546040516335d2155560e11b81523360048201526001600160a01b0390911690636ba42aaa9060240160206040518083038186803b15801561071057600080fd5b505afa158015610724573d6000803e3d6000fd5b505050506040513d601f19601f820116820180604052508101906107489190613849565b61076d5760405162461bcd60e51b815260040161076490613866565b60405180910390fd5b821561080b576040516368c2325360e01b815260056004820152602481018390526044810182905273__$47b88465a20692378cf12e8e0c338f01dd$__906368c23253906064015b60206040518083038186803b1580156107cd57600080fd5b505af41580156107e1573d6000803e3d6000fd5b505050506040513d601f19601f820116820180604052508101906108059190613849565b50505050565b6040516368c2325360e01b8152600a6004820152602481018390526044810182905273__$47b88465a20692378cf12e8e0c338f01dd$__906368c23253906064016107b5565b505050565b73__$364aad554dc80380f414546becdd2c1584$__6382daafaa60038461087b6132ce565b6040516001600160e01b031960e086901b1681526004810193909352602483019190915264ffffffffff166044820152606481018490526084015b60006040518083038186803b1580156108ce57600080fd5b505af41580156108e2573d6000803e3d6000fd5b505050505050565b73__$364aad554dc80380f414546becdd2c1584$__636320d75e60038461087b6132ce565b73__$364aad554dc80380f414546becdd2c1584$__63a8ef95ac6003684174746f726e65797360b81b6109406132ce565b6040516001600160e01b031960e086901b1681526004810193909352602483019190915264ffffffffff16604482015260640160206040518083038186803b15801561098b57600080fd5b505af415801561099f573d6000803e3d6000fd5b505050506040513d601f19601f820116820180604052508101906109c39190613849565b6109df5760405162461bcd60e51b815260040161076490613891565b60f081901c60008181526012602052604090819020839055516392f13c3f60e01b8152601360048201526024810182905273__$8c1a4844a0a0988ea2454cf87145a95df1$__906392f13c3f9060440160206040518083038186803b158015610a4757600080fd5b505af4158015610a5b573d6000803e3d6000fd5b505050506040513d601f19601f820116820180604052508101906108519190613849565b6060808215610b2857600560005b6005020173__$47b88465a20692378cf12e8e0c338f01dd$__63c018ec8790916040518263ffffffff1660e01b8152600401610acb91815260200190565b60006040518083038186803b158015610ae357600080fd5b505af4158015610af7573d6000803e3d6000fd5b505050506040513d6000823e601f3d908101601f19168201604052610b1f9190810190613a82565b91509150915091565b60056001610a8d565b60015460405163e0ff5b8b60e01b8152600360048201526001600160a01b039091169063e0ff5b8b9060240160206040518083038186803b158015610b7557600080fd5b505afa158015610b89573d6000803e3d6000fd5b505050506040513d601f19601f82011682018060405250810190610bad9190613ae5565b600280546001600160a01b03929092166001600160a01b031990921682179055604080516003815260208101929092527f6aa5e483fe137161b095cd68564a336d1657057f57987b1ae21019134dbc8da2910160405180910390a1565b73__$364aad554dc80380f414546becdd2c1584$__63a8ef95ac6003684174746f726e65797360b81b610c3b6132ce565b6040516001600160e01b031960e086901b1681526004810193909352602483019190915264ffffffffff16604482015260640160206040518083038186803b158015610c8657600080fd5b505af4158015610c9a573d6000803e3d6000fd5b505050506040513d601f19601f82011682018060405250810190610cbe9190613849565b610cda5760405162461bcd60e51b815260040161076490613891565b8115610d5657604051635284fe6760e11b81526005600482015265ffffffffffff8216602482015273__$47b88465a20692378cf12e8e0c338f01dd$__9063a509fcce9060440160006040518083038186803b158015610d3957600080fd5b505af4158015610d4d573d6000803e3d6000fd5b50505050610dc8565b604051635284fe6760e11b8152600a600482015265ffffffffffff8216602482015273__$47b88465a20692378cf12e8e0c338f01dd$__9063a509fcce9060440160006040518083038186803b158015610daf57600080fd5b505af4158015610dc3573d6000803e3d6000fd5b505050505b60408051831515815265ffffffffffff831660208201527f523844b7b23204192ed69d6efc62131f2a86a16ecf1326fd0084e459b31cb62d910160405180910390a15050565b604080516080810182526000808252602082018190529181018290526060818101929092528315610edd57600560005b604051630b5b0ad560e01b81526005919091029190910160048201526024810184905273__$47b88465a20692378cf12e8e0c338f01dd$__90630b5b0ad59060440160006040518083038186803b158015610e9857600080fd5b505af4158015610eac573d6000803e3d6000fd5b505050506040513d6000823e601f3d908101601f19168201604052610ed49190810190613b5d565b91509150610ee6565b60056001610e3e565b9250929050565b604051633f5f77cd60e01b8152601360048201526024810182905260009073__$8c1a4844a0a0988ea2454cf87145a95df1$__90633f5f77cd906044015b60206040518083038186803b158015610f4357600080fd5b505af4158015610f57573d6000803e3d6000fd5b505050506040513d601f19601f82011682018060405250810190610f7b9190613849565b92915050565b604051633b11adbf60e21b81526003600482015233602482015273__$364aad554dc80380f414546becdd2c1584$__9063ec46b6fc9060440160206040518083038186803b158015610fd257600080fd5b505af4158015610fe6573d6000803e3d6000fd5b505050506040513d601f19601f8201168201806040525081019061100a9190613849565b6110265760405162461bcd60e51b815260040161076490613bab565b60405163cc99e11b60e01b8152600360048201526024810182905273__$364aad554dc80380f414546becdd2c1584$__9063cc99e11b9060440160006040518083038186803b15801561107857600080fd5b505af415801561108c573d6000803e3d6000fd5b5050505050565b600061109f83836124b9565b806110af57506110af83836115b3565b9392505050565b60405163c2b46a8560e01b8152600b6004820152600090819073__$8c1a4844a0a0988ea2454cf87145a95df1$__9063c2b46a859060240160206040518083038186803b15801561110657600080fd5b505af415801561111a573d6000803e3d6000fd5b505050506040513d601f19601f8201168201806040525081019061113e9190613bf1565b116111c7576040516318a7841360e11b81526005600482015273__$47b88465a20692378cf12e8e0c338f01dd$__9063314f0826906024015b60206040518083038186803b15801561118f57600080fd5b505af41580156111a3573d6000803e3d6000fd5b505050506040513d601f19601f820116820180604052508101906106c89190613849565b6040516318a7841360e11b8152600a600482015273__$47b88465a20692378cf12e8e0c338f01dd$__9063314f08269060240160206040518083038186803b15801561121257600080fd5b505af4158015611226573d6000803e3d6000fd5b505050506040513d601f19601f8201168201806040525081019061124a9190613849565b80156106c857506040516318a7841360e11b81526005600482015273__$47b88465a20692378cf12e8e0c338f01dd$__9063314f082690602401611177565b604051633b11adbf60e21b81526003600482015233602482015273__$364aad554dc80380f414546becdd2c1584$__9063ec46b6fc9060440160206040518083038186803b1580156112da57600080fd5b505af41580156112ee573d6000803e3d6000fd5b505050506040513d601f19601f820116820180604052508101906113129190613849565b806113b7575073__$364aad554dc80380f414546becdd2c1584$__63fe271086600361133c6132ce565b6040516001600160e01b031960e085901b168152600481019290925264ffffffffff16602482015260440160206040518083038186803b15801561137f57600080fd5b505af4158015611393573d6000803e3d6000fd5b505050506040513d601f19601f820116820180604052508101906113b79190613849565b6113d35760405162461bcd60e51b815260040161076490613c0a565b604051632725ebef60e21b8152600360048201526024810182905273__$364aad554dc80380f414546becdd2c1584$__90639c97afbc9060440160006040518083038186803b15801561142557600080fd5b505af4158015611439573d6000803e3d6000fd5b505050507ff2735f34b69be1e6342dea95f9162f84d0db925fab655ca9f1f312ac8cbfc99d8160405161146e91815260200190565b60405180910390a150565b6001546040516335d2155560e11b81523360048201526001600160a01b0390911690636ba42aaa9060240160206040518083038186803b1580156114bc57600080fd5b505afa1580156114d0573d6000803e3d6000fd5b505050506040513d601f19601f820116820180604052508101906114f49190613849565b6115105760405162461bcd60e51b815260040161076490613866565b604051630dfb57ab60e11b8152600a60048201528315156024820152604481018390526064810182905273__$47b88465a20692378cf12e8e0c338f01dd$__90631bf6af569060840160006040518083038186803b15801561157157600080fd5b505af4158015611585573d6000803e3d6000fd5b50505050505050565b73__$364aad554dc80380f414546becdd2c1584$__63ee98b31360038461087b6132ce565b60008261164a57604051633f5f77cd60e01b8152600d60048201526024810183905273__$8c1a4844a0a0988ea2454cf87145a95df1$__90633f5f77cd906044015b60206040518083038186803b15801561160d57600080fd5b505af4158015611621573d6000803e3d6000fd5b505050506040513d601f19601f820116820180604052508101906116459190613849565b6110af565b604051633f5f77cd60e01b8152600860048201526024810183905273__$8c1a4844a0a0988ea2454cf87145a95df1$__90633f5f77cd906044015b60206040518083038186803b15801561169d57600080fd5b505af41580156116b1573d6000803e3d6000fd5b505050506040513d601f19601f820116820180604052508101906110af9190613849565b60405163034306e160e21b81526013600482015260609073__$8c1a4844a0a0988ea2454cf87145a95df1$__90630d0c1b84906024015b60006040518083038186803b15801561172457600080fd5b505af4158015611738573d6000803e3d6000fd5b505050506040513d6000823e601f3d908101601f191682016040526106c89190810190613c60565b60008361176c81611990565b6117b85760405162461bcd60e51b815260206004820152601a60248201527f5348412e6d662e54453a207469746c65206e6f742065786973740000000000006044820152606401610764565b6117c3858585612418565b6117d057600191506118d6565b6000858152600f6020526040908190205490516320bf56eb60e21b8152600481018590526001600160a01b039182169163237006e09187918216906382fd5bac906024015b6101e06040518083038186803b15801561182e57600080fd5b505afa158015611842573d6000803e3d6000fd5b505050506040513d601f19601f820116820180604052508101906118669190613d5c565b6040518363ffffffff1660e01b8152600401611883929190613e50565b60206040518083038186803b15801561189b57600080fd5b505afa1580156118af573d6000803e3d6000fd5b505050506040513d601f19601f820116820180604052508101906118d39190613849565b91505b509392505050565b604051630f07232560e01b8152600360048201523360248201526001600160a01b038216604482015273__$364aad554dc80380f414546becdd2c1584$__90630f0723259060640160006040518083038186803b15801561193e57600080fd5b505af4158015611952573d6000803e3d6000fd5b50506040516001600160a01b03841681527fe435cbeab64e4eae6497b9d8289704bd709d624a80704ef3ca9af777534bc6ec9250602001905061146e565b604051633f5f77cd60e01b8152601060048201526024810182905260009073__$8c1a4844a0a0988ea2454cf87145a95df1$__90633f5f77cd90604401610f2b565b604051632a3be56b60e21b815260036004820152602481018390526044810182905260009073__$364aad554dc80380f414546becdd2c1584$__9063a8ef95ac90606401611685565b604051633b11adbf60e21b81526003600482015233602482015273__$364aad554dc80380f414546becdd2c1584$__9063ec46b6fc9060440160206040518083038186803b158015611a6c57600080fd5b505af4158015611a80573d6000803e3d6000fd5b505050506040513d601f19601f82011682018060405250810190611aa49190613849565b80611b49575073__$364aad554dc80380f414546becdd2c1584$__63fe2710866003611ace6132ce565b6040516001600160e01b031960e085901b168152600481019290925264ffffffffff16602482015260440160206040518083038186803b158015611b1157600080fd5b505af4158015611b25573d6000803e3d6000fd5b505050506040513d601f19601f82011682018060405250810190611b499190613849565b611b655760405162461bcd60e51b815260040161076490613c0a565b60405163b6e38a2960e01b8152600360048201526024810182905273__$364aad554dc80380f414546becdd2c1584$__9063b6e38a299060440160006040518083038186803b158015611bb757600080fd5b505af4158015611bcb573d6000803e3d6000fd5b505050507f8b6f40f36b4ae8cc5f55e895036457c43da4ab1f80f58c46f5ff0d72a650033b8160405161146e91815260200190565b60405163987ad15360e01b81526003600482015260009073__$364aad554dc80380f414546becdd2c1584$__9063987ad15390602401610678565b604051633b11adbf60e21b81526003600482015233602482015273__$364aad554dc80380f414546becdd2c1584$__9063ec46b6fc9060440160206040518083038186803b158015611c8c57600080fd5b505af4158015611ca0573d6000803e3d6000fd5b505050506040513d601f19601f82011682018060405250810190611cc49190613849565b611ce05760405162461bcd60e51b815260040161076490613bab565b60405163c2b46a8560e01b81526010600482015260009073__$8c1a4844a0a0988ea2454cf87145a95df1$__9063c2b46a859060240160206040518083038186803b158015611d2e57600080fd5b505af4158015611d42573d6000803e3d6000fd5b505050506040513d601f19601f82011682018060405250810190611d669190613bf1565b905060005b81811015611e8a57604051630ef6982f60e41b81526010600482015260248101829052600f9060009073__$8c1a4844a0a0988ea2454cf87145a95df1$__9063ef6982f09060440160206040518083038186803b158015611dcb57600080fd5b505af4158015611ddf573d6000803e3d6000fd5b505050506040513d601f19601f82011682018060405250810190611e039190613bf1565b815260200190815260200160002060009054906101000a90046001600160a01b03166001600160a01b031663f045a7696040518163ffffffff1660e01b8152600401600060405180830381600087803b158015611e5f57600080fd5b505af1158015611e73573d6000803e3d6000fd5b505050508080611e8290613f6e565b915050611d6b565b50611e93613039565b50565b6000611ea06132ce565b60405163cc0d511b60e01b8152600360048201526024810184905264ffffffffff8216604482015290915073__$364aad554dc80380f414546becdd2c1584$__9063cc0d511b906064016108b6565b604051633f5f77cd60e01b8152600660048201526024810182905260009073__$8c1a4844a0a0988ea2454cf87145a95df1$__90633f5f77cd9060440160206040518083038186803b158015611f4457600080fd5b505af4158015611f58573d6000803e3d6000fd5b505050506040513d601f19601f82011682018060405250810190611f7c9190613849565b8061200c5750604051633f5f77cd60e01b8152600860048201526024810183905273__$8c1a4844a0a0988ea2454cf87145a95df1$__90633f5f77cd9060440160206040518083038186803b158015611fd457600080fd5b505af4158015611fe8573d6000803e3d6000fd5b505050506040513d601f19601f8201168201806040525081019061200c9190613849565b8061209c5750604051633f5f77cd60e01b8152600b60048201526024810183905273__$8c1a4844a0a0988ea2454cf87145a95df1$__90633f5f77cd9060440160206040518083038186803b15801561206457600080fd5b505af4158015612078573d6000803e3d6000fd5b505050506040513d601f19601f8201168201806040525081019061209c9190613849565b80610f7b5750604051633f5f77cd60e01b8152600d60048201526024810183905273__$8c1a4844a0a0988ea2454cf87145a95df1$__90633f5f77cd90604401610f2b565b606060006120ef60016122c1565b905073__$ccb256085f563a601d001f7c9087d87207$__63088b9bf68261211660006122c1565b6040518363ffffffff1660e01b8152600401612133929190613f97565b60006040518083038186803b15801561214b57600080fd5b505af415801561215f573d6000803e3d6000fd5b505050506040513d6000823e601f3d908101601f191682016040526121879190810190613c60565b5060006121946001613257565b905073__$ccb256085f563a601d001f7c9087d87207$__63088b9bf6826121bb6000613257565b6040518363ffffffff1660e01b81526004016121d8929190613f97565b60006040518083038186803b1580156121f057600080fd5b505af4158015612204573d6000803e3d6000fd5b505050506040513d6000823e601f3d908101601f1916820160405261222c9190810190613c60565b50604051630445cdfb60e11b815273__$ccb256085f563a601d001f7c9087d87207$__9063088b9bf6906122669085908590600401613f97565b60006040518083038186803b15801561227e57600080fd5b505af4158015612292573d6000803e3d6000fd5b505050506040513d6000823e601f3d908101601f191682016040526122ba9190810190613c60565b9250505090565b6060816123555760405163034306e160e21b81526006600482015273__$8c1a4844a0a0988ea2454cf87145a95df1$__90630d0c1b84906024015b60006040518083038186803b15801561231457600080fd5b505af4158015612328573d6000803e3d6000fd5b505050506040513d6000823e601f3d908101601f191682016040526123509190810190613c60565b610f7b565b60405163034306e160e21b81526006600482015273__$8c1a4844a0a0988ea2454cf87145a95df1$__90630d0c1b84906024015b60006040518083038186803b1580156123a157600080fd5b505af41580156123b5573d6000803e3d6000fd5b505050506040513d6000823e601f3d908101601f19168201604052610f7b9190810190613c60565b60405163034306e160e21b81526010600482015260609073__$8c1a4844a0a0988ea2454cf87145a95df1$__90630d0c1b849060240161170c565b60008361242481611990565b6124705760405162461bcd60e51b815260206004820152601a60248201527f5348412e6d662e54453a207469746c65206e6f742065786973740000000000006044820152606401610764565b6000858152600f6020526040908190205490516320bf56eb60e21b8152600481018590526001600160a01b03918216916306c4b2089187918216906382fd5bac90602401611815565b6000826124ff57604051633f5f77cd60e01b8152600b60048201526024810183905273__$8c1a4844a0a0988ea2454cf87145a95df1$__90633f5f77cd906044016115f5565b604051633f5f77cd60e01b8152600660048201526024810183905273__$8c1a4844a0a0988ea2454cf87145a95df1$__90633f5f77cd90604401611685565b60405163c2b46a8560e01b81526010600482015260009073__$8c1a4844a0a0988ea2454cf87145a95df1$__9063c2b46a85906024015b60206040518083038186803b15801561258d57600080fd5b505af41580156125a1573d6000803e3d6000fd5b505050506040513d601f19601f820116820180604052508101906106c89190613bf1565b60008261260b576040516324d431a360e01b8152600a60048201526024810183905273__$47b88465a20692378cf12e8e0c338f01dd$__906324d431a3906044016115f5565b6040516324d431a360e01b8152600560048201526024810183905273__$47b88465a20692378cf12e8e0c338f01dd$__906324d431a390604401611685565b604080516080810182526000808252602082018190529181018290526060810191909152816126a25760008052600a6020527f13da86008ba1c6922daee3e07db95305ef49ebced9f5467a0b8613fcc6b343e56126cd565b6000805260056020527f05b8ccbb9d4d8fb16ea74ce3c29a41f1b461fbdaff4714a0d9a8eb05499746be5b60408051608081018252825464ffffffffff8116825265010000000000810465ffffffffffff166020830152600160581b90046001600160401b031691810191909152600190910154606082015292915050565b60405163c2b46a8560e01b81526013600482015260009073__$8c1a4844a0a0988ea2454cf87145a95df1$__9063c2b46a8590602401612575565b73__$364aad554dc80380f414546becdd2c1584$__63a8ef95ac6003684174746f726e65797360b81b61278d6132ce565b6040516001600160e01b031960e086901b1681526004810193909352602483019190915264ffffffffff16604482015260640160206040518083038186803b1580156127d857600080fd5b505af41580156127ec573d6000803e3d6000fd5b505050506040513d601f19601f820116820180604052508101906128109190613849565b61282c5760405162461bcd60e51b815260040161076490613891565b6040516392fd02df60e01b8152601360048201526024810182905273__$8c1a4844a0a0988ea2454cf87145a95df1$__906392fd02df9060440160206040518083038186803b15801561287e57600080fd5b505af4158015612892573d6000803e3d6000fd5b505050506040513d601f19601f820116820180604052508101906128b69190613849565b15611e9357600090815260126020526040812055565b6128d582613328565b6128de816133d7565b604051636cdd0edf60e11b815260036004820152602481018590526001600160a01b038416604482015273__$364aad554dc80380f414546becdd2c1584$__9063d9ba1dbe9060640160006040518083038186803b15801561293f57600080fd5b505af4158015612953573d6000803e3d6000fd5b5050604080518781526001600160a01b038781166020830152868116828401528516606082015290517f3abb2418c66fe32ba9c883030a75ce583971d9af9192b9b74e44e67c5e6c8c1f9350908190036080019150a150505050565b600073__$364aad554dc80380f414546becdd2c1584$__6331a349c060036129d56132ce565b6040516001600160e01b031960e085901b168152600481019290925264ffffffffff16602482015260440160206040518083038186803b158015612a1857600080fd5b505af4158015612a2c573d6000803e3d6000fd5b505050506040513d601f19601f82011682018060405250810190612a509190613849565b612a9c5760405162461bcd60e51b815260206004820152601b60248201527f41432e6f67633a206e6f742067656e6572616c20636f756e73656c00000000006044820152606401610764565b6000612aa6611c00565b90506000612ab2610641565b6000546040516378af322960e11b815261ffff80891660048301528716602482015264ffffffffff831660448201529192506001600160a01b03169063f15e6452906064016040805180830381600087803b158015612b1057600080fd5b505af1158015612b24573d6000803e3d6000fd5b505050506040513d601f19601f82011682018060405250810190612b489190613fbc565b60005460015460405163dc890da960e01b815264ffffffffff871660048201523060248201526001600160a01b03928316604482015290821660648201529195508516915063dc890da990608401600060405180830381600087803b158015612bb057600080fd5b505af1158015612bc4573d6000803e3d6000fd5b5050604051634a14beb160e01b815264ffffffffff841660048201526001600160a01b0386169250634a14beb19150602401600060405180830381600087803b158015612c1057600080fd5b505af1158015612c24573d6000803e3d6000fd5b5050505061ffff85166000818152600f60205260409081902080546001600160a01b0319166001600160a01b038716179055516392f13c3f60e01b815260106004820152602481019190915273__$8c1a4844a0a0988ea2454cf87145a95df1$__906392f13c3f9060440160206040518083038186803b158015612ca757600080fd5b505af4158015612cbb573d6000803e3d6000fd5b505050506040513d601f19601f82011682018060405250810190612cdf9190613849565b50505092915050565b73__$364aad554dc80380f414546becdd2c1584$__63a8ef95ac6003684174746f726e65797360b81b612d196132ce565b6040516001600160e01b031960e086901b1681526004810193909352602483019190915264ffffffffff16604482015260640160206040518083038186803b158015612d6457600080fd5b505af4158015612d78573d6000803e3d6000fd5b505050506040513d601f19601f82011682018060405250810190612d9c9190613849565b612db85760405162461bcd60e51b815260040161076490613891565b6040516392fd02df60e01b81526010600482015261ffff8216602482015273__$8c1a4844a0a0988ea2454cf87145a95df1$__906392fd02df9060440160206040518083038186803b158015612e0d57600080fd5b505af4158015612e21573d6000803e3d6000fd5b505050506040513d601f19601f82011682018060405250810190612e459190613849565b15611e935761ffff166000908152600f6020526040902080546001600160a01b0319169055565b6001546040516335d2155560e11b81523360048201526000916001600160a01b031690636ba42aaa9060240160206040518083038186803b158015612eb057600080fd5b505afa158015612ec4573d6000803e3d6000fd5b505050506040513d601f19601f82011682018060405250810190612ee89190613849565b612f045760405162461bcd60e51b815260040161076490613866565b60405163031559a160e01b8152600a6004820152602481018690526044810185905265ffffffffffff841660648201526084810183905273__$47b88465a20692378cf12e8e0c338f01dd$__9063031559a19060a40160206040518083038186803b158015612f7257600080fd5b505af4158015612f86573d6000803e3d6000fd5b505050506040513d601f19601f82011682018060405250810190612faa9190613849565b95945050505050565b604051633c3e56c160e11b81526003600482015260009073__$364aad554dc80380f414546becdd2c1584$__9063787cad829060240160206040518083038186803b15801561300157600080fd5b505af4158015613015573d6000803e3d6000fd5b505050506040513d601f19601f820116820180604052508101906106c89190613ae5565b604051633b11adbf60e21b81526003600482015233602482015273__$364aad554dc80380f414546becdd2c1584$__9063ec46b6fc9060440160206040518083038186803b15801561308a57600080fd5b505af415801561309e573d6000803e3d6000fd5b505050506040513d601f19601f820116820180604052508101906130c29190613849565b6130de5760405162461bcd60e51b815260040161076490613bab565b600354600160f01b900460ff1660011461313a5760405162461bcd60e51b815260206004820181905260248201527f41432e6f6e6c7950656e64696e673a20446f632069732066696e616c697a65646044820152606401610764565b60405163cc99e11b60e01b815260036004820152684174746f726e65797360b81b602482015273__$364aad554dc80380f414546becdd2c1584$__9063cc99e11b9060440160006040518083038186803b15801561319757600080fd5b505af41580156131ab573d6000803e3d6000fd5b5050604051632725ebef60e21b8152600360048201526000602482015273__$364aad554dc80380f414546becdd2c1584$__9250639c97afbc915060440160006040518083038186803b15801561320157600080fd5b505af4158015613215573d6000803e3d6000fd5b50506003805460ff60f01b1916600160f11b17905550506040517f35012b512309c322acf68632cd6cb702ff0e1d776fbe9394e38ffc13b434fe7590600090a1565b6060816132965760405163034306e160e21b8152600d600482015273__$8c1a4844a0a0988ea2454cf87145a95df1$__90630d0c1b84906024016122fc565b60405163034306e160e21b81526008600482015273__$8c1a4844a0a0988ea2454cf87145a95df1$__90630d0c1b8490602401612389565b60008054604051636ae3b70d60e11b81523360048201526001600160a01b039091169063d5c76e1a90602401602060405180830381600087803b15801561331457600080fd5b505af11580156106a4573d6000803e3d6000fd5b6000546001600160a01b0316156133795760405162461bcd60e51b815260206004820152601560248201527430b63932b0b23c9039b2ba103932b3a1b2b73a32b960591b6044820152606401610764565b6040516001600160a01b03821681527f318da6c7624c71cbc0afe346c9d8827f119d0ecefb241a7b0c87217a076a8e029060200160405180910390a1600080546001600160a01b0319166001600160a01b0392909216919091179055565b6001546001600160a01b0316156134305760405162461bcd60e51b815260206004820152601960248201527f616c7265616479207365742067656e6572616c4b6565706572000000000000006044820152606401610764565b6040516001600160a01b03821681527fe513d3e0f0d0a3877029dcc588748679a7a3450ec1ec7ed56d96bd012c3e61aa9060200160405180910390a1600180546001600160a01b0319166001600160a01b0392909216919091179055565b8015158114611e9357600080fd5b6000806000606084860312156134b157600080fd5b83356134bc8161348e565b95602085013595506040909401359392505050565b600080604083850312156134e457600080fd5b50508035926020909101359150565b60006020828403121561350557600080fd5b5035919050565b60006020828403121561351e57600080fd5b81356110af8161348e565b64ffffffffff815116825265ffffffffffff60208201511660208301526001600160401b036040820151166040830152606081015160608301525050565b600081518084526020808501945080840160005b838110156135a15761358e878351613529565b608096909601959082019060010161357b565b509495945050505050565b6040815260006135bf6040830185613567565b82810360208401526118d38185613567565b65ffffffffffff81168114611e9357600080fd5b600080604083850312156135f857600080fd5b82356136038161348e565b91506020830135613613816135d1565b809150509250929050565b6000806040838503121561363157600080fd5b823561363c8161348e565b946020939093013593505050565b600081518084526020808501945080840160005b838110156135a15781518752958201959082019060010161365e565b60a08152600061368d60a083018561364a565b90506110af6020830184613529565b6020815260006110af602083018461364a565b6001600160a01b0381168114611e9357600080fd5b6000806000606084860312156136d957600080fd5b8335925060208401356136eb816136af565b929592945050506040919091013590565b60006020828403121561370e57600080fd5b81356110af816136af565b60808101610f7b8284613529565b6000806000806080858703121561373d57600080fd5b84359350602085013561374f816136af565b9250604085013561375f816136af565b9150606085013561376f816136af565b939692955090935050565b61ffff81168114611e9357600080fd5b6000806040838503121561379d57600080fd5b82356137a88161377a565b915060208301356136138161377a565b6000602082840312156137ca57600080fd5b81356110af8161377a565b600080600080608085870312156137eb57600080fd5b84359350602085013592506040850135613804816135d1565b9396929550929360600135925050565b805164ffffffffff8116811461382957600080fd5b919050565b60006020828403121561384057600080fd5b6110af82613814565b60006020828403121561385b57600080fd5b81516110af8161348e565b60208082526011908201527020a19737b59d103737ba1025b2b2b832b960791b604082015260600190565b60208082526013908201527241432e6f743a206e6f74204174746f726e657960681b604082015260600190565b634e487b7160e01b600052604160045260246000fd5b604051606081016001600160401b03811182821017156138f6576138f66138be565b60405290565b60405161012081016001600160401b03811182821017156138f6576138f66138be565b604051601f8201601f191681016001600160401b0381118282101715613947576139476138be565b604052919050565b60006001600160401b03821115613968576139686138be565b5060051b60200190565b8051613829816135d1565b80516001600160401b038116811461382957600080fd5b6000608082840312156139a657600080fd5b604051608081018181106001600160401b03821117156139c8576139c86138be565b6040529050806139d783613814565b815260208301516139e7816135d1565b60208201526139f86040840161397d565b6040820152606083015160608201525092915050565b600082601f830112613a1f57600080fd5b81516020613a34613a2f8361394f565b61391f565b82815260079290921b84018101918181019086841115613a5357600080fd5b8286015b84811015613a7757613a698882613994565b835291830191608001613a57565b509695505050505050565b60008060408385031215613a9557600080fd5b82516001600160401b0380821115613aac57600080fd5b613ab886838701613a0e565b93506020850151915080821115613ace57600080fd5b50613adb85828601613a0e565b9150509250929050565b600060208284031215613af757600080fd5b81516110af816136af565b600082601f830112613b1357600080fd5b81516020613b23613a2f8361394f565b82815260059290921b84018101918181019086841115613b4257600080fd5b8286015b84811015613a775780518352918301918301613b46565b60008060a08385031215613b7057600080fd5b82516001600160401b03811115613b8657600080fd5b613b9285828601613b02565b925050613ba28460208501613994565b90509250929050565b60208082526026908201527f41432e6f6e6c794469726563744b65657065723a206e6f74206469726563742060408201526535b2b2b832b960d11b606082015260800190565b600060208284031215613c0357600080fd5b5051919050565b60208082526036908201527f41432e6f776e65724f72446972656374426f6f6b65657065723a206e6569746860408201527532b91037bbb732b9103737b9103137b7b5b2b2b832b960511b606082015260800190565b600060208284031215613c7257600080fd5b81516001600160401b03811115613c8857600080fd5b613c9484828501613b02565b949350505050565b805160ff8116811461382957600080fd5b80516138298161377a565b805163ffffffff8116811461382957600080fd5b600060a08284031215613cde57600080fd5b60405160a081018181106001600160401b0382111715613d0057613d006138be565b604052905080613d0f83613814565b8152613d1d60208401613814565b6020820152613d2e6040840161397d565b6040820152613d3f6060840161397d565b6060820152613d5060808401613c9c565b60808201525092915050565b60008183036101e0811215613d7057600080fd5b613d786138d4565b61012080831215613d8857600080fd5b613d906138fc565b9250613d9b85613c9c565b8352613da960208601613cad565b6020840152613dba60408601613cad565b6040840152613dcb60608601613cad565b6060840152613ddc60808601613cb8565b6080840152613ded60a08601613814565b60a0840152613dfe60c08601613cb8565b60c0840152613e0f60e08601613cb8565b60e0840152610100613e22818701613972565b90840152828252613e3586868301613ccc565b6020830152506101c093909301516040840152509092915050565b60006102008201905060018060a01b0384168252825160ff815116602084015261ffff60208201511660408401526040810151613e93606085018261ffff169052565b50606081015161ffff8116608085015250608081015163ffffffff811660a08501525060a081015164ffffffffff811660c08501525060c081015163ffffffff811660e08501525060e0810151610100613ef48186018363ffffffff169052565b919091015165ffffffffffff1661012084015250602083810151805164ffffffffff908116610140860152918101519091166101608401526040808201516001600160401b039081166101808601526060830151166101a085015260809091015160ff166101c0840152909201516101e090910152919050565b6000600019821415613f9057634e487b7160e01b600052601160045260246000fd5b5060010190565b604081526000613faa604083018561364a565b82810360208401526118d3818561364a565b60008060408385031215613fcf57600080fd5b825191506020830151613613816136af56fea2646970667358221220e16702b23eb83812f139c1c116476f70f40ba896ec049649762ebbbbf3a6c52764736f6c63430008080033",
    "sourcePath": "/Users/kaptain/github.com/hardhat/comboox/contracts/books/boh/ShareholdersAgreement.sol",
    "compiler": {
        "name": "solc",
        "version": "0.8.8+commit.dddeac2f"
    },
    "functionHashes": {
        "abandonRole(bytes32)": "3da9a600",
        "addBlank(bool,uint256,uint256)": "50a31ef9",
        "addRule(uint256)": "241f4aaa",
        "createTerm(uint16,uint16)": "debca88c",
        "established()": "4844f541",
        "finalizeTerms()": "8969d43a",
        "finalized()": "b3f05b97",
        "getBookeeper()": "ed211023",
        "getBuyers(bool)": "a959c69c",
        "getGeneralCounsel()": "103f6edd",
        "getOwner()": "893d20e8",
        "getParasOfPage(bool)": "ccb2f415",
        "getParties()": "a8311aa8",
        "getRule(uint256)": "48462037",
        "getSellers(bool)": "f2724eb2",
        "getSigOfParty(bool,uint256)": "34367313",
        "getSigsOfPage(bool)": "25abe790",
        "getTerm(uint256)": "346ba941",
        "grantRole(bytes32,uint256)": "1b6ea9f9",
        "hasRole(bytes32,uint256)": "7e063c5a",
        "hasRule(uint256)": "379ef4a6",
        "hasTitle(uint256)": "71765449",
        "init(uint256,address,address,address)": "dc890da9",
        "initBOH()": "25cbca63",
        "isBuyer(bool,uint256)": "b1152335",
        "isParty(bool,uint256)": "460a0d0b",
        "isParty(uint256)": "8c5f9170",
        "isSeller(bool,uint256)": "51b171a3",
        "isSigner(bool,uint256)": "cb2123e4",
        "lockContents()": "f045a769",
        "qtyOfRules()": "d0c504b0",
        "qtyOfTerms()": "bc3ffc70",
        "regSig(uint256,uint256,uint48,bytes32)": "eb1a79f4",
        "removeRule(uint256)": "d70da38b",
        "removeTerm(uint16)": "eb1a1177",
        "renounceRole(bytes32)": "8bb9c5bf",
        "revokeRole(bytes32,uint256)": "19d61ad9",
        "rules()": "52f6747a",
        "setDirectKeeper(address)": "6be8496f",
        "setGeneralCounsel(uint256)": "4a14beb1",
        "setOwner(uint256)": "8041494e",
        "setRoleAdmin(bytes32,uint256)": "5171ebd4",
        "setSigDeadline(bool,uint48)": "2e4c9cd5",
        "signDoc(bool,uint256,bytes32)": "1958ac5a",
        "termIsExempted(uint256,address,uint256)": "5d24f35b",
        "termIsTriggered(uint256,address,uint256)": "ac067843",
        "titles()": "a9acd944"
    },
    "gasEstimates": {
        "creation": {
            "codeDepositCost": "3281400",
            "executionCost": "3643",
            "totalCost": "3285043"
        },
        "external": {
            "abandonRole(bytes32)": "infinite",
            "addBlank(bool,uint256,uint256)": "infinite",
            "addRule(uint256)": "infinite",
            "createTerm(uint16,uint16)": "infinite",
            "established()": "infinite",
            "finalizeTerms()": "infinite",
            "finalized()": "2482",
            "getBookeeper()": "infinite",
            "getBuyers(bool)": "infinite",
            "getGeneralCounsel()": "infinite",
            "getOwner()": "infinite",
            "getParasOfPage(bool)": "5136",
            "getParties()": "infinite",
            "getRule(uint256)": "2550",
            "getSellers(bool)": "infinite",
            "getSigOfParty(bool,uint256)": "infinite",
            "getSigsOfPage(bool)": "infinite",
            "getTerm(uint256)": "2611",
            "grantRole(bytes32,uint256)": "infinite",
            "hasRole(bytes32,uint256)": "infinite",
            "hasRule(uint256)": "infinite",
            "hasTitle(uint256)": "infinite",
            "init(uint256,address,address,address)": "infinite",
            "initBOH()": "infinite",
            "isBuyer(bool,uint256)": "infinite",
            "isParty(bool,uint256)": "infinite",
            "isParty(uint256)": "infinite",
            "isSeller(bool,uint256)": "infinite",
            "isSigner(bool,uint256)": "infinite",
            "lockContents()": "infinite",
            "qtyOfRules()": "infinite",
            "qtyOfTerms()": "infinite",
            "regSig(uint256,uint256,uint48,bytes32)": "infinite",
            "removeRule(uint256)": "infinite",
            "removeTerm(uint16)": "infinite",
            "renounceRole(bytes32)": "infinite",
            "revokeRole(bytes32,uint256)": "infinite",
            "rules()": "infinite",
            "setDirectKeeper(address)": "infinite",
            "setGeneralCounsel(uint256)": "infinite",
            "setOwner(uint256)": "infinite",
            "setRoleAdmin(bytes32,uint256)": "infinite",
            "setSigDeadline(bool,uint48)": "infinite",
            "signDoc(bool,uint256,bytes32)": "infinite",
            "termIsExempted(uint256,address,uint256)": "infinite",
            "termIsTriggered(uint256,address,uint256)": "infinite",
            "titles()": "infinite"
        }
    }
}