{
    "contractName": "ShareholdersAgreement",
    "abi": [
        {
            "anonymous": false,
            "inputs": [
                {
                    "indexed": false,
                    "internalType": "uint256",
                    "name": "owner",
                    "type": "uint256"
                },
                {
                    "indexed": false,
                    "internalType": "address",
                    "name": "directKeeper",
                    "type": "address"
                },
                {
                    "indexed": false,
                    "internalType": "address",
                    "name": "regCenter",
                    "type": "address"
                },
                {
                    "indexed": false,
                    "internalType": "address",
                    "name": "generalKeeper",
                    "type": "address"
                }
            ],
            "name": "Init",
            "type": "event"
        },
        {
            "anonymous": false,
            "inputs": [],
            "name": "LockContents",
            "type": "event"
        },
        {
            "anonymous": false,
            "inputs": [
                {
                    "indexed": false,
                    "internalType": "address",
                    "name": "keeper",
                    "type": "address"
                }
            ],
            "name": "SetDirectKeeper",
            "type": "event"
        },
        {
            "anonymous": false,
            "inputs": [
                {
                    "indexed": false,
                    "internalType": "uint256",
                    "name": "acct",
                    "type": "uint256"
                }
            ],
            "name": "SetGeneralCounsel",
            "type": "event"
        },
        {
            "anonymous": false,
            "inputs": [
                {
                    "indexed": false,
                    "internalType": "address",
                    "name": "gk",
                    "type": "address"
                }
            ],
            "name": "SetGeneralKeeper",
            "type": "event"
        },
        {
            "anonymous": false,
            "inputs": [
                {
                    "indexed": false,
                    "internalType": "uint256",
                    "name": "acct",
                    "type": "uint256"
                }
            ],
            "name": "SetOwner",
            "type": "event"
        },
        {
            "anonymous": false,
            "inputs": [
                {
                    "indexed": false,
                    "internalType": "address",
                    "name": "rc",
                    "type": "address"
                }
            ],
            "name": "SetRegCenter",
            "type": "event"
        },
        {
            "anonymous": false,
            "inputs": [
                {
                    "indexed": false,
                    "internalType": "bool",
                    "name": "initPage",
                    "type": "bool"
                },
                {
                    "indexed": false,
                    "internalType": "uint48",
                    "name": "SigDeadline",
                    "type": "uint48"
                }
            ],
            "name": "SetSigDeadline",
            "type": "event"
        },
        {
            "inputs": [
                {
                    "internalType": "bytes32",
                    "name": "role",
                    "type": "bytes32"
                }
            ],
            "name": "abandonRole",
            "outputs": [],
            "stateMutability": "nonpayable",
            "type": "function"
        },
        {
            "inputs": [
                {
                    "internalType": "bytes32",
                    "name": "rule",
                    "type": "bytes32"
                }
            ],
            "name": "addRule",
            "outputs": [],
            "stateMutability": "nonpayable",
            "type": "function"
        },
        {
            "inputs": [
                {
                    "internalType": "uint8",
                    "name": "title",
                    "type": "uint8"
                }
            ],
            "name": "createTerm",
            "outputs": [
                {
                    "internalType": "address",
                    "name": "body",
                    "type": "address"
                }
            ],
            "stateMutability": "nonpayable",
            "type": "function"
        },
        {
            "inputs": [],
            "name": "established",
            "outputs": [
                {
                    "internalType": "bool",
                    "name": "flag",
                    "type": "bool"
                }
            ],
            "stateMutability": "view",
            "type": "function"
        },
        {
            "inputs": [],
            "name": "finalizeTerms",
            "outputs": [],
            "stateMutability": "nonpayable",
            "type": "function"
        },
        {
            "inputs": [],
            "name": "finalized",
            "outputs": [
                {
                    "internalType": "bool",
                    "name": "",
                    "type": "bool"
                }
            ],
            "stateMutability": "view",
            "type": "function"
        },
        {
            "inputs": [],
            "name": "getBookeeper",
            "outputs": [
                {
                    "internalType": "address",
                    "name": "",
                    "type": "address"
                }
            ],
            "stateMutability": "view",
            "type": "function"
        },
        {
            "inputs": [
                {
                    "internalType": "bool",
                    "name": "initPage",
                    "type": "bool"
                }
            ],
            "name": "getBuyers",
            "outputs": [
                {
                    "internalType": "uint256[]",
                    "name": "buyers",
                    "type": "uint256[]"
                }
            ],
            "stateMutability": "view",
            "type": "function"
        },
        {
            "inputs": [],
            "name": "getGeneralCounsel",
            "outputs": [
                {
                    "internalType": "uint40",
                    "name": "",
                    "type": "uint40"
                }
            ],
            "stateMutability": "view",
            "type": "function"
        },
        {
            "inputs": [],
            "name": "getOwner",
            "outputs": [
                {
                    "internalType": "uint40",
                    "name": "",
                    "type": "uint40"
                }
            ],
            "stateMutability": "view",
            "type": "function"
        },
        {
            "inputs": [
                {
                    "internalType": "bool",
                    "name": "initPage",
                    "type": "bool"
                }
            ],
            "name": "getParasOfPage",
            "outputs": [
                {
                    "components": [
                        {
                            "internalType": "uint40",
                            "name": "signer",
                            "type": "uint40"
                        },
                        {
                            "internalType": "uint48",
                            "name": "sigDate",
                            "type": "uint48"
                        },
                        {
                            "internalType": "uint64",
                            "name": "blocknumber",
                            "type": "uint64"
                        },
                        {
                            "internalType": "bytes32",
                            "name": "sigHash",
                            "type": "bytes32"
                        }
                    ],
                    "internalType": "struct SigsRepo.Signature",
                    "name": "",
                    "type": "tuple"
                }
            ],
            "stateMutability": "view",
            "type": "function"
        },
        {
            "inputs": [
                {
                    "internalType": "uint256",
                    "name": "seq",
                    "type": "uint256"
                }
            ],
            "name": "getRule",
            "outputs": [
                {
                    "internalType": "bytes32",
                    "name": "",
                    "type": "bytes32"
                }
            ],
            "stateMutability": "view",
            "type": "function"
        },
        {
            "inputs": [
                {
                    "internalType": "bool",
                    "name": "initPage",
                    "type": "bool"
                }
            ],
            "name": "getSellers",
            "outputs": [
                {
                    "internalType": "uint256[]",
                    "name": "sellers",
                    "type": "uint256[]"
                }
            ],
            "stateMutability": "view",
            "type": "function"
        },
        {
            "inputs": [
                {
                    "internalType": "bool",
                    "name": "initPage",
                    "type": "bool"
                },
                {
                    "internalType": "uint256",
                    "name": "acct",
                    "type": "uint256"
                }
            ],
            "name": "getSigOfParty",
            "outputs": [
                {
                    "internalType": "uint256[]",
                    "name": "seqOfDeals",
                    "type": "uint256[]"
                },
                {
                    "components": [
                        {
                            "internalType": "uint40",
                            "name": "signer",
                            "type": "uint40"
                        },
                        {
                            "internalType": "uint48",
                            "name": "sigDate",
                            "type": "uint48"
                        },
                        {
                            "internalType": "uint64",
                            "name": "blocknumber",
                            "type": "uint64"
                        },
                        {
                            "internalType": "bytes32",
                            "name": "sigHash",
                            "type": "bytes32"
                        }
                    ],
                    "internalType": "struct SigsRepo.Signature",
                    "name": "sig",
                    "type": "tuple"
                }
            ],
            "stateMutability": "view",
            "type": "function"
        },
        {
            "inputs": [
                {
                    "internalType": "bool",
                    "name": "initPage",
                    "type": "bool"
                }
            ],
            "name": "getSigsOfPage",
            "outputs": [
                {
                    "components": [
                        {
                            "internalType": "uint40",
                            "name": "signer",
                            "type": "uint40"
                        },
                        {
                            "internalType": "uint48",
                            "name": "sigDate",
                            "type": "uint48"
                        },
                        {
                            "internalType": "uint64",
                            "name": "blocknumber",
                            "type": "uint64"
                        },
                        {
                            "internalType": "bytes32",
                            "name": "sigHash",
                            "type": "bytes32"
                        }
                    ],
                    "internalType": "struct SigsRepo.Signature[]",
                    "name": "sigsOfBuyer",
                    "type": "tuple[]"
                },
                {
                    "components": [
                        {
                            "internalType": "uint40",
                            "name": "signer",
                            "type": "uint40"
                        },
                        {
                            "internalType": "uint48",
                            "name": "sigDate",
                            "type": "uint48"
                        },
                        {
                            "internalType": "uint64",
                            "name": "blocknumber",
                            "type": "uint64"
                        },
                        {
                            "internalType": "bytes32",
                            "name": "sigHash",
                            "type": "bytes32"
                        }
                    ],
                    "internalType": "struct SigsRepo.Signature[]",
                    "name": "sigsOfSeller",
                    "type": "tuple[]"
                }
            ],
            "stateMutability": "view",
            "type": "function"
        },
        {
            "inputs": [
                {
                    "internalType": "uint256",
                    "name": "title",
                    "type": "uint256"
                }
            ],
            "name": "getTerm",
            "outputs": [
                {
                    "internalType": "address",
                    "name": "",
                    "type": "address"
                }
            ],
            "stateMutability": "view",
            "type": "function"
        },
        {
            "inputs": [
                {
                    "internalType": "bytes32",
                    "name": "role",
                    "type": "bytes32"
                },
                {
                    "internalType": "uint256",
                    "name": "acct",
                    "type": "uint256"
                }
            ],
            "name": "grantRole",
            "outputs": [],
            "stateMutability": "nonpayable",
            "type": "function"
        },
        {
            "inputs": [
                {
                    "internalType": "bytes32",
                    "name": "role",
                    "type": "bytes32"
                },
                {
                    "internalType": "uint256",
                    "name": "acct",
                    "type": "uint256"
                }
            ],
            "name": "hasRole",
            "outputs": [
                {
                    "internalType": "bool",
                    "name": "",
                    "type": "bool"
                }
            ],
            "stateMutability": "view",
            "type": "function"
        },
        {
            "inputs": [
                {
                    "internalType": "uint256",
                    "name": "seq",
                    "type": "uint256"
                }
            ],
            "name": "hasRule",
            "outputs": [
                {
                    "internalType": "bool",
                    "name": "",
                    "type": "bool"
                }
            ],
            "stateMutability": "view",
            "type": "function"
        },
        {
            "inputs": [
                {
                    "internalType": "uint256",
                    "name": "title",
                    "type": "uint256"
                }
            ],
            "name": "hasTitle",
            "outputs": [
                {
                    "internalType": "bool",
                    "name": "",
                    "type": "bool"
                }
            ],
            "stateMutability": "view",
            "type": "function"
        },
        {
            "inputs": [
                {
                    "internalType": "uint256",
                    "name": "owner",
                    "type": "uint256"
                },
                {
                    "internalType": "address",
                    "name": "directKeeper",
                    "type": "address"
                },
                {
                    "internalType": "address",
                    "name": "regCenter",
                    "type": "address"
                },
                {
                    "internalType": "address",
                    "name": "generalKeeper",
                    "type": "address"
                }
            ],
            "name": "init",
            "outputs": [],
            "stateMutability": "nonpayable",
            "type": "function"
        },
        {
            "inputs": [
                {
                    "internalType": "bool",
                    "name": "initPage",
                    "type": "bool"
                },
                {
                    "internalType": "uint256",
                    "name": "acct",
                    "type": "uint256"
                }
            ],
            "name": "isBuyer",
            "outputs": [
                {
                    "internalType": "bool",
                    "name": "flag",
                    "type": "bool"
                }
            ],
            "stateMutability": "view",
            "type": "function"
        },
        {
            "inputs": [
                {
                    "internalType": "bool",
                    "name": "initPage",
                    "type": "bool"
                },
                {
                    "internalType": "uint256",
                    "name": "acct",
                    "type": "uint256"
                }
            ],
            "name": "isParty",
            "outputs": [
                {
                    "internalType": "bool",
                    "name": "flag",
                    "type": "bool"
                }
            ],
            "stateMutability": "view",
            "type": "function"
        },
        {
            "inputs": [
                {
                    "internalType": "bool",
                    "name": "initPage",
                    "type": "bool"
                },
                {
                    "internalType": "uint256",
                    "name": "acct",
                    "type": "uint256"
                }
            ],
            "name": "isSeller",
            "outputs": [
                {
                    "internalType": "bool",
                    "name": "flag",
                    "type": "bool"
                }
            ],
            "stateMutability": "view",
            "type": "function"
        },
        {
            "inputs": [
                {
                    "internalType": "bool",
                    "name": "initPage",
                    "type": "bool"
                },
                {
                    "internalType": "uint256",
                    "name": "acct",
                    "type": "uint256"
                }
            ],
            "name": "isSigner",
            "outputs": [
                {
                    "internalType": "bool",
                    "name": "flag",
                    "type": "bool"
                }
            ],
            "stateMutability": "view",
            "type": "function"
        },
        {
            "inputs": [],
            "name": "lockContents",
            "outputs": [],
            "stateMutability": "nonpayable",
            "type": "function"
        },
        {
            "inputs": [],
            "name": "qtyOfRules",
            "outputs": [
                {
                    "internalType": "uint256",
                    "name": "",
                    "type": "uint256"
                }
            ],
            "stateMutability": "view",
            "type": "function"
        },
        {
            "inputs": [],
            "name": "qtyOfTerms",
            "outputs": [
                {
                    "internalType": "uint256",
                    "name": "",
                    "type": "uint256"
                }
            ],
            "stateMutability": "view",
            "type": "function"
        },
        {
            "inputs": [
                {
                    "internalType": "uint256",
                    "name": "seqOfDeal",
                    "type": "uint256"
                },
                {
                    "internalType": "uint256",
                    "name": "signer",
                    "type": "uint256"
                },
                {
                    "internalType": "uint48",
                    "name": "sigDate",
                    "type": "uint48"
                },
                {
                    "internalType": "bytes32",
                    "name": "sigHash",
                    "type": "bytes32"
                }
            ],
            "name": "regSig",
            "outputs": [
                {
                    "internalType": "bool",
                    "name": "flag",
                    "type": "bool"
                }
            ],
            "stateMutability": "nonpayable",
            "type": "function"
        },
        {
            "inputs": [
                {
                    "internalType": "uint256",
                    "name": "seq",
                    "type": "uint256"
                }
            ],
            "name": "removeRule",
            "outputs": [],
            "stateMutability": "nonpayable",
            "type": "function"
        },
        {
            "inputs": [
                {
                    "internalType": "uint8",
                    "name": "title",
                    "type": "uint8"
                }
            ],
            "name": "removeTerm",
            "outputs": [],
            "stateMutability": "nonpayable",
            "type": "function"
        },
        {
            "inputs": [
                {
                    "internalType": "bytes32",
                    "name": "role",
                    "type": "bytes32"
                }
            ],
            "name": "renounceRole",
            "outputs": [],
            "stateMutability": "nonpayable",
            "type": "function"
        },
        {
            "inputs": [
                {
                    "internalType": "bytes32",
                    "name": "role",
                    "type": "bytes32"
                },
                {
                    "internalType": "uint256",
                    "name": "acct",
                    "type": "uint256"
                }
            ],
            "name": "revokeRole",
            "outputs": [],
            "stateMutability": "nonpayable",
            "type": "function"
        },
        {
            "inputs": [],
            "name": "rules",
            "outputs": [
                {
                    "internalType": "uint256[]",
                    "name": "",
                    "type": "uint256[]"
                }
            ],
            "stateMutability": "view",
            "type": "function"
        },
        {
            "inputs": [
                {
                    "internalType": "address",
                    "name": "keeper",
                    "type": "address"
                }
            ],
            "name": "setDirectKeeper",
            "outputs": [],
            "stateMutability": "nonpayable",
            "type": "function"
        },
        {
            "inputs": [
                {
                    "internalType": "uint256",
                    "name": "acct",
                    "type": "uint256"
                }
            ],
            "name": "setGeneralCounsel",
            "outputs": [],
            "stateMutability": "nonpayable",
            "type": "function"
        },
        {
            "inputs": [
                {
                    "internalType": "uint256",
                    "name": "acct",
                    "type": "uint256"
                }
            ],
            "name": "setOwner",
            "outputs": [],
            "stateMutability": "nonpayable",
            "type": "function"
        },
        {
            "inputs": [
                {
                    "internalType": "bytes32",
                    "name": "role",
                    "type": "bytes32"
                },
                {
                    "internalType": "uint256",
                    "name": "acct",
                    "type": "uint256"
                }
            ],
            "name": "setRoleAdmin",
            "outputs": [],
            "stateMutability": "nonpayable",
            "type": "function"
        },
        {
            "inputs": [
                {
                    "internalType": "bool",
                    "name": "initPage",
                    "type": "bool"
                },
                {
                    "internalType": "uint48",
                    "name": "sigDeadline",
                    "type": "uint48"
                }
            ],
            "name": "setSigDeadline",
            "outputs": [],
            "stateMutability": "nonpayable",
            "type": "function"
        },
        {
            "inputs": [
                {
                    "internalType": "bool",
                    "name": "initPage",
                    "type": "bool"
                },
                {
                    "internalType": "uint256",
                    "name": "caller",
                    "type": "uint256"
                },
                {
                    "internalType": "bytes32",
                    "name": "sigHash",
                    "type": "bytes32"
                }
            ],
            "name": "signDoc",
            "outputs": [],
            "stateMutability": "nonpayable",
            "type": "function"
        },
        {
            "inputs": [
                {
                    "internalType": "uint256",
                    "name": "title",
                    "type": "uint256"
                },
                {
                    "internalType": "address",
                    "name": "ia",
                    "type": "address"
                },
                {
                    "internalType": "uint256",
                    "name": "snOfDeal",
                    "type": "uint256"
                }
            ],
            "name": "termIsExempted",
            "outputs": [
                {
                    "internalType": "bool",
                    "name": "",
                    "type": "bool"
                }
            ],
            "stateMutability": "view",
            "type": "function"
        },
        {
            "inputs": [
                {
                    "internalType": "uint256",
                    "name": "title",
                    "type": "uint256"
                },
                {
                    "internalType": "address",
                    "name": "ia",
                    "type": "address"
                },
                {
                    "internalType": "uint256",
                    "name": "snOfDeal",
                    "type": "uint256"
                }
            ],
            "name": "termIsTriggered",
            "outputs": [
                {
                    "internalType": "bool",
                    "name": "",
                    "type": "bool"
                }
            ],
            "stateMutability": "view",
            "type": "function"
        },
        {
            "inputs": [],
            "name": "titles",
            "outputs": [
                {
                    "internalType": "uint256[]",
                    "name": "",
                    "type": "uint256[]"
                }
            ],
            "stateMutability": "view",
            "type": "function"
        }
    ],
    "bytecode": "608060405234801561001057600080fd5b50613ad0806100206000396000f3fe608060405234801561001057600080fd5b50600436106102695760003560e01c80637e063c5a11610151578063bc3ffc70116100c3578063d70da38b11610087578063d70da38b14610582578063dc890da914610595578063eb1a79f4146105a8578063ed211023146105bb578063f045a769146105c3578063f2724eb2146105cb57600080fd5b8063bc3ffc701461052c578063cb2123e414610534578063ccb2f41514610547578063cd75bd3f14610567578063d0c504b01461057a57600080fd5b8063a959c69c11610115578063a959c69c146104c4578063a9acd944146104d7578063ac067843146104df578063b1152335146104f2578063b3f05b9714610505578063b71754c71461051957600080fd5b80637e063c5a1461047b5780638041494e1461048e578063893d20e8146104a15780638969d43a146104a95780638bb9c5bf146104b157600080fd5b80633da9a600116101ea5780635171ebd4116101ae5780635171ebd41461040757806351b171a31461041a57806352f6747a1461042d5780635d24f35b146104425780636be8496f14610455578063717654491461046857600080fd5b80633da9a60014610398578063460a0d0b146103ab5780634844f541146103be57806348462037146103c65780634a14beb1146103f457600080fd5b806325abe7901161023157806325abe790146102df5780632e4c9cd5146103005780633436731314610313578063346ba94114610334578063379ef4a61461037557600080fd5b806305ee77351461026e578063103f6edd146102835780631958ac5a146102a657806319d61ad9146102b95780631b6ea9f9146102cc575b600080fd5b61028161027c366004612fcb565b6105de565b005b61028b61075c565b60405164ffffffffff90911681526020015b60405180910390f35b6102816102b4366004612ff2565b6107e8565b6102816102c7366004613027565b610986565b6102816102da366004613027565b610a1a565b6102f26102ed366004613049565b610a3f565b60405161029d9291906130ea565b61028161030e366004613123565b610af1565b61032661032136600461315c565b610cf4565b60405161029d9291906131b8565b61035d610342366004612fcb565b6000908152600e60205260409020546001600160a01b031690565b6040516001600160a01b03909116815260200161029d565b610388610383366004612fcb565b610dd3565b604051901515815260200161029d565b6102816103a6366004612fcb565b610e67565b6103886103b936600461315c565b610f79565b610388610f9c565b6103e66103d4366004612fcb565b60009081526011602052604090205490565b60405190815260200161029d565b610281610402366004612fcb565b61116d565b610281610415366004613027565b61135d565b61038861042836600461315c565b611382565b6104356114a4565b60405161029d91906131da565b610388610450366004613202565b61152f565b61028161046336600461323a565b61167d565b610388610476366004612fcb565b61172f565b610388610489366004613027565b611771565b61028161049c366004612fcb565b6117ba565b61028b61199f565b6102816119da565b6102816104bf366004612fcb565b611c35565b6104356104d2366004613049565b611c8e565b610435611daa565b6103886104ed366004613202565b611de5565b61038861050036600461315c565b611e56565b60028054600160f01b900460ff1614610388565b61035d610527366004613266565b611edb565b6103e66122e7565b61038861054236600461315c565b61236e565b61055a610555366004613049565b6123f2565b60405161029d9190613283565b610281610575366004613266565b6124ca565b6103e661264c565b610281610590366004612fcb565b612687565b6102816105a3366004613291565b6127f7565b6103886105b63660046132e4565b6128da565b61035d612a45565b610281612acb565b6104356105d9366004613049565b612ce9565b73__$364aad554dc80380f414546becdd2c1584$__63a8ef95ac6002684174746f726e65797360b81b61060f612d60565b6040516001600160e01b031960e086901b1681526004810193909352602483019190915264ffffffffff16604482015260640160206040518083038186803b15801561065a57600080fd5b505af415801561066e573d6000803e3d6000fd5b505050506040513d601f19601f820116820180604052508101906106929190613323565b6106b75760405162461bcd60e51b81526004016106ae90613340565b60405180910390fd5b60f081901c60008181526011602052604090819020839055516392f13c3f60e01b8152601260048201526024810182905273__$8c1a4844a0a0988ea2454cf87145a95df1$__906392f13c3f9060440160206040518083038186803b15801561071f57600080fd5b505af4158015610733573d6000803e3d6000fd5b505050506040513d601f19601f820116820180604052508101906107579190613323565b505050565b60405163e8c0cc1d60e01b81526002600482015260009073__$364aad554dc80380f414546becdd2c1584$__9063e8c0cc1d906024015b60206040518083038186803b1580156107ab57600080fd5b505af41580156107bf573d6000803e3d6000fd5b505050506040513d601f19601f820116820180604052508101906107e39190613387565b905090565b6001546040516335d2155560e11b81523360048201526001600160a01b0390911690636ba42aaa9060240160206040518083038186803b15801561082b57600080fd5b505afa15801561083f573d6000803e3d6000fd5b505050506040513d601f19601f820116820180604052508101906108639190613323565b6108a35760405162461bcd60e51b815260206004820152601160248201527020a19737b59d103737ba1025b2b2b832b960791b60448201526064016106ae565b8215610940576040516368c2325360e01b8152600481810152602481018390526044810182905273__$47b88465a20692378cf12e8e0c338f01dd$__906368c23253906064015b60206040518083038186803b15801561090257600080fd5b505af4158015610916573d6000803e3d6000fd5b505050506040513d601f19601f8201168201806040525081019061093a9190613323565b50505050565b6040516368c2325360e01b815260096004820152602481018390526044810182905273__$47b88465a20692378cf12e8e0c338f01dd$__906368c23253906064016108ea565b73__$364aad554dc80380f414546becdd2c1584$__6382daafaa6002846109ab612d60565b6040516001600160e01b031960e086901b1681526004810193909352602483019190915264ffffffffff166044820152606481018490526084015b60006040518083038186803b1580156109fe57600080fd5b505af4158015610a12573d6000803e3d6000fd5b505050505050565b73__$364aad554dc80380f414546becdd2c1584$__636320d75e6002846109ab612d60565b6060808215610ae857600460005b6005020173__$47b88465a20692378cf12e8e0c338f01dd$__63c018ec8790916040518263ffffffff1660e01b8152600401610a8b91815260200190565b60006040518083038186803b158015610aa357600080fd5b505af4158015610ab7573d6000803e3d6000fd5b505050506040513d6000823e601f3d908101601f19168201604052610adf919081019061356f565b91509150915091565b60046001610a4d565b73__$364aad554dc80380f414546becdd2c1584$__63a8ef95ac6002684174746f726e65797360b81b610b22612d60565b6040516001600160e01b031960e086901b1681526004810193909352602483019190915264ffffffffff16604482015260640160206040518083038186803b158015610b6d57600080fd5b505af4158015610b81573d6000803e3d6000fd5b505050506040513d601f19601f82011682018060405250810190610ba59190613323565b610bc15760405162461bcd60e51b81526004016106ae90613340565b8115610c3c57604051635284fe6760e11b815260048181015265ffffffffffff8216602482015273__$47b88465a20692378cf12e8e0c338f01dd$__9063a509fcce9060440160006040518083038186803b158015610c1f57600080fd5b505af4158015610c33573d6000803e3d6000fd5b50505050610cae565b604051635284fe6760e11b81526009600482015265ffffffffffff8216602482015273__$47b88465a20692378cf12e8e0c338f01dd$__9063a509fcce9060440160006040518083038186803b158015610c9557600080fd5b505af4158015610ca9573d6000803e3d6000fd5b505050505b60408051831515815265ffffffffffff831660208201527f523844b7b23204192ed69d6efc62131f2a86a16ecf1326fd0084e459b31cb62d910160405180910390a15050565b604080516080810182526000808252602082018190529181018290526060818101929092528315610dc357600460005b604051630b5b0ad560e01b81526005919091029190910160048201526024810184905273__$47b88465a20692378cf12e8e0c338f01dd$__90630b5b0ad59060440160006040518083038186803b158015610d7e57600080fd5b505af4158015610d92573d6000803e3d6000fd5b505050506040513d6000823e601f3d908101601f19168201604052610dba919081019061362e565b91509150610dcc565b60046001610d24565b9250929050565b604051633f5f77cd60e01b8152601260048201526024810182905260009073__$8c1a4844a0a0988ea2454cf87145a95df1$__90633f5f77cd906044015b60206040518083038186803b158015610e2957600080fd5b505af4158015610e3d573d6000803e3d6000fd5b505050506040513d601f19601f82011682018060405250810190610e619190613323565b92915050565b604051633b11adbf60e21b81526002600482015233602482015273__$364aad554dc80380f414546becdd2c1584$__9063ec46b6fc9060440160206040518083038186803b158015610eb857600080fd5b505af4158015610ecc573d6000803e3d6000fd5b505050506040513d601f19601f82011682018060405250810190610ef09190613323565b610f0c5760405162461bcd60e51b81526004016106ae9061367d565b60405163cc99e11b60e01b8152600260048201526024810182905273__$364aad554dc80380f414546becdd2c1584$__9063cc99e11b9060440160006040518083038186803b158015610f5e57600080fd5b505af4158015610f72573d6000803e3d6000fd5b5050505050565b6000610f858383611e56565b80610f955750610f958383611382565b9392505050565b60405163c2b46a8560e01b8152600a6004820152600090819073__$8c1a4844a0a0988ea2454cf87145a95df1$__9063c2b46a859060240160206040518083038186803b158015610fec57600080fd5b505af4158015611000573d6000803e3d6000fd5b505050506040513d601f19601f8201168201806040525081019061102491906136c3565b116110ac576040516318a7841360e11b815260048181015273__$47b88465a20692378cf12e8e0c338f01dd$__9063314f0826906024015b60206040518083038186803b15801561107457600080fd5b505af4158015611088573d6000803e3d6000fd5b505050506040513d601f19601f820116820180604052508101906107e39190613323565b6040516318a7841360e11b81526009600482015273__$47b88465a20692378cf12e8e0c338f01dd$__9063314f08269060240160206040518083038186803b1580156110f757600080fd5b505af415801561110b573d6000803e3d6000fd5b505050506040513d601f19601f8201168201806040525081019061112f9190613323565b80156107e357506040516318a7841360e11b815260048181015273__$47b88465a20692378cf12e8e0c338f01dd$__9063314f08269060240161105c565b604051633b11adbf60e21b81526002600482015233602482015273__$364aad554dc80380f414546becdd2c1584$__9063ec46b6fc9060440160206040518083038186803b1580156111be57600080fd5b505af41580156111d2573d6000803e3d6000fd5b505050506040513d601f19601f820116820180604052508101906111f69190613323565b8061129b575073__$364aad554dc80380f414546becdd2c1584$__63fe2710866002611220612d60565b6040516001600160e01b031960e085901b168152600481019290925264ffffffffff16602482015260440160206040518083038186803b15801561126357600080fd5b505af4158015611277573d6000803e3d6000fd5b505050506040513d601f19601f8201168201806040525081019061129b9190613323565b6112b75760405162461bcd60e51b81526004016106ae906136dc565b604051632725ebef60e21b8152600260048201526024810182905273__$364aad554dc80380f414546becdd2c1584$__90639c97afbc9060440160006040518083038186803b15801561130957600080fd5b505af415801561131d573d6000803e3d6000fd5b505050507ff2735f34b69be1e6342dea95f9162f84d0db925fab655ca9f1f312ac8cbfc99d8160405161135291815260200190565b60405180910390a150565b73__$364aad554dc80380f414546becdd2c1584$__63ee98b3136002846109ab612d60565b60008261141957604051633f5f77cd60e01b8152600c60048201526024810183905273__$8c1a4844a0a0988ea2454cf87145a95df1$__90633f5f77cd906044015b60206040518083038186803b1580156113dc57600080fd5b505af41580156113f0573d6000803e3d6000fd5b505050506040513d601f19601f820116820180604052508101906114149190613323565b610f95565b604051633f5f77cd60e01b8152600760048201526024810183905273__$8c1a4844a0a0988ea2454cf87145a95df1$__90633f5f77cd906044015b60206040518083038186803b15801561146c57600080fd5b505af4158015611480573d6000803e3d6000fd5b505050506040513d601f19601f82011682018060405250810190610f959190613323565b60405163034306e160e21b81526012600482015260609073__$8c1a4844a0a0988ea2454cf87145a95df1$__90630d0c1b84906024015b60006040518083038186803b1580156114f357600080fd5b505af4158015611507573d6000803e3d6000fd5b505050506040513d6000823e601f3d908101601f191682016040526107e39190810190613732565b60008361153b8161172f565b6115575760405162461bcd60e51b81526004016106ae9061376f565b611562858585611de5565b61156f5760019150611675565b6000858152600e6020526040908190205490516320bf56eb60e21b8152600481018590526001600160a01b039182169163bab3f7369187918216906382fd5bac906024015b6101c06040518083038186803b1580156115cd57600080fd5b505afa1580156115e1573d6000803e3d6000fd5b505050506040513d601f19601f82011682018060405250810190611605919061384c565b6040518363ffffffff1660e01b8152600401611622929190613940565b60206040518083038186803b15801561163a57600080fd5b505afa15801561164e573d6000803e3d6000fd5b505050506040513d601f19601f820116820180604052508101906116729190613323565b91505b509392505050565b604051630f07232560e01b8152600260048201523360248201526001600160a01b038216604482015273__$364aad554dc80380f414546becdd2c1584$__90630f0723259060640160006040518083038186803b1580156116dd57600080fd5b505af41580156116f1573d6000803e3d6000fd5b50506040516001600160a01b03841681527fe435cbeab64e4eae6497b9d8289704bd709d624a80704ef3ca9af777534bc6ec92506020019050611352565b604051633f5f77cd60e01b8152600f60048201526024810182905260009073__$8c1a4844a0a0988ea2454cf87145a95df1$__90633f5f77cd90604401610e11565b604051632a3be56b60e21b815260026004820152602481018390526044810182905260009073__$364aad554dc80380f414546becdd2c1584$__9063a8ef95ac90606401611454565b604051633b11adbf60e21b81526002600482015233602482015273__$364aad554dc80380f414546becdd2c1584$__9063ec46b6fc9060440160206040518083038186803b15801561180b57600080fd5b505af415801561181f573d6000803e3d6000fd5b505050506040513d601f19601f820116820180604052508101906118439190613323565b806118e8575073__$364aad554dc80380f414546becdd2c1584$__63fe271086600261186d612d60565b6040516001600160e01b031960e085901b168152600481019290925264ffffffffff16602482015260440160206040518083038186803b1580156118b057600080fd5b505af41580156118c4573d6000803e3d6000fd5b505050506040513d601f19601f820116820180604052508101906118e89190613323565b6119045760405162461bcd60e51b81526004016106ae906136dc565b60405163b6e38a2960e01b8152600260048201526024810182905273__$364aad554dc80380f414546becdd2c1584$__9063b6e38a299060440160006040518083038186803b15801561195657600080fd5b505af415801561196a573d6000803e3d6000fd5b505050507f8b6f40f36b4ae8cc5f55e895036457c43da4ab1f80f58c46f5ff0d72a650033b8160405161135291815260200190565b60405163987ad15360e01b81526002600482015260009073__$364aad554dc80380f414546becdd2c1584$__9063987ad15390602401610793565b604051633b11adbf60e21b81526002600482015233602482015273__$364aad554dc80380f414546becdd2c1584$__9063ec46b6fc9060440160206040518083038186803b158015611a2b57600080fd5b505af4158015611a3f573d6000803e3d6000fd5b505050506040513d601f19601f82011682018060405250810190611a639190613323565b611a7f5760405162461bcd60e51b81526004016106ae9061367d565b60405163c2b46a8560e01b8152600f600482015260009073__$8c1a4844a0a0988ea2454cf87145a95df1$__9063c2b46a859060240160206040518083038186803b158015611acd57600080fd5b505af4158015611ae1573d6000803e3d6000fd5b505050506040513d601f19601f82011682018060405250810190611b0591906136c3565b905060005b81811015611c2957604051630ef6982f60e41b8152600f600482015260248101829052600e9060009073__$8c1a4844a0a0988ea2454cf87145a95df1$__9063ef6982f09060440160206040518083038186803b158015611b6a57600080fd5b505af4158015611b7e573d6000803e3d6000fd5b505050506040513d601f19601f82011682018060405250810190611ba291906136c3565b815260200190815260200160002060009054906101000a90046001600160a01b03166001600160a01b031663f045a7696040518163ffffffff1660e01b8152600401600060405180830381600087803b158015611bfe57600080fd5b505af1158015611c12573d6000803e3d6000fd5b505050508080611c2190613a54565b915050611b0a565b50611c32612acb565b50565b6000611c3f612d60565b60405163cc0d511b60e01b8152600260048201526024810184905264ffffffffff8216604482015290915073__$364aad554dc80380f414546becdd2c1584$__9063cc0d511b906064016109e6565b606081611d225760405163034306e160e21b81526005600482015273__$8c1a4844a0a0988ea2454cf87145a95df1$__90630d0c1b84906024015b60006040518083038186803b158015611ce157600080fd5b505af4158015611cf5573d6000803e3d6000fd5b505050506040513d6000823e601f3d908101601f19168201604052611d1d9190810190613732565b610e61565b60405163034306e160e21b81526005600482015273__$8c1a4844a0a0988ea2454cf87145a95df1$__90630d0c1b84906024015b60006040518083038186803b158015611d6e57600080fd5b505af4158015611d82573d6000803e3d6000fd5b505050506040513d6000823e601f3d908101601f19168201604052610e619190810190613732565b60405163034306e160e21b8152600f600482015260609073__$8c1a4844a0a0988ea2454cf87145a95df1$__90630d0c1b84906024016114db565b600083611df18161172f565b611e0d5760405162461bcd60e51b81526004016106ae9061376f565b6000858152600e6020526040908190205490516320bf56eb60e21b8152600481018590526001600160a01b039182169163560328de9187918216906382fd5bac906024016115b4565b600082611e9c57604051633f5f77cd60e01b8152600a60048201526024810183905273__$8c1a4844a0a0988ea2454cf87145a95df1$__90633f5f77cd906044016113c4565b604051633f5f77cd60e01b8152600560048201526024810183905273__$8c1a4844a0a0988ea2454cf87145a95df1$__90633f5f77cd90604401611454565b600073__$364aad554dc80380f414546becdd2c1584$__6331a349c06002611f01612d60565b6040516001600160e01b031960e085901b168152600481019290925264ffffffffff16602482015260440160206040518083038186803b158015611f4457600080fd5b505af4158015611f58573d6000803e3d6000fd5b505050506040513d601f19601f82011682018060405250810190611f7c9190613323565b611fc85760405162461bcd60e51b815260206004820152601b60248201527f41432e6f67633a206e6f742067656e6572616c20636f756e73656c000000000060448201526064016106ae565b81611fd1612dba565b604051634523206d60e11b815260ff831660048201526001600160a01b039190911690638a4640da9060240160206040518083038186803b15801561201557600080fd5b505afa158015612029573d6000803e3d6000fd5b505050506040513d601f19601f8201168201806040525081019061204d9190613323565b6120a55760405162461bcd60e51b8152602060048201526024808201527f5348412e74656d705265616479466f723a2054656d706c617465204e4f5420726044820152636561647960e01b60648201526084016106ae565b6121316120b0612dba565b604051631ce3b0eb60e31b815260ff861660048201526001600160a01b03919091169063e71d87589060240160206040518083038186803b1580156120f457600080fd5b505afa158015612108573d6000803e3d6000fd5b505050506040513d601f19601f8201168201806040525081019061212c9190613a7d565b612e13565b9150600061213d61199f565b9050600061214961075c565b60005460015460405163dc890da960e01b815264ffffffffff861660048201523060248201526001600160a01b039283166044820152908216606482015291925085169063dc890da990608401600060405180830381600087803b1580156121b057600080fd5b505af11580156121c4573d6000803e3d6000fd5b5050604051634a14beb160e01b815264ffffffffff841660048201526001600160a01b0387169250634a14beb19150602401600060405180830381600087803b15801561221057600080fd5b505af1158015612224573d6000803e3d6000fd5b5050505060ff85166000818152600e60205260409081902080546001600160a01b0319166001600160a01b038816179055516392f13c3f60e01b8152600f6004820152602481019190915273__$8c1a4844a0a0988ea2454cf87145a95df1$__906392f13c3f9060440160206040518083038186803b1580156122a657600080fd5b505af41580156122ba573d6000803e3d6000fd5b505050506040513d601f19601f820116820180604052508101906122de9190613323565b50505050919050565b60405163c2b46a8560e01b8152600f600482015260009073__$8c1a4844a0a0988ea2454cf87145a95df1$__9063c2b46a85906024015b60206040518083038186803b15801561233657600080fd5b505af415801561234a573d6000803e3d6000fd5b505050506040513d601f19601f820116820180604052508101906107e391906136c3565b6000826123b4576040516324d431a360e01b8152600960048201526024810183905273__$47b88465a20692378cf12e8e0c338f01dd$__906324d431a3906044016113c4565b6040516324d431a360e01b81526004818101526024810183905273__$47b88465a20692378cf12e8e0c338f01dd$__906324d431a390604401611454565b6040805160808101825260008082526020820181905291810182905260608101919091528161244a576000805260096020527fec8156718a8372b1db44bb411437d0870f3e3790d4a08526d024ce1b0b668f6d612475565b6000805260046020527f17ef568e3e12ab5b9c7254a8d58478811de00f9e6eb34345acd53bf8fd09d3ee5b60408051608081018252825464ffffffffff8116825265010000000000810465ffffffffffff166020830152600160581b900467ffffffffffffffff1691810191909152600190910154606082015292915050565b73__$364aad554dc80380f414546becdd2c1584$__63a8ef95ac6002684174746f726e65797360b81b6124fb612d60565b6040516001600160e01b031960e086901b1681526004810193909352602483019190915264ffffffffff16604482015260640160206040518083038186803b15801561254657600080fd5b505af415801561255a573d6000803e3d6000fd5b505050506040513d601f19601f8201168201806040525081019061257e9190613323565b61259a5760405162461bcd60e51b81526004016106ae90613340565b6040516392fd02df60e01b8152600f600482015260ff8216602482015273__$8c1a4844a0a0988ea2454cf87145a95df1$__906392fd02df9060440160206040518083038186803b1580156125ee57600080fd5b505af4158015612602573d6000803e3d6000fd5b505050506040513d601f19601f820116820180604052508101906126269190613323565b15611c325760ff166000908152600e6020526040902080546001600160a01b0319169055565b60405163c2b46a8560e01b81526012600482015260009073__$8c1a4844a0a0988ea2454cf87145a95df1$__9063c2b46a859060240161231e565b73__$364aad554dc80380f414546becdd2c1584$__63a8ef95ac6002684174746f726e65797360b81b6126b8612d60565b6040516001600160e01b031960e086901b1681526004810193909352602483019190915264ffffffffff16604482015260640160206040518083038186803b15801561270357600080fd5b505af4158015612717573d6000803e3d6000fd5b505050506040513d601f19601f8201168201806040525081019061273b9190613323565b6127575760405162461bcd60e51b81526004016106ae90613340565b6040516392fd02df60e01b8152601260048201526024810182905273__$8c1a4844a0a0988ea2454cf87145a95df1$__906392fd02df9060440160206040518083038186803b1580156127a957600080fd5b505af41580156127bd573d6000803e3d6000fd5b505050506040513d601f19601f820116820180604052508101906127e19190613323565b15611c3257600090815260116020526040812055565b61280082612e65565b61280981612f14565b604051636cdd0edf60e11b815260026004820152602481018590526001600160a01b038416604482015273__$364aad554dc80380f414546becdd2c1584$__9063d9ba1dbe9060640160006040518083038186803b15801561286a57600080fd5b505af415801561287e573d6000803e3d6000fd5b5050604080518781526001600160a01b038781166020830152868116828401528516606082015290517f3abb2418c66fe32ba9c883030a75ce583971d9af9192b9b74e44e67c5e6c8c1f9350908190036080019150a150505050565b6001546040516335d2155560e11b81523360048201526000916001600160a01b031690636ba42aaa9060240160206040518083038186803b15801561291e57600080fd5b505afa158015612932573d6000803e3d6000fd5b505050506040513d601f19601f820116820180604052508101906129569190613323565b6129965760405162461bcd60e51b815260206004820152601160248201527020a19737b59d103737ba1025b2b2b832b960791b60448201526064016106ae565b60405163031559a160e01b815260096004820152602481018690526044810185905265ffffffffffff841660648201526084810183905273__$47b88465a20692378cf12e8e0c338f01dd$__9063031559a19060a40160206040518083038186803b158015612a0457600080fd5b505af4158015612a18573d6000803e3d6000fd5b505050506040513d601f19601f82011682018060405250810190612a3c9190613323565b95945050505050565b604051633c3e56c160e11b81526002600482015260009073__$364aad554dc80380f414546becdd2c1584$__9063787cad829060240160206040518083038186803b158015612a9357600080fd5b505af4158015612aa7573d6000803e3d6000fd5b505050506040513d601f19601f820116820180604052508101906107e39190613a7d565b604051633b11adbf60e21b81526002600482015233602482015273__$364aad554dc80380f414546becdd2c1584$__9063ec46b6fc9060440160206040518083038186803b158015612b1c57600080fd5b505af4158015612b30573d6000803e3d6000fd5b505050506040513d601f19601f82011682018060405250810190612b549190613323565b612b705760405162461bcd60e51b81526004016106ae9061367d565b600254600160f01b900460ff16600114612bcc5760405162461bcd60e51b815260206004820181905260248201527f41432e6f6e6c7950656e64696e673a20446f632069732066696e616c697a656460448201526064016106ae565b60405163cc99e11b60e01b815260026004820152684174746f726e65797360b81b602482015273__$364aad554dc80380f414546becdd2c1584$__9063cc99e11b9060440160006040518083038186803b158015612c2957600080fd5b505af4158015612c3d573d6000803e3d6000fd5b5050604051632725ebef60e21b8152600260048201526000602482015273__$364aad554dc80380f414546becdd2c1584$__9250639c97afbc915060440160006040518083038186803b158015612c9357600080fd5b505af4158015612ca7573d6000803e3d6000fd5b50506002805460ff60f01b1916600160f11b17905550506040517f35012b512309c322acf68632cd6cb702ff0e1d776fbe9394e38ffc13b434fe7590600090a1565b606081612d285760405163034306e160e21b8152600c600482015273__$8c1a4844a0a0988ea2454cf87145a95df1$__90630d0c1b8490602401611cc9565b60405163034306e160e21b81526007600482015273__$8c1a4844a0a0988ea2454cf87145a95df1$__90630d0c1b8490602401611d56565b60008054604051634de835e760e11b81523360048201526001600160a01b0390911690639bd06bce90602401602060405180830381600087803b158015612da657600080fd5b505af11580156107bf573d6000803e3d6000fd5b60015460405163e0ff5b8b60e01b8152600360048201526000916001600160a01b03169063e0ff5b8b9060240160206040518083038186803b158015612dff57600080fd5b505afa158015612aa7573d6000803e3d6000fd5b6000808260601b9050604051733d602d80600a3d3981f3363d3d373d3d3d363d7360601b81528160148201526e5af43d82803e903d91602b57fd5bf360881b60288201526037816000f0949350505050565b6000546001600160a01b031615612eb65760405162461bcd60e51b815260206004820152601560248201527430b63932b0b23c9039b2ba103932b3a1b2b73a32b960591b60448201526064016106ae565b6040516001600160a01b03821681527f318da6c7624c71cbc0afe346c9d8827f119d0ecefb241a7b0c87217a076a8e029060200160405180910390a1600080546001600160a01b0319166001600160a01b0392909216919091179055565b6001546001600160a01b031615612f6d5760405162461bcd60e51b815260206004820152601960248201527f616c7265616479207365742067656e6572616c4b65657065720000000000000060448201526064016106ae565b6040516001600160a01b03821681527fe513d3e0f0d0a3877029dcc588748679a7a3450ec1ec7ed56d96bd012c3e61aa9060200160405180910390a1600180546001600160a01b0319166001600160a01b0392909216919091179055565b600060208284031215612fdd57600080fd5b5035919050565b8015158114611c3257600080fd5b60008060006060848603121561300757600080fd5b833561301281612fe4565b95602085013595506040909401359392505050565b6000806040838503121561303a57600080fd5b50508035926020909101359150565b60006020828403121561305b57600080fd5b8135610f9581612fe4565b64ffffffffff815116825265ffffffffffff602082015116602083015267ffffffffffffffff6040820151166040830152606081015160608301525050565b600081518084526020808501945080840160005b838110156130df576130cc878351613066565b60809690960195908201906001016130b9565b509495945050505050565b6040815260006130fd60408301856130a5565b828103602084015261167281856130a5565b65ffffffffffff81168114611c3257600080fd5b6000806040838503121561313657600080fd5b823561314181612fe4565b915060208301356131518161310f565b809150509250929050565b6000806040838503121561316f57600080fd5b823561317a81612fe4565b946020939093013593505050565b600081518084526020808501945080840160005b838110156130df5781518752958201959082019060010161319c565b60a0815260006131cb60a0830185613188565b9050610f956020830184613066565b602081526000610f956020830184613188565b6001600160a01b0381168114611c3257600080fd5b60008060006060848603121561321757600080fd5b833592506020840135613229816131ed565b929592945050506040919091013590565b60006020828403121561324c57600080fd5b8135610f95816131ed565b60ff81168114611c3257600080fd5b60006020828403121561327857600080fd5b8135610f9581613257565b60808101610e618284613066565b600080600080608085870312156132a757600080fd5b8435935060208501356132b9816131ed565b925060408501356132c9816131ed565b915060608501356132d9816131ed565b939692955090935050565b600080600080608085870312156132fa57600080fd5b843593506020850135925060408501356133138161310f565b9396929550929360600135925050565b60006020828403121561333557600080fd5b8151610f9581612fe4565b60208082526013908201527241432e6f743a206e6f74204174746f726e657960681b604082015260600190565b805164ffffffffff8116811461338257600080fd5b919050565b60006020828403121561339957600080fd5b610f958261336d565b634e487b7160e01b600052604160045260246000fd5b6040516080810167ffffffffffffffff811182821017156133db576133db6133a2565b60405290565b6040516060810167ffffffffffffffff811182821017156133db576133db6133a2565b604051610120810167ffffffffffffffff811182821017156133db576133db6133a2565b604051601f8201601f1916810167ffffffffffffffff81118282101715613451576134516133a2565b604052919050565b600067ffffffffffffffff821115613473576134736133a2565b5060051b60200190565b80516133828161310f565b805167ffffffffffffffff8116811461338257600080fd5b6000608082840312156134b257600080fd5b6134ba6133b8565b90506134c58261336d565b815260208201516134d58161310f565b60208201526134e660408301613488565b60408201526060820151606082015292915050565b600082601f83011261350c57600080fd5b8151602061352161351c83613459565b613428565b82815260079290921b8401810191818101908684111561354057600080fd5b8286015b848110156135645761355688826134a0565b835291830191608001613544565b509695505050505050565b6000806040838503121561358257600080fd5b825167ffffffffffffffff8082111561359a57600080fd5b6135a6868387016134fb565b935060208501519150808211156135bc57600080fd5b506135c9858286016134fb565b9150509250929050565b600082601f8301126135e457600080fd5b815160206135f461351c83613459565b82815260059290921b8401810191818101908684111561361357600080fd5b8286015b848110156135645780518352918301918301613617565b60008060a0838503121561364157600080fd5b825167ffffffffffffffff81111561365857600080fd5b613664858286016135d3565b92505061367484602085016134a0565b90509250929050565b60208082526026908201527f41432e6f6e6c794469726563744b65657065723a206e6f74206469726563742060408201526535b2b2b832b960d11b606082015260800190565b6000602082840312156136d557600080fd5b5051919050565b60208082526036908201527f41432e6f776e65724f72446972656374426f6f6b65657065723a206e6569746860408201527532b91037bbb732b9103737b9103137b7b5b2b2b832b960511b606082015260800190565b60006020828403121561374457600080fd5b815167ffffffffffffffff81111561375b57600080fd5b613767848285016135d3565b949350505050565b6020808252602c908201527f5348412e7469746c6545786973743a2053484120646f6573206e6f742068617660408201526b652073756368207469746c6560a01b606082015260800190565b805161338281613257565b805161ffff8116811461338257600080fd5b805163ffffffff8116811461338257600080fd5b6000608082840312156137fe57600080fd5b6138066133b8565b90506138118261336d565b815261381f6020830161336d565b602082015261383060408301613488565b604082015261384160608301613488565b606082015292915050565b60008183036101c081121561386057600080fd5b6138686133e1565b6101208083121561387857600080fd5b613880613404565b925061388b856137bb565b8352613899602086016137c6565b60208401526138aa604086016137d8565b60408401526138bb6060860161336d565b60608401526138cc608086016137d8565b60808401526138dd60a086016137d8565b60a08401526138ee60c086016137d8565b60c08401526138ff60e0860161347d565b60e08401526101006139128187016137bb565b90840152828252613925868683016137ec565b6020830152506101a093909301516040840152509092915050565b60006101e08201905060018060a01b0384168252825160ff815116602084015261ffff60208201511660408401526040810151613985606085018263ffffffff169052565b50606081015164ffffffffff8116608085015250608081015163ffffffff811660a08501525060a081015163ffffffff811660c08501525060c081015163ffffffff811660e08501525060e08101516101006139ea8186018365ffffffffffff169052565b919091015160ff1661012084015250602083810151805164ffffffffff9081166101408601529181015190911661016084015260408082015167ffffffffffffffff9081166101808601526060909201519091166101a0840152909201516101c090910152919050565b6000600019821415613a7657634e487b7160e01b600052601160045260246000fd5b5060010190565b600060208284031215613a8f57600080fd5b8151610f95816131ed56fea26469706673582212202a3363aa034c01bb8ee1b43e8cca8816a02a13eea9d7321788daf468094fe62c64736f6c63430008080033",
    "sourcePath": "/Users/kaptain/github.com/hardhat/comboox/contracts/books/boh/ShareholdersAgreement.sol",
    "compiler": {
        "name": "solc",
        "version": "0.8.8+commit.dddeac2f"
    },
    "functionHashes": {
        "abandonRole(bytes32)": "3da9a600",
        "addRule(bytes32)": "05ee7735",
        "createTerm(uint8)": "b71754c7",
        "established()": "4844f541",
        "finalizeTerms()": "8969d43a",
        "finalized()": "b3f05b97",
        "getBookeeper()": "ed211023",
        "getBuyers(bool)": "a959c69c",
        "getGeneralCounsel()": "103f6edd",
        "getOwner()": "893d20e8",
        "getParasOfPage(bool)": "ccb2f415",
        "getRule(uint256)": "48462037",
        "getSellers(bool)": "f2724eb2",
        "getSigOfParty(bool,uint256)": "34367313",
        "getSigsOfPage(bool)": "25abe790",
        "getTerm(uint256)": "346ba941",
        "grantRole(bytes32,uint256)": "1b6ea9f9",
        "hasRole(bytes32,uint256)": "7e063c5a",
        "hasRule(uint256)": "379ef4a6",
        "hasTitle(uint256)": "71765449",
        "init(uint256,address,address,address)": "dc890da9",
        "isBuyer(bool,uint256)": "b1152335",
        "isParty(bool,uint256)": "460a0d0b",
        "isSeller(bool,uint256)": "51b171a3",
        "isSigner(bool,uint256)": "cb2123e4",
        "lockContents()": "f045a769",
        "qtyOfRules()": "d0c504b0",
        "qtyOfTerms()": "bc3ffc70",
        "regSig(uint256,uint256,uint48,bytes32)": "eb1a79f4",
        "removeRule(uint256)": "d70da38b",
        "removeTerm(uint8)": "cd75bd3f",
        "renounceRole(bytes32)": "8bb9c5bf",
        "revokeRole(bytes32,uint256)": "19d61ad9",
        "rules()": "52f6747a",
        "setDirectKeeper(address)": "6be8496f",
        "setGeneralCounsel(uint256)": "4a14beb1",
        "setOwner(uint256)": "8041494e",
        "setRoleAdmin(bytes32,uint256)": "5171ebd4",
        "setSigDeadline(bool,uint48)": "2e4c9cd5",
        "signDoc(bool,uint256,bytes32)": "1958ac5a",
        "termIsExempted(uint256,address,uint256)": "5d24f35b",
        "termIsTriggered(uint256,address,uint256)": "ac067843",
        "titles()": "a9acd944"
    },
    "gasEstimates": {
        "creation": {
            "codeDepositCost": "3011200",
            "executionCost": "3310",
            "totalCost": "3014510"
        },
        "external": {
            "abandonRole(bytes32)": "infinite",
            "addRule(bytes32)": "infinite",
            "createTerm(uint8)": "infinite",
            "established()": "infinite",
            "finalizeTerms()": "infinite",
            "finalized()": "2460",
            "getBookeeper()": "infinite",
            "getBuyers(bool)": "infinite",
            "getGeneralCounsel()": "infinite",
            "getOwner()": "infinite",
            "getParasOfPage(bool)": "5112",
            "getRule(uint256)": "2550",
            "getSellers(bool)": "infinite",
            "getSigOfParty(bool,uint256)": "infinite",
            "getSigsOfPage(bool)": "infinite",
            "getTerm(uint256)": "2589",
            "grantRole(bytes32,uint256)": "infinite",
            "hasRole(bytes32,uint256)": "infinite",
            "hasRule(uint256)": "infinite",
            "hasTitle(uint256)": "infinite",
            "init(uint256,address,address,address)": "infinite",
            "isBuyer(bool,uint256)": "infinite",
            "isParty(bool,uint256)": "infinite",
            "isSeller(bool,uint256)": "infinite",
            "isSigner(bool,uint256)": "infinite",
            "lockContents()": "infinite",
            "qtyOfRules()": "infinite",
            "qtyOfTerms()": "infinite",
            "regSig(uint256,uint256,uint48,bytes32)": "infinite",
            "removeRule(uint256)": "infinite",
            "removeTerm(uint8)": "infinite",
            "renounceRole(bytes32)": "infinite",
            "revokeRole(bytes32,uint256)": "infinite",
            "rules()": "infinite",
            "setDirectKeeper(address)": "infinite",
            "setGeneralCounsel(uint256)": "infinite",
            "setOwner(uint256)": "infinite",
            "setRoleAdmin(bytes32,uint256)": "infinite",
            "setSigDeadline(bool,uint48)": "infinite",
            "signDoc(bool,uint256,bytes32)": "infinite",
            "termIsExempted(uint256,address,uint256)": "infinite",
            "termIsTriggered(uint256,address,uint256)": "infinite",
            "titles()": "infinite"
        }
    }
}