{
    "contractName": "ShareholdersAgreement",
    "abi": [
        {
            "anonymous": false,
            "inputs": [
                {
                    "indexed": false,
                    "internalType": "uint256",
                    "name": "owner",
                    "type": "uint256"
                },
                {
                    "indexed": false,
                    "internalType": "address",
                    "name": "directKeeper",
                    "type": "address"
                },
                {
                    "indexed": false,
                    "internalType": "address",
                    "name": "regCenter",
                    "type": "address"
                },
                {
                    "indexed": false,
                    "internalType": "address",
                    "name": "generalKeeper",
                    "type": "address"
                }
            ],
            "name": "Init",
            "type": "event"
        },
        {
            "anonymous": false,
            "inputs": [],
            "name": "LockContents",
            "type": "event"
        },
        {
            "anonymous": false,
            "inputs": [
                {
                    "indexed": false,
                    "internalType": "address",
                    "name": "keeper",
                    "type": "address"
                }
            ],
            "name": "SetDirectKeeper",
            "type": "event"
        },
        {
            "anonymous": false,
            "inputs": [
                {
                    "indexed": false,
                    "internalType": "uint256",
                    "name": "acct",
                    "type": "uint256"
                }
            ],
            "name": "SetGeneralCounsel",
            "type": "event"
        },
        {
            "anonymous": false,
            "inputs": [
                {
                    "indexed": false,
                    "internalType": "address",
                    "name": "gk",
                    "type": "address"
                }
            ],
            "name": "SetGeneralKeeper",
            "type": "event"
        },
        {
            "anonymous": false,
            "inputs": [
                {
                    "indexed": false,
                    "internalType": "uint256",
                    "name": "acct",
                    "type": "uint256"
                }
            ],
            "name": "SetOwner",
            "type": "event"
        },
        {
            "anonymous": false,
            "inputs": [
                {
                    "indexed": false,
                    "internalType": "uint48",
                    "name": "SigDeadline",
                    "type": "uint48"
                },
                {
                    "indexed": false,
                    "internalType": "uint48",
                    "name": "ClosingDeadline",
                    "type": "uint48"
                }
            ],
            "name": "SetParasOfDoc",
            "type": "event"
        },
        {
            "anonymous": false,
            "inputs": [
                {
                    "indexed": false,
                    "internalType": "address",
                    "name": "rc",
                    "type": "address"
                }
            ],
            "name": "SetRegCenter",
            "type": "event"
        },
        {
            "inputs": [
                {
                    "internalType": "bytes32",
                    "name": "role",
                    "type": "bytes32"
                }
            ],
            "name": "abandonRole",
            "outputs": [],
            "stateMutability": "nonpayable",
            "type": "function"
        },
        {
            "inputs": [
                {
                    "internalType": "bytes32",
                    "name": "rule",
                    "type": "bytes32"
                }
            ],
            "name": "addRule",
            "outputs": [],
            "stateMutability": "nonpayable",
            "type": "function"
        },
        {
            "inputs": [
                {
                    "internalType": "uint8",
                    "name": "title",
                    "type": "uint8"
                }
            ],
            "name": "createTerm",
            "outputs": [
                {
                    "internalType": "address",
                    "name": "body",
                    "type": "address"
                }
            ],
            "stateMutability": "nonpayable",
            "type": "function"
        },
        {
            "inputs": [],
            "name": "established",
            "outputs": [
                {
                    "internalType": "bool",
                    "name": "flag",
                    "type": "bool"
                }
            ],
            "stateMutability": "view",
            "type": "function"
        },
        {
            "inputs": [],
            "name": "finalizeTerms",
            "outputs": [],
            "stateMutability": "nonpayable",
            "type": "function"
        },
        {
            "inputs": [],
            "name": "finalized",
            "outputs": [
                {
                    "internalType": "bool",
                    "name": "",
                    "type": "bool"
                }
            ],
            "stateMutability": "view",
            "type": "function"
        },
        {
            "inputs": [],
            "name": "getBookeeper",
            "outputs": [
                {
                    "internalType": "address",
                    "name": "",
                    "type": "address"
                }
            ],
            "stateMutability": "view",
            "type": "function"
        },
        {
            "inputs": [],
            "name": "getGeneralCounsel",
            "outputs": [
                {
                    "internalType": "uint40",
                    "name": "",
                    "type": "uint40"
                }
            ],
            "stateMutability": "view",
            "type": "function"
        },
        {
            "inputs": [],
            "name": "getOwner",
            "outputs": [
                {
                    "internalType": "uint40",
                    "name": "",
                    "type": "uint40"
                }
            ],
            "stateMutability": "view",
            "type": "function"
        },
        {
            "inputs": [
                {
                    "internalType": "uint256",
                    "name": "seq",
                    "type": "uint256"
                }
            ],
            "name": "getRule",
            "outputs": [
                {
                    "internalType": "bytes32",
                    "name": "",
                    "type": "bytes32"
                }
            ],
            "stateMutability": "view",
            "type": "function"
        },
        {
            "inputs": [
                {
                    "internalType": "uint256",
                    "name": "title",
                    "type": "uint256"
                }
            ],
            "name": "getTerm",
            "outputs": [
                {
                    "internalType": "address",
                    "name": "",
                    "type": "address"
                }
            ],
            "stateMutability": "view",
            "type": "function"
        },
        {
            "inputs": [
                {
                    "internalType": "bytes32",
                    "name": "role",
                    "type": "bytes32"
                },
                {
                    "internalType": "uint256",
                    "name": "acct",
                    "type": "uint256"
                }
            ],
            "name": "grantRole",
            "outputs": [],
            "stateMutability": "nonpayable",
            "type": "function"
        },
        {
            "inputs": [
                {
                    "internalType": "bytes32",
                    "name": "role",
                    "type": "bytes32"
                },
                {
                    "internalType": "uint256",
                    "name": "acct",
                    "type": "uint256"
                }
            ],
            "name": "hasRole",
            "outputs": [
                {
                    "internalType": "bool",
                    "name": "",
                    "type": "bool"
                }
            ],
            "stateMutability": "view",
            "type": "function"
        },
        {
            "inputs": [
                {
                    "internalType": "uint256",
                    "name": "seq",
                    "type": "uint256"
                }
            ],
            "name": "hasRule",
            "outputs": [
                {
                    "internalType": "bool",
                    "name": "",
                    "type": "bool"
                }
            ],
            "stateMutability": "view",
            "type": "function"
        },
        {
            "inputs": [
                {
                    "internalType": "uint256",
                    "name": "title",
                    "type": "uint256"
                }
            ],
            "name": "hasTitle",
            "outputs": [
                {
                    "internalType": "bool",
                    "name": "",
                    "type": "bool"
                }
            ],
            "stateMutability": "view",
            "type": "function"
        },
        {
            "inputs": [
                {
                    "internalType": "uint256",
                    "name": "owner",
                    "type": "uint256"
                },
                {
                    "internalType": "address",
                    "name": "directKeeper",
                    "type": "address"
                },
                {
                    "internalType": "address",
                    "name": "regCenter",
                    "type": "address"
                },
                {
                    "internalType": "address",
                    "name": "generalKeeper",
                    "type": "address"
                }
            ],
            "name": "init",
            "outputs": [],
            "stateMutability": "nonpayable",
            "type": "function"
        },
        {
            "inputs": [
                {
                    "internalType": "uint256",
                    "name": "acct",
                    "type": "uint256"
                }
            ],
            "name": "isInitSigner",
            "outputs": [
                {
                    "internalType": "bool",
                    "name": "flag",
                    "type": "bool"
                }
            ],
            "stateMutability": "view",
            "type": "function"
        },
        {
            "inputs": [
                {
                    "internalType": "uint256",
                    "name": "acct",
                    "type": "uint256"
                }
            ],
            "name": "isParty",
            "outputs": [
                {
                    "internalType": "bool",
                    "name": "flag",
                    "type": "bool"
                }
            ],
            "stateMutability": "view",
            "type": "function"
        },
        {
            "inputs": [
                {
                    "internalType": "uint256",
                    "name": "acct",
                    "type": "uint256"
                }
            ],
            "name": "isSigner",
            "outputs": [
                {
                    "internalType": "bool",
                    "name": "flag",
                    "type": "bool"
                }
            ],
            "stateMutability": "view",
            "type": "function"
        },
        {
            "inputs": [],
            "name": "lockContents",
            "outputs": [],
            "stateMutability": "nonpayable",
            "type": "function"
        },
        {
            "inputs": [],
            "name": "parasOfPage",
            "outputs": [
                {
                    "components": [
                        {
                            "internalType": "uint40",
                            "name": "signer",
                            "type": "uint40"
                        },
                        {
                            "internalType": "uint48",
                            "name": "sigDate",
                            "type": "uint48"
                        },
                        {
                            "internalType": "uint64",
                            "name": "blocknumber",
                            "type": "uint64"
                        },
                        {
                            "internalType": "bytes32",
                            "name": "sigHash",
                            "type": "bytes32"
                        }
                    ],
                    "internalType": "struct SigsRepo.Signature",
                    "name": "",
                    "type": "tuple"
                }
            ],
            "stateMutability": "view",
            "type": "function"
        },
        {
            "inputs": [],
            "name": "partiesOfDoc",
            "outputs": [
                {
                    "internalType": "uint256[]",
                    "name": "",
                    "type": "uint256[]"
                }
            ],
            "stateMutability": "view",
            "type": "function"
        },
        {
            "inputs": [],
            "name": "qtyOfParties",
            "outputs": [
                {
                    "internalType": "uint256",
                    "name": "qty",
                    "type": "uint256"
                }
            ],
            "stateMutability": "view",
            "type": "function"
        },
        {
            "inputs": [],
            "name": "qtyOfRules",
            "outputs": [
                {
                    "internalType": "uint256",
                    "name": "",
                    "type": "uint256"
                }
            ],
            "stateMutability": "view",
            "type": "function"
        },
        {
            "inputs": [],
            "name": "qtyOfTerms",
            "outputs": [
                {
                    "internalType": "uint256",
                    "name": "",
                    "type": "uint256"
                }
            ],
            "stateMutability": "view",
            "type": "function"
        },
        {
            "inputs": [
                {
                    "internalType": "uint256",
                    "name": "seq",
                    "type": "uint256"
                }
            ],
            "name": "removeRule",
            "outputs": [],
            "stateMutability": "nonpayable",
            "type": "function"
        },
        {
            "inputs": [
                {
                    "internalType": "uint8",
                    "name": "title",
                    "type": "uint8"
                }
            ],
            "name": "removeTerm",
            "outputs": [],
            "stateMutability": "nonpayable",
            "type": "function"
        },
        {
            "inputs": [
                {
                    "internalType": "bytes32",
                    "name": "role",
                    "type": "bytes32"
                }
            ],
            "name": "renounceRole",
            "outputs": [],
            "stateMutability": "nonpayable",
            "type": "function"
        },
        {
            "inputs": [
                {
                    "internalType": "bytes32",
                    "name": "role",
                    "type": "bytes32"
                },
                {
                    "internalType": "uint256",
                    "name": "acct",
                    "type": "uint256"
                }
            ],
            "name": "revokeRole",
            "outputs": [],
            "stateMutability": "nonpayable",
            "type": "function"
        },
        {
            "inputs": [],
            "name": "rules",
            "outputs": [
                {
                    "internalType": "uint256[]",
                    "name": "",
                    "type": "uint256[]"
                }
            ],
            "stateMutability": "view",
            "type": "function"
        },
        {
            "inputs": [
                {
                    "internalType": "address",
                    "name": "keeper",
                    "type": "address"
                }
            ],
            "name": "setDirectKeeper",
            "outputs": [],
            "stateMutability": "nonpayable",
            "type": "function"
        },
        {
            "inputs": [
                {
                    "internalType": "uint256",
                    "name": "acct",
                    "type": "uint256"
                }
            ],
            "name": "setGeneralCounsel",
            "outputs": [],
            "stateMutability": "nonpayable",
            "type": "function"
        },
        {
            "inputs": [
                {
                    "internalType": "uint256",
                    "name": "acct",
                    "type": "uint256"
                }
            ],
            "name": "setOwner",
            "outputs": [],
            "stateMutability": "nonpayable",
            "type": "function"
        },
        {
            "inputs": [
                {
                    "internalType": "uint48",
                    "name": "sigDeadline",
                    "type": "uint48"
                },
                {
                    "internalType": "uint48",
                    "name": "closingDeadline",
                    "type": "uint48"
                }
            ],
            "name": "setParasOfDoc",
            "outputs": [],
            "stateMutability": "nonpayable",
            "type": "function"
        },
        {
            "inputs": [
                {
                    "internalType": "bytes32",
                    "name": "role",
                    "type": "bytes32"
                },
                {
                    "internalType": "uint256",
                    "name": "acct",
                    "type": "uint256"
                }
            ],
            "name": "setRoleAdmin",
            "outputs": [],
            "stateMutability": "nonpayable",
            "type": "function"
        },
        {
            "inputs": [
                {
                    "internalType": "bool",
                    "name": "initPage",
                    "type": "bool"
                },
                {
                    "internalType": "uint256",
                    "name": "acct",
                    "type": "uint256"
                }
            ],
            "name": "sigOfParty",
            "outputs": [
                {
                    "internalType": "uint256[]",
                    "name": "seqOfDeals",
                    "type": "uint256[]"
                },
                {
                    "components": [
                        {
                            "internalType": "uint40",
                            "name": "signer",
                            "type": "uint40"
                        },
                        {
                            "internalType": "uint48",
                            "name": "sigDate",
                            "type": "uint48"
                        },
                        {
                            "internalType": "uint64",
                            "name": "blocknumber",
                            "type": "uint64"
                        },
                        {
                            "internalType": "bytes32",
                            "name": "sigHash",
                            "type": "bytes32"
                        }
                    ],
                    "internalType": "struct SigsRepo.Signature",
                    "name": "sig",
                    "type": "tuple"
                }
            ],
            "stateMutability": "view",
            "type": "function"
        },
        {
            "inputs": [
                {
                    "internalType": "uint256",
                    "name": "caller",
                    "type": "uint256"
                },
                {
                    "internalType": "bytes32",
                    "name": "sigHash",
                    "type": "bytes32"
                }
            ],
            "name": "signDoc",
            "outputs": [],
            "stateMutability": "nonpayable",
            "type": "function"
        },
        {
            "inputs": [
                {
                    "internalType": "bool",
                    "name": "initPage",
                    "type": "bool"
                }
            ],
            "name": "sigsOfPage",
            "outputs": [
                {
                    "components": [
                        {
                            "internalType": "uint40",
                            "name": "signer",
                            "type": "uint40"
                        },
                        {
                            "internalType": "uint48",
                            "name": "sigDate",
                            "type": "uint48"
                        },
                        {
                            "internalType": "uint64",
                            "name": "blocknumber",
                            "type": "uint64"
                        },
                        {
                            "internalType": "bytes32",
                            "name": "sigHash",
                            "type": "bytes32"
                        }
                    ],
                    "internalType": "struct SigsRepo.Signature[]",
                    "name": "",
                    "type": "tuple[]"
                }
            ],
            "stateMutability": "view",
            "type": "function"
        },
        {
            "inputs": [
                {
                    "internalType": "uint256",
                    "name": "title",
                    "type": "uint256"
                },
                {
                    "internalType": "address",
                    "name": "ia",
                    "type": "address"
                },
                {
                    "internalType": "uint256",
                    "name": "snOfDeal",
                    "type": "uint256"
                }
            ],
            "name": "termIsExempted",
            "outputs": [
                {
                    "internalType": "bool",
                    "name": "",
                    "type": "bool"
                }
            ],
            "stateMutability": "view",
            "type": "function"
        },
        {
            "inputs": [
                {
                    "internalType": "uint256",
                    "name": "title",
                    "type": "uint256"
                },
                {
                    "internalType": "address",
                    "name": "ia",
                    "type": "address"
                },
                {
                    "internalType": "uint256",
                    "name": "snOfDeal",
                    "type": "uint256"
                }
            ],
            "name": "termIsTriggered",
            "outputs": [
                {
                    "internalType": "bool",
                    "name": "",
                    "type": "bool"
                }
            ],
            "stateMutability": "view",
            "type": "function"
        },
        {
            "inputs": [],
            "name": "titles",
            "outputs": [
                {
                    "internalType": "uint256[]",
                    "name": "",
                    "type": "uint256[]"
                }
            ],
            "stateMutability": "view",
            "type": "function"
        }
    ],
    "bytecode": "608060405234801561001057600080fd5b506134b2806100206000396000f3fe608060405234801561001057600080fd5b50600436106102535760003560e01c80637e063c5a11610146578063b3f05b97116100c3578063d0c504b011610087578063d0c504b0146105d6578063d70da38b146105de578063dc890da9146105f1578063ed21102314610604578063f045a7691461060c578063f8f71ca21461061457600080fd5b8063b3f05b9714610573578063b71754c714610587578063bc3ffc701461059a578063cd75bd3f146105a2578063ceeaae53146105b557600080fd5b80638c5f91701161010a5780638c5f91701461046957806392bd62641461047c5780639afa6aab1461048f578063a9acd94414610558578063ac0678431461056057600080fd5b80637e063c5a146104205780638041494e14610433578063893d20e8146104465780638969d43a1461044e5780638bb9c5bf1461045657600080fd5b80634844f541116101d45780635d24f35b116101985780635d24f35b146103c15780636be8496f146103d457806370dfbcf4146103e757806371765449146103fa5780637c5026ea1461040d57600080fd5b80634844f5411461036b57806348462037146103735780634a14beb1146103935780635171ebd4146103a657806352f6747a146103b957600080fd5b806328769ede1161021b57806328769ede146102cc5780632d8f651d146102ef578063346ba94114610304578063379ef4a6146103455780633da9a6001461035857600080fd5b80630597de521461025857806305ee773514610273578063103f6edd1461028857806319d61ad9146102a65780631b6ea9f9146102b9575b600080fd5b610260610634565b6040519081526020015b60405180910390f35b610286610281366004612d24565b61074c565b005b6102906108cb565b60405164ffffffffff909116815260200161026a565b6102866102b4366004612d3d565b610952565b6102866102c7366004612d3d565b6109e6565b6102df6102da366004612d24565b610a0b565b604051901515815260200161026a565b6102f7610b3b565b60405161026a9190612d9a565b61032d610312366004612d24565b6000908152600a60205260409020546001600160a01b031690565b6040516001600160a01b03909116815260200161026a565b6102df610353366004612d24565b610cd9565b610286610366366004612d24565b610d1b565b6102df610e2d565b610260610381366004612d24565b6000908152600d602052604090205490565b6102866103a1366004612d24565b610ffe565b6102866103b4366004612d3d565b6111ee565b6102f7611213565b6102df6103cf366004612dc2565b61124e565b6102866103e2366004612dfa565b61132b565b6102df6103f5366004612d24565b6113dd565b6102df610408366004612d24565b6113e7565b61028661041b366004612d3d565b611429565b6102df61042e366004612d3d565b61156d565b610286610441366004612d24565b611608565b6102906117ed565b610286611828565b610286610464366004612d24565b611a83565b6102df610477366004612d24565b611adc565b61028661048a366004612e2b565b611bae565b61054b604080516080808201835260008083526020808401829052838501829052606093840182905290805260048152835191820184527f17ef568e3e12ab5b9c7254a8d58478811de00f9e6eb34345acd53bf8fd09d3ee5464ffffffffff8116835265010000000000810465ffffffffffff1691830191909152600160581b900467ffffffffffffffff16928101929092527f17ef568e3e12ab5b9c7254a8d58478811de00f9e6eb34345acd53bf8fd09d3ef549082015290565b60405161026a9190612ea3565b6102f7611d3d565b6102df61056e366004612dc2565b611d78565b60028054600160f01b900460ff16146102df565b61032d610595366004612eb1565b611de6565b6102606121f2565b6102866105b0366004612eb1565b612279565b6105c86105c3366004612ee2565b6123fb565b60405161026a929190612f0e565b6102606124da565b6102866105ec366004612d24565b612515565b6102866105ff366004612f30565b612685565b61032d612768565b6102866127ee565b610627610622366004612f83565b612a0c565b60405161026a9190612fa0565b60405163c2b46a8560e01b81526008600482015260009073__$8c1a4844a0a0988ea2454cf87145a95df1$__9063c2b46a859060240160206040518083038186803b15801561068257600080fd5b505af4158015610696573d6000803e3d6000fd5b505050506040513d601f19601f820116820180604052508101906106ba9190612fee565b60405163c2b46a8560e01b81526005600482015273__$8c1a4844a0a0988ea2454cf87145a95df1$__9063c2b46a859060240160206040518083038186803b15801561070557600080fd5b505af4158015610719573d6000803e3d6000fd5b505050506040513d601f19601f8201168201806040525081019061073d9190612fee565b610747919061301d565b905090565b73__$364aad554dc80380f414546becdd2c1584$__63a8ef95ac6002684174746f726e65797360b81b61077d612ab9565b6040516001600160e01b031960e086901b1681526004810193909352602483019190915264ffffffffff16604482015260640160206040518083038186803b1580156107c857600080fd5b505af41580156107dc573d6000803e3d6000fd5b505050506040513d601f19601f820116820180604052508101906108009190613035565b6108255760405162461bcd60e51b815260040161081c90613052565b60405180910390fd5b60f081901c6000818152600d602052604090819020839055516392f13c3f60e01b8152600e60048201526024810182905273__$8c1a4844a0a0988ea2454cf87145a95df1$__906392f13c3f906044015b60206040518083038186803b15801561088e57600080fd5b505af41580156108a2573d6000803e3d6000fd5b505050506040513d601f19601f820116820180604052508101906108c69190613035565b505050565b60405163e8c0cc1d60e01b81526002600482015260009073__$364aad554dc80380f414546becdd2c1584$__9063e8c0cc1d906024015b60206040518083038186803b15801561091a57600080fd5b505af415801561092e573d6000803e3d6000fd5b505050506040513d601f19601f820116820180604052508101906107479190613094565b73__$364aad554dc80380f414546becdd2c1584$__6382daafaa600284610977612ab9565b6040516001600160e01b031960e086901b1681526004810193909352602483019190915264ffffffffff166044820152606481018490526084015b60006040518083038186803b1580156109ca57600080fd5b505af41580156109de573d6000803e3d6000fd5b505050505050565b73__$364aad554dc80380f414546becdd2c1584$__636320d75e600284610977612ab9565b6040516324d431a360e01b81526004818101526024810182905260009073__$47b88465a20692378cf12e8e0c338f01dd$__906324d431a39060440160206040518083038186803b158015610a5f57600080fd5b505af4158015610a73573d6000803e3d6000fd5b505050506040513d601f19601f82011682018060405250810190610a979190613035565b80610b355750600460015b6040516324d431a360e01b81526003919091029190910160048201526024810183905273__$47b88465a20692378cf12e8e0c338f01dd$__906324d431a3906044015b60206040518083038186803b158015610afd57600080fd5b505af4158015610b11573d6000803e3d6000fd5b505050506040513d601f19601f82011682018060405250810190610b359190613035565b92915050565b60405163034306e160e21b81526005600482015260609073__$8c1a4844a0a0988ea2454cf87145a95df1$__90630d0c1b849060240160006040518083038186803b158015610b8957600080fd5b505af4158015610b9d573d6000803e3d6000fd5b505050506040513d6000823e601f3d908101601f19168201604052610bc59190810190613185565b60405163034306e160e21b81526008600482015273__$ccb256085f563a601d001f7c9087d87207$__916355e7d6429173__$8c1a4844a0a0988ea2454cf87145a95df1$__90630d0c1b849060240160006040518083038186803b158015610c2c57600080fd5b505af4158015610c40573d6000803e3d6000fd5b505050506040513d6000823e601f3d908101601f19168201604052610c689190810190613185565b6040518363ffffffff1660e01b8152600401610c859291906131c2565b60006040518083038186803b158015610c9d57600080fd5b505af4158015610cb1573d6000803e3d6000fd5b505050506040513d6000823e601f3d908101601f191682016040526107479190810190613185565b604051633f5f77cd60e01b8152600e60048201526024810182905260009073__$8c1a4844a0a0988ea2454cf87145a95df1$__90633f5f77cd90604401610ae5565b604051633b11adbf60e21b81526002600482015233602482015273__$364aad554dc80380f414546becdd2c1584$__9063ec46b6fc9060440160206040518083038186803b158015610d6c57600080fd5b505af4158015610d80573d6000803e3d6000fd5b505050506040513d601f19601f82011682018060405250810190610da49190613035565b610dc05760405162461bcd60e51b815260040161081c906131e7565b60405163cc99e11b60e01b8152600260048201526024810182905273__$364aad554dc80380f414546becdd2c1584$__9063cc99e11b9060440160006040518083038186803b158015610e1257600080fd5b505af4158015610e26573d6000803e3d6000fd5b5050505050565b60405163c2b46a8560e01b815260086004820152600090819073__$8c1a4844a0a0988ea2454cf87145a95df1$__9063c2b46a859060240160206040518083038186803b158015610e7d57600080fd5b505af4158015610e91573d6000803e3d6000fd5b505050506040513d601f19601f82011682018060405250810190610eb59190612fee565b11610f3d576040516318a7841360e11b815260048181015273__$47b88465a20692378cf12e8e0c338f01dd$__9063314f0826906024015b60206040518083038186803b158015610f0557600080fd5b505af4158015610f19573d6000803e3d6000fd5b505050506040513d601f19601f820116820180604052508101906107479190613035565b6040516318a7841360e11b81526007600482015273__$47b88465a20692378cf12e8e0c338f01dd$__9063314f08269060240160206040518083038186803b158015610f8857600080fd5b505af4158015610f9c573d6000803e3d6000fd5b505050506040513d601f19601f82011682018060405250810190610fc09190613035565b801561074757506040516318a7841360e11b815260048181015273__$47b88465a20692378cf12e8e0c338f01dd$__9063314f082690602401610eed565b604051633b11adbf60e21b81526002600482015233602482015273__$364aad554dc80380f414546becdd2c1584$__9063ec46b6fc9060440160206040518083038186803b15801561104f57600080fd5b505af4158015611063573d6000803e3d6000fd5b505050506040513d601f19601f820116820180604052508101906110879190613035565b8061112c575073__$364aad554dc80380f414546becdd2c1584$__63fe27108660026110b1612ab9565b6040516001600160e01b031960e085901b168152600481019290925264ffffffffff16602482015260440160206040518083038186803b1580156110f457600080fd5b505af4158015611108573d6000803e3d6000fd5b505050506040513d601f19601f8201168201806040525081019061112c9190613035565b6111485760405162461bcd60e51b815260040161081c9061322d565b604051632725ebef60e21b8152600260048201526024810182905273__$364aad554dc80380f414546becdd2c1584$__90639c97afbc9060440160006040518083038186803b15801561119a57600080fd5b505af41580156111ae573d6000803e3d6000fd5b505050507ff2735f34b69be1e6342dea95f9162f84d0db925fab655ca9f1f312ac8cbfc99d816040516111e391815260200190565b60405180910390a150565b73__$364aad554dc80380f414546becdd2c1584$__63ee98b313600284610977612ab9565b60405163034306e160e21b8152600e600482015260609073__$8c1a4844a0a0988ea2454cf87145a95df1$__90630d0c1b8490602401610c85565b60008361125a816113e7565b6112765760405162461bcd60e51b815260040161081c90613283565b611281858585611d78565b61128e5760019150611323565b6000858152600a60205260409081902054905163293d884d60e11b81526001600160a01b038681166004830152602482018690529091169063527b109a906044015b60206040518083038186803b1580156112e857600080fd5b505afa1580156112fc573d6000803e3d6000fd5b505050506040513d601f19601f820116820180604052508101906113209190613035565b91505b509392505050565b604051630f07232560e01b8152600260048201523360248201526001600160a01b038216604482015273__$364aad554dc80380f414546becdd2c1584$__90630f0723259060640160006040518083038186803b15801561138b57600080fd5b505af415801561139f573d6000803e3d6000fd5b50506040516001600160a01b03841681527fe435cbeab64e4eae6497b9d8289704bd709d624a80704ef3ca9af777534bc6ec925060200190506111e3565b6000600481610aa2565b604051633f5f77cd60e01b8152600b60048201526024810182905260009073__$8c1a4844a0a0988ea2454cf87145a95df1$__90633f5f77cd90604401610ae5565b604051633b11adbf60e21b81526002600482015233602482015273__$364aad554dc80380f414546becdd2c1584$__9063ec46b6fc9060440160206040518083038186803b15801561147a57600080fd5b505af415801561148e573d6000803e3d6000fd5b505050506040513d601f19601f820116820180604052508101906114b29190613035565b6114ce5760405162461bcd60e51b815260040161081c906131e7565b60028054600160f01b900460ff161415611528576040516368c2325360e01b815260076004820152602481018390526044810182905273__$47b88465a20692378cf12e8e0c338f01dd$__906368c2325390606401610876565b6040516368c2325360e01b8152600481810152602481018390526044810182905273__$47b88465a20692378cf12e8e0c338f01dd$__906368c2325390606401610876565b604051632a3be56b60e21b815260026004820152602481018390526044810182905260009073__$364aad554dc80380f414546becdd2c1584$__9063a8ef95ac9060640160206040518083038186803b1580156115c957600080fd5b505af41580156115dd573d6000803e3d6000fd5b505050506040513d601f19601f820116820180604052508101906116019190613035565b9392505050565b604051633b11adbf60e21b81526002600482015233602482015273__$364aad554dc80380f414546becdd2c1584$__9063ec46b6fc9060440160206040518083038186803b15801561165957600080fd5b505af415801561166d573d6000803e3d6000fd5b505050506040513d601f19601f820116820180604052508101906116919190613035565b80611736575073__$364aad554dc80380f414546becdd2c1584$__63fe27108660026116bb612ab9565b6040516001600160e01b031960e085901b168152600481019290925264ffffffffff16602482015260440160206040518083038186803b1580156116fe57600080fd5b505af4158015611712573d6000803e3d6000fd5b505050506040513d601f19601f820116820180604052508101906117369190613035565b6117525760405162461bcd60e51b815260040161081c9061322d565b60405163b6e38a2960e01b8152600260048201526024810182905273__$364aad554dc80380f414546becdd2c1584$__9063b6e38a299060440160006040518083038186803b1580156117a457600080fd5b505af41580156117b8573d6000803e3d6000fd5b505050507f8b6f40f36b4ae8cc5f55e895036457c43da4ab1f80f58c46f5ff0d72a650033b816040516111e391815260200190565b60405163987ad15360e01b81526002600482015260009073__$364aad554dc80380f414546becdd2c1584$__9063987ad15390602401610902565b604051633b11adbf60e21b81526002600482015233602482015273__$364aad554dc80380f414546becdd2c1584$__9063ec46b6fc9060440160206040518083038186803b15801561187957600080fd5b505af415801561188d573d6000803e3d6000fd5b505050506040513d601f19601f820116820180604052508101906118b19190613035565b6118cd5760405162461bcd60e51b815260040161081c906131e7565b60405163c2b46a8560e01b8152600b600482015260009073__$8c1a4844a0a0988ea2454cf87145a95df1$__9063c2b46a859060240160206040518083038186803b15801561191b57600080fd5b505af415801561192f573d6000803e3d6000fd5b505050506040513d601f19601f820116820180604052508101906119539190612fee565b905060005b81811015611a7757604051630ef6982f60e41b8152600b600482015260248101829052600a9060009073__$8c1a4844a0a0988ea2454cf87145a95df1$__9063ef6982f09060440160206040518083038186803b1580156119b857600080fd5b505af41580156119cc573d6000803e3d6000fd5b505050506040513d601f19601f820116820180604052508101906119f09190612fee565b815260200190815260200160002060009054906101000a90046001600160a01b03166001600160a01b031663f045a7696040518163ffffffff1660e01b8152600401600060405180830381600087803b158015611a4c57600080fd5b505af1158015611a60573d6000803e3d6000fd5b505050508080611a6f906132cf565b915050611958565b50611a806127ee565b50565b6000611a8d612ab9565b60405163cc0d511b60e01b8152600260048201526024810184905264ffffffffff8216604482015290915073__$364aad554dc80380f414546becdd2c1584$__9063cc0d511b906064016109b2565b604051633f5f77cd60e01b8152600560048201526024810182905260009073__$8c1a4844a0a0988ea2454cf87145a95df1$__90633f5f77cd9060440160206040518083038186803b158015611b3157600080fd5b505af4158015611b45573d6000803e3d6000fd5b505050506040513d601f19601f82011682018060405250810190611b699190613035565b80610b355750604051633f5f77cd60e01b8152600860048201526024810183905273__$8c1a4844a0a0988ea2454cf87145a95df1$__90633f5f77cd90604401610ae5565b73__$364aad554dc80380f414546becdd2c1584$__63a8ef95ac6002684174746f726e65797360b81b611bdf612ab9565b6040516001600160e01b031960e086901b1681526004810193909352602483019190915264ffffffffff16604482015260640160206040518083038186803b158015611c2a57600080fd5b505af4158015611c3e573d6000803e3d6000fd5b505050506040513d601f19601f82011682018060405250810190611c629190613035565b611c7e5760405162461bcd60e51b815260040161081c90613052565b604051630e645f3760e11b815260048181015265ffffffffffff83811660248301528216604482015273__$47b88465a20692378cf12e8e0c338f01dd$__90631cc8be6e9060640160006040518083038186803b158015611cde57600080fd5b505af4158015611cf2573d6000803e3d6000fd5b50506040805165ffffffffffff8087168252851660208201527fb8e8bea2ad19b55b78c5126020cb1ad3b933e262ba9972101df94ff0c70bc6c3935001905060405180910390a15050565b60405163034306e160e21b8152600b600482015260609073__$8c1a4844a0a0988ea2454cf87145a95df1$__90630d0c1b8490602401610c85565b600083611d84816113e7565b611da05760405162461bcd60e51b815260040161081c90613283565b6000858152600a602052604090819020549051634f500a8f60e01b81526001600160a01b0386811660048301526024820186905290911690634f500a8f906044016112d0565b600073__$364aad554dc80380f414546becdd2c1584$__6331a349c06002611e0c612ab9565b6040516001600160e01b031960e085901b168152600481019290925264ffffffffff16602482015260440160206040518083038186803b158015611e4f57600080fd5b505af4158015611e63573d6000803e3d6000fd5b505050506040513d601f19601f82011682018060405250810190611e879190613035565b611ed35760405162461bcd60e51b815260206004820152601b60248201527f41432e6f67633a206e6f742067656e6572616c20636f756e73656c0000000000604482015260640161081c565b81611edc612b13565b60405163067488cf60e01b815260ff831660048201526001600160a01b03919091169063067488cf9060240160206040518083038186803b158015611f2057600080fd5b505afa158015611f34573d6000803e3d6000fd5b505050506040513d601f19601f82011682018060405250810190611f589190613035565b611fb05760405162461bcd60e51b8152602060048201526024808201527f5348412e74656d705265616479466f723a2054656d706c617465204e4f5420726044820152636561647960e01b606482015260840161081c565b61203c611fbb612b13565b60405163277e8af960e11b815260ff861660048201526001600160a01b039190911690634efd15f29060240160206040518083038186803b158015611fff57600080fd5b505afa158015612013573d6000803e3d6000fd5b505050506040513d601f19601f8201168201806040525081019061203791906132ea565b612b6c565b915060006120486117ed565b905060006120546108cb565b60005460015460405163dc890da960e01b815264ffffffffff861660048201523060248201526001600160a01b039283166044820152908216606482015291925085169063dc890da990608401600060405180830381600087803b1580156120bb57600080fd5b505af11580156120cf573d6000803e3d6000fd5b5050604051634a14beb160e01b815264ffffffffff841660048201526001600160a01b0387169250634a14beb19150602401600060405180830381600087803b15801561211b57600080fd5b505af115801561212f573d6000803e3d6000fd5b5050505060ff85166000818152600a60205260409081902080546001600160a01b0319166001600160a01b038816179055516392f13c3f60e01b8152600b6004820152602481019190915273__$8c1a4844a0a0988ea2454cf87145a95df1$__906392f13c3f9060440160206040518083038186803b1580156121b157600080fd5b505af41580156121c5573d6000803e3d6000fd5b505050506040513d601f19601f820116820180604052508101906121e99190613035565b50505050919050565b60405163c2b46a8560e01b8152600b600482015260009073__$8c1a4844a0a0988ea2454cf87145a95df1$__9063c2b46a85906024015b60206040518083038186803b15801561224157600080fd5b505af4158015612255573d6000803e3d6000fd5b505050506040513d601f19601f820116820180604052508101906107479190612fee565b73__$364aad554dc80380f414546becdd2c1584$__63a8ef95ac6002684174746f726e65797360b81b6122aa612ab9565b6040516001600160e01b031960e086901b1681526004810193909352602483019190915264ffffffffff16604482015260640160206040518083038186803b1580156122f557600080fd5b505af4158015612309573d6000803e3d6000fd5b505050506040513d601f19601f8201168201806040525081019061232d9190613035565b6123495760405162461bcd60e51b815260040161081c90613052565b6040516392fd02df60e01b8152600b600482015260ff8216602482015273__$8c1a4844a0a0988ea2454cf87145a95df1$__906392fd02df9060440160206040518083038186803b15801561239d57600080fd5b505af41580156123b1573d6000803e3d6000fd5b505050506040513d601f19601f820116820180604052508101906123d59190613035565b15611a805760ff166000908152600a6020526040902080546001600160a01b0319169055565b6040805160808101825260008082526020820181905291810182905260608181019290925283156124ca57600460005b604051630b5b0ad560e01b81526003919091029190910160048201526024810184905273__$47b88465a20692378cf12e8e0c338f01dd$__90630b5b0ad59060440160006040518083038186803b15801561248557600080fd5b505af4158015612499573d6000803e3d6000fd5b505050506040513d6000823e601f3d908101601f191682016040526124c19190810190613391565b915091506124d3565b6004600161242b565b9250929050565b60405163c2b46a8560e01b8152600e600482015260009073__$8c1a4844a0a0988ea2454cf87145a95df1$__9063c2b46a8590602401612229565b73__$364aad554dc80380f414546becdd2c1584$__63a8ef95ac6002684174746f726e65797360b81b612546612ab9565b6040516001600160e01b031960e086901b1681526004810193909352602483019190915264ffffffffff16604482015260640160206040518083038186803b15801561259157600080fd5b505af41580156125a5573d6000803e3d6000fd5b505050506040513d601f19601f820116820180604052508101906125c99190613035565b6125e55760405162461bcd60e51b815260040161081c90613052565b6040516392fd02df60e01b8152600e60048201526024810182905273__$8c1a4844a0a0988ea2454cf87145a95df1$__906392fd02df9060440160206040518083038186803b15801561263757600080fd5b505af415801561264b573d6000803e3d6000fd5b505050506040513d601f19601f8201168201806040525081019061266f9190613035565b15611a80576000908152600d6020526040812055565b61268e82612bbe565b61269781612c6d565b604051636cdd0edf60e11b815260026004820152602481018590526001600160a01b038416604482015273__$364aad554dc80380f414546becdd2c1584$__9063d9ba1dbe9060640160006040518083038186803b1580156126f857600080fd5b505af415801561270c573d6000803e3d6000fd5b5050604080518781526001600160a01b038781166020830152868116828401528516606082015290517f3abb2418c66fe32ba9c883030a75ce583971d9af9192b9b74e44e67c5e6c8c1f9350908190036080019150a150505050565b604051633c3e56c160e11b81526002600482015260009073__$364aad554dc80380f414546becdd2c1584$__9063787cad829060240160206040518083038186803b1580156127b657600080fd5b505af41580156127ca573d6000803e3d6000fd5b505050506040513d601f19601f8201168201806040525081019061074791906132ea565b604051633b11adbf60e21b81526002600482015233602482015273__$364aad554dc80380f414546becdd2c1584$__9063ec46b6fc9060440160206040518083038186803b15801561283f57600080fd5b505af4158015612853573d6000803e3d6000fd5b505050506040513d601f19601f820116820180604052508101906128779190613035565b6128935760405162461bcd60e51b815260040161081c906131e7565b600254600160f01b900460ff166001146128ef5760405162461bcd60e51b815260206004820181905260248201527f41432e6f6e6c7950656e64696e673a20446f632069732066696e616c697a6564604482015260640161081c565b60405163cc99e11b60e01b815260026004820152684174746f726e65797360b81b602482015273__$364aad554dc80380f414546becdd2c1584$__9063cc99e11b9060440160006040518083038186803b15801561294c57600080fd5b505af4158015612960573d6000803e3d6000fd5b5050604051632725ebef60e21b8152600260048201526000602482015273__$364aad554dc80380f414546becdd2c1584$__9250639c97afbc915060440160006040518083038186803b1580156129b657600080fd5b505af41580156129ca573d6000803e3d6000fd5b50506002805460ff60f01b1916600160f11b17905550506040517f35012b512309c322acf68632cd6cb702ff0e1d776fbe9394e38ffc13b434fe7590600090a1565b60608115612aab57600460005b6003020173__$47b88465a20692378cf12e8e0c338f01dd$__63c018ec8790916040518263ffffffff1660e01b8152600401612a5791815260200190565b60006040518083038186803b158015612a6f57600080fd5b505af4158015612a83573d6000803e3d6000fd5b505050506040513d6000823e601f3d908101601f19168201604052610b3591908101906133e0565b60046001612a19565b919050565b60008054604051634de835e760e11b81523360048201526001600160a01b0390911690639bd06bce90602401602060405180830381600087803b158015612aff57600080fd5b505af115801561092e573d6000803e3d6000fd5b60015460405163381baea360e21b8152600360048201526000916001600160a01b03169063e06eba8c9060240160206040518083038186803b158015612b5857600080fd5b505afa1580156127ca573d6000803e3d6000fd5b6000808260601b9050604051733d602d80600a3d3981f3363d3d373d3d3d363d7360601b81528160148201526e5af43d82803e903d91602b57fd5bf360881b60288201526037816000f0949350505050565b6000546001600160a01b031615612c0f5760405162461bcd60e51b815260206004820152601560248201527430b63932b0b23c9039b2ba103932b3a1b2b73a32b960591b604482015260640161081c565b6040516001600160a01b03821681527f318da6c7624c71cbc0afe346c9d8827f119d0ecefb241a7b0c87217a076a8e029060200160405180910390a1600080546001600160a01b0319166001600160a01b0392909216919091179055565b6001546001600160a01b031615612cc65760405162461bcd60e51b815260206004820152601960248201527f616c7265616479207365742067656e6572616c4b656570657200000000000000604482015260640161081c565b6040516001600160a01b03821681527fe513d3e0f0d0a3877029dcc588748679a7a3450ec1ec7ed56d96bd012c3e61aa9060200160405180910390a1600180546001600160a01b0319166001600160a01b0392909216919091179055565b600060208284031215612d3657600080fd5b5035919050565b60008060408385031215612d5057600080fd5b50508035926020909101359150565b600081518084526020808501945080840160005b83811015612d8f57815187529582019590820190600101612d73565b509495945050505050565b6020815260006116016020830184612d5f565b6001600160a01b0381168114611a8057600080fd5b600080600060608486031215612dd757600080fd5b833592506020840135612de981612dad565b929592945050506040919091013590565b600060208284031215612e0c57600080fd5b813561160181612dad565b65ffffffffffff81168114611a8057600080fd5b60008060408385031215612e3e57600080fd5b8235612e4981612e17565b91506020830135612e5981612e17565b809150509250929050565b64ffffffffff815116825265ffffffffffff602082015116602083015267ffffffffffffffff6040820151166040830152606081015160608301525050565b60808101610b358284612e64565b600060208284031215612ec357600080fd5b813560ff8116811461160157600080fd5b8015158114611a8057600080fd5b60008060408385031215612ef557600080fd5b8235612f0081612ed4565b946020939093013593505050565b60a081526000612f2160a0830185612d5f565b90506116016020830184612e64565b60008060008060808587031215612f4657600080fd5b843593506020850135612f5881612dad565b92506040850135612f6881612dad565b91506060850135612f7881612dad565b939692955090935050565b600060208284031215612f9557600080fd5b813561160181612ed4565b6020808252825182820181905260009190848201906040850190845b81811015612fe257612fcf838551612e64565b9284019260809290920191600101612fbc565b50909695505050505050565b60006020828403121561300057600080fd5b5051919050565b634e487b7160e01b600052601160045260246000fd5b6000821982111561303057613030613007565b500190565b60006020828403121561304757600080fd5b815161160181612ed4565b60208082526013908201527241432e6f743a206e6f74204174746f726e657960681b604082015260600190565b805164ffffffffff81168114612ab457600080fd5b6000602082840312156130a657600080fd5b6116018261307f565b634e487b7160e01b600052604160045260246000fd5b604051601f8201601f1916810167ffffffffffffffff811182821017156130ee576130ee6130af565b604052919050565b600067ffffffffffffffff821115613110576131106130af565b5060051b60200190565b600082601f83011261312b57600080fd5b8151602061314061313b836130f6565b6130c5565b82815260059290921b8401810191818101908684111561315f57600080fd5b8286015b8481101561317a5780518352918301918301613163565b509695505050505050565b60006020828403121561319757600080fd5b815167ffffffffffffffff8111156131ae57600080fd5b6131ba8482850161311a565b949350505050565b6040815260006131d56040830185612d5f565b82810360208401526113208185612d5f565b60208082526026908201527f41432e6f6e6c794469726563744b65657065723a206e6f74206469726563742060408201526535b2b2b832b960d11b606082015260800190565b60208082526036908201527f41432e6f776e65724f72446972656374426f6f6b65657065723a206e6569746860408201527532b91037bbb732b9103737b9103137b7b5b2b2b832b960511b606082015260800190565b6020808252602c908201527f5348412e7469746c6545786973743a2053484120646f6573206e6f742068617660408201526b652073756368207469746c6560a01b606082015260800190565b60006000198214156132e3576132e3613007565b5060010190565b6000602082840312156132fc57600080fd5b815161160181612dad565b60006080828403121561331957600080fd5b6040516080810167ffffffffffffffff828210818311171561333d5761333d6130af565b8160405282935061334d8561307f565b83526020850151915061335f82612e17565b81602084015260408501519150808216821461337a57600080fd5b506040820152606092830151920191909152919050565b60008060a083850312156133a457600080fd5b825167ffffffffffffffff8111156133bb57600080fd5b6133c78582860161311a565b9250506133d78460208501613307565b90509250929050565b600060208083850312156133f357600080fd5b825167ffffffffffffffff81111561340a57600080fd5b8301601f8101851361341b57600080fd5b805161342961313b826130f6565b81815260079190911b8201830190838101908783111561344857600080fd5b928401925b828410156134715761345f8885613307565b8252848201915060808401935061344d565b97965050505050505056fea264697066735822122061e90463ddf21619deaaea83a6481f433b36ec573f83b67b976eb7bcb7ff602764736f6c63430008080033",
    "sourcePath": "/Users/kaptain/github.com/hardhat/comboox/contracts/books/boh/ShareholdersAgreement.sol",
    "compiler": {
        "name": "solc",
        "version": "0.8.8+commit.dddeac2f"
    },
    "functionHashes": {
        "abandonRole(bytes32)": "3da9a600",
        "addRule(bytes32)": "05ee7735",
        "createTerm(uint8)": "b71754c7",
        "established()": "4844f541",
        "finalizeTerms()": "8969d43a",
        "finalized()": "b3f05b97",
        "getBookeeper()": "ed211023",
        "getGeneralCounsel()": "103f6edd",
        "getOwner()": "893d20e8",
        "getRule(uint256)": "48462037",
        "getTerm(uint256)": "346ba941",
        "grantRole(bytes32,uint256)": "1b6ea9f9",
        "hasRole(bytes32,uint256)": "7e063c5a",
        "hasRule(uint256)": "379ef4a6",
        "hasTitle(uint256)": "71765449",
        "init(uint256,address,address,address)": "dc890da9",
        "isInitSigner(uint256)": "70dfbcf4",
        "isParty(uint256)": "8c5f9170",
        "isSigner(uint256)": "28769ede",
        "lockContents()": "f045a769",
        "parasOfPage()": "9afa6aab",
        "partiesOfDoc()": "2d8f651d",
        "qtyOfParties()": "0597de52",
        "qtyOfRules()": "d0c504b0",
        "qtyOfTerms()": "bc3ffc70",
        "removeRule(uint256)": "d70da38b",
        "removeTerm(uint8)": "cd75bd3f",
        "renounceRole(bytes32)": "8bb9c5bf",
        "revokeRole(bytes32,uint256)": "19d61ad9",
        "rules()": "52f6747a",
        "setDirectKeeper(address)": "6be8496f",
        "setGeneralCounsel(uint256)": "4a14beb1",
        "setOwner(uint256)": "8041494e",
        "setParasOfDoc(uint48,uint48)": "92bd6264",
        "setRoleAdmin(bytes32,uint256)": "5171ebd4",
        "sigOfParty(bool,uint256)": "ceeaae53",
        "signDoc(uint256,bytes32)": "7c5026ea",
        "sigsOfPage(bool)": "f8f71ca2",
        "termIsExempted(uint256,address,uint256)": "5d24f35b",
        "termIsTriggered(uint256,address,uint256)": "ac067843",
        "titles()": "a9acd944"
    },
    "gasEstimates": {
        "creation": {
            "codeDepositCost": "2698000",
            "executionCost": "2930",
            "totalCost": "2700930"
        },
        "external": {
            "abandonRole(bytes32)": "infinite",
            "addRule(bytes32)": "infinite",
            "createTerm(uint8)": "infinite",
            "established()": "infinite",
            "finalizeTerms()": "infinite",
            "finalized()": "2372",
            "getBookeeper()": "infinite",
            "getGeneralCounsel()": "infinite",
            "getOwner()": "infinite",
            "getRule(uint256)": "2495",
            "getTerm(uint256)": "2567",
            "grantRole(bytes32,uint256)": "infinite",
            "hasRole(bytes32,uint256)": "infinite",
            "hasRule(uint256)": "infinite",
            "hasTitle(uint256)": "infinite",
            "init(uint256,address,address,address)": "infinite",
            "isInitSigner(uint256)": "infinite",
            "isParty(uint256)": "infinite",
            "isSigner(uint256)": "infinite",
            "lockContents()": "infinite",
            "parasOfPage()": "4925",
            "partiesOfDoc()": "infinite",
            "qtyOfParties()": "infinite",
            "qtyOfRules()": "infinite",
            "qtyOfTerms()": "infinite",
            "removeRule(uint256)": "infinite",
            "removeTerm(uint8)": "infinite",
            "renounceRole(bytes32)": "infinite",
            "revokeRole(bytes32,uint256)": "infinite",
            "rules()": "infinite",
            "setDirectKeeper(address)": "infinite",
            "setGeneralCounsel(uint256)": "infinite",
            "setOwner(uint256)": "infinite",
            "setParasOfDoc(uint48,uint48)": "infinite",
            "setRoleAdmin(bytes32,uint256)": "infinite",
            "sigOfParty(bool,uint256)": "infinite",
            "signDoc(uint256,bytes32)": "infinite",
            "sigsOfPage(bool)": "infinite",
            "termIsExempted(uint256,address,uint256)": "infinite",
            "termIsTriggered(uint256,address,uint256)": "infinite",
            "titles()": "infinite"
        }
    }
}