{
    "contractName": "BookOfShares",
    "abi": [
        {
            "anonymous": false,
            "inputs": [
                {
                    "indexed": true,
                    "internalType": "uint256",
                    "name": "seqOfShare",
                    "type": "uint256"
                },
                {
                    "indexed": false,
                    "internalType": "uint64",
                    "name": "paid",
                    "type": "uint64"
                }
            ],
            "name": "DecreaseCleanPaid",
            "type": "event"
        },
        {
            "anonymous": false,
            "inputs": [
                {
                    "indexed": true,
                    "internalType": "uint256",
                    "name": "seqOfShare",
                    "type": "uint256"
                }
            ],
            "name": "DeregisterShare",
            "type": "event"
        },
        {
            "anonymous": false,
            "inputs": [
                {
                    "indexed": true,
                    "internalType": "uint256",
                    "name": "seqOfShare",
                    "type": "uint256"
                },
                {
                    "indexed": false,
                    "internalType": "uint64",
                    "name": "paid",
                    "type": "uint64"
                }
            ],
            "name": "IncreaseCleanPaid",
            "type": "event"
        },
        {
            "anonymous": false,
            "inputs": [
                {
                    "indexed": false,
                    "internalType": "uint256",
                    "name": "owner",
                    "type": "uint256"
                },
                {
                    "indexed": false,
                    "internalType": "address",
                    "name": "directKeeper",
                    "type": "address"
                },
                {
                    "indexed": false,
                    "internalType": "address",
                    "name": "regCenter",
                    "type": "address"
                },
                {
                    "indexed": false,
                    "internalType": "address",
                    "name": "generalKeeper",
                    "type": "address"
                }
            ],
            "name": "Init",
            "type": "event"
        },
        {
            "anonymous": false,
            "inputs": [
                {
                    "indexed": true,
                    "internalType": "uint256",
                    "name": "seqOfShare",
                    "type": "uint256"
                },
                {
                    "indexed": false,
                    "internalType": "uint64",
                    "name": "paid",
                    "type": "uint64"
                },
                {
                    "indexed": false,
                    "internalType": "uint64",
                    "name": "par",
                    "type": "uint64"
                }
            ],
            "name": "IssueShare",
            "type": "event"
        },
        {
            "anonymous": false,
            "inputs": [],
            "name": "LockContents",
            "type": "event"
        },
        {
            "anonymous": false,
            "inputs": [
                {
                    "indexed": true,
                    "internalType": "uint256",
                    "name": "seqOfShare",
                    "type": "uint256"
                },
                {
                    "indexed": false,
                    "internalType": "uint64",
                    "name": "amount",
                    "type": "uint64"
                }
            ],
            "name": "PayInCapital",
            "type": "event"
        },
        {
            "anonymous": false,
            "inputs": [
                {
                    "indexed": false,
                    "internalType": "uint256",
                    "name": "title",
                    "type": "uint256"
                },
                {
                    "indexed": false,
                    "internalType": "address",
                    "name": "book",
                    "type": "address"
                }
            ],
            "name": "SetBookRuting",
            "type": "event"
        },
        {
            "anonymous": false,
            "inputs": [
                {
                    "indexed": false,
                    "internalType": "address",
                    "name": "keeper",
                    "type": "address"
                }
            ],
            "name": "SetDirectKeeper",
            "type": "event"
        },
        {
            "anonymous": false,
            "inputs": [
                {
                    "indexed": false,
                    "internalType": "uint256",
                    "name": "acct",
                    "type": "uint256"
                }
            ],
            "name": "SetGeneralCounsel",
            "type": "event"
        },
        {
            "anonymous": false,
            "inputs": [
                {
                    "indexed": false,
                    "internalType": "address",
                    "name": "gk",
                    "type": "address"
                }
            ],
            "name": "SetGeneralKeeper",
            "type": "event"
        },
        {
            "anonymous": false,
            "inputs": [
                {
                    "indexed": false,
                    "internalType": "uint256",
                    "name": "acct",
                    "type": "uint256"
                }
            ],
            "name": "SetOwner",
            "type": "event"
        },
        {
            "anonymous": false,
            "inputs": [
                {
                    "indexed": true,
                    "internalType": "uint256",
                    "name": "snOfLocker",
                    "type": "uint256"
                },
                {
                    "indexed": false,
                    "internalType": "uint64",
                    "name": "amount",
                    "type": "uint64"
                }
            ],
            "name": "SetPayInAmt",
            "type": "event"
        },
        {
            "anonymous": false,
            "inputs": [
                {
                    "indexed": false,
                    "internalType": "address",
                    "name": "rc",
                    "type": "address"
                }
            ],
            "name": "SetRegCenter",
            "type": "event"
        },
        {
            "anonymous": false,
            "inputs": [
                {
                    "indexed": true,
                    "internalType": "uint256",
                    "name": "seqOfShare",
                    "type": "uint256"
                },
                {
                    "indexed": false,
                    "internalType": "uint64",
                    "name": "paid",
                    "type": "uint64"
                },
                {
                    "indexed": false,
                    "internalType": "uint64",
                    "name": "par",
                    "type": "uint64"
                }
            ],
            "name": "SubAmountFromShare",
            "type": "event"
        },
        {
            "anonymous": false,
            "inputs": [
                {
                    "indexed": true,
                    "internalType": "uint256",
                    "name": "seqOfShare",
                    "type": "uint256"
                },
                {
                    "indexed": false,
                    "internalType": "uint48",
                    "name": "paidInDeadline",
                    "type": "uint48"
                }
            ],
            "name": "UpdatePaidInDeadline",
            "type": "event"
        },
        {
            "anonymous": false,
            "inputs": [
                {
                    "indexed": true,
                    "internalType": "uint256",
                    "name": "seqOfShare",
                    "type": "uint256"
                },
                {
                    "indexed": false,
                    "internalType": "uint8",
                    "name": "state",
                    "type": "uint8"
                }
            ],
            "name": "UpdateStateOfShare",
            "type": "event"
        },
        {
            "anonymous": false,
            "inputs": [
                {
                    "indexed": true,
                    "internalType": "uint256",
                    "name": "snOfLocker",
                    "type": "uint256"
                }
            ],
            "name": "WithdrawPayInAmt",
            "type": "event"
        },
        {
            "inputs": [
                {
                    "internalType": "bytes32",
                    "name": "role",
                    "type": "bytes32"
                }
            ],
            "name": "abandonRole",
            "outputs": [],
            "stateMutability": "nonpayable",
            "type": "function"
        },
        {
            "inputs": [],
            "name": "counterOfClasses",
            "outputs": [
                {
                    "internalType": "uint16",
                    "name": "",
                    "type": "uint16"
                }
            ],
            "stateMutability": "view",
            "type": "function"
        },
        {
            "inputs": [],
            "name": "counterOfShares",
            "outputs": [
                {
                    "internalType": "uint32",
                    "name": "",
                    "type": "uint32"
                }
            ],
            "stateMutability": "view",
            "type": "function"
        },
        {
            "inputs": [
                {
                    "internalType": "uint256",
                    "name": "seqOfShare",
                    "type": "uint256"
                },
                {
                    "internalType": "uint64",
                    "name": "paid",
                    "type": "uint64"
                },
                {
                    "internalType": "uint64",
                    "name": "par",
                    "type": "uint64"
                }
            ],
            "name": "decreaseCapital",
            "outputs": [],
            "stateMutability": "nonpayable",
            "type": "function"
        },
        {
            "inputs": [
                {
                    "internalType": "uint256",
                    "name": "seqOfShare",
                    "type": "uint256"
                },
                {
                    "internalType": "uint64",
                    "name": "paid",
                    "type": "uint64"
                }
            ],
            "name": "decreaseCleanPaid",
            "outputs": [],
            "stateMutability": "nonpayable",
            "type": "function"
        },
        {
            "inputs": [],
            "name": "finalized",
            "outputs": [
                {
                    "internalType": "bool",
                    "name": "",
                    "type": "bool"
                }
            ],
            "stateMutability": "view",
            "type": "function"
        },
        {
            "inputs": [
                {
                    "internalType": "uint256",
                    "name": "seqOfShare",
                    "type": "uint256"
                }
            ],
            "name": "getBodyOfShare",
            "outputs": [
                {
                    "components": [
                        {
                            "internalType": "uint48",
                            "name": "payInDeadline",
                            "type": "uint48"
                        },
                        {
                            "internalType": "uint64",
                            "name": "paid",
                            "type": "uint64"
                        },
                        {
                            "internalType": "uint64",
                            "name": "par",
                            "type": "uint64"
                        },
                        {
                            "internalType": "uint64",
                            "name": "cleanPaid",
                            "type": "uint64"
                        },
                        {
                            "internalType": "uint8",
                            "name": "state",
                            "type": "uint8"
                        }
                    ],
                    "internalType": "struct SharesRepo.Body",
                    "name": "body",
                    "type": "tuple"
                }
            ],
            "stateMutability": "view",
            "type": "function"
        },
        {
            "inputs": [],
            "name": "getBookeeper",
            "outputs": [
                {
                    "internalType": "address",
                    "name": "",
                    "type": "address"
                }
            ],
            "stateMutability": "view",
            "type": "function"
        },
        {
            "inputs": [],
            "name": "getGeneralCounsel",
            "outputs": [
                {
                    "internalType": "uint40",
                    "name": "",
                    "type": "uint40"
                }
            ],
            "stateMutability": "view",
            "type": "function"
        },
        {
            "inputs": [
                {
                    "internalType": "uint256",
                    "name": "seqOfShare",
                    "type": "uint256"
                }
            ],
            "name": "getHeadOfShare",
            "outputs": [
                {
                    "components": [
                        {
                            "internalType": "uint32",
                            "name": "seqOfShare",
                            "type": "uint32"
                        },
                        {
                            "internalType": "uint32",
                            "name": "preSeq",
                            "type": "uint32"
                        },
                        {
                            "internalType": "uint16",
                            "name": "class",
                            "type": "uint16"
                        },
                        {
                            "internalType": "uint48",
                            "name": "issueDate",
                            "type": "uint48"
                        },
                        {
                            "internalType": "uint40",
                            "name": "shareholder",
                            "type": "uint40"
                        },
                        {
                            "internalType": "uint32",
                            "name": "price",
                            "type": "uint32"
                        }
                    ],
                    "internalType": "struct SharesRepo.Head",
                    "name": "head",
                    "type": "tuple"
                }
            ],
            "stateMutability": "view",
            "type": "function"
        },
        {
            "inputs": [
                {
                    "internalType": "uint256",
                    "name": "snOfLocker",
                    "type": "uint256"
                }
            ],
            "name": "getLocker",
            "outputs": [
                {
                    "internalType": "uint64",
                    "name": "amount",
                    "type": "uint64"
                }
            ],
            "stateMutability": "view",
            "type": "function"
        },
        {
            "inputs": [],
            "name": "getOwner",
            "outputs": [
                {
                    "internalType": "uint40",
                    "name": "",
                    "type": "uint40"
                }
            ],
            "stateMutability": "view",
            "type": "function"
        },
        {
            "inputs": [
                {
                    "internalType": "uint256",
                    "name": "seqOfShare",
                    "type": "uint256"
                }
            ],
            "name": "getShare",
            "outputs": [
                {
                    "components": [
                        {
                            "components": [
                                {
                                    "internalType": "uint32",
                                    "name": "seqOfShare",
                                    "type": "uint32"
                                },
                                {
                                    "internalType": "uint32",
                                    "name": "preSeq",
                                    "type": "uint32"
                                },
                                {
                                    "internalType": "uint16",
                                    "name": "class",
                                    "type": "uint16"
                                },
                                {
                                    "internalType": "uint48",
                                    "name": "issueDate",
                                    "type": "uint48"
                                },
                                {
                                    "internalType": "uint40",
                                    "name": "shareholder",
                                    "type": "uint40"
                                },
                                {
                                    "internalType": "uint32",
                                    "name": "price",
                                    "type": "uint32"
                                }
                            ],
                            "internalType": "struct SharesRepo.Head",
                            "name": "head",
                            "type": "tuple"
                        },
                        {
                            "components": [
                                {
                                    "internalType": "uint48",
                                    "name": "payInDeadline",
                                    "type": "uint48"
                                },
                                {
                                    "internalType": "uint64",
                                    "name": "paid",
                                    "type": "uint64"
                                },
                                {
                                    "internalType": "uint64",
                                    "name": "par",
                                    "type": "uint64"
                                },
                                {
                                    "internalType": "uint64",
                                    "name": "cleanPaid",
                                    "type": "uint64"
                                },
                                {
                                    "internalType": "uint8",
                                    "name": "state",
                                    "type": "uint8"
                                }
                            ],
                            "internalType": "struct SharesRepo.Body",
                            "name": "body",
                            "type": "tuple"
                        }
                    ],
                    "internalType": "struct SharesRepo.Share",
                    "name": "share",
                    "type": "tuple"
                }
            ],
            "stateMutability": "view",
            "type": "function"
        },
        {
            "inputs": [
                {
                    "internalType": "uint16",
                    "name": "class",
                    "type": "uint16"
                }
            ],
            "name": "getSharesOfClass",
            "outputs": [
                {
                    "internalType": "uint256[]",
                    "name": "seqList",
                    "type": "uint256[]"
                }
            ],
            "stateMutability": "view",
            "type": "function"
        },
        {
            "inputs": [
                {
                    "internalType": "bytes32",
                    "name": "role",
                    "type": "bytes32"
                },
                {
                    "internalType": "uint256",
                    "name": "acct",
                    "type": "uint256"
                }
            ],
            "name": "grantRole",
            "outputs": [],
            "stateMutability": "nonpayable",
            "type": "function"
        },
        {
            "inputs": [
                {
                    "internalType": "bytes32",
                    "name": "role",
                    "type": "bytes32"
                },
                {
                    "internalType": "uint256",
                    "name": "acct",
                    "type": "uint256"
                }
            ],
            "name": "hasRole",
            "outputs": [
                {
                    "internalType": "bool",
                    "name": "",
                    "type": "bool"
                }
            ],
            "stateMutability": "view",
            "type": "function"
        },
        {
            "inputs": [
                {
                    "internalType": "uint256",
                    "name": "seqOfShare",
                    "type": "uint256"
                },
                {
                    "internalType": "uint64",
                    "name": "paid",
                    "type": "uint64"
                }
            ],
            "name": "increaseCleanPaid",
            "outputs": [],
            "stateMutability": "nonpayable",
            "type": "function"
        },
        {
            "inputs": [
                {
                    "internalType": "uint256",
                    "name": "owner",
                    "type": "uint256"
                },
                {
                    "internalType": "address",
                    "name": "directKeeper",
                    "type": "address"
                },
                {
                    "internalType": "address",
                    "name": "regCenter",
                    "type": "address"
                },
                {
                    "internalType": "address",
                    "name": "generalKeeper",
                    "type": "address"
                }
            ],
            "name": "init",
            "outputs": [],
            "stateMutability": "nonpayable",
            "type": "function"
        },
        {
            "inputs": [],
            "name": "initROM",
            "outputs": [],
            "stateMutability": "nonpayable",
            "type": "function"
        },
        {
            "inputs": [
                {
                    "internalType": "uint256",
                    "name": "seqOfShare",
                    "type": "uint256"
                }
            ],
            "name": "isShare",
            "outputs": [
                {
                    "internalType": "bool",
                    "name": "",
                    "type": "bool"
                }
            ],
            "stateMutability": "view",
            "type": "function"
        },
        {
            "inputs": [
                {
                    "internalType": "uint256",
                    "name": "shareNumber",
                    "type": "uint256"
                },
                {
                    "internalType": "uint48",
                    "name": "payInDeadline",
                    "type": "uint48"
                },
                {
                    "internalType": "uint64",
                    "name": "paid",
                    "type": "uint64"
                },
                {
                    "internalType": "uint64",
                    "name": "par",
                    "type": "uint64"
                }
            ],
            "name": "issueShare",
            "outputs": [],
            "stateMutability": "nonpayable",
            "type": "function"
        },
        {
            "inputs": [],
            "name": "lockContents",
            "outputs": [],
            "stateMutability": "nonpayable",
            "type": "function"
        },
        {
            "inputs": [
                {
                    "components": [
                        {
                            "components": [
                                {
                                    "internalType": "uint32",
                                    "name": "seqOfShare",
                                    "type": "uint32"
                                },
                                {
                                    "internalType": "uint32",
                                    "name": "preSeq",
                                    "type": "uint32"
                                },
                                {
                                    "internalType": "uint16",
                                    "name": "class",
                                    "type": "uint16"
                                },
                                {
                                    "internalType": "uint48",
                                    "name": "issueDate",
                                    "type": "uint48"
                                },
                                {
                                    "internalType": "uint40",
                                    "name": "shareholder",
                                    "type": "uint40"
                                },
                                {
                                    "internalType": "uint32",
                                    "name": "price",
                                    "type": "uint32"
                                }
                            ],
                            "internalType": "struct SharesRepo.Head",
                            "name": "head",
                            "type": "tuple"
                        },
                        {
                            "components": [
                                {
                                    "internalType": "uint48",
                                    "name": "payInDeadline",
                                    "type": "uint48"
                                },
                                {
                                    "internalType": "uint64",
                                    "name": "paid",
                                    "type": "uint64"
                                },
                                {
                                    "internalType": "uint64",
                                    "name": "par",
                                    "type": "uint64"
                                },
                                {
                                    "internalType": "uint64",
                                    "name": "cleanPaid",
                                    "type": "uint64"
                                },
                                {
                                    "internalType": "uint8",
                                    "name": "state",
                                    "type": "uint8"
                                }
                            ],
                            "internalType": "struct SharesRepo.Body",
                            "name": "body",
                            "type": "tuple"
                        }
                    ],
                    "internalType": "struct SharesRepo.Share",
                    "name": "share",
                    "type": "tuple"
                }
            ],
            "name": "regShare",
            "outputs": [
                {
                    "components": [
                        {
                            "components": [
                                {
                                    "internalType": "uint32",
                                    "name": "seqOfShare",
                                    "type": "uint32"
                                },
                                {
                                    "internalType": "uint32",
                                    "name": "preSeq",
                                    "type": "uint32"
                                },
                                {
                                    "internalType": "uint16",
                                    "name": "class",
                                    "type": "uint16"
                                },
                                {
                                    "internalType": "uint48",
                                    "name": "issueDate",
                                    "type": "uint48"
                                },
                                {
                                    "internalType": "uint40",
                                    "name": "shareholder",
                                    "type": "uint40"
                                },
                                {
                                    "internalType": "uint32",
                                    "name": "price",
                                    "type": "uint32"
                                }
                            ],
                            "internalType": "struct SharesRepo.Head",
                            "name": "head",
                            "type": "tuple"
                        },
                        {
                            "components": [
                                {
                                    "internalType": "uint48",
                                    "name": "payInDeadline",
                                    "type": "uint48"
                                },
                                {
                                    "internalType": "uint64",
                                    "name": "paid",
                                    "type": "uint64"
                                },
                                {
                                    "internalType": "uint64",
                                    "name": "par",
                                    "type": "uint64"
                                },
                                {
                                    "internalType": "uint64",
                                    "name": "cleanPaid",
                                    "type": "uint64"
                                },
                                {
                                    "internalType": "uint8",
                                    "name": "state",
                                    "type": "uint8"
                                }
                            ],
                            "internalType": "struct SharesRepo.Body",
                            "name": "body",
                            "type": "tuple"
                        }
                    ],
                    "internalType": "struct SharesRepo.Share",
                    "name": "newShare",
                    "type": "tuple"
                }
            ],
            "stateMutability": "nonpayable",
            "type": "function"
        },
        {
            "inputs": [
                {
                    "internalType": "bytes32",
                    "name": "role",
                    "type": "bytes32"
                }
            ],
            "name": "renounceRole",
            "outputs": [],
            "stateMutability": "nonpayable",
            "type": "function"
        },
        {
            "inputs": [
                {
                    "internalType": "uint256",
                    "name": "snOfLocker",
                    "type": "uint256"
                },
                {
                    "internalType": "string",
                    "name": "hashKey",
                    "type": "string"
                },
                {
                    "internalType": "uint8",
                    "name": "salt",
                    "type": "uint8"
                },
                {
                    "internalType": "uint256",
                    "name": "caller",
                    "type": "uint256"
                }
            ],
            "name": "requestPaidInCapital",
            "outputs": [],
            "stateMutability": "nonpayable",
            "type": "function"
        },
        {
            "inputs": [
                {
                    "internalType": "bytes32",
                    "name": "role",
                    "type": "bytes32"
                },
                {
                    "internalType": "uint256",
                    "name": "acct",
                    "type": "uint256"
                }
            ],
            "name": "revokeRole",
            "outputs": [],
            "stateMutability": "nonpayable",
            "type": "function"
        },
        {
            "inputs": [
                {
                    "internalType": "address",
                    "name": "keeper",
                    "type": "address"
                }
            ],
            "name": "setDirectKeeper",
            "outputs": [],
            "stateMutability": "nonpayable",
            "type": "function"
        },
        {
            "inputs": [
                {
                    "internalType": "uint256",
                    "name": "acct",
                    "type": "uint256"
                }
            ],
            "name": "setGeneralCounsel",
            "outputs": [],
            "stateMutability": "nonpayable",
            "type": "function"
        },
        {
            "inputs": [
                {
                    "internalType": "uint256",
                    "name": "acct",
                    "type": "uint256"
                }
            ],
            "name": "setOwner",
            "outputs": [],
            "stateMutability": "nonpayable",
            "type": "function"
        },
        {
            "inputs": [
                {
                    "internalType": "uint256",
                    "name": "snOfLocker",
                    "type": "uint256"
                },
                {
                    "internalType": "uint64",
                    "name": "amount",
                    "type": "uint64"
                }
            ],
            "name": "setPayInAmt",
            "outputs": [],
            "stateMutability": "nonpayable",
            "type": "function"
        },
        {
            "inputs": [
                {
                    "internalType": "bytes32",
                    "name": "role",
                    "type": "bytes32"
                },
                {
                    "internalType": "uint256",
                    "name": "acct",
                    "type": "uint256"
                }
            ],
            "name": "setRoleAdmin",
            "outputs": [],
            "stateMutability": "nonpayable",
            "type": "function"
        },
        {
            "inputs": [
                {
                    "internalType": "uint256",
                    "name": "seqOfShare",
                    "type": "uint256"
                },
                {
                    "internalType": "uint64",
                    "name": "paid",
                    "type": "uint64"
                },
                {
                    "internalType": "uint64",
                    "name": "par",
                    "type": "uint64"
                },
                {
                    "internalType": "uint40",
                    "name": "to",
                    "type": "uint40"
                },
                {
                    "internalType": "uint32",
                    "name": "price",
                    "type": "uint32"
                }
            ],
            "name": "transferShare",
            "outputs": [],
            "stateMutability": "nonpayable",
            "type": "function"
        },
        {
            "inputs": [
                {
                    "internalType": "uint256",
                    "name": "seqOfShare",
                    "type": "uint256"
                },
                {
                    "internalType": "uint48",
                    "name": "deadline",
                    "type": "uint48"
                }
            ],
            "name": "updatePaidInDeadline",
            "outputs": [],
            "stateMutability": "nonpayable",
            "type": "function"
        },
        {
            "inputs": [
                {
                    "internalType": "uint256",
                    "name": "seqOfShare",
                    "type": "uint256"
                },
                {
                    "internalType": "uint8",
                    "name": "state",
                    "type": "uint8"
                }
            ],
            "name": "updateStateOfShare",
            "outputs": [],
            "stateMutability": "nonpayable",
            "type": "function"
        },
        {
            "inputs": [
                {
                    "internalType": "uint256",
                    "name": "snOfLocker",
                    "type": "uint256"
                }
            ],
            "name": "withdrawPayInAmt",
            "outputs": [],
            "stateMutability": "nonpayable",
            "type": "function"
        }
    ],
    "bytecode": "608060405234801561001057600080fd5b50613c21806100206000396000f3fe608060405234801561001057600080fd5b50600436106102115760003560e01c80637e063c5a11610125578063cfb5a5f8116100ad578063ef607efb1161007c578063ef607efb14610532578063f045a76914610545578063f0d6c1091461054d578063f814b80014610560578063fa9e79341461057357600080fd5b8063cfb5a5f8146104d9578063dc8492ce146104ec578063dc890da9146104ff578063ed2110231461051257600080fd5b8063911ec7ce116100f4578063911ec7ce1461046b57806392c80eb71461047e5780639cc12eb21461049e578063b3f05b97146104b1578063b50a061c146104c657600080fd5b80637e063c5a1461042a5780638041494e1461043d578063893d20e8146104505780638bb9c5bf1461045857600080fd5b80633da9a600116101a85780635171ebd4116101775780635171ebd41461037b578063544f1ba21461038e57806358ebd89b146103d75780636be8496f146103f7578063773850eb1461040a57600080fd5b80633da9a600146103025780634a0ca0d6146103155780634a14beb1146103555780634fc3e83f1461036857600080fd5b806319d61ad9116101e457806319d61ad9146102a95780631b6ea9f9146102bc5780631c770c1d146102cf5780633311ece6146102ef57600080fd5b8063041bbe62146102165780630b1bd2431461022b5780630c1d138b14610268578063103f6edd1461028b575b600080fd5b610229610224366004613149565b61057b565b005b61024b610239366004613179565b60009081526008602052604090205490565b6040516001600160401b0390911681526020015b60405180910390f35b61027b610276366004613179565b610809565b604051901515815260200161025f565b61029361082c565b60405164ffffffffff909116815260200161025f565b6102296102b7366004613192565b6108b8565b6102296102ca366004613192565b61094c565b6102e26102dd3660046131c4565b610971565b60405161025f91906131e1565b6102296102fd366004613179565b610a0b565b610229610310366004613179565b610b7e565b60008052600560209081527f05b8ccbb9d4d8fb16ea74ce3c29a41f1b461fbdaff4714a0d9a8eb05499746bc5460405163ffffffff90911681520161025f565b610229610363366004613179565b610c90565b610229610376366004613239565b610e80565b610229610389366004613192565b61100f565b6000805260056020527f05b8ccbb9d4d8fb16ea74ce3c29a41f1b461fbdaff4714a0d9a8eb05499746bc54600160401b900461ffff1660405161ffff909116815260200161025f565b6103ea6103e5366004613179565b611034565b60405161025f91906132aa565b6102296104053660046132cd565b611100565b61041d61041836600461345b565b6111b2565b60405161025f9190613571565b61027b610438366004613192565b6113a5565b61022961044b366004613179565b611440565b610293611625565b610229610466366004613179565b611660565b61022961047936600461359e565b6116b9565b61049161048c366004613179565b611995565b60405161025f91906135f1565b6102296104ac366004613149565b611a70565b600354600160f01b900460ff1660021461027b565b6102296104d4366004613149565b611c06565b61041d6104e7366004613179565b611e59565b6102296104fa3660046135ff565b611f80565b61022961050d366004613641565b612116565b61051a6121f9565b6040516001600160a01b03909116815260200161025f565b610229610540366004613689565b61227f565b61022961257b565b61022961055b36600461373f565b612799565b61022961056e3660046137a7565b612a13565b610229612b47565b8161058581610809565b6105aa5760405162461bcd60e51b81526004016105a1906137cc565b60405180910390fd5b6000838152600560205260409020600101548390600160f01b900460ff16156105e55760405162461bcd60e51b81526004016105a190613803565b60015460405163e0ff5b8b60e01b8152600560048201526001600160a01b039091169063e0ff5b8b9060240160206040518083038186803b15801561062957600080fd5b505afa15801561063d573d6000803e3d6000fd5b505050506040513d601f19601f82011682018060405250810190610661919061383a565b6001600160a01b0316336001600160a01b031614806106f657506001546040516335d2155560e11b81523360048201526001600160a01b0390911690636ba42aaa9060240160206040518083038186803b1580156106be57600080fd5b505afa1580156106d2573d6000803e3d6000fd5b505050506040513d601f19601f820116820180604052508101906106f69190613857565b6107425760405162461bcd60e51b815260206004820152601f60248201527f424f532e4443413a206e656974686572206b6565706572206e6f7220424f500060448201526064016105a1565b6040516001600160401b038416815284907fb72c9cd1888f9dbdd012ba9ee7b5830a4d4ab3816c3361babf2423d6ccfda7389060200160405180910390a260008481526005602052604090819020905163354fc50b60e21b815260048101919091526001600160401b038416602482015273__$8e58971381edbbe3ac3690dc260b78dff1$__9063d53f142c906044015b60006040518083038186803b1580156107eb57600080fd5b505af41580156107ff573d6000803e3d6000fd5b5050505050505050565b600090815260056020526040902054600160501b900465ffffffffffff16151590565b60405163e8c0cc1d60e01b81526003600482015260009073__$364aad554dc80380f414546becdd2c1584$__9063e8c0cc1d906024015b60206040518083038186803b15801561087b57600080fd5b505af415801561088f573d6000803e3d6000fd5b505050506040513d601f19601f820116820180604052508101906108b39190613879565b905090565b73__$364aad554dc80380f414546becdd2c1584$__6382daafaa6003846108dd612c20565b6040516001600160e01b031960e086901b1681526004810193909352602483019190915264ffffffffff166044820152606481018490526084015b60006040518083038186803b15801561093057600080fd5b505af4158015610944573d6000803e3d6000fd5b505050505050565b73__$364aad554dc80380f414546becdd2c1584$__636320d75e6003846108dd612c20565b60405163e8b7acb160e01b81526005600482015261ffff8216602482015260609073__$8e58971381edbbe3ac3690dc260b78dff1$__9063e8b7acb19060440160006040518083038186803b1580156109c957600080fd5b505af41580156109dd573d6000803e3d6000fd5b505050506040513d6000823e601f3d908101601f19168201604052610a059190810190613896565b92915050565b604051633b11adbf60e21b81526003600482015233602482015273__$364aad554dc80380f414546becdd2c1584$__9063ec46b6fc9060440160206040518083038186803b158015610a5c57600080fd5b505af4158015610a70573d6000803e3d6000fd5b505050506040513d601f19601f82011682018060405250810190610a949190613857565b610ab05760405162461bcd60e51b81526004016105a19061393b565b6040516362df592560e11b8152600860048201526024810182905263ffffffff60d883901c16604482015273__$223a7d8e77d13d34061b834adce3068cce$__9063c5beb24a9060640160206040518083038186803b158015610b1257600080fd5b505af4158015610b26573d6000803e3d6000fd5b505050506040513d601f19601f82011682018060405250810190610b4a9190613857565b15610b7b5760405181907fff565db01e1ca5241a38635847f870c8c9a5eaca2245ed59b70dbc0471062eeb90600090a25b50565b604051633b11adbf60e21b81526003600482015233602482015273__$364aad554dc80380f414546becdd2c1584$__9063ec46b6fc9060440160206040518083038186803b158015610bcf57600080fd5b505af4158015610be3573d6000803e3d6000fd5b505050506040513d601f19601f82011682018060405250810190610c079190613857565b610c235760405162461bcd60e51b81526004016105a19061393b565b60405163cc99e11b60e01b8152600360048201526024810182905273__$364aad554dc80380f414546becdd2c1584$__9063cc99e11b9060440160006040518083038186803b158015610c7557600080fd5b505af4158015610c89573d6000803e3d6000fd5b5050505050565b604051633b11adbf60e21b81526003600482015233602482015273__$364aad554dc80380f414546becdd2c1584$__9063ec46b6fc9060440160206040518083038186803b158015610ce157600080fd5b505af4158015610cf5573d6000803e3d6000fd5b505050506040513d601f19601f82011682018060405250810190610d199190613857565b80610dbe575073__$364aad554dc80380f414546becdd2c1584$__63fe2710866003610d43612c20565b6040516001600160e01b031960e085901b168152600481019290925264ffffffffff16602482015260440160206040518083038186803b158015610d8657600080fd5b505af4158015610d9a573d6000803e3d6000fd5b505050506040513d601f19601f82011682018060405250810190610dbe9190613857565b610dda5760405162461bcd60e51b81526004016105a190613981565b604051632725ebef60e21b8152600360048201526024810182905273__$364aad554dc80380f414546becdd2c1584$__90639c97afbc9060440160006040518083038186803b158015610e2c57600080fd5b505af4158015610e40573d6000803e3d6000fd5b505050507ff2735f34b69be1e6342dea95f9162f84d0db925fab655ca9f1f312ac8cbfc99d81604051610e7591815260200190565b60405180910390a150565b604051633b11adbf60e21b81526003600482015233602482015273__$364aad554dc80380f414546becdd2c1584$__9063ec46b6fc9060440160206040518083038186803b158015610ed157600080fd5b505af4158015610ee5573d6000803e3d6000fd5b505050506040513d601f19601f82011682018060405250810190610f099190613857565b610f255760405162461bcd60e51b81526004016105a19061393b565b81610f2f81610809565b610f4b5760405162461bcd60e51b81526004016105a1906137cc565b60405165ffffffffffff8316815283907fb1d746b4269a9a2c553dca3e41e1d00ec56cc587654a944c80e775cc748ff33f9060200160405180910390a26000838152600560205260409081902090516314950e2f60e01b8152600481019190915265ffffffffffff8316602482015273__$8e58971381edbbe3ac3690dc260b78dff1$__906314950e2f906044015b60006040518083038186803b158015610ff257600080fd5b505af4158015611006573d6000803e3d6000fd5b50505050505050565b73__$364aad554dc80380f414546becdd2c1584$__63ee98b3136003846108dd612c20565b6040805160a0810182526000808252602082018190529181018290526060810182905260808101919091528161106981610809565b6110855760405162461bcd60e51b81526004016105a1906137cc565b5050600090815260056020908152604091829020825160a08101845260019091015465ffffffffffff81168252660100000000000081046001600160401b0390811693830193909352600160701b8104831693820193909352600160b01b83049091166060820152600160f01b90910460ff16608082015290565b604051630f07232560e01b8152600360048201523360248201526001600160a01b038216604482015273__$364aad554dc80380f414546becdd2c1584$__90630f0723259060640160006040518083038186803b15801561116057600080fd5b505af4158015611174573d6000803e3d6000fd5b50506040516001600160a01b03841681527fe435cbeab64e4eae6497b9d8289704bd709d624a80704ef3ca9af777534bc6ec92506020019050610e75565b6111ba6130c9565b6001546040516335d2155560e11b81523360048201526001600160a01b0390911690636ba42aaa9060240160206040518083038186803b1580156111fd57600080fd5b505afa158015611211573d6000803e3d6000fd5b505050506040513d601f19601f820116820180604052508101906112359190613857565b6112515760405162461bcd60e51b81526004016105a1906139d7565b604051634582ac0d60e01b815273__$8e58971381edbbe3ac3690dc260b78dff1$__90634582ac0d9061128b906005908690600401613a02565b6101606040518083038186803b1580156112a457600080fd5b505af41580156112b8573d6000803e3d6000fd5b505050506040513d601f19601f820116820180604052508101906112dc9190613aa6565b8051516020808301518082015160409182015182516001600160401b03928316815291169281019290925292935063ffffffff909116917f6c3d2799cf918b37e55e666ec4d7d16f8aa9bc71fc2a3abf548e23f6dad58724910160405180910390a2600254604051634fa7d59560e11b81526001600160a01b0390911690639f4fab2a9061136e908490600401613571565b600060405180830381600087803b15801561138857600080fd5b505af115801561139c573d6000803e3d6000fd5b50505050919050565b604051632a3be56b60e21b815260036004820152602481018390526044810182905260009073__$364aad554dc80380f414546becdd2c1584$__9063a8ef95ac9060640160206040518083038186803b15801561140157600080fd5b505af4158015611415573d6000803e3d6000fd5b505050506040513d601f19601f820116820180604052508101906114399190613857565b9392505050565b604051633b11adbf60e21b81526003600482015233602482015273__$364aad554dc80380f414546becdd2c1584$__9063ec46b6fc9060440160206040518083038186803b15801561149157600080fd5b505af41580156114a5573d6000803e3d6000fd5b505050506040513d601f19601f820116820180604052508101906114c99190613857565b8061156e575073__$364aad554dc80380f414546becdd2c1584$__63fe27108660036114f3612c20565b6040516001600160e01b031960e085901b168152600481019290925264ffffffffff16602482015260440160206040518083038186803b15801561153657600080fd5b505af415801561154a573d6000803e3d6000fd5b505050506040513d601f19601f8201168201806040525081019061156e9190613857565b61158a5760405162461bcd60e51b81526004016105a190613981565b60405163b6e38a2960e01b8152600360048201526024810182905273__$364aad554dc80380f414546becdd2c1584$__9063b6e38a299060440160006040518083038186803b1580156115dc57600080fd5b505af41580156115f0573d6000803e3d6000fd5b505050507f8b6f40f36b4ae8cc5f55e895036457c43da4ab1f80f58c46f5ff0d72a650033b81604051610e7591815260200190565b60405163987ad15360e01b81526003600482015260009073__$364aad554dc80380f414546becdd2c1584$__9063987ad15390602401610863565b600061166a612c20565b60405163cc0d511b60e01b8152600360048201526024810184905264ffffffffff8216604482015290915073__$364aad554dc80380f414546becdd2c1584$__9063cc0d511b90606401610918565b6001546040516335d2155560e11b81523360048201526001600160a01b0390911690636ba42aaa9060240160206040518083038186803b1580156116fc57600080fd5b505afa158015611710573d6000803e3d6000fd5b505050506040513d601f19601f820116820180604052508101906117349190613857565b6117505760405162461bcd60e51b81526004016105a1906139d7565b60405163b8a27bbd60e01b8152600560048201526024810185905265ffffffffffff841660448201526001600160401b0380841660648301528216608482015260009073__$8e58971381edbbe3ac3690dc260b78dff1$__9063b8a27bbd9060a4016101606040518083038186803b1580156117cb57600080fd5b505af41580156117df573d6000803e3d6000fd5b505050506040513d601f19601f820116820180604052508101906118039190613aa6565b600254815160800151604051631089f5ed60e01b815264ffffffffff90911660048201529192506001600160a01b031690631089f5ed90602401600060405180830381600087803b15801561185757600080fd5b505af115801561186b573d6000803e3d6000fd5b5050825151604080516001600160401b0380891682528716602082015263ffffffff90921693507f6c3d2799cf918b37e55e666ec4d7d16f8aa9bc71fc2a3abf548e23f6dad5872492500160405180910390a2600254604051634fa7d59560e11b81526001600160a01b0390911690639f4fab2a906118ee908490600401613571565b600060405180830381600087803b15801561190857600080fd5b505af115801561191c573d6000803e3d6000fd5b5050600254604051639a3ca24b60e01b81526001600160401b038088166004830152861660248201526001600160a01b039091169250639a3ca24b9150604401600060405180830381600087803b15801561197657600080fd5b505af115801561198a573d6000803e3d6000fd5b505050505050505050565b6040805160c081018252600080825260208201819052918101829052606081018290526080810182905260a0810191909152816119d181610809565b6119ed5760405162461bcd60e51b81526004016105a1906137cc565b5050600090815260056020908152604091829020825160c081018452905463ffffffff8082168352640100000000820481169383019390935261ffff600160401b8204169382019390935265ffffffffffff600160501b840416606082015264ffffffffff600160801b8404166080820152600160a81b9092041660a082015290565b604051633b11adbf60e21b81526003600482015233602482015273__$364aad554dc80380f414546becdd2c1584$__9063ec46b6fc9060440160206040518083038186803b158015611ac157600080fd5b505af4158015611ad5573d6000803e3d6000fd5b505050506040513d601f19601f82011682018060405250810190611af99190613857565b611b155760405162461bcd60e51b81526004016105a19061393b565b60405163a30ad42160e01b815260086004820152602481018390526001600160401b038216604482015263ffffffff60d884901c16606482015273__$223a7d8e77d13d34061b834adce3068cce$__9063a30ad4219060840160206040518083038186803b158015611b8657600080fd5b505af4158015611b9a573d6000803e3d6000fd5b505050506040513d601f19601f82011682018060405250810190611bbe9190613857565b15611c02576040516001600160401b038216815282907f819d003607ad8514c90e096511ffb254a3d756f9ff2d230bba6e059422661e009060200160405180910390a25b5050565b81611c1081610809565b611c2c5760405162461bcd60e51b81526004016105a1906137cc565b6000838152600560205260409020600101548390600160f01b900460ff1615611c675760405162461bcd60e51b81526004016105a190613803565b60015460405163e0ff5b8b60e01b8152600560048201526001600160a01b039091169063e0ff5b8b9060240160206040518083038186803b158015611cab57600080fd5b505afa158015611cbf573d6000803e3d6000fd5b505050506040513d601f19601f82011682018060405250810190611ce3919061383a565b6001600160a01b0316336001600160a01b03161480611d7857506001546040516335d2155560e11b81523360048201526001600160a01b0390911690636ba42aaa9060240160206040518083038186803b158015611d4057600080fd5b505afa158015611d54573d6000803e3d6000fd5b505050506040513d601f19601f82011682018060405250810190611d789190613857565b611dc45760405162461bcd60e51b815260206004820152601f60248201527f424f532e4443413a206e656974686572206b6565706572206e6f7220424f500060448201526064016105a1565b6040516001600160401b038416815284907f3105bfaeee538d07d617eaf0131dcc7fb3edc55451b217b56d33ef24b409ee1a9060200160405180910390a2600084815260056020526040908190209051630c20b21360e01b815260048101919091526001600160401b038416602482015273__$8e58971381edbbe3ac3690dc260b78dff1$__90630c20b213906044016107d3565b611e616130c9565b81611e6b81610809565b611e875760405162461bcd60e51b81526004016105a1906137cc565b5050600090815260056020908152604091829020825161010081018452815463ffffffff80821683870190815264010000000083048216606080860191909152600160401b840461ffff16608080870191909152600160501b850465ffffffffffff90811660a080890191909152600160801b870464ffffffffff1660c0890152600160a81b90960490941660e0870152918552875193840188526001909501549182168352660100000000000082046001600160401b0390811684880152600160701b8304811697840197909752600160b01b820490961693820193909352600160f01b90920460ff16938201939093529082015290565b604051633b11adbf60e21b81526003600482015233602482015273__$364aad554dc80380f414546becdd2c1584$__9063ec46b6fc9060440160206040518083038186803b158015611fd157600080fd5b505af4158015611fe5573d6000803e3d6000fd5b505050506040513d601f19601f820116820180604052508101906120099190613857565b6120255760405162461bcd60e51b81526004016105a19061393b565b8261202f81610809565b61204b5760405162461bcd60e51b81526004016105a1906137cc565b6000848152600560205260409020600101548490600160f01b900460ff16156120865760405162461bcd60e51b81526004016105a190613803565b600085815260056020526040902061209f818686612c7a565b6002546040516372cc64f960e01b81526001600160401b038088166004830152861660248201526001600160a01b03909116906372cc64f9906044015b600060405180830381600087803b1580156120f657600080fd5b505af115801561210a573d6000803e3d6000fd5b50505050505050505050565b61211f82612ec6565b61212881612f75565b604051636cdd0edf60e11b815260036004820152602481018590526001600160a01b038416604482015273__$364aad554dc80380f414546becdd2c1584$__9063d9ba1dbe9060640160006040518083038186803b15801561218957600080fd5b505af415801561219d573d6000803e3d6000fd5b5050604080518781526001600160a01b038781166020830152868116828401528516606082015290517f3abb2418c66fe32ba9c883030a75ce583971d9af9192b9b74e44e67c5e6c8c1f9350908190036080019150a150505050565b604051633c3e56c160e11b81526003600482015260009073__$364aad554dc80380f414546becdd2c1584$__9063787cad829060240160206040518083038186803b15801561224757600080fd5b505af415801561225b573d6000803e3d6000fd5b505050506040513d601f19601f820116820180604052508101906108b3919061383a565b604051633b11adbf60e21b81526003600482015233602482015273__$364aad554dc80380f414546becdd2c1584$__9063ec46b6fc9060440160206040518083038186803b1580156122d057600080fd5b505af41580156122e4573d6000803e3d6000fd5b505050506040513d601f19601f820116820180604052508101906123089190613857565b6123245760405162461bcd60e51b81526004016105a19061393b565b604051630ddaaed560e11b815260009073__$223a7d8e77d13d34061b834adce3068cce$__90631bb55daa90612367906008908990899089908990600401613b56565b60206040518083038186803b15801561237f57600080fd5b505af4158015612393573d6000803e3d6000fd5b505050506040513d601f19601f820116820180604052508101906123b79190613bd2565b90506001600160401b03811615610c895760d885901c63ffffffff1660009081526005602052604090208054600160801b900464ffffffffff16831461243f5760405162461bcd60e51b815260206004820152601960248201527f424f532e525049433a206e6f74207368617265686f6c6465720000000000000060448201526064016105a1565b60405163bd9ecfc160e01b8152600481018290526001600160401b038316602482015273__$8e58971381edbbe3ac3690dc260b78dff1$__9063bd9ecfc19060440160006040518083038186803b15801561249957600080fd5b505af41580156124ad573d6000803e3d6000fd5b505060025483546040516325b3f84560e21b8152600160801b90910464ffffffffff1660048201526001600160401b038616602482015260006044820152600160648201526001600160a01b0390911692506396cfe1149150608401600060405180830381600087803b15801561252357600080fd5b505af1158015612537573d6000803e3d6000fd5b5050600254604051639a3ca24b60e01b81526001600160401b0386166004820152600060248201526001600160a01b039091169250639a3ca24b91506044016120dc565b604051633b11adbf60e21b81526003600482015233602482015273__$364aad554dc80380f414546becdd2c1584$__9063ec46b6fc9060440160206040518083038186803b1580156125cc57600080fd5b505af41580156125e0573d6000803e3d6000fd5b505050506040513d601f19601f820116820180604052508101906126049190613857565b6126205760405162461bcd60e51b81526004016105a19061393b565b600354600160f01b900460ff1660011461267c5760405162461bcd60e51b815260206004820181905260248201527f41432e6f6e6c7950656e64696e673a20446f632069732066696e616c697a656460448201526064016105a1565b60405163cc99e11b60e01b815260036004820152684174746f726e65797360b81b602482015273__$364aad554dc80380f414546becdd2c1584$__9063cc99e11b9060440160006040518083038186803b1580156126d957600080fd5b505af41580156126ed573d6000803e3d6000fd5b5050604051632725ebef60e21b8152600360048201526000602482015273__$364aad554dc80380f414546becdd2c1584$__9250639c97afbc915060440160006040518083038186803b15801561274357600080fd5b505af4158015612757573d6000803e3d6000fd5b50506003805460ff60f01b1916600160f11b17905550506040517f35012b512309c322acf68632cd6cb702ff0e1d776fbe9394e38ffc13b434fe7590600090a1565b6001546040516335d2155560e11b81523360048201526001600160a01b0390911690636ba42aaa9060240160206040518083038186803b1580156127dc57600080fd5b505afa1580156127f0573d6000803e3d6000fd5b505050506040513d601f19601f820116820180604052508101906128149190613857565b6128305760405162461bcd60e51b81526004016105a1906139d7565b8461283a81610809565b6128565760405162461bcd60e51b81526004016105a1906137cc565b6000868152600560205260409020600101548690600160f01b900460ff16156128915760405162461bcd60e51b81526004016105a190613803565b600087815260056020526040902064ffffffffff85166128f35760405162461bcd60e51b815260206004820152601b60248201527f424f532e54533a207368617265686f6c646572206973205a45524f000000000060448201526064016105a1565b6128fe818888612c7a565b600254604051631089f5ed60e01b815264ffffffffff871660048201526001600160a01b0390911690631089f5ed90602401600060405180830381600087803b15801561294a57600080fd5b505af115801561295e573d6000803e3d6000fd5b5050505061296a6130c9565b6040805160c0810182526000808252845463ffffffff808216602080860191909152600160401b90920461ffff16848601524265ffffffffffff90811660608087019190915264ffffffffff8d16608080880191909152928c1660a08088019190915295885286519586018752600189015490911685526001600160401b038e8116868501819052908e1696860196909652840194909452928201529082015261210a816111b2565b604051633b11adbf60e21b81526003600482015233602482015273__$364aad554dc80380f414546becdd2c1584$__9063ec46b6fc9060440160206040518083038186803b158015612a6457600080fd5b505af4158015612a78573d6000803e3d6000fd5b505050506040513d601f19601f82011682018060405250810190612a9c9190613857565b612ab85760405162461bcd60e51b81526004016105a19061393b565b81612ac281610809565b612ade5760405162461bcd60e51b81526004016105a1906137cc565b60405160ff8316815283907fc642f56040f5e6aa8e4b5f4d4dcaa794fff6729880b1e4477d8c7e576931ac149060200160405180910390a250600091825260056020526040909120600101805460ff909216600160f01b0260ff60f01b19909216919091179055565b60015460405163e0ff5b8b60e01b8152600760048201526001600160a01b039091169063e0ff5b8b9060240160206040518083038186803b158015612b8b57600080fd5b505afa158015612b9f573d6000803e3d6000fd5b505050506040513d601f19601f82011682018060405250810190612bc3919061383a565b600280546001600160a01b03929092166001600160a01b031990921682179055604080516007815260208101929092527f6aa5e483fe137161b095cd68564a336d1657057f57987b1ae21019134dbc8da2910160405180910390a1565b60008054604051634de835e760e11b81523360048201526001600160a01b0390911690639bd06bce90602401602060405180830381600087803b158015612c6657600080fd5b505af115801561088f573d6000803e3d6000fd5b60018301546001600160401b03828116600160701b909204161415612e345760025460405163d7907a4f60e01b81526001600160a01b039091169063d7907a4f90612d6a908690600401815463ffffffff8082168352602082811c821690840152604082811c61ffff1690840152605082901c65ffffffffffff9081166060850152608083811c64ffffffffff169085015260a89290921c1660a083015260019092015491821660c0820152603082901c6001600160401b0390811660e0830152607083901c811661010083015260b083901c1661012082015260f09190911c60ff166101408201526101600190565b600060405180830381600087803b158015612d8457600080fd5b505af1158015612d98573d6000803e3d6000fd5b50508454604051631b7a23db60e21b81526005600482015263ffffffff909116602482015273__$8e58971381edbbe3ac3690dc260b78dff1$__9250636de88f6c915060440160206040518083038186803b158015612df657600080fd5b505af4158015612e0a573d6000803e3d6000fd5b505050506040513d601f19601f82011682018060405250810190612e2e9190613857565b50505050565b612e3f83838361302c565b60025483546040516325b3f84560e21b8152600160801b90910464ffffffffff1660048201526001600160401b03808516602483015283166044820152600060648201526001600160a01b03909116906396cfe11490608401600060405180830381600087803b158015612eb257600080fd5b505af1158015611006573d6000803e3d6000fd5b6000546001600160a01b031615612f175760405162461bcd60e51b815260206004820152601560248201527430b63932b0b23c9039b2ba103932b3a1b2b73a32b960591b60448201526064016105a1565b6040516001600160a01b03821681527f318da6c7624c71cbc0afe346c9d8827f119d0ecefb241a7b0c87217a076a8e029060200160405180910390a1600080546001600160a01b0319166001600160a01b0392909216919091179055565b6001546001600160a01b031615612fce5760405162461bcd60e51b815260206004820152601960248201527f616c7265616479207365742067656e6572616c4b65657065720000000000000060448201526064016105a1565b6040516001600160a01b03821681527fe513d3e0f0d0a3877029dcc588748679a7a3450ec1ec7ed56d96bd012c3e61aa9060200160405180910390a1600180546001600160a01b0319166001600160a01b0392909216919091179055565b8254604080516001600160401b0380861682528416602082015263ffffffff909216917f2a54ff18fcefc52233e2885a21b2b24c4f6b7deb0a116564b46dac5f9332720e910160405180910390a26040516313c0158d60e31b8152600481018490526001600160401b0380841660248301528216604482015273__$8e58971381edbbe3ac3690dc260b78dff1$__90639e00ac6890606401610fda565b60408051610100810182526000918101828152606082018390526080820183905260a0820183905260c0820183905260e082019290925290819081526040805160a0810182526000808252602082810182905292820181905260608201819052608082015291015290565b6001600160401b0381168114610b7b57600080fd5b6000806040838503121561315c57600080fd5b82359150602083013561316e81613134565b809150509250929050565b60006020828403121561318b57600080fd5b5035919050565b600080604083850312156131a557600080fd5b50508035926020909101359150565b61ffff81168114610b7b57600080fd5b6000602082840312156131d657600080fd5b8135611439816131b4565b6020808252825182820181905260009190848201906040850190845b81811015613219578351835292840192918401916001016131fd565b50909695505050505050565b65ffffffffffff81168114610b7b57600080fd5b6000806040838503121561324c57600080fd5b82359150602083013561316e81613225565b65ffffffffffff815116825260208101516001600160401b038082166020850152806040840151166040850152806060840151166060850152505060ff60808201511660808301525050565b60a08101610a05828461325e565b6001600160a01b0381168114610b7b57600080fd5b6000602082840312156132df57600080fd5b8135611439816132b8565b634e487b7160e01b600052604160045260246000fd5b60405160a081016001600160401b0381118282101715613322576133226132ea565b60405290565b604080519081016001600160401b0381118282101715613322576133226132ea565b60405160c081016001600160401b0381118282101715613322576133226132ea565b604051601f8201601f191681016001600160401b0381118282101715613394576133946132ea565b604052919050565b63ffffffff81168114610b7b57600080fd5b64ffffffffff81168114610b7b57600080fd5b60ff81168114610b7b57600080fd5b80356133db816133c1565b919050565b600060a082840312156133f257600080fd5b6133fa613300565b9050813561340781613225565b8152602082013561341781613134565b6020820152604082013561342a81613134565b6040820152606082013561343d81613134565b60608201526080820135613450816133c1565b608082015292915050565b600081830361016081121561346f57600080fd5b613477613328565b60c082121561348557600080fd5b61348d61334a565b9150833561349a8161339c565b825260208401356134aa8161339c565b602083015260408401356134bd816131b4565b604083015260608401356134d081613225565b606083015260808401356134e3816133ae565b608083015260a08401356134f68161339c565b60a083015281815261350b8560c086016133e0565b6020820152949350505050565b63ffffffff80825116835280602083015116602084015261ffff604083015116604084015265ffffffffffff606083015116606084015264ffffffffff60808301511660808401528060a08301511660a0840152505050565b600061016082019050613585828451613518565b602083015161359760c084018261325e565b5092915050565b600080600080608085870312156135b457600080fd5b8435935060208501356135c681613225565b925060408501356135d681613134565b915060608501356135e681613134565b939692955090935050565b60c08101610a058284613518565b60008060006060848603121561361457600080fd5b83359250602084013561362681613134565b9150604084013561363681613134565b809150509250925092565b6000806000806080858703121561365757600080fd5b843593506020850135613669816132b8565b92506040850135613679816132b8565b915060608501356135e6816132b8565b6000806000806080858703121561369f57600080fd5b843593506020808601356001600160401b03808211156136be57600080fd5b818801915088601f8301126136d257600080fd5b8135818111156136e4576136e46132ea565b6136f6601f8201601f1916850161336c565b9150808252898482850101111561370c57600080fd5b808484018584013760008482840101525080955050505061372f604086016133d0565b9396929550929360600135925050565b600080600080600060a0868803121561375757600080fd5b85359450602086013561376981613134565b9350604086013561377981613134565b92506060860135613789816133ae565b915060808601356137998161339c565b809150509295509295909350565b600080604083850312156137ba57600080fd5b82359150602083013561316e816133c1565b6020808252601f908201527f424f532e6d662e53453a207365714f665368617265204e4f5420657869737400604082015260600190565b6020808252601b908201527f424f532e6d662e4e463a20736861726520697320667265657a65640000000000604082015260600190565b60006020828403121561384c57600080fd5b8151611439816132b8565b60006020828403121561386957600080fd5b8151801515811461143957600080fd5b60006020828403121561388b57600080fd5b8151611439816133ae565b600060208083850312156138a957600080fd5b82516001600160401b03808211156138c057600080fd5b818501915085601f8301126138d457600080fd5b8151818111156138e6576138e66132ea565b8060051b91506138f784830161336c565b818152918301840191848101908884111561391157600080fd5b938501935b8385101561392f57845182529385019390850190613916565b98975050505050505050565b60208082526026908201527f41432e6f6e6c794469726563744b65657065723a206e6f74206469726563742060408201526535b2b2b832b960d11b606082015260800190565b60208082526036908201527f41432e6f776e65724f72446972656374426f6f6b65657065723a206e6569746860408201527532b91037bbb732b9103737b9103137b7b5b2b2b832b960511b606082015260800190565b60208082526011908201527020a19737b59d103737ba1025b2b2b832b960791b604082015260600190565b600061018082019050838252613a1c602083018451613518565b6020830151613a2e60e084018261325e565b509392505050565b600060a08284031215613a4857600080fd5b613a50613300565b90508151613a5d81613225565b81526020820151613a6d81613134565b60208201526040820151613a8081613134565b60408201526060820151613a9381613134565b60608201526080820151613450816133c1565b6000818303610160811215613aba57600080fd5b613ac2613328565b60c0821215613ad057600080fd5b613ad861334a565b91508351613ae58161339c565b82526020840151613af58161339c565b60208301526040840151613b08816131b4565b60408301526060840151613b1b81613225565b60608301526080840151613b2e816133ae565b608083015260a0840151613b418161339c565b60a083015281815261350b8560c08601613a36565b85815260006020868184015260a0604084015285518060a085015260005b81811015613b905787810183015185820160c001528201613b74565b81811115613ba257600060c083870101525b50601f01601f1916830160c0019150613bc29050606083018560ff169052565b8260808301529695505050505050565b600060208284031215613be457600080fd5b505191905056fea264697066735822122071624b44b05be6770b871b635c1e3a1f3e01289888348c7e44c36e94b1ba7c2864736f6c63430008080033",
    "sourcePath": "/Users/kaptain/github.com/hardhat/comboox/contracts/books/bos/BookOfShares.sol",
    "compiler": {
        "name": "solc",
        "version": "0.8.8+commit.dddeac2f"
    },
    "functionHashes": {
        "abandonRole(bytes32)": "3da9a600",
        "counterOfClasses()": "544f1ba2",
        "counterOfShares()": "4a0ca0d6",
        "decreaseCapital(uint256,uint64,uint64)": "dc8492ce",
        "decreaseCleanPaid(uint256,uint64)": "041bbe62",
        "finalized()": "b3f05b97",
        "getBodyOfShare(uint256)": "58ebd89b",
        "getBookeeper()": "ed211023",
        "getGeneralCounsel()": "103f6edd",
        "getHeadOfShare(uint256)": "92c80eb7",
        "getLocker(uint256)": "0b1bd243",
        "getOwner()": "893d20e8",
        "getShare(uint256)": "cfb5a5f8",
        "getSharesOfClass(uint16)": "1c770c1d",
        "grantRole(bytes32,uint256)": "1b6ea9f9",
        "hasRole(bytes32,uint256)": "7e063c5a",
        "increaseCleanPaid(uint256,uint64)": "b50a061c",
        "init(uint256,address,address,address)": "dc890da9",
        "initROM()": "fa9e7934",
        "isShare(uint256)": "0c1d138b",
        "issueShare(uint256,uint48,uint64,uint64)": "911ec7ce",
        "lockContents()": "f045a769",
        "regShare(((uint32,uint32,uint16,uint48,uint40,uint32),(uint48,uint64,uint64,uint64,uint8)))": "773850eb",
        "renounceRole(bytes32)": "8bb9c5bf",
        "requestPaidInCapital(uint256,string,uint8,uint256)": "ef607efb",
        "revokeRole(bytes32,uint256)": "19d61ad9",
        "setDirectKeeper(address)": "6be8496f",
        "setGeneralCounsel(uint256)": "4a14beb1",
        "setOwner(uint256)": "8041494e",
        "setPayInAmt(uint256,uint64)": "9cc12eb2",
        "setRoleAdmin(bytes32,uint256)": "5171ebd4",
        "transferShare(uint256,uint64,uint64,uint40,uint32)": "f0d6c109",
        "updatePaidInDeadline(uint256,uint48)": "4fc3e83f",
        "updateStateOfShare(uint256,uint8)": "f814b800",
        "withdrawPayInAmt(uint256)": "3311ece6"
    },
    "gasEstimates": {
        "creation": {
            "codeDepositCost": "3078600",
            "executionCost": "3396",
            "totalCost": "3081996"
        },
        "external": {
            "abandonRole(bytes32)": "infinite",
            "counterOfClasses()": "2397",
            "counterOfShares()": "2378",
            "decreaseCapital(uint256,uint64,uint64)": "infinite",
            "decreaseCleanPaid(uint256,uint64)": "infinite",
            "finalized()": "2438",
            "getBodyOfShare(uint256)": "5393",
            "getBookeeper()": "infinite",
            "getGeneralCounsel()": "infinite",
            "getHeadOfShare(uint256)": "5416",
            "getLocker(uint256)": "2517",
            "getOwner()": "infinite",
            "getShare(uint256)": "8240",
            "getSharesOfClass(uint16)": "infinite",
            "grantRole(bytes32,uint256)": "infinite",
            "hasRole(bytes32,uint256)": "infinite",
            "increaseCleanPaid(uint256,uint64)": "infinite",
            "init(uint256,address,address,address)": "infinite",
            "initROM()": "infinite",
            "isShare(uint256)": "2576",
            "issueShare(uint256,uint48,uint64,uint64)": "infinite",
            "lockContents()": "infinite",
            "regShare(((uint32,uint32,uint16,uint48,uint40,uint32),(uint48,uint64,uint64,uint64,uint8)))": "infinite",
            "renounceRole(bytes32)": "infinite",
            "requestPaidInCapital(uint256,string,uint8,uint256)": "infinite",
            "revokeRole(bytes32,uint256)": "infinite",
            "setDirectKeeper(address)": "infinite",
            "setGeneralCounsel(uint256)": "infinite",
            "setOwner(uint256)": "infinite",
            "setPayInAmt(uint256,uint64)": "infinite",
            "setRoleAdmin(bytes32,uint256)": "infinite",
            "transferShare(uint256,uint64,uint64,uint40,uint32)": "infinite",
            "updatePaidInDeadline(uint256,uint48)": "infinite",
            "updateStateOfShare(uint256,uint8)": "infinite",
            "withdrawPayInAmt(uint256)": "infinite"
        },
        "internal": {
            "_decreaseShareAmt(struct SharesRepo.Share storage pointer,uint64,uint64)": "infinite",
            "_deregisterShare(uint256)": "infinite",
            "_payInCapital(struct SharesRepo.Share storage pointer,uint64)": "infinite",
            "_subAmtFromShare(struct SharesRepo.Share storage pointer,uint64,uint64)": "infinite"
        }
    }
}