{
    "contractName": "BookOfShares",
    "abi": [
        {
            "anonymous": false,
            "inputs": [
                {
                    "indexed": true,
                    "internalType": "uint256",
                    "name": "seqOfShare",
                    "type": "uint256"
                },
                {
                    "indexed": true,
                    "internalType": "uint256",
                    "name": "paid",
                    "type": "uint256"
                }
            ],
            "name": "DecreaseCleanPaid",
            "type": "event"
        },
        {
            "anonymous": false,
            "inputs": [
                {
                    "indexed": true,
                    "internalType": "uint256",
                    "name": "seqOfShare",
                    "type": "uint256"
                }
            ],
            "name": "DeregisterShare",
            "type": "event"
        },
        {
            "anonymous": false,
            "inputs": [
                {
                    "indexed": true,
                    "internalType": "uint256",
                    "name": "seqOfShare",
                    "type": "uint256"
                },
                {
                    "indexed": true,
                    "internalType": "uint256",
                    "name": "paid",
                    "type": "uint256"
                }
            ],
            "name": "IncreaseCleanPaid",
            "type": "event"
        },
        {
            "anonymous": false,
            "inputs": [
                {
                    "indexed": true,
                    "internalType": "uint256",
                    "name": "owner",
                    "type": "uint256"
                },
                {
                    "indexed": true,
                    "internalType": "address",
                    "name": "directKeeper",
                    "type": "address"
                },
                {
                    "indexed": false,
                    "internalType": "address",
                    "name": "regCenter",
                    "type": "address"
                },
                {
                    "indexed": true,
                    "internalType": "address",
                    "name": "generalKeeper",
                    "type": "address"
                }
            ],
            "name": "Init",
            "type": "event"
        },
        {
            "anonymous": false,
            "inputs": [
                {
                    "indexed": true,
                    "internalType": "bytes32",
                    "name": "shareNumber",
                    "type": "bytes32"
                },
                {
                    "indexed": true,
                    "internalType": "uint256",
                    "name": "paid",
                    "type": "uint256"
                },
                {
                    "indexed": true,
                    "internalType": "uint256",
                    "name": "par",
                    "type": "uint256"
                }
            ],
            "name": "IssueShare",
            "type": "event"
        },
        {
            "anonymous": false,
            "inputs": [],
            "name": "LockContents",
            "type": "event"
        },
        {
            "anonymous": false,
            "inputs": [
                {
                    "indexed": true,
                    "internalType": "uint256",
                    "name": "seqOfShare",
                    "type": "uint256"
                },
                {
                    "indexed": true,
                    "internalType": "uint256",
                    "name": "amount",
                    "type": "uint256"
                }
            ],
            "name": "PayInCapital",
            "type": "event"
        },
        {
            "anonymous": false,
            "inputs": [
                {
                    "indexed": true,
                    "internalType": "address",
                    "name": "target",
                    "type": "address"
                }
            ],
            "name": "RemoveDirectKeeper",
            "type": "event"
        },
        {
            "anonymous": false,
            "inputs": [
                {
                    "indexed": true,
                    "internalType": "address",
                    "name": "keeper",
                    "type": "address"
                }
            ],
            "name": "SetDirectKeeper",
            "type": "event"
        },
        {
            "anonymous": false,
            "inputs": [
                {
                    "indexed": true,
                    "internalType": "uint256",
                    "name": "acct",
                    "type": "uint256"
                }
            ],
            "name": "SetGeneralCounsel",
            "type": "event"
        },
        {
            "anonymous": false,
            "inputs": [
                {
                    "indexed": true,
                    "internalType": "uint256",
                    "name": "acct",
                    "type": "uint256"
                }
            ],
            "name": "SetOwner",
            "type": "event"
        },
        {
            "anonymous": false,
            "inputs": [
                {
                    "indexed": true,
                    "internalType": "bytes32",
                    "name": "snOfLocker",
                    "type": "bytes32"
                },
                {
                    "indexed": true,
                    "internalType": "uint256",
                    "name": "amount",
                    "type": "uint256"
                }
            ],
            "name": "SetPayInAmt",
            "type": "event"
        },
        {
            "anonymous": false,
            "inputs": [
                {
                    "indexed": true,
                    "internalType": "uint256",
                    "name": "seqOfShare",
                    "type": "uint256"
                },
                {
                    "indexed": true,
                    "internalType": "uint256",
                    "name": "paid",
                    "type": "uint256"
                },
                {
                    "indexed": true,
                    "internalType": "uint256",
                    "name": "par",
                    "type": "uint256"
                }
            ],
            "name": "SubAmountFromShare",
            "type": "event"
        },
        {
            "anonymous": false,
            "inputs": [
                {
                    "indexed": true,
                    "internalType": "uint256",
                    "name": "seqOfShare",
                    "type": "uint256"
                },
                {
                    "indexed": true,
                    "internalType": "uint256",
                    "name": "state",
                    "type": "uint256"
                }
            ],
            "name": "UpdateStateOfShare",
            "type": "event"
        },
        {
            "anonymous": false,
            "inputs": [
                {
                    "indexed": true,
                    "internalType": "bytes32",
                    "name": "snOfLocker",
                    "type": "bytes32"
                }
            ],
            "name": "WithdrawPayInAmt",
            "type": "event"
        },
        {
            "inputs": [
                {
                    "internalType": "bytes32",
                    "name": "role",
                    "type": "bytes32"
                }
            ],
            "name": "abandonRole",
            "outputs": [],
            "stateMutability": "nonpayable",
            "type": "function"
        },
        {
            "inputs": [],
            "name": "counterOfClasses",
            "outputs": [
                {
                    "internalType": "uint16",
                    "name": "",
                    "type": "uint16"
                }
            ],
            "stateMutability": "view",
            "type": "function"
        },
        {
            "inputs": [],
            "name": "counterOfShares",
            "outputs": [
                {
                    "internalType": "uint32",
                    "name": "",
                    "type": "uint32"
                }
            ],
            "stateMutability": "view",
            "type": "function"
        },
        {
            "inputs": [
                {
                    "internalType": "uint256",
                    "name": "seqOfShare",
                    "type": "uint256"
                },
                {
                    "internalType": "uint256",
                    "name": "paid",
                    "type": "uint256"
                }
            ],
            "name": "decreaseCleanPaid",
            "outputs": [],
            "stateMutability": "nonpayable",
            "type": "function"
        },
        {
            "inputs": [],
            "name": "finalized",
            "outputs": [
                {
                    "internalType": "bool",
                    "name": "",
                    "type": "bool"
                }
            ],
            "stateMutability": "view",
            "type": "function"
        },
        {
            "inputs": [
                {
                    "internalType": "uint256",
                    "name": "seqOfShare",
                    "type": "uint256"
                }
            ],
            "name": "getBodyOfShare",
            "outputs": [
                {
                    "components": [
                        {
                            "internalType": "uint48",
                            "name": "payInDeadline",
                            "type": "uint48"
                        },
                        {
                            "internalType": "uint64",
                            "name": "paid",
                            "type": "uint64"
                        },
                        {
                            "internalType": "uint64",
                            "name": "par",
                            "type": "uint64"
                        },
                        {
                            "internalType": "uint64",
                            "name": "cleanPaid",
                            "type": "uint64"
                        },
                        {
                            "internalType": "uint8",
                            "name": "state",
                            "type": "uint8"
                        },
                        {
                            "internalType": "uint8",
                            "name": "para",
                            "type": "uint8"
                        }
                    ],
                    "internalType": "struct SharesRepo.Body",
                    "name": "body",
                    "type": "tuple"
                }
            ],
            "stateMutability": "view",
            "type": "function"
        },
        {
            "inputs": [],
            "name": "getBookeeper",
            "outputs": [
                {
                    "internalType": "address",
                    "name": "",
                    "type": "address"
                }
            ],
            "stateMutability": "view",
            "type": "function"
        },
        {
            "inputs": [],
            "name": "getGeneralCounsel",
            "outputs": [
                {
                    "internalType": "uint40",
                    "name": "",
                    "type": "uint40"
                }
            ],
            "stateMutability": "view",
            "type": "function"
        },
        {
            "inputs": [
                {
                    "internalType": "uint256",
                    "name": "seqOfShare",
                    "type": "uint256"
                }
            ],
            "name": "getHeadOfShare",
            "outputs": [
                {
                    "components": [
                        {
                            "internalType": "uint32",
                            "name": "seqOfShare",
                            "type": "uint32"
                        },
                        {
                            "internalType": "uint32",
                            "name": "preSeq",
                            "type": "uint32"
                        },
                        {
                            "internalType": "uint16",
                            "name": "class",
                            "type": "uint16"
                        },
                        {
                            "internalType": "uint48",
                            "name": "issueDate",
                            "type": "uint48"
                        },
                        {
                            "internalType": "uint40",
                            "name": "shareholder",
                            "type": "uint40"
                        },
                        {
                            "internalType": "uint32",
                            "name": "priceOfPaid",
                            "type": "uint32"
                        },
                        {
                            "internalType": "uint32",
                            "name": "priceOfPar",
                            "type": "uint32"
                        },
                        {
                            "internalType": "uint16",
                            "name": "para",
                            "type": "uint16"
                        },
                        {
                            "internalType": "uint8",
                            "name": "argu",
                            "type": "uint8"
                        }
                    ],
                    "internalType": "struct SharesRepo.Head",
                    "name": "head",
                    "type": "tuple"
                }
            ],
            "stateMutability": "view",
            "type": "function"
        },
        {
            "inputs": [
                {
                    "internalType": "bytes32",
                    "name": "snOfLocker",
                    "type": "bytes32"
                }
            ],
            "name": "getLocker",
            "outputs": [
                {
                    "internalType": "uint64",
                    "name": "amount",
                    "type": "uint64"
                }
            ],
            "stateMutability": "view",
            "type": "function"
        },
        {
            "inputs": [],
            "name": "getOwner",
            "outputs": [
                {
                    "internalType": "uint40",
                    "name": "",
                    "type": "uint40"
                }
            ],
            "stateMutability": "view",
            "type": "function"
        },
        {
            "inputs": [
                {
                    "internalType": "uint256",
                    "name": "seqOfShare",
                    "type": "uint256"
                }
            ],
            "name": "getShare",
            "outputs": [
                {
                    "components": [
                        {
                            "components": [
                                {
                                    "internalType": "uint32",
                                    "name": "seqOfShare",
                                    "type": "uint32"
                                },
                                {
                                    "internalType": "uint32",
                                    "name": "preSeq",
                                    "type": "uint32"
                                },
                                {
                                    "internalType": "uint16",
                                    "name": "class",
                                    "type": "uint16"
                                },
                                {
                                    "internalType": "uint48",
                                    "name": "issueDate",
                                    "type": "uint48"
                                },
                                {
                                    "internalType": "uint40",
                                    "name": "shareholder",
                                    "type": "uint40"
                                },
                                {
                                    "internalType": "uint32",
                                    "name": "priceOfPaid",
                                    "type": "uint32"
                                },
                                {
                                    "internalType": "uint32",
                                    "name": "priceOfPar",
                                    "type": "uint32"
                                },
                                {
                                    "internalType": "uint16",
                                    "name": "para",
                                    "type": "uint16"
                                },
                                {
                                    "internalType": "uint8",
                                    "name": "argu",
                                    "type": "uint8"
                                }
                            ],
                            "internalType": "struct SharesRepo.Head",
                            "name": "head",
                            "type": "tuple"
                        },
                        {
                            "components": [
                                {
                                    "internalType": "uint48",
                                    "name": "payInDeadline",
                                    "type": "uint48"
                                },
                                {
                                    "internalType": "uint64",
                                    "name": "paid",
                                    "type": "uint64"
                                },
                                {
                                    "internalType": "uint64",
                                    "name": "par",
                                    "type": "uint64"
                                },
                                {
                                    "internalType": "uint64",
                                    "name": "cleanPaid",
                                    "type": "uint64"
                                },
                                {
                                    "internalType": "uint8",
                                    "name": "state",
                                    "type": "uint8"
                                },
                                {
                                    "internalType": "uint8",
                                    "name": "para",
                                    "type": "uint8"
                                }
                            ],
                            "internalType": "struct SharesRepo.Body",
                            "name": "body",
                            "type": "tuple"
                        }
                    ],
                    "internalType": "struct SharesRepo.Share",
                    "name": "share",
                    "type": "tuple"
                }
            ],
            "stateMutability": "view",
            "type": "function"
        },
        {
            "inputs": [
                {
                    "internalType": "uint256",
                    "name": "class",
                    "type": "uint256"
                }
            ],
            "name": "getSharesOfClass",
            "outputs": [
                {
                    "internalType": "uint256[]",
                    "name": "seqList",
                    "type": "uint256[]"
                }
            ],
            "stateMutability": "view",
            "type": "function"
        },
        {
            "inputs": [
                {
                    "internalType": "bytes32",
                    "name": "role",
                    "type": "bytes32"
                },
                {
                    "internalType": "uint256",
                    "name": "acct",
                    "type": "uint256"
                }
            ],
            "name": "grantRole",
            "outputs": [],
            "stateMutability": "nonpayable",
            "type": "function"
        },
        {
            "inputs": [
                {
                    "internalType": "bytes32",
                    "name": "role",
                    "type": "bytes32"
                },
                {
                    "internalType": "uint256",
                    "name": "acct",
                    "type": "uint256"
                }
            ],
            "name": "hasRole",
            "outputs": [
                {
                    "internalType": "bool",
                    "name": "",
                    "type": "bool"
                }
            ],
            "stateMutability": "view",
            "type": "function"
        },
        {
            "inputs": [
                {
                    "internalType": "uint256",
                    "name": "seqOfShare",
                    "type": "uint256"
                },
                {
                    "internalType": "uint256",
                    "name": "paid",
                    "type": "uint256"
                }
            ],
            "name": "increaseCleanPaid",
            "outputs": [],
            "stateMutability": "nonpayable",
            "type": "function"
        },
        {
            "inputs": [
                {
                    "internalType": "uint256",
                    "name": "owner",
                    "type": "uint256"
                },
                {
                    "internalType": "address",
                    "name": "directKeeper",
                    "type": "address"
                },
                {
                    "internalType": "address",
                    "name": "regCenter",
                    "type": "address"
                },
                {
                    "internalType": "address",
                    "name": "generalKeeper",
                    "type": "address"
                }
            ],
            "name": "init",
            "outputs": [],
            "stateMutability": "nonpayable",
            "type": "function"
        },
        {
            "inputs": [
                {
                    "internalType": "uint256",
                    "name": "seqOfShare",
                    "type": "uint256"
                }
            ],
            "name": "isShare",
            "outputs": [
                {
                    "internalType": "bool",
                    "name": "",
                    "type": "bool"
                }
            ],
            "stateMutability": "view",
            "type": "function"
        },
        {
            "inputs": [
                {
                    "internalType": "bytes32",
                    "name": "shareNumber",
                    "type": "bytes32"
                },
                {
                    "internalType": "uint256",
                    "name": "payInDeadline",
                    "type": "uint256"
                },
                {
                    "internalType": "uint256",
                    "name": "paid",
                    "type": "uint256"
                },
                {
                    "internalType": "uint256",
                    "name": "par",
                    "type": "uint256"
                }
            ],
            "name": "issueShare",
            "outputs": [],
            "stateMutability": "nonpayable",
            "type": "function"
        },
        {
            "inputs": [],
            "name": "lockContents",
            "outputs": [],
            "stateMutability": "nonpayable",
            "type": "function"
        },
        {
            "inputs": [
                {
                    "components": [
                        {
                            "components": [
                                {
                                    "internalType": "uint32",
                                    "name": "seqOfShare",
                                    "type": "uint32"
                                },
                                {
                                    "internalType": "uint32",
                                    "name": "preSeq",
                                    "type": "uint32"
                                },
                                {
                                    "internalType": "uint16",
                                    "name": "class",
                                    "type": "uint16"
                                },
                                {
                                    "internalType": "uint48",
                                    "name": "issueDate",
                                    "type": "uint48"
                                },
                                {
                                    "internalType": "uint40",
                                    "name": "shareholder",
                                    "type": "uint40"
                                },
                                {
                                    "internalType": "uint32",
                                    "name": "priceOfPaid",
                                    "type": "uint32"
                                },
                                {
                                    "internalType": "uint32",
                                    "name": "priceOfPar",
                                    "type": "uint32"
                                },
                                {
                                    "internalType": "uint16",
                                    "name": "para",
                                    "type": "uint16"
                                },
                                {
                                    "internalType": "uint8",
                                    "name": "argu",
                                    "type": "uint8"
                                }
                            ],
                            "internalType": "struct SharesRepo.Head",
                            "name": "head",
                            "type": "tuple"
                        },
                        {
                            "components": [
                                {
                                    "internalType": "uint48",
                                    "name": "payInDeadline",
                                    "type": "uint48"
                                },
                                {
                                    "internalType": "uint64",
                                    "name": "paid",
                                    "type": "uint64"
                                },
                                {
                                    "internalType": "uint64",
                                    "name": "par",
                                    "type": "uint64"
                                },
                                {
                                    "internalType": "uint64",
                                    "name": "cleanPaid",
                                    "type": "uint64"
                                },
                                {
                                    "internalType": "uint8",
                                    "name": "state",
                                    "type": "uint8"
                                },
                                {
                                    "internalType": "uint8",
                                    "name": "para",
                                    "type": "uint8"
                                }
                            ],
                            "internalType": "struct SharesRepo.Body",
                            "name": "body",
                            "type": "tuple"
                        }
                    ],
                    "internalType": "struct SharesRepo.Share",
                    "name": "share",
                    "type": "tuple"
                }
            ],
            "name": "regShare",
            "outputs": [
                {
                    "components": [
                        {
                            "components": [
                                {
                                    "internalType": "uint32",
                                    "name": "seqOfShare",
                                    "type": "uint32"
                                },
                                {
                                    "internalType": "uint32",
                                    "name": "preSeq",
                                    "type": "uint32"
                                },
                                {
                                    "internalType": "uint16",
                                    "name": "class",
                                    "type": "uint16"
                                },
                                {
                                    "internalType": "uint48",
                                    "name": "issueDate",
                                    "type": "uint48"
                                },
                                {
                                    "internalType": "uint40",
                                    "name": "shareholder",
                                    "type": "uint40"
                                },
                                {
                                    "internalType": "uint32",
                                    "name": "priceOfPaid",
                                    "type": "uint32"
                                },
                                {
                                    "internalType": "uint32",
                                    "name": "priceOfPar",
                                    "type": "uint32"
                                },
                                {
                                    "internalType": "uint16",
                                    "name": "para",
                                    "type": "uint16"
                                },
                                {
                                    "internalType": "uint8",
                                    "name": "argu",
                                    "type": "uint8"
                                }
                            ],
                            "internalType": "struct SharesRepo.Head",
                            "name": "head",
                            "type": "tuple"
                        },
                        {
                            "components": [
                                {
                                    "internalType": "uint48",
                                    "name": "payInDeadline",
                                    "type": "uint48"
                                },
                                {
                                    "internalType": "uint64",
                                    "name": "paid",
                                    "type": "uint64"
                                },
                                {
                                    "internalType": "uint64",
                                    "name": "par",
                                    "type": "uint64"
                                },
                                {
                                    "internalType": "uint64",
                                    "name": "cleanPaid",
                                    "type": "uint64"
                                },
                                {
                                    "internalType": "uint8",
                                    "name": "state",
                                    "type": "uint8"
                                },
                                {
                                    "internalType": "uint8",
                                    "name": "para",
                                    "type": "uint8"
                                }
                            ],
                            "internalType": "struct SharesRepo.Body",
                            "name": "body",
                            "type": "tuple"
                        }
                    ],
                    "internalType": "struct SharesRepo.Share",
                    "name": "newShare",
                    "type": "tuple"
                }
            ],
            "stateMutability": "nonpayable",
            "type": "function"
        },
        {
            "inputs": [
                {
                    "internalType": "address",
                    "name": "target",
                    "type": "address"
                }
            ],
            "name": "removeDirectKeeper",
            "outputs": [],
            "stateMutability": "nonpayable",
            "type": "function"
        },
        {
            "inputs": [
                {
                    "internalType": "bytes32",
                    "name": "role",
                    "type": "bytes32"
                }
            ],
            "name": "renounceRole",
            "outputs": [],
            "stateMutability": "nonpayable",
            "type": "function"
        },
        {
            "inputs": [
                {
                    "internalType": "bytes32",
                    "name": "snOfLocker",
                    "type": "bytes32"
                },
                {
                    "internalType": "string",
                    "name": "hashKey",
                    "type": "string"
                },
                {
                    "internalType": "uint256",
                    "name": "caller",
                    "type": "uint256"
                }
            ],
            "name": "requestPaidInCapital",
            "outputs": [],
            "stateMutability": "nonpayable",
            "type": "function"
        },
        {
            "inputs": [
                {
                    "internalType": "bytes32",
                    "name": "role",
                    "type": "bytes32"
                },
                {
                    "internalType": "uint256",
                    "name": "acct",
                    "type": "uint256"
                }
            ],
            "name": "revokeRole",
            "outputs": [],
            "stateMutability": "nonpayable",
            "type": "function"
        },
        {
            "inputs": [
                {
                    "internalType": "address",
                    "name": "keeper",
                    "type": "address"
                }
            ],
            "name": "setDirectKeeper",
            "outputs": [],
            "stateMutability": "nonpayable",
            "type": "function"
        },
        {
            "inputs": [
                {
                    "internalType": "uint256",
                    "name": "acct",
                    "type": "uint256"
                }
            ],
            "name": "setGeneralCounsel",
            "outputs": [],
            "stateMutability": "nonpayable",
            "type": "function"
        },
        {
            "inputs": [
                {
                    "internalType": "uint256",
                    "name": "acct",
                    "type": "uint256"
                }
            ],
            "name": "setOwner",
            "outputs": [],
            "stateMutability": "nonpayable",
            "type": "function"
        },
        {
            "inputs": [
                {
                    "internalType": "bytes32",
                    "name": "snOfLocker",
                    "type": "bytes32"
                },
                {
                    "internalType": "uint256",
                    "name": "amount",
                    "type": "uint256"
                }
            ],
            "name": "setPayInAmt",
            "outputs": [],
            "stateMutability": "nonpayable",
            "type": "function"
        },
        {
            "inputs": [
                {
                    "internalType": "bytes32",
                    "name": "role",
                    "type": "bytes32"
                },
                {
                    "internalType": "uint256",
                    "name": "acct",
                    "type": "uint256"
                }
            ],
            "name": "setRoleAdmin",
            "outputs": [],
            "stateMutability": "nonpayable",
            "type": "function"
        },
        {
            "inputs": [
                {
                    "internalType": "uint256",
                    "name": "seqOfShare",
                    "type": "uint256"
                },
                {
                    "internalType": "uint256",
                    "name": "paid",
                    "type": "uint256"
                },
                {
                    "internalType": "uint256",
                    "name": "par",
                    "type": "uint256"
                },
                {
                    "internalType": "uint256",
                    "name": "to",
                    "type": "uint256"
                },
                {
                    "internalType": "uint256",
                    "name": "priceOfPaid",
                    "type": "uint256"
                },
                {
                    "internalType": "uint256",
                    "name": "priceOfPar",
                    "type": "uint256"
                }
            ],
            "name": "transferShare",
            "outputs": [],
            "stateMutability": "nonpayable",
            "type": "function"
        },
        {
            "inputs": [
                {
                    "internalType": "uint256",
                    "name": "seqOfShare",
                    "type": "uint256"
                },
                {
                    "internalType": "uint256",
                    "name": "state",
                    "type": "uint256"
                }
            ],
            "name": "updateStateOfShare",
            "outputs": [],
            "stateMutability": "nonpayable",
            "type": "function"
        },
        {
            "inputs": [
                {
                    "internalType": "bytes32",
                    "name": "snOfLocker",
                    "type": "bytes32"
                }
            ],
            "name": "withdrawPayInAmt",
            "outputs": [],
            "stateMutability": "nonpayable",
            "type": "function"
        }
    ],
    "bytecode": "608060405234801561001057600080fd5b50614382806100206000396000f3fe608060405234801561001057600080fd5b50600436106101fb5760003560e01c80637e063c5a1161011a578063ae47fa54116100ad578063cfb5a5f81161007c578063cfb5a5f81461048a578063dc890da9146104aa578063ea64673f146104bd578063ed211023146104d0578063f045a769146104f057600080fd5b8063ae47fa541461043d578063b3f05b9714610450578063ba5052cb14610464578063ccdddd411461047757600080fd5b8063893d20e8116100e9578063893d20e8146103ef5780638bb9c5bf146103f757806392c80eb71461040a578063aa0ad3521461042a57600080fd5b80637e063c5a1461037e5780638041494e14610391578063851ad654146103a4578063874b5657146103dc57600080fd5b80634a0ca0d61161019257806358ebd89b1161016157806358ebd89b146103255780635d7ad88f1461034557806360d095df146103585780636be8496f1461036b57600080fd5b80634a0ca0d6146102c75780634a14beb1146102e45780635171ebd4146102f7578063544f1ba21461030a57600080fd5b80631d601918116101ce5780631d6019181461026e57806323e4b1651461028e57806336571a79146102a15780633da9a600146102b457600080fd5b80630c1d138b14610200578063103f6edd1461022857806319d61ad9146102465780631b6ea9f91461025b575b600080fd5b61021361020e366004613796565b6104f8565b60405190151581526020015b60405180910390f35b61023061051b565b60405164ffffffffff909116815260200161021f565b6102596102543660046137af565b6105a7565b005b6102596102693660046137af565b610639565b61028161027c366004613796565b61065f565b60405161021f91906137d1565b61025961029c3660046137af565b6106f5565b6102596102af366004613815565b61087b565b6102596102c2366004613796565b610e3e565b6102cf610ec9565b60405163ffffffff909116815260200161021f565b6102596102f2366004613796565b610f4e565b6102596103053660046137af565b6111a3565b6103126111c9565b60405161ffff909116815260200161021f565b610338610333366004613796565b61124e565b60405161021f91906138a0565b6102596103533660046138c3565b611330565b6102596103663660046137af565b611465565b6102596103793660046138c3565b6117e8565b61021361038c3660046137af565b611897565b61025961039f366004613796565b611932565b6103c46103b2366004613796565b60009081526007602052604090205490565b6040516001600160401b03909116815260200161021f565b6102596103ea3660046137af565b6119e8565b610230611b11565b610259610405366004613796565b611b4c565b61041d610418366004613796565b611b71565b60405161021f9190613993565b610259610438366004613a55565b611c53565b61025961044b366004613afc565b612032565b60028054600160f01b900460ff1614610213565b610259610472366004613796565b612444565b6102596104853660046137af565b6125b7565b61049d610498366004613796565b61293a565b60405161021f9190613b3f565b6102596104b8366004613b6d565b612a9f565b61049d6104cb366004613cf7565b612b77565b6104d8612ee8565b6040516001600160a01b03909116815260200161021f565b610259612f6e565b600090815260046020526040902054600160501b900465ffffffffffff16151590565b60405163e8c0cc1d60e01b81526002600482015260009073__$a374c895e6fa8c448878668e00d93ef99a$__9063e8c0cc1d906024015b60206040518083038186803b15801561056a57600080fd5b505af415801561057e573d6000803e3d6000fd5b505050506040513d601f19601f820116820180604052508101906105a29190613de9565b905090565b73__$a374c895e6fa8c448878668e00d93ef99a$__6382daafaa600284846105cd6131b8565b6040516001600160e01b031960e087901b16815260048101949094526024840192909252604483015264ffffffffff16606482015260840160006040518083038186803b15801561061d57600080fd5b505af4158015610631573d6000803e3d6000fd5b505050505050565b73__$a374c895e6fa8c448878668e00d93ef99a$__636320d75e600284846105cd6131b8565b604051635a2b40f960e01b81526004808201526024810182905260609073__$1216f89a8e7e65c17bbdb90cf043af022a$__90635a2b40f99060440160006040518083038186803b1580156106b357600080fd5b505af41580156106c7573d6000803e3d6000fd5b505050506040513d6000823e601f3d908101601f191682016040526106ef9190810190613e06565b92915050565b604051633b11adbf60e21b81526002600482015233602482015273__$a374c895e6fa8c448878668e00d93ef99a$__9063ec46b6fc9060440160206040518083038186803b15801561074657600080fd5b505af415801561075a573d6000803e3d6000fd5b505050506040513d601f19601f8201168201806040525081019061077e9190613eab565b6107a35760405162461bcd60e51b815260040161079a90613ecd565b60405180910390fd5b6040516305e02cf560e51b815260076004820152602481018390526044810182905263ffffffff60d884901c16606482015273__$47b24d17d5977d1228f91fbbfb2c402609$__9063bc059ea09060840160206040518083038186803b15801561080c57600080fd5b505af4158015610820573d6000803e3d6000fd5b505050506040513d601f19601f820116820180604052508101906108449190613eab565b1561087757604051819083907f447e3ce6cf72d43ec865cccbd0bf4ac1864d40d612a73af0befe4ddfb4b2578690600090a35b5050565b604051633b11adbf60e21b81526002600482015233602482015273__$a374c895e6fa8c448878668e00d93ef99a$__9063ec46b6fc9060440160206040518083038186803b1580156108cc57600080fd5b505af41580156108e0573d6000803e3d6000fd5b505050506040513d601f19601f820116820180604052508101906109049190613eab565b8061098557506001546040516335d2155560e11b81523360048201526001600160a01b0390911690636ba42aaa9060240160206040518083038186803b15801561094d57600080fd5b505afa158015610961573d6000803e3d6000fd5b505050506040513d601f19601f820116820180604052508101906109859190613eab565b6109a15760405162461bcd60e51b815260040161079a90613f13565b6040516313dca93760e31b81526004808201526024810185905260448101849052606481018390526084810182905260009073__$1216f89a8e7e65c17bbdb90cf043af022a$__90639ee549b89060a4016101e06040518083038186803b158015610a0b57600080fd5b505af4158015610a1f573d6000803e3d6000fd5b505050506040513d601f19601f82011682018060405250810190610a439190613fed565b60208101515181516060015191925065ffffffffffff90811691161115610ac75760405162461bcd60e51b815260206004820152603260248201527f424f532e697373756553686172653a20697373756544617465206c61746572206044820152717468616e20706179496e446561646c696e6560701b606482015260840161079a565b600160009054906101000a90046001600160a01b03166001600160a01b03166333fb96ee6040518163ffffffff1660e01b815260040160206040518083038186803b158015610b1557600080fd5b505afa158015610b29573d6000803e3d6000fd5b505050506040513d601f19601f82011682018060405250810190610b4d91906140c6565b815160800151604051631089f5ed60e01b815264ffffffffff90911660048201526001600160a01b039190911690631089f5ed90602401600060405180830381600087803b158015610b9e57600080fd5b505af1158015610bb2573d6000803e3d6000fd5b50505050600160009054906101000a90046001600160a01b03166001600160a01b03166333fb96ee6040518163ffffffff1660e01b815260040160206040518083038186803b158015610c0457600080fd5b505afa158015610c18573d6000803e3d6000fd5b505050506040513d601f19601f82011682018060405250810190610c3c91906140c6565b6001600160a01b03166319951c8a826040518263ffffffff1660e01b8152600401610c679190613b3f565b600060405180830381600087803b158015610c8157600080fd5b505af1158015610c95573d6000803e3d6000fd5b50505050600160009054906101000a90046001600160a01b03166001600160a01b03166333fb96ee6040518163ffffffff1660e01b815260040160206040518083038186803b158015610ce757600080fd5b505afa158015610cfb573d6000803e3d6000fd5b505050506040513d601f19601f82011682018060405250810190610d1f91906140c6565b604051631bfc7c8560e11b815260048101859052602481018490526001600160a01b0391909116906337f8f90a90604401600060405180830381600087803b158015610d6a57600080fd5b505af1158015610d7e573d6000803e3d6000fd5b505082516040516308389abd60e41b815285935086925073__$1216f89a8e7e65c17bbdb90cf043af022a$__91638389abd091610dbe9190600401613993565b60206040518083038186803b158015610dd657600080fd5b505af4158015610dea573d6000803e3d6000fd5b505050506040513d601f19601f82011682018060405250810190610e0e91906140e3565b6040517f19470c51ca433b0316fc7a68e8f489c780d0dfecb9ac9e7e6f18d450cc210d0e90600090a45050505050565b73__$a374c895e6fa8c448878668e00d93ef99a$__63c51b295f600283610e636131b8565b6040516001600160e01b031960e086901b1681526004810193909352602483019190915264ffffffffff16604482015260640160006040518083038186803b158015610eae57600080fd5b505af4158015610ec2573d6000803e3d6000fd5b5050505050565b604051630249007960e01b815260048082015260009073__$1216f89a8e7e65c17bbdb90cf043af022a$__9063024900799060240160206040518083038186803b158015610f1657600080fd5b505af4158015610f2a573d6000803e3d6000fd5b505050506040513d601f19601f820116820180604052508101906105a291906140fc565b604051633b11adbf60e21b81526002600482015233602482015273__$a374c895e6fa8c448878668e00d93ef99a$__9063ec46b6fc9060440160206040518083038186803b158015610f9f57600080fd5b505af4158015610fb3573d6000803e3d6000fd5b505050506040513d601f19601f82011682018060405250810190610fd79190613eab565b8061107c575073__$a374c895e6fa8c448878668e00d93ef99a$__63fe27108660026110016131b8565b6040516001600160e01b031960e085901b168152600481019290925264ffffffffff16602482015260440160206040518083038186803b15801561104457600080fd5b505af4158015611058573d6000803e3d6000fd5b505050506040513d601f19601f8201168201806040525081019061107c9190613eab565b6110e75760405162461bcd60e51b815260206004820152603660248201527f41432e6f776e65724f72446972656374426f6f6b65657065723a206e6569746860448201527532b91037bbb732b9103737b9103137b7b5b2b2b832b960511b606482015260840161079a565b73__$a374c895e6fa8c448878668e00d93ef99a$__6313a187d260028361110c6131b8565b6040516001600160e01b031960e086901b1681526004810193909352602483019190915264ffffffffff16604482015233606482015260840160006040518083038186803b15801561115d57600080fd5b505af4158015611171573d6000803e3d6000fd5b50506040518392507ff2735f34b69be1e6342dea95f9162f84d0db925fab655ca9f1f312ac8cbfc99d9150600090a250565b73__$a374c895e6fa8c448878668e00d93ef99a$__63ee98b313600284846105cd6131b8565b6040516385b7e52f60e01b815260048082015260009073__$1216f89a8e7e65c17bbdb90cf043af022a$__906385b7e52f9060240160206040518083038186803b15801561121657600080fd5b505af415801561122a573d6000803e3d6000fd5b505050506040513d601f19601f820116820180604052508101906105a29190614119565b6040805160c081018252600080825260208201819052918101829052606081018290526080810182905260a08101919091528161128a816104f8565b6112a65760405162461bcd60e51b815260040161079a90614136565b5050600090815260046020908152604091829020825160c08101845260019091015465ffffffffffff811682526001600160401b0366010000000000008204811693830193909352600160701b8104831693820193909352600160b01b8304909116606082015260ff600160f01b830481166080830152600160f81b90920490911660a082015290565b604051633b11adbf60e21b81526002600482015233602482015273__$a374c895e6fa8c448878668e00d93ef99a$__9063ec46b6fc9060440160206040518083038186803b15801561138157600080fd5b505af4158015611395573d6000803e3d6000fd5b505050506040513d601f19601f820116820180604052508101906113b99190613eab565b6113d55760405162461bcd60e51b815260040161079a90613ecd565b604051636be8496f60e01b81523360048201526001600160a01b03821690636be8496f90602401600060405180830381600087803b15801561141657600080fd5b505af115801561142a573d6000803e3d6000fd5b50506040516001600160a01b03841692507f64dd6e84044f0067086012335dcfab3188db6615b5cc7debf18c9a621ebd5d919150600090a250565b8161146f816104f8565b61148b5760405162461bcd60e51b815260040161079a90614136565b6000838152600460205260409020600101548390600160f01b900460ff16156114c65760405162461bcd60e51b815260040161079a9061416d565b600160009054906101000a90046001600160a01b03166001600160a01b03166320fbea4e6040518163ffffffff1660e01b815260040160206040518083038186803b15801561151457600080fd5b505afa158015611528573d6000803e3d6000fd5b505050506040513d601f19601f8201168201806040525081019061154c91906140c6565b6001600160a01b0316336001600160a01b031614806115e157506001546040516335d2155560e11b81523360048201526001600160a01b0390911690636ba42aaa9060240160206040518083038186803b1580156115a957600080fd5b505afa1580156115bd573d6000803e3d6000fd5b505050506040513d601f19601f820116820180604052508101906115e19190613eab565b61162d5760405162461bcd60e51b815260206004820152601f60248201527f424f532e4443503a206e656974686572206b6565706572206e6f7220424f5000604482015260640161079a565b60008481526004602081905260409182902091516365f7b03760e01b81529081018290526024810185905273__$1216f89a8e7e65c17bbdb90cf043af022a$__906365f7b0379060440160006040518083038186803b15801561168f57600080fd5b505af41580156116a3573d6000803e3d6000fd5b50505050600160009054906101000a90046001600160a01b03166001600160a01b03166333fb96ee6040518163ffffffff1660e01b815260040160206040518083038186803b1580156116f557600080fd5b505afa158015611709573d6000803e3d6000fd5b505050506040513d601f19601f8201168201806040525081019061172d91906140c6565b81546040516324415e4360e11b8152600160801b90910464ffffffffff166004820152600060248201819052604482018190526064820187905260848201526001600160a01b039190911690634882bc869060a401600060405180830381600087803b15801561179c57600080fd5b505af11580156117b0573d6000803e3d6000fd5b50506040518692508791507f955b9b3501784e6481781c57adfad04303072a675290ab00fd286dd6aa2fb58d90600090a35050505050565b604051630f07232560e01b8152600260048201526001600160a01b038216602482015233604482015273__$a374c895e6fa8c448878668e00d93ef99a$__90630f0723259060640160006040518083038186803b15801561184857600080fd5b505af415801561185c573d6000803e3d6000fd5b50506040516001600160a01b03841692507fe435cbeab64e4eae6497b9d8289704bd709d624a80704ef3ca9af777534bc6ec9150600090a250565b604051632a3be56b60e21b815260026004820152602481018390526044810182905260009073__$a374c895e6fa8c448878668e00d93ef99a$__9063a8ef95ac9060640160206040518083038186803b1580156118f357600080fd5b505af4158015611907573d6000803e3d6000fd5b505050506040513d601f19601f8201168201806040525081019061192b9190613eab565b9392505050565b73__$a374c895e6fa8c448878668e00d93ef99a$__639b48160c6002836119576131b8565b6040516001600160e01b031960e086901b1681526004810193909352602483019190915264ffffffffff16604482015260640160006040518083038186803b1580156119a257600080fd5b505af41580156119b6573d6000803e3d6000fd5b50506040518392507f8b6f40f36b4ae8cc5f55e895036457c43da4ab1f80f58c46f5ff0d72a650033b9150600090a250565b604051633b11adbf60e21b81526002600482015233602482015273__$a374c895e6fa8c448878668e00d93ef99a$__9063ec46b6fc9060440160206040518083038186803b158015611a3957600080fd5b505af4158015611a4d573d6000803e3d6000fd5b505050506040513d601f19601f82011682018060405250810190611a719190613eab565b611a8d5760405162461bcd60e51b815260040161079a90613ecd565b81611a97816104f8565b611ab35760405162461bcd60e51b815260040161079a90614136565b604051829084907f9a7cb8f35be5d20be4eed3815250ff53e03df99a3592248fbaf4ef2adbb3643890600090a350600091825260046020526040909120600101805460ff909216600160f01b0260ff60f01b19909216919091179055565b60405163987ad15360e01b81526002600482015260009073__$a374c895e6fa8c448878668e00d93ef99a$__9063987ad15390602401610552565b73__$a374c895e6fa8c448878668e00d93ef99a$__63cc0d511b600283610e636131b8565b611b796136ff565b81611b83816104f8565b611b9f5760405162461bcd60e51b815260040161079a90614136565b5050600090815260046020908152604091829020825161012081018452905463ffffffff8082168352640100000000820481169383019390935261ffff600160401b820481169483019490945265ffffffffffff600160501b820416606083015264ffffffffff600160801b8204166080830152600160a81b8104831660a0830152600160c81b810490921660c0820152600160e81b820490921660e083015260ff600160f81b9091041661010082015290565b604051633b11adbf60e21b81526002600482015233602482015273__$a374c895e6fa8c448878668e00d93ef99a$__9063ec46b6fc9060440160206040518083038186803b158015611ca457600080fd5b505af4158015611cb8573d6000803e3d6000fd5b505050506040513d601f19601f82011682018060405250810190611cdc9190613eab565b611cf85760405162461bcd60e51b815260040161079a90613ecd565b60405163104f460960e11b815260009073__$47b24d17d5977d1228f91fbbfb2c402609$__9063209e8c1290611d39906007908890889088906004016141a4565b60206040518083038186803b158015611d5157600080fd5b505af4158015611d65573d6000803e3d6000fd5b505050506040513d601f19601f82011682018060405250810190611d8991906140e3565b90506001600160401b0381161561202c5760d884901c63ffffffff1660009081526004602052604090208054600160801b900464ffffffffff168314611e115760405162461bcd60e51b815260206004820152601960248201527f424f532e525049433a206e6f74207368617265686f6c64657200000000000000604482015260640161079a565b611e2481836001600160401b0316613212565b600160009054906101000a90046001600160a01b03166001600160a01b03166333fb96ee6040518163ffffffff1660e01b815260040160206040518083038186803b158015611e7257600080fd5b505afa158015611e86573d6000803e3d6000fd5b505050506040513d601f19601f82011682018060405250810190611eaa91906140c6565b81546040516324415e4360e11b8152600160801b90910464ffffffffff1660048201526001600160401b03841660248201819052600060448301526064820152600160848201526001600160a01b039190911690634882bc869060a401600060405180830381600087803b158015611f2157600080fd5b505af1158015611f35573d6000803e3d6000fd5b50505050600160009054906101000a90046001600160a01b03166001600160a01b03166333fb96ee6040518163ffffffff1660e01b815260040160206040518083038186803b158015611f8757600080fd5b505afa158015611f9b573d6000803e3d6000fd5b505050506040513d601f19601f82011682018060405250810190611fbf91906140c6565b604051631bfc7c8560e11b81526001600160401b0384166004820152600060248201526001600160a01b0391909116906337f8f90a90604401600060405180830381600087803b15801561201257600080fd5b505af1158015612026573d6000803e3d6000fd5b50505050505b50505050565b604051633b11adbf60e21b81526002600482015233602482015273__$a374c895e6fa8c448878668e00d93ef99a$__9063ec46b6fc9060440160206040518083038186803b15801561208357600080fd5b505af4158015612097573d6000803e3d6000fd5b505050506040513d601f19601f820116820180604052508101906120bb9190613eab565b8061213c57506001546040516335d2155560e11b81523360048201526001600160a01b0390911690636ba42aaa9060240160206040518083038186803b15801561210457600080fd5b505afa158015612118573d6000803e3d6000fd5b505050506040513d601f19601f8201168201806040525081019061213c9190613eab565b6121585760405162461bcd60e51b815260040161079a90613f13565b85612162816104f8565b61217e5760405162461bcd60e51b815260040161079a90614136565b6000878152600460205260409020600101548790600160f01b900460ff16156121b95760405162461bcd60e51b815260040161079a9061416d565b6000888152600460205260409020856122145760405162461bcd60e51b815260206004820152601b60248201527f424f532e54533a207368617265686f6c646572206973205a45524f0000000000604482015260640161079a565b61221f8189896132b6565b600160009054906101000a90046001600160a01b03166001600160a01b03166333fb96ee6040518163ffffffff1660e01b815260040160206040518083038186803b15801561226d57600080fd5b505afa158015612281573d6000803e3d6000fd5b505050506040513d601f19601f820116820180604052508101906122a591906140c6565b6001600160a01b0316631089f5ed876040518263ffffffff1660e01b81526004016122d291815260200190565b600060405180830381600087803b1580156122ec57600080fd5b505af1158015612300573d6000803e3d6000fd5b5050505061230c61374b565b604051806101200160405280600063ffffffff1681526020018360000160000160009054906101000a900463ffffffff1663ffffffff1681526020018360000160000160089054906101000a900461ffff1661ffff1681526020014265ffffffffffff1681526020018864ffffffffff1681526020018763ffffffff1681526020018663ffffffff168152602001600061ffff168152602001600060ff1681525081600001819052506040518060c001604052808360010160000160009054906101000a900465ffffffffffff1665ffffffffffff1681526020018a6001600160401b03168152602001896001600160401b031681526020018a6001600160401b03168152602001600060ff168152602001600060ff16815250816020018190525061243781612b77565b5050505050505050505050565b604051633b11adbf60e21b81526002600482015233602482015273__$a374c895e6fa8c448878668e00d93ef99a$__9063ec46b6fc9060440160206040518083038186803b15801561249557600080fd5b505af41580156124a9573d6000803e3d6000fd5b505050506040513d601f19601f820116820180604052508101906124cd9190613eab565b6124e95760405162461bcd60e51b815260040161079a90613ecd565b604051637928ab2f60e01b8152600760048201526024810182905263ffffffff60d883901c16604482015273__$47b24d17d5977d1228f91fbbfb2c402609$__90637928ab2f9060640160206040518083038186803b15801561254b57600080fd5b505af415801561255f573d6000803e3d6000fd5b505050506040513d601f19601f820116820180604052508101906125839190613eab565b156125b45760405181907f81d2c37d10691798e38a542ceea541c4cadacbd28ce1b4b0264d9f4fb074003090600090a25b50565b816125c1816104f8565b6125dd5760405162461bcd60e51b815260040161079a90614136565b6000838152600460205260409020600101548390600160f01b900460ff16156126185760405162461bcd60e51b815260040161079a9061416d565b600160009054906101000a90046001600160a01b03166001600160a01b03166320fbea4e6040518163ffffffff1660e01b815260040160206040518083038186803b15801561266657600080fd5b505afa15801561267a573d6000803e3d6000fd5b505050506040513d601f19601f8201168201806040525081019061269e91906140c6565b6001600160a01b0316336001600160a01b0316148061273357506001546040516335d2155560e11b81523360048201526001600160a01b0390911690636ba42aaa9060240160206040518083038186803b1580156126fb57600080fd5b505afa15801561270f573d6000803e3d6000fd5b505050506040513d601f19601f820116820180604052508101906127339190613eab565b61277f5760405162461bcd60e51b815260206004820152601f60248201527f424f532e4443413a206e656974686572206b6565706572206e6f7220424f5000604482015260640161079a565b600084815260046020819052604091829020915163342482e160e11b81529081018290526024810185905273__$1216f89a8e7e65c17bbdb90cf043af022a$__9063684905c29060440160006040518083038186803b1580156127e157600080fd5b505af41580156127f5573d6000803e3d6000fd5b50505050600160009054906101000a90046001600160a01b03166001600160a01b03166333fb96ee6040518163ffffffff1660e01b815260040160206040518083038186803b15801561284757600080fd5b505afa15801561285b573d6000803e3d6000fd5b505050506040513d601f19601f8201168201806040525081019061287f91906140c6565b81546040516324415e4360e11b8152600160801b90910464ffffffffff166004820152600060248201819052604482015260648101869052600160848201526001600160a01b039190911690634882bc869060a401600060405180830381600087803b1580156128ee57600080fd5b505af1158015612902573d6000803e3d6000fd5b50506040518692508791507f5c4f63eb2634eff57def5d49e434310036d5945885a7a3c862db4569c917c39690600090a35050505050565b61294261374b565b8161294c816104f8565b6129685760405162461bcd60e51b815260040161079a90614136565b5050600090815260046020908152604091829020825161016081018452815463ffffffff8082168387019081526401000000008304821660608086019190915261ffff600160401b8504811660808088019190915265ffffffffffff600160501b8704811660a0808a019190915264ffffffffff600160801b89041660c0808b0191909152600160a81b8904881660e08b0152600160c81b89049097166101008a0152600160e81b880490931661012089015260ff600160f81b9788900481166101408a01529488528a519586018b5260019098015497881685526001600160401b03660100000000000089048116868b0152600160701b890481169a86019a909a52600160b01b880490991691840191909152600160f01b86048216978301979097529190930416938201939093529082015290565b604051636cdd0edf60e11b815260026004820152602481018590526001600160a01b038416604482015273__$a374c895e6fa8c448878668e00d93ef99a$__9063d9ba1dbe9060640160006040518083038186803b158015612b0057600080fd5b505af4158015612b14573d6000803e3d6000fd5b50505050612b2182613563565b612b2a816135d6565b6040516001600160a01b038381168252808316919085169086907f3abb2418c66fe32ba9c883030a75ce583971d9af9192b9b74e44e67c5e6c8c1f9060200160405180910390a450505050565b612b7f61374b565b604051633b11adbf60e21b81526002600482015233602482015273__$a374c895e6fa8c448878668e00d93ef99a$__9063ec46b6fc9060440160206040518083038186803b158015612bd057600080fd5b505af4158015612be4573d6000803e3d6000fd5b505050506040513d601f19601f82011682018060405250810190612c089190613eab565b80612c8957506001546040516335d2155560e11b81523360048201526001600160a01b0390911690636ba42aaa9060240160206040518083038186803b158015612c5157600080fd5b505afa158015612c65573d6000803e3d6000fd5b505050506040513d601f19601f82011682018060405250810190612c899190613eab565b612ca55760405162461bcd60e51b815260040161079a90613f13565b604051634582ac0d60e01b815273__$1216f89a8e7e65c17bbdb90cf043af022a$__90634582ac0d90612cde9060049086908201614210565b6101e06040518083038186803b158015612cf757600080fd5b505af4158015612d0b573d6000803e3d6000fd5b505050506040513d601f19601f82011682018060405250810190612d2f9190613fed565b9050600160009054906101000a90046001600160a01b03166001600160a01b03166333fb96ee6040518163ffffffff1660e01b815260040160206040518083038186803b158015612d7f57600080fd5b505afa158015612d93573d6000803e3d6000fd5b505050506040513d601f19601f82011682018060405250810190612db791906140c6565b6001600160a01b03166319951c8a826040518263ffffffff1660e01b8152600401612de29190613b3f565b600060405180830381600087803b158015612dfc57600080fd5b505af1158015612e10573d6000803e3d6000fd5b5050506020808301516040808201519190920151845192516308389abd60e41b81526001600160401b03928316945091169173__$1216f89a8e7e65c17bbdb90cf043af022a$__91638389abd091612e6a91600401613993565b60206040518083038186803b158015612e8257600080fd5b505af4158015612e96573d6000803e3d6000fd5b505050506040513d601f19601f82011682018060405250810190612eba91906140e3565b6040517f19470c51ca433b0316fc7a68e8f489c780d0dfecb9ac9e7e6f18d450cc210d0e90600090a4919050565b604051633c3e56c160e11b81526002600482015260009073__$a374c895e6fa8c448878668e00d93ef99a$__9063787cad829060240160206040518083038186803b158015612f3657600080fd5b505af4158015612f4a573d6000803e3d6000fd5b505050506040513d601f19601f820116820180604052508101906105a291906140c6565b600254600160f01b900460ff16600114612fca5760405162461bcd60e51b815260206004820152601760248201527f41432e4c433a20446f632069732066696e616c697a6564000000000000000000604482015260640161079a565b73__$a374c895e6fa8c448878668e00d93ef99a$__63c51b295f6002684174746f726e65797360b81b612ffb6131b8565b6040516001600160e01b031960e086901b1681526004810193909352602483019190915264ffffffffff16604482015260640160006040518083038186803b15801561304657600080fd5b505af415801561305a573d6000803e3d6000fd5b50505050600273__$a374c895e6fa8c448878668e00d93ef99a$__6313a187d2909160006130866131b8565b6040516001600160e01b031960e086901b1681526004810193909352602483019190915264ffffffffff16604482015233606482015260840160006040518083038186803b1580156130d757600080fd5b505af41580156130eb573d6000803e3d6000fd5b50505050600273__$a374c895e6fa8c448878668e00d93ef99a$__639b48160c909160006131176131b8565b6040516001600160e01b031960e086901b1681526004810193909352602483019190915264ffffffffff16604482015260640160006040518083038186803b15801561316257600080fd5b505af4158015613176573d6000803e3d6000fd5b50506002805460ff60f01b1916600160f11b17905550506040517f35012b512309c322acf68632cd6cb702ff0e1d776fbe9394e38ffc13b434fe7590600090a1565b60008054604051636ae3b70d60e11b81523360048201526001600160a01b039091169063d5c76e1a90602401602060405180830381600087803b1580156131fe57600080fd5b505af115801561057e573d6000803e3d6000fd5b60405163625b803f60e01b8152600481018390526024810182905273__$1216f89a8e7e65c17bbdb90cf043af022a$__9063625b803f9060440160006040518083038186803b15801561326457600080fd5b505af4158015613278573d6000803e3d6000fd5b5050835460405184935063ffffffff90911691507f57e9aa735f3643050a70c432302f101b9888619f48a9e768d482f9237a2720a590600090a35050565b6001830154600160701b90046001600160401b031681141561344657600160009054906101000a90046001600160a01b03166001600160a01b03166333fb96ee6040518163ffffffff1660e01b815260040160206040518083038186803b15801561332057600080fd5b505afa158015613334573d6000803e3d6000fd5b505050506040513d601f19601f8201168201806040525081019061335891906140c6565b6001600160a01b03166331846b71846040518263ffffffff1660e01b81526004016133839190614245565b600060405180830381600087803b15801561339d57600080fd5b505af11580156133b1573d6000803e3d6000fd5b50508454604051631b7a23db60e21b815260048082015263ffffffff909116602482015273__$1216f89a8e7e65c17bbdb90cf043af022a$__9250636de88f6c915060440160206040518083038186803b15801561340e57600080fd5b505af4158015613422573d6000803e3d6000fd5b505050506040513d601f19601f8201168201806040525081019061202c9190613eab565b613451838383613651565b600160009054906101000a90046001600160a01b03166001600160a01b03166333fb96ee6040518163ffffffff1660e01b815260040160206040518083038186803b15801561349f57600080fd5b505afa1580156134b3573d6000803e3d6000fd5b505050506040513d601f19601f820116820180604052508101906134d791906140c6565b83546040516324415e4360e11b8152600160801b90910464ffffffffff166004820152602481018490526044810183905260648101849052600060848201526001600160a01b039190911690634882bc869060a401600060405180830381600087803b15801561354657600080fd5b505af115801561355a573d6000803e3d6000fd5b50505050505050565b6000546001600160a01b0316156135b45760405162461bcd60e51b815260206004820152601560248201527430b63932b0b23c9039b2ba103932b3a1b2b73a32b960591b604482015260640161079a565b600080546001600160a01b0319166001600160a01b0392909216919091179055565b6001546001600160a01b03161561362f5760405162461bcd60e51b815260206004820152601960248201527f616c7265616479207365742067656e6572616c4b656570657200000000000000604482015260640161079a565b600180546001600160a01b0319166001600160a01b0392909216919091179055565b6040516359a5250960e01b815260048101849052602481018390526044810182905273__$1216f89a8e7e65c17bbdb90cf043af022a$__906359a525099060640160006040518083038186803b1580156136aa57600080fd5b505af41580156136be573d6000803e3d6000fd5b5050845460405184935085925063ffffffff909116907f0476aa40cc4df015c2f3118ec8dae2be71258851b1ebb240ae6cbe75bc30819890600090a4505050565b6040805161012081018252600080825260208201819052918101829052606081018290526080810182905260a0810182905260c0810182905260e0810182905261010081019190915290565b604051806040016040528061375e6136ff565b81526040805160c08101825260008082526020828101829052928201819052606082018190526080820181905260a082015291015290565b6000602082840312156137a857600080fd5b5035919050565b600080604083850312156137c257600080fd5b50508035926020909101359150565b6020808252825182820181905260009190848201906040850190845b81811015613809578351835292840192918401916001016137ed565b50909695505050505050565b6000806000806080858703121561382b57600080fd5b5050823594602084013594506040840135936060013592509050565b65ffffffffffff815116825260208101516001600160401b038082166020850152806040840151166040850152806060840151166060850152505060ff608082015116608083015260ff60a08201511660a08301525050565b60c081016106ef8284613847565b6001600160a01b03811681146125b457600080fd5b6000602082840312156138d557600080fd5b813561192b816138ae565b63ffffffff8082511683528060208301511660208401525061ffff6040820151166040830152606081015161391f606084018265ffffffffffff169052565b506080810151613938608084018264ffffffffff169052565b5060a081015161395060a084018263ffffffff169052565b5060c081015161396860c084018263ffffffff169052565b5060e081015161397e60e084018261ffff169052565b506101008181015160ff81168483015261202c565b61012081016106ef82846138e0565b634e487b7160e01b600052604160045260246000fd5b60405160c081016001600160401b03811182821017156139da576139da6139a2565b60405290565b604080519081016001600160401b03811182821017156139da576139da6139a2565b60405161012081016001600160401b03811182821017156139da576139da6139a2565b604051601f8201601f191681016001600160401b0381118282101715613a4d57613a4d6139a2565b604052919050565b600080600060608486031215613a6a57600080fd5b833592506020808501356001600160401b0380821115613a8957600080fd5b818701915087601f830112613a9d57600080fd5b813581811115613aaf57613aaf6139a2565b613ac1601f8201601f19168501613a25565b91508082528884828501011115613ad757600080fd5b8084840185840137600084828401015250809450505050604084013590509250925092565b60008060008060008060c08789031215613b1557600080fd5b505084359660208601359650604086013595606081013595506080810135945060a0013592509050565b60006101e082019050613b538284516138e0565b6020830151613b66610120840182613847565b5092915050565b60008060008060808587031215613b8357600080fd5b843593506020850135613b95816138ae565b92506040850135613ba5816138ae565b91506060850135613bb5816138ae565b939692955090935050565b63ffffffff811681146125b457600080fd5b8035613bdd81613bc0565b919050565b61ffff811681146125b457600080fd5b8035613bdd81613be2565b65ffffffffffff811681146125b457600080fd5b8035613bdd81613bfd565b64ffffffffff811681146125b457600080fd5b8035613bdd81613c1c565b60ff811681146125b457600080fd5b8035613bdd81613c3a565b6001600160401b03811681146125b457600080fd5b600060c08284031215613c7b57600080fd5b613c836139b8565b90508135613c9081613bfd565b81526020820135613ca081613c54565b60208201526040820135613cb381613c54565b60408201526060820135613cc681613c54565b60608201526080820135613cd981613c3a565b608082015260a0820135613cec81613c3a565b60a082015292915050565b60008183036101e0811215613d0b57600080fd5b613d136139e0565b61012080831215613d2357600080fd5b613d2b613a02565b9250613d3685613bd2565b8352613d4460208601613bd2565b6020840152613d5560408601613bf2565b6040840152613d6660608601613c11565b6060840152613d7760808601613c2f565b6080840152613d8860a08601613bd2565b60a0840152613d9960c08601613bd2565b60c0840152613daa60e08601613bf2565b60e0840152610100613dbd818701613c49565b90840152828252613dd086868301613c69565b602083015250949350505050565b8051613bdd81613c1c565b600060208284031215613dfb57600080fd5b815161192b81613c1c565b60006020808385031215613e1957600080fd5b82516001600160401b0380821115613e3057600080fd5b818501915085601f830112613e4457600080fd5b815181811115613e5657613e566139a2565b8060051b9150613e67848301613a25565b8181529183018401918481019088841115613e8157600080fd5b938501935b83851015613e9f57845182529385019390850190613e86565b98975050505050505050565b600060208284031215613ebd57600080fd5b8151801515811461192b57600080fd5b60208082526026908201527f41432e6f6e6c794469726563744b65657065723a206e6f74206469726563742060408201526535b2b2b832b960d11b606082015260800190565b60208082526011908201527020a19737b59d103737ba1025b2b2b832b960791b604082015260600190565b8051613bdd81613bc0565b8051613bdd81613be2565b8051613bdd81613bfd565b8051613bdd81613c3a565b600060c08284031215613f7c57600080fd5b613f846139b8565b90508151613f9181613bfd565b81526020820151613fa181613c54565b60208201526040820151613fb481613c54565b60408201526060820151613fc781613c54565b60608201526080820151613fda81613c3a565b608082015260a0820151613cec81613c3a565b60008183036101e081121561400157600080fd5b6140096139e0565b6101208083121561401957600080fd5b614021613a02565b925061402c85613f3e565b835261403a60208601613f3e565b602084015261404b60408601613f49565b604084015261405c60608601613f54565b606084015261406d60808601613dde565b608084015261407e60a08601613f3e565b60a084015261408f60c08601613f3e565b60c08401526140a060e08601613f49565b60e08401526101006140b3818701613f5f565b90840152828252613dd086868301613f6a565b6000602082840312156140d857600080fd5b815161192b816138ae565b6000602082840312156140f557600080fd5b5051919050565b60006020828403121561410e57600080fd5b815161192b81613bc0565b60006020828403121561412b57600080fd5b815161192b81613be2565b6020808252601f908201527f424f532e6d662e53453a207365714f665368617265204e4f5420657869737400604082015260600190565b6020808252601b908201527f424f532e6d662e4e463a20736861726520697320667265657a65640000000000604082015260600190565b84815260006020858184015260806040840152845180608085015260005b818110156141de5786810183015185820160a0015282016141c2565b818111156141f057600060a083870101525b5060608401949094525050601f91909101601f19160160a0019392505050565b60006102008201905083825261422a6020830184516138e0565b602083015161423d610140840182613847565b509392505050565b815463ffffffff8082168352602082811c8216908401526101e08301919061ffff61427b60408601828560401c1661ffff169052565b605083901c65ffffffffffff166060860152608083811c64ffffffffff16908601526142b460a08601838560a81c1663ffffffff169052565b6142cb60c08601838560c81c1663ffffffff169052565b6142e060e08601828560e81c1661ffff169052565b505060f881901c61010084015250600183015465ffffffffffff81166101208401526001600160401b03603082901c8116610140850152607082901c811661016085015260b082901c1661018084015260ff60f082901c166101a084015260f81c6101c08301526106ef56fea2646970667358221220e9f98312f988210680f73c8b83588a80f1b35f06ff151bccd81daa39d4b0d53264736f6c63430008080033",
    "sourcePath": "/Users/kaptain/github.com/comboox/comboox/contracts/books/bos/BookOfShares.sol",
    "compiler": {
        "name": "solc",
        "version": "0.8.8+commit.dddeac2f"
    },
    "functionHashes": {
        "abandonRole(bytes32)": "3da9a600",
        "counterOfClasses()": "544f1ba2",
        "counterOfShares()": "4a0ca0d6",
        "decreaseCleanPaid(uint256,uint256)": "60d095df",
        "finalized()": "b3f05b97",
        "getBodyOfShare(uint256)": "58ebd89b",
        "getBookeeper()": "ed211023",
        "getGeneralCounsel()": "103f6edd",
        "getHeadOfShare(uint256)": "92c80eb7",
        "getLocker(bytes32)": "851ad654",
        "getOwner()": "893d20e8",
        "getShare(uint256)": "cfb5a5f8",
        "getSharesOfClass(uint256)": "1d601918",
        "grantRole(bytes32,uint256)": "1b6ea9f9",
        "hasRole(bytes32,uint256)": "7e063c5a",
        "increaseCleanPaid(uint256,uint256)": "ccdddd41",
        "init(uint256,address,address,address)": "dc890da9",
        "isShare(uint256)": "0c1d138b",
        "issueShare(bytes32,uint256,uint256,uint256)": "36571a79",
        "lockContents()": "f045a769",
        "regShare(((uint32,uint32,uint16,uint48,uint40,uint32,uint32,uint16,uint8),(uint48,uint64,uint64,uint64,uint8,uint8)))": "ea64673f",
        "removeDirectKeeper(address)": "5d7ad88f",
        "renounceRole(bytes32)": "8bb9c5bf",
        "requestPaidInCapital(bytes32,string,uint256)": "aa0ad352",
        "revokeRole(bytes32,uint256)": "19d61ad9",
        "setDirectKeeper(address)": "6be8496f",
        "setGeneralCounsel(uint256)": "4a14beb1",
        "setOwner(uint256)": "8041494e",
        "setPayInAmt(bytes32,uint256)": "23e4b165",
        "setRoleAdmin(bytes32,uint256)": "5171ebd4",
        "transferShare(uint256,uint256,uint256,uint256,uint256,uint256)": "ae47fa54",
        "updateStateOfShare(uint256,uint256)": "874b5657",
        "withdrawPayInAmt(bytes32)": "ba5052cb"
    },
    "gasEstimates": {
        "creation": {
            "codeDepositCost": "3456400",
            "executionCost": "3868",
            "totalCost": "3460268"
        },
        "external": {
            "abandonRole(bytes32)": "infinite",
            "counterOfClasses()": "infinite",
            "counterOfShares()": "infinite",
            "decreaseCleanPaid(uint256,uint256)": "infinite",
            "finalized()": "2383",
            "getBodyOfShare(uint256)": "5444",
            "getBookeeper()": "infinite",
            "getGeneralCounsel()": "infinite",
            "getHeadOfShare(uint256)": "5876",
            "getLocker(bytes32)": "2549",
            "getOwner()": "infinite",
            "getShare(uint256)": "8782",
            "getSharesOfClass(uint256)": "infinite",
            "grantRole(bytes32,uint256)": "infinite",
            "hasRole(bytes32,uint256)": "infinite",
            "increaseCleanPaid(uint256,uint256)": "infinite",
            "init(uint256,address,address,address)": "infinite",
            "isShare(uint256)": "2521",
            "issueShare(bytes32,uint256,uint256,uint256)": "infinite",
            "lockContents()": "infinite",
            "regShare(((uint32,uint32,uint16,uint48,uint40,uint32,uint32,uint16,uint8),(uint48,uint64,uint64,uint64,uint8,uint8)))": "infinite",
            "removeDirectKeeper(address)": "infinite",
            "renounceRole(bytes32)": "infinite",
            "requestPaidInCapital(bytes32,string,uint256)": "infinite",
            "revokeRole(bytes32,uint256)": "infinite",
            "setDirectKeeper(address)": "infinite",
            "setGeneralCounsel(uint256)": "infinite",
            "setOwner(uint256)": "infinite",
            "setPayInAmt(bytes32,uint256)": "infinite",
            "setRoleAdmin(bytes32,uint256)": "infinite",
            "transferShare(uint256,uint256,uint256,uint256,uint256,uint256)": "infinite",
            "updateStateOfShare(uint256,uint256)": "infinite",
            "withdrawPayInAmt(bytes32)": "infinite"
        },
        "internal": {
            "_decreaseShareAmt(struct SharesRepo.Share storage pointer,uint256,uint256)": "infinite",
            "_deregisterShare(uint256)": "infinite",
            "_payInCapital(struct SharesRepo.Share storage pointer,uint256)": "infinite",
            "_subAmtFromShare(struct SharesRepo.Share storage pointer,uint256,uint256)": "infinite"
        }
    }
}