{
    "contractName": "BookOfShares",
    "abi": [
        {
            "anonymous": false,
            "inputs": [
                {
                    "indexed": true,
                    "internalType": "uint256",
                    "name": "seq",
                    "type": "uint256"
                },
                {
                    "indexed": false,
                    "internalType": "uint64",
                    "name": "paid",
                    "type": "uint64"
                },
                {
                    "indexed": false,
                    "internalType": "uint64",
                    "name": "par",
                    "type": "uint64"
                }
            ],
            "name": "DecreaseCleanAmt",
            "type": "event"
        },
        {
            "anonymous": false,
            "inputs": [
                {
                    "indexed": true,
                    "internalType": "uint256",
                    "name": "seq",
                    "type": "uint256"
                }
            ],
            "name": "DeregisterShare",
            "type": "event"
        },
        {
            "anonymous": false,
            "inputs": [
                {
                    "indexed": true,
                    "internalType": "uint256",
                    "name": "seq",
                    "type": "uint256"
                },
                {
                    "indexed": false,
                    "internalType": "uint64",
                    "name": "paid",
                    "type": "uint64"
                },
                {
                    "indexed": false,
                    "internalType": "uint64",
                    "name": "par",
                    "type": "uint64"
                }
            ],
            "name": "IncreaseCleanAmt",
            "type": "event"
        },
        {
            "anonymous": false,
            "inputs": [
                {
                    "indexed": false,
                    "internalType": "uint256",
                    "name": "owner",
                    "type": "uint256"
                },
                {
                    "indexed": false,
                    "internalType": "address",
                    "name": "directKeeper",
                    "type": "address"
                },
                {
                    "indexed": false,
                    "internalType": "address",
                    "name": "regCenter",
                    "type": "address"
                },
                {
                    "indexed": false,
                    "internalType": "address",
                    "name": "generalKeeper",
                    "type": "address"
                }
            ],
            "name": "Init",
            "type": "event"
        },
        {
            "anonymous": false,
            "inputs": [
                {
                    "indexed": true,
                    "internalType": "uint256",
                    "name": "seq",
                    "type": "uint256"
                },
                {
                    "indexed": false,
                    "internalType": "uint64",
                    "name": "paid",
                    "type": "uint64"
                },
                {
                    "indexed": false,
                    "internalType": "uint64",
                    "name": "par",
                    "type": "uint64"
                }
            ],
            "name": "IssueShare",
            "type": "event"
        },
        {
            "anonymous": false,
            "inputs": [],
            "name": "LockContents",
            "type": "event"
        },
        {
            "anonymous": false,
            "inputs": [
                {
                    "indexed": true,
                    "internalType": "uint256",
                    "name": "seq",
                    "type": "uint256"
                },
                {
                    "indexed": false,
                    "internalType": "uint64",
                    "name": "amount",
                    "type": "uint64"
                }
            ],
            "name": "PayInCapital",
            "type": "event"
        },
        {
            "anonymous": false,
            "inputs": [
                {
                    "indexed": false,
                    "internalType": "address",
                    "name": "keeper",
                    "type": "address"
                }
            ],
            "name": "SetDirectKeeper",
            "type": "event"
        },
        {
            "anonymous": false,
            "inputs": [
                {
                    "indexed": false,
                    "internalType": "uint256",
                    "name": "acct",
                    "type": "uint256"
                }
            ],
            "name": "SetGeneralCounsel",
            "type": "event"
        },
        {
            "anonymous": false,
            "inputs": [
                {
                    "indexed": false,
                    "internalType": "address",
                    "name": "gk",
                    "type": "address"
                }
            ],
            "name": "SetGeneralKeeper",
            "type": "event"
        },
        {
            "anonymous": false,
            "inputs": [
                {
                    "indexed": false,
                    "internalType": "uint256",
                    "name": "acct",
                    "type": "uint256"
                }
            ],
            "name": "SetOwner",
            "type": "event"
        },
        {
            "anonymous": false,
            "inputs": [
                {
                    "indexed": true,
                    "internalType": "bytes32",
                    "name": "sn",
                    "type": "bytes32"
                },
                {
                    "indexed": false,
                    "internalType": "uint64",
                    "name": "amount",
                    "type": "uint64"
                }
            ],
            "name": "SetPayInAmt",
            "type": "event"
        },
        {
            "anonymous": false,
            "inputs": [
                {
                    "indexed": false,
                    "internalType": "address",
                    "name": "rc",
                    "type": "address"
                }
            ],
            "name": "SetRegCenter",
            "type": "event"
        },
        {
            "anonymous": false,
            "inputs": [
                {
                    "indexed": true,
                    "internalType": "uint256",
                    "name": "seq",
                    "type": "uint256"
                },
                {
                    "indexed": false,
                    "internalType": "uint64",
                    "name": "paid",
                    "type": "uint64"
                },
                {
                    "indexed": false,
                    "internalType": "uint64",
                    "name": "par",
                    "type": "uint64"
                }
            ],
            "name": "SubAmountFromShare",
            "type": "event"
        },
        {
            "anonymous": false,
            "inputs": [
                {
                    "indexed": true,
                    "internalType": "uint256",
                    "name": "seq",
                    "type": "uint256"
                },
                {
                    "indexed": false,
                    "internalType": "uint48",
                    "name": "paidInDeadline",
                    "type": "uint48"
                }
            ],
            "name": "UpdatePaidInDeadline",
            "type": "event"
        },
        {
            "anonymous": false,
            "inputs": [
                {
                    "indexed": true,
                    "internalType": "uint256",
                    "name": "seq",
                    "type": "uint256"
                },
                {
                    "indexed": false,
                    "internalType": "uint8",
                    "name": "state",
                    "type": "uint8"
                }
            ],
            "name": "UpdateStateOfShare",
            "type": "event"
        },
        {
            "anonymous": false,
            "inputs": [
                {
                    "indexed": true,
                    "internalType": "bytes32",
                    "name": "sn",
                    "type": "bytes32"
                }
            ],
            "name": "WithdrawPayInAmt",
            "type": "event"
        },
        {
            "inputs": [
                {
                    "internalType": "bytes32",
                    "name": "role",
                    "type": "bytes32"
                }
            ],
            "name": "abandonRole",
            "outputs": [],
            "stateMutability": "nonpayable",
            "type": "function"
        },
        {
            "inputs": [],
            "name": "counterOfClasses",
            "outputs": [
                {
                    "internalType": "uint16",
                    "name": "",
                    "type": "uint16"
                }
            ],
            "stateMutability": "view",
            "type": "function"
        },
        {
            "inputs": [],
            "name": "counterOfShares",
            "outputs": [
                {
                    "internalType": "uint32",
                    "name": "",
                    "type": "uint32"
                }
            ],
            "stateMutability": "view",
            "type": "function"
        },
        {
            "inputs": [
                {
                    "internalType": "uint256",
                    "name": "seq",
                    "type": "uint256"
                },
                {
                    "internalType": "uint64",
                    "name": "paid",
                    "type": "uint64"
                },
                {
                    "internalType": "uint64",
                    "name": "par",
                    "type": "uint64"
                }
            ],
            "name": "decreaseCapital",
            "outputs": [],
            "stateMutability": "nonpayable",
            "type": "function"
        },
        {
            "inputs": [
                {
                    "internalType": "uint256",
                    "name": "seq",
                    "type": "uint256"
                },
                {
                    "internalType": "uint64",
                    "name": "paid",
                    "type": "uint64"
                },
                {
                    "internalType": "uint64",
                    "name": "par",
                    "type": "uint64"
                }
            ],
            "name": "decreaseCleanAmt",
            "outputs": [],
            "stateMutability": "nonpayable",
            "type": "function"
        },
        {
            "inputs": [],
            "name": "finalized",
            "outputs": [
                {
                    "internalType": "bool",
                    "name": "",
                    "type": "bool"
                }
            ],
            "stateMutability": "view",
            "type": "function"
        },
        {
            "inputs": [
                {
                    "internalType": "uint16",
                    "name": "class",
                    "type": "uint16"
                }
            ],
            "name": "getAttrOfClass",
            "outputs": [
                {
                    "internalType": "uint256[]",
                    "name": "seqList",
                    "type": "uint256[]"
                },
                {
                    "internalType": "uint256[]",
                    "name": "members",
                    "type": "uint256[]"
                }
            ],
            "stateMutability": "view",
            "type": "function"
        },
        {
            "inputs": [
                {
                    "internalType": "uint256",
                    "name": "seq",
                    "type": "uint256"
                }
            ],
            "name": "getBodyOfShare",
            "outputs": [
                {
                    "components": [
                        {
                            "internalType": "uint64",
                            "name": "paid",
                            "type": "uint64"
                        },
                        {
                            "internalType": "uint64",
                            "name": "par",
                            "type": "uint64"
                        },
                        {
                            "internalType": "uint64",
                            "name": "cleanPaid",
                            "type": "uint64"
                        },
                        {
                            "internalType": "uint64",
                            "name": "cleanPar",
                            "type": "uint64"
                        }
                    ],
                    "internalType": "struct SharesRepo.Body",
                    "name": "body",
                    "type": "tuple"
                }
            ],
            "stateMutability": "view",
            "type": "function"
        },
        {
            "inputs": [],
            "name": "getBookeeper",
            "outputs": [
                {
                    "internalType": "address",
                    "name": "",
                    "type": "address"
                }
            ],
            "stateMutability": "view",
            "type": "function"
        },
        {
            "inputs": [],
            "name": "getGeneralCounsel",
            "outputs": [
                {
                    "internalType": "uint40",
                    "name": "",
                    "type": "uint40"
                }
            ],
            "stateMutability": "view",
            "type": "function"
        },
        {
            "inputs": [
                {
                    "internalType": "uint256",
                    "name": "seq",
                    "type": "uint256"
                }
            ],
            "name": "getHeadOfShare",
            "outputs": [
                {
                    "components": [
                        {
                            "internalType": "uint32",
                            "name": "seq",
                            "type": "uint32"
                        },
                        {
                            "internalType": "uint32",
                            "name": "preSeq",
                            "type": "uint32"
                        },
                        {
                            "internalType": "uint16",
                            "name": "class",
                            "type": "uint16"
                        },
                        {
                            "internalType": "uint48",
                            "name": "issueDate",
                            "type": "uint48"
                        },
                        {
                            "internalType": "uint48",
                            "name": "payInDeadline",
                            "type": "uint48"
                        },
                        {
                            "internalType": "uint40",
                            "name": "shareholder",
                            "type": "uint40"
                        },
                        {
                            "internalType": "uint32",
                            "name": "price",
                            "type": "uint32"
                        },
                        {
                            "internalType": "uint8",
                            "name": "state",
                            "type": "uint8"
                        }
                    ],
                    "internalType": "struct SharesRepo.Head",
                    "name": "head",
                    "type": "tuple"
                }
            ],
            "stateMutability": "view",
            "type": "function"
        },
        {
            "inputs": [
                {
                    "internalType": "bytes32",
                    "name": "hashLock",
                    "type": "bytes32"
                }
            ],
            "name": "getLocker",
            "outputs": [
                {
                    "internalType": "uint64",
                    "name": "amount",
                    "type": "uint64"
                }
            ],
            "stateMutability": "view",
            "type": "function"
        },
        {
            "inputs": [],
            "name": "getOwner",
            "outputs": [
                {
                    "internalType": "uint40",
                    "name": "",
                    "type": "uint40"
                }
            ],
            "stateMutability": "view",
            "type": "function"
        },
        {
            "inputs": [
                {
                    "internalType": "uint256",
                    "name": "seq",
                    "type": "uint256"
                }
            ],
            "name": "getShare",
            "outputs": [
                {
                    "components": [
                        {
                            "internalType": "uint256",
                            "name": "sn",
                            "type": "uint256"
                        },
                        {
                            "components": [
                                {
                                    "internalType": "uint32",
                                    "name": "seq",
                                    "type": "uint32"
                                },
                                {
                                    "internalType": "uint32",
                                    "name": "preSeq",
                                    "type": "uint32"
                                },
                                {
                                    "internalType": "uint16",
                                    "name": "class",
                                    "type": "uint16"
                                },
                                {
                                    "internalType": "uint48",
                                    "name": "issueDate",
                                    "type": "uint48"
                                },
                                {
                                    "internalType": "uint48",
                                    "name": "payInDeadline",
                                    "type": "uint48"
                                },
                                {
                                    "internalType": "uint40",
                                    "name": "shareholder",
                                    "type": "uint40"
                                },
                                {
                                    "internalType": "uint32",
                                    "name": "price",
                                    "type": "uint32"
                                },
                                {
                                    "internalType": "uint8",
                                    "name": "state",
                                    "type": "uint8"
                                }
                            ],
                            "internalType": "struct SharesRepo.Head",
                            "name": "head",
                            "type": "tuple"
                        },
                        {
                            "components": [
                                {
                                    "internalType": "uint64",
                                    "name": "paid",
                                    "type": "uint64"
                                },
                                {
                                    "internalType": "uint64",
                                    "name": "par",
                                    "type": "uint64"
                                },
                                {
                                    "internalType": "uint64",
                                    "name": "cleanPaid",
                                    "type": "uint64"
                                },
                                {
                                    "internalType": "uint64",
                                    "name": "cleanPar",
                                    "type": "uint64"
                                }
                            ],
                            "internalType": "struct SharesRepo.Body",
                            "name": "body",
                            "type": "tuple"
                        }
                    ],
                    "internalType": "struct SharesRepo.Share",
                    "name": "share",
                    "type": "tuple"
                }
            ],
            "stateMutability": "view",
            "type": "function"
        },
        {
            "inputs": [
                {
                    "internalType": "bytes32",
                    "name": "role",
                    "type": "bytes32"
                },
                {
                    "internalType": "uint256",
                    "name": "acct",
                    "type": "uint256"
                }
            ],
            "name": "grantRole",
            "outputs": [],
            "stateMutability": "nonpayable",
            "type": "function"
        },
        {
            "inputs": [
                {
                    "internalType": "bytes32",
                    "name": "role",
                    "type": "bytes32"
                },
                {
                    "internalType": "uint256",
                    "name": "acct",
                    "type": "uint256"
                }
            ],
            "name": "hasRole",
            "outputs": [
                {
                    "internalType": "bool",
                    "name": "",
                    "type": "bool"
                }
            ],
            "stateMutability": "view",
            "type": "function"
        },
        {
            "inputs": [
                {
                    "internalType": "uint256",
                    "name": "seq",
                    "type": "uint256"
                },
                {
                    "internalType": "uint64",
                    "name": "paid",
                    "type": "uint64"
                },
                {
                    "internalType": "uint64",
                    "name": "par",
                    "type": "uint64"
                }
            ],
            "name": "increaseCleanAmt",
            "outputs": [],
            "stateMutability": "nonpayable",
            "type": "function"
        },
        {
            "inputs": [
                {
                    "internalType": "uint256",
                    "name": "owner",
                    "type": "uint256"
                },
                {
                    "internalType": "address",
                    "name": "directKeeper",
                    "type": "address"
                },
                {
                    "internalType": "address",
                    "name": "regCenter",
                    "type": "address"
                },
                {
                    "internalType": "address",
                    "name": "generalKeeper",
                    "type": "address"
                }
            ],
            "name": "init",
            "outputs": [],
            "stateMutability": "nonpayable",
            "type": "function"
        },
        {
            "inputs": [
                {
                    "internalType": "uint256",
                    "name": "seq",
                    "type": "uint256"
                }
            ],
            "name": "isShare",
            "outputs": [
                {
                    "internalType": "bool",
                    "name": "",
                    "type": "bool"
                }
            ],
            "stateMutability": "view",
            "type": "function"
        },
        {
            "inputs": [
                {
                    "internalType": "uint256",
                    "name": "shareNumber",
                    "type": "uint256"
                },
                {
                    "internalType": "uint64",
                    "name": "paid",
                    "type": "uint64"
                },
                {
                    "internalType": "uint64",
                    "name": "par",
                    "type": "uint64"
                }
            ],
            "name": "issueShare",
            "outputs": [],
            "stateMutability": "nonpayable",
            "type": "function"
        },
        {
            "inputs": [],
            "name": "lockContents",
            "outputs": [],
            "stateMutability": "nonpayable",
            "type": "function"
        },
        {
            "inputs": [
                {
                    "components": [
                        {
                            "internalType": "uint32",
                            "name": "seq",
                            "type": "uint32"
                        },
                        {
                            "internalType": "uint32",
                            "name": "preSeq",
                            "type": "uint32"
                        },
                        {
                            "internalType": "uint16",
                            "name": "class",
                            "type": "uint16"
                        },
                        {
                            "internalType": "uint48",
                            "name": "issueDate",
                            "type": "uint48"
                        },
                        {
                            "internalType": "uint48",
                            "name": "payInDeadline",
                            "type": "uint48"
                        },
                        {
                            "internalType": "uint40",
                            "name": "shareholder",
                            "type": "uint40"
                        },
                        {
                            "internalType": "uint32",
                            "name": "price",
                            "type": "uint32"
                        },
                        {
                            "internalType": "uint8",
                            "name": "state",
                            "type": "uint8"
                        }
                    ],
                    "internalType": "struct SharesRepo.Head",
                    "name": "head",
                    "type": "tuple"
                },
                {
                    "internalType": "uint64",
                    "name": "paid",
                    "type": "uint64"
                },
                {
                    "internalType": "uint64",
                    "name": "par",
                    "type": "uint64"
                }
            ],
            "name": "regShare",
            "outputs": [],
            "stateMutability": "nonpayable",
            "type": "function"
        },
        {
            "inputs": [
                {
                    "internalType": "bytes32",
                    "name": "role",
                    "type": "bytes32"
                }
            ],
            "name": "renounceRole",
            "outputs": [],
            "stateMutability": "nonpayable",
            "type": "function"
        },
        {
            "inputs": [
                {
                    "internalType": "bytes32",
                    "name": "hashLock",
                    "type": "bytes32"
                },
                {
                    "internalType": "string",
                    "name": "hashKey",
                    "type": "string"
                }
            ],
            "name": "requestPaidInCapital",
            "outputs": [],
            "stateMutability": "nonpayable",
            "type": "function"
        },
        {
            "inputs": [
                {
                    "internalType": "bytes32",
                    "name": "role",
                    "type": "bytes32"
                },
                {
                    "internalType": "uint256",
                    "name": "acct",
                    "type": "uint256"
                }
            ],
            "name": "revokeRole",
            "outputs": [],
            "stateMutability": "nonpayable",
            "type": "function"
        },
        {
            "inputs": [
                {
                    "internalType": "address",
                    "name": "keeper",
                    "type": "address"
                }
            ],
            "name": "setDirectKeeper",
            "outputs": [],
            "stateMutability": "nonpayable",
            "type": "function"
        },
        {
            "inputs": [
                {
                    "internalType": "uint256",
                    "name": "acct",
                    "type": "uint256"
                }
            ],
            "name": "setGeneralCounsel",
            "outputs": [],
            "stateMutability": "nonpayable",
            "type": "function"
        },
        {
            "inputs": [
                {
                    "internalType": "uint256",
                    "name": "acct",
                    "type": "uint256"
                }
            ],
            "name": "setOwner",
            "outputs": [],
            "stateMutability": "nonpayable",
            "type": "function"
        },
        {
            "inputs": [
                {
                    "internalType": "bytes32",
                    "name": "hashLock",
                    "type": "bytes32"
                },
                {
                    "internalType": "uint64",
                    "name": "amount",
                    "type": "uint64"
                }
            ],
            "name": "setPayInAmt",
            "outputs": [],
            "stateMutability": "nonpayable",
            "type": "function"
        },
        {
            "inputs": [
                {
                    "internalType": "bytes32",
                    "name": "role",
                    "type": "bytes32"
                },
                {
                    "internalType": "uint256",
                    "name": "acct",
                    "type": "uint256"
                }
            ],
            "name": "setRoleAdmin",
            "outputs": [],
            "stateMutability": "nonpayable",
            "type": "function"
        },
        {
            "inputs": [
                {
                    "internalType": "uint256",
                    "name": "seq",
                    "type": "uint256"
                },
                {
                    "internalType": "uint64",
                    "name": "paid",
                    "type": "uint64"
                },
                {
                    "internalType": "uint64",
                    "name": "par",
                    "type": "uint64"
                },
                {
                    "internalType": "uint40",
                    "name": "to",
                    "type": "uint40"
                },
                {
                    "internalType": "uint32",
                    "name": "price",
                    "type": "uint32"
                }
            ],
            "name": "transferShare",
            "outputs": [],
            "stateMutability": "nonpayable",
            "type": "function"
        },
        {
            "inputs": [
                {
                    "internalType": "uint256",
                    "name": "seq",
                    "type": "uint256"
                },
                {
                    "internalType": "uint48",
                    "name": "deadline",
                    "type": "uint48"
                }
            ],
            "name": "updatePaidInDeadline",
            "outputs": [],
            "stateMutability": "nonpayable",
            "type": "function"
        },
        {
            "inputs": [
                {
                    "internalType": "uint256",
                    "name": "seq",
                    "type": "uint256"
                },
                {
                    "internalType": "uint8",
                    "name": "state",
                    "type": "uint8"
                }
            ],
            "name": "updateStateOfShare",
            "outputs": [],
            "stateMutability": "nonpayable",
            "type": "function"
        },
        {
            "inputs": [
                {
                    "internalType": "bytes32",
                    "name": "hashLock",
                    "type": "bytes32"
                }
            ],
            "name": "withdrawPayInAmt",
            "outputs": [],
            "stateMutability": "nonpayable",
            "type": "function"
        }
    ],
    "bytecode": "608060405234801561001057600080fd5b5061389f806100206000396000f3fe608060405234801561001057600080fd5b50600436106102065760003560e01c80638041494e1161011a578063b3f05b97116100ad578063dc890da91161007c578063dc890da91461050b578063ed2110231461051e578063f045a7691461053e578063f0d6c10914610546578063f814b8001461055957600080fd5b8063b3f05b97146104b1578063ba5052cb146104c5578063cfb5a5f8146104d8578063dc8492ce146104f857600080fd5b8063893d20e8116100e9578063893d20e8146104635780638bb9c5bf1461046b57806392c80eb71461047e578063aeb4d7661461049e57600080fd5b80638041494e146103f2578063851ad654146104055780638652d7121461043d57806388678a8e1461045057600080fd5b80634a14beb11161019d578063544f1ba21161016c578063544f1ba21461035057806358ebd89b146103995780636be8496f146103b95780636ea6c824146103cc5780637e063c5a146103df57600080fd5b80634a14beb1146103045780634bacf961146103175780634fc3e83f1461032a5780635171ebd41461033d57600080fd5b806319d61ad9116101d957806319d61ad91461028b5780631b6ea9f91461029e5780633da9a600146102b15780634a0ca0d6146102c457600080fd5b806304726d7a1461020b5780630b56b7db146102205780630c1d138b1461024a578063103f6edd1461026d575b600080fd5b61021e610219366004612edd565b61056c565b005b61023361022e366004612f9e565b610827565b604051610241929190612ffd565b60405180910390f35b61025d61025836600461302b565b6108c5565b6040519015158152602001610241565b6102756108eb565b60405164ffffffffff9091168152602001610241565b61021e610299366004613044565b610977565b61021e6102ac366004613044565b610a0b565b61021e6102bf36600461302b565b610a30565b60008052600460209081527f17ef568e3e12ab5b9c7254a8d58478811de00f9e6eb34345acd53bf8fd09d3ed5460405163ffffffff909116815201610241565b61021e61031236600461302b565b610b42565b61021e61032536600461307d565b610d32565b61021e6103383660046130d8565b610f02565b61021e61034b366004613044565b611096565b6000805260046020527f17ef568e3e12ab5b9c7254a8d58478811de00f9e6eb34345acd53bf8fd09d3ed54600160401b900461ffff1660405161ffff9091168152602001610241565b6103ac6103a736600461302b565b6110bb565b6040516102419190613108565b61021e6103c7366004613159565b611165565b61021e6103da36600461307d565b611217565b61025d6103ed366004613044565b6113b4565b61021e61040036600461302b565b611451565b61042561041336600461302b565b60009081526007602052604090205490565b6040516001600160401b039091168152602001610241565b61021e61044b3660046131cb565b611636565b61021e61045e36600461329f565b61181f565b61027561197c565b61021e61047936600461302b565b6119b7565b61049161048c36600461302b565b611a10565b6040516102419190613355565b61021e6104ac36600461307d565b611ae6565b60028054600160f01b900460ff161461025d565b61021e6104d336600461302b565b611e4f565b6104eb6104e636600461302b565b611fb5565b6040516102419190613364565b61021e61050636600461307d565b6120e6565b61021e6105193660046133c4565b61224c565b61052661232f565b6040516001600160a01b039091168152602001610241565b61021e6123b5565b61021e610554366004613417565b6125d3565b61021e61056736600461347b565b61281d565b604051633b11adbf60e21b81526002600482015233602482015273__$364aad554dc80380f414546becdd2c1584$__9063ec46b6fc9060440160206040518083038186803b1580156105bd57600080fd5b505af41580156105d1573d6000803e3d6000fd5b505050506040513d601f19601f820116820180604052508101906105f591906134a0565b61061a5760405162461bcd60e51b8152600401610611906134c2565b60405180910390fd5b60208180519060200120901b63ffffffff1916602083901b63ffffffff19161461067c5760405162461bcd60e51b8152602060048201526013602482015272424f532e525049433a2077726f6e67206b657960681b6044820152606401610611565b60008281526007602090815260408083205460e086901c84526004909252822090916106a6612953565b60405163bd9ecfc160e01b8152600481018490526001600160401b038516602482015290915073__$8e58971381edbbe3ac3690dc260b78dff1$__9063bd9ecfc19060440160006040518083038186803b15801561070357600080fd5b505af4158015610717573d6000803e3d6000fd5b505050506001828101546040516325b3f84560e21b8152600160b01b90910464ffffffffff1660048201526001600160401b03851660248201526000604482015260648101919091526001600160a01b038216906396cfe11490608401600060405180830381600087803b15801561078e57600080fd5b505af11580156107a2573d6000803e3d6000fd5b5050604051639a3ca24b60e01b81526001600160401b0386166004820152600060248201526001600160a01b0384169250639a3ca24b9150604401600060405180830381600087803b1580156107f757600080fd5b505af115801561080b573d6000803e3d6000fd5b5050506000958652505060076020525050604082209190915550565b60405163e4cb3cfd60e01b815260048082015261ffff82166024820152606090819073__$8e58971381edbbe3ac3690dc260b78dff1$__9063e4cb3cfd9060440160006040518083038186803b15801561088057600080fd5b505af4158015610894573d6000803e3d6000fd5b505050506040513d6000823e601f3d908101601f191682016040526108bc9190810190613587565b91509150915091565b600090815260046020526040902060010154600160501b900465ffffffffffff16151590565b60405163e8c0cc1d60e01b81526002600482015260009073__$364aad554dc80380f414546becdd2c1584$__9063e8c0cc1d906024015b60206040518083038186803b15801561093a57600080fd5b505af415801561094e573d6000803e3d6000fd5b505050506040513d601f19601f8201168201806040525081019061097291906135f5565b905090565b73__$364aad554dc80380f414546becdd2c1584$__6382daafaa60028461099c6129ac565b6040516001600160e01b031960e086901b1681526004810193909352602483019190915264ffffffffff166044820152606481018490526084015b60006040518083038186803b1580156109ef57600080fd5b505af4158015610a03573d6000803e3d6000fd5b505050505050565b73__$364aad554dc80380f414546becdd2c1584$__636320d75e60028461099c6129ac565b604051633b11adbf60e21b81526002600482015233602482015273__$364aad554dc80380f414546becdd2c1584$__9063ec46b6fc9060440160206040518083038186803b158015610a8157600080fd5b505af4158015610a95573d6000803e3d6000fd5b505050506040513d601f19601f82011682018060405250810190610ab991906134a0565b610ad55760405162461bcd60e51b8152600401610611906134c2565b60405163cc99e11b60e01b8152600260048201526024810182905273__$364aad554dc80380f414546becdd2c1584$__9063cc99e11b9060440160006040518083038186803b158015610b2757600080fd5b505af4158015610b3b573d6000803e3d6000fd5b5050505050565b604051633b11adbf60e21b81526002600482015233602482015273__$364aad554dc80380f414546becdd2c1584$__9063ec46b6fc9060440160206040518083038186803b158015610b9357600080fd5b505af4158015610ba7573d6000803e3d6000fd5b505050506040513d601f19601f82011682018060405250810190610bcb91906134a0565b80610c70575073__$364aad554dc80380f414546becdd2c1584$__63fe2710866002610bf56129ac565b6040516001600160e01b031960e085901b168152600481019290925264ffffffffff16602482015260440160206040518083038186803b158015610c3857600080fd5b505af4158015610c4c573d6000803e3d6000fd5b505050506040513d601f19601f82011682018060405250810190610c7091906134a0565b610c8c5760405162461bcd60e51b815260040161061190613612565b604051632725ebef60e21b8152600260048201526024810182905273__$364aad554dc80380f414546becdd2c1584$__90639c97afbc9060440160006040518083038186803b158015610cde57600080fd5b505af4158015610cf2573d6000803e3d6000fd5b505050507ff2735f34b69be1e6342dea95f9162f84d0db925fab655ca9f1f312ac8cbfc99d81604051610d2791815260200190565b60405180910390a150565b6001546040516335d2155560e11b81523360048201526001600160a01b0390911690636ba42aaa9060240160206040518083038186803b158015610d7557600080fd5b505afa158015610d89573d6000803e3d6000fd5b505050506040513d601f19601f82011682018060405250810190610dad91906134a0565b610dc95760405162461bcd60e51b815260040161061190613668565b82610dd3816108c5565b610def5760405162461bcd60e51b815260040161061190613693565b6000848152600460205260409020600101548490600160f81b900460ff1615610e2a5760405162461bcd60e51b8152600401610611906136ca565b604080516001600160401b0380871682528516602082015286917ffe1de08b9bf0dc0ad7d3c542036a3439b1aa918f2a75394ff3eb25ab505b63f0910160405180910390a26000858152600460208190526040918290209151630b2f766760e41b8152908101919091526001600160401b0380861660248301528416604482015273__$8e58971381edbbe3ac3690dc260b78dff1$__9063b2f76670906064015b60006040518083038186803b158015610ee357600080fd5b505af4158015610ef7573d6000803e3d6000fd5b505050505050505050565b604051633b11adbf60e21b81526002600482015233602482015273__$364aad554dc80380f414546becdd2c1584$__9063ec46b6fc9060440160206040518083038186803b158015610f5357600080fd5b505af4158015610f67573d6000803e3d6000fd5b505050506040513d601f19601f82011682018060405250810190610f8b91906134a0565b610fa75760405162461bcd60e51b8152600401610611906134c2565b81610fb1816108c5565b610fcd5760405162461bcd60e51b815260040161061190613693565b60405165ffffffffffff8316815283907fb1d746b4269a9a2c553dca3e41e1d00ec56cc587654a944c80e775cc748ff33f9060200160405180910390a260008381526004602081905260409182902091516314950e2f60e01b815273__$8e58971381edbbe3ac3690dc260b78dff1$__926314950e2f926110619287910191825265ffffffffffff16602082015260400190565b60006040518083038186803b15801561107957600080fd5b505af415801561108d573d6000803e3d6000fd5b50505050505050565b73__$364aad554dc80380f414546becdd2c1584$__63ee98b31360028461099c6129ac565b604080516080810182526000808252602082018190529181018290526060810191909152816110e9816108c5565b6111055760405162461bcd60e51b815260040161061190613693565b505060009081526004602090815260409182902082516080810184526002909101546001600160401b038082168352600160401b8204811693830193909352600160801b8104831693820193909352600160c01b90920416606082015290565b604051630f07232560e01b8152600260048201523360248201526001600160a01b038216604482015273__$364aad554dc80380f414546becdd2c1584$__90630f0723259060640160006040518083038186803b1580156111c557600080fd5b505af41580156111d9573d6000803e3d6000fd5b50506040516001600160a01b03841681527fe435cbeab64e4eae6497b9d8289704bd709d624a80704ef3ca9af777534bc6ec92506020019050610d27565b6001546040516335d2155560e11b81523360048201526001600160a01b0390911690636ba42aaa9060240160206040518083038186803b15801561125a57600080fd5b505afa15801561126e573d6000803e3d6000fd5b505050506040513d601f19601f8201168201806040525081019061129291906134a0565b6112ae5760405162461bcd60e51b815260040161061190613668565b826112b8816108c5565b6112d45760405162461bcd60e51b815260040161061190613693565b6000848152600460205260409020600101548490600160f81b900460ff161561130f5760405162461bcd60e51b8152600401610611906136ca565b604080516001600160401b0380871682528516602082015286917f3768d485f1715f89a9ff243971d0d2d36e4cb88f6dca1ac0ce7a5b9137686813910160405180910390a26000858152600460208190526040918290209151630e8415bb60e01b8152908101919091526001600160401b0380861660248301528416604482015273__$8e58971381edbbe3ac3690dc260b78dff1$__90630e8415bb90606401610ecb565b604051632a3be56b60e21b815260026004820152602481018390526044810182905260009073__$364aad554dc80380f414546becdd2c1584$__9063a8ef95ac9060640160206040518083038186803b15801561141057600080fd5b505af4158015611424573d6000803e3d6000fd5b505050506040513d601f19601f8201168201806040525081019061144891906134a0565b90505b92915050565b604051633b11adbf60e21b81526002600482015233602482015273__$364aad554dc80380f414546becdd2c1584$__9063ec46b6fc9060440160206040518083038186803b1580156114a257600080fd5b505af41580156114b6573d6000803e3d6000fd5b505050506040513d601f19601f820116820180604052508101906114da91906134a0565b8061157f575073__$364aad554dc80380f414546becdd2c1584$__63fe27108660026115046129ac565b6040516001600160e01b031960e085901b168152600481019290925264ffffffffff16602482015260440160206040518083038186803b15801561154757600080fd5b505af415801561155b573d6000803e3d6000fd5b505050506040513d601f19601f8201168201806040525081019061157f91906134a0565b61159b5760405162461bcd60e51b815260040161061190613612565b60405163b6e38a2960e01b8152600260048201526024810182905273__$364aad554dc80380f414546becdd2c1584$__9063b6e38a299060440160006040518083038186803b1580156115ed57600080fd5b505af4158015611601573d6000803e3d6000fd5b505050507f8b6f40f36b4ae8cc5f55e895036457c43da4ab1f80f58c46f5ff0d72a650033b81604051610d2791815260200190565b6001546040516335d2155560e11b81523360048201526001600160a01b0390911690636ba42aaa9060240160206040518083038186803b15801561167957600080fd5b505afa15801561168d573d6000803e3d6000fd5b505050506040513d601f19601f820116820180604052508101906116b191906134a0565b6116cd5760405162461bcd60e51b815260040161061190613668565b6040516347372aa560e01b815273__$8e58971381edbbe3ac3690dc260b78dff1$__906347372aa59061170a906004908790879087908401613701565b60206040518083038186803b15801561172257600080fd5b505af4158015611736573d6000803e3d6000fd5b505050506040513d601f19601f8201168201806040525081019061175a9190613745565b63ffffffff16808452604080516001600160401b038086168252841660208201527f6c3d2799cf918b37e55e666ec4d7d16f8aa9bc71fc2a3abf548e23f6dad58724910160405180910390a26117ae612953565b835160a08501516040516306bdc37360e41b815263ffffffff909216600483015264ffffffffff1660248201526001600160a01b039190911690636bdc373090604401600060405180830381600087803b15801561180b57600080fd5b505af115801561108d573d6000803e3d6000fd5b604051633b11adbf60e21b81526002600482015233602482015273__$364aad554dc80380f414546becdd2c1584$__9063ec46b6fc9060440160206040518083038186803b15801561187057600080fd5b505af4158015611884573d6000803e3d6000fd5b505050506040513d601f19601f820116820180604052508101906118a891906134a0565b6118c45760405162461bcd60e51b8152600401610611906134c2565b600082815260076020526040902054156119205760405162461bcd60e51b815260206004820152601960248201527f424f532e535049413a206c6f636b6572206f63637570696564000000000000006044820152606401610611565b6040516001600160401b038216815282907f07cf5aba251486e6fa450848215ec3d7c33392f3960775aa2e0ba40e9d226aee9060200160405180910390a26000918252600760205260409091206001600160401b039091169055565b60405163987ad15360e01b81526002600482015260009073__$364aad554dc80380f414546becdd2c1584$__9063987ad15390602401610922565b60006119c16129ac565b60405163cc0d511b60e01b8152600260048201526024810184905264ffffffffff8216604482015290915073__$364aad554dc80380f414546becdd2c1584$__9063cc0d511b906064016109d7565b611a18612de6565b81611a22816108c5565b611a3e5760405162461bcd60e51b815260040161061190613693565b505060009081526004602090815260409182902082516101008101845260019091015463ffffffff80821683526401000000008204811693830193909352600160401b810461ffff1693820193909352600160501b830465ffffffffffff9081166060830152600160801b8404166080820152600160b01b830464ffffffffff1660a0820152600160d81b830490911660c0820152600160f81b90910460ff1660e082015290565b6001546040516335d2155560e11b81523360048201526001600160a01b0390911690636ba42aaa9060240160206040518083038186803b158015611b2957600080fd5b505afa158015611b3d573d6000803e3d6000fd5b505050506040513d601f19601f82011682018060405250810190611b6191906134a0565b611b7d5760405162461bcd60e51b815260040161061190613668565b604051633aa65cdf60e21b81526004810184905260009073__$8e58971381edbbe3ac3690dc260b78dff1$__9063ea99737c906024016101006040518083038186803b158015611bcc57600080fd5b505af4158015611be0573d6000803e3d6000fd5b505050506040513d601f19601f82011682018060405250810190611c049190613783565b90506000611c10612953565b60a0830151604051631089f5ed60e01b815264ffffffffff90911660048201529091506001600160a01b03821690631089f5ed90602401600060405180830381600087803b158015611c6157600080fd5b505af1158015611c75573d6000803e3d6000fd5b50506040516302a1e4fd60e21b8152600480820152602481018890526001600160401b038088166044830152861660648201526000925073__$8e58971381edbbe3ac3690dc260b78dff1$__9150630a8793f49060840160206040518083038186803b158015611ce457600080fd5b505af4158015611cf8573d6000803e3d6000fd5b505050506040513d601f19601f82011682018060405250810190611d1c9190613745565b604080516001600160401b0380891682528716602082015291925063ffffffff8316917f6c3d2799cf918b37e55e666ec4d7d16f8aa9bc71fc2a3abf548e23f6dad58724910160405180910390a260a08301516040516306bdc37360e41b815263ffffffff8316600482015264ffffffffff90911660248201526001600160a01b03831690636bdc373090604401600060405180830381600087803b158015611dc457600080fd5b505af1158015611dd8573d6000803e3d6000fd5b5050604051639a3ca24b60e01b81526001600160401b038089166004830152871660248201526001600160a01b0385169250639a3ca24b91506044015b600060405180830381600087803b158015611e2f57600080fd5b505af1158015611e43573d6000803e3d6000fd5b50505050505050505050565b604051633b11adbf60e21b81526002600482015233602482015273__$364aad554dc80380f414546becdd2c1584$__9063ec46b6fc9060440160206040518083038186803b158015611ea057600080fd5b505af4158015611eb4573d6000803e3d6000fd5b505050506040513d601f19601f82011682018060405250810190611ed891906134a0565b611ef45760405162461bcd60e51b8152600401610611906134c2565b60e081901c60009081526004602052604090206001015442600160801b90910465ffffffffffff1610611f795760405162461bcd60e51b815260206004820152602760248201527f424f532e575049413a207374696c6c2077697468696e20656666656374697665604482015266081c195c9a5bd960ca1b6064820152608401610611565b60405181907f81d2c37d10691798e38a542ceea541c4cadacbd28ce1b4b0264d9f4fb074003090600090a2600090815260076020526040812055565b611fbd612e2a565b81611fc7816108c5565b611fe35760405162461bcd60e51b815260040161061190613693565b505060009081526004602090815260409182902082516060808201855282548252845161010081018652600184015463ffffffff80821683526401000000008204811683880152600160401b80830461ffff16848a0152600160501b830465ffffffffffff90811685870152600160801b808504909116608080870191909152600160b01b850464ffffffffff1660a0870152600160d81b850490931660c0860152600160f81b90930460ff1660e085015285880193909352875190810188526002909501546001600160401b0380821687529281048316968601969096528504811684870152600160c01b909404909316928201929092529181019190915290565b604051633b11adbf60e21b81526002600482015233602482015273__$364aad554dc80380f414546becdd2c1584$__9063ec46b6fc9060440160206040518083038186803b15801561213757600080fd5b505af415801561214b573d6000803e3d6000fd5b505050506040513d601f19601f8201168201806040525081019061216f91906134a0565b61218b5760405162461bcd60e51b8152600401610611906134c2565b82612195816108c5565b6121b15760405162461bcd60e51b815260040161061190613693565b6000848152600460205260409020600101548490600160f81b900460ff16156121ec5760405162461bcd60e51b8152600401610611906136ca565b6000858152600460205260409020612205818686612a06565b61220d612953565b6040516372cc64f960e01b81526001600160401b038088166004830152861660248201526001600160a01b0391909116906372cc64f990604401611e15565b61225582612be0565b61225e81612c8f565b604051636cdd0edf60e11b815260026004820152602481018590526001600160a01b038416604482015273__$364aad554dc80380f414546becdd2c1584$__9063d9ba1dbe9060640160006040518083038186803b1580156122bf57600080fd5b505af41580156122d3573d6000803e3d6000fd5b5050604080518781526001600160a01b038781166020830152868116828401528516606082015290517f3abb2418c66fe32ba9c883030a75ce583971d9af9192b9b74e44e67c5e6c8c1f9350908190036080019150a150505050565b604051633c3e56c160e11b81526002600482015260009073__$364aad554dc80380f414546becdd2c1584$__9063787cad829060240160206040518083038186803b15801561237d57600080fd5b505af4158015612391573d6000803e3d6000fd5b505050506040513d601f19601f82011682018060405250810190610972919061384c565b604051633b11adbf60e21b81526002600482015233602482015273__$364aad554dc80380f414546becdd2c1584$__9063ec46b6fc9060440160206040518083038186803b15801561240657600080fd5b505af415801561241a573d6000803e3d6000fd5b505050506040513d601f19601f8201168201806040525081019061243e91906134a0565b61245a5760405162461bcd60e51b8152600401610611906134c2565b600254600160f01b900460ff166001146124b65760405162461bcd60e51b815260206004820181905260248201527f41432e6f6e6c7950656e64696e673a20446f632069732066696e616c697a65646044820152606401610611565b60405163cc99e11b60e01b815260026004820152684174746f726e65797360b81b602482015273__$364aad554dc80380f414546becdd2c1584$__9063cc99e11b9060440160006040518083038186803b15801561251357600080fd5b505af4158015612527573d6000803e3d6000fd5b5050604051632725ebef60e21b8152600260048201526000602482015273__$364aad554dc80380f414546becdd2c1584$__9250639c97afbc915060440160006040518083038186803b15801561257d57600080fd5b505af4158015612591573d6000803e3d6000fd5b50506002805460ff60f01b1916600160f11b17905550506040517f35012b512309c322acf68632cd6cb702ff0e1d776fbe9394e38ffc13b434fe7590600090a1565b6001546040516335d2155560e11b81523360048201526001600160a01b0390911690636ba42aaa9060240160206040518083038186803b15801561261657600080fd5b505afa15801561262a573d6000803e3d6000fd5b505050506040513d601f19601f8201168201806040525081019061264e91906134a0565b61266a5760405162461bcd60e51b815260040161061190613668565b84612674816108c5565b6126905760405162461bcd60e51b815260040161061190613693565b6000868152600460205260409020600101548690600160f81b900460ff16156126cb5760405162461bcd60e51b8152600401610611906136ca565b600087815260046020526040902064ffffffffff851661272d5760405162461bcd60e51b815260206004820152601b60248201527f424f532e54533a207368617265686f6c646572206973205a45524f00000000006044820152606401610611565b612738818888612a06565b612740612953565b604051631089f5ed60e01b815264ffffffffff871660048201526001600160a01b039190911690631089f5ed90602401600060405180830381600087803b15801561278a57600080fd5b505af115801561279e573d6000803e3d6000fd5b505060408051610100810182526000808252600186015463ffffffff818116602085015261ffff600160401b8304169484019490945265ffffffffffff4281166060850152600160801b90910416608083015264ffffffffff8a1660a083015291881660c082015260e08101919091529150610ef79050818989611636565b604051633b11adbf60e21b81526002600482015233602482015273__$364aad554dc80380f414546becdd2c1584$__9063ec46b6fc9060440160206040518083038186803b15801561286e57600080fd5b505af4158015612882573d6000803e3d6000fd5b505050506040513d601f19601f820116820180604052508101906128a691906134a0565b6128c25760405162461bcd60e51b8152600401610611906134c2565b816128cc816108c5565b6128e85760405162461bcd60e51b815260040161061190613693565b60405160ff8316815283907fc642f56040f5e6aa8e4b5f4d4dcaa794fff6729880b1e4477d8c7e576931ac149060200160405180910390a250600091825260046020526040909120600101805460ff909216600160f81b026001600160f81b03909216919091179055565b60015460405163e0ff5b8b60e01b8152600760048201526000916001600160a01b03169063e0ff5b8b9060240160206040518083038186803b15801561299857600080fd5b505afa158015612391573d6000803e3d6000fd5b60008054604051634de835e760e11b81523360048201526001600160a01b0390911690639bd06bce90602401602060405180830381600087803b1580156129f257600080fd5b505af115801561094e573d6000803e3d6000fd5b6000612a10612953565b60028501549091506001600160401b03838116600160401b909204161415612b4457600184015460405163a03510c560e01b815263ffffffff82166004820152600160b01b90910464ffffffffff1660248201526001600160a01b0382169063a03510c590604401600060405180830381600087803b158015612a9257600080fd5b505af1158015612aa6573d6000803e3d6000fd5b505050506001840154604051631b7a23db60e21b815260048082015263ffffffff909116602482015273__$8e58971381edbbe3ac3690dc260b78dff1$__90636de88f6c9060440160206040518083038186803b158015612b0657600080fd5b505af4158015612b1a573d6000803e3d6000fd5b505050506040513d601f19601f82011682018060405250810190612b3e91906134a0565b50612bda565b612b4f848484612d46565b60018401546040516325b3f84560e21b8152600160b01b90910464ffffffffff1660048201526001600160401b03808516602483015283166044820152600060648201526001600160a01b038216906396cfe11490608401600060405180830381600087803b158015612bc157600080fd5b505af1158015612bd5573d6000803e3d6000fd5b505050505b50505050565b6000546001600160a01b031615612c315760405162461bcd60e51b815260206004820152601560248201527430b63932b0b23c9039b2ba103932b3a1b2b73a32b960591b6044820152606401610611565b6040516001600160a01b03821681527f318da6c7624c71cbc0afe346c9d8827f119d0ecefb241a7b0c87217a076a8e029060200160405180910390a1600080546001600160a01b0319166001600160a01b0392909216919091179055565b6001546001600160a01b031615612ce85760405162461bcd60e51b815260206004820152601960248201527f616c7265616479207365742067656e6572616c4b6565706572000000000000006044820152606401610611565b6040516001600160a01b03821681527fe513d3e0f0d0a3877029dcc588748679a7a3450ec1ec7ed56d96bd012c3e61aa9060200160405180910390a1600180546001600160a01b0319166001600160a01b0392909216919091179055565b6001830154604080516001600160401b0380861682528416602082015263ffffffff909216917f2a54ff18fcefc52233e2885a21b2b24c4f6b7deb0a116564b46dac5f9332720e910160405180910390a26040516313c0158d60e31b8152600481018490526001600160401b0380841660248301528216604482015273__$8e58971381edbbe3ac3690dc260b78dff1$__90639e00ac6890606401611061565b6040805161010081018252600080825260208201819052918101829052606081018290526080810182905260a0810182905260c0810182905260e081019190915290565b604051806060016040528060008152602001612e44612de6565b81526040805160808101825260008082526020828101829052928201819052606082015291015290565b634e487b7160e01b600052604160045260246000fd5b60405161010081016001600160401b0381118282101715612ea757612ea7612e6e565b60405290565b604051601f8201601f191681016001600160401b0381118282101715612ed557612ed5612e6e565b604052919050565b60008060408385031215612ef057600080fd5b823591506020808401356001600160401b0380821115612f0f57600080fd5b818601915086601f830112612f2357600080fd5b813581811115612f3557612f35612e6e565b612f47601f8201601f19168501612ead565b91508082528784828501011115612f5d57600080fd5b80848401858401376000848284010152508093505050509250929050565b61ffff81168114612f8b57600080fd5b50565b8035612f9981612f7b565b919050565b600060208284031215612fb057600080fd5b8135612fbb81612f7b565b9392505050565b600081518084526020808501945080840160005b83811015612ff257815187529582019590820190600101612fd6565b509495945050505050565b6040815260006130106040830185612fc2565b82810360208401526130228185612fc2565b95945050505050565b60006020828403121561303d57600080fd5b5035919050565b6000806040838503121561305757600080fd5b50508035926020909101359150565b80356001600160401b0381168114612f9957600080fd5b60008060006060848603121561309257600080fd5b833592506130a260208501613066565b91506130b060408501613066565b90509250925092565b65ffffffffffff81168114612f8b57600080fd5b8035612f99816130b9565b600080604083850312156130eb57600080fd5b8235915060208301356130fd816130b9565b809150509250929050565b6080810161144b828480516001600160401b03908116835260208083015182169084015260408083015182169084015260609182015116910152565b6001600160a01b0381168114612f8b57600080fd5b60006020828403121561316b57600080fd5b8135612fbb81613144565b63ffffffff81168114612f8b57600080fd5b8035612f9981613176565b64ffffffffff81168114612f8b57600080fd5b8035612f9981613193565b60ff81168114612f8b57600080fd5b8035612f99816131b1565b60008060008385036101408112156131e257600080fd5b610100808212156131f257600080fd5b6131fa612e84565b9150853561320781613176565b825261321560208701613188565b602083015261322660408701612f8e565b6040830152613237606087016130cd565b6060830152613248608087016130cd565b608083015261325960a087016131a6565b60a083015261326a60c08701613188565b60c083015261327b60e087016131c0565b60e083015281945061328e818701613066565b935050506130b06101208501613066565b600080604083850312156132b257600080fd5b823591506132c260208401613066565b90509250929050565b63ffffffff8082511683528060208301511660208401525061ffff6040820151166040830152606081015165ffffffffffff8082166060850152806080840151166080850152505064ffffffffff60a08201511660a083015260c081015161333b60c084018263ffffffff169052565b5060e081015161335060e084018260ff169052565b505050565b610100810161144b82846132cb565b815181526020808301516101a0830191613380908401826132cb565b5060409283015180516001600160401b0390811661012085015260208201518116610140850152938101518416610160840152606001519092166101809091015290565b600080600080608085870312156133da57600080fd5b8435935060208501356133ec81613144565b925060408501356133fc81613144565b9150606085013561340c81613144565b939692955090935050565b600080600080600060a0868803121561342f57600080fd5b8535945061343f60208701613066565b935061344d60408701613066565b9250606086013561345d81613193565b9150608086013561346d81613176565b809150509295509295909350565b6000806040838503121561348e57600080fd5b8235915060208301356130fd816131b1565b6000602082840312156134b257600080fd5b81518015158114612fbb57600080fd5b60208082526026908201527f41432e6f6e6c794469726563744b65657065723a206e6f74206469726563742060408201526535b2b2b832b960d11b606082015260800190565b600082601f83011261351957600080fd5b815160206001600160401b0382111561353457613534612e6e565b8160051b613543828201612ead565b928352848101820192828101908785111561355d57600080fd5b83870192505b8483101561357c57825182529183019190830190613563565b979650505050505050565b6000806040838503121561359a57600080fd5b82516001600160401b03808211156135b157600080fd5b6135bd86838701613508565b935060208501519150808211156135d357600080fd5b506135e085828601613508565b9150509250929050565b8051612f9981613193565b60006020828403121561360757600080fd5b8151612fbb81613193565b60208082526036908201527f41432e6f776e65724f72446972656374426f6f6b65657065723a206e6569746860408201527532b91037bbb732b9103737b9103137b7b5b2b2b832b960511b606082015260800190565b60208082526011908201527020a19737b59d103737ba1025b2b2b832b960791b604082015260600190565b60208082526018908201527f424f532e6d662e53453a20736571204e4f542065786973740000000000000000604082015260600190565b6020808252601b908201527f424f532e6d662e4e463a20736861726520697320667265657a65640000000000604082015260600190565b848152610160810161371660208301866132cb565b6001600160401b038085166101208401528084166101408401525095945050505050565b8051612f9981613176565b60006020828403121561375757600080fd5b8151612fbb81613176565b8051612f9981612f7b565b8051612f99816130b9565b8051612f99816131b1565b600061010080838503121561379757600080fd5b604051908101906001600160401b03821181831017156137b9576137b9612e6e565b81604052835191506137ca82613176565b8181526137d96020850161373a565b60208201526137ea60408501613762565b60408201526137fb6060850161376d565b606082015261380c6080850161376d565b608082015261381d60a085016135ea565b60a082015261382e60c0850161373a565b60c082015261383f60e08501613778565b60e0820152949350505050565b60006020828403121561385e57600080fd5b8151612fbb8161314456fea26469706673582212205811f5486d2db3d692334d6826e4add9221f64569e8512ab5fa5cecad24e277464736f6c63430008080033",
    "sourcePath": "/Users/kaptain/github.com/hardhat/comboox/contracts/books/bos/BookOfShares.sol",
    "compiler": {
        "name": "solc",
        "version": "0.8.8+commit.dddeac2f"
    },
    "functionHashes": {
        "abandonRole(bytes32)": "3da9a600",
        "counterOfClasses()": "544f1ba2",
        "counterOfShares()": "4a0ca0d6",
        "decreaseCapital(uint256,uint64,uint64)": "dc8492ce",
        "decreaseCleanAmt(uint256,uint64,uint64)": "4bacf961",
        "finalized()": "b3f05b97",
        "getAttrOfClass(uint16)": "0b56b7db",
        "getBodyOfShare(uint256)": "58ebd89b",
        "getBookeeper()": "ed211023",
        "getGeneralCounsel()": "103f6edd",
        "getHeadOfShare(uint256)": "92c80eb7",
        "getLocker(bytes32)": "851ad654",
        "getOwner()": "893d20e8",
        "getShare(uint256)": "cfb5a5f8",
        "grantRole(bytes32,uint256)": "1b6ea9f9",
        "hasRole(bytes32,uint256)": "7e063c5a",
        "increaseCleanAmt(uint256,uint64,uint64)": "6ea6c824",
        "init(uint256,address,address,address)": "dc890da9",
        "isShare(uint256)": "0c1d138b",
        "issueShare(uint256,uint64,uint64)": "aeb4d766",
        "lockContents()": "f045a769",
        "regShare((uint32,uint32,uint16,uint48,uint48,uint40,uint32,uint8),uint64,uint64)": "8652d712",
        "renounceRole(bytes32)": "8bb9c5bf",
        "requestPaidInCapital(bytes32,string)": "04726d7a",
        "revokeRole(bytes32,uint256)": "19d61ad9",
        "setDirectKeeper(address)": "6be8496f",
        "setGeneralCounsel(uint256)": "4a14beb1",
        "setOwner(uint256)": "8041494e",
        "setPayInAmt(bytes32,uint64)": "88678a8e",
        "setRoleAdmin(bytes32,uint256)": "5171ebd4",
        "transferShare(uint256,uint64,uint64,uint40,uint32)": "f0d6c109",
        "updatePaidInDeadline(uint256,uint48)": "4fc3e83f",
        "updateStateOfShare(uint256,uint8)": "f814b800",
        "withdrawPayInAmt(bytes32)": "ba5052cb"
    },
    "gasEstimates": {
        "creation": {
            "codeDepositCost": "2899000",
            "executionCost": "3169",
            "totalCost": "2902169"
        },
        "external": {
            "abandonRole(bytes32)": "infinite",
            "counterOfClasses()": "2375",
            "counterOfShares()": "2422",
            "decreaseCapital(uint256,uint64,uint64)": "infinite",
            "decreaseCleanAmt(uint256,uint64,uint64)": "infinite",
            "finalized()": "2372",
            "getAttrOfClass(uint16)": "infinite",
            "getBodyOfShare(uint256)": "5265",
            "getBookeeper()": "infinite",
            "getGeneralCounsel()": "infinite",
            "getHeadOfShare(uint256)": "5724",
            "getLocker(bytes32)": "2527",
            "getOwner()": "infinite",
            "getShare(uint256)": "10588",
            "grantRole(bytes32,uint256)": "infinite",
            "hasRole(bytes32,uint256)": "infinite",
            "increaseCleanAmt(uint256,uint64,uint64)": "infinite",
            "init(uint256,address,address,address)": "infinite",
            "isShare(uint256)": "2582",
            "issueShare(uint256,uint64,uint64)": "infinite",
            "lockContents()": "infinite",
            "regShare((uint32,uint32,uint16,uint48,uint48,uint40,uint32,uint8),uint64,uint64)": "infinite",
            "renounceRole(bytes32)": "infinite",
            "requestPaidInCapital(bytes32,string)": "infinite",
            "revokeRole(bytes32,uint256)": "infinite",
            "setDirectKeeper(address)": "infinite",
            "setGeneralCounsel(uint256)": "infinite",
            "setOwner(uint256)": "infinite",
            "setPayInAmt(bytes32,uint64)": "infinite",
            "setRoleAdmin(bytes32,uint256)": "infinite",
            "transferShare(uint256,uint64,uint64,uint40,uint32)": "infinite",
            "updatePaidInDeadline(uint256,uint48)": "infinite",
            "updateStateOfShare(uint256,uint8)": "infinite",
            "withdrawPayInAmt(bytes32)": "infinite"
        },
        "internal": {
            "_decreaseShareAmt(struct SharesRepo.Share storage pointer,uint64,uint64)": "infinite",
            "_deregisterShare(uint256)": "infinite",
            "_payInCapital(struct SharesRepo.Share storage pointer,uint64)": "infinite",
            "_subAmtFromShare(struct SharesRepo.Share storage pointer,uint64,uint64)": "infinite"
        }
    }
}