{
    "contractName": "BookOfShares",
    "abi": [
        {
            "anonymous": false,
            "inputs": [
                {
                    "indexed": true,
                    "internalType": "uint256",
                    "name": "seqOfShare",
                    "type": "uint256"
                },
                {
                    "indexed": false,
                    "internalType": "uint256",
                    "name": "paid",
                    "type": "uint256"
                }
            ],
            "name": "DecreaseCleanPaid",
            "type": "event"
        },
        {
            "anonymous": false,
            "inputs": [
                {
                    "indexed": true,
                    "internalType": "uint256",
                    "name": "seqOfShare",
                    "type": "uint256"
                }
            ],
            "name": "DeregisterShare",
            "type": "event"
        },
        {
            "anonymous": false,
            "inputs": [
                {
                    "indexed": true,
                    "internalType": "uint256",
                    "name": "seqOfShare",
                    "type": "uint256"
                },
                {
                    "indexed": false,
                    "internalType": "uint256",
                    "name": "paid",
                    "type": "uint256"
                }
            ],
            "name": "IncreaseCleanPaid",
            "type": "event"
        },
        {
            "anonymous": false,
            "inputs": [
                {
                    "indexed": false,
                    "internalType": "uint256",
                    "name": "owner",
                    "type": "uint256"
                },
                {
                    "indexed": false,
                    "internalType": "address",
                    "name": "directKeeper",
                    "type": "address"
                },
                {
                    "indexed": false,
                    "internalType": "address",
                    "name": "regCenter",
                    "type": "address"
                },
                {
                    "indexed": false,
                    "internalType": "address",
                    "name": "generalKeeper",
                    "type": "address"
                }
            ],
            "name": "Init",
            "type": "event"
        },
        {
            "anonymous": false,
            "inputs": [
                {
                    "indexed": true,
                    "internalType": "uint256",
                    "name": "seqOfShare",
                    "type": "uint256"
                },
                {
                    "indexed": false,
                    "internalType": "uint256",
                    "name": "paid",
                    "type": "uint256"
                },
                {
                    "indexed": false,
                    "internalType": "uint256",
                    "name": "par",
                    "type": "uint256"
                }
            ],
            "name": "IssueShare",
            "type": "event"
        },
        {
            "anonymous": false,
            "inputs": [],
            "name": "LockContents",
            "type": "event"
        },
        {
            "anonymous": false,
            "inputs": [
                {
                    "indexed": true,
                    "internalType": "uint256",
                    "name": "seqOfShare",
                    "type": "uint256"
                },
                {
                    "indexed": false,
                    "internalType": "uint256",
                    "name": "amount",
                    "type": "uint256"
                }
            ],
            "name": "PayInCapital",
            "type": "event"
        },
        {
            "anonymous": false,
            "inputs": [
                {
                    "indexed": false,
                    "internalType": "address",
                    "name": "keeper",
                    "type": "address"
                }
            ],
            "name": "SetDirectKeeper",
            "type": "event"
        },
        {
            "anonymous": false,
            "inputs": [
                {
                    "indexed": false,
                    "internalType": "uint256",
                    "name": "acct",
                    "type": "uint256"
                }
            ],
            "name": "SetGeneralCounsel",
            "type": "event"
        },
        {
            "anonymous": false,
            "inputs": [
                {
                    "indexed": false,
                    "internalType": "uint256",
                    "name": "acct",
                    "type": "uint256"
                }
            ],
            "name": "SetOwner",
            "type": "event"
        },
        {
            "anonymous": false,
            "inputs": [
                {
                    "indexed": true,
                    "internalType": "uint256",
                    "name": "snOfLocker",
                    "type": "uint256"
                },
                {
                    "indexed": false,
                    "internalType": "uint256",
                    "name": "amount",
                    "type": "uint256"
                }
            ],
            "name": "SetPayInAmt",
            "type": "event"
        },
        {
            "anonymous": false,
            "inputs": [
                {
                    "indexed": true,
                    "internalType": "uint256",
                    "name": "seqOfShare",
                    "type": "uint256"
                },
                {
                    "indexed": false,
                    "internalType": "uint256",
                    "name": "paid",
                    "type": "uint256"
                },
                {
                    "indexed": false,
                    "internalType": "uint256",
                    "name": "par",
                    "type": "uint256"
                }
            ],
            "name": "SubAmountFromShare",
            "type": "event"
        },
        {
            "anonymous": false,
            "inputs": [
                {
                    "indexed": true,
                    "internalType": "uint256",
                    "name": "seqOfShare",
                    "type": "uint256"
                },
                {
                    "indexed": false,
                    "internalType": "uint256",
                    "name": "paidInDeadline",
                    "type": "uint256"
                }
            ],
            "name": "UpdatePaidInDeadline",
            "type": "event"
        },
        {
            "anonymous": false,
            "inputs": [
                {
                    "indexed": true,
                    "internalType": "uint256",
                    "name": "seqOfShare",
                    "type": "uint256"
                },
                {
                    "indexed": false,
                    "internalType": "uint256",
                    "name": "state",
                    "type": "uint256"
                }
            ],
            "name": "UpdateStateOfShare",
            "type": "event"
        },
        {
            "anonymous": false,
            "inputs": [
                {
                    "indexed": true,
                    "internalType": "uint256",
                    "name": "snOfLocker",
                    "type": "uint256"
                }
            ],
            "name": "WithdrawPayInAmt",
            "type": "event"
        },
        {
            "inputs": [
                {
                    "internalType": "bytes32",
                    "name": "role",
                    "type": "bytes32"
                }
            ],
            "name": "abandonRole",
            "outputs": [],
            "stateMutability": "nonpayable",
            "type": "function"
        },
        {
            "inputs": [],
            "name": "counterOfClasses",
            "outputs": [
                {
                    "internalType": "uint16",
                    "name": "",
                    "type": "uint16"
                }
            ],
            "stateMutability": "view",
            "type": "function"
        },
        {
            "inputs": [],
            "name": "counterOfShares",
            "outputs": [
                {
                    "internalType": "uint32",
                    "name": "",
                    "type": "uint32"
                }
            ],
            "stateMutability": "view",
            "type": "function"
        },
        {
            "inputs": [
                {
                    "internalType": "uint256",
                    "name": "seqOfShare",
                    "type": "uint256"
                },
                {
                    "internalType": "uint256",
                    "name": "paid",
                    "type": "uint256"
                },
                {
                    "internalType": "uint256",
                    "name": "par",
                    "type": "uint256"
                }
            ],
            "name": "decreaseCapital",
            "outputs": [],
            "stateMutability": "nonpayable",
            "type": "function"
        },
        {
            "inputs": [
                {
                    "internalType": "uint256",
                    "name": "seqOfShare",
                    "type": "uint256"
                },
                {
                    "internalType": "uint256",
                    "name": "paid",
                    "type": "uint256"
                }
            ],
            "name": "decreaseCleanPaid",
            "outputs": [],
            "stateMutability": "nonpayable",
            "type": "function"
        },
        {
            "inputs": [],
            "name": "finalized",
            "outputs": [
                {
                    "internalType": "bool",
                    "name": "",
                    "type": "bool"
                }
            ],
            "stateMutability": "view",
            "type": "function"
        },
        {
            "inputs": [
                {
                    "internalType": "uint256",
                    "name": "seqOfShare",
                    "type": "uint256"
                }
            ],
            "name": "getBodyOfShare",
            "outputs": [
                {
                    "components": [
                        {
                            "internalType": "uint48",
                            "name": "payInDeadline",
                            "type": "uint48"
                        },
                        {
                            "internalType": "uint64",
                            "name": "paid",
                            "type": "uint64"
                        },
                        {
                            "internalType": "uint64",
                            "name": "par",
                            "type": "uint64"
                        },
                        {
                            "internalType": "uint64",
                            "name": "cleanPaid",
                            "type": "uint64"
                        },
                        {
                            "internalType": "uint8",
                            "name": "state",
                            "type": "uint8"
                        },
                        {
                            "internalType": "uint8",
                            "name": "para",
                            "type": "uint8"
                        }
                    ],
                    "internalType": "struct SharesRepo.Body",
                    "name": "body",
                    "type": "tuple"
                }
            ],
            "stateMutability": "view",
            "type": "function"
        },
        {
            "inputs": [],
            "name": "getBookeeper",
            "outputs": [
                {
                    "internalType": "address",
                    "name": "",
                    "type": "address"
                }
            ],
            "stateMutability": "view",
            "type": "function"
        },
        {
            "inputs": [],
            "name": "getGeneralCounsel",
            "outputs": [
                {
                    "internalType": "uint40",
                    "name": "",
                    "type": "uint40"
                }
            ],
            "stateMutability": "view",
            "type": "function"
        },
        {
            "inputs": [
                {
                    "internalType": "uint256",
                    "name": "seqOfShare",
                    "type": "uint256"
                }
            ],
            "name": "getHeadOfShare",
            "outputs": [
                {
                    "components": [
                        {
                            "internalType": "uint32",
                            "name": "seqOfShare",
                            "type": "uint32"
                        },
                        {
                            "internalType": "uint32",
                            "name": "preSeq",
                            "type": "uint32"
                        },
                        {
                            "internalType": "uint16",
                            "name": "class",
                            "type": "uint16"
                        },
                        {
                            "internalType": "uint48",
                            "name": "issueDate",
                            "type": "uint48"
                        },
                        {
                            "internalType": "uint40",
                            "name": "shareholder",
                            "type": "uint40"
                        },
                        {
                            "internalType": "uint32",
                            "name": "priceOfPaid",
                            "type": "uint32"
                        },
                        {
                            "internalType": "uint32",
                            "name": "priceOfPar",
                            "type": "uint32"
                        },
                        {
                            "internalType": "uint16",
                            "name": "para",
                            "type": "uint16"
                        },
                        {
                            "internalType": "uint8",
                            "name": "arg",
                            "type": "uint8"
                        }
                    ],
                    "internalType": "struct SharesRepo.Head",
                    "name": "head",
                    "type": "tuple"
                }
            ],
            "stateMutability": "view",
            "type": "function"
        },
        {
            "inputs": [
                {
                    "internalType": "uint256",
                    "name": "snOfLocker",
                    "type": "uint256"
                }
            ],
            "name": "getLocker",
            "outputs": [
                {
                    "internalType": "uint64",
                    "name": "amount",
                    "type": "uint64"
                }
            ],
            "stateMutability": "view",
            "type": "function"
        },
        {
            "inputs": [],
            "name": "getOwner",
            "outputs": [
                {
                    "internalType": "uint40",
                    "name": "",
                    "type": "uint40"
                }
            ],
            "stateMutability": "view",
            "type": "function"
        },
        {
            "inputs": [
                {
                    "internalType": "uint256",
                    "name": "seqOfShare",
                    "type": "uint256"
                }
            ],
            "name": "getShare",
            "outputs": [
                {
                    "components": [
                        {
                            "components": [
                                {
                                    "internalType": "uint32",
                                    "name": "seqOfShare",
                                    "type": "uint32"
                                },
                                {
                                    "internalType": "uint32",
                                    "name": "preSeq",
                                    "type": "uint32"
                                },
                                {
                                    "internalType": "uint16",
                                    "name": "class",
                                    "type": "uint16"
                                },
                                {
                                    "internalType": "uint48",
                                    "name": "issueDate",
                                    "type": "uint48"
                                },
                                {
                                    "internalType": "uint40",
                                    "name": "shareholder",
                                    "type": "uint40"
                                },
                                {
                                    "internalType": "uint32",
                                    "name": "priceOfPaid",
                                    "type": "uint32"
                                },
                                {
                                    "internalType": "uint32",
                                    "name": "priceOfPar",
                                    "type": "uint32"
                                },
                                {
                                    "internalType": "uint16",
                                    "name": "para",
                                    "type": "uint16"
                                },
                                {
                                    "internalType": "uint8",
                                    "name": "arg",
                                    "type": "uint8"
                                }
                            ],
                            "internalType": "struct SharesRepo.Head",
                            "name": "head",
                            "type": "tuple"
                        },
                        {
                            "components": [
                                {
                                    "internalType": "uint48",
                                    "name": "payInDeadline",
                                    "type": "uint48"
                                },
                                {
                                    "internalType": "uint64",
                                    "name": "paid",
                                    "type": "uint64"
                                },
                                {
                                    "internalType": "uint64",
                                    "name": "par",
                                    "type": "uint64"
                                },
                                {
                                    "internalType": "uint64",
                                    "name": "cleanPaid",
                                    "type": "uint64"
                                },
                                {
                                    "internalType": "uint8",
                                    "name": "state",
                                    "type": "uint8"
                                },
                                {
                                    "internalType": "uint8",
                                    "name": "para",
                                    "type": "uint8"
                                }
                            ],
                            "internalType": "struct SharesRepo.Body",
                            "name": "body",
                            "type": "tuple"
                        }
                    ],
                    "internalType": "struct SharesRepo.Share",
                    "name": "share",
                    "type": "tuple"
                }
            ],
            "stateMutability": "view",
            "type": "function"
        },
        {
            "inputs": [
                {
                    "internalType": "uint256",
                    "name": "class",
                    "type": "uint256"
                }
            ],
            "name": "getSharesOfClass",
            "outputs": [
                {
                    "internalType": "uint256[]",
                    "name": "seqList",
                    "type": "uint256[]"
                }
            ],
            "stateMutability": "view",
            "type": "function"
        },
        {
            "inputs": [
                {
                    "internalType": "bytes32",
                    "name": "role",
                    "type": "bytes32"
                },
                {
                    "internalType": "uint256",
                    "name": "acct",
                    "type": "uint256"
                }
            ],
            "name": "grantRole",
            "outputs": [],
            "stateMutability": "nonpayable",
            "type": "function"
        },
        {
            "inputs": [
                {
                    "internalType": "bytes32",
                    "name": "role",
                    "type": "bytes32"
                },
                {
                    "internalType": "uint256",
                    "name": "acct",
                    "type": "uint256"
                }
            ],
            "name": "hasRole",
            "outputs": [
                {
                    "internalType": "bool",
                    "name": "",
                    "type": "bool"
                }
            ],
            "stateMutability": "view",
            "type": "function"
        },
        {
            "inputs": [
                {
                    "internalType": "uint256",
                    "name": "seqOfShare",
                    "type": "uint256"
                },
                {
                    "internalType": "uint256",
                    "name": "paid",
                    "type": "uint256"
                }
            ],
            "name": "increaseCleanPaid",
            "outputs": [],
            "stateMutability": "nonpayable",
            "type": "function"
        },
        {
            "inputs": [
                {
                    "internalType": "uint256",
                    "name": "owner",
                    "type": "uint256"
                },
                {
                    "internalType": "address",
                    "name": "directKeeper",
                    "type": "address"
                },
                {
                    "internalType": "address",
                    "name": "regCenter",
                    "type": "address"
                },
                {
                    "internalType": "address",
                    "name": "generalKeeper",
                    "type": "address"
                }
            ],
            "name": "init",
            "outputs": [],
            "stateMutability": "nonpayable",
            "type": "function"
        },
        {
            "inputs": [
                {
                    "internalType": "uint256",
                    "name": "seqOfShare",
                    "type": "uint256"
                }
            ],
            "name": "isShare",
            "outputs": [
                {
                    "internalType": "bool",
                    "name": "",
                    "type": "bool"
                }
            ],
            "stateMutability": "view",
            "type": "function"
        },
        {
            "inputs": [
                {
                    "internalType": "uint256",
                    "name": "shareNumber",
                    "type": "uint256"
                },
                {
                    "internalType": "uint256",
                    "name": "payInDeadline",
                    "type": "uint256"
                },
                {
                    "internalType": "uint256",
                    "name": "paid",
                    "type": "uint256"
                },
                {
                    "internalType": "uint256",
                    "name": "par",
                    "type": "uint256"
                }
            ],
            "name": "issueShare",
            "outputs": [],
            "stateMutability": "nonpayable",
            "type": "function"
        },
        {
            "inputs": [],
            "name": "lockContents",
            "outputs": [],
            "stateMutability": "nonpayable",
            "type": "function"
        },
        {
            "inputs": [
                {
                    "components": [
                        {
                            "components": [
                                {
                                    "internalType": "uint32",
                                    "name": "seqOfShare",
                                    "type": "uint32"
                                },
                                {
                                    "internalType": "uint32",
                                    "name": "preSeq",
                                    "type": "uint32"
                                },
                                {
                                    "internalType": "uint16",
                                    "name": "class",
                                    "type": "uint16"
                                },
                                {
                                    "internalType": "uint48",
                                    "name": "issueDate",
                                    "type": "uint48"
                                },
                                {
                                    "internalType": "uint40",
                                    "name": "shareholder",
                                    "type": "uint40"
                                },
                                {
                                    "internalType": "uint32",
                                    "name": "priceOfPaid",
                                    "type": "uint32"
                                },
                                {
                                    "internalType": "uint32",
                                    "name": "priceOfPar",
                                    "type": "uint32"
                                },
                                {
                                    "internalType": "uint16",
                                    "name": "para",
                                    "type": "uint16"
                                },
                                {
                                    "internalType": "uint8",
                                    "name": "arg",
                                    "type": "uint8"
                                }
                            ],
                            "internalType": "struct SharesRepo.Head",
                            "name": "head",
                            "type": "tuple"
                        },
                        {
                            "components": [
                                {
                                    "internalType": "uint48",
                                    "name": "payInDeadline",
                                    "type": "uint48"
                                },
                                {
                                    "internalType": "uint64",
                                    "name": "paid",
                                    "type": "uint64"
                                },
                                {
                                    "internalType": "uint64",
                                    "name": "par",
                                    "type": "uint64"
                                },
                                {
                                    "internalType": "uint64",
                                    "name": "cleanPaid",
                                    "type": "uint64"
                                },
                                {
                                    "internalType": "uint8",
                                    "name": "state",
                                    "type": "uint8"
                                },
                                {
                                    "internalType": "uint8",
                                    "name": "para",
                                    "type": "uint8"
                                }
                            ],
                            "internalType": "struct SharesRepo.Body",
                            "name": "body",
                            "type": "tuple"
                        }
                    ],
                    "internalType": "struct SharesRepo.Share",
                    "name": "share",
                    "type": "tuple"
                }
            ],
            "name": "regShare",
            "outputs": [
                {
                    "components": [
                        {
                            "components": [
                                {
                                    "internalType": "uint32",
                                    "name": "seqOfShare",
                                    "type": "uint32"
                                },
                                {
                                    "internalType": "uint32",
                                    "name": "preSeq",
                                    "type": "uint32"
                                },
                                {
                                    "internalType": "uint16",
                                    "name": "class",
                                    "type": "uint16"
                                },
                                {
                                    "internalType": "uint48",
                                    "name": "issueDate",
                                    "type": "uint48"
                                },
                                {
                                    "internalType": "uint40",
                                    "name": "shareholder",
                                    "type": "uint40"
                                },
                                {
                                    "internalType": "uint32",
                                    "name": "priceOfPaid",
                                    "type": "uint32"
                                },
                                {
                                    "internalType": "uint32",
                                    "name": "priceOfPar",
                                    "type": "uint32"
                                },
                                {
                                    "internalType": "uint16",
                                    "name": "para",
                                    "type": "uint16"
                                },
                                {
                                    "internalType": "uint8",
                                    "name": "arg",
                                    "type": "uint8"
                                }
                            ],
                            "internalType": "struct SharesRepo.Head",
                            "name": "head",
                            "type": "tuple"
                        },
                        {
                            "components": [
                                {
                                    "internalType": "uint48",
                                    "name": "payInDeadline",
                                    "type": "uint48"
                                },
                                {
                                    "internalType": "uint64",
                                    "name": "paid",
                                    "type": "uint64"
                                },
                                {
                                    "internalType": "uint64",
                                    "name": "par",
                                    "type": "uint64"
                                },
                                {
                                    "internalType": "uint64",
                                    "name": "cleanPaid",
                                    "type": "uint64"
                                },
                                {
                                    "internalType": "uint8",
                                    "name": "state",
                                    "type": "uint8"
                                },
                                {
                                    "internalType": "uint8",
                                    "name": "para",
                                    "type": "uint8"
                                }
                            ],
                            "internalType": "struct SharesRepo.Body",
                            "name": "body",
                            "type": "tuple"
                        }
                    ],
                    "internalType": "struct SharesRepo.Share",
                    "name": "newShare",
                    "type": "tuple"
                }
            ],
            "stateMutability": "nonpayable",
            "type": "function"
        },
        {
            "inputs": [
                {
                    "internalType": "bytes32",
                    "name": "role",
                    "type": "bytes32"
                }
            ],
            "name": "renounceRole",
            "outputs": [],
            "stateMutability": "nonpayable",
            "type": "function"
        },
        {
            "inputs": [
                {
                    "internalType": "uint256",
                    "name": "snOfLocker",
                    "type": "uint256"
                },
                {
                    "internalType": "string",
                    "name": "hashKey",
                    "type": "string"
                },
                {
                    "internalType": "uint256",
                    "name": "salt",
                    "type": "uint256"
                },
                {
                    "internalType": "uint256",
                    "name": "caller",
                    "type": "uint256"
                }
            ],
            "name": "requestPaidInCapital",
            "outputs": [],
            "stateMutability": "nonpayable",
            "type": "function"
        },
        {
            "inputs": [
                {
                    "internalType": "bytes32",
                    "name": "role",
                    "type": "bytes32"
                },
                {
                    "internalType": "uint256",
                    "name": "acct",
                    "type": "uint256"
                }
            ],
            "name": "revokeRole",
            "outputs": [],
            "stateMutability": "nonpayable",
            "type": "function"
        },
        {
            "inputs": [
                {
                    "internalType": "address",
                    "name": "keeper",
                    "type": "address"
                }
            ],
            "name": "setDirectKeeper",
            "outputs": [],
            "stateMutability": "nonpayable",
            "type": "function"
        },
        {
            "inputs": [
                {
                    "internalType": "uint256",
                    "name": "acct",
                    "type": "uint256"
                }
            ],
            "name": "setGeneralCounsel",
            "outputs": [],
            "stateMutability": "nonpayable",
            "type": "function"
        },
        {
            "inputs": [
                {
                    "internalType": "uint256",
                    "name": "acct",
                    "type": "uint256"
                }
            ],
            "name": "setOwner",
            "outputs": [],
            "stateMutability": "nonpayable",
            "type": "function"
        },
        {
            "inputs": [
                {
                    "internalType": "uint256",
                    "name": "snOfLocker",
                    "type": "uint256"
                },
                {
                    "internalType": "uint256",
                    "name": "amount",
                    "type": "uint256"
                }
            ],
            "name": "setPayInAmt",
            "outputs": [],
            "stateMutability": "nonpayable",
            "type": "function"
        },
        {
            "inputs": [
                {
                    "internalType": "bytes32",
                    "name": "role",
                    "type": "bytes32"
                },
                {
                    "internalType": "uint256",
                    "name": "acct",
                    "type": "uint256"
                }
            ],
            "name": "setRoleAdmin",
            "outputs": [],
            "stateMutability": "nonpayable",
            "type": "function"
        },
        {
            "inputs": [
                {
                    "internalType": "uint256",
                    "name": "seqOfShare",
                    "type": "uint256"
                },
                {
                    "internalType": "uint256",
                    "name": "paid",
                    "type": "uint256"
                },
                {
                    "internalType": "uint256",
                    "name": "par",
                    "type": "uint256"
                },
                {
                    "internalType": "uint256",
                    "name": "to",
                    "type": "uint256"
                },
                {
                    "internalType": "uint256",
                    "name": "priceOfPaid",
                    "type": "uint256"
                },
                {
                    "internalType": "uint256",
                    "name": "priceOfPar",
                    "type": "uint256"
                }
            ],
            "name": "transferShare",
            "outputs": [],
            "stateMutability": "nonpayable",
            "type": "function"
        },
        {
            "inputs": [
                {
                    "internalType": "uint256",
                    "name": "seqOfShare",
                    "type": "uint256"
                },
                {
                    "internalType": "uint256",
                    "name": "deadline",
                    "type": "uint256"
                }
            ],
            "name": "updatePaidInDeadline",
            "outputs": [],
            "stateMutability": "nonpayable",
            "type": "function"
        },
        {
            "inputs": [
                {
                    "internalType": "uint256",
                    "name": "seqOfShare",
                    "type": "uint256"
                },
                {
                    "internalType": "uint256",
                    "name": "state",
                    "type": "uint256"
                }
            ],
            "name": "updateStateOfShare",
            "outputs": [],
            "stateMutability": "nonpayable",
            "type": "function"
        },
        {
            "inputs": [
                {
                    "internalType": "uint256",
                    "name": "snOfLocker",
                    "type": "uint256"
                }
            ],
            "name": "withdrawPayInAmt",
            "outputs": [],
            "stateMutability": "nonpayable",
            "type": "function"
        }
    ],
    "bytecode": "608060405234801561001057600080fd5b50613f7a806100206000396000f3fe608060405234801561001057600080fd5b50600436106102065760003560e01c80637e063c5a1161011a578063b3f05b97116100ad578063dc890da91161007c578063dc890da914610506578063ea64673f14610519578063ed2110231461052c578063efac1eef1461054c578063f045a7691461055f57600080fd5b8063b3f05b97146104ac578063ccdddd41146104c0578063cd78c98a146104d3578063cfb5a5f8146104e657600080fd5b80638bb9c5bf116100e95780638bb9c5bf1461045357806392c80eb7146104665780639e46e7d714610486578063ae47fa541461049957600080fd5b80637e063c5a146104125780638041494e14610425578063874b565714610438578063893d20e81461044b57600080fd5b8063498ec4361161019d578063544f1ba21161016c578063544f1ba21461037057806357f204d1146103b957806358ebd89b146103cc57806360d095df146103ec5780636be8496f146103ff57600080fd5b8063498ec436146102f75780634a0ca0d61461030a5780634a14beb11461034a5780635171ebd41461035d57600080fd5b80631b6ea9f9116101d95780631b6ea9f91461029e5780631d601918146102b15780633311ece6146102d15780633da9a600146102e457600080fd5b80630b1bd2431461020b5780630c1d138b14610248578063103f6edd1461026b57806319d61ad914610289575b600080fd5b61022b61021936600461338f565b60009081526007602052604090205490565b6040516001600160401b0390911681526020015b60405180910390f35b61025b61025636600461338f565b610567565b604051901515815260200161023f565b61027361058a565b60405164ffffffffff909116815260200161023f565b61029c6102973660046133a8565b610616565b005b61029c6102ac3660046133a8565b6106a8565b6102c46102bf36600461338f565b6106ce565b60405161023f91906133ca565b61029c6102df36600461338f565b610764565b61029c6102f236600461338f565b6108e0565b61029c6103053660046133a8565b61096b565b60008052600460209081527f17ef568e3e12ab5b9c7254a8d58478811de00f9e6eb34345acd53bf8fd09d3ec5460405163ffffffff90911681520161023f565b61029c61035836600461338f565b610af4565b61029c61036b3660046133a8565b610d51565b6000805260046020527f17ef568e3e12ab5b9c7254a8d58478811de00f9e6eb34345acd53bf8fd09d3ec54600160401b900461ffff1660405161ffff909116815260200161023f565b61029c6103c73660046134c1565b610d77565b6103df6103da36600461338f565b6111b1565b60405161023f91906135c7565b61029c6103fa3660046133a8565b611293565b61029c61040d3660046135ea565b611510565b61025b6104203660046133a8565b6115c2565b61029c61043336600461338f565b61165d565b61029c6104463660046133a8565b611716565b61027361184c565b61029c61046136600461338f565b611887565b61047961047436600461338f565b6118ac565b60405161023f91906136ba565b61029c6104943660046133a8565b61198e565b61029c6104a73660046136c9565b611b18565b60028054600160f01b900460ff161461025b565b61029c6104ce3660046133a8565b611e9b565b61029c6104e136600461370c565b6120e2565b6104f96104f436600461338f565b6122bd565b60405161023f9190613738565b61029c610514366004613766565b612422565b6104f96105273660046138f0565b612504565b610534612777565b6040516001600160a01b03909116815260200161023f565b61029c61055a3660046139d7565b6127fd565b61029c612c3f565b600090815260046020526040902054600160501b900465ffffffffffff16151590565b60405163e8c0cc1d60e01b81526002600482015260009073__$364aad554dc80380f414546becdd2c1584$__9063e8c0cc1d906024015b60206040518083038186803b1580156105d957600080fd5b505af41580156105ed573d6000803e3d6000fd5b505050506040513d601f19601f820116820180604052508101906106119190613a14565b905090565b73__$364aad554dc80380f414546becdd2c1584$__6382daafaa6002848461063c612e83565b6040516001600160e01b031960e087901b16815260048101949094526024840192909252604483015264ffffffffff16606482015260840160006040518083038186803b15801561068c57600080fd5b505af41580156106a0573d6000803e3d6000fd5b505050505050565b73__$364aad554dc80380f414546becdd2c1584$__636320d75e6002848461063c612e83565b604051635a2b40f960e01b81526004808201526024810182905260609073__$8e58971381edbbe3ac3690dc260b78dff1$__90635a2b40f99060440160006040518083038186803b15801561072257600080fd5b505af4158015610736573d6000803e3d6000fd5b505050506040513d6000823e601f3d908101601f1916820160405261075e9190810190613a31565b92915050565b604051633b11adbf60e21b81526002600482015233602482015273__$364aad554dc80380f414546becdd2c1584$__9063ec46b6fc9060440160206040518083038186803b1580156107b557600080fd5b505af41580156107c9573d6000803e3d6000fd5b505050506040513d601f19601f820116820180604052508101906107ed9190613ad6565b6108125760405162461bcd60e51b815260040161080990613af8565b60405180910390fd5b6040516362df592560e11b8152600760048201526024810182905263ffffffff60d883901c16604482015273__$223a7d8e77d13d34061b834adce3068cce$__9063c5beb24a9060640160206040518083038186803b15801561087457600080fd5b505af4158015610888573d6000803e3d6000fd5b505050506040513d601f19601f820116820180604052508101906108ac9190613ad6565b156108dd5760405181907fff565db01e1ca5241a38635847f870c8c9a5eaca2245ed59b70dbc0471062eeb90600090a25b50565b73__$364aad554dc80380f414546becdd2c1584$__63c51b295f600283610905612e83565b6040516001600160e01b031960e086901b1681526004810193909352602483019190915264ffffffffff16604482015260640160006040518083038186803b15801561095057600080fd5b505af4158015610964573d6000803e3d6000fd5b5050505050565b604051633b11adbf60e21b81526002600482015233602482015273__$364aad554dc80380f414546becdd2c1584$__9063ec46b6fc9060440160206040518083038186803b1580156109bc57600080fd5b505af41580156109d0573d6000803e3d6000fd5b505050506040513d601f19601f820116820180604052508101906109f49190613ad6565b610a105760405162461bcd60e51b815260040161080990613af8565b81610a1a81610567565b610a365760405162461bcd60e51b815260040161080990613b3e565b827f88ca1d3926f0d7bc721689b3af179d2a854f049b48b4105c0acef928f912aaed83604051610a6891815260200190565b60405180910390a260008381526004602081905260409182902091516309f7f2a360e31b815273__$8e58971381edbbe3ac3690dc260b78dff1$__92634fbf951892610abf92879101918252602082015260400190565b60006040518083038186803b158015610ad757600080fd5b505af4158015610aeb573d6000803e3d6000fd5b50505050505050565b604051633b11adbf60e21b81526002600482015233602482015273__$364aad554dc80380f414546becdd2c1584$__9063ec46b6fc9060440160206040518083038186803b158015610b4557600080fd5b505af4158015610b59573d6000803e3d6000fd5b505050506040513d601f19601f82011682018060405250810190610b7d9190613ad6565b80610c22575073__$364aad554dc80380f414546becdd2c1584$__63fe2710866002610ba7612e83565b6040516001600160e01b031960e085901b168152600481019290925264ffffffffff16602482015260440160206040518083038186803b158015610bea57600080fd5b505af4158015610bfe573d6000803e3d6000fd5b505050506040513d601f19601f82011682018060405250810190610c229190613ad6565b610c8d5760405162461bcd60e51b815260206004820152603660248201527f41432e6f776e65724f72446972656374426f6f6b65657065723a206e6569746860448201527532b91037bbb732b9103737b9103137b7b5b2b2b832b960511b6064820152608401610809565b73__$364aad554dc80380f414546becdd2c1584$__639b4510de600283610cb2612e83565b6040516001600160e01b031960e086901b1681526004810193909352602483019190915264ffffffffff16604482015260640160006040518083038186803b158015610cfd57600080fd5b505af4158015610d11573d6000803e3d6000fd5b505050507ff2735f34b69be1e6342dea95f9162f84d0db925fab655ca9f1f312ac8cbfc99d81604051610d4691815260200190565b60405180910390a150565b73__$364aad554dc80380f414546becdd2c1584$__63ee98b3136002848461063c612e83565b604051633b11adbf60e21b81526002600482015233602482015273__$364aad554dc80380f414546becdd2c1584$__9063ec46b6fc9060440160206040518083038186803b158015610dc857600080fd5b505af4158015610ddc573d6000803e3d6000fd5b505050506040513d601f19601f82011682018060405250810190610e009190613ad6565b610e1c5760405162461bcd60e51b815260040161080990613af8565b604051630ec33f1d60e31b815260009073__$223a7d8e77d13d34061b834adce3068cce$__90637619f8e890610e5f906007908990899089908990600401613b75565b60206040518083038186803b158015610e7757600080fd5b505af4158015610e8b573d6000803e3d6000fd5b505050506040513d601f19601f82011682018060405250810190610eaf9190613be8565b90506001600160401b038116156109645760d885901c63ffffffff1660009081526004602052604090208054600160801b900464ffffffffff168314610f375760405162461bcd60e51b815260206004820152601960248201527f424f532e525049433a206e6f74207368617265686f6c646572000000000000006044820152606401610809565b60405163625b803f60e01b8152600481018290526001600160401b038316602482015273__$8e58971381edbbe3ac3690dc260b78dff1$__9063625b803f9060440160006040518083038186803b158015610f9157600080fd5b505af4158015610fa5573d6000803e3d6000fd5b50505050600160009054906101000a90046001600160a01b03166001600160a01b03166333fb96ee6040518163ffffffff1660e01b815260040160206040518083038186803b158015610ff757600080fd5b505afa15801561100b573d6000803e3d6000fd5b505050506040513d601f19601f8201168201806040525081019061102f9190613c01565b81546040516311aa512960e01b8152600160801b90910464ffffffffff1660048201526001600160401b038416602482015260006044820152600160648201526001600160a01b0391909116906311aa512990608401600060405180830381600087803b15801561109f57600080fd5b505af11580156110b3573d6000803e3d6000fd5b50505050600160009054906101000a90046001600160a01b03166001600160a01b03166333fb96ee6040518163ffffffff1660e01b815260040160206040518083038186803b15801561110557600080fd5b505afa158015611119573d6000803e3d6000fd5b505050506040513d601f19601f8201168201806040525081019061113d9190613c01565b604051631bfc7c8560e11b81526001600160401b0384166004820152600060248201526001600160a01b0391909116906337f8f90a906044015b600060405180830381600087803b15801561119157600080fd5b505af11580156111a5573d6000803e3d6000fd5b50505050505050505050565b6040805160c081018252600080825260208201819052918101829052606081018290526080810182905260a0810191909152816111ed81610567565b6112095760405162461bcd60e51b815260040161080990613b3e565b5050600090815260046020908152604091829020825160c08101845260019091015465ffffffffffff811682526001600160401b0366010000000000008204811693830193909352600160701b8104831693820193909352600160b01b8304909116606082015260ff600160f01b830481166080830152600160f81b90920490911660a082015290565b8161129d81610567565b6112b95760405162461bcd60e51b815260040161080990613b3e565b6000838152600460205260409020600101548390600160f01b900460ff16156112f45760405162461bcd60e51b815260040161080990613c1e565b60015460405163e0ff5b8b60e01b8152600560048201526001600160a01b039091169063e0ff5b8b9060240160206040518083038186803b15801561133857600080fd5b505afa15801561134c573d6000803e3d6000fd5b505050506040513d601f19601f820116820180604052508101906113709190613c01565b6001600160a01b0316336001600160a01b0316148061140557506001546040516335d2155560e11b81523360048201526001600160a01b0390911690636ba42aaa9060240160206040518083038186803b1580156113cd57600080fd5b505afa1580156113e1573d6000803e3d6000fd5b505050506040513d601f19601f820116820180604052508101906114059190613ad6565b6114515760405162461bcd60e51b815260206004820152601f60248201527f424f532e4443413a206e656974686572206b6565706572206e6f7220424f50006044820152606401610809565b837f955b9b3501784e6481781c57adfad04303072a675290ab00fd286dd6aa2fb58d8460405161148391815260200190565b60405180910390a260008481526004602081905260409182902091516365f7b03760e01b815273__$8e58971381edbbe3ac3690dc260b78dff1$__926365f7b037926114da92889101918252602082015260400190565b60006040518083038186803b1580156114f257600080fd5b505af4158015611506573d6000803e3d6000fd5b5050505050505050565b604051630f07232560e01b8152600260048201526001600160a01b038216602482015233604482015273__$364aad554dc80380f414546becdd2c1584$__90630f0723259060640160006040518083038186803b15801561157057600080fd5b505af4158015611584573d6000803e3d6000fd5b50506040516001600160a01b03841681527fe435cbeab64e4eae6497b9d8289704bd709d624a80704ef3ca9af777534bc6ec92506020019050610d46565b604051632a3be56b60e21b815260026004820152602481018390526044810182905260009073__$364aad554dc80380f414546becdd2c1584$__9063a8ef95ac9060640160206040518083038186803b15801561161e57600080fd5b505af4158015611632573d6000803e3d6000fd5b505050506040513d601f19601f820116820180604052508101906116569190613ad6565b9392505050565b73__$364aad554dc80380f414546becdd2c1584$__639b48160c600283611682612e83565b6040516001600160e01b031960e086901b1681526004810193909352602483019190915264ffffffffff16604482015260640160006040518083038186803b1580156116cd57600080fd5b505af41580156116e1573d6000803e3d6000fd5b505050507f8b6f40f36b4ae8cc5f55e895036457c43da4ab1f80f58c46f5ff0d72a650033b81604051610d4691815260200190565b604051633b11adbf60e21b81526002600482015233602482015273__$364aad554dc80380f414546becdd2c1584$__9063ec46b6fc9060440160206040518083038186803b15801561176757600080fd5b505af415801561177b573d6000803e3d6000fd5b505050506040513d601f19601f8201168201806040525081019061179f9190613ad6565b6117bb5760405162461bcd60e51b815260040161080990613af8565b816117c581610567565b6117e15760405162461bcd60e51b815260040161080990613b3e565b827f9a7cb8f35be5d20be4eed3815250ff53e03df99a3592248fbaf4ef2adbb364388360405161181391815260200190565b60405180910390a250600091825260046020526040909120600101805460ff909216600160f01b0260ff60f01b19909216919091179055565b60405163987ad15360e01b81526002600482015260009073__$364aad554dc80380f414546becdd2c1584$__9063987ad153906024016105c1565b73__$364aad554dc80380f414546becdd2c1584$__63cc0d511b600283610905612e83565b6118b46132f8565b816118be81610567565b6118da5760405162461bcd60e51b815260040161080990613b3e565b5050600090815260046020908152604091829020825161012081018452905463ffffffff8082168352640100000000820481169383019390935261ffff600160401b820481169483019490945265ffffffffffff600160501b820416606083015264ffffffffff600160801b8204166080830152600160a81b8104831660a0830152600160c81b810490921660c0820152600160e81b820490921660e083015260ff600160f81b9091041661010082015290565b604051633b11adbf60e21b81526002600482015233602482015273__$364aad554dc80380f414546becdd2c1584$__9063ec46b6fc9060440160206040518083038186803b1580156119df57600080fd5b505af41580156119f3573d6000803e3d6000fd5b505050506040513d601f19601f82011682018060405250810190611a179190613ad6565b611a335760405162461bcd60e51b815260040161080990613af8565b60405163a30ad42160e01b815260076004820152602481018390526044810182905263ffffffff60d884901c16606482015273__$223a7d8e77d13d34061b834adce3068cce$__9063a30ad4219060840160206040518083038186803b158015611a9c57600080fd5b505af4158015611ab0573d6000803e3d6000fd5b505050506040513d601f19601f82011682018060405250810190611ad49190613ad6565b15611b1457817ff924b9462d99a13e17b068bf3da8bc7948e6ee6770537c0dda1448e96180bfbf82604051611b0b91815260200190565b60405180910390a25b5050565b6001546040516335d2155560e11b81523360048201526001600160a01b0390911690636ba42aaa9060240160206040518083038186803b158015611b5b57600080fd5b505afa158015611b6f573d6000803e3d6000fd5b505050506040513d601f19601f82011682018060405250810190611b939190613ad6565b611baf5760405162461bcd60e51b815260040161080990613c55565b85611bb981610567565b611bd55760405162461bcd60e51b815260040161080990613b3e565b6000878152600460205260409020600101548790600160f01b900460ff1615611c105760405162461bcd60e51b815260040161080990613c1e565b600088815260046020526040902085611c6b5760405162461bcd60e51b815260206004820152601b60248201527f424f532e54533a207368617265686f6c646572206973205a45524f00000000006044820152606401610809565b611c76818989612edd565b600160009054906101000a90046001600160a01b03166001600160a01b03166333fb96ee6040518163ffffffff1660e01b815260040160206040518083038186803b158015611cc457600080fd5b505afa158015611cd8573d6000803e3d6000fd5b505050506040513d601f19601f82011682018060405250810190611cfc9190613c01565b6001600160a01b0316631089f5ed876040518263ffffffff1660e01b8152600401611d2991815260200190565b600060405180830381600087803b158015611d4357600080fd5b505af1158015611d57573d6000803e3d6000fd5b50505050611d63613344565b604051806101200160405280600063ffffffff1681526020018360000160000160009054906101000a900463ffffffff1663ffffffff1681526020018360000160000160089054906101000a900461ffff1661ffff1681526020014265ffffffffffff1681526020018864ffffffffff1681526020018763ffffffff1681526020018663ffffffff168152602001600061ffff168152602001600060ff1681525081600001819052506040518060c001604052808360010160000160009054906101000a900465ffffffffffff1665ffffffffffff1681526020018a6001600160401b03168152602001896001600160401b031681526020018a6001600160401b03168152602001600060ff168152602001600060ff168152508160200181905250611e8e81612504565b5050505050505050505050565b81611ea581610567565b611ec15760405162461bcd60e51b815260040161080990613b3e565b6000838152600460205260409020600101548390600160f01b900460ff1615611efc5760405162461bcd60e51b815260040161080990613c1e565b60015460405163e0ff5b8b60e01b8152600560048201526001600160a01b039091169063e0ff5b8b9060240160206040518083038186803b158015611f4057600080fd5b505afa158015611f54573d6000803e3d6000fd5b505050506040513d601f19601f82011682018060405250810190611f789190613c01565b6001600160a01b0316336001600160a01b0316148061200d57506001546040516335d2155560e11b81523360048201526001600160a01b0390911690636ba42aaa9060240160206040518083038186803b158015611fd557600080fd5b505afa158015611fe9573d6000803e3d6000fd5b505050506040513d601f19601f8201168201806040525081019061200d9190613ad6565b6120595760405162461bcd60e51b815260206004820152601f60248201527f424f532e4443413a206e656974686572206b6565706572206e6f7220424f50006044820152606401610809565b837f5c4f63eb2634eff57def5d49e434310036d5945885a7a3c862db4569c917c3968460405161208b91815260200190565b60405180910390a2600084815260046020819052604091829020915163342482e160e11b815273__$8e58971381edbbe3ac3690dc260b78dff1$__9263684905c2926114da92889101918252602082015260400190565b604051633b11adbf60e21b81526002600482015233602482015273__$364aad554dc80380f414546becdd2c1584$__9063ec46b6fc9060440160206040518083038186803b15801561213357600080fd5b505af4158015612147573d6000803e3d6000fd5b505050506040513d601f19601f8201168201806040525081019061216b9190613ad6565b6121875760405162461bcd60e51b815260040161080990613af8565b8261219181610567565b6121ad5760405162461bcd60e51b815260040161080990613b3e565b6000848152600460205260409020600101548490600160f01b900460ff16156121e85760405162461bcd60e51b815260040161080990613c1e565b6000858152600460205260409020612201818686612edd565b600160009054906101000a90046001600160a01b03166001600160a01b03166333fb96ee6040518163ffffffff1660e01b815260040160206040518083038186803b15801561224f57600080fd5b505afa158015612263573d6000803e3d6000fd5b505050506040513d601f19601f820116820180604052508101906122879190613c01565b6040516305552ed760e11b815260048101879052602481018690526001600160a01b039190911690630aaa5dae90604401611177565b6122c5613344565b816122cf81610567565b6122eb5760405162461bcd60e51b815260040161080990613b3e565b5050600090815260046020908152604091829020825161016081018452815463ffffffff8082168387019081526401000000008304821660608086019190915261ffff600160401b8504811660808088019190915265ffffffffffff600160501b8704811660a0808a019190915264ffffffffff600160801b89041660c0808b0191909152600160a81b8904881660e08b0152600160c81b89049097166101008a0152600160e81b880490931661012089015260ff600160f81b9788900481166101408a01529488528a519586018b5260019098015497881685526001600160401b03660100000000000089048116868b0152600160701b890481169a86019a909a52600160b01b880490991691840191909152600160f01b86048216978301979097529190930416938201939093529082015290565b604051636cdd0edf60e11b815260026004820152602481018590526001600160a01b038416604482015273__$364aad554dc80380f414546becdd2c1584$__9063d9ba1dbe9060640160006040518083038186803b15801561248357600080fd5b505af4158015612497573d6000803e3d6000fd5b505050506124a482613180565b6124ad816131f3565b604080518581526001600160a01b038581166020830152848116828401528316606082015290517f3abb2418c66fe32ba9c883030a75ce583971d9af9192b9b74e44e67c5e6c8c1f9181900360800190a150505050565b61250c613344565b6001546040516335d2155560e11b81523360048201526001600160a01b0390911690636ba42aaa9060240160206040518083038186803b15801561254f57600080fd5b505afa158015612563573d6000803e3d6000fd5b505050506040513d601f19601f820116820180604052508101906125879190613ad6565b6125a35760405162461bcd60e51b815260040161080990613c55565b604051634582ac0d60e01b815273__$8e58971381edbbe3ac3690dc260b78dff1$__90634582ac0d906125dc9060049086908201613c80565b6101e06040518083038186803b1580156125f557600080fd5b505af4158015612609573d6000803e3d6000fd5b505050506040513d601f19601f8201168201806040525081019061262d9190613d64565b8051516020808301518082015160409182015182516001600160401b03928316815291169281019290925292935063ffffffff909116917f3d5412f2e9e7ec5509f1c8d8e2446708714a4600e12facfe1695a7ab9835ad0e910160405180910390a2600160009054906101000a90046001600160a01b03166001600160a01b03166333fb96ee6040518163ffffffff1660e01b815260040160206040518083038186803b1580156126dd57600080fd5b505afa1580156126f1573d6000803e3d6000fd5b505050506040513d601f19601f820116820180604052508101906127159190613c01565b6001600160a01b03166319951c8a826040518263ffffffff1660e01b81526004016127409190613738565b600060405180830381600087803b15801561275a57600080fd5b505af115801561276e573d6000803e3d6000fd5b50505050919050565b604051633c3e56c160e11b81526002600482015260009073__$364aad554dc80380f414546becdd2c1584$__9063787cad829060240160206040518083038186803b1580156127c557600080fd5b505af41580156127d9573d6000803e3d6000fd5b505050506040513d601f19601f820116820180604052508101906106119190613c01565b6001546040516335d2155560e11b81523360048201526001600160a01b0390911690636ba42aaa9060240160206040518083038186803b15801561284057600080fd5b505afa158015612854573d6000803e3d6000fd5b505050506040513d601f19601f820116820180604052508101906128789190613ad6565b6128945760405162461bcd60e51b815260040161080990613c55565b6040516374cabc7960e11b81526004808201526024810185905260448101849052606481018390526084810182905260009073__$8e58971381edbbe3ac3690dc260b78dff1$__9063e99578f29060a4016101e06040518083038186803b1580156128fe57600080fd5b505af4158015612912573d6000803e3d6000fd5b505050506040513d601f19601f820116820180604052508101906129369190613d64565b9050600160009054906101000a90046001600160a01b03166001600160a01b03166333fb96ee6040518163ffffffff1660e01b815260040160206040518083038186803b15801561298657600080fd5b505afa15801561299a573d6000803e3d6000fd5b505050506040513d601f19601f820116820180604052508101906129be9190613c01565b815160800151604051631089f5ed60e01b815264ffffffffff90911660048201526001600160a01b039190911690631089f5ed90602401600060405180830381600087803b158015612a0f57600080fd5b505af1158015612a23573d6000803e3d6000fd5b5050825151604080518781526020810187905263ffffffff90921693507f3d5412f2e9e7ec5509f1c8d8e2446708714a4600e12facfe1695a7ab9835ad0e92500160405180910390a2600160009054906101000a90046001600160a01b03166001600160a01b03166333fb96ee6040518163ffffffff1660e01b815260040160206040518083038186803b158015612aba57600080fd5b505afa158015612ace573d6000803e3d6000fd5b505050506040513d601f19601f82011682018060405250810190612af29190613c01565b6001600160a01b03166319951c8a826040518263ffffffff1660e01b8152600401612b1d9190613738565b600060405180830381600087803b158015612b3757600080fd5b505af1158015612b4b573d6000803e3d6000fd5b50505050600160009054906101000a90046001600160a01b03166001600160a01b03166333fb96ee6040518163ffffffff1660e01b815260040160206040518083038186803b158015612b9d57600080fd5b505afa158015612bb1573d6000803e3d6000fd5b505050506040513d601f19601f82011682018060405250810190612bd59190613c01565b604051631bfc7c8560e11b815260048101859052602481018490526001600160a01b0391909116906337f8f90a90604401600060405180830381600087803b158015612c2057600080fd5b505af1158015612c34573d6000803e3d6000fd5b505050505050505050565b600254600160f01b900460ff16600114612c9b5760405162461bcd60e51b815260206004820152601760248201527f41432e4c433a20446f632069732066696e616c697a65640000000000000000006044820152606401610809565b73__$364aad554dc80380f414546becdd2c1584$__63c51b295f6002684174746f726e65797360b81b612ccc612e83565b6040516001600160e01b031960e086901b1681526004810193909352602483019190915264ffffffffff16604482015260640160006040518083038186803b158015612d1757600080fd5b505af4158015612d2b573d6000803e3d6000fd5b50505050600273__$364aad554dc80380f414546becdd2c1584$__639b4510de90916000612d57612e83565b6040516001600160e01b031960e086901b1681526004810193909352602483019190915264ffffffffff16604482015260640160006040518083038186803b158015612da257600080fd5b505af4158015612db6573d6000803e3d6000fd5b50505050600273__$364aad554dc80380f414546becdd2c1584$__639b48160c90916000612de2612e83565b6040516001600160e01b031960e086901b1681526004810193909352602483019190915264ffffffffff16604482015260640160006040518083038186803b158015612e2d57600080fd5b505af4158015612e41573d6000803e3d6000fd5b50506002805460ff60f01b1916600160f11b17905550506040517f35012b512309c322acf68632cd6cb702ff0e1d776fbe9394e38ffc13b434fe7590600090a1565b60008054604051636ae3b70d60e11b81523360048201526001600160a01b039091169063d5c76e1a90602401602060405180830381600087803b158015612ec957600080fd5b505af11580156105ed573d6000803e3d6000fd5b6001830154600160701b90046001600160401b031681141561307357600160009054906101000a90046001600160a01b03166001600160a01b03166333fb96ee6040518163ffffffff1660e01b815260040160206040518083038186803b158015612f4757600080fd5b505afa158015612f5b573d6000803e3d6000fd5b505050506040513d601f19601f82011682018060405250810190612f7f9190613c01565b6001600160a01b03166331846b71846040518263ffffffff1660e01b8152600401612faa9190613e3d565b600060405180830381600087803b158015612fc457600080fd5b505af1158015612fd8573d6000803e3d6000fd5b50508454604051631b7a23db60e21b815260048082015263ffffffff909116602482015273__$8e58971381edbbe3ac3690dc260b78dff1$__9250636de88f6c915060440160206040518083038186803b15801561303557600080fd5b505af4158015613049573d6000803e3d6000fd5b505050506040513d601f19601f8201168201806040525081019061306d9190613ad6565b50505050565b61307e83838361326e565b600160009054906101000a90046001600160a01b03166001600160a01b03166333fb96ee6040518163ffffffff1660e01b815260040160206040518083038186803b1580156130cc57600080fd5b505afa1580156130e0573d6000803e3d6000fd5b505050506040513d601f19601f820116820180604052508101906131049190613c01565b83546040516311aa512960e01b8152600160801b90910464ffffffffff1660048201526024810184905260448101839052600060648201526001600160a01b0391909116906311aa512990608401600060405180830381600087803b15801561316c57600080fd5b505af1158015610aeb573d6000803e3d6000fd5b6000546001600160a01b0316156131d15760405162461bcd60e51b815260206004820152601560248201527430b63932b0b23c9039b2ba103932b3a1b2b73a32b960591b6044820152606401610809565b600080546001600160a01b0319166001600160a01b0392909216919091179055565b6001546001600160a01b03161561324c5760405162461bcd60e51b815260206004820152601960248201527f616c7265616479207365742067656e6572616c4b6565706572000000000000006044820152606401610809565b600180546001600160a01b0319166001600160a01b0392909216919091179055565b8254604080518481526020810184905263ffffffff909216917f0476aa40cc4df015c2f3118ec8dae2be71258851b1ebb240ae6cbe75bc308198910160405180910390a26040516359a5250960e01b815260048101849052602481018390526044810182905273__$8e58971381edbbe3ac3690dc260b78dff1$__906359a5250990606401610abf565b6040805161012081018252600080825260208201819052918101829052606081018290526080810182905260a0810182905260c0810182905260e0810182905261010081019190915290565b60405180604001604052806133576132f8565b81526040805160c08101825260008082526020828101829052928201819052606082018190526080820181905260a082015291015290565b6000602082840312156133a157600080fd5b5035919050565b600080604083850312156133bb57600080fd5b50508035926020909101359150565b6020808252825182820181905260009190848201906040850190845b81811015613402578351835292840192918401916001016133e6565b50909695505050505050565b634e487b7160e01b600052604160045260246000fd5b60405160c081016001600160401b03811182821017156134465761344661340e565b60405290565b604080519081016001600160401b03811182821017156134465761344661340e565b60405161012081016001600160401b03811182821017156134465761344661340e565b604051601f8201601f191681016001600160401b03811182821017156134b9576134b961340e565b604052919050565b600080600080608085870312156134d757600080fd5b843593506020808601356001600160401b03808211156134f657600080fd5b818801915088601f83011261350a57600080fd5b81358181111561351c5761351c61340e565b61352e601f8201601f19168501613491565b9150808252898482850101111561354457600080fd5b80848401858401376000908201909301929092525093969395505050506040820135916060013590565b65ffffffffffff815116825260208101516001600160401b038082166020850152806040840151166040850152806060840151166060850152505060ff608082015116608083015260ff60a08201511660a08301525050565b60c0810161075e828461356e565b6001600160a01b03811681146108dd57600080fd5b6000602082840312156135fc57600080fd5b8135611656816135d5565b63ffffffff8082511683528060208301511660208401525061ffff60408201511660408301526060810151613646606084018265ffffffffffff169052565b50608081015161365f608084018264ffffffffff169052565b5060a081015161367760a084018263ffffffff169052565b5060c081015161368f60c084018263ffffffff169052565b5060e08101516136a560e084018261ffff169052565b506101008181015160ff81168483015261306d565b610120810161075e8284613607565b60008060008060008060c087890312156136e257600080fd5b505084359660208601359650604086013595606081013595506080810135945060a0013592509050565b60008060006060848603121561372157600080fd5b505081359360208301359350604090920135919050565b60006101e08201905061374c828451613607565b602083015161375f61012084018261356e565b5092915050565b6000806000806080858703121561377c57600080fd5b84359350602085013561378e816135d5565b9250604085013561379e816135d5565b915060608501356137ae816135d5565b939692955090935050565b63ffffffff811681146108dd57600080fd5b80356137d6816137b9565b919050565b61ffff811681146108dd57600080fd5b80356137d6816137db565b65ffffffffffff811681146108dd57600080fd5b80356137d6816137f6565b64ffffffffff811681146108dd57600080fd5b80356137d681613815565b60ff811681146108dd57600080fd5b80356137d681613833565b6001600160401b03811681146108dd57600080fd5b600060c0828403121561387457600080fd5b61387c613424565b90508135613889816137f6565b815260208201356138998161384d565b602082015260408201356138ac8161384d565b604082015260608201356138bf8161384d565b606082015260808201356138d281613833565b608082015260a08201356138e581613833565b60a082015292915050565b60008183036101e081121561390457600080fd5b61390c61344c565b6101208083121561391c57600080fd5b61392461346e565b925061392f856137cb565b835261393d602086016137cb565b602084015261394e604086016137eb565b604084015261395f6060860161380a565b606084015261397060808601613828565b608084015261398160a086016137cb565b60a084015261399260c086016137cb565b60c08401526139a360e086016137eb565b60e08401526101006139b6818701613842565b908401528282526139c986868301613862565b602083015250949350505050565b600080600080608085870312156139ed57600080fd5b5050823594602084013594506040840135936060013592509050565b80516137d681613815565b600060208284031215613a2657600080fd5b815161165681613815565b60006020808385031215613a4457600080fd5b82516001600160401b0380821115613a5b57600080fd5b818501915085601f830112613a6f57600080fd5b815181811115613a8157613a8161340e565b8060051b9150613a92848301613491565b8181529183018401918481019088841115613aac57600080fd5b938501935b83851015613aca57845182529385019390850190613ab1565b98975050505050505050565b600060208284031215613ae857600080fd5b8151801515811461165657600080fd5b60208082526026908201527f41432e6f6e6c794469726563744b65657065723a206e6f74206469726563742060408201526535b2b2b832b960d11b606082015260800190565b6020808252601f908201527f424f532e6d662e53453a207365714f665368617265204e4f5420657869737400604082015260600190565b85815260006020868184015260a0604084015285518060a085015260005b81811015613baf5787810183015185820160c001528201613b93565b81811115613bc157600060c083870101525b5060608401959095525050608081019190915260c0601f909201601f191601019392505050565b600060208284031215613bfa57600080fd5b5051919050565b600060208284031215613c1357600080fd5b8151611656816135d5565b6020808252601b908201527f424f532e6d662e4e463a20736861726520697320667265657a65640000000000604082015260600190565b60208082526011908201527020a19737b59d103737ba1025b2b2b832b960791b604082015260600190565b600061020082019050838252613c9a602083018451613607565b6020830151613cad61014084018261356e565b509392505050565b80516137d6816137b9565b80516137d6816137db565b80516137d6816137f6565b80516137d681613833565b600060c08284031215613cf357600080fd5b613cfb613424565b90508151613d08816137f6565b81526020820151613d188161384d565b60208201526040820151613d2b8161384d565b60408201526060820151613d3e8161384d565b60608201526080820151613d5181613833565b608082015260a08201516138e581613833565b60008183036101e0811215613d7857600080fd5b613d8061344c565b61012080831215613d9057600080fd5b613d9861346e565b9250613da385613cb5565b8352613db160208601613cb5565b6020840152613dc260408601613cc0565b6040840152613dd360608601613ccb565b6060840152613de460808601613a09565b6080840152613df560a08601613cb5565b60a0840152613e0660c08601613cb5565b60c0840152613e1760e08601613cc0565b60e0840152610100613e2a818701613cd6565b908401528282526139c986868301613ce1565b815463ffffffff8082168352602082811c8216908401526101e08301919061ffff613e7360408601828560401c1661ffff169052565b605083901c65ffffffffffff166060860152608083811c64ffffffffff1690860152613eac60a08601838560a81c1663ffffffff169052565b613ec360c08601838560c81c1663ffffffff169052565b613ed860e08601828560e81c1661ffff169052565b505060f881901c61010084015250600183015465ffffffffffff81166101208401526001600160401b03603082901c8116610140850152607082901c811661016085015260b082901c1661018084015260ff60f082901c166101a084015260f81c6101c083015261075e56fea26469706673582212201cea8f0a6aa92ed1b113da70aad2a4058ecf84848b101595deb023a83d46197864736f6c63430008080033",
    "sourcePath": "/Users/kaptain/github.com/hardhat/comboox/contracts/books/bos/BookOfShares.sol",
    "compiler": {
        "name": "solc",
        "version": "0.8.8+commit.dddeac2f"
    },
    "functionHashes": {
        "abandonRole(bytes32)": "3da9a600",
        "counterOfClasses()": "544f1ba2",
        "counterOfShares()": "4a0ca0d6",
        "decreaseCapital(uint256,uint256,uint256)": "cd78c98a",
        "decreaseCleanPaid(uint256,uint256)": "60d095df",
        "finalized()": "b3f05b97",
        "getBodyOfShare(uint256)": "58ebd89b",
        "getBookeeper()": "ed211023",
        "getGeneralCounsel()": "103f6edd",
        "getHeadOfShare(uint256)": "92c80eb7",
        "getLocker(uint256)": "0b1bd243",
        "getOwner()": "893d20e8",
        "getShare(uint256)": "cfb5a5f8",
        "getSharesOfClass(uint256)": "1d601918",
        "grantRole(bytes32,uint256)": "1b6ea9f9",
        "hasRole(bytes32,uint256)": "7e063c5a",
        "increaseCleanPaid(uint256,uint256)": "ccdddd41",
        "init(uint256,address,address,address)": "dc890da9",
        "isShare(uint256)": "0c1d138b",
        "issueShare(uint256,uint256,uint256,uint256)": "efac1eef",
        "lockContents()": "f045a769",
        "regShare(((uint32,uint32,uint16,uint48,uint40,uint32,uint32,uint16,uint8),(uint48,uint64,uint64,uint64,uint8,uint8)))": "ea64673f",
        "renounceRole(bytes32)": "8bb9c5bf",
        "requestPaidInCapital(uint256,string,uint256,uint256)": "57f204d1",
        "revokeRole(bytes32,uint256)": "19d61ad9",
        "setDirectKeeper(address)": "6be8496f",
        "setGeneralCounsel(uint256)": "4a14beb1",
        "setOwner(uint256)": "8041494e",
        "setPayInAmt(uint256,uint256)": "9e46e7d7",
        "setRoleAdmin(bytes32,uint256)": "5171ebd4",
        "transferShare(uint256,uint256,uint256,uint256,uint256,uint256)": "ae47fa54",
        "updatePaidInDeadline(uint256,uint256)": "498ec436",
        "updateStateOfShare(uint256,uint256)": "874b5657",
        "withdrawPayInAmt(uint256)": "3311ece6"
    },
    "gasEstimates": {
        "creation": {
            "codeDepositCost": "3250000",
            "executionCost": "3603",
            "totalCost": "3253603"
        },
        "external": {
            "abandonRole(bytes32)": "infinite",
            "counterOfClasses()": "2375",
            "counterOfShares()": "2378",
            "decreaseCapital(uint256,uint256,uint256)": "infinite",
            "decreaseCleanPaid(uint256,uint256)": "infinite",
            "finalized()": "2372",
            "getBodyOfShare(uint256)": "5488",
            "getBookeeper()": "infinite",
            "getGeneralCounsel()": "infinite",
            "getHeadOfShare(uint256)": "5854",
            "getLocker(uint256)": "2495",
            "getOwner()": "infinite",
            "getShare(uint256)": "8849",
            "getSharesOfClass(uint256)": "infinite",
            "grantRole(bytes32,uint256)": "infinite",
            "hasRole(bytes32,uint256)": "infinite",
            "increaseCleanPaid(uint256,uint256)": "infinite",
            "init(uint256,address,address,address)": "infinite",
            "isShare(uint256)": "2554",
            "issueShare(uint256,uint256,uint256,uint256)": "infinite",
            "lockContents()": "infinite",
            "regShare(((uint32,uint32,uint16,uint48,uint40,uint32,uint32,uint16,uint8),(uint48,uint64,uint64,uint64,uint8,uint8)))": "infinite",
            "renounceRole(bytes32)": "infinite",
            "requestPaidInCapital(uint256,string,uint256,uint256)": "infinite",
            "revokeRole(bytes32,uint256)": "infinite",
            "setDirectKeeper(address)": "infinite",
            "setGeneralCounsel(uint256)": "infinite",
            "setOwner(uint256)": "infinite",
            "setPayInAmt(uint256,uint256)": "infinite",
            "setRoleAdmin(bytes32,uint256)": "infinite",
            "transferShare(uint256,uint256,uint256,uint256,uint256,uint256)": "infinite",
            "updatePaidInDeadline(uint256,uint256)": "infinite",
            "updateStateOfShare(uint256,uint256)": "infinite",
            "withdrawPayInAmt(uint256)": "infinite"
        },
        "internal": {
            "_decreaseShareAmt(struct SharesRepo.Share storage pointer,uint256,uint256)": "infinite",
            "_deregisterShare(uint256)": "infinite",
            "_payInCapital(struct SharesRepo.Share storage pointer,uint256)": "infinite",
            "_subAmtFromShare(struct SharesRepo.Share storage pointer,uint256,uint256)": "infinite"
        }
    }
}