{
    "contractName": "BookOfShares",
    "abi": [
        {
            "anonymous": false,
            "inputs": [
                {
                    "indexed": true,
                    "internalType": "uint256",
                    "name": "seqOfShare",
                    "type": "uint256"
                },
                {
                    "indexed": true,
                    "internalType": "uint256",
                    "name": "paid",
                    "type": "uint256"
                }
            ],
            "name": "DecreaseCleanPaid",
            "type": "event"
        },
        {
            "anonymous": false,
            "inputs": [
                {
                    "indexed": true,
                    "internalType": "uint256",
                    "name": "seqOfShare",
                    "type": "uint256"
                }
            ],
            "name": "DeregisterShare",
            "type": "event"
        },
        {
            "anonymous": false,
            "inputs": [
                {
                    "indexed": true,
                    "internalType": "uint256",
                    "name": "seqOfShare",
                    "type": "uint256"
                },
                {
                    "indexed": true,
                    "internalType": "uint256",
                    "name": "paid",
                    "type": "uint256"
                }
            ],
            "name": "IncreaseCleanPaid",
            "type": "event"
        },
        {
            "anonymous": false,
            "inputs": [
                {
                    "indexed": true,
                    "internalType": "uint256",
                    "name": "owner",
                    "type": "uint256"
                },
                {
                    "indexed": true,
                    "internalType": "address",
                    "name": "directKeeper",
                    "type": "address"
                },
                {
                    "indexed": false,
                    "internalType": "address",
                    "name": "regCenter",
                    "type": "address"
                },
                {
                    "indexed": true,
                    "internalType": "address",
                    "name": "generalKeeper",
                    "type": "address"
                }
            ],
            "name": "Init",
            "type": "event"
        },
        {
            "anonymous": false,
            "inputs": [
                {
                    "indexed": true,
                    "internalType": "bytes32",
                    "name": "shareNumber",
                    "type": "bytes32"
                },
                {
                    "indexed": true,
                    "internalType": "uint256",
                    "name": "paid",
                    "type": "uint256"
                },
                {
                    "indexed": true,
                    "internalType": "uint256",
                    "name": "par",
                    "type": "uint256"
                }
            ],
            "name": "IssueShare",
            "type": "event"
        },
        {
            "anonymous": false,
            "inputs": [],
            "name": "LockContents",
            "type": "event"
        },
        {
            "anonymous": false,
            "inputs": [
                {
                    "indexed": true,
                    "internalType": "uint256",
                    "name": "seqOfShare",
                    "type": "uint256"
                },
                {
                    "indexed": true,
                    "internalType": "uint256",
                    "name": "amount",
                    "type": "uint256"
                }
            ],
            "name": "PayInCapital",
            "type": "event"
        },
        {
            "anonymous": false,
            "inputs": [
                {
                    "indexed": true,
                    "internalType": "address",
                    "name": "target",
                    "type": "address"
                }
            ],
            "name": "RemoveDirectKeeper",
            "type": "event"
        },
        {
            "anonymous": false,
            "inputs": [
                {
                    "indexed": true,
                    "internalType": "address",
                    "name": "keeper",
                    "type": "address"
                }
            ],
            "name": "SetDirectKeeper",
            "type": "event"
        },
        {
            "anonymous": false,
            "inputs": [
                {
                    "indexed": true,
                    "internalType": "uint256",
                    "name": "acct",
                    "type": "uint256"
                }
            ],
            "name": "SetGeneralCounsel",
            "type": "event"
        },
        {
            "anonymous": false,
            "inputs": [
                {
                    "indexed": true,
                    "internalType": "uint256",
                    "name": "acct",
                    "type": "uint256"
                }
            ],
            "name": "SetOwner",
            "type": "event"
        },
        {
            "anonymous": false,
            "inputs": [
                {
                    "indexed": true,
                    "internalType": "bytes32",
                    "name": "headSn",
                    "type": "bytes32"
                },
                {
                    "indexed": true,
                    "internalType": "bytes32",
                    "name": "hashLock",
                    "type": "bytes32"
                }
            ],
            "name": "SetPayInAmt",
            "type": "event"
        },
        {
            "anonymous": false,
            "inputs": [
                {
                    "indexed": true,
                    "internalType": "uint256",
                    "name": "seqOfShare",
                    "type": "uint256"
                },
                {
                    "indexed": true,
                    "internalType": "uint256",
                    "name": "paid",
                    "type": "uint256"
                },
                {
                    "indexed": true,
                    "internalType": "uint256",
                    "name": "par",
                    "type": "uint256"
                }
            ],
            "name": "SubAmountFromShare",
            "type": "event"
        },
        {
            "anonymous": false,
            "inputs": [
                {
                    "indexed": true,
                    "internalType": "uint256",
                    "name": "seqOfShare",
                    "type": "uint256"
                },
                {
                    "indexed": true,
                    "internalType": "uint256",
                    "name": "state",
                    "type": "uint256"
                }
            ],
            "name": "UpdateStateOfShare",
            "type": "event"
        },
        {
            "anonymous": false,
            "inputs": [
                {
                    "indexed": true,
                    "internalType": "uint256",
                    "name": "seqOfShare",
                    "type": "uint256"
                },
                {
                    "indexed": true,
                    "internalType": "uint256",
                    "name": "amount",
                    "type": "uint256"
                }
            ],
            "name": "WithdrawPayInAmt",
            "type": "event"
        },
        {
            "inputs": [
                {
                    "internalType": "bytes32",
                    "name": "role",
                    "type": "bytes32"
                }
            ],
            "name": "abandonRole",
            "outputs": [],
            "stateMutability": "nonpayable",
            "type": "function"
        },
        {
            "inputs": [],
            "name": "counterOfClasses",
            "outputs": [
                {
                    "internalType": "uint16",
                    "name": "",
                    "type": "uint16"
                }
            ],
            "stateMutability": "view",
            "type": "function"
        },
        {
            "inputs": [],
            "name": "counterOfShares",
            "outputs": [
                {
                    "internalType": "uint32",
                    "name": "",
                    "type": "uint32"
                }
            ],
            "stateMutability": "view",
            "type": "function"
        },
        {
            "inputs": [
                {
                    "internalType": "uint256",
                    "name": "seqOfShare",
                    "type": "uint256"
                },
                {
                    "internalType": "uint256",
                    "name": "paid",
                    "type": "uint256"
                },
                {
                    "internalType": "uint256",
                    "name": "par",
                    "type": "uint256"
                }
            ],
            "name": "decreaseCapital",
            "outputs": [],
            "stateMutability": "nonpayable",
            "type": "function"
        },
        {
            "inputs": [
                {
                    "internalType": "uint256",
                    "name": "seqOfShare",
                    "type": "uint256"
                },
                {
                    "internalType": "uint256",
                    "name": "paid",
                    "type": "uint256"
                }
            ],
            "name": "decreaseCleanPaid",
            "outputs": [],
            "stateMutability": "nonpayable",
            "type": "function"
        },
        {
            "inputs": [],
            "name": "finalized",
            "outputs": [
                {
                    "internalType": "bool",
                    "name": "",
                    "type": "bool"
                }
            ],
            "stateMutability": "view",
            "type": "function"
        },
        {
            "inputs": [
                {
                    "internalType": "uint256",
                    "name": "seqOfShare",
                    "type": "uint256"
                }
            ],
            "name": "getBodyOfShare",
            "outputs": [
                {
                    "components": [
                        {
                            "internalType": "uint48",
                            "name": "payInDeadline",
                            "type": "uint48"
                        },
                        {
                            "internalType": "uint64",
                            "name": "paid",
                            "type": "uint64"
                        },
                        {
                            "internalType": "uint64",
                            "name": "par",
                            "type": "uint64"
                        },
                        {
                            "internalType": "uint64",
                            "name": "cleanPaid",
                            "type": "uint64"
                        },
                        {
                            "internalType": "uint8",
                            "name": "state",
                            "type": "uint8"
                        },
                        {
                            "internalType": "uint8",
                            "name": "para",
                            "type": "uint8"
                        }
                    ],
                    "internalType": "struct SharesRepo.Body",
                    "name": "body",
                    "type": "tuple"
                }
            ],
            "stateMutability": "view",
            "type": "function"
        },
        {
            "inputs": [],
            "name": "getBookeeper",
            "outputs": [
                {
                    "internalType": "address",
                    "name": "",
                    "type": "address"
                }
            ],
            "stateMutability": "view",
            "type": "function"
        },
        {
            "inputs": [],
            "name": "getGeneralCounsel",
            "outputs": [
                {
                    "internalType": "uint40",
                    "name": "",
                    "type": "uint40"
                }
            ],
            "stateMutability": "view",
            "type": "function"
        },
        {
            "inputs": [
                {
                    "internalType": "uint256",
                    "name": "seqOfShare",
                    "type": "uint256"
                }
            ],
            "name": "getHeadOfShare",
            "outputs": [
                {
                    "components": [
                        {
                            "internalType": "uint32",
                            "name": "seqOfShare",
                            "type": "uint32"
                        },
                        {
                            "internalType": "uint32",
                            "name": "preSeq",
                            "type": "uint32"
                        },
                        {
                            "internalType": "uint16",
                            "name": "class",
                            "type": "uint16"
                        },
                        {
                            "internalType": "uint48",
                            "name": "issueDate",
                            "type": "uint48"
                        },
                        {
                            "internalType": "uint40",
                            "name": "shareholder",
                            "type": "uint40"
                        },
                        {
                            "internalType": "uint32",
                            "name": "priceOfPaid",
                            "type": "uint32"
                        },
                        {
                            "internalType": "uint32",
                            "name": "priceOfPar",
                            "type": "uint32"
                        },
                        {
                            "internalType": "uint16",
                            "name": "para",
                            "type": "uint16"
                        },
                        {
                            "internalType": "uint8",
                            "name": "argu",
                            "type": "uint8"
                        }
                    ],
                    "internalType": "struct SharesRepo.Head",
                    "name": "head",
                    "type": "tuple"
                }
            ],
            "stateMutability": "view",
            "type": "function"
        },
        {
            "inputs": [
                {
                    "internalType": "bytes32",
                    "name": "hashLock",
                    "type": "bytes32"
                },
                {
                    "internalType": "uint256",
                    "name": "seqOfShare",
                    "type": "uint256"
                }
            ],
            "name": "getLocker",
            "outputs": [
                {
                    "components": [
                        {
                            "components": [
                                {
                                    "internalType": "uint40",
                                    "name": "from",
                                    "type": "uint40"
                                },
                                {
                                    "internalType": "uint40",
                                    "name": "to",
                                    "type": "uint40"
                                },
                                {
                                    "internalType": "uint48",
                                    "name": "expireDate",
                                    "type": "uint48"
                                },
                                {
                                    "internalType": "uint128",
                                    "name": "value",
                                    "type": "uint128"
                                }
                            ],
                            "internalType": "struct LockersRepo.Head",
                            "name": "head",
                            "type": "tuple"
                        },
                        {
                            "components": [
                                {
                                    "internalType": "address",
                                    "name": "counterLocker",
                                    "type": "address"
                                },
                                {
                                    "internalType": "bytes4",
                                    "name": "selector",
                                    "type": "bytes4"
                                },
                                {
                                    "internalType": "uint64",
                                    "name": "data",
                                    "type": "uint64"
                                }
                            ],
                            "internalType": "struct LockersRepo.Body",
                            "name": "body",
                            "type": "tuple"
                        }
                    ],
                    "internalType": "struct LockersRepo.Locker",
                    "name": "locker",
                    "type": "tuple"
                }
            ],
            "stateMutability": "view",
            "type": "function"
        },
        {
            "inputs": [],
            "name": "getOwner",
            "outputs": [
                {
                    "internalType": "uint40",
                    "name": "",
                    "type": "uint40"
                }
            ],
            "stateMutability": "view",
            "type": "function"
        },
        {
            "inputs": [
                {
                    "internalType": "uint256",
                    "name": "seqOfShare",
                    "type": "uint256"
                }
            ],
            "name": "getShare",
            "outputs": [
                {
                    "components": [
                        {
                            "components": [
                                {
                                    "internalType": "uint32",
                                    "name": "seqOfShare",
                                    "type": "uint32"
                                },
                                {
                                    "internalType": "uint32",
                                    "name": "preSeq",
                                    "type": "uint32"
                                },
                                {
                                    "internalType": "uint16",
                                    "name": "class",
                                    "type": "uint16"
                                },
                                {
                                    "internalType": "uint48",
                                    "name": "issueDate",
                                    "type": "uint48"
                                },
                                {
                                    "internalType": "uint40",
                                    "name": "shareholder",
                                    "type": "uint40"
                                },
                                {
                                    "internalType": "uint32",
                                    "name": "priceOfPaid",
                                    "type": "uint32"
                                },
                                {
                                    "internalType": "uint32",
                                    "name": "priceOfPar",
                                    "type": "uint32"
                                },
                                {
                                    "internalType": "uint16",
                                    "name": "para",
                                    "type": "uint16"
                                },
                                {
                                    "internalType": "uint8",
                                    "name": "argu",
                                    "type": "uint8"
                                }
                            ],
                            "internalType": "struct SharesRepo.Head",
                            "name": "head",
                            "type": "tuple"
                        },
                        {
                            "components": [
                                {
                                    "internalType": "uint48",
                                    "name": "payInDeadline",
                                    "type": "uint48"
                                },
                                {
                                    "internalType": "uint64",
                                    "name": "paid",
                                    "type": "uint64"
                                },
                                {
                                    "internalType": "uint64",
                                    "name": "par",
                                    "type": "uint64"
                                },
                                {
                                    "internalType": "uint64",
                                    "name": "cleanPaid",
                                    "type": "uint64"
                                },
                                {
                                    "internalType": "uint8",
                                    "name": "state",
                                    "type": "uint8"
                                },
                                {
                                    "internalType": "uint8",
                                    "name": "para",
                                    "type": "uint8"
                                }
                            ],
                            "internalType": "struct SharesRepo.Body",
                            "name": "body",
                            "type": "tuple"
                        }
                    ],
                    "internalType": "struct SharesRepo.Share",
                    "name": "share",
                    "type": "tuple"
                }
            ],
            "stateMutability": "view",
            "type": "function"
        },
        {
            "inputs": [
                {
                    "internalType": "uint256",
                    "name": "class",
                    "type": "uint256"
                }
            ],
            "name": "getSharesOfClass",
            "outputs": [
                {
                    "internalType": "uint256[]",
                    "name": "seqList",
                    "type": "uint256[]"
                }
            ],
            "stateMutability": "view",
            "type": "function"
        },
        {
            "inputs": [
                {
                    "internalType": "bytes32",
                    "name": "role",
                    "type": "bytes32"
                },
                {
                    "internalType": "uint256",
                    "name": "acct",
                    "type": "uint256"
                }
            ],
            "name": "grantRole",
            "outputs": [],
            "stateMutability": "nonpayable",
            "type": "function"
        },
        {
            "inputs": [
                {
                    "internalType": "bytes32",
                    "name": "role",
                    "type": "bytes32"
                },
                {
                    "internalType": "uint256",
                    "name": "acct",
                    "type": "uint256"
                }
            ],
            "name": "hasRole",
            "outputs": [
                {
                    "internalType": "bool",
                    "name": "",
                    "type": "bool"
                }
            ],
            "stateMutability": "view",
            "type": "function"
        },
        {
            "inputs": [
                {
                    "internalType": "uint256",
                    "name": "seqOfShare",
                    "type": "uint256"
                },
                {
                    "internalType": "uint256",
                    "name": "paid",
                    "type": "uint256"
                }
            ],
            "name": "increaseCleanPaid",
            "outputs": [],
            "stateMutability": "nonpayable",
            "type": "function"
        },
        {
            "inputs": [
                {
                    "internalType": "uint256",
                    "name": "owner",
                    "type": "uint256"
                },
                {
                    "internalType": "address",
                    "name": "directKeeper",
                    "type": "address"
                },
                {
                    "internalType": "address",
                    "name": "regCenter",
                    "type": "address"
                },
                {
                    "internalType": "address",
                    "name": "generalKeeper",
                    "type": "address"
                }
            ],
            "name": "init",
            "outputs": [],
            "stateMutability": "nonpayable",
            "type": "function"
        },
        {
            "inputs": [
                {
                    "internalType": "uint256",
                    "name": "seqOfShare",
                    "type": "uint256"
                }
            ],
            "name": "isShare",
            "outputs": [
                {
                    "internalType": "bool",
                    "name": "",
                    "type": "bool"
                }
            ],
            "stateMutability": "view",
            "type": "function"
        },
        {
            "inputs": [
                {
                    "internalType": "bytes32",
                    "name": "shareNumber",
                    "type": "bytes32"
                },
                {
                    "internalType": "uint256",
                    "name": "payInDeadline",
                    "type": "uint256"
                },
                {
                    "internalType": "uint256",
                    "name": "paid",
                    "type": "uint256"
                },
                {
                    "internalType": "uint256",
                    "name": "par",
                    "type": "uint256"
                }
            ],
            "name": "issueShare",
            "outputs": [],
            "stateMutability": "nonpayable",
            "type": "function"
        },
        {
            "inputs": [],
            "name": "lockContents",
            "outputs": [],
            "stateMutability": "nonpayable",
            "type": "function"
        },
        {
            "inputs": [
                {
                    "components": [
                        {
                            "components": [
                                {
                                    "internalType": "uint32",
                                    "name": "seqOfShare",
                                    "type": "uint32"
                                },
                                {
                                    "internalType": "uint32",
                                    "name": "preSeq",
                                    "type": "uint32"
                                },
                                {
                                    "internalType": "uint16",
                                    "name": "class",
                                    "type": "uint16"
                                },
                                {
                                    "internalType": "uint48",
                                    "name": "issueDate",
                                    "type": "uint48"
                                },
                                {
                                    "internalType": "uint40",
                                    "name": "shareholder",
                                    "type": "uint40"
                                },
                                {
                                    "internalType": "uint32",
                                    "name": "priceOfPaid",
                                    "type": "uint32"
                                },
                                {
                                    "internalType": "uint32",
                                    "name": "priceOfPar",
                                    "type": "uint32"
                                },
                                {
                                    "internalType": "uint16",
                                    "name": "para",
                                    "type": "uint16"
                                },
                                {
                                    "internalType": "uint8",
                                    "name": "argu",
                                    "type": "uint8"
                                }
                            ],
                            "internalType": "struct SharesRepo.Head",
                            "name": "head",
                            "type": "tuple"
                        },
                        {
                            "components": [
                                {
                                    "internalType": "uint48",
                                    "name": "payInDeadline",
                                    "type": "uint48"
                                },
                                {
                                    "internalType": "uint64",
                                    "name": "paid",
                                    "type": "uint64"
                                },
                                {
                                    "internalType": "uint64",
                                    "name": "par",
                                    "type": "uint64"
                                },
                                {
                                    "internalType": "uint64",
                                    "name": "cleanPaid",
                                    "type": "uint64"
                                },
                                {
                                    "internalType": "uint8",
                                    "name": "state",
                                    "type": "uint8"
                                },
                                {
                                    "internalType": "uint8",
                                    "name": "para",
                                    "type": "uint8"
                                }
                            ],
                            "internalType": "struct SharesRepo.Body",
                            "name": "body",
                            "type": "tuple"
                        }
                    ],
                    "internalType": "struct SharesRepo.Share",
                    "name": "share",
                    "type": "tuple"
                }
            ],
            "name": "regShare",
            "outputs": [
                {
                    "components": [
                        {
                            "components": [
                                {
                                    "internalType": "uint32",
                                    "name": "seqOfShare",
                                    "type": "uint32"
                                },
                                {
                                    "internalType": "uint32",
                                    "name": "preSeq",
                                    "type": "uint32"
                                },
                                {
                                    "internalType": "uint16",
                                    "name": "class",
                                    "type": "uint16"
                                },
                                {
                                    "internalType": "uint48",
                                    "name": "issueDate",
                                    "type": "uint48"
                                },
                                {
                                    "internalType": "uint40",
                                    "name": "shareholder",
                                    "type": "uint40"
                                },
                                {
                                    "internalType": "uint32",
                                    "name": "priceOfPaid",
                                    "type": "uint32"
                                },
                                {
                                    "internalType": "uint32",
                                    "name": "priceOfPar",
                                    "type": "uint32"
                                },
                                {
                                    "internalType": "uint16",
                                    "name": "para",
                                    "type": "uint16"
                                },
                                {
                                    "internalType": "uint8",
                                    "name": "argu",
                                    "type": "uint8"
                                }
                            ],
                            "internalType": "struct SharesRepo.Head",
                            "name": "head",
                            "type": "tuple"
                        },
                        {
                            "components": [
                                {
                                    "internalType": "uint48",
                                    "name": "payInDeadline",
                                    "type": "uint48"
                                },
                                {
                                    "internalType": "uint64",
                                    "name": "paid",
                                    "type": "uint64"
                                },
                                {
                                    "internalType": "uint64",
                                    "name": "par",
                                    "type": "uint64"
                                },
                                {
                                    "internalType": "uint64",
                                    "name": "cleanPaid",
                                    "type": "uint64"
                                },
                                {
                                    "internalType": "uint8",
                                    "name": "state",
                                    "type": "uint8"
                                },
                                {
                                    "internalType": "uint8",
                                    "name": "para",
                                    "type": "uint8"
                                }
                            ],
                            "internalType": "struct SharesRepo.Body",
                            "name": "body",
                            "type": "tuple"
                        }
                    ],
                    "internalType": "struct SharesRepo.Share",
                    "name": "newShare",
                    "type": "tuple"
                }
            ],
            "stateMutability": "nonpayable",
            "type": "function"
        },
        {
            "inputs": [
                {
                    "internalType": "address",
                    "name": "target",
                    "type": "address"
                }
            ],
            "name": "removeDirectKeeper",
            "outputs": [],
            "stateMutability": "nonpayable",
            "type": "function"
        },
        {
            "inputs": [
                {
                    "internalType": "bytes32",
                    "name": "role",
                    "type": "bytes32"
                }
            ],
            "name": "renounceRole",
            "outputs": [],
            "stateMutability": "nonpayable",
            "type": "function"
        },
        {
            "inputs": [
                {
                    "internalType": "bytes32",
                    "name": "hashLock",
                    "type": "bytes32"
                },
                {
                    "internalType": "string",
                    "name": "hashKey",
                    "type": "string"
                }
            ],
            "name": "requestPaidInCapital",
            "outputs": [],
            "stateMutability": "nonpayable",
            "type": "function"
        },
        {
            "inputs": [
                {
                    "internalType": "bytes32",
                    "name": "role",
                    "type": "bytes32"
                },
                {
                    "internalType": "uint256",
                    "name": "acct",
                    "type": "uint256"
                }
            ],
            "name": "revokeRole",
            "outputs": [],
            "stateMutability": "nonpayable",
            "type": "function"
        },
        {
            "inputs": [
                {
                    "internalType": "address",
                    "name": "keeper",
                    "type": "address"
                }
            ],
            "name": "setDirectKeeper",
            "outputs": [],
            "stateMutability": "nonpayable",
            "type": "function"
        },
        {
            "inputs": [
                {
                    "internalType": "uint256",
                    "name": "acct",
                    "type": "uint256"
                }
            ],
            "name": "setGeneralCounsel",
            "outputs": [],
            "stateMutability": "nonpayable",
            "type": "function"
        },
        {
            "inputs": [
                {
                    "internalType": "uint256",
                    "name": "acct",
                    "type": "uint256"
                }
            ],
            "name": "setOwner",
            "outputs": [],
            "stateMutability": "nonpayable",
            "type": "function"
        },
        {
            "inputs": [
                {
                    "internalType": "bytes32",
                    "name": "headSn",
                    "type": "bytes32"
                },
                {
                    "internalType": "bytes32",
                    "name": "hashLock",
                    "type": "bytes32"
                }
            ],
            "name": "setPayInAmt",
            "outputs": [],
            "stateMutability": "nonpayable",
            "type": "function"
        },
        {
            "inputs": [
                {
                    "internalType": "bytes32",
                    "name": "role",
                    "type": "bytes32"
                },
                {
                    "internalType": "uint256",
                    "name": "acct",
                    "type": "uint256"
                }
            ],
            "name": "setRoleAdmin",
            "outputs": [],
            "stateMutability": "nonpayable",
            "type": "function"
        },
        {
            "inputs": [
                {
                    "internalType": "uint256",
                    "name": "seqOfShare",
                    "type": "uint256"
                },
                {
                    "internalType": "uint256",
                    "name": "paid",
                    "type": "uint256"
                },
                {
                    "internalType": "uint256",
                    "name": "par",
                    "type": "uint256"
                },
                {
                    "internalType": "uint256",
                    "name": "to",
                    "type": "uint256"
                },
                {
                    "internalType": "uint256",
                    "name": "priceOfPaid",
                    "type": "uint256"
                },
                {
                    "internalType": "uint256",
                    "name": "priceOfPar",
                    "type": "uint256"
                }
            ],
            "name": "transferShare",
            "outputs": [],
            "stateMutability": "nonpayable",
            "type": "function"
        },
        {
            "inputs": [
                {
                    "internalType": "uint256",
                    "name": "seqOfShare",
                    "type": "uint256"
                },
                {
                    "internalType": "uint256",
                    "name": "state",
                    "type": "uint256"
                }
            ],
            "name": "updateStateOfShare",
            "outputs": [],
            "stateMutability": "nonpayable",
            "type": "function"
        },
        {
            "inputs": [
                {
                    "internalType": "bytes32",
                    "name": "hashLock",
                    "type": "bytes32"
                },
                {
                    "internalType": "uint256",
                    "name": "seqOfShare",
                    "type": "uint256"
                }
            ],
            "name": "withdrawPayInAmt",
            "outputs": [],
            "stateMutability": "nonpayable",
            "type": "function"
        }
    ],
    "bytecode": "608060405234801561001057600080fd5b5061480e806100206000396000f3fe608060405234801561001057600080fd5b50600436106102065760003560e01c806360d095df1161011a578063ae47fa54116100ad578063cfb5a5f81161007c578063cfb5a5f814610509578063dc890da914610529578063ea64673f1461053c578063ed2110231461054f578063f045a7691461056f57600080fd5b8063ae47fa54146104bc578063b3f05b97146104cf578063ccdddd41146104e3578063cd78c98a146104f657600080fd5b8063874b5657116100e9578063874b56571461046e578063893d20e8146104815780638bb9c5bf1461048957806392c80eb71461049c57600080fd5b806360d095df146104225780636be8496f146104355780637e063c5a146104485780638041494e1461045b57600080fd5b806336571a791161019d5780634b4b972f1161016c5780634b4b972f146103ae5780635171ebd4146103c1578063544f1ba2146103d457806358ebd89b146103ef5780635d7ad88f1461040f57600080fd5b806336571a79146103585780633da9a6001461036b5780634a0ca0d61461037e5780634a14beb11461039b57600080fd5b80631b6ea9f9116101d95780631b6ea9f9146102795780631d6019181461028c578063256362b1146102ac5780632e82cd0a1461034557600080fd5b806304726d7a1461020b5780630c1d138b14610220578063103f6edd1461024857806319d61ad914610266575b600080fd5b61021e610219366004613b53565b610577565b005b61023361022e366004613bf1565b610863565b60405190151581526020015b60405180910390f35b610250610886565b60405164ffffffffff909116815260200161023f565b61021e610274366004613c0a565b610912565b61021e610287366004613c0a565b6109a7565b61029f61029a366004613bf1565b6109d0565b60405161023f9190613c2c565b6102bf6102ba366004613c0a565b610a66565b604080518251805164ffffffffff9081168352602080830151909116818401528184015165ffffffffffff16838501526060918201516001600160801b0316918301919091529283015180516001600160a01b03166080830152928301516001600160e01b03191660a08201529101516001600160401b031660c082015260e00161023f565b61021e610353366004613c0a565b610b4f565b61021e610366366004613c70565b610c9f565b61021e610379366004613bf1565b611262565b6103866112f0565b60405163ffffffff909116815260200161023f565b61021e6103a9366004613bf1565b611375565b61021e6103bc366004613c0a565b6115d0565b61021e6103cf366004613c0a565b611756565b6103dc61177f565b60405161ffff909116815260200161023f565b6104026103fd366004613bf1565b611804565b60405161023f9190613cfb565b61021e61041d366004613d21565b6118e6565b61021e610430366004613c0a565b611a1b565b61021e610443366004613d21565b611d9e565b610233610456366004613c0a565b611e4d565b61021e610469366004613bf1565b611ee1565b61021e61047c366004613c0a565b611f9a565b6102506120c3565b61021e610497366004613bf1565b6120fe565b6104af6104aa366004613bf1565b612126565b60405161023f9190613df1565b61021e6104ca366004613e00565b612208565b60028054600160f01b900460ff1614610233565b61021e6104f1366004613c0a565b61261a565b61021e610504366004613e43565b61299d565b61051c610517366004613bf1565b612bad565b60405161023f9190613e6f565b61021e610537366004613e9d565b612d12565b61051c61054a366004614027565b612dea565b61055761315b565b6040516001600160a01b03909116815260200161023f565b61021e6131e1565b604051633f5bcbd760e11b815260009073__$47b24d17d5977d1228f91fbbfb2c402609$__90637eb797ae906105b6906007908790879060040161410e565b60806040518083038186803b1580156105ce57600080fd5b505af41580156105e2573d6000803e3d6000fd5b505050506040513d601f19601f82011682018060405250810190610606919061421e565b60608101519091506001600160801b03161561085e57805164ffffffffff166000908152600460205260409020606082015161064c9082906001600160801b0316613434565b600160009054906101000a90046001600160a01b03166001600160a01b031663c9d4f4c66040518163ffffffff1660e01b815260040160206040518083038186803b15801561069a57600080fd5b505afa1580156106ae573d6000803e3d6000fd5b505050506040513d601f19601f820116820180604052508101906106d2919061423a565b815460608401516040516324415e4360e11b8152600160801b90920464ffffffffff1660048301526001600160801b031660248201819052600060448301526064820152600160848201526001600160a01b039190911690634882bc869060a401600060405180830381600087803b15801561074d57600080fd5b505af1158015610761573d6000803e3d6000fd5b50505050600160009054906101000a90046001600160a01b03166001600160a01b031663c9d4f4c66040518163ffffffff1660e01b815260040160206040518083038186803b1580156107b357600080fd5b505afa1580156107c7573d6000803e3d6000fd5b505050506040513d601f19601f820116820180604052508101906107eb919061423a565b6060830151604051631bfc7c8560e11b81526001600160801b039091166004820152600060248201526001600160a01b0391909116906337f8f90a90604401600060405180830381600087803b15801561084457600080fd5b505af1158015610858573d6000803e3d6000fd5b50505050505b505050565b600090815260046020526040902054600160501b900465ffffffffffff16151590565b60405163e8c0cc1d60e01b81526002600482015260009073__$a374c895e6fa8c448878668e00d93ef99a$__9063e8c0cc1d906024015b60206040518083038186803b1580156108d557600080fd5b505af41580156108e9573d6000803e3d6000fd5b505050506040513d601f19601f8201168201806040525081019061090d9190614257565b905090565b73__$a374c895e6fa8c448878668e00d93ef99a$__6382daafaa6002848461093b61c3506134d8565b6040516001600160e01b031960e087901b16815260048101949094526024840192909252604483015264ffffffffff16606482015260840160006040518083038186803b15801561098b57600080fd5b505af415801561099f573d6000803e3d6000fd5b505050505050565b73__$a374c895e6fa8c448878668e00d93ef99a$__636320d75e6002848461093b61c3506134d8565b604051635a2b40f960e01b81526004808201526024810182905260609073__$1216f89a8e7e65c17bbdb90cf043af022a$__90635a2b40f99060440160006040518083038186803b158015610a2457600080fd5b505af4158015610a38573d6000803e3d6000fd5b505050506040513d6000823e601f3d908101601f19168201604052610a609190810190614274565b92915050565b610ab76040805160c0810182526000918101828152606082018390526080820183905260a0820192909252908190815260408051606081018252600080825260208281018290529282015291015290565b6040516366dbf10b60e11b815260076004820152602481018490526044810183905273__$47b24d17d5977d1228f91fbbfb2c402609$__9063cdb7e2169060640160e06040518083038186803b158015610b1057600080fd5b505af4158015610b24573d6000803e3d6000fd5b505050506040513d601f19601f82011682018060405250810190610b489190614319565b9392505050565b604051633b11adbf60e21b81526002600482015233602482015273__$a374c895e6fa8c448878668e00d93ef99a$__9063ec46b6fc9060440160206040518083038186803b158015610ba057600080fd5b505af4158015610bb4573d6000803e3d6000fd5b505050506040513d601f19601f82011682018060405250810190610bd891906143cb565b610bfd5760405162461bcd60e51b8152600401610bf4906143ed565b60405180910390fd5b604051630295bde760e11b815260076004820152602481018390526044810182905273__$47b24d17d5977d1228f91fbbfb2c402609$__9063052b7bce9060640160006040518083038186803b158015610c5657600080fd5b505af4158015610c6a573d6000803e3d6000fd5b50506040518392508491507f68495595d993c8ea4ebb054128849a188960e04be773f2fceab9adda4ba17fca90600090a35050565b604051633b11adbf60e21b81526002600482015233602482015273__$a374c895e6fa8c448878668e00d93ef99a$__9063ec46b6fc9060440160206040518083038186803b158015610cf057600080fd5b505af4158015610d04573d6000803e3d6000fd5b505050506040513d601f19601f82011682018060405250810190610d2891906143cb565b80610da957506001546040516335d2155560e11b81523360048201526001600160a01b0390911690636ba42aaa9060240160206040518083038186803b158015610d7157600080fd5b505afa158015610d85573d6000803e3d6000fd5b505050506040513d601f19601f82011682018060405250810190610da991906143cb565b610dc55760405162461bcd60e51b8152600401610bf490614433565b6040516313dca93760e31b81526004808201526024810185905260448101849052606481018390526084810182905260009073__$1216f89a8e7e65c17bbdb90cf043af022a$__90639ee549b89060a4016101e06040518083038186803b158015610e2f57600080fd5b505af4158015610e43573d6000803e3d6000fd5b505050506040513d601f19601f82011682018060405250810190610e679190614502565b60208101515181516060015191925065ffffffffffff90811691161115610eeb5760405162461bcd60e51b815260206004820152603260248201527f424f532e697373756553686172653a20697373756544617465206c61746572206044820152717468616e20706179496e446561646c696e6560701b6064820152608401610bf4565b600160009054906101000a90046001600160a01b03166001600160a01b031663c9d4f4c66040518163ffffffff1660e01b815260040160206040518083038186803b158015610f3957600080fd5b505afa158015610f4d573d6000803e3d6000fd5b505050506040513d601f19601f82011682018060405250810190610f71919061423a565b815160800151604051631089f5ed60e01b815264ffffffffff90911660048201526001600160a01b039190911690631089f5ed90602401600060405180830381600087803b158015610fc257600080fd5b505af1158015610fd6573d6000803e3d6000fd5b50505050600160009054906101000a90046001600160a01b03166001600160a01b031663c9d4f4c66040518163ffffffff1660e01b815260040160206040518083038186803b15801561102857600080fd5b505afa15801561103c573d6000803e3d6000fd5b505050506040513d601f19601f82011682018060405250810190611060919061423a565b6001600160a01b03166319951c8a826040518263ffffffff1660e01b815260040161108b9190613e6f565b600060405180830381600087803b1580156110a557600080fd5b505af11580156110b9573d6000803e3d6000fd5b50505050600160009054906101000a90046001600160a01b03166001600160a01b031663c9d4f4c66040518163ffffffff1660e01b815260040160206040518083038186803b15801561110b57600080fd5b505afa15801561111f573d6000803e3d6000fd5b505050506040513d601f19601f82011682018060405250810190611143919061423a565b604051631bfc7c8560e11b815260048101859052602481018490526001600160a01b0391909116906337f8f90a90604401600060405180830381600087803b15801561118e57600080fd5b505af11580156111a2573d6000803e3d6000fd5b505082516040516308389abd60e41b815285935086925073__$1216f89a8e7e65c17bbdb90cf043af022a$__91638389abd0916111e29190600401613df1565b60206040518083038186803b1580156111fa57600080fd5b505af415801561120e573d6000803e3d6000fd5b505050506040513d601f19601f8201168201806040525081019061123291906145db565b6040517f19470c51ca433b0316fc7a68e8f489c780d0dfecb9ac9e7e6f18d450cc210d0e90600090a45050505050565b73__$a374c895e6fa8c448878668e00d93ef99a$__63c51b295f60028361128a61c3506134d8565b6040516001600160e01b031960e086901b1681526004810193909352602483019190915264ffffffffff16604482015260640160006040518083038186803b1580156112d557600080fd5b505af41580156112e9573d6000803e3d6000fd5b5050505050565b604051630249007960e01b815260048082015260009073__$1216f89a8e7e65c17bbdb90cf043af022a$__9063024900799060240160206040518083038186803b15801561133d57600080fd5b505af4158015611351573d6000803e3d6000fd5b505050506040513d601f19601f8201168201806040525081019061090d91906145f4565b604051633b11adbf60e21b81526002600482015233602482015273__$a374c895e6fa8c448878668e00d93ef99a$__9063ec46b6fc9060440160206040518083038186803b1580156113c657600080fd5b505af41580156113da573d6000803e3d6000fd5b505050506040513d601f19601f820116820180604052508101906113fe91906143cb565b806114a6575073__$a374c895e6fa8c448878668e00d93ef99a$__63fe271086600261142b6175306134d8565b6040516001600160e01b031960e085901b168152600481019290925264ffffffffff16602482015260440160206040518083038186803b15801561146e57600080fd5b505af4158015611482573d6000803e3d6000fd5b505050506040513d601f19601f820116820180604052508101906114a691906143cb565b6115115760405162461bcd60e51b815260206004820152603660248201527f41432e6f776e65724f72446972656374426f6f6b65657065723a206e6569746860448201527532b91037bbb732b9103737b9103137b7b5b2b2b832b960511b6064820152608401610bf4565b73__$a374c895e6fa8c448878668e00d93ef99a$__6313a187d26002836115396175306134d8565b6040516001600160e01b031960e086901b1681526004810193909352602483019190915264ffffffffff16604482015233606482015260840160006040518083038186803b15801561158a57600080fd5b505af415801561159e573d6000803e3d6000fd5b50506040518392507ff2735f34b69be1e6342dea95f9162f84d0db925fab655ca9f1f312ac8cbfc99d9150600090a250565b604051633b11adbf60e21b81526002600482015233602482015273__$a374c895e6fa8c448878668e00d93ef99a$__9063ec46b6fc9060440160206040518083038186803b15801561162157600080fd5b505af4158015611635573d6000803e3d6000fd5b505050506040513d601f19601f8201168201806040525081019061165991906143cb565b6116755760405162461bcd60e51b8152600401610bf4906143ed565b604051637928ab2f60e01b815260076004820152602481018390526044810182905260009073__$47b24d17d5977d1228f91fbbfb2c402609$__90637928ab2f9060640160806040518083038186803b1580156116d157600080fd5b505af41580156116e5573d6000803e3d6000fd5b505050506040513d601f19601f82011682018060405250810190611709919061421e565b905080606001516001600160801b0316816000015164ffffffffff167f0e4ae5342abd1ff0a6a67781e4b2db1cbbee886c401ccc41ead7615bcf7b3fb260405160405180910390a3505050565b73__$a374c895e6fa8c448878668e00d93ef99a$__63ee98b3136002848461093b61c3506134d8565b6040516385b7e52f60e01b815260048082015260009073__$1216f89a8e7e65c17bbdb90cf043af022a$__906385b7e52f9060240160206040518083038186803b1580156117cc57600080fd5b505af41580156117e0573d6000803e3d6000fd5b505050506040513d601f19601f8201168201806040525081019061090d9190614611565b6040805160c081018252600080825260208201819052918101829052606081018290526080810182905260a08101919091528161184081610863565b61185c5760405162461bcd60e51b8152600401610bf49061462e565b5050600090815260046020908152604091829020825160c08101845260019091015465ffffffffffff811682526001600160401b0366010000000000008204811693830193909352600160701b8104831693820193909352600160b01b8304909116606082015260ff600160f01b830481166080830152600160f81b90920490911660a082015290565b604051633b11adbf60e21b81526002600482015233602482015273__$a374c895e6fa8c448878668e00d93ef99a$__9063ec46b6fc9060440160206040518083038186803b15801561193757600080fd5b505af415801561194b573d6000803e3d6000fd5b505050506040513d601f19601f8201168201806040525081019061196f91906143cb565b61198b5760405162461bcd60e51b8152600401610bf4906143ed565b604051636be8496f60e01b81523360048201526001600160a01b03821690636be8496f90602401600060405180830381600087803b1580156119cc57600080fd5b505af11580156119e0573d6000803e3d6000fd5b50506040516001600160a01b03841692507f64dd6e84044f0067086012335dcfab3188db6615b5cc7debf18c9a621ebd5d919150600090a250565b81611a2581610863565b611a415760405162461bcd60e51b8152600401610bf49061462e565b6000838152600460205260409020600101548390600160f01b900460ff1615611a7c5760405162461bcd60e51b8152600401610bf490614665565b600160009054906101000a90046001600160a01b03166001600160a01b03166320fbea4e6040518163ffffffff1660e01b815260040160206040518083038186803b158015611aca57600080fd5b505afa158015611ade573d6000803e3d6000fd5b505050506040513d601f19601f82011682018060405250810190611b02919061423a565b6001600160a01b0316336001600160a01b03161480611b9757506001546040516335d2155560e11b81523360048201526001600160a01b0390911690636ba42aaa9060240160206040518083038186803b158015611b5f57600080fd5b505afa158015611b73573d6000803e3d6000fd5b505050506040513d601f19601f82011682018060405250810190611b9791906143cb565b611be35760405162461bcd60e51b815260206004820152601f60248201527f424f532e4443503a206e656974686572206b6565706572206e6f7220424f50006044820152606401610bf4565b60008481526004602081905260409182902091516365f7b03760e01b81529081018290526024810185905273__$1216f89a8e7e65c17bbdb90cf043af022a$__906365f7b0379060440160006040518083038186803b158015611c4557600080fd5b505af4158015611c59573d6000803e3d6000fd5b50505050600160009054906101000a90046001600160a01b03166001600160a01b031663c9d4f4c66040518163ffffffff1660e01b815260040160206040518083038186803b158015611cab57600080fd5b505afa158015611cbf573d6000803e3d6000fd5b505050506040513d601f19601f82011682018060405250810190611ce3919061423a565b81546040516324415e4360e11b8152600160801b90910464ffffffffff166004820152600060248201819052604482018190526064820187905260848201526001600160a01b039190911690634882bc869060a401600060405180830381600087803b158015611d5257600080fd5b505af1158015611d66573d6000803e3d6000fd5b50506040518692508791507f955b9b3501784e6481781c57adfad04303072a675290ab00fd286dd6aa2fb58d90600090a35050505050565b604051630f07232560e01b8152600260048201526001600160a01b038216602482015233604482015273__$a374c895e6fa8c448878668e00d93ef99a$__90630f0723259060640160006040518083038186803b158015611dfe57600080fd5b505af4158015611e12573d6000803e3d6000fd5b50506040516001600160a01b03841692507fe435cbeab64e4eae6497b9d8289704bd709d624a80704ef3ca9af777534bc6ec9150600090a250565b604051632a3be56b60e21b815260026004820152602481018390526044810182905260009073__$a374c895e6fa8c448878668e00d93ef99a$__9063a8ef95ac9060640160206040518083038186803b158015611ea957600080fd5b505af4158015611ebd573d6000803e3d6000fd5b505050506040513d601f19601f82011682018060405250810190610b4891906143cb565b73__$a374c895e6fa8c448878668e00d93ef99a$__639b48160c600283611f096175306134d8565b6040516001600160e01b031960e086901b1681526004810193909352602483019190915264ffffffffff16604482015260640160006040518083038186803b158015611f5457600080fd5b505af4158015611f68573d6000803e3d6000fd5b50506040518392507f8b6f40f36b4ae8cc5f55e895036457c43da4ab1f80f58c46f5ff0d72a650033b9150600090a250565b604051633b11adbf60e21b81526002600482015233602482015273__$a374c895e6fa8c448878668e00d93ef99a$__9063ec46b6fc9060440160206040518083038186803b158015611feb57600080fd5b505af4158015611fff573d6000803e3d6000fd5b505050506040513d601f19601f8201168201806040525081019061202391906143cb565b61203f5760405162461bcd60e51b8152600401610bf4906143ed565b8161204981610863565b6120655760405162461bcd60e51b8152600401610bf49061462e565b604051829084907f9a7cb8f35be5d20be4eed3815250ff53e03df99a3592248fbaf4ef2adbb3643890600090a350600091825260046020526040909120600101805460ff909216600160f01b0260ff60f01b19909216919091179055565b60405163987ad15360e01b81526002600482015260009073__$a374c895e6fa8c448878668e00d93ef99a$__9063987ad153906024016108bd565b73__$a374c895e6fa8c448878668e00d93ef99a$__63cc0d511b60028361128a61c3506134d8565b61212e613a09565b8161213881610863565b6121545760405162461bcd60e51b8152600401610bf49061462e565b5050600090815260046020908152604091829020825161012081018452905463ffffffff8082168352640100000000820481169383019390935261ffff600160401b820481169483019490945265ffffffffffff600160501b820416606083015264ffffffffff600160801b8204166080830152600160a81b8104831660a0830152600160c81b810490921660c0820152600160e81b820490921660e083015260ff600160f81b9091041661010082015290565b604051633b11adbf60e21b81526002600482015233602482015273__$a374c895e6fa8c448878668e00d93ef99a$__9063ec46b6fc9060440160206040518083038186803b15801561225957600080fd5b505af415801561226d573d6000803e3d6000fd5b505050506040513d601f19601f8201168201806040525081019061229191906143cb565b8061231257506001546040516335d2155560e11b81523360048201526001600160a01b0390911690636ba42aaa9060240160206040518083038186803b1580156122da57600080fd5b505afa1580156122ee573d6000803e3d6000fd5b505050506040513d601f19601f8201168201806040525081019061231291906143cb565b61232e5760405162461bcd60e51b8152600401610bf490614433565b8561233881610863565b6123545760405162461bcd60e51b8152600401610bf49061462e565b6000878152600460205260409020600101548790600160f01b900460ff161561238f5760405162461bcd60e51b8152600401610bf490614665565b6000888152600460205260409020856123ea5760405162461bcd60e51b815260206004820152601b60248201527f424f532e54533a207368617265686f6c646572206973205a45524f00000000006044820152606401610bf4565b6123f58189896135ba565b600160009054906101000a90046001600160a01b03166001600160a01b031663c9d4f4c66040518163ffffffff1660e01b815260040160206040518083038186803b15801561244357600080fd5b505afa158015612457573d6000803e3d6000fd5b505050506040513d601f19601f8201168201806040525081019061247b919061423a565b6001600160a01b0316631089f5ed876040518263ffffffff1660e01b81526004016124a891815260200190565b600060405180830381600087803b1580156124c257600080fd5b505af11580156124d6573d6000803e3d6000fd5b505050506124e2613a55565b604051806101200160405280600063ffffffff1681526020018360000160000160009054906101000a900463ffffffff1663ffffffff1681526020018360000160000160089054906101000a900461ffff1661ffff1681526020014265ffffffffffff1681526020018864ffffffffff1681526020018763ffffffff1681526020018663ffffffff168152602001600061ffff168152602001600060ff1681525081600001819052506040518060c001604052808360010160000160009054906101000a900465ffffffffffff1665ffffffffffff1681526020018a6001600160401b03168152602001896001600160401b031681526020018a6001600160401b03168152602001600060ff168152602001600060ff16815250816020018190525061260d81612dea565b5050505050505050505050565b8161262481610863565b6126405760405162461bcd60e51b8152600401610bf49061462e565b6000838152600460205260409020600101548390600160f01b900460ff161561267b5760405162461bcd60e51b8152600401610bf490614665565b600160009054906101000a90046001600160a01b03166001600160a01b03166320fbea4e6040518163ffffffff1660e01b815260040160206040518083038186803b1580156126c957600080fd5b505afa1580156126dd573d6000803e3d6000fd5b505050506040513d601f19601f82011682018060405250810190612701919061423a565b6001600160a01b0316336001600160a01b0316148061279657506001546040516335d2155560e11b81523360048201526001600160a01b0390911690636ba42aaa9060240160206040518083038186803b15801561275e57600080fd5b505afa158015612772573d6000803e3d6000fd5b505050506040513d601f19601f8201168201806040525081019061279691906143cb565b6127e25760405162461bcd60e51b815260206004820152601f60248201527f424f532e4443413a206e656974686572206b6565706572206e6f7220424f50006044820152606401610bf4565b600084815260046020819052604091829020915163342482e160e11b81529081018290526024810185905273__$1216f89a8e7e65c17bbdb90cf043af022a$__9063684905c29060440160006040518083038186803b15801561284457600080fd5b505af4158015612858573d6000803e3d6000fd5b50505050600160009054906101000a90046001600160a01b03166001600160a01b031663c9d4f4c66040518163ffffffff1660e01b815260040160206040518083038186803b1580156128aa57600080fd5b505afa1580156128be573d6000803e3d6000fd5b505050506040513d601f19601f820116820180604052508101906128e2919061423a565b81546040516324415e4360e11b8152600160801b90910464ffffffffff166004820152600060248201819052604482015260648101869052600160848201526001600160a01b039190911690634882bc869060a401600060405180830381600087803b15801561295157600080fd5b505af1158015612965573d6000803e3d6000fd5b50506040518692508791507f5c4f63eb2634eff57def5d49e434310036d5945885a7a3c862db4569c917c39690600090a35050505050565b604051633b11adbf60e21b81526002600482015233602482015273__$a374c895e6fa8c448878668e00d93ef99a$__9063ec46b6fc9060440160206040518083038186803b1580156129ee57600080fd5b505af4158015612a02573d6000803e3d6000fd5b505050506040513d601f19601f82011682018060405250810190612a2691906143cb565b612a425760405162461bcd60e51b8152600401610bf4906143ed565b82612a4c81610863565b612a685760405162461bcd60e51b8152600401610bf49061462e565b6000848152600460205260409020600101548490600160f01b900460ff1615612aa35760405162461bcd60e51b8152600401610bf490614665565b6000858152600460205260409020612abc8186866135ba565b600160009054906101000a90046001600160a01b03166001600160a01b031663c9d4f4c66040518163ffffffff1660e01b815260040160206040518083038186803b158015612b0a57600080fd5b505afa158015612b1e573d6000803e3d6000fd5b505050506040513d601f19601f82011682018060405250810190612b42919061423a565b6040516305552ed760e11b815260048101879052602481018690526001600160a01b039190911690630aaa5dae90604401600060405180830381600087803b158015612b8d57600080fd5b505af1158015612ba1573d6000803e3d6000fd5b50505050505050505050565b612bb5613a55565b81612bbf81610863565b612bdb5760405162461bcd60e51b8152600401610bf49061462e565b5050600090815260046020908152604091829020825161016081018452815463ffffffff8082168387019081526401000000008304821660608086019190915261ffff600160401b8504811660808088019190915265ffffffffffff600160501b8704811660a0808a019190915264ffffffffff600160801b89041660c0808b0191909152600160a81b8904881660e08b0152600160c81b89049097166101008a0152600160e81b880490931661012089015260ff600160f81b9788900481166101408a01529488528a519586018b5260019098015497881685526001600160401b03660100000000000089048116868b0152600160701b890481169a86019a909a52600160b01b880490991691840191909152600160f01b86048216978301979097529190930416938201939093529082015290565b604051636cdd0edf60e11b815260026004820152602481018590526001600160a01b038416604482015273__$a374c895e6fa8c448878668e00d93ef99a$__9063d9ba1dbe9060640160006040518083038186803b158015612d7357600080fd5b505af4158015612d87573d6000803e3d6000fd5b50505050612d948261386d565b612d9d816138e0565b6040516001600160a01b038381168252808316919085169086907f3abb2418c66fe32ba9c883030a75ce583971d9af9192b9b74e44e67c5e6c8c1f9060200160405180910390a450505050565b612df2613a55565b604051633b11adbf60e21b81526002600482015233602482015273__$a374c895e6fa8c448878668e00d93ef99a$__9063ec46b6fc9060440160206040518083038186803b158015612e4357600080fd5b505af4158015612e57573d6000803e3d6000fd5b505050506040513d601f19601f82011682018060405250810190612e7b91906143cb565b80612efc57506001546040516335d2155560e11b81523360048201526001600160a01b0390911690636ba42aaa9060240160206040518083038186803b158015612ec457600080fd5b505afa158015612ed8573d6000803e3d6000fd5b505050506040513d601f19601f82011682018060405250810190612efc91906143cb565b612f185760405162461bcd60e51b8152600401610bf490614433565b604051634582ac0d60e01b815273__$1216f89a8e7e65c17bbdb90cf043af022a$__90634582ac0d90612f51906004908690820161469c565b6101e06040518083038186803b158015612f6a57600080fd5b505af4158015612f7e573d6000803e3d6000fd5b505050506040513d601f19601f82011682018060405250810190612fa29190614502565b9050600160009054906101000a90046001600160a01b03166001600160a01b031663c9d4f4c66040518163ffffffff1660e01b815260040160206040518083038186803b158015612ff257600080fd5b505afa158015613006573d6000803e3d6000fd5b505050506040513d601f19601f8201168201806040525081019061302a919061423a565b6001600160a01b03166319951c8a826040518263ffffffff1660e01b81526004016130559190613e6f565b600060405180830381600087803b15801561306f57600080fd5b505af1158015613083573d6000803e3d6000fd5b5050506020808301516040808201519190920151845192516308389abd60e41b81526001600160401b03928316945091169173__$1216f89a8e7e65c17bbdb90cf043af022a$__91638389abd0916130dd91600401613df1565b60206040518083038186803b1580156130f557600080fd5b505af4158015613109573d6000803e3d6000fd5b505050506040513d601f19601f8201168201806040525081019061312d91906145db565b6040517f19470c51ca433b0316fc7a68e8f489c780d0dfecb9ac9e7e6f18d450cc210d0e90600090a4919050565b604051633c3e56c160e11b81526002600482015260009073__$a374c895e6fa8c448878668e00d93ef99a$__9063787cad829060240160206040518083038186803b1580156131a957600080fd5b505af41580156131bd573d6000803e3d6000fd5b505050506040513d601f19601f8201168201806040525081019061090d919061423a565b600254600160f01b900460ff1660011461323d5760405162461bcd60e51b815260206004820152601760248201527f41432e4c433a20446f632069732066696e616c697a65640000000000000000006044820152606401610bf4565b73__$a374c895e6fa8c448878668e00d93ef99a$__63c51b295f6002684174746f726e65797360b81b61327161c3506134d8565b6040516001600160e01b031960e086901b1681526004810193909352602483019190915264ffffffffff16604482015260640160006040518083038186803b1580156132bc57600080fd5b505af41580156132d0573d6000803e3d6000fd5b50505050600273__$a374c895e6fa8c448878668e00d93ef99a$__6313a187d2909160006132ff6175306134d8565b6040516001600160e01b031960e086901b1681526004810193909352602483019190915264ffffffffff16604482015233606482015260840160006040518083038186803b15801561335057600080fd5b505af4158015613364573d6000803e3d6000fd5b50505050600273__$a374c895e6fa8c448878668e00d93ef99a$__639b48160c909160006133936175306134d8565b6040516001600160e01b031960e086901b1681526004810193909352602483019190915264ffffffffff16604482015260640160006040518083038186803b1580156133de57600080fd5b505af41580156133f2573d6000803e3d6000fd5b50506002805460ff60f01b1916600160f11b17905550506040517f35012b512309c322acf68632cd6cb702ff0e1d776fbe9394e38ffc13b434fe7590600090a1565b60405163625b803f60e01b8152600481018390526024810182905273__$1216f89a8e7e65c17bbdb90cf043af022a$__9063625b803f9060440160006040518083038186803b15801561348657600080fd5b505af415801561349a573d6000803e3d6000fd5b5050835460405184935063ffffffff90911691507f57e9aa735f3643050a70c432302f101b9888619f48a9e768d482f9237a2720a590600090a35050565b6000805460405163f3dcf3db60e01b81523360048201526024810184905282916001600160a01b03169063f3dcf3db90604401602060405180830381600087803b15801561352557600080fd5b505af1158015613539573d6000803e3d6000fd5b505050506040513d601f19601f8201168201806040525081019061355d9190614257565b905064ffffffffff8116156135725792915050565b60405162461bcd60e51b815260206004820152601e60248201527f5243532e5f6d736753656e6465723a206e6f74207265676973746572656400006044820152606401610bf4565b6001830154600160701b90046001600160401b031681141561375057600160009054906101000a90046001600160a01b03166001600160a01b031663c9d4f4c66040518163ffffffff1660e01b815260040160206040518083038186803b15801561362457600080fd5b505afa158015613638573d6000803e3d6000fd5b505050506040513d601f19601f8201168201806040525081019061365c919061423a565b6001600160a01b03166331846b71846040518263ffffffff1660e01b815260040161368791906146d1565b600060405180830381600087803b1580156136a157600080fd5b505af11580156136b5573d6000803e3d6000fd5b50508454604051631b7a23db60e21b815260048082015263ffffffff909116602482015273__$1216f89a8e7e65c17bbdb90cf043af022a$__9250636de88f6c915060440160206040518083038186803b15801561371257600080fd5b505af4158015613726573d6000803e3d6000fd5b505050506040513d601f19601f8201168201806040525081019061374a91906143cb565b50505050565b61375b83838361395b565b600160009054906101000a90046001600160a01b03166001600160a01b031663c9d4f4c66040518163ffffffff1660e01b815260040160206040518083038186803b1580156137a957600080fd5b505afa1580156137bd573d6000803e3d6000fd5b505050506040513d601f19601f820116820180604052508101906137e1919061423a565b83546040516324415e4360e11b8152600160801b90910464ffffffffff166004820152602481018490526044810183905260648101849052600060848201526001600160a01b039190911690634882bc869060a401600060405180830381600087803b15801561385057600080fd5b505af1158015613864573d6000803e3d6000fd5b50505050505050565b6000546001600160a01b0316156138be5760405162461bcd60e51b815260206004820152601560248201527430b63932b0b23c9039b2ba103932b3a1b2b73a32b960591b6044820152606401610bf4565b600080546001600160a01b0319166001600160a01b0392909216919091179055565b6001546001600160a01b0316156139395760405162461bcd60e51b815260206004820152601960248201527f616c7265616479207365742067656e6572616c4b6565706572000000000000006044820152606401610bf4565b600180546001600160a01b0319166001600160a01b0392909216919091179055565b6040516359a5250960e01b815260048101849052602481018390526044810182905273__$1216f89a8e7e65c17bbdb90cf043af022a$__906359a525099060640160006040518083038186803b1580156139b457600080fd5b505af41580156139c8573d6000803e3d6000fd5b5050845460405184935085925063ffffffff909116907f0476aa40cc4df015c2f3118ec8dae2be71258851b1ebb240ae6cbe75bc30819890600090a4505050565b6040805161012081018252600080825260208201819052918101829052606081018290526080810182905260a0810182905260c0810182905260e0810182905261010081019190915290565b6040518060400160405280613a68613a09565b81526040805160c08101825260008082526020828101829052928201819052606082018190526080820181905260a082015291015290565b634e487b7160e01b600052604160045260246000fd5b60405160c081016001600160401b0381118282101715613ad857613ad8613aa0565b60405290565b604080519081016001600160401b0381118282101715613ad857613ad8613aa0565b60405161012081016001600160401b0381118282101715613ad857613ad8613aa0565b604051601f8201601f191681016001600160401b0381118282101715613b4b57613b4b613aa0565b604052919050565b60008060408385031215613b6657600080fd5b823591506020808401356001600160401b0380821115613b8557600080fd5b818601915086601f830112613b9957600080fd5b813581811115613bab57613bab613aa0565b613bbd601f8201601f19168501613b23565b91508082528784828501011115613bd357600080fd5b80848401858401376000848284010152508093505050509250929050565b600060208284031215613c0357600080fd5b5035919050565b60008060408385031215613c1d57600080fd5b50508035926020909101359150565b6020808252825182820181905260009190848201906040850190845b81811015613c6457835183529284019291840191600101613c48565b50909695505050505050565b60008060008060808587031215613c8657600080fd5b5050823594602084013594506040840135936060013592509050565b65ffffffffffff815116825260208101516001600160401b038082166020850152806040840151166040850152806060840151166060850152505060ff608082015116608083015260ff60a08201511660a08301525050565b60c08101610a608284613ca2565b6001600160a01b0381168114613d1e57600080fd5b50565b600060208284031215613d3357600080fd5b8135610b4881613d09565b63ffffffff8082511683528060208301511660208401525061ffff60408201511660408301526060810151613d7d606084018265ffffffffffff169052565b506080810151613d96608084018264ffffffffff169052565b5060a0810151613dae60a084018263ffffffff169052565b5060c0810151613dc660c084018263ffffffff169052565b5060e0810151613ddc60e084018261ffff169052565b506101008181015160ff81168483015261374a565b6101208101610a608284613d3e565b60008060008060008060c08789031215613e1957600080fd5b505084359660208601359650604086013595606081013595506080810135945060a0013592509050565b600080600060608486031215613e5857600080fd5b505081359360208301359350604090920135919050565b60006101e082019050613e83828451613d3e565b6020830151613e96610120840182613ca2565b5092915050565b60008060008060808587031215613eb357600080fd5b843593506020850135613ec581613d09565b92506040850135613ed581613d09565b91506060850135613ee581613d09565b939692955090935050565b63ffffffff81168114613d1e57600080fd5b8035613f0d81613ef0565b919050565b61ffff81168114613d1e57600080fd5b8035613f0d81613f12565b65ffffffffffff81168114613d1e57600080fd5b8035613f0d81613f2d565b64ffffffffff81168114613d1e57600080fd5b8035613f0d81613f4c565b60ff81168114613d1e57600080fd5b8035613f0d81613f6a565b6001600160401b0381168114613d1e57600080fd5b600060c08284031215613fab57600080fd5b613fb3613ab6565b90508135613fc081613f2d565b81526020820135613fd081613f84565b60208201526040820135613fe381613f84565b60408201526060820135613ff681613f84565b6060820152608082013561400981613f6a565b608082015260a082013561401c81613f6a565b60a082015292915050565b60008183036101e081121561403b57600080fd5b614043613ade565b6101208083121561405357600080fd5b61405b613b00565b925061406685613f02565b835261407460208601613f02565b602084015261408560408601613f22565b604084015261409660608601613f41565b60608401526140a760808601613f5f565b60808401526140b860a08601613f02565b60a08401526140c960c08601613f02565b60c08401526140da60e08601613f22565b60e08401526101006140ed818701613f79565b9084015282825261410086868301613f99565b602083015250949350505050565b83815260006020848184015260606040840152835180606085015260005b818110156141485785810183015185820160800152820161412c565b8181111561415a576000608083870101525b50601f01601f19169290920160800195945050505050565b8051613f0d81613f4c565b8051613f0d81613f2d565b60006080828403121561419a57600080fd5b604051608081018181106001600160401b03821117156141bc576141bc613aa0565b806040525080915082516141cf81613f4c565b815260208301516141df81613f4c565b602082015260408301516141f281613f2d565b604082015260608301516001600160801b038116811461421157600080fd5b6060919091015292915050565b60006080828403121561423057600080fd5b610b488383614188565b60006020828403121561424c57600080fd5b8151610b4881613d09565b60006020828403121561426957600080fd5b8151610b4881613f4c565b6000602080838503121561428757600080fd5b82516001600160401b038082111561429e57600080fd5b818501915085601f8301126142b257600080fd5b8151818111156142c4576142c4613aa0565b8060051b91506142d5848301613b23565b81815291830184019184810190888411156142ef57600080fd5b938501935b8385101561430d578451825293850193908501906142f4565b98975050505050505050565b600081830360e081121561432c57600080fd5b614334613ade565b61433e8585614188565b81526060607f198301121561435257600080fd5b6040519150606082018281106001600160401b038211171561437657614376613aa0565b604052608084015161438781613d09565b825260a08401516001600160e01b0319811681146143a457600080fd5b602083015260c08401516143b781613f84565b604083015260208101919091529392505050565b6000602082840312156143dd57600080fd5b81518015158114610b4857600080fd5b60208082526026908201527f41432e6f6e6c794469726563744b65657065723a206e6f74206469726563742060408201526535b2b2b832b960d11b606082015260800190565b60208082526011908201527020a19737b59d103737ba1025b2b2b832b960791b604082015260600190565b8051613f0d81613ef0565b8051613f0d81613f12565b8051613f0d81613f6a565b600060c0828403121561449157600080fd5b614499613ab6565b905081516144a681613f2d565b815260208201516144b681613f84565b602082015260408201516144c981613f84565b604082015260608201516144dc81613f84565b606082015260808201516144ef81613f6a565b608082015260a082015161401c81613f6a565b60008183036101e081121561451657600080fd5b61451e613ade565b6101208083121561452e57600080fd5b614536613b00565b92506145418561445e565b835261454f6020860161445e565b602084015261456060408601614469565b60408401526145716060860161417d565b606084015261458260808601614172565b608084015261459360a0860161445e565b60a08401526145a460c0860161445e565b60c08401526145b560e08601614469565b60e08401526101006145c8818701614474565b908401528282526141008686830161447f565b6000602082840312156145ed57600080fd5b5051919050565b60006020828403121561460657600080fd5b8151610b4881613ef0565b60006020828403121561462357600080fd5b8151610b4881613f12565b6020808252601f908201527f424f532e6d662e53453a207365714f665368617265204e4f5420657869737400604082015260600190565b6020808252601b908201527f424f532e6d662e4e463a20736861726520697320667265657a65640000000000604082015260600190565b6000610200820190508382526146b6602083018451613d3e565b60208301516146c9610140840182613ca2565b509392505050565b815463ffffffff8082168352602082811c8216908401526101e08301919061ffff61470760408601828560401c1661ffff169052565b605083901c65ffffffffffff166060860152608083811c64ffffffffff169086015261474060a08601838560a81c1663ffffffff169052565b61475760c08601838560c81c1663ffffffff169052565b61476c60e08601828560e81c1661ffff169052565b505060f881901c61010084015250600183015465ffffffffffff81166101208401526001600160401b03603082901c8116610140850152607082901c811661016085015260b082901c1661018084015260ff60f082901c166101a084015260f81c6101c0830152610a6056fea26469706673582212203567c12543859f0d54eb46ff3c460165e8c300a29c0f96e54d0060d471b342b864736f6c63430008080033",
    "sourcePath": "/Users/kaptain/github.com/comboox/comboox/contracts/books/bos/BookOfShares.sol",
    "compiler": {
        "name": "solc",
        "version": "0.8.8+commit.dddeac2f"
    },
    "functionHashes": {
        "abandonRole(bytes32)": "3da9a600",
        "counterOfClasses()": "544f1ba2",
        "counterOfShares()": "4a0ca0d6",
        "decreaseCapital(uint256,uint256,uint256)": "cd78c98a",
        "decreaseCleanPaid(uint256,uint256)": "60d095df",
        "finalized()": "b3f05b97",
        "getBodyOfShare(uint256)": "58ebd89b",
        "getBookeeper()": "ed211023",
        "getGeneralCounsel()": "103f6edd",
        "getHeadOfShare(uint256)": "92c80eb7",
        "getLocker(bytes32,uint256)": "256362b1",
        "getOwner()": "893d20e8",
        "getShare(uint256)": "cfb5a5f8",
        "getSharesOfClass(uint256)": "1d601918",
        "grantRole(bytes32,uint256)": "1b6ea9f9",
        "hasRole(bytes32,uint256)": "7e063c5a",
        "increaseCleanPaid(uint256,uint256)": "ccdddd41",
        "init(uint256,address,address,address)": "dc890da9",
        "isShare(uint256)": "0c1d138b",
        "issueShare(bytes32,uint256,uint256,uint256)": "36571a79",
        "lockContents()": "f045a769",
        "regShare(((uint32,uint32,uint16,uint48,uint40,uint32,uint32,uint16,uint8),(uint48,uint64,uint64,uint64,uint8,uint8)))": "ea64673f",
        "removeDirectKeeper(address)": "5d7ad88f",
        "renounceRole(bytes32)": "8bb9c5bf",
        "requestPaidInCapital(bytes32,string)": "04726d7a",
        "revokeRole(bytes32,uint256)": "19d61ad9",
        "setDirectKeeper(address)": "6be8496f",
        "setGeneralCounsel(uint256)": "4a14beb1",
        "setOwner(uint256)": "8041494e",
        "setPayInAmt(bytes32,bytes32)": "2e82cd0a",
        "setRoleAdmin(bytes32,uint256)": "5171ebd4",
        "transferShare(uint256,uint256,uint256,uint256,uint256,uint256)": "ae47fa54",
        "updateStateOfShare(uint256,uint256)": "874b5657",
        "withdrawPayInAmt(bytes32,uint256)": "4b4b972f"
    },
    "gasEstimates": {
        "creation": {
            "codeDepositCost": "3689200",
            "executionCost": "4163",
            "totalCost": "3693363"
        },
        "external": {
            "abandonRole(bytes32)": "infinite",
            "counterOfClasses()": "infinite",
            "counterOfShares()": "infinite",
            "decreaseCapital(uint256,uint256,uint256)": "infinite",
            "decreaseCleanPaid(uint256,uint256)": "infinite",
            "finalized()": "2383",
            "getBodyOfShare(uint256)": "5510",
            "getBookeeper()": "infinite",
            "getGeneralCounsel()": "infinite",
            "getHeadOfShare(uint256)": "5898",
            "getLocker(bytes32,uint256)": "infinite",
            "getOwner()": "infinite",
            "getShare(uint256)": "8782",
            "getSharesOfClass(uint256)": "infinite",
            "grantRole(bytes32,uint256)": "infinite",
            "hasRole(bytes32,uint256)": "infinite",
            "increaseCleanPaid(uint256,uint256)": "infinite",
            "init(uint256,address,address,address)": "infinite",
            "isShare(uint256)": "2543",
            "issueShare(bytes32,uint256,uint256,uint256)": "infinite",
            "lockContents()": "infinite",
            "regShare(((uint32,uint32,uint16,uint48,uint40,uint32,uint32,uint16,uint8),(uint48,uint64,uint64,uint64,uint8,uint8)))": "infinite",
            "removeDirectKeeper(address)": "infinite",
            "renounceRole(bytes32)": "infinite",
            "requestPaidInCapital(bytes32,string)": "infinite",
            "revokeRole(bytes32,uint256)": "infinite",
            "setDirectKeeper(address)": "infinite",
            "setGeneralCounsel(uint256)": "infinite",
            "setOwner(uint256)": "infinite",
            "setPayInAmt(bytes32,bytes32)": "infinite",
            "setRoleAdmin(bytes32,uint256)": "infinite",
            "transferShare(uint256,uint256,uint256,uint256,uint256,uint256)": "infinite",
            "updateStateOfShare(uint256,uint256)": "infinite",
            "withdrawPayInAmt(bytes32,uint256)": "infinite"
        },
        "internal": {
            "_decreaseShareAmt(struct SharesRepo.Share storage pointer,uint256,uint256)": "infinite",
            "_deregisterShare(uint256)": "infinite",
            "_payInCapital(struct SharesRepo.Share storage pointer,uint256)": "infinite",
            "_subAmtFromShare(struct SharesRepo.Share storage pointer,uint256,uint256)": "infinite"
        }
    }
}