{
    "contractName": "BookOfShares",
    "abi": [
        {
            "anonymous": false,
            "inputs": [
                {
                    "indexed": true,
                    "internalType": "bytes32",
                    "name": "shareNumber",
                    "type": "bytes32"
                },
                {
                    "indexed": false,
                    "internalType": "uint64",
                    "name": "paid",
                    "type": "uint64"
                }
            ],
            "name": "DecreaseCleanPar",
            "type": "event"
        },
        {
            "anonymous": false,
            "inputs": [
                {
                    "indexed": true,
                    "internalType": "bytes32",
                    "name": "shareNumber",
                    "type": "bytes32"
                }
            ],
            "name": "DeregisterShare",
            "type": "event"
        },
        {
            "anonymous": false,
            "inputs": [
                {
                    "indexed": true,
                    "internalType": "bytes32",
                    "name": "shareNumber",
                    "type": "bytes32"
                },
                {
                    "indexed": false,
                    "internalType": "uint64",
                    "name": "paid",
                    "type": "uint64"
                }
            ],
            "name": "IncreaseCleanPar",
            "type": "event"
        },
        {
            "anonymous": false,
            "inputs": [
                {
                    "indexed": false,
                    "internalType": "uint40",
                    "name": "owner",
                    "type": "uint40"
                },
                {
                    "indexed": false,
                    "internalType": "address",
                    "name": "directKeeper",
                    "type": "address"
                },
                {
                    "indexed": false,
                    "internalType": "address",
                    "name": "regCenter",
                    "type": "address"
                },
                {
                    "indexed": false,
                    "internalType": "address",
                    "name": "generalKeeper",
                    "type": "address"
                }
            ],
            "name": "Init",
            "type": "event"
        },
        {
            "anonymous": false,
            "inputs": [
                {
                    "indexed": true,
                    "internalType": "bytes32",
                    "name": "shareNumber",
                    "type": "bytes32"
                },
                {
                    "indexed": false,
                    "internalType": "uint64",
                    "name": "paid",
                    "type": "uint64"
                },
                {
                    "indexed": false,
                    "internalType": "uint64",
                    "name": "par",
                    "type": "uint64"
                },
                {
                    "indexed": false,
                    "internalType": "uint48",
                    "name": "paidInDeadline",
                    "type": "uint48"
                }
            ],
            "name": "IssueShare",
            "type": "event"
        },
        {
            "anonymous": false,
            "inputs": [],
            "name": "LockContents",
            "type": "event"
        },
        {
            "anonymous": false,
            "inputs": [
                {
                    "indexed": true,
                    "internalType": "bytes32",
                    "name": "shareNumber",
                    "type": "bytes32"
                },
                {
                    "indexed": false,
                    "internalType": "uint64",
                    "name": "amount",
                    "type": "uint64"
                },
                {
                    "indexed": false,
                    "internalType": "uint48",
                    "name": "paidInDate",
                    "type": "uint48"
                }
            ],
            "name": "PayInCapital",
            "type": "event"
        },
        {
            "anonymous": false,
            "inputs": [
                {
                    "indexed": false,
                    "internalType": "address",
                    "name": "keeper",
                    "type": "address"
                }
            ],
            "name": "SetDirectKeeper",
            "type": "event"
        },
        {
            "anonymous": false,
            "inputs": [
                {
                    "indexed": false,
                    "internalType": "uint256",
                    "name": "acct",
                    "type": "uint256"
                }
            ],
            "name": "SetGeneralCounsel",
            "type": "event"
        },
        {
            "anonymous": false,
            "inputs": [
                {
                    "indexed": false,
                    "internalType": "address",
                    "name": "gk",
                    "type": "address"
                }
            ],
            "name": "SetGeneralKeeper",
            "type": "event"
        },
        {
            "anonymous": false,
            "inputs": [
                {
                    "indexed": false,
                    "internalType": "uint256",
                    "name": "acct",
                    "type": "uint256"
                }
            ],
            "name": "SetOwner",
            "type": "event"
        },
        {
            "anonymous": false,
            "inputs": [
                {
                    "indexed": true,
                    "internalType": "bytes32",
                    "name": "sn",
                    "type": "bytes32"
                },
                {
                    "indexed": false,
                    "internalType": "uint64",
                    "name": "amount",
                    "type": "uint64"
                }
            ],
            "name": "SetPayInAmount",
            "type": "event"
        },
        {
            "anonymous": false,
            "inputs": [
                {
                    "indexed": false,
                    "internalType": "address",
                    "name": "rc",
                    "type": "address"
                }
            ],
            "name": "SetRegCenter",
            "type": "event"
        },
        {
            "anonymous": false,
            "inputs": [
                {
                    "indexed": true,
                    "internalType": "bytes32",
                    "name": "shareNumber",
                    "type": "bytes32"
                },
                {
                    "indexed": false,
                    "internalType": "uint64",
                    "name": "paid",
                    "type": "uint64"
                },
                {
                    "indexed": false,
                    "internalType": "uint64",
                    "name": "par",
                    "type": "uint64"
                }
            ],
            "name": "SubAmountFromShare",
            "type": "event"
        },
        {
            "anonymous": false,
            "inputs": [
                {
                    "indexed": true,
                    "internalType": "bytes32",
                    "name": "shareNumber",
                    "type": "bytes32"
                },
                {
                    "indexed": false,
                    "internalType": "uint48",
                    "name": "paidInDeadline",
                    "type": "uint48"
                }
            ],
            "name": "UpdatePaidInDeadline",
            "type": "event"
        },
        {
            "anonymous": false,
            "inputs": [
                {
                    "indexed": true,
                    "internalType": "bytes32",
                    "name": "shareNumber",
                    "type": "bytes32"
                },
                {
                    "indexed": false,
                    "internalType": "uint8",
                    "name": "state",
                    "type": "uint8"
                }
            ],
            "name": "UpdateStateOfShare",
            "type": "event"
        },
        {
            "anonymous": false,
            "inputs": [
                {
                    "indexed": true,
                    "internalType": "bytes32",
                    "name": "sn",
                    "type": "bytes32"
                }
            ],
            "name": "WithdrawPayInAmount",
            "type": "event"
        },
        {
            "inputs": [
                {
                    "internalType": "bytes32",
                    "name": "role",
                    "type": "bytes32"
                }
            ],
            "name": "abandonRole",
            "outputs": [],
            "stateMutability": "nonpayable",
            "type": "function"
        },
        {
            "inputs": [
                {
                    "internalType": "uint32",
                    "name": "ssn",
                    "type": "uint32"
                }
            ],
            "name": "cleanPar",
            "outputs": [
                {
                    "internalType": "uint64",
                    "name": "",
                    "type": "uint64"
                }
            ],
            "stateMutability": "view",
            "type": "function"
        },
        {
            "inputs": [],
            "name": "counterOfClasses",
            "outputs": [
                {
                    "internalType": "uint16",
                    "name": "",
                    "type": "uint16"
                }
            ],
            "stateMutability": "view",
            "type": "function"
        },
        {
            "inputs": [],
            "name": "counterOfShares",
            "outputs": [
                {
                    "internalType": "uint32",
                    "name": "",
                    "type": "uint32"
                }
            ],
            "stateMutability": "view",
            "type": "function"
        },
        {
            "inputs": [
                {
                    "internalType": "uint16",
                    "name": "class",
                    "type": "uint16"
                },
                {
                    "internalType": "uint32",
                    "name": "ssn",
                    "type": "uint32"
                },
                {
                    "internalType": "uint48",
                    "name": "issueDate",
                    "type": "uint48"
                },
                {
                    "internalType": "uint40",
                    "name": "shareholder",
                    "type": "uint40"
                },
                {
                    "internalType": "uint32",
                    "name": "unitPrice",
                    "type": "uint32"
                },
                {
                    "internalType": "uint32",
                    "name": "preSSN",
                    "type": "uint32"
                }
            ],
            "name": "createShareNumber",
            "outputs": [
                {
                    "internalType": "bytes32",
                    "name": "shareNumber",
                    "type": "bytes32"
                }
            ],
            "stateMutability": "pure",
            "type": "function"
        },
        {
            "inputs": [
                {
                    "internalType": "uint32",
                    "name": "ssn",
                    "type": "uint32"
                },
                {
                    "internalType": "uint64",
                    "name": "paid",
                    "type": "uint64"
                },
                {
                    "internalType": "uint64",
                    "name": "par",
                    "type": "uint64"
                }
            ],
            "name": "decreaseCapital",
            "outputs": [],
            "stateMutability": "nonpayable",
            "type": "function"
        },
        {
            "inputs": [
                {
                    "internalType": "uint32",
                    "name": "ssn",
                    "type": "uint32"
                },
                {
                    "internalType": "uint64",
                    "name": "paid",
                    "type": "uint64"
                }
            ],
            "name": "decreaseCleanPar",
            "outputs": [],
            "stateMutability": "nonpayable",
            "type": "function"
        },
        {
            "inputs": [],
            "name": "finalized",
            "outputs": [
                {
                    "internalType": "bool",
                    "name": "",
                    "type": "bool"
                }
            ],
            "stateMutability": "view",
            "type": "function"
        },
        {
            "inputs": [],
            "name": "getBookeeper",
            "outputs": [
                {
                    "internalType": "address",
                    "name": "",
                    "type": "address"
                }
            ],
            "stateMutability": "view",
            "type": "function"
        },
        {
            "inputs": [],
            "name": "getGeneralCounsel",
            "outputs": [
                {
                    "internalType": "uint40",
                    "name": "",
                    "type": "uint40"
                }
            ],
            "stateMutability": "view",
            "type": "function"
        },
        {
            "inputs": [
                {
                    "internalType": "bytes32",
                    "name": "sn",
                    "type": "bytes32"
                }
            ],
            "name": "getLocker",
            "outputs": [
                {
                    "internalType": "uint64",
                    "name": "amount",
                    "type": "uint64"
                }
            ],
            "stateMutability": "view",
            "type": "function"
        },
        {
            "inputs": [],
            "name": "getOwner",
            "outputs": [
                {
                    "internalType": "uint40",
                    "name": "",
                    "type": "uint40"
                }
            ],
            "stateMutability": "view",
            "type": "function"
        },
        {
            "inputs": [
                {
                    "internalType": "uint32",
                    "name": "ssn",
                    "type": "uint32"
                }
            ],
            "name": "getShare",
            "outputs": [
                {
                    "components": [
                        {
                            "internalType": "bytes32",
                            "name": "shareNumber",
                            "type": "bytes32"
                        },
                        {
                            "internalType": "uint64",
                            "name": "paid",
                            "type": "uint64"
                        },
                        {
                            "internalType": "uint64",
                            "name": "par",
                            "type": "uint64"
                        },
                        {
                            "internalType": "uint64",
                            "name": "cleanPar",
                            "type": "uint64"
                        },
                        {
                            "internalType": "uint48",
                            "name": "paidInDeadline",
                            "type": "uint48"
                        },
                        {
                            "internalType": "uint8",
                            "name": "state",
                            "type": "uint8"
                        }
                    ],
                    "internalType": "struct IBookOfShares.Share",
                    "name": "share",
                    "type": "tuple"
                }
            ],
            "stateMutability": "view",
            "type": "function"
        },
        {
            "inputs": [
                {
                    "internalType": "bytes32",
                    "name": "role",
                    "type": "bytes32"
                },
                {
                    "internalType": "uint40",
                    "name": "acct",
                    "type": "uint40"
                }
            ],
            "name": "grantRole",
            "outputs": [],
            "stateMutability": "nonpayable",
            "type": "function"
        },
        {
            "inputs": [
                {
                    "internalType": "bytes32",
                    "name": "role",
                    "type": "bytes32"
                },
                {
                    "internalType": "uint40",
                    "name": "acct",
                    "type": "uint40"
                }
            ],
            "name": "hasRole",
            "outputs": [
                {
                    "internalType": "bool",
                    "name": "",
                    "type": "bool"
                }
            ],
            "stateMutability": "view",
            "type": "function"
        },
        {
            "inputs": [
                {
                    "internalType": "uint32",
                    "name": "ssn",
                    "type": "uint32"
                },
                {
                    "internalType": "uint64",
                    "name": "paid",
                    "type": "uint64"
                }
            ],
            "name": "increaseCleanPar",
            "outputs": [],
            "stateMutability": "nonpayable",
            "type": "function"
        },
        {
            "inputs": [
                {
                    "internalType": "uint40",
                    "name": "owner",
                    "type": "uint40"
                },
                {
                    "internalType": "address",
                    "name": "directKeeper",
                    "type": "address"
                },
                {
                    "internalType": "address",
                    "name": "regCenter",
                    "type": "address"
                },
                {
                    "internalType": "address",
                    "name": "generalKeeper",
                    "type": "address"
                }
            ],
            "name": "init",
            "outputs": [],
            "stateMutability": "nonpayable",
            "type": "function"
        },
        {
            "inputs": [
                {
                    "internalType": "uint32",
                    "name": "ssn",
                    "type": "uint32"
                }
            ],
            "name": "isShare",
            "outputs": [
                {
                    "internalType": "bool",
                    "name": "",
                    "type": "bool"
                }
            ],
            "stateMutability": "view",
            "type": "function"
        },
        {
            "inputs": [
                {
                    "internalType": "bytes32",
                    "name": "shareNumber",
                    "type": "bytes32"
                },
                {
                    "internalType": "uint64",
                    "name": "paid",
                    "type": "uint64"
                },
                {
                    "internalType": "uint64",
                    "name": "par",
                    "type": "uint64"
                },
                {
                    "internalType": "uint48",
                    "name": "paidInDeadline",
                    "type": "uint48"
                }
            ],
            "name": "issueShare",
            "outputs": [],
            "stateMutability": "nonpayable",
            "type": "function"
        },
        {
            "inputs": [],
            "name": "lockContents",
            "outputs": [],
            "stateMutability": "nonpayable",
            "type": "function"
        },
        {
            "inputs": [
                {
                    "internalType": "bytes32",
                    "name": "role",
                    "type": "bytes32"
                }
            ],
            "name": "renounceRole",
            "outputs": [],
            "stateMutability": "nonpayable",
            "type": "function"
        },
        {
            "inputs": [
                {
                    "internalType": "bytes32",
                    "name": "sn",
                    "type": "bytes32"
                },
                {
                    "internalType": "string",
                    "name": "hashKey",
                    "type": "string"
                }
            ],
            "name": "requestPaidInCapital",
            "outputs": [],
            "stateMutability": "nonpayable",
            "type": "function"
        },
        {
            "inputs": [
                {
                    "internalType": "bytes32",
                    "name": "role",
                    "type": "bytes32"
                },
                {
                    "internalType": "uint40",
                    "name": "acct",
                    "type": "uint40"
                }
            ],
            "name": "revokeRole",
            "outputs": [],
            "stateMutability": "nonpayable",
            "type": "function"
        },
        {
            "inputs": [
                {
                    "internalType": "address",
                    "name": "keeper",
                    "type": "address"
                }
            ],
            "name": "setDirectKeeper",
            "outputs": [],
            "stateMutability": "nonpayable",
            "type": "function"
        },
        {
            "inputs": [
                {
                    "internalType": "uint40",
                    "name": "acct",
                    "type": "uint40"
                }
            ],
            "name": "setGeneralCounsel",
            "outputs": [],
            "stateMutability": "nonpayable",
            "type": "function"
        },
        {
            "inputs": [
                {
                    "internalType": "uint40",
                    "name": "acct",
                    "type": "uint40"
                }
            ],
            "name": "setOwner",
            "outputs": [],
            "stateMutability": "nonpayable",
            "type": "function"
        },
        {
            "inputs": [
                {
                    "internalType": "bytes32",
                    "name": "sn",
                    "type": "bytes32"
                },
                {
                    "internalType": "uint64",
                    "name": "amount",
                    "type": "uint64"
                }
            ],
            "name": "setPayInAmount",
            "outputs": [],
            "stateMutability": "nonpayable",
            "type": "function"
        },
        {
            "inputs": [],
            "name": "setROM",
            "outputs": [],
            "stateMutability": "nonpayable",
            "type": "function"
        },
        {
            "inputs": [
                {
                    "internalType": "bytes32",
                    "name": "role",
                    "type": "bytes32"
                },
                {
                    "internalType": "uint40",
                    "name": "acct",
                    "type": "uint40"
                }
            ],
            "name": "setRoleAdmin",
            "outputs": [],
            "stateMutability": "nonpayable",
            "type": "function"
        },
        {
            "inputs": [
                {
                    "internalType": "uint32",
                    "name": "ssn",
                    "type": "uint32"
                },
                {
                    "internalType": "uint64",
                    "name": "paid",
                    "type": "uint64"
                },
                {
                    "internalType": "uint64",
                    "name": "par",
                    "type": "uint64"
                },
                {
                    "internalType": "uint40",
                    "name": "to",
                    "type": "uint40"
                },
                {
                    "internalType": "uint32",
                    "name": "unitPrice",
                    "type": "uint32"
                }
            ],
            "name": "transferShare",
            "outputs": [],
            "stateMutability": "nonpayable",
            "type": "function"
        },
        {
            "inputs": [
                {
                    "internalType": "uint32",
                    "name": "ssn",
                    "type": "uint32"
                },
                {
                    "internalType": "uint48",
                    "name": "paidInDeadline",
                    "type": "uint48"
                }
            ],
            "name": "updatePaidInDeadline",
            "outputs": [],
            "stateMutability": "nonpayable",
            "type": "function"
        },
        {
            "inputs": [
                {
                    "internalType": "uint32",
                    "name": "ssn",
                    "type": "uint32"
                },
                {
                    "internalType": "uint8",
                    "name": "state",
                    "type": "uint8"
                }
            ],
            "name": "updateStateOfShare",
            "outputs": [],
            "stateMutability": "nonpayable",
            "type": "function"
        },
        {
            "inputs": [
                {
                    "internalType": "bytes32",
                    "name": "sn",
                    "type": "bytes32"
                }
            ],
            "name": "withdrawPayInAmount",
            "outputs": [],
            "stateMutability": "nonpayable",
            "type": "function"
        }
    ],
    "bytecode": "608060405234801561001057600080fd5b506149da806100206000396000f3fe608060405234801561001057600080fd5b50600436106101fb5760003560e01c806361cd252b1161011a578063893d20e8116100ad578063b8558d8f1161007c578063b8558d8f146104ec578063c54ecfa8146104ff578063e12388f214610512578063ed21102314610525578063f045a7691461054557600080fd5b8063893d20e8146104955780638bb9c5bf1461049d578063b3f05b97146104b0578063b766b439146104c457600080fd5b80637ba706e8116100e95780637ba706e81461041b578063821ee8ea1461042e578063851ad65414610441578063869eb7451461048257600080fd5b806361cd252b146103bf5780636be8496f146103d257806374099815146103e557806379b2ec12146103f857600080fd5b80634a0ca0d611610192578063564633bf11610161578063564633bf146103655780635a31dd56146103865780635f94411d14610399578063608c4721146103ac57600080fd5b80634a0ca0d61461029f57806351ce4ecb146102bc57806352aadfd7146102cf578063544f1ba21461034a57600080fd5b806316dc517e116101ce57806316dc517e1461025357806317c51fec146102665780633178a9a9146102795780633da9a6001461028c57600080fd5b806301a870331461020057806304726d7a1461021557806307473d7b14610228578063103f6edd14610230575b600080fd5b61021361020e36600461407b565b61054d565b005b610213610223366004614127565b6106a7565b610213610c2d565b610238610d70565b60405164ffffffffff90911681526020015b60405180910390f35b6102136102613660046141c3565b610dfc565b6102136102743660046141c3565b610e92565b6102136102873660046141e8565b610eb7565b61021361029a366004614205565b6110b0565b6102a76111c2565b60405163ffffffff909116815260200161024a565b6102136102ca36600461424e565b6111e7565b6102e26102dd36600461429d565b6117ae565b60405161024a9190600060c0820190508251825260208301516001600160401b038082166020850152806040860151166040850152806060860151166060850152505065ffffffffffff608084015116608083015260ff60a08401511660a083015292915050565b610352611894565b60405161ffff909116815260200161024a565b6103786103733660046142ca565b6118c0565b60405190815260200161024a565b61021361039436600461434c565b611ce9565b6102136103a7366004614381565b611f2a565b6102136103ba3660046143a4565b6120a5565b6102136103cd36600461434c565b612412565b6102136103e0366004614426565b612654565b6102136103f33660046141c3565b612706565b61040b6104063660046141c3565b61272b565b604051901515815260200161024a565b6102136104293660046141e8565b6127cc565b61021361043c366004614443565b6129be565b61046a61044f366004614205565b6000908152600660205260409020546001600160401b031690565b6040516001600160401b03909116815260200161024a565b610213610490366004614494565b612aae565b610238612c00565b6102136104ab366004614205565b612c3b565b60028054600160f01b900460ff161461040b565b61040b6104d236600461429d565b63ffffffff16600090815260056020526040902054151590565b61046a6104fa36600461429d565b612c94565b61021361050d3660046144c2565b612cf5565b610213610520366004614205565b612e65565b61052d61307b565b6040516001600160a01b03909116815260200161024a565b610213613101565b604051633b11adbf60e21b81526002600482015233602482015273__$364aad554dc80380f414546becdd2c1584$__9063ec46b6fc9060440160206040518083038186803b15801561059e57600080fd5b505af41580156105b2573d6000803e3d6000fd5b505050506040513d601f19601f820116820180604052508101906105d69190614507565b6105fb5760405162461bcd60e51b81526004016105f290614529565b60405180910390fd5b8161061a8163ffffffff16600090815260056020526040902054151590565b6106365760405162461bcd60e51b81526004016105f29061456f565b63ffffffff831660009081526005602090815260409182902060018101805460ff60f01b1916600160f01b60ff881690810291909117909155905492519081527fb618a311dd4c6b4307e8f14e349390cbea2cc947e361d7764af9a5095eed18d091015b60405180910390a2505050565b604051633b11adbf60e21b81526002600482015233602482015273__$364aad554dc80380f414546becdd2c1584$__9063ec46b6fc9060440160206040518083038186803b1580156106f857600080fd5b505af415801561070c573d6000803e3d6000fd5b505050506040513d601f19601f820116820180604052508101906107309190614507565b61074c5760405162461bcd60e51b81526004016105f290614529565b610758426103846145bc565b6040516321aa0faf60e01b81526004810184905260059060009073__$94c94c1f27eaba30857c7d0c37f90b5581$__906321aa0faf9060240160206040518083038186803b1580156107a957600080fd5b505af41580156107bd573d6000803e3d6000fd5b505050506040513d601f19601f820116820180604052508101906107e191906145d4565b63ffffffff168152602081019190915260400160002060010154600160c01b900465ffffffffffff16101561086c5760405162461bcd60e51b815260206004820152602b60248201527f424f532e7265717565737450616964496e4361706974616c3a206d697373656460448201526a206578706972654461746560a81b60648201526084016105f2565b80516020820120604051630c3beaa360e21b8152600481019190915273__$94c94c1f27eaba30857c7d0c37f90b5581$__906330efaa8c9060240160206040518083038186803b1580156108bf57600080fd5b505af41580156108d3573d6000803e3d6000fd5b505050506040513d601f19601f820116820180604052508101906108f791906145f1565b6040516307508fcf60e21b8152600481018490526001600160881b0319919091169073__$94c94c1f27eaba30857c7d0c37f90b5581$__90631d423f3c9060240160206040518083038186803b15801561095057600080fd5b505af4158015610964573d6000803e3d6000fd5b505050506040513d601f19601f8201168201806040525081019061098891906145f1565b6001600160881b031916146109eb5760405162461bcd60e51b815260206004820152602360248201527f424f532e7265717565737450616964496e4361706974616c3a2077726f6e67206044820152626b657960e81b60648201526084016105f2565b600082815260066020526040908190205490516321aa0faf60e01b8152600481018490526001600160401b0390911690610a949073__$94c94c1f27eaba30857c7d0c37f90b5581$__906321aa0faf9060240160206040518083038186803b158015610a5657600080fd5b505af4158015610a6a573d6000803e3d6000fd5b505050506040513d601f19601f82011682018060405250810190610a8e91906145d4565b8261331f565b60048054604051630b7879eb60e21b81529182018590526001600160a01b0316906396cfe1149073__$94c94c1f27eaba30857c7d0c37f90b5581$__90632de1e7ac9060240160206040518083038186803b158015610af257600080fd5b505af4158015610b06573d6000803e3d6000fd5b505050506040513d601f19601f82011682018060405250810190610b2a919061461b565b6040516001600160e01b031960e084901b16815264ffffffffff90911660048201526001600160401b03841660248201526000604482015260016064820152608401600060405180830381600087803b158015610b8657600080fd5b505af1158015610b9a573d6000803e3d6000fd5b505060048054604051639a3ca24b60e01b81526001600160401b03861692810192909252600060248301526001600160a01b03169250639a3ca24b9150604401600060405180830381600087803b158015610bf457600080fd5b505af1158015610c08573d6000803e3d6000fd5b5050506000938452505060066020525060409020805467ffffffffffffffff19169055565b604051633b11adbf60e21b81526002600482015233602482015273__$364aad554dc80380f414546becdd2c1584$__9063ec46b6fc9060440160206040518083038186803b158015610c7e57600080fd5b505af4158015610c92573d6000803e3d6000fd5b505050506040513d601f19601f82011682018060405250810190610cb69190614507565b610cd25760405162461bcd60e51b81526004016105f290614529565b60015460405163381baea360e21b8152600760048201526001600160a01b039091169063e06eba8c9060240160206040518083038186803b158015610d1657600080fd5b505afa158015610d2a573d6000803e3d6000fd5b505050506040513d601f19601f82011682018060405250810190610d4e9190614638565b600480546001600160a01b0319166001600160a01b0392909216919091179055565b60405163e8c0cc1d60e01b81526002600482015260009073__$364aad554dc80380f414546becdd2c1584$__9063e8c0cc1d906024015b60206040518083038186803b158015610dbf57600080fd5b505af4158015610dd3573d6000803e3d6000fd5b505050506040513d601f19601f82011682018060405250810190610df7919061461b565b905090565b73__$364aad554dc80380f414546becdd2c1584$__63427abff4600284610e21613521565b6040516001600160e01b031960e086901b1681526004810193909352602483019190915264ffffffffff9081166044830152841660648201526084015b60006040518083038186803b158015610e7657600080fd5b505af4158015610e8a573d6000803e3d6000fd5b505050505050565b73__$364aad554dc80380f414546becdd2c1584$__638ce15845600284610e21613521565b604051633b11adbf60e21b81526002600482015233602482015273__$364aad554dc80380f414546becdd2c1584$__9063ec46b6fc9060440160206040518083038186803b158015610f0857600080fd5b505af4158015610f1c573d6000803e3d6000fd5b505050506040513d601f19601f82011682018060405250810190610f409190614507565b80610fe5575073__$364aad554dc80380f414546becdd2c1584$__63fe2710866002610f6a613521565b6040516001600160e01b031960e085901b168152600481019290925264ffffffffff16602482015260440160206040518083038186803b158015610fad57600080fd5b505af4158015610fc1573d6000803e3d6000fd5b505050506040513d601f19601f82011682018060405250810190610fe59190614507565b6110015760405162461bcd60e51b81526004016105f290614655565b604051632725ebef60e21b81526002600482015264ffffffffff8216602482015273__$364aad554dc80380f414546becdd2c1584$__90639c97afbc9060440160006040518083038186803b15801561105957600080fd5b505af415801561106d573d6000803e3d6000fd5b505060405164ffffffffff841681527ff2735f34b69be1e6342dea95f9162f84d0db925fab655ca9f1f312ac8cbfc99d925060200190505b60405180910390a150565b604051633b11adbf60e21b81526002600482015233602482015273__$364aad554dc80380f414546becdd2c1584$__9063ec46b6fc9060440160206040518083038186803b15801561110157600080fd5b505af4158015611115573d6000803e3d6000fd5b505050506040513d601f19601f820116820180604052508101906111399190614507565b6111555760405162461bcd60e51b81526004016105f290614529565b60405163cc99e11b60e01b8152600260048201526024810182905273__$364aad554dc80380f414546becdd2c1584$__9063cc99e11b9060440160006040518083038186803b1580156111a757600080fd5b505af41580156111bb573d6000803e3d6000fd5b5050505050565b600080526005602052600080516020614985833981519152546001600160401b031690565b6001546040516335d2155560e11b81523360048201526001600160a01b0390911690636ba42aaa9060240160206040518083038186803b15801561122a57600080fd5b505afa15801561123e573d6000803e3d6000fd5b505050506040513d601f19601f820116820180604052508101906112629190614507565b61127e5760405162461bcd60e51b81526004016105f2906146ab565b604051630b7879eb60e21b81526004810185905273__$94c94c1f27eaba30857c7d0c37f90b5581$__90632de1e7ac9060240160206040518083038186803b1580156112c957600080fd5b505af41580156112dd573d6000803e3d6000fd5b505050506040513d601f19601f82011682018060405250810190611301919061461b565b64ffffffffff166113545760405162461bcd60e51b815260206004820181905260248201527f424f532e697373756553686172653a207a65726f207368617265686f6c64657260448201526064016105f2565b60405163483c0b9760e11b81526004810185905260009073__$94c94c1f27eaba30857c7d0c37f90b5581$__90639078172e9060240160206040518083038186803b1580156113a257600080fd5b505af41580156113b6573d6000803e3d6000fd5b505050506040513d601f19601f820116820180604052508101906113da91906146d6565b905065ffffffffffff81166113f0575042611448565b428165ffffffffffff1611156114485760405162461bcd60e51b815260206004820181905260248201527f424f532e697373756553686172653a206675747572652069737375654461746560448201526064016105f2565b8165ffffffffffff168165ffffffffffff1611156114c45760405162461bcd60e51b815260206004820152603360248201527f424f532e697373756553686172653a20697373756544617465204c41544552206044820152727468616e2070616964496e446561646c696e6560681b60648201526084016105f2565b826001600160401b0316846001600160401b031611156115325760405162461bcd60e51b8152602060048201526024808201527f424f532e697373756553686172653a207061696420424947474552207468616e604482015263103830b960e11b60648201526084016105f2565b60048054604051630b7879eb60e21b81529182018790526001600160a01b03169063296f687b9073__$94c94c1f27eaba30857c7d0c37f90b5581$__90632de1e7ac9060240160206040518083038186803b15801561159057600080fd5b505af41580156115a4573d6000803e3d6000fd5b505050506040513d601f19601f820116820180604052508101906115c8919061461b565b6040516001600160e01b031960e084901b16815264ffffffffff9091166004820152602401600060405180830381600087803b15801561160757600080fd5b505af115801561161b573d6000803e3d6000fd5b50505050611629858261357b565b9450611637858585856138a7565b6004546001600160a01b0316636bdc37306116506111c2565b604051630b7879eb60e21b81526004810189905273__$94c94c1f27eaba30857c7d0c37f90b5581$__90632de1e7ac9060240160206040518083038186803b15801561169b57600080fd5b505af41580156116af573d6000803e3d6000fd5b505050506040513d601f19601f820116820180604052508101906116d3919061461b565b6040516001600160e01b031960e085901b16815263ffffffff92909216600483015264ffffffffff166024820152604401600060405180830381600087803b15801561171e57600080fd5b505af1158015611732573d6000803e3d6000fd5b505060048054604051639a3ca24b60e01b81526001600160401b03808a169382019390935291871660248301526001600160a01b03169250639a3ca24b91506044015b600060405180830381600087803b15801561178f57600080fd5b505af11580156117a3573d6000803e3d6000fd5b505050505050505050565b6040805160c08101825260008082526020808301829052828401829052606083018290526080830182905260a0830182905263ffffffff8516825260059052919091205482906118105760405162461bcd60e51b81526004016105f29061456f565b505063ffffffff16600090815260056020908152604091829020825160c081018452815481526001909101546001600160401b0380821693830193909352600160401b8104831693820193909352600160801b83049091166060820152600160c01b820465ffffffffffff166080820152600160f01b90910460ff1660a082015290565b60008052600560205260008051602061498583398151915254600160401b90046001600160401b031690565b604080516020808252818301909252600091829190602082018180368337505060405163d8a3155f60e01b815291925073__$f4d24a073c4d632c09a66fb0a7ac9d4583$__9163d8a3155f91506119209084906000908d9060040161474b565b60006040518083038186803b15801561193857600080fd5b505af415801561194c573d6000803e3d6000fd5b505050506040513d6000823e601f3d908101601f191682016040526119749190810190614778565b60405163757398af60e11b815290915073__$f4d24a073c4d632c09a66fb0a7ac9d4583$__9063eae7315e906119b39084906002908c906004016147e5565b60006040518083038186803b1580156119cb57600080fd5b505af41580156119df573d6000803e3d6000fd5b505050506040513d6000823e601f3d908101601f19168201604052611a079190810190614778565b60405163acdc3d3960e01b815290915073__$f4d24a073c4d632c09a66fb0a7ac9d4583$__9063acdc3d3990611a469084906006908b90600401614814565b60006040518083038186803b158015611a5e57600080fd5b505af4158015611a72573d6000803e3d6000fd5b505050506040513d6000823e601f3d908101601f19168201604052611a9a9190810190614778565b604051630e6c1adf60e21b815290915073__$f4d24a073c4d632c09a66fb0a7ac9d4583$__906339b06b7c90611ad9908490600c908a90600401614845565b60006040518083038186803b158015611af157600080fd5b505af4158015611b05573d6000803e3d6000fd5b505050506040513d6000823e601f3d908101601f19168201604052611b2d9190810190614778565b60405163757398af60e11b815290915073__$f4d24a073c4d632c09a66fb0a7ac9d4583$__9063eae7315e90611b6c90849060119089906004016147e5565b60006040518083038186803b158015611b8457600080fd5b505af4158015611b98573d6000803e3d6000fd5b505050506040513d6000823e601f3d908101601f19168201604052611bc09190810190614778565b60405163757398af60e11b815290915073__$f4d24a073c4d632c09a66fb0a7ac9d4583$__9063eae7315e90611bff90849060159088906004016147e5565b60006040518083038186803b158015611c1757600080fd5b505af4158015611c2b573d6000803e3d6000fd5b505050506040513d6000823e601f3d908101601f19168201604052611c539190810190614778565b60405163bfe370d960e01b815290915073__$f4d24a073c4d632c09a66fb0a7ac9d4583$__9063bfe370d990611c8d908490600401614875565b60206040518083038186803b158015611ca557600080fd5b505af4158015611cb9573d6000803e3d6000fd5b505050506040513d601f19601f82011682018060405250810190611cdd9190614888565b98975050505050505050565b6001546040516335d2155560e11b81523360048201526001600160a01b0390911690636ba42aaa9060240160206040518083038186803b158015611d2c57600080fd5b505afa158015611d40573d6000803e3d6000fd5b505050506040513d601f19601f82011682018060405250810190611d649190614507565b611d805760405162461bcd60e51b81526004016105f2906146ab565b81611d9f8163ffffffff16600090815260056020526040902054151590565b611dbb5760405162461bcd60e51b81526004016105f29061456f565b63ffffffff83166000908152600560205260409020600101548390600160f01b900460ff1615611dfd5760405162461bcd60e51b81526004016105f2906148a1565b63ffffffff8416600090815260056020526040902060018101546001600160401b03600160801b90910481169085161115611e8e5760405162461bcd60e51b815260206004820152602b60248201527f424f532e6465637265617365436c65616e5061723a20494e535546464943494560448201526a272a1031b632b0b72830b960a91b60648201526084016105f2565b838160010160108282829054906101000a90046001600160401b0316611eb491906148d6565b92506101000a8154816001600160401b0302191690836001600160401b0316021790555080600001547f172c086b5521b72f188dccccfb518419954d86142bd34484cfb3f9a5c9dc6ca585604051611f1b91906001600160401b0391909116815260200190565b60405180910390a25050505050565b604051633b11adbf60e21b81526002600482015233602482015273__$364aad554dc80380f414546becdd2c1584$__9063ec46b6fc9060440160206040518083038186803b158015611f7b57600080fd5b505af4158015611f8f573d6000803e3d6000fd5b505050506040513d601f19601f82011682018060405250810190611fb39190614507565b611fcf5760405162461bcd60e51b81526004016105f290614529565b6000828152600660205260409020546001600160401b0316156120405760405162461bcd60e51b815260206004820152602360248201527f424f532e736574506179496e416d6f756e743a206c6f636b6572206f636375706044820152621a595960ea1b60648201526084016105f2565b600082815260066020908152604091829020805467ffffffffffffffff19166001600160401b038516908117909155915191825283917fd7d613d86cc65bed7e3c5d968a7ee5fba41f8fea17f918391d2d19176925e905910160405180910390a25050565b6001546040516335d2155560e11b81523360048201526001600160a01b0390911690636ba42aaa9060240160206040518083038186803b1580156120e857600080fd5b505afa1580156120fc573d6000803e3d6000fd5b505050506040513d601f19601f820116820180604052508101906121209190614507565b61213c5760405162461bcd60e51b81526004016105f2906146ab565b8461215b8163ffffffff16600090815260056020526040902054151590565b6121775760405162461bcd60e51b81526004016105f29061456f565b63ffffffff86166000908152600560205260409020600101548690600160f01b900460ff16156121b95760405162461bcd60e51b81526004016105f2906148a1565b63ffffffff871660009081526005602052604080822054905163217cf12b60e01b8152600481019190915273__$94c94c1f27eaba30857c7d0c37f90b5581$__9063217cf12b9060240160206040518083038186803b15801561221b57600080fd5b505af415801561222f573d6000803e3d6000fd5b505050506040513d601f19601f8201168201806040525081019061225391906148fe565b905064ffffffffff85166122bf5760405162461bcd60e51b815260206004820152602d60248201527f424f532e7472616e7366657253686172653a207368617265686f6c646572207560448201526c7365724e6f206973205a45524f60981b60648201526084016105f2565b6122ca888888613a0a565b6004805460405163296f687b60e01b815264ffffffffff8816928101929092526001600160a01b03169063296f687b90602401600060405180830381600087803b15801561231757600080fd5b505af115801561232b573d6000803e3d6000fd5b50505050612337613d5c565b42600061234f836123466111c2565b848a8a8f6118c0565b63ffffffff8b166000908152600560205260409020600101549091506123899082908b908b90600160c01b900465ffffffffffff166138a7565b6004546001600160a01b0316636bdc37306123a26111c2565b6040516001600160e01b031960e084901b16815263ffffffff91909116600482015264ffffffffff8a166024820152604401600060405180830381600087803b1580156123ee57600080fd5b505af1158015612402573d6000803e3d6000fd5b5050505050505050505050505050565b6001546040516335d2155560e11b81523360048201526001600160a01b0390911690636ba42aaa9060240160206040518083038186803b15801561245557600080fd5b505afa158015612469573d6000803e3d6000fd5b505050506040513d601f19601f8201168201806040525081019061248d9190614507565b6124a95760405162461bcd60e51b81526004016105f2906146ab565b816124c88163ffffffff16600090815260056020526040902054151590565b6124e45760405162461bcd60e51b81526004016105f29061456f565b63ffffffff83166000908152600560205260409020600101548390600160f01b900460ff16156125265760405162461bcd60e51b81526004016105f2906148a1565b63ffffffff84166000908152600560205260409020600181015461255b908590600160801b90046001600160401b031661491b565b60018201546001600160401b03918216911610156125c75760405162461bcd60e51b815260206004820152602360248201527f424f532e696e637265617365436c65616e5061723a2070616964206f766572666044820152626c6f7760e81b60648201526084016105f2565b838160010160108282829054906101000a90046001600160401b03166125ed919061491b565b92506101000a8154816001600160401b0302191690836001600160401b0316021790555080600001547fb988afdc745fdd9e9f210d99b090ba279fff2e5aaf9e77da2b357b565ea769cc85604051611f1b91906001600160401b0391909116815260200190565b604051630f07232560e01b8152600260048201523360248201526001600160a01b038216604482015273__$364aad554dc80380f414546becdd2c1584$__90630f0723259060640160006040518083038186803b1580156126b457600080fd5b505af41580156126c8573d6000803e3d6000fd5b50506040516001600160a01b03841681527fe435cbeab64e4eae6497b9d8289704bd709d624a80704ef3ca9af777534bc6ec925060200190506110a5565b73__$364aad554dc80380f414546becdd2c1584$__63d2a15ba7600284610e21613521565b604051632a3be56b60e21b8152600260048201526024810183905264ffffffffff8216604482015260009073__$364aad554dc80380f414546becdd2c1584$__9063a8ef95ac9060640160206040518083038186803b15801561278d57600080fd5b505af41580156127a1573d6000803e3d6000fd5b505050506040513d601f19601f820116820180604052508101906127c59190614507565b9392505050565b604051633b11adbf60e21b81526002600482015233602482015273__$364aad554dc80380f414546becdd2c1584$__9063ec46b6fc9060440160206040518083038186803b15801561281d57600080fd5b505af4158015612831573d6000803e3d6000fd5b505050506040513d601f19601f820116820180604052508101906128559190614507565b806128fa575073__$364aad554dc80380f414546becdd2c1584$__63fe271086600261287f613521565b6040516001600160e01b031960e085901b168152600481019290925264ffffffffff16602482015260440160206040518083038186803b1580156128c257600080fd5b505af41580156128d6573d6000803e3d6000fd5b505050506040513d601f19601f820116820180604052508101906128fa9190614507565b6129165760405162461bcd60e51b81526004016105f290614655565b60405163b6e38a2960e01b81526002600482015264ffffffffff8216602482015273__$364aad554dc80380f414546becdd2c1584$__9063b6e38a299060440160006040518083038186803b15801561296e57600080fd5b505af4158015612982573d6000803e3d6000fd5b505060405164ffffffffff841681527f8b6f40f36b4ae8cc5f55e895036457c43da4ab1f80f58c46f5ff0d72a650033b925060200190506110a5565b6129c782613db1565b6129d081613e50565b604051636cdd0edf60e11b81526002600482015264ffffffffff851660248201526001600160a01b038416604482015273__$364aad554dc80380f414546becdd2c1584$__9063d9ba1dbe9060640160006040518083038186803b158015612a3757600080fd5b505af4158015612a4b573d6000803e3d6000fd5b50506040805164ffffffffff881681526001600160a01b038781166020830152868116828401528516606082015290517f4d18c0021addc919105cb1ed2c11ad241e859cc1d9e77d4ee1d9ca2cdc1f255b9350908190036080019150a150505050565b604051633b11adbf60e21b81526002600482015233602482015273__$364aad554dc80380f414546becdd2c1584$__9063ec46b6fc9060440160206040518083038186803b158015612aff57600080fd5b505af4158015612b13573d6000803e3d6000fd5b505050506040513d601f19601f82011682018060405250810190612b379190614507565b612b535760405162461bcd60e51b81526004016105f290614529565b81612b728163ffffffff16600090815260056020526040902054151590565b612b8e5760405162461bcd60e51b81526004016105f29061456f565b63ffffffff831660009081526005602090815260409182902060018101805465ffffffffffff60c01b1916600160c01b65ffffffffffff881690810291909117909155905492519081527fee6a0ec2d12be7702f7d653343b407a56f09706b1556f5ab4d6b4b79c67372b2910161069a565b60405163987ad15360e01b81526002600482015260009073__$364aad554dc80380f414546becdd2c1584$__9063987ad15390602401610da7565b6000612c45613521565b604051637963595360e11b8152600260048201526024810184905264ffffffffff8216604482015290915073__$364aad554dc80380f414546becdd2c1584$__9063f2c6b2a690606401610e5e565b63ffffffff81166000908152600560205260408120548290612cc85760405162461bcd60e51b81526004016105f29061456f565b505063ffffffff16600090815260056020526040902060010154600160801b90046001600160401b031690565b604051633b11adbf60e21b81526002600482015233602482015273__$364aad554dc80380f414546becdd2c1584$__9063ec46b6fc9060440160206040518083038186803b158015612d4657600080fd5b505af4158015612d5a573d6000803e3d6000fd5b505050506040513d601f19601f82011682018060405250810190612d7e9190614507565b612d9a5760405162461bcd60e51b81526004016105f290614529565b82612db98163ffffffff16600090815260056020526040902054151590565b612dd55760405162461bcd60e51b81526004016105f29061456f565b63ffffffff84166000908152600560205260409020600101548490600160f01b900460ff1615612e175760405162461bcd60e51b81526004016105f2906148a1565b612e22858585613a0a565b600480546040516372cc64f960e01b81526001600160401b038088169382019390935291851660248301526001600160a01b0316906372cc64f990604401611775565b604051633b11adbf60e21b81526002600482015233602482015273__$364aad554dc80380f414546becdd2c1584$__9063ec46b6fc9060440160206040518083038186803b158015612eb657600080fd5b505af4158015612eca573d6000803e3d6000fd5b505050506040513d601f19601f82011682018060405250810190612eee9190614507565b612f0a5760405162461bcd60e51b81526004016105f290614529565b612f1661038442614946565b6040516321aa0faf60e01b81526004810183905260059060009073__$94c94c1f27eaba30857c7d0c37f90b5581$__906321aa0faf9060240160206040518083038186803b158015612f6757600080fd5b505af4158015612f7b573d6000803e3d6000fd5b505050506040513d601f19601f82011682018060405250810190612f9f91906145d4565b63ffffffff168152602081019190915260400160002060010154600160c01b900465ffffffffffff16106130345760405162461bcd60e51b815260206004820152603660248201527f424f532e7769746864726177506179496e416d6f756e743a207374696c6c20776044820152751a5d1a1a5b881959999958dd1a5d99481c195c9a5bd960521b60648201526084016105f2565b600081815260066020526040808220805467ffffffffffffffff191690555182917fee2c2caca8474c63279fc465c69e42234e10ae3489e3afff1737c914e627469591a250565b604051633c3e56c160e11b81526002600482015260009073__$364aad554dc80380f414546becdd2c1584$__9063787cad829060240160206040518083038186803b1580156130c957600080fd5b505af41580156130dd573d6000803e3d6000fd5b505050506040513d601f19601f82011682018060405250810190610df79190614638565b604051633b11adbf60e21b81526002600482015233602482015273__$364aad554dc80380f414546becdd2c1584$__9063ec46b6fc9060440160206040518083038186803b15801561315257600080fd5b505af4158015613166573d6000803e3d6000fd5b505050506040513d601f19601f8201168201806040525081019061318a9190614507565b6131a65760405162461bcd60e51b81526004016105f290614529565b600254600160f01b900460ff166001146132025760405162461bcd60e51b815260206004820181905260248201527f41432e6f6e6c7950656e64696e673a20446f632069732066696e616c697a656460448201526064016105f2565b60405163cc99e11b60e01b815260026004820152684174746f726e65797360b81b602482015273__$364aad554dc80380f414546becdd2c1584$__9063cc99e11b9060440160006040518083038186803b15801561325f57600080fd5b505af4158015613273573d6000803e3d6000fd5b5050604051632725ebef60e21b8152600260048201526000602482015273__$364aad554dc80380f414546becdd2c1584$__9250639c97afbc915060440160006040518083038186803b1580156132c957600080fd5b505af41580156132dd573d6000803e3d6000fd5b50506002805460ff60f01b1916600160f11b17905550506040517f35012b512309c322acf68632cd6cb702ff0e1d776fbe9394e38ffc13b434fe7590600090a1565b63ffffffff82166000908152600560205260409020600181015442919065ffffffffffff600160c01b909104811690831611156133ae5760405162461bcd60e51b815260206004820152602760248201527f424f532e5f706179496e4361706974616c3a206d697373656420706179496e446044820152666561646c696e6560c81b60648201526084016105f2565b60018101546001600160401b03600160401b82048116916133d19186911661491b565b6001600160401b031611156134335760405162461bcd60e51b815260206004820152602260248201527f424f532e5f706179496e4361706974616c3a20616d6f756e74206f766572666c6044820152616f7760f01b60648201526084016105f2565b6001810180548491906000906134539084906001600160401b031661491b565b92506101000a8154816001600160401b0302191690836001600160401b03160217905550828160010160108282829054906101000a90046001600160401b031661349d919061491b565b92506101000a8154816001600160401b0302191690836001600160401b0316021790555080600001547fa81ee938f95b53345791498e0146b83cc88c036cd46884c0c9c907a68e3a197684846040516135139291906001600160401b0392909216825265ffffffffffff16602082015260400190565b60405180910390a250505050565b60008054604051634de835e760e11b81523360048201526001600160a01b0390911690639bd06bce90602401602060405180830381600087803b15801561356757600080fd5b505af1158015610dd3573d6000803e3d6000fd5b6000808360405160200161359191815260200190565b60408051808303601f190181529082905263217cf12b60e01b825260048201869052915060009073__$94c94c1f27eaba30857c7d0c37f90b5581$__9063217cf12b9060240160206040518083038186803b1580156135ef57600080fd5b505af4158015613603573d6000803e3d6000fd5b505050506040513d601f19601f8201168201806040525081019061362791906148fe565b9050613631611894565b61ffff168161ffff1611156136e257613648613e9e565b73__$f4d24a073c4d632c09a66fb0a7ac9d4583$__63d8a3155f83600061366d611894565b6040518463ffffffff1660e01b815260040161368b9392919061474b565b60006040518083038186803b1580156136a357600080fd5b505af41580156136b7573d6000803e3d6000fd5b505050506040513d6000823e601f3d908101601f191682016040526136df9190810190614778565b91505b6136ea613d5c565b73__$f4d24a073c4d632c09a66fb0a7ac9d4583$__63eae7315e83600261370f6111c2565b6040518463ffffffff1660e01b815260040161372d939291906147e5565b60006040518083038186803b15801561374557600080fd5b505af4158015613759573d6000803e3d6000fd5b505050506040513d6000823e601f3d908101601f191682016040526137819190810190614778565b60405163acdc3d3960e01b815290925073__$f4d24a073c4d632c09a66fb0a7ac9d4583$__9063acdc3d39906137c09085906006908990600401614814565b60006040518083038186803b1580156137d857600080fd5b505af41580156137ec573d6000803e3d6000fd5b505050506040513d6000823e601f3d908101601f191682016040526138149190810190614778565b60405163bfe370d960e01b815290925073__$f4d24a073c4d632c09a66fb0a7ac9d4583$__9063bfe370d99061384e908590600401614875565b60206040518083038186803b15801561386657600080fd5b505af415801561387a573d6000803e3d6000fd5b505050506040513d601f19601f8201168201806040525081019061389e9190614888565b95945050505050565b6040516321aa0faf60e01b81526004810185905260009073__$94c94c1f27eaba30857c7d0c37f90b5581$__906321aa0faf9060240160206040518083038186803b1580156138f557600080fd5b505af4158015613909573d6000803e3d6000fd5b505050506040513d601f19601f8201168201806040525081019061392d91906145d4565b63ffffffff81166000908152600560209081526040918290208881556001810180546fffffffffffffffffffffffffffffffff19166001600160401b038a8116918217600160401b918b16918202176dffffffffffffffffffffffffffff60801b1916600160801b830265ffffffffffff60c01b191617600160c01b65ffffffffffff8b1690810291909117909355855191825293810193909352928201929092529192509086907fe973bd7778afae71908d5f55f9293ed4ed9b93d6d57265df91cc4c03594818599060600160405180910390a2505050505050565b63ffffffff831660009081526005602052604090206001600160401b038216613a635760405162461bcd60e51b815260206004820152600b60248201526a706172206973205a45524f60a81b60448201526064016105f2565b60018101546001600160401b03808416600160801b909204161015613abe5760405162461bcd60e51b8152602060048201526011602482015270636c65616e506172204f564552464c4f5760781b60448201526064016105f2565b816001600160401b0316836001600160401b03161115613b175760405162461bcd60e51b81526020600482015260146024820152733830b4b2102124a3a3a2a9103a3430b7103830b960611b60448201526064016105f2565b60018101546001600160401b03838116600160401b909204161415613c3f57600480548254604051630b7879eb60e21b8152928301526001600160a01b03169063a03510c590869073__$94c94c1f27eaba30857c7d0c37f90b5581$__90632de1e7ac9060240160206040518083038186803b158015613b9657600080fd5b505af4158015613baa573d6000803e3d6000fd5b505050506040513d601f19601f82011682018060405250810190613bce919061461b565b6040516001600160e01b031960e085901b16815263ffffffff92909216600483015264ffffffffff166024820152604401600060405180830381600087803b158015613c1957600080fd5b505af1158015613c2d573d6000803e3d6000fd5b50505050613c3a84613ed4565b613d56565b613c4a848484613f30565b600480548254604051630b7879eb60e21b8152928301526001600160a01b0316906396cfe1149073__$94c94c1f27eaba30857c7d0c37f90b5581$__90632de1e7ac9060240160206040518083038186803b158015613ca857600080fd5b505af4158015613cbc573d6000803e3d6000fd5b505050506040513d601f19601f82011682018060405250810190613ce0919061461b565b6040516001600160e01b031960e084901b16815264ffffffffff90911660048201526001600160401b0380871660248301528516604482015260006064820152608401600060405180830381600087803b158015613d3d57600080fd5b505af1158015613d51573d6000803e3d6000fd5b505050505b50505050565b6000808052600560205260008051602061498583398151915280546001600160401b031691613d8a8361495d565b91906101000a8154816001600160401b0302191690836001600160401b0316021790555050565b6000546001600160a01b031615613e025760405162461bcd60e51b815260206004820152601560248201527430b63932b0b23c9039b2ba103932b3a1b2b73a32b960591b60448201526064016105f2565b600080546001600160a01b0319166001600160a01b0383169081179091556040519081527f318da6c7624c71cbc0afe346c9d8827f119d0ecefb241a7b0c87217a076a8e02906020016110a5565b600180546001600160a01b0319166001600160a01b0383169081179091556040519081527fe513d3e0f0d0a3877029dcc588748679a7a3450ec1ec7ed56d96bd012c3e61aa906020016110a5565b6000805260056020526000805160206149858339815191528054600160401b90046001600160401b0316906008613d8a8361495d565b63ffffffff81166000908152600560205260408082208054838255600190910180546001600160f81b03191690559051909182917f6db1839c61c2f45fe5bfc6356ae3b1ef4d421addb580549606981a93d05f50349190a25050565b63ffffffff8316600090815260056020526040812060018101805491928592613f639084906001600160401b03166148d6565b92506101000a8154816001600160401b0302191690836001600160401b03160217905550818160010160088282829054906101000a90046001600160401b0316613fad91906148d6565b92506101000a8154816001600160401b0302191690836001600160401b03160217905550828160010160108282829054906101000a90046001600160401b0316613ff791906148d6565b92506101000a8154816001600160401b0302191690836001600160401b0316021790555080600001547f97067c4db5530454b8198168902e8bd6edb858fe9cf033dc0047d7b8ef114a3384846040516135139291906001600160401b0392831681529116602082015260400190565b63ffffffff8116811461407857600080fd5b50565b6000806040838503121561408e57600080fd5b823561409981614066565b9150602083013560ff811681146140af57600080fd5b809150509250929050565b634e487b7160e01b600052604160045260246000fd5b604051601f8201601f191681016001600160401b03811182821017156140f8576140f86140ba565b604052919050565b60006001600160401b03821115614119576141196140ba565b50601f01601f191660200190565b6000806040838503121561413a57600080fd5b8235915060208301356001600160401b0381111561415757600080fd5b8301601f8101851361416857600080fd5b803561417b61417682614100565b6140d0565b81815286602083850101111561419057600080fd5b816020840160208301376000602083830101528093505050509250929050565b64ffffffffff8116811461407857600080fd5b600080604083850312156141d657600080fd5b8235915060208301356140af816141b0565b6000602082840312156141fa57600080fd5b81356127c5816141b0565b60006020828403121561421757600080fd5b5035919050565b80356001600160401b038116811461423557600080fd5b919050565b65ffffffffffff8116811461407857600080fd5b6000806000806080858703121561426457600080fd5b843593506142746020860161421e565b92506142826040860161421e565b915060608501356142928161423a565b939692955090935050565b6000602082840312156142af57600080fd5b81356127c581614066565b61ffff8116811461407857600080fd5b60008060008060008060c087890312156142e357600080fd5b86356142ee816142ba565b955060208701356142fe81614066565b9450604087013561430e8161423a565b9350606087013561431e816141b0565b9250608087013561432e81614066565b915060a087013561433e81614066565b809150509295509295509295565b6000806040838503121561435f57600080fd5b823561436a81614066565b91506143786020840161421e565b90509250929050565b6000806040838503121561439457600080fd5b823591506143786020840161421e565b600080600080600060a086880312156143bc57600080fd5b85356143c781614066565b94506143d56020870161421e565b93506143e36040870161421e565b925060608601356143f3816141b0565b9150608086013561440381614066565b809150509295509295909350565b6001600160a01b038116811461407857600080fd5b60006020828403121561443857600080fd5b81356127c581614411565b6000806000806080858703121561445957600080fd5b8435614464816141b0565b9350602085013561447481614411565b9250604085013561448481614411565b9150606085013561429281614411565b600080604083850312156144a757600080fd5b82356144b281614066565b915060208301356140af8161423a565b6000806000606084860312156144d757600080fd5b83356144e281614066565b92506144f06020850161421e565b91506144fe6040850161421e565b90509250925092565b60006020828403121561451957600080fd5b815180151581146127c557600080fd5b60208082526026908201527f41432e6f6e6c794469726563744b65657065723a206e6f74206469726563742060408201526535b2b2b832b960d11b606082015260800190565b6020808252601d908201527f424f532e736861726545786973743a2073736e204e4f54206578697374000000604082015260600190565b634e487b7160e01b600052601160045260246000fd5b600082198211156145cf576145cf6145a6565b500190565b6000602082840312156145e657600080fd5b81516127c581614066565b60006020828403121561460357600080fd5b81516001600160881b0319811681146127c557600080fd5b60006020828403121561462d57600080fd5b81516127c5816141b0565b60006020828403121561464a57600080fd5b81516127c581614411565b60208082526036908201527f41432e6f776e65724f72446972656374426f6f6b65657065723a206e6569746860408201527532b91037bbb732b9103737b9103137b7b5b2b2b832b960511b606082015260800190565b60208082526011908201527020a19737b59d103737ba1025b2b2b832b960791b604082015260600190565b6000602082840312156146e857600080fd5b81516127c58161423a565b60005b8381101561470e5781810151838201526020016146f6565b83811115613d565750506000910152565b600081518084526147378160208601602086016146f3565b601f01601f19169290920160200192915050565b60608152600061475e606083018661471f565b905083602083015261ffff83166040830152949350505050565b60006020828403121561478a57600080fd5b81516001600160401b038111156147a057600080fd5b8201601f810184136147b157600080fd5b80516147bf61417682614100565b8181528560208385010111156147d457600080fd5b61389e8260208301602086016146f3565b6060815260006147f8606083018661471f565b905083602083015263ffffffff83166040830152949350505050565b606081526000614827606083018661471f565b905083602083015265ffffffffffff83166040830152949350505050565b606081526000614858606083018661471f565b905083602083015264ffffffffff83166040830152949350505050565b6020815260006127c5602083018461471f565b60006020828403121561489a57600080fd5b5051919050565b6020808252818101527f424f532e6e6f74467265657a65643a20736861726520697320667265657a6564604082015260600190565b60006001600160401b03838116908316818110156148f6576148f66145a6565b039392505050565b60006020828403121561491057600080fd5b81516127c5816142ba565b60006001600160401b0380831681851680830382111561493d5761493d6145a6565b01949350505050565b600082821015614958576149586145a6565b500390565b60006001600160401b038083168181141561497a5761497a6145a6565b600101939250505056fe05b8ccbb9d4d8fb16ea74ce3c29a41f1b461fbdaff4714a0d9a8eb05499746bda2646970667358221220e69d5f68e906aa70f26c3cc6622fa5d0d63c59bed7b089f4d4a91470e52d120c64736f6c63430008080033",
    "sourcePath": "/Users/kaptain/github.com/hardhat/comboox/contracts/books/bos/BookOfShares.sol",
    "compiler": {
        "name": "solc",
        "version": "0.8.8+commit.dddeac2f"
    },
    "functionHashes": {
        "abandonRole(bytes32)": "3da9a600",
        "cleanPar(uint32)": "b8558d8f",
        "counterOfClasses()": "544f1ba2",
        "counterOfShares()": "4a0ca0d6",
        "createShareNumber(uint16,uint32,uint48,uint40,uint32,uint32)": "564633bf",
        "decreaseCapital(uint32,uint64,uint64)": "c54ecfa8",
        "decreaseCleanPar(uint32,uint64)": "5a31dd56",
        "finalized()": "b3f05b97",
        "getBookeeper()": "ed211023",
        "getGeneralCounsel()": "103f6edd",
        "getLocker(bytes32)": "851ad654",
        "getOwner()": "893d20e8",
        "getShare(uint32)": "52aadfd7",
        "grantRole(bytes32,uint40)": "74099815",
        "hasRole(bytes32,uint40)": "79b2ec12",
        "increaseCleanPar(uint32,uint64)": "61cd252b",
        "init(uint40,address,address,address)": "821ee8ea",
        "isShare(uint32)": "b766b439",
        "issueShare(bytes32,uint64,uint64,uint48)": "51ce4ecb",
        "lockContents()": "f045a769",
        "renounceRole(bytes32)": "8bb9c5bf",
        "requestPaidInCapital(bytes32,string)": "04726d7a",
        "revokeRole(bytes32,uint40)": "17c51fec",
        "setDirectKeeper(address)": "6be8496f",
        "setGeneralCounsel(uint40)": "3178a9a9",
        "setOwner(uint40)": "7ba706e8",
        "setPayInAmount(bytes32,uint64)": "5f94411d",
        "setROM()": "07473d7b",
        "setRoleAdmin(bytes32,uint40)": "16dc517e",
        "transferShare(uint32,uint64,uint64,uint40,uint32)": "608c4721",
        "updatePaidInDeadline(uint32,uint48)": "869eb745",
        "updateStateOfShare(uint32,uint8)": "01a87033",
        "withdrawPayInAmount(bytes32)": "e12388f2"
    },
    "gasEstimates": {
        "creation": {
            "codeDepositCost": "3781200",
            "executionCost": "4279",
            "totalCost": "3785479"
        },
        "external": {
            "abandonRole(bytes32)": "infinite",
            "cleanPar(uint32)": "4827",
            "counterOfClasses()": "infinite",
            "counterOfShares()": "infinite",
            "createShareNumber(uint16,uint32,uint48,uint40,uint32,uint32)": "infinite",
            "decreaseCapital(uint32,uint64,uint64)": "infinite",
            "decreaseCleanPar(uint32,uint64)": "infinite",
            "finalized()": "2416",
            "getBookeeper()": "infinite",
            "getGeneralCounsel()": "infinite",
            "getLocker(bytes32)": "2566",
            "getOwner()": "infinite",
            "getShare(uint32)": "7544",
            "grantRole(bytes32,uint40)": "infinite",
            "hasRole(bytes32,uint40)": "infinite",
            "increaseCleanPar(uint32,uint64)": "infinite",
            "init(uint40,address,address,address)": "infinite",
            "isShare(uint32)": "2630",
            "issueShare(bytes32,uint64,uint64,uint48)": "infinite",
            "lockContents()": "infinite",
            "renounceRole(bytes32)": "infinite",
            "requestPaidInCapital(bytes32,string)": "infinite",
            "revokeRole(bytes32,uint40)": "infinite",
            "setDirectKeeper(address)": "infinite",
            "setGeneralCounsel(uint40)": "infinite",
            "setOwner(uint40)": "infinite",
            "setPayInAmount(bytes32,uint64)": "infinite",
            "setROM()": "infinite",
            "setRoleAdmin(bytes32,uint40)": "infinite",
            "transferShare(uint32,uint64,uint64,uint40,uint32)": "infinite",
            "updatePaidInDeadline(uint32,uint48)": "infinite",
            "updateStateOfShare(uint32,uint8)": "infinite",
            "withdrawPayInAmount(bytes32)": "infinite"
        },
        "internal": {
            "_assignSSN(bytes32,uint48)": "infinite",
            "_decreaseShareAmount(uint32,uint64,uint64)": "infinite",
            "_deregisterShare(uint32)": "32603",
            "_increaseCounterOfClasses()": "26651",
            "_increaseCounterOfShares()": "26584",
            "_issueShare(bytes32,uint64,uint64,uint48)": "infinite",
            "_payInCapital(uint32,uint64)": "infinite",
            "_subAmountFromShare(uint32,uint64,uint64)": "infinite"
        }
    }
}