{
    "contractName": "BookOfShares",
    "abi": [
        {
            "anonymous": false,
            "inputs": [
                {
                    "indexed": true,
                    "internalType": "uint256",
                    "name": "seq",
                    "type": "uint256"
                },
                {
                    "indexed": false,
                    "internalType": "uint64",
                    "name": "paid",
                    "type": "uint64"
                },
                {
                    "indexed": false,
                    "internalType": "uint64",
                    "name": "par",
                    "type": "uint64"
                }
            ],
            "name": "DecreaseCleanAmt",
            "type": "event"
        },
        {
            "anonymous": false,
            "inputs": [
                {
                    "indexed": true,
                    "internalType": "uint256",
                    "name": "seq",
                    "type": "uint256"
                }
            ],
            "name": "DeregisterShare",
            "type": "event"
        },
        {
            "anonymous": false,
            "inputs": [
                {
                    "indexed": true,
                    "internalType": "uint256",
                    "name": "seq",
                    "type": "uint256"
                },
                {
                    "indexed": false,
                    "internalType": "uint64",
                    "name": "paid",
                    "type": "uint64"
                },
                {
                    "indexed": false,
                    "internalType": "uint64",
                    "name": "par",
                    "type": "uint64"
                }
            ],
            "name": "IncreaseCleanAmt",
            "type": "event"
        },
        {
            "anonymous": false,
            "inputs": [
                {
                    "indexed": false,
                    "internalType": "uint256",
                    "name": "owner",
                    "type": "uint256"
                },
                {
                    "indexed": false,
                    "internalType": "address",
                    "name": "directKeeper",
                    "type": "address"
                },
                {
                    "indexed": false,
                    "internalType": "address",
                    "name": "regCenter",
                    "type": "address"
                },
                {
                    "indexed": false,
                    "internalType": "address",
                    "name": "generalKeeper",
                    "type": "address"
                }
            ],
            "name": "Init",
            "type": "event"
        },
        {
            "anonymous": false,
            "inputs": [
                {
                    "indexed": true,
                    "internalType": "uint256",
                    "name": "seq",
                    "type": "uint256"
                },
                {
                    "indexed": false,
                    "internalType": "uint64",
                    "name": "paid",
                    "type": "uint64"
                },
                {
                    "indexed": false,
                    "internalType": "uint64",
                    "name": "par",
                    "type": "uint64"
                }
            ],
            "name": "IssueShare",
            "type": "event"
        },
        {
            "anonymous": false,
            "inputs": [],
            "name": "LockContents",
            "type": "event"
        },
        {
            "anonymous": false,
            "inputs": [
                {
                    "indexed": true,
                    "internalType": "uint256",
                    "name": "seq",
                    "type": "uint256"
                },
                {
                    "indexed": false,
                    "internalType": "uint64",
                    "name": "amount",
                    "type": "uint64"
                },
                {
                    "indexed": false,
                    "internalType": "uint48",
                    "name": "paidInDate",
                    "type": "uint48"
                }
            ],
            "name": "PayInCapital",
            "type": "event"
        },
        {
            "anonymous": false,
            "inputs": [
                {
                    "indexed": false,
                    "internalType": "address",
                    "name": "keeper",
                    "type": "address"
                }
            ],
            "name": "SetDirectKeeper",
            "type": "event"
        },
        {
            "anonymous": false,
            "inputs": [
                {
                    "indexed": false,
                    "internalType": "uint256",
                    "name": "acct",
                    "type": "uint256"
                }
            ],
            "name": "SetGeneralCounsel",
            "type": "event"
        },
        {
            "anonymous": false,
            "inputs": [
                {
                    "indexed": false,
                    "internalType": "address",
                    "name": "gk",
                    "type": "address"
                }
            ],
            "name": "SetGeneralKeeper",
            "type": "event"
        },
        {
            "anonymous": false,
            "inputs": [
                {
                    "indexed": false,
                    "internalType": "uint256",
                    "name": "acct",
                    "type": "uint256"
                }
            ],
            "name": "SetOwner",
            "type": "event"
        },
        {
            "anonymous": false,
            "inputs": [
                {
                    "indexed": true,
                    "internalType": "bytes32",
                    "name": "sn",
                    "type": "bytes32"
                },
                {
                    "indexed": false,
                    "internalType": "uint64",
                    "name": "amount",
                    "type": "uint64"
                }
            ],
            "name": "SetPayInAmt",
            "type": "event"
        },
        {
            "anonymous": false,
            "inputs": [
                {
                    "indexed": false,
                    "internalType": "address",
                    "name": "rc",
                    "type": "address"
                }
            ],
            "name": "SetRegCenter",
            "type": "event"
        },
        {
            "anonymous": false,
            "inputs": [
                {
                    "indexed": true,
                    "internalType": "uint256",
                    "name": "seq",
                    "type": "uint256"
                },
                {
                    "indexed": false,
                    "internalType": "uint64",
                    "name": "paid",
                    "type": "uint64"
                },
                {
                    "indexed": false,
                    "internalType": "uint64",
                    "name": "par",
                    "type": "uint64"
                }
            ],
            "name": "SubAmountFromShare",
            "type": "event"
        },
        {
            "anonymous": false,
            "inputs": [
                {
                    "indexed": true,
                    "internalType": "uint256",
                    "name": "seq",
                    "type": "uint256"
                },
                {
                    "indexed": false,
                    "internalType": "uint48",
                    "name": "paidInDeadline",
                    "type": "uint48"
                }
            ],
            "name": "UpdatePaidInDeadline",
            "type": "event"
        },
        {
            "anonymous": false,
            "inputs": [
                {
                    "indexed": true,
                    "internalType": "uint256",
                    "name": "seq",
                    "type": "uint256"
                },
                {
                    "indexed": false,
                    "internalType": "uint8",
                    "name": "state",
                    "type": "uint8"
                }
            ],
            "name": "UpdateStateOfShare",
            "type": "event"
        },
        {
            "anonymous": false,
            "inputs": [
                {
                    "indexed": true,
                    "internalType": "bytes32",
                    "name": "sn",
                    "type": "bytes32"
                }
            ],
            "name": "WithdrawPayInAmt",
            "type": "event"
        },
        {
            "inputs": [
                {
                    "internalType": "bytes32",
                    "name": "role",
                    "type": "bytes32"
                }
            ],
            "name": "abandonRole",
            "outputs": [],
            "stateMutability": "nonpayable",
            "type": "function"
        },
        {
            "inputs": [],
            "name": "counterOfClasses",
            "outputs": [
                {
                    "internalType": "uint16",
                    "name": "",
                    "type": "uint16"
                }
            ],
            "stateMutability": "view",
            "type": "function"
        },
        {
            "inputs": [],
            "name": "counterOfShares",
            "outputs": [
                {
                    "internalType": "uint32",
                    "name": "",
                    "type": "uint32"
                }
            ],
            "stateMutability": "view",
            "type": "function"
        },
        {
            "inputs": [
                {
                    "internalType": "uint256",
                    "name": "seq",
                    "type": "uint256"
                },
                {
                    "internalType": "uint64",
                    "name": "paid",
                    "type": "uint64"
                },
                {
                    "internalType": "uint64",
                    "name": "par",
                    "type": "uint64"
                }
            ],
            "name": "decreaseCapital",
            "outputs": [],
            "stateMutability": "nonpayable",
            "type": "function"
        },
        {
            "inputs": [
                {
                    "internalType": "uint256",
                    "name": "seq",
                    "type": "uint256"
                },
                {
                    "internalType": "uint64",
                    "name": "paid",
                    "type": "uint64"
                },
                {
                    "internalType": "uint64",
                    "name": "par",
                    "type": "uint64"
                }
            ],
            "name": "decreaseCleanAmt",
            "outputs": [],
            "stateMutability": "nonpayable",
            "type": "function"
        },
        {
            "inputs": [],
            "name": "finalized",
            "outputs": [
                {
                    "internalType": "bool",
                    "name": "",
                    "type": "bool"
                }
            ],
            "stateMutability": "view",
            "type": "function"
        },
        {
            "inputs": [
                {
                    "internalType": "uint256",
                    "name": "seq",
                    "type": "uint256"
                }
            ],
            "name": "getBodyOfShare",
            "outputs": [
                {
                    "components": [
                        {
                            "internalType": "uint64",
                            "name": "paid",
                            "type": "uint64"
                        },
                        {
                            "internalType": "uint64",
                            "name": "par",
                            "type": "uint64"
                        },
                        {
                            "internalType": "uint64",
                            "name": "cleanPaid",
                            "type": "uint64"
                        },
                        {
                            "internalType": "uint64",
                            "name": "cleanPar",
                            "type": "uint64"
                        }
                    ],
                    "internalType": "struct IBookOfShares.Body",
                    "name": "body",
                    "type": "tuple"
                }
            ],
            "stateMutability": "view",
            "type": "function"
        },
        {
            "inputs": [],
            "name": "getBookeeper",
            "outputs": [
                {
                    "internalType": "address",
                    "name": "",
                    "type": "address"
                }
            ],
            "stateMutability": "view",
            "type": "function"
        },
        {
            "inputs": [],
            "name": "getGeneralCounsel",
            "outputs": [
                {
                    "internalType": "uint40",
                    "name": "",
                    "type": "uint40"
                }
            ],
            "stateMutability": "view",
            "type": "function"
        },
        {
            "inputs": [
                {
                    "internalType": "uint256",
                    "name": "seq",
                    "type": "uint256"
                }
            ],
            "name": "getHeadOfShare",
            "outputs": [
                {
                    "components": [
                        {
                            "internalType": "uint16",
                            "name": "class",
                            "type": "uint16"
                        },
                        {
                            "internalType": "uint32",
                            "name": "seq",
                            "type": "uint32"
                        },
                        {
                            "internalType": "uint32",
                            "name": "preSeq",
                            "type": "uint32"
                        },
                        {
                            "internalType": "uint48",
                            "name": "issueDate",
                            "type": "uint48"
                        },
                        {
                            "internalType": "uint48",
                            "name": "paidInDeadline",
                            "type": "uint48"
                        },
                        {
                            "internalType": "uint40",
                            "name": "shareholder",
                            "type": "uint40"
                        },
                        {
                            "internalType": "uint32",
                            "name": "price",
                            "type": "uint32"
                        },
                        {
                            "internalType": "uint8",
                            "name": "state",
                            "type": "uint8"
                        }
                    ],
                    "internalType": "struct IBookOfShares.Head",
                    "name": "head",
                    "type": "tuple"
                }
            ],
            "stateMutability": "view",
            "type": "function"
        },
        {
            "inputs": [
                {
                    "internalType": "bytes32",
                    "name": "hashLock",
                    "type": "bytes32"
                }
            ],
            "name": "getLocker",
            "outputs": [
                {
                    "internalType": "uint64",
                    "name": "amount",
                    "type": "uint64"
                }
            ],
            "stateMutability": "view",
            "type": "function"
        },
        {
            "inputs": [],
            "name": "getOwner",
            "outputs": [
                {
                    "internalType": "uint40",
                    "name": "",
                    "type": "uint40"
                }
            ],
            "stateMutability": "view",
            "type": "function"
        },
        {
            "inputs": [
                {
                    "internalType": "uint256",
                    "name": "seq",
                    "type": "uint256"
                }
            ],
            "name": "getShare",
            "outputs": [
                {
                    "components": [
                        {
                            "components": [
                                {
                                    "internalType": "uint16",
                                    "name": "class",
                                    "type": "uint16"
                                },
                                {
                                    "internalType": "uint32",
                                    "name": "seq",
                                    "type": "uint32"
                                },
                                {
                                    "internalType": "uint32",
                                    "name": "preSeq",
                                    "type": "uint32"
                                },
                                {
                                    "internalType": "uint48",
                                    "name": "issueDate",
                                    "type": "uint48"
                                },
                                {
                                    "internalType": "uint48",
                                    "name": "paidInDeadline",
                                    "type": "uint48"
                                },
                                {
                                    "internalType": "uint40",
                                    "name": "shareholder",
                                    "type": "uint40"
                                },
                                {
                                    "internalType": "uint32",
                                    "name": "price",
                                    "type": "uint32"
                                },
                                {
                                    "internalType": "uint8",
                                    "name": "state",
                                    "type": "uint8"
                                }
                            ],
                            "internalType": "struct IBookOfShares.Head",
                            "name": "head",
                            "type": "tuple"
                        },
                        {
                            "components": [
                                {
                                    "internalType": "uint64",
                                    "name": "paid",
                                    "type": "uint64"
                                },
                                {
                                    "internalType": "uint64",
                                    "name": "par",
                                    "type": "uint64"
                                },
                                {
                                    "internalType": "uint64",
                                    "name": "cleanPaid",
                                    "type": "uint64"
                                },
                                {
                                    "internalType": "uint64",
                                    "name": "cleanPar",
                                    "type": "uint64"
                                }
                            ],
                            "internalType": "struct IBookOfShares.Body",
                            "name": "body",
                            "type": "tuple"
                        }
                    ],
                    "internalType": "struct IBookOfShares.Share",
                    "name": "share",
                    "type": "tuple"
                }
            ],
            "stateMutability": "view",
            "type": "function"
        },
        {
            "inputs": [
                {
                    "internalType": "bytes32",
                    "name": "role",
                    "type": "bytes32"
                },
                {
                    "internalType": "uint256",
                    "name": "acct",
                    "type": "uint256"
                }
            ],
            "name": "grantRole",
            "outputs": [],
            "stateMutability": "nonpayable",
            "type": "function"
        },
        {
            "inputs": [
                {
                    "internalType": "bytes32",
                    "name": "role",
                    "type": "bytes32"
                },
                {
                    "internalType": "uint256",
                    "name": "acct",
                    "type": "uint256"
                }
            ],
            "name": "hasRole",
            "outputs": [
                {
                    "internalType": "bool",
                    "name": "",
                    "type": "bool"
                }
            ],
            "stateMutability": "view",
            "type": "function"
        },
        {
            "inputs": [
                {
                    "internalType": "uint256",
                    "name": "seq",
                    "type": "uint256"
                },
                {
                    "internalType": "uint64",
                    "name": "paid",
                    "type": "uint64"
                },
                {
                    "internalType": "uint64",
                    "name": "par",
                    "type": "uint64"
                }
            ],
            "name": "increaseCleanAmt",
            "outputs": [],
            "stateMutability": "nonpayable",
            "type": "function"
        },
        {
            "inputs": [
                {
                    "internalType": "uint256",
                    "name": "owner",
                    "type": "uint256"
                },
                {
                    "internalType": "address",
                    "name": "directKeeper",
                    "type": "address"
                },
                {
                    "internalType": "address",
                    "name": "regCenter",
                    "type": "address"
                },
                {
                    "internalType": "address",
                    "name": "generalKeeper",
                    "type": "address"
                }
            ],
            "name": "init",
            "outputs": [],
            "stateMutability": "nonpayable",
            "type": "function"
        },
        {
            "inputs": [
                {
                    "internalType": "uint256",
                    "name": "seq",
                    "type": "uint256"
                }
            ],
            "name": "isShare",
            "outputs": [
                {
                    "internalType": "bool",
                    "name": "",
                    "type": "bool"
                }
            ],
            "stateMutability": "view",
            "type": "function"
        },
        {
            "inputs": [
                {
                    "internalType": "bytes32",
                    "name": "shareNumber",
                    "type": "bytes32"
                },
                {
                    "internalType": "uint64",
                    "name": "paid",
                    "type": "uint64"
                },
                {
                    "internalType": "uint64",
                    "name": "par",
                    "type": "uint64"
                }
            ],
            "name": "issueShare",
            "outputs": [],
            "stateMutability": "nonpayable",
            "type": "function"
        },
        {
            "inputs": [],
            "name": "lockContents",
            "outputs": [],
            "stateMutability": "nonpayable",
            "type": "function"
        },
        {
            "inputs": [
                {
                    "components": [
                        {
                            "internalType": "uint16",
                            "name": "class",
                            "type": "uint16"
                        },
                        {
                            "internalType": "uint32",
                            "name": "seq",
                            "type": "uint32"
                        },
                        {
                            "internalType": "uint32",
                            "name": "preSeq",
                            "type": "uint32"
                        },
                        {
                            "internalType": "uint48",
                            "name": "issueDate",
                            "type": "uint48"
                        },
                        {
                            "internalType": "uint48",
                            "name": "paidInDeadline",
                            "type": "uint48"
                        },
                        {
                            "internalType": "uint40",
                            "name": "shareholder",
                            "type": "uint40"
                        },
                        {
                            "internalType": "uint32",
                            "name": "price",
                            "type": "uint32"
                        },
                        {
                            "internalType": "uint8",
                            "name": "state",
                            "type": "uint8"
                        }
                    ],
                    "internalType": "struct IBookOfShares.Head",
                    "name": "head",
                    "type": "tuple"
                },
                {
                    "internalType": "uint64",
                    "name": "paid",
                    "type": "uint64"
                },
                {
                    "internalType": "uint64",
                    "name": "par",
                    "type": "uint64"
                }
            ],
            "name": "regShare",
            "outputs": [],
            "stateMutability": "nonpayable",
            "type": "function"
        },
        {
            "inputs": [
                {
                    "internalType": "bytes32",
                    "name": "role",
                    "type": "bytes32"
                }
            ],
            "name": "renounceRole",
            "outputs": [],
            "stateMutability": "nonpayable",
            "type": "function"
        },
        {
            "inputs": [
                {
                    "internalType": "bytes32",
                    "name": "hashLock",
                    "type": "bytes32"
                },
                {
                    "internalType": "string",
                    "name": "hashKey",
                    "type": "string"
                }
            ],
            "name": "requestPaidInCapital",
            "outputs": [],
            "stateMutability": "nonpayable",
            "type": "function"
        },
        {
            "inputs": [
                {
                    "internalType": "bytes32",
                    "name": "role",
                    "type": "bytes32"
                },
                {
                    "internalType": "uint256",
                    "name": "acct",
                    "type": "uint256"
                }
            ],
            "name": "revokeRole",
            "outputs": [],
            "stateMutability": "nonpayable",
            "type": "function"
        },
        {
            "inputs": [
                {
                    "internalType": "address",
                    "name": "keeper",
                    "type": "address"
                }
            ],
            "name": "setDirectKeeper",
            "outputs": [],
            "stateMutability": "nonpayable",
            "type": "function"
        },
        {
            "inputs": [
                {
                    "internalType": "uint256",
                    "name": "acct",
                    "type": "uint256"
                }
            ],
            "name": "setGeneralCounsel",
            "outputs": [],
            "stateMutability": "nonpayable",
            "type": "function"
        },
        {
            "inputs": [
                {
                    "internalType": "uint256",
                    "name": "acct",
                    "type": "uint256"
                }
            ],
            "name": "setOwner",
            "outputs": [],
            "stateMutability": "nonpayable",
            "type": "function"
        },
        {
            "inputs": [
                {
                    "internalType": "bytes32",
                    "name": "hashLock",
                    "type": "bytes32"
                },
                {
                    "internalType": "uint64",
                    "name": "amount",
                    "type": "uint64"
                }
            ],
            "name": "setPayInAmt",
            "outputs": [],
            "stateMutability": "nonpayable",
            "type": "function"
        },
        {
            "inputs": [
                {
                    "internalType": "bytes32",
                    "name": "role",
                    "type": "bytes32"
                },
                {
                    "internalType": "uint256",
                    "name": "acct",
                    "type": "uint256"
                }
            ],
            "name": "setRoleAdmin",
            "outputs": [],
            "stateMutability": "nonpayable",
            "type": "function"
        },
        {
            "inputs": [
                {
                    "internalType": "bytes32",
                    "name": "sn",
                    "type": "bytes32"
                }
            ],
            "name": "snParser",
            "outputs": [
                {
                    "components": [
                        {
                            "internalType": "uint16",
                            "name": "class",
                            "type": "uint16"
                        },
                        {
                            "internalType": "uint32",
                            "name": "seq",
                            "type": "uint32"
                        },
                        {
                            "internalType": "uint32",
                            "name": "preSeq",
                            "type": "uint32"
                        },
                        {
                            "internalType": "uint48",
                            "name": "issueDate",
                            "type": "uint48"
                        },
                        {
                            "internalType": "uint48",
                            "name": "paidInDeadline",
                            "type": "uint48"
                        },
                        {
                            "internalType": "uint40",
                            "name": "shareholder",
                            "type": "uint40"
                        },
                        {
                            "internalType": "uint32",
                            "name": "price",
                            "type": "uint32"
                        },
                        {
                            "internalType": "uint8",
                            "name": "state",
                            "type": "uint8"
                        }
                    ],
                    "internalType": "struct IBookOfShares.Head",
                    "name": "head",
                    "type": "tuple"
                }
            ],
            "stateMutability": "pure",
            "type": "function"
        },
        {
            "inputs": [
                {
                    "internalType": "uint256",
                    "name": "seq",
                    "type": "uint256"
                },
                {
                    "internalType": "uint64",
                    "name": "paid",
                    "type": "uint64"
                },
                {
                    "internalType": "uint64",
                    "name": "par",
                    "type": "uint64"
                },
                {
                    "internalType": "uint40",
                    "name": "to",
                    "type": "uint40"
                },
                {
                    "internalType": "uint32",
                    "name": "price",
                    "type": "uint32"
                }
            ],
            "name": "transferShare",
            "outputs": [],
            "stateMutability": "nonpayable",
            "type": "function"
        },
        {
            "inputs": [
                {
                    "internalType": "uint256",
                    "name": "seq",
                    "type": "uint256"
                },
                {
                    "internalType": "uint48",
                    "name": "paidInDeadline",
                    "type": "uint48"
                }
            ],
            "name": "updatePaidInDeadline",
            "outputs": [],
            "stateMutability": "nonpayable",
            "type": "function"
        },
        {
            "inputs": [
                {
                    "internalType": "uint256",
                    "name": "seq",
                    "type": "uint256"
                },
                {
                    "internalType": "uint8",
                    "name": "state",
                    "type": "uint8"
                }
            ],
            "name": "updateStateOfShare",
            "outputs": [],
            "stateMutability": "nonpayable",
            "type": "function"
        },
        {
            "inputs": [
                {
                    "internalType": "bytes32",
                    "name": "hashLock",
                    "type": "bytes32"
                }
            ],
            "name": "withdrawPayInAmt",
            "outputs": [],
            "stateMutability": "nonpayable",
            "type": "function"
        }
    ],
    "bytecode": "608060405234801561001057600080fd5b50613ec8806100206000396000f3fe608060405234801561001057600080fd5b50600436106102065760003560e01c8063851ad6541161011a578063bb51b378116100ad578063ed2110231161007c578063ed211023146104d4578063f045a769146104f4578063f0d6c109146104fc578063f814b8001461050f578063fbfad28e1461052257600080fd5b8063bb51b3781461047b578063cfb5a5f81461048e578063dc8492ce146104ae578063dc890da9146104c157600080fd5b80638bb9c5bf116100e95780638bb9c5bf1461042157806392c80eb714610434578063b3f05b9714610454578063ba5052cb1461046857600080fd5b8063851ad654146103bb57806385a7725f146103f357806388678a8e14610406578063893d20e81461041957600080fd5b80634bacf9611161019d57806358ebd89b1161016c57806358ebd89b1461034f5780636be8496f1461036f5780636ea6c824146103825780637e063c5a146103955780638041494e146103a857600080fd5b80634bacf961146102fb5780634fc3e83f1461030e5780635171ebd414610321578063544f1ba21461033457600080fd5b80631b6ea9f9116101d95780631b6ea9f9146102945780633da9a600146102a75780634a0ca0d6146102ba5780634a14beb1146102e857600080fd5b806304726d7a1461020b5780630c1d138b14610220578063103f6edd1461026357806319d61ad914610281575b600080fd5b61021e610219366004613762565b610535565b005b61024e61022e366004613800565b60009081526004602052604090205462010000900463ffffffff16151590565b60405190151581526020015b60405180910390f35b61026b6107e9565b60405164ffffffffff909116815260200161025a565b61021e61028f366004613819565b610875565b61021e6102a2366004613819565b610909565b61021e6102b5366004613800565b61092e565b6000805260046020908152600080516020613e738339815191525460405163ffffffff90911681520161025a565b61021e6102f6366004613800565b610a40565b61021e610309366004613857565b610c30565b61021e61031c3660046138a9565b610efb565b61021e61032f366004613819565b61104e565b61033c611073565b60405161ffff909116815260200161025a565b61036261035d366004613800565b61109f565b60405161025a91906138d5565b61021e61037d366004613929565b61115c565b61021e610390366004613857565b61120e565b61024e6103a3366004613819565b6114d7565b61021e6103b6366004613800565b611574565b6103db6103c9366004613800565b60009081526005602052604090205490565b6040516001600160401b03909116815260200161025a565b61021e610401366004613990565b611759565b61021e610414366004613a6b565b611b36565b61026b611c93565b61021e61042f366004613800565b611cce565b610447610442366004613800565b611d27565b60405161025a9190613b15565b60028054600160f01b900460ff161461024e565b61021e610476366004613800565b611e0e565b61021e610489366004613857565b611f71565b6104a161049c366004613800565b6122c3565b60405161025a9190613b24565b61021e6104bc366004613857565b612403565b61021e6104cf366004613b7b565b6125ae565b6104dc612691565b6040516001600160a01b03909116815260200161025a565b61021e612717565b61021e61050a366004613bce565b612935565b61021e61051d366004613c2e565b612b9a565b610447610530366004613800565b612ce0565b604051633b11adbf60e21b81526002600482015233602482015273__$364aad554dc80380f414546becdd2c1584$__9063ec46b6fc9060440160206040518083038186803b15801561058657600080fd5b505af415801561059a573d6000803e3d6000fd5b505050506040513d601f19601f820116820180604052508101906105be9190613c51565b6105e35760405162461bcd60e51b81526004016105da90613c73565b60405180910390fd5b60e082901c6000908152600460205260409020805442600160801b90910465ffffffffffff1610156106575760405162461bcd60e51b815260206004820152601b60248201527f424f532e525049433a206d69737365642070616964496e44617465000000000060448201526064016105da565b60208280519060200120901b63ffffffff1916602084901b63ffffffff1916146106b95760405162461bcd60e51b8152602060048201526013602482015272424f532e525049433a2077726f6e67206b657960681b60448201526064016105da565b6000838152600560205260409020546106d28282612d64565b6106da612f7f565b82546040516325b3f84560e21b8152600160b01b90910464ffffffffff1660048201526001600160401b038316602482015260006044820152600160648201526001600160a01b0391909116906396cfe11490608401600060405180830381600087803b15801561074a57600080fd5b505af115801561075e573d6000803e3d6000fd5b5050505061076a612f7f565b604051639a3ca24b60e01b81526001600160401b0383166004820152600060248201526001600160a01b039190911690639a3ca24b90604401600060405180830381600087803b1580156107bd57600080fd5b505af11580156107d1573d6000803e3d6000fd5b50505060009485525050600560205250506040812055565b60405163e8c0cc1d60e01b81526002600482015260009073__$364aad554dc80380f414546becdd2c1584$__9063e8c0cc1d906024015b60206040518083038186803b15801561083857600080fd5b505af415801561084c573d6000803e3d6000fd5b505050506040513d601f19601f820116820180604052508101906108709190613cb9565b905090565b73__$364aad554dc80380f414546becdd2c1584$__6382daafaa60028461089a612fd8565b6040516001600160e01b031960e086901b1681526004810193909352602483019190915264ffffffffff166044820152606481018490526084015b60006040518083038186803b1580156108ed57600080fd5b505af4158015610901573d6000803e3d6000fd5b505050505050565b73__$364aad554dc80380f414546becdd2c1584$__636320d75e60028461089a612fd8565b604051633b11adbf60e21b81526002600482015233602482015273__$364aad554dc80380f414546becdd2c1584$__9063ec46b6fc9060440160206040518083038186803b15801561097f57600080fd5b505af4158015610993573d6000803e3d6000fd5b505050506040513d601f19601f820116820180604052508101906109b79190613c51565b6109d35760405162461bcd60e51b81526004016105da90613c73565b60405163cc99e11b60e01b8152600260048201526024810182905273__$364aad554dc80380f414546becdd2c1584$__9063cc99e11b9060440160006040518083038186803b158015610a2557600080fd5b505af4158015610a39573d6000803e3d6000fd5b5050505050565b604051633b11adbf60e21b81526002600482015233602482015273__$364aad554dc80380f414546becdd2c1584$__9063ec46b6fc9060440160206040518083038186803b158015610a9157600080fd5b505af4158015610aa5573d6000803e3d6000fd5b505050506040513d601f19601f82011682018060405250810190610ac99190613c51565b80610b6e575073__$364aad554dc80380f414546becdd2c1584$__63fe2710866002610af3612fd8565b6040516001600160e01b031960e085901b168152600481019290925264ffffffffff16602482015260440160206040518083038186803b158015610b3657600080fd5b505af4158015610b4a573d6000803e3d6000fd5b505050506040513d601f19601f82011682018060405250810190610b6e9190613c51565b610b8a5760405162461bcd60e51b81526004016105da90613cd6565b604051632725ebef60e21b8152600260048201526024810182905273__$364aad554dc80380f414546becdd2c1584$__90639c97afbc9060440160006040518083038186803b158015610bdc57600080fd5b505af4158015610bf0573d6000803e3d6000fd5b505050507ff2735f34b69be1e6342dea95f9162f84d0db925fab655ca9f1f312ac8cbfc99d81604051610c2591815260200190565b60405180910390a150565b6001546040516335d2155560e11b81523360048201526001600160a01b0390911690636ba42aaa9060240160206040518083038186803b158015610c7357600080fd5b505afa158015610c87573d6000803e3d6000fd5b505050506040513d601f19601f82011682018060405250810190610cab9190613c51565b610cc75760405162461bcd60e51b81526004016105da90613d2c565b600083815260046020526040902054839062010000900463ffffffff16610d005760405162461bcd60e51b81526004016105da90613d57565b6000848152600460205260409020548490600160f81b900460ff1615610d385760405162461bcd60e51b81526004016105da90613d8e565b600085815260046020526040902060018101546001600160401b03600160801b90910481169086161115610dae5760405162461bcd60e51b815260206004820152601f60248201527f424f532e4443413a20494e53554646494349454e5420636c65616e506169640060448201526064016105da565b60018101546001600160401b03600160c01b90910481169085161115610e165760405162461bcd60e51b815260206004820152601e60248201527f424f532e4443413a20494e53554646494349454e5420636c65616e506172000060448201526064016105da565b604080516001600160401b0380881682528616602082015287917ffe1de08b9bf0dc0ad7d3c542036a3439b1aa918f2a75394ff3eb25ab505b63f0910160405180910390a2600181018054869190601090610e82908490600160801b90046001600160401b0316613ddb565b92506101000a8154816001600160401b0302191690836001600160401b03160217905550838160010160000160188282829054906101000a90046001600160401b0316610ecf9190613ddb565b92506101000a8154816001600160401b0302191690836001600160401b03160217905550505050505050565b604051633b11adbf60e21b81526002600482015233602482015273__$364aad554dc80380f414546becdd2c1584$__9063ec46b6fc9060440160206040518083038186803b158015610f4c57600080fd5b505af4158015610f60573d6000803e3d6000fd5b505050506040513d601f19601f82011682018060405250810190610f849190613c51565b610fa05760405162461bcd60e51b81526004016105da90613c73565b600082815260046020526040902054829062010000900463ffffffff16610fd95760405162461bcd60e51b81526004016105da90613d57565b60405165ffffffffffff8316815283907fb1d746b4269a9a2c553dca3e41e1d00ec56cc587654a944c80e775cc748ff33f9060200160405180910390a250600091825260046020526040909120805465ffffffffffff909216600160801b0265ffffffffffff60801b19909216919091179055565b73__$364aad554dc80380f414546becdd2c1584$__63ee98b31360028461089a612fd8565b600080526004602052600080516020613e7383398151915254600160401b90046001600160401b031690565b604080516080810182526000808252602082018190529181018290526060810191909152600082815260046020526040902054829062010000900463ffffffff166110fc5760405162461bcd60e51b81526004016105da90613d57565b505060009081526004602090815260409182902082516080810184526001909101546001600160401b038082168352600160401b8204811693830193909352600160801b8104831693820193909352600160c01b90920416606082015290565b604051630f07232560e01b8152600260048201523360248201526001600160a01b038216604482015273__$364aad554dc80380f414546becdd2c1584$__90630f0723259060640160006040518083038186803b1580156111bc57600080fd5b505af41580156111d0573d6000803e3d6000fd5b50506040516001600160a01b03841681527fe435cbeab64e4eae6497b9d8289704bd709d624a80704ef3ca9af777534bc6ec92506020019050610c25565b6001546040516335d2155560e11b81523360048201526001600160a01b0390911690636ba42aaa9060240160206040518083038186803b15801561125157600080fd5b505afa158015611265573d6000803e3d6000fd5b505050506040513d601f19601f820116820180604052508101906112899190613c51565b6112a55760405162461bcd60e51b81526004016105da90613d2c565b600083815260046020526040902054839062010000900463ffffffff166112de5760405162461bcd60e51b81526004016105da90613d57565b6000848152600460205260409020548490600160f81b900460ff16156113165760405162461bcd60e51b81526004016105da90613d8e565b60008581526004602052604090206001810154611344908690600160801b90046001600160401b0316613e03565b60018201546001600160401b039182169116101561139d5760405162461bcd60e51b8152602060048201526016602482015275424f532e4943413a2070616964206f766572666c6f7760501b60448201526064016105da565b60018101546113bd908590600160c01b90046001600160401b0316613e03565b60018201546001600160401b03918216600160401b909104909116101561141e5760405162461bcd60e51b8152602060048201526015602482015274424f532e4943413a20706172206f766572666c6f7760581b60448201526064016105da565b604080516001600160401b0380881682528616602082015287917f3768d485f1715f89a9ff243971d0d2d36e4cb88f6dca1ac0ce7a5b9137686813910160405180910390a260018101805486919060109061148a908490600160801b90046001600160401b0316613e03565b92506101000a8154816001600160401b0302191690836001600160401b03160217905550838160010160000160188282829054906101000a90046001600160401b0316610ecf9190613e03565b604051632a3be56b60e21b815260026004820152602481018390526044810182905260009073__$364aad554dc80380f414546becdd2c1584$__9063a8ef95ac9060640160206040518083038186803b15801561153357600080fd5b505af4158015611547573d6000803e3d6000fd5b505050506040513d601f19601f8201168201806040525081019061156b9190613c51565b90505b92915050565b604051633b11adbf60e21b81526002600482015233602482015273__$364aad554dc80380f414546becdd2c1584$__9063ec46b6fc9060440160206040518083038186803b1580156115c557600080fd5b505af41580156115d9573d6000803e3d6000fd5b505050506040513d601f19601f820116820180604052508101906115fd9190613c51565b806116a2575073__$364aad554dc80380f414546becdd2c1584$__63fe2710866002611627612fd8565b6040516001600160e01b031960e085901b168152600481019290925264ffffffffff16602482015260440160206040518083038186803b15801561166a57600080fd5b505af415801561167e573d6000803e3d6000fd5b505050506040513d601f19601f820116820180604052508101906116a29190613c51565b6116be5760405162461bcd60e51b81526004016105da90613cd6565b60405163b6e38a2960e01b8152600260048201526024810182905273__$364aad554dc80380f414546becdd2c1584$__9063b6e38a299060440160006040518083038186803b15801561171057600080fd5b505af4158015611724573d6000803e3d6000fd5b505050507f8b6f40f36b4ae8cc5f55e895036457c43da4ab1f80f58c46f5ff0d72a650033b81604051610c2591815260200190565b6001546040516335d2155560e11b81523360048201526001600160a01b0390911690636ba42aaa9060240160206040518083038186803b15801561179c57600080fd5b505afa1580156117b0573d6000803e3d6000fd5b505050506040513d601f19601f820116820180604052508101906117d49190613c51565b6117f05760405162461bcd60e51b81526004016105da90613d2c565b6117f8613032565b600080516020613e738339815191525463ffffffff9081166020858101828152600092835260048252604092839020905183516001600160401b0388811682528716938101939093528351919416927f6c3d2799cf918b37e55e666ec4d7d16f8aa9bc71fc2a3abf548e23f6dad58724928290030190a2838160000160008201518160000160006101000a81548161ffff021916908361ffff16021790555060208201518160000160026101000a81548163ffffffff021916908363ffffffff16021790555060408201518160000160066101000a81548163ffffffff021916908363ffffffff160217905550606082015181600001600a6101000a81548165ffffffffffff021916908365ffffffffffff16021790555060808201518160000160106101000a81548165ffffffffffff021916908365ffffffffffff16021790555060a08201518160000160166101000a81548164ffffffffff021916908364ffffffffff16021790555060c082015181600001601b6101000a81548163ffffffff021916908363ffffffff16021790555060e082015181600001601f6101000a81548160ff021916908360ff1602179055509050506040518060800160405280846001600160401b03168152602001836001600160401b03168152602001846001600160401b03168152602001836001600160401b03168152508160010160008201518160000160006101000a8154816001600160401b0302191690836001600160401b0316021790555060208201518160000160086101000a8154816001600160401b0302191690836001600160401b0316021790555060408201518160000160106101000a8154816001600160401b0302191690836001600160401b0316021790555060608201518160000160186101000a8154816001600160401b0302191690836001600160401b03160217905550905050611ab7612f7f565b602085015160a08601516040516306bdc37360e41b815263ffffffff909216600483015264ffffffffff1660248201526001600160a01b039190911690636bdc3730906044015b600060405180830381600087803b158015611b1857600080fd5b505af1158015611b2c573d6000803e3d6000fd5b5050505050505050565b604051633b11adbf60e21b81526002600482015233602482015273__$364aad554dc80380f414546becdd2c1584$__9063ec46b6fc9060440160206040518083038186803b158015611b8757600080fd5b505af4158015611b9b573d6000803e3d6000fd5b505050506040513d601f19601f82011682018060405250810190611bbf9190613c51565b611bdb5760405162461bcd60e51b81526004016105da90613c73565b60008281526005602052604090205415611c375760405162461bcd60e51b815260206004820152601960248201527f424f532e535049413a206c6f636b6572206f636375706965640000000000000060448201526064016105da565b6040516001600160401b038216815282907f07cf5aba251486e6fa450848215ec3d7c33392f3960775aa2e0ba40e9d226aee9060200160405180910390a26000918252600560205260409091206001600160401b039091169055565b60405163987ad15360e01b81526002600482015260009073__$364aad554dc80380f414546becdd2c1584$__9063987ad15390602401610820565b6000611cd8612fd8565b60405163cc0d511b60e01b8152600260048201526024810184905264ffffffffff8216604482015290915073__$364aad554dc80380f414546becdd2c1584$__9063cc0d511b906064016108d5565b611d2f613672565b600082815260046020526040902054829062010000900463ffffffff16611d685760405162461bcd60e51b81526004016105da90613d57565b5050600090815260046020908152604091829020825161010081018452905461ffff8116825262010000810463ffffffff9081169383019390935266010000000000008104831693820193909352600160501b830465ffffffffffff9081166060830152600160801b8404166080820152600160b01b830464ffffffffff1660a0820152600160d81b830490911660c0820152600160f81b90910460ff1660e082015290565b604051633b11adbf60e21b81526002600482015233602482015273__$364aad554dc80380f414546becdd2c1584$__9063ec46b6fc9060440160206040518083038186803b158015611e5f57600080fd5b505af4158015611e73573d6000803e3d6000fd5b505050506040513d601f19601f82011682018060405250810190611e979190613c51565b611eb35760405162461bcd60e51b81526004016105da90613c73565b60e081901c60009081526004602052604090205442600160801b90910465ffffffffffff1610611f355760405162461bcd60e51b815260206004820152602760248201527f424f532e575049413a207374696c6c2077697468696e20656666656374697665604482015266081c195c9a5bd960ca1b60648201526084016105da565b60405181907f81d2c37d10691798e38a542ceea541c4cadacbd28ce1b4b0264d9f4fb074003090600090a2600090815260056020526040812055565b6001546040516335d2155560e11b81523360048201526001600160a01b0390911690636ba42aaa9060240160206040518083038186803b158015611fb457600080fd5b505afa158015611fc8573d6000803e3d6000fd5b505050506040513d601f19601f82011682018060405250810190611fec9190613c51565b6120085760405162461bcd60e51b81526004016105da90613d2c565b600061201384612ce0565b90508060a0015164ffffffffff16600014156120715760405162461bcd60e51b815260206004820152601860248201527f424f532e49533a207a65726f207368617265686f6c646572000000000000000060448201526064016105da565b606081015165ffffffffffff166120955765ffffffffffff421660608201526120f1565b42816060015165ffffffffffff1611156120f15760405162461bcd60e51b815260206004820152601860248201527f424f532e49533a2066757475726520697373756544617465000000000000000060448201526064016105da565b806080015165ffffffffffff16816060015165ffffffffffff16111561216d5760405162461bcd60e51b815260206004820152602b60248201527f424f532e49533a20697373756544617465204c41544552207468616e2070616960448201526a64496e446561646c696e6560a81b60648201526084016105da565b816001600160401b0316836001600160401b031611156121cf5760405162461bcd60e51b815260206004820152601c60248201527f424f532e49533a207061696420424947474552207468616e207061720000000060448201526064016105da565b6121d7612f7f565b60a0820151604051631089f5ed60e01b815264ffffffffff90911660048201526001600160a01b039190911690631089f5ed90602401600060405180830381600087803b15801561222757600080fd5b505af115801561223b573d6000803e3d6000fd5b50505050612247611073565b61ffff16816000015161ffff16111561227157612262613087565b61226a611073565b61ffff1681525b61227c818484611759565b612284612f7f565b604051639a3ca24b60e01b81526001600160401b038086166004830152841660248201526001600160a01b039190911690639a3ca24b90604401611afe565b6122cb6136b6565b600082815260046020526040902054829062010000900463ffffffff166123045760405162461bcd60e51b81526004016105da90613d57565b5050600090815260046020908152604091829020825161014081018452815461ffff811682860190815262010000820463ffffffff908116606080860191909152660100000000000084048216608080870191909152600160501b850465ffffffffffff90811660a0880152600160801b80870490911660c0880152600160b01b860464ffffffffff1660e0880152600160d81b8604909316610100870152600160f81b90940460ff16610120860152918452865192830187526001909401546001600160401b038082168452600160401b8204811684880152948104851696830196909652600160c01b909504909216938201939093529082015290565b604051633b11adbf60e21b81526002600482015233602482015273__$364aad554dc80380f414546becdd2c1584$__9063ec46b6fc9060440160206040518083038186803b15801561245457600080fd5b505af4158015612468573d6000803e3d6000fd5b505050506040513d601f19601f8201168201806040525081019061248c9190613c51565b6124a85760405162461bcd60e51b81526004016105da90613c73565b600083815260046020526040902054839062010000900463ffffffff166124e15760405162461bcd60e51b81526004016105da90613d57565b6000848152600460205260409020548490600160f81b900460ff16156125195760405162461bcd60e51b81526004016105da90613d8e565b60008581526004602052604090206125328186866130bd565b61253a612f7f565b6040516372cc64f960e01b81526001600160401b038088166004830152861660248201526001600160a01b0391909116906372cc64f990604401600060405180830381600087803b15801561258e57600080fd5b505af11580156125a2573d6000803e3d6000fd5b50505050505050505050565b6125b782613370565b6125c08161341f565b604051636cdd0edf60e11b815260026004820152602481018590526001600160a01b038416604482015273__$364aad554dc80380f414546becdd2c1584$__9063d9ba1dbe9060640160006040518083038186803b15801561262157600080fd5b505af4158015612635573d6000803e3d6000fd5b5050604080518781526001600160a01b038781166020830152868116828401528516606082015290517f3abb2418c66fe32ba9c883030a75ce583971d9af9192b9b74e44e67c5e6c8c1f9350908190036080019150a150505050565b604051633c3e56c160e11b81526002600482015260009073__$364aad554dc80380f414546becdd2c1584$__9063787cad829060240160206040518083038186803b1580156126df57600080fd5b505af41580156126f3573d6000803e3d6000fd5b505050506040513d601f19601f820116820180604052508101906108709190613e2e565b604051633b11adbf60e21b81526002600482015233602482015273__$364aad554dc80380f414546becdd2c1584$__9063ec46b6fc9060440160206040518083038186803b15801561276857600080fd5b505af415801561277c573d6000803e3d6000fd5b505050506040513d601f19601f820116820180604052508101906127a09190613c51565b6127bc5760405162461bcd60e51b81526004016105da90613c73565b600254600160f01b900460ff166001146128185760405162461bcd60e51b815260206004820181905260248201527f41432e6f6e6c7950656e64696e673a20446f632069732066696e616c697a656460448201526064016105da565b60405163cc99e11b60e01b815260026004820152684174746f726e65797360b81b602482015273__$364aad554dc80380f414546becdd2c1584$__9063cc99e11b9060440160006040518083038186803b15801561287557600080fd5b505af4158015612889573d6000803e3d6000fd5b5050604051632725ebef60e21b8152600260048201526000602482015273__$364aad554dc80380f414546becdd2c1584$__9250639c97afbc915060440160006040518083038186803b1580156128df57600080fd5b505af41580156128f3573d6000803e3d6000fd5b50506002805460ff60f01b1916600160f11b17905550506040517f35012b512309c322acf68632cd6cb702ff0e1d776fbe9394e38ffc13b434fe7590600090a1565b6001546040516335d2155560e11b81523360048201526001600160a01b0390911690636ba42aaa9060240160206040518083038186803b15801561297857600080fd5b505afa15801561298c573d6000803e3d6000fd5b505050506040513d601f19601f820116820180604052508101906129b09190613c51565b6129cc5760405162461bcd60e51b81526004016105da90613d2c565b600085815260046020526040902054859062010000900463ffffffff16612a055760405162461bcd60e51b81526004016105da90613d57565b6000868152600460205260409020548690600160f81b900460ff1615612a3d5760405162461bcd60e51b81526004016105da90613d8e565b600087815260046020526040902064ffffffffff8516612a9f5760405162461bcd60e51b815260206004820152601b60248201527f424f532e54533a207368617265686f6c646572206973205a45524f000000000060448201526064016105da565b612aaa8188886130bd565b612ab2612f7f565b604051631089f5ed60e01b815264ffffffffff871660048201526001600160a01b039190911690631089f5ed90602401600060405180830381600087803b158015612afc57600080fd5b505af1158015612b10573d6000803e3d6000fd5b50506040805161010081018252845461ffff8116825260006020830181905262010000820463ffffffff9081169484019490945265ffffffffffff4281166060850152600160801b909204909116608083015264ffffffffff8a1660a083015291881660c082015260e08101919091529150612b8f9050818989611759565b505050505050505050565b604051633b11adbf60e21b81526002600482015233602482015273__$364aad554dc80380f414546becdd2c1584$__9063ec46b6fc9060440160206040518083038186803b158015612beb57600080fd5b505af4158015612bff573d6000803e3d6000fd5b505050506040513d601f19601f82011682018060405250810190612c239190613c51565b612c3f5760405162461bcd60e51b81526004016105da90613c73565b600082815260046020526040902054829062010000900463ffffffff16612c785760405162461bcd60e51b81526004016105da90613d57565b60405160ff8316815283907fc642f56040f5e6aa8e4b5f4d4dcaa794fff6729880b1e4477d8c7e576931ac149060200160405180910390a250600091825260046020526040909120805460ff909216600160f81b026001600160f81b03909216919091179055565b612ce8613672565b50604080516101008101825260f083901c815260d083901c63ffffffff908116602083015260b084901c811692820192909252608083811c65ffffffffffff9081166060840152605085901c1690820152602883901c64ffffffffff1660a0820152600883901c90911660c082015260ff90911660e082015290565b8154429065ffffffffffff600160801b909104811690821610612dc95760405162461bcd60e51b815260206004820152601d60248201527f424f532e5049433a206d697373656420706179496e446561646c696e6500000060448201526064016105da565b60018301546001600160401b03600160401b8204811691612dec91859116613e03565b6001600160401b03161115612e435760405162461bcd60e51b815260206004820152601860248201527f424f532e5049433a20616d6f756e74206f766572666c6f77000000000000000060448201526064016105da565b8254604080516001600160401b038516815265ffffffffffff841660208201526201000090920463ffffffff16917ff11a097dcb6f4befacf73280fc6dfe6b0b177df38db202dd21623e5dfd911b16910160405180910390a2600183018054839190600090612ebc9084906001600160401b0316613e03565b92506101000a8154816001600160401b0302191690836001600160401b03160217905550818360010160000160108282829054906101000a90046001600160401b0316612f099190613e03565b92506101000a8154816001600160401b0302191690836001600160401b03160217905550818360010160000160188282829054906101000a90046001600160401b0316612f569190613e03565b92506101000a8154816001600160401b0302191690836001600160401b03160217905550505050565b60015460405163e0ff5b8b60e01b8152600760048201526000916001600160a01b03169063e0ff5b8b9060240160206040518083038186803b158015612fc457600080fd5b505afa1580156126f3573d6000803e3d6000fd5b60008054604051634de835e760e11b81523360048201526001600160a01b0390911690639bd06bce90602401602060405180830381600087803b15801561301e57600080fd5b505af115801561084c573d6000803e3d6000fd5b60008080526004602052600080516020613e7383398151915280546001600160401b03169161306083613e4b565b91906101000a8154816001600160401b0302191690836001600160401b0316021790555050565b600080526004602052600080516020613e738339815191528054600160401b90046001600160401b031690600861306083613e4b565b6000816001600160401b0316116131045760405162461bcd60e51b815260206004820152600b60248201526a706172206973205a45524f60a81b60448201526064016105da565b60018301546001600160401b03808316600160c01b90920416101561315a5760405162461bcd60e51b815260206004820152600c60248201526b706172204f564552464c4f5760a01b60448201526064016105da565b60018301546001600160401b03808416600160801b9092041610156131b65760405162461bcd60e51b8152602060048201526012602482015271636c65616e50616964204f564552464c4f5760701b60448201526064016105da565b806001600160401b0316826001600160401b0316111561320f5760405162461bcd60e51b81526020600482015260146024820152733830b4b2102124a3a3a2a9103a3430b7103830b960611b60448201526064016105da565b60018301546001600160401b03828116600160401b9092041614156132cf57613236612f7f565b835460405163a03510c560e01b815262010000820463ffffffff166004820152600160b01b90910464ffffffffff1660248201526001600160a01b03919091169063a03510c590604401600060405180830381600087803b15801561329a57600080fd5b505af11580156132ae573d6000803e3d6000fd5b505084546132ca925062010000900463ffffffff1690506134d6565b505050565b6132da838383613518565b6132e2612f7f565b83546040516325b3f84560e21b8152600160b01b90910464ffffffffff1660048201526001600160401b03808516602483015283166044820152600060648201526001600160a01b0391909116906396cfe11490608401600060405180830381600087803b15801561335357600080fd5b505af1158015613367573d6000803e3d6000fd5b50505050505050565b6000546001600160a01b0316156133c15760405162461bcd60e51b815260206004820152601560248201527430b63932b0b23c9039b2ba103932b3a1b2b73a32b960591b60448201526064016105da565b6040516001600160a01b03821681527f318da6c7624c71cbc0afe346c9d8827f119d0ecefb241a7b0c87217a076a8e029060200160405180910390a1600080546001600160a01b0319166001600160a01b0392909216919091179055565b6001546001600160a01b0316156134785760405162461bcd60e51b815260206004820152601960248201527f616c7265616479207365742067656e6572616c4b65657065720000000000000060448201526064016105da565b6040516001600160a01b03821681527fe513d3e0f0d0a3877029dcc588748679a7a3450ec1ec7ed56d96bd012c3e61aa9060200160405180910390a1600180546001600160a01b0319166001600160a01b0392909216919091179055565b60405181907fc78abdcdc72be6d8ffd42d13a36a8ca9061d1c9c8fdf739646950d9f869d53c290600090a2600090815260046020526040812081815560010155565b8254604080516001600160401b038086168252841660208201526201000090920463ffffffff16917f2a54ff18fcefc52233e2885a21b2b24c4f6b7deb0a116564b46dac5f9332720e910160405180910390a260018301805483919060009061358b9084906001600160401b0316613ddb565b92506101000a8154816001600160401b0302191690836001600160401b03160217905550808360010160000160088282829054906101000a90046001600160401b03166135d89190613ddb565b92506101000a8154816001600160401b0302191690836001600160401b03160217905550818360010160000160108282829054906101000a90046001600160401b03166136259190613ddb565b92506101000a8154816001600160401b0302191690836001600160401b03160217905550808360010160000160188282829054906101000a90046001600160401b0316612f569190613ddb565b6040805161010081018252600080825260208201819052918101829052606081018290526080810182905260a0810182905260c0810182905260e081019190915290565b60405180604001604052806136c9613672565b81526040805160808101825260008082526020828101829052928201819052606082015291015290565b634e487b7160e01b600052604160045260246000fd5b60405161010081016001600160401b038111828210171561372c5761372c6136f3565b60405290565b604051601f8201601f191681016001600160401b038111828210171561375a5761375a6136f3565b604052919050565b6000806040838503121561377557600080fd5b823591506020808401356001600160401b038082111561379457600080fd5b818601915086601f8301126137a857600080fd5b8135818111156137ba576137ba6136f3565b6137cc601f8201601f19168501613732565b915080825287848285010111156137e257600080fd5b80848401858401376000848284010152508093505050509250929050565b60006020828403121561381257600080fd5b5035919050565b6000806040838503121561382c57600080fd5b50508035926020909101359150565b80356001600160401b038116811461385257600080fd5b919050565b60008060006060848603121561386c57600080fd5b8335925061387c6020850161383b565b915061388a6040850161383b565b90509250925092565b803565ffffffffffff8116811461385257600080fd5b600080604083850312156138bc57600080fd5b823591506138cc60208401613893565b90509250929050565b6080810161156e828480516001600160401b03908116835260208083015182169084015260408083015182169084015260609182015116910152565b6001600160a01b038116811461392657600080fd5b50565b60006020828403121561393b57600080fd5b813561394681613911565b9392505050565b803563ffffffff8116811461385257600080fd5b64ffffffffff8116811461392657600080fd5b803561385281613961565b803560ff8116811461385257600080fd5b60008060008385036101408112156139a757600080fd5b610100808212156139b757600080fd5b6139bf613709565b9150853561ffff811681146139d357600080fd5b82526139e16020870161394d565b60208301526139f26040870161394d565b6040830152613a0360608701613893565b6060830152613a1460808701613893565b6080830152613a2560a08701613974565b60a0830152613a3660c0870161394d565b60c0830152613a4760e0870161397f565b60e0830152819450613a5a81870161383b565b9350505061388a610120850161383b565b60008060408385031215613a7e57600080fd5b823591506138cc6020840161383b565b61ffff8151168252602081015163ffffffff80821660208501528060408401511660408501525050606081015165ffffffffffff8082166060850152806080840151166080850152505064ffffffffff60a08201511660a083015260c0810151613b0060c084018263ffffffff169052565b5060e08101516132ca60e084018260ff169052565b610100810161156e8284613a8e565b600061018082019050613b38828451613a8e565b60209283015180516001600160401b0390811661010085015293810151841661012084015260408101518416610140840152606001519092166101609091015290565b60008060008060808587031215613b9157600080fd5b843593506020850135613ba381613911565b92506040850135613bb381613911565b91506060850135613bc381613911565b939692955090935050565b600080600080600060a08688031215613be657600080fd5b85359450613bf66020870161383b565b9350613c046040870161383b565b92506060860135613c1481613961565b9150613c226080870161394d565b90509295509295909350565b60008060408385031215613c4157600080fd5b823591506138cc6020840161397f565b600060208284031215613c6357600080fd5b8151801515811461394657600080fd5b60208082526026908201527f41432e6f6e6c794469726563744b65657065723a206e6f74206469726563742060408201526535b2b2b832b960d11b606082015260800190565b600060208284031215613ccb57600080fd5b815161394681613961565b60208082526036908201527f41432e6f776e65724f72446972656374426f6f6b65657065723a206e6569746860408201527532b91037bbb732b9103737b9103137b7b5b2b2b832b960511b606082015260800190565b60208082526011908201527020a19737b59d103737ba1025b2b2b832b960791b604082015260600190565b60208082526018908201527f424f532e6d662e53453a20736571204e4f542065786973740000000000000000604082015260600190565b6020808252601b908201527f424f532e6d662e4e463a20736861726520697320667265657a65640000000000604082015260600190565b634e487b7160e01b600052601160045260246000fd5b60006001600160401b0383811690831681811015613dfb57613dfb613dc5565b039392505050565b60006001600160401b03808316818516808303821115613e2557613e25613dc5565b01949350505050565b600060208284031215613e4057600080fd5b815161394681613911565b60006001600160401b0380831681811415613e6857613e68613dc5565b600101939250505056fe17ef568e3e12ab5b9c7254a8d58478811de00f9e6eb34345acd53bf8fd09d3eda26469706673582212200f3df6f3bc79ee08ae81f3802c1985224602daa1c396a66d74c4c090d75a5b4c64736f6c63430008080033",
    "sourcePath": "/Users/kaptain/github.com/hardhat/comboox/contracts/books/bos/BookOfShares.sol",
    "compiler": {
        "name": "solc",
        "version": "0.8.8+commit.dddeac2f"
    },
    "functionHashes": {
        "abandonRole(bytes32)": "3da9a600",
        "counterOfClasses()": "544f1ba2",
        "counterOfShares()": "4a0ca0d6",
        "decreaseCapital(uint256,uint64,uint64)": "dc8492ce",
        "decreaseCleanAmt(uint256,uint64,uint64)": "4bacf961",
        "finalized()": "b3f05b97",
        "getBodyOfShare(uint256)": "58ebd89b",
        "getBookeeper()": "ed211023",
        "getGeneralCounsel()": "103f6edd",
        "getHeadOfShare(uint256)": "92c80eb7",
        "getLocker(bytes32)": "851ad654",
        "getOwner()": "893d20e8",
        "getShare(uint256)": "cfb5a5f8",
        "grantRole(bytes32,uint256)": "1b6ea9f9",
        "hasRole(bytes32,uint256)": "7e063c5a",
        "increaseCleanAmt(uint256,uint64,uint64)": "6ea6c824",
        "init(uint256,address,address,address)": "dc890da9",
        "isShare(uint256)": "0c1d138b",
        "issueShare(bytes32,uint64,uint64)": "bb51b378",
        "lockContents()": "f045a769",
        "regShare((uint16,uint32,uint32,uint48,uint48,uint40,uint32,uint8),uint64,uint64)": "85a7725f",
        "renounceRole(bytes32)": "8bb9c5bf",
        "requestPaidInCapital(bytes32,string)": "04726d7a",
        "revokeRole(bytes32,uint256)": "19d61ad9",
        "setDirectKeeper(address)": "6be8496f",
        "setGeneralCounsel(uint256)": "4a14beb1",
        "setOwner(uint256)": "8041494e",
        "setPayInAmt(bytes32,uint64)": "88678a8e",
        "setRoleAdmin(bytes32,uint256)": "5171ebd4",
        "snParser(bytes32)": "fbfad28e",
        "transferShare(uint256,uint64,uint64,uint40,uint32)": "f0d6c109",
        "updatePaidInDeadline(uint256,uint48)": "4fc3e83f",
        "updateStateOfShare(uint256,uint8)": "f814b800",
        "withdrawPayInAmt(bytes32)": "ba5052cb"
    },
    "gasEstimates": {
        "creation": {
            "codeDepositCost": "3214400",
            "executionCost": "3563",
            "totalCost": "3217963"
        },
        "external": {
            "abandonRole(bytes32)": "infinite",
            "counterOfClasses()": "infinite",
            "counterOfShares()": "infinite",
            "decreaseCapital(uint256,uint64,uint64)": "infinite",
            "decreaseCleanAmt(uint256,uint64,uint64)": "infinite",
            "finalized()": "2405",
            "getBodyOfShare(uint256)": "5198",
            "getBookeeper()": "infinite",
            "getGeneralCounsel()": "infinite",
            "getHeadOfShare(uint256)": "5650",
            "getLocker(bytes32)": "2505",
            "getOwner()": "infinite",
            "getShare(uint256)": "8341",
            "grantRole(bytes32,uint256)": "infinite",
            "hasRole(bytes32,uint256)": "infinite",
            "increaseCleanAmt(uint256,uint64,uint64)": "infinite",
            "init(uint256,address,address,address)": "infinite",
            "isShare(uint256)": "2525",
            "issueShare(bytes32,uint64,uint64)": "infinite",
            "lockContents()": "infinite",
            "regShare((uint16,uint32,uint32,uint48,uint48,uint40,uint32,uint8),uint64,uint64)": "infinite",
            "renounceRole(bytes32)": "infinite",
            "requestPaidInCapital(bytes32,string)": "infinite",
            "revokeRole(bytes32,uint256)": "infinite",
            "setDirectKeeper(address)": "infinite",
            "setGeneralCounsel(uint256)": "infinite",
            "setOwner(uint256)": "infinite",
            "setPayInAmt(bytes32,uint64)": "infinite",
            "setRoleAdmin(bytes32,uint256)": "infinite",
            "snParser(bytes32)": "1288",
            "transferShare(uint256,uint64,uint64,uint40,uint32)": "infinite",
            "updatePaidInDeadline(uint256,uint48)": "infinite",
            "updateStateOfShare(uint256,uint8)": "infinite",
            "withdrawPayInAmt(bytes32)": "infinite"
        },
        "internal": {
            "_decreaseShareAmt(struct IBookOfShares.Share storage pointer,uint64,uint64)": "infinite",
            "_deregisterShare(uint256)": "11248",
            "_increaseCounterOfClasses()": "26651",
            "_increaseCounterOfShares()": "26584",
            "_payInCapital(struct IBookOfShares.Share storage pointer,uint64)": "infinite",
            "_subAmountFromShare(struct IBookOfShares.Share storage pointer,uint64,uint64)": "infinite"
        }
    }
}