{
    "contractName": "BookOfShares",
    "abi": [
        {
            "anonymous": false,
            "inputs": [
                {
                    "indexed": true,
                    "internalType": "uint256",
                    "name": "seqOfShare",
                    "type": "uint256"
                },
                {
                    "indexed": true,
                    "internalType": "uint256",
                    "name": "paid",
                    "type": "uint256"
                }
            ],
            "name": "DecreaseCleanPaid",
            "type": "event"
        },
        {
            "anonymous": false,
            "inputs": [
                {
                    "indexed": true,
                    "internalType": "uint256",
                    "name": "seqOfShare",
                    "type": "uint256"
                }
            ],
            "name": "DeregisterShare",
            "type": "event"
        },
        {
            "anonymous": false,
            "inputs": [
                {
                    "indexed": true,
                    "internalType": "uint256",
                    "name": "seqOfShare",
                    "type": "uint256"
                },
                {
                    "indexed": true,
                    "internalType": "uint256",
                    "name": "paid",
                    "type": "uint256"
                }
            ],
            "name": "IncreaseCleanPaid",
            "type": "event"
        },
        {
            "anonymous": false,
            "inputs": [
                {
                    "indexed": true,
                    "internalType": "address",
                    "name": "owner",
                    "type": "address"
                },
                {
                    "indexed": true,
                    "internalType": "address",
                    "name": "directKeeper",
                    "type": "address"
                },
                {
                    "indexed": false,
                    "internalType": "address",
                    "name": "regCenter",
                    "type": "address"
                },
                {
                    "indexed": true,
                    "internalType": "address",
                    "name": "generalKeeper",
                    "type": "address"
                }
            ],
            "name": "Init",
            "type": "event"
        },
        {
            "anonymous": false,
            "inputs": [
                {
                    "indexed": true,
                    "internalType": "bytes32",
                    "name": "shareNumber",
                    "type": "bytes32"
                },
                {
                    "indexed": true,
                    "internalType": "uint256",
                    "name": "paid",
                    "type": "uint256"
                },
                {
                    "indexed": true,
                    "internalType": "uint256",
                    "name": "par",
                    "type": "uint256"
                }
            ],
            "name": "IssueShare",
            "type": "event"
        },
        {
            "anonymous": false,
            "inputs": [],
            "name": "LockContents",
            "type": "event"
        },
        {
            "anonymous": false,
            "inputs": [
                {
                    "indexed": true,
                    "internalType": "uint256",
                    "name": "seqOfShare",
                    "type": "uint256"
                },
                {
                    "indexed": true,
                    "internalType": "uint256",
                    "name": "amount",
                    "type": "uint256"
                }
            ],
            "name": "PayInCapital",
            "type": "event"
        },
        {
            "anonymous": false,
            "inputs": [
                {
                    "indexed": true,
                    "internalType": "address",
                    "name": "keeper",
                    "type": "address"
                }
            ],
            "name": "SetDirectKeeper",
            "type": "event"
        },
        {
            "anonymous": false,
            "inputs": [
                {
                    "indexed": true,
                    "internalType": "address",
                    "name": "acct",
                    "type": "address"
                }
            ],
            "name": "SetOwner",
            "type": "event"
        },
        {
            "anonymous": false,
            "inputs": [
                {
                    "indexed": true,
                    "internalType": "bytes32",
                    "name": "headSn",
                    "type": "bytes32"
                },
                {
                    "indexed": true,
                    "internalType": "bytes32",
                    "name": "hashLock",
                    "type": "bytes32"
                }
            ],
            "name": "SetPayInAmt",
            "type": "event"
        },
        {
            "anonymous": false,
            "inputs": [
                {
                    "indexed": true,
                    "internalType": "bytes32",
                    "name": "role",
                    "type": "bytes32"
                },
                {
                    "indexed": true,
                    "internalType": "address",
                    "name": "acct",
                    "type": "address"
                }
            ],
            "name": "SetRoleAdmin",
            "type": "event"
        },
        {
            "anonymous": false,
            "inputs": [
                {
                    "indexed": true,
                    "internalType": "uint256",
                    "name": "seqOfShare",
                    "type": "uint256"
                },
                {
                    "indexed": true,
                    "internalType": "uint256",
                    "name": "paid",
                    "type": "uint256"
                },
                {
                    "indexed": true,
                    "internalType": "uint256",
                    "name": "par",
                    "type": "uint256"
                }
            ],
            "name": "SubAmountFromShare",
            "type": "event"
        },
        {
            "anonymous": false,
            "inputs": [
                {
                    "indexed": true,
                    "internalType": "uint256",
                    "name": "seqOfShare",
                    "type": "uint256"
                },
                {
                    "indexed": true,
                    "internalType": "uint256",
                    "name": "state",
                    "type": "uint256"
                }
            ],
            "name": "UpdateStateOfShare",
            "type": "event"
        },
        {
            "anonymous": false,
            "inputs": [
                {
                    "indexed": true,
                    "internalType": "uint256",
                    "name": "seqOfShare",
                    "type": "uint256"
                },
                {
                    "indexed": true,
                    "internalType": "uint256",
                    "name": "amount",
                    "type": "uint256"
                }
            ],
            "name": "WithdrawPayInAmt",
            "type": "event"
        },
        {
            "inputs": [
                {
                    "internalType": "bytes32",
                    "name": "role",
                    "type": "bytes32"
                }
            ],
            "name": "abandonRole",
            "outputs": [],
            "stateMutability": "nonpayable",
            "type": "function"
        },
        {
            "inputs": [
                {
                    "components": [
                        {
                            "components": [
                                {
                                    "internalType": "uint32",
                                    "name": "seqOfShare",
                                    "type": "uint32"
                                },
                                {
                                    "internalType": "uint32",
                                    "name": "preSeq",
                                    "type": "uint32"
                                },
                                {
                                    "internalType": "uint16",
                                    "name": "class",
                                    "type": "uint16"
                                },
                                {
                                    "internalType": "uint48",
                                    "name": "issueDate",
                                    "type": "uint48"
                                },
                                {
                                    "internalType": "uint40",
                                    "name": "shareholder",
                                    "type": "uint40"
                                },
                                {
                                    "internalType": "uint32",
                                    "name": "priceOfPaid",
                                    "type": "uint32"
                                },
                                {
                                    "internalType": "uint32",
                                    "name": "priceOfPar",
                                    "type": "uint32"
                                },
                                {
                                    "internalType": "uint16",
                                    "name": "para",
                                    "type": "uint16"
                                },
                                {
                                    "internalType": "uint8",
                                    "name": "argu",
                                    "type": "uint8"
                                }
                            ],
                            "internalType": "struct SharesRepo.Head",
                            "name": "head",
                            "type": "tuple"
                        },
                        {
                            "components": [
                                {
                                    "internalType": "uint48",
                                    "name": "payInDeadline",
                                    "type": "uint48"
                                },
                                {
                                    "internalType": "uint64",
                                    "name": "paid",
                                    "type": "uint64"
                                },
                                {
                                    "internalType": "uint64",
                                    "name": "par",
                                    "type": "uint64"
                                },
                                {
                                    "internalType": "uint64",
                                    "name": "cleanPaid",
                                    "type": "uint64"
                                },
                                {
                                    "internalType": "uint8",
                                    "name": "state",
                                    "type": "uint8"
                                },
                                {
                                    "internalType": "uint8",
                                    "name": "para",
                                    "type": "uint8"
                                }
                            ],
                            "internalType": "struct SharesRepo.Body",
                            "name": "body",
                            "type": "tuple"
                        }
                    ],
                    "internalType": "struct SharesRepo.Share",
                    "name": "share",
                    "type": "tuple"
                }
            ],
            "name": "addShare",
            "outputs": [],
            "stateMutability": "nonpayable",
            "type": "function"
        },
        {
            "inputs": [],
            "name": "counterOfClasses",
            "outputs": [
                {
                    "internalType": "uint16",
                    "name": "",
                    "type": "uint16"
                }
            ],
            "stateMutability": "view",
            "type": "function"
        },
        {
            "inputs": [],
            "name": "counterOfShares",
            "outputs": [
                {
                    "internalType": "uint32",
                    "name": "",
                    "type": "uint32"
                }
            ],
            "stateMutability": "view",
            "type": "function"
        },
        {
            "inputs": [
                {
                    "internalType": "uint256",
                    "name": "seqOfShare",
                    "type": "uint256"
                },
                {
                    "internalType": "uint256",
                    "name": "paid",
                    "type": "uint256"
                },
                {
                    "internalType": "uint256",
                    "name": "par",
                    "type": "uint256"
                }
            ],
            "name": "decreaseCapital",
            "outputs": [],
            "stateMutability": "nonpayable",
            "type": "function"
        },
        {
            "inputs": [
                {
                    "internalType": "uint256",
                    "name": "seqOfShare",
                    "type": "uint256"
                },
                {
                    "internalType": "uint256",
                    "name": "paid",
                    "type": "uint256"
                }
            ],
            "name": "decreaseCleanPaid",
            "outputs": [],
            "stateMutability": "nonpayable",
            "type": "function"
        },
        {
            "inputs": [
                {
                    "internalType": "uint256",
                    "name": "seqOfShare",
                    "type": "uint256"
                }
            ],
            "name": "getBodyOfShare",
            "outputs": [
                {
                    "components": [
                        {
                            "internalType": "uint48",
                            "name": "payInDeadline",
                            "type": "uint48"
                        },
                        {
                            "internalType": "uint64",
                            "name": "paid",
                            "type": "uint64"
                        },
                        {
                            "internalType": "uint64",
                            "name": "par",
                            "type": "uint64"
                        },
                        {
                            "internalType": "uint64",
                            "name": "cleanPaid",
                            "type": "uint64"
                        },
                        {
                            "internalType": "uint8",
                            "name": "state",
                            "type": "uint8"
                        },
                        {
                            "internalType": "uint8",
                            "name": "para",
                            "type": "uint8"
                        }
                    ],
                    "internalType": "struct SharesRepo.Body",
                    "name": "body",
                    "type": "tuple"
                }
            ],
            "stateMutability": "view",
            "type": "function"
        },
        {
            "inputs": [],
            "name": "getDK",
            "outputs": [
                {
                    "internalType": "address",
                    "name": "",
                    "type": "address"
                }
            ],
            "stateMutability": "view",
            "type": "function"
        },
        {
            "inputs": [
                {
                    "internalType": "uint256",
                    "name": "seqOfShare",
                    "type": "uint256"
                }
            ],
            "name": "getHeadOfShare",
            "outputs": [
                {
                    "components": [
                        {
                            "internalType": "uint32",
                            "name": "seqOfShare",
                            "type": "uint32"
                        },
                        {
                            "internalType": "uint32",
                            "name": "preSeq",
                            "type": "uint32"
                        },
                        {
                            "internalType": "uint16",
                            "name": "class",
                            "type": "uint16"
                        },
                        {
                            "internalType": "uint48",
                            "name": "issueDate",
                            "type": "uint48"
                        },
                        {
                            "internalType": "uint40",
                            "name": "shareholder",
                            "type": "uint40"
                        },
                        {
                            "internalType": "uint32",
                            "name": "priceOfPaid",
                            "type": "uint32"
                        },
                        {
                            "internalType": "uint32",
                            "name": "priceOfPar",
                            "type": "uint32"
                        },
                        {
                            "internalType": "uint16",
                            "name": "para",
                            "type": "uint16"
                        },
                        {
                            "internalType": "uint8",
                            "name": "argu",
                            "type": "uint8"
                        }
                    ],
                    "internalType": "struct SharesRepo.Head",
                    "name": "head",
                    "type": "tuple"
                }
            ],
            "stateMutability": "view",
            "type": "function"
        },
        {
            "inputs": [
                {
                    "internalType": "bytes32",
                    "name": "hashLock",
                    "type": "bytes32"
                }
            ],
            "name": "getLocker",
            "outputs": [
                {
                    "components": [
                        {
                            "components": [
                                {
                                    "internalType": "uint40",
                                    "name": "from",
                                    "type": "uint40"
                                },
                                {
                                    "internalType": "uint40",
                                    "name": "to",
                                    "type": "uint40"
                                },
                                {
                                    "internalType": "uint48",
                                    "name": "expireDate",
                                    "type": "uint48"
                                },
                                {
                                    "internalType": "uint128",
                                    "name": "value",
                                    "type": "uint128"
                                }
                            ],
                            "internalType": "struct LockersRepo.Head",
                            "name": "head",
                            "type": "tuple"
                        },
                        {
                            "components": [
                                {
                                    "internalType": "address",
                                    "name": "counterLocker",
                                    "type": "address"
                                },
                                {
                                    "internalType": "bytes",
                                    "name": "payload",
                                    "type": "bytes"
                                }
                            ],
                            "internalType": "struct LockersRepo.Body",
                            "name": "body",
                            "type": "tuple"
                        }
                    ],
                    "internalType": "struct LockersRepo.Locker",
                    "name": "locker",
                    "type": "tuple"
                }
            ],
            "stateMutability": "view",
            "type": "function"
        },
        {
            "inputs": [],
            "name": "getLocksList",
            "outputs": [
                {
                    "internalType": "bytes32[]",
                    "name": "",
                    "type": "bytes32[]"
                }
            ],
            "stateMutability": "view",
            "type": "function"
        },
        {
            "inputs": [],
            "name": "getOwner",
            "outputs": [
                {
                    "internalType": "address",
                    "name": "",
                    "type": "address"
                }
            ],
            "stateMutability": "view",
            "type": "function"
        },
        {
            "inputs": [
                {
                    "internalType": "bytes32",
                    "name": "role",
                    "type": "bytes32"
                }
            ],
            "name": "getRoleAdmin",
            "outputs": [
                {
                    "internalType": "address",
                    "name": "",
                    "type": "address"
                }
            ],
            "stateMutability": "view",
            "type": "function"
        },
        {
            "inputs": [
                {
                    "internalType": "uint256",
                    "name": "seqOfShare",
                    "type": "uint256"
                }
            ],
            "name": "getShare",
            "outputs": [
                {
                    "components": [
                        {
                            "components": [
                                {
                                    "internalType": "uint32",
                                    "name": "seqOfShare",
                                    "type": "uint32"
                                },
                                {
                                    "internalType": "uint32",
                                    "name": "preSeq",
                                    "type": "uint32"
                                },
                                {
                                    "internalType": "uint16",
                                    "name": "class",
                                    "type": "uint16"
                                },
                                {
                                    "internalType": "uint48",
                                    "name": "issueDate",
                                    "type": "uint48"
                                },
                                {
                                    "internalType": "uint40",
                                    "name": "shareholder",
                                    "type": "uint40"
                                },
                                {
                                    "internalType": "uint32",
                                    "name": "priceOfPaid",
                                    "type": "uint32"
                                },
                                {
                                    "internalType": "uint32",
                                    "name": "priceOfPar",
                                    "type": "uint32"
                                },
                                {
                                    "internalType": "uint16",
                                    "name": "para",
                                    "type": "uint16"
                                },
                                {
                                    "internalType": "uint8",
                                    "name": "argu",
                                    "type": "uint8"
                                }
                            ],
                            "internalType": "struct SharesRepo.Head",
                            "name": "head",
                            "type": "tuple"
                        },
                        {
                            "components": [
                                {
                                    "internalType": "uint48",
                                    "name": "payInDeadline",
                                    "type": "uint48"
                                },
                                {
                                    "internalType": "uint64",
                                    "name": "paid",
                                    "type": "uint64"
                                },
                                {
                                    "internalType": "uint64",
                                    "name": "par",
                                    "type": "uint64"
                                },
                                {
                                    "internalType": "uint64",
                                    "name": "cleanPaid",
                                    "type": "uint64"
                                },
                                {
                                    "internalType": "uint8",
                                    "name": "state",
                                    "type": "uint8"
                                },
                                {
                                    "internalType": "uint8",
                                    "name": "para",
                                    "type": "uint8"
                                }
                            ],
                            "internalType": "struct SharesRepo.Body",
                            "name": "body",
                            "type": "tuple"
                        }
                    ],
                    "internalType": "struct SharesRepo.Share",
                    "name": "share",
                    "type": "tuple"
                }
            ],
            "stateMutability": "view",
            "type": "function"
        },
        {
            "inputs": [
                {
                    "internalType": "uint256",
                    "name": "class",
                    "type": "uint256"
                }
            ],
            "name": "getSharesOfClass",
            "outputs": [
                {
                    "internalType": "uint256[]",
                    "name": "seqList",
                    "type": "uint256[]"
                }
            ],
            "stateMutability": "view",
            "type": "function"
        },
        {
            "inputs": [
                {
                    "internalType": "bytes32",
                    "name": "role",
                    "type": "bytes32"
                },
                {
                    "internalType": "address",
                    "name": "acct",
                    "type": "address"
                }
            ],
            "name": "grantRole",
            "outputs": [],
            "stateMutability": "nonpayable",
            "type": "function"
        },
        {
            "inputs": [
                {
                    "internalType": "bytes32",
                    "name": "role",
                    "type": "bytes32"
                },
                {
                    "internalType": "address",
                    "name": "acct",
                    "type": "address"
                }
            ],
            "name": "hasRole",
            "outputs": [
                {
                    "internalType": "bool",
                    "name": "",
                    "type": "bool"
                }
            ],
            "stateMutability": "view",
            "type": "function"
        },
        {
            "inputs": [
                {
                    "internalType": "uint256",
                    "name": "seqOfShare",
                    "type": "uint256"
                },
                {
                    "internalType": "uint256",
                    "name": "paid",
                    "type": "uint256"
                }
            ],
            "name": "increaseCleanPaid",
            "outputs": [],
            "stateMutability": "nonpayable",
            "type": "function"
        },
        {
            "inputs": [
                {
                    "internalType": "address",
                    "name": "owner",
                    "type": "address"
                },
                {
                    "internalType": "address",
                    "name": "directKeeper",
                    "type": "address"
                },
                {
                    "internalType": "address",
                    "name": "regCenter",
                    "type": "address"
                },
                {
                    "internalType": "address",
                    "name": "generalKeeper",
                    "type": "address"
                }
            ],
            "name": "init",
            "outputs": [],
            "stateMutability": "nonpayable",
            "type": "function"
        },
        {
            "inputs": [],
            "name": "isFinalized",
            "outputs": [
                {
                    "internalType": "bool",
                    "name": "",
                    "type": "bool"
                }
            ],
            "stateMutability": "view",
            "type": "function"
        },
        {
            "inputs": [
                {
                    "internalType": "uint256",
                    "name": "seqOfShare",
                    "type": "uint256"
                }
            ],
            "name": "isShare",
            "outputs": [
                {
                    "internalType": "bool",
                    "name": "",
                    "type": "bool"
                }
            ],
            "stateMutability": "view",
            "type": "function"
        },
        {
            "inputs": [
                {
                    "internalType": "bytes32",
                    "name": "shareNumber",
                    "type": "bytes32"
                },
                {
                    "internalType": "uint256",
                    "name": "payInDeadline",
                    "type": "uint256"
                },
                {
                    "internalType": "uint256",
                    "name": "paid",
                    "type": "uint256"
                },
                {
                    "internalType": "uint256",
                    "name": "par",
                    "type": "uint256"
                }
            ],
            "name": "issueShare",
            "outputs": [],
            "stateMutability": "nonpayable",
            "type": "function"
        },
        {
            "inputs": [],
            "name": "lockContents",
            "outputs": [],
            "stateMutability": "nonpayable",
            "type": "function"
        },
        {
            "inputs": [
                {
                    "internalType": "bytes32",
                    "name": "role",
                    "type": "bytes32"
                }
            ],
            "name": "renounceRole",
            "outputs": [],
            "stateMutability": "nonpayable",
            "type": "function"
        },
        {
            "inputs": [
                {
                    "internalType": "bytes32",
                    "name": "hashLock",
                    "type": "bytes32"
                },
                {
                    "internalType": "string",
                    "name": "hashKey",
                    "type": "string"
                }
            ],
            "name": "requestPaidInCapital",
            "outputs": [],
            "stateMutability": "nonpayable",
            "type": "function"
        },
        {
            "inputs": [
                {
                    "internalType": "bytes32",
                    "name": "role",
                    "type": "bytes32"
                },
                {
                    "internalType": "address",
                    "name": "acct",
                    "type": "address"
                }
            ],
            "name": "revokeRole",
            "outputs": [],
            "stateMutability": "nonpayable",
            "type": "function"
        },
        {
            "inputs": [
                {
                    "internalType": "address",
                    "name": "acct",
                    "type": "address"
                }
            ],
            "name": "setDirectKeeper",
            "outputs": [],
            "stateMutability": "nonpayable",
            "type": "function"
        },
        {
            "inputs": [
                {
                    "internalType": "address",
                    "name": "acct",
                    "type": "address"
                }
            ],
            "name": "setOwner",
            "outputs": [],
            "stateMutability": "nonpayable",
            "type": "function"
        },
        {
            "inputs": [
                {
                    "internalType": "uint256",
                    "name": "seqOfShare",
                    "type": "uint256"
                },
                {
                    "internalType": "uint256",
                    "name": "amt",
                    "type": "uint256"
                },
                {
                    "internalType": "uint256",
                    "name": "expireDate",
                    "type": "uint256"
                },
                {
                    "internalType": "bytes32",
                    "name": "hashLock",
                    "type": "bytes32"
                }
            ],
            "name": "setPayInAmt",
            "outputs": [],
            "stateMutability": "nonpayable",
            "type": "function"
        },
        {
            "inputs": [
                {
                    "internalType": "bytes32",
                    "name": "role",
                    "type": "bytes32"
                },
                {
                    "internalType": "address",
                    "name": "acct",
                    "type": "address"
                }
            ],
            "name": "setRoleAdmin",
            "outputs": [],
            "stateMutability": "nonpayable",
            "type": "function"
        },
        {
            "inputs": [
                {
                    "internalType": "address",
                    "name": "target",
                    "type": "address"
                }
            ],
            "name": "takeBackKeys",
            "outputs": [],
            "stateMutability": "nonpayable",
            "type": "function"
        },
        {
            "inputs": [
                {
                    "internalType": "uint256",
                    "name": "seqOfShare",
                    "type": "uint256"
                },
                {
                    "internalType": "uint256",
                    "name": "paid",
                    "type": "uint256"
                },
                {
                    "internalType": "uint256",
                    "name": "par",
                    "type": "uint256"
                },
                {
                    "internalType": "uint256",
                    "name": "to",
                    "type": "uint256"
                },
                {
                    "internalType": "uint256",
                    "name": "priceOfPaid",
                    "type": "uint256"
                },
                {
                    "internalType": "uint256",
                    "name": "priceOfPar",
                    "type": "uint256"
                }
            ],
            "name": "transferShare",
            "outputs": [],
            "stateMutability": "nonpayable",
            "type": "function"
        },
        {
            "inputs": [
                {
                    "internalType": "uint256",
                    "name": "seqOfShare",
                    "type": "uint256"
                },
                {
                    "internalType": "uint256",
                    "name": "state",
                    "type": "uint256"
                }
            ],
            "name": "updateStateOfShare",
            "outputs": [],
            "stateMutability": "nonpayable",
            "type": "function"
        },
        {
            "inputs": [
                {
                    "internalType": "bytes32",
                    "name": "hashLock",
                    "type": "bytes32"
                },
                {
                    "internalType": "uint256",
                    "name": "seqOfShare",
                    "type": "uint256"
                }
            ],
            "name": "withdrawPayInAmt",
            "outputs": [],
            "stateMutability": "nonpayable",
            "type": "function"
        }
    ],
    "bytecode": "608060405234801561001057600080fd5b50613f2d806100206000396000f3fe608060405234801561001057600080fd5b50600436106102065760003560e01c80636be8496f1161011a578063ad763192116100ad578063cd78c98a1161007c578063cd78c98a14610495578063cebb34a8146104a8578063cfb5a5f8146104bb578063d547741f146104db578063f045a769146104ee57600080fd5b8063ad76319214610449578063ae47fa541461045c578063c8a9788c1461046f578063ccdddd411461048257600080fd5b80638bb9c5bf116100e95780638bb9c5bf146103ee5780638d4e40831461040157806391d148541461041657806392c80eb71461042957600080fd5b80636be8496f146103a0578063851ad654146103b3578063874b5657146103d3578063893d20e8146103e657600080fd5b806336571a791161019d5780634b4b972f1161016c5780634b4b972f1461032e57806350627aea14610341578063544f1ba21461035257806358ebd89b1461036d57806360d095df1461038d57600080fd5b806336571a79146102d85780633da9a600146102eb57806340b6c23e146102fe5780634a0ca0d61461031157600080fd5b806313af4035116101d957806313af4035146102745780631d60191814610287578063248a9ca31461029a5780632f2ff15d146102c557600080fd5b806304726d7a1461020b57806306552ff3146102205780630b4b43ee146102335780630c1d138b14610251575b600080fd5b61021e6102193660046130e2565b6104f6565b005b61021e61022e366004613183565b61078f565b61023b61087e565b60405161024891906131df565b60405180910390f35b61026461025f366004613223565b61090d565b6040519015158152602001610248565b61021e61028236600461323c565b610930565b61023b610295366004613223565b6109df565b6102ad6102a8366004613223565b610a76565b6040516001600160a01b039091168152602001610248565b61021e6102d3366004613259565b610b03565b61021e6102e6366004613289565b610b75565b61021e6102f9366004613223565b610d7a565b61021e61030c36600461323c565b610de7565b610319610e66565b60405163ffffffff9091168152602001610248565b61021e61033c3660046132bb565b610eec565b6002546001600160a01b03166102ad565b61035a610ff7565b60405161ffff9091168152602001610248565b61038061037b366004613223565b61107d565b6040516102489190613336565b61021e61039b3660046132bb565b61115f565b61021e6103ae36600461323c565b6114ca565b6103c66103c1366004613223565b61153e565b60405161024891906133de565b61021e6103e13660046132bb565b6115d4565b6102ad611682565b61021e6103fc366004613223565b611708565b600054600160a01b900460ff16600214610264565b610264610424366004613259565b61174d565b61043c610437366004613223565b6117f0565b60405161024891906134e1565b61021e610457366004613259565b6118d2565b61021e61046a3660046134f0565b61197a565b61021e61047d36600461366a565b611df0565b61021e6104903660046132bb565b6121c6565b61021e6104a3366004613751565b612531565b61021e6104b6366004613289565b6126bc565b6104ce6104c9366004613223565b612861565b604051610248919061377d565b61021e6104e9366004613259565b6129c6565b61021e612a04565b6002546001600160a01b031633146105295760405162461bcd60e51b8152600401610520906137ab565b60405180910390fd5b600061053d6004546001600160a01b031690565b6001600160a01b03166333fb96ee6040518163ffffffff1660e01b815260040160206040518083038186803b15801561057557600080fd5b505afa158015610589573d6000803e3d6000fd5b505050506040513d601f19601f820116820180604052508101906105ad91906137d3565b60405163272d669f60e11b815290915060009073__$47b24d17d5977d1228f91fbbfb2c402609$__90634e5acd3e906105f1906008908890889087906004016137f0565b60806040518083038186803b15801561060957600080fd5b505af415801561061d573d6000803e3d6000fd5b505050506040513d601f19601f8201168201806040525081019061064191906138cc565b60608101519091506001600160801b03161561078957805164ffffffffff16600090815260056020526040902060608201516106879082906001600160801b0316612b95565b805460608301516040516324415e4360e11b8152600160801b90920464ffffffffff1660048301526001600160801b031660248201819052600060448301526064820152600160848201526001600160a01b03841690634882bc869060a401600060405180830381600087803b15801561070057600080fd5b505af1158015610714573d6000803e3d6000fd5b505050506060820151604051631bfc7c8560e11b81526001600160801b039091166004820152600060248201526001600160a01b038416906337f8f90a90604401600060405180830381600087803b15801561076f57600080fd5b505af1158015610783573d6000803e3d6000fd5b50505050505b50505050565b60405163013faf4960e71b8152600060048201526001600160a01b038516602482015273__$a374c895e6fa8c448878668e00d93ef99a$__90639fd7a4809060440160006040518083038186803b1580156107e957600080fd5b505af41580156107fd573d6000803e3d6000fd5b5050600280546001600160a01b038781166001600160a01b0319928316811790935560038054888316908416811790915560048054888416941684179055604051908152919450919250908716907f11e5c44db2defe55dea9656ae7848e94dc9f3e66eb342a7b84547a68d31c393a9060200160405180910390a450505050565b604051631494e43f60e31b81526008600482015260609073__$47b24d17d5977d1228f91fbbfb2c402609$__9063a4a721f89060240160006040518083038186803b1580156108cc57600080fd5b505af41580156108e0573d6000803e3d6000fd5b505050506040513d6000823e601f3d908101601f19168201604052610908919081019061390b565b905090565b600090815260056020526040902054600160501b900465ffffffffffff16151590565b6040516351e7e80560e01b8152600060048201526001600160a01b038216602482015233604482015273__$a374c895e6fa8c448878668e00d93ef99a$__906351e7e8059060640160006040518083038186803b15801561099057600080fd5b505af41580156109a4573d6000803e3d6000fd5b50506040516001600160a01b03841692507f167d3e9c1016ab80e58802ca9da10ce5c6a0f4debc46a2e7a2cd9e56899a4fb59150600090a250565b604051635a2b40f960e01b8152600560048201526024810182905260609073__$1216f89a8e7e65c17bbdb90cf043af022a$__90635a2b40f99060440160006040518083038186803b158015610a3457600080fd5b505af4158015610a48573d6000803e3d6000fd5b505050506040513d6000823e601f3d908101601f19168201604052610a70919081019061390b565b92915050565b604051639423dd0560e01b8152600060048201819052602482018390529073__$a374c895e6fa8c448878668e00d93ef99a$__90639423dd059060440160206040518083038186803b158015610acb57600080fd5b505af4158015610adf573d6000803e3d6000fd5b505050506040513d601f19601f82011682018060405250810190610a7091906137d3565b604051633d3c5d2760e01b815273__$a374c895e6fa8c448878668e00d93ef99a$__90633d3c5d2790610b419060009086908690339060040161399b565b60006040518083038186803b158015610b5957600080fd5b505af4158015610b6d573d6000803e3d6000fd5b505050505050565b600480546040516335d2155560e11b815233928101929092526001600160a01b031690636ba42aaa9060240160206040518083038186803b158015610bb957600080fd5b505afa158015610bcd573d6000803e3d6000fd5b505050506040513d601f19601f82011682018060405250810190610bf191906139c2565b80610c0657506002546001600160a01b031633145b610c225760405162461bcd60e51b8152600401610520906139e4565b610c2a612f16565b604051637dfd694760e11b81526004810186905273__$1216f89a8e7e65c17bbdb90cf043af022a$__9063fbfad28e906024016101206040518083038186803b158015610c7657600080fd5b505af4158015610c8a573d6000803e3d6000fd5b505050506040513d601f19601f82011682018060405250810190610cae9190613ae8565b81526040805160c08101825265ffffffffffff808716825285811660208084018290528683169484019490945260608084019190915260006080840181905260a08401529284019190915282519091015116841015610d6a5760405162461bcd60e51b815260206004820152603260248201527f424f532e697373756553686172653a20697373756544617465206c61746572206044820152717468616e20706179496e446561646c696e6560701b6064820152608401610520565b610d7381611df0565b5050505050565b60405163bf2755e360e01b8152600060048201526024810182905233604482015273__$a374c895e6fa8c448878668e00d93ef99a$__9063bf2755e3906064015b60006040518083038186803b158015610dd357600080fd5b505af4158015610d73573d6000803e3d6000fd5b6002546001600160a01b03163314610e115760405162461bcd60e51b8152600401610520906137ab565b604051636be8496f60e01b81523360048201526001600160a01b03821690636be8496f90602401600060405180830381600087803b158015610e5257600080fd5b505af1158015610d73573d6000803e3d6000fd5b604051630249007960e01b81526005600482015260009073__$1216f89a8e7e65c17bbdb90cf043af022a$__9063024900799060240160206040518083038186803b158015610eb457600080fd5b505af4158015610ec8573d6000803e3d6000fd5b505050506040513d601f19601f820116820180604052508101906109089190613b05565b6002546001600160a01b03163314610f165760405162461bcd60e51b8152600401610520906137ab565b604051631b9f196b60e21b815260086004820152602481018390526044810182905260009073__$47b24d17d5977d1228f91fbbfb2c402609$__90636e7c65ac9060640160806040518083038186803b158015610f7257600080fd5b505af4158015610f86573d6000803e3d6000fd5b505050506040513d601f19601f82011682018060405250810190610faa91906138cc565b905080606001516001600160801b0316816000015164ffffffffff167f0e4ae5342abd1ff0a6a67781e4b2db1cbbee886c401ccc41ead7615bcf7b3fb260405160405180910390a3505050565b6040516385b7e52f60e01b81526005600482015260009073__$1216f89a8e7e65c17bbdb90cf043af022a$__906385b7e52f9060240160206040518083038186803b15801561104557600080fd5b505af4158015611059573d6000803e3d6000fd5b505050506040513d601f19601f820116820180604052508101906109089190613b22565b6040805160c081018252600080825260208201819052918101829052606081018290526080810182905260a0810191909152816110b98161090d565b6110d55760405162461bcd60e51b815260040161052090613b3f565b5050600090815260056020908152604091829020825160c08101845260019091015465ffffffffffff811682526001600160401b0366010000000000008204811693830193909352600160701b8104831693820193909352600160b01b8304909116606082015260ff600160f01b830481166080830152600160f81b90920490911660a082015290565b816111698161090d565b6111855760405162461bcd60e51b815260040161052090613b3f565b6000838152600560205260409020600101548390600160f01b900460ff16156111c05760405162461bcd60e51b815260040161052090613b76565b60006111d46004546001600160a01b031690565b9050806001600160a01b031663957968476040518163ffffffff1660e01b815260040160206040518083038186803b15801561120f57600080fd5b505afa158015611223573d6000803e3d6000fd5b505050506040513d601f19601f8201168201806040525081019061124791906137d3565b6001600160a01b0316336001600160a01b031614806112d857506040516335d2155560e11b81523360048201526001600160a01b03821690636ba42aaa9060240160206040518083038186803b1580156112a057600080fd5b505afa1580156112b4573d6000803e3d6000fd5b505050506040513d601f19601f820116820180604052508101906112d891906139c2565b6113245760405162461bcd60e51b815260206004820152601f60248201527f424f532e4443503a206e656974686572206b6565706572206e6f7220524f50006044820152606401610520565b6000858152600560205260409081902090516365f7b03760e01b8152600481018290526024810186905273__$1216f89a8e7e65c17bbdb90cf043af022a$__906365f7b0379060440160006040518083038186803b15801561138557600080fd5b505af4158015611399573d6000803e3d6000fd5b50505050816001600160a01b03166333fb96ee6040518163ffffffff1660e01b815260040160206040518083038186803b1580156113d657600080fd5b505afa1580156113ea573d6000803e3d6000fd5b505050506040513d601f19601f8201168201806040525081019061140e91906137d3565b81546040516324415e4360e11b8152600160801b90910464ffffffffff166004820152600060248201819052604482018190526064820188905260848201526001600160a01b039190911690634882bc869060a401600060405180830381600087803b15801561147d57600080fd5b505af1158015611491573d6000803e3d6000fd5b50506040518792508891507f955b9b3501784e6481781c57adfad04303072a675290ab00fd286dd6aa2fb58d90600090a3505050505050565b6002546001600160a01b031633146114f45760405162461bcd60e51b8152600401610520906137ab565b600280546001600160a01b0319166001600160a01b0383169081179091556040517fe435cbeab64e4eae6497b9d8289704bd709d624a80704ef3ca9af777534bc6ec90600090a250565b611546612f66565b604051630e2eda2160e11b8152600860048201526024810183905273__$47b24d17d5977d1228f91fbbfb2c402609$__90631c5db4429060440160006040518083038186803b15801561159857600080fd5b505af41580156115ac573d6000803e3d6000fd5b505050506040513d6000823e601f3d908101601f19168201604052610a709190810190613bad565b6002546001600160a01b031633146115fe5760405162461bcd60e51b8152600401610520906137ab565b816116088161090d565b6116245760405162461bcd60e51b815260040161052090613b3f565b604051829084907f9a7cb8f35be5d20be4eed3815250ff53e03df99a3592248fbaf4ef2adbb3643890600090a350600091825260056020526040909120600101805460ff909216600160f01b0260ff60f01b19909216919091179055565b6040516394916c4760e01b81526000600482018190529073__$a374c895e6fa8c448878668e00d93ef99a$__906394916c479060240160206040518083038186803b1580156116d057600080fd5b505af41580156116e4573d6000803e3d6000fd5b505050506040513d601f19601f8201168201806040525081019061090891906137d3565b604051632d16622360e11b8152600060048201526024810182905233604482015273__$a374c895e6fa8c448878668e00d93ef99a$__90635a2cc44690606401610dbb565b604051632c7ebf7360e01b8152600060048201819052602482018490526001600160a01b03831660448301529073__$a374c895e6fa8c448878668e00d93ef99a$__90632c7ebf739060640160206040518083038186803b1580156117b157600080fd5b505af41580156117c5573d6000803e3d6000fd5b505050506040513d601f19601f820116820180604052508101906117e991906139c2565b9392505050565b6117f8612fbc565b816118028161090d565b61181e5760405162461bcd60e51b815260040161052090613b3f565b5050600090815260056020908152604091829020825161012081018452905463ffffffff8082168352640100000000820481169383019390935261ffff600160401b820481169483019490945265ffffffffffff600160501b820416606083015264ffffffffff600160801b8204166080830152600160a81b8104831660a0830152600160c81b810490921660c0820152600160e81b820490921660e083015260ff600160f81b9091041661010082015290565b60405163f17b815160e01b815273__$a374c895e6fa8c448878668e00d93ef99a$__9063f17b8151906119109060009086908690339060040161399b565b60006040518083038186803b15801561192857600080fd5b505af415801561193c573d6000803e3d6000fd5b50506040516001600160a01b03841692508491507fc58ebc6bc4ca6dc8356357e625ffa0eb58d0db30d94a31a80a840e1cc74d2df990600090a35050565b600480546040516335d2155560e11b815233928101929092526001600160a01b031690636ba42aaa9060240160206040518083038186803b1580156119be57600080fd5b505afa1580156119d2573d6000803e3d6000fd5b505050506040513d601f19601f820116820180604052508101906119f691906139c2565b80611a0b57506002546001600160a01b031633145b611a275760405162461bcd60e51b8152600401610520906139e4565b85611a318161090d565b611a4d5760405162461bcd60e51b815260040161052090613b3f565b6000878152600560205260409020600101548790600160f01b900460ff1615611a885760405162461bcd60e51b815260040161052090613b76565b600088815260056020526040902085611ae35760405162461bcd60e51b815260206004820152601b60248201527f424f532e54533a207368617265686f6c646572206973205a45524f00000000006044820152606401610520565b611aeb612f16565b604051806101200160405280600063ffffffff1681526020018360000160000160009054906101000a900463ffffffff1663ffffffff1681526020018360000160000160089054906101000a900461ffff1661ffff1681526020014265ffffffffffff1681526020018864ffffffffff1681526020018763ffffffff1681526020018663ffffffff168152602001600061ffff168152602001600060ff1681525081600001819052506040518060c001604052808360010160000160009054906101000a900465ffffffffffff1665ffffffffffff1681526020018a6001600160401b03168152602001896001600160401b031681526020018a6001600160401b03168152602001600060ff168152602001600060ff168152508160200181905250611c18828a8a612c39565b6000611c2c6004546001600160a01b031690565b6001600160a01b03166333fb96ee6040518163ffffffff1660e01b815260040160206040518083038186803b158015611c6457600080fd5b505afa158015611c78573d6000803e3d6000fd5b505050506040513d601f19601f82011682018060405250810190611c9c91906137d3565b604051631089f5ed60e01b8152600481018a90529091506001600160a01b03821690631089f5ed90602401600060405180830381600087803b158015611ce157600080fd5b505af1158015611cf5573d6000803e3d6000fd5b5050604051634582ac0d60e01b815273__$1216f89a8e7e65c17bbdb90cf043af022a$__9250634582ac0d9150611d33906005908690600401613ca9565b6101e06040518083038186803b158015611d4c57600080fd5b505af4158015611d60573d6000803e3d6000fd5b505050506040513d601f19601f82011682018060405250810190611d849190613cde565b50604051630cca8e4560e11b81526001600160a01b038216906319951c8a90611db190859060040161377d565b600060405180830381600087803b158015611dcb57600080fd5b505af1158015611ddf573d6000803e3d6000fd5b505050505050505050505050505050565b600480546040516335d2155560e11b815233928101929092526001600160a01b031690636ba42aaa9060240160206040518083038186803b158015611e3457600080fd5b505afa158015611e48573d6000803e3d6000fd5b505050506040513d601f19601f82011682018060405250810190611e6c91906139c2565b80611e8157506002546001600160a01b031633145b611e9d5760405162461bcd60e51b8152600401610520906139e4565b604051634582ac0d60e01b815260009073__$1216f89a8e7e65c17bbdb90cf043af022a$__90634582ac0d90611eda906005908690600401613ca9565b6101e06040518083038186803b158015611ef357600080fd5b505af4158015611f07573d6000803e3d6000fd5b505050506040513d601f19601f82011682018060405250810190611f2b9190613cde565b90506000611f416004546001600160a01b031690565b6001600160a01b03166333fb96ee6040518163ffffffff1660e01b815260040160206040518083038186803b158015611f7957600080fd5b505afa158015611f8d573d6000803e3d6000fd5b505050506040513d601f19601f82011682018060405250810190611fb191906137d3565b825160800151604051631089f5ed60e01b815264ffffffffff90911660048201529091506001600160a01b03821690631089f5ed90602401600060405180830381600087803b15801561200357600080fd5b505af1158015612017573d6000803e3d6000fd5b5050604051630cca8e4560e11b81526001600160a01b03841692506319951c8a915061204790859060040161377d565b600060405180830381600087803b15801561206157600080fd5b505af1158015612075573d6000803e3d6000fd5b50505050602082810151908101516040918201519151631bfc7c8560e11b81526001600160401b039182166004820152911660248201526001600160a01b038216906337f8f90a90604401600060405180830381600087803b1580156120da57600080fd5b505af11580156120ee573d6000803e3d6000fd5b5050506020808401516040808201519190920151855192516308389abd60e41b81526001600160401b03928316945091169173__$1216f89a8e7e65c17bbdb90cf043af022a$__91638389abd091612148916004016134e1565b60206040518083038186803b15801561216057600080fd5b505af4158015612174573d6000803e3d6000fd5b505050506040513d601f19601f820116820180604052508101906121989190613da7565b6040517f19470c51ca433b0316fc7a68e8f489c780d0dfecb9ac9e7e6f18d450cc210d0e90600090a4505050565b816121d08161090d565b6121ec5760405162461bcd60e51b815260040161052090613b3f565b6000838152600560205260409020600101548390600160f01b900460ff16156122275760405162461bcd60e51b815260040161052090613b76565b600061223b6004546001600160a01b031690565b9050806001600160a01b031663957968476040518163ffffffff1660e01b815260040160206040518083038186803b15801561227657600080fd5b505afa15801561228a573d6000803e3d6000fd5b505050506040513d601f19601f820116820180604052508101906122ae91906137d3565b6001600160a01b0316336001600160a01b0316148061233f57506040516335d2155560e11b81523360048201526001600160a01b03821690636ba42aaa9060240160206040518083038186803b15801561230757600080fd5b505afa15801561231b573d6000803e3d6000fd5b505050506040513d601f19601f8201168201806040525081019061233f91906139c2565b61238b5760405162461bcd60e51b815260206004820152601f60248201527f424f532e4443413a206e656974686572206b6565706572206e6f7220524f50006044820152606401610520565b60008581526005602052604090819020905163342482e160e11b8152600481018290526024810186905273__$1216f89a8e7e65c17bbdb90cf043af022a$__9063684905c29060440160006040518083038186803b1580156123ec57600080fd5b505af4158015612400573d6000803e3d6000fd5b50505050816001600160a01b03166333fb96ee6040518163ffffffff1660e01b815260040160206040518083038186803b15801561243d57600080fd5b505afa158015612451573d6000803e3d6000fd5b505050506040513d601f19601f8201168201806040525081019061247591906137d3565b81546040516324415e4360e11b8152600160801b90910464ffffffffff166004820152600060248201819052604482015260648101879052600160848201526001600160a01b039190911690634882bc869060a401600060405180830381600087803b1580156124e457600080fd5b505af11580156124f8573d6000803e3d6000fd5b50506040518792508891507f5c4f63eb2634eff57def5d49e434310036d5945885a7a3c862db4569c917c39690600090a3505050505050565b6002546001600160a01b0316331461255b5760405162461bcd60e51b8152600401610520906137ab565b826125658161090d565b6125815760405162461bcd60e51b815260040161052090613b3f565b6000848152600560205260409020600101548490600160f01b900460ff16156125bc5760405162461bcd60e51b815260040161052090613b76565b60008581526005602052604090206125d5818686612c39565b6004546001600160a01b03166001600160a01b03166333fb96ee6040518163ffffffff1660e01b815260040160206040518083038186803b15801561261957600080fd5b505afa15801561262d573d6000803e3d6000fd5b505050506040513d601f19601f8201168201806040525081019061265191906137d3565b6040516305552ed760e11b815260048101879052602481018690526001600160a01b039190911690630aaa5dae90604401600060405180830381600087803b15801561269c57600080fd5b505af11580156126b0573d6000803e3d6000fd5b50505050505050505050565b6002546001600160a01b031633146126e65760405162461bcd60e51b8152600401610520906137ab565b6000848152600560209081526040918290208251608081018452815463ffffffff81168252600160801b900464ffffffffff169281019290925265ffffffffffff8516828401526001600160801b038616606083015291516360633cc360e11b815273__$47b24d17d5977d1228f91fbbfb2c402609$__9063c0c67986906127779060089085908890600401613dc0565b60006040518083038186803b15801561278f57600080fd5b505af41580156127a3573d6000803e3d6000fd5b5050604051630c719e8f60e11b815285925073__$47b24d17d5977d1228f91fbbfb2c402609$__91506318e33d1e906127e0908590600401613de2565b60206040518083038186803b1580156127f857600080fd5b505af415801561280c573d6000803e3d6000fd5b505050506040513d601f19601f820116820180604052508101906128309190613da7565b6040517f68495595d993c8ea4ebb054128849a188960e04be773f2fceab9adda4ba17fca90600090a3505050505050565b612869612f16565b816128738161090d565b61288f5760405162461bcd60e51b815260040161052090613b3f565b5050600090815260056020908152604091829020825161016081018452815463ffffffff8082168387019081526401000000008304821660608086019190915261ffff600160401b8504811660808088019190915265ffffffffffff600160501b8704811660a0808a019190915264ffffffffff600160801b89041660c0808b0191909152600160a81b8904881660e08b0152600160c81b89049097166101008a0152600160e81b880490931661012089015260ff600160f81b9788900481166101408a01529488528a519586018b5260019098015497881685526001600160401b03660100000000000089048116868b0152600160701b890481169a86019a909a52600160b01b880490991691840191909152600160f01b86048216978301979097529190930416938201939093529082015290565b60405163303b779f60e01b815273__$a374c895e6fa8c448878668e00d93ef99a$__9063303b779f90610b419060009086908690339060040161399b565b600054600160a01b900460ff16600114612a605760405162461bcd60e51b815260206004820152601c60248201527f41432e6c6f636b436f6e74656e74733a2077726f6e67207374617465000000006044820152606401610520565b60405163bf2755e360e01b815260006004820152684174746f726e65797360b81b602482015233604482018190529073__$a374c895e6fa8c448878668e00d93ef99a$__9063bf2755e39060640160006040518083038186803b158015612ac657600080fd5b505af4158015612ada573d6000803e3d6000fd5b50506040516351e7e80560e01b815260006004820181905260248201526001600160a01b038416604482015273__$a374c895e6fa8c448878668e00d93ef99a$__92506351e7e805915060640160006040518083038186803b158015612b3f57600080fd5b505af4158015612b53573d6000803e3d6000fd5b50506000805460ff60a01b1916600160a11b1781556040517f35012b512309c322acf68632cd6cb702ff0e1d776fbe9394e38ffc13b434fe759350909150a150565b60405163625b803f60e01b8152600481018390526024810182905273__$1216f89a8e7e65c17bbdb90cf043af022a$__9063625b803f9060440160006040518083038186803b158015612be757600080fd5b505af4158015612bfb573d6000803e3d6000fd5b5050835460405184935063ffffffff90911691507f57e9aa735f3643050a70c432302f101b9888619f48a9e768d482f9237a2720a590600090a35050565b6000612c4d6004546001600160a01b031690565b6001600160a01b03166333fb96ee6040518163ffffffff1660e01b815260040160206040518083038186803b158015612c8557600080fd5b505afa158015612c99573d6000803e3d6000fd5b505050506040513d601f19601f82011682018060405250810190612cbd91906137d3565b6001850154909150600160701b90046001600160401b0316821415612dd2576040516331846b7160e01b81526001600160a01b038216906331846b7190612d08908790600401613df0565b600060405180830381600087803b158015612d2257600080fd5b505af1158015612d36573d6000803e3d6000fd5b50508554604051631b7a23db60e21b81526005600482015263ffffffff909116602482015273__$1216f89a8e7e65c17bbdb90cf043af022a$__9250636de88f6c915060440160206040518083038186803b158015612d9457600080fd5b505af4158015612da8573d6000803e3d6000fd5b505050506040513d601f19601f82011682018060405250810190612dcc91906139c2565b50610789565b612ddd848484612e68565b83546040516324415e4360e11b8152600160801b90910464ffffffffff166004820152602481018490526044810183905260648101849052600060848201526001600160a01b03821690634882bc869060a401600060405180830381600087803b158015612e4a57600080fd5b505af1158015612e5e573d6000803e3d6000fd5b5050505050505050565b6040516359a5250960e01b815260048101849052602481018390526044810182905273__$1216f89a8e7e65c17bbdb90cf043af022a$__906359a525099060640160006040518083038186803b158015612ec157600080fd5b505af4158015612ed5573d6000803e3d6000fd5b5050845460405184935085925063ffffffff909116907f0476aa40cc4df015c2f3118ec8dae2be71258851b1ebb240ae6cbe75bc30819890600090a4505050565b6040518060400160405280612f29612fbc565b81526040805160c08101825260008082526020828101829052928201819052606082018190526080820181905260a082015291015290565b905290565b6040805160c0810182526000918101828152606082018390526080820183905260a08201929092529081908152602001612f61604051806040016040528060006001600160a01b03168152602001606081525090565b6040805161012081018252600080825260208201819052918101829052606081018290526080810182905260a0810182905260c0810182905260e0810182905261010081019190915290565b634e487b7160e01b600052604160045260246000fd5b60405160c081016001600160401b038111828210171561304057613040613008565b60405290565b604080519081016001600160401b038111828210171561304057613040613008565b60405161012081016001600160401b038111828210171561304057613040613008565b604051601f8201601f191681016001600160401b03811182821017156130b3576130b3613008565b604052919050565b60006001600160401b038211156130d4576130d4613008565b50601f01601f191660200190565b600080604083850312156130f557600080fd5b8235915060208301356001600160401b0381111561311257600080fd5b8301601f8101851361312357600080fd5b8035613136613131826130bb565b61308b565b81815286602083850101111561314b57600080fd5b816020840160208301376000602083830101528093505050509250929050565b6001600160a01b038116811461318057600080fd5b50565b6000806000806080858703121561319957600080fd5b84356131a48161316b565b935060208501356131b48161316b565b925060408501356131c48161316b565b915060608501356131d48161316b565b939692955090935050565b6020808252825182820181905260009190848201906040850190845b81811015613217578351835292840192918401916001016131fb565b50909695505050505050565b60006020828403121561323557600080fd5b5035919050565b60006020828403121561324e57600080fd5b81356117e98161316b565b6000806040838503121561326c57600080fd5b82359150602083013561327e8161316b565b809150509250929050565b6000806000806080858703121561329f57600080fd5b5050823594602084013594506040840135936060013592509050565b600080604083850312156132ce57600080fd5b50508035926020909101359150565b65ffffffffffff815116825260208101516001600160401b038082166020850152806040840151166040850152806060840151166060850152505060ff608082015116608083015260ff60a08201511660a08301525050565b60c08101610a7082846132dd565b64ffffffffff8082511683528060208301511660208401525065ffffffffffff60408201511660408301526001600160801b0360608201511660608301525050565b60005b838110156133a1578181015183820152602001613389565b838111156107895750506000910152565b600081518084526133ca816020860160208601613386565b601f01601f19169290920160200192915050565b602081526133f0602082018351613344565b60208281015160a08381015280516001600160a01b031660c08401520151604060e08301526000906134266101008401826133b2565b949350505050565b63ffffffff8082511683528060208301511660208401525061ffff6040820151166040830152606081015161346d606084018265ffffffffffff169052565b506080810151613486608084018264ffffffffff169052565b5060a081015161349e60a084018263ffffffff169052565b5060c08101516134b660c084018263ffffffff169052565b5060e08101516134cc60e084018261ffff169052565b506101008181015160ff811684830152610789565b6101208101610a70828461342e565b60008060008060008060c0878903121561350957600080fd5b505084359660208601359650604086013595606081013595506080810135945060a0013592509050565b63ffffffff8116811461318057600080fd5b803561355081613533565b919050565b61ffff8116811461318057600080fd5b803561355081613555565b65ffffffffffff8116811461318057600080fd5b803561355081613570565b64ffffffffff8116811461318057600080fd5b80356135508161358f565b60ff8116811461318057600080fd5b8035613550816135ad565b6001600160401b038116811461318057600080fd5b600060c082840312156135ee57600080fd5b6135f661301e565b9050813561360381613570565b81526020820135613613816135c7565b60208201526040820135613626816135c7565b60408201526060820135613639816135c7565b6060820152608082013561364c816135ad565b608082015260a082013561365f816135ad565b60a082015292915050565b60008183036101e081121561367e57600080fd5b613686613046565b6101208083121561369657600080fd5b61369e613068565b92506136a985613545565b83526136b760208601613545565b60208401526136c860408601613565565b60408401526136d960608601613584565b60608401526136ea608086016135a2565b60808401526136fb60a08601613545565b60a084015261370c60c08601613545565b60c084015261371d60e08601613565565b60e08401526101006137308187016135bc565b90840152828252613743868683016135dc565b602083015250949350505050565b60008060006060848603121561376657600080fd5b505081359360208301359350604090920135919050565b60006101e08201905061379182845161342e565b60208301516137a46101208401826132dd565b5092915050565b6020808252600e908201526d1050cb9bdb9b1e5112ce881393d560921b604082015260600190565b6000602082840312156137e557600080fd5b81516117e98161316b565b84815283602082015260806040820152600061380f60808301856133b2565b905082606083015295945050505050565b80516135508161358f565b805161355081613570565b60006080828403121561384857600080fd5b604051608081018181106001600160401b038211171561386a5761386a613008565b8060405250809150825161387d8161358f565b8152602083015161388d8161358f565b602082015260408301516138a081613570565b604082015260608301516001600160801b03811681146138bf57600080fd5b6060919091015292915050565b6000608082840312156138de57600080fd5b6117e98383613836565b60006001600160401b0382111561390157613901613008565b5060051b60200190565b6000602080838503121561391e57600080fd5b82516001600160401b0381111561393457600080fd5b8301601f8101851361394557600080fd5b8051613953613131826138e8565b81815260059190911b8201830190838101908783111561397257600080fd5b928401925b8284101561399057835182529284019290840190613977565b979650505050505050565b93845260208401929092526001600160a01b03908116604084015216606082015260800190565b6000602082840312156139d457600080fd5b815180151581146117e957600080fd5b6020808252601290820152711050cb9bdb9b1e52d9595c195c8e881393d560721b604082015260600190565b805161355081613533565b805161355081613555565b8051613550816135ad565b60006101208284031215613a4457600080fd5b613a4c613068565b9050613a5782613a10565b8152613a6560208301613a10565b6020820152613a7660408301613a1b565b6040820152613a876060830161382b565b6060820152613a9860808301613820565b6080820152613aa960a08301613a10565b60a0820152613aba60c08301613a10565b60c0820152613acb60e08301613a1b565b60e0820152610100613ade818401613a26565b9082015292915050565b60006101208284031215613afb57600080fd5b6117e98383613a31565b600060208284031215613b1757600080fd5b81516117e981613533565b600060208284031215613b3457600080fd5b81516117e981613555565b6020808252601f908201527f424f532e6d662e53453a207365714f665368617265204e4f5420657869737400604082015260600190565b6020808252601b908201527f424f532e6d662e4e463a20736861726520697320667265657a65640000000000604082015260600190565b60006020808385031215613bc057600080fd5b82516001600160401b0380821115613bd757600080fd5b9084019060a08287031215613beb57600080fd5b613bf3613046565b613bfd8784613836565b8152608083015182811115613c1157600080fd5b929092019160408388031215613c2657600080fd5b613c2e613046565b8351613c398161316b565b81528385015183811115613c4c57600080fd5b80850194505087601f850112613c6157600080fd5b83519250613c71613131846130bb565b8381528886858701011115613c8557600080fd5b613c9484878301888801613386565b81860152938101939093525090949350505050565b600061020082019050838252613cc360208301845161342e565b6020830151613cd66101408401826132dd565b509392505050565b60008183036101e0811215613cf257600080fd5b613cfa613046565b613d048585613a31565b815260c061011f1983011215613d1957600080fd5b613d2161301e565b9150610120840151613d3281613570565b8252610140840151613d43816135c7565b6020830152610160840151613d57816135c7565b6040830152610180840151613d6b816135c7565b60608301526101a0840151613d7f816135ad565b60808301526101c0840151613d93816135ad565b60a083015260208101919091529392505050565b600060208284031215613db957600080fd5b5051919050565b83815260c08101613dd46020830185613344565b8260a0830152949350505050565b60808101610a708284613344565b815463ffffffff8082168352602082811c8216908401526101e08301919061ffff613e2660408601828560401c1661ffff169052565b605083901c65ffffffffffff166060860152608083811c64ffffffffff1690860152613e5f60a08601838560a81c1663ffffffff169052565b613e7660c08601838560c81c1663ffffffff169052565b613e8b60e08601828560e81c1661ffff169052565b505060f881901c61010084015250600183015465ffffffffffff81166101208401526001600160401b03603082901c8116610140850152607082901c811661016085015260b082901c1661018084015260ff60f082901c166101a084015260f81c6101c0830152610a7056fea2646970667358221220a90d3f70f34b252a52452ec5a5dd879da6277e539e5e8494e26f123cd553b60064736f6c63430008080033",
    "sourcePath": "/Users/kaptain/github.com/comboox/comboox/contracts/books/bos/BookOfShares.sol",
    "compiler": {
        "name": "solc",
        "version": "0.8.8+commit.dddeac2f"
    },
    "functionHashes": {
        "abandonRole(bytes32)": "3da9a600",
        "addShare(((uint32,uint32,uint16,uint48,uint40,uint32,uint32,uint16,uint8),(uint48,uint64,uint64,uint64,uint8,uint8)))": "c8a9788c",
        "counterOfClasses()": "544f1ba2",
        "counterOfShares()": "4a0ca0d6",
        "decreaseCapital(uint256,uint256,uint256)": "cd78c98a",
        "decreaseCleanPaid(uint256,uint256)": "60d095df",
        "getBodyOfShare(uint256)": "58ebd89b",
        "getDK()": "50627aea",
        "getHeadOfShare(uint256)": "92c80eb7",
        "getLocker(bytes32)": "851ad654",
        "getLocksList()": "0b4b43ee",
        "getOwner()": "893d20e8",
        "getRoleAdmin(bytes32)": "248a9ca3",
        "getShare(uint256)": "cfb5a5f8",
        "getSharesOfClass(uint256)": "1d601918",
        "grantRole(bytes32,address)": "2f2ff15d",
        "hasRole(bytes32,address)": "91d14854",
        "increaseCleanPaid(uint256,uint256)": "ccdddd41",
        "init(address,address,address,address)": "06552ff3",
        "isFinalized()": "8d4e4083",
        "isShare(uint256)": "0c1d138b",
        "issueShare(bytes32,uint256,uint256,uint256)": "36571a79",
        "lockContents()": "f045a769",
        "renounceRole(bytes32)": "8bb9c5bf",
        "requestPaidInCapital(bytes32,string)": "04726d7a",
        "revokeRole(bytes32,address)": "d547741f",
        "setDirectKeeper(address)": "6be8496f",
        "setOwner(address)": "13af4035",
        "setPayInAmt(uint256,uint256,uint256,bytes32)": "cebb34a8",
        "setRoleAdmin(bytes32,address)": "ad763192",
        "takeBackKeys(address)": "40b6c23e",
        "transferShare(uint256,uint256,uint256,uint256,uint256,uint256)": "ae47fa54",
        "updateStateOfShare(uint256,uint256)": "874b5657",
        "withdrawPayInAmt(bytes32,uint256)": "4b4b972f"
    },
    "gasEstimates": {
        "creation": {
            "codeDepositCost": "3234600",
            "executionCost": "3587",
            "totalCost": "3238187"
        },
        "external": {
            "abandonRole(bytes32)": "infinite",
            "addShare(((uint32,uint32,uint16,uint48,uint40,uint32,uint32,uint16,uint8),(uint48,uint64,uint64,uint64,uint8,uint8)))": "infinite",
            "counterOfClasses()": "infinite",
            "counterOfShares()": "infinite",
            "decreaseCapital(uint256,uint256,uint256)": "infinite",
            "decreaseCleanPaid(uint256,uint256)": "infinite",
            "getBodyOfShare(uint256)": "5510",
            "getDK()": "2398",
            "getHeadOfShare(uint256)": "5898",
            "getLocker(bytes32)": "infinite",
            "getLocksList()": "infinite",
            "getOwner()": "infinite",
            "getRoleAdmin(bytes32)": "infinite",
            "getShare(uint256)": "8826",
            "getSharesOfClass(uint256)": "infinite",
            "grantRole(bytes32,address)": "infinite",
            "hasRole(bytes32,address)": "infinite",
            "increaseCleanPaid(uint256,uint256)": "infinite",
            "init(address,address,address,address)": "infinite",
            "isFinalized()": "2394",
            "isShare(uint256)": "2598",
            "issueShare(bytes32,uint256,uint256,uint256)": "infinite",
            "lockContents()": "infinite",
            "renounceRole(bytes32)": "infinite",
            "requestPaidInCapital(bytes32,string)": "infinite",
            "revokeRole(bytes32,address)": "infinite",
            "setDirectKeeper(address)": "27890",
            "setOwner(address)": "infinite",
            "setPayInAmt(uint256,uint256,uint256,bytes32)": "infinite",
            "setRoleAdmin(bytes32,address)": "infinite",
            "takeBackKeys(address)": "infinite",
            "transferShare(uint256,uint256,uint256,uint256,uint256,uint256)": "infinite",
            "updateStateOfShare(uint256,uint256)": "30594",
            "withdrawPayInAmt(bytes32,uint256)": "infinite"
        },
        "internal": {
            "_decreaseShareAmt(struct SharesRepo.Share storage pointer,uint256,uint256)": "infinite",
            "_deregisterShare(uint256)": "infinite",
            "_payInCapital(struct SharesRepo.Share storage pointer,uint256)": "infinite",
            "_subAmtFromShare(struct SharesRepo.Share storage pointer,uint256,uint256)": "infinite"
        }
    }
}