{
    "contractName": "BookOfShares",
    "abi": [
        {
            "anonymous": false,
            "inputs": [
                {
                    "indexed": true,
                    "internalType": "uint256",
                    "name": "seq",
                    "type": "uint256"
                },
                {
                    "indexed": false,
                    "internalType": "uint64",
                    "name": "paid",
                    "type": "uint64"
                },
                {
                    "indexed": false,
                    "internalType": "uint64",
                    "name": "par",
                    "type": "uint64"
                }
            ],
            "name": "DecreaseCleanAmt",
            "type": "event"
        },
        {
            "anonymous": false,
            "inputs": [
                {
                    "indexed": true,
                    "internalType": "uint256",
                    "name": "seq",
                    "type": "uint256"
                }
            ],
            "name": "DeregisterShare",
            "type": "event"
        },
        {
            "anonymous": false,
            "inputs": [
                {
                    "indexed": true,
                    "internalType": "uint256",
                    "name": "seq",
                    "type": "uint256"
                },
                {
                    "indexed": false,
                    "internalType": "uint64",
                    "name": "paid",
                    "type": "uint64"
                },
                {
                    "indexed": false,
                    "internalType": "uint64",
                    "name": "par",
                    "type": "uint64"
                }
            ],
            "name": "IncreaseCleanAmt",
            "type": "event"
        },
        {
            "anonymous": false,
            "inputs": [
                {
                    "indexed": false,
                    "internalType": "uint256",
                    "name": "owner",
                    "type": "uint256"
                },
                {
                    "indexed": false,
                    "internalType": "address",
                    "name": "directKeeper",
                    "type": "address"
                },
                {
                    "indexed": false,
                    "internalType": "address",
                    "name": "regCenter",
                    "type": "address"
                },
                {
                    "indexed": false,
                    "internalType": "address",
                    "name": "generalKeeper",
                    "type": "address"
                }
            ],
            "name": "Init",
            "type": "event"
        },
        {
            "anonymous": false,
            "inputs": [
                {
                    "indexed": true,
                    "internalType": "uint256",
                    "name": "seq",
                    "type": "uint256"
                },
                {
                    "indexed": false,
                    "internalType": "uint64",
                    "name": "paid",
                    "type": "uint64"
                },
                {
                    "indexed": false,
                    "internalType": "uint64",
                    "name": "par",
                    "type": "uint64"
                }
            ],
            "name": "IssueShare",
            "type": "event"
        },
        {
            "anonymous": false,
            "inputs": [],
            "name": "LockContents",
            "type": "event"
        },
        {
            "anonymous": false,
            "inputs": [
                {
                    "indexed": true,
                    "internalType": "uint256",
                    "name": "seq",
                    "type": "uint256"
                },
                {
                    "indexed": false,
                    "internalType": "uint64",
                    "name": "amount",
                    "type": "uint64"
                }
            ],
            "name": "PayInCapital",
            "type": "event"
        },
        {
            "anonymous": false,
            "inputs": [
                {
                    "indexed": false,
                    "internalType": "address",
                    "name": "keeper",
                    "type": "address"
                }
            ],
            "name": "SetDirectKeeper",
            "type": "event"
        },
        {
            "anonymous": false,
            "inputs": [
                {
                    "indexed": false,
                    "internalType": "uint256",
                    "name": "acct",
                    "type": "uint256"
                }
            ],
            "name": "SetGeneralCounsel",
            "type": "event"
        },
        {
            "anonymous": false,
            "inputs": [
                {
                    "indexed": false,
                    "internalType": "address",
                    "name": "gk",
                    "type": "address"
                }
            ],
            "name": "SetGeneralKeeper",
            "type": "event"
        },
        {
            "anonymous": false,
            "inputs": [
                {
                    "indexed": false,
                    "internalType": "uint256",
                    "name": "acct",
                    "type": "uint256"
                }
            ],
            "name": "SetOwner",
            "type": "event"
        },
        {
            "anonymous": false,
            "inputs": [
                {
                    "indexed": true,
                    "internalType": "bytes32",
                    "name": "sn",
                    "type": "bytes32"
                },
                {
                    "indexed": false,
                    "internalType": "uint64",
                    "name": "amount",
                    "type": "uint64"
                }
            ],
            "name": "SetPayInAmt",
            "type": "event"
        },
        {
            "anonymous": false,
            "inputs": [
                {
                    "indexed": false,
                    "internalType": "address",
                    "name": "rc",
                    "type": "address"
                }
            ],
            "name": "SetRegCenter",
            "type": "event"
        },
        {
            "anonymous": false,
            "inputs": [
                {
                    "indexed": true,
                    "internalType": "uint256",
                    "name": "seq",
                    "type": "uint256"
                },
                {
                    "indexed": false,
                    "internalType": "uint64",
                    "name": "paid",
                    "type": "uint64"
                },
                {
                    "indexed": false,
                    "internalType": "uint64",
                    "name": "par",
                    "type": "uint64"
                }
            ],
            "name": "SubAmountFromShare",
            "type": "event"
        },
        {
            "anonymous": false,
            "inputs": [
                {
                    "indexed": true,
                    "internalType": "uint256",
                    "name": "seq",
                    "type": "uint256"
                },
                {
                    "indexed": false,
                    "internalType": "uint48",
                    "name": "paidInDeadline",
                    "type": "uint48"
                }
            ],
            "name": "UpdatePaidInDeadline",
            "type": "event"
        },
        {
            "anonymous": false,
            "inputs": [
                {
                    "indexed": true,
                    "internalType": "uint256",
                    "name": "seq",
                    "type": "uint256"
                },
                {
                    "indexed": false,
                    "internalType": "uint8",
                    "name": "state",
                    "type": "uint8"
                }
            ],
            "name": "UpdateStateOfShare",
            "type": "event"
        },
        {
            "anonymous": false,
            "inputs": [
                {
                    "indexed": true,
                    "internalType": "bytes32",
                    "name": "sn",
                    "type": "bytes32"
                }
            ],
            "name": "WithdrawPayInAmt",
            "type": "event"
        },
        {
            "inputs": [
                {
                    "internalType": "bytes32",
                    "name": "role",
                    "type": "bytes32"
                }
            ],
            "name": "abandonRole",
            "outputs": [],
            "stateMutability": "nonpayable",
            "type": "function"
        },
        {
            "inputs": [],
            "name": "counterOfClasses",
            "outputs": [
                {
                    "internalType": "uint16",
                    "name": "",
                    "type": "uint16"
                }
            ],
            "stateMutability": "view",
            "type": "function"
        },
        {
            "inputs": [],
            "name": "counterOfShares",
            "outputs": [
                {
                    "internalType": "uint32",
                    "name": "",
                    "type": "uint32"
                }
            ],
            "stateMutability": "view",
            "type": "function"
        },
        {
            "inputs": [
                {
                    "internalType": "uint256",
                    "name": "seq",
                    "type": "uint256"
                },
                {
                    "internalType": "uint64",
                    "name": "paid",
                    "type": "uint64"
                },
                {
                    "internalType": "uint64",
                    "name": "par",
                    "type": "uint64"
                }
            ],
            "name": "decreaseCapital",
            "outputs": [],
            "stateMutability": "nonpayable",
            "type": "function"
        },
        {
            "inputs": [
                {
                    "internalType": "uint256",
                    "name": "seq",
                    "type": "uint256"
                },
                {
                    "internalType": "uint64",
                    "name": "paid",
                    "type": "uint64"
                },
                {
                    "internalType": "uint64",
                    "name": "par",
                    "type": "uint64"
                }
            ],
            "name": "decreaseCleanAmt",
            "outputs": [],
            "stateMutability": "nonpayable",
            "type": "function"
        },
        {
            "inputs": [],
            "name": "finalized",
            "outputs": [
                {
                    "internalType": "bool",
                    "name": "",
                    "type": "bool"
                }
            ],
            "stateMutability": "view",
            "type": "function"
        },
        {
            "inputs": [
                {
                    "internalType": "uint16",
                    "name": "class",
                    "type": "uint16"
                }
            ],
            "name": "getAttrOfClass",
            "outputs": [
                {
                    "internalType": "uint256[]",
                    "name": "seqList",
                    "type": "uint256[]"
                },
                {
                    "internalType": "uint256[]",
                    "name": "members",
                    "type": "uint256[]"
                }
            ],
            "stateMutability": "view",
            "type": "function"
        },
        {
            "inputs": [
                {
                    "internalType": "uint256",
                    "name": "seq",
                    "type": "uint256"
                }
            ],
            "name": "getBodyOfShare",
            "outputs": [
                {
                    "components": [
                        {
                            "internalType": "uint64",
                            "name": "paid",
                            "type": "uint64"
                        },
                        {
                            "internalType": "uint64",
                            "name": "par",
                            "type": "uint64"
                        },
                        {
                            "internalType": "uint64",
                            "name": "cleanPaid",
                            "type": "uint64"
                        },
                        {
                            "internalType": "uint64",
                            "name": "cleanPar",
                            "type": "uint64"
                        }
                    ],
                    "internalType": "struct SharesRepo.Body",
                    "name": "body",
                    "type": "tuple"
                }
            ],
            "stateMutability": "view",
            "type": "function"
        },
        {
            "inputs": [],
            "name": "getBookeeper",
            "outputs": [
                {
                    "internalType": "address",
                    "name": "",
                    "type": "address"
                }
            ],
            "stateMutability": "view",
            "type": "function"
        },
        {
            "inputs": [],
            "name": "getGeneralCounsel",
            "outputs": [
                {
                    "internalType": "uint40",
                    "name": "",
                    "type": "uint40"
                }
            ],
            "stateMutability": "view",
            "type": "function"
        },
        {
            "inputs": [
                {
                    "internalType": "uint256",
                    "name": "seq",
                    "type": "uint256"
                }
            ],
            "name": "getHeadOfShare",
            "outputs": [
                {
                    "components": [
                        {
                            "internalType": "uint32",
                            "name": "seq",
                            "type": "uint32"
                        },
                        {
                            "internalType": "uint32",
                            "name": "preSeq",
                            "type": "uint32"
                        },
                        {
                            "internalType": "uint16",
                            "name": "class",
                            "type": "uint16"
                        },
                        {
                            "internalType": "uint48",
                            "name": "issueDate",
                            "type": "uint48"
                        },
                        {
                            "internalType": "uint48",
                            "name": "payInDeadline",
                            "type": "uint48"
                        },
                        {
                            "internalType": "uint40",
                            "name": "shareholder",
                            "type": "uint40"
                        },
                        {
                            "internalType": "uint32",
                            "name": "price",
                            "type": "uint32"
                        },
                        {
                            "internalType": "uint8",
                            "name": "state",
                            "type": "uint8"
                        }
                    ],
                    "internalType": "struct SharesRepo.Head",
                    "name": "head",
                    "type": "tuple"
                }
            ],
            "stateMutability": "view",
            "type": "function"
        },
        {
            "inputs": [
                {
                    "internalType": "bytes32",
                    "name": "hashLock",
                    "type": "bytes32"
                }
            ],
            "name": "getLocker",
            "outputs": [
                {
                    "internalType": "uint64",
                    "name": "amount",
                    "type": "uint64"
                }
            ],
            "stateMutability": "view",
            "type": "function"
        },
        {
            "inputs": [],
            "name": "getOwner",
            "outputs": [
                {
                    "internalType": "uint40",
                    "name": "",
                    "type": "uint40"
                }
            ],
            "stateMutability": "view",
            "type": "function"
        },
        {
            "inputs": [
                {
                    "internalType": "uint256",
                    "name": "seq",
                    "type": "uint256"
                }
            ],
            "name": "getShare",
            "outputs": [
                {
                    "components": [
                        {
                            "components": [
                                {
                                    "internalType": "uint32",
                                    "name": "seq",
                                    "type": "uint32"
                                },
                                {
                                    "internalType": "uint32",
                                    "name": "preSeq",
                                    "type": "uint32"
                                },
                                {
                                    "internalType": "uint16",
                                    "name": "class",
                                    "type": "uint16"
                                },
                                {
                                    "internalType": "uint48",
                                    "name": "issueDate",
                                    "type": "uint48"
                                },
                                {
                                    "internalType": "uint48",
                                    "name": "payInDeadline",
                                    "type": "uint48"
                                },
                                {
                                    "internalType": "uint40",
                                    "name": "shareholder",
                                    "type": "uint40"
                                },
                                {
                                    "internalType": "uint32",
                                    "name": "price",
                                    "type": "uint32"
                                },
                                {
                                    "internalType": "uint8",
                                    "name": "state",
                                    "type": "uint8"
                                }
                            ],
                            "internalType": "struct SharesRepo.Head",
                            "name": "head",
                            "type": "tuple"
                        },
                        {
                            "components": [
                                {
                                    "internalType": "uint64",
                                    "name": "paid",
                                    "type": "uint64"
                                },
                                {
                                    "internalType": "uint64",
                                    "name": "par",
                                    "type": "uint64"
                                },
                                {
                                    "internalType": "uint64",
                                    "name": "cleanPaid",
                                    "type": "uint64"
                                },
                                {
                                    "internalType": "uint64",
                                    "name": "cleanPar",
                                    "type": "uint64"
                                }
                            ],
                            "internalType": "struct SharesRepo.Body",
                            "name": "body",
                            "type": "tuple"
                        }
                    ],
                    "internalType": "struct SharesRepo.Share",
                    "name": "share",
                    "type": "tuple"
                }
            ],
            "stateMutability": "view",
            "type": "function"
        },
        {
            "inputs": [
                {
                    "internalType": "bytes32",
                    "name": "role",
                    "type": "bytes32"
                },
                {
                    "internalType": "uint256",
                    "name": "acct",
                    "type": "uint256"
                }
            ],
            "name": "grantRole",
            "outputs": [],
            "stateMutability": "nonpayable",
            "type": "function"
        },
        {
            "inputs": [
                {
                    "internalType": "bytes32",
                    "name": "role",
                    "type": "bytes32"
                },
                {
                    "internalType": "uint256",
                    "name": "acct",
                    "type": "uint256"
                }
            ],
            "name": "hasRole",
            "outputs": [
                {
                    "internalType": "bool",
                    "name": "",
                    "type": "bool"
                }
            ],
            "stateMutability": "view",
            "type": "function"
        },
        {
            "inputs": [
                {
                    "internalType": "uint256",
                    "name": "seq",
                    "type": "uint256"
                },
                {
                    "internalType": "uint64",
                    "name": "paid",
                    "type": "uint64"
                },
                {
                    "internalType": "uint64",
                    "name": "par",
                    "type": "uint64"
                }
            ],
            "name": "increaseCleanAmt",
            "outputs": [],
            "stateMutability": "nonpayable",
            "type": "function"
        },
        {
            "inputs": [
                {
                    "internalType": "uint256",
                    "name": "owner",
                    "type": "uint256"
                },
                {
                    "internalType": "address",
                    "name": "directKeeper",
                    "type": "address"
                },
                {
                    "internalType": "address",
                    "name": "regCenter",
                    "type": "address"
                },
                {
                    "internalType": "address",
                    "name": "generalKeeper",
                    "type": "address"
                }
            ],
            "name": "init",
            "outputs": [],
            "stateMutability": "nonpayable",
            "type": "function"
        },
        {
            "inputs": [
                {
                    "internalType": "uint256",
                    "name": "seq",
                    "type": "uint256"
                }
            ],
            "name": "isShare",
            "outputs": [
                {
                    "internalType": "bool",
                    "name": "",
                    "type": "bool"
                }
            ],
            "stateMutability": "view",
            "type": "function"
        },
        {
            "inputs": [
                {
                    "internalType": "uint256",
                    "name": "shareNumber",
                    "type": "uint256"
                },
                {
                    "internalType": "uint64",
                    "name": "paid",
                    "type": "uint64"
                },
                {
                    "internalType": "uint64",
                    "name": "par",
                    "type": "uint64"
                }
            ],
            "name": "issueShare",
            "outputs": [],
            "stateMutability": "nonpayable",
            "type": "function"
        },
        {
            "inputs": [],
            "name": "lockContents",
            "outputs": [],
            "stateMutability": "nonpayable",
            "type": "function"
        },
        {
            "inputs": [
                {
                    "components": [
                        {
                            "internalType": "uint32",
                            "name": "seq",
                            "type": "uint32"
                        },
                        {
                            "internalType": "uint32",
                            "name": "preSeq",
                            "type": "uint32"
                        },
                        {
                            "internalType": "uint16",
                            "name": "class",
                            "type": "uint16"
                        },
                        {
                            "internalType": "uint48",
                            "name": "issueDate",
                            "type": "uint48"
                        },
                        {
                            "internalType": "uint48",
                            "name": "payInDeadline",
                            "type": "uint48"
                        },
                        {
                            "internalType": "uint40",
                            "name": "shareholder",
                            "type": "uint40"
                        },
                        {
                            "internalType": "uint32",
                            "name": "price",
                            "type": "uint32"
                        },
                        {
                            "internalType": "uint8",
                            "name": "state",
                            "type": "uint8"
                        }
                    ],
                    "internalType": "struct SharesRepo.Head",
                    "name": "head",
                    "type": "tuple"
                },
                {
                    "internalType": "uint64",
                    "name": "paid",
                    "type": "uint64"
                },
                {
                    "internalType": "uint64",
                    "name": "par",
                    "type": "uint64"
                }
            ],
            "name": "regShare",
            "outputs": [],
            "stateMutability": "nonpayable",
            "type": "function"
        },
        {
            "inputs": [
                {
                    "internalType": "bytes32",
                    "name": "role",
                    "type": "bytes32"
                }
            ],
            "name": "renounceRole",
            "outputs": [],
            "stateMutability": "nonpayable",
            "type": "function"
        },
        {
            "inputs": [
                {
                    "internalType": "bytes32",
                    "name": "hashLock",
                    "type": "bytes32"
                },
                {
                    "internalType": "string",
                    "name": "hashKey",
                    "type": "string"
                }
            ],
            "name": "requestPaidInCapital",
            "outputs": [],
            "stateMutability": "nonpayable",
            "type": "function"
        },
        {
            "inputs": [
                {
                    "internalType": "bytes32",
                    "name": "role",
                    "type": "bytes32"
                },
                {
                    "internalType": "uint256",
                    "name": "acct",
                    "type": "uint256"
                }
            ],
            "name": "revokeRole",
            "outputs": [],
            "stateMutability": "nonpayable",
            "type": "function"
        },
        {
            "inputs": [
                {
                    "internalType": "address",
                    "name": "keeper",
                    "type": "address"
                }
            ],
            "name": "setDirectKeeper",
            "outputs": [],
            "stateMutability": "nonpayable",
            "type": "function"
        },
        {
            "inputs": [
                {
                    "internalType": "uint256",
                    "name": "acct",
                    "type": "uint256"
                }
            ],
            "name": "setGeneralCounsel",
            "outputs": [],
            "stateMutability": "nonpayable",
            "type": "function"
        },
        {
            "inputs": [
                {
                    "internalType": "uint256",
                    "name": "acct",
                    "type": "uint256"
                }
            ],
            "name": "setOwner",
            "outputs": [],
            "stateMutability": "nonpayable",
            "type": "function"
        },
        {
            "inputs": [
                {
                    "internalType": "bytes32",
                    "name": "hashLock",
                    "type": "bytes32"
                },
                {
                    "internalType": "uint64",
                    "name": "amount",
                    "type": "uint64"
                }
            ],
            "name": "setPayInAmt",
            "outputs": [],
            "stateMutability": "nonpayable",
            "type": "function"
        },
        {
            "inputs": [
                {
                    "internalType": "bytes32",
                    "name": "role",
                    "type": "bytes32"
                },
                {
                    "internalType": "uint256",
                    "name": "acct",
                    "type": "uint256"
                }
            ],
            "name": "setRoleAdmin",
            "outputs": [],
            "stateMutability": "nonpayable",
            "type": "function"
        },
        {
            "inputs": [
                {
                    "internalType": "uint256",
                    "name": "seq",
                    "type": "uint256"
                },
                {
                    "internalType": "uint64",
                    "name": "paid",
                    "type": "uint64"
                },
                {
                    "internalType": "uint64",
                    "name": "par",
                    "type": "uint64"
                },
                {
                    "internalType": "uint40",
                    "name": "to",
                    "type": "uint40"
                },
                {
                    "internalType": "uint32",
                    "name": "price",
                    "type": "uint32"
                }
            ],
            "name": "transferShare",
            "outputs": [],
            "stateMutability": "nonpayable",
            "type": "function"
        },
        {
            "inputs": [
                {
                    "internalType": "uint256",
                    "name": "seq",
                    "type": "uint256"
                },
                {
                    "internalType": "uint48",
                    "name": "deadline",
                    "type": "uint48"
                }
            ],
            "name": "updatePaidInDeadline",
            "outputs": [],
            "stateMutability": "nonpayable",
            "type": "function"
        },
        {
            "inputs": [
                {
                    "internalType": "uint256",
                    "name": "seq",
                    "type": "uint256"
                },
                {
                    "internalType": "uint8",
                    "name": "state",
                    "type": "uint8"
                }
            ],
            "name": "updateStateOfShare",
            "outputs": [],
            "stateMutability": "nonpayable",
            "type": "function"
        },
        {
            "inputs": [
                {
                    "internalType": "bytes32",
                    "name": "hashLock",
                    "type": "bytes32"
                }
            ],
            "name": "withdrawPayInAmt",
            "outputs": [],
            "stateMutability": "nonpayable",
            "type": "function"
        }
    ],
    "bytecode": "608060405234801561001057600080fd5b5061385b806100206000396000f3fe608060405234801561001057600080fd5b50600436106102065760003560e01c80638041494e1161011a578063b3f05b97116100ad578063dc890da91161007c578063dc890da91461050b578063ed2110231461051e578063f045a7691461053e578063f0d6c10914610546578063f814b8001461055957600080fd5b8063b3f05b97146104b1578063ba5052cb146104c5578063cfb5a5f8146104d8578063dc8492ce146104f857600080fd5b8063893d20e8116100e9578063893d20e8146104635780638bb9c5bf1461046b57806392c80eb71461047e578063aeb4d7661461049e57600080fd5b80638041494e146103f2578063851ad654146104055780638652d7121461043d57806388678a8e1461045057600080fd5b80634a14beb11161019d578063544f1ba21161016c578063544f1ba21461035057806358ebd89b146103995780636be8496f146103b95780636ea6c824146103cc5780637e063c5a146103df57600080fd5b80634a14beb1146103045780634bacf961146103175780634fc3e83f1461032a5780635171ebd41461033d57600080fd5b806319d61ad9116101d957806319d61ad91461028b5780631b6ea9f91461029e5780633da9a600146102b15780634a0ca0d6146102c457600080fd5b806304726d7a1461020b5780630b56b7db146102205780630c1d138b1461024a578063103f6edd1461026d575b600080fd5b61021e610219366004612ea2565b61056c565b005b61023361022e366004612f63565b610822565b604051610241929190612fc2565b60405180910390f35b61025d610258366004612ff0565b6108c0565b6040519015158152602001610241565b6102756108e3565b60405164ffffffffff9091168152602001610241565b61021e610299366004613009565b61096f565b61021e6102ac366004613009565b610a03565b61021e6102bf366004612ff0565b610a28565b60008052600460209081527f17ef568e3e12ab5b9c7254a8d58478811de00f9e6eb34345acd53bf8fd09d3ec5460405163ffffffff909116815201610241565b61021e610312366004612ff0565b610b3a565b61021e610325366004613042565b610d2a565b61021e61033836600461309d565b610ef7565b61021e61034b366004613009565b61108b565b6000805260046020527f17ef568e3e12ab5b9c7254a8d58478811de00f9e6eb34345acd53bf8fd09d3ec54600160401b900461ffff1660405161ffff9091168152602001610241565b6103ac6103a7366004612ff0565b6110b0565b60405161024191906130cd565b61021e6103c736600461311e565b61115a565b61021e6103da366004613042565b61120c565b61025d6103ed366004613009565b6113a6565b61021e610400366004612ff0565b611443565b610425610413366004612ff0565b60009081526007602052604090205490565b6040516001600160401b039091168152602001610241565b61021e61044b366004613190565b611628565b61021e61045e366004613264565b611811565b61027561196e565b61021e610479366004612ff0565b6119a9565b61049161048c366004612ff0565b611a02565b604051610241919061331a565b61021e6104ac366004613042565b611ad4565b60028054600160f01b900460ff161461025d565b61021e6104d3366004612ff0565b611e3d565b6104eb6104e6366004612ff0565b611fa0565b6040516102419190613329565b61021e610506366004613042565b6120ca565b61021e610519366004613380565b61222d565b610526612310565b6040516001600160a01b039091168152602001610241565b61021e612396565b61021e6105543660046133d3565b6125b4565b61021e610567366004613437565b6127f8565b604051633b11adbf60e21b81526002600482015233602482015273__$364aad554dc80380f414546becdd2c1584$__9063ec46b6fc9060440160206040518083038186803b1580156105bd57600080fd5b505af41580156105d1573d6000803e3d6000fd5b505050506040513d601f19601f820116820180604052508101906105f5919061345c565b61061a5760405162461bcd60e51b81526004016106119061347e565b60405180910390fd5b60208180519060200120901b63ffffffff1916602083901b63ffffffff19161461067c5760405162461bcd60e51b8152602060048201526013602482015272424f532e525049433a2077726f6e67206b657960681b6044820152606401610611565b60008281526007602090815260408083205460e086901c84526004909252822090916106a661292b565b60405163bd9ecfc160e01b8152600481018490526001600160401b038516602482015290915073__$8e58971381edbbe3ac3690dc260b78dff1$__9063bd9ecfc19060440160006040518083038186803b15801561070357600080fd5b505af4158015610717573d6000803e3d6000fd5b505083546040516325b3f84560e21b8152600160b01b90910464ffffffffff1660048201526001600160401b038616602482015260006044820152600160648201526001600160a01b03841692506396cfe1149150608401600060405180830381600087803b15801561078957600080fd5b505af115801561079d573d6000803e3d6000fd5b5050604051639a3ca24b60e01b81526001600160401b0386166004820152600060248201526001600160a01b0384169250639a3ca24b9150604401600060405180830381600087803b1580156107f257600080fd5b505af1158015610806573d6000803e3d6000fd5b5050506000958652505060076020525050604082209190915550565b60405163e4cb3cfd60e01b815260048082015261ffff82166024820152606090819073__$8e58971381edbbe3ac3690dc260b78dff1$__9063e4cb3cfd9060440160006040518083038186803b15801561087b57600080fd5b505af415801561088f573d6000803e3d6000fd5b505050506040513d6000823e601f3d908101601f191682016040526108b79190810190613543565b91509150915091565b600090815260046020526040902054600160501b900465ffffffffffff16151590565b60405163e8c0cc1d60e01b81526002600482015260009073__$364aad554dc80380f414546becdd2c1584$__9063e8c0cc1d906024015b60206040518083038186803b15801561093257600080fd5b505af4158015610946573d6000803e3d6000fd5b505050506040513d601f19601f8201168201806040525081019061096a91906135b1565b905090565b73__$364aad554dc80380f414546becdd2c1584$__6382daafaa600284610994612984565b6040516001600160e01b031960e086901b1681526004810193909352602483019190915264ffffffffff166044820152606481018490526084015b60006040518083038186803b1580156109e757600080fd5b505af41580156109fb573d6000803e3d6000fd5b505050505050565b73__$364aad554dc80380f414546becdd2c1584$__636320d75e600284610994612984565b604051633b11adbf60e21b81526002600482015233602482015273__$364aad554dc80380f414546becdd2c1584$__9063ec46b6fc9060440160206040518083038186803b158015610a7957600080fd5b505af4158015610a8d573d6000803e3d6000fd5b505050506040513d601f19601f82011682018060405250810190610ab1919061345c565b610acd5760405162461bcd60e51b81526004016106119061347e565b60405163cc99e11b60e01b8152600260048201526024810182905273__$364aad554dc80380f414546becdd2c1584$__9063cc99e11b9060440160006040518083038186803b158015610b1f57600080fd5b505af4158015610b33573d6000803e3d6000fd5b5050505050565b604051633b11adbf60e21b81526002600482015233602482015273__$364aad554dc80380f414546becdd2c1584$__9063ec46b6fc9060440160206040518083038186803b158015610b8b57600080fd5b505af4158015610b9f573d6000803e3d6000fd5b505050506040513d601f19601f82011682018060405250810190610bc3919061345c565b80610c68575073__$364aad554dc80380f414546becdd2c1584$__63fe2710866002610bed612984565b6040516001600160e01b031960e085901b168152600481019290925264ffffffffff16602482015260440160206040518083038186803b158015610c3057600080fd5b505af4158015610c44573d6000803e3d6000fd5b505050506040513d601f19601f82011682018060405250810190610c68919061345c565b610c845760405162461bcd60e51b8152600401610611906135ce565b604051632725ebef60e21b8152600260048201526024810182905273__$364aad554dc80380f414546becdd2c1584$__90639c97afbc9060440160006040518083038186803b158015610cd657600080fd5b505af4158015610cea573d6000803e3d6000fd5b505050507ff2735f34b69be1e6342dea95f9162f84d0db925fab655ca9f1f312ac8cbfc99d81604051610d1f91815260200190565b60405180910390a150565b6001546040516335d2155560e11b81523360048201526001600160a01b0390911690636ba42aaa9060240160206040518083038186803b158015610d6d57600080fd5b505afa158015610d81573d6000803e3d6000fd5b505050506040513d601f19601f82011682018060405250810190610da5919061345c565b610dc15760405162461bcd60e51b815260040161061190613624565b82610dcb816108c0565b610de75760405162461bcd60e51b81526004016106119061364f565b6000848152600460205260409020548490600160f81b900460ff1615610e1f5760405162461bcd60e51b815260040161061190613686565b604080516001600160401b0380871682528516602082015286917ffe1de08b9bf0dc0ad7d3c542036a3439b1aa918f2a75394ff3eb25ab505b63f0910160405180910390a26000858152600460208190526040918290209151630b2f766760e41b8152908101919091526001600160401b0380861660248301528416604482015273__$8e58971381edbbe3ac3690dc260b78dff1$__9063b2f76670906064015b60006040518083038186803b158015610ed857600080fd5b505af4158015610eec573d6000803e3d6000fd5b505050505050505050565b604051633b11adbf60e21b81526002600482015233602482015273__$364aad554dc80380f414546becdd2c1584$__9063ec46b6fc9060440160206040518083038186803b158015610f4857600080fd5b505af4158015610f5c573d6000803e3d6000fd5b505050506040513d601f19601f82011682018060405250810190610f80919061345c565b610f9c5760405162461bcd60e51b81526004016106119061347e565b81610fa6816108c0565b610fc25760405162461bcd60e51b81526004016106119061364f565b60405165ffffffffffff8316815283907fb1d746b4269a9a2c553dca3e41e1d00ec56cc587654a944c80e775cc748ff33f9060200160405180910390a260008381526004602081905260409182902091516314950e2f60e01b815273__$8e58971381edbbe3ac3690dc260b78dff1$__926314950e2f926110569287910191825265ffffffffffff16602082015260400190565b60006040518083038186803b15801561106e57600080fd5b505af4158015611082573d6000803e3d6000fd5b50505050505050565b73__$364aad554dc80380f414546becdd2c1584$__63ee98b313600284610994612984565b604080516080810182526000808252602082018190529181018290526060810191909152816110de816108c0565b6110fa5760405162461bcd60e51b81526004016106119061364f565b505060009081526004602090815260409182902082516080810184526001909101546001600160401b038082168352600160401b8204811693830193909352600160801b8104831693820193909352600160c01b90920416606082015290565b604051630f07232560e01b8152600260048201523360248201526001600160a01b038216604482015273__$364aad554dc80380f414546becdd2c1584$__90630f0723259060640160006040518083038186803b1580156111ba57600080fd5b505af41580156111ce573d6000803e3d6000fd5b50506040516001600160a01b03841681527fe435cbeab64e4eae6497b9d8289704bd709d624a80704ef3ca9af777534bc6ec92506020019050610d1f565b6001546040516335d2155560e11b81523360048201526001600160a01b0390911690636ba42aaa9060240160206040518083038186803b15801561124f57600080fd5b505afa158015611263573d6000803e3d6000fd5b505050506040513d601f19601f82011682018060405250810190611287919061345c565b6112a35760405162461bcd60e51b815260040161061190613624565b826112ad816108c0565b6112c95760405162461bcd60e51b81526004016106119061364f565b6000848152600460205260409020548490600160f81b900460ff16156113015760405162461bcd60e51b815260040161061190613686565b604080516001600160401b0380871682528516602082015286917f3768d485f1715f89a9ff243971d0d2d36e4cb88f6dca1ac0ce7a5b9137686813910160405180910390a26000858152600460208190526040918290209151630e8415bb60e01b8152908101919091526001600160401b0380861660248301528416604482015273__$8e58971381edbbe3ac3690dc260b78dff1$__90630e8415bb90606401610ec0565b604051632a3be56b60e21b815260026004820152602481018390526044810182905260009073__$364aad554dc80380f414546becdd2c1584$__9063a8ef95ac9060640160206040518083038186803b15801561140257600080fd5b505af4158015611416573d6000803e3d6000fd5b505050506040513d601f19601f8201168201806040525081019061143a919061345c565b90505b92915050565b604051633b11adbf60e21b81526002600482015233602482015273__$364aad554dc80380f414546becdd2c1584$__9063ec46b6fc9060440160206040518083038186803b15801561149457600080fd5b505af41580156114a8573d6000803e3d6000fd5b505050506040513d601f19601f820116820180604052508101906114cc919061345c565b80611571575073__$364aad554dc80380f414546becdd2c1584$__63fe27108660026114f6612984565b6040516001600160e01b031960e085901b168152600481019290925264ffffffffff16602482015260440160206040518083038186803b15801561153957600080fd5b505af415801561154d573d6000803e3d6000fd5b505050506040513d601f19601f82011682018060405250810190611571919061345c565b61158d5760405162461bcd60e51b8152600401610611906135ce565b60405163b6e38a2960e01b8152600260048201526024810182905273__$364aad554dc80380f414546becdd2c1584$__9063b6e38a299060440160006040518083038186803b1580156115df57600080fd5b505af41580156115f3573d6000803e3d6000fd5b505050507f8b6f40f36b4ae8cc5f55e895036457c43da4ab1f80f58c46f5ff0d72a650033b81604051610d1f91815260200190565b6001546040516335d2155560e11b81523360048201526001600160a01b0390911690636ba42aaa9060240160206040518083038186803b15801561166b57600080fd5b505afa15801561167f573d6000803e3d6000fd5b505050506040513d601f19601f820116820180604052508101906116a3919061345c565b6116bf5760405162461bcd60e51b815260040161061190613624565b6040516347372aa560e01b815273__$8e58971381edbbe3ac3690dc260b78dff1$__906347372aa5906116fc9060049087908790879084016136bd565b60206040518083038186803b15801561171457600080fd5b505af4158015611728573d6000803e3d6000fd5b505050506040513d601f19601f8201168201806040525081019061174c9190613701565b63ffffffff16808452604080516001600160401b038086168252841660208201527f6c3d2799cf918b37e55e666ec4d7d16f8aa9bc71fc2a3abf548e23f6dad58724910160405180910390a26117a061292b565b835160a08501516040516306bdc37360e41b815263ffffffff909216600483015264ffffffffff1660248201526001600160a01b039190911690636bdc373090604401600060405180830381600087803b1580156117fd57600080fd5b505af1158015611082573d6000803e3d6000fd5b604051633b11adbf60e21b81526002600482015233602482015273__$364aad554dc80380f414546becdd2c1584$__9063ec46b6fc9060440160206040518083038186803b15801561186257600080fd5b505af4158015611876573d6000803e3d6000fd5b505050506040513d601f19601f8201168201806040525081019061189a919061345c565b6118b65760405162461bcd60e51b81526004016106119061347e565b600082815260076020526040902054156119125760405162461bcd60e51b815260206004820152601960248201527f424f532e535049413a206c6f636b6572206f63637570696564000000000000006044820152606401610611565b6040516001600160401b038216815282907f07cf5aba251486e6fa450848215ec3d7c33392f3960775aa2e0ba40e9d226aee9060200160405180910390a26000918252600760205260409091206001600160401b039091169055565b60405163987ad15360e01b81526002600482015260009073__$364aad554dc80380f414546becdd2c1584$__9063987ad1539060240161091a565b60006119b3612984565b60405163cc0d511b60e01b8152600260048201526024810184905264ffffffffff8216604482015290915073__$364aad554dc80380f414546becdd2c1584$__9063cc0d511b906064016109cf565b611a0a612db2565b81611a14816108c0565b611a305760405162461bcd60e51b81526004016106119061364f565b5050600090815260046020908152604091829020825161010081018452905463ffffffff80821683526401000000008204811693830193909352600160401b810461ffff1693820193909352600160501b830465ffffffffffff9081166060830152600160801b8404166080820152600160b01b830464ffffffffff1660a0820152600160d81b830490911660c0820152600160f81b90910460ff1660e082015290565b6001546040516335d2155560e11b81523360048201526001600160a01b0390911690636ba42aaa9060240160206040518083038186803b158015611b1757600080fd5b505afa158015611b2b573d6000803e3d6000fd5b505050506040513d601f19601f82011682018060405250810190611b4f919061345c565b611b6b5760405162461bcd60e51b815260040161061190613624565b604051633aa65cdf60e21b81526004810184905260009073__$8e58971381edbbe3ac3690dc260b78dff1$__9063ea99737c906024016101006040518083038186803b158015611bba57600080fd5b505af4158015611bce573d6000803e3d6000fd5b505050506040513d601f19601f82011682018060405250810190611bf2919061373f565b90506000611bfe61292b565b60a0830151604051631089f5ed60e01b815264ffffffffff90911660048201529091506001600160a01b03821690631089f5ed90602401600060405180830381600087803b158015611c4f57600080fd5b505af1158015611c63573d6000803e3d6000fd5b50506040516302a1e4fd60e21b8152600480820152602481018890526001600160401b038088166044830152861660648201526000925073__$8e58971381edbbe3ac3690dc260b78dff1$__9150630a8793f49060840160206040518083038186803b158015611cd257600080fd5b505af4158015611ce6573d6000803e3d6000fd5b505050506040513d601f19601f82011682018060405250810190611d0a9190613701565b604080516001600160401b0380891682528716602082015291925063ffffffff8316917f6c3d2799cf918b37e55e666ec4d7d16f8aa9bc71fc2a3abf548e23f6dad58724910160405180910390a260a08301516040516306bdc37360e41b815263ffffffff8316600482015264ffffffffff90911660248201526001600160a01b03831690636bdc373090604401600060405180830381600087803b158015611db257600080fd5b505af1158015611dc6573d6000803e3d6000fd5b5050604051639a3ca24b60e01b81526001600160401b038089166004830152871660248201526001600160a01b0385169250639a3ca24b91506044015b600060405180830381600087803b158015611e1d57600080fd5b505af1158015611e31573d6000803e3d6000fd5b50505050505050505050565b604051633b11adbf60e21b81526002600482015233602482015273__$364aad554dc80380f414546becdd2c1584$__9063ec46b6fc9060440160206040518083038186803b158015611e8e57600080fd5b505af4158015611ea2573d6000803e3d6000fd5b505050506040513d601f19601f82011682018060405250810190611ec6919061345c565b611ee25760405162461bcd60e51b81526004016106119061347e565b60e081901c60009081526004602052604090205442600160801b90910465ffffffffffff1610611f645760405162461bcd60e51b815260206004820152602760248201527f424f532e575049413a207374696c6c2077697468696e20656666656374697665604482015266081c195c9a5bd960ca1b6064820152608401610611565b60405181907f81d2c37d10691798e38a542ceea541c4cadacbd28ce1b4b0264d9f4fb074003090600090a2600090815260076020526040812055565b611fa8612df6565b81611fb2816108c0565b611fce5760405162461bcd60e51b81526004016106119061364f565b5050600090815260046020908152604091829020825161014081018452815463ffffffff80821683870190815264010000000083048216606080860191909152600160401b80850461ffff16608080880191909152600160501b860465ffffffffffff90811660a0890152600160801b80880490911660c0890152600160b01b870464ffffffffff1660e0890152600160d81b8704909516610100880152600160f81b90950460ff16610120870152918552875193840188526001909501546001600160401b038082168552918104821684880152918204811696830196909652600160c01b9004909416918401919091529081019190915290565b604051633b11adbf60e21b81526002600482015233602482015273__$364aad554dc80380f414546becdd2c1584$__9063ec46b6fc9060440160206040518083038186803b15801561211b57600080fd5b505af415801561212f573d6000803e3d6000fd5b505050506040513d601f19601f82011682018060405250810190612153919061345c565b61216f5760405162461bcd60e51b81526004016106119061347e565b82612179816108c0565b6121955760405162461bcd60e51b81526004016106119061364f565b6000848152600460205260409020548490600160f81b900460ff16156121cd5760405162461bcd60e51b815260040161061190613686565b60008581526004602052604090206121e68186866129de565b6121ee61292b565b6040516372cc64f960e01b81526001600160401b038088166004830152861660248201526001600160a01b0391909116906372cc64f990604401611e03565b61223682612baf565b61223f81612c5e565b604051636cdd0edf60e11b815260026004820152602481018590526001600160a01b038416604482015273__$364aad554dc80380f414546becdd2c1584$__9063d9ba1dbe9060640160006040518083038186803b1580156122a057600080fd5b505af41580156122b4573d6000803e3d6000fd5b5050604080518781526001600160a01b038781166020830152868116828401528516606082015290517f3abb2418c66fe32ba9c883030a75ce583971d9af9192b9b74e44e67c5e6c8c1f9350908190036080019150a150505050565b604051633c3e56c160e11b81526002600482015260009073__$364aad554dc80380f414546becdd2c1584$__9063787cad829060240160206040518083038186803b15801561235e57600080fd5b505af4158015612372573d6000803e3d6000fd5b505050506040513d601f19601f8201168201806040525081019061096a9190613808565b604051633b11adbf60e21b81526002600482015233602482015273__$364aad554dc80380f414546becdd2c1584$__9063ec46b6fc9060440160206040518083038186803b1580156123e757600080fd5b505af41580156123fb573d6000803e3d6000fd5b505050506040513d601f19601f8201168201806040525081019061241f919061345c565b61243b5760405162461bcd60e51b81526004016106119061347e565b600254600160f01b900460ff166001146124975760405162461bcd60e51b815260206004820181905260248201527f41432e6f6e6c7950656e64696e673a20446f632069732066696e616c697a65646044820152606401610611565b60405163cc99e11b60e01b815260026004820152684174746f726e65797360b81b602482015273__$364aad554dc80380f414546becdd2c1584$__9063cc99e11b9060440160006040518083038186803b1580156124f457600080fd5b505af4158015612508573d6000803e3d6000fd5b5050604051632725ebef60e21b8152600260048201526000602482015273__$364aad554dc80380f414546becdd2c1584$__9250639c97afbc915060440160006040518083038186803b15801561255e57600080fd5b505af4158015612572573d6000803e3d6000fd5b50506002805460ff60f01b1916600160f11b17905550506040517f35012b512309c322acf68632cd6cb702ff0e1d776fbe9394e38ffc13b434fe7590600090a1565b6001546040516335d2155560e11b81523360048201526001600160a01b0390911690636ba42aaa9060240160206040518083038186803b1580156125f757600080fd5b505afa15801561260b573d6000803e3d6000fd5b505050506040513d601f19601f8201168201806040525081019061262f919061345c565b61264b5760405162461bcd60e51b815260040161061190613624565b84612655816108c0565b6126715760405162461bcd60e51b81526004016106119061364f565b6000868152600460205260409020548690600160f81b900460ff16156126a95760405162461bcd60e51b815260040161061190613686565b600087815260046020526040902064ffffffffff851661270b5760405162461bcd60e51b815260206004820152601b60248201527f424f532e54533a207368617265686f6c646572206973205a45524f00000000006044820152606401610611565b6127168188886129de565b61271e61292b565b604051631089f5ed60e01b815264ffffffffff871660048201526001600160a01b039190911690631089f5ed90602401600060405180830381600087803b15801561276857600080fd5b505af115801561277c573d6000803e3d6000fd5b505060408051610100810182526000808252855463ffffffff818116602085015261ffff600160401b8304169484019490945265ffffffffffff4281166060850152600160801b90910416608083015264ffffffffff8a1660a083015291881660c082015260e08101919091529150610eec9050818989611628565b604051633b11adbf60e21b81526002600482015233602482015273__$364aad554dc80380f414546becdd2c1584$__9063ec46b6fc9060440160206040518083038186803b15801561284957600080fd5b505af415801561285d573d6000803e3d6000fd5b505050506040513d601f19601f82011682018060405250810190612881919061345c565b61289d5760405162461bcd60e51b81526004016106119061347e565b816128a7816108c0565b6128c35760405162461bcd60e51b81526004016106119061364f565b60405160ff8316815283907fc642f56040f5e6aa8e4b5f4d4dcaa794fff6729880b1e4477d8c7e576931ac149060200160405180910390a250600091825260046020526040909120805460ff909216600160f81b026001600160f81b03909216919091179055565b60015460405163e0ff5b8b60e01b8152600760048201526000916001600160a01b03169063e0ff5b8b9060240160206040518083038186803b15801561297057600080fd5b505afa158015612372573d6000803e3d6000fd5b60008054604051634de835e760e11b81523360048201526001600160a01b0390911690639bd06bce90602401602060405180830381600087803b1580156129ca57600080fd5b505af1158015610946573d6000803e3d6000fd5b60006129e861292b565b60018501549091506001600160401b03838116600160401b909204161415612b1657835460405163a03510c560e01b815263ffffffff82166004820152600160b01b90910464ffffffffff1660248201526001600160a01b0382169063a03510c590604401600060405180830381600087803b158015612a6757600080fd5b505af1158015612a7b573d6000803e3d6000fd5b50508554604051631b7a23db60e21b815260048082015263ffffffff909116602482015273__$8e58971381edbbe3ac3690dc260b78dff1$__9250636de88f6c915060440160206040518083038186803b158015612ad857600080fd5b505af4158015612aec573d6000803e3d6000fd5b505050506040513d601f19601f82011682018060405250810190612b10919061345c565b50612ba9565b612b21848484612d15565b83546040516325b3f84560e21b8152600160b01b90910464ffffffffff1660048201526001600160401b03808516602483015283166044820152600060648201526001600160a01b038216906396cfe11490608401600060405180830381600087803b158015612b9057600080fd5b505af1158015612ba4573d6000803e3d6000fd5b505050505b50505050565b6000546001600160a01b031615612c005760405162461bcd60e51b815260206004820152601560248201527430b63932b0b23c9039b2ba103932b3a1b2b73a32b960591b6044820152606401610611565b6040516001600160a01b03821681527f318da6c7624c71cbc0afe346c9d8827f119d0ecefb241a7b0c87217a076a8e029060200160405180910390a1600080546001600160a01b0319166001600160a01b0392909216919091179055565b6001546001600160a01b031615612cb75760405162461bcd60e51b815260206004820152601960248201527f616c7265616479207365742067656e6572616c4b6565706572000000000000006044820152606401610611565b6040516001600160a01b03821681527fe513d3e0f0d0a3877029dcc588748679a7a3450ec1ec7ed56d96bd012c3e61aa9060200160405180910390a1600180546001600160a01b0319166001600160a01b0392909216919091179055565b8254604080516001600160401b0380861682528416602082015263ffffffff909216917f2a54ff18fcefc52233e2885a21b2b24c4f6b7deb0a116564b46dac5f9332720e910160405180910390a26040516313c0158d60e31b8152600481018490526001600160401b0380841660248301528216604482015273__$8e58971381edbbe3ac3690dc260b78dff1$__90639e00ac6890606401611056565b6040805161010081018252600080825260208201819052918101829052606081018290526080810182905260a0810182905260c0810182905260e081019190915290565b6040518060400160405280612e09612db2565b81526040805160808101825260008082526020828101829052928201819052606082015291015290565b634e487b7160e01b600052604160045260246000fd5b60405161010081016001600160401b0381118282101715612e6c57612e6c612e33565b60405290565b604051601f8201601f191681016001600160401b0381118282101715612e9a57612e9a612e33565b604052919050565b60008060408385031215612eb557600080fd5b823591506020808401356001600160401b0380821115612ed457600080fd5b818601915086601f830112612ee857600080fd5b813581811115612efa57612efa612e33565b612f0c601f8201601f19168501612e72565b91508082528784828501011115612f2257600080fd5b80848401858401376000848284010152508093505050509250929050565b61ffff81168114612f5057600080fd5b50565b8035612f5e81612f40565b919050565b600060208284031215612f7557600080fd5b8135612f8081612f40565b9392505050565b600081518084526020808501945080840160005b83811015612fb757815187529582019590820190600101612f9b565b509495945050505050565b604081526000612fd56040830185612f87565b8281036020840152612fe78185612f87565b95945050505050565b60006020828403121561300257600080fd5b5035919050565b6000806040838503121561301c57600080fd5b50508035926020909101359150565b80356001600160401b0381168114612f5e57600080fd5b60008060006060848603121561305757600080fd5b833592506130676020850161302b565b91506130756040850161302b565b90509250925092565b65ffffffffffff81168114612f5057600080fd5b8035612f5e8161307e565b600080604083850312156130b057600080fd5b8235915060208301356130c28161307e565b809150509250929050565b6080810161143d828480516001600160401b03908116835260208083015182169084015260408083015182169084015260609182015116910152565b6001600160a01b0381168114612f5057600080fd5b60006020828403121561313057600080fd5b8135612f8081613109565b63ffffffff81168114612f5057600080fd5b8035612f5e8161313b565b64ffffffffff81168114612f5057600080fd5b8035612f5e81613158565b60ff81168114612f5057600080fd5b8035612f5e81613176565b60008060008385036101408112156131a757600080fd5b610100808212156131b757600080fd5b6131bf612e49565b915085356131cc8161313b565b82526131da6020870161314d565b60208301526131eb60408701612f53565b60408301526131fc60608701613092565b606083015261320d60808701613092565b608083015261321e60a0870161316b565b60a083015261322f60c0870161314d565b60c083015261324060e08701613185565b60e083015281945061325381870161302b565b93505050613075610120850161302b565b6000806040838503121561327757600080fd5b823591506132876020840161302b565b90509250929050565b63ffffffff8082511683528060208301511660208401525061ffff6040820151166040830152606081015165ffffffffffff8082166060850152806080840151166080850152505064ffffffffff60a08201511660a083015260c081015161330060c084018263ffffffff169052565b5060e081015161331560e084018260ff169052565b505050565b610100810161143d8284613290565b60006101808201905061333d828451613290565b60209283015180516001600160401b0390811661010085015293810151841661012084015260408101518416610140840152606001519092166101609091015290565b6000806000806080858703121561339657600080fd5b8435935060208501356133a881613109565b925060408501356133b881613109565b915060608501356133c881613109565b939692955090935050565b600080600080600060a086880312156133eb57600080fd5b853594506133fb6020870161302b565b93506134096040870161302b565b9250606086013561341981613158565b915060808601356134298161313b565b809150509295509295909350565b6000806040838503121561344a57600080fd5b8235915060208301356130c281613176565b60006020828403121561346e57600080fd5b81518015158114612f8057600080fd5b60208082526026908201527f41432e6f6e6c794469726563744b65657065723a206e6f74206469726563742060408201526535b2b2b832b960d11b606082015260800190565b600082601f8301126134d557600080fd5b815160206001600160401b038211156134f0576134f0612e33565b8160051b6134ff828201612e72565b928352848101820192828101908785111561351957600080fd5b83870192505b848310156135385782518252918301919083019061351f565b979650505050505050565b6000806040838503121561355657600080fd5b82516001600160401b038082111561356d57600080fd5b613579868387016134c4565b9350602085015191508082111561358f57600080fd5b5061359c858286016134c4565b9150509250929050565b8051612f5e81613158565b6000602082840312156135c357600080fd5b8151612f8081613158565b60208082526036908201527f41432e6f776e65724f72446972656374426f6f6b65657065723a206e6569746860408201527532b91037bbb732b9103737b9103137b7b5b2b2b832b960511b606082015260800190565b60208082526011908201527020a19737b59d103737ba1025b2b2b832b960791b604082015260600190565b60208082526018908201527f424f532e6d662e53453a20736571204e4f542065786973740000000000000000604082015260600190565b6020808252601b908201527f424f532e6d662e4e463a20736861726520697320667265657a65640000000000604082015260600190565b84815261016081016136d26020830186613290565b6001600160401b038085166101208401528084166101408401525095945050505050565b8051612f5e8161313b565b60006020828403121561371357600080fd5b8151612f808161313b565b8051612f5e81612f40565b8051612f5e8161307e565b8051612f5e81613176565b600061010080838503121561375357600080fd5b604051908101906001600160401b038211818310171561377557613775612e33565b81604052835191506137868261313b565b818152613795602085016136f6565b60208201526137a66040850161371e565b60408201526137b760608501613729565b60608201526137c860808501613729565b60808201526137d960a085016135a6565b60a08201526137ea60c085016136f6565b60c08201526137fb60e08501613734565b60e0820152949350505050565b60006020828403121561381a57600080fd5b8151612f808161310956fea26469706673582212208b5b390040a69e3a3c745e41aa654948bc294174f20e021d02da7cd329872eb464736f6c63430008080033",
    "sourcePath": "/Users/kaptain/github.com/hardhat/comboox/contracts/books/bos/BookOfShares.sol",
    "compiler": {
        "name": "solc",
        "version": "0.8.8+commit.dddeac2f"
    },
    "functionHashes": {
        "abandonRole(bytes32)": "3da9a600",
        "counterOfClasses()": "544f1ba2",
        "counterOfShares()": "4a0ca0d6",
        "decreaseCapital(uint256,uint64,uint64)": "dc8492ce",
        "decreaseCleanAmt(uint256,uint64,uint64)": "4bacf961",
        "finalized()": "b3f05b97",
        "getAttrOfClass(uint16)": "0b56b7db",
        "getBodyOfShare(uint256)": "58ebd89b",
        "getBookeeper()": "ed211023",
        "getGeneralCounsel()": "103f6edd",
        "getHeadOfShare(uint256)": "92c80eb7",
        "getLocker(bytes32)": "851ad654",
        "getOwner()": "893d20e8",
        "getShare(uint256)": "cfb5a5f8",
        "grantRole(bytes32,uint256)": "1b6ea9f9",
        "hasRole(bytes32,uint256)": "7e063c5a",
        "increaseCleanAmt(uint256,uint64,uint64)": "6ea6c824",
        "init(uint256,address,address,address)": "dc890da9",
        "isShare(uint256)": "0c1d138b",
        "issueShare(uint256,uint64,uint64)": "aeb4d766",
        "lockContents()": "f045a769",
        "regShare((uint32,uint32,uint16,uint48,uint48,uint40,uint32,uint8),uint64,uint64)": "8652d712",
        "renounceRole(bytes32)": "8bb9c5bf",
        "requestPaidInCapital(bytes32,string)": "04726d7a",
        "revokeRole(bytes32,uint256)": "19d61ad9",
        "setDirectKeeper(address)": "6be8496f",
        "setGeneralCounsel(uint256)": "4a14beb1",
        "setOwner(uint256)": "8041494e",
        "setPayInAmt(bytes32,uint64)": "88678a8e",
        "setRoleAdmin(bytes32,uint256)": "5171ebd4",
        "transferShare(uint256,uint64,uint64,uint40,uint32)": "f0d6c109",
        "updatePaidInDeadline(uint256,uint48)": "4fc3e83f",
        "updateStateOfShare(uint256,uint8)": "f814b800",
        "withdrawPayInAmt(bytes32)": "ba5052cb"
    },
    "gasEstimates": {
        "creation": {
            "codeDepositCost": "2885400",
            "executionCost": "3154",
            "totalCost": "2888554"
        },
        "external": {
            "abandonRole(bytes32)": "infinite",
            "counterOfClasses()": "2375",
            "counterOfShares()": "2422",
            "decreaseCapital(uint256,uint64,uint64)": "infinite",
            "decreaseCleanAmt(uint256,uint64,uint64)": "infinite",
            "finalized()": "2372",
            "getAttrOfClass(uint16)": "infinite",
            "getBodyOfShare(uint256)": "5259",
            "getBookeeper()": "infinite",
            "getGeneralCounsel()": "infinite",
            "getHeadOfShare(uint256)": "5709",
            "getLocker(bytes32)": "2527",
            "getOwner()": "infinite",
            "getShare(uint256)": "8403",
            "grantRole(bytes32,uint256)": "infinite",
            "hasRole(bytes32,uint256)": "infinite",
            "increaseCleanAmt(uint256,uint64,uint64)": "infinite",
            "init(uint256,address,address,address)": "infinite",
            "isShare(uint256)": "2576",
            "issueShare(uint256,uint64,uint64)": "infinite",
            "lockContents()": "infinite",
            "regShare((uint32,uint32,uint16,uint48,uint48,uint40,uint32,uint8),uint64,uint64)": "infinite",
            "renounceRole(bytes32)": "infinite",
            "requestPaidInCapital(bytes32,string)": "infinite",
            "revokeRole(bytes32,uint256)": "infinite",
            "setDirectKeeper(address)": "infinite",
            "setGeneralCounsel(uint256)": "infinite",
            "setOwner(uint256)": "infinite",
            "setPayInAmt(bytes32,uint64)": "infinite",
            "setRoleAdmin(bytes32,uint256)": "infinite",
            "transferShare(uint256,uint64,uint64,uint40,uint32)": "infinite",
            "updatePaidInDeadline(uint256,uint48)": "infinite",
            "updateStateOfShare(uint256,uint8)": "infinite",
            "withdrawPayInAmt(bytes32)": "infinite"
        },
        "internal": {
            "_decreaseShareAmt(struct SharesRepo.Share storage pointer,uint64,uint64)": "infinite",
            "_deregisterShare(uint256)": "infinite",
            "_payInCapital(struct SharesRepo.Share storage pointer,uint64)": "infinite",
            "_subAmtFromShare(struct SharesRepo.Share storage pointer,uint64,uint64)": "infinite"
        }
    }
}