{
    "contractName": "BookOfPledges",
    "abi": [
        {
            "anonymous": false,
            "inputs": [
                {
                    "indexed": true,
                    "internalType": "bytes32",
                    "name": "sn",
                    "type": "bytes32"
                },
                {
                    "indexed": false,
                    "internalType": "uint40",
                    "name": "creditor",
                    "type": "uint40"
                },
                {
                    "indexed": false,
                    "internalType": "uint16",
                    "name": "monOfGuarantee",
                    "type": "uint16"
                },
                {
                    "indexed": false,
                    "internalType": "uint64",
                    "name": "pledgedPar",
                    "type": "uint64"
                },
                {
                    "indexed": false,
                    "internalType": "uint64",
                    "name": "guaranteedAmt",
                    "type": "uint64"
                }
            ],
            "name": "CreatePledge",
            "type": "event"
        },
        {
            "anonymous": false,
            "inputs": [
                {
                    "indexed": false,
                    "internalType": "uint40",
                    "name": "owner",
                    "type": "uint40"
                },
                {
                    "indexed": false,
                    "internalType": "address",
                    "name": "directKeeper",
                    "type": "address"
                },
                {
                    "indexed": false,
                    "internalType": "address",
                    "name": "regCenter",
                    "type": "address"
                },
                {
                    "indexed": false,
                    "internalType": "address",
                    "name": "generalKeeper",
                    "type": "address"
                }
            ],
            "name": "Init",
            "type": "event"
        },
        {
            "anonymous": false,
            "inputs": [],
            "name": "LockContents",
            "type": "event"
        },
        {
            "anonymous": false,
            "inputs": [
                {
                    "indexed": false,
                    "internalType": "address",
                    "name": "keeper",
                    "type": "address"
                }
            ],
            "name": "SetDirectKeeper",
            "type": "event"
        },
        {
            "anonymous": false,
            "inputs": [
                {
                    "indexed": false,
                    "internalType": "uint256",
                    "name": "acct",
                    "type": "uint256"
                }
            ],
            "name": "SetGeneralCounsel",
            "type": "event"
        },
        {
            "anonymous": false,
            "inputs": [
                {
                    "indexed": false,
                    "internalType": "address",
                    "name": "gk",
                    "type": "address"
                }
            ],
            "name": "SetGeneralKeeper",
            "type": "event"
        },
        {
            "anonymous": false,
            "inputs": [
                {
                    "indexed": false,
                    "internalType": "uint256",
                    "name": "acct",
                    "type": "uint256"
                }
            ],
            "name": "SetOwner",
            "type": "event"
        },
        {
            "anonymous": false,
            "inputs": [
                {
                    "indexed": false,
                    "internalType": "address",
                    "name": "rc",
                    "type": "address"
                }
            ],
            "name": "SetRegCenter",
            "type": "event"
        },
        {
            "anonymous": false,
            "inputs": [
                {
                    "indexed": true,
                    "internalType": "bytes32",
                    "name": "sn",
                    "type": "bytes32"
                },
                {
                    "indexed": false,
                    "internalType": "uint40",
                    "name": "creditor",
                    "type": "uint40"
                },
                {
                    "indexed": false,
                    "internalType": "uint48",
                    "name": "expireDate",
                    "type": "uint48"
                },
                {
                    "indexed": false,
                    "internalType": "uint64",
                    "name": "pledgedPar",
                    "type": "uint64"
                },
                {
                    "indexed": false,
                    "internalType": "uint64",
                    "name": "guaranteedAmt",
                    "type": "uint64"
                }
            ],
            "name": "UpdatePledge",
            "type": "event"
        },
        {
            "inputs": [
                {
                    "internalType": "bytes32",
                    "name": "role",
                    "type": "bytes32"
                }
            ],
            "name": "abandonRole",
            "outputs": [],
            "stateMutability": "nonpayable",
            "type": "function"
        },
        {
            "inputs": [
                {
                    "internalType": "uint32",
                    "name": "ssn",
                    "type": "uint32"
                }
            ],
            "name": "counterOfPledges",
            "outputs": [
                {
                    "internalType": "uint16",
                    "name": "",
                    "type": "uint16"
                }
            ],
            "stateMutability": "view",
            "type": "function"
        },
        {
            "inputs": [
                {
                    "internalType": "bytes32",
                    "name": "sn",
                    "type": "bytes32"
                },
                {
                    "internalType": "uint40",
                    "name": "creditor",
                    "type": "uint40"
                },
                {
                    "internalType": "uint16",
                    "name": "monOfGuarantee",
                    "type": "uint16"
                },
                {
                    "internalType": "uint64",
                    "name": "pledgedPar",
                    "type": "uint64"
                },
                {
                    "internalType": "uint64",
                    "name": "guaranteedAmt",
                    "type": "uint64"
                }
            ],
            "name": "createPledge",
            "outputs": [],
            "stateMutability": "nonpayable",
            "type": "function"
        },
        {
            "inputs": [],
            "name": "finalized",
            "outputs": [
                {
                    "internalType": "bool",
                    "name": "",
                    "type": "bool"
                }
            ],
            "stateMutability": "view",
            "type": "function"
        },
        {
            "inputs": [],
            "name": "getBookeeper",
            "outputs": [
                {
                    "internalType": "address",
                    "name": "",
                    "type": "address"
                }
            ],
            "stateMutability": "view",
            "type": "function"
        },
        {
            "inputs": [],
            "name": "getGeneralCounsel",
            "outputs": [
                {
                    "internalType": "uint40",
                    "name": "",
                    "type": "uint40"
                }
            ],
            "stateMutability": "view",
            "type": "function"
        },
        {
            "inputs": [],
            "name": "getOwner",
            "outputs": [
                {
                    "internalType": "uint40",
                    "name": "",
                    "type": "uint40"
                }
            ],
            "stateMutability": "view",
            "type": "function"
        },
        {
            "inputs": [
                {
                    "internalType": "bytes32",
                    "name": "sn",
                    "type": "bytes32"
                }
            ],
            "name": "getPledge",
            "outputs": [
                {
                    "components": [
                        {
                            "internalType": "bytes32",
                            "name": "sn",
                            "type": "bytes32"
                        },
                        {
                            "internalType": "uint40",
                            "name": "creditor",
                            "type": "uint40"
                        },
                        {
                            "internalType": "uint48",
                            "name": "expireDate",
                            "type": "uint48"
                        },
                        {
                            "internalType": "uint64",
                            "name": "pledgedPar",
                            "type": "uint64"
                        },
                        {
                            "internalType": "uint64",
                            "name": "guaranteedAmt",
                            "type": "uint64"
                        }
                    ],
                    "internalType": "struct IBookOfPledges.Pledge",
                    "name": "pld",
                    "type": "tuple"
                }
            ],
            "stateMutability": "view",
            "type": "function"
        },
        {
            "inputs": [
                {
                    "internalType": "bytes32",
                    "name": "role",
                    "type": "bytes32"
                },
                {
                    "internalType": "uint40",
                    "name": "acct",
                    "type": "uint40"
                }
            ],
            "name": "grantRole",
            "outputs": [],
            "stateMutability": "nonpayable",
            "type": "function"
        },
        {
            "inputs": [
                {
                    "internalType": "bytes32",
                    "name": "role",
                    "type": "bytes32"
                },
                {
                    "internalType": "uint40",
                    "name": "acct",
                    "type": "uint40"
                }
            ],
            "name": "hasRole",
            "outputs": [
                {
                    "internalType": "bool",
                    "name": "",
                    "type": "bool"
                }
            ],
            "stateMutability": "view",
            "type": "function"
        },
        {
            "inputs": [
                {
                    "internalType": "uint40",
                    "name": "owner",
                    "type": "uint40"
                },
                {
                    "internalType": "address",
                    "name": "directKeeper",
                    "type": "address"
                },
                {
                    "internalType": "address",
                    "name": "regCenter",
                    "type": "address"
                },
                {
                    "internalType": "address",
                    "name": "generalKeeper",
                    "type": "address"
                }
            ],
            "name": "init",
            "outputs": [],
            "stateMutability": "nonpayable",
            "type": "function"
        },
        {
            "inputs": [
                {
                    "internalType": "bytes32",
                    "name": "sn",
                    "type": "bytes32"
                }
            ],
            "name": "isPledge",
            "outputs": [
                {
                    "internalType": "bool",
                    "name": "",
                    "type": "bool"
                }
            ],
            "stateMutability": "view",
            "type": "function"
        },
        {
            "inputs": [],
            "name": "lockContents",
            "outputs": [],
            "stateMutability": "nonpayable",
            "type": "function"
        },
        {
            "inputs": [
                {
                    "internalType": "uint32",
                    "name": "ssn",
                    "type": "uint32"
                }
            ],
            "name": "pledgesOf",
            "outputs": [
                {
                    "internalType": "bytes32[]",
                    "name": "",
                    "type": "bytes32[]"
                }
            ],
            "stateMutability": "view",
            "type": "function"
        },
        {
            "inputs": [
                {
                    "internalType": "bytes32",
                    "name": "role",
                    "type": "bytes32"
                }
            ],
            "name": "renounceRole",
            "outputs": [],
            "stateMutability": "nonpayable",
            "type": "function"
        },
        {
            "inputs": [
                {
                    "internalType": "bytes32",
                    "name": "role",
                    "type": "bytes32"
                },
                {
                    "internalType": "uint40",
                    "name": "acct",
                    "type": "uint40"
                }
            ],
            "name": "revokeRole",
            "outputs": [],
            "stateMutability": "nonpayable",
            "type": "function"
        },
        {
            "inputs": [
                {
                    "internalType": "address",
                    "name": "keeper",
                    "type": "address"
                }
            ],
            "name": "setDirectKeeper",
            "outputs": [],
            "stateMutability": "nonpayable",
            "type": "function"
        },
        {
            "inputs": [
                {
                    "internalType": "uint40",
                    "name": "acct",
                    "type": "uint40"
                }
            ],
            "name": "setGeneralCounsel",
            "outputs": [],
            "stateMutability": "nonpayable",
            "type": "function"
        },
        {
            "inputs": [
                {
                    "internalType": "uint40",
                    "name": "acct",
                    "type": "uint40"
                }
            ],
            "name": "setOwner",
            "outputs": [],
            "stateMutability": "nonpayable",
            "type": "function"
        },
        {
            "inputs": [
                {
                    "internalType": "bytes32",
                    "name": "role",
                    "type": "bytes32"
                },
                {
                    "internalType": "uint40",
                    "name": "acct",
                    "type": "uint40"
                }
            ],
            "name": "setRoleAdmin",
            "outputs": [],
            "stateMutability": "nonpayable",
            "type": "function"
        },
        {
            "inputs": [
                {
                    "internalType": "bytes32",
                    "name": "sn",
                    "type": "bytes32"
                },
                {
                    "internalType": "uint40",
                    "name": "creditor",
                    "type": "uint40"
                },
                {
                    "internalType": "uint48",
                    "name": "expireDate",
                    "type": "uint48"
                },
                {
                    "internalType": "uint64",
                    "name": "pledgedPar",
                    "type": "uint64"
                },
                {
                    "internalType": "uint64",
                    "name": "guaranteedAmt",
                    "type": "uint64"
                }
            ],
            "name": "updatePledge",
            "outputs": [],
            "stateMutability": "nonpayable",
            "type": "function"
        }
    ],
    "bytecode": "608060405234801561001057600080fd5b5061242a806100206000396000f3fe608060405234801561001057600080fd5b50600436106101375760003560e01c806379b2ec12116100b8578063b079ab1b1161007c578063b079ab1b146102b8578063b3f05b97146102cb578063c0eb9e4b146102df578063d01739cb146102f2578063ed21102314610366578063f045a7691461038657600080fd5b806379b2ec12146102645780637ba706e814610277578063821ee8ea1461028a578063893d20e81461029d5780638bb9c5bf146102a557600080fd5b80633da9a600116100ff5780633da9a600146101ba5780635aaf23bb146101cd578063695b7750146101f05780636be8496f1461023e578063740998151461025157600080fd5b8063103f6edd1461013c57806316dc517e1461015f57806317c51fec14610174578063289bebdb146101875780633178a9a9146101a7575b600080fd5b61014461038e565b60405164ffffffffff90911681526020015b60405180910390f35b61017261016d366004611db6565b61041a565b005b610172610182366004611db6565b6104b0565b61019a610195366004611df8565b6104d5565b6040516101569190611e15565b6101726101b5366004611e59565b610619565b6101726101c8366004611e76565b610812565b6101e06101db366004611e76565b610924565b6040519015158152602001610156565b61022b6101fe366004611df8565b63ffffffff16600090815260046020908152604080832083805290915290206001015464ffffffffff1690565b60405161ffff9091168152602001610156565b61017261024c366004611ea4565b610a68565b61017261025f366004611db6565b610b1a565b6101e0610272366004611db6565b610b3f565b610172610285366004611e59565b610bd9565b610172610298366004611ec1565b610dcb565b610144610ebb565b6101726102b3366004611e76565b610ef6565b6101726102c6366004611f4a565b610f4f565b60028054600160f01b900460ff16146101e0565b6101726102ed366004611fac565b611213565b610305610300366004611e76565b61155f565b6040516101569190600060a0820190508251825264ffffffffff602084015116602083015265ffffffffffff6040840151166040830152606083015167ffffffffffffffff8082166060850152806080860151166080850152505092915050565b61036e611757565b6040516001600160a01b039091168152602001610156565b6101726117dd565b60405163e8c0cc1d60e01b81526002600482015260009073__$364aad554dc80380f414546becdd2c1584$__9063e8c0cc1d906024015b60206040518083038186803b1580156103dd57600080fd5b505af41580156103f1573d6000803e3d6000fd5b505050506040513d601f19601f820116820180604052508101906104159190611ff1565b905090565b73__$364aad554dc80380f414546becdd2c1584$__63427abff460028461043f6119fb565b6040516001600160e01b031960e086901b1681526004810193909352602483019190915264ffffffffff9081166044830152841660648201526084015b60006040518083038186803b15801561049457600080fd5b505af41580156104a8573d6000803e3d6000fd5b505050505050565b73__$364aad554dc80380f414546becdd2c1584$__638ce1584560028461043f6119fb565b63ffffffff8116600090815260046020908152604080832083805290915290206001015460609064ffffffffff81169061ffff1661055a5760405162461bcd60e51b815260206004820152601f60248201527f424f502e706c65646765734f663a206e6f20706c656467657320666f756e640060448201526064015b60405180910390fd5b60008161ffff1667ffffffffffffffff8111156105795761057961200e565b6040519080825280602002602001820160405280156105a2578160200160208202803683370190505b5090505b61ffff8216156106125763ffffffff8416600090815260046020908152604080832061ffff86168452909152902054816105e160018561203a565b61ffff16815181106105f5576105f561205d565b60209081029190910101528161060a81612073565b9250506105a6565b9392505050565b604051633b11adbf60e21b81526002600482015233602482015273__$364aad554dc80380f414546becdd2c1584$__9063ec46b6fc9060440160206040518083038186803b15801561066a57600080fd5b505af415801561067e573d6000803e3d6000fd5b505050506040513d601f19601f820116820180604052508101906106a29190612091565b80610747575073__$364aad554dc80380f414546becdd2c1584$__63fe27108660026106cc6119fb565b6040516001600160e01b031960e085901b168152600481019290925264ffffffffff16602482015260440160206040518083038186803b15801561070f57600080fd5b505af4158015610723573d6000803e3d6000fd5b505050506040513d601f19601f820116820180604052508101906107479190612091565b6107635760405162461bcd60e51b8152600401610551906120b3565b604051632725ebef60e21b81526002600482015264ffffffffff8216602482015273__$364aad554dc80380f414546becdd2c1584$__90639c97afbc9060440160006040518083038186803b1580156107bb57600080fd5b505af41580156107cf573d6000803e3d6000fd5b505060405164ffffffffff841681527ff2735f34b69be1e6342dea95f9162f84d0db925fab655ca9f1f312ac8cbfc99d925060200190505b60405180910390a150565b604051633b11adbf60e21b81526002600482015233602482015273__$364aad554dc80380f414546becdd2c1584$__9063ec46b6fc9060440160206040518083038186803b15801561086357600080fd5b505af4158015610877573d6000803e3d6000fd5b505050506040513d601f19601f8201168201806040525081019061089b9190612091565b6108b75760405162461bcd60e51b815260040161055190612109565b60405163cc99e11b60e01b8152600260048201526024810182905273__$364aad554dc80380f414546becdd2c1584$__9063cc99e11b9060440160006040518083038186803b15801561090957600080fd5b505af415801561091d573d6000803e3d6000fd5b5050505050565b604051630384494b60e41b815260048101829052600090819073__$94c94c1f27eaba30857c7d0c37f90b5581$__9063384494b09060240160206040518083038186803b15801561097457600080fd5b505af4158015610988573d6000803e3d6000fd5b505050506040513d601f19601f820116820180604052508101906109ac919061214f565b604051639cfaf7b760e01b81526004810185905290915060009073__$94c94c1f27eaba30857c7d0c37f90b5581$__90639cfaf7b79060240160206040518083038186803b1580156109fd57600080fd5b505af4158015610a11573d6000803e3d6000fd5b505050506040513d601f19601f82011682018060405250810190610a35919061216c565b63ffffffff909216600090815260046020908152604080832061ffff959095168352939052919091205490921492915050565b604051630f07232560e01b8152600260048201523360248201526001600160a01b038216604482015273__$364aad554dc80380f414546becdd2c1584$__90630f0723259060640160006040518083038186803b158015610ac857600080fd5b505af4158015610adc573d6000803e3d6000fd5b50506040516001600160a01b03841681527fe435cbeab64e4eae6497b9d8289704bd709d624a80704ef3ca9af777534bc6ec92506020019050610807565b73__$364aad554dc80380f414546becdd2c1584$__63d2a15ba760028461043f6119fb565b604051632a3be56b60e21b8152600260048201526024810183905264ffffffffff8216604482015260009073__$364aad554dc80380f414546becdd2c1584$__9063a8ef95ac9060640160206040518083038186803b158015610ba157600080fd5b505af4158015610bb5573d6000803e3d6000fd5b505050506040513d601f19601f820116820180604052508101906106129190612091565b604051633b11adbf60e21b81526002600482015233602482015273__$364aad554dc80380f414546becdd2c1584$__9063ec46b6fc9060440160206040518083038186803b158015610c2a57600080fd5b505af4158015610c3e573d6000803e3d6000fd5b505050506040513d601f19601f82011682018060405250810190610c629190612091565b80610d07575073__$364aad554dc80380f414546becdd2c1584$__63fe2710866002610c8c6119fb565b6040516001600160e01b031960e085901b168152600481019290925264ffffffffff16602482015260440160206040518083038186803b158015610ccf57600080fd5b505af4158015610ce3573d6000803e3d6000fd5b505050506040513d601f19601f82011682018060405250810190610d079190612091565b610d235760405162461bcd60e51b8152600401610551906120b3565b60405163b6e38a2960e01b81526002600482015264ffffffffff8216602482015273__$364aad554dc80380f414546becdd2c1584$__9063b6e38a299060440160006040518083038186803b158015610d7b57600080fd5b505af4158015610d8f573d6000803e3d6000fd5b505060405164ffffffffff841681527f8b6f40f36b4ae8cc5f55e895036457c43da4ab1f80f58c46f5ff0d72a650033b92506020019050610807565b610dd482611a55565b610ddd81611af4565b604051636cdd0edf60e11b81526002600482015264ffffffffff851660248201526001600160a01b038416604482015273__$364aad554dc80380f414546becdd2c1584$__9063d9ba1dbe9060640160006040518083038186803b158015610e4457600080fd5b505af4158015610e58573d6000803e3d6000fd5b50506040805164ffffffffff881681526001600160a01b038781166020830152868116828401528516606082015290517f4d18c0021addc919105cb1ed2c11ad241e859cc1d9e77d4ee1d9ca2cdc1f255b9350908190036080019150a150505050565b60405163987ad15360e01b81526002600482015260009073__$364aad554dc80380f414546becdd2c1584$__9063987ad153906024016103c5565b6000610f006119fb565b604051637963595360e11b8152600260048201526024810184905264ffffffffff8216604482015290915073__$364aad554dc80380f414546becdd2c1584$__9063f2c6b2a69060640161047c565b604051633b11adbf60e21b81526002600482015233602482015273__$364aad554dc80380f414546becdd2c1584$__9063ec46b6fc9060440160206040518083038186803b158015610fa057600080fd5b505af4158015610fb4573d6000803e3d6000fd5b505050506040513d601f19601f82011682018060405250810190610fd89190612091565b610ff45760405162461bcd60e51b815260040161055190612109565b604051630384494b60e41b81526004810186905260009073__$94c94c1f27eaba30857c7d0c37f90b5581$__9063384494b09060240160206040518083038186803b15801561104257600080fd5b505af4158015611056573d6000803e3d6000fd5b505050506040513d601f19601f8201168201806040525081019061107a919061214f565b9050600061108782611b42565b90506110938782611bc6565b965060006110a861ffff871662278d00612189565b6110b79062ffffff16426121b4565b6040805160a0810182528a815264ffffffffff808b16602080840191825265ffffffffffff80871685870190815267ffffffffffffffff808e16606088019081528d82166080890190815263ffffffff8e166000908152600487528a812061ffff8f16825290965294899020975188559451600190970180549251955194518216600160981b0267ffffffffffffffff60981b1995909216600160581b0294909416600160581b600160d81b03199590931665010000000000026affffffffffffffffffffff1990921696909516959095179490941791909116929092171790555190915088907fad2d662e4df52fe601c3679175f284948652f6d76c95b099d7d4b13a9cb7d0a190611201908a908a908a908a9064ffffffffff94909416845261ffff92909216602084015267ffffffffffffffff908116604084015216606082015260800190565b60405180910390a25050505050505050565b604051633b11adbf60e21b81526002600482015233602482015273__$364aad554dc80380f414546becdd2c1584$__9063ec46b6fc9060440160206040518083038186803b15801561126457600080fd5b505af4158015611278573d6000803e3d6000fd5b505050506040513d601f19601f8201168201806040525081019061129c9190612091565b6112b85760405162461bcd60e51b815260040161055190612109565b846112c281610924565b6112de5760405162461bcd60e51b8152600401610551906121de565b428465ffffffffffff1611806112fa575065ffffffffffff8416155b6113555760405162461bcd60e51b815260206004820152602660248201527f424f502e757064617465506c656467653a2065787069726544617465206973206044820152651c185cdcd95960d21b6064820152608401610551565b604051630384494b60e41b81526004808201889052600091829073__$94c94c1f27eaba30857c7d0c37f90b5581$__9063384494b09060240160206040518083038186803b1580156113a657600080fd5b505af41580156113ba573d6000803e3d6000fd5b505050506040513d601f19601f820116820180604052508101906113de919061214f565b63ffffffff16815260200190815260200160002060008873__$94c94c1f27eaba30857c7d0c37f90b5581$__639cfaf7b790916040518263ffffffff1660e01b815260040161142f91815260200190565b60206040518083038186803b15801561144757600080fd5b505af415801561145b573d6000803e3d6000fd5b505050506040513d601f19601f8201168201806040525081019061147f919061216c565b61ffff168152602080820192909252604090810160002060018101805464ffffffffff8b166affffffffffffffffffffff1990911681176501000000000065ffffffffffff8c1690810291909117600160581b600160d81b031916600160581b67ffffffffffffffff8c811691820267ffffffffffffffff60981b191692909217600160981b928c169283021790945585519283529582015292830152606082019290925290915087907f5c1bead4bf37b74693cc004555bf0a625775bc2f16cdfca9af5f00034cc6c5269060800160405180910390a250505050505050565b6040805160a0810182526000808252602082018190529181018290526060810182905260808101919091528161159481610924565b6115b05760405162461bcd60e51b8152600401610551906121de565b604051630384494b60e41b815260048082018590529060009073__$94c94c1f27eaba30857c7d0c37f90b5581$__9063384494b09060240160206040518083038186803b15801561160057600080fd5b505af4158015611614573d6000803e3d6000fd5b505050506040513d601f19601f82011682018060405250810190611638919061214f565b63ffffffff16815260200190815260200160002060008473__$94c94c1f27eaba30857c7d0c37f90b5581$__639cfaf7b790916040518263ffffffff1660e01b815260040161168991815260200190565b60206040518083038186803b1580156116a157600080fd5b505af41580156116b5573d6000803e3d6000fd5b505050506040513d601f19601f820116820180604052508101906116d9919061216c565b61ffff1681526020808201929092526040908101600020815160a0810183528154815260019091015464ffffffffff81169382019390935265ffffffffffff650100000000008404169181019190915267ffffffffffffffff600160581b830481166060830152600160981b90920490911660808201529392505050565b604051633c3e56c160e11b81526002600482015260009073__$364aad554dc80380f414546becdd2c1584$__9063787cad829060240160206040518083038186803b1580156117a557600080fd5b505af41580156117b9573d6000803e3d6000fd5b505050506040513d601f19601f82011682018060405250810190610415919061221f565b604051633b11adbf60e21b81526002600482015233602482015273__$364aad554dc80380f414546becdd2c1584$__9063ec46b6fc9060440160206040518083038186803b15801561182e57600080fd5b505af4158015611842573d6000803e3d6000fd5b505050506040513d601f19601f820116820180604052508101906118669190612091565b6118825760405162461bcd60e51b815260040161055190612109565b600254600160f01b900460ff166001146118de5760405162461bcd60e51b815260206004820181905260248201527f41432e6f6e6c7950656e64696e673a20446f632069732066696e616c697a65646044820152606401610551565b60405163cc99e11b60e01b815260026004820152684174746f726e65797360b81b602482015273__$364aad554dc80380f414546becdd2c1584$__9063cc99e11b9060440160006040518083038186803b15801561193b57600080fd5b505af415801561194f573d6000803e3d6000fd5b5050604051632725ebef60e21b8152600260048201526000602482015273__$364aad554dc80380f414546becdd2c1584$__9250639c97afbc915060440160006040518083038186803b1580156119a557600080fd5b505af41580156119b9573d6000803e3d6000fd5b50506002805460ff60f01b1916600160f11b17905550506040517f35012b512309c322acf68632cd6cb702ff0e1d776fbe9394e38ffc13b434fe7590600090a1565b60008054604051634de835e760e11b81523360048201526001600160a01b0390911690639bd06bce90602401602060405180830381600087803b158015611a4157600080fd5b505af11580156103f1573d6000803e3d6000fd5b6000546001600160a01b031615611aa65760405162461bcd60e51b815260206004820152601560248201527430b63932b0b23c9039b2ba103932b3a1b2b73a32b960591b6044820152606401610551565b600080546001600160a01b0319166001600160a01b0383169081179091556040519081527f318da6c7624c71cbc0afe346c9d8827f119d0ecefb241a7b0c87217a076a8e0290602001610807565b600180546001600160a01b0319166001600160a01b0383169081179091556040519081527fe513d3e0f0d0a3877029dcc588748679a7a3450ec1ec7ed56d96bd012c3e61aa90602001610807565b63ffffffff811660009081526004602090815260408083208380529091528120600101805464ffffffffff169082611b798361223c565b82546101009290920a64ffffffffff81810219909316918316021790915563ffffffff93909316600090815260046020908152604080832083805290915290206001015490921692915050565b60008083604051602001611bdc91815260200190565b60408051601f198184030181529082905263d8a3155f60e01b8252915073__$f4d24a073c4d632c09a66fb0a7ac9d4583$__9063d8a3155f90611c27908490600490889082016122bd565b60006040518083038186803b158015611c3f57600080fd5b505af4158015611c53573d6000803e3d6000fd5b505050506040513d6000823e601f3d908101601f19168201604052611c7b91908101906122ea565b60405163acdc3d3960e01b815290915073__$f4d24a073c4d632c09a66fb0a7ac9d4583$__9063acdc3d3990611cba9084906006904290600401612397565b60006040518083038186803b158015611cd257600080fd5b505af4158015611ce6573d6000803e3d6000fd5b505050506040513d6000823e601f3d908101601f19168201604052611d0e91908101906122ea565b60405163bfe370d960e01b815290915073__$f4d24a073c4d632c09a66fb0a7ac9d4583$__9063bfe370d990611d489084906004016123c8565b60206040518083038186803b158015611d6057600080fd5b505af4158015611d74573d6000803e3d6000fd5b505050506040513d601f19601f82011682018060405250810190611d9891906123db565b949350505050565b64ffffffffff81168114611db357600080fd5b50565b60008060408385031215611dc957600080fd5b823591506020830135611ddb81611da0565b809150509250929050565b63ffffffff81168114611db357600080fd5b600060208284031215611e0a57600080fd5b813561061281611de6565b6020808252825182820181905260009190848201906040850190845b81811015611e4d57835183529284019291840191600101611e31565b50909695505050505050565b600060208284031215611e6b57600080fd5b813561061281611da0565b600060208284031215611e8857600080fd5b5035919050565b6001600160a01b0381168114611db357600080fd5b600060208284031215611eb657600080fd5b813561061281611e8f565b60008060008060808587031215611ed757600080fd5b8435611ee281611da0565b93506020850135611ef281611e8f565b92506040850135611f0281611e8f565b91506060850135611f1281611e8f565b939692955090935050565b61ffff81168114611db357600080fd5b803567ffffffffffffffff81168114611f4557600080fd5b919050565b600080600080600060a08688031215611f6257600080fd5b853594506020860135611f7481611da0565b93506040860135611f8481611f1d565b9250611f9260608701611f2d565b9150611fa060808701611f2d565b90509295509295909350565b600080600080600060a08688031215611fc457600080fd5b853594506020860135611fd681611da0565b9350604086013565ffffffffffff81168114611f8457600080fd5b60006020828403121561200357600080fd5b815161061281611da0565b634e487b7160e01b600052604160045260246000fd5b634e487b7160e01b600052601160045260246000fd5b600061ffff8381169083168181101561205557612055612024565b039392505050565b634e487b7160e01b600052603260045260246000fd5b600061ffff82168061208757612087612024565b6000190192915050565b6000602082840312156120a357600080fd5b8151801515811461061257600080fd5b60208082526036908201527f41432e6f776e65724f72446972656374426f6f6b65657065723a206e6569746860408201527532b91037bbb732b9103737b9103137b7b5b2b2b832b960511b606082015260800190565b60208082526026908201527f41432e6f6e6c794469726563744b65657065723a206e6f74206469726563742060408201526535b2b2b832b960d11b606082015260800190565b60006020828403121561216157600080fd5b815161061281611de6565b60006020828403121561217e57600080fd5b815161061281611f1d565b600062ffffff808316818516818304811182151516156121ab576121ab612024565b02949350505050565b600065ffffffffffff8083168185168083038211156121d5576121d5612024565b01949350505050565b60208082526021908201527f424f502e706c6564676545786973743a20706c65646765204e4f5420657869736040820152601d60fa1b606082015260800190565b60006020828403121561223157600080fd5b815161061281611e8f565b600064ffffffffff8083168181141561225757612257612024565b6001019392505050565b60005b8381101561227c578181015183820152602001612264565b8381111561228b576000848401525b50505050565b600081518084526122a9816020860160208601612261565b601f01601f19169290920160200192915050565b6060815260006122d06060830186612291565b905083602083015261ffff83166040830152949350505050565b6000602082840312156122fc57600080fd5b815167ffffffffffffffff8082111561231457600080fd5b818401915084601f83011261232857600080fd5b81518181111561233a5761233a61200e565b604051601f8201601f19908116603f011681019083821181831017156123625761236261200e565b8160405282815287602084870101111561237b57600080fd5b61238c836020830160208801612261565b979650505050505050565b6060815260006123aa6060830186612291565b905083602083015265ffffffffffff83166040830152949350505050565b6020815260006106126020830184612291565b6000602082840312156123ed57600080fd5b505191905056fea2646970667358221220f88aa0b03cda7f202a26ae049fd77b14d2ef192f23e7c9cce246deb5f23e402e64736f6c63430008080033",
    "sourcePath": "/Users/kaptain/github.com/hardhat/comboox/contracts/books/bop/BookOfPledges.sol",
    "compiler": {
        "name": "solc",
        "version": "0.8.8+commit.dddeac2f"
    },
    "functionHashes": {
        "abandonRole(bytes32)": "3da9a600",
        "counterOfPledges(uint32)": "695b7750",
        "createPledge(bytes32,uint40,uint16,uint64,uint64)": "b079ab1b",
        "finalized()": "b3f05b97",
        "getBookeeper()": "ed211023",
        "getGeneralCounsel()": "103f6edd",
        "getOwner()": "893d20e8",
        "getPledge(bytes32)": "d01739cb",
        "grantRole(bytes32,uint40)": "74099815",
        "hasRole(bytes32,uint40)": "79b2ec12",
        "init(uint40,address,address,address)": "821ee8ea",
        "isPledge(bytes32)": "5aaf23bb",
        "lockContents()": "f045a769",
        "pledgesOf(uint32)": "289bebdb",
        "renounceRole(bytes32)": "8bb9c5bf",
        "revokeRole(bytes32,uint40)": "17c51fec",
        "setDirectKeeper(address)": "6be8496f",
        "setGeneralCounsel(uint40)": "3178a9a9",
        "setOwner(uint40)": "7ba706e8",
        "setRoleAdmin(bytes32,uint40)": "16dc517e",
        "updatePledge(bytes32,uint40,uint48,uint64,uint64)": "c0eb9e4b"
    },
    "gasEstimates": {
        "creation": {
            "codeDepositCost": "1851600",
            "executionCost": "1955",
            "totalCost": "1853555"
        },
        "external": {
            "abandonRole(bytes32)": "infinite",
            "counterOfPledges(uint32)": "2667",
            "createPledge(bytes32,uint40,uint16,uint64,uint64)": "infinite",
            "finalized()": "2371",
            "getBookeeper()": "infinite",
            "getGeneralCounsel()": "infinite",
            "getOwner()": "infinite",
            "getPledge(bytes32)": "infinite",
            "grantRole(bytes32,uint40)": "infinite",
            "hasRole(bytes32,uint40)": "infinite",
            "init(uint40,address,address,address)": "infinite",
            "isPledge(bytes32)": "infinite",
            "lockContents()": "infinite",
            "pledgesOf(uint32)": "infinite",
            "renounceRole(bytes32)": "infinite",
            "revokeRole(bytes32,uint40)": "infinite",
            "setDirectKeeper(address)": "infinite",
            "setGeneralCounsel(uint40)": "infinite",
            "setOwner(uint40)": "infinite",
            "setRoleAdmin(bytes32,uint40)": "infinite",
            "updatePledge(bytes32,uint40,uint48,uint64,uint64)": "infinite"
        },
        "internal": {
            "_increaseCounterOfPledges(uint32)": "28927",
            "_updateSN(bytes32,uint16)": "infinite"
        }
    }
}