{
    "contractName": "BookOfPledges",
    "abi": [
        {
            "anonymous": false,
            "inputs": [
                {
                    "indexed": true,
                    "internalType": "uint256",
                    "name": "seqOfShare",
                    "type": "uint256"
                },
                {
                    "indexed": false,
                    "internalType": "uint256",
                    "name": "seqOfPldOnShare",
                    "type": "uint256"
                },
                {
                    "indexed": false,
                    "internalType": "uint256",
                    "name": "creditor",
                    "type": "uint256"
                },
                {
                    "indexed": false,
                    "internalType": "uint64",
                    "name": "pledgedPaid",
                    "type": "uint64"
                },
                {
                    "indexed": false,
                    "internalType": "uint64",
                    "name": "pledgedPar",
                    "type": "uint64"
                }
            ],
            "name": "CreatePledge",
            "type": "event"
        },
        {
            "anonymous": false,
            "inputs": [
                {
                    "indexed": false,
                    "internalType": "uint256",
                    "name": "owner",
                    "type": "uint256"
                },
                {
                    "indexed": false,
                    "internalType": "address",
                    "name": "directKeeper",
                    "type": "address"
                },
                {
                    "indexed": false,
                    "internalType": "address",
                    "name": "regCenter",
                    "type": "address"
                },
                {
                    "indexed": false,
                    "internalType": "address",
                    "name": "generalKeeper",
                    "type": "address"
                }
            ],
            "name": "Init",
            "type": "event"
        },
        {
            "anonymous": false,
            "inputs": [],
            "name": "LockContents",
            "type": "event"
        },
        {
            "anonymous": false,
            "inputs": [
                {
                    "indexed": true,
                    "internalType": "uint256",
                    "name": "seqOfShare",
                    "type": "uint256"
                },
                {
                    "indexed": false,
                    "internalType": "uint256",
                    "name": "seqOfPldOnShare",
                    "type": "uint256"
                }
            ],
            "name": "ReleasePledge",
            "type": "event"
        },
        {
            "anonymous": false,
            "inputs": [
                {
                    "indexed": false,
                    "internalType": "address",
                    "name": "keeper",
                    "type": "address"
                }
            ],
            "name": "SetDirectKeeper",
            "type": "event"
        },
        {
            "anonymous": false,
            "inputs": [
                {
                    "indexed": false,
                    "internalType": "uint256",
                    "name": "acct",
                    "type": "uint256"
                }
            ],
            "name": "SetGeneralCounsel",
            "type": "event"
        },
        {
            "anonymous": false,
            "inputs": [
                {
                    "indexed": false,
                    "internalType": "address",
                    "name": "gk",
                    "type": "address"
                }
            ],
            "name": "SetGeneralKeeper",
            "type": "event"
        },
        {
            "anonymous": false,
            "inputs": [
                {
                    "indexed": false,
                    "internalType": "uint256",
                    "name": "acct",
                    "type": "uint256"
                }
            ],
            "name": "SetOwner",
            "type": "event"
        },
        {
            "anonymous": false,
            "inputs": [
                {
                    "indexed": false,
                    "internalType": "address",
                    "name": "rc",
                    "type": "address"
                }
            ],
            "name": "SetRegCenter",
            "type": "event"
        },
        {
            "anonymous": false,
            "inputs": [
                {
                    "indexed": true,
                    "internalType": "uint256",
                    "name": "seqOfShare",
                    "type": "uint256"
                },
                {
                    "indexed": false,
                    "internalType": "uint256",
                    "name": "seqOfPldOnShare",
                    "type": "uint256"
                },
                {
                    "indexed": false,
                    "internalType": "uint256",
                    "name": "creditor",
                    "type": "uint256"
                },
                {
                    "indexed": false,
                    "internalType": "uint48",
                    "name": "expireDate",
                    "type": "uint48"
                },
                {
                    "indexed": false,
                    "internalType": "uint64",
                    "name": "pledgedPaid",
                    "type": "uint64"
                },
                {
                    "indexed": false,
                    "internalType": "uint64",
                    "name": "pledgedPar",
                    "type": "uint64"
                }
            ],
            "name": "UpdatePledge",
            "type": "event"
        },
        {
            "inputs": [
                {
                    "internalType": "bytes32",
                    "name": "role",
                    "type": "bytes32"
                }
            ],
            "name": "abandonRole",
            "outputs": [],
            "stateMutability": "nonpayable",
            "type": "function"
        },
        {
            "inputs": [
                {
                    "internalType": "uint256",
                    "name": "seqOfShare",
                    "type": "uint256"
                }
            ],
            "name": "counterOfPledges",
            "outputs": [
                {
                    "internalType": "uint16",
                    "name": "",
                    "type": "uint16"
                }
            ],
            "stateMutability": "view",
            "type": "function"
        },
        {
            "inputs": [
                {
                    "internalType": "uint256",
                    "name": "sn",
                    "type": "uint256"
                },
                {
                    "internalType": "uint40",
                    "name": "creditor",
                    "type": "uint40"
                },
                {
                    "internalType": "uint16",
                    "name": "monOfGuarantee",
                    "type": "uint16"
                },
                {
                    "internalType": "uint64",
                    "name": "pledgedPaid",
                    "type": "uint64"
                },
                {
                    "internalType": "uint64",
                    "name": "pledgedPar",
                    "type": "uint64"
                }
            ],
            "name": "createPledge",
            "outputs": [
                {
                    "components": [
                        {
                            "internalType": "uint32",
                            "name": "seqOfShare",
                            "type": "uint32"
                        },
                        {
                            "internalType": "uint16",
                            "name": "seqOfPldOnShare",
                            "type": "uint16"
                        },
                        {
                            "internalType": "uint16",
                            "name": "seqOfPldOnOdr",
                            "type": "uint16"
                        },
                        {
                            "internalType": "uint48",
                            "name": "createDate",
                            "type": "uint48"
                        },
                        {
                            "internalType": "uint48",
                            "name": "triggerDate",
                            "type": "uint48"
                        },
                        {
                            "internalType": "uint40",
                            "name": "pledgor",
                            "type": "uint40"
                        },
                        {
                            "internalType": "uint40",
                            "name": "debtor",
                            "type": "uint40"
                        },
                        {
                            "internalType": "uint8",
                            "name": "state",
                            "type": "uint8"
                        }
                    ],
                    "internalType": "struct PledgesRepo.Head",
                    "name": "head",
                    "type": "tuple"
                }
            ],
            "stateMutability": "nonpayable",
            "type": "function"
        },
        {
            "inputs": [],
            "name": "finalized",
            "outputs": [
                {
                    "internalType": "bool",
                    "name": "",
                    "type": "bool"
                }
            ],
            "stateMutability": "view",
            "type": "function"
        },
        {
            "inputs": [],
            "name": "getBookeeper",
            "outputs": [
                {
                    "internalType": "address",
                    "name": "",
                    "type": "address"
                }
            ],
            "stateMutability": "view",
            "type": "function"
        },
        {
            "inputs": [],
            "name": "getGeneralCounsel",
            "outputs": [
                {
                    "internalType": "uint40",
                    "name": "",
                    "type": "uint40"
                }
            ],
            "stateMutability": "view",
            "type": "function"
        },
        {
            "inputs": [],
            "name": "getOwner",
            "outputs": [
                {
                    "internalType": "uint40",
                    "name": "",
                    "type": "uint40"
                }
            ],
            "stateMutability": "view",
            "type": "function"
        },
        {
            "inputs": [
                {
                    "internalType": "uint256",
                    "name": "snOfPld",
                    "type": "uint256"
                }
            ],
            "name": "getPledge",
            "outputs": [
                {
                    "components": [
                        {
                            "components": [
                                {
                                    "internalType": "uint32",
                                    "name": "seqOfShare",
                                    "type": "uint32"
                                },
                                {
                                    "internalType": "uint16",
                                    "name": "seqOfPldOnShare",
                                    "type": "uint16"
                                },
                                {
                                    "internalType": "uint16",
                                    "name": "seqOfPldOnOdr",
                                    "type": "uint16"
                                },
                                {
                                    "internalType": "uint48",
                                    "name": "createDate",
                                    "type": "uint48"
                                },
                                {
                                    "internalType": "uint48",
                                    "name": "triggerDate",
                                    "type": "uint48"
                                },
                                {
                                    "internalType": "uint40",
                                    "name": "pledgor",
                                    "type": "uint40"
                                },
                                {
                                    "internalType": "uint40",
                                    "name": "debtor",
                                    "type": "uint40"
                                },
                                {
                                    "internalType": "uint8",
                                    "name": "state",
                                    "type": "uint8"
                                }
                            ],
                            "internalType": "struct PledgesRepo.Head",
                            "name": "head",
                            "type": "tuple"
                        },
                        {
                            "components": [
                                {
                                    "internalType": "uint48",
                                    "name": "expireDate",
                                    "type": "uint48"
                                },
                                {
                                    "internalType": "uint40",
                                    "name": "creditor",
                                    "type": "uint40"
                                },
                                {
                                    "internalType": "uint64",
                                    "name": "paid",
                                    "type": "uint64"
                                },
                                {
                                    "internalType": "uint64",
                                    "name": "par",
                                    "type": "uint64"
                                }
                            ],
                            "internalType": "struct PledgesRepo.Body",
                            "name": "body",
                            "type": "tuple"
                        },
                        {
                            "internalType": "bytes32",
                            "name": "hashLock",
                            "type": "bytes32"
                        }
                    ],
                    "internalType": "struct PledgesRepo.Pledge",
                    "name": "pld",
                    "type": "tuple"
                }
            ],
            "stateMutability": "view",
            "type": "function"
        },
        {
            "inputs": [
                {
                    "internalType": "uint256",
                    "name": "seqOfShare",
                    "type": "uint256"
                }
            ],
            "name": "getPledgesOfShare",
            "outputs": [
                {
                    "components": [
                        {
                            "components": [
                                {
                                    "internalType": "uint32",
                                    "name": "seqOfShare",
                                    "type": "uint32"
                                },
                                {
                                    "internalType": "uint16",
                                    "name": "seqOfPldOnShare",
                                    "type": "uint16"
                                },
                                {
                                    "internalType": "uint16",
                                    "name": "seqOfPldOnOdr",
                                    "type": "uint16"
                                },
                                {
                                    "internalType": "uint48",
                                    "name": "createDate",
                                    "type": "uint48"
                                },
                                {
                                    "internalType": "uint48",
                                    "name": "triggerDate",
                                    "type": "uint48"
                                },
                                {
                                    "internalType": "uint40",
                                    "name": "pledgor",
                                    "type": "uint40"
                                },
                                {
                                    "internalType": "uint40",
                                    "name": "debtor",
                                    "type": "uint40"
                                },
                                {
                                    "internalType": "uint8",
                                    "name": "state",
                                    "type": "uint8"
                                }
                            ],
                            "internalType": "struct PledgesRepo.Head",
                            "name": "head",
                            "type": "tuple"
                        },
                        {
                            "components": [
                                {
                                    "internalType": "uint48",
                                    "name": "expireDate",
                                    "type": "uint48"
                                },
                                {
                                    "internalType": "uint40",
                                    "name": "creditor",
                                    "type": "uint40"
                                },
                                {
                                    "internalType": "uint64",
                                    "name": "paid",
                                    "type": "uint64"
                                },
                                {
                                    "internalType": "uint64",
                                    "name": "par",
                                    "type": "uint64"
                                }
                            ],
                            "internalType": "struct PledgesRepo.Body",
                            "name": "body",
                            "type": "tuple"
                        },
                        {
                            "internalType": "bytes32",
                            "name": "hashLock",
                            "type": "bytes32"
                        }
                    ],
                    "internalType": "struct PledgesRepo.Pledge[]",
                    "name": "",
                    "type": "tuple[]"
                }
            ],
            "stateMutability": "view",
            "type": "function"
        },
        {
            "inputs": [],
            "name": "getSnList",
            "outputs": [
                {
                    "internalType": "uint256[]",
                    "name": "records",
                    "type": "uint256[]"
                }
            ],
            "stateMutability": "view",
            "type": "function"
        },
        {
            "inputs": [
                {
                    "internalType": "bytes32",
                    "name": "role",
                    "type": "bytes32"
                },
                {
                    "internalType": "uint256",
                    "name": "acct",
                    "type": "uint256"
                }
            ],
            "name": "grantRole",
            "outputs": [],
            "stateMutability": "nonpayable",
            "type": "function"
        },
        {
            "inputs": [
                {
                    "internalType": "bytes32",
                    "name": "role",
                    "type": "bytes32"
                },
                {
                    "internalType": "uint256",
                    "name": "acct",
                    "type": "uint256"
                }
            ],
            "name": "hasRole",
            "outputs": [
                {
                    "internalType": "bool",
                    "name": "",
                    "type": "bool"
                }
            ],
            "stateMutability": "view",
            "type": "function"
        },
        {
            "inputs": [
                {
                    "internalType": "uint256",
                    "name": "owner",
                    "type": "uint256"
                },
                {
                    "internalType": "address",
                    "name": "directKeeper",
                    "type": "address"
                },
                {
                    "internalType": "address",
                    "name": "regCenter",
                    "type": "address"
                },
                {
                    "internalType": "address",
                    "name": "generalKeeper",
                    "type": "address"
                }
            ],
            "name": "init",
            "outputs": [],
            "stateMutability": "nonpayable",
            "type": "function"
        },
        {
            "inputs": [
                {
                    "internalType": "uint256",
                    "name": "seqOfShare",
                    "type": "uint256"
                },
                {
                    "internalType": "uint256",
                    "name": "seqOfPledge",
                    "type": "uint256"
                }
            ],
            "name": "isPledge",
            "outputs": [
                {
                    "internalType": "bool",
                    "name": "",
                    "type": "bool"
                }
            ],
            "stateMutability": "view",
            "type": "function"
        },
        {
            "inputs": [
                {
                    "components": [
                        {
                            "internalType": "uint32",
                            "name": "seqOfShare",
                            "type": "uint32"
                        },
                        {
                            "internalType": "uint16",
                            "name": "seqOfPldOnShare",
                            "type": "uint16"
                        },
                        {
                            "internalType": "uint16",
                            "name": "seqOfPldOnOdr",
                            "type": "uint16"
                        },
                        {
                            "internalType": "uint48",
                            "name": "createDate",
                            "type": "uint48"
                        },
                        {
                            "internalType": "uint48",
                            "name": "triggerDate",
                            "type": "uint48"
                        },
                        {
                            "internalType": "uint40",
                            "name": "pledgor",
                            "type": "uint40"
                        },
                        {
                            "internalType": "uint40",
                            "name": "debtor",
                            "type": "uint40"
                        },
                        {
                            "internalType": "uint8",
                            "name": "state",
                            "type": "uint8"
                        }
                    ],
                    "internalType": "struct PledgesRepo.Head",
                    "name": "head",
                    "type": "tuple"
                },
                {
                    "internalType": "uint40",
                    "name": "creditor",
                    "type": "uint40"
                },
                {
                    "internalType": "uint16",
                    "name": "monOfGuarantee",
                    "type": "uint16"
                },
                {
                    "internalType": "uint64",
                    "name": "pledgedPaid",
                    "type": "uint64"
                },
                {
                    "internalType": "uint64",
                    "name": "pledgedPar",
                    "type": "uint64"
                }
            ],
            "name": "issuePledge",
            "outputs": [
                {
                    "components": [
                        {
                            "internalType": "uint32",
                            "name": "seqOfShare",
                            "type": "uint32"
                        },
                        {
                            "internalType": "uint16",
                            "name": "seqOfPldOnShare",
                            "type": "uint16"
                        },
                        {
                            "internalType": "uint16",
                            "name": "seqOfPldOnOdr",
                            "type": "uint16"
                        },
                        {
                            "internalType": "uint48",
                            "name": "createDate",
                            "type": "uint48"
                        },
                        {
                            "internalType": "uint48",
                            "name": "triggerDate",
                            "type": "uint48"
                        },
                        {
                            "internalType": "uint40",
                            "name": "pledgor",
                            "type": "uint40"
                        },
                        {
                            "internalType": "uint40",
                            "name": "debtor",
                            "type": "uint40"
                        },
                        {
                            "internalType": "uint8",
                            "name": "state",
                            "type": "uint8"
                        }
                    ],
                    "internalType": "struct PledgesRepo.Head",
                    "name": "regHead",
                    "type": "tuple"
                }
            ],
            "stateMutability": "nonpayable",
            "type": "function"
        },
        {
            "inputs": [],
            "name": "lockContents",
            "outputs": [],
            "stateMutability": "nonpayable",
            "type": "function"
        },
        {
            "inputs": [
                {
                    "components": [
                        {
                            "components": [
                                {
                                    "internalType": "uint32",
                                    "name": "seqOfShare",
                                    "type": "uint32"
                                },
                                {
                                    "internalType": "uint16",
                                    "name": "seqOfPldOnShare",
                                    "type": "uint16"
                                },
                                {
                                    "internalType": "uint16",
                                    "name": "seqOfPldOnOdr",
                                    "type": "uint16"
                                },
                                {
                                    "internalType": "uint48",
                                    "name": "createDate",
                                    "type": "uint48"
                                },
                                {
                                    "internalType": "uint48",
                                    "name": "triggerDate",
                                    "type": "uint48"
                                },
                                {
                                    "internalType": "uint40",
                                    "name": "pledgor",
                                    "type": "uint40"
                                },
                                {
                                    "internalType": "uint40",
                                    "name": "debtor",
                                    "type": "uint40"
                                },
                                {
                                    "internalType": "uint8",
                                    "name": "state",
                                    "type": "uint8"
                                }
                            ],
                            "internalType": "struct PledgesRepo.Head",
                            "name": "head",
                            "type": "tuple"
                        },
                        {
                            "components": [
                                {
                                    "internalType": "uint48",
                                    "name": "expireDate",
                                    "type": "uint48"
                                },
                                {
                                    "internalType": "uint40",
                                    "name": "creditor",
                                    "type": "uint40"
                                },
                                {
                                    "internalType": "uint64",
                                    "name": "paid",
                                    "type": "uint64"
                                },
                                {
                                    "internalType": "uint64",
                                    "name": "par",
                                    "type": "uint64"
                                }
                            ],
                            "internalType": "struct PledgesRepo.Body",
                            "name": "body",
                            "type": "tuple"
                        },
                        {
                            "internalType": "bytes32",
                            "name": "hashLock",
                            "type": "bytes32"
                        }
                    ],
                    "internalType": "struct PledgesRepo.Pledge",
                    "name": "pld",
                    "type": "tuple"
                }
            ],
            "name": "regPledge",
            "outputs": [
                {
                    "components": [
                        {
                            "internalType": "uint32",
                            "name": "seqOfShare",
                            "type": "uint32"
                        },
                        {
                            "internalType": "uint16",
                            "name": "seqOfPldOnShare",
                            "type": "uint16"
                        },
                        {
                            "internalType": "uint16",
                            "name": "seqOfPldOnOdr",
                            "type": "uint16"
                        },
                        {
                            "internalType": "uint48",
                            "name": "createDate",
                            "type": "uint48"
                        },
                        {
                            "internalType": "uint48",
                            "name": "triggerDate",
                            "type": "uint48"
                        },
                        {
                            "internalType": "uint40",
                            "name": "pledgor",
                            "type": "uint40"
                        },
                        {
                            "internalType": "uint40",
                            "name": "debtor",
                            "type": "uint40"
                        },
                        {
                            "internalType": "uint8",
                            "name": "state",
                            "type": "uint8"
                        }
                    ],
                    "internalType": "struct PledgesRepo.Head",
                    "name": "head",
                    "type": "tuple"
                }
            ],
            "stateMutability": "nonpayable",
            "type": "function"
        },
        {
            "inputs": [
                {
                    "internalType": "uint256",
                    "name": "snOfPld",
                    "type": "uint256"
                },
                {
                    "internalType": "string",
                    "name": "hashKey",
                    "type": "string"
                }
            ],
            "name": "releasePledge",
            "outputs": [
                {
                    "internalType": "bool",
                    "name": "flag",
                    "type": "bool"
                }
            ],
            "stateMutability": "nonpayable",
            "type": "function"
        },
        {
            "inputs": [
                {
                    "internalType": "bytes32",
                    "name": "role",
                    "type": "bytes32"
                }
            ],
            "name": "renounceRole",
            "outputs": [],
            "stateMutability": "nonpayable",
            "type": "function"
        },
        {
            "inputs": [
                {
                    "internalType": "bytes32",
                    "name": "role",
                    "type": "bytes32"
                },
                {
                    "internalType": "uint256",
                    "name": "acct",
                    "type": "uint256"
                }
            ],
            "name": "revokeRole",
            "outputs": [],
            "stateMutability": "nonpayable",
            "type": "function"
        },
        {
            "inputs": [
                {
                    "internalType": "address",
                    "name": "keeper",
                    "type": "address"
                }
            ],
            "name": "setDirectKeeper",
            "outputs": [],
            "stateMutability": "nonpayable",
            "type": "function"
        },
        {
            "inputs": [
                {
                    "internalType": "uint256",
                    "name": "acct",
                    "type": "uint256"
                }
            ],
            "name": "setGeneralCounsel",
            "outputs": [],
            "stateMutability": "nonpayable",
            "type": "function"
        },
        {
            "inputs": [
                {
                    "internalType": "uint256",
                    "name": "acct",
                    "type": "uint256"
                }
            ],
            "name": "setOwner",
            "outputs": [],
            "stateMutability": "nonpayable",
            "type": "function"
        },
        {
            "inputs": [
                {
                    "internalType": "bytes32",
                    "name": "role",
                    "type": "bytes32"
                },
                {
                    "internalType": "uint256",
                    "name": "acct",
                    "type": "uint256"
                }
            ],
            "name": "setRoleAdmin",
            "outputs": [],
            "stateMutability": "nonpayable",
            "type": "function"
        },
        {
            "inputs": [
                {
                    "internalType": "uint256",
                    "name": "seqOfShare",
                    "type": "uint256"
                },
                {
                    "internalType": "uint256",
                    "name": "seqOfPldOnShare",
                    "type": "uint256"
                },
                {
                    "internalType": "uint40",
                    "name": "creditor",
                    "type": "uint40"
                },
                {
                    "internalType": "uint48",
                    "name": "expireDate",
                    "type": "uint48"
                },
                {
                    "internalType": "uint64",
                    "name": "pledgedPaid",
                    "type": "uint64"
                },
                {
                    "internalType": "uint64",
                    "name": "pledgedPar",
                    "type": "uint64"
                }
            ],
            "name": "updatePledge",
            "outputs": [],
            "stateMutability": "nonpayable",
            "type": "function"
        }
    ],
    "bytecode": "608060405234801561001057600080fd5b50612e9c806100206000396000f3fe608060405234801561001057600080fd5b50600436106101735760003560e01c80636be8496f116100de57806390c4ce5211610097578063dc890da911610071578063dc890da9146103a8578063ed211023146103bb578063f045a769146103db578063f5e3e66a146103e357600080fd5b806390c4ce5214610361578063b3f05b9714610381578063c5331c9e1461039557600080fd5b80636be8496f146102fa5780637e063c5a1461030d5780638041494e14610320578063893d20e8146103335780638b74a5191461033b5780638bb9c5bf1461034e57600080fd5b80633da9a600116101305780633da9a60014610242578063425358a0146102555780634a14beb1146102755780635171ebd4146102885780635690364b1461029b5780635e9bd717146102e757600080fd5b8063103f6edd146101785780631370f8b51461019b57806319d61ad9146101b05780631b6ea9f9146101c55780632d5562ca146101d85780632e66736414610222575b600080fd5b6101806103f6565b60405164ffffffffff90911681526020015b60405180910390f35b6101a3610482565b6040516101929190612255565b6101c36101be366004612299565b61050b565b005b6101c36101d3366004612299565b61059f565b61020f6101e63660046122bb565b6000908152600460209081526040808320838052909152902054640100000000900461ffff1690565b60405161ffff9091168152602001610192565b6102356102303660046122bb565b6105c4565b60405161019291906123d2565b6101c36102503660046122bb565b61065a565b610268610263366004612612565b610775565b60405161019291906126be565b6101c36102833660046122bb565b6109b7565b6101c3610296366004612299565b610ba7565b6102d76102a9366004612299565b6000918252600460209081526040808420928452919052902054600160401b900465ffffffffffff16151590565b6040519015158152602001610192565b6101c36102f53660046126cd565b610bcc565b6101c3610308366004612752565b611008565b6102d761031b366004612299565b6110ba565b6101c361032e3660046122bb565b611155565b61018061133a565b61026861034936600461276f565b611375565b6101c361035c3660046122bb565b6115b4565b61037461036f3660046122bb565b61160d565b60405161019291906127d7565b60028054600160f01b900460ff16146102d7565b6102d76103a33660046127e6565b6117bf565b6101c36103b6366004612884565b611aa5565b6103c3611b88565b6040516001600160a01b039091168152602001610192565b6101c3611c0e565b6102686103f13660046128d7565b611e2c565b60405163e8c0cc1d60e01b81526002600482015260009073__$364aad554dc80380f414546becdd2c1584$__9063e8c0cc1d906024015b60206040518083038186803b15801561044557600080fd5b505af4158015610459573d6000803e3d6000fd5b505050506040513d601f19601f8201168201806040525081019061047d9190612949565b905090565b60405163a3dc434360e01b815260048082015260609073__$d113c86820c60155271829fbf7bae741f8$__9063a3dc43439060240160006040518083038186803b1580156104cf57600080fd5b505af41580156104e3573d6000803e3d6000fd5b505050506040513d6000823e601f3d908101601f1916820160405261047d9190810190612989565b73__$364aad554dc80380f414546becdd2c1584$__6382daafaa600284610530611fb1565b6040516001600160e01b031960e086901b1681526004810193909352602483019190915264ffffffffff166044820152606481018490526084015b60006040518083038186803b15801561058357600080fd5b505af4158015610597573d6000803e3d6000fd5b505050505050565b73__$364aad554dc80380f414546becdd2c1584$__636320d75e600284610530611fb1565b604051639e1adb1f60e01b81526004808201526024810182905260609073__$d113c86820c60155271829fbf7bae741f8$__90639e1adb1f9060440160006040518083038186803b15801561061857600080fd5b505af415801561062c573d6000803e3d6000fd5b505050506040513d6000823e601f3d908101601f191682016040526106549190810190612add565b92915050565b604051633b11adbf60e21b81526002600482015233602482015273__$364aad554dc80380f414546becdd2c1584$__9063ec46b6fc9060440160206040518083038186803b1580156106ab57600080fd5b505af41580156106bf573d6000803e3d6000fd5b505050506040513d601f19601f820116820180604052508101906106e39190612c16565b6107085760405162461bcd60e51b81526004016106ff90612c38565b60405180910390fd5b60405163cc99e11b60e01b8152600260048201526024810182905273__$364aad554dc80380f414546becdd2c1584$__9063cc99e11b9060440160006040518083038186803b15801561075a57600080fd5b505af415801561076e573d6000803e3d6000fd5b5050505050565b61077d6121ca565b6001546040516335d2155560e11b81523360048201526001600160a01b0390911690636ba42aaa9060240160206040518083038186803b1580156107c057600080fd5b505afa1580156107d4573d6000803e3d6000fd5b505050506040513d601f19601f820116820180604052508101906107f89190612c16565b6108385760405162461bcd60e51b815260206004820152601160248201527020a19737b59d103737ba1025b2b2b832b960791b60448201526064016106ff565b604051637186e27b60e11b815273__$d113c86820c60155271829fbf7bae741f8$__9063e30dc4f6906108719060049086908201612c7e565b6101006040518083038186803b15801561088a57600080fd5b505af415801561089e573d6000803e3d6000fd5b505050506040513d601f19601f820116820180604052508101906108c29190612cbe565b80516020808301518582015191820151604080840151606090940151905195965063ffffffff909416947f5ffd5923812144e1210fa2797b8d4c655ded771a5601107917d4173db1e61d41946109189491612cdb565b60405180910390a261092861200b565b815160208401516040808201516060909201519051634bacf96160e01b815263ffffffff90931660048401526001600160401b0391821660248401521660448201526001600160a01b039190911690634bacf96190606401600060405180830381600087803b15801561099a57600080fd5b505af11580156109ae573d6000803e3d6000fd5b50505050919050565b604051633b11adbf60e21b81526002600482015233602482015273__$364aad554dc80380f414546becdd2c1584$__9063ec46b6fc9060440160206040518083038186803b158015610a0857600080fd5b505af4158015610a1c573d6000803e3d6000fd5b505050506040513d601f19601f82011682018060405250810190610a409190612c16565b80610ae5575073__$364aad554dc80380f414546becdd2c1584$__63fe2710866002610a6a611fb1565b6040516001600160e01b031960e085901b168152600481019290925264ffffffffff16602482015260440160206040518083038186803b158015610aad57600080fd5b505af4158015610ac1573d6000803e3d6000fd5b505050506040513d601f19601f82011682018060405250810190610ae59190612c16565b610b015760405162461bcd60e51b81526004016106ff90612d0f565b604051632725ebef60e21b8152600260048201526024810182905273__$364aad554dc80380f414546becdd2c1584$__90639c97afbc9060440160006040518083038186803b158015610b5357600080fd5b505af4158015610b67573d6000803e3d6000fd5b505050507ff2735f34b69be1e6342dea95f9162f84d0db925fab655ca9f1f312ac8cbfc99d81604051610b9c91815260200190565b60405180910390a150565b73__$364aad554dc80380f414546becdd2c1584$__63ee98b313600284610530611fb1565b604051633b11adbf60e21b81526002600482015233602482015273__$364aad554dc80380f414546becdd2c1584$__9063ec46b6fc9060440160206040518083038186803b158015610c1d57600080fd5b505af4158015610c31573d6000803e3d6000fd5b505050506040513d601f19601f82011682018060405250810190610c559190612c16565b610c715760405162461bcd60e51b81526004016106ff90612c38565b428365ffffffffffff161180610c8d575065ffffffffffff8316155b610cd95760405162461bcd60e51b815260206004820152601b60248201527f50522e55503a206578706972654461746520697320706173736564000000000060448201526064016106ff565b6000868152600460209081526040808320888452909152902060018101546001600160401b03600160581b90910481169084161080610d2f575060018101546001600160401b03600160981b9091048116908316105b15610dfd57610d3c61200b565b6001600160a01b0316636ea6c824888584600101600001600b9054906101000a90046001600160401b0316610d719190612d65565b6001850154610d91908790600160981b90046001600160401b0316612d65565b6040516001600160e01b031960e086901b16815260048101939093526001600160401b039182166024840152166044820152606401600060405180830381600087803b158015610de057600080fd5b505af1158015610df4573d6000803e3d6000fd5b50505050610f03565b60018101546001600160401b03600160581b90910481169084161180610e3a575060018101546001600160401b03600160981b9091048116908316115b15610f0357610e4761200b565b6001600160a01b0316634bacf9618883600101600001600b9054906101000a90046001600160401b031686610e7c9190612d65565b6001850154610e9b90600160981b90046001600160401b031687612d65565b6040516001600160e01b031960e086901b16815260048101939093526001600160401b039182166024840152166044820152606401600060405180830381600087803b158015610eea57600080fd5b505af1158015610efe573d6000803e3d6000fd5b505050505b6040805187815264ffffffffff8716602082015265ffffffffffff8616818301526001600160401b03858116606083015284166080820152905188917fcb42e2e192e17e95d48b0c9d35abdc2e98f49986667b7e38e09925d7016afdac919081900360a00190a260405163faa738e160e01b81526004810182905264ffffffffff8616602482015265ffffffffffff851660448201526001600160401b0380851660648301528316608482015273__$d113c86820c60155271829fbf7bae741f8$__9063faa738e19060a40160006040518083038186803b158015610fe757600080fd5b505af4158015610ffb573d6000803e3d6000fd5b5050505050505050505050565b604051630f07232560e01b8152600260048201523360248201526001600160a01b038216604482015273__$364aad554dc80380f414546becdd2c1584$__90630f0723259060640160006040518083038186803b15801561106857600080fd5b505af415801561107c573d6000803e3d6000fd5b50506040516001600160a01b03841681527fe435cbeab64e4eae6497b9d8289704bd709d624a80704ef3ca9af777534bc6ec92506020019050610b9c565b604051632a3be56b60e21b815260026004820152602481018390526044810182905260009073__$364aad554dc80380f414546becdd2c1584$__9063a8ef95ac9060640160206040518083038186803b15801561111657600080fd5b505af415801561112a573d6000803e3d6000fd5b505050506040513d601f19601f8201168201806040525081019061114e9190612c16565b9392505050565b604051633b11adbf60e21b81526002600482015233602482015273__$364aad554dc80380f414546becdd2c1584$__9063ec46b6fc9060440160206040518083038186803b1580156111a657600080fd5b505af41580156111ba573d6000803e3d6000fd5b505050506040513d601f19601f820116820180604052508101906111de9190612c16565b80611283575073__$364aad554dc80380f414546becdd2c1584$__63fe2710866002611208611fb1565b6040516001600160e01b031960e085901b168152600481019290925264ffffffffff16602482015260440160206040518083038186803b15801561124b57600080fd5b505af415801561125f573d6000803e3d6000fd5b505050506040513d601f19601f820116820180604052508101906112839190612c16565b61129f5760405162461bcd60e51b81526004016106ff90612d0f565b60405163b6e38a2960e01b8152600260048201526024810182905273__$364aad554dc80380f414546becdd2c1584$__9063b6e38a299060440160006040518083038186803b1580156112f157600080fd5b505af4158015611305573d6000803e3d6000fd5b505050507f8b6f40f36b4ae8cc5f55e895036457c43da4ab1f80f58c46f5ff0d72a650033b81604051610b9c91815260200190565b60405163987ad15360e01b81526002600482015260009073__$364aad554dc80380f414546becdd2c1584$__9063987ad1539060240161042d565b61137d6121ca565b604051633b11adbf60e21b81526002600482015233602482015273__$364aad554dc80380f414546becdd2c1584$__9063ec46b6fc9060440160206040518083038186803b1580156113ce57600080fd5b505af41580156113e2573d6000803e3d6000fd5b505050506040513d601f19601f820116820180604052508101906114069190612c16565b6114225760405162461bcd60e51b81526004016106ff90612c38565b60405163942503a760e01b81526004808201526024810187905264ffffffffff8616604482015261ffff851660648201526001600160401b038085166084830152831660a482015273__$d113c86820c60155271829fbf7bae741f8$__9063942503a79060c4016101006040518083038186803b1580156114a257600080fd5b505af41580156114b6573d6000803e3d6000fd5b505050506040513d601f19601f820116820180604052508101906114da9190612cbe565b9050806000015163ffffffff167f5ffd5923812144e1210fa2797b8d4c655ded771a5601107917d4173db1e61d4182602001518786866040516115209493929190612cdb565b60405180910390a261153061200b565b8151604051634bacf96160e01b815263ffffffff90911660048201526001600160401b038086166024830152841660448201526001600160a01b039190911690634bacf96190606401600060405180830381600087803b15801561159357600080fd5b505af11580156115a7573d6000803e3d6000fd5b5050505095945050505050565b60006115be611fb1565b60405163cc0d511b60e01b8152600260048201526024810184905264ffffffffff8216604482015290915073__$364aad554dc80380f414546becdd2c1584$__9063cc0d511b9060640161056b565b61161561220e565b604051633aa65cdf60e21b81526004810183905260009073__$d113c86820c60155271829fbf7bae741f8$__9063ea99737c906024016101006040518083038186803b15801561166457600080fd5b505af4158015611678573d6000803e3d6000fd5b505050506040513d601f19601f8201168201806040525081019061169c9190612cbe565b805163ffffffff90811660009081526004602090815260408083209482015161ffff9081168452948252918290208251610160810184528154948516606080830191825264010000000087048816608080850191909152660100000000000080890490991660a085015265ffffffffffff600160401b8904811660c0860152600160701b8904811660e086015264ffffffffff600160a01b8a048116610100870152600160c81b8a04811661012087015260ff600160f01b909a04999099166101408601529284528651908101875260018501549283168152978204909616878501526001600160401b03600160581b8204811688870152600160981b909104169486019490945290830193909352600290920154918101919091529392505050565b6001546040516335d2155560e11b81523360048201526000916001600160a01b031690636ba42aaa9060240160206040518083038186803b15801561180357600080fd5b505afa158015611817573d6000803e3d6000fd5b505050506040513d601f19601f8201168201806040525081019061183b9190612c16565b61187b5760405162461bcd60e51b815260206004820152601160248201527020a19737b59d103737ba1025b2b2b832b960791b60448201526064016106ff565b604051633aa65cdf60e21b81526004810184905260009073__$d113c86820c60155271829fbf7bae741f8$__9063ea99737c906024016101006040518083038186803b1580156118ca57600080fd5b505af41580156118de573d6000803e3d6000fd5b505050506040513d601f19601f820116820180604052508101906119029190612cbe565b805163ffffffff1660009081526004602081815260408084208286015161ffff168552909152918290209151637689d68b60e01b8152929350909173__$d113c86820c60155271829fbf7bae741f8$__91637689d68b91611967918591899101612d9b565b60206040518083038186803b15801561197f57600080fd5b505af4158015611993573d6000803e3d6000fd5b505050506040513d601f19601f820116820180604052508101906119b79190612c16565b15611a9d57815160208084015160405161ffff909116815263ffffffff909216917f6ed68c4375e50d0234d7c79f94f02bd7636d96549c4162d03e16f24cc99efe1b910160405180910390a2611a0b61200b565b81546001830154604051631ba9b20960e21b815263ffffffff90921660048301526001600160401b03600160581b820481166024840152600160981b9091041660448201526001600160a01b039190911690636ea6c82490606401600060405180830381600087803b158015611a8057600080fd5b505af1158015611a94573d6000803e3d6000fd5b50505050600192505b505092915050565b611aae82612064565b611ab781612113565b604051636cdd0edf60e11b815260026004820152602481018590526001600160a01b038416604482015273__$364aad554dc80380f414546becdd2c1584$__9063d9ba1dbe9060640160006040518083038186803b158015611b1857600080fd5b505af4158015611b2c573d6000803e3d6000fd5b5050604080518781526001600160a01b038781166020830152868116828401528516606082015290517f3abb2418c66fe32ba9c883030a75ce583971d9af9192b9b74e44e67c5e6c8c1f9350908190036080019150a150505050565b604051633c3e56c160e11b81526002600482015260009073__$364aad554dc80380f414546becdd2c1584$__9063787cad829060240160206040518083038186803b158015611bd657600080fd5b505af4158015611bea573d6000803e3d6000fd5b505050506040513d601f19601f8201168201806040525081019061047d9190612df8565b604051633b11adbf60e21b81526002600482015233602482015273__$364aad554dc80380f414546becdd2c1584$__9063ec46b6fc9060440160206040518083038186803b158015611c5f57600080fd5b505af4158015611c73573d6000803e3d6000fd5b505050506040513d601f19601f82011682018060405250810190611c979190612c16565b611cb35760405162461bcd60e51b81526004016106ff90612c38565b600254600160f01b900460ff16600114611d0f5760405162461bcd60e51b815260206004820181905260248201527f41432e6f6e6c7950656e64696e673a20446f632069732066696e616c697a656460448201526064016106ff565b60405163cc99e11b60e01b815260026004820152684174746f726e65797360b81b602482015273__$364aad554dc80380f414546becdd2c1584$__9063cc99e11b9060440160006040518083038186803b158015611d6c57600080fd5b505af4158015611d80573d6000803e3d6000fd5b5050604051632725ebef60e21b8152600260048201526000602482015273__$364aad554dc80380f414546becdd2c1584$__9250639c97afbc915060440160006040518083038186803b158015611dd657600080fd5b505af4158015611dea573d6000803e3d6000fd5b50506002805460ff60f01b1916600160f11b17905550506040517f35012b512309c322acf68632cd6cb702ff0e1d776fbe9394e38ffc13b434fe7590600090a1565b611e346121ca565b604051633b11adbf60e21b81526002600482015233602482015273__$364aad554dc80380f414546becdd2c1584$__9063ec46b6fc9060440160206040518083038186803b158015611e8557600080fd5b505af4158015611e99573d6000803e3d6000fd5b505050506040513d601f19601f82011682018060405250810190611ebd9190612c16565b611ed95760405162461bcd60e51b81526004016106ff90612c38565b6040516321e02d1960e21b815273__$d113c86820c60155271829fbf7bae741f8$__90638780b46490611f1a906004908a908a908a908a908a908601612e15565b6101006040518083038186803b158015611f3357600080fd5b505af4158015611f47573d6000803e3d6000fd5b505050506040513d601f19601f82011682018060405250810190611f6b9190612cbe565b9050856000015163ffffffff167f5ffd5923812144e1210fa2797b8d4c655ded771a5601107917d4173db1e61d4187602001518786866040516115209493929190612cdb565b60008054604051634de835e760e11b81523360048201526001600160a01b0390911690639bd06bce90602401602060405180830381600087803b158015611ff757600080fd5b505af1158015610459573d6000803e3d6000fd5b60015460405163e0ff5b8b60e01b8152600660048201526000916001600160a01b03169063e0ff5b8b9060240160206040518083038186803b15801561205057600080fd5b505afa158015611bea573d6000803e3d6000fd5b6000546001600160a01b0316156120b55760405162461bcd60e51b815260206004820152601560248201527430b63932b0b23c9039b2ba103932b3a1b2b73a32b960591b60448201526064016106ff565b6040516001600160a01b03821681527f318da6c7624c71cbc0afe346c9d8827f119d0ecefb241a7b0c87217a076a8e029060200160405180910390a1600080546001600160a01b0319166001600160a01b0392909216919091179055565b6001546001600160a01b03161561216c5760405162461bcd60e51b815260206004820152601960248201527f616c7265616479207365742067656e6572616c4b65657065720000000000000060448201526064016106ff565b6040516001600160a01b03821681527fe513d3e0f0d0a3877029dcc588748679a7a3450ec1ec7ed56d96bd012c3e61aa9060200160405180910390a1600180546001600160a01b0319166001600160a01b0392909216919091179055565b6040805161010081018252600080825260208201819052918101829052606081018290526080810182905260a0810182905260c0810182905260e081019190915290565b60405180606001604052806122216121ca565b8152604080516080810182526000808252602082810182905292820181905260608201529101908152600060209091015290565b6020808252825182820181905260009190848201906040850190845b8181101561228d57835183529284019291840191600101612271565b50909695505050505050565b600080604083850312156122ac57600080fd5b50508035926020909101359150565b6000602082840312156122cd57600080fd5b5035919050565b63ffffffff8151168252602081015161ffff80821660208501528060408401511660408501525050606081015165ffffffffffff8082166060850152806080840151166080850152505064ffffffffff60a08201511660a083015260c081015161234760c084018264ffffffffff169052565b5060e081015161235c60e084018260ff169052565b505050565b65ffffffffffff815116825264ffffffffff602082015116602083015260408101516001600160401b03808216604085015280606084015116606085015250505050565b6123b08282516122d4565b60208101516123c3610100840182612361565b50604001516101809190910152565b6020808252825182820181905260009190848201906040850190845b8181101561228d576124018385516123a5565b928401926101a092909201916001016123ee565b634e487b7160e01b600052604160045260246000fd5b60405161010081016001600160401b038111828210171561244e5761244e612415565b60405290565b604051606081016001600160401b038111828210171561244e5761244e612415565b604051608081016001600160401b038111828210171561244e5761244e612415565b604051601f8201601f191681016001600160401b03811182821017156124c0576124c0612415565b604052919050565b63ffffffff811681146124da57600080fd5b50565b61ffff811681146124da57600080fd5b80356124f8816124dd565b919050565b65ffffffffffff811681146124da57600080fd5b80356124f8816124fd565b64ffffffffff811681146124da57600080fd5b80356124f88161251c565b60ff811681146124da57600080fd5b80356124f88161253a565b6000610100828403121561256757600080fd5b61256f61242b565b9050813561257c816124c8565b8152602082013561258c816124dd565b602082015261259d604083016124ed565b60408201526125ae60608301612511565b60608201526125bf60808301612511565b60808201526125d060a0830161252f565b60a08201526125e160c0830161252f565b60c08201526125f260e08301612549565b60e082015292915050565b6001600160401b03811681146124da57600080fd5b60008183036101a081121561262657600080fd5b61262e612454565b6126388585612554565b8152608060ff198301121561264c57600080fd5b612654612476565b9150610100840135612665816124fd565b82526101208401356126768161251c565b602083015261014084013561268a816125fd565b604083015261016084013561269e816125fd565b606083015260208101919091526101809290920135604083015250919050565b610100810161065482846122d4565b60008060008060008060c087890312156126e657600080fd5b863595506020870135945060408701356126ff8161251c565b9350606087013561270f816124fd565b9250608087013561271f816125fd565b915060a087013561272f816125fd565b809150509295509295509295565b6001600160a01b03811681146124da57600080fd5b60006020828403121561276457600080fd5b813561114e8161273d565b600080600080600060a0868803121561278757600080fd5b8535945060208601356127998161251c565b935060408601356127a9816124dd565b925060608601356127b9816125fd565b915060808601356127c9816125fd565b809150509295509295909350565b6101a0810161065482846123a5565b600080604083850312156127f957600080fd5b823591506020808401356001600160401b038082111561281857600080fd5b818601915086601f83011261282c57600080fd5b81358181111561283e5761283e612415565b612850601f8201601f19168501612498565b9150808252878482850101111561286657600080fd5b80848401858401376000848284010152508093505050509250929050565b6000806000806080858703121561289a57600080fd5b8435935060208501356128ac8161273d565b925060408501356128bc8161273d565b915060608501356128cc8161273d565b939692955090935050565b600080600080600061018086880312156128f057600080fd5b6128fa8787612554565b945061010086013561290b8161251c565b935061012086013561291c816124dd565b925061014086013561292d816125fd565b91506101608601356127c9816125fd565b80516124f88161251c565b60006020828403121561295b57600080fd5b815161114e8161251c565b60006001600160401b0382111561297f5761297f612415565b5060051b60200190565b6000602080838503121561299c57600080fd5b82516001600160401b038111156129b257600080fd5b8301601f810185136129c357600080fd5b80516129d66129d182612966565b612498565b81815260059190911b820183019083810190878311156129f557600080fd5b928401925b82841015612a13578351825292840192908401906129fa565b979650505050505050565b80516124f8816124dd565b80516124f8816124fd565b80516124f88161253a565b60006101008284031215612a5257600080fd5b612a5a61242b565b90508151612a67816124c8565b81526020820151612a77816124dd565b6020820152612a8860408301612a1e565b6040820152612a9960608301612a29565b6060820152612aaa60808301612a29565b6080820152612abb60a0830161293e565b60a0820152612acc60c0830161293e565b60c08201526125f260e08301612a34565b60006020808385031215612af057600080fd5b82516001600160401b03811115612b0657600080fd5b8301601f81018513612b1757600080fd5b8051612b256129d182612966565b8181526101a09182028301840191848201919088841115612b4557600080fd5b938501935b83851015612c0a5784890381811215612b635760008081fd5b612b6b612454565b612b758b88612a3f565b8152608060ff1983011215612b8a5760008081fd5b612b92612476565b9150610100870151612ba3816124fd565b8252610120870151612bb48161251c565b82890152610140870151612bc7816125fd565b604081818501526101608901519150612bdf826125fd565b816060850152838a840152610180890151818401525050808552505085830192508085019450612b4a565b50979650505050505050565b600060208284031215612c2857600080fd5b8151801515811461114e57600080fd5b60208082526026908201527f41432e6f6e6c794469726563744b65657065723a206e6f74206469726563742060408201526535b2b2b832b960d11b606082015260800190565b60006101c082019050838252612c986020830184516122d4565b6020830151612cab610120840182612361565b5060408301516101a08301529392505050565b60006101008284031215612cd157600080fd5b61114e8383612a3f565b61ffff94909416845264ffffffffff9290921660208401526001600160401b03908116604084015216606082015260800190565b60208082526036908201527f41432e6f776e65724f72446972656374426f6f6b65657065723a206e6569746860408201527532b91037bbb732b9103737b9103137b7b5b2b2b832b960511b606082015260800190565b60006001600160401b0383811690831681811015612d9357634e487b7160e01b600052601160045260246000fd5b039392505050565b82815260006020604081840152835180604085015260005b81811015612dcf57858101830151858201606001528201612db3565b81811115612de1576000606083870101525b50601f01601f191692909201606001949350505050565b600060208284031215612e0a57600080fd5b815161114e8161273d565b8681526101a08101612e2a60208301886122d4565b64ffffffffff9590951661012082015261ffff939093166101408401526001600160401b0391821661016084015216610180909101529291505056fea2646970667358221220ade17bbe0b24ba81dc0c17fef0c48adfbe58f22ae4b27f61362a69e3c4a765d564736f6c63430008080033",
    "sourcePath": "/Users/kaptain/github.com/hardhat/comboox/contracts/books/bop/BookOfPledges.sol",
    "compiler": {
        "name": "solc",
        "version": "0.8.8+commit.dddeac2f"
    },
    "functionHashes": {
        "abandonRole(bytes32)": "3da9a600",
        "counterOfPledges(uint256)": "2d5562ca",
        "createPledge(uint256,uint40,uint16,uint64,uint64)": "8b74a519",
        "finalized()": "b3f05b97",
        "getBookeeper()": "ed211023",
        "getGeneralCounsel()": "103f6edd",
        "getOwner()": "893d20e8",
        "getPledge(uint256)": "90c4ce52",
        "getPledgesOfShare(uint256)": "2e667364",
        "getSnList()": "1370f8b5",
        "grantRole(bytes32,uint256)": "1b6ea9f9",
        "hasRole(bytes32,uint256)": "7e063c5a",
        "init(uint256,address,address,address)": "dc890da9",
        "isPledge(uint256,uint256)": "5690364b",
        "issuePledge((uint32,uint16,uint16,uint48,uint48,uint40,uint40,uint8),uint40,uint16,uint64,uint64)": "f5e3e66a",
        "lockContents()": "f045a769",
        "regPledge(((uint32,uint16,uint16,uint48,uint48,uint40,uint40,uint8),(uint48,uint40,uint64,uint64),bytes32))": "425358a0",
        "releasePledge(uint256,string)": "c5331c9e",
        "renounceRole(bytes32)": "8bb9c5bf",
        "revokeRole(bytes32,uint256)": "19d61ad9",
        "setDirectKeeper(address)": "6be8496f",
        "setGeneralCounsel(uint256)": "4a14beb1",
        "setOwner(uint256)": "8041494e",
        "setRoleAdmin(bytes32,uint256)": "5171ebd4",
        "updatePledge(uint256,uint256,uint40,uint48,uint64,uint64)": "5e9bd717"
    },
    "gasEstimates": {
        "creation": {
            "codeDepositCost": "2386400",
            "executionCost": "2560",
            "totalCost": "2388960"
        },
        "external": {
            "abandonRole(bytes32)": "infinite",
            "counterOfPledges(uint256)": "2648",
            "createPledge(uint256,uint40,uint16,uint64,uint64)": "infinite",
            "finalized()": "2394",
            "getBookeeper()": "infinite",
            "getGeneralCounsel()": "infinite",
            "getOwner()": "infinite",
            "getPledge(uint256)": "infinite",
            "getPledgesOfShare(uint256)": "infinite",
            "getSnList()": "infinite",
            "grantRole(bytes32,uint256)": "infinite",
            "hasRole(bytes32,uint256)": "infinite",
            "init(uint256,address,address,address)": "infinite",
            "isPledge(uint256,uint256)": "2679",
            "issuePledge((uint32,uint16,uint16,uint48,uint48,uint40,uint40,uint8),uint40,uint16,uint64,uint64)": "infinite",
            "lockContents()": "infinite",
            "regPledge(((uint32,uint16,uint16,uint48,uint48,uint40,uint40,uint8),(uint48,uint40,uint64,uint64),bytes32))": "infinite",
            "releasePledge(uint256,string)": "infinite",
            "renounceRole(bytes32)": "infinite",
            "revokeRole(bytes32,uint256)": "infinite",
            "setDirectKeeper(address)": "infinite",
            "setGeneralCounsel(uint256)": "infinite",
            "setOwner(uint256)": "infinite",
            "setRoleAdmin(bytes32,uint256)": "infinite",
            "updatePledge(uint256,uint256,uint40,uint48,uint64,uint64)": "infinite"
        }
    }
}