{
    "contractName": "BookOfPledges",
    "abi": [
        {
            "anonymous": false,
            "inputs": [
                {
                    "indexed": true,
                    "internalType": "uint256",
                    "name": "seqOfShare",
                    "type": "uint256"
                },
                {
                    "indexed": true,
                    "internalType": "uint256",
                    "name": "seqOfPld",
                    "type": "uint256"
                },
                {
                    "indexed": false,
                    "internalType": "uint256",
                    "name": "creditor",
                    "type": "uint256"
                },
                {
                    "indexed": true,
                    "internalType": "uint256",
                    "name": "paid",
                    "type": "uint256"
                },
                {
                    "indexed": false,
                    "internalType": "uint256",
                    "name": "par",
                    "type": "uint256"
                }
            ],
            "name": "CreatePledge",
            "type": "event"
        },
        {
            "anonymous": false,
            "inputs": [
                {
                    "indexed": true,
                    "internalType": "uint256",
                    "name": "seqOfShare",
                    "type": "uint256"
                },
                {
                    "indexed": true,
                    "internalType": "uint256",
                    "name": "seqOfPld",
                    "type": "uint256"
                }
            ],
            "name": "ExecPledge",
            "type": "event"
        },
        {
            "anonymous": false,
            "inputs": [
                {
                    "indexed": true,
                    "internalType": "uint256",
                    "name": "seqOfShare",
                    "type": "uint256"
                },
                {
                    "indexed": true,
                    "internalType": "uint256",
                    "name": "seqOfPld",
                    "type": "uint256"
                },
                {
                    "indexed": true,
                    "internalType": "uint256",
                    "name": "extDays",
                    "type": "uint256"
                }
            ],
            "name": "ExtendPledge",
            "type": "event"
        },
        {
            "anonymous": false,
            "inputs": [
                {
                    "indexed": true,
                    "internalType": "uint256",
                    "name": "owner",
                    "type": "uint256"
                },
                {
                    "indexed": true,
                    "internalType": "address",
                    "name": "directKeeper",
                    "type": "address"
                },
                {
                    "indexed": false,
                    "internalType": "address",
                    "name": "regCenter",
                    "type": "address"
                },
                {
                    "indexed": true,
                    "internalType": "address",
                    "name": "generalKeeper",
                    "type": "address"
                }
            ],
            "name": "Init",
            "type": "event"
        },
        {
            "anonymous": false,
            "inputs": [],
            "name": "LockContents",
            "type": "event"
        },
        {
            "anonymous": false,
            "inputs": [
                {
                    "indexed": true,
                    "internalType": "uint256",
                    "name": "seqOfShare",
                    "type": "uint256"
                },
                {
                    "indexed": true,
                    "internalType": "uint256",
                    "name": "seqOfPld",
                    "type": "uint256"
                },
                {
                    "indexed": true,
                    "internalType": "bytes32",
                    "name": "hashLock",
                    "type": "bytes32"
                }
            ],
            "name": "LockPledge",
            "type": "event"
        },
        {
            "anonymous": false,
            "inputs": [
                {
                    "indexed": true,
                    "internalType": "uint256",
                    "name": "seqOfShare",
                    "type": "uint256"
                },
                {
                    "indexed": true,
                    "internalType": "uint256",
                    "name": "seqOfPld",
                    "type": "uint256"
                },
                {
                    "indexed": true,
                    "internalType": "uint256",
                    "name": "refundAmt",
                    "type": "uint256"
                }
            ],
            "name": "RefundDebt",
            "type": "event"
        },
        {
            "anonymous": false,
            "inputs": [
                {
                    "indexed": true,
                    "internalType": "uint256",
                    "name": "seqOfShare",
                    "type": "uint256"
                },
                {
                    "indexed": true,
                    "internalType": "uint256",
                    "name": "seqOfPld",
                    "type": "uint256"
                },
                {
                    "indexed": true,
                    "internalType": "string",
                    "name": "hashKey",
                    "type": "string"
                }
            ],
            "name": "ReleasePledge",
            "type": "event"
        },
        {
            "anonymous": false,
            "inputs": [
                {
                    "indexed": true,
                    "internalType": "address",
                    "name": "target",
                    "type": "address"
                }
            ],
            "name": "RemoveDirectKeeper",
            "type": "event"
        },
        {
            "anonymous": false,
            "inputs": [
                {
                    "indexed": true,
                    "internalType": "uint256",
                    "name": "seqOfShare",
                    "type": "uint256"
                },
                {
                    "indexed": true,
                    "internalType": "uint256",
                    "name": "seqOfPld",
                    "type": "uint256"
                }
            ],
            "name": "RevokePledge",
            "type": "event"
        },
        {
            "anonymous": false,
            "inputs": [
                {
                    "indexed": true,
                    "internalType": "address",
                    "name": "keeper",
                    "type": "address"
                }
            ],
            "name": "SetDirectKeeper",
            "type": "event"
        },
        {
            "anonymous": false,
            "inputs": [
                {
                    "indexed": true,
                    "internalType": "uint256",
                    "name": "acct",
                    "type": "uint256"
                }
            ],
            "name": "SetGeneralCounsel",
            "type": "event"
        },
        {
            "anonymous": false,
            "inputs": [
                {
                    "indexed": true,
                    "internalType": "uint256",
                    "name": "acct",
                    "type": "uint256"
                }
            ],
            "name": "SetOwner",
            "type": "event"
        },
        {
            "anonymous": false,
            "inputs": [
                {
                    "indexed": true,
                    "internalType": "uint256",
                    "name": "seqOfShare",
                    "type": "uint256"
                },
                {
                    "indexed": true,
                    "internalType": "uint256",
                    "name": "seqOfPld",
                    "type": "uint256"
                },
                {
                    "indexed": true,
                    "internalType": "uint256",
                    "name": "newSeqOfPld",
                    "type": "uint256"
                },
                {
                    "indexed": false,
                    "internalType": "uint256",
                    "name": "buyer",
                    "type": "uint256"
                },
                {
                    "indexed": false,
                    "internalType": "uint256",
                    "name": "paid",
                    "type": "uint256"
                },
                {
                    "indexed": false,
                    "internalType": "uint256",
                    "name": "par",
                    "type": "uint256"
                }
            ],
            "name": "TransferPledge",
            "type": "event"
        },
        {
            "inputs": [
                {
                    "internalType": "bytes32",
                    "name": "role",
                    "type": "bytes32"
                }
            ],
            "name": "abandonRole",
            "outputs": [],
            "stateMutability": "nonpayable",
            "type": "function"
        },
        {
            "inputs": [
                {
                    "internalType": "uint256",
                    "name": "seqOfShare",
                    "type": "uint256"
                }
            ],
            "name": "counterOfPledges",
            "outputs": [
                {
                    "internalType": "uint16",
                    "name": "",
                    "type": "uint16"
                }
            ],
            "stateMutability": "view",
            "type": "function"
        },
        {
            "inputs": [
                {
                    "internalType": "bytes32",
                    "name": "snOfPld",
                    "type": "bytes32"
                },
                {
                    "internalType": "uint256",
                    "name": "creditor",
                    "type": "uint256"
                },
                {
                    "internalType": "uint256",
                    "name": "guaranteeDays",
                    "type": "uint256"
                },
                {
                    "internalType": "uint256",
                    "name": "paid",
                    "type": "uint256"
                },
                {
                    "internalType": "uint256",
                    "name": "par",
                    "type": "uint256"
                },
                {
                    "internalType": "uint256",
                    "name": "guaranteedAmt",
                    "type": "uint256"
                }
            ],
            "name": "createPledge",
            "outputs": [
                {
                    "components": [
                        {
                            "internalType": "uint32",
                            "name": "seqOfShare",
                            "type": "uint32"
                        },
                        {
                            "internalType": "uint16",
                            "name": "seqOfPld",
                            "type": "uint16"
                        },
                        {
                            "internalType": "uint48",
                            "name": "createDate",
                            "type": "uint48"
                        },
                        {
                            "internalType": "uint48",
                            "name": "triggerDate",
                            "type": "uint48"
                        },
                        {
                            "internalType": "uint40",
                            "name": "pledgor",
                            "type": "uint40"
                        },
                        {
                            "internalType": "uint40",
                            "name": "debtor",
                            "type": "uint40"
                        },
                        {
                            "internalType": "uint32",
                            "name": "data",
                            "type": "uint32"
                        }
                    ],
                    "internalType": "struct PledgesRepo.Head",
                    "name": "head",
                    "type": "tuple"
                }
            ],
            "stateMutability": "nonpayable",
            "type": "function"
        },
        {
            "inputs": [
                {
                    "internalType": "uint256",
                    "name": "seqOfShare",
                    "type": "uint256"
                },
                {
                    "internalType": "uint256",
                    "name": "seqOfPld",
                    "type": "uint256"
                }
            ],
            "name": "execPledge",
            "outputs": [
                {
                    "internalType": "bool",
                    "name": "flag",
                    "type": "bool"
                }
            ],
            "stateMutability": "nonpayable",
            "type": "function"
        },
        {
            "inputs": [
                {
                    "internalType": "uint256",
                    "name": "seqOfShare",
                    "type": "uint256"
                },
                {
                    "internalType": "uint256",
                    "name": "seqOfPld",
                    "type": "uint256"
                },
                {
                    "internalType": "uint256",
                    "name": "extDays",
                    "type": "uint256"
                }
            ],
            "name": "extendPledge",
            "outputs": [],
            "stateMutability": "nonpayable",
            "type": "function"
        },
        {
            "inputs": [],
            "name": "finalized",
            "outputs": [
                {
                    "internalType": "bool",
                    "name": "",
                    "type": "bool"
                }
            ],
            "stateMutability": "view",
            "type": "function"
        },
        {
            "inputs": [],
            "name": "getBookeeper",
            "outputs": [
                {
                    "internalType": "address",
                    "name": "",
                    "type": "address"
                }
            ],
            "stateMutability": "view",
            "type": "function"
        },
        {
            "inputs": [],
            "name": "getGeneralCounsel",
            "outputs": [
                {
                    "internalType": "uint40",
                    "name": "",
                    "type": "uint40"
                }
            ],
            "stateMutability": "view",
            "type": "function"
        },
        {
            "inputs": [],
            "name": "getOwner",
            "outputs": [
                {
                    "internalType": "uint40",
                    "name": "",
                    "type": "uint40"
                }
            ],
            "stateMutability": "view",
            "type": "function"
        },
        {
            "inputs": [
                {
                    "internalType": "uint256",
                    "name": "seqOfShare",
                    "type": "uint256"
                },
                {
                    "internalType": "uint256",
                    "name": "seqOfPld",
                    "type": "uint256"
                }
            ],
            "name": "getPledge",
            "outputs": [
                {
                    "components": [
                        {
                            "components": [
                                {
                                    "internalType": "uint32",
                                    "name": "seqOfShare",
                                    "type": "uint32"
                                },
                                {
                                    "internalType": "uint16",
                                    "name": "seqOfPld",
                                    "type": "uint16"
                                },
                                {
                                    "internalType": "uint48",
                                    "name": "createDate",
                                    "type": "uint48"
                                },
                                {
                                    "internalType": "uint48",
                                    "name": "triggerDate",
                                    "type": "uint48"
                                },
                                {
                                    "internalType": "uint40",
                                    "name": "pledgor",
                                    "type": "uint40"
                                },
                                {
                                    "internalType": "uint40",
                                    "name": "debtor",
                                    "type": "uint40"
                                },
                                {
                                    "internalType": "uint32",
                                    "name": "data",
                                    "type": "uint32"
                                }
                            ],
                            "internalType": "struct PledgesRepo.Head",
                            "name": "head",
                            "type": "tuple"
                        },
                        {
                            "components": [
                                {
                                    "internalType": "uint40",
                                    "name": "creditor",
                                    "type": "uint40"
                                },
                                {
                                    "internalType": "uint16",
                                    "name": "guaranteeDays",
                                    "type": "uint16"
                                },
                                {
                                    "internalType": "uint64",
                                    "name": "paid",
                                    "type": "uint64"
                                },
                                {
                                    "internalType": "uint64",
                                    "name": "par",
                                    "type": "uint64"
                                },
                                {
                                    "internalType": "uint64",
                                    "name": "guaranteedAmt",
                                    "type": "uint64"
                                },
                                {
                                    "internalType": "uint8",
                                    "name": "state",
                                    "type": "uint8"
                                }
                            ],
                            "internalType": "struct PledgesRepo.Body",
                            "name": "body",
                            "type": "tuple"
                        },
                        {
                            "internalType": "bytes32",
                            "name": "hashLock",
                            "type": "bytes32"
                        }
                    ],
                    "internalType": "struct PledgesRepo.Pledge",
                    "name": "",
                    "type": "tuple"
                }
            ],
            "stateMutability": "view",
            "type": "function"
        },
        {
            "inputs": [
                {
                    "internalType": "uint256",
                    "name": "seqOfShare",
                    "type": "uint256"
                }
            ],
            "name": "getPledgesOfShare",
            "outputs": [
                {
                    "components": [
                        {
                            "components": [
                                {
                                    "internalType": "uint32",
                                    "name": "seqOfShare",
                                    "type": "uint32"
                                },
                                {
                                    "internalType": "uint16",
                                    "name": "seqOfPld",
                                    "type": "uint16"
                                },
                                {
                                    "internalType": "uint48",
                                    "name": "createDate",
                                    "type": "uint48"
                                },
                                {
                                    "internalType": "uint48",
                                    "name": "triggerDate",
                                    "type": "uint48"
                                },
                                {
                                    "internalType": "uint40",
                                    "name": "pledgor",
                                    "type": "uint40"
                                },
                                {
                                    "internalType": "uint40",
                                    "name": "debtor",
                                    "type": "uint40"
                                },
                                {
                                    "internalType": "uint32",
                                    "name": "data",
                                    "type": "uint32"
                                }
                            ],
                            "internalType": "struct PledgesRepo.Head",
                            "name": "head",
                            "type": "tuple"
                        },
                        {
                            "components": [
                                {
                                    "internalType": "uint40",
                                    "name": "creditor",
                                    "type": "uint40"
                                },
                                {
                                    "internalType": "uint16",
                                    "name": "guaranteeDays",
                                    "type": "uint16"
                                },
                                {
                                    "internalType": "uint64",
                                    "name": "paid",
                                    "type": "uint64"
                                },
                                {
                                    "internalType": "uint64",
                                    "name": "par",
                                    "type": "uint64"
                                },
                                {
                                    "internalType": "uint64",
                                    "name": "guaranteedAmt",
                                    "type": "uint64"
                                },
                                {
                                    "internalType": "uint8",
                                    "name": "state",
                                    "type": "uint8"
                                }
                            ],
                            "internalType": "struct PledgesRepo.Body",
                            "name": "body",
                            "type": "tuple"
                        },
                        {
                            "internalType": "bytes32",
                            "name": "hashLock",
                            "type": "bytes32"
                        }
                    ],
                    "internalType": "struct PledgesRepo.Pledge[]",
                    "name": "",
                    "type": "tuple[]"
                }
            ],
            "stateMutability": "view",
            "type": "function"
        },
        {
            "inputs": [],
            "name": "getSNList",
            "outputs": [
                {
                    "internalType": "bytes32[]",
                    "name": "",
                    "type": "bytes32[]"
                }
            ],
            "stateMutability": "view",
            "type": "function"
        },
        {
            "inputs": [
                {
                    "internalType": "bytes32",
                    "name": "role",
                    "type": "bytes32"
                },
                {
                    "internalType": "uint256",
                    "name": "acct",
                    "type": "uint256"
                }
            ],
            "name": "grantRole",
            "outputs": [],
            "stateMutability": "nonpayable",
            "type": "function"
        },
        {
            "inputs": [
                {
                    "internalType": "bytes32",
                    "name": "role",
                    "type": "bytes32"
                },
                {
                    "internalType": "uint256",
                    "name": "acct",
                    "type": "uint256"
                }
            ],
            "name": "hasRole",
            "outputs": [
                {
                    "internalType": "bool",
                    "name": "",
                    "type": "bool"
                }
            ],
            "stateMutability": "view",
            "type": "function"
        },
        {
            "inputs": [
                {
                    "internalType": "uint256",
                    "name": "owner",
                    "type": "uint256"
                },
                {
                    "internalType": "address",
                    "name": "directKeeper",
                    "type": "address"
                },
                {
                    "internalType": "address",
                    "name": "regCenter",
                    "type": "address"
                },
                {
                    "internalType": "address",
                    "name": "generalKeeper",
                    "type": "address"
                }
            ],
            "name": "init",
            "outputs": [],
            "stateMutability": "nonpayable",
            "type": "function"
        },
        {
            "inputs": [
                {
                    "internalType": "uint256",
                    "name": "seqOfShare",
                    "type": "uint256"
                },
                {
                    "internalType": "uint256",
                    "name": "seqOfPledge",
                    "type": "uint256"
                }
            ],
            "name": "isPledge",
            "outputs": [
                {
                    "internalType": "bool",
                    "name": "",
                    "type": "bool"
                }
            ],
            "stateMutability": "view",
            "type": "function"
        },
        {
            "inputs": [
                {
                    "components": [
                        {
                            "internalType": "uint32",
                            "name": "seqOfShare",
                            "type": "uint32"
                        },
                        {
                            "internalType": "uint16",
                            "name": "seqOfPld",
                            "type": "uint16"
                        },
                        {
                            "internalType": "uint48",
                            "name": "createDate",
                            "type": "uint48"
                        },
                        {
                            "internalType": "uint48",
                            "name": "triggerDate",
                            "type": "uint48"
                        },
                        {
                            "internalType": "uint40",
                            "name": "pledgor",
                            "type": "uint40"
                        },
                        {
                            "internalType": "uint40",
                            "name": "debtor",
                            "type": "uint40"
                        },
                        {
                            "internalType": "uint32",
                            "name": "data",
                            "type": "uint32"
                        }
                    ],
                    "internalType": "struct PledgesRepo.Head",
                    "name": "head",
                    "type": "tuple"
                },
                {
                    "internalType": "uint256",
                    "name": "creditor",
                    "type": "uint256"
                },
                {
                    "internalType": "uint256",
                    "name": "guaranteeDays",
                    "type": "uint256"
                },
                {
                    "internalType": "uint256",
                    "name": "paid",
                    "type": "uint256"
                },
                {
                    "internalType": "uint256",
                    "name": "par",
                    "type": "uint256"
                },
                {
                    "internalType": "uint256",
                    "name": "guaranteedAmt",
                    "type": "uint256"
                }
            ],
            "name": "issuePledge",
            "outputs": [
                {
                    "components": [
                        {
                            "internalType": "uint32",
                            "name": "seqOfShare",
                            "type": "uint32"
                        },
                        {
                            "internalType": "uint16",
                            "name": "seqOfPld",
                            "type": "uint16"
                        },
                        {
                            "internalType": "uint48",
                            "name": "createDate",
                            "type": "uint48"
                        },
                        {
                            "internalType": "uint48",
                            "name": "triggerDate",
                            "type": "uint48"
                        },
                        {
                            "internalType": "uint40",
                            "name": "pledgor",
                            "type": "uint40"
                        },
                        {
                            "internalType": "uint40",
                            "name": "debtor",
                            "type": "uint40"
                        },
                        {
                            "internalType": "uint32",
                            "name": "data",
                            "type": "uint32"
                        }
                    ],
                    "internalType": "struct PledgesRepo.Head",
                    "name": "regHead",
                    "type": "tuple"
                }
            ],
            "stateMutability": "nonpayable",
            "type": "function"
        },
        {
            "inputs": [],
            "name": "lockContents",
            "outputs": [],
            "stateMutability": "nonpayable",
            "type": "function"
        },
        {
            "inputs": [
                {
                    "internalType": "uint256",
                    "name": "seqOfShare",
                    "type": "uint256"
                },
                {
                    "internalType": "uint256",
                    "name": "seqOfPld",
                    "type": "uint256"
                },
                {
                    "internalType": "bytes32",
                    "name": "hashLock",
                    "type": "bytes32"
                }
            ],
            "name": "lockPledge",
            "outputs": [
                {
                    "internalType": "bool",
                    "name": "flag",
                    "type": "bool"
                }
            ],
            "stateMutability": "nonpayable",
            "type": "function"
        },
        {
            "inputs": [
                {
                    "internalType": "uint256",
                    "name": "seqOfShare",
                    "type": "uint256"
                },
                {
                    "internalType": "uint256",
                    "name": "seqOfPld",
                    "type": "uint256"
                },
                {
                    "internalType": "uint256",
                    "name": "amt",
                    "type": "uint256"
                }
            ],
            "name": "refundDebt",
            "outputs": [
                {
                    "components": [
                        {
                            "components": [
                                {
                                    "internalType": "uint32",
                                    "name": "seqOfShare",
                                    "type": "uint32"
                                },
                                {
                                    "internalType": "uint16",
                                    "name": "seqOfPld",
                                    "type": "uint16"
                                },
                                {
                                    "internalType": "uint48",
                                    "name": "createDate",
                                    "type": "uint48"
                                },
                                {
                                    "internalType": "uint48",
                                    "name": "triggerDate",
                                    "type": "uint48"
                                },
                                {
                                    "internalType": "uint40",
                                    "name": "pledgor",
                                    "type": "uint40"
                                },
                                {
                                    "internalType": "uint40",
                                    "name": "debtor",
                                    "type": "uint40"
                                },
                                {
                                    "internalType": "uint32",
                                    "name": "data",
                                    "type": "uint32"
                                }
                            ],
                            "internalType": "struct PledgesRepo.Head",
                            "name": "head",
                            "type": "tuple"
                        },
                        {
                            "components": [
                                {
                                    "internalType": "uint40",
                                    "name": "creditor",
                                    "type": "uint40"
                                },
                                {
                                    "internalType": "uint16",
                                    "name": "guaranteeDays",
                                    "type": "uint16"
                                },
                                {
                                    "internalType": "uint64",
                                    "name": "paid",
                                    "type": "uint64"
                                },
                                {
                                    "internalType": "uint64",
                                    "name": "par",
                                    "type": "uint64"
                                },
                                {
                                    "internalType": "uint64",
                                    "name": "guaranteedAmt",
                                    "type": "uint64"
                                },
                                {
                                    "internalType": "uint8",
                                    "name": "state",
                                    "type": "uint8"
                                }
                            ],
                            "internalType": "struct PledgesRepo.Body",
                            "name": "body",
                            "type": "tuple"
                        },
                        {
                            "internalType": "bytes32",
                            "name": "hashLock",
                            "type": "bytes32"
                        }
                    ],
                    "internalType": "struct PledgesRepo.Pledge",
                    "name": "newPld",
                    "type": "tuple"
                }
            ],
            "stateMutability": "nonpayable",
            "type": "function"
        },
        {
            "inputs": [
                {
                    "components": [
                        {
                            "components": [
                                {
                                    "internalType": "uint32",
                                    "name": "seqOfShare",
                                    "type": "uint32"
                                },
                                {
                                    "internalType": "uint16",
                                    "name": "seqOfPld",
                                    "type": "uint16"
                                },
                                {
                                    "internalType": "uint48",
                                    "name": "createDate",
                                    "type": "uint48"
                                },
                                {
                                    "internalType": "uint48",
                                    "name": "triggerDate",
                                    "type": "uint48"
                                },
                                {
                                    "internalType": "uint40",
                                    "name": "pledgor",
                                    "type": "uint40"
                                },
                                {
                                    "internalType": "uint40",
                                    "name": "debtor",
                                    "type": "uint40"
                                },
                                {
                                    "internalType": "uint32",
                                    "name": "data",
                                    "type": "uint32"
                                }
                            ],
                            "internalType": "struct PledgesRepo.Head",
                            "name": "head",
                            "type": "tuple"
                        },
                        {
                            "components": [
                                {
                                    "internalType": "uint40",
                                    "name": "creditor",
                                    "type": "uint40"
                                },
                                {
                                    "internalType": "uint16",
                                    "name": "guaranteeDays",
                                    "type": "uint16"
                                },
                                {
                                    "internalType": "uint64",
                                    "name": "paid",
                                    "type": "uint64"
                                },
                                {
                                    "internalType": "uint64",
                                    "name": "par",
                                    "type": "uint64"
                                },
                                {
                                    "internalType": "uint64",
                                    "name": "guaranteedAmt",
                                    "type": "uint64"
                                },
                                {
                                    "internalType": "uint8",
                                    "name": "state",
                                    "type": "uint8"
                                }
                            ],
                            "internalType": "struct PledgesRepo.Body",
                            "name": "body",
                            "type": "tuple"
                        },
                        {
                            "internalType": "bytes32",
                            "name": "hashLock",
                            "type": "bytes32"
                        }
                    ],
                    "internalType": "struct PledgesRepo.Pledge",
                    "name": "pld",
                    "type": "tuple"
                }
            ],
            "name": "regPledge",
            "outputs": [
                {
                    "components": [
                        {
                            "internalType": "uint32",
                            "name": "seqOfShare",
                            "type": "uint32"
                        },
                        {
                            "internalType": "uint16",
                            "name": "seqOfPld",
                            "type": "uint16"
                        },
                        {
                            "internalType": "uint48",
                            "name": "createDate",
                            "type": "uint48"
                        },
                        {
                            "internalType": "uint48",
                            "name": "triggerDate",
                            "type": "uint48"
                        },
                        {
                            "internalType": "uint40",
                            "name": "pledgor",
                            "type": "uint40"
                        },
                        {
                            "internalType": "uint40",
                            "name": "debtor",
                            "type": "uint40"
                        },
                        {
                            "internalType": "uint32",
                            "name": "data",
                            "type": "uint32"
                        }
                    ],
                    "internalType": "struct PledgesRepo.Head",
                    "name": "head",
                    "type": "tuple"
                }
            ],
            "stateMutability": "nonpayable",
            "type": "function"
        },
        {
            "inputs": [
                {
                    "internalType": "uint256",
                    "name": "seqOfShare",
                    "type": "uint256"
                },
                {
                    "internalType": "uint256",
                    "name": "seqOfPld",
                    "type": "uint256"
                },
                {
                    "internalType": "string",
                    "name": "hashKey",
                    "type": "string"
                }
            ],
            "name": "releasePledge",
            "outputs": [
                {
                    "internalType": "bool",
                    "name": "flag",
                    "type": "bool"
                }
            ],
            "stateMutability": "nonpayable",
            "type": "function"
        },
        {
            "inputs": [
                {
                    "internalType": "address",
                    "name": "target",
                    "type": "address"
                }
            ],
            "name": "removeDirectKeeper",
            "outputs": [],
            "stateMutability": "nonpayable",
            "type": "function"
        },
        {
            "inputs": [
                {
                    "internalType": "bytes32",
                    "name": "role",
                    "type": "bytes32"
                }
            ],
            "name": "renounceRole",
            "outputs": [],
            "stateMutability": "nonpayable",
            "type": "function"
        },
        {
            "inputs": [
                {
                    "internalType": "uint256",
                    "name": "seqOfShare",
                    "type": "uint256"
                },
                {
                    "internalType": "uint256",
                    "name": "seqOfPld",
                    "type": "uint256"
                }
            ],
            "name": "revokePledge",
            "outputs": [
                {
                    "internalType": "bool",
                    "name": "flag",
                    "type": "bool"
                }
            ],
            "stateMutability": "nonpayable",
            "type": "function"
        },
        {
            "inputs": [
                {
                    "internalType": "bytes32",
                    "name": "role",
                    "type": "bytes32"
                },
                {
                    "internalType": "uint256",
                    "name": "acct",
                    "type": "uint256"
                }
            ],
            "name": "revokeRole",
            "outputs": [],
            "stateMutability": "nonpayable",
            "type": "function"
        },
        {
            "inputs": [
                {
                    "internalType": "address",
                    "name": "keeper",
                    "type": "address"
                }
            ],
            "name": "setDirectKeeper",
            "outputs": [],
            "stateMutability": "nonpayable",
            "type": "function"
        },
        {
            "inputs": [
                {
                    "internalType": "uint256",
                    "name": "acct",
                    "type": "uint256"
                }
            ],
            "name": "setGeneralCounsel",
            "outputs": [],
            "stateMutability": "nonpayable",
            "type": "function"
        },
        {
            "inputs": [
                {
                    "internalType": "uint256",
                    "name": "acct",
                    "type": "uint256"
                }
            ],
            "name": "setOwner",
            "outputs": [],
            "stateMutability": "nonpayable",
            "type": "function"
        },
        {
            "inputs": [
                {
                    "internalType": "bytes32",
                    "name": "role",
                    "type": "bytes32"
                },
                {
                    "internalType": "uint256",
                    "name": "acct",
                    "type": "uint256"
                }
            ],
            "name": "setRoleAdmin",
            "outputs": [],
            "stateMutability": "nonpayable",
            "type": "function"
        },
        {
            "inputs": [
                {
                    "internalType": "uint256",
                    "name": "seqOfShare",
                    "type": "uint256"
                },
                {
                    "internalType": "uint256",
                    "name": "seqOfPld",
                    "type": "uint256"
                },
                {
                    "internalType": "uint256",
                    "name": "buyer",
                    "type": "uint256"
                },
                {
                    "internalType": "uint256",
                    "name": "amt",
                    "type": "uint256"
                }
            ],
            "name": "transferPledge",
            "outputs": [
                {
                    "components": [
                        {
                            "components": [
                                {
                                    "internalType": "uint32",
                                    "name": "seqOfShare",
                                    "type": "uint32"
                                },
                                {
                                    "internalType": "uint16",
                                    "name": "seqOfPld",
                                    "type": "uint16"
                                },
                                {
                                    "internalType": "uint48",
                                    "name": "createDate",
                                    "type": "uint48"
                                },
                                {
                                    "internalType": "uint48",
                                    "name": "triggerDate",
                                    "type": "uint48"
                                },
                                {
                                    "internalType": "uint40",
                                    "name": "pledgor",
                                    "type": "uint40"
                                },
                                {
                                    "internalType": "uint40",
                                    "name": "debtor",
                                    "type": "uint40"
                                },
                                {
                                    "internalType": "uint32",
                                    "name": "data",
                                    "type": "uint32"
                                }
                            ],
                            "internalType": "struct PledgesRepo.Head",
                            "name": "head",
                            "type": "tuple"
                        },
                        {
                            "components": [
                                {
                                    "internalType": "uint40",
                                    "name": "creditor",
                                    "type": "uint40"
                                },
                                {
                                    "internalType": "uint16",
                                    "name": "guaranteeDays",
                                    "type": "uint16"
                                },
                                {
                                    "internalType": "uint64",
                                    "name": "paid",
                                    "type": "uint64"
                                },
                                {
                                    "internalType": "uint64",
                                    "name": "par",
                                    "type": "uint64"
                                },
                                {
                                    "internalType": "uint64",
                                    "name": "guaranteedAmt",
                                    "type": "uint64"
                                },
                                {
                                    "internalType": "uint8",
                                    "name": "state",
                                    "type": "uint8"
                                }
                            ],
                            "internalType": "struct PledgesRepo.Body",
                            "name": "body",
                            "type": "tuple"
                        },
                        {
                            "internalType": "bytes32",
                            "name": "hashLock",
                            "type": "bytes32"
                        }
                    ],
                    "internalType": "struct PledgesRepo.Pledge",
                    "name": "newPld",
                    "type": "tuple"
                }
            ],
            "stateMutability": "nonpayable",
            "type": "function"
        }
    ],
    "bytecode": "608060405234801561001057600080fd5b506134e7806100206000396000f3fe608060405234801561001057600080fd5b50600436106101e55760003560e01c806361d65d551161010f578063b3f05b97116100a2578063ed21102311610071578063ed2110231461043f578063f045a7691461045f578063f424672b14610467578063f671e8211461047a57600080fd5b8063b3f05b97146103f0578063dc890da914610404578063e87a6f1814610417578063e9c733d21461042c57600080fd5b8063893d20e8116100de578063893d20e8146103af5780638bb9c5bf146103b75780639a3c29ce146103ca578063a023707d146103dd57600080fd5b806361d65d55146103565780636be8496f146103765780637e063c5a146103895780638041494e1461039c57600080fd5b806333e68530116101875780635023530711610156578063502353071461030a5780635171ebd41461031d5780635690364b146103305780635d7ad88f1461034357600080fd5b806333e68530146102be5780633c851592146102d15780633da9a600146102e45780634a14beb1146102f757600080fd5b80631b6ea9f9116101c35780631b6ea9f914610242578063205969bd146102555780632d5562ca146102785780632e6673641461029e57600080fd5b8063103f6edd146101ea57806319d61ad91461020d5780631b684d2714610222575b600080fd5b6101f261048d565b60405164ffffffffff90911681526020015b60405180910390f35b61022061021b366004612949565b610519565b005b610235610230366004612b2e565b6105ab565b6040516102049190612c6e565b610220610250366004612949565b6107fc565b610268610263366004612c7c565b610822565b6040519015158152602001610204565b61028b610286366004612ca8565b610a32565b60405161ffff9091168152602001610204565b6102b16102ac366004612ca8565b610ac4565b6040516102049190612d46565b6102356102cc366004612d95565b610b54565b6102206102df366004612c7c565b610d10565b6102206102f2366004612ca8565b610ef2565b610220610305366004612ca8565b610f7d565b610268610318366004612dd8565b6111d2565b61022061032b366004612949565b6113eb565b61026861033e366004612949565b611411565b610220610351366004612e94565b6114a5565b610369610364366004612c7c565b6115da565b6040516102049190612eb1565b610220610384366004612e94565b6117df565b610268610397366004612949565b61188e565b6102206103aa366004612ca8565b6118d7565b6101f261198d565b6102206103c5366004612ca8565b6119c8565b6102356103d8366004612ec0565b6119ed565b6103696103eb366004612f10565b611bff565b60028054600160f01b900460ff1614610268565b610220610412366004612f42565b611e9c565b61041f611f74565b6040516102049190612f95565b61026861043a366004612949565b611ffd565b610447612202565b6040516001600160a01b039091168152602001610204565b610220612288565b610268610475366004612949565b6124d2565b610369610488366004612949565b6126d7565b60405163e8c0cc1d60e01b81526002600482015260009073__$a374c895e6fa8c448878668e00d93ef99a$__9063e8c0cc1d906024015b60206040518083038186803b1580156104dc57600080fd5b505af41580156104f0573d6000803e3d6000fd5b505050506040513d601f19601f820116820180604052508101906105149190612fcd565b905090565b73__$a374c895e6fa8c448878668e00d93ef99a$__6382daafaa6002848461053f612770565b6040516001600160e01b031960e087901b16815260048101949094526024840192909252604483015264ffffffffff16606482015260840160006040518083038186803b15801561058f57600080fd5b505af41580156105a3573d6000803e3d6000fd5b505050505050565b6105b36128b8565b604051633b11adbf60e21b81526002600482015233602482015273__$a374c895e6fa8c448878668e00d93ef99a$__9063ec46b6fc9060440160206040518083038186803b15801561060457600080fd5b505af4158015610618573d6000803e3d6000fd5b505050506040513d601f19601f8201168201806040525081019061063c9190612fea565b806106bd57506001546040516335d2155560e11b81523360048201526001600160a01b0390911690636ba42aaa9060240160206040518083038186803b15801561068557600080fd5b505afa158015610699573d6000803e3d6000fd5b505050506040513d601f19601f820116820180604052508101906106bd9190612fea565b6106e25760405162461bcd60e51b81526004016106d99061300c565b60405180910390fd5b604051637186e27b60e11b815273__$1fc3c1242eb97c1a973a3d89a72820680f$__9063e30dc4f69061071b9060049086908201613037565b60e06040518083038186803b15801561073357600080fd5b505af4158015610747573d6000803e3d6000fd5b505050506040513d601f19601f8201168201806040525081019061076b919061310d565b90508160200151604001516001600160401b0316816020015161ffff16826000015163ffffffff167f16213a639c46506f76c6a61007876a778304be1c6840d8a1259ca1876ac0a7bd8560200151600001518660200151606001516040516107ef92919064ffffffffff9290921682526001600160401b0316602082015260400190565b60405180910390a4919050565b73__$a374c895e6fa8c448878668e00d93ef99a$__636320d75e6002848461053f612770565b604051633b11adbf60e21b81526002600482015233602482015260009073__$a374c895e6fa8c448878668e00d93ef99a$__9063ec46b6fc9060440160206040518083038186803b15801561087657600080fd5b505af415801561088a573d6000803e3d6000fd5b505050506040513d601f19601f820116820180604052508101906108ae9190612fea565b8061092f57506001546040516335d2155560e11b81523360048201526001600160a01b0390911690636ba42aaa9060240160206040518083038186803b1580156108f757600080fd5b505afa15801561090b573d6000803e3d6000fd5b505050506040513d601f19601f8201168201806040525081019061092f9190612fea565b61094b5760405162461bcd60e51b81526004016106d99061300c565b600084815260046020818152604080842087855290915291829020915163079b82ff60e21b815273__$1fc3c1242eb97c1a973a3d89a72820680f$__92631e6e0bfc926109a392879101918252602082015260400190565b60206040518083038186803b1580156109bb57600080fd5b505af41580156109cf573d6000803e3d6000fd5b505050506040513d601f19601f820116820180604052508101906109f39190612fea565b15610a2b578183857f22ac25240b57ed81a9a3f354cdfea8d776f1f91ed79af77ebf0ea78839015fbb60405160405180910390a45060015b9392505050565b6040516339059a6360e21b81526004808201526024810182905260009073__$1fc3c1242eb97c1a973a3d89a72820680f$__9063e416698c9060440160206040518083038186803b158015610a8657600080fd5b505af4158015610a9a573d6000803e3d6000fd5b505050506040513d601f19601f82011682018060405250810190610abe9190613129565b92915050565b604051639e1adb1f60e01b81526004808201526024810182905260609073__$1fc3c1242eb97c1a973a3d89a72820680f$__90639e1adb1f9060440160006040518083038186803b158015610b1857600080fd5b505af4158015610b2c573d6000803e3d6000fd5b505050506040513d6000823e601f3d908101601f19168201604052610abe9190810190613239565b610b5c6128b8565b604051633b11adbf60e21b81526002600482015233602482015273__$a374c895e6fa8c448878668e00d93ef99a$__9063ec46b6fc9060440160206040518083038186803b158015610bad57600080fd5b505af4158015610bc1573d6000803e3d6000fd5b505050506040513d601f19601f82011682018060405250810190610be59190612fea565b610c015760405162461bcd60e51b81526004016106d9906132d8565b6040516365c2d31b60e01b81526004808201526024810188905260448101879052606481018690526084810185905260a4810184905260c4810183905273__$1fc3c1242eb97c1a973a3d89a72820680f$__906365c2d31b9060e40160e06040518083038186803b158015610c7557600080fd5b505af4158015610c89573d6000803e3d6000fd5b505050506040513d601f19601f82011682018060405250810190610cad919061310d565b905083816020015161ffff16826000015163ffffffff167f16213a639c46506f76c6a61007876a778304be1c6840d8a1259ca1876ac0a7bd8987604051610cfe929190918252602082015260400190565b60405180910390a49695505050505050565b604051633b11adbf60e21b81526002600482015233602482015273__$a374c895e6fa8c448878668e00d93ef99a$__9063ec46b6fc9060440160206040518083038186803b158015610d6157600080fd5b505af4158015610d75573d6000803e3d6000fd5b505050506040513d601f19601f82011682018060405250810190610d999190612fea565b80610e1a57506001546040516335d2155560e11b81523360048201526001600160a01b0390911690636ba42aaa9060240160206040518083038186803b158015610de257600080fd5b505afa158015610df6573d6000803e3d6000fd5b505050506040513d601f19601f82011682018060405250810190610e1a9190612fea565b610e365760405162461bcd60e51b81526004016106d99061300c565b60008381526004602081815260408084208685529091529182902091516323db034d60e01b815273__$1fc3c1242eb97c1a973a3d89a72820680f$__926323db034d92610e8e92869101918252602082015260400190565b60006040518083038186803b158015610ea657600080fd5b505af4158015610eba573d6000803e3d6000fd5b505050508082847f57d3cc740936f1e626db29598eb1dd08e59719f04f860cb544695c1bda2439f060405160405180910390a4505050565b73__$a374c895e6fa8c448878668e00d93ef99a$__63c51b295f600283610f17612770565b6040516001600160e01b031960e086901b1681526004810193909352602483019190915264ffffffffff16604482015260640160006040518083038186803b158015610f6257600080fd5b505af4158015610f76573d6000803e3d6000fd5b5050505050565b604051633b11adbf60e21b81526002600482015233602482015273__$a374c895e6fa8c448878668e00d93ef99a$__9063ec46b6fc9060440160206040518083038186803b158015610fce57600080fd5b505af4158015610fe2573d6000803e3d6000fd5b505050506040513d601f19601f820116820180604052508101906110069190612fea565b806110ab575073__$a374c895e6fa8c448878668e00d93ef99a$__63fe2710866002611030612770565b6040516001600160e01b031960e085901b168152600481019290925264ffffffffff16602482015260440160206040518083038186803b15801561107357600080fd5b505af4158015611087573d6000803e3d6000fd5b505050506040513d601f19601f820116820180604052508101906110ab9190612fea565b6111165760405162461bcd60e51b815260206004820152603660248201527f41432e6f776e65724f72446972656374426f6f6b65657065723a206e6569746860448201527532b91037bbb732b9103737b9103137b7b5b2b2b832b960511b60648201526084016106d9565b73__$a374c895e6fa8c448878668e00d93ef99a$__6313a187d260028361113b612770565b6040516001600160e01b031960e086901b1681526004810193909352602483019190915264ffffffffff16604482015233606482015260840160006040518083038186803b15801561118c57600080fd5b505af41580156111a0573d6000803e3d6000fd5b50506040518392507ff2735f34b69be1e6342dea95f9162f84d0db925fab655ca9f1f312ac8cbfc99d9150600090a250565b604051633b11adbf60e21b81526002600482015233602482015260009073__$a374c895e6fa8c448878668e00d93ef99a$__9063ec46b6fc9060440160206040518083038186803b15801561122657600080fd5b505af415801561123a573d6000803e3d6000fd5b505050506040513d601f19601f8201168201806040525081019061125e9190612fea565b806112df57506001546040516335d2155560e11b81523360048201526001600160a01b0390911690636ba42aaa9060240160206040518083038186803b1580156112a757600080fd5b505afa1580156112bb573d6000803e3d6000fd5b505050506040513d601f19601f820116820180604052508101906112df9190612fea565b6112fb5760405162461bcd60e51b81526004016106d99061300c565b6000848152600460208181526040808420878552909152918290209151637689d68b60e01b815273__$1fc3c1242eb97c1a973a3d89a72820680f$__92637689d68b9261134a9287910161334e565b60206040518083038186803b15801561136257600080fd5b505af4158015611376573d6000803e3d6000fd5b505050506040513d601f19601f8201168201806040525081019061139a9190612fea565b15610a2b57816040516113ad9190613388565b60405190819003812090849086907faa23da4927c0392e16dd5999d025e6b3229208a541ab284af9e4e03b189fe26390600090a45060019392505050565b73__$a374c895e6fa8c448878668e00d93ef99a$__63ee98b3136002848461053f612770565b604051632d2759ab60e21b8152600480820152602481018390526044810182905260009073__$1fc3c1242eb97c1a973a3d89a72820680f$__9063b49d66ac906064015b60206040518083038186803b15801561146d57600080fd5b505af4158015611481573d6000803e3d6000fd5b505050506040513d601f19601f82011682018060405250810190610a2b9190612fea565b604051633b11adbf60e21b81526002600482015233602482015273__$a374c895e6fa8c448878668e00d93ef99a$__9063ec46b6fc9060440160206040518083038186803b1580156114f657600080fd5b505af415801561150a573d6000803e3d6000fd5b505050506040513d601f19601f8201168201806040525081019061152e9190612fea565b61154a5760405162461bcd60e51b81526004016106d9906132d8565b604051636be8496f60e01b81523360048201526001600160a01b03821690636be8496f90602401600060405180830381600087803b15801561158b57600080fd5b505af115801561159f573d6000803e3d6000fd5b50506040516001600160a01b03841692507f64dd6e84044f0067086012335dcfab3188db6615b5cc7debf18c9a621ebd5d919150600090a250565b6115e26128f4565b604051633b11adbf60e21b81526002600482015233602482015273__$a374c895e6fa8c448878668e00d93ef99a$__9063ec46b6fc9060440160206040518083038186803b15801561163357600080fd5b505af4158015611647573d6000803e3d6000fd5b505050506040513d601f19601f8201168201806040525081019061166b9190612fea565b806116ec57506001546040516335d2155560e11b81523360048201526001600160a01b0390911690636ba42aaa9060240160206040518083038186803b1580156116b457600080fd5b505afa1580156116c8573d6000803e3d6000fd5b505050506040513d601f19601f820116820180604052508101906116ec9190612fea565b6117085760405162461bcd60e51b81526004016106d99061300c565b604051630f6f3a5960e41b81526004808201526024810185905260448101849052600060648201526084810183905273__$1fc3c1242eb97c1a973a3d89a72820680f$__9063f6f3a5909060a4016101c06040518083038186803b15801561176f57600080fd5b505af4158015611783573d6000803e3d6000fd5b505050506040513d601f19601f820116820180604052508101906117a791906133a4565b90508183857feda318b681a6fefde71d5c8ab67ec3b13df92a65135f6ba8e3c1187372e3817560405160405180910390a49392505050565b604051630f07232560e01b8152600260048201526001600160a01b038216602482015233604482015273__$a374c895e6fa8c448878668e00d93ef99a$__90630f0723259060640160006040518083038186803b15801561183f57600080fd5b505af4158015611853573d6000803e3d6000fd5b50506040516001600160a01b03841692507fe435cbeab64e4eae6497b9d8289704bd709d624a80704ef3ca9af777534bc6ec9150600090a250565b604051632a3be56b60e21b815260026004820152602481018390526044810182905260009073__$a374c895e6fa8c448878668e00d93ef99a$__9063a8ef95ac90606401611455565b73__$a374c895e6fa8c448878668e00d93ef99a$__639b48160c6002836118fc612770565b6040516001600160e01b031960e086901b1681526004810193909352602483019190915264ffffffffff16604482015260640160006040518083038186803b15801561194757600080fd5b505af415801561195b573d6000803e3d6000fd5b50506040518392507f8b6f40f36b4ae8cc5f55e895036457c43da4ab1f80f58c46f5ff0d72a650033b9150600090a250565b60405163987ad15360e01b81526002600482015260009073__$a374c895e6fa8c448878668e00d93ef99a$__9063987ad153906024016104c4565b73__$a374c895e6fa8c448878668e00d93ef99a$__63cc0d511b600283610f17612770565b6119f56128b8565b604051633b11adbf60e21b81526002600482015233602482015273__$a374c895e6fa8c448878668e00d93ef99a$__9063ec46b6fc9060440160206040518083038186803b158015611a4657600080fd5b505af4158015611a5a573d6000803e3d6000fd5b505050506040513d601f19601f82011682018060405250810190611a7e9190612fea565b80611aff57506001546040516335d2155560e11b81523360048201526001600160a01b0390911690636ba42aaa9060240160206040518083038186803b158015611ac757600080fd5b505afa158015611adb573d6000803e3d6000fd5b505050506040513d601f19601f82011682018060405250810190611aff9190612fea565b611b1b5760405162461bcd60e51b81526004016106d99061300c565b604051633682ae6960e11b815273__$1fc3c1242eb97c1a973a3d89a72820680f$__90636d055cd290611b5e906004908b908b908b908b908b908b9087016133c1565b60e06040518083038186803b158015611b7657600080fd5b505af4158015611b8a573d6000803e3d6000fd5b505050506040513d601f19601f82011682018060405250810190611bae919061310d565b905083876020015161ffff16886000015163ffffffff167f16213a639c46506f76c6a61007876a778304be1c6840d8a1259ca1876ac0a7bd8987604051610cfe929190918252602082015260400190565b611c076128f4565b604051633b11adbf60e21b81526002600482015233602482015273__$a374c895e6fa8c448878668e00d93ef99a$__9063ec46b6fc9060440160206040518083038186803b158015611c5857600080fd5b505af4158015611c6c573d6000803e3d6000fd5b505050506040513d601f19601f82011682018060405250810190611c909190612fea565b80611d1157506001546040516335d2155560e11b81523360048201526001600160a01b0390911690636ba42aaa9060240160206040518083038186803b158015611cd957600080fd5b505afa158015611ced573d6000803e3d6000fd5b505050506040513d601f19601f82011682018060405250810190611d119190612fea565b611d2d5760405162461bcd60e51b81526004016106d99061300c565b60008311611d725760405162461bcd60e51b81526020600482015260126024820152712127a8172a281d103d32b93790313abcb2b960711b60448201526064016106d9565b604051630f6f3a5960e41b81526004808201526024810186905260448101859052606481018490526084810183905273__$1fc3c1242eb97c1a973a3d89a72820680f$__9063f6f3a5909060a4016101c06040518083038186803b158015611dd957600080fd5b505af4158015611ded573d6000803e3d6000fd5b505050506040513d601f19601f82011682018060405250810190611e1191906133a4565b80516020808201519151818401518051604080830151606093840151825164ffffffffff90941684526001600160401b03918216968401969096529094169381019390935293945061ffff90921692879263ffffffff16917fa8c5eace48f10e75f99f4b2e92222072bb757089c357ffd4267f97249c6022c6910160405180910390a4949350505050565b604051636cdd0edf60e11b815260026004820152602481018590526001600160a01b038416604482015273__$a374c895e6fa8c448878668e00d93ef99a$__9063d9ba1dbe9060640160006040518083038186803b158015611efd57600080fd5b505af4158015611f11573d6000803e3d6000fd5b50505050611f1e826127ca565b611f278161283d565b6040516001600160a01b038381168252808316919085169086907f3abb2418c66fe32ba9c883030a75ce583971d9af9192b9b74e44e67c5e6c8c1f9060200160405180910390a450505050565b6040516393f7eb1960e01b815260048082015260609073__$1fc3c1242eb97c1a973a3d89a72820680f$__906393f7eb199060240160006040518083038186803b158015611fc157600080fd5b505af4158015611fd5573d6000803e3d6000fd5b505050506040513d6000823e601f3d908101601f191682016040526105149190810190613404565b604051633b11adbf60e21b81526002600482015233602482015260009073__$a374c895e6fa8c448878668e00d93ef99a$__9063ec46b6fc9060440160206040518083038186803b15801561205157600080fd5b505af4158015612065573d6000803e3d6000fd5b505050506040513d601f19601f820116820180604052508101906120899190612fea565b8061210a57506001546040516335d2155560e11b81523360048201526001600160a01b0390911690636ba42aaa9060240160206040518083038186803b1580156120d257600080fd5b505afa1580156120e6573d6000803e3d6000fd5b505050506040513d601f19601f8201168201806040525081019061210a9190612fea565b6121265760405162461bcd60e51b81526004016106d99061300c565b6000838152600460208181526040808420868552909152918290209151630c6bcfc760e31b815273__$1fc3c1242eb97c1a973a3d89a72820680f$__9263635e7e3892612177920190815260200190565b60206040518083038186803b15801561218f57600080fd5b505af41580156121a3573d6000803e3d6000fd5b505050506040513d601f19601f820116820180604052508101906121c79190612fea565b15610abe57604051829084907f78402161cd0b480b185df229c7caeffedd2aca31d8fbc71e227a45faab07cb1c90600090a350600192915050565b604051633c3e56c160e11b81526002600482015260009073__$a374c895e6fa8c448878668e00d93ef99a$__9063787cad829060240160206040518083038186803b15801561225057600080fd5b505af4158015612264573d6000803e3d6000fd5b505050506040513d601f19601f820116820180604052508101906105149190613494565b600254600160f01b900460ff166001146122e45760405162461bcd60e51b815260206004820152601760248201527f41432e4c433a20446f632069732066696e616c697a656400000000000000000060448201526064016106d9565b73__$a374c895e6fa8c448878668e00d93ef99a$__63c51b295f6002684174746f726e65797360b81b612315612770565b6040516001600160e01b031960e086901b1681526004810193909352602483019190915264ffffffffff16604482015260640160006040518083038186803b15801561236057600080fd5b505af4158015612374573d6000803e3d6000fd5b50505050600273__$a374c895e6fa8c448878668e00d93ef99a$__6313a187d2909160006123a0612770565b6040516001600160e01b031960e086901b1681526004810193909352602483019190915264ffffffffff16604482015233606482015260840160006040518083038186803b1580156123f157600080fd5b505af4158015612405573d6000803e3d6000fd5b50505050600273__$a374c895e6fa8c448878668e00d93ef99a$__639b48160c90916000612431612770565b6040516001600160e01b031960e086901b1681526004810193909352602483019190915264ffffffffff16604482015260640160006040518083038186803b15801561247c57600080fd5b505af4158015612490573d6000803e3d6000fd5b50506002805460ff60f01b1916600160f11b17905550506040517f35012b512309c322acf68632cd6cb702ff0e1d776fbe9394e38ffc13b434fe7590600090a1565b604051633b11adbf60e21b81526002600482015233602482015260009073__$a374c895e6fa8c448878668e00d93ef99a$__9063ec46b6fc9060440160206040518083038186803b15801561252657600080fd5b505af415801561253a573d6000803e3d6000fd5b505050506040513d601f19601f8201168201806040525081019061255e9190612fea565b806125df57506001546040516335d2155560e11b81523360048201526001600160a01b0390911690636ba42aaa9060240160206040518083038186803b1580156125a757600080fd5b505afa1580156125bb573d6000803e3d6000fd5b505050506040513d601f19601f820116820180604052508101906125df9190612fea565b6125fb5760405162461bcd60e51b81526004016106d99061300c565b6000838152600460208181526040808420868552909152918290209151635bbae7f560e11b815273__$1fc3c1242eb97c1a973a3d89a72820680f$__9263b775cfea9261264c920190815260200190565b60206040518083038186803b15801561266457600080fd5b505af4158015612678573d6000803e3d6000fd5b505050506040513d601f19601f8201168201806040525081019061269c9190612fea565b15610abe57604051829084907f47940b7029002299c9badb3d62d4f2d1596185044d62c18613dc775053a4914f90600090a350600192915050565b6126df6128f4565b6040516308d0fe8960e41b8152600480820152602481018490526044810183905273__$1fc3c1242eb97c1a973a3d89a72820680f$__90638d0fe890906064016101c06040518083038186803b15801561273857600080fd5b505af415801561274c573d6000803e3d6000fd5b505050506040513d601f19601f82011682018060405250810190610a2b91906133a4565b60008054604051636ae3b70d60e11b81523360048201526001600160a01b039091169063d5c76e1a90602401602060405180830381600087803b1580156127b657600080fd5b505af11580156104f0573d6000803e3d6000fd5b6000546001600160a01b03161561281b5760405162461bcd60e51b815260206004820152601560248201527430b63932b0b23c9039b2ba103932b3a1b2b73a32b960591b60448201526064016106d9565b600080546001600160a01b0319166001600160a01b0392909216919091179055565b6001546001600160a01b0316156128965760405162461bcd60e51b815260206004820152601960248201527f616c7265616479207365742067656e6572616c4b65657065720000000000000060448201526064016106d9565b600180546001600160a01b0319166001600160a01b0392909216919091179055565b6040805160e081018252600080825260208201819052918101829052606081018290526080810182905260a0810182905260c081019190915290565b60405180606001604052806129076128b8565b81526040805160c08101825260008082526020828101829052928201819052606082018190526080820181905260a08201529101908152600060209091015290565b6000806040838503121561295c57600080fd5b50508035926020909101359150565b634e487b7160e01b600052604160045260246000fd5b60405160e081016001600160401b03811182821017156129a3576129a361296b565b60405290565b604051606081016001600160401b03811182821017156129a3576129a361296b565b60405160c081016001600160401b03811182821017156129a3576129a361296b565b604051601f8201601f191681016001600160401b0381118282101715612a1557612a1561296b565b604052919050565b63ffffffff81168114612a2f57600080fd5b50565b61ffff81168114612a2f57600080fd5b65ffffffffffff81168114612a2f57600080fd5b64ffffffffff81168114612a2f57600080fd5b600060e08284031215612a7b57600080fd5b612a83612981565b90508135612a9081612a1d565b81526020820135612aa081612a32565b60208201526040820135612ab381612a42565b60408201526060820135612ac681612a42565b60608201526080820135612ad981612a56565b608082015260a0820135612aec81612a56565b60a082015260c0820135612aff81612a1d565b60c082015292915050565b6001600160401b0381168114612a2f57600080fd5b60ff81168114612a2f57600080fd5b60008183036101c0811215612b4257600080fd5b612b4a6129a9565b612b548585612a69565b815260c060df1983011215612b6857600080fd5b612b706129cb565b915060e0840135612b8081612a56565b8252610100840135612b9181612a32565b6020830152610120840135612ba581612b0a565b6040830152610140840135612bb981612b0a565b6060830152610160840135612bcd81612b0a565b6080830152610180840135612be181612b1f565b60a083015260208101919091526101a09290920135604083015250919050565b63ffffffff80825116835261ffff6020830151166020840152604082015165ffffffffffff80821660408601528060608501511660608601525050608082015164ffffffffff80821660808601528060a08501511660a086015250508060c08301511660c0840152505050565b60e08101610abe8284612c01565b600080600060608486031215612c9157600080fd5b505081359360208301359350604090920135919050565b600060208284031215612cba57600080fd5b5035919050565b64ffffffffff815116825261ffff602082015116602083015260408101516001600160401b038082166040850152806060840151166060850152806080840151166080850152505060ff60a08201511660a08301525050565b612d25828251612c01565b6020810151612d3760e0840182612cc1565b50604001516101a09190910152565b6020808252825182820181905260009190848201906040850190845b81811015612d8957612d75838551612d1a565b928401926101c09290920191600101612d62565b50909695505050505050565b60008060008060008060c08789031215612dae57600080fd5b505084359660208601359650604086013595606081013595506080810135945060a0013592509050565b600080600060608486031215612ded57600080fd5b83359250602080850135925060408501356001600160401b0380821115612e1357600080fd5b818701915087601f830112612e2757600080fd5b813581811115612e3957612e3961296b565b612e4b601f8201601f191685016129ed565b91508082528884828501011115612e6157600080fd5b80848401858401376000848284010152508093505050509250925092565b6001600160a01b0381168114612a2f57600080fd5b600060208284031215612ea657600080fd5b8135610a2b81612e7f565b6101c08101610abe8284612d1a565b6000806000806000806101808789031215612eda57600080fd5b612ee48888612a69565b9860e0880135985061010088013597610120810135975061014081013596506101600135945092505050565b60008060008060808587031215612f2657600080fd5b5050823594602084013594506040840135936060013592509050565b60008060008060808587031215612f5857600080fd5b843593506020850135612f6a81612e7f565b92506040850135612f7a81612e7f565b91506060850135612f8a81612e7f565b939692955090935050565b6020808252825182820181905260009190848201906040850190845b81811015612d8957835183529284019291840191600101612fb1565b600060208284031215612fdf57600080fd5b8151610a2b81612a56565b600060208284031215612ffc57600080fd5b81518015158114610a2b57600080fd5b60208082526011908201527020a19737b59d103737ba1025b2b2b832b960791b604082015260600190565b60006101e082019050838252613051602083018451612c01565b6020830151613064610100840182612cc1565b5060408301516101c08301529392505050565b600060e0828403121561308957600080fd5b613091612981565b9050815161309e81612a1d565b815260208201516130ae81612a32565b602082015260408201516130c181612a42565b604082015260608201516130d481612a42565b606082015260808201516130e781612a56565b608082015260a08201516130fa81612a56565b60a082015260c0820151612aff81612a1d565b600060e0828403121561311f57600080fd5b610a2b8383613077565b60006020828403121561313b57600080fd5b8151610a2b81612a32565b60006001600160401b0382111561315f5761315f61296b565b5060051b60200190565b60008183036101c081121561317d57600080fd5b6131856129a9565b91506131918484613077565b825260c060df19820112156131a557600080fd5b506131ae6129cb565b60e08301516131bc81612a56565b81526101008301516131cd81612a32565b60208201526101208301516131e181612b0a565b60408201526101408301516131f581612b0a565b606082015261016083015161320981612b0a565b608082015261018083015161321d81612b1f565b60a082015260208201526101a091909101516040820152919050565b6000602080838503121561324c57600080fd5b82516001600160401b0381111561326257600080fd5b8301601f8101851361327357600080fd5b805161328661328182613146565b6129ed565b8181526101c091820283018401918482019190888411156132a657600080fd5b938501935b838510156132cc576132bd8986613169565b835293840193918501916132ab565b50979650505050505050565b60208082526026908201527f41432e6f6e6c794469726563744b65657065723a206e6f74206469726563742060408201526535b2b2b832b960d11b606082015260800190565b60005b83811015613339578181015183820152602001613321565b83811115613348576000848401525b50505050565b828152604060208201526000825180604084015261337381606085016020870161331e565b601f01601f1916919091016060019392505050565b6000825161339a81846020870161331e565b9190910192915050565b60006101c082840312156133b757600080fd5b610a2b8383613169565b8781526101a081016133d66020830189612c01565b6101008201969096526101208101949094526101408401929092526101608301526101809091015292915050565b6000602080838503121561341757600080fd5b82516001600160401b0381111561342d57600080fd5b8301601f8101851361343e57600080fd5b805161344c61328182613146565b81815260059190911b8201830190838101908783111561346b57600080fd5b928401925b8284101561348957835182529284019290840190613470565b979650505050505050565b6000602082840312156134a657600080fd5b8151610a2b81612e7f56fea26469706673582212208d59b055d055d97e728084a0e980eeda4f45e45594870c123020e0d193d6fd2864736f6c63430008080033",
    "sourcePath": "/Users/kaptain/github.com/comboox/comboox/contracts/books/bop/BookOfPledges.sol",
    "compiler": {
        "name": "solc",
        "version": "0.8.8+commit.dddeac2f"
    },
    "functionHashes": {
        "abandonRole(bytes32)": "3da9a600",
        "counterOfPledges(uint256)": "2d5562ca",
        "createPledge(bytes32,uint256,uint256,uint256,uint256,uint256)": "33e68530",
        "execPledge(uint256,uint256)": "e9c733d2",
        "extendPledge(uint256,uint256,uint256)": "3c851592",
        "finalized()": "b3f05b97",
        "getBookeeper()": "ed211023",
        "getGeneralCounsel()": "103f6edd",
        "getOwner()": "893d20e8",
        "getPledge(uint256,uint256)": "f671e821",
        "getPledgesOfShare(uint256)": "2e667364",
        "getSNList()": "e87a6f18",
        "grantRole(bytes32,uint256)": "1b6ea9f9",
        "hasRole(bytes32,uint256)": "7e063c5a",
        "init(uint256,address,address,address)": "dc890da9",
        "isPledge(uint256,uint256)": "5690364b",
        "issuePledge((uint32,uint16,uint48,uint48,uint40,uint40,uint32),uint256,uint256,uint256,uint256,uint256)": "9a3c29ce",
        "lockContents()": "f045a769",
        "lockPledge(uint256,uint256,bytes32)": "205969bd",
        "refundDebt(uint256,uint256,uint256)": "61d65d55",
        "regPledge(((uint32,uint16,uint48,uint48,uint40,uint40,uint32),(uint40,uint16,uint64,uint64,uint64,uint8),bytes32))": "1b684d27",
        "releasePledge(uint256,uint256,string)": "50235307",
        "removeDirectKeeper(address)": "5d7ad88f",
        "renounceRole(bytes32)": "8bb9c5bf",
        "revokePledge(uint256,uint256)": "f424672b",
        "revokeRole(bytes32,uint256)": "19d61ad9",
        "setDirectKeeper(address)": "6be8496f",
        "setGeneralCounsel(uint256)": "4a14beb1",
        "setOwner(uint256)": "8041494e",
        "setRoleAdmin(bytes32,uint256)": "5171ebd4",
        "transferPledge(uint256,uint256,uint256,uint256)": "a023707d"
    },
    "gasEstimates": {
        "creation": {
            "codeDepositCost": "2708600",
            "executionCost": "2946",
            "totalCost": "2711546"
        },
        "external": {
            "abandonRole(bytes32)": "infinite",
            "counterOfPledges(uint256)": "infinite",
            "createPledge(bytes32,uint256,uint256,uint256,uint256,uint256)": "infinite",
            "execPledge(uint256,uint256)": "infinite",
            "extendPledge(uint256,uint256,uint256)": "infinite",
            "finalized()": "2372",
            "getBookeeper()": "infinite",
            "getGeneralCounsel()": "infinite",
            "getOwner()": "infinite",
            "getPledge(uint256,uint256)": "infinite",
            "getPledgesOfShare(uint256)": "infinite",
            "getSNList()": "infinite",
            "grantRole(bytes32,uint256)": "infinite",
            "hasRole(bytes32,uint256)": "infinite",
            "init(uint256,address,address,address)": "infinite",
            "isPledge(uint256,uint256)": "infinite",
            "issuePledge((uint32,uint16,uint48,uint48,uint40,uint40,uint32),uint256,uint256,uint256,uint256,uint256)": "infinite",
            "lockContents()": "infinite",
            "lockPledge(uint256,uint256,bytes32)": "infinite",
            "refundDebt(uint256,uint256,uint256)": "infinite",
            "regPledge(((uint32,uint16,uint48,uint48,uint40,uint40,uint32),(uint40,uint16,uint64,uint64,uint64,uint8),bytes32))": "infinite",
            "releasePledge(uint256,uint256,string)": "infinite",
            "removeDirectKeeper(address)": "infinite",
            "renounceRole(bytes32)": "infinite",
            "revokePledge(uint256,uint256)": "infinite",
            "revokeRole(bytes32,uint256)": "infinite",
            "setDirectKeeper(address)": "infinite",
            "setGeneralCounsel(uint256)": "infinite",
            "setOwner(uint256)": "infinite",
            "setRoleAdmin(bytes32,uint256)": "infinite",
            "transferPledge(uint256,uint256,uint256,uint256)": "infinite"
        }
    }
}