{
    "contractName": "BookOfPledges",
    "abi": [
        {
            "anonymous": false,
            "inputs": [
                {
                    "indexed": true,
                    "internalType": "uint256",
                    "name": "seqOfShare",
                    "type": "uint256"
                },
                {
                    "indexed": false,
                    "internalType": "uint256",
                    "name": "seqOfPld",
                    "type": "uint256"
                },
                {
                    "indexed": false,
                    "internalType": "uint256",
                    "name": "creditor",
                    "type": "uint256"
                },
                {
                    "indexed": false,
                    "internalType": "uint256",
                    "name": "paid",
                    "type": "uint256"
                },
                {
                    "indexed": false,
                    "internalType": "uint256",
                    "name": "par",
                    "type": "uint256"
                }
            ],
            "name": "CreatePledge",
            "type": "event"
        },
        {
            "anonymous": false,
            "inputs": [
                {
                    "indexed": true,
                    "internalType": "uint256",
                    "name": "seqOfShare",
                    "type": "uint256"
                },
                {
                    "indexed": false,
                    "internalType": "uint256",
                    "name": "seqOfPld",
                    "type": "uint256"
                }
            ],
            "name": "ExecPledge",
            "type": "event"
        },
        {
            "anonymous": false,
            "inputs": [
                {
                    "indexed": true,
                    "internalType": "uint256",
                    "name": "seqOfShare",
                    "type": "uint256"
                },
                {
                    "indexed": false,
                    "internalType": "uint256",
                    "name": "seqOfPld",
                    "type": "uint256"
                },
                {
                    "indexed": false,
                    "internalType": "uint256",
                    "name": "extDays",
                    "type": "uint256"
                }
            ],
            "name": "ExtendPledge",
            "type": "event"
        },
        {
            "anonymous": false,
            "inputs": [
                {
                    "indexed": false,
                    "internalType": "uint256",
                    "name": "owner",
                    "type": "uint256"
                },
                {
                    "indexed": false,
                    "internalType": "address",
                    "name": "directKeeper",
                    "type": "address"
                },
                {
                    "indexed": false,
                    "internalType": "address",
                    "name": "regCenter",
                    "type": "address"
                },
                {
                    "indexed": false,
                    "internalType": "address",
                    "name": "generalKeeper",
                    "type": "address"
                }
            ],
            "name": "Init",
            "type": "event"
        },
        {
            "anonymous": false,
            "inputs": [],
            "name": "LockContents",
            "type": "event"
        },
        {
            "anonymous": false,
            "inputs": [
                {
                    "indexed": true,
                    "internalType": "uint256",
                    "name": "seqOfShare",
                    "type": "uint256"
                },
                {
                    "indexed": false,
                    "internalType": "uint256",
                    "name": "seqOfPld",
                    "type": "uint256"
                },
                {
                    "indexed": false,
                    "internalType": "bytes32",
                    "name": "hashLock",
                    "type": "bytes32"
                }
            ],
            "name": "LockPledge",
            "type": "event"
        },
        {
            "anonymous": false,
            "inputs": [
                {
                    "indexed": true,
                    "internalType": "uint256",
                    "name": "seqOfShare",
                    "type": "uint256"
                },
                {
                    "indexed": false,
                    "internalType": "uint256",
                    "name": "seqOfPld",
                    "type": "uint256"
                },
                {
                    "indexed": false,
                    "internalType": "uint256",
                    "name": "refundAmt",
                    "type": "uint256"
                }
            ],
            "name": "RefundDebt",
            "type": "event"
        },
        {
            "anonymous": false,
            "inputs": [
                {
                    "indexed": true,
                    "internalType": "uint256",
                    "name": "seqOfShare",
                    "type": "uint256"
                },
                {
                    "indexed": false,
                    "internalType": "uint256",
                    "name": "seqOfPld",
                    "type": "uint256"
                },
                {
                    "indexed": false,
                    "internalType": "string",
                    "name": "hashKey",
                    "type": "string"
                }
            ],
            "name": "ReleasePledge",
            "type": "event"
        },
        {
            "anonymous": false,
            "inputs": [
                {
                    "indexed": true,
                    "internalType": "uint256",
                    "name": "seqOfShare",
                    "type": "uint256"
                },
                {
                    "indexed": false,
                    "internalType": "uint256",
                    "name": "seqOfPld",
                    "type": "uint256"
                }
            ],
            "name": "RevokePledge",
            "type": "event"
        },
        {
            "anonymous": false,
            "inputs": [
                {
                    "indexed": false,
                    "internalType": "address",
                    "name": "keeper",
                    "type": "address"
                }
            ],
            "name": "SetDirectKeeper",
            "type": "event"
        },
        {
            "anonymous": false,
            "inputs": [
                {
                    "indexed": false,
                    "internalType": "uint256",
                    "name": "acct",
                    "type": "uint256"
                }
            ],
            "name": "SetGeneralCounsel",
            "type": "event"
        },
        {
            "anonymous": false,
            "inputs": [
                {
                    "indexed": false,
                    "internalType": "uint256",
                    "name": "acct",
                    "type": "uint256"
                }
            ],
            "name": "SetOwner",
            "type": "event"
        },
        {
            "anonymous": false,
            "inputs": [
                {
                    "indexed": true,
                    "internalType": "uint256",
                    "name": "seqOfShare",
                    "type": "uint256"
                },
                {
                    "indexed": false,
                    "internalType": "uint256",
                    "name": "seqOfPld",
                    "type": "uint256"
                },
                {
                    "indexed": false,
                    "internalType": "uint256",
                    "name": "newSeqOfPld",
                    "type": "uint256"
                },
                {
                    "indexed": false,
                    "internalType": "uint256",
                    "name": "buyer",
                    "type": "uint256"
                },
                {
                    "indexed": false,
                    "internalType": "uint256",
                    "name": "paid",
                    "type": "uint256"
                },
                {
                    "indexed": false,
                    "internalType": "uint256",
                    "name": "par",
                    "type": "uint256"
                }
            ],
            "name": "TransferPledge",
            "type": "event"
        },
        {
            "inputs": [
                {
                    "internalType": "bytes32",
                    "name": "role",
                    "type": "bytes32"
                }
            ],
            "name": "abandonRole",
            "outputs": [],
            "stateMutability": "nonpayable",
            "type": "function"
        },
        {
            "inputs": [
                {
                    "internalType": "uint256",
                    "name": "seqOfShare",
                    "type": "uint256"
                }
            ],
            "name": "counterOfPledges",
            "outputs": [
                {
                    "internalType": "uint16",
                    "name": "",
                    "type": "uint16"
                }
            ],
            "stateMutability": "view",
            "type": "function"
        },
        {
            "inputs": [
                {
                    "internalType": "uint256",
                    "name": "sn",
                    "type": "uint256"
                },
                {
                    "internalType": "uint256",
                    "name": "creditor",
                    "type": "uint256"
                },
                {
                    "internalType": "uint256",
                    "name": "guaranteeDays",
                    "type": "uint256"
                },
                {
                    "internalType": "uint256",
                    "name": "paid",
                    "type": "uint256"
                },
                {
                    "internalType": "uint256",
                    "name": "par",
                    "type": "uint256"
                },
                {
                    "internalType": "uint256",
                    "name": "guaranteedAmt",
                    "type": "uint256"
                }
            ],
            "name": "createPledge",
            "outputs": [
                {
                    "components": [
                        {
                            "internalType": "uint32",
                            "name": "seqOfShare",
                            "type": "uint32"
                        },
                        {
                            "internalType": "uint16",
                            "name": "seqOfPld",
                            "type": "uint16"
                        },
                        {
                            "internalType": "uint48",
                            "name": "createDate",
                            "type": "uint48"
                        },
                        {
                            "internalType": "uint48",
                            "name": "triggerDate",
                            "type": "uint48"
                        },
                        {
                            "internalType": "uint40",
                            "name": "pledgor",
                            "type": "uint40"
                        },
                        {
                            "internalType": "uint40",
                            "name": "debtor",
                            "type": "uint40"
                        },
                        {
                            "internalType": "uint32",
                            "name": "data",
                            "type": "uint32"
                        }
                    ],
                    "internalType": "struct PledgesRepo.Head",
                    "name": "head",
                    "type": "tuple"
                }
            ],
            "stateMutability": "nonpayable",
            "type": "function"
        },
        {
            "inputs": [
                {
                    "internalType": "uint256",
                    "name": "seqOfShare",
                    "type": "uint256"
                },
                {
                    "internalType": "uint256",
                    "name": "seqOfPld",
                    "type": "uint256"
                }
            ],
            "name": "execPledge",
            "outputs": [
                {
                    "internalType": "bool",
                    "name": "flag",
                    "type": "bool"
                }
            ],
            "stateMutability": "nonpayable",
            "type": "function"
        },
        {
            "inputs": [
                {
                    "internalType": "uint256",
                    "name": "seqOfShare",
                    "type": "uint256"
                },
                {
                    "internalType": "uint256",
                    "name": "seqOfPld",
                    "type": "uint256"
                },
                {
                    "internalType": "uint256",
                    "name": "extDays",
                    "type": "uint256"
                }
            ],
            "name": "extendPledge",
            "outputs": [],
            "stateMutability": "nonpayable",
            "type": "function"
        },
        {
            "inputs": [],
            "name": "finalized",
            "outputs": [
                {
                    "internalType": "bool",
                    "name": "",
                    "type": "bool"
                }
            ],
            "stateMutability": "view",
            "type": "function"
        },
        {
            "inputs": [],
            "name": "getBookeeper",
            "outputs": [
                {
                    "internalType": "address",
                    "name": "",
                    "type": "address"
                }
            ],
            "stateMutability": "view",
            "type": "function"
        },
        {
            "inputs": [],
            "name": "getGeneralCounsel",
            "outputs": [
                {
                    "internalType": "uint40",
                    "name": "",
                    "type": "uint40"
                }
            ],
            "stateMutability": "view",
            "type": "function"
        },
        {
            "inputs": [],
            "name": "getOwner",
            "outputs": [
                {
                    "internalType": "uint40",
                    "name": "",
                    "type": "uint40"
                }
            ],
            "stateMutability": "view",
            "type": "function"
        },
        {
            "inputs": [
                {
                    "internalType": "uint256",
                    "name": "seqOfShare",
                    "type": "uint256"
                },
                {
                    "internalType": "uint256",
                    "name": "seqOfPld",
                    "type": "uint256"
                }
            ],
            "name": "getPledge",
            "outputs": [
                {
                    "components": [
                        {
                            "components": [
                                {
                                    "internalType": "uint32",
                                    "name": "seqOfShare",
                                    "type": "uint32"
                                },
                                {
                                    "internalType": "uint16",
                                    "name": "seqOfPld",
                                    "type": "uint16"
                                },
                                {
                                    "internalType": "uint48",
                                    "name": "createDate",
                                    "type": "uint48"
                                },
                                {
                                    "internalType": "uint48",
                                    "name": "triggerDate",
                                    "type": "uint48"
                                },
                                {
                                    "internalType": "uint40",
                                    "name": "pledgor",
                                    "type": "uint40"
                                },
                                {
                                    "internalType": "uint40",
                                    "name": "debtor",
                                    "type": "uint40"
                                },
                                {
                                    "internalType": "uint32",
                                    "name": "data",
                                    "type": "uint32"
                                }
                            ],
                            "internalType": "struct PledgesRepo.Head",
                            "name": "head",
                            "type": "tuple"
                        },
                        {
                            "components": [
                                {
                                    "internalType": "uint40",
                                    "name": "creditor",
                                    "type": "uint40"
                                },
                                {
                                    "internalType": "uint16",
                                    "name": "guaranteeDays",
                                    "type": "uint16"
                                },
                                {
                                    "internalType": "uint64",
                                    "name": "paid",
                                    "type": "uint64"
                                },
                                {
                                    "internalType": "uint64",
                                    "name": "par",
                                    "type": "uint64"
                                },
                                {
                                    "internalType": "uint64",
                                    "name": "guaranteedAmt",
                                    "type": "uint64"
                                },
                                {
                                    "internalType": "uint8",
                                    "name": "state",
                                    "type": "uint8"
                                }
                            ],
                            "internalType": "struct PledgesRepo.Body",
                            "name": "body",
                            "type": "tuple"
                        },
                        {
                            "internalType": "bytes32",
                            "name": "hashLock",
                            "type": "bytes32"
                        }
                    ],
                    "internalType": "struct PledgesRepo.Pledge",
                    "name": "pld",
                    "type": "tuple"
                }
            ],
            "stateMutability": "view",
            "type": "function"
        },
        {
            "inputs": [
                {
                    "internalType": "uint256",
                    "name": "seqOfShare",
                    "type": "uint256"
                }
            ],
            "name": "getPledgesOfShare",
            "outputs": [
                {
                    "components": [
                        {
                            "components": [
                                {
                                    "internalType": "uint32",
                                    "name": "seqOfShare",
                                    "type": "uint32"
                                },
                                {
                                    "internalType": "uint16",
                                    "name": "seqOfPld",
                                    "type": "uint16"
                                },
                                {
                                    "internalType": "uint48",
                                    "name": "createDate",
                                    "type": "uint48"
                                },
                                {
                                    "internalType": "uint48",
                                    "name": "triggerDate",
                                    "type": "uint48"
                                },
                                {
                                    "internalType": "uint40",
                                    "name": "pledgor",
                                    "type": "uint40"
                                },
                                {
                                    "internalType": "uint40",
                                    "name": "debtor",
                                    "type": "uint40"
                                },
                                {
                                    "internalType": "uint32",
                                    "name": "data",
                                    "type": "uint32"
                                }
                            ],
                            "internalType": "struct PledgesRepo.Head",
                            "name": "head",
                            "type": "tuple"
                        },
                        {
                            "components": [
                                {
                                    "internalType": "uint40",
                                    "name": "creditor",
                                    "type": "uint40"
                                },
                                {
                                    "internalType": "uint16",
                                    "name": "guaranteeDays",
                                    "type": "uint16"
                                },
                                {
                                    "internalType": "uint64",
                                    "name": "paid",
                                    "type": "uint64"
                                },
                                {
                                    "internalType": "uint64",
                                    "name": "par",
                                    "type": "uint64"
                                },
                                {
                                    "internalType": "uint64",
                                    "name": "guaranteedAmt",
                                    "type": "uint64"
                                },
                                {
                                    "internalType": "uint8",
                                    "name": "state",
                                    "type": "uint8"
                                }
                            ],
                            "internalType": "struct PledgesRepo.Body",
                            "name": "body",
                            "type": "tuple"
                        },
                        {
                            "internalType": "bytes32",
                            "name": "hashLock",
                            "type": "bytes32"
                        }
                    ],
                    "internalType": "struct PledgesRepo.Pledge[]",
                    "name": "",
                    "type": "tuple[]"
                }
            ],
            "stateMutability": "view",
            "type": "function"
        },
        {
            "inputs": [],
            "name": "getSNList",
            "outputs": [
                {
                    "internalType": "uint256[]",
                    "name": "list",
                    "type": "uint256[]"
                }
            ],
            "stateMutability": "view",
            "type": "function"
        },
        {
            "inputs": [
                {
                    "internalType": "bytes32",
                    "name": "role",
                    "type": "bytes32"
                },
                {
                    "internalType": "uint256",
                    "name": "acct",
                    "type": "uint256"
                }
            ],
            "name": "grantRole",
            "outputs": [],
            "stateMutability": "nonpayable",
            "type": "function"
        },
        {
            "inputs": [
                {
                    "internalType": "bytes32",
                    "name": "role",
                    "type": "bytes32"
                },
                {
                    "internalType": "uint256",
                    "name": "acct",
                    "type": "uint256"
                }
            ],
            "name": "hasRole",
            "outputs": [
                {
                    "internalType": "bool",
                    "name": "",
                    "type": "bool"
                }
            ],
            "stateMutability": "view",
            "type": "function"
        },
        {
            "inputs": [
                {
                    "internalType": "uint256",
                    "name": "owner",
                    "type": "uint256"
                },
                {
                    "internalType": "address",
                    "name": "directKeeper",
                    "type": "address"
                },
                {
                    "internalType": "address",
                    "name": "regCenter",
                    "type": "address"
                },
                {
                    "internalType": "address",
                    "name": "generalKeeper",
                    "type": "address"
                }
            ],
            "name": "init",
            "outputs": [],
            "stateMutability": "nonpayable",
            "type": "function"
        },
        {
            "inputs": [
                {
                    "internalType": "uint256",
                    "name": "seqOfShare",
                    "type": "uint256"
                },
                {
                    "internalType": "uint256",
                    "name": "seqOfPledge",
                    "type": "uint256"
                }
            ],
            "name": "isPledge",
            "outputs": [
                {
                    "internalType": "bool",
                    "name": "",
                    "type": "bool"
                }
            ],
            "stateMutability": "view",
            "type": "function"
        },
        {
            "inputs": [
                {
                    "components": [
                        {
                            "internalType": "uint32",
                            "name": "seqOfShare",
                            "type": "uint32"
                        },
                        {
                            "internalType": "uint16",
                            "name": "seqOfPld",
                            "type": "uint16"
                        },
                        {
                            "internalType": "uint48",
                            "name": "createDate",
                            "type": "uint48"
                        },
                        {
                            "internalType": "uint48",
                            "name": "triggerDate",
                            "type": "uint48"
                        },
                        {
                            "internalType": "uint40",
                            "name": "pledgor",
                            "type": "uint40"
                        },
                        {
                            "internalType": "uint40",
                            "name": "debtor",
                            "type": "uint40"
                        },
                        {
                            "internalType": "uint32",
                            "name": "data",
                            "type": "uint32"
                        }
                    ],
                    "internalType": "struct PledgesRepo.Head",
                    "name": "head",
                    "type": "tuple"
                },
                {
                    "internalType": "uint256",
                    "name": "creditor",
                    "type": "uint256"
                },
                {
                    "internalType": "uint256",
                    "name": "guaranteeDays",
                    "type": "uint256"
                },
                {
                    "internalType": "uint256",
                    "name": "paid",
                    "type": "uint256"
                },
                {
                    "internalType": "uint256",
                    "name": "par",
                    "type": "uint256"
                },
                {
                    "internalType": "uint256",
                    "name": "guaranteedAmt",
                    "type": "uint256"
                }
            ],
            "name": "issuePledge",
            "outputs": [
                {
                    "components": [
                        {
                            "internalType": "uint32",
                            "name": "seqOfShare",
                            "type": "uint32"
                        },
                        {
                            "internalType": "uint16",
                            "name": "seqOfPld",
                            "type": "uint16"
                        },
                        {
                            "internalType": "uint48",
                            "name": "createDate",
                            "type": "uint48"
                        },
                        {
                            "internalType": "uint48",
                            "name": "triggerDate",
                            "type": "uint48"
                        },
                        {
                            "internalType": "uint40",
                            "name": "pledgor",
                            "type": "uint40"
                        },
                        {
                            "internalType": "uint40",
                            "name": "debtor",
                            "type": "uint40"
                        },
                        {
                            "internalType": "uint32",
                            "name": "data",
                            "type": "uint32"
                        }
                    ],
                    "internalType": "struct PledgesRepo.Head",
                    "name": "regHead",
                    "type": "tuple"
                }
            ],
            "stateMutability": "nonpayable",
            "type": "function"
        },
        {
            "inputs": [],
            "name": "lockContents",
            "outputs": [],
            "stateMutability": "nonpayable",
            "type": "function"
        },
        {
            "inputs": [
                {
                    "internalType": "uint256",
                    "name": "seqOfShare",
                    "type": "uint256"
                },
                {
                    "internalType": "uint256",
                    "name": "seqOfPld",
                    "type": "uint256"
                },
                {
                    "internalType": "bytes32",
                    "name": "hashLock",
                    "type": "bytes32"
                }
            ],
            "name": "lockPledge",
            "outputs": [
                {
                    "internalType": "bool",
                    "name": "flag",
                    "type": "bool"
                }
            ],
            "stateMutability": "nonpayable",
            "type": "function"
        },
        {
            "inputs": [
                {
                    "internalType": "uint256",
                    "name": "seqOfShare",
                    "type": "uint256"
                },
                {
                    "internalType": "uint256",
                    "name": "seqOfPld",
                    "type": "uint256"
                },
                {
                    "internalType": "uint256",
                    "name": "amt",
                    "type": "uint256"
                }
            ],
            "name": "refundDebt",
            "outputs": [
                {
                    "components": [
                        {
                            "components": [
                                {
                                    "internalType": "uint32",
                                    "name": "seqOfShare",
                                    "type": "uint32"
                                },
                                {
                                    "internalType": "uint16",
                                    "name": "seqOfPld",
                                    "type": "uint16"
                                },
                                {
                                    "internalType": "uint48",
                                    "name": "createDate",
                                    "type": "uint48"
                                },
                                {
                                    "internalType": "uint48",
                                    "name": "triggerDate",
                                    "type": "uint48"
                                },
                                {
                                    "internalType": "uint40",
                                    "name": "pledgor",
                                    "type": "uint40"
                                },
                                {
                                    "internalType": "uint40",
                                    "name": "debtor",
                                    "type": "uint40"
                                },
                                {
                                    "internalType": "uint32",
                                    "name": "data",
                                    "type": "uint32"
                                }
                            ],
                            "internalType": "struct PledgesRepo.Head",
                            "name": "head",
                            "type": "tuple"
                        },
                        {
                            "components": [
                                {
                                    "internalType": "uint40",
                                    "name": "creditor",
                                    "type": "uint40"
                                },
                                {
                                    "internalType": "uint16",
                                    "name": "guaranteeDays",
                                    "type": "uint16"
                                },
                                {
                                    "internalType": "uint64",
                                    "name": "paid",
                                    "type": "uint64"
                                },
                                {
                                    "internalType": "uint64",
                                    "name": "par",
                                    "type": "uint64"
                                },
                                {
                                    "internalType": "uint64",
                                    "name": "guaranteedAmt",
                                    "type": "uint64"
                                },
                                {
                                    "internalType": "uint8",
                                    "name": "state",
                                    "type": "uint8"
                                }
                            ],
                            "internalType": "struct PledgesRepo.Body",
                            "name": "body",
                            "type": "tuple"
                        },
                        {
                            "internalType": "bytes32",
                            "name": "hashLock",
                            "type": "bytes32"
                        }
                    ],
                    "internalType": "struct PledgesRepo.Pledge",
                    "name": "newPld",
                    "type": "tuple"
                }
            ],
            "stateMutability": "nonpayable",
            "type": "function"
        },
        {
            "inputs": [
                {
                    "components": [
                        {
                            "components": [
                                {
                                    "internalType": "uint32",
                                    "name": "seqOfShare",
                                    "type": "uint32"
                                },
                                {
                                    "internalType": "uint16",
                                    "name": "seqOfPld",
                                    "type": "uint16"
                                },
                                {
                                    "internalType": "uint48",
                                    "name": "createDate",
                                    "type": "uint48"
                                },
                                {
                                    "internalType": "uint48",
                                    "name": "triggerDate",
                                    "type": "uint48"
                                },
                                {
                                    "internalType": "uint40",
                                    "name": "pledgor",
                                    "type": "uint40"
                                },
                                {
                                    "internalType": "uint40",
                                    "name": "debtor",
                                    "type": "uint40"
                                },
                                {
                                    "internalType": "uint32",
                                    "name": "data",
                                    "type": "uint32"
                                }
                            ],
                            "internalType": "struct PledgesRepo.Head",
                            "name": "head",
                            "type": "tuple"
                        },
                        {
                            "components": [
                                {
                                    "internalType": "uint40",
                                    "name": "creditor",
                                    "type": "uint40"
                                },
                                {
                                    "internalType": "uint16",
                                    "name": "guaranteeDays",
                                    "type": "uint16"
                                },
                                {
                                    "internalType": "uint64",
                                    "name": "paid",
                                    "type": "uint64"
                                },
                                {
                                    "internalType": "uint64",
                                    "name": "par",
                                    "type": "uint64"
                                },
                                {
                                    "internalType": "uint64",
                                    "name": "guaranteedAmt",
                                    "type": "uint64"
                                },
                                {
                                    "internalType": "uint8",
                                    "name": "state",
                                    "type": "uint8"
                                }
                            ],
                            "internalType": "struct PledgesRepo.Body",
                            "name": "body",
                            "type": "tuple"
                        },
                        {
                            "internalType": "bytes32",
                            "name": "hashLock",
                            "type": "bytes32"
                        }
                    ],
                    "internalType": "struct PledgesRepo.Pledge",
                    "name": "pld",
                    "type": "tuple"
                }
            ],
            "name": "regPledge",
            "outputs": [
                {
                    "components": [
                        {
                            "internalType": "uint32",
                            "name": "seqOfShare",
                            "type": "uint32"
                        },
                        {
                            "internalType": "uint16",
                            "name": "seqOfPld",
                            "type": "uint16"
                        },
                        {
                            "internalType": "uint48",
                            "name": "createDate",
                            "type": "uint48"
                        },
                        {
                            "internalType": "uint48",
                            "name": "triggerDate",
                            "type": "uint48"
                        },
                        {
                            "internalType": "uint40",
                            "name": "pledgor",
                            "type": "uint40"
                        },
                        {
                            "internalType": "uint40",
                            "name": "debtor",
                            "type": "uint40"
                        },
                        {
                            "internalType": "uint32",
                            "name": "data",
                            "type": "uint32"
                        }
                    ],
                    "internalType": "struct PledgesRepo.Head",
                    "name": "head",
                    "type": "tuple"
                }
            ],
            "stateMutability": "nonpayable",
            "type": "function"
        },
        {
            "inputs": [
                {
                    "internalType": "uint256",
                    "name": "seqOfShare",
                    "type": "uint256"
                },
                {
                    "internalType": "uint256",
                    "name": "seqOfPld",
                    "type": "uint256"
                },
                {
                    "internalType": "string",
                    "name": "hashKey",
                    "type": "string"
                }
            ],
            "name": "releasePledge",
            "outputs": [
                {
                    "internalType": "bool",
                    "name": "flag",
                    "type": "bool"
                }
            ],
            "stateMutability": "nonpayable",
            "type": "function"
        },
        {
            "inputs": [
                {
                    "internalType": "bytes32",
                    "name": "role",
                    "type": "bytes32"
                }
            ],
            "name": "renounceRole",
            "outputs": [],
            "stateMutability": "nonpayable",
            "type": "function"
        },
        {
            "inputs": [
                {
                    "internalType": "uint256",
                    "name": "seqOfShare",
                    "type": "uint256"
                },
                {
                    "internalType": "uint256",
                    "name": "seqOfPld",
                    "type": "uint256"
                }
            ],
            "name": "revokePledge",
            "outputs": [
                {
                    "internalType": "bool",
                    "name": "flag",
                    "type": "bool"
                }
            ],
            "stateMutability": "nonpayable",
            "type": "function"
        },
        {
            "inputs": [
                {
                    "internalType": "bytes32",
                    "name": "role",
                    "type": "bytes32"
                },
                {
                    "internalType": "uint256",
                    "name": "acct",
                    "type": "uint256"
                }
            ],
            "name": "revokeRole",
            "outputs": [],
            "stateMutability": "nonpayable",
            "type": "function"
        },
        {
            "inputs": [
                {
                    "internalType": "address",
                    "name": "keeper",
                    "type": "address"
                }
            ],
            "name": "setDirectKeeper",
            "outputs": [],
            "stateMutability": "nonpayable",
            "type": "function"
        },
        {
            "inputs": [
                {
                    "internalType": "uint256",
                    "name": "acct",
                    "type": "uint256"
                }
            ],
            "name": "setGeneralCounsel",
            "outputs": [],
            "stateMutability": "nonpayable",
            "type": "function"
        },
        {
            "inputs": [
                {
                    "internalType": "uint256",
                    "name": "acct",
                    "type": "uint256"
                }
            ],
            "name": "setOwner",
            "outputs": [],
            "stateMutability": "nonpayable",
            "type": "function"
        },
        {
            "inputs": [
                {
                    "internalType": "bytes32",
                    "name": "role",
                    "type": "bytes32"
                },
                {
                    "internalType": "uint256",
                    "name": "acct",
                    "type": "uint256"
                }
            ],
            "name": "setRoleAdmin",
            "outputs": [],
            "stateMutability": "nonpayable",
            "type": "function"
        },
        {
            "inputs": [
                {
                    "internalType": "uint256",
                    "name": "seqOfShare",
                    "type": "uint256"
                },
                {
                    "internalType": "uint256",
                    "name": "seqOfPld",
                    "type": "uint256"
                },
                {
                    "internalType": "uint256",
                    "name": "buyer",
                    "type": "uint256"
                },
                {
                    "internalType": "uint256",
                    "name": "amt",
                    "type": "uint256"
                }
            ],
            "name": "transferPledge",
            "outputs": [
                {
                    "components": [
                        {
                            "components": [
                                {
                                    "internalType": "uint32",
                                    "name": "seqOfShare",
                                    "type": "uint32"
                                },
                                {
                                    "internalType": "uint16",
                                    "name": "seqOfPld",
                                    "type": "uint16"
                                },
                                {
                                    "internalType": "uint48",
                                    "name": "createDate",
                                    "type": "uint48"
                                },
                                {
                                    "internalType": "uint48",
                                    "name": "triggerDate",
                                    "type": "uint48"
                                },
                                {
                                    "internalType": "uint40",
                                    "name": "pledgor",
                                    "type": "uint40"
                                },
                                {
                                    "internalType": "uint40",
                                    "name": "debtor",
                                    "type": "uint40"
                                },
                                {
                                    "internalType": "uint32",
                                    "name": "data",
                                    "type": "uint32"
                                }
                            ],
                            "internalType": "struct PledgesRepo.Head",
                            "name": "head",
                            "type": "tuple"
                        },
                        {
                            "components": [
                                {
                                    "internalType": "uint40",
                                    "name": "creditor",
                                    "type": "uint40"
                                },
                                {
                                    "internalType": "uint16",
                                    "name": "guaranteeDays",
                                    "type": "uint16"
                                },
                                {
                                    "internalType": "uint64",
                                    "name": "paid",
                                    "type": "uint64"
                                },
                                {
                                    "internalType": "uint64",
                                    "name": "par",
                                    "type": "uint64"
                                },
                                {
                                    "internalType": "uint64",
                                    "name": "guaranteedAmt",
                                    "type": "uint64"
                                },
                                {
                                    "internalType": "uint8",
                                    "name": "state",
                                    "type": "uint8"
                                }
                            ],
                            "internalType": "struct PledgesRepo.Body",
                            "name": "body",
                            "type": "tuple"
                        },
                        {
                            "internalType": "bytes32",
                            "name": "hashLock",
                            "type": "bytes32"
                        }
                    ],
                    "internalType": "struct PledgesRepo.Pledge",
                    "name": "newPld",
                    "type": "tuple"
                }
            ],
            "stateMutability": "nonpayable",
            "type": "function"
        }
    ],
    "bytecode": "608060405234801561001057600080fd5b50612ea4806100206000396000f3fe608060405234801561001057600080fd5b50600436106101da5760003560e01c80636fe4944311610104578063b3f05b97116100a2578063ed21102311610071578063ed21102314610471578063f045a76914610491578063f424672b14610499578063f671e821146104ac57600080fd5b8063b3f05b9714610422578063dc890da914610436578063e87a6f1814610449578063e9c733d21461045e57600080fd5b8063893d20e8116100de578063893d20e8146103e15780638bb9c5bf146103e95780639a3c29ce146103fc578063a023707d1461040f57600080fd5b80636fe49443146103a85780637e063c5a146103bb5780638041494e146103ce57600080fd5b80633c8515921161017c5780635171ebd41161014b5780635171ebd4146103235780635690364b1461033657806361d65d55146103755780636be8496f1461039557600080fd5b80633c851592146102d75780633da9a600146102ea5780634a14beb1146102fd578063502353071461031057600080fd5b80631b6ea9f9116101b85780631b6ea9f914610237578063205969bd1461024a5780632d5562ca1461026d5780632e667364146102b757600080fd5b8063103f6edd146101df57806319d61ad9146102025780631b684d2714610217575b600080fd5b6101e76104bf565b60405164ffffffffff90911681526020015b60405180910390f35b610215610210366004612381565b61054b565b005b61022a610225366004612566565b6105dd565b6040516101f991906126a6565b610215610245366004612381565b61079f565b61025d6102583660046126b4565b6107c5565b60405190151581526020016101f9565b6102a461027b3660046126e0565b6000908152600460209081526040808320838052909152902054640100000000900461ffff1690565b60405161ffff90911681526020016101f9565b6102ca6102c53660046126e0565b610951565b6040516101f9919061277e565b6102156102e53660046126b4565b6109e7565b6102156102f83660046126e0565b610b46565b61021561030b3660046126e0565b610bd1565b61025d61031e3660046127cd565b610e2e565b610215610331366004612381565b610f9c565b61025d610344366004612381565b60009182526004602090815260408084209284529190529020546601000000000000900465ffffffffffff16151590565b6103886103833660046126b4565b610fc2565b6040516101f99190612874565b6102156103a3366004612898565b611145565b61022a6103b63660046128b5565b6111f7565b61025d6103c9366004612381565b6113f8565b6102156103dc3660046126e0565b61148c565b6101e7611545565b6102156103f73660046126e0565b611580565b61022a61040a3660046128f8565b6115a5565b61038861041d366004612948565b611732565b60028054600160f01b900460ff161461025d565b61021561044436600461297a565b611948565b610451611a2a565b6040516101f991906129cd565b61025d61046c366004612381565b611ab3565b610479611c34565b6040516001600160a01b0390911681526020016101f9565b610215611cba565b61025d6104a7366004612381565b611efe565b6103886104ba366004612381565b61206e565b60405163e8c0cc1d60e01b81526002600482015260009073__$364aad554dc80380f414546becdd2c1584$__9063e8c0cc1d906024015b60206040518083038186803b15801561050e57600080fd5b505af4158015610522573d6000803e3d6000fd5b505050506040513d601f19601f820116820180604052508101906105469190612a05565b905090565b73__$364aad554dc80380f414546becdd2c1584$__6382daafaa600284846105716121a8565b6040516001600160e01b031960e087901b16815260048101949094526024840192909252604483015264ffffffffff16606482015260840160006040518083038186803b1580156105c157600080fd5b505af41580156105d5573d6000803e3d6000fd5b505050505050565b6105e56122f0565b6001546040516335d2155560e11b81523360048201526001600160a01b0390911690636ba42aaa9060240160206040518083038186803b15801561062857600080fd5b505afa15801561063c573d6000803e3d6000fd5b505050506040513d601f19601f820116820180604052508101906106609190612a22565b6106855760405162461bcd60e51b815260040161067c90612a44565b60405180910390fd5b604051637186e27b60e11b815273__$d113c86820c60155271829fbf7bae741f8$__9063e30dc4f6906106be9060049086908201612a6f565b60e06040518083038186803b1580156106d657600080fd5b505af41580156106ea573d6000803e3d6000fd5b505050506040513d601f19601f8201168201806040525081019061070e9190612b45565b8051602080830151908501518051604080830151606090930151905195965063ffffffff909416947f16213a639c46506f76c6a61007876a778304be1c6840d8a1259ca1876ac0a7bd9461079294939161ffff94909416845264ffffffffff9290921660208401526001600160401b03908116604084015216606082015260800190565b60405180910390a2919050565b73__$364aad554dc80380f414546becdd2c1584$__636320d75e600284846105716121a8565b6001546040516335d2155560e11b81523360048201526000916001600160a01b031690636ba42aaa9060240160206040518083038186803b15801561080957600080fd5b505afa15801561081d573d6000803e3d6000fd5b505050506040513d601f19601f820116820180604052508101906108419190612a22565b61085d5760405162461bcd60e51b815260040161067c90612a44565b600084815260046020818152604080842087855290915291829020915163079b82ff60e21b815273__$d113c86820c60155271829fbf7bae741f8$__92631e6e0bfc926108b592879101918252602082015260400190565b60206040518083038186803b1580156108cd57600080fd5b505af41580156108e1573d6000803e3d6000fd5b505050506040513d601f19601f820116820180604052508101906109059190612a22565b1561094a57604080518481526020810184905285917f22ac25240b57ed81a9a3f354cdfea8d776f1f91ed79af77ebf0ea78839015fbb91015b60405180910390a25060015b9392505050565b604051639e1adb1f60e01b81526004808201526024810182905260609073__$d113c86820c60155271829fbf7bae741f8$__90639e1adb1f9060440160006040518083038186803b1580156109a557600080fd5b505af41580156109b9573d6000803e3d6000fd5b505050506040513d6000823e601f3d908101601f191682016040526109e19190810190612c54565b92915050565b6001546040516335d2155560e11b81523360048201526001600160a01b0390911690636ba42aaa9060240160206040518083038186803b158015610a2a57600080fd5b505afa158015610a3e573d6000803e3d6000fd5b505050506040513d601f19601f82011682018060405250810190610a629190612a22565b610a7e5760405162461bcd60e51b815260040161067c90612a44565b60008381526004602081815260408084208685529091529182902091516323db034d60e01b815273__$d113c86820c60155271829fbf7bae741f8$__926323db034d92610ad692869101918252602082015260400190565b60006040518083038186803b158015610aee57600080fd5b505af4158015610b02573d6000803e3d6000fd5b505060408051858152602081018590528693507f57d3cc740936f1e626db29598eb1dd08e59719f04f860cb544695c1bda2439f092500160405180910390a2505050565b73__$364aad554dc80380f414546becdd2c1584$__63c51b295f600283610b6b6121a8565b6040516001600160e01b031960e086901b1681526004810193909352602483019190915264ffffffffff16604482015260640160006040518083038186803b158015610bb657600080fd5b505af4158015610bca573d6000803e3d6000fd5b5050505050565b604051633b11adbf60e21b81526002600482015233602482015273__$364aad554dc80380f414546becdd2c1584$__9063ec46b6fc9060440160206040518083038186803b158015610c2257600080fd5b505af4158015610c36573d6000803e3d6000fd5b505050506040513d601f19601f82011682018060405250810190610c5a9190612a22565b80610cff575073__$364aad554dc80380f414546becdd2c1584$__63fe2710866002610c846121a8565b6040516001600160e01b031960e085901b168152600481019290925264ffffffffff16602482015260440160206040518083038186803b158015610cc757600080fd5b505af4158015610cdb573d6000803e3d6000fd5b505050506040513d601f19601f82011682018060405250810190610cff9190612a22565b610d6a5760405162461bcd60e51b815260206004820152603660248201527f41432e6f776e65724f72446972656374426f6f6b65657065723a206e6569746860448201527532b91037bbb732b9103737b9103137b7b5b2b2b832b960511b606482015260840161067c565b73__$364aad554dc80380f414546becdd2c1584$__639b4510de600283610d8f6121a8565b6040516001600160e01b031960e086901b1681526004810193909352602483019190915264ffffffffff16604482015260640160006040518083038186803b158015610dda57600080fd5b505af4158015610dee573d6000803e3d6000fd5b505050507ff2735f34b69be1e6342dea95f9162f84d0db925fab655ca9f1f312ac8cbfc99d81604051610e2391815260200190565b60405180910390a150565b6001546040516335d2155560e11b81523360048201526000916001600160a01b031690636ba42aaa9060240160206040518083038186803b158015610e7257600080fd5b505afa158015610e86573d6000803e3d6000fd5b505050506040513d601f19601f82011682018060405250810190610eaa9190612a22565b610ec65760405162461bcd60e51b815260040161067c90612a44565b6000848152600460208181526040808420878552909152918290209151637689d68b60e01b815273__$d113c86820c60155271829fbf7bae741f8$__92637689d68b92610f1592879101612d40565b60206040518083038186803b158015610f2d57600080fd5b505af4158015610f41573d6000803e3d6000fd5b505050506040513d601f19601f82011682018060405250810190610f659190612a22565b1561094a57837faa23da4927c0392e16dd5999d025e6b3229208a541ab284af9e4e03b189fe263848460405161093e929190612d40565b73__$364aad554dc80380f414546becdd2c1584$__63ee98b313600284846105716121a8565b610fca61232c565b6001546040516335d2155560e11b81523360048201526001600160a01b0390911690636ba42aaa9060240160206040518083038186803b15801561100d57600080fd5b505afa158015611021573d6000803e3d6000fd5b505050506040513d601f19601f820116820180604052508101906110459190612a22565b6110615760405162461bcd60e51b815260040161067c90612a44565b604051630f6f3a5960e41b81526004808201526024810185905260448101849052600060648201526084810183905273__$d113c86820c60155271829fbf7bae741f8$__9063f6f3a5909060a4016101c06040518083038186803b1580156110c857600080fd5b505af41580156110dc573d6000803e3d6000fd5b505050506040513d601f19601f820116820180604052508101906111009190612d61565b604080518581526020810185905291925085917feda318b681a6fefde71d5c8ab67ec3b13df92a65135f6ba8e3c1187372e38175910160405180910390a29392505050565b604051630f07232560e01b8152600260048201526001600160a01b038216602482015233604482015273__$364aad554dc80380f414546becdd2c1584$__90630f0723259060640160006040518083038186803b1580156111a557600080fd5b505af41580156111b9573d6000803e3d6000fd5b50506040516001600160a01b03841681527fe435cbeab64e4eae6497b9d8289704bd709d624a80704ef3ca9af777534bc6ec92506020019050610e23565b6111ff6122f0565b604051633b11adbf60e21b81526002600482015233602482015273__$364aad554dc80380f414546becdd2c1584$__9063ec46b6fc9060440160206040518083038186803b15801561125057600080fd5b505af4158015611264573d6000803e3d6000fd5b505050506040513d601f19601f820116820180604052508101906112889190612a22565b6112e35760405162461bcd60e51b815260206004820152602660248201527f41432e6f6e6c794469726563744b65657065723a206e6f74206469726563742060448201526535b2b2b832b960d11b606482015260840161067c565b60405163130d0b9360e11b81526004808201526024810188905260448101879052606481018690526084810185905260a4810184905260c4810183905273__$d113c86820c60155271829fbf7bae741f8$__9063261a17269060e40160e06040518083038186803b15801561135757600080fd5b505af415801561136b573d6000803e3d6000fd5b505050506040513d601f19601f8201168201806040525081019061138f9190612b45565b80516020808301516040805161ffff90921682529181018a90529081018790526060810186905291925063ffffffff16907f16213a639c46506f76c6a61007876a778304be1c6840d8a1259ca1876ac0a7bd906080015b60405180910390a29695505050505050565b604051632a3be56b60e21b815260026004820152602481018390526044810182905260009073__$364aad554dc80380f414546becdd2c1584$__9063a8ef95ac9060640160206040518083038186803b15801561145457600080fd5b505af4158015611468573d6000803e3d6000fd5b505050506040513d601f19601f8201168201806040525081019061094a9190612a22565b73__$364aad554dc80380f414546becdd2c1584$__639b48160c6002836114b16121a8565b6040516001600160e01b031960e086901b1681526004810193909352602483019190915264ffffffffff16604482015260640160006040518083038186803b1580156114fc57600080fd5b505af4158015611510573d6000803e3d6000fd5b505050507f8b6f40f36b4ae8cc5f55e895036457c43da4ab1f80f58c46f5ff0d72a650033b81604051610e2391815260200190565b60405163987ad15360e01b81526002600482015260009073__$364aad554dc80380f414546becdd2c1584$__9063987ad153906024016104f6565b73__$364aad554dc80380f414546becdd2c1584$__63cc0d511b600283610b6b6121a8565b6115ad6122f0565b6001546040516335d2155560e11b81523360048201526001600160a01b0390911690636ba42aaa9060240160206040518083038186803b1580156115f057600080fd5b505afa158015611604573d6000803e3d6000fd5b505050506040513d601f19601f820116820180604052508101906116289190612a22565b6116445760405162461bcd60e51b815260040161067c90612a44565b604051633682ae6960e11b815273__$d113c86820c60155271829fbf7bae741f8$__90636d055cd290611687906004908b908b908b908b908b908b908701612d7e565b60e06040518083038186803b15801561169f57600080fd5b505af41580156116b3573d6000803e3d6000fd5b505050506040513d601f19601f820116820180604052508101906116d79190612b45565b87516020808a01516040805161ffff90921682529181018a90529081018790526060810186905291925063ffffffff16907f16213a639c46506f76c6a61007876a778304be1c6840d8a1259ca1876ac0a7bd906080016113e6565b61173a61232c565b6001546040516335d2155560e11b81523360048201526001600160a01b0390911690636ba42aaa9060240160206040518083038186803b15801561177d57600080fd5b505afa158015611791573d6000803e3d6000fd5b505050506040513d601f19601f820116820180604052508101906117b59190612a22565b6117d15760405162461bcd60e51b815260040161067c90612a44565b600083116118165760405162461bcd60e51b81526020600482015260126024820152712127a8172a281d103d32b93790313abcb2b960711b604482015260640161067c565b604051630f6f3a5960e41b81526004808201526024810186905260448101859052606481018490526084810183905273__$d113c86820c60155271829fbf7bae741f8$__9063f6f3a5909060a4016101c06040518083038186803b15801561187d57600080fd5b505af4158015611891573d6000803e3d6000fd5b505050506040513d601f19601f820116820180604052508101906118b59190612d61565b8051805160209182015182840151805160408083015160609384015182518d815261ffff9096169786019790975264ffffffffff909216848201526001600160401b03918216928401929092529093166080820152915192935063ffffffff16917fa8c5eace48f10e75f99f4b2e92222072bb757089c357ffd4267f97249c6022c69181900360a00190a2949350505050565b604051636cdd0edf60e11b815260026004820152602481018590526001600160a01b038416604482015273__$364aad554dc80380f414546becdd2c1584$__9063d9ba1dbe9060640160006040518083038186803b1580156119a957600080fd5b505af41580156119bd573d6000803e3d6000fd5b505050506119ca82612202565b6119d381612275565b604080518581526001600160a01b038581166020830152848116828401528316606082015290517f3abb2418c66fe32ba9c883030a75ce583971d9af9192b9b74e44e67c5e6c8c1f9181900360800190a150505050565b6040516393f7eb1960e01b815260048082015260609073__$d113c86820c60155271829fbf7bae741f8$__906393f7eb199060240160006040518083038186803b158015611a7757600080fd5b505af4158015611a8b573d6000803e3d6000fd5b505050506040513d6000823e601f3d908101601f191682016040526105469190810190612dc1565b6001546040516335d2155560e11b81523360048201526000916001600160a01b031690636ba42aaa9060240160206040518083038186803b158015611af757600080fd5b505afa158015611b0b573d6000803e3d6000fd5b505050506040513d601f19601f82011682018060405250810190611b2f9190612a22565b611b4b5760405162461bcd60e51b815260040161067c90612a44565b6000838152600460208181526040808420868552909152918290209151630c6bcfc760e31b815273__$d113c86820c60155271829fbf7bae741f8$__9263635e7e3892611b9c920190815260200190565b60206040518083038186803b158015611bb457600080fd5b505af4158015611bc8573d6000803e3d6000fd5b505050506040513d601f19601f82011682018060405250810190611bec9190612a22565b156109e157827f78402161cd0b480b185df229c7caeffedd2aca31d8fbc71e227a45faab07cb1c83604051611c2391815260200190565b60405180910390a250600192915050565b604051633c3e56c160e11b81526002600482015260009073__$364aad554dc80380f414546becdd2c1584$__9063787cad829060240160206040518083038186803b158015611c8257600080fd5b505af4158015611c96573d6000803e3d6000fd5b505050506040513d601f19601f820116820180604052508101906105469190612e51565b600254600160f01b900460ff16600114611d165760405162461bcd60e51b815260206004820152601760248201527f41432e4c433a20446f632069732066696e616c697a6564000000000000000000604482015260640161067c565b73__$364aad554dc80380f414546becdd2c1584$__63c51b295f6002684174746f726e65797360b81b611d476121a8565b6040516001600160e01b031960e086901b1681526004810193909352602483019190915264ffffffffff16604482015260640160006040518083038186803b158015611d9257600080fd5b505af4158015611da6573d6000803e3d6000fd5b50505050600273__$364aad554dc80380f414546becdd2c1584$__639b4510de90916000611dd26121a8565b6040516001600160e01b031960e086901b1681526004810193909352602483019190915264ffffffffff16604482015260640160006040518083038186803b158015611e1d57600080fd5b505af4158015611e31573d6000803e3d6000fd5b50505050600273__$364aad554dc80380f414546becdd2c1584$__639b48160c90916000611e5d6121a8565b6040516001600160e01b031960e086901b1681526004810193909352602483019190915264ffffffffff16604482015260640160006040518083038186803b158015611ea857600080fd5b505af4158015611ebc573d6000803e3d6000fd5b50506002805460ff60f01b1916600160f11b17905550506040517f35012b512309c322acf68632cd6cb702ff0e1d776fbe9394e38ffc13b434fe7590600090a1565b6001546040516335d2155560e11b81523360048201526000916001600160a01b031690636ba42aaa9060240160206040518083038186803b158015611f4257600080fd5b505afa158015611f56573d6000803e3d6000fd5b505050506040513d601f19601f82011682018060405250810190611f7a9190612a22565b611f965760405162461bcd60e51b815260040161067c90612a44565b6000838152600460208181526040808420868552909152918290209151635bbae7f560e11b815273__$d113c86820c60155271829fbf7bae741f8$__9263b775cfea92611fe7920190815260200190565b60206040518083038186803b158015611fff57600080fd5b505af4158015612013573d6000803e3d6000fd5b505050506040513d601f19601f820116820180604052508101906120379190612a22565b156109e157827f47940b7029002299c9badb3d62d4f2d1596185044d62c18613dc775053a4914f83604051611c2391815260200190565b61207661232c565b50600091825260046020908152604080842092845291815291819020815161014081018352815463ffffffff808216606080850191825261ffff6401000000008504811660808088019190915265ffffffffffff66010000000000008704811660a0808a0191909152600160601b880490911660c0808a019190915264ffffffffff600160901b8904811660e08b0152600160b81b808a0482166101008c0152600160e01b9099049097166101208a015294885289519485018a5260018901549586168552650100000000008604909216848b01526001600160401b0367010000000000000086048116858b0152600160781b86048116938501939093529484049091169382019390935260ff600160f81b909204919091169181019190915293810193909352600201549082015290565b60008054604051636ae3b70d60e11b81523360048201526001600160a01b039091169063d5c76e1a90602401602060405180830381600087803b1580156121ee57600080fd5b505af1158015610522573d6000803e3d6000fd5b6000546001600160a01b0316156122535760405162461bcd60e51b815260206004820152601560248201527430b63932b0b23c9039b2ba103932b3a1b2b73a32b960591b604482015260640161067c565b600080546001600160a01b0319166001600160a01b0392909216919091179055565b6001546001600160a01b0316156122ce5760405162461bcd60e51b815260206004820152601960248201527f616c7265616479207365742067656e6572616c4b656570657200000000000000604482015260640161067c565b600180546001600160a01b0319166001600160a01b0392909216919091179055565b6040805160e081018252600080825260208201819052918101829052606081018290526080810182905260a0810182905260c081019190915290565b604051806060016040528061233f6122f0565b81526040805160c08101825260008082526020828101829052928201819052606082018190526080820181905260a08201529101908152600060209091015290565b6000806040838503121561239457600080fd5b50508035926020909101359150565b634e487b7160e01b600052604160045260246000fd5b60405160e081016001600160401b03811182821017156123db576123db6123a3565b60405290565b604051606081016001600160401b03811182821017156123db576123db6123a3565b60405160c081016001600160401b03811182821017156123db576123db6123a3565b604051601f8201601f191681016001600160401b038111828210171561244d5761244d6123a3565b604052919050565b63ffffffff8116811461246757600080fd5b50565b61ffff8116811461246757600080fd5b65ffffffffffff8116811461246757600080fd5b64ffffffffff8116811461246757600080fd5b600060e082840312156124b357600080fd5b6124bb6123b9565b905081356124c881612455565b815260208201356124d88161246a565b602082015260408201356124eb8161247a565b604082015260608201356124fe8161247a565b606082015260808201356125118161248e565b608082015260a08201356125248161248e565b60a082015260c082013561253781612455565b60c082015292915050565b6001600160401b038116811461246757600080fd5b60ff8116811461246757600080fd5b60008183036101c081121561257a57600080fd5b6125826123e1565b61258c85856124a1565b815260c060df19830112156125a057600080fd5b6125a8612403565b915060e08401356125b88161248e565b82526101008401356125c98161246a565b60208301526101208401356125dd81612542565b60408301526101408401356125f181612542565b606083015261016084013561260581612542565b608083015261018084013561261981612557565b60a083015260208101919091526101a09290920135604083015250919050565b63ffffffff80825116835261ffff6020830151166020840152604082015165ffffffffffff80821660408601528060608501511660608601525050608082015164ffffffffff80821660808601528060a08501511660a086015250508060c08301511660c0840152505050565b60e081016109e18284612639565b6000806000606084860312156126c957600080fd5b505081359360208301359350604090920135919050565b6000602082840312156126f257600080fd5b5035919050565b64ffffffffff815116825261ffff602082015116602083015260408101516001600160401b038082166040850152806060840151166060850152806080840151166080850152505060ff60a08201511660a08301525050565b61275d828251612639565b602081015161276f60e08401826126f9565b50604001516101a09190910152565b6020808252825182820181905260009190848201906040850190845b818110156127c1576127ad838551612752565b928401926101c0929092019160010161279a565b50909695505050505050565b6000806000606084860312156127e257600080fd5b83359250602080850135925060408501356001600160401b038082111561280857600080fd5b818701915087601f83011261281c57600080fd5b81358181111561282e5761282e6123a3565b612840601f8201601f19168501612425565b9150808252888482850101111561285657600080fd5b80848401858401376000848284010152508093505050509250925092565b6101c081016109e18284612752565b6001600160a01b038116811461246757600080fd5b6000602082840312156128aa57600080fd5b813561094a81612883565b60008060008060008060c087890312156128ce57600080fd5b505084359660208601359650604086013595606081013595506080810135945060a0013592509050565b600080600080600080610180878903121561291257600080fd5b61291c88886124a1565b9860e0880135985061010088013597610120810135975061014081013596506101600135945092505050565b6000806000806080858703121561295e57600080fd5b5050823594602084013594506040840135936060013592509050565b6000806000806080858703121561299057600080fd5b8435935060208501356129a281612883565b925060408501356129b281612883565b915060608501356129c281612883565b939692955090935050565b6020808252825182820181905260009190848201906040850190845b818110156127c1578351835292840192918401916001016129e9565b600060208284031215612a1757600080fd5b815161094a8161248e565b600060208284031215612a3457600080fd5b8151801515811461094a57600080fd5b60208082526011908201527020a19737b59d103737ba1025b2b2b832b960791b604082015260600190565b60006101e082019050838252612a89602083018451612639565b6020830151612a9c6101008401826126f9565b5060408301516101c08301529392505050565b600060e08284031215612ac157600080fd5b612ac96123b9565b90508151612ad681612455565b81526020820151612ae68161246a565b60208201526040820151612af98161247a565b60408201526060820151612b0c8161247a565b60608201526080820151612b1f8161248e565b608082015260a0820151612b328161248e565b60a082015260c082015161253781612455565b600060e08284031215612b5757600080fd5b61094a8383612aaf565b60006001600160401b03821115612b7a57612b7a6123a3565b5060051b60200190565b60008183036101c0811215612b9857600080fd5b612ba06123e1565b9150612bac8484612aaf565b825260c060df1982011215612bc057600080fd5b50612bc9612403565b60e0830151612bd78161248e565b8152610100830151612be88161246a565b6020820152610120830151612bfc81612542565b6040820152610140830151612c1081612542565b6060820152610160830151612c2481612542565b6080820152610180830151612c3881612557565b60a082015260208201526101a091909101516040820152919050565b60006020808385031215612c6757600080fd5b82516001600160401b03811115612c7d57600080fd5b8301601f81018513612c8e57600080fd5b8051612ca1612c9c82612b61565b612425565b8181526101c09182028301840191848201919088841115612cc157600080fd5b938501935b83851015612ce757612cd88986612b84565b83529384019391850191612cc6565b50979650505050505050565b6000815180845260005b81811015612d1957602081850181015186830182015201612cfd565b81811115612d2b576000602083870101525b50601f01601f19169290920160200192915050565b828152604060208201526000612d596040830184612cf3565b949350505050565b60006101c08284031215612d7457600080fd5b61094a8383612b84565b8781526101a08101612d936020830189612639565b6101008201969096526101208101949094526101408401929092526101608301526101809091015292915050565b60006020808385031215612dd457600080fd5b82516001600160401b03811115612dea57600080fd5b8301601f81018513612dfb57600080fd5b8051612e09612c9c82612b61565b81815260059190911b82018301908381019087831115612e2857600080fd5b928401925b82841015612e4657835182529284019290840190612e2d565b979650505050505050565b600060208284031215612e6357600080fd5b815161094a8161288356fea264697066735822122060b6ca3145521986ce8c3c3d02e584fd4a27f16c7099a9a361786ecaf278269f64736f6c63430008080033",
    "sourcePath": "/Users/kaptain/github.com/hardhat/comboox/contracts/books/bop/BookOfPledges.sol",
    "compiler": {
        "name": "solc",
        "version": "0.8.8+commit.dddeac2f"
    },
    "functionHashes": {
        "abandonRole(bytes32)": "3da9a600",
        "counterOfPledges(uint256)": "2d5562ca",
        "createPledge(uint256,uint256,uint256,uint256,uint256,uint256)": "6fe49443",
        "execPledge(uint256,uint256)": "e9c733d2",
        "extendPledge(uint256,uint256,uint256)": "3c851592",
        "finalized()": "b3f05b97",
        "getBookeeper()": "ed211023",
        "getGeneralCounsel()": "103f6edd",
        "getOwner()": "893d20e8",
        "getPledge(uint256,uint256)": "f671e821",
        "getPledgesOfShare(uint256)": "2e667364",
        "getSNList()": "e87a6f18",
        "grantRole(bytes32,uint256)": "1b6ea9f9",
        "hasRole(bytes32,uint256)": "7e063c5a",
        "init(uint256,address,address,address)": "dc890da9",
        "isPledge(uint256,uint256)": "5690364b",
        "issuePledge((uint32,uint16,uint48,uint48,uint40,uint40,uint32),uint256,uint256,uint256,uint256,uint256)": "9a3c29ce",
        "lockContents()": "f045a769",
        "lockPledge(uint256,uint256,bytes32)": "205969bd",
        "refundDebt(uint256,uint256,uint256)": "61d65d55",
        "regPledge(((uint32,uint16,uint48,uint48,uint40,uint40,uint32),(uint40,uint16,uint64,uint64,uint64,uint8),bytes32))": "1b684d27",
        "releasePledge(uint256,uint256,string)": "50235307",
        "renounceRole(bytes32)": "8bb9c5bf",
        "revokePledge(uint256,uint256)": "f424672b",
        "revokeRole(bytes32,uint256)": "19d61ad9",
        "setDirectKeeper(address)": "6be8496f",
        "setGeneralCounsel(uint256)": "4a14beb1",
        "setOwner(uint256)": "8041494e",
        "setRoleAdmin(bytes32,uint256)": "5171ebd4",
        "transferPledge(uint256,uint256,uint256,uint256)": "a023707d"
    },
    "gasEstimates": {
        "creation": {
            "codeDepositCost": "2388000",
            "executionCost": "2568",
            "totalCost": "2390568"
        },
        "external": {
            "abandonRole(bytes32)": "infinite",
            "counterOfPledges(uint256)": "2626",
            "createPledge(uint256,uint256,uint256,uint256,uint256,uint256)": "infinite",
            "execPledge(uint256,uint256)": "infinite",
            "extendPledge(uint256,uint256,uint256)": "infinite",
            "finalized()": "2372",
            "getBookeeper()": "infinite",
            "getGeneralCounsel()": "infinite",
            "getOwner()": "infinite",
            "getPledge(uint256,uint256)": "8594",
            "getPledgesOfShare(uint256)": "infinite",
            "getSNList()": "infinite",
            "grantRole(bytes32,uint256)": "infinite",
            "hasRole(bytes32,uint256)": "infinite",
            "init(uint256,address,address,address)": "infinite",
            "isPledge(uint256,uint256)": "2629",
            "issuePledge((uint32,uint16,uint48,uint48,uint40,uint40,uint32),uint256,uint256,uint256,uint256,uint256)": "infinite",
            "lockContents()": "infinite",
            "lockPledge(uint256,uint256,bytes32)": "infinite",
            "refundDebt(uint256,uint256,uint256)": "infinite",
            "regPledge(((uint32,uint16,uint48,uint48,uint40,uint40,uint32),(uint40,uint16,uint64,uint64,uint64,uint8),bytes32))": "infinite",
            "releasePledge(uint256,uint256,string)": "infinite",
            "renounceRole(bytes32)": "infinite",
            "revokePledge(uint256,uint256)": "infinite",
            "revokeRole(bytes32,uint256)": "infinite",
            "setDirectKeeper(address)": "infinite",
            "setGeneralCounsel(uint256)": "infinite",
            "setOwner(uint256)": "infinite",
            "setRoleAdmin(bytes32,uint256)": "infinite",
            "transferPledge(uint256,uint256,uint256,uint256)": "infinite"
        }
    }
}