{
    "contractName": "BookOfPledges",
    "abi": [
        {
            "anonymous": false,
            "inputs": [
                {
                    "indexed": true,
                    "internalType": "uint256",
                    "name": "seqOfShare",
                    "type": "uint256"
                },
                {
                    "indexed": false,
                    "internalType": "uint256",
                    "name": "seqOfPld",
                    "type": "uint256"
                },
                {
                    "indexed": false,
                    "internalType": "uint256",
                    "name": "creditor",
                    "type": "uint256"
                },
                {
                    "indexed": false,
                    "internalType": "uint256",
                    "name": "paid",
                    "type": "uint256"
                },
                {
                    "indexed": false,
                    "internalType": "uint256",
                    "name": "par",
                    "type": "uint256"
                }
            ],
            "name": "CreatePledge",
            "type": "event"
        },
        {
            "anonymous": false,
            "inputs": [
                {
                    "indexed": true,
                    "internalType": "uint256",
                    "name": "seqOfShare",
                    "type": "uint256"
                },
                {
                    "indexed": false,
                    "internalType": "uint256",
                    "name": "seqOfPld",
                    "type": "uint256"
                }
            ],
            "name": "ExecPledge",
            "type": "event"
        },
        {
            "anonymous": false,
            "inputs": [
                {
                    "indexed": true,
                    "internalType": "uint256",
                    "name": "seqOfShare",
                    "type": "uint256"
                },
                {
                    "indexed": false,
                    "internalType": "uint256",
                    "name": "seqOfPld",
                    "type": "uint256"
                },
                {
                    "indexed": false,
                    "internalType": "uint256",
                    "name": "extDays",
                    "type": "uint256"
                }
            ],
            "name": "ExtendPledge",
            "type": "event"
        },
        {
            "anonymous": false,
            "inputs": [
                {
                    "indexed": false,
                    "internalType": "uint256",
                    "name": "owner",
                    "type": "uint256"
                },
                {
                    "indexed": false,
                    "internalType": "address",
                    "name": "directKeeper",
                    "type": "address"
                },
                {
                    "indexed": false,
                    "internalType": "address",
                    "name": "regCenter",
                    "type": "address"
                },
                {
                    "indexed": false,
                    "internalType": "address",
                    "name": "generalKeeper",
                    "type": "address"
                }
            ],
            "name": "Init",
            "type": "event"
        },
        {
            "anonymous": false,
            "inputs": [],
            "name": "LockContents",
            "type": "event"
        },
        {
            "anonymous": false,
            "inputs": [
                {
                    "indexed": true,
                    "internalType": "uint256",
                    "name": "seqOfShare",
                    "type": "uint256"
                },
                {
                    "indexed": false,
                    "internalType": "uint256",
                    "name": "seqOfPld",
                    "type": "uint256"
                },
                {
                    "indexed": false,
                    "internalType": "bytes32",
                    "name": "hashLock",
                    "type": "bytes32"
                }
            ],
            "name": "LockPledge",
            "type": "event"
        },
        {
            "anonymous": false,
            "inputs": [
                {
                    "indexed": true,
                    "internalType": "uint256",
                    "name": "seqOfShare",
                    "type": "uint256"
                },
                {
                    "indexed": false,
                    "internalType": "uint256",
                    "name": "seqOfPld",
                    "type": "uint256"
                },
                {
                    "indexed": false,
                    "internalType": "uint256",
                    "name": "refundAmt",
                    "type": "uint256"
                }
            ],
            "name": "RefundDebt",
            "type": "event"
        },
        {
            "anonymous": false,
            "inputs": [
                {
                    "indexed": true,
                    "internalType": "uint256",
                    "name": "seqOfShare",
                    "type": "uint256"
                },
                {
                    "indexed": false,
                    "internalType": "uint256",
                    "name": "seqOfPld",
                    "type": "uint256"
                },
                {
                    "indexed": false,
                    "internalType": "string",
                    "name": "hashKey",
                    "type": "string"
                }
            ],
            "name": "ReleasePledge",
            "type": "event"
        },
        {
            "anonymous": false,
            "inputs": [
                {
                    "indexed": false,
                    "internalType": "address",
                    "name": "target",
                    "type": "address"
                }
            ],
            "name": "RemoveDirectKeeper",
            "type": "event"
        },
        {
            "anonymous": false,
            "inputs": [
                {
                    "indexed": true,
                    "internalType": "uint256",
                    "name": "seqOfShare",
                    "type": "uint256"
                },
                {
                    "indexed": false,
                    "internalType": "uint256",
                    "name": "seqOfPld",
                    "type": "uint256"
                }
            ],
            "name": "RevokePledge",
            "type": "event"
        },
        {
            "anonymous": false,
            "inputs": [
                {
                    "indexed": false,
                    "internalType": "address",
                    "name": "keeper",
                    "type": "address"
                }
            ],
            "name": "SetDirectKeeper",
            "type": "event"
        },
        {
            "anonymous": false,
            "inputs": [
                {
                    "indexed": false,
                    "internalType": "uint256",
                    "name": "acct",
                    "type": "uint256"
                }
            ],
            "name": "SetGeneralCounsel",
            "type": "event"
        },
        {
            "anonymous": false,
            "inputs": [
                {
                    "indexed": false,
                    "internalType": "uint256",
                    "name": "acct",
                    "type": "uint256"
                }
            ],
            "name": "SetOwner",
            "type": "event"
        },
        {
            "anonymous": false,
            "inputs": [
                {
                    "indexed": true,
                    "internalType": "uint256",
                    "name": "seqOfShare",
                    "type": "uint256"
                },
                {
                    "indexed": false,
                    "internalType": "uint256",
                    "name": "seqOfPld",
                    "type": "uint256"
                },
                {
                    "indexed": false,
                    "internalType": "uint256",
                    "name": "newSeqOfPld",
                    "type": "uint256"
                },
                {
                    "indexed": false,
                    "internalType": "uint256",
                    "name": "buyer",
                    "type": "uint256"
                },
                {
                    "indexed": false,
                    "internalType": "uint256",
                    "name": "paid",
                    "type": "uint256"
                },
                {
                    "indexed": false,
                    "internalType": "uint256",
                    "name": "par",
                    "type": "uint256"
                }
            ],
            "name": "TransferPledge",
            "type": "event"
        },
        {
            "inputs": [
                {
                    "internalType": "bytes32",
                    "name": "role",
                    "type": "bytes32"
                }
            ],
            "name": "abandonRole",
            "outputs": [],
            "stateMutability": "nonpayable",
            "type": "function"
        },
        {
            "inputs": [
                {
                    "internalType": "uint256",
                    "name": "seqOfShare",
                    "type": "uint256"
                }
            ],
            "name": "counterOfPledges",
            "outputs": [
                {
                    "internalType": "uint16",
                    "name": "",
                    "type": "uint16"
                }
            ],
            "stateMutability": "view",
            "type": "function"
        },
        {
            "inputs": [
                {
                    "internalType": "bytes32",
                    "name": "snOfPld",
                    "type": "bytes32"
                },
                {
                    "internalType": "uint256",
                    "name": "creditor",
                    "type": "uint256"
                },
                {
                    "internalType": "uint256",
                    "name": "guaranteeDays",
                    "type": "uint256"
                },
                {
                    "internalType": "uint256",
                    "name": "paid",
                    "type": "uint256"
                },
                {
                    "internalType": "uint256",
                    "name": "par",
                    "type": "uint256"
                },
                {
                    "internalType": "uint256",
                    "name": "guaranteedAmt",
                    "type": "uint256"
                }
            ],
            "name": "createPledge",
            "outputs": [
                {
                    "components": [
                        {
                            "internalType": "uint32",
                            "name": "seqOfShare",
                            "type": "uint32"
                        },
                        {
                            "internalType": "uint16",
                            "name": "seqOfPld",
                            "type": "uint16"
                        },
                        {
                            "internalType": "uint48",
                            "name": "createDate",
                            "type": "uint48"
                        },
                        {
                            "internalType": "uint48",
                            "name": "triggerDate",
                            "type": "uint48"
                        },
                        {
                            "internalType": "uint40",
                            "name": "pledgor",
                            "type": "uint40"
                        },
                        {
                            "internalType": "uint40",
                            "name": "debtor",
                            "type": "uint40"
                        },
                        {
                            "internalType": "uint32",
                            "name": "data",
                            "type": "uint32"
                        }
                    ],
                    "internalType": "struct PledgesRepo.Head",
                    "name": "head",
                    "type": "tuple"
                }
            ],
            "stateMutability": "nonpayable",
            "type": "function"
        },
        {
            "inputs": [
                {
                    "internalType": "uint256",
                    "name": "seqOfShare",
                    "type": "uint256"
                },
                {
                    "internalType": "uint256",
                    "name": "seqOfPld",
                    "type": "uint256"
                }
            ],
            "name": "execPledge",
            "outputs": [
                {
                    "internalType": "bool",
                    "name": "flag",
                    "type": "bool"
                }
            ],
            "stateMutability": "nonpayable",
            "type": "function"
        },
        {
            "inputs": [
                {
                    "internalType": "uint256",
                    "name": "seqOfShare",
                    "type": "uint256"
                },
                {
                    "internalType": "uint256",
                    "name": "seqOfPld",
                    "type": "uint256"
                },
                {
                    "internalType": "uint256",
                    "name": "extDays",
                    "type": "uint256"
                }
            ],
            "name": "extendPledge",
            "outputs": [],
            "stateMutability": "nonpayable",
            "type": "function"
        },
        {
            "inputs": [],
            "name": "finalized",
            "outputs": [
                {
                    "internalType": "bool",
                    "name": "",
                    "type": "bool"
                }
            ],
            "stateMutability": "view",
            "type": "function"
        },
        {
            "inputs": [],
            "name": "getBookeeper",
            "outputs": [
                {
                    "internalType": "address",
                    "name": "",
                    "type": "address"
                }
            ],
            "stateMutability": "view",
            "type": "function"
        },
        {
            "inputs": [],
            "name": "getGeneralCounsel",
            "outputs": [
                {
                    "internalType": "uint40",
                    "name": "",
                    "type": "uint40"
                }
            ],
            "stateMutability": "view",
            "type": "function"
        },
        {
            "inputs": [],
            "name": "getOwner",
            "outputs": [
                {
                    "internalType": "uint40",
                    "name": "",
                    "type": "uint40"
                }
            ],
            "stateMutability": "view",
            "type": "function"
        },
        {
            "inputs": [
                {
                    "internalType": "uint256",
                    "name": "seqOfShare",
                    "type": "uint256"
                },
                {
                    "internalType": "uint256",
                    "name": "seqOfPld",
                    "type": "uint256"
                }
            ],
            "name": "getPledge",
            "outputs": [
                {
                    "components": [
                        {
                            "components": [
                                {
                                    "internalType": "uint32",
                                    "name": "seqOfShare",
                                    "type": "uint32"
                                },
                                {
                                    "internalType": "uint16",
                                    "name": "seqOfPld",
                                    "type": "uint16"
                                },
                                {
                                    "internalType": "uint48",
                                    "name": "createDate",
                                    "type": "uint48"
                                },
                                {
                                    "internalType": "uint48",
                                    "name": "triggerDate",
                                    "type": "uint48"
                                },
                                {
                                    "internalType": "uint40",
                                    "name": "pledgor",
                                    "type": "uint40"
                                },
                                {
                                    "internalType": "uint40",
                                    "name": "debtor",
                                    "type": "uint40"
                                },
                                {
                                    "internalType": "uint32",
                                    "name": "data",
                                    "type": "uint32"
                                }
                            ],
                            "internalType": "struct PledgesRepo.Head",
                            "name": "head",
                            "type": "tuple"
                        },
                        {
                            "components": [
                                {
                                    "internalType": "uint40",
                                    "name": "creditor",
                                    "type": "uint40"
                                },
                                {
                                    "internalType": "uint16",
                                    "name": "guaranteeDays",
                                    "type": "uint16"
                                },
                                {
                                    "internalType": "uint64",
                                    "name": "paid",
                                    "type": "uint64"
                                },
                                {
                                    "internalType": "uint64",
                                    "name": "par",
                                    "type": "uint64"
                                },
                                {
                                    "internalType": "uint64",
                                    "name": "guaranteedAmt",
                                    "type": "uint64"
                                },
                                {
                                    "internalType": "uint8",
                                    "name": "state",
                                    "type": "uint8"
                                }
                            ],
                            "internalType": "struct PledgesRepo.Body",
                            "name": "body",
                            "type": "tuple"
                        },
                        {
                            "internalType": "bytes32",
                            "name": "hashLock",
                            "type": "bytes32"
                        }
                    ],
                    "internalType": "struct PledgesRepo.Pledge",
                    "name": "pld",
                    "type": "tuple"
                }
            ],
            "stateMutability": "view",
            "type": "function"
        },
        {
            "inputs": [
                {
                    "internalType": "uint256",
                    "name": "seqOfShare",
                    "type": "uint256"
                }
            ],
            "name": "getPledgesOfShare",
            "outputs": [
                {
                    "components": [
                        {
                            "components": [
                                {
                                    "internalType": "uint32",
                                    "name": "seqOfShare",
                                    "type": "uint32"
                                },
                                {
                                    "internalType": "uint16",
                                    "name": "seqOfPld",
                                    "type": "uint16"
                                },
                                {
                                    "internalType": "uint48",
                                    "name": "createDate",
                                    "type": "uint48"
                                },
                                {
                                    "internalType": "uint48",
                                    "name": "triggerDate",
                                    "type": "uint48"
                                },
                                {
                                    "internalType": "uint40",
                                    "name": "pledgor",
                                    "type": "uint40"
                                },
                                {
                                    "internalType": "uint40",
                                    "name": "debtor",
                                    "type": "uint40"
                                },
                                {
                                    "internalType": "uint32",
                                    "name": "data",
                                    "type": "uint32"
                                }
                            ],
                            "internalType": "struct PledgesRepo.Head",
                            "name": "head",
                            "type": "tuple"
                        },
                        {
                            "components": [
                                {
                                    "internalType": "uint40",
                                    "name": "creditor",
                                    "type": "uint40"
                                },
                                {
                                    "internalType": "uint16",
                                    "name": "guaranteeDays",
                                    "type": "uint16"
                                },
                                {
                                    "internalType": "uint64",
                                    "name": "paid",
                                    "type": "uint64"
                                },
                                {
                                    "internalType": "uint64",
                                    "name": "par",
                                    "type": "uint64"
                                },
                                {
                                    "internalType": "uint64",
                                    "name": "guaranteedAmt",
                                    "type": "uint64"
                                },
                                {
                                    "internalType": "uint8",
                                    "name": "state",
                                    "type": "uint8"
                                }
                            ],
                            "internalType": "struct PledgesRepo.Body",
                            "name": "body",
                            "type": "tuple"
                        },
                        {
                            "internalType": "bytes32",
                            "name": "hashLock",
                            "type": "bytes32"
                        }
                    ],
                    "internalType": "struct PledgesRepo.Pledge[]",
                    "name": "",
                    "type": "tuple[]"
                }
            ],
            "stateMutability": "view",
            "type": "function"
        },
        {
            "inputs": [],
            "name": "getSNList",
            "outputs": [
                {
                    "internalType": "bytes32[]",
                    "name": "list",
                    "type": "bytes32[]"
                }
            ],
            "stateMutability": "view",
            "type": "function"
        },
        {
            "inputs": [
                {
                    "internalType": "bytes32",
                    "name": "role",
                    "type": "bytes32"
                },
                {
                    "internalType": "uint256",
                    "name": "acct",
                    "type": "uint256"
                }
            ],
            "name": "grantRole",
            "outputs": [],
            "stateMutability": "nonpayable",
            "type": "function"
        },
        {
            "inputs": [
                {
                    "internalType": "bytes32",
                    "name": "role",
                    "type": "bytes32"
                },
                {
                    "internalType": "uint256",
                    "name": "acct",
                    "type": "uint256"
                }
            ],
            "name": "hasRole",
            "outputs": [
                {
                    "internalType": "bool",
                    "name": "",
                    "type": "bool"
                }
            ],
            "stateMutability": "view",
            "type": "function"
        },
        {
            "inputs": [
                {
                    "internalType": "uint256",
                    "name": "owner",
                    "type": "uint256"
                },
                {
                    "internalType": "address",
                    "name": "directKeeper",
                    "type": "address"
                },
                {
                    "internalType": "address",
                    "name": "regCenter",
                    "type": "address"
                },
                {
                    "internalType": "address",
                    "name": "generalKeeper",
                    "type": "address"
                }
            ],
            "name": "init",
            "outputs": [],
            "stateMutability": "nonpayable",
            "type": "function"
        },
        {
            "inputs": [
                {
                    "internalType": "uint256",
                    "name": "seqOfShare",
                    "type": "uint256"
                },
                {
                    "internalType": "uint256",
                    "name": "seqOfPledge",
                    "type": "uint256"
                }
            ],
            "name": "isPledge",
            "outputs": [
                {
                    "internalType": "bool",
                    "name": "",
                    "type": "bool"
                }
            ],
            "stateMutability": "view",
            "type": "function"
        },
        {
            "inputs": [
                {
                    "components": [
                        {
                            "internalType": "uint32",
                            "name": "seqOfShare",
                            "type": "uint32"
                        },
                        {
                            "internalType": "uint16",
                            "name": "seqOfPld",
                            "type": "uint16"
                        },
                        {
                            "internalType": "uint48",
                            "name": "createDate",
                            "type": "uint48"
                        },
                        {
                            "internalType": "uint48",
                            "name": "triggerDate",
                            "type": "uint48"
                        },
                        {
                            "internalType": "uint40",
                            "name": "pledgor",
                            "type": "uint40"
                        },
                        {
                            "internalType": "uint40",
                            "name": "debtor",
                            "type": "uint40"
                        },
                        {
                            "internalType": "uint32",
                            "name": "data",
                            "type": "uint32"
                        }
                    ],
                    "internalType": "struct PledgesRepo.Head",
                    "name": "head",
                    "type": "tuple"
                },
                {
                    "internalType": "uint256",
                    "name": "creditor",
                    "type": "uint256"
                },
                {
                    "internalType": "uint256",
                    "name": "guaranteeDays",
                    "type": "uint256"
                },
                {
                    "internalType": "uint256",
                    "name": "paid",
                    "type": "uint256"
                },
                {
                    "internalType": "uint256",
                    "name": "par",
                    "type": "uint256"
                },
                {
                    "internalType": "uint256",
                    "name": "guaranteedAmt",
                    "type": "uint256"
                }
            ],
            "name": "issuePledge",
            "outputs": [
                {
                    "components": [
                        {
                            "internalType": "uint32",
                            "name": "seqOfShare",
                            "type": "uint32"
                        },
                        {
                            "internalType": "uint16",
                            "name": "seqOfPld",
                            "type": "uint16"
                        },
                        {
                            "internalType": "uint48",
                            "name": "createDate",
                            "type": "uint48"
                        },
                        {
                            "internalType": "uint48",
                            "name": "triggerDate",
                            "type": "uint48"
                        },
                        {
                            "internalType": "uint40",
                            "name": "pledgor",
                            "type": "uint40"
                        },
                        {
                            "internalType": "uint40",
                            "name": "debtor",
                            "type": "uint40"
                        },
                        {
                            "internalType": "uint32",
                            "name": "data",
                            "type": "uint32"
                        }
                    ],
                    "internalType": "struct PledgesRepo.Head",
                    "name": "regHead",
                    "type": "tuple"
                }
            ],
            "stateMutability": "nonpayable",
            "type": "function"
        },
        {
            "inputs": [],
            "name": "lockContents",
            "outputs": [],
            "stateMutability": "nonpayable",
            "type": "function"
        },
        {
            "inputs": [
                {
                    "internalType": "uint256",
                    "name": "seqOfShare",
                    "type": "uint256"
                },
                {
                    "internalType": "uint256",
                    "name": "seqOfPld",
                    "type": "uint256"
                },
                {
                    "internalType": "bytes32",
                    "name": "hashLock",
                    "type": "bytes32"
                }
            ],
            "name": "lockPledge",
            "outputs": [
                {
                    "internalType": "bool",
                    "name": "flag",
                    "type": "bool"
                }
            ],
            "stateMutability": "nonpayable",
            "type": "function"
        },
        {
            "inputs": [
                {
                    "internalType": "uint256",
                    "name": "seqOfShare",
                    "type": "uint256"
                },
                {
                    "internalType": "uint256",
                    "name": "seqOfPld",
                    "type": "uint256"
                },
                {
                    "internalType": "uint256",
                    "name": "amt",
                    "type": "uint256"
                }
            ],
            "name": "refundDebt",
            "outputs": [
                {
                    "components": [
                        {
                            "components": [
                                {
                                    "internalType": "uint32",
                                    "name": "seqOfShare",
                                    "type": "uint32"
                                },
                                {
                                    "internalType": "uint16",
                                    "name": "seqOfPld",
                                    "type": "uint16"
                                },
                                {
                                    "internalType": "uint48",
                                    "name": "createDate",
                                    "type": "uint48"
                                },
                                {
                                    "internalType": "uint48",
                                    "name": "triggerDate",
                                    "type": "uint48"
                                },
                                {
                                    "internalType": "uint40",
                                    "name": "pledgor",
                                    "type": "uint40"
                                },
                                {
                                    "internalType": "uint40",
                                    "name": "debtor",
                                    "type": "uint40"
                                },
                                {
                                    "internalType": "uint32",
                                    "name": "data",
                                    "type": "uint32"
                                }
                            ],
                            "internalType": "struct PledgesRepo.Head",
                            "name": "head",
                            "type": "tuple"
                        },
                        {
                            "components": [
                                {
                                    "internalType": "uint40",
                                    "name": "creditor",
                                    "type": "uint40"
                                },
                                {
                                    "internalType": "uint16",
                                    "name": "guaranteeDays",
                                    "type": "uint16"
                                },
                                {
                                    "internalType": "uint64",
                                    "name": "paid",
                                    "type": "uint64"
                                },
                                {
                                    "internalType": "uint64",
                                    "name": "par",
                                    "type": "uint64"
                                },
                                {
                                    "internalType": "uint64",
                                    "name": "guaranteedAmt",
                                    "type": "uint64"
                                },
                                {
                                    "internalType": "uint8",
                                    "name": "state",
                                    "type": "uint8"
                                }
                            ],
                            "internalType": "struct PledgesRepo.Body",
                            "name": "body",
                            "type": "tuple"
                        },
                        {
                            "internalType": "bytes32",
                            "name": "hashLock",
                            "type": "bytes32"
                        }
                    ],
                    "internalType": "struct PledgesRepo.Pledge",
                    "name": "newPld",
                    "type": "tuple"
                }
            ],
            "stateMutability": "nonpayable",
            "type": "function"
        },
        {
            "inputs": [
                {
                    "components": [
                        {
                            "components": [
                                {
                                    "internalType": "uint32",
                                    "name": "seqOfShare",
                                    "type": "uint32"
                                },
                                {
                                    "internalType": "uint16",
                                    "name": "seqOfPld",
                                    "type": "uint16"
                                },
                                {
                                    "internalType": "uint48",
                                    "name": "createDate",
                                    "type": "uint48"
                                },
                                {
                                    "internalType": "uint48",
                                    "name": "triggerDate",
                                    "type": "uint48"
                                },
                                {
                                    "internalType": "uint40",
                                    "name": "pledgor",
                                    "type": "uint40"
                                },
                                {
                                    "internalType": "uint40",
                                    "name": "debtor",
                                    "type": "uint40"
                                },
                                {
                                    "internalType": "uint32",
                                    "name": "data",
                                    "type": "uint32"
                                }
                            ],
                            "internalType": "struct PledgesRepo.Head",
                            "name": "head",
                            "type": "tuple"
                        },
                        {
                            "components": [
                                {
                                    "internalType": "uint40",
                                    "name": "creditor",
                                    "type": "uint40"
                                },
                                {
                                    "internalType": "uint16",
                                    "name": "guaranteeDays",
                                    "type": "uint16"
                                },
                                {
                                    "internalType": "uint64",
                                    "name": "paid",
                                    "type": "uint64"
                                },
                                {
                                    "internalType": "uint64",
                                    "name": "par",
                                    "type": "uint64"
                                },
                                {
                                    "internalType": "uint64",
                                    "name": "guaranteedAmt",
                                    "type": "uint64"
                                },
                                {
                                    "internalType": "uint8",
                                    "name": "state",
                                    "type": "uint8"
                                }
                            ],
                            "internalType": "struct PledgesRepo.Body",
                            "name": "body",
                            "type": "tuple"
                        },
                        {
                            "internalType": "bytes32",
                            "name": "hashLock",
                            "type": "bytes32"
                        }
                    ],
                    "internalType": "struct PledgesRepo.Pledge",
                    "name": "pld",
                    "type": "tuple"
                }
            ],
            "name": "regPledge",
            "outputs": [
                {
                    "components": [
                        {
                            "internalType": "uint32",
                            "name": "seqOfShare",
                            "type": "uint32"
                        },
                        {
                            "internalType": "uint16",
                            "name": "seqOfPld",
                            "type": "uint16"
                        },
                        {
                            "internalType": "uint48",
                            "name": "createDate",
                            "type": "uint48"
                        },
                        {
                            "internalType": "uint48",
                            "name": "triggerDate",
                            "type": "uint48"
                        },
                        {
                            "internalType": "uint40",
                            "name": "pledgor",
                            "type": "uint40"
                        },
                        {
                            "internalType": "uint40",
                            "name": "debtor",
                            "type": "uint40"
                        },
                        {
                            "internalType": "uint32",
                            "name": "data",
                            "type": "uint32"
                        }
                    ],
                    "internalType": "struct PledgesRepo.Head",
                    "name": "head",
                    "type": "tuple"
                }
            ],
            "stateMutability": "nonpayable",
            "type": "function"
        },
        {
            "inputs": [
                {
                    "internalType": "uint256",
                    "name": "seqOfShare",
                    "type": "uint256"
                },
                {
                    "internalType": "uint256",
                    "name": "seqOfPld",
                    "type": "uint256"
                },
                {
                    "internalType": "string",
                    "name": "hashKey",
                    "type": "string"
                }
            ],
            "name": "releasePledge",
            "outputs": [
                {
                    "internalType": "bool",
                    "name": "flag",
                    "type": "bool"
                }
            ],
            "stateMutability": "nonpayable",
            "type": "function"
        },
        {
            "inputs": [
                {
                    "internalType": "address",
                    "name": "target",
                    "type": "address"
                }
            ],
            "name": "removeDirectKeeper",
            "outputs": [],
            "stateMutability": "nonpayable",
            "type": "function"
        },
        {
            "inputs": [
                {
                    "internalType": "bytes32",
                    "name": "role",
                    "type": "bytes32"
                }
            ],
            "name": "renounceRole",
            "outputs": [],
            "stateMutability": "nonpayable",
            "type": "function"
        },
        {
            "inputs": [
                {
                    "internalType": "uint256",
                    "name": "seqOfShare",
                    "type": "uint256"
                },
                {
                    "internalType": "uint256",
                    "name": "seqOfPld",
                    "type": "uint256"
                }
            ],
            "name": "revokePledge",
            "outputs": [
                {
                    "internalType": "bool",
                    "name": "flag",
                    "type": "bool"
                }
            ],
            "stateMutability": "nonpayable",
            "type": "function"
        },
        {
            "inputs": [
                {
                    "internalType": "bytes32",
                    "name": "role",
                    "type": "bytes32"
                },
                {
                    "internalType": "uint256",
                    "name": "acct",
                    "type": "uint256"
                }
            ],
            "name": "revokeRole",
            "outputs": [],
            "stateMutability": "nonpayable",
            "type": "function"
        },
        {
            "inputs": [
                {
                    "internalType": "address",
                    "name": "keeper",
                    "type": "address"
                }
            ],
            "name": "setDirectKeeper",
            "outputs": [],
            "stateMutability": "nonpayable",
            "type": "function"
        },
        {
            "inputs": [
                {
                    "internalType": "uint256",
                    "name": "acct",
                    "type": "uint256"
                }
            ],
            "name": "setGeneralCounsel",
            "outputs": [],
            "stateMutability": "nonpayable",
            "type": "function"
        },
        {
            "inputs": [
                {
                    "internalType": "uint256",
                    "name": "acct",
                    "type": "uint256"
                }
            ],
            "name": "setOwner",
            "outputs": [],
            "stateMutability": "nonpayable",
            "type": "function"
        },
        {
            "inputs": [
                {
                    "internalType": "bytes32",
                    "name": "role",
                    "type": "bytes32"
                },
                {
                    "internalType": "uint256",
                    "name": "acct",
                    "type": "uint256"
                }
            ],
            "name": "setRoleAdmin",
            "outputs": [],
            "stateMutability": "nonpayable",
            "type": "function"
        },
        {
            "inputs": [
                {
                    "internalType": "uint256",
                    "name": "seqOfShare",
                    "type": "uint256"
                },
                {
                    "internalType": "uint256",
                    "name": "seqOfPld",
                    "type": "uint256"
                },
                {
                    "internalType": "uint256",
                    "name": "buyer",
                    "type": "uint256"
                },
                {
                    "internalType": "uint256",
                    "name": "amt",
                    "type": "uint256"
                }
            ],
            "name": "transferPledge",
            "outputs": [
                {
                    "components": [
                        {
                            "components": [
                                {
                                    "internalType": "uint32",
                                    "name": "seqOfShare",
                                    "type": "uint32"
                                },
                                {
                                    "internalType": "uint16",
                                    "name": "seqOfPld",
                                    "type": "uint16"
                                },
                                {
                                    "internalType": "uint48",
                                    "name": "createDate",
                                    "type": "uint48"
                                },
                                {
                                    "internalType": "uint48",
                                    "name": "triggerDate",
                                    "type": "uint48"
                                },
                                {
                                    "internalType": "uint40",
                                    "name": "pledgor",
                                    "type": "uint40"
                                },
                                {
                                    "internalType": "uint40",
                                    "name": "debtor",
                                    "type": "uint40"
                                },
                                {
                                    "internalType": "uint32",
                                    "name": "data",
                                    "type": "uint32"
                                }
                            ],
                            "internalType": "struct PledgesRepo.Head",
                            "name": "head",
                            "type": "tuple"
                        },
                        {
                            "components": [
                                {
                                    "internalType": "uint40",
                                    "name": "creditor",
                                    "type": "uint40"
                                },
                                {
                                    "internalType": "uint16",
                                    "name": "guaranteeDays",
                                    "type": "uint16"
                                },
                                {
                                    "internalType": "uint64",
                                    "name": "paid",
                                    "type": "uint64"
                                },
                                {
                                    "internalType": "uint64",
                                    "name": "par",
                                    "type": "uint64"
                                },
                                {
                                    "internalType": "uint64",
                                    "name": "guaranteedAmt",
                                    "type": "uint64"
                                },
                                {
                                    "internalType": "uint8",
                                    "name": "state",
                                    "type": "uint8"
                                }
                            ],
                            "internalType": "struct PledgesRepo.Body",
                            "name": "body",
                            "type": "tuple"
                        },
                        {
                            "internalType": "bytes32",
                            "name": "hashLock",
                            "type": "bytes32"
                        }
                    ],
                    "internalType": "struct PledgesRepo.Pledge",
                    "name": "newPld",
                    "type": "tuple"
                }
            ],
            "stateMutability": "nonpayable",
            "type": "function"
        }
    ],
    "bytecode": "608060405234801561001057600080fd5b50613510806100206000396000f3fe608060405234801561001057600080fd5b50600436106101e55760003560e01c806361d65d551161010f578063b3f05b97116100a2578063ed21102311610071578063ed2110231461048f578063f045a769146104af578063f424672b146104b7578063f671e821146104ca57600080fd5b8063b3f05b9714610440578063dc890da914610454578063e87a6f1814610467578063e9c733d21461047c57600080fd5b8063893d20e8116100de578063893d20e8146103ff5780638bb9c5bf146104075780639a3c29ce1461041a578063a023707d1461042d57600080fd5b806361d65d55146103a65780636be8496f146103c65780637e063c5a146103d95780638041494e146103ec57600080fd5b806333e68530116101875780635023530711610156578063502353071461032e5780635171ebd4146103415780635690364b146103545780635d7ad88f1461039357600080fd5b806333e68530146102e25780633c851592146102f55780633da9a600146103085780634a14beb11461031b57600080fd5b80631b6ea9f9116101c35780631b6ea9f914610242578063205969bd146102555780632d5562ca146102785780632e667364146102c257600080fd5b8063103f6edd146101ea57806319d61ad91461020d5780631b684d2714610222575b600080fd5b6101f26104dd565b60405164ffffffffff90911681526020015b60405180910390f35b61022061021b3660046129a7565b610569565b005b610235610230366004612b8c565b6105fb565b6040516102049190612ccc565b6102206102503660046129a7565b61084c565b610268610263366004612cda565b610872565b6040519015158152602001610204565b6102af610286366004612d06565b6000908152600460209081526040808320838052909152902054640100000000900461ffff1690565b60405161ffff9091168152602001610204565b6102d56102d0366004612d06565b610a8f565b6040516102049190612da4565b6102356102f0366004612df3565b610b25565b610220610303366004612cda565b610ce7565b610220610316366004612d06565b610ed5565b610220610329366004612d06565b610f60565b61026861033c366004612e36565b6111bd565b61022061034f3660046129a7565b6113bc565b6102686103623660046129a7565b60009182526004602090815260408084209284529190529020546601000000000000900465ffffffffffff16151590565b6102206103a1366004612ef2565b6113e2565b6103b96103b4366004612cda565b61151a565b6040516102049190612f0f565b6102206103d4366004612ef2565b61172c565b6102686103e73660046129a7565b6117de565b6102206103fa366004612d06565b611872565b6101f261192b565b610220610415366004612d06565b611966565b610235610428366004612f1e565b61198b565b6103b961043b366004612f6e565b611ba7565b60028054600160f01b900460ff1614610268565b610220610462366004612fa0565b611e4c565b61046f611f2e565b6040516102049190612ff3565b61026861048a3660046129a7565b611fb7565b6104976121c9565b6040516001600160a01b039091168152602001610204565b61022061224f565b6102686104c53660046129a7565b612493565b6103b96104d83660046129a7565b612694565b60405163e8c0cc1d60e01b81526002600482015260009073__$364aad554dc80380f414546becdd2c1584$__9063e8c0cc1d906024015b60206040518083038186803b15801561052c57600080fd5b505af4158015610540573d6000803e3d6000fd5b505050506040513d601f19601f82011682018060405250810190610564919061302b565b905090565b73__$364aad554dc80380f414546becdd2c1584$__6382daafaa6002848461058f6127ce565b6040516001600160e01b031960e087901b16815260048101949094526024840192909252604483015264ffffffffff16606482015260840160006040518083038186803b1580156105df57600080fd5b505af41580156105f3573d6000803e3d6000fd5b505050505050565b610603612916565b604051633b11adbf60e21b81526002600482015233602482015273__$364aad554dc80380f414546becdd2c1584$__9063ec46b6fc9060440160206040518083038186803b15801561065457600080fd5b505af4158015610668573d6000803e3d6000fd5b505050506040513d601f19601f8201168201806040525081019061068c9190613048565b8061070d57506001546040516335d2155560e11b81523360048201526001600160a01b0390911690636ba42aaa9060240160206040518083038186803b1580156106d557600080fd5b505afa1580156106e9573d6000803e3d6000fd5b505050506040513d601f19601f8201168201806040525081019061070d9190613048565b6107325760405162461bcd60e51b81526004016107299061306a565b60405180910390fd5b604051637186e27b60e11b815273__$d113c86820c60155271829fbf7bae741f8$__9063e30dc4f69061076b9060049086908201613095565b60e06040518083038186803b15801561078357600080fd5b505af4158015610797573d6000803e3d6000fd5b505050506040513d601f19601f820116820180604052508101906107bb919061316b565b8051602080830151908501518051604080830151606090930151905195965063ffffffff909416947f16213a639c46506f76c6a61007876a778304be1c6840d8a1259ca1876ac0a7bd9461083f94939161ffff94909416845264ffffffffff9290921660208401526001600160401b03908116604084015216606082015260800190565b60405180910390a2919050565b73__$364aad554dc80380f414546becdd2c1584$__636320d75e6002848461058f6127ce565b604051633b11adbf60e21b81526002600482015233602482015260009073__$364aad554dc80380f414546becdd2c1584$__9063ec46b6fc9060440160206040518083038186803b1580156108c657600080fd5b505af41580156108da573d6000803e3d6000fd5b505050506040513d601f19601f820116820180604052508101906108fe9190613048565b8061097f57506001546040516335d2155560e11b81523360048201526001600160a01b0390911690636ba42aaa9060240160206040518083038186803b15801561094757600080fd5b505afa15801561095b573d6000803e3d6000fd5b505050506040513d601f19601f8201168201806040525081019061097f9190613048565b61099b5760405162461bcd60e51b81526004016107299061306a565b600084815260046020818152604080842087855290915291829020915163079b82ff60e21b815273__$d113c86820c60155271829fbf7bae741f8$__92631e6e0bfc926109f392879101918252602082015260400190565b60206040518083038186803b158015610a0b57600080fd5b505af4158015610a1f573d6000803e3d6000fd5b505050506040513d601f19601f82011682018060405250810190610a439190613048565b15610a8857604080518481526020810184905285917f22ac25240b57ed81a9a3f354cdfea8d776f1f91ed79af77ebf0ea78839015fbb91015b60405180910390a25060015b9392505050565b604051639e1adb1f60e01b81526004808201526024810182905260609073__$d113c86820c60155271829fbf7bae741f8$__90639e1adb1f9060440160006040518083038186803b158015610ae357600080fd5b505af4158015610af7573d6000803e3d6000fd5b505050506040513d6000823e601f3d908101601f19168201604052610b1f919081019061327a565b92915050565b610b2d612916565b604051633b11adbf60e21b81526002600482015233602482015273__$364aad554dc80380f414546becdd2c1584$__9063ec46b6fc9060440160206040518083038186803b158015610b7e57600080fd5b505af4158015610b92573d6000803e3d6000fd5b505050506040513d601f19601f82011682018060405250810190610bb69190613048565b610bd25760405162461bcd60e51b815260040161072990613319565b6040516365c2d31b60e01b81526004808201526024810188905260448101879052606481018690526084810185905260a4810184905260c4810183905273__$d113c86820c60155271829fbf7bae741f8$__906365c2d31b9060e40160e06040518083038186803b158015610c4657600080fd5b505af4158015610c5a573d6000803e3d6000fd5b505050506040513d601f19601f82011682018060405250810190610c7e919061316b565b80516020808301516040805161ffff90921682529181018a90529081018790526060810186905291925063ffffffff16907f16213a639c46506f76c6a61007876a778304be1c6840d8a1259ca1876ac0a7bd906080015b60405180910390a29695505050505050565b604051633b11adbf60e21b81526002600482015233602482015273__$364aad554dc80380f414546becdd2c1584$__9063ec46b6fc9060440160206040518083038186803b158015610d3857600080fd5b505af4158015610d4c573d6000803e3d6000fd5b505050506040513d601f19601f82011682018060405250810190610d709190613048565b80610df157506001546040516335d2155560e11b81523360048201526001600160a01b0390911690636ba42aaa9060240160206040518083038186803b158015610db957600080fd5b505afa158015610dcd573d6000803e3d6000fd5b505050506040513d601f19601f82011682018060405250810190610df19190613048565b610e0d5760405162461bcd60e51b81526004016107299061306a565b60008381526004602081815260408084208685529091529182902091516323db034d60e01b815273__$d113c86820c60155271829fbf7bae741f8$__926323db034d92610e6592869101918252602082015260400190565b60006040518083038186803b158015610e7d57600080fd5b505af4158015610e91573d6000803e3d6000fd5b505060408051858152602081018590528693507f57d3cc740936f1e626db29598eb1dd08e59719f04f860cb544695c1bda2439f092500160405180910390a2505050565b73__$364aad554dc80380f414546becdd2c1584$__63c51b295f600283610efa6127ce565b6040516001600160e01b031960e086901b1681526004810193909352602483019190915264ffffffffff16604482015260640160006040518083038186803b158015610f4557600080fd5b505af4158015610f59573d6000803e3d6000fd5b5050505050565b604051633b11adbf60e21b81526002600482015233602482015273__$364aad554dc80380f414546becdd2c1584$__9063ec46b6fc9060440160206040518083038186803b158015610fb157600080fd5b505af4158015610fc5573d6000803e3d6000fd5b505050506040513d601f19601f82011682018060405250810190610fe99190613048565b8061108e575073__$364aad554dc80380f414546becdd2c1584$__63fe27108660026110136127ce565b6040516001600160e01b031960e085901b168152600481019290925264ffffffffff16602482015260440160206040518083038186803b15801561105657600080fd5b505af415801561106a573d6000803e3d6000fd5b505050506040513d601f19601f8201168201806040525081019061108e9190613048565b6110f95760405162461bcd60e51b815260206004820152603660248201527f41432e6f776e65724f72446972656374426f6f6b65657065723a206e6569746860448201527532b91037bbb732b9103737b9103137b7b5b2b2b832b960511b6064820152608401610729565b73__$364aad554dc80380f414546becdd2c1584$__639b4510de60028361111e6127ce565b6040516001600160e01b031960e086901b1681526004810193909352602483019190915264ffffffffff16604482015260640160006040518083038186803b15801561116957600080fd5b505af415801561117d573d6000803e3d6000fd5b505050507ff2735f34b69be1e6342dea95f9162f84d0db925fab655ca9f1f312ac8cbfc99d816040516111b291815260200190565b60405180910390a150565b604051633b11adbf60e21b81526002600482015233602482015260009073__$364aad554dc80380f414546becdd2c1584$__9063ec46b6fc9060440160206040518083038186803b15801561121157600080fd5b505af4158015611225573d6000803e3d6000fd5b505050506040513d601f19601f820116820180604052508101906112499190613048565b806112ca57506001546040516335d2155560e11b81523360048201526001600160a01b0390911690636ba42aaa9060240160206040518083038186803b15801561129257600080fd5b505afa1580156112a6573d6000803e3d6000fd5b505050506040513d601f19601f820116820180604052508101906112ca9190613048565b6112e65760405162461bcd60e51b81526004016107299061306a565b6000848152600460208181526040808420878552909152918290209151637689d68b60e01b815273__$d113c86820c60155271829fbf7bae741f8$__92637689d68b92611335928791016133ac565b60206040518083038186803b15801561134d57600080fd5b505af4158015611361573d6000803e3d6000fd5b505050506040513d601f19601f820116820180604052508101906113859190613048565b15610a8857837faa23da4927c0392e16dd5999d025e6b3229208a541ab284af9e4e03b189fe2638484604051610a7c9291906133ac565b73__$364aad554dc80380f414546becdd2c1584$__63ee98b3136002848461058f6127ce565b604051633b11adbf60e21b81526002600482015233602482015273__$364aad554dc80380f414546becdd2c1584$__9063ec46b6fc9060440160206040518083038186803b15801561143357600080fd5b505af4158015611447573d6000803e3d6000fd5b505050506040513d601f19601f8201168201806040525081019061146b9190613048565b6114875760405162461bcd60e51b815260040161072990613319565b604051636be8496f60e01b81523360048201526001600160a01b03821690636be8496f90602401600060405180830381600087803b1580156114c857600080fd5b505af11580156114dc573d6000803e3d6000fd5b50506040516001600160a01b03841681527f64dd6e84044f0067086012335dcfab3188db6615b5cc7debf18c9a621ebd5d91925060200190506111b2565b611522612952565b604051633b11adbf60e21b81526002600482015233602482015273__$364aad554dc80380f414546becdd2c1584$__9063ec46b6fc9060440160206040518083038186803b15801561157357600080fd5b505af4158015611587573d6000803e3d6000fd5b505050506040513d601f19601f820116820180604052508101906115ab9190613048565b8061162c57506001546040516335d2155560e11b81523360048201526001600160a01b0390911690636ba42aaa9060240160206040518083038186803b1580156115f457600080fd5b505afa158015611608573d6000803e3d6000fd5b505050506040513d601f19601f8201168201806040525081019061162c9190613048565b6116485760405162461bcd60e51b81526004016107299061306a565b604051630f6f3a5960e41b81526004808201526024810185905260448101849052600060648201526084810183905273__$d113c86820c60155271829fbf7bae741f8$__9063f6f3a5909060a4016101c06040518083038186803b1580156116af57600080fd5b505af41580156116c3573d6000803e3d6000fd5b505050506040513d601f19601f820116820180604052508101906116e791906133cd565b604080518581526020810185905291925085917feda318b681a6fefde71d5c8ab67ec3b13df92a65135f6ba8e3c1187372e38175910160405180910390a29392505050565b604051630f07232560e01b8152600260048201526001600160a01b038216602482015233604482015273__$364aad554dc80380f414546becdd2c1584$__90630f0723259060640160006040518083038186803b15801561178c57600080fd5b505af41580156117a0573d6000803e3d6000fd5b50506040516001600160a01b03841681527fe435cbeab64e4eae6497b9d8289704bd709d624a80704ef3ca9af777534bc6ec925060200190506111b2565b604051632a3be56b60e21b815260026004820152602481018390526044810182905260009073__$364aad554dc80380f414546becdd2c1584$__9063a8ef95ac9060640160206040518083038186803b15801561183a57600080fd5b505af415801561184e573d6000803e3d6000fd5b505050506040513d601f19601f82011682018060405250810190610a889190613048565b73__$364aad554dc80380f414546becdd2c1584$__639b48160c6002836118976127ce565b6040516001600160e01b031960e086901b1681526004810193909352602483019190915264ffffffffff16604482015260640160006040518083038186803b1580156118e257600080fd5b505af41580156118f6573d6000803e3d6000fd5b505050507f8b6f40f36b4ae8cc5f55e895036457c43da4ab1f80f58c46f5ff0d72a650033b816040516111b291815260200190565b60405163987ad15360e01b81526002600482015260009073__$364aad554dc80380f414546becdd2c1584$__9063987ad15390602401610514565b73__$364aad554dc80380f414546becdd2c1584$__63cc0d511b600283610efa6127ce565b611993612916565b604051633b11adbf60e21b81526002600482015233602482015273__$364aad554dc80380f414546becdd2c1584$__9063ec46b6fc9060440160206040518083038186803b1580156119e457600080fd5b505af41580156119f8573d6000803e3d6000fd5b505050506040513d601f19601f82011682018060405250810190611a1c9190613048565b80611a9d57506001546040516335d2155560e11b81523360048201526001600160a01b0390911690636ba42aaa9060240160206040518083038186803b158015611a6557600080fd5b505afa158015611a79573d6000803e3d6000fd5b505050506040513d601f19601f82011682018060405250810190611a9d9190613048565b611ab95760405162461bcd60e51b81526004016107299061306a565b604051633682ae6960e11b815273__$d113c86820c60155271829fbf7bae741f8$__90636d055cd290611afc906004908b908b908b908b908b908b9087016133ea565b60e06040518083038186803b158015611b1457600080fd5b505af4158015611b28573d6000803e3d6000fd5b505050506040513d601f19601f82011682018060405250810190611b4c919061316b565b87516020808a01516040805161ffff90921682529181018a90529081018790526060810186905291925063ffffffff16907f16213a639c46506f76c6a61007876a778304be1c6840d8a1259ca1876ac0a7bd90608001610cd5565b611baf612952565b604051633b11adbf60e21b81526002600482015233602482015273__$364aad554dc80380f414546becdd2c1584$__9063ec46b6fc9060440160206040518083038186803b158015611c0057600080fd5b505af4158015611c14573d6000803e3d6000fd5b505050506040513d601f19601f82011682018060405250810190611c389190613048565b80611cb957506001546040516335d2155560e11b81523360048201526001600160a01b0390911690636ba42aaa9060240160206040518083038186803b158015611c8157600080fd5b505afa158015611c95573d6000803e3d6000fd5b505050506040513d601f19601f82011682018060405250810190611cb99190613048565b611cd55760405162461bcd60e51b81526004016107299061306a565b60008311611d1a5760405162461bcd60e51b81526020600482015260126024820152712127a8172a281d103d32b93790313abcb2b960711b6044820152606401610729565b604051630f6f3a5960e41b81526004808201526024810186905260448101859052606481018490526084810183905273__$d113c86820c60155271829fbf7bae741f8$__9063f6f3a5909060a4016101c06040518083038186803b158015611d8157600080fd5b505af4158015611d95573d6000803e3d6000fd5b505050506040513d601f19601f82011682018060405250810190611db991906133cd565b8051805160209182015182840151805160408083015160609384015182518d815261ffff9096169786019790975264ffffffffff909216848201526001600160401b03918216928401929092529093166080820152915192935063ffffffff16917fa8c5eace48f10e75f99f4b2e92222072bb757089c357ffd4267f97249c6022c69181900360a00190a2949350505050565b604051636cdd0edf60e11b815260026004820152602481018590526001600160a01b038416604482015273__$364aad554dc80380f414546becdd2c1584$__9063d9ba1dbe9060640160006040518083038186803b158015611ead57600080fd5b505af4158015611ec1573d6000803e3d6000fd5b50505050611ece82612828565b611ed78161289b565b604080518581526001600160a01b038581166020830152848116828401528316606082015290517f3abb2418c66fe32ba9c883030a75ce583971d9af9192b9b74e44e67c5e6c8c1f9181900360800190a150505050565b6040516393f7eb1960e01b815260048082015260609073__$d113c86820c60155271829fbf7bae741f8$__906393f7eb199060240160006040518083038186803b158015611f7b57600080fd5b505af4158015611f8f573d6000803e3d6000fd5b505050506040513d6000823e601f3d908101601f19168201604052610564919081019061342d565b604051633b11adbf60e21b81526002600482015233602482015260009073__$364aad554dc80380f414546becdd2c1584$__9063ec46b6fc9060440160206040518083038186803b15801561200b57600080fd5b505af415801561201f573d6000803e3d6000fd5b505050506040513d601f19601f820116820180604052508101906120439190613048565b806120c457506001546040516335d2155560e11b81523360048201526001600160a01b0390911690636ba42aaa9060240160206040518083038186803b15801561208c57600080fd5b505afa1580156120a0573d6000803e3d6000fd5b505050506040513d601f19601f820116820180604052508101906120c49190613048565b6120e05760405162461bcd60e51b81526004016107299061306a565b6000838152600460208181526040808420868552909152918290209151630c6bcfc760e31b815273__$d113c86820c60155271829fbf7bae741f8$__9263635e7e3892612131920190815260200190565b60206040518083038186803b15801561214957600080fd5b505af415801561215d573d6000803e3d6000fd5b505050506040513d601f19601f820116820180604052508101906121819190613048565b15610b1f57827f78402161cd0b480b185df229c7caeffedd2aca31d8fbc71e227a45faab07cb1c836040516121b891815260200190565b60405180910390a250600192915050565b604051633c3e56c160e11b81526002600482015260009073__$364aad554dc80380f414546becdd2c1584$__9063787cad829060240160206040518083038186803b15801561221757600080fd5b505af415801561222b573d6000803e3d6000fd5b505050506040513d601f19601f8201168201806040525081019061056491906134bd565b600254600160f01b900460ff166001146122ab5760405162461bcd60e51b815260206004820152601760248201527f41432e4c433a20446f632069732066696e616c697a65640000000000000000006044820152606401610729565b73__$364aad554dc80380f414546becdd2c1584$__63c51b295f6002684174746f726e65797360b81b6122dc6127ce565b6040516001600160e01b031960e086901b1681526004810193909352602483019190915264ffffffffff16604482015260640160006040518083038186803b15801561232757600080fd5b505af415801561233b573d6000803e3d6000fd5b50505050600273__$364aad554dc80380f414546becdd2c1584$__639b4510de909160006123676127ce565b6040516001600160e01b031960e086901b1681526004810193909352602483019190915264ffffffffff16604482015260640160006040518083038186803b1580156123b257600080fd5b505af41580156123c6573d6000803e3d6000fd5b50505050600273__$364aad554dc80380f414546becdd2c1584$__639b48160c909160006123f26127ce565b6040516001600160e01b031960e086901b1681526004810193909352602483019190915264ffffffffff16604482015260640160006040518083038186803b15801561243d57600080fd5b505af4158015612451573d6000803e3d6000fd5b50506002805460ff60f01b1916600160f11b17905550506040517f35012b512309c322acf68632cd6cb702ff0e1d776fbe9394e38ffc13b434fe7590600090a1565b604051633b11adbf60e21b81526002600482015233602482015260009073__$364aad554dc80380f414546becdd2c1584$__9063ec46b6fc9060440160206040518083038186803b1580156124e757600080fd5b505af41580156124fb573d6000803e3d6000fd5b505050506040513d601f19601f8201168201806040525081019061251f9190613048565b806125a057506001546040516335d2155560e11b81523360048201526001600160a01b0390911690636ba42aaa9060240160206040518083038186803b15801561256857600080fd5b505afa15801561257c573d6000803e3d6000fd5b505050506040513d601f19601f820116820180604052508101906125a09190613048565b6125bc5760405162461bcd60e51b81526004016107299061306a565b6000838152600460208181526040808420868552909152918290209151635bbae7f560e11b815273__$d113c86820c60155271829fbf7bae741f8$__9263b775cfea9261260d920190815260200190565b60206040518083038186803b15801561262557600080fd5b505af4158015612639573d6000803e3d6000fd5b505050506040513d601f19601f8201168201806040525081019061265d9190613048565b15610b1f57827f47940b7029002299c9badb3d62d4f2d1596185044d62c18613dc775053a4914f836040516121b891815260200190565b61269c612952565b50600091825260046020908152604080842092845291815291819020815161014081018352815463ffffffff808216606080850191825261ffff6401000000008504811660808088019190915265ffffffffffff66010000000000008704811660a0808a0191909152600160601b880490911660c0808a019190915264ffffffffff600160901b8904811660e08b0152600160b81b808a0482166101008c0152600160e01b9099049097166101208a015294885289519485018a5260018901549586168552650100000000008604909216848b01526001600160401b0367010000000000000086048116858b0152600160781b86048116938501939093529484049091169382019390935260ff600160f81b909204919091169181019190915293810193909352600201549082015290565b60008054604051636ae3b70d60e11b81523360048201526001600160a01b039091169063d5c76e1a90602401602060405180830381600087803b15801561281457600080fd5b505af1158015610540573d6000803e3d6000fd5b6000546001600160a01b0316156128795760405162461bcd60e51b815260206004820152601560248201527430b63932b0b23c9039b2ba103932b3a1b2b73a32b960591b6044820152606401610729565b600080546001600160a01b0319166001600160a01b0392909216919091179055565b6001546001600160a01b0316156128f45760405162461bcd60e51b815260206004820152601960248201527f616c7265616479207365742067656e6572616c4b6565706572000000000000006044820152606401610729565b600180546001600160a01b0319166001600160a01b0392909216919091179055565b6040805160e081018252600080825260208201819052918101829052606081018290526080810182905260a0810182905260c081019190915290565b6040518060600160405280612965612916565b81526040805160c08101825260008082526020828101829052928201819052606082018190526080820181905260a08201529101908152600060209091015290565b600080604083850312156129ba57600080fd5b50508035926020909101359150565b634e487b7160e01b600052604160045260246000fd5b60405160e081016001600160401b0381118282101715612a0157612a016129c9565b60405290565b604051606081016001600160401b0381118282101715612a0157612a016129c9565b60405160c081016001600160401b0381118282101715612a0157612a016129c9565b604051601f8201601f191681016001600160401b0381118282101715612a7357612a736129c9565b604052919050565b63ffffffff81168114612a8d57600080fd5b50565b61ffff81168114612a8d57600080fd5b65ffffffffffff81168114612a8d57600080fd5b64ffffffffff81168114612a8d57600080fd5b600060e08284031215612ad957600080fd5b612ae16129df565b90508135612aee81612a7b565b81526020820135612afe81612a90565b60208201526040820135612b1181612aa0565b60408201526060820135612b2481612aa0565b60608201526080820135612b3781612ab4565b608082015260a0820135612b4a81612ab4565b60a082015260c0820135612b5d81612a7b565b60c082015292915050565b6001600160401b0381168114612a8d57600080fd5b60ff81168114612a8d57600080fd5b60008183036101c0811215612ba057600080fd5b612ba8612a07565b612bb28585612ac7565b815260c060df1983011215612bc657600080fd5b612bce612a29565b915060e0840135612bde81612ab4565b8252610100840135612bef81612a90565b6020830152610120840135612c0381612b68565b6040830152610140840135612c1781612b68565b6060830152610160840135612c2b81612b68565b6080830152610180840135612c3f81612b7d565b60a083015260208101919091526101a09290920135604083015250919050565b63ffffffff80825116835261ffff6020830151166020840152604082015165ffffffffffff80821660408601528060608501511660608601525050608082015164ffffffffff80821660808601528060a08501511660a086015250508060c08301511660c0840152505050565b60e08101610b1f8284612c5f565b600080600060608486031215612cef57600080fd5b505081359360208301359350604090920135919050565b600060208284031215612d1857600080fd5b5035919050565b64ffffffffff815116825261ffff602082015116602083015260408101516001600160401b038082166040850152806060840151166060850152806080840151166080850152505060ff60a08201511660a08301525050565b612d83828251612c5f565b6020810151612d9560e0840182612d1f565b50604001516101a09190910152565b6020808252825182820181905260009190848201906040850190845b81811015612de757612dd3838551612d78565b928401926101c09290920191600101612dc0565b50909695505050505050565b60008060008060008060c08789031215612e0c57600080fd5b505084359660208601359650604086013595606081013595506080810135945060a0013592509050565b600080600060608486031215612e4b57600080fd5b83359250602080850135925060408501356001600160401b0380821115612e7157600080fd5b818701915087601f830112612e8557600080fd5b813581811115612e9757612e976129c9565b612ea9601f8201601f19168501612a4b565b91508082528884828501011115612ebf57600080fd5b80848401858401376000848284010152508093505050509250925092565b6001600160a01b0381168114612a8d57600080fd5b600060208284031215612f0457600080fd5b8135610a8881612edd565b6101c08101610b1f8284612d78565b6000806000806000806101808789031215612f3857600080fd5b612f428888612ac7565b9860e0880135985061010088013597610120810135975061014081013596506101600135945092505050565b60008060008060808587031215612f8457600080fd5b5050823594602084013594506040840135936060013592509050565b60008060008060808587031215612fb657600080fd5b843593506020850135612fc881612edd565b92506040850135612fd881612edd565b91506060850135612fe881612edd565b939692955090935050565b6020808252825182820181905260009190848201906040850190845b81811015612de75783518352928401929184019160010161300f565b60006020828403121561303d57600080fd5b8151610a8881612ab4565b60006020828403121561305a57600080fd5b81518015158114610a8857600080fd5b60208082526011908201527020a19737b59d103737ba1025b2b2b832b960791b604082015260600190565b60006101e0820190508382526130af602083018451612c5f565b60208301516130c2610100840182612d1f565b5060408301516101c08301529392505050565b600060e082840312156130e757600080fd5b6130ef6129df565b905081516130fc81612a7b565b8152602082015161310c81612a90565b6020820152604082015161311f81612aa0565b6040820152606082015161313281612aa0565b6060820152608082015161314581612ab4565b608082015260a082015161315881612ab4565b60a082015260c0820151612b5d81612a7b565b600060e0828403121561317d57600080fd5b610a8883836130d5565b60006001600160401b038211156131a0576131a06129c9565b5060051b60200190565b60008183036101c08112156131be57600080fd5b6131c6612a07565b91506131d284846130d5565b825260c060df19820112156131e657600080fd5b506131ef612a29565b60e08301516131fd81612ab4565b815261010083015161320e81612a90565b602082015261012083015161322281612b68565b604082015261014083015161323681612b68565b606082015261016083015161324a81612b68565b608082015261018083015161325e81612b7d565b60a082015260208201526101a091909101516040820152919050565b6000602080838503121561328d57600080fd5b82516001600160401b038111156132a357600080fd5b8301601f810185136132b457600080fd5b80516132c76132c282613187565b612a4b565b8181526101c091820283018401918482019190888411156132e757600080fd5b938501935b8385101561330d576132fe89866131aa565b835293840193918501916132ec565b50979650505050505050565b60208082526026908201527f41432e6f6e6c794469726563744b65657065723a206e6f74206469726563742060408201526535b2b2b832b960d11b606082015260800190565b6000815180845260005b8181101561338557602081850181015186830182015201613369565b81811115613397576000602083870101525b50601f01601f19169290920160200192915050565b8281526040602082015260006133c5604083018461335f565b949350505050565b60006101c082840312156133e057600080fd5b610a8883836131aa565b8781526101a081016133ff6020830189612c5f565b6101008201969096526101208101949094526101408401929092526101608301526101809091015292915050565b6000602080838503121561344057600080fd5b82516001600160401b0381111561345657600080fd5b8301601f8101851361346757600080fd5b80516134756132c282613187565b81815260059190911b8201830190838101908783111561349457600080fd5b928401925b828410156134b257835182529284019290840190613499565b979650505050505050565b6000602082840312156134cf57600080fd5b8151610a8881612edd56fea2646970667358221220ca25b14a9694b38cabbc2267db6f679ecedd2bda1932e0948db454edcf2bb2af64736f6c63430008080033",
    "sourcePath": "/Users/kaptain/github.com/hardhat/comboox/contracts/books/bop/BookOfPledges.sol",
    "compiler": {
        "name": "solc",
        "version": "0.8.8+commit.dddeac2f"
    },
    "functionHashes": {
        "abandonRole(bytes32)": "3da9a600",
        "counterOfPledges(uint256)": "2d5562ca",
        "createPledge(bytes32,uint256,uint256,uint256,uint256,uint256)": "33e68530",
        "execPledge(uint256,uint256)": "e9c733d2",
        "extendPledge(uint256,uint256,uint256)": "3c851592",
        "finalized()": "b3f05b97",
        "getBookeeper()": "ed211023",
        "getGeneralCounsel()": "103f6edd",
        "getOwner()": "893d20e8",
        "getPledge(uint256,uint256)": "f671e821",
        "getPledgesOfShare(uint256)": "2e667364",
        "getSNList()": "e87a6f18",
        "grantRole(bytes32,uint256)": "1b6ea9f9",
        "hasRole(bytes32,uint256)": "7e063c5a",
        "init(uint256,address,address,address)": "dc890da9",
        "isPledge(uint256,uint256)": "5690364b",
        "issuePledge((uint32,uint16,uint48,uint48,uint40,uint40,uint32),uint256,uint256,uint256,uint256,uint256)": "9a3c29ce",
        "lockContents()": "f045a769",
        "lockPledge(uint256,uint256,bytes32)": "205969bd",
        "refundDebt(uint256,uint256,uint256)": "61d65d55",
        "regPledge(((uint32,uint16,uint48,uint48,uint40,uint40,uint32),(uint40,uint16,uint64,uint64,uint64,uint8),bytes32))": "1b684d27",
        "releasePledge(uint256,uint256,string)": "50235307",
        "removeDirectKeeper(address)": "5d7ad88f",
        "renounceRole(bytes32)": "8bb9c5bf",
        "revokePledge(uint256,uint256)": "f424672b",
        "revokeRole(bytes32,uint256)": "19d61ad9",
        "setDirectKeeper(address)": "6be8496f",
        "setGeneralCounsel(uint256)": "4a14beb1",
        "setOwner(uint256)": "8041494e",
        "setRoleAdmin(bytes32,uint256)": "5171ebd4",
        "transferPledge(uint256,uint256,uint256,uint256)": "a023707d"
    },
    "gasEstimates": {
        "creation": {
            "codeDepositCost": "2716800",
            "executionCost": "2953",
            "totalCost": "2719753"
        },
        "external": {
            "abandonRole(bytes32)": "infinite",
            "counterOfPledges(uint256)": "2626",
            "createPledge(bytes32,uint256,uint256,uint256,uint256,uint256)": "infinite",
            "execPledge(uint256,uint256)": "infinite",
            "extendPledge(uint256,uint256,uint256)": "infinite",
            "finalized()": "2372",
            "getBookeeper()": "infinite",
            "getGeneralCounsel()": "infinite",
            "getOwner()": "infinite",
            "getPledge(uint256,uint256)": "8594",
            "getPledgesOfShare(uint256)": "infinite",
            "getSNList()": "infinite",
            "grantRole(bytes32,uint256)": "infinite",
            "hasRole(bytes32,uint256)": "infinite",
            "init(uint256,address,address,address)": "infinite",
            "isPledge(uint256,uint256)": "2651",
            "issuePledge((uint32,uint16,uint48,uint48,uint40,uint40,uint32),uint256,uint256,uint256,uint256,uint256)": "infinite",
            "lockContents()": "infinite",
            "lockPledge(uint256,uint256,bytes32)": "infinite",
            "refundDebt(uint256,uint256,uint256)": "infinite",
            "regPledge(((uint32,uint16,uint48,uint48,uint40,uint40,uint32),(uint40,uint16,uint64,uint64,uint64,uint8),bytes32))": "infinite",
            "releasePledge(uint256,uint256,string)": "infinite",
            "removeDirectKeeper(address)": "infinite",
            "renounceRole(bytes32)": "infinite",
            "revokePledge(uint256,uint256)": "infinite",
            "revokeRole(bytes32,uint256)": "infinite",
            "setDirectKeeper(address)": "infinite",
            "setGeneralCounsel(uint256)": "infinite",
            "setOwner(uint256)": "infinite",
            "setRoleAdmin(bytes32,uint256)": "infinite",
            "transferPledge(uint256,uint256,uint256,uint256)": "infinite"
        }
    }
}