{
    "contractName": "BookOfPledges",
    "abi": [
        {
            "anonymous": false,
            "inputs": [
                {
                    "indexed": true,
                    "internalType": "uint256",
                    "name": "seqOfShare",
                    "type": "uint256"
                },
                {
                    "indexed": false,
                    "internalType": "uint256",
                    "name": "seqOfPld",
                    "type": "uint256"
                },
                {
                    "indexed": false,
                    "internalType": "uint256",
                    "name": "creditor",
                    "type": "uint256"
                },
                {
                    "indexed": false,
                    "internalType": "uint256",
                    "name": "paid",
                    "type": "uint256"
                },
                {
                    "indexed": false,
                    "internalType": "uint256",
                    "name": "par",
                    "type": "uint256"
                }
            ],
            "name": "CreatePledge",
            "type": "event"
        },
        {
            "anonymous": false,
            "inputs": [
                {
                    "indexed": true,
                    "internalType": "uint256",
                    "name": "seqOfShare",
                    "type": "uint256"
                },
                {
                    "indexed": false,
                    "internalType": "uint256",
                    "name": "seqOfPld",
                    "type": "uint256"
                }
            ],
            "name": "ExecPledge",
            "type": "event"
        },
        {
            "anonymous": false,
            "inputs": [
                {
                    "indexed": true,
                    "internalType": "uint256",
                    "name": "seqOfShare",
                    "type": "uint256"
                },
                {
                    "indexed": false,
                    "internalType": "uint256",
                    "name": "seqOfPld",
                    "type": "uint256"
                },
                {
                    "indexed": false,
                    "internalType": "uint256",
                    "name": "extDays",
                    "type": "uint256"
                }
            ],
            "name": "ExtendPledge",
            "type": "event"
        },
        {
            "anonymous": false,
            "inputs": [
                {
                    "indexed": false,
                    "internalType": "uint256",
                    "name": "owner",
                    "type": "uint256"
                },
                {
                    "indexed": false,
                    "internalType": "address",
                    "name": "directKeeper",
                    "type": "address"
                },
                {
                    "indexed": false,
                    "internalType": "address",
                    "name": "regCenter",
                    "type": "address"
                },
                {
                    "indexed": false,
                    "internalType": "address",
                    "name": "generalKeeper",
                    "type": "address"
                }
            ],
            "name": "Init",
            "type": "event"
        },
        {
            "anonymous": false,
            "inputs": [],
            "name": "LockContents",
            "type": "event"
        },
        {
            "anonymous": false,
            "inputs": [
                {
                    "indexed": true,
                    "internalType": "uint256",
                    "name": "seqOfShare",
                    "type": "uint256"
                },
                {
                    "indexed": false,
                    "internalType": "uint256",
                    "name": "seqOfPld",
                    "type": "uint256"
                },
                {
                    "indexed": false,
                    "internalType": "bytes32",
                    "name": "hashLock",
                    "type": "bytes32"
                }
            ],
            "name": "LockPledge",
            "type": "event"
        },
        {
            "anonymous": false,
            "inputs": [
                {
                    "indexed": true,
                    "internalType": "uint256",
                    "name": "seqOfShare",
                    "type": "uint256"
                },
                {
                    "indexed": false,
                    "internalType": "uint256",
                    "name": "seqOfPld",
                    "type": "uint256"
                },
                {
                    "indexed": false,
                    "internalType": "uint256",
                    "name": "refundAmt",
                    "type": "uint256"
                }
            ],
            "name": "RefundDebt",
            "type": "event"
        },
        {
            "anonymous": false,
            "inputs": [
                {
                    "indexed": true,
                    "internalType": "uint256",
                    "name": "seqOfShare",
                    "type": "uint256"
                },
                {
                    "indexed": false,
                    "internalType": "uint256",
                    "name": "seqOfPld",
                    "type": "uint256"
                },
                {
                    "indexed": false,
                    "internalType": "string",
                    "name": "hashKey",
                    "type": "string"
                }
            ],
            "name": "ReleasePledge",
            "type": "event"
        },
        {
            "anonymous": false,
            "inputs": [
                {
                    "indexed": true,
                    "internalType": "uint256",
                    "name": "seqOfShare",
                    "type": "uint256"
                },
                {
                    "indexed": false,
                    "internalType": "uint256",
                    "name": "seqOfPld",
                    "type": "uint256"
                }
            ],
            "name": "RevokePledge",
            "type": "event"
        },
        {
            "anonymous": false,
            "inputs": [
                {
                    "indexed": false,
                    "internalType": "address",
                    "name": "keeper",
                    "type": "address"
                }
            ],
            "name": "SetDirectKeeper",
            "type": "event"
        },
        {
            "anonymous": false,
            "inputs": [
                {
                    "indexed": false,
                    "internalType": "uint256",
                    "name": "acct",
                    "type": "uint256"
                }
            ],
            "name": "SetGeneralCounsel",
            "type": "event"
        },
        {
            "anonymous": false,
            "inputs": [
                {
                    "indexed": false,
                    "internalType": "address",
                    "name": "gk",
                    "type": "address"
                }
            ],
            "name": "SetGeneralKeeper",
            "type": "event"
        },
        {
            "anonymous": false,
            "inputs": [
                {
                    "indexed": false,
                    "internalType": "uint256",
                    "name": "acct",
                    "type": "uint256"
                }
            ],
            "name": "SetOwner",
            "type": "event"
        },
        {
            "anonymous": false,
            "inputs": [
                {
                    "indexed": false,
                    "internalType": "address",
                    "name": "rc",
                    "type": "address"
                }
            ],
            "name": "SetRegCenter",
            "type": "event"
        },
        {
            "anonymous": false,
            "inputs": [
                {
                    "indexed": true,
                    "internalType": "uint256",
                    "name": "seqOfShare",
                    "type": "uint256"
                },
                {
                    "indexed": false,
                    "internalType": "uint256",
                    "name": "seqOfPld",
                    "type": "uint256"
                },
                {
                    "indexed": false,
                    "internalType": "uint256",
                    "name": "newSeqOfPld",
                    "type": "uint256"
                },
                {
                    "indexed": false,
                    "internalType": "uint256",
                    "name": "buyer",
                    "type": "uint256"
                },
                {
                    "indexed": false,
                    "internalType": "uint256",
                    "name": "paid",
                    "type": "uint256"
                },
                {
                    "indexed": false,
                    "internalType": "uint256",
                    "name": "par",
                    "type": "uint256"
                }
            ],
            "name": "TransferPledge",
            "type": "event"
        },
        {
            "inputs": [
                {
                    "internalType": "bytes32",
                    "name": "role",
                    "type": "bytes32"
                }
            ],
            "name": "abandonRole",
            "outputs": [],
            "stateMutability": "nonpayable",
            "type": "function"
        },
        {
            "inputs": [
                {
                    "internalType": "uint256",
                    "name": "seqOfShare",
                    "type": "uint256"
                }
            ],
            "name": "counterOfPledges",
            "outputs": [
                {
                    "internalType": "uint16",
                    "name": "",
                    "type": "uint16"
                }
            ],
            "stateMutability": "view",
            "type": "function"
        },
        {
            "inputs": [
                {
                    "internalType": "uint256",
                    "name": "sn",
                    "type": "uint256"
                },
                {
                    "internalType": "uint40",
                    "name": "creditor",
                    "type": "uint40"
                },
                {
                    "internalType": "uint16",
                    "name": "guaranteeDays",
                    "type": "uint16"
                },
                {
                    "internalType": "uint64",
                    "name": "paid",
                    "type": "uint64"
                },
                {
                    "internalType": "uint64",
                    "name": "par",
                    "type": "uint64"
                },
                {
                    "internalType": "uint64",
                    "name": "guaranteedAmt",
                    "type": "uint64"
                }
            ],
            "name": "createPledge",
            "outputs": [
                {
                    "components": [
                        {
                            "internalType": "uint32",
                            "name": "seqOfShare",
                            "type": "uint32"
                        },
                        {
                            "internalType": "uint16",
                            "name": "seqOfPld",
                            "type": "uint16"
                        },
                        {
                            "internalType": "uint48",
                            "name": "createDate",
                            "type": "uint48"
                        },
                        {
                            "internalType": "uint48",
                            "name": "triggerDate",
                            "type": "uint48"
                        },
                        {
                            "internalType": "uint40",
                            "name": "pledgor",
                            "type": "uint40"
                        },
                        {
                            "internalType": "uint40",
                            "name": "debtor",
                            "type": "uint40"
                        }
                    ],
                    "internalType": "struct PledgesRepo.Head",
                    "name": "head",
                    "type": "tuple"
                }
            ],
            "stateMutability": "nonpayable",
            "type": "function"
        },
        {
            "inputs": [
                {
                    "internalType": "uint256",
                    "name": "seqOfShare",
                    "type": "uint256"
                },
                {
                    "internalType": "uint256",
                    "name": "seqOfPld",
                    "type": "uint256"
                }
            ],
            "name": "execPledge",
            "outputs": [
                {
                    "internalType": "bool",
                    "name": "flag",
                    "type": "bool"
                }
            ],
            "stateMutability": "nonpayable",
            "type": "function"
        },
        {
            "inputs": [
                {
                    "internalType": "uint256",
                    "name": "seqOfShare",
                    "type": "uint256"
                },
                {
                    "internalType": "uint256",
                    "name": "seqOfPld",
                    "type": "uint256"
                },
                {
                    "internalType": "uint16",
                    "name": "extDays",
                    "type": "uint16"
                }
            ],
            "name": "extendPledge",
            "outputs": [],
            "stateMutability": "nonpayable",
            "type": "function"
        },
        {
            "inputs": [],
            "name": "finalized",
            "outputs": [
                {
                    "internalType": "bool",
                    "name": "",
                    "type": "bool"
                }
            ],
            "stateMutability": "view",
            "type": "function"
        },
        {
            "inputs": [],
            "name": "getBookeeper",
            "outputs": [
                {
                    "internalType": "address",
                    "name": "",
                    "type": "address"
                }
            ],
            "stateMutability": "view",
            "type": "function"
        },
        {
            "inputs": [],
            "name": "getGeneralCounsel",
            "outputs": [
                {
                    "internalType": "uint40",
                    "name": "",
                    "type": "uint40"
                }
            ],
            "stateMutability": "view",
            "type": "function"
        },
        {
            "inputs": [],
            "name": "getOwner",
            "outputs": [
                {
                    "internalType": "uint40",
                    "name": "",
                    "type": "uint40"
                }
            ],
            "stateMutability": "view",
            "type": "function"
        },
        {
            "inputs": [
                {
                    "internalType": "uint256",
                    "name": "seqOfShare",
                    "type": "uint256"
                },
                {
                    "internalType": "uint256",
                    "name": "seqOfPld",
                    "type": "uint256"
                }
            ],
            "name": "getPledge",
            "outputs": [
                {
                    "components": [
                        {
                            "components": [
                                {
                                    "internalType": "uint32",
                                    "name": "seqOfShare",
                                    "type": "uint32"
                                },
                                {
                                    "internalType": "uint16",
                                    "name": "seqOfPld",
                                    "type": "uint16"
                                },
                                {
                                    "internalType": "uint48",
                                    "name": "createDate",
                                    "type": "uint48"
                                },
                                {
                                    "internalType": "uint48",
                                    "name": "triggerDate",
                                    "type": "uint48"
                                },
                                {
                                    "internalType": "uint40",
                                    "name": "pledgor",
                                    "type": "uint40"
                                },
                                {
                                    "internalType": "uint40",
                                    "name": "debtor",
                                    "type": "uint40"
                                }
                            ],
                            "internalType": "struct PledgesRepo.Head",
                            "name": "head",
                            "type": "tuple"
                        },
                        {
                            "components": [
                                {
                                    "internalType": "uint40",
                                    "name": "creditor",
                                    "type": "uint40"
                                },
                                {
                                    "internalType": "uint16",
                                    "name": "guaranteeDays",
                                    "type": "uint16"
                                },
                                {
                                    "internalType": "uint64",
                                    "name": "paid",
                                    "type": "uint64"
                                },
                                {
                                    "internalType": "uint64",
                                    "name": "par",
                                    "type": "uint64"
                                },
                                {
                                    "internalType": "uint64",
                                    "name": "guaranteedAmt",
                                    "type": "uint64"
                                },
                                {
                                    "internalType": "uint8",
                                    "name": "state",
                                    "type": "uint8"
                                }
                            ],
                            "internalType": "struct PledgesRepo.Body",
                            "name": "body",
                            "type": "tuple"
                        },
                        {
                            "internalType": "bytes32",
                            "name": "hashLock",
                            "type": "bytes32"
                        }
                    ],
                    "internalType": "struct PledgesRepo.Pledge",
                    "name": "pld",
                    "type": "tuple"
                }
            ],
            "stateMutability": "view",
            "type": "function"
        },
        {
            "inputs": [
                {
                    "internalType": "uint256",
                    "name": "seqOfShare",
                    "type": "uint256"
                }
            ],
            "name": "getPledgesOfShare",
            "outputs": [
                {
                    "components": [
                        {
                            "components": [
                                {
                                    "internalType": "uint32",
                                    "name": "seqOfShare",
                                    "type": "uint32"
                                },
                                {
                                    "internalType": "uint16",
                                    "name": "seqOfPld",
                                    "type": "uint16"
                                },
                                {
                                    "internalType": "uint48",
                                    "name": "createDate",
                                    "type": "uint48"
                                },
                                {
                                    "internalType": "uint48",
                                    "name": "triggerDate",
                                    "type": "uint48"
                                },
                                {
                                    "internalType": "uint40",
                                    "name": "pledgor",
                                    "type": "uint40"
                                },
                                {
                                    "internalType": "uint40",
                                    "name": "debtor",
                                    "type": "uint40"
                                }
                            ],
                            "internalType": "struct PledgesRepo.Head",
                            "name": "head",
                            "type": "tuple"
                        },
                        {
                            "components": [
                                {
                                    "internalType": "uint40",
                                    "name": "creditor",
                                    "type": "uint40"
                                },
                                {
                                    "internalType": "uint16",
                                    "name": "guaranteeDays",
                                    "type": "uint16"
                                },
                                {
                                    "internalType": "uint64",
                                    "name": "paid",
                                    "type": "uint64"
                                },
                                {
                                    "internalType": "uint64",
                                    "name": "par",
                                    "type": "uint64"
                                },
                                {
                                    "internalType": "uint64",
                                    "name": "guaranteedAmt",
                                    "type": "uint64"
                                },
                                {
                                    "internalType": "uint8",
                                    "name": "state",
                                    "type": "uint8"
                                }
                            ],
                            "internalType": "struct PledgesRepo.Body",
                            "name": "body",
                            "type": "tuple"
                        },
                        {
                            "internalType": "bytes32",
                            "name": "hashLock",
                            "type": "bytes32"
                        }
                    ],
                    "internalType": "struct PledgesRepo.Pledge[]",
                    "name": "",
                    "type": "tuple[]"
                }
            ],
            "stateMutability": "view",
            "type": "function"
        },
        {
            "inputs": [],
            "name": "getSnList",
            "outputs": [
                {
                    "internalType": "uint256[]",
                    "name": "list",
                    "type": "uint256[]"
                }
            ],
            "stateMutability": "view",
            "type": "function"
        },
        {
            "inputs": [
                {
                    "internalType": "bytes32",
                    "name": "role",
                    "type": "bytes32"
                },
                {
                    "internalType": "uint256",
                    "name": "acct",
                    "type": "uint256"
                }
            ],
            "name": "grantRole",
            "outputs": [],
            "stateMutability": "nonpayable",
            "type": "function"
        },
        {
            "inputs": [
                {
                    "internalType": "bytes32",
                    "name": "role",
                    "type": "bytes32"
                },
                {
                    "internalType": "uint256",
                    "name": "acct",
                    "type": "uint256"
                }
            ],
            "name": "hasRole",
            "outputs": [
                {
                    "internalType": "bool",
                    "name": "",
                    "type": "bool"
                }
            ],
            "stateMutability": "view",
            "type": "function"
        },
        {
            "inputs": [
                {
                    "internalType": "uint256",
                    "name": "owner",
                    "type": "uint256"
                },
                {
                    "internalType": "address",
                    "name": "directKeeper",
                    "type": "address"
                },
                {
                    "internalType": "address",
                    "name": "regCenter",
                    "type": "address"
                },
                {
                    "internalType": "address",
                    "name": "generalKeeper",
                    "type": "address"
                }
            ],
            "name": "init",
            "outputs": [],
            "stateMutability": "nonpayable",
            "type": "function"
        },
        {
            "inputs": [
                {
                    "internalType": "uint256",
                    "name": "seqOfShare",
                    "type": "uint256"
                },
                {
                    "internalType": "uint256",
                    "name": "seqOfPledge",
                    "type": "uint256"
                }
            ],
            "name": "isPledge",
            "outputs": [
                {
                    "internalType": "bool",
                    "name": "",
                    "type": "bool"
                }
            ],
            "stateMutability": "view",
            "type": "function"
        },
        {
            "inputs": [
                {
                    "components": [
                        {
                            "internalType": "uint32",
                            "name": "seqOfShare",
                            "type": "uint32"
                        },
                        {
                            "internalType": "uint16",
                            "name": "seqOfPld",
                            "type": "uint16"
                        },
                        {
                            "internalType": "uint48",
                            "name": "createDate",
                            "type": "uint48"
                        },
                        {
                            "internalType": "uint48",
                            "name": "triggerDate",
                            "type": "uint48"
                        },
                        {
                            "internalType": "uint40",
                            "name": "pledgor",
                            "type": "uint40"
                        },
                        {
                            "internalType": "uint40",
                            "name": "debtor",
                            "type": "uint40"
                        }
                    ],
                    "internalType": "struct PledgesRepo.Head",
                    "name": "head",
                    "type": "tuple"
                },
                {
                    "internalType": "uint40",
                    "name": "creditor",
                    "type": "uint40"
                },
                {
                    "internalType": "uint16",
                    "name": "guaranteeDays",
                    "type": "uint16"
                },
                {
                    "internalType": "uint64",
                    "name": "paid",
                    "type": "uint64"
                },
                {
                    "internalType": "uint64",
                    "name": "par",
                    "type": "uint64"
                },
                {
                    "internalType": "uint64",
                    "name": "guaranteedAmt",
                    "type": "uint64"
                }
            ],
            "name": "issuePledge",
            "outputs": [
                {
                    "components": [
                        {
                            "internalType": "uint32",
                            "name": "seqOfShare",
                            "type": "uint32"
                        },
                        {
                            "internalType": "uint16",
                            "name": "seqOfPld",
                            "type": "uint16"
                        },
                        {
                            "internalType": "uint48",
                            "name": "createDate",
                            "type": "uint48"
                        },
                        {
                            "internalType": "uint48",
                            "name": "triggerDate",
                            "type": "uint48"
                        },
                        {
                            "internalType": "uint40",
                            "name": "pledgor",
                            "type": "uint40"
                        },
                        {
                            "internalType": "uint40",
                            "name": "debtor",
                            "type": "uint40"
                        }
                    ],
                    "internalType": "struct PledgesRepo.Head",
                    "name": "regHead",
                    "type": "tuple"
                }
            ],
            "stateMutability": "nonpayable",
            "type": "function"
        },
        {
            "inputs": [],
            "name": "lockContents",
            "outputs": [],
            "stateMutability": "nonpayable",
            "type": "function"
        },
        {
            "inputs": [
                {
                    "internalType": "uint256",
                    "name": "seqOfShare",
                    "type": "uint256"
                },
                {
                    "internalType": "uint256",
                    "name": "seqOfPld",
                    "type": "uint256"
                },
                {
                    "internalType": "bytes32",
                    "name": "hashLock",
                    "type": "bytes32"
                }
            ],
            "name": "lockPledge",
            "outputs": [
                {
                    "internalType": "bool",
                    "name": "flag",
                    "type": "bool"
                }
            ],
            "stateMutability": "nonpayable",
            "type": "function"
        },
        {
            "inputs": [
                {
                    "internalType": "uint256",
                    "name": "seqOfShare",
                    "type": "uint256"
                },
                {
                    "internalType": "uint256",
                    "name": "seqOfPld",
                    "type": "uint256"
                },
                {
                    "internalType": "uint64",
                    "name": "amt",
                    "type": "uint64"
                }
            ],
            "name": "refundDebt",
            "outputs": [
                {
                    "components": [
                        {
                            "components": [
                                {
                                    "internalType": "uint32",
                                    "name": "seqOfShare",
                                    "type": "uint32"
                                },
                                {
                                    "internalType": "uint16",
                                    "name": "seqOfPld",
                                    "type": "uint16"
                                },
                                {
                                    "internalType": "uint48",
                                    "name": "createDate",
                                    "type": "uint48"
                                },
                                {
                                    "internalType": "uint48",
                                    "name": "triggerDate",
                                    "type": "uint48"
                                },
                                {
                                    "internalType": "uint40",
                                    "name": "pledgor",
                                    "type": "uint40"
                                },
                                {
                                    "internalType": "uint40",
                                    "name": "debtor",
                                    "type": "uint40"
                                }
                            ],
                            "internalType": "struct PledgesRepo.Head",
                            "name": "head",
                            "type": "tuple"
                        },
                        {
                            "components": [
                                {
                                    "internalType": "uint40",
                                    "name": "creditor",
                                    "type": "uint40"
                                },
                                {
                                    "internalType": "uint16",
                                    "name": "guaranteeDays",
                                    "type": "uint16"
                                },
                                {
                                    "internalType": "uint64",
                                    "name": "paid",
                                    "type": "uint64"
                                },
                                {
                                    "internalType": "uint64",
                                    "name": "par",
                                    "type": "uint64"
                                },
                                {
                                    "internalType": "uint64",
                                    "name": "guaranteedAmt",
                                    "type": "uint64"
                                },
                                {
                                    "internalType": "uint8",
                                    "name": "state",
                                    "type": "uint8"
                                }
                            ],
                            "internalType": "struct PledgesRepo.Body",
                            "name": "body",
                            "type": "tuple"
                        },
                        {
                            "internalType": "bytes32",
                            "name": "hashLock",
                            "type": "bytes32"
                        }
                    ],
                    "internalType": "struct PledgesRepo.Pledge",
                    "name": "newPld",
                    "type": "tuple"
                }
            ],
            "stateMutability": "nonpayable",
            "type": "function"
        },
        {
            "inputs": [
                {
                    "components": [
                        {
                            "components": [
                                {
                                    "internalType": "uint32",
                                    "name": "seqOfShare",
                                    "type": "uint32"
                                },
                                {
                                    "internalType": "uint16",
                                    "name": "seqOfPld",
                                    "type": "uint16"
                                },
                                {
                                    "internalType": "uint48",
                                    "name": "createDate",
                                    "type": "uint48"
                                },
                                {
                                    "internalType": "uint48",
                                    "name": "triggerDate",
                                    "type": "uint48"
                                },
                                {
                                    "internalType": "uint40",
                                    "name": "pledgor",
                                    "type": "uint40"
                                },
                                {
                                    "internalType": "uint40",
                                    "name": "debtor",
                                    "type": "uint40"
                                }
                            ],
                            "internalType": "struct PledgesRepo.Head",
                            "name": "head",
                            "type": "tuple"
                        },
                        {
                            "components": [
                                {
                                    "internalType": "uint40",
                                    "name": "creditor",
                                    "type": "uint40"
                                },
                                {
                                    "internalType": "uint16",
                                    "name": "guaranteeDays",
                                    "type": "uint16"
                                },
                                {
                                    "internalType": "uint64",
                                    "name": "paid",
                                    "type": "uint64"
                                },
                                {
                                    "internalType": "uint64",
                                    "name": "par",
                                    "type": "uint64"
                                },
                                {
                                    "internalType": "uint64",
                                    "name": "guaranteedAmt",
                                    "type": "uint64"
                                },
                                {
                                    "internalType": "uint8",
                                    "name": "state",
                                    "type": "uint8"
                                }
                            ],
                            "internalType": "struct PledgesRepo.Body",
                            "name": "body",
                            "type": "tuple"
                        },
                        {
                            "internalType": "bytes32",
                            "name": "hashLock",
                            "type": "bytes32"
                        }
                    ],
                    "internalType": "struct PledgesRepo.Pledge",
                    "name": "pld",
                    "type": "tuple"
                }
            ],
            "name": "regPledge",
            "outputs": [
                {
                    "components": [
                        {
                            "internalType": "uint32",
                            "name": "seqOfShare",
                            "type": "uint32"
                        },
                        {
                            "internalType": "uint16",
                            "name": "seqOfPld",
                            "type": "uint16"
                        },
                        {
                            "internalType": "uint48",
                            "name": "createDate",
                            "type": "uint48"
                        },
                        {
                            "internalType": "uint48",
                            "name": "triggerDate",
                            "type": "uint48"
                        },
                        {
                            "internalType": "uint40",
                            "name": "pledgor",
                            "type": "uint40"
                        },
                        {
                            "internalType": "uint40",
                            "name": "debtor",
                            "type": "uint40"
                        }
                    ],
                    "internalType": "struct PledgesRepo.Head",
                    "name": "head",
                    "type": "tuple"
                }
            ],
            "stateMutability": "nonpayable",
            "type": "function"
        },
        {
            "inputs": [
                {
                    "internalType": "uint256",
                    "name": "seqOfShare",
                    "type": "uint256"
                },
                {
                    "internalType": "uint256",
                    "name": "seqOfPld",
                    "type": "uint256"
                },
                {
                    "internalType": "string",
                    "name": "hashKey",
                    "type": "string"
                }
            ],
            "name": "releasePledge",
            "outputs": [
                {
                    "internalType": "bool",
                    "name": "flag",
                    "type": "bool"
                }
            ],
            "stateMutability": "nonpayable",
            "type": "function"
        },
        {
            "inputs": [
                {
                    "internalType": "bytes32",
                    "name": "role",
                    "type": "bytes32"
                }
            ],
            "name": "renounceRole",
            "outputs": [],
            "stateMutability": "nonpayable",
            "type": "function"
        },
        {
            "inputs": [
                {
                    "internalType": "uint256",
                    "name": "seqOfShare",
                    "type": "uint256"
                },
                {
                    "internalType": "uint256",
                    "name": "seqOfPld",
                    "type": "uint256"
                }
            ],
            "name": "revokePledge",
            "outputs": [
                {
                    "internalType": "bool",
                    "name": "flag",
                    "type": "bool"
                }
            ],
            "stateMutability": "nonpayable",
            "type": "function"
        },
        {
            "inputs": [
                {
                    "internalType": "bytes32",
                    "name": "role",
                    "type": "bytes32"
                },
                {
                    "internalType": "uint256",
                    "name": "acct",
                    "type": "uint256"
                }
            ],
            "name": "revokeRole",
            "outputs": [],
            "stateMutability": "nonpayable",
            "type": "function"
        },
        {
            "inputs": [
                {
                    "internalType": "address",
                    "name": "keeper",
                    "type": "address"
                }
            ],
            "name": "setDirectKeeper",
            "outputs": [],
            "stateMutability": "nonpayable",
            "type": "function"
        },
        {
            "inputs": [
                {
                    "internalType": "uint256",
                    "name": "acct",
                    "type": "uint256"
                }
            ],
            "name": "setGeneralCounsel",
            "outputs": [],
            "stateMutability": "nonpayable",
            "type": "function"
        },
        {
            "inputs": [
                {
                    "internalType": "uint256",
                    "name": "acct",
                    "type": "uint256"
                }
            ],
            "name": "setOwner",
            "outputs": [],
            "stateMutability": "nonpayable",
            "type": "function"
        },
        {
            "inputs": [
                {
                    "internalType": "bytes32",
                    "name": "role",
                    "type": "bytes32"
                },
                {
                    "internalType": "uint256",
                    "name": "acct",
                    "type": "uint256"
                }
            ],
            "name": "setRoleAdmin",
            "outputs": [],
            "stateMutability": "nonpayable",
            "type": "function"
        },
        {
            "inputs": [
                {
                    "internalType": "uint256",
                    "name": "seqOfShare",
                    "type": "uint256"
                },
                {
                    "internalType": "uint256",
                    "name": "seqOfPld",
                    "type": "uint256"
                },
                {
                    "internalType": "uint40",
                    "name": "buyer",
                    "type": "uint40"
                },
                {
                    "internalType": "uint64",
                    "name": "amt",
                    "type": "uint64"
                }
            ],
            "name": "transferPledge",
            "outputs": [
                {
                    "components": [
                        {
                            "components": [
                                {
                                    "internalType": "uint32",
                                    "name": "seqOfShare",
                                    "type": "uint32"
                                },
                                {
                                    "internalType": "uint16",
                                    "name": "seqOfPld",
                                    "type": "uint16"
                                },
                                {
                                    "internalType": "uint48",
                                    "name": "createDate",
                                    "type": "uint48"
                                },
                                {
                                    "internalType": "uint48",
                                    "name": "triggerDate",
                                    "type": "uint48"
                                },
                                {
                                    "internalType": "uint40",
                                    "name": "pledgor",
                                    "type": "uint40"
                                },
                                {
                                    "internalType": "uint40",
                                    "name": "debtor",
                                    "type": "uint40"
                                }
                            ],
                            "internalType": "struct PledgesRepo.Head",
                            "name": "head",
                            "type": "tuple"
                        },
                        {
                            "components": [
                                {
                                    "internalType": "uint40",
                                    "name": "creditor",
                                    "type": "uint40"
                                },
                                {
                                    "internalType": "uint16",
                                    "name": "guaranteeDays",
                                    "type": "uint16"
                                },
                                {
                                    "internalType": "uint64",
                                    "name": "paid",
                                    "type": "uint64"
                                },
                                {
                                    "internalType": "uint64",
                                    "name": "par",
                                    "type": "uint64"
                                },
                                {
                                    "internalType": "uint64",
                                    "name": "guaranteedAmt",
                                    "type": "uint64"
                                },
                                {
                                    "internalType": "uint8",
                                    "name": "state",
                                    "type": "uint8"
                                }
                            ],
                            "internalType": "struct PledgesRepo.Body",
                            "name": "body",
                            "type": "tuple"
                        },
                        {
                            "internalType": "bytes32",
                            "name": "hashLock",
                            "type": "bytes32"
                        }
                    ],
                    "internalType": "struct PledgesRepo.Pledge",
                    "name": "newPld",
                    "type": "tuple"
                }
            ],
            "stateMutability": "nonpayable",
            "type": "function"
        }
    ],
    "bytecode": "608060405234801561001057600080fd5b50613166806100206000396000f3fe608060405234801561001057600080fd5b50600436106101da5760003560e01c80636be8496f11610104578063c4ec81d8116100a2578063efecf88a11610071578063efecf88a14610482578063f045a76914610495578063f424672b1461049d578063f671e821146104b057600080fd5b8063c4ec81d814610429578063dc890da91461043c578063e9c733d21461044f578063ed2110231461046257600080fd5b8063893d20e8116100de578063893d20e8146103e75780638bb9c5bf146103ef57806397f4a20514610402578063b3f05b971461041557600080fd5b80636be8496f146103ae5780637e063c5a146103c15780638041494e146103d457600080fd5b80632e6673641161017c5780635171ebd41161014b5780635171ebd414610329578063530497271461033c578063542f28e61461035c5780635690364b1461036f57600080fd5b80632e667364146102d05780633da9a600146102f05780634a14beb114610303578063502353071461031657600080fd5b806319d61ad9116101b857806319d61ad91461023b5780631b6ea9f914610250578063205969bd146102635780632d5562ca1461028657600080fd5b8063066fd6fb146101df578063103f6edd146102085780631370f8b514610226575b600080fd5b6101f26101ed366004612664565b6104c3565b6040516101ff9190612748565b60405180910390f35b610210610656565b60405164ffffffffff90911681526020016101ff565b61022e6106e2565b6040516101ff9190612756565b61024e61024936600461279a565b61076b565b005b61024e61025e36600461279a565b6107ff565b6102766102713660046127bc565b610824565b60405190151581526020016101ff565b6102bd6102943660046127e8565b6000908152600460209081526040808320838052909152902054640100000000900461ffff1690565b60405161ffff90911681526020016101ff565b6102e36102de3660046127e8565b6109b0565b6040516101ff9190612886565b61024e6102fe3660046127e8565b610a46565b61024e6103113660046127e8565b610b58565b6102766103243660046128c9565b610d48565b61024e61033736600461279a565b610eb6565b61034f61034a366004612970565b610edb565b6040516101ff91906129a9565b61034f61036a3660046129b8565b61106e565b61027661037d36600461279a565b60009182526004602090815260408084209284529190529020546601000000000000900465ffffffffffff16151590565b61024e6103bc366004612a17565b611299565b6102766103cf36600461279a565b61134b565b61024e6103e23660046127e8565b6113df565b6102106115c4565b61024e6103fd3660046127e8565b6115ff565b61024e610410366004612a34565b611658565b60028054600160f01b900460ff1614610276565b6101f2610437366004612a71565b6117be565b61024e61044a366004612b43565b611948565b61027661045d36600461279a565b611a2b565b61046a611bac565b6040516001600160a01b0390911681526020016101ff565b6101f2610490366004612b8b565b611c32565b61024e611de4565b6102766104ab36600461279a565b612002565b61034f6104be36600461279a565b612172565b6104cb61245b565b6001546040516335d2155560e11b81523360048201526001600160a01b0390911690636ba42aaa9060240160206040518083038186803b15801561050e57600080fd5b505afa158015610522573d6000803e3d6000fd5b505050506040513d601f19601f820116820180604052508101906105469190612bf6565b61056b5760405162461bcd60e51b815260040161056290612c18565b60405180910390fd5b6040516329f9afaf60e01b815273__$d113c86820c60155271829fbf7bae741f8$__906329f9afaf906105ae906004908b908b908b908b908b908b908701612c43565b60c06040518083038186803b1580156105c657600080fd5b505af41580156105da573d6000803e3d6000fd5b505050506040513d601f19601f820116820180604052508101906105fe9190612d1f565b9050866000015163ffffffff167f16213a639c46506f76c6a61007876a778304be1c6840d8a1259ca1876ac0a7bd88602001518887876040516106449493929190612d3b565b60405180910390a29695505050505050565b60405163e8c0cc1d60e01b81526002600482015260009073__$364aad554dc80380f414546becdd2c1584$__9063e8c0cc1d906024015b60206040518083038186803b1580156106a557600080fd5b505af41580156106b9573d6000803e3d6000fd5b505050506040513d601f19601f820116820180604052508101906106dd9190612d6f565b905090565b60405163a3dc434360e01b815260048082015260609073__$d113c86820c60155271829fbf7bae741f8$__9063a3dc43439060240160006040518083038186803b15801561072f57600080fd5b505af4158015610743573d6000803e3d6000fd5b505050506040513d6000823e601f3d908101601f191682016040526106dd9190810190612daf565b73__$364aad554dc80380f414546becdd2c1584$__6382daafaa60028461079061229b565b6040516001600160e01b031960e086901b1681526004810193909352602483019190915264ffffffffff166044820152606481018490526084015b60006040518083038186803b1580156107e357600080fd5b505af41580156107f7573d6000803e3d6000fd5b505050505050565b73__$364aad554dc80380f414546becdd2c1584$__636320d75e60028461079061229b565b6001546040516335d2155560e11b81523360048201526000916001600160a01b031690636ba42aaa9060240160206040518083038186803b15801561086857600080fd5b505afa15801561087c573d6000803e3d6000fd5b505050506040513d601f19601f820116820180604052508101906108a09190612bf6565b6108bc5760405162461bcd60e51b815260040161056290612c18565b600084815260046020818152604080842087855290915291829020915163079b82ff60e21b815273__$d113c86820c60155271829fbf7bae741f8$__92631e6e0bfc9261091492879101918252602082015260400190565b60206040518083038186803b15801561092c57600080fd5b505af4158015610940573d6000803e3d6000fd5b505050506040513d601f19601f820116820180604052508101906109649190612bf6565b156109a957604080518481526020810184905285917f22ac25240b57ed81a9a3f354cdfea8d776f1f91ed79af77ebf0ea78839015fbb91015b60405180910390a25060015b9392505050565b604051639e1adb1f60e01b81526004808201526024810182905260609073__$d113c86820c60155271829fbf7bae741f8$__90639e1adb1f9060440160006040518083038186803b158015610a0457600080fd5b505af4158015610a18573d6000803e3d6000fd5b505050506040513d6000823e601f3d908101601f19168201604052610a409190810190612f13565b92915050565b604051633b11adbf60e21b81526002600482015233602482015273__$364aad554dc80380f414546becdd2c1584$__9063ec46b6fc9060440160206040518083038186803b158015610a9757600080fd5b505af4158015610aab573d6000803e3d6000fd5b505050506040513d601f19601f82011682018060405250810190610acf9190612bf6565b610aeb5760405162461bcd60e51b815260040161056290612fad565b60405163cc99e11b60e01b8152600260048201526024810182905273__$364aad554dc80380f414546becdd2c1584$__9063cc99e11b9060440160006040518083038186803b158015610b3d57600080fd5b505af4158015610b51573d6000803e3d6000fd5b5050505050565b604051633b11adbf60e21b81526002600482015233602482015273__$364aad554dc80380f414546becdd2c1584$__9063ec46b6fc9060440160206040518083038186803b158015610ba957600080fd5b505af4158015610bbd573d6000803e3d6000fd5b505050506040513d601f19601f82011682018060405250810190610be19190612bf6565b80610c86575073__$364aad554dc80380f414546becdd2c1584$__63fe2710866002610c0b61229b565b6040516001600160e01b031960e085901b168152600481019290925264ffffffffff16602482015260440160206040518083038186803b158015610c4e57600080fd5b505af4158015610c62573d6000803e3d6000fd5b505050506040513d601f19601f82011682018060405250810190610c869190612bf6565b610ca25760405162461bcd60e51b815260040161056290612ff3565b604051632725ebef60e21b8152600260048201526024810182905273__$364aad554dc80380f414546becdd2c1584$__90639c97afbc9060440160006040518083038186803b158015610cf457600080fd5b505af4158015610d08573d6000803e3d6000fd5b505050507ff2735f34b69be1e6342dea95f9162f84d0db925fab655ca9f1f312ac8cbfc99d81604051610d3d91815260200190565b60405180910390a150565b6001546040516335d2155560e11b81523360048201526000916001600160a01b031690636ba42aaa9060240160206040518083038186803b158015610d8c57600080fd5b505afa158015610da0573d6000803e3d6000fd5b505050506040513d601f19601f82011682018060405250810190610dc49190612bf6565b610de05760405162461bcd60e51b815260040161056290612c18565b6000848152600460208181526040808420878552909152918290209151637689d68b60e01b815273__$d113c86820c60155271829fbf7bae741f8$__92637689d68b92610e2f92879101613096565b60206040518083038186803b158015610e4757600080fd5b505af4158015610e5b573d6000803e3d6000fd5b505050506040513d601f19601f82011682018060405250810190610e7f9190612bf6565b156109a957837faa23da4927c0392e16dd5999d025e6b3229208a541ab284af9e4e03b189fe263848460405161099d929190613096565b73__$364aad554dc80380f414546becdd2c1584$__63ee98b31360028461079061229b565b610ee3612490565b6001546040516335d2155560e11b81523360048201526001600160a01b0390911690636ba42aaa9060240160206040518083038186803b158015610f2657600080fd5b505afa158015610f3a573d6000803e3d6000fd5b505050506040513d601f19601f82011682018060405250810190610f5e9190612bf6565b610f7a5760405162461bcd60e51b815260040161056290612c18565b60405163f4d775f560e01b81526004808201526024810185905260448101849052600060648201526001600160401b038316608482015273__$d113c86820c60155271829fbf7bae741f8$__9063f4d775f59060a4016101a06040518083038186803b158015610fe957600080fd5b505af4158015610ffd573d6000803e3d6000fd5b505050506040513d601f19601f8201168201806040525081019061102191906130b7565b604080518581526001600160401b038516602082015291925085917feda318b681a6fefde71d5c8ab67ec3b13df92a65135f6ba8e3c1187372e38175910160405180910390a29392505050565b611076612490565b6001546040516335d2155560e11b81523360048201526001600160a01b0390911690636ba42aaa9060240160206040518083038186803b1580156110b957600080fd5b505afa1580156110cd573d6000803e3d6000fd5b505050506040513d601f19601f820116820180604052508101906110f19190612bf6565b61110d5760405162461bcd60e51b815260040161056290612c18565b60008364ffffffffff16116111595760405162461bcd60e51b81526020600482015260126024820152712127a8172a281d103d32b93790313abcb2b960711b6044820152606401610562565b60405163f4d775f560e01b8152600480820152602481018690526044810185905264ffffffffff841660648201526001600160401b038316608482015273__$d113c86820c60155271829fbf7bae741f8$__9063f4d775f59060a4016101a06040518083038186803b1580156111ce57600080fd5b505af41580156111e2573d6000803e3d6000fd5b505050506040513d601f19601f8201168201806040525081019061120691906130b7565b8051805160209182015182840151805160408083015160609384015182518d815261ffff9096169786019790975264ffffffffff909216848201526001600160401b03918216928401929092529093166080820152915192935063ffffffff16917fa8c5eace48f10e75f99f4b2e92222072bb757089c357ffd4267f97249c6022c69181900360a00190a2949350505050565b604051630f07232560e01b8152600260048201523360248201526001600160a01b038216604482015273__$364aad554dc80380f414546becdd2c1584$__90630f0723259060640160006040518083038186803b1580156112f957600080fd5b505af415801561130d573d6000803e3d6000fd5b50506040516001600160a01b03841681527fe435cbeab64e4eae6497b9d8289704bd709d624a80704ef3ca9af777534bc6ec92506020019050610d3d565b604051632a3be56b60e21b815260026004820152602481018390526044810182905260009073__$364aad554dc80380f414546becdd2c1584$__9063a8ef95ac9060640160206040518083038186803b1580156113a757600080fd5b505af41580156113bb573d6000803e3d6000fd5b505050506040513d601f19601f820116820180604052508101906109a99190612bf6565b604051633b11adbf60e21b81526002600482015233602482015273__$364aad554dc80380f414546becdd2c1584$__9063ec46b6fc9060440160206040518083038186803b15801561143057600080fd5b505af4158015611444573d6000803e3d6000fd5b505050506040513d601f19601f820116820180604052508101906114689190612bf6565b8061150d575073__$364aad554dc80380f414546becdd2c1584$__63fe271086600261149261229b565b6040516001600160e01b031960e085901b168152600481019290925264ffffffffff16602482015260440160206040518083038186803b1580156114d557600080fd5b505af41580156114e9573d6000803e3d6000fd5b505050506040513d601f19601f8201168201806040525081019061150d9190612bf6565b6115295760405162461bcd60e51b815260040161056290612ff3565b60405163b6e38a2960e01b8152600260048201526024810182905273__$364aad554dc80380f414546becdd2c1584$__9063b6e38a299060440160006040518083038186803b15801561157b57600080fd5b505af415801561158f573d6000803e3d6000fd5b505050507f8b6f40f36b4ae8cc5f55e895036457c43da4ab1f80f58c46f5ff0d72a650033b81604051610d3d91815260200190565b60405163987ad15360e01b81526002600482015260009073__$364aad554dc80380f414546becdd2c1584$__9063987ad1539060240161068d565b600061160961229b565b60405163cc0d511b60e01b8152600260048201526024810184905264ffffffffff8216604482015290915073__$364aad554dc80380f414546becdd2c1584$__9063cc0d511b906064016107cb565b6001546040516335d2155560e11b81523360048201526001600160a01b0390911690636ba42aaa9060240160206040518083038186803b15801561169b57600080fd5b505afa1580156116af573d6000803e3d6000fd5b505050506040513d601f19601f820116820180604052508101906116d39190612bf6565b6116ef5760405162461bcd60e51b815260040161056290612c18565b60008381526004602081815260408084208685529091529182902091516330c5e22360e11b815273__$d113c86820c60155271829fbf7bae741f8$__9263618bc4469261174b9286910191825261ffff16602082015260400190565b60006040518083038186803b15801561176357600080fd5b505af4158015611777573d6000803e3d6000fd5b50506040805185815261ffff851660208201528693507f57d3cc740936f1e626db29598eb1dd08e59719f04f860cb544695c1bda2439f092500160405180910390a2505050565b6117c661245b565b6001546040516335d2155560e11b81523360048201526001600160a01b0390911690636ba42aaa9060240160206040518083038186803b15801561180957600080fd5b505afa15801561181d573d6000803e3d6000fd5b505050506040513d601f19601f820116820180604052508101906118419190612bf6565b61185d5760405162461bcd60e51b815260040161056290612c18565b604051637186e27b60e11b815273__$d113c86820c60155271829fbf7bae741f8$__9063e30dc4f69061189690600490869082016130d4565b60c06040518083038186803b1580156118ae57600080fd5b505af41580156118c2573d6000803e3d6000fd5b505050506040513d601f19601f820116820180604052508101906118e69190612d1f565b8051602080830151908501518051604080830151606090930151905195965063ffffffff909416947f16213a639c46506f76c6a61007876a778304be1c6840d8a1259ca1876ac0a7bd9461193b949391612d3b565b60405180910390a2919050565b611951826122f5565b61195a816123a4565b604051636cdd0edf60e11b815260026004820152602481018590526001600160a01b038416604482015273__$364aad554dc80380f414546becdd2c1584$__9063d9ba1dbe9060640160006040518083038186803b1580156119bb57600080fd5b505af41580156119cf573d6000803e3d6000fd5b5050604080518781526001600160a01b038781166020830152868116828401528516606082015290517f3abb2418c66fe32ba9c883030a75ce583971d9af9192b9b74e44e67c5e6c8c1f9350908190036080019150a150505050565b6001546040516335d2155560e11b81523360048201526000916001600160a01b031690636ba42aaa9060240160206040518083038186803b158015611a6f57600080fd5b505afa158015611a83573d6000803e3d6000fd5b505050506040513d601f19601f82011682018060405250810190611aa79190612bf6565b611ac35760405162461bcd60e51b815260040161056290612c18565b6000838152600460208181526040808420868552909152918290209151630c6bcfc760e31b815273__$d113c86820c60155271829fbf7bae741f8$__9263635e7e3892611b14920190815260200190565b60206040518083038186803b158015611b2c57600080fd5b505af4158015611b40573d6000803e3d6000fd5b505050506040513d601f19601f82011682018060405250810190611b649190612bf6565b15610a4057827f78402161cd0b480b185df229c7caeffedd2aca31d8fbc71e227a45faab07cb1c83604051611b9b91815260200190565b60405180910390a250600192915050565b604051633c3e56c160e11b81526002600482015260009073__$364aad554dc80380f414546becdd2c1584$__9063787cad829060240160206040518083038186803b158015611bfa57600080fd5b505af4158015611c0e573d6000803e3d6000fd5b505050506040513d601f19601f820116820180604052508101906106dd9190613113565b611c3a61245b565b604051633b11adbf60e21b81526002600482015233602482015273__$364aad554dc80380f414546becdd2c1584$__9063ec46b6fc9060440160206040518083038186803b158015611c8b57600080fd5b505af4158015611c9f573d6000803e3d6000fd5b505050506040513d601f19601f82011682018060405250810190611cc39190612bf6565b611cdf5760405162461bcd60e51b815260040161056290612fad565b6040516334b11cf160e21b81526004808201526024810188905264ffffffffff8716604482015261ffff861660648201526001600160401b03808616608483015280851660a4830152831660c482015273__$d113c86820c60155271829fbf7bae741f8$__9063d2c473c49060e40160c06040518083038186803b158015611d6657600080fd5b505af4158015611d7a573d6000803e3d6000fd5b505050506040513d601f19601f82011682018060405250810190611d9e9190612d1f565b9050806000015163ffffffff167f16213a639c46506f76c6a61007876a778304be1c6840d8a1259ca1876ac0a7bd82602001518887876040516106449493929190612d3b565b604051633b11adbf60e21b81526002600482015233602482015273__$364aad554dc80380f414546becdd2c1584$__9063ec46b6fc9060440160206040518083038186803b158015611e3557600080fd5b505af4158015611e49573d6000803e3d6000fd5b505050506040513d601f19601f82011682018060405250810190611e6d9190612bf6565b611e895760405162461bcd60e51b815260040161056290612fad565b600254600160f01b900460ff16600114611ee55760405162461bcd60e51b815260206004820181905260248201527f41432e6f6e6c7950656e64696e673a20446f632069732066696e616c697a65646044820152606401610562565b60405163cc99e11b60e01b815260026004820152684174746f726e65797360b81b602482015273__$364aad554dc80380f414546becdd2c1584$__9063cc99e11b9060440160006040518083038186803b158015611f4257600080fd5b505af4158015611f56573d6000803e3d6000fd5b5050604051632725ebef60e21b8152600260048201526000602482015273__$364aad554dc80380f414546becdd2c1584$__9250639c97afbc915060440160006040518083038186803b158015611fac57600080fd5b505af4158015611fc0573d6000803e3d6000fd5b50506002805460ff60f01b1916600160f11b17905550506040517f35012b512309c322acf68632cd6cb702ff0e1d776fbe9394e38ffc13b434fe7590600090a1565b6001546040516335d2155560e11b81523360048201526000916001600160a01b031690636ba42aaa9060240160206040518083038186803b15801561204657600080fd5b505afa15801561205a573d6000803e3d6000fd5b505050506040513d601f19601f8201168201806040525081019061207e9190612bf6565b61209a5760405162461bcd60e51b815260040161056290612c18565b6000838152600460208181526040808420868552909152918290209151635bbae7f560e11b815273__$d113c86820c60155271829fbf7bae741f8$__9263b775cfea926120eb920190815260200190565b60206040518083038186803b15801561210357600080fd5b505af4158015612117573d6000803e3d6000fd5b505050506040513d601f19601f8201168201806040525081019061213b9190612bf6565b15610a4057827f47940b7029002299c9badb3d62d4f2d1596185044d62c18613dc775053a4914f83604051611b9b91815260200190565b61217a612490565b50600091825260046020908152604080842092845291815291819020815161012081018352815463ffffffff8116606080840191825261ffff6401000000008404811660808087019190915265ffffffffffff66010000000000008604811660a080890191909152600160601b870490911660c08089019190915264ffffffffff600160901b8804811660e08a0152600160b81b9788900481166101008a015295885289519081018a5260018901549586168152650100000000008604909316838b01526001600160401b0367010000000000000086048116848b0152600160781b86048116948401949094529484049092169181019190915260ff600160f81b909204919091169181019190915293810193909352600201549082015290565b60008054604051634de835e760e11b81523360048201526001600160a01b0390911690639bd06bce90602401602060405180830381600087803b1580156122e157600080fd5b505af11580156106b9573d6000803e3d6000fd5b6000546001600160a01b0316156123465760405162461bcd60e51b815260206004820152601560248201527430b63932b0b23c9039b2ba103932b3a1b2b73a32b960591b6044820152606401610562565b6040516001600160a01b03821681527f318da6c7624c71cbc0afe346c9d8827f119d0ecefb241a7b0c87217a076a8e029060200160405180910390a1600080546001600160a01b0319166001600160a01b0392909216919091179055565b6001546001600160a01b0316156123fd5760405162461bcd60e51b815260206004820152601960248201527f616c7265616479207365742067656e6572616c4b6565706572000000000000006044820152606401610562565b6040516001600160a01b03821681527fe513d3e0f0d0a3877029dcc588748679a7a3450ec1ec7ed56d96bd012c3e61aa9060200160405180910390a1600180546001600160a01b0319166001600160a01b0392909216919091179055565b6040805160c081018252600080825260208201819052918101829052606081018290526080810182905260a081019190915290565b60405180606001604052806124a361245b565b81526040805160c08101825260008082526020828101829052928201819052606082018190526080820181905260a08201529101908152600060209091015290565b634e487b7160e01b600052604160045260246000fd5b60405160c081016001600160401b038111828210171561251d5761251d6124e5565b60405290565b604051606081016001600160401b038111828210171561251d5761251d6124e5565b604051601f8201601f191681016001600160401b038111828210171561256d5761256d6124e5565b604052919050565b63ffffffff8116811461258757600080fd5b50565b61ffff8116811461258757600080fd5b65ffffffffffff8116811461258757600080fd5b64ffffffffff8116811461258757600080fd5b600060c082840312156125d357600080fd5b6125db6124fb565b905081356125e881612575565b815260208201356125f88161258a565b6020820152604082013561260b8161259a565b6040820152606082013561261e8161259a565b60608201526080820135612631816125ae565b608082015260a0820135612644816125ae565b60a082015292915050565b6001600160401b038116811461258757600080fd5b600080600080600080610160878903121561267e57600080fd5b61268888886125c1565b955060c0870135612698816125ae565b945060e08701356126a88161258a565b93506101008701356126b98161264f565b92506101208701356126ca8161264f565b91506101408701356126db8161264f565b809150509295509295509295565b63ffffffff815116825261ffff6020820151166020830152604081015165ffffffffffff80821660408501528060608401511660608501525050608081015164ffffffffff80821660808501528060a08401511660a085015250505050565b60c08101610a4082846126e9565b6020808252825182820181905260009190848201906040850190845b8181101561278e57835183529284019291840191600101612772565b50909695505050505050565b600080604083850312156127ad57600080fd5b50508035926020909101359150565b6000806000606084860312156127d157600080fd5b505081359360208301359350604090920135919050565b6000602082840312156127fa57600080fd5b5035919050565b64ffffffffff815116825261ffff602082015116602083015260408101516001600160401b038082166040850152806060840151166060850152806080840151166080850152505060ff60a08201511660a08301525050565b6128658282516126e9565b602081015161287760c0840182612801565b50604001516101809190910152565b6020808252825182820181905260009190848201906040850190845b8181101561278e576128b583855161285a565b928401926101a092909201916001016128a2565b6000806000606084860312156128de57600080fd5b83359250602080850135925060408501356001600160401b038082111561290457600080fd5b818701915087601f83011261291857600080fd5b81358181111561292a5761292a6124e5565b61293c601f8201601f19168501612545565b9150808252888482850101111561295257600080fd5b80848401858401376000848284010152508093505050509250925092565b60008060006060848603121561298557600080fd5b8335925060208401359150604084013561299e8161264f565b809150509250925092565b6101a08101610a40828461285a565b600080600080608085870312156129ce57600080fd5b843593506020850135925060408501356129e7816125ae565b915060608501356129f78161264f565b939692955090935050565b6001600160a01b038116811461258757600080fd5b600060208284031215612a2957600080fd5b81356109a981612a02565b600080600060608486031215612a4957600080fd5b8335925060208401359150604084013561299e8161258a565b60ff8116811461258757600080fd5b60008183036101a0811215612a8557600080fd5b612a8d612523565b612a9785856125c1565b815260c060bf1983011215612aab57600080fd5b612ab36124fb565b915060c0840135612ac3816125ae565b825260e0840135612ad38161258a565b6020830152610100840135612ae78161264f565b6040830152610120840135612afb8161264f565b6060830152610140840135612b0f8161264f565b6080830152610160840135612b2381612a62565b60a083015260208101919091526101809290920135604083015250919050565b60008060008060808587031215612b5957600080fd5b843593506020850135612b6b81612a02565b92506040850135612b7b81612a02565b915060608501356129f781612a02565b60008060008060008060c08789031215612ba457600080fd5b863595506020870135612bb6816125ae565b94506040870135612bc68161258a565b93506060870135612bd68161264f565b92506080870135612be68161264f565b915060a08701356126db8161264f565b600060208284031215612c0857600080fd5b815180151581146109a957600080fd5b60208082526011908201527020a19737b59d103737ba1025b2b2b832b960791b604082015260600190565b8781526101808101612c5860208301896126e9565b64ffffffffff9690961660e082015261ffff949094166101008501526001600160401b03928316610120850152908216610140840152166101609091015292915050565b600060c08284031215612cae57600080fd5b612cb66124fb565b90508151612cc381612575565b81526020820151612cd38161258a565b60208201526040820151612ce68161259a565b60408201526060820151612cf98161259a565b60608201526080820151612d0c816125ae565b608082015260a0820151612644816125ae565b600060c08284031215612d3157600080fd5b6109a98383612c9c565b61ffff94909416845264ffffffffff9290921660208401526001600160401b03908116604084015216606082015260800190565b600060208284031215612d8157600080fd5b81516109a9816125ae565b60006001600160401b03821115612da557612da56124e5565b5060051b60200190565b60006020808385031215612dc257600080fd5b82516001600160401b03811115612dd857600080fd5b8301601f81018513612de957600080fd5b8051612dfc612df782612d8c565b612545565b81815260059190911b82018301908381019087831115612e1b57600080fd5b928401925b82841015612e3957835182529284019290840190612e20565b979650505050505050565b60008183036101a0811215612e5857600080fd5b612e60612523565b9150612e6c8484612c9c565b825260c060bf1982011215612e8057600080fd5b50612e896124fb565b60c0830151612e97816125ae565b815260e0830151612ea78161258a565b6020820152610100830151612ebb8161264f565b6040820152610120830151612ecf8161264f565b6060820152610140830151612ee38161264f565b6080820152610160830151612ef781612a62565b60a0820152602082015261018091909101516040820152919050565b60006020808385031215612f2657600080fd5b82516001600160401b03811115612f3c57600080fd5b8301601f81018513612f4d57600080fd5b8051612f5b612df782612d8c565b8181526101a09182028301840191848201919088841115612f7b57600080fd5b938501935b83851015612fa157612f928986612e44565b83529384019391850191612f80565b50979650505050505050565b60208082526026908201527f41432e6f6e6c794469726563744b65657065723a206e6f74206469726563742060408201526535b2b2b832b960d11b606082015260800190565b60208082526036908201527f41432e6f776e65724f72446972656374426f6f6b65657065723a206e6569746860408201527532b91037bbb732b9103737b9103137b7b5b2b2b832b960511b606082015260800190565b6000815180845260005b8181101561306f57602081850181015186830182015201613053565b81811115613081576000602083870101525b50601f01601f19169290920160200192915050565b8281526040602082015260006130af6040830184613049565b949350505050565b60006101a082840312156130ca57600080fd5b6109a98383612e44565b60006101c0820190508382526130ee6020830184516126e9565b602083015161310060e0840182612801565b5060408301516101a08301529392505050565b60006020828403121561312557600080fd5b81516109a981612a0256fea26469706673582212209fc0320c80b7400d8b8825cbfbb6b871042f83379d4123050d95cddf88b4692564736f6c63430008080033",
    "sourcePath": "/Users/kaptain/github.com/hardhat/comboox/contracts/books/bop/BookOfPledges.sol",
    "compiler": {
        "name": "solc",
        "version": "0.8.8+commit.dddeac2f"
    },
    "functionHashes": {
        "abandonRole(bytes32)": "3da9a600",
        "counterOfPledges(uint256)": "2d5562ca",
        "createPledge(uint256,uint40,uint16,uint64,uint64,uint64)": "efecf88a",
        "execPledge(uint256,uint256)": "e9c733d2",
        "extendPledge(uint256,uint256,uint16)": "97f4a205",
        "finalized()": "b3f05b97",
        "getBookeeper()": "ed211023",
        "getGeneralCounsel()": "103f6edd",
        "getOwner()": "893d20e8",
        "getPledge(uint256,uint256)": "f671e821",
        "getPledgesOfShare(uint256)": "2e667364",
        "getSnList()": "1370f8b5",
        "grantRole(bytes32,uint256)": "1b6ea9f9",
        "hasRole(bytes32,uint256)": "7e063c5a",
        "init(uint256,address,address,address)": "dc890da9",
        "isPledge(uint256,uint256)": "5690364b",
        "issuePledge((uint32,uint16,uint48,uint48,uint40,uint40),uint40,uint16,uint64,uint64,uint64)": "066fd6fb",
        "lockContents()": "f045a769",
        "lockPledge(uint256,uint256,bytes32)": "205969bd",
        "refundDebt(uint256,uint256,uint64)": "53049727",
        "regPledge(((uint32,uint16,uint48,uint48,uint40,uint40),(uint40,uint16,uint64,uint64,uint64,uint8),bytes32))": "c4ec81d8",
        "releasePledge(uint256,uint256,string)": "50235307",
        "renounceRole(bytes32)": "8bb9c5bf",
        "revokePledge(uint256,uint256)": "f424672b",
        "revokeRole(bytes32,uint256)": "19d61ad9",
        "setDirectKeeper(address)": "6be8496f",
        "setGeneralCounsel(uint256)": "4a14beb1",
        "setOwner(uint256)": "8041494e",
        "setRoleAdmin(bytes32,uint256)": "5171ebd4",
        "transferPledge(uint256,uint256,uint40,uint64)": "542f28e6"
    },
    "gasEstimates": {
        "creation": {
            "codeDepositCost": "2529200",
            "executionCost": "2733",
            "totalCost": "2531933"
        },
        "external": {
            "abandonRole(bytes32)": "infinite",
            "counterOfPledges(uint256)": "2648",
            "createPledge(uint256,uint40,uint16,uint64,uint64,uint64)": "infinite",
            "execPledge(uint256,uint256)": "infinite",
            "extendPledge(uint256,uint256,uint16)": "infinite",
            "finalized()": "2438",
            "getBookeeper()": "infinite",
            "getGeneralCounsel()": "infinite",
            "getOwner()": "infinite",
            "getPledge(uint256,uint256)": "8491",
            "getPledgesOfShare(uint256)": "infinite",
            "getSnList()": "infinite",
            "grantRole(bytes32,uint256)": "infinite",
            "hasRole(bytes32,uint256)": "infinite",
            "init(uint256,address,address,address)": "infinite",
            "isPledge(uint256,uint256)": "2673",
            "issuePledge((uint32,uint16,uint48,uint48,uint40,uint40),uint40,uint16,uint64,uint64,uint64)": "infinite",
            "lockContents()": "infinite",
            "lockPledge(uint256,uint256,bytes32)": "infinite",
            "refundDebt(uint256,uint256,uint64)": "infinite",
            "regPledge(((uint32,uint16,uint48,uint48,uint40,uint40),(uint40,uint16,uint64,uint64,uint64,uint8),bytes32))": "infinite",
            "releasePledge(uint256,uint256,string)": "infinite",
            "renounceRole(bytes32)": "infinite",
            "revokePledge(uint256,uint256)": "infinite",
            "revokeRole(bytes32,uint256)": "infinite",
            "setDirectKeeper(address)": "infinite",
            "setGeneralCounsel(uint256)": "infinite",
            "setOwner(uint256)": "infinite",
            "setRoleAdmin(bytes32,uint256)": "infinite",
            "transferPledge(uint256,uint256,uint40,uint64)": "infinite"
        }
    }
}