{
    "contractName": "BookOfOptions",
    "abi": [
        {
            "anonymous": false,
            "inputs": [
                {
                    "indexed": true,
                    "internalType": "uint256",
                    "name": "seqOfOpt",
                    "type": "uint256"
                },
                {
                    "indexed": false,
                    "internalType": "uint256",
                    "name": "obligor",
                    "type": "uint256"
                }
            ],
            "name": "AddObligorIntoOpt",
            "type": "event"
        },
        {
            "anonymous": false,
            "inputs": [
                {
                    "indexed": true,
                    "internalType": "uint256",
                    "name": "seqOfOpt",
                    "type": "uint256"
                },
                {
                    "indexed": false,
                    "internalType": "uint256",
                    "name": "codeOfOpt",
                    "type": "uint256"
                }
            ],
            "name": "CreateOpt",
            "type": "event"
        },
        {
            "anonymous": false,
            "inputs": [
                {
                    "indexed": true,
                    "internalType": "uint256",
                    "name": "seqOfOpt",
                    "type": "uint256"
                }
            ],
            "name": "ExecOpt",
            "type": "event"
        },
        {
            "anonymous": false,
            "inputs": [
                {
                    "indexed": false,
                    "internalType": "uint256",
                    "name": "owner",
                    "type": "uint256"
                },
                {
                    "indexed": false,
                    "internalType": "address",
                    "name": "directKeeper",
                    "type": "address"
                },
                {
                    "indexed": false,
                    "internalType": "address",
                    "name": "regCenter",
                    "type": "address"
                },
                {
                    "indexed": false,
                    "internalType": "address",
                    "name": "generalKeeper",
                    "type": "address"
                }
            ],
            "name": "Init",
            "type": "event"
        },
        {
            "anonymous": false,
            "inputs": [],
            "name": "LockContents",
            "type": "event"
        },
        {
            "anonymous": false,
            "inputs": [
                {
                    "indexed": true,
                    "internalType": "uint256",
                    "name": "seqOfOpt",
                    "type": "uint256"
                },
                {
                    "indexed": false,
                    "internalType": "uint256",
                    "name": "codeOfBrf",
                    "type": "uint256"
                }
            ],
            "name": "RegSwapOrder",
            "type": "event"
        },
        {
            "anonymous": false,
            "inputs": [
                {
                    "indexed": true,
                    "internalType": "uint256",
                    "name": "seqOfOpt",
                    "type": "uint256"
                },
                {
                    "indexed": false,
                    "internalType": "uint256",
                    "name": "obligor",
                    "type": "uint256"
                }
            ],
            "name": "RemoveObligorFromOpt",
            "type": "event"
        },
        {
            "anonymous": false,
            "inputs": [
                {
                    "indexed": false,
                    "internalType": "address",
                    "name": "keeper",
                    "type": "address"
                }
            ],
            "name": "SetDirectKeeper",
            "type": "event"
        },
        {
            "anonymous": false,
            "inputs": [
                {
                    "indexed": false,
                    "internalType": "uint256",
                    "name": "acct",
                    "type": "uint256"
                }
            ],
            "name": "SetGeneralCounsel",
            "type": "event"
        },
        {
            "anonymous": false,
            "inputs": [
                {
                    "indexed": false,
                    "internalType": "uint256",
                    "name": "acct",
                    "type": "uint256"
                }
            ],
            "name": "SetOwner",
            "type": "event"
        },
        {
            "anonymous": false,
            "inputs": [
                {
                    "indexed": true,
                    "internalType": "uint256",
                    "name": "seqOfOpt",
                    "type": "uint256"
                },
                {
                    "indexed": false,
                    "internalType": "uint256",
                    "name": "data1",
                    "type": "uint256"
                },
                {
                    "indexed": false,
                    "internalType": "uint256",
                    "name": "data2",
                    "type": "uint256"
                },
                {
                    "indexed": false,
                    "internalType": "uint256",
                    "name": "data3",
                    "type": "uint256"
                }
            ],
            "name": "UpdateOracle",
            "type": "event"
        },
        {
            "anonymous": false,
            "inputs": [
                {
                    "indexed": true,
                    "internalType": "uint256",
                    "name": "seqOfOpt",
                    "type": "uint256"
                },
                {
                    "indexed": false,
                    "internalType": "uint256",
                    "name": "seqOfBrf",
                    "type": "uint256"
                },
                {
                    "indexed": false,
                    "internalType": "uint256",
                    "name": "state",
                    "type": "uint256"
                }
            ],
            "name": "UpdateStateOfBrief",
            "type": "event"
        },
        {
            "inputs": [
                {
                    "internalType": "bytes32",
                    "name": "role",
                    "type": "bytes32"
                }
            ],
            "name": "abandonRole",
            "outputs": [],
            "stateMutability": "nonpayable",
            "type": "function"
        },
        {
            "inputs": [
                {
                    "internalType": "uint256",
                    "name": "seqOfOpt",
                    "type": "uint256"
                },
                {
                    "internalType": "uint256",
                    "name": "obligor",
                    "type": "uint256"
                }
            ],
            "name": "addObligorIntoOption",
            "outputs": [],
            "stateMutability": "nonpayable",
            "type": "function"
        },
        {
            "inputs": [
                {
                    "internalType": "uint256",
                    "name": "seqOfOpt",
                    "type": "uint256"
                }
            ],
            "name": "counterOfBriefs",
            "outputs": [
                {
                    "internalType": "uint256",
                    "name": "",
                    "type": "uint256"
                }
            ],
            "stateMutability": "view",
            "type": "function"
        },
        {
            "inputs": [],
            "name": "counterOfOptions",
            "outputs": [
                {
                    "internalType": "uint32",
                    "name": "",
                    "type": "uint32"
                }
            ],
            "stateMutability": "view",
            "type": "function"
        },
        {
            "inputs": [
                {
                    "internalType": "uint256",
                    "name": "sn",
                    "type": "uint256"
                },
                {
                    "internalType": "uint256",
                    "name": "snOfCond",
                    "type": "uint256"
                },
                {
                    "internalType": "uint256",
                    "name": "rightholder",
                    "type": "uint256"
                },
                {
                    "internalType": "uint256",
                    "name": "paid",
                    "type": "uint256"
                },
                {
                    "internalType": "uint256",
                    "name": "par",
                    "type": "uint256"
                }
            ],
            "name": "createOption",
            "outputs": [
                {
                    "components": [
                        {
                            "internalType": "uint32",
                            "name": "seqOfOpt",
                            "type": "uint32"
                        },
                        {
                            "internalType": "uint8",
                            "name": "typeOfOpt",
                            "type": "uint8"
                        },
                        {
                            "internalType": "uint16",
                            "name": "classOfShare",
                            "type": "uint16"
                        },
                        {
                            "internalType": "uint32",
                            "name": "rate",
                            "type": "uint32"
                        },
                        {
                            "internalType": "uint48",
                            "name": "issueDate",
                            "type": "uint48"
                        },
                        {
                            "internalType": "uint48",
                            "name": "triggerDate",
                            "type": "uint48"
                        },
                        {
                            "internalType": "uint16",
                            "name": "execDays",
                            "type": "uint16"
                        },
                        {
                            "internalType": "uint16",
                            "name": "closingDays",
                            "type": "uint16"
                        },
                        {
                            "internalType": "uint40",
                            "name": "obligor",
                            "type": "uint40"
                        }
                    ],
                    "internalType": "struct OptionsRepo.Head",
                    "name": "head",
                    "type": "tuple"
                }
            ],
            "stateMutability": "nonpayable",
            "type": "function"
        },
        {
            "inputs": [
                {
                    "internalType": "uint256",
                    "name": "seqOfOpt",
                    "type": "uint256"
                },
                {
                    "internalType": "uint256",
                    "name": "seqOfConsider",
                    "type": "uint256"
                },
                {
                    "internalType": "uint256",
                    "name": "paidOfConsider",
                    "type": "uint256"
                },
                {
                    "internalType": "uint256",
                    "name": "seqOfTarget",
                    "type": "uint256"
                }
            ],
            "name": "createSwapOrder",
            "outputs": [
                {
                    "components": [
                        {
                            "components": [
                                {
                                    "internalType": "uint32",
                                    "name": "seqOfSwap",
                                    "type": "uint32"
                                },
                                {
                                    "internalType": "uint16",
                                    "name": "classOfTarget",
                                    "type": "uint16"
                                },
                                {
                                    "internalType": "uint16",
                                    "name": "classOfConsider",
                                    "type": "uint16"
                                },
                                {
                                    "internalType": "uint48",
                                    "name": "createDate",
                                    "type": "uint48"
                                },
                                {
                                    "internalType": "uint48",
                                    "name": "triggerDate",
                                    "type": "uint48"
                                },
                                {
                                    "internalType": "uint16",
                                    "name": "closingDays",
                                    "type": "uint16"
                                },
                                {
                                    "internalType": "uint40",
                                    "name": "obligor",
                                    "type": "uint40"
                                },
                                {
                                    "internalType": "uint32",
                                    "name": "rateOfSwap",
                                    "type": "uint32"
                                },
                                {
                                    "internalType": "uint8",
                                    "name": "para",
                                    "type": "uint8"
                                }
                            ],
                            "internalType": "struct SwapsRepo.Head",
                            "name": "head",
                            "type": "tuple"
                        },
                        {
                            "components": [
                                {
                                    "internalType": "uint40",
                                    "name": "rightholder",
                                    "type": "uint40"
                                },
                                {
                                    "internalType": "uint32",
                                    "name": "seqOfConsider",
                                    "type": "uint32"
                                },
                                {
                                    "internalType": "uint64",
                                    "name": "paidOfConsider",
                                    "type": "uint64"
                                },
                                {
                                    "internalType": "uint32",
                                    "name": "seqOfTarget",
                                    "type": "uint32"
                                },
                                {
                                    "internalType": "uint64",
                                    "name": "paidOfTarget",
                                    "type": "uint64"
                                },
                                {
                                    "internalType": "uint8",
                                    "name": "state",
                                    "type": "uint8"
                                },
                                {
                                    "internalType": "uint16",
                                    "name": "para",
                                    "type": "uint16"
                                }
                            ],
                            "internalType": "struct SwapsRepo.Body",
                            "name": "body",
                            "type": "tuple"
                        },
                        {
                            "internalType": "bytes32",
                            "name": "hashLock",
                            "type": "bytes32"
                        }
                    ],
                    "internalType": "struct SwapsRepo.Swap",
                    "name": "swap",
                    "type": "tuple"
                }
            ],
            "stateMutability": "view",
            "type": "function"
        },
        {
            "inputs": [
                {
                    "internalType": "uint256",
                    "name": "seqOfOpt",
                    "type": "uint256"
                }
            ],
            "name": "execOption",
            "outputs": [],
            "stateMutability": "nonpayable",
            "type": "function"
        },
        {
            "inputs": [],
            "name": "finalized",
            "outputs": [
                {
                    "internalType": "bool",
                    "name": "",
                    "type": "bool"
                }
            ],
            "stateMutability": "view",
            "type": "function"
        },
        {
            "inputs": [
                {
                    "internalType": "uint256",
                    "name": "seqOfOpt",
                    "type": "uint256"
                }
            ],
            "name": "getALLOraclesOfOption",
            "outputs": [
                {
                    "components": [
                        {
                            "internalType": "uint48",
                            "name": "timestamp",
                            "type": "uint48"
                        },
                        {
                            "internalType": "uint64",
                            "name": "paid",
                            "type": "uint64"
                        },
                        {
                            "internalType": "uint64",
                            "name": "par",
                            "type": "uint64"
                        },
                        {
                            "internalType": "uint64",
                            "name": "cleanPaid",
                            "type": "uint64"
                        }
                    ],
                    "internalType": "struct Checkpoints.Checkpoint[]",
                    "name": "",
                    "type": "tuple[]"
                }
            ],
            "stateMutability": "view",
            "type": "function"
        },
        {
            "inputs": [
                {
                    "internalType": "uint256",
                    "name": "seqOfOpt",
                    "type": "uint256"
                }
            ],
            "name": "getAllBriefsOfOption",
            "outputs": [
                {
                    "components": [
                        {
                            "internalType": "uint16",
                            "name": "seqOfBrf",
                            "type": "uint16"
                        },
                        {
                            "internalType": "uint32",
                            "name": "seqOfSwap",
                            "type": "uint32"
                        },
                        {
                            "internalType": "uint32",
                            "name": "rateOfSwap",
                            "type": "uint32"
                        },
                        {
                            "internalType": "uint64",
                            "name": "paidOfConsider",
                            "type": "uint64"
                        },
                        {
                            "internalType": "uint64",
                            "name": "paidOfTarget",
                            "type": "uint64"
                        },
                        {
                            "internalType": "uint40",
                            "name": "obligor",
                            "type": "uint40"
                        },
                        {
                            "internalType": "uint8",
                            "name": "state",
                            "type": "uint8"
                        }
                    ],
                    "internalType": "struct OptionsRepo.Brief[]",
                    "name": "",
                    "type": "tuple[]"
                }
            ],
            "stateMutability": "view",
            "type": "function"
        },
        {
            "inputs": [],
            "name": "getAllOptions",
            "outputs": [
                {
                    "components": [
                        {
                            "components": [
                                {
                                    "internalType": "uint32",
                                    "name": "seqOfOpt",
                                    "type": "uint32"
                                },
                                {
                                    "internalType": "uint8",
                                    "name": "typeOfOpt",
                                    "type": "uint8"
                                },
                                {
                                    "internalType": "uint16",
                                    "name": "classOfShare",
                                    "type": "uint16"
                                },
                                {
                                    "internalType": "uint32",
                                    "name": "rate",
                                    "type": "uint32"
                                },
                                {
                                    "internalType": "uint48",
                                    "name": "issueDate",
                                    "type": "uint48"
                                },
                                {
                                    "internalType": "uint48",
                                    "name": "triggerDate",
                                    "type": "uint48"
                                },
                                {
                                    "internalType": "uint16",
                                    "name": "execDays",
                                    "type": "uint16"
                                },
                                {
                                    "internalType": "uint16",
                                    "name": "closingDays",
                                    "type": "uint16"
                                },
                                {
                                    "internalType": "uint40",
                                    "name": "obligor",
                                    "type": "uint40"
                                }
                            ],
                            "internalType": "struct OptionsRepo.Head",
                            "name": "head",
                            "type": "tuple"
                        },
                        {
                            "components": [
                                {
                                    "internalType": "uint32",
                                    "name": "seq",
                                    "type": "uint32"
                                },
                                {
                                    "internalType": "uint8",
                                    "name": "logicOpr",
                                    "type": "uint8"
                                },
                                {
                                    "internalType": "uint8",
                                    "name": "compOpr1",
                                    "type": "uint8"
                                },
                                {
                                    "internalType": "uint64",
                                    "name": "para1",
                                    "type": "uint64"
                                },
                                {
                                    "internalType": "uint8",
                                    "name": "compOpr2",
                                    "type": "uint8"
                                },
                                {
                                    "internalType": "uint64",
                                    "name": "para2",
                                    "type": "uint64"
                                },
                                {
                                    "internalType": "uint8",
                                    "name": "compOpr3",
                                    "type": "uint8"
                                },
                                {
                                    "internalType": "uint64",
                                    "name": "para3",
                                    "type": "uint64"
                                }
                            ],
                            "internalType": "struct CondsRepo.Cond",
                            "name": "cond",
                            "type": "tuple"
                        },
                        {
                            "components": [
                                {
                                    "internalType": "uint48",
                                    "name": "closingDate",
                                    "type": "uint48"
                                },
                                {
                                    "internalType": "uint40",
                                    "name": "rightholder",
                                    "type": "uint40"
                                },
                                {
                                    "internalType": "uint64",
                                    "name": "paid",
                                    "type": "uint64"
                                },
                                {
                                    "internalType": "uint64",
                                    "name": "par",
                                    "type": "uint64"
                                },
                                {
                                    "internalType": "uint8",
                                    "name": "state",
                                    "type": "uint8"
                                },
                                {
                                    "internalType": "uint16",
                                    "name": "para",
                                    "type": "uint16"
                                },
                                {
                                    "internalType": "uint16",
                                    "name": "arg",
                                    "type": "uint16"
                                }
                            ],
                            "internalType": "struct OptionsRepo.Body",
                            "name": "body",
                            "type": "tuple"
                        }
                    ],
                    "internalType": "struct OptionsRepo.Option[]",
                    "name": "",
                    "type": "tuple[]"
                }
            ],
            "stateMutability": "view",
            "type": "function"
        },
        {
            "inputs": [],
            "name": "getBookeeper",
            "outputs": [
                {
                    "internalType": "address",
                    "name": "",
                    "type": "address"
                }
            ],
            "stateMutability": "view",
            "type": "function"
        },
        {
            "inputs": [
                {
                    "internalType": "uint256",
                    "name": "seqOfOpt",
                    "type": "uint256"
                },
                {
                    "internalType": "uint256",
                    "name": "seqOfBrf",
                    "type": "uint256"
                }
            ],
            "name": "getBrief",
            "outputs": [
                {
                    "components": [
                        {
                            "internalType": "uint16",
                            "name": "seqOfBrf",
                            "type": "uint16"
                        },
                        {
                            "internalType": "uint32",
                            "name": "seqOfSwap",
                            "type": "uint32"
                        },
                        {
                            "internalType": "uint32",
                            "name": "rateOfSwap",
                            "type": "uint32"
                        },
                        {
                            "internalType": "uint64",
                            "name": "paidOfConsider",
                            "type": "uint64"
                        },
                        {
                            "internalType": "uint64",
                            "name": "paidOfTarget",
                            "type": "uint64"
                        },
                        {
                            "internalType": "uint40",
                            "name": "obligor",
                            "type": "uint40"
                        },
                        {
                            "internalType": "uint8",
                            "name": "state",
                            "type": "uint8"
                        }
                    ],
                    "internalType": "struct OptionsRepo.Brief",
                    "name": "brf",
                    "type": "tuple"
                }
            ],
            "stateMutability": "view",
            "type": "function"
        },
        {
            "inputs": [],
            "name": "getGeneralCounsel",
            "outputs": [
                {
                    "internalType": "uint40",
                    "name": "",
                    "type": "uint40"
                }
            ],
            "stateMutability": "view",
            "type": "function"
        },
        {
            "inputs": [
                {
                    "internalType": "uint256",
                    "name": "seqOfOpt",
                    "type": "uint256"
                }
            ],
            "name": "getObligorsOfOption",
            "outputs": [
                {
                    "internalType": "uint256[]",
                    "name": "",
                    "type": "uint256[]"
                }
            ],
            "stateMutability": "view",
            "type": "function"
        },
        {
            "inputs": [
                {
                    "internalType": "uint256",
                    "name": "seqOfOpt",
                    "type": "uint256"
                }
            ],
            "name": "getOption",
            "outputs": [
                {
                    "components": [
                        {
                            "components": [
                                {
                                    "internalType": "uint32",
                                    "name": "seqOfOpt",
                                    "type": "uint32"
                                },
                                {
                                    "internalType": "uint8",
                                    "name": "typeOfOpt",
                                    "type": "uint8"
                                },
                                {
                                    "internalType": "uint16",
                                    "name": "classOfShare",
                                    "type": "uint16"
                                },
                                {
                                    "internalType": "uint32",
                                    "name": "rate",
                                    "type": "uint32"
                                },
                                {
                                    "internalType": "uint48",
                                    "name": "issueDate",
                                    "type": "uint48"
                                },
                                {
                                    "internalType": "uint48",
                                    "name": "triggerDate",
                                    "type": "uint48"
                                },
                                {
                                    "internalType": "uint16",
                                    "name": "execDays",
                                    "type": "uint16"
                                },
                                {
                                    "internalType": "uint16",
                                    "name": "closingDays",
                                    "type": "uint16"
                                },
                                {
                                    "internalType": "uint40",
                                    "name": "obligor",
                                    "type": "uint40"
                                }
                            ],
                            "internalType": "struct OptionsRepo.Head",
                            "name": "head",
                            "type": "tuple"
                        },
                        {
                            "components": [
                                {
                                    "internalType": "uint32",
                                    "name": "seq",
                                    "type": "uint32"
                                },
                                {
                                    "internalType": "uint8",
                                    "name": "logicOpr",
                                    "type": "uint8"
                                },
                                {
                                    "internalType": "uint8",
                                    "name": "compOpr1",
                                    "type": "uint8"
                                },
                                {
                                    "internalType": "uint64",
                                    "name": "para1",
                                    "type": "uint64"
                                },
                                {
                                    "internalType": "uint8",
                                    "name": "compOpr2",
                                    "type": "uint8"
                                },
                                {
                                    "internalType": "uint64",
                                    "name": "para2",
                                    "type": "uint64"
                                },
                                {
                                    "internalType": "uint8",
                                    "name": "compOpr3",
                                    "type": "uint8"
                                },
                                {
                                    "internalType": "uint64",
                                    "name": "para3",
                                    "type": "uint64"
                                }
                            ],
                            "internalType": "struct CondsRepo.Cond",
                            "name": "cond",
                            "type": "tuple"
                        },
                        {
                            "components": [
                                {
                                    "internalType": "uint48",
                                    "name": "closingDate",
                                    "type": "uint48"
                                },
                                {
                                    "internalType": "uint40",
                                    "name": "rightholder",
                                    "type": "uint40"
                                },
                                {
                                    "internalType": "uint64",
                                    "name": "paid",
                                    "type": "uint64"
                                },
                                {
                                    "internalType": "uint64",
                                    "name": "par",
                                    "type": "uint64"
                                },
                                {
                                    "internalType": "uint8",
                                    "name": "state",
                                    "type": "uint8"
                                },
                                {
                                    "internalType": "uint16",
                                    "name": "para",
                                    "type": "uint16"
                                },
                                {
                                    "internalType": "uint16",
                                    "name": "arg",
                                    "type": "uint16"
                                }
                            ],
                            "internalType": "struct OptionsRepo.Body",
                            "name": "body",
                            "type": "tuple"
                        }
                    ],
                    "internalType": "struct OptionsRepo.Option",
                    "name": "opt",
                    "type": "tuple"
                }
            ],
            "stateMutability": "view",
            "type": "function"
        },
        {
            "inputs": [
                {
                    "internalType": "uint256",
                    "name": "seqOfOpt",
                    "type": "uint256"
                },
                {
                    "internalType": "uint256",
                    "name": "date",
                    "type": "uint256"
                }
            ],
            "name": "getOracleAtDate",
            "outputs": [
                {
                    "components": [
                        {
                            "internalType": "uint48",
                            "name": "timestamp",
                            "type": "uint48"
                        },
                        {
                            "internalType": "uint64",
                            "name": "paid",
                            "type": "uint64"
                        },
                        {
                            "internalType": "uint64",
                            "name": "par",
                            "type": "uint64"
                        },
                        {
                            "internalType": "uint64",
                            "name": "cleanPaid",
                            "type": "uint64"
                        }
                    ],
                    "internalType": "struct Checkpoints.Checkpoint",
                    "name": "",
                    "type": "tuple"
                }
            ],
            "stateMutability": "view",
            "type": "function"
        },
        {
            "inputs": [],
            "name": "getOwner",
            "outputs": [
                {
                    "internalType": "uint40",
                    "name": "",
                    "type": "uint40"
                }
            ],
            "stateMutability": "view",
            "type": "function"
        },
        {
            "inputs": [
                {
                    "internalType": "bytes32",
                    "name": "role",
                    "type": "bytes32"
                },
                {
                    "internalType": "uint256",
                    "name": "acct",
                    "type": "uint256"
                }
            ],
            "name": "grantRole",
            "outputs": [],
            "stateMutability": "nonpayable",
            "type": "function"
        },
        {
            "inputs": [
                {
                    "internalType": "bytes32",
                    "name": "role",
                    "type": "bytes32"
                },
                {
                    "internalType": "uint256",
                    "name": "acct",
                    "type": "uint256"
                }
            ],
            "name": "hasRole",
            "outputs": [
                {
                    "internalType": "bool",
                    "name": "",
                    "type": "bool"
                }
            ],
            "stateMutability": "view",
            "type": "function"
        },
        {
            "inputs": [
                {
                    "internalType": "uint256",
                    "name": "owner",
                    "type": "uint256"
                },
                {
                    "internalType": "address",
                    "name": "directKeeper",
                    "type": "address"
                },
                {
                    "internalType": "address",
                    "name": "regCenter",
                    "type": "address"
                },
                {
                    "internalType": "address",
                    "name": "generalKeeper",
                    "type": "address"
                }
            ],
            "name": "init",
            "outputs": [],
            "stateMutability": "nonpayable",
            "type": "function"
        },
        {
            "inputs": [
                {
                    "internalType": "uint256",
                    "name": "seqOfOpt",
                    "type": "uint256"
                },
                {
                    "internalType": "uint256",
                    "name": "acct",
                    "type": "uint256"
                }
            ],
            "name": "isObligor",
            "outputs": [
                {
                    "internalType": "bool",
                    "name": "",
                    "type": "bool"
                }
            ],
            "stateMutability": "view",
            "type": "function"
        },
        {
            "inputs": [
                {
                    "internalType": "uint256",
                    "name": "seqOfOpt",
                    "type": "uint256"
                }
            ],
            "name": "isOption",
            "outputs": [
                {
                    "internalType": "bool",
                    "name": "",
                    "type": "bool"
                }
            ],
            "stateMutability": "view",
            "type": "function"
        },
        {
            "inputs": [
                {
                    "internalType": "uint256",
                    "name": "seqOfOpt",
                    "type": "uint256"
                },
                {
                    "internalType": "uint256",
                    "name": "acct",
                    "type": "uint256"
                }
            ],
            "name": "isRightholder",
            "outputs": [
                {
                    "internalType": "bool",
                    "name": "",
                    "type": "bool"
                }
            ],
            "stateMutability": "view",
            "type": "function"
        },
        {
            "inputs": [
                {
                    "components": [
                        {
                            "components": [
                                {
                                    "internalType": "uint32",
                                    "name": "seqOfOpt",
                                    "type": "uint32"
                                },
                                {
                                    "internalType": "uint8",
                                    "name": "typeOfOpt",
                                    "type": "uint8"
                                },
                                {
                                    "internalType": "uint16",
                                    "name": "classOfShare",
                                    "type": "uint16"
                                },
                                {
                                    "internalType": "uint32",
                                    "name": "rate",
                                    "type": "uint32"
                                },
                                {
                                    "internalType": "uint48",
                                    "name": "issueDate",
                                    "type": "uint48"
                                },
                                {
                                    "internalType": "uint48",
                                    "name": "triggerDate",
                                    "type": "uint48"
                                },
                                {
                                    "internalType": "uint16",
                                    "name": "execDays",
                                    "type": "uint16"
                                },
                                {
                                    "internalType": "uint16",
                                    "name": "closingDays",
                                    "type": "uint16"
                                },
                                {
                                    "internalType": "uint40",
                                    "name": "obligor",
                                    "type": "uint40"
                                }
                            ],
                            "internalType": "struct OptionsRepo.Head",
                            "name": "head",
                            "type": "tuple"
                        },
                        {
                            "components": [
                                {
                                    "internalType": "uint32",
                                    "name": "seq",
                                    "type": "uint32"
                                },
                                {
                                    "internalType": "uint8",
                                    "name": "logicOpr",
                                    "type": "uint8"
                                },
                                {
                                    "internalType": "uint8",
                                    "name": "compOpr1",
                                    "type": "uint8"
                                },
                                {
                                    "internalType": "uint64",
                                    "name": "para1",
                                    "type": "uint64"
                                },
                                {
                                    "internalType": "uint8",
                                    "name": "compOpr2",
                                    "type": "uint8"
                                },
                                {
                                    "internalType": "uint64",
                                    "name": "para2",
                                    "type": "uint64"
                                },
                                {
                                    "internalType": "uint8",
                                    "name": "compOpr3",
                                    "type": "uint8"
                                },
                                {
                                    "internalType": "uint64",
                                    "name": "para3",
                                    "type": "uint64"
                                }
                            ],
                            "internalType": "struct CondsRepo.Cond",
                            "name": "cond",
                            "type": "tuple"
                        },
                        {
                            "components": [
                                {
                                    "internalType": "uint48",
                                    "name": "closingDate",
                                    "type": "uint48"
                                },
                                {
                                    "internalType": "uint40",
                                    "name": "rightholder",
                                    "type": "uint40"
                                },
                                {
                                    "internalType": "uint64",
                                    "name": "paid",
                                    "type": "uint64"
                                },
                                {
                                    "internalType": "uint64",
                                    "name": "par",
                                    "type": "uint64"
                                },
                                {
                                    "internalType": "uint8",
                                    "name": "state",
                                    "type": "uint8"
                                },
                                {
                                    "internalType": "uint16",
                                    "name": "para",
                                    "type": "uint16"
                                },
                                {
                                    "internalType": "uint16",
                                    "name": "arg",
                                    "type": "uint16"
                                }
                            ],
                            "internalType": "struct OptionsRepo.Body",
                            "name": "body",
                            "type": "tuple"
                        }
                    ],
                    "internalType": "struct OptionsRepo.Option",
                    "name": "opt",
                    "type": "tuple"
                }
            ],
            "name": "issueOption",
            "outputs": [
                {
                    "components": [
                        {
                            "internalType": "uint32",
                            "name": "seqOfOpt",
                            "type": "uint32"
                        },
                        {
                            "internalType": "uint8",
                            "name": "typeOfOpt",
                            "type": "uint8"
                        },
                        {
                            "internalType": "uint16",
                            "name": "classOfShare",
                            "type": "uint16"
                        },
                        {
                            "internalType": "uint32",
                            "name": "rate",
                            "type": "uint32"
                        },
                        {
                            "internalType": "uint48",
                            "name": "issueDate",
                            "type": "uint48"
                        },
                        {
                            "internalType": "uint48",
                            "name": "triggerDate",
                            "type": "uint48"
                        },
                        {
                            "internalType": "uint16",
                            "name": "execDays",
                            "type": "uint16"
                        },
                        {
                            "internalType": "uint16",
                            "name": "closingDays",
                            "type": "uint16"
                        },
                        {
                            "internalType": "uint40",
                            "name": "obligor",
                            "type": "uint40"
                        }
                    ],
                    "internalType": "struct OptionsRepo.Head",
                    "name": "head",
                    "type": "tuple"
                }
            ],
            "stateMutability": "nonpayable",
            "type": "function"
        },
        {
            "inputs": [],
            "name": "lockContents",
            "outputs": [],
            "stateMutability": "nonpayable",
            "type": "function"
        },
        {
            "inputs": [
                {
                    "internalType": "address",
                    "name": "opts",
                    "type": "address"
                }
            ],
            "name": "regOptionTerms",
            "outputs": [],
            "stateMutability": "nonpayable",
            "type": "function"
        },
        {
            "inputs": [
                {
                    "internalType": "uint256",
                    "name": "seqOfOpt",
                    "type": "uint256"
                },
                {
                    "components": [
                        {
                            "components": [
                                {
                                    "internalType": "uint32",
                                    "name": "seqOfSwap",
                                    "type": "uint32"
                                },
                                {
                                    "internalType": "uint16",
                                    "name": "classOfTarget",
                                    "type": "uint16"
                                },
                                {
                                    "internalType": "uint16",
                                    "name": "classOfConsider",
                                    "type": "uint16"
                                },
                                {
                                    "internalType": "uint48",
                                    "name": "createDate",
                                    "type": "uint48"
                                },
                                {
                                    "internalType": "uint48",
                                    "name": "triggerDate",
                                    "type": "uint48"
                                },
                                {
                                    "internalType": "uint16",
                                    "name": "closingDays",
                                    "type": "uint16"
                                },
                                {
                                    "internalType": "uint40",
                                    "name": "obligor",
                                    "type": "uint40"
                                },
                                {
                                    "internalType": "uint32",
                                    "name": "rateOfSwap",
                                    "type": "uint32"
                                },
                                {
                                    "internalType": "uint8",
                                    "name": "para",
                                    "type": "uint8"
                                }
                            ],
                            "internalType": "struct SwapsRepo.Head",
                            "name": "head",
                            "type": "tuple"
                        },
                        {
                            "components": [
                                {
                                    "internalType": "uint40",
                                    "name": "rightholder",
                                    "type": "uint40"
                                },
                                {
                                    "internalType": "uint32",
                                    "name": "seqOfConsider",
                                    "type": "uint32"
                                },
                                {
                                    "internalType": "uint64",
                                    "name": "paidOfConsider",
                                    "type": "uint64"
                                },
                                {
                                    "internalType": "uint32",
                                    "name": "seqOfTarget",
                                    "type": "uint32"
                                },
                                {
                                    "internalType": "uint64",
                                    "name": "paidOfTarget",
                                    "type": "uint64"
                                },
                                {
                                    "internalType": "uint8",
                                    "name": "state",
                                    "type": "uint8"
                                },
                                {
                                    "internalType": "uint16",
                                    "name": "para",
                                    "type": "uint16"
                                }
                            ],
                            "internalType": "struct SwapsRepo.Body",
                            "name": "body",
                            "type": "tuple"
                        },
                        {
                            "internalType": "bytes32",
                            "name": "hashLock",
                            "type": "bytes32"
                        }
                    ],
                    "internalType": "struct SwapsRepo.Swap",
                    "name": "swap",
                    "type": "tuple"
                }
            ],
            "name": "regSwapOrder",
            "outputs": [],
            "stateMutability": "nonpayable",
            "type": "function"
        },
        {
            "inputs": [
                {
                    "internalType": "uint256",
                    "name": "seqOfOpt",
                    "type": "uint256"
                },
                {
                    "internalType": "uint256",
                    "name": "obligor",
                    "type": "uint256"
                }
            ],
            "name": "removeObligorFromOption",
            "outputs": [],
            "stateMutability": "nonpayable",
            "type": "function"
        },
        {
            "inputs": [
                {
                    "internalType": "bytes32",
                    "name": "role",
                    "type": "bytes32"
                }
            ],
            "name": "renounceRole",
            "outputs": [],
            "stateMutability": "nonpayable",
            "type": "function"
        },
        {
            "inputs": [
                {
                    "internalType": "bytes32",
                    "name": "role",
                    "type": "bytes32"
                },
                {
                    "internalType": "uint256",
                    "name": "acct",
                    "type": "uint256"
                }
            ],
            "name": "revokeRole",
            "outputs": [],
            "stateMutability": "nonpayable",
            "type": "function"
        },
        {
            "inputs": [
                {
                    "internalType": "address",
                    "name": "keeper",
                    "type": "address"
                }
            ],
            "name": "setDirectKeeper",
            "outputs": [],
            "stateMutability": "nonpayable",
            "type": "function"
        },
        {
            "inputs": [
                {
                    "internalType": "uint256",
                    "name": "acct",
                    "type": "uint256"
                }
            ],
            "name": "setGeneralCounsel",
            "outputs": [],
            "stateMutability": "nonpayable",
            "type": "function"
        },
        {
            "inputs": [
                {
                    "internalType": "uint256",
                    "name": "acct",
                    "type": "uint256"
                }
            ],
            "name": "setOwner",
            "outputs": [],
            "stateMutability": "nonpayable",
            "type": "function"
        },
        {
            "inputs": [
                {
                    "internalType": "bytes32",
                    "name": "role",
                    "type": "bytes32"
                },
                {
                    "internalType": "uint256",
                    "name": "acct",
                    "type": "uint256"
                }
            ],
            "name": "setRoleAdmin",
            "outputs": [],
            "stateMutability": "nonpayable",
            "type": "function"
        },
        {
            "inputs": [
                {
                    "internalType": "uint256",
                    "name": "seqOfOpt",
                    "type": "uint256"
                },
                {
                    "internalType": "uint256",
                    "name": "d1",
                    "type": "uint256"
                },
                {
                    "internalType": "uint256",
                    "name": "d2",
                    "type": "uint256"
                },
                {
                    "internalType": "uint256",
                    "name": "d3",
                    "type": "uint256"
                }
            ],
            "name": "updateOracle",
            "outputs": [],
            "stateMutability": "nonpayable",
            "type": "function"
        },
        {
            "inputs": [
                {
                    "internalType": "uint256",
                    "name": "seqOfOpt",
                    "type": "uint256"
                },
                {
                    "internalType": "uint256",
                    "name": "seqOfBrf",
                    "type": "uint256"
                },
                {
                    "internalType": "uint256",
                    "name": "state",
                    "type": "uint256"
                }
            ],
            "name": "updateStateOfBrief",
            "outputs": [],
            "stateMutability": "nonpayable",
            "type": "function"
        }
    ],
    "bytecode": "608060405234801561001057600080fd5b5061452a806100206000396000f3fe608060405234801561001057600080fd5b50600436106102275760003560e01c806376f2736f11610130578063b3be456a116100b8578063dc890da91161007c578063dc890da91461063b578063ed2110231461064e578063f045a7691461066e578063f5bf221d14610676578063fd323a7a146106ac57600080fd5b8063b3be456a146105a3578063b3f05b97146105d4578063c0cddf40146105e8578063c4c5aefc146105fb578063c4e1f56e1461061b57600080fd5b8063893d20e8116100ff578063893d20e8146105355780638b2854211461053d5780638bb9c5bf1461055d578063a24132e814610570578063b02f703c1461058357600080fd5b806376f2736f146104dc5780637e063c5a146104ef5780638041494e14610502578063809bf77b1461051557600080fd5b80633bce3c30116101b35780635171ebd4116101825780635171ebd41461047d5780635512c7ca146104905780636555ff7a146104a35780636be8496f146104b65780636ca5cc5d146104c957600080fd5b80633bce3c301461041f5780633da9a600146104425780634a14beb1146104555780634b4b0d371461046857600080fd5b80631b6ea9f9116101fa5780631b6ea9f9146103795780631ce5e9a61461038c5780631d565c07146103ac5780632bff28d9146103bf57806339803c02146103df57600080fd5b8063103f6edd1461022c5780631368f3271461024f57806317e18de31461026c57806319d61ad914610364575b600080fd5b6102346106bf565b60405164ffffffffff90911681526020015b60405180910390f35b61025761074b565b60405163ffffffff9091168152602001610246565b61035761027a366004612e87565b6040805160e081018252600080825260208201819052918101829052606081018290526080810182905260a0810182905260c08101919091525060009182526005602090815260408084209284526002909201815291819020815160e081018352905461ffff8116825262010000810463ffffffff908116948301949094526601000000000000810490931691810191909152600160501b82046001600160401b039081166060830152600160901b8304166080820152600160d01b820464ffffffffff1660a0820152600160f81b90910460ff1660c082015290565b6040516102469190612f16565b610377610372366004612e87565b6107d0565b005b610377610387366004612e87565b610862565b61039f61039a366004612f24565b610888565b6040516102469190613125565b6103776103ba366004612e87565b610c77565b6103d26103cd366004612f24565b610e03565b6040516102469190613134565b6104116103ed366004612f24565b600090815260056020908152604080832083805260020190915290205461ffff1690565b604051908152602001610246565b61043261042d366004612e87565b610e99565b6040519015158152602001610246565b610377610450366004612f24565b610f77565b610377610463366004612f24565b611003565b610470611260565b6040516102469190613182565b61037761048b366004612e87565b6112e9565b61037761049e3660046131c5565b61130f565b6103776104b1366004612f24565b611419565b6103776104c4366004613209565b611519565b6103776104d7366004613209565b6115cb565b6103776104ea366004613226565b6119d3565b6104326104fd366004612e87565b611b4b565b610377610510366004612f24565b611be6565b610528610523366004612f24565b611c9f565b6040516102469190613258565b610234611d3e565b61055061054b366004612e87565b611d79565b6040516102469190613290565b61037761056b366004612f24565b611e75565b61037761057e366004612e87565b611e9a565b6105966105913660046132d8565b612010565b6040516102469190613313565b6104326105b1366004612f24565b600090815260046020526040902054600160581b900465ffffffffffff16151590565b60028054600160f01b900460ff1614610432565b6105966105f63660046135f6565b612224565b61060e610609366004613226565b612418565b604051610246919061381b565b61062e610629366004612f24565b6125fb565b6040516102469190613854565b6103776106493660046138d0565b6126d3565b6106566127b5565b6040516001600160a01b039091168152602001610246565b61037761283b565b610432610684366004612e87565b600091825260046020526040909120600201546601000000000000900464ffffffffff161490565b6103776106ba3660046139a6565b612a7f565b60405163e8c0cc1d60e01b81526002600482015260009073__$364aad554dc80380f414546becdd2c1584$__9063e8c0cc1d906024015b60206040518083038186803b15801561070e57600080fd5b505af4158015610722573d6000803e3d6000fd5b505050506040513d601f19601f820116820180604052508101906107469190613abe565b905090565b6040516316cfb4dd60e21b815260048082015260009073__$bd0f380ab135f83a7568cac3e5fc41e1e4$__90635b3ed3749060240160206040518083038186803b15801561079857600080fd5b505af41580156107ac573d6000803e3d6000fd5b505050506040513d601f19601f820116820180604052508101906107469190613ae6565b73__$364aad554dc80380f414546becdd2c1584$__6382daafaa600284846107f6612c5d565b6040516001600160e01b031960e087901b16815260048101949094526024840192909252604483015264ffffffffff16606482015260840160006040518083038186803b15801561084657600080fd5b505af415801561085a573d6000803e3d6000fd5b505050505050565b73__$364aad554dc80380f414546becdd2c1584$__636320d75e600284846107f6612c5d565b610890612da5565b6004600001600083815260200190815260200160002060405180606001604052908160008201604051806101200160405290816000820160009054906101000a900463ffffffff1663ffffffff1663ffffffff1681526020016000820160049054906101000a900460ff1660ff1660ff1681526020016000820160059054906101000a900461ffff1661ffff1661ffff1681526020016000820160079054906101000a900463ffffffff1663ffffffff1663ffffffff16815260200160008201600b9054906101000a900465ffffffffffff1665ffffffffffff1665ffffffffffff1681526020016000820160119054906101000a900465ffffffffffff1665ffffffffffff1665ffffffffffff1681526020016000820160179054906101000a900461ffff1661ffff1661ffff1681526020016000820160199054906101000a900461ffff1661ffff1661ffff16815260200160008201601b9054906101000a900464ffffffffff1664ffffffffff1664ffffffffff1681525050815260200160018201604051806101000160405290816000820160009054906101000a900463ffffffff1663ffffffff1663ffffffff1681526020016000820160049054906101000a900460ff1660ff1660ff1681526020016000820160059054906101000a900460ff1660ff1660ff1681526020016000820160069054906101000a90046001600160401b03166001600160401b03166001600160401b0316815260200160008201600e9054906101000a900460ff1660ff1660ff16815260200160008201600f9054906101000a90046001600160401b03166001600160401b03166001600160401b031681526020016000820160179054906101000a900460ff1660ff1660ff1681526020016000820160189054906101000a90046001600160401b03166001600160401b03166001600160401b0316815250508152602001600282016040518060e00160405290816000820160009054906101000a900465ffffffffffff1665ffffffffffff1665ffffffffffff1681526020016000820160069054906101000a900464ffffffffff1664ffffffffff1664ffffffffff16815260200160008201600b9054906101000a90046001600160401b03166001600160401b03166001600160401b031681526020016000820160139054906101000a90046001600160401b03166001600160401b03166001600160401b0316815260200160008201601b9054906101000a900460ff1660ff1660ff16815260200160008201601c9054906101000a900461ffff1661ffff1661ffff16815260200160008201601e9054906101000a900461ffff1661ffff1661ffff1681525050815250509050919050565b604051633b11adbf60e21b81526002600482015233602482015273__$364aad554dc80380f414546becdd2c1584$__9063ec46b6fc9060440160206040518083038186803b158015610cc857600080fd5b505af4158015610cdc573d6000803e3d6000fd5b505050506040513d601f19601f82011682018060405250810190610d009190613b03565b610d255760405162461bcd60e51b8152600401610d1c90613b25565b60405180910390fd5b6000828152600560205260409081902090516392fd02df60e01b815260048101919091526024810182905273__$8c1a4844a0a0988ea2454cf87145a95df1$__906392fd02df9060440160206040518083038186803b158015610d8757600080fd5b505af4158015610d9b573d6000803e3d6000fd5b505050506040513d601f19601f82011682018060405250810190610dbf9190613b03565b15610dff57817f5099b84fedf2037c6ff782c44b0ac2843f775d48f7037b6b1695993f87ed8bda82604051610df691815260200190565b60405180910390a25b5050565b60405163d432339f60e01b81526004808201526024810182905260609073__$bd0f380ab135f83a7568cac3e5fc41e1e4$__9063d432339f9060440160006040518083038186803b158015610e5757600080fd5b505af4158015610e6b573d6000803e3d6000fd5b505050506040513d6000823e601f3d908101601f19168201604052610e939190810190613c45565b92915050565b6000828152600460205260408120548390600160581b900465ffffffffffff16610ed55760405162461bcd60e51b8152600401610d1c90613ce3565b600084815260056020526040908190209051633f5f77cd60e01b815260048101919091526024810184905273__$8c1a4844a0a0988ea2454cf87145a95df1$__90633f5f77cd9060440160206040518083038186803b158015610f3757600080fd5b505af4158015610f4b573d6000803e3d6000fd5b505050506040513d601f19601f82011682018060405250810190610f6f9190613b03565b949350505050565b73__$364aad554dc80380f414546becdd2c1584$__63c51b295f600283610f9c612c5d565b6040516001600160e01b031960e086901b1681526004810193909352602483019190915264ffffffffff1660448201526064015b60006040518083038186803b158015610fe857600080fd5b505af4158015610ffc573d6000803e3d6000fd5b5050505050565b604051633b11adbf60e21b81526002600482015233602482015273__$364aad554dc80380f414546becdd2c1584$__9063ec46b6fc9060440160206040518083038186803b15801561105457600080fd5b505af4158015611068573d6000803e3d6000fd5b505050506040513d601f19601f8201168201806040525081019061108c9190613b03565b80611131575073__$364aad554dc80380f414546becdd2c1584$__63fe27108660026110b6612c5d565b6040516001600160e01b031960e085901b168152600481019290925264ffffffffff16602482015260440160206040518083038186803b1580156110f957600080fd5b505af415801561110d573d6000803e3d6000fd5b505050506040513d601f19601f820116820180604052508101906111319190613b03565b61119c5760405162461bcd60e51b815260206004820152603660248201527f41432e6f776e65724f72446972656374426f6f6b65657065723a206e6569746860448201527532b91037bbb732b9103737b9103137b7b5b2b2b832b960511b6064820152608401610d1c565b73__$364aad554dc80380f414546becdd2c1584$__639b4510de6002836111c1612c5d565b6040516001600160e01b031960e086901b1681526004810193909352602483019190915264ffffffffff16604482015260640160006040518083038186803b15801561120c57600080fd5b505af4158015611220573d6000803e3d6000fd5b505050507ff2735f34b69be1e6342dea95f9162f84d0db925fab655ca9f1f312ac8cbfc99d8160405161125591815260200190565b60405180910390a150565b60405163741524b760e11b815260048082015260609073__$bd0f380ab135f83a7568cac3e5fc41e1e4$__9063e82a496e9060240160006040518083038186803b1580156112ad57600080fd5b505af41580156112c1573d6000803e3d6000fd5b505050506040513d6000823e601f3d908101601f191682016040526107469190810190613f66565b73__$364aad554dc80380f414546becdd2c1584$__63ee98b313600284846107f6612c5d565b6001546040516335d2155560e11b81523360048201526001600160a01b0390911690636ba42aaa9060240160206040518083038186803b15801561135257600080fd5b505afa158015611366573d6000803e3d6000fd5b505050506040513d601f19601f8201168201806040525081019061138a9190613b03565b6113a65760405162461bcd60e51b8152600401610d1c90613ff4565b600083815260056020908152604080832085845260020182529182902080546001600160f81b0316600160f81b60ff861602179055815184815290810183905284917f668a2c8dcb7c44400968de72627c7f7e9f167725a046f46d71a9b4f7751f522191015b60405180910390a2505050565b6001546040516335d2155560e11b81523360048201526001600160a01b0390911690636ba42aaa9060240160206040518083038186803b15801561145c57600080fd5b505afa158015611470573d6000803e3d6000fd5b505050506040513d601f19601f820116820180604052508101906114949190613b03565b6114b05760405162461bcd60e51b8152600401610d1c90613ff4565b60405181907fc494b4ad56dac341aecc01dcffc2710feac31822a34b6428c4a76d8f155ca4cc90600090a2604051631f7e910760e31b81526004808201526024810182905273__$bd0f380ab135f83a7568cac3e5fc41e1e4$__9063fbf4883890604401610fd0565b604051630f07232560e01b8152600260048201526001600160a01b038216602482015233604482015273__$364aad554dc80380f414546becdd2c1584$__90630f0723259060640160006040518083038186803b15801561157957600080fd5b505af415801561158d573d6000803e3d6000fd5b50506040516001600160a01b03841681527fe435cbeab64e4eae6497b9d8289704bd709d624a80704ef3ca9af777534bc6ec92506020019050611255565b6001546040516335d2155560e11b81523360048201526001600160a01b0390911690636ba42aaa9060240160206040518083038186803b15801561160e57600080fd5b505afa158015611622573d6000803e3d6000fd5b505050506040513d601f19601f820116820180604052508101906116469190613b03565b6116625760405162461bcd60e51b8152600401610d1c90613ff4565b6000816001600160a01b0316631368f3276040518163ffffffff1660e01b815260040160206040518083038186803b15801561169d57600080fd5b505afa1580156116b1573d6000803e3d6000fd5b505050506040513d601f19601f820116820180604052508101906116d59190613ae6565b90505b63ffffffff811615610dff57604051630e72f4d360e11b815263ffffffff821660048201526000906001600160a01b03841690631ce5e9a6906024016103006040518083038186803b15801561172d57600080fd5b505afa158015611741573d6000803e3d6000fd5b505050506040513d601f19601f82011682018060405250810190611765919061401f565b6040516308479ba160e31b815290915073__$bd0f380ab135f83a7568cac3e5fc41e1e4$__9063423cdd08906117a1906004908590820161403c565b6101206040518083038186803b1580156117ba57600080fd5b505af41580156117ce573d6000803e3d6000fd5b505050506040513d601f19601f820116820180604052508101906117f29190614085565b808252805160405163191b63f760e11b815263ffffffff909116917f52791ebd78dcff1d4506682d26f8e5101ebd38f503d61ac13050498de383f3689173__$bd0f380ab135f83a7568cac3e5fc41e1e4$__91633236c7ee916118589190600401613313565b60206040518083038186803b15801561187057600080fd5b505af4158015611884573d6000803e3d6000fd5b505050506040513d601f19601f820116820180604052508101906118a891906140a2565b60405190815260200160405180910390a260405163809bf77b60e01b815263ffffffff831660048201526000906001600160a01b0385169063809bf77b9060240160006040518083038186803b15801561190157600080fd5b505afa158015611915573d6000803e3d6000fd5b505050506040513d6000823e601f3d908101601f1916820160405261193d91908101906140bb565b82515163ffffffff1660009081526005602052604090819020905162a36c9b60e51b815291925073__$bd0f380ab135f83a7568cac3e5fc41e1e4$__9163146d93609161198e91859060040161414b565b60006040518083038186803b1580156119a657600080fd5b505af41580156119ba573d6000803e3d6000fd5b5050505082806119c990614199565b93505050506116d8565b604051633b11adbf60e21b81526002600482015233602482015273__$364aad554dc80380f414546becdd2c1584$__9063ec46b6fc9060440160206040518083038186803b158015611a2457600080fd5b505af4158015611a38573d6000803e3d6000fd5b505050506040513d601f19601f82011682018060405250810190611a5c9190613b03565b611a785760405162461bcd60e51b8152600401610d1c90613b25565b604080518481526020810184905290810182905284907f0678063a12d3602e28346161ca8c087d8e0a58f1fa5ff5f7877f9f747ac18ca39060600160405180910390a2600084815260056020526040908190209051633bc2e59160e01b81526003909101600482015260248101849052604481018390526064810182905273__$9d89bb4a2fad48898c323b0a17741df93a$__90633bc2e5919060840160006040518083038186803b158015611b2d57600080fd5b505af4158015611b41573d6000803e3d6000fd5b5050505050505050565b604051632a3be56b60e21b815260026004820152602481018390526044810182905260009073__$364aad554dc80380f414546becdd2c1584$__9063a8ef95ac9060640160206040518083038186803b158015611ba757600080fd5b505af4158015611bbb573d6000803e3d6000fd5b505050506040513d601f19601f82011682018060405250810190611bdf9190613b03565b9392505050565b73__$364aad554dc80380f414546becdd2c1584$__639b48160c600283611c0b612c5d565b6040516001600160e01b031960e086901b1681526004810193909352602483019190915264ffffffffff16604482015260640160006040518083038186803b158015611c5657600080fd5b505af4158015611c6a573d6000803e3d6000fd5b505050507f8b6f40f36b4ae8cc5f55e895036457c43da4ab1f80f58c46f5ff0d72a650033b8160405161125591815260200190565b60008181526005602052604090819020905163034306e160e21b815260609173__$8c1a4844a0a0988ea2454cf87145a95df1$__91630d0c1b8491611cea9160040190815260200190565b60006040518083038186803b158015611d0257600080fd5b505af4158015611d16573d6000803e3d6000fd5b505050506040513d6000823e601f3d908101601f19168201604052610e9391908101906140bb565b60405163987ad15360e01b81526002600482015260009073__$364aad554dc80380f414546becdd2c1584$__9063987ad153906024016106f6565b6040805160808101825260008082526020820181905291810182905260608101919091526000838152600460205260409020548390600160581b900465ffffffffffff16611dd95760405162461bcd60e51b8152600401610d1c90613ce3565b60008481526005602052604090819020905163e8fce06b60e01b8152600390910160048201526024810184905273__$9d89bb4a2fad48898c323b0a17741df93a$__9063e8fce06b9060440160806040518083038186803b158015611e3d57600080fd5b505af4158015611e51573d6000803e3d6000fd5b505050506040513d601f19601f82011682018060405250810190610f6f9190614251565b73__$364aad554dc80380f414546becdd2c1584$__63cc0d511b600283610f9c612c5d565b604051633b11adbf60e21b81526002600482015233602482015273__$364aad554dc80380f414546becdd2c1584$__9063ec46b6fc9060440160206040518083038186803b158015611eeb57600080fd5b505af4158015611eff573d6000803e3d6000fd5b505050506040513d601f19601f82011682018060405250810190611f239190613b03565b611f3f5760405162461bcd60e51b8152600401610d1c90613b25565b6000828152600560205260409081902090516392f13c3f60e01b815260048101919091526024810182905273__$8c1a4844a0a0988ea2454cf87145a95df1$__906392f13c3f9060440160206040518083038186803b158015611fa157600080fd5b505af4158015611fb5573d6000803e3d6000fd5b505050506040513d601f19601f82011682018060405250810190611fd99190613b03565b15610dff57817f26dd4a901a5050dc1c995e66afc62c5aa03293381756199f49f62b57e197ea9882604051610df691815260200190565b612018612e3b565b6001546040516335d2155560e11b81523360048201526001600160a01b0390911690636ba42aaa9060240160206040518083038186803b15801561205b57600080fd5b505afa15801561206f573d6000803e3d6000fd5b505050506040513d601f19601f820116820180604052508101906120939190613b03565b6120af5760405162461bcd60e51b8152600401610d1c90613ff4565b6040516308c1f27160e01b81526004808201526024810187905260448101869052606481018590526084810184905260a4810183905273__$bd0f380ab135f83a7568cac3e5fc41e1e4$__906308c1f2719060c4016101206040518083038186803b15801561211d57600080fd5b505af4158015612131573d6000803e3d6000fd5b505050506040513d601f19601f820116820180604052508101906121559190614085565b805160405163191b63f760e11b815291925063ffffffff16907f52791ebd78dcff1d4506682d26f8e5101ebd38f503d61ac13050498de383f3689073__$bd0f380ab135f83a7568cac3e5fc41e1e4$__90633236c7ee906121ba908690600401613313565b60206040518083038186803b1580156121d257600080fd5b505af41580156121e6573d6000803e3d6000fd5b505050506040513d601f19601f8201168201806040525081019061220a91906140a2565b60405190815260200160405180910390a295945050505050565b61222c612e3b565b6001546040516335d2155560e11b81523360048201526001600160a01b0390911690636ba42aaa9060240160206040518083038186803b15801561226f57600080fd5b505afa158015612283573d6000803e3d6000fd5b505050506040513d601f19601f820116820180604052508101906122a79190613b03565b6122c35760405162461bcd60e51b8152600401610d1c90613ff4565b6040516308479ba160e31b815273__$bd0f380ab135f83a7568cac3e5fc41e1e4$__9063423cdd08906122fc906004908690820161403c565b6101206040518083038186803b15801561231557600080fd5b505af4158015612329573d6000803e3d6000fd5b505050506040513d601f19601f8201168201806040525081019061234d9190614085565b805160405163191b63f760e11b815291925063ffffffff16907f52791ebd78dcff1d4506682d26f8e5101ebd38f503d61ac13050498de383f3689073__$bd0f380ab135f83a7568cac3e5fc41e1e4$__90633236c7ee906123b2908690600401613313565b60206040518083038186803b1580156123ca57600080fd5b505af41580156123de573d6000803e3d6000fd5b505050506040513d601f19601f8201168201806040525081019061240291906140a2565b60405190815260200160405180910390a2919050565b604080516101808101825260006060808301828152608080850184905260a080860185905260c080870186905260e080880187905261010088018790526101208801879052610140880187905261016088018790529387528751938401885285845260208085018790528489018790529484018690529183018590528201849052810183905290830152918101919091526001546040516335d2155560e11b81523360048201526001600160a01b0390911690636ba42aaa9060240160206040518083038186803b1580156124ec57600080fd5b505afa158015612500573d6000803e3d6000fd5b505050506040513d601f19601f820116820180604052508101906125249190613b03565b6125405760405162461bcd60e51b8152600401610d1c90613ff4565b60015460405163e89a3b9160e01b8152600480820152602481018790526044810186905260648101859052608481018490526001600160a01b0390911660a482015273__$bd0f380ab135f83a7568cac3e5fc41e1e4$__9063e89a3b919060c4016102206040518083038186803b1580156125ba57600080fd5b505af41580156125ce573d6000803e3d6000fd5b505050506040513d601f19601f820116820180604052508101906125f291906142f0565b95945050505050565b6000818152600460205260409020546060908290600160581b900465ffffffffffff1661263a5760405162461bcd60e51b8152600401610d1c90613ce3565b60008381526005602052604090819020905163e60e18a560e01b81526003909101600482015273__$9d89bb4a2fad48898c323b0a17741df93a$__9063e60e18a59060240160006040518083038186803b15801561269757600080fd5b505af41580156126ab573d6000803e3d6000fd5b505050506040513d6000823e601f3d908101601f19168201604052611bdf91908101906143e4565b604051636cdd0edf60e11b815260026004820152602481018590526001600160a01b038416604482015273__$364aad554dc80380f414546becdd2c1584$__9063d9ba1dbe9060640160006040518083038186803b15801561273457600080fd5b505af4158015612748573d6000803e3d6000fd5b5050505061275582612cb7565b61275e81612d2a565b604080518581526001600160a01b038581166020830152848116828401528316606082015290517f3abb2418c66fe32ba9c883030a75ce583971d9af9192b9b74e44e67c5e6c8c1f9181900360800190a150505050565b604051633c3e56c160e11b81526002600482015260009073__$364aad554dc80380f414546becdd2c1584$__9063787cad829060240160206040518083038186803b15801561280357600080fd5b505af4158015612817573d6000803e3d6000fd5b505050506040513d601f19601f820116820180604052508101906107469190614474565b600254600160f01b900460ff166001146128975760405162461bcd60e51b815260206004820152601760248201527f41432e4c433a20446f632069732066696e616c697a65640000000000000000006044820152606401610d1c565b73__$364aad554dc80380f414546becdd2c1584$__63c51b295f6002684174746f726e65797360b81b6128c8612c5d565b6040516001600160e01b031960e086901b1681526004810193909352602483019190915264ffffffffff16604482015260640160006040518083038186803b15801561291357600080fd5b505af4158015612927573d6000803e3d6000fd5b50505050600273__$364aad554dc80380f414546becdd2c1584$__639b4510de90916000612953612c5d565b6040516001600160e01b031960e086901b1681526004810193909352602483019190915264ffffffffff16604482015260640160006040518083038186803b15801561299e57600080fd5b505af41580156129b2573d6000803e3d6000fd5b50505050600273__$364aad554dc80380f414546becdd2c1584$__639b48160c909160006129de612c5d565b6040516001600160e01b031960e086901b1681526004810193909352602483019190915264ffffffffff16604482015260640160006040518083038186803b158015612a2957600080fd5b505af4158015612a3d573d6000803e3d6000fd5b50506002805460ff60f01b1916600160f11b17905550506040517f35012b512309c322acf68632cd6cb702ff0e1d776fbe9394e38ffc13b434fe7590600090a1565b6001546040516335d2155560e11b81523360048201526001600160a01b0390911690636ba42aaa9060240160206040518083038186803b158015612ac257600080fd5b505afa158015612ad6573d6000803e3d6000fd5b505050506040513d601f19601f82011682018060405250810190612afa9190613b03565b612b165760405162461bcd60e51b8152600401610d1c90613ff4565b60405163921ab06760e01b815260009073__$bd0f380ab135f83a7568cac3e5fc41e1e4$__9063921ab06790612b5490600490879087908301614491565b60e06040518083038186803b158015612b6c57600080fd5b505af4158015612b80573d6000803e3d6000fd5b505050506040513d601f19601f82011682018060405250810190612ba491906144d8565b9050827fc02000af6ff4e7765f1f97c87932bf4f0877955ec99afad29399ed00a10e20a573__$bd0f380ab135f83a7568cac3e5fc41e1e4$__6389de3a96846040518263ffffffff1660e01b8152600401612bff9190612f16565b60206040518083038186803b158015612c1757600080fd5b505af4158015612c2b573d6000803e3d6000fd5b505050506040513d601f19601f82011682018060405250810190612c4f91906140a2565b60405190815260200161140c565b60008054604051636ae3b70d60e11b81523360048201526001600160a01b039091169063d5c76e1a90602401602060405180830381600087803b158015612ca357600080fd5b505af1158015610722573d6000803e3d6000fd5b6000546001600160a01b031615612d085760405162461bcd60e51b815260206004820152601560248201527430b63932b0b23c9039b2ba103932b3a1b2b73a32b960591b6044820152606401610d1c565b600080546001600160a01b0319166001600160a01b0392909216919091179055565b6001546001600160a01b031615612d835760405162461bcd60e51b815260206004820152601960248201527f616c7265616479207365742067656e6572616c4b6565706572000000000000006044820152606401610d1c565b600180546001600160a01b0319166001600160a01b0392909216919091179055565b6040518060600160405280612db8612e3b565b8152604080516101008101825260008082526020828101829052928201819052606082018190526080820181905260a0820181905260c0820181905260e082015291019081526040805160e08101825260008082526020828101829052928201819052606082018190526080820181905260a0820181905260c082015291015290565b6040805161012081018252600080825260208201819052918101829052606081018290526080810182905260a0810182905260c0810182905260e0810182905261010081019190915290565b60008060408385031215612e9a57600080fd5b50508035926020909101359150565b61ffff8151168252602081015163ffffffff8082166020850152806040840151166040850152505060608101516001600160401b038082166060850152806080840151166080850152505064ffffffffff60a08201511660a083015260ff60c08201511660c08301525050565b60e08101610e938284612ea9565b600060208284031215612f3657600080fd5b5035919050565b63ffffffff815116825260ff60208201511660208301526040810151612f69604084018261ffff169052565b506060810151612f81606084018263ffffffff169052565b506080810151612f9b608084018265ffffffffffff169052565b5060a0810151612fb560a084018265ffffffffffff169052565b5060c0810151612fcb60c084018261ffff169052565b5060e0810151612fe160e084018261ffff169052565b506101008181015164ffffffffff8116848301525b50505050565b63ffffffff815116825260ff602082015116602083015260ff604082015116604083015260608101516001600160401b03808216606085015260ff60808401511660808501528060a08401511660a0850152505060c081015161306460c084018260ff169052565b5060e081015161307f60e08401826001600160401b03169052565b505050565b65ffffffffffff815116825264ffffffffff602082015116602083015260408101516001600160401b038082166040850152806060840151166060850152505060ff608082015116608083015260a081015161ffff80821660a08501528060c08401511660c085015250505050565b6130fe828251612f3d565b6020810151613111610120840182612ffc565b50604081015161307f610220840182613084565b6103008101610e9382846130f3565b6020808252825182820181905260009190848201906040850190845b8181101561317657613163838551612ea9565b9284019260e09290920191600101613150565b50909695505050505050565b6020808252825182820181905260009190848201906040850190845b81811015613176576131b18385516130f3565b92840192610300929092019160010161319e565b6000806000606084860312156131da57600080fd5b505081359360208301359350604090920135919050565b6001600160a01b038116811461320657600080fd5b50565b60006020828403121561321b57600080fd5b8135611bdf816131f1565b6000806000806080858703121561323c57600080fd5b5050823594602084013594506040840135936060013592509050565b6020808252825182820181905260009190848201906040850190845b8181101561317657835183529284019291840191600101613274565b60808101610e93828465ffffffffffff815116825260208101516001600160401b03808216602085015280604084015116604085015280606084015116606085015250505050565b600080600080600060a086880312156132f057600080fd5b505083359560208501359550604085013594606081013594506080013592509050565b6101208101610e938284612f3d565b634e487b7160e01b600052604160045260246000fd5b60405161010081016001600160401b038111828210171561335b5761335b613322565b60405290565b60405160e081016001600160401b038111828210171561335b5761335b613322565b604051606081016001600160401b038111828210171561335b5761335b613322565b60405161012081016001600160401b038111828210171561335b5761335b613322565b604051601f8201601f191681016001600160401b03811182821017156133f0576133f0613322565b604052919050565b63ffffffff8116811461320657600080fd5b8035613415816133f8565b919050565b60ff8116811461320657600080fd5b80356134158161341a565b61ffff8116811461320657600080fd5b803561341581613434565b65ffffffffffff8116811461320657600080fd5b80356134158161344f565b64ffffffffff8116811461320657600080fd5b80356134158161346e565b6001600160401b038116811461320657600080fd5b80356134158161348c565b600061010082840312156134bf57600080fd5b6134c7613338565b905081356134d4816133f8565b815260208201356134e48161341a565b60208201526134f560408301613429565b6040820152613506606083016134a1565b606082015261351760808301613429565b608082015261352860a083016134a1565b60a082015261353960c08301613429565b60c082015261354a60e083016134a1565b60e082015292915050565b600060e0828403121561356757600080fd5b61356f613361565b9050813561357c8161344f565b8152602082013561358c8161346e565b6020820152604082013561359f8161348c565b604082015260608201356135b28161348c565b606082015260808201356135c58161341a565b608082015260a08201356135d881613434565b60a082015260c08201356135eb81613434565b60c082015292915050565b600081830361030081121561360a57600080fd5b613612613383565b6101208083121561362257600080fd5b61362a6133a5565b92506136358561340a565b835261364360208601613429565b602084015261365460408601613444565b60408401526136656060860161340a565b606084015261367660808601613463565b608084015261368760a08601613463565b60a084015261369860c08601613444565b60c08401526136a960e08601613444565b60e08401526101006136bc818701613481565b908401528282526136cf868683016134ac565b6020830152506136e3856102208601613555565b6040820152949350505050565b63ffffffff815116825261ffff6020820151166020830152604081015161371d604084018261ffff169052565b506060810151613737606084018265ffffffffffff169052565b506080810151613751608084018265ffffffffffff169052565b5060a081015161376760a084018261ffff169052565b5060c081015161378060c084018264ffffffffff169052565b5060e081015161379860e084018263ffffffff169052565b506101008181015160ff811684830152612ff6565b64ffffffffff8151168252602081015163ffffffff8082166020850152604083015191506001600160401b03808316604086015281606085015116606086015280608085015116608086015250505060ff60a08201511660a083015261ffff60c08201511660c08301525050565b60006102208201905061382f8284516136f0565b60208301516138426101208401826137ad565b50604083015161020083015292915050565b6020808252825182820181905260009190848201906040850190845b81811015613176576138bd83855165ffffffffffff815116825260208101516001600160401b03808216602085015280604084015116604085015280606084015116606085015250505050565b9284019260809290920191600101613870565b600080600080608085870312156138e657600080fd5b8435935060208501356138f8816131f1565b92506040850135613908816131f1565b91506060850135613918816131f1565b939692955090935050565b600060e0828403121561393557600080fd5b61393d613361565b9050813561394a8161346e565b8152602082013561395a816133f8565b6020820152604082013561396d8161348c565b60408201526060820135613980816133f8565b606082015260808201356139938161348c565b608082015260a08201356135d88161341a565b6000808284036102408112156139bb57600080fd5b83359250601f1901610220808212156139d357600080fd5b6139db613383565b610120808412156139eb57600080fd5b6139f36133a5565b9350613a016020880161340a565b8452613a0f60408801613444565b6020850152613a2060608801613444565b6040850152613a3160808801613463565b6060850152613a4260a08801613463565b6080850152613a5360c08801613444565b60a0850152613a6460e08801613481565b60c0850152610100613a7781890161340a565b60e0860152613a87828901613429565b9085015250828152613a9d876101408801613923565b6020820152940135604085015250909391925050565b80516134158161346e565b600060208284031215613ad057600080fd5b8151611bdf8161346e565b8051613415816133f8565b600060208284031215613af857600080fd5b8151611bdf816133f8565b600060208284031215613b1557600080fd5b81518015158114611bdf57600080fd5b60208082526026908201527f41432e6f6e6c794469726563744b65657065723a206e6f74206469726563742060408201526535b2b2b832b960d11b606082015260800190565b60006001600160401b03821115613b8457613b84613322565b5060051b60200190565b805161341581613434565b80516134158161348c565b80516134158161341a565b600060e08284031215613bc157600080fd5b613bc9613361565b90508151613bd681613434565b81526020820151613be6816133f8565b60208201526040820151613bf9816133f8565b60408201526060820151613c0c8161348c565b60608201526080820151613c1f8161348c565b608082015260a0820151613c328161346e565b60a082015260c08201516135eb8161341a565b60006020808385031215613c5857600080fd5b82516001600160401b03811115613c6e57600080fd5b8301601f81018513613c7f57600080fd5b8051613c92613c8d82613b6b565b6133c8565b81815260e09182028301840191848201919088841115613cb157600080fd5b938501935b83851015613cd757613cc88986613baf565b83529384019391850191613cb6565b50979650505050505050565b60208082526018908201527f424f4f2e6d662e4f453a204f7074206e6f742065786973740000000000000000604082015260600190565b80516134158161344f565b60006101208284031215613d3857600080fd5b613d406133a5565b9050613d4b82613adb565b8152613d5960208301613ba4565b6020820152613d6a60408301613b8e565b6040820152613d7b60608301613adb565b6060820152613d8c60808301613d1a565b6080820152613d9d60a08301613d1a565b60a0820152613dae60c08301613b8e565b60c0820152613dbf60e08301613b8e565b60e0820152610100613dd2818401613ab3565b9082015292915050565b600060e08284031215613dee57600080fd5b613df6613361565b90508151613e038161344f565b81526020820151613e138161346e565b60208201526040820151613e268161348c565b60408201526060820151613e398161348c565b60608201526080820151613e4c8161341a565b608082015260a0820151613e5f81613434565b60a082015260c08201516135eb81613434565b6000818303610300811215613e8657600080fd5b613e8e613383565b9150613e9a8484613d25565b825261010061011f1982011215613eb057600080fd5b50613eb9613338565b610120830151613ec8816133f8565b8152613ed76101408401613ba4565b6020820152613ee96101608401613ba4565b6040820152613efb6101808401613b99565b6060820152613f0d6101a08401613ba4565b6080820152613f1f6101c08401613b99565b60a0820152613f316101e08401613ba4565b60c0820152613f436102008401613b99565b60e08201526020820152613f5b836102208401613ddc565b604082015292915050565b60006020808385031215613f7957600080fd5b82516001600160401b03811115613f8f57600080fd5b8301601f81018513613fa057600080fd5b8051613fae613c8d82613b6b565b8181526103009182028301840191848201919088841115613fce57600080fd5b938501935b83851015613cd757613fe58986613e72565b83529384019391850191613fd3565b60208082526011908201527020a19737b59d103737ba1025b2b2b832b960791b604082015260600190565b6000610300828403121561403257600080fd5b611bdf8383613e72565b600061032082019050838252614056602083018451612f3d565b6020830151614069610140840182612ffc565b50604083015161407d610240840182613084565b509392505050565b6000610120828403121561409857600080fd5b611bdf8383613d25565b6000602082840312156140b457600080fd5b5051919050565b600060208083850312156140ce57600080fd5b82516001600160401b038111156140e457600080fd5b8301601f810185136140f557600080fd5b8051614103613c8d82613b6b565b81815260059190911b8201830190838101908783111561412257600080fd5b928401925b8284101561414057835182529284019290840190614127565b979650505050505050565b6000604082018483526020604081850152818551808452606086019150828701935060005b8181101561418c57845183529383019391830191600101614170565b5090979650505050505050565b600063ffffffff8216806141bd57634e487b7160e01b600052601160045260246000fd5b6000190192915050565b6000608082840312156141d957600080fd5b604051608081018181106001600160401b03821117156141fb576141fb613322565b8060405250809150825161420e8161344f565b8152602083015161421e8161348c565b602082015260408301516142318161348c565b604082015260608301516142448161348c565b6060919091015292915050565b60006080828403121561426357600080fd5b611bdf83836141c7565b600060e0828403121561427f57600080fd5b614287613361565b905081516142948161346e565b815260208201516142a4816133f8565b602082015260408201516142b78161348c565b604082015260608201516142ca816133f8565b606082015260808201516142dd8161348c565b608082015260a0820151613e5f8161341a565b600081830361022081121561430457600080fd5b61430c613383565b6101208083121561431c57600080fd5b6143246133a5565b925061432f85613adb565b835261433d60208601613b8e565b602084015261434e60408601613b8e565b604084015261435f60608601613d1a565b606084015261437060808601613d1a565b608084015261438160a08601613b8e565b60a084015261439260c08601613ab3565b60c08401526143a360e08601613adb565b60e08401526101006143b6818701613ba4565b908401528282526143c98686830161426d565b60208301525061020093909301516040840152509092915050565b600060208083850312156143f757600080fd5b82516001600160401b0381111561440d57600080fd5b8301601f8101851361441e57600080fd5b805161442c613c8d82613b6b565b81815260079190911b8201830190838101908783111561444b57600080fd5b928401925b828410156141405761446288856141c7565b82528482019150608084019350614450565b60006020828403121561448657600080fd5b8151611bdf816131f1565b6000610260820190508482528360208301526144b16040830184516136f0565b60208301516144c46101608401826137ad565b506040830151610240830152949350505050565b600060e082840312156144ea57600080fd5b611bdf8383613baf56fea264697066735822122061ae1f09a9bf478dde810b8a4b91b54ed04c719e5ec00cbd6048bb980b8946d064736f6c63430008080033",
    "sourcePath": "/Users/kaptain/github.com/hardhat/comboox/contracts/books/boo/BookOfOptions.sol",
    "compiler": {
        "name": "solc",
        "version": "0.8.8+commit.dddeac2f"
    },
    "functionHashes": {
        "abandonRole(bytes32)": "3da9a600",
        "addObligorIntoOption(uint256,uint256)": "a24132e8",
        "counterOfBriefs(uint256)": "39803c02",
        "counterOfOptions()": "1368f327",
        "createOption(uint256,uint256,uint256,uint256,uint256)": "b02f703c",
        "createSwapOrder(uint256,uint256,uint256,uint256)": "c4c5aefc",
        "execOption(uint256)": "6555ff7a",
        "finalized()": "b3f05b97",
        "getALLOraclesOfOption(uint256)": "c4e1f56e",
        "getAllBriefsOfOption(uint256)": "2bff28d9",
        "getAllOptions()": "4b4b0d37",
        "getBookeeper()": "ed211023",
        "getBrief(uint256,uint256)": "17e18de3",
        "getGeneralCounsel()": "103f6edd",
        "getObligorsOfOption(uint256)": "809bf77b",
        "getOption(uint256)": "1ce5e9a6",
        "getOracleAtDate(uint256,uint256)": "8b285421",
        "getOwner()": "893d20e8",
        "grantRole(bytes32,uint256)": "1b6ea9f9",
        "hasRole(bytes32,uint256)": "7e063c5a",
        "init(uint256,address,address,address)": "dc890da9",
        "isObligor(uint256,uint256)": "3bce3c30",
        "isOption(uint256)": "b3be456a",
        "isRightholder(uint256,uint256)": "f5bf221d",
        "issueOption(((uint32,uint8,uint16,uint32,uint48,uint48,uint16,uint16,uint40),(uint32,uint8,uint8,uint64,uint8,uint64,uint8,uint64),(uint48,uint40,uint64,uint64,uint8,uint16,uint16)))": "c0cddf40",
        "lockContents()": "f045a769",
        "regOptionTerms(address)": "6ca5cc5d",
        "regSwapOrder(uint256,((uint32,uint16,uint16,uint48,uint48,uint16,uint40,uint32,uint8),(uint40,uint32,uint64,uint32,uint64,uint8,uint16),bytes32))": "fd323a7a",
        "removeObligorFromOption(uint256,uint256)": "1d565c07",
        "renounceRole(bytes32)": "8bb9c5bf",
        "revokeRole(bytes32,uint256)": "19d61ad9",
        "setDirectKeeper(address)": "6be8496f",
        "setGeneralCounsel(uint256)": "4a14beb1",
        "setOwner(uint256)": "8041494e",
        "setRoleAdmin(bytes32,uint256)": "5171ebd4",
        "updateOracle(uint256,uint256,uint256,uint256)": "76f2736f",
        "updateStateOfBrief(uint256,uint256,uint256)": "5512c7ca"
    },
    "gasEstimates": {
        "creation": {
            "codeDepositCost": "3541200",
            "executionCost": "3974",
            "totalCost": "3545174"
        },
        "external": {
            "abandonRole(bytes32)": "infinite",
            "addObligorIntoOption(uint256,uint256)": "infinite",
            "counterOfBriefs(uint256)": "2656",
            "counterOfOptions()": "infinite",
            "createOption(uint256,uint256,uint256,uint256,uint256)": "infinite",
            "createSwapOrder(uint256,uint256,uint256,uint256)": "infinite",
            "execOption(uint256)": "infinite",
            "finalized()": "2394",
            "getALLOraclesOfOption(uint256)": "infinite",
            "getAllBriefsOfOption(uint256)": "infinite",
            "getAllOptions()": "infinite",
            "getBookeeper()": "infinite",
            "getBrief(uint256,uint256)": "3417",
            "getGeneralCounsel()": "infinite",
            "getObligorsOfOption(uint256)": "infinite",
            "getOption(uint256)": "infinite",
            "getOracleAtDate(uint256,uint256)": "infinite",
            "getOwner()": "infinite",
            "grantRole(bytes32,uint256)": "infinite",
            "hasRole(bytes32,uint256)": "infinite",
            "init(uint256,address,address,address)": "infinite",
            "isObligor(uint256,uint256)": "infinite",
            "isOption(uint256)": "2518",
            "isRightholder(uint256,uint256)": "2606",
            "issueOption(((uint32,uint8,uint16,uint32,uint48,uint48,uint16,uint16,uint40),(uint32,uint8,uint8,uint64,uint8,uint64,uint8,uint64),(uint48,uint40,uint64,uint64,uint8,uint16,uint16)))": "infinite",
            "lockContents()": "infinite",
            "regOptionTerms(address)": "infinite",
            "regSwapOrder(uint256,((uint32,uint16,uint16,uint48,uint48,uint16,uint40,uint32,uint8),(uint40,uint32,uint64,uint32,uint64,uint8,uint16),bytes32))": "infinite",
            "removeObligorFromOption(uint256,uint256)": "infinite",
            "renounceRole(bytes32)": "infinite",
            "revokeRole(bytes32,uint256)": "infinite",
            "setDirectKeeper(address)": "infinite",
            "setGeneralCounsel(uint256)": "infinite",
            "setOwner(uint256)": "infinite",
            "setRoleAdmin(bytes32,uint256)": "infinite",
            "updateOracle(uint256,uint256,uint256,uint256)": "infinite",
            "updateStateOfBrief(uint256,uint256,uint256)": "infinite"
        }
    }
}