{
    "contractName": "BookOfOptions",
    "abi": [
        {
            "anonymous": false,
            "inputs": [
                {
                    "indexed": true,
                    "internalType": "uint256",
                    "name": "seqOfOpt",
                    "type": "uint256"
                },
                {
                    "indexed": false,
                    "internalType": "uint256",
                    "name": "obligor",
                    "type": "uint256"
                }
            ],
            "name": "AddObligorIntoOpt",
            "type": "event"
        },
        {
            "anonymous": false,
            "inputs": [
                {
                    "indexed": true,
                    "internalType": "uint256",
                    "name": "seqOfOpt",
                    "type": "uint256"
                },
                {
                    "indexed": false,
                    "internalType": "uint256",
                    "name": "codeOfOpt",
                    "type": "uint256"
                }
            ],
            "name": "CreateOpt",
            "type": "event"
        },
        {
            "anonymous": false,
            "inputs": [
                {
                    "indexed": true,
                    "internalType": "uint256",
                    "name": "seqOfOpt",
                    "type": "uint256"
                }
            ],
            "name": "ExecOpt",
            "type": "event"
        },
        {
            "anonymous": false,
            "inputs": [
                {
                    "indexed": false,
                    "internalType": "uint256",
                    "name": "owner",
                    "type": "uint256"
                },
                {
                    "indexed": false,
                    "internalType": "address",
                    "name": "directKeeper",
                    "type": "address"
                },
                {
                    "indexed": false,
                    "internalType": "address",
                    "name": "regCenter",
                    "type": "address"
                },
                {
                    "indexed": false,
                    "internalType": "address",
                    "name": "generalKeeper",
                    "type": "address"
                }
            ],
            "name": "Init",
            "type": "event"
        },
        {
            "anonymous": false,
            "inputs": [],
            "name": "LockContents",
            "type": "event"
        },
        {
            "anonymous": false,
            "inputs": [
                {
                    "indexed": true,
                    "internalType": "uint256",
                    "name": "seqOfOpt",
                    "type": "uint256"
                },
                {
                    "indexed": false,
                    "internalType": "uint256",
                    "name": "codeOfBrf",
                    "type": "uint256"
                }
            ],
            "name": "RegSwapOrder",
            "type": "event"
        },
        {
            "anonymous": false,
            "inputs": [
                {
                    "indexed": true,
                    "internalType": "uint256",
                    "name": "seqOfOpt",
                    "type": "uint256"
                },
                {
                    "indexed": false,
                    "internalType": "uint256",
                    "name": "obligor",
                    "type": "uint256"
                }
            ],
            "name": "RemoveObligorFromOpt",
            "type": "event"
        },
        {
            "anonymous": false,
            "inputs": [
                {
                    "indexed": false,
                    "internalType": "address",
                    "name": "keeper",
                    "type": "address"
                }
            ],
            "name": "SetDirectKeeper",
            "type": "event"
        },
        {
            "anonymous": false,
            "inputs": [
                {
                    "indexed": false,
                    "internalType": "uint256",
                    "name": "acct",
                    "type": "uint256"
                }
            ],
            "name": "SetGeneralCounsel",
            "type": "event"
        },
        {
            "anonymous": false,
            "inputs": [
                {
                    "indexed": false,
                    "internalType": "address",
                    "name": "gk",
                    "type": "address"
                }
            ],
            "name": "SetGeneralKeeper",
            "type": "event"
        },
        {
            "anonymous": false,
            "inputs": [
                {
                    "indexed": false,
                    "internalType": "uint256",
                    "name": "acct",
                    "type": "uint256"
                }
            ],
            "name": "SetOwner",
            "type": "event"
        },
        {
            "anonymous": false,
            "inputs": [
                {
                    "indexed": false,
                    "internalType": "address",
                    "name": "rc",
                    "type": "address"
                }
            ],
            "name": "SetRegCenter",
            "type": "event"
        },
        {
            "anonymous": false,
            "inputs": [
                {
                    "indexed": true,
                    "internalType": "uint256",
                    "name": "seqOfOpt",
                    "type": "uint256"
                },
                {
                    "indexed": false,
                    "internalType": "uint64",
                    "name": "data1",
                    "type": "uint64"
                },
                {
                    "indexed": false,
                    "internalType": "uint64",
                    "name": "data2",
                    "type": "uint64"
                },
                {
                    "indexed": false,
                    "internalType": "uint64",
                    "name": "data3",
                    "type": "uint64"
                }
            ],
            "name": "UpdateOracle",
            "type": "event"
        },
        {
            "anonymous": false,
            "inputs": [
                {
                    "indexed": true,
                    "internalType": "uint256",
                    "name": "seqOfOpt",
                    "type": "uint256"
                },
                {
                    "indexed": false,
                    "internalType": "uint256",
                    "name": "seqOfBrf",
                    "type": "uint256"
                },
                {
                    "indexed": false,
                    "internalType": "uint8",
                    "name": "state",
                    "type": "uint8"
                }
            ],
            "name": "UpdateStateOfBrief",
            "type": "event"
        },
        {
            "inputs": [
                {
                    "internalType": "bytes32",
                    "name": "role",
                    "type": "bytes32"
                }
            ],
            "name": "abandonRole",
            "outputs": [],
            "stateMutability": "nonpayable",
            "type": "function"
        },
        {
            "inputs": [
                {
                    "internalType": "uint256",
                    "name": "seqOfOpt",
                    "type": "uint256"
                },
                {
                    "internalType": "uint256",
                    "name": "obligor",
                    "type": "uint256"
                }
            ],
            "name": "addObligorIntoOption",
            "outputs": [],
            "stateMutability": "nonpayable",
            "type": "function"
        },
        {
            "inputs": [
                {
                    "internalType": "uint256",
                    "name": "seqOfOpt",
                    "type": "uint256"
                }
            ],
            "name": "counterOfBriefs",
            "outputs": [
                {
                    "internalType": "uint256",
                    "name": "",
                    "type": "uint256"
                }
            ],
            "stateMutability": "view",
            "type": "function"
        },
        {
            "inputs": [],
            "name": "counterOfOptions",
            "outputs": [
                {
                    "internalType": "uint32",
                    "name": "",
                    "type": "uint32"
                }
            ],
            "stateMutability": "view",
            "type": "function"
        },
        {
            "inputs": [
                {
                    "internalType": "uint256",
                    "name": "sn",
                    "type": "uint256"
                },
                {
                    "internalType": "uint256",
                    "name": "snOfCond",
                    "type": "uint256"
                },
                {
                    "internalType": "uint40",
                    "name": "rightholder",
                    "type": "uint40"
                },
                {
                    "internalType": "uint64",
                    "name": "paid",
                    "type": "uint64"
                },
                {
                    "internalType": "uint64",
                    "name": "par",
                    "type": "uint64"
                }
            ],
            "name": "createOption",
            "outputs": [
                {
                    "components": [
                        {
                            "internalType": "uint32",
                            "name": "seqOfOpt",
                            "type": "uint32"
                        },
                        {
                            "internalType": "uint8",
                            "name": "typeOfOpt",
                            "type": "uint8"
                        },
                        {
                            "internalType": "uint16",
                            "name": "classOfShare",
                            "type": "uint16"
                        },
                        {
                            "internalType": "uint32",
                            "name": "rate",
                            "type": "uint32"
                        },
                        {
                            "internalType": "uint48",
                            "name": "issueDate",
                            "type": "uint48"
                        },
                        {
                            "internalType": "uint48",
                            "name": "triggerDate",
                            "type": "uint48"
                        },
                        {
                            "internalType": "uint16",
                            "name": "execDays",
                            "type": "uint16"
                        },
                        {
                            "internalType": "uint16",
                            "name": "closingDays",
                            "type": "uint16"
                        },
                        {
                            "internalType": "uint40",
                            "name": "obligor",
                            "type": "uint40"
                        }
                    ],
                    "internalType": "struct OptionsRepo.Head",
                    "name": "head",
                    "type": "tuple"
                }
            ],
            "stateMutability": "nonpayable",
            "type": "function"
        },
        {
            "inputs": [
                {
                    "internalType": "uint256",
                    "name": "seqOfOpt",
                    "type": "uint256"
                },
                {
                    "internalType": "uint32",
                    "name": "seqOfConsider",
                    "type": "uint32"
                },
                {
                    "internalType": "uint64",
                    "name": "paidOfConsider",
                    "type": "uint64"
                },
                {
                    "internalType": "uint32",
                    "name": "seqOfTarget",
                    "type": "uint32"
                }
            ],
            "name": "createSwapOrder",
            "outputs": [
                {
                    "components": [
                        {
                            "components": [
                                {
                                    "internalType": "uint32",
                                    "name": "seqOfSwap",
                                    "type": "uint32"
                                },
                                {
                                    "internalType": "uint16",
                                    "name": "classOfTarget",
                                    "type": "uint16"
                                },
                                {
                                    "internalType": "uint16",
                                    "name": "classOfConsider",
                                    "type": "uint16"
                                },
                                {
                                    "internalType": "uint48",
                                    "name": "createDate",
                                    "type": "uint48"
                                },
                                {
                                    "internalType": "uint48",
                                    "name": "triggerDate",
                                    "type": "uint48"
                                },
                                {
                                    "internalType": "uint16",
                                    "name": "closingDays",
                                    "type": "uint16"
                                },
                                {
                                    "internalType": "uint40",
                                    "name": "obligor",
                                    "type": "uint40"
                                },
                                {
                                    "internalType": "uint32",
                                    "name": "rateOfSwap",
                                    "type": "uint32"
                                }
                            ],
                            "internalType": "struct SwapsRepo.Head",
                            "name": "head",
                            "type": "tuple"
                        },
                        {
                            "components": [
                                {
                                    "internalType": "uint40",
                                    "name": "rightholder",
                                    "type": "uint40"
                                },
                                {
                                    "internalType": "uint32",
                                    "name": "seqOfConsider",
                                    "type": "uint32"
                                },
                                {
                                    "internalType": "uint64",
                                    "name": "paidOfConsider",
                                    "type": "uint64"
                                },
                                {
                                    "internalType": "uint32",
                                    "name": "seqOfTarget",
                                    "type": "uint32"
                                },
                                {
                                    "internalType": "uint64",
                                    "name": "paidOfTarget",
                                    "type": "uint64"
                                },
                                {
                                    "internalType": "uint8",
                                    "name": "state",
                                    "type": "uint8"
                                }
                            ],
                            "internalType": "struct SwapsRepo.Body",
                            "name": "body",
                            "type": "tuple"
                        },
                        {
                            "internalType": "bytes32",
                            "name": "hashLock",
                            "type": "bytes32"
                        }
                    ],
                    "internalType": "struct SwapsRepo.Swap",
                    "name": "swap",
                    "type": "tuple"
                }
            ],
            "stateMutability": "view",
            "type": "function"
        },
        {
            "inputs": [
                {
                    "internalType": "uint256",
                    "name": "seqOfOpt",
                    "type": "uint256"
                }
            ],
            "name": "execOption",
            "outputs": [],
            "stateMutability": "nonpayable",
            "type": "function"
        },
        {
            "inputs": [],
            "name": "finalized",
            "outputs": [
                {
                    "internalType": "bool",
                    "name": "",
                    "type": "bool"
                }
            ],
            "stateMutability": "view",
            "type": "function"
        },
        {
            "inputs": [
                {
                    "internalType": "uint256",
                    "name": "seqOfOpt",
                    "type": "uint256"
                }
            ],
            "name": "getALLOraclesOfOption",
            "outputs": [
                {
                    "components": [
                        {
                            "internalType": "uint48",
                            "name": "timestamp",
                            "type": "uint48"
                        },
                        {
                            "internalType": "uint64",
                            "name": "paid",
                            "type": "uint64"
                        },
                        {
                            "internalType": "uint64",
                            "name": "par",
                            "type": "uint64"
                        },
                        {
                            "internalType": "uint64",
                            "name": "cleanPaid",
                            "type": "uint64"
                        }
                    ],
                    "internalType": "struct Checkpoints.Checkpoint[]",
                    "name": "",
                    "type": "tuple[]"
                }
            ],
            "stateMutability": "view",
            "type": "function"
        },
        {
            "inputs": [
                {
                    "internalType": "uint256",
                    "name": "seqOfOpt",
                    "type": "uint256"
                }
            ],
            "name": "getAllBriefsOfOption",
            "outputs": [
                {
                    "components": [
                        {
                            "internalType": "uint16",
                            "name": "seqOfBrf",
                            "type": "uint16"
                        },
                        {
                            "internalType": "uint32",
                            "name": "seqOfSwap",
                            "type": "uint32"
                        },
                        {
                            "internalType": "uint32",
                            "name": "rateOfSwap",
                            "type": "uint32"
                        },
                        {
                            "internalType": "uint64",
                            "name": "paidOfConsider",
                            "type": "uint64"
                        },
                        {
                            "internalType": "uint64",
                            "name": "paidOfTarget",
                            "type": "uint64"
                        },
                        {
                            "internalType": "uint40",
                            "name": "obligor",
                            "type": "uint40"
                        },
                        {
                            "internalType": "uint8",
                            "name": "state",
                            "type": "uint8"
                        }
                    ],
                    "internalType": "struct OptionsRepo.Brief[]",
                    "name": "",
                    "type": "tuple[]"
                }
            ],
            "stateMutability": "view",
            "type": "function"
        },
        {
            "inputs": [],
            "name": "getAllOptions",
            "outputs": [
                {
                    "components": [
                        {
                            "components": [
                                {
                                    "internalType": "uint32",
                                    "name": "seqOfOpt",
                                    "type": "uint32"
                                },
                                {
                                    "internalType": "uint8",
                                    "name": "typeOfOpt",
                                    "type": "uint8"
                                },
                                {
                                    "internalType": "uint16",
                                    "name": "classOfShare",
                                    "type": "uint16"
                                },
                                {
                                    "internalType": "uint32",
                                    "name": "rate",
                                    "type": "uint32"
                                },
                                {
                                    "internalType": "uint48",
                                    "name": "issueDate",
                                    "type": "uint48"
                                },
                                {
                                    "internalType": "uint48",
                                    "name": "triggerDate",
                                    "type": "uint48"
                                },
                                {
                                    "internalType": "uint16",
                                    "name": "execDays",
                                    "type": "uint16"
                                },
                                {
                                    "internalType": "uint16",
                                    "name": "closingDays",
                                    "type": "uint16"
                                },
                                {
                                    "internalType": "uint40",
                                    "name": "obligor",
                                    "type": "uint40"
                                }
                            ],
                            "internalType": "struct OptionsRepo.Head",
                            "name": "head",
                            "type": "tuple"
                        },
                        {
                            "components": [
                                {
                                    "internalType": "uint32",
                                    "name": "seq",
                                    "type": "uint32"
                                },
                                {
                                    "internalType": "uint8",
                                    "name": "logicOpr",
                                    "type": "uint8"
                                },
                                {
                                    "internalType": "uint8",
                                    "name": "compOpr1",
                                    "type": "uint8"
                                },
                                {
                                    "internalType": "uint64",
                                    "name": "para1",
                                    "type": "uint64"
                                },
                                {
                                    "internalType": "uint8",
                                    "name": "compOpr2",
                                    "type": "uint8"
                                },
                                {
                                    "internalType": "uint64",
                                    "name": "para2",
                                    "type": "uint64"
                                },
                                {
                                    "internalType": "uint8",
                                    "name": "compOpr3",
                                    "type": "uint8"
                                },
                                {
                                    "internalType": "uint64",
                                    "name": "para3",
                                    "type": "uint64"
                                }
                            ],
                            "internalType": "struct CondsRepo.Cond",
                            "name": "cond",
                            "type": "tuple"
                        },
                        {
                            "components": [
                                {
                                    "internalType": "uint48",
                                    "name": "closingDate",
                                    "type": "uint48"
                                },
                                {
                                    "internalType": "uint40",
                                    "name": "rightholder",
                                    "type": "uint40"
                                },
                                {
                                    "internalType": "uint64",
                                    "name": "paid",
                                    "type": "uint64"
                                },
                                {
                                    "internalType": "uint64",
                                    "name": "par",
                                    "type": "uint64"
                                },
                                {
                                    "internalType": "uint8",
                                    "name": "state",
                                    "type": "uint8"
                                }
                            ],
                            "internalType": "struct OptionsRepo.Body",
                            "name": "body",
                            "type": "tuple"
                        }
                    ],
                    "internalType": "struct OptionsRepo.Option[]",
                    "name": "",
                    "type": "tuple[]"
                }
            ],
            "stateMutability": "view",
            "type": "function"
        },
        {
            "inputs": [],
            "name": "getBookeeper",
            "outputs": [
                {
                    "internalType": "address",
                    "name": "",
                    "type": "address"
                }
            ],
            "stateMutability": "view",
            "type": "function"
        },
        {
            "inputs": [
                {
                    "internalType": "uint256",
                    "name": "seqOfOpt",
                    "type": "uint256"
                },
                {
                    "internalType": "uint256",
                    "name": "seqOfBrf",
                    "type": "uint256"
                }
            ],
            "name": "getBrief",
            "outputs": [
                {
                    "components": [
                        {
                            "internalType": "uint16",
                            "name": "seqOfBrf",
                            "type": "uint16"
                        },
                        {
                            "internalType": "uint32",
                            "name": "seqOfSwap",
                            "type": "uint32"
                        },
                        {
                            "internalType": "uint32",
                            "name": "rateOfSwap",
                            "type": "uint32"
                        },
                        {
                            "internalType": "uint64",
                            "name": "paidOfConsider",
                            "type": "uint64"
                        },
                        {
                            "internalType": "uint64",
                            "name": "paidOfTarget",
                            "type": "uint64"
                        },
                        {
                            "internalType": "uint40",
                            "name": "obligor",
                            "type": "uint40"
                        },
                        {
                            "internalType": "uint8",
                            "name": "state",
                            "type": "uint8"
                        }
                    ],
                    "internalType": "struct OptionsRepo.Brief",
                    "name": "brf",
                    "type": "tuple"
                }
            ],
            "stateMutability": "view",
            "type": "function"
        },
        {
            "inputs": [],
            "name": "getGeneralCounsel",
            "outputs": [
                {
                    "internalType": "uint40",
                    "name": "",
                    "type": "uint40"
                }
            ],
            "stateMutability": "view",
            "type": "function"
        },
        {
            "inputs": [
                {
                    "internalType": "uint256",
                    "name": "seqOfOpt",
                    "type": "uint256"
                }
            ],
            "name": "getObligorsOfOption",
            "outputs": [
                {
                    "internalType": "uint256[]",
                    "name": "",
                    "type": "uint256[]"
                }
            ],
            "stateMutability": "view",
            "type": "function"
        },
        {
            "inputs": [
                {
                    "internalType": "uint256",
                    "name": "seqOfOpt",
                    "type": "uint256"
                }
            ],
            "name": "getOption",
            "outputs": [
                {
                    "components": [
                        {
                            "components": [
                                {
                                    "internalType": "uint32",
                                    "name": "seqOfOpt",
                                    "type": "uint32"
                                },
                                {
                                    "internalType": "uint8",
                                    "name": "typeOfOpt",
                                    "type": "uint8"
                                },
                                {
                                    "internalType": "uint16",
                                    "name": "classOfShare",
                                    "type": "uint16"
                                },
                                {
                                    "internalType": "uint32",
                                    "name": "rate",
                                    "type": "uint32"
                                },
                                {
                                    "internalType": "uint48",
                                    "name": "issueDate",
                                    "type": "uint48"
                                },
                                {
                                    "internalType": "uint48",
                                    "name": "triggerDate",
                                    "type": "uint48"
                                },
                                {
                                    "internalType": "uint16",
                                    "name": "execDays",
                                    "type": "uint16"
                                },
                                {
                                    "internalType": "uint16",
                                    "name": "closingDays",
                                    "type": "uint16"
                                },
                                {
                                    "internalType": "uint40",
                                    "name": "obligor",
                                    "type": "uint40"
                                }
                            ],
                            "internalType": "struct OptionsRepo.Head",
                            "name": "head",
                            "type": "tuple"
                        },
                        {
                            "components": [
                                {
                                    "internalType": "uint32",
                                    "name": "seq",
                                    "type": "uint32"
                                },
                                {
                                    "internalType": "uint8",
                                    "name": "logicOpr",
                                    "type": "uint8"
                                },
                                {
                                    "internalType": "uint8",
                                    "name": "compOpr1",
                                    "type": "uint8"
                                },
                                {
                                    "internalType": "uint64",
                                    "name": "para1",
                                    "type": "uint64"
                                },
                                {
                                    "internalType": "uint8",
                                    "name": "compOpr2",
                                    "type": "uint8"
                                },
                                {
                                    "internalType": "uint64",
                                    "name": "para2",
                                    "type": "uint64"
                                },
                                {
                                    "internalType": "uint8",
                                    "name": "compOpr3",
                                    "type": "uint8"
                                },
                                {
                                    "internalType": "uint64",
                                    "name": "para3",
                                    "type": "uint64"
                                }
                            ],
                            "internalType": "struct CondsRepo.Cond",
                            "name": "cond",
                            "type": "tuple"
                        },
                        {
                            "components": [
                                {
                                    "internalType": "uint48",
                                    "name": "closingDate",
                                    "type": "uint48"
                                },
                                {
                                    "internalType": "uint40",
                                    "name": "rightholder",
                                    "type": "uint40"
                                },
                                {
                                    "internalType": "uint64",
                                    "name": "paid",
                                    "type": "uint64"
                                },
                                {
                                    "internalType": "uint64",
                                    "name": "par",
                                    "type": "uint64"
                                },
                                {
                                    "internalType": "uint8",
                                    "name": "state",
                                    "type": "uint8"
                                }
                            ],
                            "internalType": "struct OptionsRepo.Body",
                            "name": "body",
                            "type": "tuple"
                        }
                    ],
                    "internalType": "struct OptionsRepo.Option",
                    "name": "opt",
                    "type": "tuple"
                }
            ],
            "stateMutability": "view",
            "type": "function"
        },
        {
            "inputs": [
                {
                    "internalType": "uint256",
                    "name": "seqOfOpt",
                    "type": "uint256"
                },
                {
                    "internalType": "uint48",
                    "name": "date",
                    "type": "uint48"
                }
            ],
            "name": "getOracleAtDate",
            "outputs": [
                {
                    "components": [
                        {
                            "internalType": "uint48",
                            "name": "timestamp",
                            "type": "uint48"
                        },
                        {
                            "internalType": "uint64",
                            "name": "paid",
                            "type": "uint64"
                        },
                        {
                            "internalType": "uint64",
                            "name": "par",
                            "type": "uint64"
                        },
                        {
                            "internalType": "uint64",
                            "name": "cleanPaid",
                            "type": "uint64"
                        }
                    ],
                    "internalType": "struct Checkpoints.Checkpoint",
                    "name": "",
                    "type": "tuple"
                }
            ],
            "stateMutability": "view",
            "type": "function"
        },
        {
            "inputs": [],
            "name": "getOwner",
            "outputs": [
                {
                    "internalType": "uint40",
                    "name": "",
                    "type": "uint40"
                }
            ],
            "stateMutability": "view",
            "type": "function"
        },
        {
            "inputs": [
                {
                    "internalType": "bytes32",
                    "name": "role",
                    "type": "bytes32"
                },
                {
                    "internalType": "uint256",
                    "name": "acct",
                    "type": "uint256"
                }
            ],
            "name": "grantRole",
            "outputs": [],
            "stateMutability": "nonpayable",
            "type": "function"
        },
        {
            "inputs": [
                {
                    "internalType": "bytes32",
                    "name": "role",
                    "type": "bytes32"
                },
                {
                    "internalType": "uint256",
                    "name": "acct",
                    "type": "uint256"
                }
            ],
            "name": "hasRole",
            "outputs": [
                {
                    "internalType": "bool",
                    "name": "",
                    "type": "bool"
                }
            ],
            "stateMutability": "view",
            "type": "function"
        },
        {
            "inputs": [
                {
                    "internalType": "uint256",
                    "name": "owner",
                    "type": "uint256"
                },
                {
                    "internalType": "address",
                    "name": "directKeeper",
                    "type": "address"
                },
                {
                    "internalType": "address",
                    "name": "regCenter",
                    "type": "address"
                },
                {
                    "internalType": "address",
                    "name": "generalKeeper",
                    "type": "address"
                }
            ],
            "name": "init",
            "outputs": [],
            "stateMutability": "nonpayable",
            "type": "function"
        },
        {
            "inputs": [
                {
                    "internalType": "uint256",
                    "name": "seqOfOpt",
                    "type": "uint256"
                },
                {
                    "internalType": "uint256",
                    "name": "acct",
                    "type": "uint256"
                }
            ],
            "name": "isObligor",
            "outputs": [
                {
                    "internalType": "bool",
                    "name": "",
                    "type": "bool"
                }
            ],
            "stateMutability": "view",
            "type": "function"
        },
        {
            "inputs": [
                {
                    "internalType": "uint256",
                    "name": "seqOfOpt",
                    "type": "uint256"
                }
            ],
            "name": "isOption",
            "outputs": [
                {
                    "internalType": "bool",
                    "name": "",
                    "type": "bool"
                }
            ],
            "stateMutability": "view",
            "type": "function"
        },
        {
            "inputs": [
                {
                    "internalType": "uint256",
                    "name": "seqOfOpt",
                    "type": "uint256"
                },
                {
                    "internalType": "uint256",
                    "name": "acct",
                    "type": "uint256"
                }
            ],
            "name": "isRightholder",
            "outputs": [
                {
                    "internalType": "bool",
                    "name": "",
                    "type": "bool"
                }
            ],
            "stateMutability": "view",
            "type": "function"
        },
        {
            "inputs": [
                {
                    "components": [
                        {
                            "components": [
                                {
                                    "internalType": "uint32",
                                    "name": "seqOfOpt",
                                    "type": "uint32"
                                },
                                {
                                    "internalType": "uint8",
                                    "name": "typeOfOpt",
                                    "type": "uint8"
                                },
                                {
                                    "internalType": "uint16",
                                    "name": "classOfShare",
                                    "type": "uint16"
                                },
                                {
                                    "internalType": "uint32",
                                    "name": "rate",
                                    "type": "uint32"
                                },
                                {
                                    "internalType": "uint48",
                                    "name": "issueDate",
                                    "type": "uint48"
                                },
                                {
                                    "internalType": "uint48",
                                    "name": "triggerDate",
                                    "type": "uint48"
                                },
                                {
                                    "internalType": "uint16",
                                    "name": "execDays",
                                    "type": "uint16"
                                },
                                {
                                    "internalType": "uint16",
                                    "name": "closingDays",
                                    "type": "uint16"
                                },
                                {
                                    "internalType": "uint40",
                                    "name": "obligor",
                                    "type": "uint40"
                                }
                            ],
                            "internalType": "struct OptionsRepo.Head",
                            "name": "head",
                            "type": "tuple"
                        },
                        {
                            "components": [
                                {
                                    "internalType": "uint32",
                                    "name": "seq",
                                    "type": "uint32"
                                },
                                {
                                    "internalType": "uint8",
                                    "name": "logicOpr",
                                    "type": "uint8"
                                },
                                {
                                    "internalType": "uint8",
                                    "name": "compOpr1",
                                    "type": "uint8"
                                },
                                {
                                    "internalType": "uint64",
                                    "name": "para1",
                                    "type": "uint64"
                                },
                                {
                                    "internalType": "uint8",
                                    "name": "compOpr2",
                                    "type": "uint8"
                                },
                                {
                                    "internalType": "uint64",
                                    "name": "para2",
                                    "type": "uint64"
                                },
                                {
                                    "internalType": "uint8",
                                    "name": "compOpr3",
                                    "type": "uint8"
                                },
                                {
                                    "internalType": "uint64",
                                    "name": "para3",
                                    "type": "uint64"
                                }
                            ],
                            "internalType": "struct CondsRepo.Cond",
                            "name": "cond",
                            "type": "tuple"
                        },
                        {
                            "components": [
                                {
                                    "internalType": "uint48",
                                    "name": "closingDate",
                                    "type": "uint48"
                                },
                                {
                                    "internalType": "uint40",
                                    "name": "rightholder",
                                    "type": "uint40"
                                },
                                {
                                    "internalType": "uint64",
                                    "name": "paid",
                                    "type": "uint64"
                                },
                                {
                                    "internalType": "uint64",
                                    "name": "par",
                                    "type": "uint64"
                                },
                                {
                                    "internalType": "uint8",
                                    "name": "state",
                                    "type": "uint8"
                                }
                            ],
                            "internalType": "struct OptionsRepo.Body",
                            "name": "body",
                            "type": "tuple"
                        }
                    ],
                    "internalType": "struct OptionsRepo.Option",
                    "name": "opt",
                    "type": "tuple"
                }
            ],
            "name": "issueOption",
            "outputs": [
                {
                    "components": [
                        {
                            "internalType": "uint32",
                            "name": "seqOfOpt",
                            "type": "uint32"
                        },
                        {
                            "internalType": "uint8",
                            "name": "typeOfOpt",
                            "type": "uint8"
                        },
                        {
                            "internalType": "uint16",
                            "name": "classOfShare",
                            "type": "uint16"
                        },
                        {
                            "internalType": "uint32",
                            "name": "rate",
                            "type": "uint32"
                        },
                        {
                            "internalType": "uint48",
                            "name": "issueDate",
                            "type": "uint48"
                        },
                        {
                            "internalType": "uint48",
                            "name": "triggerDate",
                            "type": "uint48"
                        },
                        {
                            "internalType": "uint16",
                            "name": "execDays",
                            "type": "uint16"
                        },
                        {
                            "internalType": "uint16",
                            "name": "closingDays",
                            "type": "uint16"
                        },
                        {
                            "internalType": "uint40",
                            "name": "obligor",
                            "type": "uint40"
                        }
                    ],
                    "internalType": "struct OptionsRepo.Head",
                    "name": "head",
                    "type": "tuple"
                }
            ],
            "stateMutability": "nonpayable",
            "type": "function"
        },
        {
            "inputs": [],
            "name": "lockContents",
            "outputs": [],
            "stateMutability": "nonpayable",
            "type": "function"
        },
        {
            "inputs": [
                {
                    "internalType": "address",
                    "name": "opts",
                    "type": "address"
                }
            ],
            "name": "regOptionTerms",
            "outputs": [],
            "stateMutability": "nonpayable",
            "type": "function"
        },
        {
            "inputs": [
                {
                    "internalType": "uint256",
                    "name": "seqOfOpt",
                    "type": "uint256"
                },
                {
                    "components": [
                        {
                            "components": [
                                {
                                    "internalType": "uint32",
                                    "name": "seqOfSwap",
                                    "type": "uint32"
                                },
                                {
                                    "internalType": "uint16",
                                    "name": "classOfTarget",
                                    "type": "uint16"
                                },
                                {
                                    "internalType": "uint16",
                                    "name": "classOfConsider",
                                    "type": "uint16"
                                },
                                {
                                    "internalType": "uint48",
                                    "name": "createDate",
                                    "type": "uint48"
                                },
                                {
                                    "internalType": "uint48",
                                    "name": "triggerDate",
                                    "type": "uint48"
                                },
                                {
                                    "internalType": "uint16",
                                    "name": "closingDays",
                                    "type": "uint16"
                                },
                                {
                                    "internalType": "uint40",
                                    "name": "obligor",
                                    "type": "uint40"
                                },
                                {
                                    "internalType": "uint32",
                                    "name": "rateOfSwap",
                                    "type": "uint32"
                                }
                            ],
                            "internalType": "struct SwapsRepo.Head",
                            "name": "head",
                            "type": "tuple"
                        },
                        {
                            "components": [
                                {
                                    "internalType": "uint40",
                                    "name": "rightholder",
                                    "type": "uint40"
                                },
                                {
                                    "internalType": "uint32",
                                    "name": "seqOfConsider",
                                    "type": "uint32"
                                },
                                {
                                    "internalType": "uint64",
                                    "name": "paidOfConsider",
                                    "type": "uint64"
                                },
                                {
                                    "internalType": "uint32",
                                    "name": "seqOfTarget",
                                    "type": "uint32"
                                },
                                {
                                    "internalType": "uint64",
                                    "name": "paidOfTarget",
                                    "type": "uint64"
                                },
                                {
                                    "internalType": "uint8",
                                    "name": "state",
                                    "type": "uint8"
                                }
                            ],
                            "internalType": "struct SwapsRepo.Body",
                            "name": "body",
                            "type": "tuple"
                        },
                        {
                            "internalType": "bytes32",
                            "name": "hashLock",
                            "type": "bytes32"
                        }
                    ],
                    "internalType": "struct SwapsRepo.Swap",
                    "name": "swap",
                    "type": "tuple"
                }
            ],
            "name": "regSwapOrder",
            "outputs": [],
            "stateMutability": "nonpayable",
            "type": "function"
        },
        {
            "inputs": [
                {
                    "internalType": "uint256",
                    "name": "seqOfOpt",
                    "type": "uint256"
                },
                {
                    "internalType": "uint256",
                    "name": "obligor",
                    "type": "uint256"
                }
            ],
            "name": "removeObligorFromOption",
            "outputs": [],
            "stateMutability": "nonpayable",
            "type": "function"
        },
        {
            "inputs": [
                {
                    "internalType": "bytes32",
                    "name": "role",
                    "type": "bytes32"
                }
            ],
            "name": "renounceRole",
            "outputs": [],
            "stateMutability": "nonpayable",
            "type": "function"
        },
        {
            "inputs": [
                {
                    "internalType": "bytes32",
                    "name": "role",
                    "type": "bytes32"
                },
                {
                    "internalType": "uint256",
                    "name": "acct",
                    "type": "uint256"
                }
            ],
            "name": "revokeRole",
            "outputs": [],
            "stateMutability": "nonpayable",
            "type": "function"
        },
        {
            "inputs": [
                {
                    "internalType": "address",
                    "name": "keeper",
                    "type": "address"
                }
            ],
            "name": "setDirectKeeper",
            "outputs": [],
            "stateMutability": "nonpayable",
            "type": "function"
        },
        {
            "inputs": [
                {
                    "internalType": "uint256",
                    "name": "acct",
                    "type": "uint256"
                }
            ],
            "name": "setGeneralCounsel",
            "outputs": [],
            "stateMutability": "nonpayable",
            "type": "function"
        },
        {
            "inputs": [
                {
                    "internalType": "uint256",
                    "name": "acct",
                    "type": "uint256"
                }
            ],
            "name": "setOwner",
            "outputs": [],
            "stateMutability": "nonpayable",
            "type": "function"
        },
        {
            "inputs": [
                {
                    "internalType": "bytes32",
                    "name": "role",
                    "type": "bytes32"
                },
                {
                    "internalType": "uint256",
                    "name": "acct",
                    "type": "uint256"
                }
            ],
            "name": "setRoleAdmin",
            "outputs": [],
            "stateMutability": "nonpayable",
            "type": "function"
        },
        {
            "inputs": [
                {
                    "internalType": "uint256",
                    "name": "seqOfOpt",
                    "type": "uint256"
                },
                {
                    "internalType": "uint64",
                    "name": "d1",
                    "type": "uint64"
                },
                {
                    "internalType": "uint64",
                    "name": "d2",
                    "type": "uint64"
                },
                {
                    "internalType": "uint64",
                    "name": "d3",
                    "type": "uint64"
                }
            ],
            "name": "updateOracle",
            "outputs": [],
            "stateMutability": "nonpayable",
            "type": "function"
        },
        {
            "inputs": [
                {
                    "internalType": "uint256",
                    "name": "seqOfOpt",
                    "type": "uint256"
                },
                {
                    "internalType": "uint256",
                    "name": "seqOfBrf",
                    "type": "uint256"
                },
                {
                    "internalType": "uint8",
                    "name": "state",
                    "type": "uint8"
                }
            ],
            "name": "updateStateOfBrief",
            "outputs": [],
            "stateMutability": "nonpayable",
            "type": "function"
        }
    ],
    "bytecode": "608060405234801561001057600080fd5b506147d5806100206000396000f3fe608060405234801561001057600080fd5b50600436106102275760003560e01c80636555ff7a11610130578063a24132e8116100b8578063c5d764321161007c578063c5d764321461063b578063dc890da91461064e578063ed21102314610661578063f045a76914610681578063f5bf221d1461068957600080fd5b8063a24132e8146105a3578063b3be456a146105b6578063b3f05b97146105e7578063bdc6bb76146105fb578063c4e1f56e1461061b57600080fd5b80638041494e116100ff5780638041494e14610542578063809bf77b1461055557806388e332db14610575578063893d20e8146105885780638bb9c5bf1461059057600080fd5b80636555ff7a146104f65780636be8496f146105095780636ca5cc5d1461051c5780637e063c5a1461052f57600080fd5b80632bff28d9116101b357806341ec8c4a1161018257806341ec8c4a1461047b5780634747bb8a1461049b5780634a14beb1146104bb5780634b4b0d37146104ce5780635171ebd4146104e357600080fd5b80632bff28d9146103e557806339803c02146104055780633bce3c30146104455780633da9a6001461046857600080fd5b80631b6ea9f9116101fa5780631b6ea9f9146103795780631ce5e9a61461038c5780631d565c07146103ac5780631f223a5c146103bf5780632b6c0ce1146103d257600080fd5b8063103f6edd1461022c5780631368f3271461024f57806317e18de31461026c57806319d61ad914610364575b600080fd5b6102346106bf565b60405164ffffffffff90911681526020015b60405180910390f35b61025761074b565b60405163ffffffff9091168152602001610246565b61035761027a36600461309f565b6040805160e081018252600080825260208201819052918101829052606081018290526080810182905260a0810182905260c08101919091525060009182526005602090815260408084209284526002909201815291819020815160e081018352905461ffff8116825262010000810463ffffffff908116948301949094526601000000000000810490931691810191909152600160501b82046001600160401b039081166060830152600160901b8304166080820152600160d01b820464ffffffffff1660a0820152600160f81b90910460ff1660c082015290565b604051610246919061312e565b61037761037236600461309f565b6107d0565b005b61037761038736600461309f565b610864565b61039f61039a36600461313c565b610889565b6040516102469190613318565b6103776103ba36600461309f565b610c38565b6103776103cd366004613349565b610dc4565b6103776103e03660046133a2565b610ed2565b6103f86103f336600461313c565b61105f565b60405161024691906133f5565b61043761041336600461313c565b600090815260056020908152604080832083805260020190915290205461ffff1690565b604051908152602001610246565b61045861045336600461309f565b6110f5565b6040519015158152602001610246565b61037761047636600461313c565b6111d3565b61048e610489366004613461565b6112e6565b60405161024691906134c0565b6104ae6104a93660046134ee565b611509565b604051610246919061351e565b6103776104c936600461313c565b61160c565b6104d66117fc565b6040516102469190613566565b6103776104f136600461309f565b611885565b61037761050436600461313c565b6118aa565b6103776105173660046135be565b6119aa565b61037761052a3660046135be565b611a5c565b61045861053d36600461309f565b611e64565b61037761055036600461313c565b611eff565b61056861056336600461313c565b6120e4565b60405161024691906135db565b61048e610583366004613867565b612183565b610234612377565b61037761059e36600461313c565b6123b2565b6103776105b136600461309f565b61240b565b6104586105c436600461313c565b600090815260046020526040902054600160581b900465ffffffffffff16151590565b60028054600160f01b900460ff1614610458565b61060e610609366004613961565b612581565b6040516102469190613a90565b61062e61062936600461313c565b612775565b6040516102469190613ac9565b610377610649366004613bd3565b61284d565b61037761065c366004613cd0565b612a2b565b610669612b0e565b6040516001600160a01b039091168152602001610246565b610377612b94565b61045861069736600461309f565b600091825260046020526040909120600201546601000000000000900464ffffffffff161490565b60405163e8c0cc1d60e01b81526002600482015260009073__$364aad554dc80380f414546becdd2c1584$__9063e8c0cc1d906024015b60206040518083038186803b15801561070e57600080fd5b505af4158015610722573d6000803e3d6000fd5b505050506040513d601f19601f820116820180604052508101906107469190613d23565b905090565b6040516316cfb4dd60e21b815260048082015260009073__$bd0f380ab135f83a7568cac3e5fc41e1e4$__90635b3ed3749060240160206040518083038186803b15801561079857600080fd5b505af41580156107ac573d6000803e3d6000fd5b505050506040513d601f19601f820116820180604052508101906107469190613d4b565b73__$364aad554dc80380f414546becdd2c1584$__6382daafaa6002846107f5612db2565b6040516001600160e01b031960e086901b1681526004810193909352602483019190915264ffffffffff166044820152606481018490526084015b60006040518083038186803b15801561084857600080fd5b505af415801561085c573d6000803e3d6000fd5b505050505050565b73__$364aad554dc80380f414546becdd2c1584$__636320d75e6002846107f5612db2565b610891612fcb565b6004600001600083815260200190815260200160002060405180606001604052908160008201604051806101200160405290816000820160009054906101000a900463ffffffff1663ffffffff1663ffffffff1681526020016000820160049054906101000a900460ff1660ff1660ff1681526020016000820160059054906101000a900461ffff1661ffff1661ffff1681526020016000820160079054906101000a900463ffffffff1663ffffffff1663ffffffff16815260200160008201600b9054906101000a900465ffffffffffff1665ffffffffffff1665ffffffffffff1681526020016000820160119054906101000a900465ffffffffffff1665ffffffffffff1665ffffffffffff1681526020016000820160179054906101000a900461ffff1661ffff1661ffff1681526020016000820160199054906101000a900461ffff1661ffff1661ffff16815260200160008201601b9054906101000a900464ffffffffff1664ffffffffff1664ffffffffff1681525050815260200160018201604051806101000160405290816000820160009054906101000a900463ffffffff1663ffffffff1663ffffffff1681526020016000820160049054906101000a900460ff1660ff1660ff1681526020016000820160059054906101000a900460ff1660ff1660ff1681526020016000820160069054906101000a90046001600160401b03166001600160401b03166001600160401b0316815260200160008201600e9054906101000a900460ff1660ff1660ff16815260200160008201600f9054906101000a90046001600160401b03166001600160401b03166001600160401b031681526020016000820160179054906101000a900460ff1660ff1660ff1681526020016000820160189054906101000a90046001600160401b03166001600160401b03166001600160401b0316815250508152602001600282016040518060a00160405290816000820160009054906101000a900465ffffffffffff1665ffffffffffff1665ffffffffffff1681526020016000820160069054906101000a900464ffffffffff1664ffffffffff1664ffffffffff16815260200160008201600b9054906101000a90046001600160401b03166001600160401b03166001600160401b031681526020016000820160139054906101000a90046001600160401b03166001600160401b03166001600160401b0316815260200160008201601b9054906101000a900460ff1660ff1660ff1681525050815250509050919050565b604051633b11adbf60e21b81526002600482015233602482015273__$364aad554dc80380f414546becdd2c1584$__9063ec46b6fc9060440160206040518083038186803b158015610c8957600080fd5b505af4158015610c9d573d6000803e3d6000fd5b505050506040513d601f19601f82011682018060405250810190610cc19190613d68565b610ce65760405162461bcd60e51b8152600401610cdd90613d8a565b60405180910390fd5b6000828152600560205260409081902090516392fd02df60e01b815260048101919091526024810182905273__$8c1a4844a0a0988ea2454cf87145a95df1$__906392fd02df9060440160206040518083038186803b158015610d4857600080fd5b505af4158015610d5c573d6000803e3d6000fd5b505050506040513d601f19601f82011682018060405250810190610d809190613d68565b15610dc057817f5099b84fedf2037c6ff782c44b0ac2843f775d48f7037b6b1695993f87ed8bda82604051610db791815260200190565b60405180910390a25b5050565b6001546040516335d2155560e11b81523360048201526001600160a01b0390911690636ba42aaa9060240160206040518083038186803b158015610e0757600080fd5b505afa158015610e1b573d6000803e3d6000fd5b505050506040513d601f19601f82011682018060405250810190610e3f9190613d68565b610e5b5760405162461bcd60e51b8152600401610cdd90613dd0565b600083815260056020908152604080832085845260020182529182902080546001600160f81b0316600160f81b60ff86169081029190911790915582518581529182015284917f085ae6333e8e3352f7017173d09b81b5b45abd24d265b83422b1efae1172049391015b60405180910390a2505050565b604051633b11adbf60e21b81526002600482015233602482015273__$364aad554dc80380f414546becdd2c1584$__9063ec46b6fc9060440160206040518083038186803b158015610f2357600080fd5b505af4158015610f37573d6000803e3d6000fd5b505050506040513d601f19601f82011682018060405250810190610f5b9190613d68565b610f775760405162461bcd60e51b8152600401610cdd90613d8a565b604080516001600160401b0385811682528481166020830152831681830152905185917f2744eeae7a9f0b21012041a63eb0df8898bd6357f273064a02946ba4f6f79af8919081900360600190a26000848152600560205260409081902090516320c1b15d60e01b8152600390910160048201526001600160401b03808516602483015280841660448301528216606482015273__$9d89bb4a2fad48898c323b0a17741df93a$__906320c1b15d9060840160006040518083038186803b15801561104157600080fd5b505af4158015611055573d6000803e3d6000fd5b5050505050505050565b60405163d432339f60e01b81526004808201526024810182905260609073__$bd0f380ab135f83a7568cac3e5fc41e1e4$__9063d432339f9060440160006040518083038186803b1580156110b357600080fd5b505af41580156110c7573d6000803e3d6000fd5b505050506040513d6000823e601f3d908101601f191682016040526110ef9190810190613efb565b92915050565b6000828152600460205260408120548390600160581b900465ffffffffffff166111315760405162461bcd60e51b8152600401610cdd90613f99565b600084815260056020526040908190209051633f5f77cd60e01b815260048101919091526024810184905273__$8c1a4844a0a0988ea2454cf87145a95df1$__90633f5f77cd9060440160206040518083038186803b15801561119357600080fd5b505af41580156111a7573d6000803e3d6000fd5b505050506040513d601f19601f820116820180604052508101906111cb9190613d68565b949350505050565b604051633b11adbf60e21b81526002600482015233602482015273__$364aad554dc80380f414546becdd2c1584$__9063ec46b6fc9060440160206040518083038186803b15801561122457600080fd5b505af4158015611238573d6000803e3d6000fd5b505050506040513d601f19601f8201168201806040525081019061125c9190613d68565b6112785760405162461bcd60e51b8152600401610cdd90613d8a565b60405163cc99e11b60e01b8152600260048201526024810182905273__$364aad554dc80380f414546becdd2c1584$__9063cc99e11b906044015b60006040518083038186803b1580156112cb57600080fd5b505af41580156112df573d6000803e3d6000fd5b5050505050565b6112ee613053565b6001546040516335d2155560e11b81523360048201526001600160a01b0390911690636ba42aaa9060240160206040518083038186803b15801561133157600080fd5b505afa158015611345573d6000803e3d6000fd5b505050506040513d601f19601f820116820180604052508101906113699190613d68565b6113855760405162461bcd60e51b8152600401610cdd90613dd0565b6040516398a5aa1560e01b8152600480820152602481018790526044810186905264ffffffffff851660648201526001600160401b038085166084830152831660a482015273__$bd0f380ab135f83a7568cac3e5fc41e1e4$__906398a5aa159060c4016101206040518083038186803b15801561140257600080fd5b505af4158015611416573d6000803e3d6000fd5b505050506040513d601f19601f8201168201806040525081019061143a9190614092565b805160405163191b63f760e11b815291925063ffffffff16907f52791ebd78dcff1d4506682d26f8e5101ebd38f503d61ac13050498de383f3689073__$bd0f380ab135f83a7568cac3e5fc41e1e4$__90633236c7ee9061149f9086906004016134c0565b60206040518083038186803b1580156114b757600080fd5b505af41580156114cb573d6000803e3d6000fd5b505050506040513d601f19601f820116820180604052508101906114ef91906140af565b60405190815260200160405180910390a295945050505050565b6040805160808101825260008082526020820181905291810182905260608101919091526000838152600460205260409020548390600160581b900465ffffffffffff166115695760405162461bcd60e51b8152600401610cdd90613f99565b60008481526005602052604090819020905163e8fce06b60e01b81526003909101600482015265ffffffffffff8416602482015273__$9d89bb4a2fad48898c323b0a17741df93a$__9063e8fce06b9060440160806040518083038186803b1580156115d457600080fd5b505af41580156115e8573d6000803e3d6000fd5b505050506040513d601f19601f820116820180604052508101906111cb9190614152565b604051633b11adbf60e21b81526002600482015233602482015273__$364aad554dc80380f414546becdd2c1584$__9063ec46b6fc9060440160206040518083038186803b15801561165d57600080fd5b505af4158015611671573d6000803e3d6000fd5b505050506040513d601f19601f820116820180604052508101906116959190613d68565b8061173a575073__$364aad554dc80380f414546becdd2c1584$__63fe27108660026116bf612db2565b6040516001600160e01b031960e085901b168152600481019290925264ffffffffff16602482015260440160206040518083038186803b15801561170257600080fd5b505af4158015611716573d6000803e3d6000fd5b505050506040513d601f19601f8201168201806040525081019061173a9190613d68565b6117565760405162461bcd60e51b8152600401610cdd9061416e565b604051632725ebef60e21b8152600260048201526024810182905273__$364aad554dc80380f414546becdd2c1584$__90639c97afbc9060440160006040518083038186803b1580156117a857600080fd5b505af41580156117bc573d6000803e3d6000fd5b505050507ff2735f34b69be1e6342dea95f9162f84d0db925fab655ca9f1f312ac8cbfc99d816040516117f191815260200190565b60405180910390a150565b60405163741524b760e11b815260048082015260609073__$bd0f380ab135f83a7568cac3e5fc41e1e4$__9063e82a496e9060240160006040518083038186803b15801561184957600080fd5b505af415801561185d573d6000803e3d6000fd5b505050506040513d6000823e601f3d908101601f191682016040526107469190810190614328565b73__$364aad554dc80380f414546becdd2c1584$__63ee98b3136002846107f5612db2565b6001546040516335d2155560e11b81523360048201526001600160a01b0390911690636ba42aaa9060240160206040518083038186803b1580156118ed57600080fd5b505afa158015611901573d6000803e3d6000fd5b505050506040513d601f19601f820116820180604052508101906119259190613d68565b6119415760405162461bcd60e51b8152600401610cdd90613dd0565b60405181907fc494b4ad56dac341aecc01dcffc2710feac31822a34b6428c4a76d8f155ca4cc90600090a2604051631f7e910760e31b81526004808201526024810182905273__$bd0f380ab135f83a7568cac3e5fc41e1e4$__9063fbf48838906044016112b3565b604051630f07232560e01b8152600260048201523360248201526001600160a01b038216604482015273__$364aad554dc80380f414546becdd2c1584$__90630f0723259060640160006040518083038186803b158015611a0a57600080fd5b505af4158015611a1e573d6000803e3d6000fd5b50506040516001600160a01b03841681527fe435cbeab64e4eae6497b9d8289704bd709d624a80704ef3ca9af777534bc6ec925060200190506117f1565b6001546040516335d2155560e11b81523360048201526001600160a01b0390911690636ba42aaa9060240160206040518083038186803b158015611a9f57600080fd5b505afa158015611ab3573d6000803e3d6000fd5b505050506040513d601f19601f82011682018060405250810190611ad79190613d68565b611af35760405162461bcd60e51b8152600401610cdd90613dd0565b6000816001600160a01b0316631368f3276040518163ffffffff1660e01b815260040160206040518083038186803b158015611b2e57600080fd5b505afa158015611b42573d6000803e3d6000fd5b505050506040513d601f19601f82011682018060405250810190611b669190613d4b565b90505b63ffffffff811615610dc057604051630e72f4d360e11b815263ffffffff821660048201526000906001600160a01b03841690631ce5e9a6906024016102c06040518083038186803b158015611bbe57600080fd5b505afa158015611bd2573d6000803e3d6000fd5b505050506040513d601f19601f82011682018060405250810190611bf691906143b6565b6040516308479ba160e31b815290915073__$bd0f380ab135f83a7568cac3e5fc41e1e4$__9063423cdd0890611c3290600490859082016143d3565b6101206040518083038186803b158015611c4b57600080fd5b505af4158015611c5f573d6000803e3d6000fd5b505050506040513d601f19601f82011682018060405250810190611c839190614092565b808252805160405163191b63f760e11b815263ffffffff909116917f52791ebd78dcff1d4506682d26f8e5101ebd38f503d61ac13050498de383f3689173__$bd0f380ab135f83a7568cac3e5fc41e1e4$__91633236c7ee91611ce991906004016134c0565b60206040518083038186803b158015611d0157600080fd5b505af4158015611d15573d6000803e3d6000fd5b505050506040513d601f19601f82011682018060405250810190611d3991906140af565b60405190815260200160405180910390a260405163809bf77b60e01b815263ffffffff831660048201526000906001600160a01b0385169063809bf77b9060240160006040518083038186803b158015611d9257600080fd5b505afa158015611da6573d6000803e3d6000fd5b505050506040513d6000823e601f3d908101601f19168201604052611dce919081019061441c565b82515163ffffffff1660009081526005602052604090819020905162a36c9b60e51b815291925073__$bd0f380ab135f83a7568cac3e5fc41e1e4$__9163146d936091611e1f9185906004016144ac565b60006040518083038186803b158015611e3757600080fd5b505af4158015611e4b573d6000803e3d6000fd5b505050508280611e5a906144fa565b9350505050611b69565b604051632a3be56b60e21b815260026004820152602481018390526044810182905260009073__$364aad554dc80380f414546becdd2c1584$__9063a8ef95ac9060640160206040518083038186803b158015611ec057600080fd5b505af4158015611ed4573d6000803e3d6000fd5b505050506040513d601f19601f82011682018060405250810190611ef89190613d68565b9392505050565b604051633b11adbf60e21b81526002600482015233602482015273__$364aad554dc80380f414546becdd2c1584$__9063ec46b6fc9060440160206040518083038186803b158015611f5057600080fd5b505af4158015611f64573d6000803e3d6000fd5b505050506040513d601f19601f82011682018060405250810190611f889190613d68565b8061202d575073__$364aad554dc80380f414546becdd2c1584$__63fe2710866002611fb2612db2565b6040516001600160e01b031960e085901b168152600481019290925264ffffffffff16602482015260440160206040518083038186803b158015611ff557600080fd5b505af4158015612009573d6000803e3d6000fd5b505050506040513d601f19601f8201168201806040525081019061202d9190613d68565b6120495760405162461bcd60e51b8152600401610cdd9061416e565b60405163b6e38a2960e01b8152600260048201526024810182905273__$364aad554dc80380f414546becdd2c1584$__9063b6e38a299060440160006040518083038186803b15801561209b57600080fd5b505af41580156120af573d6000803e3d6000fd5b505050507f8b6f40f36b4ae8cc5f55e895036457c43da4ab1f80f58c46f5ff0d72a650033b816040516117f191815260200190565b60008181526005602052604090819020905163034306e160e21b815260609173__$8c1a4844a0a0988ea2454cf87145a95df1$__91630d0c1b849161212f9160040190815260200190565b60006040518083038186803b15801561214757600080fd5b505af415801561215b573d6000803e3d6000fd5b505050506040513d6000823e601f3d908101601f191682016040526110ef919081019061441c565b61218b613053565b6001546040516335d2155560e11b81523360048201526001600160a01b0390911690636ba42aaa9060240160206040518083038186803b1580156121ce57600080fd5b505afa1580156121e2573d6000803e3d6000fd5b505050506040513d601f19601f820116820180604052508101906122069190613d68565b6122225760405162461bcd60e51b8152600401610cdd90613dd0565b6040516308479ba160e31b815273__$bd0f380ab135f83a7568cac3e5fc41e1e4$__9063423cdd089061225b90600490869082016143d3565b6101206040518083038186803b15801561227457600080fd5b505af4158015612288573d6000803e3d6000fd5b505050506040513d601f19601f820116820180604052508101906122ac9190614092565b805160405163191b63f760e11b815291925063ffffffff16907f52791ebd78dcff1d4506682d26f8e5101ebd38f503d61ac13050498de383f3689073__$bd0f380ab135f83a7568cac3e5fc41e1e4$__90633236c7ee906123119086906004016134c0565b60206040518083038186803b15801561232957600080fd5b505af415801561233d573d6000803e3d6000fd5b505050506040513d601f19601f8201168201806040525081019061236191906140af565b60405190815260200160405180910390a2919050565b60405163987ad15360e01b81526002600482015260009073__$364aad554dc80380f414546becdd2c1584$__9063987ad153906024016106f6565b60006123bc612db2565b60405163cc0d511b60e01b8152600260048201526024810184905264ffffffffff8216604482015290915073__$364aad554dc80380f414546becdd2c1584$__9063cc0d511b90606401610830565b604051633b11adbf60e21b81526002600482015233602482015273__$364aad554dc80380f414546becdd2c1584$__9063ec46b6fc9060440160206040518083038186803b15801561245c57600080fd5b505af4158015612470573d6000803e3d6000fd5b505050506040513d601f19601f820116820180604052508101906124949190613d68565b6124b05760405162461bcd60e51b8152600401610cdd90613d8a565b6000828152600560205260409081902090516392f13c3f60e01b815260048101919091526024810182905273__$8c1a4844a0a0988ea2454cf87145a95df1$__906392f13c3f9060440160206040518083038186803b15801561251257600080fd5b505af4158015612526573d6000803e3d6000fd5b505050506040513d601f19601f8201168201806040525081019061254a9190613d68565b15610dc057817f26dd4a901a5050dc1c995e66afc62c5aa03293381756199f49f62b57e197ea9882604051610db791815260200190565b604080516101608101825260006060808301828152608080850184905260a080860185905260c080870186905260e08701869052610100870186905261012087018690526101408701869052928652865192830187528483526020808401869052838801869052938301859052908201849052810183905290830152918101919091526001546040516335d2155560e11b81523360048201526001600160a01b0390911690636ba42aaa9060240160206040518083038186803b15801561264757600080fd5b505afa15801561265b573d6000803e3d6000fd5b505050506040513d601f19601f8201168201806040525081019061267f9190613d68565b61269b5760405162461bcd60e51b8152600401610cdd90613dd0565b73__$bd0f380ab135f83a7568cac3e5fc41e1e4$__632104d8566004878787876126c3612e0c565b6040516001600160e01b031960e089901b1681526004810196909652602486019490945263ffffffff92831660448601526001600160401b0390911660648501521660848301526001600160a01b031660a482015260c4016101e06040518083038186803b15801561273457600080fd5b505af4158015612748573d6000803e3d6000fd5b505050506040513d601f19601f8201168201806040525081019061276c91906145ab565b95945050505050565b6000818152600460205260409020546060908290600160581b900465ffffffffffff166127b45760405162461bcd60e51b8152600401610cdd90613f99565b60008381526005602052604090819020905163e60e18a560e01b81526003909101600482015273__$9d89bb4a2fad48898c323b0a17741df93a$__9063e60e18a59060240160006040518083038186803b15801561281157600080fd5b505af4158015612825573d6000803e3d6000fd5b505050506040513d6000823e601f3d908101601f19168201604052611ef8919081019061468f565b6001546040516335d2155560e11b81523360048201526001600160a01b0390911690636ba42aaa9060240160206040518083038186803b15801561289057600080fd5b505afa1580156128a4573d6000803e3d6000fd5b505050506040513d601f19601f820116820180604052508101906128c89190613d68565b6128e45760405162461bcd60e51b8152600401610cdd90613dd0565b60405163921ab06760e01b815260009073__$bd0f380ab135f83a7568cac3e5fc41e1e4$__9063921ab067906129229060049087908790830161471f565b60e06040518083038186803b15801561293a57600080fd5b505af415801561294e573d6000803e3d6000fd5b505050506040513d601f19601f820116820180604052508101906129729190614766565b9050827fc02000af6ff4e7765f1f97c87932bf4f0877955ec99afad29399ed00a10e20a573__$bd0f380ab135f83a7568cac3e5fc41e1e4$__6389de3a96846040518263ffffffff1660e01b81526004016129cd919061312e565b60206040518083038186803b1580156129e557600080fd5b505af41580156129f9573d6000803e3d6000fd5b505050506040513d601f19601f82011682018060405250810190612a1d91906140af565b604051908152602001610ec5565b612a3482612e65565b612a3d81612f14565b604051636cdd0edf60e11b815260026004820152602481018590526001600160a01b038416604482015273__$364aad554dc80380f414546becdd2c1584$__9063d9ba1dbe9060640160006040518083038186803b158015612a9e57600080fd5b505af4158015612ab2573d6000803e3d6000fd5b5050604080518781526001600160a01b038781166020830152868116828401528516606082015290517f3abb2418c66fe32ba9c883030a75ce583971d9af9192b9b74e44e67c5e6c8c1f9350908190036080019150a150505050565b604051633c3e56c160e11b81526002600482015260009073__$364aad554dc80380f414546becdd2c1584$__9063787cad829060240160206040518083038186803b158015612b5c57600080fd5b505af4158015612b70573d6000803e3d6000fd5b505050506040513d601f19601f820116820180604052508101906107469190614782565b604051633b11adbf60e21b81526002600482015233602482015273__$364aad554dc80380f414546becdd2c1584$__9063ec46b6fc9060440160206040518083038186803b158015612be557600080fd5b505af4158015612bf9573d6000803e3d6000fd5b505050506040513d601f19601f82011682018060405250810190612c1d9190613d68565b612c395760405162461bcd60e51b8152600401610cdd90613d8a565b600254600160f01b900460ff16600114612c955760405162461bcd60e51b815260206004820181905260248201527f41432e6f6e6c7950656e64696e673a20446f632069732066696e616c697a65646044820152606401610cdd565b60405163cc99e11b60e01b815260026004820152684174746f726e65797360b81b602482015273__$364aad554dc80380f414546becdd2c1584$__9063cc99e11b9060440160006040518083038186803b158015612cf257600080fd5b505af4158015612d06573d6000803e3d6000fd5b5050604051632725ebef60e21b8152600260048201526000602482015273__$364aad554dc80380f414546becdd2c1584$__9250639c97afbc915060440160006040518083038186803b158015612d5c57600080fd5b505af4158015612d70573d6000803e3d6000fd5b50506002805460ff60f01b1916600160f11b17905550506040517f35012b512309c322acf68632cd6cb702ff0e1d776fbe9394e38ffc13b434fe7590600090a1565b60008054604051634de835e760e11b81523360048201526001600160a01b0390911690639bd06bce90602401602060405180830381600087803b158015612df857600080fd5b505af1158015610722573d6000803e3d6000fd5b60015460405163e0ff5b8b60e01b8152600660048201526000916001600160a01b03169063e0ff5b8b9060240160206040518083038186803b158015612e5157600080fd5b505afa158015612b70573d6000803e3d6000fd5b6000546001600160a01b031615612eb65760405162461bcd60e51b815260206004820152601560248201527430b63932b0b23c9039b2ba103932b3a1b2b73a32b960591b6044820152606401610cdd565b6040516001600160a01b03821681527f318da6c7624c71cbc0afe346c9d8827f119d0ecefb241a7b0c87217a076a8e029060200160405180910390a1600080546001600160a01b0319166001600160a01b0392909216919091179055565b6001546001600160a01b031615612f6d5760405162461bcd60e51b815260206004820152601960248201527f616c7265616479207365742067656e6572616c4b6565706572000000000000006044820152606401610cdd565b6040516001600160a01b03821681527fe513d3e0f0d0a3877029dcc588748679a7a3450ec1ec7ed56d96bd012c3e61aa9060200160405180910390a1600180546001600160a01b0319166001600160a01b0392909216919091179055565b6040518060600160405280612fde613053565b8152604080516101008101825260008082526020828101829052928201819052606082018190526080820181905260a0820181905260c0820181905260e082015291019081526040805160a0810182526000808252602082810182905292820181905260608201819052608082015291015290565b6040805161012081018252600080825260208201819052918101829052606081018290526080810182905260a0810182905260c0810182905260e0810182905261010081019190915290565b600080604083850312156130b257600080fd5b50508035926020909101359150565b61ffff8151168252602081015163ffffffff8082166020850152806040840151166040850152505060608101516001600160401b038082166060850152806080840151166080850152505064ffffffffff60a08201511660a083015260ff60c08201511660c08301525050565b60e081016110ef82846130c1565b60006020828403121561314e57600080fd5b5035919050565b63ffffffff815116825260ff60208201511660208301526040810151613181604084018261ffff169052565b506060810151613199606084018263ffffffff169052565b5060808101516131b3608084018265ffffffffffff169052565b5060a08101516131cd60a084018265ffffffffffff169052565b5060c08101516131e360c084018261ffff169052565b5060e08101516131f960e084018261ffff169052565b506101009081015164ffffffffff16910152565b63ffffffff815116825260ff602082015116602083015260ff604082015116604083015260608101516001600160401b03808216606085015260ff60808401511660808501528060a08401511660a0850152505060c081015161327560c084018260ff169052565b5060e081015161329060e08401826001600160401b03169052565b505050565b65ffffffffffff815116825264ffffffffff602082015116602083015260408101516001600160401b038082166040850152806060840151166060850152505060ff60808201511660808301525050565b6132f1828251613155565b602081015161330461012084018261320d565b506040810151613290610220840182613295565b6102c081016110ef82846132e6565b60ff8116811461333657600080fd5b50565b803561334481613327565b919050565b60008060006060848603121561335e57600080fd5b8335925060208401359150604084013561337781613327565b809150509250925092565b6001600160401b038116811461333657600080fd5b803561334481613382565b600080600080608085870312156133b857600080fd5b8435935060208501356133ca81613382565b925060408501356133da81613382565b915060608501356133ea81613382565b939692955090935050565b6020808252825182820181905260009190848201906040850190845b81811015613437576134248385516130c1565b9284019260e09290920191600101613411565b50909695505050505050565b64ffffffffff8116811461333657600080fd5b803561334481613443565b600080600080600060a0868803121561347957600080fd5b8535945060208601359350604086013561349281613443565b925060608601356134a281613382565b915060808601356134b281613382565b809150509295509295909350565b61012081016110ef8284613155565b65ffffffffffff8116811461333657600080fd5b8035613344816134cf565b6000806040838503121561350157600080fd5b823591506020830135613513816134cf565b809150509250929050565b608081016110ef828465ffffffffffff815116825260208101516001600160401b03808216602085015280604084015116604085015280606084015116606085015250505050565b6020808252825182820181905260009190848201906040850190845b81811015613437576135958385516132e6565b928401926102c09290920191600101613582565b6001600160a01b038116811461333657600080fd5b6000602082840312156135d057600080fd5b8135611ef8816135a9565b6020808252825182820181905260009190848201906040850190845b81811015613437578351835292840192918401916001016135f7565b634e487b7160e01b600052604160045260246000fd5b60405161010081016001600160401b038111828210171561364c5761364c613613565b60405290565b60405160a081016001600160401b038111828210171561364c5761364c613613565b604051606081016001600160401b038111828210171561364c5761364c613613565b60405161012081016001600160401b038111828210171561364c5761364c613613565b60405160c081016001600160401b038111828210171561364c5761364c613613565b604051601f8201601f191681016001600160401b038111828210171561370357613703613613565b604052919050565b63ffffffff8116811461333657600080fd5b80356133448161370b565b61ffff8116811461333657600080fd5b803561334481613728565b6000610100828403121561375657600080fd5b61375e613629565b9050813561376b8161370b565b8152602082013561377b81613327565b602082015261378c60408301613339565b604082015261379d60608301613397565b60608201526137ae60808301613339565b60808201526137bf60a08301613397565b60a08201526137d060c08301613339565b60c08201526137e160e08301613397565b60e082015292915050565b600060a082840312156137fe57600080fd5b613806613652565b90508135613813816134cf565b8152602082013561382381613443565b6020820152604082013561383681613382565b6040820152606082013561384981613382565b6060820152608082013561385c81613327565b608082015292915050565b60008183036102c081121561387b57600080fd5b613883613674565b6101208083121561389357600080fd5b61389b613696565b92506138a68561371d565b83526138b460208601613339565b60208401526138c560408601613738565b60408401526138d66060860161371d565b60608401526138e7608086016134e3565b60808401526138f860a086016134e3565b60a084015261390960c08601613738565b60c084015261391a60e08601613738565b60e084015261010061392d818701613456565b9084015282825261394086868301613743565b6020830152506139548561022086016137ec565b6040820152949350505050565b6000806000806080858703121561397757600080fd5b8435935060208501356139898161370b565b9250604085013561399981613382565b915060608501356133ea8161370b565b63ffffffff8151168252602081015161ffff80821660208501528060408401511660408501526060830151915065ffffffffffff8083166060860152806080850151166080860152508060a08401511660a0850152505060c0810151613a1860c084018264ffffffffff169052565b5060e081015161329060e084018263ffffffff169052565b64ffffffffff8151168252602081015163ffffffff8082166020850152604083015191506001600160401b03808316604086015281606085015116606086015280608085015116608086015250505060ff60a08201511660a08301525050565b60006101e082019050613aa48284516139a9565b6020830151613ab7610100840182613a30565b5060408301516101c083015292915050565b6020808252825182820181905260009190848201906040850190845b8181101561343757613b3283855165ffffffffffff815116825260208101516001600160401b03808216602085015280604084015116604085015280606084015116606085015250505050565b9284019260809290920191600101613ae5565b600060c08284031215613b5757600080fd5b613b5f6136b9565b90508135613b6c81613443565b81526020820135613b7c8161370b565b60208201526040820135613b8f81613382565b60408201526060820135613ba28161370b565b60608201526080820135613bb581613382565b608082015260a0820135613bc881613327565b60a082015292915050565b600080828403610200811215613be857600080fd5b83359250601f19016101e080821215613c0057600080fd5b613c08613674565b61010080841215613c1857600080fd5b613c20613629565b93506020870135613c308161370b565b8452613c3e60408801613738565b6020850152613c4f60608801613738565b6040850152613c60608088016134e3565b6060850152613c7160a088016134e3565b6080850152613c8260c08801613738565b60a0850152613c9360e08801613456565b60c0850152613ca381880161371d565b60e085015250828152613cba876101208801613b45565b6020820152940135604085015250909391925050565b60008060008060808587031215613ce657600080fd5b843593506020850135613cf8816135a9565b92506040850135613d08816135a9565b915060608501356133ea816135a9565b805161334481613443565b600060208284031215613d3557600080fd5b8151611ef881613443565b80516133448161370b565b600060208284031215613d5d57600080fd5b8151611ef88161370b565b600060208284031215613d7a57600080fd5b81518015158114611ef857600080fd5b60208082526026908201527f41432e6f6e6c794469726563744b65657065723a206e6f74206469726563742060408201526535b2b2b832b960d11b606082015260800190565b60208082526011908201527020a19737b59d103737ba1025b2b2b832b960791b604082015260600190565b60006001600160401b03821115613e1457613e14613613565b5060051b60200190565b805161334481613728565b805161334481613382565b805161334481613327565b600060e08284031215613e5157600080fd5b60405160e081018181106001600160401b0382111715613e7357613e73613613565b80604052508091508251613e8681613728565b81526020830151613e968161370b565b60208201526040830151613ea98161370b565b60408201526060830151613ebc81613382565b6060820152613ecd60808401613e29565b6080820152613ede60a08401613d18565b60a0820152613eef60c08401613e34565b60c08201525092915050565b60006020808385031215613f0e57600080fd5b82516001600160401b03811115613f2457600080fd5b8301601f81018513613f3557600080fd5b8051613f48613f4382613dfb565b6136db565b81815260e09182028301840191848201919088841115613f6757600080fd5b938501935b83851015613f8d57613f7e8986613e3f565b83529384019391850191613f6c565b50979650505050505050565b60208082526018908201527f424f4f2e6d662e4f453a204f7074206e6f742065786973740000000000000000604082015260600190565b8051613344816134cf565b60006101208284031215613fee57600080fd5b613ff6613696565b905061400182613d40565b815261400f60208301613e34565b602082015261402060408301613e1e565b604082015261403160608301613d40565b606082015261404260808301613fd0565b608082015261405360a08301613fd0565b60a082015261406460c08301613e1e565b60c082015261407560e08301613e1e565b60e0820152610100614088818401613d18565b9082015292915050565b600061012082840312156140a557600080fd5b611ef88383613fdb565b6000602082840312156140c157600080fd5b5051919050565b6000608082840312156140da57600080fd5b604051608081018181106001600160401b03821117156140fc576140fc613613565b8060405250809150825161410f816134cf565b8152602083015161411f81613382565b6020820152604083015161413281613382565b6040820152606083015161414581613382565b6060919091015292915050565b60006080828403121561416457600080fd5b611ef883836140c8565b60208082526036908201527f41432e6f776e65724f72446972656374426f6f6b65657065723a206e6569746860408201527532b91037bbb732b9103737b9103137b7b5b2b2b832b960511b606082015260800190565b600060a082840312156141d657600080fd5b6141de613652565b905081516141eb816134cf565b815260208201516141fb81613443565b6020820152604082015161420e81613382565b6040820152606082015161422181613382565b6060820152608082015161385c81613327565b60008183036102c081121561424857600080fd5b614250613674565b915061425c8484613fdb565b825261010061011f198201121561427257600080fd5b5061427b613629565b61012083015161428a8161370b565b81526142996101408401613e34565b60208201526142ab6101608401613e34565b60408201526142bd6101808401613e29565b60608201526142cf6101a08401613e34565b60808201526142e16101c08401613e29565b60a08201526142f36101e08401613e34565b60c08201526143056102008401613e29565b60e0820152602082015261431d8361022084016141c4565b604082015292915050565b6000602080838503121561433b57600080fd5b82516001600160401b0381111561435157600080fd5b8301601f8101851361436257600080fd5b8051614370613f4382613dfb565b8181526102c0918202830184019184820191908884111561439057600080fd5b938501935b83851015613f8d576143a78986614234565b83529384019391850191614395565b60006102c082840312156143c957600080fd5b611ef88383614234565b60006102e0820190508382526143ed602083018451613155565b602083015161440061014084018261320d565b506040830151614414610240840182613295565b509392505050565b6000602080838503121561442f57600080fd5b82516001600160401b0381111561444557600080fd5b8301601f8101851361445657600080fd5b8051614464613f4382613dfb565b81815260059190911b8201830190838101908783111561448357600080fd5b928401925b828410156144a157835182529284019290840190614488565b979650505050505050565b6000604082018483526020604081850152818551808452606086019150828701935060005b818110156144ed578451835293830193918301916001016144d1565b5090979650505050505050565b600063ffffffff82168061451e57634e487b7160e01b600052601160045260246000fd5b6000190192915050565b600060c0828403121561453a57600080fd5b6145426136b9565b9050815161454f81613443565b8152602082015161455f8161370b565b6020820152604082015161457281613382565b604082015260608201516145858161370b565b6060820152608082015161459881613382565b608082015260a0820151613bc881613327565b60008183036101e08112156145bf57600080fd5b6145c7613674565b610100808312156145d757600080fd5b6145df613629565b925084516145ec8161370b565b83526145fa60208601613e1e565b602084015261460b60408601613e1e565b604084015261461c60608601613fd0565b606084015261462d60808601613fd0565b608084015261463e60a08601613e1e565b60a084015261464f60c08601613d18565b60c084015261466060e08601613d40565b60e084015282825261467486828701614528565b6020830152506101c093909301516040840152509092915050565b600060208083850312156146a257600080fd5b82516001600160401b038111156146b857600080fd5b8301601f810185136146c957600080fd5b80516146d7613f4382613dfb565b81815260079190911b820183019083810190878311156146f657600080fd5b928401925b828410156144a15761470d88856140c8565b825284820191506080840193506146fb565b60006102208201905084825283602083015261473f6040830184516139a9565b6020830151614752610140840182613a30565b506040830151610200830152949350505050565b600060e0828403121561477857600080fd5b611ef88383613e3f565b60006020828403121561479457600080fd5b8151611ef8816135a956fea264697066735822122077e25d164a88e10ba868dbc4c1a032e2094f5d2653034f0dc06c2cdfa523b96264736f6c63430008080033",
    "sourcePath": "/Users/kaptain/github.com/hardhat/comboox/contracts/books/boo/BookOfOptions.sol",
    "compiler": {
        "name": "solc",
        "version": "0.8.8+commit.dddeac2f"
    },
    "functionHashes": {
        "abandonRole(bytes32)": "3da9a600",
        "addObligorIntoOption(uint256,uint256)": "a24132e8",
        "counterOfBriefs(uint256)": "39803c02",
        "counterOfOptions()": "1368f327",
        "createOption(uint256,uint256,uint40,uint64,uint64)": "41ec8c4a",
        "createSwapOrder(uint256,uint32,uint64,uint32)": "bdc6bb76",
        "execOption(uint256)": "6555ff7a",
        "finalized()": "b3f05b97",
        "getALLOraclesOfOption(uint256)": "c4e1f56e",
        "getAllBriefsOfOption(uint256)": "2bff28d9",
        "getAllOptions()": "4b4b0d37",
        "getBookeeper()": "ed211023",
        "getBrief(uint256,uint256)": "17e18de3",
        "getGeneralCounsel()": "103f6edd",
        "getObligorsOfOption(uint256)": "809bf77b",
        "getOption(uint256)": "1ce5e9a6",
        "getOracleAtDate(uint256,uint48)": "4747bb8a",
        "getOwner()": "893d20e8",
        "grantRole(bytes32,uint256)": "1b6ea9f9",
        "hasRole(bytes32,uint256)": "7e063c5a",
        "init(uint256,address,address,address)": "dc890da9",
        "isObligor(uint256,uint256)": "3bce3c30",
        "isOption(uint256)": "b3be456a",
        "isRightholder(uint256,uint256)": "f5bf221d",
        "issueOption(((uint32,uint8,uint16,uint32,uint48,uint48,uint16,uint16,uint40),(uint32,uint8,uint8,uint64,uint8,uint64,uint8,uint64),(uint48,uint40,uint64,uint64,uint8)))": "88e332db",
        "lockContents()": "f045a769",
        "regOptionTerms(address)": "6ca5cc5d",
        "regSwapOrder(uint256,((uint32,uint16,uint16,uint48,uint48,uint16,uint40,uint32),(uint40,uint32,uint64,uint32,uint64,uint8),bytes32))": "c5d76432",
        "removeObligorFromOption(uint256,uint256)": "1d565c07",
        "renounceRole(bytes32)": "8bb9c5bf",
        "revokeRole(bytes32,uint256)": "19d61ad9",
        "setDirectKeeper(address)": "6be8496f",
        "setGeneralCounsel(uint256)": "4a14beb1",
        "setOwner(uint256)": "8041494e",
        "setRoleAdmin(bytes32,uint256)": "5171ebd4",
        "updateOracle(uint256,uint64,uint64,uint64)": "2b6c0ce1",
        "updateStateOfBrief(uint256,uint256,uint8)": "1f223a5c"
    },
    "gasEstimates": {
        "creation": {
            "codeDepositCost": "3677800",
            "executionCost": "4146",
            "totalCost": "3681946"
        },
        "external": {
            "abandonRole(bytes32)": "infinite",
            "addObligorIntoOption(uint256,uint256)": "infinite",
            "counterOfBriefs(uint256)": "2590",
            "counterOfOptions()": "infinite",
            "createOption(uint256,uint256,uint40,uint64,uint64)": "infinite",
            "createSwapOrder(uint256,uint32,uint64,uint32)": "infinite",
            "execOption(uint256)": "infinite",
            "finalized()": "2416",
            "getALLOraclesOfOption(uint256)": "infinite",
            "getAllBriefsOfOption(uint256)": "infinite",
            "getAllOptions()": "infinite",
            "getBookeeper()": "infinite",
            "getBrief(uint256,uint256)": "3417",
            "getGeneralCounsel()": "infinite",
            "getObligorsOfOption(uint256)": "infinite",
            "getOption(uint256)": "infinite",
            "getOracleAtDate(uint256,uint48)": "infinite",
            "getOwner()": "infinite",
            "grantRole(bytes32,uint256)": "infinite",
            "hasRole(bytes32,uint256)": "infinite",
            "init(uint256,address,address,address)": "infinite",
            "isObligor(uint256,uint256)": "infinite",
            "isOption(uint256)": "2540",
            "isRightholder(uint256,uint256)": "2628",
            "issueOption(((uint32,uint8,uint16,uint32,uint48,uint48,uint16,uint16,uint40),(uint32,uint8,uint8,uint64,uint8,uint64,uint8,uint64),(uint48,uint40,uint64,uint64,uint8)))": "infinite",
            "lockContents()": "infinite",
            "regOptionTerms(address)": "infinite",
            "regSwapOrder(uint256,((uint32,uint16,uint16,uint48,uint48,uint16,uint40,uint32),(uint40,uint32,uint64,uint32,uint64,uint8),bytes32))": "infinite",
            "removeObligorFromOption(uint256,uint256)": "infinite",
            "renounceRole(bytes32)": "infinite",
            "revokeRole(bytes32,uint256)": "infinite",
            "setDirectKeeper(address)": "infinite",
            "setGeneralCounsel(uint256)": "infinite",
            "setOwner(uint256)": "infinite",
            "setRoleAdmin(bytes32,uint256)": "infinite",
            "updateOracle(uint256,uint64,uint64,uint64)": "infinite",
            "updateStateOfBrief(uint256,uint256,uint8)": "infinite"
        }
    }
}