{
    "contractName": "BookOfOptions",
    "abi": [
        {
            "anonymous": false,
            "inputs": [
                {
                    "indexed": true,
                    "internalType": "uint256",
                    "name": "seqOfOpt",
                    "type": "uint256"
                },
                {
                    "indexed": false,
                    "internalType": "uint256",
                    "name": "obligor",
                    "type": "uint256"
                }
            ],
            "name": "AddObligorIntoOpt",
            "type": "event"
        },
        {
            "anonymous": false,
            "inputs": [
                {
                    "indexed": true,
                    "internalType": "uint256",
                    "name": "seqOfOpt",
                    "type": "uint256"
                },
                {
                    "indexed": false,
                    "internalType": "uint256",
                    "name": "seqOfShare",
                    "type": "uint256"
                },
                {
                    "indexed": false,
                    "internalType": "uint64",
                    "name": "paid",
                    "type": "uint64"
                },
                {
                    "indexed": false,
                    "internalType": "uint64",
                    "name": "par",
                    "type": "uint64"
                }
            ],
            "name": "AddOrder",
            "type": "event"
        },
        {
            "anonymous": false,
            "inputs": [
                {
                    "indexed": true,
                    "internalType": "uint256",
                    "name": "seqOfOpt",
                    "type": "uint256"
                },
                {
                    "indexed": false,
                    "internalType": "uint256",
                    "name": "seqOfShare",
                    "type": "uint256"
                },
                {
                    "indexed": false,
                    "internalType": "uint64",
                    "name": "paid",
                    "type": "uint64"
                },
                {
                    "indexed": false,
                    "internalType": "uint64",
                    "name": "par",
                    "type": "uint64"
                }
            ],
            "name": "AddPledge",
            "type": "event"
        },
        {
            "anonymous": false,
            "inputs": [
                {
                    "indexed": true,
                    "internalType": "uint256",
                    "name": "seqOfOpt",
                    "type": "uint256"
                },
                {
                    "indexed": false,
                    "internalType": "string",
                    "name": "hashKey",
                    "type": "string"
                }
            ],
            "name": "CloseOpt",
            "type": "event"
        },
        {
            "anonymous": false,
            "inputs": [
                {
                    "indexed": true,
                    "internalType": "uint256",
                    "name": "seqOfOpt",
                    "type": "uint256"
                },
                {
                    "indexed": false,
                    "internalType": "uint40",
                    "name": "rightholder",
                    "type": "uint40"
                },
                {
                    "indexed": false,
                    "internalType": "uint40",
                    "name": "obligor",
                    "type": "uint40"
                },
                {
                    "indexed": false,
                    "internalType": "uint64",
                    "name": "paid",
                    "type": "uint64"
                },
                {
                    "indexed": false,
                    "internalType": "uint64",
                    "name": "par",
                    "type": "uint64"
                }
            ],
            "name": "CreateOpt",
            "type": "event"
        },
        {
            "anonymous": false,
            "inputs": [
                {
                    "indexed": true,
                    "internalType": "uint256",
                    "name": "seqOfOpt",
                    "type": "uint256"
                }
            ],
            "name": "ExecOpt",
            "type": "event"
        },
        {
            "anonymous": false,
            "inputs": [
                {
                    "indexed": false,
                    "internalType": "uint256",
                    "name": "owner",
                    "type": "uint256"
                },
                {
                    "indexed": false,
                    "internalType": "address",
                    "name": "directKeeper",
                    "type": "address"
                },
                {
                    "indexed": false,
                    "internalType": "address",
                    "name": "regCenter",
                    "type": "address"
                },
                {
                    "indexed": false,
                    "internalType": "address",
                    "name": "generalKeeper",
                    "type": "address"
                }
            ],
            "name": "Init",
            "type": "event"
        },
        {
            "anonymous": false,
            "inputs": [],
            "name": "LockContents",
            "type": "event"
        },
        {
            "anonymous": false,
            "inputs": [
                {
                    "indexed": true,
                    "internalType": "uint256",
                    "name": "seqOfOpt",
                    "type": "uint256"
                },
                {
                    "indexed": false,
                    "internalType": "bytes32",
                    "name": "hashLock",
                    "type": "bytes32"
                }
            ],
            "name": "LockOpt",
            "type": "event"
        },
        {
            "anonymous": false,
            "inputs": [
                {
                    "indexed": true,
                    "internalType": "uint256",
                    "name": "seqOfOpt",
                    "type": "uint256"
                },
                {
                    "indexed": false,
                    "internalType": "uint40",
                    "name": "rightholder",
                    "type": "uint40"
                },
                {
                    "indexed": false,
                    "internalType": "uint40",
                    "name": "obligor",
                    "type": "uint40"
                },
                {
                    "indexed": false,
                    "internalType": "uint64",
                    "name": "paid",
                    "type": "uint64"
                },
                {
                    "indexed": false,
                    "internalType": "uint64",
                    "name": "par",
                    "type": "uint64"
                }
            ],
            "name": "RegisterOpt",
            "type": "event"
        },
        {
            "anonymous": false,
            "inputs": [
                {
                    "indexed": true,
                    "internalType": "uint256",
                    "name": "seqOfOpt",
                    "type": "uint256"
                },
                {
                    "indexed": false,
                    "internalType": "uint256",
                    "name": "obligor",
                    "type": "uint256"
                }
            ],
            "name": "RemoveObligorFromOpt",
            "type": "event"
        },
        {
            "anonymous": false,
            "inputs": [
                {
                    "indexed": true,
                    "internalType": "uint256",
                    "name": "seqOfOpt",
                    "type": "uint256"
                }
            ],
            "name": "RevokeOpt",
            "type": "event"
        },
        {
            "anonymous": false,
            "inputs": [
                {
                    "indexed": false,
                    "internalType": "address",
                    "name": "keeper",
                    "type": "address"
                }
            ],
            "name": "SetDirectKeeper",
            "type": "event"
        },
        {
            "anonymous": false,
            "inputs": [
                {
                    "indexed": false,
                    "internalType": "uint256",
                    "name": "acct",
                    "type": "uint256"
                }
            ],
            "name": "SetGeneralCounsel",
            "type": "event"
        },
        {
            "anonymous": false,
            "inputs": [
                {
                    "indexed": false,
                    "internalType": "address",
                    "name": "gk",
                    "type": "address"
                }
            ],
            "name": "SetGeneralKeeper",
            "type": "event"
        },
        {
            "anonymous": false,
            "inputs": [
                {
                    "indexed": false,
                    "internalType": "uint256",
                    "name": "acct",
                    "type": "uint256"
                }
            ],
            "name": "SetOwner",
            "type": "event"
        },
        {
            "anonymous": false,
            "inputs": [
                {
                    "indexed": false,
                    "internalType": "address",
                    "name": "rc",
                    "type": "address"
                }
            ],
            "name": "SetRegCenter",
            "type": "event"
        },
        {
            "anonymous": false,
            "inputs": [
                {
                    "indexed": true,
                    "internalType": "uint256",
                    "name": "seqOfOpt",
                    "type": "uint256"
                },
                {
                    "indexed": false,
                    "internalType": "uint64",
                    "name": "data1",
                    "type": "uint64"
                },
                {
                    "indexed": false,
                    "internalType": "uint64",
                    "name": "data2",
                    "type": "uint64"
                },
                {
                    "indexed": false,
                    "internalType": "uint64",
                    "name": "data3",
                    "type": "uint64"
                }
            ],
            "name": "UpdateOracle",
            "type": "event"
        },
        {
            "inputs": [
                {
                    "internalType": "bytes32",
                    "name": "role",
                    "type": "bytes32"
                }
            ],
            "name": "abandonRole",
            "outputs": [],
            "stateMutability": "nonpayable",
            "type": "function"
        },
        {
            "inputs": [
                {
                    "internalType": "uint256",
                    "name": "seqOfOpt",
                    "type": "uint256"
                },
                {
                    "internalType": "uint256",
                    "name": "obligor",
                    "type": "uint256"
                }
            ],
            "name": "addObligorIntoOption",
            "outputs": [],
            "stateMutability": "nonpayable",
            "type": "function"
        },
        {
            "inputs": [
                {
                    "internalType": "uint256",
                    "name": "seqOfOpt",
                    "type": "uint256"
                },
                {
                    "components": [
                        {
                            "internalType": "uint16",
                            "name": "seq",
                            "type": "uint16"
                        },
                        {
                            "internalType": "uint32",
                            "name": "seqOfShare",
                            "type": "uint32"
                        },
                        {
                            "internalType": "uint40",
                            "name": "seller",
                            "type": "uint40"
                        },
                        {
                            "internalType": "uint40",
                            "name": "buyer",
                            "type": "uint40"
                        },
                        {
                            "internalType": "uint64",
                            "name": "paid",
                            "type": "uint64"
                        },
                        {
                            "internalType": "uint64",
                            "name": "par",
                            "type": "uint64"
                        }
                    ],
                    "internalType": "struct OptionsRepo.Order",
                    "name": "order",
                    "type": "tuple"
                }
            ],
            "name": "addOrder",
            "outputs": [],
            "stateMutability": "nonpayable",
            "type": "function"
        },
        {
            "inputs": [
                {
                    "internalType": "uint256",
                    "name": "seqOfOpt",
                    "type": "uint256"
                }
            ],
            "name": "balanceOfOrder",
            "outputs": [
                {
                    "internalType": "uint64",
                    "name": "paid",
                    "type": "uint64"
                },
                {
                    "internalType": "uint64",
                    "name": "par",
                    "type": "uint64"
                }
            ],
            "stateMutability": "view",
            "type": "function"
        },
        {
            "inputs": [
                {
                    "internalType": "uint256",
                    "name": "seqOfOpt",
                    "type": "uint256"
                }
            ],
            "name": "balanceOfPledge",
            "outputs": [
                {
                    "internalType": "uint64",
                    "name": "paid",
                    "type": "uint64"
                },
                {
                    "internalType": "uint64",
                    "name": "par",
                    "type": "uint64"
                }
            ],
            "stateMutability": "view",
            "type": "function"
        },
        {
            "inputs": [
                {
                    "internalType": "uint256",
                    "name": "seqOfOpt",
                    "type": "uint256"
                },
                {
                    "internalType": "string",
                    "name": "hashKey",
                    "type": "string"
                }
            ],
            "name": "closeOption",
            "outputs": [],
            "stateMutability": "nonpayable",
            "type": "function"
        },
        {
            "inputs": [],
            "name": "counterOfOptions",
            "outputs": [
                {
                    "internalType": "uint32",
                    "name": "",
                    "type": "uint32"
                }
            ],
            "stateMutability": "view",
            "type": "function"
        },
        {
            "inputs": [
                {
                    "internalType": "uint256",
                    "name": "sn",
                    "type": "uint256"
                },
                {
                    "internalType": "uint256",
                    "name": "snOfCond",
                    "type": "uint256"
                },
                {
                    "internalType": "uint40",
                    "name": "rightholder",
                    "type": "uint40"
                },
                {
                    "internalType": "uint40",
                    "name": "obligor",
                    "type": "uint40"
                },
                {
                    "internalType": "uint64",
                    "name": "paid",
                    "type": "uint64"
                },
                {
                    "internalType": "uint64",
                    "name": "par",
                    "type": "uint64"
                }
            ],
            "name": "createOption",
            "outputs": [
                {
                    "internalType": "uint32",
                    "name": "seqOfOpt",
                    "type": "uint32"
                }
            ],
            "stateMutability": "nonpayable",
            "type": "function"
        },
        {
            "inputs": [
                {
                    "internalType": "uint256",
                    "name": "seqOfOpt",
                    "type": "uint256"
                }
            ],
            "name": "execOption",
            "outputs": [],
            "stateMutability": "nonpayable",
            "type": "function"
        },
        {
            "inputs": [],
            "name": "finalized",
            "outputs": [
                {
                    "internalType": "bool",
                    "name": "",
                    "type": "bool"
                }
            ],
            "stateMutability": "view",
            "type": "function"
        },
        {
            "inputs": [],
            "name": "getBookeeper",
            "outputs": [
                {
                    "internalType": "address",
                    "name": "",
                    "type": "address"
                }
            ],
            "stateMutability": "view",
            "type": "function"
        },
        {
            "inputs": [],
            "name": "getGeneralCounsel",
            "outputs": [
                {
                    "internalType": "uint40",
                    "name": "",
                    "type": "uint40"
                }
            ],
            "stateMutability": "view",
            "type": "function"
        },
        {
            "inputs": [
                {
                    "internalType": "uint256",
                    "name": "seqOfOpt",
                    "type": "uint256"
                }
            ],
            "name": "getOption",
            "outputs": [
                {
                    "components": [
                        {
                            "components": [
                                {
                                    "internalType": "uint32",
                                    "name": "seq",
                                    "type": "uint32"
                                },
                                {
                                    "internalType": "uint8",
                                    "name": "typeOfOpt",
                                    "type": "uint8"
                                },
                                {
                                    "internalType": "uint16",
                                    "name": "classOfShare",
                                    "type": "uint16"
                                },
                                {
                                    "internalType": "uint32",
                                    "name": "rate",
                                    "type": "uint32"
                                },
                                {
                                    "internalType": "uint48",
                                    "name": "issueDate",
                                    "type": "uint48"
                                },
                                {
                                    "internalType": "uint48",
                                    "name": "triggerDate",
                                    "type": "uint48"
                                },
                                {
                                    "internalType": "uint16",
                                    "name": "execDays",
                                    "type": "uint16"
                                },
                                {
                                    "internalType": "uint16",
                                    "name": "closingDays",
                                    "type": "uint16"
                                },
                                {
                                    "internalType": "uint8",
                                    "name": "state",
                                    "type": "uint8"
                                }
                            ],
                            "internalType": "struct OptionsRepo.Head",
                            "name": "head",
                            "type": "tuple"
                        },
                        {
                            "components": [
                                {
                                    "internalType": "uint32",
                                    "name": "seq",
                                    "type": "uint32"
                                },
                                {
                                    "internalType": "uint8",
                                    "name": "logicOpr",
                                    "type": "uint8"
                                },
                                {
                                    "internalType": "uint8",
                                    "name": "compOpr1",
                                    "type": "uint8"
                                },
                                {
                                    "internalType": "uint64",
                                    "name": "para1",
                                    "type": "uint64"
                                },
                                {
                                    "internalType": "uint8",
                                    "name": "compOpr2",
                                    "type": "uint8"
                                },
                                {
                                    "internalType": "uint64",
                                    "name": "para2",
                                    "type": "uint64"
                                },
                                {
                                    "internalType": "uint8",
                                    "name": "compOpr3",
                                    "type": "uint8"
                                },
                                {
                                    "internalType": "uint64",
                                    "name": "para3",
                                    "type": "uint64"
                                }
                            ],
                            "internalType": "struct CondsRepo.Cond",
                            "name": "cond",
                            "type": "tuple"
                        },
                        {
                            "components": [
                                {
                                    "internalType": "uint48",
                                    "name": "closingDate",
                                    "type": "uint48"
                                },
                                {
                                    "internalType": "uint40",
                                    "name": "rightholder",
                                    "type": "uint40"
                                },
                                {
                                    "internalType": "uint40",
                                    "name": "obligor",
                                    "type": "uint40"
                                },
                                {
                                    "internalType": "uint64",
                                    "name": "paid",
                                    "type": "uint64"
                                },
                                {
                                    "internalType": "uint64",
                                    "name": "par",
                                    "type": "uint64"
                                }
                            ],
                            "internalType": "struct OptionsRepo.Body",
                            "name": "body",
                            "type": "tuple"
                        },
                        {
                            "internalType": "bytes32",
                            "name": "hashLock",
                            "type": "bytes32"
                        }
                    ],
                    "internalType": "struct OptionsRepo.Option",
                    "name": "opt",
                    "type": "tuple"
                }
            ],
            "stateMutability": "view",
            "type": "function"
        },
        {
            "inputs": [
                {
                    "internalType": "uint256",
                    "name": "seqOfOpt",
                    "type": "uint256"
                },
                {
                    "internalType": "uint256",
                    "name": "seqOfOdr",
                    "type": "uint256"
                }
            ],
            "name": "getOrderOfOption",
            "outputs": [
                {
                    "components": [
                        {
                            "internalType": "uint16",
                            "name": "seq",
                            "type": "uint16"
                        },
                        {
                            "internalType": "uint32",
                            "name": "seqOfShare",
                            "type": "uint32"
                        },
                        {
                            "internalType": "uint40",
                            "name": "seller",
                            "type": "uint40"
                        },
                        {
                            "internalType": "uint40",
                            "name": "buyer",
                            "type": "uint40"
                        },
                        {
                            "internalType": "uint64",
                            "name": "paid",
                            "type": "uint64"
                        },
                        {
                            "internalType": "uint64",
                            "name": "par",
                            "type": "uint64"
                        }
                    ],
                    "internalType": "struct OptionsRepo.Order",
                    "name": "",
                    "type": "tuple"
                }
            ],
            "stateMutability": "view",
            "type": "function"
        },
        {
            "inputs": [],
            "name": "getOwner",
            "outputs": [
                {
                    "internalType": "uint40",
                    "name": "",
                    "type": "uint40"
                }
            ],
            "stateMutability": "view",
            "type": "function"
        },
        {
            "inputs": [
                {
                    "internalType": "uint256",
                    "name": "seqOfOpt",
                    "type": "uint256"
                },
                {
                    "internalType": "uint256",
                    "name": "seqOfPld",
                    "type": "uint256"
                }
            ],
            "name": "getPledgeOfOption",
            "outputs": [
                {
                    "components": [
                        {
                            "components": [
                                {
                                    "internalType": "uint32",
                                    "name": "seqOfShare",
                                    "type": "uint32"
                                },
                                {
                                    "internalType": "uint32",
                                    "name": "seqOfPld",
                                    "type": "uint32"
                                },
                                {
                                    "internalType": "uint48",
                                    "name": "createDate",
                                    "type": "uint48"
                                },
                                {
                                    "internalType": "uint48",
                                    "name": "expireDate",
                                    "type": "uint48"
                                },
                                {
                                    "internalType": "uint40",
                                    "name": "pledgor",
                                    "type": "uint40"
                                },
                                {
                                    "internalType": "uint40",
                                    "name": "debtor",
                                    "type": "uint40"
                                }
                            ],
                            "internalType": "struct PledgesRepo.Head",
                            "name": "head",
                            "type": "tuple"
                        },
                        {
                            "components": [
                                {
                                    "internalType": "uint40",
                                    "name": "creditor",
                                    "type": "uint40"
                                },
                                {
                                    "internalType": "uint64",
                                    "name": "paid",
                                    "type": "uint64"
                                },
                                {
                                    "internalType": "uint64",
                                    "name": "par",
                                    "type": "uint64"
                                },
                                {
                                    "internalType": "uint64",
                                    "name": "guaranteedAmt",
                                    "type": "uint64"
                                }
                            ],
                            "internalType": "struct PledgesRepo.Body",
                            "name": "body",
                            "type": "tuple"
                        }
                    ],
                    "internalType": "struct PledgesRepo.Pledge",
                    "name": "",
                    "type": "tuple"
                }
            ],
            "stateMutability": "view",
            "type": "function"
        },
        {
            "inputs": [
                {
                    "internalType": "bytes32",
                    "name": "role",
                    "type": "bytes32"
                },
                {
                    "internalType": "uint256",
                    "name": "acct",
                    "type": "uint256"
                }
            ],
            "name": "grantRole",
            "outputs": [],
            "stateMutability": "nonpayable",
            "type": "function"
        },
        {
            "inputs": [
                {
                    "internalType": "bytes32",
                    "name": "role",
                    "type": "bytes32"
                },
                {
                    "internalType": "uint256",
                    "name": "acct",
                    "type": "uint256"
                }
            ],
            "name": "hasRole",
            "outputs": [
                {
                    "internalType": "bool",
                    "name": "",
                    "type": "bool"
                }
            ],
            "stateMutability": "view",
            "type": "function"
        },
        {
            "inputs": [
                {
                    "internalType": "uint256",
                    "name": "owner",
                    "type": "uint256"
                },
                {
                    "internalType": "address",
                    "name": "directKeeper",
                    "type": "address"
                },
                {
                    "internalType": "address",
                    "name": "regCenter",
                    "type": "address"
                },
                {
                    "internalType": "address",
                    "name": "generalKeeper",
                    "type": "address"
                }
            ],
            "name": "init",
            "outputs": [],
            "stateMutability": "nonpayable",
            "type": "function"
        },
        {
            "inputs": [
                {
                    "internalType": "uint256",
                    "name": "seqOfOpt",
                    "type": "uint256"
                },
                {
                    "internalType": "uint256",
                    "name": "acct",
                    "type": "uint256"
                }
            ],
            "name": "isObligor",
            "outputs": [
                {
                    "internalType": "bool",
                    "name": "",
                    "type": "bool"
                }
            ],
            "stateMutability": "view",
            "type": "function"
        },
        {
            "inputs": [
                {
                    "internalType": "uint256",
                    "name": "seqOfOpt",
                    "type": "uint256"
                }
            ],
            "name": "isOption",
            "outputs": [
                {
                    "internalType": "bool",
                    "name": "",
                    "type": "bool"
                }
            ],
            "stateMutability": "view",
            "type": "function"
        },
        {
            "inputs": [
                {
                    "components": [
                        {
                            "components": [
                                {
                                    "internalType": "uint32",
                                    "name": "seq",
                                    "type": "uint32"
                                },
                                {
                                    "internalType": "uint8",
                                    "name": "typeOfOpt",
                                    "type": "uint8"
                                },
                                {
                                    "internalType": "uint16",
                                    "name": "classOfShare",
                                    "type": "uint16"
                                },
                                {
                                    "internalType": "uint32",
                                    "name": "rate",
                                    "type": "uint32"
                                },
                                {
                                    "internalType": "uint48",
                                    "name": "issueDate",
                                    "type": "uint48"
                                },
                                {
                                    "internalType": "uint48",
                                    "name": "triggerDate",
                                    "type": "uint48"
                                },
                                {
                                    "internalType": "uint16",
                                    "name": "execDays",
                                    "type": "uint16"
                                },
                                {
                                    "internalType": "uint16",
                                    "name": "closingDays",
                                    "type": "uint16"
                                },
                                {
                                    "internalType": "uint8",
                                    "name": "state",
                                    "type": "uint8"
                                }
                            ],
                            "internalType": "struct OptionsRepo.Head",
                            "name": "head",
                            "type": "tuple"
                        },
                        {
                            "components": [
                                {
                                    "internalType": "uint32",
                                    "name": "seq",
                                    "type": "uint32"
                                },
                                {
                                    "internalType": "uint8",
                                    "name": "logicOpr",
                                    "type": "uint8"
                                },
                                {
                                    "internalType": "uint8",
                                    "name": "compOpr1",
                                    "type": "uint8"
                                },
                                {
                                    "internalType": "uint64",
                                    "name": "para1",
                                    "type": "uint64"
                                },
                                {
                                    "internalType": "uint8",
                                    "name": "compOpr2",
                                    "type": "uint8"
                                },
                                {
                                    "internalType": "uint64",
                                    "name": "para2",
                                    "type": "uint64"
                                },
                                {
                                    "internalType": "uint8",
                                    "name": "compOpr3",
                                    "type": "uint8"
                                },
                                {
                                    "internalType": "uint64",
                                    "name": "para3",
                                    "type": "uint64"
                                }
                            ],
                            "internalType": "struct CondsRepo.Cond",
                            "name": "cond",
                            "type": "tuple"
                        },
                        {
                            "components": [
                                {
                                    "internalType": "uint48",
                                    "name": "closingDate",
                                    "type": "uint48"
                                },
                                {
                                    "internalType": "uint40",
                                    "name": "rightholder",
                                    "type": "uint40"
                                },
                                {
                                    "internalType": "uint40",
                                    "name": "obligor",
                                    "type": "uint40"
                                },
                                {
                                    "internalType": "uint64",
                                    "name": "paid",
                                    "type": "uint64"
                                },
                                {
                                    "internalType": "uint64",
                                    "name": "par",
                                    "type": "uint64"
                                }
                            ],
                            "internalType": "struct OptionsRepo.Body",
                            "name": "body",
                            "type": "tuple"
                        },
                        {
                            "internalType": "bytes32",
                            "name": "hashLock",
                            "type": "bytes32"
                        }
                    ],
                    "internalType": "struct OptionsRepo.Option",
                    "name": "opt",
                    "type": "tuple"
                }
            ],
            "name": "issueOption",
            "outputs": [
                {
                    "internalType": "uint32",
                    "name": "seqOfOpt",
                    "type": "uint32"
                }
            ],
            "stateMutability": "nonpayable",
            "type": "function"
        },
        {
            "inputs": [],
            "name": "lockContents",
            "outputs": [],
            "stateMutability": "nonpayable",
            "type": "function"
        },
        {
            "inputs": [
                {
                    "internalType": "uint256",
                    "name": "seqOfOpt",
                    "type": "uint256"
                },
                {
                    "internalType": "bytes32",
                    "name": "hashLock",
                    "type": "bytes32"
                }
            ],
            "name": "lockOption",
            "outputs": [],
            "stateMutability": "nonpayable",
            "type": "function"
        },
        {
            "inputs": [
                {
                    "internalType": "uint256",
                    "name": "seqOfOpt",
                    "type": "uint256"
                }
            ],
            "name": "obligorsOfOption",
            "outputs": [
                {
                    "internalType": "uint256[]",
                    "name": "",
                    "type": "uint256[]"
                }
            ],
            "stateMutability": "view",
            "type": "function"
        },
        {
            "inputs": [],
            "name": "optsList",
            "outputs": [
                {
                    "components": [
                        {
                            "components": [
                                {
                                    "internalType": "uint32",
                                    "name": "seq",
                                    "type": "uint32"
                                },
                                {
                                    "internalType": "uint8",
                                    "name": "typeOfOpt",
                                    "type": "uint8"
                                },
                                {
                                    "internalType": "uint16",
                                    "name": "classOfShare",
                                    "type": "uint16"
                                },
                                {
                                    "internalType": "uint32",
                                    "name": "rate",
                                    "type": "uint32"
                                },
                                {
                                    "internalType": "uint48",
                                    "name": "issueDate",
                                    "type": "uint48"
                                },
                                {
                                    "internalType": "uint48",
                                    "name": "triggerDate",
                                    "type": "uint48"
                                },
                                {
                                    "internalType": "uint16",
                                    "name": "execDays",
                                    "type": "uint16"
                                },
                                {
                                    "internalType": "uint16",
                                    "name": "closingDays",
                                    "type": "uint16"
                                },
                                {
                                    "internalType": "uint8",
                                    "name": "state",
                                    "type": "uint8"
                                }
                            ],
                            "internalType": "struct OptionsRepo.Head",
                            "name": "head",
                            "type": "tuple"
                        },
                        {
                            "components": [
                                {
                                    "internalType": "uint32",
                                    "name": "seq",
                                    "type": "uint32"
                                },
                                {
                                    "internalType": "uint8",
                                    "name": "logicOpr",
                                    "type": "uint8"
                                },
                                {
                                    "internalType": "uint8",
                                    "name": "compOpr1",
                                    "type": "uint8"
                                },
                                {
                                    "internalType": "uint64",
                                    "name": "para1",
                                    "type": "uint64"
                                },
                                {
                                    "internalType": "uint8",
                                    "name": "compOpr2",
                                    "type": "uint8"
                                },
                                {
                                    "internalType": "uint64",
                                    "name": "para2",
                                    "type": "uint64"
                                },
                                {
                                    "internalType": "uint8",
                                    "name": "compOpr3",
                                    "type": "uint8"
                                },
                                {
                                    "internalType": "uint64",
                                    "name": "para3",
                                    "type": "uint64"
                                }
                            ],
                            "internalType": "struct CondsRepo.Cond",
                            "name": "cond",
                            "type": "tuple"
                        },
                        {
                            "components": [
                                {
                                    "internalType": "uint48",
                                    "name": "closingDate",
                                    "type": "uint48"
                                },
                                {
                                    "internalType": "uint40",
                                    "name": "rightholder",
                                    "type": "uint40"
                                },
                                {
                                    "internalType": "uint40",
                                    "name": "obligor",
                                    "type": "uint40"
                                },
                                {
                                    "internalType": "uint64",
                                    "name": "paid",
                                    "type": "uint64"
                                },
                                {
                                    "internalType": "uint64",
                                    "name": "par",
                                    "type": "uint64"
                                }
                            ],
                            "internalType": "struct OptionsRepo.Body",
                            "name": "body",
                            "type": "tuple"
                        },
                        {
                            "internalType": "bytes32",
                            "name": "hashLock",
                            "type": "bytes32"
                        }
                    ],
                    "internalType": "struct OptionsRepo.Option[]",
                    "name": "",
                    "type": "tuple[]"
                }
            ],
            "stateMutability": "view",
            "type": "function"
        },
        {
            "inputs": [
                {
                    "internalType": "uint256",
                    "name": "seqOfOpt",
                    "type": "uint256"
                },
                {
                    "internalType": "uint48",
                    "name": "date",
                    "type": "uint48"
                }
            ],
            "name": "oracleAtDate",
            "outputs": [
                {
                    "components": [
                        {
                            "internalType": "uint48",
                            "name": "timestamp",
                            "type": "uint48"
                        },
                        {
                            "internalType": "uint64",
                            "name": "paid",
                            "type": "uint64"
                        },
                        {
                            "internalType": "uint64",
                            "name": "par",
                            "type": "uint64"
                        },
                        {
                            "internalType": "uint64",
                            "name": "cleanPaid",
                            "type": "uint64"
                        }
                    ],
                    "internalType": "struct Checkpoints.Checkpoint",
                    "name": "",
                    "type": "tuple"
                }
            ],
            "stateMutability": "view",
            "type": "function"
        },
        {
            "inputs": [
                {
                    "internalType": "uint256",
                    "name": "seqOfOpt",
                    "type": "uint256"
                }
            ],
            "name": "oraclesOfOption",
            "outputs": [
                {
                    "components": [
                        {
                            "internalType": "uint48",
                            "name": "timestamp",
                            "type": "uint48"
                        },
                        {
                            "internalType": "uint64",
                            "name": "paid",
                            "type": "uint64"
                        },
                        {
                            "internalType": "uint64",
                            "name": "par",
                            "type": "uint64"
                        },
                        {
                            "internalType": "uint64",
                            "name": "cleanPaid",
                            "type": "uint64"
                        }
                    ],
                    "internalType": "struct Checkpoints.Checkpoint[]",
                    "name": "",
                    "type": "tuple[]"
                }
            ],
            "stateMutability": "view",
            "type": "function"
        },
        {
            "inputs": [
                {
                    "internalType": "uint256",
                    "name": "seqOfOpt",
                    "type": "uint256"
                }
            ],
            "name": "ordersOfOption",
            "outputs": [
                {
                    "components": [
                        {
                            "internalType": "uint16",
                            "name": "seq",
                            "type": "uint16"
                        },
                        {
                            "internalType": "uint32",
                            "name": "seqOfShare",
                            "type": "uint32"
                        },
                        {
                            "internalType": "uint40",
                            "name": "seller",
                            "type": "uint40"
                        },
                        {
                            "internalType": "uint40",
                            "name": "buyer",
                            "type": "uint40"
                        },
                        {
                            "internalType": "uint64",
                            "name": "paid",
                            "type": "uint64"
                        },
                        {
                            "internalType": "uint64",
                            "name": "par",
                            "type": "uint64"
                        }
                    ],
                    "internalType": "struct OptionsRepo.Order[]",
                    "name": "",
                    "type": "tuple[]"
                }
            ],
            "stateMutability": "view",
            "type": "function"
        },
        {
            "inputs": [
                {
                    "internalType": "uint256",
                    "name": "seqOfOpt",
                    "type": "uint256"
                }
            ],
            "name": "pledgesOfOption",
            "outputs": [
                {
                    "components": [
                        {
                            "components": [
                                {
                                    "internalType": "uint32",
                                    "name": "seqOfShare",
                                    "type": "uint32"
                                },
                                {
                                    "internalType": "uint32",
                                    "name": "seqOfPld",
                                    "type": "uint32"
                                },
                                {
                                    "internalType": "uint48",
                                    "name": "createDate",
                                    "type": "uint48"
                                },
                                {
                                    "internalType": "uint48",
                                    "name": "expireDate",
                                    "type": "uint48"
                                },
                                {
                                    "internalType": "uint40",
                                    "name": "pledgor",
                                    "type": "uint40"
                                },
                                {
                                    "internalType": "uint40",
                                    "name": "debtor",
                                    "type": "uint40"
                                }
                            ],
                            "internalType": "struct PledgesRepo.Head",
                            "name": "head",
                            "type": "tuple"
                        },
                        {
                            "components": [
                                {
                                    "internalType": "uint40",
                                    "name": "creditor",
                                    "type": "uint40"
                                },
                                {
                                    "internalType": "uint64",
                                    "name": "paid",
                                    "type": "uint64"
                                },
                                {
                                    "internalType": "uint64",
                                    "name": "par",
                                    "type": "uint64"
                                },
                                {
                                    "internalType": "uint64",
                                    "name": "guaranteedAmt",
                                    "type": "uint64"
                                }
                            ],
                            "internalType": "struct PledgesRepo.Body",
                            "name": "body",
                            "type": "tuple"
                        }
                    ],
                    "internalType": "struct PledgesRepo.Pledge[]",
                    "name": "",
                    "type": "tuple[]"
                }
            ],
            "stateMutability": "view",
            "type": "function"
        },
        {
            "inputs": [
                {
                    "internalType": "address",
                    "name": "opts",
                    "type": "address"
                }
            ],
            "name": "registerOption",
            "outputs": [],
            "stateMutability": "nonpayable",
            "type": "function"
        },
        {
            "inputs": [
                {
                    "internalType": "uint256",
                    "name": "seqOfOpt",
                    "type": "uint256"
                },
                {
                    "internalType": "uint256",
                    "name": "obligor",
                    "type": "uint256"
                }
            ],
            "name": "removeObligorFromOption",
            "outputs": [],
            "stateMutability": "nonpayable",
            "type": "function"
        },
        {
            "inputs": [
                {
                    "internalType": "bytes32",
                    "name": "role",
                    "type": "bytes32"
                }
            ],
            "name": "renounceRole",
            "outputs": [],
            "stateMutability": "nonpayable",
            "type": "function"
        },
        {
            "inputs": [
                {
                    "internalType": "uint256",
                    "name": "seqOfOpt",
                    "type": "uint256"
                },
                {
                    "components": [
                        {
                            "components": [
                                {
                                    "internalType": "uint32",
                                    "name": "seqOfShare",
                                    "type": "uint32"
                                },
                                {
                                    "internalType": "uint32",
                                    "name": "seqOfPld",
                                    "type": "uint32"
                                },
                                {
                                    "internalType": "uint48",
                                    "name": "createDate",
                                    "type": "uint48"
                                },
                                {
                                    "internalType": "uint48",
                                    "name": "expireDate",
                                    "type": "uint48"
                                },
                                {
                                    "internalType": "uint40",
                                    "name": "pledgor",
                                    "type": "uint40"
                                },
                                {
                                    "internalType": "uint40",
                                    "name": "debtor",
                                    "type": "uint40"
                                }
                            ],
                            "internalType": "struct PledgesRepo.Head",
                            "name": "head",
                            "type": "tuple"
                        },
                        {
                            "components": [
                                {
                                    "internalType": "uint40",
                                    "name": "creditor",
                                    "type": "uint40"
                                },
                                {
                                    "internalType": "uint64",
                                    "name": "paid",
                                    "type": "uint64"
                                },
                                {
                                    "internalType": "uint64",
                                    "name": "par",
                                    "type": "uint64"
                                },
                                {
                                    "internalType": "uint64",
                                    "name": "guaranteedAmt",
                                    "type": "uint64"
                                }
                            ],
                            "internalType": "struct PledgesRepo.Body",
                            "name": "body",
                            "type": "tuple"
                        }
                    ],
                    "internalType": "struct PledgesRepo.Pledge",
                    "name": "pledge",
                    "type": "tuple"
                }
            ],
            "name": "requestPledge",
            "outputs": [],
            "stateMutability": "nonpayable",
            "type": "function"
        },
        {
            "inputs": [
                {
                    "internalType": "uint256",
                    "name": "seqOfOpt",
                    "type": "uint256"
                },
                {
                    "internalType": "string",
                    "name": "hashKey",
                    "type": "string"
                }
            ],
            "name": "revokeOption",
            "outputs": [],
            "stateMutability": "nonpayable",
            "type": "function"
        },
        {
            "inputs": [
                {
                    "internalType": "bytes32",
                    "name": "role",
                    "type": "bytes32"
                },
                {
                    "internalType": "uint256",
                    "name": "acct",
                    "type": "uint256"
                }
            ],
            "name": "revokeRole",
            "outputs": [],
            "stateMutability": "nonpayable",
            "type": "function"
        },
        {
            "inputs": [
                {
                    "internalType": "address",
                    "name": "keeper",
                    "type": "address"
                }
            ],
            "name": "setDirectKeeper",
            "outputs": [],
            "stateMutability": "nonpayable",
            "type": "function"
        },
        {
            "inputs": [
                {
                    "internalType": "uint256",
                    "name": "acct",
                    "type": "uint256"
                }
            ],
            "name": "setGeneralCounsel",
            "outputs": [],
            "stateMutability": "nonpayable",
            "type": "function"
        },
        {
            "inputs": [
                {
                    "internalType": "uint256",
                    "name": "acct",
                    "type": "uint256"
                }
            ],
            "name": "setOwner",
            "outputs": [],
            "stateMutability": "nonpayable",
            "type": "function"
        },
        {
            "inputs": [
                {
                    "internalType": "bytes32",
                    "name": "role",
                    "type": "bytes32"
                },
                {
                    "internalType": "uint256",
                    "name": "acct",
                    "type": "uint256"
                }
            ],
            "name": "setRoleAdmin",
            "outputs": [],
            "stateMutability": "nonpayable",
            "type": "function"
        },
        {
            "inputs": [
                {
                    "internalType": "uint256",
                    "name": "seqOfOpt",
                    "type": "uint256"
                }
            ],
            "name": "stateOfOption",
            "outputs": [
                {
                    "internalType": "uint8",
                    "name": "",
                    "type": "uint8"
                }
            ],
            "stateMutability": "view",
            "type": "function"
        },
        {
            "inputs": [
                {
                    "internalType": "uint256",
                    "name": "seqOfOpt",
                    "type": "uint256"
                },
                {
                    "internalType": "uint64",
                    "name": "d1",
                    "type": "uint64"
                },
                {
                    "internalType": "uint64",
                    "name": "d2",
                    "type": "uint64"
                },
                {
                    "internalType": "uint64",
                    "name": "d3",
                    "type": "uint64"
                }
            ],
            "name": "updateOracle",
            "outputs": [],
            "stateMutability": "nonpayable",
            "type": "function"
        }
    ],
    "bytecode": "608060405234801561001057600080fd5b50614e6a806100206000396000f3fe608060405234801561001057600080fd5b506004361061025e5760003560e01c80637e063c5a11610146578063adaa55df116100c3578063c8fe1dc411610087578063c8fe1dc4146105d1578063dc890da9146105e4578063de9a7863146105f7578063ed2110231461060a578063f045a7691461062a578063f30c25601461063257600080fd5b8063adaa55df14610557578063b3be456a14610577578063b3f05b971461058a578063c350dc311461059e578063c41d60c0146105b157600080fd5b8063893d20e81161010a578063893d20e8146105035780638bb9c5bf1461050b5780639732f48f1461051e578063a24132e814610531578063a50862781461054457600080fd5b80637e063c5a146104775780638041494e1461048a57806385062bba1461049d57806385e14191146104b0578063876c62e8146104e357600080fd5b80633bce3c30116101df5780635c68b8fa116101a35780635c68b8fa146103f1578063642df7fa14610416578063644ebdb4146104295780636555ff7a1461043c5780636865ab4d1461044f5780636be8496f1461046457600080fd5b80633bce3c30146103755780633da9a6001461039857806346629b1e146103ab5780634a14beb1146103cb5780635171ebd4146103de57600080fd5b80631b6ea9f9116102265780631b6ea9f9146102fc5780631ce5e9a61461030f5780631d565c071461032f5780632b6c0ce114610342578063368b85d71461035557600080fd5b80630e0eaee614610263578063103f6edd1461028c5780631203979e146102aa5780631368f327146102ca57806319d61ad9146102e7575b600080fd5b610276610271366004613644565b610645565b604051610283919061365d565b60405180910390f35b610294610714565b60405164ffffffffff9091168152602001610283565b6102bd6102b83660046136c8565b6107a0565b60405161028391906136f8565b6102d2610897565b60405163ffffffff9091168152602001610283565b6102fa6102f5366004613740565b61091c565b005b6102fa61030a366004613740565b6109b0565b61032261031d366004613644565b6109d5565b6040516102839190613933565b6102fa61033d366004613740565b610e84565b6102fa610350366004613962565b611007565b610368610363366004613644565b611196565b6040516102839190613a15565b610388610383366004613740565b611255565b6040519015158152602001610283565b6102fa6103a6366004613644565b611317565b6103be6103b9366004613644565b61142a565b6040516102839190613b06565b6102fa6103d9366004613644565b6114e9565b6102fa6103ec366004613740565b6116d9565b6104046103ff366004613644565b6116fe565b60405160ff9091168152602001610283565b6102d2610424366004613dec565b611744565b6102fa610437366004613740565b6118c5565b6102fa61044a366004613644565b611a1b565b610457611b1b565b6040516102839190613ef3565b6102fa610472366004613f4b565b611ba4565b610388610485366004613740565b611c56565b6102fa610498366004613644565b611cf3565b6102fa6104ab366004613fd0565b611ed8565b6104c36104be366004613644565b612073565b604080516001600160401b03938416815292909116602083015201610283565b6104f66104f1366004613740565b612144565b60405161028391906140ac565b6102946122c4565b6102fa610519366004613644565b6122ff565b6102fa61052c3660046140bb565b612358565b6102fa61053f366004613740565b6124a3565b6104c3610552366004613644565b612619565b61056a610565366004613644565b6126ea565b6040516102839190614159565b610388610585366004613644565b6127b2565b60028054600160f01b900460ff1614610388565b6102fa6105ac3660046140bb565b6127d5565b6105c46105bf366004613740565b61291f565b60405161028391906141d5565b6102d26105df3660046141e3565b612a0d565b6102fa6105f2366004614253565b612bb1565b6102fa61060536600461429b565b612c94565b610612612e1d565b6040516001600160a01b039091168152602001610283565b6102fa612ea3565b6102fa610640366004613f4b565b6130c1565b606081610651816127b2565b6106765760405162461bcd60e51b815260040161066d90614348565b60405180910390fd5b60008381526005602052604090819020905163034306e160e21b8152600481019190915273__$8c1a4844a0a0988ea2454cf87145a95df1$__90630d0c1b849060240160006040518083038186803b1580156106d157600080fd5b505af41580156106e5573d6000803e3d6000fd5b505050506040513d6000823e601f3d908101601f1916820160405261070d91908101906143a2565b9392505050565b60405163e8c0cc1d60e01b81526002600482015260009073__$364aad554dc80380f414546becdd2c1584$__9063e8c0cc1d906024015b60206040518083038186803b15801561076357600080fd5b505af4158015610777573d6000803e3d6000fd5b505050506040513d601f19601f8201168201806040525081019061079b9190614437565b905090565b604080516080810182526000808252602082018190529181018290526060810191909152826107ce816127b2565b6107ea5760405162461bcd60e51b815260040161066d90614348565b60008481526005602052604090819020905163e8fce06b60e01b815260049182019181019190915265ffffffffffff8416602482015273__$9d89bb4a2fad48898c323b0a17741df93a$__9063e8fce06b9060440160806040518083038186803b15801561085757600080fd5b505af415801561086b573d6000803e3d6000fd5b505050506040513d601f19601f8201168201806040525081019061088f91906144c7565b949350505050565b6040516316cfb4dd60e21b815260048082015260009073__$bd0f380ab135f83a7568cac3e5fc41e1e4$__90635b3ed3749060240160206040518083038186803b1580156108e457600080fd5b505af41580156108f8573d6000803e3d6000fd5b505050506040513d601f19601f8201168201806040525081019061079b91906144ee565b73__$364aad554dc80380f414546becdd2c1584$__6382daafaa600284610941613484565b6040516001600160e01b031960e086901b1681526004810193909352602483019190915264ffffffffff166044820152606481018490526084015b60006040518083038186803b15801561099457600080fd5b505af41580156109a8573d6000803e3d6000fd5b505050505050565b73__$364aad554dc80380f414546becdd2c1584$__636320d75e600284610941613484565b610aac604080516101a0810190915260006080820181815260a0830182905260c0830182905260e08301829052610100830182905261012083018290526101408301829052610160830182905261018083019190915281908152604080516101008101825260008082526020828101829052928201819052606082018190526080820181905260a0820181905260c0820181905260e082015291019081526040805160a081018252600080825260208281018290529282018190526060820181905260808201529101908152600060209091015290565b81610ab6816127b2565b610ad25760405162461bcd60e51b815260040161066d90614348565b6004600001600084815260200190815260200160002060405180608001604052908160008201604051806101200160405290816000820160009054906101000a900463ffffffff1663ffffffff1663ffffffff1681526020016000820160049054906101000a900460ff1660ff1660ff1681526020016000820160059054906101000a900461ffff1661ffff1661ffff1681526020016000820160079054906101000a900463ffffffff1663ffffffff1663ffffffff16815260200160008201600b9054906101000a900465ffffffffffff1665ffffffffffff1665ffffffffffff1681526020016000820160119054906101000a900465ffffffffffff1665ffffffffffff1665ffffffffffff1681526020016000820160179054906101000a900461ffff1661ffff1661ffff1681526020016000820160199054906101000a900461ffff1661ffff1661ffff16815260200160008201601b9054906101000a900460ff1660ff1660ff1681525050815260200160018201604051806101000160405290816000820160009054906101000a900463ffffffff1663ffffffff1663ffffffff1681526020016000820160049054906101000a900460ff1660ff1660ff1681526020016000820160059054906101000a900460ff1660ff1660ff1681526020016000820160069054906101000a90046001600160401b03166001600160401b03166001600160401b0316815260200160008201600e9054906101000a900460ff1660ff1660ff16815260200160008201600f9054906101000a90046001600160401b03166001600160401b03166001600160401b031681526020016000820160179054906101000a900460ff1660ff1660ff1681526020016000820160189054906101000a90046001600160401b03166001600160401b03166001600160401b0316815250508152602001600282016040518060a00160405290816000820160009054906101000a900465ffffffffffff1665ffffffffffff1665ffffffffffff1681526020016000820160069054906101000a900464ffffffffff1664ffffffffff1664ffffffffff16815260200160008201600b9054906101000a900464ffffffffff1664ffffffffff1664ffffffffff1681526020016000820160109054906101000a90046001600160401b03166001600160401b03166001600160401b031681526020016000820160189054906101000a90046001600160401b03166001600160401b03166001600160401b0316815250508152602001600382015481525050915050919050565b604051633b11adbf60e21b81526002600482015233602482015273__$364aad554dc80380f414546becdd2c1584$__9063ec46b6fc9060440160206040518083038186803b158015610ed557600080fd5b505af4158015610ee9573d6000803e3d6000fd5b505050506040513d601f19601f82011682018060405250810190610f0d919061450b565b610f295760405162461bcd60e51b815260040161066d9061452d565b6000828152600560205260409081902090516392fd02df60e01b815260048101919091526024810182905273__$8c1a4844a0a0988ea2454cf87145a95df1$__906392fd02df9060440160206040518083038186803b158015610f8b57600080fd5b505af4158015610f9f573d6000803e3d6000fd5b505050506040513d601f19601f82011682018060405250810190610fc3919061450b565b1561100357817f5099b84fedf2037c6ff782c44b0ac2843f775d48f7037b6b1695993f87ed8bda82604051610ffa91815260200190565b60405180910390a25b5050565b604051633b11adbf60e21b81526002600482015233602482015273__$364aad554dc80380f414546becdd2c1584$__9063ec46b6fc9060440160206040518083038186803b15801561105857600080fd5b505af415801561106c573d6000803e3d6000fd5b505050506040513d601f19601f82011682018060405250810190611090919061450b565b6110ac5760405162461bcd60e51b815260040161066d9061452d565b6000848152600560205260409081902090516320c1b15d60e01b81526004918201918101919091526001600160401b03808516602483015280841660448301528216606482015273__$9d89bb4a2fad48898c323b0a17741df93a$__906320c1b15d9060840160006040518083038186803b15801561112a57600080fd5b505af415801561113e573d6000803e3d6000fd5b5050604080516001600160401b038781168252868116602083015285168183015290518793507f2744eeae7a9f0b21012041a63eb0df8898bd6357f273064a02946ba4f6f79af892509081900360600190a250505050565b6060816111a2816127b2565b6111be5760405162461bcd60e51b815260040161066d90614348565b60008381526005602052604090819020905163237398c960e11b8152600481019190915273__$bd0f380ab135f83a7568cac3e5fc41e1e4$__906346e731929060240160006040518083038186803b15801561121957600080fd5b505af415801561122d573d6000803e3d6000fd5b505050506040513d6000823e601f3d908101601f1916820160405261070d919081019061457e565b600082611261816127b2565b61127d5760405162461bcd60e51b815260040161066d90614348565b600084815260056020526040908190209051633f5f77cd60e01b815260048101919091526024810184905273__$8c1a4844a0a0988ea2454cf87145a95df1$__90633f5f77cd9060440160206040518083038186803b1580156112df57600080fd5b505af41580156112f3573d6000803e3d6000fd5b505050506040513d601f19601f8201168201806040525081019061088f919061450b565b604051633b11adbf60e21b81526002600482015233602482015273__$364aad554dc80380f414546becdd2c1584$__9063ec46b6fc9060440160206040518083038186803b15801561136857600080fd5b505af415801561137c573d6000803e3d6000fd5b505050506040513d601f19601f820116820180604052508101906113a0919061450b565b6113bc5760405162461bcd60e51b815260040161066d9061452d565b60405163cc99e11b60e01b8152600260048201526024810182905273__$364aad554dc80380f414546becdd2c1584$__9063cc99e11b906044015b60006040518083038186803b15801561140f57600080fd5b505af4158015611423573d6000803e3d6000fd5b5050505050565b606081611436816127b2565b6114525760405162461bcd60e51b815260040161066d90614348565b60008381526005602052604090819020905163db39c3fd60e01b8152600481019190915273__$bd0f380ab135f83a7568cac3e5fc41e1e4$__9063db39c3fd9060240160006040518083038186803b1580156114ad57600080fd5b505af41580156114c1573d6000803e3d6000fd5b505050506040513d6000823e601f3d908101601f1916820160405261070d91908101906146b6565b604051633b11adbf60e21b81526002600482015233602482015273__$364aad554dc80380f414546becdd2c1584$__9063ec46b6fc9060440160206040518083038186803b15801561153a57600080fd5b505af415801561154e573d6000803e3d6000fd5b505050506040513d601f19601f82011682018060405250810190611572919061450b565b80611617575073__$364aad554dc80380f414546becdd2c1584$__63fe271086600261159c613484565b6040516001600160e01b031960e085901b168152600481019290925264ffffffffff16602482015260440160206040518083038186803b1580156115df57600080fd5b505af41580156115f3573d6000803e3d6000fd5b505050506040513d601f19601f82011682018060405250810190611617919061450b565b6116335760405162461bcd60e51b815260040161066d906147ec565b604051632725ebef60e21b8152600260048201526024810182905273__$364aad554dc80380f414546becdd2c1584$__90639c97afbc9060440160006040518083038186803b15801561168557600080fd5b505af4158015611699573d6000803e3d6000fd5b505050507ff2735f34b69be1e6342dea95f9162f84d0db925fab655ca9f1f312ac8cbfc99d816040516116ce91815260200190565b60405180910390a150565b73__$364aad554dc80380f414546becdd2c1584$__63ee98b313600284610941613484565b60008161170a816127b2565b6117265760405162461bcd60e51b815260040161066d90614348565b5050600090815260046020526040902054600160d81b900460ff1690565b6001546040516335d2155560e11b81523360048201526000916001600160a01b031690636ba42aaa9060240160206040518083038186803b15801561178857600080fd5b505afa15801561179c573d6000803e3d6000fd5b505050506040513d601f19601f820116820180604052508101906117c0919061450b565b6117dc5760405162461bcd60e51b815260040161066d90614842565b6040516308479ba160e31b815273__$bd0f380ab135f83a7568cac3e5fc41e1e4$__9063423cdd0890611815906004908690820161486d565b60206040518083038186803b15801561182d57600080fd5b505af4158015611841573d6000803e3d6000fd5b505050506040513d601f19601f8201168201806040525081019061186591906144ee565b6040808401516020810151818301516060830151608090930151935194955063ffffffff8616947f38089df9a79fe697c784c1d8ecef4f61a584031214fd618d56b5bf64306748fa946118b894916148c1565b60405180910390a2919050565b604051633b11adbf60e21b81526002600482015233602482015273__$364aad554dc80380f414546becdd2c1584$__9063ec46b6fc9060440160206040518083038186803b15801561191657600080fd5b505af415801561192a573d6000803e3d6000fd5b505050506040513d601f19601f8201168201806040525081019061194e919061450b565b61196a5760405162461bcd60e51b815260040161066d9061452d565b6000828152600460208190526040918290209151631831764160e01b815273__$bd0f380ab135f83a7568cac3e5fc41e1e4$__926318317641926119b992869101918252602082015260400190565b60006040518083038186803b1580156119d157600080fd5b505af41580156119e5573d6000803e3d6000fd5b50505050817f13d465d956c656753c85487e10a280d7abc58cecf80e24885feaf1c4d665b39182604051610ffa91815260200190565b6001546040516335d2155560e11b81523360048201526001600160a01b0390911690636ba42aaa9060240160206040518083038186803b158015611a5e57600080fd5b505afa158015611a72573d6000803e3d6000fd5b505050506040513d601f19601f82011682018060405250810190611a96919061450b565b611ab25760405162461bcd60e51b815260040161066d90614842565b60405181907fc494b4ad56dac341aecc01dcffc2710feac31822a34b6428c4a76d8f155ca4cc90600090a2604051631f7e910760e31b81526004808201526024810182905273__$bd0f380ab135f83a7568cac3e5fc41e1e4$__9063fbf48838906044016113f7565b6040516301623dc360e71b815260048082015260609073__$bd0f380ab135f83a7568cac3e5fc41e1e4$__9063b11ee1809060240160006040518083038186803b158015611b6857600080fd5b505af4158015611b7c573d6000803e3d6000fd5b505050506040513d6000823e601f3d908101601f1916820160405261079b9190810190614b12565b604051630f07232560e01b8152600260048201523360248201526001600160a01b038216604482015273__$364aad554dc80380f414546becdd2c1584$__90630f0723259060640160006040518083038186803b158015611c0457600080fd5b505af4158015611c18573d6000803e3d6000fd5b50506040516001600160a01b03841681527fe435cbeab64e4eae6497b9d8289704bd709d624a80704ef3ca9af777534bc6ec925060200190506116ce565b604051632a3be56b60e21b815260026004820152602481018390526044810182905260009073__$364aad554dc80380f414546becdd2c1584$__9063a8ef95ac9060640160206040518083038186803b158015611cb257600080fd5b505af4158015611cc6573d6000803e3d6000fd5b505050506040513d601f19601f82011682018060405250810190611cea919061450b565b90505b92915050565b604051633b11adbf60e21b81526002600482015233602482015273__$364aad554dc80380f414546becdd2c1584$__9063ec46b6fc9060440160206040518083038186803b158015611d4457600080fd5b505af4158015611d58573d6000803e3d6000fd5b505050506040513d601f19601f82011682018060405250810190611d7c919061450b565b80611e21575073__$364aad554dc80380f414546becdd2c1584$__63fe2710866002611da6613484565b6040516001600160e01b031960e085901b168152600481019290925264ffffffffff16602482015260440160206040518083038186803b158015611de957600080fd5b505af4158015611dfd573d6000803e3d6000fd5b505050506040513d601f19601f82011682018060405250810190611e21919061450b565b611e3d5760405162461bcd60e51b815260040161066d906147ec565b60405163b6e38a2960e01b8152600260048201526024810182905273__$364aad554dc80380f414546becdd2c1584$__9063b6e38a299060440160006040518083038186803b158015611e8f57600080fd5b505af4158015611ea3573d6000803e3d6000fd5b505050507f8b6f40f36b4ae8cc5f55e895036457c43da4ab1f80f58c46f5ff0d72a650033b816040516116ce91815260200190565b604051633b11adbf60e21b81526002600482015233602482015273__$364aad554dc80380f414546becdd2c1584$__9063ec46b6fc9060440160206040518083038186803b158015611f2957600080fd5b505af4158015611f3d573d6000803e3d6000fd5b505050506040513d601f19601f82011682018060405250810190611f61919061450b565b611f7d5760405162461bcd60e51b815260040161066d9061452d565b60405163046f0d0960e51b815273__$bd0f380ab135f83a7568cac3e5fc41e1e4$__90638de1a12090611fb890600490869086908301614ba0565b60206040518083038186803b158015611fd057600080fd5b505af4158015611fe4573d6000803e3d6000fd5b505050506040513d601f19601f82011682018060405250810190612008919061450b565b156110035780515160208083015190810151604091820151915185937f563b52cf3592489c9cee0cdb96678961ca82f507adf84cb9441953da3cbc986493610ffa93919263ffffffff9390931683526001600160401b03918216602084015216604082015260600190565b60008082612080816127b2565b61209c5760405162461bcd60e51b815260040161066d90614348565b6000848152600560209081526040808320838052600290810183528184205488855260049093529220909101546120eb916001600160401b03600160801b918290048116929190910416614c22565b60008581526005602090815260408083208380526002908101835281842054898552600490935292209091015491945061213c916001600160401b03600160c01b9283900481169290910416614c22565b915050915091565b6121ab60408051610100810182526000918101828152606082018390526080820183905260a0820183905260c0820183905260e082019290925290819081526040805160808101825260008082526020828101829052928201819052606082015291015290565b826121b5816127b2565b6121d15760405162461bcd60e51b815260040161066d90614348565b505060009182526005602090815260408084209284526003909201815291819020815161010081018352815463ffffffff808216838601908152640100000000830490911660608085019190915265ffffffffffff6801000000000000000084048116608080870191909152600160701b850490911660a086015264ffffffffff600160a01b8504811660c0870152600160c81b909404841660e08601529184528551918201865260019094015491821681526001600160401b03650100000000008304811682880152600160681b8304811695820195909552600160a81b909104909316918301919091529182015290565b60405163987ad15360e01b81526002600482015260009073__$364aad554dc80380f414546becdd2c1584$__9063987ad1539060240161074b565b6000612309613484565b60405163cc0d511b60e01b8152600260048201526024810184905264ffffffffff8216604482015290915073__$364aad554dc80380f414546becdd2c1584$__9063cc0d511b9060640161097c565b604051633b11adbf60e21b81526002600482015233602482015273__$364aad554dc80380f414546becdd2c1584$__9063ec46b6fc9060440160206040518083038186803b1580156123a957600080fd5b505af41580156123bd573d6000803e3d6000fd5b505050506040513d601f19601f820116820180604052508101906123e1919061450b565b6123fd5760405162461bcd60e51b815260040161066d9061452d565b60008281526004602081905260409182902091516381a8298560e01b815273__$bd0f380ab135f83a7568cac3e5fc41e1e4$__926381a829859261244392869101614c97565b60006040518083038186803b15801561245b57600080fd5b505af415801561246f573d6000803e3d6000fd5b50505050817f43adb4e21a2466a8ac0593d1b9ab25b8614735dd54fc5e9edca2145146bdfbff82604051610ffa9190614cb0565b604051633b11adbf60e21b81526002600482015233602482015273__$364aad554dc80380f414546becdd2c1584$__9063ec46b6fc9060440160206040518083038186803b1580156124f457600080fd5b505af4158015612508573d6000803e3d6000fd5b505050506040513d601f19601f8201168201806040525081019061252c919061450b565b6125485760405162461bcd60e51b815260040161066d9061452d565b6000828152600560205260409081902090516392f13c3f60e01b815260048101919091526024810182905273__$8c1a4844a0a0988ea2454cf87145a95df1$__906392f13c3f9060440160206040518083038186803b1580156125aa57600080fd5b505af41580156125be573d6000803e3d6000fd5b505050506040513d601f19601f820116820180604052508101906125e2919061450b565b1561100357817f26dd4a901a5050dc1c995e66afc62c5aa03293381756199f49f62b57e197ea9882604051610ffa91815260200190565b60008082612626816127b2565b6126425760405162461bcd60e51b815260040161066d90614348565b600084815260056020908152604080832083805260038101835281842060010154600290910190925290912054612695916501000000000090046001600160401b0390811691600160801b900416614c22565b60008581526005602090815260408083208380526003810183528184206001015460029091019092529091205491945061213c91600160681b9091046001600160401b0390811691600160c01b900416614c22565b6060816126f6816127b2565b6127125760405162461bcd60e51b815260040161066d90614348565b60008381526005602052604090819020905163e60e18a560e01b815273__$9d89bb4a2fad48898c323b0a17741df93a$__9163e60e18a59161275e916004908101910190815260200190565b60006040518083038186803b15801561277657600080fd5b505af415801561278a573d6000803e3d6000fd5b505050506040513d6000823e601f3d908101601f1916820160405261070d9190810190614cc3565b600090815260046020526040902054600160581b900465ffffffffffff16151590565b604051633b11adbf60e21b81526002600482015233602482015273__$364aad554dc80380f414546becdd2c1584$__9063ec46b6fc9060440160206040518083038186803b15801561282657600080fd5b505af415801561283a573d6000803e3d6000fd5b505050506040513d601f19601f8201168201806040525081019061285e919061450b565b61287a5760405162461bcd60e51b815260040161066d9061452d565b600082815260046020819052604091829020915163109f14c360e01b815273__$bd0f380ab135f83a7568cac3e5fc41e1e4$__9263109f14c3926128c092869101614c97565b60006040518083038186803b1580156128d857600080fd5b505af41580156128ec573d6000803e3d6000fd5b50506040518492507fa3c600c1a3ee0c1657cc357ae7b9c80efcc432f527351ee0af88fe0d0d477c349150600090a25050565b6040805160c081018252600080825260208201819052918101829052606081018290526080810182905260a08101919091528261295b816127b2565b6129775760405162461bcd60e51b815260040161066d90614348565b6000848152600560209081526040808320868452600201825291829020825160c081018452905461ffff8116825263ffffffff620100008204169282019290925264ffffffffff66010000000000008304811693820193909352600160581b820490921660608301526001600160401b03600160801b820481166080840152600160c01b9091041660a082015291505092915050565b6001546040516335d2155560e11b81523360048201526000916001600160a01b031690636ba42aaa9060240160206040518083038186803b158015612a5157600080fd5b505afa158015612a65573d6000803e3d6000fd5b505050506040513d601f19601f82011682018060405250810190612a89919061450b565b612aa55760405162461bcd60e51b815260040161066d90614842565b604051631e4786dd60e21b8152600480820152602481018890526044810187905264ffffffffff8087166064830152851660848201526001600160401b0380851660a4830152831660c482015273__$bd0f380ab135f83a7568cac3e5fc41e1e4$__9063791e1b749060e40160206040518083038186803b158015612b2957600080fd5b505af4158015612b3d573d6000803e3d6000fd5b505050506040513d601f19601f82011682018060405250810190612b6191906144ee565b90508063ffffffff167f38089df9a79fe697c784c1d8ecef4f61a584031214fd618d56b5bf64306748fa86868686604051612b9f94939291906148c1565b60405180910390a29695505050505050565b612bba826134de565b612bc38161358d565b604051636cdd0edf60e11b815260026004820152602481018590526001600160a01b038416604482015273__$364aad554dc80380f414546becdd2c1584$__9063d9ba1dbe9060640160006040518083038186803b158015612c2457600080fd5b505af4158015612c38573d6000803e3d6000fd5b5050604080518781526001600160a01b038781166020830152868116828401528516606082015290517f3abb2418c66fe32ba9c883030a75ce583971d9af9192b9b74e44e67c5e6c8c1f9350908190036080019150a150505050565b6001546040516335d2155560e11b81523360048201526001600160a01b0390911690636ba42aaa9060240160206040518083038186803b158015612cd757600080fd5b505afa158015612ceb573d6000803e3d6000fd5b505050506040513d601f19601f82011682018060405250810190612d0f919061450b565b612d2b5760405162461bcd60e51b815260040161066d90614842565b604051633f7efd4360e21b815273__$bd0f380ab135f83a7568cac3e5fc41e1e4$__9063fdfbf50c90612d6690600490869086908301614d53565b60206040518083038186803b158015612d7e57600080fd5b505af4158015612d92573d6000803e3d6000fd5b505050506040513d601f19601f82011682018060405250810190612db6919061450b565b1561100357817f85824b887f0d00d72dbbe681b4bada89c8cccb4cdc30ff3883f8a6978c2768dc826020015183608001518460a00151604051610ffa9392919063ffffffff9390931683526001600160401b03918216602084015216604082015260600190565b604051633c3e56c160e11b81526002600482015260009073__$364aad554dc80380f414546becdd2c1584$__9063787cad829060240160206040518083038186803b158015612e6b57600080fd5b505af4158015612e7f573d6000803e3d6000fd5b505050506040513d601f19601f8201168201806040525081019061079b9190614d6f565b604051633b11adbf60e21b81526002600482015233602482015273__$364aad554dc80380f414546becdd2c1584$__9063ec46b6fc9060440160206040518083038186803b158015612ef457600080fd5b505af4158015612f08573d6000803e3d6000fd5b505050506040513d601f19601f82011682018060405250810190612f2c919061450b565b612f485760405162461bcd60e51b815260040161066d9061452d565b600254600160f01b900460ff16600114612fa45760405162461bcd60e51b815260206004820181905260248201527f41432e6f6e6c7950656e64696e673a20446f632069732066696e616c697a6564604482015260640161066d565b60405163cc99e11b60e01b815260026004820152684174746f726e65797360b81b602482015273__$364aad554dc80380f414546becdd2c1584$__9063cc99e11b9060440160006040518083038186803b15801561300157600080fd5b505af4158015613015573d6000803e3d6000fd5b5050604051632725ebef60e21b8152600260048201526000602482015273__$364aad554dc80380f414546becdd2c1584$__9250639c97afbc915060440160006040518083038186803b15801561306b57600080fd5b505af415801561307f573d6000803e3d6000fd5b50506002805460ff60f01b1916600160f11b17905550506040517f35012b512309c322acf68632cd6cb702ff0e1d776fbe9394e38ffc13b434fe7590600090a1565b6001546040516335d2155560e11b81523360048201526001600160a01b0390911690636ba42aaa9060240160206040518083038186803b15801561310457600080fd5b505afa158015613118573d6000803e3d6000fd5b505050506040513d601f19601f8201168201806040525081019061313c919061450b565b6131585760405162461bcd60e51b815260040161066d90614842565b6000816001600160a01b03166372d193286040518163ffffffff1660e01b815260040160206040518083038186803b15801561319357600080fd5b505afa1580156131a7573d6000803e3d6000fd5b505050506040513d601f19601f820116820180604052508101906131cb91906144ee565b90505b63ffffffff8116156110035760006001600160a01b038316631ce5e9a66131f6600185614d8c565b6040516001600160e01b031960e084901b16815263ffffffff9190911660048201526024016102e06040518083038186803b15801561323457600080fd5b505afa158015613248573d6000803e3d6000fd5b505050506040513d601f19601f8201168201806040525081019061326c9190614da9565b90508161327881614dc6565b8251610100015190935060ff1615905061329257506131ce565b6040516308479ba160e31b815260009073__$bd0f380ab135f83a7568cac3e5fc41e1e4$__9063423cdd08906132ce906004908690820161486d565b60206040518083038186803b1580156132e657600080fd5b505af41580156132fa573d6000803e3d6000fd5b505050506040513d601f19601f8201168201806040525081019061331e91906144ee565b6040808401516020810151818301516060830151608090930151935194955063ffffffff8616947fd24ee2870b938b9e0d823b159ae7acca5e966e0dbc51147adcefc75c7fddc7419461337194916148c1565b60405180910390a2604051630707577360e11b815263ffffffff841660048201526000906001600160a01b03861690630e0eaee69060240160006040518083038186803b1580156133c157600080fd5b505afa1580156133d5573d6000803e3d6000fd5b505050506040513d6000823e601f3d908101601f191682016040526133fd91908101906143a2565b63ffffffff831660009081526005602052604090819020905162a36c9b60e51b815291925073__$bd0f380ab135f83a7568cac3e5fc41e1e4$__9163146d93609161344c918590600401614de6565b60006040518083038186803b15801561346457600080fd5b505af4158015613478573d6000803e3d6000fd5b505050505050506131ce565b60008054604051634de835e760e11b81523360048201526001600160a01b0390911690639bd06bce90602401602060405180830381600087803b1580156134ca57600080fd5b505af1158015610777573d6000803e3d6000fd5b6000546001600160a01b03161561352f5760405162461bcd60e51b815260206004820152601560248201527430b63932b0b23c9039b2ba103932b3a1b2b73a32b960591b604482015260640161066d565b6040516001600160a01b03821681527f318da6c7624c71cbc0afe346c9d8827f119d0ecefb241a7b0c87217a076a8e029060200160405180910390a1600080546001600160a01b0319166001600160a01b0392909216919091179055565b6001546001600160a01b0316156135e65760405162461bcd60e51b815260206004820152601960248201527f616c7265616479207365742067656e6572616c4b656570657200000000000000604482015260640161066d565b6040516001600160a01b03821681527fe513d3e0f0d0a3877029dcc588748679a7a3450ec1ec7ed56d96bd012c3e61aa9060200160405180910390a1600180546001600160a01b0319166001600160a01b0392909216919091179055565b60006020828403121561365657600080fd5b5035919050565b6020808252825182820181905260009190848201906040850190845b8181101561369557835183529284019291840191600101613679565b50909695505050505050565b65ffffffffffff811681146136b557600080fd5b50565b80356136c3816136a1565b919050565b600080604083850312156136db57600080fd5b8235915060208301356136ed816136a1565b809150509250929050565b60808101611ced828465ffffffffffff815116825260208101516001600160401b03808216602085015280604084015116604085015280606084015116606085015250505050565b6000806040838503121561375357600080fd5b50508035926020909101359150565b63ffffffff815116825260ff6020820151166020830152604081015161378e604084018261ffff169052565b5060608101516137a6606084018263ffffffff169052565b5060808101516137c0608084018265ffffffffffff169052565b5060a08101516137da60a084018265ffffffffffff169052565b5060c08101516137f060c084018261ffff169052565b5060e081015161380660e084018261ffff169052565b506101009081015160ff16910152565b63ffffffff815116825260ff602082015116602083015260ff604082015116604083015260608101516001600160401b03808216606085015260ff60808401511660808501528060a08401511660a0850152505060c081015161387e60c084018260ff169052565b5060e081015161389960e08401826001600160401b03169052565b505050565b65ffffffffffff8151168252602081015164ffffffffff8082166020850152806040840151166040850152505060608101516001600160401b03808216606085015280608084015116608085015250505050565b6138fd828251613762565b6020810151613910610120840182613816565b50604081015161392461022084018261389e565b50606001516102c09190910152565b6102e08101611ced82846138f2565b6001600160401b03811681146136b557600080fd5b80356136c381613942565b6000806000806080858703121561397857600080fd5b84359350602085013561398a81613942565b9250604085013561399a81613942565b915060608501356139aa81613942565b939692955090935050565b61ffff815116825263ffffffff6020820151166020830152604081015164ffffffffff8082166040850152806060840151166060850152505060808101516001600160401b0380821660808501528060a08401511660a085015250505050565b6020808252825182820181905260009190848201906040850190845b8181101561369557613a448385516139b5565b9284019260c09290920191600101613a31565b63ffffffff80825116835280602083015116602084015250604081015165ffffffffffff80821660408501528060608401511660608501525050608081015164ffffffffff80821660808501528060a08401511660a085015250505050565b613ac1828251613a57565b602090810151805164ffffffffff1660c0840152908101516001600160401b0390811660e0840152604082015181166101008401526060909101511661012090910152565b6020808252825182820181905260009190848201906040850190845b8181101561369557613b35838551613ab6565b928401926101409290920191600101613b22565b634e487b7160e01b600052604160045260246000fd5b60405161010081016001600160401b0381118282101715613b8257613b82613b49565b60405290565b60405160a081016001600160401b0381118282101715613b8257613b82613b49565b604051608081016001600160401b0381118282101715613b8257613b82613b49565b60405161012081016001600160401b0381118282101715613b8257613b82613b49565b604080519081016001600160401b0381118282101715613b8257613b82613b49565b60405160c081016001600160401b0381118282101715613b8257613b82613b49565b604051601f8201601f191681016001600160401b0381118282101715613c5b57613c5b613b49565b604052919050565b63ffffffff811681146136b557600080fd5b80356136c381613c63565b60ff811681146136b557600080fd5b80356136c381613c80565b61ffff811681146136b557600080fd5b80356136c381613c9a565b60006101008284031215613cc857600080fd5b613cd0613b5f565b90508135613cdd81613c63565b81526020820135613ced81613c80565b6020820152613cfe60408301613c8f565b6040820152613d0f60608301613957565b6060820152613d2060808301613c8f565b6080820152613d3160a08301613957565b60a0820152613d4260c08301613c8f565b60c0820152613d5360e08301613957565b60e082015292915050565b64ffffffffff811681146136b557600080fd5b600060a08284031215613d8357600080fd5b613d8b613b88565b90508135613d98816136a1565b81526020820135613da881613d5e565b60208201526040820135613dbb81613d5e565b60408201526060820135613dce81613942565b60608201526080820135613de181613942565b608082015292915050565b60008183036102e0811215613e0057600080fd5b613e08613baa565b61012080831215613e1857600080fd5b613e20613bcc565b9250613e2b85613c75565b8352613e3960208601613c8f565b6020840152613e4a60408601613caa565b6040840152613e5b60608601613c75565b6060840152613e6c608086016136b8565b6080840152613e7d60a086016136b8565b60a0840152613e8e60c08601613caa565b60c0840152613e9f60e08601613caa565b60e0840152610100613eb2818701613c8f565b90840152828252613ec586868301613cb5565b602083015250613ed9856102208601613d71565b60408201526102c093909301356060840152509092915050565b6020808252825182820181905260009190848201906040850190845b8181101561369557613f228385516138f2565b928401926102e09290920191600101613f0f565b6001600160a01b03811681146136b557600080fd5b600060208284031215613f5d57600080fd5b813561070d81613f36565b600060808284031215613f7a57600080fd5b613f82613baa565b90508135613f8f81613d5e565b81526020820135613f9f81613942565b60208201526040820135613fb281613942565b60408201526060820135613fc581613942565b606082015292915050565b600080828403610160811215613fe557600080fd5b83359250601f1901610140811215613ffc57600080fd5b614004613bef565b60c082121561401257600080fd5b61401a613c11565b9150602085013561402a81613c63565b8252604085013561403a81613c63565b6020830152606085013561404d816136a1565b60408301526080850135614060816136a1565b606083015260a085013561407381613d5e565b608083015260c085013561408681613d5e565b60a083015281815261409b8660e08701613f68565b602082015280925050509250929050565b6101408101611ced8284613ab6565b600080604083850312156140ce57600080fd5b823591506020808401356001600160401b03808211156140ed57600080fd5b818601915086601f83011261410157600080fd5b81358181111561411357614113613b49565b614125601f8201601f19168501613c33565b9150808252878482850101111561413b57600080fd5b80848401858401376000848284010152508093505050509250929050565b6020808252825182820181905260009190848201906040850190845b81811015613695576141c283855165ffffffffffff815116825260208101516001600160401b03808216602085015280604084015116604085015280606084015116606085015250505050565b9284019260809290920191600101614175565b60c08101611ced82846139b5565b60008060008060008060c087890312156141fc57600080fd5b8635955060208701359450604087013561421581613d5e565b9350606087013561422581613d5e565b9250608087013561423581613942565b915060a087013561424581613942565b809150509295509295509295565b6000806000806080858703121561426957600080fd5b84359350602085013561427b81613f36565b9250604085013561428b81613f36565b915060608501356139aa81613f36565b60008082840360e08112156142af57600080fd5b8335925060c0601f19820112156142c557600080fd5b506142ce613c11565b60208401356142dc81613c9a565b815260408401356142ec81613c63565b602082015260608401356142ff81613d5e565b6040820152608084013561431281613d5e565b606082015260a084013561432581613942565b608082015260c084013561433881613942565b60a0820152919491935090915050565b60208082526018908201527f424f4f2e6d662e4f453a204f7074206e6f742065786973740000000000000000604082015260600190565b60006001600160401b0382111561439857614398613b49565b5060051b60200190565b600060208083850312156143b557600080fd5b82516001600160401b038111156143cb57600080fd5b8301601f810185136143dc57600080fd5b80516143ef6143ea8261437f565b613c33565b81815260059190911b8201830190838101908783111561440e57600080fd5b928401925b8284101561442c57835182529284019290840190614413565b979650505050505050565b60006020828403121561444957600080fd5b815161070d81613d5e565b80516136c3816136a1565b80516136c381613942565b60006080828403121561447c57600080fd5b614484613baa565b90508151614491816136a1565b815260208201516144a181613942565b602082015260408201516144b481613942565b60408201526060820151613fc581613942565b6000608082840312156144d957600080fd5b611cea838361446a565b80516136c381613c63565b60006020828403121561450057600080fd5b815161070d81613c63565b60006020828403121561451d57600080fd5b8151801515811461070d57600080fd5b60208082526026908201527f41432e6f6e6c794469726563744b65657065723a206e6f74206469726563742060408201526535b2b2b832b960d11b606082015260800190565b80516136c381613c9a565b6000602080838503121561459157600080fd5b82516001600160401b038111156145a757600080fd5b8301601f810185136145b857600080fd5b80516145c66143ea8261437f565b81815260c091820283018401918482019190888411156145e557600080fd5b938501935b838510156146835780858a0312156146025760008081fd5b61460a613c11565b855161461581613c9a565b81528587015161462481613c63565b8188015260408681015161463781613d5e565b9082015260608681015161464a81613d5e565b9082015260808681015161465d81613942565b9082015260a08681015161467081613942565b90820152835293840193918501916145ea565b50979650505050505050565b6000608082840312156146a157600080fd5b6146a9613baa565b9050815161449181613d5e565b600060208083850312156146c957600080fd5b82516001600160401b038111156146df57600080fd5b8301601f810185136146f057600080fd5b80516146fe6143ea8261437f565b818152610140918202830184019184820191908884111561471e57600080fd5b938501935b83851015614683578489038181121561473c5760008081fd5b614744613bef565b60c0808312156147545760008081fd5b61475c613c11565b9250875161476981613c63565b83528789015161477881613c63565b838a015260408881015161478b816136a1565b9084015260608881015161479e816136a1565b908401526080888101516147b181613d5e565b9084015260a0888101516147c481613d5e565b908401528282526147d78c89830161468f565b828a0152508452509384019391850191614723565b60208082526036908201527f41432e6f776e65724f72446972656374426f6f6b65657065723a206e6569746860408201527532b91037bbb732b9103737b9103137b7b5b2b2b832b960511b606082015260800190565b60208082526011908201527020a19737b59d103737ba1025b2b2b832b960791b604082015260600190565b600061030082019050838252614887602083018451613762565b602083015161489a610140840182613816565b5060408301516148ae61024084018261389e565b5060608301516102e08301529392505050565b64ffffffffff94851681529290931660208301526001600160401b039081166040830152909116606082015260800190565b80516136c381613c80565b6000610100828403121561491157600080fd5b614919613b5f565b9050815161492681613c63565b8152602082015161493681613c80565b6020820152614947604083016148f3565b60408201526149586060830161445f565b6060820152614969608083016148f3565b608082015261497a60a0830161445f565b60a082015261498b60c083016148f3565b60c0820152613d5360e0830161445f565b600060a082840312156149ae57600080fd5b6149b6613b88565b905081516149c3816136a1565b815260208201516149d381613d5e565b602082015260408201516149e681613d5e565b604082015260608201516149f981613942565b60608201526080820151613de181613942565b60008183036102e0811215614a2057600080fd5b614a28613baa565b915061012080821215614a3a57600080fd5b614a42613bcc565b9150614a4d846144e3565b8252614a5b602085016148f3565b6020830152614a6c60408501614573565b6040830152614a7d606085016144e3565b6060830152614a8e60808501614454565b6080830152614a9f60a08501614454565b60a0830152614ab060c08501614573565b60c0830152614ac160e08501614573565b60e0830152610100614ad48186016148f3565b90830152818352614ae7858583016148fe565b60208401525050614afc83610220840161499c565b60408201526102c0820151606082015292915050565b60006020808385031215614b2557600080fd5b82516001600160401b03811115614b3b57600080fd5b8301601f81018513614b4c57600080fd5b8051614b5a6143ea8261437f565b8181526102e09182028301840191848201919088841115614b7a57600080fd5b938501935b8385101561468357614b918986614a0c565b83529384019391850191614b7f565b600061018082019050848252836020830152614bc0604083018451613a57565b602083810151805164ffffffffff16610100850152908101516001600160401b039081166101208501526040820151811661014085015260608201511661016084015250949350505050565b634e487b7160e01b600052601160045260246000fd5b60006001600160401b0383811690831681811015614c4257614c42614c0c565b039392505050565b6000815180845260005b81811015614c7057602081850181015186830182015201614c54565b81811115614c82576000602083870101525b50601f01601f19169290920160200192915050565b82815260406020820152600061088f6040830184614c4a565b602081526000611cea6020830184614c4a565b60006020808385031215614cd657600080fd5b82516001600160401b03811115614cec57600080fd5b8301601f81018513614cfd57600080fd5b8051614d0b6143ea8261437f565b81815260079190911b82018301908381019087831115614d2a57600080fd5b928401925b8284101561442c57614d41888561446a565b82528482019150608084019350614d2f565b83815260208101839052610100810161088f60408301846139b5565b600060208284031215614d8157600080fd5b815161070d81613f36565b600063ffffffff83811690831681811015614c4257614c42614c0c565b60006102e08284031215614dbc57600080fd5b611cea8383614a0c565b600063ffffffff821680614ddc57614ddc614c0c565b6000190192915050565b6000604082018483526020604081850152818551808452606086019150828701935060005b81811015614e2757845183529383019391830191600101614e0b565b509097965050505050505056fea264697066735822122099a19394776f07351eba1dce83d9ac5bd59fe378f2734b5ca1af868f02d1153e64736f6c63430008080033",
    "sourcePath": "/Users/kaptain/github.com/hardhat/comboox/contracts/books/boo/BookOfOptions.sol",
    "compiler": {
        "name": "solc",
        "version": "0.8.8+commit.dddeac2f"
    },
    "functionHashes": {
        "abandonRole(bytes32)": "3da9a600",
        "addObligorIntoOption(uint256,uint256)": "a24132e8",
        "addOrder(uint256,(uint16,uint32,uint40,uint40,uint64,uint64))": "de9a7863",
        "balanceOfOrder(uint256)": "85e14191",
        "balanceOfPledge(uint256)": "a5086278",
        "closeOption(uint256,string)": "9732f48f",
        "counterOfOptions()": "1368f327",
        "createOption(uint256,uint256,uint40,uint40,uint64,uint64)": "c8fe1dc4",
        "execOption(uint256)": "6555ff7a",
        "finalized()": "b3f05b97",
        "getBookeeper()": "ed211023",
        "getGeneralCounsel()": "103f6edd",
        "getOption(uint256)": "1ce5e9a6",
        "getOrderOfOption(uint256,uint256)": "c41d60c0",
        "getOwner()": "893d20e8",
        "getPledgeOfOption(uint256,uint256)": "876c62e8",
        "grantRole(bytes32,uint256)": "1b6ea9f9",
        "hasRole(bytes32,uint256)": "7e063c5a",
        "init(uint256,address,address,address)": "dc890da9",
        "isObligor(uint256,uint256)": "3bce3c30",
        "isOption(uint256)": "b3be456a",
        "issueOption(((uint32,uint8,uint16,uint32,uint48,uint48,uint16,uint16,uint8),(uint32,uint8,uint8,uint64,uint8,uint64,uint8,uint64),(uint48,uint40,uint40,uint64,uint64),bytes32))": "642df7fa",
        "lockContents()": "f045a769",
        "lockOption(uint256,bytes32)": "644ebdb4",
        "obligorsOfOption(uint256)": "0e0eaee6",
        "optsList()": "6865ab4d",
        "oracleAtDate(uint256,uint48)": "1203979e",
        "oraclesOfOption(uint256)": "adaa55df",
        "ordersOfOption(uint256)": "368b85d7",
        "pledgesOfOption(uint256)": "46629b1e",
        "registerOption(address)": "f30c2560",
        "removeObligorFromOption(uint256,uint256)": "1d565c07",
        "renounceRole(bytes32)": "8bb9c5bf",
        "requestPledge(uint256,((uint32,uint32,uint48,uint48,uint40,uint40),(uint40,uint64,uint64,uint64)))": "85062bba",
        "revokeOption(uint256,string)": "c350dc31",
        "revokeRole(bytes32,uint256)": "19d61ad9",
        "setDirectKeeper(address)": "6be8496f",
        "setGeneralCounsel(uint256)": "4a14beb1",
        "setOwner(uint256)": "8041494e",
        "setRoleAdmin(bytes32,uint256)": "5171ebd4",
        "stateOfOption(uint256)": "5c68b8fa",
        "updateOracle(uint256,uint64,uint64,uint64)": "2b6c0ce1"
    },
    "gasEstimates": {
        "creation": {
            "codeDepositCost": "4014800",
            "executionCost": "4589",
            "totalCost": "4019389"
        },
        "external": {
            "abandonRole(bytes32)": "infinite",
            "addObligorIntoOption(uint256,uint256)": "infinite",
            "addOrder(uint256,(uint16,uint32,uint40,uint40,uint64,uint64))": "infinite",
            "balanceOfOrder(uint256)": "infinite",
            "balanceOfPledge(uint256)": "infinite",
            "closeOption(uint256,string)": "infinite",
            "counterOfOptions()": "infinite",
            "createOption(uint256,uint256,uint40,uint40,uint64,uint64)": "infinite",
            "execOption(uint256)": "infinite",
            "finalized()": "2416",
            "getBookeeper()": "infinite",
            "getGeneralCounsel()": "infinite",
            "getOption(uint256)": "55663",
            "getOrderOfOption(uint256,uint256)": "5623",
            "getOwner()": "infinite",
            "getPledgeOfOption(uint256,uint256)": "8303",
            "grantRole(bytes32,uint256)": "infinite",
            "hasRole(bytes32,uint256)": "infinite",
            "init(uint256,address,address,address)": "infinite",
            "isObligor(uint256,uint256)": "infinite",
            "isOption(uint256)": "2552",
            "issueOption(((uint32,uint8,uint16,uint32,uint48,uint48,uint16,uint16,uint8),(uint32,uint8,uint8,uint64,uint8,uint64,uint8,uint64),(uint48,uint40,uint40,uint64,uint64),bytes32))": "infinite",
            "lockContents()": "infinite",
            "lockOption(uint256,bytes32)": "infinite",
            "obligorsOfOption(uint256)": "infinite",
            "optsList()": "infinite",
            "oracleAtDate(uint256,uint48)": "infinite",
            "oraclesOfOption(uint256)": "infinite",
            "ordersOfOption(uint256)": "infinite",
            "pledgesOfOption(uint256)": "infinite",
            "registerOption(address)": "infinite",
            "removeObligorFromOption(uint256,uint256)": "infinite",
            "renounceRole(bytes32)": "infinite",
            "requestPledge(uint256,((uint32,uint32,uint48,uint48,uint40,uint40),(uint40,uint64,uint64,uint64)))": "infinite",
            "revokeOption(uint256,string)": "infinite",
            "revokeRole(bytes32,uint256)": "infinite",
            "setDirectKeeper(address)": "infinite",
            "setGeneralCounsel(uint256)": "infinite",
            "setOwner(uint256)": "infinite",
            "setRoleAdmin(bytes32,uint256)": "infinite",
            "stateOfOption(uint256)": "4779",
            "updateOracle(uint256,uint64,uint64,uint64)": "infinite"
        }
    }
}