{
    "contractName": "BookOfOptions",
    "abi": [
        {
            "anonymous": false,
            "inputs": [
                {
                    "indexed": true,
                    "internalType": "uint256",
                    "name": "seqOfOpt",
                    "type": "uint256"
                },
                {
                    "indexed": false,
                    "internalType": "uint256",
                    "name": "obligor",
                    "type": "uint256"
                }
            ],
            "name": "AddObligorIntoOpt",
            "type": "event"
        },
        {
            "anonymous": false,
            "inputs": [
                {
                    "indexed": true,
                    "internalType": "uint256",
                    "name": "seqOfOpt",
                    "type": "uint256"
                },
                {
                    "indexed": false,
                    "internalType": "uint256",
                    "name": "codeOfOpt",
                    "type": "uint256"
                }
            ],
            "name": "CreateOpt",
            "type": "event"
        },
        {
            "anonymous": false,
            "inputs": [
                {
                    "indexed": true,
                    "internalType": "uint256",
                    "name": "seqOfOpt",
                    "type": "uint256"
                }
            ],
            "name": "ExecOpt",
            "type": "event"
        },
        {
            "anonymous": false,
            "inputs": [
                {
                    "indexed": false,
                    "internalType": "uint256",
                    "name": "owner",
                    "type": "uint256"
                },
                {
                    "indexed": false,
                    "internalType": "address",
                    "name": "directKeeper",
                    "type": "address"
                },
                {
                    "indexed": false,
                    "internalType": "address",
                    "name": "regCenter",
                    "type": "address"
                },
                {
                    "indexed": false,
                    "internalType": "address",
                    "name": "generalKeeper",
                    "type": "address"
                }
            ],
            "name": "Init",
            "type": "event"
        },
        {
            "anonymous": false,
            "inputs": [],
            "name": "LockContents",
            "type": "event"
        },
        {
            "anonymous": false,
            "inputs": [
                {
                    "indexed": true,
                    "internalType": "uint256",
                    "name": "seqOfOpt",
                    "type": "uint256"
                },
                {
                    "indexed": false,
                    "internalType": "uint256",
                    "name": "codeOfBrf",
                    "type": "uint256"
                }
            ],
            "name": "RegSwapOrder",
            "type": "event"
        },
        {
            "anonymous": false,
            "inputs": [
                {
                    "indexed": true,
                    "internalType": "uint256",
                    "name": "seqOfOpt",
                    "type": "uint256"
                },
                {
                    "indexed": false,
                    "internalType": "uint256",
                    "name": "obligor",
                    "type": "uint256"
                }
            ],
            "name": "RemoveObligorFromOpt",
            "type": "event"
        },
        {
            "anonymous": false,
            "inputs": [
                {
                    "indexed": false,
                    "internalType": "uint256",
                    "name": "title",
                    "type": "uint256"
                },
                {
                    "indexed": false,
                    "internalType": "address",
                    "name": "book",
                    "type": "address"
                }
            ],
            "name": "SetBookRuting",
            "type": "event"
        },
        {
            "anonymous": false,
            "inputs": [
                {
                    "indexed": false,
                    "internalType": "address",
                    "name": "keeper",
                    "type": "address"
                }
            ],
            "name": "SetDirectKeeper",
            "type": "event"
        },
        {
            "anonymous": false,
            "inputs": [
                {
                    "indexed": false,
                    "internalType": "uint256",
                    "name": "acct",
                    "type": "uint256"
                }
            ],
            "name": "SetGeneralCounsel",
            "type": "event"
        },
        {
            "anonymous": false,
            "inputs": [
                {
                    "indexed": false,
                    "internalType": "address",
                    "name": "gk",
                    "type": "address"
                }
            ],
            "name": "SetGeneralKeeper",
            "type": "event"
        },
        {
            "anonymous": false,
            "inputs": [
                {
                    "indexed": false,
                    "internalType": "uint256",
                    "name": "acct",
                    "type": "uint256"
                }
            ],
            "name": "SetOwner",
            "type": "event"
        },
        {
            "anonymous": false,
            "inputs": [
                {
                    "indexed": false,
                    "internalType": "address",
                    "name": "rc",
                    "type": "address"
                }
            ],
            "name": "SetRegCenter",
            "type": "event"
        },
        {
            "anonymous": false,
            "inputs": [
                {
                    "indexed": true,
                    "internalType": "uint256",
                    "name": "seqOfOpt",
                    "type": "uint256"
                },
                {
                    "indexed": false,
                    "internalType": "uint64",
                    "name": "data1",
                    "type": "uint64"
                },
                {
                    "indexed": false,
                    "internalType": "uint64",
                    "name": "data2",
                    "type": "uint64"
                },
                {
                    "indexed": false,
                    "internalType": "uint64",
                    "name": "data3",
                    "type": "uint64"
                }
            ],
            "name": "UpdateOracle",
            "type": "event"
        },
        {
            "anonymous": false,
            "inputs": [
                {
                    "indexed": true,
                    "internalType": "uint256",
                    "name": "seqOfOpt",
                    "type": "uint256"
                },
                {
                    "indexed": false,
                    "internalType": "uint256",
                    "name": "seqOfBrf",
                    "type": "uint256"
                },
                {
                    "indexed": false,
                    "internalType": "uint8",
                    "name": "state",
                    "type": "uint8"
                }
            ],
            "name": "UpdateStateOfBrief",
            "type": "event"
        },
        {
            "inputs": [
                {
                    "internalType": "bytes32",
                    "name": "role",
                    "type": "bytes32"
                }
            ],
            "name": "abandonRole",
            "outputs": [],
            "stateMutability": "nonpayable",
            "type": "function"
        },
        {
            "inputs": [
                {
                    "internalType": "uint256",
                    "name": "seqOfOpt",
                    "type": "uint256"
                },
                {
                    "internalType": "uint256",
                    "name": "obligor",
                    "type": "uint256"
                }
            ],
            "name": "addObligorIntoOption",
            "outputs": [],
            "stateMutability": "nonpayable",
            "type": "function"
        },
        {
            "inputs": [
                {
                    "internalType": "uint256",
                    "name": "seqOfOpt",
                    "type": "uint256"
                }
            ],
            "name": "counterOfBriefs",
            "outputs": [
                {
                    "internalType": "uint256",
                    "name": "",
                    "type": "uint256"
                }
            ],
            "stateMutability": "view",
            "type": "function"
        },
        {
            "inputs": [],
            "name": "counterOfOptions",
            "outputs": [
                {
                    "internalType": "uint32",
                    "name": "",
                    "type": "uint32"
                }
            ],
            "stateMutability": "view",
            "type": "function"
        },
        {
            "inputs": [
                {
                    "internalType": "uint256",
                    "name": "sn",
                    "type": "uint256"
                },
                {
                    "internalType": "uint256",
                    "name": "snOfCond",
                    "type": "uint256"
                },
                {
                    "internalType": "uint40",
                    "name": "rightholder",
                    "type": "uint40"
                },
                {
                    "internalType": "uint64",
                    "name": "paid",
                    "type": "uint64"
                },
                {
                    "internalType": "uint64",
                    "name": "par",
                    "type": "uint64"
                }
            ],
            "name": "createOption",
            "outputs": [
                {
                    "components": [
                        {
                            "internalType": "uint32",
                            "name": "seqOfOpt",
                            "type": "uint32"
                        },
                        {
                            "internalType": "uint8",
                            "name": "typeOfOpt",
                            "type": "uint8"
                        },
                        {
                            "internalType": "uint16",
                            "name": "classOfShare",
                            "type": "uint16"
                        },
                        {
                            "internalType": "uint32",
                            "name": "rate",
                            "type": "uint32"
                        },
                        {
                            "internalType": "uint48",
                            "name": "issueDate",
                            "type": "uint48"
                        },
                        {
                            "internalType": "uint48",
                            "name": "triggerDate",
                            "type": "uint48"
                        },
                        {
                            "internalType": "uint16",
                            "name": "execDays",
                            "type": "uint16"
                        },
                        {
                            "internalType": "uint16",
                            "name": "closingDays",
                            "type": "uint16"
                        },
                        {
                            "internalType": "uint40",
                            "name": "obligor",
                            "type": "uint40"
                        }
                    ],
                    "internalType": "struct OptionsRepo.Head",
                    "name": "head",
                    "type": "tuple"
                }
            ],
            "stateMutability": "nonpayable",
            "type": "function"
        },
        {
            "inputs": [
                {
                    "internalType": "uint256",
                    "name": "seqOfOpt",
                    "type": "uint256"
                },
                {
                    "internalType": "uint32",
                    "name": "seqOfConsider",
                    "type": "uint32"
                },
                {
                    "internalType": "uint64",
                    "name": "paidOfConsider",
                    "type": "uint64"
                },
                {
                    "internalType": "uint32",
                    "name": "seqOfTarget",
                    "type": "uint32"
                }
            ],
            "name": "createSwapOrder",
            "outputs": [
                {
                    "components": [
                        {
                            "components": [
                                {
                                    "internalType": "uint32",
                                    "name": "seqOfSwap",
                                    "type": "uint32"
                                },
                                {
                                    "internalType": "uint16",
                                    "name": "classOfTarget",
                                    "type": "uint16"
                                },
                                {
                                    "internalType": "uint16",
                                    "name": "classOfConsider",
                                    "type": "uint16"
                                },
                                {
                                    "internalType": "uint48",
                                    "name": "createDate",
                                    "type": "uint48"
                                },
                                {
                                    "internalType": "uint48",
                                    "name": "triggerDate",
                                    "type": "uint48"
                                },
                                {
                                    "internalType": "uint16",
                                    "name": "closingDays",
                                    "type": "uint16"
                                },
                                {
                                    "internalType": "uint40",
                                    "name": "obligor",
                                    "type": "uint40"
                                },
                                {
                                    "internalType": "uint32",
                                    "name": "rateOfSwap",
                                    "type": "uint32"
                                }
                            ],
                            "internalType": "struct SwapsRepo.Head",
                            "name": "head",
                            "type": "tuple"
                        },
                        {
                            "components": [
                                {
                                    "internalType": "uint40",
                                    "name": "rightholder",
                                    "type": "uint40"
                                },
                                {
                                    "internalType": "uint32",
                                    "name": "seqOfConsider",
                                    "type": "uint32"
                                },
                                {
                                    "internalType": "uint64",
                                    "name": "paidOfConsider",
                                    "type": "uint64"
                                },
                                {
                                    "internalType": "uint32",
                                    "name": "seqOfTarget",
                                    "type": "uint32"
                                },
                                {
                                    "internalType": "uint64",
                                    "name": "paidOfTarget",
                                    "type": "uint64"
                                },
                                {
                                    "internalType": "uint8",
                                    "name": "state",
                                    "type": "uint8"
                                }
                            ],
                            "internalType": "struct SwapsRepo.Body",
                            "name": "body",
                            "type": "tuple"
                        },
                        {
                            "internalType": "bytes32",
                            "name": "hashLock",
                            "type": "bytes32"
                        }
                    ],
                    "internalType": "struct SwapsRepo.Swap",
                    "name": "swap",
                    "type": "tuple"
                }
            ],
            "stateMutability": "view",
            "type": "function"
        },
        {
            "inputs": [
                {
                    "internalType": "uint256",
                    "name": "seqOfOpt",
                    "type": "uint256"
                }
            ],
            "name": "execOption",
            "outputs": [],
            "stateMutability": "nonpayable",
            "type": "function"
        },
        {
            "inputs": [],
            "name": "finalized",
            "outputs": [
                {
                    "internalType": "bool",
                    "name": "",
                    "type": "bool"
                }
            ],
            "stateMutability": "view",
            "type": "function"
        },
        {
            "inputs": [
                {
                    "internalType": "uint256",
                    "name": "seqOfOpt",
                    "type": "uint256"
                }
            ],
            "name": "getALLOraclesOfOption",
            "outputs": [
                {
                    "components": [
                        {
                            "internalType": "uint48",
                            "name": "timestamp",
                            "type": "uint48"
                        },
                        {
                            "internalType": "uint64",
                            "name": "paid",
                            "type": "uint64"
                        },
                        {
                            "internalType": "uint64",
                            "name": "par",
                            "type": "uint64"
                        },
                        {
                            "internalType": "uint64",
                            "name": "cleanPaid",
                            "type": "uint64"
                        }
                    ],
                    "internalType": "struct Checkpoints.Checkpoint[]",
                    "name": "",
                    "type": "tuple[]"
                }
            ],
            "stateMutability": "view",
            "type": "function"
        },
        {
            "inputs": [
                {
                    "internalType": "uint256",
                    "name": "seqOfOpt",
                    "type": "uint256"
                }
            ],
            "name": "getAllBriefsOfOption",
            "outputs": [
                {
                    "components": [
                        {
                            "internalType": "uint16",
                            "name": "seqOfBrf",
                            "type": "uint16"
                        },
                        {
                            "internalType": "uint32",
                            "name": "seqOfSwap",
                            "type": "uint32"
                        },
                        {
                            "internalType": "uint32",
                            "name": "rateOfSwap",
                            "type": "uint32"
                        },
                        {
                            "internalType": "uint64",
                            "name": "paidOfConsider",
                            "type": "uint64"
                        },
                        {
                            "internalType": "uint64",
                            "name": "paidOfTarget",
                            "type": "uint64"
                        },
                        {
                            "internalType": "uint40",
                            "name": "obligor",
                            "type": "uint40"
                        },
                        {
                            "internalType": "uint8",
                            "name": "state",
                            "type": "uint8"
                        }
                    ],
                    "internalType": "struct OptionsRepo.Brief[]",
                    "name": "",
                    "type": "tuple[]"
                }
            ],
            "stateMutability": "view",
            "type": "function"
        },
        {
            "inputs": [],
            "name": "getAllOptions",
            "outputs": [
                {
                    "components": [
                        {
                            "components": [
                                {
                                    "internalType": "uint32",
                                    "name": "seqOfOpt",
                                    "type": "uint32"
                                },
                                {
                                    "internalType": "uint8",
                                    "name": "typeOfOpt",
                                    "type": "uint8"
                                },
                                {
                                    "internalType": "uint16",
                                    "name": "classOfShare",
                                    "type": "uint16"
                                },
                                {
                                    "internalType": "uint32",
                                    "name": "rate",
                                    "type": "uint32"
                                },
                                {
                                    "internalType": "uint48",
                                    "name": "issueDate",
                                    "type": "uint48"
                                },
                                {
                                    "internalType": "uint48",
                                    "name": "triggerDate",
                                    "type": "uint48"
                                },
                                {
                                    "internalType": "uint16",
                                    "name": "execDays",
                                    "type": "uint16"
                                },
                                {
                                    "internalType": "uint16",
                                    "name": "closingDays",
                                    "type": "uint16"
                                },
                                {
                                    "internalType": "uint40",
                                    "name": "obligor",
                                    "type": "uint40"
                                }
                            ],
                            "internalType": "struct OptionsRepo.Head",
                            "name": "head",
                            "type": "tuple"
                        },
                        {
                            "components": [
                                {
                                    "internalType": "uint32",
                                    "name": "seq",
                                    "type": "uint32"
                                },
                                {
                                    "internalType": "uint8",
                                    "name": "logicOpr",
                                    "type": "uint8"
                                },
                                {
                                    "internalType": "uint8",
                                    "name": "compOpr1",
                                    "type": "uint8"
                                },
                                {
                                    "internalType": "uint64",
                                    "name": "para1",
                                    "type": "uint64"
                                },
                                {
                                    "internalType": "uint8",
                                    "name": "compOpr2",
                                    "type": "uint8"
                                },
                                {
                                    "internalType": "uint64",
                                    "name": "para2",
                                    "type": "uint64"
                                },
                                {
                                    "internalType": "uint8",
                                    "name": "compOpr3",
                                    "type": "uint8"
                                },
                                {
                                    "internalType": "uint64",
                                    "name": "para3",
                                    "type": "uint64"
                                }
                            ],
                            "internalType": "struct CondsRepo.Cond",
                            "name": "cond",
                            "type": "tuple"
                        },
                        {
                            "components": [
                                {
                                    "internalType": "uint48",
                                    "name": "closingDate",
                                    "type": "uint48"
                                },
                                {
                                    "internalType": "uint40",
                                    "name": "rightholder",
                                    "type": "uint40"
                                },
                                {
                                    "internalType": "uint64",
                                    "name": "paid",
                                    "type": "uint64"
                                },
                                {
                                    "internalType": "uint64",
                                    "name": "par",
                                    "type": "uint64"
                                },
                                {
                                    "internalType": "uint8",
                                    "name": "state",
                                    "type": "uint8"
                                }
                            ],
                            "internalType": "struct OptionsRepo.Body",
                            "name": "body",
                            "type": "tuple"
                        }
                    ],
                    "internalType": "struct OptionsRepo.Option[]",
                    "name": "",
                    "type": "tuple[]"
                }
            ],
            "stateMutability": "view",
            "type": "function"
        },
        {
            "inputs": [],
            "name": "getBookeeper",
            "outputs": [
                {
                    "internalType": "address",
                    "name": "",
                    "type": "address"
                }
            ],
            "stateMutability": "view",
            "type": "function"
        },
        {
            "inputs": [
                {
                    "internalType": "uint256",
                    "name": "seqOfOpt",
                    "type": "uint256"
                },
                {
                    "internalType": "uint256",
                    "name": "seqOfBrf",
                    "type": "uint256"
                }
            ],
            "name": "getBrief",
            "outputs": [
                {
                    "components": [
                        {
                            "internalType": "uint16",
                            "name": "seqOfBrf",
                            "type": "uint16"
                        },
                        {
                            "internalType": "uint32",
                            "name": "seqOfSwap",
                            "type": "uint32"
                        },
                        {
                            "internalType": "uint32",
                            "name": "rateOfSwap",
                            "type": "uint32"
                        },
                        {
                            "internalType": "uint64",
                            "name": "paidOfConsider",
                            "type": "uint64"
                        },
                        {
                            "internalType": "uint64",
                            "name": "paidOfTarget",
                            "type": "uint64"
                        },
                        {
                            "internalType": "uint40",
                            "name": "obligor",
                            "type": "uint40"
                        },
                        {
                            "internalType": "uint8",
                            "name": "state",
                            "type": "uint8"
                        }
                    ],
                    "internalType": "struct OptionsRepo.Brief",
                    "name": "brf",
                    "type": "tuple"
                }
            ],
            "stateMutability": "view",
            "type": "function"
        },
        {
            "inputs": [],
            "name": "getGeneralCounsel",
            "outputs": [
                {
                    "internalType": "uint40",
                    "name": "",
                    "type": "uint40"
                }
            ],
            "stateMutability": "view",
            "type": "function"
        },
        {
            "inputs": [
                {
                    "internalType": "uint256",
                    "name": "seqOfOpt",
                    "type": "uint256"
                }
            ],
            "name": "getObligorsOfOption",
            "outputs": [
                {
                    "internalType": "uint256[]",
                    "name": "",
                    "type": "uint256[]"
                }
            ],
            "stateMutability": "view",
            "type": "function"
        },
        {
            "inputs": [
                {
                    "internalType": "uint256",
                    "name": "seqOfOpt",
                    "type": "uint256"
                }
            ],
            "name": "getOption",
            "outputs": [
                {
                    "components": [
                        {
                            "components": [
                                {
                                    "internalType": "uint32",
                                    "name": "seqOfOpt",
                                    "type": "uint32"
                                },
                                {
                                    "internalType": "uint8",
                                    "name": "typeOfOpt",
                                    "type": "uint8"
                                },
                                {
                                    "internalType": "uint16",
                                    "name": "classOfShare",
                                    "type": "uint16"
                                },
                                {
                                    "internalType": "uint32",
                                    "name": "rate",
                                    "type": "uint32"
                                },
                                {
                                    "internalType": "uint48",
                                    "name": "issueDate",
                                    "type": "uint48"
                                },
                                {
                                    "internalType": "uint48",
                                    "name": "triggerDate",
                                    "type": "uint48"
                                },
                                {
                                    "internalType": "uint16",
                                    "name": "execDays",
                                    "type": "uint16"
                                },
                                {
                                    "internalType": "uint16",
                                    "name": "closingDays",
                                    "type": "uint16"
                                },
                                {
                                    "internalType": "uint40",
                                    "name": "obligor",
                                    "type": "uint40"
                                }
                            ],
                            "internalType": "struct OptionsRepo.Head",
                            "name": "head",
                            "type": "tuple"
                        },
                        {
                            "components": [
                                {
                                    "internalType": "uint32",
                                    "name": "seq",
                                    "type": "uint32"
                                },
                                {
                                    "internalType": "uint8",
                                    "name": "logicOpr",
                                    "type": "uint8"
                                },
                                {
                                    "internalType": "uint8",
                                    "name": "compOpr1",
                                    "type": "uint8"
                                },
                                {
                                    "internalType": "uint64",
                                    "name": "para1",
                                    "type": "uint64"
                                },
                                {
                                    "internalType": "uint8",
                                    "name": "compOpr2",
                                    "type": "uint8"
                                },
                                {
                                    "internalType": "uint64",
                                    "name": "para2",
                                    "type": "uint64"
                                },
                                {
                                    "internalType": "uint8",
                                    "name": "compOpr3",
                                    "type": "uint8"
                                },
                                {
                                    "internalType": "uint64",
                                    "name": "para3",
                                    "type": "uint64"
                                }
                            ],
                            "internalType": "struct CondsRepo.Cond",
                            "name": "cond",
                            "type": "tuple"
                        },
                        {
                            "components": [
                                {
                                    "internalType": "uint48",
                                    "name": "closingDate",
                                    "type": "uint48"
                                },
                                {
                                    "internalType": "uint40",
                                    "name": "rightholder",
                                    "type": "uint40"
                                },
                                {
                                    "internalType": "uint64",
                                    "name": "paid",
                                    "type": "uint64"
                                },
                                {
                                    "internalType": "uint64",
                                    "name": "par",
                                    "type": "uint64"
                                },
                                {
                                    "internalType": "uint8",
                                    "name": "state",
                                    "type": "uint8"
                                }
                            ],
                            "internalType": "struct OptionsRepo.Body",
                            "name": "body",
                            "type": "tuple"
                        }
                    ],
                    "internalType": "struct OptionsRepo.Option",
                    "name": "opt",
                    "type": "tuple"
                }
            ],
            "stateMutability": "view",
            "type": "function"
        },
        {
            "inputs": [
                {
                    "internalType": "uint256",
                    "name": "seqOfOpt",
                    "type": "uint256"
                },
                {
                    "internalType": "uint48",
                    "name": "date",
                    "type": "uint48"
                }
            ],
            "name": "getOracleAtDate",
            "outputs": [
                {
                    "components": [
                        {
                            "internalType": "uint48",
                            "name": "timestamp",
                            "type": "uint48"
                        },
                        {
                            "internalType": "uint64",
                            "name": "paid",
                            "type": "uint64"
                        },
                        {
                            "internalType": "uint64",
                            "name": "par",
                            "type": "uint64"
                        },
                        {
                            "internalType": "uint64",
                            "name": "cleanPaid",
                            "type": "uint64"
                        }
                    ],
                    "internalType": "struct Checkpoints.Checkpoint",
                    "name": "",
                    "type": "tuple"
                }
            ],
            "stateMutability": "view",
            "type": "function"
        },
        {
            "inputs": [],
            "name": "getOwner",
            "outputs": [
                {
                    "internalType": "uint40",
                    "name": "",
                    "type": "uint40"
                }
            ],
            "stateMutability": "view",
            "type": "function"
        },
        {
            "inputs": [
                {
                    "internalType": "bytes32",
                    "name": "role",
                    "type": "bytes32"
                },
                {
                    "internalType": "uint256",
                    "name": "acct",
                    "type": "uint256"
                }
            ],
            "name": "grantRole",
            "outputs": [],
            "stateMutability": "nonpayable",
            "type": "function"
        },
        {
            "inputs": [
                {
                    "internalType": "bytes32",
                    "name": "role",
                    "type": "bytes32"
                },
                {
                    "internalType": "uint256",
                    "name": "acct",
                    "type": "uint256"
                }
            ],
            "name": "hasRole",
            "outputs": [
                {
                    "internalType": "bool",
                    "name": "",
                    "type": "bool"
                }
            ],
            "stateMutability": "view",
            "type": "function"
        },
        {
            "inputs": [
                {
                    "internalType": "uint256",
                    "name": "owner",
                    "type": "uint256"
                },
                {
                    "internalType": "address",
                    "name": "directKeeper",
                    "type": "address"
                },
                {
                    "internalType": "address",
                    "name": "regCenter",
                    "type": "address"
                },
                {
                    "internalType": "address",
                    "name": "generalKeeper",
                    "type": "address"
                }
            ],
            "name": "init",
            "outputs": [],
            "stateMutability": "nonpayable",
            "type": "function"
        },
        {
            "inputs": [],
            "name": "initBOS",
            "outputs": [],
            "stateMutability": "nonpayable",
            "type": "function"
        },
        {
            "inputs": [],
            "name": "initROS",
            "outputs": [],
            "stateMutability": "nonpayable",
            "type": "function"
        },
        {
            "inputs": [
                {
                    "internalType": "uint256",
                    "name": "seqOfOpt",
                    "type": "uint256"
                },
                {
                    "internalType": "uint256",
                    "name": "acct",
                    "type": "uint256"
                }
            ],
            "name": "isObligor",
            "outputs": [
                {
                    "internalType": "bool",
                    "name": "",
                    "type": "bool"
                }
            ],
            "stateMutability": "view",
            "type": "function"
        },
        {
            "inputs": [
                {
                    "internalType": "uint256",
                    "name": "seqOfOpt",
                    "type": "uint256"
                }
            ],
            "name": "isOption",
            "outputs": [
                {
                    "internalType": "bool",
                    "name": "",
                    "type": "bool"
                }
            ],
            "stateMutability": "view",
            "type": "function"
        },
        {
            "inputs": [
                {
                    "internalType": "uint256",
                    "name": "seqOfOpt",
                    "type": "uint256"
                },
                {
                    "internalType": "uint256",
                    "name": "acct",
                    "type": "uint256"
                }
            ],
            "name": "isRightholder",
            "outputs": [
                {
                    "internalType": "bool",
                    "name": "",
                    "type": "bool"
                }
            ],
            "stateMutability": "view",
            "type": "function"
        },
        {
            "inputs": [
                {
                    "components": [
                        {
                            "components": [
                                {
                                    "internalType": "uint32",
                                    "name": "seqOfOpt",
                                    "type": "uint32"
                                },
                                {
                                    "internalType": "uint8",
                                    "name": "typeOfOpt",
                                    "type": "uint8"
                                },
                                {
                                    "internalType": "uint16",
                                    "name": "classOfShare",
                                    "type": "uint16"
                                },
                                {
                                    "internalType": "uint32",
                                    "name": "rate",
                                    "type": "uint32"
                                },
                                {
                                    "internalType": "uint48",
                                    "name": "issueDate",
                                    "type": "uint48"
                                },
                                {
                                    "internalType": "uint48",
                                    "name": "triggerDate",
                                    "type": "uint48"
                                },
                                {
                                    "internalType": "uint16",
                                    "name": "execDays",
                                    "type": "uint16"
                                },
                                {
                                    "internalType": "uint16",
                                    "name": "closingDays",
                                    "type": "uint16"
                                },
                                {
                                    "internalType": "uint40",
                                    "name": "obligor",
                                    "type": "uint40"
                                }
                            ],
                            "internalType": "struct OptionsRepo.Head",
                            "name": "head",
                            "type": "tuple"
                        },
                        {
                            "components": [
                                {
                                    "internalType": "uint32",
                                    "name": "seq",
                                    "type": "uint32"
                                },
                                {
                                    "internalType": "uint8",
                                    "name": "logicOpr",
                                    "type": "uint8"
                                },
                                {
                                    "internalType": "uint8",
                                    "name": "compOpr1",
                                    "type": "uint8"
                                },
                                {
                                    "internalType": "uint64",
                                    "name": "para1",
                                    "type": "uint64"
                                },
                                {
                                    "internalType": "uint8",
                                    "name": "compOpr2",
                                    "type": "uint8"
                                },
                                {
                                    "internalType": "uint64",
                                    "name": "para2",
                                    "type": "uint64"
                                },
                                {
                                    "internalType": "uint8",
                                    "name": "compOpr3",
                                    "type": "uint8"
                                },
                                {
                                    "internalType": "uint64",
                                    "name": "para3",
                                    "type": "uint64"
                                }
                            ],
                            "internalType": "struct CondsRepo.Cond",
                            "name": "cond",
                            "type": "tuple"
                        },
                        {
                            "components": [
                                {
                                    "internalType": "uint48",
                                    "name": "closingDate",
                                    "type": "uint48"
                                },
                                {
                                    "internalType": "uint40",
                                    "name": "rightholder",
                                    "type": "uint40"
                                },
                                {
                                    "internalType": "uint64",
                                    "name": "paid",
                                    "type": "uint64"
                                },
                                {
                                    "internalType": "uint64",
                                    "name": "par",
                                    "type": "uint64"
                                },
                                {
                                    "internalType": "uint8",
                                    "name": "state",
                                    "type": "uint8"
                                }
                            ],
                            "internalType": "struct OptionsRepo.Body",
                            "name": "body",
                            "type": "tuple"
                        }
                    ],
                    "internalType": "struct OptionsRepo.Option",
                    "name": "opt",
                    "type": "tuple"
                }
            ],
            "name": "issueOption",
            "outputs": [
                {
                    "components": [
                        {
                            "internalType": "uint32",
                            "name": "seqOfOpt",
                            "type": "uint32"
                        },
                        {
                            "internalType": "uint8",
                            "name": "typeOfOpt",
                            "type": "uint8"
                        },
                        {
                            "internalType": "uint16",
                            "name": "classOfShare",
                            "type": "uint16"
                        },
                        {
                            "internalType": "uint32",
                            "name": "rate",
                            "type": "uint32"
                        },
                        {
                            "internalType": "uint48",
                            "name": "issueDate",
                            "type": "uint48"
                        },
                        {
                            "internalType": "uint48",
                            "name": "triggerDate",
                            "type": "uint48"
                        },
                        {
                            "internalType": "uint16",
                            "name": "execDays",
                            "type": "uint16"
                        },
                        {
                            "internalType": "uint16",
                            "name": "closingDays",
                            "type": "uint16"
                        },
                        {
                            "internalType": "uint40",
                            "name": "obligor",
                            "type": "uint40"
                        }
                    ],
                    "internalType": "struct OptionsRepo.Head",
                    "name": "head",
                    "type": "tuple"
                }
            ],
            "stateMutability": "nonpayable",
            "type": "function"
        },
        {
            "inputs": [],
            "name": "lockContents",
            "outputs": [],
            "stateMutability": "nonpayable",
            "type": "function"
        },
        {
            "inputs": [
                {
                    "internalType": "address",
                    "name": "opts",
                    "type": "address"
                }
            ],
            "name": "regOptionTerms",
            "outputs": [],
            "stateMutability": "nonpayable",
            "type": "function"
        },
        {
            "inputs": [
                {
                    "internalType": "uint256",
                    "name": "seqOfOpt",
                    "type": "uint256"
                },
                {
                    "components": [
                        {
                            "components": [
                                {
                                    "internalType": "uint32",
                                    "name": "seqOfSwap",
                                    "type": "uint32"
                                },
                                {
                                    "internalType": "uint16",
                                    "name": "classOfTarget",
                                    "type": "uint16"
                                },
                                {
                                    "internalType": "uint16",
                                    "name": "classOfConsider",
                                    "type": "uint16"
                                },
                                {
                                    "internalType": "uint48",
                                    "name": "createDate",
                                    "type": "uint48"
                                },
                                {
                                    "internalType": "uint48",
                                    "name": "triggerDate",
                                    "type": "uint48"
                                },
                                {
                                    "internalType": "uint16",
                                    "name": "closingDays",
                                    "type": "uint16"
                                },
                                {
                                    "internalType": "uint40",
                                    "name": "obligor",
                                    "type": "uint40"
                                },
                                {
                                    "internalType": "uint32",
                                    "name": "rateOfSwap",
                                    "type": "uint32"
                                }
                            ],
                            "internalType": "struct SwapsRepo.Head",
                            "name": "head",
                            "type": "tuple"
                        },
                        {
                            "components": [
                                {
                                    "internalType": "uint40",
                                    "name": "rightholder",
                                    "type": "uint40"
                                },
                                {
                                    "internalType": "uint32",
                                    "name": "seqOfConsider",
                                    "type": "uint32"
                                },
                                {
                                    "internalType": "uint64",
                                    "name": "paidOfConsider",
                                    "type": "uint64"
                                },
                                {
                                    "internalType": "uint32",
                                    "name": "seqOfTarget",
                                    "type": "uint32"
                                },
                                {
                                    "internalType": "uint64",
                                    "name": "paidOfTarget",
                                    "type": "uint64"
                                },
                                {
                                    "internalType": "uint8",
                                    "name": "state",
                                    "type": "uint8"
                                }
                            ],
                            "internalType": "struct SwapsRepo.Body",
                            "name": "body",
                            "type": "tuple"
                        },
                        {
                            "internalType": "bytes32",
                            "name": "hashLock",
                            "type": "bytes32"
                        }
                    ],
                    "internalType": "struct SwapsRepo.Swap",
                    "name": "swap",
                    "type": "tuple"
                }
            ],
            "name": "regSwapOrder",
            "outputs": [],
            "stateMutability": "nonpayable",
            "type": "function"
        },
        {
            "inputs": [
                {
                    "internalType": "uint256",
                    "name": "seqOfOpt",
                    "type": "uint256"
                },
                {
                    "internalType": "uint256",
                    "name": "obligor",
                    "type": "uint256"
                }
            ],
            "name": "removeObligorFromOption",
            "outputs": [],
            "stateMutability": "nonpayable",
            "type": "function"
        },
        {
            "inputs": [
                {
                    "internalType": "bytes32",
                    "name": "role",
                    "type": "bytes32"
                }
            ],
            "name": "renounceRole",
            "outputs": [],
            "stateMutability": "nonpayable",
            "type": "function"
        },
        {
            "inputs": [
                {
                    "internalType": "bytes32",
                    "name": "role",
                    "type": "bytes32"
                },
                {
                    "internalType": "uint256",
                    "name": "acct",
                    "type": "uint256"
                }
            ],
            "name": "revokeRole",
            "outputs": [],
            "stateMutability": "nonpayable",
            "type": "function"
        },
        {
            "inputs": [
                {
                    "internalType": "address",
                    "name": "keeper",
                    "type": "address"
                }
            ],
            "name": "setDirectKeeper",
            "outputs": [],
            "stateMutability": "nonpayable",
            "type": "function"
        },
        {
            "inputs": [
                {
                    "internalType": "uint256",
                    "name": "acct",
                    "type": "uint256"
                }
            ],
            "name": "setGeneralCounsel",
            "outputs": [],
            "stateMutability": "nonpayable",
            "type": "function"
        },
        {
            "inputs": [
                {
                    "internalType": "uint256",
                    "name": "acct",
                    "type": "uint256"
                }
            ],
            "name": "setOwner",
            "outputs": [],
            "stateMutability": "nonpayable",
            "type": "function"
        },
        {
            "inputs": [
                {
                    "internalType": "bytes32",
                    "name": "role",
                    "type": "bytes32"
                },
                {
                    "internalType": "uint256",
                    "name": "acct",
                    "type": "uint256"
                }
            ],
            "name": "setRoleAdmin",
            "outputs": [],
            "stateMutability": "nonpayable",
            "type": "function"
        },
        {
            "inputs": [
                {
                    "internalType": "uint256",
                    "name": "seqOfOpt",
                    "type": "uint256"
                },
                {
                    "internalType": "uint64",
                    "name": "d1",
                    "type": "uint64"
                },
                {
                    "internalType": "uint64",
                    "name": "d2",
                    "type": "uint64"
                },
                {
                    "internalType": "uint64",
                    "name": "d3",
                    "type": "uint64"
                }
            ],
            "name": "updateOracle",
            "outputs": [],
            "stateMutability": "nonpayable",
            "type": "function"
        },
        {
            "inputs": [
                {
                    "internalType": "uint256",
                    "name": "seqOfOpt",
                    "type": "uint256"
                },
                {
                    "internalType": "uint256",
                    "name": "seqOfBrf",
                    "type": "uint256"
                },
                {
                    "internalType": "uint8",
                    "name": "state",
                    "type": "uint8"
                }
            ],
            "name": "updateStateOfBrief",
            "outputs": [],
            "stateMutability": "nonpayable",
            "type": "function"
        }
    ],
    "bytecode": "608060405234801561001057600080fd5b50614934806100206000396000f3fe608060405234801561001057600080fd5b506004361061023d5760003560e01c80636555ff7a1161013b578063b3be456a116100b8578063d44aadf71161007c578063d44aadf71461066d578063dc890da914610675578063ed21102314610688578063f045a769146106a8578063f5bf221d146106b057600080fd5b8063b3be456a146105d4578063b3f05b9714610605578063bdc6bb761461061a578063c4e1f56e1461063a578063c5d764321461065a57600080fd5b8063809bf77b116100ff578063809bf77b1461057357806388e332db14610593578063893d20e8146105a65780638bb9c5bf146105ae578063a24132e8146105c157600080fd5b80636555ff7a146105145780636be8496f146105275780636ca5cc5d1461053a5780637e063c5a1461054d5780638041494e1461056057600080fd5b80632bff28d9116101c95780634747bb8a1161018d5780634747bb8a146104b15780634a14beb1146104d15780634b4b0d37146104e45780635171ebd4146104f957806362ce0a281461050c57600080fd5b80632bff28d9146103fb57806339803c021461041b5780633bce3c301461045b5780633da9a6001461047e57806341ec8c4a1461049157600080fd5b80631b6ea9f9116102105780631b6ea9f91461038f5780631ce5e9a6146103a25780631d565c07146103c25780631f223a5c146103d55780632b6c0ce1146103e857600080fd5b8063103f6edd146102425780631368f3271461026557806317e18de31461028257806319d61ad91461037a575b600080fd5b61024a6106e6565b60405164ffffffffff90911681526020015b60405180910390f35b61026d610771565b60405163ffffffff909116815260200161025c565b61036d6102903660046131fe565b6040805160e081018252600080825260208201819052918101829052606081018290526080810182905260a0810182905260c08101919091525060009182526007602090815260408084209284526002909201815291819020815160e081018352905461ffff8116825262010000810463ffffffff908116948301949094526601000000000000810490931691810191909152600160501b82046001600160401b039081166060830152600160901b8304166080820152600160d01b820464ffffffffff1660a0820152600160f81b90910460ff1660c082015290565b60405161025c919061328d565b61038d6103883660046131fe565b6107f7565b005b61038d61039d3660046131fe565b61088b565b6103b56103b036600461329b565b6108b0565b60405161025c9190613477565b61038d6103d03660046131fe565b610c5f565b61038d6103e33660046134a8565b610dea565b61038d6103f6366004613501565b610ef8565b61040e61040936600461329b565b611084565b60405161025c9190613554565b61044d61042936600461329b565b600090815260076020908152604080832083805260020190915290205461ffff1690565b60405190815260200161025c565b61046e6104693660046131fe565b61111b565b604051901515815260200161025c565b61038d61048c36600461329b565b6111f9565b6104a461049f3660046135c0565b61130a565b60405161025c919061361f565b6104c46104bf36600461364d565b61152e565b60405161025c919061367d565b61038d6104df36600461329b565b611631565b6104ec61181f565b60405161025c91906136c5565b61038d6105073660046131fe565b6118a9565b61038d6118ce565b61038d61052236600461329b565b6119a7565b61038d61053536600461371d565b611aa8565b61038d61054836600461371d565b611b59565b61046e61055b3660046131fe565b611f62565b61038d61056e36600461329b565b611ffc565b61058661058136600461329b565b6121df565b60405161025c919061373a565b6104a46105a13660046139c6565b61227e565b61024a612473565b61038d6105bc36600461329b565b6124ad565b61038d6105cf3660046131fe565b612505565b61046e6105e236600461329b565b600090815260066020526040902054600160581b900465ffffffffffff16151590565b600454600160f01b900460ff1660021461046e565b61062d610628366004613ac0565b61267a565b60405161025c9190613bef565b61064d61064836600461329b565b61285e565b60405161025c9190613c28565b61038d610668366004613d32565b612936565b61038d612b15565b61038d610683366004613e2f565b612be8565b610690612cca565b6040516001600160a01b03909116815260200161025c565b61038d612d4f565b61046e6106be3660046131fe565b600091825260066020526040909120600201546601000000000000900464ffffffffff161490565b60405163e8c0cc1d60e01b815260048082015260009073__$364aad554dc80380f414546becdd2c1584$__9063e8c0cc1d906024015b60206040518083038186803b15801561073457600080fd5b505af4158015610748573d6000803e3d6000fd5b505050506040513d601f19601f8201168201806040525081019061076c9190613e82565b905090565b6040516316cfb4dd60e21b81526006600482015260009073__$bd0f380ab135f83a7568cac3e5fc41e1e4$__90635b3ed3749060240160206040518083038186803b1580156107bf57600080fd5b505af41580156107d3573d6000803e3d6000fd5b505050506040513d601f19601f8201168201806040525081019061076c9190613eaa565b73__$364aad554dc80380f414546becdd2c1584$__6382daafaa60048461081c612f6a565b6040516001600160e01b031960e086901b1681526004810193909352602483019190915264ffffffffff166044820152606481018490526084015b60006040518083038186803b15801561086f57600080fd5b505af4158015610883573d6000803e3d6000fd5b505050505050565b73__$364aad554dc80380f414546becdd2c1584$__636320d75e60048461081c612f6a565b6108b861312a565b6006600001600083815260200190815260200160002060405180606001604052908160008201604051806101200160405290816000820160009054906101000a900463ffffffff1663ffffffff1663ffffffff1681526020016000820160049054906101000a900460ff1660ff1660ff1681526020016000820160059054906101000a900461ffff1661ffff1661ffff1681526020016000820160079054906101000a900463ffffffff1663ffffffff1663ffffffff16815260200160008201600b9054906101000a900465ffffffffffff1665ffffffffffff1665ffffffffffff1681526020016000820160119054906101000a900465ffffffffffff1665ffffffffffff1665ffffffffffff1681526020016000820160179054906101000a900461ffff1661ffff1661ffff1681526020016000820160199054906101000a900461ffff1661ffff1661ffff16815260200160008201601b9054906101000a900464ffffffffff1664ffffffffff1664ffffffffff1681525050815260200160018201604051806101000160405290816000820160009054906101000a900463ffffffff1663ffffffff1663ffffffff1681526020016000820160049054906101000a900460ff1660ff1660ff1681526020016000820160059054906101000a900460ff1660ff1660ff1681526020016000820160069054906101000a90046001600160401b03166001600160401b03166001600160401b0316815260200160008201600e9054906101000a900460ff1660ff1660ff16815260200160008201600f9054906101000a90046001600160401b03166001600160401b03166001600160401b031681526020016000820160179054906101000a900460ff1660ff1660ff1681526020016000820160189054906101000a90046001600160401b03166001600160401b03166001600160401b0316815250508152602001600282016040518060a00160405290816000820160009054906101000a900465ffffffffffff1665ffffffffffff1665ffffffffffff1681526020016000820160069054906101000a900464ffffffffff1664ffffffffff1664ffffffffff16815260200160008201600b9054906101000a90046001600160401b03166001600160401b03166001600160401b031681526020016000820160139054906101000a90046001600160401b03166001600160401b03166001600160401b0316815260200160008201601b9054906101000a900460ff1660ff1660ff1681525050815250509050919050565b604051633b11adbf60e21b815260048082015233602482015273__$364aad554dc80380f414546becdd2c1584$__9063ec46b6fc9060440160206040518083038186803b158015610caf57600080fd5b505af4158015610cc3573d6000803e3d6000fd5b505050506040513d601f19601f82011682018060405250810190610ce79190613ec7565b610d0c5760405162461bcd60e51b8152600401610d0390613ee9565b60405180910390fd5b6000828152600760205260409081902090516392fd02df60e01b815260048101919091526024810182905273__$8c1a4844a0a0988ea2454cf87145a95df1$__906392fd02df9060440160206040518083038186803b158015610d6e57600080fd5b505af4158015610d82573d6000803e3d6000fd5b505050506040513d601f19601f82011682018060405250810190610da69190613ec7565b15610de657817f5099b84fedf2037c6ff782c44b0ac2843f775d48f7037b6b1695993f87ed8bda82604051610ddd91815260200190565b60405180910390a25b5050565b6001546040516335d2155560e11b81523360048201526001600160a01b0390911690636ba42aaa9060240160206040518083038186803b158015610e2d57600080fd5b505afa158015610e41573d6000803e3d6000fd5b505050506040513d601f19601f82011682018060405250810190610e659190613ec7565b610e815760405162461bcd60e51b8152600401610d0390613f2f565b600083815260076020908152604080832085845260020182529182902080546001600160f81b0316600160f81b60ff86169081029190911790915582518581529182015284917f085ae6333e8e3352f7017173d09b81b5b45abd24d265b83422b1efae1172049391015b60405180910390a2505050565b604051633b11adbf60e21b815260048082015233602482015273__$364aad554dc80380f414546becdd2c1584$__9063ec46b6fc9060440160206040518083038186803b158015610f4857600080fd5b505af4158015610f5c573d6000803e3d6000fd5b505050506040513d601f19601f82011682018060405250810190610f809190613ec7565b610f9c5760405162461bcd60e51b8152600401610d0390613ee9565b604080516001600160401b0385811682528481166020830152831681830152905185917f2744eeae7a9f0b21012041a63eb0df8898bd6357f273064a02946ba4f6f79af8919081900360600190a26000848152600760205260409081902090516320c1b15d60e01b8152600390910160048201526001600160401b03808516602483015280841660448301528216606482015273__$9d89bb4a2fad48898c323b0a17741df93a$__906320c1b15d9060840160006040518083038186803b15801561106657600080fd5b505af415801561107a573d6000803e3d6000fd5b5050505050505050565b60405163d432339f60e01b8152600660048201526024810182905260609073__$bd0f380ab135f83a7568cac3e5fc41e1e4$__9063d432339f9060440160006040518083038186803b1580156110d957600080fd5b505af41580156110ed573d6000803e3d6000fd5b505050506040513d6000823e601f3d908101601f19168201604052611115919081019061405a565b92915050565b6000828152600660205260408120548390600160581b900465ffffffffffff166111575760405162461bcd60e51b8152600401610d03906140f8565b600084815260076020526040908190209051633f5f77cd60e01b815260048101919091526024810184905273__$8c1a4844a0a0988ea2454cf87145a95df1$__90633f5f77cd9060440160206040518083038186803b1580156111b957600080fd5b505af41580156111cd573d6000803e3d6000fd5b505050506040513d601f19601f820116820180604052508101906111f19190613ec7565b949350505050565b604051633b11adbf60e21b815260048082015233602482015273__$364aad554dc80380f414546becdd2c1584$__9063ec46b6fc9060440160206040518083038186803b15801561124957600080fd5b505af415801561125d573d6000803e3d6000fd5b505050506040513d601f19601f820116820180604052508101906112819190613ec7565b61129d5760405162461bcd60e51b8152600401610d0390613ee9565b60405163cc99e11b60e01b81526004808201526024810182905273__$364aad554dc80380f414546becdd2c1584$__9063cc99e11b906044015b60006040518083038186803b1580156112ef57600080fd5b505af4158015611303573d6000803e3d6000fd5b5050505050565b6113126131b2565b6001546040516335d2155560e11b81523360048201526001600160a01b0390911690636ba42aaa9060240160206040518083038186803b15801561135557600080fd5b505afa158015611369573d6000803e3d6000fd5b505050506040513d601f19601f8201168201806040525081019061138d9190613ec7565b6113a95760405162461bcd60e51b8152600401610d0390613f2f565b6040516398a5aa1560e01b815260066004820152602481018790526044810186905264ffffffffff851660648201526001600160401b038085166084830152831660a482015273__$bd0f380ab135f83a7568cac3e5fc41e1e4$__906398a5aa159060c4016101206040518083038186803b15801561142757600080fd5b505af415801561143b573d6000803e3d6000fd5b505050506040513d601f19601f8201168201806040525081019061145f91906141f1565b805160405163191b63f760e11b815291925063ffffffff16907f52791ebd78dcff1d4506682d26f8e5101ebd38f503d61ac13050498de383f3689073__$bd0f380ab135f83a7568cac3e5fc41e1e4$__90633236c7ee906114c490869060040161361f565b60206040518083038186803b1580156114dc57600080fd5b505af41580156114f0573d6000803e3d6000fd5b505050506040513d601f19601f82011682018060405250810190611514919061420e565b60405190815260200160405180910390a295945050505050565b6040805160808101825260008082526020820181905291810182905260608101919091526000838152600660205260409020548390600160581b900465ffffffffffff1661158e5760405162461bcd60e51b8152600401610d03906140f8565b60008481526007602052604090819020905163e8fce06b60e01b81526003909101600482015265ffffffffffff8416602482015273__$9d89bb4a2fad48898c323b0a17741df93a$__9063e8fce06b9060440160806040518083038186803b1580156115f957600080fd5b505af415801561160d573d6000803e3d6000fd5b505050506040513d601f19601f820116820180604052508101906111f191906142b1565b604051633b11adbf60e21b815260048082015233602482015273__$364aad554dc80380f414546becdd2c1584$__9063ec46b6fc9060440160206040518083038186803b15801561168157600080fd5b505af4158015611695573d6000803e3d6000fd5b505050506040513d601f19601f820116820180604052508101906116b99190613ec7565b8061175e575073__$364aad554dc80380f414546becdd2c1584$__63fe27108660046116e3612f6a565b6040516001600160e01b031960e085901b168152600481019290925264ffffffffff16602482015260440160206040518083038186803b15801561172657600080fd5b505af415801561173a573d6000803e3d6000fd5b505050506040513d601f19601f8201168201806040525081019061175e9190613ec7565b61177a5760405162461bcd60e51b8152600401610d03906142cd565b604051632725ebef60e21b81526004808201526024810182905273__$364aad554dc80380f414546becdd2c1584$__90639c97afbc9060440160006040518083038186803b1580156117cb57600080fd5b505af41580156117df573d6000803e3d6000fd5b505050507ff2735f34b69be1e6342dea95f9162f84d0db925fab655ca9f1f312ac8cbfc99d8160405161181491815260200190565b60405180910390a150565b60405163741524b760e11b81526006600482015260609073__$bd0f380ab135f83a7568cac3e5fc41e1e4$__9063e82a496e9060240160006040518083038186803b15801561186d57600080fd5b505af4158015611881573d6000803e3d6000fd5b505050506040513d6000823e601f3d908101601f1916820160405261076c9190810190614487565b73__$364aad554dc80380f414546becdd2c1584$__63ee98b31360048461081c612f6a565b60015460405163e0ff5b8b60e01b8152600660048201526001600160a01b039091169063e0ff5b8b9060240160206040518083038186803b15801561191257600080fd5b505afa158015611926573d6000803e3d6000fd5b505050506040513d601f19601f8201168201806040525081019061194a9190614515565b600280546001600160a01b0319166001600160a01b03929092169182179055604080516006815260208101929092527f6aa5e483fe137161b095cd68564a336d1657057f57987b1ae21019134dbc8da291015b60405180910390a1565b6001546040516335d2155560e11b81523360048201526001600160a01b0390911690636ba42aaa9060240160206040518083038186803b1580156119ea57600080fd5b505afa1580156119fe573d6000803e3d6000fd5b505050506040513d601f19601f82011682018060405250810190611a229190613ec7565b611a3e5760405162461bcd60e51b8152600401610d0390613f2f565b60405181907fc494b4ad56dac341aecc01dcffc2710feac31822a34b6428c4a76d8f155ca4cc90600090a2604051631f7e910760e31b8152600660048201526024810182905273__$bd0f380ab135f83a7568cac3e5fc41e1e4$__9063fbf48838906044016112d7565b604051630f07232560e01b81526004808201523360248201526001600160a01b038216604482015273__$364aad554dc80380f414546becdd2c1584$__90630f0723259060640160006040518083038186803b158015611b0757600080fd5b505af4158015611b1b573d6000803e3d6000fd5b50506040516001600160a01b03841681527fe435cbeab64e4eae6497b9d8289704bd709d624a80704ef3ca9af777534bc6ec92506020019050611814565b6001546040516335d2155560e11b81523360048201526001600160a01b0390911690636ba42aaa9060240160206040518083038186803b158015611b9c57600080fd5b505afa158015611bb0573d6000803e3d6000fd5b505050506040513d601f19601f82011682018060405250810190611bd49190613ec7565b611bf05760405162461bcd60e51b8152600401610d0390613f2f565b6000816001600160a01b0316631368f3276040518163ffffffff1660e01b815260040160206040518083038186803b158015611c2b57600080fd5b505afa158015611c3f573d6000803e3d6000fd5b505050506040513d601f19601f82011682018060405250810190611c639190613eaa565b90505b63ffffffff811615610de657604051630e72f4d360e11b815263ffffffff821660048201526000906001600160a01b03841690631ce5e9a6906024016102c06040518083038186803b158015611cbb57600080fd5b505afa158015611ccf573d6000803e3d6000fd5b505050506040513d601f19601f82011682018060405250810190611cf39190614532565b6040516308479ba160e31b815290915073__$bd0f380ab135f83a7568cac3e5fc41e1e4$__9063423cdd0890611d3090600690859060040161454f565b6101206040518083038186803b158015611d4957600080fd5b505af4158015611d5d573d6000803e3d6000fd5b505050506040513d601f19601f82011682018060405250810190611d8191906141f1565b808252805160405163191b63f760e11b815263ffffffff909116917f52791ebd78dcff1d4506682d26f8e5101ebd38f503d61ac13050498de383f3689173__$bd0f380ab135f83a7568cac3e5fc41e1e4$__91633236c7ee91611de7919060040161361f565b60206040518083038186803b158015611dff57600080fd5b505af4158015611e13573d6000803e3d6000fd5b505050506040513d601f19601f82011682018060405250810190611e37919061420e565b60405190815260200160405180910390a260405163809bf77b60e01b815263ffffffff831660048201526000906001600160a01b0385169063809bf77b9060240160006040518083038186803b158015611e9057600080fd5b505afa158015611ea4573d6000803e3d6000fd5b505050506040513d6000823e601f3d908101601f19168201604052611ecc9190810190614598565b82515163ffffffff1660009081526007602052604090819020905162a36c9b60e51b815291925073__$bd0f380ab135f83a7568cac3e5fc41e1e4$__9163146d936091611f1d918590600401614628565b60006040518083038186803b158015611f3557600080fd5b505af4158015611f49573d6000803e3d6000fd5b505050508280611f5890614676565b9350505050611c66565b604051632a3be56b60e21b8152600480820152602481018390526044810182905260009073__$364aad554dc80380f414546becdd2c1584$__9063a8ef95ac9060640160206040518083038186803b158015611fbd57600080fd5b505af4158015611fd1573d6000803e3d6000fd5b505050506040513d601f19601f82011682018060405250810190611ff59190613ec7565b9392505050565b604051633b11adbf60e21b815260048082015233602482015273__$364aad554dc80380f414546becdd2c1584$__9063ec46b6fc9060440160206040518083038186803b15801561204c57600080fd5b505af4158015612060573d6000803e3d6000fd5b505050506040513d601f19601f820116820180604052508101906120849190613ec7565b80612129575073__$364aad554dc80380f414546becdd2c1584$__63fe27108660046120ae612f6a565b6040516001600160e01b031960e085901b168152600481019290925264ffffffffff16602482015260440160206040518083038186803b1580156120f157600080fd5b505af4158015612105573d6000803e3d6000fd5b505050506040513d601f19601f820116820180604052508101906121299190613ec7565b6121455760405162461bcd60e51b8152600401610d03906142cd565b60405163b6e38a2960e01b81526004808201526024810182905273__$364aad554dc80380f414546becdd2c1584$__9063b6e38a299060440160006040518083038186803b15801561219657600080fd5b505af41580156121aa573d6000803e3d6000fd5b505050507f8b6f40f36b4ae8cc5f55e895036457c43da4ab1f80f58c46f5ff0d72a650033b8160405161181491815260200190565b60008181526007602052604090819020905163034306e160e21b815260609173__$8c1a4844a0a0988ea2454cf87145a95df1$__91630d0c1b849161222a9160040190815260200190565b60006040518083038186803b15801561224257600080fd5b505af4158015612256573d6000803e3d6000fd5b505050506040513d6000823e601f3d908101601f191682016040526111159190810190614598565b6122866131b2565b6001546040516335d2155560e11b81523360048201526001600160a01b0390911690636ba42aaa9060240160206040518083038186803b1580156122c957600080fd5b505afa1580156122dd573d6000803e3d6000fd5b505050506040513d601f19601f820116820180604052508101906123019190613ec7565b61231d5760405162461bcd60e51b8152600401610d0390613f2f565b6040516308479ba160e31b815273__$bd0f380ab135f83a7568cac3e5fc41e1e4$__9063423cdd089061235790600690869060040161454f565b6101206040518083038186803b15801561237057600080fd5b505af4158015612384573d6000803e3d6000fd5b505050506040513d601f19601f820116820180604052508101906123a891906141f1565b805160405163191b63f760e11b815291925063ffffffff16907f52791ebd78dcff1d4506682d26f8e5101ebd38f503d61ac13050498de383f3689073__$bd0f380ab135f83a7568cac3e5fc41e1e4$__90633236c7ee9061240d90869060040161361f565b60206040518083038186803b15801561242557600080fd5b505af4158015612439573d6000803e3d6000fd5b505050506040513d601f19601f8201168201806040525081019061245d919061420e565b60405190815260200160405180910390a2919050565b60405163987ad15360e01b815260048082015260009073__$364aad554dc80380f414546becdd2c1584$__9063987ad1539060240161071c565b60006124b7612f6a565b60405163cc0d511b60e01b81526004808201526024810184905264ffffffffff8216604482015290915073__$364aad554dc80380f414546becdd2c1584$__9063cc0d511b90606401610857565b604051633b11adbf60e21b815260048082015233602482015273__$364aad554dc80380f414546becdd2c1584$__9063ec46b6fc9060440160206040518083038186803b15801561255557600080fd5b505af4158015612569573d6000803e3d6000fd5b505050506040513d601f19601f8201168201806040525081019061258d9190613ec7565b6125a95760405162461bcd60e51b8152600401610d0390613ee9565b6000828152600760205260409081902090516392f13c3f60e01b815260048101919091526024810182905273__$8c1a4844a0a0988ea2454cf87145a95df1$__906392f13c3f9060440160206040518083038186803b15801561260b57600080fd5b505af415801561261f573d6000803e3d6000fd5b505050506040513d601f19601f820116820180604052508101906126439190613ec7565b15610de657817f26dd4a901a5050dc1c995e66afc62c5aa03293381756199f49f62b57e197ea9882604051610ddd91815260200190565b604080516101608101825260006060808301828152608080850184905260a080860185905260c080870186905260e08701869052610100870186905261012087018690526101408701869052928652865192830187528483526020808401869052838801869052938301859052908201849052810183905290830152918101919091526001546040516335d2155560e11b81523360048201526001600160a01b0390911690636ba42aaa9060240160206040518083038186803b15801561274057600080fd5b505afa158015612754573d6000803e3d6000fd5b505050506040513d601f19601f820116820180604052508101906127789190613ec7565b6127945760405162461bcd60e51b8152600401610d0390613f2f565b6002546040516310826c2b60e11b8152600660048201526024810187905263ffffffff80871660448301526001600160401b0386166064830152841660848201526001600160a01b0390911660a482015273__$bd0f380ab135f83a7568cac3e5fc41e1e4$__90632104d8569060c4016101e06040518083038186803b15801561281d57600080fd5b505af4158015612831573d6000803e3d6000fd5b505050506040513d601f19601f820116820180604052508101906128559190614727565b95945050505050565b6000818152600660205260409020546060908290600160581b900465ffffffffffff1661289d5760405162461bcd60e51b8152600401610d03906140f8565b60008381526007602052604090819020905163e60e18a560e01b81526003909101600482015273__$9d89bb4a2fad48898c323b0a17741df93a$__9063e60e18a59060240160006040518083038186803b1580156128fa57600080fd5b505af415801561290e573d6000803e3d6000fd5b505050506040513d6000823e601f3d908101601f19168201604052611ff5919081019061480b565b6001546040516335d2155560e11b81523360048201526001600160a01b0390911690636ba42aaa9060240160206040518083038186803b15801561297957600080fd5b505afa15801561298d573d6000803e3d6000fd5b505050506040513d601f19601f820116820180604052508101906129b19190613ec7565b6129cd5760405162461bcd60e51b8152600401610d0390613f2f565b60405163921ab06760e01b815260009073__$bd0f380ab135f83a7568cac3e5fc41e1e4$__9063921ab06790612a0c906006908790879060040161489b565b60e06040518083038186803b158015612a2457600080fd5b505af4158015612a38573d6000803e3d6000fd5b505050506040513d601f19601f82011682018060405250810190612a5c91906148e2565b9050827fc02000af6ff4e7765f1f97c87932bf4f0877955ec99afad29399ed00a10e20a573__$bd0f380ab135f83a7568cac3e5fc41e1e4$__6389de3a96846040518263ffffffff1660e01b8152600401612ab7919061328d565b60206040518083038186803b158015612acf57600080fd5b505af4158015612ae3573d6000803e3d6000fd5b505050506040513d601f19601f82011682018060405250810190612b07919061420e565b604051908152602001610eeb565b60015460405163e0ff5b8b60e01b8152600860048201526001600160a01b039091169063e0ff5b8b9060240160206040518083038186803b158015612b5957600080fd5b505afa158015612b6d573d6000803e3d6000fd5b505050506040513d601f19601f82011682018060405250810190612b919190614515565b600380546001600160a01b0319166001600160a01b03929092169182179055604080516008815260208101929092527f6aa5e483fe137161b095cd68564a336d1657057f57987b1ae21019134dbc8da2910161199d565b612bf182612fc4565b612bfa81613073565b604051636cdd0edf60e11b8152600480820152602481018590526001600160a01b038416604482015273__$364aad554dc80380f414546becdd2c1584$__9063d9ba1dbe9060640160006040518083038186803b158015612c5a57600080fd5b505af4158015612c6e573d6000803e3d6000fd5b5050604080518781526001600160a01b038781166020830152868116828401528516606082015290517f3abb2418c66fe32ba9c883030a75ce583971d9af9192b9b74e44e67c5e6c8c1f9350908190036080019150a150505050565b604051633c3e56c160e11b815260048082015260009073__$364aad554dc80380f414546becdd2c1584$__9063787cad829060240160206040518083038186803b158015612d1757600080fd5b505af4158015612d2b573d6000803e3d6000fd5b505050506040513d601f19601f8201168201806040525081019061076c9190614515565b604051633b11adbf60e21b815260048082015233602482015273__$364aad554dc80380f414546becdd2c1584$__9063ec46b6fc9060440160206040518083038186803b158015612d9f57600080fd5b505af4158015612db3573d6000803e3d6000fd5b505050506040513d601f19601f82011682018060405250810190612dd79190613ec7565b612df35760405162461bcd60e51b8152600401610d0390613ee9565b600454600160f01b900460ff16600114612e4f5760405162461bcd60e51b815260206004820181905260248201527f41432e6f6e6c7950656e64696e673a20446f632069732066696e616c697a65646044820152606401610d03565b60405163cc99e11b60e01b8152600480820152684174746f726e65797360b81b602482015273__$364aad554dc80380f414546becdd2c1584$__9063cc99e11b9060440160006040518083038186803b158015612eab57600080fd5b505af4158015612ebf573d6000803e3d6000fd5b5050604051632725ebef60e21b81526004808201526000602482015273__$364aad554dc80380f414546becdd2c1584$__9250639c97afbc915060440160006040518083038186803b158015612f1457600080fd5b505af4158015612f28573d6000803e3d6000fd5b50506004805460ff60f01b1916600160f11b17905550506040517f35012b512309c322acf68632cd6cb702ff0e1d776fbe9394e38ffc13b434fe7590600090a1565b60008054604051636ae3b70d60e11b81523360048201526001600160a01b039091169063d5c76e1a90602401602060405180830381600087803b158015612fb057600080fd5b505af1158015610748573d6000803e3d6000fd5b6000546001600160a01b0316156130155760405162461bcd60e51b815260206004820152601560248201527430b63932b0b23c9039b2ba103932b3a1b2b73a32b960591b6044820152606401610d03565b6040516001600160a01b03821681527f318da6c7624c71cbc0afe346c9d8827f119d0ecefb241a7b0c87217a076a8e029060200160405180910390a1600080546001600160a01b0319166001600160a01b0392909216919091179055565b6001546001600160a01b0316156130cc5760405162461bcd60e51b815260206004820152601960248201527f616c7265616479207365742067656e6572616c4b6565706572000000000000006044820152606401610d03565b6040516001600160a01b03821681527fe513d3e0f0d0a3877029dcc588748679a7a3450ec1ec7ed56d96bd012c3e61aa9060200160405180910390a1600180546001600160a01b0319166001600160a01b0392909216919091179055565b604051806060016040528061313d6131b2565b8152604080516101008101825260008082526020828101829052928201819052606082018190526080820181905260a0820181905260c0820181905260e082015291019081526040805160a0810182526000808252602082810182905292820181905260608201819052608082015291015290565b6040805161012081018252600080825260208201819052918101829052606081018290526080810182905260a0810182905260c0810182905260e0810182905261010081019190915290565b6000806040838503121561321157600080fd5b50508035926020909101359150565b61ffff8151168252602081015163ffffffff8082166020850152806040840151166040850152505060608101516001600160401b038082166060850152806080840151166080850152505064ffffffffff60a08201511660a083015260ff60c08201511660c08301525050565b60e081016111158284613220565b6000602082840312156132ad57600080fd5b5035919050565b63ffffffff815116825260ff602082015116602083015260408101516132e0604084018261ffff169052565b5060608101516132f8606084018263ffffffff169052565b506080810151613312608084018265ffffffffffff169052565b5060a081015161332c60a084018265ffffffffffff169052565b5060c081015161334260c084018261ffff169052565b5060e081015161335860e084018261ffff169052565b506101009081015164ffffffffff16910152565b63ffffffff815116825260ff602082015116602083015260ff604082015116604083015260608101516001600160401b03808216606085015260ff60808401511660808501528060a08401511660a0850152505060c08101516133d460c084018260ff169052565b5060e08101516133ef60e08401826001600160401b03169052565b505050565b65ffffffffffff815116825264ffffffffff602082015116602083015260408101516001600160401b038082166040850152806060840151166060850152505060ff60808201511660808301525050565b6134508282516132b4565b602081015161346361012084018261336c565b5060408101516133ef6102208401826133f4565b6102c081016111158284613445565b60ff8116811461349557600080fd5b50565b80356134a381613486565b919050565b6000806000606084860312156134bd57600080fd5b833592506020840135915060408401356134d681613486565b809150509250925092565b6001600160401b038116811461349557600080fd5b80356134a3816134e1565b6000806000806080858703121561351757600080fd5b843593506020850135613529816134e1565b92506040850135613539816134e1565b91506060850135613549816134e1565b939692955090935050565b6020808252825182820181905260009190848201906040850190845b8181101561359657613583838551613220565b9284019260e09290920191600101613570565b50909695505050505050565b64ffffffffff8116811461349557600080fd5b80356134a3816135a2565b600080600080600060a086880312156135d857600080fd5b853594506020860135935060408601356135f1816135a2565b92506060860135613601816134e1565b91506080860135613611816134e1565b809150509295509295909350565b610120810161111582846132b4565b65ffffffffffff8116811461349557600080fd5b80356134a38161362e565b6000806040838503121561366057600080fd5b8235915060208301356136728161362e565b809150509250929050565b60808101611115828465ffffffffffff815116825260208101516001600160401b03808216602085015280604084015116604085015280606084015116606085015250505050565b6020808252825182820181905260009190848201906040850190845b81811015613596576136f4838551613445565b928401926102c092909201916001016136e1565b6001600160a01b038116811461349557600080fd5b60006020828403121561372f57600080fd5b8135611ff581613708565b6020808252825182820181905260009190848201906040850190845b8181101561359657835183529284019291840191600101613756565b634e487b7160e01b600052604160045260246000fd5b60405161010081016001600160401b03811182821017156137ab576137ab613772565b60405290565b60405160a081016001600160401b03811182821017156137ab576137ab613772565b604051606081016001600160401b03811182821017156137ab576137ab613772565b60405161012081016001600160401b03811182821017156137ab576137ab613772565b60405160c081016001600160401b03811182821017156137ab576137ab613772565b604051601f8201601f191681016001600160401b038111828210171561386257613862613772565b604052919050565b63ffffffff8116811461349557600080fd5b80356134a38161386a565b61ffff8116811461349557600080fd5b80356134a381613887565b600061010082840312156138b557600080fd5b6138bd613788565b905081356138ca8161386a565b815260208201356138da81613486565b60208201526138eb60408301613498565b60408201526138fc606083016134f6565b606082015261390d60808301613498565b608082015261391e60a083016134f6565b60a082015261392f60c08301613498565b60c082015261394060e083016134f6565b60e082015292915050565b600060a0828403121561395d57600080fd5b6139656137b1565b905081356139728161362e565b81526020820135613982816135a2565b60208201526040820135613995816134e1565b604082015260608201356139a8816134e1565b606082015260808201356139bb81613486565b608082015292915050565b60008183036102c08112156139da57600080fd5b6139e26137d3565b610120808312156139f257600080fd5b6139fa6137f5565b9250613a058561387c565b8352613a1360208601613498565b6020840152613a2460408601613897565b6040840152613a356060860161387c565b6060840152613a4660808601613642565b6080840152613a5760a08601613642565b60a0840152613a6860c08601613897565b60c0840152613a7960e08601613897565b60e0840152610100613a8c8187016135b5565b90840152828252613a9f868683016138a2565b602083015250613ab385610220860161394b565b6040820152949350505050565b60008060008060808587031215613ad657600080fd5b843593506020850135613ae88161386a565b92506040850135613af8816134e1565b915060608501356135498161386a565b63ffffffff8151168252602081015161ffff80821660208501528060408401511660408501526060830151915065ffffffffffff8083166060860152806080850151166080860152508060a08401511660a0850152505060c0810151613b7760c084018264ffffffffff169052565b5060e08101516133ef60e084018263ffffffff169052565b64ffffffffff8151168252602081015163ffffffff8082166020850152604083015191506001600160401b03808316604086015281606085015116606086015280608085015116608086015250505060ff60a08201511660a08301525050565b60006101e082019050613c03828451613b08565b6020830151613c16610100840182613b8f565b5060408301516101c083015292915050565b6020808252825182820181905260009190848201906040850190845b8181101561359657613c9183855165ffffffffffff815116825260208101516001600160401b03808216602085015280604084015116604085015280606084015116606085015250505050565b9284019260809290920191600101613c44565b600060c08284031215613cb657600080fd5b613cbe613818565b90508135613ccb816135a2565b81526020820135613cdb8161386a565b60208201526040820135613cee816134e1565b60408201526060820135613d018161386a565b60608201526080820135613d14816134e1565b608082015260a0820135613d2781613486565b60a082015292915050565b600080828403610200811215613d4757600080fd5b83359250601f19016101e080821215613d5f57600080fd5b613d676137d3565b61010080841215613d7757600080fd5b613d7f613788565b93506020870135613d8f8161386a565b8452613d9d60408801613897565b6020850152613dae60608801613897565b6040850152613dbf60808801613642565b6060850152613dd060a08801613642565b6080850152613de160c08801613897565b60a0850152613df260e088016135b5565b60c0850152613e0281880161387c565b60e085015250828152613e19876101208801613ca4565b6020820152940135604085015250909391925050565b60008060008060808587031215613e4557600080fd5b843593506020850135613e5781613708565b92506040850135613e6781613708565b9150606085013561354981613708565b80516134a3816135a2565b600060208284031215613e9457600080fd5b8151611ff5816135a2565b80516134a38161386a565b600060208284031215613ebc57600080fd5b8151611ff58161386a565b600060208284031215613ed957600080fd5b81518015158114611ff557600080fd5b60208082526026908201527f41432e6f6e6c794469726563744b65657065723a206e6f74206469726563742060408201526535b2b2b832b960d11b606082015260800190565b60208082526011908201527020a19737b59d103737ba1025b2b2b832b960791b604082015260600190565b60006001600160401b03821115613f7357613f73613772565b5060051b60200190565b80516134a381613887565b80516134a3816134e1565b80516134a381613486565b600060e08284031215613fb057600080fd5b60405160e081018181106001600160401b0382111715613fd257613fd2613772565b80604052508091508251613fe581613887565b81526020830151613ff58161386a565b602082015260408301516140088161386a565b6040820152606083015161401b816134e1565b606082015261402c60808401613f88565b608082015261403d60a08401613e77565b60a082015261404e60c08401613f93565b60c08201525092915050565b6000602080838503121561406d57600080fd5b82516001600160401b0381111561408357600080fd5b8301601f8101851361409457600080fd5b80516140a76140a282613f5a565b61383a565b81815260e091820283018401918482019190888411156140c657600080fd5b938501935b838510156140ec576140dd8986613f9e565b835293840193918501916140cb565b50979650505050505050565b60208082526018908201527f424f4f2e6d662e4f453a204f7074206e6f742065786973740000000000000000604082015260600190565b80516134a38161362e565b6000610120828403121561414d57600080fd5b6141556137f5565b905061416082613e9f565b815261416e60208301613f93565b602082015261417f60408301613f7d565b604082015261419060608301613e9f565b60608201526141a16080830161412f565b60808201526141b260a0830161412f565b60a08201526141c360c08301613f7d565b60c08201526141d460e08301613f7d565b60e08201526101006141e7818401613e77565b9082015292915050565b6000610120828403121561420457600080fd5b611ff5838361413a565b60006020828403121561422057600080fd5b5051919050565b60006080828403121561423957600080fd5b604051608081018181106001600160401b038211171561425b5761425b613772565b8060405250809150825161426e8161362e565b8152602083015161427e816134e1565b60208201526040830151614291816134e1565b604082015260608301516142a4816134e1565b6060919091015292915050565b6000608082840312156142c357600080fd5b611ff58383614227565b60208082526036908201527f41432e6f776e65724f72446972656374426f6f6b65657065723a206e6569746860408201527532b91037bbb732b9103737b9103137b7b5b2b2b832b960511b606082015260800190565b600060a0828403121561433557600080fd5b61433d6137b1565b9050815161434a8161362e565b8152602082015161435a816135a2565b6020820152604082015161436d816134e1565b60408201526060820151614380816134e1565b606082015260808201516139bb81613486565b60008183036102c08112156143a757600080fd5b6143af6137d3565b91506143bb848461413a565b825261010061011f19820112156143d157600080fd5b506143da613788565b6101208301516143e98161386a565b81526143f86101408401613f93565b602082015261440a6101608401613f93565b604082015261441c6101808401613f88565b606082015261442e6101a08401613f93565b60808201526144406101c08401613f88565b60a08201526144526101e08401613f93565b60c08201526144646102008401613f88565b60e0820152602082015261447c836102208401614323565b604082015292915050565b6000602080838503121561449a57600080fd5b82516001600160401b038111156144b057600080fd5b8301601f810185136144c157600080fd5b80516144cf6140a282613f5a565b8181526102c091820283018401918482019190888411156144ef57600080fd5b938501935b838510156140ec576145068986614393565b835293840193918501916144f4565b60006020828403121561452757600080fd5b8151611ff581613708565b60006102c0828403121561454557600080fd5b611ff58383614393565b60006102e0820190508382526145696020830184516132b4565b602083015161457c61014084018261336c565b5060408301516145906102408401826133f4565b509392505050565b600060208083850312156145ab57600080fd5b82516001600160401b038111156145c157600080fd5b8301601f810185136145d257600080fd5b80516145e06140a282613f5a565b81815260059190911b820183019083810190878311156145ff57600080fd5b928401925b8284101561461d57835182529284019290840190614604565b979650505050505050565b6000604082018483526020604081850152818551808452606086019150828701935060005b818110156146695784518352938301939183019160010161464d565b5090979650505050505050565b600063ffffffff82168061469a57634e487b7160e01b600052601160045260246000fd5b6000190192915050565b600060c082840312156146b657600080fd5b6146be613818565b905081516146cb816135a2565b815260208201516146db8161386a565b602082015260408201516146ee816134e1565b604082015260608201516147018161386a565b60608201526080820151614714816134e1565b608082015260a0820151613d2781613486565b60008183036101e081121561473b57600080fd5b6147436137d3565b6101008083121561475357600080fd5b61475b613788565b925084516147688161386a565b835261477660208601613f7d565b602084015261478760408601613f7d565b60408401526147986060860161412f565b60608401526147a96080860161412f565b60808401526147ba60a08601613f7d565b60a08401526147cb60c08601613e77565b60c08401526147dc60e08601613e9f565b60e08401528282526147f0868287016146a4565b6020830152506101c093909301516040840152509092915050565b6000602080838503121561481e57600080fd5b82516001600160401b0381111561483457600080fd5b8301601f8101851361484557600080fd5b80516148536140a282613f5a565b81815260079190911b8201830190838101908783111561487257600080fd5b928401925b8284101561461d576148898885614227565b82528482019150608084019350614877565b6000610220820190508482528360208301526148bb604083018451613b08565b60208301516148ce610140840182613b8f565b506040830151610200830152949350505050565b600060e082840312156148f457600080fd5b611ff58383613f9e56fea2646970667358221220e2b6df24cee57fc7676d14596dcf01fc9fcf83dc45e98f8bfb4a92228311db1064736f6c63430008080033",
    "sourcePath": "/Users/kaptain/github.com/hardhat/comboox/contracts/books/boo/BookOfOptions.sol",
    "compiler": {
        "name": "solc",
        "version": "0.8.8+commit.dddeac2f"
    },
    "functionHashes": {
        "abandonRole(bytes32)": "3da9a600",
        "addObligorIntoOption(uint256,uint256)": "a24132e8",
        "counterOfBriefs(uint256)": "39803c02",
        "counterOfOptions()": "1368f327",
        "createOption(uint256,uint256,uint40,uint64,uint64)": "41ec8c4a",
        "createSwapOrder(uint256,uint32,uint64,uint32)": "bdc6bb76",
        "execOption(uint256)": "6555ff7a",
        "finalized()": "b3f05b97",
        "getALLOraclesOfOption(uint256)": "c4e1f56e",
        "getAllBriefsOfOption(uint256)": "2bff28d9",
        "getAllOptions()": "4b4b0d37",
        "getBookeeper()": "ed211023",
        "getBrief(uint256,uint256)": "17e18de3",
        "getGeneralCounsel()": "103f6edd",
        "getObligorsOfOption(uint256)": "809bf77b",
        "getOption(uint256)": "1ce5e9a6",
        "getOracleAtDate(uint256,uint48)": "4747bb8a",
        "getOwner()": "893d20e8",
        "grantRole(bytes32,uint256)": "1b6ea9f9",
        "hasRole(bytes32,uint256)": "7e063c5a",
        "init(uint256,address,address,address)": "dc890da9",
        "initBOS()": "62ce0a28",
        "initROS()": "d44aadf7",
        "isObligor(uint256,uint256)": "3bce3c30",
        "isOption(uint256)": "b3be456a",
        "isRightholder(uint256,uint256)": "f5bf221d",
        "issueOption(((uint32,uint8,uint16,uint32,uint48,uint48,uint16,uint16,uint40),(uint32,uint8,uint8,uint64,uint8,uint64,uint8,uint64),(uint48,uint40,uint64,uint64,uint8)))": "88e332db",
        "lockContents()": "f045a769",
        "regOptionTerms(address)": "6ca5cc5d",
        "regSwapOrder(uint256,((uint32,uint16,uint16,uint48,uint48,uint16,uint40,uint32),(uint40,uint32,uint64,uint32,uint64,uint8),bytes32))": "c5d76432",
        "removeObligorFromOption(uint256,uint256)": "1d565c07",
        "renounceRole(bytes32)": "8bb9c5bf",
        "revokeRole(bytes32,uint256)": "19d61ad9",
        "setDirectKeeper(address)": "6be8496f",
        "setGeneralCounsel(uint256)": "4a14beb1",
        "setOwner(uint256)": "8041494e",
        "setRoleAdmin(bytes32,uint256)": "5171ebd4",
        "updateOracle(uint256,uint64,uint64,uint64)": "2b6c0ce1",
        "updateStateOfBrief(uint256,uint256,uint8)": "1f223a5c"
    },
    "gasEstimates": {
        "creation": {
            "codeDepositCost": "3748000",
            "executionCost": "4237",
            "totalCost": "3752237"
        },
        "external": {
            "abandonRole(bytes32)": "infinite",
            "addObligorIntoOption(uint256,uint256)": "infinite",
            "counterOfBriefs(uint256)": "2590",
            "counterOfOptions()": "infinite",
            "createOption(uint256,uint256,uint40,uint64,uint64)": "infinite",
            "createSwapOrder(uint256,uint32,uint64,uint32)": "infinite",
            "execOption(uint256)": "infinite",
            "finalized()": "2394",
            "getALLOraclesOfOption(uint256)": "infinite",
            "getAllBriefsOfOption(uint256)": "infinite",
            "getAllOptions()": "infinite",
            "getBookeeper()": "infinite",
            "getBrief(uint256,uint256)": "3417",
            "getGeneralCounsel()": "infinite",
            "getObligorsOfOption(uint256)": "infinite",
            "getOption(uint256)": "infinite",
            "getOracleAtDate(uint256,uint48)": "infinite",
            "getOwner()": "infinite",
            "grantRole(bytes32,uint256)": "infinite",
            "hasRole(bytes32,uint256)": "infinite",
            "init(uint256,address,address,address)": "infinite",
            "initBOS()": "infinite",
            "initROS()": "infinite",
            "isObligor(uint256,uint256)": "infinite",
            "isOption(uint256)": "2518",
            "isRightholder(uint256,uint256)": "2628",
            "issueOption(((uint32,uint8,uint16,uint32,uint48,uint48,uint16,uint16,uint40),(uint32,uint8,uint8,uint64,uint8,uint64,uint8,uint64),(uint48,uint40,uint64,uint64,uint8)))": "infinite",
            "lockContents()": "infinite",
            "regOptionTerms(address)": "infinite",
            "regSwapOrder(uint256,((uint32,uint16,uint16,uint48,uint48,uint16,uint40,uint32),(uint40,uint32,uint64,uint32,uint64,uint8),bytes32))": "infinite",
            "removeObligorFromOption(uint256,uint256)": "infinite",
            "renounceRole(bytes32)": "infinite",
            "revokeRole(bytes32,uint256)": "infinite",
            "setDirectKeeper(address)": "infinite",
            "setGeneralCounsel(uint256)": "infinite",
            "setOwner(uint256)": "infinite",
            "setRoleAdmin(bytes32,uint256)": "infinite",
            "updateOracle(uint256,uint64,uint64,uint64)": "infinite",
            "updateStateOfBrief(uint256,uint256,uint8)": "infinite"
        }
    }
}