{
    "contractName": "BOAKeeper",
    "abi": [
        {
            "anonymous": false,
            "inputs": [
                {
                    "indexed": false,
                    "internalType": "uint256",
                    "name": "owner",
                    "type": "uint256"
                },
                {
                    "indexed": false,
                    "internalType": "address",
                    "name": "directKeeper",
                    "type": "address"
                },
                {
                    "indexed": false,
                    "internalType": "address",
                    "name": "regCenter",
                    "type": "address"
                },
                {
                    "indexed": false,
                    "internalType": "address",
                    "name": "generalKeeper",
                    "type": "address"
                }
            ],
            "name": "Init",
            "type": "event"
        },
        {
            "anonymous": false,
            "inputs": [],
            "name": "LockContents",
            "type": "event"
        },
        {
            "anonymous": false,
            "inputs": [
                {
                    "indexed": false,
                    "internalType": "address",
                    "name": "target",
                    "type": "address"
                }
            ],
            "name": "RemoveDirectKeeper",
            "type": "event"
        },
        {
            "anonymous": false,
            "inputs": [
                {
                    "indexed": false,
                    "internalType": "address",
                    "name": "keeper",
                    "type": "address"
                }
            ],
            "name": "SetDirectKeeper",
            "type": "event"
        },
        {
            "anonymous": false,
            "inputs": [
                {
                    "indexed": false,
                    "internalType": "uint256",
                    "name": "acct",
                    "type": "uint256"
                }
            ],
            "name": "SetGeneralCounsel",
            "type": "event"
        },
        {
            "anonymous": false,
            "inputs": [
                {
                    "indexed": false,
                    "internalType": "uint256",
                    "name": "acct",
                    "type": "uint256"
                }
            ],
            "name": "SetOwner",
            "type": "event"
        },
        {
            "inputs": [
                {
                    "internalType": "bytes32",
                    "name": "role",
                    "type": "bytes32"
                }
            ],
            "name": "abandonRole",
            "outputs": [],
            "stateMutability": "nonpayable",
            "type": "function"
        },
        {
            "inputs": [
                {
                    "internalType": "address",
                    "name": "ia",
                    "type": "address"
                },
                {
                    "internalType": "bytes32",
                    "name": "docUrl",
                    "type": "bytes32"
                },
                {
                    "internalType": "bytes32",
                    "name": "docHash",
                    "type": "bytes32"
                },
                {
                    "internalType": "uint256",
                    "name": "caller",
                    "type": "uint256"
                }
            ],
            "name": "circulateIA",
            "outputs": [],
            "stateMutability": "nonpayable",
            "type": "function"
        },
        {
            "inputs": [
                {
                    "internalType": "address",
                    "name": "ia",
                    "type": "address"
                },
                {
                    "internalType": "uint256",
                    "name": "seqOfDeal",
                    "type": "uint256"
                },
                {
                    "internalType": "string",
                    "name": "hashKey",
                    "type": "string"
                },
                {
                    "internalType": "uint256",
                    "name": "caller",
                    "type": "uint256"
                }
            ],
            "name": "closeDeal",
            "outputs": [],
            "stateMutability": "nonpayable",
            "type": "function"
        },
        {
            "inputs": [
                {
                    "internalType": "uint256",
                    "name": "version",
                    "type": "uint256"
                },
                {
                    "internalType": "address",
                    "name": "primeKeyOfCaller",
                    "type": "address"
                },
                {
                    "internalType": "uint256",
                    "name": "caller",
                    "type": "uint256"
                }
            ],
            "name": "createIA",
            "outputs": [],
            "stateMutability": "nonpayable",
            "type": "function"
        },
        {
            "inputs": [],
            "name": "finalized",
            "outputs": [
                {
                    "internalType": "bool",
                    "name": "",
                    "type": "bool"
                }
            ],
            "stateMutability": "view",
            "type": "function"
        },
        {
            "inputs": [],
            "name": "getBookeeper",
            "outputs": [
                {
                    "internalType": "address",
                    "name": "",
                    "type": "address"
                }
            ],
            "stateMutability": "view",
            "type": "function"
        },
        {
            "inputs": [],
            "name": "getGeneralCounsel",
            "outputs": [
                {
                    "internalType": "uint40",
                    "name": "",
                    "type": "uint40"
                }
            ],
            "stateMutability": "view",
            "type": "function"
        },
        {
            "inputs": [],
            "name": "getOwner",
            "outputs": [
                {
                    "internalType": "uint40",
                    "name": "",
                    "type": "uint40"
                }
            ],
            "stateMutability": "view",
            "type": "function"
        },
        {
            "inputs": [
                {
                    "internalType": "bytes32",
                    "name": "role",
                    "type": "bytes32"
                },
                {
                    "internalType": "uint256",
                    "name": "acct",
                    "type": "uint256"
                }
            ],
            "name": "grantRole",
            "outputs": [],
            "stateMutability": "nonpayable",
            "type": "function"
        },
        {
            "inputs": [
                {
                    "internalType": "bytes32",
                    "name": "role",
                    "type": "bytes32"
                },
                {
                    "internalType": "uint256",
                    "name": "acct",
                    "type": "uint256"
                }
            ],
            "name": "hasRole",
            "outputs": [
                {
                    "internalType": "bool",
                    "name": "",
                    "type": "bool"
                }
            ],
            "stateMutability": "view",
            "type": "function"
        },
        {
            "inputs": [
                {
                    "internalType": "uint256",
                    "name": "owner",
                    "type": "uint256"
                },
                {
                    "internalType": "address",
                    "name": "directKeeper",
                    "type": "address"
                },
                {
                    "internalType": "address",
                    "name": "regCenter",
                    "type": "address"
                },
                {
                    "internalType": "address",
                    "name": "generalKeeper",
                    "type": "address"
                }
            ],
            "name": "init",
            "outputs": [],
            "stateMutability": "nonpayable",
            "type": "function"
        },
        {
            "inputs": [
                {
                    "internalType": "address",
                    "name": "ia",
                    "type": "address"
                },
                {
                    "internalType": "uint256",
                    "name": "seqOfDeal",
                    "type": "uint256"
                }
            ],
            "name": "issueNewShare",
            "outputs": [],
            "stateMutability": "nonpayable",
            "type": "function"
        },
        {
            "inputs": [],
            "name": "lockContents",
            "outputs": [],
            "stateMutability": "nonpayable",
            "type": "function"
        },
        {
            "inputs": [
                {
                    "internalType": "address",
                    "name": "ia",
                    "type": "address"
                },
                {
                    "internalType": "uint256",
                    "name": "seqOfDeal",
                    "type": "uint256"
                },
                {
                    "internalType": "bytes32",
                    "name": "hashLock",
                    "type": "bytes32"
                },
                {
                    "internalType": "uint256",
                    "name": "closingDate",
                    "type": "uint256"
                },
                {
                    "internalType": "uint256",
                    "name": "caller",
                    "type": "uint256"
                }
            ],
            "name": "pushToCoffer",
            "outputs": [],
            "stateMutability": "nonpayable",
            "type": "function"
        },
        {
            "inputs": [
                {
                    "internalType": "address",
                    "name": "target",
                    "type": "address"
                }
            ],
            "name": "removeDirectKeeper",
            "outputs": [],
            "stateMutability": "nonpayable",
            "type": "function"
        },
        {
            "inputs": [
                {
                    "internalType": "bytes32",
                    "name": "role",
                    "type": "bytes32"
                }
            ],
            "name": "renounceRole",
            "outputs": [],
            "stateMutability": "nonpayable",
            "type": "function"
        },
        {
            "inputs": [
                {
                    "internalType": "address",
                    "name": "ia",
                    "type": "address"
                },
                {
                    "internalType": "uint256",
                    "name": "seqOfDeal",
                    "type": "uint256"
                },
                {
                    "internalType": "uint256",
                    "name": "caller",
                    "type": "uint256"
                },
                {
                    "internalType": "string",
                    "name": "hashKey",
                    "type": "string"
                }
            ],
            "name": "revokeDeal",
            "outputs": [],
            "stateMutability": "nonpayable",
            "type": "function"
        },
        {
            "inputs": [
                {
                    "internalType": "bytes32",
                    "name": "role",
                    "type": "bytes32"
                },
                {
                    "internalType": "uint256",
                    "name": "acct",
                    "type": "uint256"
                }
            ],
            "name": "revokeRole",
            "outputs": [],
            "stateMutability": "nonpayable",
            "type": "function"
        },
        {
            "inputs": [
                {
                    "internalType": "address",
                    "name": "keeper",
                    "type": "address"
                }
            ],
            "name": "setDirectKeeper",
            "outputs": [],
            "stateMutability": "nonpayable",
            "type": "function"
        },
        {
            "inputs": [
                {
                    "internalType": "uint256",
                    "name": "acct",
                    "type": "uint256"
                }
            ],
            "name": "setGeneralCounsel",
            "outputs": [],
            "stateMutability": "nonpayable",
            "type": "function"
        },
        {
            "inputs": [
                {
                    "internalType": "uint256",
                    "name": "acct",
                    "type": "uint256"
                }
            ],
            "name": "setOwner",
            "outputs": [],
            "stateMutability": "nonpayable",
            "type": "function"
        },
        {
            "inputs": [
                {
                    "internalType": "bytes32",
                    "name": "role",
                    "type": "bytes32"
                },
                {
                    "internalType": "uint256",
                    "name": "acct",
                    "type": "uint256"
                }
            ],
            "name": "setRoleAdmin",
            "outputs": [],
            "stateMutability": "nonpayable",
            "type": "function"
        },
        {
            "inputs": [
                {
                    "internalType": "address",
                    "name": "ia",
                    "type": "address"
                },
                {
                    "internalType": "uint256",
                    "name": "caller",
                    "type": "uint256"
                },
                {
                    "internalType": "bytes32",
                    "name": "sigHash",
                    "type": "bytes32"
                }
            ],
            "name": "signIA",
            "outputs": [],
            "stateMutability": "nonpayable",
            "type": "function"
        },
        {
            "inputs": [
                {
                    "internalType": "address",
                    "name": "ia",
                    "type": "address"
                },
                {
                    "internalType": "uint256",
                    "name": "seqOfDeal",
                    "type": "uint256"
                },
                {
                    "internalType": "uint256",
                    "name": "caller",
                    "type": "uint256"
                }
            ],
            "name": "terminateDeal",
            "outputs": [],
            "stateMutability": "nonpayable",
            "type": "function"
        },
        {
            "inputs": [
                {
                    "internalType": "address",
                    "name": "ia",
                    "type": "address"
                },
                {
                    "internalType": "uint256",
                    "name": "seqOfDeal",
                    "type": "uint256"
                },
                {
                    "internalType": "uint256",
                    "name": "caller",
                    "type": "uint256"
                }
            ],
            "name": "transferTargetShare",
            "outputs": [],
            "stateMutability": "nonpayable",
            "type": "function"
        }
    ],
    "bytecode": "60a0604052608080601790526200001b9060049060016200005f565b5060408051606081019091528060198152602001601b8152602001601890526200004a9060059060036200011d565b503480156200005857600080fd5b50620001c5565b82805482825590600052602060002090601f016020900481019282156200010b5791602002820160005b83821115620000da57835183826101000a81548160ff0219169083601b811115620000b857620000b8620001af565b0217905550926020019260010160208160000104928301926001030262000089565b8015620001095782816101000a81549060ff0219169055600101602081600001049283019260010302620000da565b505b506200011992915062000198565b5090565b82805482825590600052602060002090601f016020900481019282156200010b5791602002820160005b83821115620000da57835183826101000a81548160ff0219169083601b811115620001765762000176620001af565b0217905550926020019260010160208160000104928301926001030262000147565b5b8082111562000119576000815560010162000199565b634e487b7160e01b600052602160045260246000fd5b615b2080620001d56000396000f3fe608060405234801561001057600080fd5b50600436106101735760003560e01c80637e063c5a116100de578063b951cf1d11610097578063deeb633f11610071578063deeb633f1461031f578063ed21102314610332578063f045a76914610352578063f4a6975c1461035a57600080fd5b8063b951cf1d146102e6578063d270be0e146102f9578063dc890da91461030c57600080fd5b80637e063c5a1461026e5780638041494e14610291578063893d20e8146102a45780638bb9c5bf146102ac57806392a38202146102bf578063b3f05b97146102d257600080fd5b80635171ebd4116101305780635171ebd4146101fc5780635d7ad88f1461020f5780636be8496f146102225780636e6014a414610235578063755514d5146102485780637a6ae8651461025b57600080fd5b8063103f6edd1461017857806319d61ad91461019b5780631b6ea9f9146101b05780633da9a600146101c3578063452558b0146101d65780634a14beb1146101e9575b600080fd5b61018061036d565b60405164ffffffffff90911681526020015b60405180910390f35b6101ae6101a9366004614975565b6103f9565b005b6101ae6101be366004614975565b61048b565b6101ae6101d1366004614997565b6104b1565b6101ae6101e43660046149c8565b61053c565b6101ae6101f7366004614997565b6108fa565b6101ae61020a366004614975565b610b57565b6101ae61021d3660046149f4565b610b7d565b6101ae6102303660046149f4565b610cb5565b6101ae610243366004614a11565b610d67565b6101ae610256366004614a4c565b611459565b6101ae610269366004614a4c565b6115f2565b61028161027c366004614975565b611a98565b6040519015158152602001610192565b6101ae61029f366004614997565b611b33565b610180611bec565b6101ae6102ba366004614997565b611c27565b6101ae6102cd366004614a81565b611c4c565b60028054600160f01b900460ff1614610281565b6101ae6102f4366004614a4c565b6120e1565b6101ae610307366004614c50565b612550565b6101ae61031a366004614cb2565b612a3e565b6101ae61032d366004614d05565b612b20565b61033a612f86565b6040516001600160a01b039091168152602001610192565b6101ae61300c565b6101ae610368366004614d65565b613250565b60405163e8c0cc1d60e01b81526002600482015260009073__$364aad554dc80380f414546becdd2c1584$__9063e8c0cc1d906024015b60206040518083038186803b1580156103bc57600080fd5b505af41580156103d0573d6000803e3d6000fd5b505050506040513d601f19601f820116820180604052508101906103f49190614db7565b905090565b73__$364aad554dc80380f414546becdd2c1584$__6382daafaa6002848461041f6136aa565b6040516001600160e01b031960e087901b16815260048101949094526024840192909252604483015264ffffffffff16606482015260840160006040518083038186803b15801561046f57600080fd5b505af4158015610483573d6000803e3d6000fd5b505050505050565b73__$364aad554dc80380f414546becdd2c1584$__636320d75e6002848461041f6136aa565b73__$364aad554dc80380f414546becdd2c1584$__63c51b295f6002836104d66136aa565b6040516001600160e01b031960e086901b1681526004810193909352602483019190915264ffffffffff16604482015260640160006040518083038186803b15801561052157600080fd5b505af4158015610535573d6000803e3d6000fd5b5050505050565b604051633b11adbf60e21b81526002600482015233602482015273__$364aad554dc80380f414546becdd2c1584$__9063ec46b6fc9060440160206040518083038186803b15801561058d57600080fd5b505af41580156105a1573d6000803e3d6000fd5b505050506040513d601f19601f820116820180604052508101906105c59190614de2565b6105ea5760405162461bcd60e51b81526004016105e190614dfd565b60405180910390fd5b6040516320bf56eb60e21b8152600481018290526000906001600160a01b038416906382fd5bac906024016102606040518083038186803b15801561062e57600080fd5b505afa158015610642573d6000803e3d6000fd5b505050506040513d601f19601f820116820180604052508101906106669190614f70565b90506106f560408051610160810182526000918101828152606082018390526080820183905260a0820183905260c0820183905260e082018390526101008201839052610120820183905261014082019290925290819081526040805160c08101825260008082526020828101829052928201819052606082018190526080820181905260a082015291015290565b604080516101208101825260008082526020808301829052855160609081015161ffff16848601524265ffffffffffff811691850191909152908601515164ffffffffff166080840152855160c09081015163ffffffff90811660a0860152875160e0908101519091168286015284018390526101008401929092529184528251908101909252819061078a9061a8c0615074565b65ffffffffffff1681526020018360200151604001516001600160401b031681526020018360200151606001516001600160401b031681526020018360200151604001516001600160401b03168152602001600060ff168152602001600060ff168152508160200181905250600160009054906101000a90046001600160a01b03166001600160a01b031663f01e100f6040518163ffffffff1660e01b815260040160206040518083038186803b15801561084457600080fd5b505afa158015610858573d6000803e3d6000fd5b505050506040513d601f19601f8201168201806040525081019061087c919061509e565b6001600160a01b031663ea64673f826040518263ffffffff1660e01b81526004016108a791906150bb565b6101e060405180830381600087803b1580156108c257600080fd5b505af11580156108d6573d6000803e3d6000fd5b505050506040513d601f19601f820116820180604052508101906105359190615285565b604051633b11adbf60e21b81526002600482015233602482015273__$364aad554dc80380f414546becdd2c1584$__9063ec46b6fc9060440160206040518083038186803b15801561094b57600080fd5b505af415801561095f573d6000803e3d6000fd5b505050506040513d601f19601f820116820180604052508101906109839190614de2565b80610a28575073__$364aad554dc80380f414546becdd2c1584$__63fe27108660026109ad6136aa565b6040516001600160e01b031960e085901b168152600481019290925264ffffffffff16602482015260440160206040518083038186803b1580156109f057600080fd5b505af4158015610a04573d6000803e3d6000fd5b505050506040513d601f19601f82011682018060405250810190610a289190614de2565b610a935760405162461bcd60e51b815260206004820152603660248201527f41432e6f776e65724f72446972656374426f6f6b65657065723a206e6569746860448201527532b91037bbb732b9103737b9103137b7b5b2b2b832b960511b60648201526084016105e1565b73__$364aad554dc80380f414546becdd2c1584$__639b4510de600283610ab86136aa565b6040516001600160e01b031960e086901b1681526004810193909352602483019190915264ffffffffff16604482015260640160006040518083038186803b158015610b0357600080fd5b505af4158015610b17573d6000803e3d6000fd5b505050507ff2735f34b69be1e6342dea95f9162f84d0db925fab655ca9f1f312ac8cbfc99d81604051610b4c91815260200190565b60405180910390a150565b73__$364aad554dc80380f414546becdd2c1584$__63ee98b3136002848461041f6136aa565b604051633b11adbf60e21b81526002600482015233602482015273__$364aad554dc80380f414546becdd2c1584$__9063ec46b6fc9060440160206040518083038186803b158015610bce57600080fd5b505af4158015610be2573d6000803e3d6000fd5b505050506040513d601f19601f82011682018060405250810190610c069190614de2565b610c225760405162461bcd60e51b81526004016105e190614dfd565b604051636be8496f60e01b81523360048201526001600160a01b03821690636be8496f90602401600060405180830381600087803b158015610c6357600080fd5b505af1158015610c77573d6000803e3d6000fd5b50506040516001600160a01b03841681527f64dd6e84044f0067086012335dcfab3188db6615b5cc7debf18c9a621ebd5d9192506020019050610b4c565b604051630f07232560e01b8152600260048201526001600160a01b038216602482015233604482015273__$364aad554dc80380f414546becdd2c1584$__90630f0723259060640160006040518083038186803b158015610d1557600080fd5b505af4158015610d29573d6000803e3d6000fd5b50506040516001600160a01b03841681527fe435cbeab64e4eae6497b9d8289704bd709d624a80704ef3ca9af777534bc6ec92506020019050610b4c565b604051633b11adbf60e21b81526002600482015233602482015273__$364aad554dc80380f414546becdd2c1584$__9063ec46b6fc9060440160206040518083038186803b158015610db857600080fd5b505af4158015610dcc573d6000803e3d6000fd5b505050506040513d601f19601f82011682018060405250810190610df09190614de2565b610e0c5760405162461bcd60e51b81526004016105e190614dfd565b6040516308c5f91760e41b815260048101829052849082906001600160a01b03831690638c5f91709060240160206040518083038186803b158015610e5057600080fd5b505afa158015610e64573d6000803e3d6000fd5b505050506040513d601f19601f82011682018060405250810190610e889190614de2565b610ec75760405162461bcd60e51b815260206004820152601060248201526f4e4f54205061727479206f6620446f6360801b60448201526064016105e1565b856001600160a01b031663b3f05b976040518163ffffffff1660e01b815260040160206040518083038186803b158015610f0057600080fd5b505afa158015610f14573d6000803e3d6000fd5b505050506040513d601f19601f82011682018060405250810190610f389190614de2565b610f845760405162461bcd60e51b815260206004820152601a60248201527f424f414b2e4349413a204941206e6f742066696e616c697a656400000000000060448201526064016105e1565b856001600160a01b0316635b041ead6040518163ffffffff1660e01b8152600401600060405180830381600087803b158015610fbf57600080fd5b505af1158015610fd3573d6000803e3d6000fd5b505050506000866001600160a01b0316635041de826040518163ffffffff1660e01b815260040160206040518083038186803b15801561101257600080fd5b505afa158015611026573d6000803e3d6000fd5b505050506040513d601f19601f8201168201806040525081019061104a919061536c565b90506000876001600160a01b0316638d6a31d46040518163ffffffff1660e01b815260040160206040518083038186803b15801561108757600080fd5b505afa15801561109b573d6000803e3d6000fd5b505050506040513d601f19601f820116820180604052508101906110bf919061536c565b90506000886001600160a01b031663c0961f7f6040518163ffffffff1660e01b815260040160206040518083038186803b1580156110fc57600080fd5b505afa158015611110573d6000803e3d6000fd5b505050506040513d601f19601f820116820180604052508101906111349190615387565b60ff1690506000600160009054906101000a90046001600160a01b03166001600160a01b031663a61adc286040518163ffffffff1660e01b815260040160206040518083038186803b15801561118957600080fd5b505afa15801561119d573d6000803e3d6000fd5b505050506040513d601f19601f820116820180604052508101906111c1919061509e565b6001600160a01b03166348462037836040518263ffffffff1660e01b81526004016111ee91815260200190565b60206040518083038186803b15801561120657600080fd5b505afa15801561121a573d6000803e3d6000fd5b505050506040513d601f19601f8201168201806040525081019061123e91906153a2565b60405163d1296c8f60e01b8152600481019190915273__$9d2c69e94fee47b9774dc8db4aa5c0bbec$__9063d1296c8f906024016102206040518083038186803b15801561128b57600080fd5b505af415801561129f573d6000803e3d6000fd5b505050506040513d601f19601f820116820180604052508101906112c39190615431565b9050896001600160a01b031663094f0cfc600083610160015160ff1684610140015160ff16886112f39190615566565b6112fd9190615566565b6040516001600160e01b031960e085901b168152911515600483015261ffff908116602483015286166044820152606401600060405180830381600087803b15801561134857600080fd5b505af115801561135c573d6000803e3d6000fd5b50505050600160009054906101000a90046001600160a01b03166001600160a01b031663acd2d0576040518163ffffffff1660e01b815260040160206040518083038186803b1580156113ae57600080fd5b505afa1580156113c2573d6000803e3d6000fd5b505050506040513d601f19601f820116820180604052508101906113e6919061509e565b6001600160a01b031663f253a81e8b8686858e8e6040518763ffffffff1660e01b815260040161141b969594939291906155ad565b600060405180830381600087803b15801561143557600080fd5b505af1158015611449573d6000803e3d6000fd5b5050505050505050505050505050565b604051633b11adbf60e21b81526002600482015233602482015273__$364aad554dc80380f414546becdd2c1584$__9063ec46b6fc9060440160206040518083038186803b1580156114aa57600080fd5b505af41580156114be573d6000803e3d6000fd5b505050506040513d601f19601f820116820180604052508101906114e29190614de2565b6114fe5760405162461bcd60e51b81526004016105e190614dfd565b60405163cdf4b38760e01b8152600481018390526000906001600160a01b0385169063cdf4b387906024016101406040518083038186803b15801561154257600080fd5b505afa158015611556573d6000803e3d6000fd5b505050506040513d601f19601f8201168201806040525081019061157a9190615715565b90508060a0015164ffffffffff1682146115d65760405162461bcd60e51b815260206004820152601a60248201527f424f414b2e5454533a206e6f742073656c6c65724f664465616c00000000000060448201526064016105e1565b6115e284846001613704565b6115ec8484613eb7565b50505050565b604051633b11adbf60e21b81526002600482015233602482015273__$364aad554dc80380f414546becdd2c1584$__9063ec46b6fc9060440160206040518083038186803b15801561164357600080fd5b505af4158015611657573d6000803e3d6000fd5b505050506040513d601f19601f8201168201806040525081019061167b9190614de2565b6116975760405162461bcd60e51b81526004016105e190614dfd565b6040516308c5f91760e41b815260048101839052839083906001600160a01b03831690638c5f91709060240160206040518083038186803b1580156116db57600080fd5b505afa1580156116ef573d6000803e3d6000fd5b505050506040513d601f19601f820116820180604052508101906117139190614de2565b6117525760405162461bcd60e51b815260206004820152601060248201526f4e4f54205061727479206f6620446f6360801b60448201526064016105e1565b6001546040805163acd2d05760e01b815290516002926001600160a01b03169163acd2d057916004808301926020929190829003018186803b15801561179757600080fd5b505afa1580156117ab573d6000803e3d6000fd5b505050506040513d601f19601f820116820180604052508101906117cf919061509e565b6040516337066e9d60e11b81526001600160a01b0388811660048301529190911690636e0cdd3a9060240160c06040518083038186803b15801561181257600080fd5b505afa158015611826573d6000803e3d6000fd5b505050506040513d601f19601f8201168201806040525081019061184a9190615748565b60a0015160ff161461189e5760405162461bcd60e51b815260206004820152601a60248201527f4941206e6f7420696e2043697263756c6174656420537461746500000000000060448201526064016105e1565b6118a88585614181565b604051630cac562d60e11b81526001600482015260248101859052604481018490526001600160a01b03861690631958ac5a90606401602060405180830381600087803b1580156118f857600080fd5b505af115801561190c573d6000803e3d6000fd5b505050506040513d601f19601f820116820180604052508101906119309190614de2565b80156119a85750846001600160a01b0316634844f5416040518163ffffffff1660e01b815260040160206040518083038186803b15801561197057600080fd5b505afa158015611984573d6000803e3d6000fd5b505050506040513d601f19601f820116820180604052508101906119a89190614de2565b1561053557600160009054906101000a90046001600160a01b03166001600160a01b031663acd2d0576040518163ffffffff1660e01b815260040160206040518083038186803b1580156119fb57600080fd5b505afa158015611a0f573d6000803e3d6000fd5b505050506040513d601f19601f82011682018060405250810190611a33919061509e565b6040516358aa905560e01b81526001600160a01b03878116600483015291909116906358aa9055906024015b600060405180830381600087803b158015611a7957600080fd5b505af1158015611a8d573d6000803e3d6000fd5b505050505050505050565b604051632a3be56b60e21b815260026004820152602481018390526044810182905260009073__$364aad554dc80380f414546becdd2c1584$__9063a8ef95ac9060640160206040518083038186803b158015611af457600080fd5b505af4158015611b08573d6000803e3d6000fd5b505050506040513d601f19601f82011682018060405250810190611b2c9190614de2565b9392505050565b73__$364aad554dc80380f414546becdd2c1584$__639b48160c600283611b586136aa565b6040516001600160e01b031960e086901b1681526004810193909352602483019190915264ffffffffff16604482015260640160006040518083038186803b158015611ba357600080fd5b505af4158015611bb7573d6000803e3d6000fd5b505050507f8b6f40f36b4ae8cc5f55e895036457c43da4ab1f80f58c46f5ff0d72a650033b81604051610b4c91815260200190565b60405163987ad15360e01b81526002600482015260009073__$364aad554dc80380f414546becdd2c1584$__9063987ad153906024016103a4565b73__$364aad554dc80380f414546becdd2c1584$__63cc0d511b6002836104d66136aa565b604051633b11adbf60e21b81526002600482015233602482015273__$364aad554dc80380f414546becdd2c1584$__9063ec46b6fc9060440160206040518083038186803b158015611c9d57600080fd5b505af4158015611cb1573d6000803e3d6000fd5b505050506040513d601f19601f82011682018060405250810190611cd59190614de2565b611cf15760405162461bcd60e51b81526004016105e190614dfd565b6001546040805163acd2d05760e01b815290516005926001600160a01b03169163acd2d057916004808301926020929190829003018186803b158015611d3657600080fd5b505afa158015611d4a573d6000803e3d6000fd5b505050506040513d601f19601f82011682018060405250810190611d6e919061509e565b6040516337066e9d60e11b81526001600160a01b0388811660048301529190911690636e0cdd3a9060240160c06040518083038186803b158015611db157600080fd5b505afa158015611dc5573d6000803e3d6000fd5b505050506040513d601f19601f82011682018060405250810190611de99190615748565b60a0015160ff1614611e355760405162461bcd60e51b8152602060048201526015602482015274424f414b2e5054433a2077726f6e6720737461746560581b60448201526064016105e1565b60405163cdf4b38760e01b8152600481018590526000906001600160a01b0387169063cdf4b387906024016101406040518083038186803b158015611e7957600080fd5b505afa158015611e8d573d6000803e3d6000fd5b505050506040513d601f19601f82011682018060405250810190611eb19190615715565b608081015190915063ffffffff1615801590611f1d578160a0015164ffffffffff168314611f185760405162461bcd60e51b81526020600482015260146024820152732127a0a597282a219d103737ba1039b2b63632b960611b60448201526064016105e1565b612065565b600160009054906101000a90046001600160a01b03166001600160a01b0316639262826d6040518163ffffffff1660e01b815260040160206040518083038186803b158015611f6b57600080fd5b505afa158015611f7f573d6000803e3d6000fd5b505050506040513d601f19601f82011682018060405250810190611fa3919061509e565b6001600160a01b0316639258effe846040518263ffffffff1660e01b8152600401611fd091815260200190565b60206040518083038186803b158015611fe857600080fd5b505afa158015611ffc573d6000803e3d6000fd5b505050506040513d601f19601f820116820180604052508101906120209190614de2565b6120655760405162461bcd60e51b81526020600482015260166024820152752127a0a597282a219d103737ba103234b932b1ba37b960511b60448201526064016105e1565b612070878783613704565b6040516345b2c19d60e11b81526004810187905260248101869052604481018590526001600160a01b03881690638b65833a90606401600060405180830381600087803b1580156120c057600080fd5b505af11580156120d4573d6000803e3d6000fd5b5050505050505050505050565b604051633b11adbf60e21b81526002600482015233602482015273__$364aad554dc80380f414546becdd2c1584$__9063ec46b6fc9060440160206040518083038186803b15801561213257600080fd5b505af4158015612146573d6000803e3d6000fd5b505050506040513d601f19601f8201168201806040525081019061216a9190614de2565b6121865760405162461bcd60e51b81526004016105e190614dfd565b6001546040805163acd2d05760e01b815290516000926001600160a01b03169163acd2d057916004808301926020929190829003018186803b1580156121cb57600080fd5b505afa1580156121df573d6000803e3d6000fd5b505050506040513d601f19601f82011682018060405250810190612203919061509e565b6040516337066e9d60e11b81526001600160a01b038681166004830152919250600791831690636e0cdd3a9060240160c06040518083038186803b15801561224a57600080fd5b505afa15801561225e573d6000803e3d6000fd5b505050506040513d601f19601f820116820180604052508101906122829190615748565b60a0015160ff16106122cd5760405162461bcd60e51b8152602060048201526014602482015273424f414b2e54443a2077726f6e6720537461746560601b60448201526064016105e1565b6040516320bf56eb60e21b8152600481018490526000906001600160a01b038616906382fd5bac906024016102606040518083038186803b15801561231157600080fd5b505afa158015612325573d6000803e3d6000fd5b505050506040513d601f19601f820116820180604052508101906123499190614f70565b805160a0015190915064ffffffffff16831461239d5760405162461bcd60e51b81526020600482015260136024820152722127a0a5972a221d102727aa1039b2b63632b960691b60448201526064016105e1565b604051637b019deb60e01b8152600481018590526001600160a01b03861690637b019deb90602401602060405180830381600087803b1580156123df57600080fd5b505af11580156123f3573d6000803e3d6000fd5b505050506040513d601f19601f820116820180604052508101906124179190614de2565b15610535576040516306ba172360e51b81526001600160a01b03868116600483015283169063d742e46090602401600060405180830381600087803b15801561245f57600080fd5b505af1158015612473573d6000803e3d6000fd5b50505050600160009054906101000a90046001600160a01b03166001600160a01b031663f01e100f6040518163ffffffff1660e01b815260040160206040518083038186803b1580156124c557600080fd5b505afa1580156124d9573d6000803e3d6000fd5b505050506040513d601f19601f820116820180604052508101906124fd919061509e565b8151608001516020830151604090810151905163ccdddd4160e01b815263ffffffff90921660048301526001600160401b031660248201526001600160a01b03919091169063ccdddd4190604401611a5f565b604051633b11adbf60e21b81526002600482015233602482015273__$364aad554dc80380f414546becdd2c1584$__9063ec46b6fc9060440160206040518083038186803b1580156125a157600080fd5b505af41580156125b5573d6000803e3d6000fd5b505050506040513d601f19601f820116820180604052508101906125d99190614de2565b6125f55760405162461bcd60e51b81526004016105e190614dfd565b6001546040805163acd2d05760e01b815290516005926001600160a01b03169163acd2d057916004808301926020929190829003018186803b15801561263a57600080fd5b505afa15801561264e573d6000803e3d6000fd5b505050506040513d601f19601f82011682018060405250810190612672919061509e565b6040516337066e9d60e11b81526001600160a01b0387811660048301529190911690636e0cdd3a9060240160c06040518083038186803b1580156126b557600080fd5b505afa1580156126c9573d6000803e3d6000fd5b505050506040513d601f19601f820116820180604052508101906126ed9190615748565b60a0015160ff16146127385760405162461bcd60e51b8152602060048201526014602482015273424f414b2e52443a2077726f6e6720537461746560601b60448201526064016105e1565b6040516320bf56eb60e21b8152600481018490526000906001600160a01b038616906382fd5bac906024016102606040518083038186803b15801561277c57600080fd5b505afa158015612790573d6000803e3d6000fd5b505050506040513d601f19601f820116820180604052508101906127b49190614f70565b805160a0015190915064ffffffffff1683146128085760405162461bcd60e51b81526020600482015260136024820152722127a0a59729221d102727aa1039b2b63632b960691b60448201526064016105e1565b60405163147e285960e21b81526001600160a01b038616906351f8a1649061283690879086906004016157e6565b602060405180830381600087803b15801561285057600080fd5b505af1158015612864573d6000803e3d6000fd5b505050506040513d601f19601f820116820180604052508101906128889190614de2565b1561297157600160009054906101000a90046001600160a01b03166001600160a01b031663acd2d0576040518163ffffffff1660e01b815260040160206040518083038186803b1580156128db57600080fd5b505afa1580156128ef573d6000803e3d6000fd5b505050506040513d601f19601f82011682018060405250810190612913919061509e565b604051639a52316360e01b81526001600160a01b0387811660048301529190911690639a52316390602401600060405180830381600087803b15801561295857600080fd5b505af115801561296c573d6000803e3d6000fd5b505050505b604051633f5de8b560e11b8152600481018590526001600160a01b03861690637ebbd16a90602401602060405180830381600087803b1580156129b357600080fd5b505af11580156129c7573d6000803e3d6000fd5b505050506040513d601f19601f820116820180604052508101906129eb9190614de2565b1561053557600160009054906101000a90046001600160a01b03166001600160a01b031663f01e100f6040518163ffffffff1660e01b815260040160206040518083038186803b1580156124c557600080fd5b604051636cdd0edf60e11b815260026004820152602481018590526001600160a01b038416604482015273__$364aad554dc80380f414546becdd2c1584$__9063d9ba1dbe9060640160006040518083038186803b158015612a9f57600080fd5b505af4158015612ab3573d6000803e3d6000fd5b50505050612ac082614591565b612ac981614604565b604080518581526001600160a01b038581166020830152848116828401528316606082015290517f3abb2418c66fe32ba9c883030a75ce583971d9af9192b9b74e44e67c5e6c8c1f9181900360800190a150505050565b604051633b11adbf60e21b81526002600482015233602482015273__$364aad554dc80380f414546becdd2c1584$__9063ec46b6fc9060440160206040518083038186803b158015612b7157600080fd5b505af4158015612b85573d6000803e3d6000fd5b505050506040513d601f19601f82011682018060405250810190612ba99190614de2565b612bc55760405162461bcd60e51b81526004016105e190614dfd565b6001546040805163acd2d05760e01b815290516005926001600160a01b03169163acd2d057916004808301926020929190829003018186803b158015612c0a57600080fd5b505afa158015612c1e573d6000803e3d6000fd5b505050506040513d601f19601f82011682018060405250810190612c42919061509e565b6040516337066e9d60e11b81526001600160a01b0387811660048301529190911690636e0cdd3a9060240160c06040518083038186803b158015612c8557600080fd5b505afa158015612c99573d6000803e3d6000fd5b505050506040513d601f19601f82011682018060405250810190612cbd9190615748565b60a0015160ff1614612d085760405162461bcd60e51b8152602060048201526014602482015273424f414b2e43443a2077726f6e6720737461746560601b60448201526064016105e1565b6040516320bf56eb60e21b8152600481018490526000906001600160a01b038616906382fd5bac906024016102606040518083038186803b158015612d4c57600080fd5b505afa158015612d60573d6000803e3d6000fd5b505050506040513d601f19601f82011682018060405250810190612d849190614f70565b60208101515190915064ffffffffff168214612df35760405162461bcd60e51b815260206004820152602860248201527f424f414b65657065722e636c6f73654465616c3a2063616c6c6572206973204e60448201526727aa10313abcb2b960c11b60648201526084016105e1565b60405163c9852ee360e01b81526001600160a01b0386169063c9852ee390612e2190879087906004016157e6565b602060405180830381600087803b158015612e3b57600080fd5b505af1158015612e4f573d6000803e3d6000fd5b505050506040513d601f19601f82011682018060405250810190612e739190614de2565b15612f5c57600160009054906101000a90046001600160a01b03166001600160a01b031663acd2d0576040518163ffffffff1660e01b815260040160206040518083038186803b158015612ec657600080fd5b505afa158015612eda573d6000803e3d6000fd5b505050506040513d601f19601f82011682018060405250810190612efe919061509e565b604051639a52316360e01b81526001600160a01b0387811660048301529190911690639a52316390602401600060405180830381600087803b158015612f4357600080fd5b505af1158015612f57573d6000803e3d6000fd5b505050505b80516080015163ffffffff1615612f7c57612f778585613eb7565b610535565b610535858561053c565b604051633c3e56c160e11b81526002600482015260009073__$364aad554dc80380f414546becdd2c1584$__9063787cad829060240160206040518083038186803b158015612fd457600080fd5b505af4158015612fe8573d6000803e3d6000fd5b505050506040513d601f19601f820116820180604052508101906103f4919061509e565b600254600160f01b900460ff166001146130685760405162461bcd60e51b815260206004820152601760248201527f41432e4c433a20446f632069732066696e616c697a656400000000000000000060448201526064016105e1565b73__$364aad554dc80380f414546becdd2c1584$__63c51b295f6002684174746f726e65797360b81b6130996136aa565b6040516001600160e01b031960e086901b1681526004810193909352602483019190915264ffffffffff16604482015260640160006040518083038186803b1580156130e457600080fd5b505af41580156130f8573d6000803e3d6000fd5b50505050600273__$364aad554dc80380f414546becdd2c1584$__639b4510de909160006131246136aa565b6040516001600160e01b031960e086901b1681526004810193909352602483019190915264ffffffffff16604482015260640160006040518083038186803b15801561316f57600080fd5b505af4158015613183573d6000803e3d6000fd5b50505050600273__$364aad554dc80380f414546becdd2c1584$__639b48160c909160006131af6136aa565b6040516001600160e01b031960e086901b1681526004810193909352602483019190915264ffffffffff16604482015260640160006040518083038186803b1580156131fa57600080fd5b505af415801561320e573d6000803e3d6000fd5b50506002805460ff60f01b1916600160f11b17905550506040517f35012b512309c322acf68632cd6cb702ff0e1d776fbe9394e38ffc13b434fe7590600090a1565b604051633b11adbf60e21b81526002600482015233602482015273__$364aad554dc80380f414546becdd2c1584$__9063ec46b6fc9060440160206040518083038186803b1580156132a157600080fd5b505af41580156132b5573d6000803e3d6000fd5b505050506040513d601f19601f820116820180604052508101906132d99190614de2565b6132f55760405162461bcd60e51b81526004016105e190614dfd565b600160009054906101000a90046001600160a01b03166001600160a01b03166333fb96ee6040518163ffffffff1660e01b815260040160206040518083038186803b15801561334357600080fd5b505afa158015613357573d6000803e3d6000fd5b505050506040513d601f19601f8201168201806040525081019061337b919061509e565b6001600160a01b031663d50c7377826040518263ffffffff1660e01b81526004016133a891815260200190565b60206040518083038186803b1580156133c057600080fd5b505afa1580156133d4573d6000803e3d6000fd5b505050506040513d601f19601f820116820180604052508101906133f89190614de2565b6134385760405162461bcd60e51b815260206004820152601160248201527031b0b63632b9103737ba1026a2a6a122a960791b60448201526064016105e1565b600061344c60e085901b601560f01b61584e565b6000805460405163966ef88d60e01b8152600481018490526001600160a01b0387811660248301529394509192169063966ef88d9060440161014060405180830381600087803b15801561349f57600080fd5b505af11580156134b3573d6000803e3d6000fd5b505050506040513d601f19601f820116820180604052508101906134d79190615866565b602081015160005460015460405163dc890da960e01b8152600481018890523060248201526001600160a01b0392831660448201529082166064820152929350169063dc890da990608401600060405180830381600087803b15801561353c57600080fd5b505af1158015613550573d6000803e3d6000fd5b50505050600160009054906101000a90046001600160a01b03166001600160a01b031663acd2d0576040518163ffffffff1660e01b815260040160206040518083038186803b1580156135a257600080fd5b505afa1580156135b6573d6000803e3d6000fd5b505050506040513d601f19601f820116820180604052508101906135da919061509e565b6001600160a01b031663024dd8c473__$17e76a6b4c1f440c6182332cb361c04433$__6349ab9de284600001516040518263ffffffff1660e01b8152600401613623919061593e565b60206040518083038186803b15801561363b57600080fd5b505af415801561364f573d6000803e3d6000fd5b505050506040513d601f19601f8201168201806040525081019061367391906153a2565b60208401516040516001600160e01b031960e085901b16815260048101929092526001600160a01b03166024820152604401611a5f565b60008054604051636ae3b70d60e11b81523360048201526001600160a01b039091169063d5c76e1a90602401602060405180830381600087803b1580156136f057600080fd5b505af11580156103d0573d6000803e3d6000fd5b6000836001600160a01b031663c0961f7f6040518163ffffffff1660e01b815260040160206040518083038186803b15801561373f57600080fd5b505afa158015613753573d6000803e3d6000fd5b505050506040513d601f19601f820116820180604052508101906137779190615387565b60ff1690506000600160009054906101000a90046001600160a01b03166001600160a01b031663a61adc286040518163ffffffff1660e01b815260040160206040518083038186803b1580156137cc57600080fd5b505afa1580156137e0573d6000803e3d6000fd5b505050506040513d601f19601f82011682018060405250810190613804919061509e565b6001600160a01b03166348462037836040518263ffffffff1660e01b815260040161383191815260200190565b60206040518083038186803b15801561384957600080fd5b505afa15801561385d573d6000803e3d6000fd5b505050506040513d601f19601f8201168201806040525081019061388191906153a2565b60405163d1296c8f60e01b8152600481019190915273__$9d2c69e94fee47b9774dc8db4aa5c0bbec$__9063d1296c8f906024016102206040518083038186803b1580156138ce57600080fd5b505af41580156138e2573d6000803e3d6000fd5b505050506040513d601f19601f820116820180604052508101906139069190615431565b905060008160a0015161ffff16118061392757506000816080015161ffff16115b15613d9c57806060015161ffff1660011415613a8f57600160009054906101000a90046001600160a01b03166001600160a01b031663682ebf056040518163ffffffff1660e01b815260040160206040518083038186803b15801561398b57600080fd5b505afa15801561399f573d6000803e3d6000fd5b505050506040513d601f19601f820116820180604052508101906139c3919061509e565b604051634940318360e01b81526001600160a01b038781166004830152919091169063494031839060240160206040518083038186803b158015613a0657600080fd5b505afa158015613a1a573d6000803e3d6000fd5b505050506040513d601f19601f82011682018060405250810190613a3e9190614de2565b613a8a5760405162461bcd60e51b815260206004820152601c60248201527f424f414b2e5054433a20204d6f74696f6e204e4f54207061737365640000000060448201526064016105e1565b613d9c565b806060015161ffff1660021415613aee57600160009054906101000a90046001600160a01b03166001600160a01b0316639262826d6040518163ffffffff1660e01b815260040160206040518083038186803b15801561398b57600080fd5b806060015161ffff1660031415613d5457600160009054906101000a90046001600160a01b03166001600160a01b031663682ebf056040518163ffffffff1660e01b815260040160206040518083038186803b158015613b4d57600080fd5b505afa158015613b61573d6000803e3d6000fd5b505050506040513d601f19601f82011682018060405250810190613b85919061509e565b604051634940318360e01b81526001600160a01b038781166004830152919091169063494031839060240160206040518083038186803b158015613bc857600080fd5b505afa158015613bdc573d6000803e3d6000fd5b505050506040513d601f19601f82011682018060405250810190613c009190614de2565b8015613d085750600160009054906101000a90046001600160a01b03166001600160a01b0316639262826d6040518163ffffffff1660e01b815260040160206040518083038186803b158015613c5557600080fd5b505afa158015613c69573d6000803e3d6000fd5b505050506040513d601f19601f82011682018060405250810190613c8d919061509e565b604051634940318360e01b81526001600160a01b038781166004830152919091169063494031839060240160206040518083038186803b158015613cd057600080fd5b505afa158015613ce4573d6000803e3d6000fd5b505050506040513d601f19601f82011682018060405250810190613d089190614de2565b613a8a5760405162461bcd60e51b815260206004820152601b60248201527f424f414b2e5054433a206d6f74696f6e206e6f7420706173736564000000000060448201526064016105e1565b60405162461bcd60e51b815260206004820152601c60248201527f424f414b2e5054433a20617574686f72697479206f766572666c6f770000000060448201526064016105e1565b8215613e2d57612f776005805480602002602001604051908101604052809291908181526020018280548015613e2157602002820191906000526020600020906000905b82829054906101000a900460ff16601b811115613dff57613dff615732565b815260206001928301818104948501949093039092029101808411613de05790505b5050505050868661467f565b6105356004805480602002602001604051908101604052809291908181526020018280548015613e2157602002820191906000526020600020906000905b82829054906101000a900460ff16601b811115613e8a57613e8a615732565b815260206001928301818104948501949093039092029101808411613e6b5790505050505050868661467f565b6040516320bf56eb60e21b8152600481018290526000906001600160a01b038416906382fd5bac906024016102606040518083038186803b158015613efb57600080fd5b505afa158015613f0f573d6000803e3d6000fd5b505050506040513d601f19601f82011682018060405250810190613f339190614f70565b9050600160009054906101000a90046001600160a01b03166001600160a01b031663f01e100f6040518163ffffffff1660e01b815260040160206040518083038186803b158015613f8357600080fd5b505afa158015613f97573d6000803e3d6000fd5b505050506040513d601f19601f82011682018060405250810190613fbb919061509e565b8151608001516020830151604090810151905163ccdddd4160e01b815263ffffffff90921660048301526001600160401b031660248201526001600160a01b03919091169063ccdddd4190604401600060405180830381600087803b15801561402357600080fd5b505af1158015614037573d6000803e3d6000fd5b50505050600160009054906101000a90046001600160a01b03166001600160a01b031663f01e100f6040518163ffffffff1660e01b815260040160206040518083038186803b15801561408957600080fd5b505afa15801561409d573d6000803e3d6000fd5b505050506040513d601f19601f820116820180604052508101906140c1919061509e565b8151608081015160208401516040808201516060830151925160c086015160e0909601519251632b91fe9560e21b815263ffffffff95861660048201526001600160401b03928316602482015291909316604482015264ffffffffff90921660648301529282166084820152911660a48201526001600160a01b03919091169063ae47fa549060c401600060405180830381600087803b15801561416457600080fd5b505af1158015614178573d6000803e3d6000fd5b50505050505050565b6000826001600160a01b031663e87a6f186040518163ffffffff1660e01b815260040160006040518083038186803b1580156141bc57600080fd5b505afa1580156141d0573d6000803e3d6000fd5b505050506040513d6000823e601f3d908101601f191682016040526141f89190810190615a01565b80519091505b80156115ec57600073__$e448cb3cf8ceef1bfdf68dc7263f69d28f$__63fbfad28e8461422c600186615aa6565b8151811061423c5761423c615abd565b60200260200101516040518263ffffffff1660e01b815260040161426291815260200190565b6101406040518083038186803b15801561427b57600080fd5b505af415801561428f573d6000803e3d6000fd5b505050506040513d601f19601f820116820180604052508101906142b39190615715565b6020015161ffff169050816142c781615ad3565b6040516320bf56eb60e21b815260048101849052909350600091506001600160a01b038716906382fd5bac906024016102606040518083038186803b15801561430f57600080fd5b505afa158015614323573d6000803e3d6000fd5b505050506040513d601f19601f820116820180604052508101906143479190614f70565b805160a0015190915064ffffffffff168514156144e9576040516326a69e9160e21b8152600481018390526001600160a01b03871690639a9a7a4490602401602060405180830381600087803b1580156143a057600080fd5b505af11580156143b4573d6000803e3d6000fd5b505050506040513d601f19601f820116820180604052508101906143d89190614de2565b156144e457600160009054906101000a90046001600160a01b03166001600160a01b031663f01e100f6040518163ffffffff1660e01b815260040160206040518083038186803b15801561442b57600080fd5b505afa15801561443f573d6000803e3d6000fd5b505050506040513d601f19601f82011682018060405250810190614463919061509e565b815160800151602083015160409081015190516360d095df60e01b815263ffffffff90921660048301526001600160401b031660248201526001600160a01b0391909116906360d095df90604401600060405180830381600087803b1580156144cb57600080fd5b505af11580156144df573d6000803e3d6000fd5b505050505b61458a565b60208101515164ffffffffff1685148015614509575080515160ff166001145b1561458a576040516326a69e9160e21b8152600481018390526001600160a01b03871690639a9a7a4490602401602060405180830381600087803b15801561455057600080fd5b505af1158015614564573d6000803e3d6000fd5b505050506040513d601f19601f820116820180604052508101906145889190614de2565b505b50506141fe565b6000546001600160a01b0316156145e25760405162461bcd60e51b815260206004820152601560248201527430b63932b0b23c9039b2ba103932b3a1b2b73a32b960591b60448201526064016105e1565b600080546001600160a01b0319166001600160a01b0392909216919091179055565b6001546001600160a01b03161561465d5760405162461bcd60e51b815260206004820152601960248201527f616c7265616479207365742067656e6572616c4b65657065720000000000000060448201526064016105e1565b600180546001600160a01b0319166001600160a01b0392909216919091179055565b82515b80156115ec57600160009054906101000a90046001600160a01b03166001600160a01b031663a61adc286040518163ffffffff1660e01b815260040160206040518083038186803b1580156146d657600080fd5b505afa1580156146ea573d6000803e3d6000fd5b505050506040513d601f19601f8201168201806040525081019061470e919061509e565b6001600160a01b0316637176544985614728600185615aa6565b8151811061473857614738615abd565b6020026020010151601b81111561475157614751615732565b6040516001600160e01b031960e084901b16815260ff909116600482015260240160206040518083038186803b15801561478a57600080fd5b505afa15801561479e573d6000803e3d6000fd5b505050506040513d601f19601f820116820180604052508101906147c29190614de2565b1561496357600160009054906101000a90046001600160a01b03166001600160a01b031663a61adc286040518163ffffffff1660e01b815260040160206040518083038186803b15801561481557600080fd5b505afa158015614829573d6000803e3d6000fd5b505050506040513d601f19601f8201168201806040525081019061484d919061509e565b6001600160a01b0316635d24f35b85614867600185615aa6565b8151811061487757614877615abd565b6020026020010151601b81111561489057614890615732565b6040516001600160e01b031960e084901b16815260ff90911660048201526001600160a01b03861660248201526044810185905260640160206040518083038186803b1580156148df57600080fd5b505afa1580156148f3573d6000803e3d6000fd5b505050506040513d601f19601f820116820180604052508101906149179190614de2565b6149635760405162461bcd60e51b815260206004820152601b60248201527f424f414b2e5054433a207465726d206e6f74206578656d70746564000000000060448201526064016105e1565b8061496d81615ad3565b915050614682565b6000806040838503121561498857600080fd5b50508035926020909101359150565b6000602082840312156149a957600080fd5b5035919050565b6001600160a01b03811681146149c557600080fd5b50565b600080604083850312156149db57600080fd5b82356149e6816149b0565b946020939093013593505050565b600060208284031215614a0657600080fd5b8135611b2c816149b0565b60008060008060808587031215614a2757600080fd5b8435614a32816149b0565b966020860135965060408601359560600135945092505050565b600080600060608486031215614a6157600080fd5b8335614a6c816149b0565b95602085013595506040909401359392505050565b600080600080600060a08688031215614a9957600080fd5b8535614aa4816149b0565b97602087013597506040870135966060810135965060800135945092505050565b634e487b7160e01b600052604160045260246000fd5b60405161014081016001600160401b0381118282101715614afe57614afe614ac5565b60405290565b604051606081016001600160401b0381118282101715614afe57614afe614ac5565b60405161010081016001600160401b0381118282101715614afe57614afe614ac5565b604080519081016001600160401b0381118282101715614afe57614afe614ac5565b60405161012081016001600160401b0381118282101715614afe57614afe614ac5565b60405161020081016001600160401b0381118282101715614afe57614afe614ac5565b604051601f8201601f191681016001600160401b0381118282101715614bd957614bd9614ac5565b604052919050565b600082601f830112614bf257600080fd5b81356001600160401b03811115614c0b57614c0b614ac5565b614c1e601f8201601f1916602001614bb1565b818152846020838601011115614c3357600080fd5b816020850160208301376000918101602001919091529392505050565b60008060008060808587031215614c6657600080fd5b8435614c71816149b0565b9350602085013592506040850135915060608501356001600160401b03811115614c9a57600080fd5b614ca687828801614be1565b91505092959194509250565b60008060008060808587031215614cc857600080fd5b843593506020850135614cda816149b0565b92506040850135614cea816149b0565b91506060850135614cfa816149b0565b939692955090935050565b60008060008060808587031215614d1b57600080fd5b8435614d26816149b0565b93506020850135925060408501356001600160401b03811115614d4857600080fd5b614d5487828801614be1565b949793965093946060013593505050565b600080600060608486031215614d7a57600080fd5b833592506020840135614d8c816149b0565b929592945050506040919091013590565b805164ffffffffff81168114614db257600080fd5b919050565b600060208284031215614dc957600080fd5b611b2c82614d9d565b80518015158114614db257600080fd5b600060208284031215614df457600080fd5b611b2c82614dd2565b60208082526026908201527f41432e6f6e6c794469726563744b65657065723a206e6f74206469726563742060408201526535b2b2b832b960d11b606082015260800190565b805160ff81168114614db257600080fd5b805161ffff81168114614db257600080fd5b805163ffffffff81168114614db257600080fd5b805165ffffffffffff81168114614db257600080fd5b60006101408284031215614ea357600080fd5b614eab614adb565b9050614eb682614e43565b8152614ec460208301614e54565b6020820152614ed560408301614e54565b6040820152614ee660608301614e54565b6060820152614ef760808301614e66565b6080820152614f0860a08301614d9d565b60a0820152614f1960c08301614e66565b60c0820152614f2a60e08301614e66565b60e0820152610100614f3d818401614e7a565b90820152610120614f4f838201614e54565b9082015292915050565b80516001600160401b0381168114614db257600080fd5b6000818303610260811215614f8457600080fd5b614f8c614b04565b614f968585614e90565b815261010061013f1983011215614fac57600080fd5b614fb4614b26565b9150614fc36101408501614d9d565b8252614fd26101608501614d9d565b6020830152614fe46101808501614f59565b6040830152614ff66101a08501614f59565b60608301526150086101c08501614e43565b608083015261501a6101e08501614e54565b60a083015261502c6102008501614e54565b60c083015261503e6102208501614dd2565b60e083015260208101919091526102409290920151604083015250919050565b634e487b7160e01b600052601160045260246000fd5b600065ffffffffffff8083168185168083038211156150955761509561505e565b01949350505050565b6000602082840312156150b057600080fd5b8151611b2c816149b0565b60006101e082019050825163ffffffff8082511684528060208301511660208501525060408101516150f3604085018261ffff169052565b50606081015161510d606085018265ffffffffffff169052565b506080810151615126608085018264ffffffffff169052565b5060a081015161513e60a085018263ffffffff169052565b5060c081015161515660c085018263ffffffff169052565b5060e081015161516c60e085018261ffff169052565b506101009081015160ff90811691840191909152602093840151805165ffffffffffff16610120850152938401516001600160401b0390811661014085015260408501518116610160850152606085015116610180840152608084015181166101a084015260a0909301519092166101c09091015290565b600060c082840312156151f657600080fd5b60405160c081018181106001600160401b038211171561521857615218614ac5565b60405290508061522783614e7a565b815261523560208401614f59565b602082015261524660408401614f59565b604082015261525760608401614f59565b606082015261526860808401614e43565b608082015261527960a08401614e43565b60a08201525092915050565b60008183036101e081121561529957600080fd5b6152a1614b49565b610120808312156152b157600080fd5b6152b9614b6b565b92506152c485614e66565b83526152d260208601614e66565b60208401526152e360408601614e54565b60408401526152f460608601614e7a565b606084015261530560808601614d9d565b608084015261531660a08601614e66565b60a084015261532760c08601614e66565b60c084015261533860e08601614e54565b60e084015261010061534b818701614e43565b9084015282825261535e868683016151e4565b602083015250949350505050565b60006020828403121561537e57600080fd5b611b2c82614e54565b60006020828403121561539957600080fd5b611b2c82614e43565b6000602082840312156153b457600080fd5b5051919050565b600082601f8301126153cc57600080fd5b604051604081018181106001600160401b03821117156153ee576153ee614ac5565b806040525080604084018581111561540557600080fd5b845b818110156154265761541881614d9d565b835260209283019201615407565b509195945050505050565b6000610220828403121561544457600080fd5b61544c614b8e565b61545583614e54565b815261546360208401614e43565b602082015261547460408401614e43565b604082015261548560608401614e54565b606082015261549660808401614e54565b60808201526154a760a08401614e54565b60a08201526154b860c08401614dd2565b60c08201526154c960e08401614dd2565b60e08201526101006154dc818501614dd2565b908201526101206154ee848201614dd2565b90820152610140615500848201614e43565b90820152610160615512848201614e43565b90820152610180615524848201614e43565b908201526101a0615536848201614e43565b908201526101c0615548848201614e43565b908201526101e061555b858583016153bb565b908201529392505050565b600061ffff8083168185168083038211156150955761509561505e565b8060005b60028110156115ec57815164ffffffffff16845260209384019390910190600101615587565b6001600160a01b038716815261ffff8681166020830152858116604083015284511660608201526102c08101602085015160ff8116608084015250604085015160ff811660a084015250606085015161ffff811660c084015250608085015161ffff811660e08401525060a085015161010061562e8185018361ffff169052565b60c087015191506101206156458186018415159052565b60e0880151925061014061565c8187018515159052565b918801519250610160916156738684018515159052565b9088015192506101809061568a8683018515159052565b88015192506101a06156a08682018560ff169052565b9188015192506101c0916156b88684018560ff169052565b9088015192506101e0906156d08683018560ff169052565b88015160ff9081166102008701529188015190911661022085015286015190506156fe610240840182615583565b506102808201939093526102a00152949350505050565b6000610140828403121561572857600080fd5b611b2c8383614e90565b634e487b7160e01b600052602160045260246000fd5b600060c0828403121561575a57600080fd5b60405160c081018181106001600160401b038211171561577c5761577c614ac5565b60405261578883614e7a565b815261579660208401614e7a565b60208201526157a760408401614e7a565b60408201526157b860608401614e7a565b60608201526157c960808401614e7a565b60808201526157da60a08401614e43565b60a08201529392505050565b82815260006020604081840152835180604085015260005b8181101561581a578581018301518582016060015282016157fe565b8181111561582c576000606083870101525b50601f01601f191692909201606001949350505050565b8051614db2816149b0565b600082198211156158615761586161505e565b500190565b600081830361014081121561587a57600080fd5b615882614b49565b6101208083121561589257600080fd5b61589a614b6b565b92506158a585614e54565b83526158b360208601614e54565b60208401526158c460408601614f59565b60408401526158d560608601614d9d565b60608401526158e660808601614e7a565b60808401526158f760a08601614e54565b60a084015261590860c08601614e54565b60c084015261591960e08601614e66565b60e084015261010061592c818701614e43565b9084015282825261535e858201615843565b60006101208201905061ffff80845116835280602085015116602084015250604083015161597760408401826001600160401b03169052565b506060830151615990606084018264ffffffffff169052565b5060808301516159aa608084018265ffffffffffff169052565b5060a08301516159c060a084018261ffff169052565b5060c08301516159d660c084018261ffff169052565b5060e08301516159ee60e084018263ffffffff169052565b506101009283015160ff16919092015290565b60006020808385031215615a1457600080fd5b82516001600160401b0380821115615a2b57600080fd5b818501915085601f830112615a3f57600080fd5b815181811115615a5157615a51614ac5565b8060051b9150615a62848301614bb1565b8181529183018401918481019088841115615a7c57600080fd5b938501935b83851015615a9a57845182529385019390850190615a81565b98975050505050505050565b600082821015615ab857615ab861505e565b500390565b634e487b7160e01b600052603260045260246000fd5b600081615ae257615ae261505e565b50600019019056fea264697066735822122034b7153b3ab891dd75a4d67b213b6a6b9a7e0773839f551a54735b72f2aa654164736f6c63430008080033",
    "sourcePath": "/Users/kaptain/github.com/hardhat/comboox/contracts/keepers/BOAKeeper.sol",
    "compiler": {
        "name": "solc",
        "version": "0.8.8+commit.dddeac2f"
    },
    "functionHashes": {
        "abandonRole(bytes32)": "3da9a600",
        "circulateIA(address,bytes32,bytes32,uint256)": "6e6014a4",
        "closeDeal(address,uint256,string,uint256)": "deeb633f",
        "createIA(uint256,address,uint256)": "f4a6975c",
        "finalized()": "b3f05b97",
        "getBookeeper()": "ed211023",
        "getGeneralCounsel()": "103f6edd",
        "getOwner()": "893d20e8",
        "grantRole(bytes32,uint256)": "1b6ea9f9",
        "hasRole(bytes32,uint256)": "7e063c5a",
        "init(uint256,address,address,address)": "dc890da9",
        "issueNewShare(address,uint256)": "452558b0",
        "lockContents()": "f045a769",
        "pushToCoffer(address,uint256,bytes32,uint256,uint256)": "92a38202",
        "removeDirectKeeper(address)": "5d7ad88f",
        "renounceRole(bytes32)": "8bb9c5bf",
        "revokeDeal(address,uint256,uint256,string)": "d270be0e",
        "revokeRole(bytes32,uint256)": "19d61ad9",
        "setDirectKeeper(address)": "6be8496f",
        "setGeneralCounsel(uint256)": "4a14beb1",
        "setOwner(uint256)": "8041494e",
        "setRoleAdmin(bytes32,uint256)": "5171ebd4",
        "signIA(address,uint256,bytes32)": "7a6ae865",
        "terminateDeal(address,uint256,uint256)": "b951cf1d",
        "transferTargetShare(address,uint256,uint256)": "755514d5"
    },
    "gasEstimates": {
        "creation": {
            "codeDepositCost": "4665600",
            "executionCost": "infinite",
            "totalCost": "infinite"
        },
        "external": {
            "abandonRole(bytes32)": "infinite",
            "circulateIA(address,bytes32,bytes32,uint256)": "infinite",
            "closeDeal(address,uint256,string,uint256)": "infinite",
            "createIA(uint256,address,uint256)": "infinite",
            "finalized()": "2460",
            "getBookeeper()": "infinite",
            "getGeneralCounsel()": "infinite",
            "getOwner()": "infinite",
            "grantRole(bytes32,uint256)": "infinite",
            "hasRole(bytes32,uint256)": "infinite",
            "init(uint256,address,address,address)": "infinite",
            "issueNewShare(address,uint256)": "infinite",
            "lockContents()": "infinite",
            "pushToCoffer(address,uint256,bytes32,uint256,uint256)": "infinite",
            "removeDirectKeeper(address)": "infinite",
            "renounceRole(bytes32)": "infinite",
            "revokeDeal(address,uint256,uint256,string)": "infinite",
            "revokeRole(bytes32,uint256)": "infinite",
            "setDirectKeeper(address)": "infinite",
            "setGeneralCounsel(uint256)": "infinite",
            "setOwner(uint256)": "infinite",
            "setRoleAdmin(bytes32,uint256)": "infinite",
            "signIA(address,uint256,bytes32)": "infinite",
            "terminateDeal(address,uint256,uint256)": "infinite",
            "transferTargetShare(address,uint256,uint256)": "infinite"
        },
        "internal": {
            "_checkSHA(enum IRegCenter.TypeOfDoc[] memory,address,uint256)": "infinite",
            "_lockDealsOfParty(address,uint256)": "infinite",
            "_shareTransfer(address,uint256)": "infinite",
            "_vrAndSHACheck(address,uint256,bool)": "infinite"
        }
    }
}