{
    "contractName": "BOAKeeper",
    "abi": [
        {
            "anonymous": false,
            "inputs": [
                {
                    "indexed": false,
                    "internalType": "uint40",
                    "name": "owner",
                    "type": "uint40"
                },
                {
                    "indexed": false,
                    "internalType": "address",
                    "name": "directKeeper",
                    "type": "address"
                },
                {
                    "indexed": false,
                    "internalType": "address",
                    "name": "regCenter",
                    "type": "address"
                },
                {
                    "indexed": false,
                    "internalType": "address",
                    "name": "generalKeeper",
                    "type": "address"
                }
            ],
            "name": "Init",
            "type": "event"
        },
        {
            "anonymous": false,
            "inputs": [],
            "name": "LockContents",
            "type": "event"
        },
        {
            "anonymous": false,
            "inputs": [
                {
                    "indexed": false,
                    "internalType": "address",
                    "name": "keeper",
                    "type": "address"
                }
            ],
            "name": "SetDirectKeeper",
            "type": "event"
        },
        {
            "anonymous": false,
            "inputs": [
                {
                    "indexed": false,
                    "internalType": "uint256",
                    "name": "acct",
                    "type": "uint256"
                }
            ],
            "name": "SetGeneralCounsel",
            "type": "event"
        },
        {
            "anonymous": false,
            "inputs": [
                {
                    "indexed": false,
                    "internalType": "address",
                    "name": "gk",
                    "type": "address"
                }
            ],
            "name": "SetGeneralKeeper",
            "type": "event"
        },
        {
            "anonymous": false,
            "inputs": [
                {
                    "indexed": false,
                    "internalType": "uint256",
                    "name": "acct",
                    "type": "uint256"
                }
            ],
            "name": "SetOwner",
            "type": "event"
        },
        {
            "anonymous": false,
            "inputs": [
                {
                    "indexed": false,
                    "internalType": "address",
                    "name": "rc",
                    "type": "address"
                }
            ],
            "name": "SetRegCenter",
            "type": "event"
        },
        {
            "inputs": [
                {
                    "internalType": "bytes32",
                    "name": "role",
                    "type": "bytes32"
                }
            ],
            "name": "abandonRole",
            "outputs": [],
            "stateMutability": "nonpayable",
            "type": "function"
        },
        {
            "inputs": [
                {
                    "internalType": "address",
                    "name": "ia",
                    "type": "address"
                },
                {
                    "internalType": "uint40",
                    "name": "caller",
                    "type": "uint40"
                },
                {
                    "internalType": "bytes32",
                    "name": "docUrl",
                    "type": "bytes32"
                },
                {
                    "internalType": "bytes32",
                    "name": "docHash",
                    "type": "bytes32"
                }
            ],
            "name": "circulateIA",
            "outputs": [],
            "stateMutability": "nonpayable",
            "type": "function"
        },
        {
            "inputs": [
                {
                    "internalType": "address",
                    "name": "ia",
                    "type": "address"
                },
                {
                    "internalType": "bytes32",
                    "name": "sn",
                    "type": "bytes32"
                },
                {
                    "internalType": "string",
                    "name": "hashKey",
                    "type": "string"
                },
                {
                    "internalType": "uint40",
                    "name": "caller",
                    "type": "uint40"
                }
            ],
            "name": "closeDeal",
            "outputs": [],
            "stateMutability": "nonpayable",
            "type": "function"
        },
        {
            "inputs": [
                {
                    "internalType": "uint8",
                    "name": "typOfIA",
                    "type": "uint8"
                },
                {
                    "internalType": "uint40",
                    "name": "caller",
                    "type": "uint40"
                }
            ],
            "name": "createIA",
            "outputs": [],
            "stateMutability": "nonpayable",
            "type": "function"
        },
        {
            "inputs": [],
            "name": "finalized",
            "outputs": [
                {
                    "internalType": "bool",
                    "name": "",
                    "type": "bool"
                }
            ],
            "stateMutability": "view",
            "type": "function"
        },
        {
            "inputs": [],
            "name": "getBookeeper",
            "outputs": [
                {
                    "internalType": "address",
                    "name": "",
                    "type": "address"
                }
            ],
            "stateMutability": "view",
            "type": "function"
        },
        {
            "inputs": [],
            "name": "getGeneralCounsel",
            "outputs": [
                {
                    "internalType": "uint40",
                    "name": "",
                    "type": "uint40"
                }
            ],
            "stateMutability": "view",
            "type": "function"
        },
        {
            "inputs": [],
            "name": "getOwner",
            "outputs": [
                {
                    "internalType": "uint40",
                    "name": "",
                    "type": "uint40"
                }
            ],
            "stateMutability": "view",
            "type": "function"
        },
        {
            "inputs": [
                {
                    "internalType": "bytes32",
                    "name": "role",
                    "type": "bytes32"
                },
                {
                    "internalType": "uint40",
                    "name": "acct",
                    "type": "uint40"
                }
            ],
            "name": "grantRole",
            "outputs": [],
            "stateMutability": "nonpayable",
            "type": "function"
        },
        {
            "inputs": [
                {
                    "internalType": "bytes32",
                    "name": "role",
                    "type": "bytes32"
                },
                {
                    "internalType": "uint40",
                    "name": "acct",
                    "type": "uint40"
                }
            ],
            "name": "hasRole",
            "outputs": [
                {
                    "internalType": "bool",
                    "name": "",
                    "type": "bool"
                }
            ],
            "stateMutability": "view",
            "type": "function"
        },
        {
            "inputs": [
                {
                    "internalType": "uint40",
                    "name": "owner",
                    "type": "uint40"
                },
                {
                    "internalType": "address",
                    "name": "directKeeper",
                    "type": "address"
                },
                {
                    "internalType": "address",
                    "name": "regCenter",
                    "type": "address"
                },
                {
                    "internalType": "address",
                    "name": "generalKeeper",
                    "type": "address"
                }
            ],
            "name": "init",
            "outputs": [],
            "stateMutability": "nonpayable",
            "type": "function"
        },
        {
            "inputs": [
                {
                    "internalType": "address",
                    "name": "ia",
                    "type": "address"
                },
                {
                    "internalType": "bytes32",
                    "name": "sn",
                    "type": "bytes32"
                }
            ],
            "name": "issueNewShare",
            "outputs": [],
            "stateMutability": "nonpayable",
            "type": "function"
        },
        {
            "inputs": [],
            "name": "lockContents",
            "outputs": [],
            "stateMutability": "nonpayable",
            "type": "function"
        },
        {
            "inputs": [
                {
                    "internalType": "address",
                    "name": "ia",
                    "type": "address"
                },
                {
                    "internalType": "bytes32",
                    "name": "sn",
                    "type": "bytes32"
                },
                {
                    "internalType": "bytes32",
                    "name": "hashLock",
                    "type": "bytes32"
                },
                {
                    "internalType": "uint48",
                    "name": "closingDate",
                    "type": "uint48"
                },
                {
                    "internalType": "uint40",
                    "name": "caller",
                    "type": "uint40"
                }
            ],
            "name": "pushToCoffer",
            "outputs": [],
            "stateMutability": "nonpayable",
            "type": "function"
        },
        {
            "inputs": [
                {
                    "internalType": "address",
                    "name": "ia",
                    "type": "address"
                },
                {
                    "internalType": "uint40",
                    "name": "caller",
                    "type": "uint40"
                }
            ],
            "name": "removeIA",
            "outputs": [],
            "stateMutability": "nonpayable",
            "type": "function"
        },
        {
            "inputs": [
                {
                    "internalType": "bytes32",
                    "name": "role",
                    "type": "bytes32"
                }
            ],
            "name": "renounceRole",
            "outputs": [],
            "stateMutability": "nonpayable",
            "type": "function"
        },
        {
            "inputs": [
                {
                    "internalType": "address",
                    "name": "ia",
                    "type": "address"
                },
                {
                    "internalType": "bytes32",
                    "name": "sn",
                    "type": "bytes32"
                },
                {
                    "internalType": "uint40",
                    "name": "caller",
                    "type": "uint40"
                },
                {
                    "internalType": "string",
                    "name": "hashKey",
                    "type": "string"
                }
            ],
            "name": "revokeDeal",
            "outputs": [],
            "stateMutability": "nonpayable",
            "type": "function"
        },
        {
            "inputs": [
                {
                    "internalType": "bytes32",
                    "name": "role",
                    "type": "bytes32"
                },
                {
                    "internalType": "uint40",
                    "name": "acct",
                    "type": "uint40"
                }
            ],
            "name": "revokeRole",
            "outputs": [],
            "stateMutability": "nonpayable",
            "type": "function"
        },
        {
            "inputs": [
                {
                    "internalType": "address",
                    "name": "keeper",
                    "type": "address"
                }
            ],
            "name": "setDirectKeeper",
            "outputs": [],
            "stateMutability": "nonpayable",
            "type": "function"
        },
        {
            "inputs": [
                {
                    "internalType": "uint40",
                    "name": "acct",
                    "type": "uint40"
                }
            ],
            "name": "setGeneralCounsel",
            "outputs": [],
            "stateMutability": "nonpayable",
            "type": "function"
        },
        {
            "inputs": [
                {
                    "internalType": "uint40",
                    "name": "acct",
                    "type": "uint40"
                }
            ],
            "name": "setOwner",
            "outputs": [],
            "stateMutability": "nonpayable",
            "type": "function"
        },
        {
            "inputs": [
                {
                    "internalType": "bytes32",
                    "name": "role",
                    "type": "bytes32"
                },
                {
                    "internalType": "uint40",
                    "name": "acct",
                    "type": "uint40"
                }
            ],
            "name": "setRoleAdmin",
            "outputs": [],
            "stateMutability": "nonpayable",
            "type": "function"
        },
        {
            "inputs": [
                {
                    "internalType": "address",
                    "name": "temp",
                    "type": "address"
                },
                {
                    "internalType": "uint8",
                    "name": "typeOfDoc",
                    "type": "uint8"
                }
            ],
            "name": "setTempOfIA",
            "outputs": [],
            "stateMutability": "nonpayable",
            "type": "function"
        },
        {
            "inputs": [
                {
                    "internalType": "address",
                    "name": "ia",
                    "type": "address"
                },
                {
                    "internalType": "uint40",
                    "name": "caller",
                    "type": "uint40"
                },
                {
                    "internalType": "bytes32",
                    "name": "sigHash",
                    "type": "bytes32"
                }
            ],
            "name": "signIA",
            "outputs": [],
            "stateMutability": "nonpayable",
            "type": "function"
        },
        {
            "inputs": [
                {
                    "internalType": "address",
                    "name": "ia",
                    "type": "address"
                },
                {
                    "internalType": "bytes32",
                    "name": "sn",
                    "type": "bytes32"
                },
                {
                    "internalType": "uint40",
                    "name": "caller",
                    "type": "uint40"
                }
            ],
            "name": "transferTargetShare",
            "outputs": [],
            "stateMutability": "nonpayable",
            "type": "function"
        }
    ],
    "bytecode": "60a0604052608080600290526200001b9060049060016200005f565b506040805160608101909152806001815260200160048152602001600390526200004a9060059060036200011d565b503480156200005857600080fd5b50620001c5565b82805482825590600052602060002090601f016020900481019282156200010b5791602002820160005b83821115620000da57835183826101000a81548160ff02191690836005811115620000b857620000b8620001af565b0217905550926020019260010160208160000104928301926001030262000089565b8015620001095782816101000a81549060ff0219169055600101602081600001049283019260010302620000da565b505b506200011992915062000198565b5090565b82805482825590600052602060002090601f016020900481019282156200010b5791602002820160005b83821115620000da57835183826101000a81548160ff02191690836005811115620001765762000176620001af565b0217905550926020019260010160208160000104928301926001030262000147565b5b8082111562000119576000815560010162000199565b634e487b7160e01b600052602160045260246000fd5b61570780620001d56000396000f3fe608060405234801561001057600080fd5b50600436106101735760003560e01c806379b2ec12116100de578063b3f05b9711610097578063e495ed1c11610071578063e495ed1c1461031f578063ed21102314610332578063eeec141914610352578063f045a7691461036557600080fd5b8063b3f05b97146102e5578063bae6f623146102f9578063cb132cc71461030c57600080fd5b806379b2ec121461026e5780637ba706e814610291578063821ee8ea146102a4578063893d20e8146102b75780638bb9c5bf146102bf578063b0e37185146102d257600080fd5b80633178a9a9116101305780633178a9a9146101fc57806333f36a2b1461020f578063360c4b52146102225780633da9a600146102355780636be8496f14610248578063740998151461025b57600080fd5b80630a219497146101785780630c4919b71461018d578063103f6edd146101a057806316dc517e146101c357806317c51fec146101d6578063235e6935146101e9575b600080fd5b61018b610186366004614d8d565b61036d565b005b61018b61019b366004614e07565b610834565b6101a8610943565b60405164ffffffffff90911681526020015b60405180910390f35b61018b6101d1366004614e40565b6109cf565b61018b6101e4366004614e40565b610a5d565b61018b6101f7366004614e65565b610a82565b61018b61020a366004614ed0565b61106e565b61018b61021d366004614eed565b611267565b61018b610230366004614f2e565b6115d6565b61018b610243366004614f5c565b611785565b61018b610256366004614f75565b611890565b61018b610269366004614e40565b611942565b61028161027c366004614e40565b611967565b60405190151581526020016101ba565b61018b61029f366004614ed0565b611a08565b61018b6102b2366004614f92565b611bfa565b6101a8611cea565b61018b6102cd366004614f5c565b611d25565b61018b6102e0366004614fe3565b611d7e565b60028054600160f01b900460ff1614610281565b61018b61030736600461500f565b612173565b61018b61031a366004615051565b612338565b61018b61032d3660046150ab565b61256f565b61033a612ba0565b6040516001600160a01b0390911681526020016101ba565b61018b61036036600461510a565b612c26565b61018b612f90565b604051633b11adbf60e21b81526002600482015233602482015273__$364aad554dc80380f414546becdd2c1584$__9063ec46b6fc9060440160206040518083038186803b1580156103be57600080fd5b505af41580156103d2573d6000803e3d6000fd5b505050506040513d601f19601f820116820180604052508101906103f69190615128565b61041b5760405162461bcd60e51b81526004016104129061514a565b60405180910390fd5b60056104256131ae565b60405163de154c2760e01b81526001600160a01b038781166004830152919091169063de154c279060240160c06040518083038186803b15801561046857600080fd5b505afa15801561047c573d6000803e3d6000fd5b505050506040513d601f19601f820116820180604052508101906104a091906151a6565b60a0015160ff161461051a5760405162461bcd60e51b815260206004820152603b60248201527f424f414b65657065722e636c6f73654465616c3a20496e766573746d656e744160448201527f677265656d656e74204e4f5420696e20766f74656420737461746500000000006064820152608401610412565b6040516309d73b9560e11b81526004810184905264ffffffffff82169073__$94c94c1f27eaba30857c7d0c37f90b5581$__906313ae772a9060240160206040518083038186803b15801561056e57600080fd5b505af4158015610582573d6000803e3d6000fd5b505050506040513d601f19601f820116820180604052508101906105a69190615233565b64ffffffffff161461060b5760405162461bcd60e51b815260206004820152602860248201527f424f414b65657065722e636c6f73654465616c3a2063616c6c6572206973204e60448201526727aa10313abcb2b960c11b6064820152608401610412565b60405163177bece160e21b81526004810184905260009073__$94c94c1f27eaba30857c7d0c37f90b5581$__90635defb3849060240160206040518083038186803b15801561065957600080fd5b505af415801561066d573d6000803e3d6000fd5b505050506040513d601f19601f820116820180604052508101906106919190615250565b6040516377915b2b60e01b81529091506001600160a01b038616906377915b2b906106c290849087906004016152cc565b602060405180830381600087803b1580156106dc57600080fd5b505af11580156106f0573d6000803e3d6000fd5b505050506040513d601f19601f820116820180604052508101906107149190615128565b1561077f576107216131ae565b60405163a95027b360e01b81526001600160a01b038781166004830152919091169063a95027b390602401600060405180830381600087803b15801561076657600080fd5b505af115801561077a573d6000803e3d6000fd5b505050505b604051632805fd7360e21b81526004810185905260009073__$94c94c1f27eaba30857c7d0c37f90b5581$__9063a017f5cc9060240160206040518083038186803b1580156107cd57600080fd5b505af41580156107e1573d6000803e3d6000fd5b505050506040513d601f19601f8201168201806040525081019061080591906152f1565b905063ffffffff8116156108225761081d8686613211565b61082c565b61082c8686611d7e565b505050505050565b604051633b11adbf60e21b81526002600482015233602482015273__$364aad554dc80380f414546becdd2c1584$__9063ec46b6fc9060440160206040518083038186803b15801561088557600080fd5b505af4158015610899573d6000803e3d6000fd5b505050506040513d601f19601f820116820180604052508101906108bd9190615128565b6108d95760405162461bcd60e51b81526004016104129061514a565b6108e16131ae565b60405163552cb2bb60e11b81526001600160a01b03848116600483015260ff84166024830152919091169063aa59657690604401600060405180830381600087803b15801561092f57600080fd5b505af115801561082c573d6000803e3d6000fd5b60405163e8c0cc1d60e01b81526002600482015260009073__$364aad554dc80380f414546becdd2c1584$__9063e8c0cc1d906024015b60206040518083038186803b15801561099257600080fd5b505af41580156109a6573d6000803e3d6000fd5b505050506040513d601f19601f820116820180604052508101906109ca9190615233565b905090565b73__$364aad554dc80380f414546becdd2c1584$__63427abff46002846109f46135a8565b6040516001600160e01b031960e086901b1681526004810193909352602483019190915264ffffffffff9081166044830152841660648201526084015b60006040518083038186803b158015610a4957600080fd5b505af415801561082c573d6000803e3d6000fd5b73__$364aad554dc80380f414546becdd2c1584$__638ce158456002846109f46135a8565b604051633b11adbf60e21b81526002600482015233602482015273__$364aad554dc80380f414546becdd2c1584$__9063ec46b6fc9060440160206040518083038186803b158015610ad357600080fd5b505af4158015610ae7573d6000803e3d6000fd5b505050506040513d601f19601f82011682018060405250810190610b0b9190615128565b610b275760405162461bcd60e51b81526004016104129061514a565b6005610b316131ae565b60405163de154c2760e01b81526001600160a01b038781166004830152919091169063de154c279060240160c06040518083038186803b158015610b7457600080fd5b505afa158015610b88573d6000803e3d6000fd5b505050506040513d601f19601f82011682018060405250810190610bac91906151a6565b60a0015160ff1614610c0a5760405162461bcd60e51b815260206004820152602160248201527f424f414b65657065722e7265766f6b654465616c3a2077726f6e6720537461746044820152606560f81b6064820152608401610412565b60405163177bece160e21b81526004810184905260009073__$94c94c1f27eaba30857c7d0c37f90b5581$__90635defb3849060240160206040518083038186803b158015610c5857600080fd5b505af4158015610c6c573d6000803e3d6000fd5b505050506040513d601f19601f82011682018060405250810190610c909190615250565b604051630d914a1d60e41b81526004810186905290915073__$94c94c1f27eaba30857c7d0c37f90b5581$__9063d914a1d09060240160206040518083038186803b158015610cde57600080fd5b505af4158015610cf2573d6000803e3d6000fd5b505050506040513d601f19601f82011682018060405250810190610d169190615233565b64ffffffffff168364ffffffffff1614610d725760405162461bcd60e51b815260206004820181905260248201527f424f414b65657065722e7265766f6b654465616c3a204e4f542073656c6c65726044820152606401610412565b6040516353215a9b60e01b81526001600160a01b038616906353215a9b90610da090849086906004016152cc565b602060405180830381600087803b158015610dba57600080fd5b505af1158015610dce573d6000803e3d6000fd5b505050506040513d601f19601f82011682018060405250810190610df29190615128565b15610e5d57610dff6131ae565b60405163a95027b360e01b81526001600160a01b038781166004830152919091169063a95027b390602401600060405180830381600087803b158015610e4457600080fd5b505af1158015610e58573d6000803e3d6000fd5b505050505b604051635ff6c91960e01b815261ffff821660048201526001600160a01b03861690635ff6c91990602401602060405180830381600087803b158015610ea257600080fd5b505af1158015610eb6573d6000803e3d6000fd5b505050506040513d601f19601f82011682018060405250810190610eda9190615128565b1561106757610ee7613602565b6001600160a01b03166361cd252b8573__$94c94c1f27eaba30857c7d0c37f90b5581$__63a017f5cc90916040518263ffffffff1660e01b8152600401610f3091815260200190565b60206040518083038186803b158015610f4857600080fd5b505af4158015610f5c573d6000803e3d6000fd5b505050506040513d601f19601f82011682018060405250810190610f8091906152f1565b60405163b7cd729360e01b815261ffff851660048201526001600160a01b0389169063b7cd72939060240160c06040518083038186803b158015610fc357600080fd5b505afa158015610fd7573d6000803e3d6000fd5b505050506040513d601f19601f82011682018060405250810190610ffb9190615333565b60409081015190516001600160e01b031960e085901b16815263ffffffff9290921660048301526001600160401b031660248201526044015b600060405180830381600087803b15801561104e57600080fd5b505af1158015611062573d6000803e3d6000fd5b505050505b5050505050565b604051633b11adbf60e21b81526002600482015233602482015273__$364aad554dc80380f414546becdd2c1584$__9063ec46b6fc9060440160206040518083038186803b1580156110bf57600080fd5b505af41580156110d3573d6000803e3d6000fd5b505050506040513d601f19601f820116820180604052508101906110f79190615128565b8061119c575073__$364aad554dc80380f414546becdd2c1584$__63fe27108660026111216135a8565b6040516001600160e01b031960e085901b168152600481019290925264ffffffffff16602482015260440160206040518083038186803b15801561116457600080fd5b505af4158015611178573d6000803e3d6000fd5b505050506040513d601f19601f8201168201806040525081019061119c9190615128565b6111b85760405162461bcd60e51b8152600401610412906153ac565b604051632725ebef60e21b81526002600482015264ffffffffff8216602482015273__$364aad554dc80380f414546becdd2c1584$__90639c97afbc9060440160006040518083038186803b15801561121057600080fd5b505af4158015611224573d6000803e3d6000fd5b505060405164ffffffffff841681527ff2735f34b69be1e6342dea95f9162f84d0db925fab655ca9f1f312ac8cbfc99d925060200190505b60405180910390a150565b604051633b11adbf60e21b81526002600482015233602482015273__$364aad554dc80380f414546becdd2c1584$__9063ec46b6fc9060440160206040518083038186803b1580156112b857600080fd5b505af41580156112cc573d6000803e3d6000fd5b505050506040513d601f19601f820116820180604052508101906112f09190615128565b61130c5760405162461bcd60e51b81526004016104129061514a565b82826113166131ae565b604051632e024b2160e11b81526001600160a01b03848116600483015264ffffffffff841660248301529190911690635c0496429060440160206040518083038186803b15801561136657600080fd5b505afa15801561137a573d6000803e3d6000fd5b505050506040513d601f19601f8201168201806040525081019061139e9190615128565b6113ba5760405162461bcd60e51b815260040161041290615402565b60026113c46131ae565b60405163de154c2760e01b81526001600160a01b038881166004830152919091169063de154c279060240160c06040518083038186803b15801561140757600080fd5b505afa15801561141b573d6000803e3d6000fd5b505050506040513d601f19601f8201168201806040525081019061143f91906151a6565b60a0015160ff16146114935760405162461bcd60e51b815260206004820152601a60248201527f4941206e6f7420696e2043697263756c617465642053746174650000000000006044820152606401610412565b61149d858561361d565b6114a56131ae565b604051636f29479560e01b81526001600160a01b03878116600483015264ffffffffff87166024830152604482018690529190911690636f29479590606401600060405180830381600087803b1580156114fe57600080fd5b505af1158015611512573d6000803e3d6000fd5b5050505061151e6131ae565b60405163a113062d60e01b81526001600160a01b038781166004830152919091169063a113062d9060240160206040518083038186803b15801561156157600080fd5b505afa158015611575573d6000803e3d6000fd5b505050506040513d601f19601f820116820180604052508101906115999190615128565b15611067576115a66131ae565b60405163a95027b360e01b81526001600160a01b038781166004830152919091169063a95027b390602401611034565b604051633b11adbf60e21b81526002600482015233602482015273__$364aad554dc80380f414546becdd2c1584$__9063ec46b6fc9060440160206040518083038186803b15801561162757600080fd5b505af415801561163b573d6000803e3d6000fd5b505050506040513d601f19601f8201168201806040525081019061165f9190615128565b61167b5760405162461bcd60e51b81526004016104129061514a565b81818064ffffffffff16826001600160a01b031663893d20e86040518163ffffffff1660e01b815260040160206040518083038186803b1580156116be57600080fd5b505afa1580156116d2573d6000803e3d6000fd5b505050506040513d601f19601f820116820180604052508101906116f69190615233565b64ffffffffff161461171a5760405162461bcd60e51b815260040161041290615402565b6117226131ae565b604051636a10c37d60e11b81526001600160a01b038681166004830152919091169063d42186fa90602401600060405180830381600087803b15801561176757600080fd5b505af115801561177b573d6000803e3d6000fd5b5050505050505050565b604051633b11adbf60e21b81526002600482015233602482015273__$364aad554dc80380f414546becdd2c1584$__9063ec46b6fc9060440160206040518083038186803b1580156117d657600080fd5b505af41580156117ea573d6000803e3d6000fd5b505050506040513d601f19601f8201168201806040525081019061180e9190615128565b61182a5760405162461bcd60e51b81526004016104129061514a565b60405163cc99e11b60e01b8152600260048201526024810182905273__$364aad554dc80380f414546becdd2c1584$__9063cc99e11b9060440160006040518083038186803b15801561187c57600080fd5b505af4158015611067573d6000803e3d6000fd5b604051630f07232560e01b8152600260048201523360248201526001600160a01b038216604482015273__$364aad554dc80380f414546becdd2c1584$__90630f0723259060640160006040518083038186803b1580156118f057600080fd5b505af4158015611904573d6000803e3d6000fd5b50506040516001600160a01b03841681527fe435cbeab64e4eae6497b9d8289704bd709d624a80704ef3ca9af777534bc6ec9250602001905061125c565b73__$364aad554dc80380f414546becdd2c1584$__63d2a15ba76002846109f46135a8565b604051632a3be56b60e21b8152600260048201526024810183905264ffffffffff8216604482015260009073__$364aad554dc80380f414546becdd2c1584$__9063a8ef95ac9060640160206040518083038186803b1580156119c957600080fd5b505af41580156119dd573d6000803e3d6000fd5b505050506040513d601f19601f82011682018060405250810190611a019190615128565b9392505050565b604051633b11adbf60e21b81526002600482015233602482015273__$364aad554dc80380f414546becdd2c1584$__9063ec46b6fc9060440160206040518083038186803b158015611a5957600080fd5b505af4158015611a6d573d6000803e3d6000fd5b505050506040513d601f19601f82011682018060405250810190611a919190615128565b80611b36575073__$364aad554dc80380f414546becdd2c1584$__63fe2710866002611abb6135a8565b6040516001600160e01b031960e085901b168152600481019290925264ffffffffff16602482015260440160206040518083038186803b158015611afe57600080fd5b505af4158015611b12573d6000803e3d6000fd5b505050506040513d601f19601f82011682018060405250810190611b369190615128565b611b525760405162461bcd60e51b8152600401610412906153ac565b60405163b6e38a2960e01b81526002600482015264ffffffffff8216602482015273__$364aad554dc80380f414546becdd2c1584$__9063b6e38a299060440160006040518083038186803b158015611baa57600080fd5b505af4158015611bbe573d6000803e3d6000fd5b505060405164ffffffffff841681527f8b6f40f36b4ae8cc5f55e895036457c43da4ab1f80f58c46f5ff0d72a650033b9250602001905061125c565b611c0382613bbe565b611c0c81613c6d565b604051636cdd0edf60e11b81526002600482015264ffffffffff851660248201526001600160a01b038416604482015273__$364aad554dc80380f414546becdd2c1584$__9063d9ba1dbe9060640160006040518083038186803b158015611c7357600080fd5b505af4158015611c87573d6000803e3d6000fd5b50506040805164ffffffffff881681526001600160a01b038781166020830152868116828401528516606082015290517f4d18c0021addc919105cb1ed2c11ad241e859cc1d9e77d4ee1d9ca2cdc1f255b9350908190036080019150a150505050565b60405163987ad15360e01b81526002600482015260009073__$364aad554dc80380f414546becdd2c1584$__9063987ad1539060240161097a565b6000611d2f6135a8565b604051637963595360e11b8152600260048201526024810184905264ffffffffff8216604482015290915073__$364aad554dc80380f414546becdd2c1584$__9063f2c6b2a690606401610a31565b604051633b11adbf60e21b81526002600482015233602482015273__$364aad554dc80380f414546becdd2c1584$__9063ec46b6fc9060440160206040518083038186803b158015611dcf57600080fd5b505af4158015611de3573d6000803e3d6000fd5b505050506040513d601f19601f82011682018060405250810190611e079190615128565b611e235760405162461bcd60e51b81526004016104129061514a565b60405163177bece160e21b81526004810182905260009073__$94c94c1f27eaba30857c7d0c37f90b5581$__90635defb3849060240160206040518083038186803b158015611e7157600080fd5b505af4158015611e85573d6000803e3d6000fd5b505050506040513d601f19601f82011682018060405250810190611ea99190615250565b60405163b7cd729360e01b815261ffff821660048201529091506000906001600160a01b0385169063b7cd72939060240160c06040518083038186803b158015611ef257600080fd5b505afa158015611f06573d6000803e3d6000fd5b505050506040513d601f19601f82011682018060405250810190611f2a9190615333565b604051600162023fc360e51b03198152600481018590529091506000906120c59073__$94c94c1f27eaba30857c7d0c37f90b5581$__9063ffb807a09060240160206040518083038186803b158015611f8257600080fd5b505af4158015611f96573d6000803e3d6000fd5b505050506040513d601f19601f82011682018060405250810190611fba9190615250565b6040516309d73b9560e11b81526004810187905273__$94c94c1f27eaba30857c7d0c37f90b5581$__906313ae772a9060240160206040518083038186803b15801561200557600080fd5b505af4158015612019573d6000803e3d6000fd5b505050506040513d601f19601f8201168201806040525081019061203d9190615233565b604051638b257a7160e01b81526004810188905273__$94c94c1f27eaba30857c7d0c37f90b5581$__90638b257a719060240160206040518083038186803b15801561208857600080fd5b505af415801561209c573d6000803e3d6000fd5b505050506040513d601f19601f820116820180604052508101906120c091906152f1565b613d24565b905060006120d54261a8c0615442565b90506120df613602565b602084015160408086015190516351ce4ecb60e01b8152600481018690526001600160401b0392831660248201529116604482015265ffffffffffff831660648201526001600160a01b0391909116906351ce4ecb906084015b600060405180830381600087803b15801561215357600080fd5b505af1158015612167573d6000803e3d6000fd5b50505050505050505050565b604051633b11adbf60e21b81526002600482015233602482015273__$364aad554dc80380f414546becdd2c1584$__9063ec46b6fc9060440160206040518083038186803b1580156121c457600080fd5b505af41580156121d8573d6000803e3d6000fd5b505050506040513d601f19601f820116820180604052508101906121fc9190615128565b6122185760405162461bcd60e51b81526004016104129061514a565b604051630d914a1d60e41b81526004810183905273__$94c94c1f27eaba30857c7d0c37f90b5581$__9063d914a1d09060240160206040518083038186803b15801561226357600080fd5b505af4158015612277573d6000803e3d6000fd5b505050506040513d601f19601f8201168201806040525081019061229b9190615233565b64ffffffffff168164ffffffffff161461231d5760405162461bcd60e51b815260206004820152603860248201527f424f414b65657065722e7472616e7366657254617267657453686172653a206360448201527f616c6c6572206e6f742073656c6c6572206f66204465616c00000000000000006064820152608401610412565b61232983836001613f91565b6123338383613211565b505050565b604051633b11adbf60e21b81526002600482015233602482015273__$364aad554dc80380f414546becdd2c1584$__9063ec46b6fc9060440160206040518083038186803b15801561238957600080fd5b505af415801561239d573d6000803e3d6000fd5b505050506040513d601f19601f820116820180604052508101906123c19190615128565b6123dd5760405162461bcd60e51b81526004016104129061514a565b83838064ffffffffff16826001600160a01b031663893d20e86040518163ffffffff1660e01b815260040160206040518083038186803b15801561242057600080fd5b505afa158015612434573d6000803e3d6000fd5b505050506040513d601f19601f820116820180604052508101906124589190615233565b64ffffffffff161461247c5760405162461bcd60e51b815260040161041290615402565b856001600160a01b031663f045a7696040518163ffffffff1660e01b8152600401600060405180830381600087803b1580156124b757600080fd5b505af11580156124cb573d6000803e3d6000fd5b5050604051630f74e0dd60e31b8152600060048201526001600160a01b0389169250637ba706e89150602401600060405180830381600087803b15801561251157600080fd5b505af1158015612525573d6000803e3d6000fd5b505050506125316131ae565b604051638506c43f60e01b81526001600160a01b03888116600483015260248201879052604482018690529190911690638506c43f90606401612139565b604051633b11adbf60e21b81526002600482015233602482015273__$364aad554dc80380f414546becdd2c1584$__9063ec46b6fc9060440160206040518083038186803b1580156125c057600080fd5b505af41580156125d4573d6000803e3d6000fd5b505050506040513d601f19601f820116820180604052508101906125f89190615128565b6126145760405162461bcd60e51b81526004016104129061514a565b600561261e6131ae565b60405163de154c2760e01b81526001600160a01b038881166004830152919091169063de154c279060240160c06040518083038186803b15801561266157600080fd5b505afa158015612675573d6000803e3d6000fd5b505050506040513d601f19601f8201168201806040525081019061269991906151a6565b60a0015160ff16146126e25760405162461bcd60e51b81526020600482015260126024820152711ddc9bdb99c81cdd185d19481bd9881093d160721b6044820152606401610412565b6126ea6131ae565b60405163993d4de360e01b81526001600160a01b038781166004830152919091169063993d4de39060240160206040518083038186803b15801561272d57600080fd5b505afa158015612741573d6000803e3d6000fd5b505050506040513d601f19601f82011682018060405250810190612765919061546c565b65ffffffffffff168265ffffffffffff1611156127c45760405162461bcd60e51b815260206004820152601f60248201527f636c6f73696e6744617465204c41544552207468616e20646561646c696e65006044820152606401610412565b60405163177bece160e21b81526004810185905260009073__$94c94c1f27eaba30857c7d0c37f90b5581$__90635defb3849060240160206040518083038186803b15801561281257600080fd5b505af4158015612826573d6000803e3d6000fd5b505050506040513d601f19601f8201168201806040525081019061284a9190615250565b604051632805fd7360e21b81526004810187905290915060009073__$94c94c1f27eaba30857c7d0c37f90b5581$__9063a017f5cc9060240160206040518083038186803b15801561289b57600080fd5b505af41580156128af573d6000803e3d6000fd5b505050506040513d601f19601f820116820180604052508101906128d391906152f1565b63ffffffff1615801591506129d157604051630d914a1d60e41b81526004810187905273__$94c94c1f27eaba30857c7d0c37f90b5581$__9063d914a1d09060240160206040518083038186803b15801561292d57600080fd5b505af4158015612941573d6000803e3d6000fd5b505050506040513d601f19601f820116820180604052508101906129659190615233565b64ffffffffff168364ffffffffff16146129cc5760405162461bcd60e51b815260206004820152602260248201527f424f414b65657065722e70757368546f436f666665723a204e4f542073656c6c60448201526132b960f11b6064820152608401610412565b612b19565b6001805460405163381baea360e21b815260048101929092526001600160a01b03169063e06eba8c9060240160206040518083038186803b158015612a1557600080fd5b505afa158015612a29573d6000803e3d6000fd5b505050506040513d601f19601f82011682018060405250810190612a4d9190615489565b604051639766a0b360e01b815264ffffffffff851660048201526001600160a01b039190911690639766a0b39060240160206040518083038186803b158015612a9557600080fd5b505afa158015612aa9573d6000803e3d6000fd5b505050506040513d601f19601f82011682018060405250810190612acd9190615128565b612b195760405162461bcd60e51b815260206004820181905260248201527f424f414b2e5054433a2063616c6c6572206973206e6f74206469726563746f726044820152606401610412565b612b24878783613f91565b60405163637aeee760e11b815261ffff831660048201526024810186905265ffffffffffff851660448201526001600160a01b0388169063c6f5ddce906064015b600060405180830381600087803b158015612b7f57600080fd5b505af1158015612b93573d6000803e3d6000fd5b5050505050505050505050565b604051633c3e56c160e11b81526002600482015260009073__$364aad554dc80380f414546becdd2c1584$__9063787cad829060240160206040518083038186803b158015612bee57600080fd5b505af4158015612c02573d6000803e3d6000fd5b505050506040513d601f19601f820116820180604052508101906109ca9190615489565b604051633b11adbf60e21b81526002600482015233602482015273__$364aad554dc80380f414546becdd2c1584$__9063ec46b6fc9060440160206040518083038186803b158015612c7757600080fd5b505af4158015612c8b573d6000803e3d6000fd5b505050506040513d601f19601f82011682018060405250810190612caf9190615128565b612ccb5760405162461bcd60e51b81526004016104129061514a565b60015460405163381baea360e21b8152600760048201526001600160a01b039091169063e06eba8c9060240160206040518083038186803b158015612d0f57600080fd5b505afa158015612d23573d6000803e3d6000fd5b505050506040513d601f19601f82011682018060405250810190612d479190615489565b60405163c5916f4b60e01b815264ffffffffff831660048201526001600160a01b03919091169063c5916f4b9060240160206040518083038186803b158015612d8f57600080fd5b505afa158015612da3573d6000803e3d6000fd5b505050506040513d601f19601f82011682018060405250810190612dc79190615128565b612e075760405162461bcd60e51b815260206004820152601160248201527031b0b63632b9103737ba1026a2a6a122a960791b6044820152606401610412565b6000612e116131ae565b60405163891613e760e01b815260ff8516600482015264ffffffffff841660248201526001600160a01b03919091169063891613e790604401602060405180830381600087803b158015612e6457600080fd5b505af1158015612e78573d6000803e3d6000fd5b505050506040513d601f19601f82011682018060405250810190612e9c9190615489565b60005460015460405163410f747560e11b815264ffffffffff861660048201523060248201526001600160a01b039283166044820152908216606482015291925082169063821ee8ea90608401600060405180830381600087803b158015612f0357600080fd5b505af1158015612f17573d6000803e3d6000fd5b50505050806001600160a01b0316636451c6e5612f326131ae565b6040516001600160e01b031960e084901b1681526001600160a01b039091166004820152602401600060405180830381600087803b158015612f7357600080fd5b505af1158015612f87573d6000803e3d6000fd5b50505050505050565b604051633b11adbf60e21b81526002600482015233602482015273__$364aad554dc80380f414546becdd2c1584$__9063ec46b6fc9060440160206040518083038186803b158015612fe157600080fd5b505af4158015612ff5573d6000803e3d6000fd5b505050506040513d601f19601f820116820180604052508101906130199190615128565b6130355760405162461bcd60e51b81526004016104129061514a565b600254600160f01b900460ff166001146130915760405162461bcd60e51b815260206004820181905260248201527f41432e6f6e6c7950656e64696e673a20446f632069732066696e616c697a65646044820152606401610412565b60405163cc99e11b60e01b815260026004820152684174746f726e65797360b81b602482015273__$364aad554dc80380f414546becdd2c1584$__9063cc99e11b9060440160006040518083038186803b1580156130ee57600080fd5b505af4158015613102573d6000803e3d6000fd5b5050604051632725ebef60e21b8152600260048201526000602482015273__$364aad554dc80380f414546becdd2c1584$__9250639c97afbc915060440160006040518083038186803b15801561315857600080fd5b505af415801561316c573d6000803e3d6000fd5b50506002805460ff60f01b1916600160f11b17905550506040517f35012b512309c322acf68632cd6cb702ff0e1d776fbe9394e38ffc13b434fe7590600090a1565b6001546000906001600160a01b031663e06eba8c825b6040516001600160e01b031960e084901b16815260ff909116600482015260240160206040518083038186803b1580156131fd57600080fd5b505afa158015612c02573d6000803e3d6000fd5b60405163177bece160e21b81526004810182905260009073__$94c94c1f27eaba30857c7d0c37f90b5581$__90635defb3849060240160206040518083038186803b15801561325f57600080fd5b505af4158015613273573d6000803e3d6000fd5b505050506040513d601f19601f820116820180604052508101906132979190615250565b604051632805fd7360e21b81526004810184905290915060009073__$94c94c1f27eaba30857c7d0c37f90b5581$__9063a017f5cc9060240160206040518083038186803b1580156132e857600080fd5b505af41580156132fc573d6000803e3d6000fd5b505050506040513d601f19601f8201168201806040525081019061332091906152f1565b60405163b7cd729360e01b815261ffff841660048201529091506000906001600160a01b0386169063b7cd72939060240160c06040518083038186803b15801561336957600080fd5b505afa15801561337d573d6000803e3d6000fd5b505050506040513d601f19601f820116820180604052508101906133a19190615333565b604051638b257a7160e01b81526004810186905290915060009073__$94c94c1f27eaba30857c7d0c37f90b5581$__90638b257a719060240160206040518083038186803b1580156133f257600080fd5b505af4158015613406573d6000803e3d6000fd5b505050506040513d601f19601f8201168201806040525081019061342a91906152f1565b6040516309d73b9560e11b81526004810187905290915060009073__$94c94c1f27eaba30857c7d0c37f90b5581$__906313ae772a9060240160206040518083038186803b15801561347b57600080fd5b505af415801561348f573d6000803e3d6000fd5b505050506040513d601f19601f820116820180604052508101906134b39190615233565b90506134bd613602565b60208401516040516361cd252b60e01b815263ffffffff871660048201526001600160401b0390911660248201526001600160a01b0391909116906361cd252b90604401600060405180830381600087803b15801561351b57600080fd5b505af115801561352f573d6000803e3d6000fd5b5050505061353b613602565b6020840151604080860151905163608c472160e01b815263ffffffff80891660048301526001600160401b03938416602483015292909116604482015264ffffffffff8416606482015290841660848201526001600160a01b03919091169063608c47219060a401612b65565b60008054604051634de835e760e11b81523360048201526001600160a01b0390911690639bd06bce90602401602060405180830381600087803b1580156135ee57600080fd5b505af11580156109a6573d6000803e3d6000fd5b6001546000906001600160a01b031663e06eba8c60066131c4565b6000826001600160a01b031663f729d5b36040518163ffffffff1660e01b815260040160006040518083038186803b15801561365857600080fd5b505afa15801561366c573d6000803e3d6000fd5b505050506040513d6000823e601f3d908101601f1916820160405261369491908101906154a6565b80519091505b8015613bb8576000826136ae60018461554b565b815181106136be576136be615562565b6020026020010151905081806136d390615578565b60405163177bece160e21b8152600481018490529093506000915073__$94c94c1f27eaba30857c7d0c37f90b5581$__90635defb3849060240160206040518083038186803b15801561372557600080fd5b505af4158015613739573d6000803e3d6000fd5b505050506040513d601f19601f8201168201806040525081019061375d9190615250565b604051630d914a1d60e41b81526004810184905290915064ffffffffff86169073__$94c94c1f27eaba30857c7d0c37f90b5581$__9063d914a1d09060240160206040518083038186803b1580156137b457600080fd5b505af41580156137c8573d6000803e3d6000fd5b505050506040513d601f19601f820116820180604052508101906137ec9190615233565b64ffffffffff161415613a0757604051630191baa760e61b815261ffff821660048201526001600160a01b0387169063646ea9c090602401602060405180830381600087803b15801561383e57600080fd5b505af1158015613852573d6000803e3d6000fd5b505050506040513d601f19601f820116820180604052508101906138769190615128565b15613a0257613883613602565b6001600160a01b0316635a31dd568373__$94c94c1f27eaba30857c7d0c37f90b5581$__63a017f5cc90916040518263ffffffff1660e01b81526004016138cc91815260200190565b60206040518083038186803b1580156138e457600080fd5b505af41580156138f8573d6000803e3d6000fd5b505050506040513d601f19601f8201168201806040525081019061391c91906152f1565b60405163b7cd729360e01b815261ffff851660048201526001600160a01b038a169063b7cd72939060240160c06040518083038186803b15801561395f57600080fd5b505afa158015613973573d6000803e3d6000fd5b505050506040513d601f19601f820116820180604052508101906139979190615333565b60409081015190516001600160e01b031960e085901b16815263ffffffff9290921660048301526001600160401b03166024820152604401600060405180830381600087803b1580156139e957600080fd5b505af11580156139fd573d6000803e3d6000fd5b505050505b613bb1565b6040516309d73b9560e11b81526004810183905264ffffffffff86169073__$94c94c1f27eaba30857c7d0c37f90b5581$__906313ae772a9060240160206040518083038186803b158015613a5b57600080fd5b505af4158015613a6f573d6000803e3d6000fd5b505050506040513d601f19601f82011682018060405250810190613a939190615233565b64ffffffffff16148015613b2d57506040516364dc784760e11b81526004810183905260019073__$94c94c1f27eaba30857c7d0c37f90b5581$__9063c9b8f08e9060240160206040518083038186803b158015613af057600080fd5b505af4158015613b04573d6000803e3d6000fd5b505050506040513d601f19601f82011682018060405250810190613b28919061558f565b60ff16145b15613bb157604051630191baa760e61b815261ffff821660048201526001600160a01b0387169063646ea9c090602401602060405180830381600087803b158015613b7757600080fd5b505af1158015613b8b573d6000803e3d6000fd5b505050506040513d601f19601f82011682018060405250810190613baf9190615128565b505b505061369a565b50505050565b6000546001600160a01b031615613c0f5760405162461bcd60e51b815260206004820152601560248201527430b63932b0b23c9039b2ba103932b3a1b2b73a32b960591b6044820152606401610412565b6040516001600160a01b03821681527f318da6c7624c71cbc0afe346c9d8827f119d0ecefb241a7b0c87217a076a8e029060200160405180910390a1600080546001600160a01b0319166001600160a01b0392909216919091179055565b6001546001600160a01b031615613cc65760405162461bcd60e51b815260206004820152601960248201527f616c7265616479207365742067656e6572616c4b6565706572000000000000006044820152606401610412565b6040516001600160a01b03821681527fe513d3e0f0d0a3877029dcc588748679a7a3450ec1ec7ed56d96bd012c3e61aa9060200160405180910390a1600180546001600160a01b0319166001600160a01b0392909216919091179055565b604080516020808252818301909252600091829190602082018180368337505060405163d8a3155f60e01b815291925073__$f4d24a073c4d632c09a66fb0a7ac9d4583$__9163d8a3155f9150613d849084906000908a906004016155ac565b60006040518083038186803b158015613d9c57600080fd5b505af4158015613db0573d6000803e3d6000fd5b505050506040513d6000823e601f3d908101601f19168201604052613dd891908101906155d9565b604051630e6c1adf60e21b815290915073__$f4d24a073c4d632c09a66fb0a7ac9d4583$__906339b06b7c90613e17908490600c908990600401615646565b60006040518083038186803b158015613e2f57600080fd5b505af4158015613e43573d6000803e3d6000fd5b505050506040513d6000823e601f3d908101601f19168201604052613e6b91908101906155d9565b60405163757398af60e11b815290915073__$f4d24a073c4d632c09a66fb0a7ac9d4583$__9063eae7315e90613eaa9084906011908890600401615676565b60006040518083038186803b158015613ec257600080fd5b505af4158015613ed6573d6000803e3d6000fd5b505050506040513d6000823e601f3d908101601f19168201604052613efe91908101906155d9565b60405163bfe370d960e01b815290915073__$f4d24a073c4d632c09a66fb0a7ac9d4583$__9063bfe370d990613f389084906004016156a5565b60206040518083038186803b158015613f5057600080fd5b505af4158015613f64573d6000803e3d6000fd5b505050506040513d601f19601f82011682018060405250810190613f8891906156b8565b95945050505050565b6000836001600160a01b0316639b59d9806040518163ffffffff1660e01b815260040160206040518083038186803b158015613fcc57600080fd5b505afa158015613fe0573d6000803e3d6000fd5b505050506040513d601f19601f82011682018060405250810190614004919061558f565b60ff16905060006140136149b5565b6001600160a01b03166348462037836040518263ffffffff1660e01b815260040161404091815260200190565b60206040518083038186803b15801561405857600080fd5b505afa15801561406c573d6000803e3d6000fd5b505050506040513d601f19601f8201168201806040525081019061409091906156b8565b604051639289cdbf60e01b81526004810182905290915073__$94c94c1f27eaba30857c7d0c37f90b5581$__90639289cdbf9060240160206040518083038186803b1580156140de57600080fd5b505af41580156140f2573d6000803e3d6000fd5b505050506040513d601f19601f820116820180604052508101906141169190615250565b61ffff161515806141ac5750604051634e09ccd960e11b81526004810182905273__$94c94c1f27eaba30857c7d0c37f90b5581$__90639c1399b29060240160206040518083038186803b15801561416d57600080fd5b505af4158015614181573d6000803e3d6000fd5b505050506040513d601f19601f820116820180604052508101906141a59190615250565b61ffff1615155b1561489557604051624494ab60e71b81526004810182905273__$94c94c1f27eaba30857c7d0c37f90b5581$__9063224a55809060240160206040518083038186803b1580156141fb57600080fd5b505af415801561420f573d6000803e3d6000fd5b505050506040513d601f19601f82011682018060405250810190614233919061558f565b60ff16600114156143865760015460405163381baea360e21b8152600260048201526001600160a01b039091169063e06eba8c9060240160206040518083038186803b15801561428257600080fd5b505afa158015614296573d6000803e3d6000fd5b505050506040513d601f19601f820116820180604052508101906142ba9190615489565b604051634940318360e01b81526001600160a01b038781166004830152919091169063494031839060240160206040518083038186803b1580156142fd57600080fd5b505afa158015614311573d6000803e3d6000fd5b505050506040513d601f19601f820116820180604052508101906143359190615128565b6143815760405162461bcd60e51b815260206004820152601f60248201527f424f414b2e7074633a2020474d204d6f74696f6e204e4f5420706173736564006044820152606401610412565b614895565b604051624494ab60e71b81526004810182905273__$94c94c1f27eaba30857c7d0c37f90b5581$__9063224a55809060240160206040518083038186803b1580156143d057600080fd5b505af41580156143e4573d6000803e3d6000fd5b505050506040513d601f19601f82011682018060405250810190614408919061558f565b60ff1660021415614561576001805460405163381baea360e21b815260048101929092526001600160a01b03169063e06eba8c9060240160206040518083038186803b15801561445757600080fd5b505afa15801561446b573d6000803e3d6000fd5b505050506040513d601f19601f8201168201806040525081019061448f9190615489565b604051634940318360e01b81526001600160a01b038781166004830152919091169063494031839060240160206040518083038186803b1580156144d257600080fd5b505afa1580156144e6573d6000803e3d6000fd5b505050506040513d601f19601f8201168201806040525081019061450a9190615128565b6143815760405162461bcd60e51b815260206004820152602260248201527f424f414b2e7074633a2020426f617264204d6f74696f6e204e4f542070617373604482015261195960f21b6064820152608401610412565b604051624494ab60e71b81526004810182905273__$94c94c1f27eaba30857c7d0c37f90b5581$__9063224a55809060240160206040518083038186803b1580156145ab57600080fd5b505af41580156145bf573d6000803e3d6000fd5b505050506040513d601f19601f820116820180604052508101906145e3919061558f565b60ff166003141561483e576001805460405163381baea360e21b815260048101929092526001600160a01b03169063e06eba8c9060240160206040518083038186803b15801561463257600080fd5b505afa158015614646573d6000803e3d6000fd5b505050506040513d601f19601f8201168201806040525081019061466a9190615489565b604051634940318360e01b81526001600160a01b038781166004830152919091169063494031839060240160206040518083038186803b1580156146ad57600080fd5b505afa1580156146c1573d6000803e3d6000fd5b505050506040513d601f19601f820116820180604052508101906146e59190615128565b80156147e3575060015460405163381baea360e21b8152600260048201526001600160a01b039091169063e06eba8c9060240160206040518083038186803b15801561473057600080fd5b505afa158015614744573d6000803e3d6000fd5b505050506040513d601f19601f820116820180604052508101906147689190615489565b604051634940318360e01b81526001600160a01b038781166004830152919091169063494031839060240160206040518083038186803b1580156147ab57600080fd5b505afa1580156147bf573d6000803e3d6000fd5b505050506040513d601f19601f820116820180604052508101906147e39190615128565b6143815760405162461bcd60e51b815260206004820152602660248201527f424f414b2e7074633a20426f61726420616e6420474d206e6f7420424f5448206044820152651c185cdcd95960d21b6064820152608401610412565b60405162461bcd60e51b815260206004820152602660248201527f424f414b2e7074633a2077726f6e67206465636973696f6e20706f7765722073604482015265657474696e6760d01b6064820152608401610412565b821561492b57614926600580548060200260200160405190810160405280929190818152602001828054801561491a57602002820191906000526020600020906000905b82829054906101000a900460ff1660058111156148f8576148f8615190565b8152602060019283018181049485019490930390920291018084116148d95790505b50505050508686614a6a565b611067565b611067600480548060200260200160405190810160405280929190818152602001828054801561491a57602002820191906000526020600020906000905b82829054906101000a900460ff16600581111561498857614988615190565b81526020600192830181810494850194909303909202910180841161496957905050505050508686614a6a565b60015460405163381baea360e21b8152600360048201526000916001600160a01b03169063e06eba8c9060240160206040518083038186803b1580156149fa57600080fd5b505afa158015614a0e573d6000803e3d6000fd5b505050506040513d601f19601f82011682018060405250810190614a329190615489565b6001600160a01b0316632f5f3b3c6040518163ffffffff1660e01b815260040160206040518083038186803b1580156131fd57600080fd5b82515b8015613bb857614a7b6149b5565b6001600160a01b0316637176544985614a9560018561554b565b81518110614aa557614aa5615562565b60200260200101516005811115614abe57614abe615190565b6040516001600160e01b031960e084901b16815260ff909116600482015260240160206040518083038186803b158015614af757600080fd5b505afa158015614b0b573d6000803e3d6000fd5b505050506040513d601f19601f82011682018060405250810190614b2f9190615128565b15614c6557614b3c6149b5565b6001600160a01b0316632f88bb5a85614b5660018561554b565b81518110614b6657614b66615562565b60200260200101516005811115614b7f57614b7f615190565b6040516001600160e01b031960e084901b16815260ff90911660048201526001600160a01b03861660248201526044810185905260640160206040518083038186803b158015614bce57600080fd5b505afa158015614be2573d6000803e3d6000fd5b505050506040513d601f19601f82011682018060405250810190614c069190615128565b614c655760405162461bcd60e51b815260206004820152602a60248201527f424f414b65657065722e7074633a20534841206f626c69676174696f6e206e6f6044820152691d08195e195b5c1d195960b21b6064820152608401610412565b80614c6f81615578565b915050614a6d565b6001600160a01b0381168114614c8c57600080fd5b50565b634e487b7160e01b600052604160045260246000fd5b60405160c081016001600160401b0381118282101715614cc757614cc7614c8f565b60405290565b604051601f8201601f191681016001600160401b0381118282101715614cf557614cf5614c8f565b604052919050565b60006001600160401b03821115614d1657614d16614c8f565b50601f01601f191660200190565b600082601f830112614d3557600080fd5b8135614d48614d4382614cfd565b614ccd565b818152846020838601011115614d5d57600080fd5b816020850160208301376000918101602001919091529392505050565b64ffffffffff81168114614c8c57600080fd5b60008060008060808587031215614da357600080fd5b8435614dae81614c77565b93506020850135925060408501356001600160401b03811115614dd057600080fd5b614ddc87828801614d24565b9250506060850135614ded81614d7a565b939692955090935050565b60ff81168114614c8c57600080fd5b60008060408385031215614e1a57600080fd5b8235614e2581614c77565b91506020830135614e3581614df8565b809150509250929050565b60008060408385031215614e5357600080fd5b823591506020830135614e3581614d7a565b60008060008060808587031215614e7b57600080fd5b8435614e8681614c77565b9350602085013592506040850135614e9d81614d7a565b915060608501356001600160401b03811115614eb857600080fd5b614ec487828801614d24565b91505092959194509250565b600060208284031215614ee257600080fd5b8135611a0181614d7a565b600080600060608486031215614f0257600080fd5b8335614f0d81614c77565b92506020840135614f1d81614d7a565b929592945050506040919091013590565b60008060408385031215614f4157600080fd5b8235614f4c81614c77565b91506020830135614e3581614d7a565b600060208284031215614f6e57600080fd5b5035919050565b600060208284031215614f8757600080fd5b8135611a0181614c77565b60008060008060808587031215614fa857600080fd5b8435614fb381614d7a565b93506020850135614fc381614c77565b92506040850135614fd381614c77565b91506060850135614ded81614c77565b60008060408385031215614ff657600080fd5b823561500181614c77565b946020939093013593505050565b60008060006060848603121561502457600080fd5b833561502f81614c77565b925060208401359150604084013561504681614d7a565b809150509250925092565b6000806000806080858703121561506757600080fd5b843561507281614c77565b9350602085013561508281614d7a565b93969395505050506040820135916060013590565b65ffffffffffff81168114614c8c57600080fd5b600080600080600060a086880312156150c357600080fd5b85356150ce81614c77565b9450602086013593506040860135925060608601356150ec81615097565b915060808601356150fc81614d7a565b809150509295509295909350565b6000806040838503121561511d57600080fd5b8235614f4c81614df8565b60006020828403121561513a57600080fd5b81518015158114611a0157600080fd5b60208082526026908201527f41432e6f6e6c794469726563744b65657065723a206e6f74206469726563742060408201526535b2b2b832b960d11b606082015260800190565b634e487b7160e01b600052602160045260246000fd5b600060c082840312156151b857600080fd5b6151c0614ca5565b82516151cb81614df8565b815260208301516151db81614d7a565b602082015260408301516151ee81615097565b6040820152606083015161520181615097565b6060820152608083015161521481615097565b608082015260a083015161522781614df8565b60a08201529392505050565b60006020828403121561524557600080fd5b8151611a0181614d7a565b60006020828403121561526257600080fd5b815161ffff81168114611a0157600080fd5b60005b8381101561528f578181015183820152602001615277565b83811115613bb85750506000910152565b600081518084526152b8816020860160208601615274565b601f01601f19169290920160200192915050565b61ffff831681526040602082015260006152e960408301846152a0565b949350505050565b60006020828403121561530357600080fd5b815163ffffffff81168114611a0157600080fd5b80516001600160401b038116811461532e57600080fd5b919050565b600060c0828403121561534557600080fd5b61534d614ca5565b8251815261535d60208401615317565b602082015261536e60408401615317565b6040820152606083015161538181615097565b6060820152608083015161539481614df8565b608082015260a0928301519281019290925250919050565b60208082526036908201527f41432e6f776e65724f72446972656374426f6f6b65657065723a206e6569746860408201527532b91037bbb732b9103737b9103137b7b5b2b2b832b960511b606082015260800190565b60208082526010908201526f4e4f54204f776e6572206f6620446f6360801b604082015260600190565b634e487b7160e01b600052601160045260246000fd5b600065ffffffffffff8083168185168083038211156154635761546361542c565b01949350505050565b60006020828403121561547e57600080fd5b8151611a0181615097565b60006020828403121561549b57600080fd5b8151611a0181614c77565b600060208083850312156154b957600080fd5b82516001600160401b03808211156154d057600080fd5b818501915085601f8301126154e457600080fd5b8151818111156154f6576154f6614c8f565b8060051b9150615507848301614ccd565b818152918301840191848101908884111561552157600080fd5b938501935b8385101561553f57845182529385019390850190615526565b98975050505050505050565b60008282101561555d5761555d61542c565b500390565b634e487b7160e01b600052603260045260246000fd5b6000816155875761558761542c565b506000190190565b6000602082840312156155a157600080fd5b8151611a0181614df8565b6060815260006155bf60608301866152a0565b905083602083015261ffff83166040830152949350505050565b6000602082840312156155eb57600080fd5b81516001600160401b0381111561560157600080fd5b8201601f8101841361561257600080fd5b8051615620614d4382614cfd565b81815285602083850101111561563557600080fd5b613f88826020830160208601615274565b60608152600061565960608301866152a0565b905083602083015264ffffffffff83166040830152949350505050565b60608152600061568960608301866152a0565b905083602083015263ffffffff83166040830152949350505050565b602081526000611a0160208301846152a0565b6000602082840312156156ca57600080fd5b505191905056fea2646970667358221220623a49f8a1b2c81e0617cc99d0f9f6ede01d4a8e4f7dc69547391a9a35a952bb64736f6c63430008080033",
    "sourcePath": "/Users/kaptain/github.com/hardhat/comboox/contracts/keepers/BOAKeeper.sol",
    "compiler": {
        "name": "solc",
        "version": "0.8.8+commit.dddeac2f"
    },
    "functionHashes": {
        "abandonRole(bytes32)": "3da9a600",
        "circulateIA(address,uint40,bytes32,bytes32)": "cb132cc7",
        "closeDeal(address,bytes32,string,uint40)": "0a219497",
        "createIA(uint8,uint40)": "eeec1419",
        "finalized()": "b3f05b97",
        "getBookeeper()": "ed211023",
        "getGeneralCounsel()": "103f6edd",
        "getOwner()": "893d20e8",
        "grantRole(bytes32,uint40)": "74099815",
        "hasRole(bytes32,uint40)": "79b2ec12",
        "init(uint40,address,address,address)": "821ee8ea",
        "issueNewShare(address,bytes32)": "b0e37185",
        "lockContents()": "f045a769",
        "pushToCoffer(address,bytes32,bytes32,uint48,uint40)": "e495ed1c",
        "removeIA(address,uint40)": "360c4b52",
        "renounceRole(bytes32)": "8bb9c5bf",
        "revokeDeal(address,bytes32,uint40,string)": "235e6935",
        "revokeRole(bytes32,uint40)": "17c51fec",
        "setDirectKeeper(address)": "6be8496f",
        "setGeneralCounsel(uint40)": "3178a9a9",
        "setOwner(uint40)": "7ba706e8",
        "setRoleAdmin(bytes32,uint40)": "16dc517e",
        "setTempOfIA(address,uint8)": "0c4919b7",
        "signIA(address,uint40,bytes32)": "33f36a2b",
        "transferTargetShare(address,bytes32,uint40)": "bae6f623"
    },
    "gasEstimates": {
        "creation": {
            "codeDepositCost": "4455800",
            "executionCost": "infinite",
            "totalCost": "infinite"
        },
        "external": {
            "abandonRole(bytes32)": "infinite",
            "circulateIA(address,uint40,bytes32,bytes32)": "infinite",
            "closeDeal(address,bytes32,string,uint40)": "infinite",
            "createIA(uint8,uint40)": "infinite",
            "finalized()": "2372",
            "getBookeeper()": "infinite",
            "getGeneralCounsel()": "infinite",
            "getOwner()": "infinite",
            "grantRole(bytes32,uint40)": "infinite",
            "hasRole(bytes32,uint40)": "infinite",
            "init(uint40,address,address,address)": "infinite",
            "issueNewShare(address,bytes32)": "infinite",
            "lockContents()": "infinite",
            "pushToCoffer(address,bytes32,bytes32,uint48,uint40)": "infinite",
            "removeIA(address,uint40)": "infinite",
            "renounceRole(bytes32)": "infinite",
            "revokeDeal(address,bytes32,uint40,string)": "infinite",
            "revokeRole(bytes32,uint40)": "infinite",
            "setDirectKeeper(address)": "infinite",
            "setGeneralCounsel(uint40)": "infinite",
            "setOwner(uint40)": "infinite",
            "setRoleAdmin(bytes32,uint40)": "infinite",
            "setTempOfIA(address,uint8)": "infinite",
            "signIA(address,uint40,bytes32)": "infinite",
            "transferTargetShare(address,bytes32,uint40)": "infinite"
        },
        "internal": {
            "_checkSHA(enum IShareholdersAgreement.TermTitle[] memory,address,bytes32)": "infinite",
            "_createShareNumber(uint16,uint40,uint32)": "infinite",
            "_lockDealsOfParty(address,uint40)": "infinite",
            "_shareTransfer(address,bytes32)": "infinite",
            "_vrAndSHACheck(address,bytes32,bool)": "infinite"
        }
    }
}