{
    "contractName": "BOAKeeper",
    "abi": [
        {
            "anonymous": false,
            "inputs": [
                {
                    "indexed": false,
                    "internalType": "uint40",
                    "name": "owner",
                    "type": "uint40"
                },
                {
                    "indexed": false,
                    "internalType": "address",
                    "name": "directKeeper",
                    "type": "address"
                },
                {
                    "indexed": false,
                    "internalType": "address",
                    "name": "regCenter",
                    "type": "address"
                },
                {
                    "indexed": false,
                    "internalType": "address",
                    "name": "generalKeeper",
                    "type": "address"
                }
            ],
            "name": "Init",
            "type": "event"
        },
        {
            "anonymous": false,
            "inputs": [],
            "name": "LockContents",
            "type": "event"
        },
        {
            "anonymous": false,
            "inputs": [
                {
                    "indexed": false,
                    "internalType": "address",
                    "name": "keeper",
                    "type": "address"
                }
            ],
            "name": "SetDirectKeeper",
            "type": "event"
        },
        {
            "anonymous": false,
            "inputs": [
                {
                    "indexed": false,
                    "internalType": "uint256",
                    "name": "acct",
                    "type": "uint256"
                }
            ],
            "name": "SetGeneralCounsel",
            "type": "event"
        },
        {
            "anonymous": false,
            "inputs": [
                {
                    "indexed": false,
                    "internalType": "address",
                    "name": "gk",
                    "type": "address"
                }
            ],
            "name": "SetGeneralKeeper",
            "type": "event"
        },
        {
            "anonymous": false,
            "inputs": [
                {
                    "indexed": false,
                    "internalType": "uint256",
                    "name": "acct",
                    "type": "uint256"
                }
            ],
            "name": "SetOwner",
            "type": "event"
        },
        {
            "anonymous": false,
            "inputs": [
                {
                    "indexed": false,
                    "internalType": "address",
                    "name": "rc",
                    "type": "address"
                }
            ],
            "name": "SetRegCenter",
            "type": "event"
        },
        {
            "inputs": [
                {
                    "internalType": "bytes32",
                    "name": "role",
                    "type": "bytes32"
                }
            ],
            "name": "abandonRole",
            "outputs": [],
            "stateMutability": "nonpayable",
            "type": "function"
        },
        {
            "inputs": [
                {
                    "internalType": "address",
                    "name": "ia",
                    "type": "address"
                },
                {
                    "internalType": "uint40",
                    "name": "caller",
                    "type": "uint40"
                },
                {
                    "internalType": "bytes32",
                    "name": "docUrl",
                    "type": "bytes32"
                },
                {
                    "internalType": "bytes32",
                    "name": "docHash",
                    "type": "bytes32"
                }
            ],
            "name": "circulateIA",
            "outputs": [],
            "stateMutability": "nonpayable",
            "type": "function"
        },
        {
            "inputs": [
                {
                    "internalType": "address",
                    "name": "ia",
                    "type": "address"
                },
                {
                    "internalType": "bytes32",
                    "name": "sn",
                    "type": "bytes32"
                },
                {
                    "internalType": "string",
                    "name": "hashKey",
                    "type": "string"
                },
                {
                    "internalType": "uint40",
                    "name": "caller",
                    "type": "uint40"
                }
            ],
            "name": "closeDeal",
            "outputs": [],
            "stateMutability": "nonpayable",
            "type": "function"
        },
        {
            "inputs": [
                {
                    "internalType": "uint8",
                    "name": "typOfIA",
                    "type": "uint8"
                },
                {
                    "internalType": "uint40",
                    "name": "caller",
                    "type": "uint40"
                }
            ],
            "name": "createIA",
            "outputs": [],
            "stateMutability": "nonpayable",
            "type": "function"
        },
        {
            "inputs": [],
            "name": "finalized",
            "outputs": [
                {
                    "internalType": "bool",
                    "name": "",
                    "type": "bool"
                }
            ],
            "stateMutability": "view",
            "type": "function"
        },
        {
            "inputs": [],
            "name": "getBookeeper",
            "outputs": [
                {
                    "internalType": "address",
                    "name": "",
                    "type": "address"
                }
            ],
            "stateMutability": "view",
            "type": "function"
        },
        {
            "inputs": [],
            "name": "getGeneralCounsel",
            "outputs": [
                {
                    "internalType": "uint40",
                    "name": "",
                    "type": "uint40"
                }
            ],
            "stateMutability": "view",
            "type": "function"
        },
        {
            "inputs": [],
            "name": "getOwner",
            "outputs": [
                {
                    "internalType": "uint40",
                    "name": "",
                    "type": "uint40"
                }
            ],
            "stateMutability": "view",
            "type": "function"
        },
        {
            "inputs": [
                {
                    "internalType": "bytes32",
                    "name": "role",
                    "type": "bytes32"
                },
                {
                    "internalType": "uint40",
                    "name": "acct",
                    "type": "uint40"
                }
            ],
            "name": "grantRole",
            "outputs": [],
            "stateMutability": "nonpayable",
            "type": "function"
        },
        {
            "inputs": [
                {
                    "internalType": "bytes32",
                    "name": "role",
                    "type": "bytes32"
                },
                {
                    "internalType": "uint40",
                    "name": "acct",
                    "type": "uint40"
                }
            ],
            "name": "hasRole",
            "outputs": [
                {
                    "internalType": "bool",
                    "name": "",
                    "type": "bool"
                }
            ],
            "stateMutability": "view",
            "type": "function"
        },
        {
            "inputs": [
                {
                    "internalType": "uint40",
                    "name": "owner",
                    "type": "uint40"
                },
                {
                    "internalType": "address",
                    "name": "directKeeper",
                    "type": "address"
                },
                {
                    "internalType": "address",
                    "name": "regCenter",
                    "type": "address"
                },
                {
                    "internalType": "address",
                    "name": "generalKeeper",
                    "type": "address"
                }
            ],
            "name": "init",
            "outputs": [],
            "stateMutability": "nonpayable",
            "type": "function"
        },
        {
            "inputs": [
                {
                    "internalType": "address",
                    "name": "ia",
                    "type": "address"
                },
                {
                    "internalType": "bytes32",
                    "name": "sn",
                    "type": "bytes32"
                }
            ],
            "name": "issueNewShare",
            "outputs": [],
            "stateMutability": "nonpayable",
            "type": "function"
        },
        {
            "inputs": [],
            "name": "lockContents",
            "outputs": [],
            "stateMutability": "nonpayable",
            "type": "function"
        },
        {
            "inputs": [
                {
                    "internalType": "address",
                    "name": "ia",
                    "type": "address"
                },
                {
                    "internalType": "bytes32",
                    "name": "sn",
                    "type": "bytes32"
                },
                {
                    "internalType": "bytes32",
                    "name": "hashLock",
                    "type": "bytes32"
                },
                {
                    "internalType": "uint48",
                    "name": "closingDate",
                    "type": "uint48"
                },
                {
                    "internalType": "uint40",
                    "name": "caller",
                    "type": "uint40"
                }
            ],
            "name": "pushToCoffer",
            "outputs": [],
            "stateMutability": "nonpayable",
            "type": "function"
        },
        {
            "inputs": [
                {
                    "internalType": "address",
                    "name": "ia",
                    "type": "address"
                },
                {
                    "internalType": "uint40",
                    "name": "caller",
                    "type": "uint40"
                }
            ],
            "name": "removeIA",
            "outputs": [],
            "stateMutability": "nonpayable",
            "type": "function"
        },
        {
            "inputs": [
                {
                    "internalType": "bytes32",
                    "name": "role",
                    "type": "bytes32"
                }
            ],
            "name": "renounceRole",
            "outputs": [],
            "stateMutability": "nonpayable",
            "type": "function"
        },
        {
            "inputs": [
                {
                    "internalType": "address",
                    "name": "ia",
                    "type": "address"
                },
                {
                    "internalType": "bytes32",
                    "name": "sn",
                    "type": "bytes32"
                },
                {
                    "internalType": "uint40",
                    "name": "caller",
                    "type": "uint40"
                },
                {
                    "internalType": "string",
                    "name": "hashKey",
                    "type": "string"
                }
            ],
            "name": "revokeDeal",
            "outputs": [],
            "stateMutability": "nonpayable",
            "type": "function"
        },
        {
            "inputs": [
                {
                    "internalType": "bytes32",
                    "name": "role",
                    "type": "bytes32"
                },
                {
                    "internalType": "uint40",
                    "name": "acct",
                    "type": "uint40"
                }
            ],
            "name": "revokeRole",
            "outputs": [],
            "stateMutability": "nonpayable",
            "type": "function"
        },
        {
            "inputs": [
                {
                    "internalType": "address",
                    "name": "keeper",
                    "type": "address"
                }
            ],
            "name": "setDirectKeeper",
            "outputs": [],
            "stateMutability": "nonpayable",
            "type": "function"
        },
        {
            "inputs": [
                {
                    "internalType": "uint40",
                    "name": "acct",
                    "type": "uint40"
                }
            ],
            "name": "setGeneralCounsel",
            "outputs": [],
            "stateMutability": "nonpayable",
            "type": "function"
        },
        {
            "inputs": [
                {
                    "internalType": "uint40",
                    "name": "acct",
                    "type": "uint40"
                }
            ],
            "name": "setOwner",
            "outputs": [],
            "stateMutability": "nonpayable",
            "type": "function"
        },
        {
            "inputs": [
                {
                    "internalType": "bytes32",
                    "name": "role",
                    "type": "bytes32"
                },
                {
                    "internalType": "uint40",
                    "name": "acct",
                    "type": "uint40"
                }
            ],
            "name": "setRoleAdmin",
            "outputs": [],
            "stateMutability": "nonpayable",
            "type": "function"
        },
        {
            "inputs": [
                {
                    "internalType": "address",
                    "name": "temp",
                    "type": "address"
                },
                {
                    "internalType": "uint8",
                    "name": "typeOfDoc",
                    "type": "uint8"
                }
            ],
            "name": "setTempOfIA",
            "outputs": [],
            "stateMutability": "nonpayable",
            "type": "function"
        },
        {
            "inputs": [
                {
                    "internalType": "address",
                    "name": "ia",
                    "type": "address"
                },
                {
                    "internalType": "uint40",
                    "name": "caller",
                    "type": "uint40"
                },
                {
                    "internalType": "bytes32",
                    "name": "sigHash",
                    "type": "bytes32"
                }
            ],
            "name": "signIA",
            "outputs": [],
            "stateMutability": "nonpayable",
            "type": "function"
        },
        {
            "inputs": [
                {
                    "internalType": "address",
                    "name": "ia",
                    "type": "address"
                },
                {
                    "internalType": "bytes32",
                    "name": "sn",
                    "type": "bytes32"
                },
                {
                    "internalType": "uint40",
                    "name": "caller",
                    "type": "uint40"
                }
            ],
            "name": "transferTargetShare",
            "outputs": [],
            "stateMutability": "nonpayable",
            "type": "function"
        }
    ],
    "bytecode": "60a0604052608080600290526200001b9060049060016200005f565b506040805160608101909152806001815260200160048152602001600390526200004a9060059060036200011d565b503480156200005857600080fd5b50620001c5565b82805482825590600052602060002090601f016020900481019282156200010b5791602002820160005b83821115620000da57835183826101000a81548160ff02191690836005811115620000b857620000b8620001af565b0217905550926020019260010160208160000104928301926001030262000089565b8015620001095782816101000a81549060ff0219169055600101602081600001049283019260010302620000da565b505b506200011992915062000198565b5090565b82805482825590600052602060002090601f016020900481019282156200010b5791602002820160005b83821115620000da57835183826101000a81548160ff02191690836005811115620001765762000176620001af565b0217905550926020019260010160208160000104928301926001030262000147565b5b8082111562000119576000815560010162000199565b634e487b7160e01b600052602160045260246000fd5b6158a680620001d56000396000f3fe608060405234801561001057600080fd5b50600436106101735760003560e01c806379b2ec12116100de578063b3f05b9711610097578063e495ed1c11610071578063e495ed1c1461031f578063ed21102314610332578063eeec141914610352578063f045a7691461036557600080fd5b8063b3f05b97146102e5578063bae6f623146102f9578063cb132cc71461030c57600080fd5b806379b2ec121461026e5780637ba706e814610291578063821ee8ea146102a4578063893d20e8146102b75780638bb9c5bf146102bf578063b0e37185146102d257600080fd5b80633178a9a9116101305780633178a9a9146101fc57806333f36a2b1461020f578063360c4b52146102225780633da9a600146102355780636be8496f14610248578063740998151461025b57600080fd5b80630a219497146101785780630c4919b71461018d578063103f6edd146101a057806316dc517e146101c357806317c51fec146101d6578063235e6935146101e9575b600080fd5b61018b610186366004614e7e565b61036d565b005b61018b61019b366004614ef8565b61083b565b6101a861094a565b60405164ffffffffff90911681526020015b60405180910390f35b61018b6101d1366004614f31565b6109d6565b61018b6101e4366004614f31565b610a64565b61018b6101f7366004614f56565b610a89565b61018b61020a366004614fc1565b61107c565b61018b61021d366004614fde565b611275565b61018b61023036600461501f565b611764565b61018b61024336600461504d565b611937565b61018b610256366004615066565b611a42565b61018b610269366004614f31565b611af4565b61028161027c366004614f31565b611b19565b60405190151581526020016101ba565b61018b61029f366004614fc1565b611bba565b61018b6102b2366004615083565b611dac565b6101a8611e80565b61018b6102cd36600461504d565b611ebb565b61018b6102e03660046150d4565b611f14565b60028054600160f01b900460ff1614610281565b61018b610307366004615100565b612308565b61018b61031a366004615142565b6124cd565b61018b61032d36600461519c565b612888565b61033a612e82565b6040516001600160a01b0390911681526020016101ba565b61018b6103603660046151fb565b612f08565b61018b613218565b604051633b11adbf60e21b81526002600482015233602482015273__$364aad554dc80380f414546becdd2c1584$__9063ec46b6fc9060440160206040518083038186803b1580156103be57600080fd5b505af41580156103d2573d6000803e3d6000fd5b505050506040513d601f19601f820116820180604052508101906103f69190615219565b61041b5760405162461bcd60e51b81526004016104129061523b565b60405180910390fd5b6005610425613436565b60405163de154c2760e01b81526001600160a01b038781166004830152919091169063de154c279060240160c06040518083038186803b15801561046857600080fd5b505afa15801561047c573d6000803e3d6000fd5b505050506040513d601f19601f820116820180604052508101906104a09190615297565b60a0015160ff161461051a5760405162461bcd60e51b815260206004820152603b60248201527f424f414b65657065722e636c6f73654465616c3a20496e766573746d656e744160448201527f677265656d656e74204e4f5420696e20766f74656420737461746500000000006064820152608401610412565b6040516309d73b9560e11b81526004810184905264ffffffffff82169073__$94c94c1f27eaba30857c7d0c37f90b5581$__906313ae772a9060240160206040518083038186803b15801561056e57600080fd5b505af4158015610582573d6000803e3d6000fd5b505050506040513d601f19601f820116820180604052508101906105a69190615324565b64ffffffffff161461060b5760405162461bcd60e51b815260206004820152602860248201527f424f414b65657065722e636c6f73654465616c3a2063616c6c6572206973204e60448201526727aa10313abcb2b960c11b6064820152608401610412565b60405163177bece160e21b81526004810184905260009073__$94c94c1f27eaba30857c7d0c37f90b5581$__90635defb3849060240160206040518083038186803b15801561065957600080fd5b505af415801561066d573d6000803e3d6000fd5b505050506040513d601f19601f820116820180604052508101906106919190615358565b6040516377915b2b60e01b81529091506001600160a01b038616906377915b2b906106c290849087906004016153cb565b602060405180830381600087803b1580156106dc57600080fd5b505af11580156106f0573d6000803e3d6000fd5b505050506040513d601f19601f820116820180604052508101906107149190615219565b1561078657610721613436565b60405163108fac0b60e11b81526001600160a01b03878116600483015260076024830152919091169063211f581690604401600060405180830381600087803b15801561076d57600080fd5b505af1158015610781573d6000803e3d6000fd5b505050505b604051632805fd7360e21b81526004810185905260009073__$94c94c1f27eaba30857c7d0c37f90b5581$__9063a017f5cc9060240160206040518083038186803b1580156107d457600080fd5b505af41580156107e8573d6000803e3d6000fd5b505050506040513d601f19601f8201168201806040525081019061080c91906153f0565b905063ffffffff811615610829576108248686613499565b610833565b6108338686611f14565b505050505050565b604051633b11adbf60e21b81526002600482015233602482015273__$364aad554dc80380f414546becdd2c1584$__9063ec46b6fc9060440160206040518083038186803b15801561088c57600080fd5b505af41580156108a0573d6000803e3d6000fd5b505050506040513d601f19601f820116820180604052508101906108c49190615219565b6108e05760405162461bcd60e51b81526004016104129061523b565b6108e8613436565b60405163552cb2bb60e11b81526001600160a01b03848116600483015260ff84166024830152919091169063aa59657690604401600060405180830381600087803b15801561093657600080fd5b505af1158015610833573d6000803e3d6000fd5b60405163e8c0cc1d60e01b81526002600482015260009073__$364aad554dc80380f414546becdd2c1584$__9063e8c0cc1d906024015b60206040518083038186803b15801561099957600080fd5b505af41580156109ad573d6000803e3d6000fd5b505050506040513d601f19601f820116820180604052508101906109d19190615324565b905090565b73__$364aad554dc80380f414546becdd2c1584$__63427abff46002846109fb613830565b6040516001600160e01b031960e086901b1681526004810193909352602483019190915264ffffffffff9081166044830152841660648201526084015b60006040518083038186803b158015610a5057600080fd5b505af4158015610833573d6000803e3d6000fd5b73__$364aad554dc80380f414546becdd2c1584$__638ce158456002846109fb613830565b604051633b11adbf60e21b81526002600482015233602482015273__$364aad554dc80380f414546becdd2c1584$__9063ec46b6fc9060440160206040518083038186803b158015610ada57600080fd5b505af4158015610aee573d6000803e3d6000fd5b505050506040513d601f19601f82011682018060405250810190610b129190615219565b610b2e5760405162461bcd60e51b81526004016104129061523b565b6005610b38613436565b60405163de154c2760e01b81526001600160a01b038781166004830152919091169063de154c279060240160c06040518083038186803b158015610b7b57600080fd5b505afa158015610b8f573d6000803e3d6000fd5b505050506040513d601f19601f82011682018060405250810190610bb39190615297565b60a0015160ff1614610c115760405162461bcd60e51b815260206004820152602160248201527f424f414b65657065722e7265766f6b654465616c3a2077726f6e6720537461746044820152606560f81b6064820152608401610412565b60405163177bece160e21b81526004810184905260009073__$94c94c1f27eaba30857c7d0c37f90b5581$__90635defb3849060240160206040518083038186803b158015610c5f57600080fd5b505af4158015610c73573d6000803e3d6000fd5b505050506040513d601f19601f82011682018060405250810190610c979190615358565b604051630d914a1d60e41b81526004810186905290915073__$94c94c1f27eaba30857c7d0c37f90b5581$__9063d914a1d09060240160206040518083038186803b158015610ce557600080fd5b505af4158015610cf9573d6000803e3d6000fd5b505050506040513d601f19601f82011682018060405250810190610d1d9190615324565b64ffffffffff168364ffffffffff1614610d795760405162461bcd60e51b815260206004820181905260248201527f424f414b65657065722e7265766f6b654465616c3a204e4f542073656c6c65726044820152606401610412565b6040516353215a9b60e01b81526001600160a01b038616906353215a9b90610da790849086906004016153cb565b602060405180830381600087803b158015610dc157600080fd5b505af1158015610dd5573d6000803e3d6000fd5b505050506040513d601f19601f82011682018060405250810190610df99190615219565b15610e6b57610e06613436565b60405163108fac0b60e11b81526001600160a01b03878116600483015260076024830152919091169063211f581690604401600060405180830381600087803b158015610e5257600080fd5b505af1158015610e66573d6000803e3d6000fd5b505050505b604051635ff6c91960e01b815261ffff821660048201526001600160a01b03861690635ff6c91990602401602060405180830381600087803b158015610eb057600080fd5b505af1158015610ec4573d6000803e3d6000fd5b505050506040513d601f19601f82011682018060405250810190610ee89190615219565b1561107557610ef561388a565b6001600160a01b03166361cd252b8573__$94c94c1f27eaba30857c7d0c37f90b5581$__63a017f5cc90916040518263ffffffff1660e01b8152600401610f3e91815260200190565b60206040518083038186803b158015610f5657600080fd5b505af4158015610f6a573d6000803e3d6000fd5b505050506040513d601f19601f82011682018060405250810190610f8e91906153f0565b60405163b7cd729360e01b815261ffff851660048201526001600160a01b0389169063b7cd72939060240160c06040518083038186803b158015610fd157600080fd5b505afa158015610fe5573d6000803e3d6000fd5b505050506040513d601f19601f82011682018060405250810190611009919061542d565b60409081015190516001600160e01b031960e085901b16815263ffffffff9290921660048301526001600160401b031660248201526044015b600060405180830381600087803b15801561105c57600080fd5b505af1158015611070573d6000803e3d6000fd5b505050505b5050505050565b604051633b11adbf60e21b81526002600482015233602482015273__$364aad554dc80380f414546becdd2c1584$__9063ec46b6fc9060440160206040518083038186803b1580156110cd57600080fd5b505af41580156110e1573d6000803e3d6000fd5b505050506040513d601f19601f820116820180604052508101906111059190615219565b806111aa575073__$364aad554dc80380f414546becdd2c1584$__63fe271086600261112f613830565b6040516001600160e01b031960e085901b168152600481019290925264ffffffffff16602482015260440160206040518083038186803b15801561117257600080fd5b505af4158015611186573d6000803e3d6000fd5b505050506040513d601f19601f820116820180604052508101906111aa9190615219565b6111c65760405162461bcd60e51b8152600401610412906154a6565b604051632725ebef60e21b81526002600482015264ffffffffff8216602482015273__$364aad554dc80380f414546becdd2c1584$__90639c97afbc9060440160006040518083038186803b15801561121e57600080fd5b505af4158015611232573d6000803e3d6000fd5b505060405164ffffffffff841681527ff2735f34b69be1e6342dea95f9162f84d0db925fab655ca9f1f312ac8cbfc99d925060200190505b60405180910390a150565b604051633b11adbf60e21b81526002600482015233602482015273__$364aad554dc80380f414546becdd2c1584$__9063ec46b6fc9060440160206040518083038186803b1580156112c657600080fd5b505af41580156112da573d6000803e3d6000fd5b505050506040513d601f19601f820116820180604052508101906112fe9190615219565b61131a5760405162461bcd60e51b81526004016104129061523b565b8282611324613436565b604051630cb43e7b60e31b81526001600160a01b03848116600483015291909116906365a1f3d89060240160206040518083038186803b15801561136757600080fd5b505afa15801561137b573d6000803e3d6000fd5b505050506040513d601f19601f8201168201806040525081019061139f91906154fc565b60405163eb37e8ad60e01b815264ffffffffff831660048201526001600160a01b03919091169063eb37e8ad9060240160206040518083038186803b1580156113e757600080fd5b505afa1580156113fb573d6000803e3d6000fd5b505050506040513d601f19601f8201168201806040525081019061141f9190615219565b61145e5760405162461bcd60e51b815260206004820152601060248201526f4e4f54205061727479206f6620446f6360801b6044820152606401610412565b6002611468613436565b60405163de154c2760e01b81526001600160a01b038881166004830152919091169063de154c279060240160c06040518083038186803b1580156114ab57600080fd5b505afa1580156114bf573d6000803e3d6000fd5b505050506040513d601f19601f820116820180604052508101906114e39190615297565b60a0015160ff16146115375760405162461bcd60e51b815260206004820152601a60248201527f4941206e6f7420696e2043697263756c617465642053746174650000000000006044820152606401610412565b61154185856138a5565b611549613436565b604051630cb43e7b60e31b81526001600160a01b03878116600483015291909116906365a1f3d89060240160206040518083038186803b15801561158c57600080fd5b505afa1580156115a0573d6000803e3d6000fd5b505050506040513d601f19601f820116820180604052508101906115c491906154fc565b604051633b9ebecd60e01b815264ffffffffff86166004820152602481018590526001600160a01b039190911690633b9ebecd90604401600060405180830381600087803b15801561161557600080fd5b505af1158015611629573d6000803e3d6000fd5b50505050611635613436565b604051630cb43e7b60e31b81526001600160a01b03878116600483015291909116906365a1f3d89060240160206040518083038186803b15801561167857600080fd5b505afa15801561168c573d6000803e3d6000fd5b505050506040513d601f19601f820116820180604052508101906116b091906154fc565b6001600160a01b0316634844f5416040518163ffffffff1660e01b815260040160206040518083038186803b1580156116e857600080fd5b505afa1580156116fc573d6000803e3d6000fd5b505050506040513d601f19601f820116820180604052508101906117209190615219565b156110755761172d613436565b60405163108fac0b60e11b81526001600160a01b03878116600483015260036024830152919091169063211f581690604401611042565b604051633b11adbf60e21b81526002600482015233602482015273__$364aad554dc80380f414546becdd2c1584$__9063ec46b6fc9060440160206040518083038186803b1580156117b557600080fd5b505af41580156117c9573d6000803e3d6000fd5b505050506040513d601f19601f820116820180604052508101906117ed9190615219565b6118095760405162461bcd60e51b81526004016104129061523b565b81818064ffffffffff16826001600160a01b031663893d20e86040518163ffffffff1660e01b815260040160206040518083038186803b15801561184c57600080fd5b505afa158015611860573d6000803e3d6000fd5b505050506040513d601f19601f820116820180604052508101906118849190615324565b64ffffffffff16146118cb5760405162461bcd60e51b815260206004820152601060248201526f4e4f54204f776e6572206f6620446f6360801b6044820152606401610412565b6118d3613436565b604051636a10c37d60e11b81526001600160a01b038681166004830152919091169063d42186fa906024015b600060405180830381600087803b15801561191957600080fd5b505af115801561192d573d6000803e3d6000fd5b5050505050505050565b604051633b11adbf60e21b81526002600482015233602482015273__$364aad554dc80380f414546becdd2c1584$__9063ec46b6fc9060440160206040518083038186803b15801561198857600080fd5b505af415801561199c573d6000803e3d6000fd5b505050506040513d601f19601f820116820180604052508101906119c09190615219565b6119dc5760405162461bcd60e51b81526004016104129061523b565b60405163cc99e11b60e01b8152600260048201526024810182905273__$364aad554dc80380f414546becdd2c1584$__9063cc99e11b9060440160006040518083038186803b158015611a2e57600080fd5b505af4158015611075573d6000803e3d6000fd5b604051630f07232560e01b8152600260048201523360248201526001600160a01b038216604482015273__$364aad554dc80380f414546becdd2c1584$__90630f0723259060640160006040518083038186803b158015611aa257600080fd5b505af4158015611ab6573d6000803e3d6000fd5b50506040516001600160a01b03841681527fe435cbeab64e4eae6497b9d8289704bd709d624a80704ef3ca9af777534bc6ec9250602001905061126a565b73__$364aad554dc80380f414546becdd2c1584$__63d2a15ba76002846109fb613830565b604051632a3be56b60e21b8152600260048201526024810183905264ffffffffff8216604482015260009073__$364aad554dc80380f414546becdd2c1584$__9063a8ef95ac9060640160206040518083038186803b158015611b7b57600080fd5b505af4158015611b8f573d6000803e3d6000fd5b505050506040513d601f19601f82011682018060405250810190611bb39190615219565b9392505050565b604051633b11adbf60e21b81526002600482015233602482015273__$364aad554dc80380f414546becdd2c1584$__9063ec46b6fc9060440160206040518083038186803b158015611c0b57600080fd5b505af4158015611c1f573d6000803e3d6000fd5b505050506040513d601f19601f82011682018060405250810190611c439190615219565b80611ce8575073__$364aad554dc80380f414546becdd2c1584$__63fe2710866002611c6d613830565b6040516001600160e01b031960e085901b168152600481019290925264ffffffffff16602482015260440160206040518083038186803b158015611cb057600080fd5b505af4158015611cc4573d6000803e3d6000fd5b505050506040513d601f19601f82011682018060405250810190611ce89190615219565b611d045760405162461bcd60e51b8152600401610412906154a6565b60405163b6e38a2960e01b81526002600482015264ffffffffff8216602482015273__$364aad554dc80380f414546becdd2c1584$__9063b6e38a299060440160006040518083038186803b158015611d5c57600080fd5b505af4158015611d70573d6000803e3d6000fd5b505060405164ffffffffff841681527f8b6f40f36b4ae8cc5f55e895036457c43da4ab1f80f58c46f5ff0d72a650033b9250602001905061126a565b611db582613e46565b611dbe81613ef5565b604051636cdd0edf60e11b81526002600482015264ffffffffff851660248201526001600160a01b038416604482015273__$364aad554dc80380f414546becdd2c1584$__9063d9ba1dbe9060640160006040518083038186803b158015611e2557600080fd5b505af4158015611e39573d6000803e3d6000fd5b505050507f4d18c0021addc919105cb1ed2c11ad241e859cc1d9e77d4ee1d9ca2cdc1f255b84848484604051611e729493929190615519565b60405180910390a150505050565b60405163987ad15360e01b81526002600482015260009073__$364aad554dc80380f414546becdd2c1584$__9063987ad15390602401610981565b6000611ec5613830565b604051637963595360e11b8152600260048201526024810184905264ffffffffff8216604482015290915073__$364aad554dc80380f414546becdd2c1584$__9063f2c6b2a690606401610a38565b604051633b11adbf60e21b81526002600482015233602482015273__$364aad554dc80380f414546becdd2c1584$__9063ec46b6fc9060440160206040518083038186803b158015611f6557600080fd5b505af4158015611f79573d6000803e3d6000fd5b505050506040513d601f19601f82011682018060405250810190611f9d9190615219565b611fb95760405162461bcd60e51b81526004016104129061523b565b60405163177bece160e21b81526004810182905260009073__$94c94c1f27eaba30857c7d0c37f90b5581$__90635defb3849060240160206040518083038186803b15801561200757600080fd5b505af415801561201b573d6000803e3d6000fd5b505050506040513d601f19601f8201168201806040525081019061203f9190615358565b60405163b7cd729360e01b815261ffff821660048201529091506000906001600160a01b0385169063b7cd72939060240160c06040518083038186803b15801561208857600080fd5b505afa15801561209c573d6000803e3d6000fd5b505050506040513d601f19601f820116820180604052508101906120c0919061542d565b604051600162023fc360e51b031981526004810185905290915060009061225b9073__$94c94c1f27eaba30857c7d0c37f90b5581$__9063ffb807a09060240160206040518083038186803b15801561211857600080fd5b505af415801561212c573d6000803e3d6000fd5b505050506040513d601f19601f820116820180604052508101906121509190615358565b6040516309d73b9560e11b81526004810187905273__$94c94c1f27eaba30857c7d0c37f90b5581$__906313ae772a9060240160206040518083038186803b15801561219b57600080fd5b505af41580156121af573d6000803e3d6000fd5b505050506040513d601f19601f820116820180604052508101906121d39190615324565b604051638b257a7160e01b81526004810188905273__$94c94c1f27eaba30857c7d0c37f90b5581$__90638b257a719060240160206040518083038186803b15801561221e57600080fd5b505af4158015612232573d6000803e3d6000fd5b505050506040513d601f19601f8201168201806040525081019061225691906153f0565b613fac565b9050600061226b4261a8c061555f565b905061227561388a565b602084015160408086015190516351ce4ecb60e01b8152600481018690526001600160401b0392831660248201529116604482015265ffffffffffff831660648201526001600160a01b0391909116906351ce4ecb90608401600060405180830381600087803b1580156122e857600080fd5b505af11580156122fc573d6000803e3d6000fd5b50505050505050505050565b604051633b11adbf60e21b81526002600482015233602482015273__$364aad554dc80380f414546becdd2c1584$__9063ec46b6fc9060440160206040518083038186803b15801561235957600080fd5b505af415801561236d573d6000803e3d6000fd5b505050506040513d601f19601f820116820180604052508101906123919190615219565b6123ad5760405162461bcd60e51b81526004016104129061523b565b604051630d914a1d60e41b81526004810183905273__$94c94c1f27eaba30857c7d0c37f90b5581$__9063d914a1d09060240160206040518083038186803b1580156123f857600080fd5b505af415801561240c573d6000803e3d6000fd5b505050506040513d601f19601f820116820180604052508101906124309190615324565b64ffffffffff168164ffffffffff16146124b25760405162461bcd60e51b815260206004820152603860248201527f424f414b65657065722e7472616e7366657254617267657453686172653a206360448201527f616c6c6572206e6f742073656c6c6572206f66204465616c00000000000000006064820152608401610412565b6124be83836001614219565b6124c88383613499565b505050565b604051633b11adbf60e21b81526002600482015233602482015273__$364aad554dc80380f414546becdd2c1584$__9063ec46b6fc9060440160206040518083038186803b15801561251e57600080fd5b505af4158015612532573d6000803e3d6000fd5b505050506040513d601f19601f820116820180604052508101906125569190615219565b6125725760405162461bcd60e51b81526004016104129061523b565b83838064ffffffffff16826001600160a01b031663893d20e86040518163ffffffff1660e01b815260040160206040518083038186803b1580156125b557600080fd5b505afa1580156125c9573d6000803e3d6000fd5b505050506040513d601f19601f820116820180604052508101906125ed9190615324565b64ffffffffff16146126345760405162461bcd60e51b815260206004820152601060248201526f4e4f54204f776e6572206f6620446f6360801b6044820152606401610412565b856001600160a01b031663f045a7696040518163ffffffff1660e01b8152600401600060405180830381600087803b15801561266f57600080fd5b505af1158015612683573d6000803e3d6000fd5b5050604051630f74e0dd60e31b8152600060048201526001600160a01b0389169250637ba706e89150602401600060405180830381600087803b1580156126c957600080fd5b505af11580156126dd573d6000803e3d6000fd5b505050506000866001600160a01b031663b931f29b6040518163ffffffff1660e01b815260040160206040518083038186803b15801561271c57600080fd5b505afa158015612730573d6000803e3d6000fd5b505050506040513d601f19601f8201168201806040525081019061275491906154fc565b9050806001600160a01b031663f045a7696040518163ffffffff1660e01b8152600401600060405180830381600087803b15801561279157600080fd5b505af11580156127a5573d6000803e3d6000fd5b5050604051630f74e0dd60e31b8152600060048201526001600160a01b0384169250637ba706e89150602401600060405180830381600087803b1580156127eb57600080fd5b505af11580156127ff573d6000803e3d6000fd5b5050505061280b613436565b60405163320f81b160e01b81526001600160a01b03898116600483015260248201889052604482018790528381166064830152919091169063320f81b1906084015b600060405180830381600087803b15801561286757600080fd5b505af115801561287b573d6000803e3d6000fd5b5050505050505050505050565b604051633b11adbf60e21b81526002600482015233602482015273__$364aad554dc80380f414546becdd2c1584$__9063ec46b6fc9060440160206040518083038186803b1580156128d957600080fd5b505af41580156128ed573d6000803e3d6000fd5b505050506040513d601f19601f820116820180604052508101906129119190615219565b61292d5760405162461bcd60e51b81526004016104129061523b565b6005612937613436565b60405163de154c2760e01b81526001600160a01b038881166004830152919091169063de154c279060240160c06040518083038186803b15801561297a57600080fd5b505afa15801561298e573d6000803e3d6000fd5b505050506040513d601f19601f820116820180604052508101906129b29190615297565b60a0015160ff16146129fb5760405162461bcd60e51b81526020600482015260126024820152711ddc9bdb99c81cdd185d19481bd9881093d160721b6044820152606401610412565b612a03613436565b604051630cb43e7b60e31b81526001600160a01b03878116600483015291909116906365a1f3d89060240160206040518083038186803b158015612a4657600080fd5b505afa158015612a5a573d6000803e3d6000fd5b505050506040513d601f19601f82011682018060405250810190612a7e91906154fc565b6001600160a01b0316639afa6aab6040518163ffffffff1660e01b815260040160a06040518083038186803b158015612ab657600080fd5b505afa158015612aca573d6000803e3d6000fd5b505050506040513d601f19601f82011682018060405250810190612aee9190615589565b6060015165ffffffffffff168265ffffffffffff161115612b515760405162461bcd60e51b815260206004820152601f60248201527f636c6f73696e6744617465204c41544552207468616e20646561646c696e65006044820152606401610412565b60405163177bece160e21b81526004810185905260009073__$94c94c1f27eaba30857c7d0c37f90b5581$__90635defb3849060240160206040518083038186803b158015612b9f57600080fd5b505af4158015612bb3573d6000803e3d6000fd5b505050506040513d601f19601f82011682018060405250810190612bd79190615358565b604051632805fd7360e21b81526004810187905290915060009073__$94c94c1f27eaba30857c7d0c37f90b5581$__9063a017f5cc9060240160206040518083038186803b158015612c2857600080fd5b505af4158015612c3c573d6000803e3d6000fd5b505050506040513d601f19601f82011682018060405250810190612c6091906153f0565b63ffffffff161580159150612d5e57604051630d914a1d60e41b81526004810187905273__$94c94c1f27eaba30857c7d0c37f90b5581$__9063d914a1d09060240160206040518083038186803b158015612cba57600080fd5b505af4158015612cce573d6000803e3d6000fd5b505050506040513d601f19601f82011682018060405250810190612cf29190615324565b64ffffffffff168364ffffffffff1614612d595760405162461bcd60e51b815260206004820152602260248201527f424f414b65657065722e70757368546f436f666665723a204e4f542073656c6c60448201526132b960f11b6064820152608401610412565b612e32565b612d66614a6d565b604051639766a0b360e01b815264ffffffffff851660048201526001600160a01b039190911690639766a0b39060240160206040518083038186803b158015612dae57600080fd5b505afa158015612dc2573d6000803e3d6000fd5b505050506040513d601f19601f82011682018060405250810190612de69190615219565b612e325760405162461bcd60e51b815260206004820181905260248201527f424f414b2e5054433a2063616c6c6572206973206e6f74206469726563746f726044820152606401610412565b612e3d878783614219565b60405163637aeee760e11b815261ffff831660048201526024810186905265ffffffffffff851660448201526001600160a01b0388169063c6f5ddce9060640161284d565b604051633c3e56c160e11b81526002600482015260009073__$364aad554dc80380f414546becdd2c1584$__9063787cad829060240160206040518083038186803b158015612ed057600080fd5b505af4158015612ee4573d6000803e3d6000fd5b505050506040513d601f19601f820116820180604052508101906109d191906154fc565b604051633b11adbf60e21b81526002600482015233602482015273__$364aad554dc80380f414546becdd2c1584$__9063ec46b6fc9060440160206040518083038186803b158015612f5957600080fd5b505af4158015612f6d573d6000803e3d6000fd5b505050506040513d601f19601f82011682018060405250810190612f919190615219565b612fad5760405162461bcd60e51b81526004016104129061523b565b612fb5614a8b565b60405163c5916f4b60e01b815264ffffffffff831660048201526001600160a01b03919091169063c5916f4b9060240160206040518083038186803b158015612ffd57600080fd5b505afa158015613011573d6000803e3d6000fd5b505050506040513d601f19601f820116820180604052508101906130359190615219565b6130755760405162461bcd60e51b815260206004820152601160248201527031b0b63632b9103737ba1026a2a6a122a960791b6044820152606401610412565b600080613080613436565b60405163891613e760e01b815260ff8616600482015264ffffffffff851660248201526001600160a01b03919091169063891613e7906044016040805180830381600087803b1580156130d257600080fd5b505af11580156130e6573d6000803e3d6000fd5b505050506040513d601f19601f8201168201806040525081019061310a9190615616565b60005460015460405163410f747560e11b81529395509193506001600160a01b038086169363821ee8ea9361314b9389933093918116921690600401615519565b600060405180830381600087803b15801561316557600080fd5b505af1158015613179573d6000803e3d6000fd5b505060005460015460405163410f747560e11b81526001600160a01b03808716955063821ee8ea94506131b89389933093918316921690600401615519565b600060405180830381600087803b1580156131d257600080fd5b505af11580156131e6573d6000803e3d6000fd5b50506040516317e8c50360e21b81526001600160a01b03848116600483015285169250635fa3140c91506024016118ff565b604051633b11adbf60e21b81526002600482015233602482015273__$364aad554dc80380f414546becdd2c1584$__9063ec46b6fc9060440160206040518083038186803b15801561326957600080fd5b505af415801561327d573d6000803e3d6000fd5b505050506040513d601f19601f820116820180604052508101906132a19190615219565b6132bd5760405162461bcd60e51b81526004016104129061523b565b600254600160f01b900460ff166001146133195760405162461bcd60e51b815260206004820181905260248201527f41432e6f6e6c7950656e64696e673a20446f632069732066696e616c697a65646044820152606401610412565b60405163cc99e11b60e01b815260026004820152684174746f726e65797360b81b602482015273__$364aad554dc80380f414546becdd2c1584$__9063cc99e11b9060440160006040518083038186803b15801561337657600080fd5b505af415801561338a573d6000803e3d6000fd5b5050604051632725ebef60e21b8152600260048201526000602482015273__$364aad554dc80380f414546becdd2c1584$__9250639c97afbc915060440160006040518083038186803b1580156133e057600080fd5b505af41580156133f4573d6000803e3d6000fd5b50506002805460ff60f01b1916600160f11b17905550506040517f35012b512309c322acf68632cd6cb702ff0e1d776fbe9394e38ffc13b434fe7590600090a1565b6001546000906001600160a01b031663e06eba8c825b6040516001600160e01b031960e084901b16815260ff909116600482015260240160206040518083038186803b15801561348557600080fd5b505afa158015612ee4573d6000803e3d6000fd5b60405163177bece160e21b81526004810182905260009073__$94c94c1f27eaba30857c7d0c37f90b5581$__90635defb3849060240160206040518083038186803b1580156134e757600080fd5b505af41580156134fb573d6000803e3d6000fd5b505050506040513d601f19601f8201168201806040525081019061351f9190615358565b604051632805fd7360e21b81526004810184905290915060009073__$94c94c1f27eaba30857c7d0c37f90b5581$__9063a017f5cc9060240160206040518083038186803b15801561357057600080fd5b505af4158015613584573d6000803e3d6000fd5b505050506040513d601f19601f820116820180604052508101906135a891906153f0565b60405163b7cd729360e01b815261ffff841660048201529091506000906001600160a01b0386169063b7cd72939060240160c06040518083038186803b1580156135f157600080fd5b505afa158015613605573d6000803e3d6000fd5b505050506040513d601f19601f82011682018060405250810190613629919061542d565b604051638b257a7160e01b81526004810186905290915060009073__$94c94c1f27eaba30857c7d0c37f90b5581$__90638b257a719060240160206040518083038186803b15801561367a57600080fd5b505af415801561368e573d6000803e3d6000fd5b505050506040513d601f19601f820116820180604052508101906136b291906153f0565b6040516309d73b9560e11b81526004810187905290915060009073__$94c94c1f27eaba30857c7d0c37f90b5581$__906313ae772a9060240160206040518083038186803b15801561370357600080fd5b505af4158015613717573d6000803e3d6000fd5b505050506040513d601f19601f8201168201806040525081019061373b9190615324565b905061374561388a565b60208401516040516361cd252b60e01b815263ffffffff871660048201526001600160401b0390911660248201526001600160a01b0391909116906361cd252b90604401600060405180830381600087803b1580156137a357600080fd5b505af11580156137b7573d6000803e3d6000fd5b505050506137c361388a565b6020840151604080860151905163608c472160e01b815263ffffffff80891660048301526001600160401b03938416602483015292909116604482015264ffffffffff8416606482015290841660848201526001600160a01b03919091169063608c47219060a40161284d565b60008054604051634de835e760e11b81523360048201526001600160a01b0390911690639bd06bce90602401602060405180830381600087803b15801561387657600080fd5b505af11580156109ad573d6000803e3d6000fd5b6001546000906001600160a01b031663e06eba8c600661344c565b6000826001600160a01b031663f729d5b36040518163ffffffff1660e01b815260040160006040518083038186803b1580156138e057600080fd5b505afa1580156138f4573d6000803e3d6000fd5b505050506040513d6000823e601f3d908101601f1916820160405261391c9190810190615645565b80519091505b8015613e40576000826139366001846156ea565b8151811061394657613946615701565b60200260200101519050818061395b90615717565b60405163177bece160e21b8152600481018490529093506000915073__$94c94c1f27eaba30857c7d0c37f90b5581$__90635defb3849060240160206040518083038186803b1580156139ad57600080fd5b505af41580156139c1573d6000803e3d6000fd5b505050506040513d601f19601f820116820180604052508101906139e59190615358565b604051630d914a1d60e41b81526004810184905290915064ffffffffff86169073__$94c94c1f27eaba30857c7d0c37f90b5581$__9063d914a1d09060240160206040518083038186803b158015613a3c57600080fd5b505af4158015613a50573d6000803e3d6000fd5b505050506040513d601f19601f82011682018060405250810190613a749190615324565b64ffffffffff161415613c8f57604051630191baa760e61b815261ffff821660048201526001600160a01b0387169063646ea9c090602401602060405180830381600087803b158015613ac657600080fd5b505af1158015613ada573d6000803e3d6000fd5b505050506040513d601f19601f82011682018060405250810190613afe9190615219565b15613c8a57613b0b61388a565b6001600160a01b0316635a31dd568373__$94c94c1f27eaba30857c7d0c37f90b5581$__63a017f5cc90916040518263ffffffff1660e01b8152600401613b5491815260200190565b60206040518083038186803b158015613b6c57600080fd5b505af4158015613b80573d6000803e3d6000fd5b505050506040513d601f19601f82011682018060405250810190613ba491906153f0565b60405163b7cd729360e01b815261ffff851660048201526001600160a01b038a169063b7cd72939060240160c06040518083038186803b158015613be757600080fd5b505afa158015613bfb573d6000803e3d6000fd5b505050506040513d601f19601f82011682018060405250810190613c1f919061542d565b60409081015190516001600160e01b031960e085901b16815263ffffffff9290921660048301526001600160401b03166024820152604401600060405180830381600087803b158015613c7157600080fd5b505af1158015613c85573d6000803e3d6000fd5b505050505b613e39565b6040516309d73b9560e11b81526004810183905264ffffffffff86169073__$94c94c1f27eaba30857c7d0c37f90b5581$__906313ae772a9060240160206040518083038186803b158015613ce357600080fd5b505af4158015613cf7573d6000803e3d6000fd5b505050506040513d601f19601f82011682018060405250810190613d1b9190615324565b64ffffffffff16148015613db557506040516364dc784760e11b81526004810183905260019073__$94c94c1f27eaba30857c7d0c37f90b5581$__9063c9b8f08e9060240160206040518083038186803b158015613d7857600080fd5b505af4158015613d8c573d6000803e3d6000fd5b505050506040513d601f19601f82011682018060405250810190613db0919061572e565b60ff16145b15613e3957604051630191baa760e61b815261ffff821660048201526001600160a01b0387169063646ea9c090602401602060405180830381600087803b158015613dff57600080fd5b505af1158015613e13573d6000803e3d6000fd5b505050506040513d601f19601f82011682018060405250810190613e379190615219565b505b5050613922565b50505050565b6000546001600160a01b031615613e975760405162461bcd60e51b815260206004820152601560248201527430b63932b0b23c9039b2ba103932b3a1b2b73a32b960591b6044820152606401610412565b6040516001600160a01b03821681527f318da6c7624c71cbc0afe346c9d8827f119d0ecefb241a7b0c87217a076a8e029060200160405180910390a1600080546001600160a01b0319166001600160a01b0392909216919091179055565b6001546001600160a01b031615613f4e5760405162461bcd60e51b815260206004820152601960248201527f616c7265616479207365742067656e6572616c4b6565706572000000000000006044820152606401610412565b6040516001600160a01b03821681527fe513d3e0f0d0a3877029dcc588748679a7a3450ec1ec7ed56d96bd012c3e61aa9060200160405180910390a1600180546001600160a01b0319166001600160a01b0392909216919091179055565b604080516020808252818301909252600091829190602082018180368337505060405163d8a3155f60e01b815291925073__$f4d24a073c4d632c09a66fb0a7ac9d4583$__9163d8a3155f915061400c9084906000908a9060040161574b565b60006040518083038186803b15801561402457600080fd5b505af4158015614038573d6000803e3d6000fd5b505050506040513d6000823e601f3d908101601f191682016040526140609190810190615778565b604051630e6c1adf60e21b815290915073__$f4d24a073c4d632c09a66fb0a7ac9d4583$__906339b06b7c9061409f908490600c9089906004016157e5565b60006040518083038186803b1580156140b757600080fd5b505af41580156140cb573d6000803e3d6000fd5b505050506040513d6000823e601f3d908101601f191682016040526140f39190810190615778565b60405163757398af60e11b815290915073__$f4d24a073c4d632c09a66fb0a7ac9d4583$__9063eae7315e906141329084906011908890600401615815565b60006040518083038186803b15801561414a57600080fd5b505af415801561415e573d6000803e3d6000fd5b505050506040513d6000823e601f3d908101601f191682016040526141869190810190615778565b60405163bfe370d960e01b815290915073__$f4d24a073c4d632c09a66fb0a7ac9d4583$__9063bfe370d9906141c0908490600401615844565b60206040518083038186803b1580156141d857600080fd5b505af41580156141ec573d6000803e3d6000fd5b505050506040513d601f19601f820116820180604052508101906142109190615857565b95945050505050565b6000836001600160a01b0316639b59d9806040518163ffffffff1660e01b815260040160206040518083038186803b15801561425457600080fd5b505afa158015614268573d6000803e3d6000fd5b505050506040513d601f19601f8201168201806040525081019061428c919061572e565b60ff169050600061429b614aa6565b6001600160a01b03166348462037836040518263ffffffff1660e01b81526004016142c891815260200190565b60206040518083038186803b1580156142e057600080fd5b505afa1580156142f4573d6000803e3d6000fd5b505050506040513d601f19601f820116820180604052508101906143189190615857565b604051639289cdbf60e01b81526004810182905290915073__$94c94c1f27eaba30857c7d0c37f90b5581$__90639289cdbf9060240160206040518083038186803b15801561436657600080fd5b505af415801561437a573d6000803e3d6000fd5b505050506040513d601f19601f8201168201806040525081019061439e9190615358565b61ffff161515806144345750604051634e09ccd960e11b81526004810182905273__$94c94c1f27eaba30857c7d0c37f90b5581$__90639c1399b29060240160206040518083038186803b1580156143f557600080fd5b505af4158015614409573d6000803e3d6000fd5b505050506040513d601f19601f8201168201806040525081019061442d9190615358565b61ffff1615155b1561494d57604051624494ab60e71b81526004810182905273__$94c94c1f27eaba30857c7d0c37f90b5581$__9063224a55809060240160206040518083038186803b15801561448357600080fd5b505af4158015614497573d6000803e3d6000fd5b505050506040513d601f19601f820116820180604052508101906144bb919061572e565b60ff166001141561459a576144ce614a6d565b604051634940318360e01b81526001600160a01b038781166004830152919091169063494031839060240160206040518083038186803b15801561451157600080fd5b505afa158015614525573d6000803e3d6000fd5b505050506040513d601f19601f820116820180604052508101906145499190615219565b6145955760405162461bcd60e51b815260206004820152601f60248201527f424f414b2e7074633a2020474d204d6f74696f6e204e4f5420706173736564006044820152606401610412565b61494d565b604051624494ab60e71b81526004810182905273__$94c94c1f27eaba30857c7d0c37f90b5581$__9063224a55809060240160206040518083038186803b1580156145e457600080fd5b505af41580156145f8573d6000803e3d6000fd5b505050506040513d601f19601f8201168201806040525081019061461c919061572e565b60ff16600214156147015761462f614a6d565b604051634940318360e01b81526001600160a01b038781166004830152919091169063494031839060240160206040518083038186803b15801561467257600080fd5b505afa158015614686573d6000803e3d6000fd5b505050506040513d601f19601f820116820180604052508101906146aa9190615219565b6145955760405162461bcd60e51b815260206004820152602260248201527f424f414b2e7074633a2020426f617264204d6f74696f6e204e4f542070617373604482015261195960f21b6064820152608401610412565b604051624494ab60e71b81526004810182905273__$94c94c1f27eaba30857c7d0c37f90b5581$__9063224a55809060240160206040518083038186803b15801561474b57600080fd5b505af415801561475f573d6000803e3d6000fd5b505050506040513d601f19601f82011682018060405250810190614783919061572e565b60ff16600314156148f657614796614a6d565b604051634940318360e01b81526001600160a01b038781166004830152919091169063494031839060240160206040518083038186803b1580156147d957600080fd5b505afa1580156147ed573d6000803e3d6000fd5b505050506040513d601f19601f820116820180604052508101906148119190615219565b801561489b5750614820614a6d565b604051634940318360e01b81526001600160a01b038781166004830152919091169063494031839060240160206040518083038186803b15801561486357600080fd5b505afa158015614877573d6000803e3d6000fd5b505050506040513d601f19601f8201168201806040525081019061489b9190615219565b6145955760405162461bcd60e51b815260206004820152602660248201527f424f414b2e7074633a20426f61726420616e6420474d206e6f7420424f5448206044820152651c185cdcd95960d21b6064820152608401610412565b60405162461bcd60e51b815260206004820152602660248201527f424f414b2e7074633a2077726f6e67206465636973696f6e20706f7765722073604482015265657474696e6760d01b6064820152608401610412565b82156149e3576149de60058054806020026020016040519081016040528092919081815260200182805480156149d257602002820191906000526020600020906000905b82829054906101000a900460ff1660058111156149b0576149b0615281565b8152602060019283018181049485019490930390920291018084116149915790505b50505050508686614b5b565b611075565b61107560048054806020026020016040519081016040528092919081815260200182805480156149d257602002820191906000526020600020906000905b82829054906101000a900460ff166005811115614a4057614a40615281565b815260206001928301818104948501949093039092029101808411614a2157905050505050508686614b5b565b600180546000916001600160a01b039091169063e06eba8c9061344c565b6001546000906001600160a01b031663e06eba8c600761344c565b60015460405163381baea360e21b8152600360048201526000916001600160a01b03169063e06eba8c9060240160206040518083038186803b158015614aeb57600080fd5b505afa158015614aff573d6000803e3d6000fd5b505050506040513d601f19601f82011682018060405250810190614b2391906154fc565b6001600160a01b0316632f5f3b3c6040518163ffffffff1660e01b815260040160206040518083038186803b15801561348557600080fd5b82515b8015613e4057614b6c614aa6565b6001600160a01b0316637176544985614b866001856156ea565b81518110614b9657614b96615701565b60200260200101516005811115614baf57614baf615281565b6040516001600160e01b031960e084901b16815260ff909116600482015260240160206040518083038186803b158015614be857600080fd5b505afa158015614bfc573d6000803e3d6000fd5b505050506040513d601f19601f82011682018060405250810190614c209190615219565b15614d5657614c2d614aa6565b6001600160a01b0316632f88bb5a85614c476001856156ea565b81518110614c5757614c57615701565b60200260200101516005811115614c7057614c70615281565b6040516001600160e01b031960e084901b16815260ff90911660048201526001600160a01b03861660248201526044810185905260640160206040518083038186803b158015614cbf57600080fd5b505afa158015614cd3573d6000803e3d6000fd5b505050506040513d601f19601f82011682018060405250810190614cf79190615219565b614d565760405162461bcd60e51b815260206004820152602a60248201527f424f414b65657065722e7074633a20534841206f626c69676174696f6e206e6f6044820152691d08195e195b5c1d195960b21b6064820152608401610412565b80614d6081615717565b915050614b5e565b6001600160a01b0381168114614d7d57600080fd5b50565b634e487b7160e01b600052604160045260246000fd5b60405160c081016001600160401b0381118282101715614db857614db8614d80565b60405290565b604051601f8201601f191681016001600160401b0381118282101715614de657614de6614d80565b604052919050565b60006001600160401b03821115614e0757614e07614d80565b50601f01601f191660200190565b600082601f830112614e2657600080fd5b8135614e39614e3482614dee565b614dbe565b818152846020838601011115614e4e57600080fd5b816020850160208301376000918101602001919091529392505050565b64ffffffffff81168114614d7d57600080fd5b60008060008060808587031215614e9457600080fd5b8435614e9f81614d68565b93506020850135925060408501356001600160401b03811115614ec157600080fd5b614ecd87828801614e15565b9250506060850135614ede81614e6b565b939692955090935050565b60ff81168114614d7d57600080fd5b60008060408385031215614f0b57600080fd5b8235614f1681614d68565b91506020830135614f2681614ee9565b809150509250929050565b60008060408385031215614f4457600080fd5b823591506020830135614f2681614e6b565b60008060008060808587031215614f6c57600080fd5b8435614f7781614d68565b9350602085013592506040850135614f8e81614e6b565b915060608501356001600160401b03811115614fa957600080fd5b614fb587828801614e15565b91505092959194509250565b600060208284031215614fd357600080fd5b8135611bb381614e6b565b600080600060608486031215614ff357600080fd5b8335614ffe81614d68565b9250602084013561500e81614e6b565b929592945050506040919091013590565b6000806040838503121561503257600080fd5b823561503d81614d68565b91506020830135614f2681614e6b565b60006020828403121561505f57600080fd5b5035919050565b60006020828403121561507857600080fd5b8135611bb381614d68565b6000806000806080858703121561509957600080fd5b84356150a481614e6b565b935060208501356150b481614d68565b925060408501356150c481614d68565b91506060850135614ede81614d68565b600080604083850312156150e757600080fd5b82356150f281614d68565b946020939093013593505050565b60008060006060848603121561511557600080fd5b833561512081614d68565b925060208401359150604084013561513781614e6b565b809150509250925092565b6000806000806080858703121561515857600080fd5b843561516381614d68565b9350602085013561517381614e6b565b93969395505050506040820135916060013590565b65ffffffffffff81168114614d7d57600080fd5b600080600080600060a086880312156151b457600080fd5b85356151bf81614d68565b9450602086013593506040860135925060608601356151dd81615188565b915060808601356151ed81614e6b565b809150509295509295909350565b6000806040838503121561520e57600080fd5b823561503d81614ee9565b60006020828403121561522b57600080fd5b81518015158114611bb357600080fd5b60208082526026908201527f41432e6f6e6c794469726563744b65657065723a206e6f74206469726563742060408201526535b2b2b832b960d11b606082015260800190565b634e487b7160e01b600052602160045260246000fd5b600060c082840312156152a957600080fd5b6152b1614d96565b82516152bc81614ee9565b815260208301516152cc81614e6b565b602082015260408301516152df81615188565b604082015260608301516152f281615188565b6060820152608083015161530581615188565b608082015260a083015161531881614ee9565b60a08201529392505050565b60006020828403121561533657600080fd5b8151611bb381614e6b565b805161ffff8116811461535357600080fd5b919050565b60006020828403121561536a57600080fd5b611bb382615341565b60005b8381101561538e578181015183820152602001615376565b83811115613e405750506000910152565b600081518084526153b7816020860160208601615373565b601f01601f19169290920160200192915050565b61ffff831681526040602082015260006153e8604083018461539f565b949350505050565b60006020828403121561540257600080fd5b815163ffffffff81168114611bb357600080fd5b80516001600160401b038116811461535357600080fd5b600060c0828403121561543f57600080fd5b615447614d96565b8251815261545760208401615416565b602082015261546860408401615416565b6040820152606083015161547b81615188565b6060820152608083015161548e81614ee9565b608082015260a0928301519281019290925250919050565b60208082526036908201527f41432e6f776e65724f72446972656374426f6f6b65657065723a206e6569746860408201527532b91037bbb732b9103737b9103137b7b5b2b2b832b960511b606082015260800190565b60006020828403121561550e57600080fd5b8151611bb381614d68565b64ffffffffff9490941684526001600160a01b039283166020850152908216604084015216606082015260800190565b634e487b7160e01b600052601160045260246000fd5b600065ffffffffffff80831681851680830382111561558057615580615549565b01949350505050565b600060a0828403121561559b57600080fd5b60405160a081018181106001600160401b03821117156155bd576155bd614d80565b6040526155c983615341565b815260208301516155d981614e6b565b602082015260408301516155ec81615188565b60408201526155fd60608401615416565b6060820152608083015160808201528091505092915050565b6000806040838503121561562957600080fd5b825161563481614d68565b6020840151909250614f2681614d68565b6000602080838503121561565857600080fd5b82516001600160401b038082111561566f57600080fd5b818501915085601f83011261568357600080fd5b81518181111561569557615695614d80565b8060051b91506156a6848301614dbe565b81815291830184019184810190888411156156c057600080fd5b938501935b838510156156de578451825293850193908501906156c5565b98975050505050505050565b6000828210156156fc576156fc615549565b500390565b634e487b7160e01b600052603260045260246000fd5b60008161572657615726615549565b506000190190565b60006020828403121561574057600080fd5b8151611bb381614ee9565b60608152600061575e606083018661539f565b905083602083015261ffff83166040830152949350505050565b60006020828403121561578a57600080fd5b81516001600160401b038111156157a057600080fd5b8201601f810184136157b157600080fd5b80516157bf614e3482614dee565b8181528560208385010111156157d457600080fd5b614210826020830160208601615373565b6060815260006157f8606083018661539f565b905083602083015264ffffffffff83166040830152949350505050565b606081526000615828606083018661539f565b905083602083015263ffffffff83166040830152949350505050565b602081526000611bb3602083018461539f565b60006020828403121561586957600080fd5b505191905056fea2646970667358221220619d29de44f41e262d8dd74c1fb08e21715425a82ad410176f74069aaf17e6d064736f6c63430008080033",
    "sourcePath": "/Users/kaptain/github.com/hardhat/comboox/contracts/keepers/BOAKeeper.sol",
    "compiler": {
        "name": "solc",
        "version": "0.8.8+commit.dddeac2f"
    },
    "functionHashes": {
        "abandonRole(bytes32)": "3da9a600",
        "circulateIA(address,uint40,bytes32,bytes32)": "cb132cc7",
        "closeDeal(address,bytes32,string,uint40)": "0a219497",
        "createIA(uint8,uint40)": "eeec1419",
        "finalized()": "b3f05b97",
        "getBookeeper()": "ed211023",
        "getGeneralCounsel()": "103f6edd",
        "getOwner()": "893d20e8",
        "grantRole(bytes32,uint40)": "74099815",
        "hasRole(bytes32,uint40)": "79b2ec12",
        "init(uint40,address,address,address)": "821ee8ea",
        "issueNewShare(address,bytes32)": "b0e37185",
        "lockContents()": "f045a769",
        "pushToCoffer(address,bytes32,bytes32,uint48,uint40)": "e495ed1c",
        "removeIA(address,uint40)": "360c4b52",
        "renounceRole(bytes32)": "8bb9c5bf",
        "revokeDeal(address,bytes32,uint40,string)": "235e6935",
        "revokeRole(bytes32,uint40)": "17c51fec",
        "setDirectKeeper(address)": "6be8496f",
        "setGeneralCounsel(uint40)": "3178a9a9",
        "setOwner(uint40)": "7ba706e8",
        "setRoleAdmin(bytes32,uint40)": "16dc517e",
        "setTempOfIA(address,uint8)": "0c4919b7",
        "signIA(address,uint40,bytes32)": "33f36a2b",
        "transferTargetShare(address,bytes32,uint40)": "bae6f623"
    },
    "gasEstimates": {
        "creation": {
            "codeDepositCost": "4538800",
            "executionCost": "infinite",
            "totalCost": "infinite"
        },
        "external": {
            "abandonRole(bytes32)": "infinite",
            "circulateIA(address,uint40,bytes32,bytes32)": "infinite",
            "closeDeal(address,bytes32,string,uint40)": "infinite",
            "createIA(uint8,uint40)": "infinite",
            "finalized()": "2372",
            "getBookeeper()": "infinite",
            "getGeneralCounsel()": "infinite",
            "getOwner()": "infinite",
            "grantRole(bytes32,uint40)": "infinite",
            "hasRole(bytes32,uint40)": "infinite",
            "init(uint40,address,address,address)": "infinite",
            "issueNewShare(address,bytes32)": "infinite",
            "lockContents()": "infinite",
            "pushToCoffer(address,bytes32,bytes32,uint48,uint40)": "infinite",
            "removeIA(address,uint40)": "infinite",
            "renounceRole(bytes32)": "infinite",
            "revokeDeal(address,bytes32,uint40,string)": "infinite",
            "revokeRole(bytes32,uint40)": "infinite",
            "setDirectKeeper(address)": "infinite",
            "setGeneralCounsel(uint40)": "infinite",
            "setOwner(uint40)": "infinite",
            "setRoleAdmin(bytes32,uint40)": "infinite",
            "setTempOfIA(address,uint8)": "infinite",
            "signIA(address,uint40,bytes32)": "infinite",
            "transferTargetShare(address,bytes32,uint40)": "infinite"
        },
        "internal": {
            "_checkSHA(enum IShareholdersAgreement.TermTitle[] memory,address,bytes32)": "infinite",
            "_createShareNumber(uint16,uint40,uint32)": "infinite",
            "_lockDealsOfParty(address,uint40)": "infinite",
            "_shareTransfer(address,bytes32)": "infinite",
            "_vrAndSHACheck(address,bytes32,bool)": "infinite"
        }
    }
}