{
    "contractName": "BOAKeeper",
    "abi": [
        {
            "anonymous": false,
            "inputs": [
                {
                    "indexed": false,
                    "internalType": "uint256",
                    "name": "owner",
                    "type": "uint256"
                },
                {
                    "indexed": false,
                    "internalType": "address",
                    "name": "directKeeper",
                    "type": "address"
                },
                {
                    "indexed": false,
                    "internalType": "address",
                    "name": "regCenter",
                    "type": "address"
                },
                {
                    "indexed": false,
                    "internalType": "address",
                    "name": "generalKeeper",
                    "type": "address"
                }
            ],
            "name": "Init",
            "type": "event"
        },
        {
            "anonymous": false,
            "inputs": [],
            "name": "LockContents",
            "type": "event"
        },
        {
            "anonymous": false,
            "inputs": [
                {
                    "indexed": false,
                    "internalType": "address",
                    "name": "keeper",
                    "type": "address"
                }
            ],
            "name": "SetDirectKeeper",
            "type": "event"
        },
        {
            "anonymous": false,
            "inputs": [
                {
                    "indexed": false,
                    "internalType": "uint256",
                    "name": "acct",
                    "type": "uint256"
                }
            ],
            "name": "SetGeneralCounsel",
            "type": "event"
        },
        {
            "anonymous": false,
            "inputs": [
                {
                    "indexed": false,
                    "internalType": "address",
                    "name": "gk",
                    "type": "address"
                }
            ],
            "name": "SetGeneralKeeper",
            "type": "event"
        },
        {
            "anonymous": false,
            "inputs": [
                {
                    "indexed": false,
                    "internalType": "uint256",
                    "name": "acct",
                    "type": "uint256"
                }
            ],
            "name": "SetOwner",
            "type": "event"
        },
        {
            "anonymous": false,
            "inputs": [
                {
                    "indexed": false,
                    "internalType": "address",
                    "name": "rc",
                    "type": "address"
                }
            ],
            "name": "SetRegCenter",
            "type": "event"
        },
        {
            "inputs": [
                {
                    "internalType": "bytes32",
                    "name": "role",
                    "type": "bytes32"
                }
            ],
            "name": "abandonRole",
            "outputs": [],
            "stateMutability": "nonpayable",
            "type": "function"
        },
        {
            "inputs": [
                {
                    "internalType": "address",
                    "name": "ia",
                    "type": "address"
                },
                {
                    "internalType": "uint256",
                    "name": "caller",
                    "type": "uint256"
                },
                {
                    "internalType": "bytes32",
                    "name": "docUrl",
                    "type": "bytes32"
                },
                {
                    "internalType": "bytes32",
                    "name": "docHash",
                    "type": "bytes32"
                }
            ],
            "name": "circulateIA",
            "outputs": [],
            "stateMutability": "nonpayable",
            "type": "function"
        },
        {
            "inputs": [
                {
                    "internalType": "address",
                    "name": "ia",
                    "type": "address"
                },
                {
                    "internalType": "uint256",
                    "name": "seqOfDeal",
                    "type": "uint256"
                },
                {
                    "internalType": "string",
                    "name": "hashKey",
                    "type": "string"
                },
                {
                    "internalType": "uint256",
                    "name": "caller",
                    "type": "uint256"
                }
            ],
            "name": "closeDeal",
            "outputs": [],
            "stateMutability": "nonpayable",
            "type": "function"
        },
        {
            "inputs": [
                {
                    "internalType": "uint256",
                    "name": "typOfIA",
                    "type": "uint256"
                },
                {
                    "internalType": "uint256",
                    "name": "caller",
                    "type": "uint256"
                }
            ],
            "name": "createIA",
            "outputs": [],
            "stateMutability": "nonpayable",
            "type": "function"
        },
        {
            "inputs": [],
            "name": "finalized",
            "outputs": [
                {
                    "internalType": "bool",
                    "name": "",
                    "type": "bool"
                }
            ],
            "stateMutability": "view",
            "type": "function"
        },
        {
            "inputs": [],
            "name": "getBookeeper",
            "outputs": [
                {
                    "internalType": "address",
                    "name": "",
                    "type": "address"
                }
            ],
            "stateMutability": "view",
            "type": "function"
        },
        {
            "inputs": [],
            "name": "getGeneralCounsel",
            "outputs": [
                {
                    "internalType": "uint40",
                    "name": "",
                    "type": "uint40"
                }
            ],
            "stateMutability": "view",
            "type": "function"
        },
        {
            "inputs": [],
            "name": "getOwner",
            "outputs": [
                {
                    "internalType": "uint40",
                    "name": "",
                    "type": "uint40"
                }
            ],
            "stateMutability": "view",
            "type": "function"
        },
        {
            "inputs": [
                {
                    "internalType": "bytes32",
                    "name": "role",
                    "type": "bytes32"
                },
                {
                    "internalType": "uint256",
                    "name": "acct",
                    "type": "uint256"
                }
            ],
            "name": "grantRole",
            "outputs": [],
            "stateMutability": "nonpayable",
            "type": "function"
        },
        {
            "inputs": [
                {
                    "internalType": "bytes32",
                    "name": "role",
                    "type": "bytes32"
                },
                {
                    "internalType": "uint256",
                    "name": "acct",
                    "type": "uint256"
                }
            ],
            "name": "hasRole",
            "outputs": [
                {
                    "internalType": "bool",
                    "name": "",
                    "type": "bool"
                }
            ],
            "stateMutability": "view",
            "type": "function"
        },
        {
            "inputs": [
                {
                    "internalType": "uint256",
                    "name": "owner",
                    "type": "uint256"
                },
                {
                    "internalType": "address",
                    "name": "directKeeper",
                    "type": "address"
                },
                {
                    "internalType": "address",
                    "name": "regCenter",
                    "type": "address"
                },
                {
                    "internalType": "address",
                    "name": "generalKeeper",
                    "type": "address"
                }
            ],
            "name": "init",
            "outputs": [],
            "stateMutability": "nonpayable",
            "type": "function"
        },
        {
            "inputs": [
                {
                    "internalType": "address",
                    "name": "ia",
                    "type": "address"
                },
                {
                    "internalType": "uint256",
                    "name": "seqOfDeal",
                    "type": "uint256"
                }
            ],
            "name": "issueNewShare",
            "outputs": [],
            "stateMutability": "nonpayable",
            "type": "function"
        },
        {
            "inputs": [],
            "name": "lockContents",
            "outputs": [],
            "stateMutability": "nonpayable",
            "type": "function"
        },
        {
            "inputs": [
                {
                    "internalType": "address",
                    "name": "ia",
                    "type": "address"
                },
                {
                    "internalType": "uint256",
                    "name": "seqOfDeal",
                    "type": "uint256"
                },
                {
                    "internalType": "bytes32",
                    "name": "hashLock",
                    "type": "bytes32"
                },
                {
                    "internalType": "uint48",
                    "name": "closingDate",
                    "type": "uint48"
                },
                {
                    "internalType": "uint256",
                    "name": "caller",
                    "type": "uint256"
                }
            ],
            "name": "pushToCoffer",
            "outputs": [],
            "stateMutability": "nonpayable",
            "type": "function"
        },
        {
            "inputs": [
                {
                    "internalType": "address",
                    "name": "ia",
                    "type": "address"
                },
                {
                    "internalType": "uint256",
                    "name": "caller",
                    "type": "uint256"
                }
            ],
            "name": "removeIA",
            "outputs": [],
            "stateMutability": "nonpayable",
            "type": "function"
        },
        {
            "inputs": [
                {
                    "internalType": "bytes32",
                    "name": "role",
                    "type": "bytes32"
                }
            ],
            "name": "renounceRole",
            "outputs": [],
            "stateMutability": "nonpayable",
            "type": "function"
        },
        {
            "inputs": [
                {
                    "internalType": "address",
                    "name": "ia",
                    "type": "address"
                },
                {
                    "internalType": "uint256",
                    "name": "seqOfDeal",
                    "type": "uint256"
                },
                {
                    "internalType": "uint256",
                    "name": "caller",
                    "type": "uint256"
                },
                {
                    "internalType": "string",
                    "name": "hashKey",
                    "type": "string"
                }
            ],
            "name": "revokeDeal",
            "outputs": [],
            "stateMutability": "nonpayable",
            "type": "function"
        },
        {
            "inputs": [
                {
                    "internalType": "bytes32",
                    "name": "role",
                    "type": "bytes32"
                },
                {
                    "internalType": "uint256",
                    "name": "acct",
                    "type": "uint256"
                }
            ],
            "name": "revokeRole",
            "outputs": [],
            "stateMutability": "nonpayable",
            "type": "function"
        },
        {
            "inputs": [
                {
                    "internalType": "address",
                    "name": "keeper",
                    "type": "address"
                }
            ],
            "name": "setDirectKeeper",
            "outputs": [],
            "stateMutability": "nonpayable",
            "type": "function"
        },
        {
            "inputs": [
                {
                    "internalType": "uint256",
                    "name": "acct",
                    "type": "uint256"
                }
            ],
            "name": "setGeneralCounsel",
            "outputs": [],
            "stateMutability": "nonpayable",
            "type": "function"
        },
        {
            "inputs": [
                {
                    "internalType": "uint256",
                    "name": "acct",
                    "type": "uint256"
                }
            ],
            "name": "setOwner",
            "outputs": [],
            "stateMutability": "nonpayable",
            "type": "function"
        },
        {
            "inputs": [
                {
                    "internalType": "bytes32",
                    "name": "role",
                    "type": "bytes32"
                },
                {
                    "internalType": "uint256",
                    "name": "acct",
                    "type": "uint256"
                }
            ],
            "name": "setRoleAdmin",
            "outputs": [],
            "stateMutability": "nonpayable",
            "type": "function"
        },
        {
            "inputs": [
                {
                    "internalType": "address",
                    "name": "temp",
                    "type": "address"
                },
                {
                    "internalType": "uint256",
                    "name": "typeOfDoc",
                    "type": "uint256"
                }
            ],
            "name": "setTempOfIA",
            "outputs": [],
            "stateMutability": "nonpayable",
            "type": "function"
        },
        {
            "inputs": [
                {
                    "internalType": "address",
                    "name": "ia",
                    "type": "address"
                },
                {
                    "internalType": "uint256",
                    "name": "caller",
                    "type": "uint256"
                },
                {
                    "internalType": "bytes32",
                    "name": "sigHash",
                    "type": "bytes32"
                }
            ],
            "name": "signIA",
            "outputs": [],
            "stateMutability": "nonpayable",
            "type": "function"
        },
        {
            "inputs": [
                {
                    "internalType": "address",
                    "name": "ia",
                    "type": "address"
                },
                {
                    "internalType": "uint256",
                    "name": "seqOfDeal",
                    "type": "uint256"
                },
                {
                    "internalType": "uint256",
                    "name": "caller",
                    "type": "uint256"
                }
            ],
            "name": "terminateDeal",
            "outputs": [],
            "stateMutability": "nonpayable",
            "type": "function"
        },
        {
            "inputs": [
                {
                    "internalType": "address",
                    "name": "ia",
                    "type": "address"
                },
                {
                    "internalType": "uint256",
                    "name": "seqOfDeal",
                    "type": "uint256"
                },
                {
                    "internalType": "uint256",
                    "name": "caller",
                    "type": "uint256"
                }
            ],
            "name": "transferTargetShare",
            "outputs": [],
            "stateMutability": "nonpayable",
            "type": "function"
        }
    ],
    "bytecode": "60a0604052608080600290526200001b9060049060016200005f565b506040805160608101909152806001815260200160048152602001600390526200004a9060059060036200011d565b503480156200005857600080fd5b50620001c5565b82805482825590600052602060002090601f016020900481019282156200010b5791602002820160005b83821115620000da57835183826101000a81548160ff02191690836005811115620000b857620000b8620001af565b0217905550926020019260010160208160000104928301926001030262000089565b8015620001095782816101000a81549060ff0219169055600101602081600001049283019260010302620000da565b505b506200011992915062000198565b5090565b82805482825590600052602060002090601f016020900481019282156200010b5791602002820160005b83821115620000da57835183826101000a81548160ff02191690836005811115620001765762000176620001af565b0217905550926020019260010160208160000104928301926001030262000147565b5b8082111562000119576000815560010162000199565b634e487b7160e01b600052602160045260246000fd5b614b7f80620001d56000396000f3fe608060405234801561001057600080fd5b506004361061018e5760003560e01c806384e43c64116100de578063d270be0e11610097578063e05725a811610071578063e05725a81461034d578063ed21102314610360578063f045a76914610380578063fbc6362f1461038857600080fd5b8063d270be0e14610314578063dc890da914610327578063deeb633f1461033a57600080fd5b806384e43c64146102ac578063893d20e8146102bf5780638bb9c5bf146102c757806390443d84146102da578063b3f05b97146102ed578063b951cf1d1461030157600080fd5b80635171ebd41161014b578063755514d511610125578063755514d5146102505780637a6ae865146102635780637e063c5a146102765780638041494e1461029957600080fd5b80635171ebd41461021757806359e25c5d1461022a5780636be8496f1461023d57600080fd5b8063103f6edd1461019357806319d61ad9146101b65780631b6ea9f9146101cb5780633da9a600146101de578063452558b0146101f15780634a14beb114610204575b600080fd5b61019b61039b565b60405164ffffffffff90911681526020015b60405180910390f35b6101c96101c4366004613f2a565b610427565b005b6101c96101d9366004613f2a565b6104bb565b6101c96101ec366004613f4c565b6104e0565b6101c96101ff366004613f7d565b6105fb565b6101c9610212366004613f4c565b610829565b6101c9610225366004613f2a565b610a19565b6101c9610238366004613fa9565b610a3e565b6101c961024b366004613fe4565b610cc6565b6101c961025e366004614001565b610d78565b6101c9610271366004614001565b610f11565b610289610284366004613f2a565b6112a6565b60405190151581526020016101ad565b6101c96102a7366004613f4c565b611341565b6101c96102ba366004613f7d565b611526565b61019b611633565b6101c96102d5366004613f4c565b61166e565b6101c96102e8366004613f7d565b6116c7565b60028054600160f01b900460ff1614610289565b6101c961030f366004614001565b61185f565b6101c961032236600461417b565b611cc9565b6101c96103353660046141dd565b6120fb565b6101c9610348366004614230565b6121de565b6101c961035b366004613f2a565b612589565b6103686127ff565b6040516001600160a01b0390911681526020016101ad565b6101c9612885565b6101c96103963660046142a4565b612aa3565b60405163e8c0cc1d60e01b81526002600482015260009073__$364aad554dc80380f414546becdd2c1584$__9063e8c0cc1d906024015b60206040518083038186803b1580156103ea57600080fd5b505af41580156103fe573d6000803e3d6000fd5b505050506040513d601f19601f820116820180604052508101906104229190614310565b905090565b73__$364aad554dc80380f414546becdd2c1584$__6382daafaa60028461044c612f26565b6040516001600160e01b031960e086901b1681526004810193909352602483019190915264ffffffffff166044820152606481018490526084015b60006040518083038186803b15801561049f57600080fd5b505af41580156104b3573d6000803e3d6000fd5b505050505050565b73__$364aad554dc80380f414546becdd2c1584$__636320d75e60028461044c612f26565b604051633b11adbf60e21b81526002600482015233602482015273__$364aad554dc80380f414546becdd2c1584$__9063ec46b6fc9060440160206040518083038186803b15801561053157600080fd5b505af4158015610545573d6000803e3d6000fd5b505050506040513d601f19601f82011682018060405250810190610569919061433b565b61058e5760405162461bcd60e51b815260040161058590614356565b60405180910390fd5b60405163cc99e11b60e01b8152600260048201526024810182905273__$364aad554dc80380f414546becdd2c1584$__9063cc99e11b9060440160006040518083038186803b1580156105e057600080fd5b505af41580156105f4573d6000803e3d6000fd5b5050505050565b604051633b11adbf60e21b81526002600482015233602482015273__$364aad554dc80380f414546becdd2c1584$__9063ec46b6fc9060440160206040518083038186803b15801561064c57600080fd5b505af4158015610660573d6000803e3d6000fd5b505050506040513d601f19601f82011682018060405250810190610684919061433b565b6106a05760405162461bcd60e51b815260040161058590614356565b6040516320bf56eb60e21b8152600481018290526000906001600160a01b038416906382fd5bac906024016101e06040518083038186803b1580156106e457600080fd5b505afa1580156106f8573d6000803e3d6000fd5b505050506040513d601f19601f8201168201806040525081019061071c91906144be565b90506000604051806101000160405280600063ffffffff168152602001600063ffffffff16815260200183600001516060015161ffff1681526020014265ffffffffffff1681526020014261a8c06107749190614579565b65ffffffffffff1681526020848101515164ffffffffff1690820152835160c0015163ffffffff166040820152600060609091015290506107b3612f80565b602083015160408082015160609092015190516343296b8960e11b81526001600160a01b039390931692638652d712926107f19286926004016145a3565b600060405180830381600087803b15801561080b57600080fd5b505af115801561081f573d6000803e3d6000fd5b5050505050505050565b604051633b11adbf60e21b81526002600482015233602482015273__$364aad554dc80380f414546becdd2c1584$__9063ec46b6fc9060440160206040518083038186803b15801561087a57600080fd5b505af415801561088e573d6000803e3d6000fd5b505050506040513d601f19601f820116820180604052508101906108b2919061433b565b80610957575073__$364aad554dc80380f414546becdd2c1584$__63fe27108660026108dc612f26565b6040516001600160e01b031960e085901b168152600481019290925264ffffffffff16602482015260440160206040518083038186803b15801561091f57600080fd5b505af4158015610933573d6000803e3d6000fd5b505050506040513d601f19601f82011682018060405250810190610957919061433b565b6109735760405162461bcd60e51b815260040161058590614674565b604051632725ebef60e21b8152600260048201526024810182905273__$364aad554dc80380f414546becdd2c1584$__90639c97afbc9060440160006040518083038186803b1580156109c557600080fd5b505af41580156109d9573d6000803e3d6000fd5b505050507ff2735f34b69be1e6342dea95f9162f84d0db925fab655ca9f1f312ac8cbfc99d81604051610a0e91815260200190565b60405180910390a150565b73__$364aad554dc80380f414546becdd2c1584$__63ee98b31360028461044c612f26565b604051633b11adbf60e21b81526002600482015233602482015273__$364aad554dc80380f414546becdd2c1584$__9063ec46b6fc9060440160206040518083038186803b158015610a8f57600080fd5b505af4158015610aa3573d6000803e3d6000fd5b505050506040513d601f19601f82011682018060405250810190610ac7919061433b565b610ae35760405162461bcd60e51b815260040161058590614356565b838380826001600160a01b031663893d20e86040518163ffffffff1660e01b815260040160206040518083038186803b158015610b1f57600080fd5b505afa158015610b33573d6000803e3d6000fd5b505050506040513d601f19601f82011682018060405250810190610b579190614310565b64ffffffffff1614610b9e5760405162461bcd60e51b815260206004820152601060248201526f4e4f54204f776e6572206f6620446f6360801b6044820152606401610585565b856001600160a01b031663f045a7696040518163ffffffff1660e01b8152600401600060405180830381600087803b158015610bd957600080fd5b505af1158015610bed573d6000803e3d6000fd5b5050604051634020a4a760e11b8152600060048201526001600160a01b0389169250638041494e9150602401600060405180830381600087803b158015610c3357600080fd5b505af1158015610c47573d6000803e3d6000fd5b50505050610c53612fe4565b604051638506c43f60e01b81526001600160a01b03888116600483015260248201879052604482018690529190911690638506c43f90606401600060405180830381600087803b158015610ca657600080fd5b505af1158015610cba573d6000803e3d6000fd5b50505050505050505050565b604051630f07232560e01b8152600260048201523360248201526001600160a01b038216604482015273__$364aad554dc80380f414546becdd2c1584$__90630f0723259060640160006040518083038186803b158015610d2657600080fd5b505af4158015610d3a573d6000803e3d6000fd5b50506040516001600160a01b03841681527fe435cbeab64e4eae6497b9d8289704bd709d624a80704ef3ca9af777534bc6ec92506020019050610a0e565b604051633b11adbf60e21b81526002600482015233602482015273__$364aad554dc80380f414546becdd2c1584$__9063ec46b6fc9060440160206040518083038186803b158015610dc957600080fd5b505af4158015610ddd573d6000803e3d6000fd5b505050506040513d601f19601f82011682018060405250810190610e01919061433b565b610e1d5760405162461bcd60e51b815260040161058590614356565b60405163cdf4b38760e01b8152600481018390526000906001600160a01b0385169063cdf4b387906024016101406040518083038186803b158015610e6157600080fd5b505afa158015610e75573d6000803e3d6000fd5b505050506040513d601f19601f82011682018060405250810190610e9991906146ca565b90508060a0015164ffffffffff168214610ef55760405162461bcd60e51b815260206004820152601a60248201527f424f414b2e5454533a206e6f742073656c6c65724f664465616c0000000000006044820152606401610585565b610f0184846001612ffe565b610f0b8484613660565b50505050565b604051633b11adbf60e21b81526002600482015233602482015273__$364aad554dc80380f414546becdd2c1584$__9063ec46b6fc9060440160206040518083038186803b158015610f6257600080fd5b505af4158015610f76573d6000803e3d6000fd5b505050506040513d601f19601f82011682018060405250810190610f9a919061433b565b610fb65760405162461bcd60e51b815260040161058590614356565b6040516308c5f91760e41b815260048101839052839083906001600160a01b03831690638c5f91709060240160206040518083038186803b158015610ffa57600080fd5b505afa15801561100e573d6000803e3d6000fd5b505050506040513d601f19601f82011682018060405250810190611032919061433b565b6110715760405162461bcd60e51b815260206004820152601060248201526f4e4f54205061727479206f6620446f6360801b6044820152606401610585565b600261107b612fe4565b60405163de154c2760e01b81526001600160a01b038881166004830152919091169063de154c279060240160c06040518083038186803b1580156110be57600080fd5b505afa1580156110d2573d6000803e3d6000fd5b505050506040513d601f19601f820116820180604052508101906110f691906146fd565b60a0015160ff161461114a5760405162461bcd60e51b815260206004820152601a60248201527f4941206e6f7420696e2043697263756c617465642053746174650000000000006044820152606401610585565b61115485856137fb565b604051630cac562d60e11b81526001600482015260248101859052604481018490526001600160a01b03861690631958ac5a90606401600060405180830381600087803b1580156111a457600080fd5b505af11580156111b8573d6000803e3d6000fd5b50505050846001600160a01b0316634844f5416040518163ffffffff1660e01b815260040160206040518083038186803b1580156111f557600080fd5b505afa158015611209573d6000803e3d6000fd5b505050506040513d601f19601f8201168201806040525081019061122d919061433b565b156105f45761123a612fe4565b60405163108fac0b60e11b81526001600160a01b03878116600483015260036024830152919091169063211f5816906044015b600060405180830381600087803b15801561128757600080fd5b505af115801561129b573d6000803e3d6000fd5b505050505050505050565b604051632a3be56b60e21b815260026004820152602481018390526044810182905260009073__$364aad554dc80380f414546becdd2c1584$__9063a8ef95ac9060640160206040518083038186803b15801561130257600080fd5b505af4158015611316573d6000803e3d6000fd5b505050506040513d601f19601f8201168201806040525081019061133a919061433b565b9392505050565b604051633b11adbf60e21b81526002600482015233602482015273__$364aad554dc80380f414546becdd2c1584$__9063ec46b6fc9060440160206040518083038186803b15801561139257600080fd5b505af41580156113a6573d6000803e3d6000fd5b505050506040513d601f19601f820116820180604052508101906113ca919061433b565b8061146f575073__$364aad554dc80380f414546becdd2c1584$__63fe27108660026113f4612f26565b6040516001600160e01b031960e085901b168152600481019290925264ffffffffff16602482015260440160206040518083038186803b15801561143757600080fd5b505af415801561144b573d6000803e3d6000fd5b505050506040513d601f19601f8201168201806040525081019061146f919061433b565b61148b5760405162461bcd60e51b815260040161058590614674565b60405163b6e38a2960e01b8152600260048201526024810182905273__$364aad554dc80380f414546becdd2c1584$__9063b6e38a299060440160006040518083038186803b1580156114dd57600080fd5b505af41580156114f1573d6000803e3d6000fd5b505050507f8b6f40f36b4ae8cc5f55e895036457c43da4ab1f80f58c46f5ff0d72a650033b81604051610a0e91815260200190565b604051633b11adbf60e21b81526002600482015233602482015273__$364aad554dc80380f414546becdd2c1584$__9063ec46b6fc9060440160206040518083038186803b15801561157757600080fd5b505af415801561158b573d6000803e3d6000fd5b505050506040513d601f19601f820116820180604052508101906115af919061433b565b6115cb5760405162461bcd60e51b815260040161058590614356565b6115d3612fe4565b6040516316e1d79b60e31b81526001600160a01b03848116600483015260248201849052919091169063b70ebcd890604401600060405180830381600087803b15801561161f57600080fd5b505af11580156104b3573d6000803e3d6000fd5b60405163987ad15360e01b81526002600482015260009073__$364aad554dc80380f414546becdd2c1584$__9063987ad153906024016103d2565b6000611678612f26565b60405163cc0d511b60e01b8152600260048201526024810184905264ffffffffff8216604482015290915073__$364aad554dc80380f414546becdd2c1584$__9063cc0d511b90606401610487565b604051633b11adbf60e21b81526002600482015233602482015273__$364aad554dc80380f414546becdd2c1584$__9063ec46b6fc9060440160206040518083038186803b15801561171857600080fd5b505af415801561172c573d6000803e3d6000fd5b505050506040513d601f19601f82011682018060405250810190611750919061433b565b61176c5760405162461bcd60e51b815260040161058590614356565b818180826001600160a01b031663893d20e86040518163ffffffff1660e01b815260040160206040518083038186803b1580156117a857600080fd5b505afa1580156117bc573d6000803e3d6000fd5b505050506040513d601f19601f820116820180604052508101906117e09190614310565b64ffffffffff16146118275760405162461bcd60e51b815260206004820152601060248201526f4e4f54204f776e6572206f6620446f6360801b6044820152606401610585565b61182f612fe4565b604051636a10c37d60e11b81526001600160a01b038681166004830152919091169063d42186fa906024016107f1565b604051633b11adbf60e21b81526002600482015233602482015273__$364aad554dc80380f414546becdd2c1584$__9063ec46b6fc9060440160206040518083038186803b1580156118b057600080fd5b505af41580156118c4573d6000803e3d6000fd5b505050506040513d601f19601f820116820180604052508101906118e8919061433b565b6119045760405162461bcd60e51b815260040161058590614356565b600261190e612fe4565b60405163de154c2760e01b81526001600160a01b038681166004830152919091169063de154c279060240160c06040518083038186803b15801561195157600080fd5b505afa158015611965573d6000803e3d6000fd5b505050506040513d601f19601f8201168201806040525081019061198991906146fd565b60a0015160ff1610156119d55760405162461bcd60e51b8152602060048201526014602482015273424f414b2e54443a2077726f6e6720537461746560601b6044820152606401610585565b60066119df612fe4565b60405163de154c2760e01b81526001600160a01b038681166004830152919091169063de154c279060240160c06040518083038186803b158015611a2257600080fd5b505afa158015611a36573d6000803e3d6000fd5b505050506040513d601f19601f82011682018060405250810190611a5a91906146fd565b60a0015160ff1610611aa55760405162461bcd60e51b8152602060048201526014602482015273424f414b2e54443a2077726f6e6720537461746560601b6044820152606401610585565b6040516320bf56eb60e21b8152600481018390526000906001600160a01b038516906382fd5bac906024016101e06040518083038186803b158015611ae957600080fd5b505afa158015611afd573d6000803e3d6000fd5b505050506040513d601f19601f82011682018060405250810190611b2191906144be565b805160a0015190915064ffffffffff168214611b755760405162461bcd60e51b81526020600482015260136024820152722127a0a5972a221d102727aa1039b2b63632b960691b6044820152606401610585565b604051637b019deb60e01b8152600481018490526001600160a01b03851690637b019deb90602401602060405180830381600087803b158015611bb757600080fd5b505af1158015611bcb573d6000803e3d6000fd5b505050506040513d601f19601f82011682018060405250810190611bef919061433b565b15610f0b57611bfc612fe4565b60405163108fac0b60e11b81526001600160a01b03868116600483015260066024830152919091169063211f581690604401600060405180830381600087803b158015611c4857600080fd5b505af1158015611c5c573d6000803e3d6000fd5b50505050611c68612f80565b81516080015160208301516040808201516060909201519051631ba9b20960e21b815263ffffffff90931660048401526001600160401b0391821660248401521660448201526001600160a01b039190911690636ea6c824906064016107f1565b604051633b11adbf60e21b81526002600482015233602482015273__$364aad554dc80380f414546becdd2c1584$__9063ec46b6fc9060440160206040518083038186803b158015611d1a57600080fd5b505af4158015611d2e573d6000803e3d6000fd5b505050506040513d601f19601f82011682018060405250810190611d52919061433b565b611d6e5760405162461bcd60e51b815260040161058590614356565b6005611d78612fe4565b60405163de154c2760e01b81526001600160a01b038781166004830152919091169063de154c279060240160c06040518083038186803b158015611dbb57600080fd5b505afa158015611dcf573d6000803e3d6000fd5b505050506040513d601f19601f82011682018060405250810190611df391906146fd565b60a0015160ff1614611e515760405162461bcd60e51b815260206004820152602160248201527f424f414b65657065722e7265766f6b654465616c3a2077726f6e6720537461746044820152606560f81b6064820152608401610585565b6040516320bf56eb60e21b8152600481018490526000906001600160a01b038616906382fd5bac906024016101e06040518083038186803b158015611e9557600080fd5b505afa158015611ea9573d6000803e3d6000fd5b505050506040513d601f19601f82011682018060405250810190611ecd91906144be565b805160a0015190915064ffffffffff168314611f215760405162461bcd60e51b81526020600482015260136024820152722127a0a59729221d102727aa1039b2b63632b960691b6044820152606401610585565b60405163147e285960e21b81526001600160a01b038616906351f8a16490611f4f90879086906004016147a1565b602060405180830381600087803b158015611f6957600080fd5b505af1158015611f7d573d6000803e3d6000fd5b505050506040513d601f19601f82011682018060405250810190611fa1919061433b565b1561201357611fae612fe4565b60405163108fac0b60e11b81526001600160a01b03878116600483015260066024830152919091169063211f581690604401600060405180830381600087803b158015611ffa57600080fd5b505af115801561200e573d6000803e3d6000fd5b505050505b604051633f5de8b560e11b8152600481018590526001600160a01b03861690637ebbd16a90602401602060405180830381600087803b15801561205557600080fd5b505af1158015612069573d6000803e3d6000fd5b505050506040513d601f19601f8201168201806040525081019061208d919061433b565b156105f45761209a612f80565b81516080015160208301516040808201516060909201519051631ba9b20960e21b815263ffffffff90931660048401526001600160401b0391821660248401521660448201526001600160a01b039190911690636ea6c8249060640161126d565b61210482613b0b565b61210d81613bba565b604051636cdd0edf60e11b815260026004820152602481018590526001600160a01b038416604482015273__$364aad554dc80380f414546becdd2c1584$__9063d9ba1dbe9060640160006040518083038186803b15801561216e57600080fd5b505af4158015612182573d6000803e3d6000fd5b5050604080518781526001600160a01b038781166020830152868116828401528516606082015290517f3abb2418c66fe32ba9c883030a75ce583971d9af9192b9b74e44e67c5e6c8c1f9350908190036080019150a150505050565b604051633b11adbf60e21b81526002600482015233602482015273__$364aad554dc80380f414546becdd2c1584$__9063ec46b6fc9060440160206040518083038186803b15801561222f57600080fd5b505af4158015612243573d6000803e3d6000fd5b505050506040513d601f19601f82011682018060405250810190612267919061433b565b6122835760405162461bcd60e51b815260040161058590614356565b600561228d612fe4565b60405163de154c2760e01b81526001600160a01b038781166004830152919091169063de154c279060240160c06040518083038186803b1580156122d057600080fd5b505afa1580156122e4573d6000803e3d6000fd5b505050506040513d601f19601f8201168201806040525081019061230891906146fd565b60a0015160ff16146123825760405162461bcd60e51b815260206004820152603b60248201527f424f414b65657065722e636c6f73654465616c3a20496e766573746d656e744160448201527f677265656d656e74204e4f5420696e20766f74656420737461746500000000006064820152608401610585565b6040516320bf56eb60e21b8152600481018490526000906001600160a01b038616906382fd5bac906024016101e06040518083038186803b1580156123c657600080fd5b505afa1580156123da573d6000803e3d6000fd5b505050506040513d601f19601f820116820180604052508101906123fe91906144be565b60208101515190915064ffffffffff16821461246d5760405162461bcd60e51b815260206004820152602860248201527f424f414b65657065722e636c6f73654465616c3a2063616c6c6572206973204e60448201526727aa10313abcb2b960c11b6064820152608401610585565b60405163c9852ee360e01b81526001600160a01b0386169063c9852ee39061249b90879087906004016147a1565b602060405180830381600087803b1580156124b557600080fd5b505af11580156124c9573d6000803e3d6000fd5b505050506040513d601f19601f820116820180604052508101906124ed919061433b565b1561255f576124fa612fe4565b60405163108fac0b60e11b81526001600160a01b03878116600483015260066024830152919091169063211f581690604401600060405180830381600087803b15801561254657600080fd5b505af115801561255a573d6000803e3d6000fd5b505050505b80516080015163ffffffff161561257f5761257a8585613660565b6105f4565b6105f485856105fb565b604051633b11adbf60e21b81526002600482015233602482015273__$364aad554dc80380f414546becdd2c1584$__9063ec46b6fc9060440160206040518083038186803b1580156125da57600080fd5b505af41580156125ee573d6000803e3d6000fd5b505050506040513d601f19601f82011682018060405250810190612612919061433b565b61262e5760405162461bcd60e51b815260040161058590614356565b612636613c71565b6001600160a01b031663d50c7377826040518263ffffffff1660e01b815260040161266391815260200190565b60206040518083038186803b15801561267b57600080fd5b505afa15801561268f573d6000803e3d6000fd5b505050506040513d601f19601f820116820180604052508101906126b3919061433b565b6126f35760405162461bcd60e51b815260206004820152601160248201527031b0b63632b9103737ba1026a2a6a122a960791b6044820152606401610585565b60006126fd612fe4565b6040516324344f1160e01b815260048101859052602481018490526001600160a01b0391909116906324344f1190604401602060405180830381600087803b15801561274857600080fd5b505af115801561275c573d6000803e3d6000fd5b505050506040513d601f19601f8201168201806040525081019061278091906147fe565b60005460015460405163dc890da960e01b8152600481018690523060248201526001600160a01b039283166044820152908216606482015291925082169063dc890da9906084015b600060405180830381600087803b1580156127e257600080fd5b505af11580156127f6573d6000803e3d6000fd5b50505050505050565b604051633c3e56c160e11b81526002600482015260009073__$364aad554dc80380f414546becdd2c1584$__9063787cad829060240160206040518083038186803b15801561284d57600080fd5b505af4158015612861573d6000803e3d6000fd5b505050506040513d601f19601f8201168201806040525081019061042291906147fe565b604051633b11adbf60e21b81526002600482015233602482015273__$364aad554dc80380f414546becdd2c1584$__9063ec46b6fc9060440160206040518083038186803b1580156128d657600080fd5b505af41580156128ea573d6000803e3d6000fd5b505050506040513d601f19601f8201168201806040525081019061290e919061433b565b61292a5760405162461bcd60e51b815260040161058590614356565b600254600160f01b900460ff166001146129865760405162461bcd60e51b815260206004820181905260248201527f41432e6f6e6c7950656e64696e673a20446f632069732066696e616c697a65646044820152606401610585565b60405163cc99e11b60e01b815260026004820152684174746f726e65797360b81b602482015273__$364aad554dc80380f414546becdd2c1584$__9063cc99e11b9060440160006040518083038186803b1580156129e357600080fd5b505af41580156129f7573d6000803e3d6000fd5b5050604051632725ebef60e21b8152600260048201526000602482015273__$364aad554dc80380f414546becdd2c1584$__9250639c97afbc915060440160006040518083038186803b158015612a4d57600080fd5b505af4158015612a61573d6000803e3d6000fd5b50506002805460ff60f01b1916600160f11b17905550506040517f35012b512309c322acf68632cd6cb702ff0e1d776fbe9394e38ffc13b434fe7590600090a1565b604051633b11adbf60e21b81526002600482015233602482015273__$364aad554dc80380f414546becdd2c1584$__9063ec46b6fc9060440160206040518083038186803b158015612af457600080fd5b505af4158015612b08573d6000803e3d6000fd5b505050506040513d601f19601f82011682018060405250810190612b2c919061433b565b612b485760405162461bcd60e51b815260040161058590614356565b6005612b52612fe4565b60405163de154c2760e01b81526001600160a01b038881166004830152919091169063de154c279060240160c06040518083038186803b158015612b9557600080fd5b505afa158015612ba9573d6000803e3d6000fd5b505050506040513d601f19601f82011682018060405250810190612bcd91906146fd565b60a0015160ff1614612c165760405162461bcd60e51b81526020600482015260126024820152711ddc9bdb99c81cdd185d19481bd9881093d160721b6044820152606401610585565b60405163ccb2f41560e01b8152600160048201526001600160a01b0386169063ccb2f4159060240160806040518083038186803b158015612c5657600080fd5b505afa158015612c6a573d6000803e3d6000fd5b505050506040513d601f19601f82011682018060405250810190612c8e919061481b565b6040015165ffffffffffff168265ffffffffffff161115612cf15760405162461bcd60e51b815260206004820152601f60248201527f636c6f73696e6744617465204c41544552207468616e20646561646c696e65006044820152606401610585565b60405163cdf4b38760e01b8152600481018590526000906001600160a01b0387169063cdf4b387906024016101406040518083038186803b158015612d3557600080fd5b505afa158015612d49573d6000803e3d6000fd5b505050506040513d601f19601f82011682018060405250810190612d6d91906146ca565b608081015190915063ffffffff1615801590612dd9578160a0015164ffffffffff168314612dd45760405162461bcd60e51b81526020600482015260146024820152732127a0a597282a219d103737ba1039b2b63632b960611b6044820152606401610585565b612ea3565b612de1613c8c565b6001600160a01b0316639258effe846040518263ffffffff1660e01b8152600401612e0e91815260200190565b60206040518083038186803b158015612e2657600080fd5b505afa158015612e3a573d6000803e3d6000fd5b505050506040513d601f19601f82011682018060405250810190612e5e919061433b565b612ea35760405162461bcd60e51b81526020600482015260166024820152752127a0a597282a219d103737ba103234b932b1ba37b960511b6044820152606401610585565b612eae878783612ffe565b60405163a3dd2b7160e01b8152600481018790526024810186905265ffffffffffff851660448201526001600160a01b0388169063a3dd2b7190606401600060405180830381600087803b158015612f0557600080fd5b505af1158015612f19573d6000803e3d6000fd5b5050505050505050505050565b60008054604051634de835e760e11b81523360048201526001600160a01b0390911690639bd06bce90602401602060405180830381600087803b158015612f6c57600080fd5b505af11580156103fe573d6000803e3d6000fd5b6001546000906001600160a01b031663e0ff5b8b60065b6040516001600160e01b031960e084901b16815260ff909116600482015260240160206040518083038186803b158015612fd057600080fd5b505afa158015612861573d6000803e3d6000fd5b6001546000906001600160a01b031663e0ff5b8b82612f97565b6000836001600160a01b031663c0961f7f6040518163ffffffff1660e01b815260040160206040518083038186803b15801561303957600080fd5b505afa15801561304d573d6000803e3d6000fd5b505050506040513d601f19601f820116820180604052508101906130719190614895565b60ff1690506000613080613caa565b6001600160a01b03166348462037836040518263ffffffff1660e01b81526004016130ad91815260200190565b60206040518083038186803b1580156130c557600080fd5b505afa1580156130d9573d6000803e3d6000fd5b505050506040513d601f19601f820116820180604052508101906130fd91906148b0565b604051634281ec6b60e11b8152600481019190915273__$9d2c69e94fee47b9774dc8db4aa5c0bbec$__90638503d8d6906024016102206040518083038186803b15801561314a57600080fd5b505af415801561315e573d6000803e3d6000fd5b505050506040513d601f19601f82011682018060405250810190613182919061493d565b905060008160a0015161ffff1611806131a357506000816080015161ffff16115b1561354557806060015160ff166001141561328c576131c0613cec565b604051634940318360e01b81526001600160a01b038781166004830152919091169063494031839060240160206040518083038186803b15801561320357600080fd5b505afa158015613217573d6000803e3d6000fd5b505050506040513d601f19601f8201168201806040525081019061323b919061433b565b6132875760405162461bcd60e51b815260206004820152601f60248201527f424f414b2e7074633a2020474d204d6f74696f6e204e4f5420706173736564006044820152606401610585565b613545565b806060015160ff1660021415613376576132a4613c8c565b604051634940318360e01b81526001600160a01b038781166004830152919091169063494031839060240160206040518083038186803b1580156132e757600080fd5b505afa1580156132fb573d6000803e3d6000fd5b505050506040513d601f19601f8201168201806040525081019061331f919061433b565b6132875760405162461bcd60e51b815260206004820152602260248201527f424f414b2e7074633a2020426f617264204d6f74696f6e204e4f542070617373604482015261195960f21b6064820152608401610585565b806060015160ff16600314156134ee5761338e613cec565b604051634940318360e01b81526001600160a01b038781166004830152919091169063494031839060240160206040518083038186803b1580156133d157600080fd5b505afa1580156133e5573d6000803e3d6000fd5b505050506040513d601f19601f82011682018060405250810190613409919061433b565b80156134935750613418613c8c565b604051634940318360e01b81526001600160a01b038781166004830152919091169063494031839060240160206040518083038186803b15801561345b57600080fd5b505afa15801561346f573d6000803e3d6000fd5b505050506040513d601f19601f82011682018060405250810190613493919061433b565b6132875760405162461bcd60e51b815260206004820152602660248201527f424f414b2e7074633a20426f61726420616e6420474d206e6f7420424f5448206044820152651c185cdcd95960d21b6064820152608401610585565b60405162461bcd60e51b815260206004820152602660248201527f424f414b2e7074633a2077726f6e67206465636973696f6e20706f7765722073604482015265657474696e6760d01b6064820152608401610585565b82156135d65761257a60058054806020026020016040519081016040528092919081815260200182805480156135ca57602002820191906000526020600020906000905b82829054906101000a900460ff1660058111156135a8576135a86146e7565b8152602060019283018181049485019490930390920291018084116135895790505b50505050508686613d07565b6105f460048054806020026020016040519081016040528092919081815260200182805480156135ca57602002820191906000526020600020906000905b82829054906101000a900460ff166005811115613633576136336146e7565b81526020600192830181810494850194909303909202910180841161361457905050505050508686613d07565b6040516320bf56eb60e21b8152600481018290526000906001600160a01b038416906382fd5bac906024016101e06040518083038186803b1580156136a457600080fd5b505afa1580156136b8573d6000803e3d6000fd5b505050506040513d601f19601f820116820180604052508101906136dc91906144be565b90506136e6612f80565b81516080015160208301516040808201516060909201519051631ba9b20960e21b815263ffffffff90931660048401526001600160401b0391821660248401521660448201526001600160a01b039190911690636ea6c82490606401600060405180830381600087803b15801561375c57600080fd5b505af1158015613770573d6000803e3d6000fd5b5050505061377c612f80565b8151608081015160208401516040808201516060830151925160c090950151915163f0d6c10960e01b815263ffffffff94851660048201526001600160401b0391821660248201529216604483015264ffffffffff9093166064820152911660848201526001600160a01b03919091169063f0d6c1099060a4016127c8565b6000826001600160a01b03166349b4c1ab6040518163ffffffff1660e01b815260040160006040518083038186803b15801561383657600080fd5b505afa15801561384a573d6000803e3d6000fd5b505050506040513d6000823e601f3d908101601f191682016040526138729190810190614a60565b80519091505b8015610f0b5760008261388c600184614b05565b8151811061389c5761389c614b1c565b6020026020010151905081806138b190614b32565b6040516320bf56eb60e21b815260048101849052909350600091506001600160a01b038716906382fd5bac906024016101e06040518083038186803b1580156138f957600080fd5b505afa15801561390d573d6000803e3d6000fd5b505050506040513d601f19601f8201168201806040525081019061393191906144be565b805160a0015190915064ffffffffff16851415613a63576040516326a69e9160e21b8152600481018390526001600160a01b03871690639a9a7a4490602401602060405180830381600087803b15801561398a57600080fd5b505af115801561399e573d6000803e3d6000fd5b505050506040513d601f19601f820116820180604052508101906139c2919061433b565b15613a5e576139cf612f80565b81516080015160208301516040808201516060909201519051634bacf96160e01b815263ffffffff90931660048401526001600160401b0391821660248401521660448201526001600160a01b039190911690634bacf96190606401600060405180830381600087803b158015613a4557600080fd5b505af1158015613a59573d6000803e3d6000fd5b505050505b613b04565b60208101515164ffffffffff1685148015613a83575080515160ff166001145b15613b04576040516326a69e9160e21b8152600481018390526001600160a01b03871690639a9a7a4490602401602060405180830381600087803b158015613aca57600080fd5b505af1158015613ade573d6000803e3d6000fd5b505050506040513d601f19601f82011682018060405250810190613b02919061433b565b505b5050613878565b6000546001600160a01b031615613b5c5760405162461bcd60e51b815260206004820152601560248201527430b63932b0b23c9039b2ba103932b3a1b2b73a32b960591b6044820152606401610585565b6040516001600160a01b03821681527f318da6c7624c71cbc0afe346c9d8827f119d0ecefb241a7b0c87217a076a8e029060200160405180910390a1600080546001600160a01b0319166001600160a01b0392909216919091179055565b6001546001600160a01b031615613c135760405162461bcd60e51b815260206004820152601960248201527f616c7265616479207365742067656e6572616c4b6565706572000000000000006044820152606401610585565b6040516001600160a01b03821681527fe513d3e0f0d0a3877029dcc588748679a7a3450ec1ec7ed56d96bd012c3e61aa9060200160405180910390a1600180546001600160a01b0319166001600160a01b0392909216919091179055565b6001546000906001600160a01b031663e0ff5b8b6007612f97565b600180546000916001600160a01b039091169063e0ff5b8b90612f97565b6000613cb4613f0f565b6001600160a01b0316632f5f3b3c6040518163ffffffff1660e01b815260040160206040518083038186803b158015612fd057600080fd5b6001546000906001600160a01b031663e0ff5b8b6002612f97565b82515b8015610f0b57613d18613caa565b6001600160a01b0316637176544985613d32600185614b05565b81518110613d4257613d42614b1c565b60200260200101516005811115613d5b57613d5b6146e7565b6040516001600160e01b031960e084901b16815260ff909116600482015260240160206040518083038186803b158015613d9457600080fd5b505afa158015613da8573d6000803e3d6000fd5b505050506040513d601f19601f82011682018060405250810190613dcc919061433b565b15613efd57613dd9613caa565b6001600160a01b0316635d24f35b85613df3600185614b05565b81518110613e0357613e03614b1c565b60200260200101516005811115613e1c57613e1c6146e7565b6040516001600160e01b031960e084901b16815260ff90911660048201526001600160a01b03861660248201526044810185905260640160206040518083038186803b158015613e6b57600080fd5b505afa158015613e7f573d6000803e3d6000fd5b505050506040513d601f19601f82011682018060405250810190613ea3919061433b565b613efd5760405162461bcd60e51b815260206004820152602560248201527f424f414b2e5054433a20534841206f626c69676174696f6e206e6f74206578656044820152641b5c1d195960da1b6064820152608401610585565b80613f0781614b32565b915050613d0a565b6001546000906001600160a01b031663e0ff5b8b6003612f97565b60008060408385031215613f3d57600080fd5b50508035926020909101359150565b600060208284031215613f5e57600080fd5b5035919050565b6001600160a01b0381168114613f7a57600080fd5b50565b60008060408385031215613f9057600080fd5b8235613f9b81613f65565b946020939093013593505050565b60008060008060808587031215613fbf57600080fd5b8435613fca81613f65565b966020860135965060408601359560600135945092505050565b600060208284031215613ff657600080fd5b813561133a81613f65565b60008060006060848603121561401657600080fd5b833561402181613f65565b95602085013595506040909401359392505050565b634e487b7160e01b600052604160045260246000fd5b60405161014081016001600160401b038111828210171561406f5761406f614036565b60405290565b604051606081016001600160401b038111828210171561406f5761406f614036565b604051608081016001600160401b038111828210171561406f5761406f614036565b6040516101e081016001600160401b038111828210171561406f5761406f614036565b604051601f8201601f191681016001600160401b038111828210171561410457614104614036565b604052919050565b600082601f83011261411d57600080fd5b81356001600160401b0381111561413657614136614036565b614149601f8201601f19166020016140dc565b81815284602083860101111561415e57600080fd5b816020850160208301376000918101602001919091529392505050565b6000806000806080858703121561419157600080fd5b843561419c81613f65565b9350602085013592506040850135915060608501356001600160401b038111156141c557600080fd5b6141d18782880161410c565b91505092959194509250565b600080600080608085870312156141f357600080fd5b84359350602085013561420581613f65565b9250604085013561421581613f65565b9150606085013561422581613f65565b939692955090935050565b6000806000806080858703121561424657600080fd5b843561425181613f65565b93506020850135925060408501356001600160401b0381111561427357600080fd5b61427f8782880161410c565b949793965093946060013593505050565b65ffffffffffff81168114613f7a57600080fd5b600080600080600060a086880312156142bc57600080fd5b85356142c781613f65565b9450602086013593506040860135925060608601356142e581614290565b949793965091946080013592915050565b805164ffffffffff8116811461430b57600080fd5b919050565b60006020828403121561432257600080fd5b61133a826142f6565b8051801515811461430b57600080fd5b60006020828403121561434d57600080fd5b61133a8261432b565b60208082526026908201527f41432e6f6e6c794469726563744b65657065723a206e6f74206469726563742060408201526535b2b2b832b960d11b606082015260800190565b805160ff8116811461430b57600080fd5b805161ffff8116811461430b57600080fd5b805163ffffffff8116811461430b57600080fd5b805161430b81614290565b600061014082840312156143f157600080fd5b6143f961404c565b90506144048261439c565b8152614412602083016143ad565b6020820152614423604083016143ad565b6040820152614434606083016143ad565b6060820152614445608083016143bf565b608082015261445660a083016142f6565b60a082015261446760c083016143bf565b60c082015261447860e083016143bf565b60e082015261010061448b8184016143d3565b9082015261012061449d83820161439c565b9082015292915050565b80516001600160401b038116811461430b57600080fd5b60008183036101e08112156144d257600080fd5b6144da614075565b6144e485856143de565b8152608061013f19830112156144f957600080fd5b614501614097565b915061451061014085016142f6565b825261451f61016085016142f6565b602083015261453161018085016144a7565b60408301526145436101a085016144a7565b606083015260208101919091526101c09290920151604083015250919050565b634e487b7160e01b600052601160045260246000fd5b600065ffffffffffff80831681851680830382111561459a5761459a614563565b01949350505050565b60006101408201905063ffffffff8086511683528060208701511660208401525061ffff604086015116604083015260608501516145eb606084018265ffffffffffff169052565b506080850151614605608084018265ffffffffffff169052565b5060a085015161461e60a084018264ffffffffff169052565b5060c085015161463660c084018263ffffffff169052565b5060e085015161464b60e084018260ff169052565b506001600160401b0384166101008301526001600160401b038316610120830152949350505050565b60208082526036908201527f41432e6f776e65724f72446972656374426f6f6b65657065723a206e6569746860408201527532b91037bbb732b9103737b9103137b7b5b2b2b832b960511b606082015260800190565b600061014082840312156146dd57600080fd5b61133a83836143de565b634e487b7160e01b600052602160045260246000fd5b600060c0828403121561470f57600080fd5b60405160c081018181106001600160401b038211171561473157614731614036565b60405261473d8361439c565b815261474b602084016142f6565b6020820152604083015161475e81614290565b6040820152606083015161477181614290565b6060820152608083015161478481614290565b608082015261479560a0840161439c565b60a08201529392505050565b82815260006020604081840152835180604085015260005b818110156147d5578581018301518582016060015282016147b9565b818111156147e7576000606083870101525b50601f01601f191692909201606001949350505050565b60006020828403121561481057600080fd5b815161133a81613f65565b60006080828403121561482d57600080fd5b604051608081018181106001600160401b038211171561484f5761484f614036565b60405261485b836142f6565b8152602083015161486b81614290565b602082015261487c604084016144a7565b6040820152606083015160608201528091505092915050565b6000602082840312156148a757600080fd5b61133a8261439c565b6000602082840312156148c257600080fd5b5051919050565b600082601f8301126148da57600080fd5b604051606081018181106001600160401b03821117156148fc576148fc614036565b60405280606084018581111561491157600080fd5b845b8181101561493257614924816142f6565b835260209283019201614913565b509195945050505050565b6000610220828403121561495057600080fd5b6149586140b9565b614961836143ad565b815261496f6020840161439c565b60208201526149806040840161439c565b60408201526149916060840161439c565b60608201526149a2608084016143ad565b60808201526149b360a084016143ad565b60a08201526149c460c0840161432b565b60c08201526149d560e0840161432b565b60e08201526101006149e881850161432b565b908201526101206149fa84820161432b565b90820152610140614a0c84820161439c565b90820152610160614a1e84820161439c565b90820152610180614a3084820161439c565b908201526101a0614a4284820161439c565b908201526101c0614a55858583016148c9565b908201529392505050565b60006020808385031215614a7357600080fd5b82516001600160401b0380821115614a8a57600080fd5b818501915085601f830112614a9e57600080fd5b815181811115614ab057614ab0614036565b8060051b9150614ac18483016140dc565b8181529183018401918481019088841115614adb57600080fd5b938501935b83851015614af957845182529385019390850190614ae0565b98975050505050505050565b600082821015614b1757614b17614563565b500390565b634e487b7160e01b600052603260045260246000fd5b600081614b4157614b41614563565b50600019019056fea26469706673582212203c1918f657338cc53c4600a09790dcf29463456d8e81cd7bdbf4cf903f18c29e64736f6c63430008080033",
    "sourcePath": "/Users/kaptain/github.com/hardhat/comboox/contracts/keepers/BOAKeeper.sol",
    "compiler": {
        "name": "solc",
        "version": "0.8.8+commit.dddeac2f"
    },
    "functionHashes": {
        "abandonRole(bytes32)": "3da9a600",
        "circulateIA(address,uint256,bytes32,bytes32)": "59e25c5d",
        "closeDeal(address,uint256,string,uint256)": "deeb633f",
        "createIA(uint256,uint256)": "e05725a8",
        "finalized()": "b3f05b97",
        "getBookeeper()": "ed211023",
        "getGeneralCounsel()": "103f6edd",
        "getOwner()": "893d20e8",
        "grantRole(bytes32,uint256)": "1b6ea9f9",
        "hasRole(bytes32,uint256)": "7e063c5a",
        "init(uint256,address,address,address)": "dc890da9",
        "issueNewShare(address,uint256)": "452558b0",
        "lockContents()": "f045a769",
        "pushToCoffer(address,uint256,bytes32,uint48,uint256)": "fbc6362f",
        "removeIA(address,uint256)": "90443d84",
        "renounceRole(bytes32)": "8bb9c5bf",
        "revokeDeal(address,uint256,uint256,string)": "d270be0e",
        "revokeRole(bytes32,uint256)": "19d61ad9",
        "setDirectKeeper(address)": "6be8496f",
        "setGeneralCounsel(uint256)": "4a14beb1",
        "setOwner(uint256)": "8041494e",
        "setRoleAdmin(bytes32,uint256)": "5171ebd4",
        "setTempOfIA(address,uint256)": "84e43c64",
        "signIA(address,uint256,bytes32)": "7a6ae865",
        "terminateDeal(address,uint256,uint256)": "b951cf1d",
        "transferTargetShare(address,uint256,uint256)": "755514d5"
    },
    "gasEstimates": {
        "creation": {
            "codeDepositCost": "3865400",
            "executionCost": "infinite",
            "totalCost": "infinite"
        },
        "external": {
            "abandonRole(bytes32)": "infinite",
            "circulateIA(address,uint256,bytes32,bytes32)": "infinite",
            "closeDeal(address,uint256,string,uint256)": "infinite",
            "createIA(uint256,uint256)": "infinite",
            "finalized()": "2438",
            "getBookeeper()": "infinite",
            "getGeneralCounsel()": "infinite",
            "getOwner()": "infinite",
            "grantRole(bytes32,uint256)": "infinite",
            "hasRole(bytes32,uint256)": "infinite",
            "init(uint256,address,address,address)": "infinite",
            "issueNewShare(address,uint256)": "infinite",
            "lockContents()": "infinite",
            "pushToCoffer(address,uint256,bytes32,uint48,uint256)": "infinite",
            "removeIA(address,uint256)": "infinite",
            "renounceRole(bytes32)": "infinite",
            "revokeDeal(address,uint256,uint256,string)": "infinite",
            "revokeRole(bytes32,uint256)": "infinite",
            "setDirectKeeper(address)": "infinite",
            "setGeneralCounsel(uint256)": "infinite",
            "setOwner(uint256)": "infinite",
            "setRoleAdmin(bytes32,uint256)": "infinite",
            "setTempOfIA(address,uint256)": "infinite",
            "signIA(address,uint256,bytes32)": "infinite",
            "terminateDeal(address,uint256,uint256)": "infinite",
            "transferTargetShare(address,uint256,uint256)": "infinite"
        },
        "internal": {
            "_checkSHA(enum IShareholdersAgreement.TermTitle[] memory,address,uint256)": "infinite",
            "_lockDealsOfParty(address,uint256)": "infinite",
            "_shareTransfer(address,uint256)": "infinite",
            "_vrAndSHACheck(address,uint256,bool)": "infinite"
        }
    }
}