{
    "contractName": "BOAKeeper",
    "abi": [
        {
            "anonymous": false,
            "inputs": [
                {
                    "indexed": false,
                    "internalType": "uint256",
                    "name": "owner",
                    "type": "uint256"
                },
                {
                    "indexed": false,
                    "internalType": "address",
                    "name": "directKeeper",
                    "type": "address"
                },
                {
                    "indexed": false,
                    "internalType": "address",
                    "name": "regCenter",
                    "type": "address"
                },
                {
                    "indexed": false,
                    "internalType": "address",
                    "name": "generalKeeper",
                    "type": "address"
                }
            ],
            "name": "Init",
            "type": "event"
        },
        {
            "anonymous": false,
            "inputs": [],
            "name": "LockContents",
            "type": "event"
        },
        {
            "anonymous": false,
            "inputs": [
                {
                    "indexed": false,
                    "internalType": "address",
                    "name": "keeper",
                    "type": "address"
                }
            ],
            "name": "SetDirectKeeper",
            "type": "event"
        },
        {
            "anonymous": false,
            "inputs": [
                {
                    "indexed": false,
                    "internalType": "uint256",
                    "name": "acct",
                    "type": "uint256"
                }
            ],
            "name": "SetGeneralCounsel",
            "type": "event"
        },
        {
            "anonymous": false,
            "inputs": [
                {
                    "indexed": false,
                    "internalType": "uint256",
                    "name": "acct",
                    "type": "uint256"
                }
            ],
            "name": "SetOwner",
            "type": "event"
        },
        {
            "inputs": [
                {
                    "internalType": "bytes32",
                    "name": "role",
                    "type": "bytes32"
                }
            ],
            "name": "abandonRole",
            "outputs": [],
            "stateMutability": "nonpayable",
            "type": "function"
        },
        {
            "inputs": [
                {
                    "internalType": "address",
                    "name": "ia",
                    "type": "address"
                },
                {
                    "internalType": "uint256",
                    "name": "caller",
                    "type": "uint256"
                },
                {
                    "internalType": "bytes32",
                    "name": "docUrl",
                    "type": "bytes32"
                },
                {
                    "internalType": "bytes32",
                    "name": "docHash",
                    "type": "bytes32"
                }
            ],
            "name": "circulateIA",
            "outputs": [],
            "stateMutability": "nonpayable",
            "type": "function"
        },
        {
            "inputs": [
                {
                    "internalType": "address",
                    "name": "ia",
                    "type": "address"
                },
                {
                    "internalType": "uint256",
                    "name": "seqOfDeal",
                    "type": "uint256"
                },
                {
                    "internalType": "string",
                    "name": "hashKey",
                    "type": "string"
                },
                {
                    "internalType": "uint256",
                    "name": "caller",
                    "type": "uint256"
                }
            ],
            "name": "closeDeal",
            "outputs": [],
            "stateMutability": "nonpayable",
            "type": "function"
        },
        {
            "inputs": [
                {
                    "internalType": "uint256",
                    "name": "snOfDoc",
                    "type": "uint256"
                },
                {
                    "internalType": "address",
                    "name": "primeKeyOfCaller",
                    "type": "address"
                },
                {
                    "internalType": "uint256",
                    "name": "caller",
                    "type": "uint256"
                }
            ],
            "name": "createIA",
            "outputs": [],
            "stateMutability": "nonpayable",
            "type": "function"
        },
        {
            "inputs": [],
            "name": "finalized",
            "outputs": [
                {
                    "internalType": "bool",
                    "name": "",
                    "type": "bool"
                }
            ],
            "stateMutability": "view",
            "type": "function"
        },
        {
            "inputs": [],
            "name": "getBookeeper",
            "outputs": [
                {
                    "internalType": "address",
                    "name": "",
                    "type": "address"
                }
            ],
            "stateMutability": "view",
            "type": "function"
        },
        {
            "inputs": [],
            "name": "getGeneralCounsel",
            "outputs": [
                {
                    "internalType": "uint40",
                    "name": "",
                    "type": "uint40"
                }
            ],
            "stateMutability": "view",
            "type": "function"
        },
        {
            "inputs": [],
            "name": "getOwner",
            "outputs": [
                {
                    "internalType": "uint40",
                    "name": "",
                    "type": "uint40"
                }
            ],
            "stateMutability": "view",
            "type": "function"
        },
        {
            "inputs": [
                {
                    "internalType": "bytes32",
                    "name": "role",
                    "type": "bytes32"
                },
                {
                    "internalType": "uint256",
                    "name": "acct",
                    "type": "uint256"
                }
            ],
            "name": "grantRole",
            "outputs": [],
            "stateMutability": "nonpayable",
            "type": "function"
        },
        {
            "inputs": [
                {
                    "internalType": "bytes32",
                    "name": "role",
                    "type": "bytes32"
                },
                {
                    "internalType": "uint256",
                    "name": "acct",
                    "type": "uint256"
                }
            ],
            "name": "hasRole",
            "outputs": [
                {
                    "internalType": "bool",
                    "name": "",
                    "type": "bool"
                }
            ],
            "stateMutability": "view",
            "type": "function"
        },
        {
            "inputs": [
                {
                    "internalType": "uint256",
                    "name": "owner",
                    "type": "uint256"
                },
                {
                    "internalType": "address",
                    "name": "directKeeper",
                    "type": "address"
                },
                {
                    "internalType": "address",
                    "name": "regCenter",
                    "type": "address"
                },
                {
                    "internalType": "address",
                    "name": "generalKeeper",
                    "type": "address"
                }
            ],
            "name": "init",
            "outputs": [],
            "stateMutability": "nonpayable",
            "type": "function"
        },
        {
            "inputs": [
                {
                    "internalType": "address",
                    "name": "ia",
                    "type": "address"
                },
                {
                    "internalType": "uint256",
                    "name": "seqOfDeal",
                    "type": "uint256"
                }
            ],
            "name": "issueNewShare",
            "outputs": [],
            "stateMutability": "nonpayable",
            "type": "function"
        },
        {
            "inputs": [],
            "name": "lockContents",
            "outputs": [],
            "stateMutability": "nonpayable",
            "type": "function"
        },
        {
            "inputs": [
                {
                    "internalType": "address",
                    "name": "ia",
                    "type": "address"
                },
                {
                    "internalType": "uint256",
                    "name": "seqOfDeal",
                    "type": "uint256"
                },
                {
                    "internalType": "bytes32",
                    "name": "hashLock",
                    "type": "bytes32"
                },
                {
                    "internalType": "uint256",
                    "name": "closingDate",
                    "type": "uint256"
                },
                {
                    "internalType": "uint256",
                    "name": "caller",
                    "type": "uint256"
                }
            ],
            "name": "pushToCoffer",
            "outputs": [],
            "stateMutability": "nonpayable",
            "type": "function"
        },
        {
            "inputs": [
                {
                    "internalType": "bytes32",
                    "name": "role",
                    "type": "bytes32"
                }
            ],
            "name": "renounceRole",
            "outputs": [],
            "stateMutability": "nonpayable",
            "type": "function"
        },
        {
            "inputs": [
                {
                    "internalType": "address",
                    "name": "ia",
                    "type": "address"
                },
                {
                    "internalType": "uint256",
                    "name": "seqOfDeal",
                    "type": "uint256"
                },
                {
                    "internalType": "uint256",
                    "name": "caller",
                    "type": "uint256"
                },
                {
                    "internalType": "string",
                    "name": "hashKey",
                    "type": "string"
                }
            ],
            "name": "revokeDeal",
            "outputs": [],
            "stateMutability": "nonpayable",
            "type": "function"
        },
        {
            "inputs": [
                {
                    "internalType": "bytes32",
                    "name": "role",
                    "type": "bytes32"
                },
                {
                    "internalType": "uint256",
                    "name": "acct",
                    "type": "uint256"
                }
            ],
            "name": "revokeRole",
            "outputs": [],
            "stateMutability": "nonpayable",
            "type": "function"
        },
        {
            "inputs": [
                {
                    "internalType": "address",
                    "name": "keeper",
                    "type": "address"
                }
            ],
            "name": "setDirectKeeper",
            "outputs": [],
            "stateMutability": "nonpayable",
            "type": "function"
        },
        {
            "inputs": [
                {
                    "internalType": "uint256",
                    "name": "acct",
                    "type": "uint256"
                }
            ],
            "name": "setGeneralCounsel",
            "outputs": [],
            "stateMutability": "nonpayable",
            "type": "function"
        },
        {
            "inputs": [
                {
                    "internalType": "uint256",
                    "name": "acct",
                    "type": "uint256"
                }
            ],
            "name": "setOwner",
            "outputs": [],
            "stateMutability": "nonpayable",
            "type": "function"
        },
        {
            "inputs": [
                {
                    "internalType": "bytes32",
                    "name": "role",
                    "type": "bytes32"
                },
                {
                    "internalType": "uint256",
                    "name": "acct",
                    "type": "uint256"
                }
            ],
            "name": "setRoleAdmin",
            "outputs": [],
            "stateMutability": "nonpayable",
            "type": "function"
        },
        {
            "inputs": [
                {
                    "internalType": "address",
                    "name": "ia",
                    "type": "address"
                },
                {
                    "internalType": "uint256",
                    "name": "caller",
                    "type": "uint256"
                },
                {
                    "internalType": "bytes32",
                    "name": "sigHash",
                    "type": "bytes32"
                }
            ],
            "name": "signIA",
            "outputs": [],
            "stateMutability": "nonpayable",
            "type": "function"
        },
        {
            "inputs": [
                {
                    "internalType": "address",
                    "name": "ia",
                    "type": "address"
                },
                {
                    "internalType": "uint256",
                    "name": "seqOfDeal",
                    "type": "uint256"
                },
                {
                    "internalType": "uint256",
                    "name": "caller",
                    "type": "uint256"
                }
            ],
            "name": "terminateDeal",
            "outputs": [],
            "stateMutability": "nonpayable",
            "type": "function"
        },
        {
            "inputs": [
                {
                    "internalType": "address",
                    "name": "ia",
                    "type": "address"
                },
                {
                    "internalType": "uint256",
                    "name": "seqOfDeal",
                    "type": "uint256"
                },
                {
                    "internalType": "uint256",
                    "name": "caller",
                    "type": "uint256"
                }
            ],
            "name": "transferTargetShare",
            "outputs": [],
            "stateMutability": "nonpayable",
            "type": "function"
        }
    ],
    "bytecode": "60a0604052608080601690526200001b9060049060016200005f565b5060408051606081019091528060188152602001601a8152602001601790526200004a9060059060036200011d565b503480156200005857600080fd5b50620001c5565b82805482825590600052602060002090601f016020900481019282156200010b5791602002820160005b83821115620000da57835183826101000a81548160ff0219169083601a811115620000b857620000b8620001af565b0217905550926020019260010160208160000104928301926001030262000089565b8015620001095782816101000a81549060ff0219169055600101602081600001049283019260010302620000da565b505b506200011992915062000198565b5090565b82805482825590600052602060002090601f016020900481019282156200010b5791602002820160005b83821115620000da57835183826101000a81548160ff0219169083601a811115620001765762000176620001af565b0217905550926020019260010160208160000104928301926001030262000147565b5b8082111562000119576000815560010162000199565b634e487b7160e01b600052602160045260246000fd5b61524d80620001d56000396000f3fe608060405234801561001057600080fd5b50600436106101585760003560e01c80638041494e116100c3578063d270be0e1161007c578063d270be0e146102cb578063dc890da9146102de578063deeb633f146102f1578063ed21102314610304578063f045a76914610324578063f4a6975c1461032c57600080fd5b80638041494e14610263578063893d20e8146102765780638bb9c5bf1461027e57806392a3820214610291578063b3f05b97146102a4578063b951cf1d146102b857600080fd5b80635171ebd4116101155780635171ebd4146101e157806359e25c5d146101f45780636be8496f14610207578063755514d51461021a5780637a6ae8651461022d5780637e063c5a1461024057600080fd5b8063103f6edd1461015d57806319d61ad9146101805780631b6ea9f9146101955780633da9a600146101a8578063452558b0146101bb5780634a14beb1146101ce575b600080fd5b61016561033f565b60405164ffffffffff90911681526020015b60405180910390f35b61019361018e366004614330565b6103cb565b005b6101936101a3366004614330565b61045d565b6101936101b6366004614352565b610483565b6101936101c9366004614383565b61050e565b6101936101dc366004614352565b6108cc565b6101936101ef366004614330565b610b29565b6101936102023660046143af565b610b4f565b6101936102153660046143ea565b610e66565b610193610228366004614407565b610f18565b61019361023b366004614407565b6110b1565b61025361024e366004614330565b61147e565b6040519015158152602001610177565b610193610271366004614352565b611519565b6101656115d2565b61019361028c366004614352565b61160d565b61019361029f36600461443c565b611632565b60028054600160f01b900460ff1614610253565b6101936102c6366004614407565b611ac7565b6101936102d936600461460a565b611f71565b6101936102ec36600461466c565b612466565b6101936102ff3660046146bf565b612548565b61030c6129b5565b6040516001600160a01b039091168152602001610177565b610193612a3b565b61019361033a36600461471f565b612c7f565b60405163e8c0cc1d60e01b81526002600482015260009073__$364aad554dc80380f414546becdd2c1584$__9063e8c0cc1d906024015b60206040518083038186803b15801561038e57600080fd5b505af41580156103a2573d6000803e3d6000fd5b505050506040513d601f19601f820116820180604052508101906103c69190614771565b905090565b73__$364aad554dc80380f414546becdd2c1584$__6382daafaa600284846103f16130f5565b6040516001600160e01b031960e087901b16815260048101949094526024840192909252604483015264ffffffffff16606482015260840160006040518083038186803b15801561044157600080fd5b505af4158015610455573d6000803e3d6000fd5b505050505050565b73__$364aad554dc80380f414546becdd2c1584$__636320d75e600284846103f16130f5565b73__$364aad554dc80380f414546becdd2c1584$__63c51b295f6002836104a86130f5565b6040516001600160e01b031960e086901b1681526004810193909352602483019190915264ffffffffff16604482015260640160006040518083038186803b1580156104f357600080fd5b505af4158015610507573d6000803e3d6000fd5b5050505050565b604051633b11adbf60e21b81526002600482015233602482015273__$364aad554dc80380f414546becdd2c1584$__9063ec46b6fc9060440160206040518083038186803b15801561055f57600080fd5b505af4158015610573573d6000803e3d6000fd5b505050506040513d601f19601f82011682018060405250810190610597919061479c565b6105bc5760405162461bcd60e51b81526004016105b3906147b7565b60405180910390fd5b6040516320bf56eb60e21b8152600481018290526000906001600160a01b038416906382fd5bac906024016101e06040518083038186803b15801561060057600080fd5b505afa158015610614573d6000803e3d6000fd5b505050506040513d601f19601f820116820180604052508101906106389190614918565b90506106c760408051610160810182526000918101828152606082018390526080820183905260a0820183905260c0820183905260e082018390526101008201839052610120820183905261014082019290925290819081526040805160c08101825260008082526020828101829052928201819052606082018190526080820181905260a082015291015290565b604080516101208101825260008082526020808301829052855160609081015161ffff16848601524265ffffffffffff811691850191909152908601515164ffffffffff166080840152855160c09081015163ffffffff90811660a0860152875160e0908101519091168286015284018390526101008401929092529184528251908101909252819061075c9061a8c06149e5565b65ffffffffffff1681526020018360200151604001516001600160401b031681526020018360200151606001516001600160401b031681526020018360200151604001516001600160401b03168152602001600060ff168152602001600060ff168152508160200181905250600160009054906101000a90046001600160a01b03166001600160a01b031663f01e100f6040518163ffffffff1660e01b815260040160206040518083038186803b15801561081657600080fd5b505afa15801561082a573d6000803e3d6000fd5b505050506040513d601f19601f8201168201806040525081019061084e9190614a0f565b6001600160a01b031663ea64673f826040518263ffffffff1660e01b81526004016108799190614a2c565b6101e060405180830381600087803b15801561089457600080fd5b505af11580156108a8573d6000803e3d6000fd5b505050506040513d601f19601f820116820180604052508101906105079190614bf9565b604051633b11adbf60e21b81526002600482015233602482015273__$364aad554dc80380f414546becdd2c1584$__9063ec46b6fc9060440160206040518083038186803b15801561091d57600080fd5b505af4158015610931573d6000803e3d6000fd5b505050506040513d601f19601f82011682018060405250810190610955919061479c565b806109fa575073__$364aad554dc80380f414546becdd2c1584$__63fe271086600261097f6130f5565b6040516001600160e01b031960e085901b168152600481019290925264ffffffffff16602482015260440160206040518083038186803b1580156109c257600080fd5b505af41580156109d6573d6000803e3d6000fd5b505050506040513d601f19601f820116820180604052508101906109fa919061479c565b610a655760405162461bcd60e51b815260206004820152603660248201527f41432e6f776e65724f72446972656374426f6f6b65657065723a206e6569746860448201527532b91037bbb732b9103737b9103137b7b5b2b2b832b960511b60648201526084016105b3565b73__$364aad554dc80380f414546becdd2c1584$__639b4510de600283610a8a6130f5565b6040516001600160e01b031960e086901b1681526004810193909352602483019190915264ffffffffff16604482015260640160006040518083038186803b158015610ad557600080fd5b505af4158015610ae9573d6000803e3d6000fd5b505050507ff2735f34b69be1e6342dea95f9162f84d0db925fab655ca9f1f312ac8cbfc99d81604051610b1e91815260200190565b60405180910390a150565b73__$364aad554dc80380f414546becdd2c1584$__63ee98b313600284846103f16130f5565b604051633b11adbf60e21b81526002600482015233602482015273__$364aad554dc80380f414546becdd2c1584$__9063ec46b6fc9060440160206040518083038186803b158015610ba057600080fd5b505af4158015610bb4573d6000803e3d6000fd5b505050506040513d601f19601f82011682018060405250810190610bd8919061479c565b610bf45760405162461bcd60e51b81526004016105b3906147b7565b6040516308c5f91760e41b815260048101849052849084906001600160a01b03831690638c5f91709060240160206040518083038186803b158015610c3857600080fd5b505afa158015610c4c573d6000803e3d6000fd5b505050506040513d601f19601f82011682018060405250810190610c70919061479c565b610caf5760405162461bcd60e51b815260206004820152601060248201526f4e4f54205061727479206f6620446f6360801b60448201526064016105b3565b856001600160a01b031663b3f05b976040518163ffffffff1660e01b815260040160206040518083038186803b158015610ce857600080fd5b505afa158015610cfc573d6000803e3d6000fd5b505050506040513d601f19601f82011682018060405250810190610d20919061479c565b610d6c5760405162461bcd60e51b815260206004820152601a60248201527f424f414b2e4349413a204941206e6f742066696e616c697a656400000000000060448201526064016105b3565b600160009054906101000a90046001600160a01b03166001600160a01b031663acd2d0576040518163ffffffff1660e01b815260040160206040518083038186803b158015610dba57600080fd5b505afa158015610dce573d6000803e3d6000fd5b505050506040513d601f19601f82011682018060405250810190610df29190614a0f565b604051638506c43f60e01b81526001600160a01b03888116600483015260248201879052604482018690529190911690638506c43f906064015b600060405180830381600087803b158015610e4657600080fd5b505af1158015610e5a573d6000803e3d6000fd5b50505050505050505050565b604051630f07232560e01b8152600260048201526001600160a01b038216602482015233604482015273__$364aad554dc80380f414546becdd2c1584$__90630f0723259060640160006040518083038186803b158015610ec657600080fd5b505af4158015610eda573d6000803e3d6000fd5b50506040516001600160a01b03841681527fe435cbeab64e4eae6497b9d8289704bd709d624a80704ef3ca9af777534bc6ec92506020019050610b1e565b604051633b11adbf60e21b81526002600482015233602482015273__$364aad554dc80380f414546becdd2c1584$__9063ec46b6fc9060440160206040518083038186803b158015610f6957600080fd5b505af4158015610f7d573d6000803e3d6000fd5b505050506040513d601f19601f82011682018060405250810190610fa1919061479c565b610fbd5760405162461bcd60e51b81526004016105b3906147b7565b60405163cdf4b38760e01b8152600481018390526000906001600160a01b0385169063cdf4b387906024016101206040518083038186803b15801561100157600080fd5b505afa158015611015573d6000803e3d6000fd5b505050506040513d601f19601f820116820180604052508101906110399190614ce0565b90508060a0015164ffffffffff1682146110955760405162461bcd60e51b815260206004820152601a60248201527f424f414b2e5454533a206e6f742073656c6c65724f664465616c00000000000060448201526064016105b3565b6110a18484600161314f565b6110ab8484613902565b50505050565b604051633b11adbf60e21b81526002600482015233602482015273__$364aad554dc80380f414546becdd2c1584$__9063ec46b6fc9060440160206040518083038186803b15801561110257600080fd5b505af4158015611116573d6000803e3d6000fd5b505050506040513d601f19601f8201168201806040525081019061113a919061479c565b6111565760405162461bcd60e51b81526004016105b3906147b7565b6040516308c5f91760e41b815260048101839052839083906001600160a01b03831690638c5f91709060240160206040518083038186803b15801561119a57600080fd5b505afa1580156111ae573d6000803e3d6000fd5b505050506040513d601f19601f820116820180604052508101906111d2919061479c565b6112115760405162461bcd60e51b815260206004820152601060248201526f4e4f54205061727479206f6620446f6360801b60448201526064016105b3565b6001546040805163acd2d05760e01b815290516000926001600160a01b03169163acd2d057916004808301926020929190829003018186803b15801561125657600080fd5b505afa15801561126a573d6000803e3d6000fd5b505050506040513d601f19601f8201168201806040525081019061128e9190614a0f565b6040516337066e9d60e11b81526001600160a01b038881166004830152919250600291831690636e0cdd3a9060240160806040518083038186803b1580156112d557600080fd5b505afa1580156112e9573d6000803e3d6000fd5b505050506040513d601f19601f8201168201806040525081019061130d9190614d13565b6060015160ff16146113615760405162461bcd60e51b815260206004820152601a60248201527f4941206e6f7420696e2043697263756c6174656420537461746500000000000060448201526064016105b3565b61136b8686613bcc565b604051630cac562d60e11b81526001600482015260248101869052604481018590526001600160a01b03871690631958ac5a90606401600060405180830381600087803b1580156113bb57600080fd5b505af11580156113cf573d6000803e3d6000fd5b50505050856001600160a01b0316634844f5416040518163ffffffff1660e01b815260040160206040518083038186803b15801561140c57600080fd5b505afa158015611420573d6000803e3d6000fd5b505050506040513d601f19601f82011682018060405250810190611444919061479c565b1561045557604051634c6a94cb60e01b81526001600160a01b03878116600483015260036024830152821690634c6a94cb90604401610e2c565b604051632a3be56b60e21b815260026004820152602481018390526044810182905260009073__$364aad554dc80380f414546becdd2c1584$__9063a8ef95ac9060640160206040518083038186803b1580156114da57600080fd5b505af41580156114ee573d6000803e3d6000fd5b505050506040513d601f19601f82011682018060405250810190611512919061479c565b9392505050565b73__$364aad554dc80380f414546becdd2c1584$__639b48160c60028361153e6130f5565b6040516001600160e01b031960e086901b1681526004810193909352602483019190915264ffffffffff16604482015260640160006040518083038186803b15801561158957600080fd5b505af415801561159d573d6000803e3d6000fd5b505050507f8b6f40f36b4ae8cc5f55e895036457c43da4ab1f80f58c46f5ff0d72a650033b81604051610b1e91815260200190565b60405163987ad15360e01b81526002600482015260009073__$364aad554dc80380f414546becdd2c1584$__9063987ad15390602401610376565b73__$364aad554dc80380f414546becdd2c1584$__63cc0d511b6002836104a86130f5565b604051633b11adbf60e21b81526002600482015233602482015273__$364aad554dc80380f414546becdd2c1584$__9063ec46b6fc9060440160206040518083038186803b15801561168357600080fd5b505af4158015611697573d6000803e3d6000fd5b505050506040513d601f19601f820116820180604052508101906116bb919061479c565b6116d75760405162461bcd60e51b81526004016105b3906147b7565b6001546040805163acd2d05760e01b815290516005926001600160a01b03169163acd2d057916004808301926020929190829003018186803b15801561171c57600080fd5b505afa158015611730573d6000803e3d6000fd5b505050506040513d601f19601f820116820180604052508101906117549190614a0f565b6040516337066e9d60e11b81526001600160a01b0388811660048301529190911690636e0cdd3a9060240160806040518083038186803b15801561179757600080fd5b505afa1580156117ab573d6000803e3d6000fd5b505050506040513d601f19601f820116820180604052508101906117cf9190614d13565b6060015160ff161461181b5760405162461bcd60e51b8152602060048201526015602482015274424f414b2e5054433a2077726f6e6720737461746560581b60448201526064016105b3565b60405163cdf4b38760e01b8152600481018590526000906001600160a01b0387169063cdf4b387906024016101206040518083038186803b15801561185f57600080fd5b505afa158015611873573d6000803e3d6000fd5b505050506040513d601f19601f820116820180604052508101906118979190614ce0565b608081015190915063ffffffff1615801590611903578160a0015164ffffffffff1683146118fe5760405162461bcd60e51b81526020600482015260146024820152732127a0a597282a219d103737ba1039b2b63632b960611b60448201526064016105b3565b611a4b565b600160009054906101000a90046001600160a01b03166001600160a01b0316639262826d6040518163ffffffff1660e01b815260040160206040518083038186803b15801561195157600080fd5b505afa158015611965573d6000803e3d6000fd5b505050506040513d601f19601f820116820180604052508101906119899190614a0f565b6001600160a01b0316639258effe846040518263ffffffff1660e01b81526004016119b691815260200190565b60206040518083038186803b1580156119ce57600080fd5b505afa1580156119e2573d6000803e3d6000fd5b505050506040513d601f19601f82011682018060405250810190611a06919061479c565b611a4b5760405162461bcd60e51b81526020600482015260166024820152752127a0a597282a219d103737ba103234b932b1ba37b960511b60448201526064016105b3565b611a5687878361314f565b6040516345b2c19d60e11b81526004810187905260248101869052604481018590526001600160a01b03881690638b65833a90606401600060405180830381600087803b158015611aa657600080fd5b505af1158015611aba573d6000803e3d6000fd5b5050505050505050505050565b604051633b11adbf60e21b81526002600482015233602482015273__$364aad554dc80380f414546becdd2c1584$__9063ec46b6fc9060440160206040518083038186803b158015611b1857600080fd5b505af4158015611b2c573d6000803e3d6000fd5b505050506040513d601f19601f82011682018060405250810190611b50919061479c565b611b6c5760405162461bcd60e51b81526004016105b3906147b7565b6001546040805163acd2d05760e01b815290516000926001600160a01b03169163acd2d057916004808301926020929190829003018186803b158015611bb157600080fd5b505afa158015611bc5573d6000803e3d6000fd5b505050506040513d601f19601f82011682018060405250810190611be99190614a0f565b6040516337066e9d60e11b81526001600160a01b038681166004830152919250600691831690636e0cdd3a9060240160806040518083038186803b158015611c3057600080fd5b505afa158015611c44573d6000803e3d6000fd5b505050506040513d601f19601f82011682018060405250810190611c689190614d13565b6060015160ff1610611cb35760405162461bcd60e51b8152602060048201526014602482015273424f414b2e54443a2077726f6e6720537461746560601b60448201526064016105b3565b6040516320bf56eb60e21b8152600481018490526000906001600160a01b038616906382fd5bac906024016101e06040518083038186803b158015611cf757600080fd5b505afa158015611d0b573d6000803e3d6000fd5b505050506040513d601f19601f82011682018060405250810190611d2f9190614918565b805160a0015190915064ffffffffff168314611d835760405162461bcd60e51b81526020600482015260136024820152722127a0a5972a221d102727aa1039b2b63632b960691b60448201526064016105b3565b604051637b019deb60e01b8152600481018590526001600160a01b03861690637b019deb90602401602060405180830381600087803b158015611dc557600080fd5b505af1158015611dd9573d6000803e3d6000fd5b505050506040513d601f19601f82011682018060405250810190611dfd919061479c565b1561050757604051634c6a94cb60e01b81526001600160a01b03868116600483015260066024830152831690634c6a94cb90604401600060405180830381600087803b158015611e4c57600080fd5b505af1158015611e60573d6000803e3d6000fd5b50505050600160009054906101000a90046001600160a01b03166001600160a01b031663f01e100f6040518163ffffffff1660e01b815260040160206040518083038186803b158015611eb257600080fd5b505afa158015611ec6573d6000803e3d6000fd5b505050506040513d601f19601f82011682018060405250810190611eea9190614a0f565b8151608001516020830151604090810151905163ccdddd4160e01b815263ffffffff90921660048301526001600160401b031660248201526001600160a01b03919091169063ccdddd4190604401600060405180830381600087803b158015611f5257600080fd5b505af1158015611f66573d6000803e3d6000fd5b505050505050505050565b604051633b11adbf60e21b81526002600482015233602482015273__$364aad554dc80380f414546becdd2c1584$__9063ec46b6fc9060440160206040518083038186803b158015611fc257600080fd5b505af4158015611fd6573d6000803e3d6000fd5b505050506040513d601f19601f82011682018060405250810190611ffa919061479c565b6120165760405162461bcd60e51b81526004016105b3906147b7565b6001546040805163acd2d05760e01b815290516005926001600160a01b03169163acd2d057916004808301926020929190829003018186803b15801561205b57600080fd5b505afa15801561206f573d6000803e3d6000fd5b505050506040513d601f19601f820116820180604052508101906120939190614a0f565b6040516337066e9d60e11b81526001600160a01b0387811660048301529190911690636e0cdd3a9060240160806040518083038186803b1580156120d657600080fd5b505afa1580156120ea573d6000803e3d6000fd5b505050506040513d601f19601f8201168201806040525081019061210e9190614d13565b6060015160ff16146121595760405162461bcd60e51b8152602060048201526014602482015273424f414b2e52443a2077726f6e6720537461746560601b60448201526064016105b3565b6040516320bf56eb60e21b8152600481018490526000906001600160a01b038616906382fd5bac906024016101e06040518083038186803b15801561219d57600080fd5b505afa1580156121b1573d6000803e3d6000fd5b505050506040513d601f19601f820116820180604052508101906121d59190614918565b805160a0015190915064ffffffffff1683146122295760405162461bcd60e51b81526020600482015260136024820152722127a0a59729221d102727aa1039b2b63632b960691b60448201526064016105b3565b60405163147e285960e21b81526001600160a01b038616906351f8a164906122579087908690600401614d88565b602060405180830381600087803b15801561227157600080fd5b505af1158015612285573d6000803e3d6000fd5b505050506040513d601f19601f820116820180604052508101906122a9919061479c565b1561239957600160009054906101000a90046001600160a01b03166001600160a01b031663acd2d0576040518163ffffffff1660e01b815260040160206040518083038186803b1580156122fc57600080fd5b505afa158015612310573d6000803e3d6000fd5b505050506040513d601f19601f820116820180604052508101906123349190614a0f565b604051634c6a94cb60e01b81526001600160a01b038781166004830152600660248301529190911690634c6a94cb90604401600060405180830381600087803b15801561238057600080fd5b505af1158015612394573d6000803e3d6000fd5b505050505b604051633f5de8b560e11b8152600481018590526001600160a01b03861690637ebbd16a90602401602060405180830381600087803b1580156123db57600080fd5b505af11580156123ef573d6000803e3d6000fd5b505050506040513d601f19601f82011682018060405250810190612413919061479c565b1561050757600160009054906101000a90046001600160a01b03166001600160a01b031663f01e100f6040518163ffffffff1660e01b815260040160206040518083038186803b158015611eb257600080fd5b604051636cdd0edf60e11b815260026004820152602481018590526001600160a01b038416604482015273__$364aad554dc80380f414546becdd2c1584$__9063d9ba1dbe9060640160006040518083038186803b1580156124c757600080fd5b505af41580156124db573d6000803e3d6000fd5b505050506124e882613f4c565b6124f181613fbf565b604080518581526001600160a01b038581166020830152848116828401528316606082015290517f3abb2418c66fe32ba9c883030a75ce583971d9af9192b9b74e44e67c5e6c8c1f9181900360800190a150505050565b604051633b11adbf60e21b81526002600482015233602482015273__$364aad554dc80380f414546becdd2c1584$__9063ec46b6fc9060440160206040518083038186803b15801561259957600080fd5b505af41580156125ad573d6000803e3d6000fd5b505050506040513d601f19601f820116820180604052508101906125d1919061479c565b6125ed5760405162461bcd60e51b81526004016105b3906147b7565b6001546040805163acd2d05760e01b815290516005926001600160a01b03169163acd2d057916004808301926020929190829003018186803b15801561263257600080fd5b505afa158015612646573d6000803e3d6000fd5b505050506040513d601f19601f8201168201806040525081019061266a9190614a0f565b6040516337066e9d60e11b81526001600160a01b0387811660048301529190911690636e0cdd3a9060240160806040518083038186803b1580156126ad57600080fd5b505afa1580156126c1573d6000803e3d6000fd5b505050506040513d601f19601f820116820180604052508101906126e59190614d13565b6060015160ff16146127305760405162461bcd60e51b8152602060048201526014602482015273424f414b2e43443a2077726f6e6720737461746560601b60448201526064016105b3565b6040516320bf56eb60e21b8152600481018490526000906001600160a01b038616906382fd5bac906024016101e06040518083038186803b15801561277457600080fd5b505afa158015612788573d6000803e3d6000fd5b505050506040513d601f19601f820116820180604052508101906127ac9190614918565b60208101515190915064ffffffffff16821461281b5760405162461bcd60e51b815260206004820152602860248201527f424f414b65657065722e636c6f73654465616c3a2063616c6c6572206973204e60448201526727aa10313abcb2b960c11b60648201526084016105b3565b60405163c9852ee360e01b81526001600160a01b0386169063c9852ee3906128499087908790600401614d88565b602060405180830381600087803b15801561286357600080fd5b505af1158015612877573d6000803e3d6000fd5b505050506040513d601f19601f8201168201806040525081019061289b919061479c565b1561298b57600160009054906101000a90046001600160a01b03166001600160a01b031663acd2d0576040518163ffffffff1660e01b815260040160206040518083038186803b1580156128ee57600080fd5b505afa158015612902573d6000803e3d6000fd5b505050506040513d601f19601f820116820180604052508101906129269190614a0f565b604051634c6a94cb60e01b81526001600160a01b038781166004830152600660248301529190911690634c6a94cb90604401600060405180830381600087803b15801561297257600080fd5b505af1158015612986573d6000803e3d6000fd5b505050505b80516080015163ffffffff16156129ab576129a68585613902565b610507565b610507858561050e565b604051633c3e56c160e11b81526002600482015260009073__$364aad554dc80380f414546becdd2c1584$__9063787cad829060240160206040518083038186803b158015612a0357600080fd5b505af4158015612a17573d6000803e3d6000fd5b505050506040513d601f19601f820116820180604052508101906103c69190614a0f565b600254600160f01b900460ff16600114612a975760405162461bcd60e51b815260206004820152601760248201527f41432e4c433a20446f632069732066696e616c697a656400000000000000000060448201526064016105b3565b73__$364aad554dc80380f414546becdd2c1584$__63c51b295f6002684174746f726e65797360b81b612ac86130f5565b6040516001600160e01b031960e086901b1681526004810193909352602483019190915264ffffffffff16604482015260640160006040518083038186803b158015612b1357600080fd5b505af4158015612b27573d6000803e3d6000fd5b50505050600273__$364aad554dc80380f414546becdd2c1584$__639b4510de90916000612b536130f5565b6040516001600160e01b031960e086901b1681526004810193909352602483019190915264ffffffffff16604482015260640160006040518083038186803b158015612b9e57600080fd5b505af4158015612bb2573d6000803e3d6000fd5b50505050600273__$364aad554dc80380f414546becdd2c1584$__639b48160c90916000612bde6130f5565b6040516001600160e01b031960e086901b1681526004810193909352602483019190915264ffffffffff16604482015260640160006040518083038186803b158015612c2957600080fd5b505af4158015612c3d573d6000803e3d6000fd5b50506002805460ff60f01b1916600160f11b17905550506040517f35012b512309c322acf68632cd6cb702ff0e1d776fbe9394e38ffc13b434fe7590600090a1565b604051633b11adbf60e21b81526002600482015233602482015273__$364aad554dc80380f414546becdd2c1584$__9063ec46b6fc9060440160206040518083038186803b158015612cd057600080fd5b505af4158015612ce4573d6000803e3d6000fd5b505050506040513d601f19601f82011682018060405250810190612d08919061479c565b612d245760405162461bcd60e51b81526004016105b3906147b7565b600160009054906101000a90046001600160a01b03166001600160a01b03166333fb96ee6040518163ffffffff1660e01b815260040160206040518083038186803b158015612d7257600080fd5b505afa158015612d86573d6000803e3d6000fd5b505050506040513d601f19601f82011682018060405250810190612daa9190614a0f565b6001600160a01b031663d50c7377826040518263ffffffff1660e01b8152600401612dd791815260200190565b60206040518083038186803b158015612def57600080fd5b505afa158015612e03573d6000803e3d6000fd5b505050506040513d601f19601f82011682018060405250810190612e27919061479c565b612e675760405162461bcd60e51b815260206004820152601160248201527031b0b63632b9103737ba1026a2a6a122a960791b60448201526064016105b3565b60008054604051634d366e1360e01b8152600481018690526001600160a01b03858116602483015290911690634d366e139060440161012060405180830381600087803b158015612eb757600080fd5b505af1158015612ecb573d6000803e3d6000fd5b505050506040513d601f19601f82011682018060405250810190612eef9190614df0565b602081015160005460015460405163dc890da960e01b8152600481018790523060248201526001600160a01b0392831660448201529082166064820152929350169063dc890da990608401600060405180830381600087803b158015612f5457600080fd5b505af1158015612f68573d6000803e3d6000fd5b50505050600160009054906101000a90046001600160a01b03166001600160a01b031663acd2d0576040518163ffffffff1660e01b815260040160206040518083038186803b158015612fba57600080fd5b505afa158015612fce573d6000803e3d6000fd5b505050506040513d601f19601f82011682018060405250810190612ff29190614a0f565b6001600160a01b031663d02ef14d73__$17e76a6b4c1f440c6182332cb361c04433$__6349ab9de284600001516040518263ffffffff1660e01b815260040161303b9190614ec0565b60206040518083038186803b15801561305357600080fd5b505af4158015613067573d6000803e3d6000fd5b505050506040513d601f19601f8201168201806040525081019061308b9190614f61565b60208401516040516001600160e01b031960e085901b16815260048101929092526001600160a01b03166024820152604401600060405180830381600087803b1580156130d757600080fd5b505af11580156130eb573d6000803e3d6000fd5b5050505050505050565b60008054604051636ae3b70d60e11b81523360048201526001600160a01b039091169063d5c76e1a90602401602060405180830381600087803b15801561313b57600080fd5b505af11580156103a2573d6000803e3d6000fd5b6000836001600160a01b031663c0961f7f6040518163ffffffff1660e01b815260040160206040518083038186803b15801561318a57600080fd5b505afa15801561319e573d6000803e3d6000fd5b505050506040513d601f19601f820116820180604052508101906131c29190614f7a565b60ff1690506000600160009054906101000a90046001600160a01b03166001600160a01b031663a61adc286040518163ffffffff1660e01b815260040160206040518083038186803b15801561321757600080fd5b505afa15801561322b573d6000803e3d6000fd5b505050506040513d601f19601f8201168201806040525081019061324f9190614a0f565b6001600160a01b03166348462037836040518263ffffffff1660e01b815260040161327c91815260200190565b60206040518083038186803b15801561329457600080fd5b505afa1580156132a8573d6000803e3d6000fd5b505050506040513d601f19601f820116820180604052508101906132cc9190614f61565b60405163d1296c8f60e01b8152600481019190915273__$9d2c69e94fee47b9774dc8db4aa5c0bbec$__9063d1296c8f906024016102006040518083038186803b15801561331957600080fd5b505af415801561332d573d6000803e3d6000fd5b505050506040513d601f19601f82011682018060405250810190613351919061500b565b905060008160a0015161ffff16118061337257506000816080015161ffff16115b156137e757806060015161ffff16600114156134da57600160009054906101000a90046001600160a01b03166001600160a01b031663682ebf056040518163ffffffff1660e01b815260040160206040518083038186803b1580156133d657600080fd5b505afa1580156133ea573d6000803e3d6000fd5b505050506040513d601f19601f8201168201806040525081019061340e9190614a0f565b604051634940318360e01b81526001600160a01b038781166004830152919091169063494031839060240160206040518083038186803b15801561345157600080fd5b505afa158015613465573d6000803e3d6000fd5b505050506040513d601f19601f82011682018060405250810190613489919061479c565b6134d55760405162461bcd60e51b815260206004820152601c60248201527f424f414b2e5054433a20204d6f74696f6e204e4f54207061737365640000000060448201526064016105b3565b6137e7565b806060015161ffff166002141561353957600160009054906101000a90046001600160a01b03166001600160a01b0316639262826d6040518163ffffffff1660e01b815260040160206040518083038186803b1580156133d657600080fd5b806060015161ffff166003141561379f57600160009054906101000a90046001600160a01b03166001600160a01b031663682ebf056040518163ffffffff1660e01b815260040160206040518083038186803b15801561359857600080fd5b505afa1580156135ac573d6000803e3d6000fd5b505050506040513d601f19601f820116820180604052508101906135d09190614a0f565b604051634940318360e01b81526001600160a01b038781166004830152919091169063494031839060240160206040518083038186803b15801561361357600080fd5b505afa158015613627573d6000803e3d6000fd5b505050506040513d601f19601f8201168201806040525081019061364b919061479c565b80156137535750600160009054906101000a90046001600160a01b03166001600160a01b0316639262826d6040518163ffffffff1660e01b815260040160206040518083038186803b1580156136a057600080fd5b505afa1580156136b4573d6000803e3d6000fd5b505050506040513d601f19601f820116820180604052508101906136d89190614a0f565b604051634940318360e01b81526001600160a01b038781166004830152919091169063494031839060240160206040518083038186803b15801561371b57600080fd5b505afa15801561372f573d6000803e3d6000fd5b505050506040513d601f19601f82011682018060405250810190613753919061479c565b6134d55760405162461bcd60e51b815260206004820152601b60248201527f424f414b2e5054433a206d6f74696f6e206e6f7420706173736564000000000060448201526064016105b3565b60405162461bcd60e51b815260206004820152601c60248201527f424f414b2e5054433a20617574686f72697479206f766572666c6f770000000060448201526064016105b3565b8215613878576129a6600580548060200260200160405190810160405280929190818152602001828054801561386c57602002820191906000526020600020906000905b82829054906101000a900460ff16601a81111561384a5761384a614cfd565b81526020600192830181810494850194909303909202910180841161382b5790505b5050505050868661403a565b610507600480548060200260200160405190810160405280929190818152602001828054801561386c57602002820191906000526020600020906000905b82829054906101000a900460ff16601a8111156138d5576138d5614cfd565b8152602060019283018181049485019490930390920291018084116138b65790505050505050868661403a565b6040516320bf56eb60e21b8152600481018290526000906001600160a01b038416906382fd5bac906024016101e06040518083038186803b15801561394657600080fd5b505afa15801561395a573d6000803e3d6000fd5b505050506040513d601f19601f8201168201806040525081019061397e9190614918565b9050600160009054906101000a90046001600160a01b03166001600160a01b031663f01e100f6040518163ffffffff1660e01b815260040160206040518083038186803b1580156139ce57600080fd5b505afa1580156139e2573d6000803e3d6000fd5b505050506040513d601f19601f82011682018060405250810190613a069190614a0f565b8151608001516020830151604090810151905163ccdddd4160e01b815263ffffffff90921660048301526001600160401b031660248201526001600160a01b03919091169063ccdddd4190604401600060405180830381600087803b158015613a6e57600080fd5b505af1158015613a82573d6000803e3d6000fd5b50505050600160009054906101000a90046001600160a01b03166001600160a01b031663f01e100f6040518163ffffffff1660e01b815260040160206040518083038186803b158015613ad457600080fd5b505afa158015613ae8573d6000803e3d6000fd5b505050506040513d601f19601f82011682018060405250810190613b0c9190614a0f565b8151608081015160208401516040808201516060830151925160c086015160e0909601519251632b91fe9560e21b815263ffffffff95861660048201526001600160401b03928316602482015291909316604482015264ffffffffff90921660648301529282166084820152911660a48201526001600160a01b03919091169063ae47fa549060c401600060405180830381600087803b158015613baf57600080fd5b505af1158015613bc3573d6000803e3d6000fd5b50505050505050565b6000826001600160a01b031663e87a6f186040518163ffffffff1660e01b815260040160006040518083038186803b158015613c0757600080fd5b505afa158015613c1b573d6000803e3d6000fd5b505050506040513d6000823e601f3d908101601f19168201604052613c43919081019061512e565b80519091505b80156110ab57600082613c5d6001846151d3565b81518110613c6d57613c6d6151ea565b602002602001015190508180613c8290615200565b6040516320bf56eb60e21b815260048101849052909350600091506001600160a01b038716906382fd5bac906024016101e06040518083038186803b158015613cca57600080fd5b505afa158015613cde573d6000803e3d6000fd5b505050506040513d601f19601f82011682018060405250810190613d029190614918565b805160a0015190915064ffffffffff16851415613ea4576040516326a69e9160e21b8152600481018390526001600160a01b03871690639a9a7a4490602401602060405180830381600087803b158015613d5b57600080fd5b505af1158015613d6f573d6000803e3d6000fd5b505050506040513d601f19601f82011682018060405250810190613d93919061479c565b15613e9f57600160009054906101000a90046001600160a01b03166001600160a01b031663f01e100f6040518163ffffffff1660e01b815260040160206040518083038186803b158015613de657600080fd5b505afa158015613dfa573d6000803e3d6000fd5b505050506040513d601f19601f82011682018060405250810190613e1e9190614a0f565b815160800151602083015160409081015190516360d095df60e01b815263ffffffff90921660048301526001600160401b031660248201526001600160a01b0391909116906360d095df90604401600060405180830381600087803b158015613e8657600080fd5b505af1158015613e9a573d6000803e3d6000fd5b505050505b613f45565b60208101515164ffffffffff1685148015613ec4575080515160ff166001145b15613f45576040516326a69e9160e21b8152600481018390526001600160a01b03871690639a9a7a4490602401602060405180830381600087803b158015613f0b57600080fd5b505af1158015613f1f573d6000803e3d6000fd5b505050506040513d601f19601f82011682018060405250810190613f43919061479c565b505b5050613c49565b6000546001600160a01b031615613f9d5760405162461bcd60e51b815260206004820152601560248201527430b63932b0b23c9039b2ba103932b3a1b2b73a32b960591b60448201526064016105b3565b600080546001600160a01b0319166001600160a01b0392909216919091179055565b6001546001600160a01b0316156140185760405162461bcd60e51b815260206004820152601960248201527f616c7265616479207365742067656e6572616c4b65657065720000000000000060448201526064016105b3565b600180546001600160a01b0319166001600160a01b0392909216919091179055565b82515b80156110ab57600160009054906101000a90046001600160a01b03166001600160a01b031663a61adc286040518163ffffffff1660e01b815260040160206040518083038186803b15801561409157600080fd5b505afa1580156140a5573d6000803e3d6000fd5b505050506040513d601f19601f820116820180604052508101906140c99190614a0f565b6001600160a01b03166371765449856140e36001856151d3565b815181106140f3576140f36151ea565b6020026020010151601a81111561410c5761410c614cfd565b6040516001600160e01b031960e084901b16815260ff909116600482015260240160206040518083038186803b15801561414557600080fd5b505afa158015614159573d6000803e3d6000fd5b505050506040513d601f19601f8201168201806040525081019061417d919061479c565b1561431e57600160009054906101000a90046001600160a01b03166001600160a01b031663a61adc286040518163ffffffff1660e01b815260040160206040518083038186803b1580156141d057600080fd5b505afa1580156141e4573d6000803e3d6000fd5b505050506040513d601f19601f820116820180604052508101906142089190614a0f565b6001600160a01b0316635d24f35b856142226001856151d3565b81518110614232576142326151ea565b6020026020010151601a81111561424b5761424b614cfd565b6040516001600160e01b031960e084901b16815260ff90911660048201526001600160a01b03861660248201526044810185905260640160206040518083038186803b15801561429a57600080fd5b505afa1580156142ae573d6000803e3d6000fd5b505050506040513d601f19601f820116820180604052508101906142d2919061479c565b61431e5760405162461bcd60e51b815260206004820152601b60248201527f424f414b2e5054433a207465726d206e6f74206578656d70746564000000000060448201526064016105b3565b8061432881615200565b91505061403d565b6000806040838503121561434357600080fd5b50508035926020909101359150565b60006020828403121561436457600080fd5b5035919050565b6001600160a01b038116811461438057600080fd5b50565b6000806040838503121561439657600080fd5b82356143a18161436b565b946020939093013593505050565b600080600080608085870312156143c557600080fd5b84356143d08161436b565b966020860135965060408601359560600135945092505050565b6000602082840312156143fc57600080fd5b81356115128161436b565b60008060006060848603121561441c57600080fd5b83356144278161436b565b95602085013595506040909401359392505050565b600080600080600060a0868803121561445457600080fd5b853561445f8161436b565b97602087013597506040870135966060810135965060800135945092505050565b634e487b7160e01b600052604160045260246000fd5b60405161012081016001600160401b03811182821017156144b9576144b9614480565b60405290565b604051606081016001600160401b03811182821017156144b9576144b9614480565b60405160a081016001600160401b03811182821017156144b9576144b9614480565b604080519081016001600160401b03811182821017156144b9576144b9614480565b60405161010081016001600160401b03811182821017156144b9576144b9614480565b6040516101e081016001600160401b03811182821017156144b9576144b9614480565b604051601f8201601f191681016001600160401b038111828210171561459357614593614480565b604052919050565b600082601f8301126145ac57600080fd5b81356001600160401b038111156145c5576145c5614480565b6145d8601f8201601f191660200161456b565b8181528460208386010111156145ed57600080fd5b816020850160208301376000918101602001919091529392505050565b6000806000806080858703121561462057600080fd5b843561462b8161436b565b9350602085013592506040850135915060608501356001600160401b0381111561465457600080fd5b6146608782880161459b565b91505092959194509250565b6000806000806080858703121561468257600080fd5b8435935060208501356146948161436b565b925060408501356146a48161436b565b915060608501356146b48161436b565b939692955090935050565b600080600080608085870312156146d557600080fd5b84356146e08161436b565b93506020850135925060408501356001600160401b0381111561470257600080fd5b61470e8782880161459b565b949793965093946060013593505050565b60008060006060848603121561473457600080fd5b8335925060208401356147468161436b565b929592945050506040919091013590565b805164ffffffffff8116811461476c57600080fd5b919050565b60006020828403121561478357600080fd5b61151282614757565b8051801515811461476c57600080fd5b6000602082840312156147ae57600080fd5b6115128261478c565b60208082526026908201527f41432e6f6e6c794469726563744b65657065723a206e6f74206469726563742060408201526535b2b2b832b960d11b606082015260800190565b805160ff8116811461476c57600080fd5b805161ffff8116811461476c57600080fd5b805163ffffffff8116811461476c57600080fd5b805165ffffffffffff8116811461476c57600080fd5b6000610120828403121561485d57600080fd5b614865614496565b9050614870826147fd565b815261487e6020830161480e565b602082015261488f6040830161480e565b60408201526148a06060830161480e565b60608201526148b160808301614820565b60808201526148c260a08301614757565b60a08201526148d360c08301614820565b60c08201526148e460e08301614820565b60e08201526101006148f7818401614834565b9082015292915050565b80516001600160401b038116811461476c57600080fd5b60008183036101e081121561492c57600080fd5b6149346144bf565b61493e858561484a565b815260a061011f198301121561495357600080fd5b61495b6144e1565b915061496a6101208501614757565b82526149796101408501614757565b602083015261498b6101608501614901565b604083015261499d6101808501614901565b60608301526149af6101a085016147fd565b608083015260208101919091526101c09290920151604083015250919050565b634e487b7160e01b600052601160045260246000fd5b600065ffffffffffff808316818516808303821115614a0657614a066149cf565b01949350505050565b600060208284031215614a2157600080fd5b81516115128161436b565b60006101e082019050825163ffffffff808251168452806020830151166020850152506040810151614a64604085018261ffff169052565b506060810151614a7e606085018265ffffffffffff169052565b506080810151614a97608085018264ffffffffff169052565b5060a0810151614aaf60a085018263ffffffff169052565b5060c0810151614ac760c085018263ffffffff169052565b5060e0810151614add60e085018261ffff169052565b506101009081015160ff811684830152905050602083810151805165ffffffffffff16610120850152908101516001600160401b0390811661014085015260408201518116610160850152606082015116610180840152608081015160ff9081166101a085015260a0820151166101c08401525b5092915050565b600060c08284031215614b6a57600080fd5b60405160c081018181106001600160401b0382111715614b8c57614b8c614480565b604052905080614b9b83614834565b8152614ba960208401614901565b6020820152614bba60408401614901565b6040820152614bcb60608401614901565b6060820152614bdc608084016147fd565b6080820152614bed60a084016147fd565b60a08201525092915050565b60008183036101e0811215614c0d57600080fd5b614c15614503565b61012080831215614c2557600080fd5b614c2d614496565b9250614c3885614820565b8352614c4660208601614820565b6020840152614c576040860161480e565b6040840152614c6860608601614834565b6060840152614c7960808601614757565b6080840152614c8a60a08601614820565b60a0840152614c9b60c08601614820565b60c0840152614cac60e0860161480e565b60e0840152610100614cbf8187016147fd565b90840152828252614cd286868301614b58565b602083015250949350505050565b60006101208284031215614cf357600080fd5b611512838361484a565b634e487b7160e01b600052602160045260246000fd5b600060808284031215614d2557600080fd5b604051608081018181106001600160401b0382111715614d4757614d47614480565b60405282518152614d5a60208401614834565b6020820152614d6b60408401614834565b6040820152614d7c606084016147fd565b60608201529392505050565b82815260006020604081840152835180604085015260005b81811015614dbc57858101830151858201606001528201614da0565b81811115614dce576000606083870101525b50601f01601f191692909201606001949350505050565b805161476c8161436b565b6000818303610120811215614e0457600080fd5b614e0c614503565b61010080831215614e1c57600080fd5b614e24614525565b9250614e2f8561480e565b8352614e3d6020860161480e565b6020840152614e4e60408601614901565b6040840152614e5f60608601614757565b6060840152614e7060808601614834565b6080840152614e8160a0860161480e565b60a084015260c085015162ffffff81168114614e9c57600080fd5b60c0840152614ead60e08601614820565b60e0840152828252614cd2818601614de5565b60006101008201905061ffff808451168352806020850151166020840152506001600160401b03604084015116604083015264ffffffffff60608401511660608301526080830151614f1c608084018265ffffffffffff169052565b5060a0830151614f3260a084018261ffff169052565b5060c0830151614f4960c084018262ffffff169052565b5060e0830151614b5160e084018263ffffffff169052565b600060208284031215614f7357600080fd5b5051919050565b600060208284031215614f8c57600080fd5b611512826147fd565b600082601f830112614fa657600080fd5b604051604081018181106001600160401b0382111715614fc857614fc8614480565b8060405250806040840185811115614fdf57600080fd5b845b8181101561500057614ff281614757565b835260209283019201614fe1565b509195945050505050565b6000610200828403121561501e57600080fd5b615026614548565b61502f8361480e565b815261503d602084016147fd565b602082015261504e604084016147fd565b604082015261505f6060840161480e565b60608201526150706080840161480e565b608082015261508160a0840161480e565b60a082015261509260c0840161478c565b60c08201526150a360e0840161478c565b60e08201526101006150b681850161478c565b908201526101206150c884820161478c565b908201526101406150da84820161480e565b908201526101606150ec84820161480e565b908201526101806150fe84820161480e565b908201526101a061511084820161480e565b908201526101c061512385858301614f95565b908201529392505050565b6000602080838503121561514157600080fd5b82516001600160401b038082111561515857600080fd5b818501915085601f83011261516c57600080fd5b81518181111561517e5761517e614480565b8060051b915061518f84830161456b565b81815291830184019184810190888411156151a957600080fd5b938501935b838510156151c7578451825293850193908501906151ae565b98975050505050505050565b6000828210156151e5576151e56149cf565b500390565b634e487b7160e01b600052603260045260246000fd5b60008161520f5761520f6149cf565b50600019019056fea26469706673582212201c1f498e2e90595eb20406c5b184c592d2ab6f285e5657cb01fb10088a2cd1b864736f6c63430008080033",
    "sourcePath": "/Users/kaptain/github.com/hardhat/comboox/contracts/keepers/BOAKeeper.sol",
    "compiler": {
        "name": "solc",
        "version": "0.8.8+commit.dddeac2f"
    },
    "functionHashes": {
        "abandonRole(bytes32)": "3da9a600",
        "circulateIA(address,uint256,bytes32,bytes32)": "59e25c5d",
        "closeDeal(address,uint256,string,uint256)": "deeb633f",
        "createIA(uint256,address,uint256)": "f4a6975c",
        "finalized()": "b3f05b97",
        "getBookeeper()": "ed211023",
        "getGeneralCounsel()": "103f6edd",
        "getOwner()": "893d20e8",
        "grantRole(bytes32,uint256)": "1b6ea9f9",
        "hasRole(bytes32,uint256)": "7e063c5a",
        "init(uint256,address,address,address)": "dc890da9",
        "issueNewShare(address,uint256)": "452558b0",
        "lockContents()": "f045a769",
        "pushToCoffer(address,uint256,bytes32,uint256,uint256)": "92a38202",
        "renounceRole(bytes32)": "8bb9c5bf",
        "revokeDeal(address,uint256,uint256,string)": "d270be0e",
        "revokeRole(bytes32,uint256)": "19d61ad9",
        "setDirectKeeper(address)": "6be8496f",
        "setGeneralCounsel(uint256)": "4a14beb1",
        "setOwner(uint256)": "8041494e",
        "setRoleAdmin(bytes32,uint256)": "5171ebd4",
        "signIA(address,uint256,bytes32)": "7a6ae865",
        "terminateDeal(address,uint256,uint256)": "b951cf1d",
        "transferTargetShare(address,uint256,uint256)": "755514d5"
    },
    "gasEstimates": {
        "creation": {
            "codeDepositCost": "4213800",
            "executionCost": "infinite",
            "totalCost": "infinite"
        },
        "external": {
            "abandonRole(bytes32)": "infinite",
            "circulateIA(address,uint256,bytes32,bytes32)": "infinite",
            "closeDeal(address,uint256,string,uint256)": "infinite",
            "createIA(uint256,address,uint256)": "infinite",
            "finalized()": "2438",
            "getBookeeper()": "infinite",
            "getGeneralCounsel()": "infinite",
            "getOwner()": "infinite",
            "grantRole(bytes32,uint256)": "infinite",
            "hasRole(bytes32,uint256)": "infinite",
            "init(uint256,address,address,address)": "infinite",
            "issueNewShare(address,uint256)": "infinite",
            "lockContents()": "infinite",
            "pushToCoffer(address,uint256,bytes32,uint256,uint256)": "infinite",
            "renounceRole(bytes32)": "infinite",
            "revokeDeal(address,uint256,uint256,string)": "infinite",
            "revokeRole(bytes32,uint256)": "infinite",
            "setDirectKeeper(address)": "infinite",
            "setGeneralCounsel(uint256)": "infinite",
            "setOwner(uint256)": "infinite",
            "setRoleAdmin(bytes32,uint256)": "infinite",
            "signIA(address,uint256,bytes32)": "infinite",
            "terminateDeal(address,uint256,uint256)": "infinite",
            "transferTargetShare(address,uint256,uint256)": "infinite"
        },
        "internal": {
            "_checkSHA(enum IRegCenter.TypeOfDoc[] memory,address,uint256)": "infinite",
            "_lockDealsOfParty(address,uint256)": "infinite",
            "_shareTransfer(address,uint256)": "infinite",
            "_vrAndSHACheck(address,uint256,bool)": "infinite"
        }
    }
}