{
    "contractName": "BOAKeeper",
    "abi": [
        {
            "anonymous": false,
            "inputs": [
                {
                    "indexed": false,
                    "internalType": "uint256",
                    "name": "owner",
                    "type": "uint256"
                },
                {
                    "indexed": false,
                    "internalType": "address",
                    "name": "directKeeper",
                    "type": "address"
                },
                {
                    "indexed": false,
                    "internalType": "address",
                    "name": "regCenter",
                    "type": "address"
                },
                {
                    "indexed": false,
                    "internalType": "address",
                    "name": "generalKeeper",
                    "type": "address"
                }
            ],
            "name": "Init",
            "type": "event"
        },
        {
            "anonymous": false,
            "inputs": [],
            "name": "LockContents",
            "type": "event"
        },
        {
            "anonymous": false,
            "inputs": [
                {
                    "indexed": false,
                    "internalType": "uint256",
                    "name": "title",
                    "type": "uint256"
                },
                {
                    "indexed": false,
                    "internalType": "address",
                    "name": "book",
                    "type": "address"
                }
            ],
            "name": "SetBookRuting",
            "type": "event"
        },
        {
            "anonymous": false,
            "inputs": [
                {
                    "indexed": false,
                    "internalType": "address",
                    "name": "keeper",
                    "type": "address"
                }
            ],
            "name": "SetDirectKeeper",
            "type": "event"
        },
        {
            "anonymous": false,
            "inputs": [
                {
                    "indexed": false,
                    "internalType": "uint256",
                    "name": "acct",
                    "type": "uint256"
                }
            ],
            "name": "SetGeneralCounsel",
            "type": "event"
        },
        {
            "anonymous": false,
            "inputs": [
                {
                    "indexed": false,
                    "internalType": "address",
                    "name": "gk",
                    "type": "address"
                }
            ],
            "name": "SetGeneralKeeper",
            "type": "event"
        },
        {
            "anonymous": false,
            "inputs": [
                {
                    "indexed": false,
                    "internalType": "uint256",
                    "name": "acct",
                    "type": "uint256"
                }
            ],
            "name": "SetOwner",
            "type": "event"
        },
        {
            "anonymous": false,
            "inputs": [
                {
                    "indexed": false,
                    "internalType": "address",
                    "name": "rc",
                    "type": "address"
                }
            ],
            "name": "SetRegCenter",
            "type": "event"
        },
        {
            "inputs": [
                {
                    "internalType": "bytes32",
                    "name": "role",
                    "type": "bytes32"
                }
            ],
            "name": "abandonRole",
            "outputs": [],
            "stateMutability": "nonpayable",
            "type": "function"
        },
        {
            "inputs": [
                {
                    "internalType": "address",
                    "name": "ia",
                    "type": "address"
                },
                {
                    "internalType": "uint256",
                    "name": "caller",
                    "type": "uint256"
                },
                {
                    "internalType": "bytes32",
                    "name": "docUrl",
                    "type": "bytes32"
                },
                {
                    "internalType": "bytes32",
                    "name": "docHash",
                    "type": "bytes32"
                }
            ],
            "name": "circulateIA",
            "outputs": [],
            "stateMutability": "nonpayable",
            "type": "function"
        },
        {
            "inputs": [
                {
                    "internalType": "address",
                    "name": "ia",
                    "type": "address"
                },
                {
                    "internalType": "uint256",
                    "name": "seqOfDeal",
                    "type": "uint256"
                },
                {
                    "internalType": "string",
                    "name": "hashKey",
                    "type": "string"
                },
                {
                    "internalType": "uint256",
                    "name": "caller",
                    "type": "uint256"
                }
            ],
            "name": "closeDeal",
            "outputs": [],
            "stateMutability": "nonpayable",
            "type": "function"
        },
        {
            "inputs": [
                {
                    "internalType": "uint16",
                    "name": "version",
                    "type": "uint16"
                },
                {
                    "internalType": "uint40",
                    "name": "caller",
                    "type": "uint40"
                }
            ],
            "name": "createIA",
            "outputs": [],
            "stateMutability": "nonpayable",
            "type": "function"
        },
        {
            "inputs": [],
            "name": "finalized",
            "outputs": [
                {
                    "internalType": "bool",
                    "name": "",
                    "type": "bool"
                }
            ],
            "stateMutability": "view",
            "type": "function"
        },
        {
            "inputs": [],
            "name": "getBookeeper",
            "outputs": [
                {
                    "internalType": "address",
                    "name": "",
                    "type": "address"
                }
            ],
            "stateMutability": "view",
            "type": "function"
        },
        {
            "inputs": [],
            "name": "getGeneralCounsel",
            "outputs": [
                {
                    "internalType": "uint40",
                    "name": "",
                    "type": "uint40"
                }
            ],
            "stateMutability": "view",
            "type": "function"
        },
        {
            "inputs": [],
            "name": "getOwner",
            "outputs": [
                {
                    "internalType": "uint40",
                    "name": "",
                    "type": "uint40"
                }
            ],
            "stateMutability": "view",
            "type": "function"
        },
        {
            "inputs": [
                {
                    "internalType": "bytes32",
                    "name": "role",
                    "type": "bytes32"
                },
                {
                    "internalType": "uint256",
                    "name": "acct",
                    "type": "uint256"
                }
            ],
            "name": "grantRole",
            "outputs": [],
            "stateMutability": "nonpayable",
            "type": "function"
        },
        {
            "inputs": [
                {
                    "internalType": "bytes32",
                    "name": "role",
                    "type": "bytes32"
                },
                {
                    "internalType": "uint256",
                    "name": "acct",
                    "type": "uint256"
                }
            ],
            "name": "hasRole",
            "outputs": [
                {
                    "internalType": "bool",
                    "name": "",
                    "type": "bool"
                }
            ],
            "stateMutability": "view",
            "type": "function"
        },
        {
            "inputs": [
                {
                    "internalType": "uint256",
                    "name": "owner",
                    "type": "uint256"
                },
                {
                    "internalType": "address",
                    "name": "directKeeper",
                    "type": "address"
                },
                {
                    "internalType": "address",
                    "name": "regCenter",
                    "type": "address"
                },
                {
                    "internalType": "address",
                    "name": "generalKeeper",
                    "type": "address"
                }
            ],
            "name": "init",
            "outputs": [],
            "stateMutability": "nonpayable",
            "type": "function"
        },
        {
            "inputs": [],
            "name": "initBOA",
            "outputs": [],
            "stateMutability": "nonpayable",
            "type": "function"
        },
        {
            "inputs": [],
            "name": "initBOD",
            "outputs": [],
            "stateMutability": "nonpayable",
            "type": "function"
        },
        {
            "inputs": [],
            "name": "initBOG",
            "outputs": [],
            "stateMutability": "nonpayable",
            "type": "function"
        },
        {
            "inputs": [],
            "name": "initBOH",
            "outputs": [],
            "stateMutability": "nonpayable",
            "type": "function"
        },
        {
            "inputs": [],
            "name": "initBOS",
            "outputs": [],
            "stateMutability": "nonpayable",
            "type": "function"
        },
        {
            "inputs": [],
            "name": "initROM",
            "outputs": [],
            "stateMutability": "nonpayable",
            "type": "function"
        },
        {
            "inputs": [
                {
                    "internalType": "address",
                    "name": "ia",
                    "type": "address"
                },
                {
                    "internalType": "uint256",
                    "name": "seqOfDeal",
                    "type": "uint256"
                }
            ],
            "name": "issueNewShare",
            "outputs": [],
            "stateMutability": "nonpayable",
            "type": "function"
        },
        {
            "inputs": [],
            "name": "lockContents",
            "outputs": [],
            "stateMutability": "nonpayable",
            "type": "function"
        },
        {
            "inputs": [
                {
                    "internalType": "address",
                    "name": "ia",
                    "type": "address"
                },
                {
                    "internalType": "uint256",
                    "name": "seqOfDeal",
                    "type": "uint256"
                },
                {
                    "internalType": "bytes32",
                    "name": "hashLock",
                    "type": "bytes32"
                },
                {
                    "internalType": "uint48",
                    "name": "closingDate",
                    "type": "uint48"
                },
                {
                    "internalType": "uint256",
                    "name": "caller",
                    "type": "uint256"
                }
            ],
            "name": "pushToCoffer",
            "outputs": [],
            "stateMutability": "nonpayable",
            "type": "function"
        },
        {
            "inputs": [
                {
                    "internalType": "bytes32",
                    "name": "role",
                    "type": "bytes32"
                }
            ],
            "name": "renounceRole",
            "outputs": [],
            "stateMutability": "nonpayable",
            "type": "function"
        },
        {
            "inputs": [
                {
                    "internalType": "address",
                    "name": "ia",
                    "type": "address"
                },
                {
                    "internalType": "uint256",
                    "name": "seqOfDeal",
                    "type": "uint256"
                },
                {
                    "internalType": "uint256",
                    "name": "caller",
                    "type": "uint256"
                },
                {
                    "internalType": "string",
                    "name": "hashKey",
                    "type": "string"
                }
            ],
            "name": "revokeDeal",
            "outputs": [],
            "stateMutability": "nonpayable",
            "type": "function"
        },
        {
            "inputs": [
                {
                    "internalType": "bytes32",
                    "name": "role",
                    "type": "bytes32"
                },
                {
                    "internalType": "uint256",
                    "name": "acct",
                    "type": "uint256"
                }
            ],
            "name": "revokeRole",
            "outputs": [],
            "stateMutability": "nonpayable",
            "type": "function"
        },
        {
            "inputs": [
                {
                    "internalType": "address",
                    "name": "keeper",
                    "type": "address"
                }
            ],
            "name": "setDirectKeeper",
            "outputs": [],
            "stateMutability": "nonpayable",
            "type": "function"
        },
        {
            "inputs": [
                {
                    "internalType": "uint256",
                    "name": "acct",
                    "type": "uint256"
                }
            ],
            "name": "setGeneralCounsel",
            "outputs": [],
            "stateMutability": "nonpayable",
            "type": "function"
        },
        {
            "inputs": [
                {
                    "internalType": "uint256",
                    "name": "acct",
                    "type": "uint256"
                }
            ],
            "name": "setOwner",
            "outputs": [],
            "stateMutability": "nonpayable",
            "type": "function"
        },
        {
            "inputs": [
                {
                    "internalType": "bytes32",
                    "name": "role",
                    "type": "bytes32"
                },
                {
                    "internalType": "uint256",
                    "name": "acct",
                    "type": "uint256"
                }
            ],
            "name": "setRoleAdmin",
            "outputs": [],
            "stateMutability": "nonpayable",
            "type": "function"
        },
        {
            "inputs": [
                {
                    "internalType": "address",
                    "name": "ia",
                    "type": "address"
                },
                {
                    "internalType": "uint256",
                    "name": "caller",
                    "type": "uint256"
                },
                {
                    "internalType": "bytes32",
                    "name": "sigHash",
                    "type": "bytes32"
                }
            ],
            "name": "signIA",
            "outputs": [],
            "stateMutability": "nonpayable",
            "type": "function"
        },
        {
            "inputs": [
                {
                    "internalType": "address",
                    "name": "ia",
                    "type": "address"
                },
                {
                    "internalType": "uint256",
                    "name": "seqOfDeal",
                    "type": "uint256"
                },
                {
                    "internalType": "uint256",
                    "name": "caller",
                    "type": "uint256"
                }
            ],
            "name": "terminateDeal",
            "outputs": [],
            "stateMutability": "nonpayable",
            "type": "function"
        },
        {
            "inputs": [
                {
                    "internalType": "address",
                    "name": "ia",
                    "type": "address"
                },
                {
                    "internalType": "uint256",
                    "name": "seqOfDeal",
                    "type": "uint256"
                },
                {
                    "internalType": "uint256",
                    "name": "caller",
                    "type": "uint256"
                }
            ],
            "name": "transferTargetShare",
            "outputs": [],
            "stateMutability": "nonpayable",
            "type": "function"
        }
    ],
    "bytecode": "60a0604052608080601690526200001b90600a9060016200005f565b5060408051606081019091528060188152602001601a8152602001601790526200004a90600b9060036200011d565b503480156200005857600080fd5b50620001c5565b82805482825590600052602060002090601f016020900481019282156200010b5791602002820160005b83821115620000da57835183826101000a81548160ff0219169083601a811115620000b857620000b8620001af565b0217905550926020019260010160208160000104928301926001030262000089565b8015620001095782816101000a81549060ff0219169055600101602081600001049283019260010302620000da565b505b506200011992915062000198565b5090565b82805482825590600052602060002090601f016020900481019282156200010b5791602002820160005b83821115620000da57835183826101000a81548160ff0219169083601a811115620001765762000176620001af565b0217905550926020019260010160208160000104928301926001030262000147565b5b8082111562000119576000815560010162000199565b634e487b7160e01b600052602160045260246000fd5b614e6e80620001d56000396000f3fe608060405234801561001057600080fd5b50600436106101da5760003560e01c8063755514d511610104578063b951cf1d116100a2578063ed21102311610071578063ed211023146103af578063f045a769146103cf578063fa9e7934146103d7578063fbc6362f146103df57600080fd5b8063b951cf1d14610363578063d270be0e14610376578063dc890da914610389578063deeb633f1461039c57600080fd5b80638041494e116100de5780638041494e14610320578063893d20e8146103335780638bb9c5bf1461033b578063b3f05b971461034e57600080fd5b8063755514d5146102d75780637a6ae865146102ea5780637e063c5a146102fd57600080fd5b80634a14beb11161017c5780635ff3fd0f1161014b5780635ff3fd0f146102ac57806362ce0a28146102b457806368258858146102bc5780636be8496f146102c457600080fd5b80634a14beb11461026b5780635171ebd41461027e57806359e25c5d146102915780635f73395e146102a457600080fd5b806325cbca63116101b857806325cbca631461022a5780633c978717146102325780633da9a60014610245578063452558b01461025857600080fd5b8063103f6edd146101df57806319d61ad9146102025780631b6ea9f914610217575b600080fd5b6101e76103f2565b60405164ffffffffff90911681526020015b60405180910390f35b61021561021036600461412e565b61047e565b005b61021561022536600461412e565b610512565b610215610537565b610215610240366004614176565b6105fc565b6102156102533660046141af565b610887565b6102156102663660046141dd565b610999565b6102156102793660046141af565b610d06565b61021561028c36600461412e565b610ef6565b61021561029f366004614209565b610f1b565b61021561119d565b610215611258565b610215611313565b6102156113cb565b6102156102d2366004614244565b611486565b6102156102e5366004614261565b611538565b6102156102f8366004614261565b6116d1565b61031061030b36600461412e565b611a59565b60405190151581526020016101f9565b61021561032e3660046141af565b611af4565b6101e7611cd9565b6102156103493660046141af565b611d14565b600854600160f01b900460ff16600214610310565b610215610371366004614261565b611d6d565b610215610384366004614441565b6121e2565b6102156103973660046144a3565b6125f3565b6102156103aa3660046144f6565b6126d6565b6103b7612a74565b6040516001600160a01b0390911681526020016101f9565b610215612afa565b610215612d18565b6102156103ed36600461456a565b612dd0565b60405163e8c0cc1d60e01b81526008600482015260009073__$364aad554dc80380f414546becdd2c1584$__9063e8c0cc1d906024015b60206040518083038186803b15801561044157600080fd5b505af4158015610455573d6000803e3d6000fd5b505050506040513d601f19601f8201168201806040525081019061047991906145cc565b905090565b73__$364aad554dc80380f414546becdd2c1584$__6382daafaa6008846104a3613243565b6040516001600160e01b031960e086901b1681526004810193909352602483019190915264ffffffffff166044820152606481018490526084015b60006040518083038186803b1580156104f657600080fd5b505af415801561050a573d6000803e3d6000fd5b505050505050565b73__$364aad554dc80380f414546becdd2c1584$__636320d75e6008846104a3613243565b60015460405163e0ff5b8b60e01b8152600360048201526001600160a01b039091169063e0ff5b8b9060240160206040518083038186803b15801561057b57600080fd5b505afa15801561058f573d6000803e3d6000fd5b505050506040513d601f19601f820116820180604052508101906105b391906145ff565b600580546001600160a01b0319166001600160a01b03929092169182179055604051600080516020614e19833981519152916105f2916003919061461c565b60405180910390a1565b604051633b11adbf60e21b81526008600482015233602482015273__$364aad554dc80380f414546becdd2c1584$__9063ec46b6fc9060440160206040518083038186803b15801561064d57600080fd5b505af4158015610661573d6000803e3d6000fd5b505050506040513d601f19601f820116820180604052508101906106859190614648565b6106aa5760405162461bcd60e51b81526004016106a190614663565b60405180910390fd5b60075460405163d50c737760e01b815264ffffffffff831660048201526001600160a01b039091169063d50c73779060240160206040518083038186803b1580156106f457600080fd5b505afa158015610708573d6000803e3d6000fd5b505050506040513d601f19601f8201168201806040525081019061072c9190614648565b61076c5760405162461bcd60e51b815260206004820152601160248201527031b0b63632b9103737ba1026a2a6a122a960791b60448201526064016106a1565b6002546040516378af322960e11b81526014600482015261ffff8416602482015264ffffffffff831660448201526000916001600160a01b03169063f15e645290606401602060405180830381600087803b1580156107ca57600080fd5b505af11580156107de573d6000803e3d6000fd5b505050506040513d601f19601f8201168201806040525081019061080291906145ff565b60005460015460405163dc890da960e01b815264ffffffffff861660048201523060248201526001600160a01b039283166044820152908216606482015291925082169063dc890da9906084015b600060405180830381600087803b15801561086a57600080fd5b505af115801561087e573d6000803e3d6000fd5b50505050505050565b604051633b11adbf60e21b81526008600482015233602482015273__$364aad554dc80380f414546becdd2c1584$__9063ec46b6fc9060440160206040518083038186803b1580156108d857600080fd5b505af41580156108ec573d6000803e3d6000fd5b505050506040513d601f19601f820116820180604052508101906109109190614648565b61092c5760405162461bcd60e51b81526004016106a190614663565b60405163cc99e11b60e01b8152600860048201526024810182905273__$364aad554dc80380f414546becdd2c1584$__9063cc99e11b9060440160006040518083038186803b15801561097e57600080fd5b505af4158015610992573d6000803e3d6000fd5b5050505050565b604051633b11adbf60e21b81526008600482015233602482015273__$364aad554dc80380f414546becdd2c1584$__9063ec46b6fc9060440160206040518083038186803b1580156109ea57600080fd5b505af41580156109fe573d6000803e3d6000fd5b505050506040513d601f19601f82011682018060405250810190610a229190614648565b610a3e5760405162461bcd60e51b81526004016106a190614663565b6040516320bf56eb60e21b8152600481018290526000906001600160a01b038416906382fd5bac906024016101e06040518083038186803b158015610a8257600080fd5b505afa158015610a96573d6000803e3d6000fd5b505050506040513d601f19601f82011682018060405250810190610aba91906147b2565b9050610b2a60408051610100810182526000918101828152606082018390526080820183905260a0820183905260c0820183905260e082019290925290819081526040805160a0810182526000808252602082810182905292820181905260608201819052608082015291015290565b6040518060c00160405280600063ffffffff168152602001600063ffffffff16815260200183600001516060015161ffff1681526020014265ffffffffffff16815260200183602001516000015164ffffffffff168152602001836000015160c0015163ffffffff1681525081600001819052506040518060a001604052804261a8c0610bb79190614883565b65ffffffffffff9081168252602085810180516040908101516001600160401b0390811684870152825160609081015182168388015292518201518116838701526000608096870152878401968752600654825163773850eb60e01b81528951805163ffffffff908116600484015281880151811660248401528186015161ffff1660448401528187015189166064840152818a015164ffffffffff16608484015260a0909101511660a48201529751805190961660c489015293850151811660e4880152908401518116610104870152908301511661012485015291015160ff166101448301526001600160a01b03169063773850eb906101640161016060405180830381600087803b158015610cce57600080fd5b505af1158015610ce2573d6000803e3d6000fd5b505050506040513d601f19601f820116820180604052508101906109929190614920565b604051633b11adbf60e21b81526008600482015233602482015273__$364aad554dc80380f414546becdd2c1584$__9063ec46b6fc9060440160206040518083038186803b158015610d5757600080fd5b505af4158015610d6b573d6000803e3d6000fd5b505050506040513d601f19601f82011682018060405250810190610d8f9190614648565b80610e34575073__$364aad554dc80380f414546becdd2c1584$__63fe2710866008610db9613243565b6040516001600160e01b031960e085901b168152600481019290925264ffffffffff16602482015260440160206040518083038186803b158015610dfc57600080fd5b505af4158015610e10573d6000803e3d6000fd5b505050506040513d601f19601f82011682018060405250810190610e349190614648565b610e505760405162461bcd60e51b81526004016106a1906149d7565b604051632725ebef60e21b8152600860048201526024810182905273__$364aad554dc80380f414546becdd2c1584$__90639c97afbc9060440160006040518083038186803b158015610ea257600080fd5b505af4158015610eb6573d6000803e3d6000fd5b505050507ff2735f34b69be1e6342dea95f9162f84d0db925fab655ca9f1f312ac8cbfc99d81604051610eeb91815260200190565b60405180910390a150565b73__$364aad554dc80380f414546becdd2c1584$__63ee98b3136008846104a3613243565b604051633b11adbf60e21b81526008600482015233602482015273__$364aad554dc80380f414546becdd2c1584$__9063ec46b6fc9060440160206040518083038186803b158015610f6c57600080fd5b505af4158015610f80573d6000803e3d6000fd5b505050506040513d601f19601f82011682018060405250810190610fa49190614648565b610fc05760405162461bcd60e51b81526004016106a190614663565b838380826001600160a01b031663893d20e86040518163ffffffff1660e01b815260040160206040518083038186803b158015610ffc57600080fd5b505afa158015611010573d6000803e3d6000fd5b505050506040513d601f19601f8201168201806040525081019061103491906145cc565b64ffffffffff161461107b5760405162461bcd60e51b815260206004820152601060248201526f4e4f54204f776e6572206f6620446f6360801b60448201526064016106a1565b856001600160a01b031663f045a7696040518163ffffffff1660e01b8152600401600060405180830381600087803b1580156110b657600080fd5b505af11580156110ca573d6000803e3d6000fd5b5050604051634020a4a760e11b8152600060048201526001600160a01b0389169250638041494e9150602401600060405180830381600087803b15801561111057600080fd5b505af1158015611124573d6000803e3d6000fd5b5050600254604051638506c43f60e01b81526001600160a01b038a8116600483015260248201899052604482018890529091169250638506c43f9150606401600060405180830381600087803b15801561117d57600080fd5b505af1158015611191573d6000803e3d6000fd5b50505050505050505050565b60015460405163e0ff5b8b60e01b8152600060048201526001600160a01b039091169063e0ff5b8b9060240160206040518083038186803b1580156111e157600080fd5b505afa1580156111f5573d6000803e3d6000fd5b505050506040513d601f19601f8201168201806040525081019061121991906145ff565b600280546001600160a01b0319166001600160a01b03929092169182179055604051600080516020614e19833981519152916105f2916000919061461c565b6001805460405163e0ff5b8b60e01b815260048101929092526001600160a01b03169063e0ff5b8b9060240160206040518083038186803b15801561129c57600080fd5b505afa1580156112b0573d6000803e3d6000fd5b505050506040513d601f19601f820116820180604052508101906112d491906145ff565b600380546001600160a01b0319166001600160a01b03929092169182179055604051600080516020614e19833981519152916105f2916001919061461c565b60015460405163e0ff5b8b60e01b8152600660048201526001600160a01b039091169063e0ff5b8b9060240160206040518083038186803b15801561135757600080fd5b505afa15801561136b573d6000803e3d6000fd5b505050506040513d601f19601f8201168201806040525081019061138f91906145ff565b600680546001600160a01b0319166001600160a01b03929092169182178155604051600080516020614e19833981519152926105f2929161461c565b60015460405163e0ff5b8b60e01b8152600260048201526001600160a01b039091169063e0ff5b8b9060240160206040518083038186803b15801561140f57600080fd5b505afa158015611423573d6000803e3d6000fd5b505050506040513d601f19601f8201168201806040525081019061144791906145ff565b600480546001600160a01b0319166001600160a01b03929092169182179055604051600080516020614e19833981519152916105f2916002919061461c565b604051630f07232560e01b8152600860048201523360248201526001600160a01b038216604482015273__$364aad554dc80380f414546becdd2c1584$__90630f0723259060640160006040518083038186803b1580156114e657600080fd5b505af41580156114fa573d6000803e3d6000fd5b50506040516001600160a01b03841681527fe435cbeab64e4eae6497b9d8289704bd709d624a80704ef3ca9af777534bc6ec92506020019050610eeb565b604051633b11adbf60e21b81526008600482015233602482015273__$364aad554dc80380f414546becdd2c1584$__9063ec46b6fc9060440160206040518083038186803b15801561158957600080fd5b505af415801561159d573d6000803e3d6000fd5b505050506040513d601f19601f820116820180604052508101906115c19190614648565b6115dd5760405162461bcd60e51b81526004016106a190614663565b60405163cdf4b38760e01b8152600481018390526000906001600160a01b0385169063cdf4b387906024016101206040518083038186803b15801561162157600080fd5b505afa158015611635573d6000803e3d6000fd5b505050506040513d601f19601f820116820180604052508101906116599190614a2d565b90508060a0015164ffffffffff1682146116b55760405162461bcd60e51b815260206004820152601a60248201527f424f414b2e5454533a206e6f742073656c6c65724f664465616c00000000000060448201526064016106a1565b6116c18484600161329d565b6116cb84846138eb565b50505050565b604051633b11adbf60e21b81526008600482015233602482015273__$364aad554dc80380f414546becdd2c1584$__9063ec46b6fc9060440160206040518083038186803b15801561172257600080fd5b505af4158015611736573d6000803e3d6000fd5b505050506040513d601f19601f8201168201806040525081019061175a9190614648565b6117765760405162461bcd60e51b81526004016106a190614663565b6040516308c5f91760e41b815260048101839052839083906001600160a01b03831690638c5f91709060240160206040518083038186803b1580156117ba57600080fd5b505afa1580156117ce573d6000803e3d6000fd5b505050506040513d601f19601f820116820180604052508101906117f29190614648565b6118315760405162461bcd60e51b815260206004820152601060248201526f4e4f54205061727479206f6620446f6360801b60448201526064016106a1565b600280546040516337066e9d60e11b81526001600160a01b03888116600483015290911690636e0cdd3a9060240160806040518083038186803b15801561187757600080fd5b505afa15801561188b573d6000803e3d6000fd5b505050506040513d601f19601f820116820180604052508101906118af9190614a4a565b6060015160ff16146119035760405162461bcd60e51b815260206004820152601a60248201527f4941206e6f7420696e2043697263756c6174656420537461746500000000000060448201526064016106a1565b61190d8585613a6b565b604051630cac562d60e11b81526001600482015260248101859052604481018490526001600160a01b03861690631958ac5a90606401600060405180830381600087803b15801561195d57600080fd5b505af1158015611971573d6000803e3d6000fd5b50505050846001600160a01b0316634844f5416040518163ffffffff1660e01b815260040160206040518083038186803b1580156119ae57600080fd5b505afa1580156119c2573d6000803e3d6000fd5b505050506040513d601f19601f820116820180604052508101906119e69190614648565b156109925760025460405163511b707d60e01b81526001600160a01b038781166004830152600360248301529091169063511b707d906044015b600060405180830381600087803b158015611a3a57600080fd5b505af1158015611a4e573d6000803e3d6000fd5b505050505050505050565b604051632a3be56b60e21b815260086004820152602481018390526044810182905260009073__$364aad554dc80380f414546becdd2c1584$__9063a8ef95ac9060640160206040518083038186803b158015611ab557600080fd5b505af4158015611ac9573d6000803e3d6000fd5b505050506040513d601f19601f82011682018060405250810190611aed9190614648565b9392505050565b604051633b11adbf60e21b81526008600482015233602482015273__$364aad554dc80380f414546becdd2c1584$__9063ec46b6fc9060440160206040518083038186803b158015611b4557600080fd5b505af4158015611b59573d6000803e3d6000fd5b505050506040513d601f19601f82011682018060405250810190611b7d9190614648565b80611c22575073__$364aad554dc80380f414546becdd2c1584$__63fe2710866008611ba7613243565b6040516001600160e01b031960e085901b168152600481019290925264ffffffffff16602482015260440160206040518083038186803b158015611bea57600080fd5b505af4158015611bfe573d6000803e3d6000fd5b505050506040513d601f19601f82011682018060405250810190611c229190614648565b611c3e5760405162461bcd60e51b81526004016106a1906149d7565b60405163b6e38a2960e01b8152600860048201526024810182905273__$364aad554dc80380f414546becdd2c1584$__9063b6e38a299060440160006040518083038186803b158015611c9057600080fd5b505af4158015611ca4573d6000803e3d6000fd5b505050507f8b6f40f36b4ae8cc5f55e895036457c43da4ab1f80f58c46f5ff0d72a650033b81604051610eeb91815260200190565b60405163987ad15360e01b81526008600482015260009073__$364aad554dc80380f414546becdd2c1584$__9063987ad15390602401610429565b6000611d1e613243565b60405163cc0d511b60e01b8152600860048201526024810184905264ffffffffff8216604482015290915073__$364aad554dc80380f414546becdd2c1584$__9063cc0d511b906064016104de565b604051633b11adbf60e21b81526008600482015233602482015273__$364aad554dc80380f414546becdd2c1584$__9063ec46b6fc9060440160206040518083038186803b158015611dbe57600080fd5b505af4158015611dd2573d6000803e3d6000fd5b505050506040513d601f19601f82011682018060405250810190611df69190614648565b611e125760405162461bcd60e51b81526004016106a190614663565b600280546040516337066e9d60e11b81526001600160a01b03868116600483015290911690636e0cdd3a9060240160806040518083038186803b158015611e5857600080fd5b505afa158015611e6c573d6000803e3d6000fd5b505050506040513d601f19601f82011682018060405250810190611e909190614a4a565b6060015160ff161015611edc5760405162461bcd60e51b8152602060048201526014602482015273424f414b2e54443a2077726f6e6720537461746560601b60448201526064016106a1565b6002546040516337066e9d60e11b81526001600160a01b0385811660048301526006921690636e0cdd3a9060240160806040518083038186803b158015611f2257600080fd5b505afa158015611f36573d6000803e3d6000fd5b505050506040513d601f19601f82011682018060405250810190611f5a9190614a4a565b6060015160ff1610611fa55760405162461bcd60e51b8152602060048201526014602482015273424f414b2e54443a2077726f6e6720537461746560601b60448201526064016106a1565b6040516320bf56eb60e21b8152600481018390526000906001600160a01b038516906382fd5bac906024016101e06040518083038186803b158015611fe957600080fd5b505afa158015611ffd573d6000803e3d6000fd5b505050506040513d601f19601f8201168201806040525081019061202191906147b2565b805160a0015190915064ffffffffff1682146120755760405162461bcd60e51b81526020600482015260136024820152722127a0a5972a221d102727aa1039b2b63632b960691b60448201526064016106a1565b604051637b019deb60e01b8152600481018490526001600160a01b03851690637b019deb90602401602060405180830381600087803b1580156120b757600080fd5b505af11580156120cb573d6000803e3d6000fd5b505050506040513d601f19601f820116820180604052508101906120ef9190614648565b156116cb5760025460405163511b707d60e01b81526001600160a01b038681166004830152600660248301529091169063511b707d90604401600060405180830381600087803b15801561214257600080fd5b505af1158015612156573d6000803e3d6000fd5b505060065483516080015160208501516040908101519051632d42818760e21b815263ffffffff90921660048301526001600160401b031660248201526001600160a01b03909116925063b50a061c9150604401600060405180830381600087803b1580156121c457600080fd5b505af11580156121d8573d6000803e3d6000fd5b5050505050505050565b604051633b11adbf60e21b81526008600482015233602482015273__$364aad554dc80380f414546becdd2c1584$__9063ec46b6fc9060440160206040518083038186803b15801561223357600080fd5b505af4158015612247573d6000803e3d6000fd5b505050506040513d601f19601f8201168201806040525081019061226b9190614648565b6122875760405162461bcd60e51b81526004016106a190614663565b6002546040516337066e9d60e11b81526001600160a01b0386811660048301526005921690636e0cdd3a9060240160806040518083038186803b1580156122cd57600080fd5b505afa1580156122e1573d6000803e3d6000fd5b505050506040513d601f19601f820116820180604052508101906123059190614a4a565b6060015160ff16146123635760405162461bcd60e51b815260206004820152602160248201527f424f414b65657065722e7265766f6b654465616c3a2077726f6e6720537461746044820152606560f81b60648201526084016106a1565b6040516320bf56eb60e21b8152600481018490526000906001600160a01b038616906382fd5bac906024016101e06040518083038186803b1580156123a757600080fd5b505afa1580156123bb573d6000803e3d6000fd5b505050506040513d601f19601f820116820180604052508101906123df91906147b2565b805160a0015190915064ffffffffff1683146124335760405162461bcd60e51b81526020600482015260136024820152722127a0a59729221d102727aa1039b2b63632b960691b60448201526064016106a1565b60405163147e285960e21b81526001600160a01b038616906351f8a164906124619087908690600401614aa6565b602060405180830381600087803b15801561247b57600080fd5b505af115801561248f573d6000803e3d6000fd5b505050506040513d601f19601f820116820180604052508101906124b39190614648565b1561251f5760025460405163511b707d60e01b81526001600160a01b038781166004830152600660248301529091169063511b707d90604401600060405180830381600087803b15801561250657600080fd5b505af115801561251a573d6000803e3d6000fd5b505050505b604051633f5de8b560e11b8152600481018590526001600160a01b03861690637ebbd16a90602401602060405180830381600087803b15801561256157600080fd5b505af1158015612575573d6000803e3d6000fd5b505050506040513d601f19601f820116820180604052508101906125999190614648565b156109925760065481516080015160208301516040908101519051632d42818760e21b815263ffffffff90921660048301526001600160401b031660248201526001600160a01b039091169063b50a061c90604401611a20565b6125fc82613d67565b61260581613e16565b604051636cdd0edf60e11b815260086004820152602481018590526001600160a01b038416604482015273__$364aad554dc80380f414546becdd2c1584$__9063d9ba1dbe9060640160006040518083038186803b15801561266657600080fd5b505af415801561267a573d6000803e3d6000fd5b5050604080518781526001600160a01b038781166020830152868116828401528516606082015290517f3abb2418c66fe32ba9c883030a75ce583971d9af9192b9b74e44e67c5e6c8c1f9350908190036080019150a150505050565b604051633b11adbf60e21b81526008600482015233602482015273__$364aad554dc80380f414546becdd2c1584$__9063ec46b6fc9060440160206040518083038186803b15801561272757600080fd5b505af415801561273b573d6000803e3d6000fd5b505050506040513d601f19601f8201168201806040525081019061275f9190614648565b61277b5760405162461bcd60e51b81526004016106a190614663565b6002546040516337066e9d60e11b81526001600160a01b0386811660048301526005921690636e0cdd3a9060240160806040518083038186803b1580156127c157600080fd5b505afa1580156127d5573d6000803e3d6000fd5b505050506040513d601f19601f820116820180604052508101906127f99190614a4a565b6060015160ff16146128735760405162461bcd60e51b815260206004820152603b60248201527f424f414b65657065722e636c6f73654465616c3a20496e766573746d656e744160448201527f677265656d656e74204e4f5420696e20766f746564207374617465000000000060648201526084016106a1565b6040516320bf56eb60e21b8152600481018490526000906001600160a01b038616906382fd5bac906024016101e06040518083038186803b1580156128b757600080fd5b505afa1580156128cb573d6000803e3d6000fd5b505050506040513d601f19601f820116820180604052508101906128ef91906147b2565b60208101515190915064ffffffffff16821461295e5760405162461bcd60e51b815260206004820152602860248201527f424f414b65657065722e636c6f73654465616c3a2063616c6c6572206973204e60448201526727aa10313abcb2b960c11b60648201526084016106a1565b60405163c9852ee360e01b81526001600160a01b0386169063c9852ee39061298c9087908790600401614aa6565b602060405180830381600087803b1580156129a657600080fd5b505af11580156129ba573d6000803e3d6000fd5b505050506040513d601f19601f820116820180604052508101906129de9190614648565b15612a4a5760025460405163511b707d60e01b81526001600160a01b038781166004830152600660248301529091169063511b707d90604401600060405180830381600087803b158015612a3157600080fd5b505af1158015612a45573d6000803e3d6000fd5b505050505b80516080015163ffffffff1615612a6a57612a6585856138eb565b610992565b6109928585610999565b604051633c3e56c160e11b81526008600482015260009073__$364aad554dc80380f414546becdd2c1584$__9063787cad829060240160206040518083038186803b158015612ac257600080fd5b505af4158015612ad6573d6000803e3d6000fd5b505050506040513d601f19601f8201168201806040525081019061047991906145ff565b604051633b11adbf60e21b81526008600482015233602482015273__$364aad554dc80380f414546becdd2c1584$__9063ec46b6fc9060440160206040518083038186803b158015612b4b57600080fd5b505af4158015612b5f573d6000803e3d6000fd5b505050506040513d601f19601f82011682018060405250810190612b839190614648565b612b9f5760405162461bcd60e51b81526004016106a190614663565b600854600160f01b900460ff16600114612bfb5760405162461bcd60e51b815260206004820181905260248201527f41432e6f6e6c7950656e64696e673a20446f632069732066696e616c697a656460448201526064016106a1565b60405163cc99e11b60e01b815260086004820152684174746f726e65797360b81b602482015273__$364aad554dc80380f414546becdd2c1584$__9063cc99e11b9060440160006040518083038186803b158015612c5857600080fd5b505af4158015612c6c573d6000803e3d6000fd5b5050604051632725ebef60e21b8152600860048201526000602482015273__$364aad554dc80380f414546becdd2c1584$__9250639c97afbc915060440160006040518083038186803b158015612cc257600080fd5b505af4158015612cd6573d6000803e3d6000fd5b50506008805460ff60f01b1916600160f11b17905550506040517f35012b512309c322acf68632cd6cb702ff0e1d776fbe9394e38ffc13b434fe7590600090a1565b60015460405163e0ff5b8b60e01b8152600760048201526001600160a01b039091169063e0ff5b8b9060240160206040518083038186803b158015612d5c57600080fd5b505afa158015612d70573d6000803e3d6000fd5b505050506040513d601f19601f82011682018060405250810190612d9491906145ff565b600780546001600160a01b0319166001600160a01b03929092169182178155604051600080516020614e19833981519152926105f2929161461c565b604051633b11adbf60e21b81526008600482015233602482015273__$364aad554dc80380f414546becdd2c1584$__9063ec46b6fc9060440160206040518083038186803b158015612e2157600080fd5b505af4158015612e35573d6000803e3d6000fd5b505050506040513d601f19601f82011682018060405250810190612e599190614648565b612e755760405162461bcd60e51b81526004016106a190614663565b6002546040516337066e9d60e11b81526001600160a01b0387811660048301526005921690636e0cdd3a9060240160806040518083038186803b158015612ebb57600080fd5b505afa158015612ecf573d6000803e3d6000fd5b505050506040513d601f19601f82011682018060405250810190612ef39190614a4a565b6060015160ff1614612f3c5760405162461bcd60e51b81526020600482015260126024820152711ddc9bdb99c81cdd185d19481bd9881093d160721b60448201526064016106a1565b60405163ccb2f41560e01b8152600160048201526001600160a01b0386169063ccb2f4159060240160806040518083038186803b158015612f7c57600080fd5b505afa158015612f90573d6000803e3d6000fd5b505050506040513d601f19601f82011682018060405250810190612fb49190614b03565b6040015165ffffffffffff168265ffffffffffff1611156130175760405162461bcd60e51b815260206004820152601f60248201527f636c6f73696e6744617465204c41544552207468616e20646561646c696e650060448201526064016106a1565b60405163cdf4b38760e01b8152600481018590526000906001600160a01b0387169063cdf4b387906024016101206040518083038186803b15801561305b57600080fd5b505afa15801561306f573d6000803e3d6000fd5b505050506040513d601f19601f820116820180604052508101906130939190614a2d565b608081015190915063ffffffff16158015906130ff578160a0015164ffffffffff1683146130fa5760405162461bcd60e51b81526020600482015260146024820152732127a0a597282a219d103737ba1039b2b63632b960611b60448201526064016106a1565b6131c0565b60035460405163492c77ff60e11b8152600481018590526001600160a01b0390911690639258effe9060240160206040518083038186803b15801561314357600080fd5b505afa158015613157573d6000803e3d6000fd5b505050506040513d601f19601f8201168201806040525081019061317b9190614648565b6131c05760405162461bcd60e51b81526020600482015260166024820152752127a0a597282a219d103737ba103234b932b1ba37b960511b60448201526064016106a1565b6131cb87878361329d565b60405163a3dd2b7160e01b8152600481018790526024810186905265ffffffffffff851660448201526001600160a01b0388169063a3dd2b7190606401600060405180830381600087803b15801561322257600080fd5b505af1158015613236573d6000803e3d6000fd5b5050505050505050505050565b60008054604051636ae3b70d60e11b81523360048201526001600160a01b039091169063d5c76e1a90602401602060405180830381600087803b15801561328957600080fd5b505af1158015610455573d6000803e3d6000fd5b6000836001600160a01b031663c0961f7f6040518163ffffffff1660e01b815260040160206040518083038186803b1580156132d857600080fd5b505afa1580156132ec573d6000803e3d6000fd5b505050506040513d601f19601f820116820180604052508101906133109190614b62565b60ff169050600061331f613ecd565b6001600160a01b03166348462037836040518263ffffffff1660e01b815260040161334c91815260200190565b60206040518083038186803b15801561336457600080fd5b505afa158015613378573d6000803e3d6000fd5b505050506040513d601f19601f8201168201806040525081019061339c9190614b7d565b60405163d1296c8f60e01b8152600481019190915273__$9d2c69e94fee47b9774dc8db4aa5c0bbec$__9063d1296c8f906024016102206040518083038186803b1580156133e957600080fd5b505af41580156133fd573d6000803e3d6000fd5b505050506040513d601f19601f820116820180604052508101906134219190614c0c565b905060008160a0015161ffff16118061344257506000816080015161ffff16115b156137d057806060015160ff16600114156135275760048054604051634940318360e01b81526001600160a01b038881169382019390935291169063494031839060240160206040518083038186803b15801561349e57600080fd5b505afa1580156134b2573d6000803e3d6000fd5b505050506040513d601f19601f820116820180604052508101906134d69190614648565b6135225760405162461bcd60e51b815260206004820152601f60248201527f424f414b2e7074633a2020474d204d6f74696f6e204e4f54207061737365640060448201526064016106a1565b6137d0565b806060015160ff166002141561360b57600354604051634940318360e01b81526001600160a01b0387811660048301529091169063494031839060240160206040518083038186803b15801561357c57600080fd5b505afa158015613590573d6000803e3d6000fd5b505050506040513d601f19601f820116820180604052508101906135b49190614648565b6135225760405162461bcd60e51b815260206004820152602260248201527f424f414b2e7074633a2020426f617264204d6f74696f6e204e4f542070617373604482015261195960f21b60648201526084016106a1565b806060015160ff16600314156137795760048054604051634940318360e01b81526001600160a01b038881169382019390935291169063494031839060240160206040518083038186803b15801561366257600080fd5b505afa158015613676573d6000803e3d6000fd5b505050506040513d601f19601f8201168201806040525081019061369a9190614648565b801561371e5750600354604051634940318360e01b81526001600160a01b0387811660048301529091169063494031839060240160206040518083038186803b1580156136e657600080fd5b505afa1580156136fa573d6000803e3d6000fd5b505050506040513d601f19601f8201168201806040525081019061371e9190614648565b6135225760405162461bcd60e51b815260206004820152602660248201527f424f414b2e7074633a20426f61726420616e6420474d206e6f7420424f5448206044820152651c185cdcd95960d21b60648201526084016106a1565b60405162461bcd60e51b815260206004820152602660248201527f424f414b2e7074633a2077726f6e67206465636973696f6e20706f7765722073604482015265657474696e6760d01b60648201526084016106a1565b821561386157612a65600b80548060200260200160405190810160405280929190818152602001828054801561385557602002820191906000526020600020906000905b82829054906101000a900460ff16601a811115613833576138336145e9565b8152602060019283018181049485019490930390920291018084116138145790505b50505050508686613f26565b610992600a80548060200260200160405190810160405280929190818152602001828054801561385557602002820191906000526020600020906000905b82829054906101000a900460ff16601a8111156138be576138be6145e9565b81526020600192830181810494850194909303909202910180841161389f57905050505050508686613f26565b6040516320bf56eb60e21b8152600481018290526000906001600160a01b038416906382fd5bac906024016101e06040518083038186803b15801561392f57600080fd5b505afa158015613943573d6000803e3d6000fd5b505050506040513d601f19601f8201168201806040525081019061396791906147b2565b60065481516080015160208301516040908101519051632d42818760e21b815263ffffffff90921660048301526001600160401b031660248201529192506001600160a01b03169063b50a061c90604401600060405180830381600087803b1580156139d257600080fd5b505af11580156139e6573d6000803e3d6000fd5b50506006548351608081015160208601516040808201516060830151925160c090950151915163f0d6c10960e01b815263ffffffff94851660048201526001600160401b0391821660248201529216604483015264ffffffffff9093166064820152911660848201526001600160a01b03909116925063f0d6c109915060a401610850565b6000826001600160a01b031663e87a6f186040518163ffffffff1660e01b815260040160006040518083038186803b158015613aa657600080fd5b505afa158015613aba573d6000803e3d6000fd5b505050506040513d6000823e601f3d908101601f19168201604052613ae29190810190614d2f565b80519091505b80156116cb57600082613afc600184614dd4565b81518110613b0c57613b0c614deb565b602002602001015190508180613b2190614e01565b6040516320bf56eb60e21b815260048101849052909350600091506001600160a01b038716906382fd5bac906024016101e06040518083038186803b158015613b6957600080fd5b505afa158015613b7d573d6000803e3d6000fd5b505050506040513d601f19601f82011682018060405250810190613ba191906147b2565b805160a0015190915064ffffffffff16851415613cbf576040516326a69e9160e21b8152600481018390526001600160a01b03871690639a9a7a4490602401602060405180830381600087803b158015613bfa57600080fd5b505af1158015613c0e573d6000803e3d6000fd5b505050506040513d601f19601f82011682018060405250810190613c329190614648565b15613cba576006548151608001516020830151604090810151905163020ddf3160e11b815263ffffffff90921660048301526001600160401b031660248201526001600160a01b039091169063041bbe6290604401600060405180830381600087803b158015613ca157600080fd5b505af1158015613cb5573d6000803e3d6000fd5b505050505b613d60565b60208101515164ffffffffff1685148015613cdf575080515160ff166001145b15613d60576040516326a69e9160e21b8152600481018390526001600160a01b03871690639a9a7a4490602401602060405180830381600087803b158015613d2657600080fd5b505af1158015613d3a573d6000803e3d6000fd5b505050506040513d601f19601f82011682018060405250810190613d5e9190614648565b505b5050613ae8565b6000546001600160a01b031615613db85760405162461bcd60e51b815260206004820152601560248201527430b63932b0b23c9039b2ba103932b3a1b2b73a32b960591b60448201526064016106a1565b6040516001600160a01b03821681527f318da6c7624c71cbc0afe346c9d8827f119d0ecefb241a7b0c87217a076a8e029060200160405180910390a1600080546001600160a01b0319166001600160a01b0392909216919091179055565b6001546001600160a01b031615613e6f5760405162461bcd60e51b815260206004820152601960248201527f616c7265616479207365742067656e6572616c4b65657065720000000000000060448201526064016106a1565b6040516001600160a01b03821681527fe513d3e0f0d0a3877029dcc588748679a7a3450ec1ec7ed56d96bd012c3e61aa9060200160405180910390a1600180546001600160a01b0319166001600160a01b0392909216919091179055565b60055460408051630bd7cecf60e21b815290516000926001600160a01b031691632f5f3b3c916004808301926020929190829003018186803b158015613f1257600080fd5b505afa158015612ad6573d6000803e3d6000fd5b82515b80156116cb57613f37613ecd565b6001600160a01b0316637176544985613f51600185614dd4565b81518110613f6157613f61614deb565b6020026020010151601a811115613f7a57613f7a6145e9565b6040516001600160e01b031960e084901b16815260ff909116600482015260240160206040518083038186803b158015613fb357600080fd5b505afa158015613fc7573d6000803e3d6000fd5b505050506040513d601f19601f82011682018060405250810190613feb9190614648565b1561411c57613ff8613ecd565b6001600160a01b0316635d24f35b85614012600185614dd4565b8151811061402257614022614deb565b6020026020010151601a81111561403b5761403b6145e9565b6040516001600160e01b031960e084901b16815260ff90911660048201526001600160a01b03861660248201526044810185905260640160206040518083038186803b15801561408a57600080fd5b505afa15801561409e573d6000803e3d6000fd5b505050506040513d601f19601f820116820180604052508101906140c29190614648565b61411c5760405162461bcd60e51b815260206004820152602560248201527f424f414b2e5054433a20534841206f626c69676174696f6e206e6f74206578656044820152641b5c1d195960da1b60648201526084016106a1565b8061412681614e01565b915050613f29565b6000806040838503121561414157600080fd5b50508035926020909101359150565b61ffff8116811461416057600080fd5b50565b64ffffffffff8116811461416057600080fd5b6000806040838503121561418957600080fd5b823561419481614150565b915060208301356141a481614163565b809150509250929050565b6000602082840312156141c157600080fd5b5035919050565b6001600160a01b038116811461416057600080fd5b600080604083850312156141f057600080fd5b82356141fb816141c8565b946020939093013593505050565b6000806000806080858703121561421f57600080fd5b843561422a816141c8565b966020860135965060408601359560600135945092505050565b60006020828403121561425657600080fd5b8135611aed816141c8565b60008060006060848603121561427657600080fd5b8335614281816141c8565b95602085013595506040909401359392505050565b634e487b7160e01b600052604160045260246000fd5b60405161012081016001600160401b03811182821017156142cf576142cf614296565b60405290565b604051606081016001600160401b03811182821017156142cf576142cf614296565b60405160a081016001600160401b03811182821017156142cf576142cf614296565b604080519081016001600160401b03811182821017156142cf576142cf614296565b60405160c081016001600160401b03811182821017156142cf576142cf614296565b604051608081016001600160401b03811182821017156142cf576142cf614296565b6040516101e081016001600160401b03811182821017156142cf576142cf614296565b604051601f8201601f191681016001600160401b03811182821017156143ca576143ca614296565b604052919050565b600082601f8301126143e357600080fd5b81356001600160401b038111156143fc576143fc614296565b61440f601f8201601f19166020016143a2565b81815284602083860101111561442457600080fd5b816020850160208301376000918101602001919091529392505050565b6000806000806080858703121561445757600080fd5b8435614462816141c8565b9350602085013592506040850135915060608501356001600160401b0381111561448b57600080fd5b614497878288016143d2565b91505092959194509250565b600080600080608085870312156144b957600080fd5b8435935060208501356144cb816141c8565b925060408501356144db816141c8565b915060608501356144eb816141c8565b939692955090935050565b6000806000806080858703121561450c57600080fd5b8435614517816141c8565b93506020850135925060408501356001600160401b0381111561453957600080fd5b614545878288016143d2565b949793965093946060013593505050565b65ffffffffffff8116811461416057600080fd5b600080600080600060a0868803121561458257600080fd5b853561458d816141c8565b9450602086013593506040860135925060608601356145ab81614556565b949793965091946080013592915050565b80516145c781614163565b919050565b6000602082840312156145de57600080fd5b8151611aed81614163565b634e487b7160e01b600052602160045260246000fd5b60006020828403121561461157600080fd5b8151611aed816141c8565b60ff9290921682526001600160a01b0316602082015260400190565b805180151581146145c757600080fd5b60006020828403121561465a57600080fd5b611aed82614638565b60208082526026908201527f41432e6f6e6c794469726563744b65657065723a206e6f74206469726563742060408201526535b2b2b832b960d11b606082015260800190565b805160ff811681146145c757600080fd5b80516145c781614150565b805163ffffffff811681146145c757600080fd5b80516145c781614556565b600061012082840312156146f757600080fd5b6146ff6142ac565b905061470a826146a9565b8152614718602083016146ba565b6020820152614729604083016146ba565b604082015261473a606083016146ba565b606082015261474b608083016146c5565b608082015261475c60a083016145bc565b60a082015261476d60c083016146c5565b60c082015261477e60e083016146c5565b60e08201526101006147918184016146d9565b9082015292915050565b80516001600160401b03811681146145c757600080fd5b60008183036101e08112156147c657600080fd5b6147ce6142d5565b6147d885856146e4565b815260a061011f19830112156147ed57600080fd5b6147f56142f7565b915061012084015161480681614163565b825261014084015161481781614163565b6020830152614829610160850161479b565b604083015261483b610180850161479b565b606083015261484d6101a085016146a9565b608083015260208101919091526101c09290920151604083015250919050565b634e487b7160e01b600052601160045260246000fd5b600065ffffffffffff8083168185168083038211156148a4576148a461486d565b01949350505050565b600060a082840312156148bf57600080fd5b6148c76142f7565b905081516148d481614556565b81526148e26020830161479b565b60208201526148f36040830161479b565b60408201526149046060830161479b565b6060820152614915608083016146a9565b608082015292915050565b600081830361016081121561493457600080fd5b61493c614319565b60c082121561494a57600080fd5b61495261433b565b915061495d846146c5565b825261496b602085016146c5565b6020830152604084015161497e81614150565b6040830152606084015161499181614556565b606083015260808401516149a481614163565b60808301526149b560a085016146c5565b60a08301528181526149ca8560c086016148ad565b6020820152949350505050565b60208082526036908201527f41432e6f776e65724f72446972656374426f6f6b65657065723a206e6569746860408201527532b91037bbb732b9103737b9103137b7b5b2b2b832b960511b606082015260800190565b60006101208284031215614a4057600080fd5b611aed83836146e4565b600060808284031215614a5c57600080fd5b614a6461435d565b825181526020830151614a7681614556565b60208201526040830151614a8981614556565b6040820152614a9a606084016146a9565b60608201529392505050565b82815260006020604081840152835180604085015260005b81811015614ada57858101830151858201606001528201614abe565b81811115614aec576000606083870101525b50601f01601f191692909201606001949350505050565b600060808284031215614b1557600080fd5b614b1d61435d565b8251614b2881614163565b81526020830151614b3881614556565b6020820152614b496040840161479b565b6040820152606083015160608201528091505092915050565b600060208284031215614b7457600080fd5b611aed826146a9565b600060208284031215614b8f57600080fd5b5051919050565b600082601f830112614ba757600080fd5b604051606081018181106001600160401b0382111715614bc957614bc9614296565b604052806060840185811115614bde57600080fd5b845b81811015614c01578051614bf381614163565b835260209283019201614be0565b509195945050505050565b60006102208284031215614c1f57600080fd5b614c2761437f565b614c30836146ba565b8152614c3e602084016146a9565b6020820152614c4f604084016146a9565b6040820152614c60606084016146a9565b6060820152614c71608084016146ba565b6080820152614c8260a084016146ba565b60a0820152614c9360c08401614638565b60c0820152614ca460e08401614638565b60e0820152610100614cb7818501614638565b90820152610120614cc9848201614638565b90820152610140614cdb8482016146a9565b90820152610160614ced8482016146a9565b90820152610180614cff8482016146a9565b908201526101a0614d118482016146a9565b908201526101c0614d2485858301614b96565b908201529392505050565b60006020808385031215614d4257600080fd5b82516001600160401b0380821115614d5957600080fd5b818501915085601f830112614d6d57600080fd5b815181811115614d7f57614d7f614296565b8060051b9150614d908483016143a2565b8181529183018401918481019088841115614daa57600080fd5b938501935b83851015614dc857845182529385019390850190614daf565b98975050505050505050565b600082821015614de657614de661486d565b500390565b634e487b7160e01b600052603260045260246000fd5b600081614e1057614e1061486d565b50600019019056fe6aa5e483fe137161b095cd68564a336d1657057f57987b1ae21019134dbc8da2a2646970667358221220a27426e89571051d7367173e92e741de41406a2c1c5e37f8b9199c525e5a3a2364736f6c63430008080033",
    "sourcePath": "/Users/kaptain/github.com/hardhat/comboox/contracts/keepers/BOAKeeper.sol",
    "compiler": {
        "name": "solc",
        "version": "0.8.8+commit.dddeac2f"
    },
    "functionHashes": {
        "abandonRole(bytes32)": "3da9a600",
        "circulateIA(address,uint256,bytes32,bytes32)": "59e25c5d",
        "closeDeal(address,uint256,string,uint256)": "deeb633f",
        "createIA(uint16,uint40)": "3c978717",
        "finalized()": "b3f05b97",
        "getBookeeper()": "ed211023",
        "getGeneralCounsel()": "103f6edd",
        "getOwner()": "893d20e8",
        "grantRole(bytes32,uint256)": "1b6ea9f9",
        "hasRole(bytes32,uint256)": "7e063c5a",
        "init(uint256,address,address,address)": "dc890da9",
        "initBOA()": "5f73395e",
        "initBOD()": "5ff3fd0f",
        "initBOG()": "68258858",
        "initBOH()": "25cbca63",
        "initBOS()": "62ce0a28",
        "initROM()": "fa9e7934",
        "issueNewShare(address,uint256)": "452558b0",
        "lockContents()": "f045a769",
        "pushToCoffer(address,uint256,bytes32,uint48,uint256)": "fbc6362f",
        "renounceRole(bytes32)": "8bb9c5bf",
        "revokeDeal(address,uint256,uint256,string)": "d270be0e",
        "revokeRole(bytes32,uint256)": "19d61ad9",
        "setDirectKeeper(address)": "6be8496f",
        "setGeneralCounsel(uint256)": "4a14beb1",
        "setOwner(uint256)": "8041494e",
        "setRoleAdmin(bytes32,uint256)": "5171ebd4",
        "signIA(address,uint256,bytes32)": "7a6ae865",
        "terminateDeal(address,uint256,uint256)": "b951cf1d",
        "transferTargetShare(address,uint256,uint256)": "755514d5"
    },
    "gasEstimates": {
        "creation": {
            "codeDepositCost": "4015600",
            "executionCost": "infinite",
            "totalCost": "infinite"
        },
        "external": {
            "abandonRole(bytes32)": "infinite",
            "circulateIA(address,uint256,bytes32,bytes32)": "infinite",
            "closeDeal(address,uint256,string,uint256)": "infinite",
            "createIA(uint16,uint40)": "infinite",
            "finalized()": "2438",
            "getBookeeper()": "infinite",
            "getGeneralCounsel()": "infinite",
            "getOwner()": "infinite",
            "grantRole(bytes32,uint256)": "infinite",
            "hasRole(bytes32,uint256)": "infinite",
            "init(uint256,address,address,address)": "infinite",
            "initBOA()": "infinite",
            "initBOD()": "infinite",
            "initBOG()": "infinite",
            "initBOH()": "infinite",
            "initBOS()": "infinite",
            "initROM()": "infinite",
            "issueNewShare(address,uint256)": "infinite",
            "lockContents()": "infinite",
            "pushToCoffer(address,uint256,bytes32,uint48,uint256)": "infinite",
            "renounceRole(bytes32)": "infinite",
            "revokeDeal(address,uint256,uint256,string)": "infinite",
            "revokeRole(bytes32,uint256)": "infinite",
            "setDirectKeeper(address)": "infinite",
            "setGeneralCounsel(uint256)": "infinite",
            "setOwner(uint256)": "infinite",
            "setRoleAdmin(bytes32,uint256)": "infinite",
            "signIA(address,uint256,bytes32)": "infinite",
            "terminateDeal(address,uint256,uint256)": "infinite",
            "transferTargetShare(address,uint256,uint256)": "infinite"
        },
        "internal": {
            "_checkSHA(enum IRegCenter.TypeOfDoc[] memory,address,uint256)": "infinite",
            "_lockDealsOfParty(address,uint256)": "infinite",
            "_shareTransfer(address,uint256)": "infinite",
            "_vrAndSHACheck(address,uint256,bool)": "infinite"
        }
    }
}