{
    "contractName": "BODKeeper",
    "abi": [
        {
            "anonymous": false,
            "inputs": [
                {
                    "indexed": false,
                    "internalType": "uint256",
                    "name": "owner",
                    "type": "uint256"
                },
                {
                    "indexed": false,
                    "internalType": "address",
                    "name": "directKeeper",
                    "type": "address"
                },
                {
                    "indexed": false,
                    "internalType": "address",
                    "name": "regCenter",
                    "type": "address"
                },
                {
                    "indexed": false,
                    "internalType": "address",
                    "name": "generalKeeper",
                    "type": "address"
                }
            ],
            "name": "Init",
            "type": "event"
        },
        {
            "anonymous": false,
            "inputs": [],
            "name": "LockContents",
            "type": "event"
        },
        {
            "anonymous": false,
            "inputs": [
                {
                    "indexed": false,
                    "internalType": "address",
                    "name": "keeper",
                    "type": "address"
                }
            ],
            "name": "SetDirectKeeper",
            "type": "event"
        },
        {
            "anonymous": false,
            "inputs": [
                {
                    "indexed": false,
                    "internalType": "uint256",
                    "name": "acct",
                    "type": "uint256"
                }
            ],
            "name": "SetGeneralCounsel",
            "type": "event"
        },
        {
            "anonymous": false,
            "inputs": [
                {
                    "indexed": false,
                    "internalType": "address",
                    "name": "gk",
                    "type": "address"
                }
            ],
            "name": "SetGeneralKeeper",
            "type": "event"
        },
        {
            "anonymous": false,
            "inputs": [
                {
                    "indexed": false,
                    "internalType": "uint256",
                    "name": "acct",
                    "type": "uint256"
                }
            ],
            "name": "SetOwner",
            "type": "event"
        },
        {
            "anonymous": false,
            "inputs": [
                {
                    "indexed": false,
                    "internalType": "address",
                    "name": "rc",
                    "type": "address"
                }
            ],
            "name": "SetRegCenter",
            "type": "event"
        },
        {
            "inputs": [
                {
                    "internalType": "bytes32",
                    "name": "role",
                    "type": "bytes32"
                }
            ],
            "name": "abandonRole",
            "outputs": [],
            "stateMutability": "nonpayable",
            "type": "function"
        },
        {
            "inputs": [
                {
                    "internalType": "uint256",
                    "name": "seqOfBSR",
                    "type": "uint256"
                },
                {
                    "internalType": "uint256",
                    "name": "seqOfTitle",
                    "type": "uint256"
                },
                {
                    "internalType": "uint256",
                    "name": "nominator",
                    "type": "uint256"
                },
                {
                    "internalType": "uint256",
                    "name": "candidate",
                    "type": "uint256"
                }
            ],
            "name": "appointOfficer",
            "outputs": [],
            "stateMutability": "nonpayable",
            "type": "function"
        },
        {
            "inputs": [
                {
                    "internalType": "uint256",
                    "name": "actionId",
                    "type": "uint256"
                },
                {
                    "internalType": "uint8",
                    "name": "attitude",
                    "type": "uint8"
                },
                {
                    "internalType": "bytes32",
                    "name": "sigHash",
                    "type": "bytes32"
                },
                {
                    "internalType": "uint256",
                    "name": "caller",
                    "type": "uint256"
                }
            ],
            "name": "castVote",
            "outputs": [],
            "stateMutability": "nonpayable",
            "type": "function"
        },
        {
            "inputs": [
                {
                    "internalType": "uint256",
                    "name": "caller",
                    "type": "uint256"
                },
                {
                    "internalType": "uint256",
                    "name": "delegate",
                    "type": "uint256"
                },
                {
                    "internalType": "uint256",
                    "name": "motionId",
                    "type": "uint256"
                }
            ],
            "name": "entrustDelegate",
            "outputs": [],
            "stateMutability": "nonpayable",
            "type": "function"
        },
        {
            "inputs": [
                {
                    "internalType": "uint8",
                    "name": "typeOfAction",
                    "type": "uint8"
                },
                {
                    "internalType": "address[]",
                    "name": "targets",
                    "type": "address[]"
                },
                {
                    "internalType": "uint256[]",
                    "name": "values",
                    "type": "uint256[]"
                },
                {
                    "internalType": "bytes[]",
                    "name": "params",
                    "type": "bytes[]"
                },
                {
                    "internalType": "bytes32",
                    "name": "desHash",
                    "type": "bytes32"
                },
                {
                    "internalType": "uint256",
                    "name": "caller",
                    "type": "uint256"
                }
            ],
            "name": "execAction",
            "outputs": [
                {
                    "internalType": "uint256",
                    "name": "",
                    "type": "uint256"
                }
            ],
            "stateMutability": "nonpayable",
            "type": "function"
        },
        {
            "inputs": [],
            "name": "finalized",
            "outputs": [
                {
                    "internalType": "bool",
                    "name": "",
                    "type": "bool"
                }
            ],
            "stateMutability": "view",
            "type": "function"
        },
        {
            "inputs": [],
            "name": "getBookeeper",
            "outputs": [
                {
                    "internalType": "address",
                    "name": "",
                    "type": "address"
                }
            ],
            "stateMutability": "view",
            "type": "function"
        },
        {
            "inputs": [],
            "name": "getGeneralCounsel",
            "outputs": [
                {
                    "internalType": "uint40",
                    "name": "",
                    "type": "uint40"
                }
            ],
            "stateMutability": "view",
            "type": "function"
        },
        {
            "inputs": [],
            "name": "getOwner",
            "outputs": [
                {
                    "internalType": "uint40",
                    "name": "",
                    "type": "uint40"
                }
            ],
            "stateMutability": "view",
            "type": "function"
        },
        {
            "inputs": [
                {
                    "internalType": "bytes32",
                    "name": "role",
                    "type": "bytes32"
                },
                {
                    "internalType": "uint256",
                    "name": "acct",
                    "type": "uint256"
                }
            ],
            "name": "grantRole",
            "outputs": [],
            "stateMutability": "nonpayable",
            "type": "function"
        },
        {
            "inputs": [
                {
                    "internalType": "bytes32",
                    "name": "role",
                    "type": "bytes32"
                },
                {
                    "internalType": "uint256",
                    "name": "acct",
                    "type": "uint256"
                }
            ],
            "name": "hasRole",
            "outputs": [
                {
                    "internalType": "bool",
                    "name": "",
                    "type": "bool"
                }
            ],
            "stateMutability": "view",
            "type": "function"
        },
        {
            "inputs": [
                {
                    "internalType": "uint256",
                    "name": "owner",
                    "type": "uint256"
                },
                {
                    "internalType": "address",
                    "name": "directKeeper",
                    "type": "address"
                },
                {
                    "internalType": "address",
                    "name": "regCenter",
                    "type": "address"
                },
                {
                    "internalType": "address",
                    "name": "generalKeeper",
                    "type": "address"
                }
            ],
            "name": "init",
            "outputs": [],
            "stateMutability": "nonpayable",
            "type": "function"
        },
        {
            "inputs": [],
            "name": "lockContents",
            "outputs": [],
            "stateMutability": "nonpayable",
            "type": "function"
        },
        {
            "inputs": [
                {
                    "internalType": "uint8",
                    "name": "typeOfAction",
                    "type": "uint8"
                },
                {
                    "internalType": "address[]",
                    "name": "targets",
                    "type": "address[]"
                },
                {
                    "internalType": "uint256[]",
                    "name": "values",
                    "type": "uint256[]"
                },
                {
                    "internalType": "bytes[]",
                    "name": "params",
                    "type": "bytes[]"
                },
                {
                    "internalType": "bytes32",
                    "name": "desHash",
                    "type": "bytes32"
                },
                {
                    "internalType": "uint256",
                    "name": "submitter",
                    "type": "uint256"
                },
                {
                    "internalType": "uint256",
                    "name": "executor",
                    "type": "uint256"
                }
            ],
            "name": "proposeAction",
            "outputs": [],
            "stateMutability": "nonpayable",
            "type": "function"
        },
        {
            "inputs": [
                {
                    "internalType": "uint256",
                    "name": "director",
                    "type": "uint256"
                }
            ],
            "name": "quitPosition",
            "outputs": [],
            "stateMutability": "nonpayable",
            "type": "function"
        },
        {
            "inputs": [
                {
                    "internalType": "uint256",
                    "name": "director",
                    "type": "uint256"
                },
                {
                    "internalType": "uint256",
                    "name": "appointer",
                    "type": "uint256"
                }
            ],
            "name": "removeDirector",
            "outputs": [],
            "stateMutability": "nonpayable",
            "type": "function"
        },
        {
            "inputs": [
                {
                    "internalType": "bytes32",
                    "name": "role",
                    "type": "bytes32"
                }
            ],
            "name": "renounceRole",
            "outputs": [],
            "stateMutability": "nonpayable",
            "type": "function"
        },
        {
            "inputs": [
                {
                    "internalType": "bytes32",
                    "name": "role",
                    "type": "bytes32"
                },
                {
                    "internalType": "uint256",
                    "name": "acct",
                    "type": "uint256"
                }
            ],
            "name": "revokeRole",
            "outputs": [],
            "stateMutability": "nonpayable",
            "type": "function"
        },
        {
            "inputs": [
                {
                    "internalType": "address",
                    "name": "keeper",
                    "type": "address"
                }
            ],
            "name": "setDirectKeeper",
            "outputs": [],
            "stateMutability": "nonpayable",
            "type": "function"
        },
        {
            "inputs": [
                {
                    "internalType": "uint256",
                    "name": "acct",
                    "type": "uint256"
                }
            ],
            "name": "setGeneralCounsel",
            "outputs": [],
            "stateMutability": "nonpayable",
            "type": "function"
        },
        {
            "inputs": [
                {
                    "internalType": "uint256",
                    "name": "acct",
                    "type": "uint256"
                }
            ],
            "name": "setOwner",
            "outputs": [],
            "stateMutability": "nonpayable",
            "type": "function"
        },
        {
            "inputs": [
                {
                    "internalType": "bytes32",
                    "name": "role",
                    "type": "bytes32"
                },
                {
                    "internalType": "uint256",
                    "name": "acct",
                    "type": "uint256"
                }
            ],
            "name": "setRoleAdmin",
            "outputs": [],
            "stateMutability": "nonpayable",
            "type": "function"
        },
        {
            "inputs": [
                {
                    "internalType": "uint256",
                    "name": "seqOfBSR",
                    "type": "uint256"
                },
                {
                    "internalType": "uint256",
                    "name": "seqOfTitle",
                    "type": "uint256"
                },
                {
                    "internalType": "uint256",
                    "name": "motionId",
                    "type": "uint256"
                },
                {
                    "internalType": "uint256",
                    "name": "candidate",
                    "type": "uint256"
                }
            ],
            "name": "takePosition",
            "outputs": [],
            "stateMutability": "nonpayable",
            "type": "function"
        },
        {
            "inputs": [
                {
                    "internalType": "uint256",
                    "name": "motionId",
                    "type": "uint256"
                },
                {
                    "internalType": "uint256",
                    "name": "caller",
                    "type": "uint256"
                }
            ],
            "name": "voteCounting",
            "outputs": [],
            "stateMutability": "nonpayable",
            "type": "function"
        }
    ],
    "bytecode": "608060405234801561001057600080fd5b50613750806100206000396000f3fe608060405234801561001057600080fd5b50600436106101585760003560e01c80638041494e116100c3578063dc890da91161007c578063dc890da9146102d9578063ed211023146102ec578063f045a7691461030c578063f894759e14610314578063f8be81ac14610327578063fe1bdff21461033a57600080fd5b80638041494e14610263578063893d20e8146102765780638bb9c5bf1461027e57806392c2c3d314610291578063a19012b9146102a4578063b3f05b97146102c557600080fd5b80633ea65d6f116101155780633ea65d6f146101e15780634a14beb1146101f45780635171ebd414610207578063527fa4521461021a5780636be8496f1461022d5780637e063c5a1461024057600080fd5b80630bdda2ed1461015d578063103f6edd1461017257806319d61ad9146101955780631b6ea9f9146101a85780631fa1fdc5146101bb5780633da9a600146101ce575b600080fd5b61017061016b366004612a50565b61034d565b005b61017a610690565b60405164ffffffffff90911681526020015b60405180910390f35b6101706101a3366004612a82565b61071c565b6101706101b6366004612a82565b6107b0565b6101706101c9366004612ab6565b6107d5565b6101706101dc366004612af3565b61099f565b6101706101ef366004612a50565b610ab1565b610170610202366004612af3565b6111ca565b610170610215366004612a82565b6113ba565b610170610228366004612d8c565b6113df565b61017061023b366004612e42565b6115a1565b61025361024e366004612a82565b611653565b604051901515815260200161018c565b610170610271366004612af3565b6116ee565b61017a6118d3565b61017061028c366004612af3565b61190e565b61017061029f366004612af3565b611967565b6102b76102b2366004612e5f565b611b4d565b60405190815260200161018c565b60028054600160f01b900460ff1614610253565b6101706102e7366004612f0c565b611d4c565b6102f4611e2f565b6040516001600160a01b03909116815260200161018c565b610170611eb5565b610170610322366004612a82565b6120d3565b610170610335366004612a82565b6122a7565b610170610348366004612f5f565b612583565b604051633b11adbf60e21b81526002600482015233602482015273__$364aad554dc80380f414546becdd2c1584$__9063ec46b6fc9060440160206040518083038186803b15801561039e57600080fd5b505af41580156103b2573d6000803e3d6000fd5b505050506040513d601f19601f820116820180604052508101906103d69190612fa0565b6103fb5760405162461bcd60e51b81526004016103f290612fbb565b60405180910390fd5b60006104056127b1565b6001600160a01b03166348462037866040518263ffffffff1660e01b815260040161043291815260200190565b60206040518083038186803b15801561044a57600080fd5b505afa15801561045e573d6000803e3d6000fd5b505050506040513d601f19601f820116820180604052508101906104829190613001565b6040516366e5ec3360e01b8152600481019190915273__$9d2c69e94fee47b9774dc8db4aa5c0bbec$__906366e5ec33906024016102606040518083038186803b1580156104cf57600080fd5b505af41580156104e3573d6000803e3d6000fd5b505050506040513d601f19601f8201168201806040525081019061050791906130a3565b905082816060015164ffffffffff161461056e5760405162461bcd60e51b815260206004820152602260248201527f424f474b2e414f3a206e6f6d696e61746f72206e6f74207269676874686f6c6460448201526132b960f11b60648201526084016103f2565b60008160c00151856007811061058657610586613182565b602002015161ffff169050600a811180156105a15750601581105b6105ed5760405162461bcd60e51b815260206004820152601f60248201527f424f474b2e414f3a206e6f7420426f61726420766f74696e672069737375650060448201526064016103f2565b60008260a00151866007811061060557610605613182565b60200201519050610614612807565b60405163db8b9a8360e01b81526004810184905260ff8316602482015260448101879052606481018690526001600160a01b03919091169063db8b9a8390608401600060405180830381600087803b15801561066f57600080fd5b505af1158015610683573d6000803e3d6000fd5b5050505050505050505050565b60405163e8c0cc1d60e01b81526002600482015260009073__$364aad554dc80380f414546becdd2c1584$__9063e8c0cc1d906024015b60206040518083038186803b1580156106df57600080fd5b505af41580156106f3573d6000803e3d6000fd5b505050506040513d601f19601f820116820180604052508101906107179190613198565b905090565b73__$364aad554dc80380f414546becdd2c1584$__6382daafaa60028461074161285a565b6040516001600160e01b031960e086901b1681526004810193909352602483019190915264ffffffffff166044820152606481018490526084015b60006040518083038186803b15801561079457600080fd5b505af41580156107a8573d6000803e3d6000fd5b505050505050565b73__$364aad554dc80380f414546becdd2c1584$__636320d75e60028461074161285a565b604051633b11adbf60e21b81526002600482015233602482015273__$364aad554dc80380f414546becdd2c1584$__9063ec46b6fc9060440160206040518083038186803b15801561082657600080fd5b505af415801561083a573d6000803e3d6000fd5b505050506040513d601f19601f8201168201806040525081019061085e9190612fa0565b61087a5760405162461bcd60e51b81526004016103f290612fbb565b80610883612807565b6001600160a01b0316639258effe826040518263ffffffff1660e01b81526004016108b091815260200190565b60206040518083038186803b1580156108c857600080fd5b505afa1580156108dc573d6000803e3d6000fd5b505050506040513d601f19601f820116820180604052508101906109009190612fa0565b61091c5760405162461bcd60e51b81526004016103f2906131b3565b610924612807565b604051632de3207560e01b8152600481018790526024810184905260ff86166044820152606481018590526001600160a01b039190911690632de32075906084015b600060405180830381600087803b15801561098057600080fd5b505af1158015610994573d6000803e3d6000fd5b505050505050505050565b604051633b11adbf60e21b81526002600482015233602482015273__$364aad554dc80380f414546becdd2c1584$__9063ec46b6fc9060440160206040518083038186803b1580156109f057600080fd5b505af4158015610a04573d6000803e3d6000fd5b505050506040513d601f19601f82011682018060405250810190610a289190612fa0565b610a445760405162461bcd60e51b81526004016103f290612fbb565b60405163cc99e11b60e01b8152600260048201526024810182905273__$364aad554dc80380f414546becdd2c1584$__9063cc99e11b9060440160006040518083038186803b158015610a9657600080fd5b505af4158015610aaa573d6000803e3d6000fd5b5050505050565b604051633b11adbf60e21b81526002600482015233602482015273__$364aad554dc80380f414546becdd2c1584$__9063ec46b6fc9060440160206040518083038186803b158015610b0257600080fd5b505af4158015610b16573d6000803e3d6000fd5b505050506040513d601f19601f82011682018060405250810190610b3a9190612fa0565b610b565760405162461bcd60e51b81526004016103f290612fbb565b6000610b606127b1565b6001600160a01b03166348462037866040518263ffffffff1660e01b8152600401610b8d91815260200190565b60206040518083038186803b158015610ba557600080fd5b505afa158015610bb9573d6000803e3d6000fd5b505050506040513d601f19601f82011682018060405250810190610bdd9190613001565b6040516366e5ec3360e01b8152600481019190915273__$9d2c69e94fee47b9774dc8db4aa5c0bbec$__906366e5ec33906024016102606040518083038186803b158015610c2a57600080fd5b505af4158015610c3e573d6000803e3d6000fd5b505050506040513d601f19601f82011682018060405250810190610c6291906130a3565b905060008160c001518560078110610c7c57610c7c613182565b602002015161ffff1690506000610c916127b1565b6001600160a01b03166348462037836040518263ffffffff1660e01b8152600401610cbe91815260200190565b60206040518083038186803b158015610cd657600080fd5b505afa158015610cea573d6000803e3d6000fd5b505050506040513d601f19601f82011682018060405250810190610d0e9190613001565b604051634281ec6b60e11b8152600481019190915273__$9d2c69e94fee47b9774dc8db4aa5c0bbec$__90638503d8d6906024016102206040518083038186803b158015610d5b57600080fd5b505af4158015610d6f573d6000803e3d6000fd5b505050506040513d601f19601f82011682018060405250810190610d939190613254565b905060008360a001518760078110610dad57610dad613182565b602002015190506000610dbe6128b4565b90506000610dca612807565b9050600060028560600151610ddf9190613377565b60ff16600114610e66576040516364525a0d60e01b8152600481018a90526001600160a01b038316906364525a0d9060240160c06040518083038186803b158015610e2957600080fd5b505afa158015610e3d573d6000803e3d6000fd5b505050506040513d601f19601f82011682018060405250810190610e6191906133bd565b610ede565b6040516364525a0d60e01b8152600481018a90526001600160a01b038416906364525a0d9060240160c06040518083038186803b158015610ea657600080fd5b505afa158015610eba573d6000803e3d6000fd5b505050506040513d601f19601f82011682018060405250810190610ede91906133bd565b602080820151606080840151604080519485018c905260ff8a169085015264ffffffffff90921690830152608082018b905265ffffffffffff1660a082015290915060c0016040516020818303038152906040528051906020012060001c8914610f8a5760405162461bcd60e51b815260206004820152601b60248201527f424f444b2e54503a20696e636f7272656374206d6f74696f6e4964000000000060448201526064016103f2565b805160ff166002146110045760405162461bcd60e51b815260206004820152603960248201527f424f444b2e54503a2063616e646964617465206e6f7420626520617070726f7660448201527f6564206f7220616c726561647920696e20706f736974696f6e0000000000000060648201526084016103f2565b87816040015164ffffffffff161461106a5760405162461bcd60e51b8152602060048201526024808201527f424f444b2e54503a2063616c6c6572206973206e6f74207468652063616e64696044820152636461746560e01b60648201526084016103f2565b6002856060015161107b9190613377565b60ff16600114156110e55760405163f117bdb760e01b8152600481018a90526001600160a01b0384169063f117bdb790602401600060405180830381600087803b1580156110c857600080fd5b505af11580156110dc573d6000803e3d6000fd5b50505050611140565b60405163f117bdb760e01b8152600481018a90526001600160a01b0383169063f117bdb790602401600060405180830381600087803b15801561112757600080fd5b505af115801561113b573d6000803e3d6000fd5b505050505b6020810151604051632bf499d960e21b8152600481018d905260ff86166024820152604481018a905264ffffffffff90911660648201526001600160a01b0383169063afd2676490608401600060405180830381600087803b1580156111a557600080fd5b505af11580156111b9573d6000803e3d6000fd5b505050505050505050505050505050565b604051633b11adbf60e21b81526002600482015233602482015273__$364aad554dc80380f414546becdd2c1584$__9063ec46b6fc9060440160206040518083038186803b15801561121b57600080fd5b505af415801561122f573d6000803e3d6000fd5b505050506040513d601f19601f820116820180604052508101906112539190612fa0565b806112f8575073__$364aad554dc80380f414546becdd2c1584$__63fe271086600261127d61285a565b6040516001600160e01b031960e085901b168152600481019290925264ffffffffff16602482015260440160206040518083038186803b1580156112c057600080fd5b505af41580156112d4573d6000803e3d6000fd5b505050506040513d601f19601f820116820180604052508101906112f89190612fa0565b6113145760405162461bcd60e51b81526004016103f29061345e565b604051632725ebef60e21b8152600260048201526024810182905273__$364aad554dc80380f414546becdd2c1584$__90639c97afbc9060440160006040518083038186803b15801561136657600080fd5b505af415801561137a573d6000803e3d6000fd5b505050507ff2735f34b69be1e6342dea95f9162f84d0db925fab655ca9f1f312ac8cbfc99d816040516113af91815260200190565b60405180910390a150565b73__$364aad554dc80380f414546becdd2c1584$__63ee98b31360028461074161285a565b604051633b11adbf60e21b81526002600482015233602482015273__$364aad554dc80380f414546becdd2c1584$__9063ec46b6fc9060440160206040518083038186803b15801561143057600080fd5b505af4158015611444573d6000803e3d6000fd5b505050506040513d601f19601f820116820180604052508101906114689190612fa0565b6114845760405162461bcd60e51b81526004016103f290612fbb565b8161148d612807565b6001600160a01b0316639258effe826040518263ffffffff1660e01b81526004016114ba91815260200190565b60206040518083038186803b1580156114d257600080fd5b505afa1580156114e6573d6000803e3d6000fd5b505050506040513d601f19601f8201168201806040525081019061150a9190612fa0565b6115265760405162461bcd60e51b81526004016103f2906131b3565b61152e612807565b6001600160a01b031663bbfd607d898989898989896040518863ffffffff1660e01b815260040161156597969594939291906135b3565b600060405180830381600087803b15801561157f57600080fd5b505af1158015611593573d6000803e3d6000fd5b505050505050505050505050565b604051630f07232560e01b8152600260048201523360248201526001600160a01b038216604482015273__$364aad554dc80380f414546becdd2c1584$__90630f0723259060640160006040518083038186803b15801561160157600080fd5b505af4158015611615573d6000803e3d6000fd5b50506040516001600160a01b03841681527fe435cbeab64e4eae6497b9d8289704bd709d624a80704ef3ca9af777534bc6ec925060200190506113af565b604051632a3be56b60e21b815260026004820152602481018390526044810182905260009073__$364aad554dc80380f414546becdd2c1584$__9063a8ef95ac9060640160206040518083038186803b1580156116af57600080fd5b505af41580156116c3573d6000803e3d6000fd5b505050506040513d601f19601f820116820180604052508101906116e79190612fa0565b9392505050565b604051633b11adbf60e21b81526002600482015233602482015273__$364aad554dc80380f414546becdd2c1584$__9063ec46b6fc9060440160206040518083038186803b15801561173f57600080fd5b505af4158015611753573d6000803e3d6000fd5b505050506040513d601f19601f820116820180604052508101906117779190612fa0565b8061181c575073__$364aad554dc80380f414546becdd2c1584$__63fe27108660026117a161285a565b6040516001600160e01b031960e085901b168152600481019290925264ffffffffff16602482015260440160206040518083038186803b1580156117e457600080fd5b505af41580156117f8573d6000803e3d6000fd5b505050506040513d601f19601f8201168201806040525081019061181c9190612fa0565b6118385760405162461bcd60e51b81526004016103f29061345e565b60405163b6e38a2960e01b8152600260048201526024810182905273__$364aad554dc80380f414546becdd2c1584$__9063b6e38a299060440160006040518083038186803b15801561188a57600080fd5b505af415801561189e573d6000803e3d6000fd5b505050507f8b6f40f36b4ae8cc5f55e895036457c43da4ab1f80f58c46f5ff0d72a650033b816040516113af91815260200190565b60405163987ad15360e01b81526002600482015260009073__$364aad554dc80380f414546becdd2c1584$__9063987ad153906024016106c7565b600061191861285a565b60405163cc0d511b60e01b8152600260048201526024810184905264ffffffffff8216604482015290915073__$364aad554dc80380f414546becdd2c1584$__9063cc0d511b9060640161077c565b604051633b11adbf60e21b81526002600482015233602482015273__$364aad554dc80380f414546becdd2c1584$__9063ec46b6fc9060440160206040518083038186803b1580156119b857600080fd5b505af41580156119cc573d6000803e3d6000fd5b505050506040513d601f19601f820116820180604052508101906119f09190612fa0565b611a0c5760405162461bcd60e51b81526004016103f290612fbb565b6000611a16612807565b60405163492c77ff60e11b8152600481018490529091506001600160a01b03821690639258effe9060240160206040518083038186803b158015611a5957600080fd5b505afa158015611a6d573d6000803e3d6000fd5b505050506040513d601f19601f82011682018060405250810190611a919190612fa0565b611af75760405162461bcd60e51b815260206004820152603160248201527f424f444b65657065722e71756974506f736974696f6e3a206170706f696e7465604482015270391034b9903737ba10309036b2b6b132b960791b60648201526084016103f2565b60405163160392d760e01b8152600481018390526001600160a01b0382169063160392d790602401600060405180830381600087803b158015611b3957600080fd5b505af11580156107a8573d6000803e3d6000fd5b600081611b58612807565b6001600160a01b0316639258effe826040518263ffffffff1660e01b8152600401611b8591815260200190565b60206040518083038186803b158015611b9d57600080fd5b505afa158015611bb1573d6000803e3d6000fd5b505050506040513d601f19601f82011682018060405250810190611bd59190612fa0565b611bf15760405162461bcd60e51b81526004016103f2906131b3565b6000546040516304e4a58160e31b8152600481018590526001600160a01b03909116906327252c089060240160206040518083038186803b158015611c3557600080fd5b505afa158015611c49573d6000803e3d6000fd5b505050506040513d601f19601f82011682018060405250810190611c6d9190612fa0565b15611cb15760405162461bcd60e51b815260206004820152601460248201527363616c6c6572206973206e6f7420616e20454f4160601b60448201526064016103f2565b611cb9612807565b6001600160a01b031663240a643889898989888a6040518763ffffffff1660e01b8152600401611cee96959493929190613615565b602060405180830381600087803b158015611d0857600080fd5b505af1158015611d1c573d6000803e3d6000fd5b505050506040513d601f19601f82011682018060405250810190611d409190613001565b98975050505050505050565b611d55826128cf565b611d5e8161297e565b604051636cdd0edf60e11b815260026004820152602481018590526001600160a01b038416604482015273__$364aad554dc80380f414546becdd2c1584$__9063d9ba1dbe9060640160006040518083038186803b158015611dbf57600080fd5b505af4158015611dd3573d6000803e3d6000fd5b5050604080518781526001600160a01b038781166020830152868116828401528516606082015290517f3abb2418c66fe32ba9c883030a75ce583971d9af9192b9b74e44e67c5e6c8c1f9350908190036080019150a150505050565b604051633c3e56c160e11b81526002600482015260009073__$364aad554dc80380f414546becdd2c1584$__9063787cad829060240160206040518083038186803b158015611e7d57600080fd5b505af4158015611e91573d6000803e3d6000fd5b505050506040513d601f19601f82011682018060405250810190610717919061366d565b604051633b11adbf60e21b81526002600482015233602482015273__$364aad554dc80380f414546becdd2c1584$__9063ec46b6fc9060440160206040518083038186803b158015611f0657600080fd5b505af4158015611f1a573d6000803e3d6000fd5b505050506040513d601f19601f82011682018060405250810190611f3e9190612fa0565b611f5a5760405162461bcd60e51b81526004016103f290612fbb565b600254600160f01b900460ff16600114611fb65760405162461bcd60e51b815260206004820181905260248201527f41432e6f6e6c7950656e64696e673a20446f632069732066696e616c697a656460448201526064016103f2565b60405163cc99e11b60e01b815260026004820152684174746f726e65797360b81b602482015273__$364aad554dc80380f414546becdd2c1584$__9063cc99e11b9060440160006040518083038186803b15801561201357600080fd5b505af4158015612027573d6000803e3d6000fd5b5050604051632725ebef60e21b8152600260048201526000602482015273__$364aad554dc80380f414546becdd2c1584$__9250639c97afbc915060440160006040518083038186803b15801561207d57600080fd5b505af4158015612091573d6000803e3d6000fd5b50506002805460ff60f01b1916600160f11b17905550506040517f35012b512309c322acf68632cd6cb702ff0e1d776fbe9394e38ffc13b434fe7590600090a1565b604051633b11adbf60e21b81526002600482015233602482015273__$364aad554dc80380f414546becdd2c1584$__9063ec46b6fc9060440160206040518083038186803b15801561212457600080fd5b505af4158015612138573d6000803e3d6000fd5b505050506040513d601f19601f8201168201806040525081019061215c9190612fa0565b6121785760405162461bcd60e51b81526004016103f290612fbb565b80612181612807565b6001600160a01b0316639258effe826040518263ffffffff1660e01b81526004016121ae91815260200190565b60206040518083038186803b1580156121c657600080fd5b505afa1580156121da573d6000803e3d6000fd5b505050506040513d601f19601f820116820180604052508101906121fe9190612fa0565b61221a5760405162461bcd60e51b81526004016103f2906131b3565b612222612807565b6001600160a01b031663f8fb9e1d846040518263ffffffff1660e01b815260040161224f91815260200190565b602060405180830381600087803b15801561226957600080fd5b505af115801561227d573d6000803e3d6000fd5b505050506040513d601f19601f820116820180604052508101906122a19190612fa0565b50505050565b604051633b11adbf60e21b81526002600482015233602482015273__$364aad554dc80380f414546becdd2c1584$__9063ec46b6fc9060440160206040518083038186803b1580156122f857600080fd5b505af415801561230c573d6000803e3d6000fd5b505050506040513d601f19601f820116820180604052508101906123309190612fa0565b61234c5760405162461bcd60e51b81526004016103f290612fbb565b6000612356612807565b60405163492c77ff60e11b8152600481018590529091506001600160a01b03821690639258effe9060240160206040518083038186803b15801561239957600080fd5b505afa1580156123ad573d6000803e3d6000fd5b505050506040513d601f19601f820116820180604052508101906123d19190612fa0565b6124395760405162461bcd60e51b815260206004820152603360248201527f424f444b65657065722e72656d6f76654469726563746f723a206170706f696e6044820152723a32b91034b9903737ba10309036b2b6b132b960691b60648201526084016103f2565b60405163e0231b8160e01b81526004810184905282906001600160a01b0383169063e0231b819060240160a06040518083038186803b15801561247b57600080fd5b505afa15801561248f573d6000803e3d6000fd5b505050506040513d601f19601f820116820180604052508101906124b3919061368a565b6040015164ffffffffff16146125245760405162461bcd60e51b815260206004820152603060248201527f424f444b65657065722e72656f76654469726563746f723a2063616c6c65722060448201526f34b9903737ba1030b83837b4b73a32b960811b60648201526084016103f2565b60405163160392d760e01b8152600481018490526001600160a01b0382169063160392d790602401600060405180830381600087803b15801561256657600080fd5b505af115801561257a573d6000803e3d6000fd5b50505050505050565b604051633b11adbf60e21b81526002600482015233602482015273__$364aad554dc80380f414546becdd2c1584$__9063ec46b6fc9060440160206040518083038186803b1580156125d457600080fd5b505af41580156125e8573d6000803e3d6000fd5b505050506040513d601f19601f8201168201806040525081019061260c9190612fa0565b6126285760405162461bcd60e51b81526004016103f290612fbb565b82612631612807565b6001600160a01b0316639258effe826040518263ffffffff1660e01b815260040161265e91815260200190565b60206040518083038186803b15801561267657600080fd5b505afa15801561268a573d6000803e3d6000fd5b505050506040513d601f19601f820116820180604052508101906126ae9190612fa0565b6126ca5760405162461bcd60e51b81526004016103f2906131b3565b826126d3612807565b6001600160a01b0316639258effe826040518263ffffffff1660e01b815260040161270091815260200190565b60206040518083038186803b15801561271857600080fd5b505afa15801561272c573d6000803e3d6000fd5b505050506040513d601f19601f820116820180604052508101906127509190612fa0565b61276c5760405162461bcd60e51b81526004016103f2906131b3565b612774612807565b604051637f0deff960e11b81526004810185905260248101879052604481018690526001600160a01b03919091169063fe1bdff290606401610966565b60006127bb612a35565b6001600160a01b0316632f5f3b3c6040518163ffffffff1660e01b815260040160206040518083038186803b1580156127f357600080fd5b505afa158015611e91573d6000803e3d6000fd5b600180546000916001600160a01b039091169063e0ff5b8b905b6040516001600160e01b031960e084901b16815260ff909116600482015260240160206040518083038186803b1580156127f357600080fd5b60008054604051634de835e760e11b81523360048201526001600160a01b0390911690639bd06bce90602401602060405180830381600087803b1580156128a057600080fd5b505af11580156106f3573d6000803e3d6000fd5b6001546000906001600160a01b031663e0ff5b8b6002612821565b6000546001600160a01b0316156129205760405162461bcd60e51b815260206004820152601560248201527430b63932b0b23c9039b2ba103932b3a1b2b73a32b960591b60448201526064016103f2565b6040516001600160a01b03821681527f318da6c7624c71cbc0afe346c9d8827f119d0ecefb241a7b0c87217a076a8e029060200160405180910390a1600080546001600160a01b0319166001600160a01b0392909216919091179055565b6001546001600160a01b0316156129d75760405162461bcd60e51b815260206004820152601960248201527f616c7265616479207365742067656e6572616c4b65657065720000000000000060448201526064016103f2565b6040516001600160a01b03821681527fe513d3e0f0d0a3877029dcc588748679a7a3450ec1ec7ed56d96bd012c3e61aa9060200160405180910390a1600180546001600160a01b0319166001600160a01b0392909216919091179055565b6001546000906001600160a01b031663e0ff5b8b6003612821565b60008060008060808587031215612a6657600080fd5b5050823594602084013594506040840135936060013592509050565b60008060408385031215612a9557600080fd5b50508035926020909101359150565b60ff81168114612ab357600080fd5b50565b60008060008060808587031215612acc57600080fd5b843593506020850135612ade81612aa4565b93969395505050506040820135916060013590565b600060208284031215612b0557600080fd5b5035919050565b634e487b7160e01b600052604160045260246000fd5b60405160e0810167ffffffffffffffff81118282101715612b4557612b45612b0c565b60405290565b6040516101e0810167ffffffffffffffff81118282101715612b4557612b45612b0c565b604051601f8201601f1916810167ffffffffffffffff81118282101715612b9857612b98612b0c565b604052919050565b600067ffffffffffffffff821115612bba57612bba612b0c565b5060051b60200190565b6001600160a01b0381168114612ab357600080fd5b600082601f830112612bea57600080fd5b81356020612bff612bfa83612ba0565b612b6f565b82815260059290921b84018101918181019086841115612c1e57600080fd5b8286015b84811015612c42578035612c3581612bc4565b8352918301918301612c22565b509695505050505050565b600082601f830112612c5e57600080fd5b81356020612c6e612bfa83612ba0565b82815260059290921b84018101918181019086841115612c8d57600080fd5b8286015b84811015612c425780358352918301918301612c91565b6000601f8381840112612cba57600080fd5b82356020612cca612bfa83612ba0565b82815260059290921b85018101918181019087841115612ce957600080fd5b8287015b84811015612d8057803567ffffffffffffffff80821115612d0e5760008081fd5b818a0191508a603f830112612d235760008081fd5b85820135604082821115612d3957612d39612b0c565b612d4a828b01601f19168901612b6f565b92508183528c81838601011115612d615760008081fd5b8181850189850137506000908201870152845250918301918301612ced565b50979650505050505050565b600080600080600080600060e0888a031215612da757600080fd5b8735612db281612aa4565b9650602088013567ffffffffffffffff80821115612dcf57600080fd5b612ddb8b838c01612bd9565b975060408a0135915080821115612df157600080fd5b612dfd8b838c01612c4d565b965060608a0135915080821115612e1357600080fd5b50612e208a828b01612ca8565b979a969950949760808101359660a0820135965060c090910135945092505050565b600060208284031215612e5457600080fd5b81356116e781612bc4565b60008060008060008060c08789031215612e7857600080fd5b8635612e8381612aa4565b9550602087013567ffffffffffffffff80821115612ea057600080fd5b612eac8a838b01612bd9565b96506040890135915080821115612ec257600080fd5b612ece8a838b01612c4d565b95506060890135915080821115612ee457600080fd5b50612ef189828a01612ca8565b9350506080870135915060a087013590509295509295509295565b60008060008060808587031215612f2257600080fd5b843593506020850135612f3481612bc4565b92506040850135612f4481612bc4565b91506060850135612f5481612bc4565b939692955090935050565b600080600060608486031215612f7457600080fd5b505081359360208301359350604090920135919050565b80518015158114612f9b57600080fd5b919050565b600060208284031215612fb257600080fd5b6116e782612f8b565b60208082526026908201527f41432e6f6e6c794469726563744b65657065723a206e6f74206469726563742060408201526535b2b2b832b960d11b606082015260800190565b60006020828403121561301357600080fd5b5051919050565b805161ffff81168114612f9b57600080fd5b8051612f9b81612aa4565b805164ffffffffff81168114612f9b57600080fd5b600082601f83011261305d57600080fd5b613065612b22565b8060e084018581111561307757600080fd5b845b818110156130985761308a8161301a565b845260209384019301613079565b509095945050505050565b600061026082840312156130b657600080fd5b6130be612b22565b6130c78361301a565b81526020808401516130d881612aa4565b8282015260408401516130ea81612aa4565b60408301526130fb60608501613037565b606083015261310c6080850161301a565b60808301528460bf85011261312057600080fd5b613128612b22565b8061018086018781111561313b57600080fd5b60a087015b8181101561316057805161315381612aa4565b8452928401928401613140565b508160a0860152613171888261304c565b60c086015250929695505050505050565b634e487b7160e01b600052603260045260246000fd5b6000602082840312156131aa57600080fd5b6116e782613037565b602080825260129082015271191a5c9958dd1bdc881393d508195e1a5cdd60721b604082015260600190565b600082601f8301126131f057600080fd5b6040516060810181811067ffffffffffffffff8211171561321357613213612b0c565b60405280606084018581111561322857600080fd5b845b818110156132495761323b81613037565b83526020928301920161322a565b509195945050505050565b6000610220828403121561326757600080fd5b61326f612b4b565b6132788361301a565b81526132866020840161302c565b60208201526132976040840161302c565b60408201526132a86060840161302c565b60608201526132b96080840161301a565b60808201526132ca60a0840161301a565b60a08201526132db60c08401612f8b565b60c08201526132ec60e08401612f8b565b60e08201526101006132ff818501612f8b565b90820152610120613311848201612f8b565b9082015261014061332384820161302c565b9082015261016061333584820161302c565b9082015261018061334784820161302c565b908201526101a061335984820161302c565b908201526101c061336c858583016131df565b908201529392505050565b600060ff83168061339857634e487b7160e01b600052601260045260246000fd5b8060ff84160691505092915050565b805165ffffffffffff81168114612f9b57600080fd5b600060c082840312156133cf57600080fd5b60405160c0810181811067ffffffffffffffff821117156133f2576133f2612b0c565b604052825161340081612aa4565b815261340e60208401613037565b602082015261341f60408401613037565b6040820152613430606084016133a7565b6060820152613441608084016133a7565b608082015261345260a084016133a7565b60a08201529392505050565b60208082526036908201527f41432e6f776e65724f72446972656374426f6f6b65657065723a206e6569746860408201527532b91037bbb732b9103737b9103137b7b5b2b2b832b960511b606082015260800190565b600081518084526020808501945080840160005b838110156134ed5781516001600160a01b0316875295820195908201906001016134c8565b509495945050505050565b600081518084526020808501945080840160005b838110156134ed5781518752958201959082019060010161350c565b6000815180845260208085019450848260051b86018286016000805b868110156135a5578484038a5282518051808652835b81811015613575578281018901518782018a0152880161355a565b8181111561358557848983890101525b509a87019a601f01601f1916949094018601935091850191600101613544565b509198975050505050505050565b60ff8816815260e0602082015260006135cf60e08301896134b4565b82810360408401526135e181896134f8565b905082810360608401526135f58188613528565b6080840196909652505060a081019290925260c090910152949350505050565b60ff8716815260c06020820152600061363160c08301886134b4565b828103604084015261364381886134f8565b905082810360608401526136578187613528565b6080840195909552505060a00152949350505050565b60006020828403121561367f57600080fd5b81516116e781612bc4565b600060a0828403121561369c57600080fd5b60405160a0810181811067ffffffffffffffff821117156136bf576136bf612b0c565b60405282516136cd81612aa4565b81526136db60208401613037565b60208201526136ec60408401613037565b60408201526136fd606084016133a7565b606082015261370e608084016133a7565b6080820152939250505056fea264697066735822122008953069b7b971104646dadb7c068e7e5aa5405430f88b25e91a10dfeae1eb6064736f6c63430008080033",
    "sourcePath": "/Users/kaptain/github.com/hardhat/comboox/contracts/keepers/BODKeeper.sol",
    "compiler": {
        "name": "solc",
        "version": "0.8.8+commit.dddeac2f"
    },
    "functionHashes": {
        "abandonRole(bytes32)": "3da9a600",
        "appointOfficer(uint256,uint256,uint256,uint256)": "0bdda2ed",
        "castVote(uint256,uint8,bytes32,uint256)": "1fa1fdc5",
        "entrustDelegate(uint256,uint256,uint256)": "fe1bdff2",
        "execAction(uint8,address[],uint256[],bytes[],bytes32,uint256)": "a19012b9",
        "finalized()": "b3f05b97",
        "getBookeeper()": "ed211023",
        "getGeneralCounsel()": "103f6edd",
        "getOwner()": "893d20e8",
        "grantRole(bytes32,uint256)": "1b6ea9f9",
        "hasRole(bytes32,uint256)": "7e063c5a",
        "init(uint256,address,address,address)": "dc890da9",
        "lockContents()": "f045a769",
        "proposeAction(uint8,address[],uint256[],bytes[],bytes32,uint256,uint256)": "527fa452",
        "quitPosition(uint256)": "92c2c3d3",
        "removeDirector(uint256,uint256)": "f8be81ac",
        "renounceRole(bytes32)": "8bb9c5bf",
        "revokeRole(bytes32,uint256)": "19d61ad9",
        "setDirectKeeper(address)": "6be8496f",
        "setGeneralCounsel(uint256)": "4a14beb1",
        "setOwner(uint256)": "8041494e",
        "setRoleAdmin(bytes32,uint256)": "5171ebd4",
        "takePosition(uint256,uint256,uint256,uint256)": "3ea65d6f",
        "voteCounting(uint256,uint256)": "f894759e"
    },
    "gasEstimates": {
        "creation": {
            "codeDepositCost": "2832000",
            "executionCost": "3092",
            "totalCost": "2835092"
        },
        "external": {
            "abandonRole(bytes32)": "infinite",
            "appointOfficer(uint256,uint256,uint256,uint256)": "infinite",
            "castVote(uint256,uint8,bytes32,uint256)": "infinite",
            "entrustDelegate(uint256,uint256,uint256)": "infinite",
            "execAction(uint8,address[],uint256[],bytes[],bytes32,uint256)": "infinite",
            "finalized()": "2460",
            "getBookeeper()": "infinite",
            "getGeneralCounsel()": "infinite",
            "getOwner()": "infinite",
            "grantRole(bytes32,uint256)": "infinite",
            "hasRole(bytes32,uint256)": "infinite",
            "init(uint256,address,address,address)": "infinite",
            "lockContents()": "infinite",
            "proposeAction(uint8,address[],uint256[],bytes[],bytes32,uint256,uint256)": "infinite",
            "quitPosition(uint256)": "infinite",
            "removeDirector(uint256,uint256)": "infinite",
            "renounceRole(bytes32)": "infinite",
            "revokeRole(bytes32,uint256)": "infinite",
            "setDirectKeeper(address)": "infinite",
            "setGeneralCounsel(uint256)": "infinite",
            "setOwner(uint256)": "infinite",
            "setRoleAdmin(bytes32,uint256)": "infinite",
            "takePosition(uint256,uint256,uint256,uint256)": "infinite",
            "voteCounting(uint256,uint256)": "infinite"
        }
    }
}