{
    "contractName": "BODKeeper",
    "abi": [
        {
            "anonymous": false,
            "inputs": [
                {
                    "indexed": false,
                    "internalType": "uint40",
                    "name": "owner",
                    "type": "uint40"
                },
                {
                    "indexed": false,
                    "internalType": "address",
                    "name": "directKeeper",
                    "type": "address"
                },
                {
                    "indexed": false,
                    "internalType": "address",
                    "name": "regCenter",
                    "type": "address"
                },
                {
                    "indexed": false,
                    "internalType": "address",
                    "name": "generalKeeper",
                    "type": "address"
                }
            ],
            "name": "Init",
            "type": "event"
        },
        {
            "anonymous": false,
            "inputs": [],
            "name": "LockContents",
            "type": "event"
        },
        {
            "anonymous": false,
            "inputs": [
                {
                    "indexed": false,
                    "internalType": "address",
                    "name": "keeper",
                    "type": "address"
                }
            ],
            "name": "SetDirectKeeper",
            "type": "event"
        },
        {
            "anonymous": false,
            "inputs": [
                {
                    "indexed": false,
                    "internalType": "uint256",
                    "name": "acct",
                    "type": "uint256"
                }
            ],
            "name": "SetGeneralCounsel",
            "type": "event"
        },
        {
            "anonymous": false,
            "inputs": [
                {
                    "indexed": false,
                    "internalType": "address",
                    "name": "gk",
                    "type": "address"
                }
            ],
            "name": "SetGeneralKeeper",
            "type": "event"
        },
        {
            "anonymous": false,
            "inputs": [
                {
                    "indexed": false,
                    "internalType": "uint256",
                    "name": "acct",
                    "type": "uint256"
                }
            ],
            "name": "SetOwner",
            "type": "event"
        },
        {
            "anonymous": false,
            "inputs": [
                {
                    "indexed": false,
                    "internalType": "address",
                    "name": "rc",
                    "type": "address"
                }
            ],
            "name": "SetRegCenter",
            "type": "event"
        },
        {
            "inputs": [
                {
                    "internalType": "bytes32",
                    "name": "role",
                    "type": "bytes32"
                }
            ],
            "name": "abandonRole",
            "outputs": [],
            "stateMutability": "nonpayable",
            "type": "function"
        },
        {
            "inputs": [
                {
                    "internalType": "bytes32",
                    "name": "bsRule",
                    "type": "bytes32"
                },
                {
                    "internalType": "uint8",
                    "name": "seqOfTitle",
                    "type": "uint8"
                },
                {
                    "internalType": "uint40",
                    "name": "nominator",
                    "type": "uint40"
                },
                {
                    "internalType": "uint40",
                    "name": "candidate",
                    "type": "uint40"
                }
            ],
            "name": "appointOfficer",
            "outputs": [],
            "stateMutability": "nonpayable",
            "type": "function"
        },
        {
            "inputs": [
                {
                    "internalType": "uint256",
                    "name": "actionId",
                    "type": "uint256"
                },
                {
                    "internalType": "uint8",
                    "name": "attitude",
                    "type": "uint8"
                },
                {
                    "internalType": "uint40",
                    "name": "caller",
                    "type": "uint40"
                },
                {
                    "internalType": "bytes32",
                    "name": "sigHash",
                    "type": "bytes32"
                }
            ],
            "name": "castVote",
            "outputs": [],
            "stateMutability": "nonpayable",
            "type": "function"
        },
        {
            "inputs": [
                {
                    "internalType": "uint40",
                    "name": "caller",
                    "type": "uint40"
                },
                {
                    "internalType": "uint40",
                    "name": "delegate",
                    "type": "uint40"
                },
                {
                    "internalType": "uint256",
                    "name": "motionId",
                    "type": "uint256"
                }
            ],
            "name": "entrustDelegate",
            "outputs": [],
            "stateMutability": "nonpayable",
            "type": "function"
        },
        {
            "inputs": [
                {
                    "internalType": "uint8",
                    "name": "actionType",
                    "type": "uint8"
                },
                {
                    "internalType": "address[]",
                    "name": "targets",
                    "type": "address[]"
                },
                {
                    "internalType": "uint256[]",
                    "name": "values",
                    "type": "uint256[]"
                },
                {
                    "internalType": "bytes[]",
                    "name": "params",
                    "type": "bytes[]"
                },
                {
                    "internalType": "bytes32",
                    "name": "desHash",
                    "type": "bytes32"
                },
                {
                    "internalType": "uint40",
                    "name": "caller",
                    "type": "uint40"
                }
            ],
            "name": "execAction",
            "outputs": [
                {
                    "internalType": "uint256",
                    "name": "",
                    "type": "uint256"
                }
            ],
            "stateMutability": "nonpayable",
            "type": "function"
        },
        {
            "inputs": [],
            "name": "finalized",
            "outputs": [
                {
                    "internalType": "bool",
                    "name": "",
                    "type": "bool"
                }
            ],
            "stateMutability": "view",
            "type": "function"
        },
        {
            "inputs": [],
            "name": "getBookeeper",
            "outputs": [
                {
                    "internalType": "address",
                    "name": "",
                    "type": "address"
                }
            ],
            "stateMutability": "view",
            "type": "function"
        },
        {
            "inputs": [],
            "name": "getGeneralCounsel",
            "outputs": [
                {
                    "internalType": "uint40",
                    "name": "",
                    "type": "uint40"
                }
            ],
            "stateMutability": "view",
            "type": "function"
        },
        {
            "inputs": [],
            "name": "getOwner",
            "outputs": [
                {
                    "internalType": "uint40",
                    "name": "",
                    "type": "uint40"
                }
            ],
            "stateMutability": "view",
            "type": "function"
        },
        {
            "inputs": [
                {
                    "internalType": "bytes32",
                    "name": "role",
                    "type": "bytes32"
                },
                {
                    "internalType": "uint40",
                    "name": "acct",
                    "type": "uint40"
                }
            ],
            "name": "grantRole",
            "outputs": [],
            "stateMutability": "nonpayable",
            "type": "function"
        },
        {
            "inputs": [
                {
                    "internalType": "bytes32",
                    "name": "role",
                    "type": "bytes32"
                },
                {
                    "internalType": "uint40",
                    "name": "acct",
                    "type": "uint40"
                }
            ],
            "name": "hasRole",
            "outputs": [
                {
                    "internalType": "bool",
                    "name": "",
                    "type": "bool"
                }
            ],
            "stateMutability": "view",
            "type": "function"
        },
        {
            "inputs": [
                {
                    "internalType": "uint40",
                    "name": "owner",
                    "type": "uint40"
                },
                {
                    "internalType": "address",
                    "name": "directKeeper",
                    "type": "address"
                },
                {
                    "internalType": "address",
                    "name": "regCenter",
                    "type": "address"
                },
                {
                    "internalType": "address",
                    "name": "generalKeeper",
                    "type": "address"
                }
            ],
            "name": "init",
            "outputs": [],
            "stateMutability": "nonpayable",
            "type": "function"
        },
        {
            "inputs": [],
            "name": "lockContents",
            "outputs": [],
            "stateMutability": "nonpayable",
            "type": "function"
        },
        {
            "inputs": [
                {
                    "internalType": "uint8",
                    "name": "actionType",
                    "type": "uint8"
                },
                {
                    "internalType": "address[]",
                    "name": "targets",
                    "type": "address[]"
                },
                {
                    "internalType": "uint256[]",
                    "name": "values",
                    "type": "uint256[]"
                },
                {
                    "internalType": "bytes[]",
                    "name": "params",
                    "type": "bytes[]"
                },
                {
                    "internalType": "bytes32",
                    "name": "desHash",
                    "type": "bytes32"
                },
                {
                    "internalType": "uint40",
                    "name": "submitter",
                    "type": "uint40"
                },
                {
                    "internalType": "uint40",
                    "name": "executor",
                    "type": "uint40"
                }
            ],
            "name": "proposeAction",
            "outputs": [],
            "stateMutability": "nonpayable",
            "type": "function"
        },
        {
            "inputs": [
                {
                    "internalType": "uint40",
                    "name": "director",
                    "type": "uint40"
                }
            ],
            "name": "quitPosition",
            "outputs": [],
            "stateMutability": "nonpayable",
            "type": "function"
        },
        {
            "inputs": [
                {
                    "internalType": "uint40",
                    "name": "director",
                    "type": "uint40"
                },
                {
                    "internalType": "uint40",
                    "name": "appointer",
                    "type": "uint40"
                }
            ],
            "name": "removeDirector",
            "outputs": [],
            "stateMutability": "nonpayable",
            "type": "function"
        },
        {
            "inputs": [
                {
                    "internalType": "bytes32",
                    "name": "role",
                    "type": "bytes32"
                }
            ],
            "name": "renounceRole",
            "outputs": [],
            "stateMutability": "nonpayable",
            "type": "function"
        },
        {
            "inputs": [
                {
                    "internalType": "bytes32",
                    "name": "role",
                    "type": "bytes32"
                },
                {
                    "internalType": "uint40",
                    "name": "acct",
                    "type": "uint40"
                }
            ],
            "name": "revokeRole",
            "outputs": [],
            "stateMutability": "nonpayable",
            "type": "function"
        },
        {
            "inputs": [
                {
                    "internalType": "address",
                    "name": "keeper",
                    "type": "address"
                }
            ],
            "name": "setDirectKeeper",
            "outputs": [],
            "stateMutability": "nonpayable",
            "type": "function"
        },
        {
            "inputs": [
                {
                    "internalType": "uint40",
                    "name": "acct",
                    "type": "uint40"
                }
            ],
            "name": "setGeneralCounsel",
            "outputs": [],
            "stateMutability": "nonpayable",
            "type": "function"
        },
        {
            "inputs": [
                {
                    "internalType": "uint40",
                    "name": "acct",
                    "type": "uint40"
                }
            ],
            "name": "setOwner",
            "outputs": [],
            "stateMutability": "nonpayable",
            "type": "function"
        },
        {
            "inputs": [
                {
                    "internalType": "bytes32",
                    "name": "role",
                    "type": "bytes32"
                },
                {
                    "internalType": "uint40",
                    "name": "acct",
                    "type": "uint40"
                }
            ],
            "name": "setRoleAdmin",
            "outputs": [],
            "stateMutability": "nonpayable",
            "type": "function"
        },
        {
            "inputs": [
                {
                    "internalType": "bytes32",
                    "name": "bsRule",
                    "type": "bytes32"
                },
                {
                    "internalType": "uint8",
                    "name": "seqOfTitle",
                    "type": "uint8"
                },
                {
                    "internalType": "uint256",
                    "name": "motionId",
                    "type": "uint256"
                },
                {
                    "internalType": "uint40",
                    "name": "candidate",
                    "type": "uint40"
                }
            ],
            "name": "takePosition",
            "outputs": [],
            "stateMutability": "nonpayable",
            "type": "function"
        },
        {
            "inputs": [
                {
                    "internalType": "uint256",
                    "name": "motionId",
                    "type": "uint256"
                },
                {
                    "internalType": "uint40",
                    "name": "caller",
                    "type": "uint40"
                }
            ],
            "name": "voteCounting",
            "outputs": [],
            "stateMutability": "nonpayable",
            "type": "function"
        }
    ],
    "bytecode": "608060405234801561001057600080fd5b5061370a806100206000396000f3fe608060405234801561001057600080fd5b50600436106101575760003560e01c80637ba706e8116100c3578063b3f05b971161007c578063b3f05b97146102d7578063d9624d35146102eb578063e31f2d2c146102fe578063ed21102314610311578063edaebad414610331578063f045a7691461034457600080fd5b80637ba706e8146102705780637d2c6fe714610283578063821ee8ea14610296578063893d20e8146102a95780638bb9c5bf146102b15780638d8358bd146102c457600080fd5b80633da9a600116101155780633da9a600146101ee578063458349c8146102015780634a8bbd7f146102145780636be8496f14610227578063740998151461023a57806379b2ec121461024d57600080fd5b80624f41741461015c5780630e91a0a714610182578063103f6edd1461019757806316dc517e146101b557806317c51fec146101c85780633178a9a9146101db575b600080fd5b61016f61016a366004612e6f565b61034c565b6040519081526020015b60405180910390f35b610195610190366004612f27565b61055d565b005b61019f610734565b60405164ffffffffff9091168152602001610179565b6101956101c3366004612f27565b6107c0565b6101956101d6366004612f27565b610856565b6101956101e9366004612f57565b61087b565b6101956101fc366004612f74565b610a74565b61019561020f366004612f8d565b610b86565b610195610222366004612fd5565b610d59565b610195610235366004613028565b6110fc565b610195610248366004612f27565b6111ae565b61026061025b366004612f27565b6111d3565b6040519015158152602001610179565b61019561027e366004612f57565b611274565b610195610291366004613045565b611466565b6101956102a4366004613086565b6116a1565b61019f611791565b6101956102bf366004612f74565b6117cc565b6101956102d23660046130d7565b611825565b60028054600160f01b900460ff1614610260565b6101956102f9366004613105565b611b21565b61019561030c366004613144565b6122ae565b610319612473565b6040516001600160a01b039091168152602001610179565b61019561033f366004612f57565b6124f9565b6101956126f2565b600081610357612910565b604051639766a0b360e01b815264ffffffffff831660048201526001600160a01b039190911690639766a0b39060240160206040518083038186803b15801561039f57600080fd5b505afa1580156103b3573d6000803e3d6000fd5b505050506040513d601f19601f820116820180604052508101906103d7919061320c565b6103fc5760405162461bcd60e51b81526004016103f39061322e565b60405180910390fd5b6000546040516324623db960e01b815264ffffffffff851660048201526001600160a01b03909116906324623db99060240160206040518083038186803b15801561044657600080fd5b505afa15801561045a573d6000803e3d6000fd5b505050506040513d601f19601f8201168201806040525081019061047e919061320c565b156104c25760405162461bcd60e51b815260206004820152601460248201527363616c6c6572206973206e6f7420616e20454f4160601b60448201526064016103f3565b6104ca612910565b6001600160a01b03166326802f3989898989888a6040518763ffffffff1660e01b81526004016104ff9695949392919061335c565b602060405180830381600087803b15801561051957600080fd5b505af115801561052d573d6000803e3d6000fd5b505050506040513d601f19601f8201168201806040525081019061055191906133bb565b98975050505050505050565b604051633b11adbf60e21b81526002600482015233602482015273__$364aad554dc80380f414546becdd2c1584$__9063ec46b6fc9060440160206040518083038186803b1580156105ae57600080fd5b505af41580156105c2573d6000803e3d6000fd5b505050506040513d601f19601f820116820180604052508101906105e6919061320c565b6106025760405162461bcd60e51b81526004016103f3906133d4565b8061060b612910565b604051639766a0b360e01b815264ffffffffff831660048201526001600160a01b039190911690639766a0b39060240160206040518083038186803b15801561065357600080fd5b505afa158015610667573d6000803e3d6000fd5b505050506040513d601f19601f8201168201806040525081019061068b919061320c565b6106a75760405162461bcd60e51b81526004016103f39061322e565b6106af612910565b6001600160a01b031663f8fb9e1d846040518263ffffffff1660e01b81526004016106dc91815260200190565b602060405180830381600087803b1580156106f657600080fd5b505af115801561070a573d6000803e3d6000fd5b505050506040513d601f19601f8201168201806040525081019061072e919061320c565b50505050565b60405163e8c0cc1d60e01b81526002600482015260009073__$364aad554dc80380f414546becdd2c1584$__9063e8c0cc1d906024015b60206040518083038186803b15801561078357600080fd5b505af4158015610797573d6000803e3d6000fd5b505050506040513d601f19601f820116820180604052508101906107bb919061341a565b905090565b73__$364aad554dc80380f414546becdd2c1584$__63427abff46002846107e5612977565b6040516001600160e01b031960e086901b1681526004810193909352602483019190915264ffffffffff9081166044830152841660648201526084015b60006040518083038186803b15801561083a57600080fd5b505af415801561084e573d6000803e3d6000fd5b505050505050565b73__$364aad554dc80380f414546becdd2c1584$__638ce158456002846107e5612977565b604051633b11adbf60e21b81526002600482015233602482015273__$364aad554dc80380f414546becdd2c1584$__9063ec46b6fc9060440160206040518083038186803b1580156108cc57600080fd5b505af41580156108e0573d6000803e3d6000fd5b505050506040513d601f19601f82011682018060405250810190610904919061320c565b806109a9575073__$364aad554dc80380f414546becdd2c1584$__63fe271086600261092e612977565b6040516001600160e01b031960e085901b168152600481019290925264ffffffffff16602482015260440160206040518083038186803b15801561097157600080fd5b505af4158015610985573d6000803e3d6000fd5b505050506040513d601f19601f820116820180604052508101906109a9919061320c565b6109c55760405162461bcd60e51b81526004016103f390613437565b604051632725ebef60e21b81526002600482015264ffffffffff8216602482015273__$364aad554dc80380f414546becdd2c1584$__90639c97afbc9060440160006040518083038186803b158015610a1d57600080fd5b505af4158015610a31573d6000803e3d6000fd5b505060405164ffffffffff841681527ff2735f34b69be1e6342dea95f9162f84d0db925fab655ca9f1f312ac8cbfc99d925060200190505b60405180910390a150565b604051633b11adbf60e21b81526002600482015233602482015273__$364aad554dc80380f414546becdd2c1584$__9063ec46b6fc9060440160206040518083038186803b158015610ac557600080fd5b505af4158015610ad9573d6000803e3d6000fd5b505050506040513d601f19601f82011682018060405250810190610afd919061320c565b610b195760405162461bcd60e51b81526004016103f3906133d4565b60405163cc99e11b60e01b8152600260048201526024810182905273__$364aad554dc80380f414546becdd2c1584$__9063cc99e11b9060440160006040518083038186803b158015610b6b57600080fd5b505af4158015610b7f573d6000803e3d6000fd5b5050505050565b604051633b11adbf60e21b81526002600482015233602482015273__$364aad554dc80380f414546becdd2c1584$__9063ec46b6fc9060440160206040518083038186803b158015610bd757600080fd5b505af4158015610beb573d6000803e3d6000fd5b505050506040513d601f19601f82011682018060405250810190610c0f919061320c565b610c2b5760405162461bcd60e51b81526004016103f3906133d4565b81610c34612910565b604051639766a0b360e01b815264ffffffffff831660048201526001600160a01b039190911690639766a0b39060240160206040518083038186803b158015610c7c57600080fd5b505afa158015610c90573d6000803e3d6000fd5b505050506040513d601f19601f82011682018060405250810190610cb4919061320c565b610cd05760405162461bcd60e51b81526004016103f39061322e565b610cd8612910565b60405163cba36bf360e01b81526004810187905264ffffffffff8516602482015260ff86166044820152606481018490526001600160a01b03919091169063cba36bf3906084015b600060405180830381600087803b158015610d3a57600080fd5b505af1158015610d4e573d6000803e3d6000fd5b505050505050505050565b604051633b11adbf60e21b81526002600482015233602482015273__$364aad554dc80380f414546becdd2c1584$__9063ec46b6fc9060440160206040518083038186803b158015610daa57600080fd5b505af4158015610dbe573d6000803e3d6000fd5b505050506040513d601f19601f82011682018060405250810190610de2919061320c565b610dfe5760405162461bcd60e51b81526004016103f3906133d4565b60405163242d408d60e11b81526004810185905264ffffffffff83169073__$94c94c1f27eaba30857c7d0c37f90b5581$__9063485a811a9060240160206040518083038186803b158015610e5257600080fd5b505af4158015610e66573d6000803e3d6000fd5b505050506040513d601f19601f82011682018060405250810190610e8a919061341a565b64ffffffffff1614610ee95760405162461bcd60e51b815260206004820152602260248201527f424f474b2e414f3a206e6f6d696e61746f72206e6f74207269676874686f6c6460448201526132b960f11b60648201526084016103f3565b6040516347e63bfb60e01b81526004810185905260ff8416602482015260009073__$94c94c1f27eaba30857c7d0c37f90b5581$__906347e63bfb9060440160206040518083038186803b158015610f4057600080fd5b505af4158015610f54573d6000803e3d6000fd5b505050506040513d601f19601f82011682018060405250810190610f78919061348d565b9050600a8161ffff16118015610f92575060158161ffff16105b610fde5760405162461bcd60e51b815260206004820152601f60248201527f424f474b2e414f3a206e6f7420426f61726420766f74696e672069737375650060448201526064016103f3565b60405163057a58d760e01b81526004810186905260ff8516602482015260009073__$94c94c1f27eaba30857c7d0c37f90b5581$__9063057a58d79060440160206040518083038186803b15801561103557600080fd5b505af4158015611049573d6000803e3d6000fd5b505050506040513d601f19601f8201168201806040525081019061106d91906134b1565b9050611077612910565b60405163122d93e960e01b815261ffff8416600482015260ff8316602482015264ffffffffff8087166044830152851660648201526001600160a01b03919091169063122d93e990608401600060405180830381600087803b1580156110dc57600080fd5b505af11580156110f0573d6000803e3d6000fd5b50505050505050505050565b604051630f07232560e01b8152600260048201523360248201526001600160a01b038216604482015273__$364aad554dc80380f414546becdd2c1584$__90630f0723259060640160006040518083038186803b15801561115c57600080fd5b505af4158015611170573d6000803e3d6000fd5b50506040516001600160a01b03841681527fe435cbeab64e4eae6497b9d8289704bd709d624a80704ef3ca9af777534bc6ec92506020019050610a69565b73__$364aad554dc80380f414546becdd2c1584$__63d2a15ba76002846107e5612977565b604051632a3be56b60e21b8152600260048201526024810183905264ffffffffff8216604482015260009073__$364aad554dc80380f414546becdd2c1584$__9063a8ef95ac9060640160206040518083038186803b15801561123557600080fd5b505af4158015611249573d6000803e3d6000fd5b505050506040513d601f19601f8201168201806040525081019061126d919061320c565b9392505050565b604051633b11adbf60e21b81526002600482015233602482015273__$364aad554dc80380f414546becdd2c1584$__9063ec46b6fc9060440160206040518083038186803b1580156112c557600080fd5b505af41580156112d9573d6000803e3d6000fd5b505050506040513d601f19601f820116820180604052508101906112fd919061320c565b806113a2575073__$364aad554dc80380f414546becdd2c1584$__63fe2710866002611327612977565b6040516001600160e01b031960e085901b168152600481019290925264ffffffffff16602482015260440160206040518083038186803b15801561136a57600080fd5b505af415801561137e573d6000803e3d6000fd5b505050506040513d601f19601f820116820180604052508101906113a2919061320c565b6113be5760405162461bcd60e51b81526004016103f390613437565b60405163b6e38a2960e01b81526002600482015264ffffffffff8216602482015273__$364aad554dc80380f414546becdd2c1584$__9063b6e38a299060440160006040518083038186803b15801561141657600080fd5b505af415801561142a573d6000803e3d6000fd5b505060405164ffffffffff841681527f8b6f40f36b4ae8cc5f55e895036457c43da4ab1f80f58c46f5ff0d72a650033b92506020019050610a69565b604051633b11adbf60e21b81526002600482015233602482015273__$364aad554dc80380f414546becdd2c1584$__9063ec46b6fc9060440160206040518083038186803b1580156114b757600080fd5b505af41580156114cb573d6000803e3d6000fd5b505050506040513d601f19601f820116820180604052508101906114ef919061320c565b61150b5760405162461bcd60e51b81526004016103f3906133d4565b82611514612910565b604051639766a0b360e01b815264ffffffffff831660048201526001600160a01b039190911690639766a0b39060240160206040518083038186803b15801561155c57600080fd5b505afa158015611570573d6000803e3d6000fd5b505050506040513d601f19601f82011682018060405250810190611594919061320c565b6115b05760405162461bcd60e51b81526004016103f39061322e565b826115b9612910565b604051639766a0b360e01b815264ffffffffff831660048201526001600160a01b039190911690639766a0b39060240160206040518083038186803b15801561160157600080fd5b505afa158015611615573d6000803e3d6000fd5b505050506040513d601f19601f82011682018060405250810190611639919061320c565b6116555760405162461bcd60e51b81526004016103f39061322e565b61165d612910565b6040516381ab05cb60e01b81526004810185905264ffffffffff8088166024830152861660448201526001600160a01b0391909116906381ab05cb90606401610d20565b6116aa826129d1565b6116b381612a80565b604051636cdd0edf60e11b81526002600482015264ffffffffff851660248201526001600160a01b038416604482015273__$364aad554dc80380f414546becdd2c1584$__9063d9ba1dbe9060640160006040518083038186803b15801561171a57600080fd5b505af415801561172e573d6000803e3d6000fd5b50506040805164ffffffffff881681526001600160a01b038781166020830152868116828401528516606082015290517f4d18c0021addc919105cb1ed2c11ad241e859cc1d9e77d4ee1d9ca2cdc1f255b9350908190036080019150a150505050565b60405163987ad15360e01b81526002600482015260009073__$364aad554dc80380f414546becdd2c1584$__9063987ad1539060240161076b565b60006117d6612977565b604051637963595360e11b8152600260048201526024810184905264ffffffffff8216604482015290915073__$364aad554dc80380f414546becdd2c1584$__9063f2c6b2a690606401610822565b604051633b11adbf60e21b81526002600482015233602482015273__$364aad554dc80380f414546becdd2c1584$__9063ec46b6fc9060440160206040518083038186803b15801561187657600080fd5b505af415801561188a573d6000803e3d6000fd5b505050506040513d601f19601f820116820180604052508101906118ae919061320c565b6118ca5760405162461bcd60e51b81526004016103f3906133d4565b6118d2612910565b604051639766a0b360e01b815264ffffffffff841660048201526001600160a01b039190911690639766a0b39060240160206040518083038186803b15801561191a57600080fd5b505afa15801561192e573d6000803e3d6000fd5b505050506040513d601f19601f82011682018060405250810190611952919061320c565b6119ba5760405162461bcd60e51b815260206004820152603360248201527f424f444b65657065722e72656d6f76654469726563746f723a206170706f696e6044820152723a32b91034b9903737ba10309036b2b6b132b960691b60648201526084016103f3565b8064ffffffffff166119ca612910565b604051636644b03b60e01b815264ffffffffff851660048201526001600160a01b039190911690636644b03b9060240160a06040518083038186803b158015611a1257600080fd5b505afa158015611a26573d6000803e3d6000fd5b505050506040513d601f19601f82011682018060405250810190611a4a91906134e4565b6040015164ffffffffff1614611abb5760405162461bcd60e51b815260206004820152603060248201527f424f444b65657065722e72656f76654469726563746f723a2063616c6c65722060448201526f34b9903737ba1030b83837b4b73a32b960811b60648201526084016103f3565b611ac3612910565b6040516336cd364d60e21b815264ffffffffff841660048201526001600160a01b03919091169063db34d93490602401600060405180830381600087803b158015611b0d57600080fd5b505af115801561084e573d6000803e3d6000fd5b604051633b11adbf60e21b81526002600482015233602482015273__$364aad554dc80380f414546becdd2c1584$__9063ec46b6fc9060440160206040518083038186803b158015611b7257600080fd5b505af4158015611b86573d6000803e3d6000fd5b505050506040513d601f19601f82011682018060405250810190611baa919061320c565b611bc65760405162461bcd60e51b81526004016103f3906133d4565b6040516347e63bfb60e01b81526004810185905260ff8416602482015260009073__$94c94c1f27eaba30857c7d0c37f90b5581$__906347e63bfb9060440160206040518083038186803b158015611c1d57600080fd5b505af4158015611c31573d6000803e3d6000fd5b505050506040513d601f19601f82011682018060405250810190611c55919061348d565b90506000611c61612b37565b604051634846203760e01b815261ffff841660048201526001600160a01b03919091169063484620379060240160206040518083038186803b158015611ca657600080fd5b505afa158015611cba573d6000803e3d6000fd5b505050506040513d601f19601f82011682018060405250810190611cde91906133bb565b60405163057a58d760e01b81526004810188905260ff8716602482015290915060009073__$94c94c1f27eaba30857c7d0c37f90b5581$__9063057a58d79060440160206040518083038186803b158015611d3857600080fd5b505af4158015611d4c573d6000803e3d6000fd5b505050506040513d601f19601f82011682018060405250810190611d7091906134b1565b90506000611d7c612bec565b604051624494ab60e71b81526004810185905290915060009060029073__$94c94c1f27eaba30857c7d0c37f90b5581$__9063224a55809060240160206040518083038186803b158015611dcf57600080fd5b505af4158015611de3573d6000803e3d6000fd5b505050506040513d601f19601f82011682018060405250810190611e0791906134b1565b611e119190613578565b60ff16600114611ea557611e23612910565b6001600160a01b03166364525a0d886040518263ffffffff1660e01b8152600401611e5091815260200190565b60c06040518083038186803b158015611e6857600080fd5b505afa158015611e7c573d6000803e3d6000fd5b505050506040513d601f19601f82011682018060405250810190611ea091906135a8565b611f1d565b6040516364525a0d60e01b8152600481018890526001600160a01b038316906364525a0d9060240160c06040518083038186803b158015611ee557600080fd5b505afa158015611ef9573d6000803e3d6000fd5b505050506040513d601f19601f82011682018060405250810190611f1d91906135a8565b6020808201516060808401516040805161ffff8c169581019590955260ff89169085015264ffffffffff92831691840191909152908916608083015265ffffffffffff1660a082015290915060c0016040516020818303038152906040528051906020012060001c8714611fd35760405162461bcd60e51b815260206004820152601b60248201527f424f444b2e54503a20696e636f7272656374206d6f74696f6e4964000000000060448201526064016103f3565b805160ff1660021461204d5760405162461bcd60e51b815260206004820152603960248201527f424f444b2e54503a2063616e646964617465206e6f7420626520617070726f7660448201527f6564206f7220616c726561647920696e20706f736974696f6e0000000000000060648201526084016103f3565b8564ffffffffff16816040015164ffffffffff16146120ba5760405162461bcd60e51b8152602060048201526024808201527f424f444b2e54503a2063616c6c6572206973206e6f74207468652063616e64696044820152636461746560e01b60648201526084016103f3565b604051624494ab60e71b81526004810185905260029073__$94c94c1f27eaba30857c7d0c37f90b5581$__9063224a55809060240160206040518083038186803b15801561210757600080fd5b505af415801561211b573d6000803e3d6000fd5b505050506040513d601f19601f8201168201806040525081019061213f91906134b1565b6121499190613578565b60ff16600114156121b35760405163f117bdb760e01b8152600481018890526001600160a01b0383169063f117bdb790602401600060405180830381600087803b15801561219657600080fd5b505af11580156121aa573d6000803e3d6000fd5b5050505061221b565b6121bb612910565b6001600160a01b031663f117bdb7886040518263ffffffff1660e01b81526004016121e891815260200190565b600060405180830381600087803b15801561220257600080fd5b505af1158015612216573d6000803e3d6000fd5b505050505b612223612910565b602082015160405163ee7c1be160e01b8152600481018c905260ff8616602482015264ffffffffff808a16604483015290911660648201526001600160a01b03919091169063ee7c1be190608401600060405180830381600087803b15801561228b57600080fd5b505af115801561229f573d6000803e3d6000fd5b50505050505050505050505050565b604051633b11adbf60e21b81526002600482015233602482015273__$364aad554dc80380f414546becdd2c1584$__9063ec46b6fc9060440160206040518083038186803b1580156122ff57600080fd5b505af4158015612313573d6000803e3d6000fd5b505050506040513d601f19601f82011682018060405250810190612337919061320c565b6123535760405162461bcd60e51b81526004016103f3906133d4565b8161235c612910565b604051639766a0b360e01b815264ffffffffff831660048201526001600160a01b039190911690639766a0b39060240160206040518083038186803b1580156123a457600080fd5b505afa1580156123b8573d6000803e3d6000fd5b505050506040513d601f19601f820116820180604052508101906123dc919061320c565b6123f85760405162461bcd60e51b81526004016103f39061322e565b612400612910565b6001600160a01b031663f3c54fac898989898989896040518863ffffffff1660e01b8152600401612437979695949392919061364d565b600060405180830381600087803b15801561245157600080fd5b505af1158015612465573d6000803e3d6000fd5b505050505050505050505050565b604051633c3e56c160e11b81526002600482015260009073__$364aad554dc80380f414546becdd2c1584$__9063787cad829060240160206040518083038186803b1580156124c157600080fd5b505af41580156124d5573d6000803e3d6000fd5b505050506040513d601f19601f820116820180604052508101906107bb91906136b7565b604051633b11adbf60e21b81526002600482015233602482015273__$364aad554dc80380f414546becdd2c1584$__9063ec46b6fc9060440160206040518083038186803b15801561254a57600080fd5b505af415801561255e573d6000803e3d6000fd5b505050506040513d601f19601f82011682018060405250810190612582919061320c565b61259e5760405162461bcd60e51b81526004016103f3906133d4565b6125a6612910565b604051639766a0b360e01b815264ffffffffff831660048201526001600160a01b039190911690639766a0b39060240160206040518083038186803b1580156125ee57600080fd5b505afa158015612602573d6000803e3d6000fd5b505050506040513d601f19601f82011682018060405250810190612626919061320c565b61268c5760405162461bcd60e51b815260206004820152603160248201527f424f444b65657065722e71756974506f736974696f6e3a206170706f696e7465604482015270391034b9903737ba10309036b2b6b132b960791b60648201526084016103f3565b612694612910565b6040516336cd364d60e21b815264ffffffffff831660048201526001600160a01b03919091169063db34d93490602401600060405180830381600087803b1580156126de57600080fd5b505af1158015610b7f573d6000803e3d6000fd5b604051633b11adbf60e21b81526002600482015233602482015273__$364aad554dc80380f414546becdd2c1584$__9063ec46b6fc9060440160206040518083038186803b15801561274357600080fd5b505af4158015612757573d6000803e3d6000fd5b505050506040513d601f19601f8201168201806040525081019061277b919061320c565b6127975760405162461bcd60e51b81526004016103f3906133d4565b600254600160f01b900460ff166001146127f35760405162461bcd60e51b815260206004820181905260248201527f41432e6f6e6c7950656e64696e673a20446f632069732066696e616c697a656460448201526064016103f3565b60405163cc99e11b60e01b815260026004820152684174746f726e65797360b81b602482015273__$364aad554dc80380f414546becdd2c1584$__9063cc99e11b9060440160006040518083038186803b15801561285057600080fd5b505af4158015612864573d6000803e3d6000fd5b5050604051632725ebef60e21b8152600260048201526000602482015273__$364aad554dc80380f414546becdd2c1584$__9250639c97afbc915060440160006040518083038186803b1580156128ba57600080fd5b505af41580156128ce573d6000803e3d6000fd5b50506002805460ff60f01b1916600160f11b17905550506040517f35012b512309c322acf68632cd6cb702ff0e1d776fbe9394e38ffc13b434fe7590600090a1565b600180546000916001600160a01b039091169063e06eba8c905b6040516001600160e01b031960e084901b16815260ff909116600482015260240160206040518083038186803b15801561296357600080fd5b505afa1580156124d5573d6000803e3d6000fd5b60008054604051634de835e760e11b81523360048201526001600160a01b0390911690639bd06bce90602401602060405180830381600087803b1580156129bd57600080fd5b505af1158015610797573d6000803e3d6000fd5b6000546001600160a01b031615612a225760405162461bcd60e51b815260206004820152601560248201527430b63932b0b23c9039b2ba103932b3a1b2b73a32b960591b60448201526064016103f3565b6040516001600160a01b03821681527f318da6c7624c71cbc0afe346c9d8827f119d0ecefb241a7b0c87217a076a8e029060200160405180910390a1600080546001600160a01b0319166001600160a01b0392909216919091179055565b6001546001600160a01b031615612ad95760405162461bcd60e51b815260206004820152601960248201527f616c7265616479207365742067656e6572616c4b65657065720000000000000060448201526064016103f3565b6040516001600160a01b03821681527fe513d3e0f0d0a3877029dcc588748679a7a3450ec1ec7ed56d96bd012c3e61aa9060200160405180910390a1600180546001600160a01b0319166001600160a01b0392909216919091179055565b60015460405163381baea360e21b8152600360048201526000916001600160a01b03169063e06eba8c9060240160206040518083038186803b158015612b7c57600080fd5b505afa158015612b90573d6000803e3d6000fd5b505050506040513d601f19601f82011682018060405250810190612bb491906136b7565b6001600160a01b0316632f5f3b3c6040518163ffffffff1660e01b815260040160206040518083038186803b15801561296357600080fd5b6001546000906001600160a01b031663e06eba8c600261292a565b60ff81168114612c1657600080fd5b50565b634e487b7160e01b600052604160045260246000fd5b604051601f8201601f1916810167ffffffffffffffff81118282101715612c5857612c58612c19565b604052919050565b600067ffffffffffffffff821115612c7a57612c7a612c19565b5060051b60200190565b6001600160a01b0381168114612c1657600080fd5b600082601f830112612caa57600080fd5b81356020612cbf612cba83612c60565b612c2f565b82815260059290921b84018101918181019086841115612cde57600080fd5b8286015b84811015612d02578035612cf581612c84565b8352918301918301612ce2565b509695505050505050565b600082601f830112612d1e57600080fd5b81356020612d2e612cba83612c60565b82815260059290921b84018101918181019086841115612d4d57600080fd5b8286015b84811015612d025780358352918301918301612d51565b6000601f8381840112612d7a57600080fd5b82356020612d8a612cba83612c60565b82815260059290921b85018101918181019087841115612da957600080fd5b8287015b84811015612e4057803567ffffffffffffffff80821115612dce5760008081fd5b818a0191508a603f830112612de35760008081fd5b85820135604082821115612df957612df9612c19565b612e0a828b01601f19168901612c2f565b92508183528c81838601011115612e215760008081fd5b8181850189850137506000908201870152845250918301918301612dad565b50979650505050505050565b64ffffffffff81168114612c1657600080fd5b8035612e6a81612e4c565b919050565b60008060008060008060c08789031215612e8857600080fd5b8635612e9381612c07565b9550602087013567ffffffffffffffff80821115612eb057600080fd5b612ebc8a838b01612c99565b96506040890135915080821115612ed257600080fd5b612ede8a838b01612d0d565b95506060890135915080821115612ef457600080fd5b50612f0189828a01612d68565b9350506080870135915060a0870135612f1981612e4c565b809150509295509295509295565b60008060408385031215612f3a57600080fd5b823591506020830135612f4c81612e4c565b809150509250929050565b600060208284031215612f6957600080fd5b813561126d81612e4c565b600060208284031215612f8657600080fd5b5035919050565b60008060008060808587031215612fa357600080fd5b843593506020850135612fb581612c07565b92506040850135612fc581612e4c565b9396929550929360600135925050565b60008060008060808587031215612feb57600080fd5b843593506020850135612ffd81612c07565b9250604085013561300d81612e4c565b9150606085013561301d81612e4c565b939692955090935050565b60006020828403121561303a57600080fd5b813561126d81612c84565b60008060006060848603121561305a57600080fd5b833561306581612e4c565b9250602084013561307581612e4c565b929592945050506040919091013590565b6000806000806080858703121561309c57600080fd5b84356130a781612e4c565b935060208501356130b781612c84565b925060408501356130c781612c84565b9150606085013561301d81612c84565b600080604083850312156130ea57600080fd5b82356130f581612e4c565b91506020830135612f4c81612e4c565b6000806000806080858703121561311b57600080fd5b84359350602085013561312d81612c07565b925060408501359150606085013561301d81612e4c565b600080600080600080600060e0888a03121561315f57600080fd5b873561316a81612c07565b9650602088013567ffffffffffffffff8082111561318757600080fd5b6131938b838c01612c99565b975060408a01359150808211156131a957600080fd5b6131b58b838c01612d0d565b965060608a01359150808211156131cb57600080fd5b506131d88a828b01612d68565b9450506080880135925060a08801356131f081612e4c565b91506131fe60c08901612e5f565b905092959891949750929550565b60006020828403121561321e57600080fd5b8151801515811461126d57600080fd5b602080825260129082015271191a5c9958dd1bdc881393d508195e1a5cdd60721b604082015260600190565b600081518084526020808501945080840160005b838110156132935781516001600160a01b03168752958201959082019060010161326e565b509495945050505050565b600081518084526020808501945080840160005b83811015613293578151875295820195908201906001016132b2565b600081518084526020808501808196508360051b810191508286016000805b8681101561334e578385038a5282518051808752835b8181101561331e578281018901518882018a01528801613303565b8181111561332e578489838a0101525b509a87019a601f01601f19169590950186019450918501916001016132ed565b509298975050505050505050565b60ff8716815260c06020820152600061337860c083018861325a565b828103604084015261338a818861329e565b9050828103606084015261339e81876132ce565b64ffffffffff959095166080840152505060a00152949350505050565b6000602082840312156133cd57600080fd5b5051919050565b60208082526026908201527f41432e6f6e6c794469726563744b65657065723a206e6f74206469726563742060408201526535b2b2b832b960d11b606082015260800190565b60006020828403121561342c57600080fd5b815161126d81612e4c565b60208082526036908201527f41432e6f776e65724f72446972656374426f6f6b65657065723a206e6569746860408201527532b91037bbb732b9103737b9103137b7b5b2b2b832b960511b606082015260800190565b60006020828403121561349f57600080fd5b815161ffff8116811461126d57600080fd5b6000602082840312156134c357600080fd5b815161126d81612c07565b805165ffffffffffff81168114612e6a57600080fd5b600060a082840312156134f657600080fd5b60405160a0810181811067ffffffffffffffff8211171561351957613519612c19565b604052825161352781612c07565b8152602083015161353781612e4c565b6020820152604083015161354a81612e4c565b604082015261355b606084016134ce565b606082015261356c608084016134ce565b60808201529392505050565b600060ff83168061359957634e487b7160e01b600052601260045260246000fd5b8060ff84160691505092915050565b600060c082840312156135ba57600080fd5b60405160c0810181811067ffffffffffffffff821117156135dd576135dd612c19565b60405282516135eb81612c07565b815260208301516135fb81612e4c565b6020820152604083015161360e81612e4c565b604082015261361f606084016134ce565b6060820152613630608084016134ce565b608082015261364160a084016134ce565b60a08201529392505050565b60ff8816815260e06020820152600061366960e083018961325a565b828103604084015261367b818961329e565b9050828103606084015261368f81886132ce565b6080840196909652505064ffffffffff92831660a0820152911660c090910152949350505050565b6000602082840312156136c957600080fd5b815161126d81612c8456fea2646970667358221220869439a06bf44dbaa941a2ea6e9961c885b938b867a334c815a7741fb52a260a64736f6c63430008080033",
    "sourcePath": "/Users/kaptain/github.com/hardhat/comboox/contracts/keepers/BODKeeper.sol",
    "compiler": {
        "name": "solc",
        "version": "0.8.8+commit.dddeac2f"
    },
    "functionHashes": {
        "abandonRole(bytes32)": "3da9a600",
        "appointOfficer(bytes32,uint8,uint40,uint40)": "4a8bbd7f",
        "castVote(uint256,uint8,uint40,bytes32)": "458349c8",
        "entrustDelegate(uint40,uint40,uint256)": "7d2c6fe7",
        "execAction(uint8,address[],uint256[],bytes[],bytes32,uint40)": "004f4174",
        "finalized()": "b3f05b97",
        "getBookeeper()": "ed211023",
        "getGeneralCounsel()": "103f6edd",
        "getOwner()": "893d20e8",
        "grantRole(bytes32,uint40)": "74099815",
        "hasRole(bytes32,uint40)": "79b2ec12",
        "init(uint40,address,address,address)": "821ee8ea",
        "lockContents()": "f045a769",
        "proposeAction(uint8,address[],uint256[],bytes[],bytes32,uint40,uint40)": "e31f2d2c",
        "quitPosition(uint40)": "edaebad4",
        "removeDirector(uint40,uint40)": "8d8358bd",
        "renounceRole(bytes32)": "8bb9c5bf",
        "revokeRole(bytes32,uint40)": "17c51fec",
        "setDirectKeeper(address)": "6be8496f",
        "setGeneralCounsel(uint40)": "3178a9a9",
        "setOwner(uint40)": "7ba706e8",
        "setRoleAdmin(bytes32,uint40)": "16dc517e",
        "takePosition(bytes32,uint8,uint256,uint40)": "d9624d35",
        "voteCounting(uint256,uint40)": "0e91a0a7"
    },
    "gasEstimates": {
        "creation": {
            "codeDepositCost": "2818000",
            "executionCost": "3076",
            "totalCost": "2821076"
        },
        "external": {
            "abandonRole(bytes32)": "infinite",
            "appointOfficer(bytes32,uint8,uint40,uint40)": "infinite",
            "castVote(uint256,uint8,uint40,bytes32)": "infinite",
            "entrustDelegate(uint40,uint40,uint256)": "infinite",
            "execAction(uint8,address[],uint256[],bytes[],bytes32,uint40)": "infinite",
            "finalized()": "2349",
            "getBookeeper()": "infinite",
            "getGeneralCounsel()": "infinite",
            "getOwner()": "infinite",
            "grantRole(bytes32,uint40)": "infinite",
            "hasRole(bytes32,uint40)": "infinite",
            "init(uint40,address,address,address)": "infinite",
            "lockContents()": "infinite",
            "proposeAction(uint8,address[],uint256[],bytes[],bytes32,uint40,uint40)": "infinite",
            "quitPosition(uint40)": "infinite",
            "removeDirector(uint40,uint40)": "infinite",
            "renounceRole(bytes32)": "infinite",
            "revokeRole(bytes32,uint40)": "infinite",
            "setDirectKeeper(address)": "infinite",
            "setGeneralCounsel(uint40)": "infinite",
            "setOwner(uint40)": "infinite",
            "setRoleAdmin(bytes32,uint40)": "infinite",
            "takePosition(bytes32,uint8,uint256,uint40)": "infinite",
            "voteCounting(uint256,uint40)": "infinite"
        }
    }
}