{
    "contractName": "BODKeeper",
    "abi": [
        {
            "anonymous": false,
            "inputs": [
                {
                    "indexed": false,
                    "internalType": "uint256",
                    "name": "owner",
                    "type": "uint256"
                },
                {
                    "indexed": false,
                    "internalType": "address",
                    "name": "directKeeper",
                    "type": "address"
                },
                {
                    "indexed": false,
                    "internalType": "address",
                    "name": "regCenter",
                    "type": "address"
                },
                {
                    "indexed": false,
                    "internalType": "address",
                    "name": "generalKeeper",
                    "type": "address"
                }
            ],
            "name": "Init",
            "type": "event"
        },
        {
            "anonymous": false,
            "inputs": [],
            "name": "LockContents",
            "type": "event"
        },
        {
            "anonymous": false,
            "inputs": [
                {
                    "indexed": false,
                    "internalType": "address",
                    "name": "keeper",
                    "type": "address"
                }
            ],
            "name": "SetDirectKeeper",
            "type": "event"
        },
        {
            "anonymous": false,
            "inputs": [
                {
                    "indexed": false,
                    "internalType": "uint256",
                    "name": "acct",
                    "type": "uint256"
                }
            ],
            "name": "SetGeneralCounsel",
            "type": "event"
        },
        {
            "anonymous": false,
            "inputs": [
                {
                    "indexed": false,
                    "internalType": "address",
                    "name": "gk",
                    "type": "address"
                }
            ],
            "name": "SetGeneralKeeper",
            "type": "event"
        },
        {
            "anonymous": false,
            "inputs": [
                {
                    "indexed": false,
                    "internalType": "uint256",
                    "name": "acct",
                    "type": "uint256"
                }
            ],
            "name": "SetOwner",
            "type": "event"
        },
        {
            "anonymous": false,
            "inputs": [
                {
                    "indexed": false,
                    "internalType": "address",
                    "name": "rc",
                    "type": "address"
                }
            ],
            "name": "SetRegCenter",
            "type": "event"
        },
        {
            "inputs": [
                {
                    "internalType": "bytes32",
                    "name": "role",
                    "type": "bytes32"
                }
            ],
            "name": "abandonRole",
            "outputs": [],
            "stateMutability": "nonpayable",
            "type": "function"
        },
        {
            "inputs": [
                {
                    "internalType": "uint256",
                    "name": "seqOfBSR",
                    "type": "uint256"
                },
                {
                    "internalType": "uint8",
                    "name": "seqOfTitle",
                    "type": "uint8"
                },
                {
                    "internalType": "uint256",
                    "name": "nominator",
                    "type": "uint256"
                },
                {
                    "internalType": "uint256",
                    "name": "candidate",
                    "type": "uint256"
                }
            ],
            "name": "appointOfficer",
            "outputs": [],
            "stateMutability": "nonpayable",
            "type": "function"
        },
        {
            "inputs": [
                {
                    "internalType": "uint256",
                    "name": "actionId",
                    "type": "uint256"
                },
                {
                    "internalType": "uint8",
                    "name": "attitude",
                    "type": "uint8"
                },
                {
                    "internalType": "uint256",
                    "name": "caller",
                    "type": "uint256"
                },
                {
                    "internalType": "bytes32",
                    "name": "sigHash",
                    "type": "bytes32"
                }
            ],
            "name": "castVote",
            "outputs": [],
            "stateMutability": "nonpayable",
            "type": "function"
        },
        {
            "inputs": [
                {
                    "internalType": "uint256",
                    "name": "caller",
                    "type": "uint256"
                },
                {
                    "internalType": "uint256",
                    "name": "delegate",
                    "type": "uint256"
                },
                {
                    "internalType": "uint256",
                    "name": "motionId",
                    "type": "uint256"
                }
            ],
            "name": "entrustDelegate",
            "outputs": [],
            "stateMutability": "nonpayable",
            "type": "function"
        },
        {
            "inputs": [
                {
                    "internalType": "uint8",
                    "name": "actionType",
                    "type": "uint8"
                },
                {
                    "internalType": "address[]",
                    "name": "targets",
                    "type": "address[]"
                },
                {
                    "internalType": "uint256[]",
                    "name": "values",
                    "type": "uint256[]"
                },
                {
                    "internalType": "bytes[]",
                    "name": "params",
                    "type": "bytes[]"
                },
                {
                    "internalType": "bytes32",
                    "name": "desHash",
                    "type": "bytes32"
                },
                {
                    "internalType": "uint256",
                    "name": "caller",
                    "type": "uint256"
                }
            ],
            "name": "execAction",
            "outputs": [
                {
                    "internalType": "uint256",
                    "name": "",
                    "type": "uint256"
                }
            ],
            "stateMutability": "nonpayable",
            "type": "function"
        },
        {
            "inputs": [],
            "name": "finalized",
            "outputs": [
                {
                    "internalType": "bool",
                    "name": "",
                    "type": "bool"
                }
            ],
            "stateMutability": "view",
            "type": "function"
        },
        {
            "inputs": [],
            "name": "getBookeeper",
            "outputs": [
                {
                    "internalType": "address",
                    "name": "",
                    "type": "address"
                }
            ],
            "stateMutability": "view",
            "type": "function"
        },
        {
            "inputs": [],
            "name": "getGeneralCounsel",
            "outputs": [
                {
                    "internalType": "uint40",
                    "name": "",
                    "type": "uint40"
                }
            ],
            "stateMutability": "view",
            "type": "function"
        },
        {
            "inputs": [],
            "name": "getOwner",
            "outputs": [
                {
                    "internalType": "uint40",
                    "name": "",
                    "type": "uint40"
                }
            ],
            "stateMutability": "view",
            "type": "function"
        },
        {
            "inputs": [
                {
                    "internalType": "bytes32",
                    "name": "role",
                    "type": "bytes32"
                },
                {
                    "internalType": "uint256",
                    "name": "acct",
                    "type": "uint256"
                }
            ],
            "name": "grantRole",
            "outputs": [],
            "stateMutability": "nonpayable",
            "type": "function"
        },
        {
            "inputs": [
                {
                    "internalType": "bytes32",
                    "name": "role",
                    "type": "bytes32"
                },
                {
                    "internalType": "uint256",
                    "name": "acct",
                    "type": "uint256"
                }
            ],
            "name": "hasRole",
            "outputs": [
                {
                    "internalType": "bool",
                    "name": "",
                    "type": "bool"
                }
            ],
            "stateMutability": "view",
            "type": "function"
        },
        {
            "inputs": [
                {
                    "internalType": "uint256",
                    "name": "owner",
                    "type": "uint256"
                },
                {
                    "internalType": "address",
                    "name": "directKeeper",
                    "type": "address"
                },
                {
                    "internalType": "address",
                    "name": "regCenter",
                    "type": "address"
                },
                {
                    "internalType": "address",
                    "name": "generalKeeper",
                    "type": "address"
                }
            ],
            "name": "init",
            "outputs": [],
            "stateMutability": "nonpayable",
            "type": "function"
        },
        {
            "inputs": [],
            "name": "lockContents",
            "outputs": [],
            "stateMutability": "nonpayable",
            "type": "function"
        },
        {
            "inputs": [
                {
                    "internalType": "uint8",
                    "name": "actionType",
                    "type": "uint8"
                },
                {
                    "internalType": "address[]",
                    "name": "targets",
                    "type": "address[]"
                },
                {
                    "internalType": "uint256[]",
                    "name": "values",
                    "type": "uint256[]"
                },
                {
                    "internalType": "bytes[]",
                    "name": "params",
                    "type": "bytes[]"
                },
                {
                    "internalType": "bytes32",
                    "name": "desHash",
                    "type": "bytes32"
                },
                {
                    "internalType": "uint256",
                    "name": "submitter",
                    "type": "uint256"
                },
                {
                    "internalType": "uint256",
                    "name": "executor",
                    "type": "uint256"
                }
            ],
            "name": "proposeAction",
            "outputs": [],
            "stateMutability": "nonpayable",
            "type": "function"
        },
        {
            "inputs": [
                {
                    "internalType": "uint256",
                    "name": "director",
                    "type": "uint256"
                }
            ],
            "name": "quitPosition",
            "outputs": [],
            "stateMutability": "nonpayable",
            "type": "function"
        },
        {
            "inputs": [
                {
                    "internalType": "uint256",
                    "name": "director",
                    "type": "uint256"
                },
                {
                    "internalType": "uint256",
                    "name": "appointer",
                    "type": "uint256"
                }
            ],
            "name": "removeDirector",
            "outputs": [],
            "stateMutability": "nonpayable",
            "type": "function"
        },
        {
            "inputs": [
                {
                    "internalType": "bytes32",
                    "name": "role",
                    "type": "bytes32"
                }
            ],
            "name": "renounceRole",
            "outputs": [],
            "stateMutability": "nonpayable",
            "type": "function"
        },
        {
            "inputs": [
                {
                    "internalType": "bytes32",
                    "name": "role",
                    "type": "bytes32"
                },
                {
                    "internalType": "uint256",
                    "name": "acct",
                    "type": "uint256"
                }
            ],
            "name": "revokeRole",
            "outputs": [],
            "stateMutability": "nonpayable",
            "type": "function"
        },
        {
            "inputs": [
                {
                    "internalType": "address",
                    "name": "keeper",
                    "type": "address"
                }
            ],
            "name": "setDirectKeeper",
            "outputs": [],
            "stateMutability": "nonpayable",
            "type": "function"
        },
        {
            "inputs": [
                {
                    "internalType": "uint256",
                    "name": "acct",
                    "type": "uint256"
                }
            ],
            "name": "setGeneralCounsel",
            "outputs": [],
            "stateMutability": "nonpayable",
            "type": "function"
        },
        {
            "inputs": [
                {
                    "internalType": "uint256",
                    "name": "acct",
                    "type": "uint256"
                }
            ],
            "name": "setOwner",
            "outputs": [],
            "stateMutability": "nonpayable",
            "type": "function"
        },
        {
            "inputs": [
                {
                    "internalType": "bytes32",
                    "name": "role",
                    "type": "bytes32"
                },
                {
                    "internalType": "uint256",
                    "name": "acct",
                    "type": "uint256"
                }
            ],
            "name": "setRoleAdmin",
            "outputs": [],
            "stateMutability": "nonpayable",
            "type": "function"
        },
        {
            "inputs": [
                {
                    "internalType": "uint256",
                    "name": "seqOfBSR",
                    "type": "uint256"
                },
                {
                    "internalType": "uint256",
                    "name": "seqOfTitle",
                    "type": "uint256"
                },
                {
                    "internalType": "uint256",
                    "name": "motionId",
                    "type": "uint256"
                },
                {
                    "internalType": "uint256",
                    "name": "candidate",
                    "type": "uint256"
                }
            ],
            "name": "takePosition",
            "outputs": [],
            "stateMutability": "nonpayable",
            "type": "function"
        },
        {
            "inputs": [
                {
                    "internalType": "uint256",
                    "name": "motionId",
                    "type": "uint256"
                },
                {
                    "internalType": "uint256",
                    "name": "caller",
                    "type": "uint256"
                }
            ],
            "name": "voteCounting",
            "outputs": [],
            "stateMutability": "nonpayable",
            "type": "function"
        }
    ],
    "bytecode": "608060405234801561001057600080fd5b5061375c806100206000396000f3fe608060405234801561001057600080fd5b50600436106101585760003560e01c80638bb9c5bf116100c3578063dc890da91161007c578063dc890da9146102d9578063ed211023146102ec578063f045a7691461030c578063f894759e14610314578063f8be81ac14610327578063fe1bdff21461033a57600080fd5b80638bb9c5bf1461025857806392c2c3d31461026b578063a19012b91461027e578063b3f05b971461029f578063d990e5b9146102b3578063db8b9a83146102c657600080fd5b80635171ebd4116101155780635171ebd4146101e1578063527fa452146101f45780636be8496f146102075780637e063c5a1461021a5780638041494e1461023d578063893d20e81461025057600080fd5b8063103f6edd1461015d57806319d61ad9146101805780631b6ea9f9146101955780633da9a600146101a85780633ea65d6f146101bb5780634a14beb1146101ce575b600080fd5b61016561034d565b60405164ffffffffff90911681526020015b60405180910390f35b61019361018e366004612a56565b6103d9565b005b6101936101a3366004612a56565b61046d565b6101936101b6366004612a78565b610492565b6101936101c9366004612a91565b6105ad565b6101936101dc366004612a78565b610cc6565b6101936101ef366004612a56565b610eb6565b610193610202366004612d55565b610edb565b610193610215366004612e0b565b61109d565b61022d610228366004612a56565b61114f565b6040519015158152602001610177565b61019361024b366004612a78565b6111ea565b6101656113cf565b610193610266366004612a78565b61140a565b610193610279366004612a78565b611463565b61029161028c366004612e28565b611649565b604051908152602001610177565b60028054600160f01b900460ff161461022d565b6101936102c1366004612ed5565b611848565b6101936102d4366004612ed5565b611a12565b6101936102e7366004612f12565b611d52565b6102f4611e35565b6040516001600160a01b039091168152602001610177565b610193611ebb565b610193610322366004612a56565b6120d9565b610193610335366004612a56565b6122ad565b610193610348366004612f65565b612589565b60405163e8c0cc1d60e01b81526002600482015260009073__$364aad554dc80380f414546becdd2c1584$__9063e8c0cc1d906024015b60206040518083038186803b15801561039c57600080fd5b505af41580156103b0573d6000803e3d6000fd5b505050506040513d601f19601f820116820180604052508101906103d49190612fab565b905090565b73__$364aad554dc80380f414546becdd2c1584$__6382daafaa6002846103fe6127b7565b6040516001600160e01b031960e086901b1681526004810193909352602483019190915264ffffffffff166044820152606481018490526084015b60006040518083038186803b15801561045157600080fd5b505af4158015610465573d6000803e3d6000fd5b505050505050565b73__$364aad554dc80380f414546becdd2c1584$__636320d75e6002846103fe6127b7565b604051633b11adbf60e21b81526002600482015233602482015273__$364aad554dc80380f414546becdd2c1584$__9063ec46b6fc9060440160206040518083038186803b1580156104e357600080fd5b505af41580156104f7573d6000803e3d6000fd5b505050506040513d601f19601f8201168201806040525081019061051b9190612fd6565b6105405760405162461bcd60e51b815260040161053790612ff1565b60405180910390fd5b60405163cc99e11b60e01b8152600260048201526024810182905273__$364aad554dc80380f414546becdd2c1584$__9063cc99e11b9060440160006040518083038186803b15801561059257600080fd5b505af41580156105a6573d6000803e3d6000fd5b5050505050565b604051633b11adbf60e21b81526002600482015233602482015273__$364aad554dc80380f414546becdd2c1584$__9063ec46b6fc9060440160206040518083038186803b1580156105fe57600080fd5b505af4158015610612573d6000803e3d6000fd5b505050506040513d601f19601f820116820180604052508101906106369190612fd6565b6106525760405162461bcd60e51b815260040161053790612ff1565b600061065c612811565b6001600160a01b03166348462037866040518263ffffffff1660e01b815260040161068991815260200190565b60206040518083038186803b1580156106a157600080fd5b505afa1580156106b5573d6000803e3d6000fd5b505050506040513d601f19601f820116820180604052508101906106d99190613037565b6040516366e5ec3360e01b8152600481019190915273__$9d2c69e94fee47b9774dc8db4aa5c0bbec$__906366e5ec33906024016102606040518083038186803b15801561072657600080fd5b505af415801561073a573d6000803e3d6000fd5b505050506040513d601f19601f8201168201806040525081019061075e91906130c4565b905060008160c001518560078110610778576107786131a3565b602002015161ffff169050600061078d612811565b6001600160a01b03166348462037836040518263ffffffff1660e01b81526004016107ba91815260200190565b60206040518083038186803b1580156107d257600080fd5b505afa1580156107e6573d6000803e3d6000fd5b505050506040513d601f19601f8201168201806040525081019061080a9190613037565b604051634281ec6b60e11b8152600481019190915273__$9d2c69e94fee47b9774dc8db4aa5c0bbec$__90638503d8d6906024016102206040518083038186803b15801561085757600080fd5b505af415801561086b573d6000803e3d6000fd5b505050506040513d601f19601f8201168201806040525081019061088f919061322e565b905060008360a0015187600781106108a9576108a96131a3565b6020020151905060006108ba612867565b905060006108c66128b7565b90506000600285606001516108db9190613351565b60ff16600114610962576040516364525a0d60e01b8152600481018a90526001600160a01b038316906364525a0d9060240160c06040518083038186803b15801561092557600080fd5b505afa158015610939573d6000803e3d6000fd5b505050506040513d601f19601f8201168201806040525081019061095d9190613397565b6109da565b6040516364525a0d60e01b8152600481018a90526001600160a01b038416906364525a0d9060240160c06040518083038186803b1580156109a257600080fd5b505afa1580156109b6573d6000803e3d6000fd5b505050506040513d601f19601f820116820180604052508101906109da9190613397565b602080820151606080840151604080519485018c905260ff8a169085015264ffffffffff90921690830152608082018b905265ffffffffffff1660a082015290915060c0016040516020818303038152906040528051906020012060001c8914610a865760405162461bcd60e51b815260206004820152601b60248201527f424f444b2e54503a20696e636f7272656374206d6f74696f6e496400000000006044820152606401610537565b805160ff16600214610b005760405162461bcd60e51b815260206004820152603960248201527f424f444b2e54503a2063616e646964617465206e6f7420626520617070726f7660448201527f6564206f7220616c726561647920696e20706f736974696f6e000000000000006064820152608401610537565b87816040015164ffffffffff1614610b665760405162461bcd60e51b8152602060048201526024808201527f424f444b2e54503a2063616c6c6572206973206e6f74207468652063616e64696044820152636461746560e01b6064820152608401610537565b60028560600151610b779190613351565b60ff1660011415610be15760405163f117bdb760e01b8152600481018a90526001600160a01b0384169063f117bdb790602401600060405180830381600087803b158015610bc457600080fd5b505af1158015610bd8573d6000803e3d6000fd5b50505050610c3c565b60405163f117bdb760e01b8152600481018a90526001600160a01b0383169063f117bdb790602401600060405180830381600087803b158015610c2357600080fd5b505af1158015610c37573d6000803e3d6000fd5b505050505b6020810151604051632bf499d960e21b8152600481018d905260ff86166024820152604481018a905264ffffffffff90911660648201526001600160a01b0383169063afd2676490608401600060405180830381600087803b158015610ca157600080fd5b505af1158015610cb5573d6000803e3d6000fd5b505050505050505050505050505050565b604051633b11adbf60e21b81526002600482015233602482015273__$364aad554dc80380f414546becdd2c1584$__9063ec46b6fc9060440160206040518083038186803b158015610d1757600080fd5b505af4158015610d2b573d6000803e3d6000fd5b505050506040513d601f19601f82011682018060405250810190610d4f9190612fd6565b80610df4575073__$364aad554dc80380f414546becdd2c1584$__63fe2710866002610d796127b7565b6040516001600160e01b031960e085901b168152600481019290925264ffffffffff16602482015260440160206040518083038186803b158015610dbc57600080fd5b505af4158015610dd0573d6000803e3d6000fd5b505050506040513d601f19601f82011682018060405250810190610df49190612fd6565b610e105760405162461bcd60e51b815260040161053790613438565b604051632725ebef60e21b8152600260048201526024810182905273__$364aad554dc80380f414546becdd2c1584$__90639c97afbc9060440160006040518083038186803b158015610e6257600080fd5b505af4158015610e76573d6000803e3d6000fd5b505050507ff2735f34b69be1e6342dea95f9162f84d0db925fab655ca9f1f312ac8cbfc99d81604051610eab91815260200190565b60405180910390a150565b73__$364aad554dc80380f414546becdd2c1584$__63ee98b3136002846103fe6127b7565b604051633b11adbf60e21b81526002600482015233602482015273__$364aad554dc80380f414546becdd2c1584$__9063ec46b6fc9060440160206040518083038186803b158015610f2c57600080fd5b505af4158015610f40573d6000803e3d6000fd5b505050506040513d601f19601f82011682018060405250810190610f649190612fd6565b610f805760405162461bcd60e51b815260040161053790612ff1565b81610f896128b7565b6001600160a01b0316639258effe826040518263ffffffff1660e01b8152600401610fb691815260200190565b60206040518083038186803b158015610fce57600080fd5b505afa158015610fe2573d6000803e3d6000fd5b505050506040513d601f19601f820116820180604052508101906110069190612fd6565b6110225760405162461bcd60e51b81526004016105379061348e565b61102a6128b7565b6001600160a01b031663bbfd607d898989898989896040518863ffffffff1660e01b815260040161106197969594939291906135bf565b600060405180830381600087803b15801561107b57600080fd5b505af115801561108f573d6000803e3d6000fd5b505050505050505050505050565b604051630f07232560e01b8152600260048201523360248201526001600160a01b038216604482015273__$364aad554dc80380f414546becdd2c1584$__90630f0723259060640160006040518083038186803b1580156110fd57600080fd5b505af4158015611111573d6000803e3d6000fd5b50506040516001600160a01b03841681527fe435cbeab64e4eae6497b9d8289704bd709d624a80704ef3ca9af777534bc6ec92506020019050610eab565b604051632a3be56b60e21b815260026004820152602481018390526044810182905260009073__$364aad554dc80380f414546becdd2c1584$__9063a8ef95ac9060640160206040518083038186803b1580156111ab57600080fd5b505af41580156111bf573d6000803e3d6000fd5b505050506040513d601f19601f820116820180604052508101906111e39190612fd6565b9392505050565b604051633b11adbf60e21b81526002600482015233602482015273__$364aad554dc80380f414546becdd2c1584$__9063ec46b6fc9060440160206040518083038186803b15801561123b57600080fd5b505af415801561124f573d6000803e3d6000fd5b505050506040513d601f19601f820116820180604052508101906112739190612fd6565b80611318575073__$364aad554dc80380f414546becdd2c1584$__63fe271086600261129d6127b7565b6040516001600160e01b031960e085901b168152600481019290925264ffffffffff16602482015260440160206040518083038186803b1580156112e057600080fd5b505af41580156112f4573d6000803e3d6000fd5b505050506040513d601f19601f820116820180604052508101906113189190612fd6565b6113345760405162461bcd60e51b815260040161053790613438565b60405163b6e38a2960e01b8152600260048201526024810182905273__$364aad554dc80380f414546becdd2c1584$__9063b6e38a299060440160006040518083038186803b15801561138657600080fd5b505af415801561139a573d6000803e3d6000fd5b505050507f8b6f40f36b4ae8cc5f55e895036457c43da4ab1f80f58c46f5ff0d72a650033b81604051610eab91815260200190565b60405163987ad15360e01b81526002600482015260009073__$364aad554dc80380f414546becdd2c1584$__9063987ad15390602401610384565b60006114146127b7565b60405163cc0d511b60e01b8152600260048201526024810184905264ffffffffff8216604482015290915073__$364aad554dc80380f414546becdd2c1584$__9063cc0d511b90606401610439565b604051633b11adbf60e21b81526002600482015233602482015273__$364aad554dc80380f414546becdd2c1584$__9063ec46b6fc9060440160206040518083038186803b1580156114b457600080fd5b505af41580156114c8573d6000803e3d6000fd5b505050506040513d601f19601f820116820180604052508101906114ec9190612fd6565b6115085760405162461bcd60e51b815260040161053790612ff1565b60006115126128b7565b60405163492c77ff60e11b8152600481018490529091506001600160a01b03821690639258effe9060240160206040518083038186803b15801561155557600080fd5b505afa158015611569573d6000803e3d6000fd5b505050506040513d601f19601f8201168201806040525081019061158d9190612fd6565b6115f35760405162461bcd60e51b815260206004820152603160248201527f424f444b65657065722e71756974506f736974696f6e3a206170706f696e7465604482015270391034b9903737ba10309036b2b6b132b960791b6064820152608401610537565b60405163160392d760e01b8152600481018390526001600160a01b0382169063160392d790602401600060405180830381600087803b15801561163557600080fd5b505af1158015610465573d6000803e3d6000fd5b6000816116546128b7565b6001600160a01b0316639258effe826040518263ffffffff1660e01b815260040161168191815260200190565b60206040518083038186803b15801561169957600080fd5b505afa1580156116ad573d6000803e3d6000fd5b505050506040513d601f19601f820116820180604052508101906116d19190612fd6565b6116ed5760405162461bcd60e51b81526004016105379061348e565b6000546040516304e4a58160e31b8152600481018590526001600160a01b03909116906327252c089060240160206040518083038186803b15801561173157600080fd5b505afa158015611745573d6000803e3d6000fd5b505050506040513d601f19601f820116820180604052508101906117699190612fd6565b156117ad5760405162461bcd60e51b815260206004820152601460248201527363616c6c6572206973206e6f7420616e20454f4160601b6044820152606401610537565b6117b56128b7565b6001600160a01b031663240a643889898989888a6040518763ffffffff1660e01b81526004016117ea96959493929190613621565b602060405180830381600087803b15801561180457600080fd5b505af1158015611818573d6000803e3d6000fd5b505050506040513d601f19601f8201168201806040525081019061183c9190613037565b98975050505050505050565b604051633b11adbf60e21b81526002600482015233602482015273__$364aad554dc80380f414546becdd2c1584$__9063ec46b6fc9060440160206040518083038186803b15801561189957600080fd5b505af41580156118ad573d6000803e3d6000fd5b505050506040513d601f19601f820116820180604052508101906118d19190612fd6565b6118ed5760405162461bcd60e51b815260040161053790612ff1565b816118f66128b7565b6001600160a01b0316639258effe826040518263ffffffff1660e01b815260040161192391815260200190565b60206040518083038186803b15801561193b57600080fd5b505afa15801561194f573d6000803e3d6000fd5b505050506040513d601f19601f820116820180604052508101906119739190612fd6565b61198f5760405162461bcd60e51b81526004016105379061348e565b6119976128b7565b604051632de3207560e01b8152600481018790526024810185905260ff86166044820152606481018490526001600160a01b039190911690632de32075906084015b600060405180830381600087803b1580156119f357600080fd5b505af1158015611a07573d6000803e3d6000fd5b505050505050505050565b604051633b11adbf60e21b81526002600482015233602482015273__$364aad554dc80380f414546becdd2c1584$__9063ec46b6fc9060440160206040518083038186803b158015611a6357600080fd5b505af4158015611a77573d6000803e3d6000fd5b505050506040513d601f19601f82011682018060405250810190611a9b9190612fd6565b611ab75760405162461bcd60e51b815260040161053790612ff1565b6000611ac1612811565b6001600160a01b03166348462037866040518263ffffffff1660e01b8152600401611aee91815260200190565b60206040518083038186803b158015611b0657600080fd5b505afa158015611b1a573d6000803e3d6000fd5b505050506040513d601f19601f82011682018060405250810190611b3e9190613037565b6040516366e5ec3360e01b8152600481019190915273__$9d2c69e94fee47b9774dc8db4aa5c0bbec$__906366e5ec33906024016102606040518083038186803b158015611b8b57600080fd5b505af4158015611b9f573d6000803e3d6000fd5b505050506040513d601f19601f82011682018060405250810190611bc391906130c4565b905082816060015164ffffffffff1614611c2a5760405162461bcd60e51b815260206004820152602260248201527f424f474b2e414f3a206e6f6d696e61746f72206e6f74207269676874686f6c6460448201526132b960f11b6064820152608401610537565b60008160c001518560ff1660078110611c4557611c456131a3565b602002015161ffff169050600a81118015611c605750601581105b611cac5760405162461bcd60e51b815260206004820152601f60248201527f424f474b2e414f3a206e6f7420426f61726420766f74696e67206973737565006044820152606401610537565b60008260a001518660ff1660078110611cc757611cc76131a3565b60200201519050611cd66128b7565b60405163db8b9a8360e01b81526004810184905260ff8316602482015260448101879052606481018690526001600160a01b03919091169063db8b9a8390608401600060405180830381600087803b158015611d3157600080fd5b505af1158015611d45573d6000803e3d6000fd5b5050505050505050505050565b611d5b826128d5565b611d6481612984565b604051636cdd0edf60e11b815260026004820152602481018590526001600160a01b038416604482015273__$364aad554dc80380f414546becdd2c1584$__9063d9ba1dbe9060640160006040518083038186803b158015611dc557600080fd5b505af4158015611dd9573d6000803e3d6000fd5b5050604080518781526001600160a01b038781166020830152868116828401528516606082015290517f3abb2418c66fe32ba9c883030a75ce583971d9af9192b9b74e44e67c5e6c8c1f9350908190036080019150a150505050565b604051633c3e56c160e11b81526002600482015260009073__$364aad554dc80380f414546becdd2c1584$__9063787cad829060240160206040518083038186803b158015611e8357600080fd5b505af4158015611e97573d6000803e3d6000fd5b505050506040513d601f19601f820116820180604052508101906103d49190613679565b604051633b11adbf60e21b81526002600482015233602482015273__$364aad554dc80380f414546becdd2c1584$__9063ec46b6fc9060440160206040518083038186803b158015611f0c57600080fd5b505af4158015611f20573d6000803e3d6000fd5b505050506040513d601f19601f82011682018060405250810190611f449190612fd6565b611f605760405162461bcd60e51b815260040161053790612ff1565b600254600160f01b900460ff16600114611fbc5760405162461bcd60e51b815260206004820181905260248201527f41432e6f6e6c7950656e64696e673a20446f632069732066696e616c697a65646044820152606401610537565b60405163cc99e11b60e01b815260026004820152684174746f726e65797360b81b602482015273__$364aad554dc80380f414546becdd2c1584$__9063cc99e11b9060440160006040518083038186803b15801561201957600080fd5b505af415801561202d573d6000803e3d6000fd5b5050604051632725ebef60e21b8152600260048201526000602482015273__$364aad554dc80380f414546becdd2c1584$__9250639c97afbc915060440160006040518083038186803b15801561208357600080fd5b505af4158015612097573d6000803e3d6000fd5b50506002805460ff60f01b1916600160f11b17905550506040517f35012b512309c322acf68632cd6cb702ff0e1d776fbe9394e38ffc13b434fe7590600090a1565b604051633b11adbf60e21b81526002600482015233602482015273__$364aad554dc80380f414546becdd2c1584$__9063ec46b6fc9060440160206040518083038186803b15801561212a57600080fd5b505af415801561213e573d6000803e3d6000fd5b505050506040513d601f19601f820116820180604052508101906121629190612fd6565b61217e5760405162461bcd60e51b815260040161053790612ff1565b806121876128b7565b6001600160a01b0316639258effe826040518263ffffffff1660e01b81526004016121b491815260200190565b60206040518083038186803b1580156121cc57600080fd5b505afa1580156121e0573d6000803e3d6000fd5b505050506040513d601f19601f820116820180604052508101906122049190612fd6565b6122205760405162461bcd60e51b81526004016105379061348e565b6122286128b7565b6001600160a01b031663f8fb9e1d846040518263ffffffff1660e01b815260040161225591815260200190565b602060405180830381600087803b15801561226f57600080fd5b505af1158015612283573d6000803e3d6000fd5b505050506040513d601f19601f820116820180604052508101906122a79190612fd6565b50505050565b604051633b11adbf60e21b81526002600482015233602482015273__$364aad554dc80380f414546becdd2c1584$__9063ec46b6fc9060440160206040518083038186803b1580156122fe57600080fd5b505af4158015612312573d6000803e3d6000fd5b505050506040513d601f19601f820116820180604052508101906123369190612fd6565b6123525760405162461bcd60e51b815260040161053790612ff1565b600061235c6128b7565b60405163492c77ff60e11b8152600481018590529091506001600160a01b03821690639258effe9060240160206040518083038186803b15801561239f57600080fd5b505afa1580156123b3573d6000803e3d6000fd5b505050506040513d601f19601f820116820180604052508101906123d79190612fd6565b61243f5760405162461bcd60e51b815260206004820152603360248201527f424f444b65657065722e72656d6f76654469726563746f723a206170706f696e6044820152723a32b91034b9903737ba10309036b2b6b132b960691b6064820152608401610537565b60405163e0231b8160e01b81526004810184905282906001600160a01b0383169063e0231b819060240160a06040518083038186803b15801561248157600080fd5b505afa158015612495573d6000803e3d6000fd5b505050506040513d601f19601f820116820180604052508101906124b99190613696565b6040015164ffffffffff161461252a5760405162461bcd60e51b815260206004820152603060248201527f424f444b65657065722e72656f76654469726563746f723a2063616c6c65722060448201526f34b9903737ba1030b83837b4b73a32b960811b6064820152608401610537565b60405163160392d760e01b8152600481018490526001600160a01b0382169063160392d790602401600060405180830381600087803b15801561256c57600080fd5b505af1158015612580573d6000803e3d6000fd5b50505050505050565b604051633b11adbf60e21b81526002600482015233602482015273__$364aad554dc80380f414546becdd2c1584$__9063ec46b6fc9060440160206040518083038186803b1580156125da57600080fd5b505af41580156125ee573d6000803e3d6000fd5b505050506040513d601f19601f820116820180604052508101906126129190612fd6565b61262e5760405162461bcd60e51b815260040161053790612ff1565b826126376128b7565b6001600160a01b0316639258effe826040518263ffffffff1660e01b815260040161266491815260200190565b60206040518083038186803b15801561267c57600080fd5b505afa158015612690573d6000803e3d6000fd5b505050506040513d601f19601f820116820180604052508101906126b49190612fd6565b6126d05760405162461bcd60e51b81526004016105379061348e565b826126d96128b7565b6001600160a01b0316639258effe826040518263ffffffff1660e01b815260040161270691815260200190565b60206040518083038186803b15801561271e57600080fd5b505afa158015612732573d6000803e3d6000fd5b505050506040513d601f19601f820116820180604052508101906127569190612fd6565b6127725760405162461bcd60e51b81526004016105379061348e565b61277a6128b7565b604051637f0deff960e11b81526004810185905260248101879052604481018690526001600160a01b03919091169063fe1bdff2906064016119d9565b60008054604051634de835e760e11b81523360048201526001600160a01b0390911690639bd06bce90602401602060405180830381600087803b1580156127fd57600080fd5b505af11580156103b0573d6000803e3d6000fd5b600061281b612a3b565b6001600160a01b0316632f5f3b3c6040518163ffffffff1660e01b815260040160206040518083038186803b15801561285357600080fd5b505afa158015611e97573d6000803e3d6000fd5b6001546000906001600160a01b031663e06eba8c60025b6040516001600160e01b031960e084901b16815260ff909116600482015260240160206040518083038186803b15801561285357600080fd5b600180546000916001600160a01b039091169063e06eba8c9061287e565b6000546001600160a01b0316156129265760405162461bcd60e51b815260206004820152601560248201527430b63932b0b23c9039b2ba103932b3a1b2b73a32b960591b6044820152606401610537565b6040516001600160a01b03821681527f318da6c7624c71cbc0afe346c9d8827f119d0ecefb241a7b0c87217a076a8e029060200160405180910390a1600080546001600160a01b0319166001600160a01b0392909216919091179055565b6001546001600160a01b0316156129dd5760405162461bcd60e51b815260206004820152601960248201527f616c7265616479207365742067656e6572616c4b6565706572000000000000006044820152606401610537565b6040516001600160a01b03821681527fe513d3e0f0d0a3877029dcc588748679a7a3450ec1ec7ed56d96bd012c3e61aa9060200160405180910390a1600180546001600160a01b0319166001600160a01b0392909216919091179055565b6001546000906001600160a01b031663e06eba8c600361287e565b60008060408385031215612a6957600080fd5b50508035926020909101359150565b600060208284031215612a8a57600080fd5b5035919050565b60008060008060808587031215612aa757600080fd5b5050823594602084013594506040840135936060013592509050565b60ff81168114612ad257600080fd5b50565b634e487b7160e01b600052604160045260246000fd5b60405160e0810167ffffffffffffffff81118282101715612b0e57612b0e612ad5565b60405290565b6040516101e0810167ffffffffffffffff81118282101715612b0e57612b0e612ad5565b604051601f8201601f1916810167ffffffffffffffff81118282101715612b6157612b61612ad5565b604052919050565b600067ffffffffffffffff821115612b8357612b83612ad5565b5060051b60200190565b6001600160a01b0381168114612ad257600080fd5b600082601f830112612bb357600080fd5b81356020612bc8612bc383612b69565b612b38565b82815260059290921b84018101918181019086841115612be757600080fd5b8286015b84811015612c0b578035612bfe81612b8d565b8352918301918301612beb565b509695505050505050565b600082601f830112612c2757600080fd5b81356020612c37612bc383612b69565b82815260059290921b84018101918181019086841115612c5657600080fd5b8286015b84811015612c0b5780358352918301918301612c5a565b6000601f8381840112612c8357600080fd5b82356020612c93612bc383612b69565b82815260059290921b85018101918181019087841115612cb257600080fd5b8287015b84811015612d4957803567ffffffffffffffff80821115612cd75760008081fd5b818a0191508a603f830112612cec5760008081fd5b85820135604082821115612d0257612d02612ad5565b612d13828b01601f19168901612b38565b92508183528c81838601011115612d2a5760008081fd5b8181850189850137506000908201870152845250918301918301612cb6565b50979650505050505050565b600080600080600080600060e0888a031215612d7057600080fd5b8735612d7b81612ac3565b9650602088013567ffffffffffffffff80821115612d9857600080fd5b612da48b838c01612ba2565b975060408a0135915080821115612dba57600080fd5b612dc68b838c01612c16565b965060608a0135915080821115612ddc57600080fd5b50612de98a828b01612c71565b979a969950949760808101359660a0820135965060c090910135945092505050565b600060208284031215612e1d57600080fd5b81356111e381612b8d565b60008060008060008060c08789031215612e4157600080fd5b8635612e4c81612ac3565b9550602087013567ffffffffffffffff80821115612e6957600080fd5b612e758a838b01612ba2565b96506040890135915080821115612e8b57600080fd5b612e978a838b01612c16565b95506060890135915080821115612ead57600080fd5b50612eba89828a01612c71565b9350506080870135915060a087013590509295509295509295565b60008060008060808587031215612eeb57600080fd5b843593506020850135612efd81612ac3565b93969395505050506040820135916060013590565b60008060008060808587031215612f2857600080fd5b843593506020850135612f3a81612b8d565b92506040850135612f4a81612b8d565b91506060850135612f5a81612b8d565b939692955090935050565b600080600060608486031215612f7a57600080fd5b505081359360208301359350604090920135919050565b805164ffffffffff81168114612fa657600080fd5b919050565b600060208284031215612fbd57600080fd5b6111e382612f91565b80518015158114612fa657600080fd5b600060208284031215612fe857600080fd5b6111e382612fc6565b60208082526026908201527f41432e6f6e6c794469726563744b65657065723a206e6f74206469726563742060408201526535b2b2b832b960d11b606082015260800190565b60006020828403121561304957600080fd5b5051919050565b805161ffff81168114612fa657600080fd5b8051612fa681612ac3565b600082601f83011261307e57600080fd5b613086612aeb565b8060e084018581111561309857600080fd5b845b818110156130b9576130ab81613050565b84526020938401930161309a565b509095945050505050565b600061026082840312156130d757600080fd5b6130df612aeb565b6130e883613050565b81526020808401516130f981612ac3565b82820152604084015161310b81612ac3565b604083015261311c60608501612f91565b606083015261312d60808501613050565b60808301528460bf85011261314157600080fd5b613149612aeb565b8061018086018781111561315c57600080fd5b60a087015b8181101561318157805161317481612ac3565b8452928401928401613161565b508160a0860152613192888261306d565b60c086015250929695505050505050565b634e487b7160e01b600052603260045260246000fd5b600082601f8301126131ca57600080fd5b6040516060810181811067ffffffffffffffff821117156131ed576131ed612ad5565b60405280606084018581111561320257600080fd5b845b818110156132235761321581612f91565b835260209283019201613204565b509195945050505050565b6000610220828403121561324157600080fd5b613249612b14565b61325283613050565b815261326060208401613062565b602082015261327160408401613062565b604082015261328260608401613062565b606082015261329360808401613050565b60808201526132a460a08401613050565b60a08201526132b560c08401612fc6565b60c08201526132c660e08401612fc6565b60e08201526101006132d9818501612fc6565b908201526101206132eb848201612fc6565b908201526101406132fd848201613062565b9082015261016061330f848201613062565b90820152610180613321848201613062565b908201526101a0613333848201613062565b908201526101c0613346858583016131b9565b908201529392505050565b600060ff83168061337257634e487b7160e01b600052601260045260246000fd5b8060ff84160691505092915050565b805165ffffffffffff81168114612fa657600080fd5b600060c082840312156133a957600080fd5b60405160c0810181811067ffffffffffffffff821117156133cc576133cc612ad5565b60405282516133da81612ac3565b81526133e860208401612f91565b60208201526133f960408401612f91565b604082015261340a60608401613381565b606082015261341b60808401613381565b608082015261342c60a08401613381565b60a08201529392505050565b60208082526036908201527f41432e6f776e65724f72446972656374426f6f6b65657065723a206e6569746860408201527532b91037bbb732b9103737b9103137b7b5b2b2b832b960511b606082015260800190565b602080825260129082015271191a5c9958dd1bdc881393d508195e1a5cdd60721b604082015260600190565b600081518084526020808501945080840160005b838110156134f35781516001600160a01b0316875295820195908201906001016134ce565b509495945050505050565b600081518084526020808501945080840160005b838110156134f357815187529582019590820190600101613512565b600082825180855260208086019550808260051b8401018186016000805b858110156135b157601f1980888603018b5283518051808752845b81811015613582578281018901518882018a01528801613567565b81811115613592578589838a0101525b509b87019b601f0190911694909401850193509184019160010161354c565b509198975050505050505050565b60ff8816815260e0602082015260006135db60e08301896134ba565b82810360408401526135ed81896134fe565b90508281036060840152613601818861352e565b6080840196909652505060a081019290925260c090910152949350505050565b60ff8716815260c06020820152600061363d60c08301886134ba565b828103604084015261364f81886134fe565b90508281036060840152613663818761352e565b6080840195909552505060a00152949350505050565b60006020828403121561368b57600080fd5b81516111e381612b8d565b600060a082840312156136a857600080fd5b60405160a0810181811067ffffffffffffffff821117156136cb576136cb612ad5565b60405282516136d981612ac3565b81526136e760208401612f91565b60208201526136f860408401612f91565b604082015261370960608401613381565b606082015261371a60808401613381565b6080820152939250505056fea2646970667358221220199e0f66e9a8a34362225356e63113ef743de05aaabbdaafce7996576bbc504a64736f6c63430008080033",
    "sourcePath": "/Users/kaptain/github.com/hardhat/comboox/contracts/keepers/BODKeeper.sol",
    "compiler": {
        "name": "solc",
        "version": "0.8.8+commit.dddeac2f"
    },
    "functionHashes": {
        "abandonRole(bytes32)": "3da9a600",
        "appointOfficer(uint256,uint8,uint256,uint256)": "db8b9a83",
        "castVote(uint256,uint8,uint256,bytes32)": "d990e5b9",
        "entrustDelegate(uint256,uint256,uint256)": "fe1bdff2",
        "execAction(uint8,address[],uint256[],bytes[],bytes32,uint256)": "a19012b9",
        "finalized()": "b3f05b97",
        "getBookeeper()": "ed211023",
        "getGeneralCounsel()": "103f6edd",
        "getOwner()": "893d20e8",
        "grantRole(bytes32,uint256)": "1b6ea9f9",
        "hasRole(bytes32,uint256)": "7e063c5a",
        "init(uint256,address,address,address)": "dc890da9",
        "lockContents()": "f045a769",
        "proposeAction(uint8,address[],uint256[],bytes[],bytes32,uint256,uint256)": "527fa452",
        "quitPosition(uint256)": "92c2c3d3",
        "removeDirector(uint256,uint256)": "f8be81ac",
        "renounceRole(bytes32)": "8bb9c5bf",
        "revokeRole(bytes32,uint256)": "19d61ad9",
        "setDirectKeeper(address)": "6be8496f",
        "setGeneralCounsel(uint256)": "4a14beb1",
        "setOwner(uint256)": "8041494e",
        "setRoleAdmin(bytes32,uint256)": "5171ebd4",
        "takePosition(uint256,uint256,uint256,uint256)": "3ea65d6f",
        "voteCounting(uint256,uint256)": "f894759e"
    },
    "gasEstimates": {
        "creation": {
            "codeDepositCost": "2834400",
            "executionCost": "3092",
            "totalCost": "2837492"
        },
        "external": {
            "abandonRole(bytes32)": "infinite",
            "appointOfficer(uint256,uint8,uint256,uint256)": "infinite",
            "castVote(uint256,uint8,uint256,bytes32)": "infinite",
            "entrustDelegate(uint256,uint256,uint256)": "infinite",
            "execAction(uint8,address[],uint256[],bytes[],bytes32,uint256)": "infinite",
            "finalized()": "2416",
            "getBookeeper()": "infinite",
            "getGeneralCounsel()": "infinite",
            "getOwner()": "infinite",
            "grantRole(bytes32,uint256)": "infinite",
            "hasRole(bytes32,uint256)": "infinite",
            "init(uint256,address,address,address)": "infinite",
            "lockContents()": "infinite",
            "proposeAction(uint8,address[],uint256[],bytes[],bytes32,uint256,uint256)": "infinite",
            "quitPosition(uint256)": "infinite",
            "removeDirector(uint256,uint256)": "infinite",
            "renounceRole(bytes32)": "infinite",
            "revokeRole(bytes32,uint256)": "infinite",
            "setDirectKeeper(address)": "infinite",
            "setGeneralCounsel(uint256)": "infinite",
            "setOwner(uint256)": "infinite",
            "setRoleAdmin(bytes32,uint256)": "infinite",
            "takePosition(uint256,uint256,uint256,uint256)": "infinite",
            "voteCounting(uint256,uint256)": "infinite"
        }
    }
}