{
    "contractName": "BODKeeper",
    "abi": [
        {
            "anonymous": false,
            "inputs": [
                {
                    "indexed": false,
                    "internalType": "uint256",
                    "name": "owner",
                    "type": "uint256"
                },
                {
                    "indexed": false,
                    "internalType": "address",
                    "name": "directKeeper",
                    "type": "address"
                },
                {
                    "indexed": false,
                    "internalType": "address",
                    "name": "regCenter",
                    "type": "address"
                },
                {
                    "indexed": false,
                    "internalType": "address",
                    "name": "generalKeeper",
                    "type": "address"
                }
            ],
            "name": "Init",
            "type": "event"
        },
        {
            "anonymous": false,
            "inputs": [],
            "name": "LockContents",
            "type": "event"
        },
        {
            "anonymous": false,
            "inputs": [
                {
                    "indexed": false,
                    "internalType": "address",
                    "name": "keeper",
                    "type": "address"
                }
            ],
            "name": "SetDirectKeeper",
            "type": "event"
        },
        {
            "anonymous": false,
            "inputs": [
                {
                    "indexed": false,
                    "internalType": "uint256",
                    "name": "acct",
                    "type": "uint256"
                }
            ],
            "name": "SetGeneralCounsel",
            "type": "event"
        },
        {
            "anonymous": false,
            "inputs": [
                {
                    "indexed": false,
                    "internalType": "uint256",
                    "name": "acct",
                    "type": "uint256"
                }
            ],
            "name": "SetOwner",
            "type": "event"
        },
        {
            "inputs": [
                {
                    "internalType": "bytes32",
                    "name": "role",
                    "type": "bytes32"
                }
            ],
            "name": "abandonRole",
            "outputs": [],
            "stateMutability": "nonpayable",
            "type": "function"
        },
        {
            "inputs": [
                {
                    "internalType": "uint256",
                    "name": "seqOfMotion",
                    "type": "uint256"
                },
                {
                    "internalType": "uint8",
                    "name": "attitude",
                    "type": "uint8"
                },
                {
                    "internalType": "bytes32",
                    "name": "sigHash",
                    "type": "bytes32"
                },
                {
                    "internalType": "uint256",
                    "name": "caller",
                    "type": "uint256"
                }
            ],
            "name": "castVote",
            "outputs": [],
            "stateMutability": "nonpayable",
            "type": "function"
        },
        {
            "inputs": [
                {
                    "internalType": "uint256",
                    "name": "seqOfMotion",
                    "type": "uint256"
                },
                {
                    "internalType": "uint40",
                    "name": "delegate",
                    "type": "uint40"
                },
                {
                    "internalType": "uint40",
                    "name": "caller",
                    "type": "uint40"
                }
            ],
            "name": "entrustDelegate",
            "outputs": [],
            "stateMutability": "nonpayable",
            "type": "function"
        },
        {
            "inputs": [
                {
                    "internalType": "uint16",
                    "name": "typeOfAction",
                    "type": "uint16"
                },
                {
                    "internalType": "address[]",
                    "name": "targets",
                    "type": "address[]"
                },
                {
                    "internalType": "uint256[]",
                    "name": "values",
                    "type": "uint256[]"
                },
                {
                    "internalType": "bytes[]",
                    "name": "params",
                    "type": "bytes[]"
                },
                {
                    "internalType": "bytes32",
                    "name": "desHash",
                    "type": "bytes32"
                },
                {
                    "internalType": "uint256",
                    "name": "seqOfMotion",
                    "type": "uint256"
                },
                {
                    "internalType": "uint40",
                    "name": "caller",
                    "type": "uint40"
                }
            ],
            "name": "execAction",
            "outputs": [],
            "stateMutability": "nonpayable",
            "type": "function"
        },
        {
            "inputs": [],
            "name": "finalized",
            "outputs": [
                {
                    "internalType": "bool",
                    "name": "",
                    "type": "bool"
                }
            ],
            "stateMutability": "view",
            "type": "function"
        },
        {
            "inputs": [],
            "name": "getBookeeper",
            "outputs": [
                {
                    "internalType": "address",
                    "name": "",
                    "type": "address"
                }
            ],
            "stateMutability": "view",
            "type": "function"
        },
        {
            "inputs": [],
            "name": "getGeneralCounsel",
            "outputs": [
                {
                    "internalType": "uint40",
                    "name": "",
                    "type": "uint40"
                }
            ],
            "stateMutability": "view",
            "type": "function"
        },
        {
            "inputs": [],
            "name": "getOwner",
            "outputs": [
                {
                    "internalType": "uint40",
                    "name": "",
                    "type": "uint40"
                }
            ],
            "stateMutability": "view",
            "type": "function"
        },
        {
            "inputs": [
                {
                    "internalType": "bytes32",
                    "name": "role",
                    "type": "bytes32"
                },
                {
                    "internalType": "uint256",
                    "name": "acct",
                    "type": "uint256"
                }
            ],
            "name": "grantRole",
            "outputs": [],
            "stateMutability": "nonpayable",
            "type": "function"
        },
        {
            "inputs": [
                {
                    "internalType": "bytes32",
                    "name": "role",
                    "type": "bytes32"
                },
                {
                    "internalType": "uint256",
                    "name": "acct",
                    "type": "uint256"
                }
            ],
            "name": "hasRole",
            "outputs": [
                {
                    "internalType": "bool",
                    "name": "",
                    "type": "bool"
                }
            ],
            "stateMutability": "view",
            "type": "function"
        },
        {
            "inputs": [
                {
                    "internalType": "uint256",
                    "name": "owner",
                    "type": "uint256"
                },
                {
                    "internalType": "address",
                    "name": "directKeeper",
                    "type": "address"
                },
                {
                    "internalType": "address",
                    "name": "regCenter",
                    "type": "address"
                },
                {
                    "internalType": "address",
                    "name": "generalKeeper",
                    "type": "address"
                }
            ],
            "name": "init",
            "outputs": [],
            "stateMutability": "nonpayable",
            "type": "function"
        },
        {
            "inputs": [],
            "name": "lockContents",
            "outputs": [],
            "stateMutability": "nonpayable",
            "type": "function"
        },
        {
            "inputs": [
                {
                    "internalType": "uint256",
                    "name": "seqOfPos",
                    "type": "uint256"
                },
                {
                    "internalType": "uint40",
                    "name": "candidate",
                    "type": "uint40"
                },
                {
                    "internalType": "uint40",
                    "name": "nominator",
                    "type": "uint40"
                }
            ],
            "name": "nominateOfficer",
            "outputs": [],
            "stateMutability": "nonpayable",
            "type": "function"
        },
        {
            "inputs": [
                {
                    "internalType": "uint16",
                    "name": "seqOfVR",
                    "type": "uint16"
                },
                {
                    "internalType": "address[]",
                    "name": "targets",
                    "type": "address[]"
                },
                {
                    "internalType": "uint256[]",
                    "name": "values",
                    "type": "uint256[]"
                },
                {
                    "internalType": "bytes[]",
                    "name": "params",
                    "type": "bytes[]"
                },
                {
                    "internalType": "bytes32",
                    "name": "desHash",
                    "type": "bytes32"
                },
                {
                    "internalType": "uint40",
                    "name": "executor",
                    "type": "uint40"
                },
                {
                    "internalType": "uint40",
                    "name": "proposer",
                    "type": "uint40"
                }
            ],
            "name": "proposeAction",
            "outputs": [],
            "stateMutability": "nonpayable",
            "type": "function"
        },
        {
            "inputs": [
                {
                    "internalType": "address",
                    "name": "doc",
                    "type": "address"
                },
                {
                    "internalType": "uint16",
                    "name": "seqOfVR",
                    "type": "uint16"
                },
                {
                    "internalType": "uint40",
                    "name": "executor",
                    "type": "uint40"
                },
                {
                    "internalType": "uint40",
                    "name": "proposer",
                    "type": "uint40"
                }
            ],
            "name": "proposeDoc",
            "outputs": [],
            "stateMutability": "nonpayable",
            "type": "function"
        },
        {
            "inputs": [
                {
                    "internalType": "uint256",
                    "name": "seqOfPos",
                    "type": "uint256"
                },
                {
                    "internalType": "uint40",
                    "name": "nominator",
                    "type": "uint40"
                }
            ],
            "name": "proposeToRemoveOfficer",
            "outputs": [],
            "stateMutability": "nonpayable",
            "type": "function"
        },
        {
            "inputs": [
                {
                    "internalType": "uint256",
                    "name": "seqOfPos",
                    "type": "uint256"
                },
                {
                    "internalType": "uint40",
                    "name": "caller",
                    "type": "uint40"
                }
            ],
            "name": "quitPosition",
            "outputs": [],
            "stateMutability": "nonpayable",
            "type": "function"
        },
        {
            "inputs": [
                {
                    "internalType": "uint256",
                    "name": "seqOfMotion",
                    "type": "uint256"
                },
                {
                    "internalType": "uint256",
                    "name": "seqOfPos",
                    "type": "uint256"
                },
                {
                    "internalType": "uint40",
                    "name": "target",
                    "type": "uint40"
                },
                {
                    "internalType": "uint40",
                    "name": "caller",
                    "type": "uint40"
                }
            ],
            "name": "removeOfficer",
            "outputs": [],
            "stateMutability": "nonpayable",
            "type": "function"
        },
        {
            "inputs": [
                {
                    "internalType": "bytes32",
                    "name": "role",
                    "type": "bytes32"
                }
            ],
            "name": "renounceRole",
            "outputs": [],
            "stateMutability": "nonpayable",
            "type": "function"
        },
        {
            "inputs": [
                {
                    "internalType": "bytes32",
                    "name": "role",
                    "type": "bytes32"
                },
                {
                    "internalType": "uint256",
                    "name": "acct",
                    "type": "uint256"
                }
            ],
            "name": "revokeRole",
            "outputs": [],
            "stateMutability": "nonpayable",
            "type": "function"
        },
        {
            "inputs": [
                {
                    "internalType": "address",
                    "name": "keeper",
                    "type": "address"
                }
            ],
            "name": "setDirectKeeper",
            "outputs": [],
            "stateMutability": "nonpayable",
            "type": "function"
        },
        {
            "inputs": [
                {
                    "internalType": "uint256",
                    "name": "acct",
                    "type": "uint256"
                }
            ],
            "name": "setGeneralCounsel",
            "outputs": [],
            "stateMutability": "nonpayable",
            "type": "function"
        },
        {
            "inputs": [
                {
                    "internalType": "uint256",
                    "name": "acct",
                    "type": "uint256"
                }
            ],
            "name": "setOwner",
            "outputs": [],
            "stateMutability": "nonpayable",
            "type": "function"
        },
        {
            "inputs": [
                {
                    "internalType": "bytes32",
                    "name": "role",
                    "type": "bytes32"
                },
                {
                    "internalType": "uint256",
                    "name": "acct",
                    "type": "uint256"
                }
            ],
            "name": "setRoleAdmin",
            "outputs": [],
            "stateMutability": "nonpayable",
            "type": "function"
        },
        {
            "inputs": [
                {
                    "internalType": "uint256",
                    "name": "seqOfMotion",
                    "type": "uint256"
                },
                {
                    "internalType": "uint256",
                    "name": "seqOfPos",
                    "type": "uint256"
                },
                {
                    "internalType": "uint40",
                    "name": "caller",
                    "type": "uint40"
                }
            ],
            "name": "takePosition",
            "outputs": [],
            "stateMutability": "nonpayable",
            "type": "function"
        },
        {
            "inputs": [
                {
                    "internalType": "uint256",
                    "name": "seqOfMotion",
                    "type": "uint256"
                },
                {
                    "internalType": "uint256",
                    "name": "caller",
                    "type": "uint256"
                }
            ],
            "name": "voteCounting",
            "outputs": [],
            "stateMutability": "nonpayable",
            "type": "function"
        }
    ],
    "bytecode": "608060405234801561001057600080fd5b50614a0f806100206000396000f3fe608060405234801561001057600080fd5b506004361061018e5760003560e01c80637e063c5a116100de578063d1f824ee11610097578063f045a76911610071578063f045a7691461035a578063f3c54fac14610362578063f4c5424e14610375578063f894759e1461038857600080fd5b8063d1f824ee14610314578063dc890da914610327578063ed2110231461033a57600080fd5b80637e063c5a1461029c5780638041494e146102bf57806381ab05cb146102d2578063893d20e8146102e55780638bb9c5bf146102ed578063b3f05b971461030057600080fd5b8063216eeebf1161014b5780635171ebd4116101255780635171ebd41461025057806352cad28e146102635780636be8496f1461027657806379bcc9f01461028957600080fd5b8063216eeebf146102175780633da9a6001461022a5780634a14beb11461023d57600080fd5b8063081d46d814610193578063103f6edd146101a857806319d61ad9146101cb5780631b6ea9f9146101de5780631d3e9ddc146101f15780631fa1fdc514610204575b600080fd5b6101a66101a13660046139b9565b61039b565b005b6101b0610684565b60405164ffffffffff90911681526020015b60405180910390f35b6101a66101d9366004613a03565b610710565b6101a66101ec366004613a03565b6107a2565b6101a66101ff366004613a25565b6107c8565b6101a6610212366004613a64565b610c12565b6101a6610225366004613ac6565b610f3b565b6101a6610238366004613b07565b611295565b6101a661024b366004613b07565b611320565b6101a661025e366004613a03565b61157d565b6101a6610271366004613da8565b6115a3565b6101a6610284366004613e6a565b6117b8565b6101a6610297366004613a25565b61186a565b6102af6102aa366004613a03565b6119fa565b60405190151581526020016101c2565b6101a66102cd366004613b07565b611a95565b6101a66102e0366004613e87565b611b4e565b6101b0611f0d565b6101a66102fb366004613b07565b611f48565b60028054600160f01b900460ff16146102af565b6101a6610322366004613ec9565b611f6d565b6101a6610335366004613ef7565b61223c565b61034261231e565b6040516001600160a01b0390911681526020016101c2565b6101a66123a4565b6101a6610370366004613f3f565b6125e8565b6101a6610383366004613e87565b612932565b6101a6610396366004613a03565b612d4f565b604051633b11adbf60e21b81526002600482015233602482015273__$364aad554dc80380f414546becdd2c1584$__9063ec46b6fc9060440160206040518083038186803b1580156103ec57600080fd5b505af4158015610400573d6000803e3d6000fd5b505050506040513d601f19601f820116820180604052508101906104249190614016565b6104495760405162461bcd60e51b815260040161044090614031565b60405180910390fd5b60015460408051639262826d60e01b815290516000926001600160a01b031691639262826d916004808301926020929190829003018186803b15801561048e57600080fd5b505afa1580156104a2573d6000803e3d6000fd5b505050506040513d601f19601f820116820180604052508101906104c69190614077565b60405163568ad56960e11b8152600481018790529091506002906001600160a01b0383169063ad15aad2906024016103e06040518083038186803b15801561050d57600080fd5b505afa158015610521573d6000803e3d6000fd5b505050506040513d601f19601f82011682018060405250810190610545919061432b565b515161ffff16146105985760405162461bcd60e51b815260206004820152601e60248201527f424f444b2e544f3a206e6f742061207375697461626c65206d6f74696f6e00006044820152606401610440565b604051633be1de0960e01b8152600481018690526024810185905264ffffffffff831660448201526001600160a01b03821690633be1de0990606401600060405180830381600087803b1580156105ee57600080fd5b505af1158015610602573d6000803e3d6000fd5b5050604051630103a8db60e31b8152600481018890526024810187905264ffffffffff8087166044830152851660648201526001600160a01b038416925063081d46d891506084015b600060405180830381600087803b15801561066557600080fd5b505af1158015610679573d6000803e3d6000fd5b505050505050505050565b60405163e8c0cc1d60e01b81526002600482015260009073__$364aad554dc80380f414546becdd2c1584$__9063e8c0cc1d906024015b60206040518083038186803b1580156106d357600080fd5b505af41580156106e7573d6000803e3d6000fd5b505050506040513d601f19601f8201168201806040525081019061070b9190614415565b905090565b73__$364aad554dc80380f414546becdd2c1584$__6382daafaa60028484610736613456565b6040516001600160e01b031960e087901b16815260048101949094526024840192909252604483015264ffffffffff16606482015260840160006040518083038186803b15801561078657600080fd5b505af415801561079a573d6000803e3d6000fd5b505050505050565b73__$364aad554dc80380f414546becdd2c1584$__636320d75e60028484610736613456565b604051633b11adbf60e21b81526002600482015233602482015273__$364aad554dc80380f414546becdd2c1584$__9063ec46b6fc9060440160206040518083038186803b15801561081957600080fd5b505af415801561082d573d6000803e3d6000fd5b505050506040513d601f19601f820116820180604052508101906108519190614016565b61086d5760405162461bcd60e51b815260040161044090614031565b60015460408051639262826d60e01b8152905164ffffffffff8416926001600160a01b031691639262826d916004808301926020929190829003018186803b1580156108b857600080fd5b505afa1580156108cc573d6000803e3d6000fd5b505050506040513d601f19601f820116820180604052508101906108f09190614077565b6001600160a01b0316639258effe826040518263ffffffff1660e01b815260040161091d91815260200190565b60206040518083038186803b15801561093557600080fd5b505afa158015610949573d6000803e3d6000fd5b505050506040513d601f19601f8201168201806040525081019061096d9190614016565b6109895760405162461bcd60e51b815260040161044090614432565b60015460408051639262826d60e01b815290516000926001600160a01b031691639262826d916004808301926020929190829003018186803b1580156109ce57600080fd5b505afa1580156109e2573d6000803e3d6000fd5b505050506040513d601f19601f82011682018060405250810190610a069190614077565b60405163eb02c30160e01b8152600481018690529091506000906001600160a01b0383169063eb02c301906024016101006040518083038186803b158015610a4d57600080fd5b505afa158015610a61573d6000803e3d6000fd5b505050506040513d601f19601f82011682018060405250810190610a85919061452d565b9050806060015164ffffffffff1660001480610ab257508364ffffffffff16816060015164ffffffffff16145b610afe5760405162461bcd60e51b815260206004820152601f60248201527f424f444b2e4e4f3a20686173206e6f206e6f6d696e6174696f6e5269676874006044820152606401610440565b60c0810151604051637e7b47a960e11b81526004810187905261ffff909116602482015264ffffffffff851660448201526000906001600160a01b0384169063fcf68f5290606401602060405180830381600087803b158015610b6057600080fd5b505af1158015610b74573d6000803e3d6000fd5b505050506040513d601f19601f82011682018060405250810190610b98919061454a565b604051631b0322d560e21b81526001600160401b038216600482015264ffffffffff871660248201529091506001600160a01b03841690636c0c8b5490604401600060405180830381600087803b158015610bf257600080fd5b505af1158015610c06573d6000803e3d6000fd5b50505050505050505050565b604051633b11adbf60e21b81526002600482015233602482015273__$364aad554dc80380f414546becdd2c1584$__9063ec46b6fc9060440160206040518083038186803b158015610c6357600080fd5b505af4158015610c77573d6000803e3d6000fd5b505050506040513d601f19601f82011682018060405250810190610c9b9190614016565b610cb75760405162461bcd60e51b815260040161044090614031565b60015460408051639262826d60e01b8152905183926001600160a01b031691639262826d916004808301926020929190829003018186803b158015610cfb57600080fd5b505afa158015610d0f573d6000803e3d6000fd5b505050506040513d601f19601f82011682018060405250810190610d339190614077565b6001600160a01b0316639258effe826040518263ffffffff1660e01b8152600401610d6091815260200190565b60206040518083038186803b158015610d7857600080fd5b505afa158015610d8c573d6000803e3d6000fd5b505050506040513d601f19601f82011682018060405250810190610db09190614016565b610dcc5760405162461bcd60e51b815260040161044090614432565b610dd685836134b0565b600160009054906101000a90046001600160a01b03166001600160a01b0316639262826d6040518163ffffffff1660e01b815260040160206040518083038186803b158015610e2457600080fd5b505afa158015610e38573d6000803e3d6000fd5b505050506040513d601f19601f82011682018060405250810190610e5c9190614077565b6001600160a01b0316637ac0fb78868686600160009054906101000a90046001600160a01b03166001600160a01b03166333fb96ee6040518163ffffffff1660e01b815260040160206040518083038186803b158015610ebb57600080fd5b505afa158015610ecf573d6000803e3d6000fd5b505050506040513d601f19601f82011682018060405250810190610ef39190614077565b6040516001600160e01b031960e087901b168152600481019490945260ff909216602484015260448301526001600160a01b031660648201526084810185905260a40161064b565b604051633b11adbf60e21b81526002600482015233602482015273__$364aad554dc80380f414546becdd2c1584$__9063ec46b6fc9060440160206040518083038186803b158015610f8c57600080fd5b505af4158015610fa0573d6000803e3d6000fd5b505050506040513d601f19601f82011682018060405250810190610fc49190614016565b610fe05760405162461bcd60e51b815260040161044090614031565b60015460408051639262826d60e01b8152905164ffffffffff8416926001600160a01b031691639262826d916004808301926020929190829003018186803b15801561102b57600080fd5b505afa15801561103f573d6000803e3d6000fd5b505050506040513d601f19601f820116820180604052508101906110639190614077565b6001600160a01b0316639258effe826040518263ffffffff1660e01b815260040161109091815260200190565b60206040518083038186803b1580156110a857600080fd5b505afa1580156110bc573d6000803e3d6000fd5b505050506040513d601f19601f820116820180604052508101906110e09190614016565b6110fc5760405162461bcd60e51b815260040161044090614432565b60015460408051639262826d60e01b815290516000926001600160a01b031691639262826d916004808301926020929190829003018186803b15801561114157600080fd5b505afa158015611155573d6000803e3d6000fd5b505050506040513d601f19601f820116820180604052508101906111799190614077565b60405163216eeebf60e01b81526001600160a01b03888116600483015261ffff8816602483015264ffffffffff80881660448401528616606483015291925060009183169063216eeebf90608401602060405180830381600087803b1580156111e157600080fd5b505af11580156111f5573d6000803e3d6000fd5b505050506040513d601f19601f82011682018060405250810190611219919061454a565b604051631b0322d560e21b81526001600160401b038216600482015264ffffffffff861660248201529091506001600160a01b03831690636c0c8b54906044015b600060405180830381600087803b15801561127457600080fd5b505af1158015611288573d6000803e3d6000fd5b5050505050505050505050565b73__$364aad554dc80380f414546becdd2c1584$__63c51b295f6002836112ba613456565b6040516001600160e01b031960e086901b1681526004810193909352602483019190915264ffffffffff16604482015260640160006040518083038186803b15801561130557600080fd5b505af4158015611319573d6000803e3d6000fd5b5050505050565b604051633b11adbf60e21b81526002600482015233602482015273__$364aad554dc80380f414546becdd2c1584$__9063ec46b6fc9060440160206040518083038186803b15801561137157600080fd5b505af4158015611385573d6000803e3d6000fd5b505050506040513d601f19601f820116820180604052508101906113a99190614016565b8061144e575073__$364aad554dc80380f414546becdd2c1584$__63fe27108660026113d3613456565b6040516001600160e01b031960e085901b168152600481019290925264ffffffffff16602482015260440160206040518083038186803b15801561141657600080fd5b505af415801561142a573d6000803e3d6000fd5b505050506040513d601f19601f8201168201806040525081019061144e9190614016565b6114b95760405162461bcd60e51b815260206004820152603660248201527f41432e6f776e65724f72446972656374426f6f6b65657065723a206e6569746860448201527532b91037bbb732b9103737b9103137b7b5b2b2b832b960511b6064820152608401610440565b73__$364aad554dc80380f414546becdd2c1584$__639b4510de6002836114de613456565b6040516001600160e01b031960e086901b1681526004810193909352602483019190915264ffffffffff16604482015260640160006040518083038186803b15801561152957600080fd5b505af415801561153d573d6000803e3d6000fd5b505050507ff2735f34b69be1e6342dea95f9162f84d0db925fab655ca9f1f312ac8cbfc99d8160405161157291815260200190565b60405180910390a150565b73__$364aad554dc80380f414546becdd2c1584$__63ee98b31360028484610736613456565b60015460408051639262826d60e01b8152905164ffffffffff8416926001600160a01b031691639262826d916004808301926020929190829003018186803b1580156115ee57600080fd5b505afa158015611602573d6000803e3d6000fd5b505050506040513d601f19601f820116820180604052508101906116269190614077565b6001600160a01b0316639258effe826040518263ffffffff1660e01b815260040161165391815260200190565b60206040518083038186803b15801561166b57600080fd5b505afa15801561167f573d6000803e3d6000fd5b505050506040513d601f19601f820116820180604052508101906116a39190614016565b6116bf5760405162461bcd60e51b815260040161044090614432565b600160009054906101000a90046001600160a01b03166001600160a01b0316639262826d6040518163ffffffff1660e01b815260040160206040518083038186803b15801561170d57600080fd5b505afa158015611721573d6000803e3d6000fd5b505050506040513d601f19601f820116820180604052508101906117459190614077565b6001600160a01b03166352cad28e898989898989896040518863ffffffff1660e01b815260040161177c9796959493929190614667565b600060405180830381600087803b15801561179657600080fd5b505af11580156117aa573d6000803e3d6000fd5b505050505050505050505050565b604051630f07232560e01b8152600260048201526001600160a01b038216602482015233604482015273__$364aad554dc80380f414546becdd2c1584$__90630f0723259060640160006040518083038186803b15801561181857600080fd5b505af415801561182c573d6000803e3d6000fd5b50506040516001600160a01b03841681527fe435cbeab64e4eae6497b9d8289704bd709d624a80704ef3ca9af777534bc6ec92506020019050611572565b604051633b11adbf60e21b81526002600482015233602482015273__$364aad554dc80380f414546becdd2c1584$__9063ec46b6fc9060440160206040518083038186803b1580156118bb57600080fd5b505af41580156118cf573d6000803e3d6000fd5b505050506040513d601f19601f820116820180604052508101906118f39190614016565b61190f5760405162461bcd60e51b815260040161044090614031565b600160009054906101000a90046001600160a01b03166001600160a01b0316639262826d6040518163ffffffff1660e01b815260040160206040518083038186803b15801561195d57600080fd5b505afa158015611971573d6000803e3d6000fd5b505050506040513d601f19601f820116820180604052508101906119959190614077565b60405163079bcc9f60e41b81526004810184905264ffffffffff831660248201526001600160a01b0391909116906379bcc9f090604401600060405180830381600087803b1580156119e657600080fd5b505af115801561079a573d6000803e3d6000fd5b604051632a3be56b60e21b815260026004820152602481018390526044810182905260009073__$364aad554dc80380f414546becdd2c1584$__9063a8ef95ac9060640160206040518083038186803b158015611a5657600080fd5b505af4158015611a6a573d6000803e3d6000fd5b505050506040513d601f19601f82011682018060405250810190611a8e9190614016565b9392505050565b73__$364aad554dc80380f414546becdd2c1584$__639b48160c600283611aba613456565b6040516001600160e01b031960e086901b1681526004810193909352602483019190915264ffffffffff16604482015260640160006040518083038186803b158015611b0557600080fd5b505af4158015611b19573d6000803e3d6000fd5b505050507f8b6f40f36b4ae8cc5f55e895036457c43da4ab1f80f58c46f5ff0d72a650033b8160405161157291815260200190565b604051633b11adbf60e21b81526002600482015233602482015273__$364aad554dc80380f414546becdd2c1584$__9063ec46b6fc9060440160206040518083038186803b158015611b9f57600080fd5b505af4158015611bb3573d6000803e3d6000fd5b505050506040513d601f19601f82011682018060405250810190611bd79190614016565b611bf35760405162461bcd60e51b815260040161044090614031565b60015460408051639262826d60e01b8152905164ffffffffff8416926001600160a01b031691639262826d916004808301926020929190829003018186803b158015611c3e57600080fd5b505afa158015611c52573d6000803e3d6000fd5b505050506040513d601f19601f82011682018060405250810190611c769190614077565b6001600160a01b0316639258effe826040518263ffffffff1660e01b8152600401611ca391815260200190565b60206040518083038186803b158015611cbb57600080fd5b505afa158015611ccf573d6000803e3d6000fd5b505050506040513d601f19601f82011682018060405250810190611cf39190614016565b611d0f5760405162461bcd60e51b815260040161044090614432565b60015460408051639262826d60e01b8152905164ffffffffff8616926001600160a01b031691639262826d916004808301926020929190829003018186803b158015611d5a57600080fd5b505afa158015611d6e573d6000803e3d6000fd5b505050506040513d601f19601f82011682018060405250810190611d929190614077565b6001600160a01b0316639258effe826040518263ffffffff1660e01b8152600401611dbf91815260200190565b60206040518083038186803b158015611dd757600080fd5b505afa158015611deb573d6000803e3d6000fd5b505050506040513d601f19601f82011682018060405250810190611e0f9190614016565b611e2b5760405162461bcd60e51b815260040161044090614432565b611e3c858464ffffffffff166134b0565b600160009054906101000a90046001600160a01b03166001600160a01b0316639262826d6040518163ffffffff1660e01b815260040160206040518083038186803b158015611e8a57600080fd5b505afa158015611e9e573d6000803e3d6000fd5b505050506040513d601f19601f82011682018060405250810190611ec29190614077565b60405163fb446ba160e01b81526004810187905264ffffffffff808716602483015285166044820152600060648201526001600160a01b03919091169063fb446ba19060840161064b565b60405163987ad15360e01b81526002600482015260009073__$364aad554dc80380f414546becdd2c1584$__9063987ad153906024016106bb565b73__$364aad554dc80380f414546becdd2c1584$__63cc0d511b6002836112ba613456565b604051633b11adbf60e21b81526002600482015233602482015273__$364aad554dc80380f414546becdd2c1584$__9063ec46b6fc9060440160206040518083038186803b158015611fbe57600080fd5b505af4158015611fd2573d6000803e3d6000fd5b505050506040513d601f19601f82011682018060405250810190611ff69190614016565b6120125760405162461bcd60e51b815260040161044090614031565b60015460408051639262826d60e01b815290516000926001600160a01b031691639262826d916004808301926020929190829003018186803b15801561205757600080fd5b505afa15801561206b573d6000803e3d6000fd5b505050506040513d601f19601f8201168201806040525081019061208f9190614077565b60405163568ad56960e11b8152600481018690529091506001906001600160a01b0383169063ad15aad2906024016103e06040518083038186803b1580156120d657600080fd5b505afa1580156120ea573d6000803e3d6000fd5b505050506040513d601f19601f8201168201806040525081019061210e919061432b565b515161ffff16146121615760405162461bcd60e51b815260206004820152601e60248201527f424f444b2e544f3a206e6f742061207375697461626c65206d6f74696f6e00006044820152606401610440565b604051633be1de0960e01b8152600481018590526024810184905264ffffffffff831660448201526001600160a01b03821690633be1de0990606401600060405180830381600087803b1580156121b757600080fd5b505af11580156121cb573d6000803e3d6000fd5b50506040516362199f2d60e11b81526004810186905264ffffffffff851660248201526001600160a01b038416925063c4333e5a9150604401600060405180830381600087803b15801561221e57600080fd5b505af1158015612232573d6000803e3d6000fd5b5050505050505050565b604051636cdd0edf60e11b815260026004820152602481018590526001600160a01b038416604482015273__$364aad554dc80380f414546becdd2c1584$__9063d9ba1dbe9060640160006040518083038186803b15801561229d57600080fd5b505af41580156122b1573d6000803e3d6000fd5b505050506122be826138a5565b6122c781613918565b604080518581526001600160a01b038581166020830152848116828401528316606082015290517f3abb2418c66fe32ba9c883030a75ce583971d9af9192b9b74e44e67c5e6c8c1f9181900360800190a150505050565b604051633c3e56c160e11b81526002600482015260009073__$364aad554dc80380f414546becdd2c1584$__9063787cad829060240160206040518083038186803b15801561236c57600080fd5b505af4158015612380573d6000803e3d6000fd5b505050506040513d601f19601f8201168201806040525081019061070b9190614077565b600254600160f01b900460ff166001146124005760405162461bcd60e51b815260206004820152601760248201527f41432e4c433a20446f632069732066696e616c697a65640000000000000000006044820152606401610440565b73__$364aad554dc80380f414546becdd2c1584$__63c51b295f6002684174746f726e65797360b81b612431613456565b6040516001600160e01b031960e086901b1681526004810193909352602483019190915264ffffffffff16604482015260640160006040518083038186803b15801561247c57600080fd5b505af4158015612490573d6000803e3d6000fd5b50505050600273__$364aad554dc80380f414546becdd2c1584$__639b4510de909160006124bc613456565b6040516001600160e01b031960e086901b1681526004810193909352602483019190915264ffffffffff16604482015260640160006040518083038186803b15801561250757600080fd5b505af415801561251b573d6000803e3d6000fd5b50505050600273__$364aad554dc80380f414546becdd2c1584$__639b48160c90916000612547613456565b6040516001600160e01b031960e086901b1681526004810193909352602483019190915264ffffffffff16604482015260640160006040518083038186803b15801561259257600080fd5b505af41580156125a6573d6000803e3d6000fd5b50506002805460ff60f01b1916600160f11b17905550506040517f35012b512309c322acf68632cd6cb702ff0e1d776fbe9394e38ffc13b434fe7590600090a1565b604051633b11adbf60e21b81526002600482015233602482015273__$364aad554dc80380f414546becdd2c1584$__9063ec46b6fc9060440160206040518083038186803b15801561263957600080fd5b505af415801561264d573d6000803e3d6000fd5b505050506040513d601f19601f820116820180604052508101906126719190614016565b61268d5760405162461bcd60e51b815260040161044090614031565b60015460408051639262826d60e01b8152905164ffffffffff8416926001600160a01b031691639262826d916004808301926020929190829003018186803b1580156126d857600080fd5b505afa1580156126ec573d6000803e3d6000fd5b505050506040513d601f19601f820116820180604052508101906127109190614077565b6001600160a01b0316639258effe826040518263ffffffff1660e01b815260040161273d91815260200190565b60206040518083038186803b15801561275557600080fd5b505afa158015612769573d6000803e3d6000fd5b505050506040513d601f19601f8201168201806040525081019061278d9190614016565b6127a95760405162461bcd60e51b815260040161044090614432565b60015460408051639262826d60e01b815290516000926001600160a01b031691639262826d916004808301926020929190829003018186803b1580156127ee57600080fd5b505afa158015612802573d6000803e3d6000fd5b505050506040513d601f19601f820116820180604052508101906128269190614077565b90506000816001600160a01b031663f3c54fac8b8b8b8b8b8b8b6040518863ffffffff1660e01b815260040161286297969594939291906146d1565b602060405180830381600087803b15801561287c57600080fd5b505af1158015612890573d6000803e3d6000fd5b505050506040513d601f19601f820116820180604052508101906128b4919061454a565b604051631b0322d560e21b81526001600160401b038216600482015264ffffffffff861660248201529091506001600160a01b03831690636c0c8b5490604401600060405180830381600087803b15801561290e57600080fd5b505af1158015612922573d6000803e3d6000fd5b5050505050505050505050505050565b604051633b11adbf60e21b81526002600482015233602482015273__$364aad554dc80380f414546becdd2c1584$__9063ec46b6fc9060440160206040518083038186803b15801561298357600080fd5b505af4158015612997573d6000803e3d6000fd5b505050506040513d601f19601f820116820180604052508101906129bb9190614016565b6129d75760405162461bcd60e51b815260040161044090614031565b60015460408051639262826d60e01b8152905164ffffffffff8416926001600160a01b031691639262826d916004808301926020929190829003018186803b158015612a2257600080fd5b505afa158015612a36573d6000803e3d6000fd5b505050506040513d601f19601f82011682018060405250810190612a5a9190614077565b6001600160a01b0316639258effe826040518263ffffffff1660e01b8152600401612a8791815260200190565b60206040518083038186803b158015612a9f57600080fd5b505afa158015612ab3573d6000803e3d6000fd5b505050506040513d601f19601f82011682018060405250810190612ad79190614016565b612af35760405162461bcd60e51b815260040161044090614432565b60015460408051639262826d60e01b815290516000926001600160a01b031691639262826d916004808301926020929190829003018186803b158015612b3857600080fd5b505afa158015612b4c573d6000803e3d6000fd5b505050506040513d601f19601f82011682018060405250810190612b709190614077565b60405163eb02c30160e01b8152600481018790529091506000906001600160a01b0383169063eb02c301906024016101006040518083038186803b158015612bb757600080fd5b505afa158015612bcb573d6000803e3d6000fd5b505050506040513d601f19601f82011682018060405250810190612bef919061452d565b9050806060015164ffffffffff1660001480612c1c57508364ffffffffff16816060015164ffffffffff16145b612c685760405162461bcd60e51b815260206004820152601f60248201527f424f444b2e4e4f3a20686173206e6f206e6f6d696e6174696f6e5269676874006044820152606401610440565b60c081015160405163d408acdd60e01b81526004810188905261ffff909116602482015264ffffffffff8087166044830152851660648201526000906001600160a01b0384169063d408acdd90608401602060405180830381600087803b158015612cd257600080fd5b505af1158015612ce6573d6000803e3d6000fd5b505050506040513d601f19601f82011682018060405250810190612d0a919061454a565b604051631b0322d560e21b81526001600160401b038216600482015264ffffffffff871660248201529091506001600160a01b03841690636c0c8b549060440161125a565b604051633b11adbf60e21b81526002600482015233602482015273__$364aad554dc80380f414546becdd2c1584$__9063ec46b6fc9060440160206040518083038186803b158015612da057600080fd5b505af4158015612db4573d6000803e3d6000fd5b505050506040513d601f19601f82011682018060405250810190612dd89190614016565b612df45760405162461bcd60e51b815260040161044090614031565b60015460408051639262826d60e01b8152905183926001600160a01b031691639262826d916004808301926020929190829003018186803b158015612e3857600080fd5b505afa158015612e4c573d6000803e3d6000fd5b505050506040513d601f19601f82011682018060405250810190612e709190614077565b6001600160a01b0316639258effe826040518263ffffffff1660e01b8152600401612e9d91815260200190565b60206040518083038186803b158015612eb557600080fd5b505afa158015612ec9573d6000803e3d6000fd5b505050506040513d601f19601f82011682018060405250810190612eed9190614016565b612f095760405162461bcd60e51b815260040161044090614432565b60015460408051639262826d60e01b815290516000926001600160a01b031691639262826d916004808301926020929190829003018186803b158015612f4e57600080fd5b505afa158015612f62573d6000803e3d6000fd5b505050506040513d601f19601f82011682018060405250810190612f869190614077565b60405163568ad56960e11b8152600481018690529091506000906001600160a01b0383169063ad15aad2906024016103e06040518083038186803b158015612fcd57600080fd5b505afa158015612fe1573d6000803e3d6000fd5b505050506040513d601f19601f82011682018060405250810190613005919061432b565b60408051608081018252600080825260208201819052818301819052606082018190529151638d5b658560e01b81526004810189905260248101839052929350916001600160a01b03851690638d5b65859060440160006040518083038186803b15801561307257600080fd5b505afa158015613086573d6000803e3d6000fd5b505050506040513d6000823e601f3d908101601f191682016040526130ae9190810190614797565b9050826040015160c001511561314f57604051638d5b658560e01b815260048101889052600060248201526001600160a01b03851690638d5b65859060440160006040518083038186803b15801561310557600080fd5b505afa158015613119573d6000803e3d6000fd5b505050506040513d6000823e601f3d908101601f191682016040526131419190810190614797565b5163ffffffff1682526133f2565b836001600160a01b031663695b2f606040518163ffffffff1660e01b815260040160206040518083038186803b15801561318857600080fd5b505afa15801561319c573d6000803e3d6000fd5b505050506040513d601f19601f820116820180604052508101906131c0919061483b565b6001600160401b03168252604083015160e00151156131fc57805182516131ed9163ffffffff169061486a565b6001600160401b031660408301525b82515161ffff16600314156133f257600083606001516001600160a01b031663a8311aa86040518163ffffffff1660e01b815260040160006040518083038186803b15801561324a57600080fd5b505afa15801561325e573d6000803e3d6000fd5b505050506040513d6000823e601f3d908101601f191682016040526132869190810190614892565b80519091505b80156133ef5760006001600160a01b038716638ba5ba86846132af6001866148ce565b815181106132bf576132bf6148e5565b60200260200101516040518263ffffffff1660e01b81526004016132f0919064ffffffffff91909116815260200190565b60206040518083038186803b15801561330857600080fd5b505afa15801561331c573d6000803e3d6000fd5b505050506040513d601f19601f82011682018060405250810190613340919061483b565b90506001600160401b038116156133dc57856040015161010001511561339157856040015160e0015161338c57808560400181815161337f91906148fb565b6001600160401b03169052505b6133dc565b80856000018181516133a3919061486a565b6001600160401b0316905250604086015160e00151156133dc5780856040018181516133cf919061486a565b6001600160401b03169052505b816133e681614926565b9250505061328c565b50505b6040805163a0743e7160e01b81526004810189905283516001600160401b0390811660248301526020850151811660448301529184015182166064820152606084015190911660848201526001600160a01b0385169063a0743e719060a40161125a565b60008054604051636ae3b70d60e11b81523360048201526001600160a01b039091169063d5c76e1a90602401602060405180830381600087803b15801561349c57600080fd5b505af11580156106e7573d6000803e3d6000fd5b60015460408051639262826d60e01b815290516000926001600160a01b031691639262826d916004808301926020929190829003018186803b1580156134f557600080fd5b505afa158015613509573d6000803e3d6000fd5b505050506040513d601f19601f8201168201806040525081019061352d9190614077565b6001600160a01b031663ad15aad2846040518263ffffffff1660e01b815260040161355a91815260200190565b6103e06040518083038186803b15801561357357600080fd5b505afa158015613587573d6000803e3d6000fd5b505050506040513d601f19601f820116820180604052508101906135ab919061432b565b80515190915061ffff16600314156138a057606081015160015460408051639262826d60e01b815290516000926001600160a01b031691639262826d916004808301926020929190829003018186803b15801561360757600080fd5b505afa15801561361b573d6000803e3d6000fd5b505050506040513d601f19601f8201168201806040525081019061363f9190614077565b6001600160a01b0316637f1c7d61856040518263ffffffff1660e01b815260040161366c91815260200190565b60006040518083038186803b15801561368457600080fd5b505afa158015613698573d6000803e3d6000fd5b505050506040513d6000823e601f3d908101601f191682016040526136c0919081019061493d565b80519091505b80156137db576001600160a01b0383166328769ede836136e76001856148ce565b815181106136f7576136f76148e5565b6020026020010151606001516040518263ffffffff1660e01b815260040161372c919064ffffffffff91909116815260200190565b60206040518083038186803b15801561374457600080fd5b505afa158015613758573d6000803e3d6000fd5b505050506040513d601f19601f8201168201806040525081019061377c9190614016565b156137c95760405162461bcd60e51b815260206004820152601a60248201527f424f444b2e5250433a2069732072656c617465642070617274790000000000006044820152606401610440565b806137d381614926565b9150506136c6565b60405163143b4f6f60e11b8152600481018690526001600160a01b038416906328769ede9060240160206040518083038186803b15801561381b57600080fd5b505afa15801561382f573d6000803e3d6000fd5b505050506040513d601f19601f820116820180604052508101906138539190614016565b1561079a5760405162461bcd60e51b815260206004820152601a60248201527f424f444b2e5250433a2069732072656c617465642070617274790000000000006044820152606401610440565b505050565b6000546001600160a01b0316156138f65760405162461bcd60e51b815260206004820152601560248201527430b63932b0b23c9039b2ba103932b3a1b2b73a32b960591b6044820152606401610440565b600080546001600160a01b0319166001600160a01b0392909216919091179055565b6001546001600160a01b0316156139715760405162461bcd60e51b815260206004820152601960248201527f616c7265616479207365742067656e6572616c4b6565706572000000000000006044820152606401610440565b600180546001600160a01b0319166001600160a01b0392909216919091179055565b64ffffffffff811681146139a657600080fd5b50565b80356139b481613993565b919050565b600080600080608085870312156139cf57600080fd5b843593506020850135925060408501356139e881613993565b915060608501356139f881613993565b939692955090935050565b60008060408385031215613a1657600080fd5b50508035926020909101359150565b60008060408385031215613a3857600080fd5b823591506020830135613a4a81613993565b809150509250929050565b60ff811681146139a657600080fd5b60008060008060808587031215613a7a57600080fd5b843593506020850135613a8c81613a55565b93969395505050506040820135916060013590565b6001600160a01b03811681146139a657600080fd5b61ffff811681146139a657600080fd5b60008060008060808587031215613adc57600080fd5b8435613ae781613aa1565b93506020850135613af781613ab6565b925060408501356139e881613993565b600060208284031215613b1957600080fd5b5035919050565b634e487b7160e01b600052604160045260246000fd5b60405160e081016001600160401b0381118282101715613b5857613b58613b20565b60405290565b6040516101e081016001600160401b0381118282101715613b5857613b58613b20565b604051608081016001600160401b0381118282101715613b5857613b58613b20565b604051601f8201601f191681016001600160401b0381118282101715613bcb57613bcb613b20565b604052919050565b60006001600160401b03821115613bec57613bec613b20565b5060051b60200190565b600082601f830112613c0757600080fd5b81356020613c1c613c1783613bd3565b613ba3565b82815260059290921b84018101918181019086841115613c3b57600080fd5b8286015b84811015613c5f578035613c5281613aa1565b8352918301918301613c3f565b509695505050505050565b600082601f830112613c7b57600080fd5b81356020613c8b613c1783613bd3565b82815260059290921b84018101918181019086841115613caa57600080fd5b8286015b84811015613c5f5780358352918301918301613cae565b6000601f8381840112613cd757600080fd5b82356020613ce7613c1783613bd3565b82815260059290921b85018101918181019087841115613d0657600080fd5b8287015b84811015613d9c5780356001600160401b0380821115613d2a5760008081fd5b818a0191508a603f830112613d3f5760008081fd5b85820135604082821115613d5557613d55613b20565b613d66828b01601f19168901613ba3565b92508183528c81838601011115613d7d5760008081fd5b8181850189850137506000908201870152845250918301918301613d0a565b50979650505050505050565b600080600080600080600060e0888a031215613dc357600080fd5b8735613dce81613ab6565b965060208801356001600160401b0380821115613dea57600080fd5b613df68b838c01613bf6565b975060408a0135915080821115613e0c57600080fd5b613e188b838c01613c6a565b965060608a0135915080821115613e2e57600080fd5b50613e3b8a828b01613cc5565b9450506080880135925060a0880135915060c0880135613e5a81613993565b8091505092959891949750929550565b600060208284031215613e7c57600080fd5b8135611a8e81613aa1565b600080600060608486031215613e9c57600080fd5b833592506020840135613eae81613993565b91506040840135613ebe81613993565b809150509250925092565b600080600060608486031215613ede57600080fd5b83359250602084013591506040840135613ebe81613993565b60008060008060808587031215613f0d57600080fd5b843593506020850135613f1f81613aa1565b92506040850135613f2f81613aa1565b915060608501356139f881613aa1565b600080600080600080600060e0888a031215613f5a57600080fd5b8735613f6581613ab6565b965060208801356001600160401b0380821115613f8157600080fd5b613f8d8b838c01613bf6565b975060408a0135915080821115613fa357600080fd5b613faf8b838c01613c6a565b965060608a0135915080821115613fc557600080fd5b50613fd28a828b01613cc5565b9450506080880135925060a0880135613fea81613993565b9150613ff860c089016139a9565b905092959891949750929550565b805180151581146139b457600080fd5b60006020828403121561402857600080fd5b611a8e82614006565b60208082526026908201527f41432e6f6e6c794469726563744b65657065723a206e6f74206469726563742060408201526535b2b2b832b960d11b606082015260800190565b60006020828403121561408957600080fd5b8151611a8e81613aa1565b80516139b481613ab6565b80516001600160401b03811681146139b457600080fd5b80516139b481613993565b805165ffffffffffff811681146139b457600080fd5b805163ffffffff811681146139b457600080fd5b80516139b481613a55565b600060e0828403121561410857600080fd5b614110613b36565b9050815161411d81613993565b815261412b602083016140c1565b602082015261413c604083016140c1565b604082015261414d606083016140c1565b606082015261415e608083016140c1565b608082015260a082015161417181613ab6565b60a082015260c082015161418481613a55565b60c082015292915050565b600082601f8301126141a057600080fd5b604051604081018181106001600160401b03821117156141c2576141c2613b20565b80604052508060408401858111156141d957600080fd5b845b818110156141fc5780516141ee81613993565b8352602092830192016141db565b509195945050505050565b6000610200828403121561421a57600080fd5b614222613b5e565b905061422d82614094565b815261423b602083016140eb565b602082015261424c604083016140eb565b604082015261425d60608301614094565b606082015261426e60808301614094565b608082015261427f60a08301614094565b60a082015261429060c08301614006565b60c08201526142a160e08301614006565b60e08201526101006142b4818401614006565b908201526101206142c6838201614006565b908201526101406142d8838201614094565b908201526101606142ea838201614094565b908201526101806142fc838201614094565b908201526101a061430e838201614094565b908201526101c06143218484830161418f565b9082015292915050565b60008183036103e081121561433f57600080fd5b614347613b81565b60e082121561435557600080fd5b61435d613b36565b9150835161436a81613ab6565b82526143786020850161409f565b6020830152604084015161438b81613ab6565b6040830152606084015161439e81613993565b606083015260808401516143b181613993565b60808301526143c260a085016140c1565b60a08301526143d360c085016140d7565b60c08301528181526143e88560e086016140f6565b60208201526143fb856101c08601614207565b60408201526103c093909301516060840152509092915050565b60006020828403121561442757600080fd5b8151611a8e81613993565b6020808252601590820152742127a2259722229d103737ba103234b932b1ba37b960591b604082015260600190565b600061010080838503121561447557600080fd5b604051908101906001600160401b038211818310171561449757614497613b20565b81604052809250835191506144ab82613ab6565b8181526144ba60208501614094565b60208201526144cb604085016140b6565b60408201526144dc606085016140b6565b60608201526144ed608085016140c1565b60808201526144fe60a085016140c1565b60a082015261450f60c08501614094565b60c082015261452060e085016140d7565b60e0820152505092915050565b6000610100828403121561454057600080fd5b611a8e8383614461565b60006020828403121561455c57600080fd5b611a8e8261409f565b600081518084526020808501945080840160005b8381101561459e5781516001600160a01b031687529582019590820190600101614579565b509495945050505050565b600081518084526020808501945080840160005b8381101561459e578151875295820195908201906001016145bd565b600081518084526020808501808196508360051b810191508286016000805b86811015614659578385038a5282518051808752835b81811015614629578281018901518882018a0152880161460e565b81811115614639578489838a0101525b509a87019a601f01601f19169590950186019450918501916001016145f8565b509298975050505050505050565b61ffff8816815260e06020820152600061468460e0830189614565565b828103604084015261469681896145a9565b905082810360608401526146aa81886145d9565b6080840196909652505060a081019290925264ffffffffff1660c090910152949350505050565b61ffff8816815260e0602082015260006146ee60e0830189614565565b828103604084015261470081896145a9565b9050828103606084015261471481886145d9565b6080840196909652505064ffffffffff92831660a0820152911660c090910152949350505050565b600082601f83011261474d57600080fd5b8151602061475d613c1783613bd3565b82815260059290921b8401810191818101908684111561477c57600080fd5b8286015b84811015613c5f5780518352918301918301614780565b6000602082840312156147a957600080fd5b81516001600160401b03808211156147c057600080fd5b90830190606082860312156147d457600080fd5b6040516060810181811083821117156147ef576147ef613b20565b6040526147fb836140d7565b81526148096020840161409f565b602082015260408301518281111561482057600080fd5b61482c8782860161473c565b60408301525095945050505050565b60006020828403121561484d57600080fd5b5051919050565b634e487b7160e01b600052601160045260246000fd5b60006001600160401b038381169083168181101561488a5761488a614854565b039392505050565b6000602082840312156148a457600080fd5b81516001600160401b038111156148ba57600080fd5b6148c68482850161473c565b949350505050565b6000828210156148e0576148e0614854565b500390565b634e487b7160e01b600052603260045260246000fd5b60006001600160401b0380831681851680830382111561491d5761491d614854565b01949350505050565b60008161493557614935614854565b506000190190565b6000602080838503121561495057600080fd5b82516001600160401b0381111561496657600080fd5b8301601f8101851361497757600080fd5b8051614985613c1782613bd3565b81815260089190911b820183019083810190878311156149a457600080fd5b928401925b828410156149ce576149bb8885614461565b82528482019150610100840193506149a9565b97965050505050505056fea2646970667358221220761448e699af362d15ce51c1ca8b76502ee034bc5e7015d40cff5e922d970cc364736f6c63430008080033",
    "sourcePath": "/Users/kaptain/github.com/hardhat/comboox/contracts/keepers/BODKeeper.sol",
    "compiler": {
        "name": "solc",
        "version": "0.8.8+commit.dddeac2f"
    },
    "functionHashes": {
        "abandonRole(bytes32)": "3da9a600",
        "castVote(uint256,uint8,bytes32,uint256)": "1fa1fdc5",
        "entrustDelegate(uint256,uint40,uint40)": "81ab05cb",
        "execAction(uint16,address[],uint256[],bytes[],bytes32,uint256,uint40)": "52cad28e",
        "finalized()": "b3f05b97",
        "getBookeeper()": "ed211023",
        "getGeneralCounsel()": "103f6edd",
        "getOwner()": "893d20e8",
        "grantRole(bytes32,uint256)": "1b6ea9f9",
        "hasRole(bytes32,uint256)": "7e063c5a",
        "init(uint256,address,address,address)": "dc890da9",
        "lockContents()": "f045a769",
        "nominateOfficer(uint256,uint40,uint40)": "f4c5424e",
        "proposeAction(uint16,address[],uint256[],bytes[],bytes32,uint40,uint40)": "f3c54fac",
        "proposeDoc(address,uint16,uint40,uint40)": "216eeebf",
        "proposeToRemoveOfficer(uint256,uint40)": "1d3e9ddc",
        "quitPosition(uint256,uint40)": "79bcc9f0",
        "removeOfficer(uint256,uint256,uint40,uint40)": "081d46d8",
        "renounceRole(bytes32)": "8bb9c5bf",
        "revokeRole(bytes32,uint256)": "19d61ad9",
        "setDirectKeeper(address)": "6be8496f",
        "setGeneralCounsel(uint256)": "4a14beb1",
        "setOwner(uint256)": "8041494e",
        "setRoleAdmin(bytes32,uint256)": "5171ebd4",
        "takePosition(uint256,uint256,uint40)": "d1f824ee",
        "voteCounting(uint256,uint256)": "f894759e"
    },
    "gasEstimates": {
        "creation": {
            "codeDepositCost": "3791800",
            "executionCost": "4295",
            "totalCost": "3796095"
        },
        "external": {
            "abandonRole(bytes32)": "infinite",
            "castVote(uint256,uint8,bytes32,uint256)": "infinite",
            "entrustDelegate(uint256,uint40,uint40)": "infinite",
            "execAction(uint16,address[],uint256[],bytes[],bytes32,uint256,uint40)": "infinite",
            "finalized()": "2460",
            "getBookeeper()": "infinite",
            "getGeneralCounsel()": "infinite",
            "getOwner()": "infinite",
            "grantRole(bytes32,uint256)": "infinite",
            "hasRole(bytes32,uint256)": "infinite",
            "init(uint256,address,address,address)": "infinite",
            "lockContents()": "infinite",
            "nominateOfficer(uint256,uint40,uint40)": "infinite",
            "proposeAction(uint16,address[],uint256[],bytes[],bytes32,uint40,uint40)": "infinite",
            "proposeDoc(address,uint16,uint40,uint40)": "infinite",
            "proposeToRemoveOfficer(uint256,uint40)": "infinite",
            "quitPosition(uint256,uint40)": "infinite",
            "removeOfficer(uint256,uint256,uint40,uint40)": "infinite",
            "renounceRole(bytes32)": "infinite",
            "revokeRole(bytes32,uint256)": "infinite",
            "setDirectKeeper(address)": "infinite",
            "setGeneralCounsel(uint256)": "infinite",
            "setOwner(uint256)": "infinite",
            "setRoleAdmin(bytes32,uint256)": "infinite",
            "takePosition(uint256,uint256,uint40)": "infinite",
            "voteCounting(uint256,uint256)": "infinite"
        },
        "internal": {
            "_avoidanceCheck(uint256,uint256)": "infinite"
        }
    }
}