{
    "contractName": "BODKeeper",
    "abi": [
        {
            "anonymous": false,
            "inputs": [
                {
                    "indexed": false,
                    "internalType": "uint256",
                    "name": "owner",
                    "type": "uint256"
                },
                {
                    "indexed": false,
                    "internalType": "address",
                    "name": "directKeeper",
                    "type": "address"
                },
                {
                    "indexed": false,
                    "internalType": "address",
                    "name": "regCenter",
                    "type": "address"
                },
                {
                    "indexed": false,
                    "internalType": "address",
                    "name": "generalKeeper",
                    "type": "address"
                }
            ],
            "name": "Init",
            "type": "event"
        },
        {
            "anonymous": false,
            "inputs": [],
            "name": "LockContents",
            "type": "event"
        },
        {
            "anonymous": false,
            "inputs": [
                {
                    "indexed": false,
                    "internalType": "address",
                    "name": "keeper",
                    "type": "address"
                }
            ],
            "name": "SetDirectKeeper",
            "type": "event"
        },
        {
            "anonymous": false,
            "inputs": [
                {
                    "indexed": false,
                    "internalType": "uint256",
                    "name": "acct",
                    "type": "uint256"
                }
            ],
            "name": "SetGeneralCounsel",
            "type": "event"
        },
        {
            "anonymous": false,
            "inputs": [
                {
                    "indexed": false,
                    "internalType": "uint256",
                    "name": "acct",
                    "type": "uint256"
                }
            ],
            "name": "SetOwner",
            "type": "event"
        },
        {
            "inputs": [
                {
                    "internalType": "bytes32",
                    "name": "role",
                    "type": "bytes32"
                }
            ],
            "name": "abandonRole",
            "outputs": [],
            "stateMutability": "nonpayable",
            "type": "function"
        },
        {
            "inputs": [
                {
                    "internalType": "uint256",
                    "name": "seqOfMotion",
                    "type": "uint256"
                },
                {
                    "internalType": "uint256",
                    "name": "attitude",
                    "type": "uint256"
                },
                {
                    "internalType": "bytes32",
                    "name": "sigHash",
                    "type": "bytes32"
                },
                {
                    "internalType": "uint256",
                    "name": "caller",
                    "type": "uint256"
                }
            ],
            "name": "castVote",
            "outputs": [],
            "stateMutability": "nonpayable",
            "type": "function"
        },
        {
            "inputs": [
                {
                    "internalType": "uint256",
                    "name": "seqOfMotion",
                    "type": "uint256"
                },
                {
                    "internalType": "uint256",
                    "name": "delegate",
                    "type": "uint256"
                },
                {
                    "internalType": "uint256",
                    "name": "caller",
                    "type": "uint256"
                }
            ],
            "name": "entrustDelegate",
            "outputs": [],
            "stateMutability": "nonpayable",
            "type": "function"
        },
        {
            "inputs": [
                {
                    "internalType": "uint256",
                    "name": "typeOfAction",
                    "type": "uint256"
                },
                {
                    "internalType": "address[]",
                    "name": "targets",
                    "type": "address[]"
                },
                {
                    "internalType": "uint256[]",
                    "name": "values",
                    "type": "uint256[]"
                },
                {
                    "internalType": "bytes[]",
                    "name": "params",
                    "type": "bytes[]"
                },
                {
                    "internalType": "bytes32",
                    "name": "desHash",
                    "type": "bytes32"
                },
                {
                    "internalType": "uint256",
                    "name": "seqOfMotion",
                    "type": "uint256"
                },
                {
                    "internalType": "uint256",
                    "name": "caller",
                    "type": "uint256"
                }
            ],
            "name": "execAction",
            "outputs": [],
            "stateMutability": "nonpayable",
            "type": "function"
        },
        {
            "inputs": [],
            "name": "finalized",
            "outputs": [
                {
                    "internalType": "bool",
                    "name": "",
                    "type": "bool"
                }
            ],
            "stateMutability": "view",
            "type": "function"
        },
        {
            "inputs": [],
            "name": "getBookeeper",
            "outputs": [
                {
                    "internalType": "address",
                    "name": "",
                    "type": "address"
                }
            ],
            "stateMutability": "view",
            "type": "function"
        },
        {
            "inputs": [],
            "name": "getGeneralCounsel",
            "outputs": [
                {
                    "internalType": "uint40",
                    "name": "",
                    "type": "uint40"
                }
            ],
            "stateMutability": "view",
            "type": "function"
        },
        {
            "inputs": [],
            "name": "getOwner",
            "outputs": [
                {
                    "internalType": "uint40",
                    "name": "",
                    "type": "uint40"
                }
            ],
            "stateMutability": "view",
            "type": "function"
        },
        {
            "inputs": [
                {
                    "internalType": "bytes32",
                    "name": "role",
                    "type": "bytes32"
                },
                {
                    "internalType": "uint256",
                    "name": "acct",
                    "type": "uint256"
                }
            ],
            "name": "grantRole",
            "outputs": [],
            "stateMutability": "nonpayable",
            "type": "function"
        },
        {
            "inputs": [
                {
                    "internalType": "bytes32",
                    "name": "role",
                    "type": "bytes32"
                },
                {
                    "internalType": "uint256",
                    "name": "acct",
                    "type": "uint256"
                }
            ],
            "name": "hasRole",
            "outputs": [
                {
                    "internalType": "bool",
                    "name": "",
                    "type": "bool"
                }
            ],
            "stateMutability": "view",
            "type": "function"
        },
        {
            "inputs": [
                {
                    "internalType": "uint256",
                    "name": "owner",
                    "type": "uint256"
                },
                {
                    "internalType": "address",
                    "name": "directKeeper",
                    "type": "address"
                },
                {
                    "internalType": "address",
                    "name": "regCenter",
                    "type": "address"
                },
                {
                    "internalType": "address",
                    "name": "generalKeeper",
                    "type": "address"
                }
            ],
            "name": "init",
            "outputs": [],
            "stateMutability": "nonpayable",
            "type": "function"
        },
        {
            "inputs": [],
            "name": "lockContents",
            "outputs": [],
            "stateMutability": "nonpayable",
            "type": "function"
        },
        {
            "inputs": [
                {
                    "internalType": "uint256",
                    "name": "seqOfPos",
                    "type": "uint256"
                },
                {
                    "internalType": "uint256",
                    "name": "candidate",
                    "type": "uint256"
                },
                {
                    "internalType": "uint256",
                    "name": "nominator",
                    "type": "uint256"
                }
            ],
            "name": "nominateOfficer",
            "outputs": [],
            "stateMutability": "nonpayable",
            "type": "function"
        },
        {
            "inputs": [
                {
                    "internalType": "uint256",
                    "name": "seqOfVR",
                    "type": "uint256"
                },
                {
                    "internalType": "address[]",
                    "name": "targets",
                    "type": "address[]"
                },
                {
                    "internalType": "uint256[]",
                    "name": "values",
                    "type": "uint256[]"
                },
                {
                    "internalType": "bytes[]",
                    "name": "params",
                    "type": "bytes[]"
                },
                {
                    "internalType": "bytes32",
                    "name": "desHash",
                    "type": "bytes32"
                },
                {
                    "internalType": "uint256",
                    "name": "executor",
                    "type": "uint256"
                },
                {
                    "internalType": "uint256",
                    "name": "proposer",
                    "type": "uint256"
                }
            ],
            "name": "proposeAction",
            "outputs": [],
            "stateMutability": "nonpayable",
            "type": "function"
        },
        {
            "inputs": [
                {
                    "internalType": "address",
                    "name": "doc",
                    "type": "address"
                },
                {
                    "internalType": "uint256",
                    "name": "seqOfVR",
                    "type": "uint256"
                },
                {
                    "internalType": "uint256",
                    "name": "executor",
                    "type": "uint256"
                },
                {
                    "internalType": "uint256",
                    "name": "proposer",
                    "type": "uint256"
                }
            ],
            "name": "proposeDoc",
            "outputs": [],
            "stateMutability": "nonpayable",
            "type": "function"
        },
        {
            "inputs": [
                {
                    "internalType": "uint256",
                    "name": "seqOfPos",
                    "type": "uint256"
                },
                {
                    "internalType": "uint256",
                    "name": "nominator",
                    "type": "uint256"
                }
            ],
            "name": "proposeToRemoveOfficer",
            "outputs": [],
            "stateMutability": "nonpayable",
            "type": "function"
        },
        {
            "inputs": [
                {
                    "internalType": "uint256",
                    "name": "seqOfPos",
                    "type": "uint256"
                },
                {
                    "internalType": "uint256",
                    "name": "caller",
                    "type": "uint256"
                }
            ],
            "name": "quitPosition",
            "outputs": [],
            "stateMutability": "nonpayable",
            "type": "function"
        },
        {
            "inputs": [
                {
                    "internalType": "uint256",
                    "name": "seqOfMotion",
                    "type": "uint256"
                },
                {
                    "internalType": "uint256",
                    "name": "seqOfPos",
                    "type": "uint256"
                },
                {
                    "internalType": "uint256",
                    "name": "target",
                    "type": "uint256"
                },
                {
                    "internalType": "uint256",
                    "name": "caller",
                    "type": "uint256"
                }
            ],
            "name": "removeOfficer",
            "outputs": [],
            "stateMutability": "nonpayable",
            "type": "function"
        },
        {
            "inputs": [
                {
                    "internalType": "bytes32",
                    "name": "role",
                    "type": "bytes32"
                }
            ],
            "name": "renounceRole",
            "outputs": [],
            "stateMutability": "nonpayable",
            "type": "function"
        },
        {
            "inputs": [
                {
                    "internalType": "bytes32",
                    "name": "role",
                    "type": "bytes32"
                },
                {
                    "internalType": "uint256",
                    "name": "acct",
                    "type": "uint256"
                }
            ],
            "name": "revokeRole",
            "outputs": [],
            "stateMutability": "nonpayable",
            "type": "function"
        },
        {
            "inputs": [
                {
                    "internalType": "address",
                    "name": "keeper",
                    "type": "address"
                }
            ],
            "name": "setDirectKeeper",
            "outputs": [],
            "stateMutability": "nonpayable",
            "type": "function"
        },
        {
            "inputs": [
                {
                    "internalType": "uint256",
                    "name": "acct",
                    "type": "uint256"
                }
            ],
            "name": "setGeneralCounsel",
            "outputs": [],
            "stateMutability": "nonpayable",
            "type": "function"
        },
        {
            "inputs": [
                {
                    "internalType": "uint256",
                    "name": "acct",
                    "type": "uint256"
                }
            ],
            "name": "setOwner",
            "outputs": [],
            "stateMutability": "nonpayable",
            "type": "function"
        },
        {
            "inputs": [
                {
                    "internalType": "bytes32",
                    "name": "role",
                    "type": "bytes32"
                },
                {
                    "internalType": "uint256",
                    "name": "acct",
                    "type": "uint256"
                }
            ],
            "name": "setRoleAdmin",
            "outputs": [],
            "stateMutability": "nonpayable",
            "type": "function"
        },
        {
            "inputs": [
                {
                    "internalType": "uint256",
                    "name": "seqOfMotion",
                    "type": "uint256"
                },
                {
                    "internalType": "uint256",
                    "name": "seqOfPos",
                    "type": "uint256"
                },
                {
                    "internalType": "uint256",
                    "name": "caller",
                    "type": "uint256"
                }
            ],
            "name": "takePosition",
            "outputs": [],
            "stateMutability": "nonpayable",
            "type": "function"
        },
        {
            "inputs": [
                {
                    "internalType": "uint256",
                    "name": "seqOfMotion",
                    "type": "uint256"
                },
                {
                    "internalType": "uint256",
                    "name": "caller",
                    "type": "uint256"
                }
            ],
            "name": "voteCounting",
            "outputs": [],
            "stateMutability": "nonpayable",
            "type": "function"
        }
    ],
    "bytecode": "608060405234801561001057600080fd5b50614710806100206000396000f3fe608060405234801561001057600080fd5b506004361061018e5760003560e01c80637e063c5a116100de578063bbfd607d11610097578063ed21102311610071578063ed2110231461034d578063f045a7691461036d578063f894759e14610375578063fe1bdff21461038857600080fd5b8063bbfd607d14610314578063cd43b16514610327578063dc890da91461033a57600080fd5b80637e063c5a1461029c5780638041494e146102bf578063893d20e8146102d25780638bb9c5bf146102da578063a8780799146102ed578063b3f05b971461030057600080fd5b80633e2032ab1161014b5780635c2753bf116101255780635c2753bf146102505780636765a9c2146102635780636a0cb964146102765780636be8496f1461028957600080fd5b80633e2032ab146102175780634a14beb11461022a5780635171ebd41461023d57600080fd5b8063103f6edd146101935780631119501e146101b657806319d61ad9146101cb5780631ad1ea44146101de5780631b6ea9f9146101f15780633da9a60014610204575b600080fd5b61019b61039b565b60405164ffffffffff90911681526020015b60405180910390f35b6101c96101c43660046138f4565b610427565b005b6101c96101d9366004613926565b61078c565b6101c96101ec366004613926565b61081e565b6101c96101ff366004613926565b6109a8565b6101c9610212366004613948565b6109ce565b6101c9610225366004613961565b610a59565b6101c9610238366004613948565b610d1b565b6101c961024b366004613926565b610f78565b6101c961025e366004613bec565b610f9e565b6101c9610271366004613926565b6111ac565b6101c9610284366004613961565b6115dc565b6101c9610297366004613cf8565b611a15565b6102af6102aa366004613926565b611ac7565b60405190151581526020016101ad565b6101c96102cd366004613948565b611b62565b61019b611c1b565b6101c96102e8366004613948565b611c56565b6101c96102fb3660046138f4565b611c7b565b60028054600160f01b900460ff16146102af565b6101c9610322366004613bec565b611f18565b6101c9610335366004613d15565b612255565b6101c9610348366004613d50565b612561565b610355612643565b6040516001600160a01b0390911681526020016101ad565b6101c96126c9565b6101c9610383366004613926565b61290d565b6101c9610396366004613961565b613014565b60405163e8c0cc1d60e01b81526002600482015260009073__$364aad554dc80380f414546becdd2c1584$__9063e8c0cc1d906024015b60206040518083038186803b1580156103ea57600080fd5b505af41580156103fe573d6000803e3d6000fd5b505050506040513d601f19601f820116820180604052508101906104229190613dbd565b905090565b604051633b11adbf60e21b81526002600482015233602482015273__$364aad554dc80380f414546becdd2c1584$__9063ec46b6fc9060440160206040518083038186803b15801561047857600080fd5b505af415801561048c573d6000803e3d6000fd5b505050506040513d601f19601f820116820180604052508101906104b09190613de8565b6104d55760405162461bcd60e51b81526004016104cc90613e03565b60405180910390fd5b60015460408051639262826d60e01b8152905183926001600160a01b031691639262826d916004808301926020929190829003018186803b15801561051957600080fd5b505afa15801561052d573d6000803e3d6000fd5b505050506040513d601f19601f820116820180604052508101906105519190613e49565b6001600160a01b0316639258effe826040518263ffffffff1660e01b815260040161057e91815260200190565b60206040518083038186803b15801561059657600080fd5b505afa1580156105aa573d6000803e3d6000fd5b505050506040513d601f19601f820116820180604052508101906105ce9190613de8565b6105ea5760405162461bcd60e51b81526004016104cc90613e66565b6105f485836133b7565b600160009054906101000a90046001600160a01b03166001600160a01b0316639262826d6040518163ffffffff1660e01b815260040160206040518083038186803b15801561064257600080fd5b505afa158015610656573d6000803e3d6000fd5b505050506040513d601f19601f8201168201806040525081019061067a9190613e49565b6001600160a01b03166388125cf7868686600160009054906101000a90046001600160a01b03166001600160a01b03166333fb96ee6040518163ffffffff1660e01b815260040160206040518083038186803b1580156106d957600080fd5b505afa1580156106ed573d6000803e3d6000fd5b505050506040513d601f19601f820116820180604052508101906107119190613e49565b6040516001600160e01b031960e087901b1681526004810194909452602484019290925260448301526001600160a01b031660648201526084810185905260a4015b600060405180830381600087803b15801561076d57600080fd5b505af1158015610781573d6000803e3d6000fd5b505050505050505050565b73__$364aad554dc80380f414546becdd2c1584$__6382daafaa600284846107b26137ac565b6040516001600160e01b031960e087901b16815260048101949094526024840192909252604483015264ffffffffff16606482015260840160006040518083038186803b15801561080257600080fd5b505af4158015610816573d6000803e3d6000fd5b505050505050565b604051633b11adbf60e21b81526002600482015233602482015273__$364aad554dc80380f414546becdd2c1584$__9063ec46b6fc9060440160206040518083038186803b15801561086f57600080fd5b505af4158015610883573d6000803e3d6000fd5b505050506040513d601f19601f820116820180604052508101906108a79190613de8565b6108c35760405162461bcd60e51b81526004016104cc90613e03565b600160009054906101000a90046001600160a01b03166001600160a01b0316639262826d6040518163ffffffff1660e01b815260040160206040518083038186803b15801561091157600080fd5b505afa158015610925573d6000803e3d6000fd5b505050506040513d601f19601f820116820180604052508101906109499190613e49565b6040516306b47a9160e21b815260048101849052602481018390526001600160a01b039190911690631ad1ea4490604401600060405180830381600087803b15801561099457600080fd5b505af1158015610816573d6000803e3d6000fd5b73__$364aad554dc80380f414546becdd2c1584$__636320d75e600284846107b26137ac565b73__$364aad554dc80380f414546becdd2c1584$__63c51b295f6002836109f36137ac565b6040516001600160e01b031960e086901b1681526004810193909352602483019190915264ffffffffff16604482015260640160006040518083038186803b158015610a3e57600080fd5b505af4158015610a52573d6000803e3d6000fd5b5050505050565b604051633b11adbf60e21b81526002600482015233602482015273__$364aad554dc80380f414546becdd2c1584$__9063ec46b6fc9060440160206040518083038186803b158015610aaa57600080fd5b505af4158015610abe573d6000803e3d6000fd5b505050506040513d601f19601f82011682018060405250810190610ae29190613de8565b610afe5760405162461bcd60e51b81526004016104cc90613e03565b60015460408051639262826d60e01b815290516000926001600160a01b031691639262826d916004808301926020929190829003018186803b158015610b4357600080fd5b505afa158015610b57573d6000803e3d6000fd5b505050506040513d601f19601f82011682018060405250810190610b7b9190613e49565b60405163568ad56960e11b8152600481018690529091506001906001600160a01b0383169063ad15aad2906024016103e06040518083038186803b158015610bc257600080fd5b505afa158015610bd6573d6000803e3d6000fd5b505050506040513d601f19601f82011682018060405250810190610bfa9190614126565b515161ffff1614610c4d5760405162461bcd60e51b815260206004820152601e60248201527f424f444b2e544f3a206e6f742061207375697461626c65206d6f74696f6e000060448201526064016104cc565b60405162b4faa960e61b81526004810185905260248101849052604481018390526001600160a01b03821690632d3eaa4090606401600060405180830381600087803b158015610c9c57600080fd5b505af1158015610cb0573d6000803e3d6000fd5b5050604051636998d28d60e01b815260048101869052602481018590526001600160a01b0384169250636998d28d9150604401600060405180830381600087803b158015610cfd57600080fd5b505af1158015610d11573d6000803e3d6000fd5b5050505050505050565b604051633b11adbf60e21b81526002600482015233602482015273__$364aad554dc80380f414546becdd2c1584$__9063ec46b6fc9060440160206040518083038186803b158015610d6c57600080fd5b505af4158015610d80573d6000803e3d6000fd5b505050506040513d601f19601f82011682018060405250810190610da49190613de8565b80610e49575073__$364aad554dc80380f414546becdd2c1584$__63fe2710866002610dce6137ac565b6040516001600160e01b031960e085901b168152600481019290925264ffffffffff16602482015260440160206040518083038186803b158015610e1157600080fd5b505af4158015610e25573d6000803e3d6000fd5b505050506040513d601f19601f82011682018060405250810190610e499190613de8565b610eb45760405162461bcd60e51b815260206004820152603660248201527f41432e6f776e65724f72446972656374426f6f6b65657065723a206e6569746860448201527532b91037bbb732b9103737b9103137b7b5b2b2b832b960511b60648201526084016104cc565b73__$364aad554dc80380f414546becdd2c1584$__639b4510de600283610ed96137ac565b6040516001600160e01b031960e086901b1681526004810193909352602483019190915264ffffffffff16604482015260640160006040518083038186803b158015610f2457600080fd5b505af4158015610f38573d6000803e3d6000fd5b505050507ff2735f34b69be1e6342dea95f9162f84d0db925fab655ca9f1f312ac8cbfc99d81604051610f6d91815260200190565b60405180910390a150565b73__$364aad554dc80380f414546becdd2c1584$__63ee98b313600284846107b26137ac565b60015460408051639262826d60e01b8152905183926001600160a01b031691639262826d916004808301926020929190829003018186803b158015610fe257600080fd5b505afa158015610ff6573d6000803e3d6000fd5b505050506040513d601f19601f8201168201806040525081019061101a9190613e49565b6001600160a01b0316639258effe826040518263ffffffff1660e01b815260040161104791815260200190565b60206040518083038186803b15801561105f57600080fd5b505afa158015611073573d6000803e3d6000fd5b505050506040513d601f19601f820116820180604052508101906110979190613de8565b6110b35760405162461bcd60e51b81526004016104cc90613e66565b600160009054906101000a90046001600160a01b03166001600160a01b0316639262826d6040518163ffffffff1660e01b815260040160206040518083038186803b15801561110157600080fd5b505afa158015611115573d6000803e3d6000fd5b505050506040513d601f19601f820116820180604052508101906111399190613e49565b6001600160a01b0316635c2753bf898989898989896040518863ffffffff1660e01b815260040161117097969594939291906142d1565b600060405180830381600087803b15801561118a57600080fd5b505af115801561119e573d6000803e3d6000fd5b505050505050505050505050565b604051633b11adbf60e21b81526002600482015233602482015273__$364aad554dc80380f414546becdd2c1584$__9063ec46b6fc9060440160206040518083038186803b1580156111fd57600080fd5b505af4158015611211573d6000803e3d6000fd5b505050506040513d601f19601f820116820180604052508101906112359190613de8565b6112515760405162461bcd60e51b81526004016104cc90613e03565b60015460408051639262826d60e01b8152905183926001600160a01b031691639262826d916004808301926020929190829003018186803b15801561129557600080fd5b505afa1580156112a9573d6000803e3d6000fd5b505050506040513d601f19601f820116820180604052508101906112cd9190613e49565b6001600160a01b0316639258effe826040518263ffffffff1660e01b81526004016112fa91815260200190565b60206040518083038186803b15801561131257600080fd5b505afa158015611326573d6000803e3d6000fd5b505050506040513d601f19601f8201168201806040525081019061134a9190613de8565b6113665760405162461bcd60e51b81526004016104cc90613e66565b60015460408051639262826d60e01b815290516000926001600160a01b031691639262826d916004808301926020929190829003018186803b1580156113ab57600080fd5b505afa1580156113bf573d6000803e3d6000fd5b505050506040513d601f19601f820116820180604052508101906113e39190613e49565b60405163eb02c30160e01b8152600481018690529091506000906001600160a01b0383169063eb02c301906024016101206040518083038186803b15801561142a57600080fd5b505afa15801561143e573d6000803e3d6000fd5b505050506040513d601f19601f820116820180604052508101906114629190614413565b9050806060015164ffffffffff1660001480611488575083816060015164ffffffffff16145b6114d45760405162461bcd60e51b815260206004820152601f60248201527f424f444b2e4e4f3a20686173206e6f206e6f6d696e6174696f6e52696768740060448201526064016104cc565b60c08101516040516365a47e8160e01b81526004810187905261ffff9091166024820152604481018590526000906001600160a01b038416906365a47e8190606401602060405180830381600087803b15801561153057600080fd5b505af1158015611544573d6000803e3d6000fd5b505050506040513d601f19601f820116820180604052508101906115689190614430565b6040516304b79d5f60e11b81526001600160401b0382166004820152602481018790529091506001600160a01b0384169063096f3abe90604401600060405180830381600087803b1580156115bc57600080fd5b505af11580156115d0573d6000803e3d6000fd5b50505050505050505050565b604051633b11adbf60e21b81526002600482015233602482015273__$364aad554dc80380f414546becdd2c1584$__9063ec46b6fc9060440160206040518083038186803b15801561162d57600080fd5b505af4158015611641573d6000803e3d6000fd5b505050506040513d601f19601f820116820180604052508101906116659190613de8565b6116815760405162461bcd60e51b81526004016104cc90613e03565b60015460408051639262826d60e01b8152905183926001600160a01b031691639262826d916004808301926020929190829003018186803b1580156116c557600080fd5b505afa1580156116d9573d6000803e3d6000fd5b505050506040513d601f19601f820116820180604052508101906116fd9190613e49565b6001600160a01b0316639258effe826040518263ffffffff1660e01b815260040161172a91815260200190565b60206040518083038186803b15801561174257600080fd5b505afa158015611756573d6000803e3d6000fd5b505050506040513d601f19601f8201168201806040525081019061177a9190613de8565b6117965760405162461bcd60e51b81526004016104cc90613e66565b60015460408051639262826d60e01b815290516000926001600160a01b031691639262826d916004808301926020929190829003018186803b1580156117db57600080fd5b505afa1580156117ef573d6000803e3d6000fd5b505050506040513d601f19601f820116820180604052508101906118139190613e49565b60405163eb02c30160e01b8152600481018790529091506000906001600160a01b0383169063eb02c301906024016101206040518083038186803b15801561185a57600080fd5b505afa15801561186e573d6000803e3d6000fd5b505050506040513d601f19601f820116820180604052508101906118929190614413565b9050806060015164ffffffffff16600014806118b8575083816060015164ffffffffff16145b6119045760405162461bcd60e51b815260206004820152601f60248201527f424f444b2e4e4f3a20686173206e6f206e6f6d696e6174696f6e52696768740060448201526064016104cc565b60c08101516040516313d904eb60e21b81526004810188905261ffff909116602482015260448101869052606481018590526000906001600160a01b03841690634f6413ac90608401602060405180830381600087803b15801561196757600080fd5b505af115801561197b573d6000803e3d6000fd5b505050506040513d601f19601f8201168201806040525081019061199f9190614430565b6040516304b79d5f60e11b81526001600160401b0382166004820152602481018790529091506001600160a01b0384169063096f3abe906044015b600060405180830381600087803b1580156119f457600080fd5b505af1158015611a08573d6000803e3d6000fd5b5050505050505050505050565b604051630f07232560e01b8152600260048201526001600160a01b038216602482015233604482015273__$364aad554dc80380f414546becdd2c1584$__90630f0723259060640160006040518083038186803b158015611a7557600080fd5b505af4158015611a89573d6000803e3d6000fd5b50506040516001600160a01b03841681527fe435cbeab64e4eae6497b9d8289704bd709d624a80704ef3ca9af777534bc6ec92506020019050610f6d565b604051632a3be56b60e21b815260026004820152602481018390526044810182905260009073__$364aad554dc80380f414546becdd2c1584$__9063a8ef95ac9060640160206040518083038186803b158015611b2357600080fd5b505af4158015611b37573d6000803e3d6000fd5b505050506040513d601f19601f82011682018060405250810190611b5b9190613de8565b9392505050565b73__$364aad554dc80380f414546becdd2c1584$__639b48160c600283611b876137ac565b6040516001600160e01b031960e086901b1681526004810193909352602483019190915264ffffffffff16604482015260640160006040518083038186803b158015611bd257600080fd5b505af4158015611be6573d6000803e3d6000fd5b505050507f8b6f40f36b4ae8cc5f55e895036457c43da4ab1f80f58c46f5ff0d72a650033b81604051610f6d91815260200190565b60405163987ad15360e01b81526002600482015260009073__$364aad554dc80380f414546becdd2c1584$__9063987ad153906024016103d2565b73__$364aad554dc80380f414546becdd2c1584$__63cc0d511b6002836109f36137ac565b604051633b11adbf60e21b81526002600482015233602482015273__$364aad554dc80380f414546becdd2c1584$__9063ec46b6fc9060440160206040518083038186803b158015611ccc57600080fd5b505af4158015611ce0573d6000803e3d6000fd5b505050506040513d601f19601f82011682018060405250810190611d049190613de8565b611d205760405162461bcd60e51b81526004016104cc90613e03565b60015460408051639262826d60e01b815290516000926001600160a01b031691639262826d916004808301926020929190829003018186803b158015611d6557600080fd5b505afa158015611d79573d6000803e3d6000fd5b505050506040513d601f19601f82011682018060405250810190611d9d9190613e49565b60405163568ad56960e11b8152600481018790529091506002906001600160a01b0383169063ad15aad2906024016103e06040518083038186803b158015611de457600080fd5b505afa158015611df8573d6000803e3d6000fd5b505050506040513d601f19601f82011682018060405250810190611e1c9190614126565b515161ffff1614611e6f5760405162461bcd60e51b815260206004820152601e60248201527f424f444b2e544f3a206e6f742061207375697461626c65206d6f74696f6e000060448201526064016104cc565b60405162b4faa960e61b81526004810186905260248101859052604481018390526001600160a01b03821690632d3eaa4090606401600060405180830381600087803b158015611ebe57600080fd5b505af1158015611ed2573d6000803e3d6000fd5b505060405163a878079960e01b8152600481018890526024810187905260448101869052606481018590526001600160a01b038416925063a87807999150608401610753565b604051633b11adbf60e21b81526002600482015233602482015273__$364aad554dc80380f414546becdd2c1584$__9063ec46b6fc9060440160206040518083038186803b158015611f6957600080fd5b505af4158015611f7d573d6000803e3d6000fd5b505050506040513d601f19601f82011682018060405250810190611fa19190613de8565b611fbd5760405162461bcd60e51b81526004016104cc90613e03565b60015460408051639262826d60e01b8152905183926001600160a01b031691639262826d916004808301926020929190829003018186803b15801561200157600080fd5b505afa158015612015573d6000803e3d6000fd5b505050506040513d601f19601f820116820180604052508101906120399190613e49565b6001600160a01b0316639258effe826040518263ffffffff1660e01b815260040161206691815260200190565b60206040518083038186803b15801561207e57600080fd5b505afa158015612092573d6000803e3d6000fd5b505050506040513d601f19601f820116820180604052508101906120b69190613de8565b6120d25760405162461bcd60e51b81526004016104cc90613e66565b60015460408051639262826d60e01b815290516000926001600160a01b031691639262826d916004808301926020929190829003018186803b15801561211757600080fd5b505afa15801561212b573d6000803e3d6000fd5b505050506040513d601f19601f8201168201806040525081019061214f9190613e49565b90506000816001600160a01b031663bbfd607d8b8b8b8b8b8b8b6040518863ffffffff1660e01b815260040161218b97969594939291906142d1565b602060405180830381600087803b1580156121a557600080fd5b505af11580156121b9573d6000803e3d6000fd5b505050506040513d601f19601f820116820180604052508101906121dd9190614430565b6040516304b79d5f60e11b81526001600160401b0382166004820152602481018690529091506001600160a01b0383169063096f3abe90604401600060405180830381600087803b15801561223157600080fd5b505af1158015612245573d6000803e3d6000fd5b5050505050505050505050505050565b604051633b11adbf60e21b81526002600482015233602482015273__$364aad554dc80380f414546becdd2c1584$__9063ec46b6fc9060440160206040518083038186803b1580156122a657600080fd5b505af41580156122ba573d6000803e3d6000fd5b505050506040513d601f19601f820116820180604052508101906122de9190613de8565b6122fa5760405162461bcd60e51b81526004016104cc90613e03565b60015460408051639262826d60e01b8152905183926001600160a01b031691639262826d916004808301926020929190829003018186803b15801561233e57600080fd5b505afa158015612352573d6000803e3d6000fd5b505050506040513d601f19601f820116820180604052508101906123769190613e49565b6001600160a01b0316639258effe826040518263ffffffff1660e01b81526004016123a391815260200190565b60206040518083038186803b1580156123bb57600080fd5b505afa1580156123cf573d6000803e3d6000fd5b505050506040513d601f19601f820116820180604052508101906123f39190613de8565b61240f5760405162461bcd60e51b81526004016104cc90613e66565b60015460408051639262826d60e01b815290516000926001600160a01b031691639262826d916004808301926020929190829003018186803b15801561245457600080fd5b505afa158015612468573d6000803e3d6000fd5b505050506040513d601f19601f8201168201806040525081019061248c9190613e49565b60405163cd43b16560e01b81526001600160a01b03888116600483015260248201889052604482018790526064820186905291925060009183169063cd43b16590608401602060405180830381600087803b1580156124ea57600080fd5b505af11580156124fe573d6000803e3d6000fd5b505050506040513d601f19601f820116820180604052508101906125229190614430565b6040516304b79d5f60e11b81526001600160401b0382166004820152602481018690529091506001600160a01b0383169063096f3abe906044016119da565b604051636cdd0edf60e11b815260026004820152602481018590526001600160a01b038416604482015273__$364aad554dc80380f414546becdd2c1584$__9063d9ba1dbe9060640160006040518083038186803b1580156125c257600080fd5b505af41580156125d6573d6000803e3d6000fd5b505050506125e382613806565b6125ec81613879565b604080518581526001600160a01b038581166020830152848116828401528316606082015290517f3abb2418c66fe32ba9c883030a75ce583971d9af9192b9b74e44e67c5e6c8c1f9181900360800190a150505050565b604051633c3e56c160e11b81526002600482015260009073__$364aad554dc80380f414546becdd2c1584$__9063787cad829060240160206040518083038186803b15801561269157600080fd5b505af41580156126a5573d6000803e3d6000fd5b505050506040513d601f19601f820116820180604052508101906104229190613e49565b600254600160f01b900460ff166001146127255760405162461bcd60e51b815260206004820152601760248201527f41432e4c433a20446f632069732066696e616c697a656400000000000000000060448201526064016104cc565b73__$364aad554dc80380f414546becdd2c1584$__63c51b295f6002684174746f726e65797360b81b6127566137ac565b6040516001600160e01b031960e086901b1681526004810193909352602483019190915264ffffffffff16604482015260640160006040518083038186803b1580156127a157600080fd5b505af41580156127b5573d6000803e3d6000fd5b50505050600273__$364aad554dc80380f414546becdd2c1584$__639b4510de909160006127e16137ac565b6040516001600160e01b031960e086901b1681526004810193909352602483019190915264ffffffffff16604482015260640160006040518083038186803b15801561282c57600080fd5b505af4158015612840573d6000803e3d6000fd5b50505050600273__$364aad554dc80380f414546becdd2c1584$__639b48160c9091600061286c6137ac565b6040516001600160e01b031960e086901b1681526004810193909352602483019190915264ffffffffff16604482015260640160006040518083038186803b1580156128b757600080fd5b505af41580156128cb573d6000803e3d6000fd5b50506002805460ff60f01b1916600160f11b17905550506040517f35012b512309c322acf68632cd6cb702ff0e1d776fbe9394e38ffc13b434fe7590600090a1565b604051633b11adbf60e21b81526002600482015233602482015273__$364aad554dc80380f414546becdd2c1584$__9063ec46b6fc9060440160206040518083038186803b15801561295e57600080fd5b505af4158015612972573d6000803e3d6000fd5b505050506040513d601f19601f820116820180604052508101906129969190613de8565b6129b25760405162461bcd60e51b81526004016104cc90613e03565b60015460408051639262826d60e01b8152905183926001600160a01b031691639262826d916004808301926020929190829003018186803b1580156129f657600080fd5b505afa158015612a0a573d6000803e3d6000fd5b505050506040513d601f19601f82011682018060405250810190612a2e9190613e49565b6001600160a01b0316639258effe826040518263ffffffff1660e01b8152600401612a5b91815260200190565b60206040518083038186803b158015612a7357600080fd5b505afa158015612a87573d6000803e3d6000fd5b505050506040513d601f19601f82011682018060405250810190612aab9190613de8565b612ac75760405162461bcd60e51b81526004016104cc90613e66565b60015460408051639262826d60e01b815290516000926001600160a01b031691639262826d916004808301926020929190829003018186803b158015612b0c57600080fd5b505afa158015612b20573d6000803e3d6000fd5b505050506040513d601f19601f82011682018060405250810190612b449190613e49565b60405163568ad56960e11b8152600481018690529091506000906001600160a01b0383169063ad15aad2906024016103e06040518083038186803b158015612b8b57600080fd5b505afa158015612b9f573d6000803e3d6000fd5b505050506040513d601f19601f82011682018060405250810190612bc39190614126565b60408051608081018252600080825260208201819052818301819052606082018190529151630597757b60e21b81526004810189905260248101839052929350916001600160a01b0385169063165dd5ec9060440160006040518083038186803b158015612c3057600080fd5b505afa158015612c44573d6000803e3d6000fd5b505050506040513d6000823e601f3d908101601f19168201604052612c6c91908101906144a6565b9050826040015160c0015115612d0d57604051630597757b60e21b815260048101889052600060248201526001600160a01b0385169063165dd5ec9060440160006040518083038186803b158015612cc357600080fd5b505afa158015612cd7573d6000803e3d6000fd5b505050506040513d6000823e601f3d908101601f19168201604052612cff91908101906144a6565b5163ffffffff168252612fb0565b836001600160a01b031663695b2f606040518163ffffffff1660e01b815260040160206040518083038186803b158015612d4657600080fd5b505afa158015612d5a573d6000803e3d6000fd5b505050506040513d601f19601f82011682018060405250810190612d7e919061454a565b6001600160401b03168252604083015160e0015115612dba5780518251612dab9163ffffffff1690614579565b6001600160401b031660408301525b82515161ffff1660031415612fb057600083606001516001600160a01b031663a8311aa86040518163ffffffff1660e01b815260040160006040518083038186803b158015612e0857600080fd5b505afa158015612e1c573d6000803e3d6000fd5b505050506040513d6000823e601f3d908101601f19168201604052612e4491908101906145a1565b80519091505b8015612fad5760006001600160a01b03871663590022aa84612e6d6001866145dd565b81518110612e7d57612e7d6145f4565b60200260200101516040518263ffffffff1660e01b8152600401612eae919064ffffffffff91909116815260200190565b60206040518083038186803b158015612ec657600080fd5b505afa158015612eda573d6000803e3d6000fd5b505050506040513d601f19601f82011682018060405250810190612efe919061454a565b90506001600160401b03811615612f9a578560400151610100015115612f4f57856040015160e00151612f4a578085604001818151612f3d919061460a565b6001600160401b03169052505b612f9a565b8085600001818151612f619190614579565b6001600160401b0316905250604086015160e0015115612f9a578085604001818151612f8d9190614579565b6001600160401b03169052505b81612fa481614635565b92505050612e4a565b50505b6040805163a0743e7160e01b81526004810189905283516001600160401b0390811660248301526020850151811660448301529184015182166064820152606084015190911660848201526001600160a01b0385169063a0743e719060a4016119da565b604051633b11adbf60e21b81526002600482015233602482015273__$364aad554dc80380f414546becdd2c1584$__9063ec46b6fc9060440160206040518083038186803b15801561306557600080fd5b505af4158015613079573d6000803e3d6000fd5b505050506040513d601f19601f8201168201806040525081019061309d9190613de8565b6130b95760405162461bcd60e51b81526004016104cc90613e03565b60015460408051639262826d60e01b8152905183926001600160a01b031691639262826d916004808301926020929190829003018186803b1580156130fd57600080fd5b505afa158015613111573d6000803e3d6000fd5b505050506040513d601f19601f820116820180604052508101906131359190613e49565b6001600160a01b0316639258effe826040518263ffffffff1660e01b815260040161316291815260200190565b60206040518083038186803b15801561317a57600080fd5b505afa15801561318e573d6000803e3d6000fd5b505050506040513d601f19601f820116820180604052508101906131b29190613de8565b6131ce5760405162461bcd60e51b81526004016104cc90613e66565b60015460408051639262826d60e01b8152905185926001600160a01b031691639262826d916004808301926020929190829003018186803b15801561321257600080fd5b505afa158015613226573d6000803e3d6000fd5b505050506040513d601f19601f8201168201806040525081019061324a9190613e49565b6001600160a01b0316639258effe826040518263ffffffff1660e01b815260040161327791815260200190565b60206040518083038186803b15801561328f57600080fd5b505afa1580156132a3573d6000803e3d6000fd5b505050506040513d601f19601f820116820180604052508101906132c79190613de8565b6132e35760405162461bcd60e51b81526004016104cc90613e66565b6132ed85846133b7565b600160009054906101000a90046001600160a01b03166001600160a01b0316639262826d6040518163ffffffff1660e01b815260040160206040518083038186803b15801561333b57600080fd5b505afa15801561334f573d6000803e3d6000fd5b505050506040513d601f19601f820116820180604052508101906133739190613e49565b604051632c2d75e360e11b8152600481018790526024810186905260448101859052600060648201526001600160a01b03919091169063585aebc690608401610753565b60015460408051639262826d60e01b815290516000926001600160a01b031691639262826d916004808301926020929190829003018186803b1580156133fc57600080fd5b505afa158015613410573d6000803e3d6000fd5b505050506040513d601f19601f820116820180604052508101906134349190613e49565b6001600160a01b031663ad15aad2846040518263ffffffff1660e01b815260040161346191815260200190565b6103e06040518083038186803b15801561347a57600080fd5b505afa15801561348e573d6000803e3d6000fd5b505050506040513d601f19601f820116820180604052508101906134b29190614126565b80515190915061ffff16600314156137a757606081015160015460408051639262826d60e01b815290516000926001600160a01b031691639262826d916004808301926020929190829003018186803b15801561350e57600080fd5b505afa158015613522573d6000803e3d6000fd5b505050506040513d601f19601f820116820180604052508101906135469190613e49565b6001600160a01b0316637f1c7d61856040518263ffffffff1660e01b815260040161357391815260200190565b60006040518083038186803b15801561358b57600080fd5b505afa15801561359f573d6000803e3d6000fd5b505050506040513d6000823e601f3d908101601f191682016040526135c7919081019061464c565b80519091505b80156136e2576001600160a01b0383166328769ede836135ee6001856145dd565b815181106135fe576135fe6145f4565b6020026020010151606001516040518263ffffffff1660e01b8152600401613633919064ffffffffff91909116815260200190565b60206040518083038186803b15801561364b57600080fd5b505afa15801561365f573d6000803e3d6000fd5b505050506040513d601f19601f820116820180604052508101906136839190613de8565b156136d05760405162461bcd60e51b815260206004820152601a60248201527f424f444b2e5250433a2069732072656c6174656420706172747900000000000060448201526064016104cc565b806136da81614635565b9150506135cd565b60405163143b4f6f60e11b8152600481018690526001600160a01b038416906328769ede9060240160206040518083038186803b15801561372257600080fd5b505afa158015613736573d6000803e3d6000fd5b505050506040513d601f19601f8201168201806040525081019061375a9190613de8565b156108165760405162461bcd60e51b815260206004820152601a60248201527f424f444b2e5250433a2069732072656c6174656420706172747900000000000060448201526064016104cc565b505050565b60008054604051636ae3b70d60e11b81523360048201526001600160a01b039091169063d5c76e1a90602401602060405180830381600087803b1580156137f257600080fd5b505af11580156103fe573d6000803e3d6000fd5b6000546001600160a01b0316156138575760405162461bcd60e51b815260206004820152601560248201527430b63932b0b23c9039b2ba103932b3a1b2b73a32b960591b60448201526064016104cc565b600080546001600160a01b0319166001600160a01b0392909216919091179055565b6001546001600160a01b0316156138d25760405162461bcd60e51b815260206004820152601960248201527f616c7265616479207365742067656e6572616c4b65657065720000000000000060448201526064016104cc565b600180546001600160a01b0319166001600160a01b0392909216919091179055565b6000806000806080858703121561390a57600080fd5b5050823594602084013594506040840135936060013592509050565b6000806040838503121561393957600080fd5b50508035926020909101359150565b60006020828403121561395a57600080fd5b5035919050565b60008060006060848603121561397657600080fd5b505081359360208301359350604090920135919050565b634e487b7160e01b600052604160045260246000fd5b60405160e081016001600160401b03811182821017156139c5576139c561398d565b60405290565b6040516101e081016001600160401b03811182821017156139c5576139c561398d565b604051608081016001600160401b03811182821017156139c5576139c561398d565b60405161012081016001600160401b03811182821017156139c5576139c561398d565b604051601f8201601f191681016001600160401b0381118282101715613a5b57613a5b61398d565b604052919050565b60006001600160401b03821115613a7c57613a7c61398d565b5060051b60200190565b6001600160a01b0381168114613a9b57600080fd5b50565b600082601f830112613aaf57600080fd5b81356020613ac4613abf83613a63565b613a33565b82815260059290921b84018101918181019086841115613ae357600080fd5b8286015b84811015613afe5780358352918301918301613ae7565b509695505050505050565b6000601f8381840112613b1b57600080fd5b82356020613b2b613abf83613a63565b82815260059290921b85018101918181019087841115613b4a57600080fd5b8287015b84811015613be05780356001600160401b0380821115613b6e5760008081fd5b818a0191508a603f830112613b835760008081fd5b85820135604082821115613b9957613b9961398d565b613baa828b01601f19168901613a33565b92508183528c81838601011115613bc15760008081fd5b8181850189850137506000908201870152845250918301918301613b4e565b50979650505050505050565b600080600080600080600060e0888a031215613c0757600080fd5b873596506020808901356001600160401b0380821115613c2657600080fd5b818b0191508b601f830112613c3a57600080fd5b8135613c48613abf82613a63565b81815260059190911b8301840190848101908e831115613c6757600080fd5b938501935b82851015613c8e578435613c7f81613a86565b82529385019390850190613c6c565b9a50505060408b0135925080831115613ca657600080fd5b613cb28c848d01613a9e565b975060608b0135925080831115613cc857600080fd5b5050613cd68a828b01613b09565b979a969950949760808101359660a0820135965060c090910135945092505050565b600060208284031215613d0a57600080fd5b8135611b5b81613a86565b60008060008060808587031215613d2b57600080fd5b8435613d3681613a86565b966020860135965060408601359560600135945092505050565b60008060008060808587031215613d6657600080fd5b843593506020850135613d7881613a86565b92506040850135613d8881613a86565b91506060850135613d9881613a86565b939692955090935050565b805164ffffffffff81168114613db857600080fd5b919050565b600060208284031215613dcf57600080fd5b611b5b82613da3565b80518015158114613db857600080fd5b600060208284031215613dfa57600080fd5b611b5b82613dd8565b60208082526026908201527f41432e6f6e6c794469726563744b65657065723a206e6f74206469726563742060408201526535b2b2b832b960d11b606082015260800190565b600060208284031215613e5b57600080fd5b8151611b5b81613a86565b6020808252601590820152742127a2259722229d103737ba103234b932b1ba37b960591b604082015260600190565b805161ffff81168114613db857600080fd5b80516001600160401b0381168114613db857600080fd5b805165ffffffffffff81168114613db857600080fd5b805163ffffffff81168114613db857600080fd5b805160ff81168114613db857600080fd5b600060e08284031215613f0b57600080fd5b613f136139a3565b9050613f1e82613da3565b8152613f2c60208301613ebe565b6020820152613f3d60408301613ebe565b6040820152613f4e60608301613ebe565b6060820152613f5f60808301613ebe565b6080820152613f7060a08301613e95565b60a0820152613f8160c08301613ee8565b60c082015292915050565b600082601f830112613f9d57600080fd5b604051604081018181106001600160401b0382111715613fbf57613fbf61398d565b8060405250806040840185811115613fd657600080fd5b845b81811015613ff757613fe981613da3565b835260209283019201613fd8565b509195945050505050565b6000610200828403121561401557600080fd5b61401d6139cb565b905061402882613e95565b815261403660208301613ee8565b602082015261404760408301613ee8565b604082015261405860608301613e95565b606082015261406960808301613e95565b608082015261407a60a08301613e95565b60a082015261408b60c08301613dd8565b60c082015261409c60e08301613dd8565b60e08201526101006140af818401613dd8565b908201526101206140c1838201613dd8565b908201526101406140d3838201613e95565b908201526101606140e5838201613e95565b908201526101806140f7838201613e95565b908201526101a0614109838201613e95565b908201526101c061411c84848301613f8c565b9082015292915050565b60008183036103e081121561413a57600080fd5b6141426139ee565b60e082121561415057600080fd5b6141586139a3565b915061416384613e95565b825261417160208501613ea7565b602083015261418260408501613e95565b604083015261419360608501613da3565b60608301526141a460808501613da3565b60808301526141b560a08501613ebe565b60a08301526141c660c08501613ed4565b60c08301528181526141db8560e08601613ef9565b60208201526141ee856101c08601614002565b60408201526103c093909301516060840152509092915050565b600081518084526020808501945080840160005b838110156142385781518752958201959082019060010161421c565b509495945050505050565b600081518084526020808501808196508360051b810191508286016000805b868110156142c3578385038a5282518051808752835b81811015614293578281018901518882018a01528801614278565b818111156142a3578489838a0101525b509a87019a601f01601f1916959095018601945091850191600101614262565b509298975050505050505050565b600060e08201898352602060e081850152818a5180845261010086019150828c01935060005b8181101561431c5784516001600160a01b0316835293830193918301916001016142f7565b50508481036040860152614330818b614208565b9250505082810360608401526143468188614243565b6080840196909652505060a081019290925260c090910152949350505050565b6000610120828403121561437957600080fd5b614381613a10565b905061438c82613e95565b815261439a60208301613e95565b60208201526143ab60408301613da3565b60408201526143bc60608301613da3565b60608201526143cd60808301613ebe565b60808201526143de60a08301613ebe565b60a08201526143ef60c08301613e95565b60c082015261440060e08301613e95565b60e082015261010061411c818401613e95565b6000610120828403121561442657600080fd5b611b5b8383614366565b60006020828403121561444257600080fd5b611b5b82613ea7565b600082601f83011261445c57600080fd5b8151602061446c613abf83613a63565b82815260059290921b8401810191818101908684111561448b57600080fd5b8286015b84811015613afe578051835291830191830161448f565b6000602082840312156144b857600080fd5b81516001600160401b03808211156144cf57600080fd5b90830190606082860312156144e357600080fd5b6040516060810181811083821117156144fe576144fe61398d565b60405261450a83613ed4565b815261451860208401613ea7565b602082015260408301518281111561452f57600080fd5b61453b8782860161444b565b60408301525095945050505050565b60006020828403121561455c57600080fd5b5051919050565b634e487b7160e01b600052601160045260246000fd5b60006001600160401b038381169083168181101561459957614599614563565b039392505050565b6000602082840312156145b357600080fd5b81516001600160401b038111156145c957600080fd5b6145d58482850161444b565b949350505050565b6000828210156145ef576145ef614563565b500390565b634e487b7160e01b600052603260045260246000fd5b60006001600160401b0380831681851680830382111561462c5761462c614563565b01949350505050565b60008161464457614644614563565b506000190190565b6000602080838503121561465f57600080fd5b82516001600160401b0381111561467557600080fd5b8301601f8101851361468657600080fd5b8051614694613abf82613a63565b81815261012091820283018401918482019190888411156146b457600080fd5b938501935b83851015613be0576146cb8986614366565b835293840193918501916146b956fea2646970667358221220b4e8eb49df94b1bb3e2f474d219bdd1de495d28c318703974ebbbf733781b36364736f6c63430008080033",
    "sourcePath": "/Users/kaptain/github.com/hardhat/comboox/contracts/keepers/BODKeeper.sol",
    "compiler": {
        "name": "solc",
        "version": "0.8.8+commit.dddeac2f"
    },
    "functionHashes": {
        "abandonRole(bytes32)": "3da9a600",
        "castVote(uint256,uint256,bytes32,uint256)": "1119501e",
        "entrustDelegate(uint256,uint256,uint256)": "fe1bdff2",
        "execAction(uint256,address[],uint256[],bytes[],bytes32,uint256,uint256)": "5c2753bf",
        "finalized()": "b3f05b97",
        "getBookeeper()": "ed211023",
        "getGeneralCounsel()": "103f6edd",
        "getOwner()": "893d20e8",
        "grantRole(bytes32,uint256)": "1b6ea9f9",
        "hasRole(bytes32,uint256)": "7e063c5a",
        "init(uint256,address,address,address)": "dc890da9",
        "lockContents()": "f045a769",
        "nominateOfficer(uint256,uint256,uint256)": "6a0cb964",
        "proposeAction(uint256,address[],uint256[],bytes[],bytes32,uint256,uint256)": "bbfd607d",
        "proposeDoc(address,uint256,uint256,uint256)": "cd43b165",
        "proposeToRemoveOfficer(uint256,uint256)": "6765a9c2",
        "quitPosition(uint256,uint256)": "1ad1ea44",
        "removeOfficer(uint256,uint256,uint256,uint256)": "a8780799",
        "renounceRole(bytes32)": "8bb9c5bf",
        "revokeRole(bytes32,uint256)": "19d61ad9",
        "setDirectKeeper(address)": "6be8496f",
        "setGeneralCounsel(uint256)": "4a14beb1",
        "setOwner(uint256)": "8041494e",
        "setRoleAdmin(bytes32,uint256)": "5171ebd4",
        "takePosition(uint256,uint256,uint256)": "3e2032ab",
        "voteCounting(uint256,uint256)": "f894759e"
    },
    "gasEstimates": {
        "creation": {
            "codeDepositCost": "3638400",
            "executionCost": "4097",
            "totalCost": "3642497"
        },
        "external": {
            "abandonRole(bytes32)": "infinite",
            "castVote(uint256,uint256,bytes32,uint256)": "infinite",
            "entrustDelegate(uint256,uint256,uint256)": "infinite",
            "execAction(uint256,address[],uint256[],bytes[],bytes32,uint256,uint256)": "infinite",
            "finalized()": "2460",
            "getBookeeper()": "infinite",
            "getGeneralCounsel()": "infinite",
            "getOwner()": "infinite",
            "grantRole(bytes32,uint256)": "infinite",
            "hasRole(bytes32,uint256)": "infinite",
            "init(uint256,address,address,address)": "infinite",
            "lockContents()": "infinite",
            "nominateOfficer(uint256,uint256,uint256)": "infinite",
            "proposeAction(uint256,address[],uint256[],bytes[],bytes32,uint256,uint256)": "infinite",
            "proposeDoc(address,uint256,uint256,uint256)": "infinite",
            "proposeToRemoveOfficer(uint256,uint256)": "infinite",
            "quitPosition(uint256,uint256)": "infinite",
            "removeOfficer(uint256,uint256,uint256,uint256)": "infinite",
            "renounceRole(bytes32)": "infinite",
            "revokeRole(bytes32,uint256)": "infinite",
            "setDirectKeeper(address)": "infinite",
            "setGeneralCounsel(uint256)": "infinite",
            "setOwner(uint256)": "infinite",
            "setRoleAdmin(bytes32,uint256)": "infinite",
            "takePosition(uint256,uint256,uint256)": "infinite",
            "voteCounting(uint256,uint256)": "infinite"
        },
        "internal": {
            "_avoidanceCheck(uint256,uint256)": "infinite"
        }
    }
}