{
    "contractName": "BODKeeper",
    "abi": [
        {
            "anonymous": false,
            "inputs": [
                {
                    "indexed": false,
                    "internalType": "uint256",
                    "name": "owner",
                    "type": "uint256"
                },
                {
                    "indexed": false,
                    "internalType": "address",
                    "name": "directKeeper",
                    "type": "address"
                },
                {
                    "indexed": false,
                    "internalType": "address",
                    "name": "regCenter",
                    "type": "address"
                },
                {
                    "indexed": false,
                    "internalType": "address",
                    "name": "generalKeeper",
                    "type": "address"
                }
            ],
            "name": "Init",
            "type": "event"
        },
        {
            "anonymous": false,
            "inputs": [],
            "name": "LockContents",
            "type": "event"
        },
        {
            "anonymous": false,
            "inputs": [
                {
                    "indexed": false,
                    "internalType": "uint256",
                    "name": "title",
                    "type": "uint256"
                },
                {
                    "indexed": false,
                    "internalType": "address",
                    "name": "book",
                    "type": "address"
                }
            ],
            "name": "SetBookRuting",
            "type": "event"
        },
        {
            "anonymous": false,
            "inputs": [
                {
                    "indexed": false,
                    "internalType": "address",
                    "name": "keeper",
                    "type": "address"
                }
            ],
            "name": "SetDirectKeeper",
            "type": "event"
        },
        {
            "anonymous": false,
            "inputs": [
                {
                    "indexed": false,
                    "internalType": "uint256",
                    "name": "acct",
                    "type": "uint256"
                }
            ],
            "name": "SetGeneralCounsel",
            "type": "event"
        },
        {
            "anonymous": false,
            "inputs": [
                {
                    "indexed": false,
                    "internalType": "address",
                    "name": "gk",
                    "type": "address"
                }
            ],
            "name": "SetGeneralKeeper",
            "type": "event"
        },
        {
            "anonymous": false,
            "inputs": [
                {
                    "indexed": false,
                    "internalType": "uint256",
                    "name": "acct",
                    "type": "uint256"
                }
            ],
            "name": "SetOwner",
            "type": "event"
        },
        {
            "anonymous": false,
            "inputs": [
                {
                    "indexed": false,
                    "internalType": "address",
                    "name": "rc",
                    "type": "address"
                }
            ],
            "name": "SetRegCenter",
            "type": "event"
        },
        {
            "inputs": [
                {
                    "internalType": "bytes32",
                    "name": "role",
                    "type": "bytes32"
                }
            ],
            "name": "abandonRole",
            "outputs": [],
            "stateMutability": "nonpayable",
            "type": "function"
        },
        {
            "inputs": [
                {
                    "internalType": "uint256",
                    "name": "seqOfBSR",
                    "type": "uint256"
                },
                {
                    "internalType": "uint256",
                    "name": "seqOfTitle",
                    "type": "uint256"
                },
                {
                    "internalType": "uint256",
                    "name": "nominator",
                    "type": "uint256"
                },
                {
                    "internalType": "uint256",
                    "name": "candidate",
                    "type": "uint256"
                }
            ],
            "name": "appointOfficer",
            "outputs": [],
            "stateMutability": "nonpayable",
            "type": "function"
        },
        {
            "inputs": [
                {
                    "internalType": "uint256",
                    "name": "actionId",
                    "type": "uint256"
                },
                {
                    "internalType": "uint8",
                    "name": "attitude",
                    "type": "uint8"
                },
                {
                    "internalType": "bytes32",
                    "name": "sigHash",
                    "type": "bytes32"
                },
                {
                    "internalType": "uint256",
                    "name": "caller",
                    "type": "uint256"
                }
            ],
            "name": "castVote",
            "outputs": [],
            "stateMutability": "nonpayable",
            "type": "function"
        },
        {
            "inputs": [
                {
                    "internalType": "uint256",
                    "name": "caller",
                    "type": "uint256"
                },
                {
                    "internalType": "uint256",
                    "name": "delegate",
                    "type": "uint256"
                },
                {
                    "internalType": "uint256",
                    "name": "motionId",
                    "type": "uint256"
                }
            ],
            "name": "entrustDelegate",
            "outputs": [],
            "stateMutability": "nonpayable",
            "type": "function"
        },
        {
            "inputs": [
                {
                    "internalType": "uint8",
                    "name": "typeOfAction",
                    "type": "uint8"
                },
                {
                    "internalType": "address[]",
                    "name": "targets",
                    "type": "address[]"
                },
                {
                    "internalType": "uint256[]",
                    "name": "values",
                    "type": "uint256[]"
                },
                {
                    "internalType": "bytes[]",
                    "name": "params",
                    "type": "bytes[]"
                },
                {
                    "internalType": "bytes32",
                    "name": "desHash",
                    "type": "bytes32"
                },
                {
                    "internalType": "uint256",
                    "name": "caller",
                    "type": "uint256"
                }
            ],
            "name": "execAction",
            "outputs": [
                {
                    "internalType": "uint256",
                    "name": "",
                    "type": "uint256"
                }
            ],
            "stateMutability": "nonpayable",
            "type": "function"
        },
        {
            "inputs": [],
            "name": "finalized",
            "outputs": [
                {
                    "internalType": "bool",
                    "name": "",
                    "type": "bool"
                }
            ],
            "stateMutability": "view",
            "type": "function"
        },
        {
            "inputs": [],
            "name": "getBookeeper",
            "outputs": [
                {
                    "internalType": "address",
                    "name": "",
                    "type": "address"
                }
            ],
            "stateMutability": "view",
            "type": "function"
        },
        {
            "inputs": [],
            "name": "getGeneralCounsel",
            "outputs": [
                {
                    "internalType": "uint40",
                    "name": "",
                    "type": "uint40"
                }
            ],
            "stateMutability": "view",
            "type": "function"
        },
        {
            "inputs": [],
            "name": "getOwner",
            "outputs": [
                {
                    "internalType": "uint40",
                    "name": "",
                    "type": "uint40"
                }
            ],
            "stateMutability": "view",
            "type": "function"
        },
        {
            "inputs": [
                {
                    "internalType": "bytes32",
                    "name": "role",
                    "type": "bytes32"
                },
                {
                    "internalType": "uint256",
                    "name": "acct",
                    "type": "uint256"
                }
            ],
            "name": "grantRole",
            "outputs": [],
            "stateMutability": "nonpayable",
            "type": "function"
        },
        {
            "inputs": [
                {
                    "internalType": "bytes32",
                    "name": "role",
                    "type": "bytes32"
                },
                {
                    "internalType": "uint256",
                    "name": "acct",
                    "type": "uint256"
                }
            ],
            "name": "hasRole",
            "outputs": [
                {
                    "internalType": "bool",
                    "name": "",
                    "type": "bool"
                }
            ],
            "stateMutability": "view",
            "type": "function"
        },
        {
            "inputs": [
                {
                    "internalType": "uint256",
                    "name": "owner",
                    "type": "uint256"
                },
                {
                    "internalType": "address",
                    "name": "directKeeper",
                    "type": "address"
                },
                {
                    "internalType": "address",
                    "name": "regCenter",
                    "type": "address"
                },
                {
                    "internalType": "address",
                    "name": "generalKeeper",
                    "type": "address"
                }
            ],
            "name": "init",
            "outputs": [],
            "stateMutability": "nonpayable",
            "type": "function"
        },
        {
            "inputs": [],
            "name": "initBOD",
            "outputs": [],
            "stateMutability": "nonpayable",
            "type": "function"
        },
        {
            "inputs": [],
            "name": "initBOG",
            "outputs": [],
            "stateMutability": "nonpayable",
            "type": "function"
        },
        {
            "inputs": [],
            "name": "initBOH",
            "outputs": [],
            "stateMutability": "nonpayable",
            "type": "function"
        },
        {
            "inputs": [],
            "name": "lockContents",
            "outputs": [],
            "stateMutability": "nonpayable",
            "type": "function"
        },
        {
            "inputs": [
                {
                    "internalType": "uint8",
                    "name": "typeOfAction",
                    "type": "uint8"
                },
                {
                    "internalType": "address[]",
                    "name": "targets",
                    "type": "address[]"
                },
                {
                    "internalType": "uint256[]",
                    "name": "values",
                    "type": "uint256[]"
                },
                {
                    "internalType": "bytes[]",
                    "name": "params",
                    "type": "bytes[]"
                },
                {
                    "internalType": "bytes32",
                    "name": "desHash",
                    "type": "bytes32"
                },
                {
                    "internalType": "uint40",
                    "name": "submitter",
                    "type": "uint40"
                },
                {
                    "internalType": "uint40",
                    "name": "executor",
                    "type": "uint40"
                }
            ],
            "name": "proposeAction",
            "outputs": [],
            "stateMutability": "nonpayable",
            "type": "function"
        },
        {
            "inputs": [
                {
                    "internalType": "uint256",
                    "name": "director",
                    "type": "uint256"
                }
            ],
            "name": "quitPosition",
            "outputs": [],
            "stateMutability": "nonpayable",
            "type": "function"
        },
        {
            "inputs": [
                {
                    "internalType": "uint256",
                    "name": "director",
                    "type": "uint256"
                },
                {
                    "internalType": "uint256",
                    "name": "appointer",
                    "type": "uint256"
                }
            ],
            "name": "removeDirector",
            "outputs": [],
            "stateMutability": "nonpayable",
            "type": "function"
        },
        {
            "inputs": [
                {
                    "internalType": "bytes32",
                    "name": "role",
                    "type": "bytes32"
                }
            ],
            "name": "renounceRole",
            "outputs": [],
            "stateMutability": "nonpayable",
            "type": "function"
        },
        {
            "inputs": [
                {
                    "internalType": "bytes32",
                    "name": "role",
                    "type": "bytes32"
                },
                {
                    "internalType": "uint256",
                    "name": "acct",
                    "type": "uint256"
                }
            ],
            "name": "revokeRole",
            "outputs": [],
            "stateMutability": "nonpayable",
            "type": "function"
        },
        {
            "inputs": [
                {
                    "internalType": "address",
                    "name": "keeper",
                    "type": "address"
                }
            ],
            "name": "setDirectKeeper",
            "outputs": [],
            "stateMutability": "nonpayable",
            "type": "function"
        },
        {
            "inputs": [
                {
                    "internalType": "uint256",
                    "name": "acct",
                    "type": "uint256"
                }
            ],
            "name": "setGeneralCounsel",
            "outputs": [],
            "stateMutability": "nonpayable",
            "type": "function"
        },
        {
            "inputs": [
                {
                    "internalType": "uint256",
                    "name": "acct",
                    "type": "uint256"
                }
            ],
            "name": "setOwner",
            "outputs": [],
            "stateMutability": "nonpayable",
            "type": "function"
        },
        {
            "inputs": [
                {
                    "internalType": "bytes32",
                    "name": "role",
                    "type": "bytes32"
                },
                {
                    "internalType": "uint256",
                    "name": "acct",
                    "type": "uint256"
                }
            ],
            "name": "setRoleAdmin",
            "outputs": [],
            "stateMutability": "nonpayable",
            "type": "function"
        },
        {
            "inputs": [
                {
                    "internalType": "uint256",
                    "name": "seqOfBSR",
                    "type": "uint256"
                },
                {
                    "internalType": "uint256",
                    "name": "seqOfTitle",
                    "type": "uint256"
                },
                {
                    "internalType": "uint256",
                    "name": "motionId",
                    "type": "uint256"
                },
                {
                    "internalType": "uint256",
                    "name": "candidate",
                    "type": "uint256"
                }
            ],
            "name": "takePosition",
            "outputs": [],
            "stateMutability": "nonpayable",
            "type": "function"
        },
        {
            "inputs": [
                {
                    "internalType": "uint256",
                    "name": "motionId",
                    "type": "uint256"
                },
                {
                    "internalType": "uint256",
                    "name": "caller",
                    "type": "uint256"
                }
            ],
            "name": "voteCounting",
            "outputs": [],
            "stateMutability": "nonpayable",
            "type": "function"
        }
    ],
    "bytecode": "608060405234801561001057600080fd5b506139ae806100206000396000f3fe608060405234801561001057600080fd5b50600436106101a95760003560e01c80637e063c5a116100f9578063dc890da911610097578063f045a76911610071578063f045a76914610376578063f894759e1461037e578063f8be81ac14610391578063fe1bdff2146103a457600080fd5b8063dc890da914610330578063e31f2d2c14610343578063ed2110231461035657600080fd5b80638bb9c5bf116100d35780638bb9c5bf146102d457806392c2c3d3146102e7578063a19012b9146102fa578063b3f05b971461031b57600080fd5b80637e063c5a146102965780638041494e146102b9578063893d20e8146102cc57600080fd5b80633da9a600116101665780635171ebd4116101405780635171ebd4146102605780635ff3fd0f14610273578063682588581461027b5780636be8496f1461028357600080fd5b80633da9a600146102275780633ea65d6f1461023a5780634a14beb11461024d57600080fd5b80630bdda2ed146101ae578063103f6edd146101c357806319d61ad9146101e65780631b6ea9f9146101f95780631fa1fdc51461020c57806325cbca631461021f575b600080fd5b6101c16101bc366004612c53565b6103b7565b005b6101cb6106f3565b60405164ffffffffff90911681526020015b60405180910390f35b6101c16101f4366004612c85565b61077f565b6101c1610207366004612c85565b610813565b6101c161021a366004612cb9565b610838565b6101c16109f2565b6101c1610235366004612cf6565b610acb565b6101c1610248366004612c53565b610bdd565b6101c161025b366004612cf6565b6112f0565b6101c161026e366004612c85565b6114e0565b6101c1611505565b6101c16115d8565b6101c1610291366004612d24565b6116ab565b6102a96102a4366004612c85565b61175d565b60405190151581526020016101dd565b6101c16102c7366004612cf6565b6117f8565b6101cb6119dd565b6101c16102e2366004612cf6565b611a18565b6101c16102f5366004612cf6565b611a71565b61030d610308366004612fac565b611c52565b6040519081526020016101dd565b600554600160f01b900460ff166002146102a9565b6101c161033e366004613059565b611e47565b6101c16103513660046130cf565b611f2a565b61035e6120e6565b6040516001600160a01b0390911681526020016101dd565b6101c161216c565b6101c161038c366004612c85565b61238a565b6101c161039f366004612c85565b61254b565b6101c16103b2366004613197565b61281b565b604051633b11adbf60e21b81526005600482015233602482015273__$364aad554dc80380f414546becdd2c1584$__9063ec46b6fc9060440160206040518083038186803b15801561040857600080fd5b505af415801561041c573d6000803e3d6000fd5b505050506040513d601f19601f8201168201806040525081019061044091906131d3565b6104655760405162461bcd60e51b815260040161045c906131ee565b60405180910390fd5b600061046f612a2f565b6001600160a01b03166348462037866040518263ffffffff1660e01b815260040161049c91815260200190565b60206040518083038186803b1580156104b457600080fd5b505afa1580156104c8573d6000803e3d6000fd5b505050506040513d601f19601f820116820180604052508101906104ec9190613234565b60405163e710e14160e01b8152600481019190915273__$9d2c69e94fee47b9774dc8db4aa5c0bbec$__9063e710e141906024016102606040518083038186803b15801561053957600080fd5b505af415801561054d573d6000803e3d6000fd5b505050506040513d601f19601f82011682018060405250810190610571919061330f565b905082816060015164ffffffffff16146105d85760405162461bcd60e51b815260206004820152602260248201527f424f474b2e414f3a206e6f6d696e61746f72206e6f74207269676874686f6c6460448201526132b960f11b606482015260840161045c565b60008160c0015185600781106105f0576105f06133c9565b602002015161ffff169050600a8111801561060b5750601581105b6106575760405162461bcd60e51b815260206004820152601f60248201527f424f474b2e414f3a206e6f7420426f61726420766f74696e6720697373756500604482015260640161045c565b60008260a00151866007811061066f5761066f6133c9565b602002015160025460405163db8b9a8360e01b81526004810185905260ff8316602482015260448101889052606481018790529192506001600160a01b03169063db8b9a8390608401600060405180830381600087803b1580156106d257600080fd5b505af11580156106e6573d6000803e3d6000fd5b5050505050505050505050565b60405163e8c0cc1d60e01b81526005600482015260009073__$364aad554dc80380f414546becdd2c1584$__9063e8c0cc1d906024015b60206040518083038186803b15801561074257600080fd5b505af4158015610756573d6000803e3d6000fd5b505050506040513d601f19601f8201168201806040525081019061077a91906133df565b905090565b73__$364aad554dc80380f414546becdd2c1584$__6382daafaa6005846107a4612a93565b6040516001600160e01b031960e086901b1681526004810193909352602483019190915264ffffffffff166044820152606481018490526084015b60006040518083038186803b1580156107f757600080fd5b505af415801561080b573d6000803e3d6000fd5b505050505050565b73__$364aad554dc80380f414546becdd2c1584$__636320d75e6005846107a4612a93565b604051633b11adbf60e21b81526005600482015233602482015273__$364aad554dc80380f414546becdd2c1584$__9063ec46b6fc9060440160206040518083038186803b15801561088957600080fd5b505af415801561089d573d6000803e3d6000fd5b505050506040513d601f19601f820116820180604052508101906108c191906131d3565b6108dd5760405162461bcd60e51b815260040161045c906131ee565b60025460405163492c77ff60e11b81526004810183905282916001600160a01b031690639258effe9060240160206040518083038186803b15801561092157600080fd5b505afa158015610935573d6000803e3d6000fd5b505050506040513d601f19601f8201168201806040525081019061095991906131d3565b6109755760405162461bcd60e51b815260040161045c906133fc565b600254604051632de3207560e01b8152600481018790526024810184905260ff86166044820152606481018590526001600160a01b0390911690632de32075906084015b600060405180830381600087803b1580156109d357600080fd5b505af11580156109e7573d6000803e3d6000fd5b505050505050505050565b60015460405163e0ff5b8b60e01b8152600360048201526001600160a01b039091169063e0ff5b8b9060240160206040518083038186803b158015610a3657600080fd5b505afa158015610a4a573d6000803e3d6000fd5b505050506040513d601f19601f82011682018060405250810190610a6e9190613428565b600480546001600160a01b0319166001600160a01b03929092169182179055604080516003815260208101929092527f6aa5e483fe137161b095cd68564a336d1657057f57987b1ae21019134dbc8da291015b60405180910390a1565b604051633b11adbf60e21b81526005600482015233602482015273__$364aad554dc80380f414546becdd2c1584$__9063ec46b6fc9060440160206040518083038186803b158015610b1c57600080fd5b505af4158015610b30573d6000803e3d6000fd5b505050506040513d601f19601f82011682018060405250810190610b5491906131d3565b610b705760405162461bcd60e51b815260040161045c906131ee565b60405163cc99e11b60e01b8152600560048201526024810182905273__$364aad554dc80380f414546becdd2c1584$__9063cc99e11b9060440160006040518083038186803b158015610bc257600080fd5b505af4158015610bd6573d6000803e3d6000fd5b5050505050565b604051633b11adbf60e21b81526005600482015233602482015273__$364aad554dc80380f414546becdd2c1584$__9063ec46b6fc9060440160206040518083038186803b158015610c2e57600080fd5b505af4158015610c42573d6000803e3d6000fd5b505050506040513d601f19601f82011682018060405250810190610c6691906131d3565b610c825760405162461bcd60e51b815260040161045c906131ee565b6000610c8c612a2f565b6001600160a01b03166348462037866040518263ffffffff1660e01b8152600401610cb991815260200190565b60206040518083038186803b158015610cd157600080fd5b505afa158015610ce5573d6000803e3d6000fd5b505050506040513d601f19601f82011682018060405250810190610d099190613234565b60405163e710e14160e01b8152600481019190915273__$9d2c69e94fee47b9774dc8db4aa5c0bbec$__9063e710e141906024016102606040518083038186803b158015610d5657600080fd5b505af4158015610d6a573d6000803e3d6000fd5b505050506040513d601f19601f82011682018060405250810190610d8e919061330f565b905060008160c001518560078110610da857610da86133c9565b602002015161ffff1690506000610dbd612a2f565b6001600160a01b03166348462037836040518263ffffffff1660e01b8152600401610dea91815260200190565b60206040518083038186803b158015610e0257600080fd5b505afa158015610e16573d6000803e3d6000fd5b505050506040513d601f19601f82011682018060405250810190610e3a9190613234565b60405163d1296c8f60e01b8152600481019190915273__$9d2c69e94fee47b9774dc8db4aa5c0bbec$__9063d1296c8f906024016102206040518083038186803b158015610e8757600080fd5b505af4158015610e9b573d6000803e3d6000fd5b505050506040513d601f19601f82011682018060405250810190610ebf91906134bc565b905060008360a001518760078110610ed957610ed96133c9565b60200201519050600060028360600151610ef391906135df565b60ff16600114610f7e576002546040516364525a0d60e01b8152600481018990526001600160a01b03909116906364525a0d9060240160c06040518083038186803b158015610f4157600080fd5b505afa158015610f55573d6000803e3d6000fd5b505050506040513d601f19601f82011682018060405250810190610f799190613625565b610ffa565b6003546040516364525a0d60e01b8152600481018990526001600160a01b03909116906364525a0d9060240160c06040518083038186803b158015610fc257600080fd5b505afa158015610fd6573d6000803e3d6000fd5b505050506040513d601f19601f82011682018060405250810190610ffa9190613625565b602080820151606080840151604080519485018a905260ff88169085015264ffffffffff909216908301526080820189905265ffffffffffff1660a082015290915060c0016040516020818303038152906040528051906020012060001c87146110a65760405162461bcd60e51b815260206004820152601b60248201527f424f444b2e54503a20696e636f7272656374206d6f74696f6e49640000000000604482015260640161045c565b805160ff166002146111205760405162461bcd60e51b815260206004820152603960248201527f424f444b2e54503a2063616e646964617465206e6f7420626520617070726f7660448201527f6564206f7220616c726561647920696e20706f736974696f6e00000000000000606482015260840161045c565b85816040015164ffffffffff16146111865760405162461bcd60e51b8152602060048201526024808201527f424f444b2e54503a2063616c6c6572206973206e6f74207468652063616e64696044820152636461746560e01b606482015260840161045c565b6002836060015161119791906135df565b60ff16600114156112055760035460405163f117bdb760e01b8152600481018990526001600160a01b039091169063f117bdb790602401600060405180830381600087803b1580156111e857600080fd5b505af11580156111fc573d6000803e3d6000fd5b50505050611264565b60025460405163f117bdb760e01b8152600481018990526001600160a01b039091169063f117bdb790602401600060405180830381600087803b15801561124b57600080fd5b505af115801561125f573d6000803e3d6000fd5b505050505b6002546020820151604051632bf499d960e21b8152600481018c905260ff851660248201526044810189905264ffffffffff90911660648201526001600160a01b039091169063afd2676490608401600060405180830381600087803b1580156112cd57600080fd5b505af11580156112e1573d6000803e3d6000fd5b50505050505050505050505050565b604051633b11adbf60e21b81526005600482015233602482015273__$364aad554dc80380f414546becdd2c1584$__9063ec46b6fc9060440160206040518083038186803b15801561134157600080fd5b505af4158015611355573d6000803e3d6000fd5b505050506040513d601f19601f8201168201806040525081019061137991906131d3565b8061141e575073__$364aad554dc80380f414546becdd2c1584$__63fe27108660056113a3612a93565b6040516001600160e01b031960e085901b168152600481019290925264ffffffffff16602482015260440160206040518083038186803b1580156113e657600080fd5b505af41580156113fa573d6000803e3d6000fd5b505050506040513d601f19601f8201168201806040525081019061141e91906131d3565b61143a5760405162461bcd60e51b815260040161045c906136ca565b604051632725ebef60e21b8152600560048201526024810182905273__$364aad554dc80380f414546becdd2c1584$__90639c97afbc9060440160006040518083038186803b15801561148c57600080fd5b505af41580156114a0573d6000803e3d6000fd5b505050507ff2735f34b69be1e6342dea95f9162f84d0db925fab655ca9f1f312ac8cbfc99d816040516114d591815260200190565b60405180910390a150565b73__$364aad554dc80380f414546becdd2c1584$__63ee98b3136005846107a4612a93565b6001805460405163e0ff5b8b60e01b815260048101929092526001600160a01b03169063e0ff5b8b9060240160206040518083038186803b15801561154957600080fd5b505afa15801561155d573d6000803e3d6000fd5b505050506040513d601f19601f820116820180604052508101906115819190613428565b600280546001600160a01b0319166001600160a01b03929092169182179055604080516001815260208101929092527f6aa5e483fe137161b095cd68564a336d1657057f57987b1ae21019134dbc8da29101610ac1565b60015460405163e0ff5b8b60e01b8152600260048201526001600160a01b039091169063e0ff5b8b9060240160206040518083038186803b15801561161c57600080fd5b505afa158015611630573d6000803e3d6000fd5b505050506040513d601f19601f820116820180604052508101906116549190613428565b600380546001600160a01b0319166001600160a01b03929092169182179055604080516002815260208101929092527f6aa5e483fe137161b095cd68564a336d1657057f57987b1ae21019134dbc8da29101610ac1565b604051630f07232560e01b8152600560048201523360248201526001600160a01b038216604482015273__$364aad554dc80380f414546becdd2c1584$__90630f0723259060640160006040518083038186803b15801561170b57600080fd5b505af415801561171f573d6000803e3d6000fd5b50506040516001600160a01b03841681527fe435cbeab64e4eae6497b9d8289704bd709d624a80704ef3ca9af777534bc6ec925060200190506114d5565b604051632a3be56b60e21b815260056004820152602481018390526044810182905260009073__$364aad554dc80380f414546becdd2c1584$__9063a8ef95ac9060640160206040518083038186803b1580156117b957600080fd5b505af41580156117cd573d6000803e3d6000fd5b505050506040513d601f19601f820116820180604052508101906117f191906131d3565b9392505050565b604051633b11adbf60e21b81526005600482015233602482015273__$364aad554dc80380f414546becdd2c1584$__9063ec46b6fc9060440160206040518083038186803b15801561184957600080fd5b505af415801561185d573d6000803e3d6000fd5b505050506040513d601f19601f8201168201806040525081019061188191906131d3565b80611926575073__$364aad554dc80380f414546becdd2c1584$__63fe27108660056118ab612a93565b6040516001600160e01b031960e085901b168152600481019290925264ffffffffff16602482015260440160206040518083038186803b1580156118ee57600080fd5b505af4158015611902573d6000803e3d6000fd5b505050506040513d601f19601f8201168201806040525081019061192691906131d3565b6119425760405162461bcd60e51b815260040161045c906136ca565b60405163b6e38a2960e01b8152600560048201526024810182905273__$364aad554dc80380f414546becdd2c1584$__9063b6e38a299060440160006040518083038186803b15801561199457600080fd5b505af41580156119a8573d6000803e3d6000fd5b505050507f8b6f40f36b4ae8cc5f55e895036457c43da4ab1f80f58c46f5ff0d72a650033b816040516114d591815260200190565b60405163987ad15360e01b81526005600482015260009073__$364aad554dc80380f414546becdd2c1584$__9063987ad1539060240161072a565b6000611a22612a93565b60405163cc0d511b60e01b8152600560048201526024810184905264ffffffffff8216604482015290915073__$364aad554dc80380f414546becdd2c1584$__9063cc0d511b906064016107df565b604051633b11adbf60e21b81526005600482015233602482015273__$364aad554dc80380f414546becdd2c1584$__9063ec46b6fc9060440160206040518083038186803b158015611ac257600080fd5b505af4158015611ad6573d6000803e3d6000fd5b505050506040513d601f19601f82011682018060405250810190611afa91906131d3565b611b165760405162461bcd60e51b815260040161045c906131ee565b60025460405163492c77ff60e11b8152600481018390526001600160a01b0390911690639258effe9060240160206040518083038186803b158015611b5a57600080fd5b505afa158015611b6e573d6000803e3d6000fd5b505050506040513d601f19601f82011682018060405250810190611b9291906131d3565b611bf85760405162461bcd60e51b815260206004820152603160248201527f424f444b65657065722e71756974506f736974696f6e3a206170706f696e7465604482015270391034b9903737ba10309036b2b6b132b960791b606482015260840161045c565b60025460405163160392d760e01b8152600481018390526001600160a01b039091169063160392d790602401600060405180830381600087803b158015611c3e57600080fd5b505af1158015610bd6573d6000803e3d6000fd5b60025460405163492c77ff60e11b81526004810183905260009183916001600160a01b0390911690639258effe9060240160206040518083038186803b158015611c9b57600080fd5b505afa158015611caf573d6000803e3d6000fd5b505050506040513d601f19601f82011682018060405250810190611cd391906131d3565b611cef5760405162461bcd60e51b815260040161045c906133fc565b6000546040516304e4a58160e31b8152600481018590526001600160a01b03909116906327252c089060240160206040518083038186803b158015611d3357600080fd5b505afa158015611d47573d6000803e3d6000fd5b505050506040513d601f19601f82011682018060405250810190611d6b91906131d3565b15611daf5760405162461bcd60e51b815260206004820152601460248201527363616c6c6572206973206e6f7420616e20454f4160601b604482015260640161045c565b6002546040516304814c8760e31b81526001600160a01b039091169063240a643890611de9908b908b908b908b908a908c90600401613822565b602060405180830381600087803b158015611e0357600080fd5b505af1158015611e17573d6000803e3d6000fd5b505050506040513d601f19601f82011682018060405250810190611e3b9190613234565b98975050505050505050565b611e5082612aed565b611e5981612b9c565b604051636cdd0edf60e11b815260056004820152602481018590526001600160a01b038416604482015273__$364aad554dc80380f414546becdd2c1584$__9063d9ba1dbe9060640160006040518083038186803b158015611eba57600080fd5b505af4158015611ece573d6000803e3d6000fd5b5050604080518781526001600160a01b038781166020830152868116828401528516606082015290517f3abb2418c66fe32ba9c883030a75ce583971d9af9192b9b74e44e67c5e6c8c1f9350908190036080019150a150505050565b604051633b11adbf60e21b81526005600482015233602482015273__$364aad554dc80380f414546becdd2c1584$__9063ec46b6fc9060440160206040518083038186803b158015611f7b57600080fd5b505af4158015611f8f573d6000803e3d6000fd5b505050506040513d601f19601f82011682018060405250810190611fb391906131d3565b611fcf5760405162461bcd60e51b815260040161045c906131ee565b60025460405163492c77ff60e11b815264ffffffffff841660048201819052916001600160a01b031690639258effe9060240160206040518083038186803b15801561201a57600080fd5b505afa15801561202e573d6000803e3d6000fd5b505050506040513d601f19601f8201168201806040525081019061205291906131d3565b61206e5760405162461bcd60e51b815260040161045c906133fc565b60025460405163371eda0f60e01b81526001600160a01b039091169063371eda0f906120aa908b908b908b908b908b908b908b9060040161387a565b600060405180830381600087803b1580156120c457600080fd5b505af11580156120d8573d6000803e3d6000fd5b505050505050505050505050565b604051633c3e56c160e11b81526005600482015260009073__$364aad554dc80380f414546becdd2c1584$__9063787cad829060240160206040518083038186803b15801561213457600080fd5b505af4158015612148573d6000803e3d6000fd5b505050506040513d601f19601f8201168201806040525081019061077a9190613428565b604051633b11adbf60e21b81526005600482015233602482015273__$364aad554dc80380f414546becdd2c1584$__9063ec46b6fc9060440160206040518083038186803b1580156121bd57600080fd5b505af41580156121d1573d6000803e3d6000fd5b505050506040513d601f19601f820116820180604052508101906121f591906131d3565b6122115760405162461bcd60e51b815260040161045c906131ee565b600554600160f01b900460ff1660011461226d5760405162461bcd60e51b815260206004820181905260248201527f41432e6f6e6c7950656e64696e673a20446f632069732066696e616c697a6564604482015260640161045c565b60405163cc99e11b60e01b815260056004820152684174746f726e65797360b81b602482015273__$364aad554dc80380f414546becdd2c1584$__9063cc99e11b9060440160006040518083038186803b1580156122ca57600080fd5b505af41580156122de573d6000803e3d6000fd5b5050604051632725ebef60e21b8152600560048201526000602482015273__$364aad554dc80380f414546becdd2c1584$__9250639c97afbc915060440160006040518083038186803b15801561233457600080fd5b505af4158015612348573d6000803e3d6000fd5b50506005805460ff60f01b1916600160f11b17905550506040517f35012b512309c322acf68632cd6cb702ff0e1d776fbe9394e38ffc13b434fe7590600090a1565b604051633b11adbf60e21b81526005600482015233602482015273__$364aad554dc80380f414546becdd2c1584$__9063ec46b6fc9060440160206040518083038186803b1580156123db57600080fd5b505af41580156123ef573d6000803e3d6000fd5b505050506040513d601f19601f8201168201806040525081019061241391906131d3565b61242f5760405162461bcd60e51b815260040161045c906131ee565b60025460405163492c77ff60e11b81526004810183905282916001600160a01b031690639258effe9060240160206040518083038186803b15801561247357600080fd5b505afa158015612487573d6000803e3d6000fd5b505050506040513d601f19601f820116820180604052508101906124ab91906131d3565b6124c75760405162461bcd60e51b815260040161045c906133fc565b60025460405163f8fb9e1d60e01b8152600481018590526001600160a01b039091169063f8fb9e1d90602401602060405180830381600087803b15801561250d57600080fd5b505af1158015612521573d6000803e3d6000fd5b505050506040513d601f19601f8201168201806040525081019061254591906131d3565b50505050565b604051633b11adbf60e21b81526005600482015233602482015273__$364aad554dc80380f414546becdd2c1584$__9063ec46b6fc9060440160206040518083038186803b15801561259c57600080fd5b505af41580156125b0573d6000803e3d6000fd5b505050506040513d601f19601f820116820180604052508101906125d491906131d3565b6125f05760405162461bcd60e51b815260040161045c906131ee565b60025460405163492c77ff60e11b8152600481018490526001600160a01b0390911690639258effe9060240160206040518083038186803b15801561263457600080fd5b505afa158015612648573d6000803e3d6000fd5b505050506040513d601f19601f8201168201806040525081019061266c91906131d3565b6126d45760405162461bcd60e51b815260206004820152603360248201527f424f444b65657065722e72656d6f76654469726563746f723a206170706f696e6044820152723a32b91034b9903737ba10309036b2b6b132b960691b606482015260840161045c565b60025460405163e0231b8160e01b81526004810184905282916001600160a01b03169063e0231b819060240160a06040518083038186803b15801561271857600080fd5b505afa15801561272c573d6000803e3d6000fd5b505050506040513d601f19601f8201168201806040525081019061275091906138e4565b6040015164ffffffffff16146127c15760405162461bcd60e51b815260206004820152603060248201527f424f444b65657065722e72656f76654469726563746f723a2063616c6c65722060448201526f34b9903737ba1030b83837b4b73a32b960811b606482015260840161045c565b60025460405163160392d760e01b8152600481018490526001600160a01b039091169063160392d790602401600060405180830381600087803b15801561280757600080fd5b505af115801561080b573d6000803e3d6000fd5b604051633b11adbf60e21b81526005600482015233602482015273__$364aad554dc80380f414546becdd2c1584$__9063ec46b6fc9060440160206040518083038186803b15801561286c57600080fd5b505af4158015612880573d6000803e3d6000fd5b505050506040513d601f19601f820116820180604052508101906128a491906131d3565b6128c05760405162461bcd60e51b815260040161045c906131ee565b60025460405163492c77ff60e11b81526004810185905284916001600160a01b031690639258effe9060240160206040518083038186803b15801561290457600080fd5b505afa158015612918573d6000803e3d6000fd5b505050506040513d601f19601f8201168201806040525081019061293c91906131d3565b6129585760405162461bcd60e51b815260040161045c906133fc565b60025460405163492c77ff60e11b81526004810185905284916001600160a01b031690639258effe9060240160206040518083038186803b15801561299c57600080fd5b505afa1580156129b0573d6000803e3d6000fd5b505050506040513d601f19601f820116820180604052508101906129d491906131d3565b6129f05760405162461bcd60e51b815260040161045c906133fc565b600254604051637f0deff960e11b81526004810185905260248101879052604481018690526001600160a01b039091169063fe1bdff2906064016109b9565b6000600460009054906101000a90046001600160a01b03166001600160a01b0316632f5f3b3c6040518163ffffffff1660e01b815260040160206040518083038186803b158015612a7f57600080fd5b505afa158015612148573d6000803e3d6000fd5b60008054604051636ae3b70d60e11b81523360048201526001600160a01b039091169063d5c76e1a90602401602060405180830381600087803b158015612ad957600080fd5b505af1158015610756573d6000803e3d6000fd5b6000546001600160a01b031615612b3e5760405162461bcd60e51b815260206004820152601560248201527430b63932b0b23c9039b2ba103932b3a1b2b73a32b960591b604482015260640161045c565b6040516001600160a01b03821681527f318da6c7624c71cbc0afe346c9d8827f119d0ecefb241a7b0c87217a076a8e029060200160405180910390a1600080546001600160a01b0319166001600160a01b0392909216919091179055565b6001546001600160a01b031615612bf55760405162461bcd60e51b815260206004820152601960248201527f616c7265616479207365742067656e6572616c4b656570657200000000000000604482015260640161045c565b6040516001600160a01b03821681527fe513d3e0f0d0a3877029dcc588748679a7a3450ec1ec7ed56d96bd012c3e61aa9060200160405180910390a1600180546001600160a01b0319166001600160a01b0392909216919091179055565b60008060008060808587031215612c6957600080fd5b5050823594602084013594506040840135936060013592509050565b60008060408385031215612c9857600080fd5b50508035926020909101359150565b60ff81168114612cb657600080fd5b50565b60008060008060808587031215612ccf57600080fd5b843593506020850135612ce181612ca7565b93969395505050506040820135916060013590565b600060208284031215612d0857600080fd5b5035919050565b6001600160a01b0381168114612cb657600080fd5b600060208284031215612d3657600080fd5b81356117f181612d0f565b634e487b7160e01b600052604160045260246000fd5b6040516101e0810167ffffffffffffffff81118282101715612d7b57612d7b612d41565b60405290565b60405160e0810167ffffffffffffffff81118282101715612d7b57612d7b612d41565b604051601f8201601f1916810167ffffffffffffffff81118282101715612dcd57612dcd612d41565b604052919050565b600067ffffffffffffffff821115612def57612def612d41565b5060051b60200190565b600082601f830112612e0a57600080fd5b81356020612e1f612e1a83612dd5565b612da4565b82815260059290921b84018101918181019086841115612e3e57600080fd5b8286015b84811015612e62578035612e5581612d0f565b8352918301918301612e42565b509695505050505050565b600082601f830112612e7e57600080fd5b81356020612e8e612e1a83612dd5565b82815260059290921b84018101918181019086841115612ead57600080fd5b8286015b84811015612e625780358352918301918301612eb1565b6000601f8381840112612eda57600080fd5b82356020612eea612e1a83612dd5565b82815260059290921b85018101918181019087841115612f0957600080fd5b8287015b84811015612fa057803567ffffffffffffffff80821115612f2e5760008081fd5b818a0191508a603f830112612f435760008081fd5b85820135604082821115612f5957612f59612d41565b612f6a828b01601f19168901612da4565b92508183528c81838601011115612f815760008081fd5b8181850189850137506000908201870152845250918301918301612f0d565b50979650505050505050565b60008060008060008060c08789031215612fc557600080fd5b8635612fd081612ca7565b9550602087013567ffffffffffffffff80821115612fed57600080fd5b612ff98a838b01612df9565b9650604089013591508082111561300f57600080fd5b61301b8a838b01612e6d565b9550606089013591508082111561303157600080fd5b5061303e89828a01612ec8565b9350506080870135915060a087013590509295509295509295565b6000806000806080858703121561306f57600080fd5b84359350602085013561308181612d0f565b9250604085013561309181612d0f565b915060608501356130a181612d0f565b939692955090935050565b64ffffffffff81168114612cb657600080fd5b80356130ca816130ac565b919050565b600080600080600080600060e0888a0312156130ea57600080fd5b87356130f581612ca7565b9650602088013567ffffffffffffffff8082111561311257600080fd5b61311e8b838c01612df9565b975060408a013591508082111561313457600080fd5b6131408b838c01612e6d565b965060608a013591508082111561315657600080fd5b506131638a828b01612ec8565b9450506080880135925060a088013561317b816130ac565b915061318960c089016130bf565b905092959891949750929550565b6000806000606084860312156131ac57600080fd5b505081359360208301359350604090920135919050565b805180151581146130ca57600080fd5b6000602082840312156131e557600080fd5b6117f1826131c3565b60208082526026908201527f41432e6f6e6c794469726563744b65657065723a206e6f74206469726563742060408201526535b2b2b832b960d11b606082015260800190565b60006020828403121561324657600080fd5b5051919050565b805161ffff811681146130ca57600080fd5b80516130ca81612ca7565b600082601f83011261327b57600080fd5b613283612d81565b8060e084018581111561329557600080fd5b845b818110156132b85780516132aa81612ca7565b845260209384019301613297565b509095945050505050565b600082601f8301126132d457600080fd5b6132dc612d81565b8060e08401858111156132ee57600080fd5b845b818110156132b8576133018161324d565b8452602093840193016132f0565b6000610260828403121561332257600080fd5b60405160e0810181811067ffffffffffffffff8211171561334557613345612d41565b6040526133518361324d565b8152602083015161336181612ca7565b6020820152604083015161337481612ca7565b60408201526060830151613387816130ac565b60608201526133986080840161324d565b60808201526133aa8460a0850161326a565b60a08201526133bd8461018085016132c3565b60c08201529392505050565b634e487b7160e01b600052603260045260246000fd5b6000602082840312156133f157600080fd5b81516117f1816130ac565b602080825260129082015271191a5c9958dd1bdc881393d508195e1a5cdd60721b604082015260600190565b60006020828403121561343a57600080fd5b81516117f181612d0f565b600082601f83011261345657600080fd5b6040516060810181811067ffffffffffffffff8211171561347957613479612d41565b60405280606084018581111561348e57600080fd5b845b818110156134b15780516134a3816130ac565b835260209283019201613490565b509195945050505050565b600061022082840312156134cf57600080fd5b6134d7612d57565b6134e08361324d565b81526134ee6020840161325f565b60208201526134ff6040840161325f565b60408201526135106060840161325f565b60608201526135216080840161324d565b608082015261353260a0840161324d565b60a082015261354360c084016131c3565b60c082015261355460e084016131c3565b60e08201526101006135678185016131c3565b908201526101206135798482016131c3565b9082015261014061358b84820161325f565b9082015261016061359d84820161325f565b908201526101806135af84820161325f565b908201526101a06135c184820161325f565b908201526101c06135d485858301613445565b908201529392505050565b600060ff83168061360057634e487b7160e01b600052601260045260246000fd5b8060ff84160691505092915050565b805165ffffffffffff811681146130ca57600080fd5b600060c0828403121561363757600080fd5b60405160c0810181811067ffffffffffffffff8211171561365a5761365a612d41565b604052825161366881612ca7565b81526020830151613678816130ac565b6020820152604083015161368b816130ac565b604082015261369c6060840161360f565b60608201526136ad6080840161360f565b60808201526136be60a0840161360f565b60a08201529392505050565b60208082526036908201527f41432e6f776e65724f72446972656374426f6f6b65657065723a206e6569746860408201527532b91037bbb732b9103737b9103137b7b5b2b2b832b960511b606082015260800190565b600081518084526020808501945080840160005b838110156137595781516001600160a01b031687529582019590820190600101613734565b509495945050505050565b600081518084526020808501945080840160005b8381101561375957815187529582019590820190600101613778565b600081518084526020808501808196508360051b810191508286016000805b86811015613814578385038a5282518051808752835b818110156137e4578281018901518882018a015288016137c9565b818111156137f4578489838a0101525b509a87019a601f01601f19169590950186019450918501916001016137b3565b509298975050505050505050565b60ff8716815260c06020820152600061383e60c0830188613720565b82810360408401526138508188613764565b905082810360608401526138648187613794565b6080840195909552505060a00152949350505050565b60ff8816815260e06020820152600061389660e0830189613720565b82810360408401526138a88189613764565b905082810360608401526138bc8188613794565b6080840196909652505064ffffffffff92831660a0820152911660c090910152949350505050565b600060a082840312156138f657600080fd5b60405160a0810181811067ffffffffffffffff8211171561391957613919612d41565b604052825161392781612ca7565b81526020830151613937816130ac565b6020820152604083015161394a816130ac565b604082015261395b6060840161360f565b606082015261396c6080840161360f565b6080820152939250505056fea2646970667358221220202045074d425b7616715d070d06d97feba50e7c21a277f06c6e907237dd454b64736f6c63430008080033",
    "sourcePath": "/Users/kaptain/github.com/hardhat/comboox/contracts/keepers/BODKeeper.sol",
    "compiler": {
        "name": "solc",
        "version": "0.8.8+commit.dddeac2f"
    },
    "functionHashes": {
        "abandonRole(bytes32)": "3da9a600",
        "appointOfficer(uint256,uint256,uint256,uint256)": "0bdda2ed",
        "castVote(uint256,uint8,bytes32,uint256)": "1fa1fdc5",
        "entrustDelegate(uint256,uint256,uint256)": "fe1bdff2",
        "execAction(uint8,address[],uint256[],bytes[],bytes32,uint256)": "a19012b9",
        "finalized()": "b3f05b97",
        "getBookeeper()": "ed211023",
        "getGeneralCounsel()": "103f6edd",
        "getOwner()": "893d20e8",
        "grantRole(bytes32,uint256)": "1b6ea9f9",
        "hasRole(bytes32,uint256)": "7e063c5a",
        "init(uint256,address,address,address)": "dc890da9",
        "initBOD()": "5ff3fd0f",
        "initBOG()": "68258858",
        "initBOH()": "25cbca63",
        "lockContents()": "f045a769",
        "proposeAction(uint8,address[],uint256[],bytes[],bytes32,uint40,uint40)": "e31f2d2c",
        "quitPosition(uint256)": "92c2c3d3",
        "removeDirector(uint256,uint256)": "f8be81ac",
        "renounceRole(bytes32)": "8bb9c5bf",
        "revokeRole(bytes32,uint256)": "19d61ad9",
        "setDirectKeeper(address)": "6be8496f",
        "setGeneralCounsel(uint256)": "4a14beb1",
        "setOwner(uint256)": "8041494e",
        "setRoleAdmin(bytes32,uint256)": "5171ebd4",
        "takePosition(uint256,uint256,uint256,uint256)": "3ea65d6f",
        "voteCounting(uint256,uint256)": "f894759e"
    },
    "gasEstimates": {
        "creation": {
            "codeDepositCost": "2953200",
            "executionCost": "3239",
            "totalCost": "2956439"
        },
        "external": {
            "abandonRole(bytes32)": "infinite",
            "appointOfficer(uint256,uint256,uint256,uint256)": "infinite",
            "castVote(uint256,uint8,bytes32,uint256)": "infinite",
            "entrustDelegate(uint256,uint256,uint256)": "infinite",
            "execAction(uint8,address[],uint256[],bytes[],bytes32,uint256)": "infinite",
            "finalized()": "2438",
            "getBookeeper()": "infinite",
            "getGeneralCounsel()": "infinite",
            "getOwner()": "infinite",
            "grantRole(bytes32,uint256)": "infinite",
            "hasRole(bytes32,uint256)": "infinite",
            "init(uint256,address,address,address)": "infinite",
            "initBOD()": "infinite",
            "initBOG()": "infinite",
            "initBOH()": "infinite",
            "lockContents()": "infinite",
            "proposeAction(uint8,address[],uint256[],bytes[],bytes32,uint40,uint40)": "infinite",
            "quitPosition(uint256)": "infinite",
            "removeDirector(uint256,uint256)": "infinite",
            "renounceRole(bytes32)": "infinite",
            "revokeRole(bytes32,uint256)": "infinite",
            "setDirectKeeper(address)": "infinite",
            "setGeneralCounsel(uint256)": "infinite",
            "setOwner(uint256)": "infinite",
            "setRoleAdmin(bytes32,uint256)": "infinite",
            "takePosition(uint256,uint256,uint256,uint256)": "infinite",
            "voteCounting(uint256,uint256)": "infinite"
        }
    }
}