{
    "contractName": "BOGKeeper",
    "abi": [
        {
            "anonymous": false,
            "inputs": [
                {
                    "indexed": false,
                    "internalType": "uint256",
                    "name": "owner",
                    "type": "uint256"
                },
                {
                    "indexed": false,
                    "internalType": "address",
                    "name": "directKeeper",
                    "type": "address"
                },
                {
                    "indexed": false,
                    "internalType": "address",
                    "name": "regCenter",
                    "type": "address"
                },
                {
                    "indexed": false,
                    "internalType": "address",
                    "name": "generalKeeper",
                    "type": "address"
                }
            ],
            "name": "Init",
            "type": "event"
        },
        {
            "anonymous": false,
            "inputs": [],
            "name": "LockContents",
            "type": "event"
        },
        {
            "anonymous": false,
            "inputs": [
                {
                    "indexed": false,
                    "internalType": "address",
                    "name": "keeper",
                    "type": "address"
                }
            ],
            "name": "SetDirectKeeper",
            "type": "event"
        },
        {
            "anonymous": false,
            "inputs": [
                {
                    "indexed": false,
                    "internalType": "uint256",
                    "name": "acct",
                    "type": "uint256"
                }
            ],
            "name": "SetGeneralCounsel",
            "type": "event"
        },
        {
            "anonymous": false,
            "inputs": [
                {
                    "indexed": false,
                    "internalType": "uint256",
                    "name": "acct",
                    "type": "uint256"
                }
            ],
            "name": "SetOwner",
            "type": "event"
        },
        {
            "inputs": [
                {
                    "internalType": "bytes32",
                    "name": "role",
                    "type": "bytes32"
                }
            ],
            "name": "abandonRole",
            "outputs": [],
            "stateMutability": "nonpayable",
            "type": "function"
        },
        {
            "inputs": [
                {
                    "internalType": "uint256",
                    "name": "seqOfMotion",
                    "type": "uint256"
                },
                {
                    "internalType": "uint256",
                    "name": "attitude",
                    "type": "uint256"
                },
                {
                    "internalType": "bytes32",
                    "name": "sigHash",
                    "type": "bytes32"
                },
                {
                    "internalType": "uint256",
                    "name": "caller",
                    "type": "uint256"
                }
            ],
            "name": "castVoteOfGM",
            "outputs": [],
            "stateMutability": "nonpayable",
            "type": "function"
        },
        {
            "inputs": [
                {
                    "internalType": "address",
                    "name": "board",
                    "type": "address"
                }
            ],
            "name": "createBoardSeal",
            "outputs": [],
            "stateMutability": "nonpayable",
            "type": "function"
        },
        {
            "inputs": [],
            "name": "createCorpSeal",
            "outputs": [],
            "stateMutability": "nonpayable",
            "type": "function"
        },
        {
            "inputs": [
                {
                    "internalType": "uint256",
                    "name": "seqOfMotion",
                    "type": "uint256"
                },
                {
                    "internalType": "uint256",
                    "name": "delegate",
                    "type": "uint256"
                },
                {
                    "internalType": "uint256",
                    "name": "caller",
                    "type": "uint256"
                }
            ],
            "name": "entrustDelegateOfMember",
            "outputs": [],
            "stateMutability": "nonpayable",
            "type": "function"
        },
        {
            "inputs": [
                {
                    "internalType": "uint256",
                    "name": "typeOfAction",
                    "type": "uint256"
                },
                {
                    "internalType": "address[]",
                    "name": "targets",
                    "type": "address[]"
                },
                {
                    "internalType": "uint256[]",
                    "name": "values",
                    "type": "uint256[]"
                },
                {
                    "internalType": "bytes[]",
                    "name": "params",
                    "type": "bytes[]"
                },
                {
                    "internalType": "bytes32",
                    "name": "desHash",
                    "type": "bytes32"
                },
                {
                    "internalType": "uint256",
                    "name": "seqOfMotion",
                    "type": "uint256"
                },
                {
                    "internalType": "uint256",
                    "name": "caller",
                    "type": "uint256"
                }
            ],
            "name": "execActionOfGM",
            "outputs": [],
            "stateMutability": "nonpayable",
            "type": "function"
        },
        {
            "inputs": [],
            "name": "finalized",
            "outputs": [
                {
                    "internalType": "bool",
                    "name": "",
                    "type": "bool"
                }
            ],
            "stateMutability": "view",
            "type": "function"
        },
        {
            "inputs": [],
            "name": "getBookeeper",
            "outputs": [
                {
                    "internalType": "address",
                    "name": "",
                    "type": "address"
                }
            ],
            "stateMutability": "view",
            "type": "function"
        },
        {
            "inputs": [],
            "name": "getGeneralCounsel",
            "outputs": [
                {
                    "internalType": "uint40",
                    "name": "",
                    "type": "uint40"
                }
            ],
            "stateMutability": "view",
            "type": "function"
        },
        {
            "inputs": [],
            "name": "getOwner",
            "outputs": [
                {
                    "internalType": "uint40",
                    "name": "",
                    "type": "uint40"
                }
            ],
            "stateMutability": "view",
            "type": "function"
        },
        {
            "inputs": [
                {
                    "internalType": "bytes32",
                    "name": "role",
                    "type": "bytes32"
                },
                {
                    "internalType": "uint256",
                    "name": "acct",
                    "type": "uint256"
                }
            ],
            "name": "grantRole",
            "outputs": [],
            "stateMutability": "nonpayable",
            "type": "function"
        },
        {
            "inputs": [
                {
                    "internalType": "bytes32",
                    "name": "role",
                    "type": "bytes32"
                },
                {
                    "internalType": "uint256",
                    "name": "acct",
                    "type": "uint256"
                }
            ],
            "name": "hasRole",
            "outputs": [
                {
                    "internalType": "bool",
                    "name": "",
                    "type": "bool"
                }
            ],
            "stateMutability": "view",
            "type": "function"
        },
        {
            "inputs": [
                {
                    "internalType": "uint256",
                    "name": "owner",
                    "type": "uint256"
                },
                {
                    "internalType": "address",
                    "name": "directKeeper",
                    "type": "address"
                },
                {
                    "internalType": "address",
                    "name": "regCenter",
                    "type": "address"
                },
                {
                    "internalType": "address",
                    "name": "generalKeeper",
                    "type": "address"
                }
            ],
            "name": "init",
            "outputs": [],
            "stateMutability": "nonpayable",
            "type": "function"
        },
        {
            "inputs": [],
            "name": "lockContents",
            "outputs": [],
            "stateMutability": "nonpayable",
            "type": "function"
        },
        {
            "inputs": [
                {
                    "internalType": "uint256",
                    "name": "seqOfPos",
                    "type": "uint256"
                },
                {
                    "internalType": "uint256",
                    "name": "candidate",
                    "type": "uint256"
                },
                {
                    "internalType": "uint256",
                    "name": "nominator",
                    "type": "uint256"
                }
            ],
            "name": "nominateDirector",
            "outputs": [],
            "stateMutability": "nonpayable",
            "type": "function"
        },
        {
            "inputs": [
                {
                    "internalType": "uint256",
                    "name": "seqOfVR",
                    "type": "uint256"
                },
                {
                    "internalType": "address[]",
                    "name": "targets",
                    "type": "address[]"
                },
                {
                    "internalType": "uint256[]",
                    "name": "values",
                    "type": "uint256[]"
                },
                {
                    "internalType": "bytes[]",
                    "name": "params",
                    "type": "bytes[]"
                },
                {
                    "internalType": "bytes32",
                    "name": "desHash",
                    "type": "bytes32"
                },
                {
                    "internalType": "uint256",
                    "name": "executor",
                    "type": "uint256"
                },
                {
                    "internalType": "uint256",
                    "name": "proposer",
                    "type": "uint256"
                }
            ],
            "name": "proposeActionOfGM",
            "outputs": [],
            "stateMutability": "nonpayable",
            "type": "function"
        },
        {
            "inputs": [
                {
                    "internalType": "address",
                    "name": "doc",
                    "type": "address"
                },
                {
                    "internalType": "uint256",
                    "name": "seqOfVR",
                    "type": "uint256"
                },
                {
                    "internalType": "uint256",
                    "name": "executor",
                    "type": "uint256"
                },
                {
                    "internalType": "uint256",
                    "name": "proposer",
                    "type": "uint256"
                }
            ],
            "name": "proposeDocOfGM",
            "outputs": [],
            "stateMutability": "nonpayable",
            "type": "function"
        },
        {
            "inputs": [
                {
                    "internalType": "uint256",
                    "name": "seqOfMotion",
                    "type": "uint256"
                },
                {
                    "internalType": "uint256",
                    "name": "caller",
                    "type": "uint256"
                }
            ],
            "name": "proposeMotionOfGM",
            "outputs": [],
            "stateMutability": "nonpayable",
            "type": "function"
        },
        {
            "inputs": [
                {
                    "internalType": "uint256",
                    "name": "seqOfPos",
                    "type": "uint256"
                },
                {
                    "internalType": "uint256",
                    "name": "caller",
                    "type": "uint256"
                }
            ],
            "name": "proposeToRemoveDirector",
            "outputs": [],
            "stateMutability": "nonpayable",
            "type": "function"
        },
        {
            "inputs": [
                {
                    "internalType": "uint256",
                    "name": "seqOfMotion",
                    "type": "uint256"
                },
                {
                    "internalType": "uint256",
                    "name": "seqOfPos",
                    "type": "uint256"
                },
                {
                    "internalType": "uint256",
                    "name": "director",
                    "type": "uint256"
                },
                {
                    "internalType": "uint256",
                    "name": "caller",
                    "type": "uint256"
                }
            ],
            "name": "removeDirector",
            "outputs": [],
            "stateMutability": "nonpayable",
            "type": "function"
        },
        {
            "inputs": [
                {
                    "internalType": "bytes32",
                    "name": "role",
                    "type": "bytes32"
                }
            ],
            "name": "renounceRole",
            "outputs": [],
            "stateMutability": "nonpayable",
            "type": "function"
        },
        {
            "inputs": [
                {
                    "internalType": "bytes32",
                    "name": "role",
                    "type": "bytes32"
                },
                {
                    "internalType": "uint256",
                    "name": "acct",
                    "type": "uint256"
                }
            ],
            "name": "revokeRole",
            "outputs": [],
            "stateMutability": "nonpayable",
            "type": "function"
        },
        {
            "inputs": [
                {
                    "internalType": "address",
                    "name": "keeper",
                    "type": "address"
                }
            ],
            "name": "setDirectKeeper",
            "outputs": [],
            "stateMutability": "nonpayable",
            "type": "function"
        },
        {
            "inputs": [
                {
                    "internalType": "uint256",
                    "name": "acct",
                    "type": "uint256"
                }
            ],
            "name": "setGeneralCounsel",
            "outputs": [],
            "stateMutability": "nonpayable",
            "type": "function"
        },
        {
            "inputs": [
                {
                    "internalType": "uint256",
                    "name": "acct",
                    "type": "uint256"
                }
            ],
            "name": "setOwner",
            "outputs": [],
            "stateMutability": "nonpayable",
            "type": "function"
        },
        {
            "inputs": [
                {
                    "internalType": "bytes32",
                    "name": "role",
                    "type": "bytes32"
                },
                {
                    "internalType": "uint256",
                    "name": "acct",
                    "type": "uint256"
                }
            ],
            "name": "setRoleAdmin",
            "outputs": [],
            "stateMutability": "nonpayable",
            "type": "function"
        },
        {
            "inputs": [
                {
                    "internalType": "uint256",
                    "name": "seqOfMotion",
                    "type": "uint256"
                },
                {
                    "internalType": "uint256",
                    "name": "seqOfPos",
                    "type": "uint256"
                },
                {
                    "internalType": "uint256",
                    "name": "caller",
                    "type": "uint256"
                }
            ],
            "name": "takeSeat",
            "outputs": [],
            "stateMutability": "nonpayable",
            "type": "function"
        },
        {
            "inputs": [
                {
                    "internalType": "uint256",
                    "name": "seqOfMotion",
                    "type": "uint256"
                },
                {
                    "internalType": "uint256",
                    "name": "caller",
                    "type": "uint256"
                }
            ],
            "name": "voteCountingOfGM",
            "outputs": [],
            "stateMutability": "nonpayable",
            "type": "function"
        }
    ],
    "bytecode": "608060405234801561001057600080fd5b506156ad80620000216000396000f3fe608060405234801561001057600080fd5b50600436106101c45760003560e01c80638041494e116100f9578063c24cb85911610097578063dc890da911610071578063dc890da91461039e578063ed211023146103b1578063f045a769146103d1578063f1e9e7f7146103d957600080fd5b8063c24cb85914610370578063d0e27e1014610383578063d1a0ce561461039657600080fd5b80639d7d867b116100d35780639d7d867b14610323578063a609880714610336578063a8459ac014610349578063b3f05b971461035c57600080fd5b80638041494e146102f5578063893d20e8146103085780638bb9c5bf1461031057600080fd5b80633c44bcb6116101665780635171ebd4116101405780635171ebd4146102995780636be8496f146102ac5780637451ce03146102bf5780637e063c5a146102d257600080fd5b80633c44bcb6146102605780633da9a600146102735780634a14beb11461028657600080fd5b8063180dc60e116101a2578063180dc60e1461021457806319d61ad9146102275780631b6ea9f91461023a5780633b9f1b811461024d57600080fd5b8063020c814d146101c9578063103f6edd146101de5780631153cd2e14610201575b600080fd5b6101dc6101d73660046148b2565b6103ec565b005b6101e66104e4565b60405164ffffffffff90911681526020015b60405180910390f35b6101dc61020f3660046149be565b610570565b6101dc6102223660046149e0565b610c9b565b6101dc6102353660046149be565b610e26565b6101dc6102483660046149be565b610eb8565b6101dc61025b3660046149fd565b610ede565b6101dc61026e3660046149fd565b61142b565b6101dc610281366004614a29565b6119d9565b6101dc610294366004614a29565b611a5d565b6101dc6102a73660046149be565b611cba565b6101dc6102ba3660046149e0565b611ce0565b6101dc6102cd3660046149fd565b611d92565b6102e56102e03660046149be565b6120dc565b60405190151581526020016101f8565b6101dc610303366004614a29565b612177565b6101e6612230565b6101dc61031e366004614a29565b61226b565b6101dc610331366004614a42565b612290565b6101dc6103443660046149be565b6125ea565b6101dc610357366004614a42565b612ae2565b60028054600160f01b900460ff16146102e5565b6101dc61037e3660046148b2565b612e09565b6101dc610391366004614a74565b6130d2565b6101dc61346f565b6101dc6103ac366004614aaf565b6135ee565b6103b96136d0565b6040516001600160a01b0390911681526020016101f8565b6101dc613756565b6101dc6103e73660046149be565b61399a565b600160009054906101000a90046001600160a01b03166001600160a01b031663682ebf056040518163ffffffff1660e01b815260040160206040518083038186803b15801561043a57600080fd5b505afa15801561044e573d6000803e3d6000fd5b505050506040513d601f19601f820116820180604052508101906104729190614b02565b6001600160a01b0316635c2753bf888888888888886040518863ffffffff1660e01b81526004016104a99796959493929190614be8565b600060405180830381600087803b1580156104c357600080fd5b505af11580156104d7573d6000803e3d6000fd5b5050505050505050505050565b60405163e8c0cc1d60e01b81526002600482015260009073__$364aad554dc80380f414546becdd2c1584$__9063e8c0cc1d906024015b60206040518083038186803b15801561053357600080fd5b505af4158015610547573d6000803e3d6000fd5b505050506040513d601f19601f8201168201806040525081019061056b9190614c97565b905090565b6001546040516335d2155560e11b81523360048201526001600160a01b0390911690636ba42aaa9060240160206040518083038186803b1580156105b357600080fd5b505afa1580156105c7573d6000803e3d6000fd5b505050506040513d601f19601f820116820180604052508101906105eb9190614cc2565b6106305760405162461bcd60e51b815260206004820152601160248201527020a19737b59d103737ba1025b2b2b832b960791b60448201526064015b60405180910390fd5b600154604080516319fdcb7760e11b8152905183926001600160a01b0316916333fb96ee916004808301926020929190829003018186803b15801561067457600080fd5b505afa158015610688573d6000803e3d6000fd5b505050506040513d601f19601f820116820180604052508101906106ac9190614b02565b6001600160a01b031663d50c7377826040518263ffffffff1660e01b81526004016106d991815260200190565b60206040518083038186803b1580156106f157600080fd5b505afa158015610705573d6000803e3d6000fd5b505050506040513d601f19601f820116820180604052508101906107299190614cc2565b6107455760405162461bcd60e51b815260040161062790614cdd565b6001546040805163682ebf0560e01b815290516000926001600160a01b03169163682ebf05916004808301926020929190829003018186803b15801561078a57600080fd5b505afa15801561079e573d6000803e3d6000fd5b505050506040513d601f19601f820116820180604052508101906107c29190614b02565b90506000600160009054906101000a90046001600160a01b03166001600160a01b031663a61adc286040518163ffffffff1660e01b815260040160206040518083038186803b15801561081457600080fd5b505afa158015610828573d6000803e3d6000fd5b505050506040513d601f19601f8201168201806040525081019061084c9190614b02565b604051634846203760e01b8152600060048201526001600160a01b03919091169063484620379060240160206040518083038186803b15801561088e57600080fd5b505afa1580156108a2573d6000803e3d6000fd5b505050506040513d601f19601f820116820180604052508101906108c69190614d0d565b60405163611ebb8b60e01b8152600481019190915273__$9d2c69e94fee47b9774dc8db4aa5c0bbec$__9063611ebb8b906024016101406040518083038186803b15801561091357600080fd5b505af4158015610927573d6000803e3d6000fd5b505050506040513d601f19601f8201168201806040525081019061094b9190614d49565b608001516040516361df743f60e01b815260048101879052602481018690529091506001600160a01b038316906361df743f9060440160006040518083038186803b15801561099957600080fd5b505afa1580156109ad573d6000803e3d6000fd5b505050506040513d6000823e601f3d908101601f191682016040526109d59190810190614e3c565b5164ffffffffff1615610a2a5760405162461bcd60e51b815260206004820152601d60248201527f424f474b2e504d3a2068617320656e74727573742064656c65676174650000006044820152606401610627565b600154604080516319fdcb7760e11b815290516000926001600160a01b0316916333fb96ee916004808301926020929190829003018186803b158015610a6f57600080fd5b505afa158015610a83573d6000803e3d6000fd5b505050506040513d601f19601f82011682018060405250810190610aa79190614b02565b90506000816001600160a01b0316630d15fd776040518163ffffffff1660e01b815260040160206040518083038186803b158015610ae457600080fd5b505afa158015610af8573d6000803e3d6000fd5b505050506040513d601f19601f82011682018060405250810190610b1c9190614f49565b604051630c41f49b60e41b8152600481018990526024810188905265ffffffffffff421660448201526001600160a01b03848116606483015291925060009186169063c41f49b09060840160206040518083038186803b158015610b7f57600080fd5b505afa158015610b93573d6000803e3d6000fd5b505050506040513d601f19601f82011682018060405250810190610bb79190614f49565b905061ffff8416610bc88383614f7a565b6001600160401b03161015610c2f5760405162461bcd60e51b815260206004820152602760248201527f424f474b2e504d3a206e6f7420726561636865642070726f706f73616c2074686044820152661c995cda1bdb1960ca1b6064820152608401610627565b6040516304b79d5f60e11b815260048101899052602481018890526001600160a01b0386169063096f3abe906044015b600060405180830381600087803b158015610c7957600080fd5b505af1158015610c8d573d6000803e3d6000fd5b505050505050505050505050565b604051633b11adbf60e21b81526002600482015233602482015273__$364aad554dc80380f414546becdd2c1584$__9063ec46b6fc9060440160206040518083038186803b158015610cec57600080fd5b505af4158015610d00573d6000803e3d6000fd5b505050506040513d601f19601f82011682018060405250810190610d249190614cc2565b610d405760405162461bcd60e51b815260040161062790614fae565b600160009054906101000a90046001600160a01b03166001600160a01b031663682ebf056040518163ffffffff1660e01b815260040160206040518083038186803b158015610d8e57600080fd5b505afa158015610da2573d6000803e3d6000fd5b505050506040513d601f19601f82011682018060405250810190610dc69190614b02565b604051630c06e30760e11b81526001600160a01b038381166004830152919091169063180dc60e90602401600060405180830381600087803b158015610e0b57600080fd5b505af1158015610e1f573d6000803e3d6000fd5b5050505050565b73__$364aad554dc80380f414546becdd2c1584$__6382daafaa60028484610e4c6142ea565b6040516001600160e01b031960e087901b16815260048101949094526024840192909252604483015264ffffffffff16606482015260840160006040518083038186803b158015610e9c57600080fd5b505af4158015610eb0573d6000803e3d6000fd5b505050505050565b73__$364aad554dc80380f414546becdd2c1584$__636320d75e60028484610e4c6142ea565b604051633b11adbf60e21b81526002600482015233602482015273__$364aad554dc80380f414546becdd2c1584$__9063ec46b6fc9060440160206040518083038186803b158015610f2f57600080fd5b505af4158015610f43573d6000803e3d6000fd5b505050506040513d601f19601f82011682018060405250810190610f679190614cc2565b610f835760405162461bcd60e51b815260040161062790614fae565b600154604080516319fdcb7760e11b8152905183926001600160a01b0316916333fb96ee916004808301926020929190829003018186803b158015610fc757600080fd5b505afa158015610fdb573d6000803e3d6000fd5b505050506040513d601f19601f82011682018060405250810190610fff9190614b02565b6001600160a01b031663d50c7377826040518263ffffffff1660e01b815260040161102c91815260200190565b60206040518083038186803b15801561104457600080fd5b505afa158015611058573d6000803e3d6000fd5b505050506040513d601f19601f8201168201806040525081019061107c9190614cc2565b6110985760405162461bcd60e51b815260040161062790614cdd565b600154604080516319fdcb7760e11b8152905185926001600160a01b0316916333fb96ee916004808301926020929190829003018186803b1580156110dc57600080fd5b505afa1580156110f0573d6000803e3d6000fd5b505050506040513d601f19601f820116820180604052508101906111149190614b02565b6001600160a01b031663d50c7377826040518263ffffffff1660e01b815260040161114191815260200190565b60206040518083038186803b15801561115957600080fd5b505afa15801561116d573d6000803e3d6000fd5b505050506040513d601f19601f820116820180604052508101906111919190614cc2565b6111ad5760405162461bcd60e51b815260040161062790614cdd565b6111b78584614344565b6001546040805163682ebf0560e01b815290516000926001600160a01b03169163682ebf05916004808301926020929190829003018186803b1580156111fc57600080fd5b505afa158015611210573d6000803e3d6000fd5b505050506040513d601f19601f820116820180604052508101906112349190614b02565b9050600080826001600160a01b031663ad15aad2896040518263ffffffff1660e01b815260040161126791815260200190565b6103e06040518083038186803b15801561128057600080fd5b505afa158015611294573d6000803e3d6000fd5b505050506040513d601f19601f820116820180604052508101906112b89190615237565b6020015160400151905065ffffffffffff8116156113e157600160009054906101000a90046001600160a01b03166001600160a01b03166333fb96ee6040518163ffffffff1660e01b815260040160206040518083038186803b15801561131e57600080fd5b505afa158015611332573d6000803e3d6000fd5b505050506040513d601f19601f820116820180604052508101906113569190614b02565b604051632bf82aab60e01b81526004810188905265ffffffffffff831660248201526001600160a01b039190911690632bf82aab9060440160206040518083038186803b1580156113a657600080fd5b505afa1580156113ba573d6000803e3d6000fd5b505050506040513d601f19601f820116820180604052508101906113de9190614f49565b91505b604051632c2d75e360e11b81526004810189905260248101889052604481018790526001600160401b03831660648201526001600160a01b0384169063585aebc690608401610c5f565b604051633b11adbf60e21b81526002600482015233602482015273__$364aad554dc80380f414546becdd2c1584$__9063ec46b6fc9060440160206040518083038186803b15801561147c57600080fd5b505af4158015611490573d6000803e3d6000fd5b505050506040513d601f19601f820116820180604052508101906114b49190614cc2565b6114d05760405162461bcd60e51b815260040161062790614fae565b600154604080516319fdcb7760e11b8152905183926001600160a01b0316916333fb96ee916004808301926020929190829003018186803b15801561151457600080fd5b505afa158015611528573d6000803e3d6000fd5b505050506040513d601f19601f8201168201806040525081019061154c9190614b02565b6001600160a01b031663d50c7377826040518263ffffffff1660e01b815260040161157991815260200190565b60206040518083038186803b15801561159157600080fd5b505afa1580156115a5573d6000803e3d6000fd5b505050506040513d601f19601f820116820180604052508101906115c99190614cc2565b6115e55760405162461bcd60e51b815260040161062790614cdd565b60015460408051639262826d60e01b815290516000926001600160a01b031691639262826d916004808301926020929190829003018186803b15801561162a57600080fd5b505afa15801561163e573d6000803e3d6000fd5b505050506040513d601f19601f820116820180604052508101906116629190614b02565b6001600160a01b031663eb02c301866040518263ffffffff1660e01b815260040161168f91815260200190565b6101206040518083038186803b1580156116a857600080fd5b505afa1580156116bc573d6000803e3d6000fd5b505050506040513d601f19601f820116820180604052508101906116e09190615319565b8051909150600461ffff90911611156117465760405162461bcd60e51b815260206004820152602260248201527f424f474b2e4e443a206e6f742061204469726563746f72277320706f7369746960448201526137b760f11b6064820152608401610627565b606081015164ffffffffff161580611768575082816060015164ffffffffff16145b6117b45760405162461bcd60e51b815260206004820152601f60248201527f424f474b2e4e443a20686173206e6f206e6f6d696e6174696f6e5269676874006044820152606401610627565b6001546040805163682ebf0560e01b815290516000926001600160a01b03169163682ebf05916004808301926020929190829003018186803b1580156117f957600080fd5b505afa15801561180d573d6000803e3d6000fd5b505050506040513d601f19601f820116820180604052508101906118319190614b02565b60c08301516040516313d904eb60e21b81526004810189905261ffff909116602482015260448101879052606481018690526001600160a01b039190911690634f6413ac90608401602060405180830381600087803b15801561189357600080fd5b505af11580156118a7573d6000803e3d6000fd5b505050506040513d601f19601f820116820180604052508101906118cb9190614f49565b606083015190915064ffffffffff1615610eb057600160009054906101000a90046001600160a01b03166001600160a01b031663682ebf056040518163ffffffff1660e01b815260040160206040518083038186803b15801561192d57600080fd5b505afa158015611941573d6000803e3d6000fd5b505050506040513d601f19601f820116820180604052508101906119659190614b02565b6040516304b79d5f60e11b81526001600160401b0383166004820152602481018690526001600160a01b03919091169063096f3abe906044015b600060405180830381600087803b1580156119b957600080fd5b505af11580156119cd573d6000803e3d6000fd5b50505050505050505050565b73__$364aad554dc80380f414546becdd2c1584$__63c51b295f6002836119fe6142ea565b6040516001600160e01b031960e086901b1681526004810193909352602483019190915264ffffffffff16604482015260640160006040518083038186803b158015611a4957600080fd5b505af4158015610e1f573d6000803e3d6000fd5b604051633b11adbf60e21b81526002600482015233602482015273__$364aad554dc80380f414546becdd2c1584$__9063ec46b6fc9060440160206040518083038186803b158015611aae57600080fd5b505af4158015611ac2573d6000803e3d6000fd5b505050506040513d601f19601f82011682018060405250810190611ae69190614cc2565b80611b8b575073__$364aad554dc80380f414546becdd2c1584$__63fe2710866002611b106142ea565b6040516001600160e01b031960e085901b168152600481019290925264ffffffffff16602482015260440160206040518083038186803b158015611b5357600080fd5b505af4158015611b67573d6000803e3d6000fd5b505050506040513d601f19601f82011682018060405250810190611b8b9190614cc2565b611bf65760405162461bcd60e51b815260206004820152603660248201527f41432e6f776e65724f72446972656374426f6f6b65657065723a206e6569746860448201527532b91037bbb732b9103737b9103137b7b5b2b2b832b960511b6064820152608401610627565b73__$364aad554dc80380f414546becdd2c1584$__639b4510de600283611c1b6142ea565b6040516001600160e01b031960e086901b1681526004810193909352602483019190915264ffffffffff16604482015260640160006040518083038186803b158015611c6657600080fd5b505af4158015611c7a573d6000803e3d6000fd5b505050507ff2735f34b69be1e6342dea95f9162f84d0db925fab655ca9f1f312ac8cbfc99d81604051611caf91815260200190565b60405180910390a150565b73__$364aad554dc80380f414546becdd2c1584$__63ee98b31360028484610e4c6142ea565b604051630f07232560e01b8152600260048201526001600160a01b038216602482015233604482015273__$364aad554dc80380f414546becdd2c1584$__90630f0723259060640160006040518083038186803b158015611d4057600080fd5b505af4158015611d54573d6000803e3d6000fd5b50506040516001600160a01b03841681527fe435cbeab64e4eae6497b9d8289704bd709d624a80704ef3ca9af777534bc6ec92506020019050611caf565b604051633b11adbf60e21b81526002600482015233602482015273__$364aad554dc80380f414546becdd2c1584$__9063ec46b6fc9060440160206040518083038186803b158015611de357600080fd5b505af4158015611df7573d6000803e3d6000fd5b505050506040513d601f19601f82011682018060405250810190611e1b9190614cc2565b611e375760405162461bcd60e51b815260040161062790614fae565b6001546040805163682ebf0560e01b815290516000926001600160a01b03169163682ebf05916004808301926020929190829003018186803b158015611e7c57600080fd5b505afa158015611e90573d6000803e3d6000fd5b505050506040513d601f19601f82011682018060405250810190611eb49190614b02565b60405163568ad56960e11b8152600481018690529091506001906001600160a01b0383169063ad15aad2906024016103e06040518083038186803b158015611efb57600080fd5b505afa158015611f0f573d6000803e3d6000fd5b505050506040513d601f19601f82011682018060405250810190611f339190615237565b515161ffff1614611f865760405162461bcd60e51b815260206004820152601e60248201527f424f474b2e54533a206e6f742061207375697461626c65206d6f74696f6e00006044820152606401610627565b60405162b4faa960e61b81526004810185905260248101849052604481018390526001600160a01b03821690632d3eaa4090606401600060405180830381600087803b158015611fd557600080fd5b505af1158015611fe9573d6000803e3d6000fd5b50505050600160009054906101000a90046001600160a01b03166001600160a01b0316639262826d6040518163ffffffff1660e01b815260040160206040518083038186803b15801561203b57600080fd5b505afa15801561204f573d6000803e3d6000fd5b505050506040513d601f19601f820116820180604052508101906120739190614b02565b604051636998d28d60e01b815260048101859052602481018490526001600160a01b039190911690636998d28d90604401600060405180830381600087803b1580156120be57600080fd5b505af11580156120d2573d6000803e3d6000fd5b5050505050505050565b604051632a3be56b60e21b815260026004820152602481018390526044810182905260009073__$364aad554dc80380f414546becdd2c1584$__9063a8ef95ac9060640160206040518083038186803b15801561213857600080fd5b505af415801561214c573d6000803e3d6000fd5b505050506040513d601f19601f820116820180604052508101906121709190614cc2565b9392505050565b73__$364aad554dc80380f414546becdd2c1584$__639b48160c60028361219c6142ea565b6040516001600160e01b031960e086901b1681526004810193909352602483019190915264ffffffffff16604482015260640160006040518083038186803b1580156121e757600080fd5b505af41580156121fb573d6000803e3d6000fd5b505050507f8b6f40f36b4ae8cc5f55e895036457c43da4ab1f80f58c46f5ff0d72a650033b81604051611caf91815260200190565b60405163987ad15360e01b81526002600482015260009073__$364aad554dc80380f414546becdd2c1584$__9063987ad1539060240161051b565b73__$364aad554dc80380f414546becdd2c1584$__63cc0d511b6002836119fe6142ea565b604051633b11adbf60e21b81526002600482015233602482015273__$364aad554dc80380f414546becdd2c1584$__9063ec46b6fc9060440160206040518083038186803b1580156122e157600080fd5b505af41580156122f5573d6000803e3d6000fd5b505050506040513d601f19601f820116820180604052508101906123199190614cc2565b6123355760405162461bcd60e51b815260040161062790614fae565b6001546040805163682ebf0560e01b815290516000926001600160a01b03169163682ebf05916004808301926020929190829003018186803b15801561237a57600080fd5b505afa15801561238e573d6000803e3d6000fd5b505050506040513d601f19601f820116820180604052508101906123b29190614b02565b60405163568ad56960e11b8152600481018790529091506002906001600160a01b0383169063ad15aad2906024016103e06040518083038186803b1580156123f957600080fd5b505afa15801561240d573d6000803e3d6000fd5b505050506040513d601f19601f820116820180604052508101906124319190615237565b515161ffff16146124845760405162461bcd60e51b815260206004820152601e60248201527f424f474b2e52443a206e6f742061207375697461626c65206d6f74696f6e00006044820152606401610627565b60405162b4faa960e61b81526004810186905260248101859052604481018390526001600160a01b03821690632d3eaa4090606401600060405180830381600087803b1580156124d357600080fd5b505af11580156124e7573d6000803e3d6000fd5b50505050600160009054906101000a90046001600160a01b03166001600160a01b0316639262826d6040518163ffffffff1660e01b815260040160206040518083038186803b15801561253957600080fd5b505afa15801561254d573d6000803e3d6000fd5b505050506040513d601f19601f820116820180604052508101906125719190614b02565b60405163a878079960e01b8152600481018790526024810186905260448101859052606481018490526001600160a01b03919091169063a8780799906084015b600060405180830381600087803b1580156125cb57600080fd5b505af11580156125df573d6000803e3d6000fd5b505050505050505050565b604051633b11adbf60e21b81526002600482015233602482015273__$364aad554dc80380f414546becdd2c1584$__9063ec46b6fc9060440160206040518083038186803b15801561263b57600080fd5b505af415801561264f573d6000803e3d6000fd5b505050506040513d601f19601f820116820180604052508101906126739190614cc2565b61268f5760405162461bcd60e51b815260040161062790614fae565b600154604080516319fdcb7760e11b8152905183926001600160a01b0316916333fb96ee916004808301926020929190829003018186803b1580156126d357600080fd5b505afa1580156126e7573d6000803e3d6000fd5b505050506040513d601f19601f8201168201806040525081019061270b9190614b02565b6001600160a01b031663d50c7377826040518263ffffffff1660e01b815260040161273891815260200190565b60206040518083038186803b15801561275057600080fd5b505afa158015612764573d6000803e3d6000fd5b505050506040513d601f19601f820116820180604052508101906127889190614cc2565b6127a45760405162461bcd60e51b815260040161062790614cdd565b60015460408051639262826d60e01b815290516000926001600160a01b031691639262826d916004808301926020929190829003018186803b1580156127e957600080fd5b505afa1580156127fd573d6000803e3d6000fd5b505050506040513d601f19601f820116820180604052508101906128219190614b02565b6001600160a01b031663eb02c301856040518263ffffffff1660e01b815260040161284e91815260200190565b6101206040518083038186803b15801561286757600080fd5b505afa15801561287b573d6000803e3d6000fd5b505050506040513d601f19601f8201168201806040525081019061289f9190615319565b8051909150600461ffff90911611156129065760405162461bcd60e51b8152602060048201526024808201527f424f474b2e505452443a206e6f742061204469726563746f72277320706f73696044820152633a34b7b760e11b6064820152608401610627565b606081015164ffffffffff161580612928575082816060015164ffffffffff16145b61297e5760405162461bcd60e51b815260206004820152602160248201527f424f474b2e505452443a20686173206e6f206e6f6d696e6174696f6e526967686044820152601d60fa1b6064820152608401610627565b6001546040805163682ebf0560e01b815290516000926001600160a01b03169163682ebf05916004808301926020929190829003018186803b1580156129c357600080fd5b505afa1580156129d7573d6000803e3d6000fd5b505050506040513d601f19601f820116820180604052508101906129fb9190614b02565b60c08301516040516365a47e8160e01b81526004810188905261ffff9091166024820152604481018690529091506000906001600160a01b038316906365a47e8190606401602060405180830381600087803b158015612a5a57600080fd5b505af1158015612a6e573d6000803e3d6000fd5b505050506040513d601f19601f82011682018060405250810190612a929190614f49565b606084015190915064ffffffffff1615610eb0576040516304b79d5f60e11b81526001600160401b0382166004820152602481018690526001600160a01b0383169063096f3abe9060440161199f565b604051633b11adbf60e21b81526002600482015233602482015273__$364aad554dc80380f414546becdd2c1584$__9063ec46b6fc9060440160206040518083038186803b158015612b3357600080fd5b505af4158015612b47573d6000803e3d6000fd5b505050506040513d601f19601f82011682018060405250810190612b6b9190614cc2565b612b875760405162461bcd60e51b815260040161062790614fae565b600154604080516319fdcb7760e11b8152905183926001600160a01b0316916333fb96ee916004808301926020929190829003018186803b158015612bcb57600080fd5b505afa158015612bdf573d6000803e3d6000fd5b505050506040513d601f19601f82011682018060405250810190612c039190614b02565b6001600160a01b031663d50c7377826040518263ffffffff1660e01b8152600401612c3091815260200190565b60206040518083038186803b158015612c4857600080fd5b505afa158015612c5c573d6000803e3d6000fd5b505050506040513d601f19601f82011682018060405250810190612c809190614cc2565b612c9c5760405162461bcd60e51b815260040161062790614cdd565b612ca68583614344565b600160009054906101000a90046001600160a01b03166001600160a01b031663682ebf056040518163ffffffff1660e01b815260040160206040518083038186803b158015612cf457600080fd5b505afa158015612d08573d6000803e3d6000fd5b505050506040513d601f19601f82011682018060405250810190612d2c9190614b02565b6001600160a01b03166388125cf7868686600160009054906101000a90046001600160a01b03166001600160a01b03166333fb96ee6040518163ffffffff1660e01b815260040160206040518083038186803b158015612d8b57600080fd5b505afa158015612d9f573d6000803e3d6000fd5b505050506040513d601f19601f82011682018060405250810190612dc39190614b02565b6040516001600160e01b031960e087901b1681526004810194909452602484019290925260448301526001600160a01b031660648201526084810185905260a4016125b1565b604051633b11adbf60e21b81526002600482015233602482015273__$364aad554dc80380f414546becdd2c1584$__9063ec46b6fc9060440160206040518083038186803b158015612e5a57600080fd5b505af4158015612e6e573d6000803e3d6000fd5b505050506040513d601f19601f82011682018060405250810190612e929190614cc2565b612eae5760405162461bcd60e51b815260040161062790614fae565b600154604080516319fdcb7760e11b8152905183926001600160a01b0316916333fb96ee916004808301926020929190829003018186803b158015612ef257600080fd5b505afa158015612f06573d6000803e3d6000fd5b505050506040513d601f19601f82011682018060405250810190612f2a9190614b02565b6001600160a01b031663d50c7377826040518263ffffffff1660e01b8152600401612f5791815260200190565b60206040518083038186803b158015612f6f57600080fd5b505afa158015612f83573d6000803e3d6000fd5b505050506040513d601f19601f82011682018060405250810190612fa79190614cc2565b612fc35760405162461bcd60e51b815260040161062790614cdd565b600160009054906101000a90046001600160a01b03166001600160a01b031663682ebf056040518163ffffffff1660e01b815260040160206040518083038186803b15801561301157600080fd5b505afa158015613025573d6000803e3d6000fd5b505050506040513d601f19601f820116820180604052508101906130499190614b02565b6001600160a01b031663bbfd607d898989898989896040518863ffffffff1660e01b81526004016130809796959493929190614be8565b602060405180830381600087803b15801561309a57600080fd5b505af11580156130ae573d6000803e3d6000fd5b505050506040513d601f19601f820116820180604052508101906125df9190614f49565b604051633b11adbf60e21b81526002600482015233602482015273__$364aad554dc80380f414546becdd2c1584$__9063ec46b6fc9060440160206040518083038186803b15801561312357600080fd5b505af4158015613137573d6000803e3d6000fd5b505050506040513d601f19601f8201168201806040525081019061315b9190614cc2565b6131775760405162461bcd60e51b815260040161062790614fae565b600154604080516319fdcb7760e11b8152905183926001600160a01b0316916333fb96ee916004808301926020929190829003018186803b1580156131bb57600080fd5b505afa1580156131cf573d6000803e3d6000fd5b505050506040513d601f19601f820116820180604052508101906131f39190614b02565b6001600160a01b031663d50c7377826040518263ffffffff1660e01b815260040161322091815260200190565b60206040518083038186803b15801561323857600080fd5b505afa15801561324c573d6000803e3d6000fd5b505050506040513d601f19601f820116820180604052508101906132709190614cc2565b61328c5760405162461bcd60e51b815260040161062790614cdd565b6001546040805163682ebf0560e01b815290516000926001600160a01b03169163682ebf05916004808301926020929190829003018186803b1580156132d157600080fd5b505afa1580156132e5573d6000803e3d6000fd5b505050506040513d601f19601f820116820180604052508101906133099190614b02565b60405163cd43b16560e01b81526001600160a01b03888116600483015260248201889052604482018790526064820186905291925060009183169063cd43b16590608401602060405180830381600087803b15801561336757600080fd5b505af115801561337b573d6000803e3d6000fd5b505050506040513d601f19601f8201168201806040525081019061339f9190614f49565b905060078611158015613425575060405163143b4f6f60e11b8152600481018590526001600160a01b038816906328769ede9060240160206040518083038186803b1580156133ed57600080fd5b505afa158015613401573d6000803e3d6000fd5b505050506040513d601f19601f820116820180604052508101906134259190614cc2565b15613466576040516304b79d5f60e11b81526001600160401b0382166004820152602481018590526001600160a01b0383169063096f3abe906044016104a9565b50505050505050565b604051633b11adbf60e21b81526002600482015233602482015273__$364aad554dc80380f414546becdd2c1584$__9063ec46b6fc9060440160206040518083038186803b1580156134c057600080fd5b505af41580156134d4573d6000803e3d6000fd5b505050506040513d601f19601f820116820180604052508101906134f89190614cc2565b6135145760405162461bcd60e51b815260040161062790614fae565b600160009054906101000a90046001600160a01b03166001600160a01b031663682ebf056040518163ffffffff1660e01b815260040160206040518083038186803b15801561356257600080fd5b505afa158015613576573d6000803e3d6000fd5b505050506040513d601f19601f8201168201806040525081019061359a9190614b02565b6001600160a01b031663d1a0ce566040518163ffffffff1660e01b8152600401600060405180830381600087803b1580156135d457600080fd5b505af11580156135e8573d6000803e3d6000fd5b50505050565b604051636cdd0edf60e11b815260026004820152602481018590526001600160a01b038416604482015273__$364aad554dc80380f414546becdd2c1584$__9063d9ba1dbe9060640160006040518083038186803b15801561364f57600080fd5b505af4158015613663573d6000803e3d6000fd5b5050505061367082614520565b61367981614593565b604080518581526001600160a01b038581166020830152848116828401528316606082015290517f3abb2418c66fe32ba9c883030a75ce583971d9af9192b9b74e44e67c5e6c8c1f9181900360800190a150505050565b604051633c3e56c160e11b81526002600482015260009073__$364aad554dc80380f414546becdd2c1584$__9063787cad829060240160206040518083038186803b15801561371e57600080fd5b505af4158015613732573d6000803e3d6000fd5b505050506040513d601f19601f8201168201806040525081019061056b9190614b02565b600254600160f01b900460ff166001146137b25760405162461bcd60e51b815260206004820152601760248201527f41432e4c433a20446f632069732066696e616c697a65640000000000000000006044820152606401610627565b73__$364aad554dc80380f414546becdd2c1584$__63c51b295f6002684174746f726e65797360b81b6137e36142ea565b6040516001600160e01b031960e086901b1681526004810193909352602483019190915264ffffffffff16604482015260640160006040518083038186803b15801561382e57600080fd5b505af4158015613842573d6000803e3d6000fd5b50505050600273__$364aad554dc80380f414546becdd2c1584$__639b4510de9091600061386e6142ea565b6040516001600160e01b031960e086901b1681526004810193909352602483019190915264ffffffffff16604482015260640160006040518083038186803b1580156138b957600080fd5b505af41580156138cd573d6000803e3d6000fd5b50505050600273__$364aad554dc80380f414546becdd2c1584$__639b48160c909160006138f96142ea565b6040516001600160e01b031960e086901b1681526004810193909352602483019190915264ffffffffff16604482015260640160006040518083038186803b15801561394457600080fd5b505af4158015613958573d6000803e3d6000fd5b50506002805460ff60f01b1916600160f11b17905550506040517f35012b512309c322acf68632cd6cb702ff0e1d776fbe9394e38ffc13b434fe7590600090a1565b604051633b11adbf60e21b81526002600482015233602482015273__$364aad554dc80380f414546becdd2c1584$__9063ec46b6fc9060440160206040518083038186803b1580156139eb57600080fd5b505af41580156139ff573d6000803e3d6000fd5b505050506040513d601f19601f82011682018060405250810190613a239190614cc2565b613a3f5760405162461bcd60e51b815260040161062790614fae565b600154604080516319fdcb7760e11b8152905183926001600160a01b0316916333fb96ee916004808301926020929190829003018186803b158015613a8357600080fd5b505afa158015613a97573d6000803e3d6000fd5b505050506040513d601f19601f82011682018060405250810190613abb9190614b02565b6001600160a01b031663d50c7377826040518263ffffffff1660e01b8152600401613ae891815260200190565b60206040518083038186803b158015613b0057600080fd5b505afa158015613b14573d6000803e3d6000fd5b505050506040513d601f19601f82011682018060405250810190613b389190614cc2565b613b545760405162461bcd60e51b815260040161062790614cdd565b6001546040805163682ebf0560e01b815290516000926001600160a01b03169163682ebf05916004808301926020929190829003018186803b158015613b9957600080fd5b505afa158015613bad573d6000803e3d6000fd5b505050506040513d601f19601f82011682018060405250810190613bd19190614b02565b90506000600160009054906101000a90046001600160a01b03166001600160a01b03166333fb96ee6040518163ffffffff1660e01b815260040160206040518083038186803b158015613c2357600080fd5b505afa158015613c37573d6000803e3d6000fd5b505050506040513d601f19601f82011682018060405250810190613c5b9190614b02565b60405163568ad56960e11b8152600481018790529091506000906001600160a01b0384169063ad15aad2906024016103e06040518083038186803b158015613ca257600080fd5b505afa158015613cb6573d6000803e3d6000fd5b505050506040513d601f19601f82011682018060405250810190613cda9190615237565b60408051608081018252600080825260208201819052818301819052606082018190529151630597757b60e21b8152600481018a905260248101839052929350916001600160a01b0386169063165dd5ec9060440160006040518083038186803b158015613d4757600080fd5b505afa158015613d5b573d6000803e3d6000fd5b505050506040513d6000823e601f3d908101601f19168201604052613d83919081019061541f565b9050826040015160c0015115613db557805163ffffffff1682526020808201516001600160401b031690830152614286565b836001600160a01b03166329d01b3a6040518163ffffffff1660e01b815260040160206040518083038186803b158015613dee57600080fd5b505afa158015613e02573d6000803e3d6000fd5b505050506040513d601f19601f82011682018060405250810190613e2691906154c3565b63ffffffff1682526040805162e4df9160e81b815290516001600160a01b0386169163e4df9100916004808301926020929190829003018186803b158015613e6d57600080fd5b505afa158015613e81573d6000803e3d6000fd5b505050506040513d601f19601f82011682018060405250810190613ea59190614cc2565b613f3c5760208301516040908101519051632e94bd2b60e21b815265ffffffffffff90911660048201526001600160a01b0385169063ba52f4ac9060240160806040518083038186803b158015613efb57600080fd5b505afa158015613f0f573d6000803e3d6000fd5b505050506040513d601f19601f82011682018060405250810190613f3391906154de565b60200151613fcb565b60208301516040908101519051632e94bd2b60e21b815265ffffffffffff90911660048201526001600160a01b0385169063ba52f4ac9060240160806040518083038186803b158015613f8e57600080fd5b505afa158015613fa2573d6000803e3d6000fd5b505050506040513d601f19601f82011682018060405250810190613fc691906154de565b604001515b6001600160401b03166020830152604083015160e001511561402c5780518251613ffb9163ffffffff169061555a565b6001600160401b031660408301526020808201519083015161401d919061555a565b6001600160401b031660608301525b82515161ffff166003141561428657600083606001516001600160a01b031663a8311aa86040518163ffffffff1660e01b815260040160006040518083038186803b15801561407a57600080fd5b505afa15801561408e573d6000803e3d6000fd5b505050506040513d6000823e601f3d908101601f191682016040526140b69190810190615582565b80519091505b80156142835760006001600160a01b038716632bf82aab846140df6001866155be565b815181106140ef576140ef6155d5565b60200260200101518860200151604001516040518363ffffffff1660e01b815260040161412e92919091825265ffffffffffff16602082015260400190565b60206040518083038186803b15801561414657600080fd5b505afa15801561415a573d6000803e3d6000fd5b505050506040513d601f19601f8201168201806040525081019061417e9190614f49565b90506001600160401b038116156142705785604001516101000151156141ed57856040015160e001516141e857604085018051906141bb826155eb565b6001600160401b03169052506060850180518291906141db908390615612565b6001600160401b03169052505b614270565b8451856141f98261563d565b6001600160401b031690525060208501805182919061421990839061555a565b6001600160401b0316905250604086015160e001511561427057604085018051906142438261563d565b6001600160401b031690525060608501805182919061426390839061555a565b6001600160401b03169052505b8161427a81615660565b925050506140bc565b50505b6040805163a0743e7160e01b8152600481018a905283516001600160401b0390811660248301526020850151811660448301529184015182166064820152606084015190911660848201526001600160a01b0386169063a0743e719060a401610c5f565b60008054604051636ae3b70d60e11b81523360048201526001600160a01b039091169063d5c76e1a90602401602060405180830381600087803b15801561433057600080fd5b505af1158015610547573d6000803e3d6000fd5b6001546040805163682ebf0560e01b815290516000926001600160a01b03169163682ebf05916004808301926020929190829003018186803b15801561438957600080fd5b505afa15801561439d573d6000803e3d6000fd5b505050506040513d601f19601f820116820180604052508101906143c19190614b02565b6001600160a01b031663ad15aad2846040518263ffffffff1660e01b81526004016143ee91815260200190565b6103e06040518083038186803b15801561440757600080fd5b505afa15801561441b573d6000803e3d6000fd5b505050506040513d601f19601f8201168201806040525081019061443f9190615237565b80515190915061ffff166003141561451b57606081015160405163143b4f6f60e11b8152600481018490526001600160a01b038216906328769ede9060240160206040518083038186803b15801561449657600080fd5b505afa1580156144aa573d6000803e3d6000fd5b505050506040513d601f19601f820116820180604052508101906144ce9190614cc2565b156135e85760405162461bcd60e51b815260206004820152601960248201527f424f474b2e41433a2069732072656c61746564207061727479000000000000006044820152606401610627565b505050565b6000546001600160a01b0316156145715760405162461bcd60e51b815260206004820152601560248201527430b63932b0b23c9039b2ba103932b3a1b2b73a32b960591b6044820152606401610627565b600080546001600160a01b0319166001600160a01b0392909216919091179055565b6001546001600160a01b0316156145ec5760405162461bcd60e51b815260206004820152601960248201527f616c7265616479207365742067656e6572616c4b6565706572000000000000006044820152606401610627565b600180546001600160a01b0319166001600160a01b0392909216919091179055565b634e487b7160e01b600052604160045260246000fd5b60405161014081016001600160401b03811182821017156146475761464761460e565b60405290565b60405160a081016001600160401b03811182821017156146475761464761460e565b60405160e081016001600160401b03811182821017156146475761464761460e565b6040516101e081016001600160401b03811182821017156146475761464761460e565b604051608081016001600160401b03811182821017156146475761464761460e565b60405161012081016001600160401b03811182821017156146475761464761460e565b604051601f8201601f191681016001600160401b03811182821017156147215761472161460e565b604052919050565b60006001600160401b038211156147425761474261460e565b5060051b60200190565b6001600160a01b038116811461476157600080fd5b50565b600082601f83011261477557600080fd5b8135602061478a61478583614729565b6146f9565b82815260059290921b840181019181810190868411156147a957600080fd5b8286015b848110156147c457803583529183019183016147ad565b509695505050505050565b6000601f83818401126147e157600080fd5b823560206147f161478583614729565b82815260059290921b8501810191818101908784111561481057600080fd5b8287015b848110156148a65780356001600160401b03808211156148345760008081fd5b818a0191508a603f8301126148495760008081fd5b8582013560408282111561485f5761485f61460e565b614870828b01601f191689016146f9565b92508183528c818386010111156148875760008081fd5b8181850189850137506000908201870152845250918301918301614814565b50979650505050505050565b600080600080600080600060e0888a0312156148cd57600080fd5b873596506020808901356001600160401b03808211156148ec57600080fd5b818b0191508b601f83011261490057600080fd5b813561490e61478582614729565b81815260059190911b8301840190848101908e83111561492d57600080fd5b938501935b828510156149545784356149458161474c565b82529385019390850190614932565b9a50505060408b013592508083111561496c57600080fd5b6149788c848d01614764565b975060608b013592508083111561498e57600080fd5b505061499c8a828b016147cf565b979a969950949760808101359660a0820135965060c090910135945092505050565b600080604083850312156149d157600080fd5b50508035926020909101359150565b6000602082840312156149f257600080fd5b81356121708161474c565b600080600060608486031215614a1257600080fd5b505081359360208301359350604090920135919050565b600060208284031215614a3b57600080fd5b5035919050565b60008060008060808587031215614a5857600080fd5b5050823594602084013594506040840135936060013592509050565b60008060008060808587031215614a8a57600080fd5b8435614a958161474c565b966020860135965060408601359560600135945092505050565b60008060008060808587031215614ac557600080fd5b843593506020850135614ad78161474c565b92506040850135614ae78161474c565b91506060850135614af78161474c565b939692955090935050565b600060208284031215614b1457600080fd5b81516121708161474c565b600081518084526020808501945080840160005b83811015614b4f57815187529582019590820190600101614b33565b509495945050505050565b600081518084526020808501808196508360051b810191508286016000805b86811015614bda578385038a5282518051808752835b81811015614baa578281018901518882018a01528801614b8f565b81811115614bba578489838a0101525b509a87019a601f01601f1916959095018601945091850191600101614b79565b509298975050505050505050565b600060e08201898352602060e081850152818a5180845261010086019150828c01935060005b81811015614c335784516001600160a01b031683529383019391830191600101614c0e565b50508481036040860152614c47818b614b1f565b925050508281036060840152614c5d8188614b5a565b6080840196909652505060a081019290925260c090910152949350505050565b805164ffffffffff81168114614c9257600080fd5b919050565b600060208284031215614ca957600080fd5b61217082614c7d565b80518015158114614c9257600080fd5b600060208284031215614cd457600080fd5b61217082614cb2565b6020808252601690820152752127a3a59736b31726a29d102727aa1026b2b6b132b960511b604082015260600190565b600060208284031215614d1f57600080fd5b5051919050565b805161ffff81168114614c9257600080fd5b805160ff81168114614c9257600080fd5b60006101408284031215614d5c57600080fd5b614d64614624565b614d6d83614d26565b8152614d7b60208401614d38565b6020820152614d8c60408401614d38565b6040820152614d9d60608401614cb2565b6060820152614dae60808401614d26565b6080820152614dbf60a08401614d26565b60a0820152614dd060c08401614d26565b60c0820152614de160e08401614d26565b60e0820152610100614df4818501614d26565b90820152610120614e06848201614d26565b908201529392505050565b80516001600160401b0381168114614c9257600080fd5b805163ffffffff81168114614c9257600080fd5b60006020808385031215614e4f57600080fd5b82516001600160401b0380821115614e6657600080fd5b9084019060a08287031215614e7a57600080fd5b614e8261464d565b614e8b83614c7d565b8152614e98848401614e11565b84820152614ea860408401614e11565b6040820152614eb960608401614e28565b6060820152608083015182811115614ed057600080fd5b80840193505086601f840112614ee557600080fd5b82519150614ef561478583614729565b82815260059290921b83018401918481019088841115614f1457600080fd5b938501935b83851015614f3957614f2a85614c7d565b82529385019390850190614f19565b6080830152509695505050505050565b600060208284031215614f5b57600080fd5b61217082614e11565b634e487b7160e01b600052601160045260246000fd5b60006001600160401b0380841680614fa257634e487b7160e01b600052601260045260246000fd5b92169190910492915050565b60208082526026908201527f41432e6f6e6c794469726563744b65657065723a206e6f74206469726563742060408201526535b2b2b832b960d11b606082015260800190565b805165ffffffffffff81168114614c9257600080fd5b600060e0828403121561501c57600080fd5b61502461466f565b905061502f82614c7d565b815261503d60208301614ff4565b602082015261504e60408301614ff4565b604082015261505f60608301614ff4565b606082015261507060808301614ff4565b608082015261508160a08301614d26565b60a082015261509260c08301614d38565b60c082015292915050565b600082601f8301126150ae57600080fd5b604051604081018181106001600160401b03821117156150d0576150d061460e565b80604052508060408401858111156150e757600080fd5b845b81811015615108576150fa81614c7d565b8352602092830192016150e9565b509195945050505050565b6000610200828403121561512657600080fd5b61512e614691565b905061513982614d26565b815261514760208301614d38565b602082015261515860408301614d38565b604082015261516960608301614d26565b606082015261517a60808301614d26565b608082015261518b60a08301614d26565b60a082015261519c60c08301614cb2565b60c08201526151ad60e08301614cb2565b60e08201526101006151c0818401614cb2565b908201526101206151d2838201614cb2565b908201526101406151e4838201614d26565b908201526101606151f6838201614d26565b90820152610180615208838201614d26565b908201526101a061521a838201614d26565b908201526101c061522d8484830161509d565b9082015292915050565b60008183036103e081121561524b57600080fd5b6152536146b4565b60e082121561526157600080fd5b61526961466f565b915061527484614d26565b825261528260208501614e11565b602083015261529360408501614d26565b60408301526152a460608501614c7d565b60608301526152b560808501614c7d565b60808301526152c660a08501614ff4565b60a08301526152d760c08501614e28565b60c08301528181526152ec8560e0860161500a565b60208201526152ff856101c08601615113565b60408201526103c093909301516060840152509092915050565b6000610120828403121561532c57600080fd5b6153346146d6565b61533d83614d26565b815261534b60208401614d26565b602082015261535c60408401614c7d565b604082015261536d60608401614c7d565b606082015261537e60808401614ff4565b608082015261538f60a08401614ff4565b60a08201526153a060c08401614d26565b60c08201526153b160e08401614d26565b60e0820152610100614e06818501614d26565b600082601f8301126153d557600080fd5b815160206153e561478583614729565b82815260059290921b8401810191818101908684111561540457600080fd5b8286015b848110156147c45780518352918301918301615408565b60006020828403121561543157600080fd5b81516001600160401b038082111561544857600080fd5b908301906060828603121561545c57600080fd5b6040516060810181811083821117156154775761547761460e565b60405261548383614e28565b815261549160208401614e11565b60208201526040830151828111156154a857600080fd5b6154b4878286016153c4565b60408301525095945050505050565b6000602082840312156154d557600080fd5b61217082614e28565b6000608082840312156154f057600080fd5b604051608081018181106001600160401b03821117156155125761551261460e565b60405261551e83614ff4565b815261552c60208401614e11565b602082015261553d60408401614e11565b604082015261554e60608401614e11565b60608201529392505050565b60006001600160401b038381169083168181101561557a5761557a614f64565b039392505050565b60006020828403121561559457600080fd5b81516001600160401b038111156155aa57600080fd5b6155b6848285016153c4565b949350505050565b6000828210156155d0576155d0614f64565b500390565b634e487b7160e01b600052603260045260246000fd5b60006001600160401b038083168181141561560857615608614f64565b6001019392505050565b60006001600160401b0380831681851680830382111561563457615634614f64565b01949350505050565b60006001600160401b0382168061565657615656614f64565b6000190192915050565b60008161566f5761566f614f64565b50600019019056fea26469706673582212201016c9822d04f083ec5ecacc977083ddeb37708d0672d34e751cd3de78c6bdd564736f6c63430008080033",
    "sourcePath": "/Users/kaptain/github.com/hardhat/comboox/contracts/keepers/BOGKeeper.sol",
    "compiler": {
        "name": "solc",
        "version": "0.8.8+commit.dddeac2f"
    },
    "functionHashes": {
        "abandonRole(bytes32)": "3da9a600",
        "castVoteOfGM(uint256,uint256,bytes32,uint256)": "a8459ac0",
        "createBoardSeal(address)": "180dc60e",
        "createCorpSeal()": "d1a0ce56",
        "entrustDelegateOfMember(uint256,uint256,uint256)": "3b9f1b81",
        "execActionOfGM(uint256,address[],uint256[],bytes[],bytes32,uint256,uint256)": "020c814d",
        "finalized()": "b3f05b97",
        "getBookeeper()": "ed211023",
        "getGeneralCounsel()": "103f6edd",
        "getOwner()": "893d20e8",
        "grantRole(bytes32,uint256)": "1b6ea9f9",
        "hasRole(bytes32,uint256)": "7e063c5a",
        "init(uint256,address,address,address)": "dc890da9",
        "lockContents()": "f045a769",
        "nominateDirector(uint256,uint256,uint256)": "3c44bcb6",
        "proposeActionOfGM(uint256,address[],uint256[],bytes[],bytes32,uint256,uint256)": "c24cb859",
        "proposeDocOfGM(address,uint256,uint256,uint256)": "d0e27e10",
        "proposeMotionOfGM(uint256,uint256)": "1153cd2e",
        "proposeToRemoveDirector(uint256,uint256)": "a6098807",
        "removeDirector(uint256,uint256,uint256,uint256)": "9d7d867b",
        "renounceRole(bytes32)": "8bb9c5bf",
        "revokeRole(bytes32,uint256)": "19d61ad9",
        "setDirectKeeper(address)": "6be8496f",
        "setGeneralCounsel(uint256)": "4a14beb1",
        "setOwner(uint256)": "8041494e",
        "setRoleAdmin(bytes32,uint256)": "5171ebd4",
        "takeSeat(uint256,uint256,uint256)": "7451ce03",
        "voteCountingOfGM(uint256,uint256)": "f1e9e7f7"
    },
    "gasEstimates": {
        "creation": {
            "codeDepositCost": "4437800",
            "executionCost": "5155",
            "totalCost": "4442955"
        },
        "external": {
            "abandonRole(bytes32)": "infinite",
            "castVoteOfGM(uint256,uint256,bytes32,uint256)": "infinite",
            "createBoardSeal(address)": "infinite",
            "createCorpSeal()": "infinite",
            "entrustDelegateOfMember(uint256,uint256,uint256)": "infinite",
            "execActionOfGM(uint256,address[],uint256[],bytes[],bytes32,uint256,uint256)": "infinite",
            "finalized()": "2438",
            "getBookeeper()": "infinite",
            "getGeneralCounsel()": "infinite",
            "getOwner()": "infinite",
            "grantRole(bytes32,uint256)": "infinite",
            "hasRole(bytes32,uint256)": "infinite",
            "init(uint256,address,address,address)": "infinite",
            "lockContents()": "infinite",
            "nominateDirector(uint256,uint256,uint256)": "infinite",
            "proposeActionOfGM(uint256,address[],uint256[],bytes[],bytes32,uint256,uint256)": "infinite",
            "proposeDocOfGM(address,uint256,uint256,uint256)": "infinite",
            "proposeMotionOfGM(uint256,uint256)": "infinite",
            "proposeToRemoveDirector(uint256,uint256)": "infinite",
            "removeDirector(uint256,uint256,uint256,uint256)": "infinite",
            "renounceRole(bytes32)": "infinite",
            "revokeRole(bytes32,uint256)": "infinite",
            "setDirectKeeper(address)": "infinite",
            "setGeneralCounsel(uint256)": "infinite",
            "setOwner(uint256)": "infinite",
            "setRoleAdmin(bytes32,uint256)": "infinite",
            "takeSeat(uint256,uint256,uint256)": "infinite",
            "voteCountingOfGM(uint256,uint256)": "infinite"
        },
        "internal": {
            "_avoidanceCheck(uint256,uint256)": "infinite"
        }
    }
}