{
    "contractName": "BOGKeeper",
    "abi": [
        {
            "anonymous": false,
            "inputs": [
                {
                    "indexed": true,
                    "internalType": "uint256",
                    "name": "owner",
                    "type": "uint256"
                },
                {
                    "indexed": true,
                    "internalType": "address",
                    "name": "directKeeper",
                    "type": "address"
                },
                {
                    "indexed": false,
                    "internalType": "address",
                    "name": "regCenter",
                    "type": "address"
                },
                {
                    "indexed": true,
                    "internalType": "address",
                    "name": "generalKeeper",
                    "type": "address"
                }
            ],
            "name": "Init",
            "type": "event"
        },
        {
            "anonymous": false,
            "inputs": [],
            "name": "LockContents",
            "type": "event"
        },
        {
            "anonymous": false,
            "inputs": [
                {
                    "indexed": true,
                    "internalType": "address",
                    "name": "target",
                    "type": "address"
                }
            ],
            "name": "RemoveDirectKeeper",
            "type": "event"
        },
        {
            "anonymous": false,
            "inputs": [
                {
                    "indexed": true,
                    "internalType": "address",
                    "name": "keeper",
                    "type": "address"
                }
            ],
            "name": "SetDirectKeeper",
            "type": "event"
        },
        {
            "anonymous": false,
            "inputs": [
                {
                    "indexed": true,
                    "internalType": "uint256",
                    "name": "acct",
                    "type": "uint256"
                }
            ],
            "name": "SetGeneralCounsel",
            "type": "event"
        },
        {
            "anonymous": false,
            "inputs": [
                {
                    "indexed": true,
                    "internalType": "uint256",
                    "name": "acct",
                    "type": "uint256"
                }
            ],
            "name": "SetOwner",
            "type": "event"
        },
        {
            "inputs": [
                {
                    "internalType": "bytes32",
                    "name": "role",
                    "type": "bytes32"
                }
            ],
            "name": "abandonRole",
            "outputs": [],
            "stateMutability": "nonpayable",
            "type": "function"
        },
        {
            "inputs": [
                {
                    "internalType": "uint256",
                    "name": "seqOfMotion",
                    "type": "uint256"
                },
                {
                    "internalType": "uint256",
                    "name": "attitude",
                    "type": "uint256"
                },
                {
                    "internalType": "bytes32",
                    "name": "sigHash",
                    "type": "bytes32"
                },
                {
                    "internalType": "uint256",
                    "name": "caller",
                    "type": "uint256"
                }
            ],
            "name": "castVoteOfGM",
            "outputs": [],
            "stateMutability": "nonpayable",
            "type": "function"
        },
        {
            "inputs": [
                {
                    "internalType": "uint256",
                    "name": "seqOfVR",
                    "type": "uint256"
                },
                {
                    "internalType": "address[]",
                    "name": "targets",
                    "type": "address[]"
                },
                {
                    "internalType": "uint256[]",
                    "name": "values",
                    "type": "uint256[]"
                },
                {
                    "internalType": "bytes[]",
                    "name": "params",
                    "type": "bytes[]"
                },
                {
                    "internalType": "bytes32",
                    "name": "desHash",
                    "type": "bytes32"
                },
                {
                    "internalType": "uint256",
                    "name": "executor",
                    "type": "uint256"
                },
                {
                    "internalType": "uint256",
                    "name": "proposer",
                    "type": "uint256"
                }
            ],
            "name": "createActionOfGM",
            "outputs": [],
            "stateMutability": "nonpayable",
            "type": "function"
        },
        {
            "inputs": [
                {
                    "internalType": "uint256",
                    "name": "seqOfPos",
                    "type": "uint256"
                },
                {
                    "internalType": "uint256",
                    "name": "caller",
                    "type": "uint256"
                }
            ],
            "name": "createMotionToRemoveDirector",
            "outputs": [],
            "stateMutability": "nonpayable",
            "type": "function"
        },
        {
            "inputs": [
                {
                    "internalType": "uint256",
                    "name": "seqOfMotion",
                    "type": "uint256"
                },
                {
                    "internalType": "uint256",
                    "name": "delegate",
                    "type": "uint256"
                },
                {
                    "internalType": "uint256",
                    "name": "caller",
                    "type": "uint256"
                }
            ],
            "name": "entrustDelegaterForGeneralMeeting",
            "outputs": [],
            "stateMutability": "nonpayable",
            "type": "function"
        },
        {
            "inputs": [
                {
                    "internalType": "uint256",
                    "name": "typeOfAction",
                    "type": "uint256"
                },
                {
                    "internalType": "address[]",
                    "name": "targets",
                    "type": "address[]"
                },
                {
                    "internalType": "uint256[]",
                    "name": "values",
                    "type": "uint256[]"
                },
                {
                    "internalType": "bytes[]",
                    "name": "params",
                    "type": "bytes[]"
                },
                {
                    "internalType": "bytes32",
                    "name": "desHash",
                    "type": "bytes32"
                },
                {
                    "internalType": "uint256",
                    "name": "seqOfMotion",
                    "type": "uint256"
                },
                {
                    "internalType": "uint256",
                    "name": "caller",
                    "type": "uint256"
                }
            ],
            "name": "execActionOfGM",
            "outputs": [
                {
                    "internalType": "uint256",
                    "name": "",
                    "type": "uint256"
                }
            ],
            "stateMutability": "nonpayable",
            "type": "function"
        },
        {
            "inputs": [],
            "name": "finalized",
            "outputs": [
                {
                    "internalType": "bool",
                    "name": "",
                    "type": "bool"
                }
            ],
            "stateMutability": "view",
            "type": "function"
        },
        {
            "inputs": [],
            "name": "getBookeeper",
            "outputs": [
                {
                    "internalType": "address",
                    "name": "",
                    "type": "address"
                }
            ],
            "stateMutability": "view",
            "type": "function"
        },
        {
            "inputs": [],
            "name": "getGeneralCounsel",
            "outputs": [
                {
                    "internalType": "uint40",
                    "name": "",
                    "type": "uint40"
                }
            ],
            "stateMutability": "view",
            "type": "function"
        },
        {
            "inputs": [],
            "name": "getOwner",
            "outputs": [
                {
                    "internalType": "uint40",
                    "name": "",
                    "type": "uint40"
                }
            ],
            "stateMutability": "view",
            "type": "function"
        },
        {
            "inputs": [
                {
                    "internalType": "bytes32",
                    "name": "role",
                    "type": "bytes32"
                },
                {
                    "internalType": "uint256",
                    "name": "acct",
                    "type": "uint256"
                }
            ],
            "name": "grantRole",
            "outputs": [],
            "stateMutability": "nonpayable",
            "type": "function"
        },
        {
            "inputs": [
                {
                    "internalType": "bytes32",
                    "name": "role",
                    "type": "bytes32"
                },
                {
                    "internalType": "uint256",
                    "name": "acct",
                    "type": "uint256"
                }
            ],
            "name": "hasRole",
            "outputs": [
                {
                    "internalType": "bool",
                    "name": "",
                    "type": "bool"
                }
            ],
            "stateMutability": "view",
            "type": "function"
        },
        {
            "inputs": [
                {
                    "internalType": "uint256",
                    "name": "owner",
                    "type": "uint256"
                },
                {
                    "internalType": "address",
                    "name": "directKeeper",
                    "type": "address"
                },
                {
                    "internalType": "address",
                    "name": "regCenter",
                    "type": "address"
                },
                {
                    "internalType": "address",
                    "name": "generalKeeper",
                    "type": "address"
                }
            ],
            "name": "init",
            "outputs": [],
            "stateMutability": "nonpayable",
            "type": "function"
        },
        {
            "inputs": [],
            "name": "lockContents",
            "outputs": [],
            "stateMutability": "nonpayable",
            "type": "function"
        },
        {
            "inputs": [
                {
                    "internalType": "uint256",
                    "name": "seqOfPos",
                    "type": "uint256"
                },
                {
                    "internalType": "uint256",
                    "name": "candidate",
                    "type": "uint256"
                },
                {
                    "internalType": "uint256",
                    "name": "nominator",
                    "type": "uint256"
                }
            ],
            "name": "nominateDirector",
            "outputs": [],
            "stateMutability": "nonpayable",
            "type": "function"
        },
        {
            "inputs": [
                {
                    "internalType": "address",
                    "name": "doc",
                    "type": "address"
                },
                {
                    "internalType": "uint256",
                    "name": "seqOfVR",
                    "type": "uint256"
                },
                {
                    "internalType": "uint256",
                    "name": "executor",
                    "type": "uint256"
                },
                {
                    "internalType": "uint256",
                    "name": "proposer",
                    "type": "uint256"
                }
            ],
            "name": "proposeDocOfGM",
            "outputs": [],
            "stateMutability": "nonpayable",
            "type": "function"
        },
        {
            "inputs": [
                {
                    "internalType": "uint256",
                    "name": "seqOfMotion",
                    "type": "uint256"
                },
                {
                    "internalType": "uint256",
                    "name": "caller",
                    "type": "uint256"
                }
            ],
            "name": "proposeMotionToGeneralMeeting",
            "outputs": [],
            "stateMutability": "nonpayable",
            "type": "function"
        },
        {
            "inputs": [
                {
                    "internalType": "address",
                    "name": "target",
                    "type": "address"
                }
            ],
            "name": "removeDirectKeeper",
            "outputs": [],
            "stateMutability": "nonpayable",
            "type": "function"
        },
        {
            "inputs": [
                {
                    "internalType": "uint256",
                    "name": "seqOfMotion",
                    "type": "uint256"
                },
                {
                    "internalType": "uint256",
                    "name": "seqOfPos",
                    "type": "uint256"
                },
                {
                    "internalType": "uint256",
                    "name": "caller",
                    "type": "uint256"
                }
            ],
            "name": "removeDirector",
            "outputs": [],
            "stateMutability": "nonpayable",
            "type": "function"
        },
        {
            "inputs": [
                {
                    "internalType": "bytes32",
                    "name": "role",
                    "type": "bytes32"
                }
            ],
            "name": "renounceRole",
            "outputs": [],
            "stateMutability": "nonpayable",
            "type": "function"
        },
        {
            "inputs": [
                {
                    "internalType": "bytes32",
                    "name": "role",
                    "type": "bytes32"
                },
                {
                    "internalType": "uint256",
                    "name": "acct",
                    "type": "uint256"
                }
            ],
            "name": "revokeRole",
            "outputs": [],
            "stateMutability": "nonpayable",
            "type": "function"
        },
        {
            "inputs": [
                {
                    "internalType": "address",
                    "name": "keeper",
                    "type": "address"
                }
            ],
            "name": "setDirectKeeper",
            "outputs": [],
            "stateMutability": "nonpayable",
            "type": "function"
        },
        {
            "inputs": [
                {
                    "internalType": "uint256",
                    "name": "acct",
                    "type": "uint256"
                }
            ],
            "name": "setGeneralCounsel",
            "outputs": [],
            "stateMutability": "nonpayable",
            "type": "function"
        },
        {
            "inputs": [
                {
                    "internalType": "uint256",
                    "name": "acct",
                    "type": "uint256"
                }
            ],
            "name": "setOwner",
            "outputs": [],
            "stateMutability": "nonpayable",
            "type": "function"
        },
        {
            "inputs": [
                {
                    "internalType": "bytes32",
                    "name": "role",
                    "type": "bytes32"
                },
                {
                    "internalType": "uint256",
                    "name": "acct",
                    "type": "uint256"
                }
            ],
            "name": "setRoleAdmin",
            "outputs": [],
            "stateMutability": "nonpayable",
            "type": "function"
        },
        {
            "inputs": [
                {
                    "internalType": "uint256",
                    "name": "seqOfMotion",
                    "type": "uint256"
                },
                {
                    "internalType": "uint256",
                    "name": "seqOfPos",
                    "type": "uint256"
                },
                {
                    "internalType": "uint256",
                    "name": "caller",
                    "type": "uint256"
                }
            ],
            "name": "takeSeat",
            "outputs": [],
            "stateMutability": "nonpayable",
            "type": "function"
        },
        {
            "inputs": [
                {
                    "internalType": "uint256",
                    "name": "seqOfMotion",
                    "type": "uint256"
                },
                {
                    "internalType": "uint256",
                    "name": "caller",
                    "type": "uint256"
                }
            ],
            "name": "voteCountingOfGM",
            "outputs": [],
            "stateMutability": "nonpayable",
            "type": "function"
        }
    ],
    "bytecode": "608060405234801561001057600080fd5b50615374806100206000396000f3fe608060405234801561001057600080fd5b50600436106101a95760003560e01c80637e063c5a116100f9578063b3f05b9711610097578063ec83613b11610071578063ec83613b14610389578063ed2110231461039c578063f045a769146103bc578063f1e9e7f7146103c457600080fd5b8063b3f05b971461034f578063d0e27e1014610363578063dc890da91461037657600080fd5b80638bb9c5bf116100d35780638bb9c5bf14610303578063906149f114610316578063a8459ac014610329578063acd4aa7b1461033c57600080fd5b80637e063c5a146102c55780638041494e146102e8578063893d20e8146102fb57600080fd5b80633c44bcb6116101665780635171ebd4116101405780635171ebd4146102795780635d7ad88f1461028c5780636be8496f1461029f5780637451ce03146102b257600080fd5b80633c44bcb6146102405780633da9a600146102535780634a14beb11461026657600080fd5b8063020c814d146101ae578063103f6edd146101d4578063142ed327146101f257806319d61ad9146102075780631b6ea9f91461021a578063348805241461022d575b600080fd5b6101c16101bc36600461448f565b6103d7565b6040519081526020015b60405180910390f35b6101dc6104e9565b60405164ffffffffff90911681526020016101cb565b61020561020036600461459b565b610575565b005b61020561021536600461459b565b610ad2565b61020561022836600461459b565b610b5c565b61020561023b3660046145bd565b610b82565b61020561024e3660046145bd565b610d26565b6102056102613660046145e9565b611229565b6102056102743660046145e9565b6112b4565b61020561028736600461459b565b611509565b61020561029a366004614602565b61152f565b6102056102ad366004614602565b611664565b6102056102c03660046145bd565b611713565b6102d86102d336600461459b565b611a5e565b60405190151581526020016101cb565b6102056102f63660046145e9565b611af9565b6101dc611baf565b6102056103113660046145e9565b611bea565b6102056103243660046145bd565b611c0f565b61020561033736600461461f565b611f2d565b61020561034a36600461448f565b6120a6565b60028054600160f01b900460ff16146102d8565b610205610371366004614651565b612483565b61020561038436600461468c565b612a63565b61020561039736600461459b565b612b3b565b6103a4612d6a565b6040516001600160a01b0390911681526020016101cb565b610205612df0565b6102056103d236600461459b565b61303a565b6001546040805163682ebf0560e01b815290516000926001600160a01b03169163682ebf05916004808301926020929190829003018186803b15801561041c57600080fd5b505afa158015610430573d6000803e3d6000fd5b505050506040513d601f19601f8201168201806040525081019061045491906146df565b6001600160a01b0316635c2753bf898989898989896040518863ffffffff1660e01b815260040161048b97969594939291906147c5565b602060405180830381600087803b1580156104a557600080fd5b505af11580156104b9573d6000803e3d6000fd5b505050506040513d601f19601f820116820180604052508101906104dd919061485a565b98975050505050505050565b60405163e8c0cc1d60e01b81526002600482015260009073__$a374c895e6fa8c448878668e00d93ef99a$__9063e8c0cc1d906024015b60206040518083038186803b15801561053857600080fd5b505af415801561054c573d6000803e3d6000fd5b505050506040513d601f19601f82011682018060405250810190610570919061488d565b905090565b604051633b11adbf60e21b81526002600482015233602482015273__$a374c895e6fa8c448878668e00d93ef99a$__9063ec46b6fc9060440160206040518083038186803b1580156105c657600080fd5b505af41580156105da573d6000803e3d6000fd5b505050506040513d601f19601f820116820180604052508101906105fe91906148b8565b6106235760405162461bcd60e51b815260040161061a906148d3565b60405180910390fd5b600154604080516319fdcb7760e11b8152905183926001600160a01b0316916333fb96ee916004808301926020929190829003018186803b15801561066757600080fd5b505afa15801561067b573d6000803e3d6000fd5b505050506040513d601f19601f8201168201806040525081019061069f91906146df565b6001600160a01b031663d50c7377826040518263ffffffff1660e01b81526004016106cc91815260200190565b60206040518083038186803b1580156106e457600080fd5b505afa1580156106f8573d6000803e3d6000fd5b505050506040513d601f19601f8201168201806040525081019061071c91906148b8565b806108255750600160009054906101000a90046001600160a01b03166001600160a01b0316639262826d6040518163ffffffff1660e01b815260040160206040518083038186803b15801561077057600080fd5b505afa158015610784573d6000803e3d6000fd5b505050506040513d601f19601f820116820180604052508101906107a891906146df565b6001600160a01b0316639258effe826040518263ffffffff1660e01b81526004016107d591815260200190565b60206040518083038186803b1580156107ed57600080fd5b505afa158015610801573d6000803e3d6000fd5b505050506040513d601f19601f8201168201806040525081019061082591906148b8565b6108415760405162461bcd60e51b815260040161061a90614919565b60015460408051639262826d60e01b815290516000926001600160a01b031691639262826d916004808301926020929190829003018186803b15801561088657600080fd5b505afa15801561089a573d6000803e3d6000fd5b505050506040513d601f19601f820116820180604052508101906108be91906146df565b6001600160a01b031663eb02c301856040518263ffffffff1660e01b81526004016108eb91815260200190565b6101206040518083038186803b15801561090457600080fd5b505afa158015610918573d6000803e3d6000fd5b505050506040513d601f19601f8201168201806040525081019061093c9190614978565b9050806060015164ffffffffff1660001480610962575082816060015164ffffffffff16145b6109b85760405162461bcd60e51b815260206004820152602160248201527f424f474b2e505452443a20686173206e6f206e6f6d696e6174696f6e526967686044820152601d60fa1b606482015260840161061a565b6001546040805163682ebf0560e01b815290516000926001600160a01b03169163682ebf05916004808301926020929190829003018186803b1580156109fd57600080fd5b505afa158015610a11573d6000803e3d6000fd5b505050506040513d601f19601f82011682018060405250810190610a3591906146df565b60c0830151604051631f6060a960e31b81526004810188905261ffff9091166024820152604481018690529091506001600160a01b0382169063fb030548906064015b602060405180830381600087803b158015610a9257600080fd5b505af1158015610aa6573d6000803e3d6000fd5b505050506040513d601f19601f82011682018060405250810190610aca9190614a45565b505050505050565b73__$a374c895e6fa8c448878668e00d93ef99a$__6382daafaa60028484610af8613ee7565b6040516001600160e01b031960e087901b16815260048101949094526024840192909252604483015264ffffffffff16606482015260840160006040518083038186803b158015610b4857600080fd5b505af4158015610aca573d6000803e3d6000fd5b73__$a374c895e6fa8c448878668e00d93ef99a$__636320d75e60028484610af8613ee7565b604051633b11adbf60e21b81526002600482015233602482015273__$a374c895e6fa8c448878668e00d93ef99a$__9063ec46b6fc9060440160206040518083038186803b158015610bd357600080fd5b505af4158015610be7573d6000803e3d6000fd5b505050506040513d601f19601f82011682018060405250810190610c0b91906148b8565b610c275760405162461bcd60e51b815260040161061a906148d3565b610c318382613f41565b600160009054906101000a90046001600160a01b03166001600160a01b031663682ebf056040518163ffffffff1660e01b815260040160206040518083038186803b158015610c7f57600080fd5b505afa158015610c93573d6000803e3d6000fd5b505050506040513d601f19601f82011682018060405250810190610cb791906146df565b604051637f0deff960e11b81526004810185905260248101849052604481018390526001600160a01b03919091169063fe1bdff290606401600060405180830381600087803b158015610d0957600080fd5b505af1158015610d1d573d6000803e3d6000fd5b50505050505050565b604051633b11adbf60e21b81526002600482015233602482015273__$a374c895e6fa8c448878668e00d93ef99a$__9063ec46b6fc9060440160206040518083038186803b158015610d7757600080fd5b505af4158015610d8b573d6000803e3d6000fd5b505050506040513d601f19601f82011682018060405250810190610daf91906148b8565b610dcb5760405162461bcd60e51b815260040161061a906148d3565b600154604080516319fdcb7760e11b8152905183926001600160a01b0316916333fb96ee916004808301926020929190829003018186803b158015610e0f57600080fd5b505afa158015610e23573d6000803e3d6000fd5b505050506040513d601f19601f82011682018060405250810190610e4791906146df565b6001600160a01b031663d50c7377826040518263ffffffff1660e01b8152600401610e7491815260200190565b60206040518083038186803b158015610e8c57600080fd5b505afa158015610ea0573d6000803e3d6000fd5b505050506040513d601f19601f82011682018060405250810190610ec491906148b8565b80610fcd5750600160009054906101000a90046001600160a01b03166001600160a01b0316639262826d6040518163ffffffff1660e01b815260040160206040518083038186803b158015610f1857600080fd5b505afa158015610f2c573d6000803e3d6000fd5b505050506040513d601f19601f82011682018060405250810190610f5091906146df565b6001600160a01b0316639258effe826040518263ffffffff1660e01b8152600401610f7d91815260200190565b60206040518083038186803b158015610f9557600080fd5b505afa158015610fa9573d6000803e3d6000fd5b505050506040513d601f19601f82011682018060405250810190610fcd91906148b8565b610fe95760405162461bcd60e51b815260040161061a90614919565b60015460408051639262826d60e01b815290516000926001600160a01b031691639262826d916004808301926020929190829003018186803b15801561102e57600080fd5b505afa158015611042573d6000803e3d6000fd5b505050506040513d601f19601f8201168201806040525081019061106691906146df565b6001600160a01b031663eb02c301866040518263ffffffff1660e01b815260040161109391815260200190565b6101206040518083038186803b1580156110ac57600080fd5b505afa1580156110c0573d6000803e3d6000fd5b505050506040513d601f19601f820116820180604052508101906110e49190614978565b9050806060015164ffffffffff166000148061110a575082816060015164ffffffffff16145b6111565760405162461bcd60e51b815260206004820152601f60248201527f424f474b2e4e443a20686173206e6f206e6f6d696e6174696f6e526967687400604482015260640161061a565b600160009054906101000a90046001600160a01b03166001600160a01b031663682ebf056040518163ffffffff1660e01b815260040160206040518083038186803b1580156111a457600080fd5b505afa1580156111b8573d6000803e3d6000fd5b505050506040513d601f19601f820116820180604052508101906111dc91906146df565b60c08201516040516313d904eb60e21b81526004810188905261ffff909116602482015260448101869052606481018590526001600160a01b039190911690634f6413ac90608401610a78565b73__$a374c895e6fa8c448878668e00d93ef99a$__63c51b295f60028361124e613ee7565b6040516001600160e01b031960e086901b1681526004810193909352602483019190915264ffffffffff16604482015260640160006040518083038186803b15801561129957600080fd5b505af41580156112ad573d6000803e3d6000fd5b5050505050565b604051633b11adbf60e21b81526002600482015233602482015273__$a374c895e6fa8c448878668e00d93ef99a$__9063ec46b6fc9060440160206040518083038186803b15801561130557600080fd5b505af4158015611319573d6000803e3d6000fd5b505050506040513d601f19601f8201168201806040525081019061133d91906148b8565b806113e2575073__$a374c895e6fa8c448878668e00d93ef99a$__63fe2710866002611367613ee7565b6040516001600160e01b031960e085901b168152600481019290925264ffffffffff16602482015260440160206040518083038186803b1580156113aa57600080fd5b505af41580156113be573d6000803e3d6000fd5b505050506040513d601f19601f820116820180604052508101906113e291906148b8565b61144d5760405162461bcd60e51b815260206004820152603660248201527f41432e6f776e65724f72446972656374426f6f6b65657065723a206e6569746860448201527532b91037bbb732b9103737b9103137b7b5b2b2b832b960511b606482015260840161061a565b73__$a374c895e6fa8c448878668e00d93ef99a$__6313a187d2600283611472613ee7565b6040516001600160e01b031960e086901b1681526004810193909352602483019190915264ffffffffff16604482015233606482015260840160006040518083038186803b1580156114c357600080fd5b505af41580156114d7573d6000803e3d6000fd5b50506040518392507ff2735f34b69be1e6342dea95f9162f84d0db925fab655ca9f1f312ac8cbfc99d9150600090a250565b73__$a374c895e6fa8c448878668e00d93ef99a$__63ee98b31360028484610af8613ee7565b604051633b11adbf60e21b81526002600482015233602482015273__$a374c895e6fa8c448878668e00d93ef99a$__9063ec46b6fc9060440160206040518083038186803b15801561158057600080fd5b505af4158015611594573d6000803e3d6000fd5b505050506040513d601f19601f820116820180604052508101906115b891906148b8565b6115d45760405162461bcd60e51b815260040161061a906148d3565b604051636be8496f60e01b81523360048201526001600160a01b03821690636be8496f90602401600060405180830381600087803b15801561161557600080fd5b505af1158015611629573d6000803e3d6000fd5b50506040516001600160a01b03841692507f64dd6e84044f0067086012335dcfab3188db6615b5cc7debf18c9a621ebd5d919150600090a250565b604051630f07232560e01b8152600260048201526001600160a01b038216602482015233604482015273__$a374c895e6fa8c448878668e00d93ef99a$__90630f0723259060640160006040518083038186803b1580156116c457600080fd5b505af41580156116d8573d6000803e3d6000fd5b50506040516001600160a01b03841692507fe435cbeab64e4eae6497b9d8289704bd709d624a80704ef3ca9af777534bc6ec9150600090a250565b604051633b11adbf60e21b81526002600482015233602482015273__$a374c895e6fa8c448878668e00d93ef99a$__9063ec46b6fc9060440160206040518083038186803b15801561176457600080fd5b505af4158015611778573d6000803e3d6000fd5b505050506040513d601f19601f8201168201806040525081019061179c91906148b8565b6117b85760405162461bcd60e51b815260040161061a906148d3565b6001546040805163682ebf0560e01b815290516000926001600160a01b03169163682ebf05916004808301926020929190829003018186803b1580156117fd57600080fd5b505afa158015611811573d6000803e3d6000fd5b505050506040513d601f19601f8201168201806040525081019061183591906146df565b60405163568ad56960e11b8152600481018690529091506001906001600160a01b0383169063ad15aad2906024016104406040518083038186803b15801561187c57600080fd5b505afa158015611890573d6000803e3d6000fd5b505050506040513d601f19601f820116820180604052508101906118b49190614ce9565b515161ffff16146119075760405162461bcd60e51b815260206004820152601e60248201527f424f474b2e54533a206e6f742061207375697461626c65206d6f74696f6e0000604482015260640161061a565b60405162b4faa960e61b81526004810185905260248101849052604481018390526001600160a01b03821690632d3eaa4090606401600060405180830381600087803b15801561195657600080fd5b505af115801561196a573d6000803e3d6000fd5b50505050600160009054906101000a90046001600160a01b03166001600160a01b0316639262826d6040518163ffffffff1660e01b815260040160206040518083038186803b1580156119bc57600080fd5b505afa1580156119d0573d6000803e3d6000fd5b505050506040513d601f19601f820116820180604052508101906119f491906146df565b604051636998d28d60e01b815260048101859052602481018490526001600160a01b039190911690636998d28d906044015b600060405180830381600087803b158015611a4057600080fd5b505af1158015611a54573d6000803e3d6000fd5b5050505050505050565b604051632a3be56b60e21b815260026004820152602481018390526044810182905260009073__$a374c895e6fa8c448878668e00d93ef99a$__9063a8ef95ac9060640160206040518083038186803b158015611aba57600080fd5b505af4158015611ace573d6000803e3d6000fd5b505050506040513d601f19601f82011682018060405250810190611af291906148b8565b9392505050565b73__$a374c895e6fa8c448878668e00d93ef99a$__639b48160c600283611b1e613ee7565b6040516001600160e01b031960e086901b1681526004810193909352602483019190915264ffffffffff16604482015260640160006040518083038186803b158015611b6957600080fd5b505af4158015611b7d573d6000803e3d6000fd5b50506040518392507f8b6f40f36b4ae8cc5f55e895036457c43da4ab1f80f58c46f5ff0d72a650033b9150600090a250565b60405163987ad15360e01b81526002600482015260009073__$a374c895e6fa8c448878668e00d93ef99a$__9063987ad15390602401610520565b73__$a374c895e6fa8c448878668e00d93ef99a$__63cc0d511b60028361124e613ee7565b604051633b11adbf60e21b81526002600482015233602482015273__$a374c895e6fa8c448878668e00d93ef99a$__9063ec46b6fc9060440160206040518083038186803b158015611c6057600080fd5b505af4158015611c74573d6000803e3d6000fd5b505050506040513d601f19601f82011682018060405250810190611c9891906148b8565b611cb45760405162461bcd60e51b815260040161061a906148d3565b6001546040805163682ebf0560e01b815290516000926001600160a01b03169163682ebf05916004808301926020929190829003018186803b158015611cf957600080fd5b505afa158015611d0d573d6000803e3d6000fd5b505050506040513d601f19601f82011682018060405250810190611d3191906146df565b60405163568ad56960e11b8152600481018690529091506002906001600160a01b0383169063ad15aad2906024016104406040518083038186803b158015611d7857600080fd5b505afa158015611d8c573d6000803e3d6000fd5b505050506040513d601f19601f82011682018060405250810190611db09190614ce9565b515161ffff1614611e035760405162461bcd60e51b815260206004820152601e60248201527f424f474b2e52443a206e6f742061207375697461626c65206d6f74696f6e0000604482015260640161061a565b60405162b4faa960e61b81526004810185905260248101849052604481018390526001600160a01b03821690632d3eaa4090606401600060405180830381600087803b158015611e5257600080fd5b505af1158015611e66573d6000803e3d6000fd5b50505050600160009054906101000a90046001600160a01b03166001600160a01b0316639262826d6040518163ffffffff1660e01b815260040160206040518083038186803b158015611eb857600080fd5b505afa158015611ecc573d6000803e3d6000fd5b505050506040513d601f19601f82011682018060405250810190611ef091906146df565b6040516317acf4e960e21b81526004810186905260248101859052604481018490526001600160a01b039190911690635eb3d3a490606401611a26565b604051633b11adbf60e21b81526002600482015233602482015273__$a374c895e6fa8c448878668e00d93ef99a$__9063ec46b6fc9060440160206040518083038186803b158015611f7e57600080fd5b505af4158015611f92573d6000803e3d6000fd5b505050506040513d601f19601f82011682018060405250810190611fb691906148b8565b611fd25760405162461bcd60e51b815260040161061a906148d3565b611fdc8482613f41565b600160009054906101000a90046001600160a01b03166001600160a01b031663682ebf056040518163ffffffff1660e01b815260040160206040518083038186803b15801561202a57600080fd5b505afa15801561203e573d6000803e3d6000fd5b505050506040513d601f19601f8201168201806040525081019061206291906146df565b60405163a0d100ef60e01b8152600481018690526024810185905260448101849052606481018390526001600160a01b03919091169063a0d100ef90608401611a26565b604051633b11adbf60e21b81526002600482015233602482015273__$a374c895e6fa8c448878668e00d93ef99a$__9063ec46b6fc9060440160206040518083038186803b1580156120f757600080fd5b505af415801561210b573d6000803e3d6000fd5b505050506040513d601f19601f8201168201806040525081019061212f91906148b8565b61214b5760405162461bcd60e51b815260040161061a906148d3565b600154604080516319fdcb7760e11b8152905183926001600160a01b0316916333fb96ee916004808301926020929190829003018186803b15801561218f57600080fd5b505afa1580156121a3573d6000803e3d6000fd5b505050506040513d601f19601f820116820180604052508101906121c791906146df565b6001600160a01b031663d50c7377826040518263ffffffff1660e01b81526004016121f491815260200190565b60206040518083038186803b15801561220c57600080fd5b505afa158015612220573d6000803e3d6000fd5b505050506040513d601f19601f8201168201806040525081019061224491906148b8565b8061234d5750600160009054906101000a90046001600160a01b03166001600160a01b0316639262826d6040518163ffffffff1660e01b815260040160206040518083038186803b15801561229857600080fd5b505afa1580156122ac573d6000803e3d6000fd5b505050506040513d601f19601f820116820180604052508101906122d091906146df565b6001600160a01b0316639258effe826040518263ffffffff1660e01b81526004016122fd91815260200190565b60206040518083038186803b15801561231557600080fd5b505afa158015612329573d6000803e3d6000fd5b505050506040513d601f19601f8201168201806040525081019061234d91906148b8565b6123695760405162461bcd60e51b815260040161061a90614919565b600160009054906101000a90046001600160a01b03166001600160a01b031663682ebf056040518163ffffffff1660e01b815260040160206040518083038186803b1580156123b757600080fd5b505afa1580156123cb573d6000803e3d6000fd5b505050506040513d601f19601f820116820180604052508101906123ef91906146df565b6001600160a01b031663ab86a9d9898989898989896040518863ffffffff1660e01b815260040161242697969594939291906147c5565b602060405180830381600087803b15801561244057600080fd5b505af1158015612454573d6000803e3d6000fd5b505050506040513d601f19601f820116820180604052508101906124789190614a45565b505050505050505050565b604051633b11adbf60e21b81526002600482015233602482015273__$a374c895e6fa8c448878668e00d93ef99a$__9063ec46b6fc9060440160206040518083038186803b1580156124d457600080fd5b505af41580156124e8573d6000803e3d6000fd5b505050506040513d601f19601f8201168201806040525081019061250c91906148b8565b6125285760405162461bcd60e51b815260040161061a906148d3565b600154604080516319fdcb7760e11b8152905183926001600160a01b0316916333fb96ee916004808301926020929190829003018186803b15801561256c57600080fd5b505afa158015612580573d6000803e3d6000fd5b505050506040513d601f19601f820116820180604052508101906125a491906146df565b6001600160a01b031663d50c7377826040518263ffffffff1660e01b81526004016125d191815260200190565b60206040518083038186803b1580156125e957600080fd5b505afa1580156125fd573d6000803e3d6000fd5b505050506040513d601f19601f8201168201806040525081019061262191906148b8565b6126635760405162461bcd60e51b81526020600482015260136024820152722127a3a59736b31d102727aa1026b2b6b132b960691b604482015260640161061a565b6001546040805163682ebf0560e01b815290516000926001600160a01b03169163682ebf05916004808301926020929190829003018186803b1580156126a857600080fd5b505afa1580156126bc573d6000803e3d6000fd5b505050506040513d601f19601f820116820180604052508101906126e091906146df565b6040516336a2ddaf60e21b81526001600160a01b03888116600483015260248201889052604482018790526064820186905291925060009183169063da8b76bc90608401602060405180830381600087803b15801561273e57600080fd5b505af1158015612752573d6000803e3d6000fd5b505050506040513d601f19601f820116820180604052508101906127769190614a45565b90506009861080156127fb575060405163143b4f6f60e11b8152600481018590526001600160a01b038816906328769ede9060240160206040518083038186803b1580156127c357600080fd5b505afa1580156127d7573d6000803e3d6000fd5b505050506040513d601f19601f820116820180604052508101906127fb91906148b8565b15610d1d5760405163ec83613b60e01b81526001600160401b0382166004820152602481018590526001600160a01b0383169063ec83613b90604401600060405180830381600087803b15801561285157600080fd5b505af1158015612865573d6000803e3d6000fd5b505050508560081461296857600160009054906101000a90046001600160a01b03166001600160a01b031663acd2d0576040518163ffffffff1660e01b815260040160206040518083038186803b1580156128bf57600080fd5b505afa1580156128d3573d6000803e3d6000fd5b505050506040513d601f19601f820116820180604052508101906128f791906146df565b60405163055ad79f60e41b81526001600160a01b0389811660048301526001600160401b038416602483015291909116906355ad79f090604401600060405180830381600087803b15801561294b57600080fd5b505af115801561295f573d6000803e3d6000fd5b50505050610d1d565b600160009054906101000a90046001600160a01b03166001600160a01b031663b613bb4c6040518163ffffffff1660e01b815260040160206040518083038186803b1580156129b657600080fd5b505afa1580156129ca573d6000803e3d6000fd5b505050506040513d601f19601f820116820180604052508101906129ee91906146df565b60405163055ad79f60e41b81526001600160a01b0389811660048301526001600160401b038416602483015291909116906355ad79f090604401600060405180830381600087803b158015612a4257600080fd5b505af1158015612a56573d6000803e3d6000fd5b5050505050505050505050565b604051636cdd0edf60e11b815260026004820152602481018590526001600160a01b038416604482015273__$a374c895e6fa8c448878668e00d93ef99a$__9063d9ba1dbe9060640160006040518083038186803b158015612ac457600080fd5b505af4158015612ad8573d6000803e3d6000fd5b50505050612ae58261411f565b612aee81614192565b6040516001600160a01b038381168252808316919085169086907f3abb2418c66fe32ba9c883030a75ce583971d9af9192b9b74e44e67c5e6c8c1f9060200160405180910390a450505050565b604051633b11adbf60e21b81526002600482015233602482015273__$a374c895e6fa8c448878668e00d93ef99a$__9063ec46b6fc9060440160206040518083038186803b158015612b8c57600080fd5b505af4158015612ba0573d6000803e3d6000fd5b505050506040513d601f19601f82011682018060405250810190612bc491906148b8565b80612c4557506001546040516335d2155560e11b81523360048201526001600160a01b0390911690636ba42aaa9060240160206040518083038186803b158015612c0d57600080fd5b505afa158015612c21573d6000803e3d6000fd5b505050506040513d601f19601f82011682018060405250810190612c4591906148b8565b612c855760405162461bcd60e51b815260206004820152601160248201527020a19737b59d103737ba1025b2b2b832b960791b604482015260640161061a565b600160009054906101000a90046001600160a01b03166001600160a01b031663682ebf056040518163ffffffff1660e01b815260040160206040518083038186803b158015612cd357600080fd5b505afa158015612ce7573d6000803e3d6000fd5b505050506040513d601f19601f82011682018060405250810190612d0b91906146df565b60405163ec83613b60e01b815260048101849052602481018390526001600160a01b03919091169063ec83613b90604401600060405180830381600087803b158015612d5657600080fd5b505af1158015610aca573d6000803e3d6000fd5b604051633c3e56c160e11b81526002600482015260009073__$a374c895e6fa8c448878668e00d93ef99a$__9063787cad829060240160206040518083038186803b158015612db857600080fd5b505af4158015612dcc573d6000803e3d6000fd5b505050506040513d601f19601f8201168201806040525081019061057091906146df565b600254600160f01b900460ff16600114612e4c5760405162461bcd60e51b815260206004820152601760248201527f41432e4c433a20446f632069732066696e616c697a6564000000000000000000604482015260640161061a565b73__$a374c895e6fa8c448878668e00d93ef99a$__63c51b295f6002684174746f726e65797360b81b612e7d613ee7565b6040516001600160e01b031960e086901b1681526004810193909352602483019190915264ffffffffff16604482015260640160006040518083038186803b158015612ec857600080fd5b505af4158015612edc573d6000803e3d6000fd5b50505050600273__$a374c895e6fa8c448878668e00d93ef99a$__6313a187d290916000612f08613ee7565b6040516001600160e01b031960e086901b1681526004810193909352602483019190915264ffffffffff16604482015233606482015260840160006040518083038186803b158015612f5957600080fd5b505af4158015612f6d573d6000803e3d6000fd5b50505050600273__$a374c895e6fa8c448878668e00d93ef99a$__639b48160c90916000612f99613ee7565b6040516001600160e01b031960e086901b1681526004810193909352602483019190915264ffffffffff16604482015260640160006040518083038186803b158015612fe457600080fd5b505af4158015612ff8573d6000803e3d6000fd5b50506002805460ff60f01b1916600160f11b17905550506040517f35012b512309c322acf68632cd6cb702ff0e1d776fbe9394e38ffc13b434fe7590600090a1565b604051633b11adbf60e21b81526002600482015233602482015273__$a374c895e6fa8c448878668e00d93ef99a$__9063ec46b6fc9060440160206040518083038186803b15801561308b57600080fd5b505af415801561309f573d6000803e3d6000fd5b505050506040513d601f19601f820116820180604052508101906130c391906148b8565b6130df5760405162461bcd60e51b815260040161061a906148d3565b600154604080516319fdcb7760e11b8152905183926001600160a01b0316916333fb96ee916004808301926020929190829003018186803b15801561312357600080fd5b505afa158015613137573d6000803e3d6000fd5b505050506040513d601f19601f8201168201806040525081019061315b91906146df565b6001600160a01b031663d50c7377826040518263ffffffff1660e01b815260040161318891815260200190565b60206040518083038186803b1580156131a057600080fd5b505afa1580156131b4573d6000803e3d6000fd5b505050506040513d601f19601f820116820180604052508101906131d891906148b8565b61321a5760405162461bcd60e51b81526020600482015260136024820152722127a3a59736b31d102727aa1026b2b6b132b960691b604482015260640161061a565b6001546040805163682ebf0560e01b815290516000926001600160a01b03169163682ebf05916004808301926020929190829003018186803b15801561325f57600080fd5b505afa158015613273573d6000803e3d6000fd5b505050506040513d601f19601f8201168201806040525081019061329791906146df565b90506000600160009054906101000a90046001600160a01b03166001600160a01b03166333fb96ee6040518163ffffffff1660e01b815260040160206040518083038186803b1580156132e957600080fd5b505afa1580156132fd573d6000803e3d6000fd5b505050506040513d601f19601f8201168201806040525081019061332191906146df565b60405163568ad56960e11b8152600481018790529091506000906001600160a01b0384169063ad15aad2906024016104406040518083038186803b15801561336857600080fd5b505afa15801561337c573d6000803e3d6000fd5b505050506040513d601f19601f820116820180604052508101906133a09190614ce9565b6040805161012081018252600080825260208201819052818301819052606082018190526080820181905260a0820181905260c0820181905260e0820181905261010082018190529151630597757b60e21b8152600481018a905260248101839052929350916001600160a01b0386169063165dd5ec9060440160006040518083038186803b15801561343257600080fd5b505afa158015613446573d6000803e3d6000fd5b505050506040513d6000823e601f3d908101601f1916820160405261346e9190810190614e26565b90506000846001600160a01b031663e4df91006040518163ffffffff1660e01b815260040160206040518083038186803b1580156134ab57600080fd5b505afa1580156134bf573d6000803e3d6000fd5b505050506040513d601f19601f820116820180604052508101906134e391906148b8565b61357a5760208401516040908101519051632e94bd2b60e21b815265ffffffffffff90911660048201526001600160a01b0386169063ba52f4ac9060240160806040518083038186803b15801561353957600080fd5b505afa15801561354d573d6000803e3d6000fd5b505050506040513d601f19601f820116820180604052508101906135719190614eca565b60200151613609565b60208401516040908101519051632e94bd2b60e21b815265ffffffffffff90911660048201526001600160a01b0386169063ba52f4ac9060240160806040518083038186803b1580156135cc57600080fd5b505afa1580156135e0573d6000803e3d6000fd5b505050506040513d601f19601f820116820180604052508101906136049190614eca565b604001515b905080826020015161271061361e9190614f5c565b6136289190614f8b565b61ffff1660a0840152604084015160c001511561366157815163ffffffff1683526020808301516001600160401b031690840152613a04565b846001600160a01b03166329d01b3a6040518163ffffffff1660e01b815260040160206040518083038186803b15801561369a57600080fd5b505afa1580156136ae573d6000803e3d6000fd5b505050506040513d601f19601f820116820180604052508101906136d29190614fbf565b63ffffffff1683526001600160401b0381166020840152604084015160e001511561373b57815183516137059190614fda565b63ffffffff166040840152602080830151908401516137249190614fff565b6001600160401b0316606084015261271060a08401525b83515161ffff1660031415613a0457600084606001516001600160a01b031663a8311aa86040518163ffffffff1660e01b815260040160006040518083038186803b15801561378957600080fd5b505afa15801561379d573d6000803e3d6000fd5b505050506040513d6000823e601f3d908101601f191682016040526137c5919081019061501f565b80519091505b8015613a015760006001600160a01b038816632bf82aab846137ee60018661505b565b815181106137fe576137fe615072565b60200260200101518960200151604001516040518363ffffffff1660e01b815260040161383d92919091825265ffffffffffff16602082015260400190565b60206040518083038186803b15801561385557600080fd5b505afa158015613869573d6000803e3d6000fd5b505050506040513d601f19601f8201168201806040525081019061388d9190614a45565b90506001600160401b038116156139ee57866040015161010001511561392857866040015160e0015161392357604086018051906138ca82615088565b63ffffffff169052506060860180518291906138e79083906150ac565b6001600160401b03169052508361390082612710614f5c565b61390a9190614f8b565b8660a00181815161391b91906150d7565b61ffff169052505b6139ee565b855186613934826150f4565b63ffffffff16905250602086018051829190613951908390614fff565b6001600160401b0316905250604087015160e00151156139a9576040860180519061397b826150f4565b63ffffffff16905250606086018051829190613998908390614fff565b6001600160401b03169052506139d9565b836139b682612710614f5c565b6139c09190614f8b565b8660a0018181516139d191906150d7565b61ffff169052505b855163ffffffff166139ee5760016101008701525b816139f881615114565b925050506137cb565b50505b6000806001600160a01b0316600160009054906101000a90046001600160a01b03166001600160a01b031663a61adc286040518163ffffffff1660e01b815260040160206040518083038186803b158015613a5e57600080fd5b505afa158015613a72573d6000803e3d6000fd5b505050506040513d601f19601f82011682018060405250810190613a9691906146df565b6001600160a01b03161480613c405750600160009054906101000a90046001600160a01b03166001600160a01b031663a61adc286040518163ffffffff1660e01b815260040160206040518083038186803b158015613af457600080fd5b505afa158015613b08573d6000803e3d6000fd5b505050506040513d601f19601f82011682018060405250810190613b2c91906146df565b604051634846203760e01b8152600060048201526001600160a01b03919091169063484620379060240160206040518083038186803b158015613b6e57600080fd5b505afa158015613b82573d6000803e3d6000fd5b505050506040513d601f19601f82011682018060405250810190613ba6919061485a565b604051633d315f5b60e21b8152600481019190915273__$fd7bbdaedbcbc33e1887256b0ab47b2b43$__9063f4c57d6c906024016102206040518083038186803b158015613bf357600080fd5b505af4158015613c07573d6000803e3d6000fd5b505050506040513d601f19601f82011682018060405250810190613c2b919061512b565b610120015161ffff168460a0015161ffff1610155b90506000600360ff16886001600160a01b031663f04e47ab848e896040518463ffffffff1660e01b8152600401613c7993929190615266565b602060405180830381600087803b158015613c9357600080fd5b505af1158015613ca7573d6000803e3d6000fd5b505050506040513d601f19601f82011682018060405250810190613ccb9190615323565b60ff16149050600986600001516040015161ffff161015612a5657606086015186516040015161ffff1660081415613ded57600160009054906101000a90046001600160a01b03166001600160a01b031663b613bb4c6040518163ffffffff1660e01b815260040160206040518083038186803b158015613d4b57600080fd5b505afa158015613d5f573d6000803e3d6000fd5b505050506040513d601f19601f82011682018060405250810190613d8391906146df565b6040516328426ce960e11b81526001600160a01b03838116600483015284151560248301529190911690635084d9d290604401600060405180830381600087803b158015613dd057600080fd5b505af1158015613de4573d6000803e3d6000fd5b50505050613ed9565b600160009054906101000a90046001600160a01b03166001600160a01b031663acd2d0576040518163ffffffff1660e01b815260040160206040518083038186803b158015613e3b57600080fd5b505afa158015613e4f573d6000803e3d6000fd5b505050506040513d601f19601f82011682018060405250810190613e7391906146df565b6040516328426ce960e11b81526001600160a01b03838116600483015284151560248301529190911690635084d9d290604401600060405180830381600087803b158015613ec057600080fd5b505af1158015613ed4573d6000803e3d6000fd5b505050505b505050505050505050505050565b60008054604051636ae3b70d60e11b81523360048201526001600160a01b039091169063d5c76e1a90602401602060405180830381600087803b158015613f2d57600080fd5b505af115801561054c573d6000803e3d6000fd5b6001546040805163682ebf0560e01b815290516000926001600160a01b03169163682ebf05916004808301926020929190829003018186803b158015613f8657600080fd5b505afa158015613f9a573d6000803e3d6000fd5b505050506040513d601f19601f82011682018060405250810190613fbe91906146df565b6001600160a01b031663ad15aad2846040518263ffffffff1660e01b8152600401613feb91815260200190565b6104406040518083038186803b15801561400457600080fd5b505afa158015614018573d6000803e3d6000fd5b505050506040513d601f19601f8201168201806040525081019061403c9190614ce9565b80515190915061ffff166003141561411a57606081015160405163143b4f6f60e11b8152600481018490526001600160a01b038216906328769ede9060240160206040518083038186803b15801561409357600080fd5b505afa1580156140a7573d6000803e3d6000fd5b505050506040513d601f19601f820116820180604052508101906140cb91906148b8565b156141185760405162461bcd60e51b815260206004820152601960248201527f424f474b2e41433a2069732072656c6174656420706172747900000000000000604482015260640161061a565b505b505050565b6000546001600160a01b0316156141705760405162461bcd60e51b815260206004820152601560248201527430b63932b0b23c9039b2ba103932b3a1b2b73a32b960591b604482015260640161061a565b600080546001600160a01b0319166001600160a01b0392909216919091179055565b6001546001600160a01b0316156141eb5760405162461bcd60e51b815260206004820152601960248201527f616c7265616479207365742067656e6572616c4b656570657200000000000000604482015260640161061a565b600180546001600160a01b0319166001600160a01b0392909216919091179055565b634e487b7160e01b600052604160045260246000fd5b60405161012081016001600160401b03811182821017156142465761424661420d565b60405290565b60405160e081016001600160401b03811182821017156142465761424661420d565b60405161024081016001600160401b03811182821017156142465761424661420d565b604051608081016001600160401b03811182821017156142465761424661420d565b60405161022081016001600160401b03811182821017156142465761424661420d565b604051601f8201601f191681016001600160401b03811182821017156142fe576142fe61420d565b604052919050565b60006001600160401b0382111561431f5761431f61420d565b5060051b60200190565b6001600160a01b038116811461433e57600080fd5b50565b600082601f83011261435257600080fd5b8135602061436761436283614306565b6142d6565b82815260059290921b8401810191818101908684111561438657600080fd5b8286015b848110156143a1578035835291830191830161438a565b509695505050505050565b6000601f83818401126143be57600080fd5b823560206143ce61436283614306565b82815260059290921b850181019181810190878411156143ed57600080fd5b8287015b848110156144835780356001600160401b03808211156144115760008081fd5b818a0191508a603f8301126144265760008081fd5b8582013560408282111561443c5761443c61420d565b61444d828b01601f191689016142d6565b92508183528c818386010111156144645760008081fd5b81818501898501375060009082018701528452509183019183016143f1565b50979650505050505050565b600080600080600080600060e0888a0312156144aa57600080fd5b873596506020808901356001600160401b03808211156144c957600080fd5b818b0191508b601f8301126144dd57600080fd5b81356144eb61436282614306565b81815260059190911b8301840190848101908e83111561450a57600080fd5b938501935b8285101561453157843561452281614329565b8252938501939085019061450f565b9a50505060408b013592508083111561454957600080fd5b6145558c848d01614341565b975060608b013592508083111561456b57600080fd5b50506145798a828b016143ac565b979a969950949760808101359660a0820135965060c090910135945092505050565b600080604083850312156145ae57600080fd5b50508035926020909101359150565b6000806000606084860312156145d257600080fd5b505081359360208301359350604090920135919050565b6000602082840312156145fb57600080fd5b5035919050565b60006020828403121561461457600080fd5b8135611af281614329565b6000806000806080858703121561463557600080fd5b5050823594602084013594506040840135936060013592509050565b6000806000806080858703121561466757600080fd5b843561467281614329565b966020860135965060408601359560600135945092505050565b600080600080608085870312156146a257600080fd5b8435935060208501356146b481614329565b925060408501356146c481614329565b915060608501356146d481614329565b939692955090935050565b6000602082840312156146f157600080fd5b8151611af281614329565b600081518084526020808501945080840160005b8381101561472c57815187529582019590820190600101614710565b509495945050505050565b600081518084526020808501808196508360051b810191508286016000805b868110156147b7578385038a5282518051808752835b81811015614787578281018901518882018a0152880161476c565b81811115614797578489838a0101525b509a87019a601f01601f1916959095018601945091850191600101614756565b509298975050505050505050565b600060e08201898352602060e081850152818a5180845261010086019150828c01935060005b818110156148105784516001600160a01b0316835293830193918301916001016147eb565b50508481036040860152614824818b6146fc565b92505050828103606084015261483a8188614737565b6080840196909652505060a081019290925260c090910152949350505050565b60006020828403121561486c57600080fd5b5051919050565b805164ffffffffff8116811461488857600080fd5b919050565b60006020828403121561489f57600080fd5b611af282614873565b8051801515811461488857600080fd5b6000602082840312156148ca57600080fd5b611af2826148a8565b60208082526026908201527f41432e6f6e6c794469726563744b65657065723a206e6f74206469726563742060408201526535b2b2b832b960d11b606082015260800190565b6020808252601f908201527f424f474b2e6d663a206e6f74204d656d626572206f72204469726563746f7200604082015260600190565b805161ffff8116811461488857600080fd5b805165ffffffffffff8116811461488857600080fd5b6000610120828403121561498b57600080fd5b614993614223565b61499c83614950565b81526149aa60208401614950565b60208201526149bb60408401614873565b60408201526149cc60608401614873565b60608201526149dd60808401614962565b60808201526149ee60a08401614962565b60a08201526149ff60c08401614950565b60c0820152614a1060e08401614950565b60e0820152610100614a23818501614950565b908201529392505050565b80516001600160401b038116811461488857600080fd5b600060208284031215614a5757600080fd5b611af282614a2e565b805163ffffffff8116811461488857600080fd5b805160ff8116811461488857600080fd5b600060e08284031215614a9757600080fd5b614a9f61424c565b9050614aaa82614873565b8152614ab860208301614962565b6020820152614ac960408301614962565b6040820152614ada60608301614962565b6060820152614aeb60808301614962565b6080820152614afc60a08301614950565b60a0820152614b0d60c08301614a74565b60c082015292915050565b600082601f830112614b2957600080fd5b604051604081018181106001600160401b0382111715614b4b57614b4b61420d565b8060405250806040840185811115614b6257600080fd5b845b81811015614b8357614b7581614873565b835260209283019201614b64565b509195945050505050565b60006102608284031215614ba157600080fd5b614ba961426e565b9050614bb482614950565b8152614bc260208301614a74565b6020820152614bd360408301614a74565b6040820152614be460608301614950565b6060820152614bf560808301614950565b6080820152614c0660a08301614950565b60a0820152614c1760c083016148a8565b60c0820152614c2860e083016148a8565b60e0820152610100614c3b8184016148a8565b90820152610120614c4d8382016148a8565b90820152610140614c5f838201614a74565b90820152610160614c71838201614a74565b90820152610180614c83838201614a74565b908201526101a0614c95838201614a74565b908201526101c0614ca7838201614a74565b908201526101e0614cb9838201614a74565b90820152610200614ccc84848301614b18565b90820152614cdd6102408301614950565b61022082015292915050565b6000818303610440811215614cfd57600080fd5b614d05614291565b60e0821215614d1357600080fd5b614d1b61424c565b9150614d2684614950565b8252614d3460208501614a2e565b6020830152614d4560408501614950565b6040830152614d5660608501614873565b6060830152614d6760808501614873565b6080830152614d7860a08501614962565b60a0830152614d8960c08501614a60565b60c0830152818152614d9e8560e08601614a85565b6020820152614db1856101c08601614b8e565b604082015261042093909301516060840152509092915050565b600082601f830112614ddc57600080fd5b81516020614dec61436283614306565b82815260059290921b84018101918181019086841115614e0b57600080fd5b8286015b848110156143a15780518352918301918301614e0f565b600060208284031215614e3857600080fd5b81516001600160401b0380821115614e4f57600080fd5b9083019060608286031215614e6357600080fd5b604051606081018181108382111715614e7e57614e7e61420d565b604052614e8a83614a60565b8152614e9860208401614a2e565b6020820152604083015182811115614eaf57600080fd5b614ebb87828601614dcb565b60408301525095945050505050565b600060808284031215614edc57600080fd5b604051608081018181106001600160401b0382111715614efe57614efe61420d565b604052614f0a83614962565b8152614f1860208401614a2e565b6020820152614f2960408401614a2e565b6040820152614f3a60608401614a2e565b60608201529392505050565b634e487b7160e01b600052601160045260246000fd5b60006001600160401b0380831681851681830481118215151615614f8257614f82614f46565b02949350505050565b60006001600160401b0380841680614fb357634e487b7160e01b600052601260045260246000fd5b92169190910492915050565b600060208284031215614fd157600080fd5b611af282614a60565b600063ffffffff83811690831681811015614ff757614ff7614f46565b039392505050565b60006001600160401b0383811690831681811015614ff757614ff7614f46565b60006020828403121561503157600080fd5b81516001600160401b0381111561504757600080fd5b61505384828501614dcb565b949350505050565b60008282101561506d5761506d614f46565b500390565b634e487b7160e01b600052603260045260246000fd5b600063ffffffff808316818114156150a2576150a2614f46565b6001019392505050565b60006001600160401b038083168185168083038211156150ce576150ce614f46565b01949350505050565b600061ffff8083168185168083038211156150ce576150ce614f46565b600063ffffffff82168061510a5761510a614f46565b6000190192915050565b60008161512357615123614f46565b506000190190565b6000610220828403121561513e57600080fd5b6151466142b3565b61514f83614950565b815261515d60208401614a74565b602082015261516e60408401614a74565b604082015261517f606084016148a8565b606082015261519060808401614950565b60808201526151a160a08401614950565b60a08201526151b260c08401614950565b60c08201526151c360e08401614950565b60e08201526101006151d6818501614950565b908201526101206151e8848201614950565b908201526101406151fa848201614a74565b9082015261016061520c848201614950565b9082015261018061521e848201614950565b908201526101a0615230848201614962565b908201526101c0615242848201614a74565b908201526101e0615254848201614a74565b90820152610200614a23848201614950565b600061016082019050841515825283602083015263ffffffff83511660408301526001600160401b03602084015116606083015260408301516152b1608084018263ffffffff169052565b5060608301516001600160401b03811660a084015250608083015161ffff811660c08401525060a083015161ffff811660e08401525060c08301516101006152fe8185018361ffff169052565b60e085015160ff16610120850152909301511515610140909201919091529392505050565b60006020828403121561533557600080fd5b611af282614a7456fea2646970667358221220ee71dd774508a59f7b8e3e1d8a29bf37e2d9fce77b6c534fba35dc85174144e864736f6c63430008080033",
    "sourcePath": "/Users/kaptain/github.com/comboox/comboox/contracts/keepers/BOGKeeper.sol",
    "compiler": {
        "name": "solc",
        "version": "0.8.8+commit.dddeac2f"
    },
    "functionHashes": {
        "abandonRole(bytes32)": "3da9a600",
        "castVoteOfGM(uint256,uint256,bytes32,uint256)": "a8459ac0",
        "createActionOfGM(uint256,address[],uint256[],bytes[],bytes32,uint256,uint256)": "acd4aa7b",
        "createMotionToRemoveDirector(uint256,uint256)": "142ed327",
        "entrustDelegaterForGeneralMeeting(uint256,uint256,uint256)": "34880524",
        "execActionOfGM(uint256,address[],uint256[],bytes[],bytes32,uint256,uint256)": "020c814d",
        "finalized()": "b3f05b97",
        "getBookeeper()": "ed211023",
        "getGeneralCounsel()": "103f6edd",
        "getOwner()": "893d20e8",
        "grantRole(bytes32,uint256)": "1b6ea9f9",
        "hasRole(bytes32,uint256)": "7e063c5a",
        "init(uint256,address,address,address)": "dc890da9",
        "lockContents()": "f045a769",
        "nominateDirector(uint256,uint256,uint256)": "3c44bcb6",
        "proposeDocOfGM(address,uint256,uint256,uint256)": "d0e27e10",
        "proposeMotionToGeneralMeeting(uint256,uint256)": "ec83613b",
        "removeDirectKeeper(address)": "5d7ad88f",
        "removeDirector(uint256,uint256,uint256)": "906149f1",
        "renounceRole(bytes32)": "8bb9c5bf",
        "revokeRole(bytes32,uint256)": "19d61ad9",
        "setDirectKeeper(address)": "6be8496f",
        "setGeneralCounsel(uint256)": "4a14beb1",
        "setOwner(uint256)": "8041494e",
        "setRoleAdmin(bytes32,uint256)": "5171ebd4",
        "takeSeat(uint256,uint256,uint256)": "7451ce03",
        "voteCountingOfGM(uint256,uint256)": "f1e9e7f7"
    },
    "gasEstimates": {
        "creation": {
            "codeDepositCost": "4272800",
            "executionCost": "4930",
            "totalCost": "4277730"
        },
        "external": {
            "abandonRole(bytes32)": "infinite",
            "castVoteOfGM(uint256,uint256,bytes32,uint256)": "infinite",
            "createActionOfGM(uint256,address[],uint256[],bytes[],bytes32,uint256,uint256)": "infinite",
            "createMotionToRemoveDirector(uint256,uint256)": "infinite",
            "entrustDelegaterForGeneralMeeting(uint256,uint256,uint256)": "infinite",
            "execActionOfGM(uint256,address[],uint256[],bytes[],bytes32,uint256,uint256)": "infinite",
            "finalized()": "2372",
            "getBookeeper()": "infinite",
            "getGeneralCounsel()": "infinite",
            "getOwner()": "infinite",
            "grantRole(bytes32,uint256)": "infinite",
            "hasRole(bytes32,uint256)": "infinite",
            "init(uint256,address,address,address)": "infinite",
            "lockContents()": "infinite",
            "nominateDirector(uint256,uint256,uint256)": "infinite",
            "proposeDocOfGM(address,uint256,uint256,uint256)": "infinite",
            "proposeMotionToGeneralMeeting(uint256,uint256)": "infinite",
            "removeDirectKeeper(address)": "infinite",
            "removeDirector(uint256,uint256,uint256)": "infinite",
            "renounceRole(bytes32)": "infinite",
            "revokeRole(bytes32,uint256)": "infinite",
            "setDirectKeeper(address)": "infinite",
            "setGeneralCounsel(uint256)": "infinite",
            "setOwner(uint256)": "infinite",
            "setRoleAdmin(bytes32,uint256)": "infinite",
            "takeSeat(uint256,uint256,uint256)": "infinite",
            "voteCountingOfGM(uint256,uint256)": "infinite"
        },
        "internal": {
            "_avoidanceCheck(uint256,uint256)": "infinite"
        }
    }
}