{
    "contractName": "BOGKeeper",
    "abi": [
        {
            "anonymous": false,
            "inputs": [
                {
                    "indexed": false,
                    "internalType": "uint256",
                    "name": "owner",
                    "type": "uint256"
                },
                {
                    "indexed": false,
                    "internalType": "address",
                    "name": "directKeeper",
                    "type": "address"
                },
                {
                    "indexed": false,
                    "internalType": "address",
                    "name": "regCenter",
                    "type": "address"
                },
                {
                    "indexed": false,
                    "internalType": "address",
                    "name": "generalKeeper",
                    "type": "address"
                }
            ],
            "name": "Init",
            "type": "event"
        },
        {
            "anonymous": false,
            "inputs": [],
            "name": "LockContents",
            "type": "event"
        },
        {
            "anonymous": false,
            "inputs": [
                {
                    "indexed": false,
                    "internalType": "address",
                    "name": "keeper",
                    "type": "address"
                }
            ],
            "name": "SetDirectKeeper",
            "type": "event"
        },
        {
            "anonymous": false,
            "inputs": [
                {
                    "indexed": false,
                    "internalType": "uint256",
                    "name": "acct",
                    "type": "uint256"
                }
            ],
            "name": "SetGeneralCounsel",
            "type": "event"
        },
        {
            "anonymous": false,
            "inputs": [
                {
                    "indexed": false,
                    "internalType": "uint256",
                    "name": "acct",
                    "type": "uint256"
                }
            ],
            "name": "SetOwner",
            "type": "event"
        },
        {
            "inputs": [
                {
                    "internalType": "bytes32",
                    "name": "role",
                    "type": "bytes32"
                }
            ],
            "name": "abandonRole",
            "outputs": [],
            "stateMutability": "nonpayable",
            "type": "function"
        },
        {
            "inputs": [
                {
                    "internalType": "uint256",
                    "name": "seqOfMotion",
                    "type": "uint256"
                },
                {
                    "internalType": "uint256",
                    "name": "attitude",
                    "type": "uint256"
                },
                {
                    "internalType": "bytes32",
                    "name": "sigHash",
                    "type": "bytes32"
                },
                {
                    "internalType": "uint256",
                    "name": "caller",
                    "type": "uint256"
                }
            ],
            "name": "castVoteOfGM",
            "outputs": [],
            "stateMutability": "nonpayable",
            "type": "function"
        },
        {
            "inputs": [
                {
                    "internalType": "address",
                    "name": "board",
                    "type": "address"
                }
            ],
            "name": "createBoardSeal",
            "outputs": [],
            "stateMutability": "nonpayable",
            "type": "function"
        },
        {
            "inputs": [
                {
                    "internalType": "uint256",
                    "name": "info",
                    "type": "uint256"
                }
            ],
            "name": "createCorpSeal",
            "outputs": [],
            "stateMutability": "nonpayable",
            "type": "function"
        },
        {
            "inputs": [
                {
                    "internalType": "uint256",
                    "name": "seqOfMotion",
                    "type": "uint256"
                },
                {
                    "internalType": "uint256",
                    "name": "delegate",
                    "type": "uint256"
                },
                {
                    "internalType": "uint256",
                    "name": "caller",
                    "type": "uint256"
                }
            ],
            "name": "entrustDelegateOfMember",
            "outputs": [],
            "stateMutability": "nonpayable",
            "type": "function"
        },
        {
            "inputs": [
                {
                    "internalType": "uint256",
                    "name": "typeOfAction",
                    "type": "uint256"
                },
                {
                    "internalType": "address[]",
                    "name": "targets",
                    "type": "address[]"
                },
                {
                    "internalType": "uint256[]",
                    "name": "values",
                    "type": "uint256[]"
                },
                {
                    "internalType": "bytes[]",
                    "name": "params",
                    "type": "bytes[]"
                },
                {
                    "internalType": "bytes32",
                    "name": "desHash",
                    "type": "bytes32"
                },
                {
                    "internalType": "uint256",
                    "name": "seqOfMotion",
                    "type": "uint256"
                },
                {
                    "internalType": "uint256",
                    "name": "caller",
                    "type": "uint256"
                }
            ],
            "name": "execActionOfGM",
            "outputs": [],
            "stateMutability": "nonpayable",
            "type": "function"
        },
        {
            "inputs": [],
            "name": "finalized",
            "outputs": [
                {
                    "internalType": "bool",
                    "name": "",
                    "type": "bool"
                }
            ],
            "stateMutability": "view",
            "type": "function"
        },
        {
            "inputs": [],
            "name": "getBookeeper",
            "outputs": [
                {
                    "internalType": "address",
                    "name": "",
                    "type": "address"
                }
            ],
            "stateMutability": "view",
            "type": "function"
        },
        {
            "inputs": [],
            "name": "getGeneralCounsel",
            "outputs": [
                {
                    "internalType": "uint40",
                    "name": "",
                    "type": "uint40"
                }
            ],
            "stateMutability": "view",
            "type": "function"
        },
        {
            "inputs": [],
            "name": "getOwner",
            "outputs": [
                {
                    "internalType": "uint40",
                    "name": "",
                    "type": "uint40"
                }
            ],
            "stateMutability": "view",
            "type": "function"
        },
        {
            "inputs": [
                {
                    "internalType": "bytes32",
                    "name": "role",
                    "type": "bytes32"
                },
                {
                    "internalType": "uint256",
                    "name": "acct",
                    "type": "uint256"
                }
            ],
            "name": "grantRole",
            "outputs": [],
            "stateMutability": "nonpayable",
            "type": "function"
        },
        {
            "inputs": [
                {
                    "internalType": "bytes32",
                    "name": "role",
                    "type": "bytes32"
                },
                {
                    "internalType": "uint256",
                    "name": "acct",
                    "type": "uint256"
                }
            ],
            "name": "hasRole",
            "outputs": [
                {
                    "internalType": "bool",
                    "name": "",
                    "type": "bool"
                }
            ],
            "stateMutability": "view",
            "type": "function"
        },
        {
            "inputs": [
                {
                    "internalType": "uint256",
                    "name": "owner",
                    "type": "uint256"
                },
                {
                    "internalType": "address",
                    "name": "directKeeper",
                    "type": "address"
                },
                {
                    "internalType": "address",
                    "name": "regCenter",
                    "type": "address"
                },
                {
                    "internalType": "address",
                    "name": "generalKeeper",
                    "type": "address"
                }
            ],
            "name": "init",
            "outputs": [],
            "stateMutability": "nonpayable",
            "type": "function"
        },
        {
            "inputs": [],
            "name": "lockContents",
            "outputs": [],
            "stateMutability": "nonpayable",
            "type": "function"
        },
        {
            "inputs": [
                {
                    "internalType": "uint256",
                    "name": "seqOfPos",
                    "type": "uint256"
                },
                {
                    "internalType": "uint256",
                    "name": "candidate",
                    "type": "uint256"
                },
                {
                    "internalType": "uint256",
                    "name": "nominator",
                    "type": "uint256"
                }
            ],
            "name": "nominateDirector",
            "outputs": [],
            "stateMutability": "nonpayable",
            "type": "function"
        },
        {
            "inputs": [
                {
                    "internalType": "uint256",
                    "name": "seqOfVR",
                    "type": "uint256"
                },
                {
                    "internalType": "address[]",
                    "name": "targets",
                    "type": "address[]"
                },
                {
                    "internalType": "uint256[]",
                    "name": "values",
                    "type": "uint256[]"
                },
                {
                    "internalType": "bytes[]",
                    "name": "params",
                    "type": "bytes[]"
                },
                {
                    "internalType": "bytes32",
                    "name": "desHash",
                    "type": "bytes32"
                },
                {
                    "internalType": "uint256",
                    "name": "executor",
                    "type": "uint256"
                },
                {
                    "internalType": "uint256",
                    "name": "proposer",
                    "type": "uint256"
                }
            ],
            "name": "proposeActionOfGM",
            "outputs": [],
            "stateMutability": "nonpayable",
            "type": "function"
        },
        {
            "inputs": [
                {
                    "internalType": "address",
                    "name": "doc",
                    "type": "address"
                },
                {
                    "internalType": "uint256",
                    "name": "seqOfVR",
                    "type": "uint256"
                },
                {
                    "internalType": "uint256",
                    "name": "executor",
                    "type": "uint256"
                },
                {
                    "internalType": "uint256",
                    "name": "proposer",
                    "type": "uint256"
                }
            ],
            "name": "proposeDocOfGM",
            "outputs": [],
            "stateMutability": "nonpayable",
            "type": "function"
        },
        {
            "inputs": [
                {
                    "internalType": "uint256",
                    "name": "seqOfMotion",
                    "type": "uint256"
                },
                {
                    "internalType": "uint256",
                    "name": "caller",
                    "type": "uint256"
                }
            ],
            "name": "proposeMotionOfGM",
            "outputs": [],
            "stateMutability": "nonpayable",
            "type": "function"
        },
        {
            "inputs": [
                {
                    "internalType": "uint256",
                    "name": "seqOfPos",
                    "type": "uint256"
                },
                {
                    "internalType": "uint256",
                    "name": "caller",
                    "type": "uint256"
                }
            ],
            "name": "proposeToRemoveDirector",
            "outputs": [],
            "stateMutability": "nonpayable",
            "type": "function"
        },
        {
            "inputs": [
                {
                    "internalType": "uint256",
                    "name": "seqOfMotion",
                    "type": "uint256"
                },
                {
                    "internalType": "uint256",
                    "name": "seqOfPos",
                    "type": "uint256"
                },
                {
                    "internalType": "uint256",
                    "name": "director",
                    "type": "uint256"
                },
                {
                    "internalType": "uint256",
                    "name": "caller",
                    "type": "uint256"
                }
            ],
            "name": "removeDirector",
            "outputs": [],
            "stateMutability": "nonpayable",
            "type": "function"
        },
        {
            "inputs": [
                {
                    "internalType": "bytes32",
                    "name": "role",
                    "type": "bytes32"
                }
            ],
            "name": "renounceRole",
            "outputs": [],
            "stateMutability": "nonpayable",
            "type": "function"
        },
        {
            "inputs": [
                {
                    "internalType": "bytes32",
                    "name": "role",
                    "type": "bytes32"
                },
                {
                    "internalType": "uint256",
                    "name": "acct",
                    "type": "uint256"
                }
            ],
            "name": "revokeRole",
            "outputs": [],
            "stateMutability": "nonpayable",
            "type": "function"
        },
        {
            "inputs": [
                {
                    "internalType": "address",
                    "name": "keeper",
                    "type": "address"
                }
            ],
            "name": "setDirectKeeper",
            "outputs": [],
            "stateMutability": "nonpayable",
            "type": "function"
        },
        {
            "inputs": [
                {
                    "internalType": "uint256",
                    "name": "acct",
                    "type": "uint256"
                }
            ],
            "name": "setGeneralCounsel",
            "outputs": [],
            "stateMutability": "nonpayable",
            "type": "function"
        },
        {
            "inputs": [
                {
                    "internalType": "uint256",
                    "name": "acct",
                    "type": "uint256"
                }
            ],
            "name": "setOwner",
            "outputs": [],
            "stateMutability": "nonpayable",
            "type": "function"
        },
        {
            "inputs": [
                {
                    "internalType": "bytes32",
                    "name": "role",
                    "type": "bytes32"
                },
                {
                    "internalType": "uint256",
                    "name": "acct",
                    "type": "uint256"
                }
            ],
            "name": "setRoleAdmin",
            "outputs": [],
            "stateMutability": "nonpayable",
            "type": "function"
        },
        {
            "inputs": [
                {
                    "internalType": "uint256",
                    "name": "seqOfMotion",
                    "type": "uint256"
                },
                {
                    "internalType": "uint256",
                    "name": "seqOfPos",
                    "type": "uint256"
                },
                {
                    "internalType": "uint256",
                    "name": "caller",
                    "type": "uint256"
                }
            ],
            "name": "takeSeat",
            "outputs": [],
            "stateMutability": "nonpayable",
            "type": "function"
        },
        {
            "inputs": [
                {
                    "internalType": "uint256",
                    "name": "seqOfMotion",
                    "type": "uint256"
                },
                {
                    "internalType": "uint256",
                    "name": "caller",
                    "type": "uint256"
                }
            ],
            "name": "voteCountingOfGM",
            "outputs": [],
            "stateMutability": "nonpayable",
            "type": "function"
        }
    ],
    "bytecode": "608060405234801561001057600080fd5b50615e0380620000216000396000f3fe608060405234801561001057600080fd5b50600436106101c45760003560e01c80637e063c5a116100f9578063b3f05b9711610097578063dc890da911610071578063dc890da9146103a9578063ed211023146103bc578063f045a769146103dc578063f1e9e7f7146103e457600080fd5b8063b3f05b971461036f578063c24cb85914610383578063d0e27e101461039657600080fd5b80638bb9c5bf116100d35780638bb9c5bf146103235780639d7d867b14610336578063a609880714610349578063a8459ac01461035c57600080fd5b80637e063c5a146102e55780638041494e14610308578063893d20e81461031b57600080fd5b80633b9f1b81116101665780634a14beb1116101405780634a14beb1146102995780635171ebd4146102ac5780636be8496f146102bf5780637451ce03146102d257600080fd5b80633b9f1b81146102605780633c44bcb6146102735780633da9a6001461028657600080fd5b8063180dc60e116101a2578063180dc60e1461021457806319d61ad9146102275780631b6ea9f91461023a578063331dbb221461024d57600080fd5b8063020c814d146101c9578063103f6edd146101de5780631153cd2e14610201575b600080fd5b6101dc6101d7366004614e54565b6103f7565b005b6101e66104ef565b60405164ffffffffff90911681526020015b60405180910390f35b6101dc61020f366004614f60565b61057b565b6101dc610222366004614f82565b610ca6565b6101dc610235366004614f60565b610e32565b6101dc610248366004614f60565b610ec4565b6101dc61025b366004614f9f565b610eea565b6101dc61026e366004614fb8565b611042565b6101dc610281366004614fb8565b61158f565b6101dc610294366004614f9f565b611b3d565b6101dc6102a7366004614f9f565b611bc1565b6101dc6102ba366004614f60565b611e1e565b6101dc6102cd366004614f82565b611e44565b6101dc6102e0366004614fb8565b611ef6565b6102f86102f3366004614f60565b612240565b60405190151581526020016101f8565b6101dc610316366004614f9f565b6122db565b6101e6612394565b6101dc610331366004614f9f565b6123cf565b6101dc610344366004614fe4565b6123f4565b6101dc610357366004614f60565b61274e565b6101dc61036a366004614fe4565b612c46565b60028054600160f01b900460ff16146102f8565b6101dc610391366004614e54565b612f6d565b6101dc6103a4366004615016565b613236565b6101dc6103b7366004615051565b613931565b6103c4613a13565b6040516001600160a01b0390911681526020016101f8565b6101dc613a99565b6101dc6103f2366004614f60565b613cdd565b600160009054906101000a90046001600160a01b03166001600160a01b031663682ebf056040518163ffffffff1660e01b815260040160206040518083038186803b15801561044557600080fd5b505afa158015610459573d6000803e3d6000fd5b505050506040513d601f19601f8201168201806040525081019061047d91906150a4565b6001600160a01b0316635c2753bf888888888888886040518863ffffffff1660e01b81526004016104b4979695949392919061518a565b600060405180830381600087803b1580156104ce57600080fd5b505af11580156104e2573d6000803e3d6000fd5b5050505050505050505050565b60405163e8c0cc1d60e01b81526002600482015260009073__$364aad554dc80380f414546becdd2c1584$__9063e8c0cc1d906024015b60206040518083038186803b15801561053e57600080fd5b505af4158015610552573d6000803e3d6000fd5b505050506040513d601f19601f820116820180604052508101906105769190615239565b905090565b6001546040516335d2155560e11b81523360048201526001600160a01b0390911690636ba42aaa9060240160206040518083038186803b1580156105be57600080fd5b505afa1580156105d2573d6000803e3d6000fd5b505050506040513d601f19601f820116820180604052508101906105f69190615264565b61063b5760405162461bcd60e51b815260206004820152601160248201527020a19737b59d103737ba1025b2b2b832b960791b60448201526064015b60405180910390fd5b600154604080516319fdcb7760e11b8152905183926001600160a01b0316916333fb96ee916004808301926020929190829003018186803b15801561067f57600080fd5b505afa158015610693573d6000803e3d6000fd5b505050506040513d601f19601f820116820180604052508101906106b791906150a4565b6001600160a01b031663d50c7377826040518263ffffffff1660e01b81526004016106e491815260200190565b60206040518083038186803b1580156106fc57600080fd5b505afa158015610710573d6000803e3d6000fd5b505050506040513d601f19601f820116820180604052508101906107349190615264565b6107505760405162461bcd60e51b81526004016106329061527f565b6001546040805163682ebf0560e01b815290516000926001600160a01b03169163682ebf05916004808301926020929190829003018186803b15801561079557600080fd5b505afa1580156107a9573d6000803e3d6000fd5b505050506040513d601f19601f820116820180604052508101906107cd91906150a4565b90506000600160009054906101000a90046001600160a01b03166001600160a01b031663a61adc286040518163ffffffff1660e01b815260040160206040518083038186803b15801561081f57600080fd5b505afa158015610833573d6000803e3d6000fd5b505050506040513d601f19601f8201168201806040525081019061085791906150a4565b604051634846203760e01b8152600060048201526001600160a01b03919091169063484620379060240160206040518083038186803b15801561089957600080fd5b505afa1580156108ad573d6000803e3d6000fd5b505050506040513d601f19601f820116820180604052508101906108d191906152af565b60405163611ebb8b60e01b8152600481019190915273__$9d2c69e94fee47b9774dc8db4aa5c0bbec$__9063611ebb8b906024016101406040518083038186803b15801561091e57600080fd5b505af4158015610932573d6000803e3d6000fd5b505050506040513d601f19601f8201168201806040525081019061095691906152eb565b608001516040516361df743f60e01b815260048101879052602481018690529091506001600160a01b038316906361df743f9060440160006040518083038186803b1580156109a457600080fd5b505afa1580156109b8573d6000803e3d6000fd5b505050506040513d6000823e601f3d908101601f191682016040526109e091908101906153de565b5164ffffffffff1615610a355760405162461bcd60e51b815260206004820152601d60248201527f424f474b2e504d3a2068617320656e74727573742064656c65676174650000006044820152606401610632565b600154604080516319fdcb7760e11b815290516000926001600160a01b0316916333fb96ee916004808301926020929190829003018186803b158015610a7a57600080fd5b505afa158015610a8e573d6000803e3d6000fd5b505050506040513d601f19601f82011682018060405250810190610ab291906150a4565b90506000816001600160a01b0316630d15fd776040518163ffffffff1660e01b815260040160206040518083038186803b158015610aef57600080fd5b505afa158015610b03573d6000803e3d6000fd5b505050506040513d601f19601f82011682018060405250810190610b2791906154eb565b604051630c41f49b60e41b8152600481018990526024810188905265ffffffffffff421660448201526001600160a01b03848116606483015291925060009186169063c41f49b09060840160206040518083038186803b158015610b8a57600080fd5b505afa158015610b9e573d6000803e3d6000fd5b505050506040513d601f19601f82011682018060405250810190610bc291906154eb565b905061ffff8416610bd3838361551c565b6001600160401b03161015610c3a5760405162461bcd60e51b815260206004820152602760248201527f424f474b2e504d3a206e6f7420726561636865642070726f706f73616c2074686044820152661c995cda1bdb1960ca1b6064820152608401610632565b6040516304b79d5f60e11b815260048101899052602481018890526001600160a01b0386169063096f3abe906044015b600060405180830381600087803b158015610c8457600080fd5b505af1158015610c98573d6000803e3d6000fd5b505050505050505050505050565b604051633b11adbf60e21b81526002600482015233602482015273__$364aad554dc80380f414546becdd2c1584$__9063ec46b6fc9060440160206040518083038186803b158015610cf757600080fd5b505af4158015610d0b573d6000803e3d6000fd5b505050506040513d601f19601f82011682018060405250810190610d2f9190615264565b610d4b5760405162461bcd60e51b815260040161063290615550565b600160009054906101000a90046001600160a01b03166001600160a01b031663682ebf056040518163ffffffff1660e01b815260040160206040518083038186803b158015610d9957600080fd5b505afa158015610dad573d6000803e3d6000fd5b505050506040513d601f19601f82011682018060405250810190610dd191906150a4565b604051630c06e30760e11b81526001600160a01b038381166004830152919091169063180dc60e906024015b600060405180830381600087803b158015610e1757600080fd5b505af1158015610e2b573d6000803e3d6000fd5b5050505050565b73__$364aad554dc80380f414546becdd2c1584$__6382daafaa60028484610e5861488a565b6040516001600160e01b031960e087901b16815260048101949094526024840192909252604483015264ffffffffff16606482015260840160006040518083038186803b158015610ea857600080fd5b505af4158015610ebc573d6000803e3d6000fd5b505050505050565b73__$364aad554dc80380f414546becdd2c1584$__636320d75e60028484610e5861488a565b604051633b11adbf60e21b81526002600482015233602482015273__$364aad554dc80380f414546becdd2c1584$__9063ec46b6fc9060440160206040518083038186803b158015610f3b57600080fd5b505af4158015610f4f573d6000803e3d6000fd5b505050506040513d601f19601f82011682018060405250810190610f739190615264565b610f8f5760405162461bcd60e51b815260040161063290615550565b600160009054906101000a90046001600160a01b03166001600160a01b031663682ebf056040518163ffffffff1660e01b815260040160206040518083038186803b158015610fdd57600080fd5b505afa158015610ff1573d6000803e3d6000fd5b505050506040513d601f19601f8201168201806040525081019061101591906150a4565b6001600160a01b031663331dbb22826040518263ffffffff1660e01b8152600401610dfd91815260200190565b604051633b11adbf60e21b81526002600482015233602482015273__$364aad554dc80380f414546becdd2c1584$__9063ec46b6fc9060440160206040518083038186803b15801561109357600080fd5b505af41580156110a7573d6000803e3d6000fd5b505050506040513d601f19601f820116820180604052508101906110cb9190615264565b6110e75760405162461bcd60e51b815260040161063290615550565b600154604080516319fdcb7760e11b8152905183926001600160a01b0316916333fb96ee916004808301926020929190829003018186803b15801561112b57600080fd5b505afa15801561113f573d6000803e3d6000fd5b505050506040513d601f19601f8201168201806040525081019061116391906150a4565b6001600160a01b031663d50c7377826040518263ffffffff1660e01b815260040161119091815260200190565b60206040518083038186803b1580156111a857600080fd5b505afa1580156111bc573d6000803e3d6000fd5b505050506040513d601f19601f820116820180604052508101906111e09190615264565b6111fc5760405162461bcd60e51b81526004016106329061527f565b600154604080516319fdcb7760e11b8152905185926001600160a01b0316916333fb96ee916004808301926020929190829003018186803b15801561124057600080fd5b505afa158015611254573d6000803e3d6000fd5b505050506040513d601f19601f8201168201806040525081019061127891906150a4565b6001600160a01b031663d50c7377826040518263ffffffff1660e01b81526004016112a591815260200190565b60206040518083038186803b1580156112bd57600080fd5b505afa1580156112d1573d6000803e3d6000fd5b505050506040513d601f19601f820116820180604052508101906112f59190615264565b6113115760405162461bcd60e51b81526004016106329061527f565b61131b85846148e4565b6001546040805163682ebf0560e01b815290516000926001600160a01b03169163682ebf05916004808301926020929190829003018186803b15801561136057600080fd5b505afa158015611374573d6000803e3d6000fd5b505050506040513d601f19601f8201168201806040525081019061139891906150a4565b9050600080826001600160a01b031663ad15aad2896040518263ffffffff1660e01b81526004016113cb91815260200190565b6104006040518083038186803b1580156113e457600080fd5b505afa1580156113f8573d6000803e3d6000fd5b505050506040513d601f19601f8201168201806040525081019061141c91906157eb565b6020015160400151905065ffffffffffff81161561154557600160009054906101000a90046001600160a01b03166001600160a01b03166333fb96ee6040518163ffffffff1660e01b815260040160206040518083038186803b15801561148257600080fd5b505afa158015611496573d6000803e3d6000fd5b505050506040513d601f19601f820116820180604052508101906114ba91906150a4565b604051632bf82aab60e01b81526004810188905265ffffffffffff831660248201526001600160a01b039190911690632bf82aab9060440160206040518083038186803b15801561150a57600080fd5b505afa15801561151e573d6000803e3d6000fd5b505050506040513d601f19601f8201168201806040525081019061154291906154eb565b91505b604051632c2d75e360e11b81526004810189905260248101889052604481018790526001600160401b03831660648201526001600160a01b0384169063585aebc690608401610c6a565b604051633b11adbf60e21b81526002600482015233602482015273__$364aad554dc80380f414546becdd2c1584$__9063ec46b6fc9060440160206040518083038186803b1580156115e057600080fd5b505af41580156115f4573d6000803e3d6000fd5b505050506040513d601f19601f820116820180604052508101906116189190615264565b6116345760405162461bcd60e51b815260040161063290615550565b600154604080516319fdcb7760e11b8152905183926001600160a01b0316916333fb96ee916004808301926020929190829003018186803b15801561167857600080fd5b505afa15801561168c573d6000803e3d6000fd5b505050506040513d601f19601f820116820180604052508101906116b091906150a4565b6001600160a01b031663d50c7377826040518263ffffffff1660e01b81526004016116dd91815260200190565b60206040518083038186803b1580156116f557600080fd5b505afa158015611709573d6000803e3d6000fd5b505050506040513d601f19601f8201168201806040525081019061172d9190615264565b6117495760405162461bcd60e51b81526004016106329061527f565b60015460408051639262826d60e01b815290516000926001600160a01b031691639262826d916004808301926020929190829003018186803b15801561178e57600080fd5b505afa1580156117a2573d6000803e3d6000fd5b505050506040513d601f19601f820116820180604052508101906117c691906150a4565b6001600160a01b031663eb02c301866040518263ffffffff1660e01b81526004016117f391815260200190565b6101206040518083038186803b15801561180c57600080fd5b505afa158015611820573d6000803e3d6000fd5b505050506040513d601f19601f8201168201806040525081019061184491906158cd565b8051909150600461ffff90911611156118aa5760405162461bcd60e51b815260206004820152602260248201527f424f474b2e4e443a206e6f742061204469726563746f72277320706f7369746960448201526137b760f11b6064820152608401610632565b606081015164ffffffffff1615806118cc575082816060015164ffffffffff16145b6119185760405162461bcd60e51b815260206004820152601f60248201527f424f474b2e4e443a20686173206e6f206e6f6d696e6174696f6e5269676874006044820152606401610632565b6001546040805163682ebf0560e01b815290516000926001600160a01b03169163682ebf05916004808301926020929190829003018186803b15801561195d57600080fd5b505afa158015611971573d6000803e3d6000fd5b505050506040513d601f19601f8201168201806040525081019061199591906150a4565b60c08301516040516313d904eb60e21b81526004810189905261ffff909116602482015260448101879052606481018690526001600160a01b039190911690634f6413ac90608401602060405180830381600087803b1580156119f757600080fd5b505af1158015611a0b573d6000803e3d6000fd5b505050506040513d601f19601f82011682018060405250810190611a2f91906154eb565b606083015190915064ffffffffff1615610ebc57600160009054906101000a90046001600160a01b03166001600160a01b031663682ebf056040518163ffffffff1660e01b815260040160206040518083038186803b158015611a9157600080fd5b505afa158015611aa5573d6000803e3d6000fd5b505050506040513d601f19601f82011682018060405250810190611ac991906150a4565b6040516304b79d5f60e11b81526001600160401b0383166004820152602481018690526001600160a01b03919091169063096f3abe906044015b600060405180830381600087803b158015611b1d57600080fd5b505af1158015611b31573d6000803e3d6000fd5b50505050505050505050565b73__$364aad554dc80380f414546becdd2c1584$__63c51b295f600283611b6261488a565b6040516001600160e01b031960e086901b1681526004810193909352602483019190915264ffffffffff16604482015260640160006040518083038186803b158015611bad57600080fd5b505af4158015610e2b573d6000803e3d6000fd5b604051633b11adbf60e21b81526002600482015233602482015273__$364aad554dc80380f414546becdd2c1584$__9063ec46b6fc9060440160206040518083038186803b158015611c1257600080fd5b505af4158015611c26573d6000803e3d6000fd5b505050506040513d601f19601f82011682018060405250810190611c4a9190615264565b80611cef575073__$364aad554dc80380f414546becdd2c1584$__63fe2710866002611c7461488a565b6040516001600160e01b031960e085901b168152600481019290925264ffffffffff16602482015260440160206040518083038186803b158015611cb757600080fd5b505af4158015611ccb573d6000803e3d6000fd5b505050506040513d601f19601f82011682018060405250810190611cef9190615264565b611d5a5760405162461bcd60e51b815260206004820152603660248201527f41432e6f776e65724f72446972656374426f6f6b65657065723a206e6569746860448201527532b91037bbb732b9103737b9103137b7b5b2b2b832b960511b6064820152608401610632565b73__$364aad554dc80380f414546becdd2c1584$__639b4510de600283611d7f61488a565b6040516001600160e01b031960e086901b1681526004810193909352602483019190915264ffffffffff16604482015260640160006040518083038186803b158015611dca57600080fd5b505af4158015611dde573d6000803e3d6000fd5b505050507ff2735f34b69be1e6342dea95f9162f84d0db925fab655ca9f1f312ac8cbfc99d81604051611e1391815260200190565b60405180910390a150565b73__$364aad554dc80380f414546becdd2c1584$__63ee98b31360028484610e5861488a565b604051630f07232560e01b8152600260048201526001600160a01b038216602482015233604482015273__$364aad554dc80380f414546becdd2c1584$__90630f0723259060640160006040518083038186803b158015611ea457600080fd5b505af4158015611eb8573d6000803e3d6000fd5b50506040516001600160a01b03841681527fe435cbeab64e4eae6497b9d8289704bd709d624a80704ef3ca9af777534bc6ec92506020019050611e13565b604051633b11adbf60e21b81526002600482015233602482015273__$364aad554dc80380f414546becdd2c1584$__9063ec46b6fc9060440160206040518083038186803b158015611f4757600080fd5b505af4158015611f5b573d6000803e3d6000fd5b505050506040513d601f19601f82011682018060405250810190611f7f9190615264565b611f9b5760405162461bcd60e51b815260040161063290615550565b6001546040805163682ebf0560e01b815290516000926001600160a01b03169163682ebf05916004808301926020929190829003018186803b158015611fe057600080fd5b505afa158015611ff4573d6000803e3d6000fd5b505050506040513d601f19601f8201168201806040525081019061201891906150a4565b60405163568ad56960e11b8152600481018690529091506001906001600160a01b0383169063ad15aad2906024016104006040518083038186803b15801561205f57600080fd5b505afa158015612073573d6000803e3d6000fd5b505050506040513d601f19601f8201168201806040525081019061209791906157eb565b515161ffff16146120ea5760405162461bcd60e51b815260206004820152601e60248201527f424f474b2e54533a206e6f742061207375697461626c65206d6f74696f6e00006044820152606401610632565b60405162b4faa960e61b81526004810185905260248101849052604481018390526001600160a01b03821690632d3eaa4090606401600060405180830381600087803b15801561213957600080fd5b505af115801561214d573d6000803e3d6000fd5b50505050600160009054906101000a90046001600160a01b03166001600160a01b0316639262826d6040518163ffffffff1660e01b815260040160206040518083038186803b15801561219f57600080fd5b505afa1580156121b3573d6000803e3d6000fd5b505050506040513d601f19601f820116820180604052508101906121d791906150a4565b604051636998d28d60e01b815260048101859052602481018490526001600160a01b039190911690636998d28d90604401600060405180830381600087803b15801561222257600080fd5b505af1158015612236573d6000803e3d6000fd5b5050505050505050565b604051632a3be56b60e21b815260026004820152602481018390526044810182905260009073__$364aad554dc80380f414546becdd2c1584$__9063a8ef95ac9060640160206040518083038186803b15801561229c57600080fd5b505af41580156122b0573d6000803e3d6000fd5b505050506040513d601f19601f820116820180604052508101906122d49190615264565b9392505050565b73__$364aad554dc80380f414546becdd2c1584$__639b48160c60028361230061488a565b6040516001600160e01b031960e086901b1681526004810193909352602483019190915264ffffffffff16604482015260640160006040518083038186803b15801561234b57600080fd5b505af415801561235f573d6000803e3d6000fd5b505050507f8b6f40f36b4ae8cc5f55e895036457c43da4ab1f80f58c46f5ff0d72a650033b81604051611e1391815260200190565b60405163987ad15360e01b81526002600482015260009073__$364aad554dc80380f414546becdd2c1584$__9063987ad15390602401610526565b73__$364aad554dc80380f414546becdd2c1584$__63cc0d511b600283611b6261488a565b604051633b11adbf60e21b81526002600482015233602482015273__$364aad554dc80380f414546becdd2c1584$__9063ec46b6fc9060440160206040518083038186803b15801561244557600080fd5b505af4158015612459573d6000803e3d6000fd5b505050506040513d601f19601f8201168201806040525081019061247d9190615264565b6124995760405162461bcd60e51b815260040161063290615550565b6001546040805163682ebf0560e01b815290516000926001600160a01b03169163682ebf05916004808301926020929190829003018186803b1580156124de57600080fd5b505afa1580156124f2573d6000803e3d6000fd5b505050506040513d601f19601f8201168201806040525081019061251691906150a4565b60405163568ad56960e11b8152600481018790529091506002906001600160a01b0383169063ad15aad2906024016104006040518083038186803b15801561255d57600080fd5b505afa158015612571573d6000803e3d6000fd5b505050506040513d601f19601f8201168201806040525081019061259591906157eb565b515161ffff16146125e85760405162461bcd60e51b815260206004820152601e60248201527f424f474b2e52443a206e6f742061207375697461626c65206d6f74696f6e00006044820152606401610632565b60405162b4faa960e61b81526004810186905260248101859052604481018390526001600160a01b03821690632d3eaa4090606401600060405180830381600087803b15801561263757600080fd5b505af115801561264b573d6000803e3d6000fd5b50505050600160009054906101000a90046001600160a01b03166001600160a01b0316639262826d6040518163ffffffff1660e01b815260040160206040518083038186803b15801561269d57600080fd5b505afa1580156126b1573d6000803e3d6000fd5b505050506040513d601f19601f820116820180604052508101906126d591906150a4565b60405163a878079960e01b8152600481018790526024810186905260448101859052606481018490526001600160a01b03919091169063a8780799906084015b600060405180830381600087803b15801561272f57600080fd5b505af1158015612743573d6000803e3d6000fd5b505050505050505050565b604051633b11adbf60e21b81526002600482015233602482015273__$364aad554dc80380f414546becdd2c1584$__9063ec46b6fc9060440160206040518083038186803b15801561279f57600080fd5b505af41580156127b3573d6000803e3d6000fd5b505050506040513d601f19601f820116820180604052508101906127d79190615264565b6127f35760405162461bcd60e51b815260040161063290615550565b600154604080516319fdcb7760e11b8152905183926001600160a01b0316916333fb96ee916004808301926020929190829003018186803b15801561283757600080fd5b505afa15801561284b573d6000803e3d6000fd5b505050506040513d601f19601f8201168201806040525081019061286f91906150a4565b6001600160a01b031663d50c7377826040518263ffffffff1660e01b815260040161289c91815260200190565b60206040518083038186803b1580156128b457600080fd5b505afa1580156128c8573d6000803e3d6000fd5b505050506040513d601f19601f820116820180604052508101906128ec9190615264565b6129085760405162461bcd60e51b81526004016106329061527f565b60015460408051639262826d60e01b815290516000926001600160a01b031691639262826d916004808301926020929190829003018186803b15801561294d57600080fd5b505afa158015612961573d6000803e3d6000fd5b505050506040513d601f19601f8201168201806040525081019061298591906150a4565b6001600160a01b031663eb02c301856040518263ffffffff1660e01b81526004016129b291815260200190565b6101206040518083038186803b1580156129cb57600080fd5b505afa1580156129df573d6000803e3d6000fd5b505050506040513d601f19601f82011682018060405250810190612a0391906158cd565b8051909150600461ffff9091161115612a6a5760405162461bcd60e51b8152602060048201526024808201527f424f474b2e505452443a206e6f742061204469726563746f72277320706f73696044820152633a34b7b760e11b6064820152608401610632565b606081015164ffffffffff161580612a8c575082816060015164ffffffffff16145b612ae25760405162461bcd60e51b815260206004820152602160248201527f424f474b2e505452443a20686173206e6f206e6f6d696e6174696f6e526967686044820152601d60fa1b6064820152608401610632565b6001546040805163682ebf0560e01b815290516000926001600160a01b03169163682ebf05916004808301926020929190829003018186803b158015612b2757600080fd5b505afa158015612b3b573d6000803e3d6000fd5b505050506040513d601f19601f82011682018060405250810190612b5f91906150a4565b60c08301516040516365a47e8160e01b81526004810188905261ffff9091166024820152604481018690529091506000906001600160a01b038316906365a47e8190606401602060405180830381600087803b158015612bbe57600080fd5b505af1158015612bd2573d6000803e3d6000fd5b505050506040513d601f19601f82011682018060405250810190612bf691906154eb565b606084015190915064ffffffffff1615610ebc576040516304b79d5f60e11b81526001600160401b0382166004820152602481018690526001600160a01b0383169063096f3abe90604401611b03565b604051633b11adbf60e21b81526002600482015233602482015273__$364aad554dc80380f414546becdd2c1584$__9063ec46b6fc9060440160206040518083038186803b158015612c9757600080fd5b505af4158015612cab573d6000803e3d6000fd5b505050506040513d601f19601f82011682018060405250810190612ccf9190615264565b612ceb5760405162461bcd60e51b815260040161063290615550565b600154604080516319fdcb7760e11b8152905183926001600160a01b0316916333fb96ee916004808301926020929190829003018186803b158015612d2f57600080fd5b505afa158015612d43573d6000803e3d6000fd5b505050506040513d601f19601f82011682018060405250810190612d6791906150a4565b6001600160a01b031663d50c7377826040518263ffffffff1660e01b8152600401612d9491815260200190565b60206040518083038186803b158015612dac57600080fd5b505afa158015612dc0573d6000803e3d6000fd5b505050506040513d601f19601f82011682018060405250810190612de49190615264565b612e005760405162461bcd60e51b81526004016106329061527f565b612e0a85836148e4565b600160009054906101000a90046001600160a01b03166001600160a01b031663682ebf056040518163ffffffff1660e01b815260040160206040518083038186803b158015612e5857600080fd5b505afa158015612e6c573d6000803e3d6000fd5b505050506040513d601f19601f82011682018060405250810190612e9091906150a4565b6001600160a01b03166388125cf7868686600160009054906101000a90046001600160a01b03166001600160a01b03166333fb96ee6040518163ffffffff1660e01b815260040160206040518083038186803b158015612eef57600080fd5b505afa158015612f03573d6000803e3d6000fd5b505050506040513d601f19601f82011682018060405250810190612f2791906150a4565b6040516001600160e01b031960e087901b1681526004810194909452602484019290925260448301526001600160a01b031660648201526084810185905260a401612715565b604051633b11adbf60e21b81526002600482015233602482015273__$364aad554dc80380f414546becdd2c1584$__9063ec46b6fc9060440160206040518083038186803b158015612fbe57600080fd5b505af4158015612fd2573d6000803e3d6000fd5b505050506040513d601f19601f82011682018060405250810190612ff69190615264565b6130125760405162461bcd60e51b815260040161063290615550565b600154604080516319fdcb7760e11b8152905183926001600160a01b0316916333fb96ee916004808301926020929190829003018186803b15801561305657600080fd5b505afa15801561306a573d6000803e3d6000fd5b505050506040513d601f19601f8201168201806040525081019061308e91906150a4565b6001600160a01b031663d50c7377826040518263ffffffff1660e01b81526004016130bb91815260200190565b60206040518083038186803b1580156130d357600080fd5b505afa1580156130e7573d6000803e3d6000fd5b505050506040513d601f19601f8201168201806040525081019061310b9190615264565b6131275760405162461bcd60e51b81526004016106329061527f565b600160009054906101000a90046001600160a01b03166001600160a01b031663682ebf056040518163ffffffff1660e01b815260040160206040518083038186803b15801561317557600080fd5b505afa158015613189573d6000803e3d6000fd5b505050506040513d601f19601f820116820180604052508101906131ad91906150a4565b6001600160a01b031663bbfd607d898989898989896040518863ffffffff1660e01b81526004016131e4979695949392919061518a565b602060405180830381600087803b1580156131fe57600080fd5b505af1158015613212573d6000803e3d6000fd5b505050506040513d601f19601f8201168201806040525081019061274391906154eb565b604051633b11adbf60e21b81526002600482015233602482015273__$364aad554dc80380f414546becdd2c1584$__9063ec46b6fc9060440160206040518083038186803b15801561328757600080fd5b505af415801561329b573d6000803e3d6000fd5b505050506040513d601f19601f820116820180604052508101906132bf9190615264565b6132db5760405162461bcd60e51b815260040161063290615550565b600154604080516319fdcb7760e11b8152905183926001600160a01b0316916333fb96ee916004808301926020929190829003018186803b15801561331f57600080fd5b505afa158015613333573d6000803e3d6000fd5b505050506040513d601f19601f8201168201806040525081019061335791906150a4565b6001600160a01b031663d50c7377826040518263ffffffff1660e01b815260040161338491815260200190565b60206040518083038186803b15801561339c57600080fd5b505afa1580156133b0573d6000803e3d6000fd5b505050506040513d601f19601f820116820180604052508101906133d49190615264565b6133f05760405162461bcd60e51b81526004016106329061527f565b6001546040805163682ebf0560e01b815290516000926001600160a01b03169163682ebf05916004808301926020929190829003018186803b15801561343557600080fd5b505afa158015613449573d6000803e3d6000fd5b505050506040513d601f19601f8201168201806040525081019061346d91906150a4565b60405163cd43b16560e01b81526001600160a01b03888116600483015260248201889052604482018790526064820186905291925060009183169063cd43b16590608401602060405180830381600087803b1580156134cb57600080fd5b505af11580156134df573d6000803e3d6000fd5b505050506040513d601f19601f8201168201806040525081019061350391906154eb565b905060088611158015613589575060405163143b4f6f60e11b8152600481018590526001600160a01b038816906328769ede9060240160206040518083038186803b15801561355157600080fd5b505afa158015613565573d6000803e3d6000fd5b505050506040513d601f19601f820116820180604052508101906135899190615264565b15613928576040516304b79d5f60e11b81526001600160401b0382166004820152602481018590526001600160a01b0383169063096f3abe90604401600060405180830381600087803b1580156135df57600080fd5b505af11580156135f3573d6000803e3d6000fd5b505050506000600160009054906101000a90046001600160a01b03166001600160a01b031663a61adc286040518163ffffffff1660e01b815260040160206040518083038186803b15801561364757600080fd5b505afa15801561365b573d6000803e3d6000fd5b505050506040513d601f19601f8201168201806040525081019061367f91906150a4565b6001600160a01b03166348462037886040518263ffffffff1660e01b81526004016136ac91815260200190565b60206040518083038186803b1580156136c457600080fd5b505afa1580156136d8573d6000803e3d6000fd5b505050506040513d601f19601f820116820180604052508101906136fc91906152af565b60405163d1296c8f60e01b8152600481019190915273__$9d2c69e94fee47b9774dc8db4aa5c0bbec$__9063d1296c8f906024016102206040518083038186803b15801561374957600080fd5b505af415801561375d573d6000803e3d6000fd5b505050506040513d601f19601f820116820180604052508101906137819190615978565b90508660081461387557600160009054906101000a90046001600160a01b03166001600160a01b031663acd2d0576040518163ffffffff1660e01b815260040160206040518083038186803b1580156137d957600080fd5b505afa1580156137ed573d6000803e3d6000fd5b505050506040513d601f19601f8201168201806040525081019061381191906150a4565b6001600160a01b031663197aa24089836040518363ffffffff1660e01b815260040161383e9291906159bf565b600060405180830381600087803b15801561385857600080fd5b505af115801561386c573d6000803e3d6000fd5b50505050612236565b600160009054906101000a90046001600160a01b03166001600160a01b031663b613bb4c6040518163ffffffff1660e01b815260040160206040518083038186803b1580156138c357600080fd5b505afa1580156138d7573d6000803e3d6000fd5b505050506040513d601f19601f820116820180604052508101906138fb91906150a4565b6001600160a01b031663197aa24089836040518363ffffffff1660e01b8152600401610c6a9291906159bf565b50505050505050565b604051636cdd0edf60e11b815260026004820152602481018590526001600160a01b038416604482015273__$364aad554dc80380f414546becdd2c1584$__9063d9ba1dbe9060640160006040518083038186803b15801561399257600080fd5b505af41580156139a6573d6000803e3d6000fd5b505050506139b382614ac2565b6139bc81614b35565b604080518581526001600160a01b038581166020830152848116828401528316606082015290517f3abb2418c66fe32ba9c883030a75ce583971d9af9192b9b74e44e67c5e6c8c1f9181900360800190a150505050565b604051633c3e56c160e11b81526002600482015260009073__$364aad554dc80380f414546becdd2c1584$__9063787cad829060240160206040518083038186803b158015613a6157600080fd5b505af4158015613a75573d6000803e3d6000fd5b505050506040513d601f19601f8201168201806040525081019061057691906150a4565b600254600160f01b900460ff16600114613af55760405162461bcd60e51b815260206004820152601760248201527f41432e4c433a20446f632069732066696e616c697a65640000000000000000006044820152606401610632565b73__$364aad554dc80380f414546becdd2c1584$__63c51b295f6002684174746f726e65797360b81b613b2661488a565b6040516001600160e01b031960e086901b1681526004810193909352602483019190915264ffffffffff16604482015260640160006040518083038186803b158015613b7157600080fd5b505af4158015613b85573d6000803e3d6000fd5b50505050600273__$364aad554dc80380f414546becdd2c1584$__639b4510de90916000613bb161488a565b6040516001600160e01b031960e086901b1681526004810193909352602483019190915264ffffffffff16604482015260640160006040518083038186803b158015613bfc57600080fd5b505af4158015613c10573d6000803e3d6000fd5b50505050600273__$364aad554dc80380f414546becdd2c1584$__639b48160c90916000613c3c61488a565b6040516001600160e01b031960e086901b1681526004810193909352602483019190915264ffffffffff16604482015260640160006040518083038186803b158015613c8757600080fd5b505af4158015613c9b573d6000803e3d6000fd5b50506002805460ff60f01b1916600160f11b17905550506040517f35012b512309c322acf68632cd6cb702ff0e1d776fbe9394e38ffc13b434fe7590600090a1565b604051633b11adbf60e21b81526002600482015233602482015273__$364aad554dc80380f414546becdd2c1584$__9063ec46b6fc9060440160206040518083038186803b158015613d2e57600080fd5b505af4158015613d42573d6000803e3d6000fd5b505050506040513d601f19601f82011682018060405250810190613d669190615264565b613d825760405162461bcd60e51b815260040161063290615550565b600154604080516319fdcb7760e11b8152905183926001600160a01b0316916333fb96ee916004808301926020929190829003018186803b158015613dc657600080fd5b505afa158015613dda573d6000803e3d6000fd5b505050506040513d601f19601f82011682018060405250810190613dfe91906150a4565b6001600160a01b031663d50c7377826040518263ffffffff1660e01b8152600401613e2b91815260200190565b60206040518083038186803b158015613e4357600080fd5b505afa158015613e57573d6000803e3d6000fd5b505050506040513d601f19601f82011682018060405250810190613e7b9190615264565b613e975760405162461bcd60e51b81526004016106329061527f565b6001546040805163682ebf0560e01b815290516000926001600160a01b03169163682ebf05916004808301926020929190829003018186803b158015613edc57600080fd5b505afa158015613ef0573d6000803e3d6000fd5b505050506040513d601f19601f82011682018060405250810190613f1491906150a4565b90506000600160009054906101000a90046001600160a01b03166001600160a01b03166333fb96ee6040518163ffffffff1660e01b815260040160206040518083038186803b158015613f6657600080fd5b505afa158015613f7a573d6000803e3d6000fd5b505050506040513d601f19601f82011682018060405250810190613f9e91906150a4565b60405163568ad56960e11b8152600481018790529091506000906001600160a01b0384169063ad15aad2906024016104006040518083038186803b158015613fe557600080fd5b505afa158015613ff9573d6000803e3d6000fd5b505050506040513d601f19601f8201168201806040525081019061401d91906157eb565b60408051608081018252600080825260208201819052818301819052606082018190529151630597757b60e21b8152600481018a905260248101839052929350916001600160a01b0386169063165dd5ec9060440160006040518083038186803b15801561408a57600080fd5b505afa15801561409e573d6000803e3d6000fd5b505050506040513d6000823e601f3d908101601f191682016040526140c69190810190615b5a565b9050826040015160c00151156140f857805163ffffffff1682526020808201516001600160401b0316908301526145c9565b836001600160a01b03166329d01b3a6040518163ffffffff1660e01b815260040160206040518083038186803b15801561413157600080fd5b505afa158015614145573d6000803e3d6000fd5b505050506040513d601f19601f820116820180604052508101906141699190615bfe565b63ffffffff1682526040805162e4df9160e81b815290516001600160a01b0386169163e4df9100916004808301926020929190829003018186803b1580156141b057600080fd5b505afa1580156141c4573d6000803e3d6000fd5b505050506040513d601f19601f820116820180604052508101906141e89190615264565b61427f5760208301516040908101519051632e94bd2b60e21b815265ffffffffffff90911660048201526001600160a01b0385169063ba52f4ac9060240160806040518083038186803b15801561423e57600080fd5b505afa158015614252573d6000803e3d6000fd5b505050506040513d601f19601f820116820180604052508101906142769190615c19565b6020015161430e565b60208301516040908101519051632e94bd2b60e21b815265ffffffffffff90911660048201526001600160a01b0385169063ba52f4ac9060240160806040518083038186803b1580156142d157600080fd5b505afa1580156142e5573d6000803e3d6000fd5b505050506040513d601f19601f820116820180604052508101906143099190615c19565b604001515b6001600160401b03166020830152604083015160e001511561436f578051825161433e9163ffffffff1690615c95565b6001600160401b03166040830152602080820151908301516143609190615c95565b6001600160401b031660608301525b82515161ffff16600314156145c957600083606001516001600160a01b031663a8311aa86040518163ffffffff1660e01b815260040160006040518083038186803b1580156143bd57600080fd5b505afa1580156143d1573d6000803e3d6000fd5b505050506040513d6000823e601f3d908101601f191682016040526143f99190810190615cbd565b80519091505b80156145c65760006001600160a01b038716632bf82aab84614422600186615cf9565b8151811061443257614432615d10565b60200260200101518860200151604001516040518363ffffffff1660e01b815260040161447192919091825265ffffffffffff16602082015260400190565b60206040518083038186803b15801561448957600080fd5b505afa15801561449d573d6000803e3d6000fd5b505050506040513d601f19601f820116820180604052508101906144c191906154eb565b90506001600160401b038116156145b357856040015161010001511561453057856040015160e0015161452b57604085018051906144fe82615d26565b6001600160401b031690525060608501805182919061451e908390615d4d565b6001600160401b03169052505b6145b3565b84518561453c82615d78565b6001600160401b031690525060208501805182919061455c908390615c95565b6001600160401b0316905250604086015160e00151156145b3576040850180519061458682615d78565b6001600160401b03169052506060850180518291906145a6908390615c95565b6001600160401b03169052505b816145bd81615d9b565b925050506143ff565b50505b6040805163a0743e7160e01b8152600481018a905283516001600160401b0390811660248301526020850151811660448301529184015182166064820152606084015190911660848201526000906003906001600160a01b0388169063a0743e719060a401602060405180830381600087803b15801561464857600080fd5b505af115801561465c573d6000803e3d6000fd5b505050506040513d601f19601f820116820180604052508101906146809190615db2565b60ff1614905060008460600151905084600001516040015161ffff1660081461479357600160009054906101000a90046001600160a01b03166001600160a01b031663acd2d0576040518163ffffffff1660e01b815260040160206040518083038186803b1580156146f157600080fd5b505afa158015614705573d6000803e3d6000fd5b505050506040513d601f19601f8201168201806040525081019061472991906150a4565b6040516328426ce960e11b81526001600160a01b03838116600483015284151560248301529190911690635084d9d290604401600060405180830381600087803b15801561477657600080fd5b505af115801561478a573d6000803e3d6000fd5b50505050611b31565b600160009054906101000a90046001600160a01b03166001600160a01b031663b613bb4c6040518163ffffffff1660e01b815260040160206040518083038186803b1580156147e157600080fd5b505afa1580156147f5573d6000803e3d6000fd5b505050506040513d601f19601f8201168201806040525081019061481991906150a4565b6040516328426ce960e11b81526001600160a01b03838116600483015284151560248301529190911690635084d9d290604401600060405180830381600087803b15801561486657600080fd5b505af115801561487a573d6000803e3d6000fd5b5050505050505050505050505050565b60008054604051636ae3b70d60e11b81523360048201526001600160a01b039091169063d5c76e1a90602401602060405180830381600087803b1580156148d057600080fd5b505af1158015610552573d6000803e3d6000fd5b6001546040805163682ebf0560e01b815290516000926001600160a01b03169163682ebf05916004808301926020929190829003018186803b15801561492957600080fd5b505afa15801561493d573d6000803e3d6000fd5b505050506040513d601f19601f8201168201806040525081019061496191906150a4565b6001600160a01b031663ad15aad2846040518263ffffffff1660e01b815260040161498e91815260200190565b6104006040518083038186803b1580156149a757600080fd5b505afa1580156149bb573d6000803e3d6000fd5b505050506040513d601f19601f820116820180604052508101906149df91906157eb565b80515190915061ffff1660031415614abd57606081015160405163143b4f6f60e11b8152600481018490526001600160a01b038216906328769ede9060240160206040518083038186803b158015614a3657600080fd5b505afa158015614a4a573d6000803e3d6000fd5b505050506040513d601f19601f82011682018060405250810190614a6e9190615264565b15614abb5760405162461bcd60e51b815260206004820152601960248201527f424f474b2e41433a2069732072656c61746564207061727479000000000000006044820152606401610632565b505b505050565b6000546001600160a01b031615614b135760405162461bcd60e51b815260206004820152601560248201527430b63932b0b23c9039b2ba103932b3a1b2b73a32b960591b6044820152606401610632565b600080546001600160a01b0319166001600160a01b0392909216919091179055565b6001546001600160a01b031615614b8e5760405162461bcd60e51b815260206004820152601960248201527f616c7265616479207365742067656e6572616c4b6565706572000000000000006044820152606401610632565b600180546001600160a01b0319166001600160a01b0392909216919091179055565b634e487b7160e01b600052604160045260246000fd5b60405161014081016001600160401b0381118282101715614be957614be9614bb0565b60405290565b60405160a081016001600160401b0381118282101715614be957614be9614bb0565b60405160e081016001600160401b0381118282101715614be957614be9614bb0565b60405161020081016001600160401b0381118282101715614be957614be9614bb0565b604051608081016001600160401b0381118282101715614be957614be9614bb0565b60405161012081016001600160401b0381118282101715614be957614be9614bb0565b604051601f8201601f191681016001600160401b0381118282101715614cc357614cc3614bb0565b604052919050565b60006001600160401b03821115614ce457614ce4614bb0565b5060051b60200190565b6001600160a01b0381168114614d0357600080fd5b50565b600082601f830112614d1757600080fd5b81356020614d2c614d2783614ccb565b614c9b565b82815260059290921b84018101918181019086841115614d4b57600080fd5b8286015b84811015614d665780358352918301918301614d4f565b509695505050505050565b6000601f8381840112614d8357600080fd5b82356020614d93614d2783614ccb565b82815260059290921b85018101918181019087841115614db257600080fd5b8287015b84811015614e485780356001600160401b0380821115614dd65760008081fd5b818a0191508a603f830112614deb5760008081fd5b85820135604082821115614e0157614e01614bb0565b614e12828b01601f19168901614c9b565b92508183528c81838601011115614e295760008081fd5b8181850189850137506000908201870152845250918301918301614db6565b50979650505050505050565b600080600080600080600060e0888a031215614e6f57600080fd5b873596506020808901356001600160401b0380821115614e8e57600080fd5b818b0191508b601f830112614ea257600080fd5b8135614eb0614d2782614ccb565b81815260059190911b8301840190848101908e831115614ecf57600080fd5b938501935b82851015614ef6578435614ee781614cee565b82529385019390850190614ed4565b9a50505060408b0135925080831115614f0e57600080fd5b614f1a8c848d01614d06565b975060608b0135925080831115614f3057600080fd5b5050614f3e8a828b01614d71565b979a969950949760808101359660a0820135965060c090910135945092505050565b60008060408385031215614f7357600080fd5b50508035926020909101359150565b600060208284031215614f9457600080fd5b81356122d481614cee565b600060208284031215614fb157600080fd5b5035919050565b600080600060608486031215614fcd57600080fd5b505081359360208301359350604090920135919050565b60008060008060808587031215614ffa57600080fd5b5050823594602084013594506040840135936060013592509050565b6000806000806080858703121561502c57600080fd5b843561503781614cee565b966020860135965060408601359560600135945092505050565b6000806000806080858703121561506757600080fd5b84359350602085013561507981614cee565b9250604085013561508981614cee565b9150606085013561509981614cee565b939692955090935050565b6000602082840312156150b657600080fd5b81516122d481614cee565b600081518084526020808501945080840160005b838110156150f1578151875295820195908201906001016150d5565b509495945050505050565b600081518084526020808501808196508360051b810191508286016000805b8681101561517c578385038a5282518051808752835b8181101561514c578281018901518882018a01528801615131565b8181111561515c578489838a0101525b509a87019a601f01601f191695909501860194509185019160010161511b565b509298975050505050505050565b600060e08201898352602060e081850152818a5180845261010086019150828c01935060005b818110156151d55784516001600160a01b0316835293830193918301916001016151b0565b505084810360408601526151e9818b6150c1565b9250505082810360608401526151ff81886150fc565b6080840196909652505060a081019290925260c090910152949350505050565b805164ffffffffff8116811461523457600080fd5b919050565b60006020828403121561524b57600080fd5b6122d48261521f565b8051801515811461523457600080fd5b60006020828403121561527657600080fd5b6122d482615254565b6020808252601690820152752127a3a59736b31726a29d102727aa1026b2b6b132b960511b604082015260600190565b6000602082840312156152c157600080fd5b5051919050565b805161ffff8116811461523457600080fd5b805160ff8116811461523457600080fd5b600061014082840312156152fe57600080fd5b615306614bc6565b61530f836152c8565b815261531d602084016152da565b602082015261532e604084016152da565b604082015261533f60608401615254565b6060820152615350608084016152c8565b608082015261536160a084016152c8565b60a082015261537260c084016152c8565b60c082015261538360e084016152c8565b60e08201526101006153968185016152c8565b908201526101206153a88482016152c8565b908201529392505050565b80516001600160401b038116811461523457600080fd5b805163ffffffff8116811461523457600080fd5b600060208083850312156153f157600080fd5b82516001600160401b038082111561540857600080fd5b9084019060a0828703121561541c57600080fd5b615424614bef565b61542d8361521f565b815261543a8484016153b3565b8482015261544a604084016153b3565b604082015261545b606084016153ca565b606082015260808301518281111561547257600080fd5b80840193505086601f84011261548757600080fd5b82519150615497614d2783614ccb565b82815260059290921b830184019184810190888411156154b657600080fd5b938501935b838510156154db576154cc8561521f565b825293850193908501906154bb565b6080830152509695505050505050565b6000602082840312156154fd57600080fd5b6122d4826153b3565b634e487b7160e01b600052601160045260246000fd5b60006001600160401b038084168061554457634e487b7160e01b600052601260045260246000fd5b92169190910492915050565b60208082526026908201527f41432e6f6e6c794469726563744b65657065723a206e6f74206469726563742060408201526535b2b2b832b960d11b606082015260800190565b805165ffffffffffff8116811461523457600080fd5b600060e082840312156155be57600080fd5b6155c6614c11565b90506155d18261521f565b81526155df60208301615596565b60208201526155f060408301615596565b604082015261560160608301615596565b606082015261561260808301615596565b608082015261562360a083016152c8565b60a082015261563460c083016152da565b60c082015292915050565b600082601f83011261565057600080fd5b604051604081018181106001600160401b038211171561567257615672614bb0565b806040525080604084018581111561568957600080fd5b845b818110156156aa5761569c8161521f565b83526020928301920161568b565b509195945050505050565b600061022082840312156156c857600080fd5b6156d0614c33565b90506156db826152c8565b81526156e9602083016152da565b60208201526156fa604083016152da565b604082015261570b606083016152c8565b606082015261571c608083016152c8565b608082015261572d60a083016152c8565b60a082015261573e60c08301615254565b60c082015261574f60e08301615254565b60e0820152610100615762818401615254565b90820152610120615774838201615254565b908201526101406157868382016152da565b908201526101606157988382016152da565b908201526101806157aa8382016152da565b908201526101a06157bc8382016152da565b908201526101c06157ce8382016152da565b908201526101e06157e18484830161563f565b9082015292915050565b60008183036104008112156157ff57600080fd5b615807614c56565b60e082121561581557600080fd5b61581d614c11565b9150615828846152c8565b8252615836602085016153b3565b6020830152615847604085016152c8565b60408301526158586060850161521f565b60608301526158696080850161521f565b608083015261587a60a08501615596565b60a083015261588b60c085016153ca565b60c08301528181526158a08560e086016155ac565b60208201526158b3856101c086016156b5565b60408201526103e093909301516060840152509092915050565b600061012082840312156158e057600080fd5b6158e8614c78565b6158f1836152c8565b81526158ff602084016152c8565b60208201526159106040840161521f565b60408201526159216060840161521f565b606082015261593260808401615596565b608082015261594360a08401615596565b60a082015261595460c084016152c8565b60c082015261596560e084016152c8565b60e08201526101006153a88185016152c8565b6000610220828403121561598b57600080fd5b6122d483836156b5565b8060005b6002811015614abb57815164ffffffffff16845260209384019390910190600101615999565b6001600160a01b0383168152815161ffff1660208201526102408101602083015160ff8116604084015250604083015160ff8116606084015250606083015161ffff8116608084015250608083015161ffff811660a08401525060a083015161ffff811660c08401525060c083015180151560e08401525060e0830151610100615a4c8185018315159052565b8401519050610120615a618482018315159052565b8401519050610140615a768482018315159052565b8401519050610160615a8c8482018360ff169052565b8401519050610180615aa28482018360ff169052565b84015190506101a0615ab88482018360ff169052565b84015190506101c0615ace8482018360ff169052565b84015190506101e0615ae48482018360ff169052565b8401519050615af7610200840182615995565b509392505050565b600082601f830112615b1057600080fd5b81516020615b20614d2783614ccb565b82815260059290921b84018101918181019086841115615b3f57600080fd5b8286015b84811015614d665780518352918301918301615b43565b600060208284031215615b6c57600080fd5b81516001600160401b0380821115615b8357600080fd5b9083019060608286031215615b9757600080fd5b604051606081018181108382111715615bb257615bb2614bb0565b604052615bbe836153ca565b8152615bcc602084016153b3565b6020820152604083015182811115615be357600080fd5b615bef87828601615aff565b60408301525095945050505050565b600060208284031215615c1057600080fd5b6122d4826153ca565b600060808284031215615c2b57600080fd5b604051608081018181106001600160401b0382111715615c4d57615c4d614bb0565b604052615c5983615596565b8152615c67602084016153b3565b6020820152615c78604084016153b3565b6040820152615c89606084016153b3565b60608201529392505050565b60006001600160401b0383811690831681811015615cb557615cb5615506565b039392505050565b600060208284031215615ccf57600080fd5b81516001600160401b03811115615ce557600080fd5b615cf184828501615aff565b949350505050565b600082821015615d0b57615d0b615506565b500390565b634e487b7160e01b600052603260045260246000fd5b60006001600160401b0380831681811415615d4357615d43615506565b6001019392505050565b60006001600160401b03808316818516808303821115615d6f57615d6f615506565b01949350505050565b60006001600160401b03821680615d9157615d91615506565b6000190192915050565b600081615daa57615daa615506565b506000190190565b600060208284031215615dc457600080fd5b6122d4826152da56fea2646970667358221220898e5a1ebb80b4be9634bd3df118240c3c7977da111beed63f2e7c0f7535dc1764736f6c63430008080033",
    "sourcePath": "/Users/kaptain/github.com/hardhat/comboox/contracts/keepers/BOGKeeper.sol",
    "compiler": {
        "name": "solc",
        "version": "0.8.8+commit.dddeac2f"
    },
    "functionHashes": {
        "abandonRole(bytes32)": "3da9a600",
        "castVoteOfGM(uint256,uint256,bytes32,uint256)": "a8459ac0",
        "createBoardSeal(address)": "180dc60e",
        "createCorpSeal(uint256)": "331dbb22",
        "entrustDelegateOfMember(uint256,uint256,uint256)": "3b9f1b81",
        "execActionOfGM(uint256,address[],uint256[],bytes[],bytes32,uint256,uint256)": "020c814d",
        "finalized()": "b3f05b97",
        "getBookeeper()": "ed211023",
        "getGeneralCounsel()": "103f6edd",
        "getOwner()": "893d20e8",
        "grantRole(bytes32,uint256)": "1b6ea9f9",
        "hasRole(bytes32,uint256)": "7e063c5a",
        "init(uint256,address,address,address)": "dc890da9",
        "lockContents()": "f045a769",
        "nominateDirector(uint256,uint256,uint256)": "3c44bcb6",
        "proposeActionOfGM(uint256,address[],uint256[],bytes[],bytes32,uint256,uint256)": "c24cb859",
        "proposeDocOfGM(address,uint256,uint256,uint256)": "d0e27e10",
        "proposeMotionOfGM(uint256,uint256)": "1153cd2e",
        "proposeToRemoveDirector(uint256,uint256)": "a6098807",
        "removeDirector(uint256,uint256,uint256,uint256)": "9d7d867b",
        "renounceRole(bytes32)": "8bb9c5bf",
        "revokeRole(bytes32,uint256)": "19d61ad9",
        "setDirectKeeper(address)": "6be8496f",
        "setGeneralCounsel(uint256)": "4a14beb1",
        "setOwner(uint256)": "8041494e",
        "setRoleAdmin(bytes32,uint256)": "5171ebd4",
        "takeSeat(uint256,uint256,uint256)": "7451ce03",
        "voteCountingOfGM(uint256,uint256)": "f1e9e7f7"
    },
    "gasEstimates": {
        "creation": {
            "codeDepositCost": "4813400",
            "executionCost": "5676",
            "totalCost": "4819076"
        },
        "external": {
            "abandonRole(bytes32)": "infinite",
            "castVoteOfGM(uint256,uint256,bytes32,uint256)": "infinite",
            "createBoardSeal(address)": "infinite",
            "createCorpSeal(uint256)": "infinite",
            "entrustDelegateOfMember(uint256,uint256,uint256)": "infinite",
            "execActionOfGM(uint256,address[],uint256[],bytes[],bytes32,uint256,uint256)": "infinite",
            "finalized()": "2372",
            "getBookeeper()": "infinite",
            "getGeneralCounsel()": "infinite",
            "getOwner()": "infinite",
            "grantRole(bytes32,uint256)": "infinite",
            "hasRole(bytes32,uint256)": "infinite",
            "init(uint256,address,address,address)": "infinite",
            "lockContents()": "infinite",
            "nominateDirector(uint256,uint256,uint256)": "infinite",
            "proposeActionOfGM(uint256,address[],uint256[],bytes[],bytes32,uint256,uint256)": "infinite",
            "proposeDocOfGM(address,uint256,uint256,uint256)": "infinite",
            "proposeMotionOfGM(uint256,uint256)": "infinite",
            "proposeToRemoveDirector(uint256,uint256)": "infinite",
            "removeDirector(uint256,uint256,uint256,uint256)": "infinite",
            "renounceRole(bytes32)": "infinite",
            "revokeRole(bytes32,uint256)": "infinite",
            "setDirectKeeper(address)": "infinite",
            "setGeneralCounsel(uint256)": "infinite",
            "setOwner(uint256)": "infinite",
            "setRoleAdmin(bytes32,uint256)": "infinite",
            "takeSeat(uint256,uint256,uint256)": "infinite",
            "voteCountingOfGM(uint256,uint256)": "infinite"
        },
        "internal": {
            "_avoidanceCheck(uint256,uint256)": "infinite"
        }
    }
}