{
    "contractName": "BOGKeeper",
    "abi": [
        {
            "anonymous": false,
            "inputs": [
                {
                    "indexed": true,
                    "internalType": "uint256",
                    "name": "owner",
                    "type": "uint256"
                },
                {
                    "indexed": true,
                    "internalType": "address",
                    "name": "directKeeper",
                    "type": "address"
                },
                {
                    "indexed": false,
                    "internalType": "address",
                    "name": "regCenter",
                    "type": "address"
                },
                {
                    "indexed": true,
                    "internalType": "address",
                    "name": "generalKeeper",
                    "type": "address"
                }
            ],
            "name": "Init",
            "type": "event"
        },
        {
            "anonymous": false,
            "inputs": [],
            "name": "LockContents",
            "type": "event"
        },
        {
            "anonymous": false,
            "inputs": [
                {
                    "indexed": true,
                    "internalType": "address",
                    "name": "target",
                    "type": "address"
                }
            ],
            "name": "RemoveDirectKeeper",
            "type": "event"
        },
        {
            "anonymous": false,
            "inputs": [
                {
                    "indexed": true,
                    "internalType": "address",
                    "name": "keeper",
                    "type": "address"
                }
            ],
            "name": "SetDirectKeeper",
            "type": "event"
        },
        {
            "anonymous": false,
            "inputs": [
                {
                    "indexed": true,
                    "internalType": "uint256",
                    "name": "acct",
                    "type": "uint256"
                }
            ],
            "name": "SetGeneralCounsel",
            "type": "event"
        },
        {
            "anonymous": false,
            "inputs": [
                {
                    "indexed": true,
                    "internalType": "uint256",
                    "name": "acct",
                    "type": "uint256"
                }
            ],
            "name": "SetOwner",
            "type": "event"
        },
        {
            "inputs": [
                {
                    "internalType": "bytes32",
                    "name": "role",
                    "type": "bytes32"
                }
            ],
            "name": "abandonRole",
            "outputs": [],
            "stateMutability": "nonpayable",
            "type": "function"
        },
        {
            "inputs": [
                {
                    "internalType": "uint256",
                    "name": "seqOfMotion",
                    "type": "uint256"
                },
                {
                    "internalType": "uint256",
                    "name": "attitude",
                    "type": "uint256"
                },
                {
                    "internalType": "bytes32",
                    "name": "sigHash",
                    "type": "bytes32"
                },
                {
                    "internalType": "uint256",
                    "name": "caller",
                    "type": "uint256"
                }
            ],
            "name": "castVoteOfGM",
            "outputs": [],
            "stateMutability": "nonpayable",
            "type": "function"
        },
        {
            "inputs": [
                {
                    "internalType": "uint256",
                    "name": "seqOfVR",
                    "type": "uint256"
                },
                {
                    "internalType": "address[]",
                    "name": "targets",
                    "type": "address[]"
                },
                {
                    "internalType": "uint256[]",
                    "name": "values",
                    "type": "uint256[]"
                },
                {
                    "internalType": "bytes[]",
                    "name": "params",
                    "type": "bytes[]"
                },
                {
                    "internalType": "bytes32",
                    "name": "desHash",
                    "type": "bytes32"
                },
                {
                    "internalType": "uint256",
                    "name": "executor",
                    "type": "uint256"
                },
                {
                    "internalType": "uint256",
                    "name": "proposer",
                    "type": "uint256"
                }
            ],
            "name": "createActionOfGM",
            "outputs": [],
            "stateMutability": "nonpayable",
            "type": "function"
        },
        {
            "inputs": [
                {
                    "internalType": "uint256",
                    "name": "seqOfPos",
                    "type": "uint256"
                },
                {
                    "internalType": "uint256",
                    "name": "caller",
                    "type": "uint256"
                }
            ],
            "name": "createMotionToRemoveDirector",
            "outputs": [],
            "stateMutability": "nonpayable",
            "type": "function"
        },
        {
            "inputs": [
                {
                    "internalType": "uint256",
                    "name": "seqOfMotion",
                    "type": "uint256"
                },
                {
                    "internalType": "uint256",
                    "name": "delegate",
                    "type": "uint256"
                },
                {
                    "internalType": "uint256",
                    "name": "caller",
                    "type": "uint256"
                }
            ],
            "name": "entrustDelegateOfMember",
            "outputs": [],
            "stateMutability": "nonpayable",
            "type": "function"
        },
        {
            "inputs": [
                {
                    "internalType": "uint256",
                    "name": "typeOfAction",
                    "type": "uint256"
                },
                {
                    "internalType": "address[]",
                    "name": "targets",
                    "type": "address[]"
                },
                {
                    "internalType": "uint256[]",
                    "name": "values",
                    "type": "uint256[]"
                },
                {
                    "internalType": "bytes[]",
                    "name": "params",
                    "type": "bytes[]"
                },
                {
                    "internalType": "bytes32",
                    "name": "desHash",
                    "type": "bytes32"
                },
                {
                    "internalType": "uint256",
                    "name": "seqOfMotion",
                    "type": "uint256"
                },
                {
                    "internalType": "uint256",
                    "name": "caller",
                    "type": "uint256"
                }
            ],
            "name": "execActionOfGM",
            "outputs": [
                {
                    "internalType": "uint256",
                    "name": "",
                    "type": "uint256"
                }
            ],
            "stateMutability": "nonpayable",
            "type": "function"
        },
        {
            "inputs": [],
            "name": "finalized",
            "outputs": [
                {
                    "internalType": "bool",
                    "name": "",
                    "type": "bool"
                }
            ],
            "stateMutability": "view",
            "type": "function"
        },
        {
            "inputs": [],
            "name": "getBookeeper",
            "outputs": [
                {
                    "internalType": "address",
                    "name": "",
                    "type": "address"
                }
            ],
            "stateMutability": "view",
            "type": "function"
        },
        {
            "inputs": [],
            "name": "getGeneralCounsel",
            "outputs": [
                {
                    "internalType": "uint40",
                    "name": "",
                    "type": "uint40"
                }
            ],
            "stateMutability": "view",
            "type": "function"
        },
        {
            "inputs": [],
            "name": "getOwner",
            "outputs": [
                {
                    "internalType": "uint40",
                    "name": "",
                    "type": "uint40"
                }
            ],
            "stateMutability": "view",
            "type": "function"
        },
        {
            "inputs": [
                {
                    "internalType": "bytes32",
                    "name": "role",
                    "type": "bytes32"
                },
                {
                    "internalType": "uint256",
                    "name": "acct",
                    "type": "uint256"
                }
            ],
            "name": "grantRole",
            "outputs": [],
            "stateMutability": "nonpayable",
            "type": "function"
        },
        {
            "inputs": [
                {
                    "internalType": "bytes32",
                    "name": "role",
                    "type": "bytes32"
                },
                {
                    "internalType": "uint256",
                    "name": "acct",
                    "type": "uint256"
                }
            ],
            "name": "hasRole",
            "outputs": [
                {
                    "internalType": "bool",
                    "name": "",
                    "type": "bool"
                }
            ],
            "stateMutability": "view",
            "type": "function"
        },
        {
            "inputs": [
                {
                    "internalType": "uint256",
                    "name": "owner",
                    "type": "uint256"
                },
                {
                    "internalType": "address",
                    "name": "directKeeper",
                    "type": "address"
                },
                {
                    "internalType": "address",
                    "name": "regCenter",
                    "type": "address"
                },
                {
                    "internalType": "address",
                    "name": "generalKeeper",
                    "type": "address"
                }
            ],
            "name": "init",
            "outputs": [],
            "stateMutability": "nonpayable",
            "type": "function"
        },
        {
            "inputs": [],
            "name": "lockContents",
            "outputs": [],
            "stateMutability": "nonpayable",
            "type": "function"
        },
        {
            "inputs": [
                {
                    "internalType": "uint256",
                    "name": "seqOfPos",
                    "type": "uint256"
                },
                {
                    "internalType": "uint256",
                    "name": "candidate",
                    "type": "uint256"
                },
                {
                    "internalType": "uint256",
                    "name": "nominator",
                    "type": "uint256"
                }
            ],
            "name": "nominateDirector",
            "outputs": [],
            "stateMutability": "nonpayable",
            "type": "function"
        },
        {
            "inputs": [
                {
                    "internalType": "address",
                    "name": "doc",
                    "type": "address"
                },
                {
                    "internalType": "uint256",
                    "name": "seqOfVR",
                    "type": "uint256"
                },
                {
                    "internalType": "uint256",
                    "name": "executor",
                    "type": "uint256"
                },
                {
                    "internalType": "uint256",
                    "name": "proposer",
                    "type": "uint256"
                }
            ],
            "name": "proposeDocOfGM",
            "outputs": [],
            "stateMutability": "nonpayable",
            "type": "function"
        },
        {
            "inputs": [
                {
                    "internalType": "uint256",
                    "name": "seqOfMotion",
                    "type": "uint256"
                },
                {
                    "internalType": "uint256",
                    "name": "caller",
                    "type": "uint256"
                }
            ],
            "name": "proposeMotionOfGM",
            "outputs": [],
            "stateMutability": "nonpayable",
            "type": "function"
        },
        {
            "inputs": [
                {
                    "internalType": "address",
                    "name": "target",
                    "type": "address"
                }
            ],
            "name": "removeDirectKeeper",
            "outputs": [],
            "stateMutability": "nonpayable",
            "type": "function"
        },
        {
            "inputs": [
                {
                    "internalType": "uint256",
                    "name": "seqOfMotion",
                    "type": "uint256"
                },
                {
                    "internalType": "uint256",
                    "name": "seqOfPos",
                    "type": "uint256"
                },
                {
                    "internalType": "uint256",
                    "name": "director",
                    "type": "uint256"
                },
                {
                    "internalType": "uint256",
                    "name": "caller",
                    "type": "uint256"
                }
            ],
            "name": "removeDirector",
            "outputs": [],
            "stateMutability": "nonpayable",
            "type": "function"
        },
        {
            "inputs": [
                {
                    "internalType": "bytes32",
                    "name": "role",
                    "type": "bytes32"
                }
            ],
            "name": "renounceRole",
            "outputs": [],
            "stateMutability": "nonpayable",
            "type": "function"
        },
        {
            "inputs": [
                {
                    "internalType": "bytes32",
                    "name": "role",
                    "type": "bytes32"
                },
                {
                    "internalType": "uint256",
                    "name": "acct",
                    "type": "uint256"
                }
            ],
            "name": "revokeRole",
            "outputs": [],
            "stateMutability": "nonpayable",
            "type": "function"
        },
        {
            "inputs": [
                {
                    "internalType": "address",
                    "name": "keeper",
                    "type": "address"
                }
            ],
            "name": "setDirectKeeper",
            "outputs": [],
            "stateMutability": "nonpayable",
            "type": "function"
        },
        {
            "inputs": [
                {
                    "internalType": "uint256",
                    "name": "acct",
                    "type": "uint256"
                }
            ],
            "name": "setGeneralCounsel",
            "outputs": [],
            "stateMutability": "nonpayable",
            "type": "function"
        },
        {
            "inputs": [
                {
                    "internalType": "uint256",
                    "name": "acct",
                    "type": "uint256"
                }
            ],
            "name": "setOwner",
            "outputs": [],
            "stateMutability": "nonpayable",
            "type": "function"
        },
        {
            "inputs": [
                {
                    "internalType": "bytes32",
                    "name": "role",
                    "type": "bytes32"
                },
                {
                    "internalType": "uint256",
                    "name": "acct",
                    "type": "uint256"
                }
            ],
            "name": "setRoleAdmin",
            "outputs": [],
            "stateMutability": "nonpayable",
            "type": "function"
        },
        {
            "inputs": [
                {
                    "internalType": "uint256",
                    "name": "seqOfMotion",
                    "type": "uint256"
                },
                {
                    "internalType": "uint256",
                    "name": "seqOfPos",
                    "type": "uint256"
                },
                {
                    "internalType": "uint256",
                    "name": "caller",
                    "type": "uint256"
                }
            ],
            "name": "takeSeat",
            "outputs": [],
            "stateMutability": "nonpayable",
            "type": "function"
        },
        {
            "inputs": [
                {
                    "internalType": "uint256",
                    "name": "seqOfMotion",
                    "type": "uint256"
                },
                {
                    "internalType": "uint256",
                    "name": "caller",
                    "type": "uint256"
                }
            ],
            "name": "voteCountingOfGM",
            "outputs": [],
            "stateMutability": "nonpayable",
            "type": "function"
        }
    ],
    "bytecode": "608060405234801561001057600080fd5b50615dad80620000216000396000f3fe608060405234801561001057600080fd5b50600436106101a95760003560e01c80637451ce03116100f9578063acd4aa7b11610097578063dc890da911610071578063dc890da914610389578063ed2110231461039c578063f045a769146103bc578063f1e9e7f7146103c457600080fd5b8063acd4aa7b1461034f578063b3f05b9714610362578063d0e27e101461037657600080fd5b8063893d20e8116100d3578063893d20e81461030e5780638bb9c5bf146103165780639d7d867b14610329578063a8459ac01461033c57600080fd5b80637451ce03146102c55780637e063c5a146102d85780638041494e146102fb57600080fd5b80633b9f1b81116101665780634a14beb1116101405780634a14beb1146102795780635171ebd41461028c5780635d7ad88f1461029f5780636be8496f146102b257600080fd5b80633b9f1b81146102405780633c44bcb6146102535780633da9a6001461026657600080fd5b8063020c814d146101ae578063103f6edd146101d45780631153cd2e146101f2578063142ed3271461020757806319d61ad91461021a5780631b6ea9f91461022d575b600080fd5b6101c16101bc366004614df1565b6103d7565b6040519081526020015b60405180910390f35b6101dc6104e9565b60405164ffffffffff90911681526020016101cb565b610205610200366004614efd565b610575565b005b610205610215366004614efd565b610a75565b610205610228366004614efd565b610fc9565b61020561023b366004614efd565b611053565b61020561024e366004614f1f565b611079565b610205610261366004614f1f565b611347565b610205610274366004614f4b565b61184a565b610205610287366004614f4b565b6118d5565b61020561029a366004614efd565b611b2a565b6102056102ad366004614f64565b611b50565b6102056102c0366004614f64565b611c85565b6102056102d3366004614f1f565b611d34565b6102eb6102e6366004614efd565b61207e565b60405190151581526020016101cb565b610205610309366004614f4b565b612119565b6101dc6121cf565b610205610324366004614f4b565b61220a565b610205610337366004614f81565b61222f565b61020561034a366004614f81565b612554565b61020561035d366004614df1565b61287b565b60028054600160f01b900460ff16146102eb565b610205610384366004614fb3565b612c4d565b610205610397366004614fee565b613207565b6103a46132df565b6040516001600160a01b0390911681526020016101cb565b610205613365565b6102056103d2366004614efd565b6135af565b6001546040805163682ebf0560e01b815290516000926001600160a01b03169163682ebf05916004808301926020929190829003018186803b15801561041c57600080fd5b505afa158015610430573d6000803e3d6000fd5b505050506040513d601f19601f820116820180604052508101906104549190615041565b6001600160a01b0316635c2753bf898989898989896040518863ffffffff1660e01b815260040161048b9796959493929190615127565b602060405180830381600087803b1580156104a557600080fd5b505af11580156104b9573d6000803e3d6000fd5b505050506040513d601f19601f820116820180604052508101906104dd91906151bc565b98975050505050505050565b60405163e8c0cc1d60e01b81526002600482015260009073__$a374c895e6fa8c448878668e00d93ef99a$__9063e8c0cc1d906024015b60206040518083038186803b15801561053857600080fd5b505af415801561054c573d6000803e3d6000fd5b505050506040513d601f19601f8201168201806040525081019061057091906151ef565b905090565b604051633b11adbf60e21b81526002600482015233602482015273__$a374c895e6fa8c448878668e00d93ef99a$__9063ec46b6fc9060440160206040518083038186803b1580156105c657600080fd5b505af41580156105da573d6000803e3d6000fd5b505050506040513d601f19601f820116820180604052508101906105fe919061521a565b8061067f57506001546040516335d2155560e11b81523360048201526001600160a01b0390911690636ba42aaa9060240160206040518083038186803b15801561064757600080fd5b505afa15801561065b573d6000803e3d6000fd5b505050506040513d601f19601f8201168201806040525081019061067f919061521a565b6106c45760405162461bcd60e51b815260206004820152601160248201527020a19737b59d103737ba1025b2b2b832b960791b60448201526064015b60405180910390fd5b6001546040805163682ebf0560e01b815290516000926001600160a01b03169163682ebf05916004808301926020929190829003018186803b15801561070957600080fd5b505afa15801561071d573d6000803e3d6000fd5b505050506040513d601f19601f820116820180604052508101906107419190615041565b6040516361df743f60e01b815260048101859052602481018490529091506000906001600160a01b038316906361df743f9060440160006040518083038186803b15801561078e57600080fd5b505afa1580156107a2573d6000803e3d6000fd5b505050506040513d6000823e601f3d908101601f191682016040526107ca9190810190615260565b805190915064ffffffffff16156108235760405162461bcd60e51b815260206004820152601b60248201527f424f474b2e504d3a20656e747275737465642064656c6567617465000000000060448201526064016106bb565b600154604080516314c35b8560e31b815290516000926001600160a01b03169163a61adc28916004808301926020929190829003018186803b15801561086857600080fd5b505afa15801561087c573d6000803e3d6000fd5b505050506040513d601f19601f820116820180604052508101906108a09190615041565b604051634846203760e01b8152600060048201526001600160a01b03919091169063484620379060240160206040518083038186803b1580156108e257600080fd5b505afa1580156108f6573d6000803e3d6000fd5b505050506040513d601f19601f8201168201806040525081019061091a91906151bc565b604051633d315f5b60e21b8152600481019190915273__$fd7bbdaedbcbc33e1887256b0ab47b2b43$__9063f4c57d6c906024016102206040518083038186803b15801561096757600080fd5b505af415801561097b573d6000803e3d6000fd5b505050506040513d601f19601f8201168201806040525081019061099f91906153a6565b90506109ae858584848761415d565b806109c057506109c085858386614597565b610a0c5760405162461bcd60e51b815260206004820152601e60248201527f424f474b2e504d3a20686173206e6f2070726f706f73616c207269676874000060448201526064016106bb565b6040516304b79d5f60e11b815260048101869052602481018590526001600160a01b0384169063096f3abe906044015b600060405180830381600087803b158015610a5657600080fd5b505af1158015610a6a573d6000803e3d6000fd5b505050505050505050565b604051633b11adbf60e21b81526002600482015233602482015273__$a374c895e6fa8c448878668e00d93ef99a$__9063ec46b6fc9060440160206040518083038186803b158015610ac657600080fd5b505af4158015610ada573d6000803e3d6000fd5b505050506040513d601f19601f82011682018060405250810190610afe919061521a565b610b1a5760405162461bcd60e51b81526004016106bb906154ec565b600154604080516319fdcb7760e11b8152905183926001600160a01b0316916333fb96ee916004808301926020929190829003018186803b158015610b5e57600080fd5b505afa158015610b72573d6000803e3d6000fd5b505050506040513d601f19601f82011682018060405250810190610b969190615041565b6001600160a01b031663d50c7377826040518263ffffffff1660e01b8152600401610bc391815260200190565b60206040518083038186803b158015610bdb57600080fd5b505afa158015610bef573d6000803e3d6000fd5b505050506040513d601f19601f82011682018060405250810190610c13919061521a565b80610d1c5750600160009054906101000a90046001600160a01b03166001600160a01b0316639262826d6040518163ffffffff1660e01b815260040160206040518083038186803b158015610c6757600080fd5b505afa158015610c7b573d6000803e3d6000fd5b505050506040513d601f19601f82011682018060405250810190610c9f9190615041565b6001600160a01b0316639258effe826040518263ffffffff1660e01b8152600401610ccc91815260200190565b60206040518083038186803b158015610ce457600080fd5b505afa158015610cf8573d6000803e3d6000fd5b505050506040513d601f19601f82011682018060405250810190610d1c919061521a565b610d385760405162461bcd60e51b81526004016106bb90615532565b60015460408051639262826d60e01b815290516000926001600160a01b031691639262826d916004808301926020929190829003018186803b158015610d7d57600080fd5b505afa158015610d91573d6000803e3d6000fd5b505050506040513d601f19601f82011682018060405250810190610db59190615041565b6001600160a01b031663eb02c301856040518263ffffffff1660e01b8152600401610de291815260200190565b6101206040518083038186803b158015610dfb57600080fd5b505afa158015610e0f573d6000803e3d6000fd5b505050506040513d601f19601f82011682018060405250810190610e339190615569565b9050806060015164ffffffffff1660001480610e59575082816060015164ffffffffff16145b610eaf5760405162461bcd60e51b815260206004820152602160248201527f424f474b2e505452443a20686173206e6f206e6f6d696e6174696f6e526967686044820152601d60fa1b60648201526084016106bb565b6001546040805163682ebf0560e01b815290516000926001600160a01b03169163682ebf05916004808301926020929190829003018186803b158015610ef457600080fd5b505afa158015610f08573d6000803e3d6000fd5b505050506040513d601f19601f82011682018060405250810190610f2c9190615041565b60c0830151604051631f6060a960e31b81526004810188905261ffff9091166024820152604481018690529091506001600160a01b0382169063fb030548906064015b602060405180830381600087803b158015610f8957600080fd5b505af1158015610f9d573d6000803e3d6000fd5b505050506040513d601f19601f82011682018060405250810190610fc19190615614565b505050505050565b73__$a374c895e6fa8c448878668e00d93ef99a$__6382daafaa60028484610fef614805565b6040516001600160e01b031960e087901b16815260048101949094526024840192909252604483015264ffffffffff16606482015260840160006040518083038186803b15801561103f57600080fd5b505af4158015610fc1573d6000803e3d6000fd5b73__$a374c895e6fa8c448878668e00d93ef99a$__636320d75e60028484610fef614805565b604051633b11adbf60e21b81526002600482015233602482015273__$a374c895e6fa8c448878668e00d93ef99a$__9063ec46b6fc9060440160206040518083038186803b1580156110ca57600080fd5b505af41580156110de573d6000803e3d6000fd5b505050506040513d601f19601f82011682018060405250810190611102919061521a565b61111e5760405162461bcd60e51b81526004016106bb906154ec565b611128838261485f565b600160009054906101000a90046001600160a01b03166001600160a01b031663682ebf056040518163ffffffff1660e01b815260040160206040518083038186803b15801561117657600080fd5b505afa15801561118a573d6000803e3d6000fd5b505050506040513d601f19601f820116820180604052508101906111ae9190615041565b6001600160a01b0316638f7b0b88848484600160009054906101000a90046001600160a01b03166001600160a01b03166333fb96ee6040518163ffffffff1660e01b815260040160206040518083038186803b15801561120d57600080fd5b505afa158015611221573d6000803e3d6000fd5b505050506040513d601f19601f820116820180604052508101906112459190615041565b600160009054906101000a90046001600160a01b03166001600160a01b0316639262826d6040518163ffffffff1660e01b815260040160206040518083038186803b15801561129357600080fd5b505afa1580156112a7573d6000803e3d6000fd5b505050506040513d601f19601f820116820180604052508101906112cb9190615041565b6040516001600160e01b031960e088901b1681526004810195909552602485019390935260448401919091526001600160a01b03908116606484015216608482015260a401600060405180830381600087803b15801561132a57600080fd5b505af115801561133e573d6000803e3d6000fd5b50505050505050565b604051633b11adbf60e21b81526002600482015233602482015273__$a374c895e6fa8c448878668e00d93ef99a$__9063ec46b6fc9060440160206040518083038186803b15801561139857600080fd5b505af41580156113ac573d6000803e3d6000fd5b505050506040513d601f19601f820116820180604052508101906113d0919061521a565b6113ec5760405162461bcd60e51b81526004016106bb906154ec565b600154604080516319fdcb7760e11b8152905183926001600160a01b0316916333fb96ee916004808301926020929190829003018186803b15801561143057600080fd5b505afa158015611444573d6000803e3d6000fd5b505050506040513d601f19601f820116820180604052508101906114689190615041565b6001600160a01b031663d50c7377826040518263ffffffff1660e01b815260040161149591815260200190565b60206040518083038186803b1580156114ad57600080fd5b505afa1580156114c1573d6000803e3d6000fd5b505050506040513d601f19601f820116820180604052508101906114e5919061521a565b806115ee5750600160009054906101000a90046001600160a01b03166001600160a01b0316639262826d6040518163ffffffff1660e01b815260040160206040518083038186803b15801561153957600080fd5b505afa15801561154d573d6000803e3d6000fd5b505050506040513d601f19601f820116820180604052508101906115719190615041565b6001600160a01b0316639258effe826040518263ffffffff1660e01b815260040161159e91815260200190565b60206040518083038186803b1580156115b657600080fd5b505afa1580156115ca573d6000803e3d6000fd5b505050506040513d601f19601f820116820180604052508101906115ee919061521a565b61160a5760405162461bcd60e51b81526004016106bb90615532565b60015460408051639262826d60e01b815290516000926001600160a01b031691639262826d916004808301926020929190829003018186803b15801561164f57600080fd5b505afa158015611663573d6000803e3d6000fd5b505050506040513d601f19601f820116820180604052508101906116879190615041565b6001600160a01b031663eb02c301866040518263ffffffff1660e01b81526004016116b491815260200190565b6101206040518083038186803b1580156116cd57600080fd5b505afa1580156116e1573d6000803e3d6000fd5b505050506040513d601f19601f820116820180604052508101906117059190615569565b9050806060015164ffffffffff166000148061172b575082816060015164ffffffffff16145b6117775760405162461bcd60e51b815260206004820152601f60248201527f424f474b2e4e443a20686173206e6f206e6f6d696e6174696f6e52696768740060448201526064016106bb565b600160009054906101000a90046001600160a01b03166001600160a01b031663682ebf056040518163ffffffff1660e01b815260040160206040518083038186803b1580156117c557600080fd5b505afa1580156117d9573d6000803e3d6000fd5b505050506040513d601f19601f820116820180604052508101906117fd9190615041565b60c08201516040516313d904eb60e21b81526004810188905261ffff909116602482015260448101869052606481018590526001600160a01b039190911690634f6413ac90608401610f6f565b73__$a374c895e6fa8c448878668e00d93ef99a$__63c51b295f60028361186f614805565b6040516001600160e01b031960e086901b1681526004810193909352602483019190915264ffffffffff16604482015260640160006040518083038186803b1580156118ba57600080fd5b505af41580156118ce573d6000803e3d6000fd5b5050505050565b604051633b11adbf60e21b81526002600482015233602482015273__$a374c895e6fa8c448878668e00d93ef99a$__9063ec46b6fc9060440160206040518083038186803b15801561192657600080fd5b505af415801561193a573d6000803e3d6000fd5b505050506040513d601f19601f8201168201806040525081019061195e919061521a565b80611a03575073__$a374c895e6fa8c448878668e00d93ef99a$__63fe2710866002611988614805565b6040516001600160e01b031960e085901b168152600481019290925264ffffffffff16602482015260440160206040518083038186803b1580156119cb57600080fd5b505af41580156119df573d6000803e3d6000fd5b505050506040513d601f19601f82011682018060405250810190611a03919061521a565b611a6e5760405162461bcd60e51b815260206004820152603660248201527f41432e6f776e65724f72446972656374426f6f6b65657065723a206e6569746860448201527532b91037bbb732b9103737b9103137b7b5b2b2b832b960511b60648201526084016106bb565b73__$a374c895e6fa8c448878668e00d93ef99a$__6313a187d2600283611a93614805565b6040516001600160e01b031960e086901b1681526004810193909352602483019190915264ffffffffff16604482015233606482015260840160006040518083038186803b158015611ae457600080fd5b505af4158015611af8573d6000803e3d6000fd5b50506040518392507ff2735f34b69be1e6342dea95f9162f84d0db925fab655ca9f1f312ac8cbfc99d9150600090a250565b73__$a374c895e6fa8c448878668e00d93ef99a$__63ee98b31360028484610fef614805565b604051633b11adbf60e21b81526002600482015233602482015273__$a374c895e6fa8c448878668e00d93ef99a$__9063ec46b6fc9060440160206040518083038186803b158015611ba157600080fd5b505af4158015611bb5573d6000803e3d6000fd5b505050506040513d601f19601f82011682018060405250810190611bd9919061521a565b611bf55760405162461bcd60e51b81526004016106bb906154ec565b604051636be8496f60e01b81523360048201526001600160a01b03821690636be8496f90602401600060405180830381600087803b158015611c3657600080fd5b505af1158015611c4a573d6000803e3d6000fd5b50506040516001600160a01b03841692507f64dd6e84044f0067086012335dcfab3188db6615b5cc7debf18c9a621ebd5d919150600090a250565b604051630f07232560e01b8152600260048201526001600160a01b038216602482015233604482015273__$a374c895e6fa8c448878668e00d93ef99a$__90630f0723259060640160006040518083038186803b158015611ce557600080fd5b505af4158015611cf9573d6000803e3d6000fd5b50506040516001600160a01b03841692507fe435cbeab64e4eae6497b9d8289704bd709d624a80704ef3ca9af777534bc6ec9150600090a250565b604051633b11adbf60e21b81526002600482015233602482015273__$a374c895e6fa8c448878668e00d93ef99a$__9063ec46b6fc9060440160206040518083038186803b158015611d8557600080fd5b505af4158015611d99573d6000803e3d6000fd5b505050506040513d601f19601f82011682018060405250810190611dbd919061521a565b611dd95760405162461bcd60e51b81526004016106bb906154ec565b6001546040805163682ebf0560e01b815290516000926001600160a01b03169163682ebf05916004808301926020929190829003018186803b158015611e1e57600080fd5b505afa158015611e32573d6000803e3d6000fd5b505050506040513d601f19601f82011682018060405250810190611e569190615041565b60405163568ad56960e11b8152600481018690529091506001906001600160a01b0383169063ad15aad2906024016104406040518083038186803b158015611e9d57600080fd5b505afa158015611eb1573d6000803e3d6000fd5b505050506040513d601f19601f82011682018060405250810190611ed59190615874565b515161ffff1614611f285760405162461bcd60e51b815260206004820152601e60248201527f424f474b2e54533a206e6f742061207375697461626c65206d6f74696f6e000060448201526064016106bb565b60405162b4faa960e61b81526004810185905260248101849052604481018390526001600160a01b03821690632d3eaa4090606401600060405180830381600087803b158015611f7757600080fd5b505af1158015611f8b573d6000803e3d6000fd5b50505050600160009054906101000a90046001600160a01b03166001600160a01b0316639262826d6040518163ffffffff1660e01b815260040160206040518083038186803b158015611fdd57600080fd5b505afa158015611ff1573d6000803e3d6000fd5b505050506040513d601f19601f820116820180604052508101906120159190615041565b604051636998d28d60e01b815260048101859052602481018490526001600160a01b039190911690636998d28d90604401600060405180830381600087803b15801561206057600080fd5b505af1158015612074573d6000803e3d6000fd5b5050505050505050565b604051632a3be56b60e21b815260026004820152602481018390526044810182905260009073__$a374c895e6fa8c448878668e00d93ef99a$__9063a8ef95ac9060640160206040518083038186803b1580156120da57600080fd5b505af41580156120ee573d6000803e3d6000fd5b505050506040513d601f19601f82011682018060405250810190612112919061521a565b9392505050565b73__$a374c895e6fa8c448878668e00d93ef99a$__639b48160c60028361213e614805565b6040516001600160e01b031960e086901b1681526004810193909352602483019190915264ffffffffff16604482015260640160006040518083038186803b15801561218957600080fd5b505af415801561219d573d6000803e3d6000fd5b50506040518392507f8b6f40f36b4ae8cc5f55e895036457c43da4ab1f80f58c46f5ff0d72a650033b9150600090a250565b60405163987ad15360e01b81526002600482015260009073__$a374c895e6fa8c448878668e00d93ef99a$__9063987ad15390602401610520565b73__$a374c895e6fa8c448878668e00d93ef99a$__63cc0d511b60028361186f614805565b604051633b11adbf60e21b81526002600482015233602482015273__$a374c895e6fa8c448878668e00d93ef99a$__9063ec46b6fc9060440160206040518083038186803b15801561228057600080fd5b505af4158015612294573d6000803e3d6000fd5b505050506040513d601f19601f820116820180604052508101906122b8919061521a565b6122d45760405162461bcd60e51b81526004016106bb906154ec565b6001546040805163682ebf0560e01b815290516000926001600160a01b03169163682ebf05916004808301926020929190829003018186803b15801561231957600080fd5b505afa15801561232d573d6000803e3d6000fd5b505050506040513d601f19601f820116820180604052508101906123519190615041565b60405163568ad56960e11b8152600481018790529091506002906001600160a01b0383169063ad15aad2906024016104406040518083038186803b15801561239857600080fd5b505afa1580156123ac573d6000803e3d6000fd5b505050506040513d601f19601f820116820180604052508101906123d09190615874565b515161ffff16146124235760405162461bcd60e51b815260206004820152601e60248201527f424f474b2e52443a206e6f742061207375697461626c65206d6f74696f6e000060448201526064016106bb565b60405162b4faa960e61b81526004810186905260248101859052604481018390526001600160a01b03821690632d3eaa4090606401600060405180830381600087803b15801561247257600080fd5b505af1158015612486573d6000803e3d6000fd5b50505050600160009054906101000a90046001600160a01b03166001600160a01b0316639262826d6040518163ffffffff1660e01b815260040160206040518083038186803b1580156124d857600080fd5b505afa1580156124ec573d6000803e3d6000fd5b505050506040513d601f19601f820116820180604052508101906125109190615041565b60405163a878079960e01b8152600481018790526024810186905260448101859052606481018490526001600160a01b03919091169063a878079990608401610a3c565b604051633b11adbf60e21b81526002600482015233602482015273__$a374c895e6fa8c448878668e00d93ef99a$__9063ec46b6fc9060440160206040518083038186803b1580156125a557600080fd5b505af41580156125b9573d6000803e3d6000fd5b505050506040513d601f19601f820116820180604052508101906125dd919061521a565b6125f95760405162461bcd60e51b81526004016106bb906154ec565b600154604080516319fdcb7760e11b8152905183926001600160a01b0316916333fb96ee916004808301926020929190829003018186803b15801561263d57600080fd5b505afa158015612651573d6000803e3d6000fd5b505050506040513d601f19601f820116820180604052508101906126759190615041565b6001600160a01b031663d50c7377826040518263ffffffff1660e01b81526004016126a291815260200190565b60206040518083038186803b1580156126ba57600080fd5b505afa1580156126ce573d6000803e3d6000fd5b505050506040513d601f19601f820116820180604052508101906126f2919061521a565b61270e5760405162461bcd60e51b81526004016106bb90615956565b612718858361485f565b600160009054906101000a90046001600160a01b03166001600160a01b031663682ebf056040518163ffffffff1660e01b815260040160206040518083038186803b15801561276657600080fd5b505afa15801561277a573d6000803e3d6000fd5b505050506040513d601f19601f8201168201806040525081019061279e9190615041565b6001600160a01b03166388125cf7868686600160009054906101000a90046001600160a01b03166001600160a01b03166333fb96ee6040518163ffffffff1660e01b815260040160206040518083038186803b1580156127fd57600080fd5b505afa158015612811573d6000803e3d6000fd5b505050506040513d601f19601f820116820180604052508101906128359190615041565b6040516001600160e01b031960e087901b1681526004810194909452602484019290925260448301526001600160a01b031660648201526084810185905260a401610a3c565b604051633b11adbf60e21b81526002600482015233602482015273__$a374c895e6fa8c448878668e00d93ef99a$__9063ec46b6fc9060440160206040518083038186803b1580156128cc57600080fd5b505af41580156128e0573d6000803e3d6000fd5b505050506040513d601f19601f82011682018060405250810190612904919061521a565b6129205760405162461bcd60e51b81526004016106bb906154ec565b600154604080516319fdcb7760e11b8152905183926001600160a01b0316916333fb96ee916004808301926020929190829003018186803b15801561296457600080fd5b505afa158015612978573d6000803e3d6000fd5b505050506040513d601f19601f8201168201806040525081019061299c9190615041565b6001600160a01b031663d50c7377826040518263ffffffff1660e01b81526004016129c991815260200190565b60206040518083038186803b1580156129e157600080fd5b505afa1580156129f5573d6000803e3d6000fd5b505050506040513d601f19601f82011682018060405250810190612a19919061521a565b80612b225750600160009054906101000a90046001600160a01b03166001600160a01b0316639262826d6040518163ffffffff1660e01b815260040160206040518083038186803b158015612a6d57600080fd5b505afa158015612a81573d6000803e3d6000fd5b505050506040513d601f19601f82011682018060405250810190612aa59190615041565b6001600160a01b0316639258effe826040518263ffffffff1660e01b8152600401612ad291815260200190565b60206040518083038186803b158015612aea57600080fd5b505afa158015612afe573d6000803e3d6000fd5b505050506040513d601f19601f82011682018060405250810190612b22919061521a565b612b3e5760405162461bcd60e51b81526004016106bb90615532565b600160009054906101000a90046001600160a01b03166001600160a01b031663682ebf056040518163ffffffff1660e01b815260040160206040518083038186803b158015612b8c57600080fd5b505afa158015612ba0573d6000803e3d6000fd5b505050506040513d601f19601f82011682018060405250810190612bc49190615041565b6001600160a01b031663ab86a9d9898989898989896040518863ffffffff1660e01b8152600401612bfb9796959493929190615127565b602060405180830381600087803b158015612c1557600080fd5b505af1158015612c29573d6000803e3d6000fd5b505050506040513d601f19601f82011682018060405250810190610a6a9190615614565b604051633b11adbf60e21b81526002600482015233602482015273__$a374c895e6fa8c448878668e00d93ef99a$__9063ec46b6fc9060440160206040518083038186803b158015612c9e57600080fd5b505af4158015612cb2573d6000803e3d6000fd5b505050506040513d601f19601f82011682018060405250810190612cd6919061521a565b612cf25760405162461bcd60e51b81526004016106bb906154ec565b600154604080516319fdcb7760e11b8152905183926001600160a01b0316916333fb96ee916004808301926020929190829003018186803b158015612d3657600080fd5b505afa158015612d4a573d6000803e3d6000fd5b505050506040513d601f19601f82011682018060405250810190612d6e9190615041565b6001600160a01b031663d50c7377826040518263ffffffff1660e01b8152600401612d9b91815260200190565b60206040518083038186803b158015612db357600080fd5b505afa158015612dc7573d6000803e3d6000fd5b505050506040513d601f19601f82011682018060405250810190612deb919061521a565b612e075760405162461bcd60e51b81526004016106bb90615956565b6001546040805163682ebf0560e01b815290516000926001600160a01b03169163682ebf05916004808301926020929190829003018186803b158015612e4c57600080fd5b505afa158015612e60573d6000803e3d6000fd5b505050506040513d601f19601f82011682018060405250810190612e849190615041565b60405163cd43b16560e01b81526001600160a01b03888116600483015260248201889052604482018790526064820186905291925060009183169063cd43b16590608401602060405180830381600087803b158015612ee257600080fd5b505af1158015612ef6573d6000803e3d6000fd5b505050506040513d601f19601f82011682018060405250810190612f1a9190615614565b9050600986108015612f9f575060405163143b4f6f60e11b8152600481018590526001600160a01b038816906328769ede9060240160206040518083038186803b158015612f6757600080fd5b505afa158015612f7b573d6000803e3d6000fd5b505050506040513d601f19601f82011682018060405250810190612f9f919061521a565b1561133e576040516304b79d5f60e11b81526001600160401b0382166004820152602481018590526001600160a01b0383169063096f3abe90604401600060405180830381600087803b158015612ff557600080fd5b505af1158015613009573d6000803e3d6000fd5b505050508560081461310c57600160009054906101000a90046001600160a01b03166001600160a01b031663acd2d0576040518163ffffffff1660e01b815260040160206040518083038186803b15801561306357600080fd5b505afa158015613077573d6000803e3d6000fd5b505050506040513d601f19601f8201168201806040525081019061309b9190615041565b60405163055ad79f60e41b81526001600160a01b0389811660048301526001600160401b038416602483015291909116906355ad79f090604401600060405180830381600087803b1580156130ef57600080fd5b505af1158015613103573d6000803e3d6000fd5b5050505061133e565b600160009054906101000a90046001600160a01b03166001600160a01b031663b613bb4c6040518163ffffffff1660e01b815260040160206040518083038186803b15801561315a57600080fd5b505afa15801561316e573d6000803e3d6000fd5b505050506040513d601f19601f820116820180604052508101906131929190615041565b60405163055ad79f60e41b81526001600160a01b0389811660048301526001600160401b038416602483015291909116906355ad79f090604401600060405180830381600087803b1580156131e657600080fd5b505af11580156131fa573d6000803e3d6000fd5b5050505050505050505050565b604051636cdd0edf60e11b815260026004820152602481018590526001600160a01b038416604482015273__$a374c895e6fa8c448878668e00d93ef99a$__9063d9ba1dbe9060640160006040518083038186803b15801561326857600080fd5b505af415801561327c573d6000803e3d6000fd5b5050505061328982614a3d565b61329281614ab0565b6040516001600160a01b038381168252808316919085169086907f3abb2418c66fe32ba9c883030a75ce583971d9af9192b9b74e44e67c5e6c8c1f9060200160405180910390a450505050565b604051633c3e56c160e11b81526002600482015260009073__$a374c895e6fa8c448878668e00d93ef99a$__9063787cad829060240160206040518083038186803b15801561332d57600080fd5b505af4158015613341573d6000803e3d6000fd5b505050506040513d601f19601f820116820180604052508101906105709190615041565b600254600160f01b900460ff166001146133c15760405162461bcd60e51b815260206004820152601760248201527f41432e4c433a20446f632069732066696e616c697a656400000000000000000060448201526064016106bb565b73__$a374c895e6fa8c448878668e00d93ef99a$__63c51b295f6002684174746f726e65797360b81b6133f2614805565b6040516001600160e01b031960e086901b1681526004810193909352602483019190915264ffffffffff16604482015260640160006040518083038186803b15801561343d57600080fd5b505af4158015613451573d6000803e3d6000fd5b50505050600273__$a374c895e6fa8c448878668e00d93ef99a$__6313a187d29091600061347d614805565b6040516001600160e01b031960e086901b1681526004810193909352602483019190915264ffffffffff16604482015233606482015260840160006040518083038186803b1580156134ce57600080fd5b505af41580156134e2573d6000803e3d6000fd5b50505050600273__$a374c895e6fa8c448878668e00d93ef99a$__639b48160c9091600061350e614805565b6040516001600160e01b031960e086901b1681526004810193909352602483019190915264ffffffffff16604482015260640160006040518083038186803b15801561355957600080fd5b505af415801561356d573d6000803e3d6000fd5b50506002805460ff60f01b1916600160f11b17905550506040517f35012b512309c322acf68632cd6cb702ff0e1d776fbe9394e38ffc13b434fe7590600090a1565b604051633b11adbf60e21b81526002600482015233602482015273__$a374c895e6fa8c448878668e00d93ef99a$__9063ec46b6fc9060440160206040518083038186803b15801561360057600080fd5b505af4158015613614573d6000803e3d6000fd5b505050506040513d601f19601f82011682018060405250810190613638919061521a565b6136545760405162461bcd60e51b81526004016106bb906154ec565b600154604080516319fdcb7760e11b8152905183926001600160a01b0316916333fb96ee916004808301926020929190829003018186803b15801561369857600080fd5b505afa1580156136ac573d6000803e3d6000fd5b505050506040513d601f19601f820116820180604052508101906136d09190615041565b6001600160a01b031663d50c7377826040518263ffffffff1660e01b81526004016136fd91815260200190565b60206040518083038186803b15801561371557600080fd5b505afa158015613729573d6000803e3d6000fd5b505050506040513d601f19601f8201168201806040525081019061374d919061521a565b6137695760405162461bcd60e51b81526004016106bb90615956565b6001546040805163682ebf0560e01b815290516000926001600160a01b03169163682ebf05916004808301926020929190829003018186803b1580156137ae57600080fd5b505afa1580156137c2573d6000803e3d6000fd5b505050506040513d601f19601f820116820180604052508101906137e69190615041565b90506000600160009054906101000a90046001600160a01b03166001600160a01b03166333fb96ee6040518163ffffffff1660e01b815260040160206040518083038186803b15801561383857600080fd5b505afa15801561384c573d6000803e3d6000fd5b505050506040513d601f19601f820116820180604052508101906138709190615041565b60405163568ad56960e11b8152600481018790529091506000906001600160a01b0384169063ad15aad2906024016104406040518083038186803b1580156138b757600080fd5b505afa1580156138cb573d6000803e3d6000fd5b505050506040513d601f19601f820116820180604052508101906138ef9190615874565b60408051608081018252600080825260208201819052818301819052606082018190529151630597757b60e21b8152600481018a905260248101839052929350916001600160a01b0386169063165dd5ec9060440160006040518083038186803b15801561395c57600080fd5b505afa158015613970573d6000803e3d6000fd5b505050506040513d6000823e601f3d908101601f1916820160405261399891908101906159de565b9050826040015160c00151156139ca57805163ffffffff1682526020808201516001600160401b031690830152613e9b565b836001600160a01b03166329d01b3a6040518163ffffffff1660e01b815260040160206040518083038186803b158015613a0357600080fd5b505afa158015613a17573d6000803e3d6000fd5b505050506040513d601f19601f82011682018060405250810190613a3b9190615a82565b63ffffffff1682526040805162e4df9160e81b815290516001600160a01b0386169163e4df9100916004808301926020929190829003018186803b158015613a8257600080fd5b505afa158015613a96573d6000803e3d6000fd5b505050506040513d601f19601f82011682018060405250810190613aba919061521a565b613b515760208301516040908101519051632e94bd2b60e21b815265ffffffffffff90911660048201526001600160a01b0385169063ba52f4ac9060240160806040518083038186803b158015613b1057600080fd5b505afa158015613b24573d6000803e3d6000fd5b505050506040513d601f19601f82011682018060405250810190613b489190615a9d565b60200151613be0565b60208301516040908101519051632e94bd2b60e21b815265ffffffffffff90911660048201526001600160a01b0385169063ba52f4ac9060240160806040518083038186803b158015613ba357600080fd5b505afa158015613bb7573d6000803e3d6000fd5b505050506040513d601f19601f82011682018060405250810190613bdb9190615a9d565b604001515b6001600160401b03166020830152604083015160e0015115613c415780518251613c109163ffffffff1690615b2f565b6001600160401b0316604083015260208082015190830151613c329190615b2f565b6001600160401b031660608301525b82515161ffff1660031415613e9b57600083606001516001600160a01b031663a8311aa86040518163ffffffff1660e01b815260040160006040518083038186803b158015613c8f57600080fd5b505afa158015613ca3573d6000803e3d6000fd5b505050506040513d6000823e601f3d908101601f19168201604052613ccb9190810190615b57565b80519091505b8015613e985760006001600160a01b038716632bf82aab84613cf4600186615b8b565b81518110613d0457613d04615ba2565b60200260200101518860200151604001516040518363ffffffff1660e01b8152600401613d4392919091825265ffffffffffff16602082015260400190565b60206040518083038186803b158015613d5b57600080fd5b505afa158015613d6f573d6000803e3d6000fd5b505050506040513d601f19601f82011682018060405250810190613d939190615614565b90506001600160401b03811615613e85578560400151610100015115613e0257856040015160e00151613dfd5760408501805190613dd082615bb8565b6001600160401b0316905250606085018051829190613df0908390615bdf565b6001600160401b03169052505b613e85565b845185613e0e82615c0a565b6001600160401b0316905250602085018051829190613e2e908390615b2f565b6001600160401b0316905250604086015160e0015115613e855760408501805190613e5882615c0a565b6001600160401b0316905250606085018051829190613e78908390615b2f565b6001600160401b03169052505b81613e8f81615c2d565b92505050613cd1565b50505b6040805163a0743e7160e01b8152600481018a905283516001600160401b0390811660248301526020850151811660448301529184015182166064820152606084015190911660848201526000906003906001600160a01b0388169063a0743e719060a401602060405180830381600087803b158015613f1a57600080fd5b505af1158015613f2e573d6000803e3d6000fd5b505050506040513d601f19601f82011682018060405250810190613f529190615c44565b60ff1614905060008460600151905084600001516040015161ffff1660081461406557600160009054906101000a90046001600160a01b03166001600160a01b031663acd2d0576040518163ffffffff1660e01b815260040160206040518083038186803b158015613fc357600080fd5b505afa158015613fd7573d6000803e3d6000fd5b505050506040513d601f19601f82011682018060405250810190613ffb9190615041565b6040516328426ce960e11b81526001600160a01b03838116600483015284151560248301529190911690635084d9d290604401600060405180830381600087803b15801561404857600080fd5b505af115801561405c573d6000803e3d6000fd5b50505050614151565b600160009054906101000a90046001600160a01b03166001600160a01b031663b613bb4c6040518163ffffffff1660e01b815260040160206040518083038186803b1580156140b357600080fd5b505afa1580156140c7573d6000803e3d6000fd5b505050506040513d601f19601f820116820180604052508101906140eb9190615041565b6040516328426ce960e11b81526001600160a01b03838116600483015284151560248301529190911690635084d9d290604401600060405180830381600087803b15801561413857600080fd5b505af115801561414c573d6000803e3d6000fd5b505050505b50505050505050505050565b600080600160009054906101000a90046001600160a01b03166001600160a01b03166333fb96ee6040518163ffffffff1660e01b815260040160206040518083038186803b1580156141ae57600080fd5b505afa1580156141c2573d6000803e3d6000fd5b505050506040513d601f19601f820116820180604052508101906141e69190615041565b60405163d50c737760e01b8152600481018890529091506001600160a01b0382169063d50c73779060240160206040518083038186803b15801561422957600080fd5b505afa15801561423d573d6000803e3d6000fd5b505050506040513d601f19601f82011682018060405250810190614261919061521a565b61426f57600091505061458e565b6000816001600160a01b0316630d15fd776040518163ffffffff1660e01b815260040160206040518083038186803b1580156142aa57600080fd5b505afa1580156142be573d6000803e3d6000fd5b505050506040513d601f19601f820116820180604052508101906142e29190615614565b6001600160401b031690506000856080015161ffff161180156143aa5750846080015161ffff1681836001600160a01b031663c2d7616e8a6040518263ffffffff1660e01b815260040161433891815260200190565b60206040518083038186803b15801561435057600080fd5b505afa158015614364573d6000803e3d6000fd5b505050506040513d601f19601f820116820180604052508101906143889190615614565b61439490612710615c5f565b6001600160401b03166143a79190615ca4565b10155b156143ba5760019250505061458e565b604051630c41f49b60e41b8152600481018990526024810188905265ffffffffffff421660448201526001600160a01b0383811660648301526000919086169063c41f49b090608401604080518083038186803b15801561441a57600080fd5b505afa15801561442e573d6000803e3d6000fd5b505050506040513d601f19601f820116820180604052508101906144529190615cb8565b90506000866080015161ffff161180156144995750856080015161ffff168282600001516127106144839190615c5f565b6001600160401b03166144969190615ca4565b10155b156144aa576001935050505061458e565b60008660a0015161ffff1611801561457557508560a0015161ffff16836001600160a01b03166329d01b3a6040518163ffffffff1660e01b815260040160206040518083038186803b1580156144ff57600080fd5b505afa158015614513573d6000803e3d6000fd5b505050506040513d601f19601f820116820180604052508101906145379190615a82565b602083015160608a015161454c906001615cf5565b6145569190615d14565b61456290612710615d31565b61456c9190615d54565b63ffffffff1610155b15614586576001935050505061458e565b600093505050505b95945050505050565b600080600160009054906101000a90046001600160a01b03166001600160a01b0316639262826d6040518163ffffffff1660e01b815260040160206040518083038186803b1580156145e857600080fd5b505afa1580156145fc573d6000803e3d6000fd5b505050506040513d601f19601f820116820180604052508101906146209190615041565b60405163492c77ff60e11b8152600481018790529091506001600160a01b03821690639258effe9060240160206040518083038186803b15801561466357600080fd5b505afa158015614677573d6000803e3d6000fd5b505050506040513d601f19601f8201168201806040525081019061469b919061521a565b6146a95760009150506147fd565b6000816001600160a01b031663695b2f606040518163ffffffff1660e01b815260040160206040518083038186803b1580156146e457600080fd5b505afa1580156146f8573d6000803e3d6000fd5b505050506040513d601f19601f8201168201806040525081019061471c91906151bc565b905060008560c0015161ffff161180156147e6575060c085015160405163286244a360e11b815260048101899052602481018890526001600160a01b03848116604483015261ffff909216918391908716906350c489469060640160206040518083038186803b15801561478f57600080fd5b505afa1580156147a3573d6000803e3d6000fd5b505050506040513d601f19601f820116820180604052508101906147c79190615a82565b6147d390612710615d31565b63ffffffff166147e39190615ca4565b10155b156147f6576001925050506147fd565b6000925050505b949350505050565b60008054604051636ae3b70d60e11b81523360048201526001600160a01b039091169063d5c76e1a90602401602060405180830381600087803b15801561484b57600080fd5b505af115801561054c573d6000803e3d6000fd5b6001546040805163682ebf0560e01b815290516000926001600160a01b03169163682ebf05916004808301926020929190829003018186803b1580156148a457600080fd5b505afa1580156148b8573d6000803e3d6000fd5b505050506040513d601f19601f820116820180604052508101906148dc9190615041565b6001600160a01b031663ad15aad2846040518263ffffffff1660e01b815260040161490991815260200190565b6104406040518083038186803b15801561492257600080fd5b505afa158015614936573d6000803e3d6000fd5b505050506040513d601f19601f8201168201806040525081019061495a9190615874565b80515190915061ffff1660031415614a3857606081015160405163143b4f6f60e11b8152600481018490526001600160a01b038216906328769ede9060240160206040518083038186803b1580156149b157600080fd5b505afa1580156149c5573d6000803e3d6000fd5b505050506040513d601f19601f820116820180604052508101906149e9919061521a565b15614a365760405162461bcd60e51b815260206004820152601960248201527f424f474b2e41433a2069732072656c617465642070617274790000000000000060448201526064016106bb565b505b505050565b6000546001600160a01b031615614a8e5760405162461bcd60e51b815260206004820152601560248201527430b63932b0b23c9039b2ba103932b3a1b2b73a32b960591b60448201526064016106bb565b600080546001600160a01b0319166001600160a01b0392909216919091179055565b6001546001600160a01b031615614b095760405162461bcd60e51b815260206004820152601960248201527f616c7265616479207365742067656e6572616c4b65657065720000000000000060448201526064016106bb565b600180546001600160a01b0319166001600160a01b0392909216919091179055565b634e487b7160e01b600052604160045260246000fd5b60405160a081016001600160401b0381118282101715614b6357614b63614b2b565b60405290565b60405161022081016001600160401b0381118282101715614b6357614b63614b2b565b60405161012081016001600160401b0381118282101715614b6357614b63614b2b565b60405160e081016001600160401b0381118282101715614b6357614b63614b2b565b604080519081016001600160401b0381118282101715614b6357614b63614b2b565b60405161024081016001600160401b0381118282101715614b6357614b63614b2b565b604051608081016001600160401b0381118282101715614b6357614b63614b2b565b604051601f8201601f191681016001600160401b0381118282101715614c6057614c60614b2b565b604052919050565b60006001600160401b03821115614c8157614c81614b2b565b5060051b60200190565b6001600160a01b0381168114614ca057600080fd5b50565b600082601f830112614cb457600080fd5b81356020614cc9614cc483614c68565b614c38565b82815260059290921b84018101918181019086841115614ce857600080fd5b8286015b84811015614d035780358352918301918301614cec565b509695505050505050565b6000601f8381840112614d2057600080fd5b82356020614d30614cc483614c68565b82815260059290921b85018101918181019087841115614d4f57600080fd5b8287015b84811015614de55780356001600160401b0380821115614d735760008081fd5b818a0191508a603f830112614d885760008081fd5b85820135604082821115614d9e57614d9e614b2b565b614daf828b01601f19168901614c38565b92508183528c81838601011115614dc65760008081fd5b8181850189850137506000908201870152845250918301918301614d53565b50979650505050505050565b600080600080600080600060e0888a031215614e0c57600080fd5b873596506020808901356001600160401b0380821115614e2b57600080fd5b818b0191508b601f830112614e3f57600080fd5b8135614e4d614cc482614c68565b81815260059190911b8301840190848101908e831115614e6c57600080fd5b938501935b82851015614e93578435614e8481614c8b565b82529385019390850190614e71565b9a50505060408b0135925080831115614eab57600080fd5b614eb78c848d01614ca3565b975060608b0135925080831115614ecd57600080fd5b5050614edb8a828b01614d0e565b979a969950949760808101359660a0820135965060c090910135945092505050565b60008060408385031215614f1057600080fd5b50508035926020909101359150565b600080600060608486031215614f3457600080fd5b505081359360208301359350604090920135919050565b600060208284031215614f5d57600080fd5b5035919050565b600060208284031215614f7657600080fd5b813561211281614c8b565b60008060008060808587031215614f9757600080fd5b5050823594602084013594506040840135936060013592509050565b60008060008060808587031215614fc957600080fd5b8435614fd481614c8b565b966020860135965060408601359560600135945092505050565b6000806000806080858703121561500457600080fd5b84359350602085013561501681614c8b565b9250604085013561502681614c8b565b9150606085013561503681614c8b565b939692955090935050565b60006020828403121561505357600080fd5b815161211281614c8b565b600081518084526020808501945080840160005b8381101561508e57815187529582019590820190600101615072565b509495945050505050565b600081518084526020808501808196508360051b810191508286016000805b86811015615119578385038a5282518051808752835b818110156150e9578281018901518882018a015288016150ce565b818111156150f9578489838a0101525b509a87019a601f01601f19169590950186019450918501916001016150b8565b509298975050505050505050565b600060e08201898352602060e081850152818a5180845261010086019150828c01935060005b818110156151725784516001600160a01b03168352938301939183019160010161514d565b50508481036040860152615186818b61505e565b92505050828103606084015261519c8188615099565b6080840196909652505060a081019290925260c090910152949350505050565b6000602082840312156151ce57600080fd5b5051919050565b805164ffffffffff811681146151ea57600080fd5b919050565b60006020828403121561520157600080fd5b612112826151d5565b805180151581146151ea57600080fd5b60006020828403121561522c57600080fd5b6121128261520a565b80516001600160401b03811681146151ea57600080fd5b805163ffffffff811681146151ea57600080fd5b6000602080838503121561527357600080fd5b82516001600160401b038082111561528a57600080fd5b9084019060a0828703121561529e57600080fd5b6152a6614b41565b6152af836151d5565b81526152bc848401615235565b848201526152cc60408401615235565b60408201526152dd6060840161524c565b60608201526080830151828111156152f457600080fd5b80840193505086601f84011261530957600080fd5b82519150615319614cc483614c68565b82815260059290921b8301840191848101908884111561533857600080fd5b938501935b8385101561535d5761534e856151d5565b8252938501939085019061533d565b6080830152509695505050505050565b805161ffff811681146151ea57600080fd5b805160ff811681146151ea57600080fd5b805165ffffffffffff811681146151ea57600080fd5b600061022082840312156153b957600080fd5b6153c1614b69565b6153ca8361536d565b81526153d86020840161537f565b60208201526153e96040840161537f565b60408201526153fa6060840161520a565b606082015261540b6080840161536d565b608082015261541c60a0840161536d565b60a082015261542d60c0840161536d565b60c082015261543e60e0840161536d565b60e082015261010061545181850161536d565b9082015261012061546384820161536d565b9082015261014061547584820161537f565b9082015261016061548784820161536d565b9082015261018061549984820161536d565b908201526101a06154ab848201615390565b908201526101c06154bd84820161537f565b908201526101e06154cf84820161537f565b908201526102006154e184820161536d565b908201529392505050565b60208082526026908201527f41432e6f6e6c794469726563744b65657065723a206e6f74206469726563742060408201526535b2b2b832b960d11b606082015260800190565b6020808252601f908201527f424f474b2e6d663a206e6f74204d656d626572206f72204469726563746f7200604082015260600190565b6000610120828403121561557c57600080fd5b615584614b8c565b61558d8361536d565b815261559b6020840161536d565b60208201526155ac604084016151d5565b60408201526155bd606084016151d5565b60608201526155ce60808401615390565b60808201526155df60a08401615390565b60a08201526155f060c0840161536d565b60c082015261560160e0840161536d565b60e08201526101006154e181850161536d565b60006020828403121561562657600080fd5b61211282615235565b600060e0828403121561564157600080fd5b615649614baf565b9050615654826151d5565b815261566260208301615390565b602082015261567360408301615390565b604082015261568460608301615390565b606082015261569560808301615390565b60808201526156a660a0830161536d565b60a08201526156b760c0830161537f565b60c082015292915050565b600082601f8301126156d357600080fd5b6156db614bd1565b8060408401858111156156ed57600080fd5b845b8181101561570e57615700816151d5565b8452602093840193016156ef565b509095945050505050565b6000610260828403121561572c57600080fd5b615734614bf3565b905061573f8261536d565b815261574d6020830161537f565b602082015261575e6040830161537f565b604082015261576f6060830161536d565b60608201526157806080830161536d565b608082015261579160a0830161536d565b60a08201526157a260c0830161520a565b60c08201526157b360e0830161520a565b60e08201526101006157c681840161520a565b908201526101206157d883820161520a565b908201526101406157ea83820161537f565b908201526101606157fc83820161537f565b9082015261018061580e83820161537f565b908201526101a061582083820161537f565b908201526101c061583283820161537f565b908201526101e061584483820161537f565b90820152610200615857848483016156c2565b90820152615868610240830161536d565b61022082015292915050565b600081830361044081121561588857600080fd5b615890614c16565b60e082121561589e57600080fd5b6158a6614baf565b91506158b18461536d565b82526158bf60208501615235565b60208301526158d06040850161536d565b60408301526158e1606085016151d5565b60608301526158f2608085016151d5565b608083015261590360a08501615390565b60a083015261591460c0850161524c565b60c08301528181526159298560e0860161562f565b602082015261593c856101c08601615719565b604082015261042093909301516060840152509092915050565b6020808252601390820152722127a3a59736b31d102727aa1026b2b6b132b960691b604082015260600190565b600082601f83011261599457600080fd5b815160206159a4614cc483614c68565b82815260059290921b840181019181810190868411156159c357600080fd5b8286015b84811015614d0357805183529183019183016159c7565b6000602082840312156159f057600080fd5b81516001600160401b0380821115615a0757600080fd5b9083019060608286031215615a1b57600080fd5b604051606081018181108382111715615a3657615a36614b2b565b604052615a428361524c565b8152615a5060208401615235565b6020820152604083015182811115615a6757600080fd5b615a7387828601615983565b60408301525095945050505050565b600060208284031215615a9457600080fd5b6121128261524c565b600060808284031215615aaf57600080fd5b604051608081018181106001600160401b0382111715615ad157615ad1614b2b565b604052615add83615390565b8152615aeb60208401615235565b6020820152615afc60408401615235565b6040820152615b0d60608401615235565b60608201529392505050565b634e487b7160e01b600052601160045260246000fd5b60006001600160401b0383811690831681811015615b4f57615b4f615b19565b039392505050565b600060208284031215615b6957600080fd5b81516001600160401b03811115615b7f57600080fd5b6147fd84828501615983565b600082821015615b9d57615b9d615b19565b500390565b634e487b7160e01b600052603260045260246000fd5b60006001600160401b0380831681811415615bd557615bd5615b19565b6001019392505050565b60006001600160401b03808316818516808303821115615c0157615c01615b19565b01949350505050565b60006001600160401b03821680615c2357615c23615b19565b6000190192915050565b600081615c3c57615c3c615b19565b506000190190565b600060208284031215615c5657600080fd5b6121128261537f565b60006001600160401b0380831681851681830481118215151615615c8557615c85615b19565b02949350505050565b634e487b7160e01b600052601260045260246000fd5b600082615cb357615cb3615c8e565b500490565b600060408284031215615cca57600080fd5b615cd2614bd1565b615cdb83615235565b8152615ce96020840161524c565b60208201529392505050565b600063ffffffff808316818516808303821115615c0157615c01615b19565b600063ffffffff83811690831681811015615b4f57615b4f615b19565b600063ffffffff80831681851681830481118215151615615c8557615c85615b19565b600063ffffffff80841680615d6b57615d6b615c8e565b9216919091049291505056fea2646970667358221220c15acc72cd22c576c6681e67250b5f3ec0829b830433cbe444852bf126425e6b64736f6c63430008080033",
    "sourcePath": "/Users/kaptain/github.com/comboox/comboox/contracts/keepers/BOGKeeper.sol",
    "compiler": {
        "name": "solc",
        "version": "0.8.8+commit.dddeac2f"
    },
    "functionHashes": {
        "abandonRole(bytes32)": "3da9a600",
        "castVoteOfGM(uint256,uint256,bytes32,uint256)": "a8459ac0",
        "createActionOfGM(uint256,address[],uint256[],bytes[],bytes32,uint256,uint256)": "acd4aa7b",
        "createMotionToRemoveDirector(uint256,uint256)": "142ed327",
        "entrustDelegateOfMember(uint256,uint256,uint256)": "3b9f1b81",
        "execActionOfGM(uint256,address[],uint256[],bytes[],bytes32,uint256,uint256)": "020c814d",
        "finalized()": "b3f05b97",
        "getBookeeper()": "ed211023",
        "getGeneralCounsel()": "103f6edd",
        "getOwner()": "893d20e8",
        "grantRole(bytes32,uint256)": "1b6ea9f9",
        "hasRole(bytes32,uint256)": "7e063c5a",
        "init(uint256,address,address,address)": "dc890da9",
        "lockContents()": "f045a769",
        "nominateDirector(uint256,uint256,uint256)": "3c44bcb6",
        "proposeDocOfGM(address,uint256,uint256,uint256)": "d0e27e10",
        "proposeMotionOfGM(uint256,uint256)": "1153cd2e",
        "removeDirectKeeper(address)": "5d7ad88f",
        "removeDirector(uint256,uint256,uint256,uint256)": "9d7d867b",
        "renounceRole(bytes32)": "8bb9c5bf",
        "revokeRole(bytes32,uint256)": "19d61ad9",
        "setDirectKeeper(address)": "6be8496f",
        "setGeneralCounsel(uint256)": "4a14beb1",
        "setOwner(uint256)": "8041494e",
        "setRoleAdmin(bytes32,uint256)": "5171ebd4",
        "takeSeat(uint256,uint256,uint256)": "7451ce03",
        "voteCountingOfGM(uint256,uint256)": "f1e9e7f7"
    },
    "gasEstimates": {
        "creation": {
            "codeDepositCost": "4796200",
            "executionCost": "5649",
            "totalCost": "4801849"
        },
        "external": {
            "abandonRole(bytes32)": "infinite",
            "castVoteOfGM(uint256,uint256,bytes32,uint256)": "infinite",
            "createActionOfGM(uint256,address[],uint256[],bytes[],bytes32,uint256,uint256)": "infinite",
            "createMotionToRemoveDirector(uint256,uint256)": "infinite",
            "entrustDelegateOfMember(uint256,uint256,uint256)": "infinite",
            "execActionOfGM(uint256,address[],uint256[],bytes[],bytes32,uint256,uint256)": "infinite",
            "finalized()": "2394",
            "getBookeeper()": "infinite",
            "getGeneralCounsel()": "infinite",
            "getOwner()": "infinite",
            "grantRole(bytes32,uint256)": "infinite",
            "hasRole(bytes32,uint256)": "infinite",
            "init(uint256,address,address,address)": "infinite",
            "lockContents()": "infinite",
            "nominateDirector(uint256,uint256,uint256)": "infinite",
            "proposeDocOfGM(address,uint256,uint256,uint256)": "infinite",
            "proposeMotionOfGM(uint256,uint256)": "infinite",
            "removeDirectKeeper(address)": "infinite",
            "removeDirector(uint256,uint256,uint256,uint256)": "infinite",
            "renounceRole(bytes32)": "infinite",
            "revokeRole(bytes32,uint256)": "infinite",
            "setDirectKeeper(address)": "infinite",
            "setGeneralCounsel(uint256)": "infinite",
            "setOwner(uint256)": "infinite",
            "setRoleAdmin(bytes32,uint256)": "infinite",
            "takeSeat(uint256,uint256,uint256)": "infinite",
            "voteCountingOfGM(uint256,uint256)": "infinite"
        },
        "internal": {
            "_avoidanceCheck(uint256,uint256)": "infinite",
            "_directorProposalRightCheck(uint256,uint256,struct RulesParser.GovernanceRule memory,contract IBookOfGM)": "infinite",
            "_memberProposalRightCheck(uint256,uint256,struct DelegateMap.Voter memory,struct RulesParser.GovernanceRule memory,contract IBookOfGM)": "infinite"
        }
    }
}