{
    "contractName": "BOGKeeper",
    "abi": [
        {
            "anonymous": false,
            "inputs": [
                {
                    "indexed": false,
                    "internalType": "uint256",
                    "name": "owner",
                    "type": "uint256"
                },
                {
                    "indexed": false,
                    "internalType": "address",
                    "name": "directKeeper",
                    "type": "address"
                },
                {
                    "indexed": false,
                    "internalType": "address",
                    "name": "regCenter",
                    "type": "address"
                },
                {
                    "indexed": false,
                    "internalType": "address",
                    "name": "generalKeeper",
                    "type": "address"
                }
            ],
            "name": "Init",
            "type": "event"
        },
        {
            "anonymous": false,
            "inputs": [],
            "name": "LockContents",
            "type": "event"
        },
        {
            "anonymous": false,
            "inputs": [
                {
                    "indexed": false,
                    "internalType": "address",
                    "name": "target",
                    "type": "address"
                }
            ],
            "name": "RemoveDirectKeeper",
            "type": "event"
        },
        {
            "anonymous": false,
            "inputs": [
                {
                    "indexed": false,
                    "internalType": "address",
                    "name": "keeper",
                    "type": "address"
                }
            ],
            "name": "SetDirectKeeper",
            "type": "event"
        },
        {
            "anonymous": false,
            "inputs": [
                {
                    "indexed": false,
                    "internalType": "uint256",
                    "name": "acct",
                    "type": "uint256"
                }
            ],
            "name": "SetGeneralCounsel",
            "type": "event"
        },
        {
            "anonymous": false,
            "inputs": [
                {
                    "indexed": false,
                    "internalType": "uint256",
                    "name": "acct",
                    "type": "uint256"
                }
            ],
            "name": "SetOwner",
            "type": "event"
        },
        {
            "inputs": [
                {
                    "internalType": "bytes32",
                    "name": "role",
                    "type": "bytes32"
                }
            ],
            "name": "abandonRole",
            "outputs": [],
            "stateMutability": "nonpayable",
            "type": "function"
        },
        {
            "inputs": [
                {
                    "internalType": "uint256",
                    "name": "seqOfMotion",
                    "type": "uint256"
                },
                {
                    "internalType": "uint256",
                    "name": "attitude",
                    "type": "uint256"
                },
                {
                    "internalType": "bytes32",
                    "name": "sigHash",
                    "type": "bytes32"
                },
                {
                    "internalType": "uint256",
                    "name": "caller",
                    "type": "uint256"
                }
            ],
            "name": "castVoteOfGM",
            "outputs": [],
            "stateMutability": "nonpayable",
            "type": "function"
        },
        {
            "inputs": [
                {
                    "internalType": "address",
                    "name": "board",
                    "type": "address"
                }
            ],
            "name": "createBoardSeal",
            "outputs": [],
            "stateMutability": "nonpayable",
            "type": "function"
        },
        {
            "inputs": [
                {
                    "internalType": "uint256",
                    "name": "info",
                    "type": "uint256"
                }
            ],
            "name": "createCorpSeal",
            "outputs": [],
            "stateMutability": "nonpayable",
            "type": "function"
        },
        {
            "inputs": [
                {
                    "internalType": "uint256",
                    "name": "seqOfMotion",
                    "type": "uint256"
                },
                {
                    "internalType": "uint256",
                    "name": "delegate",
                    "type": "uint256"
                },
                {
                    "internalType": "uint256",
                    "name": "caller",
                    "type": "uint256"
                }
            ],
            "name": "entrustDelegateOfMember",
            "outputs": [],
            "stateMutability": "nonpayable",
            "type": "function"
        },
        {
            "inputs": [
                {
                    "internalType": "uint256",
                    "name": "typeOfAction",
                    "type": "uint256"
                },
                {
                    "internalType": "address[]",
                    "name": "targets",
                    "type": "address[]"
                },
                {
                    "internalType": "uint256[]",
                    "name": "values",
                    "type": "uint256[]"
                },
                {
                    "internalType": "bytes[]",
                    "name": "params",
                    "type": "bytes[]"
                },
                {
                    "internalType": "bytes32",
                    "name": "desHash",
                    "type": "bytes32"
                },
                {
                    "internalType": "uint256",
                    "name": "seqOfMotion",
                    "type": "uint256"
                },
                {
                    "internalType": "uint256",
                    "name": "caller",
                    "type": "uint256"
                }
            ],
            "name": "execActionOfGM",
            "outputs": [],
            "stateMutability": "nonpayable",
            "type": "function"
        },
        {
            "inputs": [],
            "name": "finalized",
            "outputs": [
                {
                    "internalType": "bool",
                    "name": "",
                    "type": "bool"
                }
            ],
            "stateMutability": "view",
            "type": "function"
        },
        {
            "inputs": [],
            "name": "getBookeeper",
            "outputs": [
                {
                    "internalType": "address",
                    "name": "",
                    "type": "address"
                }
            ],
            "stateMutability": "view",
            "type": "function"
        },
        {
            "inputs": [],
            "name": "getGeneralCounsel",
            "outputs": [
                {
                    "internalType": "uint40",
                    "name": "",
                    "type": "uint40"
                }
            ],
            "stateMutability": "view",
            "type": "function"
        },
        {
            "inputs": [],
            "name": "getOwner",
            "outputs": [
                {
                    "internalType": "uint40",
                    "name": "",
                    "type": "uint40"
                }
            ],
            "stateMutability": "view",
            "type": "function"
        },
        {
            "inputs": [
                {
                    "internalType": "bytes32",
                    "name": "role",
                    "type": "bytes32"
                },
                {
                    "internalType": "uint256",
                    "name": "acct",
                    "type": "uint256"
                }
            ],
            "name": "grantRole",
            "outputs": [],
            "stateMutability": "nonpayable",
            "type": "function"
        },
        {
            "inputs": [
                {
                    "internalType": "bytes32",
                    "name": "role",
                    "type": "bytes32"
                },
                {
                    "internalType": "uint256",
                    "name": "acct",
                    "type": "uint256"
                }
            ],
            "name": "hasRole",
            "outputs": [
                {
                    "internalType": "bool",
                    "name": "",
                    "type": "bool"
                }
            ],
            "stateMutability": "view",
            "type": "function"
        },
        {
            "inputs": [
                {
                    "internalType": "uint256",
                    "name": "owner",
                    "type": "uint256"
                },
                {
                    "internalType": "address",
                    "name": "directKeeper",
                    "type": "address"
                },
                {
                    "internalType": "address",
                    "name": "regCenter",
                    "type": "address"
                },
                {
                    "internalType": "address",
                    "name": "generalKeeper",
                    "type": "address"
                }
            ],
            "name": "init",
            "outputs": [],
            "stateMutability": "nonpayable",
            "type": "function"
        },
        {
            "inputs": [],
            "name": "lockContents",
            "outputs": [],
            "stateMutability": "nonpayable",
            "type": "function"
        },
        {
            "inputs": [
                {
                    "internalType": "uint256",
                    "name": "seqOfPos",
                    "type": "uint256"
                },
                {
                    "internalType": "uint256",
                    "name": "candidate",
                    "type": "uint256"
                },
                {
                    "internalType": "uint256",
                    "name": "nominator",
                    "type": "uint256"
                }
            ],
            "name": "nominateDirector",
            "outputs": [],
            "stateMutability": "nonpayable",
            "type": "function"
        },
        {
            "inputs": [
                {
                    "internalType": "uint256",
                    "name": "seqOfVR",
                    "type": "uint256"
                },
                {
                    "internalType": "address[]",
                    "name": "targets",
                    "type": "address[]"
                },
                {
                    "internalType": "uint256[]",
                    "name": "values",
                    "type": "uint256[]"
                },
                {
                    "internalType": "bytes[]",
                    "name": "params",
                    "type": "bytes[]"
                },
                {
                    "internalType": "bytes32",
                    "name": "desHash",
                    "type": "bytes32"
                },
                {
                    "internalType": "uint256",
                    "name": "executor",
                    "type": "uint256"
                },
                {
                    "internalType": "uint256",
                    "name": "proposer",
                    "type": "uint256"
                }
            ],
            "name": "proposeActionOfGM",
            "outputs": [],
            "stateMutability": "nonpayable",
            "type": "function"
        },
        {
            "inputs": [
                {
                    "internalType": "address",
                    "name": "doc",
                    "type": "address"
                },
                {
                    "internalType": "uint256",
                    "name": "seqOfVR",
                    "type": "uint256"
                },
                {
                    "internalType": "uint256",
                    "name": "executor",
                    "type": "uint256"
                },
                {
                    "internalType": "uint256",
                    "name": "proposer",
                    "type": "uint256"
                }
            ],
            "name": "proposeDocOfGM",
            "outputs": [],
            "stateMutability": "nonpayable",
            "type": "function"
        },
        {
            "inputs": [
                {
                    "internalType": "uint256",
                    "name": "seqOfMotion",
                    "type": "uint256"
                },
                {
                    "internalType": "uint256",
                    "name": "caller",
                    "type": "uint256"
                }
            ],
            "name": "proposeMotionOfGM",
            "outputs": [],
            "stateMutability": "nonpayable",
            "type": "function"
        },
        {
            "inputs": [
                {
                    "internalType": "uint256",
                    "name": "seqOfPos",
                    "type": "uint256"
                },
                {
                    "internalType": "uint256",
                    "name": "caller",
                    "type": "uint256"
                }
            ],
            "name": "proposeToRemoveDirector",
            "outputs": [],
            "stateMutability": "nonpayable",
            "type": "function"
        },
        {
            "inputs": [
                {
                    "internalType": "address",
                    "name": "target",
                    "type": "address"
                }
            ],
            "name": "removeDirectKeeper",
            "outputs": [],
            "stateMutability": "nonpayable",
            "type": "function"
        },
        {
            "inputs": [
                {
                    "internalType": "uint256",
                    "name": "seqOfMotion",
                    "type": "uint256"
                },
                {
                    "internalType": "uint256",
                    "name": "seqOfPos",
                    "type": "uint256"
                },
                {
                    "internalType": "uint256",
                    "name": "director",
                    "type": "uint256"
                },
                {
                    "internalType": "uint256",
                    "name": "caller",
                    "type": "uint256"
                }
            ],
            "name": "removeDirector",
            "outputs": [],
            "stateMutability": "nonpayable",
            "type": "function"
        },
        {
            "inputs": [
                {
                    "internalType": "bytes32",
                    "name": "role",
                    "type": "bytes32"
                }
            ],
            "name": "renounceRole",
            "outputs": [],
            "stateMutability": "nonpayable",
            "type": "function"
        },
        {
            "inputs": [
                {
                    "internalType": "bytes32",
                    "name": "role",
                    "type": "bytes32"
                },
                {
                    "internalType": "uint256",
                    "name": "acct",
                    "type": "uint256"
                }
            ],
            "name": "revokeRole",
            "outputs": [],
            "stateMutability": "nonpayable",
            "type": "function"
        },
        {
            "inputs": [
                {
                    "internalType": "address",
                    "name": "keeper",
                    "type": "address"
                }
            ],
            "name": "setDirectKeeper",
            "outputs": [],
            "stateMutability": "nonpayable",
            "type": "function"
        },
        {
            "inputs": [
                {
                    "internalType": "uint256",
                    "name": "acct",
                    "type": "uint256"
                }
            ],
            "name": "setGeneralCounsel",
            "outputs": [],
            "stateMutability": "nonpayable",
            "type": "function"
        },
        {
            "inputs": [
                {
                    "internalType": "uint256",
                    "name": "acct",
                    "type": "uint256"
                }
            ],
            "name": "setOwner",
            "outputs": [],
            "stateMutability": "nonpayable",
            "type": "function"
        },
        {
            "inputs": [
                {
                    "internalType": "bytes32",
                    "name": "role",
                    "type": "bytes32"
                },
                {
                    "internalType": "uint256",
                    "name": "acct",
                    "type": "uint256"
                }
            ],
            "name": "setRoleAdmin",
            "outputs": [],
            "stateMutability": "nonpayable",
            "type": "function"
        },
        {
            "inputs": [
                {
                    "internalType": "uint256",
                    "name": "seqOfMotion",
                    "type": "uint256"
                },
                {
                    "internalType": "uint256",
                    "name": "seqOfPos",
                    "type": "uint256"
                },
                {
                    "internalType": "uint256",
                    "name": "caller",
                    "type": "uint256"
                }
            ],
            "name": "takeSeat",
            "outputs": [],
            "stateMutability": "nonpayable",
            "type": "function"
        },
        {
            "inputs": [
                {
                    "internalType": "uint256",
                    "name": "seqOfMotion",
                    "type": "uint256"
                },
                {
                    "internalType": "uint256",
                    "name": "caller",
                    "type": "uint256"
                }
            ],
            "name": "voteCountingOfGM",
            "outputs": [],
            "stateMutability": "nonpayable",
            "type": "function"
        }
    ],
    "bytecode": "608060405234801561001057600080fd5b506160a080620000216000396000f3fe608060405234801561001057600080fd5b50600436106101cf5760003560e01c80637451ce0311610104578063a8459ac0116100a2578063dc890da911610071578063dc890da9146103c7578063ed211023146103da578063f045a769146103fa578063f1e9e7f71461040257600080fd5b8063a8459ac01461037a578063b3f05b971461038d578063c24cb859146103a1578063d0e27e10146103b457600080fd5b8063893d20e8116100de578063893d20e8146103395780638bb9c5bf146103415780639d7d867b14610354578063a60988071461036757600080fd5b80637451ce03146102f05780637e063c5a146103035780638041494e1461032657600080fd5b80633b9f1b81116101715780634a14beb11161014b5780634a14beb1146102a45780635171ebd4146102b75780635d7ad88f146102ca5780636be8496f146102dd57600080fd5b80633b9f1b811461026b5780633c44bcb61461027e5780633da9a6001461029157600080fd5b8063180dc60e116101ad578063180dc60e1461021f57806319d61ad9146102325780631b6ea9f914610245578063331dbb221461025857600080fd5b8063020c814d146101d4578063103f6edd146101e95780631153cd2e1461020c575b600080fd5b6101e76101e2366004615039565b610415565b005b6101f161050d565b60405164ffffffffff90911681526020015b60405180910390f35b6101e761021a366004615145565b610599565b6101e761022d366004615167565b610d53565b6101e7610240366004615145565b610edf565b6101e7610253366004615145565b610f71565b6101e7610266366004615184565b610f97565b6101e761027936600461519d565b6110ef565b6101e761028c36600461519d565b61163c565b6101e761029f366004615184565b611bea565b6101e76102b2366004615184565b611c6e565b6101e76102c5366004615145565b611ecb565b6101e76102d8366004615167565b611ef1565b6101e76102eb366004615167565b612029565b6101e76102fe36600461519d565b6120db565b610316610311366004615145565b612425565b6040519015158152602001610203565b6101e7610334366004615184565b6124c0565b6101f1612579565b6101e761034f366004615184565b6125b4565b6101e76103623660046151c9565b6125d9565b6101e7610375366004615145565b612933565b6101e76103883660046151c9565b612e2b565b60028054600160f01b900460ff1614610316565b6101e76103af366004615039565b613152565b6101e76103c23660046151fb565b61341b565b6101e76103d5366004615236565b613b16565b6103e2613bf8565b6040516001600160a01b039091168152602001610203565b6101e7613c7e565b6101e7610410366004615145565b613ec2565b600160009054906101000a90046001600160a01b03166001600160a01b031663682ebf056040518163ffffffff1660e01b815260040160206040518083038186803b15801561046357600080fd5b505afa158015610477573d6000803e3d6000fd5b505050506040513d601f19601f8201168201806040525081019061049b9190615289565b6001600160a01b0316635c2753bf888888888888886040518863ffffffff1660e01b81526004016104d2979695949392919061536f565b600060405180830381600087803b1580156104ec57600080fd5b505af1158015610500573d6000803e3d6000fd5b5050505050505050505050565b60405163e8c0cc1d60e01b81526002600482015260009073__$364aad554dc80380f414546becdd2c1584$__9063e8c0cc1d906024015b60206040518083038186803b15801561055c57600080fd5b505af4158015610570573d6000803e3d6000fd5b505050506040513d601f19601f82011682018060405250810190610594919061541e565b905090565b604051633b11adbf60e21b81526002600482015233602482015273__$364aad554dc80380f414546becdd2c1584$__9063ec46b6fc9060440160206040518083038186803b1580156105ea57600080fd5b505af41580156105fe573d6000803e3d6000fd5b505050506040513d601f19601f820116820180604052508101906106229190615449565b806106a357506001546040516335d2155560e11b81523360048201526001600160a01b0390911690636ba42aaa9060240160206040518083038186803b15801561066b57600080fd5b505afa15801561067f573d6000803e3d6000fd5b505050506040513d601f19601f820116820180604052508101906106a39190615449565b6106e85760405162461bcd60e51b815260206004820152601160248201527020a19737b59d103737ba1025b2b2b832b960791b60448201526064015b60405180910390fd5b600154604080516319fdcb7760e11b8152905183926001600160a01b0316916333fb96ee916004808301926020929190829003018186803b15801561072c57600080fd5b505afa158015610740573d6000803e3d6000fd5b505050506040513d601f19601f820116820180604052508101906107649190615289565b6001600160a01b031663d50c7377826040518263ffffffff1660e01b815260040161079191815260200190565b60206040518083038186803b1580156107a957600080fd5b505afa1580156107bd573d6000803e3d6000fd5b505050506040513d601f19601f820116820180604052508101906107e19190615449565b6107fd5760405162461bcd60e51b81526004016106df90615464565b6001546040805163682ebf0560e01b815290516000926001600160a01b03169163682ebf05916004808301926020929190829003018186803b15801561084257600080fd5b505afa158015610856573d6000803e3d6000fd5b505050506040513d601f19601f8201168201806040525081019061087a9190615289565b90506000600160009054906101000a90046001600160a01b03166001600160a01b031663a61adc286040518163ffffffff1660e01b815260040160206040518083038186803b1580156108cc57600080fd5b505afa1580156108e0573d6000803e3d6000fd5b505050506040513d601f19601f820116820180604052508101906109049190615289565b604051634846203760e01b8152600060048201526001600160a01b03919091169063484620379060240160206040518083038186803b15801561094657600080fd5b505afa15801561095a573d6000803e3d6000fd5b505050506040513d601f19601f8201168201806040525081019061097e9190615494565b604051633d315f5b60e21b8152600481019190915273__$9d2c69e94fee47b9774dc8db4aa5c0bbec$__9063f4c57d6c906024016102006040518083038186803b1580156109cb57600080fd5b505af41580156109df573d6000803e3d6000fd5b505050506040513d601f19601f82011682018060405250810190610a0391906154e4565b608001516040516361df743f60e01b815260048101879052602481018690529091506001600160a01b038316906361df743f9060440160006040518083038186803b158015610a5157600080fd5b505afa158015610a65573d6000803e3d6000fd5b505050506040513d6000823e601f3d908101601f19168201604052610a8d919081019061562f565b5164ffffffffff1615610ae25760405162461bcd60e51b815260206004820152601d60248201527f424f474b2e504d3a2068617320656e74727573742064656c656761746500000060448201526064016106df565b600154604080516319fdcb7760e11b815290516000926001600160a01b0316916333fb96ee916004808301926020929190829003018186803b158015610b2757600080fd5b505afa158015610b3b573d6000803e3d6000fd5b505050506040513d601f19601f82011682018060405250810190610b5f9190615289565b90506000816001600160a01b0316630d15fd776040518163ffffffff1660e01b815260040160206040518083038186803b158015610b9c57600080fd5b505afa158015610bb0573d6000803e3d6000fd5b505050506040513d601f19601f82011682018060405250810190610bd4919061573c565b604051630c41f49b60e41b8152600481018990526024810188905265ffffffffffff421660448201526001600160a01b03848116606483015291925060009186169063c41f49b09060840160206040518083038186803b158015610c3757600080fd5b505afa158015610c4b573d6000803e3d6000fd5b505050506040513d601f19601f82011682018060405250810190610c6f919061573c565b905061ffff8416610c80838361576d565b6001600160401b03161015610ce75760405162461bcd60e51b815260206004820152602760248201527f424f474b2e504d3a206e6f7420726561636865642070726f706f73616c2074686044820152661c995cda1bdb1960ca1b60648201526084016106df565b6040516304b79d5f60e11b815260048101899052602481018890526001600160a01b0386169063096f3abe906044015b600060405180830381600087803b158015610d3157600080fd5b505af1158015610d45573d6000803e3d6000fd5b505050505050505050505050565b604051633b11adbf60e21b81526002600482015233602482015273__$364aad554dc80380f414546becdd2c1584$__9063ec46b6fc9060440160206040518083038186803b158015610da457600080fd5b505af4158015610db8573d6000803e3d6000fd5b505050506040513d601f19601f82011682018060405250810190610ddc9190615449565b610df85760405162461bcd60e51b81526004016106df906157a1565b600160009054906101000a90046001600160a01b03166001600160a01b031663682ebf056040518163ffffffff1660e01b815260040160206040518083038186803b158015610e4657600080fd5b505afa158015610e5a573d6000803e3d6000fd5b505050506040513d601f19601f82011682018060405250810190610e7e9190615289565b604051630c06e30760e11b81526001600160a01b038381166004830152919091169063180dc60e906024015b600060405180830381600087803b158015610ec457600080fd5b505af1158015610ed8573d6000803e3d6000fd5b5050505050565b73__$364aad554dc80380f414546becdd2c1584$__6382daafaa60028484610f05614a6f565b6040516001600160e01b031960e087901b16815260048101949094526024840192909252604483015264ffffffffff16606482015260840160006040518083038186803b158015610f5557600080fd5b505af4158015610f69573d6000803e3d6000fd5b505050505050565b73__$364aad554dc80380f414546becdd2c1584$__636320d75e60028484610f05614a6f565b604051633b11adbf60e21b81526002600482015233602482015273__$364aad554dc80380f414546becdd2c1584$__9063ec46b6fc9060440160206040518083038186803b158015610fe857600080fd5b505af4158015610ffc573d6000803e3d6000fd5b505050506040513d601f19601f820116820180604052508101906110209190615449565b61103c5760405162461bcd60e51b81526004016106df906157a1565b600160009054906101000a90046001600160a01b03166001600160a01b031663682ebf056040518163ffffffff1660e01b815260040160206040518083038186803b15801561108a57600080fd5b505afa15801561109e573d6000803e3d6000fd5b505050506040513d601f19601f820116820180604052508101906110c29190615289565b6001600160a01b031663331dbb22826040518263ffffffff1660e01b8152600401610eaa91815260200190565b604051633b11adbf60e21b81526002600482015233602482015273__$364aad554dc80380f414546becdd2c1584$__9063ec46b6fc9060440160206040518083038186803b15801561114057600080fd5b505af4158015611154573d6000803e3d6000fd5b505050506040513d601f19601f820116820180604052508101906111789190615449565b6111945760405162461bcd60e51b81526004016106df906157a1565b600154604080516319fdcb7760e11b8152905183926001600160a01b0316916333fb96ee916004808301926020929190829003018186803b1580156111d857600080fd5b505afa1580156111ec573d6000803e3d6000fd5b505050506040513d601f19601f820116820180604052508101906112109190615289565b6001600160a01b031663d50c7377826040518263ffffffff1660e01b815260040161123d91815260200190565b60206040518083038186803b15801561125557600080fd5b505afa158015611269573d6000803e3d6000fd5b505050506040513d601f19601f8201168201806040525081019061128d9190615449565b6112a95760405162461bcd60e51b81526004016106df90615464565b600154604080516319fdcb7760e11b8152905185926001600160a01b0316916333fb96ee916004808301926020929190829003018186803b1580156112ed57600080fd5b505afa158015611301573d6000803e3d6000fd5b505050506040513d601f19601f820116820180604052508101906113259190615289565b6001600160a01b031663d50c7377826040518263ffffffff1660e01b815260040161135291815260200190565b60206040518083038186803b15801561136a57600080fd5b505afa15801561137e573d6000803e3d6000fd5b505050506040513d601f19601f820116820180604052508101906113a29190615449565b6113be5760405162461bcd60e51b81526004016106df90615464565b6113c88584614ac9565b6001546040805163682ebf0560e01b815290516000926001600160a01b03169163682ebf05916004808301926020929190829003018186803b15801561140d57600080fd5b505afa158015611421573d6000803e3d6000fd5b505050506040513d601f19601f820116820180604052508101906114459190615289565b9050600080826001600160a01b031663ad15aad2896040518263ffffffff1660e01b815260040161147891815260200190565b6104406040518083038186803b15801561149157600080fd5b505afa1580156114a5573d6000803e3d6000fd5b505050506040513d601f19601f820116820180604052508101906114c99190615a61565b6020015160400151905065ffffffffffff8116156115f257600160009054906101000a90046001600160a01b03166001600160a01b03166333fb96ee6040518163ffffffff1660e01b815260040160206040518083038186803b15801561152f57600080fd5b505afa158015611543573d6000803e3d6000fd5b505050506040513d601f19601f820116820180604052508101906115679190615289565b604051632bf82aab60e01b81526004810188905265ffffffffffff831660248201526001600160a01b039190911690632bf82aab9060440160206040518083038186803b1580156115b757600080fd5b505afa1580156115cb573d6000803e3d6000fd5b505050506040513d601f19601f820116820180604052508101906115ef919061573c565b91505b604051632c2d75e360e11b81526004810189905260248101889052604481018790526001600160401b03831660648201526001600160a01b0384169063585aebc690608401610d17565b604051633b11adbf60e21b81526002600482015233602482015273__$364aad554dc80380f414546becdd2c1584$__9063ec46b6fc9060440160206040518083038186803b15801561168d57600080fd5b505af41580156116a1573d6000803e3d6000fd5b505050506040513d601f19601f820116820180604052508101906116c59190615449565b6116e15760405162461bcd60e51b81526004016106df906157a1565b600154604080516319fdcb7760e11b8152905183926001600160a01b0316916333fb96ee916004808301926020929190829003018186803b15801561172557600080fd5b505afa158015611739573d6000803e3d6000fd5b505050506040513d601f19601f8201168201806040525081019061175d9190615289565b6001600160a01b031663d50c7377826040518263ffffffff1660e01b815260040161178a91815260200190565b60206040518083038186803b1580156117a257600080fd5b505afa1580156117b6573d6000803e3d6000fd5b505050506040513d601f19601f820116820180604052508101906117da9190615449565b6117f65760405162461bcd60e51b81526004016106df90615464565b60015460408051639262826d60e01b815290516000926001600160a01b031691639262826d916004808301926020929190829003018186803b15801561183b57600080fd5b505afa15801561184f573d6000803e3d6000fd5b505050506040513d601f19601f820116820180604052508101906118739190615289565b6001600160a01b031663eb02c301866040518263ffffffff1660e01b81526004016118a091815260200190565b6101206040518083038186803b1580156118b957600080fd5b505afa1580156118cd573d6000803e3d6000fd5b505050506040513d601f19601f820116820180604052508101906118f19190615b43565b8051909150600461ffff90911611156119575760405162461bcd60e51b815260206004820152602260248201527f424f474b2e4e443a206e6f742061204469726563746f72277320706f7369746960448201526137b760f11b60648201526084016106df565b606081015164ffffffffff161580611979575082816060015164ffffffffff16145b6119c55760405162461bcd60e51b815260206004820152601f60248201527f424f474b2e4e443a20686173206e6f206e6f6d696e6174696f6e52696768740060448201526064016106df565b6001546040805163682ebf0560e01b815290516000926001600160a01b03169163682ebf05916004808301926020929190829003018186803b158015611a0a57600080fd5b505afa158015611a1e573d6000803e3d6000fd5b505050506040513d601f19601f82011682018060405250810190611a429190615289565b60c08301516040516313d904eb60e21b81526004810189905261ffff909116602482015260448101879052606481018690526001600160a01b039190911690634f6413ac90608401602060405180830381600087803b158015611aa457600080fd5b505af1158015611ab8573d6000803e3d6000fd5b505050506040513d601f19601f82011682018060405250810190611adc919061573c565b606083015190915064ffffffffff1615610f6957600160009054906101000a90046001600160a01b03166001600160a01b031663682ebf056040518163ffffffff1660e01b815260040160206040518083038186803b158015611b3e57600080fd5b505afa158015611b52573d6000803e3d6000fd5b505050506040513d601f19601f82011682018060405250810190611b769190615289565b6040516304b79d5f60e11b81526001600160401b0383166004820152602481018690526001600160a01b03919091169063096f3abe906044015b600060405180830381600087803b158015611bca57600080fd5b505af1158015611bde573d6000803e3d6000fd5b50505050505050505050565b73__$364aad554dc80380f414546becdd2c1584$__63c51b295f600283611c0f614a6f565b6040516001600160e01b031960e086901b1681526004810193909352602483019190915264ffffffffff16604482015260640160006040518083038186803b158015611c5a57600080fd5b505af4158015610ed8573d6000803e3d6000fd5b604051633b11adbf60e21b81526002600482015233602482015273__$364aad554dc80380f414546becdd2c1584$__9063ec46b6fc9060440160206040518083038186803b158015611cbf57600080fd5b505af4158015611cd3573d6000803e3d6000fd5b505050506040513d601f19601f82011682018060405250810190611cf79190615449565b80611d9c575073__$364aad554dc80380f414546becdd2c1584$__63fe2710866002611d21614a6f565b6040516001600160e01b031960e085901b168152600481019290925264ffffffffff16602482015260440160206040518083038186803b158015611d6457600080fd5b505af4158015611d78573d6000803e3d6000fd5b505050506040513d601f19601f82011682018060405250810190611d9c9190615449565b611e075760405162461bcd60e51b815260206004820152603660248201527f41432e6f776e65724f72446972656374426f6f6b65657065723a206e6569746860448201527532b91037bbb732b9103737b9103137b7b5b2b2b832b960511b60648201526084016106df565b73__$364aad554dc80380f414546becdd2c1584$__639b4510de600283611e2c614a6f565b6040516001600160e01b031960e086901b1681526004810193909352602483019190915264ffffffffff16604482015260640160006040518083038186803b158015611e7757600080fd5b505af4158015611e8b573d6000803e3d6000fd5b505050507ff2735f34b69be1e6342dea95f9162f84d0db925fab655ca9f1f312ac8cbfc99d81604051611ec091815260200190565b60405180910390a150565b73__$364aad554dc80380f414546becdd2c1584$__63ee98b31360028484610f05614a6f565b604051633b11adbf60e21b81526002600482015233602482015273__$364aad554dc80380f414546becdd2c1584$__9063ec46b6fc9060440160206040518083038186803b158015611f4257600080fd5b505af4158015611f56573d6000803e3d6000fd5b505050506040513d601f19601f82011682018060405250810190611f7a9190615449565b611f965760405162461bcd60e51b81526004016106df906157a1565b604051636be8496f60e01b81523360048201526001600160a01b03821690636be8496f90602401600060405180830381600087803b158015611fd757600080fd5b505af1158015611feb573d6000803e3d6000fd5b50506040516001600160a01b03841681527f64dd6e84044f0067086012335dcfab3188db6615b5cc7debf18c9a621ebd5d9192506020019050611ec0565b604051630f07232560e01b8152600260048201526001600160a01b038216602482015233604482015273__$364aad554dc80380f414546becdd2c1584$__90630f0723259060640160006040518083038186803b15801561208957600080fd5b505af415801561209d573d6000803e3d6000fd5b50506040516001600160a01b03841681527fe435cbeab64e4eae6497b9d8289704bd709d624a80704ef3ca9af777534bc6ec92506020019050611ec0565b604051633b11adbf60e21b81526002600482015233602482015273__$364aad554dc80380f414546becdd2c1584$__9063ec46b6fc9060440160206040518083038186803b15801561212c57600080fd5b505af4158015612140573d6000803e3d6000fd5b505050506040513d601f19601f820116820180604052508101906121649190615449565b6121805760405162461bcd60e51b81526004016106df906157a1565b6001546040805163682ebf0560e01b815290516000926001600160a01b03169163682ebf05916004808301926020929190829003018186803b1580156121c557600080fd5b505afa1580156121d9573d6000803e3d6000fd5b505050506040513d601f19601f820116820180604052508101906121fd9190615289565b60405163568ad56960e11b8152600481018690529091506001906001600160a01b0383169063ad15aad2906024016104406040518083038186803b15801561224457600080fd5b505afa158015612258573d6000803e3d6000fd5b505050506040513d601f19601f8201168201806040525081019061227c9190615a61565b515161ffff16146122cf5760405162461bcd60e51b815260206004820152601e60248201527f424f474b2e54533a206e6f742061207375697461626c65206d6f74696f6e000060448201526064016106df565b60405162b4faa960e61b81526004810185905260248101849052604481018390526001600160a01b03821690632d3eaa4090606401600060405180830381600087803b15801561231e57600080fd5b505af1158015612332573d6000803e3d6000fd5b50505050600160009054906101000a90046001600160a01b03166001600160a01b0316639262826d6040518163ffffffff1660e01b815260040160206040518083038186803b15801561238457600080fd5b505afa158015612398573d6000803e3d6000fd5b505050506040513d601f19601f820116820180604052508101906123bc9190615289565b604051636998d28d60e01b815260048101859052602481018490526001600160a01b039190911690636998d28d90604401600060405180830381600087803b15801561240757600080fd5b505af115801561241b573d6000803e3d6000fd5b5050505050505050565b604051632a3be56b60e21b815260026004820152602481018390526044810182905260009073__$364aad554dc80380f414546becdd2c1584$__9063a8ef95ac9060640160206040518083038186803b15801561248157600080fd5b505af4158015612495573d6000803e3d6000fd5b505050506040513d601f19601f820116820180604052508101906124b99190615449565b9392505050565b73__$364aad554dc80380f414546becdd2c1584$__639b48160c6002836124e5614a6f565b6040516001600160e01b031960e086901b1681526004810193909352602483019190915264ffffffffff16604482015260640160006040518083038186803b15801561253057600080fd5b505af4158015612544573d6000803e3d6000fd5b505050507f8b6f40f36b4ae8cc5f55e895036457c43da4ab1f80f58c46f5ff0d72a650033b81604051611ec091815260200190565b60405163987ad15360e01b81526002600482015260009073__$364aad554dc80380f414546becdd2c1584$__9063987ad15390602401610544565b73__$364aad554dc80380f414546becdd2c1584$__63cc0d511b600283611c0f614a6f565b604051633b11adbf60e21b81526002600482015233602482015273__$364aad554dc80380f414546becdd2c1584$__9063ec46b6fc9060440160206040518083038186803b15801561262a57600080fd5b505af415801561263e573d6000803e3d6000fd5b505050506040513d601f19601f820116820180604052508101906126629190615449565b61267e5760405162461bcd60e51b81526004016106df906157a1565b6001546040805163682ebf0560e01b815290516000926001600160a01b03169163682ebf05916004808301926020929190829003018186803b1580156126c357600080fd5b505afa1580156126d7573d6000803e3d6000fd5b505050506040513d601f19601f820116820180604052508101906126fb9190615289565b60405163568ad56960e11b8152600481018790529091506002906001600160a01b0383169063ad15aad2906024016104406040518083038186803b15801561274257600080fd5b505afa158015612756573d6000803e3d6000fd5b505050506040513d601f19601f8201168201806040525081019061277a9190615a61565b515161ffff16146127cd5760405162461bcd60e51b815260206004820152601e60248201527f424f474b2e52443a206e6f742061207375697461626c65206d6f74696f6e000060448201526064016106df565b60405162b4faa960e61b81526004810186905260248101859052604481018390526001600160a01b03821690632d3eaa4090606401600060405180830381600087803b15801561281c57600080fd5b505af1158015612830573d6000803e3d6000fd5b50505050600160009054906101000a90046001600160a01b03166001600160a01b0316639262826d6040518163ffffffff1660e01b815260040160206040518083038186803b15801561288257600080fd5b505afa158015612896573d6000803e3d6000fd5b505050506040513d601f19601f820116820180604052508101906128ba9190615289565b60405163a878079960e01b8152600481018790526024810186905260448101859052606481018490526001600160a01b03919091169063a8780799906084015b600060405180830381600087803b15801561291457600080fd5b505af1158015612928573d6000803e3d6000fd5b505050505050505050565b604051633b11adbf60e21b81526002600482015233602482015273__$364aad554dc80380f414546becdd2c1584$__9063ec46b6fc9060440160206040518083038186803b15801561298457600080fd5b505af4158015612998573d6000803e3d6000fd5b505050506040513d601f19601f820116820180604052508101906129bc9190615449565b6129d85760405162461bcd60e51b81526004016106df906157a1565b600154604080516319fdcb7760e11b8152905183926001600160a01b0316916333fb96ee916004808301926020929190829003018186803b158015612a1c57600080fd5b505afa158015612a30573d6000803e3d6000fd5b505050506040513d601f19601f82011682018060405250810190612a549190615289565b6001600160a01b031663d50c7377826040518263ffffffff1660e01b8152600401612a8191815260200190565b60206040518083038186803b158015612a9957600080fd5b505afa158015612aad573d6000803e3d6000fd5b505050506040513d601f19601f82011682018060405250810190612ad19190615449565b612aed5760405162461bcd60e51b81526004016106df90615464565b60015460408051639262826d60e01b815290516000926001600160a01b031691639262826d916004808301926020929190829003018186803b158015612b3257600080fd5b505afa158015612b46573d6000803e3d6000fd5b505050506040513d601f19601f82011682018060405250810190612b6a9190615289565b6001600160a01b031663eb02c301856040518263ffffffff1660e01b8152600401612b9791815260200190565b6101206040518083038186803b158015612bb057600080fd5b505afa158015612bc4573d6000803e3d6000fd5b505050506040513d601f19601f82011682018060405250810190612be89190615b43565b8051909150600461ffff9091161115612c4f5760405162461bcd60e51b8152602060048201526024808201527f424f474b2e505452443a206e6f742061204469726563746f72277320706f73696044820152633a34b7b760e11b60648201526084016106df565b606081015164ffffffffff161580612c71575082816060015164ffffffffff16145b612cc75760405162461bcd60e51b815260206004820152602160248201527f424f474b2e505452443a20686173206e6f206e6f6d696e6174696f6e526967686044820152601d60fa1b60648201526084016106df565b6001546040805163682ebf0560e01b815290516000926001600160a01b03169163682ebf05916004808301926020929190829003018186803b158015612d0c57600080fd5b505afa158015612d20573d6000803e3d6000fd5b505050506040513d601f19601f82011682018060405250810190612d449190615289565b60c08301516040516365a47e8160e01b81526004810188905261ffff9091166024820152604481018690529091506000906001600160a01b038316906365a47e8190606401602060405180830381600087803b158015612da357600080fd5b505af1158015612db7573d6000803e3d6000fd5b505050506040513d601f19601f82011682018060405250810190612ddb919061573c565b606084015190915064ffffffffff1615610f69576040516304b79d5f60e11b81526001600160401b0382166004820152602481018690526001600160a01b0383169063096f3abe90604401611bb0565b604051633b11adbf60e21b81526002600482015233602482015273__$364aad554dc80380f414546becdd2c1584$__9063ec46b6fc9060440160206040518083038186803b158015612e7c57600080fd5b505af4158015612e90573d6000803e3d6000fd5b505050506040513d601f19601f82011682018060405250810190612eb49190615449565b612ed05760405162461bcd60e51b81526004016106df906157a1565b600154604080516319fdcb7760e11b8152905183926001600160a01b0316916333fb96ee916004808301926020929190829003018186803b158015612f1457600080fd5b505afa158015612f28573d6000803e3d6000fd5b505050506040513d601f19601f82011682018060405250810190612f4c9190615289565b6001600160a01b031663d50c7377826040518263ffffffff1660e01b8152600401612f7991815260200190565b60206040518083038186803b158015612f9157600080fd5b505afa158015612fa5573d6000803e3d6000fd5b505050506040513d601f19601f82011682018060405250810190612fc99190615449565b612fe55760405162461bcd60e51b81526004016106df90615464565b612fef8583614ac9565b600160009054906101000a90046001600160a01b03166001600160a01b031663682ebf056040518163ffffffff1660e01b815260040160206040518083038186803b15801561303d57600080fd5b505afa158015613051573d6000803e3d6000fd5b505050506040513d601f19601f820116820180604052508101906130759190615289565b6001600160a01b03166388125cf7868686600160009054906101000a90046001600160a01b03166001600160a01b03166333fb96ee6040518163ffffffff1660e01b815260040160206040518083038186803b1580156130d457600080fd5b505afa1580156130e8573d6000803e3d6000fd5b505050506040513d601f19601f8201168201806040525081019061310c9190615289565b6040516001600160e01b031960e087901b1681526004810194909452602484019290925260448301526001600160a01b031660648201526084810185905260a4016128fa565b604051633b11adbf60e21b81526002600482015233602482015273__$364aad554dc80380f414546becdd2c1584$__9063ec46b6fc9060440160206040518083038186803b1580156131a357600080fd5b505af41580156131b7573d6000803e3d6000fd5b505050506040513d601f19601f820116820180604052508101906131db9190615449565b6131f75760405162461bcd60e51b81526004016106df906157a1565b600154604080516319fdcb7760e11b8152905183926001600160a01b0316916333fb96ee916004808301926020929190829003018186803b15801561323b57600080fd5b505afa15801561324f573d6000803e3d6000fd5b505050506040513d601f19601f820116820180604052508101906132739190615289565b6001600160a01b031663d50c7377826040518263ffffffff1660e01b81526004016132a091815260200190565b60206040518083038186803b1580156132b857600080fd5b505afa1580156132cc573d6000803e3d6000fd5b505050506040513d601f19601f820116820180604052508101906132f09190615449565b61330c5760405162461bcd60e51b81526004016106df90615464565b600160009054906101000a90046001600160a01b03166001600160a01b031663682ebf056040518163ffffffff1660e01b815260040160206040518083038186803b15801561335a57600080fd5b505afa15801561336e573d6000803e3d6000fd5b505050506040513d601f19601f820116820180604052508101906133929190615289565b6001600160a01b031663bbfd607d898989898989896040518863ffffffff1660e01b81526004016133c9979695949392919061536f565b602060405180830381600087803b1580156133e357600080fd5b505af11580156133f7573d6000803e3d6000fd5b505050506040513d601f19601f82011682018060405250810190612928919061573c565b604051633b11adbf60e21b81526002600482015233602482015273__$364aad554dc80380f414546becdd2c1584$__9063ec46b6fc9060440160206040518083038186803b15801561346c57600080fd5b505af4158015613480573d6000803e3d6000fd5b505050506040513d601f19601f820116820180604052508101906134a49190615449565b6134c05760405162461bcd60e51b81526004016106df906157a1565b600154604080516319fdcb7760e11b8152905183926001600160a01b0316916333fb96ee916004808301926020929190829003018186803b15801561350457600080fd5b505afa158015613518573d6000803e3d6000fd5b505050506040513d601f19601f8201168201806040525081019061353c9190615289565b6001600160a01b031663d50c7377826040518263ffffffff1660e01b815260040161356991815260200190565b60206040518083038186803b15801561358157600080fd5b505afa158015613595573d6000803e3d6000fd5b505050506040513d601f19601f820116820180604052508101906135b99190615449565b6135d55760405162461bcd60e51b81526004016106df90615464565b6001546040805163682ebf0560e01b815290516000926001600160a01b03169163682ebf05916004808301926020929190829003018186803b15801561361a57600080fd5b505afa15801561362e573d6000803e3d6000fd5b505050506040513d601f19601f820116820180604052508101906136529190615289565b60405163cd43b16560e01b81526001600160a01b03888116600483015260248201889052604482018790526064820186905291925060009183169063cd43b16590608401602060405180830381600087803b1580156136b057600080fd5b505af11580156136c4573d6000803e3d6000fd5b505050506040513d601f19601f820116820180604052508101906136e8919061573c565b90506008861115801561376e575060405163143b4f6f60e11b8152600481018590526001600160a01b038816906328769ede9060240160206040518083038186803b15801561373657600080fd5b505afa15801561374a573d6000803e3d6000fd5b505050506040513d601f19601f8201168201806040525081019061376e9190615449565b15613b0d576040516304b79d5f60e11b81526001600160401b0382166004820152602481018590526001600160a01b0383169063096f3abe90604401600060405180830381600087803b1580156137c457600080fd5b505af11580156137d8573d6000803e3d6000fd5b505050506000600160009054906101000a90046001600160a01b03166001600160a01b031663a61adc286040518163ffffffff1660e01b815260040160206040518083038186803b15801561382c57600080fd5b505afa158015613840573d6000803e3d6000fd5b505050506040513d601f19601f820116820180604052508101906138649190615289565b6001600160a01b03166348462037886040518263ffffffff1660e01b815260040161389191815260200190565b60206040518083038186803b1580156138a957600080fd5b505afa1580156138bd573d6000803e3d6000fd5b505050506040513d601f19601f820116820180604052508101906138e19190615494565b604051634281ec6b60e11b8152600481019190915273__$9d2c69e94fee47b9774dc8db4aa5c0bbec$__90638503d8d6906024016102606040518083038186803b15801561392e57600080fd5b505af4158015613942573d6000803e3d6000fd5b505050506040513d601f19601f820116820180604052508101906139669190615bee565b905086600814613a5a57600160009054906101000a90046001600160a01b03166001600160a01b031663acd2d0576040518163ffffffff1660e01b815260040160206040518083038186803b1580156139be57600080fd5b505afa1580156139d2573d6000803e3d6000fd5b505050506040513d601f19601f820116820180604052508101906139f69190615289565b6001600160a01b031663bb1faed489836040518363ffffffff1660e01b8152600401613a23929190615c35565b600060405180830381600087803b158015613a3d57600080fd5b505af1158015613a51573d6000803e3d6000fd5b5050505061241b565b600160009054906101000a90046001600160a01b03166001600160a01b031663b613bb4c6040518163ffffffff1660e01b815260040160206040518083038186803b158015613aa857600080fd5b505afa158015613abc573d6000803e3d6000fd5b505050506040513d601f19601f82011682018060405250810190613ae09190615289565b6001600160a01b031663bb1faed489836040518363ffffffff1660e01b8152600401610d17929190615c35565b50505050505050565b604051636cdd0edf60e11b815260026004820152602481018590526001600160a01b038416604482015273__$364aad554dc80380f414546becdd2c1584$__9063d9ba1dbe9060640160006040518083038186803b158015613b7757600080fd5b505af4158015613b8b573d6000803e3d6000fd5b50505050613b9882614ca7565b613ba181614d1a565b604080518581526001600160a01b038581166020830152848116828401528316606082015290517f3abb2418c66fe32ba9c883030a75ce583971d9af9192b9b74e44e67c5e6c8c1f9181900360800190a150505050565b604051633c3e56c160e11b81526002600482015260009073__$364aad554dc80380f414546becdd2c1584$__9063787cad829060240160206040518083038186803b158015613c4657600080fd5b505af4158015613c5a573d6000803e3d6000fd5b505050506040513d601f19601f820116820180604052508101906105949190615289565b600254600160f01b900460ff16600114613cda5760405162461bcd60e51b815260206004820152601760248201527f41432e4c433a20446f632069732066696e616c697a656400000000000000000060448201526064016106df565b73__$364aad554dc80380f414546becdd2c1584$__63c51b295f6002684174746f726e65797360b81b613d0b614a6f565b6040516001600160e01b031960e086901b1681526004810193909352602483019190915264ffffffffff16604482015260640160006040518083038186803b158015613d5657600080fd5b505af4158015613d6a573d6000803e3d6000fd5b50505050600273__$364aad554dc80380f414546becdd2c1584$__639b4510de90916000613d96614a6f565b6040516001600160e01b031960e086901b1681526004810193909352602483019190915264ffffffffff16604482015260640160006040518083038186803b158015613de157600080fd5b505af4158015613df5573d6000803e3d6000fd5b50505050600273__$364aad554dc80380f414546becdd2c1584$__639b48160c90916000613e21614a6f565b6040516001600160e01b031960e086901b1681526004810193909352602483019190915264ffffffffff16604482015260640160006040518083038186803b158015613e6c57600080fd5b505af4158015613e80573d6000803e3d6000fd5b50506002805460ff60f01b1916600160f11b17905550506040517f35012b512309c322acf68632cd6cb702ff0e1d776fbe9394e38ffc13b434fe7590600090a1565b604051633b11adbf60e21b81526002600482015233602482015273__$364aad554dc80380f414546becdd2c1584$__9063ec46b6fc9060440160206040518083038186803b158015613f1357600080fd5b505af4158015613f27573d6000803e3d6000fd5b505050506040513d601f19601f82011682018060405250810190613f4b9190615449565b613f675760405162461bcd60e51b81526004016106df906157a1565b600154604080516319fdcb7760e11b8152905183926001600160a01b0316916333fb96ee916004808301926020929190829003018186803b158015613fab57600080fd5b505afa158015613fbf573d6000803e3d6000fd5b505050506040513d601f19601f82011682018060405250810190613fe39190615289565b6001600160a01b031663d50c7377826040518263ffffffff1660e01b815260040161401091815260200190565b60206040518083038186803b15801561402857600080fd5b505afa15801561403c573d6000803e3d6000fd5b505050506040513d601f19601f820116820180604052508101906140609190615449565b61407c5760405162461bcd60e51b81526004016106df90615464565b6001546040805163682ebf0560e01b815290516000926001600160a01b03169163682ebf05916004808301926020929190829003018186803b1580156140c157600080fd5b505afa1580156140d5573d6000803e3d6000fd5b505050506040513d601f19601f820116820180604052508101906140f99190615289565b90506000600160009054906101000a90046001600160a01b03166001600160a01b03166333fb96ee6040518163ffffffff1660e01b815260040160206040518083038186803b15801561414b57600080fd5b505afa15801561415f573d6000803e3d6000fd5b505050506040513d601f19601f820116820180604052508101906141839190615289565b60405163568ad56960e11b8152600481018790529091506000906001600160a01b0384169063ad15aad2906024016104406040518083038186803b1580156141ca57600080fd5b505afa1580156141de573d6000803e3d6000fd5b505050506040513d601f19601f820116820180604052508101906142029190615a61565b60408051608081018252600080825260208201819052818301819052606082018190529151630597757b60e21b8152600481018a905260248101839052929350916001600160a01b0386169063165dd5ec9060440160006040518083038186803b15801561426f57600080fd5b505afa158015614283573d6000803e3d6000fd5b505050506040513d6000823e601f3d908101601f191682016040526142ab9190810190615df7565b9050826040015160c00151156142dd57805163ffffffff1682526020808201516001600160401b0316908301526147ae565b836001600160a01b03166329d01b3a6040518163ffffffff1660e01b815260040160206040518083038186803b15801561431657600080fd5b505afa15801561432a573d6000803e3d6000fd5b505050506040513d601f19601f8201168201806040525081019061434e9190615e9b565b63ffffffff1682526040805162e4df9160e81b815290516001600160a01b0386169163e4df9100916004808301926020929190829003018186803b15801561439557600080fd5b505afa1580156143a9573d6000803e3d6000fd5b505050506040513d601f19601f820116820180604052508101906143cd9190615449565b6144645760208301516040908101519051632e94bd2b60e21b815265ffffffffffff90911660048201526001600160a01b0385169063ba52f4ac9060240160806040518083038186803b15801561442357600080fd5b505afa158015614437573d6000803e3d6000fd5b505050506040513d601f19601f8201168201806040525081019061445b9190615eb6565b602001516144f3565b60208301516040908101519051632e94bd2b60e21b815265ffffffffffff90911660048201526001600160a01b0385169063ba52f4ac9060240160806040518083038186803b1580156144b657600080fd5b505afa1580156144ca573d6000803e3d6000fd5b505050506040513d601f19601f820116820180604052508101906144ee9190615eb6565b604001515b6001600160401b03166020830152604083015160e001511561455457805182516145239163ffffffff1690615f32565b6001600160401b03166040830152602080820151908301516145459190615f32565b6001600160401b031660608301525b82515161ffff16600314156147ae57600083606001516001600160a01b031663a8311aa86040518163ffffffff1660e01b815260040160006040518083038186803b1580156145a257600080fd5b505afa1580156145b6573d6000803e3d6000fd5b505050506040513d6000823e601f3d908101601f191682016040526145de9190810190615f5a565b80519091505b80156147ab5760006001600160a01b038716632bf82aab84614607600186615f96565b8151811061461757614617615fad565b60200260200101518860200151604001516040518363ffffffff1660e01b815260040161465692919091825265ffffffffffff16602082015260400190565b60206040518083038186803b15801561466e57600080fd5b505afa158015614682573d6000803e3d6000fd5b505050506040513d601f19601f820116820180604052508101906146a6919061573c565b90506001600160401b0381161561479857856040015161010001511561471557856040015160e0015161471057604085018051906146e382615fc3565b6001600160401b0316905250606085018051829190614703908390615fea565b6001600160401b03169052505b614798565b84518561472182616015565b6001600160401b0316905250602085018051829190614741908390615f32565b6001600160401b0316905250604086015160e0015115614798576040850180519061476b82616015565b6001600160401b031690525060608501805182919061478b908390615f32565b6001600160401b03169052505b816147a281616038565b925050506145e4565b50505b6040805163a0743e7160e01b8152600481018a905283516001600160401b0390811660248301526020850151811660448301529184015182166064820152606084015190911660848201526000906003906001600160a01b0388169063a0743e719060a401602060405180830381600087803b15801561482d57600080fd5b505af1158015614841573d6000803e3d6000fd5b505050506040513d601f19601f82011682018060405250810190614865919061604f565b60ff1614905060008460600151905084600001516040015161ffff1660081461497857600160009054906101000a90046001600160a01b03166001600160a01b031663acd2d0576040518163ffffffff1660e01b815260040160206040518083038186803b1580156148d657600080fd5b505afa1580156148ea573d6000803e3d6000fd5b505050506040513d601f19601f8201168201806040525081019061490e9190615289565b6040516328426ce960e11b81526001600160a01b03838116600483015284151560248301529190911690635084d9d290604401600060405180830381600087803b15801561495b57600080fd5b505af115801561496f573d6000803e3d6000fd5b50505050611bde565b600160009054906101000a90046001600160a01b03166001600160a01b031663b613bb4c6040518163ffffffff1660e01b815260040160206040518083038186803b1580156149c657600080fd5b505afa1580156149da573d6000803e3d6000fd5b505050506040513d601f19601f820116820180604052508101906149fe9190615289565b6040516328426ce960e11b81526001600160a01b03838116600483015284151560248301529190911690635084d9d290604401600060405180830381600087803b158015614a4b57600080fd5b505af1158015614a5f573d6000803e3d6000fd5b5050505050505050505050505050565b60008054604051636ae3b70d60e11b81523360048201526001600160a01b039091169063d5c76e1a90602401602060405180830381600087803b158015614ab557600080fd5b505af1158015610570573d6000803e3d6000fd5b6001546040805163682ebf0560e01b815290516000926001600160a01b03169163682ebf05916004808301926020929190829003018186803b158015614b0e57600080fd5b505afa158015614b22573d6000803e3d6000fd5b505050506040513d601f19601f82011682018060405250810190614b469190615289565b6001600160a01b031663ad15aad2846040518263ffffffff1660e01b8152600401614b7391815260200190565b6104406040518083038186803b158015614b8c57600080fd5b505afa158015614ba0573d6000803e3d6000fd5b505050506040513d601f19601f82011682018060405250810190614bc49190615a61565b80515190915061ffff1660031415614ca257606081015160405163143b4f6f60e11b8152600481018490526001600160a01b038216906328769ede9060240160206040518083038186803b158015614c1b57600080fd5b505afa158015614c2f573d6000803e3d6000fd5b505050506040513d601f19601f82011682018060405250810190614c539190615449565b15614ca05760405162461bcd60e51b815260206004820152601960248201527f424f474b2e41433a2069732072656c617465642070617274790000000000000060448201526064016106df565b505b505050565b6000546001600160a01b031615614cf85760405162461bcd60e51b815260206004820152601560248201527430b63932b0b23c9039b2ba103932b3a1b2b73a32b960591b60448201526064016106df565b600080546001600160a01b0319166001600160a01b0392909216919091179055565b6001546001600160a01b031615614d735760405162461bcd60e51b815260206004820152601960248201527f616c7265616479207365742067656e6572616c4b65657065720000000000000060448201526064016106df565b600180546001600160a01b0319166001600160a01b0392909216919091179055565b634e487b7160e01b600052604160045260246000fd5b60405161020081016001600160401b0381118282101715614dce57614dce614d95565b60405290565b60405160a081016001600160401b0381118282101715614dce57614dce614d95565b60405160e081016001600160401b0381118282101715614dce57614dce614d95565b60405161024081016001600160401b0381118282101715614dce57614dce614d95565b604051608081016001600160401b0381118282101715614dce57614dce614d95565b60405161012081016001600160401b0381118282101715614dce57614dce614d95565b604051601f8201601f191681016001600160401b0381118282101715614ea857614ea8614d95565b604052919050565b60006001600160401b03821115614ec957614ec9614d95565b5060051b60200190565b6001600160a01b0381168114614ee857600080fd5b50565b600082601f830112614efc57600080fd5b81356020614f11614f0c83614eb0565b614e80565b82815260059290921b84018101918181019086841115614f3057600080fd5b8286015b84811015614f4b5780358352918301918301614f34565b509695505050505050565b6000601f8381840112614f6857600080fd5b82356020614f78614f0c83614eb0565b82815260059290921b85018101918181019087841115614f9757600080fd5b8287015b8481101561502d5780356001600160401b0380821115614fbb5760008081fd5b818a0191508a603f830112614fd05760008081fd5b85820135604082821115614fe657614fe6614d95565b614ff7828b01601f19168901614e80565b92508183528c8183860101111561500e5760008081fd5b8181850189850137506000908201870152845250918301918301614f9b565b50979650505050505050565b600080600080600080600060e0888a03121561505457600080fd5b873596506020808901356001600160401b038082111561507357600080fd5b818b0191508b601f83011261508757600080fd5b8135615095614f0c82614eb0565b81815260059190911b8301840190848101908e8311156150b457600080fd5b938501935b828510156150db5784356150cc81614ed3565b825293850193908501906150b9565b9a50505060408b01359250808311156150f357600080fd5b6150ff8c848d01614eeb565b975060608b013592508083111561511557600080fd5b50506151238a828b01614f56565b979a969950949760808101359660a0820135965060c090910135945092505050565b6000806040838503121561515857600080fd5b50508035926020909101359150565b60006020828403121561517957600080fd5b81356124b981614ed3565b60006020828403121561519657600080fd5b5035919050565b6000806000606084860312156151b257600080fd5b505081359360208301359350604090920135919050565b600080600080608085870312156151df57600080fd5b5050823594602084013594506040840135936060013592509050565b6000806000806080858703121561521157600080fd5b843561521c81614ed3565b966020860135965060408601359560600135945092505050565b6000806000806080858703121561524c57600080fd5b84359350602085013561525e81614ed3565b9250604085013561526e81614ed3565b9150606085013561527e81614ed3565b939692955090935050565b60006020828403121561529b57600080fd5b81516124b981614ed3565b600081518084526020808501945080840160005b838110156152d6578151875295820195908201906001016152ba565b509495945050505050565b600081518084526020808501808196508360051b810191508286016000805b86811015615361578385038a5282518051808752835b81811015615331578281018901518882018a01528801615316565b81811115615341578489838a0101525b509a87019a601f01601f1916959095018601945091850191600101615300565b509298975050505050505050565b600060e08201898352602060e081850152818a5180845261010086019150828c01935060005b818110156153ba5784516001600160a01b031683529383019391830191600101615395565b505084810360408601526153ce818b6152a6565b9250505082810360608401526153e481886152e1565b6080840196909652505060a081019290925260c090910152949350505050565b805164ffffffffff8116811461541957600080fd5b919050565b60006020828403121561543057600080fd5b6124b982615404565b8051801515811461541957600080fd5b60006020828403121561545b57600080fd5b6124b982615439565b6020808252601690820152752127a3a59736b31726a29d102727aa1026b2b6b132b960511b604082015260600190565b6000602082840312156154a657600080fd5b5051919050565b805161ffff8116811461541957600080fd5b805160ff8116811461541957600080fd5b805163ffffffff8116811461541957600080fd5b600061020082840312156154f757600080fd5b6154ff614dab565b615508836154ad565b8152615516602084016154bf565b6020820152615527604084016154bf565b604082015261553860608401615439565b6060820152615549608084016154ad565b608082015261555a60a084016154ad565b60a082015261556b60c084016154ad565b60c082015261557c60e084016154d0565b60e082015261010061558f8185016154ad565b908201526101206155a18482016154ad565b908201526101406155b38482016154ad565b908201526101606155c58482016154ad565b908201526101806155d78482016154ad565b908201526101a06155e98482016154ad565b908201526101c06155fb8482016154d0565b908201526101e061560d848201615439565b908201529392505050565b80516001600160401b038116811461541957600080fd5b6000602080838503121561564257600080fd5b82516001600160401b038082111561565957600080fd5b9084019060a0828703121561566d57600080fd5b615675614dd4565b61567e83615404565b815261568b848401615618565b8482015261569b60408401615618565b60408201526156ac606084016154d0565b60608201526080830151828111156156c357600080fd5b80840193505086601f8401126156d857600080fd5b825191506156e8614f0c83614eb0565b82815260059290921b8301840191848101908884111561570757600080fd5b938501935b8385101561572c5761571d85615404565b8252938501939085019061570c565b6080830152509695505050505050565b60006020828403121561574e57600080fd5b6124b982615618565b634e487b7160e01b600052601160045260246000fd5b60006001600160401b038084168061579557634e487b7160e01b600052601260045260246000fd5b92169190910492915050565b60208082526026908201527f41432e6f6e6c794469726563744b65657065723a206e6f74206469726563742060408201526535b2b2b832b960d11b606082015260800190565b805165ffffffffffff8116811461541957600080fd5b600060e0828403121561580f57600080fd5b615817614df6565b905061582282615404565b8152615830602083016157e7565b6020820152615841604083016157e7565b6040820152615852606083016157e7565b6060820152615863608083016157e7565b608082015261587460a083016154ad565b60a082015261588560c083016154bf565b60c082015292915050565b600082601f8301126158a157600080fd5b604051604081018181106001600160401b03821117156158c3576158c3614d95565b80604052508060408401858111156158da57600080fd5b845b818110156158fb576158ed81615404565b8352602092830192016158dc565b509195945050505050565b6000610260828403121561591957600080fd5b615921614e18565b905061592c826154ad565b815261593a602083016154bf565b602082015261594b604083016154bf565b604082015261595c606083016154ad565b606082015261596d608083016154ad565b608082015261597e60a083016154ad565b60a082015261598f60c08301615439565b60c08201526159a060e08301615439565b60e08201526101006159b3818401615439565b908201526101206159c5838201615439565b908201526101406159d78382016154bf565b908201526101606159e98382016154bf565b908201526101806159fb8382016154bf565b908201526101a0615a0d8382016154bf565b908201526101c0615a1f8382016154bf565b908201526101e0615a318382016154bf565b90820152610200615a4484848301615890565b90820152615a5561024083016154ad565b61022082015292915050565b6000818303610440811215615a7557600080fd5b615a7d614e3b565b60e0821215615a8b57600080fd5b615a93614df6565b9150615a9e846154ad565b8252615aac60208501615618565b6020830152615abd604085016154ad565b6040830152615ace60608501615404565b6060830152615adf60808501615404565b6080830152615af060a085016157e7565b60a0830152615b0160c085016154d0565b60c0830152818152615b168560e086016157fd565b6020820152615b29856101c08601615906565b604082015261042093909301516060840152509092915050565b60006101208284031215615b5657600080fd5b615b5e614e5d565b615b67836154ad565b8152615b75602084016154ad565b6020820152615b8660408401615404565b6040820152615b9760608401615404565b6060820152615ba8608084016157e7565b6080820152615bb960a084016157e7565b60a0820152615bca60c084016154ad565b60c0820152615bdb60e084016154ad565b60e082015261010061560d8185016154ad565b60006102608284031215615c0157600080fd5b6124b98383615906565b8060005b6002811015614ca057815164ffffffffff16845260209384019390910190600101615c0f565b6001600160a01b0383168152815161ffff1660208201526102808101602083015160ff8116604084015250604083015160ff8116606084015250606083015161ffff8116608084015250608083015161ffff811660a08401525060a083015161ffff811660c08401525060c083015180151560e08401525060e0830151610100615cc28185018315159052565b8401519050610120615cd78482018315159052565b8401519050610140615cec8482018315159052565b8401519050610160615d028482018360ff169052565b8401519050610180615d188482018360ff169052565b84015190506101a0615d2e8482018360ff169052565b84015190506101c0615d448482018360ff169052565b84015190506101e0615d5a8482018360ff169052565b8401519050610200615d708482018360ff169052565b8401519050610220615d8484820183615c0b565b84015161ffff81166102608501529050509392505050565b600082601f830112615dad57600080fd5b81516020615dbd614f0c83614eb0565b82815260059290921b84018101918181019086841115615ddc57600080fd5b8286015b84811015614f4b5780518352918301918301615de0565b600060208284031215615e0957600080fd5b81516001600160401b0380821115615e2057600080fd5b9083019060608286031215615e3457600080fd5b604051606081018181108382111715615e4f57615e4f614d95565b604052615e5b836154d0565b8152615e6960208401615618565b6020820152604083015182811115615e8057600080fd5b615e8c87828601615d9c565b60408301525095945050505050565b600060208284031215615ead57600080fd5b6124b9826154d0565b600060808284031215615ec857600080fd5b604051608081018181106001600160401b0382111715615eea57615eea614d95565b604052615ef6836157e7565b8152615f0460208401615618565b6020820152615f1560408401615618565b6040820152615f2660608401615618565b60608201529392505050565b60006001600160401b0383811690831681811015615f5257615f52615757565b039392505050565b600060208284031215615f6c57600080fd5b81516001600160401b03811115615f8257600080fd5b615f8e84828501615d9c565b949350505050565b600082821015615fa857615fa8615757565b500390565b634e487b7160e01b600052603260045260246000fd5b60006001600160401b0380831681811415615fe057615fe0615757565b6001019392505050565b60006001600160401b0380831681851680830382111561600c5761600c615757565b01949350505050565b60006001600160401b0382168061602e5761602e615757565b6000190192915050565b60008161604757616047615757565b506000190190565b60006020828403121561606157600080fd5b6124b9826154bf56fea2646970667358221220695ce361542842ebc506472d656a7f39f3c93ab42b86e6d15b19d3339bd64ae464736f6c63430008080033",
    "sourcePath": "/Users/kaptain/github.com/hardhat/comboox/contracts/keepers/BOGKeeper.sol",
    "compiler": {
        "name": "solc",
        "version": "0.8.8+commit.dddeac2f"
    },
    "functionHashes": {
        "abandonRole(bytes32)": "3da9a600",
        "castVoteOfGM(uint256,uint256,bytes32,uint256)": "a8459ac0",
        "createBoardSeal(address)": "180dc60e",
        "createCorpSeal(uint256)": "331dbb22",
        "entrustDelegateOfMember(uint256,uint256,uint256)": "3b9f1b81",
        "execActionOfGM(uint256,address[],uint256[],bytes[],bytes32,uint256,uint256)": "020c814d",
        "finalized()": "b3f05b97",
        "getBookeeper()": "ed211023",
        "getGeneralCounsel()": "103f6edd",
        "getOwner()": "893d20e8",
        "grantRole(bytes32,uint256)": "1b6ea9f9",
        "hasRole(bytes32,uint256)": "7e063c5a",
        "init(uint256,address,address,address)": "dc890da9",
        "lockContents()": "f045a769",
        "nominateDirector(uint256,uint256,uint256)": "3c44bcb6",
        "proposeActionOfGM(uint256,address[],uint256[],bytes[],bytes32,uint256,uint256)": "c24cb859",
        "proposeDocOfGM(address,uint256,uint256,uint256)": "d0e27e10",
        "proposeMotionOfGM(uint256,uint256)": "1153cd2e",
        "proposeToRemoveDirector(uint256,uint256)": "a6098807",
        "removeDirectKeeper(address)": "5d7ad88f",
        "removeDirector(uint256,uint256,uint256,uint256)": "9d7d867b",
        "renounceRole(bytes32)": "8bb9c5bf",
        "revokeRole(bytes32,uint256)": "19d61ad9",
        "setDirectKeeper(address)": "6be8496f",
        "setGeneralCounsel(uint256)": "4a14beb1",
        "setOwner(uint256)": "8041494e",
        "setRoleAdmin(bytes32,uint256)": "5171ebd4",
        "takeSeat(uint256,uint256,uint256)": "7451ce03",
        "voteCountingOfGM(uint256,uint256)": "f1e9e7f7"
    },
    "gasEstimates": {
        "creation": {
            "codeDepositCost": "4947200",
            "executionCost": "5856",
            "totalCost": "4953056"
        },
        "external": {
            "abandonRole(bytes32)": "infinite",
            "castVoteOfGM(uint256,uint256,bytes32,uint256)": "infinite",
            "createBoardSeal(address)": "infinite",
            "createCorpSeal(uint256)": "infinite",
            "entrustDelegateOfMember(uint256,uint256,uint256)": "infinite",
            "execActionOfGM(uint256,address[],uint256[],bytes[],bytes32,uint256,uint256)": "infinite",
            "finalized()": "2394",
            "getBookeeper()": "infinite",
            "getGeneralCounsel()": "infinite",
            "getOwner()": "infinite",
            "grantRole(bytes32,uint256)": "infinite",
            "hasRole(bytes32,uint256)": "infinite",
            "init(uint256,address,address,address)": "infinite",
            "lockContents()": "infinite",
            "nominateDirector(uint256,uint256,uint256)": "infinite",
            "proposeActionOfGM(uint256,address[],uint256[],bytes[],bytes32,uint256,uint256)": "infinite",
            "proposeDocOfGM(address,uint256,uint256,uint256)": "infinite",
            "proposeMotionOfGM(uint256,uint256)": "infinite",
            "proposeToRemoveDirector(uint256,uint256)": "infinite",
            "removeDirectKeeper(address)": "infinite",
            "removeDirector(uint256,uint256,uint256,uint256)": "infinite",
            "renounceRole(bytes32)": "infinite",
            "revokeRole(bytes32,uint256)": "infinite",
            "setDirectKeeper(address)": "infinite",
            "setGeneralCounsel(uint256)": "infinite",
            "setOwner(uint256)": "infinite",
            "setRoleAdmin(bytes32,uint256)": "infinite",
            "takeSeat(uint256,uint256,uint256)": "infinite",
            "voteCountingOfGM(uint256,uint256)": "infinite"
        },
        "internal": {
            "_avoidanceCheck(uint256,uint256)": "infinite"
        }
    }
}