{
    "contractName": "BOGKeeper",
    "abi": [
        {
            "anonymous": false,
            "inputs": [
                {
                    "indexed": false,
                    "internalType": "uint256",
                    "name": "owner",
                    "type": "uint256"
                },
                {
                    "indexed": false,
                    "internalType": "address",
                    "name": "directKeeper",
                    "type": "address"
                },
                {
                    "indexed": false,
                    "internalType": "address",
                    "name": "regCenter",
                    "type": "address"
                },
                {
                    "indexed": false,
                    "internalType": "address",
                    "name": "generalKeeper",
                    "type": "address"
                }
            ],
            "name": "Init",
            "type": "event"
        },
        {
            "anonymous": false,
            "inputs": [],
            "name": "LockContents",
            "type": "event"
        },
        {
            "anonymous": false,
            "inputs": [
                {
                    "indexed": false,
                    "internalType": "address",
                    "name": "keeper",
                    "type": "address"
                }
            ],
            "name": "SetDirectKeeper",
            "type": "event"
        },
        {
            "anonymous": false,
            "inputs": [
                {
                    "indexed": false,
                    "internalType": "uint256",
                    "name": "acct",
                    "type": "uint256"
                }
            ],
            "name": "SetGeneralCounsel",
            "type": "event"
        },
        {
            "anonymous": false,
            "inputs": [
                {
                    "indexed": false,
                    "internalType": "address",
                    "name": "gk",
                    "type": "address"
                }
            ],
            "name": "SetGeneralKeeper",
            "type": "event"
        },
        {
            "anonymous": false,
            "inputs": [
                {
                    "indexed": false,
                    "internalType": "uint256",
                    "name": "acct",
                    "type": "uint256"
                }
            ],
            "name": "SetOwner",
            "type": "event"
        },
        {
            "anonymous": false,
            "inputs": [
                {
                    "indexed": false,
                    "internalType": "address",
                    "name": "rc",
                    "type": "address"
                }
            ],
            "name": "SetRegCenter",
            "type": "event"
        },
        {
            "inputs": [
                {
                    "internalType": "bytes32",
                    "name": "role",
                    "type": "bytes32"
                }
            ],
            "name": "abandonRole",
            "outputs": [],
            "stateMutability": "nonpayable",
            "type": "function"
        },
        {
            "inputs": [
                {
                    "internalType": "uint256",
                    "name": "motionId",
                    "type": "uint256"
                },
                {
                    "internalType": "uint256",
                    "name": "caller",
                    "type": "uint256"
                },
                {
                    "internalType": "uint8",
                    "name": "attitude",
                    "type": "uint8"
                },
                {
                    "internalType": "bytes32",
                    "name": "sigHash",
                    "type": "bytes32"
                }
            ],
            "name": "castVote",
            "outputs": [],
            "stateMutability": "nonpayable",
            "type": "function"
        },
        {
            "inputs": [],
            "name": "createBoardSeal",
            "outputs": [],
            "stateMutability": "nonpayable",
            "type": "function"
        },
        {
            "inputs": [],
            "name": "createCorpSeal",
            "outputs": [],
            "stateMutability": "nonpayable",
            "type": "function"
        },
        {
            "inputs": [
                {
                    "internalType": "uint256",
                    "name": "actionId",
                    "type": "uint256"
                },
                {
                    "internalType": "uint256",
                    "name": "caller",
                    "type": "uint256"
                },
                {
                    "internalType": "uint256",
                    "name": "delegate",
                    "type": "uint256"
                }
            ],
            "name": "entrustDelegate",
            "outputs": [],
            "stateMutability": "nonpayable",
            "type": "function"
        },
        {
            "inputs": [
                {
                    "internalType": "uint8",
                    "name": "actionType",
                    "type": "uint8"
                },
                {
                    "internalType": "address[]",
                    "name": "targets",
                    "type": "address[]"
                },
                {
                    "internalType": "uint256[]",
                    "name": "values",
                    "type": "uint256[]"
                },
                {
                    "internalType": "bytes[]",
                    "name": "params",
                    "type": "bytes[]"
                },
                {
                    "internalType": "bytes32",
                    "name": "desHash",
                    "type": "bytes32"
                },
                {
                    "internalType": "uint256",
                    "name": "caller",
                    "type": "uint256"
                }
            ],
            "name": "execAction",
            "outputs": [
                {
                    "internalType": "uint256",
                    "name": "",
                    "type": "uint256"
                }
            ],
            "stateMutability": "nonpayable",
            "type": "function"
        },
        {
            "inputs": [],
            "name": "finalized",
            "outputs": [
                {
                    "internalType": "bool",
                    "name": "",
                    "type": "bool"
                }
            ],
            "stateMutability": "view",
            "type": "function"
        },
        {
            "inputs": [],
            "name": "getBookeeper",
            "outputs": [
                {
                    "internalType": "address",
                    "name": "",
                    "type": "address"
                }
            ],
            "stateMutability": "view",
            "type": "function"
        },
        {
            "inputs": [],
            "name": "getGeneralCounsel",
            "outputs": [
                {
                    "internalType": "uint40",
                    "name": "",
                    "type": "uint40"
                }
            ],
            "stateMutability": "view",
            "type": "function"
        },
        {
            "inputs": [],
            "name": "getOwner",
            "outputs": [
                {
                    "internalType": "uint40",
                    "name": "",
                    "type": "uint40"
                }
            ],
            "stateMutability": "view",
            "type": "function"
        },
        {
            "inputs": [
                {
                    "internalType": "bytes32",
                    "name": "role",
                    "type": "bytes32"
                },
                {
                    "internalType": "uint256",
                    "name": "acct",
                    "type": "uint256"
                }
            ],
            "name": "grantRole",
            "outputs": [],
            "stateMutability": "nonpayable",
            "type": "function"
        },
        {
            "inputs": [
                {
                    "internalType": "bytes32",
                    "name": "role",
                    "type": "bytes32"
                },
                {
                    "internalType": "uint256",
                    "name": "acct",
                    "type": "uint256"
                }
            ],
            "name": "hasRole",
            "outputs": [
                {
                    "internalType": "bool",
                    "name": "",
                    "type": "bool"
                }
            ],
            "stateMutability": "view",
            "type": "function"
        },
        {
            "inputs": [
                {
                    "internalType": "uint256",
                    "name": "owner",
                    "type": "uint256"
                },
                {
                    "internalType": "address",
                    "name": "directKeeper",
                    "type": "address"
                },
                {
                    "internalType": "address",
                    "name": "regCenter",
                    "type": "address"
                },
                {
                    "internalType": "address",
                    "name": "generalKeeper",
                    "type": "address"
                }
            ],
            "name": "init",
            "outputs": [],
            "stateMutability": "nonpayable",
            "type": "function"
        },
        {
            "inputs": [],
            "name": "lockContents",
            "outputs": [],
            "stateMutability": "nonpayable",
            "type": "function"
        },
        {
            "inputs": [
                {
                    "internalType": "uint256",
                    "name": "seqOfBSR",
                    "type": "uint256"
                },
                {
                    "internalType": "uint256",
                    "name": "seqOfTitle",
                    "type": "uint256"
                },
                {
                    "internalType": "uint256",
                    "name": "nominator",
                    "type": "uint256"
                },
                {
                    "internalType": "uint256",
                    "name": "candidate",
                    "type": "uint256"
                }
            ],
            "name": "nominateOfficer",
            "outputs": [],
            "stateMutability": "nonpayable",
            "type": "function"
        },
        {
            "inputs": [
                {
                    "internalType": "uint8",
                    "name": "actionType",
                    "type": "uint8"
                },
                {
                    "internalType": "address[]",
                    "name": "targets",
                    "type": "address[]"
                },
                {
                    "internalType": "uint256[]",
                    "name": "values",
                    "type": "uint256[]"
                },
                {
                    "internalType": "bytes[]",
                    "name": "params",
                    "type": "bytes[]"
                },
                {
                    "internalType": "bytes32",
                    "name": "desHash",
                    "type": "bytes32"
                },
                {
                    "internalType": "uint256",
                    "name": "submitter",
                    "type": "uint256"
                },
                {
                    "internalType": "uint256",
                    "name": "executor",
                    "type": "uint256"
                }
            ],
            "name": "proposeAction",
            "outputs": [],
            "stateMutability": "nonpayable",
            "type": "function"
        },
        {
            "inputs": [
                {
                    "internalType": "address",
                    "name": "doc",
                    "type": "address"
                },
                {
                    "internalType": "uint256",
                    "name": "seqOfVR",
                    "type": "uint256"
                },
                {
                    "internalType": "uint256",
                    "name": "caller",
                    "type": "uint256"
                }
            ],
            "name": "proposeDoc",
            "outputs": [],
            "stateMutability": "nonpayable",
            "type": "function"
        },
        {
            "inputs": [
                {
                    "internalType": "bytes32",
                    "name": "role",
                    "type": "bytes32"
                }
            ],
            "name": "renounceRole",
            "outputs": [],
            "stateMutability": "nonpayable",
            "type": "function"
        },
        {
            "inputs": [
                {
                    "internalType": "uint256",
                    "name": "motionId",
                    "type": "uint256"
                },
                {
                    "internalType": "uint256",
                    "name": "seqOfDeal",
                    "type": "uint256"
                },
                {
                    "internalType": "uint256",
                    "name": "againstVoter",
                    "type": "uint256"
                },
                {
                    "internalType": "uint256",
                    "name": "caller",
                    "type": "uint256"
                }
            ],
            "name": "requestToBuy",
            "outputs": [],
            "stateMutability": "nonpayable",
            "type": "function"
        },
        {
            "inputs": [
                {
                    "internalType": "bytes32",
                    "name": "role",
                    "type": "bytes32"
                },
                {
                    "internalType": "uint256",
                    "name": "acct",
                    "type": "uint256"
                }
            ],
            "name": "revokeRole",
            "outputs": [],
            "stateMutability": "nonpayable",
            "type": "function"
        },
        {
            "inputs": [
                {
                    "internalType": "address",
                    "name": "keeper",
                    "type": "address"
                }
            ],
            "name": "setDirectKeeper",
            "outputs": [],
            "stateMutability": "nonpayable",
            "type": "function"
        },
        {
            "inputs": [
                {
                    "internalType": "uint256",
                    "name": "acct",
                    "type": "uint256"
                }
            ],
            "name": "setGeneralCounsel",
            "outputs": [],
            "stateMutability": "nonpayable",
            "type": "function"
        },
        {
            "inputs": [
                {
                    "internalType": "uint256",
                    "name": "acct",
                    "type": "uint256"
                }
            ],
            "name": "setOwner",
            "outputs": [],
            "stateMutability": "nonpayable",
            "type": "function"
        },
        {
            "inputs": [
                {
                    "internalType": "bytes32",
                    "name": "role",
                    "type": "bytes32"
                },
                {
                    "internalType": "uint256",
                    "name": "acct",
                    "type": "uint256"
                }
            ],
            "name": "setRoleAdmin",
            "outputs": [],
            "stateMutability": "nonpayable",
            "type": "function"
        },
        {
            "inputs": [
                {
                    "internalType": "uint256",
                    "name": "motionId",
                    "type": "uint256"
                },
                {
                    "internalType": "uint256",
                    "name": "caller",
                    "type": "uint256"
                }
            ],
            "name": "voteCounting",
            "outputs": [],
            "stateMutability": "nonpayable",
            "type": "function"
        }
    ],
    "bytecode": "608060405234801561001057600080fd5b506141a4806100206000396000f3fe608060405234801561001057600080fd5b50600436106101735760003560e01c80636be8496f116100de578063b3f05b9711610097578063ed21102311610071578063ed21102314610317578063f045a76914610337578063f894759e1461033f578063fe1bdff21461035257600080fd5b8063b3f05b97146102e8578063d1a0ce56146102fc578063dc890da91461030457600080fd5b80636be8496f146102635780637e063c5a146102765780638041494e14610299578063893d20e8146102ac5780638bb9c5bf146102b4578063a19012b9146102c757600080fd5b8063456d557411610130578063456d5574146101f15780634a14beb1146102045780634f6413ac146102175780635171ebd41461022a578063527fa4521461023d5780636600f97a1461025057600080fd5b8063103f6edd1461017857806314d3cb851461019b57806319d61ad9146101a55780631b6ea9f9146101b85780632de32075146101cb5780633da9a600146101de575b600080fd5b610180610365565b60405164ffffffffff90911681526020015b60405180910390f35b6101a36103f1565b005b6101a36101b3366004612e31565b610518565b6101a36101c6366004612e31565b6105ac565b6101a36101d9366004612e65565b6105d1565b6101a36101ec366004612ea4565b61079b565b6101a36101ff366004612ebd565b6108ad565b6101a3610212366004612ea4565b610f5a565b6101a3610225366004612ebd565b61114a565b6101a3610238366004612e31565b611625565b6101a361024b3660046131d1565b61164a565b6101a361025e366004613286565b6117d0565b6101a36102713660046132bb565b611cc8565b610289610284366004612e31565b611d7a565b6040519015158152602001610192565b6101a36102a7366004612ea4565b611e15565b610180611ffa565b6101a36102c2366004612ea4565b612035565b6102da6102d53660046132d8565b61208e565b604051908152602001610192565b60028054600160f01b900460ff1614610289565b6101a36122bd565b6101a3610312366004613384565b6123a4565b61031f612487565b6040516001600160a01b039091168152602001610192565b6101a361250d565b6101a361034d366004612e31565b61272b565b6101a36103603660046133d7565b6128f9565b60405163e8c0cc1d60e01b81526002600482015260009073__$364aad554dc80380f414546becdd2c1584$__9063e8c0cc1d906024015b60206040518083038186803b1580156103b457600080fd5b505af41580156103c8573d6000803e3d6000fd5b505050506040513d601f19601f820116820180604052508101906103ec919061341d565b905090565b604051633b11adbf60e21b81526002600482015233602482015273__$364aad554dc80380f414546becdd2c1584$__9063ec46b6fc9060440160206040518083038186803b15801561044257600080fd5b505af4158015610456573d6000803e3d6000fd5b505050506040513d601f19601f8201168201806040525081019061047a9190613448565b61049f5760405162461bcd60e51b815260040161049690613463565b60405180910390fd5b6104a7612b27565b6001600160a01b031663180dc60e6104bd612b8b565b6040516001600160e01b031960e084901b1681526001600160a01b039091166004820152602401600060405180830381600087803b1580156104fe57600080fd5b505af1158015610512573d6000803e3d6000fd5b50505050565b73__$364aad554dc80380f414546becdd2c1584$__6382daafaa60028461053d612ba9565b6040516001600160e01b031960e086901b1681526004810193909352602483019190915264ffffffffff166044820152606481018490526084015b60006040518083038186803b15801561059057600080fd5b505af41580156105a4573d6000803e3d6000fd5b505050505050565b73__$364aad554dc80380f414546becdd2c1584$__636320d75e60028461053d612ba9565b604051633b11adbf60e21b81526002600482015233602482015273__$364aad554dc80380f414546becdd2c1584$__9063ec46b6fc9060440160206040518083038186803b15801561062257600080fd5b505af4158015610636573d6000803e3d6000fd5b505050506040513d601f19601f8201168201806040525081019061065a9190613448565b6106765760405162461bcd60e51b815260040161049690613463565b8261067f612c03565b6001600160a01b031663d50c7377826040518263ffffffff1660e01b81526004016106ac91815260200190565b60206040518083038186803b1580156106c457600080fd5b505afa1580156106d8573d6000803e3d6000fd5b505050506040513d601f19601f820116820180604052508101906106fc9190613448565b6107185760405162461bcd60e51b8152600401610496906134a9565b610720612b27565b604051632de3207560e01b8152600481018790526024810186905260ff85166044820152606481018490526001600160a01b039190911690632de32075906084015b600060405180830381600087803b15801561077c57600080fd5b505af1158015610790573d6000803e3d6000fd5b505050505050505050565b604051633b11adbf60e21b81526002600482015233602482015273__$364aad554dc80380f414546becdd2c1584$__9063ec46b6fc9060440160206040518083038186803b1580156107ec57600080fd5b505af4158015610800573d6000803e3d6000fd5b505050506040513d601f19601f820116820180604052508101906108249190613448565b6108405760405162461bcd60e51b815260040161049690613463565b60405163cc99e11b60e01b8152600260048201526024810182905273__$364aad554dc80380f414546becdd2c1584$__9063cc99e11b9060440160006040518083038186803b15801561089257600080fd5b505af41580156108a6573d6000803e3d6000fd5b5050505050565b604051633b11adbf60e21b81526002600482015233602482015273__$364aad554dc80380f414546becdd2c1584$__9063ec46b6fc9060440160206040518083038186803b1580156108fe57600080fd5b505af4158015610912573d6000803e3d6000fd5b505050506040513d601f19601f820116820180604052508101906109369190613448565b6109525760405162461bcd60e51b815260040161049690613463565b6040516320bf56eb60e21b8152600481018490526000906001600160a01b038616906382fd5bac906024016101c06040518083038186803b15801561099657600080fd5b505afa1580156109aa573d6000803e3d6000fd5b505050506040513d601f19601f820116820180604052508101906109ce91906135b6565b80516060015190915064ffffffffff168214610a2c5760405162461bcd60e51b815260206004820181905260248201527f424f474b65657065722e5254423a2063616c6c6572204e4f542053656c6c65726044820152606401610496565b6000610a36612b27565b6001600160a01b03166364525a0d876040518263ffffffff1660e01b8152600401610a6391815260200190565b60c06040518083038186803b158015610a7b57600080fd5b505afa158015610a8f573d6000803e3d6000fd5b505050506040513d601f19601f82011682018060405250810190610ab391906136aa565b805190915060ff16600514610b0a5760405162461bcd60e51b815260206004820152601d60248201527f424f474b65657065722e5254423a204e4f206e65656420746f206275790000006044820152606401610496565b6000610b14612b27565b6001600160a01b031663aaf7bfc6886040518263ffffffff1660e01b8152600401610b4191815260200190565b6102206040518083038186803b158015610b5a57600080fd5b505afa158015610b6e573d6000803e3d6000fd5b505050506040513d601f19601f82011682018060405250810190610b9291906137a1565b9050806101a0015160ff1681610180015160ff16610bb091906138da565b610bbd9062015180613904565b8260a00151610bcc91906138da565b65ffffffffffff164210610c225760405162461bcd60e51b815260206004820152601a60248201527f424f474b2e5254423a206d6973736564204558454320646174650000000000006044820152606401610496565b60006201518042856000015160e00151610c3c9190613932565b610c489061a8c06138da565b610c529190613959565b604080516101a081018252600080825260016020808401829052895160809081015163ffffffff16958501959095524265ffffffffffff1660608501529383015260ff841660a083015287519092015161ffff1660c082015260e0810182905261010081018290526101208101829052610140810182905261016081018290526101808101829052919250610ce5612c1e565b90506000816001600160a01b031663d8f74a3a848a8c8b60200151604001518c60200151606001516040518663ffffffff1660e01b8152600401610d2d95949392919061398c565b602060405180830381600087803b158015610d4757600080fd5b505af1158015610d5b573d6000803e3d6000fd5b505050506040513d601f19601f82011682018060405250810190610d7f9190613abe565b63ffffffff1690506000610d91612c39565b885160409081015190516319f6b4bf60e31b815263ffffffff90911660048201526001600160a01b03919091169063cfb5a5f8906024016101606040518083038186803b158015610de157600080fd5b505afa158015610df5573d6000803e3d6000fd5b505050506040513d601f19601f82011682018060405250810190610e199190613b6c565b6040516332aaffbd60e11b8152600481018490529091506001600160a01b03841690636555ff7a90602401600060405180830381600087803b158015610e5e57600080fd5b505af1158015610e72573d6000803e3d6000fd5b5050505060006040518060c00160405280600063ffffffff1681526020018a600001516040015163ffffffff1681526020018c64ffffffffff1681526020018a60200151604001516001600160401b031681526020018a60200151606001516001600160401b03168152602001600060ff168152509050836001600160a01b031663c2dd48438484846040518463ffffffff1660e01b8152600401610f1993929190613c3a565b600060405180830381600087803b158015610f3357600080fd5b505af1158015610f47573d6000803e3d6000fd5b5050505050505050505050505050505050565b604051633b11adbf60e21b81526002600482015233602482015273__$364aad554dc80380f414546becdd2c1584$__9063ec46b6fc9060440160206040518083038186803b158015610fab57600080fd5b505af4158015610fbf573d6000803e3d6000fd5b505050506040513d601f19601f82011682018060405250810190610fe39190613448565b80611088575073__$364aad554dc80380f414546becdd2c1584$__63fe271086600261100d612ba9565b6040516001600160e01b031960e085901b168152600481019290925264ffffffffff16602482015260440160206040518083038186803b15801561105057600080fd5b505af4158015611064573d6000803e3d6000fd5b505050506040513d601f19601f820116820180604052508101906110889190613448565b6110a45760405162461bcd60e51b815260040161049690613d61565b604051632725ebef60e21b8152600260048201526024810182905273__$364aad554dc80380f414546becdd2c1584$__90639c97afbc9060440160006040518083038186803b1580156110f657600080fd5b505af415801561110a573d6000803e3d6000fd5b505050507ff2735f34b69be1e6342dea95f9162f84d0db925fab655ca9f1f312ac8cbfc99d8160405161113f91815260200190565b60405180910390a150565b604051633b11adbf60e21b81526002600482015233602482015273__$364aad554dc80380f414546becdd2c1584$__9063ec46b6fc9060440160206040518083038186803b15801561119b57600080fd5b505af41580156111af573d6000803e3d6000fd5b505050506040513d601f19601f820116820180604052508101906111d39190613448565b6111ef5760405162461bcd60e51b815260040161049690613463565b816111f8612c03565b6001600160a01b031663d50c7377826040518263ffffffff1660e01b815260040161122591815260200190565b60206040518083038186803b15801561123d57600080fd5b505afa158015611251573d6000803e3d6000fd5b505050506040513d601f19601f820116820180604052508101906112759190613448565b6112915760405162461bcd60e51b8152600401610496906134a9565b600061129b612c54565b6001600160a01b03166348462037876040518263ffffffff1660e01b81526004016112c891815260200190565b60206040518083038186803b1580156112e057600080fd5b505afa1580156112f4573d6000803e3d6000fd5b505050506040513d601f19601f820116820180604052508101906113189190613db7565b6040516366e5ec3360e01b8152600481019190915273__$9d2c69e94fee47b9774dc8db4aa5c0bbec$__906366e5ec33906024016102606040518083038186803b15801561136557600080fd5b505af4158015611379573d6000803e3d6000fd5b505050506040513d601f19601f8201168201806040525081019061139d9190613e27565b905083816060015164ffffffffff16146113f95760405162461bcd60e51b815260206004820152601f60248201527f424f474b2e4e4f3a2063616c6c6572206e6f74207269676874686f6c646572006044820152606401610496565b806080015161ffff1661140a612b8b565b6001600160a01b0316638b741818866040518263ffffffff1660e01b815260040161143791815260200190565b60206040518083038186803b15801561144f57600080fd5b505afa158015611463573d6000803e3d6000fd5b505050506040513d601f19601f820116820180604052508101906114879190613db7565b116114d45760405162461bcd60e51b815260206004820152601b60248201527f424f474b2e4e4f3a20626f61726420686173206e6f20736561747300000000006044820152606401610496565b60008160c0015186600781106114ec576114ec613f06565b602002015161ffff16905060008260a00151876007811061150f5761150f613f06565b60200201519050600a821161159e57611526612b27565b60405163d9732b8160e01b81526004810184905260ff8316602482015260448101889052606481018790526001600160a01b03919091169063d9732b8190608401600060405180830381600087803b15801561158157600080fd5b505af1158015611595573d6000803e3d6000fd5b5050505061161b565b6115a6612b8b565b60405163d9732b8160e01b81526004810184905260ff8316602482015260448101889052606481018790526001600160a01b03919091169063d9732b81906084015b600060405180830381600087803b15801561160257600080fd5b505af1158015611616573d6000803e3d6000fd5b505050505b5050505050505050565b73__$364aad554dc80380f414546becdd2c1584$__63ee98b31360028461053d612ba9565b604051633b11adbf60e21b81526002600482015233602482015273__$364aad554dc80380f414546becdd2c1584$__9063ec46b6fc9060440160206040518083038186803b15801561169b57600080fd5b505af41580156116af573d6000803e3d6000fd5b505050506040513d601f19601f820116820180604052508101906116d39190613448565b6116ef5760405162461bcd60e51b815260040161049690613463565b816116f8612c03565b6001600160a01b031663d50c7377826040518263ffffffff1660e01b815260040161172591815260200190565b60206040518083038186803b15801561173d57600080fd5b505afa158015611751573d6000803e3d6000fd5b505050506040513d601f19601f820116820180604052508101906117759190613448565b6117915760405162461bcd60e51b8152600401610496906134a9565b611799612b27565b6001600160a01b031663bbfd607d898989898989896040518863ffffffff1660e01b81526004016115e8979695949392919061401e565b604051633b11adbf60e21b81526002600482015233602482015273__$364aad554dc80380f414546becdd2c1584$__9063ec46b6fc9060440160206040518083038186803b15801561182157600080fd5b505af4158015611835573d6000803e3d6000fd5b505050506040513d601f19601f820116820180604052508101906118599190613448565b6118755760405162461bcd60e51b815260040161049690613463565b8061187e612c03565b6001600160a01b031663d50c7377826040518263ffffffff1660e01b81526004016118ab91815260200190565b60206040518083038186803b1580156118c357600080fd5b505afa1580156118d7573d6000803e3d6000fd5b505050506040513d601f19601f820116820180604052508101906118fb9190613448565b6119175760405162461bcd60e51b8152600401610496906134a9565b6040516308c5f91760e41b8152600481018390526001600160a01b03851690638c5f91709060240160206040518083038186803b15801561195757600080fd5b505afa15801561196b573d6000803e3d6000fd5b505050506040513d601f19601f8201168201806040525081019061198f9190613448565b6119db5760405162461bcd60e51b815260206004820152601960248201527f424f474b2e50443a204e4f54205061727479206f6620446f63000000000000006044820152606401610496565b6000836008141580156119ef575083601214155b15611a03576119fc612c96565b9050611a22565b8360081480611a125750836012145b15611a2257611a1f612cb0565b90505b60405163de154c2760e01b81526001600160a01b0386811660048301526000919083169063de154c279060240160c06040518083038186803b158015611a6757600080fd5b505afa158015611a7b573d6000803e3d6000fd5b505050506040513d601f19601f82011682018060405250810190611a9f9190614080565b60a081015190915060ff16600314611af95760405162461bcd60e51b815260206004820152601f60248201527f424f474b2e50443a20646f63206e6f74206f6e2045737461626c6973686564006044820152606401610496565b42816060015165ffffffffffff1610611b645760405162461bcd60e51b815260206004820152602760248201527f424f474b2e504d3a204941206e6f7420706173736564207265766965772070726044820152666f63656475726560c81b6064820152608401610496565b806060015165ffffffffffff16816080015165ffffffffffff161480611b96575042816080015165ffffffffffff1610155b611be25760405162461bcd60e51b815260206004820152601e60248201527f424f474b2e504d3a206d697373656420766f74696e67446561646c696e6500006044820152606401610496565b60405163108fac0b60e11b81526001600160a01b03878116600483810191909152602483015283169063211f581690604401600060405180830381600087803b158015611c2e57600080fd5b505af1158015611c42573d6000803e3d6000fd5b50505050611c4e612b27565b60405163cd43b16560e01b81526001600160a01b038881166004830152602482018890526044820187905260006064830152919091169063cd43b16590608401600060405180830381600087803b158015611ca857600080fd5b505af1158015611cbc573d6000803e3d6000fd5b50505050505050505050565b604051630f07232560e01b8152600260048201523360248201526001600160a01b038216604482015273__$364aad554dc80380f414546becdd2c1584$__90630f0723259060640160006040518083038186803b158015611d2857600080fd5b505af4158015611d3c573d6000803e3d6000fd5b50506040516001600160a01b03841681527fe435cbeab64e4eae6497b9d8289704bd709d624a80704ef3ca9af777534bc6ec9250602001905061113f565b604051632a3be56b60e21b815260026004820152602481018390526044810182905260009073__$364aad554dc80380f414546becdd2c1584$__9063a8ef95ac9060640160206040518083038186803b158015611dd657600080fd5b505af4158015611dea573d6000803e3d6000fd5b505050506040513d601f19601f82011682018060405250810190611e0e9190613448565b9392505050565b604051633b11adbf60e21b81526002600482015233602482015273__$364aad554dc80380f414546becdd2c1584$__9063ec46b6fc9060440160206040518083038186803b158015611e6657600080fd5b505af4158015611e7a573d6000803e3d6000fd5b505050506040513d601f19601f82011682018060405250810190611e9e9190613448565b80611f43575073__$364aad554dc80380f414546becdd2c1584$__63fe2710866002611ec8612ba9565b6040516001600160e01b031960e085901b168152600481019290925264ffffffffff16602482015260440160206040518083038186803b158015611f0b57600080fd5b505af4158015611f1f573d6000803e3d6000fd5b505050506040513d601f19601f82011682018060405250810190611f439190613448565b611f5f5760405162461bcd60e51b815260040161049690613d61565b60405163b6e38a2960e01b8152600260048201526024810182905273__$364aad554dc80380f414546becdd2c1584$__9063b6e38a299060440160006040518083038186803b158015611fb157600080fd5b505af4158015611fc5573d6000803e3d6000fd5b505050507f8b6f40f36b4ae8cc5f55e895036457c43da4ab1f80f58c46f5ff0d72a650033b8160405161113f91815260200190565b60405163987ad15360e01b81526002600482015260009073__$364aad554dc80380f414546becdd2c1584$__9063987ad1539060240161039c565b600061203f612ba9565b60405163cc0d511b60e01b8152600260048201526024810184905264ffffffffff8216604482015290915073__$364aad554dc80380f414546becdd2c1584$__9063cc0d511b90606401610578565b6000612098612b8b565b6001600160a01b0316639258effe836040518263ffffffff1660e01b81526004016120c591815260200190565b60206040518083038186803b1580156120dd57600080fd5b505afa1580156120f1573d6000803e3d6000fd5b505050506040513d601f19601f820116820180604052508101906121159190613448565b6121615760405162461bcd60e51b815260206004820152601860248201527f63616c6c6572206973206e6f742061204469726563746f7200000000000000006044820152606401610496565b6000546040516304e4a58160e31b8152600481018490526001600160a01b03909116906327252c089060240160206040518083038186803b1580156121a557600080fd5b505afa1580156121b9573d6000803e3d6000fd5b505050506040513d601f19601f820116820180604052508101906121dd9190613448565b156122215760405162461bcd60e51b815260206004820152601460248201527363616c6c6572206973206e6f7420616e20454f4160601b6044820152606401610496565b612229612b27565b6001600160a01b031663240a64388888888887896040518763ffffffff1660e01b815260040161225e969594939291906140f9565b602060405180830381600087803b15801561227857600080fd5b505af115801561228c573d6000803e3d6000fd5b505050506040513d601f19601f820116820180604052508101906122b09190613db7565b90505b9695505050505050565b604051633b11adbf60e21b81526002600482015233602482015273__$364aad554dc80380f414546becdd2c1584$__9063ec46b6fc9060440160206040518083038186803b15801561230e57600080fd5b505af4158015612322573d6000803e3d6000fd5b505050506040513d601f19601f820116820180604052508101906123469190613448565b6123625760405162461bcd60e51b815260040161049690613463565b61236a612b27565b6001600160a01b031663d1a0ce566040518163ffffffff1660e01b8152600401600060405180830381600087803b1580156104fe57600080fd5b6123ad82612ccb565b6123b681612d7a565b604051636cdd0edf60e11b815260026004820152602481018590526001600160a01b038416604482015273__$364aad554dc80380f414546becdd2c1584$__9063d9ba1dbe9060640160006040518083038186803b15801561241757600080fd5b505af415801561242b573d6000803e3d6000fd5b5050604080518781526001600160a01b038781166020830152868116828401528516606082015290517f3abb2418c66fe32ba9c883030a75ce583971d9af9192b9b74e44e67c5e6c8c1f9350908190036080019150a150505050565b604051633c3e56c160e11b81526002600482015260009073__$364aad554dc80380f414546becdd2c1584$__9063787cad829060240160206040518083038186803b1580156124d557600080fd5b505af41580156124e9573d6000803e3d6000fd5b505050506040513d601f19601f820116820180604052508101906103ec9190614151565b604051633b11adbf60e21b81526002600482015233602482015273__$364aad554dc80380f414546becdd2c1584$__9063ec46b6fc9060440160206040518083038186803b15801561255e57600080fd5b505af4158015612572573d6000803e3d6000fd5b505050506040513d601f19601f820116820180604052508101906125969190613448565b6125b25760405162461bcd60e51b815260040161049690613463565b600254600160f01b900460ff1660011461260e5760405162461bcd60e51b815260206004820181905260248201527f41432e6f6e6c7950656e64696e673a20446f632069732066696e616c697a65646044820152606401610496565b60405163cc99e11b60e01b815260026004820152684174746f726e65797360b81b602482015273__$364aad554dc80380f414546becdd2c1584$__9063cc99e11b9060440160006040518083038186803b15801561266b57600080fd5b505af415801561267f573d6000803e3d6000fd5b5050604051632725ebef60e21b8152600260048201526000602482015273__$364aad554dc80380f414546becdd2c1584$__9250639c97afbc915060440160006040518083038186803b1580156126d557600080fd5b505af41580156126e9573d6000803e3d6000fd5b50506002805460ff60f01b1916600160f11b17905550506040517f35012b512309c322acf68632cd6cb702ff0e1d776fbe9394e38ffc13b434fe7590600090a1565b604051633b11adbf60e21b81526002600482015233602482015273__$364aad554dc80380f414546becdd2c1584$__9063ec46b6fc9060440160206040518083038186803b15801561277c57600080fd5b505af4158015612790573d6000803e3d6000fd5b505050506040513d601f19601f820116820180604052508101906127b49190613448565b6127d05760405162461bcd60e51b815260040161049690613463565b806127d9612c03565b6001600160a01b031663d50c7377826040518263ffffffff1660e01b815260040161280691815260200190565b60206040518083038186803b15801561281e57600080fd5b505afa158015612832573d6000803e3d6000fd5b505050506040513d601f19601f820116820180604052508101906128569190613448565b6128725760405162461bcd60e51b8152600401610496906134a9565b61287a612b27565b6001600160a01b031663f8fb9e1d846040518263ffffffff1660e01b81526004016128a791815260200190565b602060405180830381600087803b1580156128c157600080fd5b505af11580156128d5573d6000803e3d6000fd5b505050506040513d601f19601f820116820180604052508101906105129190613448565b604051633b11adbf60e21b81526002600482015233602482015273__$364aad554dc80380f414546becdd2c1584$__9063ec46b6fc9060440160206040518083038186803b15801561294a57600080fd5b505af415801561295e573d6000803e3d6000fd5b505050506040513d601f19601f820116820180604052508101906129829190613448565b61299e5760405162461bcd60e51b815260040161049690613463565b816129a7612c03565b6001600160a01b031663d50c7377826040518263ffffffff1660e01b81526004016129d491815260200190565b60206040518083038186803b1580156129ec57600080fd5b505afa158015612a00573d6000803e3d6000fd5b505050506040513d601f19601f82011682018060405250810190612a249190613448565b612a405760405162461bcd60e51b8152600401610496906134a9565b81612a49612c03565b6001600160a01b031663d50c7377826040518263ffffffff1660e01b8152600401612a7691815260200190565b60206040518083038186803b158015612a8e57600080fd5b505afa158015612aa2573d6000803e3d6000fd5b505050506040513d601f19601f82011682018060405250810190612ac69190613448565b612ae25760405162461bcd60e51b8152600401610496906134a9565b612aea612b27565b604051637f0deff960e11b81526004810187905260248101869052604481018590526001600160a01b03919091169063fe1bdff290606401610762565b6001546000906001600160a01b031663e06eba8c60025b6040516001600160e01b031960e084901b16815260ff909116600482015260240160206040518083038186803b158015612b7757600080fd5b505afa1580156124e9573d6000803e3d6000fd5b600180546000916001600160a01b039091169063e06eba8c90612b3e565b60008054604051634de835e760e11b81523360048201526001600160a01b0390911690639bd06bce90602401602060405180830381600087803b158015612bef57600080fd5b505af11580156103c8573d6000803e3d6000fd5b6001546000906001600160a01b031663e06eba8c6007612b3e565b6001546000906001600160a01b031663e06eba8c6004612b3e565b6001546000906001600160a01b031663e06eba8c6006612b3e565b6000612c5e612cb0565b6001600160a01b0316632f5f3b3c6040518163ffffffff1660e01b815260040160206040518083038186803b158015612b7757600080fd5b6001546000906001600160a01b031663e06eba8c82612b3e565b6001546000906001600160a01b031663e06eba8c6003612b3e565b6000546001600160a01b031615612d1c5760405162461bcd60e51b815260206004820152601560248201527430b63932b0b23c9039b2ba103932b3a1b2b73a32b960591b6044820152606401610496565b6040516001600160a01b03821681527f318da6c7624c71cbc0afe346c9d8827f119d0ecefb241a7b0c87217a076a8e029060200160405180910390a1600080546001600160a01b0319166001600160a01b0392909216919091179055565b6001546001600160a01b031615612dd35760405162461bcd60e51b815260206004820152601960248201527f616c7265616479207365742067656e6572616c4b6565706572000000000000006044820152606401610496565b6040516001600160a01b03821681527fe513d3e0f0d0a3877029dcc588748679a7a3450ec1ec7ed56d96bd012c3e61aa9060200160405180910390a1600180546001600160a01b0319166001600160a01b0392909216919091179055565b60008060408385031215612e4457600080fd5b50508035926020909101359150565b60ff81168114612e6257600080fd5b50565b60008060008060808587031215612e7b57600080fd5b84359350602085013592506040850135612e9481612e53565b9396929550929360600135925050565b600060208284031215612eb657600080fd5b5035919050565b60008060008060808587031215612ed357600080fd5b5050823594602084013594506040840135936060013592509050565b634e487b7160e01b600052604160045260246000fd5b604051606081016001600160401b0381118282101715612f2757612f27612eef565b60405290565b60405161012081016001600160401b0381118282101715612f2757612f27612eef565b60405160c081016001600160401b0381118282101715612f2757612f27612eef565b6040516101e081016001600160401b0381118282101715612f2757612f27612eef565b60405160e081016001600160401b0381118282101715612f2757612f27612eef565b604051601f8201601f191681016001600160401b0381118282101715612fdf57612fdf612eef565b604052919050565b60006001600160401b0382111561300057613000612eef565b5060051b60200190565b6001600160a01b0381168114612e6257600080fd5b600082601f83011261303057600080fd5b8135602061304561304083612fe7565b612fb7565b82815260059290921b8401810191818101908684111561306457600080fd5b8286015b8481101561308857803561307b8161300a565b8352918301918301613068565b509695505050505050565b600082601f8301126130a457600080fd5b813560206130b461304083612fe7565b82815260059290921b840181019181810190868411156130d357600080fd5b8286015b8481101561308857803583529183019183016130d7565b6000601f838184011261310057600080fd5b8235602061311061304083612fe7565b82815260059290921b8501810191818101908784111561312f57600080fd5b8287015b848110156131c55780356001600160401b03808211156131535760008081fd5b818a0191508a603f8301126131685760008081fd5b8582013560408282111561317e5761317e612eef565b61318f828b01601f19168901612fb7565b92508183528c818386010111156131a65760008081fd5b8181850189850137506000908201870152845250918301918301613133565b50979650505050505050565b600080600080600080600060e0888a0312156131ec57600080fd5b87356131f781612e53565b965060208801356001600160401b038082111561321357600080fd5b61321f8b838c0161301f565b975060408a013591508082111561323557600080fd5b6132418b838c01613093565b965060608a013591508082111561325757600080fd5b506132648a828b016130ee565b979a969950949760808101359660a0820135965060c090910135945092505050565b60008060006060848603121561329b57600080fd5b83356132a68161300a565b95602085013595506040909401359392505050565b6000602082840312156132cd57600080fd5b8135611e0e8161300a565b60008060008060008060c087890312156132f157600080fd5b86356132fc81612e53565b955060208701356001600160401b038082111561331857600080fd5b6133248a838b0161301f565b9650604089013591508082111561333a57600080fd5b6133468a838b01613093565b9550606089013591508082111561335c57600080fd5b5061336989828a016130ee565b9350506080870135915060a087013590509295509295509295565b6000806000806080858703121561339a57600080fd5b8435935060208501356133ac8161300a565b925060408501356133bc8161300a565b915060608501356133cc8161300a565b939692955090935050565b6000806000606084860312156133ec57600080fd5b505081359360208301359350604090920135919050565b805164ffffffffff8116811461341857600080fd5b919050565b60006020828403121561342f57600080fd5b611e0e82613403565b8051801515811461341857600080fd5b60006020828403121561345a57600080fd5b611e0e82613438565b60208082526026908201527f41432e6f6e6c794469726563744b65657065723a206e6f74206469726563742060408201526535b2b2b832b960d11b606082015260800190565b6020808252601690820152752927a6a99736b31726a29d102727aa1036b2b6b132b960511b604082015260600190565b805161341881612e53565b805161ffff8116811461341857600080fd5b805163ffffffff8116811461341857600080fd5b805165ffffffffffff8116811461341857600080fd5b80516001600160401b038116811461341857600080fd5b60006080828403121561354957600080fd5b604051608081018181106001600160401b038211171561356b5761356b612eef565b60405290508061357a83613403565b815261358860208401613403565b602082015261359960408401613520565b60408201526135aa60608401613520565b60608201525092915050565b60008183036101c08112156135ca57600080fd5b6135d2612f05565b610120808312156135e257600080fd5b6135ea612f2d565b92506135f5856134d9565b8352613603602086016134e4565b6020840152613614604086016134f6565b604084015261362560608601613403565b6060840152613636608086016134f6565b608084015261364760a086016134f6565b60a084015261365860c086016134f6565b60c084015261366960e0860161350a565b60e084015261010061367c8187016134d9565b9084015282825261368f86868301613537565b6020830152506101a093909301516040840152509092915050565b600060c082840312156136bc57600080fd5b6136c4612f50565b82516136cf81612e53565b81526136dd60208401613403565b60208201526136ee60408401613403565b60408201526136ff6060840161350a565b60608201526137106080840161350a565b608082015261372160a0840161350a565b60a08201529392505050565b600082601f83011261373e57600080fd5b604051606081018181106001600160401b038211171561376057613760612eef565b60405280606084018581111561377557600080fd5b845b818110156137965761378881613403565b835260209283019201613777565b509195945050505050565b600061022082840312156137b457600080fd5b6137bc612f72565b6137c5836134e4565b81526137d3602084016134d9565b60208201526137e4604084016134d9565b60408201526137f5606084016134d9565b6060820152613806608084016134e4565b608082015261381760a084016134e4565b60a082015261382860c08401613438565b60c082015261383960e08401613438565b60e082015261010061384c818501613438565b9082015261012061385e848201613438565b908201526101406138708482016134d9565b908201526101606138828482016134d9565b908201526101806138948482016134d9565b908201526101a06138a68482016134d9565b908201526101c06138b98585830161372d565b908201529392505050565b634e487b7160e01b600052601160045260246000fd5b600065ffffffffffff8083168185168083038211156138fb576138fb6138c4565b01949350505050565b600065ffffffffffff80831681851681830481118215151615613929576139296138c4565b02949350505050565b600065ffffffffffff83811690831681811015613951576139516138c4565b039392505050565b600065ffffffffffff8084168061398057634e487b7160e01b600052601260045260246000fd5b92169190910492915050565b855163ffffffff168152610220810160208701516139af602084018260ff169052565b5060408701516139c7604084018263ffffffff169052565b5060608701516139e1606084018265ffffffffffff169052565b5060808701516139f6608084018260ff169052565b5060a0870151613a0b60a084018260ff169052565b5060c0870151613a2160c084018261ffff169052565b5060e0870151613a3660e084018260ff169052565b506101008781015160ff908116918401919091526101208089015163ffffffff90811691850191909152610140808a0151831690850152610160808a01519091169084015261018080890151909116908301526101a082018690526101c082018590526001600160401b0384166101e08301526001600160401b0383166102008301526122b3565b600060208284031215613ad057600080fd5b611e0e826134f6565b600060a08284031215613aeb57600080fd5b60405160a081018181106001600160401b0382111715613b0d57613b0d612eef565b604052905080613b1c83613520565b8152613b2a60208401613520565b6020820152613b3b60408401613520565b6040820152613b4c6060840161350a565b60608201526080830151613b5f81612e53565b6080919091015292915050565b6000818303610160811215613b8057600080fd5b604051604081018181106001600160401b0382111715613ba257613ba2612eef565b60405260c0821215613bb357600080fd5b613bbb612f50565b9150613bc6846134e4565b8252613bd4602085016134f6565b6020830152613be56040850161350a565b6040830152613bf660608501613403565b6060830152613c07608085016134f6565b6080830152613c1860a085016134f6565b60a0830152818152613c2d8560c08601613ad9565b6020820152949350505050565b600061024082019050848252835161ffff8151166020840152602081015163ffffffff808216604086015265ffffffffffff604084015116606086015264ffffffffff60608401511660808601528060808401511660a08601528060a08401511660c08601525050506020840151613cfa60e08401826001600160401b038082511683528060208301511660208401528060408301511660408401525065ffffffffffff606082015116606083015260ff60808201511660808301525050565b50825163ffffffff9081166101808401526020840151166101a0830152604083015164ffffffffff166101c083015260608301516001600160401b039081166101e084015260808401511661020083015260a083015160ff16610220830152949350505050565b60208082526036908201527f41432e6f776e65724f72446972656374426f6f6b65657065723a206e6569746860408201527532b91037bbb732b9103737b9103137b7b5b2b2b832b960511b606082015260800190565b600060208284031215613dc957600080fd5b5051919050565b600082601f830112613de157600080fd5b613de9612f95565b8060e0840185811115613dfb57600080fd5b845b81811015613e1c57613e0e816134e4565b845260209384019301613dfd565b509095945050505050565b60006102608284031215613e3a57600080fd5b613e42612f95565b613e4b836134e4565b8152602080840151613e5c81612e53565b828201526040840151613e6e81612e53565b6040830152613e7f60608501613403565b6060830152613e90608085016134e4565b60808301528460bf850112613ea457600080fd5b613eac612f95565b80610180860187811115613ebf57600080fd5b60a087015b81811015613ee4578051613ed781612e53565b8452928401928401613ec4565b508160a0860152613ef58882613dd0565b60c086015250929695505050505050565b634e487b7160e01b600052603260045260246000fd5b600081518084526020808501945080840160005b83811015613f555781516001600160a01b031687529582019590820190600101613f30565b509495945050505050565b600081518084526020808501945080840160005b83811015613f5557815187529582019590820190600101613f74565b600081518084526020808501808196508360051b810191508286016000805b86811015614010578385038a5282518051808752835b81811015613fe0578281018901518882018a01528801613fc5565b81811115613ff0578489838a0101525b509a87019a601f01601f1916959095018601945091850191600101613faf565b509298975050505050505050565b60ff8816815260e06020820152600061403a60e0830189613f1c565b828103604084015261404c8189613f60565b905082810360608401526140608188613f90565b6080840196909652505060a081019290925260c090910152949350505050565b600060c0828403121561409257600080fd5b61409a612f50565b82516140a581612e53565b81526140b360208401613403565b60208201526140c46040840161350a565b60408201526140d56060840161350a565b60608201526140e66080840161350a565b608082015260a083015161372181612e53565b60ff8716815260c06020820152600061411560c0830188613f1c565b82810360408401526141278188613f60565b9050828103606084015261413b8187613f90565b6080840195909552505060a00152949350505050565b60006020828403121561416357600080fd5b8151611e0e8161300a56fea2646970667358221220804c1ade04c9098a105ef6583112ab61bd1f0243093c4b5dd39de9971070c24f64736f6c63430008080033",
    "sourcePath": "/Users/kaptain/github.com/hardhat/comboox/contracts/keepers/BOGKeeper.sol",
    "compiler": {
        "name": "solc",
        "version": "0.8.8+commit.dddeac2f"
    },
    "functionHashes": {
        "abandonRole(bytes32)": "3da9a600",
        "castVote(uint256,uint256,uint8,bytes32)": "2de32075",
        "createBoardSeal()": "14d3cb85",
        "createCorpSeal()": "d1a0ce56",
        "entrustDelegate(uint256,uint256,uint256)": "fe1bdff2",
        "execAction(uint8,address[],uint256[],bytes[],bytes32,uint256)": "a19012b9",
        "finalized()": "b3f05b97",
        "getBookeeper()": "ed211023",
        "getGeneralCounsel()": "103f6edd",
        "getOwner()": "893d20e8",
        "grantRole(bytes32,uint256)": "1b6ea9f9",
        "hasRole(bytes32,uint256)": "7e063c5a",
        "init(uint256,address,address,address)": "dc890da9",
        "lockContents()": "f045a769",
        "nominateOfficer(uint256,uint256,uint256,uint256)": "4f6413ac",
        "proposeAction(uint8,address[],uint256[],bytes[],bytes32,uint256,uint256)": "527fa452",
        "proposeDoc(address,uint256,uint256)": "6600f97a",
        "renounceRole(bytes32)": "8bb9c5bf",
        "requestToBuy(uint256,uint256,uint256,uint256)": "456d5574",
        "revokeRole(bytes32,uint256)": "19d61ad9",
        "setDirectKeeper(address)": "6be8496f",
        "setGeneralCounsel(uint256)": "4a14beb1",
        "setOwner(uint256)": "8041494e",
        "setRoleAdmin(bytes32,uint256)": "5171ebd4",
        "voteCounting(uint256,uint256)": "f894759e"
    },
    "gasEstimates": {
        "creation": {
            "codeDepositCost": "3360800",
            "executionCost": "3747",
            "totalCost": "3364547"
        },
        "external": {
            "abandonRole(bytes32)": "infinite",
            "castVote(uint256,uint256,uint8,bytes32)": "infinite",
            "createBoardSeal()": "infinite",
            "createCorpSeal()": "infinite",
            "entrustDelegate(uint256,uint256,uint256)": "infinite",
            "execAction(uint8,address[],uint256[],bytes[],bytes32,uint256)": "infinite",
            "finalized()": "2372",
            "getBookeeper()": "infinite",
            "getGeneralCounsel()": "infinite",
            "getOwner()": "infinite",
            "grantRole(bytes32,uint256)": "infinite",
            "hasRole(bytes32,uint256)": "infinite",
            "init(uint256,address,address,address)": "infinite",
            "lockContents()": "infinite",
            "nominateOfficer(uint256,uint256,uint256,uint256)": "infinite",
            "proposeAction(uint8,address[],uint256[],bytes[],bytes32,uint256,uint256)": "infinite",
            "proposeDoc(address,uint256,uint256)": "infinite",
            "renounceRole(bytes32)": "infinite",
            "requestToBuy(uint256,uint256,uint256,uint256)": "infinite",
            "revokeRole(bytes32,uint256)": "infinite",
            "setDirectKeeper(address)": "infinite",
            "setGeneralCounsel(uint256)": "infinite",
            "setOwner(uint256)": "infinite",
            "setRoleAdmin(bytes32,uint256)": "infinite",
            "voteCounting(uint256,uint256)": "infinite"
        }
    }
}