{
    "contractName": "BOGKeeper",
    "abi": [
        {
            "anonymous": false,
            "inputs": [
                {
                    "indexed": true,
                    "internalType": "uint256",
                    "name": "owner",
                    "type": "uint256"
                },
                {
                    "indexed": true,
                    "internalType": "address",
                    "name": "directKeeper",
                    "type": "address"
                },
                {
                    "indexed": false,
                    "internalType": "address",
                    "name": "regCenter",
                    "type": "address"
                },
                {
                    "indexed": true,
                    "internalType": "address",
                    "name": "generalKeeper",
                    "type": "address"
                }
            ],
            "name": "Init",
            "type": "event"
        },
        {
            "anonymous": false,
            "inputs": [],
            "name": "LockContents",
            "type": "event"
        },
        {
            "anonymous": false,
            "inputs": [
                {
                    "indexed": true,
                    "internalType": "address",
                    "name": "target",
                    "type": "address"
                }
            ],
            "name": "RemoveDirectKeeper",
            "type": "event"
        },
        {
            "anonymous": false,
            "inputs": [
                {
                    "indexed": true,
                    "internalType": "address",
                    "name": "keeper",
                    "type": "address"
                }
            ],
            "name": "SetDirectKeeper",
            "type": "event"
        },
        {
            "anonymous": false,
            "inputs": [
                {
                    "indexed": true,
                    "internalType": "uint256",
                    "name": "acct",
                    "type": "uint256"
                }
            ],
            "name": "SetGeneralCounsel",
            "type": "event"
        },
        {
            "anonymous": false,
            "inputs": [
                {
                    "indexed": true,
                    "internalType": "uint256",
                    "name": "acct",
                    "type": "uint256"
                }
            ],
            "name": "SetOwner",
            "type": "event"
        },
        {
            "inputs": [
                {
                    "internalType": "bytes32",
                    "name": "role",
                    "type": "bytes32"
                }
            ],
            "name": "abandonRole",
            "outputs": [],
            "stateMutability": "nonpayable",
            "type": "function"
        },
        {
            "inputs": [
                {
                    "internalType": "uint256",
                    "name": "seqOfMotion",
                    "type": "uint256"
                },
                {
                    "internalType": "uint256",
                    "name": "attitude",
                    "type": "uint256"
                },
                {
                    "internalType": "bytes32",
                    "name": "sigHash",
                    "type": "bytes32"
                },
                {
                    "internalType": "uint256",
                    "name": "caller",
                    "type": "uint256"
                }
            ],
            "name": "castVoteOfGM",
            "outputs": [],
            "stateMutability": "nonpayable",
            "type": "function"
        },
        {
            "inputs": [
                {
                    "internalType": "uint256",
                    "name": "seqOfVR",
                    "type": "uint256"
                },
                {
                    "internalType": "address[]",
                    "name": "targets",
                    "type": "address[]"
                },
                {
                    "internalType": "uint256[]",
                    "name": "values",
                    "type": "uint256[]"
                },
                {
                    "internalType": "bytes[]",
                    "name": "params",
                    "type": "bytes[]"
                },
                {
                    "internalType": "bytes32",
                    "name": "desHash",
                    "type": "bytes32"
                },
                {
                    "internalType": "uint256",
                    "name": "executor",
                    "type": "uint256"
                },
                {
                    "internalType": "uint256",
                    "name": "proposer",
                    "type": "uint256"
                }
            ],
            "name": "createActionOfGM",
            "outputs": [],
            "stateMutability": "nonpayable",
            "type": "function"
        },
        {
            "inputs": [
                {
                    "internalType": "uint256",
                    "name": "seqOfPos",
                    "type": "uint256"
                },
                {
                    "internalType": "uint256",
                    "name": "caller",
                    "type": "uint256"
                }
            ],
            "name": "createMotionToRemoveDirector",
            "outputs": [],
            "stateMutability": "nonpayable",
            "type": "function"
        },
        {
            "inputs": [
                {
                    "internalType": "uint256",
                    "name": "seqOfMotion",
                    "type": "uint256"
                },
                {
                    "internalType": "uint256",
                    "name": "delegate",
                    "type": "uint256"
                },
                {
                    "internalType": "uint256",
                    "name": "caller",
                    "type": "uint256"
                }
            ],
            "name": "entrustDelegaterForGeneralMeeting",
            "outputs": [],
            "stateMutability": "nonpayable",
            "type": "function"
        },
        {
            "inputs": [
                {
                    "internalType": "uint256",
                    "name": "typeOfAction",
                    "type": "uint256"
                },
                {
                    "internalType": "address[]",
                    "name": "targets",
                    "type": "address[]"
                },
                {
                    "internalType": "uint256[]",
                    "name": "values",
                    "type": "uint256[]"
                },
                {
                    "internalType": "bytes[]",
                    "name": "params",
                    "type": "bytes[]"
                },
                {
                    "internalType": "bytes32",
                    "name": "desHash",
                    "type": "bytes32"
                },
                {
                    "internalType": "uint256",
                    "name": "seqOfMotion",
                    "type": "uint256"
                },
                {
                    "internalType": "uint256",
                    "name": "caller",
                    "type": "uint256"
                }
            ],
            "name": "execActionOfGM",
            "outputs": [
                {
                    "internalType": "uint256",
                    "name": "",
                    "type": "uint256"
                }
            ],
            "stateMutability": "nonpayable",
            "type": "function"
        },
        {
            "inputs": [],
            "name": "finalized",
            "outputs": [
                {
                    "internalType": "bool",
                    "name": "",
                    "type": "bool"
                }
            ],
            "stateMutability": "view",
            "type": "function"
        },
        {
            "inputs": [],
            "name": "getBookeeper",
            "outputs": [
                {
                    "internalType": "address",
                    "name": "",
                    "type": "address"
                }
            ],
            "stateMutability": "view",
            "type": "function"
        },
        {
            "inputs": [],
            "name": "getGeneralCounsel",
            "outputs": [
                {
                    "internalType": "uint40",
                    "name": "",
                    "type": "uint40"
                }
            ],
            "stateMutability": "view",
            "type": "function"
        },
        {
            "inputs": [],
            "name": "getOwner",
            "outputs": [
                {
                    "internalType": "uint40",
                    "name": "",
                    "type": "uint40"
                }
            ],
            "stateMutability": "view",
            "type": "function"
        },
        {
            "inputs": [
                {
                    "internalType": "bytes32",
                    "name": "role",
                    "type": "bytes32"
                },
                {
                    "internalType": "uint256",
                    "name": "acct",
                    "type": "uint256"
                }
            ],
            "name": "grantRole",
            "outputs": [],
            "stateMutability": "nonpayable",
            "type": "function"
        },
        {
            "inputs": [
                {
                    "internalType": "bytes32",
                    "name": "role",
                    "type": "bytes32"
                },
                {
                    "internalType": "uint256",
                    "name": "acct",
                    "type": "uint256"
                }
            ],
            "name": "hasRole",
            "outputs": [
                {
                    "internalType": "bool",
                    "name": "",
                    "type": "bool"
                }
            ],
            "stateMutability": "view",
            "type": "function"
        },
        {
            "inputs": [
                {
                    "internalType": "uint256",
                    "name": "owner",
                    "type": "uint256"
                },
                {
                    "internalType": "address",
                    "name": "directKeeper",
                    "type": "address"
                },
                {
                    "internalType": "address",
                    "name": "regCenter",
                    "type": "address"
                },
                {
                    "internalType": "address",
                    "name": "generalKeeper",
                    "type": "address"
                }
            ],
            "name": "init",
            "outputs": [],
            "stateMutability": "nonpayable",
            "type": "function"
        },
        {
            "inputs": [],
            "name": "lockContents",
            "outputs": [],
            "stateMutability": "nonpayable",
            "type": "function"
        },
        {
            "inputs": [
                {
                    "internalType": "uint256",
                    "name": "seqOfPos",
                    "type": "uint256"
                },
                {
                    "internalType": "uint256",
                    "name": "candidate",
                    "type": "uint256"
                },
                {
                    "internalType": "uint256",
                    "name": "nominator",
                    "type": "uint256"
                }
            ],
            "name": "nominateDirector",
            "outputs": [],
            "stateMutability": "nonpayable",
            "type": "function"
        },
        {
            "inputs": [
                {
                    "internalType": "address",
                    "name": "doc",
                    "type": "address"
                },
                {
                    "internalType": "uint256",
                    "name": "seqOfVR",
                    "type": "uint256"
                },
                {
                    "internalType": "uint256",
                    "name": "executor",
                    "type": "uint256"
                },
                {
                    "internalType": "uint256",
                    "name": "proposer",
                    "type": "uint256"
                }
            ],
            "name": "proposeDocOfGM",
            "outputs": [],
            "stateMutability": "nonpayable",
            "type": "function"
        },
        {
            "inputs": [
                {
                    "internalType": "uint256",
                    "name": "seqOfMotion",
                    "type": "uint256"
                },
                {
                    "internalType": "uint256",
                    "name": "caller",
                    "type": "uint256"
                }
            ],
            "name": "proposeMotionToGeneralMeeting",
            "outputs": [],
            "stateMutability": "nonpayable",
            "type": "function"
        },
        {
            "inputs": [
                {
                    "internalType": "address",
                    "name": "target",
                    "type": "address"
                }
            ],
            "name": "removeDirectKeeper",
            "outputs": [],
            "stateMutability": "nonpayable",
            "type": "function"
        },
        {
            "inputs": [
                {
                    "internalType": "uint256",
                    "name": "seqOfMotion",
                    "type": "uint256"
                },
                {
                    "internalType": "uint256",
                    "name": "seqOfPos",
                    "type": "uint256"
                },
                {
                    "internalType": "uint256",
                    "name": "caller",
                    "type": "uint256"
                }
            ],
            "name": "removeDirector",
            "outputs": [],
            "stateMutability": "nonpayable",
            "type": "function"
        },
        {
            "inputs": [
                {
                    "internalType": "bytes32",
                    "name": "role",
                    "type": "bytes32"
                }
            ],
            "name": "renounceRole",
            "outputs": [],
            "stateMutability": "nonpayable",
            "type": "function"
        },
        {
            "inputs": [
                {
                    "internalType": "bytes32",
                    "name": "role",
                    "type": "bytes32"
                },
                {
                    "internalType": "uint256",
                    "name": "acct",
                    "type": "uint256"
                }
            ],
            "name": "revokeRole",
            "outputs": [],
            "stateMutability": "nonpayable",
            "type": "function"
        },
        {
            "inputs": [
                {
                    "internalType": "address",
                    "name": "keeper",
                    "type": "address"
                }
            ],
            "name": "setDirectKeeper",
            "outputs": [],
            "stateMutability": "nonpayable",
            "type": "function"
        },
        {
            "inputs": [
                {
                    "internalType": "uint256",
                    "name": "acct",
                    "type": "uint256"
                }
            ],
            "name": "setGeneralCounsel",
            "outputs": [],
            "stateMutability": "nonpayable",
            "type": "function"
        },
        {
            "inputs": [
                {
                    "internalType": "uint256",
                    "name": "acct",
                    "type": "uint256"
                }
            ],
            "name": "setOwner",
            "outputs": [],
            "stateMutability": "nonpayable",
            "type": "function"
        },
        {
            "inputs": [
                {
                    "internalType": "bytes32",
                    "name": "role",
                    "type": "bytes32"
                },
                {
                    "internalType": "uint256",
                    "name": "acct",
                    "type": "uint256"
                }
            ],
            "name": "setRoleAdmin",
            "outputs": [],
            "stateMutability": "nonpayable",
            "type": "function"
        },
        {
            "inputs": [
                {
                    "internalType": "uint256",
                    "name": "seqOfMotion",
                    "type": "uint256"
                },
                {
                    "internalType": "uint256",
                    "name": "seqOfPos",
                    "type": "uint256"
                },
                {
                    "internalType": "uint256",
                    "name": "caller",
                    "type": "uint256"
                }
            ],
            "name": "takeSeat",
            "outputs": [],
            "stateMutability": "nonpayable",
            "type": "function"
        },
        {
            "inputs": [
                {
                    "internalType": "uint256",
                    "name": "seqOfMotion",
                    "type": "uint256"
                },
                {
                    "internalType": "uint256",
                    "name": "caller",
                    "type": "uint256"
                }
            ],
            "name": "voteCountingOfGM",
            "outputs": [],
            "stateMutability": "nonpayable",
            "type": "function"
        }
    ],
    "bytecode": "608060405234801561001057600080fd5b50615509806100206000396000f3fe608060405234801561001057600080fd5b50600436106101a95760003560e01c80637e063c5a116100f9578063b3f05b9711610097578063ec83613b11610071578063ec83613b14610389578063ed2110231461039c578063f045a769146103bc578063f1e9e7f7146103c457600080fd5b8063b3f05b971461034f578063d0e27e1014610363578063dc890da91461037657600080fd5b80638bb9c5bf116100d35780638bb9c5bf14610303578063906149f114610316578063a8459ac014610329578063acd4aa7b1461033c57600080fd5b80637e063c5a146102c55780638041494e146102e8578063893d20e8146102fb57600080fd5b80633c44bcb6116101665780635171ebd4116101405780635171ebd4146102795780635d7ad88f1461028c5780636be8496f1461029f5780637451ce03146102b257600080fd5b80633c44bcb6146102405780633da9a600146102535780634a14beb11461026657600080fd5b8063020c814d146101ae578063103f6edd146101d4578063142ed327146101f257806319d61ad9146102075780631b6ea9f91461021a578063348805241461022d575b600080fd5b6101c16101bc36600461465b565b6103d7565b6040519081526020015b60405180910390f35b6101dc6104e9565b60405164ffffffffff90911681526020016101cb565b610205610200366004614767565b610575565b005b610205610215366004614767565b610b81565b610205610228366004614767565b610c13565b61020561023b366004614789565b610c39565b61020561024e366004614789565b610dd4565b6102056102613660046147b5565b6113df565b6102056102743660046147b5565b61146a565b610205610287366004614767565b6116bf565b61020561029a3660046147ce565b6116e5565b6102056102ad3660046147ce565b61181a565b6102056102c0366004614789565b6118c9565b6102d86102d3366004614767565b611c0a565b60405190151581526020016101cb565b6102056102f63660046147b5565b611ca5565b6101dc611d5b565b6102056103113660046147b5565b611d96565b610205610324366004614789565b611dbb565b6102056103373660046147eb565b6120c9565b61020561034a36600461465b565b612242565b60028054600160f01b900460ff16146102d8565b61020561037136600461481d565b61264f565b610205610384366004614858565b612c2f565b610205610397366004614767565b612d07565b6103a4612f36565b6040516001600160a01b0390911681526020016101cb565b610205612fbc565b6102056103d2366004614767565b613206565b6001546040805163682ebf0560e01b815290516000926001600160a01b03169163682ebf05916004808301926020929190829003018186803b15801561041c57600080fd5b505afa158015610430573d6000803e3d6000fd5b505050506040513d601f19601f8201168201806040525081019061045491906148ab565b6001600160a01b0316635c2753bf898989898989896040518863ffffffff1660e01b815260040161048b9796959493929190614991565b602060405180830381600087803b1580156104a557600080fd5b505af11580156104b9573d6000803e3d6000fd5b505050506040513d601f19601f820116820180604052508101906104dd9190614a26565b98975050505050505050565b60405163e8c0cc1d60e01b81526002600482015260009073__$a374c895e6fa8c448878668e00d93ef99a$__9063e8c0cc1d906024015b60206040518083038186803b15801561053857600080fd5b505af415801561054c573d6000803e3d6000fd5b505050506040513d601f19601f820116820180604052508101906105709190614a59565b905090565b604051633b11adbf60e21b81526002600482015233602482015273__$a374c895e6fa8c448878668e00d93ef99a$__9063ec46b6fc9060440160206040518083038186803b1580156105c657600080fd5b505af41580156105da573d6000803e3d6000fd5b505050506040513d601f19601f820116820180604052508101906105fe9190614a84565b6106235760405162461bcd60e51b815260040161061a90614a9f565b60405180910390fd5b81816000600160009054906101000a90046001600160a01b03166001600160a01b0316639262826d6040518163ffffffff1660e01b815260040160206040518083038186803b15801561067557600080fd5b505afa158015610689573d6000803e3d6000fd5b505050506040513d601f19601f820116820180604052508101906106ad91906148ab565b60405163eb02c30160e01b8152600481018590529091506000906001600160a01b0383169063eb02c301906024016101206040518083038186803b1580156106f457600080fd5b505afa158015610708573d6000803e3d6000fd5b505050506040513d601f19601f8201168201806040525081019061072c9190614b0d565b60e081015190915061ffff166001141561088f57600160009054906101000a90046001600160a01b03166001600160a01b03166333fb96ee6040518163ffffffff1660e01b815260040160206040518083038186803b15801561078e57600080fd5b505afa1580156107a2573d6000803e3d6000fd5b505050506040513d601f19601f820116820180604052508101906107c691906148ab565b6001600160a01b031663d50c7377846040518263ffffffff1660e01b81526004016107f391815260200190565b60206040518083038186803b15801561080b57600080fd5b505afa15801561081f573d6000803e3d6000fd5b505050506040513d601f19601f820116820180604052508101906108439190614a84565b61088a5760405162461bcd60e51b81526020600482015260186024820152772127a3a59727221d103737ba1029b430b932b437b63232b960411b604482015260640161061a565b61095a565b604051630407495760e41b815260048101859052602481018490526001600160a01b0383169063407495709060440160206040518083038186803b1580156108d657600080fd5b505afa1580156108ea573d6000803e3d6000fd5b505050506040513d601f19601f8201168201806040525081019061090e9190614a84565b61095a5760405162461bcd60e51b815260206004820152601f60248201527f424f474b2e4e443a20686173206e6f206e6f6d696e6174696f6e526967687400604482015260640161061a565b600160009054906101000a90046001600160a01b03166001600160a01b031663682ebf056040518163ffffffff1660e01b815260040160206040518083038186803b1580156109a857600080fd5b505afa1580156109bc573d6000803e3d6000fd5b505050506040513d601f19601f820116820180604052508101906109e091906148ab565b6001600160a01b031663fb03054887600160009054906101000a90046001600160a01b03166001600160a01b0316639262826d6040518163ffffffff1660e01b815260040160206040518083038186803b158015610a3d57600080fd5b505afa158015610a51573d6000803e3d6000fd5b505050506040513d601f19601f82011682018060405250810190610a7591906148ab565b6001600160a01b031663eb02c3018a6040518263ffffffff1660e01b8152600401610aa291815260200190565b6101206040518083038186803b158015610abb57600080fd5b505afa158015610acf573d6000803e3d6000fd5b505050506040513d601f19601f82011682018060405250810190610af39190614b0d565b60c001516040516001600160e01b031960e085901b168152600481019290925261ffff16602482015260448101889052606401602060405180830381600087803b158015610b4057600080fd5b505af1158015610b54573d6000803e3d6000fd5b505050506040513d601f19601f82011682018060405250810190610b789190614bda565b50505050505050565b73__$a374c895e6fa8c448878668e00d93ef99a$__6382daafaa60028484610ba76140b3565b6040516001600160e01b031960e087901b16815260048101949094526024840192909252604483015264ffffffffff16606482015260840160006040518083038186803b158015610bf757600080fd5b505af4158015610c0b573d6000803e3d6000fd5b505050505050565b73__$a374c895e6fa8c448878668e00d93ef99a$__636320d75e60028484610ba76140b3565b604051633b11adbf60e21b81526002600482015233602482015273__$a374c895e6fa8c448878668e00d93ef99a$__9063ec46b6fc9060440160206040518083038186803b158015610c8a57600080fd5b505af4158015610c9e573d6000803e3d6000fd5b505050506040513d601f19601f82011682018060405250810190610cc29190614a84565b610cde5760405162461bcd60e51b815260040161061a90614a9f565b610ce8838261410d565b600160009054906101000a90046001600160a01b03166001600160a01b031663682ebf056040518163ffffffff1660e01b815260040160206040518083038186803b158015610d3657600080fd5b505afa158015610d4a573d6000803e3d6000fd5b505050506040513d601f19601f82011682018060405250810190610d6e91906148ab565b604051637f0deff960e11b81526004810185905260248101849052604481018390526001600160a01b03919091169063fe1bdff290606401600060405180830381600087803b158015610dc057600080fd5b505af1158015610b78573d6000803e3d6000fd5b604051633b11adbf60e21b81526002600482015233602482015273__$a374c895e6fa8c448878668e00d93ef99a$__9063ec46b6fc9060440160206040518083038186803b158015610e2557600080fd5b505af4158015610e39573d6000803e3d6000fd5b505050506040513d601f19601f82011682018060405250810190610e5d9190614a84565b610e795760405162461bcd60e51b815260040161061a90614a9f565b82816000600160009054906101000a90046001600160a01b03166001600160a01b0316639262826d6040518163ffffffff1660e01b815260040160206040518083038186803b158015610ecb57600080fd5b505afa158015610edf573d6000803e3d6000fd5b505050506040513d601f19601f82011682018060405250810190610f0391906148ab565b60405163eb02c30160e01b8152600481018590529091506000906001600160a01b0383169063eb02c301906024016101206040518083038186803b158015610f4a57600080fd5b505afa158015610f5e573d6000803e3d6000fd5b505050506040513d601f19601f82011682018060405250810190610f829190614b0d565b60e081015190915061ffff16600114156110e557600160009054906101000a90046001600160a01b03166001600160a01b03166333fb96ee6040518163ffffffff1660e01b815260040160206040518083038186803b158015610fe457600080fd5b505afa158015610ff8573d6000803e3d6000fd5b505050506040513d601f19601f8201168201806040525081019061101c91906148ab565b6001600160a01b031663d50c7377846040518263ffffffff1660e01b815260040161104991815260200190565b60206040518083038186803b15801561106157600080fd5b505afa158015611075573d6000803e3d6000fd5b505050506040513d601f19601f820116820180604052508101906110999190614a84565b6110e05760405162461bcd60e51b81526020600482015260186024820152772127a3a59727221d103737ba1029b430b932b437b63232b960411b604482015260640161061a565b6111b0565b604051630407495760e41b815260048101859052602481018490526001600160a01b0383169063407495709060440160206040518083038186803b15801561112c57600080fd5b505afa158015611140573d6000803e3d6000fd5b505050506040513d601f19601f820116820180604052508101906111649190614a84565b6111b05760405162461bcd60e51b815260206004820152601f60248201527f424f474b2e4e443a20686173206e6f206e6f6d696e6174696f6e526967687400604482015260640161061a565b600160009054906101000a90046001600160a01b03166001600160a01b031663682ebf056040518163ffffffff1660e01b815260040160206040518083038186803b1580156111fe57600080fd5b505afa158015611212573d6000803e3d6000fd5b505050506040513d601f19601f8201168201806040525081019061123691906148ab565b6001600160a01b0316634f6413ac88600160009054906101000a90046001600160a01b03166001600160a01b0316639262826d6040518163ffffffff1660e01b815260040160206040518083038186803b15801561129357600080fd5b505afa1580156112a7573d6000803e3d6000fd5b505050506040513d601f19601f820116820180604052508101906112cb91906148ab565b6001600160a01b031663eb02c3018b6040518263ffffffff1660e01b81526004016112f891815260200190565b6101206040518083038186803b15801561131157600080fd5b505afa158015611325573d6000803e3d6000fd5b505050506040513d601f19601f820116820180604052508101906113499190614b0d565b60c001516040516001600160e01b031960e085901b168152600481019290925261ffff1660248201526044810189905260648101889052608401602060405180830381600087803b15801561139d57600080fd5b505af11580156113b1573d6000803e3d6000fd5b505050506040513d601f19601f820116820180604052508101906113d59190614bda565b5050505050505050565b73__$a374c895e6fa8c448878668e00d93ef99a$__63c51b295f6002836114046140b3565b6040516001600160e01b031960e086901b1681526004810193909352602483019190915264ffffffffff16604482015260640160006040518083038186803b15801561144f57600080fd5b505af4158015611463573d6000803e3d6000fd5b5050505050565b604051633b11adbf60e21b81526002600482015233602482015273__$a374c895e6fa8c448878668e00d93ef99a$__9063ec46b6fc9060440160206040518083038186803b1580156114bb57600080fd5b505af41580156114cf573d6000803e3d6000fd5b505050506040513d601f19601f820116820180604052508101906114f39190614a84565b80611598575073__$a374c895e6fa8c448878668e00d93ef99a$__63fe271086600261151d6140b3565b6040516001600160e01b031960e085901b168152600481019290925264ffffffffff16602482015260440160206040518083038186803b15801561156057600080fd5b505af4158015611574573d6000803e3d6000fd5b505050506040513d601f19601f820116820180604052508101906115989190614a84565b6116035760405162461bcd60e51b815260206004820152603660248201527f41432e6f776e65724f72446972656374426f6f6b65657065723a206e6569746860448201527532b91037bbb732b9103737b9103137b7b5b2b2b832b960511b606482015260840161061a565b73__$a374c895e6fa8c448878668e00d93ef99a$__6313a187d26002836116286140b3565b6040516001600160e01b031960e086901b1681526004810193909352602483019190915264ffffffffff16604482015233606482015260840160006040518083038186803b15801561167957600080fd5b505af415801561168d573d6000803e3d6000fd5b50506040518392507ff2735f34b69be1e6342dea95f9162f84d0db925fab655ca9f1f312ac8cbfc99d9150600090a250565b73__$a374c895e6fa8c448878668e00d93ef99a$__63ee98b31360028484610ba76140b3565b604051633b11adbf60e21b81526002600482015233602482015273__$a374c895e6fa8c448878668e00d93ef99a$__9063ec46b6fc9060440160206040518083038186803b15801561173657600080fd5b505af415801561174a573d6000803e3d6000fd5b505050506040513d601f19601f8201168201806040525081019061176e9190614a84565b61178a5760405162461bcd60e51b815260040161061a90614a9f565b604051636be8496f60e01b81523360048201526001600160a01b03821690636be8496f90602401600060405180830381600087803b1580156117cb57600080fd5b505af11580156117df573d6000803e3d6000fd5b50506040516001600160a01b03841692507f64dd6e84044f0067086012335dcfab3188db6615b5cc7debf18c9a621ebd5d919150600090a250565b604051630f07232560e01b8152600260048201526001600160a01b038216602482015233604482015273__$a374c895e6fa8c448878668e00d93ef99a$__90630f0723259060640160006040518083038186803b15801561187a57600080fd5b505af415801561188e573d6000803e3d6000fd5b50506040516001600160a01b03841692507fe435cbeab64e4eae6497b9d8289704bd709d624a80704ef3ca9af777534bc6ec9150600090a250565b604051633b11adbf60e21b81526002600482015233602482015273__$a374c895e6fa8c448878668e00d93ef99a$__9063ec46b6fc9060440160206040518083038186803b15801561191a57600080fd5b505af415801561192e573d6000803e3d6000fd5b505050506040513d601f19601f820116820180604052508101906119529190614a84565b61196e5760405162461bcd60e51b815260040161061a90614a9f565b6001546040805163682ebf0560e01b815290516000926001600160a01b03169163682ebf05916004808301926020929190829003018186803b1580156119b357600080fd5b505afa1580156119c7573d6000803e3d6000fd5b505050506040513d601f19601f820116820180604052508101906119eb91906148ab565b60405163568ad56960e11b8152600481018690529091506001906001600160a01b0383169063ad15aad2906024016104406040518083038186803b158015611a3257600080fd5b505afa158015611a46573d6000803e3d6000fd5b505050506040513d601f19601f82011682018060405250810190611a6a9190614e7e565b515161ffff1614611abd5760405162461bcd60e51b815260206004820152601e60248201527f424f474b2e54533a206e6f742061207375697461626c65206d6f74696f6e0000604482015260640161061a565b60405162b4faa960e61b81526004810185905260248101849052604481018390526001600160a01b03821690632d3eaa4090606401600060405180830381600087803b158015611b0c57600080fd5b505af1158015611b20573d6000803e3d6000fd5b50505050600160009054906101000a90046001600160a01b03166001600160a01b0316639262826d6040518163ffffffff1660e01b815260040160206040518083038186803b158015611b7257600080fd5b505afa158015611b86573d6000803e3d6000fd5b505050506040513d601f19601f82011682018060405250810190611baa91906148ab565b604051636998d28d60e01b815260048101859052602481018490526001600160a01b039190911690636998d28d906044015b600060405180830381600087803b158015611bf657600080fd5b505af11580156113d5573d6000803e3d6000fd5b604051632a3be56b60e21b815260026004820152602481018390526044810182905260009073__$a374c895e6fa8c448878668e00d93ef99a$__9063a8ef95ac9060640160206040518083038186803b158015611c6657600080fd5b505af4158015611c7a573d6000803e3d6000fd5b505050506040513d601f19601f82011682018060405250810190611c9e9190614a84565b9392505050565b73__$a374c895e6fa8c448878668e00d93ef99a$__639b48160c600283611cca6140b3565b6040516001600160e01b031960e086901b1681526004810193909352602483019190915264ffffffffff16604482015260640160006040518083038186803b158015611d1557600080fd5b505af4158015611d29573d6000803e3d6000fd5b50506040518392507f8b6f40f36b4ae8cc5f55e895036457c43da4ab1f80f58c46f5ff0d72a650033b9150600090a250565b60405163987ad15360e01b81526002600482015260009073__$a374c895e6fa8c448878668e00d93ef99a$__9063987ad15390602401610520565b73__$a374c895e6fa8c448878668e00d93ef99a$__63cc0d511b6002836114046140b3565b604051633b11adbf60e21b81526002600482015233602482015273__$a374c895e6fa8c448878668e00d93ef99a$__9063ec46b6fc9060440160206040518083038186803b158015611e0c57600080fd5b505af4158015611e20573d6000803e3d6000fd5b505050506040513d601f19601f82011682018060405250810190611e449190614a84565b611e605760405162461bcd60e51b815260040161061a90614a9f565b6001546040805163682ebf0560e01b815290516000926001600160a01b03169163682ebf05916004808301926020929190829003018186803b158015611ea557600080fd5b505afa158015611eb9573d6000803e3d6000fd5b505050506040513d601f19601f82011682018060405250810190611edd91906148ab565b60405163568ad56960e11b8152600481018690529091506002906001600160a01b0383169063ad15aad2906024016104406040518083038186803b158015611f2457600080fd5b505afa158015611f38573d6000803e3d6000fd5b505050506040513d601f19601f82011682018060405250810190611f5c9190614e7e565b515161ffff1614611faf5760405162461bcd60e51b815260206004820152601e60248201527f424f474b2e52443a206e6f742061207375697461626c65206d6f74696f6e0000604482015260640161061a565b60405162b4faa960e61b81526004810185905260248101849052604481018390526001600160a01b03821690632d3eaa4090606401600060405180830381600087803b158015611ffe57600080fd5b505af1158015612012573d6000803e3d6000fd5b50505050600160009054906101000a90046001600160a01b03166001600160a01b0316639262826d6040518163ffffffff1660e01b815260040160206040518083038186803b15801561206457600080fd5b505afa158015612078573d6000803e3d6000fd5b505050506040513d601f19601f8201168201806040525081019061209c91906148ab565b6001600160a01b031663015c98ce846040518263ffffffff1660e01b8152600401611bdc91815260200190565b604051633b11adbf60e21b81526002600482015233602482015273__$a374c895e6fa8c448878668e00d93ef99a$__9063ec46b6fc9060440160206040518083038186803b15801561211a57600080fd5b505af415801561212e573d6000803e3d6000fd5b505050506040513d601f19601f820116820180604052508101906121529190614a84565b61216e5760405162461bcd60e51b815260040161061a90614a9f565b612178848261410d565b600160009054906101000a90046001600160a01b03166001600160a01b031663682ebf056040518163ffffffff1660e01b815260040160206040518083038186803b1580156121c657600080fd5b505afa1580156121da573d6000803e3d6000fd5b505050506040513d601f19601f820116820180604052508101906121fe91906148ab565b60405163a0d100ef60e01b8152600481018690526024810185905260448101849052606481018390526001600160a01b03919091169063a0d100ef90608401611bdc565b604051633b11adbf60e21b81526002600482015233602482015273__$a374c895e6fa8c448878668e00d93ef99a$__9063ec46b6fc9060440160206040518083038186803b15801561229357600080fd5b505af41580156122a7573d6000803e3d6000fd5b505050506040513d601f19601f820116820180604052508101906122cb9190614a84565b6122e75760405162461bcd60e51b815260040161061a90614a9f565b600154604080516319fdcb7760e11b8152905183926001600160a01b0316916333fb96ee916004808301926020929190829003018186803b15801561232b57600080fd5b505afa15801561233f573d6000803e3d6000fd5b505050506040513d601f19601f8201168201806040525081019061236391906148ab565b6001600160a01b031663d50c7377826040518263ffffffff1660e01b815260040161239091815260200190565b60206040518083038186803b1580156123a857600080fd5b505afa1580156123bc573d6000803e3d6000fd5b505050506040513d601f19601f820116820180604052508101906123e09190614a84565b806124e95750600160009054906101000a90046001600160a01b03166001600160a01b0316639262826d6040518163ffffffff1660e01b815260040160206040518083038186803b15801561243457600080fd5b505afa158015612448573d6000803e3d6000fd5b505050506040513d601f19601f8201168201806040525081019061246c91906148ab565b6001600160a01b0316639258effe826040518263ffffffff1660e01b815260040161249991815260200190565b60206040518083038186803b1580156124b157600080fd5b505afa1580156124c5573d6000803e3d6000fd5b505050506040513d601f19601f820116820180604052508101906124e99190614a84565b6125355760405162461bcd60e51b815260206004820152601f60248201527f424f474b2e6d663a206e6f74204d656d626572206f72204469726563746f7200604482015260640161061a565b600160009054906101000a90046001600160a01b03166001600160a01b031663682ebf056040518163ffffffff1660e01b815260040160206040518083038186803b15801561258357600080fd5b505afa158015612597573d6000803e3d6000fd5b505050506040513d601f19601f820116820180604052508101906125bb91906148ab565b6001600160a01b031663ab86a9d9898989898989896040518863ffffffff1660e01b81526004016125f29796959493929190614991565b602060405180830381600087803b15801561260c57600080fd5b505af1158015612620573d6000803e3d6000fd5b505050506040513d601f19601f820116820180604052508101906126449190614bda565b505050505050505050565b604051633b11adbf60e21b81526002600482015233602482015273__$a374c895e6fa8c448878668e00d93ef99a$__9063ec46b6fc9060440160206040518083038186803b1580156126a057600080fd5b505af41580156126b4573d6000803e3d6000fd5b505050506040513d601f19601f820116820180604052508101906126d89190614a84565b6126f45760405162461bcd60e51b815260040161061a90614a9f565b600154604080516319fdcb7760e11b8152905183926001600160a01b0316916333fb96ee916004808301926020929190829003018186803b15801561273857600080fd5b505afa15801561274c573d6000803e3d6000fd5b505050506040513d601f19601f8201168201806040525081019061277091906148ab565b6001600160a01b031663d50c7377826040518263ffffffff1660e01b815260040161279d91815260200190565b60206040518083038186803b1580156127b557600080fd5b505afa1580156127c9573d6000803e3d6000fd5b505050506040513d601f19601f820116820180604052508101906127ed9190614a84565b61282f5760405162461bcd60e51b81526020600482015260136024820152722127a3a59736b31d102727aa1026b2b6b132b960691b604482015260640161061a565b6001546040805163682ebf0560e01b815290516000926001600160a01b03169163682ebf05916004808301926020929190829003018186803b15801561287457600080fd5b505afa158015612888573d6000803e3d6000fd5b505050506040513d601f19601f820116820180604052508101906128ac91906148ab565b6040516336a2ddaf60e21b81526001600160a01b03888116600483015260248201889052604482018790526064820186905291925060009183169063da8b76bc90608401602060405180830381600087803b15801561290a57600080fd5b505af115801561291e573d6000803e3d6000fd5b505050506040513d601f19601f820116820180604052508101906129429190614bda565b90506009861080156129c7575060405163143b4f6f60e11b8152600481018590526001600160a01b038816906328769ede9060240160206040518083038186803b15801561298f57600080fd5b505afa1580156129a3573d6000803e3d6000fd5b505050506040513d601f19601f820116820180604052508101906129c79190614a84565b15610b785760405163ec83613b60e01b81526001600160401b0382166004820152602481018590526001600160a01b0383169063ec83613b90604401600060405180830381600087803b158015612a1d57600080fd5b505af1158015612a31573d6000803e3d6000fd5b5050505085600814612b3457600160009054906101000a90046001600160a01b03166001600160a01b031663acd2d0576040518163ffffffff1660e01b815260040160206040518083038186803b158015612a8b57600080fd5b505afa158015612a9f573d6000803e3d6000fd5b505050506040513d601f19601f82011682018060405250810190612ac391906148ab565b60405163055ad79f60e41b81526001600160a01b0389811660048301526001600160401b038416602483015291909116906355ad79f090604401600060405180830381600087803b158015612b1757600080fd5b505af1158015612b2b573d6000803e3d6000fd5b50505050610b78565b600160009054906101000a90046001600160a01b03166001600160a01b031663b613bb4c6040518163ffffffff1660e01b815260040160206040518083038186803b158015612b8257600080fd5b505afa158015612b96573d6000803e3d6000fd5b505050506040513d601f19601f82011682018060405250810190612bba91906148ab565b60405163055ad79f60e41b81526001600160a01b0389811660048301526001600160401b038416602483015291909116906355ad79f090604401600060405180830381600087803b158015612c0e57600080fd5b505af1158015612c22573d6000803e3d6000fd5b5050505050505050505050565b604051636cdd0edf60e11b815260026004820152602481018590526001600160a01b038416604482015273__$a374c895e6fa8c448878668e00d93ef99a$__9063d9ba1dbe9060640160006040518083038186803b158015612c9057600080fd5b505af4158015612ca4573d6000803e3d6000fd5b50505050612cb1826142eb565b612cba8161435e565b6040516001600160a01b038381168252808316919085169086907f3abb2418c66fe32ba9c883030a75ce583971d9af9192b9b74e44e67c5e6c8c1f9060200160405180910390a450505050565b604051633b11adbf60e21b81526002600482015233602482015273__$a374c895e6fa8c448878668e00d93ef99a$__9063ec46b6fc9060440160206040518083038186803b158015612d5857600080fd5b505af4158015612d6c573d6000803e3d6000fd5b505050506040513d601f19601f82011682018060405250810190612d909190614a84565b80612e1157506001546040516335d2155560e11b81523360048201526001600160a01b0390911690636ba42aaa9060240160206040518083038186803b158015612dd957600080fd5b505afa158015612ded573d6000803e3d6000fd5b505050506040513d601f19601f82011682018060405250810190612e119190614a84565b612e515760405162461bcd60e51b815260206004820152601160248201527020a19737b59d103737ba1025b2b2b832b960791b604482015260640161061a565b600160009054906101000a90046001600160a01b03166001600160a01b031663682ebf056040518163ffffffff1660e01b815260040160206040518083038186803b158015612e9f57600080fd5b505afa158015612eb3573d6000803e3d6000fd5b505050506040513d601f19601f82011682018060405250810190612ed791906148ab565b60405163ec83613b60e01b815260048101849052602481018390526001600160a01b03919091169063ec83613b90604401600060405180830381600087803b158015612f2257600080fd5b505af1158015610c0b573d6000803e3d6000fd5b604051633c3e56c160e11b81526002600482015260009073__$a374c895e6fa8c448878668e00d93ef99a$__9063787cad829060240160206040518083038186803b158015612f8457600080fd5b505af4158015612f98573d6000803e3d6000fd5b505050506040513d601f19601f8201168201806040525081019061057091906148ab565b600254600160f01b900460ff166001146130185760405162461bcd60e51b815260206004820152601760248201527f41432e4c433a20446f632069732066696e616c697a6564000000000000000000604482015260640161061a565b73__$a374c895e6fa8c448878668e00d93ef99a$__63c51b295f6002684174746f726e65797360b81b6130496140b3565b6040516001600160e01b031960e086901b1681526004810193909352602483019190915264ffffffffff16604482015260640160006040518083038186803b15801561309457600080fd5b505af41580156130a8573d6000803e3d6000fd5b50505050600273__$a374c895e6fa8c448878668e00d93ef99a$__6313a187d2909160006130d46140b3565b6040516001600160e01b031960e086901b1681526004810193909352602483019190915264ffffffffff16604482015233606482015260840160006040518083038186803b15801561312557600080fd5b505af4158015613139573d6000803e3d6000fd5b50505050600273__$a374c895e6fa8c448878668e00d93ef99a$__639b48160c909160006131656140b3565b6040516001600160e01b031960e086901b1681526004810193909352602483019190915264ffffffffff16604482015260640160006040518083038186803b1580156131b057600080fd5b505af41580156131c4573d6000803e3d6000fd5b50506002805460ff60f01b1916600160f11b17905550506040517f35012b512309c322acf68632cd6cb702ff0e1d776fbe9394e38ffc13b434fe7590600090a1565b604051633b11adbf60e21b81526002600482015233602482015273__$a374c895e6fa8c448878668e00d93ef99a$__9063ec46b6fc9060440160206040518083038186803b15801561325757600080fd5b505af415801561326b573d6000803e3d6000fd5b505050506040513d601f19601f8201168201806040525081019061328f9190614a84565b6132ab5760405162461bcd60e51b815260040161061a90614a9f565b600154604080516319fdcb7760e11b8152905183926001600160a01b0316916333fb96ee916004808301926020929190829003018186803b1580156132ef57600080fd5b505afa158015613303573d6000803e3d6000fd5b505050506040513d601f19601f8201168201806040525081019061332791906148ab565b6001600160a01b031663d50c7377826040518263ffffffff1660e01b815260040161335491815260200190565b60206040518083038186803b15801561336c57600080fd5b505afa158015613380573d6000803e3d6000fd5b505050506040513d601f19601f820116820180604052508101906133a49190614a84565b6133e65760405162461bcd60e51b81526020600482015260136024820152722127a3a59736b31d102727aa1026b2b6b132b960691b604482015260640161061a565b6001546040805163682ebf0560e01b815290516000926001600160a01b03169163682ebf05916004808301926020929190829003018186803b15801561342b57600080fd5b505afa15801561343f573d6000803e3d6000fd5b505050506040513d601f19601f8201168201806040525081019061346391906148ab565b90506000600160009054906101000a90046001600160a01b03166001600160a01b03166333fb96ee6040518163ffffffff1660e01b815260040160206040518083038186803b1580156134b557600080fd5b505afa1580156134c9573d6000803e3d6000fd5b505050506040513d601f19601f820116820180604052508101906134ed91906148ab565b60405163568ad56960e11b8152600481018790529091506000906001600160a01b0384169063ad15aad2906024016104406040518083038186803b15801561353457600080fd5b505afa158015613548573d6000803e3d6000fd5b505050506040513d601f19601f8201168201806040525081019061356c9190614e7e565b6040805161012081018252600080825260208201819052818301819052606082018190526080820181905260a0820181905260c0820181905260e0820181905261010082018190529151630597757b60e21b8152600481018a905260248101839052929350916001600160a01b0386169063165dd5ec9060440160006040518083038186803b1580156135fe57600080fd5b505afa158015613612573d6000803e3d6000fd5b505050506040513d6000823e601f3d908101601f1916820160405261363a9190810190614fbb565b90506000846001600160a01b031663e4df91006040518163ffffffff1660e01b815260040160206040518083038186803b15801561367757600080fd5b505afa15801561368b573d6000803e3d6000fd5b505050506040513d601f19601f820116820180604052508101906136af9190614a84565b6137465760208401516040908101519051632e94bd2b60e21b815265ffffffffffff90911660048201526001600160a01b0386169063ba52f4ac9060240160806040518083038186803b15801561370557600080fd5b505afa158015613719573d6000803e3d6000fd5b505050506040513d601f19601f8201168201806040525081019061373d919061505f565b602001516137d5565b60208401516040908101519051632e94bd2b60e21b815265ffffffffffff90911660048201526001600160a01b0386169063ba52f4ac9060240160806040518083038186803b15801561379857600080fd5b505afa1580156137ac573d6000803e3d6000fd5b505050506040513d601f19601f820116820180604052508101906137d0919061505f565b604001515b90508082602001516127106137ea91906150f1565b6137f49190615120565b61ffff1660a0840152604084015160c001511561382d57815163ffffffff1683526020808301516001600160401b031690840152613bd0565b846001600160a01b03166329d01b3a6040518163ffffffff1660e01b815260040160206040518083038186803b15801561386657600080fd5b505afa15801561387a573d6000803e3d6000fd5b505050506040513d601f19601f8201168201806040525081019061389e9190615154565b63ffffffff1683526001600160401b0381166020840152604084015160e001511561390757815183516138d1919061516f565b63ffffffff166040840152602080830151908401516138f09190615194565b6001600160401b0316606084015261271060a08401525b83515161ffff1660031415613bd057600084606001516001600160a01b031663a8311aa86040518163ffffffff1660e01b815260040160006040518083038186803b15801561395557600080fd5b505afa158015613969573d6000803e3d6000fd5b505050506040513d6000823e601f3d908101601f1916820160405261399191908101906151b4565b80519091505b8015613bcd5760006001600160a01b038816632bf82aab846139ba6001866151f0565b815181106139ca576139ca615207565b60200260200101518960200151604001516040518363ffffffff1660e01b8152600401613a0992919091825265ffffffffffff16602082015260400190565b60206040518083038186803b158015613a2157600080fd5b505afa158015613a35573d6000803e3d6000fd5b505050506040513d601f19601f82011682018060405250810190613a599190614bda565b90506001600160401b03811615613bba578660400151610100015115613af457866040015160e00151613aef5760408601805190613a968261521d565b63ffffffff16905250606086018051829190613ab3908390615241565b6001600160401b031690525083613acc826127106150f1565b613ad69190615120565b8660a001818151613ae7919061526c565b61ffff169052505b613bba565b855186613b0082615289565b63ffffffff16905250602086018051829190613b1d908390615194565b6001600160401b0316905250604087015160e0015115613b755760408601805190613b4782615289565b63ffffffff16905250606086018051829190613b64908390615194565b6001600160401b0316905250613ba5565b83613b82826127106150f1565b613b8c9190615120565b8660a001818151613b9d919061526c565b61ffff169052505b855163ffffffff16613bba5760016101008701525b81613bc4816152a9565b92505050613997565b50505b6000806001600160a01b0316600160009054906101000a90046001600160a01b03166001600160a01b031663a61adc286040518163ffffffff1660e01b815260040160206040518083038186803b158015613c2a57600080fd5b505afa158015613c3e573d6000803e3d6000fd5b505050506040513d601f19601f82011682018060405250810190613c6291906148ab565b6001600160a01b03161480613e0c5750600160009054906101000a90046001600160a01b03166001600160a01b031663a61adc286040518163ffffffff1660e01b815260040160206040518083038186803b158015613cc057600080fd5b505afa158015613cd4573d6000803e3d6000fd5b505050506040513d601f19601f82011682018060405250810190613cf891906148ab565b604051634846203760e01b8152600060048201526001600160a01b03919091169063484620379060240160206040518083038186803b158015613d3a57600080fd5b505afa158015613d4e573d6000803e3d6000fd5b505050506040513d601f19601f82011682018060405250810190613d729190614a26565b604051633d315f5b60e21b8152600481019190915273__$fd7bbdaedbcbc33e1887256b0ab47b2b43$__9063f4c57d6c906024016102206040518083038186803b158015613dbf57600080fd5b505af4158015613dd3573d6000803e3d6000fd5b505050506040513d601f19601f82011682018060405250810190613df791906152c0565b610120015161ffff168460a0015161ffff1610155b90506000600360ff16886001600160a01b031663f04e47ab848e896040518463ffffffff1660e01b8152600401613e45939291906153fb565b602060405180830381600087803b158015613e5f57600080fd5b505af1158015613e73573d6000803e3d6000fd5b505050506040513d601f19601f82011682018060405250810190613e9791906154b8565b60ff16149050600986600001516040015161ffff161015612c2257606086015186516040015161ffff1660081415613fb957600160009054906101000a90046001600160a01b03166001600160a01b031663b613bb4c6040518163ffffffff1660e01b815260040160206040518083038186803b158015613f1757600080fd5b505afa158015613f2b573d6000803e3d6000fd5b505050506040513d601f19601f82011682018060405250810190613f4f91906148ab565b6040516328426ce960e11b81526001600160a01b03838116600483015284151560248301529190911690635084d9d290604401600060405180830381600087803b158015613f9c57600080fd5b505af1158015613fb0573d6000803e3d6000fd5b505050506140a5565b600160009054906101000a90046001600160a01b03166001600160a01b031663acd2d0576040518163ffffffff1660e01b815260040160206040518083038186803b15801561400757600080fd5b505afa15801561401b573d6000803e3d6000fd5b505050506040513d601f19601f8201168201806040525081019061403f91906148ab565b6040516328426ce960e11b81526001600160a01b03838116600483015284151560248301529190911690635084d9d290604401600060405180830381600087803b15801561408c57600080fd5b505af11580156140a0573d6000803e3d6000fd5b505050505b505050505050505050505050565b60008054604051636ae3b70d60e11b81523360048201526001600160a01b039091169063d5c76e1a90602401602060405180830381600087803b1580156140f957600080fd5b505af115801561054c573d6000803e3d6000fd5b6001546040805163682ebf0560e01b815290516000926001600160a01b03169163682ebf05916004808301926020929190829003018186803b15801561415257600080fd5b505afa158015614166573d6000803e3d6000fd5b505050506040513d601f19601f8201168201806040525081019061418a91906148ab565b6001600160a01b031663ad15aad2846040518263ffffffff1660e01b81526004016141b791815260200190565b6104406040518083038186803b1580156141d057600080fd5b505afa1580156141e4573d6000803e3d6000fd5b505050506040513d601f19601f820116820180604052508101906142089190614e7e565b80515190915061ffff16600314156142e657606081015160405163143b4f6f60e11b8152600481018490526001600160a01b038216906328769ede9060240160206040518083038186803b15801561425f57600080fd5b505afa158015614273573d6000803e3d6000fd5b505050506040513d601f19601f820116820180604052508101906142979190614a84565b156142e45760405162461bcd60e51b815260206004820152601960248201527f424f474b2e41433a2069732072656c6174656420706172747900000000000000604482015260640161061a565b505b505050565b6000546001600160a01b03161561433c5760405162461bcd60e51b815260206004820152601560248201527430b63932b0b23c9039b2ba103932b3a1b2b73a32b960591b604482015260640161061a565b600080546001600160a01b0319166001600160a01b0392909216919091179055565b6001546001600160a01b0316156143b75760405162461bcd60e51b815260206004820152601960248201527f616c7265616479207365742067656e6572616c4b656570657200000000000000604482015260640161061a565b600180546001600160a01b0319166001600160a01b0392909216919091179055565b634e487b7160e01b600052604160045260246000fd5b60405161012081016001600160401b0381118282101715614412576144126143d9565b60405290565b60405160e081016001600160401b0381118282101715614412576144126143d9565b60405161024081016001600160401b0381118282101715614412576144126143d9565b604051608081016001600160401b0381118282101715614412576144126143d9565b60405161022081016001600160401b0381118282101715614412576144126143d9565b604051601f8201601f191681016001600160401b03811182821017156144ca576144ca6143d9565b604052919050565b60006001600160401b038211156144eb576144eb6143d9565b5060051b60200190565b6001600160a01b038116811461450a57600080fd5b50565b600082601f83011261451e57600080fd5b8135602061453361452e836144d2565b6144a2565b82815260059290921b8401810191818101908684111561455257600080fd5b8286015b8481101561456d5780358352918301918301614556565b509695505050505050565b6000601f838184011261458a57600080fd5b8235602061459a61452e836144d2565b82815260059290921b850181019181810190878411156145b957600080fd5b8287015b8481101561464f5780356001600160401b03808211156145dd5760008081fd5b818a0191508a603f8301126145f25760008081fd5b85820135604082821115614608576146086143d9565b614619828b01601f191689016144a2565b92508183528c818386010111156146305760008081fd5b81818501898501375060009082018701528452509183019183016145bd565b50979650505050505050565b600080600080600080600060e0888a03121561467657600080fd5b873596506020808901356001600160401b038082111561469557600080fd5b818b0191508b601f8301126146a957600080fd5b81356146b761452e826144d2565b81815260059190911b8301840190848101908e8311156146d657600080fd5b938501935b828510156146fd5784356146ee816144f5565b825293850193908501906146db565b9a50505060408b013592508083111561471557600080fd5b6147218c848d0161450d565b975060608b013592508083111561473757600080fd5b50506147458a828b01614578565b979a969950949760808101359660a0820135965060c090910135945092505050565b6000806040838503121561477a57600080fd5b50508035926020909101359150565b60008060006060848603121561479e57600080fd5b505081359360208301359350604090920135919050565b6000602082840312156147c757600080fd5b5035919050565b6000602082840312156147e057600080fd5b8135611c9e816144f5565b6000806000806080858703121561480157600080fd5b5050823594602084013594506040840135936060013592509050565b6000806000806080858703121561483357600080fd5b843561483e816144f5565b966020860135965060408601359560600135945092505050565b6000806000806080858703121561486e57600080fd5b843593506020850135614880816144f5565b92506040850135614890816144f5565b915060608501356148a0816144f5565b939692955090935050565b6000602082840312156148bd57600080fd5b8151611c9e816144f5565b600081518084526020808501945080840160005b838110156148f8578151875295820195908201906001016148dc565b509495945050505050565b600081518084526020808501808196508360051b810191508286016000805b86811015614983578385038a5282518051808752835b81811015614953578281018901518882018a01528801614938565b81811115614963578489838a0101525b509a87019a601f01601f1916959095018601945091850191600101614922565b509298975050505050505050565b600060e08201898352602060e081850152818a5180845261010086019150828c01935060005b818110156149dc5784516001600160a01b0316835293830193918301916001016149b7565b505084810360408601526149f0818b6148c8565b925050508281036060840152614a068188614903565b6080840196909652505060a081019290925260c090910152949350505050565b600060208284031215614a3857600080fd5b5051919050565b805164ffffffffff81168114614a5457600080fd5b919050565b600060208284031215614a6b57600080fd5b611c9e82614a3f565b80518015158114614a5457600080fd5b600060208284031215614a9657600080fd5b611c9e82614a74565b60208082526026908201527f41432e6f6e6c794469726563744b65657065723a206e6f74206469726563742060408201526535b2b2b832b960d11b606082015260800190565b805161ffff81168114614a5457600080fd5b805165ffffffffffff81168114614a5457600080fd5b60006101208284031215614b2057600080fd5b614b286143ef565b614b3183614ae5565b8152614b3f60208401614ae5565b6020820152614b5060408401614a3f565b6040820152614b6160608401614a3f565b6060820152614b7260808401614af7565b6080820152614b8360a08401614af7565b60a0820152614b9460c08401614ae5565b60c0820152614ba560e08401614ae5565b60e0820152610100614bb8818501614ae5565b908201529392505050565b80516001600160401b0381168114614a5457600080fd5b600060208284031215614bec57600080fd5b611c9e82614bc3565b805163ffffffff81168114614a5457600080fd5b805160ff81168114614a5457600080fd5b600060e08284031215614c2c57600080fd5b614c34614418565b9050614c3f82614a3f565b8152614c4d60208301614af7565b6020820152614c5e60408301614af7565b6040820152614c6f60608301614af7565b6060820152614c8060808301614af7565b6080820152614c9160a08301614ae5565b60a0820152614ca260c08301614c09565b60c082015292915050565b600082601f830112614cbe57600080fd5b604051604081018181106001600160401b0382111715614ce057614ce06143d9565b8060405250806040840185811115614cf757600080fd5b845b81811015614d1857614d0a81614a3f565b835260209283019201614cf9565b509195945050505050565b60006102608284031215614d3657600080fd5b614d3e61443a565b9050614d4982614ae5565b8152614d5760208301614c09565b6020820152614d6860408301614c09565b6040820152614d7960608301614ae5565b6060820152614d8a60808301614ae5565b6080820152614d9b60a08301614ae5565b60a0820152614dac60c08301614a74565b60c0820152614dbd60e08301614a74565b60e0820152610100614dd0818401614a74565b90820152610120614de2838201614a74565b90820152610140614df4838201614c09565b90820152610160614e06838201614c09565b90820152610180614e18838201614c09565b908201526101a0614e2a838201614c09565b908201526101c0614e3c838201614c09565b908201526101e0614e4e838201614c09565b90820152610200614e6184848301614cad565b90820152614e726102408301614ae5565b61022082015292915050565b6000818303610440811215614e9257600080fd5b614e9a61445d565b60e0821215614ea857600080fd5b614eb0614418565b9150614ebb84614ae5565b8252614ec960208501614bc3565b6020830152614eda60408501614ae5565b6040830152614eeb60608501614a3f565b6060830152614efc60808501614a3f565b6080830152614f0d60a08501614af7565b60a0830152614f1e60c08501614bf5565b60c0830152818152614f338560e08601614c1a565b6020820152614f46856101c08601614d23565b604082015261042093909301516060840152509092915050565b600082601f830112614f7157600080fd5b81516020614f8161452e836144d2565b82815260059290921b84018101918181019086841115614fa057600080fd5b8286015b8481101561456d5780518352918301918301614fa4565b600060208284031215614fcd57600080fd5b81516001600160401b0380821115614fe457600080fd5b9083019060608286031215614ff857600080fd5b604051606081018181108382111715615013576150136143d9565b60405261501f83614bf5565b815261502d60208401614bc3565b602082015260408301518281111561504457600080fd5b61505087828601614f60565b60408301525095945050505050565b60006080828403121561507157600080fd5b604051608081018181106001600160401b0382111715615093576150936143d9565b60405261509f83614af7565b81526150ad60208401614bc3565b60208201526150be60408401614bc3565b60408201526150cf60608401614bc3565b60608201529392505050565b634e487b7160e01b600052601160045260246000fd5b60006001600160401b0380831681851681830481118215151615615117576151176150db565b02949350505050565b60006001600160401b038084168061514857634e487b7160e01b600052601260045260246000fd5b92169190910492915050565b60006020828403121561516657600080fd5b611c9e82614bf5565b600063ffffffff8381169083168181101561518c5761518c6150db565b039392505050565b60006001600160401b038381169083168181101561518c5761518c6150db565b6000602082840312156151c657600080fd5b81516001600160401b038111156151dc57600080fd5b6151e884828501614f60565b949350505050565b600082821015615202576152026150db565b500390565b634e487b7160e01b600052603260045260246000fd5b600063ffffffff80831681811415615237576152376150db565b6001019392505050565b60006001600160401b03808316818516808303821115615263576152636150db565b01949350505050565b600061ffff808316818516808303821115615263576152636150db565b600063ffffffff82168061529f5761529f6150db565b6000190192915050565b6000816152b8576152b86150db565b506000190190565b600061022082840312156152d357600080fd5b6152db61447f565b6152e483614ae5565b81526152f260208401614c09565b602082015261530360408401614c09565b604082015261531460608401614a74565b606082015261532560808401614ae5565b608082015261533660a08401614ae5565b60a082015261534760c08401614ae5565b60c082015261535860e08401614ae5565b60e082015261010061536b818501614ae5565b9082015261012061537d848201614ae5565b9082015261014061538f848201614c09565b908201526101606153a1848201614ae5565b908201526101806153b3848201614ae5565b908201526101a06153c5848201614af7565b908201526101c06153d7848201614c09565b908201526101e06153e9848201614c09565b90820152610200614bb8848201614ae5565b600061016082019050841515825283602083015263ffffffff83511660408301526001600160401b0360208401511660608301526040830151615446608084018263ffffffff169052565b5060608301516001600160401b03811660a084015250608083015161ffff811660c08401525060a083015161ffff811660e08401525060c08301516101006154938185018361ffff169052565b60e085015160ff16610120850152909301511515610140909201919091529392505050565b6000602082840312156154ca57600080fd5b611c9e82614c0956fea2646970667358221220adc5fd5dbc8079b891361a7e8481d81b1e011738250eff2ab6df81a92b44987e64736f6c63430008080033",
    "sourcePath": "/Users/kaptain/github.com/comboox/comboox/contracts/keepers/BOGKeeper.sol",
    "compiler": {
        "name": "solc",
        "version": "0.8.8+commit.dddeac2f"
    },
    "functionHashes": {
        "abandonRole(bytes32)": "3da9a600",
        "castVoteOfGM(uint256,uint256,bytes32,uint256)": "a8459ac0",
        "createActionOfGM(uint256,address[],uint256[],bytes[],bytes32,uint256,uint256)": "acd4aa7b",
        "createMotionToRemoveDirector(uint256,uint256)": "142ed327",
        "entrustDelegaterForGeneralMeeting(uint256,uint256,uint256)": "34880524",
        "execActionOfGM(uint256,address[],uint256[],bytes[],bytes32,uint256,uint256)": "020c814d",
        "finalized()": "b3f05b97",
        "getBookeeper()": "ed211023",
        "getGeneralCounsel()": "103f6edd",
        "getOwner()": "893d20e8",
        "grantRole(bytes32,uint256)": "1b6ea9f9",
        "hasRole(bytes32,uint256)": "7e063c5a",
        "init(uint256,address,address,address)": "dc890da9",
        "lockContents()": "f045a769",
        "nominateDirector(uint256,uint256,uint256)": "3c44bcb6",
        "proposeDocOfGM(address,uint256,uint256,uint256)": "d0e27e10",
        "proposeMotionToGeneralMeeting(uint256,uint256)": "ec83613b",
        "removeDirectKeeper(address)": "5d7ad88f",
        "removeDirector(uint256,uint256,uint256)": "906149f1",
        "renounceRole(bytes32)": "8bb9c5bf",
        "revokeRole(bytes32,uint256)": "19d61ad9",
        "setDirectKeeper(address)": "6be8496f",
        "setGeneralCounsel(uint256)": "4a14beb1",
        "setOwner(uint256)": "8041494e",
        "setRoleAdmin(bytes32,uint256)": "5171ebd4",
        "takeSeat(uint256,uint256,uint256)": "7451ce03",
        "voteCountingOfGM(uint256,uint256)": "f1e9e7f7"
    },
    "gasEstimates": {
        "creation": {
            "codeDepositCost": "4353800",
            "executionCost": "5042",
            "totalCost": "4358842"
        },
        "external": {
            "abandonRole(bytes32)": "infinite",
            "castVoteOfGM(uint256,uint256,bytes32,uint256)": "infinite",
            "createActionOfGM(uint256,address[],uint256[],bytes[],bytes32,uint256,uint256)": "infinite",
            "createMotionToRemoveDirector(uint256,uint256)": "infinite",
            "entrustDelegaterForGeneralMeeting(uint256,uint256,uint256)": "infinite",
            "execActionOfGM(uint256,address[],uint256[],bytes[],bytes32,uint256,uint256)": "infinite",
            "finalized()": "2372",
            "getBookeeper()": "infinite",
            "getGeneralCounsel()": "infinite",
            "getOwner()": "infinite",
            "grantRole(bytes32,uint256)": "infinite",
            "hasRole(bytes32,uint256)": "infinite",
            "init(uint256,address,address,address)": "infinite",
            "lockContents()": "infinite",
            "nominateDirector(uint256,uint256,uint256)": "infinite",
            "proposeDocOfGM(address,uint256,uint256,uint256)": "infinite",
            "proposeMotionToGeneralMeeting(uint256,uint256)": "infinite",
            "removeDirectKeeper(address)": "infinite",
            "removeDirector(uint256,uint256,uint256)": "infinite",
            "renounceRole(bytes32)": "infinite",
            "revokeRole(bytes32,uint256)": "infinite",
            "setDirectKeeper(address)": "infinite",
            "setGeneralCounsel(uint256)": "infinite",
            "setOwner(uint256)": "infinite",
            "setRoleAdmin(bytes32,uint256)": "infinite",
            "takeSeat(uint256,uint256,uint256)": "infinite",
            "voteCountingOfGM(uint256,uint256)": "infinite"
        },
        "internal": {
            "_avoidanceCheck(uint256,uint256)": "infinite"
        }
    }
}