{
    "contractName": "BOGKeeper",
    "abi": [
        {
            "anonymous": false,
            "inputs": [
                {
                    "indexed": false,
                    "internalType": "uint40",
                    "name": "owner",
                    "type": "uint40"
                },
                {
                    "indexed": false,
                    "internalType": "address",
                    "name": "directKeeper",
                    "type": "address"
                },
                {
                    "indexed": false,
                    "internalType": "address",
                    "name": "regCenter",
                    "type": "address"
                },
                {
                    "indexed": false,
                    "internalType": "address",
                    "name": "generalKeeper",
                    "type": "address"
                }
            ],
            "name": "Init",
            "type": "event"
        },
        {
            "anonymous": false,
            "inputs": [],
            "name": "LockContents",
            "type": "event"
        },
        {
            "anonymous": false,
            "inputs": [
                {
                    "indexed": false,
                    "internalType": "address",
                    "name": "keeper",
                    "type": "address"
                }
            ],
            "name": "SetDirectKeeper",
            "type": "event"
        },
        {
            "anonymous": false,
            "inputs": [
                {
                    "indexed": false,
                    "internalType": "uint256",
                    "name": "acct",
                    "type": "uint256"
                }
            ],
            "name": "SetGeneralCounsel",
            "type": "event"
        },
        {
            "anonymous": false,
            "inputs": [
                {
                    "indexed": false,
                    "internalType": "address",
                    "name": "gk",
                    "type": "address"
                }
            ],
            "name": "SetGeneralKeeper",
            "type": "event"
        },
        {
            "anonymous": false,
            "inputs": [
                {
                    "indexed": false,
                    "internalType": "uint256",
                    "name": "acct",
                    "type": "uint256"
                }
            ],
            "name": "SetOwner",
            "type": "event"
        },
        {
            "anonymous": false,
            "inputs": [
                {
                    "indexed": false,
                    "internalType": "address",
                    "name": "rc",
                    "type": "address"
                }
            ],
            "name": "SetRegCenter",
            "type": "event"
        },
        {
            "inputs": [
                {
                    "internalType": "bytes32",
                    "name": "role",
                    "type": "bytes32"
                }
            ],
            "name": "abandonRole",
            "outputs": [],
            "stateMutability": "nonpayable",
            "type": "function"
        },
        {
            "inputs": [],
            "name": "boaAddr",
            "outputs": [
                {
                    "internalType": "address",
                    "name": "",
                    "type": "address"
                }
            ],
            "stateMutability": "view",
            "type": "function"
        },
        {
            "inputs": [],
            "name": "bodAddr",
            "outputs": [
                {
                    "internalType": "address",
                    "name": "",
                    "type": "address"
                }
            ],
            "stateMutability": "view",
            "type": "function"
        },
        {
            "inputs": [],
            "name": "bohAddr",
            "outputs": [
                {
                    "internalType": "address",
                    "name": "",
                    "type": "address"
                }
            ],
            "stateMutability": "view",
            "type": "function"
        },
        {
            "inputs": [],
            "name": "bomAddr",
            "outputs": [
                {
                    "internalType": "address",
                    "name": "",
                    "type": "address"
                }
            ],
            "stateMutability": "view",
            "type": "function"
        },
        {
            "inputs": [],
            "name": "booAddr",
            "outputs": [
                {
                    "internalType": "address",
                    "name": "",
                    "type": "address"
                }
            ],
            "stateMutability": "view",
            "type": "function"
        },
        {
            "inputs": [],
            "name": "bosAddr",
            "outputs": [
                {
                    "internalType": "address",
                    "name": "",
                    "type": "address"
                }
            ],
            "stateMutability": "view",
            "type": "function"
        },
        {
            "inputs": [
                {
                    "internalType": "uint256",
                    "name": "motionId",
                    "type": "uint256"
                },
                {
                    "internalType": "uint40",
                    "name": "caller",
                    "type": "uint40"
                },
                {
                    "internalType": "uint8",
                    "name": "attitude",
                    "type": "uint8"
                },
                {
                    "internalType": "bytes32",
                    "name": "sigHash",
                    "type": "bytes32"
                }
            ],
            "name": "castVote",
            "outputs": [],
            "stateMutability": "nonpayable",
            "type": "function"
        },
        {
            "inputs": [],
            "name": "createBoardSeal",
            "outputs": [],
            "stateMutability": "nonpayable",
            "type": "function"
        },
        {
            "inputs": [],
            "name": "createCorpSeal",
            "outputs": [],
            "stateMutability": "nonpayable",
            "type": "function"
        },
        {
            "inputs": [
                {
                    "internalType": "uint256",
                    "name": "actionId",
                    "type": "uint256"
                },
                {
                    "internalType": "uint40",
                    "name": "caller",
                    "type": "uint40"
                },
                {
                    "internalType": "uint40",
                    "name": "delegate",
                    "type": "uint40"
                }
            ],
            "name": "entrustDelegate",
            "outputs": [],
            "stateMutability": "nonpayable",
            "type": "function"
        },
        {
            "inputs": [
                {
                    "internalType": "uint8",
                    "name": "actionType",
                    "type": "uint8"
                },
                {
                    "internalType": "address[]",
                    "name": "targets",
                    "type": "address[]"
                },
                {
                    "internalType": "uint256[]",
                    "name": "values",
                    "type": "uint256[]"
                },
                {
                    "internalType": "bytes[]",
                    "name": "params",
                    "type": "bytes[]"
                },
                {
                    "internalType": "bytes32",
                    "name": "desHash",
                    "type": "bytes32"
                },
                {
                    "internalType": "uint40",
                    "name": "caller",
                    "type": "uint40"
                }
            ],
            "name": "execAction",
            "outputs": [
                {
                    "internalType": "uint256",
                    "name": "",
                    "type": "uint256"
                }
            ],
            "stateMutability": "nonpayable",
            "type": "function"
        },
        {
            "inputs": [],
            "name": "finalized",
            "outputs": [
                {
                    "internalType": "bool",
                    "name": "",
                    "type": "bool"
                }
            ],
            "stateMutability": "view",
            "type": "function"
        },
        {
            "inputs": [],
            "name": "getBookeeper",
            "outputs": [
                {
                    "internalType": "address",
                    "name": "",
                    "type": "address"
                }
            ],
            "stateMutability": "view",
            "type": "function"
        },
        {
            "inputs": [],
            "name": "getGeneralCounsel",
            "outputs": [
                {
                    "internalType": "uint40",
                    "name": "",
                    "type": "uint40"
                }
            ],
            "stateMutability": "view",
            "type": "function"
        },
        {
            "inputs": [],
            "name": "getOwner",
            "outputs": [
                {
                    "internalType": "uint40",
                    "name": "",
                    "type": "uint40"
                }
            ],
            "stateMutability": "view",
            "type": "function"
        },
        {
            "inputs": [
                {
                    "internalType": "bytes32",
                    "name": "role",
                    "type": "bytes32"
                },
                {
                    "internalType": "uint40",
                    "name": "acct",
                    "type": "uint40"
                }
            ],
            "name": "grantRole",
            "outputs": [],
            "stateMutability": "nonpayable",
            "type": "function"
        },
        {
            "inputs": [
                {
                    "internalType": "bytes32",
                    "name": "role",
                    "type": "bytes32"
                },
                {
                    "internalType": "uint40",
                    "name": "acct",
                    "type": "uint40"
                }
            ],
            "name": "hasRole",
            "outputs": [
                {
                    "internalType": "bool",
                    "name": "",
                    "type": "bool"
                }
            ],
            "stateMutability": "view",
            "type": "function"
        },
        {
            "inputs": [
                {
                    "internalType": "uint40",
                    "name": "owner",
                    "type": "uint40"
                },
                {
                    "internalType": "address",
                    "name": "directKeeper",
                    "type": "address"
                },
                {
                    "internalType": "address",
                    "name": "regCenter",
                    "type": "address"
                },
                {
                    "internalType": "address",
                    "name": "generalKeeper",
                    "type": "address"
                }
            ],
            "name": "init",
            "outputs": [],
            "stateMutability": "nonpayable",
            "type": "function"
        },
        {
            "inputs": [],
            "name": "lockContents",
            "outputs": [],
            "stateMutability": "nonpayable",
            "type": "function"
        },
        {
            "inputs": [
                {
                    "internalType": "bytes32",
                    "name": "bsRule",
                    "type": "bytes32"
                },
                {
                    "internalType": "uint8",
                    "name": "seqOfTitle",
                    "type": "uint8"
                },
                {
                    "internalType": "uint40",
                    "name": "nominator",
                    "type": "uint40"
                },
                {
                    "internalType": "uint40",
                    "name": "candidate",
                    "type": "uint40"
                }
            ],
            "name": "nominateOfficer",
            "outputs": [],
            "stateMutability": "nonpayable",
            "type": "function"
        },
        {
            "inputs": [
                {
                    "internalType": "uint8",
                    "name": "actionType",
                    "type": "uint8"
                },
                {
                    "internalType": "address[]",
                    "name": "targets",
                    "type": "address[]"
                },
                {
                    "internalType": "uint256[]",
                    "name": "values",
                    "type": "uint256[]"
                },
                {
                    "internalType": "bytes[]",
                    "name": "params",
                    "type": "bytes[]"
                },
                {
                    "internalType": "bytes32",
                    "name": "desHash",
                    "type": "bytes32"
                },
                {
                    "internalType": "uint40",
                    "name": "submitter",
                    "type": "uint40"
                },
                {
                    "internalType": "uint40",
                    "name": "executor",
                    "type": "uint40"
                }
            ],
            "name": "proposeAction",
            "outputs": [],
            "stateMutability": "nonpayable",
            "type": "function"
        },
        {
            "inputs": [
                {
                    "internalType": "address",
                    "name": "doc",
                    "type": "address"
                },
                {
                    "internalType": "uint8",
                    "name": "seqOfVR",
                    "type": "uint8"
                },
                {
                    "internalType": "uint40",
                    "name": "caller",
                    "type": "uint40"
                }
            ],
            "name": "proposeDoc",
            "outputs": [],
            "stateMutability": "nonpayable",
            "type": "function"
        },
        {
            "inputs": [
                {
                    "internalType": "bytes32",
                    "name": "role",
                    "type": "bytes32"
                }
            ],
            "name": "renounceRole",
            "outputs": [],
            "stateMutability": "nonpayable",
            "type": "function"
        },
        {
            "inputs": [
                {
                    "internalType": "uint256",
                    "name": "motionId",
                    "type": "uint256"
                },
                {
                    "internalType": "bytes32",
                    "name": "snOfDeal",
                    "type": "bytes32"
                },
                {
                    "internalType": "uint40",
                    "name": "againstVoter",
                    "type": "uint40"
                },
                {
                    "internalType": "uint40",
                    "name": "caller",
                    "type": "uint40"
                }
            ],
            "name": "requestToBuy",
            "outputs": [],
            "stateMutability": "nonpayable",
            "type": "function"
        },
        {
            "inputs": [
                {
                    "internalType": "bytes32",
                    "name": "role",
                    "type": "bytes32"
                },
                {
                    "internalType": "uint40",
                    "name": "acct",
                    "type": "uint40"
                }
            ],
            "name": "revokeRole",
            "outputs": [],
            "stateMutability": "nonpayable",
            "type": "function"
        },
        {
            "inputs": [],
            "name": "romAddr",
            "outputs": [
                {
                    "internalType": "address",
                    "name": "",
                    "type": "address"
                }
            ],
            "stateMutability": "view",
            "type": "function"
        },
        {
            "inputs": [
                {
                    "internalType": "address",
                    "name": "boa",
                    "type": "address"
                }
            ],
            "name": "setBOA",
            "outputs": [],
            "stateMutability": "nonpayable",
            "type": "function"
        },
        {
            "inputs": [
                {
                    "internalType": "address",
                    "name": "bod",
                    "type": "address"
                }
            ],
            "name": "setBOD",
            "outputs": [],
            "stateMutability": "nonpayable",
            "type": "function"
        },
        {
            "inputs": [
                {
                    "internalType": "address",
                    "name": "boh",
                    "type": "address"
                }
            ],
            "name": "setBOH",
            "outputs": [],
            "stateMutability": "nonpayable",
            "type": "function"
        },
        {
            "inputs": [
                {
                    "internalType": "address",
                    "name": "bom",
                    "type": "address"
                }
            ],
            "name": "setBOM",
            "outputs": [],
            "stateMutability": "nonpayable",
            "type": "function"
        },
        {
            "inputs": [
                {
                    "internalType": "address",
                    "name": "boo",
                    "type": "address"
                }
            ],
            "name": "setBOO",
            "outputs": [],
            "stateMutability": "nonpayable",
            "type": "function"
        },
        {
            "inputs": [
                {
                    "internalType": "address",
                    "name": "bos",
                    "type": "address"
                }
            ],
            "name": "setBOS",
            "outputs": [],
            "stateMutability": "nonpayable",
            "type": "function"
        },
        {
            "inputs": [
                {
                    "internalType": "address",
                    "name": "keeper",
                    "type": "address"
                }
            ],
            "name": "setDirectKeeper",
            "outputs": [],
            "stateMutability": "nonpayable",
            "type": "function"
        },
        {
            "inputs": [
                {
                    "internalType": "uint40",
                    "name": "acct",
                    "type": "uint40"
                }
            ],
            "name": "setGeneralCounsel",
            "outputs": [],
            "stateMutability": "nonpayable",
            "type": "function"
        },
        {
            "inputs": [
                {
                    "internalType": "uint40",
                    "name": "acct",
                    "type": "uint40"
                }
            ],
            "name": "setOwner",
            "outputs": [],
            "stateMutability": "nonpayable",
            "type": "function"
        },
        {
            "inputs": [
                {
                    "internalType": "address",
                    "name": "rom",
                    "type": "address"
                }
            ],
            "name": "setROM",
            "outputs": [],
            "stateMutability": "nonpayable",
            "type": "function"
        },
        {
            "inputs": [
                {
                    "internalType": "bytes32",
                    "name": "role",
                    "type": "bytes32"
                },
                {
                    "internalType": "uint40",
                    "name": "acct",
                    "type": "uint40"
                }
            ],
            "name": "setRoleAdmin",
            "outputs": [],
            "stateMutability": "nonpayable",
            "type": "function"
        },
        {
            "inputs": [
                {
                    "internalType": "uint256",
                    "name": "motionId",
                    "type": "uint256"
                },
                {
                    "internalType": "uint40",
                    "name": "caller",
                    "type": "uint40"
                }
            ],
            "name": "voteCounting",
            "outputs": [],
            "stateMutability": "nonpayable",
            "type": "function"
        }
    ],
    "bytecode": "608060405234801561001057600080fd5b506149e1806100206000396000f3fe608060405234801561001057600080fd5b506004361061023c5760003560e01c8063893d20e81161013b578063bbd8b649116100b8578063e31f2d2c1161007c578063e31f2d2c146104df578063ed194c88146104f2578063ed21102314610503578063f045a7691461050b578063f6b061a11461051357600080fd5b8063bbd8b6491461048f578063cba36bf3146104a0578063d1a0ce56146104b3578063dbf1f4c4146104bb578063e10f01c7146104ce57600080fd5b8063ae26d1d0116100ff578063ae26d1d014610431578063b1b7439714610444578063b1f2108614610457578063b3f05b9714610468578063ba6bd79b1461047c57600080fd5b8063893d20e8146103e15780638aeb46c3146103e95780638bb9c5bf146103fa578063916d953c1461040d57806392cb91011461041e57600080fd5b80633da9a600116101c9578063740998151161018d578063740998151461037257806379b2ec12146103855780637ba706e8146103a857806381ab05cb146103bb578063821ee8ea146103ce57600080fd5b80633da9a600146103135780633fb2be3314610326578063569ff3ff14610339578063655ae9ed1461034c5780636be8496f1461035f57600080fd5b806316dc517e1161021057806316dc517e146102a257806317c51fec146102b5578063230750a1146102c857806327b65df2146102db5780633178a9a91461030057600080fd5b80624f4174146102415780630e91a0a714610267578063103f6edd1461027c57806314d3cb851461029a575b600080fd5b61025461024f366004613e4f565b610526565b6040519081526020015b60405180910390f35b61027a610275366004613f07565b610757565b005b61028461091f565b60405164ffffffffff909116815260200161025e565b61027a6109ab565b61027a6102b0366004613f07565b610aae565b61027a6102c3366004613f07565b610b44565b61027a6102d6366004613f37565b610b69565b6008546001600160a01b03165b6040516001600160a01b03909116815260200161025e565b61027a61030e366004613f54565b610c31565b61027a610321366004613f71565b610e2b565b61027a610334366004613f8a565b610f3e565b61027a610347366004613f37565b6118d6565b61027a61035a366004613f37565b61199e565b61027a61036d366004613f37565b611a66565b61027a610380366004613f07565b611b18565b610398610393366004613f07565b611b3d565b604051901515815260200161025e565b61027a6103b6366004613f54565b611bde565b61027a6103c9366004613fd4565b611dd1565b61027a6103dc366004614016565b61202e565b61028461211e565b6007546001600160a01b03166102e8565b61027a610408366004613f71565b612159565b600a546001600160a01b03166102e8565b61027a61042c366004613f37565b6121b2565b61027a61043f366004613f37565b61227a565b61027a610452366004614067565b612342565b6009546001600160a01b03166102e8565b60028054600160f01b900460ff1614610398565b61027a61048a366004613f37565b612978565b6005546001600160a01b03166102e8565b61027a6104ae366004614097565b612a40565b61027a612bd2565b61027a6104c93660046140df565b612cc8565b6004546001600160a01b03166102e8565b61027a6104ed366004614117565b613252565b6006546001600160a01b03166102e8565b6102e861340e565b61027a613494565b61027a610521366004613f37565b6136b3565b600554604051639766a0b360e01b815264ffffffffff831660048201526000916001600160a01b031690639766a0b39060240160206040518083038186803b15801561057157600080fd5b505afa158015610585573d6000803e3d6000fd5b505050506040513d601f19601f820116820180604052508101906105a991906141df565b6105fa5760405162461bcd60e51b815260206004820152601860248201527f63616c6c6572206973206e6f742061204469726563746f72000000000000000060448201526064015b60405180910390fd5b6000546040516324623db960e01b815264ffffffffff841660048201526001600160a01b03909116906324623db99060240160206040518083038186803b15801561064457600080fd5b505afa158015610658573d6000803e3d6000fd5b505050506040513d601f19601f8201168201806040525081019061067c91906141df565b156106c05760405162461bcd60e51b815260206004820152601460248201527363616c6c6572206973206e6f7420616e20454f4160601b60448201526064016105f1565b6007546040516326802f3960e01b81526001600160a01b03909116906326802f39906106fa908a908a908a908a9089908b90600401614322565b602060405180830381600087803b15801561071457600080fd5b505af1158015610728573d6000803e3d6000fd5b505050506040513d601f19601f8201168201806040525081019061074c9190614381565b979650505050505050565b604051633b11adbf60e21b815273__$364aad554dc80380f414546becdd2c1584$__9063ec46b6fc9061079190600290339060040161439a565b60206040518083038186803b1580156107a957600080fd5b505af41580156107bd573d6000803e3d6000fd5b505050506040513d601f19601f820116820180604052508101906107e191906141df565b6107fd5760405162461bcd60e51b81526004016105f1906143b1565b600a5460405163c5916f4b60e01b815264ffffffffff8316600482015282916001600160a01b03169063c5916f4b9060240160206040518083038186803b15801561084757600080fd5b505afa15801561085b573d6000803e3d6000fd5b505050506040513d601f19601f8201168201806040525081019061087f91906141df565b61089b5760405162461bcd60e51b81526004016105f1906143f7565b60075460405163f8fb9e1d60e01b8152600481018590526001600160a01b039091169063f8fb9e1d90602401602060405180830381600087803b1580156108e157600080fd5b505af11580156108f5573d6000803e3d6000fd5b505050506040513d601f19601f8201168201806040525081019061091991906141df565b50505050565b60405163e8c0cc1d60e01b81526002600482015260009073__$364aad554dc80380f414546becdd2c1584$__9063e8c0cc1d906024015b60206040518083038186803b15801561096e57600080fd5b505af4158015610982573d6000803e3d6000fd5b505050506040513d601f19601f820116820180604052508101906109a69190614421565b905090565b604051633b11adbf60e21b815273__$364aad554dc80380f414546becdd2c1584$__9063ec46b6fc906109e590600290339060040161439a565b60206040518083038186803b1580156109fd57600080fd5b505af4158015610a11573d6000803e3d6000fd5b505050506040513d601f19601f82011682018060405250810190610a3591906141df565b610a515760405162461bcd60e51b81526004016105f1906143b1565b600754600554604051630c06e30760e11b81526001600160a01b03918216600482015291169063180dc60e90602401600060405180830381600087803b158015610a9a57600080fd5b505af1158015610919573d6000803e3d6000fd5b73__$364aad554dc80380f414546becdd2c1584$__63427abff4600284610ad361377b565b6040516001600160e01b031960e086901b1681526004810193909352602483019190915264ffffffffff9081166044830152841660648201526084015b60006040518083038186803b158015610b2857600080fd5b505af4158015610b3c573d6000803e3d6000fd5b505050505050565b73__$364aad554dc80380f414546becdd2c1584$__638ce15845600284610ad361377b565b604051633b11adbf60e21b815273__$364aad554dc80380f414546becdd2c1584$__9063ec46b6fc90610ba390600290339060040161439a565b60206040518083038186803b158015610bbb57600080fd5b505af4158015610bcf573d6000803e3d6000fd5b505050506040513d601f19601f82011682018060405250810190610bf391906141df565b610c0f5760405162461bcd60e51b81526004016105f1906143b1565b600780546001600160a01b0319166001600160a01b0392909216919091179055565b604051633b11adbf60e21b815273__$364aad554dc80380f414546becdd2c1584$__9063ec46b6fc90610c6b90600290339060040161439a565b60206040518083038186803b158015610c8357600080fd5b505af4158015610c97573d6000803e3d6000fd5b505050506040513d601f19601f82011682018060405250810190610cbb91906141df565b80610d60575073__$364aad554dc80380f414546becdd2c1584$__63fe2710866002610ce561377b565b6040516001600160e01b031960e085901b168152600481019290925264ffffffffff16602482015260440160206040518083038186803b158015610d2857600080fd5b505af4158015610d3c573d6000803e3d6000fd5b505050506040513d601f19601f82011682018060405250810190610d6091906141df565b610d7c5760405162461bcd60e51b81526004016105f19061443e565b604051632725ebef60e21b81526002600482015264ffffffffff8216602482015273__$364aad554dc80380f414546becdd2c1584$__90639c97afbc9060440160006040518083038186803b158015610dd457600080fd5b505af4158015610de8573d6000803e3d6000fd5b505060405164ffffffffff841681527ff2735f34b69be1e6342dea95f9162f84d0db925fab655ca9f1f312ac8cbfc99d925060200190505b60405180910390a150565b604051633b11adbf60e21b815273__$364aad554dc80380f414546becdd2c1584$__9063ec46b6fc90610e6590600290339060040161439a565b60206040518083038186803b158015610e7d57600080fd5b505af4158015610e91573d6000803e3d6000fd5b505050506040513d601f19601f82011682018060405250810190610eb591906141df565b610ed15760405162461bcd60e51b81526004016105f1906143b1565b60405163cc99e11b60e01b8152600260048201526024810182905273__$364aad554dc80380f414546becdd2c1584$__9063cc99e11b9060440160006040518083038186803b158015610f2357600080fd5b505af4158015610f37573d6000803e3d6000fd5b5050505050565b604051633b11adbf60e21b815273__$364aad554dc80380f414546becdd2c1584$__9063ec46b6fc90610f7890600290339060040161439a565b60206040518083038186803b158015610f9057600080fd5b505af4158015610fa4573d6000803e3d6000fd5b505050506040513d601f19601f82011682018060405250810190610fc891906141df565b610fe45760405162461bcd60e51b81526004016105f1906143b1565b604051630d914a1d60e41b81526004810184905273__$94c94c1f27eaba30857c7d0c37f90b5581$__9063d914a1d09060240160206040518083038186803b15801561102f57600080fd5b505af4158015611043573d6000803e3d6000fd5b505050506040513d601f19601f820116820180604052508101906110679190614421565b64ffffffffff168164ffffffffff16146110c35760405162461bcd60e51b815260206004820181905260248201527f424f474b65657065722e5254423a2063616c6c6572204e4f542053656c6c657260448201526064016105f1565b6007546040516364525a0d60e01b8152600481018690526000916001600160a01b0316906364525a0d9060240160c06040518083038186803b15801561110857600080fd5b505afa15801561111c573d6000803e3d6000fd5b505050506040513d601f19601f8201168201806040525081019061114091906144aa565b805190915060ff166005146111975760405162461bcd60e51b815260206004820152601d60248201527f424f474b65657065722e5254423a204e4f206e65656420746f2062757900000060448201526064016105f1565b60075460405163557bdfe360e11b8152600481018790526000916001600160a01b03169063aaf7bfc69060240160206040518083038186803b1580156111dc57600080fd5b505afa1580156111f0573d6000803e3d6000fd5b505050506040513d601f19601f820116820180604052508101906112149190614381565b604051633a4376f360e01b81526004810182905290915073__$94c94c1f27eaba30857c7d0c37f90b5581$__90633a4376f39060240160206040518083038186803b15801561126257600080fd5b505af4158015611276573d6000803e3d6000fd5b505050506040513d601f19601f8201168201806040525081019061129a9190614531565b604051630bdc7b0360e21b81526004810183905273__$94c94c1f27eaba30857c7d0c37f90b5581$__90632f71ec0c9060240160206040518083038186803b1580156112e557600080fd5b505af41580156112f9573d6000803e3d6000fd5b505050506040513d601f19601f8201168201806040525081019061131d9190614531565b6113279190614562565b611334906201518061458c565b8260a001516113439190614562565b65ffffffffffff1642106113995760405162461bcd60e51b815260206004820152601f60248201527f424f474b65657065722e5254423a206d6973736564204558454320646174650060448201526064016105f1565b60405163177bece160e21b8152600481018690526000906001600160a01b0388169063b7cd72939073__$94c94c1f27eaba30857c7d0c37f90b5581$__90635defb3849060240160206040518083038186803b1580156113f857600080fd5b505af415801561140c573d6000803e3d6000fd5b505050506040513d601f19601f8201168201806040525081019061143091906145ba565b6040516001600160e01b031960e084901b16815261ffff909116600482015260240160c06040518083038186803b15801561146a57600080fd5b505afa15801561147e573d6000803e3d6000fd5b505050506040513d601f19601f820116820180604052508101906114a291906145f6565b90506000620151804283606001516114ba919061466d565b6114c69061a8c0614562565b6114d09190614694565b905060006115ee6001604051600162023fc360e51b03198152600481018b90524390600190869073__$94c94c1f27eaba30857c7d0c37f90b5581$__9063ffb807a09060240160206040518083038186803b15801561152e57600080fd5b505af4158015611542573d6000803e3d6000fd5b505050506040513d601f19601f8201168201806040525081019061156691906145ba565b604051638b257a7160e01b8152600481018f905273__$94c94c1f27eaba30857c7d0c37f90b5581$__90638b257a719060240160206040518083038186803b1580156115b157600080fd5b505af41580156115c5573d6000803e3d6000fd5b505050506040513d601f19601f820116820180604052508101906115e991906146c7565b6137d5565b60408051600180825281830190925291925060009190602080830190803683370190505090508781600081518110611628576116286146ed565b64ffffffffff90921660209283029190910182015260085490850151604080870151905163656ebc8f60e01b81526001600160a01b039093169263656ebc8f9261167c9287928d9288929091600401614703565b602060405180830381600087803b15801561169657600080fd5b505af11580156116aa573d6000803e3d6000fd5b505050506040513d601f19601f820116820180604052508101906116ce9190614381565b600954604051632805fd7360e21b8152600481018c90529193506000916001600160a01b03909116906352aadfd79073__$94c94c1f27eaba30857c7d0c37f90b5581$__9063a017f5cc9060240160206040518083038186803b15801561173457600080fd5b505af4158015611748573d6000803e3d6000fd5b505050506040513d601f19601f8201168201806040525081019061176c91906146c7565b6040516001600160e01b031960e084901b16815263ffffffff91909116600482015260240160c06040518083038186803b1580156117a957600080fd5b505afa1580156117bd573d6000803e3d6000fd5b505050506040513d601f19601f820116820180604052508101906117e19190614780565b60085460405163b24d8e6560e01b8152600481018690529192506001600160a01b03169063b24d8e6590602401600060405180830381600087803b15801561182857600080fd5b505af115801561183c573d6000803e3d6000fd5b5050600854835160208901516040808b015190516329aa73c760e11b8152600481018a9052602481019390935267ffffffffffffffff91821660448401521660648201526001600160a01b039091169250635354e78e9150608401600060405180830381600087803b1580156118b157600080fd5b505af11580156118c5573d6000803e3d6000fd5b505050505050505050505050505050565b604051633b11adbf60e21b815273__$364aad554dc80380f414546becdd2c1584$__9063ec46b6fc9061191090600290339060040161439a565b60206040518083038186803b15801561192857600080fd5b505af415801561193c573d6000803e3d6000fd5b505050506040513d601f19601f8201168201806040525081019061196091906141df565b61197c5760405162461bcd60e51b81526004016105f1906143b1565b600a80546001600160a01b0319166001600160a01b0392909216919091179055565b604051633b11adbf60e21b815273__$364aad554dc80380f414546becdd2c1584$__9063ec46b6fc906119d890600290339060040161439a565b60206040518083038186803b1580156119f057600080fd5b505af4158015611a04573d6000803e3d6000fd5b505050506040513d601f19601f82011682018060405250810190611a2891906141df565b611a445760405162461bcd60e51b81526004016105f1906143b1565b600480546001600160a01b0319166001600160a01b0392909216919091179055565b604051630f07232560e01b8152600260048201523360248201526001600160a01b038216604482015273__$364aad554dc80380f414546becdd2c1584$__90630f0723259060640160006040518083038186803b158015611ac657600080fd5b505af4158015611ada573d6000803e3d6000fd5b50506040516001600160a01b03841681527fe435cbeab64e4eae6497b9d8289704bd709d624a80704ef3ca9af777534bc6ec92506020019050610e20565b73__$364aad554dc80380f414546becdd2c1584$__63d2a15ba7600284610ad361377b565b604051632a3be56b60e21b8152600260048201526024810183905264ffffffffff8216604482015260009073__$364aad554dc80380f414546becdd2c1584$__9063a8ef95ac9060640160206040518083038186803b158015611b9f57600080fd5b505af4158015611bb3573d6000803e3d6000fd5b505050506040513d601f19601f82011682018060405250810190611bd791906141df565b9392505050565b604051633b11adbf60e21b815273__$364aad554dc80380f414546becdd2c1584$__9063ec46b6fc90611c1890600290339060040161439a565b60206040518083038186803b158015611c3057600080fd5b505af4158015611c44573d6000803e3d6000fd5b505050506040513d601f19601f82011682018060405250810190611c6891906141df565b80611d0d575073__$364aad554dc80380f414546becdd2c1584$__63fe2710866002611c9261377b565b6040516001600160e01b031960e085901b168152600481019290925264ffffffffff16602482015260440160206040518083038186803b158015611cd557600080fd5b505af4158015611ce9573d6000803e3d6000fd5b505050506040513d601f19601f82011682018060405250810190611d0d91906141df565b611d295760405162461bcd60e51b81526004016105f19061443e565b60405163b6e38a2960e01b81526002600482015264ffffffffff8216602482015273__$364aad554dc80380f414546becdd2c1584$__9063b6e38a299060440160006040518083038186803b158015611d8157600080fd5b505af4158015611d95573d6000803e3d6000fd5b505060405164ffffffffff841681527f8b6f40f36b4ae8cc5f55e895036457c43da4ab1f80f58c46f5ff0d72a650033b92506020019050610e20565b604051633b11adbf60e21b815273__$364aad554dc80380f414546becdd2c1584$__9063ec46b6fc90611e0b90600290339060040161439a565b60206040518083038186803b158015611e2357600080fd5b505af4158015611e37573d6000803e3d6000fd5b505050506040513d601f19601f82011682018060405250810190611e5b91906141df565b611e775760405162461bcd60e51b81526004016105f1906143b1565b600a5460405163c5916f4b60e01b815264ffffffffff8416600482015283916001600160a01b03169063c5916f4b9060240160206040518083038186803b158015611ec157600080fd5b505afa158015611ed5573d6000803e3d6000fd5b505050506040513d601f19601f82011682018060405250810190611ef991906141df565b611f155760405162461bcd60e51b81526004016105f1906143f7565b600a5460405163c5916f4b60e01b815264ffffffffff8416600482015283916001600160a01b03169063c5916f4b9060240160206040518083038186803b158015611f5f57600080fd5b505afa158015611f73573d6000803e3d6000fd5b505050506040513d601f19601f82011682018060405250810190611f9791906141df565b611fb35760405162461bcd60e51b81526004016105f1906143f7565b6007546040516381ab05cb60e01b81526004810187905264ffffffffff8087166024830152851660448201526001600160a01b03909116906381ab05cb906064015b600060405180830381600087803b15801561200f57600080fd5b505af1158015612023573d6000803e3d6000fd5b505050505050505050565b61203782613ace565b61204081613b6d565b604051636cdd0edf60e11b81526002600482015264ffffffffff851660248201526001600160a01b038416604482015273__$364aad554dc80380f414546becdd2c1584$__9063d9ba1dbe9060640160006040518083038186803b1580156120a757600080fd5b505af41580156120bb573d6000803e3d6000fd5b50506040805164ffffffffff881681526001600160a01b038781166020830152868116828401528516606082015290517f4d18c0021addc919105cb1ed2c11ad241e859cc1d9e77d4ee1d9ca2cdc1f255b9350908190036080019150a150505050565b60405163987ad15360e01b81526002600482015260009073__$364aad554dc80380f414546becdd2c1584$__9063987ad15390602401610956565b600061216361377b565b604051637963595360e11b8152600260048201526024810184905264ffffffffff8216604482015290915073__$364aad554dc80380f414546becdd2c1584$__9063f2c6b2a690606401610b10565b604051633b11adbf60e21b815273__$364aad554dc80380f414546becdd2c1584$__9063ec46b6fc906121ec90600290339060040161439a565b60206040518083038186803b15801561220457600080fd5b505af4158015612218573d6000803e3d6000fd5b505050506040513d601f19601f8201168201806040525081019061223c91906141df565b6122585760405162461bcd60e51b81526004016105f1906143b1565b600880546001600160a01b0319166001600160a01b0392909216919091179055565b604051633b11adbf60e21b815273__$364aad554dc80380f414546becdd2c1584$__9063ec46b6fc906122b490600290339060040161439a565b60206040518083038186803b1580156122cc57600080fd5b505af41580156122e0573d6000803e3d6000fd5b505050506040513d601f19601f8201168201806040525081019061230491906141df565b6123205760405162461bcd60e51b81526004016105f1906143b1565b600580546001600160a01b0319166001600160a01b0392909216919091179055565b604051633b11adbf60e21b815273__$364aad554dc80380f414546becdd2c1584$__9063ec46b6fc9061237c90600290339060040161439a565b60206040518083038186803b15801561239457600080fd5b505af41580156123a8573d6000803e3d6000fd5b505050506040513d601f19601f820116820180604052508101906123cc91906141df565b6123e85760405162461bcd60e51b81526004016105f1906143b1565b600a5460405163c5916f4b60e01b815264ffffffffff8316600482015282916001600160a01b03169063c5916f4b9060240160206040518083038186803b15801561243257600080fd5b505afa158015612446573d6000803e3d6000fd5b505050506040513d601f19601f8201168201806040525081019061246a91906141df565b6124865760405162461bcd60e51b81526004016105f1906143f7565b6000808460ff1611801561249d575060088460ff16105b156124b457506004546001600160a01b0316612513565b8360ff16600814156124d257506006546001600160a01b0316612513565b60405162461bcd60e51b81526020600482015260166024820152752127a3a59728221d103bb937b7339039b2b8a7b32b2960511b60448201526064016105f1565b604051632e024b2160e11b81526001600160a01b03868116600483015264ffffffffff85166024830152821690635c0496429060440160206040518083038186803b15801561256157600080fd5b505afa158015612575573d6000803e3d6000fd5b505050506040513d601f19601f8201168201806040525081019061259991906141df565b6125e55760405162461bcd60e51b815260206004820152601960248201527f424f474b2e50443a204e4f54205061727479206f6620446f630000000000000060448201526064016105f1565b604051636a56426160e01b81526001600160a01b03868116600483015260039190831690636a5642619060240160206040518083038186803b15801561262a57600080fd5b505afa15801561263e573d6000803e3d6000fd5b505050506040513d601f19601f8201168201806040525081019061266291906147f0565b60ff16146126b25760405162461bcd60e51b815260206004820152601f60248201527f424f474b2e50443a20646f63206e6f74206f6e2045737461626c69736865640060448201526064016105f1565b604051637c27333f60e01b81526001600160a01b03868116600483015260009190831690637c27333f9060240160206040518083038186803b1580156126f757600080fd5b505afa15801561270b573d6000803e3d6000fd5b505050506040513d601f19601f8201168201806040525081019061272f9190614531565b6040516302006e1760e21b81526001600160a01b038881166004830152919250600091841690630801b85c9060240160206040518083038186803b15801561277657600080fd5b505afa15801561278a573d6000803e3d6000fd5b505050506040513d601f19601f820116820180604052508101906127ae9190614531565b9050428265ffffffffffff161061282d5760405162461bcd60e51b815260206004820152603760248201527f424f474b65657065722e70726f706f73654d6f74696f6e3a204941206e6f742060448201527f706173736564207265766965772070726f63656475726500000000000000000060648201526084016105f1565b8165ffffffffffff168165ffffffffffff1614806128535750428165ffffffffffff1610155b6128975760405162461bcd60e51b81526020600482015260156024820152746d697373656420766f74696e67446561646c696e6560581b60448201526064016105f1565b60405163a95027b360e01b81526001600160a01b03888116600483015284169063a95027b390602401600060405180830381600087803b1580156128da57600080fd5b505af11580156128ee573d6000803e3d6000fd5b505060075460405163216eeebf60e01b81526001600160a01b038b8116600483015260ff8b16602483015264ffffffffff8a16604483015260006064830152909116925063216eeebf91506084015b600060405180830381600087803b15801561295757600080fd5b505af115801561296b573d6000803e3d6000fd5b5050505050505050505050565b604051633b11adbf60e21b815273__$364aad554dc80380f414546becdd2c1584$__9063ec46b6fc906129b290600290339060040161439a565b60206040518083038186803b1580156129ca57600080fd5b505af41580156129de573d6000803e3d6000fd5b505050506040513d601f19601f82011682018060405250810190612a0291906141df565b612a1e5760405162461bcd60e51b81526004016105f1906143b1565b600680546001600160a01b0319166001600160a01b0392909216919091179055565b604051633b11adbf60e21b815273__$364aad554dc80380f414546becdd2c1584$__9063ec46b6fc90612a7a90600290339060040161439a565b60206040518083038186803b158015612a9257600080fd5b505af4158015612aa6573d6000803e3d6000fd5b505050506040513d601f19601f82011682018060405250810190612aca91906141df565b612ae65760405162461bcd60e51b81526004016105f1906143b1565b600a5460405163c5916f4b60e01b815264ffffffffff8516600482015284916001600160a01b03169063c5916f4b9060240160206040518083038186803b158015612b3057600080fd5b505afa158015612b44573d6000803e3d6000fd5b505050506040513d601f19601f82011682018060405250810190612b6891906141df565b612b845760405162461bcd60e51b81526004016105f1906143f7565b60075460405163cba36bf360e01b81526004810187905264ffffffffff8616602482015260ff85166044820152606481018490526001600160a01b039091169063cba36bf390608401611ff5565b604051633b11adbf60e21b815273__$364aad554dc80380f414546becdd2c1584$__9063ec46b6fc90612c0c90600290339060040161439a565b60206040518083038186803b158015612c2457600080fd5b505af4158015612c38573d6000803e3d6000fd5b505050506040513d601f19601f82011682018060405250810190612c5c91906141df565b612c785760405162461bcd60e51b81526004016105f1906143b1565b600760009054906101000a90046001600160a01b03166001600160a01b031663d1a0ce566040518163ffffffff1660e01b8152600401600060405180830381600087803b158015610a9a57600080fd5b604051633b11adbf60e21b815273__$364aad554dc80380f414546becdd2c1584$__9063ec46b6fc90612d0290600290339060040161439a565b60206040518083038186803b158015612d1a57600080fd5b505af4158015612d2e573d6000803e3d6000fd5b505050506040513d601f19601f82011682018060405250810190612d5291906141df565b612d6e5760405162461bcd60e51b81526004016105f1906143b1565b600a5460405163c5916f4b60e01b815264ffffffffff8416600482015283916001600160a01b03169063c5916f4b9060240160206040518083038186803b158015612db857600080fd5b505afa158015612dcc573d6000803e3d6000fd5b505050506040513d601f19601f82011682018060405250810190612df091906141df565b612e0c5760405162461bcd60e51b81526004016105f1906143f7565b60405163242d408d60e11b81526004810186905264ffffffffff84169073__$94c94c1f27eaba30857c7d0c37f90b5581$__9063485a811a9060240160206040518083038186803b158015612e6057600080fd5b505af4158015612e74573d6000803e3d6000fd5b505050506040513d601f19601f82011682018060405250810190612e989190614421565b64ffffffffff1614612eec5760405162461bcd60e51b815260206004820152601f60248201527f424f474b2e4e4f3a2063616c6c6572206e6f74207269676874686f6c6465720060448201526064016105f1565b60405162ae4af360e71b81526004810186905273__$94c94c1f27eaba30857c7d0c37f90b5581$__9063572579809060240160206040518083038186803b158015612f3657600080fd5b505af4158015612f4a573d6000803e3d6000fd5b505050506040513d601f19601f82011682018060405250810190612f6e91906147f0565b60055460405163188fb8cf60e31b815264ffffffffff8616600482015260ff92909216916001600160a01b039091169063c47dc6789060240160206040518083038186803b158015612fbf57600080fd5b505afa158015612fd3573d6000803e3d6000fd5b505050506040513d601f19601f82011682018060405250810190612ff79190614381565b116130445760405162461bcd60e51b815260206004820152601b60248201527f424f474b2e4e4f3a20626f61726420686173206e6f207365617473000000000060448201526064016105f1565b6040516347e63bfb60e01b81526004810186905260ff8516602482015260009073__$94c94c1f27eaba30857c7d0c37f90b5581$__906347e63bfb9060440160206040518083038186803b15801561309b57600080fd5b505af41580156130af573d6000803e3d6000fd5b505050506040513d601f19601f820116820180604052508101906130d391906145ba565b60405163057a58d760e01b81526004810188905260ff8716602482015290915060009073__$94c94c1f27eaba30857c7d0c37f90b5581$__9063057a58d79060440160206040518083038186803b15801561312d57600080fd5b505af4158015613141573d6000803e3d6000fd5b505050506040513d601f19601f8201168201806040525081019061316591906147f0565b9050600a8261ffff16116131f757600754604051635f86a56760e11b815261ffff8416600482015260ff8316602482015264ffffffffff8088166044830152861660648201526001600160a01b039091169063bf0d4ace90608401600060405180830381600087803b1580156131da57600080fd5b505af11580156131ee573d6000803e3d6000fd5b50505050613249565b600554604051635f86a56760e11b815261ffff8416600482015260ff8316602482015264ffffffffff8088166044830152861660648201526001600160a01b039091169063bf0d4ace9060840161293d565b50505050505050565b604051633b11adbf60e21b815273__$364aad554dc80380f414546becdd2c1584$__9063ec46b6fc9061328c90600290339060040161439a565b60206040518083038186803b1580156132a457600080fd5b505af41580156132b8573d6000803e3d6000fd5b505050506040513d601f19601f820116820180604052508101906132dc91906141df565b6132f85760405162461bcd60e51b81526004016105f1906143b1565b600a5460405163c5916f4b60e01b815264ffffffffff8416600482015283916001600160a01b03169063c5916f4b9060240160206040518083038186803b15801561334257600080fd5b505afa158015613356573d6000803e3d6000fd5b505050506040513d601f19601f8201168201806040525081019061337a91906141df565b6133965760405162461bcd60e51b81526004016105f1906143f7565b600754604051633cf153eb60e21b81526001600160a01b039091169063f3c54fac906133d2908b908b908b908b908b908b908b9060040161480d565b600060405180830381600087803b1580156133ec57600080fd5b505af1158015613400573d6000803e3d6000fd5b505050505050505050505050565b604051633c3e56c160e11b81526002600482015260009073__$364aad554dc80380f414546becdd2c1584$__9063787cad829060240160206040518083038186803b15801561345c57600080fd5b505af4158015613470573d6000803e3d6000fd5b505050506040513d601f19601f820116820180604052508101906109a69190614877565b604051633b11adbf60e21b815273__$364aad554dc80380f414546becdd2c1584$__9063ec46b6fc906134ce90600290339060040161439a565b60206040518083038186803b1580156134e657600080fd5b505af41580156134fa573d6000803e3d6000fd5b505050506040513d601f19601f8201168201806040525081019061351e91906141df565b61353a5760405162461bcd60e51b81526004016105f1906143b1565b600254600160f01b900460ff166001146135965760405162461bcd60e51b815260206004820181905260248201527f41432e6f6e6c7950656e64696e673a20446f632069732066696e616c697a656460448201526064016105f1565b60405163cc99e11b60e01b815260026004820152684174746f726e65797360b81b602482015273__$364aad554dc80380f414546becdd2c1584$__9063cc99e11b9060440160006040518083038186803b1580156135f357600080fd5b505af4158015613607573d6000803e3d6000fd5b5050604051632725ebef60e21b8152600260048201526000602482015273__$364aad554dc80380f414546becdd2c1584$__9250639c97afbc915060440160006040518083038186803b15801561365d57600080fd5b505af4158015613671573d6000803e3d6000fd5b50506002805460ff60f01b1916600160f11b17905550506040517f35012b512309c322acf68632cd6cb702ff0e1d776fbe9394e38ffc13b434fe7590600090a1565b604051633b11adbf60e21b815273__$364aad554dc80380f414546becdd2c1584$__9063ec46b6fc906136ed90600290339060040161439a565b60206040518083038186803b15801561370557600080fd5b505af4158015613719573d6000803e3d6000fd5b505050506040513d601f19601f8201168201806040525081019061373d91906141df565b6137595760405162461bcd60e51b81526004016105f1906143b1565b600980546001600160a01b0319166001600160a01b0392909216919091179055565b60008054604051634de835e760e11b81523360048201526001600160a01b0390911690639bd06bce90602401602060405180830381600087803b1580156137c157600080fd5b505af1158015610982573d6000803e3d6000fd5b6040805160208082528183019092526000918291906020820181803683370190505090508760f81b81600081518110613810576138106146ed565b60200101906001600160f81b031916908160001a90535060405163acdc3d3960e01b815273__$f4d24a073c4d632c09a66fb0a7ac9d4583$__9063acdc3d39906138639084906005908c90600401614894565b60006040518083038186803b15801561387b57600080fd5b505af415801561388f573d6000803e3d6000fd5b505050506040513d6000823e601f3d908101601f191682016040526138b791908101906148c5565b90508560f81b81600b815181106138d0576138d06146ed565b60200101906001600160f81b031916908160001a9053508460f81b81600c815181106138fe576138fe6146ed565b60200101906001600160f81b031916908160001a90535060405163d8a3155f60e01b815273__$f4d24a073c4d632c09a66fb0a7ac9d4583$__9063d8a3155f90613951908490600d90899060040161493c565b60006040518083038186803b15801561396957600080fd5b505af415801561397d573d6000803e3d6000fd5b505050506040513d6000823e601f3d908101601f191682016040526139a591908101906148c5565b60405163757398af60e11b815290915073__$f4d24a073c4d632c09a66fb0a7ac9d4583$__9063eae7315e906139e4908490600f908890600401614969565b60006040518083038186803b1580156139fc57600080fd5b505af4158015613a10573d6000803e3d6000fd5b505050506040513d6000823e601f3d908101601f19168201604052613a3891908101906148c5565b60405163bfe370d960e01b815290915073__$f4d24a073c4d632c09a66fb0a7ac9d4583$__9063bfe370d990613a72908490600401614998565b60206040518083038186803b158015613a8a57600080fd5b505af4158015613a9e573d6000803e3d6000fd5b505050506040513d601f19601f82011682018060405250810190613ac29190614381565b98975050505050505050565b6000546001600160a01b031615613b1f5760405162461bcd60e51b815260206004820152601560248201527430b63932b0b23c9039b2ba103932b3a1b2b73a32b960591b60448201526064016105f1565b600080546001600160a01b0319166001600160a01b0383169081179091556040519081527f318da6c7624c71cbc0afe346c9d8827f119d0ecefb241a7b0c87217a076a8e0290602001610e20565b600180546001600160a01b0319166001600160a01b0383169081179091556040519081527fe513d3e0f0d0a3877029dcc588748679a7a3450ec1ec7ed56d96bd012c3e61aa90602001610e20565b60ff81168114613bca57600080fd5b50565b634e487b7160e01b600052604160045260246000fd5b60405160c0810167ffffffffffffffff81118282101715613c0657613c06613bcd565b60405290565b604051601f8201601f1916810167ffffffffffffffff81118282101715613c3557613c35613bcd565b604052919050565b600067ffffffffffffffff821115613c5757613c57613bcd565b5060051b60200190565b6001600160a01b0381168114613bca57600080fd5b600082601f830112613c8757600080fd5b81356020613c9c613c9783613c3d565b613c0c565b82815260059290921b84018101918181019086841115613cbb57600080fd5b8286015b84811015613cdf578035613cd281613c61565b8352918301918301613cbf565b509695505050505050565b600082601f830112613cfb57600080fd5b81356020613d0b613c9783613c3d565b82815260059290921b84018101918181019086841115613d2a57600080fd5b8286015b84811015613cdf5780358352918301918301613d2e565b600067ffffffffffffffff821115613d5f57613d5f613bcd565b50601f01601f191660200190565b600082601f830112613d7e57600080fd5b81356020613d8e613c9783613c3d565b82815260059290921b84018101918181019086841115613dad57600080fd5b8286015b84811015613cdf57803567ffffffffffffffff811115613dd15760008081fd5b8701603f81018913613de35760008081fd5b848101356040613df5613c9783613d45565b8281528b82848601011115613e0a5760008081fd5b8282850189830137600092810188019290925250845250918301918301613db1565b64ffffffffff81168114613bca57600080fd5b8035613e4a81613e2c565b919050565b60008060008060008060c08789031215613e6857600080fd5b8635613e7381613bbb565b9550602087013567ffffffffffffffff80821115613e9057600080fd5b613e9c8a838b01613c76565b96506040890135915080821115613eb257600080fd5b613ebe8a838b01613cea565b95506060890135915080821115613ed457600080fd5b50613ee189828a01613d6d565b9350506080870135915060a0870135613ef981613e2c565b809150509295509295509295565b60008060408385031215613f1a57600080fd5b823591506020830135613f2c81613e2c565b809150509250929050565b600060208284031215613f4957600080fd5b8135611bd781613c61565b600060208284031215613f6657600080fd5b8135611bd781613e2c565b600060208284031215613f8357600080fd5b5035919050565b60008060008060808587031215613fa057600080fd5b84359350602085013592506040850135613fb981613e2c565b91506060850135613fc981613e2c565b939692955090935050565b600080600060608486031215613fe957600080fd5b833592506020840135613ffb81613e2c565b9150604084013561400b81613e2c565b809150509250925092565b6000806000806080858703121561402c57600080fd5b843561403781613e2c565b9350602085013561404781613c61565b9250604085013561405781613c61565b91506060850135613fc981613c61565b60008060006060848603121561407c57600080fd5b833561408781613c61565b92506020840135613ffb81613bbb565b600080600080608085870312156140ad57600080fd5b8435935060208501356140bf81613e2c565b925060408501356140cf81613bbb565b9396929550929360600135925050565b600080600080608085870312156140f557600080fd5b84359350602085013561410781613bbb565b92506040850135613fb981613e2c565b600080600080600080600060e0888a03121561413257600080fd5b873561413d81613bbb565b9650602088013567ffffffffffffffff8082111561415a57600080fd5b6141668b838c01613c76565b975060408a013591508082111561417c57600080fd5b6141888b838c01613cea565b965060608a013591508082111561419e57600080fd5b506141ab8a828b01613d6d565b9450506080880135925060a08801356141c381613e2c565b91506141d160c08901613e3f565b905092959891949750929550565b6000602082840312156141f157600080fd5b81518015158114611bd757600080fd5b600081518084526020808501945080840160005b8381101561423a5781516001600160a01b031687529582019590820190600101614215565b509495945050505050565b600081518084526020808501945080840160005b8381101561423a57815187529582019590820190600101614259565b60005b83811015614290578181015183820152602001614278565b838111156109195750506000910152565b600081518084526142b9816020860160208601614275565b601f01601f19169290920160200192915050565b600081518084526020808501808196508360051b8101915082860160005b858110156143155782840389526143038483516142a1565b988501989350908401906001016142eb565b5091979650505050505050565b60ff8716815260c06020820152600061433e60c0830188614201565b82810360408401526143508188614245565b9050828103606084015261436481876142cd565b64ffffffffff959095166080840152505060a00152949350505050565b60006020828403121561439357600080fd5b5051919050565b9182526001600160a01b0316602082015260400190565b60208082526026908201527f41432e6f6e6c794469726563744b65657065723a206e6f74206469726563742060408201526535b2b2b832b960d11b606082015260800190565b60208082526010908201526f1b595b58995c881393d508195e1a5cdd60821b604082015260600190565b60006020828403121561443357600080fd5b8151611bd781613e2c565b60208082526036908201527f41432e6f776e65724f72446972656374426f6f6b65657065723a206e6569746860408201527532b91037bbb732b9103737b9103137b7b5b2b2b832b960511b606082015260800190565b805165ffffffffffff81168114613e4a57600080fd5b600060c082840312156144bc57600080fd5b6144c4613be3565b82516144cf81613bbb565b815260208301516144df81613e2c565b602082015260408301516144f281613e2c565b604082015261450360608401614494565b606082015261451460808401614494565b608082015261452560a08401614494565b60a08201529392505050565b60006020828403121561454357600080fd5b611bd782614494565b634e487b7160e01b600052601160045260246000fd5b600065ffffffffffff8083168185168083038211156145835761458361454c565b01949350505050565b600065ffffffffffff808316818516818304811182151516156145b1576145b161454c565b02949350505050565b6000602082840312156145cc57600080fd5b815161ffff81168114611bd757600080fd5b805167ffffffffffffffff81168114613e4a57600080fd5b600060c0828403121561460857600080fd5b614610613be3565b82518152614620602084016145de565b6020820152614631604084016145de565b604082015261464260608401614494565b6060820152608083015161465581613bbb565b608082015260a0928301519281019290925250919050565b600065ffffffffffff8381169083168181101561468c5761468c61454c565b039392505050565b600065ffffffffffff808416806146bb57634e487b7160e01b600052601260045260246000fd5b92169190910492915050565b6000602082840312156146d957600080fd5b815163ffffffff81168114611bd757600080fd5b634e487b7160e01b600052603260045260246000fd5b600060a08201878352602064ffffffffff8089168286015260a0604086015282885180855260c087019150838a01945060005b81811015614754578551841683529484019491840191600101614736565b505067ffffffffffffffff97881660608701529590961660809094019390935250919695505050505050565b600060c0828403121561479257600080fd5b61479a613be3565b825181526147aa602084016145de565b60208201526147bb604084016145de565b60408201526147cc606084016145de565b60608201526147dd60808401614494565b608082015260a083015161452581613bbb565b60006020828403121561480257600080fd5b8151611bd781613bbb565b60ff8816815260e06020820152600061482960e0830189614201565b828103604084015261483b8189614245565b9050828103606084015261484f81886142cd565b6080840196909652505064ffffffffff92831660a0820152911660c090910152949350505050565b60006020828403121561488957600080fd5b8151611bd781613c61565b6060815260006148a760608301866142a1565b905083602083015265ffffffffffff83166040830152949350505050565b6000602082840312156148d757600080fd5b815167ffffffffffffffff8111156148ee57600080fd5b8201601f810184136148ff57600080fd5b805161490d613c9782613d45565b81815285602083850101111561492257600080fd5b614933826020830160208601614275565b95945050505050565b60608152600061494f60608301866142a1565b905083602083015261ffff83166040830152949350505050565b60608152600061497c60608301866142a1565b905083602083015263ffffffff83166040830152949350505050565b602081526000611bd760208301846142a156fea2646970667358221220fe8edc70bc5f8f6ba7c713a022fd38e1c0d5733b987f85619a6173599e33cf4864736f6c63430008080033",
    "sourcePath": "/Users/kaptain/github.com/hardhat/comboox/contracts/keepers/BOGKeeper.sol",
    "compiler": {
        "name": "solc",
        "version": "0.8.8+commit.dddeac2f"
    },
    "functionHashes": {
        "abandonRole(bytes32)": "3da9a600",
        "boaAddr()": "e10f01c7",
        "bodAddr()": "bbd8b649",
        "bohAddr()": "ed194c88",
        "bomAddr()": "8aeb46c3",
        "booAddr()": "27b65df2",
        "bosAddr()": "b1f21086",
        "castVote(uint256,uint40,uint8,bytes32)": "cba36bf3",
        "createBoardSeal()": "14d3cb85",
        "createCorpSeal()": "d1a0ce56",
        "entrustDelegate(uint256,uint40,uint40)": "81ab05cb",
        "execAction(uint8,address[],uint256[],bytes[],bytes32,uint40)": "004f4174",
        "finalized()": "b3f05b97",
        "getBookeeper()": "ed211023",
        "getGeneralCounsel()": "103f6edd",
        "getOwner()": "893d20e8",
        "grantRole(bytes32,uint40)": "74099815",
        "hasRole(bytes32,uint40)": "79b2ec12",
        "init(uint40,address,address,address)": "821ee8ea",
        "lockContents()": "f045a769",
        "nominateOfficer(bytes32,uint8,uint40,uint40)": "dbf1f4c4",
        "proposeAction(uint8,address[],uint256[],bytes[],bytes32,uint40,uint40)": "e31f2d2c",
        "proposeDoc(address,uint8,uint40)": "b1b74397",
        "renounceRole(bytes32)": "8bb9c5bf",
        "requestToBuy(uint256,bytes32,uint40,uint40)": "3fb2be33",
        "revokeRole(bytes32,uint40)": "17c51fec",
        "romAddr()": "916d953c",
        "setBOA(address)": "655ae9ed",
        "setBOD(address)": "ae26d1d0",
        "setBOH(address)": "ba6bd79b",
        "setBOM(address)": "230750a1",
        "setBOO(address)": "92cb9101",
        "setBOS(address)": "f6b061a1",
        "setDirectKeeper(address)": "6be8496f",
        "setGeneralCounsel(uint40)": "3178a9a9",
        "setOwner(uint40)": "7ba706e8",
        "setROM(address)": "569ff3ff",
        "setRoleAdmin(bytes32,uint40)": "16dc517e",
        "voteCounting(uint256,uint40)": "0e91a0a7"
    },
    "gasEstimates": {
        "creation": {
            "codeDepositCost": "3782600",
            "executionCost": "4287",
            "totalCost": "3786887"
        },
        "external": {
            "abandonRole(bytes32)": "infinite",
            "boaAddr()": "2464",
            "bodAddr()": "2376",
            "bohAddr()": "2397",
            "bomAddr()": "2399",
            "booAddr()": "2432",
            "bosAddr()": "2420",
            "castVote(uint256,uint40,uint8,bytes32)": "infinite",
            "createBoardSeal()": "infinite",
            "createCorpSeal()": "infinite",
            "entrustDelegate(uint256,uint40,uint40)": "infinite",
            "execAction(uint8,address[],uint256[],bytes[],bytes32,uint40)": "infinite",
            "finalized()": "2438",
            "getBookeeper()": "infinite",
            "getGeneralCounsel()": "infinite",
            "getOwner()": "infinite",
            "grantRole(bytes32,uint40)": "infinite",
            "hasRole(bytes32,uint40)": "infinite",
            "init(uint40,address,address,address)": "infinite",
            "lockContents()": "infinite",
            "nominateOfficer(bytes32,uint8,uint40,uint40)": "infinite",
            "proposeAction(uint8,address[],uint256[],bytes[],bytes32,uint40,uint40)": "infinite",
            "proposeDoc(address,uint8,uint40)": "infinite",
            "renounceRole(bytes32)": "infinite",
            "requestToBuy(uint256,bytes32,uint40,uint40)": "infinite",
            "revokeRole(bytes32,uint40)": "infinite",
            "romAddr()": "2443",
            "setBOA(address)": "infinite",
            "setBOD(address)": "infinite",
            "setBOH(address)": "infinite",
            "setBOM(address)": "infinite",
            "setBOO(address)": "infinite",
            "setBOS(address)": "infinite",
            "setDirectKeeper(address)": "infinite",
            "setGeneralCounsel(uint40)": "infinite",
            "setOwner(uint40)": "infinite",
            "setROM(address)": "infinite",
            "setRoleAdmin(bytes32,uint40)": "infinite",
            "voteCounting(uint256,uint40)": "infinite"
        },
        "internal": {
            "_createOptSN(uint8,uint48,uint8,uint8,uint16,uint32)": "infinite"
        }
    }
}