{
    "contractName": "BOGKeeper",
    "abi": [
        {
            "anonymous": false,
            "inputs": [
                {
                    "indexed": false,
                    "internalType": "uint256",
                    "name": "owner",
                    "type": "uint256"
                },
                {
                    "indexed": false,
                    "internalType": "address",
                    "name": "directKeeper",
                    "type": "address"
                },
                {
                    "indexed": false,
                    "internalType": "address",
                    "name": "regCenter",
                    "type": "address"
                },
                {
                    "indexed": false,
                    "internalType": "address",
                    "name": "generalKeeper",
                    "type": "address"
                }
            ],
            "name": "Init",
            "type": "event"
        },
        {
            "anonymous": false,
            "inputs": [],
            "name": "LockContents",
            "type": "event"
        },
        {
            "anonymous": false,
            "inputs": [
                {
                    "indexed": false,
                    "internalType": "address",
                    "name": "keeper",
                    "type": "address"
                }
            ],
            "name": "SetDirectKeeper",
            "type": "event"
        },
        {
            "anonymous": false,
            "inputs": [
                {
                    "indexed": false,
                    "internalType": "uint256",
                    "name": "acct",
                    "type": "uint256"
                }
            ],
            "name": "SetGeneralCounsel",
            "type": "event"
        },
        {
            "anonymous": false,
            "inputs": [
                {
                    "indexed": false,
                    "internalType": "address",
                    "name": "gk",
                    "type": "address"
                }
            ],
            "name": "SetGeneralKeeper",
            "type": "event"
        },
        {
            "anonymous": false,
            "inputs": [
                {
                    "indexed": false,
                    "internalType": "uint256",
                    "name": "acct",
                    "type": "uint256"
                }
            ],
            "name": "SetOwner",
            "type": "event"
        },
        {
            "anonymous": false,
            "inputs": [
                {
                    "indexed": false,
                    "internalType": "address",
                    "name": "rc",
                    "type": "address"
                }
            ],
            "name": "SetRegCenter",
            "type": "event"
        },
        {
            "inputs": [
                {
                    "internalType": "bytes32",
                    "name": "role",
                    "type": "bytes32"
                }
            ],
            "name": "abandonRole",
            "outputs": [],
            "stateMutability": "nonpayable",
            "type": "function"
        },
        {
            "inputs": [
                {
                    "internalType": "uint256",
                    "name": "motionId",
                    "type": "uint256"
                },
                {
                    "internalType": "uint8",
                    "name": "attitude",
                    "type": "uint8"
                },
                {
                    "internalType": "bytes32",
                    "name": "sigHash",
                    "type": "bytes32"
                },
                {
                    "internalType": "uint256",
                    "name": "caller",
                    "type": "uint256"
                }
            ],
            "name": "castVote",
            "outputs": [],
            "stateMutability": "nonpayable",
            "type": "function"
        },
        {
            "inputs": [],
            "name": "createBoardSeal",
            "outputs": [],
            "stateMutability": "nonpayable",
            "type": "function"
        },
        {
            "inputs": [],
            "name": "createCorpSeal",
            "outputs": [],
            "stateMutability": "nonpayable",
            "type": "function"
        },
        {
            "inputs": [
                {
                    "internalType": "uint256",
                    "name": "actionId",
                    "type": "uint256"
                },
                {
                    "internalType": "uint256",
                    "name": "delegate",
                    "type": "uint256"
                },
                {
                    "internalType": "uint256",
                    "name": "caller",
                    "type": "uint256"
                }
            ],
            "name": "entrustDelegate",
            "outputs": [],
            "stateMutability": "nonpayable",
            "type": "function"
        },
        {
            "inputs": [
                {
                    "internalType": "uint256",
                    "name": "typeOfAction",
                    "type": "uint256"
                },
                {
                    "internalType": "address[]",
                    "name": "targets",
                    "type": "address[]"
                },
                {
                    "internalType": "uint256[]",
                    "name": "values",
                    "type": "uint256[]"
                },
                {
                    "internalType": "bytes[]",
                    "name": "params",
                    "type": "bytes[]"
                },
                {
                    "internalType": "bytes32",
                    "name": "desHash",
                    "type": "bytes32"
                },
                {
                    "internalType": "uint256",
                    "name": "caller",
                    "type": "uint256"
                }
            ],
            "name": "execAction",
            "outputs": [
                {
                    "internalType": "uint256",
                    "name": "",
                    "type": "uint256"
                }
            ],
            "stateMutability": "nonpayable",
            "type": "function"
        },
        {
            "inputs": [],
            "name": "finalized",
            "outputs": [
                {
                    "internalType": "bool",
                    "name": "",
                    "type": "bool"
                }
            ],
            "stateMutability": "view",
            "type": "function"
        },
        {
            "inputs": [],
            "name": "getBookeeper",
            "outputs": [
                {
                    "internalType": "address",
                    "name": "",
                    "type": "address"
                }
            ],
            "stateMutability": "view",
            "type": "function"
        },
        {
            "inputs": [],
            "name": "getGeneralCounsel",
            "outputs": [
                {
                    "internalType": "uint40",
                    "name": "",
                    "type": "uint40"
                }
            ],
            "stateMutability": "view",
            "type": "function"
        },
        {
            "inputs": [],
            "name": "getOwner",
            "outputs": [
                {
                    "internalType": "uint40",
                    "name": "",
                    "type": "uint40"
                }
            ],
            "stateMutability": "view",
            "type": "function"
        },
        {
            "inputs": [
                {
                    "internalType": "bytes32",
                    "name": "role",
                    "type": "bytes32"
                },
                {
                    "internalType": "uint256",
                    "name": "acct",
                    "type": "uint256"
                }
            ],
            "name": "grantRole",
            "outputs": [],
            "stateMutability": "nonpayable",
            "type": "function"
        },
        {
            "inputs": [
                {
                    "internalType": "bytes32",
                    "name": "role",
                    "type": "bytes32"
                },
                {
                    "internalType": "uint256",
                    "name": "acct",
                    "type": "uint256"
                }
            ],
            "name": "hasRole",
            "outputs": [
                {
                    "internalType": "bool",
                    "name": "",
                    "type": "bool"
                }
            ],
            "stateMutability": "view",
            "type": "function"
        },
        {
            "inputs": [
                {
                    "internalType": "uint256",
                    "name": "owner",
                    "type": "uint256"
                },
                {
                    "internalType": "address",
                    "name": "directKeeper",
                    "type": "address"
                },
                {
                    "internalType": "address",
                    "name": "regCenter",
                    "type": "address"
                },
                {
                    "internalType": "address",
                    "name": "generalKeeper",
                    "type": "address"
                }
            ],
            "name": "init",
            "outputs": [],
            "stateMutability": "nonpayable",
            "type": "function"
        },
        {
            "inputs": [],
            "name": "lockContents",
            "outputs": [],
            "stateMutability": "nonpayable",
            "type": "function"
        },
        {
            "inputs": [
                {
                    "internalType": "uint256",
                    "name": "seqOfBSR",
                    "type": "uint256"
                },
                {
                    "internalType": "uint256",
                    "name": "seqOfTitle",
                    "type": "uint256"
                },
                {
                    "internalType": "uint256",
                    "name": "nominator",
                    "type": "uint256"
                },
                {
                    "internalType": "uint256",
                    "name": "candidate",
                    "type": "uint256"
                }
            ],
            "name": "nominateOfficer",
            "outputs": [],
            "stateMutability": "nonpayable",
            "type": "function"
        },
        {
            "inputs": [
                {
                    "internalType": "uint256",
                    "name": "typeOfAction",
                    "type": "uint256"
                },
                {
                    "internalType": "address[]",
                    "name": "targets",
                    "type": "address[]"
                },
                {
                    "internalType": "uint256[]",
                    "name": "values",
                    "type": "uint256[]"
                },
                {
                    "internalType": "bytes[]",
                    "name": "params",
                    "type": "bytes[]"
                },
                {
                    "internalType": "bytes32",
                    "name": "desHash",
                    "type": "bytes32"
                },
                {
                    "internalType": "uint256",
                    "name": "executor",
                    "type": "uint256"
                },
                {
                    "internalType": "uint256",
                    "name": "submitter",
                    "type": "uint256"
                }
            ],
            "name": "proposeAction",
            "outputs": [],
            "stateMutability": "nonpayable",
            "type": "function"
        },
        {
            "inputs": [
                {
                    "internalType": "address",
                    "name": "doc",
                    "type": "address"
                },
                {
                    "internalType": "uint256",
                    "name": "seqOfVR",
                    "type": "uint256"
                },
                {
                    "internalType": "uint256",
                    "name": "caller",
                    "type": "uint256"
                }
            ],
            "name": "proposeDoc",
            "outputs": [],
            "stateMutability": "nonpayable",
            "type": "function"
        },
        {
            "inputs": [
                {
                    "internalType": "bytes32",
                    "name": "role",
                    "type": "bytes32"
                }
            ],
            "name": "renounceRole",
            "outputs": [],
            "stateMutability": "nonpayable",
            "type": "function"
        },
        {
            "inputs": [
                {
                    "internalType": "uint256",
                    "name": "motionId",
                    "type": "uint256"
                },
                {
                    "internalType": "uint256",
                    "name": "seqOfDeal",
                    "type": "uint256"
                },
                {
                    "internalType": "uint256",
                    "name": "againstVoter",
                    "type": "uint256"
                },
                {
                    "internalType": "uint32",
                    "name": "seqOfTarget",
                    "type": "uint32"
                },
                {
                    "internalType": "uint256",
                    "name": "caller",
                    "type": "uint256"
                }
            ],
            "name": "requestToBuy",
            "outputs": [],
            "stateMutability": "nonpayable",
            "type": "function"
        },
        {
            "inputs": [
                {
                    "internalType": "bytes32",
                    "name": "role",
                    "type": "bytes32"
                },
                {
                    "internalType": "uint256",
                    "name": "acct",
                    "type": "uint256"
                }
            ],
            "name": "revokeRole",
            "outputs": [],
            "stateMutability": "nonpayable",
            "type": "function"
        },
        {
            "inputs": [
                {
                    "internalType": "address",
                    "name": "keeper",
                    "type": "address"
                }
            ],
            "name": "setDirectKeeper",
            "outputs": [],
            "stateMutability": "nonpayable",
            "type": "function"
        },
        {
            "inputs": [
                {
                    "internalType": "uint256",
                    "name": "acct",
                    "type": "uint256"
                }
            ],
            "name": "setGeneralCounsel",
            "outputs": [],
            "stateMutability": "nonpayable",
            "type": "function"
        },
        {
            "inputs": [
                {
                    "internalType": "uint256",
                    "name": "acct",
                    "type": "uint256"
                }
            ],
            "name": "setOwner",
            "outputs": [],
            "stateMutability": "nonpayable",
            "type": "function"
        },
        {
            "inputs": [
                {
                    "internalType": "bytes32",
                    "name": "role",
                    "type": "bytes32"
                },
                {
                    "internalType": "uint256",
                    "name": "acct",
                    "type": "uint256"
                }
            ],
            "name": "setRoleAdmin",
            "outputs": [],
            "stateMutability": "nonpayable",
            "type": "function"
        },
        {
            "inputs": [
                {
                    "internalType": "uint256",
                    "name": "motionId",
                    "type": "uint256"
                },
                {
                    "internalType": "uint256",
                    "name": "caller",
                    "type": "uint256"
                }
            ],
            "name": "voteCounting",
            "outputs": [],
            "stateMutability": "nonpayable",
            "type": "function"
        }
    ],
    "bytecode": "608060405234801561001057600080fd5b506145a0806100206000396000f3fe608060405234801561001057600080fd5b50600436106101735760003560e01c80638041494e116100de578063d1a0ce5611610097578063f045a76911610071578063f045a76914610324578063f894759e1461032c578063fd560e181461033f578063fe1bdff21461035257600080fd5b8063d1a0ce56146102e9578063dc890da9146102f1578063ed2110231461030457600080fd5b80638041494e14610273578063893d20e8146102865780638bb9c5bf1461028e578063959efc85146102a1578063b3f05b97146102c2578063bbfd607d146102d657600080fd5b80634a14beb1116101305780634a14beb1146101f15780634f6413ac146102045780635171ebd4146102175780636600f97a1461022a5780636be8496f1461023d5780637e063c5a1461025057600080fd5b8063103f6edd1461017857806314d3cb851461019b57806319d61ad9146101a55780631b6ea9f9146101b85780631fa1fdc5146101cb5780633da9a600146101de575b600080fd5b610180610365565b60405164ffffffffff90911681526020015b60405180910390f35b6101a36103f1565b005b6101a36101b3366004613034565b610518565b6101a36101c6366004613034565b6105ac565b6101a36101d9366004613068565b6105d1565b6101a36101ec3660046130a5565b61079b565b6101a36101ff3660046130a5565b6108ad565b6101a36102123660046130be565b610a9d565b6101a3610225366004613034565b610f78565b6101a3610238366004613105565b610f9d565b6101a361024b36600461313a565b611495565b61026361025e366004613034565b611547565b6040519015158152602001610192565b6101a36102813660046130a5565b6115e4565b6101806117c9565b6101a361029c3660046130a5565b611804565b6102b46102af366004613471565b61185d565b604051908152602001610192565b60028054600160f01b900460ff1614610263565b6101a36102e4366004613514565b611a8a565b6101a3611c10565b6101a36102ff3660046135c0565b611cf7565b61030c611dda565b6040516001600160a01b039091168152602001610192565b6101a3611e60565b6101a361033a366004613034565b61207e565b6101a361034d366004613625565b61224c565b6101a361036036600461366e565b612afc565b60405163e8c0cc1d60e01b81526002600482015260009073__$364aad554dc80380f414546becdd2c1584$__9063e8c0cc1d906024015b60206040518083038186803b1580156103b457600080fd5b505af41580156103c8573d6000803e3d6000fd5b505050506040513d601f19601f820116820180604052508101906103ec91906136b4565b905090565b604051633b11adbf60e21b81526002600482015233602482015273__$364aad554dc80380f414546becdd2c1584$__9063ec46b6fc9060440160206040518083038186803b15801561044257600080fd5b505af4158015610456573d6000803e3d6000fd5b505050506040513d601f19601f8201168201806040525081019061047a91906136df565b61049f5760405162461bcd60e51b8152600401610496906136fa565b60405180910390fd5b6104a7612d2a565b6001600160a01b031663180dc60e6104bd612d8e565b6040516001600160e01b031960e084901b1681526001600160a01b039091166004820152602401600060405180830381600087803b1580156104fe57600080fd5b505af1158015610512573d6000803e3d6000fd5b50505050565b73__$364aad554dc80380f414546becdd2c1584$__6382daafaa60028461053d612dac565b6040516001600160e01b031960e086901b1681526004810193909352602483019190915264ffffffffff166044820152606481018490526084015b60006040518083038186803b15801561059057600080fd5b505af41580156105a4573d6000803e3d6000fd5b505050505050565b73__$364aad554dc80380f414546becdd2c1584$__636320d75e60028461053d612dac565b604051633b11adbf60e21b81526002600482015233602482015273__$364aad554dc80380f414546becdd2c1584$__9063ec46b6fc9060440160206040518083038186803b15801561062257600080fd5b505af4158015610636573d6000803e3d6000fd5b505050506040513d601f19601f8201168201806040525081019061065a91906136df565b6106765760405162461bcd60e51b8152600401610496906136fa565b8061067f612e06565b6001600160a01b031663d50c7377826040518263ffffffff1660e01b81526004016106ac91815260200190565b60206040518083038186803b1580156106c457600080fd5b505afa1580156106d8573d6000803e3d6000fd5b505050506040513d601f19601f820116820180604052508101906106fc91906136df565b6107185760405162461bcd60e51b815260040161049690613740565b610720612d2a565b604051632de3207560e01b8152600481018790526024810184905260ff86166044820152606481018590526001600160a01b039190911690632de32075906084015b600060405180830381600087803b15801561077c57600080fd5b505af1158015610790573d6000803e3d6000fd5b505050505050505050565b604051633b11adbf60e21b81526002600482015233602482015273__$364aad554dc80380f414546becdd2c1584$__9063ec46b6fc9060440160206040518083038186803b1580156107ec57600080fd5b505af4158015610800573d6000803e3d6000fd5b505050506040513d601f19601f8201168201806040525081019061082491906136df565b6108405760405162461bcd60e51b8152600401610496906136fa565b60405163cc99e11b60e01b8152600260048201526024810182905273__$364aad554dc80380f414546becdd2c1584$__9063cc99e11b9060440160006040518083038186803b15801561089257600080fd5b505af41580156108a6573d6000803e3d6000fd5b5050505050565b604051633b11adbf60e21b81526002600482015233602482015273__$364aad554dc80380f414546becdd2c1584$__9063ec46b6fc9060440160206040518083038186803b1580156108fe57600080fd5b505af4158015610912573d6000803e3d6000fd5b505050506040513d601f19601f8201168201806040525081019061093691906136df565b806109db575073__$364aad554dc80380f414546becdd2c1584$__63fe2710866002610960612dac565b6040516001600160e01b031960e085901b168152600481019290925264ffffffffff16602482015260440160206040518083038186803b1580156109a357600080fd5b505af41580156109b7573d6000803e3d6000fd5b505050506040513d601f19601f820116820180604052508101906109db91906136df565b6109f75760405162461bcd60e51b815260040161049690613770565b604051632725ebef60e21b8152600260048201526024810182905273__$364aad554dc80380f414546becdd2c1584$__90639c97afbc9060440160006040518083038186803b158015610a4957600080fd5b505af4158015610a5d573d6000803e3d6000fd5b505050507ff2735f34b69be1e6342dea95f9162f84d0db925fab655ca9f1f312ac8cbfc99d81604051610a9291815260200190565b60405180910390a150565b604051633b11adbf60e21b81526002600482015233602482015273__$364aad554dc80380f414546becdd2c1584$__9063ec46b6fc9060440160206040518083038186803b158015610aee57600080fd5b505af4158015610b02573d6000803e3d6000fd5b505050506040513d601f19601f82011682018060405250810190610b2691906136df565b610b425760405162461bcd60e51b8152600401610496906136fa565b81610b4b612e06565b6001600160a01b031663d50c7377826040518263ffffffff1660e01b8152600401610b7891815260200190565b60206040518083038186803b158015610b9057600080fd5b505afa158015610ba4573d6000803e3d6000fd5b505050506040513d601f19601f82011682018060405250810190610bc891906136df565b610be45760405162461bcd60e51b815260040161049690613740565b6000610bee612e21565b6001600160a01b03166348462037876040518263ffffffff1660e01b8152600401610c1b91815260200190565b60206040518083038186803b158015610c3357600080fd5b505afa158015610c47573d6000803e3d6000fd5b505050506040513d601f19601f82011682018060405250810190610c6b91906137c6565b6040516366e5ec3360e01b8152600481019190915273__$9d2c69e94fee47b9774dc8db4aa5c0bbec$__906366e5ec33906024016102606040518083038186803b158015610cb857600080fd5b505af4158015610ccc573d6000803e3d6000fd5b505050506040513d601f19601f82011682018060405250810190610cf09190613853565b905083816060015164ffffffffff1614610d4c5760405162461bcd60e51b815260206004820152601f60248201527f424f474b2e4e4f3a2063616c6c6572206e6f74207269676874686f6c646572006044820152606401610496565b806080015161ffff16610d5d612d8e565b6001600160a01b0316638b741818866040518263ffffffff1660e01b8152600401610d8a91815260200190565b60206040518083038186803b158015610da257600080fd5b505afa158015610db6573d6000803e3d6000fd5b505050506040513d601f19601f82011682018060405250810190610dda91906137c6565b11610e275760405162461bcd60e51b815260206004820152601b60248201527f424f474b2e4e4f3a20626f61726420686173206e6f20736561747300000000006044820152606401610496565b60008160c001518660078110610e3f57610e3f613932565b602002015161ffff16905060008260a001518760078110610e6257610e62613932565b60200201519050600a8211610ef157610e79612d2a565b60405163d9732b8160e01b81526004810184905260ff8316602482015260448101889052606481018790526001600160a01b03919091169063d9732b8190608401600060405180830381600087803b158015610ed457600080fd5b505af1158015610ee8573d6000803e3d6000fd5b50505050610f6e565b610ef9612d8e565b60405163d9732b8160e01b81526004810184905260ff8316602482015260448101889052606481018790526001600160a01b03919091169063d9732b81906084015b600060405180830381600087803b158015610f5557600080fd5b505af1158015610f69573d6000803e3d6000fd5b505050505b5050505050505050565b73__$364aad554dc80380f414546becdd2c1584$__63ee98b31360028461053d612dac565b604051633b11adbf60e21b81526002600482015233602482015273__$364aad554dc80380f414546becdd2c1584$__9063ec46b6fc9060440160206040518083038186803b158015610fee57600080fd5b505af4158015611002573d6000803e3d6000fd5b505050506040513d601f19601f8201168201806040525081019061102691906136df565b6110425760405162461bcd60e51b8152600401610496906136fa565b8061104b612e06565b6001600160a01b031663d50c7377826040518263ffffffff1660e01b815260040161107891815260200190565b60206040518083038186803b15801561109057600080fd5b505afa1580156110a4573d6000803e3d6000fd5b505050506040513d601f19601f820116820180604052508101906110c891906136df565b6110e45760405162461bcd60e51b815260040161049690613740565b6040516308c5f91760e41b8152600481018390526001600160a01b03851690638c5f91709060240160206040518083038186803b15801561112457600080fd5b505afa158015611138573d6000803e3d6000fd5b505050506040513d601f19601f8201168201806040525081019061115c91906136df565b6111a85760405162461bcd60e51b815260206004820152601960248201527f424f474b2e50443a204e4f54205061727479206f6620446f63000000000000006044820152606401610496565b6000836008141580156111bc575083601214155b156111d0576111c9612e63565b90506111ef565b83600814806111df5750836012145b156111ef576111ec612e7d565b90505b60405163de154c2760e01b81526001600160a01b0386811660048301526000919083169063de154c279060240160c06040518083038186803b15801561123457600080fd5b505afa158015611248573d6000803e3d6000fd5b505050506040513d601f19601f8201168201806040525081019061126c919061395e565b60a081015190915060ff166003146112c65760405162461bcd60e51b815260206004820152601f60248201527f424f474b2e50443a20646f63206e6f74206f6e2045737461626c6973686564006044820152606401610496565b42816060015165ffffffffffff16106113315760405162461bcd60e51b815260206004820152602760248201527f424f474b2e504d3a204941206e6f7420706173736564207265766965772070726044820152666f63656475726560c81b6064820152608401610496565b806060015165ffffffffffff16816080015165ffffffffffff161480611363575042816080015165ffffffffffff1610155b6113af5760405162461bcd60e51b815260206004820152601e60248201527f424f474b2e504d3a206d697373656420766f74696e67446561646c696e6500006044820152606401610496565b60405163108fac0b60e11b81526001600160a01b03878116600483810191909152602483015283169063211f581690604401600060405180830381600087803b1580156113fb57600080fd5b505af115801561140f573d6000803e3d6000fd5b5050505061141b612d2a565b60405163cd43b16560e01b81526001600160a01b038881166004830152602482018890526044820187905260006064830152919091169063cd43b16590608401600060405180830381600087803b15801561147557600080fd5b505af1158015611489573d6000803e3d6000fd5b50505050505050505050565b604051630f07232560e01b8152600260048201523360248201526001600160a01b038216604482015273__$364aad554dc80380f414546becdd2c1584$__90630f0723259060640160006040518083038186803b1580156114f557600080fd5b505af4158015611509573d6000803e3d6000fd5b50506040516001600160a01b03841681527fe435cbeab64e4eae6497b9d8289704bd709d624a80704ef3ca9af777534bc6ec92506020019050610a92565b604051632a3be56b60e21b815260026004820152602481018390526044810182905260009073__$364aad554dc80380f414546becdd2c1584$__9063a8ef95ac9060640160206040518083038186803b1580156115a357600080fd5b505af41580156115b7573d6000803e3d6000fd5b505050506040513d601f19601f820116820180604052508101906115db91906136df565b90505b92915050565b604051633b11adbf60e21b81526002600482015233602482015273__$364aad554dc80380f414546becdd2c1584$__9063ec46b6fc9060440160206040518083038186803b15801561163557600080fd5b505af4158015611649573d6000803e3d6000fd5b505050506040513d601f19601f8201168201806040525081019061166d91906136df565b80611712575073__$364aad554dc80380f414546becdd2c1584$__63fe2710866002611697612dac565b6040516001600160e01b031960e085901b168152600481019290925264ffffffffff16602482015260440160206040518083038186803b1580156116da57600080fd5b505af41580156116ee573d6000803e3d6000fd5b505050506040513d601f19601f8201168201806040525081019061171291906136df565b61172e5760405162461bcd60e51b815260040161049690613770565b60405163b6e38a2960e01b8152600260048201526024810182905273__$364aad554dc80380f414546becdd2c1584$__9063b6e38a299060440160006040518083038186803b15801561178057600080fd5b505af4158015611794573d6000803e3d6000fd5b505050507f8b6f40f36b4ae8cc5f55e895036457c43da4ab1f80f58c46f5ff0d72a650033b81604051610a9291815260200190565b60405163987ad15360e01b81526002600482015260009073__$364aad554dc80380f414546becdd2c1584$__9063987ad1539060240161039c565b600061180e612dac565b60405163cc0d511b60e01b8152600260048201526024810184905264ffffffffff8216604482015290915073__$364aad554dc80380f414546becdd2c1584$__9063cc0d511b90606401610578565b6000611867612d8e565b6001600160a01b0316639258effe836040518263ffffffff1660e01b815260040161189491815260200190565b60206040518083038186803b1580156118ac57600080fd5b505afa1580156118c0573d6000803e3d6000fd5b505050506040513d601f19601f820116820180604052508101906118e491906136df565b6119305760405162461bcd60e51b815260206004820152601860248201527f63616c6c6572206973206e6f742061204469726563746f7200000000000000006044820152606401610496565b6000546040516304e4a58160e31b8152600481018490526001600160a01b03909116906327252c089060240160206040518083038186803b15801561197457600080fd5b505afa158015611988573d6000803e3d6000fd5b505050506040513d601f19601f820116820180604052508101906119ac91906136df565b156119f05760405162461bcd60e51b815260206004820152601460248201527363616c6c6572206973206e6f7420616e20454f4160601b6044820152606401610496565b6119f8612d2a565b6001600160a01b031663240a64388888888887896040518763ffffffff1660e01b8152600401611a2d96959493929190613ae5565b602060405180830381600087803b158015611a4757600080fd5b505af1158015611a5b573d6000803e3d6000fd5b505050506040513d601f19601f82011682018060405250810190611a7f91906137c6565b979650505050505050565b604051633b11adbf60e21b81526002600482015233602482015273__$364aad554dc80380f414546becdd2c1584$__9063ec46b6fc9060440160206040518083038186803b158015611adb57600080fd5b505af4158015611aef573d6000803e3d6000fd5b505050506040513d601f19601f82011682018060405250810190611b1391906136df565b611b2f5760405162461bcd60e51b8152600401610496906136fa565b80611b38612e06565b6001600160a01b031663d50c7377826040518263ffffffff1660e01b8152600401611b6591815260200190565b60206040518083038186803b158015611b7d57600080fd5b505afa158015611b91573d6000803e3d6000fd5b505050506040513d601f19601f82011682018060405250810190611bb591906136df565b611bd15760405162461bcd60e51b815260040161049690613740565b611bd9612d2a565b6001600160a01b031663bbfd607d8989898989888a6040518863ffffffff1660e01b8152600401610f3b9796959493929190613b3a565b604051633b11adbf60e21b81526002600482015233602482015273__$364aad554dc80380f414546becdd2c1584$__9063ec46b6fc9060440160206040518083038186803b158015611c6157600080fd5b505af4158015611c75573d6000803e3d6000fd5b505050506040513d601f19601f82011682018060405250810190611c9991906136df565b611cb55760405162461bcd60e51b8152600401610496906136fa565b611cbd612d2a565b6001600160a01b031663d1a0ce566040518163ffffffff1660e01b8152600401600060405180830381600087803b1580156104fe57600080fd5b611d0082612e98565b611d0981612f47565b604051636cdd0edf60e11b815260026004820152602481018590526001600160a01b038416604482015273__$364aad554dc80380f414546becdd2c1584$__9063d9ba1dbe9060640160006040518083038186803b158015611d6a57600080fd5b505af4158015611d7e573d6000803e3d6000fd5b5050604080518781526001600160a01b038781166020830152868116828401528516606082015290517f3abb2418c66fe32ba9c883030a75ce583971d9af9192b9b74e44e67c5e6c8c1f9350908190036080019150a150505050565b604051633c3e56c160e11b81526002600482015260009073__$364aad554dc80380f414546becdd2c1584$__9063787cad829060240160206040518083038186803b158015611e2857600080fd5b505af4158015611e3c573d6000803e3d6000fd5b505050506040513d601f19601f820116820180604052508101906103ec9190613b99565b604051633b11adbf60e21b81526002600482015233602482015273__$364aad554dc80380f414546becdd2c1584$__9063ec46b6fc9060440160206040518083038186803b158015611eb157600080fd5b505af4158015611ec5573d6000803e3d6000fd5b505050506040513d601f19601f82011682018060405250810190611ee991906136df565b611f055760405162461bcd60e51b8152600401610496906136fa565b600254600160f01b900460ff16600114611f615760405162461bcd60e51b815260206004820181905260248201527f41432e6f6e6c7950656e64696e673a20446f632069732066696e616c697a65646044820152606401610496565b60405163cc99e11b60e01b815260026004820152684174746f726e65797360b81b602482015273__$364aad554dc80380f414546becdd2c1584$__9063cc99e11b9060440160006040518083038186803b158015611fbe57600080fd5b505af4158015611fd2573d6000803e3d6000fd5b5050604051632725ebef60e21b8152600260048201526000602482015273__$364aad554dc80380f414546becdd2c1584$__9250639c97afbc915060440160006040518083038186803b15801561202857600080fd5b505af415801561203c573d6000803e3d6000fd5b50506002805460ff60f01b1916600160f11b17905550506040517f35012b512309c322acf68632cd6cb702ff0e1d776fbe9394e38ffc13b434fe7590600090a1565b604051633b11adbf60e21b81526002600482015233602482015273__$364aad554dc80380f414546becdd2c1584$__9063ec46b6fc9060440160206040518083038186803b1580156120cf57600080fd5b505af41580156120e3573d6000803e3d6000fd5b505050506040513d601f19601f8201168201806040525081019061210791906136df565b6121235760405162461bcd60e51b8152600401610496906136fa565b8061212c612e06565b6001600160a01b031663d50c7377826040518263ffffffff1660e01b815260040161215991815260200190565b60206040518083038186803b15801561217157600080fd5b505afa158015612185573d6000803e3d6000fd5b505050506040513d601f19601f820116820180604052508101906121a991906136df565b6121c55760405162461bcd60e51b815260040161049690613740565b6121cd612d2a565b6001600160a01b031663f8fb9e1d846040518263ffffffff1660e01b81526004016121fa91815260200190565b602060405180830381600087803b15801561221457600080fd5b505af1158015612228573d6000803e3d6000fd5b505050506040513d601f19601f8201168201806040525081019061051291906136df565b604051633b11adbf60e21b81526002600482015233602482015273__$364aad554dc80380f414546becdd2c1584$__9063ec46b6fc9060440160206040518083038186803b15801561229d57600080fd5b505af41580156122b1573d6000803e3d6000fd5b505050506040513d601f19601f820116820180604052508101906122d591906136df565b6122f15760405162461bcd60e51b8152600401610496906136fa565b6040516320bf56eb60e21b8152600481018590526000906001600160a01b038716906382fd5bac906024016101e06040518083038186803b15801561233557600080fd5b505afa158015612349573d6000803e3d6000fd5b505050506040513d601f19601f8201168201806040525081019061236d9190613c57565b805160a0015190915064ffffffffff1682146123cb5760405162461bcd60e51b815260206004820181905260248201527f424f474b65657065722e5254423a2063616c6c6572204e4f542053656c6c65726044820152606401610496565b60006123d5612d2a565b6001600160a01b03166364525a0d886040518263ffffffff1660e01b815260040161240291815260200190565b60c06040518083038186803b15801561241a57600080fd5b505afa15801561242e573d6000803e3d6000fd5b505050506040513d601f19601f820116820180604052508101906124529190613d5d565b805190915060ff166005146124a95760405162461bcd60e51b815260206004820152601d60248201527f424f474b65657065722e5254423a204e4f206e65656420746f206275790000006044820152606401610496565b60006124b3612d2a565b6001600160a01b031663aaf7bfc6896040518263ffffffff1660e01b81526004016124e091815260200190565b6102206040518083038186803b1580156124f957600080fd5b505afa15801561250d573d6000803e3d6000fd5b505050506040513d601f19601f820116820180604052508101906125319190613e48565b9050806101a0015160ff1681610180015160ff1661254f9190613f81565b61255c9062015180613fab565b8260a0015161256b9190613f81565b65ffffffffffff1642106125c15760405162461bcd60e51b815260206004820152601a60248201527f424f474b2e5254423a206d6973736564204558454320646174650000000000006044820152606401610496565b60006201518042856000015161010001516125dc9190613fd9565b6125e89061a8c0613f81565b6125f29190614000565b90506126c06040805161018081019091526000606082018181526080830182905260a0830182905260c0830182905260e0830182905261010083018290526101208301829052610140830182905261016083019190915281908152604080516101008101825260008082526020828101829052928201819052606082018190526080820181905260a0820181905260c0820181905260e082015291019081526040805160a0810182526000808252602082810182905292820181905260608201819052608082015291015290565b6040805161012081019091526000815260208101600160ff16815260200186600001516060015161ffff168152602001866000015160c0015163ffffffff168152602001600065ffffffffffff1681526020014265ffffffffffff168152602001600161ffff1681526020018360ff1661ffff1681526020018964ffffffffff1681525081600001819052506040518060a001604052808660000151610100015165ffffffffffff1681526020018764ffffffffff1681526020018660200151604001516001600160401b031681526020018660200151606001516001600160401b03168152602001600060ff16815250816040018190525060006127c3612ffe565b6040516388e332db60e01b81529091506001600160a01b038216906388e332db906127f29085906004016140bb565b61012060405180830381600087803b15801561280d57600080fd5b505af1158015612821573d6000803e3d6000fd5b505050506040513d601f19601f8201168201806040525081019061284591906141ed565b808352516040516332aaffbd60e11b815263ffffffff90911660048201526001600160a01b03821690636555ff7a90602401600060405180830381600087803b15801561289157600080fd5b505af11580156128a5573d6000803e3d6000fd5b505083515188516080015160208a01516040908101519051635ee35dbb60e11b815263ffffffff938416600482015291831660248301526001600160401b03166044820152908b166064820152600092506001600160a01b038416915063bdc6bb76906084016101e06040518083038186803b15801561292457600080fd5b505afa158015612938573d6000803e3d6000fd5b505050506040513d601f19601f8201168201806040525081019061295c9190614340565b90506000612968613019565b604051636860af7960e11b81529091506001600160a01b0382169063d0c15ef290612997908590600401614524565b6101e060405180830381600087803b1580156129b257600080fd5b505af11580156129c6573d6000803e3d6000fd5b505050506040513d601f19601f820116820180604052508101906129ea9190614340565b8051518951608001516040516303f1d00760e61b815263ffffffff92831660048201529082166024820152908c1660448201529092506001600160a01b0382169063fc7401c09060640160c060405180830381600087803b158015612a4e57600080fd5b505af1158015612a62573d6000803e3d6000fd5b505050506040513d601f19601f82011682018060405250810190612a869190614533565b60208301528351516040516362ebb21960e11b81526001600160a01b0385169163c5d7643291612abb9190869060040161454f565b600060405180830381600087803b158015612ad557600080fd5b505af1158015612ae9573d6000803e3d6000fd5b5050505050505050505050505050505050565b604051633b11adbf60e21b81526002600482015233602482015273__$364aad554dc80380f414546becdd2c1584$__9063ec46b6fc9060440160206040518083038186803b158015612b4d57600080fd5b505af4158015612b61573d6000803e3d6000fd5b505050506040513d601f19601f82011682018060405250810190612b8591906136df565b612ba15760405162461bcd60e51b8152600401610496906136fa565b80612baa612e06565b6001600160a01b031663d50c7377826040518263ffffffff1660e01b8152600401612bd791815260200190565b60206040518083038186803b158015612bef57600080fd5b505afa158015612c03573d6000803e3d6000fd5b505050506040513d601f19601f82011682018060405250810190612c2791906136df565b612c435760405162461bcd60e51b815260040161049690613740565b82612c4c612e06565b6001600160a01b031663d50c7377826040518263ffffffff1660e01b8152600401612c7991815260200190565b60206040518083038186803b158015612c9157600080fd5b505afa158015612ca5573d6000803e3d6000fd5b505050506040513d601f19601f82011682018060405250810190612cc991906136df565b612ce55760405162461bcd60e51b815260040161049690613740565b612ced612d2a565b604051637f0deff960e11b81526004810187905260248101859052604481018690526001600160a01b03919091169063fe1bdff290606401610762565b6001546000906001600160a01b031663e0ff5b8b60025b6040516001600160e01b031960e084901b16815260ff909116600482015260240160206040518083038186803b158015612d7a57600080fd5b505afa158015611e3c573d6000803e3d6000fd5b600180546000916001600160a01b039091169063e0ff5b8b90612d41565b60008054604051634de835e760e11b81523360048201526001600160a01b0390911690639bd06bce90602401602060405180830381600087803b158015612df257600080fd5b505af11580156103c8573d6000803e3d6000fd5b6001546000906001600160a01b031663e0ff5b8b6007612d41565b6000612e2b612e7d565b6001600160a01b0316632f5f3b3c6040518163ffffffff1660e01b815260040160206040518083038186803b158015612d7a57600080fd5b6001546000906001600160a01b031663e0ff5b8b82612d41565b6001546000906001600160a01b031663e0ff5b8b6003612d41565b6000546001600160a01b031615612ee95760405162461bcd60e51b815260206004820152601560248201527430b63932b0b23c9039b2ba103932b3a1b2b73a32b960591b6044820152606401610496565b6040516001600160a01b03821681527f318da6c7624c71cbc0afe346c9d8827f119d0ecefb241a7b0c87217a076a8e029060200160405180910390a1600080546001600160a01b0319166001600160a01b0392909216919091179055565b6001546001600160a01b031615612fa05760405162461bcd60e51b815260206004820152601960248201527f616c7265616479207365742067656e6572616c4b6565706572000000000000006044820152606401610496565b6040516001600160a01b03821681527fe513d3e0f0d0a3877029dcc588748679a7a3450ec1ec7ed56d96bd012c3e61aa9060200160405180910390a1600180546001600160a01b0319166001600160a01b0392909216919091179055565b6001546000906001600160a01b031663e0ff5b8b6004612d41565b6001546000906001600160a01b031663e0ff5b8b6008612d41565b6000806040838503121561304757600080fd5b50508035926020909101359150565b60ff8116811461306557600080fd5b50565b6000806000806080858703121561307e57600080fd5b84359350602085013561309081613056565b93969395505050506040820135916060013590565b6000602082840312156130b757600080fd5b5035919050565b600080600080608085870312156130d457600080fd5b5050823594602084013594506040840135936060013592509050565b6001600160a01b038116811461306557600080fd5b60008060006060848603121561311a57600080fd5b8335613125816130f0565b95602085013595506040909401359392505050565b60006020828403121561314c57600080fd5b8135613157816130f0565b9392505050565b634e487b7160e01b600052604160045260246000fd5b60405160e081016001600160401b03811182821017156131965761319661315e565b60405290565b60405160c081016001600160401b03811182821017156131965761319661315e565b604051606081016001600160401b03811182821017156131965761319661315e565b60405161014081016001600160401b03811182821017156131965761319661315e565b6040516101e081016001600160401b03811182821017156131965761319661315e565b60405161012081016001600160401b03811182821017156131965761319661315e565b60405161010081016001600160401b03811182821017156131965761319661315e565b604051601f8201601f191681016001600160401b03811182821017156132945761329461315e565b604052919050565b60006001600160401b038211156132b5576132b561315e565b5060051b60200190565b600082601f8301126132d057600080fd5b813560206132e56132e08361329c565b61326c565b82815260059290921b8401810191818101908684111561330457600080fd5b8286015b8481101561332857803561331b816130f0565b8352918301918301613308565b509695505050505050565b600082601f83011261334457600080fd5b813560206133546132e08361329c565b82815260059290921b8401810191818101908684111561337357600080fd5b8286015b848110156133285780358352918301918301613377565b6000601f83818401126133a057600080fd5b823560206133b06132e08361329c565b82815260059290921b850181019181810190878411156133cf57600080fd5b8287015b848110156134655780356001600160401b03808211156133f35760008081fd5b818a0191508a603f8301126134085760008081fd5b8582013560408282111561341e5761341e61315e565b61342f828b01601f1916890161326c565b92508183528c818386010111156134465760008081fd5b81818501898501375060009082018701528452509183019183016133d3565b50979650505050505050565b60008060008060008060c0878903121561348a57600080fd5b8635955060208701356001600160401b03808211156134a857600080fd5b6134b48a838b016132bf565b965060408901359150808211156134ca57600080fd5b6134d68a838b01613333565b955060608901359150808211156134ec57600080fd5b506134f989828a0161338e565b9350506080870135915060a087013590509295509295509295565b600080600080600080600060e0888a03121561352f57600080fd5b8735965060208801356001600160401b038082111561354d57600080fd5b6135598b838c016132bf565b975060408a013591508082111561356f57600080fd5b61357b8b838c01613333565b965060608a013591508082111561359157600080fd5b5061359e8a828b0161338e565b979a969950949760808101359660a0820135965060c090910135945092505050565b600080600080608085870312156135d657600080fd5b8435935060208501356135e8816130f0565b925060408501356135f8816130f0565b91506060850135613608816130f0565b939692955090935050565b63ffffffff8116811461306557600080fd5b600080600080600060a0868803121561363d57600080fd5b853594506020860135935060408601359250606086013561365d81613613565b949793965091946080013592915050565b60008060006060848603121561368357600080fd5b505081359360208301359350604090920135919050565b805164ffffffffff811681146136af57600080fd5b919050565b6000602082840312156136c657600080fd5b6115db8261369a565b805180151581146136af57600080fd5b6000602082840312156136f157600080fd5b6115db826136cf565b60208082526026908201527f41432e6f6e6c794469726563744b65657065723a206e6f74206469726563742060408201526535b2b2b832b960d11b606082015260800190565b6020808252601690820152752927a6a99736b31726a29d102727aa1036b2b6b132b960511b604082015260600190565b60208082526036908201527f41432e6f776e65724f72446972656374426f6f6b65657065723a206e6569746860408201527532b91037bbb732b9103737b9103137b7b5b2b2b832b960511b606082015260800190565b6000602082840312156137d857600080fd5b5051919050565b805161ffff811681146136af57600080fd5b80516136af81613056565b600082601f83011261380d57600080fd5b613815613174565b8060e084018581111561382757600080fd5b845b818110156138485761383a816137df565b845260209384019301613829565b509095945050505050565b6000610260828403121561386657600080fd5b61386e613174565b613877836137df565b815260208084015161388881613056565b82820152604084015161389a81613056565b60408301526138ab6060850161369a565b60608301526138bc608085016137df565b60808301528460bf8501126138d057600080fd5b6138d8613174565b806101808601878111156138eb57600080fd5b60a087015b8181101561391057805161390381613056565b84529284019284016138f0565b508160a086015261392188826137fc565b60c086015250929695505050505050565b634e487b7160e01b600052603260045260246000fd5b805165ffffffffffff811681146136af57600080fd5b600060c0828403121561397057600080fd5b61397861319c565b825161398381613056565b81526139916020840161369a565b60208201526139a260408401613948565b60408201526139b360608401613948565b60608201526139c460808401613948565b608082015260a08301516139d781613056565b60a08201529392505050565b600081518084526020808501945080840160005b83811015613a1c5781516001600160a01b0316875295820195908201906001016139f7565b509495945050505050565b600081518084526020808501945080840160005b83811015613a1c57815187529582019590820190600101613a3b565b600081518084526020808501808196508360051b810191508286016000805b86811015613ad7578385038a5282518051808752835b81811015613aa7578281018901518882018a01528801613a8c565b81811115613ab7578489838a0101525b509a87019a601f01601f1916959095018601945091850191600101613a76565b509298975050505050505050565b86815260c060208201526000613afe60c08301886139e3565b8281036040840152613b108188613a27565b90508281036060840152613b248187613a57565b6080840195909552505060a00152949350505050565b87815260e060208201526000613b5360e08301896139e3565b8281036040840152613b658189613a27565b90508281036060840152613b798188613a57565b6080840196909652505060a081019290925260c090910152949350505050565b600060208284031215613bab57600080fd5b8151613157816130f0565b80516136af81613613565b80516001600160401b03811681146136af57600080fd5b600060808284031215613bea57600080fd5b604051608081018181106001600160401b0382111715613c0c57613c0c61315e565b604052905080613c1b8361369a565b8152613c296020840161369a565b6020820152613c3a60408401613bc1565b6040820152613c4b60608401613bc1565b60608201525092915050565b60008183036101e0811215613c6b57600080fd5b613c736131be565b61014080831215613c8357600080fd5b613c8b6131e0565b9250613c96856137f1565b8352613ca4602086016137df565b6020840152613cb5604086016137df565b6040840152613cc6606086016137df565b6060840152613cd760808601613bb6565b6080840152613ce860a0860161369a565b60a0840152613cf960c08601613bb6565b60c0840152613d0a60e08601613bb6565b60e0840152610100613d1d818701613948565b90840152610120613d2f8682016137f1565b90840152828252613d4286868301613bd8565b6020830152506101c093909301516040840152509092915050565b600060c08284031215613d6f57600080fd5b613d7761319c565b8251613d8281613056565b8152613d906020840161369a565b6020820152613da16040840161369a565b6040820152613db260608401613948565b6060820152613dc360808401613948565b60808201526139d760a08401613948565b600082601f830112613de557600080fd5b604051606081018181106001600160401b0382111715613e0757613e0761315e565b604052806060840185811115613e1c57600080fd5b845b81811015613e3d57613e2f8161369a565b835260209283019201613e1e565b509195945050505050565b60006102208284031215613e5b57600080fd5b613e63613203565b613e6c836137df565b8152613e7a602084016137f1565b6020820152613e8b604084016137f1565b6040820152613e9c606084016137f1565b6060820152613ead608084016137df565b6080820152613ebe60a084016137df565b60a0820152613ecf60c084016136cf565b60c0820152613ee060e084016136cf565b60e0820152610100613ef38185016136cf565b90820152610120613f058482016136cf565b90820152610140613f178482016137f1565b90820152610160613f298482016137f1565b90820152610180613f3b8482016137f1565b908201526101a0613f4d8482016137f1565b908201526101c0613f6085858301613dd4565b908201529392505050565b634e487b7160e01b600052601160045260246000fd5b600065ffffffffffff808316818516808303821115613fa257613fa2613f6b565b01949350505050565b600065ffffffffffff80831681851681830481118215151615613fd057613fd0613f6b565b02949350505050565b600065ffffffffffff83811690831681811015613ff857613ff8613f6b565b039392505050565b600065ffffffffffff8084168061402757634e487b7160e01b600052601260045260246000fd5b92169190910492915050565b63ffffffff815116825260ff602082015116602083015260ff604082015116604083015260608101516001600160401b03808216606085015260ff60808401511660808501528060a08401511660a0850152505060c081015161409b60c084018260ff169052565b5060e08101516140b660e08401826001600160401b03169052565b505050565b60006102c082019050825163ffffffff815116835260ff602082015116602084015260408101516140f2604085018261ffff169052565b50606081015161410a606085018263ffffffff169052565b506080810151614124608085018265ffffffffffff169052565b5060a081015161413e60a085018265ffffffffffff169052565b5060c081015161415460c085018261ffff169052565b5060e081015161416a60e085018261ffff169052565b506101009081015164ffffffffff16908301526020830151614190610120840182614033565b50604092830151805165ffffffffffff16610220840152602081015164ffffffffff16610240840152928301516001600160401b0390811661026084015260608401511661028083015260809092015160ff166102a09091015290565b6000610120828403121561420057600080fd5b614208613226565b61421183613bb6565b815261421f602084016137f1565b6020820152614230604084016137df565b604082015261424160608401613bb6565b606082015261425260808401613948565b608082015261426360a08401613948565b60a082015261427460c084016137df565b60c082015261428560e084016137df565b60e0820152610100613f6081850161369a565b600060c082840312156142aa57600080fd5b60405160c081018181106001600160401b03821117156142cc576142cc61315e565b6040529050806142db8361369a565b815260208301516142eb81613613565b60208201526142fc60408401613bc1565b6040820152606083015161430f81613613565b606082015261432060808401613bc1565b608082015260a083015161433381613056565b60a0919091015292915050565b60008183036101e081121561435457600080fd5b61435c6131be565b6101008083121561436c57600080fd5b614374613249565b9250845161438181613613565b835261438f602086016137df565b60208401526143a0604086016137df565b60408401526143b160608601613948565b60608401526143c260808601613948565b60808401526143d360a086016137df565b60a08401526143e460c0860161369a565b60c08401526143f560e08601613bb6565b60e0840152828252613d4286828701614298565b805163ffffffff8151168352602081015161ffff80821660208601528060408401511660408601525050606081015161444c606085018265ffffffffffff169052565b506080810151614466608085018265ffffffffffff169052565b5060a081015161447c60a085018261ffff169052565b5060c081015161449560c085018264ffffffffff169052565b5060e081015190506144af60e084018263ffffffff169052565b50602081810151805164ffffffffff166101008501529081015163ffffffff90811661012085015260408201516001600160401b03908116610140860152606083015190911661016085015260808201511661018084015260a081015160ff166101a084015250604001516101c09190910152565b6101e081016115de8284614409565b600060c0828403121561454557600080fd5b6115db8383614298565b63ffffffff831681526102008101613157602083018461440956fea2646970667358221220f829407d79958cb86d826cd8ed3aa223599d98559bc99ced86c07c7fd58e6ec864736f6c63430008080033",
    "sourcePath": "/Users/kaptain/github.com/hardhat/comboox/contracts/keepers/BOGKeeper.sol",
    "compiler": {
        "name": "solc",
        "version": "0.8.8+commit.dddeac2f"
    },
    "functionHashes": {
        "abandonRole(bytes32)": "3da9a600",
        "castVote(uint256,uint8,bytes32,uint256)": "1fa1fdc5",
        "createBoardSeal()": "14d3cb85",
        "createCorpSeal()": "d1a0ce56",
        "entrustDelegate(uint256,uint256,uint256)": "fe1bdff2",
        "execAction(uint256,address[],uint256[],bytes[],bytes32,uint256)": "959efc85",
        "finalized()": "b3f05b97",
        "getBookeeper()": "ed211023",
        "getGeneralCounsel()": "103f6edd",
        "getOwner()": "893d20e8",
        "grantRole(bytes32,uint256)": "1b6ea9f9",
        "hasRole(bytes32,uint256)": "7e063c5a",
        "init(uint256,address,address,address)": "dc890da9",
        "lockContents()": "f045a769",
        "nominateOfficer(uint256,uint256,uint256,uint256)": "4f6413ac",
        "proposeAction(uint256,address[],uint256[],bytes[],bytes32,uint256,uint256)": "bbfd607d",
        "proposeDoc(address,uint256,uint256)": "6600f97a",
        "renounceRole(bytes32)": "8bb9c5bf",
        "requestToBuy(uint256,uint256,uint256,uint32,uint256)": "fd560e18",
        "revokeRole(bytes32,uint256)": "19d61ad9",
        "setDirectKeeper(address)": "6be8496f",
        "setGeneralCounsel(uint256)": "4a14beb1",
        "setOwner(uint256)": "8041494e",
        "setRoleAdmin(bytes32,uint256)": "5171ebd4",
        "voteCounting(uint256,uint256)": "f894759e"
    },
    "gasEstimates": {
        "creation": {
            "codeDepositCost": "3564800",
            "executionCost": "3998",
            "totalCost": "3568798"
        },
        "external": {
            "abandonRole(bytes32)": "infinite",
            "castVote(uint256,uint8,bytes32,uint256)": "infinite",
            "createBoardSeal()": "infinite",
            "createCorpSeal()": "infinite",
            "entrustDelegate(uint256,uint256,uint256)": "infinite",
            "execAction(uint256,address[],uint256[],bytes[],bytes32,uint256)": "infinite",
            "finalized()": "2438",
            "getBookeeper()": "infinite",
            "getGeneralCounsel()": "infinite",
            "getOwner()": "infinite",
            "grantRole(bytes32,uint256)": "infinite",
            "hasRole(bytes32,uint256)": "infinite",
            "init(uint256,address,address,address)": "infinite",
            "lockContents()": "infinite",
            "nominateOfficer(uint256,uint256,uint256,uint256)": "infinite",
            "proposeAction(uint256,address[],uint256[],bytes[],bytes32,uint256,uint256)": "infinite",
            "proposeDoc(address,uint256,uint256)": "infinite",
            "renounceRole(bytes32)": "infinite",
            "requestToBuy(uint256,uint256,uint256,uint32,uint256)": "infinite",
            "revokeRole(bytes32,uint256)": "infinite",
            "setDirectKeeper(address)": "infinite",
            "setGeneralCounsel(uint256)": "infinite",
            "setOwner(uint256)": "infinite",
            "setRoleAdmin(bytes32,uint256)": "infinite",
            "voteCounting(uint256,uint256)": "infinite"
        }
    }
}