{
    "contractName": "BOGKeeper",
    "abi": [
        {
            "anonymous": false,
            "inputs": [
                {
                    "indexed": false,
                    "internalType": "uint40",
                    "name": "owner",
                    "type": "uint40"
                },
                {
                    "indexed": false,
                    "internalType": "address",
                    "name": "directKeeper",
                    "type": "address"
                },
                {
                    "indexed": false,
                    "internalType": "address",
                    "name": "regCenter",
                    "type": "address"
                },
                {
                    "indexed": false,
                    "internalType": "address",
                    "name": "generalKeeper",
                    "type": "address"
                }
            ],
            "name": "Init",
            "type": "event"
        },
        {
            "anonymous": false,
            "inputs": [],
            "name": "LockContents",
            "type": "event"
        },
        {
            "anonymous": false,
            "inputs": [
                {
                    "indexed": false,
                    "internalType": "address",
                    "name": "keeper",
                    "type": "address"
                }
            ],
            "name": "SetDirectKeeper",
            "type": "event"
        },
        {
            "anonymous": false,
            "inputs": [
                {
                    "indexed": false,
                    "internalType": "uint256",
                    "name": "acct",
                    "type": "uint256"
                }
            ],
            "name": "SetGeneralCounsel",
            "type": "event"
        },
        {
            "anonymous": false,
            "inputs": [
                {
                    "indexed": false,
                    "internalType": "address",
                    "name": "gk",
                    "type": "address"
                }
            ],
            "name": "SetGeneralKeeper",
            "type": "event"
        },
        {
            "anonymous": false,
            "inputs": [
                {
                    "indexed": false,
                    "internalType": "uint256",
                    "name": "acct",
                    "type": "uint256"
                }
            ],
            "name": "SetOwner",
            "type": "event"
        },
        {
            "anonymous": false,
            "inputs": [
                {
                    "indexed": false,
                    "internalType": "address",
                    "name": "rc",
                    "type": "address"
                }
            ],
            "name": "SetRegCenter",
            "type": "event"
        },
        {
            "inputs": [
                {
                    "internalType": "bytes32",
                    "name": "role",
                    "type": "bytes32"
                }
            ],
            "name": "abandonRole",
            "outputs": [],
            "stateMutability": "nonpayable",
            "type": "function"
        },
        {
            "inputs": [
                {
                    "internalType": "uint256",
                    "name": "motionId",
                    "type": "uint256"
                },
                {
                    "internalType": "uint40",
                    "name": "caller",
                    "type": "uint40"
                },
                {
                    "internalType": "uint8",
                    "name": "attitude",
                    "type": "uint8"
                },
                {
                    "internalType": "bytes32",
                    "name": "sigHash",
                    "type": "bytes32"
                }
            ],
            "name": "castVote",
            "outputs": [],
            "stateMutability": "nonpayable",
            "type": "function"
        },
        {
            "inputs": [],
            "name": "createBoardSeal",
            "outputs": [],
            "stateMutability": "nonpayable",
            "type": "function"
        },
        {
            "inputs": [],
            "name": "createCorpSeal",
            "outputs": [],
            "stateMutability": "nonpayable",
            "type": "function"
        },
        {
            "inputs": [
                {
                    "internalType": "uint256",
                    "name": "actionId",
                    "type": "uint256"
                },
                {
                    "internalType": "uint40",
                    "name": "caller",
                    "type": "uint40"
                },
                {
                    "internalType": "uint40",
                    "name": "delegate",
                    "type": "uint40"
                }
            ],
            "name": "entrustDelegate",
            "outputs": [],
            "stateMutability": "nonpayable",
            "type": "function"
        },
        {
            "inputs": [
                {
                    "internalType": "uint8",
                    "name": "actionType",
                    "type": "uint8"
                },
                {
                    "internalType": "address[]",
                    "name": "targets",
                    "type": "address[]"
                },
                {
                    "internalType": "uint256[]",
                    "name": "values",
                    "type": "uint256[]"
                },
                {
                    "internalType": "bytes[]",
                    "name": "params",
                    "type": "bytes[]"
                },
                {
                    "internalType": "bytes32",
                    "name": "desHash",
                    "type": "bytes32"
                },
                {
                    "internalType": "uint40",
                    "name": "caller",
                    "type": "uint40"
                }
            ],
            "name": "execAction",
            "outputs": [
                {
                    "internalType": "uint256",
                    "name": "",
                    "type": "uint256"
                }
            ],
            "stateMutability": "nonpayable",
            "type": "function"
        },
        {
            "inputs": [],
            "name": "finalized",
            "outputs": [
                {
                    "internalType": "bool",
                    "name": "",
                    "type": "bool"
                }
            ],
            "stateMutability": "view",
            "type": "function"
        },
        {
            "inputs": [],
            "name": "getBookeeper",
            "outputs": [
                {
                    "internalType": "address",
                    "name": "",
                    "type": "address"
                }
            ],
            "stateMutability": "view",
            "type": "function"
        },
        {
            "inputs": [],
            "name": "getGeneralCounsel",
            "outputs": [
                {
                    "internalType": "uint40",
                    "name": "",
                    "type": "uint40"
                }
            ],
            "stateMutability": "view",
            "type": "function"
        },
        {
            "inputs": [],
            "name": "getOwner",
            "outputs": [
                {
                    "internalType": "uint40",
                    "name": "",
                    "type": "uint40"
                }
            ],
            "stateMutability": "view",
            "type": "function"
        },
        {
            "inputs": [
                {
                    "internalType": "bytes32",
                    "name": "role",
                    "type": "bytes32"
                },
                {
                    "internalType": "uint40",
                    "name": "acct",
                    "type": "uint40"
                }
            ],
            "name": "grantRole",
            "outputs": [],
            "stateMutability": "nonpayable",
            "type": "function"
        },
        {
            "inputs": [
                {
                    "internalType": "bytes32",
                    "name": "role",
                    "type": "bytes32"
                },
                {
                    "internalType": "uint40",
                    "name": "acct",
                    "type": "uint40"
                }
            ],
            "name": "hasRole",
            "outputs": [
                {
                    "internalType": "bool",
                    "name": "",
                    "type": "bool"
                }
            ],
            "stateMutability": "view",
            "type": "function"
        },
        {
            "inputs": [
                {
                    "internalType": "uint40",
                    "name": "owner",
                    "type": "uint40"
                },
                {
                    "internalType": "address",
                    "name": "directKeeper",
                    "type": "address"
                },
                {
                    "internalType": "address",
                    "name": "regCenter",
                    "type": "address"
                },
                {
                    "internalType": "address",
                    "name": "generalKeeper",
                    "type": "address"
                }
            ],
            "name": "init",
            "outputs": [],
            "stateMutability": "nonpayable",
            "type": "function"
        },
        {
            "inputs": [],
            "name": "lockContents",
            "outputs": [],
            "stateMutability": "nonpayable",
            "type": "function"
        },
        {
            "inputs": [
                {
                    "internalType": "bytes32",
                    "name": "bsRule",
                    "type": "bytes32"
                },
                {
                    "internalType": "uint8",
                    "name": "seqOfTitle",
                    "type": "uint8"
                },
                {
                    "internalType": "uint40",
                    "name": "nominator",
                    "type": "uint40"
                },
                {
                    "internalType": "uint40",
                    "name": "candidate",
                    "type": "uint40"
                }
            ],
            "name": "nominateOfficer",
            "outputs": [],
            "stateMutability": "nonpayable",
            "type": "function"
        },
        {
            "inputs": [
                {
                    "internalType": "uint8",
                    "name": "actionType",
                    "type": "uint8"
                },
                {
                    "internalType": "address[]",
                    "name": "targets",
                    "type": "address[]"
                },
                {
                    "internalType": "uint256[]",
                    "name": "values",
                    "type": "uint256[]"
                },
                {
                    "internalType": "bytes[]",
                    "name": "params",
                    "type": "bytes[]"
                },
                {
                    "internalType": "bytes32",
                    "name": "desHash",
                    "type": "bytes32"
                },
                {
                    "internalType": "uint40",
                    "name": "submitter",
                    "type": "uint40"
                },
                {
                    "internalType": "uint40",
                    "name": "executor",
                    "type": "uint40"
                }
            ],
            "name": "proposeAction",
            "outputs": [],
            "stateMutability": "nonpayable",
            "type": "function"
        },
        {
            "inputs": [
                {
                    "internalType": "address",
                    "name": "doc",
                    "type": "address"
                },
                {
                    "internalType": "uint8",
                    "name": "seqOfVR",
                    "type": "uint8"
                },
                {
                    "internalType": "uint40",
                    "name": "caller",
                    "type": "uint40"
                }
            ],
            "name": "proposeDoc",
            "outputs": [],
            "stateMutability": "nonpayable",
            "type": "function"
        },
        {
            "inputs": [
                {
                    "internalType": "bytes32",
                    "name": "role",
                    "type": "bytes32"
                }
            ],
            "name": "renounceRole",
            "outputs": [],
            "stateMutability": "nonpayable",
            "type": "function"
        },
        {
            "inputs": [
                {
                    "internalType": "uint256",
                    "name": "motionId",
                    "type": "uint256"
                },
                {
                    "internalType": "bytes32",
                    "name": "snOfDeal",
                    "type": "bytes32"
                },
                {
                    "internalType": "uint40",
                    "name": "againstVoter",
                    "type": "uint40"
                },
                {
                    "internalType": "uint40",
                    "name": "caller",
                    "type": "uint40"
                }
            ],
            "name": "requestToBuy",
            "outputs": [],
            "stateMutability": "nonpayable",
            "type": "function"
        },
        {
            "inputs": [
                {
                    "internalType": "bytes32",
                    "name": "role",
                    "type": "bytes32"
                },
                {
                    "internalType": "uint40",
                    "name": "acct",
                    "type": "uint40"
                }
            ],
            "name": "revokeRole",
            "outputs": [],
            "stateMutability": "nonpayable",
            "type": "function"
        },
        {
            "inputs": [
                {
                    "internalType": "address",
                    "name": "keeper",
                    "type": "address"
                }
            ],
            "name": "setDirectKeeper",
            "outputs": [],
            "stateMutability": "nonpayable",
            "type": "function"
        },
        {
            "inputs": [
                {
                    "internalType": "uint40",
                    "name": "acct",
                    "type": "uint40"
                }
            ],
            "name": "setGeneralCounsel",
            "outputs": [],
            "stateMutability": "nonpayable",
            "type": "function"
        },
        {
            "inputs": [
                {
                    "internalType": "uint40",
                    "name": "acct",
                    "type": "uint40"
                }
            ],
            "name": "setOwner",
            "outputs": [],
            "stateMutability": "nonpayable",
            "type": "function"
        },
        {
            "inputs": [],
            "name": "setROM",
            "outputs": [],
            "stateMutability": "nonpayable",
            "type": "function"
        },
        {
            "inputs": [
                {
                    "internalType": "bytes32",
                    "name": "role",
                    "type": "bytes32"
                },
                {
                    "internalType": "uint40",
                    "name": "acct",
                    "type": "uint40"
                }
            ],
            "name": "setRoleAdmin",
            "outputs": [],
            "stateMutability": "nonpayable",
            "type": "function"
        },
        {
            "inputs": [
                {
                    "internalType": "uint256",
                    "name": "motionId",
                    "type": "uint256"
                },
                {
                    "internalType": "uint40",
                    "name": "caller",
                    "type": "uint40"
                }
            ],
            "name": "voteCounting",
            "outputs": [],
            "stateMutability": "nonpayable",
            "type": "function"
        }
    ],
    "bytecode": "608060405234801561001057600080fd5b5061469f806100206000396000f3fe608060405234801561001057600080fd5b506004361061018d5760003560e01c80637ba706e8116100de578063b3f05b9711610097578063dbf1f4c411610071578063dbf1f4c414610339578063e31f2d2c1461034c578063ed2110231461035f578063f045a7691461037f57600080fd5b8063b3f05b971461030a578063cba36bf31461031e578063d1a0ce561461033157600080fd5b80637ba706e8146102a357806381ab05cb146102b6578063821ee8ea146102c9578063893d20e8146102dc5780638bb9c5bf146102e4578063b1b74397146102f757600080fd5b806317c51fec1161014b5780633fb2be33116101255780633fb2be33146102475780636be8496f1461025a578063740998151461026d57806379b2ec121461028057600080fd5b806317c51fec1461020e5780633178a9a9146102215780633da9a6001461023457600080fd5b80624f41741461019257806307473d7b146101b85780630e91a0a7146101c2578063103f6edd146101d557806314d3cb85146101f357806316dc517e146101fb575b600080fd5b6101a56101a0366004613acd565b610387565b6040519081526020015b60405180910390f35b6101c06105c2565b005b6101c06101d0366004613b85565b610705565b6101dd6108da565b60405164ffffffffff90911681526020016101af565b6101c0610966565b6101c0610209366004613b85565b610a7e565b6101c061021c366004613b85565b610b14565b6101c061022f366004613bb5565b610b39565b6101c0610242366004613bd2565b610d32565b6101c0610255366004613beb565b610e44565b6101c0610268366004613c35565b6118e4565b6101c061027b366004613b85565b611996565b61029361028e366004613b85565b6119bb565b60405190151581526020016101af565b6101c06102b1366004613bb5565b611a5c565b6101c06102c4366004613c52565b611c4e565b6101c06102d7366004613c94565b611eba565b6101dd611faa565b6101c06102f2366004613bd2565b611fe5565b6101c0610305366004613ce5565b61203e565b60028054600160f01b900460ff1614610293565b6101c061032c366004613d15565b612615565b6101c06127b1565b6101c0610347366004613d5d565b612898565b6101c061035a366004613d95565b612e62565b610367613025565b6040516001600160a01b0390911681526020016101af565b6101c06130ab565b60006103916132c9565b604051639766a0b360e01b815264ffffffffff841660048201526001600160a01b039190911690639766a0b39060240160206040518083038186803b1580156103d957600080fd5b505afa1580156103ed573d6000803e3d6000fd5b505050506040513d601f19601f820116820180604052508101906104119190613e5d565b6104625760405162461bcd60e51b815260206004820152601860248201527f63616c6c6572206973206e6f742061204469726563746f72000000000000000060448201526064015b60405180910390fd5b6000546040516324623db960e01b815264ffffffffff841660048201526001600160a01b03909116906324623db99060240160206040518083038186803b1580156104ac57600080fd5b505afa1580156104c0573d6000803e3d6000fd5b505050506040513d601f19601f820116820180604052508101906104e49190613e5d565b156105285760405162461bcd60e51b815260206004820152601460248201527363616c6c6572206973206e6f7420616e20454f4160601b6044820152606401610459565b610530613330565b6001600160a01b03166326802f398888888887896040518763ffffffff1660e01b815260040161056596959493929190613fa0565b602060405180830381600087803b15801561057f57600080fd5b505af1158015610593573d6000803e3d6000fd5b505050506040513d601f19601f820116820180604052508101906105b79190613fff565b979650505050505050565b604051633b11adbf60e21b81526002600482015233602482015273__$364aad554dc80380f414546becdd2c1584$__9063ec46b6fc9060440160206040518083038186803b15801561061357600080fd5b505af4158015610627573d6000803e3d6000fd5b505050506040513d601f19601f8201168201806040525081019061064b9190613e5d565b6106675760405162461bcd60e51b815260040161045990614018565b60015460405163381baea360e21b8152600760048201526001600160a01b039091169063e06eba8c9060240160206040518083038186803b1580156106ab57600080fd5b505afa1580156106bf573d6000803e3d6000fd5b505050506040513d601f19601f820116820180604052508101906106e3919061405e565b600480546001600160a01b0319166001600160a01b0392909216919091179055565b604051633b11adbf60e21b81526002600482015233602482015273__$364aad554dc80380f414546becdd2c1584$__9063ec46b6fc9060440160206040518083038186803b15801561075657600080fd5b505af415801561076a573d6000803e3d6000fd5b505050506040513d601f19601f8201168201806040525081019061078e9190613e5d565b6107aa5760405162461bcd60e51b815260040161045990614018565b6004805460405163c5916f4b60e01b815264ffffffffff84169281019290925282916001600160a01b039091169063c5916f4b9060240160206040518083038186803b1580156107f957600080fd5b505afa15801561080d573d6000803e3d6000fd5b505050506040513d601f19601f820116820180604052508101906108319190613e5d565b61084d5760405162461bcd60e51b81526004016104599061407b565b610855613330565b6001600160a01b031663f8fb9e1d846040518263ffffffff1660e01b815260040161088291815260200190565b602060405180830381600087803b15801561089c57600080fd5b505af11580156108b0573d6000803e3d6000fd5b505050506040513d601f19601f820116820180604052508101906108d49190613e5d565b50505050565b60405163e8c0cc1d60e01b81526002600482015260009073__$364aad554dc80380f414546becdd2c1584$__9063e8c0cc1d906024015b60206040518083038186803b15801561092957600080fd5b505af415801561093d573d6000803e3d6000fd5b505050506040513d601f19601f8201168201806040525081019061096191906140a5565b905090565b604051633b11adbf60e21b81526002600482015233602482015273__$364aad554dc80380f414546becdd2c1584$__9063ec46b6fc9060440160206040518083038186803b1580156109b757600080fd5b505af41580156109cb573d6000803e3d6000fd5b505050506040513d601f19601f820116820180604052508101906109ef9190613e5d565b610a0b5760405162461bcd60e51b815260040161045990614018565b610a13613330565b6001600160a01b031663180dc60e610a296132c9565b6040516001600160e01b031960e084901b1681526001600160a01b039091166004820152602401600060405180830381600087803b158015610a6a57600080fd5b505af11580156108d4573d6000803e3d6000fd5b73__$364aad554dc80380f414546becdd2c1584$__63427abff4600284610aa361334b565b6040516001600160e01b031960e086901b1681526004810193909352602483019190915264ffffffffff9081166044830152841660648201526084015b60006040518083038186803b158015610af857600080fd5b505af4158015610b0c573d6000803e3d6000fd5b505050505050565b73__$364aad554dc80380f414546becdd2c1584$__638ce15845600284610aa361334b565b604051633b11adbf60e21b81526002600482015233602482015273__$364aad554dc80380f414546becdd2c1584$__9063ec46b6fc9060440160206040518083038186803b158015610b8a57600080fd5b505af4158015610b9e573d6000803e3d6000fd5b505050506040513d601f19601f82011682018060405250810190610bc29190613e5d565b80610c67575073__$364aad554dc80380f414546becdd2c1584$__63fe2710866002610bec61334b565b6040516001600160e01b031960e085901b168152600481019290925264ffffffffff16602482015260440160206040518083038186803b158015610c2f57600080fd5b505af4158015610c43573d6000803e3d6000fd5b505050506040513d601f19601f82011682018060405250810190610c679190613e5d565b610c835760405162461bcd60e51b8152600401610459906140c2565b604051632725ebef60e21b81526002600482015264ffffffffff8216602482015273__$364aad554dc80380f414546becdd2c1584$__90639c97afbc9060440160006040518083038186803b158015610cdb57600080fd5b505af4158015610cef573d6000803e3d6000fd5b505060405164ffffffffff841681527ff2735f34b69be1e6342dea95f9162f84d0db925fab655ca9f1f312ac8cbfc99d925060200190505b60405180910390a150565b604051633b11adbf60e21b81526002600482015233602482015273__$364aad554dc80380f414546becdd2c1584$__9063ec46b6fc9060440160206040518083038186803b158015610d8357600080fd5b505af4158015610d97573d6000803e3d6000fd5b505050506040513d601f19601f82011682018060405250810190610dbb9190613e5d565b610dd75760405162461bcd60e51b815260040161045990614018565b60405163cc99e11b60e01b8152600260048201526024810182905273__$364aad554dc80380f414546becdd2c1584$__9063cc99e11b9060440160006040518083038186803b158015610e2957600080fd5b505af4158015610e3d573d6000803e3d6000fd5b5050505050565b604051633b11adbf60e21b81526002600482015233602482015273__$364aad554dc80380f414546becdd2c1584$__9063ec46b6fc9060440160206040518083038186803b158015610e9557600080fd5b505af4158015610ea9573d6000803e3d6000fd5b505050506040513d601f19601f82011682018060405250810190610ecd9190613e5d565b610ee95760405162461bcd60e51b815260040161045990614018565b604051630d914a1d60e41b81526004810184905273__$94c94c1f27eaba30857c7d0c37f90b5581$__9063d914a1d09060240160206040518083038186803b158015610f3457600080fd5b505af4158015610f48573d6000803e3d6000fd5b505050506040513d601f19601f82011682018060405250810190610f6c91906140a5565b64ffffffffff168164ffffffffff1614610fc85760405162461bcd60e51b815260206004820181905260248201527f424f474b65657065722e5254423a2063616c6c6572204e4f542053656c6c65726044820152606401610459565b6000610fd2613330565b6001600160a01b03166364525a0d866040518263ffffffff1660e01b8152600401610fff91815260200190565b60c06040518083038186803b15801561101757600080fd5b505afa15801561102b573d6000803e3d6000fd5b505050506040513d601f19601f8201168201806040525081019061104f919061412e565b805190915060ff166005146110a65760405162461bcd60e51b815260206004820152601d60248201527f424f474b65657065722e5254423a204e4f206e65656420746f206275790000006044820152606401610459565b60006110b0613330565b6001600160a01b031663aaf7bfc6876040518263ffffffff1660e01b81526004016110dd91815260200190565b60206040518083038186803b1580156110f557600080fd5b505afa158015611109573d6000803e3d6000fd5b505050506040513d601f19601f8201168201806040525081019061112d9190613fff565b604051633a4376f360e01b81526004810182905290915073__$94c94c1f27eaba30857c7d0c37f90b5581$__90633a4376f39060240160206040518083038186803b15801561117b57600080fd5b505af415801561118f573d6000803e3d6000fd5b505050506040513d601f19601f820116820180604052508101906111b391906141b5565b604051630bdc7b0360e21b81526004810183905273__$94c94c1f27eaba30857c7d0c37f90b5581$__90632f71ec0c9060240160206040518083038186803b1580156111fe57600080fd5b505af4158015611212573d6000803e3d6000fd5b505050506040513d601f19601f8201168201806040525081019061123691906141b5565b61124091906141e6565b61124d9062015180614210565b8260a0015161125c91906141e6565b65ffffffffffff1642106112b25760405162461bcd60e51b815260206004820152601f60248201527f424f474b65657065722e5254423a206d697373656420455845432064617465006044820152606401610459565b60405163177bece160e21b8152600481018690526000906001600160a01b0388169063b7cd72939073__$94c94c1f27eaba30857c7d0c37f90b5581$__90635defb3849060240160206040518083038186803b15801561131157600080fd5b505af4158015611325573d6000803e3d6000fd5b505050506040513d601f19601f82011682018060405250810190611349919061423e565b6040516001600160e01b031960e084901b16815261ffff909116600482015260240160c06040518083038186803b15801561138357600080fd5b505afa158015611397573d6000803e3d6000fd5b505050506040513d601f19601f820116820180604052508101906113bb919061427a565b90506000620151804283606001516113d391906142f1565b6113df9061a8c06141e6565b6113e99190614318565b905060006115076001604051600162023fc360e51b03198152600481018b90524390600190869073__$94c94c1f27eaba30857c7d0c37f90b5581$__9063ffb807a09060240160206040518083038186803b15801561144757600080fd5b505af415801561145b573d6000803e3d6000fd5b505050506040513d601f19601f8201168201806040525081019061147f919061423e565b604051638b257a7160e01b8152600481018f905273__$94c94c1f27eaba30857c7d0c37f90b5581$__90638b257a719060240160206040518083038186803b1580156114ca57600080fd5b505af41580156114de573d6000803e3d6000fd5b505050506040513d601f19601f82011682018060405250810190611502919061434b565b6133a5565b6040805160018082528183019092529192506000919060208083019080368337019050509050878160008151811061154157611541614371565b64ffffffffff929092166020928302919091019091015260015460405163381baea360e21b81526004818101526000916001600160a01b03169063e06eba8c9060240160206040518083038186803b15801561159c57600080fd5b505afa1580156115b0573d6000803e3d6000fd5b505050506040513d601f19601f820116820180604052508101906115d4919061405e565b9050806001600160a01b031663656ebc8f848a8589602001518a604001516040518663ffffffff1660e01b8152600401611612959493929190614387565b602060405180830381600087803b15801561162c57600080fd5b505af1158015611640573d6000803e3d6000fd5b505050506040513d601f19601f820116820180604052508101906116649190613fff565b60015460405163381baea360e21b8152600660048201529194506000916001600160a01b039091169063e06eba8c9060240160206040518083038186803b1580156116ae57600080fd5b505afa1580156116c2573d6000803e3d6000fd5b505050506040513d601f19601f820116820180604052508101906116e6919061405e565b6001600160a01b03166352aadfd78c73__$94c94c1f27eaba30857c7d0c37f90b5581$__63a017f5cc90916040518263ffffffff1660e01b815260040161172f91815260200190565b60206040518083038186803b15801561174757600080fd5b505af415801561175b573d6000803e3d6000fd5b505050506040513d601f19601f8201168201806040525081019061177f919061434b565b6040516001600160e01b031960e084901b16815263ffffffff91909116600482015260240160c06040518083038186803b1580156117bc57600080fd5b505afa1580156117d0573d6000803e3d6000fd5b505050506040513d601f19601f820116820180604052508101906117f49190614404565b60405163b24d8e6560e01b8152600481018690529091506001600160a01b0383169063b24d8e6590602401600060405180830381600087803b15801561183957600080fd5b505af115801561184d573d6000803e3d6000fd5b5050825160208901516040808b015190516329aa73c760e11b8152600481018a9052602481019390935267ffffffffffffffff91821660448401521660648201526001600160a01b0385169250635354e78e9150608401600060405180830381600087803b1580156118be57600080fd5b505af11580156118d2573d6000803e3d6000fd5b50505050505050505050505050505050565b604051630f07232560e01b8152600260048201523360248201526001600160a01b038216604482015273__$364aad554dc80380f414546becdd2c1584$__90630f0723259060640160006040518083038186803b15801561194457600080fd5b505af4158015611958573d6000803e3d6000fd5b50506040516001600160a01b03841681527fe435cbeab64e4eae6497b9d8289704bd709d624a80704ef3ca9af777534bc6ec92506020019050610d27565b73__$364aad554dc80380f414546becdd2c1584$__63d2a15ba7600284610aa361334b565b604051632a3be56b60e21b8152600260048201526024810183905264ffffffffff8216604482015260009073__$364aad554dc80380f414546becdd2c1584$__9063a8ef95ac9060640160206040518083038186803b158015611a1d57600080fd5b505af4158015611a31573d6000803e3d6000fd5b505050506040513d601f19601f82011682018060405250810190611a559190613e5d565b9392505050565b604051633b11adbf60e21b81526002600482015233602482015273__$364aad554dc80380f414546becdd2c1584$__9063ec46b6fc9060440160206040518083038186803b158015611aad57600080fd5b505af4158015611ac1573d6000803e3d6000fd5b505050506040513d601f19601f82011682018060405250810190611ae59190613e5d565b80611b8a575073__$364aad554dc80380f414546becdd2c1584$__63fe2710866002611b0f61334b565b6040516001600160e01b031960e085901b168152600481019290925264ffffffffff16602482015260440160206040518083038186803b158015611b5257600080fd5b505af4158015611b66573d6000803e3d6000fd5b505050506040513d601f19601f82011682018060405250810190611b8a9190613e5d565b611ba65760405162461bcd60e51b8152600401610459906140c2565b60405163b6e38a2960e01b81526002600482015264ffffffffff8216602482015273__$364aad554dc80380f414546becdd2c1584$__9063b6e38a299060440160006040518083038186803b158015611bfe57600080fd5b505af4158015611c12573d6000803e3d6000fd5b505060405164ffffffffff841681527f8b6f40f36b4ae8cc5f55e895036457c43da4ab1f80f58c46f5ff0d72a650033b92506020019050610d27565b604051633b11adbf60e21b81526002600482015233602482015273__$364aad554dc80380f414546becdd2c1584$__9063ec46b6fc9060440160206040518083038186803b158015611c9f57600080fd5b505af4158015611cb3573d6000803e3d6000fd5b505050506040513d601f19601f82011682018060405250810190611cd79190613e5d565b611cf35760405162461bcd60e51b815260040161045990614018565b6004805460405163c5916f4b60e01b815264ffffffffff85169281019290925283916001600160a01b039091169063c5916f4b9060240160206040518083038186803b158015611d4257600080fd5b505afa158015611d56573d6000803e3d6000fd5b505050506040513d601f19601f82011682018060405250810190611d7a9190613e5d565b611d965760405162461bcd60e51b81526004016104599061407b565b6004805460405163c5916f4b60e01b815264ffffffffff85169281019290925283916001600160a01b039091169063c5916f4b9060240160206040518083038186803b158015611de557600080fd5b505afa158015611df9573d6000803e3d6000fd5b505050506040513d601f19601f82011682018060405250810190611e1d9190613e5d565b611e395760405162461bcd60e51b81526004016104599061407b565b611e41613330565b6040516381ab05cb60e01b81526004810187905264ffffffffff8087166024830152851660448201526001600160a01b0391909116906381ab05cb906064015b600060405180830381600087803b158015611e9b57600080fd5b505af1158015611eaf573d6000803e3d6000fd5b505050505050505050565b611ec38261369e565b611ecc8161374d565b604051636cdd0edf60e11b81526002600482015264ffffffffff851660248201526001600160a01b038416604482015273__$364aad554dc80380f414546becdd2c1584$__9063d9ba1dbe9060640160006040518083038186803b158015611f3357600080fd5b505af4158015611f47573d6000803e3d6000fd5b50506040805164ffffffffff881681526001600160a01b038781166020830152868116828401528516606082015290517f4d18c0021addc919105cb1ed2c11ad241e859cc1d9e77d4ee1d9ca2cdc1f255b9350908190036080019150a150505050565b60405163987ad15360e01b81526002600482015260009073__$364aad554dc80380f414546becdd2c1584$__9063987ad15390602401610911565b6000611fef61334b565b604051637963595360e11b8152600260048201526024810184905264ffffffffff8216604482015290915073__$364aad554dc80380f414546becdd2c1584$__9063f2c6b2a690606401610ae0565b604051633b11adbf60e21b81526002600482015233602482015273__$364aad554dc80380f414546becdd2c1584$__9063ec46b6fc9060440160206040518083038186803b15801561208f57600080fd5b505af41580156120a3573d6000803e3d6000fd5b505050506040513d601f19601f820116820180604052508101906120c79190613e5d565b6120e35760405162461bcd60e51b815260040161045990614018565b6004805460405163c5916f4b60e01b815264ffffffffff84169281019290925282916001600160a01b039091169063c5916f4b9060240160206040518083038186803b15801561213257600080fd5b505afa158015612146573d6000803e3d6000fd5b505050506040513d601f19601f8201168201806040525081019061216a9190613e5d565b6121865760405162461bcd60e51b81526004016104599061407b565b60008360ff166008141580156121a057508360ff16601214155b156121b4576121ad613804565b9050612217565b8360ff16600814806121c957508360ff166012145b156121d6576121ad61381e565b60405162461bcd60e51b81526020600482015260166024820152752127a3a59728221d103bb937b7339039b2b8a7b32b2960511b6044820152606401610459565b604051632e024b2160e11b81526001600160a01b03868116600483015264ffffffffff85166024830152821690635c0496429060440160206040518083038186803b15801561226557600080fd5b505afa158015612279573d6000803e3d6000fd5b505050506040513d601f19601f8201168201806040525081019061229d9190613e5d565b6122e95760405162461bcd60e51b815260206004820152601960248201527f424f474b2e50443a204e4f54205061727479206f6620446f63000000000000006044820152606401610459565b60405163de154c2760e01b81526001600160a01b0386811660048301526003919083169063de154c279060240160c06040518083038186803b15801561232e57600080fd5b505afa158015612342573d6000803e3d6000fd5b505050506040513d601f19601f820116820180604052508101906123669190614474565b60a0015160ff16146123ba5760405162461bcd60e51b815260206004820152601f60248201527f424f474b2e50443a20646f63206e6f74206f6e2045737461626c6973686564006044820152606401610459565b60405163de154c2760e01b81526001600160a01b0386811660048301526000919083169063de154c279060240160c06040518083038186803b1580156123ff57600080fd5b505afa158015612413573d6000803e3d6000fd5b505050506040513d601f19601f820116820180604052508101906124379190614474565b905042816060015165ffffffffffff16106124ba5760405162461bcd60e51b815260206004820152603760248201527f424f474b65657065722e70726f706f73654d6f74696f6e3a204941206e6f742060448201527f706173736564207265766965772070726f6365647572650000000000000000006064820152608401610459565b806060015165ffffffffffff16816080015165ffffffffffff1614806124ec575042816080015165ffffffffffff1610155b6125305760405162461bcd60e51b81526020600482015260156024820152746d697373656420766f74696e67446561646c696e6560581b6044820152606401610459565b60405163a95027b360e01b81526001600160a01b03878116600483015283169063a95027b390602401600060405180830381600087803b15801561257357600080fd5b505af1158015612587573d6000803e3d6000fd5b50505050612593613330565b60405163216eeebf60e01b81526001600160a01b03888116600483015260ff8816602483015264ffffffffff8716604483015260006064830152919091169063216eeebf90608401600060405180830381600087803b1580156125f557600080fd5b505af1158015612609573d6000803e3d6000fd5b50505050505050505050565b604051633b11adbf60e21b81526002600482015233602482015273__$364aad554dc80380f414546becdd2c1584$__9063ec46b6fc9060440160206040518083038186803b15801561266657600080fd5b505af415801561267a573d6000803e3d6000fd5b505050506040513d601f19601f8201168201806040525081019061269e9190613e5d565b6126ba5760405162461bcd60e51b815260040161045990614018565b6004805460405163c5916f4b60e01b815264ffffffffff86169281019290925284916001600160a01b039091169063c5916f4b9060240160206040518083038186803b15801561270957600080fd5b505afa15801561271d573d6000803e3d6000fd5b505050506040513d601f19601f820116820180604052508101906127419190613e5d565b61275d5760405162461bcd60e51b81526004016104599061407b565b612765613330565b60405163cba36bf360e01b81526004810187905264ffffffffff8616602482015260ff85166044820152606481018490526001600160a01b03919091169063cba36bf390608401611e81565b604051633b11adbf60e21b81526002600482015233602482015273__$364aad554dc80380f414546becdd2c1584$__9063ec46b6fc9060440160206040518083038186803b15801561280257600080fd5b505af4158015612816573d6000803e3d6000fd5b505050506040513d601f19601f8201168201806040525081019061283a9190613e5d565b6128565760405162461bcd60e51b815260040161045990614018565b61285e613330565b6001600160a01b031663d1a0ce566040518163ffffffff1660e01b8152600401600060405180830381600087803b158015610a6a57600080fd5b604051633b11adbf60e21b81526002600482015233602482015273__$364aad554dc80380f414546becdd2c1584$__9063ec46b6fc9060440160206040518083038186803b1580156128e957600080fd5b505af41580156128fd573d6000803e3d6000fd5b505050506040513d601f19601f820116820180604052508101906129219190613e5d565b61293d5760405162461bcd60e51b815260040161045990614018565b6004805460405163c5916f4b60e01b815264ffffffffff85169281019290925283916001600160a01b039091169063c5916f4b9060240160206040518083038186803b15801561298c57600080fd5b505afa1580156129a0573d6000803e3d6000fd5b505050506040513d601f19601f820116820180604052508101906129c49190613e5d565b6129e05760405162461bcd60e51b81526004016104599061407b565b60405163242d408d60e11b81526004810186905264ffffffffff84169073__$94c94c1f27eaba30857c7d0c37f90b5581$__9063485a811a9060240160206040518083038186803b158015612a3457600080fd5b505af4158015612a48573d6000803e3d6000fd5b505050506040513d601f19601f82011682018060405250810190612a6c91906140a5565b64ffffffffff1614612ac05760405162461bcd60e51b815260206004820152601f60248201527f424f474b2e4e4f3a2063616c6c6572206e6f74207269676874686f6c646572006044820152606401610459565b60405162ae4af360e71b81526004810186905273__$94c94c1f27eaba30857c7d0c37f90b5581$__9063572579809060240160206040518083038186803b158015612b0a57600080fd5b505af4158015612b1e573d6000803e3d6000fd5b505050506040513d601f19601f82011682018060405250810190612b4291906144cb565b60ff16612b4d6132c9565b60405163116e830360e31b815264ffffffffff861660048201526001600160a01b039190911690638b7418189060240160206040518083038186803b158015612b9557600080fd5b505afa158015612ba9573d6000803e3d6000fd5b505050506040513d601f19601f82011682018060405250810190612bcd9190613fff565b11612c1a5760405162461bcd60e51b815260206004820152601b60248201527f424f474b2e4e4f3a20626f61726420686173206e6f20736561747300000000006044820152606401610459565b6040516347e63bfb60e01b81526004810186905260ff8516602482015260009073__$94c94c1f27eaba30857c7d0c37f90b5581$__906347e63bfb9060440160206040518083038186803b158015612c7157600080fd5b505af4158015612c85573d6000803e3d6000fd5b505050506040513d601f19601f82011682018060405250810190612ca9919061423e565b60405163057a58d760e01b81526004810188905260ff8716602482015290915060009073__$94c94c1f27eaba30857c7d0c37f90b5581$__9063057a58d79060440160206040518083038186803b158015612d0357600080fd5b505af4158015612d17573d6000803e3d6000fd5b505050506040513d601f19601f82011682018060405250810190612d3b91906144cb565b9050600a8261ffff1611612dd357612d51613330565b604051635f86a56760e11b815261ffff8416600482015260ff8316602482015264ffffffffff8088166044830152861660648201526001600160a01b03919091169063bf0d4ace90608401600060405180830381600087803b158015612db657600080fd5b505af1158015612dca573d6000803e3d6000fd5b50505050612e59565b612ddb6132c9565b604051635f86a56760e11b815261ffff8416600482015260ff8316602482015264ffffffffff8088166044830152861660648201526001600160a01b03919091169063bf0d4ace90608401600060405180830381600087803b158015612e4057600080fd5b505af1158015612e54573d6000803e3d6000fd5b505050505b50505050505050565b604051633b11adbf60e21b81526002600482015233602482015273__$364aad554dc80380f414546becdd2c1584$__9063ec46b6fc9060440160206040518083038186803b158015612eb357600080fd5b505af4158015612ec7573d6000803e3d6000fd5b505050506040513d601f19601f82011682018060405250810190612eeb9190613e5d565b612f075760405162461bcd60e51b815260040161045990614018565b6004805460405163c5916f4b60e01b815264ffffffffff85169281019290925283916001600160a01b039091169063c5916f4b9060240160206040518083038186803b158015612f5657600080fd5b505afa158015612f6a573d6000803e3d6000fd5b505050506040513d601f19601f82011682018060405250810190612f8e9190613e5d565b612faa5760405162461bcd60e51b81526004016104599061407b565b612fb2613330565b6001600160a01b031663f3c54fac898989898989896040518863ffffffff1660e01b8152600401612fe997969594939291906144e8565b600060405180830381600087803b15801561300357600080fd5b505af1158015613017573d6000803e3d6000fd5b505050505050505050505050565b604051633c3e56c160e11b81526002600482015260009073__$364aad554dc80380f414546becdd2c1584$__9063787cad829060240160206040518083038186803b15801561307357600080fd5b505af4158015613087573d6000803e3d6000fd5b505050506040513d601f19601f82011682018060405250810190610961919061405e565b604051633b11adbf60e21b81526002600482015233602482015273__$364aad554dc80380f414546becdd2c1584$__9063ec46b6fc9060440160206040518083038186803b1580156130fc57600080fd5b505af4158015613110573d6000803e3d6000fd5b505050506040513d601f19601f820116820180604052508101906131349190613e5d565b6131505760405162461bcd60e51b815260040161045990614018565b600254600160f01b900460ff166001146131ac5760405162461bcd60e51b815260206004820181905260248201527f41432e6f6e6c7950656e64696e673a20446f632069732066696e616c697a65646044820152606401610459565b60405163cc99e11b60e01b815260026004820152684174746f726e65797360b81b602482015273__$364aad554dc80380f414546becdd2c1584$__9063cc99e11b9060440160006040518083038186803b15801561320957600080fd5b505af415801561321d573d6000803e3d6000fd5b5050604051632725ebef60e21b8152600260048201526000602482015273__$364aad554dc80380f414546becdd2c1584$__9250639c97afbc915060440160006040518083038186803b15801561327357600080fd5b505af4158015613287573d6000803e3d6000fd5b50506002805460ff60f01b1916600160f11b17905550506040517f35012b512309c322acf68632cd6cb702ff0e1d776fbe9394e38ffc13b434fe7590600090a1565b600180546000916001600160a01b039091169063e06eba8c905b6040516001600160e01b031960e084901b16815260ff909116600482015260240160206040518083038186803b15801561331c57600080fd5b505afa158015613087573d6000803e3d6000fd5b6001546000906001600160a01b031663e06eba8c60026132e3565b60008054604051634de835e760e11b81523360048201526001600160a01b0390911690639bd06bce90602401602060405180830381600087803b15801561339157600080fd5b505af115801561093d573d6000803e3d6000fd5b6040805160208082528183019092526000918291906020820181803683370190505090508760f81b816000815181106133e0576133e0614371565b60200101906001600160f81b031916908160001a90535060405163acdc3d3960e01b815273__$f4d24a073c4d632c09a66fb0a7ac9d4583$__9063acdc3d39906134339084906005908c90600401614552565b60006040518083038186803b15801561344b57600080fd5b505af415801561345f573d6000803e3d6000fd5b505050506040513d6000823e601f3d908101601f191682016040526134879190810190614583565b90508560f81b81600b815181106134a0576134a0614371565b60200101906001600160f81b031916908160001a9053508460f81b81600c815181106134ce576134ce614371565b60200101906001600160f81b031916908160001a90535060405163d8a3155f60e01b815273__$f4d24a073c4d632c09a66fb0a7ac9d4583$__9063d8a3155f90613521908490600d9089906004016145fa565b60006040518083038186803b15801561353957600080fd5b505af415801561354d573d6000803e3d6000fd5b505050506040513d6000823e601f3d908101601f191682016040526135759190810190614583565b60405163757398af60e11b815290915073__$f4d24a073c4d632c09a66fb0a7ac9d4583$__9063eae7315e906135b4908490600f908890600401614627565b60006040518083038186803b1580156135cc57600080fd5b505af41580156135e0573d6000803e3d6000fd5b505050506040513d6000823e601f3d908101601f191682016040526136089190810190614583565b60405163bfe370d960e01b815290915073__$f4d24a073c4d632c09a66fb0a7ac9d4583$__9063bfe370d990613642908490600401614656565b60206040518083038186803b15801561365a57600080fd5b505af415801561366e573d6000803e3d6000fd5b505050506040513d601f19601f820116820180604052508101906136929190613fff565b98975050505050505050565b6000546001600160a01b0316156136ef5760405162461bcd60e51b815260206004820152601560248201527430b63932b0b23c9039b2ba103932b3a1b2b73a32b960591b6044820152606401610459565b6040516001600160a01b03821681527f318da6c7624c71cbc0afe346c9d8827f119d0ecefb241a7b0c87217a076a8e029060200160405180910390a1600080546001600160a01b0319166001600160a01b0392909216919091179055565b6001546001600160a01b0316156137a65760405162461bcd60e51b815260206004820152601960248201527f616c7265616479207365742067656e6572616c4b6565706572000000000000006044820152606401610459565b6040516001600160a01b03821681527fe513d3e0f0d0a3877029dcc588748679a7a3450ec1ec7ed56d96bd012c3e61aa9060200160405180910390a1600180546001600160a01b0319166001600160a01b0392909216919091179055565b6001546000906001600160a01b031663e06eba8c826132e3565b6001546000906001600160a01b031663e06eba8c60036132e3565b60ff8116811461384857600080fd5b50565b634e487b7160e01b600052604160045260246000fd5b60405160c0810167ffffffffffffffff811182821017156138845761388461384b565b60405290565b604051601f8201601f1916810167ffffffffffffffff811182821017156138b3576138b361384b565b604052919050565b600067ffffffffffffffff8211156138d5576138d561384b565b5060051b60200190565b6001600160a01b038116811461384857600080fd5b600082601f83011261390557600080fd5b8135602061391a613915836138bb565b61388a565b82815260059290921b8401810191818101908684111561393957600080fd5b8286015b8481101561395d578035613950816138df565b835291830191830161393d565b509695505050505050565b600082601f83011261397957600080fd5b81356020613989613915836138bb565b82815260059290921b840181019181810190868411156139a857600080fd5b8286015b8481101561395d57803583529183019183016139ac565b600067ffffffffffffffff8211156139dd576139dd61384b565b50601f01601f191660200190565b600082601f8301126139fc57600080fd5b81356020613a0c613915836138bb565b82815260059290921b84018101918181019086841115613a2b57600080fd5b8286015b8481101561395d57803567ffffffffffffffff811115613a4f5760008081fd5b8701603f81018913613a615760008081fd5b848101356040613a73613915836139c3565b8281528b82848601011115613a885760008081fd5b8282850189830137600092810188019290925250845250918301918301613a2f565b64ffffffffff8116811461384857600080fd5b8035613ac881613aaa565b919050565b60008060008060008060c08789031215613ae657600080fd5b8635613af181613839565b9550602087013567ffffffffffffffff80821115613b0e57600080fd5b613b1a8a838b016138f4565b96506040890135915080821115613b3057600080fd5b613b3c8a838b01613968565b95506060890135915080821115613b5257600080fd5b50613b5f89828a016139eb565b9350506080870135915060a0870135613b7781613aaa565b809150509295509295509295565b60008060408385031215613b9857600080fd5b823591506020830135613baa81613aaa565b809150509250929050565b600060208284031215613bc757600080fd5b8135611a5581613aaa565b600060208284031215613be457600080fd5b5035919050565b60008060008060808587031215613c0157600080fd5b84359350602085013592506040850135613c1a81613aaa565b91506060850135613c2a81613aaa565b939692955090935050565b600060208284031215613c4757600080fd5b8135611a55816138df565b600080600060608486031215613c6757600080fd5b833592506020840135613c7981613aaa565b91506040840135613c8981613aaa565b809150509250925092565b60008060008060808587031215613caa57600080fd5b8435613cb581613aaa565b93506020850135613cc5816138df565b92506040850135613cd5816138df565b91506060850135613c2a816138df565b600080600060608486031215613cfa57600080fd5b8335613d05816138df565b92506020840135613c7981613839565b60008060008060808587031215613d2b57600080fd5b843593506020850135613d3d81613aaa565b92506040850135613d4d81613839565b9396929550929360600135925050565b60008060008060808587031215613d7357600080fd5b843593506020850135613d8581613839565b92506040850135613c1a81613aaa565b600080600080600080600060e0888a031215613db057600080fd5b8735613dbb81613839565b9650602088013567ffffffffffffffff80821115613dd857600080fd5b613de48b838c016138f4565b975060408a0135915080821115613dfa57600080fd5b613e068b838c01613968565b965060608a0135915080821115613e1c57600080fd5b50613e298a828b016139eb565b9450506080880135925060a0880135613e4181613aaa565b9150613e4f60c08901613abd565b905092959891949750929550565b600060208284031215613e6f57600080fd5b81518015158114611a5557600080fd5b600081518084526020808501945080840160005b83811015613eb85781516001600160a01b031687529582019590820190600101613e93565b509495945050505050565b600081518084526020808501945080840160005b83811015613eb857815187529582019590820190600101613ed7565b60005b83811015613f0e578181015183820152602001613ef6565b838111156108d45750506000910152565b60008151808452613f37816020860160208601613ef3565b601f01601f19169290920160200192915050565b600081518084526020808501808196508360051b8101915082860160005b85811015613f93578284038952613f81848351613f1f565b98850198935090840190600101613f69565b5091979650505050505050565b60ff8716815260c060208201526000613fbc60c0830188613e7f565b8281036040840152613fce8188613ec3565b90508281036060840152613fe28187613f4b565b64ffffffffff959095166080840152505060a00152949350505050565b60006020828403121561401157600080fd5b5051919050565b60208082526026908201527f41432e6f6e6c794469726563744b65657065723a206e6f74206469726563742060408201526535b2b2b832b960d11b606082015260800190565b60006020828403121561407057600080fd5b8151611a55816138df565b60208082526010908201526f1b595b58995c881393d508195e1a5cdd60821b604082015260600190565b6000602082840312156140b757600080fd5b8151611a5581613aaa565b60208082526036908201527f41432e6f776e65724f72446972656374426f6f6b65657065723a206e6569746860408201527532b91037bbb732b9103737b9103137b7b5b2b2b832b960511b606082015260800190565b805165ffffffffffff81168114613ac857600080fd5b600060c0828403121561414057600080fd5b614148613861565b825161415381613839565b8152602083015161416381613aaa565b6020820152604083015161417681613aaa565b604082015261418760608401614118565b606082015261419860808401614118565b60808201526141a960a08401614118565b60a08201529392505050565b6000602082840312156141c757600080fd5b611a5582614118565b634e487b7160e01b600052601160045260246000fd5b600065ffffffffffff808316818516808303821115614207576142076141d0565b01949350505050565b600065ffffffffffff80831681851681830481118215151615614235576142356141d0565b02949350505050565b60006020828403121561425057600080fd5b815161ffff81168114611a5557600080fd5b805167ffffffffffffffff81168114613ac857600080fd5b600060c0828403121561428c57600080fd5b614294613861565b825181526142a460208401614262565b60208201526142b560408401614262565b60408201526142c660608401614118565b606082015260808301516142d981613839565b608082015260a0928301519281019290925250919050565b600065ffffffffffff83811690831681811015614310576143106141d0565b039392505050565b600065ffffffffffff8084168061433f57634e487b7160e01b600052601260045260246000fd5b92169190910492915050565b60006020828403121561435d57600080fd5b815163ffffffff81168114611a5557600080fd5b634e487b7160e01b600052603260045260246000fd5b600060a08201878352602064ffffffffff8089168286015260a0604086015282885180855260c087019150838a01945060005b818110156143d85785518416835294840194918401916001016143ba565b505067ffffffffffffffff97881660608701529590961660809094019390935250919695505050505050565b600060c0828403121561441657600080fd5b61441e613861565b8251815261442e60208401614262565b602082015261443f60408401614262565b604082015261445060608401614262565b606082015261446160808401614118565b608082015260a08301516141a981613839565b600060c0828403121561448657600080fd5b61448e613861565b825161449981613839565b815260208301516144a981613aaa565b60208201526144ba60408401614118565b604082015261445060608401614118565b6000602082840312156144dd57600080fd5b8151611a5581613839565b60ff8816815260e06020820152600061450460e0830189613e7f565b82810360408401526145168189613ec3565b9050828103606084015261452a8188613f4b565b6080840196909652505064ffffffffff92831660a0820152911660c090910152949350505050565b6060815260006145656060830186613f1f565b905083602083015265ffffffffffff83166040830152949350505050565b60006020828403121561459557600080fd5b815167ffffffffffffffff8111156145ac57600080fd5b8201601f810184136145bd57600080fd5b80516145cb613915826139c3565b8181528560208385010111156145e057600080fd5b6145f1826020830160208601613ef3565b95945050505050565b60608152600061460d6060830186613f1f565b905083602083015261ffff83166040830152949350505050565b60608152600061463a6060830186613f1f565b905083602083015263ffffffff83166040830152949350505050565b602081526000611a556020830184613f1f56fea2646970667358221220f1a3964cdc70e378770aebe6a8c23577e42f6c358829e36aeae73204f062090264736f6c63430008080033",
    "sourcePath": "/Users/kaptain/github.com/hardhat/comboox/contracts/keepers/BOGKeeper.sol",
    "compiler": {
        "name": "solc",
        "version": "0.8.8+commit.dddeac2f"
    },
    "functionHashes": {
        "abandonRole(bytes32)": "3da9a600",
        "castVote(uint256,uint40,uint8,bytes32)": "cba36bf3",
        "createBoardSeal()": "14d3cb85",
        "createCorpSeal()": "d1a0ce56",
        "entrustDelegate(uint256,uint40,uint40)": "81ab05cb",
        "execAction(uint8,address[],uint256[],bytes[],bytes32,uint40)": "004f4174",
        "finalized()": "b3f05b97",
        "getBookeeper()": "ed211023",
        "getGeneralCounsel()": "103f6edd",
        "getOwner()": "893d20e8",
        "grantRole(bytes32,uint40)": "74099815",
        "hasRole(bytes32,uint40)": "79b2ec12",
        "init(uint40,address,address,address)": "821ee8ea",
        "lockContents()": "f045a769",
        "nominateOfficer(bytes32,uint8,uint40,uint40)": "dbf1f4c4",
        "proposeAction(uint8,address[],uint256[],bytes[],bytes32,uint40,uint40)": "e31f2d2c",
        "proposeDoc(address,uint8,uint40)": "b1b74397",
        "renounceRole(bytes32)": "8bb9c5bf",
        "requestToBuy(uint256,bytes32,uint40,uint40)": "3fb2be33",
        "revokeRole(bytes32,uint40)": "17c51fec",
        "setDirectKeeper(address)": "6be8496f",
        "setGeneralCounsel(uint40)": "3178a9a9",
        "setOwner(uint40)": "7ba706e8",
        "setROM()": "07473d7b",
        "setRoleAdmin(bytes32,uint40)": "16dc517e",
        "voteCounting(uint256,uint40)": "0e91a0a7"
    },
    "gasEstimates": {
        "creation": {
            "codeDepositCost": "3615800",
            "executionCost": "4064",
            "totalCost": "3619864"
        },
        "external": {
            "abandonRole(bytes32)": "infinite",
            "castVote(uint256,uint40,uint8,bytes32)": "infinite",
            "createBoardSeal()": "infinite",
            "createCorpSeal()": "infinite",
            "entrustDelegate(uint256,uint40,uint40)": "infinite",
            "execAction(uint8,address[],uint256[],bytes[],bytes32,uint40)": "infinite",
            "finalized()": "2372",
            "getBookeeper()": "infinite",
            "getGeneralCounsel()": "infinite",
            "getOwner()": "infinite",
            "grantRole(bytes32,uint40)": "infinite",
            "hasRole(bytes32,uint40)": "infinite",
            "init(uint40,address,address,address)": "infinite",
            "lockContents()": "infinite",
            "nominateOfficer(bytes32,uint8,uint40,uint40)": "infinite",
            "proposeAction(uint8,address[],uint256[],bytes[],bytes32,uint40,uint40)": "infinite",
            "proposeDoc(address,uint8,uint40)": "infinite",
            "renounceRole(bytes32)": "infinite",
            "requestToBuy(uint256,bytes32,uint40,uint40)": "infinite",
            "revokeRole(bytes32,uint40)": "infinite",
            "setDirectKeeper(address)": "infinite",
            "setGeneralCounsel(uint40)": "infinite",
            "setOwner(uint40)": "infinite",
            "setROM()": "infinite",
            "setRoleAdmin(bytes32,uint40)": "infinite",
            "voteCounting(uint256,uint40)": "infinite"
        },
        "internal": {
            "_createOptSN(uint8,uint48,uint8,uint8,uint16,uint32)": "infinite"
        }
    }
}