{
    "contractName": "BOHKeeper",
    "abi": [
        {
            "anonymous": false,
            "inputs": [
                {
                    "indexed": false,
                    "internalType": "uint256",
                    "name": "owner",
                    "type": "uint256"
                },
                {
                    "indexed": false,
                    "internalType": "address",
                    "name": "directKeeper",
                    "type": "address"
                },
                {
                    "indexed": false,
                    "internalType": "address",
                    "name": "regCenter",
                    "type": "address"
                },
                {
                    "indexed": false,
                    "internalType": "address",
                    "name": "generalKeeper",
                    "type": "address"
                }
            ],
            "name": "Init",
            "type": "event"
        },
        {
            "anonymous": false,
            "inputs": [],
            "name": "LockContents",
            "type": "event"
        },
        {
            "anonymous": false,
            "inputs": [
                {
                    "indexed": false,
                    "internalType": "address",
                    "name": "keeper",
                    "type": "address"
                }
            ],
            "name": "SetDirectKeeper",
            "type": "event"
        },
        {
            "anonymous": false,
            "inputs": [
                {
                    "indexed": false,
                    "internalType": "uint256",
                    "name": "acct",
                    "type": "uint256"
                }
            ],
            "name": "SetGeneralCounsel",
            "type": "event"
        },
        {
            "anonymous": false,
            "inputs": [
                {
                    "indexed": false,
                    "internalType": "address",
                    "name": "gk",
                    "type": "address"
                }
            ],
            "name": "SetGeneralKeeper",
            "type": "event"
        },
        {
            "anonymous": false,
            "inputs": [
                {
                    "indexed": false,
                    "internalType": "uint256",
                    "name": "acct",
                    "type": "uint256"
                }
            ],
            "name": "SetOwner",
            "type": "event"
        },
        {
            "anonymous": false,
            "inputs": [
                {
                    "indexed": false,
                    "internalType": "address",
                    "name": "rc",
                    "type": "address"
                }
            ],
            "name": "SetRegCenter",
            "type": "event"
        },
        {
            "inputs": [
                {
                    "internalType": "bytes32",
                    "name": "role",
                    "type": "bytes32"
                }
            ],
            "name": "abandonRole",
            "outputs": [],
            "stateMutability": "nonpayable",
            "type": "function"
        },
        {
            "inputs": [
                {
                    "internalType": "bytes32",
                    "name": "sigHash",
                    "type": "bytes32"
                },
                {
                    "internalType": "uint256",
                    "name": "caller",
                    "type": "uint256"
                }
            ],
            "name": "acceptSHA",
            "outputs": [],
            "stateMutability": "nonpayable",
            "type": "function"
        },
        {
            "inputs": [
                {
                    "internalType": "address",
                    "name": "sha",
                    "type": "address"
                },
                {
                    "internalType": "uint256",
                    "name": "caller",
                    "type": "uint256"
                },
                {
                    "internalType": "uint256",
                    "name": "seqOfRule",
                    "type": "uint256"
                },
                {
                    "internalType": "bytes32",
                    "name": "docUrl",
                    "type": "bytes32"
                },
                {
                    "internalType": "bytes32",
                    "name": "docHash",
                    "type": "bytes32"
                }
            ],
            "name": "circulateSHA",
            "outputs": [],
            "stateMutability": "nonpayable",
            "type": "function"
        },
        {
            "inputs": [
                {
                    "internalType": "uint8",
                    "name": "docType",
                    "type": "uint8"
                },
                {
                    "internalType": "uint256",
                    "name": "caller",
                    "type": "uint256"
                }
            ],
            "name": "createSHA",
            "outputs": [],
            "stateMutability": "nonpayable",
            "type": "function"
        },
        {
            "inputs": [
                {
                    "internalType": "address",
                    "name": "sha",
                    "type": "address"
                },
                {
                    "internalType": "uint256",
                    "name": "caller",
                    "type": "uint256"
                }
            ],
            "name": "effectiveSHA",
            "outputs": [],
            "stateMutability": "nonpayable",
            "type": "function"
        },
        {
            "inputs": [],
            "name": "finalized",
            "outputs": [
                {
                    "internalType": "bool",
                    "name": "",
                    "type": "bool"
                }
            ],
            "stateMutability": "view",
            "type": "function"
        },
        {
            "inputs": [],
            "name": "getBookeeper",
            "outputs": [
                {
                    "internalType": "address",
                    "name": "",
                    "type": "address"
                }
            ],
            "stateMutability": "view",
            "type": "function"
        },
        {
            "inputs": [],
            "name": "getGeneralCounsel",
            "outputs": [
                {
                    "internalType": "uint40",
                    "name": "",
                    "type": "uint40"
                }
            ],
            "stateMutability": "view",
            "type": "function"
        },
        {
            "inputs": [],
            "name": "getOwner",
            "outputs": [
                {
                    "internalType": "uint40",
                    "name": "",
                    "type": "uint40"
                }
            ],
            "stateMutability": "view",
            "type": "function"
        },
        {
            "inputs": [
                {
                    "internalType": "bytes32",
                    "name": "role",
                    "type": "bytes32"
                },
                {
                    "internalType": "uint256",
                    "name": "acct",
                    "type": "uint256"
                }
            ],
            "name": "grantRole",
            "outputs": [],
            "stateMutability": "nonpayable",
            "type": "function"
        },
        {
            "inputs": [
                {
                    "internalType": "bytes32",
                    "name": "role",
                    "type": "bytes32"
                },
                {
                    "internalType": "uint256",
                    "name": "acct",
                    "type": "uint256"
                }
            ],
            "name": "hasRole",
            "outputs": [
                {
                    "internalType": "bool",
                    "name": "",
                    "type": "bool"
                }
            ],
            "stateMutability": "view",
            "type": "function"
        },
        {
            "inputs": [
                {
                    "internalType": "uint256",
                    "name": "owner",
                    "type": "uint256"
                },
                {
                    "internalType": "address",
                    "name": "directKeeper",
                    "type": "address"
                },
                {
                    "internalType": "address",
                    "name": "regCenter",
                    "type": "address"
                },
                {
                    "internalType": "address",
                    "name": "generalKeeper",
                    "type": "address"
                }
            ],
            "name": "init",
            "outputs": [],
            "stateMutability": "nonpayable",
            "type": "function"
        },
        {
            "inputs": [],
            "name": "lockContents",
            "outputs": [],
            "stateMutability": "nonpayable",
            "type": "function"
        },
        {
            "inputs": [
                {
                    "internalType": "address",
                    "name": "sha",
                    "type": "address"
                },
                {
                    "internalType": "uint256",
                    "name": "caller",
                    "type": "uint256"
                }
            ],
            "name": "removeSHA",
            "outputs": [],
            "stateMutability": "nonpayable",
            "type": "function"
        },
        {
            "inputs": [
                {
                    "internalType": "bytes32",
                    "name": "role",
                    "type": "bytes32"
                }
            ],
            "name": "renounceRole",
            "outputs": [],
            "stateMutability": "nonpayable",
            "type": "function"
        },
        {
            "inputs": [
                {
                    "internalType": "bytes32",
                    "name": "role",
                    "type": "bytes32"
                },
                {
                    "internalType": "uint256",
                    "name": "acct",
                    "type": "uint256"
                }
            ],
            "name": "revokeRole",
            "outputs": [],
            "stateMutability": "nonpayable",
            "type": "function"
        },
        {
            "inputs": [
                {
                    "internalType": "address",
                    "name": "keeper",
                    "type": "address"
                }
            ],
            "name": "setDirectKeeper",
            "outputs": [],
            "stateMutability": "nonpayable",
            "type": "function"
        },
        {
            "inputs": [
                {
                    "internalType": "uint256",
                    "name": "acct",
                    "type": "uint256"
                }
            ],
            "name": "setGeneralCounsel",
            "outputs": [],
            "stateMutability": "nonpayable",
            "type": "function"
        },
        {
            "inputs": [
                {
                    "internalType": "uint256",
                    "name": "acct",
                    "type": "uint256"
                }
            ],
            "name": "setOwner",
            "outputs": [],
            "stateMutability": "nonpayable",
            "type": "function"
        },
        {
            "inputs": [
                {
                    "internalType": "bytes32",
                    "name": "role",
                    "type": "bytes32"
                },
                {
                    "internalType": "uint256",
                    "name": "acct",
                    "type": "uint256"
                }
            ],
            "name": "setRoleAdmin",
            "outputs": [],
            "stateMutability": "nonpayable",
            "type": "function"
        },
        {
            "inputs": [
                {
                    "internalType": "address",
                    "name": "temp",
                    "type": "address"
                },
                {
                    "internalType": "uint8",
                    "name": "typeOfDoc",
                    "type": "uint8"
                }
            ],
            "name": "setTempOfBOH",
            "outputs": [],
            "stateMutability": "nonpayable",
            "type": "function"
        },
        {
            "inputs": [
                {
                    "internalType": "address",
                    "name": "sha",
                    "type": "address"
                },
                {
                    "internalType": "uint256",
                    "name": "caller",
                    "type": "uint256"
                },
                {
                    "internalType": "bytes32",
                    "name": "sigHash",
                    "type": "bytes32"
                }
            ],
            "name": "signSHA",
            "outputs": [],
            "stateMutability": "nonpayable",
            "type": "function"
        }
    ],
    "bytecode": "608060405234801561001057600080fd5b506139de806100206000396000f3fe608060405234801561001057600080fd5b50600436106101425760003560e01c80638041494e116100b8578063c4ed598d1161007c578063c4ed598d1461028f578063dc890da9146102a2578063e396e78f146102b5578063ed211023146102c8578063f045a769146102e8578063f390d310146102f057600080fd5b80638041494e1461023a578063893d20e81461024d5780638bb9c5bf14610255578063a98e976d14610268578063b3f05b971461027b57600080fd5b80634c9e93b11161010a5780634c9e93b1146101b85780635171ebd4146101cb5780636be8496f146101de578063735dc1e3146101f15780637c67d747146102045780637e063c5a1461021757600080fd5b8063103f6edd1461014757806319d61ad91461016a5780631b6ea9f91461017f5780633da9a600146101925780634a14beb1146101a5575b600080fd5b61014f610303565b60405164ffffffffff90911681526020015b60405180910390f35b61017d610178366004612eaf565b61038f565b005b61017d61018d366004612eaf565b610423565b61017d6101a0366004612ed1565b610448565b61017d6101b3366004612ed1565b610563565b61017d6101c6366004612f02565b610753565b61017d6101d9366004612eaf565b610a0b565b61017d6101ec366004612f2e565b610a30565b61017d6101ff366004612f5a565b610ae2565b61017d610212366004612eaf565b610bf2565b61022a610225366004612eaf565b610cd5565b6040519015158152602001610161565b61017d610248366004612ed1565b610d70565b61014f610f55565b61017d610263366004612ed1565b610f90565b61017d610276366004612f93565b610fe9565b60028054600160f01b900460ff161461022a565b61017d61029d366004612fb1565b611259565b61017d6102b0366004612fe6565b6115a8565b61017d6102c3366004612f02565b61168b565b6102d0611d47565b6040516001600160a01b039091168152602001610161565b61017d611dcd565b61017d6102fe366004613039565b611feb565b60405163e8c0cc1d60e01b81526002600482015260009073__$364aad554dc80380f414546becdd2c1584$__9063e8c0cc1d906024015b60206040518083038186803b15801561035257600080fd5b505af4158015610366573d6000803e3d6000fd5b505050506040513d601f19601f8201168201806040525081019061038a9190613097565b905090565b73__$364aad554dc80380f414546becdd2c1584$__6382daafaa6002846103b461237f565b6040516001600160e01b031960e086901b1681526004810193909352602483019190915264ffffffffff166044820152606481018490526084015b60006040518083038186803b15801561040757600080fd5b505af415801561041b573d6000803e3d6000fd5b505050505050565b73__$364aad554dc80380f414546becdd2c1584$__636320d75e6002846103b461237f565b604051633b11adbf60e21b81526002600482015233602482015273__$364aad554dc80380f414546becdd2c1584$__9063ec46b6fc9060440160206040518083038186803b15801561049957600080fd5b505af41580156104ad573d6000803e3d6000fd5b505050506040513d601f19601f820116820180604052508101906104d191906130c2565b6104f65760405162461bcd60e51b81526004016104ed906130dd565b60405180910390fd5b60405163cc99e11b60e01b8152600260048201526024810182905273__$364aad554dc80380f414546becdd2c1584$__9063cc99e11b9060440160006040518083038186803b15801561054857600080fd5b505af415801561055c573d6000803e3d6000fd5b5050505050565b604051633b11adbf60e21b81526002600482015233602482015273__$364aad554dc80380f414546becdd2c1584$__9063ec46b6fc9060440160206040518083038186803b1580156105b457600080fd5b505af41580156105c8573d6000803e3d6000fd5b505050506040513d601f19601f820116820180604052508101906105ec91906130c2565b80610691575073__$364aad554dc80380f414546becdd2c1584$__63fe271086600261061661237f565b6040516001600160e01b031960e085901b168152600481019290925264ffffffffff16602482015260440160206040518083038186803b15801561065957600080fd5b505af415801561066d573d6000803e3d6000fd5b505050506040513d601f19601f8201168201806040525081019061069191906130c2565b6106ad5760405162461bcd60e51b81526004016104ed90613123565b604051632725ebef60e21b8152600260048201526024810182905273__$364aad554dc80380f414546becdd2c1584$__90639c97afbc9060440160006040518083038186803b1580156106ff57600080fd5b505af4158015610713573d6000803e3d6000fd5b505050507ff2735f34b69be1e6342dea95f9162f84d0db925fab655ca9f1f312ac8cbfc99d8160405161074891815260200190565b60405180910390a150565b604051633b11adbf60e21b81526002600482015233602482015273__$364aad554dc80380f414546becdd2c1584$__9063ec46b6fc9060440160206040518083038186803b1580156107a457600080fd5b505af41580156107b8573d6000803e3d6000fd5b505050506040513d601f19601f820116820180604052508101906107dc91906130c2565b6107f85760405162461bcd60e51b81526004016104ed906130dd565b8181801580159061087f575080826001600160a01b031663893d20e86040518163ffffffff1660e01b815260040160206040518083038186803b15801561083e57600080fd5b505afa158015610852573d6000803e3d6000fd5b505050506040513d601f19601f820116820180604052508101906108769190613097565b64ffffffffff16145b6108b75760405162461bcd60e51b81526020600482015260096024820152683737ba1027bbb732b960b91b60448201526064016104ed565b8360036108c26123d9565b60405163de154c2760e01b81526001600160a01b038481166004830152919091169063de154c279060240160c06040518083038186803b15801561090557600080fd5b505afa158015610919573d6000803e3d6000fd5b505050506040513d601f19601f8201168201806040525081019061093d9190613209565b60a0015160ff16141561099e5760405162461bcd60e51b815260206004820152602360248201527f424f484b2e6d662e4e453a20446f6320414c52454144592045737461626c69736044820152621a195960ea1b60648201526084016104ed565b6109a66123d9565b604051636a10c37d60e11b81526001600160a01b038781166004830152919091169063d42186fa906024015b600060405180830381600087803b1580156109ec57600080fd5b505af1158015610a00573d6000803e3d6000fd5b505050505050505050565b73__$364aad554dc80380f414546becdd2c1584$__63ee98b3136002846103b461237f565b604051630f07232560e01b8152600260048201523360248201526001600160a01b038216604482015273__$364aad554dc80380f414546becdd2c1584$__90630f0723259060640160006040518083038186803b158015610a9057600080fd5b505af4158015610aa4573d6000803e3d6000fd5b50506040516001600160a01b03841681527fe435cbeab64e4eae6497b9d8289704bd709d624a80704ef3ca9af777534bc6ec92506020019050610748565b604051633b11adbf60e21b81526002600482015233602482015273__$364aad554dc80380f414546becdd2c1584$__9063ec46b6fc9060440160206040518083038186803b158015610b3357600080fd5b505af4158015610b47573d6000803e3d6000fd5b505050506040513d601f19601f82011682018060405250810190610b6b91906130c2565b610b875760405162461bcd60e51b81526004016104ed906130dd565b610b8f6123d9565b60405163552cb2bb60e11b81526001600160a01b03848116600483015260ff84166024830152919091169063aa596576906044015b600060405180830381600087803b158015610bde57600080fd5b505af115801561041b573d6000803e3d6000fd5b604051633b11adbf60e21b81526002600482015233602482015273__$364aad554dc80380f414546becdd2c1584$__9063ec46b6fc9060440160206040518083038186803b158015610c4357600080fd5b505af4158015610c57573d6000803e3d6000fd5b505050506040513d601f19601f82011682018060405250810190610c7b91906130c2565b610c975760405162461bcd60e51b81526004016104ed906130dd565b610c9f61243d565b604051633e28137560e11b815260048101839052602481018490526001600160a01b039190911690637c5026ea90604401610bc4565b604051632a3be56b60e21b815260026004820152602481018390526044810182905260009073__$364aad554dc80380f414546becdd2c1584$__9063a8ef95ac9060640160206040518083038186803b158015610d3157600080fd5b505af4158015610d45573d6000803e3d6000fd5b505050506040513d601f19601f82011682018060405250810190610d6991906130c2565b9392505050565b604051633b11adbf60e21b81526002600482015233602482015273__$364aad554dc80380f414546becdd2c1584$__9063ec46b6fc9060440160206040518083038186803b158015610dc157600080fd5b505af4158015610dd5573d6000803e3d6000fd5b505050506040513d601f19601f82011682018060405250810190610df991906130c2565b80610e9e575073__$364aad554dc80380f414546becdd2c1584$__63fe2710866002610e2361237f565b6040516001600160e01b031960e085901b168152600481019290925264ffffffffff16602482015260440160206040518083038186803b158015610e6657600080fd5b505af4158015610e7a573d6000803e3d6000fd5b505050506040513d601f19601f82011682018060405250810190610e9e91906130c2565b610eba5760405162461bcd60e51b81526004016104ed90613123565b60405163b6e38a2960e01b8152600260048201526024810182905273__$364aad554dc80380f414546becdd2c1584$__9063b6e38a299060440160006040518083038186803b158015610f0c57600080fd5b505af4158015610f20573d6000803e3d6000fd5b505050507f8b6f40f36b4ae8cc5f55e895036457c43da4ab1f80f58c46f5ff0d72a650033b8160405161074891815260200190565b60405163987ad15360e01b81526002600482015260009073__$364aad554dc80380f414546becdd2c1584$__9063987ad1539060240161033a565b6000610f9a61237f565b60405163cc0d511b60e01b8152600260048201526024810184905264ffffffffff8216604482015290915073__$364aad554dc80380f414546becdd2c1584$__9063cc0d511b906064016103ef565b604051633b11adbf60e21b81526002600482015233602482015273__$364aad554dc80380f414546becdd2c1584$__9063ec46b6fc9060440160206040518083038186803b15801561103a57600080fd5b505af415801561104e573d6000803e3d6000fd5b505050506040513d601f19601f8201168201806040525081019061107291906130c2565b61108e5760405162461bcd60e51b81526004016104ed906130dd565b61109661247f565b6001600160a01b031663d50c7377826040518263ffffffff1660e01b81526004016110c391815260200190565b60206040518083038186803b1580156110db57600080fd5b505afa1580156110ef573d6000803e3d6000fd5b505050506040513d601f19601f8201168201806040525081019061111391906130c2565b61114c5760405162461bcd60e51b815260206004820152600a6024820152693737ba1026a2a6a122a960b11b60448201526064016104ed565b60006111566123d9565b604051630933bce360e31b815260ff85166004820152602481018490526001600160a01b03919091169063499de71890604401602060405180830381600087803b1580156111a357600080fd5b505af11580156111b7573d6000803e3d6000fd5b505050506040513d601f19601f820116820180604052508101906111db91906132ab565b60005460015460405163dc890da960e01b8152600481018690523060248201526001600160a01b039283166044820152908216606482015291925082169063dc890da990608401600060405180830381600087803b15801561123c57600080fd5b505af1158015611250573d6000803e3d6000fd5b50505050505050565b604051633b11adbf60e21b81526002600482015233602482015273__$364aad554dc80380f414546becdd2c1584$__9063ec46b6fc9060440160206040518083038186803b1580156112aa57600080fd5b505af41580156112be573d6000803e3d6000fd5b505050506040513d601f19601f820116820180604052508101906112e291906130c2565b6112fe5760405162461bcd60e51b81526004016104ed906130dd565b6040516308c5f91760e41b815260048101839052839083906001600160a01b03831690638c5f91709060240160206040518083038186803b15801561134257600080fd5b505afa158015611356573d6000803e3d6000fd5b505050506040513d601f19601f8201168201806040525081019061137a91906130c2565b6113b95760405162461bcd60e51b815260206004820152601060248201526f4e4f54205061727479206f6620446f6360801b60448201526064016104ed565b60026113c36123d9565b60405163de154c2760e01b81526001600160a01b038881166004830152919091169063de154c279060240160c06040518083038186803b15801561140657600080fd5b505afa15801561141a573d6000803e3d6000fd5b505050506040513d601f19601f8201168201806040525081019061143e9190613209565b60a0015160ff16146114925760405162461bcd60e51b815260206004820152601b60248201527f534841206e6f7420696e2043697263756c61746564205374617465000000000060448201526064016104ed565b604051633e28137560e11b815260048101859052602481018490526001600160a01b03861690637c5026ea90604401600060405180830381600087803b1580156114db57600080fd5b505af11580156114ef573d6000803e3d6000fd5b50505050846001600160a01b0316634844f5416040518163ffffffff1660e01b815260040160206040518083038186803b15801561152c57600080fd5b505afa158015611540573d6000803e3d6000fd5b505050506040513d601f19601f8201168201806040525081019061156491906130c2565b1561055c576115716123d9565b60405163108fac0b60e11b81526001600160a01b03878116600483015260036024830152919091169063211f5816906044016109d2565b6115b18261249a565b6115ba81612549565b604051636cdd0edf60e11b815260026004820152602481018590526001600160a01b038416604482015273__$364aad554dc80380f414546becdd2c1584$__9063d9ba1dbe9060640160006040518083038186803b15801561161b57600080fd5b505af415801561162f573d6000803e3d6000fd5b5050604080518781526001600160a01b038781166020830152868116828401528516606082015290517f3abb2418c66fe32ba9c883030a75ce583971d9af9192b9b74e44e67c5e6c8c1f9350908190036080019150a150505050565b604051633b11adbf60e21b81526002600482015233602482015273__$364aad554dc80380f414546becdd2c1584$__9063ec46b6fc9060440160206040518083038186803b1580156116dc57600080fd5b505af41580156116f0573d6000803e3d6000fd5b505050506040513d601f19601f8201168201806040525081019061171491906130c2565b6117305760405162461bcd60e51b81526004016104ed906130dd565b6040516308c5f91760e41b815260048101829052829082906001600160a01b03831690638c5f91709060240160206040518083038186803b15801561177457600080fd5b505afa158015611788573d6000803e3d6000fd5b505050506040513d601f19601f820116820180604052508101906117ac91906130c2565b6117eb5760405162461bcd60e51b815260206004820152601060248201526f4e4f54205061727479206f6620446f6360801b60448201526064016104ed565b60006117f56123d9565b9050600061180161247f565b60405163de154c2760e01b81526001600160a01b03888116600483015291925060039184169063de154c279060240160c06040518083038186803b15801561184857600080fd5b505afa15801561185c573d6000803e3d6000fd5b505050506040513d601f19601f820116820180604052508101906118809190613209565b60a0015160ff16146118d45760405162461bcd60e51b815260206004820152601d60248201527f424f484b2e45533a20534841206e6f742065786563757465642079657400000060448201526064016104ed565b6118dd86612600565b806118ec57506118ec86612756565b61194e5760405162461bcd60e51b815260206004820152602d60248201527f424f484b2e45533a205348412065666665637469766520636f6e646974696f6e60448201526c1cc81b9bdd081c995858da1959609a1b60648201526084016104ed565b604051639f4d332f60e01b81526001600160a01b038781166004830152831690639f4d332f90602401600060405180830381600087803b15801561199157600080fd5b505af11580156119a5573d6000803e3d6000fd5b5050604051634846203760e01b815260006004820181905292506001600160a01b038916915063484620379060240160206040518083038186803b1580156119ec57600080fd5b505afa158015611a00573d6000803e3d6000fd5b505050506040513d601f19601f82011682018060405250810190611a2491906132c8565b604051633d315f5b60e21b8152600481019190915273__$9d2c69e94fee47b9774dc8db4aa5c0bbec$__9063f4c57d6c906024016101006040518083038186803b158015611a7157600080fd5b505af4158015611a85573d6000803e3d6000fd5b505050506040513d601f19601f82011682018060405250810190611aa991906132f3565b6060810151604051636d3521eb60e11b815290151560048201529091506001600160a01b0383169063da6a43d690602401600060405180830381600087803b158015611af457600080fd5b505af1158015611b08573d6000803e3d6000fd5b505050506060810151604051635ee1b7b160e11b815290151560048201526001600160a01b0383169063bdc36f6290602401600060405180830381600087803b158015611b5457600080fd5b505af1158015611b68573d6000803e3d6000fd5b50505050611b74612a7d565b60a0820151604051600162883fab60e01b0319815260ff90911660048201526001600160a01b03919091169063ff77c05590602401600060405180830381600087803b158015611bc357600080fd5b505af1158015611bd7573d6000803e3d6000fd5b5050604051637176544960e01b8152600560048201526001600160a01b038a1692506371765449915060240160206040518083038186803b158015611c1b57600080fd5b505afa158015611c2f573d6000803e3d6000fd5b505050506040513d601f19601f82011682018060405250810190611c5391906130c2565b15611d3d57611c60612a9b565b60405163346ba94160e01b8152600560048201526001600160a01b039182169163f30c256091908a169063346ba9419060240160206040518083038186803b158015611cab57600080fd5b505afa158015611cbf573d6000803e3d6000fd5b505050506040513d601f19601f82011682018060405250810190611ce391906132ab565b6040516001600160e01b031960e084901b1681526001600160a01b039091166004820152602401600060405180830381600087803b158015611d2457600080fd5b505af1158015611d38573d6000803e3d6000fd5b505050505b6112508783612ab6565b604051633c3e56c160e11b81526002600482015260009073__$364aad554dc80380f414546becdd2c1584$__9063787cad829060240160206040518083038186803b158015611d9557600080fd5b505af4158015611da9573d6000803e3d6000fd5b505050506040513d601f19601f8201168201806040525081019061038a91906132ab565b604051633b11adbf60e21b81526002600482015233602482015273__$364aad554dc80380f414546becdd2c1584$__9063ec46b6fc9060440160206040518083038186803b158015611e1e57600080fd5b505af4158015611e32573d6000803e3d6000fd5b505050506040513d601f19601f82011682018060405250810190611e5691906130c2565b611e725760405162461bcd60e51b81526004016104ed906130dd565b600254600160f01b900460ff16600114611ece5760405162461bcd60e51b815260206004820181905260248201527f41432e6f6e6c7950656e64696e673a20446f632069732066696e616c697a656460448201526064016104ed565b60405163cc99e11b60e01b815260026004820152684174746f726e65797360b81b602482015273__$364aad554dc80380f414546becdd2c1584$__9063cc99e11b9060440160006040518083038186803b158015611f2b57600080fd5b505af4158015611f3f573d6000803e3d6000fd5b5050604051632725ebef60e21b8152600260048201526000602482015273__$364aad554dc80380f414546becdd2c1584$__9250639c97afbc915060440160006040518083038186803b158015611f9557600080fd5b505af4158015611fa9573d6000803e3d6000fd5b50506002805460ff60f01b1916600160f11b17905550506040517f35012b512309c322acf68632cd6cb702ff0e1d776fbe9394e38ffc13b434fe7590600090a1565b604051633b11adbf60e21b81526002600482015233602482015273__$364aad554dc80380f414546becdd2c1584$__9063ec46b6fc9060440160206040518083038186803b15801561203c57600080fd5b505af4158015612050573d6000803e3d6000fd5b505050506040513d601f19601f8201168201806040525081019061207491906130c2565b6120905760405162461bcd60e51b81526004016104ed906130dd565b84848015801590612117575080826001600160a01b031663893d20e86040518163ffffffff1660e01b815260040160206040518083038186803b1580156120d657600080fd5b505afa1580156120ea573d6000803e3d6000fd5b505050506040513d601f19601f8201168201806040525081019061210e9190613097565b64ffffffffff16145b61214f5760405162461bcd60e51b81526020600482015260096024820152683737ba1027bbb732b960b91b60448201526064016104ed565b866001600160a01b0316638969d43a6040518163ffffffff1660e01b8152600401600060405180830381600087803b15801561218a57600080fd5b505af115801561219e573d6000803e3d6000fd5b5050604051634020a4a760e11b8152600060048201526001600160a01b038a169250638041494e9150602401600060405180830381600087803b1580156121e457600080fd5b505af11580156121f8573d6000803e3d6000fd5b50505050600061220661243d565b6001600160a01b03166348462037876040518263ffffffff1660e01b815260040161223391815260200190565b60206040518083038186803b15801561224b57600080fd5b505afa15801561225f573d6000803e3d6000fd5b505050506040513d601f19601f8201168201806040525081019061228391906132c8565b604051634281ec6b60e11b8152600481019190915273__$9d2c69e94fee47b9774dc8db4aa5c0bbec$__90638503d8d6906024016102206040518083038186803b1580156122d057600080fd5b505af41580156122e4573d6000803e3d6000fd5b505050506040513d601f19601f820116820180604052508101906123089190613495565b90506123126123d9565b6001600160a01b0316638c32f23d898388886040518563ffffffff1660e01b815260040161234394939291906135e2565b600060405180830381600087803b15801561235d57600080fd5b505af1158015612371573d6000803e3d6000fd5b505050505050505050505050565b60008054604051634de835e760e11b81523360048201526001600160a01b0390911690639bd06bce90602401602060405180830381600087803b1580156123c557600080fd5b505af1158015610366573d6000803e3d6000fd5b6001546000906001600160a01b031663e06eba8c60035b6040516001600160e01b031960e084901b16815260ff909116600482015260240160206040518083038186803b15801561242957600080fd5b505afa158015611da9573d6000803e3d6000fd5b60006124476123d9565b6001600160a01b0316632f5f3b3c6040518163ffffffff1660e01b815260040160206040518083038186803b15801561242957600080fd5b6001546000906001600160a01b031663e06eba8c60076123f0565b6000546001600160a01b0316156124eb5760405162461bcd60e51b815260206004820152601560248201527430b63932b0b23c9039b2ba103932b3a1b2b73a32b960591b60448201526064016104ed565b6040516001600160a01b03821681527f318da6c7624c71cbc0afe346c9d8827f119d0ecefb241a7b0c87217a076a8e029060200160405180910390a1600080546001600160a01b0319166001600160a01b0392909216919091179055565b6001546001600160a01b0316156125a25760405162461bcd60e51b815260206004820152601960248201527f616c7265616479207365742067656e6572616c4b65657065720000000000000060448201526064016104ed565b6040516001600160a01b03821681527fe513d3e0f0d0a3877029dcc588748679a7a3450ec1ec7ed56d96bd012c3e61aa9060200160405180910390a1600180546001600160a01b0319166001600160a01b0392909216919091179055565b60008061260b61247f565b6001600160a01b031663dd5042f46040518163ffffffff1660e01b815260040160006040518083038186803b15801561264357600080fd5b505afa158015612657573d6000803e3d6000fd5b505050506040513d6000823e601f3d908101601f1916820160405261267f9190810190613718565b80519091505b801561274c576001600160a01b038416638c5f9170836126a66001856137d3565b815181106126b6576126b66137ea565b60200260200101516040518263ffffffff1660e01b81526004016126dc91815260200190565b60206040518083038186803b1580156126f457600080fd5b505afa158015612708573d6000803e3d6000fd5b505050506040513d601f19601f8201168201806040525081019061272c91906130c2565b61273a575060009392505050565b8061274481613800565b915050612685565b5060019392505050565b600080826001600160a01b0316632d8f651d6040518163ffffffff1660e01b815260040160006040518083038186803b15801561279257600080fd5b505afa1580156127a6573d6000803e3d6000fd5b505050506040513d6000823e601f3d908101601f191682016040526127ce9190810190613718565b805190915060006127dd61243d565b604051634846203760e01b8152600060048201526001600160a01b03919091169063484620379060240160206040518083038186803b15801561281f57600080fd5b505afa158015612833573d6000803e3d6000fd5b505050506040513d601f19601f8201168201806040525081019061285791906132c8565b604051633d315f5b60e21b8152600481019190915273__$9d2c69e94fee47b9774dc8db4aa5c0bbec$__9063f4c57d6c906024016101006040518083038186803b1580156128a457600080fd5b505af41580156128b8573d6000803e3d6000fd5b505050506040513d601f19601f820116820180604052508101906128dc91906132f3565b905060006127106128eb61247f565b6001600160a01b0316630d15fd776040518163ffffffff1660e01b815260040160206040518083038186803b15801561292357600080fd5b505afa158015612937573d6000803e3d6000fd5b505050506040513d601f19601f8201168201806040525081019061295b9190613817565b8360e0015161ffff1661296e9190613840565b612978919061386f565b905060005b8315612a705761298b61247f565b6001600160a01b031663c2d7616e866129a56001886137d3565b815181106129b5576129b56137ea565b60200260200101516040518263ffffffff1660e01b81526004016129db91815260200190565b60206040518083038186803b1580156129f357600080fd5b505afa158015612a07573d6000803e3d6000fd5b505050506040513d601f19601f82011682018060405250810190612a2b9190613817565b612a3590826138a3565b9050816001600160401b0316816001600160401b03161115612a5e575060019695505050505050565b83612a6881613800565b94505061297d565b5060009695505050505050565b600180546000916001600160a01b039091169063e06eba8c906123f0565b6001546000906001600160a01b031663e06eba8c60046123f0565b604051634846203760e01b815261030060048201526000906001600160a01b0384169063484620379060240160206040518083038186803b158015612afa57600080fd5b505afa158015612b0e573d6000803e3d6000fd5b505050506040513d601f19601f82011682018060405250810190612b3291906132c8565b6040516314b2794360e01b8152600481019190915273__$9d2c69e94fee47b9774dc8db4aa5c0bbec$__906314b27943906024016101206040518083038186803b158015612b7f57600080fd5b505af4158015612b93573d6000803e3d6000fd5b505050506040513d601f19601f82011682018060405250810190612bb791906138ce565b6020015160ff16905060005b81811015612ea95760006001600160a01b0385166348462037612be884610300613975565b6040518263ffffffff1660e01b8152600401612c0691815260200190565b60206040518083038186803b158015612c1e57600080fd5b505afa158015612c32573d6000803e3d6000fd5b505050506040513d601f19601f82011682018060405250810190612c5691906132c8565b6040516314b2794360e01b8152600481019190915273__$9d2c69e94fee47b9774dc8db4aa5c0bbec$__906314b27943906024016101206040518083038186803b158015612ca357600080fd5b505af4158015612cb7573d6000803e3d6000fd5b505050506040513d601f19601f82011682018060405250810190612cdb91906138ce565b90506000816060015115612dc2575b6004811015612dbd5760008260a001518260048110612d0b57612d0b6137ea565b602002015164ffffffffff161115612dab57846001600160a01b031663a7ec068f8360a001518360048110612d4257612d426137ea565b602002015160808501516040516001600160e01b031960e085901b16815264ffffffffff928316600482015291166024820152604401600060405180830381600087803b158015612d9257600080fd5b505af1158015612da6573d6000803e3d6000fd5b505050505b80612db58161398d565b915050612cea565b612e95565b6004811015612e955760008260a001518260048110612de357612de36137ea565b602002015164ffffffffff161115612e8357846001600160a01b031663dd8a18e98360a001518360048110612e1a57612e1a6137ea565b602002015160808501516040516001600160e01b031960e085901b16815264ffffffffff928316600482015291166024820152604401600060405180830381600087803b158015612e6a57600080fd5b505af1158015612e7e573d6000803e3d6000fd5b505050505b80612e8d8161398d565b915050612dc2565b82612e9f8161398d565b9350505050612bc3565b50505050565b60008060408385031215612ec257600080fd5b50508035926020909101359150565b600060208284031215612ee357600080fd5b5035919050565b6001600160a01b0381168114612eff57600080fd5b50565b60008060408385031215612f1557600080fd5b8235612f2081612eea565b946020939093013593505050565b600060208284031215612f4057600080fd5b8135610d6981612eea565b60ff81168114612eff57600080fd5b60008060408385031215612f6d57600080fd5b8235612f7881612eea565b91506020830135612f8881612f4b565b809150509250929050565b60008060408385031215612fa657600080fd5b8235612f2081612f4b565b600080600060608486031215612fc657600080fd5b8335612fd181612eea565b95602085013595506040909401359392505050565b60008060008060808587031215612ffc57600080fd5b84359350602085013561300e81612eea565b9250604085013561301e81612eea565b9150606085013561302e81612eea565b939692955090935050565b600080600080600060a0868803121561305157600080fd5b853561305c81612eea565b97602087013597506040870135966060810135965060800135945092505050565b805164ffffffffff8116811461309257600080fd5b919050565b6000602082840312156130a957600080fd5b610d698261307d565b8051801515811461309257600080fd5b6000602082840312156130d457600080fd5b610d69826130b2565b60208082526026908201527f41432e6f6e6c794469726563744b65657065723a206e6f74206469726563742060408201526535b2b2b832b960d11b606082015260800190565b60208082526036908201527f41432e6f776e65724f72446972656374426f6f6b65657065723a206e6569746860408201527532b91037bbb732b9103737b9103137b7b5b2b2b832b960511b606082015260800190565b634e487b7160e01b600052604160045260246000fd5b6040516101e081016001600160401b03811182821017156131b2576131b2613179565b60405290565b604051601f8201601f191681016001600160401b03811182821017156131e0576131e0613179565b604052919050565b805161309281612f4b565b805165ffffffffffff8116811461309257600080fd5b600060c0828403121561321b57600080fd5b60405160c081018181106001600160401b038211171561323d5761323d613179565b604052825161324b81612f4b565b81526132596020840161307d565b602082015261326a604084016131f3565b604082015261327b606084016131f3565b606082015261328c608084016131f3565b608082015260a083015161329f81612f4b565b60a08201529392505050565b6000602082840312156132bd57600080fd5b8151610d6981612eea565b6000602082840312156132da57600080fd5b5051919050565b805161ffff8116811461309257600080fd5b600061010080838503121561330757600080fd5b604051908101906001600160401b038211818310171561332957613329613179565b81604052613336846132e1565b81526020840151915061334882612f4b565b81602082015261335a604085016131e8565b604082015261336b606085016130b2565b606082015261337c608085016132e1565b608082015261338d60a085016131e8565b60a082015261339e60c085016131e8565b60c08201526133af60e085016132e1565b60e0820152949350505050565b6000604051608081018181106001600160401b03821117156133e0576133e0613179565b60405290508060808301848111156133f757600080fd5b835b818110156134185761340a8161307d565b8352602092830192016133f9565b50505092915050565b600082601f83011261343257600080fd5b604051606081018181106001600160401b038211171561345457613454613179565b60405280606084018581111561346957600080fd5b845b8181101561348a5761347c8161307d565b83526020928301920161346b565b509195945050505050565b600061022082840312156134a857600080fd5b6134b061318f565b6134b9836132e1565b81526134c7602084016131e8565b60208201526134d8604084016131e8565b60408201526134e9606084016131e8565b60608201526134fa608084016132e1565b608082015261350b60a084016132e1565b60a082015261351c60c084016130b2565b60c082015261352d60e084016130b2565b60e08201526101006135408185016130b2565b908201526101206135528482016130b2565b908201526101406135648482016131e8565b908201526101606135768482016131e8565b908201526101806135888482016131e8565b908201526101a061359a8482016131e8565b908201526101c06135ad85858301613421565b908201529392505050565b8060005b6003811015612ea957815164ffffffffff168452602093840193909101906001016135bc565b6001600160a01b0385168152835161ffff1660208201526102808101602085015160ff8116604084015250604085015160ff8116606084015250606085015160ff8116608084015250608085015161ffff811660a08401525060a085015161ffff811660c08401525060c085015180151560e08401525060e085015161010061366e8185018315159052565b86015190506101206136838482018315159052565b86015190506101406136988482018315159052565b86015190506101606136ae8482018360ff169052565b86015190506101806136c48482018360ff169052565b86015190506101a06136da8482018360ff169052565b86015190506101c06136f08482018360ff169052565b86015190506137036101e08401826135b8565b50610240820193909352610260015292915050565b6000602080838503121561372b57600080fd5b82516001600160401b038082111561374257600080fd5b818501915085601f83011261375657600080fd5b81518181111561376857613768613179565b8060051b91506137798483016131b8565b818152918301840191848101908884111561379357600080fd5b938501935b838510156137b157845182529385019390850190613798565b98975050505050505050565b634e487b7160e01b600052601160045260246000fd5b6000828210156137e5576137e56137bd565b500390565b634e487b7160e01b600052603260045260246000fd5b60008161380f5761380f6137bd565b506000190190565b60006020828403121561382957600080fd5b81516001600160401b0381168114610d6957600080fd5b60006001600160401b0380831681851681830481118215151615613866576138666137bd565b02949350505050565b60006001600160401b038084168061389757634e487b7160e01b600052601260045260246000fd5b92169190910492915050565b60006001600160401b038083168185168083038211156138c5576138c56137bd565b01949350505050565b600061012082840312156138e157600080fd5b60405160c081018181106001600160401b038211171561390357613903613179565b60405261390f836132e1565b8152602083015161391f81612f4b565b6020820152604083015161393281612f4b565b6040820152613943606084016130b2565b60608201526139546080840161307d565b60808201528360bf84011261396857600080fd5b61329f8460a085016133bc565b60008219821115613988576139886137bd565b500190565b60006000198214156139a1576139a16137bd565b506001019056fea26469706673582212209d9e35ae3b54944d3f36cf74595c6e09d8574cb1011729d7eddf4956b953f63e64736f6c63430008080033",
    "sourcePath": "/Users/kaptain/github.com/hardhat/comboox/contracts/keepers/BOHKeeper.sol",
    "compiler": {
        "name": "solc",
        "version": "0.8.8+commit.dddeac2f"
    },
    "functionHashes": {
        "abandonRole(bytes32)": "3da9a600",
        "acceptSHA(bytes32,uint256)": "7c67d747",
        "circulateSHA(address,uint256,uint256,bytes32,bytes32)": "f390d310",
        "createSHA(uint8,uint256)": "a98e976d",
        "effectiveSHA(address,uint256)": "e396e78f",
        "finalized()": "b3f05b97",
        "getBookeeper()": "ed211023",
        "getGeneralCounsel()": "103f6edd",
        "getOwner()": "893d20e8",
        "grantRole(bytes32,uint256)": "1b6ea9f9",
        "hasRole(bytes32,uint256)": "7e063c5a",
        "init(uint256,address,address,address)": "dc890da9",
        "lockContents()": "f045a769",
        "removeSHA(address,uint256)": "4c9e93b1",
        "renounceRole(bytes32)": "8bb9c5bf",
        "revokeRole(bytes32,uint256)": "19d61ad9",
        "setDirectKeeper(address)": "6be8496f",
        "setGeneralCounsel(uint256)": "4a14beb1",
        "setOwner(uint256)": "8041494e",
        "setRoleAdmin(bytes32,uint256)": "5171ebd4",
        "setTempOfBOH(address,uint8)": "735dc1e3",
        "signSHA(address,uint256,bytes32)": "c4ed598d"
    },
    "gasEstimates": {
        "creation": {
            "codeDepositCost": "2962800",
            "executionCost": "3247",
            "totalCost": "2966047"
        },
        "external": {
            "abandonRole(bytes32)": "infinite",
            "acceptSHA(bytes32,uint256)": "infinite",
            "circulateSHA(address,uint256,uint256,bytes32,bytes32)": "infinite",
            "createSHA(uint8,uint256)": "infinite",
            "effectiveSHA(address,uint256)": "infinite",
            "finalized()": "2438",
            "getBookeeper()": "infinite",
            "getGeneralCounsel()": "infinite",
            "getOwner()": "infinite",
            "grantRole(bytes32,uint256)": "infinite",
            "hasRole(bytes32,uint256)": "infinite",
            "init(uint256,address,address,address)": "infinite",
            "lockContents()": "infinite",
            "removeSHA(address,uint256)": "infinite",
            "renounceRole(bytes32)": "infinite",
            "revokeRole(bytes32,uint256)": "infinite",
            "setDirectKeeper(address)": "infinite",
            "setGeneralCounsel(uint256)": "infinite",
            "setOwner(uint256)": "infinite",
            "setRoleAdmin(bytes32,uint256)": "infinite",
            "setTempOfBOH(address,uint8)": "infinite",
            "signSHA(address,uint256,bytes32)": "infinite"
        },
        "internal": {
            "_allMembersSigned(address)": "infinite",
            "_reachedEffectiveThreshold(address)": "infinite",
            "_updateGrouping(address,contract IRegisterOfMembers)": "infinite"
        }
    }
}