{
    "contractName": "BOHKeeper",
    "abi": [
        {
            "anonymous": false,
            "inputs": [
                {
                    "indexed": false,
                    "internalType": "uint256",
                    "name": "owner",
                    "type": "uint256"
                },
                {
                    "indexed": false,
                    "internalType": "address",
                    "name": "directKeeper",
                    "type": "address"
                },
                {
                    "indexed": false,
                    "internalType": "address",
                    "name": "regCenter",
                    "type": "address"
                },
                {
                    "indexed": false,
                    "internalType": "address",
                    "name": "generalKeeper",
                    "type": "address"
                }
            ],
            "name": "Init",
            "type": "event"
        },
        {
            "anonymous": false,
            "inputs": [],
            "name": "LockContents",
            "type": "event"
        },
        {
            "anonymous": false,
            "inputs": [
                {
                    "indexed": false,
                    "internalType": "address",
                    "name": "keeper",
                    "type": "address"
                }
            ],
            "name": "SetDirectKeeper",
            "type": "event"
        },
        {
            "anonymous": false,
            "inputs": [
                {
                    "indexed": false,
                    "internalType": "uint256",
                    "name": "acct",
                    "type": "uint256"
                }
            ],
            "name": "SetGeneralCounsel",
            "type": "event"
        },
        {
            "anonymous": false,
            "inputs": [
                {
                    "indexed": false,
                    "internalType": "address",
                    "name": "gk",
                    "type": "address"
                }
            ],
            "name": "SetGeneralKeeper",
            "type": "event"
        },
        {
            "anonymous": false,
            "inputs": [
                {
                    "indexed": false,
                    "internalType": "uint256",
                    "name": "acct",
                    "type": "uint256"
                }
            ],
            "name": "SetOwner",
            "type": "event"
        },
        {
            "anonymous": false,
            "inputs": [
                {
                    "indexed": false,
                    "internalType": "address",
                    "name": "rc",
                    "type": "address"
                }
            ],
            "name": "SetRegCenter",
            "type": "event"
        },
        {
            "inputs": [
                {
                    "internalType": "bytes32",
                    "name": "role",
                    "type": "bytes32"
                }
            ],
            "name": "abandonRole",
            "outputs": [],
            "stateMutability": "nonpayable",
            "type": "function"
        },
        {
            "inputs": [
                {
                    "internalType": "bytes32",
                    "name": "sigHash",
                    "type": "bytes32"
                },
                {
                    "internalType": "uint256",
                    "name": "caller",
                    "type": "uint256"
                }
            ],
            "name": "acceptSHA",
            "outputs": [],
            "stateMutability": "nonpayable",
            "type": "function"
        },
        {
            "inputs": [
                {
                    "internalType": "address",
                    "name": "sha",
                    "type": "address"
                },
                {
                    "internalType": "uint256",
                    "name": "caller",
                    "type": "uint256"
                },
                {
                    "internalType": "uint256",
                    "name": "seqOfRule",
                    "type": "uint256"
                },
                {
                    "internalType": "bytes32",
                    "name": "docUrl",
                    "type": "bytes32"
                },
                {
                    "internalType": "bytes32",
                    "name": "docHash",
                    "type": "bytes32"
                }
            ],
            "name": "circulateSHA",
            "outputs": [],
            "stateMutability": "nonpayable",
            "type": "function"
        },
        {
            "inputs": [
                {
                    "internalType": "uint8",
                    "name": "typeOfDoc",
                    "type": "uint8"
                },
                {
                    "internalType": "uint256",
                    "name": "caller",
                    "type": "uint256"
                }
            ],
            "name": "createSHA",
            "outputs": [],
            "stateMutability": "nonpayable",
            "type": "function"
        },
        {
            "inputs": [
                {
                    "internalType": "address",
                    "name": "sha",
                    "type": "address"
                },
                {
                    "internalType": "uint256",
                    "name": "caller",
                    "type": "uint256"
                }
            ],
            "name": "effectiveSHA",
            "outputs": [],
            "stateMutability": "nonpayable",
            "type": "function"
        },
        {
            "inputs": [],
            "name": "finalized",
            "outputs": [
                {
                    "internalType": "bool",
                    "name": "",
                    "type": "bool"
                }
            ],
            "stateMutability": "view",
            "type": "function"
        },
        {
            "inputs": [],
            "name": "getBookeeper",
            "outputs": [
                {
                    "internalType": "address",
                    "name": "",
                    "type": "address"
                }
            ],
            "stateMutability": "view",
            "type": "function"
        },
        {
            "inputs": [],
            "name": "getGeneralCounsel",
            "outputs": [
                {
                    "internalType": "uint40",
                    "name": "",
                    "type": "uint40"
                }
            ],
            "stateMutability": "view",
            "type": "function"
        },
        {
            "inputs": [],
            "name": "getOwner",
            "outputs": [
                {
                    "internalType": "uint40",
                    "name": "",
                    "type": "uint40"
                }
            ],
            "stateMutability": "view",
            "type": "function"
        },
        {
            "inputs": [
                {
                    "internalType": "bytes32",
                    "name": "role",
                    "type": "bytes32"
                },
                {
                    "internalType": "uint256",
                    "name": "acct",
                    "type": "uint256"
                }
            ],
            "name": "grantRole",
            "outputs": [],
            "stateMutability": "nonpayable",
            "type": "function"
        },
        {
            "inputs": [
                {
                    "internalType": "bytes32",
                    "name": "role",
                    "type": "bytes32"
                },
                {
                    "internalType": "uint256",
                    "name": "acct",
                    "type": "uint256"
                }
            ],
            "name": "hasRole",
            "outputs": [
                {
                    "internalType": "bool",
                    "name": "",
                    "type": "bool"
                }
            ],
            "stateMutability": "view",
            "type": "function"
        },
        {
            "inputs": [
                {
                    "internalType": "uint256",
                    "name": "owner",
                    "type": "uint256"
                },
                {
                    "internalType": "address",
                    "name": "directKeeper",
                    "type": "address"
                },
                {
                    "internalType": "address",
                    "name": "regCenter",
                    "type": "address"
                },
                {
                    "internalType": "address",
                    "name": "generalKeeper",
                    "type": "address"
                }
            ],
            "name": "init",
            "outputs": [],
            "stateMutability": "nonpayable",
            "type": "function"
        },
        {
            "inputs": [],
            "name": "lockContents",
            "outputs": [],
            "stateMutability": "nonpayable",
            "type": "function"
        },
        {
            "inputs": [
                {
                    "internalType": "address",
                    "name": "sha",
                    "type": "address"
                },
                {
                    "internalType": "uint256",
                    "name": "caller",
                    "type": "uint256"
                }
            ],
            "name": "removeSHA",
            "outputs": [],
            "stateMutability": "nonpayable",
            "type": "function"
        },
        {
            "inputs": [
                {
                    "internalType": "bytes32",
                    "name": "role",
                    "type": "bytes32"
                }
            ],
            "name": "renounceRole",
            "outputs": [],
            "stateMutability": "nonpayable",
            "type": "function"
        },
        {
            "inputs": [
                {
                    "internalType": "bytes32",
                    "name": "role",
                    "type": "bytes32"
                },
                {
                    "internalType": "uint256",
                    "name": "acct",
                    "type": "uint256"
                }
            ],
            "name": "revokeRole",
            "outputs": [],
            "stateMutability": "nonpayable",
            "type": "function"
        },
        {
            "inputs": [
                {
                    "internalType": "address",
                    "name": "keeper",
                    "type": "address"
                }
            ],
            "name": "setDirectKeeper",
            "outputs": [],
            "stateMutability": "nonpayable",
            "type": "function"
        },
        {
            "inputs": [
                {
                    "internalType": "uint256",
                    "name": "acct",
                    "type": "uint256"
                }
            ],
            "name": "setGeneralCounsel",
            "outputs": [],
            "stateMutability": "nonpayable",
            "type": "function"
        },
        {
            "inputs": [
                {
                    "internalType": "uint256",
                    "name": "acct",
                    "type": "uint256"
                }
            ],
            "name": "setOwner",
            "outputs": [],
            "stateMutability": "nonpayable",
            "type": "function"
        },
        {
            "inputs": [
                {
                    "internalType": "bytes32",
                    "name": "role",
                    "type": "bytes32"
                },
                {
                    "internalType": "uint256",
                    "name": "acct",
                    "type": "uint256"
                }
            ],
            "name": "setRoleAdmin",
            "outputs": [],
            "stateMutability": "nonpayable",
            "type": "function"
        },
        {
            "inputs": [
                {
                    "internalType": "address",
                    "name": "temp",
                    "type": "address"
                },
                {
                    "internalType": "uint8",
                    "name": "typeOfDoc",
                    "type": "uint8"
                }
            ],
            "name": "setTempOfBOH",
            "outputs": [],
            "stateMutability": "nonpayable",
            "type": "function"
        },
        {
            "inputs": [
                {
                    "internalType": "address",
                    "name": "sha",
                    "type": "address"
                },
                {
                    "internalType": "uint256",
                    "name": "caller",
                    "type": "uint256"
                },
                {
                    "internalType": "bytes32",
                    "name": "sigHash",
                    "type": "bytes32"
                }
            ],
            "name": "signSHA",
            "outputs": [],
            "stateMutability": "nonpayable",
            "type": "function"
        }
    ],
    "bytecode": "608060405234801561001057600080fd5b50613a5e806100206000396000f3fe608060405234801561001057600080fd5b50600436106101425760003560e01c80638041494e116100b8578063c4ed598d1161007c578063c4ed598d1461028f578063dc890da9146102a2578063e396e78f146102b5578063ed211023146102c8578063f045a769146102e8578063f390d310146102f057600080fd5b80638041494e1461023a578063893d20e81461024d5780638bb9c5bf14610255578063a98e976d14610268578063b3f05b971461027b57600080fd5b80634c9e93b11161010a5780634c9e93b1146101b85780635171ebd4146101cb5780636be8496f146101de578063735dc1e3146101f15780637c67d747146102045780637e063c5a1461021757600080fd5b8063103f6edd1461014757806319d61ad91461016a5780631b6ea9f91461017f5780633da9a600146101925780634a14beb1146101a5575b600080fd5b61014f610303565b60405164ffffffffff90911681526020015b60405180910390f35b61017d610178366004612f2f565b61038f565b005b61017d61018d366004612f2f565b610423565b61017d6101a0366004612f51565b610448565b61017d6101b3366004612f51565b610563565b61017d6101c6366004612f82565b610753565b61017d6101d9366004612f2f565b610a0b565b61017d6101ec366004612fae565b610a30565b61017d6101ff366004612fda565b610ae2565b61017d610212366004612f2f565b610bf2565b61022a610225366004612f2f565b610d4e565b6040519015158152602001610161565b61017d610248366004612f51565b610de9565b61014f610fce565b61017d610263366004612f51565b611009565b61017d610276366004613013565b611062565b60028054600160f01b900460ff161461022a565b61017d61029d366004613031565b6112d2565b61017d6102b0366004613066565b611628565b61017d6102c3366004612f82565b61170b565b6102d0611dc7565b6040516001600160a01b039091168152602001610161565b61017d611e4d565b61017d6102fe3660046130b9565b61206b565b60405163e8c0cc1d60e01b81526002600482015260009073__$364aad554dc80380f414546becdd2c1584$__9063e8c0cc1d906024015b60206040518083038186803b15801561035257600080fd5b505af4158015610366573d6000803e3d6000fd5b505050506040513d601f19601f8201168201806040525081019061038a9190613117565b905090565b73__$364aad554dc80380f414546becdd2c1584$__6382daafaa6002846103b46123ff565b6040516001600160e01b031960e086901b1681526004810193909352602483019190915264ffffffffff166044820152606481018490526084015b60006040518083038186803b15801561040757600080fd5b505af415801561041b573d6000803e3d6000fd5b505050505050565b73__$364aad554dc80380f414546becdd2c1584$__636320d75e6002846103b46123ff565b604051633b11adbf60e21b81526002600482015233602482015273__$364aad554dc80380f414546becdd2c1584$__9063ec46b6fc9060440160206040518083038186803b15801561049957600080fd5b505af41580156104ad573d6000803e3d6000fd5b505050506040513d601f19601f820116820180604052508101906104d19190613142565b6104f65760405162461bcd60e51b81526004016104ed9061315d565b60405180910390fd5b60405163cc99e11b60e01b8152600260048201526024810182905273__$364aad554dc80380f414546becdd2c1584$__9063cc99e11b9060440160006040518083038186803b15801561054857600080fd5b505af415801561055c573d6000803e3d6000fd5b5050505050565b604051633b11adbf60e21b81526002600482015233602482015273__$364aad554dc80380f414546becdd2c1584$__9063ec46b6fc9060440160206040518083038186803b1580156105b457600080fd5b505af41580156105c8573d6000803e3d6000fd5b505050506040513d601f19601f820116820180604052508101906105ec9190613142565b80610691575073__$364aad554dc80380f414546becdd2c1584$__63fe27108660026106166123ff565b6040516001600160e01b031960e085901b168152600481019290925264ffffffffff16602482015260440160206040518083038186803b15801561065957600080fd5b505af415801561066d573d6000803e3d6000fd5b505050506040513d601f19601f820116820180604052508101906106919190613142565b6106ad5760405162461bcd60e51b81526004016104ed906131a3565b604051632725ebef60e21b8152600260048201526024810182905273__$364aad554dc80380f414546becdd2c1584$__90639c97afbc9060440160006040518083038186803b1580156106ff57600080fd5b505af4158015610713573d6000803e3d6000fd5b505050507ff2735f34b69be1e6342dea95f9162f84d0db925fab655ca9f1f312ac8cbfc99d8160405161074891815260200190565b60405180910390a150565b604051633b11adbf60e21b81526002600482015233602482015273__$364aad554dc80380f414546becdd2c1584$__9063ec46b6fc9060440160206040518083038186803b1580156107a457600080fd5b505af41580156107b8573d6000803e3d6000fd5b505050506040513d601f19601f820116820180604052508101906107dc9190613142565b6107f85760405162461bcd60e51b81526004016104ed9061315d565b8181801580159061087f575080826001600160a01b031663893d20e86040518163ffffffff1660e01b815260040160206040518083038186803b15801561083e57600080fd5b505afa158015610852573d6000803e3d6000fd5b505050506040513d601f19601f820116820180604052508101906108769190613117565b64ffffffffff16145b6108b75760405162461bcd60e51b81526020600482015260096024820152683737ba1027bbb732b960b91b60448201526064016104ed565b8360036108c2612459565b60405163de154c2760e01b81526001600160a01b038481166004830152919091169063de154c279060240160c06040518083038186803b15801561090557600080fd5b505afa158015610919573d6000803e3d6000fd5b505050506040513d601f19601f8201168201806040525081019061093d9190613289565b60a0015160ff16141561099e5760405162461bcd60e51b815260206004820152602360248201527f424f484b2e6d662e4e453a20446f6320414c52454144592045737461626c69736044820152621a195960ea1b60648201526084016104ed565b6109a6612459565b604051636a10c37d60e11b81526001600160a01b038781166004830152919091169063d42186fa906024015b600060405180830381600087803b1580156109ec57600080fd5b505af1158015610a00573d6000803e3d6000fd5b505050505050505050565b73__$364aad554dc80380f414546becdd2c1584$__63ee98b3136002846103b46123ff565b604051630f07232560e01b8152600260048201523360248201526001600160a01b038216604482015273__$364aad554dc80380f414546becdd2c1584$__90630f0723259060640160006040518083038186803b158015610a9057600080fd5b505af4158015610aa4573d6000803e3d6000fd5b50506040516001600160a01b03841681527fe435cbeab64e4eae6497b9d8289704bd709d624a80704ef3ca9af777534bc6ec92506020019050610748565b604051633b11adbf60e21b81526002600482015233602482015273__$364aad554dc80380f414546becdd2c1584$__9063ec46b6fc9060440160206040518083038186803b158015610b3357600080fd5b505af4158015610b47573d6000803e3d6000fd5b505050506040513d601f19601f82011682018060405250810190610b6b9190613142565b610b875760405162461bcd60e51b81526004016104ed9061315d565b610b8f612459565b6040516316e1d79b60e31b81526001600160a01b03848116600483015260ff84166024830152919091169063b70ebcd8906044015b600060405180830381600087803b158015610bde57600080fd5b505af115801561041b573d6000803e3d6000fd5b604051633b11adbf60e21b81526002600482015233602482015273__$364aad554dc80380f414546becdd2c1584$__9063ec46b6fc9060440160206040518083038186803b158015610c4357600080fd5b505af4158015610c57573d6000803e3d6000fd5b505050506040513d601f19601f82011682018060405250810190610c7b9190613142565b610c975760405162461bcd60e51b81526004016104ed9061315d565b610c9f6124bd565b6040516350a31ef960e01b81526000600482018190526024820152604481018390526001600160a01b0391909116906350a31ef990606401600060405180830381600087803b158015610cf157600080fd5b505af1158015610d05573d6000803e3d6000fd5b50505050610d116124bd565b604051630cac562d60e11b81526000600482015260248101839052604481018490526001600160a01b039190911690631958ac5a90606401610bc4565b604051632a3be56b60e21b815260026004820152602481018390526044810182905260009073__$364aad554dc80380f414546becdd2c1584$__9063a8ef95ac9060640160206040518083038186803b158015610daa57600080fd5b505af4158015610dbe573d6000803e3d6000fd5b505050506040513d601f19601f82011682018060405250810190610de29190613142565b9392505050565b604051633b11adbf60e21b81526002600482015233602482015273__$364aad554dc80380f414546becdd2c1584$__9063ec46b6fc9060440160206040518083038186803b158015610e3a57600080fd5b505af4158015610e4e573d6000803e3d6000fd5b505050506040513d601f19601f82011682018060405250810190610e729190613142565b80610f17575073__$364aad554dc80380f414546becdd2c1584$__63fe2710866002610e9c6123ff565b6040516001600160e01b031960e085901b168152600481019290925264ffffffffff16602482015260440160206040518083038186803b158015610edf57600080fd5b505af4158015610ef3573d6000803e3d6000fd5b505050506040513d601f19601f82011682018060405250810190610f179190613142565b610f335760405162461bcd60e51b81526004016104ed906131a3565b60405163b6e38a2960e01b8152600260048201526024810182905273__$364aad554dc80380f414546becdd2c1584$__9063b6e38a299060440160006040518083038186803b158015610f8557600080fd5b505af4158015610f99573d6000803e3d6000fd5b505050507f8b6f40f36b4ae8cc5f55e895036457c43da4ab1f80f58c46f5ff0d72a650033b8160405161074891815260200190565b60405163987ad15360e01b81526002600482015260009073__$364aad554dc80380f414546becdd2c1584$__9063987ad1539060240161033a565b60006110136123ff565b60405163cc0d511b60e01b8152600260048201526024810184905264ffffffffff8216604482015290915073__$364aad554dc80380f414546becdd2c1584$__9063cc0d511b906064016103ef565b604051633b11adbf60e21b81526002600482015233602482015273__$364aad554dc80380f414546becdd2c1584$__9063ec46b6fc9060440160206040518083038186803b1580156110b357600080fd5b505af41580156110c7573d6000803e3d6000fd5b505050506040513d601f19601f820116820180604052508101906110eb9190613142565b6111075760405162461bcd60e51b81526004016104ed9061315d565b61110f6124ff565b6001600160a01b031663d50c7377826040518263ffffffff1660e01b815260040161113c91815260200190565b60206040518083038186803b15801561115457600080fd5b505afa158015611168573d6000803e3d6000fd5b505050506040513d601f19601f8201168201806040525081019061118c9190613142565b6111c55760405162461bcd60e51b815260206004820152600a6024820152693737ba1026a2a6a122a960b11b60448201526064016104ed565b60006111cf612459565b6040516324344f1160e01b815260ff85166004820152602481018490526001600160a01b0391909116906324344f1190604401602060405180830381600087803b15801561121c57600080fd5b505af1158015611230573d6000803e3d6000fd5b505050506040513d601f19601f82011682018060405250810190611254919061332b565b60005460015460405163dc890da960e01b8152600481018690523060248201526001600160a01b039283166044820152908216606482015291925082169063dc890da990608401600060405180830381600087803b1580156112b557600080fd5b505af11580156112c9573d6000803e3d6000fd5b50505050505050565b604051633b11adbf60e21b81526002600482015233602482015273__$364aad554dc80380f414546becdd2c1584$__9063ec46b6fc9060440160206040518083038186803b15801561132357600080fd5b505af4158015611337573d6000803e3d6000fd5b505050506040513d601f19601f8201168201806040525081019061135b9190613142565b6113775760405162461bcd60e51b81526004016104ed9061315d565b6040516308c5f91760e41b815260048101839052839083906001600160a01b03831690638c5f91709060240160206040518083038186803b1580156113bb57600080fd5b505afa1580156113cf573d6000803e3d6000fd5b505050506040513d601f19601f820116820180604052508101906113f39190613142565b6114325760405162461bcd60e51b815260206004820152601060248201526f4e4f54205061727479206f6620446f6360801b60448201526064016104ed565b600261143c612459565b60405163de154c2760e01b81526001600160a01b038881166004830152919091169063de154c279060240160c06040518083038186803b15801561147f57600080fd5b505afa158015611493573d6000803e3d6000fd5b505050506040513d601f19601f820116820180604052508101906114b79190613289565b60a0015160ff161461150b5760405162461bcd60e51b815260206004820152601b60248201527f534841206e6f7420696e2043697263756c61746564205374617465000000000060448201526064016104ed565b604051630cac562d60e11b81526001600482015260248101859052604481018490526001600160a01b03861690631958ac5a90606401600060405180830381600087803b15801561155b57600080fd5b505af115801561156f573d6000803e3d6000fd5b50505050846001600160a01b0316634844f5416040518163ffffffff1660e01b815260040160206040518083038186803b1580156115ac57600080fd5b505afa1580156115c0573d6000803e3d6000fd5b505050506040513d601f19601f820116820180604052508101906115e49190613142565b1561055c576115f1612459565b60405163108fac0b60e11b81526001600160a01b03878116600483015260036024830152919091169063211f5816906044016109d2565b6116318261251a565b61163a816125c9565b604051636cdd0edf60e11b815260026004820152602481018590526001600160a01b038416604482015273__$364aad554dc80380f414546becdd2c1584$__9063d9ba1dbe9060640160006040518083038186803b15801561169b57600080fd5b505af41580156116af573d6000803e3d6000fd5b5050604080518781526001600160a01b038781166020830152868116828401528516606082015290517f3abb2418c66fe32ba9c883030a75ce583971d9af9192b9b74e44e67c5e6c8c1f9350908190036080019150a150505050565b604051633b11adbf60e21b81526002600482015233602482015273__$364aad554dc80380f414546becdd2c1584$__9063ec46b6fc9060440160206040518083038186803b15801561175c57600080fd5b505af4158015611770573d6000803e3d6000fd5b505050506040513d601f19601f820116820180604052508101906117949190613142565b6117b05760405162461bcd60e51b81526004016104ed9061315d565b6040516308c5f91760e41b815260048101829052829082906001600160a01b03831690638c5f91709060240160206040518083038186803b1580156117f457600080fd5b505afa158015611808573d6000803e3d6000fd5b505050506040513d601f19601f8201168201806040525081019061182c9190613142565b61186b5760405162461bcd60e51b815260206004820152601060248201526f4e4f54205061727479206f6620446f6360801b60448201526064016104ed565b6000611875612459565b905060006118816124ff565b60405163de154c2760e01b81526001600160a01b03888116600483015291925060039184169063de154c279060240160c06040518083038186803b1580156118c857600080fd5b505afa1580156118dc573d6000803e3d6000fd5b505050506040513d601f19601f820116820180604052508101906119009190613289565b60a0015160ff16146119545760405162461bcd60e51b815260206004820152601d60248201527f424f484b2e45533a20534841206e6f742065786563757465642079657400000060448201526064016104ed565b61195d86612680565b8061196c575061196c866127d6565b6119ce5760405162461bcd60e51b815260206004820152602d60248201527f424f484b2e45533a205348412065666665637469766520636f6e646974696f6e60448201526c1cc81b9bdd081c995858da1959609a1b60648201526084016104ed565b604051639f4d332f60e01b81526001600160a01b038781166004830152831690639f4d332f90602401600060405180830381600087803b158015611a1157600080fd5b505af1158015611a25573d6000803e3d6000fd5b5050604051634846203760e01b815260006004820181905292506001600160a01b038916915063484620379060240160206040518083038186803b158015611a6c57600080fd5b505afa158015611a80573d6000803e3d6000fd5b505050506040513d601f19601f82011682018060405250810190611aa49190613348565b604051633d315f5b60e21b8152600481019190915273__$9d2c69e94fee47b9774dc8db4aa5c0bbec$__9063f4c57d6c906024016101006040518083038186803b158015611af157600080fd5b505af4158015611b05573d6000803e3d6000fd5b505050506040513d601f19601f82011682018060405250810190611b299190613373565b6060810151604051636d3521eb60e11b815290151560048201529091506001600160a01b0383169063da6a43d690602401600060405180830381600087803b158015611b7457600080fd5b505af1158015611b88573d6000803e3d6000fd5b505050506060810151604051635ee1b7b160e11b815290151560048201526001600160a01b0383169063bdc36f6290602401600060405180830381600087803b158015611bd457600080fd5b505af1158015611be8573d6000803e3d6000fd5b50505050611bf4612afd565b60a0820151604051600162883fab60e01b0319815260ff90911660048201526001600160a01b03919091169063ff77c05590602401600060405180830381600087803b158015611c4357600080fd5b505af1158015611c57573d6000803e3d6000fd5b5050604051637176544960e01b8152600560048201526001600160a01b038a1692506371765449915060240160206040518083038186803b158015611c9b57600080fd5b505afa158015611caf573d6000803e3d6000fd5b505050506040513d601f19601f82011682018060405250810190611cd39190613142565b15611dbd57611ce0612b1b565b60405163346ba94160e01b8152600560048201526001600160a01b039182169163f30c256091908a169063346ba9419060240160206040518083038186803b158015611d2b57600080fd5b505afa158015611d3f573d6000803e3d6000fd5b505050506040513d601f19601f82011682018060405250810190611d63919061332b565b6040516001600160e01b031960e084901b1681526001600160a01b039091166004820152602401600060405180830381600087803b158015611da457600080fd5b505af1158015611db8573d6000803e3d6000fd5b505050505b6112c98783612b36565b604051633c3e56c160e11b81526002600482015260009073__$364aad554dc80380f414546becdd2c1584$__9063787cad829060240160206040518083038186803b158015611e1557600080fd5b505af4158015611e29573d6000803e3d6000fd5b505050506040513d601f19601f8201168201806040525081019061038a919061332b565b604051633b11adbf60e21b81526002600482015233602482015273__$364aad554dc80380f414546becdd2c1584$__9063ec46b6fc9060440160206040518083038186803b158015611e9e57600080fd5b505af4158015611eb2573d6000803e3d6000fd5b505050506040513d601f19601f82011682018060405250810190611ed69190613142565b611ef25760405162461bcd60e51b81526004016104ed9061315d565b600254600160f01b900460ff16600114611f4e5760405162461bcd60e51b815260206004820181905260248201527f41432e6f6e6c7950656e64696e673a20446f632069732066696e616c697a656460448201526064016104ed565b60405163cc99e11b60e01b815260026004820152684174746f726e65797360b81b602482015273__$364aad554dc80380f414546becdd2c1584$__9063cc99e11b9060440160006040518083038186803b158015611fab57600080fd5b505af4158015611fbf573d6000803e3d6000fd5b5050604051632725ebef60e21b8152600260048201526000602482015273__$364aad554dc80380f414546becdd2c1584$__9250639c97afbc915060440160006040518083038186803b15801561201557600080fd5b505af4158015612029573d6000803e3d6000fd5b50506002805460ff60f01b1916600160f11b17905550506040517f35012b512309c322acf68632cd6cb702ff0e1d776fbe9394e38ffc13b434fe7590600090a1565b604051633b11adbf60e21b81526002600482015233602482015273__$364aad554dc80380f414546becdd2c1584$__9063ec46b6fc9060440160206040518083038186803b1580156120bc57600080fd5b505af41580156120d0573d6000803e3d6000fd5b505050506040513d601f19601f820116820180604052508101906120f49190613142565b6121105760405162461bcd60e51b81526004016104ed9061315d565b84848015801590612197575080826001600160a01b031663893d20e86040518163ffffffff1660e01b815260040160206040518083038186803b15801561215657600080fd5b505afa15801561216a573d6000803e3d6000fd5b505050506040513d601f19601f8201168201806040525081019061218e9190613117565b64ffffffffff16145b6121cf5760405162461bcd60e51b81526020600482015260096024820152683737ba1027bbb732b960b91b60448201526064016104ed565b866001600160a01b0316638969d43a6040518163ffffffff1660e01b8152600401600060405180830381600087803b15801561220a57600080fd5b505af115801561221e573d6000803e3d6000fd5b5050604051634020a4a760e11b8152600060048201526001600160a01b038a169250638041494e9150602401600060405180830381600087803b15801561226457600080fd5b505af1158015612278573d6000803e3d6000fd5b5050505060006122866124bd565b6001600160a01b03166348462037876040518263ffffffff1660e01b81526004016122b391815260200190565b60206040518083038186803b1580156122cb57600080fd5b505afa1580156122df573d6000803e3d6000fd5b505050506040513d601f19601f820116820180604052508101906123039190613348565b604051634281ec6b60e11b8152600481019190915273__$9d2c69e94fee47b9774dc8db4aa5c0bbec$__90638503d8d6906024016102206040518083038186803b15801561235057600080fd5b505af4158015612364573d6000803e3d6000fd5b505050506040513d601f19601f820116820180604052508101906123889190613515565b9050612392612459565b6001600160a01b0316638c32f23d898388886040518563ffffffff1660e01b81526004016123c39493929190613662565b600060405180830381600087803b1580156123dd57600080fd5b505af11580156123f1573d6000803e3d6000fd5b505050505050505050505050565b60008054604051634de835e760e11b81523360048201526001600160a01b0390911690639bd06bce90602401602060405180830381600087803b15801561244557600080fd5b505af1158015610366573d6000803e3d6000fd5b6001546000906001600160a01b031663e0ff5b8b60035b6040516001600160e01b031960e084901b16815260ff909116600482015260240160206040518083038186803b1580156124a957600080fd5b505afa158015611e29573d6000803e3d6000fd5b60006124c7612459565b6001600160a01b0316632f5f3b3c6040518163ffffffff1660e01b815260040160206040518083038186803b1580156124a957600080fd5b6001546000906001600160a01b031663e0ff5b8b6007612470565b6000546001600160a01b03161561256b5760405162461bcd60e51b815260206004820152601560248201527430b63932b0b23c9039b2ba103932b3a1b2b73a32b960591b60448201526064016104ed565b6040516001600160a01b03821681527f318da6c7624c71cbc0afe346c9d8827f119d0ecefb241a7b0c87217a076a8e029060200160405180910390a1600080546001600160a01b0319166001600160a01b0392909216919091179055565b6001546001600160a01b0316156126225760405162461bcd60e51b815260206004820152601960248201527f616c7265616479207365742067656e6572616c4b65657065720000000000000060448201526064016104ed565b6040516001600160a01b03821681527fe513d3e0f0d0a3877029dcc588748679a7a3450ec1ec7ed56d96bd012c3e61aa9060200160405180910390a1600180546001600160a01b0319166001600160a01b0392909216919091179055565b60008061268b6124ff565b6001600160a01b031663dd5042f46040518163ffffffff1660e01b815260040160006040518083038186803b1580156126c357600080fd5b505afa1580156126d7573d6000803e3d6000fd5b505050506040513d6000823e601f3d908101601f191682016040526126ff9190810190613798565b80519091505b80156127cc576001600160a01b038416638c5f917083612726600185613853565b815181106127365761273661386a565b60200260200101516040518263ffffffff1660e01b815260040161275c91815260200190565b60206040518083038186803b15801561277457600080fd5b505afa158015612788573d6000803e3d6000fd5b505050506040513d601f19601f820116820180604052508101906127ac9190613142565b6127ba575060009392505050565b806127c481613880565b915050612705565b5060019392505050565b600080826001600160a01b031663a8311aa86040518163ffffffff1660e01b815260040160006040518083038186803b15801561281257600080fd5b505afa158015612826573d6000803e3d6000fd5b505050506040513d6000823e601f3d908101601f1916820160405261284e9190810190613798565b8051909150600061285d6124bd565b604051634846203760e01b8152600060048201526001600160a01b03919091169063484620379060240160206040518083038186803b15801561289f57600080fd5b505afa1580156128b3573d6000803e3d6000fd5b505050506040513d601f19601f820116820180604052508101906128d79190613348565b604051633d315f5b60e21b8152600481019190915273__$9d2c69e94fee47b9774dc8db4aa5c0bbec$__9063f4c57d6c906024016101006040518083038186803b15801561292457600080fd5b505af4158015612938573d6000803e3d6000fd5b505050506040513d601f19601f8201168201806040525081019061295c9190613373565b9050600061271061296b6124ff565b6001600160a01b0316630d15fd776040518163ffffffff1660e01b815260040160206040518083038186803b1580156129a357600080fd5b505afa1580156129b7573d6000803e3d6000fd5b505050506040513d601f19601f820116820180604052508101906129db9190613897565b8360e0015161ffff166129ee91906138c0565b6129f891906138ef565b905060005b8315612af057612a0b6124ff565b6001600160a01b031663c2d7616e86612a25600188613853565b81518110612a3557612a3561386a565b60200260200101516040518263ffffffff1660e01b8152600401612a5b91815260200190565b60206040518083038186803b158015612a7357600080fd5b505afa158015612a87573d6000803e3d6000fd5b505050506040513d601f19601f82011682018060405250810190612aab9190613897565b612ab59082613923565b9050816001600160401b0316816001600160401b03161115612ade575060019695505050505050565b83612ae881613880565b9450506129fd565b5060009695505050505050565b600180546000916001600160a01b039091169063e0ff5b8b90612470565b6001546000906001600160a01b031663e0ff5b8b6004612470565b604051634846203760e01b815261030060048201526000906001600160a01b0384169063484620379060240160206040518083038186803b158015612b7a57600080fd5b505afa158015612b8e573d6000803e3d6000fd5b505050506040513d601f19601f82011682018060405250810190612bb29190613348565b6040516314b2794360e01b8152600481019190915273__$9d2c69e94fee47b9774dc8db4aa5c0bbec$__906314b27943906024016101206040518083038186803b158015612bff57600080fd5b505af4158015612c13573d6000803e3d6000fd5b505050506040513d601f19601f82011682018060405250810190612c37919061394e565b6020015160ff16905060005b81811015612f295760006001600160a01b0385166348462037612c68846103006139f5565b6040518263ffffffff1660e01b8152600401612c8691815260200190565b60206040518083038186803b158015612c9e57600080fd5b505afa158015612cb2573d6000803e3d6000fd5b505050506040513d601f19601f82011682018060405250810190612cd69190613348565b6040516314b2794360e01b8152600481019190915273__$9d2c69e94fee47b9774dc8db4aa5c0bbec$__906314b27943906024016101206040518083038186803b158015612d2357600080fd5b505af4158015612d37573d6000803e3d6000fd5b505050506040513d601f19601f82011682018060405250810190612d5b919061394e565b90506000816060015115612e42575b6004811015612e3d5760008260a001518260048110612d8b57612d8b61386a565b602002015164ffffffffff161115612e2b57846001600160a01b031663a7ec068f8360a001518360048110612dc257612dc261386a565b602002015160808501516040516001600160e01b031960e085901b16815264ffffffffff928316600482015291166024820152604401600060405180830381600087803b158015612e1257600080fd5b505af1158015612e26573d6000803e3d6000fd5b505050505b80612e3581613a0d565b915050612d6a565b612f15565b6004811015612f155760008260a001518260048110612e6357612e6361386a565b602002015164ffffffffff161115612f0357846001600160a01b031663dd8a18e98360a001518360048110612e9a57612e9a61386a565b602002015160808501516040516001600160e01b031960e085901b16815264ffffffffff928316600482015291166024820152604401600060405180830381600087803b158015612eea57600080fd5b505af1158015612efe573d6000803e3d6000fd5b505050505b80612f0d81613a0d565b915050612e42565b82612f1f81613a0d565b9350505050612c43565b50505050565b60008060408385031215612f4257600080fd5b50508035926020909101359150565b600060208284031215612f6357600080fd5b5035919050565b6001600160a01b0381168114612f7f57600080fd5b50565b60008060408385031215612f9557600080fd5b8235612fa081612f6a565b946020939093013593505050565b600060208284031215612fc057600080fd5b8135610de281612f6a565b60ff81168114612f7f57600080fd5b60008060408385031215612fed57600080fd5b8235612ff881612f6a565b9150602083013561300881612fcb565b809150509250929050565b6000806040838503121561302657600080fd5b8235612fa081612fcb565b60008060006060848603121561304657600080fd5b833561305181612f6a565b95602085013595506040909401359392505050565b6000806000806080858703121561307c57600080fd5b84359350602085013561308e81612f6a565b9250604085013561309e81612f6a565b915060608501356130ae81612f6a565b939692955090935050565b600080600080600060a086880312156130d157600080fd5b85356130dc81612f6a565b97602087013597506040870135966060810135965060800135945092505050565b805164ffffffffff8116811461311257600080fd5b919050565b60006020828403121561312957600080fd5b610de2826130fd565b8051801515811461311257600080fd5b60006020828403121561315457600080fd5b610de282613132565b60208082526026908201527f41432e6f6e6c794469726563744b65657065723a206e6f74206469726563742060408201526535b2b2b832b960d11b606082015260800190565b60208082526036908201527f41432e6f776e65724f72446972656374426f6f6b65657065723a206e6569746860408201527532b91037bbb732b9103737b9103137b7b5b2b2b832b960511b606082015260800190565b634e487b7160e01b600052604160045260246000fd5b6040516101e081016001600160401b0381118282101715613232576132326131f9565b60405290565b604051601f8201601f191681016001600160401b0381118282101715613260576132606131f9565b604052919050565b805161311281612fcb565b805165ffffffffffff8116811461311257600080fd5b600060c0828403121561329b57600080fd5b60405160c081018181106001600160401b03821117156132bd576132bd6131f9565b60405282516132cb81612fcb565b81526132d9602084016130fd565b60208201526132ea60408401613273565b60408201526132fb60608401613273565b606082015261330c60808401613273565b608082015260a083015161331f81612fcb565b60a08201529392505050565b60006020828403121561333d57600080fd5b8151610de281612f6a565b60006020828403121561335a57600080fd5b5051919050565b805161ffff8116811461311257600080fd5b600061010080838503121561338757600080fd5b604051908101906001600160401b03821181831017156133a9576133a96131f9565b816040526133b684613361565b8152602084015191506133c882612fcb565b8160208201526133da60408501613268565b60408201526133eb60608501613132565b60608201526133fc60808501613361565b608082015261340d60a08501613268565b60a082015261341e60c08501613268565b60c082015261342f60e08501613361565b60e0820152949350505050565b6000604051608081018181106001600160401b0382111715613460576134606131f9565b604052905080608083018481111561347757600080fd5b835b818110156134985761348a816130fd565b835260209283019201613479565b50505092915050565b600082601f8301126134b257600080fd5b604051606081018181106001600160401b03821117156134d4576134d46131f9565b6040528060608401858111156134e957600080fd5b845b8181101561350a576134fc816130fd565b8352602092830192016134eb565b509195945050505050565b6000610220828403121561352857600080fd5b61353061320f565b61353983613361565b815261354760208401613268565b602082015261355860408401613268565b604082015261356960608401613268565b606082015261357a60808401613361565b608082015261358b60a08401613361565b60a082015261359c60c08401613132565b60c08201526135ad60e08401613132565b60e08201526101006135c0818501613132565b908201526101206135d2848201613132565b908201526101406135e4848201613268565b908201526101606135f6848201613268565b90820152610180613608848201613268565b908201526101a061361a848201613268565b908201526101c061362d858583016134a1565b908201529392505050565b8060005b6003811015612f2957815164ffffffffff1684526020938401939091019060010161363c565b6001600160a01b0385168152835161ffff1660208201526102808101602085015160ff8116604084015250604085015160ff8116606084015250606085015160ff8116608084015250608085015161ffff811660a08401525060a085015161ffff811660c08401525060c085015180151560e08401525060e08501516101006136ee8185018315159052565b86015190506101206137038482018315159052565b86015190506101406137188482018315159052565b860151905061016061372e8482018360ff169052565b86015190506101806137448482018360ff169052565b86015190506101a061375a8482018360ff169052565b86015190506101c06137708482018360ff169052565b86015190506137836101e0840182613638565b50610240820193909352610260015292915050565b600060208083850312156137ab57600080fd5b82516001600160401b03808211156137c257600080fd5b818501915085601f8301126137d657600080fd5b8151818111156137e8576137e86131f9565b8060051b91506137f9848301613238565b818152918301840191848101908884111561381357600080fd5b938501935b8385101561383157845182529385019390850190613818565b98975050505050505050565b634e487b7160e01b600052601160045260246000fd5b6000828210156138655761386561383d565b500390565b634e487b7160e01b600052603260045260246000fd5b60008161388f5761388f61383d565b506000190190565b6000602082840312156138a957600080fd5b81516001600160401b0381168114610de257600080fd5b60006001600160401b03808316818516818304811182151516156138e6576138e661383d565b02949350505050565b60006001600160401b038084168061391757634e487b7160e01b600052601260045260246000fd5b92169190910492915050565b60006001600160401b038083168185168083038211156139455761394561383d565b01949350505050565b6000610120828403121561396157600080fd5b60405160c081018181106001600160401b0382111715613983576139836131f9565b60405261398f83613361565b8152602083015161399f81612fcb565b602082015260408301516139b281612fcb565b60408201526139c360608401613132565b60608201526139d4608084016130fd565b60808201528360bf8401126139e857600080fd5b61331f8460a0850161343c565b60008219821115613a0857613a0861383d565b500190565b6000600019821415613a2157613a2161383d565b506001019056fea2646970667358221220ee790f4021b124596325695ab88b5496c24fe3178f80e9ae74149dd1f86d089f64736f6c63430008080033",
    "sourcePath": "/Users/kaptain/github.com/hardhat/comboox/contracts/keepers/BOHKeeper.sol",
    "compiler": {
        "name": "solc",
        "version": "0.8.8+commit.dddeac2f"
    },
    "functionHashes": {
        "abandonRole(bytes32)": "3da9a600",
        "acceptSHA(bytes32,uint256)": "7c67d747",
        "circulateSHA(address,uint256,uint256,bytes32,bytes32)": "f390d310",
        "createSHA(uint8,uint256)": "a98e976d",
        "effectiveSHA(address,uint256)": "e396e78f",
        "finalized()": "b3f05b97",
        "getBookeeper()": "ed211023",
        "getGeneralCounsel()": "103f6edd",
        "getOwner()": "893d20e8",
        "grantRole(bytes32,uint256)": "1b6ea9f9",
        "hasRole(bytes32,uint256)": "7e063c5a",
        "init(uint256,address,address,address)": "dc890da9",
        "lockContents()": "f045a769",
        "removeSHA(address,uint256)": "4c9e93b1",
        "renounceRole(bytes32)": "8bb9c5bf",
        "revokeRole(bytes32,uint256)": "19d61ad9",
        "setDirectKeeper(address)": "6be8496f",
        "setGeneralCounsel(uint256)": "4a14beb1",
        "setOwner(uint256)": "8041494e",
        "setRoleAdmin(bytes32,uint256)": "5171ebd4",
        "setTempOfBOH(address,uint8)": "735dc1e3",
        "signSHA(address,uint256,bytes32)": "c4ed598d"
    },
    "gasEstimates": {
        "creation": {
            "codeDepositCost": "2988400",
            "executionCost": "3278",
            "totalCost": "2991678"
        },
        "external": {
            "abandonRole(bytes32)": "infinite",
            "acceptSHA(bytes32,uint256)": "infinite",
            "circulateSHA(address,uint256,uint256,bytes32,bytes32)": "infinite",
            "createSHA(uint8,uint256)": "infinite",
            "effectiveSHA(address,uint256)": "infinite",
            "finalized()": "2438",
            "getBookeeper()": "infinite",
            "getGeneralCounsel()": "infinite",
            "getOwner()": "infinite",
            "grantRole(bytes32,uint256)": "infinite",
            "hasRole(bytes32,uint256)": "infinite",
            "init(uint256,address,address,address)": "infinite",
            "lockContents()": "infinite",
            "removeSHA(address,uint256)": "infinite",
            "renounceRole(bytes32)": "infinite",
            "revokeRole(bytes32,uint256)": "infinite",
            "setDirectKeeper(address)": "infinite",
            "setGeneralCounsel(uint256)": "infinite",
            "setOwner(uint256)": "infinite",
            "setRoleAdmin(bytes32,uint256)": "infinite",
            "setTempOfBOH(address,uint8)": "infinite",
            "signSHA(address,uint256,bytes32)": "infinite"
        },
        "internal": {
            "_allMembersSigned(address)": "infinite",
            "_reachedEffectiveThreshold(address)": "infinite",
            "_updateGrouping(address,contract IRegisterOfMembers)": "infinite"
        }
    }
}