{
    "contractName": "BOHKeeper",
    "abi": [
        {
            "anonymous": false,
            "inputs": [
                {
                    "indexed": false,
                    "internalType": "uint256",
                    "name": "owner",
                    "type": "uint256"
                },
                {
                    "indexed": false,
                    "internalType": "address",
                    "name": "directKeeper",
                    "type": "address"
                },
                {
                    "indexed": false,
                    "internalType": "address",
                    "name": "regCenter",
                    "type": "address"
                },
                {
                    "indexed": false,
                    "internalType": "address",
                    "name": "generalKeeper",
                    "type": "address"
                }
            ],
            "name": "Init",
            "type": "event"
        },
        {
            "anonymous": false,
            "inputs": [],
            "name": "LockContents",
            "type": "event"
        },
        {
            "anonymous": false,
            "inputs": [
                {
                    "indexed": false,
                    "internalType": "address",
                    "name": "target",
                    "type": "address"
                }
            ],
            "name": "RemoveDirectKeeper",
            "type": "event"
        },
        {
            "anonymous": false,
            "inputs": [
                {
                    "indexed": false,
                    "internalType": "address",
                    "name": "keeper",
                    "type": "address"
                }
            ],
            "name": "SetDirectKeeper",
            "type": "event"
        },
        {
            "anonymous": false,
            "inputs": [
                {
                    "indexed": false,
                    "internalType": "uint256",
                    "name": "acct",
                    "type": "uint256"
                }
            ],
            "name": "SetGeneralCounsel",
            "type": "event"
        },
        {
            "anonymous": false,
            "inputs": [
                {
                    "indexed": false,
                    "internalType": "uint256",
                    "name": "acct",
                    "type": "uint256"
                }
            ],
            "name": "SetOwner",
            "type": "event"
        },
        {
            "inputs": [
                {
                    "internalType": "bytes32",
                    "name": "role",
                    "type": "bytes32"
                }
            ],
            "name": "abandonRole",
            "outputs": [],
            "stateMutability": "nonpayable",
            "type": "function"
        },
        {
            "inputs": [
                {
                    "internalType": "bytes32",
                    "name": "sigHash",
                    "type": "bytes32"
                },
                {
                    "internalType": "uint256",
                    "name": "caller",
                    "type": "uint256"
                }
            ],
            "name": "acceptSHA",
            "outputs": [],
            "stateMutability": "nonpayable",
            "type": "function"
        },
        {
            "inputs": [
                {
                    "internalType": "address",
                    "name": "sha",
                    "type": "address"
                },
                {
                    "internalType": "bytes32",
                    "name": "docUrl",
                    "type": "bytes32"
                },
                {
                    "internalType": "bytes32",
                    "name": "docHash",
                    "type": "bytes32"
                },
                {
                    "internalType": "uint256",
                    "name": "caller",
                    "type": "uint256"
                }
            ],
            "name": "circulateSHA",
            "outputs": [],
            "stateMutability": "nonpayable",
            "type": "function"
        },
        {
            "inputs": [
                {
                    "internalType": "uint256",
                    "name": "version",
                    "type": "uint256"
                },
                {
                    "internalType": "address",
                    "name": "primeKeyOfCaller",
                    "type": "address"
                },
                {
                    "internalType": "uint256",
                    "name": "caller",
                    "type": "uint256"
                }
            ],
            "name": "createSHA",
            "outputs": [],
            "stateMutability": "nonpayable",
            "type": "function"
        },
        {
            "inputs": [
                {
                    "internalType": "address",
                    "name": "sha",
                    "type": "address"
                },
                {
                    "internalType": "uint256",
                    "name": "caller",
                    "type": "uint256"
                }
            ],
            "name": "effectiveSHA",
            "outputs": [],
            "stateMutability": "nonpayable",
            "type": "function"
        },
        {
            "inputs": [],
            "name": "finalized",
            "outputs": [
                {
                    "internalType": "bool",
                    "name": "",
                    "type": "bool"
                }
            ],
            "stateMutability": "view",
            "type": "function"
        },
        {
            "inputs": [],
            "name": "getBookeeper",
            "outputs": [
                {
                    "internalType": "address",
                    "name": "",
                    "type": "address"
                }
            ],
            "stateMutability": "view",
            "type": "function"
        },
        {
            "inputs": [],
            "name": "getGeneralCounsel",
            "outputs": [
                {
                    "internalType": "uint40",
                    "name": "",
                    "type": "uint40"
                }
            ],
            "stateMutability": "view",
            "type": "function"
        },
        {
            "inputs": [],
            "name": "getOwner",
            "outputs": [
                {
                    "internalType": "uint40",
                    "name": "",
                    "type": "uint40"
                }
            ],
            "stateMutability": "view",
            "type": "function"
        },
        {
            "inputs": [
                {
                    "internalType": "bytes32",
                    "name": "role",
                    "type": "bytes32"
                },
                {
                    "internalType": "uint256",
                    "name": "acct",
                    "type": "uint256"
                }
            ],
            "name": "grantRole",
            "outputs": [],
            "stateMutability": "nonpayable",
            "type": "function"
        },
        {
            "inputs": [
                {
                    "internalType": "bytes32",
                    "name": "role",
                    "type": "bytes32"
                },
                {
                    "internalType": "uint256",
                    "name": "acct",
                    "type": "uint256"
                }
            ],
            "name": "hasRole",
            "outputs": [
                {
                    "internalType": "bool",
                    "name": "",
                    "type": "bool"
                }
            ],
            "stateMutability": "view",
            "type": "function"
        },
        {
            "inputs": [
                {
                    "internalType": "uint256",
                    "name": "owner",
                    "type": "uint256"
                },
                {
                    "internalType": "address",
                    "name": "directKeeper",
                    "type": "address"
                },
                {
                    "internalType": "address",
                    "name": "regCenter",
                    "type": "address"
                },
                {
                    "internalType": "address",
                    "name": "generalKeeper",
                    "type": "address"
                }
            ],
            "name": "init",
            "outputs": [],
            "stateMutability": "nonpayable",
            "type": "function"
        },
        {
            "inputs": [],
            "name": "lockContents",
            "outputs": [],
            "stateMutability": "nonpayable",
            "type": "function"
        },
        {
            "inputs": [
                {
                    "internalType": "address",
                    "name": "target",
                    "type": "address"
                }
            ],
            "name": "removeDirectKeeper",
            "outputs": [],
            "stateMutability": "nonpayable",
            "type": "function"
        },
        {
            "inputs": [
                {
                    "internalType": "bytes32",
                    "name": "role",
                    "type": "bytes32"
                }
            ],
            "name": "renounceRole",
            "outputs": [],
            "stateMutability": "nonpayable",
            "type": "function"
        },
        {
            "inputs": [
                {
                    "internalType": "bytes32",
                    "name": "role",
                    "type": "bytes32"
                },
                {
                    "internalType": "uint256",
                    "name": "acct",
                    "type": "uint256"
                }
            ],
            "name": "revokeRole",
            "outputs": [],
            "stateMutability": "nonpayable",
            "type": "function"
        },
        {
            "inputs": [
                {
                    "internalType": "address",
                    "name": "keeper",
                    "type": "address"
                }
            ],
            "name": "setDirectKeeper",
            "outputs": [],
            "stateMutability": "nonpayable",
            "type": "function"
        },
        {
            "inputs": [
                {
                    "internalType": "uint256",
                    "name": "acct",
                    "type": "uint256"
                }
            ],
            "name": "setGeneralCounsel",
            "outputs": [],
            "stateMutability": "nonpayable",
            "type": "function"
        },
        {
            "inputs": [
                {
                    "internalType": "uint256",
                    "name": "acct",
                    "type": "uint256"
                }
            ],
            "name": "setOwner",
            "outputs": [],
            "stateMutability": "nonpayable",
            "type": "function"
        },
        {
            "inputs": [
                {
                    "internalType": "bytes32",
                    "name": "role",
                    "type": "bytes32"
                },
                {
                    "internalType": "uint256",
                    "name": "acct",
                    "type": "uint256"
                }
            ],
            "name": "setRoleAdmin",
            "outputs": [],
            "stateMutability": "nonpayable",
            "type": "function"
        },
        {
            "inputs": [
                {
                    "internalType": "address",
                    "name": "sha",
                    "type": "address"
                },
                {
                    "internalType": "bytes32",
                    "name": "sigHash",
                    "type": "bytes32"
                },
                {
                    "internalType": "uint256",
                    "name": "caller",
                    "type": "uint256"
                }
            ],
            "name": "signSHA",
            "outputs": [],
            "stateMutability": "nonpayable",
            "type": "function"
        }
    ],
    "bytecode": "608060405234801561001057600080fd5b50614551806100206000396000f3fe608060405234801561001057600080fd5b50600436106101375760003560e01c80637c67d747116100b85780638bb9c5bf1161007c5780638bb9c5bf14610270578063b3f05b9714610283578063dc890da914610297578063e396e78f146102aa578063ed211023146102bd578063f045a769146102dd57600080fd5b80637c67d7471461020c5780637e063c5a1461021f5780637e2cd24a146102425780638041494e14610255578063893d20e81461026857600080fd5b80634a14beb1116100ff5780634a14beb1146101ad5780634ad0da1c146101c05780635171ebd4146101d35780635d7ad88f146101e65780636be8496f146101f957600080fd5b8063103f6edd1461013c57806319d61ad91461015f5780631b6ea9f914610174578063262bc925146101875780633da9a6001461019a575b600080fd5b6101446102e5565b60405164ffffffffff90911681526020015b60405180910390f35b61017261016d3660046134b4565b610371565b005b6101726101823660046134b4565b610403565b6101726101953660046134ee565b610429565b6101726101a8366004613526565b6108b6565b6101726101bb366004613526565b610941565b6101726101ce36600461353f565b610b9e565b6101726101e13660046134b4565b6111f1565b6101726101f436600461357a565b611217565b61017261020736600461357a565b61134f565b61017261021a3660046134b4565b611401565b61023261022d3660046134b4565b61161c565b6040519015158152602001610156565b610172610250366004613597565b6116b7565b610172610263366004613526565b611afb565b610144611bb4565b61017261027e366004613526565b611bef565b60028054600160f01b900460ff1614610232565b6101726102a53660046135cc565b611c14565b6101726102b836600461361f565b611cf6565b6102c56122de565b6040516001600160a01b039091168152602001610156565b610172612364565b60405163e8c0cc1d60e01b81526002600482015260009073__$364aad554dc80380f414546becdd2c1584$__9063e8c0cc1d906024015b60206040518083038186803b15801561033457600080fd5b505af4158015610348573d6000803e3d6000fd5b505050506040513d601f19601f8201168201806040525081019061036c9190613665565b905090565b73__$364aad554dc80380f414546becdd2c1584$__6382daafaa600284846103976125a8565b6040516001600160e01b031960e087901b16815260048101949094526024840192909252604483015264ffffffffff16606482015260840160006040518083038186803b1580156103e757600080fd5b505af41580156103fb573d6000803e3d6000fd5b505050505050565b73__$364aad554dc80380f414546becdd2c1584$__636320d75e600284846103976125a8565b604051633b11adbf60e21b81526002600482015233602482015273__$364aad554dc80380f414546becdd2c1584$__9063ec46b6fc9060440160206040518083038186803b15801561047a57600080fd5b505af415801561048e573d6000803e3d6000fd5b505050506040513d601f19601f820116820180604052508101906104b29190613690565b6104d75760405162461bcd60e51b81526004016104ce906136ab565b60405180910390fd5b600160009054906101000a90046001600160a01b03166001600160a01b03166333fb96ee6040518163ffffffff1660e01b815260040160206040518083038186803b15801561052557600080fd5b505afa158015610539573d6000803e3d6000fd5b505050506040513d601f19601f8201168201806040525081019061055d91906136f1565b6001600160a01b031663d50c7377826040518263ffffffff1660e01b815260040161058a91815260200190565b60206040518083038186803b1580156105a257600080fd5b505afa1580156105b6573d6000803e3d6000fd5b505050506040513d601f19601f820116820180604052508101906105da9190613690565b6106135760405162461bcd60e51b815260206004820152600a6024820152693737ba1026a2a6a122a960b11b60448201526064016104ce565b600061062360e085901b82613724565b6000805460405163966ef88d60e01b8152600481018490526001600160a01b0387811660248301529394509192169063966ef88d9060440161014060405180830381600087803b15801561067657600080fd5b505af115801561068a573d6000803e3d6000fd5b505050506040513d601f19601f820116820180604052508101906106ae91906138e9565b602081015160005460015460405163dc890da960e01b8152600481018890523060248201526001600160a01b0392831660448201529082166064820152929350169063dc890da990608401600060405180830381600087803b15801561071357600080fd5b505af1158015610727573d6000803e3d6000fd5b50505050600160009054906101000a90046001600160a01b03166001600160a01b031663b613bb4c6040518163ffffffff1660e01b815260040160206040518083038186803b15801561077957600080fd5b505afa15801561078d573d6000803e3d6000fd5b505050506040513d601f19601f820116820180604052508101906107b191906136f1565b6001600160a01b031663024dd8c473__$17e76a6b4c1f440c6182332cb361c04433$__6349ab9de284600001516040518263ffffffff1660e01b81526004016107fa91906139cf565b60206040518083038186803b15801561081257600080fd5b505af4158015610826573d6000803e3d6000fd5b505050506040513d601f19601f8201168201806040525081019061084a9190613a98565b60208401516040516001600160e01b031960e085901b16815260048101929092526001600160a01b031660248201526044015b600060405180830381600087803b15801561089757600080fd5b505af11580156108ab573d6000803e3d6000fd5b505050505050505050565b73__$364aad554dc80380f414546becdd2c1584$__63c51b295f6002836108db6125a8565b6040516001600160e01b031960e086901b1681526004810193909352602483019190915264ffffffffff16604482015260640160006040518083038186803b15801561092657600080fd5b505af415801561093a573d6000803e3d6000fd5b5050505050565b604051633b11adbf60e21b81526002600482015233602482015273__$364aad554dc80380f414546becdd2c1584$__9063ec46b6fc9060440160206040518083038186803b15801561099257600080fd5b505af41580156109a6573d6000803e3d6000fd5b505050506040513d601f19601f820116820180604052508101906109ca9190613690565b80610a6f575073__$364aad554dc80380f414546becdd2c1584$__63fe27108660026109f46125a8565b6040516001600160e01b031960e085901b168152600481019290925264ffffffffff16602482015260440160206040518083038186803b158015610a3757600080fd5b505af4158015610a4b573d6000803e3d6000fd5b505050506040513d601f19601f82011682018060405250810190610a6f9190613690565b610ada5760405162461bcd60e51b815260206004820152603660248201527f41432e6f776e65724f72446972656374426f6f6b65657065723a206e6569746860448201527532b91037bbb732b9103737b9103137b7b5b2b2b832b960511b60648201526084016104ce565b73__$364aad554dc80380f414546becdd2c1584$__639b4510de600283610aff6125a8565b6040516001600160e01b031960e086901b1681526004810193909352602483019190915264ffffffffff16604482015260640160006040518083038186803b158015610b4a57600080fd5b505af4158015610b5e573d6000803e3d6000fd5b505050507ff2735f34b69be1e6342dea95f9162f84d0db925fab655ca9f1f312ac8cbfc99d81604051610b9391815260200190565b60405180910390a150565b604051633b11adbf60e21b81526002600482015233602482015273__$364aad554dc80380f414546becdd2c1584$__9063ec46b6fc9060440160206040518083038186803b158015610bef57600080fd5b505af4158015610c03573d6000803e3d6000fd5b505050506040513d601f19601f82011682018060405250810190610c279190613690565b610c435760405162461bcd60e51b81526004016104ce906136ab565b6040516308c5f91760e41b815260048101829052849082906001600160a01b03831690638c5f91709060240160206040518083038186803b158015610c8757600080fd5b505afa158015610c9b573d6000803e3d6000fd5b505050506040513d601f19601f82011682018060405250810190610cbf9190613690565b610cdb5760405162461bcd60e51b81526004016104ce90613ab1565b856001600160a01b031663b3f05b976040518163ffffffff1660e01b815260040160206040518083038186803b158015610d1457600080fd5b505afa158015610d28573d6000803e3d6000fd5b505050506040513d601f19601f82011682018060405250810190610d4c9190613690565b610d985760405162461bcd60e51b815260206004820152601c60248201527f424f484b2e435348413a20534841206e6f742066696e616c697a65640000000060448201526064016104ce565b856001600160a01b0316635b041ead6040518163ffffffff1660e01b8152600401600060405180830381600087803b158015610dd357600080fd5b505af1158015610de7573d6000803e3d6000fd5b505050506000866001600160a01b0316635041de826040518163ffffffff1660e01b815260040160206040518083038186803b158015610e2657600080fd5b505afa158015610e3a573d6000803e3d6000fd5b505050506040513d601f19601f82011682018060405250810190610e5e9190613adb565b90506000876001600160a01b0316638d6a31d46040518163ffffffff1660e01b815260040160206040518083038186803b158015610e9b57600080fd5b505afa158015610eaf573d6000803e3d6000fd5b505050506040513d601f19601f82011682018060405250810190610ed39190613adb565b90506000600160009054906101000a90046001600160a01b03166001600160a01b031663a61adc286040518163ffffffff1660e01b815260040160206040518083038186803b158015610f2557600080fd5b505afa158015610f39573d6000803e3d6000fd5b505050506040513d601f19601f82011682018060405250810190610f5d91906136f1565b604051634846203760e01b8152600860048201526001600160a01b03919091169063484620379060240160206040518083038186803b158015610f9f57600080fd5b505afa158015610fb3573d6000803e3d6000fd5b505050506040513d601f19601f82011682018060405250810190610fd79190613a98565b60405163d1296c8f60e01b8152600481019190915273__$9d2c69e94fee47b9774dc8db4aa5c0bbec$__9063d1296c8f906024016102206040518083038186803b15801561102457600080fd5b505af4158015611038573d6000803e3d6000fd5b505050506040513d601f19601f8201168201806040525081019061105c9190613b6c565b9050886001600160a01b031663094f0cfc600083610160015160ff1684610140015160ff168761108c9190613ca1565b6110969190613ca1565b6040516001600160e01b031960e085901b168152911515600483015261ffff908116602483015285166044820152606401600060405180830381600087803b1580156110e157600080fd5b505af11580156110f5573d6000803e3d6000fd5b50505050600160009054906101000a90046001600160a01b03166001600160a01b031663b613bb4c6040518163ffffffff1660e01b815260040160206040518083038186803b15801561114757600080fd5b505afa15801561115b573d6000803e3d6000fd5b505050506040513d601f19601f8201168201806040525081019061117f91906136f1565b6001600160a01b031663f253a81e8a8585858d8d6040518763ffffffff1660e01b81526004016111b496959493929190613cf1565b600060405180830381600087803b1580156111ce57600080fd5b505af11580156111e2573d6000803e3d6000fd5b50505050505050505050505050565b73__$364aad554dc80380f414546becdd2c1584$__63ee98b313600284846103976125a8565b604051633b11adbf60e21b81526002600482015233602482015273__$364aad554dc80380f414546becdd2c1584$__9063ec46b6fc9060440160206040518083038186803b15801561126857600080fd5b505af415801561127c573d6000803e3d6000fd5b505050506040513d601f19601f820116820180604052508101906112a09190613690565b6112bc5760405162461bcd60e51b81526004016104ce906136ab565b604051636be8496f60e01b81523360048201526001600160a01b03821690636be8496f90602401600060405180830381600087803b1580156112fd57600080fd5b505af1158015611311573d6000803e3d6000fd5b50506040516001600160a01b03841681527f64dd6e84044f0067086012335dcfab3188db6615b5cc7debf18c9a621ebd5d9192506020019050610b93565b604051630f07232560e01b8152600260048201526001600160a01b038216602482015233604482015273__$364aad554dc80380f414546becdd2c1584$__90630f0723259060640160006040518083038186803b1580156113af57600080fd5b505af41580156113c3573d6000803e3d6000fd5b50506040516001600160a01b03841681527fe435cbeab64e4eae6497b9d8289704bd709d624a80704ef3ca9af777534bc6ec92506020019050610b93565b604051633b11adbf60e21b81526002600482015233602482015273__$364aad554dc80380f414546becdd2c1584$__9063ec46b6fc9060440160206040518083038186803b15801561145257600080fd5b505af4158015611466573d6000803e3d6000fd5b505050506040513d601f19601f8201168201806040525081019061148a9190613690565b6114a65760405162461bcd60e51b81526004016104ce906136ab565b600154604080516314c35b8560e31b815290516000926001600160a01b03169163a61adc28916004808301926020929190829003018186803b1580156114eb57600080fd5b505afa1580156114ff573d6000803e3d6000fd5b505050506040513d601f19601f8201168201806040525081019061152391906136f1565b6040516350a31ef960e01b81526000600482018190526024820152604481018490529091506001600160a01b038216906350a31ef990606401600060405180830381600087803b15801561157657600080fd5b505af115801561158a573d6000803e3d6000fd5b5050604051630cac562d60e11b81526000600482015260248101859052604481018690526001600160a01b0384169250631958ac5a9150606401602060405180830381600087803b1580156115de57600080fd5b505af11580156115f2573d6000803e3d6000fd5b505050506040513d601f19601f820116820180604052508101906116169190613690565b50505050565b604051632a3be56b60e21b815260026004820152602481018390526044810182905260009073__$364aad554dc80380f414546becdd2c1584$__9063a8ef95ac9060640160206040518083038186803b15801561167857600080fd5b505af415801561168c573d6000803e3d6000fd5b505050506040513d601f19601f820116820180604052508101906116b09190613690565b9392505050565b604051633b11adbf60e21b81526002600482015233602482015273__$364aad554dc80380f414546becdd2c1584$__9063ec46b6fc9060440160206040518083038186803b15801561170857600080fd5b505af415801561171c573d6000803e3d6000fd5b505050506040513d601f19601f820116820180604052508101906117409190613690565b61175c5760405162461bcd60e51b81526004016104ce906136ab565b6040516308c5f91760e41b815260048101829052839082906001600160a01b03831690638c5f91709060240160206040518083038186803b1580156117a057600080fd5b505afa1580156117b4573d6000803e3d6000fd5b505050506040513d601f19601f820116820180604052508101906117d89190613690565b6117f45760405162461bcd60e51b81526004016104ce90613ab1565b60015460408051632d84eed360e21b815290516002926001600160a01b03169163b613bb4c916004808301926020929190829003018186803b15801561183957600080fd5b505afa15801561184d573d6000803e3d6000fd5b505050506040513d601f19601f8201168201806040525081019061187191906136f1565b6040516337066e9d60e11b81526001600160a01b0388811660048301529190911690636e0cdd3a9060240160c06040518083038186803b1580156118b457600080fd5b505afa1580156118c8573d6000803e3d6000fd5b505050506040513d601f19601f820116820180604052508101906118ec9190613e59565b60a0015160ff16146119405760405162461bcd60e51b815260206004820152601b60248201527f534841206e6f7420696e2043697263756c61746564205374617465000000000060448201526064016104ce565b604051630cac562d60e11b81526001600482015260248101849052604481018590526001600160a01b03861690631958ac5a90606401602060405180830381600087803b15801561199057600080fd5b505af11580156119a4573d6000803e3d6000fd5b505050506040513d601f19601f820116820180604052508101906119c89190613690565b8015611a405750846001600160a01b0316634844f5416040518163ffffffff1660e01b815260040160206040518083038186803b158015611a0857600080fd5b505afa158015611a1c573d6000803e3d6000fd5b505050506040513d601f19601f82011682018060405250810190611a409190613690565b1561093a57600160009054906101000a90046001600160a01b03166001600160a01b031663b613bb4c6040518163ffffffff1660e01b815260040160206040518083038186803b158015611a9357600080fd5b505afa158015611aa7573d6000803e3d6000fd5b505050506040513d601f19601f82011682018060405250810190611acb91906136f1565b6040516358aa905560e01b81526001600160a01b03878116600483015291909116906358aa90559060240161087d565b73__$364aad554dc80380f414546becdd2c1584$__639b48160c600283611b206125a8565b6040516001600160e01b031960e086901b1681526004810193909352602483019190915264ffffffffff16604482015260640160006040518083038186803b158015611b6b57600080fd5b505af4158015611b7f573d6000803e3d6000fd5b505050507f8b6f40f36b4ae8cc5f55e895036457c43da4ab1f80f58c46f5ff0d72a650033b81604051610b9391815260200190565b60405163987ad15360e01b81526002600482015260009073__$364aad554dc80380f414546becdd2c1584$__9063987ad1539060240161031c565b73__$364aad554dc80380f414546becdd2c1584$__63cc0d511b6002836108db6125a8565b604051636cdd0edf60e11b815260026004820152602481018590526001600160a01b038416604482015273__$364aad554dc80380f414546becdd2c1584$__9063d9ba1dbe9060640160006040518083038186803b158015611c7557600080fd5b505af4158015611c89573d6000803e3d6000fd5b50505050611c9682612602565b611c9f81612675565b604080518581526001600160a01b038581166020830152848116828401528316606082015290517f3abb2418c66fe32ba9c883030a75ce583971d9af9192b9b74e44e67c5e6c8c1f9181900360800190a150505050565b604051633b11adbf60e21b81526002600482015233602482015273__$364aad554dc80380f414546becdd2c1584$__9063ec46b6fc9060440160206040518083038186803b158015611d4757600080fd5b505af4158015611d5b573d6000803e3d6000fd5b505050506040513d601f19601f82011682018060405250810190611d7f9190613690565b611d9b5760405162461bcd60e51b81526004016104ce906136ab565b6040516308c5f91760e41b815260048101829052829082906001600160a01b03831690638c5f91709060240160206040518083038186803b158015611ddf57600080fd5b505afa158015611df3573d6000803e3d6000fd5b505050506040513d601f19601f82011682018060405250810190611e179190613690565b611e335760405162461bcd60e51b81526004016104ce90613ab1565b60015460408051632d84eed360e21b815290516000926001600160a01b03169163b613bb4c916004808301926020929190829003018186803b158015611e7857600080fd5b505afa158015611e8c573d6000803e3d6000fd5b505050506040513d601f19601f82011682018060405250810190611eb091906136f1565b604051639a52316360e01b81526001600160a01b03878116600483015291925090821690639a52316390602401600060405180830381600087803b158015611ef757600080fd5b505af1158015611f0b573d6000803e3d6000fd5b5050604051639f4d332f60e01b81526001600160a01b03888116600483015284169250639f4d332f9150602401600060405180830381600087803b158015611f5257600080fd5b505af1158015611f66573d6000803e3d6000fd5b5050604051634846203760e01b815260006004820181905292506001600160a01b038816915063484620379060240160206040518083038186803b158015611fad57600080fd5b505afa158015611fc1573d6000803e3d6000fd5b505050506040513d601f19601f82011682018060405250810190611fe59190613a98565b60405163611ebb8b60e01b8152600481019190915273__$9d2c69e94fee47b9774dc8db4aa5c0bbec$__9063611ebb8b906024016101406040518083038186803b15801561203257600080fd5b505af4158015612046573d6000803e3d6000fd5b505050506040513d601f19601f8201168201806040525081019061206a9190613ef7565b90506000600160009054906101000a90046001600160a01b03166001600160a01b03166333fb96ee6040518163ffffffff1660e01b815260040160206040518083038186803b1580156120bc57600080fd5b505afa1580156120d0573d6000803e3d6000fd5b505050506040513d601f19601f820116820180604052508101906120f491906136f1565b6060830151604051636d3521eb60e11b815290151560048201529091506001600160a01b0382169063da6a43d690602401600060405180830381600087803b15801561213f57600080fd5b505af1158015612153573d6000803e3d6000fd5b505050506060820151604051635ee1b7b160e11b815290151560048201526001600160a01b0382169063bdc36f6290602401600060405180830381600087803b15801561219f57600080fd5b505af11580156121b3573d6000803e3d6000fd5b5050604051637176544960e01b8152601960048201526001600160a01b038a1692506371765449915060240160206040518083038186803b1580156121f757600080fd5b505afa15801561220b573d6000803e3d6000fd5b505050506040513d601f19601f8201168201806040525081019061222f9190613690565b1561223d5761223d876126f0565b604051637176544960e01b8152601a60048201526001600160a01b0388169063717654499060240160206040518083038186803b15801561227d57600080fd5b505afa158015612291573d6000803e3d6000fd5b505050506040513d601f19601f820116820180604052508101906122b59190613690565b156122c3576122c387612a25565b6122cc87612b81565b6122d587613038565b50505050505050565b604051633c3e56c160e11b81526002600482015260009073__$364aad554dc80380f414546becdd2c1584$__9063787cad829060240160206040518083038186803b15801561232c57600080fd5b505af4158015612340573d6000803e3d6000fd5b505050506040513d601f19601f8201168201806040525081019061036c91906136f1565b600254600160f01b900460ff166001146123c05760405162461bcd60e51b815260206004820152601760248201527f41432e4c433a20446f632069732066696e616c697a656400000000000000000060448201526064016104ce565b73__$364aad554dc80380f414546becdd2c1584$__63c51b295f6002684174746f726e65797360b81b6123f16125a8565b6040516001600160e01b031960e086901b1681526004810193909352602483019190915264ffffffffff16604482015260640160006040518083038186803b15801561243c57600080fd5b505af4158015612450573d6000803e3d6000fd5b50505050600273__$364aad554dc80380f414546becdd2c1584$__639b4510de9091600061247c6125a8565b6040516001600160e01b031960e086901b1681526004810193909352602483019190915264ffffffffff16604482015260640160006040518083038186803b1580156124c757600080fd5b505af41580156124db573d6000803e3d6000fd5b50505050600273__$364aad554dc80380f414546becdd2c1584$__639b48160c909160006125076125a8565b6040516001600160e01b031960e086901b1681526004810193909352602483019190915264ffffffffff16604482015260640160006040518083038186803b15801561255257600080fd5b505af4158015612566573d6000803e3d6000fd5b50506002805460ff60f01b1916600160f11b17905550506040517f35012b512309c322acf68632cd6cb702ff0e1d776fbe9394e38ffc13b434fe7590600090a1565b60008054604051636ae3b70d60e11b81523360048201526001600160a01b039091169063d5c76e1a90602401602060405180830381600087803b1580156125ee57600080fd5b505af1158015610348573d6000803e3d6000fd5b6000546001600160a01b0316156126535760405162461bcd60e51b815260206004820152601560248201527430b63932b0b23c9039b2ba103932b3a1b2b73a32b960591b60448201526064016104ce565b600080546001600160a01b0319166001600160a01b0392909216919091179055565b6001546001600160a01b0316156126ce5760405162461bcd60e51b815260206004820152601960248201527f616c7265616479207365742067656e6572616c4b65657065720000000000000060448201526064016104ce565b600180546001600160a01b0319166001600160a01b0392909216919091179055565b60405163346ba94160e01b8152601a60048201526000906001600160a01b0383169063346ba9419060240160206040518083038186803b15801561273357600080fd5b505afa158015612747573d6000803e3d6000fd5b505050506040513d601f19601f8201168201806040525081019061276b91906136f1565b6001600160a01b031663e95502fb6040518163ffffffff1660e01b815260040160006040518083038186803b1580156127a357600080fd5b505afa1580156127b7573d6000803e3d6000fd5b505050506040513d6000823e601f3d908101601f191682016040526127df9190810190613fb4565b80519091505b8015612a20576001546040805163f01e100f60e01b815290516000926001600160a01b03169163f01e100f916004808301926020929190829003018186803b15801561283057600080fd5b505afa158015612844573d6000803e3d6000fd5b505050506040513d601f19601f8201168201806040525081019061286891906136f1565b6001600160a01b031663cfb5a5f884612882600186614059565b8151811061289257612892614070565b60200260200101516040518263ffffffff1660e01b81526004016128b891815260200190565b6101e06040518083038186803b1580156128d157600080fd5b505afa1580156128e5573d6000803e3d6000fd5b505050506040513d601f19601f820116820180604052508101906129099190614108565b9050600160009054906101000a90046001600160a01b03166001600160a01b031663f01e100f6040518163ffffffff1660e01b815260040160206040518083038186803b15801561295957600080fd5b505afa15801561296d573d6000803e3d6000fd5b505050506040513d601f19601f8201168201806040525081019061299191906136f1565b81515160208084015101516040516360d095df60e01b815263ffffffff90921660048301526001600160401b031660248201526001600160a01b0391909116906360d095df90604401600060405180830381600087803b1580156129f457600080fd5b505af1158015612a08573d6000803e3d6000fd5b505050508180612a17906141e1565b925050506127e5565b505050565b60405163346ba94160e01b8152601a60048201526000906001600160a01b0383169063346ba9419060240160206040518083038186803b158015612a6857600080fd5b505afa158015612a7c573d6000803e3d6000fd5b505050506040513d601f19601f82011682018060405250810190612aa091906136f1565b9050600160009054906101000a90046001600160a01b03166001600160a01b031663b38dc8116040518163ffffffff1660e01b815260040160206040518083038186803b158015612af057600080fd5b505afa158015612b04573d6000803e3d6000fd5b505050506040513d601f19601f82011682018060405250810190612b2891906136f1565b604051636ca5cc5d60e01b81526001600160a01b0383811660048301529190911690636ca5cc5d90602401600060405180830381600087803b158015612b6d57600080fd5b505af11580156103fb573d6000803e3d6000fd5b604051634846203760e01b815261010060048201526000906001600160a01b0383169063484620379060240160206040518083038186803b158015612bc557600080fd5b505afa158015612bd9573d6000803e3d6000fd5b505050506040513d601f19601f82011682018060405250810190612bfd9190613a98565b604051637d57821b60e11b8152600481019190915273__$9d2c69e94fee47b9774dc8db4aa5c0bbec$__9063faaf0436906024016101606040518083038186803b158015612c4a57600080fd5b505af4158015612c5e573d6000803e3d6000fd5b505050506040513d601f19601f82011682018060405250810190612c8291906141f8565b6020015160ff169050600080600160009054906101000a90046001600160a01b03166001600160a01b0316639262826d6040518163ffffffff1660e01b815260040160206040518083038186803b158015612cdc57600080fd5b505afa158015612cf0573d6000803e3d6000fd5b505050506040513d601f19601f82011682018060405250810190612d1491906136f1565b90505b828210156116165760006001600160a01b0385166348462037612d3c85610100613724565b6040518263ffffffff1660e01b8152600401612d5a91815260200190565b60206040518083038186803b158015612d7257600080fd5b505afa158015612d86573d6000803e3d6000fd5b505050506040513d601f19601f82011682018060405250810190612daa9190613a98565b604051637d57821b60e11b8152600481019190915273__$9d2c69e94fee47b9774dc8db4aa5c0bbec$__9063faaf0436906024016101606040518083038186803b158015612df757600080fd5b505af4158015612e0b573d6000803e3d6000fd5b505050506040513d601f19601f82011682018060405250810190612e2f91906141f8565b9050806060015115612ea35760808101516040516360233a1160e11b815261ffff90911660048201526001600160a01b0383169063c046742290602401600060405180830381600087803b158015612e8657600080fd5b505af1158015612e9a573d6000803e3d6000fd5b50505050613025565b608081015160405163eb02c30160e01b815261ffff90911660048201526000906001600160a01b0384169063eb02c301906024016101206040518083038186803b158015612ef057600080fd5b505afa158015612f04573d6000803e3d6000fd5b505050506040513d601f19601f82011682018060405250810190612f2891906142c7565b90506040518061012001604052808360a0015161ffff168152602001836080015161ffff168152602001826040015164ffffffffff1681526020018360c0015164ffffffffff168152602001826080015165ffffffffffff16815260200183610100015165ffffffffffff1681526020018360e0015161ffff16815260200183610120015161ffff16815260200183610140015161ffff168152509050826001600160a01b0316632700b4cc826040518263ffffffff1660e01b8152600401612ff19190614372565b600060405180830381600087803b15801561300b57600080fd5b505af115801561301f573d6000803e3d6000fd5b50505050505b8261302f81614438565b93505050612d17565b604051634846203760e01b815261030060048201526000906001600160a01b0383169063484620379060240160206040518083038186803b15801561307c57600080fd5b505afa158015613090573d6000803e3d6000fd5b505050506040513d601f19601f820116820180604052508101906130b49190613a98565b60405163500d49cb60e11b8152600481019190915273__$9d2c69e94fee47b9774dc8db4aa5c0bbec$__9063a01a9396906024016101206040518083038186803b15801561310157600080fd5b505af4158015613115573d6000803e3d6000fd5b505050506040513d601f19601f820116820180604052508101906131399190614453565b6020015160ff169050600080600160009054906101000a90046001600160a01b03166001600160a01b03166333fb96ee6040518163ffffffff1660e01b815260040160206040518083038186803b15801561319357600080fd5b505afa1580156131a7573d6000803e3d6000fd5b505050506040513d601f19601f820116820180604052508101906131cb91906136f1565b90505b828210156116165760006001600160a01b03851663484620376131f385610300613724565b6040518263ffffffff1660e01b815260040161321191815260200190565b60206040518083038186803b15801561322957600080fd5b505afa15801561323d573d6000803e3d6000fd5b505050506040513d601f19601f820116820180604052508101906132619190613a98565b60405163500d49cb60e11b8152600481019190915273__$9d2c69e94fee47b9774dc8db4aa5c0bbec$__9063a01a9396906024016101206040518083038186803b1580156132ae57600080fd5b505af41580156132c2573d6000803e3d6000fd5b505050506040513d601f19601f820116820180604052508101906132e69190614453565b905060008160600151156133cd575b60048110156133c85760008260a00151826004811061331657613316614070565b602002015164ffffffffff1611156133b657826001600160a01b031663eca9cb1d8360a00151836004811061334d5761334d614070565b602002015160808501516040516001600160e01b031960e085901b16815264ffffffffff928316600482015291166024820152604401600060405180830381600087803b15801561339d57600080fd5b505af11580156133b1573d6000803e3d6000fd5b505050505b806133c081614438565b9150506132f5565b6134a0565b60048110156134a05760008260a0015182600481106133ee576133ee614070565b602002015164ffffffffff16111561348e57826001600160a01b031663dd8a18e98360a00151836004811061342557613425614070565b602002015160808501516040516001600160e01b031960e085901b16815264ffffffffff928316600482015291166024820152604401600060405180830381600087803b15801561347557600080fd5b505af1158015613489573d6000803e3d6000fd5b505050505b8061349881614438565b9150506133cd565b836134aa81614438565b94505050506131ce565b600080604083850312156134c757600080fd5b50508035926020909101359150565b6001600160a01b03811681146134eb57600080fd5b50565b60008060006060848603121561350357600080fd5b833592506020840135613515816134d6565b929592945050506040919091013590565b60006020828403121561353857600080fd5b5035919050565b6000806000806080858703121561355557600080fd5b8435613560816134d6565b966020860135965060408601359560600135945092505050565b60006020828403121561358c57600080fd5b81356116b0816134d6565b6000806000606084860312156135ac57600080fd5b83356135b7816134d6565b95602085013595506040909401359392505050565b600080600080608085870312156135e257600080fd5b8435935060208501356135f4816134d6565b92506040850135613604816134d6565b91506060850135613614816134d6565b939692955090935050565b6000806040838503121561363257600080fd5b823561363d816134d6565b946020939093013593505050565b805164ffffffffff8116811461366057600080fd5b919050565b60006020828403121561367757600080fd5b6116b08261364b565b8051801515811461366057600080fd5b6000602082840312156136a257600080fd5b6116b082613680565b60208082526026908201527f41432e6f6e6c794469726563744b65657065723a206e6f74206469726563742060408201526535b2b2b832b960d11b606082015260800190565b60006020828403121561370357600080fd5b81516116b0816134d6565b634e487b7160e01b600052601160045260246000fd5b600082198211156137375761373761370e565b500190565b634e487b7160e01b600052604160045260246000fd5b604080519081016001600160401b03811182821017156137745761377461373c565b60405290565b60405161012081016001600160401b03811182821017156137745761377461373c565b60405161020081016001600160401b03811182821017156137745761377461373c565b60405161014081016001600160401b03811182821017156137745761377461373c565b60405160c081016001600160401b03811182821017156137745761377461373c565b60405161016081016001600160401b03811182821017156137745761377461373c565b604051608081016001600160401b03811182821017156137745761377461373c565b604051601f8201601f191681016001600160401b03811182821017156138725761387261373c565b604052919050565b805161ffff8116811461366057600080fd5b80516001600160401b038116811461366057600080fd5b805165ffffffffffff8116811461366057600080fd5b805163ffffffff8116811461366057600080fd5b805160ff8116811461366057600080fd5b8051613660816134d6565b60008183036101408112156138fd57600080fd5b613905613752565b6101208083121561391557600080fd5b61391d61377a565b92506139288561387a565b83526139366020860161387a565b60208401526139476040860161388c565b60408401526139586060860161364b565b6060840152613969608086016138a3565b608084015261397a60a0860161387a565b60a084015261398b60c0860161387a565b60c084015261399c60e086016138b9565b60e08401526101006139af8187016138cd565b908401528282526139c18582016138de565b602083015250949350505050565b60006101208201905061ffff808451168352806020850151166020840152506040830151613a0860408401826001600160401b03169052565b506060830151613a21606084018264ffffffffff169052565b506080830151613a3b608084018265ffffffffffff169052565b5060a0830151613a5160a084018261ffff169052565b5060c0830151613a6760c084018261ffff169052565b5060e0830151613a7f60e084018263ffffffff169052565b506101008381015160ff8116848301525b505092915050565b600060208284031215613aaa57600080fd5b5051919050565b60208082526010908201526f4e4f54205061727479206f6620446f6360801b604082015260600190565b600060208284031215613aed57600080fd5b6116b08261387a565b600082601f830112613b0757600080fd5b604051604081018181106001600160401b0382111715613b2957613b2961373c565b8060405250806040840185811115613b4057600080fd5b845b81811015613b6157613b538161364b565b835260209283019201613b42565b509195945050505050565b60006102208284031215613b7f57600080fd5b613b8761379d565b613b908361387a565b8152613b9e602084016138cd565b6020820152613baf604084016138cd565b6040820152613bc06060840161387a565b6060820152613bd16080840161387a565b6080820152613be260a0840161387a565b60a0820152613bf360c08401613680565b60c0820152613c0460e08401613680565b60e0820152610100613c17818501613680565b90820152610120613c29848201613680565b90820152610140613c3b8482016138cd565b90820152610160613c4d8482016138cd565b90820152610180613c5f8482016138cd565b908201526101a0613c718482016138cd565b908201526101c0613c838482016138cd565b908201526101e0613c9685858301613af6565b908201529392505050565b600061ffff808316818516808303821115613cbe57613cbe61370e565b01949350505050565b8060005b600281101561161657815164ffffffffff16845260209384019390910190600101613ccb565b6001600160a01b038716815261ffff8681166020830152858116604083015284511660608201526102c08101602085015160ff8116608084015250604085015160ff811660a084015250606085015161ffff811660c084015250608085015161ffff811660e08401525060a0850151610100613d728185018361ffff169052565b60c08701519150610120613d898186018415159052565b60e08801519250610140613da08187018515159052565b91880151925061016091613db78684018515159052565b90880151925061018090613dce8683018515159052565b88015192506101a0613de48682018560ff169052565b9188015192506101c091613dfc8684018560ff169052565b9088015192506101e090613e148683018560ff169052565b88015160ff908116610200870152918801519091166102208501528601519050613e42610240840182613cc7565b506102808201939093526102a00152949350505050565b600060c08284031215613e6b57600080fd5b60405160c081018181106001600160401b0382111715613e8d57613e8d61373c565b604052613e99836138a3565b8152613ea7602084016138a3565b6020820152613eb8604084016138a3565b6040820152613ec9606084016138a3565b6060820152613eda608084016138a3565b6080820152613eeb60a084016138cd565b60a08201529392505050565b60006101408284031215613f0a57600080fd5b613f126137c0565b613f1b8361387a565b8152613f29602084016138cd565b6020820152613f3a604084016138cd565b6040820152613f4b60608401613680565b6060820152613f5c6080840161387a565b6080820152613f6d60a0840161387a565b60a0820152613f7e60c0840161387a565b60c0820152613f8f60e0840161387a565b60e0820152610100613fa281850161387a565b90820152610120613c9684820161387a565b60006020808385031215613fc757600080fd5b82516001600160401b0380821115613fde57600080fd5b818501915085601f830112613ff257600080fd5b8151818111156140045761400461373c565b8060051b915061401584830161384a565b818152918301840191848101908884111561402f57600080fd5b938501935b8385101561404d57845182529385019390850190614034565b98975050505050505050565b60008282101561406b5761406b61370e565b500390565b634e487b7160e01b600052603260045260246000fd5b600060c0828403121561409857600080fd5b6140a06137e3565b90506140ab826138a3565b81526140b96020830161388c565b60208201526140ca6040830161388c565b60408201526140db6060830161388c565b60608201526140ec608083016138cd565b60808201526140fd60a083016138cd565b60a082015292915050565b60008183036101e081121561411c57600080fd5b614124613752565b6101208083121561413457600080fd5b61413c61377a565b9250614147856138b9565b8352614155602086016138b9565b60208401526141666040860161387a565b6040840152614177606086016138a3565b60608401526141886080860161364b565b608084015261419960a086016138b9565b60a08401526141aa60c086016138b9565b60c08401526141bb60e0860161387a565b60e08401526101006141ce8187016138cd565b908401528282526139c186868301614086565b6000816141f0576141f061370e565b506000190190565b6000610160828403121561420b57600080fd5b614213613805565b61421c8361387a565b815261422a602084016138cd565b602082015261423b604084016138cd565b604082015261424c60608401613680565b606082015261425d6080840161387a565b608082015261426e60a0840161387a565b60a082015261427f60c0840161364b565b60c082015261429060e0840161387a565b60e08201526101006142a38185016138a3565b908201526101206142b584820161387a565b90820152610140613c9684820161387a565b600061012082840312156142da57600080fd5b6142e261377a565b6142eb8361387a565b81526142f96020840161387a565b602082015261430a6040840161364b565b604082015261431b6060840161364b565b606082015261432c608084016138a3565b608082015261433d60a084016138a3565b60a082015261434e60c0840161387a565b60c082015261435f60e0840161387a565b60e0820152610100613c9681850161387a565b60006101208201905061ffff8084511683528060208501511660208401525060408301516143a9604084018264ffffffffff169052565b5060608301516143c2606084018264ffffffffff169052565b5060808301516143dc608084018265ffffffffffff169052565b5060a08301516143f660a084018265ffffffffffff169052565b5060c083015161440c60c084018261ffff169052565b5060e083015161442260e084018261ffff169052565b506101008381015161ffff811684830152613a90565b600060001982141561444c5761444c61370e565b5060010190565b600061012080838503121561446757600080fd5b61446f6137e3565b6144788461387a565b815260206144878186016138cd565b81830152614497604086016138cd565b60408301526144a860608601613680565b60608301526144b96080860161364b565b60808301528560bf8601126144cd57600080fd5b6144d5613828565b9285019280878511156144e757600080fd5b60a087015b8581101561450a576144fd8161364b565b83529183019183016144ec565b5060a084015250909594505050505056fea264697066735822122091127121e2e97432d8a768fdbf6b16fa785b15830bb05d468eaf349116a4694164736f6c63430008080033",
    "sourcePath": "/Users/kaptain/github.com/hardhat/comboox/contracts/keepers/BOHKeeper.sol",
    "compiler": {
        "name": "solc",
        "version": "0.8.8+commit.dddeac2f"
    },
    "functionHashes": {
        "abandonRole(bytes32)": "3da9a600",
        "acceptSHA(bytes32,uint256)": "7c67d747",
        "circulateSHA(address,bytes32,bytes32,uint256)": "4ad0da1c",
        "createSHA(uint256,address,uint256)": "262bc925",
        "effectiveSHA(address,uint256)": "e396e78f",
        "finalized()": "b3f05b97",
        "getBookeeper()": "ed211023",
        "getGeneralCounsel()": "103f6edd",
        "getOwner()": "893d20e8",
        "grantRole(bytes32,uint256)": "1b6ea9f9",
        "hasRole(bytes32,uint256)": "7e063c5a",
        "init(uint256,address,address,address)": "dc890da9",
        "lockContents()": "f045a769",
        "removeDirectKeeper(address)": "5d7ad88f",
        "renounceRole(bytes32)": "8bb9c5bf",
        "revokeRole(bytes32,uint256)": "19d61ad9",
        "setDirectKeeper(address)": "6be8496f",
        "setGeneralCounsel(uint256)": "4a14beb1",
        "setOwner(uint256)": "8041494e",
        "setRoleAdmin(bytes32,uint256)": "5171ebd4",
        "signSHA(address,bytes32,uint256)": "7e2cd24a"
    },
    "gasEstimates": {
        "creation": {
            "codeDepositCost": "3549000",
            "executionCost": "3982",
            "totalCost": "3552982"
        },
        "external": {
            "abandonRole(bytes32)": "infinite",
            "acceptSHA(bytes32,uint256)": "infinite",
            "circulateSHA(address,bytes32,bytes32,uint256)": "infinite",
            "createSHA(uint256,address,uint256)": "infinite",
            "effectiveSHA(address,uint256)": "infinite",
            "finalized()": "2371",
            "getBookeeper()": "infinite",
            "getGeneralCounsel()": "infinite",
            "getOwner()": "infinite",
            "grantRole(bytes32,uint256)": "infinite",
            "hasRole(bytes32,uint256)": "infinite",
            "init(uint256,address,address,address)": "infinite",
            "lockContents()": "infinite",
            "removeDirectKeeper(address)": "infinite",
            "renounceRole(bytes32)": "infinite",
            "revokeRole(bytes32,uint256)": "infinite",
            "setDirectKeeper(address)": "infinite",
            "setGeneralCounsel(uint256)": "infinite",
            "setOwner(uint256)": "infinite",
            "setRoleAdmin(bytes32,uint256)": "infinite",
            "signSHA(address,bytes32,uint256)": "infinite"
        },
        "internal": {
            "_lockUpShares(address)": "infinite",
            "_regOptionTerms(address)": "infinite",
            "_updateGrouping(address)": "infinite",
            "_updatePositionSetting(address)": "infinite"
        }
    }
}