{
    "contractName": "BOHKeeper",
    "abi": [
        {
            "anonymous": false,
            "inputs": [
                {
                    "indexed": false,
                    "internalType": "uint256",
                    "name": "owner",
                    "type": "uint256"
                },
                {
                    "indexed": false,
                    "internalType": "address",
                    "name": "directKeeper",
                    "type": "address"
                },
                {
                    "indexed": false,
                    "internalType": "address",
                    "name": "regCenter",
                    "type": "address"
                },
                {
                    "indexed": false,
                    "internalType": "address",
                    "name": "generalKeeper",
                    "type": "address"
                }
            ],
            "name": "Init",
            "type": "event"
        },
        {
            "anonymous": false,
            "inputs": [],
            "name": "LockContents",
            "type": "event"
        },
        {
            "anonymous": false,
            "inputs": [
                {
                    "indexed": false,
                    "internalType": "uint256",
                    "name": "title",
                    "type": "uint256"
                },
                {
                    "indexed": false,
                    "internalType": "address",
                    "name": "book",
                    "type": "address"
                }
            ],
            "name": "SetBookRuting",
            "type": "event"
        },
        {
            "anonymous": false,
            "inputs": [
                {
                    "indexed": false,
                    "internalType": "address",
                    "name": "keeper",
                    "type": "address"
                }
            ],
            "name": "SetDirectKeeper",
            "type": "event"
        },
        {
            "anonymous": false,
            "inputs": [
                {
                    "indexed": false,
                    "internalType": "uint256",
                    "name": "acct",
                    "type": "uint256"
                }
            ],
            "name": "SetGeneralCounsel",
            "type": "event"
        },
        {
            "anonymous": false,
            "inputs": [
                {
                    "indexed": false,
                    "internalType": "address",
                    "name": "gk",
                    "type": "address"
                }
            ],
            "name": "SetGeneralKeeper",
            "type": "event"
        },
        {
            "anonymous": false,
            "inputs": [
                {
                    "indexed": false,
                    "internalType": "uint256",
                    "name": "acct",
                    "type": "uint256"
                }
            ],
            "name": "SetOwner",
            "type": "event"
        },
        {
            "anonymous": false,
            "inputs": [
                {
                    "indexed": false,
                    "internalType": "address",
                    "name": "rc",
                    "type": "address"
                }
            ],
            "name": "SetRegCenter",
            "type": "event"
        },
        {
            "inputs": [
                {
                    "internalType": "bytes32",
                    "name": "role",
                    "type": "bytes32"
                }
            ],
            "name": "abandonRole",
            "outputs": [],
            "stateMutability": "nonpayable",
            "type": "function"
        },
        {
            "inputs": [
                {
                    "internalType": "bytes32",
                    "name": "sigHash",
                    "type": "bytes32"
                },
                {
                    "internalType": "uint256",
                    "name": "caller",
                    "type": "uint256"
                }
            ],
            "name": "acceptSHA",
            "outputs": [],
            "stateMutability": "nonpayable",
            "type": "function"
        },
        {
            "inputs": [
                {
                    "internalType": "address",
                    "name": "sha",
                    "type": "address"
                },
                {
                    "internalType": "uint256",
                    "name": "seqOfRule",
                    "type": "uint256"
                },
                {
                    "internalType": "bytes32",
                    "name": "docUrl",
                    "type": "bytes32"
                },
                {
                    "internalType": "bytes32",
                    "name": "docHash",
                    "type": "bytes32"
                },
                {
                    "internalType": "uint256",
                    "name": "caller",
                    "type": "uint256"
                }
            ],
            "name": "circulateSHA",
            "outputs": [],
            "stateMutability": "nonpayable",
            "type": "function"
        },
        {
            "inputs": [
                {
                    "internalType": "uint16",
                    "name": "version",
                    "type": "uint16"
                },
                {
                    "internalType": "uint40",
                    "name": "caller",
                    "type": "uint40"
                }
            ],
            "name": "createSHA",
            "outputs": [],
            "stateMutability": "nonpayable",
            "type": "function"
        },
        {
            "inputs": [
                {
                    "internalType": "address",
                    "name": "sha",
                    "type": "address"
                },
                {
                    "internalType": "uint256",
                    "name": "caller",
                    "type": "uint256"
                }
            ],
            "name": "effectiveSHA",
            "outputs": [],
            "stateMutability": "nonpayable",
            "type": "function"
        },
        {
            "inputs": [],
            "name": "finalized",
            "outputs": [
                {
                    "internalType": "bool",
                    "name": "",
                    "type": "bool"
                }
            ],
            "stateMutability": "view",
            "type": "function"
        },
        {
            "inputs": [],
            "name": "getBookeeper",
            "outputs": [
                {
                    "internalType": "address",
                    "name": "",
                    "type": "address"
                }
            ],
            "stateMutability": "view",
            "type": "function"
        },
        {
            "inputs": [],
            "name": "getGeneralCounsel",
            "outputs": [
                {
                    "internalType": "uint40",
                    "name": "",
                    "type": "uint40"
                }
            ],
            "stateMutability": "view",
            "type": "function"
        },
        {
            "inputs": [],
            "name": "getOwner",
            "outputs": [
                {
                    "internalType": "uint40",
                    "name": "",
                    "type": "uint40"
                }
            ],
            "stateMutability": "view",
            "type": "function"
        },
        {
            "inputs": [
                {
                    "internalType": "bytes32",
                    "name": "role",
                    "type": "bytes32"
                },
                {
                    "internalType": "uint256",
                    "name": "acct",
                    "type": "uint256"
                }
            ],
            "name": "grantRole",
            "outputs": [],
            "stateMutability": "nonpayable",
            "type": "function"
        },
        {
            "inputs": [
                {
                    "internalType": "bytes32",
                    "name": "role",
                    "type": "bytes32"
                },
                {
                    "internalType": "uint256",
                    "name": "acct",
                    "type": "uint256"
                }
            ],
            "name": "hasRole",
            "outputs": [
                {
                    "internalType": "bool",
                    "name": "",
                    "type": "bool"
                }
            ],
            "stateMutability": "view",
            "type": "function"
        },
        {
            "inputs": [
                {
                    "internalType": "uint256",
                    "name": "owner",
                    "type": "uint256"
                },
                {
                    "internalType": "address",
                    "name": "directKeeper",
                    "type": "address"
                },
                {
                    "internalType": "address",
                    "name": "regCenter",
                    "type": "address"
                },
                {
                    "internalType": "address",
                    "name": "generalKeeper",
                    "type": "address"
                }
            ],
            "name": "init",
            "outputs": [],
            "stateMutability": "nonpayable",
            "type": "function"
        },
        {
            "inputs": [],
            "name": "initBOD",
            "outputs": [],
            "stateMutability": "nonpayable",
            "type": "function"
        },
        {
            "inputs": [],
            "name": "initBOH",
            "outputs": [],
            "stateMutability": "nonpayable",
            "type": "function"
        },
        {
            "inputs": [],
            "name": "initBOO",
            "outputs": [],
            "stateMutability": "nonpayable",
            "type": "function"
        },
        {
            "inputs": [],
            "name": "initBOS",
            "outputs": [],
            "stateMutability": "nonpayable",
            "type": "function"
        },
        {
            "inputs": [],
            "name": "initROM",
            "outputs": [],
            "stateMutability": "nonpayable",
            "type": "function"
        },
        {
            "inputs": [],
            "name": "lockContents",
            "outputs": [],
            "stateMutability": "nonpayable",
            "type": "function"
        },
        {
            "inputs": [
                {
                    "internalType": "bytes32",
                    "name": "role",
                    "type": "bytes32"
                }
            ],
            "name": "renounceRole",
            "outputs": [],
            "stateMutability": "nonpayable",
            "type": "function"
        },
        {
            "inputs": [
                {
                    "internalType": "bytes32",
                    "name": "role",
                    "type": "bytes32"
                },
                {
                    "internalType": "uint256",
                    "name": "acct",
                    "type": "uint256"
                }
            ],
            "name": "revokeRole",
            "outputs": [],
            "stateMutability": "nonpayable",
            "type": "function"
        },
        {
            "inputs": [
                {
                    "internalType": "address",
                    "name": "keeper",
                    "type": "address"
                }
            ],
            "name": "setDirectKeeper",
            "outputs": [],
            "stateMutability": "nonpayable",
            "type": "function"
        },
        {
            "inputs": [
                {
                    "internalType": "uint256",
                    "name": "acct",
                    "type": "uint256"
                }
            ],
            "name": "setGeneralCounsel",
            "outputs": [],
            "stateMutability": "nonpayable",
            "type": "function"
        },
        {
            "inputs": [
                {
                    "internalType": "uint256",
                    "name": "acct",
                    "type": "uint256"
                }
            ],
            "name": "setOwner",
            "outputs": [],
            "stateMutability": "nonpayable",
            "type": "function"
        },
        {
            "inputs": [
                {
                    "internalType": "bytes32",
                    "name": "role",
                    "type": "bytes32"
                },
                {
                    "internalType": "uint256",
                    "name": "acct",
                    "type": "uint256"
                }
            ],
            "name": "setRoleAdmin",
            "outputs": [],
            "stateMutability": "nonpayable",
            "type": "function"
        },
        {
            "inputs": [
                {
                    "internalType": "address",
                    "name": "sha",
                    "type": "address"
                },
                {
                    "internalType": "bytes32",
                    "name": "sigHash",
                    "type": "bytes32"
                },
                {
                    "internalType": "uint256",
                    "name": "caller",
                    "type": "uint256"
                }
            ],
            "name": "signSHA",
            "outputs": [],
            "stateMutability": "nonpayable",
            "type": "function"
        }
    ],
    "bytecode": "608060405234801561001057600080fd5b50613e4f806100206000396000f3fe608060405234801561001057600080fd5b50600436106101735760003560e01c80637e2cd24a116100de5780639d2239cf11610097578063e396e78f11610071578063e396e78f146102f4578063ed21102314610307578063f045a76914610327578063fa9e79341461032f57600080fd5b80639d2239cf146102b9578063b3f05b97146102cc578063dc890da9146102e157600080fd5b80637e2cd24a1461025d5780637f7df34e146102705780638041494e1461028357806381e86d5d14610296578063893d20e81461029e5780638bb9c5bf146102a657600080fd5b80635171ebd4116101305780635171ebd4146101f15780635ff3fd0f1461020457806362ce0a281461020c5780636be8496f146102145780637c67d747146102275780637e063c5a1461023a57600080fd5b8063103f6edd1461017857806319d61ad91461019b5780631b6ea9f9146101b057806325cbca63146101c35780633da9a600146101cb5780634a14beb1146101de575b600080fd5b610180610337565b60405164ffffffffff90911681526020015b60405180910390f35b6101ae6101a93660046131bf565b6103c3565b005b6101ae6101be3660046131bf565b610457565b6101ae61047c565b6101ae6101d93660046131e1565b610542565b6101ae6101ec3660046131e1565b61065d565b6101ae6101ff3660046131bf565b61084d565b6101ae610872565b6101ae610933565b6101ae610222366004613212565b6109f4565b6101ae6102353660046131bf565b610aa6565b61024d6102483660046131bf565b610c2c565b6040519015158152602001610192565b6101ae61026b36600461322f565b610cc7565b6101ae61027e366004613264565b611045565b6101ae6102913660046131e1565b6113d5565b6101ae6115ba565b610180611679565b6101ae6102b43660046131e1565b6116b4565b6101ae6102c73660046132cb565b61170d565b600754600160f01b900460ff1660021461024d565b6101ae6102ef366004613304565b611987565b6101ae610302366004613357565b611a6a565b61030f6120ca565b6040516001600160a01b039091168152602001610192565b6101ae612150565b6101ae61236e565b60405163e8c0cc1d60e01b81526007600482015260009073__$364aad554dc80380f414546becdd2c1584$__9063e8c0cc1d906024015b60206040518083038186803b15801561038657600080fd5b505af415801561039a573d6000803e3d6000fd5b505050506040513d601f19601f820116820180604052508101906103be9190613383565b905090565b73__$364aad554dc80380f414546becdd2c1584$__6382daafaa6007846103e861242f565b6040516001600160e01b031960e086901b1681526004810193909352602483019190915264ffffffffff166044820152606481018490526084015b60006040518083038186803b15801561043b57600080fd5b505af415801561044f573d6000803e3d6000fd5b505050505050565b73__$364aad554dc80380f414546becdd2c1584$__636320d75e6007846103e861242f565b60015460405163e0ff5b8b60e01b8152600360048201526001600160a01b039091169063e0ff5b8b9060240160206040518083038186803b1580156104c057600080fd5b505afa1580156104d4573d6000803e3d6000fd5b505050506040513d601f19601f820116820180604052508101906104f891906133a0565b600380546001600160a01b0319166001600160a01b03929092169182178155604080519182526020820192909252600080516020613dfa83398151915291015b60405180910390a1565b604051633b11adbf60e21b81526007600482015233602482015273__$364aad554dc80380f414546becdd2c1584$__9063ec46b6fc9060440160206040518083038186803b15801561059357600080fd5b505af41580156105a7573d6000803e3d6000fd5b505050506040513d601f19601f820116820180604052508101906105cb91906133d2565b6105f05760405162461bcd60e51b81526004016105e7906133ed565b60405180910390fd5b60405163cc99e11b60e01b8152600760048201526024810182905273__$364aad554dc80380f414546becdd2c1584$__9063cc99e11b9060440160006040518083038186803b15801561064257600080fd5b505af4158015610656573d6000803e3d6000fd5b5050505050565b604051633b11adbf60e21b81526007600482015233602482015273__$364aad554dc80380f414546becdd2c1584$__9063ec46b6fc9060440160206040518083038186803b1580156106ae57600080fd5b505af41580156106c2573d6000803e3d6000fd5b505050506040513d601f19601f820116820180604052508101906106e691906133d2565b8061078b575073__$364aad554dc80380f414546becdd2c1584$__63fe271086600761071061242f565b6040516001600160e01b031960e085901b168152600481019290925264ffffffffff16602482015260440160206040518083038186803b15801561075357600080fd5b505af4158015610767573d6000803e3d6000fd5b505050506040513d601f19601f8201168201806040525081019061078b91906133d2565b6107a75760405162461bcd60e51b81526004016105e790613433565b604051632725ebef60e21b8152600760048201526024810182905273__$364aad554dc80380f414546becdd2c1584$__90639c97afbc9060440160006040518083038186803b1580156107f957600080fd5b505af415801561080d573d6000803e3d6000fd5b505050507ff2735f34b69be1e6342dea95f9162f84d0db925fab655ca9f1f312ac8cbfc99d8160405161084291815260200190565b60405180910390a150565b73__$364aad554dc80380f414546becdd2c1584$__63ee98b3136007846103e861242f565b6001805460405163e0ff5b8b60e01b815260048101929092526001600160a01b03169063e0ff5b8b9060240160206040518083038186803b1580156108b657600080fd5b505afa1580156108ca573d6000803e3d6000fd5b505050506040513d601f19601f820116820180604052508101906108ee91906133a0565b600280546001600160a01b0319166001600160a01b0392909216918217905560408051600181526020810192909252600080516020613dfa8339815191529101610538565b60015460405163e0ff5b8b60e01b8152600660048201526001600160a01b039091169063e0ff5b8b9060240160206040518083038186803b15801561097757600080fd5b505afa15801561098b573d6000803e3d6000fd5b505050506040513d601f19601f820116820180604052508101906109af91906133a0565b600580546001600160a01b0319166001600160a01b0392909216918217905560408051600681526020810192909252600080516020613dfa8339815191529101610538565b604051630f07232560e01b8152600760048201523360248201526001600160a01b038216604482015273__$364aad554dc80380f414546becdd2c1584$__90630f0723259060640160006040518083038186803b158015610a5457600080fd5b505af4158015610a68573d6000803e3d6000fd5b50506040516001600160a01b03841681527fe435cbeab64e4eae6497b9d8289704bd709d624a80704ef3ca9af777534bc6ec92506020019050610842565b604051633b11adbf60e21b81526007600482015233602482015273__$364aad554dc80380f414546becdd2c1584$__9063ec46b6fc9060440160206040518083038186803b158015610af757600080fd5b505af4158015610b0b573d6000803e3d6000fd5b505050506040513d601f19601f82011682018060405250810190610b2f91906133d2565b610b4b5760405162461bcd60e51b81526004016105e7906133ed565b610b53612489565b6040516350a31ef960e01b81526000600482018190526024820152604481018390526001600160a01b0391909116906350a31ef990606401600060405180830381600087803b158015610ba557600080fd5b505af1158015610bb9573d6000803e3d6000fd5b50505050610bc5612489565b604051630cac562d60e11b81526000600482015260248101839052604481018490526001600160a01b039190911690631958ac5a906064015b600060405180830381600087803b158015610c1857600080fd5b505af115801561044f573d6000803e3d6000fd5b604051632a3be56b60e21b815260076004820152602481018390526044810182905260009073__$364aad554dc80380f414546becdd2c1584$__9063a8ef95ac9060640160206040518083038186803b158015610c8857600080fd5b505af4158015610c9c573d6000803e3d6000fd5b505050506040513d601f19601f82011682018060405250810190610cc091906133d2565b9392505050565b604051633b11adbf60e21b81526007600482015233602482015273__$364aad554dc80380f414546becdd2c1584$__9063ec46b6fc9060440160206040518083038186803b158015610d1857600080fd5b505af4158015610d2c573d6000803e3d6000fd5b505050506040513d601f19601f82011682018060405250810190610d5091906133d2565b610d6c5760405162461bcd60e51b81526004016105e7906133ed565b6040516308c5f91760e41b815260048101829052839082906001600160a01b03831690638c5f91709060240160206040518083038186803b158015610db057600080fd5b505afa158015610dc4573d6000803e3d6000fd5b505050506040513d601f19601f82011682018060405250810190610de891906133d2565b610e275760405162461bcd60e51b815260206004820152601060248201526f4e4f54205061727479206f6620446f6360801b60448201526064016105e7565b6003546040516337066e9d60e11b81526001600160a01b0387811660048301526002921690636e0cdd3a9060240160806040518083038186803b158015610e6d57600080fd5b505afa158015610e81573d6000803e3d6000fd5b505050506040513d601f19601f82011682018060405250810190610ea59190613585565b6060015160ff1614610ef95760405162461bcd60e51b815260206004820152601b60248201527f534841206e6f7420696e2043697263756c61746564205374617465000000000060448201526064016105e7565b604051630cac562d60e11b81526001600482015260248101849052604481018590526001600160a01b03861690631958ac5a90606401600060405180830381600087803b158015610f4957600080fd5b505af1158015610f5d573d6000803e3d6000fd5b50505050846001600160a01b0316634844f5416040518163ffffffff1660e01b815260040160206040518083038186803b158015610f9a57600080fd5b505afa158015610fae573d6000803e3d6000fd5b505050506040513d601f19601f82011682018060405250810190610fd291906133d2565b15610656576003805460405163511b707d60e01b81526001600160a01b038881166004830152602482019390935291169063511b707d90604401600060405180830381600087803b15801561102657600080fd5b505af115801561103a573d6000803e3d6000fd5b505050505050505050565b604051633b11adbf60e21b81526007600482015233602482015273__$364aad554dc80380f414546becdd2c1584$__9063ec46b6fc9060440160206040518083038186803b15801561109657600080fd5b505af41580156110aa573d6000803e3d6000fd5b505050506040513d601f19601f820116820180604052508101906110ce91906133d2565b6110ea5760405162461bcd60e51b81526004016105e7906133ed565b84818015801590611171575080826001600160a01b031663893d20e86040518163ffffffff1660e01b815260040160206040518083038186803b15801561113057600080fd5b505afa158015611144573d6000803e3d6000fd5b505050506040513d601f19601f820116820180604052508101906111689190613383565b64ffffffffff16145b6111a95760405162461bcd60e51b81526020600482015260096024820152683737ba1027bbb732b960b91b60448201526064016105e7565b866001600160a01b0316638969d43a6040518163ffffffff1660e01b8152600401600060405180830381600087803b1580156111e457600080fd5b505af11580156111f8573d6000803e3d6000fd5b5050604051634020a4a760e11b8152600060048201526001600160a01b038a169250638041494e9150602401600060405180830381600087803b15801561123e57600080fd5b505af1158015611252573d6000803e3d6000fd5b505050506000611260612489565b6001600160a01b03166348462037886040518263ffffffff1660e01b815260040161128d91815260200190565b60206040518083038186803b1580156112a557600080fd5b505afa1580156112b9573d6000803e3d6000fd5b505050506040513d601f19601f820116820180604052508101906112dd91906135fa565b60405163d1296c8f60e01b8152600481019190915273__$9d2c69e94fee47b9774dc8db4aa5c0bbec$__9063d1296c8f906024016102206040518083038186803b15801561132a57600080fd5b505af415801561133e573d6000803e3d6000fd5b505050506040513d601f19601f820116820180604052508101906113629190613694565b600354604051638c32f23d60e01b81529192506001600160a01b031690638c32f23d90611399908b9085908b908b906004016137e1565b600060405180830381600087803b1580156113b357600080fd5b505af11580156113c7573d6000803e3d6000fd5b505050505050505050505050565b604051633b11adbf60e21b81526007600482015233602482015273__$364aad554dc80380f414546becdd2c1584$__9063ec46b6fc9060440160206040518083038186803b15801561142657600080fd5b505af415801561143a573d6000803e3d6000fd5b505050506040513d601f19601f8201168201806040525081019061145e91906133d2565b80611503575073__$364aad554dc80380f414546becdd2c1584$__63fe271086600761148861242f565b6040516001600160e01b031960e085901b168152600481019290925264ffffffffff16602482015260440160206040518083038186803b1580156114cb57600080fd5b505af41580156114df573d6000803e3d6000fd5b505050506040513d601f19601f8201168201806040525081019061150391906133d2565b61151f5760405162461bcd60e51b81526004016105e790613433565b60405163b6e38a2960e01b8152600760048201526024810182905273__$364aad554dc80380f414546becdd2c1584$__9063b6e38a299060440160006040518083038186803b15801561157157600080fd5b505af4158015611585573d6000803e3d6000fd5b505050507f8b6f40f36b4ae8cc5f55e895036457c43da4ab1f80f58c46f5ff0d72a650033b8160405161084291815260200190565b60015460405163e0ff5b8b60e01b81526004818101526001600160a01b039091169063e0ff5b8b9060240160206040518083038186803b1580156115fd57600080fd5b505afa158015611611573d6000803e3d6000fd5b505050506040513d601f19601f8201168201806040525081019061163591906133a0565b600480546001600160a01b0319166001600160a01b03929092169182178155604080519182526020820192909252600080516020613dfa8339815191529101610538565b60405163987ad15360e01b81526007600482015260009073__$364aad554dc80380f414546becdd2c1584$__9063987ad1539060240161036e565b60006116be61242f565b60405163cc0d511b60e01b8152600760048201526024810184905264ffffffffff8216604482015290915073__$364aad554dc80380f414546becdd2c1584$__9063cc0d511b90606401610423565b604051633b11adbf60e21b81526007600482015233602482015273__$364aad554dc80380f414546becdd2c1584$__9063ec46b6fc9060440160206040518083038186803b15801561175e57600080fd5b505af4158015611772573d6000803e3d6000fd5b505050506040513d601f19601f8201168201806040525081019061179691906133d2565b6117b25760405162461bcd60e51b81526004016105e7906133ed565b60065460405163d50c737760e01b815264ffffffffff831660048201526001600160a01b039091169063d50c73779060240160206040518083038186803b1580156117fc57600080fd5b505afa158015611810573d6000803e3d6000fd5b505050506040513d601f19601f8201168201806040525081019061183491906133d2565b61186d5760405162461bcd60e51b815260206004820152600a6024820152693737ba1026a2a6a122a960b11b60448201526064016105e7565b6003546040516378af322960e11b81526015600482015261ffff8416602482015264ffffffffff831660448201526000916001600160a01b03169063f15e645290606401602060405180830381600087803b1580156118cb57600080fd5b505af11580156118df573d6000803e3d6000fd5b505050506040513d601f19601f8201168201806040525081019061190391906133a0565b60005460015460405163dc890da960e01b815264ffffffffff861660048201523060248201526001600160a01b039283166044820152908216606482015291925082169063dc890da990608401600060405180830381600087803b15801561196a57600080fd5b505af115801561197e573d6000803e3d6000fd5b50505050505050565b611990826124e2565b61199981612591565b604051636cdd0edf60e11b815260076004820152602481018590526001600160a01b038416604482015273__$364aad554dc80380f414546becdd2c1584$__9063d9ba1dbe9060640160006040518083038186803b1580156119fa57600080fd5b505af4158015611a0e573d6000803e3d6000fd5b5050604080518781526001600160a01b038781166020830152868116828401528516606082015290517f3abb2418c66fe32ba9c883030a75ce583971d9af9192b9b74e44e67c5e6c8c1f9350908190036080019150a150505050565b604051633b11adbf60e21b81526007600482015233602482015273__$364aad554dc80380f414546becdd2c1584$__9063ec46b6fc9060440160206040518083038186803b158015611abb57600080fd5b505af4158015611acf573d6000803e3d6000fd5b505050506040513d601f19601f82011682018060405250810190611af391906133d2565b611b0f5760405162461bcd60e51b81526004016105e7906133ed565b6040516308c5f91760e41b815260048101829052829082906001600160a01b03831690638c5f91709060240160206040518083038186803b158015611b5357600080fd5b505afa158015611b67573d6000803e3d6000fd5b505050506040513d601f19601f82011682018060405250810190611b8b91906133d2565b611bca5760405162461bcd60e51b815260206004820152601060248201526f4e4f54205061727479206f6620446f6360801b60448201526064016105e7565b600380546040516337066e9d60e11b81526001600160a01b03878116600483015290911690636e0cdd3a9060240160806040518083038186803b158015611c1057600080fd5b505afa158015611c24573d6000803e3d6000fd5b505050506040513d601f19601f82011682018060405250810190611c489190613585565b6060015160ff1614611c9c5760405162461bcd60e51b815260206004820152601d60248201527f424f484b2e45533a20534841206e6f742065786563757465642079657400000060448201526064016105e7565b611ca584612648565b80611cb45750611cb4846127ac565b611d165760405162461bcd60e51b815260206004820152602d60248201527f424f484b2e45533a205348412065666665637469766520636f6e646974696f6e60448201526c1cc81b9bdd081c995858da1959609a1b60648201526084016105e7565b600354604051639f4d332f60e01b81526001600160a01b03868116600483015290911690639f4d332f90602401600060405180830381600087803b158015611d5d57600080fd5b505af1158015611d71573d6000803e3d6000fd5b5050604051634846203760e01b815260006004820181905292506001600160a01b038716915063484620379060240160206040518083038186803b158015611db857600080fd5b505afa158015611dcc573d6000803e3d6000fd5b505050506040513d601f19601f82011682018060405250810190611df091906135fa565b60405163611ebb8b60e01b8152600481019190915273__$9d2c69e94fee47b9774dc8db4aa5c0bbec$__9063611ebb8b906024016101006040518083038186803b158015611e3d57600080fd5b505af4158015611e51573d6000803e3d6000fd5b505050506040513d601f19601f82011682018060405250810190611e759190613917565b6006546060820151604051636d3521eb60e11b815290151560048201529192506001600160a01b03169063da6a43d690602401600060405180830381600087803b158015611ec257600080fd5b505af1158015611ed6573d6000803e3d6000fd5b50506006546060840151604051635ee1b7b160e11b815290151560048201526001600160a01b03909116925063bdc36f629150602401600060405180830381600087803b158015611f2657600080fd5b505af1158015611f3a573d6000803e3d6000fd5b505060025460a0840151604051600162883fab60e01b0319815260ff90911660048201526001600160a01b03909116925063ff77c0559150602401600060405180830381600087803b158015611f8f57600080fd5b505af1158015611fa3573d6000803e3d6000fd5b5050604051637176544960e01b8152601860048201526001600160a01b03881692506371765449915060240160206040518083038186803b158015611fe757600080fd5b505afa158015611ffb573d6000803e3d6000fd5b505050506040513d601f19601f8201168201806040525081019061201f91906133d2565b1561202d5761202d85612adc565b604051637176544960e01b8152601960048201526001600160a01b0386169063717654499060240160206040518083038186803b15801561206d57600080fd5b505afa158015612081573d6000803e3d6000fd5b505050506040513d601f19601f820116820180604052508101906120a591906133d2565b156120b3576120b385612d15565b6006546106569086906001600160a01b0316612dc6565b604051633c3e56c160e11b81526007600482015260009073__$364aad554dc80380f414546becdd2c1584$__9063787cad829060240160206040518083038186803b15801561211857600080fd5b505af415801561212c573d6000803e3d6000fd5b505050506040513d601f19601f820116820180604052508101906103be91906133a0565b604051633b11adbf60e21b81526007600482015233602482015273__$364aad554dc80380f414546becdd2c1584$__9063ec46b6fc9060440160206040518083038186803b1580156121a157600080fd5b505af41580156121b5573d6000803e3d6000fd5b505050506040513d601f19601f820116820180604052508101906121d991906133d2565b6121f55760405162461bcd60e51b81526004016105e7906133ed565b600754600160f01b900460ff166001146122515760405162461bcd60e51b815260206004820181905260248201527f41432e6f6e6c7950656e64696e673a20446f632069732066696e616c697a656460448201526064016105e7565b60405163cc99e11b60e01b815260076004820152684174746f726e65797360b81b602482015273__$364aad554dc80380f414546becdd2c1584$__9063cc99e11b9060440160006040518083038186803b1580156122ae57600080fd5b505af41580156122c2573d6000803e3d6000fd5b5050604051632725ebef60e21b8152600760048201526000602482015273__$364aad554dc80380f414546becdd2c1584$__9250639c97afbc915060440160006040518083038186803b15801561231857600080fd5b505af415801561232c573d6000803e3d6000fd5b50506007805460ff60f01b1916600160f11b17905550506040517f35012b512309c322acf68632cd6cb702ff0e1d776fbe9394e38ffc13b434fe7590600090a1565b60015460405163e0ff5b8b60e01b8152600760048201526001600160a01b039091169063e0ff5b8b9060240160206040518083038186803b1580156123b257600080fd5b505afa1580156123c6573d6000803e3d6000fd5b505050506040513d601f19601f820116820180604052508101906123ea91906133a0565b600680546001600160a01b0319166001600160a01b0392909216918217905560408051600781526020810192909252600080516020613dfa8339815191529101610538565b60008054604051636ae3b70d60e11b81523360048201526001600160a01b039091169063d5c76e1a90602401602060405180830381600087803b15801561247557600080fd5b505af115801561039a573d6000803e3d6000fd5b60035460408051630bd7cecf60e21b815290516000926001600160a01b031691632f5f3b3c916004808301926020929190829003018186803b1580156124ce57600080fd5b505afa15801561212c573d6000803e3d6000fd5b6000546001600160a01b0316156125335760405162461bcd60e51b815260206004820152601560248201527430b63932b0b23c9039b2ba103932b3a1b2b73a32b960591b60448201526064016105e7565b6040516001600160a01b03821681527f318da6c7624c71cbc0afe346c9d8827f119d0ecefb241a7b0c87217a076a8e029060200160405180910390a1600080546001600160a01b0319166001600160a01b0392909216919091179055565b6001546001600160a01b0316156125ea5760405162461bcd60e51b815260206004820152601960248201527f616c7265616479207365742067656e6572616c4b65657065720000000000000060448201526064016105e7565b6040516001600160a01b03821681527fe513d3e0f0d0a3877029dcc588748679a7a3450ec1ec7ed56d96bd012c3e61aa9060200160405180910390a1600180546001600160a01b0319166001600160a01b0392909216919091179055565b600080600660009054906101000a90046001600160a01b03166001600160a01b031663dd5042f46040518163ffffffff1660e01b815260040160006040518083038186803b15801561269957600080fd5b505afa1580156126ad573d6000803e3d6000fd5b505050506040513d6000823e601f3d908101601f191682016040526126d591908101906139e0565b80519091505b80156127a2576001600160a01b038416638c5f9170836126fc600185613a9b565b8151811061270c5761270c613ab2565b60200260200101516040518263ffffffff1660e01b815260040161273291815260200190565b60206040518083038186803b15801561274a57600080fd5b505afa15801561275e573d6000803e3d6000fd5b505050506040513d601f19601f8201168201806040525081019061278291906133d2565b612790575060009392505050565b8061279a81613ac8565b9150506126db565b5060019392505050565b600080826001600160a01b031663a8311aa86040518163ffffffff1660e01b815260040160006040518083038186803b1580156127e857600080fd5b505afa1580156127fc573d6000803e3d6000fd5b505050506040513d6000823e601f3d908101601f1916820160405261282491908101906139e0565b80519091506000612833612489565b604051634846203760e01b8152600060048201526001600160a01b03919091169063484620379060240160206040518083038186803b15801561287557600080fd5b505afa158015612889573d6000803e3d6000fd5b505050506040513d601f19601f820116820180604052508101906128ad91906135fa565b60405163611ebb8b60e01b8152600481019190915273__$9d2c69e94fee47b9774dc8db4aa5c0bbec$__9063611ebb8b906024016101006040518083038186803b1580156128fa57600080fd5b505af415801561290e573d6000803e3d6000fd5b505050506040513d601f19601f820116820180604052508101906129329190613917565b90506000612710600660009054906101000a90046001600160a01b03166001600160a01b0316630d15fd776040518163ffffffff1660e01b815260040160206040518083038186803b15801561298757600080fd5b505afa15801561299b573d6000803e3d6000fd5b505050506040513d601f19601f820116820180604052508101906129bf9190613af6565b8360e0015161ffff166129d29190613b11565b6129dc9190613b40565b905060005b8315612acf576006546001600160a01b031663c2d7616e86612a04600188613a9b565b81518110612a1457612a14613ab2565b60200260200101516040518263ffffffff1660e01b8152600401612a3a91815260200190565b60206040518083038186803b158015612a5257600080fd5b505afa158015612a66573d6000803e3d6000fd5b505050506040513d601f19601f82011682018060405250810190612a8a9190613af6565b612a949082613b74565b9050816001600160401b0316816001600160401b03161115612abd575060019695505050505050565b83612ac781613ac8565b9450506129e1565b5060009695505050505050565b60405163346ba94160e01b8152601960048201526000906001600160a01b0383169063346ba9419060240160206040518083038186803b158015612b1f57600080fd5b505afa158015612b33573d6000803e3d6000fd5b505050506040513d601f19601f82011682018060405250810190612b5791906133a0565b6001600160a01b031663e95502fb6040518163ffffffff1660e01b815260040160006040518083038186803b158015612b8f57600080fd5b505afa158015612ba3573d6000803e3d6000fd5b505050506040513d6000823e601f3d908101601f19168201604052612bcb91908101906139e0565b80519091505b8015612d10576005546000906001600160a01b031663cfb5a5f884612bf7600186613a9b565b81518110612c0757612c07613ab2565b60200260200101516040518263ffffffff1660e01b8152600401612c2d91815260200190565b6101606040518083038186803b158015612c4657600080fd5b505afa158015612c5a573d6000803e3d6000fd5b505050506040513d601f19601f82011682018060405250810190612c7e9190613c43565b600554815151602080840151015160405163020ddf3160e11b815263ffffffff90921660048301526001600160401b031660248201529192506001600160a01b03169063041bbe6290604401600060405180830381600087803b158015612ce457600080fd5b505af1158015612cf8573d6000803e3d6000fd5b505050508180612d0790613ac8565b92505050612bd1565b505050565b60405163346ba94160e01b8152601960048201526000906001600160a01b0383169063346ba9419060240160206040518083038186803b158015612d5857600080fd5b505afa158015612d6c573d6000803e3d6000fd5b505050506040513d601f19601f82011682018060405250810190612d9091906133a0565b60048054604051636ca5cc5d60e01b81526001600160a01b03808516938201939093529293501690636ca5cc5d90602401610bfe565b604051634846203760e01b815261030060048201526000906001600160a01b0384169063484620379060240160206040518083038186803b158015612e0a57600080fd5b505afa158015612e1e573d6000803e3d6000fd5b505050506040513d601f19601f82011682018060405250810190612e4291906135fa565b60405163500d49cb60e11b8152600481019190915273__$9d2c69e94fee47b9774dc8db4aa5c0bbec$__9063a01a9396906024016101206040518083038186803b158015612e8f57600080fd5b505af4158015612ea3573d6000803e3d6000fd5b505050506040513d601f19601f82011682018060405250810190612ec79190613cf8565b6020015160ff16905060005b818110156131b95760006001600160a01b0385166348462037612ef884610300613dc6565b6040518263ffffffff1660e01b8152600401612f1691815260200190565b60206040518083038186803b158015612f2e57600080fd5b505afa158015612f42573d6000803e3d6000fd5b505050506040513d601f19601f82011682018060405250810190612f6691906135fa565b60405163500d49cb60e11b8152600481019190915273__$9d2c69e94fee47b9774dc8db4aa5c0bbec$__9063a01a9396906024016101206040518083038186803b158015612fb357600080fd5b505af4158015612fc7573d6000803e3d6000fd5b505050506040513d601f19601f82011682018060405250810190612feb9190613cf8565b905060008160600151156130d2575b60048110156130cd5760008260a00151826004811061301b5761301b613ab2565b602002015164ffffffffff1611156130bb57846001600160a01b031663a7ec068f8360a00151836004811061305257613052613ab2565b602002015160808501516040516001600160e01b031960e085901b16815264ffffffffff928316600482015291166024820152604401600060405180830381600087803b1580156130a257600080fd5b505af11580156130b6573d6000803e3d6000fd5b505050505b806130c581613dde565b915050612ffa565b6131a5565b60048110156131a55760008260a0015182600481106130f3576130f3613ab2565b602002015164ffffffffff16111561319357846001600160a01b031663dd8a18e98360a00151836004811061312a5761312a613ab2565b602002015160808501516040516001600160e01b031960e085901b16815264ffffffffff928316600482015291166024820152604401600060405180830381600087803b15801561317a57600080fd5b505af115801561318e573d6000803e3d6000fd5b505050505b8061319d81613dde565b9150506130d2565b826131af81613dde565b9350505050612ed3565b50505050565b600080604083850312156131d257600080fd5b50508035926020909101359150565b6000602082840312156131f357600080fd5b5035919050565b6001600160a01b038116811461320f57600080fd5b50565b60006020828403121561322457600080fd5b8135610cc0816131fa565b60008060006060848603121561324457600080fd5b833561324f816131fa565b95602085013595506040909401359392505050565b600080600080600060a0868803121561327c57600080fd5b8535613287816131fa565b97602087013597506040870135966060810135965060800135945092505050565b61ffff8116811461320f57600080fd5b64ffffffffff8116811461320f57600080fd5b600080604083850312156132de57600080fd5b82356132e9816132a8565b915060208301356132f9816132b8565b809150509250929050565b6000806000806080858703121561331a57600080fd5b84359350602085013561332c816131fa565b9250604085013561333c816131fa565b9150606085013561334c816131fa565b939692955090935050565b6000806040838503121561336a57600080fd5b8235613375816131fa565b946020939093013593505050565b60006020828403121561339557600080fd5b8151610cc0816132b8565b6000602082840312156133b257600080fd5b8151610cc0816131fa565b805180151581146133cd57600080fd5b919050565b6000602082840312156133e457600080fd5b610cc0826133bd565b60208082526026908201527f41432e6f6e6c794469726563744b65657065723a206e6f74206469726563742060408201526535b2b2b832b960d11b606082015260800190565b60208082526036908201527f41432e6f776e65724f72446972656374426f6f6b65657065723a206e6569746860408201527532b91037bbb732b9103737b9103137b7b5b2b2b832b960511b606082015260800190565b634e487b7160e01b600052604160045260246000fd5b6040516101e081016001600160401b03811182821017156134c2576134c2613489565b60405290565b604080519081016001600160401b03811182821017156134c2576134c2613489565b60405160c081016001600160401b03811182821017156134c2576134c2613489565b604051608081016001600160401b03811182821017156134c2576134c2613489565b604051601f8201601f191681016001600160401b038111828210171561355657613556613489565b604052919050565b805165ffffffffffff811681146133cd57600080fd5b805160ff811681146133cd57600080fd5b60006080828403121561359757600080fd5b604051608081018181106001600160401b03821117156135b9576135b9613489565b604052825181526135cc6020840161355e565b60208201526135dd6040840161355e565b60408201526135ee60608401613574565b60608201529392505050565b60006020828403121561360c57600080fd5b5051919050565b80516133cd816132a8565b600082601f83011261362f57600080fd5b604051606081018181106001600160401b038211171561365157613651613489565b60405280606084018581111561366657600080fd5b845b8181101561368957805161367b816132b8565b835260209283019201613668565b509195945050505050565b600061022082840312156136a757600080fd5b6136af61349f565b6136b883613613565b81526136c660208401613574565b60208201526136d760408401613574565b60408201526136e860608401613574565b60608201526136f960808401613613565b608082015261370a60a08401613613565b60a082015261371b60c084016133bd565b60c082015261372c60e084016133bd565b60e082015261010061373f8185016133bd565b908201526101206137518482016133bd565b90820152610140613763848201613574565b90820152610160613775848201613574565b90820152610180613787848201613574565b908201526101a0613799848201613574565b908201526101c06137ac8585830161361e565b908201529392505050565b8060005b60038110156131b957815164ffffffffff168452602093840193909101906001016137bb565b6001600160a01b0385168152835161ffff1660208201526102808101602085015160ff8116604084015250604085015160ff8116606084015250606085015160ff8116608084015250608085015161ffff811660a08401525060a085015161ffff811660c08401525060c085015180151560e08401525060e085015161010061386d8185018315159052565b86015190506101206138828482018315159052565b86015190506101406138978482018315159052565b86015190506101606138ad8482018360ff169052565b86015190506101806138c38482018360ff169052565b86015190506101a06138d98482018360ff169052565b86015190506101c06138ef8482018360ff169052565b86015190506139026101e08401826137b7565b50610240820193909352610260015292915050565b600061010080838503121561392b57600080fd5b604051908101906001600160401b038211818310171561394d5761394d613489565b816040528351915061395e826132a8565b81815261396d60208501613574565b602082015261397e60408501613574565b604082015261398f606085016133bd565b60608201526139a060808501613613565b60808201526139b160a08501613574565b60a08201526139c260c08501613574565b60c08201526139d360e08501613613565b60e0820152949350505050565b600060208083850312156139f357600080fd5b82516001600160401b0380821115613a0a57600080fd5b818501915085601f830112613a1e57600080fd5b815181811115613a3057613a30613489565b8060051b9150613a4184830161352e565b8181529183018401918481019088841115613a5b57600080fd5b938501935b83851015613a7957845182529385019390850190613a60565b98975050505050505050565b634e487b7160e01b600052601160045260246000fd5b600082821015613aad57613aad613a85565b500390565b634e487b7160e01b600052603260045260246000fd5b600081613ad757613ad7613a85565b506000190190565b80516001600160401b03811681146133cd57600080fd5b600060208284031215613b0857600080fd5b610cc082613adf565b60006001600160401b0380831681851681830481118215151615613b3757613b37613a85565b02949350505050565b60006001600160401b0380841680613b6857634e487b7160e01b600052601260045260246000fd5b92169190910492915050565b60006001600160401b03808316818516808303821115613b9657613b96613a85565b01949350505050565b805163ffffffff811681146133cd57600080fd5b600060a08284031215613bc557600080fd5b60405160a081018181106001600160401b0382111715613be757613be7613489565b604052905080613bf68361355e565b8152613c0460208401613adf565b6020820152613c1560408401613adf565b6040820152613c2660608401613adf565b6060820152613c3760808401613574565b60808201525092915050565b6000818303610160811215613c5757600080fd5b613c5f6134c8565b60c0821215613c6d57600080fd5b613c756134ea565b9150613c8084613b9f565b8252613c8e60208501613b9f565b60208301526040840151613ca1816132a8565b6040830152613cb26060850161355e565b60608301526080840151613cc5816132b8565b6080830152613cd660a08501613b9f565b60a0830152818152613ceb8560c08601613bb3565b6020820152949350505050565b6000610120808385031215613d0c57600080fd5b613d146134ea565b8351613d1f816132a8565b81526020613d2e858201613574565b81830152613d3e60408601613574565b6040830152613d4f606086016133bd565b60608301526080850151613d62816132b8565b608083015260bf85018613613d7657600080fd5b613d7e61350c565b928501928087851115613d9057600080fd5b60a087015b85811015613db5578051613da8816132b8565b8352918301918301613d95565b5060a0840152509095945050505050565b60008219821115613dd957613dd9613a85565b500190565b6000600019821415613df257613df2613a85565b506001019056fe6aa5e483fe137161b095cd68564a336d1657057f57987b1ae21019134dbc8da2a2646970667358221220a0faf8c9ea0bd408021573ab3e690f69acb8cf7cc93d620a40cd11299d7a63f664736f6c63430008080033",
    "sourcePath": "/Users/kaptain/github.com/hardhat/comboox/contracts/keepers/BOHKeeper.sol",
    "compiler": {
        "name": "solc",
        "version": "0.8.8+commit.dddeac2f"
    },
    "functionHashes": {
        "abandonRole(bytes32)": "3da9a600",
        "acceptSHA(bytes32,uint256)": "7c67d747",
        "circulateSHA(address,uint256,bytes32,bytes32,uint256)": "7f7df34e",
        "createSHA(uint16,uint40)": "9d2239cf",
        "effectiveSHA(address,uint256)": "e396e78f",
        "finalized()": "b3f05b97",
        "getBookeeper()": "ed211023",
        "getGeneralCounsel()": "103f6edd",
        "getOwner()": "893d20e8",
        "grantRole(bytes32,uint256)": "1b6ea9f9",
        "hasRole(bytes32,uint256)": "7e063c5a",
        "init(uint256,address,address,address)": "dc890da9",
        "initBOD()": "5ff3fd0f",
        "initBOH()": "25cbca63",
        "initBOO()": "81e86d5d",
        "initBOS()": "62ce0a28",
        "initROM()": "fa9e7934",
        "lockContents()": "f045a769",
        "renounceRole(bytes32)": "8bb9c5bf",
        "revokeRole(bytes32,uint256)": "19d61ad9",
        "setDirectKeeper(address)": "6be8496f",
        "setGeneralCounsel(uint256)": "4a14beb1",
        "setOwner(uint256)": "8041494e",
        "setRoleAdmin(bytes32,uint256)": "5171ebd4",
        "signSHA(address,bytes32,uint256)": "7e2cd24a"
    },
    "gasEstimates": {
        "creation": {
            "codeDepositCost": "3190200",
            "executionCost": "3531",
            "totalCost": "3193731"
        },
        "external": {
            "abandonRole(bytes32)": "infinite",
            "acceptSHA(bytes32,uint256)": "infinite",
            "circulateSHA(address,uint256,bytes32,bytes32,uint256)": "infinite",
            "createSHA(uint16,uint40)": "infinite",
            "effectiveSHA(address,uint256)": "infinite",
            "finalized()": "2394",
            "getBookeeper()": "infinite",
            "getGeneralCounsel()": "infinite",
            "getOwner()": "infinite",
            "grantRole(bytes32,uint256)": "infinite",
            "hasRole(bytes32,uint256)": "infinite",
            "init(uint256,address,address,address)": "infinite",
            "initBOD()": "infinite",
            "initBOH()": "infinite",
            "initBOO()": "infinite",
            "initBOS()": "infinite",
            "initROM()": "infinite",
            "lockContents()": "infinite",
            "renounceRole(bytes32)": "infinite",
            "revokeRole(bytes32,uint256)": "infinite",
            "setDirectKeeper(address)": "infinite",
            "setGeneralCounsel(uint256)": "infinite",
            "setOwner(uint256)": "infinite",
            "setRoleAdmin(bytes32,uint256)": "infinite",
            "signSHA(address,bytes32,uint256)": "infinite"
        },
        "internal": {
            "_allMembersSigned(address)": "infinite",
            "_lockUpShares(address)": "infinite",
            "_reachedEffectiveThreshold(address)": "infinite",
            "_regOptionTerms(address)": "infinite",
            "_updateGrouping(address,contract IRegisterOfMembers)": "infinite"
        }
    }
}