{
    "contractName": "BOHKeeper",
    "abi": [
        {
            "anonymous": false,
            "inputs": [
                {
                    "indexed": false,
                    "internalType": "uint256",
                    "name": "owner",
                    "type": "uint256"
                },
                {
                    "indexed": false,
                    "internalType": "address",
                    "name": "directKeeper",
                    "type": "address"
                },
                {
                    "indexed": false,
                    "internalType": "address",
                    "name": "regCenter",
                    "type": "address"
                },
                {
                    "indexed": false,
                    "internalType": "address",
                    "name": "generalKeeper",
                    "type": "address"
                }
            ],
            "name": "Init",
            "type": "event"
        },
        {
            "anonymous": false,
            "inputs": [],
            "name": "LockContents",
            "type": "event"
        },
        {
            "anonymous": false,
            "inputs": [
                {
                    "indexed": false,
                    "internalType": "address",
                    "name": "keeper",
                    "type": "address"
                }
            ],
            "name": "SetDirectKeeper",
            "type": "event"
        },
        {
            "anonymous": false,
            "inputs": [
                {
                    "indexed": false,
                    "internalType": "uint256",
                    "name": "acct",
                    "type": "uint256"
                }
            ],
            "name": "SetGeneralCounsel",
            "type": "event"
        },
        {
            "anonymous": false,
            "inputs": [
                {
                    "indexed": false,
                    "internalType": "address",
                    "name": "gk",
                    "type": "address"
                }
            ],
            "name": "SetGeneralKeeper",
            "type": "event"
        },
        {
            "anonymous": false,
            "inputs": [
                {
                    "indexed": false,
                    "internalType": "uint256",
                    "name": "acct",
                    "type": "uint256"
                }
            ],
            "name": "SetOwner",
            "type": "event"
        },
        {
            "anonymous": false,
            "inputs": [
                {
                    "indexed": false,
                    "internalType": "address",
                    "name": "rc",
                    "type": "address"
                }
            ],
            "name": "SetRegCenter",
            "type": "event"
        },
        {
            "inputs": [
                {
                    "internalType": "bytes32",
                    "name": "role",
                    "type": "bytes32"
                }
            ],
            "name": "abandonRole",
            "outputs": [],
            "stateMutability": "nonpayable",
            "type": "function"
        },
        {
            "inputs": [
                {
                    "internalType": "bytes32",
                    "name": "sigHash",
                    "type": "bytes32"
                },
                {
                    "internalType": "uint256",
                    "name": "caller",
                    "type": "uint256"
                }
            ],
            "name": "acceptSHA",
            "outputs": [],
            "stateMutability": "nonpayable",
            "type": "function"
        },
        {
            "inputs": [
                {
                    "internalType": "address",
                    "name": "sha",
                    "type": "address"
                },
                {
                    "internalType": "uint256",
                    "name": "seqOfRule",
                    "type": "uint256"
                },
                {
                    "internalType": "bytes32",
                    "name": "docUrl",
                    "type": "bytes32"
                },
                {
                    "internalType": "bytes32",
                    "name": "docHash",
                    "type": "bytes32"
                },
                {
                    "internalType": "uint256",
                    "name": "caller",
                    "type": "uint256"
                }
            ],
            "name": "circulateSHA",
            "outputs": [],
            "stateMutability": "nonpayable",
            "type": "function"
        },
        {
            "inputs": [
                {
                    "internalType": "uint8",
                    "name": "typeOfDoc",
                    "type": "uint8"
                },
                {
                    "internalType": "uint256",
                    "name": "caller",
                    "type": "uint256"
                }
            ],
            "name": "createSHA",
            "outputs": [],
            "stateMutability": "nonpayable",
            "type": "function"
        },
        {
            "inputs": [
                {
                    "internalType": "address",
                    "name": "sha",
                    "type": "address"
                },
                {
                    "internalType": "uint256",
                    "name": "caller",
                    "type": "uint256"
                }
            ],
            "name": "effectiveSHA",
            "outputs": [],
            "stateMutability": "nonpayable",
            "type": "function"
        },
        {
            "inputs": [],
            "name": "finalized",
            "outputs": [
                {
                    "internalType": "bool",
                    "name": "",
                    "type": "bool"
                }
            ],
            "stateMutability": "view",
            "type": "function"
        },
        {
            "inputs": [],
            "name": "getBookeeper",
            "outputs": [
                {
                    "internalType": "address",
                    "name": "",
                    "type": "address"
                }
            ],
            "stateMutability": "view",
            "type": "function"
        },
        {
            "inputs": [],
            "name": "getGeneralCounsel",
            "outputs": [
                {
                    "internalType": "uint40",
                    "name": "",
                    "type": "uint40"
                }
            ],
            "stateMutability": "view",
            "type": "function"
        },
        {
            "inputs": [],
            "name": "getOwner",
            "outputs": [
                {
                    "internalType": "uint40",
                    "name": "",
                    "type": "uint40"
                }
            ],
            "stateMutability": "view",
            "type": "function"
        },
        {
            "inputs": [
                {
                    "internalType": "bytes32",
                    "name": "role",
                    "type": "bytes32"
                },
                {
                    "internalType": "uint256",
                    "name": "acct",
                    "type": "uint256"
                }
            ],
            "name": "grantRole",
            "outputs": [],
            "stateMutability": "nonpayable",
            "type": "function"
        },
        {
            "inputs": [
                {
                    "internalType": "bytes32",
                    "name": "role",
                    "type": "bytes32"
                },
                {
                    "internalType": "uint256",
                    "name": "acct",
                    "type": "uint256"
                }
            ],
            "name": "hasRole",
            "outputs": [
                {
                    "internalType": "bool",
                    "name": "",
                    "type": "bool"
                }
            ],
            "stateMutability": "view",
            "type": "function"
        },
        {
            "inputs": [
                {
                    "internalType": "uint256",
                    "name": "owner",
                    "type": "uint256"
                },
                {
                    "internalType": "address",
                    "name": "directKeeper",
                    "type": "address"
                },
                {
                    "internalType": "address",
                    "name": "regCenter",
                    "type": "address"
                },
                {
                    "internalType": "address",
                    "name": "generalKeeper",
                    "type": "address"
                }
            ],
            "name": "init",
            "outputs": [],
            "stateMutability": "nonpayable",
            "type": "function"
        },
        {
            "inputs": [],
            "name": "lockContents",
            "outputs": [],
            "stateMutability": "nonpayable",
            "type": "function"
        },
        {
            "inputs": [
                {
                    "internalType": "address",
                    "name": "sha",
                    "type": "address"
                },
                {
                    "internalType": "uint256",
                    "name": "caller",
                    "type": "uint256"
                }
            ],
            "name": "removeSHA",
            "outputs": [],
            "stateMutability": "nonpayable",
            "type": "function"
        },
        {
            "inputs": [
                {
                    "internalType": "bytes32",
                    "name": "role",
                    "type": "bytes32"
                }
            ],
            "name": "renounceRole",
            "outputs": [],
            "stateMutability": "nonpayable",
            "type": "function"
        },
        {
            "inputs": [
                {
                    "internalType": "bytes32",
                    "name": "role",
                    "type": "bytes32"
                },
                {
                    "internalType": "uint256",
                    "name": "acct",
                    "type": "uint256"
                }
            ],
            "name": "revokeRole",
            "outputs": [],
            "stateMutability": "nonpayable",
            "type": "function"
        },
        {
            "inputs": [
                {
                    "internalType": "address",
                    "name": "keeper",
                    "type": "address"
                }
            ],
            "name": "setDirectKeeper",
            "outputs": [],
            "stateMutability": "nonpayable",
            "type": "function"
        },
        {
            "inputs": [
                {
                    "internalType": "uint256",
                    "name": "acct",
                    "type": "uint256"
                }
            ],
            "name": "setGeneralCounsel",
            "outputs": [],
            "stateMutability": "nonpayable",
            "type": "function"
        },
        {
            "inputs": [
                {
                    "internalType": "uint256",
                    "name": "acct",
                    "type": "uint256"
                }
            ],
            "name": "setOwner",
            "outputs": [],
            "stateMutability": "nonpayable",
            "type": "function"
        },
        {
            "inputs": [
                {
                    "internalType": "bytes32",
                    "name": "role",
                    "type": "bytes32"
                },
                {
                    "internalType": "uint256",
                    "name": "acct",
                    "type": "uint256"
                }
            ],
            "name": "setRoleAdmin",
            "outputs": [],
            "stateMutability": "nonpayable",
            "type": "function"
        },
        {
            "inputs": [
                {
                    "internalType": "address",
                    "name": "temp",
                    "type": "address"
                },
                {
                    "internalType": "uint8",
                    "name": "typeOfDoc",
                    "type": "uint8"
                }
            ],
            "name": "setTempOfBOH",
            "outputs": [],
            "stateMutability": "nonpayable",
            "type": "function"
        },
        {
            "inputs": [
                {
                    "internalType": "address",
                    "name": "sha",
                    "type": "address"
                },
                {
                    "internalType": "bytes32",
                    "name": "sigHash",
                    "type": "bytes32"
                },
                {
                    "internalType": "uint256",
                    "name": "caller",
                    "type": "uint256"
                }
            ],
            "name": "signSHA",
            "outputs": [],
            "stateMutability": "nonpayable",
            "type": "function"
        }
    ],
    "bytecode": "608060405234801561001057600080fd5b50613edc806100206000396000f3fe608060405234801561001057600080fd5b50600436106101425760003560e01c80637e2cd24a116100b8578063a98e976d1161007c578063a98e976d1461028e578063b3f05b97146102a1578063dc890da9146102b5578063e396e78f146102c8578063ed211023146102db578063f045a769146102fb57600080fd5b80637e2cd24a1461023a5780637f7df34e1461024d5780638041494e14610260578063893d20e8146102735780638bb9c5bf1461027b57600080fd5b80634c9e93b11161010a5780634c9e93b1146101b85780635171ebd4146101cb5780636be8496f146101de578063735dc1e3146101f15780637c67d747146102045780637e063c5a1461021757600080fd5b8063103f6edd1461014757806319d61ad91461016a5780631b6ea9f91461017f5780633da9a600146101925780634a14beb1146101a5575b600080fd5b61014f610303565b60405164ffffffffff90911681526020015b60405180910390f35b61017d6101783660046131f5565b61038f565b005b61017d61018d3660046131f5565b610423565b61017d6101a0366004613217565b610448565b61017d6101b3366004613217565b610563565b61017d6101c6366004613248565b610753565b61017d6101d93660046131f5565b610a0b565b61017d6101ec366004613274565b610a30565b61017d6101ff3660046132a0565b610ae2565b61017d6102123660046131f5565b610bf2565b61022a6102253660046131f5565b610d4e565b6040519015158152602001610161565b61017d6102483660046132d9565b610de9565b61017d61025b36600461330e565b61113f565b61017d61026e366004613217565b6114d3565b61014f6116b8565b61017d610289366004613217565b6116f3565b61017d61029c366004613352565b61174c565b60028054600160f01b900460ff161461022a565b61017d6102c3366004613370565b6119bc565b61017d6102d6366004613248565b611a9f565b6102e3612105565b6040516001600160a01b039091168152602001610161565b61017d61218b565b60405163e8c0cc1d60e01b81526002600482015260009073__$364aad554dc80380f414546becdd2c1584$__9063e8c0cc1d906024015b60206040518083038186803b15801561035257600080fd5b505af4158015610366573d6000803e3d6000fd5b505050506040513d601f19601f8201168201806040525081019061038a91906133dd565b905090565b73__$364aad554dc80380f414546becdd2c1584$__6382daafaa6002846103b46123a9565b6040516001600160e01b031960e086901b1681526004810193909352602483019190915264ffffffffff166044820152606481018490526084015b60006040518083038186803b15801561040757600080fd5b505af415801561041b573d6000803e3d6000fd5b505050505050565b73__$364aad554dc80380f414546becdd2c1584$__636320d75e6002846103b46123a9565b604051633b11adbf60e21b81526002600482015233602482015273__$364aad554dc80380f414546becdd2c1584$__9063ec46b6fc9060440160206040518083038186803b15801561049957600080fd5b505af41580156104ad573d6000803e3d6000fd5b505050506040513d601f19601f820116820180604052508101906104d19190613408565b6104f65760405162461bcd60e51b81526004016104ed90613423565b60405180910390fd5b60405163cc99e11b60e01b8152600260048201526024810182905273__$364aad554dc80380f414546becdd2c1584$__9063cc99e11b9060440160006040518083038186803b15801561054857600080fd5b505af415801561055c573d6000803e3d6000fd5b5050505050565b604051633b11adbf60e21b81526002600482015233602482015273__$364aad554dc80380f414546becdd2c1584$__9063ec46b6fc9060440160206040518083038186803b1580156105b457600080fd5b505af41580156105c8573d6000803e3d6000fd5b505050506040513d601f19601f820116820180604052508101906105ec9190613408565b80610691575073__$364aad554dc80380f414546becdd2c1584$__63fe27108660026106166123a9565b6040516001600160e01b031960e085901b168152600481019290925264ffffffffff16602482015260440160206040518083038186803b15801561065957600080fd5b505af415801561066d573d6000803e3d6000fd5b505050506040513d601f19601f820116820180604052508101906106919190613408565b6106ad5760405162461bcd60e51b81526004016104ed90613469565b604051632725ebef60e21b8152600260048201526024810182905273__$364aad554dc80380f414546becdd2c1584$__90639c97afbc9060440160006040518083038186803b1580156106ff57600080fd5b505af4158015610713573d6000803e3d6000fd5b505050507ff2735f34b69be1e6342dea95f9162f84d0db925fab655ca9f1f312ac8cbfc99d8160405161074891815260200190565b60405180910390a150565b604051633b11adbf60e21b81526002600482015233602482015273__$364aad554dc80380f414546becdd2c1584$__9063ec46b6fc9060440160206040518083038186803b1580156107a457600080fd5b505af41580156107b8573d6000803e3d6000fd5b505050506040513d601f19601f820116820180604052508101906107dc9190613408565b6107f85760405162461bcd60e51b81526004016104ed90613423565b8181801580159061087f575080826001600160a01b031663893d20e86040518163ffffffff1660e01b815260040160206040518083038186803b15801561083e57600080fd5b505afa158015610852573d6000803e3d6000fd5b505050506040513d601f19601f8201168201806040525081019061087691906133dd565b64ffffffffff16145b6108b75760405162461bcd60e51b81526020600482015260096024820152683737ba1027bbb732b960b91b60448201526064016104ed565b8360036108c2612403565b60405163de154c2760e01b81526001600160a01b038481166004830152919091169063de154c279060240160c06040518083038186803b15801561090557600080fd5b505afa158015610919573d6000803e3d6000fd5b505050506040513d601f19601f8201168201806040525081019061093d9190613594565b60a0015160ff16141561099e5760405162461bcd60e51b815260206004820152602360248201527f424f484b2e6d662e4e453a20446f6320414c52454144592045737461626c69736044820152621a195960ea1b60648201526084016104ed565b6109a6612403565b604051636a10c37d60e11b81526001600160a01b038781166004830152919091169063d42186fa906024015b600060405180830381600087803b1580156109ec57600080fd5b505af1158015610a00573d6000803e3d6000fd5b505050505050505050565b73__$364aad554dc80380f414546becdd2c1584$__63ee98b3136002846103b46123a9565b604051630f07232560e01b8152600260048201523360248201526001600160a01b038216604482015273__$364aad554dc80380f414546becdd2c1584$__90630f0723259060640160006040518083038186803b158015610a9057600080fd5b505af4158015610aa4573d6000803e3d6000fd5b50506040516001600160a01b03841681527fe435cbeab64e4eae6497b9d8289704bd709d624a80704ef3ca9af777534bc6ec92506020019050610748565b604051633b11adbf60e21b81526002600482015233602482015273__$364aad554dc80380f414546becdd2c1584$__9063ec46b6fc9060440160206040518083038186803b158015610b3357600080fd5b505af4158015610b47573d6000803e3d6000fd5b505050506040513d601f19601f82011682018060405250810190610b6b9190613408565b610b875760405162461bcd60e51b81526004016104ed90613423565b610b8f612403565b6040516316e1d79b60e31b81526001600160a01b03848116600483015260ff84166024830152919091169063b70ebcd8906044015b600060405180830381600087803b158015610bde57600080fd5b505af115801561041b573d6000803e3d6000fd5b604051633b11adbf60e21b81526002600482015233602482015273__$364aad554dc80380f414546becdd2c1584$__9063ec46b6fc9060440160206040518083038186803b158015610c4357600080fd5b505af4158015610c57573d6000803e3d6000fd5b505050506040513d601f19601f82011682018060405250810190610c7b9190613408565b610c975760405162461bcd60e51b81526004016104ed90613423565b610c9f612467565b6040516350a31ef960e01b81526000600482018190526024820152604481018390526001600160a01b0391909116906350a31ef990606401600060405180830381600087803b158015610cf157600080fd5b505af1158015610d05573d6000803e3d6000fd5b50505050610d11612467565b604051630cac562d60e11b81526000600482015260248101839052604481018490526001600160a01b039190911690631958ac5a90606401610bc4565b604051632a3be56b60e21b815260026004820152602481018390526044810182905260009073__$364aad554dc80380f414546becdd2c1584$__9063a8ef95ac9060640160206040518083038186803b158015610daa57600080fd5b505af4158015610dbe573d6000803e3d6000fd5b505050506040513d601f19601f82011682018060405250810190610de29190613408565b9392505050565b604051633b11adbf60e21b81526002600482015233602482015273__$364aad554dc80380f414546becdd2c1584$__9063ec46b6fc9060440160206040518083038186803b158015610e3a57600080fd5b505af4158015610e4e573d6000803e3d6000fd5b505050506040513d601f19601f82011682018060405250810190610e729190613408565b610e8e5760405162461bcd60e51b81526004016104ed90613423565b6040516308c5f91760e41b815260048101829052839082906001600160a01b03831690638c5f91709060240160206040518083038186803b158015610ed257600080fd5b505afa158015610ee6573d6000803e3d6000fd5b505050506040513d601f19601f82011682018060405250810190610f0a9190613408565b610f495760405162461bcd60e51b815260206004820152601060248201526f4e4f54205061727479206f6620446f6360801b60448201526064016104ed565b6002610f53612403565b60405163de154c2760e01b81526001600160a01b038881166004830152919091169063de154c279060240160c06040518083038186803b158015610f9657600080fd5b505afa158015610faa573d6000803e3d6000fd5b505050506040513d601f19601f82011682018060405250810190610fce9190613594565b60a0015160ff16146110225760405162461bcd60e51b815260206004820152601b60248201527f534841206e6f7420696e2043697263756c61746564205374617465000000000060448201526064016104ed565b604051630cac562d60e11b81526001600482015260248101849052604481018590526001600160a01b03861690631958ac5a90606401600060405180830381600087803b15801561107257600080fd5b505af1158015611086573d6000803e3d6000fd5b50505050846001600160a01b0316634844f5416040518163ffffffff1660e01b815260040160206040518083038186803b1580156110c357600080fd5b505afa1580156110d7573d6000803e3d6000fd5b505050506040513d601f19601f820116820180604052508101906110fb9190613408565b1561055c57611108612403565b60405163108fac0b60e11b81526001600160a01b03878116600483015260036024830152919091169063211f5816906044016109d2565b604051633b11adbf60e21b81526002600482015233602482015273__$364aad554dc80380f414546becdd2c1584$__9063ec46b6fc9060440160206040518083038186803b15801561119057600080fd5b505af41580156111a4573d6000803e3d6000fd5b505050506040513d601f19601f820116820180604052508101906111c89190613408565b6111e45760405162461bcd60e51b81526004016104ed90613423565b8481801580159061126b575080826001600160a01b031663893d20e86040518163ffffffff1660e01b815260040160206040518083038186803b15801561122a57600080fd5b505afa15801561123e573d6000803e3d6000fd5b505050506040513d601f19601f8201168201806040525081019061126291906133dd565b64ffffffffff16145b6112a35760405162461bcd60e51b81526020600482015260096024820152683737ba1027bbb732b960b91b60448201526064016104ed565b866001600160a01b0316638969d43a6040518163ffffffff1660e01b8152600401600060405180830381600087803b1580156112de57600080fd5b505af11580156112f2573d6000803e3d6000fd5b5050604051634020a4a760e11b8152600060048201526001600160a01b038a169250638041494e9150602401600060405180830381600087803b15801561133857600080fd5b505af115801561134c573d6000803e3d6000fd5b50505050600061135a612467565b6001600160a01b03166348462037886040518263ffffffff1660e01b815260040161138791815260200190565b60206040518083038186803b15801561139f57600080fd5b505afa1580156113b3573d6000803e3d6000fd5b505050506040513d601f19601f820116820180604052508101906113d79190613636565b604051634281ec6b60e11b8152600481019190915273__$9d2c69e94fee47b9774dc8db4aa5c0bbec$__90638503d8d6906024016102206040518083038186803b15801561142457600080fd5b505af4158015611438573d6000803e3d6000fd5b505050506040513d601f19601f8201168201806040525081019061145c919061373a565b9050611466612403565b6001600160a01b0316638c32f23d898389896040518563ffffffff1660e01b81526004016114979493929190613887565b600060405180830381600087803b1580156114b157600080fd5b505af11580156114c5573d6000803e3d6000fd5b505050505050505050505050565b604051633b11adbf60e21b81526002600482015233602482015273__$364aad554dc80380f414546becdd2c1584$__9063ec46b6fc9060440160206040518083038186803b15801561152457600080fd5b505af4158015611538573d6000803e3d6000fd5b505050506040513d601f19601f8201168201806040525081019061155c9190613408565b80611601575073__$364aad554dc80380f414546becdd2c1584$__63fe27108660026115866123a9565b6040516001600160e01b031960e085901b168152600481019290925264ffffffffff16602482015260440160206040518083038186803b1580156115c957600080fd5b505af41580156115dd573d6000803e3d6000fd5b505050506040513d601f19601f820116820180604052508101906116019190613408565b61161d5760405162461bcd60e51b81526004016104ed90613469565b60405163b6e38a2960e01b8152600260048201526024810182905273__$364aad554dc80380f414546becdd2c1584$__9063b6e38a299060440160006040518083038186803b15801561166f57600080fd5b505af4158015611683573d6000803e3d6000fd5b505050507f8b6f40f36b4ae8cc5f55e895036457c43da4ab1f80f58c46f5ff0d72a650033b8160405161074891815260200190565b60405163987ad15360e01b81526002600482015260009073__$364aad554dc80380f414546becdd2c1584$__9063987ad1539060240161033a565b60006116fd6123a9565b60405163cc0d511b60e01b8152600260048201526024810184905264ffffffffff8216604482015290915073__$364aad554dc80380f414546becdd2c1584$__9063cc0d511b906064016103ef565b604051633b11adbf60e21b81526002600482015233602482015273__$364aad554dc80380f414546becdd2c1584$__9063ec46b6fc9060440160206040518083038186803b15801561179d57600080fd5b505af41580156117b1573d6000803e3d6000fd5b505050506040513d601f19601f820116820180604052508101906117d59190613408565b6117f15760405162461bcd60e51b81526004016104ed90613423565b6117f96124a9565b6001600160a01b031663d50c7377826040518263ffffffff1660e01b815260040161182691815260200190565b60206040518083038186803b15801561183e57600080fd5b505afa158015611852573d6000803e3d6000fd5b505050506040513d601f19601f820116820180604052508101906118769190613408565b6118af5760405162461bcd60e51b815260206004820152600a6024820152693737ba1026a2a6a122a960b11b60448201526064016104ed565b60006118b9612403565b6040516324344f1160e01b815260ff85166004820152602481018490526001600160a01b0391909116906324344f1190604401602060405180830381600087803b15801561190657600080fd5b505af115801561191a573d6000803e3d6000fd5b505050506040513d601f19601f8201168201806040525081019061193e91906139bd565b60005460015460405163dc890da960e01b8152600481018690523060248201526001600160a01b039283166044820152908216606482015291925082169063dc890da990608401600060405180830381600087803b15801561199f57600080fd5b505af11580156119b3573d6000803e3d6000fd5b50505050505050565b6119c5826124c4565b6119ce81612573565b604051636cdd0edf60e11b815260026004820152602481018590526001600160a01b038416604482015273__$364aad554dc80380f414546becdd2c1584$__9063d9ba1dbe9060640160006040518083038186803b158015611a2f57600080fd5b505af4158015611a43573d6000803e3d6000fd5b5050604080518781526001600160a01b038781166020830152868116828401528516606082015290517f3abb2418c66fe32ba9c883030a75ce583971d9af9192b9b74e44e67c5e6c8c1f9350908190036080019150a150505050565b604051633b11adbf60e21b81526002600482015233602482015273__$364aad554dc80380f414546becdd2c1584$__9063ec46b6fc9060440160206040518083038186803b158015611af057600080fd5b505af4158015611b04573d6000803e3d6000fd5b505050506040513d601f19601f82011682018060405250810190611b289190613408565b611b445760405162461bcd60e51b81526004016104ed90613423565b6040516308c5f91760e41b815260048101829052829082906001600160a01b03831690638c5f91709060240160206040518083038186803b158015611b8857600080fd5b505afa158015611b9c573d6000803e3d6000fd5b505050506040513d601f19601f82011682018060405250810190611bc09190613408565b611bff5760405162461bcd60e51b815260206004820152601060248201526f4e4f54205061727479206f6620446f6360801b60448201526064016104ed565b6000611c09612403565b90506000611c156124a9565b60405163de154c2760e01b81526001600160a01b03888116600483015291925060039184169063de154c279060240160c06040518083038186803b158015611c5c57600080fd5b505afa158015611c70573d6000803e3d6000fd5b505050506040513d601f19601f82011682018060405250810190611c949190613594565b60a0015160ff1614611ce85760405162461bcd60e51b815260206004820152601d60248201527f424f484b2e45533a20534841206e6f742065786563757465642079657400000060448201526064016104ed565b611cf18661262a565b80611d005750611d0086612780565b611d625760405162461bcd60e51b815260206004820152602d60248201527f424f484b2e45533a205348412065666665637469766520636f6e646974696f6e60448201526c1cc81b9bdd081c995858da1959609a1b60648201526084016104ed565b604051639f4d332f60e01b81526001600160a01b038781166004830152831690639f4d332f90602401600060405180830381600087803b158015611da557600080fd5b505af1158015611db9573d6000803e3d6000fd5b5050604051634846203760e01b815260006004820181905292506001600160a01b038916915063484620379060240160206040518083038186803b158015611e0057600080fd5b505afa158015611e14573d6000803e3d6000fd5b505050506040513d601f19601f82011682018060405250810190611e389190613636565b604051633d315f5b60e21b8152600481019190915273__$9d2c69e94fee47b9774dc8db4aa5c0bbec$__9063f4c57d6c906024016101006040518083038186803b158015611e8557600080fd5b505af4158015611e99573d6000803e3d6000fd5b505050506040513d601f19601f82011682018060405250810190611ebd91906139da565b6060810151604051636d3521eb60e11b815290151560048201529091506001600160a01b0383169063da6a43d690602401600060405180830381600087803b158015611f0857600080fd5b505af1158015611f1c573d6000803e3d6000fd5b505050506060810151604051635ee1b7b160e11b815290151560048201526001600160a01b0383169063bdc36f6290602401600060405180830381600087803b158015611f6857600080fd5b505af1158015611f7c573d6000803e3d6000fd5b50505050611f88612aa7565b60a0820151604051600162883fab60e01b0319815260ff90911660048201526001600160a01b03919091169063ff77c05590602401600060405180830381600087803b158015611fd757600080fd5b505af1158015611feb573d6000803e3d6000fd5b5050604051637176544960e01b8152600160048201526001600160a01b038a1692506371765449915060240160206040518083038186803b15801561202f57600080fd5b505afa158015612043573d6000803e3d6000fd5b505050506040513d601f19601f820116820180604052508101906120679190613408565b156120755761207587612ac5565b604051637176544960e01b8152600560048201526001600160a01b0388169063717654499060240160206040518083038186803b1580156120b557600080fd5b505afa1580156120c9573d6000803e3d6000fd5b505050506040513d601f19601f820116820180604052508101906120ed9190613408565b156120fb576120fb87612d11565b6119b38783612dc6565b604051633c3e56c160e11b81526002600482015260009073__$364aad554dc80380f414546becdd2c1584$__9063787cad829060240160206040518083038186803b15801561215357600080fd5b505af4158015612167573d6000803e3d6000fd5b505050506040513d601f19601f8201168201806040525081019061038a91906139bd565b604051633b11adbf60e21b81526002600482015233602482015273__$364aad554dc80380f414546becdd2c1584$__9063ec46b6fc9060440160206040518083038186803b1580156121dc57600080fd5b505af41580156121f0573d6000803e3d6000fd5b505050506040513d601f19601f820116820180604052508101906122149190613408565b6122305760405162461bcd60e51b81526004016104ed90613423565b600254600160f01b900460ff1660011461228c5760405162461bcd60e51b815260206004820181905260248201527f41432e6f6e6c7950656e64696e673a20446f632069732066696e616c697a656460448201526064016104ed565b60405163cc99e11b60e01b815260026004820152684174746f726e65797360b81b602482015273__$364aad554dc80380f414546becdd2c1584$__9063cc99e11b9060440160006040518083038186803b1580156122e957600080fd5b505af41580156122fd573d6000803e3d6000fd5b5050604051632725ebef60e21b8152600260048201526000602482015273__$364aad554dc80380f414546becdd2c1584$__9250639c97afbc915060440160006040518083038186803b15801561235357600080fd5b505af4158015612367573d6000803e3d6000fd5b50506002805460ff60f01b1916600160f11b17905550506040517f35012b512309c322acf68632cd6cb702ff0e1d776fbe9394e38ffc13b434fe7590600090a1565b60008054604051634de835e760e11b81523360048201526001600160a01b0390911690639bd06bce90602401602060405180830381600087803b1580156123ef57600080fd5b505af1158015610366573d6000803e3d6000fd5b6001546000906001600160a01b031663e0ff5b8b60035b6040516001600160e01b031960e084901b16815260ff909116600482015260240160206040518083038186803b15801561245357600080fd5b505afa158015612167573d6000803e3d6000fd5b6000612471612403565b6001600160a01b0316632f5f3b3c6040518163ffffffff1660e01b815260040160206040518083038186803b15801561245357600080fd5b6001546000906001600160a01b031663e0ff5b8b600761241a565b6000546001600160a01b0316156125155760405162461bcd60e51b815260206004820152601560248201527430b63932b0b23c9039b2ba103932b3a1b2b73a32b960591b60448201526064016104ed565b6040516001600160a01b03821681527f318da6c7624c71cbc0afe346c9d8827f119d0ecefb241a7b0c87217a076a8e029060200160405180910390a1600080546001600160a01b0319166001600160a01b0392909216919091179055565b6001546001600160a01b0316156125cc5760405162461bcd60e51b815260206004820152601960248201527f616c7265616479207365742067656e6572616c4b65657065720000000000000060448201526064016104ed565b6040516001600160a01b03821681527fe513d3e0f0d0a3877029dcc588748679a7a3450ec1ec7ed56d96bd012c3e61aa9060200160405180910390a1600180546001600160a01b0319166001600160a01b0392909216919091179055565b6000806126356124a9565b6001600160a01b031663dd5042f46040518163ffffffff1660e01b815260040160006040518083038186803b15801561266d57600080fd5b505afa158015612681573d6000803e3d6000fd5b505050506040513d6000823e601f3d908101601f191682016040526126a99190810190613aa3565b80519091505b8015612776576001600160a01b038416638c5f9170836126d0600185613b5e565b815181106126e0576126e0613b75565b60200260200101516040518263ffffffff1660e01b815260040161270691815260200190565b60206040518083038186803b15801561271e57600080fd5b505afa158015612732573d6000803e3d6000fd5b505050506040513d601f19601f820116820180604052508101906127569190613408565b612764575060009392505050565b8061276e81613b8b565b9150506126af565b5060019392505050565b600080826001600160a01b031663a8311aa86040518163ffffffff1660e01b815260040160006040518083038186803b1580156127bc57600080fd5b505afa1580156127d0573d6000803e3d6000fd5b505050506040513d6000823e601f3d908101601f191682016040526127f89190810190613aa3565b80519091506000612807612467565b604051634846203760e01b8152600060048201526001600160a01b03919091169063484620379060240160206040518083038186803b15801561284957600080fd5b505afa15801561285d573d6000803e3d6000fd5b505050506040513d601f19601f820116820180604052508101906128819190613636565b604051633d315f5b60e21b8152600481019190915273__$9d2c69e94fee47b9774dc8db4aa5c0bbec$__9063f4c57d6c906024016101006040518083038186803b1580156128ce57600080fd5b505af41580156128e2573d6000803e3d6000fd5b505050506040513d601f19601f8201168201806040525081019061290691906139da565b905060006127106129156124a9565b6001600160a01b0316630d15fd776040518163ffffffff1660e01b815260040160206040518083038186803b15801561294d57600080fd5b505afa158015612961573d6000803e3d6000fd5b505050506040513d601f19601f820116820180604052508101906129859190613bb9565b8360e0015161ffff166129989190613bd4565b6129a29190613c03565b905060005b8315612a9a576129b56124a9565b6001600160a01b031663c2d7616e866129cf600188613b5e565b815181106129df576129df613b75565b60200260200101516040518263ffffffff1660e01b8152600401612a0591815260200190565b60206040518083038186803b158015612a1d57600080fd5b505afa158015612a31573d6000803e3d6000fd5b505050506040513d601f19601f82011682018060405250810190612a559190613bb9565b612a5f9082613c37565b9050816001600160401b0316816001600160401b03161115612a88575060019695505050505050565b83612a9281613b8b565b9450506129a7565b5060009695505050505050565b600180546000916001600160a01b039091169063e0ff5b8b9061241a565b60405163346ba94160e01b8152600560048201526000906001600160a01b0383169063346ba9419060240160206040518083038186803b158015612b0857600080fd5b505afa158015612b1c573d6000803e3d6000fd5b505050506040513d601f19601f82011682018060405250810190612b4091906139bd565b6001600160a01b031663e95502fb6040518163ffffffff1660e01b815260040160006040518083038186803b158015612b7857600080fd5b505afa158015612b8c573d6000803e3d6000fd5b505050506040513d6000823e601f3d908101601f19168201604052612bb49190810190613aa3565b80519091505b8015612d0c576000612bca6131bf565b905060006001600160a01b03821663cfb5a5f885612be9600187613b5e565b81518110612bf957612bf9613b75565b60200260200101516040518263ffffffff1660e01b8152600401612c1f91815260200190565b6101806040518083038186803b158015612c3857600080fd5b505afa158015612c4c573d6000803e3d6000fd5b505050506040513d601f19601f82011682018060405250810190612c709190613cf5565b8051516020808301518051910151604051634bacf96160e01b815263ffffffff90931660048401526001600160401b0391821660248401521660448201529091506001600160a01b03831690634bacf96190606401600060405180830381600087803b158015612cdf57600080fd5b505af1158015612cf3573d6000803e3d6000fd5b505050508280612d0290613b8b565b9350505050612bba565b505050565b60405163346ba94160e01b8152600560048201526000906001600160a01b0383169063346ba9419060240160206040518083038186803b158015612d5457600080fd5b505afa158015612d68573d6000803e3d6000fd5b505050506040513d601f19601f82011682018060405250810190612d8c91906139bd565b9050612d966131da565b604051636ca5cc5d60e01b81526001600160a01b0383811660048301529190911690636ca5cc5d90602401610bc4565b604051634846203760e01b815261030060048201526000906001600160a01b0384169063484620379060240160206040518083038186803b158015612e0a57600080fd5b505afa158015612e1e573d6000803e3d6000fd5b505050506040513d601f19601f82011682018060405250810190612e429190613636565b6040516314b2794360e01b8152600481019190915273__$9d2c69e94fee47b9774dc8db4aa5c0bbec$__906314b27943906024016101206040518083038186803b158015612e8f57600080fd5b505af4158015612ea3573d6000803e3d6000fd5b505050506040513d601f19601f82011682018060405250810190612ec79190613dcc565b6020015160ff16905060005b818110156131b95760006001600160a01b0385166348462037612ef884610300613e73565b6040518263ffffffff1660e01b8152600401612f1691815260200190565b60206040518083038186803b158015612f2e57600080fd5b505afa158015612f42573d6000803e3d6000fd5b505050506040513d601f19601f82011682018060405250810190612f669190613636565b6040516314b2794360e01b8152600481019190915273__$9d2c69e94fee47b9774dc8db4aa5c0bbec$__906314b27943906024016101206040518083038186803b158015612fb357600080fd5b505af4158015612fc7573d6000803e3d6000fd5b505050506040513d601f19601f82011682018060405250810190612feb9190613dcc565b905060008160600151156130d2575b60048110156130cd5760008260a00151826004811061301b5761301b613b75565b602002015164ffffffffff1611156130bb57846001600160a01b031663a7ec068f8360a00151836004811061305257613052613b75565b602002015160808501516040516001600160e01b031960e085901b16815264ffffffffff928316600482015291166024820152604401600060405180830381600087803b1580156130a257600080fd5b505af11580156130b6573d6000803e3d6000fd5b505050505b806130c581613e8b565b915050612ffa565b6131a5565b60048110156131a55760008260a0015182600481106130f3576130f3613b75565b602002015164ffffffffff16111561319357846001600160a01b031663dd8a18e98360a00151836004811061312a5761312a613b75565b602002015160808501516040516001600160e01b031960e085901b16815264ffffffffff928316600482015291166024820152604401600060405180830381600087803b15801561317a57600080fd5b505af115801561318e573d6000803e3d6000fd5b505050505b8061319d81613e8b565b9150506130d2565b826131af81613e8b565b9350505050612ed3565b50505050565b6001546000906001600160a01b031663e0ff5b8b600661241a565b6001546000906001600160a01b031663e0ff5b8b600461241a565b6000806040838503121561320857600080fd5b50508035926020909101359150565b60006020828403121561322957600080fd5b5035919050565b6001600160a01b038116811461324557600080fd5b50565b6000806040838503121561325b57600080fd5b823561326681613230565b946020939093013593505050565b60006020828403121561328657600080fd5b8135610de281613230565b60ff8116811461324557600080fd5b600080604083850312156132b357600080fd5b82356132be81613230565b915060208301356132ce81613291565b809150509250929050565b6000806000606084860312156132ee57600080fd5b83356132f981613230565b95602085013595506040909401359392505050565b600080600080600060a0868803121561332657600080fd5b853561333181613230565b97602087013597506040870135966060810135965060800135945092505050565b6000806040838503121561336557600080fd5b823561326681613291565b6000806000806080858703121561338657600080fd5b84359350602085013561339881613230565b925060408501356133a881613230565b915060608501356133b881613230565b939692955090935050565b805164ffffffffff811681146133d857600080fd5b919050565b6000602082840312156133ef57600080fd5b610de2826133c3565b805180151581146133d857600080fd5b60006020828403121561341a57600080fd5b610de2826133f8565b60208082526026908201527f41432e6f6e6c794469726563744b65657065723a206e6f74206469726563742060408201526535b2b2b832b960d11b606082015260800190565b60208082526036908201527f41432e6f776e65724f72446972656374426f6f6b65657065723a206e6569746860408201527532b91037bbb732b9103737b9103137b7b5b2b2b832b960511b606082015260800190565b634e487b7160e01b600052604160045260246000fd5b6040516101e081016001600160401b03811182821017156134f8576134f86134bf565b60405290565b604080519081016001600160401b03811182821017156134f8576134f86134bf565b60405161010081016001600160401b03811182821017156134f8576134f86134bf565b604051601f8201601f191681016001600160401b038111828210171561356b5761356b6134bf565b604052919050565b80516133d881613291565b805165ffffffffffff811681146133d857600080fd5b600060c082840312156135a657600080fd5b60405160c081018181106001600160401b03821117156135c8576135c86134bf565b60405282516135d681613291565b81526135e4602084016133c3565b60208201526135f56040840161357e565b60408201526136066060840161357e565b60608201526136176080840161357e565b608082015260a083015161362a81613291565b60a08201529392505050565b60006020828403121561364857600080fd5b5051919050565b805161ffff811681146133d857600080fd5b6000604051608081018181106001600160401b0382111715613685576136856134bf565b604052905080608083018481111561369c57600080fd5b835b818110156136bd576136af816133c3565b83526020928301920161369e565b50505092915050565b600082601f8301126136d757600080fd5b604051606081018181106001600160401b03821117156136f9576136f96134bf565b60405280606084018581111561370e57600080fd5b845b8181101561372f57613721816133c3565b835260209283019201613710565b509195945050505050565b6000610220828403121561374d57600080fd5b6137556134d5565b61375e8361364f565b815261376c60208401613573565b602082015261377d60408401613573565b604082015261378e60608401613573565b606082015261379f6080840161364f565b60808201526137b060a0840161364f565b60a08201526137c160c084016133f8565b60c08201526137d260e084016133f8565b60e08201526101006137e58185016133f8565b908201526101206137f78482016133f8565b90820152610140613809848201613573565b9082015261016061381b848201613573565b9082015261018061382d848201613573565b908201526101a061383f848201613573565b908201526101c0613852858583016136c6565b908201529392505050565b8060005b60038110156131b957815164ffffffffff16845260209384019390910190600101613861565b6001600160a01b0385168152835161ffff1660208201526102808101602085015160ff8116604084015250604085015160ff8116606084015250606085015160ff8116608084015250608085015161ffff811660a08401525060a085015161ffff811660c08401525060c085015180151560e08401525060e08501516101006139138185018315159052565b86015190506101206139288482018315159052565b860151905061014061393d8482018315159052565b86015190506101606139538482018360ff169052565b86015190506101806139698482018360ff169052565b86015190506101a061397f8482018360ff169052565b86015190506101c06139958482018360ff169052565b86015190506139a86101e084018261385d565b50610240820193909352610260015292915050565b6000602082840312156139cf57600080fd5b8151610de281613230565b60006101008083850312156139ee57600080fd5b604051908101906001600160401b0382118183101715613a1057613a106134bf565b81604052613a1d8461364f565b815260208401519150613a2f82613291565b816020820152613a4160408501613573565b6040820152613a52606085016133f8565b6060820152613a636080850161364f565b6080820152613a7460a08501613573565b60a0820152613a8560c08501613573565b60c0820152613a9660e0850161364f565b60e0820152949350505050565b60006020808385031215613ab657600080fd5b82516001600160401b0380821115613acd57600080fd5b818501915085601f830112613ae157600080fd5b815181811115613af357613af36134bf565b8060051b9150613b04848301613543565b8181529183018401918481019088841115613b1e57600080fd5b938501935b83851015613b3c57845182529385019390850190613b23565b98975050505050505050565b634e487b7160e01b600052601160045260246000fd5b600082821015613b7057613b70613b48565b500390565b634e487b7160e01b600052603260045260246000fd5b600081613b9a57613b9a613b48565b506000190190565b80516001600160401b03811681146133d857600080fd5b600060208284031215613bcb57600080fd5b610de282613ba2565b60006001600160401b0380831681851681830481118215151615613bfa57613bfa613b48565b02949350505050565b60006001600160401b0380841680613c2b57634e487b7160e01b600052601260045260246000fd5b92169190910492915050565b60006001600160401b03808316818516808303821115613c5957613c59613b48565b01949350505050565b805163ffffffff811681146133d857600080fd5b600060808284031215613c8857600080fd5b604051608081018181106001600160401b0382111715613caa57613caa6134bf565b604052905080613cb983613ba2565b8152613cc760208401613ba2565b6020820152613cd860408401613ba2565b6040820152613ce960608401613ba2565b60608201525092915050565b6000818303610180811215613d0957600080fd5b613d116134fe565b61010080831215613d2157600080fd5b613d29613520565b9250613d3485613c62565b8352613d4260208601613c62565b6020840152613d536040860161364f565b6040840152613d646060860161357e565b6060840152613d756080860161357e565b6080840152613d8660a086016133c3565b60a0840152613d9760c08601613c62565b60c084015260e0850151613daa81613291565b60e0840152828252613dbe86868301613c76565b602083015250949350505050565b60006101208284031215613ddf57600080fd5b60405160c081018181106001600160401b0382111715613e0157613e016134bf565b604052613e0d8361364f565b81526020830151613e1d81613291565b60208201526040830151613e3081613291565b6040820152613e41606084016133f8565b6060820152613e52608084016133c3565b60808201528360bf840112613e6657600080fd5b61362a8460a08501613661565b60008219821115613e8657613e86613b48565b500190565b6000600019821415613e9f57613e9f613b48565b506001019056fea2646970667358221220a8c2449181c36a962babf55a55e86e02a3e34d6b9db7a1c554215ed371bb11d464736f6c63430008080033",
    "sourcePath": "/Users/kaptain/github.com/hardhat/comboox/contracts/keepers/BOHKeeper.sol",
    "compiler": {
        "name": "solc",
        "version": "0.8.8+commit.dddeac2f"
    },
    "functionHashes": {
        "abandonRole(bytes32)": "3da9a600",
        "acceptSHA(bytes32,uint256)": "7c67d747",
        "circulateSHA(address,uint256,bytes32,bytes32,uint256)": "7f7df34e",
        "createSHA(uint8,uint256)": "a98e976d",
        "effectiveSHA(address,uint256)": "e396e78f",
        "finalized()": "b3f05b97",
        "getBookeeper()": "ed211023",
        "getGeneralCounsel()": "103f6edd",
        "getOwner()": "893d20e8",
        "grantRole(bytes32,uint256)": "1b6ea9f9",
        "hasRole(bytes32,uint256)": "7e063c5a",
        "init(uint256,address,address,address)": "dc890da9",
        "lockContents()": "f045a769",
        "removeSHA(address,uint256)": "4c9e93b1",
        "renounceRole(bytes32)": "8bb9c5bf",
        "revokeRole(bytes32,uint256)": "19d61ad9",
        "setDirectKeeper(address)": "6be8496f",
        "setGeneralCounsel(uint256)": "4a14beb1",
        "setOwner(uint256)": "8041494e",
        "setRoleAdmin(bytes32,uint256)": "5171ebd4",
        "setTempOfBOH(address,uint8)": "735dc1e3",
        "signSHA(address,bytes32,uint256)": "7e2cd24a"
    },
    "gasEstimates": {
        "creation": {
            "codeDepositCost": "3218400",
            "executionCost": "3563",
            "totalCost": "3221963"
        },
        "external": {
            "abandonRole(bytes32)": "infinite",
            "acceptSHA(bytes32,uint256)": "infinite",
            "circulateSHA(address,uint256,bytes32,bytes32,uint256)": "infinite",
            "createSHA(uint8,uint256)": "infinite",
            "effectiveSHA(address,uint256)": "infinite",
            "finalized()": "2371",
            "getBookeeper()": "infinite",
            "getGeneralCounsel()": "infinite",
            "getOwner()": "infinite",
            "grantRole(bytes32,uint256)": "infinite",
            "hasRole(bytes32,uint256)": "infinite",
            "init(uint256,address,address,address)": "infinite",
            "lockContents()": "infinite",
            "removeSHA(address,uint256)": "infinite",
            "renounceRole(bytes32)": "infinite",
            "revokeRole(bytes32,uint256)": "infinite",
            "setDirectKeeper(address)": "infinite",
            "setGeneralCounsel(uint256)": "infinite",
            "setOwner(uint256)": "infinite",
            "setRoleAdmin(bytes32,uint256)": "infinite",
            "setTempOfBOH(address,uint8)": "infinite",
            "signSHA(address,bytes32,uint256)": "infinite"
        },
        "internal": {
            "_allMembersSigned(address)": "infinite",
            "_lockUpShares(address)": "infinite",
            "_reachedEffectiveThreshold(address)": "infinite",
            "_regOptionTerms(address)": "infinite",
            "_updateGrouping(address,contract IRegisterOfMembers)": "infinite"
        }
    }
}