{
    "contractName": "BOHKeeper",
    "abi": [
        {
            "anonymous": false,
            "inputs": [
                {
                    "indexed": false,
                    "internalType": "uint40",
                    "name": "owner",
                    "type": "uint40"
                },
                {
                    "indexed": false,
                    "internalType": "address",
                    "name": "directKeeper",
                    "type": "address"
                },
                {
                    "indexed": false,
                    "internalType": "address",
                    "name": "regCenter",
                    "type": "address"
                },
                {
                    "indexed": false,
                    "internalType": "address",
                    "name": "generalKeeper",
                    "type": "address"
                }
            ],
            "name": "Init",
            "type": "event"
        },
        {
            "anonymous": false,
            "inputs": [],
            "name": "LockContents",
            "type": "event"
        },
        {
            "anonymous": false,
            "inputs": [
                {
                    "indexed": false,
                    "internalType": "address",
                    "name": "keeper",
                    "type": "address"
                }
            ],
            "name": "SetDirectKeeper",
            "type": "event"
        },
        {
            "anonymous": false,
            "inputs": [
                {
                    "indexed": false,
                    "internalType": "uint256",
                    "name": "acct",
                    "type": "uint256"
                }
            ],
            "name": "SetGeneralCounsel",
            "type": "event"
        },
        {
            "anonymous": false,
            "inputs": [
                {
                    "indexed": false,
                    "internalType": "address",
                    "name": "gk",
                    "type": "address"
                }
            ],
            "name": "SetGeneralKeeper",
            "type": "event"
        },
        {
            "anonymous": false,
            "inputs": [
                {
                    "indexed": false,
                    "internalType": "uint256",
                    "name": "acct",
                    "type": "uint256"
                }
            ],
            "name": "SetOwner",
            "type": "event"
        },
        {
            "anonymous": false,
            "inputs": [
                {
                    "indexed": false,
                    "internalType": "address",
                    "name": "rc",
                    "type": "address"
                }
            ],
            "name": "SetRegCenter",
            "type": "event"
        },
        {
            "inputs": [
                {
                    "internalType": "bytes32",
                    "name": "role",
                    "type": "bytes32"
                }
            ],
            "name": "abandonRole",
            "outputs": [],
            "stateMutability": "nonpayable",
            "type": "function"
        },
        {
            "inputs": [
                {
                    "internalType": "bytes32",
                    "name": "sigHash",
                    "type": "bytes32"
                },
                {
                    "internalType": "uint40",
                    "name": "caller",
                    "type": "uint40"
                }
            ],
            "name": "acceptSHA",
            "outputs": [],
            "stateMutability": "nonpayable",
            "type": "function"
        },
        {
            "inputs": [
                {
                    "internalType": "address",
                    "name": "sha",
                    "type": "address"
                },
                {
                    "internalType": "uint40",
                    "name": "caller",
                    "type": "uint40"
                },
                {
                    "internalType": "bytes32",
                    "name": "rule",
                    "type": "bytes32"
                },
                {
                    "internalType": "bytes32",
                    "name": "docUrl",
                    "type": "bytes32"
                },
                {
                    "internalType": "bytes32",
                    "name": "docHash",
                    "type": "bytes32"
                }
            ],
            "name": "circulateSHA",
            "outputs": [],
            "stateMutability": "nonpayable",
            "type": "function"
        },
        {
            "inputs": [
                {
                    "internalType": "uint8",
                    "name": "docType",
                    "type": "uint8"
                },
                {
                    "internalType": "uint40",
                    "name": "caller",
                    "type": "uint40"
                }
            ],
            "name": "createSHA",
            "outputs": [],
            "stateMutability": "nonpayable",
            "type": "function"
        },
        {
            "inputs": [
                {
                    "internalType": "address",
                    "name": "sha",
                    "type": "address"
                },
                {
                    "internalType": "uint40",
                    "name": "caller",
                    "type": "uint40"
                }
            ],
            "name": "effectiveSHA",
            "outputs": [],
            "stateMutability": "nonpayable",
            "type": "function"
        },
        {
            "inputs": [],
            "name": "finalized",
            "outputs": [
                {
                    "internalType": "bool",
                    "name": "",
                    "type": "bool"
                }
            ],
            "stateMutability": "view",
            "type": "function"
        },
        {
            "inputs": [],
            "name": "getBookeeper",
            "outputs": [
                {
                    "internalType": "address",
                    "name": "",
                    "type": "address"
                }
            ],
            "stateMutability": "view",
            "type": "function"
        },
        {
            "inputs": [],
            "name": "getGeneralCounsel",
            "outputs": [
                {
                    "internalType": "uint40",
                    "name": "",
                    "type": "uint40"
                }
            ],
            "stateMutability": "view",
            "type": "function"
        },
        {
            "inputs": [],
            "name": "getOwner",
            "outputs": [
                {
                    "internalType": "uint40",
                    "name": "",
                    "type": "uint40"
                }
            ],
            "stateMutability": "view",
            "type": "function"
        },
        {
            "inputs": [
                {
                    "internalType": "bytes32",
                    "name": "role",
                    "type": "bytes32"
                },
                {
                    "internalType": "uint40",
                    "name": "acct",
                    "type": "uint40"
                }
            ],
            "name": "grantRole",
            "outputs": [],
            "stateMutability": "nonpayable",
            "type": "function"
        },
        {
            "inputs": [
                {
                    "internalType": "bytes32",
                    "name": "role",
                    "type": "bytes32"
                },
                {
                    "internalType": "uint40",
                    "name": "acct",
                    "type": "uint40"
                }
            ],
            "name": "hasRole",
            "outputs": [
                {
                    "internalType": "bool",
                    "name": "",
                    "type": "bool"
                }
            ],
            "stateMutability": "view",
            "type": "function"
        },
        {
            "inputs": [
                {
                    "internalType": "uint40",
                    "name": "owner",
                    "type": "uint40"
                },
                {
                    "internalType": "address",
                    "name": "directKeeper",
                    "type": "address"
                },
                {
                    "internalType": "address",
                    "name": "regCenter",
                    "type": "address"
                },
                {
                    "internalType": "address",
                    "name": "generalKeeper",
                    "type": "address"
                }
            ],
            "name": "init",
            "outputs": [],
            "stateMutability": "nonpayable",
            "type": "function"
        },
        {
            "inputs": [],
            "name": "lockContents",
            "outputs": [],
            "stateMutability": "nonpayable",
            "type": "function"
        },
        {
            "inputs": [
                {
                    "internalType": "address",
                    "name": "sha",
                    "type": "address"
                },
                {
                    "internalType": "uint40",
                    "name": "caller",
                    "type": "uint40"
                }
            ],
            "name": "removeSHA",
            "outputs": [],
            "stateMutability": "nonpayable",
            "type": "function"
        },
        {
            "inputs": [
                {
                    "internalType": "bytes32",
                    "name": "role",
                    "type": "bytes32"
                }
            ],
            "name": "renounceRole",
            "outputs": [],
            "stateMutability": "nonpayable",
            "type": "function"
        },
        {
            "inputs": [
                {
                    "internalType": "bytes32",
                    "name": "role",
                    "type": "bytes32"
                },
                {
                    "internalType": "uint40",
                    "name": "acct",
                    "type": "uint40"
                }
            ],
            "name": "revokeRole",
            "outputs": [],
            "stateMutability": "nonpayable",
            "type": "function"
        },
        {
            "inputs": [
                {
                    "internalType": "address",
                    "name": "keeper",
                    "type": "address"
                }
            ],
            "name": "setDirectKeeper",
            "outputs": [],
            "stateMutability": "nonpayable",
            "type": "function"
        },
        {
            "inputs": [
                {
                    "internalType": "uint40",
                    "name": "acct",
                    "type": "uint40"
                }
            ],
            "name": "setGeneralCounsel",
            "outputs": [],
            "stateMutability": "nonpayable",
            "type": "function"
        },
        {
            "inputs": [
                {
                    "internalType": "uint40",
                    "name": "acct",
                    "type": "uint40"
                }
            ],
            "name": "setOwner",
            "outputs": [],
            "stateMutability": "nonpayable",
            "type": "function"
        },
        {
            "inputs": [
                {
                    "internalType": "bytes32",
                    "name": "role",
                    "type": "bytes32"
                },
                {
                    "internalType": "uint40",
                    "name": "acct",
                    "type": "uint40"
                }
            ],
            "name": "setRoleAdmin",
            "outputs": [],
            "stateMutability": "nonpayable",
            "type": "function"
        },
        {
            "inputs": [
                {
                    "internalType": "address",
                    "name": "temp",
                    "type": "address"
                },
                {
                    "internalType": "uint8",
                    "name": "typeOfDoc",
                    "type": "uint8"
                }
            ],
            "name": "setTempOfBOH",
            "outputs": [],
            "stateMutability": "nonpayable",
            "type": "function"
        },
        {
            "inputs": [
                {
                    "internalType": "address",
                    "name": "sha",
                    "type": "address"
                },
                {
                    "internalType": "uint40",
                    "name": "caller",
                    "type": "uint40"
                },
                {
                    "internalType": "bytes32",
                    "name": "sigHash",
                    "type": "bytes32"
                }
            ],
            "name": "signSHA",
            "outputs": [],
            "stateMutability": "nonpayable",
            "type": "function"
        }
    ],
    "bytecode": "608060405234801561001057600080fd5b50613b65806100206000396000f3fe608060405234801561001057600080fd5b50600436106101425760003560e01c80637ba706e8116100b85780639dd203321161007c5780639dd203321461028e578063b3f05b97146102a1578063ed211023146102b5578063ed3520f8146102d5578063f045a769146102e8578063f5386065146102f057600080fd5b80637ba706e81461023a578063821ee8ea1461024d578063893d20e8146102605780638bb9c5bf14610268578063946617901461027b57600080fd5b80633da9a6001161010a5780633da9a600146101b85780635305ed89146101cb5780636be8496f146101de578063735dc1e3146101f1578063740998151461020457806379b2ec121461021757600080fd5b8063103f6edd1461014757806316dc517e1461016a57806317c51fec1461017f57806330f731c2146101925780633178a9a9146101a5575b600080fd5b61014f610303565b60405164ffffffffff90911681526020015b60405180910390f35b61017d61017836600461346e565b61038f565b005b61017d61018d36600461346e565b610425565b61017d6101a03660046134b3565b61044a565b61017d6101b33660046134e1565b610719565b61017d6101c63660046134fe565b610912565b61017d6101d9366004613517565b610a24565b61017d6101ec366004613568565b610cc6565b61017d6101ff366004613594565b610d78565b61017d61021236600461346e565b610e88565b61022a61022536600461346e565b610ead565b6040519015158152602001610161565b61017d6102483660046134e1565b610f4e565b61017d61025b3660046135c2565b611140565b61014f611214565b61017d6102763660046134fe565b61124f565b61017d61028936600461361e565b6112a8565b61017d61029c36600461363c565b6115e4565b60028054600160f01b900460ff161461022a565b6102bd611a93565b6040516001600160a01b039091168152602001610161565b61017d6102e336600461346e565b611b19565b61017d611c72565b61017d6102fe3660046134b3565b611e90565b60405163e8c0cc1d60e01b81526002600482015260009073__$364aad554dc80380f414546becdd2c1584$__9063e8c0cc1d906024015b60206040518083038186803b15801561035257600080fd5b505af4158015610366573d6000803e3d6000fd5b505050506040513d601f19601f8201168201806040525081019061038a919061367d565b905090565b73__$364aad554dc80380f414546becdd2c1584$__63427abff46002846103b4612c30565b6040516001600160e01b031960e086901b1681526004810193909352602483019190915264ffffffffff9081166044830152841660648201526084015b60006040518083038186803b15801561040957600080fd5b505af415801561041d573d6000803e3d6000fd5b505050505050565b73__$364aad554dc80380f414546becdd2c1584$__638ce158456002846103b4612c30565b604051633b11adbf60e21b81526002600482015233602482015273__$364aad554dc80380f414546becdd2c1584$__9063ec46b6fc9060440160206040518083038186803b15801561049b57600080fd5b505af41580156104af573d6000803e3d6000fd5b505050506040513d601f19601f820116820180604052508101906104d3919061369a565b6104f85760405162461bcd60e51b81526004016104ef906136bc565b60405180910390fd5b818164ffffffffff81161580159061058d57508064ffffffffff16826001600160a01b031663893d20e86040518163ffffffff1660e01b815260040160206040518083038186803b15801561054c57600080fd5b505afa158015610560573d6000803e3d6000fd5b505050506040513d601f19601f82011682018060405250810190610584919061367d565b64ffffffffff16145b6105c55760405162461bcd60e51b81526020600482015260096024820152683737ba1027bbb732b960b91b60448201526064016104ef565b8360036105d0612c8a565b60405163de154c2760e01b81526001600160a01b038481166004830152919091169063de154c279060240160c06040518083038186803b15801561061357600080fd5b505afa158015610627573d6000803e3d6000fd5b505050506040513d601f19601f8201168201806040525081019061064b9190613764565b60a0015160ff1614156106ac5760405162461bcd60e51b815260206004820152602360248201527f424f484b2e6d662e4e453a20446f6320414c52454144592045737461626c69736044820152621a195960ea1b60648201526084016104ef565b6106b4612c8a565b604051636a10c37d60e11b81526001600160a01b038781166004830152919091169063d42186fa906024015b600060405180830381600087803b1580156106fa57600080fd5b505af115801561070e573d6000803e3d6000fd5b505050505050505050565b604051633b11adbf60e21b81526002600482015233602482015273__$364aad554dc80380f414546becdd2c1584$__9063ec46b6fc9060440160206040518083038186803b15801561076a57600080fd5b505af415801561077e573d6000803e3d6000fd5b505050506040513d601f19601f820116820180604052508101906107a2919061369a565b80610847575073__$364aad554dc80380f414546becdd2c1584$__63fe27108660026107cc612c30565b6040516001600160e01b031960e085901b168152600481019290925264ffffffffff16602482015260440160206040518083038186803b15801561080f57600080fd5b505af4158015610823573d6000803e3d6000fd5b505050506040513d601f19601f82011682018060405250810190610847919061369a565b6108635760405162461bcd60e51b81526004016104ef90613809565b604051632725ebef60e21b81526002600482015264ffffffffff8216602482015273__$364aad554dc80380f414546becdd2c1584$__90639c97afbc9060440160006040518083038186803b1580156108bb57600080fd5b505af41580156108cf573d6000803e3d6000fd5b505060405164ffffffffff841681527ff2735f34b69be1e6342dea95f9162f84d0db925fab655ca9f1f312ac8cbfc99d925060200190505b60405180910390a150565b604051633b11adbf60e21b81526002600482015233602482015273__$364aad554dc80380f414546becdd2c1584$__9063ec46b6fc9060440160206040518083038186803b15801561096357600080fd5b505af4158015610977573d6000803e3d6000fd5b505050506040513d601f19601f8201168201806040525081019061099b919061369a565b6109b75760405162461bcd60e51b81526004016104ef906136bc565b60405163cc99e11b60e01b8152600260048201526024810182905273__$364aad554dc80380f414546becdd2c1584$__9063cc99e11b9060440160006040518083038186803b158015610a0957600080fd5b505af4158015610a1d573d6000803e3d6000fd5b5050505050565b604051633b11adbf60e21b81526002600482015233602482015273__$364aad554dc80380f414546becdd2c1584$__9063ec46b6fc9060440160206040518083038186803b158015610a7557600080fd5b505af4158015610a89573d6000803e3d6000fd5b505050506040513d601f19601f82011682018060405250810190610aad919061369a565b610ac95760405162461bcd60e51b81526004016104ef906136bc565b848464ffffffffff811615801590610b5e57508064ffffffffff16826001600160a01b031663893d20e86040518163ffffffff1660e01b815260040160206040518083038186803b158015610b1d57600080fd5b505afa158015610b31573d6000803e3d6000fd5b505050506040513d601f19601f82011682018060405250810190610b55919061367d565b64ffffffffff16145b610b965760405162461bcd60e51b81526020600482015260096024820152683737ba1027bbb732b960b91b60448201526064016104ef565b866001600160a01b0316638969d43a6040518163ffffffff1660e01b8152600401600060405180830381600087803b158015610bd157600080fd5b505af1158015610be5573d6000803e3d6000fd5b5050604051630f74e0dd60e31b8152600060048201526001600160a01b038a169250637ba706e89150602401600060405180830381600087803b158015610c2b57600080fd5b505af1158015610c3f573d6000803e3d6000fd5b50505050610c4b612c8a565b60405163e024966760e01b81526001600160a01b038981166004830152602482018890526044820187905260648201869052919091169063e024966790608401600060405180830381600087803b158015610ca557600080fd5b505af1158015610cb9573d6000803e3d6000fd5b5050505050505050505050565b604051630f07232560e01b8152600260048201523360248201526001600160a01b038216604482015273__$364aad554dc80380f414546becdd2c1584$__90630f0723259060640160006040518083038186803b158015610d2657600080fd5b505af4158015610d3a573d6000803e3d6000fd5b50506040516001600160a01b03841681527fe435cbeab64e4eae6497b9d8289704bd709d624a80704ef3ca9af777534bc6ec92506020019050610907565b604051633b11adbf60e21b81526002600482015233602482015273__$364aad554dc80380f414546becdd2c1584$__9063ec46b6fc9060440160206040518083038186803b158015610dc957600080fd5b505af4158015610ddd573d6000803e3d6000fd5b505050506040513d601f19601f82011682018060405250810190610e01919061369a565b610e1d5760405162461bcd60e51b81526004016104ef906136bc565b610e25612c8a565b60405163552cb2bb60e11b81526001600160a01b03848116600483015260ff84166024830152919091169063aa596576906044015b600060405180830381600087803b158015610e7457600080fd5b505af115801561041d573d6000803e3d6000fd5b73__$364aad554dc80380f414546becdd2c1584$__63d2a15ba76002846103b4612c30565b604051632a3be56b60e21b8152600260048201526024810183905264ffffffffff8216604482015260009073__$364aad554dc80380f414546becdd2c1584$__9063a8ef95ac9060640160206040518083038186803b158015610f0f57600080fd5b505af4158015610f23573d6000803e3d6000fd5b505050506040513d601f19601f82011682018060405250810190610f47919061369a565b9392505050565b604051633b11adbf60e21b81526002600482015233602482015273__$364aad554dc80380f414546becdd2c1584$__9063ec46b6fc9060440160206040518083038186803b158015610f9f57600080fd5b505af4158015610fb3573d6000803e3d6000fd5b505050506040513d601f19601f82011682018060405250810190610fd7919061369a565b8061107c575073__$364aad554dc80380f414546becdd2c1584$__63fe2710866002611001612c30565b6040516001600160e01b031960e085901b168152600481019290925264ffffffffff16602482015260440160206040518083038186803b15801561104457600080fd5b505af4158015611058573d6000803e3d6000fd5b505050506040513d601f19601f8201168201806040525081019061107c919061369a565b6110985760405162461bcd60e51b81526004016104ef90613809565b60405163b6e38a2960e01b81526002600482015264ffffffffff8216602482015273__$364aad554dc80380f414546becdd2c1584$__9063b6e38a299060440160006040518083038186803b1580156110f057600080fd5b505af4158015611104573d6000803e3d6000fd5b505060405164ffffffffff841681527f8b6f40f36b4ae8cc5f55e895036457c43da4ab1f80f58c46f5ff0d72a650033b92506020019050610907565b61114982612cee565b61115281612d9d565b604051636cdd0edf60e11b81526002600482015264ffffffffff851660248201526001600160a01b038416604482015273__$364aad554dc80380f414546becdd2c1584$__9063d9ba1dbe9060640160006040518083038186803b1580156111b957600080fd5b505af41580156111cd573d6000803e3d6000fd5b505050507f4d18c0021addc919105cb1ed2c11ad241e859cc1d9e77d4ee1d9ca2cdc1f255b84848484604051611206949392919061385f565b60405180910390a150505050565b60405163987ad15360e01b81526002600482015260009073__$364aad554dc80380f414546becdd2c1584$__9063987ad1539060240161033a565b6000611259612c30565b604051637963595360e11b8152600260048201526024810184905264ffffffffff8216604482015290915073__$364aad554dc80380f414546becdd2c1584$__9063f2c6b2a6906064016103f1565b604051633b11adbf60e21b81526002600482015233602482015273__$364aad554dc80380f414546becdd2c1584$__9063ec46b6fc9060440160206040518083038186803b1580156112f957600080fd5b505af415801561130d573d6000803e3d6000fd5b505050506040513d601f19601f82011682018060405250810190611331919061369a565b61134d5760405162461bcd60e51b81526004016104ef906136bc565b611355612e54565b60405163c5916f4b60e01b815264ffffffffff831660048201526001600160a01b03919091169063c5916f4b9060240160206040518083038186803b15801561139d57600080fd5b505afa1580156113b1573d6000803e3d6000fd5b505050506040513d601f19601f820116820180604052508101906113d5919061369a565b61140e5760405162461bcd60e51b815260206004820152600a6024820152693737ba1026a2a6a122a960b11b60448201526064016104ef565b600080611419612c8a565b60405163891613e760e01b815260ff8616600482015264ffffffffff851660248201526001600160a01b03919091169063891613e7906044016040805180830381600087803b15801561146b57600080fd5b505af115801561147f573d6000803e3d6000fd5b505050506040513d601f19601f820116820180604052508101906114a3919061388f565b60005460015460405163410f747560e11b81529395509193506001600160a01b038086169363821ee8ea936114e4938993309391811692169060040161385f565b600060405180830381600087803b1580156114fe57600080fd5b505af1158015611512573d6000803e3d6000fd5b505060005460015460405163410f747560e11b81526001600160a01b03808716955063821ee8ea9450611551938993309391831692169060040161385f565b600060405180830381600087803b15801561156b57600080fd5b505af115801561157f573d6000803e3d6000fd5b50506040516317e8c50360e21b81526001600160a01b03848116600483015285169250635fa3140c9150602401600060405180830381600087803b1580156115c657600080fd5b505af11580156115da573d6000803e3d6000fd5b5050505050505050565b604051633b11adbf60e21b81526002600482015233602482015273__$364aad554dc80380f414546becdd2c1584$__9063ec46b6fc9060440160206040518083038186803b15801561163557600080fd5b505af4158015611649573d6000803e3d6000fd5b505050506040513d601f19601f8201168201806040525081019061166d919061369a565b6116895760405162461bcd60e51b81526004016104ef906136bc565b8282816001600160a01b031663b931f29b6040518163ffffffff1660e01b815260040160206040518083038186803b1580156116c457600080fd5b505afa1580156116d8573d6000803e3d6000fd5b505050506040513d601f19601f820116820180604052508101906116fc91906138be565b60405163eb37e8ad60e01b815264ffffffffff831660048201526001600160a01b03919091169063eb37e8ad9060240160206040518083038186803b15801561174457600080fd5b505afa158015611758573d6000803e3d6000fd5b505050506040513d601f19601f8201168201806040525081019061177c919061369a565b6117bb5760405162461bcd60e51b815260206004820152601060248201526f4e4f54205061727479206f6620446f6360801b60448201526064016104ef565b60026117c5612c8a565b60405163de154c2760e01b81526001600160a01b038881166004830152919091169063de154c279060240160c06040518083038186803b15801561180857600080fd5b505afa15801561181c573d6000803e3d6000fd5b505050506040513d601f19601f820116820180604052508101906118409190613764565b60a0015160ff16146118945760405162461bcd60e51b815260206004820152601b60248201527f534841206e6f7420696e2043697263756c61746564205374617465000000000060448201526064016104ef565b846001600160a01b031663b931f29b6040518163ffffffff1660e01b815260040160206040518083038186803b1580156118cd57600080fd5b505afa1580156118e1573d6000803e3d6000fd5b505050506040513d601f19601f8201168201806040525081019061190591906138be565b604051633b9ebecd60e01b815264ffffffffff86166004820152602481018590526001600160a01b039190911690633b9ebecd90604401600060405180830381600087803b15801561195657600080fd5b505af115801561196a573d6000803e3d6000fd5b50505050846001600160a01b031663b931f29b6040518163ffffffff1660e01b815260040160206040518083038186803b1580156119a757600080fd5b505afa1580156119bb573d6000803e3d6000fd5b505050506040513d601f19601f820116820180604052508101906119df91906138be565b6001600160a01b0316634844f5416040518163ffffffff1660e01b815260040160206040518083038186803b158015611a1757600080fd5b505afa158015611a2b573d6000803e3d6000fd5b505050506040513d601f19601f82011682018060405250810190611a4f919061369a565b15610a1d57611a5c612c8a565b60405163108fac0b60e11b81526001600160a01b03878116600483015260036024830152919091169063211f5816906044016106e0565b604051633c3e56c160e11b81526002600482015260009073__$364aad554dc80380f414546becdd2c1584$__9063787cad829060240160206040518083038186803b158015611ae157600080fd5b505af4158015611af5573d6000803e3d6000fd5b505050506040513d601f19601f8201168201806040525081019061038a91906138be565b604051633b11adbf60e21b81526002600482015233602482015273__$364aad554dc80380f414546becdd2c1584$__9063ec46b6fc9060440160206040518083038186803b158015611b6a57600080fd5b505af4158015611b7e573d6000803e3d6000fd5b505050506040513d601f19601f82011682018060405250810190611ba2919061369a565b611bbe5760405162461bcd60e51b81526004016104ef906136bc565b611bc6612e6f565b6001600160a01b031663b931f29b6040518163ffffffff1660e01b815260040160206040518083038186803b158015611bfe57600080fd5b505afa158015611c12573d6000803e3d6000fd5b505050506040513d601f19601f82011682018060405250810190611c3691906138be565b6040516351ec23cd60e11b815264ffffffffff83166004820152602481018490526001600160a01b03919091169063a3d8479a90604401610e5a565b604051633b11adbf60e21b81526002600482015233602482015273__$364aad554dc80380f414546becdd2c1584$__9063ec46b6fc9060440160206040518083038186803b158015611cc357600080fd5b505af4158015611cd7573d6000803e3d6000fd5b505050506040513d601f19601f82011682018060405250810190611cfb919061369a565b611d175760405162461bcd60e51b81526004016104ef906136bc565b600254600160f01b900460ff16600114611d735760405162461bcd60e51b815260206004820181905260248201527f41432e6f6e6c7950656e64696e673a20446f632069732066696e616c697a656460448201526064016104ef565b60405163cc99e11b60e01b815260026004820152684174746f726e65797360b81b602482015273__$364aad554dc80380f414546becdd2c1584$__9063cc99e11b9060440160006040518083038186803b158015611dd057600080fd5b505af4158015611de4573d6000803e3d6000fd5b5050604051632725ebef60e21b8152600260048201526000602482015273__$364aad554dc80380f414546becdd2c1584$__9250639c97afbc915060440160006040518083038186803b158015611e3a57600080fd5b505af4158015611e4e573d6000803e3d6000fd5b50506002805460ff60f01b1916600160f11b17905550506040517f35012b512309c322acf68632cd6cb702ff0e1d776fbe9394e38ffc13b434fe7590600090a1565b604051633b11adbf60e21b81526002600482015233602482015273__$364aad554dc80380f414546becdd2c1584$__9063ec46b6fc9060440160206040518083038186803b158015611ee157600080fd5b505af4158015611ef5573d6000803e3d6000fd5b505050506040513d601f19601f82011682018060405250810190611f19919061369a565b611f355760405162461bcd60e51b81526004016104ef906136bc565b8181816001600160a01b031663b931f29b6040518163ffffffff1660e01b815260040160206040518083038186803b158015611f7057600080fd5b505afa158015611f84573d6000803e3d6000fd5b505050506040513d601f19601f82011682018060405250810190611fa891906138be565b60405163eb37e8ad60e01b815264ffffffffff831660048201526001600160a01b03919091169063eb37e8ad9060240160206040518083038186803b158015611ff057600080fd5b505afa158015612004573d6000803e3d6000fd5b505050506040513d601f19601f82011682018060405250810190612028919061369a565b6120675760405162461bcd60e51b815260206004820152601060248201526f4e4f54205061727479206f6620446f6360801b60448201526064016104ef565b6003612071612c8a565b60405163de154c2760e01b81526001600160a01b038781166004830152919091169063de154c279060240160c06040518083038186803b1580156120b457600080fd5b505afa1580156120c8573d6000803e3d6000fd5b505050506040513d601f19601f820116820180604052508101906120ec9190613764565b60a0015160ff161461214b5760405162461bcd60e51b815260206004820152602260248201527f424f484b65657065722e65733a20534841206e6f742065786563757465642079604482015261195d60f21b60648201526084016104ef565b61215484612eb1565b80612163575061216384613082565b6121ca5760405162461bcd60e51b815260206004820152603260248201527f424f484b65657065722e65733a205348412065666665637469766520636f6e646044820152711a5d1a5bdb9cc81b9bdd081c995858da195960721b60648201526084016104ef565b6121d2612c8a565b604051639f4d332f60e01b81526001600160a01b0386811660048301529190911690639f4d332f90602401600060405180830381600087803b15801561221757600080fd5b505af115801561222b573d6000803e3d6000fd5b5050604051634846203760e01b815260006004820181905292506001600160a01b038716915063484620379060240160206040518083038186803b15801561227257600080fd5b505afa158015612286573d6000803e3d6000fd5b505050506040513d601f19601f820116820180604052508101906122aa91906138db565b90506122b4612e54565b6001600160a01b031663da6a43d68273__$94c94c1f27eaba30857c7d0c37f90b5581$__632a323af690916040518263ffffffff1660e01b81526004016122fd91815260200190565b60206040518083038186803b15801561231557600080fd5b505af4158015612329573d6000803e3d6000fd5b505050506040513d601f19601f8201168201806040525081019061234d919061369a565b6040518263ffffffff1660e01b815260040161236d911515815260200190565b600060405180830381600087803b15801561238757600080fd5b505af115801561239b573d6000803e3d6000fd5b505050506123a7612e54565b6001600160a01b031663bdc36f628273__$94c94c1f27eaba30857c7d0c37f90b5581$__632a323af690916040518263ffffffff1660e01b81526004016123f091815260200190565b60206040518083038186803b15801561240857600080fd5b505af415801561241c573d6000803e3d6000fd5b505050506040513d601f19601f82011682018060405250810190612440919061369a565b6040518263ffffffff1660e01b8152600401612460911515815260200190565b600060405180830381600087803b15801561247a57600080fd5b505af115801561248e573d6000803e3d6000fd5b5050505061249a61341f565b6001600160a01b031663ff77c0558273__$94c94c1f27eaba30857c7d0c37f90b5581$__63fcbdc4ea90916040518263ffffffff1660e01b81526004016124e391815260200190565b60206040518083038186803b1580156124fb57600080fd5b505af415801561250f573d6000803e3d6000fd5b505050506040513d601f19601f8201168201806040525081019061253391906138f4565b6040516001600160e01b031960e084901b16815260ff9091166004820152602401600060405180830381600087803b15801561256e57600080fd5b505af1158015612582573d6000803e3d6000fd5b5050604051637176544960e01b8152600560048201526001600160a01b03881692506371765449915060240160206040518083038186803b1580156125c657600080fd5b505afa1580156125da573d6000803e3d6000fd5b505050506040513d601f19601f820116820180604052508101906125fe919061369a565b156126e85761260b61343d565b60405163346ba94160e01b8152600560048201526001600160a01b039182169163f30c2560919088169063346ba9419060240160206040518083038186803b15801561265657600080fd5b505afa15801561266a573d6000803e3d6000fd5b505050506040513d601f19601f8201168201806040525081019061268e91906138be565b6040516001600160e01b031960e084901b1681526001600160a01b039091166004820152602401600060405180830381600087803b1580156126cf57600080fd5b505af11580156126e3573d6000803e3d6000fd5b505050505b604051634846203760e01b815261030060048201526000906001600160a01b0387169063484620379060240160206040518083038186803b15801561272c57600080fd5b505afa158015612740573d6000803e3d6000fd5b505050506040513d601f19601f8201168201806040525081019061276491906138db565b60405163589f0ac360e11b81526004810182905290915060009073__$94c94c1f27eaba30857c7d0c37f90b5581$__9063b13e15869060240160206040518083038186803b1580156127b557600080fd5b505af41580156127c9573d6000803e3d6000fd5b505050506040513d601f19601f820116820180604052508101906127ed91906138f4565b60ff16905060005b818110156115da5760006001600160a01b038916634846203761281a84610300613927565b6040518263ffffffff1660e01b815260040161283891815260200190565b60206040518083038186803b15801561285057600080fd5b505afa158015612864573d6000803e3d6000fd5b505050506040513d601f19601f8201168201806040525081019061288891906138db565b604051631516258160e31b81526004810182905290915073__$94c94c1f27eaba30857c7d0c37f90b5581$__9063a8b12c089060240160206040518083038186803b1580156128d657600080fd5b505af41580156128ea573d6000803e3d6000fd5b505050506040513d601f19601f8201168201806040525081019061290e919061369a565b15612a9a5761291b612e54565b6001600160a01b031663a7ec068f8273__$94c94c1f27eaba30857c7d0c37f90b5581$__63e15c138090916040518263ffffffff1660e01b815260040161296491815260200190565b60206040518083038186803b15801561297c57600080fd5b505af4158015612990573d6000803e3d6000fd5b505050506040513d601f19601f820116820180604052508101906129b4919061367d565b604051630cbbebf560e11b81526004810185905273__$94c94c1f27eaba30857c7d0c37f90b5581$__90631977d7ea9060240160206040518083038186803b1580156129ff57600080fd5b505af4158015612a13573d6000803e3d6000fd5b505050506040513d601f19601f82011682018060405250810190612a37919061367d565b6040516001600160e01b031960e085901b16815264ffffffffff928316600482015291166024820152604401600060405180830381600087803b158015612a7d57600080fd5b505af1158015612a91573d6000803e3d6000fd5b50505050612c1d565b612aa2612e54565b6001600160a01b0316637276c1018273__$94c94c1f27eaba30857c7d0c37f90b5581$__63e15c138090916040518263ffffffff1660e01b8152600401612aeb91815260200190565b60206040518083038186803b158015612b0357600080fd5b505af4158015612b17573d6000803e3d6000fd5b505050506040513d601f19601f82011682018060405250810190612b3b919061367d565b604051630cbbebf560e11b81526004810185905273__$94c94c1f27eaba30857c7d0c37f90b5581$__90631977d7ea9060240160206040518083038186803b158015612b8657600080fd5b505af4158015612b9a573d6000803e3d6000fd5b505050506040513d601f19601f82011682018060405250810190612bbe919061367d565b6040516001600160e01b031960e085901b16815264ffffffffff928316600482015291166024820152604401600060405180830381600087803b158015612c0457600080fd5b505af1158015612c18573d6000803e3d6000fd5b505050505b81612c278161393f565b925050506127f5565b60008054604051634de835e760e11b81523360048201526001600160a01b0390911690639bd06bce90602401602060405180830381600087803b158015612c7657600080fd5b505af1158015610366573d6000803e3d6000fd5b6001546000906001600160a01b031663e06eba8c60035b6040516001600160e01b031960e084901b16815260ff909116600482015260240160206040518083038186803b158015612cda57600080fd5b505afa158015611af5573d6000803e3d6000fd5b6000546001600160a01b031615612d3f5760405162461bcd60e51b815260206004820152601560248201527430b63932b0b23c9039b2ba103932b3a1b2b73a32b960591b60448201526064016104ef565b6040516001600160a01b03821681527f318da6c7624c71cbc0afe346c9d8827f119d0ecefb241a7b0c87217a076a8e029060200160405180910390a1600080546001600160a01b0319166001600160a01b0392909216919091179055565b6001546001600160a01b031615612df65760405162461bcd60e51b815260206004820152601960248201527f616c7265616479207365742067656e6572616c4b65657065720000000000000060448201526064016104ef565b6040516001600160a01b03821681527fe513d3e0f0d0a3877029dcc588748679a7a3450ec1ec7ed56d96bd012c3e61aa9060200160405180910390a1600180546001600160a01b0319166001600160a01b0392909216919091179055565b6001546000906001600160a01b031663e06eba8c6007612ca1565b6000612e79612c8a565b6001600160a01b0316632f5f3b3c6040518163ffffffff1660e01b815260040160206040518083038186803b158015612cda57600080fd5b600080612ebc612e54565b6001600160a01b031663dd5042f46040518163ffffffff1660e01b815260040160006040518083038186803b158015612ef457600080fd5b505afa158015612f08573d6000803e3d6000fd5b505050506040513d6000823e601f3d908101601f19168201604052612f30919081019061395a565b80519091505b801561307857836001600160a01b031663b931f29b6040518163ffffffff1660e01b815260040160206040518083038186803b158015612f7557600080fd5b505afa158015612f89573d6000803e3d6000fd5b505050506040513d601f19601f82011682018060405250810190612fad91906138be565b6001600160a01b031663eb37e8ad83612fc7600185613a0c565b81518110612fd757612fd7613a23565b60200260200101516040518263ffffffff1660e01b8152600401613008919064ffffffffff91909116815260200190565b60206040518083038186803b15801561302057600080fd5b505afa158015613034573d6000803e3d6000fd5b505050506040513d601f19601f82011682018060405250810190613058919061369a565b613066575060009392505050565b8061307081613a39565b915050612f36565b5060019392505050565b600080826001600160a01b031663b931f29b6040518163ffffffff1660e01b815260040160206040518083038186803b1580156130be57600080fd5b505afa1580156130d2573d6000803e3d6000fd5b505050506040513d601f19601f820116820180604052508101906130f691906138be565b6001600160a01b0316632d8f651d6040518163ffffffff1660e01b815260040160006040518083038186803b15801561312e57600080fd5b505afa158015613142573d6000803e3d6000fd5b505050506040513d6000823e601f3d908101601f1916820160405261316a919081019061395a565b80519091506000613179612e6f565b604051634846203760e01b8152600060048201526001600160a01b03919091169063484620379060240160206040518083038186803b1580156131bb57600080fd5b505afa1580156131cf573d6000803e3d6000fd5b505050506040513d601f19601f820116820180604052508101906131f391906138db565b90506000612710613202612e54565b6001600160a01b0316630d15fd776040518163ffffffff1660e01b815260040160206040518083038186803b15801561323a57600080fd5b505afa15801561324e573d6000803e3d6000fd5b505050506040513d601f19601f820116820180604052508101906132729190613a50565b6040516304ab63d560e51b81526004810185905273__$94c94c1f27eaba30857c7d0c37f90b5581$__9063956c7aa09060240160206040518083038186803b1580156132bd57600080fd5b505af41580156132d1573d6000803e3d6000fd5b505050506040513d601f19601f820116820180604052508101906132f59190613a7a565b61ffff166133039190613a9e565b61330d9190613ace565b905060005b831561341257613320612e54565b6001600160a01b031663d40622d28661333a600188613a0c565b8151811061334a5761334a613a23565b60200260200101516040518263ffffffff1660e01b815260040161337b919064ffffffffff91909116815260200190565b60206040518083038186803b15801561339357600080fd5b505afa1580156133a7573d6000803e3d6000fd5b505050506040513d601f19601f820116820180604052508101906133cb9190613a50565b6133d59082613b03565b90508167ffffffffffffffff168167ffffffffffffffff161115613400575060019695505050505050565b8361340a81613a39565b945050613312565b5060009695505050505050565b600180546000916001600160a01b039091169063e06eba8c90612ca1565b6001546000906001600160a01b031663e06eba8c6004612ca1565b64ffffffffff8116811461346b57600080fd5b50565b6000806040838503121561348157600080fd5b82359150602083013561349381613458565b809150509250929050565b6001600160a01b038116811461346b57600080fd5b600080604083850312156134c657600080fd5b82356134d18161349e565b9150602083013561349381613458565b6000602082840312156134f357600080fd5b8135610f4781613458565b60006020828403121561351057600080fd5b5035919050565b600080600080600060a0868803121561352f57600080fd5b853561353a8161349e565b9450602086013561354a81613458565b94979496505050506040830135926060810135926080909101359150565b60006020828403121561357a57600080fd5b8135610f478161349e565b60ff8116811461346b57600080fd5b600080604083850312156135a757600080fd5b82356135b28161349e565b9150602083013561349381613585565b600080600080608085870312156135d857600080fd5b84356135e381613458565b935060208501356135f38161349e565b925060408501356136038161349e565b915060608501356136138161349e565b939692955090935050565b6000806040838503121561363157600080fd5b82356134d181613585565b60008060006060848603121561365157600080fd5b833561365c8161349e565b9250602084013561366c81613458565b929592945050506040919091013590565b60006020828403121561368f57600080fd5b8151610f4781613458565b6000602082840312156136ac57600080fd5b81518015158114610f4757600080fd5b60208082526026908201527f41432e6f6e6c794469726563744b65657065723a206e6f74206469726563742060408201526535b2b2b832b960d11b606082015260800190565b634e487b7160e01b600052604160045260246000fd5b604051601f8201601f1916810167ffffffffffffffff8111828210171561374157613741613702565b604052919050565b805165ffffffffffff8116811461375f57600080fd5b919050565b600060c0828403121561377657600080fd5b60405160c0810181811067ffffffffffffffff8211171561379957613799613702565b60405282516137a781613585565b815260208301516137b781613458565b60208201526137c860408401613749565b60408201526137d960608401613749565b60608201526137ea60808401613749565b608082015260a08301516137fd81613585565b60a08201529392505050565b60208082526036908201527f41432e6f776e65724f72446972656374426f6f6b65657065723a206e6569746860408201527532b91037bbb732b9103737b9103137b7b5b2b2b832b960511b606082015260800190565b64ffffffffff9490941684526001600160a01b039283166020850152908216604084015216606082015260800190565b600080604083850312156138a257600080fd5b82516138ad8161349e565b60208401519092506134938161349e565b6000602082840312156138d057600080fd5b8151610f478161349e565b6000602082840312156138ed57600080fd5b5051919050565b60006020828403121561390657600080fd5b8151610f4781613585565b634e487b7160e01b600052601160045260246000fd5b6000821982111561393a5761393a613911565b500190565b600060001982141561395357613953613911565b5060010190565b6000602080838503121561396d57600080fd5b825167ffffffffffffffff8082111561398557600080fd5b818501915085601f83011261399957600080fd5b8151818111156139ab576139ab613702565b8060051b91506139bc848301613718565b81815291830184019184810190888411156139d657600080fd5b938501935b83851015613a0057845192506139f083613458565b82825293850193908501906139db565b98975050505050505050565b600082821015613a1e57613a1e613911565b500390565b634e487b7160e01b600052603260045260246000fd5b600081613a4857613a48613911565b506000190190565b600060208284031215613a6257600080fd5b815167ffffffffffffffff81168114610f4757600080fd5b600060208284031215613a8c57600080fd5b815161ffff81168114610f4757600080fd5b600067ffffffffffffffff80831681851681830481118215151615613ac557613ac5613911565b02949350505050565b600067ffffffffffffffff80841680613af757634e487b7160e01b600052601260045260246000fd5b92169190910492915050565b600067ffffffffffffffff808316818516808303821115613b2657613b26613911565b0194935050505056fea2646970667358221220552ec015b3eb3edcf7dd17f1325e2765b80f9a2fa62d7b546b6b4cb7755817c864736f6c63430008080033",
    "sourcePath": "/Users/kaptain/github.com/hardhat/comboox/contracts/keepers/BOHKeeper.sol",
    "compiler": {
        "name": "solc",
        "version": "0.8.8+commit.dddeac2f"
    },
    "functionHashes": {
        "abandonRole(bytes32)": "3da9a600",
        "acceptSHA(bytes32,uint40)": "ed3520f8",
        "circulateSHA(address,uint40,bytes32,bytes32,bytes32)": "5305ed89",
        "createSHA(uint8,uint40)": "94661790",
        "effectiveSHA(address,uint40)": "f5386065",
        "finalized()": "b3f05b97",
        "getBookeeper()": "ed211023",
        "getGeneralCounsel()": "103f6edd",
        "getOwner()": "893d20e8",
        "grantRole(bytes32,uint40)": "74099815",
        "hasRole(bytes32,uint40)": "79b2ec12",
        "init(uint40,address,address,address)": "821ee8ea",
        "lockContents()": "f045a769",
        "removeSHA(address,uint40)": "30f731c2",
        "renounceRole(bytes32)": "8bb9c5bf",
        "revokeRole(bytes32,uint40)": "17c51fec",
        "setDirectKeeper(address)": "6be8496f",
        "setGeneralCounsel(uint40)": "3178a9a9",
        "setOwner(uint40)": "7ba706e8",
        "setRoleAdmin(bytes32,uint40)": "16dc517e",
        "setTempOfBOH(address,uint8)": "735dc1e3",
        "signSHA(address,uint40,bytes32)": "9dd20332"
    },
    "gasEstimates": {
        "creation": {
            "codeDepositCost": "3041000",
            "executionCost": "3349",
            "totalCost": "3044349"
        },
        "external": {
            "abandonRole(bytes32)": "infinite",
            "acceptSHA(bytes32,uint40)": "infinite",
            "circulateSHA(address,uint40,bytes32,bytes32,bytes32)": "infinite",
            "createSHA(uint8,uint40)": "infinite",
            "effectiveSHA(address,uint40)": "infinite",
            "finalized()": "2371",
            "getBookeeper()": "infinite",
            "getGeneralCounsel()": "infinite",
            "getOwner()": "infinite",
            "grantRole(bytes32,uint40)": "infinite",
            "hasRole(bytes32,uint40)": "infinite",
            "init(uint40,address,address,address)": "infinite",
            "lockContents()": "infinite",
            "removeSHA(address,uint40)": "infinite",
            "renounceRole(bytes32)": "infinite",
            "revokeRole(bytes32,uint40)": "infinite",
            "setDirectKeeper(address)": "infinite",
            "setGeneralCounsel(uint40)": "infinite",
            "setOwner(uint40)": "infinite",
            "setRoleAdmin(bytes32,uint40)": "infinite",
            "setTempOfBOH(address,uint8)": "infinite",
            "signSHA(address,uint40,bytes32)": "infinite"
        },
        "internal": {
            "_allMembersSigned(address)": "infinite",
            "_reachedEffectiveThreshold(address)": "infinite"
        }
    }
}