{
    "contractName": "BOOKeeper",
    "abi": [
        {
            "anonymous": false,
            "inputs": [
                {
                    "indexed": false,
                    "internalType": "uint256",
                    "name": "owner",
                    "type": "uint256"
                },
                {
                    "indexed": false,
                    "internalType": "address",
                    "name": "directKeeper",
                    "type": "address"
                },
                {
                    "indexed": false,
                    "internalType": "address",
                    "name": "regCenter",
                    "type": "address"
                },
                {
                    "indexed": false,
                    "internalType": "address",
                    "name": "generalKeeper",
                    "type": "address"
                }
            ],
            "name": "Init",
            "type": "event"
        },
        {
            "anonymous": false,
            "inputs": [],
            "name": "LockContents",
            "type": "event"
        },
        {
            "anonymous": false,
            "inputs": [
                {
                    "indexed": false,
                    "internalType": "address",
                    "name": "keeper",
                    "type": "address"
                }
            ],
            "name": "SetDirectKeeper",
            "type": "event"
        },
        {
            "anonymous": false,
            "inputs": [
                {
                    "indexed": false,
                    "internalType": "uint256",
                    "name": "acct",
                    "type": "uint256"
                }
            ],
            "name": "SetGeneralCounsel",
            "type": "event"
        },
        {
            "anonymous": false,
            "inputs": [
                {
                    "indexed": false,
                    "internalType": "uint256",
                    "name": "acct",
                    "type": "uint256"
                }
            ],
            "name": "SetOwner",
            "type": "event"
        },
        {
            "inputs": [
                {
                    "internalType": "bytes32",
                    "name": "role",
                    "type": "bytes32"
                }
            ],
            "name": "abandonRole",
            "outputs": [],
            "stateMutability": "nonpayable",
            "type": "function"
        },
        {
            "inputs": [
                {
                    "internalType": "uint256",
                    "name": "seqOfOpt",
                    "type": "uint256"
                },
                {
                    "internalType": "uint256",
                    "name": "caller",
                    "type": "uint256"
                }
            ],
            "name": "execOption",
            "outputs": [],
            "stateMutability": "nonpayable",
            "type": "function"
        },
        {
            "inputs": [
                {
                    "internalType": "uint256",
                    "name": "seqOfOpt",
                    "type": "uint256"
                },
                {
                    "internalType": "uint256",
                    "name": "seqOfBrf",
                    "type": "uint256"
                },
                {
                    "internalType": "uint256",
                    "name": "caller",
                    "type": "uint256"
                }
            ],
            "name": "execSwapOrder",
            "outputs": [],
            "stateMutability": "nonpayable",
            "type": "function"
        },
        {
            "inputs": [],
            "name": "finalized",
            "outputs": [
                {
                    "internalType": "bool",
                    "name": "",
                    "type": "bool"
                }
            ],
            "stateMutability": "view",
            "type": "function"
        },
        {
            "inputs": [],
            "name": "getBookeeper",
            "outputs": [
                {
                    "internalType": "address",
                    "name": "",
                    "type": "address"
                }
            ],
            "stateMutability": "view",
            "type": "function"
        },
        {
            "inputs": [],
            "name": "getGeneralCounsel",
            "outputs": [
                {
                    "internalType": "uint40",
                    "name": "",
                    "type": "uint40"
                }
            ],
            "stateMutability": "view",
            "type": "function"
        },
        {
            "inputs": [],
            "name": "getOwner",
            "outputs": [
                {
                    "internalType": "uint40",
                    "name": "",
                    "type": "uint40"
                }
            ],
            "stateMutability": "view",
            "type": "function"
        },
        {
            "inputs": [
                {
                    "internalType": "bytes32",
                    "name": "role",
                    "type": "bytes32"
                },
                {
                    "internalType": "uint256",
                    "name": "acct",
                    "type": "uint256"
                }
            ],
            "name": "grantRole",
            "outputs": [],
            "stateMutability": "nonpayable",
            "type": "function"
        },
        {
            "inputs": [
                {
                    "internalType": "bytes32",
                    "name": "role",
                    "type": "bytes32"
                },
                {
                    "internalType": "uint256",
                    "name": "acct",
                    "type": "uint256"
                }
            ],
            "name": "hasRole",
            "outputs": [
                {
                    "internalType": "bool",
                    "name": "",
                    "type": "bool"
                }
            ],
            "stateMutability": "view",
            "type": "function"
        },
        {
            "inputs": [
                {
                    "internalType": "uint256",
                    "name": "owner",
                    "type": "uint256"
                },
                {
                    "internalType": "address",
                    "name": "directKeeper",
                    "type": "address"
                },
                {
                    "internalType": "address",
                    "name": "regCenter",
                    "type": "address"
                },
                {
                    "internalType": "address",
                    "name": "generalKeeper",
                    "type": "address"
                }
            ],
            "name": "init",
            "outputs": [],
            "stateMutability": "nonpayable",
            "type": "function"
        },
        {
            "inputs": [],
            "name": "lockContents",
            "outputs": [],
            "stateMutability": "nonpayable",
            "type": "function"
        },
        {
            "inputs": [
                {
                    "internalType": "uint256",
                    "name": "seqOfOpt",
                    "type": "uint256"
                },
                {
                    "internalType": "uint256",
                    "name": "seqOfBrf",
                    "type": "uint256"
                },
                {
                    "internalType": "bytes32",
                    "name": "hashLock",
                    "type": "bytes32"
                },
                {
                    "internalType": "uint256",
                    "name": "caller",
                    "type": "uint256"
                }
            ],
            "name": "lockSwapOrder",
            "outputs": [],
            "stateMutability": "nonpayable",
            "type": "function"
        },
        {
            "inputs": [
                {
                    "internalType": "uint256",
                    "name": "seqOfOpt",
                    "type": "uint256"
                },
                {
                    "internalType": "uint256",
                    "name": "seqOfConsider",
                    "type": "uint256"
                },
                {
                    "internalType": "uint256",
                    "name": "paidOfConsider",
                    "type": "uint256"
                },
                {
                    "internalType": "uint256",
                    "name": "seqOfTarget",
                    "type": "uint256"
                },
                {
                    "internalType": "uint256",
                    "name": "caller",
                    "type": "uint256"
                }
            ],
            "name": "placeSwapOrder",
            "outputs": [],
            "stateMutability": "nonpayable",
            "type": "function"
        },
        {
            "inputs": [
                {
                    "internalType": "uint256",
                    "name": "seqOfOpt",
                    "type": "uint256"
                },
                {
                    "internalType": "uint256",
                    "name": "seqOfBrf",
                    "type": "uint256"
                },
                {
                    "internalType": "string",
                    "name": "hashKey",
                    "type": "string"
                },
                {
                    "internalType": "uint256",
                    "name": "caller",
                    "type": "uint256"
                }
            ],
            "name": "releaseSwapOrder",
            "outputs": [],
            "stateMutability": "nonpayable",
            "type": "function"
        },
        {
            "inputs": [
                {
                    "internalType": "bytes32",
                    "name": "role",
                    "type": "bytes32"
                }
            ],
            "name": "renounceRole",
            "outputs": [],
            "stateMutability": "nonpayable",
            "type": "function"
        },
        {
            "inputs": [
                {
                    "internalType": "bytes32",
                    "name": "role",
                    "type": "bytes32"
                },
                {
                    "internalType": "uint256",
                    "name": "acct",
                    "type": "uint256"
                }
            ],
            "name": "revokeRole",
            "outputs": [],
            "stateMutability": "nonpayable",
            "type": "function"
        },
        {
            "inputs": [
                {
                    "internalType": "uint256",
                    "name": "seqOfOpt",
                    "type": "uint256"
                },
                {
                    "internalType": "uint256",
                    "name": "seqOfBrf",
                    "type": "uint256"
                },
                {
                    "internalType": "uint256",
                    "name": "caller",
                    "type": "uint256"
                }
            ],
            "name": "revokeSwapOrder",
            "outputs": [],
            "stateMutability": "nonpayable",
            "type": "function"
        },
        {
            "inputs": [
                {
                    "internalType": "address",
                    "name": "keeper",
                    "type": "address"
                }
            ],
            "name": "setDirectKeeper",
            "outputs": [],
            "stateMutability": "nonpayable",
            "type": "function"
        },
        {
            "inputs": [
                {
                    "internalType": "uint256",
                    "name": "acct",
                    "type": "uint256"
                }
            ],
            "name": "setGeneralCounsel",
            "outputs": [],
            "stateMutability": "nonpayable",
            "type": "function"
        },
        {
            "inputs": [
                {
                    "internalType": "uint256",
                    "name": "acct",
                    "type": "uint256"
                }
            ],
            "name": "setOwner",
            "outputs": [],
            "stateMutability": "nonpayable",
            "type": "function"
        },
        {
            "inputs": [
                {
                    "internalType": "bytes32",
                    "name": "role",
                    "type": "bytes32"
                },
                {
                    "internalType": "uint256",
                    "name": "acct",
                    "type": "uint256"
                }
            ],
            "name": "setRoleAdmin",
            "outputs": [],
            "stateMutability": "nonpayable",
            "type": "function"
        },
        {
            "inputs": [
                {
                    "internalType": "uint256",
                    "name": "seqOfOpt",
                    "type": "uint256"
                },
                {
                    "internalType": "uint256",
                    "name": "d1",
                    "type": "uint256"
                },
                {
                    "internalType": "uint256",
                    "name": "d2",
                    "type": "uint256"
                },
                {
                    "internalType": "uint256",
                    "name": "d3",
                    "type": "uint256"
                }
            ],
            "name": "updateOracle",
            "outputs": [],
            "stateMutability": "nonpayable",
            "type": "function"
        }
    ],
    "bytecode": "608060405234801561001057600080fd5b5061317f806100206000396000f3fe608060405234801561001057600080fd5b50600436106101425760003560e01c80637e063c5a116100b8578063ab3594171161007c578063ab3594171461028e578063b3f05b97146102a1578063b647c729146102b5578063dc890da9146102c8578063ed211023146102db578063f045a769146102fb57600080fd5b80637e063c5a1461022a5780638041494e1461024d578063866f989d14610260578063893d20e8146102735780638bb9c5bf1461027b57600080fd5b80633da9a6001161010a5780633da9a600146101b85780634a14beb1146101cb5780635171ebd4146101de5780635d0389cd146101f15780636be8496f1461020457806376f2736f1461021757600080fd5b8063084179bd14610147578063103f6edd1461015c57806319d61ad91461017f5780631b6ea9f9146101925780632371494b146101a5575b600080fd5b61015a61015536600461292c565b610303565b005b6101646106de565b60405164ffffffffff90911681526020015b60405180910390f35b61015a61018d366004612958565b61076a565b61015a6101a0366004612958565b6107fc565b61015a6101b3366004612958565b610822565b61015a6101c636600461297a565b610ac9565b61015a6101d936600461297a565b610b54565b61015a6101ec366004612958565b610db1565b61015a6101ff366004612993565b610dd7565b61015a6102123660046129dd565b6111a8565b61015a610225366004612993565b61125a565b61023d610238366004612958565b611408565b6040519015158152602001610176565b61015a61025b36600461297a565b6114a5565b61015a61026e366004612a95565b61155e565b610164611901565b61015a61028936600461297a565b61193c565b61015a61029c36600461292c565b611961565b60028054600160f01b900460ff161461023d565b61015a6102c3366004612b45565b611e65565b61015a6102d6366004612b80565b612438565b6102e361251a565b6040516001600160a01b039091168152602001610176565b61015a6125a0565b6001546040516335d2155560e11b81523360048201526001600160a01b0390911690636ba42aaa9060240160206040518083038186803b15801561034657600080fd5b505afa15801561035a573d6000803e3d6000fd5b505050506040513d601f19601f8201168201806040525081019061037e9190612bd3565b6103a35760405162461bcd60e51b815260040161039a90612bf5565b60405180910390fd5b8281600160009054906101000a90046001600160a01b03166001600160a01b031663b38dc8116040518163ffffffff1660e01b815260040160206040518083038186803b1580156103f357600080fd5b505afa158015610407573d6000803e3d6000fd5b505050506040513d601f19601f8201168201806040525081019061042b9190612c20565b60405163f5bf221d60e01b815260048101849052602481018390526001600160a01b03919091169063f5bf221d9060440160206040518083038186803b15801561047457600080fd5b505afa158015610488573d6000803e3d6000fd5b505050506040513d601f19601f820116820180604052508101906104ac9190612bd3565b6104c85760405162461bcd60e51b815260040161039a90612c3d565b6001546040805163b38dc81160e01b815290516000926001600160a01b03169163b38dc811916004808301926020929190829003018186803b15801561050d57600080fd5b505afa158015610521573d6000803e3d6000fd5b505050506040513d601f19601f820116820180604052508101906105459190612c20565b6040516317e18de360e01b815260048101889052602481018790526001600160a01b0391909116906317e18de39060440160e06040518083038186803b15801561058e57600080fd5b505afa1580156105a2573d6000803e3d6000fd5b505050506040513d601f19601f820116820180604052508101906105c69190612cdd565b9050600160009054906101000a90046001600160a01b03166001600160a01b031663bd6200cc6040518163ffffffff1660e01b815260040160206040518083038186803b15801561061657600080fd5b505afa15801561062a573d6000803e3d6000fd5b505050506040513d601f19601f8201168201806040525081019061064e9190612c20565b6020820151604051630a63591760e21b815263ffffffff90911660048201526001600160a01b03919091169063298d645c90602401602060405180830381600087803b15801561069d57600080fd5b505af11580156106b1573d6000803e3d6000fd5b505050506040513d601f19601f820116820180604052508101906106d59190612bd3565b50505050505050565b60405163e8c0cc1d60e01b81526002600482015260009073__$364aad554dc80380f414546becdd2c1584$__9063e8c0cc1d906024015b60206040518083038186803b15801561072d57600080fd5b505af4158015610741573d6000803e3d6000fd5b505050506040513d601f19601f820116820180604052508101906107659190612d8d565b905090565b73__$364aad554dc80380f414546becdd2c1584$__6382daafaa600284846107906127e4565b6040516001600160e01b031960e087901b16815260048101949094526024840192909252604483015264ffffffffff16606482015260840160006040518083038186803b1580156107e057600080fd5b505af41580156107f4573d6000803e3d6000fd5b505050505050565b73__$364aad554dc80380f414546becdd2c1584$__636320d75e600284846107906127e4565b6001546040516335d2155560e11b81523360048201526001600160a01b0390911690636ba42aaa9060240160206040518083038186803b15801561086557600080fd5b505afa158015610879573d6000803e3d6000fd5b505050506040513d601f19601f8201168201806040525081019061089d9190612bd3565b6108b95760405162461bcd60e51b815260040161039a90612bf5565b8181600160009054906101000a90046001600160a01b03166001600160a01b031663b38dc8116040518163ffffffff1660e01b815260040160206040518083038186803b15801561090957600080fd5b505afa15801561091d573d6000803e3d6000fd5b505050506040513d601f19601f820116820180604052508101906109419190612c20565b60405163f5bf221d60e01b815260048101849052602481018390526001600160a01b03919091169063f5bf221d9060440160206040518083038186803b15801561098a57600080fd5b505afa15801561099e573d6000803e3d6000fd5b505050506040513d601f19601f820116820180604052508101906109c29190612bd3565b6109de5760405162461bcd60e51b815260040161039a90612c3d565b600160009054906101000a90046001600160a01b03166001600160a01b031663b38dc8116040518163ffffffff1660e01b815260040160206040518083038186803b158015610a2c57600080fd5b505afa158015610a40573d6000803e3d6000fd5b505050506040513d601f19601f82011682018060405250810190610a649190612c20565b6001600160a01b0316636555ff7a856040518263ffffffff1660e01b8152600401610a9191815260200190565b600060405180830381600087803b158015610aab57600080fd5b505af1158015610abf573d6000803e3d6000fd5b5050505050505050565b73__$364aad554dc80380f414546becdd2c1584$__63c51b295f600283610aee6127e4565b6040516001600160e01b031960e086901b1681526004810193909352602483019190915264ffffffffff16604482015260640160006040518083038186803b158015610b3957600080fd5b505af4158015610b4d573d6000803e3d6000fd5b5050505050565b604051633b11adbf60e21b81526002600482015233602482015273__$364aad554dc80380f414546becdd2c1584$__9063ec46b6fc9060440160206040518083038186803b158015610ba557600080fd5b505af4158015610bb9573d6000803e3d6000fd5b505050506040513d601f19601f82011682018060405250810190610bdd9190612bd3565b80610c82575073__$364aad554dc80380f414546becdd2c1584$__63fe2710866002610c076127e4565b6040516001600160e01b031960e085901b168152600481019290925264ffffffffff16602482015260440160206040518083038186803b158015610c4a57600080fd5b505af4158015610c5e573d6000803e3d6000fd5b505050506040513d601f19601f82011682018060405250810190610c829190612bd3565b610ced5760405162461bcd60e51b815260206004820152603660248201527f41432e6f776e65724f72446972656374426f6f6b65657065723a206e6569746860448201527532b91037bbb732b9103737b9103137b7b5b2b2b832b960511b606482015260840161039a565b73__$364aad554dc80380f414546becdd2c1584$__639b4510de600283610d126127e4565b6040516001600160e01b031960e086901b1681526004810193909352602483019190915264ffffffffff16604482015260640160006040518083038186803b158015610d5d57600080fd5b505af4158015610d71573d6000803e3d6000fd5b505050507ff2735f34b69be1e6342dea95f9162f84d0db925fab655ca9f1f312ac8cbfc99d81604051610da691815260200190565b60405180910390a150565b73__$364aad554dc80380f414546becdd2c1584$__63ee98b313600284846107906127e4565b6001546040516335d2155560e11b81523360048201526001600160a01b0390911690636ba42aaa9060240160206040518083038186803b158015610e1a57600080fd5b505afa158015610e2e573d6000803e3d6000fd5b505050506040513d601f19601f82011682018060405250810190610e529190612bd3565b610e6e5760405162461bcd60e51b815260040161039a90612bf5565b8381600160009054906101000a90046001600160a01b03166001600160a01b031663b38dc8116040518163ffffffff1660e01b815260040160206040518083038186803b158015610ebe57600080fd5b505afa158015610ed2573d6000803e3d6000fd5b505050506040513d601f19601f82011682018060405250810190610ef69190612c20565b60405163f5bf221d60e01b815260048101849052602481018390526001600160a01b03919091169063f5bf221d9060440160206040518083038186803b158015610f3f57600080fd5b505afa158015610f53573d6000803e3d6000fd5b505050506040513d601f19601f82011682018060405250810190610f779190612bd3565b610f935760405162461bcd60e51b815260040161039a90612c3d565b6001546040805163b38dc81160e01b815290516000926001600160a01b03169163b38dc811916004808301926020929190829003018186803b158015610fd857600080fd5b505afa158015610fec573d6000803e3d6000fd5b505050506040513d601f19601f820116820180604052508101906110109190612c20565b6040516317e18de360e01b815260048101899052602481018890526001600160a01b0391909116906317e18de39060440160e06040518083038186803b15801561105957600080fd5b505afa15801561106d573d6000803e3d6000fd5b505050506040513d601f19601f820116820180604052508101906110919190612cdd565b9050600160009054906101000a90046001600160a01b03166001600160a01b031663bd6200cc6040518163ffffffff1660e01b815260040160206040518083038186803b1580156110e157600080fd5b505afa1580156110f5573d6000803e3d6000fd5b505050506040513d601f19601f820116820180604052508101906111199190612c20565b6020820151604051633f11707560e11b815263ffffffff9091166004820152602481018790526001600160a01b039190911690637e22e0ea906044015b602060405180830381600087803b15801561117057600080fd5b505af1158015611184573d6000803e3d6000fd5b505050506040513d601f19601f82011682018060405250810190610abf9190612bd3565b604051630f07232560e01b8152600260048201526001600160a01b038216602482015233604482015273__$364aad554dc80380f414546becdd2c1584$__90630f0723259060640160006040518083038186803b15801561120857600080fd5b505af415801561121c573d6000803e3d6000fd5b50506040516001600160a01b03841681527fe435cbeab64e4eae6497b9d8289704bd709d624a80704ef3ca9af777534bc6ec92506020019050610da6565b604051633b11adbf60e21b81526002600482015233602482015273__$364aad554dc80380f414546becdd2c1584$__9063ec46b6fc9060440160206040518083038186803b1580156112ab57600080fd5b505af41580156112bf573d6000803e3d6000fd5b505050506040513d601f19601f820116820180604052508101906112e39190612bd3565b61133e5760405162461bcd60e51b815260206004820152602660248201527f41432e6f6e6c794469726563744b65657065723a206e6f74206469726563742060448201526535b2b2b832b960d11b606482015260840161039a565b600160009054906101000a90046001600160a01b03166001600160a01b031663b38dc8116040518163ffffffff1660e01b815260040160206040518083038186803b15801561138c57600080fd5b505afa1580156113a0573d6000803e3d6000fd5b505050506040513d601f19601f820116820180604052508101906113c49190612c20565b6040516376f2736f60e01b8152600481018690526024810185905260448101849052606481018390526001600160a01b0391909116906376f2736f90608401610a91565b604051632a3be56b60e21b815260026004820152602481018390526044810182905260009073__$364aad554dc80380f414546becdd2c1584$__9063a8ef95ac9060640160206040518083038186803b15801561146457600080fd5b505af4158015611478573d6000803e3d6000fd5b505050506040513d601f19601f8201168201806040525081019061149c9190612bd3565b90505b92915050565b73__$364aad554dc80380f414546becdd2c1584$__639b48160c6002836114ca6127e4565b6040516001600160e01b031960e086901b1681526004810193909352602483019190915264ffffffffff16604482015260640160006040518083038186803b15801561151557600080fd5b505af4158015611529573d6000803e3d6000fd5b505050507f8b6f40f36b4ae8cc5f55e895036457c43da4ab1f80f58c46f5ff0d72a650033b81604051610da691815260200190565b6001546040516335d2155560e11b81523360048201526001600160a01b0390911690636ba42aaa9060240160206040518083038186803b1580156115a157600080fd5b505afa1580156115b5573d6000803e3d6000fd5b505050506040513d601f19601f820116820180604052508101906115d99190612bd3565b6115f55760405162461bcd60e51b815260040161039a90612bf5565b8381600160009054906101000a90046001600160a01b03166001600160a01b031663b38dc8116040518163ffffffff1660e01b815260040160206040518083038186803b15801561164557600080fd5b505afa158015611659573d6000803e3d6000fd5b505050506040513d601f19601f8201168201806040525081019061167d9190612c20565b6040516303bce3c360e41b815260048101849052602481018390526001600160a01b039190911690633bce3c309060440160206040518083038186803b1580156116c657600080fd5b505afa1580156116da573d6000803e3d6000fd5b505050506040513d601f19601f820116820180604052508101906116fe9190612bd3565b61174a5760405162461bcd60e51b815260206004820152601760248201527f424f4f4b2e6d662e4f4f3a204e4f54206f626c69676f72000000000000000000604482015260640161039a565b6001546040805163b38dc81160e01b815290516000926001600160a01b03169163b38dc811916004808301926020929190829003018186803b15801561178f57600080fd5b505afa1580156117a3573d6000803e3d6000fd5b505050506040513d601f19601f820116820180604052508101906117c79190612c20565b6040516317e18de360e01b815260048101899052602481018890526001600160a01b0391909116906317e18de39060440160e06040518083038186803b15801561181057600080fd5b505afa158015611824573d6000803e3d6000fd5b505050506040513d601f19601f820116820180604052508101906118489190612cdd565b9050600160009054906101000a90046001600160a01b03166001600160a01b031663bd6200cc6040518163ffffffff1660e01b815260040160206040518083038186803b15801561189857600080fd5b505afa1580156118ac573d6000803e3d6000fd5b505050506040513d601f19601f820116820180604052508101906118d09190612c20565b6001600160a01b031663903cd5008260200151876040518363ffffffff1660e01b8152600401611156929190612da8565b60405163987ad15360e01b81526002600482015260009073__$364aad554dc80380f414546becdd2c1584$__9063987ad15390602401610715565b73__$364aad554dc80380f414546becdd2c1584$__63cc0d511b600283610aee6127e4565b6001546040516335d2155560e11b81523360048201526001600160a01b0390911690636ba42aaa9060240160206040518083038186803b1580156119a457600080fd5b505afa1580156119b8573d6000803e3d6000fd5b505050506040513d601f19601f820116820180604052508101906119dc9190612bd3565b6119f85760405162461bcd60e51b815260040161039a90612bf5565b600160009054906101000a90046001600160a01b03166001600160a01b031663b38dc8116040518163ffffffff1660e01b815260040160206040518083038186803b158015611a4657600080fd5b505afa158015611a5a573d6000803e3d6000fd5b505050506040513d601f19601f82011682018060405250810190611a7e9190612c20565b60405163f5bf221d60e01b815260048101859052602481018390526001600160a01b03919091169063f5bf221d9060440160206040518083038186803b158015611ac757600080fd5b505afa158015611adb573d6000803e3d6000fd5b505050506040513d601f19601f82011682018060405250810190611aff9190612bd3565b80611c0c5750600160009054906101000a90046001600160a01b03166001600160a01b031663b38dc8116040518163ffffffff1660e01b815260040160206040518083038186803b158015611b5357600080fd5b505afa158015611b67573d6000803e3d6000fd5b505050506040513d601f19601f82011682018060405250810190611b8b9190612c20565b6040516303bce3c360e41b815260048101859052602481018390526001600160a01b039190911690633bce3c309060440160206040518083038186803b158015611bd457600080fd5b505afa158015611be8573d6000803e3d6000fd5b505050506040513d601f19601f82011682018060405250810190611c0c9190612bd3565b611c585760405162461bcd60e51b815260206004820152601e60248201527f424f4f4b2e52534f3a206e6f7420696e74657265737465642070617274790000604482015260640161039a565b6001546040805163b38dc81160e01b815290516000926001600160a01b03169163b38dc811916004808301926020929190829003018186803b158015611c9d57600080fd5b505afa158015611cb1573d6000803e3d6000fd5b505050506040513d601f19601f82011682018060405250810190611cd59190612c20565b6040516317e18de360e01b815260048101869052602481018590526001600160a01b0391909116906317e18de39060440160e06040518083038186803b158015611d1e57600080fd5b505afa158015611d32573d6000803e3d6000fd5b505050506040513d601f19601f82011682018060405250810190611d569190612cdd565b9050600160009054906101000a90046001600160a01b03166001600160a01b031663bd6200cc6040518163ffffffff1660e01b815260040160206040518083038186803b158015611da657600080fd5b505afa158015611dba573d6000803e3d6000fd5b505050506040513d601f19601f82011682018060405250810190611dde9190612c20565b6020820151604051630a63591760e21b815263ffffffff90911660048201526001600160a01b03919091169063298d645c90602401602060405180830381600087803b158015611e2d57600080fd5b505af1158015611e41573d6000803e3d6000fd5b505050506040513d601f19601f82011682018060405250810190610b4d9190612bd3565b6001546040516335d2155560e11b81523360048201526001600160a01b0390911690636ba42aaa9060240160206040518083038186803b158015611ea857600080fd5b505afa158015611ebc573d6000803e3d6000fd5b505050506040513d601f19601f82011682018060405250810190611ee09190612bd3565b611efc5760405162461bcd60e51b815260040161039a90612bf5565b8481600160009054906101000a90046001600160a01b03166001600160a01b031663b38dc8116040518163ffffffff1660e01b815260040160206040518083038186803b158015611f4c57600080fd5b505afa158015611f60573d6000803e3d6000fd5b505050506040513d601f19601f82011682018060405250810190611f849190612c20565b60405163f5bf221d60e01b815260048101849052602481018390526001600160a01b03919091169063f5bf221d9060440160206040518083038186803b158015611fcd57600080fd5b505afa158015611fe1573d6000803e3d6000fd5b505050506040513d601f19601f820116820180604052508101906120059190612bd3565b6120215760405162461bcd60e51b815260040161039a90612c3d565b6001546040805163b38dc81160e01b815290516000926001600160a01b03169163b38dc811916004808301926020929190829003018186803b15801561206657600080fd5b505afa15801561207a573d6000803e3d6000fd5b505050506040513d601f19601f8201168201806040525081019061209e9190612c20565b6040516331316bbf60e21b8152600481018a90526024810189905260448101889052606481018790526001600160a01b03919091169063c4c5aefc906084016102206040518083038186803b1580156120f657600080fd5b505afa15801561210a573d6000803e3d6000fd5b505050506040513d601f19601f8201168201806040525081019061212e9190612ed4565b9050600160009054906101000a90046001600160a01b03166001600160a01b031663bd6200cc6040518163ffffffff1660e01b815260040160206040518083038186803b15801561217e57600080fd5b505afa158015612192573d6000803e3d6000fd5b505050506040513d601f19601f820116820180604052508101906121b69190612c20565b6001600160a01b031663f241f7f8826040518263ffffffff1660e01b81526004016121e19190613109565b61022060405180830381600087803b1580156121fc57600080fd5b505af1158015612210573d6000803e3d6000fd5b505050506040513d601f19601f820116820180604052508101906122349190612ed4565b9050600160009054906101000a90046001600160a01b03166001600160a01b031663bd6200cc6040518163ffffffff1660e01b815260040160206040518083038186803b15801561228457600080fd5b505afa158015612298573d6000803e3d6000fd5b505050506040513d601f19601f820116820180604052508101906122bc9190612c20565b81515160405163dc730ca160e01b815263ffffffff909116600482015260248101899052604481018790526001600160a01b03919091169063dc730ca19060640160e060405180830381600087803b15801561231757600080fd5b505af115801561232b573d6000803e3d6000fd5b505050506040513d601f19601f8201168201806040525081019061234f9190613118565b6020808301919091526001546040805163b38dc81160e01b815290516001600160a01b039092169263b38dc81192600480840193829003018186803b15801561239757600080fd5b505afa1580156123ab573d6000803e3d6000fd5b505050506040513d601f19601f820116820180604052508101906123cf9190612c20565b6001600160a01b031663fd323a7a89836040518363ffffffff1660e01b81526004016123fc929190613134565b600060405180830381600087803b15801561241657600080fd5b505af115801561242a573d6000803e3d6000fd5b505050505050505050505050565b604051636cdd0edf60e11b815260026004820152602481018590526001600160a01b038416604482015273__$364aad554dc80380f414546becdd2c1584$__9063d9ba1dbe9060640160006040518083038186803b15801561249957600080fd5b505af41580156124ad573d6000803e3d6000fd5b505050506124ba8261283e565b6124c3816128b1565b604080518581526001600160a01b038581166020830152848116828401528316606082015290517f3abb2418c66fe32ba9c883030a75ce583971d9af9192b9b74e44e67c5e6c8c1f9181900360800190a150505050565b604051633c3e56c160e11b81526002600482015260009073__$364aad554dc80380f414546becdd2c1584$__9063787cad829060240160206040518083038186803b15801561256857600080fd5b505af415801561257c573d6000803e3d6000fd5b505050506040513d601f19601f820116820180604052508101906107659190612c20565b600254600160f01b900460ff166001146125fc5760405162461bcd60e51b815260206004820152601760248201527f41432e4c433a20446f632069732066696e616c697a6564000000000000000000604482015260640161039a565b73__$364aad554dc80380f414546becdd2c1584$__63c51b295f6002684174746f726e65797360b81b61262d6127e4565b6040516001600160e01b031960e086901b1681526004810193909352602483019190915264ffffffffff16604482015260640160006040518083038186803b15801561267857600080fd5b505af415801561268c573d6000803e3d6000fd5b50505050600273__$364aad554dc80380f414546becdd2c1584$__639b4510de909160006126b86127e4565b6040516001600160e01b031960e086901b1681526004810193909352602483019190915264ffffffffff16604482015260640160006040518083038186803b15801561270357600080fd5b505af4158015612717573d6000803e3d6000fd5b50505050600273__$364aad554dc80380f414546becdd2c1584$__639b48160c909160006127436127e4565b6040516001600160e01b031960e086901b1681526004810193909352602483019190915264ffffffffff16604482015260640160006040518083038186803b15801561278e57600080fd5b505af41580156127a2573d6000803e3d6000fd5b50506002805460ff60f01b1916600160f11b17905550506040517f35012b512309c322acf68632cd6cb702ff0e1d776fbe9394e38ffc13b434fe7590600090a1565b60008054604051636ae3b70d60e11b81523360048201526001600160a01b039091169063d5c76e1a90602401602060405180830381600087803b15801561282a57600080fd5b505af1158015610741573d6000803e3d6000fd5b6000546001600160a01b03161561288f5760405162461bcd60e51b815260206004820152601560248201527430b63932b0b23c9039b2ba103932b3a1b2b73a32b960591b604482015260640161039a565b600080546001600160a01b0319166001600160a01b0392909216919091179055565b6001546001600160a01b03161561290a5760405162461bcd60e51b815260206004820152601960248201527f616c7265616479207365742067656e6572616c4b656570657200000000000000604482015260640161039a565b600180546001600160a01b0319166001600160a01b0392909216919091179055565b60008060006060848603121561294157600080fd5b505081359360208301359350604090920135919050565b6000806040838503121561296b57600080fd5b50508035926020909101359150565b60006020828403121561298c57600080fd5b5035919050565b600080600080608085870312156129a957600080fd5b5050823594602084013594506040840135936060013592509050565b6001600160a01b03811681146129da57600080fd5b50565b6000602082840312156129ef57600080fd5b81356129fa816129c5565b9392505050565b634e487b7160e01b600052604160045260246000fd5b6040516060810167ffffffffffffffff81118282101715612a3a57612a3a612a01565b60405290565b604051610120810167ffffffffffffffff81118282101715612a3a57612a3a612a01565b604051601f8201601f1916810167ffffffffffffffff81118282101715612a8d57612a8d612a01565b604052919050565b60008060008060808587031215612aab57600080fd5b843593506020808601359350604086013567ffffffffffffffff80821115612ad257600080fd5b818801915088601f830112612ae657600080fd5b813581811115612af857612af8612a01565b612b0a601f8201601f19168501612a64565b91508082528984828501011115612b2057600080fd5b8084840185840137600090820190930192909252509396929550929360600135925050565b600080600080600060a08688031215612b5d57600080fd5b505083359560208501359550604085013594606081013594506080013592509050565b60008060008060808587031215612b9657600080fd5b843593506020850135612ba8816129c5565b92506040850135612bb8816129c5565b91506060850135612bc8816129c5565b939692955090935050565b600060208284031215612be557600080fd5b815180151581146129fa57600080fd5b60208082526011908201527020a19737b59d103737ba1025b2b2b832b960791b604082015260600190565b600060208284031215612c3257600080fd5b81516129fa816129c5565b6020808252601b908201527f424f4f4b2e6d662e4f523a204e4f54207269676874686f6c6465720000000000604082015260600190565b805161ffff81168114612c8657600080fd5b919050565b805163ffffffff81168114612c8657600080fd5b805167ffffffffffffffff81168114612c8657600080fd5b805164ffffffffff81168114612c8657600080fd5b805160ff81168114612c8657600080fd5b600060e08284031215612cef57600080fd5b60405160e0810181811067ffffffffffffffff82111715612d1257612d12612a01565b604052612d1e83612c74565b8152612d2c60208401612c8b565b6020820152612d3d60408401612c8b565b6040820152612d4e60608401612c9f565b6060820152612d5f60808401612c9f565b6080820152612d7060a08401612cb7565b60a0820152612d8160c08401612ccc565b60c08201529392505050565b600060208284031215612d9f57600080fd5b61149c82612cb7565b63ffffffff8316815260006020604081840152835180604085015260005b81811015612de257858101830151858201606001528201612dc6565b81811115612df4576000606083870101525b50601f01601f191692909201606001949350505050565b805165ffffffffffff81168114612c8657600080fd5b600060e08284031215612e3357600080fd5b60405160e0810181811067ffffffffffffffff82111715612e5657612e56612a01565b604052905080612e6583612cb7565b8152612e7360208401612c8b565b6020820152612e8460408401612c9f565b6040820152612e9560608401612c8b565b6060820152612ea660808401612c9f565b6080820152612eb760a08401612ccc565b60a0820152612ec860c08401612c74565b60c08201525092915050565b6000818303610220811215612ee857600080fd5b612ef0612a17565b61012080831215612f0057600080fd5b612f08612a40565b9250612f1385612c8b565b8352612f2160208601612c74565b6020840152612f3260408601612c74565b6040840152612f4360608601612e0b565b6060840152612f5460808601612e0b565b6080840152612f6560a08601612c74565b60a0840152612f7660c08601612cb7565b60c0840152612f8760e08601612c8b565b60e0840152610100612f9a818701612ccc565b90840152828252612fad86868301612e21565b60208301525061020093909301516040840152509092915050565b805163ffffffff815116835261ffff60208201511660208401526040810151612ff7604085018261ffff169052565b506060810151613011606085018265ffffffffffff169052565b50608081015161302b608085018265ffffffffffff169052565b5060a081015161304160a085018261ffff169052565b5060c081015161305a60c085018264ffffffffff169052565b5060e081015161307260e085018263ffffffff169052565b506101009081015160ff811684830152905050602081810151805164ffffffffff166101208501529081015163ffffffff908116610140850152604082015167ffffffffffffffff90811661016086015260608301519091166101808501526080820151166101a084015260a081015160ff166101c084015260c081015161ffff166101e084015250604001516102009190910152565b610220810161149f8284612fc8565b600060e0828403121561312a57600080fd5b61149c8383612e21565b82815261024081016129fa6020830184612fc856fea2646970667358221220472b700d5dd08fb3f385c2455a6e6b6cac2c6157c87d2e677510de116d5e2a1864736f6c63430008080033",
    "sourcePath": "/Users/kaptain/github.com/hardhat/comboox/contracts/keepers/BOOkeeper.sol",
    "compiler": {
        "name": "solc",
        "version": "0.8.8+commit.dddeac2f"
    },
    "functionHashes": {
        "abandonRole(bytes32)": "3da9a600",
        "execOption(uint256,uint256)": "2371494b",
        "execSwapOrder(uint256,uint256,uint256)": "084179bd",
        "finalized()": "b3f05b97",
        "getBookeeper()": "ed211023",
        "getGeneralCounsel()": "103f6edd",
        "getOwner()": "893d20e8",
        "grantRole(bytes32,uint256)": "1b6ea9f9",
        "hasRole(bytes32,uint256)": "7e063c5a",
        "init(uint256,address,address,address)": "dc890da9",
        "lockContents()": "f045a769",
        "lockSwapOrder(uint256,uint256,bytes32,uint256)": "5d0389cd",
        "placeSwapOrder(uint256,uint256,uint256,uint256,uint256)": "b647c729",
        "releaseSwapOrder(uint256,uint256,string,uint256)": "866f989d",
        "renounceRole(bytes32)": "8bb9c5bf",
        "revokeRole(bytes32,uint256)": "19d61ad9",
        "revokeSwapOrder(uint256,uint256,uint256)": "ab359417",
        "setDirectKeeper(address)": "6be8496f",
        "setGeneralCounsel(uint256)": "4a14beb1",
        "setOwner(uint256)": "8041494e",
        "setRoleAdmin(bytes32,uint256)": "5171ebd4",
        "updateOracle(uint256,uint256,uint256,uint256)": "76f2736f"
    },
    "gasEstimates": {
        "creation": {
            "codeDepositCost": "2534200",
            "executionCost": "2733",
            "totalCost": "2536933"
        },
        "external": {
            "abandonRole(bytes32)": "infinite",
            "execOption(uint256,uint256)": "infinite",
            "execSwapOrder(uint256,uint256,uint256)": "infinite",
            "finalized()": "2371",
            "getBookeeper()": "infinite",
            "getGeneralCounsel()": "infinite",
            "getOwner()": "infinite",
            "grantRole(bytes32,uint256)": "infinite",
            "hasRole(bytes32,uint256)": "infinite",
            "init(uint256,address,address,address)": "infinite",
            "lockContents()": "infinite",
            "lockSwapOrder(uint256,uint256,bytes32,uint256)": "infinite",
            "placeSwapOrder(uint256,uint256,uint256,uint256,uint256)": "infinite",
            "releaseSwapOrder(uint256,uint256,string,uint256)": "infinite",
            "renounceRole(bytes32)": "infinite",
            "revokeRole(bytes32,uint256)": "infinite",
            "revokeSwapOrder(uint256,uint256,uint256)": "infinite",
            "setDirectKeeper(address)": "infinite",
            "setGeneralCounsel(uint256)": "infinite",
            "setOwner(uint256)": "infinite",
            "setRoleAdmin(bytes32,uint256)": "infinite",
            "updateOracle(uint256,uint256,uint256,uint256)": "infinite"
        }
    }
}