{
    "contractName": "BOOKeeper",
    "abi": [
        {
            "anonymous": false,
            "inputs": [
                {
                    "indexed": false,
                    "internalType": "uint256",
                    "name": "owner",
                    "type": "uint256"
                },
                {
                    "indexed": false,
                    "internalType": "address",
                    "name": "directKeeper",
                    "type": "address"
                },
                {
                    "indexed": false,
                    "internalType": "address",
                    "name": "regCenter",
                    "type": "address"
                },
                {
                    "indexed": false,
                    "internalType": "address",
                    "name": "generalKeeper",
                    "type": "address"
                }
            ],
            "name": "Init",
            "type": "event"
        },
        {
            "anonymous": false,
            "inputs": [],
            "name": "LockContents",
            "type": "event"
        },
        {
            "anonymous": false,
            "inputs": [
                {
                    "indexed": false,
                    "internalType": "address",
                    "name": "keeper",
                    "type": "address"
                }
            ],
            "name": "SetDirectKeeper",
            "type": "event"
        },
        {
            "anonymous": false,
            "inputs": [
                {
                    "indexed": false,
                    "internalType": "uint256",
                    "name": "acct",
                    "type": "uint256"
                }
            ],
            "name": "SetGeneralCounsel",
            "type": "event"
        },
        {
            "anonymous": false,
            "inputs": [
                {
                    "indexed": false,
                    "internalType": "address",
                    "name": "gk",
                    "type": "address"
                }
            ],
            "name": "SetGeneralKeeper",
            "type": "event"
        },
        {
            "anonymous": false,
            "inputs": [
                {
                    "indexed": false,
                    "internalType": "uint256",
                    "name": "acct",
                    "type": "uint256"
                }
            ],
            "name": "SetOwner",
            "type": "event"
        },
        {
            "anonymous": false,
            "inputs": [
                {
                    "indexed": false,
                    "internalType": "address",
                    "name": "rc",
                    "type": "address"
                }
            ],
            "name": "SetRegCenter",
            "type": "event"
        },
        {
            "inputs": [
                {
                    "internalType": "bytes32",
                    "name": "role",
                    "type": "bytes32"
                }
            ],
            "name": "abandonRole",
            "outputs": [],
            "stateMutability": "nonpayable",
            "type": "function"
        },
        {
            "inputs": [
                {
                    "internalType": "uint256",
                    "name": "seqOfOpt",
                    "type": "uint256"
                },
                {
                    "internalType": "uint256",
                    "name": "caller",
                    "type": "uint256"
                }
            ],
            "name": "execOption",
            "outputs": [],
            "stateMutability": "nonpayable",
            "type": "function"
        },
        {
            "inputs": [
                {
                    "internalType": "uint256",
                    "name": "seqOfOpt",
                    "type": "uint256"
                },
                {
                    "internalType": "uint256",
                    "name": "seqOfBrf",
                    "type": "uint256"
                },
                {
                    "internalType": "uint256",
                    "name": "caller",
                    "type": "uint256"
                }
            ],
            "name": "execSwapOrder",
            "outputs": [],
            "stateMutability": "nonpayable",
            "type": "function"
        },
        {
            "inputs": [],
            "name": "finalized",
            "outputs": [
                {
                    "internalType": "bool",
                    "name": "",
                    "type": "bool"
                }
            ],
            "stateMutability": "view",
            "type": "function"
        },
        {
            "inputs": [],
            "name": "getBookeeper",
            "outputs": [
                {
                    "internalType": "address",
                    "name": "",
                    "type": "address"
                }
            ],
            "stateMutability": "view",
            "type": "function"
        },
        {
            "inputs": [],
            "name": "getGeneralCounsel",
            "outputs": [
                {
                    "internalType": "uint40",
                    "name": "",
                    "type": "uint40"
                }
            ],
            "stateMutability": "view",
            "type": "function"
        },
        {
            "inputs": [],
            "name": "getOwner",
            "outputs": [
                {
                    "internalType": "uint40",
                    "name": "",
                    "type": "uint40"
                }
            ],
            "stateMutability": "view",
            "type": "function"
        },
        {
            "inputs": [
                {
                    "internalType": "bytes32",
                    "name": "role",
                    "type": "bytes32"
                },
                {
                    "internalType": "uint256",
                    "name": "acct",
                    "type": "uint256"
                }
            ],
            "name": "grantRole",
            "outputs": [],
            "stateMutability": "nonpayable",
            "type": "function"
        },
        {
            "inputs": [
                {
                    "internalType": "bytes32",
                    "name": "role",
                    "type": "bytes32"
                },
                {
                    "internalType": "uint256",
                    "name": "acct",
                    "type": "uint256"
                }
            ],
            "name": "hasRole",
            "outputs": [
                {
                    "internalType": "bool",
                    "name": "",
                    "type": "bool"
                }
            ],
            "stateMutability": "view",
            "type": "function"
        },
        {
            "inputs": [
                {
                    "internalType": "uint256",
                    "name": "owner",
                    "type": "uint256"
                },
                {
                    "internalType": "address",
                    "name": "directKeeper",
                    "type": "address"
                },
                {
                    "internalType": "address",
                    "name": "regCenter",
                    "type": "address"
                },
                {
                    "internalType": "address",
                    "name": "generalKeeper",
                    "type": "address"
                }
            ],
            "name": "init",
            "outputs": [],
            "stateMutability": "nonpayable",
            "type": "function"
        },
        {
            "inputs": [],
            "name": "lockContents",
            "outputs": [],
            "stateMutability": "nonpayable",
            "type": "function"
        },
        {
            "inputs": [
                {
                    "internalType": "uint256",
                    "name": "seqOfOpt",
                    "type": "uint256"
                },
                {
                    "internalType": "uint256",
                    "name": "seqOfBrf",
                    "type": "uint256"
                },
                {
                    "internalType": "bytes32",
                    "name": "hashLock",
                    "type": "bytes32"
                },
                {
                    "internalType": "uint256",
                    "name": "caller",
                    "type": "uint256"
                }
            ],
            "name": "lockSwapOrder",
            "outputs": [],
            "stateMutability": "nonpayable",
            "type": "function"
        },
        {
            "inputs": [
                {
                    "internalType": "uint256",
                    "name": "seqOfOpt",
                    "type": "uint256"
                },
                {
                    "internalType": "uint32",
                    "name": "seqOfConsider",
                    "type": "uint32"
                },
                {
                    "internalType": "uint32",
                    "name": "paidOfConsider",
                    "type": "uint32"
                },
                {
                    "internalType": "uint32",
                    "name": "seqOfTarget",
                    "type": "uint32"
                },
                {
                    "internalType": "uint256",
                    "name": "caller",
                    "type": "uint256"
                }
            ],
            "name": "placeSwapOrder",
            "outputs": [],
            "stateMutability": "nonpayable",
            "type": "function"
        },
        {
            "inputs": [
                {
                    "internalType": "uint256",
                    "name": "seqOfOpt",
                    "type": "uint256"
                },
                {
                    "internalType": "uint256",
                    "name": "seqOfBrf",
                    "type": "uint256"
                },
                {
                    "internalType": "string",
                    "name": "hashKey",
                    "type": "string"
                },
                {
                    "internalType": "uint256",
                    "name": "caller",
                    "type": "uint256"
                }
            ],
            "name": "releaseSwapOrder",
            "outputs": [],
            "stateMutability": "nonpayable",
            "type": "function"
        },
        {
            "inputs": [
                {
                    "internalType": "bytes32",
                    "name": "role",
                    "type": "bytes32"
                }
            ],
            "name": "renounceRole",
            "outputs": [],
            "stateMutability": "nonpayable",
            "type": "function"
        },
        {
            "inputs": [
                {
                    "internalType": "bytes32",
                    "name": "role",
                    "type": "bytes32"
                },
                {
                    "internalType": "uint256",
                    "name": "acct",
                    "type": "uint256"
                }
            ],
            "name": "revokeRole",
            "outputs": [],
            "stateMutability": "nonpayable",
            "type": "function"
        },
        {
            "inputs": [
                {
                    "internalType": "uint256",
                    "name": "seqOfOpt",
                    "type": "uint256"
                },
                {
                    "internalType": "uint256",
                    "name": "seqOfBrf",
                    "type": "uint256"
                },
                {
                    "internalType": "uint256",
                    "name": "caller",
                    "type": "uint256"
                }
            ],
            "name": "revokeSwapOrder",
            "outputs": [],
            "stateMutability": "nonpayable",
            "type": "function"
        },
        {
            "inputs": [
                {
                    "internalType": "address",
                    "name": "keeper",
                    "type": "address"
                }
            ],
            "name": "setDirectKeeper",
            "outputs": [],
            "stateMutability": "nonpayable",
            "type": "function"
        },
        {
            "inputs": [
                {
                    "internalType": "uint256",
                    "name": "acct",
                    "type": "uint256"
                }
            ],
            "name": "setGeneralCounsel",
            "outputs": [],
            "stateMutability": "nonpayable",
            "type": "function"
        },
        {
            "inputs": [
                {
                    "internalType": "uint256",
                    "name": "acct",
                    "type": "uint256"
                }
            ],
            "name": "setOwner",
            "outputs": [],
            "stateMutability": "nonpayable",
            "type": "function"
        },
        {
            "inputs": [
                {
                    "internalType": "bytes32",
                    "name": "role",
                    "type": "bytes32"
                },
                {
                    "internalType": "uint256",
                    "name": "acct",
                    "type": "uint256"
                }
            ],
            "name": "setRoleAdmin",
            "outputs": [],
            "stateMutability": "nonpayable",
            "type": "function"
        },
        {
            "inputs": [
                {
                    "internalType": "uint256",
                    "name": "seqOfOpt",
                    "type": "uint256"
                },
                {
                    "internalType": "uint64",
                    "name": "d1",
                    "type": "uint64"
                },
                {
                    "internalType": "uint64",
                    "name": "d2",
                    "type": "uint64"
                },
                {
                    "internalType": "uint64",
                    "name": "d3",
                    "type": "uint64"
                }
            ],
            "name": "updateOracle",
            "outputs": [],
            "stateMutability": "nonpayable",
            "type": "function"
        }
    ],
    "bytecode": "608060405234801561001057600080fd5b50612a51806100206000396000f3fe608060405234801561001057600080fd5b50600436106101425760003560e01c80637e063c5a116100b8578063a697e1121161007c578063a697e1121461028e578063ab359417146102a1578063b3f05b97146102b4578063dc890da9146102c8578063ed211023146102db578063f045a769146102fb57600080fd5b80637e063c5a1461022a5780638041494e1461024d578063866f989d14610260578063893d20e8146102735780638bb9c5bf1461027b57600080fd5b80632b6c0ce11161010a5780632b6c0ce1146101b85780633da9a600146101cb5780634a14beb1146101de5780635171ebd4146101f15780635d0389cd146102045780636be8496f1461021757600080fd5b8063084179bd14610147578063103f6edd1461015c57806319d61ad91461017f5780631b6ea9f9146101925780632371494b146101a5575b600080fd5b61015a610155366004612129565b610303565b005b61016461056f565b60405164ffffffffff90911681526020015b60405180910390f35b61015a61018d366004612155565b6105fb565b61015a6101a0366004612155565b61068f565b61015a6101b3366004612155565b6106b4565b61015a6101c6366004612190565b61085f565b61015a6101d93660046121e3565b61095b565b61015a6101ec3660046121e3565b610a6d565b61015a6101ff366004612155565b610c5d565b61015a6102123660046121fc565b610c82565b61015a610225366004612243565b610ee4565b61023d610238366004612155565b610f96565b6040519015158152602001610176565b61015a61025b3660046121e3565b611033565b61015a61026e3660046122fb565b611218565b61016461144c565b61015a6102893660046121e3565b611487565b61015a61029c3660046123bd565b6114e0565b61015a6102af366004612129565b61185c565b60028054600160f01b900460ff161461023d565b61015a6102d6366004612418565b611b63565b6102e3611c46565b6040516001600160a01b039091168152602001610176565b61015a611ccc565b6001546040516335d2155560e11b81523360048201526001600160a01b0390911690636ba42aaa9060240160206040518083038186803b15801561034657600080fd5b505afa15801561035a573d6000803e3d6000fd5b505050506040513d601f19601f8201168201806040525081019061037e9190612460565b6103a35760405162461bcd60e51b815260040161039a90612482565b60405180910390fd5b82816103ad611eea565b60405163f5bf221d60e01b815260048101849052602481018390526001600160a01b03919091169063f5bf221d9060440160206040518083038186803b1580156103f657600080fd5b505afa15801561040a573d6000803e3d6000fd5b505050506040513d601f19601f8201168201806040525081019061042e9190612460565b61044a5760405162461bcd60e51b815260040161039a906124ad565b6000610454611eea565b6040516317e18de360e01b815260048101889052602481018790526001600160a01b0391909116906317e18de39060440160e06040518083038186803b15801561049d57600080fd5b505afa1580156104b1573d6000803e3d6000fd5b505050506040513d601f19601f820116820180604052508101906104d5919061252c565b90506104df611f4e565b6020820151604051630a63591760e21b815263ffffffff90911660048201526001600160a01b03919091169063298d645c90602401602060405180830381600087803b15801561052e57600080fd5b505af1158015610542573d6000803e3d6000fd5b505050506040513d601f19601f820116820180604052508101906105669190612460565b50505050505050565b60405163e8c0cc1d60e01b81526002600482015260009073__$364aad554dc80380f414546becdd2c1584$__9063e8c0cc1d906024015b60206040518083038186803b1580156105be57600080fd5b505af41580156105d2573d6000803e3d6000fd5b505050506040513d601f19601f820116820180604052508101906105f691906125e4565b905090565b73__$364aad554dc80380f414546becdd2c1584$__6382daafaa600284610620611f69565b6040516001600160e01b031960e086901b1681526004810193909352602483019190915264ffffffffff166044820152606481018490526084015b60006040518083038186803b15801561067357600080fd5b505af4158015610687573d6000803e3d6000fd5b505050505050565b73__$364aad554dc80380f414546becdd2c1584$__636320d75e600284610620611f69565b6001546040516335d2155560e11b81523360048201526001600160a01b0390911690636ba42aaa9060240160206040518083038186803b1580156106f757600080fd5b505afa15801561070b573d6000803e3d6000fd5b505050506040513d601f19601f8201168201806040525081019061072f9190612460565b61074b5760405162461bcd60e51b815260040161039a90612482565b8181610755611eea565b60405163f5bf221d60e01b815260048101849052602481018390526001600160a01b03919091169063f5bf221d9060440160206040518083038186803b15801561079e57600080fd5b505afa1580156107b2573d6000803e3d6000fd5b505050506040513d601f19601f820116820180604052508101906107d69190612460565b6107f25760405162461bcd60e51b815260040161039a906124ad565b6107fa611eea565b6001600160a01b0316636555ff7a856040518263ffffffff1660e01b815260040161082791815260200190565b600060405180830381600087803b15801561084157600080fd5b505af1158015610855573d6000803e3d6000fd5b5050505050505050565b604051633b11adbf60e21b81526002600482015233602482015273__$364aad554dc80380f414546becdd2c1584$__9063ec46b6fc9060440160206040518083038186803b1580156108b057600080fd5b505af41580156108c4573d6000803e3d6000fd5b505050506040513d601f19601f820116820180604052508101906108e89190612460565b6109045760405162461bcd60e51b815260040161039a906125ff565b61090c611eea565b604051632b6c0ce160e01b81526004810186905267ffffffffffffffff80861660248301528085166044830152831660648201526001600160a01b039190911690632b6c0ce190608401610827565b604051633b11adbf60e21b81526002600482015233602482015273__$364aad554dc80380f414546becdd2c1584$__9063ec46b6fc9060440160206040518083038186803b1580156109ac57600080fd5b505af41580156109c0573d6000803e3d6000fd5b505050506040513d601f19601f820116820180604052508101906109e49190612460565b610a005760405162461bcd60e51b815260040161039a906125ff565b60405163cc99e11b60e01b8152600260048201526024810182905273__$364aad554dc80380f414546becdd2c1584$__9063cc99e11b9060440160006040518083038186803b158015610a5257600080fd5b505af4158015610a66573d6000803e3d6000fd5b5050505050565b604051633b11adbf60e21b81526002600482015233602482015273__$364aad554dc80380f414546becdd2c1584$__9063ec46b6fc9060440160206040518083038186803b158015610abe57600080fd5b505af4158015610ad2573d6000803e3d6000fd5b505050506040513d601f19601f82011682018060405250810190610af69190612460565b80610b9b575073__$364aad554dc80380f414546becdd2c1584$__63fe2710866002610b20611f69565b6040516001600160e01b031960e085901b168152600481019290925264ffffffffff16602482015260440160206040518083038186803b158015610b6357600080fd5b505af4158015610b77573d6000803e3d6000fd5b505050506040513d601f19601f82011682018060405250810190610b9b9190612460565b610bb75760405162461bcd60e51b815260040161039a90612645565b604051632725ebef60e21b8152600260048201526024810182905273__$364aad554dc80380f414546becdd2c1584$__90639c97afbc9060440160006040518083038186803b158015610c0957600080fd5b505af4158015610c1d573d6000803e3d6000fd5b505050507ff2735f34b69be1e6342dea95f9162f84d0db925fab655ca9f1f312ac8cbfc99d81604051610c5291815260200190565b60405180910390a150565b73__$364aad554dc80380f414546becdd2c1584$__63ee98b313600284610620611f69565b6001546040516335d2155560e11b81523360048201526001600160a01b0390911690636ba42aaa9060240160206040518083038186803b158015610cc557600080fd5b505afa158015610cd9573d6000803e3d6000fd5b505050506040513d601f19601f82011682018060405250810190610cfd9190612460565b610d195760405162461bcd60e51b815260040161039a90612482565b8381610d23611eea565b60405163f5bf221d60e01b815260048101849052602481018390526001600160a01b03919091169063f5bf221d9060440160206040518083038186803b158015610d6c57600080fd5b505afa158015610d80573d6000803e3d6000fd5b505050506040513d601f19601f82011682018060405250810190610da49190612460565b610dc05760405162461bcd60e51b815260040161039a906124ad565b6000610dca611eea565b6040516317e18de360e01b815260048101899052602481018890526001600160a01b0391909116906317e18de39060440160e06040518083038186803b158015610e1357600080fd5b505afa158015610e27573d6000803e3d6000fd5b505050506040513d601f19601f82011682018060405250810190610e4b919061252c565b9050610e55611f4e565b6020820151604051633f11707560e11b815263ffffffff9091166004820152602481018790526001600160a01b039190911690637e22e0ea906044015b602060405180830381600087803b158015610eac57600080fd5b505af1158015610ec0573d6000803e3d6000fd5b505050506040513d601f19601f820116820180604052508101906108559190612460565b604051630f07232560e01b8152600260048201523360248201526001600160a01b038216604482015273__$364aad554dc80380f414546becdd2c1584$__90630f0723259060640160006040518083038186803b158015610f4457600080fd5b505af4158015610f58573d6000803e3d6000fd5b50506040516001600160a01b03841681527fe435cbeab64e4eae6497b9d8289704bd709d624a80704ef3ca9af777534bc6ec92506020019050610c52565b604051632a3be56b60e21b815260026004820152602481018390526044810182905260009073__$364aad554dc80380f414546becdd2c1584$__9063a8ef95ac9060640160206040518083038186803b158015610ff257600080fd5b505af4158015611006573d6000803e3d6000fd5b505050506040513d601f19601f8201168201806040525081019061102a9190612460565b90505b92915050565b604051633b11adbf60e21b81526002600482015233602482015273__$364aad554dc80380f414546becdd2c1584$__9063ec46b6fc9060440160206040518083038186803b15801561108457600080fd5b505af4158015611098573d6000803e3d6000fd5b505050506040513d601f19601f820116820180604052508101906110bc9190612460565b80611161575073__$364aad554dc80380f414546becdd2c1584$__63fe27108660026110e6611f69565b6040516001600160e01b031960e085901b168152600481019290925264ffffffffff16602482015260440160206040518083038186803b15801561112957600080fd5b505af415801561113d573d6000803e3d6000fd5b505050506040513d601f19601f820116820180604052508101906111619190612460565b61117d5760405162461bcd60e51b815260040161039a90612645565b60405163b6e38a2960e01b8152600260048201526024810182905273__$364aad554dc80380f414546becdd2c1584$__9063b6e38a299060440160006040518083038186803b1580156111cf57600080fd5b505af41580156111e3573d6000803e3d6000fd5b505050507f8b6f40f36b4ae8cc5f55e895036457c43da4ab1f80f58c46f5ff0d72a650033b81604051610c5291815260200190565b6001546040516335d2155560e11b81523360048201526001600160a01b0390911690636ba42aaa9060240160206040518083038186803b15801561125b57600080fd5b505afa15801561126f573d6000803e3d6000fd5b505050506040513d601f19601f820116820180604052508101906112939190612460565b6112af5760405162461bcd60e51b815260040161039a90612482565b83816112b9611eea565b6040516303bce3c360e41b815260048101849052602481018390526001600160a01b039190911690633bce3c309060440160206040518083038186803b15801561130257600080fd5b505afa158015611316573d6000803e3d6000fd5b505050506040513d601f19601f8201168201806040525081019061133a9190612460565b6113865760405162461bcd60e51b815260206004820152601760248201527f424f4f4b2e6d662e4f4f3a204e4f54206f626c69676f72000000000000000000604482015260640161039a565b6000611390611eea565b6040516317e18de360e01b815260048101899052602481018890526001600160a01b0391909116906317e18de39060440160e06040518083038186803b1580156113d957600080fd5b505afa1580156113ed573d6000803e3d6000fd5b505050506040513d601f19601f82011682018060405250810190611411919061252c565b905061141b611f4e565b6001600160a01b031663903cd5008260200151876040518363ffffffff1660e01b8152600401610e9292919061269b565b60405163987ad15360e01b81526002600482015260009073__$364aad554dc80380f414546becdd2c1584$__9063987ad153906024016105a6565b6000611491611f69565b60405163cc0d511b60e01b8152600260048201526024810184905264ffffffffff8216604482015290915073__$364aad554dc80380f414546becdd2c1584$__9063cc0d511b9060640161065b565b6001546040516335d2155560e11b81523360048201526001600160a01b0390911690636ba42aaa9060240160206040518083038186803b15801561152357600080fd5b505afa158015611537573d6000803e3d6000fd5b505050506040513d601f19601f8201168201806040525081019061155b9190612460565b6115775760405162461bcd60e51b815260040161039a90612482565b8481611581611eea565b60405163f5bf221d60e01b815260048101849052602481018390526001600160a01b03919091169063f5bf221d9060440160206040518083038186803b1580156115ca57600080fd5b505afa1580156115de573d6000803e3d6000fd5b505050506040513d601f19601f820116820180604052508101906116029190612460565b61161e5760405162461bcd60e51b815260040161039a906124ad565b6000611628611eea565b604051635ee35dbb60e11b8152600481018a905263ffffffff808a1660248301528089166044830152871660648201526001600160a01b03919091169063bdc6bb76906084016101e06040518083038186803b15801561168757600080fd5b505afa15801561169b573d6000803e3d6000fd5b505050506040513d601f19601f820116820180604052508101906116bf91906127be565b90506116c9611f4e565b6001600160a01b031663d0c15ef2826040518263ffffffff1660e01b81526004016116f491906129be565b6101e060405180830381600087803b15801561170f57600080fd5b505af1158015611723573d6000803e3d6000fd5b505050506040513d601f19601f8201168201806040525081019061174791906127be565b9050611751611f4e565b8151516040516303f1d00760e61b815263ffffffff9182166004820152818a16602482015290871660448201526001600160a01b03919091169063fc7401c09060640160c060405180830381600087803b1580156117ae57600080fd5b505af11580156117c2573d6000803e3d6000fd5b505050506040513d601f19601f820116820180604052508101906117e691906129cd565b60208201526117f3611eea565b6001600160a01b031663c5d7643289836040518363ffffffff1660e01b81526004016118209291906129e9565b600060405180830381600087803b15801561183a57600080fd5b505af115801561184e573d6000803e3d6000fd5b505050505050505050505050565b6001546040516335d2155560e11b81523360048201526001600160a01b0390911690636ba42aaa9060240160206040518083038186803b15801561189f57600080fd5b505afa1580156118b3573d6000803e3d6000fd5b505050506040513d601f19601f820116820180604052508101906118d79190612460565b6118f35760405162461bcd60e51b815260040161039a90612482565b60006118fd611eea565b60405163f5bf221d60e01b815260048101869052602481018490529091506001600160a01b0382169063f5bf221d9060440160206040518083038186803b15801561194757600080fd5b505afa15801561195b573d6000803e3d6000fd5b505050506040513d601f19601f8201168201806040525081019061197f9190612460565b80611a0457506040516303bce3c360e41b815260048101859052602481018390526001600160a01b03821690633bce3c309060440160206040518083038186803b1580156119cc57600080fd5b505afa1580156119e0573d6000803e3d6000fd5b505050506040513d601f19601f82011682018060405250810190611a049190612460565b611a505760405162461bcd60e51b815260206004820152601e60248201527f424f4f4b2e52534f3a206e6f7420696e74657265737465642070617274790000604482015260640161039a565b6040516317e18de360e01b815260048101859052602481018490526000906001600160a01b038316906317e18de39060440160e06040518083038186803b158015611a9a57600080fd5b505afa158015611aae573d6000803e3d6000fd5b505050506040513d601f19601f82011682018060405250810190611ad2919061252c565b9050611adc611f4e565b6020820151604051630a63591760e21b815263ffffffff90911660048201526001600160a01b03919091169063298d645c90602401602060405180830381600087803b158015611b2b57600080fd5b505af1158015611b3f573d6000803e3d6000fd5b505050506040513d601f19601f820116820180604052508101906106879190612460565b611b6c82611fc3565b611b7581612072565b604051636cdd0edf60e11b815260026004820152602481018590526001600160a01b038416604482015273__$364aad554dc80380f414546becdd2c1584$__9063d9ba1dbe9060640160006040518083038186803b158015611bd657600080fd5b505af4158015611bea573d6000803e3d6000fd5b5050604080518781526001600160a01b038781166020830152868116828401528516606082015290517f3abb2418c66fe32ba9c883030a75ce583971d9af9192b9b74e44e67c5e6c8c1f9350908190036080019150a150505050565b604051633c3e56c160e11b81526002600482015260009073__$364aad554dc80380f414546becdd2c1584$__9063787cad829060240160206040518083038186803b158015611c9457600080fd5b505af4158015611ca8573d6000803e3d6000fd5b505050506040513d601f19601f820116820180604052508101906105f691906129fe565b604051633b11adbf60e21b81526002600482015233602482015273__$364aad554dc80380f414546becdd2c1584$__9063ec46b6fc9060440160206040518083038186803b158015611d1d57600080fd5b505af4158015611d31573d6000803e3d6000fd5b505050506040513d601f19601f82011682018060405250810190611d559190612460565b611d715760405162461bcd60e51b815260040161039a906125ff565b600254600160f01b900460ff16600114611dcd5760405162461bcd60e51b815260206004820181905260248201527f41432e6f6e6c7950656e64696e673a20446f632069732066696e616c697a6564604482015260640161039a565b60405163cc99e11b60e01b815260026004820152684174746f726e65797360b81b602482015273__$364aad554dc80380f414546becdd2c1584$__9063cc99e11b9060440160006040518083038186803b158015611e2a57600080fd5b505af4158015611e3e573d6000803e3d6000fd5b5050604051632725ebef60e21b8152600260048201526000602482015273__$364aad554dc80380f414546becdd2c1584$__9250639c97afbc915060440160006040518083038186803b158015611e9457600080fd5b505af4158015611ea8573d6000803e3d6000fd5b50506002805460ff60f01b1916600160f11b17905550506040517f35012b512309c322acf68632cd6cb702ff0e1d776fbe9394e38ffc13b434fe7590600090a1565b6001546000906001600160a01b031663e0ff5b8b60045b6040516001600160e01b031960e084901b16815260ff909116600482015260240160206040518083038186803b158015611f3a57600080fd5b505afa158015611ca8573d6000803e3d6000fd5b6001546000906001600160a01b031663e0ff5b8b6008611f01565b60008054604051634de835e760e11b81523360048201526001600160a01b0390911690639bd06bce90602401602060405180830381600087803b158015611faf57600080fd5b505af11580156105d2573d6000803e3d6000fd5b6000546001600160a01b0316156120145760405162461bcd60e51b815260206004820152601560248201527430b63932b0b23c9039b2ba103932b3a1b2b73a32b960591b604482015260640161039a565b6040516001600160a01b03821681527f318da6c7624c71cbc0afe346c9d8827f119d0ecefb241a7b0c87217a076a8e029060200160405180910390a1600080546001600160a01b0319166001600160a01b0392909216919091179055565b6001546001600160a01b0316156120cb5760405162461bcd60e51b815260206004820152601960248201527f616c7265616479207365742067656e6572616c4b656570657200000000000000604482015260640161039a565b6040516001600160a01b03821681527fe513d3e0f0d0a3877029dcc588748679a7a3450ec1ec7ed56d96bd012c3e61aa9060200160405180910390a1600180546001600160a01b0319166001600160a01b0392909216919091179055565b60008060006060848603121561213e57600080fd5b505081359360208301359350604090920135919050565b6000806040838503121561216857600080fd5b50508035926020909101359150565b67ffffffffffffffff8116811461218d57600080fd5b50565b600080600080608085870312156121a657600080fd5b8435935060208501356121b881612177565b925060408501356121c881612177565b915060608501356121d881612177565b939692955090935050565b6000602082840312156121f557600080fd5b5035919050565b6000806000806080858703121561221257600080fd5b5050823594602084013594506040840135936060013592509050565b6001600160a01b038116811461218d57600080fd5b60006020828403121561225557600080fd5b81356122608161222e565b9392505050565b634e487b7160e01b600052604160045260246000fd5b6040516060810167ffffffffffffffff811182821017156122a0576122a0612267565b60405290565b604051610100810167ffffffffffffffff811182821017156122a0576122a0612267565b604051601f8201601f1916810167ffffffffffffffff811182821017156122f3576122f3612267565b604052919050565b6000806000806080858703121561231157600080fd5b843593506020808601359350604086013567ffffffffffffffff8082111561233857600080fd5b818801915088601f83011261234c57600080fd5b81358181111561235e5761235e612267565b612370601f8201601f191685016122ca565b9150808252898482850101111561238657600080fd5b8084840185840137600090820190930192909252509396929550929360600135925050565b63ffffffff8116811461218d57600080fd5b600080600080600060a086880312156123d557600080fd5b8535945060208601356123e7816123ab565b935060408601356123f7816123ab565b92506060860135612407816123ab565b949793965091946080013592915050565b6000806000806080858703121561242e57600080fd5b8435935060208501356124408161222e565b925060408501356124508161222e565b915060608501356121d88161222e565b60006020828403121561247257600080fd5b8151801515811461226057600080fd5b60208082526011908201527020a19737b59d103737ba1025b2b2b832b960791b604082015260600190565b6020808252601b908201527f424f4f4b2e6d662e4f523a204e4f54207269676874686f6c6465720000000000604082015260600190565b805161ffff811681146124f657600080fd5b919050565b80516124f6816123ab565b805164ffffffffff811681146124f657600080fd5b805160ff811681146124f657600080fd5b600060e0828403121561253e57600080fd5b60405160e0810181811067ffffffffffffffff8211171561256157612561612267565b60405261256d836124e4565b8152602083015161257d816123ab565b60208201526040830151612590816123ab565b604082015260608301516125a381612177565b606082015260808301516125b681612177565b60808201526125c760a08401612506565b60a08201526125d860c0840161251b565b60c08201529392505050565b6000602082840312156125f657600080fd5b61102a82612506565b60208082526026908201527f41432e6f6e6c794469726563744b65657065723a206e6f74206469726563742060408201526535b2b2b832b960d11b606082015260800190565b60208082526036908201527f41432e6f776e65724f72446972656374426f6f6b65657065723a206e6569746860408201527532b91037bbb732b9103737b9103137b7b5b2b2b832b960511b606082015260800190565b63ffffffff8316815260006020604081840152835180604085015260005b818110156126d5578581018301518582016060015282016126b9565b818111156126e7576000606083870101525b50601f01601f191692909201606001949350505050565b805165ffffffffffff811681146124f657600080fd5b600060c0828403121561272657600080fd5b60405160c0810181811067ffffffffffffffff8211171561274957612749612267565b60405290508061275883612506565b81526020830151612768816123ab565b6020820152604083015161277b81612177565b6040820152606083015161278e816123ab565b606082015260808301516127a181612177565b60808201526127b260a0840161251b565b60a08201525092915050565b60008183036101e08112156127d257600080fd5b6127da61227d565b610100808312156127ea57600080fd5b6127f26122a6565b925084516127ff816123ab565b835261280d602086016124e4565b602084015261281e604086016124e4565b604084015261282f606086016126fe565b6060840152612840608086016126fe565b608084015261285160a086016124e4565b60a084015261286260c08601612506565b60c084015261287360e086016124fb565b60e084015282825261288786828701612714565b6020830152506101c093909301516040840152509092915050565b805163ffffffff8151168352602081015161ffff8082166020860152806040840151166040860152505060608101516128e5606085018265ffffffffffff169052565b5060808101516128ff608085018265ffffffffffff169052565b5060a081015161291560a085018261ffff169052565b5060c081015161292e60c085018264ffffffffff169052565b5060e0810151905061294860e084018263ffffffff169052565b50602081810151805164ffffffffff166101008501529081015163ffffffff908116610120850152604082015167ffffffffffffffff908116610140860152606083015190911661016085015260808201511661018084015260a081015160ff166101a084015250604001516101c09190910152565b6101e0810161102d82846128a2565b600060c082840312156129df57600080fd5b61102a8383612714565b828152610200810161226060208301846128a2565b600060208284031215612a1057600080fd5b81516122608161222e56fea2646970667358221220236d606acf7fae81b071902eb21a8002bcce540e98fb3e22f0d807866eac010864736f6c63430008080033",
    "sourcePath": "/Users/kaptain/github.com/hardhat/comboox/contracts/keepers/BOOkeeper.sol",
    "compiler": {
        "name": "solc",
        "version": "0.8.8+commit.dddeac2f"
    },
    "functionHashes": {
        "abandonRole(bytes32)": "3da9a600",
        "execOption(uint256,uint256)": "2371494b",
        "execSwapOrder(uint256,uint256,uint256)": "084179bd",
        "finalized()": "b3f05b97",
        "getBookeeper()": "ed211023",
        "getGeneralCounsel()": "103f6edd",
        "getOwner()": "893d20e8",
        "grantRole(bytes32,uint256)": "1b6ea9f9",
        "hasRole(bytes32,uint256)": "7e063c5a",
        "init(uint256,address,address,address)": "dc890da9",
        "lockContents()": "f045a769",
        "lockSwapOrder(uint256,uint256,bytes32,uint256)": "5d0389cd",
        "placeSwapOrder(uint256,uint32,uint32,uint32,uint256)": "a697e112",
        "releaseSwapOrder(uint256,uint256,string,uint256)": "866f989d",
        "renounceRole(bytes32)": "8bb9c5bf",
        "revokeRole(bytes32,uint256)": "19d61ad9",
        "revokeSwapOrder(uint256,uint256,uint256)": "ab359417",
        "setDirectKeeper(address)": "6be8496f",
        "setGeneralCounsel(uint256)": "4a14beb1",
        "setOwner(uint256)": "8041494e",
        "setRoleAdmin(bytes32,uint256)": "5171ebd4",
        "updateOracle(uint256,uint64,uint64,uint64)": "2b6c0ce1"
    },
    "gasEstimates": {
        "creation": {
            "codeDepositCost": "2166600",
            "executionCost": "2309",
            "totalCost": "2168909"
        },
        "external": {
            "abandonRole(bytes32)": "infinite",
            "execOption(uint256,uint256)": "infinite",
            "execSwapOrder(uint256,uint256,uint256)": "infinite",
            "finalized()": "2393",
            "getBookeeper()": "infinite",
            "getGeneralCounsel()": "infinite",
            "getOwner()": "infinite",
            "grantRole(bytes32,uint256)": "infinite",
            "hasRole(bytes32,uint256)": "infinite",
            "init(uint256,address,address,address)": "infinite",
            "lockContents()": "infinite",
            "lockSwapOrder(uint256,uint256,bytes32,uint256)": "infinite",
            "placeSwapOrder(uint256,uint32,uint32,uint32,uint256)": "infinite",
            "releaseSwapOrder(uint256,uint256,string,uint256)": "infinite",
            "renounceRole(bytes32)": "infinite",
            "revokeRole(bytes32,uint256)": "infinite",
            "revokeSwapOrder(uint256,uint256,uint256)": "infinite",
            "setDirectKeeper(address)": "infinite",
            "setGeneralCounsel(uint256)": "infinite",
            "setOwner(uint256)": "infinite",
            "setRoleAdmin(bytes32,uint256)": "infinite",
            "updateOracle(uint256,uint64,uint64,uint64)": "infinite"
        }
    }
}