{
    "contractName": "BOOKeeper",
    "abi": [
        {
            "anonymous": false,
            "inputs": [
                {
                    "indexed": true,
                    "internalType": "address",
                    "name": "owner",
                    "type": "address"
                },
                {
                    "indexed": true,
                    "internalType": "address",
                    "name": "directKeeper",
                    "type": "address"
                },
                {
                    "indexed": false,
                    "internalType": "address",
                    "name": "regCenter",
                    "type": "address"
                },
                {
                    "indexed": true,
                    "internalType": "address",
                    "name": "generalKeeper",
                    "type": "address"
                }
            ],
            "name": "Init",
            "type": "event"
        },
        {
            "anonymous": false,
            "inputs": [],
            "name": "LockContents",
            "type": "event"
        },
        {
            "anonymous": false,
            "inputs": [
                {
                    "indexed": true,
                    "internalType": "address",
                    "name": "keeper",
                    "type": "address"
                }
            ],
            "name": "SetDirectKeeper",
            "type": "event"
        },
        {
            "anonymous": false,
            "inputs": [
                {
                    "indexed": true,
                    "internalType": "address",
                    "name": "acct",
                    "type": "address"
                }
            ],
            "name": "SetOwner",
            "type": "event"
        },
        {
            "anonymous": false,
            "inputs": [
                {
                    "indexed": true,
                    "internalType": "bytes32",
                    "name": "role",
                    "type": "bytes32"
                },
                {
                    "indexed": true,
                    "internalType": "address",
                    "name": "acct",
                    "type": "address"
                }
            ],
            "name": "SetRoleAdmin",
            "type": "event"
        },
        {
            "inputs": [
                {
                    "internalType": "bytes32",
                    "name": "role",
                    "type": "bytes32"
                }
            ],
            "name": "abandonRole",
            "outputs": [],
            "stateMutability": "nonpayable",
            "type": "function"
        },
        {
            "inputs": [
                {
                    "internalType": "uint256",
                    "name": "seqOfOpt",
                    "type": "uint256"
                },
                {
                    "internalType": "uint256",
                    "name": "caller",
                    "type": "uint256"
                }
            ],
            "name": "execOption",
            "outputs": [],
            "stateMutability": "nonpayable",
            "type": "function"
        },
        {
            "inputs": [
                {
                    "internalType": "uint256",
                    "name": "seqOfOpt",
                    "type": "uint256"
                },
                {
                    "internalType": "uint256",
                    "name": "seqOfBrf",
                    "type": "uint256"
                },
                {
                    "internalType": "uint256",
                    "name": "caller",
                    "type": "uint256"
                }
            ],
            "name": "execSwapOrder",
            "outputs": [],
            "stateMutability": "nonpayable",
            "type": "function"
        },
        {
            "inputs": [],
            "name": "getDK",
            "outputs": [
                {
                    "internalType": "address",
                    "name": "",
                    "type": "address"
                }
            ],
            "stateMutability": "view",
            "type": "function"
        },
        {
            "inputs": [],
            "name": "getOwner",
            "outputs": [
                {
                    "internalType": "address",
                    "name": "",
                    "type": "address"
                }
            ],
            "stateMutability": "view",
            "type": "function"
        },
        {
            "inputs": [
                {
                    "internalType": "bytes32",
                    "name": "role",
                    "type": "bytes32"
                }
            ],
            "name": "getRoleAdmin",
            "outputs": [
                {
                    "internalType": "address",
                    "name": "",
                    "type": "address"
                }
            ],
            "stateMutability": "view",
            "type": "function"
        },
        {
            "inputs": [
                {
                    "internalType": "bytes32",
                    "name": "role",
                    "type": "bytes32"
                },
                {
                    "internalType": "address",
                    "name": "acct",
                    "type": "address"
                }
            ],
            "name": "grantRole",
            "outputs": [],
            "stateMutability": "nonpayable",
            "type": "function"
        },
        {
            "inputs": [
                {
                    "internalType": "bytes32",
                    "name": "role",
                    "type": "bytes32"
                },
                {
                    "internalType": "address",
                    "name": "acct",
                    "type": "address"
                }
            ],
            "name": "hasRole",
            "outputs": [
                {
                    "internalType": "bool",
                    "name": "",
                    "type": "bool"
                }
            ],
            "stateMutability": "view",
            "type": "function"
        },
        {
            "inputs": [
                {
                    "internalType": "address",
                    "name": "owner",
                    "type": "address"
                },
                {
                    "internalType": "address",
                    "name": "directKeeper",
                    "type": "address"
                },
                {
                    "internalType": "address",
                    "name": "regCenter",
                    "type": "address"
                },
                {
                    "internalType": "address",
                    "name": "generalKeeper",
                    "type": "address"
                }
            ],
            "name": "init",
            "outputs": [],
            "stateMutability": "nonpayable",
            "type": "function"
        },
        {
            "inputs": [],
            "name": "isFinalized",
            "outputs": [
                {
                    "internalType": "bool",
                    "name": "",
                    "type": "bool"
                }
            ],
            "stateMutability": "view",
            "type": "function"
        },
        {
            "inputs": [],
            "name": "lockContents",
            "outputs": [],
            "stateMutability": "nonpayable",
            "type": "function"
        },
        {
            "inputs": [
                {
                    "internalType": "uint256",
                    "name": "seqOfOpt",
                    "type": "uint256"
                },
                {
                    "internalType": "uint256",
                    "name": "seqOfBrf",
                    "type": "uint256"
                },
                {
                    "internalType": "bytes32",
                    "name": "hashLock",
                    "type": "bytes32"
                },
                {
                    "internalType": "uint256",
                    "name": "caller",
                    "type": "uint256"
                }
            ],
            "name": "lockSwapOrder",
            "outputs": [],
            "stateMutability": "nonpayable",
            "type": "function"
        },
        {
            "inputs": [
                {
                    "internalType": "uint256",
                    "name": "seqOfOpt",
                    "type": "uint256"
                },
                {
                    "internalType": "uint256",
                    "name": "seqOfConsider",
                    "type": "uint256"
                },
                {
                    "internalType": "uint256",
                    "name": "paidOfConsider",
                    "type": "uint256"
                },
                {
                    "internalType": "uint256",
                    "name": "seqOfTarget",
                    "type": "uint256"
                },
                {
                    "internalType": "uint256",
                    "name": "caller",
                    "type": "uint256"
                }
            ],
            "name": "placeSwapOrder",
            "outputs": [],
            "stateMutability": "nonpayable",
            "type": "function"
        },
        {
            "inputs": [
                {
                    "internalType": "uint256",
                    "name": "seqOfOpt",
                    "type": "uint256"
                },
                {
                    "internalType": "uint256",
                    "name": "seqOfBrf",
                    "type": "uint256"
                },
                {
                    "internalType": "string",
                    "name": "hashKey",
                    "type": "string"
                }
            ],
            "name": "releaseSwapOrder",
            "outputs": [],
            "stateMutability": "nonpayable",
            "type": "function"
        },
        {
            "inputs": [
                {
                    "internalType": "bytes32",
                    "name": "role",
                    "type": "bytes32"
                }
            ],
            "name": "renounceRole",
            "outputs": [],
            "stateMutability": "nonpayable",
            "type": "function"
        },
        {
            "inputs": [
                {
                    "internalType": "bytes32",
                    "name": "role",
                    "type": "bytes32"
                },
                {
                    "internalType": "address",
                    "name": "acct",
                    "type": "address"
                }
            ],
            "name": "revokeRole",
            "outputs": [],
            "stateMutability": "nonpayable",
            "type": "function"
        },
        {
            "inputs": [
                {
                    "internalType": "uint256",
                    "name": "seqOfOpt",
                    "type": "uint256"
                },
                {
                    "internalType": "uint256",
                    "name": "seqOfBrf",
                    "type": "uint256"
                },
                {
                    "internalType": "uint256",
                    "name": "caller",
                    "type": "uint256"
                }
            ],
            "name": "revokeSwapOrder",
            "outputs": [],
            "stateMutability": "nonpayable",
            "type": "function"
        },
        {
            "inputs": [
                {
                    "internalType": "address",
                    "name": "acct",
                    "type": "address"
                }
            ],
            "name": "setDirectKeeper",
            "outputs": [],
            "stateMutability": "nonpayable",
            "type": "function"
        },
        {
            "inputs": [
                {
                    "internalType": "address",
                    "name": "acct",
                    "type": "address"
                }
            ],
            "name": "setOwner",
            "outputs": [],
            "stateMutability": "nonpayable",
            "type": "function"
        },
        {
            "inputs": [
                {
                    "internalType": "bytes32",
                    "name": "role",
                    "type": "bytes32"
                },
                {
                    "internalType": "address",
                    "name": "acct",
                    "type": "address"
                }
            ],
            "name": "setRoleAdmin",
            "outputs": [],
            "stateMutability": "nonpayable",
            "type": "function"
        },
        {
            "inputs": [
                {
                    "internalType": "uint256",
                    "name": "seqOfOpt",
                    "type": "uint256"
                },
                {
                    "internalType": "uint256",
                    "name": "d1",
                    "type": "uint256"
                },
                {
                    "internalType": "uint256",
                    "name": "d2",
                    "type": "uint256"
                },
                {
                    "internalType": "uint256",
                    "name": "d3",
                    "type": "uint256"
                }
            ],
            "name": "updateOracle",
            "outputs": [],
            "stateMutability": "nonpayable",
            "type": "function"
        }
    ],
    "bytecode": "6080604052600454600580546001600160a01b0319166001600160a01b0390921691909117905534801561003257600080fd5b50612a97806100426000396000f3fe608060405234801561001057600080fd5b50600436106101375760003560e01c806376f2736f116100b8578063ab3594171161007c578063ab35941714610279578063ad7631921461028c578063b647c7291461029f578063d547741f146102b2578063d6c4985c146102c5578063f045a769146102d857600080fd5b806376f2736f14610217578063893d20e81461022a5780638bb9c5bf146102325780638d4e40831461024557806391d148541461026657600080fd5b80632f2ff15d116100ff5780632f2ff15d146101ba5780633da9a600146101cd57806350627aea146101e05780635d0389cd146101f15780636be8496f1461020457600080fd5b806306552ff31461013c578063084179bd1461015157806313af4035146101645780632371494b14610177578063248a9ca31461018a575b600080fd5b61014f61014a366004612225565b6102e0565b005b61014f61015f366004612281565b6103cf565b61014f6101723660046122ad565b6107c9565b61014f6101853660046122ca565b610878565b61019d6101983660046122ec565b610b3e565b6040516001600160a01b0390911681526020015b60405180910390f35b61014f6101c8366004612305565b610bd1565b61014f6101db3660046122ec565b610c43565b6002546001600160a01b031661019d565b61014f6101ff366004612335565b610cb7565b61014f6102123660046122ad565b6110a6565b61014f610225366004612335565b61113b565b61019d611250565b61014f6102403660046122ec565b6112db565b600054600160a01b900460ff166002145b60405190151581526020016101b1565b610256610274366004612305565b611320565b61014f610287366004612281565b6113c3565b61014f61029a366004612305565b6117da565b61014f6102ad366004612367565b611882565b61014f6102c0366004612305565b611d7f565b61014f6102d3366004612436565b611dbd565b61014f61207c565b60405163013faf4960e71b8152600060048201526001600160a01b038516602482015273__$a374c895e6fa8c448878668e00d93ef99a$__90639fd7a4809060440160006040518083038186803b15801561033a57600080fd5b505af415801561034e573d6000803e3d6000fd5b5050600280546001600160a01b038781166001600160a01b0319928316811790935560038054888316908416811790915560048054888416941684179055604051908152919450919250908716907f11e5c44db2defe55dea9656ae7848e94dc9f3e66eb342a7b84547a68d31c393a9060200160405180910390a450505050565b6004546001600160a01b03166040516335d2155560e11b81523360048201526001600160a01b039190911690636ba42aaa9060240160206040518083038186803b15801561041c57600080fd5b505afa158015610430573d6000803e3d6000fd5b505050506040513d601f19601f8201168201806040525081019061045491906124de565b8061046957506002546001600160a01b031633145b61048e5760405162461bcd60e51b815260040161048590612500565b60405180910390fd5b8281600560009054906101000a90046001600160a01b03166001600160a01b031663b38dc8116040518163ffffffff1660e01b815260040160206040518083038186803b1580156104de57600080fd5b505afa1580156104f2573d6000803e3d6000fd5b505050506040513d601f19601f82011682018060405250810190610516919061252c565b60405163f5bf221d60e01b815260048101849052602481018390526001600160a01b03919091169063f5bf221d9060440160206040518083038186803b15801561055f57600080fd5b505afa158015610573573d6000803e3d6000fd5b505050506040513d601f19601f8201168201806040525081019061059791906124de565b6105b35760405162461bcd60e51b815260040161048590612549565b6005546040805163b38dc81160e01b815290516000926001600160a01b03169163b38dc811916004808301926020929190829003018186803b1580156105f857600080fd5b505afa15801561060c573d6000803e3d6000fd5b505050506040513d601f19601f82011682018060405250810190610630919061252c565b6040516317e18de360e01b815260048101889052602481018790526001600160a01b0391909116906317e18de39060440160e06040518083038186803b15801561067957600080fd5b505afa15801561068d573d6000803e3d6000fd5b505050506040513d601f19601f820116820180604052508101906106b191906125e9565b9050600560009054906101000a90046001600160a01b03166001600160a01b031663bd6200cc6040518163ffffffff1660e01b815260040160206040518083038186803b15801561070157600080fd5b505afa158015610715573d6000803e3d6000fd5b505050506040513d601f19601f82011682018060405250810190610739919061252c565b6020820151604051630a63591760e21b815263ffffffff90911660048201526001600160a01b03919091169063298d645c90602401602060405180830381600087803b15801561078857600080fd5b505af115801561079c573d6000803e3d6000fd5b505050506040513d601f19601f820116820180604052508101906107c091906124de565b50505050505050565b6040516351e7e80560e01b8152600060048201526001600160a01b038216602482015233604482015273__$a374c895e6fa8c448878668e00d93ef99a$__906351e7e8059060640160006040518083038186803b15801561082957600080fd5b505af415801561083d573d6000803e3d6000fd5b50506040516001600160a01b03841692507f167d3e9c1016ab80e58802ca9da10ce5c6a0f4debc46a2e7a2cd9e56899a4fb59150600090a250565b6004546001600160a01b03166040516335d2155560e11b81523360048201526001600160a01b039190911690636ba42aaa9060240160206040518083038186803b1580156108c557600080fd5b505afa1580156108d9573d6000803e3d6000fd5b505050506040513d601f19601f820116820180604052508101906108fd91906124de565b8061091257506002546001600160a01b031633145b61092e5760405162461bcd60e51b815260040161048590612500565b8181600560009054906101000a90046001600160a01b03166001600160a01b031663b38dc8116040518163ffffffff1660e01b815260040160206040518083038186803b15801561097e57600080fd5b505afa158015610992573d6000803e3d6000fd5b505050506040513d601f19601f820116820180604052508101906109b6919061252c565b60405163f5bf221d60e01b815260048101849052602481018390526001600160a01b03919091169063f5bf221d9060440160206040518083038186803b1580156109ff57600080fd5b505afa158015610a13573d6000803e3d6000fd5b505050506040513d601f19601f82011682018060405250810190610a3791906124de565b610a535760405162461bcd60e51b815260040161048590612549565b600560009054906101000a90046001600160a01b03166001600160a01b031663b38dc8116040518163ffffffff1660e01b815260040160206040518083038186803b158015610aa157600080fd5b505afa158015610ab5573d6000803e3d6000fd5b505050506040513d601f19601f82011682018060405250810190610ad9919061252c565b6001600160a01b0316636555ff7a856040518263ffffffff1660e01b8152600401610b0691815260200190565b600060405180830381600087803b158015610b2057600080fd5b505af1158015610b34573d6000803e3d6000fd5b5050505050505050565b604051639423dd0560e01b8152600060048201819052602482018390529073__$a374c895e6fa8c448878668e00d93ef99a$__90639423dd059060440160206040518083038186803b158015610b9357600080fd5b505af4158015610ba7573d6000803e3d6000fd5b505050506040513d601f19601f82011682018060405250810190610bcb919061252c565b92915050565b604051633d3c5d2760e01b815273__$a374c895e6fa8c448878668e00d93ef99a$__90633d3c5d2790610c0f90600090869086903390600401612699565b60006040518083038186803b158015610c2757600080fd5b505af4158015610c3b573d6000803e3d6000fd5b505050505050565b60405163bf2755e360e01b8152600060048201526024810182905233604482015273__$a374c895e6fa8c448878668e00d93ef99a$__9063bf2755e3906064015b60006040518083038186803b158015610c9c57600080fd5b505af4158015610cb0573d6000803e3d6000fd5b5050505050565b6004546001600160a01b03166040516335d2155560e11b81523360048201526001600160a01b039190911690636ba42aaa9060240160206040518083038186803b158015610d0457600080fd5b505afa158015610d18573d6000803e3d6000fd5b505050506040513d601f19601f82011682018060405250810190610d3c91906124de565b80610d5157506002546001600160a01b031633145b610d6d5760405162461bcd60e51b815260040161048590612500565b8381600560009054906101000a90046001600160a01b03166001600160a01b031663b38dc8116040518163ffffffff1660e01b815260040160206040518083038186803b158015610dbd57600080fd5b505afa158015610dd1573d6000803e3d6000fd5b505050506040513d601f19601f82011682018060405250810190610df5919061252c565b60405163f5bf221d60e01b815260048101849052602481018390526001600160a01b03919091169063f5bf221d9060440160206040518083038186803b158015610e3e57600080fd5b505afa158015610e52573d6000803e3d6000fd5b505050506040513d601f19601f82011682018060405250810190610e7691906124de565b610e925760405162461bcd60e51b815260040161048590612549565b6005546040805163b38dc81160e01b815290516000926001600160a01b03169163b38dc811916004808301926020929190829003018186803b158015610ed757600080fd5b505afa158015610eeb573d6000803e3d6000fd5b505050506040513d601f19601f82011682018060405250810190610f0f919061252c565b6040516317e18de360e01b815260048101899052602481018890526001600160a01b0391909116906317e18de39060440160e06040518083038186803b158015610f5857600080fd5b505afa158015610f6c573d6000803e3d6000fd5b505050506040513d601f19601f82011682018060405250810190610f9091906125e9565b9050600560009054906101000a90046001600160a01b03166001600160a01b031663bd6200cc6040518163ffffffff1660e01b815260040160206040518083038186803b158015610fe057600080fd5b505afa158015610ff4573d6000803e3d6000fd5b505050506040513d601f19601f82011682018060405250810190611018919061252c565b6020820151604051633f11707560e11b815263ffffffff9091166004820152602481018790526001600160a01b039190911690637e22e0ea90604401602060405180830381600087803b15801561106e57600080fd5b505af1158015611082573d6000803e3d6000fd5b505050506040513d601f19601f82011682018060405250810190610b3491906124de565b6002546001600160a01b031633146110f15760405162461bcd60e51b815260206004820152600e60248201526d1050cb9bdb9b1e5112ce881393d560921b6044820152606401610485565b600280546001600160a01b0319166001600160a01b0383169081179091556040517fe435cbeab64e4eae6497b9d8289704bd709d624a80704ef3ca9af777534bc6ec90600090a250565b6002546001600160a01b031633146111865760405162461bcd60e51b815260206004820152600e60248201526d1050cb9bdb9b1e5112ce881393d560921b6044820152606401610485565b600560009054906101000a90046001600160a01b03166001600160a01b031663b38dc8116040518163ffffffff1660e01b815260040160206040518083038186803b1580156111d457600080fd5b505afa1580156111e8573d6000803e3d6000fd5b505050506040513d601f19601f8201168201806040525081019061120c919061252c565b6040516376f2736f60e01b8152600481018690526024810185905260448101849052606481018390526001600160a01b0391909116906376f2736f90608401610b06565b6040516394916c4760e01b81526000600482018190529073__$a374c895e6fa8c448878668e00d93ef99a$__906394916c479060240160206040518083038186803b15801561129e57600080fd5b505af41580156112b2573d6000803e3d6000fd5b505050506040513d601f19601f820116820180604052508101906112d6919061252c565b905090565b604051632d16622360e11b8152600060048201526024810182905233604482015273__$a374c895e6fa8c448878668e00d93ef99a$__90635a2cc44690606401610c84565b604051632c7ebf7360e01b8152600060048201819052602482018490526001600160a01b03831660448301529073__$a374c895e6fa8c448878668e00d93ef99a$__90632c7ebf739060640160206040518083038186803b15801561138457600080fd5b505af4158015611398573d6000803e3d6000fd5b505050506040513d601f19601f820116820180604052508101906113bc91906124de565b9392505050565b6004546001600160a01b03166040516335d2155560e11b81523360048201526001600160a01b039190911690636ba42aaa9060240160206040518083038186803b15801561141057600080fd5b505afa158015611424573d6000803e3d6000fd5b505050506040513d601f19601f8201168201806040525081019061144891906124de565b8061145d57506002546001600160a01b031633145b6114795760405162461bcd60e51b815260040161048590612500565b6005546040805163b38dc81160e01b815290516000926001600160a01b03169163b38dc811916004808301926020929190829003018186803b1580156114be57600080fd5b505afa1580156114d2573d6000803e3d6000fd5b505050506040513d601f19601f820116820180604052508101906114f6919061252c565b60405163f5bf221d60e01b815260048101869052602481018490529091506001600160a01b0382169063f5bf221d9060440160206040518083038186803b15801561154057600080fd5b505afa158015611554573d6000803e3d6000fd5b505050506040513d601f19601f8201168201806040525081019061157891906124de565b806115fd57506040516303bce3c360e41b815260048101859052602481018390526001600160a01b03821690633bce3c309060440160206040518083038186803b1580156115c557600080fd5b505afa1580156115d9573d6000803e3d6000fd5b505050506040513d601f19601f820116820180604052508101906115fd91906124de565b6116495760405162461bcd60e51b815260206004820152601e60248201527f424f4f4b2e52534f3a206e6f7420696e746572657374656420706172747900006044820152606401610485565b6040516317e18de360e01b815260048101859052602481018490526000906001600160a01b038316906317e18de39060440160e06040518083038186803b15801561169357600080fd5b505afa1580156116a7573d6000803e3d6000fd5b505050506040513d601f19601f820116820180604052508101906116cb91906125e9565b9050600560009054906101000a90046001600160a01b03166001600160a01b031663bd6200cc6040518163ffffffff1660e01b815260040160206040518083038186803b15801561171b57600080fd5b505afa15801561172f573d6000803e3d6000fd5b505050506040513d601f19601f82011682018060405250810190611753919061252c565b6020820151604051630a63591760e21b815263ffffffff90911660048201526001600160a01b03919091169063298d645c90602401602060405180830381600087803b1580156117a257600080fd5b505af11580156117b6573d6000803e3d6000fd5b505050506040513d601f19601f82011682018060405250810190610c3b91906124de565b60405163f17b815160e01b815273__$a374c895e6fa8c448878668e00d93ef99a$__9063f17b81519061181890600090869086903390600401612699565b60006040518083038186803b15801561183057600080fd5b505af4158015611844573d6000803e3d6000fd5b50506040516001600160a01b03841692508491507fc58ebc6bc4ca6dc8356357e625ffa0eb58d0db30d94a31a80a840e1cc74d2df990600090a35050565b6004546001600160a01b03166040516335d2155560e11b81523360048201526001600160a01b039190911690636ba42aaa9060240160206040518083038186803b1580156118cf57600080fd5b505afa1580156118e3573d6000803e3d6000fd5b505050506040513d601f19601f8201168201806040525081019061190791906124de565b8061191c57506002546001600160a01b031633145b6119385760405162461bcd60e51b815260040161048590612500565b8481600560009054906101000a90046001600160a01b03166001600160a01b031663b38dc8116040518163ffffffff1660e01b815260040160206040518083038186803b15801561198857600080fd5b505afa15801561199c573d6000803e3d6000fd5b505050506040513d601f19601f820116820180604052508101906119c0919061252c565b60405163f5bf221d60e01b815260048101849052602481018390526001600160a01b03919091169063f5bf221d9060440160206040518083038186803b158015611a0957600080fd5b505afa158015611a1d573d6000803e3d6000fd5b505050506040513d601f19601f82011682018060405250810190611a4191906124de565b611a5d5760405162461bcd60e51b815260040161048590612549565b6005546040805163b38dc81160e01b815290516000926001600160a01b03169163b38dc811916004808301926020929190829003018186803b158015611aa257600080fd5b505afa158015611ab6573d6000803e3d6000fd5b505050506040513d601f19601f82011682018060405250810190611ada919061252c565b90506000600560009054906101000a90046001600160a01b03166001600160a01b031663bd6200cc6040518163ffffffff1660e01b815260040160206040518083038186803b158015611b2c57600080fd5b505afa158015611b40573d6000803e3d6000fd5b505050506040513d601f19601f82011682018060405250810190611b64919061252c565b6040516331316bbf60e21b8152600481018b9052602481018a905260448101899052606481018890529091506000906001600160a01b0384169063c4c5aefc906084016102206040518083038186803b158015611bc057600080fd5b505afa158015611bd4573d6000803e3d6000fd5b505050506040513d601f19601f82011682018060405250810190611bf89190612789565b604051631e483eff60e31b81529091506001600160a01b0383169063f241f7f890611c279084906004016129be565b61022060405180830381600087803b158015611c4257600080fd5b505af1158015611c56573d6000803e3d6000fd5b505050506040513d601f19601f82011682018060405250810190611c7a9190612789565b80515160405163dc730ca160e01b815263ffffffff9091166004820152602481018b9052604481018990529091506001600160a01b0383169063dc730ca19060640160e060405180830381600087803b158015611cd657600080fd5b505af1158015611cea573d6000803e3d6000fd5b505050506040513d601f19601f82011682018060405250810190611d0e91906129cd565b6020820152604051637e991d3d60e11b81526001600160a01b0384169063fd323a7a90611d41908d9085906004016129e9565b600060405180830381600087803b158015611d5b57600080fd5b505af1158015611d6f573d6000803e3d6000fd5b5050505050505050505050505050565b60405163303b779f60e01b815273__$a374c895e6fa8c448878668e00d93ef99a$__9063303b779f90610c0f90600090869086903390600401612699565b6004546001600160a01b03166040516335d2155560e11b81523360048201526001600160a01b039190911690636ba42aaa9060240160206040518083038186803b158015611e0a57600080fd5b505afa158015611e1e573d6000803e3d6000fd5b505050506040513d601f19601f82011682018060405250810190611e4291906124de565b80611e5757506002546001600160a01b031633145b611e735760405162461bcd60e51b815260040161048590612500565b6005546040805163b38dc81160e01b815290516000926001600160a01b03169163b38dc811916004808301926020929190829003018186803b158015611eb857600080fd5b505afa158015611ecc573d6000803e3d6000fd5b505050506040513d601f19601f82011682018060405250810190611ef0919061252c565b6040516317e18de360e01b815260048101869052602481018590526001600160a01b0391909116906317e18de39060440160e06040518083038186803b158015611f3957600080fd5b505afa158015611f4d573d6000803e3d6000fd5b505050506040513d601f19601f82011682018060405250810190611f7191906125e9565b9050600560009054906101000a90046001600160a01b03166001600160a01b031663bd6200cc6040518163ffffffff1660e01b815260040160206040518083038186803b158015611fc157600080fd5b505afa158015611fd5573d6000803e3d6000fd5b505050506040513d601f19601f82011682018060405250810190611ff9919061252c565b6001600160a01b031663903cd5008260200151846040518363ffffffff1660e01b815260040161202a9291906129fe565b602060405180830381600087803b15801561204457600080fd5b505af1158015612058573d6000803e3d6000fd5b505050506040513d601f19601f82011682018060405250810190610cb091906124de565b600054600160a01b900460ff166001146120d85760405162461bcd60e51b815260206004820152601c60248201527f41432e6c6f636b436f6e74656e74733a2077726f6e67207374617465000000006044820152606401610485565b60405163bf2755e360e01b815260006004820152684174746f726e65797360b81b602482015233604482018190529073__$a374c895e6fa8c448878668e00d93ef99a$__9063bf2755e39060640160006040518083038186803b15801561213e57600080fd5b505af4158015612152573d6000803e3d6000fd5b50506040516351e7e80560e01b815260006004820181905260248201526001600160a01b038416604482015273__$a374c895e6fa8c448878668e00d93ef99a$__92506351e7e805915060640160006040518083038186803b1580156121b757600080fd5b505af41580156121cb573d6000803e3d6000fd5b50506000805460ff60a01b1916600160a11b1781556040517f35012b512309c322acf68632cd6cb702ff0e1d776fbe9394e38ffc13b434fe759350909150a150565b6001600160a01b038116811461222257600080fd5b50565b6000806000806080858703121561223b57600080fd5b84356122468161220d565b935060208501356122568161220d565b925060408501356122668161220d565b915060608501356122768161220d565b939692955090935050565b60008060006060848603121561229657600080fd5b505081359360208301359350604090920135919050565b6000602082840312156122bf57600080fd5b81356113bc8161220d565b600080604083850312156122dd57600080fd5b50508035926020909101359150565b6000602082840312156122fe57600080fd5b5035919050565b6000806040838503121561231857600080fd5b82359150602083013561232a8161220d565b809150509250929050565b6000806000806080858703121561234b57600080fd5b5050823594602084013594506040840135936060013592509050565b600080600080600060a0868803121561237f57600080fd5b505083359560208501359550604085013594606081013594506080013592509050565b634e487b7160e01b600052604160045260246000fd5b6040516060810167ffffffffffffffff811182821017156123db576123db6123a2565b60405290565b604051610120810167ffffffffffffffff811182821017156123db576123db6123a2565b604051601f8201601f1916810167ffffffffffffffff8111828210171561242e5761242e6123a2565b604052919050565b60008060006060848603121561244b57600080fd5b833592506020808501359250604085013567ffffffffffffffff8082111561247257600080fd5b818701915087601f83011261248657600080fd5b813581811115612498576124986123a2565b6124aa601f8201601f19168501612405565b915080825288848285010111156124c057600080fd5b80848401858401376000848284010152508093505050509250925092565b6000602082840312156124f057600080fd5b815180151581146113bc57600080fd5b6020808252601290820152711050cb9bdb9b1e52d9595c195c8e881393d560721b604082015260600190565b60006020828403121561253e57600080fd5b81516113bc8161220d565b6020808252601b908201527f424f4f4b2e6d662e4f523a204e4f54207269676874686f6c6465720000000000604082015260600190565b805161ffff8116811461259257600080fd5b919050565b805163ffffffff8116811461259257600080fd5b805167ffffffffffffffff8116811461259257600080fd5b805164ffffffffff8116811461259257600080fd5b805160ff8116811461259257600080fd5b600060e082840312156125fb57600080fd5b60405160e0810181811067ffffffffffffffff8211171561261e5761261e6123a2565b60405261262a83612580565b815261263860208401612597565b602082015261264960408401612597565b604082015261265a606084016125ab565b606082015261266b608084016125ab565b608082015261267c60a084016125c3565b60a082015261268d60c084016125d8565b60c08201529392505050565b93845260208401929092526001600160a01b03908116604084015216606082015260800190565b805165ffffffffffff8116811461259257600080fd5b600060e082840312156126e857600080fd5b60405160e0810181811067ffffffffffffffff8211171561270b5761270b6123a2565b60405290508061271a836125c3565b815261272860208401612597565b6020820152612739604084016125ab565b604082015261274a60608401612597565b606082015261275b608084016125ab565b608082015261276c60a084016125d8565b60a082015261277d60c08401612580565b60c08201525092915050565b600081830361022081121561279d57600080fd5b6127a56123b8565b610120808312156127b557600080fd5b6127bd6123e1565b92506127c885612597565b83526127d660208601612580565b60208401526127e760408601612580565b60408401526127f8606086016126c0565b6060840152612809608086016126c0565b608084015261281a60a08601612580565b60a084015261282b60c086016125c3565b60c084015261283c60e08601612597565b60e084015261010061284f8187016125d8565b90840152828252612862868683016126d6565b60208301525061020093909301516040840152509092915050565b805163ffffffff815116835261ffff602082015116602084015260408101516128ac604085018261ffff169052565b5060608101516128c6606085018265ffffffffffff169052565b5060808101516128e0608085018265ffffffffffff169052565b5060a08101516128f660a085018261ffff169052565b5060c081015161290f60c085018264ffffffffff169052565b5060e081015161292760e085018263ffffffff169052565b506101009081015160ff811684830152905050602081810151805164ffffffffff166101208501529081015163ffffffff908116610140850152604082015167ffffffffffffffff90811661016086015260608301519091166101808501526080820151166101a084015260a081015160ff166101c084015260c081015161ffff166101e084015250604001516102009190910152565b6102208101610bcb828461287d565b600060e082840312156129df57600080fd5b6113bc83836126d6565b82815261024081016113bc602083018461287d565b63ffffffff8316815260006020604081840152835180604085015260005b81811015612a3857858101830151858201606001528201612a1c565b81811115612a4a576000606083870101525b50601f01601f19169290920160600194935050505056fea2646970667358221220ee4583cde60781cfa220dd6f009135787b5a2bde9724921e87fba0988ca845a064736f6c63430008080033",
    "sourcePath": "/Users/kaptain/github.com/comboox/comboox/contracts/keepers/BOOkeeper.sol",
    "compiler": {
        "name": "solc",
        "version": "0.8.8+commit.dddeac2f"
    },
    "functionHashes": {
        "abandonRole(bytes32)": "3da9a600",
        "execOption(uint256,uint256)": "2371494b",
        "execSwapOrder(uint256,uint256,uint256)": "084179bd",
        "getDK()": "50627aea",
        "getOwner()": "893d20e8",
        "getRoleAdmin(bytes32)": "248a9ca3",
        "grantRole(bytes32,address)": "2f2ff15d",
        "hasRole(bytes32,address)": "91d14854",
        "init(address,address,address,address)": "06552ff3",
        "isFinalized()": "8d4e4083",
        "lockContents()": "f045a769",
        "lockSwapOrder(uint256,uint256,bytes32,uint256)": "5d0389cd",
        "placeSwapOrder(uint256,uint256,uint256,uint256,uint256)": "b647c729",
        "releaseSwapOrder(uint256,uint256,string)": "d6c4985c",
        "renounceRole(bytes32)": "8bb9c5bf",
        "revokeRole(bytes32,address)": "d547741f",
        "revokeSwapOrder(uint256,uint256,uint256)": "ab359417",
        "setDirectKeeper(address)": "6be8496f",
        "setOwner(address)": "13af4035",
        "setRoleAdmin(bytes32,address)": "ad763192",
        "updateOracle(uint256,uint256,uint256,uint256)": "76f2736f"
    },
    "gasEstimates": {
        "creation": {
            "codeDepositCost": "2180600",
            "executionCost": "28693",
            "totalCost": "2209293"
        },
        "external": {
            "abandonRole(bytes32)": "infinite",
            "execOption(uint256,uint256)": "infinite",
            "execSwapOrder(uint256,uint256,uint256)": "infinite",
            "getDK()": "2387",
            "getOwner()": "infinite",
            "getRoleAdmin(bytes32)": "infinite",
            "grantRole(bytes32,address)": "infinite",
            "hasRole(bytes32,address)": "infinite",
            "init(address,address,address,address)": "infinite",
            "isFinalized()": "2405",
            "lockContents()": "infinite",
            "lockSwapOrder(uint256,uint256,bytes32,uint256)": "infinite",
            "placeSwapOrder(uint256,uint256,uint256,uint256,uint256)": "infinite",
            "releaseSwapOrder(uint256,uint256,string)": "infinite",
            "renounceRole(bytes32)": "infinite",
            "revokeRole(bytes32,address)": "infinite",
            "revokeSwapOrder(uint256,uint256,uint256)": "infinite",
            "setDirectKeeper(address)": "27955",
            "setOwner(address)": "infinite",
            "setRoleAdmin(bytes32,address)": "infinite",
            "updateOracle(uint256,uint256,uint256,uint256)": "infinite"
        }
    }
}