{
    "contractName": "BOOKeeper",
    "abi": [
        {
            "anonymous": false,
            "inputs": [
                {
                    "indexed": false,
                    "internalType": "uint256",
                    "name": "owner",
                    "type": "uint256"
                },
                {
                    "indexed": false,
                    "internalType": "address",
                    "name": "directKeeper",
                    "type": "address"
                },
                {
                    "indexed": false,
                    "internalType": "address",
                    "name": "regCenter",
                    "type": "address"
                },
                {
                    "indexed": false,
                    "internalType": "address",
                    "name": "generalKeeper",
                    "type": "address"
                }
            ],
            "name": "Init",
            "type": "event"
        },
        {
            "anonymous": false,
            "inputs": [],
            "name": "LockContents",
            "type": "event"
        },
        {
            "anonymous": false,
            "inputs": [
                {
                    "indexed": false,
                    "internalType": "address",
                    "name": "keeper",
                    "type": "address"
                }
            ],
            "name": "SetDirectKeeper",
            "type": "event"
        },
        {
            "anonymous": false,
            "inputs": [
                {
                    "indexed": false,
                    "internalType": "uint256",
                    "name": "acct",
                    "type": "uint256"
                }
            ],
            "name": "SetGeneralCounsel",
            "type": "event"
        },
        {
            "anonymous": false,
            "inputs": [
                {
                    "indexed": false,
                    "internalType": "address",
                    "name": "gk",
                    "type": "address"
                }
            ],
            "name": "SetGeneralKeeper",
            "type": "event"
        },
        {
            "anonymous": false,
            "inputs": [
                {
                    "indexed": false,
                    "internalType": "uint256",
                    "name": "acct",
                    "type": "uint256"
                }
            ],
            "name": "SetOwner",
            "type": "event"
        },
        {
            "anonymous": false,
            "inputs": [
                {
                    "indexed": false,
                    "internalType": "address",
                    "name": "rc",
                    "type": "address"
                }
            ],
            "name": "SetRegCenter",
            "type": "event"
        },
        {
            "inputs": [
                {
                    "internalType": "bytes32",
                    "name": "role",
                    "type": "bytes32"
                }
            ],
            "name": "abandonRole",
            "outputs": [],
            "stateMutability": "nonpayable",
            "type": "function"
        },
        {
            "inputs": [
                {
                    "internalType": "uint256",
                    "name": "seqOfOpt",
                    "type": "uint256"
                },
                {
                    "internalType": "uint256",
                    "name": "seqOfShare",
                    "type": "uint256"
                },
                {
                    "internalType": "uint64",
                    "name": "paid",
                    "type": "uint64"
                },
                {
                    "internalType": "uint64",
                    "name": "par",
                    "type": "uint64"
                },
                {
                    "internalType": "uint256",
                    "name": "caller",
                    "type": "uint256"
                }
            ],
            "name": "addFuture",
            "outputs": [],
            "stateMutability": "nonpayable",
            "type": "function"
        },
        {
            "inputs": [
                {
                    "internalType": "uint256",
                    "name": "seqOfOpt",
                    "type": "uint256"
                },
                {
                    "internalType": "string",
                    "name": "hashKey",
                    "type": "string"
                },
                {
                    "internalType": "uint256",
                    "name": "caller",
                    "type": "uint256"
                }
            ],
            "name": "closeOption",
            "outputs": [],
            "stateMutability": "nonpayable",
            "type": "function"
        },
        {
            "inputs": [
                {
                    "internalType": "uint256",
                    "name": "seqOfOpt",
                    "type": "uint256"
                },
                {
                    "internalType": "uint256",
                    "name": "caller",
                    "type": "uint256"
                }
            ],
            "name": "execOption",
            "outputs": [],
            "stateMutability": "nonpayable",
            "type": "function"
        },
        {
            "inputs": [],
            "name": "finalized",
            "outputs": [
                {
                    "internalType": "bool",
                    "name": "",
                    "type": "bool"
                }
            ],
            "stateMutability": "view",
            "type": "function"
        },
        {
            "inputs": [],
            "name": "getBookeeper",
            "outputs": [
                {
                    "internalType": "address",
                    "name": "",
                    "type": "address"
                }
            ],
            "stateMutability": "view",
            "type": "function"
        },
        {
            "inputs": [],
            "name": "getGeneralCounsel",
            "outputs": [
                {
                    "internalType": "uint40",
                    "name": "",
                    "type": "uint40"
                }
            ],
            "stateMutability": "view",
            "type": "function"
        },
        {
            "inputs": [],
            "name": "getOwner",
            "outputs": [
                {
                    "internalType": "uint40",
                    "name": "",
                    "type": "uint40"
                }
            ],
            "stateMutability": "view",
            "type": "function"
        },
        {
            "inputs": [
                {
                    "internalType": "bytes32",
                    "name": "role",
                    "type": "bytes32"
                },
                {
                    "internalType": "uint256",
                    "name": "acct",
                    "type": "uint256"
                }
            ],
            "name": "grantRole",
            "outputs": [],
            "stateMutability": "nonpayable",
            "type": "function"
        },
        {
            "inputs": [
                {
                    "internalType": "bytes32",
                    "name": "role",
                    "type": "bytes32"
                },
                {
                    "internalType": "uint256",
                    "name": "acct",
                    "type": "uint256"
                }
            ],
            "name": "hasRole",
            "outputs": [
                {
                    "internalType": "bool",
                    "name": "",
                    "type": "bool"
                }
            ],
            "stateMutability": "view",
            "type": "function"
        },
        {
            "inputs": [
                {
                    "internalType": "uint256",
                    "name": "owner",
                    "type": "uint256"
                },
                {
                    "internalType": "address",
                    "name": "directKeeper",
                    "type": "address"
                },
                {
                    "internalType": "address",
                    "name": "regCenter",
                    "type": "address"
                },
                {
                    "internalType": "address",
                    "name": "generalKeeper",
                    "type": "address"
                }
            ],
            "name": "init",
            "outputs": [],
            "stateMutability": "nonpayable",
            "type": "function"
        },
        {
            "inputs": [
                {
                    "internalType": "bytes32",
                    "name": "sn",
                    "type": "bytes32"
                },
                {
                    "internalType": "uint256",
                    "name": "rightholder",
                    "type": "uint256"
                },
                {
                    "internalType": "uint64",
                    "name": "paid",
                    "type": "uint64"
                },
                {
                    "internalType": "uint64",
                    "name": "par",
                    "type": "uint64"
                },
                {
                    "internalType": "uint256",
                    "name": "caller",
                    "type": "uint256"
                }
            ],
            "name": "issueOption",
            "outputs": [],
            "stateMutability": "nonpayable",
            "type": "function"
        },
        {
            "inputs": [
                {
                    "internalType": "uint256",
                    "name": "seqOfOpt",
                    "type": "uint256"
                },
                {
                    "internalType": "uint256",
                    "name": "caller",
                    "type": "uint256"
                }
            ],
            "name": "joinOptionAsObligor",
            "outputs": [],
            "stateMutability": "nonpayable",
            "type": "function"
        },
        {
            "inputs": [],
            "name": "lockContents",
            "outputs": [],
            "stateMutability": "nonpayable",
            "type": "function"
        },
        {
            "inputs": [
                {
                    "internalType": "uint256",
                    "name": "seqOfOpt",
                    "type": "uint256"
                },
                {
                    "internalType": "bytes32",
                    "name": "hashLock",
                    "type": "bytes32"
                },
                {
                    "internalType": "uint256",
                    "name": "caller",
                    "type": "uint256"
                }
            ],
            "name": "lockOption",
            "outputs": [],
            "stateMutability": "nonpayable",
            "type": "function"
        },
        {
            "inputs": [
                {
                    "internalType": "uint256",
                    "name": "seqOfOpt",
                    "type": "uint256"
                },
                {
                    "internalType": "uint256",
                    "name": "caller",
                    "type": "uint256"
                }
            ],
            "name": "releasePledges",
            "outputs": [],
            "stateMutability": "nonpayable",
            "type": "function"
        },
        {
            "inputs": [
                {
                    "internalType": "uint256",
                    "name": "seqOfOpt",
                    "type": "uint256"
                },
                {
                    "internalType": "uint256",
                    "name": "seqOfFt",
                    "type": "uint256"
                },
                {
                    "internalType": "uint256",
                    "name": "caller",
                    "type": "uint256"
                }
            ],
            "name": "removeFuture",
            "outputs": [],
            "stateMutability": "nonpayable",
            "type": "function"
        },
        {
            "inputs": [
                {
                    "internalType": "uint256",
                    "name": "seqOfOpt",
                    "type": "uint256"
                },
                {
                    "internalType": "uint256",
                    "name": "obligor",
                    "type": "uint256"
                },
                {
                    "internalType": "uint256",
                    "name": "caller",
                    "type": "uint256"
                }
            ],
            "name": "removeObligorFromOption",
            "outputs": [],
            "stateMutability": "nonpayable",
            "type": "function"
        },
        {
            "inputs": [
                {
                    "internalType": "bytes32",
                    "name": "role",
                    "type": "bytes32"
                }
            ],
            "name": "renounceRole",
            "outputs": [],
            "stateMutability": "nonpayable",
            "type": "function"
        },
        {
            "inputs": [
                {
                    "internalType": "uint256",
                    "name": "seqOfOpt",
                    "type": "uint256"
                },
                {
                    "internalType": "uint256",
                    "name": "seqOfShare",
                    "type": "uint256"
                },
                {
                    "internalType": "uint64",
                    "name": "paid",
                    "type": "uint64"
                },
                {
                    "internalType": "uint64",
                    "name": "par",
                    "type": "uint64"
                },
                {
                    "internalType": "uint256",
                    "name": "caller",
                    "type": "uint256"
                }
            ],
            "name": "requestPledge",
            "outputs": [],
            "stateMutability": "nonpayable",
            "type": "function"
        },
        {
            "inputs": [
                {
                    "internalType": "uint256",
                    "name": "seqOfOpt",
                    "type": "uint256"
                },
                {
                    "internalType": "uint256",
                    "name": "caller",
                    "type": "uint256"
                }
            ],
            "name": "revokeOption",
            "outputs": [],
            "stateMutability": "nonpayable",
            "type": "function"
        },
        {
            "inputs": [
                {
                    "internalType": "bytes32",
                    "name": "role",
                    "type": "bytes32"
                },
                {
                    "internalType": "uint256",
                    "name": "acct",
                    "type": "uint256"
                }
            ],
            "name": "revokeRole",
            "outputs": [],
            "stateMutability": "nonpayable",
            "type": "function"
        },
        {
            "inputs": [
                {
                    "internalType": "address",
                    "name": "keeper",
                    "type": "address"
                }
            ],
            "name": "setDirectKeeper",
            "outputs": [],
            "stateMutability": "nonpayable",
            "type": "function"
        },
        {
            "inputs": [
                {
                    "internalType": "uint256",
                    "name": "acct",
                    "type": "uint256"
                }
            ],
            "name": "setGeneralCounsel",
            "outputs": [],
            "stateMutability": "nonpayable",
            "type": "function"
        },
        {
            "inputs": [
                {
                    "internalType": "uint256",
                    "name": "acct",
                    "type": "uint256"
                }
            ],
            "name": "setOwner",
            "outputs": [],
            "stateMutability": "nonpayable",
            "type": "function"
        },
        {
            "inputs": [
                {
                    "internalType": "bytes32",
                    "name": "role",
                    "type": "bytes32"
                },
                {
                    "internalType": "uint256",
                    "name": "acct",
                    "type": "uint256"
                }
            ],
            "name": "setRoleAdmin",
            "outputs": [],
            "stateMutability": "nonpayable",
            "type": "function"
        },
        {
            "inputs": [
                {
                    "internalType": "uint256",
                    "name": "seqOfOpt",
                    "type": "uint256"
                },
                {
                    "internalType": "uint32",
                    "name": "d1",
                    "type": "uint32"
                },
                {
                    "internalType": "uint32",
                    "name": "d2",
                    "type": "uint32"
                }
            ],
            "name": "updateOracle",
            "outputs": [],
            "stateMutability": "nonpayable",
            "type": "function"
        }
    ],
    "bytecode": "608060405234801561001057600080fd5b50614217806100206000396000f3fe608060405234801561001057600080fd5b50600436106101a95760003560e01c80638041494e116100f9578063bb2f278411610097578063dc890da911610071578063dc890da91461037b578063ed2110231461038e578063f045a769146103ae578063f6f109df146103b657600080fd5b8063bb2f278414610342578063cbe835fe14610355578063dc167b351461036857600080fd5b80638bb9c5bf116100d35780638bb9c5bf146102f55780638d0284dd14610308578063b3f05b971461031b578063b78922861461032f57600080fd5b80638041494e146102c75780638688c838146102da578063893d20e8146102ed57600080fd5b80633da9a600116101665780635fbf7671116101405780635fbf76711461026b578063601e96c11461027e5780636be8496f146102915780637e063c5a146102a457600080fd5b80633da9a600146102325780634a14beb1146102455780635171ebd41461025857600080fd5b80630b69f365146101ae578063103f6edd146101c357806319d61ad9146101e65780631b6ea9f9146101f95780632371494b1461020c5780633b32ac5e1461021f575b600080fd5b6101c16101bc3660046133e3565b6103c9565b005b6101cb6104f4565b60405164ffffffffff90911681526020015b60405180910390f35b6101c16101f4366004613425565b610580565b6101c1610207366004613425565b610614565b6101c161021a366004613425565b610639565b6101c161022d366004613561565b610800565b6101c1610240366004613608565b610de0565b6101c1610253366004613608565b610ef2565b6101c1610266366004613425565b6110e2565b6101c1610279366004613425565b611107565b6101c161028c366004613621565b611482565b6101c161029f366004613662565b61171d565b6102b76102b2366004613425565b6117cf565b60405190151581526020016101dd565b6101c16102d5366004613608565b61186a565b6101c16102e8366004613694565b611a4f565b6101cb611e2c565b6101c1610303366004613608565b611e67565b6101c1610316366004613425565b611ec0565b60028054600160f01b900460ff16146102b7565b6101c161033d366004613425565b612187565b6101c1610350366004613621565b612293565b6101c1610363366004613694565b61245f565b6101c1610376366004613621565b6127bb565b6101c16103893660046136e6565b612a6f565b610396612b52565b6040516001600160a01b0390911681526020016101dd565b6101c1612bd8565b6101c16103c4366004613694565b612df6565b604051633b11adbf60e21b81526002600482015233602482015273__$364aad554dc80380f414546becdd2c1584$__9063ec46b6fc9060440160206040518083038186803b15801561041a57600080fd5b505af415801561042e573d6000803e3d6000fd5b505050506040513d601f19601f820116820180604052508101906104529190613739565b6104775760405162461bcd60e51b815260040161046e9061375b565b60405180910390fd5b61047f612f44565b604051630b69f36560e01b81526004810185905263ffffffff8085166024830152831660448201526001600160a01b039190911690630b69f36590606401600060405180830381600087803b1580156104d757600080fd5b505af11580156104eb573d6000803e3d6000fd5b50505050505050565b60405163e8c0cc1d60e01b81526002600482015260009073__$364aad554dc80380f414546becdd2c1584$__9063e8c0cc1d906024015b60206040518083038186803b15801561054357600080fd5b505af4158015610557573d6000803e3d6000fd5b505050506040513d601f19601f8201168201806040525081019061057b91906137bb565b905090565b73__$364aad554dc80380f414546becdd2c1584$__6382daafaa6002846105a5612fa8565b6040516001600160e01b031960e086901b1681526004810193909352602483019190915264ffffffffff166044820152606481018490526084015b60006040518083038186803b1580156105f857600080fd5b505af415801561060c573d6000803e3d6000fd5b505050505050565b73__$364aad554dc80380f414546becdd2c1584$__636320d75e6002846105a5612fa8565b604051633b11adbf60e21b81526002600482015233602482015273__$364aad554dc80380f414546becdd2c1584$__9063ec46b6fc9060440160206040518083038186803b15801561068a57600080fd5b505af415801561069e573d6000803e3d6000fd5b505050506040513d601f19601f820116820180604052508101906106c29190613739565b6106de5760405162461bcd60e51b815260040161046e9061375b565b81816106e8612f44565b6001600160a01b0316631ce5e9a6836040518263ffffffff1660e01b815260040161071591815260200190565b6102606040518083038186803b15801561072e57600080fd5b505afa158015610742573d6000803e3d6000fd5b505050506040513d601f19601f8201168201806040525081019061076691906138af565b602001516020015164ffffffffff1681146107935760405162461bcd60e51b815260040161046e906139eb565b61079b612f44565b6001600160a01b0316636555ff7a856040518263ffffffff1660e01b81526004016107c891815260200190565b600060405180830381600087803b1580156107e257600080fd5b505af11580156107f6573d6000803e3d6000fd5b5050505050505050565b604051633b11adbf60e21b81526002600482015233602482015273__$364aad554dc80380f414546becdd2c1584$__9063ec46b6fc9060440160206040518083038186803b15801561085157600080fd5b505af4158015610865573d6000803e3d6000fd5b505050506040513d601f19601f820116820180604052508101906108899190613739565b6108a55760405162461bcd60e51b815260040161046e9061375b565b828160006108b1612f44565b6001600160a01b0316631ce5e9a6846040518263ffffffff1660e01b81526004016108de91815260200190565b6102606040518083038186803b1580156108f757600080fd5b505afa15801561090b573d6000803e3d6000fd5b505050506040513d601f19601f8201168201806040525081019061092f91906138af565b80516020015190915061094490600290613a14565b60ff1660011415610a3557610957612f44565b6040516303bce3c360e41b815260048101859052602481018490526001600160a01b039190911690633bce3c309060440160206040518083038186803b1580156109a057600080fd5b505afa1580156109b4573d6000803e3d6000fd5b505050506040513d601f19601f820116820180604052508101906109d89190613739565b610a305760405162461bcd60e51b8152602060048201526024808201527f424f4f4b2e6d662e4f423a204e4f54206f626c69676f72206f66205075744f706044820152633a34b7b760e11b606482015260840161046e565b610aa5565b80602001516020015164ffffffffff168214610aa55760405162461bcd60e51b815260206004820152602960248201527f424f4f4b2e6d662e4f423a204e4f54207269676874686f6c646572206f66204360448201526830b63627b83a34b7b760b91b606482015260840161046e565b6000610aaf612f44565b6001600160a01b0316631ce5e9a6886040518263ffffffff1660e01b8152600401610adc91815260200190565b6102606040518083038186803b158015610af557600080fd5b505afa158015610b09573d6000803e3d6000fd5b505050506040513d601f19601f82011682018060405250810190610b2d91906138af565b9050610b37612f44565b6001600160a01b0316639732f48f88886040518363ffffffff1660e01b8152600401610b64929190613a44565b600060405180830381600087803b158015610b7e57600080fd5b505af1158015610b92573d6000803e3d6000fd5b505050506000610ba0612f44565b6001600160a01b031663b7f55bf2896040518263ffffffff1660e01b8152600401610bcd91815260200190565b60006040518083038186803b158015610be557600080fd5b505afa158015610bf9573d6000803e3d6000fd5b505050506040513d6000823e601f3d908101601f19168201604052610c219190810190613b4e565b9050610c2c81613002565b60005b8151811015610d4e57610c40613126565b6001600160a01b031663f0d6c109838381518110610c6057610c60613bec565b602002602001015160200151848481518110610c7e57610c7e613bec565b602002602001015160600151858581518110610c9c57610c9c613bec565b6020026020010151608001518b8860000151604001516040518663ffffffff1660e01b8152600401610d0995949392919063ffffffff95861681526001600160401b03948516602082015292909316604083015264ffffffffff1660608201529116608082015260a00190565b600060405180830381600087803b158015610d2357600080fd5b505af1158015610d37573d6000803e3d6000fd5b505050508080610d4690613c18565b915050610c2f565b506107f6610d5a612f44565b6001600160a01b03166346629b1e8a6040518263ffffffff1660e01b8152600401610d8791815260200190565b60006040518083038186803b158015610d9f57600080fd5b505afa158015610db3573d6000803e3d6000fd5b505050506040513d6000823e601f3d908101601f19168201604052610ddb9190810190613c99565b613141565b604051633b11adbf60e21b81526002600482015233602482015273__$364aad554dc80380f414546becdd2c1584$__9063ec46b6fc9060440160206040518083038186803b158015610e3157600080fd5b505af4158015610e45573d6000803e3d6000fd5b505050506040513d601f19601f82011682018060405250810190610e699190613739565b610e855760405162461bcd60e51b815260040161046e9061375b565b60405163cc99e11b60e01b8152600260048201526024810182905273__$364aad554dc80380f414546becdd2c1584$__9063cc99e11b9060440160006040518083038186803b158015610ed757600080fd5b505af4158015610eeb573d6000803e3d6000fd5b5050505050565b604051633b11adbf60e21b81526002600482015233602482015273__$364aad554dc80380f414546becdd2c1584$__9063ec46b6fc9060440160206040518083038186803b158015610f4357600080fd5b505af4158015610f57573d6000803e3d6000fd5b505050506040513d601f19601f82011682018060405250810190610f7b9190613739565b80611020575073__$364aad554dc80380f414546becdd2c1584$__63fe2710866002610fa5612fa8565b6040516001600160e01b031960e085901b168152600481019290925264ffffffffff16602482015260440160206040518083038186803b158015610fe857600080fd5b505af4158015610ffc573d6000803e3d6000fd5b505050506040513d601f19601f820116820180604052508101906110209190613739565b61103c5760405162461bcd60e51b815260040161046e90613dc7565b604051632725ebef60e21b8152600260048201526024810182905273__$364aad554dc80380f414546becdd2c1584$__90639c97afbc9060440160006040518083038186803b15801561108e57600080fd5b505af41580156110a2573d6000803e3d6000fd5b505050507ff2735f34b69be1e6342dea95f9162f84d0db925fab655ca9f1f312ac8cbfc99d816040516110d791815260200190565b60405180910390a150565b73__$364aad554dc80380f414546becdd2c1584$__63ee98b3136002846105a5612fa8565b604051633b11adbf60e21b81526002600482015233602482015273__$364aad554dc80380f414546becdd2c1584$__9063ec46b6fc9060440160206040518083038186803b15801561115857600080fd5b505af415801561116c573d6000803e3d6000fd5b505050506040513d601f19601f820116820180604052508101906111909190613739565b6111ac5760405162461bcd60e51b815260040161046e9061375b565b81816111b6612f44565b6001600160a01b0316631ce5e9a6836040518263ffffffff1660e01b81526004016111e391815260200190565b6102606040518083038186803b1580156111fc57600080fd5b505afa158015611210573d6000803e3d6000fd5b505050506040513d601f19601f8201168201806040525081019061123491906138af565b602001516020015164ffffffffff1681146112615760405162461bcd60e51b815260040161046e906139eb565b600061126b612f44565b604051630e72f4d360e11b8152600481018790529091506000906001600160a01b03831690631ce5e9a6906024016102606040518083038186803b1580156112b257600080fd5b505afa1580156112c6573d6000803e3d6000fd5b505050506040513d601f19601f820116820180604052508101906112ea91906138af565b604051632e345c7d60e11b8152600481018890529091506001600160a01b03831690635c68b8fa9060240160206040518083038186803b15801561132d57600080fd5b505afa158015611341573d6000803e3d6000fd5b505050506040513d601f19601f820116820180604052508101906113659190613e1d565b60ff166006146113ac5760405162461bcd60e51b81526020600482015260126024820152711bdc1d1a5bdb881393d5081c995d9bdad95960721b604482015260640161046e565b8051602001516113be90600290613a14565b60ff16156113fc576040516323314d8f60e11b8152600481018790526113f7906001600160a01b038416906346629b1e90602401610d87565b61060c565b604051635bfaadf960e11b81526004810187905261060c906001600160a01b0384169063b7f55bf2906024015b60006040518083038186803b15801561144157600080fd5b505afa158015611455573d6000803e3d6000fd5b505050506040513d6000823e601f3d908101601f1916820160405261147d9190810190613b4e565b613002565b604051633b11adbf60e21b81526002600482015233602482015273__$364aad554dc80380f414546becdd2c1584$__9063ec46b6fc9060440160206040518083038186803b1580156114d357600080fd5b505af41580156114e7573d6000803e3d6000fd5b505050506040513d601f19601f8201168201806040525081019061150b9190613739565b6115275760405162461bcd60e51b815260040161046e9061375b565b82816000611533612f44565b6001600160a01b0316631ce5e9a6846040518263ffffffff1660e01b815260040161156091815260200190565b6102606040518083038186803b15801561157957600080fd5b505afa15801561158d573d6000803e3d6000fd5b505050506040513d601f19601f820116820180604052508101906115b191906138af565b8051602001519091506115c690600290613a14565b60ff16600114156116045780602001516020015164ffffffffff1682146115ff5760405162461bcd60e51b815260040161046e90613e38565b6116a9565b61160c612f44565b6040516303bce3c360e41b815260048101859052602481018490526001600160a01b039190911690633bce3c309060440160206040518083038186803b15801561165557600080fd5b505afa158015611669573d6000803e3d6000fd5b505050506040513d601f19601f8201168201806040525081019061168d9190613739565b6116a95760405162461bcd60e51b815260040161046e90613e80565b6116b1612f44565b604051631913af6d60e21b815260048101889052602481018790526001600160a01b03919091169063644ebdb4906044015b600060405180830381600087803b1580156116fd57600080fd5b505af1158015611711573d6000803e3d6000fd5b50505050505050505050565b604051630f07232560e01b8152600260048201523360248201526001600160a01b038216604482015273__$364aad554dc80380f414546becdd2c1584$__90630f0723259060640160006040518083038186803b15801561177d57600080fd5b505af4158015611791573d6000803e3d6000fd5b50506040516001600160a01b03841681527fe435cbeab64e4eae6497b9d8289704bd709d624a80704ef3ca9af777534bc6ec925060200190506110d7565b604051632a3be56b60e21b815260026004820152602481018390526044810182905260009073__$364aad554dc80380f414546becdd2c1584$__9063a8ef95ac9060640160206040518083038186803b15801561182b57600080fd5b505af415801561183f573d6000803e3d6000fd5b505050506040513d601f19601f820116820180604052508101906118639190613739565b9392505050565b604051633b11adbf60e21b81526002600482015233602482015273__$364aad554dc80380f414546becdd2c1584$__9063ec46b6fc9060440160206040518083038186803b1580156118bb57600080fd5b505af41580156118cf573d6000803e3d6000fd5b505050506040513d601f19601f820116820180604052508101906118f39190613739565b80611998575073__$364aad554dc80380f414546becdd2c1584$__63fe271086600261191d612fa8565b6040516001600160e01b031960e085901b168152600481019290925264ffffffffff16602482015260440160206040518083038186803b15801561196057600080fd5b505af4158015611974573d6000803e3d6000fd5b505050506040513d601f19601f820116820180604052508101906119989190613739565b6119b45760405162461bcd60e51b815260040161046e90613dc7565b60405163b6e38a2960e01b8152600260048201526024810182905273__$364aad554dc80380f414546becdd2c1584$__9063b6e38a299060440160006040518083038186803b158015611a0657600080fd5b505af4158015611a1a573d6000803e3d6000fd5b505050507f8b6f40f36b4ae8cc5f55e895036457c43da4ab1f80f58c46f5ff0d72a650033b816040516110d791815260200190565b604051633b11adbf60e21b81526002600482015233602482015273__$364aad554dc80380f414546becdd2c1584$__9063ec46b6fc9060440160206040518083038186803b158015611aa057600080fd5b505af4158015611ab4573d6000803e3d6000fd5b505050506040513d601f19601f82011682018060405250810190611ad89190613739565b611af45760405162461bcd60e51b815260040161046e9061375b565b8481611afe612f44565b6001600160a01b0316631ce5e9a6836040518263ffffffff1660e01b8152600401611b2b91815260200190565b6102606040518083038186803b158015611b4457600080fd5b505afa158015611b58573d6000803e3d6000fd5b505050506040513d601f19601f82011682018060405250810190611b7c91906138af565b602001516020015164ffffffffff168114611ba95760405162461bcd60e51b815260040161046e906139eb565b611bb1613126565b604051634bacf96160e01b8152600481018890526001600160401b038088166024830152861660448201526001600160a01b039190911690634bacf96190606401600060405180830381600087803b158015611c0c57600080fd5b505af1158015611c20573d6000803e3d6000fd5b505050506000611c2e612f44565b6001600160a01b0316631ce5e9a6896040518263ffffffff1660e01b8152600401611c5b91815260200190565b6102606040518083038186803b158015611c7457600080fd5b505afa158015611c88573d6000803e3d6000fd5b505050506040513d601f19601f82011682018060405250810190611cac91906138af565b90506000611cb8613126565b6001600160a01b031663cfb5a5f8896040518263ffffffff1660e01b8152600401611ce591815260200190565b6101806040518083038186803b158015611cfe57600080fd5b505afa158015611d12573d6000803e3d6000fd5b505050506040513d601f19601f82011682018060405250810190611d369190613eec565b905060006040518060c00160405280600063ffffffff1681526020018a63ffffffff1681526020016002856000015160200151611d739190613a14565b60ff16600114611d835787611d8d565b8460200151604001515b64ffffffffff1681526001600160401b03808b1660208301528916604082015260006060909101529050611dbf612f44565b6001600160a01b031663fb77f6218b84846040518463ffffffff1660e01b8152600401611dee939291906140a9565b600060405180830381600087803b158015611e0857600080fd5b505af1158015611e1c573d6000803e3d6000fd5b5050505050505050505050505050565b60405163987ad15360e01b81526002600482015260009073__$364aad554dc80380f414546becdd2c1584$__9063987ad1539060240161052b565b6000611e71612fa8565b60405163cc0d511b60e01b8152600260048201526024810184905264ffffffffff8216604482015290915073__$364aad554dc80380f414546becdd2c1584$__9063cc0d511b906064016105e0565b604051633b11adbf60e21b81526002600482015233602482015273__$364aad554dc80380f414546becdd2c1584$__9063ec46b6fc9060440160206040518083038186803b158015611f1157600080fd5b505af4158015611f25573d6000803e3d6000fd5b505050506040513d601f19601f82011682018060405250810190611f499190613739565b611f655760405162461bcd60e51b815260040161046e9061375b565b8181611f6f612f44565b6001600160a01b0316631ce5e9a6836040518263ffffffff1660e01b8152600401611f9c91815260200190565b6102606040518083038186803b158015611fb557600080fd5b505afa158015611fc9573d6000803e3d6000fd5b505050506040513d601f19601f82011682018060405250810190611fed91906138af565b602001516020015164ffffffffff16811461201a5760405162461bcd60e51b815260040161046e906139eb565b6000612024612f44565b6001600160a01b0316631ce5e9a6866040518263ffffffff1660e01b815260040161205191815260200190565b6102606040518083038186803b15801561206a57600080fd5b505afa15801561207e573d6000803e3d6000fd5b505050506040513d601f19601f820116820180604052508101906120a291906138af565b905060006120ae612f44565b604051635109ab1d60e01b8152600481018890529091506001600160a01b03821690635109ab1d90602401600060405180830381600087803b1580156120f357600080fd5b505af1158015612107573d6000803e3d6000fd5b505083516020015161211d925060029150613a14565b60ff161561215657604051635bfaadf960e11b8152600481018790526113f7906001600160a01b0383169063b7f55bf290602401611429565b6040516323314d8f60e11b81526004810187905261060c906001600160a01b038316906346629b1e90602401610d87565b604051633b11adbf60e21b81526002600482015233602482015273__$364aad554dc80380f414546becdd2c1584$__9063ec46b6fc9060440160206040518083038186803b1580156121d857600080fd5b505af41580156121ec573d6000803e3d6000fd5b505050506040513d601f19601f820116820180604052508101906122109190613739565b61222c5760405162461bcd60e51b815260040161046e9061375b565b612234612f44565b604051631448265d60e31b815260048101849052602481018390526001600160a01b03919091169063a24132e890604401600060405180830381600087803b15801561227f57600080fd5b505af115801561060c573d6000803e3d6000fd5b604051633b11adbf60e21b81526002600482015233602482015273__$364aad554dc80380f414546becdd2c1584$__9063ec46b6fc9060440160206040518083038186803b1580156122e457600080fd5b505af41580156122f8573d6000803e3d6000fd5b505050506040513d601f19601f8201168201806040525081019061231c9190613739565b6123385760405162461bcd60e51b815260040161046e9061375b565b8281612342612f44565b6001600160a01b0316631ce5e9a6836040518263ffffffff1660e01b815260040161236f91815260200190565b6102606040518083038186803b15801561238857600080fd5b505afa15801561239c573d6000803e3d6000fd5b505050506040513d601f19601f820116820180604052508101906123c091906138af565b602001516020015164ffffffffff1681146123ed5760405162461bcd60e51b815260040161046e906139eb565b6123f5612f44565b604051631d565c0760e01b815260048101879052602481018690526001600160a01b039190911690631d565c0790604401600060405180830381600087803b15801561244057600080fd5b505af1158015612454573d6000803e3d6000fd5b505050505050505050565b604051633b11adbf60e21b81526002600482015233602482015273__$364aad554dc80380f414546becdd2c1584$__9063ec46b6fc9060440160206040518083038186803b1580156124b057600080fd5b505af41580156124c4573d6000803e3d6000fd5b505050506040513d601f19601f820116820180604052508101906124e89190613739565b6125045760405162461bcd60e51b815260040161046e9061375b565b84816000612510612f44565b6001600160a01b0316631ce5e9a6846040518263ffffffff1660e01b815260040161253d91815260200190565b6102606040518083038186803b15801561255657600080fd5b505afa15801561256a573d6000803e3d6000fd5b505050506040513d601f19601f8201168201806040525081019061258e91906138af565b8051602001519091506125a390600290613a14565b60ff16600114156125e15780602001516020015164ffffffffff1682146125dc5760405162461bcd60e51b815260040161046e90613e38565b612686565b6125e9612f44565b6040516303bce3c360e41b815260048101859052602481018490526001600160a01b039190911690633bce3c309060440160206040518083038186803b15801561263257600080fd5b505afa158015612646573d6000803e3d6000fd5b505050506040513d601f19601f8201168201806040525081019061266a9190613739565b6126865760405162461bcd60e51b815260040161046e90613e80565b6000612690613126565b604051634bacf96160e01b8152600481018a90526001600160401b03808a166024830152881660448201529091506001600160a01b03821690634bacf96190606401600060405180830381600087803b1580156126ec57600080fd5b505af1158015612700573d6000803e3d6000fd5b50506040516319f6b4bf60e31b8152600481018b9052600092506001600160a01b038416915063cfb5a5f8906024016101806040518083038186803b15801561274857600080fd5b505afa15801561275c573d6000803e3d6000fd5b505050506040513d601f19601f820116820180604052508101906127809190613eec565b905061278a612f44565b6001600160a01b031663472b8b0b8b838b8b6040518563ffffffff1660e01b8152600401611dee9493929190614124565b604051633b11adbf60e21b81526002600482015233602482015273__$364aad554dc80380f414546becdd2c1584$__9063ec46b6fc9060440160206040518083038186803b15801561280c57600080fd5b505af4158015612820573d6000803e3d6000fd5b505050506040513d601f19601f820116820180604052508101906128449190613739565b6128605760405162461bcd60e51b815260040161046e9061375b565b828161286a612f44565b6001600160a01b0316631ce5e9a6836040518263ffffffff1660e01b815260040161289791815260200190565b6102606040518083038186803b1580156128b057600080fd5b505afa1580156128c4573d6000803e3d6000fd5b505050506040513d601f19601f820116820180604052508101906128e891906138af565b602001516020015164ffffffffff1681146129155760405162461bcd60e51b815260040161046e906139eb565b600061291f612f44565b60405163c069300560e01b815260048101889052602481018790526001600160a01b03919091169063c06930059060440160c06040518083038186803b15801561296857600080fd5b505afa15801561297c573d6000803e3d6000fd5b505050506040513d601f19601f820116820180604052508101906129a0919061415d565b90506129aa612f44565b6040516303bf7e4d60e31b815260048101889052602481018790526001600160a01b039190911690631dfbf26890604401600060405180830381600087803b1580156129f557600080fd5b505af1158015612a09573d6000803e3d6000fd5b50505050612a15613126565b602082015160608301516080840151604051631ba9b20960e21b815263ffffffff90931660048401526001600160401b0391821660248401521660448201526001600160a01b039190911690636ea6c824906064016116e3565b612a7882613268565b612a8181613317565b604051636cdd0edf60e11b815260026004820152602481018590526001600160a01b038416604482015273__$364aad554dc80380f414546becdd2c1584$__9063d9ba1dbe9060640160006040518083038186803b158015612ae257600080fd5b505af4158015612af6573d6000803e3d6000fd5b5050604080518781526001600160a01b038781166020830152868116828401528516606082015290517f3abb2418c66fe32ba9c883030a75ce583971d9af9192b9b74e44e67c5e6c8c1f9350908190036080019150a150505050565b604051633c3e56c160e11b81526002600482015260009073__$364aad554dc80380f414546becdd2c1584$__9063787cad829060240160206040518083038186803b158015612ba057600080fd5b505af4158015612bb4573d6000803e3d6000fd5b505050506040513d601f19601f8201168201806040525081019061057b9190614179565b604051633b11adbf60e21b81526002600482015233602482015273__$364aad554dc80380f414546becdd2c1584$__9063ec46b6fc9060440160206040518083038186803b158015612c2957600080fd5b505af4158015612c3d573d6000803e3d6000fd5b505050506040513d601f19601f82011682018060405250810190612c619190613739565b612c7d5760405162461bcd60e51b815260040161046e9061375b565b600254600160f01b900460ff16600114612cd95760405162461bcd60e51b815260206004820181905260248201527f41432e6f6e6c7950656e64696e673a20446f632069732066696e616c697a6564604482015260640161046e565b60405163cc99e11b60e01b815260026004820152684174746f726e65797360b81b602482015273__$364aad554dc80380f414546becdd2c1584$__9063cc99e11b9060440160006040518083038186803b158015612d3657600080fd5b505af4158015612d4a573d6000803e3d6000fd5b5050604051632725ebef60e21b8152600260048201526000602482015273__$364aad554dc80380f414546becdd2c1584$__9250639c97afbc915060440160006040518083038186803b158015612da057600080fd5b505af4158015612db4573d6000803e3d6000fd5b50506002805460ff60f01b1916600160f11b17905550506040517f35012b512309c322acf68632cd6cb702ff0e1d776fbe9394e38ffc13b434fe7590600090a1565b604051633b11adbf60e21b81526002600482015233602482015273__$364aad554dc80380f414546becdd2c1584$__9063ec46b6fc9060440160206040518083038186803b158015612e4757600080fd5b505af4158015612e5b573d6000803e3d6000fd5b505050506040513d601f19601f82011682018060405250810190612e7f9190613739565b612e9b5760405162461bcd60e51b815260040161046e9061375b565b612ea3612f44565b60405163126b29cb60e21b81526004810187905260248101869052604481018390526001600160401b038086166064830152841660848201526001600160a01b0391909116906349aca72c9060a401602060405180830381600087803b158015612f0c57600080fd5b505af1158015612f20573d6000803e3d6000fd5b505050506040513d601f19601f8201168201806040525081019061060c9190614196565b6001546000906001600160a01b031663e0ff5b8b60045b6040516001600160e01b031960e084901b16815260ff909116600482015260240160206040518083038186803b158015612f9457600080fd5b505afa158015612bb4573d6000803e3d6000fd5b60008054604051634de835e760e11b81523360048201526001600160a01b0390911690639bd06bce90602401602060405180830381600087803b158015612fee57600080fd5b505af1158015610557573d6000803e3d6000fd5b80515b801561312257613013613126565b6001600160a01b0316636ea6c8248361302d6001856141b3565b8151811061303d5761303d613bec565b6020026020010151602001518460018561305791906141b3565b8151811061306757613067613bec565b6020026020010151606001518560018661308191906141b3565b8151811061309157613091613bec565b6020026020010151608001516040518463ffffffff1660e01b81526004016130dd9392919063ffffffff9390931683526001600160401b03918216602084015216604082015260600190565b600060405180830381600087803b1580156130f757600080fd5b505af115801561310b573d6000803e3d6000fd5b50505050808061311a906141ca565b915050613005565b5050565b6001546000906001600160a01b031663e0ff5b8b6006612f5b565b80515b801561312257613152613126565b6001600160a01b0316636ea6c8248361316c6001856141b3565b8151811061317c5761317c613bec565b60209081029190910101515151846131956001866141b3565b815181106131a5576131a5613bec565b60200260200101516020015160200151856001866131c391906141b3565b815181106131d3576131d3613bec565b602002602001015160200151604001516040518463ffffffff1660e01b81526004016132239392919063ffffffff9390931683526001600160401b03918216602084015216604082015260600190565b600060405180830381600087803b15801561323d57600080fd5b505af1158015613251573d6000803e3d6000fd5b505050508080613260906141ca565b915050613144565b6000546001600160a01b0316156132b95760405162461bcd60e51b815260206004820152601560248201527430b63932b0b23c9039b2ba103932b3a1b2b73a32b960591b604482015260640161046e565b6040516001600160a01b03821681527f318da6c7624c71cbc0afe346c9d8827f119d0ecefb241a7b0c87217a076a8e029060200160405180910390a1600080546001600160a01b0319166001600160a01b0392909216919091179055565b6001546001600160a01b0316156133705760405162461bcd60e51b815260206004820152601960248201527f616c7265616479207365742067656e6572616c4b656570657200000000000000604482015260640161046e565b6040516001600160a01b03821681527fe513d3e0f0d0a3877029dcc588748679a7a3450ec1ec7ed56d96bd012c3e61aa9060200160405180910390a1600180546001600160a01b0319166001600160a01b0392909216919091179055565b63ffffffff811681146133e057600080fd5b50565b6000806000606084860312156133f857600080fd5b83359250602084013561340a816133ce565b9150604084013561341a816133ce565b809150509250925092565b6000806040838503121561343857600080fd5b50508035926020909101359150565b634e487b7160e01b600052604160045260246000fd5b604051606081016001600160401b038111828210171561347f5761347f613447565b60405290565b6040516101a081016001600160401b038111828210171561347f5761347f613447565b60405160c081016001600160401b038111828210171561347f5761347f613447565b604051608081016001600160401b038111828210171561347f5761347f613447565b604080519081016001600160401b038111828210171561347f5761347f613447565b60405161010081016001600160401b038111828210171561347f5761347f613447565b604051601f8201601f191681016001600160401b038111828210171561355957613559613447565b604052919050565b60008060006060848603121561357657600080fd5b833592506020808501356001600160401b038082111561359557600080fd5b818701915087601f8301126135a957600080fd5b8135818111156135bb576135bb613447565b6135cd601f8201601f19168501613531565b915080825288848285010111156135e357600080fd5b8084840185840137600084828401015250809450505050604084013590509250925092565b60006020828403121561361a57600080fd5b5035919050565b60008060006060848603121561363657600080fd5b505081359360208301359350604090920135919050565b6001600160a01b03811681146133e057600080fd5b60006020828403121561367457600080fd5b81356118638161364d565b6001600160401b03811681146133e057600080fd5b600080600080600060a086880312156136ac57600080fd5b853594506020860135935060408601356136c58161367f565b925060608601356136d58161367f565b949793965091946080013592915050565b600080600080608085870312156136fc57600080fd5b84359350602085013561370e8161364d565b9250604085013561371e8161364d565b9150606085013561372e8161364d565b939692955090935050565b60006020828403121561374b57600080fd5b8151801515811461186357600080fd5b60208082526026908201527f41432e6f6e6c794469726563744b65657065723a206e6f74206469726563742060408201526535b2b2b832b960d11b606082015260800190565b805164ffffffffff811681146137b657600080fd5b919050565b6000602082840312156137cd57600080fd5b611863826137a1565b80516137b6816133ce565b805160ff811681146137b657600080fd5b805165ffffffffffff811681146137b657600080fd5b805161ffff811681146137b657600080fd5b600060a0828403121561382c57600080fd5b60405160a081018181106001600160401b038211171561384e5761384e613447565b60405290508061385d836137f2565b815261386b602084016137a1565b602082015261387c604084016137a1565b6040820152606083015161388f8161367f565b606082015260808301516138a28161367f565b6080919091015292915050565b60008183036102608112156138c357600080fd5b6138cb61345d565b6101a0808312156138db57600080fd5b6138e3613485565b92506138ee856137d6565b83526138fc602086016137e1565b602084015261390d604086016137d6565b604084015261391e606086016137f2565b606084015261392f608086016137e1565b608084015261394060a086016137e1565b60a084015261395160c08601613808565b60c084015261396260e086016137e1565b60e08401526101006139758187016137e1565b908401526101206139878682016137d6565b908401526101406139998682016137e1565b908401526101606139ab8682016137d6565b908401526101806139bd8682016137e1565b908401528282526139d08686830161381a565b60208301525061024093909301516040840152509092915050565b6020808252600f908201526e2727aa103934b3b43a3437b63232b960891b604082015260600190565b600060ff831680613a3557634e487b7160e01b600052601260045260246000fd5b8060ff84160691505092915050565b82815260006020604081840152835180604085015260005b81811015613a7857858101830151858201606001528201613a5c565b81811115613a8a576000606083870101525b50601f01601f191692909201606001949350505050565b60006001600160401b03821115613aba57613aba613447565b5060051b60200190565b600060c08284031215613ad657600080fd5b613ade6134a8565b90508151613aeb816133ce565b81526020820151613afb816133ce565b6020820152613b0c604083016137a1565b60408201526060820151613b1f8161367f565b60608201526080820151613b328161367f565b6080820152613b4360a083016137e1565b60a082015292915050565b60006020808385031215613b6157600080fd5b82516001600160401b03811115613b7757600080fd5b8301601f81018513613b8857600080fd5b8051613b9b613b9682613aa1565b613531565b81815260c09182028301840191848201919088841115613bba57600080fd5b938501935b83851015613be057613bd18986613ac4565b83529384019391850191613bbf565b50979650505050505050565b634e487b7160e01b600052603260045260246000fd5b634e487b7160e01b600052601160045260246000fd5b6000600019821415613c2c57613c2c613c02565b5060010190565b600060808284031215613c4557600080fd5b613c4d6134ca565b9050613c58826137a1565b81526020820151613c688161367f565b60208201526040820151613c7b8161367f565b60408201526060820151613c8e8161367f565b606082015292915050565b60006020808385031215613cac57600080fd5b82516001600160401b03811115613cc257600080fd5b8301601f81018513613cd357600080fd5b8051613ce1613b9682613aa1565b8181526101409182028301840191848201919088841115613d0157600080fd5b938501935b83851015613be05784890381811215613d1f5760008081fd5b613d276134ec565b60c080831215613d375760008081fd5b613d3f6134a8565b92508751613d4c816133ce565b835287890151613d5b816133ce565b838a01526040613d6c8982016137f2565b908401526060613d7d8982016137f2565b908401526080613d8e8982016137a1565b9084015260a0613d9f8982016137a1565b90840152828252613db28c898301613c33565b828a0152508452509384019391850191613d06565b60208082526036908201527f41432e6f776e65724f72446972656374426f6f6b65657065723a206e6569746860408201527532b91037bbb732b9103737b9103137b7b5b2b2b832b960511b606082015260800190565b600060208284031215613e2f57600080fd5b611863826137e1565b60208082526028908201527f424f4f4b2e6d662e4f533a204e4f54207269676874686f6c646572206f6620506040820152673aba27b83a34b7b760c11b606082015260800190565b60208082526025908201527f424f4f4b2e6d662e4f533a204e4f54206f626c69676f72206f662043616c6c4f604082015264383a34b7b760d91b606082015260800190565b600060808284031215613ed757600080fd5b613edf6134ca565b90508151613c588161367f565b6000818303610180811215613f0057600080fd5b613f086134ec565b61010080831215613f1857600080fd5b613f2061350e565b9250613f2b85613808565b83526020850151613f3b816133ce565b6020840152613f4c604086016137d6565b6040840152613f5d606086016137f2565b6060840152613f6e608086016137f2565b6080840152613f7f60a086016137a1565b60a0840152613f9060c086016137d6565b60c0840152613fa160e086016137e1565b60e0840152828252613fb586828701613ec5565b602083015250949350505050565b805161ffff8151168352602081015163ffffffff808216602086015280604084015116604086015250506060810151614006606085018265ffffffffffff169052565b506080810151614020608085018265ffffffffffff169052565b5060a081015161403960a085018264ffffffffff169052565b5060c081015161405160c085018263ffffffff169052565b5060e0810151905061406860e084018260ff169052565b5060209081015180516001600160401b0390811661010085015291810151821661012084015260408101518216610140840152606001511661016090910152565b83815261026081016140be6020830185613fc3565b825163ffffffff9081166101a08401526020840151166101c0830152604083015164ffffffffff166101e083015260608301516001600160401b0390811661020084015260808401511661022083015260a09092015160ff166102409091015292915050565b8481526101e081016141396020830186613fc3565b6001600160401b038085166101a08401528084166101c08401525095945050505050565b600060c0828403121561416f57600080fd5b6118638383613ac4565b60006020828403121561418b57600080fd5b81516118638161364d565b6000602082840312156141a857600080fd5b8151611863816133ce565b6000828210156141c5576141c5613c02565b500390565b6000816141d9576141d9613c02565b50600019019056fea2646970667358221220e77df9b04f9aa7e1f1872a9dac864f788c2560b3f1b632ffc913b5e0bfb117d464736f6c63430008080033",
    "sourcePath": "/Users/kaptain/github.com/hardhat/comboox/contracts/keepers/BOOkeeper.sol",
    "compiler": {
        "name": "solc",
        "version": "0.8.8+commit.dddeac2f"
    },
    "functionHashes": {
        "abandonRole(bytes32)": "3da9a600",
        "addFuture(uint256,uint256,uint64,uint64,uint256)": "8688c838",
        "closeOption(uint256,string,uint256)": "3b32ac5e",
        "execOption(uint256,uint256)": "2371494b",
        "finalized()": "b3f05b97",
        "getBookeeper()": "ed211023",
        "getGeneralCounsel()": "103f6edd",
        "getOwner()": "893d20e8",
        "grantRole(bytes32,uint256)": "1b6ea9f9",
        "hasRole(bytes32,uint256)": "7e063c5a",
        "init(uint256,address,address,address)": "dc890da9",
        "issueOption(bytes32,uint256,uint64,uint64,uint256)": "f6f109df",
        "joinOptionAsObligor(uint256,uint256)": "b7892286",
        "lockContents()": "f045a769",
        "lockOption(uint256,bytes32,uint256)": "601e96c1",
        "releasePledges(uint256,uint256)": "5fbf7671",
        "removeFuture(uint256,uint256,uint256)": "dc167b35",
        "removeObligorFromOption(uint256,uint256,uint256)": "bb2f2784",
        "renounceRole(bytes32)": "8bb9c5bf",
        "requestPledge(uint256,uint256,uint64,uint64,uint256)": "cbe835fe",
        "revokeOption(uint256,uint256)": "8d0284dd",
        "revokeRole(bytes32,uint256)": "19d61ad9",
        "setDirectKeeper(address)": "6be8496f",
        "setGeneralCounsel(uint256)": "4a14beb1",
        "setOwner(uint256)": "8041494e",
        "setRoleAdmin(bytes32,uint256)": "5171ebd4",
        "updateOracle(uint256,uint32,uint32)": "0b69f365"
    },
    "gasEstimates": {
        "creation": {
            "codeDepositCost": "3383800",
            "executionCost": "3771",
            "totalCost": "3387571"
        },
        "external": {
            "abandonRole(bytes32)": "infinite",
            "addFuture(uint256,uint256,uint64,uint64,uint256)": "infinite",
            "closeOption(uint256,string,uint256)": "infinite",
            "execOption(uint256,uint256)": "infinite",
            "finalized()": "2416",
            "getBookeeper()": "infinite",
            "getGeneralCounsel()": "infinite",
            "getOwner()": "infinite",
            "grantRole(bytes32,uint256)": "infinite",
            "hasRole(bytes32,uint256)": "infinite",
            "init(uint256,address,address,address)": "infinite",
            "issueOption(bytes32,uint256,uint64,uint64,uint256)": "infinite",
            "joinOptionAsObligor(uint256,uint256)": "infinite",
            "lockContents()": "infinite",
            "lockOption(uint256,bytes32,uint256)": "infinite",
            "releasePledges(uint256,uint256)": "infinite",
            "removeFuture(uint256,uint256,uint256)": "infinite",
            "removeObligorFromOption(uint256,uint256,uint256)": "infinite",
            "renounceRole(bytes32)": "infinite",
            "requestPledge(uint256,uint256,uint64,uint64,uint256)": "infinite",
            "revokeOption(uint256,uint256)": "infinite",
            "revokeRole(bytes32,uint256)": "infinite",
            "setDirectKeeper(address)": "infinite",
            "setGeneralCounsel(uint256)": "infinite",
            "setOwner(uint256)": "infinite",
            "setRoleAdmin(bytes32,uint256)": "infinite",
            "updateOracle(uint256,uint32,uint32)": "infinite"
        },
        "internal": {
            "_recoverCleanPaidOfFts(struct OptionsRepo.Future memory[] memory)": "infinite",
            "_recoverCleanPaidOfPlds(struct PledgesRepo.Pledge memory[] memory)": "infinite"
        }
    }
}