{
    "contractName": "BOOKeeper",
    "abi": [
        {
            "anonymous": false,
            "inputs": [
                {
                    "indexed": true,
                    "internalType": "uint256",
                    "name": "owner",
                    "type": "uint256"
                },
                {
                    "indexed": true,
                    "internalType": "address",
                    "name": "directKeeper",
                    "type": "address"
                },
                {
                    "indexed": false,
                    "internalType": "address",
                    "name": "regCenter",
                    "type": "address"
                },
                {
                    "indexed": true,
                    "internalType": "address",
                    "name": "generalKeeper",
                    "type": "address"
                }
            ],
            "name": "Init",
            "type": "event"
        },
        {
            "anonymous": false,
            "inputs": [],
            "name": "LockContents",
            "type": "event"
        },
        {
            "anonymous": false,
            "inputs": [
                {
                    "indexed": true,
                    "internalType": "address",
                    "name": "target",
                    "type": "address"
                }
            ],
            "name": "RemoveDirectKeeper",
            "type": "event"
        },
        {
            "anonymous": false,
            "inputs": [
                {
                    "indexed": true,
                    "internalType": "address",
                    "name": "keeper",
                    "type": "address"
                }
            ],
            "name": "SetDirectKeeper",
            "type": "event"
        },
        {
            "anonymous": false,
            "inputs": [
                {
                    "indexed": true,
                    "internalType": "uint256",
                    "name": "acct",
                    "type": "uint256"
                }
            ],
            "name": "SetGeneralCounsel",
            "type": "event"
        },
        {
            "anonymous": false,
            "inputs": [
                {
                    "indexed": true,
                    "internalType": "uint256",
                    "name": "acct",
                    "type": "uint256"
                }
            ],
            "name": "SetOwner",
            "type": "event"
        },
        {
            "inputs": [
                {
                    "internalType": "bytes32",
                    "name": "role",
                    "type": "bytes32"
                }
            ],
            "name": "abandonRole",
            "outputs": [],
            "stateMutability": "nonpayable",
            "type": "function"
        },
        {
            "inputs": [
                {
                    "internalType": "uint256",
                    "name": "seqOfOpt",
                    "type": "uint256"
                },
                {
                    "internalType": "uint256",
                    "name": "caller",
                    "type": "uint256"
                }
            ],
            "name": "execOption",
            "outputs": [],
            "stateMutability": "nonpayable",
            "type": "function"
        },
        {
            "inputs": [
                {
                    "internalType": "uint256",
                    "name": "seqOfOpt",
                    "type": "uint256"
                },
                {
                    "internalType": "uint256",
                    "name": "seqOfBrf",
                    "type": "uint256"
                },
                {
                    "internalType": "uint256",
                    "name": "caller",
                    "type": "uint256"
                }
            ],
            "name": "execSwapOrder",
            "outputs": [],
            "stateMutability": "nonpayable",
            "type": "function"
        },
        {
            "inputs": [],
            "name": "finalized",
            "outputs": [
                {
                    "internalType": "bool",
                    "name": "",
                    "type": "bool"
                }
            ],
            "stateMutability": "view",
            "type": "function"
        },
        {
            "inputs": [],
            "name": "getBookeeper",
            "outputs": [
                {
                    "internalType": "address",
                    "name": "",
                    "type": "address"
                }
            ],
            "stateMutability": "view",
            "type": "function"
        },
        {
            "inputs": [],
            "name": "getGeneralCounsel",
            "outputs": [
                {
                    "internalType": "uint40",
                    "name": "",
                    "type": "uint40"
                }
            ],
            "stateMutability": "view",
            "type": "function"
        },
        {
            "inputs": [],
            "name": "getOwner",
            "outputs": [
                {
                    "internalType": "uint40",
                    "name": "",
                    "type": "uint40"
                }
            ],
            "stateMutability": "view",
            "type": "function"
        },
        {
            "inputs": [
                {
                    "internalType": "bytes32",
                    "name": "role",
                    "type": "bytes32"
                },
                {
                    "internalType": "uint256",
                    "name": "acct",
                    "type": "uint256"
                }
            ],
            "name": "grantRole",
            "outputs": [],
            "stateMutability": "nonpayable",
            "type": "function"
        },
        {
            "inputs": [
                {
                    "internalType": "bytes32",
                    "name": "role",
                    "type": "bytes32"
                },
                {
                    "internalType": "uint256",
                    "name": "acct",
                    "type": "uint256"
                }
            ],
            "name": "hasRole",
            "outputs": [
                {
                    "internalType": "bool",
                    "name": "",
                    "type": "bool"
                }
            ],
            "stateMutability": "view",
            "type": "function"
        },
        {
            "inputs": [
                {
                    "internalType": "uint256",
                    "name": "owner",
                    "type": "uint256"
                },
                {
                    "internalType": "address",
                    "name": "directKeeper",
                    "type": "address"
                },
                {
                    "internalType": "address",
                    "name": "regCenter",
                    "type": "address"
                },
                {
                    "internalType": "address",
                    "name": "generalKeeper",
                    "type": "address"
                }
            ],
            "name": "init",
            "outputs": [],
            "stateMutability": "nonpayable",
            "type": "function"
        },
        {
            "inputs": [],
            "name": "lockContents",
            "outputs": [],
            "stateMutability": "nonpayable",
            "type": "function"
        },
        {
            "inputs": [
                {
                    "internalType": "uint256",
                    "name": "seqOfOpt",
                    "type": "uint256"
                },
                {
                    "internalType": "uint256",
                    "name": "seqOfBrf",
                    "type": "uint256"
                },
                {
                    "internalType": "bytes32",
                    "name": "hashLock",
                    "type": "bytes32"
                },
                {
                    "internalType": "uint256",
                    "name": "caller",
                    "type": "uint256"
                }
            ],
            "name": "lockSwapOrder",
            "outputs": [],
            "stateMutability": "nonpayable",
            "type": "function"
        },
        {
            "inputs": [
                {
                    "internalType": "uint256",
                    "name": "seqOfOpt",
                    "type": "uint256"
                },
                {
                    "internalType": "uint256",
                    "name": "seqOfConsider",
                    "type": "uint256"
                },
                {
                    "internalType": "uint256",
                    "name": "paidOfConsider",
                    "type": "uint256"
                },
                {
                    "internalType": "uint256",
                    "name": "seqOfTarget",
                    "type": "uint256"
                },
                {
                    "internalType": "uint256",
                    "name": "caller",
                    "type": "uint256"
                }
            ],
            "name": "placeSwapOrder",
            "outputs": [],
            "stateMutability": "nonpayable",
            "type": "function"
        },
        {
            "inputs": [
                {
                    "internalType": "uint256",
                    "name": "seqOfOpt",
                    "type": "uint256"
                },
                {
                    "internalType": "uint256",
                    "name": "seqOfBrf",
                    "type": "uint256"
                },
                {
                    "internalType": "string",
                    "name": "hashKey",
                    "type": "string"
                }
            ],
            "name": "releaseSwapOrder",
            "outputs": [],
            "stateMutability": "nonpayable",
            "type": "function"
        },
        {
            "inputs": [
                {
                    "internalType": "address",
                    "name": "target",
                    "type": "address"
                }
            ],
            "name": "removeDirectKeeper",
            "outputs": [],
            "stateMutability": "nonpayable",
            "type": "function"
        },
        {
            "inputs": [
                {
                    "internalType": "bytes32",
                    "name": "role",
                    "type": "bytes32"
                }
            ],
            "name": "renounceRole",
            "outputs": [],
            "stateMutability": "nonpayable",
            "type": "function"
        },
        {
            "inputs": [
                {
                    "internalType": "bytes32",
                    "name": "role",
                    "type": "bytes32"
                },
                {
                    "internalType": "uint256",
                    "name": "acct",
                    "type": "uint256"
                }
            ],
            "name": "revokeRole",
            "outputs": [],
            "stateMutability": "nonpayable",
            "type": "function"
        },
        {
            "inputs": [
                {
                    "internalType": "uint256",
                    "name": "seqOfOpt",
                    "type": "uint256"
                },
                {
                    "internalType": "uint256",
                    "name": "seqOfBrf",
                    "type": "uint256"
                },
                {
                    "internalType": "uint256",
                    "name": "caller",
                    "type": "uint256"
                }
            ],
            "name": "revokeSwapOrder",
            "outputs": [],
            "stateMutability": "nonpayable",
            "type": "function"
        },
        {
            "inputs": [
                {
                    "internalType": "address",
                    "name": "keeper",
                    "type": "address"
                }
            ],
            "name": "setDirectKeeper",
            "outputs": [],
            "stateMutability": "nonpayable",
            "type": "function"
        },
        {
            "inputs": [
                {
                    "internalType": "uint256",
                    "name": "acct",
                    "type": "uint256"
                }
            ],
            "name": "setGeneralCounsel",
            "outputs": [],
            "stateMutability": "nonpayable",
            "type": "function"
        },
        {
            "inputs": [
                {
                    "internalType": "uint256",
                    "name": "acct",
                    "type": "uint256"
                }
            ],
            "name": "setOwner",
            "outputs": [],
            "stateMutability": "nonpayable",
            "type": "function"
        },
        {
            "inputs": [
                {
                    "internalType": "bytes32",
                    "name": "role",
                    "type": "bytes32"
                },
                {
                    "internalType": "uint256",
                    "name": "acct",
                    "type": "uint256"
                }
            ],
            "name": "setRoleAdmin",
            "outputs": [],
            "stateMutability": "nonpayable",
            "type": "function"
        },
        {
            "inputs": [
                {
                    "internalType": "uint256",
                    "name": "seqOfOpt",
                    "type": "uint256"
                },
                {
                    "internalType": "uint256",
                    "name": "d1",
                    "type": "uint256"
                },
                {
                    "internalType": "uint256",
                    "name": "d2",
                    "type": "uint256"
                },
                {
                    "internalType": "uint256",
                    "name": "d3",
                    "type": "uint256"
                }
            ],
            "name": "updateOracle",
            "outputs": [],
            "stateMutability": "nonpayable",
            "type": "function"
        }
    ],
    "bytecode": "608060405234801561001057600080fd5b506134c4806100206000396000f3fe608060405234801561001057600080fd5b506004361061014d5760003560e01c806376f2736f116100c3578063b3f05b971161007c578063b3f05b97146102ac578063b647c729146102c0578063d6c4985c146102d3578063dc890da9146102e6578063ed211023146102f9578063f045a7691461031957600080fd5b806376f2736f146102355780637e063c5a146102485780638041494e1461026b578063893d20e81461027e5780638bb9c5bf14610286578063ab3594171461029957600080fd5b80633da9a600116101155780633da9a600146101c35780634a14beb1146101d65780635171ebd4146101e95780635d0389cd146101fc5780635d7ad88f1461020f5780636be8496f1461022257600080fd5b8063084179bd14610152578063103f6edd1461016757806319d61ad91461018a5780631b6ea9f91461019d5780632371494b146101b0575b600080fd5b610165610160366004612c33565b610321565b005b61016f61078b565b60405164ffffffffff90911681526020015b60405180910390f35b610165610198366004612c5f565b610817565b6101656101ab366004612c5f565b6108a9565b6101656101be366004612c5f565b6108cf565b6101656101d1366004612c81565b610c05565b6101656101e4366004612c81565b610c90565b6101656101f7366004612c5f565b610ee5565b61016561020a366004612c9a565b610f0b565b61016561021d366004612ce4565b61136a565b610165610230366004612ce4565b61149f565b610165610243366004612c9a565b61154e565b61025b610256366004612c5f565b6116bd565b6040519015158152602001610181565b610165610279366004612c81565b61175a565b61016f611810565b610165610294366004612c81565b61184b565b6101656102a7366004612c33565b611870565b60028054600160f01b900460ff161461025b565b6101656102ce366004612d08565b611e04565b6101656102e1366004612dd7565b612466565b6101656102f4366004612e7f565b612743565b61030161281b565b6040516001600160a01b039091168152602001610181565b6101656128a1565b604051633b11adbf60e21b81526002600482015233602482015273__$a374c895e6fa8c448878668e00d93ef99a$__9063ec46b6fc9060440160206040518083038186803b15801561037257600080fd5b505af4158015610386573d6000803e3d6000fd5b505050506040513d601f19601f820116820180604052508101906103aa9190612ed2565b8061042b57506001546040516335d2155560e11b81523360048201526001600160a01b0390911690636ba42aaa9060240160206040518083038186803b1580156103f357600080fd5b505afa158015610407573d6000803e3d6000fd5b505050506040513d601f19601f8201168201806040525081019061042b9190612ed2565b6104505760405162461bcd60e51b815260040161044790612ef4565b60405180910390fd5b8281600160009054906101000a90046001600160a01b03166001600160a01b031663b38dc8116040518163ffffffff1660e01b815260040160206040518083038186803b1580156104a057600080fd5b505afa1580156104b4573d6000803e3d6000fd5b505050506040513d601f19601f820116820180604052508101906104d89190612f1f565b60405163f5bf221d60e01b815260048101849052602481018390526001600160a01b03919091169063f5bf221d9060440160206040518083038186803b15801561052157600080fd5b505afa158015610535573d6000803e3d6000fd5b505050506040513d601f19601f820116820180604052508101906105599190612ed2565b6105755760405162461bcd60e51b815260040161044790612f3c565b6001546040805163b38dc81160e01b815290516000926001600160a01b03169163b38dc811916004808301926020929190829003018186803b1580156105ba57600080fd5b505afa1580156105ce573d6000803e3d6000fd5b505050506040513d601f19601f820116820180604052508101906105f29190612f1f565b6040516317e18de360e01b815260048101889052602481018790526001600160a01b0391909116906317e18de39060440160e06040518083038186803b15801561063b57600080fd5b505afa15801561064f573d6000803e3d6000fd5b505050506040513d601f19601f820116820180604052508101906106739190612fdc565b9050600160009054906101000a90046001600160a01b03166001600160a01b031663bd6200cc6040518163ffffffff1660e01b815260040160206040518083038186803b1580156106c357600080fd5b505afa1580156106d7573d6000803e3d6000fd5b505050506040513d601f19601f820116820180604052508101906106fb9190612f1f565b6020820151604051630a63591760e21b815263ffffffff90911660048201526001600160a01b03919091169063298d645c90602401602060405180830381600087803b15801561074a57600080fd5b505af115801561075e573d6000803e3d6000fd5b505050506040513d601f19601f820116820180604052508101906107829190612ed2565b50505050505050565b60405163e8c0cc1d60e01b81526002600482015260009073__$a374c895e6fa8c448878668e00d93ef99a$__9063e8c0cc1d906024015b60206040518083038186803b1580156107da57600080fd5b505af41580156107ee573d6000803e3d6000fd5b505050506040513d601f19601f82011682018060405250810190610812919061308c565b905090565b73__$a374c895e6fa8c448878668e00d93ef99a$__6382daafaa6002848461083d612aeb565b6040516001600160e01b031960e087901b16815260048101949094526024840192909252604483015264ffffffffff16606482015260840160006040518083038186803b15801561088d57600080fd5b505af41580156108a1573d6000803e3d6000fd5b505050505050565b73__$a374c895e6fa8c448878668e00d93ef99a$__636320d75e6002848461083d612aeb565b604051633b11adbf60e21b81526002600482015233602482015273__$a374c895e6fa8c448878668e00d93ef99a$__9063ec46b6fc9060440160206040518083038186803b15801561092057600080fd5b505af4158015610934573d6000803e3d6000fd5b505050506040513d601f19601f820116820180604052508101906109589190612ed2565b806109d957506001546040516335d2155560e11b81523360048201526001600160a01b0390911690636ba42aaa9060240160206040518083038186803b1580156109a157600080fd5b505afa1580156109b5573d6000803e3d6000fd5b505050506040513d601f19601f820116820180604052508101906109d99190612ed2565b6109f55760405162461bcd60e51b815260040161044790612ef4565b8181600160009054906101000a90046001600160a01b03166001600160a01b031663b38dc8116040518163ffffffff1660e01b815260040160206040518083038186803b158015610a4557600080fd5b505afa158015610a59573d6000803e3d6000fd5b505050506040513d601f19601f82011682018060405250810190610a7d9190612f1f565b60405163f5bf221d60e01b815260048101849052602481018390526001600160a01b03919091169063f5bf221d9060440160206040518083038186803b158015610ac657600080fd5b505afa158015610ada573d6000803e3d6000fd5b505050506040513d601f19601f82011682018060405250810190610afe9190612ed2565b610b1a5760405162461bcd60e51b815260040161044790612f3c565b600160009054906101000a90046001600160a01b03166001600160a01b031663b38dc8116040518163ffffffff1660e01b815260040160206040518083038186803b158015610b6857600080fd5b505afa158015610b7c573d6000803e3d6000fd5b505050506040513d601f19601f82011682018060405250810190610ba09190612f1f565b6001600160a01b0316636555ff7a856040518263ffffffff1660e01b8152600401610bcd91815260200190565b600060405180830381600087803b158015610be757600080fd5b505af1158015610bfb573d6000803e3d6000fd5b5050505050505050565b73__$a374c895e6fa8c448878668e00d93ef99a$__63c51b295f600283610c2a612aeb565b6040516001600160e01b031960e086901b1681526004810193909352602483019190915264ffffffffff16604482015260640160006040518083038186803b158015610c7557600080fd5b505af4158015610c89573d6000803e3d6000fd5b5050505050565b604051633b11adbf60e21b81526002600482015233602482015273__$a374c895e6fa8c448878668e00d93ef99a$__9063ec46b6fc9060440160206040518083038186803b158015610ce157600080fd5b505af4158015610cf5573d6000803e3d6000fd5b505050506040513d601f19601f82011682018060405250810190610d199190612ed2565b80610dbe575073__$a374c895e6fa8c448878668e00d93ef99a$__63fe2710866002610d43612aeb565b6040516001600160e01b031960e085901b168152600481019290925264ffffffffff16602482015260440160206040518083038186803b158015610d8657600080fd5b505af4158015610d9a573d6000803e3d6000fd5b505050506040513d601f19601f82011682018060405250810190610dbe9190612ed2565b610e295760405162461bcd60e51b815260206004820152603660248201527f41432e6f776e65724f72446972656374426f6f6b65657065723a206e6569746860448201527532b91037bbb732b9103737b9103137b7b5b2b2b832b960511b6064820152608401610447565b73__$a374c895e6fa8c448878668e00d93ef99a$__6313a187d2600283610e4e612aeb565b6040516001600160e01b031960e086901b1681526004810193909352602483019190915264ffffffffff16604482015233606482015260840160006040518083038186803b158015610e9f57600080fd5b505af4158015610eb3573d6000803e3d6000fd5b50506040518392507ff2735f34b69be1e6342dea95f9162f84d0db925fab655ca9f1f312ac8cbfc99d9150600090a250565b73__$a374c895e6fa8c448878668e00d93ef99a$__63ee98b3136002848461083d612aeb565b604051633b11adbf60e21b81526002600482015233602482015273__$a374c895e6fa8c448878668e00d93ef99a$__9063ec46b6fc9060440160206040518083038186803b158015610f5c57600080fd5b505af4158015610f70573d6000803e3d6000fd5b505050506040513d601f19601f82011682018060405250810190610f949190612ed2565b8061101557506001546040516335d2155560e11b81523360048201526001600160a01b0390911690636ba42aaa9060240160206040518083038186803b158015610fdd57600080fd5b505afa158015610ff1573d6000803e3d6000fd5b505050506040513d601f19601f820116820180604052508101906110159190612ed2565b6110315760405162461bcd60e51b815260040161044790612ef4565b8381600160009054906101000a90046001600160a01b03166001600160a01b031663b38dc8116040518163ffffffff1660e01b815260040160206040518083038186803b15801561108157600080fd5b505afa158015611095573d6000803e3d6000fd5b505050506040513d601f19601f820116820180604052508101906110b99190612f1f565b60405163f5bf221d60e01b815260048101849052602481018390526001600160a01b03919091169063f5bf221d9060440160206040518083038186803b15801561110257600080fd5b505afa158015611116573d6000803e3d6000fd5b505050506040513d601f19601f8201168201806040525081019061113a9190612ed2565b6111565760405162461bcd60e51b815260040161044790612f3c565b6001546040805163b38dc81160e01b815290516000926001600160a01b03169163b38dc811916004808301926020929190829003018186803b15801561119b57600080fd5b505afa1580156111af573d6000803e3d6000fd5b505050506040513d601f19601f820116820180604052508101906111d39190612f1f565b6040516317e18de360e01b815260048101899052602481018890526001600160a01b0391909116906317e18de39060440160e06040518083038186803b15801561121c57600080fd5b505afa158015611230573d6000803e3d6000fd5b505050506040513d601f19601f820116820180604052508101906112549190612fdc565b9050600160009054906101000a90046001600160a01b03166001600160a01b031663bd6200cc6040518163ffffffff1660e01b815260040160206040518083038186803b1580156112a457600080fd5b505afa1580156112b8573d6000803e3d6000fd5b505050506040513d601f19601f820116820180604052508101906112dc9190612f1f565b6020820151604051633f11707560e11b815263ffffffff9091166004820152602481018790526001600160a01b039190911690637e22e0ea90604401602060405180830381600087803b15801561133257600080fd5b505af1158015611346573d6000803e3d6000fd5b505050506040513d601f19601f82011682018060405250810190610bfb9190612ed2565b604051633b11adbf60e21b81526002600482015233602482015273__$a374c895e6fa8c448878668e00d93ef99a$__9063ec46b6fc9060440160206040518083038186803b1580156113bb57600080fd5b505af41580156113cf573d6000803e3d6000fd5b505050506040513d601f19601f820116820180604052508101906113f39190612ed2565b61140f5760405162461bcd60e51b8152600401610447906130a7565b604051636be8496f60e01b81523360048201526001600160a01b03821690636be8496f90602401600060405180830381600087803b15801561145057600080fd5b505af1158015611464573d6000803e3d6000fd5b50506040516001600160a01b03841692507f64dd6e84044f0067086012335dcfab3188db6615b5cc7debf18c9a621ebd5d919150600090a250565b604051630f07232560e01b8152600260048201526001600160a01b038216602482015233604482015273__$a374c895e6fa8c448878668e00d93ef99a$__90630f0723259060640160006040518083038186803b1580156114ff57600080fd5b505af4158015611513573d6000803e3d6000fd5b50506040516001600160a01b03841692507fe435cbeab64e4eae6497b9d8289704bd709d624a80704ef3ca9af777534bc6ec9150600090a250565b604051633b11adbf60e21b81526002600482015233602482015273__$a374c895e6fa8c448878668e00d93ef99a$__9063ec46b6fc9060440160206040518083038186803b15801561159f57600080fd5b505af41580156115b3573d6000803e3d6000fd5b505050506040513d601f19601f820116820180604052508101906115d79190612ed2565b6115f35760405162461bcd60e51b8152600401610447906130a7565b600160009054906101000a90046001600160a01b03166001600160a01b031663b38dc8116040518163ffffffff1660e01b815260040160206040518083038186803b15801561164157600080fd5b505afa158015611655573d6000803e3d6000fd5b505050506040513d601f19601f820116820180604052508101906116799190612f1f565b6040516376f2736f60e01b8152600481018690526024810185905260448101849052606481018390526001600160a01b0391909116906376f2736f90608401610bcd565b604051632a3be56b60e21b815260026004820152602481018390526044810182905260009073__$a374c895e6fa8c448878668e00d93ef99a$__9063a8ef95ac9060640160206040518083038186803b15801561171957600080fd5b505af415801561172d573d6000803e3d6000fd5b505050506040513d601f19601f820116820180604052508101906117519190612ed2565b90505b92915050565b73__$a374c895e6fa8c448878668e00d93ef99a$__639b48160c60028361177f612aeb565b6040516001600160e01b031960e086901b1681526004810193909352602483019190915264ffffffffff16604482015260640160006040518083038186803b1580156117ca57600080fd5b505af41580156117de573d6000803e3d6000fd5b50506040518392507f8b6f40f36b4ae8cc5f55e895036457c43da4ab1f80f58c46f5ff0d72a650033b9150600090a250565b60405163987ad15360e01b81526002600482015260009073__$a374c895e6fa8c448878668e00d93ef99a$__9063987ad153906024016107c2565b73__$a374c895e6fa8c448878668e00d93ef99a$__63cc0d511b600283610c2a612aeb565b604051633b11adbf60e21b81526002600482015233602482015273__$a374c895e6fa8c448878668e00d93ef99a$__9063ec46b6fc9060440160206040518083038186803b1580156118c157600080fd5b505af41580156118d5573d6000803e3d6000fd5b505050506040513d601f19601f820116820180604052508101906118f99190612ed2565b8061197a57506001546040516335d2155560e11b81523360048201526001600160a01b0390911690636ba42aaa9060240160206040518083038186803b15801561194257600080fd5b505afa158015611956573d6000803e3d6000fd5b505050506040513d601f19601f8201168201806040525081019061197a9190612ed2565b6119965760405162461bcd60e51b815260040161044790612ef4565b600160009054906101000a90046001600160a01b03166001600160a01b031663b38dc8116040518163ffffffff1660e01b815260040160206040518083038186803b1580156119e457600080fd5b505afa1580156119f8573d6000803e3d6000fd5b505050506040513d601f19601f82011682018060405250810190611a1c9190612f1f565b60405163f5bf221d60e01b815260048101859052602481018390526001600160a01b03919091169063f5bf221d9060440160206040518083038186803b158015611a6557600080fd5b505afa158015611a79573d6000803e3d6000fd5b505050506040513d601f19601f82011682018060405250810190611a9d9190612ed2565b80611baa5750600160009054906101000a90046001600160a01b03166001600160a01b031663b38dc8116040518163ffffffff1660e01b815260040160206040518083038186803b158015611af157600080fd5b505afa158015611b05573d6000803e3d6000fd5b505050506040513d601f19601f82011682018060405250810190611b299190612f1f565b6040516303bce3c360e41b815260048101859052602481018390526001600160a01b039190911690633bce3c309060440160206040518083038186803b158015611b7257600080fd5b505afa158015611b86573d6000803e3d6000fd5b505050506040513d601f19601f82011682018060405250810190611baa9190612ed2565b611bf65760405162461bcd60e51b815260206004820152601e60248201527f424f4f4b2e52534f3a206e6f7420696e746572657374656420706172747900006044820152606401610447565b6001546040805163b38dc81160e01b815290516000926001600160a01b03169163b38dc811916004808301926020929190829003018186803b158015611c3b57600080fd5b505afa158015611c4f573d6000803e3d6000fd5b505050506040513d601f19601f82011682018060405250810190611c739190612f1f565b6040516317e18de360e01b815260048101869052602481018590526001600160a01b0391909116906317e18de39060440160e06040518083038186803b158015611cbc57600080fd5b505afa158015611cd0573d6000803e3d6000fd5b505050506040513d601f19601f82011682018060405250810190611cf49190612fdc565b9050600160009054906101000a90046001600160a01b03166001600160a01b031663bd6200cc6040518163ffffffff1660e01b815260040160206040518083038186803b158015611d4457600080fd5b505afa158015611d58573d6000803e3d6000fd5b505050506040513d601f19601f82011682018060405250810190611d7c9190612f1f565b6020820151604051630a63591760e21b815263ffffffff90911660048201526001600160a01b03919091169063298d645c906024015b602060405180830381600087803b158015611dcc57600080fd5b505af1158015611de0573d6000803e3d6000fd5b505050506040513d601f19601f82011682018060405250810190610c899190612ed2565b604051633b11adbf60e21b81526002600482015233602482015273__$a374c895e6fa8c448878668e00d93ef99a$__9063ec46b6fc9060440160206040518083038186803b158015611e5557600080fd5b505af4158015611e69573d6000803e3d6000fd5b505050506040513d601f19601f82011682018060405250810190611e8d9190612ed2565b80611f0e57506001546040516335d2155560e11b81523360048201526001600160a01b0390911690636ba42aaa9060240160206040518083038186803b158015611ed657600080fd5b505afa158015611eea573d6000803e3d6000fd5b505050506040513d601f19601f82011682018060405250810190611f0e9190612ed2565b611f2a5760405162461bcd60e51b815260040161044790612ef4565b8481600160009054906101000a90046001600160a01b03166001600160a01b031663b38dc8116040518163ffffffff1660e01b815260040160206040518083038186803b158015611f7a57600080fd5b505afa158015611f8e573d6000803e3d6000fd5b505050506040513d601f19601f82011682018060405250810190611fb29190612f1f565b60405163f5bf221d60e01b815260048101849052602481018390526001600160a01b03919091169063f5bf221d9060440160206040518083038186803b158015611ffb57600080fd5b505afa15801561200f573d6000803e3d6000fd5b505050506040513d601f19601f820116820180604052508101906120339190612ed2565b61204f5760405162461bcd60e51b815260040161044790612f3c565b6001546040805163b38dc81160e01b815290516000926001600160a01b03169163b38dc811916004808301926020929190829003018186803b15801561209457600080fd5b505afa1580156120a8573d6000803e3d6000fd5b505050506040513d601f19601f820116820180604052508101906120cc9190612f1f565b6040516331316bbf60e21b8152600481018a90526024810189905260448101889052606481018790526001600160a01b03919091169063c4c5aefc906084016102206040518083038186803b15801561212457600080fd5b505afa158015612138573d6000803e3d6000fd5b505050506040513d601f19601f8201168201806040525081019061215c91906131b6565b9050600160009054906101000a90046001600160a01b03166001600160a01b031663bd6200cc6040518163ffffffff1660e01b815260040160206040518083038186803b1580156121ac57600080fd5b505afa1580156121c0573d6000803e3d6000fd5b505050506040513d601f19601f820116820180604052508101906121e49190612f1f565b6001600160a01b031663f241f7f8826040518263ffffffff1660e01b815260040161220f91906133eb565b61022060405180830381600087803b15801561222a57600080fd5b505af115801561223e573d6000803e3d6000fd5b505050506040513d601f19601f8201168201806040525081019061226291906131b6565b9050600160009054906101000a90046001600160a01b03166001600160a01b031663bd6200cc6040518163ffffffff1660e01b815260040160206040518083038186803b1580156122b257600080fd5b505afa1580156122c6573d6000803e3d6000fd5b505050506040513d601f19601f820116820180604052508101906122ea9190612f1f565b81515160405163dc730ca160e01b815263ffffffff909116600482015260248101899052604481018790526001600160a01b03919091169063dc730ca19060640160e060405180830381600087803b15801561234557600080fd5b505af1158015612359573d6000803e3d6000fd5b505050506040513d601f19601f8201168201806040525081019061237d91906133fa565b6020808301919091526001546040805163b38dc81160e01b815290516001600160a01b039092169263b38dc81192600480840193829003018186803b1580156123c557600080fd5b505afa1580156123d9573d6000803e3d6000fd5b505050506040513d601f19601f820116820180604052508101906123fd9190612f1f565b6001600160a01b031663fd323a7a89836040518363ffffffff1660e01b815260040161242a929190613416565b600060405180830381600087803b15801561244457600080fd5b505af1158015612458573d6000803e3d6000fd5b505050505050505050505050565b604051633b11adbf60e21b81526002600482015233602482015273__$a374c895e6fa8c448878668e00d93ef99a$__9063ec46b6fc9060440160206040518083038186803b1580156124b757600080fd5b505af41580156124cb573d6000803e3d6000fd5b505050506040513d601f19601f820116820180604052508101906124ef9190612ed2565b8061257057506001546040516335d2155560e11b81523360048201526001600160a01b0390911690636ba42aaa9060240160206040518083038186803b15801561253857600080fd5b505afa15801561254c573d6000803e3d6000fd5b505050506040513d601f19601f820116820180604052508101906125709190612ed2565b61258c5760405162461bcd60e51b815260040161044790612ef4565b6001546040805163b38dc81160e01b815290516000926001600160a01b03169163b38dc811916004808301926020929190829003018186803b1580156125d157600080fd5b505afa1580156125e5573d6000803e3d6000fd5b505050506040513d601f19601f820116820180604052508101906126099190612f1f565b6040516317e18de360e01b815260048101869052602481018590526001600160a01b0391909116906317e18de39060440160e06040518083038186803b15801561265257600080fd5b505afa158015612666573d6000803e3d6000fd5b505050506040513d601f19601f8201168201806040525081019061268a9190612fdc565b9050600160009054906101000a90046001600160a01b03166001600160a01b031663bd6200cc6040518163ffffffff1660e01b815260040160206040518083038186803b1580156126da57600080fd5b505afa1580156126ee573d6000803e3d6000fd5b505050506040513d601f19601f820116820180604052508101906127129190612f1f565b6001600160a01b031663903cd5008260200151846040518363ffffffff1660e01b8152600401611db292919061342b565b604051636cdd0edf60e11b815260026004820152602481018590526001600160a01b038416604482015273__$a374c895e6fa8c448878668e00d93ef99a$__9063d9ba1dbe9060640160006040518083038186803b1580156127a457600080fd5b505af41580156127b8573d6000803e3d6000fd5b505050506127c582612b45565b6127ce81612bb8565b6040516001600160a01b038381168252808316919085169086907f3abb2418c66fe32ba9c883030a75ce583971d9af9192b9b74e44e67c5e6c8c1f9060200160405180910390a450505050565b604051633c3e56c160e11b81526002600482015260009073__$a374c895e6fa8c448878668e00d93ef99a$__9063787cad829060240160206040518083038186803b15801561286957600080fd5b505af415801561287d573d6000803e3d6000fd5b505050506040513d601f19601f820116820180604052508101906108129190612f1f565b600254600160f01b900460ff166001146128fd5760405162461bcd60e51b815260206004820152601760248201527f41432e4c433a20446f632069732066696e616c697a65640000000000000000006044820152606401610447565b73__$a374c895e6fa8c448878668e00d93ef99a$__63c51b295f6002684174746f726e65797360b81b61292e612aeb565b6040516001600160e01b031960e086901b1681526004810193909352602483019190915264ffffffffff16604482015260640160006040518083038186803b15801561297957600080fd5b505af415801561298d573d6000803e3d6000fd5b50505050600273__$a374c895e6fa8c448878668e00d93ef99a$__6313a187d2909160006129b9612aeb565b6040516001600160e01b031960e086901b1681526004810193909352602483019190915264ffffffffff16604482015233606482015260840160006040518083038186803b158015612a0a57600080fd5b505af4158015612a1e573d6000803e3d6000fd5b50505050600273__$a374c895e6fa8c448878668e00d93ef99a$__639b48160c90916000612a4a612aeb565b6040516001600160e01b031960e086901b1681526004810193909352602483019190915264ffffffffff16604482015260640160006040518083038186803b158015612a9557600080fd5b505af4158015612aa9573d6000803e3d6000fd5b50506002805460ff60f01b1916600160f11b17905550506040517f35012b512309c322acf68632cd6cb702ff0e1d776fbe9394e38ffc13b434fe7590600090a1565b60008054604051636ae3b70d60e11b81523360048201526001600160a01b039091169063d5c76e1a90602401602060405180830381600087803b158015612b3157600080fd5b505af11580156107ee573d6000803e3d6000fd5b6000546001600160a01b031615612b965760405162461bcd60e51b815260206004820152601560248201527430b63932b0b23c9039b2ba103932b3a1b2b73a32b960591b6044820152606401610447565b600080546001600160a01b0319166001600160a01b0392909216919091179055565b6001546001600160a01b031615612c115760405162461bcd60e51b815260206004820152601960248201527f616c7265616479207365742067656e6572616c4b6565706572000000000000006044820152606401610447565b600180546001600160a01b0319166001600160a01b0392909216919091179055565b600080600060608486031215612c4857600080fd5b505081359360208301359350604090920135919050565b60008060408385031215612c7257600080fd5b50508035926020909101359150565b600060208284031215612c9357600080fd5b5035919050565b60008060008060808587031215612cb057600080fd5b5050823594602084013594506040840135936060013592509050565b6001600160a01b0381168114612ce157600080fd5b50565b600060208284031215612cf657600080fd5b8135612d0181612ccc565b9392505050565b600080600080600060a08688031215612d2057600080fd5b505083359560208501359550604085013594606081013594506080013592509050565b634e487b7160e01b600052604160045260246000fd5b6040516060810167ffffffffffffffff81118282101715612d7c57612d7c612d43565b60405290565b604051610120810167ffffffffffffffff81118282101715612d7c57612d7c612d43565b604051601f8201601f1916810167ffffffffffffffff81118282101715612dcf57612dcf612d43565b604052919050565b600080600060608486031215612dec57600080fd5b833592506020808501359250604085013567ffffffffffffffff80821115612e1357600080fd5b818701915087601f830112612e2757600080fd5b813581811115612e3957612e39612d43565b612e4b601f8201601f19168501612da6565b91508082528884828501011115612e6157600080fd5b80848401858401376000848284010152508093505050509250925092565b60008060008060808587031215612e9557600080fd5b843593506020850135612ea781612ccc565b92506040850135612eb781612ccc565b91506060850135612ec781612ccc565b939692955090935050565b600060208284031215612ee457600080fd5b81518015158114612d0157600080fd5b60208082526011908201527020a19737b59d103737ba1025b2b2b832b960791b604082015260600190565b600060208284031215612f3157600080fd5b8151612d0181612ccc565b6020808252601b908201527f424f4f4b2e6d662e4f523a204e4f54207269676874686f6c6465720000000000604082015260600190565b805161ffff81168114612f8557600080fd5b919050565b805163ffffffff81168114612f8557600080fd5b805167ffffffffffffffff81168114612f8557600080fd5b805164ffffffffff81168114612f8557600080fd5b805160ff81168114612f8557600080fd5b600060e08284031215612fee57600080fd5b60405160e0810181811067ffffffffffffffff8211171561301157613011612d43565b60405261301d83612f73565b815261302b60208401612f8a565b602082015261303c60408401612f8a565b604082015261304d60608401612f9e565b606082015261305e60808401612f9e565b608082015261306f60a08401612fb6565b60a082015261308060c08401612fcb565b60c08201529392505050565b60006020828403121561309e57600080fd5b61175182612fb6565b60208082526026908201527f41432e6f6e6c794469726563744b65657065723a206e6f74206469726563742060408201526535b2b2b832b960d11b606082015260800190565b805165ffffffffffff81168114612f8557600080fd5b600060e0828403121561311557600080fd5b60405160e0810181811067ffffffffffffffff8211171561313857613138612d43565b60405290508061314783612fb6565b815261315560208401612f8a565b602082015261316660408401612f9e565b604082015261317760608401612f8a565b606082015261318860808401612f9e565b608082015261319960a08401612fcb565b60a08201526131aa60c08401612f73565b60c08201525092915050565b60008183036102208112156131ca57600080fd5b6131d2612d59565b610120808312156131e257600080fd5b6131ea612d82565b92506131f585612f8a565b835261320360208601612f73565b602084015261321460408601612f73565b6040840152613225606086016130ed565b6060840152613236608086016130ed565b608084015261324760a08601612f73565b60a084015261325860c08601612fb6565b60c084015261326960e08601612f8a565b60e084015261010061327c818701612fcb565b9084015282825261328f86868301613103565b60208301525061020093909301516040840152509092915050565b805163ffffffff815116835261ffff602082015116602084015260408101516132d9604085018261ffff169052565b5060608101516132f3606085018265ffffffffffff169052565b50608081015161330d608085018265ffffffffffff169052565b5060a081015161332360a085018261ffff169052565b5060c081015161333c60c085018264ffffffffff169052565b5060e081015161335460e085018263ffffffff169052565b506101009081015160ff811684830152905050602081810151805164ffffffffff166101208501529081015163ffffffff908116610140850152604082015167ffffffffffffffff90811661016086015260608301519091166101808501526080820151166101a084015260a081015160ff166101c084015260c081015161ffff166101e084015250604001516102009190910152565b610220810161175482846132aa565b600060e0828403121561340c57600080fd5b6117518383613103565b8281526102408101612d0160208301846132aa565b63ffffffff8316815260006020604081840152835180604085015260005b8181101561346557858101830151858201606001528201613449565b81811115613477576000606083870101525b50601f01601f19169290920160600194935050505056fea2646970667358221220b02c2530cac92ab1a80a32292e80457b672964b9998fa4ab73ddadbed5560b8264736f6c63430008080033",
    "sourcePath": "/Users/kaptain/github.com/comboox/comboox/contracts/keepers/BOOkeeper.sol",
    "compiler": {
        "name": "solc",
        "version": "0.8.8+commit.dddeac2f"
    },
    "functionHashes": {
        "abandonRole(bytes32)": "3da9a600",
        "execOption(uint256,uint256)": "2371494b",
        "execSwapOrder(uint256,uint256,uint256)": "084179bd",
        "finalized()": "b3f05b97",
        "getBookeeper()": "ed211023",
        "getGeneralCounsel()": "103f6edd",
        "getOwner()": "893d20e8",
        "grantRole(bytes32,uint256)": "1b6ea9f9",
        "hasRole(bytes32,uint256)": "7e063c5a",
        "init(uint256,address,address,address)": "dc890da9",
        "lockContents()": "f045a769",
        "lockSwapOrder(uint256,uint256,bytes32,uint256)": "5d0389cd",
        "placeSwapOrder(uint256,uint256,uint256,uint256,uint256)": "b647c729",
        "releaseSwapOrder(uint256,uint256,string)": "d6c4985c",
        "removeDirectKeeper(address)": "5d7ad88f",
        "renounceRole(bytes32)": "8bb9c5bf",
        "revokeRole(bytes32,uint256)": "19d61ad9",
        "revokeSwapOrder(uint256,uint256,uint256)": "ab359417",
        "setDirectKeeper(address)": "6be8496f",
        "setGeneralCounsel(uint256)": "4a14beb1",
        "setOwner(uint256)": "8041494e",
        "setRoleAdmin(bytes32,uint256)": "5171ebd4",
        "updateOracle(uint256,uint256,uint256,uint256)": "76f2736f"
    },
    "gasEstimates": {
        "creation": {
            "codeDepositCost": "2701600",
            "executionCost": "2938",
            "totalCost": "2704538"
        },
        "external": {
            "abandonRole(bytes32)": "infinite",
            "execOption(uint256,uint256)": "infinite",
            "execSwapOrder(uint256,uint256,uint256)": "infinite",
            "finalized()": "2349",
            "getBookeeper()": "infinite",
            "getGeneralCounsel()": "infinite",
            "getOwner()": "infinite",
            "grantRole(bytes32,uint256)": "infinite",
            "hasRole(bytes32,uint256)": "infinite",
            "init(uint256,address,address,address)": "infinite",
            "lockContents()": "infinite",
            "lockSwapOrder(uint256,uint256,bytes32,uint256)": "infinite",
            "placeSwapOrder(uint256,uint256,uint256,uint256,uint256)": "infinite",
            "releaseSwapOrder(uint256,uint256,string)": "infinite",
            "removeDirectKeeper(address)": "infinite",
            "renounceRole(bytes32)": "infinite",
            "revokeRole(bytes32,uint256)": "infinite",
            "revokeSwapOrder(uint256,uint256,uint256)": "infinite",
            "setDirectKeeper(address)": "infinite",
            "setGeneralCounsel(uint256)": "infinite",
            "setOwner(uint256)": "infinite",
            "setRoleAdmin(bytes32,uint256)": "infinite",
            "updateOracle(uint256,uint256,uint256,uint256)": "infinite"
        }
    }
}