{
    "contractName": "BOPKeeper",
    "abi": [
        {
            "anonymous": false,
            "inputs": [
                {
                    "indexed": false,
                    "internalType": "uint256",
                    "name": "owner",
                    "type": "uint256"
                },
                {
                    "indexed": false,
                    "internalType": "address",
                    "name": "directKeeper",
                    "type": "address"
                },
                {
                    "indexed": false,
                    "internalType": "address",
                    "name": "regCenter",
                    "type": "address"
                },
                {
                    "indexed": false,
                    "internalType": "address",
                    "name": "generalKeeper",
                    "type": "address"
                }
            ],
            "name": "Init",
            "type": "event"
        },
        {
            "anonymous": false,
            "inputs": [],
            "name": "LockContents",
            "type": "event"
        },
        {
            "anonymous": false,
            "inputs": [
                {
                    "indexed": false,
                    "internalType": "address",
                    "name": "keeper",
                    "type": "address"
                }
            ],
            "name": "SetDirectKeeper",
            "type": "event"
        },
        {
            "anonymous": false,
            "inputs": [
                {
                    "indexed": false,
                    "internalType": "uint256",
                    "name": "acct",
                    "type": "uint256"
                }
            ],
            "name": "SetGeneralCounsel",
            "type": "event"
        },
        {
            "anonymous": false,
            "inputs": [
                {
                    "indexed": false,
                    "internalType": "address",
                    "name": "gk",
                    "type": "address"
                }
            ],
            "name": "SetGeneralKeeper",
            "type": "event"
        },
        {
            "anonymous": false,
            "inputs": [
                {
                    "indexed": false,
                    "internalType": "uint256",
                    "name": "acct",
                    "type": "uint256"
                }
            ],
            "name": "SetOwner",
            "type": "event"
        },
        {
            "anonymous": false,
            "inputs": [
                {
                    "indexed": false,
                    "internalType": "address",
                    "name": "rc",
                    "type": "address"
                }
            ],
            "name": "SetRegCenter",
            "type": "event"
        },
        {
            "inputs": [
                {
                    "internalType": "bytes32",
                    "name": "role",
                    "type": "bytes32"
                }
            ],
            "name": "abandonRole",
            "outputs": [],
            "stateMutability": "nonpayable",
            "type": "function"
        },
        {
            "inputs": [
                {
                    "internalType": "uint256",
                    "name": "sn",
                    "type": "uint256"
                },
                {
                    "internalType": "uint40",
                    "name": "creditor",
                    "type": "uint40"
                },
                {
                    "internalType": "uint16",
                    "name": "monOfGuarantee",
                    "type": "uint16"
                },
                {
                    "internalType": "uint64",
                    "name": "pledgedPaid",
                    "type": "uint64"
                },
                {
                    "internalType": "uint64",
                    "name": "pledgedPar",
                    "type": "uint64"
                },
                {
                    "internalType": "uint64",
                    "name": "guaranteedAmt",
                    "type": "uint64"
                },
                {
                    "internalType": "uint256",
                    "name": "caller",
                    "type": "uint256"
                }
            ],
            "name": "createPledge",
            "outputs": [],
            "stateMutability": "nonpayable",
            "type": "function"
        },
        {
            "inputs": [
                {
                    "internalType": "uint256",
                    "name": "seqOfShare",
                    "type": "uint256"
                },
                {
                    "internalType": "uint256",
                    "name": "seqOfPledge",
                    "type": "uint256"
                },
                {
                    "internalType": "uint256",
                    "name": "caller",
                    "type": "uint256"
                }
            ],
            "name": "delPledge",
            "outputs": [],
            "stateMutability": "nonpayable",
            "type": "function"
        },
        {
            "inputs": [],
            "name": "finalized",
            "outputs": [
                {
                    "internalType": "bool",
                    "name": "",
                    "type": "bool"
                }
            ],
            "stateMutability": "view",
            "type": "function"
        },
        {
            "inputs": [],
            "name": "getBookeeper",
            "outputs": [
                {
                    "internalType": "address",
                    "name": "",
                    "type": "address"
                }
            ],
            "stateMutability": "view",
            "type": "function"
        },
        {
            "inputs": [],
            "name": "getGeneralCounsel",
            "outputs": [
                {
                    "internalType": "uint40",
                    "name": "",
                    "type": "uint40"
                }
            ],
            "stateMutability": "view",
            "type": "function"
        },
        {
            "inputs": [],
            "name": "getOwner",
            "outputs": [
                {
                    "internalType": "uint40",
                    "name": "",
                    "type": "uint40"
                }
            ],
            "stateMutability": "view",
            "type": "function"
        },
        {
            "inputs": [
                {
                    "internalType": "bytes32",
                    "name": "role",
                    "type": "bytes32"
                },
                {
                    "internalType": "uint256",
                    "name": "acct",
                    "type": "uint256"
                }
            ],
            "name": "grantRole",
            "outputs": [],
            "stateMutability": "nonpayable",
            "type": "function"
        },
        {
            "inputs": [
                {
                    "internalType": "bytes32",
                    "name": "role",
                    "type": "bytes32"
                },
                {
                    "internalType": "uint256",
                    "name": "acct",
                    "type": "uint256"
                }
            ],
            "name": "hasRole",
            "outputs": [
                {
                    "internalType": "bool",
                    "name": "",
                    "type": "bool"
                }
            ],
            "stateMutability": "view",
            "type": "function"
        },
        {
            "inputs": [
                {
                    "internalType": "uint256",
                    "name": "owner",
                    "type": "uint256"
                },
                {
                    "internalType": "address",
                    "name": "directKeeper",
                    "type": "address"
                },
                {
                    "internalType": "address",
                    "name": "regCenter",
                    "type": "address"
                },
                {
                    "internalType": "address",
                    "name": "generalKeeper",
                    "type": "address"
                }
            ],
            "name": "init",
            "outputs": [],
            "stateMutability": "nonpayable",
            "type": "function"
        },
        {
            "inputs": [],
            "name": "lockContents",
            "outputs": [],
            "stateMutability": "nonpayable",
            "type": "function"
        },
        {
            "inputs": [
                {
                    "internalType": "bytes32",
                    "name": "role",
                    "type": "bytes32"
                }
            ],
            "name": "renounceRole",
            "outputs": [],
            "stateMutability": "nonpayable",
            "type": "function"
        },
        {
            "inputs": [
                {
                    "internalType": "bytes32",
                    "name": "role",
                    "type": "bytes32"
                },
                {
                    "internalType": "uint256",
                    "name": "acct",
                    "type": "uint256"
                }
            ],
            "name": "revokeRole",
            "outputs": [],
            "stateMutability": "nonpayable",
            "type": "function"
        },
        {
            "inputs": [
                {
                    "internalType": "address",
                    "name": "keeper",
                    "type": "address"
                }
            ],
            "name": "setDirectKeeper",
            "outputs": [],
            "stateMutability": "nonpayable",
            "type": "function"
        },
        {
            "inputs": [
                {
                    "internalType": "uint256",
                    "name": "acct",
                    "type": "uint256"
                }
            ],
            "name": "setGeneralCounsel",
            "outputs": [],
            "stateMutability": "nonpayable",
            "type": "function"
        },
        {
            "inputs": [
                {
                    "internalType": "uint256",
                    "name": "acct",
                    "type": "uint256"
                }
            ],
            "name": "setOwner",
            "outputs": [],
            "stateMutability": "nonpayable",
            "type": "function"
        },
        {
            "inputs": [
                {
                    "internalType": "bytes32",
                    "name": "role",
                    "type": "bytes32"
                },
                {
                    "internalType": "uint256",
                    "name": "acct",
                    "type": "uint256"
                }
            ],
            "name": "setRoleAdmin",
            "outputs": [],
            "stateMutability": "nonpayable",
            "type": "function"
        },
        {
            "inputs": [
                {
                    "internalType": "uint256",
                    "name": "seqOfShare",
                    "type": "uint256"
                },
                {
                    "internalType": "uint256",
                    "name": "seqOfPledge",
                    "type": "uint256"
                },
                {
                    "internalType": "uint40",
                    "name": "creditor",
                    "type": "uint40"
                },
                {
                    "internalType": "uint48",
                    "name": "expireDate",
                    "type": "uint48"
                },
                {
                    "internalType": "uint64",
                    "name": "pledgedPaid",
                    "type": "uint64"
                },
                {
                    "internalType": "uint64",
                    "name": "pledgedPar",
                    "type": "uint64"
                },
                {
                    "internalType": "uint64",
                    "name": "guaranteedAmt",
                    "type": "uint64"
                },
                {
                    "internalType": "uint256",
                    "name": "caller",
                    "type": "uint256"
                }
            ],
            "name": "updatePledge",
            "outputs": [],
            "stateMutability": "nonpayable",
            "type": "function"
        }
    ],
    "bytecode": "608060405234801561001057600080fd5b50612194806100206000396000f3fe608060405234801561001057600080fd5b50600436106101165760003560e01c8063893d20e8116100a2578063b3f05b9711610071578063b3f05b9714610229578063b4341aae1461023d578063dc890da914610250578063ed21102314610263578063f045a7691461028357600080fd5b8063893d20e8146101e85780638a150285146101f05780638bb9c5bf14610203578063ad88b05b1461021657600080fd5b80634a14beb1116100e95780634a14beb1146101795780635171ebd41461018c5780636be8496f1461019f5780637e063c5a146101b25780638041494e146101d557600080fd5b8063103f6edd1461011b57806319d61ad91461013e5780631b6ea9f9146101535780633da9a60014610166575b600080fd5b61012361028b565b60405164ffffffffff90911681526020015b60405180910390f35b61015161014c366004611a43565b610317565b005b610151610161366004611a43565b6103ab565b610151610174366004611a65565b6103d0565b610151610187366004611a65565b6104eb565b61015161019a366004611a43565b6106db565b6101516101ad366004611a96565b610700565b6101c56101c0366004611a43565b6107b2565b6040519015158152602001610135565b6101516101e3366004611a65565b61084d565b610123610a32565b6101516101fe366004611aeb565b610a6d565b610151610211366004611a65565b610da1565b610151610224366004611b83565b610dfa565b60028054600160f01b900460ff16146101c5565b61015161024b366004611c11565b611193565b61015161025e366004611c3d565b61147d565b61026b611560565b6040516001600160a01b039091168152602001610135565b6101516115e6565b60405163e8c0cc1d60e01b81526002600482015260009073__$364aad554dc80380f414546becdd2c1584$__9063e8c0cc1d906024015b60206040518083038186803b1580156102da57600080fd5b505af41580156102ee573d6000803e3d6000fd5b505050506040513d601f19601f820116820180604052508101906103129190611ca0565b905090565b73__$364aad554dc80380f414546becdd2c1584$__6382daafaa60028461033c611804565b6040516001600160e01b031960e086901b1681526004810193909352602483019190915264ffffffffff166044820152606481018490526084015b60006040518083038186803b15801561038f57600080fd5b505af41580156103a3573d6000803e3d6000fd5b505050505050565b73__$364aad554dc80380f414546becdd2c1584$__636320d75e60028461033c611804565b604051633b11adbf60e21b81526002600482015233602482015273__$364aad554dc80380f414546becdd2c1584$__9063ec46b6fc9060440160206040518083038186803b15801561042157600080fd5b505af4158015610435573d6000803e3d6000fd5b505050506040513d601f19601f820116820180604052508101906104599190611cbd565b61047e5760405162461bcd60e51b815260040161047590611cdf565b60405180910390fd5b60405163cc99e11b60e01b8152600260048201526024810182905273__$364aad554dc80380f414546becdd2c1584$__9063cc99e11b9060440160006040518083038186803b1580156104d057600080fd5b505af41580156104e4573d6000803e3d6000fd5b5050505050565b604051633b11adbf60e21b81526002600482015233602482015273__$364aad554dc80380f414546becdd2c1584$__9063ec46b6fc9060440160206040518083038186803b15801561053c57600080fd5b505af4158015610550573d6000803e3d6000fd5b505050506040513d601f19601f820116820180604052508101906105749190611cbd565b80610619575073__$364aad554dc80380f414546becdd2c1584$__63fe271086600261059e611804565b6040516001600160e01b031960e085901b168152600481019290925264ffffffffff16602482015260440160206040518083038186803b1580156105e157600080fd5b505af41580156105f5573d6000803e3d6000fd5b505050506040513d601f19601f820116820180604052508101906106199190611cbd565b6106355760405162461bcd60e51b815260040161047590611d25565b604051632725ebef60e21b8152600260048201526024810182905273__$364aad554dc80380f414546becdd2c1584$__90639c97afbc9060440160006040518083038186803b15801561068757600080fd5b505af415801561069b573d6000803e3d6000fd5b505050507ff2735f34b69be1e6342dea95f9162f84d0db925fab655ca9f1f312ac8cbfc99d816040516106d091815260200190565b60405180910390a150565b73__$364aad554dc80380f414546becdd2c1584$__63ee98b31360028461033c611804565b604051630f07232560e01b8152600260048201523360248201526001600160a01b038216604482015273__$364aad554dc80380f414546becdd2c1584$__90630f0723259060640160006040518083038186803b15801561076057600080fd5b505af4158015610774573d6000803e3d6000fd5b50506040516001600160a01b03841681527fe435cbeab64e4eae6497b9d8289704bd709d624a80704ef3ca9af777534bc6ec925060200190506106d0565b604051632a3be56b60e21b815260026004820152602481018390526044810182905260009073__$364aad554dc80380f414546becdd2c1584$__9063a8ef95ac9060640160206040518083038186803b15801561080e57600080fd5b505af4158015610822573d6000803e3d6000fd5b505050506040513d601f19601f820116820180604052508101906108469190611cbd565b9392505050565b604051633b11adbf60e21b81526002600482015233602482015273__$364aad554dc80380f414546becdd2c1584$__9063ec46b6fc9060440160206040518083038186803b15801561089e57600080fd5b505af41580156108b2573d6000803e3d6000fd5b505050506040513d601f19601f820116820180604052508101906108d69190611cbd565b8061097b575073__$364aad554dc80380f414546becdd2c1584$__63fe2710866002610900611804565b6040516001600160e01b031960e085901b168152600481019290925264ffffffffff16602482015260440160206040518083038186803b15801561094357600080fd5b505af4158015610957573d6000803e3d6000fd5b505050506040513d601f19601f8201168201806040525081019061097b9190611cbd565b6109975760405162461bcd60e51b815260040161047590611d25565b60405163b6e38a2960e01b8152600260048201526024810182905273__$364aad554dc80380f414546becdd2c1584$__9063b6e38a299060440160006040518083038186803b1580156109e957600080fd5b505af41580156109fd573d6000803e3d6000fd5b505050507f8b6f40f36b4ae8cc5f55e895036457c43da4ab1f80f58c46f5ff0d72a650033b816040516106d091815260200190565b60405163987ad15360e01b81526002600482015260009073__$364aad554dc80380f414546becdd2c1584$__9063987ad153906024016102c2565b604051633b11adbf60e21b81526002600482015233602482015273__$364aad554dc80380f414546becdd2c1584$__9063ec46b6fc9060440160206040518083038186803b158015610abe57600080fd5b505af4158015610ad2573d6000803e3d6000fd5b505050506040513d601f19601f82011682018060405250810190610af69190611cbd565b610b125760405162461bcd60e51b815260040161047590611cdf565b604051633aa65cdf60e21b81526004810188905260009073__$d113c86820c60155271829fbf7bae741f8$__9063ea99737c9060240160c06040518083038186803b158015610b6057600080fd5b505af4158015610b74573d6000803e3d6000fd5b505050506040513d601f19601f82011682018060405250810190610b989190611ee9565b90506000610ba461185e565b82516040516319f6b4bf60e31b815263ffffffff90911660048201529091506000906001600160a01b0383169063cfb5a5f8906024016101806040518083038186803b158015610bf357600080fd5b505afa158015610c07573d6000803e3d6000fd5b505050506040513d601f19601f82011682018060405250810190610c2b9190611f7e565b805160a0015190915064ffffffffff168414610c895760405162461bcd60e51b815260206004820152601860248201527f424f504b2e43503a204e4f54207368617265686f6c64657200000000000000006044820152606401610475565b83836080015164ffffffffff1614610cda5760405162461bcd60e51b81526020600482015260146024820152732127a8259721a81d102727aa10383632b233b7b960611b6044820152606401610475565b610ce26118c2565b6040516377f67c4560e11b8152600481018c905264ffffffffff8b16602482015261ffff8a1660448201526001600160401b03808a1660648301528089166084830152871660a48201526001600160a01b03919091169063efecf88a9060c40160c060405180830381600087803b158015610d5c57600080fd5b505af1158015610d70573d6000803e3d6000fd5b505050506040513d601f19601f82011682018060405250810190610d949190611ee9565b5050505050505050505050565b6000610dab611804565b60405163cc0d511b60e01b8152600260048201526024810184905264ffffffffff8216604482015290915073__$364aad554dc80380f414546becdd2c1584$__9063cc0d511b90606401610377565b604051633b11adbf60e21b81526002600482015233602482015273__$364aad554dc80380f414546becdd2c1584$__9063ec46b6fc9060440160206040518083038186803b158015610e4b57600080fd5b505af4158015610e5f573d6000803e3d6000fd5b505050506040513d601f19601f82011682018060405250810190610e839190611cbd565b610e9f5760405162461bcd60e51b815260040161047590611cdf565b6001600160401b038416610ef55760405162461bcd60e51b815260206004820152601960248201527f424f504b2e55503a205a45524f20706c656467656450616964000000000000006044820152606401610475565b6000610eff6118c2565b60405163f671e82160e01b8152600481018b9052602481018a90526001600160a01b03919091169063f671e821906044016101406040518083038186803b158015610f4957600080fd5b505afa158015610f5d573d6000803e3d6000fd5b505050506040513d601f19601f82011682018060405250810190610f819190612055565b90508060200151602001516001600160401b0316856001600160401b03161080610fc457508060200151604001516001600160401b0316846001600160401b0316105b80610fe6575080600001516060015165ffffffffffff168665ffffffffffff16105b80611000575060208101515164ffffffffff888116911614155b1561105d5760208101515164ffffffffff1682146110585760405162461bcd60e51b81526020600482015260156024820152742127a825972aa81d102727aa1031b932b234ba37b960591b6044820152606401610475565b611117565b8060200151602001516001600160401b0316856001600160401b0316118061109e57508060200151604001516001600160401b0316846001600160401b0316115b806110c0575080600001516060015165ffffffffffff168665ffffffffffff16115b156111175780516080015164ffffffffff1682146111175760405162461bcd60e51b81526020600482015260146024820152732127a825972aa81d102727aa10383632b233b7b960611b6044820152606401610475565b61111f6118c2565b6001600160a01b031663a15bb5758a8a8a8a8a8a8a6040518863ffffffff1660e01b815260040161115697969594939291906120f3565b600060405180830381600087803b15801561117057600080fd5b505af1158015611184573d6000803e3d6000fd5b50505050505050505050505050565b604051633b11adbf60e21b81526002600482015233602482015273__$364aad554dc80380f414546becdd2c1584$__9063ec46b6fc9060440160206040518083038186803b1580156111e457600080fd5b505af41580156111f8573d6000803e3d6000fd5b505050506040513d601f19601f8201168201806040525081019061121c9190611cbd565b6112385760405162461bcd60e51b815260040161047590611cdf565b60006112426118c2565b60405163f671e82160e01b815260048101869052602481018590526001600160a01b03919091169063f671e821906044016101406040518083038186803b15801561128c57600080fd5b505afa1580156112a0573d6000803e3d6000fd5b505050506040513d601f19601f820116820180604052508101906112c49190612055565b80516060015190915065ffffffffffff1642101561132b5760208101515164ffffffffff1682146113265760405162461bcd60e51b815260206004820152600c60248201526b2727aa1031b932b234ba37b960a11b6044820152606401610475565b611374565b80516080015164ffffffffff1682146113745760405162461bcd60e51b815260206004820152600b60248201526a2727aa10283632b233b7b960a91b6044820152606401610475565b61137c61185e565b602080830151908101516040918201519151631ba9b20960e21b8152600481018890526001600160401b039182166024820152911660448201526001600160a01b039190911690636ea6c82490606401600060405180830381600087803b1580156113e657600080fd5b505af11580156113fa573d6000803e3d6000fd5b505050506114066118c2565b60208201515160405163a15bb57560e01b81526001600160a01b03929092169163a15bb5759161144591889188916000908190819081906004016120f3565b600060405180830381600087803b15801561145f57600080fd5b505af1158015611473573d6000803e3d6000fd5b5050505050505050565b611486826118dd565b61148f8161198c565b604051636cdd0edf60e11b815260026004820152602481018590526001600160a01b038416604482015273__$364aad554dc80380f414546becdd2c1584$__9063d9ba1dbe9060640160006040518083038186803b1580156114f057600080fd5b505af4158015611504573d6000803e3d6000fd5b5050604080518781526001600160a01b038781166020830152868116828401528516606082015290517f3abb2418c66fe32ba9c883030a75ce583971d9af9192b9b74e44e67c5e6c8c1f9350908190036080019150a150505050565b604051633c3e56c160e11b81526002600482015260009073__$364aad554dc80380f414546becdd2c1584$__9063787cad829060240160206040518083038186803b1580156115ae57600080fd5b505af41580156115c2573d6000803e3d6000fd5b505050506040513d601f19601f820116820180604052508101906103129190612141565b604051633b11adbf60e21b81526002600482015233602482015273__$364aad554dc80380f414546becdd2c1584$__9063ec46b6fc9060440160206040518083038186803b15801561163757600080fd5b505af415801561164b573d6000803e3d6000fd5b505050506040513d601f19601f8201168201806040525081019061166f9190611cbd565b61168b5760405162461bcd60e51b815260040161047590611cdf565b600254600160f01b900460ff166001146116e75760405162461bcd60e51b815260206004820181905260248201527f41432e6f6e6c7950656e64696e673a20446f632069732066696e616c697a65646044820152606401610475565b60405163cc99e11b60e01b815260026004820152684174746f726e65797360b81b602482015273__$364aad554dc80380f414546becdd2c1584$__9063cc99e11b9060440160006040518083038186803b15801561174457600080fd5b505af4158015611758573d6000803e3d6000fd5b5050604051632725ebef60e21b8152600260048201526000602482015273__$364aad554dc80380f414546becdd2c1584$__9250639c97afbc915060440160006040518083038186803b1580156117ae57600080fd5b505af41580156117c2573d6000803e3d6000fd5b50506002805460ff60f01b1916600160f11b17905550506040517f35012b512309c322acf68632cd6cb702ff0e1d776fbe9394e38ffc13b434fe7590600090a1565b60008054604051634de835e760e11b81523360048201526001600160a01b0390911690639bd06bce90602401602060405180830381600087803b15801561184a57600080fd5b505af11580156102ee573d6000803e3d6000fd5b6001546000906001600160a01b031663e0ff5b8b60065b6040516001600160e01b031960e084901b16815260ff909116600482015260240160206040518083038186803b1580156118ae57600080fd5b505afa1580156115c2573d6000803e3d6000fd5b6001546000906001600160a01b031663e0ff5b8b6005611875565b6000546001600160a01b03161561192e5760405162461bcd60e51b815260206004820152601560248201527430b63932b0b23c9039b2ba103932b3a1b2b73a32b960591b6044820152606401610475565b6040516001600160a01b03821681527f318da6c7624c71cbc0afe346c9d8827f119d0ecefb241a7b0c87217a076a8e029060200160405180910390a1600080546001600160a01b0319166001600160a01b0392909216919091179055565b6001546001600160a01b0316156119e55760405162461bcd60e51b815260206004820152601960248201527f616c7265616479207365742067656e6572616c4b6565706572000000000000006044820152606401610475565b6040516001600160a01b03821681527fe513d3e0f0d0a3877029dcc588748679a7a3450ec1ec7ed56d96bd012c3e61aa9060200160405180910390a1600180546001600160a01b0319166001600160a01b0392909216919091179055565b60008060408385031215611a5657600080fd5b50508035926020909101359150565b600060208284031215611a7757600080fd5b5035919050565b6001600160a01b0381168114611a9357600080fd5b50565b600060208284031215611aa857600080fd5b813561084681611a7e565b64ffffffffff81168114611a9357600080fd5b61ffff81168114611a9357600080fd5b6001600160401b0381168114611a9357600080fd5b600080600080600080600060e0888a031215611b0657600080fd5b873596506020880135611b1881611ab3565b95506040880135611b2881611ac6565b94506060880135611b3881611ad6565b93506080880135611b4881611ad6565b925060a0880135611b5881611ad6565b8092505060c0880135905092959891949750929550565b65ffffffffffff81168114611a9357600080fd5b600080600080600080600080610100898b031215611ba057600080fd5b88359750602089013596506040890135611bb981611ab3565b95506060890135611bc981611b6f565b94506080890135611bd981611ad6565b935060a0890135611be981611ad6565b925060c0890135611bf981611ad6565b8092505060e089013590509295985092959890939650565b600080600060608486031215611c2657600080fd5b505081359360208301359350604090920135919050565b60008060008060808587031215611c5357600080fd5b843593506020850135611c6581611a7e565b92506040850135611c7581611a7e565b91506060850135611c8581611a7e565b939692955090935050565b8051611c9b81611ab3565b919050565b600060208284031215611cb257600080fd5b815161084681611ab3565b600060208284031215611ccf57600080fd5b8151801515811461084657600080fd5b60208082526026908201527f41432e6f6e6c794469726563744b65657065723a206e6f74206469726563742060408201526535b2b2b832b960d11b606082015260800190565b60208082526036908201527f41432e6f776e65724f72446972656374426f6f6b65657065723a206e6569746860408201527532b91037bbb732b9103737b9103137b7b5b2b2b832b960511b606082015260800190565b604051608081016001600160401b0381118282101715611dab57634e487b7160e01b600052604160045260246000fd5b60405290565b604080519081016001600160401b0381118282101715611dab57634e487b7160e01b600052604160045260246000fd5b60405161010081016001600160401b0381118282101715611dab57634e487b7160e01b600052604160045260246000fd5b805163ffffffff81168114611c9b57600080fd5b8051611c9b81611b6f565b600060c08284031215611e4357600080fd5b60405160c081018181106001600160401b0382111715611e7357634e487b7160e01b600052604160045260246000fd5b604052905080611e8283611e12565b8152611e9060208401611e12565b60208201526040830151611ea381611b6f565b60408201526060830151611eb681611b6f565b60608201526080830151611ec981611ab3565b608082015260a0830151611edc81611ab3565b60a0919091015292915050565b600060c08284031215611efb57600080fd5b6108468383611e31565b805160ff81168114611c9b57600080fd5b600060808284031215611f2857600080fd5b611f30611d7b565b90508151611f3d81611ad6565b81526020820151611f4d81611ad6565b60208201526040820151611f6081611ad6565b60408201526060820151611f7381611ad6565b606082015292915050565b6000818303610180811215611f9257600080fd5b611f9a611db1565b61010080831215611faa57600080fd5b611fb2611de1565b9250611fbd85611e12565b8352611fcb60208601611e12565b60208401526040850151611fde81611ac6565b6040840152611fef60608601611e26565b606084015261200060808601611e26565b608084015261201160a08601611c90565b60a084015261202260c08601611e12565b60c084015261203360e08601611f05565b60e084015282825261204786828701611f16565b602083015250949350505050565b600081830361014081121561206957600080fd5b612071611db1565b61207b8585611e31565b8152608060bf198301121561208f57600080fd5b612097611d7b565b915060c08401516120a781611ab3565b825260e08401516120b781611ad6565b60208301526101008401516120cb81611ad6565b60408301526101208401516120df81611ad6565b606083015260208101919091529392505050565b968752602087019590955264ffffffffff93909316604086015265ffffffffffff9190911660608501526001600160401b03908116608085015290811660a08401521660c082015260e00190565b60006020828403121561215357600080fd5b815161084681611a7e56fea2646970667358221220365302849ffaaa40e12bb9c771efb065ca4b8e0c862339ce2ac255875b08aa8c64736f6c63430008080033",
    "sourcePath": "/Users/kaptain/github.com/hardhat/comboox/contracts/keepers/BOPKeeper.sol",
    "compiler": {
        "name": "solc",
        "version": "0.8.8+commit.dddeac2f"
    },
    "functionHashes": {
        "abandonRole(bytes32)": "3da9a600",
        "createPledge(uint256,uint40,uint16,uint64,uint64,uint64,uint256)": "8a150285",
        "delPledge(uint256,uint256,uint256)": "b4341aae",
        "finalized()": "b3f05b97",
        "getBookeeper()": "ed211023",
        "getGeneralCounsel()": "103f6edd",
        "getOwner()": "893d20e8",
        "grantRole(bytes32,uint256)": "1b6ea9f9",
        "hasRole(bytes32,uint256)": "7e063c5a",
        "init(uint256,address,address,address)": "dc890da9",
        "lockContents()": "f045a769",
        "renounceRole(bytes32)": "8bb9c5bf",
        "revokeRole(bytes32,uint256)": "19d61ad9",
        "setDirectKeeper(address)": "6be8496f",
        "setGeneralCounsel(uint256)": "4a14beb1",
        "setOwner(uint256)": "8041494e",
        "setRoleAdmin(bytes32,uint256)": "5171ebd4",
        "updatePledge(uint256,uint256,uint40,uint48,uint64,uint64,uint64,uint256)": "ad88b05b"
    },
    "gasEstimates": {
        "creation": {
            "codeDepositCost": "1719200",
            "executionCost": "1806",
            "totalCost": "1721006"
        },
        "external": {
            "abandonRole(bytes32)": "infinite",
            "createPledge(uint256,uint40,uint16,uint64,uint64,uint64,uint256)": "infinite",
            "delPledge(uint256,uint256,uint256)": "infinite",
            "finalized()": "2349",
            "getBookeeper()": "infinite",
            "getGeneralCounsel()": "infinite",
            "getOwner()": "infinite",
            "grantRole(bytes32,uint256)": "infinite",
            "hasRole(bytes32,uint256)": "infinite",
            "init(uint256,address,address,address)": "infinite",
            "lockContents()": "infinite",
            "renounceRole(bytes32)": "infinite",
            "revokeRole(bytes32,uint256)": "infinite",
            "setDirectKeeper(address)": "infinite",
            "setGeneralCounsel(uint256)": "infinite",
            "setOwner(uint256)": "infinite",
            "setRoleAdmin(bytes32,uint256)": "infinite",
            "updatePledge(uint256,uint256,uint40,uint48,uint64,uint64,uint64,uint256)": "infinite"
        }
    }
}