{
    "contractName": "BOPKeeper",
    "abi": [
        {
            "anonymous": false,
            "inputs": [
                {
                    "indexed": true,
                    "internalType": "uint256",
                    "name": "owner",
                    "type": "uint256"
                },
                {
                    "indexed": true,
                    "internalType": "address",
                    "name": "directKeeper",
                    "type": "address"
                },
                {
                    "indexed": false,
                    "internalType": "address",
                    "name": "regCenter",
                    "type": "address"
                },
                {
                    "indexed": true,
                    "internalType": "address",
                    "name": "generalKeeper",
                    "type": "address"
                }
            ],
            "name": "Init",
            "type": "event"
        },
        {
            "anonymous": false,
            "inputs": [],
            "name": "LockContents",
            "type": "event"
        },
        {
            "anonymous": false,
            "inputs": [
                {
                    "indexed": true,
                    "internalType": "address",
                    "name": "target",
                    "type": "address"
                }
            ],
            "name": "RemoveDirectKeeper",
            "type": "event"
        },
        {
            "anonymous": false,
            "inputs": [
                {
                    "indexed": true,
                    "internalType": "address",
                    "name": "keeper",
                    "type": "address"
                }
            ],
            "name": "SetDirectKeeper",
            "type": "event"
        },
        {
            "anonymous": false,
            "inputs": [
                {
                    "indexed": true,
                    "internalType": "uint256",
                    "name": "acct",
                    "type": "uint256"
                }
            ],
            "name": "SetGeneralCounsel",
            "type": "event"
        },
        {
            "anonymous": false,
            "inputs": [
                {
                    "indexed": true,
                    "internalType": "uint256",
                    "name": "acct",
                    "type": "uint256"
                }
            ],
            "name": "SetOwner",
            "type": "event"
        },
        {
            "inputs": [
                {
                    "internalType": "bytes32",
                    "name": "role",
                    "type": "bytes32"
                }
            ],
            "name": "abandonRole",
            "outputs": [],
            "stateMutability": "nonpayable",
            "type": "function"
        },
        {
            "inputs": [
                {
                    "internalType": "bytes32",
                    "name": "snOfPld",
                    "type": "bytes32"
                },
                {
                    "internalType": "uint256",
                    "name": "paid",
                    "type": "uint256"
                },
                {
                    "internalType": "uint256",
                    "name": "par",
                    "type": "uint256"
                },
                {
                    "internalType": "uint256",
                    "name": "guaranteedAmt",
                    "type": "uint256"
                },
                {
                    "internalType": "uint256",
                    "name": "caller",
                    "type": "uint256"
                }
            ],
            "name": "createPledge",
            "outputs": [],
            "stateMutability": "nonpayable",
            "type": "function"
        },
        {
            "inputs": [
                {
                    "internalType": "bytes32",
                    "name": "snOfDeal",
                    "type": "bytes32"
                },
                {
                    "internalType": "uint256",
                    "name": "seqOfPld",
                    "type": "uint256"
                },
                {
                    "internalType": "uint256",
                    "name": "version",
                    "type": "uint256"
                },
                {
                    "internalType": "address",
                    "name": "primeKeyOfCaller",
                    "type": "address"
                },
                {
                    "internalType": "uint256",
                    "name": "buyer",
                    "type": "uint256"
                },
                {
                    "internalType": "uint256",
                    "name": "groupOfBuyer",
                    "type": "uint256"
                },
                {
                    "internalType": "uint256",
                    "name": "caller",
                    "type": "uint256"
                }
            ],
            "name": "execPledge",
            "outputs": [],
            "stateMutability": "nonpayable",
            "type": "function"
        },
        {
            "inputs": [
                {
                    "internalType": "uint256",
                    "name": "seqOfShare",
                    "type": "uint256"
                },
                {
                    "internalType": "uint256",
                    "name": "seqOfPld",
                    "type": "uint256"
                },
                {
                    "internalType": "uint256",
                    "name": "extDays",
                    "type": "uint256"
                },
                {
                    "internalType": "uint256",
                    "name": "caller",
                    "type": "uint256"
                }
            ],
            "name": "extendPledge",
            "outputs": [],
            "stateMutability": "nonpayable",
            "type": "function"
        },
        {
            "inputs": [],
            "name": "finalized",
            "outputs": [
                {
                    "internalType": "bool",
                    "name": "",
                    "type": "bool"
                }
            ],
            "stateMutability": "view",
            "type": "function"
        },
        {
            "inputs": [],
            "name": "getBookeeper",
            "outputs": [
                {
                    "internalType": "address",
                    "name": "",
                    "type": "address"
                }
            ],
            "stateMutability": "view",
            "type": "function"
        },
        {
            "inputs": [],
            "name": "getGeneralCounsel",
            "outputs": [
                {
                    "internalType": "uint40",
                    "name": "",
                    "type": "uint40"
                }
            ],
            "stateMutability": "view",
            "type": "function"
        },
        {
            "inputs": [],
            "name": "getOwner",
            "outputs": [
                {
                    "internalType": "uint40",
                    "name": "",
                    "type": "uint40"
                }
            ],
            "stateMutability": "view",
            "type": "function"
        },
        {
            "inputs": [
                {
                    "internalType": "bytes32",
                    "name": "role",
                    "type": "bytes32"
                },
                {
                    "internalType": "uint256",
                    "name": "acct",
                    "type": "uint256"
                }
            ],
            "name": "grantRole",
            "outputs": [],
            "stateMutability": "nonpayable",
            "type": "function"
        },
        {
            "inputs": [
                {
                    "internalType": "bytes32",
                    "name": "role",
                    "type": "bytes32"
                },
                {
                    "internalType": "uint256",
                    "name": "acct",
                    "type": "uint256"
                }
            ],
            "name": "hasRole",
            "outputs": [
                {
                    "internalType": "bool",
                    "name": "",
                    "type": "bool"
                }
            ],
            "stateMutability": "view",
            "type": "function"
        },
        {
            "inputs": [
                {
                    "internalType": "uint256",
                    "name": "owner",
                    "type": "uint256"
                },
                {
                    "internalType": "address",
                    "name": "directKeeper",
                    "type": "address"
                },
                {
                    "internalType": "address",
                    "name": "regCenter",
                    "type": "address"
                },
                {
                    "internalType": "address",
                    "name": "generalKeeper",
                    "type": "address"
                }
            ],
            "name": "init",
            "outputs": [],
            "stateMutability": "nonpayable",
            "type": "function"
        },
        {
            "inputs": [],
            "name": "lockContents",
            "outputs": [],
            "stateMutability": "nonpayable",
            "type": "function"
        },
        {
            "inputs": [
                {
                    "internalType": "uint256",
                    "name": "seqOfShare",
                    "type": "uint256"
                },
                {
                    "internalType": "uint256",
                    "name": "seqOfPld",
                    "type": "uint256"
                },
                {
                    "internalType": "bytes32",
                    "name": "hashLock",
                    "type": "bytes32"
                },
                {
                    "internalType": "uint256",
                    "name": "caller",
                    "type": "uint256"
                }
            ],
            "name": "lockPledge",
            "outputs": [],
            "stateMutability": "nonpayable",
            "type": "function"
        },
        {
            "inputs": [
                {
                    "internalType": "uint256",
                    "name": "seqOfShare",
                    "type": "uint256"
                },
                {
                    "internalType": "uint256",
                    "name": "seqOfPld",
                    "type": "uint256"
                },
                {
                    "internalType": "uint256",
                    "name": "amt",
                    "type": "uint256"
                },
                {
                    "internalType": "uint256",
                    "name": "caller",
                    "type": "uint256"
                }
            ],
            "name": "refundDebt",
            "outputs": [],
            "stateMutability": "nonpayable",
            "type": "function"
        },
        {
            "inputs": [
                {
                    "internalType": "uint256",
                    "name": "seqOfShare",
                    "type": "uint256"
                },
                {
                    "internalType": "uint256",
                    "name": "seqOfPld",
                    "type": "uint256"
                },
                {
                    "internalType": "string",
                    "name": "hashKey",
                    "type": "string"
                }
            ],
            "name": "releasePledge",
            "outputs": [],
            "stateMutability": "nonpayable",
            "type": "function"
        },
        {
            "inputs": [
                {
                    "internalType": "address",
                    "name": "target",
                    "type": "address"
                }
            ],
            "name": "removeDirectKeeper",
            "outputs": [],
            "stateMutability": "nonpayable",
            "type": "function"
        },
        {
            "inputs": [
                {
                    "internalType": "bytes32",
                    "name": "role",
                    "type": "bytes32"
                }
            ],
            "name": "renounceRole",
            "outputs": [],
            "stateMutability": "nonpayable",
            "type": "function"
        },
        {
            "inputs": [
                {
                    "internalType": "uint256",
                    "name": "seqOfShare",
                    "type": "uint256"
                },
                {
                    "internalType": "uint256",
                    "name": "seqOfPld",
                    "type": "uint256"
                },
                {
                    "internalType": "uint256",
                    "name": "caller",
                    "type": "uint256"
                }
            ],
            "name": "revokePledge",
            "outputs": [],
            "stateMutability": "nonpayable",
            "type": "function"
        },
        {
            "inputs": [
                {
                    "internalType": "bytes32",
                    "name": "role",
                    "type": "bytes32"
                },
                {
                    "internalType": "uint256",
                    "name": "acct",
                    "type": "uint256"
                }
            ],
            "name": "revokeRole",
            "outputs": [],
            "stateMutability": "nonpayable",
            "type": "function"
        },
        {
            "inputs": [
                {
                    "internalType": "address",
                    "name": "keeper",
                    "type": "address"
                }
            ],
            "name": "setDirectKeeper",
            "outputs": [],
            "stateMutability": "nonpayable",
            "type": "function"
        },
        {
            "inputs": [
                {
                    "internalType": "uint256",
                    "name": "acct",
                    "type": "uint256"
                }
            ],
            "name": "setGeneralCounsel",
            "outputs": [],
            "stateMutability": "nonpayable",
            "type": "function"
        },
        {
            "inputs": [
                {
                    "internalType": "uint256",
                    "name": "acct",
                    "type": "uint256"
                }
            ],
            "name": "setOwner",
            "outputs": [],
            "stateMutability": "nonpayable",
            "type": "function"
        },
        {
            "inputs": [
                {
                    "internalType": "bytes32",
                    "name": "role",
                    "type": "bytes32"
                },
                {
                    "internalType": "uint256",
                    "name": "acct",
                    "type": "uint256"
                }
            ],
            "name": "setRoleAdmin",
            "outputs": [],
            "stateMutability": "nonpayable",
            "type": "function"
        },
        {
            "inputs": [
                {
                    "internalType": "uint256",
                    "name": "seqOfShare",
                    "type": "uint256"
                },
                {
                    "internalType": "uint256",
                    "name": "seqOfPld",
                    "type": "uint256"
                },
                {
                    "internalType": "uint256",
                    "name": "buyer",
                    "type": "uint256"
                },
                {
                    "internalType": "uint256",
                    "name": "amt",
                    "type": "uint256"
                },
                {
                    "internalType": "uint256",
                    "name": "caller",
                    "type": "uint256"
                }
            ],
            "name": "transferPledge",
            "outputs": [],
            "stateMutability": "nonpayable",
            "type": "function"
        }
    ],
    "bytecode": "608060405234801561001057600080fd5b506140cc806100206000396000f3fe608060405234801561001057600080fd5b50600436106101585760003560e01c80636be8496f116100c35780638bb9c5bf1161007c5780638bb9c5bf146102ca578063b3f05b97146102dd578063ca6de9ac146102f1578063dc890da914610304578063ed21102314610317578063f045a7691461033757600080fd5b80636be8496f1461025357806372b5e711146102665780637632be02146102795780637e063c5a1461028c5780638041494e146102af578063893d20e8146102c257600080fd5b8063417dea2511610115578063417dea25146101e15780634a14beb1146101f457806350235307146102075780635171ebd41461021a5780635551fc481461022d5780635d7ad88f1461024057600080fd5b8063103f6edd1461015d57806319d61ad9146101805780631b6ea9f9146101955780633067033d146101a857806336dfcf94146101bb5780633da9a600146101ce575b600080fd5b61016561033f565b60405164ffffffffff90911681526020015b60405180910390f35b61019361018e366004612fd8565b6103cb565b005b6101936101a3366004612fd8565b61045d565b6101936101b6366004612ffa565b610483565b6101936101c936600461302c565b61062f565b6101936101dc366004613067565b610ada565b6101936101ef366004612ffa565b610b65565b610193610202366004613067565b610cd4565b61019361021536600461319b565b610f29565b610193610228366004612fd8565b611192565b61019361023b36600461302c565b6111b8565b61019361024e36600461325a565b61137c565b61019361026136600461325a565b6114b1565b610193610274366004613277565b611560565b6101936102873660046132a3565b611914565b61029f61029a366004612fd8565b611e03565b6040519015158152602001610177565b6101936102bd366004613067565b611e9e565b610165611f54565b6101936102d8366004613067565b611f8f565b60028054600160f01b900460ff161461029f565b6101936102ff366004612ffa565b611fb4565b6101936103123660046132ff565b612269565b61031f612341565b6040516001600160a01b039091168152602001610177565b6101936123c7565b60405163e8c0cc1d60e01b81526002600482015260009073__$a374c895e6fa8c448878668e00d93ef99a$__9063e8c0cc1d906024015b60206040518083038186803b15801561038e57600080fd5b505af41580156103a2573d6000803e3d6000fd5b505050506040513d601f19601f820116820180604052508101906103c6919061336c565b905090565b73__$a374c895e6fa8c448878668e00d93ef99a$__6382daafaa600284846103f1612611565b6040516001600160e01b031960e087901b16815260048101949094526024840192909252604483015264ffffffffff16606482015260840160006040518083038186803b15801561044157600080fd5b505af4158015610455573d6000803e3d6000fd5b505050505050565b73__$a374c895e6fa8c448878668e00d93ef99a$__636320d75e600284846103f1612611565b604051633b11adbf60e21b81526002600482015233602482015273__$a374c895e6fa8c448878668e00d93ef99a$__9063ec46b6fc9060440160206040518083038186803b1580156104d457600080fd5b505af41580156104e8573d6000803e3d6000fd5b505050506040513d601f19601f8201168201806040525081019061050c9190613397565b6105315760405162461bcd60e51b8152600401610528906133b2565b60405180910390fd5b600160009054906101000a90046001600160a01b03166001600160a01b03166320fbea4e6040518163ffffffff1660e01b815260040160206040518083038186803b15801561057f57600080fd5b505afa158015610593573d6000803e3d6000fd5b505050506040513d601f19601f820116820180604052508101906105b791906133f8565b604051633067033d60e01b8152600481018690526024810185905260448101849052606481018390526001600160a01b039190911690633067033d906084015b600060405180830381600087803b15801561061157600080fd5b505af1158015610625573d6000803e3d6000fd5b5050505050505050565b604051633b11adbf60e21b81526002600482015233602482015273__$a374c895e6fa8c448878668e00d93ef99a$__9063ec46b6fc9060440160206040518083038186803b15801561068057600080fd5b505af4158015610694573d6000803e3d6000fd5b505050506040513d601f19601f820116820180604052508101906106b89190613397565b6106d45760405162461bcd60e51b8152600401610528906133b2565b604051637dfd694760e11b81526004810186905260009073__$1fc3c1242eb97c1a973a3d89a72820680f$__9063fbfad28e906024016101206040518083038186803b15801561072357600080fd5b505af4158015610737573d6000803e3d6000fd5b505050506040513d601f19601f8201168201806040525081019061075b9190613519565b9050600160009054906101000a90046001600160a01b03166001600160a01b031663f01e100f6040518163ffffffff1660e01b815260040160206040518083038186803b1580156107ab57600080fd5b505afa1580156107bf573d6000803e3d6000fd5b505050506040513d601f19601f820116820180604052508101906107e391906133f8565b81516040516319f6b4bf60e31b815263ffffffff90911660048201526001600160a01b03919091169063cfb5a5f8906024016101e06040518083038186803b15801561082e57600080fd5b505afa158015610842573d6000803e3d6000fd5b505050506040513d601f19601f8201168201806040525081019061086691906135ee565b516080015164ffffffffff1660e0820181905282146108c75760405162461bcd60e51b815260206004820152601f60248201527f424f504b2e637265617465506c643a204e4f54207368617265686f6c646572006044820152606401610528565b600160009054906101000a90046001600160a01b03166001600160a01b03166320fbea4e6040518163ffffffff1660e01b815260040160206040518083038186803b15801561091557600080fd5b505afa158015610929573d6000803e3d6000fd5b505050506040513d601f19601f8201168201806040525081019061094d91906133f8565b604051630c59e9a760e01b8152600481018890526024810187905260448101869052606481018590526001600160a01b039190911690630c59e9a79060840161012060405180830381600087803b1580156109a757600080fd5b505af11580156109bb573d6000803e3d6000fd5b505050506040513d601f19601f820116820180604052508101906109df9190613519565b9050600160009054906101000a90046001600160a01b03166001600160a01b031663f01e100f6040518163ffffffff1660e01b815260040160206040518083038186803b158015610a2f57600080fd5b505afa158015610a43573d6000803e3d6000fd5b505050506040513d601f19601f82011682018060405250810190610a6791906133f8565b81516040516360d095df60e01b815263ffffffff9091166004820152602481018790526001600160a01b0391909116906360d095df90604401600060405180830381600087803b158015610aba57600080fd5b505af1158015610ace573d6000803e3d6000fd5b50505050505050505050565b73__$a374c895e6fa8c448878668e00d93ef99a$__63c51b295f600283610aff612611565b6040516001600160e01b031960e086901b1681526004810193909352602483019190915264ffffffffff16604482015260640160006040518083038186803b158015610b4a57600080fd5b505af4158015610b5e573d6000803e3d6000fd5b5050505050565b604051633b11adbf60e21b81526002600482015233602482015273__$a374c895e6fa8c448878668e00d93ef99a$__9063ec46b6fc9060440160206040518083038186803b158015610bb657600080fd5b505af4158015610bca573d6000803e3d6000fd5b505050506040513d601f19601f82011682018060405250810190610bee9190613397565b610c0a5760405162461bcd60e51b8152600401610528906133b2565b600160009054906101000a90046001600160a01b03166001600160a01b03166320fbea4e6040518163ffffffff1660e01b815260040160206040518083038186803b158015610c5857600080fd5b505afa158015610c6c573d6000803e3d6000fd5b505050506040513d601f19601f82011682018060405250810190610c9091906133f8565b60405163417dea2560e01b8152600481018690526024810185905260448101849052606481018390526001600160a01b03919091169063417dea25906084016105f7565b604051633b11adbf60e21b81526002600482015233602482015273__$a374c895e6fa8c448878668e00d93ef99a$__9063ec46b6fc9060440160206040518083038186803b158015610d2557600080fd5b505af4158015610d39573d6000803e3d6000fd5b505050506040513d601f19601f82011682018060405250810190610d5d9190613397565b80610e02575073__$a374c895e6fa8c448878668e00d93ef99a$__63fe2710866002610d87612611565b6040516001600160e01b031960e085901b168152600481019290925264ffffffffff16602482015260440160206040518083038186803b158015610dca57600080fd5b505af4158015610dde573d6000803e3d6000fd5b505050506040513d601f19601f82011682018060405250810190610e029190613397565b610e6d5760405162461bcd60e51b815260206004820152603660248201527f41432e6f776e65724f72446972656374426f6f6b65657065723a206e6569746860448201527532b91037bbb732b9103737b9103137b7b5b2b2b832b960511b6064820152608401610528565b73__$a374c895e6fa8c448878668e00d93ef99a$__6313a187d2600283610e92612611565b6040516001600160e01b031960e086901b1681526004810193909352602483019190915264ffffffffff16604482015233606482015260840160006040518083038186803b158015610ee357600080fd5b505af4158015610ef7573d6000803e3d6000fd5b50506040518392507ff2735f34b69be1e6342dea95f9162f84d0db925fab655ca9f1f312ac8cbfc99d9150600090a250565b604051633b11adbf60e21b81526002600482015233602482015273__$a374c895e6fa8c448878668e00d93ef99a$__9063ec46b6fc9060440160206040518083038186803b158015610f7a57600080fd5b505af4158015610f8e573d6000803e3d6000fd5b505050506040513d601f19601f82011682018060405250810190610fb29190613397565b610fce5760405162461bcd60e51b8152600401610528906133b2565b6001546040805163107df52760e11b815290516000926001600160a01b0316916320fbea4e916004808301926020929190829003018186803b15801561101357600080fd5b505afa158015611027573d6000803e3d6000fd5b505050506040513d601f19601f8201168201806040525081019061104b91906133f8565b6001600160a01b031663502353078585856040518463ffffffff1660e01b815260040161107a939291906136d5565b602060405180830381600087803b15801561109457600080fd5b505af11580156110a8573d6000803e3d6000fd5b505050506040513d601f19601f820116820180604052508101906110cc9190613739565b9050600160009054906101000a90046001600160a01b03166001600160a01b031663f01e100f6040518163ffffffff1660e01b815260040160206040518083038186803b15801561111c57600080fd5b505afa158015611130573d6000803e3d6000fd5b505050506040513d601f19601f8201168201806040525081019061115491906133f8565b60405163ccdddd4160e01b8152600481018690526001600160401b03831660248201526001600160a01b03919091169063ccdddd41906044016105f7565b73__$a374c895e6fa8c448878668e00d93ef99a$__63ee98b313600284846103f1612611565b604051633b11adbf60e21b81526002600482015233602482015273__$a374c895e6fa8c448878668e00d93ef99a$__9063ec46b6fc9060440160206040518083038186803b15801561120957600080fd5b505af415801561121d573d6000803e3d6000fd5b505050506040513d601f19601f820116820180604052508101906112419190613397565b61125d5760405162461bcd60e51b8152600401610528906133b2565b600160009054906101000a90046001600160a01b03166001600160a01b03166320fbea4e6040518163ffffffff1660e01b815260040160206040518083038186803b1580156112ab57600080fd5b505afa1580156112bf573d6000803e3d6000fd5b505050506040513d601f19601f820116820180604052508101906112e391906133f8565b604051630aaa3f8960e31b815260048101879052602481018690526044810185905260648101849052608481018390526001600160a01b039190911690635551fc489060a40161022060405180830381600087803b15801561134457600080fd5b505af1158015611358573d6000803e3d6000fd5b505050506040513d601f19601f820116820180604052508101906104559190613754565b604051633b11adbf60e21b81526002600482015233602482015273__$a374c895e6fa8c448878668e00d93ef99a$__9063ec46b6fc9060440160206040518083038186803b1580156113cd57600080fd5b505af41580156113e1573d6000803e3d6000fd5b505050506040513d601f19601f820116820180604052508101906114059190613397565b6114215760405162461bcd60e51b8152600401610528906133b2565b604051636be8496f60e01b81523360048201526001600160a01b03821690636be8496f90602401600060405180830381600087803b15801561146257600080fd5b505af1158015611476573d6000803e3d6000fd5b50506040516001600160a01b03841692507f64dd6e84044f0067086012335dcfab3188db6615b5cc7debf18c9a621ebd5d919150600090a250565b604051630f07232560e01b8152600260048201526001600160a01b038216602482015233604482015273__$a374c895e6fa8c448878668e00d93ef99a$__90630f0723259060640160006040518083038186803b15801561151157600080fd5b505af4158015611525573d6000803e3d6000fd5b50506040516001600160a01b03841692507fe435cbeab64e4eae6497b9d8289704bd709d624a80704ef3ca9af777534bc6ec9150600090a250565b604051633b11adbf60e21b81526002600482015233602482015273__$a374c895e6fa8c448878668e00d93ef99a$__9063ec46b6fc9060440160206040518083038186803b1580156115b157600080fd5b505af41580156115c5573d6000803e3d6000fd5b505050506040513d601f19601f820116820180604052508101906115e99190613397565b6116055760405162461bcd60e51b8152600401610528906133b2565b6001546040805163107df52760e11b815290516000926001600160a01b0316916320fbea4e916004808301926020929190829003018186803b15801561164a57600080fd5b505afa15801561165e573d6000803e3d6000fd5b505050506040513d601f19601f8201168201806040525081019061168291906133f8565b60405163f671e82160e01b815260048101869052602481018590526001600160a01b03919091169063f671e821906044016102206040518083038186803b1580156116cc57600080fd5b505afa1580156116e0573d6000803e3d6000fd5b505050506040513d601f19601f820116820180604052508101906117049190613754565b805160e0015190915064ffffffffff1682146117595760405162461bcd60e51b81526020600482015260146024820152732127a8259729281d103737ba10383632b233b7b960611b6044820152606401610528565b600160009054906101000a90046001600160a01b03166001600160a01b03166320fbea4e6040518163ffffffff1660e01b815260040160206040518083038186803b1580156117a757600080fd5b505afa1580156117bb573d6000803e3d6000fd5b505050506040513d601f19601f820116820180604052508101906117df91906133f8565b6040516372b5e71160e01b81526004810186905260248101859052604481018490526001600160a01b0391909116906372b5e71190606401600060405180830381600087803b15801561183157600080fd5b505af1158015611845573d6000803e3d6000fd5b50505050600160009054906101000a90046001600160a01b03166001600160a01b031663f01e100f6040518163ffffffff1660e01b815260040160206040518083038186803b15801561189757600080fd5b505afa1580156118ab573d6000803e3d6000fd5b505050506040513d601f19601f820116820180604052508101906118cf91906133f8565b60208201515160405163ccdddd4160e01b8152600481018790526001600160401b0390911660248201526001600160a01b03919091169063ccdddd41906044016105f7565b604051633b11adbf60e21b81526002600482015233602482015273__$a374c895e6fa8c448878668e00d93ef99a$__9063ec46b6fc9060440160206040518083038186803b15801561196557600080fd5b505af4158015611979573d6000803e3d6000fd5b505050506040513d601f19601f8201168201806040525081019061199d9190613397565b6119b95760405162461bcd60e51b8152600401610528906133b2565b6119c1612f2b565b604051637dfd694760e11b81526004810189905273__$23dd9d551e721d1017bc44715ea3b7f356$__9063fbfad28e906024016101406040518083038186803b158015611a0d57600080fd5b505af4158015611a21573d6000803e3d6000fd5b505050506040513d601f19601f82011682018060405250810190611a45919061382f565b81526001546040805163acd2d05760e01b815290516000926001600160a01b03169163acd2d057916004808301926020929190829003018186803b158015611a8c57600080fd5b505afa158015611aa0573d6000803e3d6000fd5b505050506040513d601f19601f82011682018060405250810190611ac491906133f8565b90506000600160009054906101000a90046001600160a01b03166001600160a01b031663682ebf056040518163ffffffff1660e01b815260040160206040518083038186803b158015611b1657600080fd5b505afa158015611b2a573d6000803e3d6000fd5b505050506040513d601f19601f82011682018060405250810190611b4e91906133f8565b90506000611b6e84600001516080015163ffffffff168b8b8b878a61266b565b90506000600160009054906101000a90046001600160a01b03166001600160a01b03166320fbea4e6040518163ffffffff1660e01b815260040160206040518083038186803b158015611bc057600080fd5b505afa158015611bd4573d6000803e3d6000fd5b505050506040513d601f19601f82011682018060405250810190611bf891906133f8565b85516080015160405163f671e82160e01b815263ffffffff9091166004820152602481018d90526001600160a01b03919091169063f671e821906044016102206040518083038186803b158015611c4e57600080fd5b505afa158015611c62573d6000803e3d6000fd5b505050506040513d601f19601f82011682018060405250810190611c869190613754565b6020808701805164ffffffffff808d169091528151908b169083015281830180515182516001600160401b0391821660409182015291518401519251921660609092019190915260015481516319fdcb7760e11b815291519394506001600160a01b0316926333fb96ee92600480840193919291829003018186803b158015611d0e57600080fd5b505afa158015611d22573d6000803e3d6000fd5b505050506040513d601f19601f82011682018060405250810190611d4691906133f8565b6001600160a01b031663d50c7377896040518263ffffffff1660e01b8152600401611d7391815260200190565b60206040518083038186803b158015611d8b57600080fd5b505afa158015611d9f573d6000803e3d6000fd5b505050506040513d601f19601f82011682018060405250810190611dc39190613397565b611dce576002611dd1565b60035b855160ff9091169052611de585838661297d565b9450611df583858488858b612cab565b505050505050505050505050565b604051632a3be56b60e21b815260026004820152602481018390526044810182905260009073__$a374c895e6fa8c448878668e00d93ef99a$__9063a8ef95ac9060640160206040518083038186803b158015611e5f57600080fd5b505af4158015611e73573d6000803e3d6000fd5b505050506040513d601f19601f82011682018060405250810190611e979190613397565b9392505050565b73__$a374c895e6fa8c448878668e00d93ef99a$__639b48160c600283611ec3612611565b6040516001600160e01b031960e086901b1681526004810193909352602483019190915264ffffffffff16604482015260640160006040518083038186803b158015611f0e57600080fd5b505af4158015611f22573d6000803e3d6000fd5b50506040518392507f8b6f40f36b4ae8cc5f55e895036457c43da4ab1f80f58c46f5ff0d72a650033b9150600090a250565b60405163987ad15360e01b81526002600482015260009073__$a374c895e6fa8c448878668e00d93ef99a$__9063987ad15390602401610376565b73__$a374c895e6fa8c448878668e00d93ef99a$__63cc0d511b600283610aff612611565b604051633b11adbf60e21b81526002600482015233602482015273__$a374c895e6fa8c448878668e00d93ef99a$__9063ec46b6fc9060440160206040518083038186803b15801561200557600080fd5b505af4158015612019573d6000803e3d6000fd5b505050506040513d601f19601f8201168201806040525081019061203d9190613397565b6120595760405162461bcd60e51b8152600401610528906133b2565b6001546040805163107df52760e11b815290516000926001600160a01b0316916320fbea4e916004808301926020929190829003018186803b15801561209e57600080fd5b505afa1580156120b2573d6000803e3d6000fd5b505050506040513d601f19601f820116820180604052508101906120d691906133f8565b60405163329b7a6b60e21b8152600481018790526024810186905260448101859052606481018490526001600160a01b03919091169063ca6de9ac9060840161022060405180830381600087803b15801561213057600080fd5b505af1158015612144573d6000803e3d6000fd5b505050506040513d601f19601f820116820180604052508101906121689190613754565b9050600160009054906101000a90046001600160a01b03166001600160a01b031663f01e100f6040518163ffffffff1660e01b815260040160206040518083038186803b1580156121b857600080fd5b505afa1580156121cc573d6000803e3d6000fd5b505050506040513d601f19601f820116820180604052508101906121f091906133f8565b60208201515160405163ccdddd4160e01b8152600481018890526001600160401b0390911660248201526001600160a01b03919091169063ccdddd4190604401600060405180830381600087803b15801561224a57600080fd5b505af115801561225e573d6000803e3d6000fd5b505050505050505050565b604051636cdd0edf60e11b815260026004820152602481018590526001600160a01b038416604482015273__$a374c895e6fa8c448878668e00d93ef99a$__9063d9ba1dbe9060640160006040518083038186803b1580156122ca57600080fd5b505af41580156122de573d6000803e3d6000fd5b505050506122eb82612e3d565b6122f481612eb0565b6040516001600160a01b038381168252808316919085169086907f3abb2418c66fe32ba9c883030a75ce583971d9af9192b9b74e44e67c5e6c8c1f9060200160405180910390a450505050565b604051633c3e56c160e11b81526002600482015260009073__$a374c895e6fa8c448878668e00d93ef99a$__9063787cad829060240160206040518083038186803b15801561238f57600080fd5b505af41580156123a3573d6000803e3d6000fd5b505050506040513d601f19601f820116820180604052508101906103c691906133f8565b600254600160f01b900460ff166001146124235760405162461bcd60e51b815260206004820152601760248201527f41432e4c433a20446f632069732066696e616c697a65640000000000000000006044820152606401610528565b73__$a374c895e6fa8c448878668e00d93ef99a$__63c51b295f6002684174746f726e65797360b81b612454612611565b6040516001600160e01b031960e086901b1681526004810193909352602483019190915264ffffffffff16604482015260640160006040518083038186803b15801561249f57600080fd5b505af41580156124b3573d6000803e3d6000fd5b50505050600273__$a374c895e6fa8c448878668e00d93ef99a$__6313a187d2909160006124df612611565b6040516001600160e01b031960e086901b1681526004810193909352602483019190915264ffffffffff16604482015233606482015260840160006040518083038186803b15801561253057600080fd5b505af4158015612544573d6000803e3d6000fd5b50505050600273__$a374c895e6fa8c448878668e00d93ef99a$__639b48160c90916000612570612611565b6040516001600160e01b031960e086901b1681526004810193909352602483019190915264ffffffffff16604482015260640160006040518083038186803b1580156125bb57600080fd5b505af41580156125cf573d6000803e3d6000fd5b50506002805460ff60f01b1916600160f11b17905550506040517f35012b512309c322acf68632cd6cb702ff0e1d776fbe9394e38ffc13b434fe7590600090a1565b60008054604051636ae3b70d60e11b81523360048201526001600160a01b039091169063d5c76e1a90602401602060405180830381600087803b15801561265757600080fd5b505af11580156103a2573d6000803e3d6000fd5b6001546040805163107df52760e11b815290516000926001600160a01b0316916320fbea4e916004808301926020929190829003018186803b1580156126b057600080fd5b505afa1580156126c4573d6000803e3d6000fd5b505050506040513d601f19601f820116820180604052508101906126e891906133f8565b604051634c70a09360e01b81526004810189905260248101889052604481018490526001600160a01b039190911690634c70a09390606401600060405180830381600087803b15801561273a57600080fd5b505af115801561274e573d6000803e3d6000fd5b506000925061276891505060e087901b601560f01b613918565b6000805460405163966ef88d60e01b8152600481018490526001600160a01b0389811660248301529394509192169063966ef88d9060440161014060405180830381600087803b1580156127bb57600080fd5b505af11580156127cf573d6000803e3d6000fd5b505050506040513d601f19601f820116820180604052508101906127f39190613930565b602081015160005460015460405163dc890da960e01b8152600481018990523060248201526001600160a01b0392831660448201529082166064820152929350169063dc890da990608401600060405180830381600087803b15801561285857600080fd5b505af115801561286c573d6000803e3d6000fd5b505082516040516324d5cef160e11b81526001600160a01b038916935063024dd8c4925073__$09abfa05dcde8203885d48940a2fca9f8f$__916349ab9de2916128b99190600401613a08565b60206040518083038186803b1580156128d157600080fd5b505af41580156128e5573d6000803e3d6000fd5b505050506040513d601f19601f820116820180604052508101906129099190613acb565b60208401516040516001600160e01b031960e085901b16815260048101929092526001600160a01b03166024820152604401600060405180830381600087803b15801561295557600080fd5b505af1158015612969573d6000803e3d6000fd5b505050506020015198975050505050505050565b612985612f2b565b604051631f24908560e31b81526001600160a01b0384169063f9248428906129b1908790600401613b69565b602060405180830381600087803b1580156129cb57600080fd5b505af11580156129df573d6000803e3d6000fd5b505050506040513d601f19601f82011682018060405250810190612a039190613c62565b845161ffff919091166020909101528351516040516338a6b6a360e11b815260ff90911660048201526001600160a01b0384169063714d6d4690602401600060405180830381600087803b158015612a5a57600080fd5b505af1158015612a6e573d6000803e3d6000fd5b50505050600073__$fd7bbdaedbcbc33e1887256b0ab47b2b43$__638503d8d6600160009054906101000a90046001600160a01b03166001600160a01b031663a61adc286040518163ffffffff1660e01b815260040160206040518083038186803b158015612adc57600080fd5b505afa158015612af0573d6000803e3d6000fd5b505050506040513d601f19601f82011682018060405250810190612b1491906133f8565b875151604051634846203760e01b815260ff90911660048201526001600160a01b03919091169063484620379060240160206040518083038186803b158015612b5c57600080fd5b505afa158015612b70573d6000803e3d6000fd5b505050506040513d601f19601f82011682018060405250810190612b949190613acb565b6040518263ffffffff1660e01b8152600401612bb291815260200190565b6102606040518083038186803b158015612bcb57600080fd5b505af4158015612bdf573d6000803e3d6000fd5b505050506040513d601f19601f82011682018060405250810190612c039190613cf3565b9050826001600160a01b0316636215b0e485600062015180428a600001516101000151612c309190613e4d565b612c3c9061a8c0613e74565b612c469190613e9e565b6040516001600160e01b031960e086901b168152612c709392919087906000908190600401613f01565b600060405180830381600087803b158015612c8a57600080fd5b505af1158015612c9e573d6000803e3d6000fd5b5096979650505050505050565b825151825160e001516040516336a2ddaf60e21b81526001600160a01b03878116600483015260ff90931660248201526044810184905264ffffffffff909116606482015260009188169063da8b76bc90608401602060405180830381600087803b158015612d1957600080fd5b505af1158015612d2d573d6000803e3d6000fd5b505050506040513d601f19601f82011682018060405250810190612d519190613739565b835160e0015160405163ec83613b60e01b81526001600160401b038316600482015264ffffffffff90911660248201529091506001600160a01b0388169063ec83613b90604401600060405180830381600087803b158015612db257600080fd5b505af1158015612dc6573d6000803e3d6000fd5b505060405163055ad79f60e41b81526001600160a01b0388811660048301526001600160401b0385166024830152891692506355ad79f09150604401600060405180830381600087803b158015612e1c57600080fd5b505af1158015612e30573d6000803e3d6000fd5b5050505050505050505050565b6000546001600160a01b031615612e8e5760405162461bcd60e51b815260206004820152601560248201527430b63932b0b23c9039b2ba103932b3a1b2b73a32b960591b6044820152606401610528565b600080546001600160a01b0319166001600160a01b0392909216919091179055565b6001546001600160a01b031615612f095760405162461bcd60e51b815260206004820152601960248201527f616c7265616479207365742067656e6572616c4b6565706572000000000000006044820152606401610528565b600180546001600160a01b0319166001600160a01b0392909216919091179055565b604080516101a081019091526000606082018181526080830182905260a0830182905260c0830182905260e08301829052610100830182905261012083018290526101408301829052610160830182905261018083019190915281908152604080516101008101825260008082526020828101829052928201819052606082018190526080820181905260a0820181905260c0820181905260e08201529101908152600060209091015290565b60008060408385031215612feb57600080fd5b50508035926020909101359150565b6000806000806080858703121561301057600080fd5b5050823594602084013594506040840135936060013592509050565b600080600080600060a0868803121561304457600080fd5b505083359560208501359550604085013594606081013594506080013592509050565b60006020828403121561307957600080fd5b5035919050565b634e487b7160e01b600052604160045260246000fd5b60405161012081016001600160401b03811182821017156130b9576130b9613080565b60405290565b604080519081016001600160401b03811182821017156130b9576130b9613080565b604051606081016001600160401b03811182821017156130b9576130b9613080565b60405160e081016001600160401b03811182821017156130b9576130b9613080565b60405161014081016001600160401b03811182821017156130b9576130b9613080565b60405161024081016001600160401b03811182821017156130b9576130b9613080565b604051601f8201601f191681016001600160401b038111828210171561319357613193613080565b604052919050565b6000806000606084860312156131b057600080fd5b83359250602080850135925060408501356001600160401b03808211156131d657600080fd5b818701915087601f8301126131ea57600080fd5b8135818111156131fc576131fc613080565b61320e601f8201601f1916850161316b565b9150808252888482850101111561322457600080fd5b80848401858401376000848284010152508093505050509250925092565b6001600160a01b038116811461325757600080fd5b50565b60006020828403121561326c57600080fd5b8135611e9781613242565b60008060006060848603121561328c57600080fd5b505081359360208301359350604090920135919050565b600080600080600080600060e0888a0312156132be57600080fd5b87359650602088013595506040880135945060608801356132de81613242565b9699959850939660808101359560a0820135955060c0909101359350915050565b6000806000806080858703121561331557600080fd5b84359350602085013561332781613242565b9250604085013561333781613242565b9150606085013561334781613242565b939692955090935050565b805164ffffffffff8116811461336757600080fd5b919050565b60006020828403121561337e57600080fd5b611e9782613352565b8051801515811461336757600080fd5b6000602082840312156133a957600080fd5b611e9782613387565b60208082526026908201527f41432e6f6e6c794469726563744b65657065723a206e6f74206469726563742060408201526535b2b2b832b960d11b606082015260800190565b60006020828403121561340a57600080fd5b8151611e9781613242565b805163ffffffff8116811461336757600080fd5b805161ffff8116811461336757600080fd5b805165ffffffffffff8116811461336757600080fd5b805160ff8116811461336757600080fd5b6000610120828403121561347557600080fd5b61347d613096565b905061348882613415565b815261349660208301613429565b60208201526134a76040830161343b565b60408201526134b860608301613429565b60608201526134c960808301613429565b60808201526134da60a08301613352565b60a08201526134eb60c08301613352565b60c08201526134fc60e08301613352565b60e082015261010061350f818401613451565b9082015292915050565b6000610120828403121561352c57600080fd5b611e978383613462565b80516001600160401b038116811461336757600080fd5b600060c0828403121561355f57600080fd5b60405160c081018181106001600160401b038211171561358157613581613080565b6040529050806135908361343b565b815261359e60208401613536565b60208201526135af60408401613536565b60408201526135c060608401613536565b60608201526135d160808401613451565b60808201526135e260a08401613451565b60a08201525092915050565b60008183036101e081121561360257600080fd5b61360a6130bf565b6101208083121561361a57600080fd5b613622613096565b925061362d85613415565b835261363b60208601613415565b602084015261364c60408601613429565b604084015261365d6060860161343b565b606084015261366e60808601613352565b608084015261367f60a08601613415565b60a084015261369060c08601613415565b60c08401526136a160e08601613429565b60e08401526101006136b4818701613451565b908401528282526136c78686830161354d565b602083015250949350505050565b83815260006020848184015260606040840152835180606085015260005b8181101561370f578581018301518582016080015282016136f3565b81811115613721576000608083870101525b50601f01601f19169290920160800195945050505050565b60006020828403121561374b57600080fd5b611e9782613536565b600081830361022081121561376857600080fd5b6137706130e1565b61377a8585613462565b815260e061011f198301121561378f57600080fd5b613797613103565b91506137a66101208501613536565b82526137b56101408501613536565b60208301526137c76101608501613536565b60408301526137d96101808501613429565b60608301526137eb6101a08501613429565b60808301526137fd6101c08501613429565b60a083015261380f6101e08501613429565b60c083015260208101919091526102009290920151604083015250919050565b6000610140828403121561384257600080fd5b61384a613125565b61385383613451565b815261386160208401613429565b602082015261387260408401613429565b604082015261388360608401613429565b606082015261389460808401613415565b60808201526138a560a08401613352565b60a08201526138b660c08401613415565b60c08201526138c760e08401613415565b60e08201526101006138da81850161343b565b908201526101206138ec848201613429565b908201529392505050565b805161336781613242565b634e487b7160e01b600052601160045260246000fd5b6000821982111561392b5761392b613902565b500190565b600081830361014081121561394457600080fd5b61394c6130bf565b6101208083121561395c57600080fd5b613964613096565b925061396f85613429565b835261397d60208601613429565b602084015261398e60408601613536565b604084015261399f60608601613352565b60608401526139b06080860161343b565b60808401526139c160a08601613429565b60a08401526139d260c08601613429565b60c08401526139e360e08601613415565b60e08401526101006139f6818701613451565b908401528282526136c78582016138f7565b60006101208201905061ffff808451168352806020850151166020840152506040830151613a4160408401826001600160401b03169052565b506060830151613a5a606084018264ffffffffff169052565b506080830151613a74608084018265ffffffffffff169052565b5060a0830151613a8a60a084018261ffff169052565b5060c0830151613aa060c084018261ffff169052565b5060e0830151613ab860e084018263ffffffff169052565b506101009283015160ff16919092015290565b600060208284031215613add57600080fd5b5051919050565b64ffffffffff8082511683528060208301511660208401525060408101516001600160401b038082166040850152806060840151166060850152505060ff608082015116608083015261ffff60a08201511660a083015260c0810151613b5060c084018261ffff169052565b5060e0810151613b6460e084018215159052565b505050565b8151805160ff1682526102608201906020810151613b8d602085018261ffff169052565b506040810151613ba3604085018261ffff169052565b506060810151613bb9606085018261ffff169052565b506080810151613bd1608085018263ffffffff169052565b5060a0810151613bea60a085018264ffffffffff169052565b5060c0810151613c0260c085018263ffffffff169052565b5060e0810151613c1a60e085018263ffffffff169052565b506101008181015165ffffffffffff16908401526101209081015161ffff16908301526020830151613c50610140840182613ae4565b50604083015161024083015292915050565b600060208284031215613c7457600080fd5b611e9782613429565b600082601f830112613c8e57600080fd5b604051604081018181106001600160401b0382111715613cb057613cb0613080565b8060405250806040840185811115613cc757600080fd5b845b81811015613ce857613cda81613352565b835260209283019201613cc9565b509195945050505050565b60006102608284031215613d0657600080fd5b613d0e613148565b613d1783613429565b8152613d2560208401613451565b6020820152613d3660408401613451565b6040820152613d4760608401613429565b6060820152613d5860808401613429565b6080820152613d6960a08401613429565b60a0820152613d7a60c08401613387565b60c0820152613d8b60e08401613387565b60e0820152610100613d9e818501613387565b90820152610120613db0848201613387565b90820152610140613dc2848201613451565b90820152610160613dd4848201613451565b90820152610180613de6848201613451565b908201526101a0613df8848201613451565b908201526101c0613e0a848201613451565b908201526101e0613e1c848201613451565b90820152610200613e2f85858301613c7d565b90820152613e406102408401613429565b6102208201529392505050565b600065ffffffffffff83811690831681811015613e6c57613e6c613902565b039392505050565b600065ffffffffffff808316818516808303821115613e9557613e95613902565b01949350505050565b600065ffffffffffff80841680613ec557634e487b7160e01b600052601260045260246000fd5b92169190910492915050565b8060005b6002811015613efb57815164ffffffffff16845260209384019390910190600101613ed5565b50505050565b6001600160a01b038716815261ffff8681166020830152858116604083015284511660608201526103008101602085015160ff8116608084015250604085015160ff811660a084015250606085015161ffff811660c084015250608085015161ffff811660e08401525060a0850151610100613f828185018361ffff169052565b60c08701519150610120613f998186018415159052565b60e08801519250610140613fb08187018515159052565b91880151925061016091613fc78684018515159052565b90880151925061018090613fde8683018515159052565b88015192506101a0613ff48682018560ff169052565b9188015192506101c09161400c8684018560ff169052565b9088015192506101e0906140248683018560ff169052565b880151925061020061403a8682018560ff169052565b918801519250610220916140528684018560ff169052565b9088015160ff166102408601528701519150614072610260850183613ed1565b9095015161ffff166102a08301526102c08201939093526102e0015294935050505056fea26469706673582212206dc35b297e90beb36f9e504115914afd0cea7e28d63d1db7b81ba02737f07cf464736f6c63430008080033",
    "sourcePath": "/Users/kaptain/github.com/comboox/comboox/contracts/keepers/BOPKeeper.sol",
    "compiler": {
        "name": "solc",
        "version": "0.8.8+commit.dddeac2f"
    },
    "functionHashes": {
        "abandonRole(bytes32)": "3da9a600",
        "createPledge(bytes32,uint256,uint256,uint256,uint256)": "36dfcf94",
        "execPledge(bytes32,uint256,uint256,address,uint256,uint256,uint256)": "7632be02",
        "extendPledge(uint256,uint256,uint256,uint256)": "417dea25",
        "finalized()": "b3f05b97",
        "getBookeeper()": "ed211023",
        "getGeneralCounsel()": "103f6edd",
        "getOwner()": "893d20e8",
        "grantRole(bytes32,uint256)": "1b6ea9f9",
        "hasRole(bytes32,uint256)": "7e063c5a",
        "init(uint256,address,address,address)": "dc890da9",
        "lockContents()": "f045a769",
        "lockPledge(uint256,uint256,bytes32,uint256)": "3067033d",
        "refundDebt(uint256,uint256,uint256,uint256)": "ca6de9ac",
        "releasePledge(uint256,uint256,string)": "50235307",
        "removeDirectKeeper(address)": "5d7ad88f",
        "renounceRole(bytes32)": "8bb9c5bf",
        "revokePledge(uint256,uint256,uint256)": "72b5e711",
        "revokeRole(bytes32,uint256)": "19d61ad9",
        "setDirectKeeper(address)": "6be8496f",
        "setGeneralCounsel(uint256)": "4a14beb1",
        "setOwner(uint256)": "8041494e",
        "setRoleAdmin(bytes32,uint256)": "5171ebd4",
        "transferPledge(uint256,uint256,uint256,uint256,uint256)": "5551fc48"
    },
    "gasEstimates": {
        "creation": {
            "codeDepositCost": "3317600",
            "executionCost": "3691",
            "totalCost": "3321291"
        },
        "external": {
            "abandonRole(bytes32)": "infinite",
            "createPledge(bytes32,uint256,uint256,uint256,uint256)": "infinite",
            "execPledge(bytes32,uint256,uint256,address,uint256,uint256,uint256)": "infinite",
            "extendPledge(uint256,uint256,uint256,uint256)": "infinite",
            "finalized()": "2371",
            "getBookeeper()": "infinite",
            "getGeneralCounsel()": "infinite",
            "getOwner()": "infinite",
            "grantRole(bytes32,uint256)": "infinite",
            "hasRole(bytes32,uint256)": "infinite",
            "init(uint256,address,address,address)": "infinite",
            "lockContents()": "infinite",
            "lockPledge(uint256,uint256,bytes32,uint256)": "infinite",
            "refundDebt(uint256,uint256,uint256,uint256)": "infinite",
            "releasePledge(uint256,uint256,string)": "infinite",
            "removeDirectKeeper(address)": "infinite",
            "renounceRole(bytes32)": "infinite",
            "revokePledge(uint256,uint256,uint256)": "infinite",
            "revokeRole(bytes32,uint256)": "infinite",
            "setDirectKeeper(address)": "infinite",
            "setGeneralCounsel(uint256)": "infinite",
            "setOwner(uint256)": "infinite",
            "setRoleAdmin(bytes32,uint256)": "infinite",
            "transferPledge(uint256,uint256,uint256,uint256,uint256)": "infinite"
        },
        "internal": {
            "_circulateIA(struct DealsRepo.Deal memory,contract IInvestmentAgreement,contract IBookOfIA)": "infinite",
            "_createIA(uint256,uint256,uint256,address,contract IBookOfIA,uint256)": "infinite",
            "_proposeIA(contract IBookOfGM,contract IBookOfIA,address,struct DealsRepo.Deal memory,struct PledgesRepo.Pledge memory,uint256)": "infinite",
            "_signIA(contract IInvestmentAgreement,struct DealsRepo.Deal memory,struct PledgesRepo.Pledge memory,contract IBookOfIA)": "infinite"
        }
    }
}