{
    "contractName": "BOPKeeper",
    "abi": [
        {
            "anonymous": false,
            "inputs": [
                {
                    "indexed": false,
                    "internalType": "uint256",
                    "name": "owner",
                    "type": "uint256"
                },
                {
                    "indexed": false,
                    "internalType": "address",
                    "name": "directKeeper",
                    "type": "address"
                },
                {
                    "indexed": false,
                    "internalType": "address",
                    "name": "regCenter",
                    "type": "address"
                },
                {
                    "indexed": false,
                    "internalType": "address",
                    "name": "generalKeeper",
                    "type": "address"
                }
            ],
            "name": "Init",
            "type": "event"
        },
        {
            "anonymous": false,
            "inputs": [],
            "name": "LockContents",
            "type": "event"
        },
        {
            "anonymous": false,
            "inputs": [
                {
                    "indexed": false,
                    "internalType": "uint256",
                    "name": "title",
                    "type": "uint256"
                },
                {
                    "indexed": false,
                    "internalType": "address",
                    "name": "book",
                    "type": "address"
                }
            ],
            "name": "SetBookRuting",
            "type": "event"
        },
        {
            "anonymous": false,
            "inputs": [
                {
                    "indexed": false,
                    "internalType": "address",
                    "name": "keeper",
                    "type": "address"
                }
            ],
            "name": "SetDirectKeeper",
            "type": "event"
        },
        {
            "anonymous": false,
            "inputs": [
                {
                    "indexed": false,
                    "internalType": "uint256",
                    "name": "acct",
                    "type": "uint256"
                }
            ],
            "name": "SetGeneralCounsel",
            "type": "event"
        },
        {
            "anonymous": false,
            "inputs": [
                {
                    "indexed": false,
                    "internalType": "address",
                    "name": "gk",
                    "type": "address"
                }
            ],
            "name": "SetGeneralKeeper",
            "type": "event"
        },
        {
            "anonymous": false,
            "inputs": [
                {
                    "indexed": false,
                    "internalType": "uint256",
                    "name": "acct",
                    "type": "uint256"
                }
            ],
            "name": "SetOwner",
            "type": "event"
        },
        {
            "anonymous": false,
            "inputs": [
                {
                    "indexed": false,
                    "internalType": "address",
                    "name": "rc",
                    "type": "address"
                }
            ],
            "name": "SetRegCenter",
            "type": "event"
        },
        {
            "inputs": [
                {
                    "internalType": "bytes32",
                    "name": "role",
                    "type": "bytes32"
                }
            ],
            "name": "abandonRole",
            "outputs": [],
            "stateMutability": "nonpayable",
            "type": "function"
        },
        {
            "inputs": [
                {
                    "internalType": "uint256",
                    "name": "sn",
                    "type": "uint256"
                },
                {
                    "internalType": "uint40",
                    "name": "creditor",
                    "type": "uint40"
                },
                {
                    "internalType": "uint16",
                    "name": "guaranteeDays",
                    "type": "uint16"
                },
                {
                    "internalType": "uint64",
                    "name": "paid",
                    "type": "uint64"
                },
                {
                    "internalType": "uint64",
                    "name": "par",
                    "type": "uint64"
                },
                {
                    "internalType": "uint64",
                    "name": "guaranteedAmt",
                    "type": "uint64"
                },
                {
                    "internalType": "uint256",
                    "name": "caller",
                    "type": "uint256"
                }
            ],
            "name": "createPledge",
            "outputs": [],
            "stateMutability": "nonpayable",
            "type": "function"
        },
        {
            "inputs": [
                {
                    "internalType": "uint256",
                    "name": "seqOfShare",
                    "type": "uint256"
                },
                {
                    "internalType": "uint256",
                    "name": "seqOfPld",
                    "type": "uint256"
                },
                {
                    "internalType": "uint256",
                    "name": "caller",
                    "type": "uint256"
                }
            ],
            "name": "execPledge",
            "outputs": [],
            "stateMutability": "nonpayable",
            "type": "function"
        },
        {
            "inputs": [
                {
                    "internalType": "uint256",
                    "name": "seqOfShare",
                    "type": "uint256"
                },
                {
                    "internalType": "uint256",
                    "name": "seqOfPld",
                    "type": "uint256"
                },
                {
                    "internalType": "uint16",
                    "name": "extDays",
                    "type": "uint16"
                },
                {
                    "internalType": "uint256",
                    "name": "caller",
                    "type": "uint256"
                }
            ],
            "name": "extendPledge",
            "outputs": [],
            "stateMutability": "nonpayable",
            "type": "function"
        },
        {
            "inputs": [],
            "name": "finalized",
            "outputs": [
                {
                    "internalType": "bool",
                    "name": "",
                    "type": "bool"
                }
            ],
            "stateMutability": "view",
            "type": "function"
        },
        {
            "inputs": [],
            "name": "getBookeeper",
            "outputs": [
                {
                    "internalType": "address",
                    "name": "",
                    "type": "address"
                }
            ],
            "stateMutability": "view",
            "type": "function"
        },
        {
            "inputs": [],
            "name": "getGeneralCounsel",
            "outputs": [
                {
                    "internalType": "uint40",
                    "name": "",
                    "type": "uint40"
                }
            ],
            "stateMutability": "view",
            "type": "function"
        },
        {
            "inputs": [],
            "name": "getOwner",
            "outputs": [
                {
                    "internalType": "uint40",
                    "name": "",
                    "type": "uint40"
                }
            ],
            "stateMutability": "view",
            "type": "function"
        },
        {
            "inputs": [
                {
                    "internalType": "bytes32",
                    "name": "role",
                    "type": "bytes32"
                },
                {
                    "internalType": "uint256",
                    "name": "acct",
                    "type": "uint256"
                }
            ],
            "name": "grantRole",
            "outputs": [],
            "stateMutability": "nonpayable",
            "type": "function"
        },
        {
            "inputs": [
                {
                    "internalType": "bytes32",
                    "name": "role",
                    "type": "bytes32"
                },
                {
                    "internalType": "uint256",
                    "name": "acct",
                    "type": "uint256"
                }
            ],
            "name": "hasRole",
            "outputs": [
                {
                    "internalType": "bool",
                    "name": "",
                    "type": "bool"
                }
            ],
            "stateMutability": "view",
            "type": "function"
        },
        {
            "inputs": [
                {
                    "internalType": "uint256",
                    "name": "owner",
                    "type": "uint256"
                },
                {
                    "internalType": "address",
                    "name": "directKeeper",
                    "type": "address"
                },
                {
                    "internalType": "address",
                    "name": "regCenter",
                    "type": "address"
                },
                {
                    "internalType": "address",
                    "name": "generalKeeper",
                    "type": "address"
                }
            ],
            "name": "init",
            "outputs": [],
            "stateMutability": "nonpayable",
            "type": "function"
        },
        {
            "inputs": [],
            "name": "initBOP",
            "outputs": [],
            "stateMutability": "nonpayable",
            "type": "function"
        },
        {
            "inputs": [],
            "name": "initBOS",
            "outputs": [],
            "stateMutability": "nonpayable",
            "type": "function"
        },
        {
            "inputs": [],
            "name": "lockContents",
            "outputs": [],
            "stateMutability": "nonpayable",
            "type": "function"
        },
        {
            "inputs": [
                {
                    "internalType": "uint256",
                    "name": "seqOfShare",
                    "type": "uint256"
                },
                {
                    "internalType": "uint256",
                    "name": "seqOfPld",
                    "type": "uint256"
                },
                {
                    "internalType": "bytes32",
                    "name": "hashLock",
                    "type": "bytes32"
                },
                {
                    "internalType": "uint256",
                    "name": "caller",
                    "type": "uint256"
                }
            ],
            "name": "lockPledge",
            "outputs": [],
            "stateMutability": "nonpayable",
            "type": "function"
        },
        {
            "inputs": [
                {
                    "internalType": "uint256",
                    "name": "seqOfShare",
                    "type": "uint256"
                },
                {
                    "internalType": "uint256",
                    "name": "seqOfPld",
                    "type": "uint256"
                },
                {
                    "internalType": "uint64",
                    "name": "amt",
                    "type": "uint64"
                },
                {
                    "internalType": "uint256",
                    "name": "caller",
                    "type": "uint256"
                }
            ],
            "name": "refundDebt",
            "outputs": [],
            "stateMutability": "nonpayable",
            "type": "function"
        },
        {
            "inputs": [
                {
                    "internalType": "uint256",
                    "name": "seqOfShare",
                    "type": "uint256"
                },
                {
                    "internalType": "uint256",
                    "name": "seqOfPld",
                    "type": "uint256"
                },
                {
                    "internalType": "string",
                    "name": "hashKey",
                    "type": "string"
                },
                {
                    "internalType": "uint256",
                    "name": "caller",
                    "type": "uint256"
                }
            ],
            "name": "releasePledge",
            "outputs": [],
            "stateMutability": "nonpayable",
            "type": "function"
        },
        {
            "inputs": [
                {
                    "internalType": "bytes32",
                    "name": "role",
                    "type": "bytes32"
                }
            ],
            "name": "renounceRole",
            "outputs": [],
            "stateMutability": "nonpayable",
            "type": "function"
        },
        {
            "inputs": [
                {
                    "internalType": "uint256",
                    "name": "seqOfShare",
                    "type": "uint256"
                },
                {
                    "internalType": "uint256",
                    "name": "seqOfPld",
                    "type": "uint256"
                },
                {
                    "internalType": "uint256",
                    "name": "caller",
                    "type": "uint256"
                }
            ],
            "name": "revokePledge",
            "outputs": [],
            "stateMutability": "nonpayable",
            "type": "function"
        },
        {
            "inputs": [
                {
                    "internalType": "bytes32",
                    "name": "role",
                    "type": "bytes32"
                },
                {
                    "internalType": "uint256",
                    "name": "acct",
                    "type": "uint256"
                }
            ],
            "name": "revokeRole",
            "outputs": [],
            "stateMutability": "nonpayable",
            "type": "function"
        },
        {
            "inputs": [
                {
                    "internalType": "address",
                    "name": "keeper",
                    "type": "address"
                }
            ],
            "name": "setDirectKeeper",
            "outputs": [],
            "stateMutability": "nonpayable",
            "type": "function"
        },
        {
            "inputs": [
                {
                    "internalType": "uint256",
                    "name": "acct",
                    "type": "uint256"
                }
            ],
            "name": "setGeneralCounsel",
            "outputs": [],
            "stateMutability": "nonpayable",
            "type": "function"
        },
        {
            "inputs": [
                {
                    "internalType": "uint256",
                    "name": "acct",
                    "type": "uint256"
                }
            ],
            "name": "setOwner",
            "outputs": [],
            "stateMutability": "nonpayable",
            "type": "function"
        },
        {
            "inputs": [
                {
                    "internalType": "bytes32",
                    "name": "role",
                    "type": "bytes32"
                },
                {
                    "internalType": "uint256",
                    "name": "acct",
                    "type": "uint256"
                }
            ],
            "name": "setRoleAdmin",
            "outputs": [],
            "stateMutability": "nonpayable",
            "type": "function"
        },
        {
            "inputs": [
                {
                    "internalType": "uint256",
                    "name": "seqOfShare",
                    "type": "uint256"
                },
                {
                    "internalType": "uint256",
                    "name": "seqOfPld",
                    "type": "uint256"
                },
                {
                    "internalType": "uint40",
                    "name": "buyer",
                    "type": "uint40"
                },
                {
                    "internalType": "uint64",
                    "name": "amt",
                    "type": "uint64"
                },
                {
                    "internalType": "uint256",
                    "name": "caller",
                    "type": "uint256"
                }
            ],
            "name": "transferPledge",
            "outputs": [],
            "stateMutability": "nonpayable",
            "type": "function"
        }
    ],
    "bytecode": "608060405234801561001057600080fd5b50612f24806100206000396000f3fe608060405234801561001057600080fd5b50600436106101735760003560e01c80636be8496f116100de5780638bb9c5bf11610097578063dc890da911610071578063dc890da91461030a578063ed2110231461031d578063f045a7691461033d578063fb268c581461034557600080fd5b80638bb9c5bf146102cf5780639a92065d146102e2578063b3f05b97146102f557600080fd5b80636be8496f1461025857806372b5e7111461026b5780637e063c5a1461027e5780638041494e146102a1578063893d20e8146102b45780638a150285146102bc57600080fd5b80634c70a093116101305780634c70a093146101fc5780634c76218b1461020f5780635171ebd4146102225780635591441014610235578063605f0d0d1461024857806362ce0a281461025057600080fd5b8063103f6edd1461017857806319d61ad91461019b5780631b6ea9f9146101b05780633067033d146101c35780633da9a600146101d65780634a14beb1146101e9575b600080fd5b610180610358565b60405164ffffffffff90911681526020015b60405180910390f35b6101ae6101a9366004612661565b6103e3565b005b6101ae6101be366004612661565b610477565b6101ae6101d1366004612683565b61049c565b6101ae6101e43660046126b5565b6106b1565b6101ae6101f73660046126b5565b6107ba565b6101ae61020a3660046126ce565b6109a8565b6101ae61021d3660046127ac565b610cef565b6101ae610230366004612661565b610f74565b6101ae610243366004612886565b610f99565b6101ae6111b4565b6101ae61128d565b6101ae6102663660046128ed565b611360565b6101ae6102793660046126ce565b611411565b61029161028c366004612661565b611664565b6040519015158152602001610192565b6101ae6102af3660046126b5565b6116fe565b6101806118e1565b6101ae6102ca36600461291a565b61191b565b6101ae6102dd3660046126b5565b611cad565b6101ae6102f036600461299e565b611d05565b600454600160f01b900460ff16600214610291565b6101ae6103183660046129dd565b611ebf565b610325611fa1565b6040516001600160a01b039091168152602001610192565b6101ae612026565b6101ae610353366004612a30565b612241565b60405163e8c0cc1d60e01b815260048082015260009073__$364aad554dc80380f414546becdd2c1584$__9063e8c0cc1d906024015b60206040518083038186803b1580156103a657600080fd5b505af41580156103ba573d6000803e3d6000fd5b505050506040513d601f19601f820116820180604052508101906103de9190612a5f565b905090565b73__$364aad554dc80380f414546becdd2c1584$__6382daafaa6004846104086124a1565b6040516001600160e01b031960e086901b1681526004810193909352602483019190915264ffffffffff166044820152606481018490526084015b60006040518083038186803b15801561045b57600080fd5b505af415801561046f573d6000803e3d6000fd5b505050505050565b73__$364aad554dc80380f414546becdd2c1584$__636320d75e6004846104086124a1565b604051633b11adbf60e21b815260048082015233602482015273__$364aad554dc80380f414546becdd2c1584$__9063ec46b6fc9060440160206040518083038186803b1580156104ec57600080fd5b505af4158015610500573d6000803e3d6000fd5b505050506040513d601f19601f820116820180604052508101906105249190612a7c565b6105495760405162461bcd60e51b815260040161054090612a9e565b60405180910390fd5b60025460405163f671e82160e01b8152600481018690526024810185905282916001600160a01b03169063f671e821906044016101a06040518083038186803b15801561059557600080fd5b505afa1580156105a9573d6000803e3d6000fd5b505050506040513d601f19601f820116820180604052508101906105cd9190612bac565b602001515164ffffffffff161461061e5760405162461bcd60e51b81526020600482015260156024820152742127a8259726281d103737ba1031b932b234ba37b960591b6044820152606401610540565b60025460405163205969bd60e01b81526004810186905260248101859052604481018490526001600160a01b039091169063205969bd90606401602060405180830381600087803b15801561067257600080fd5b505af1158015610686573d6000803e3d6000fd5b505050506040513d601f19601f820116820180604052508101906106aa9190612a7c565b5050505050565b604051633b11adbf60e21b815260048082015233602482015273__$364aad554dc80380f414546becdd2c1584$__9063ec46b6fc9060440160206040518083038186803b15801561070157600080fd5b505af4158015610715573d6000803e3d6000fd5b505050506040513d601f19601f820116820180604052508101906107399190612a7c565b6107555760405162461bcd60e51b815260040161054090612a9e565b60405163cc99e11b60e01b81526004808201526024810182905273__$364aad554dc80380f414546becdd2c1584$__9063cc99e11b9060440160006040518083038186803b1580156107a657600080fd5b505af41580156106aa573d6000803e3d6000fd5b604051633b11adbf60e21b815260048082015233602482015273__$364aad554dc80380f414546becdd2c1584$__9063ec46b6fc9060440160206040518083038186803b15801561080a57600080fd5b505af415801561081e573d6000803e3d6000fd5b505050506040513d601f19601f820116820180604052508101906108429190612a7c565b806108e7575073__$364aad554dc80380f414546becdd2c1584$__63fe271086600461086c6124a1565b6040516001600160e01b031960e085901b168152600481019290925264ffffffffff16602482015260440160206040518083038186803b1580156108af57600080fd5b505af41580156108c3573d6000803e3d6000fd5b505050506040513d601f19601f820116820180604052508101906108e79190612a7c565b6109035760405162461bcd60e51b815260040161054090612c7c565b604051632725ebef60e21b81526004808201526024810182905273__$364aad554dc80380f414546becdd2c1584$__90639c97afbc9060440160006040518083038186803b15801561095457600080fd5b505af4158015610968573d6000803e3d6000fd5b505050507ff2735f34b69be1e6342dea95f9162f84d0db925fab655ca9f1f312ac8cbfc99d8160405161099d91815260200190565b60405180910390a150565b604051633b11adbf60e21b815260048082015233602482015273__$364aad554dc80380f414546becdd2c1584$__9063ec46b6fc9060440160206040518083038186803b1580156109f857600080fd5b505af4158015610a0c573d6000803e3d6000fd5b505050506040513d601f19601f82011682018060405250810190610a309190612a7c565b610a4c5760405162461bcd60e51b815260040161054090612a9e565b60025460405163f671e82160e01b815260048101859052602481018490526000916001600160a01b03169063f671e821906044016101a06040518083038186803b158015610a9957600080fd5b505afa158015610aad573d6000803e3d6000fd5b505050506040513d601f19601f82011682018060405250810190610ad19190612bac565b60208101515190915064ffffffffff168214610b275760405162461bcd60e51b81526020600482015260156024820152742127a8259722a81d103737ba1031b932b234ba37b960591b6044820152606401610540565b6002546040516374e399e960e11b815260048101869052602481018590526001600160a01b039091169063e9c733d290604401602060405180830381600087803b158015610b7457600080fd5b505af1158015610b88573d6000803e3d6000fd5b505050506040513d601f19601f82011682018060405250810190610bac9190612a7c565b15610ce95760035460208201516040908101519051632d42818760e21b8152600481018790526001600160401b0390911660248201526001600160a01b039091169063b50a061c90604401600060405180830381600087803b158015610c1157600080fd5b505af1158015610c25573d6000803e3d6000fd5b505060035460208401516040810151606082015182516080909301516001600160a01b03909416955063f0d6c1099450899391929091610c66908490612cd2565b6040516001600160e01b031960e088901b16815260048101959095526001600160401b03938416602486015292909116604484015264ffffffffff16606483015263ffffffff16608482015260a4015b600060405180830381600087803b158015610cd057600080fd5b505af1158015610ce4573d6000803e3d6000fd5b505050505b50505050565b604051633b11adbf60e21b815260048082015233602482015273__$364aad554dc80380f414546becdd2c1584$__9063ec46b6fc9060440160206040518083038186803b158015610d3f57600080fd5b505af4158015610d53573d6000803e3d6000fd5b505050506040513d601f19601f82011682018060405250810190610d779190612a7c565b610d935760405162461bcd60e51b815260040161054090612a9e565b60025460405163f671e82160e01b815260048101869052602481018590526000916001600160a01b03169063f671e821906044016101a06040518083038186803b158015610de057600080fd5b505afa158015610df4573d6000803e3d6000fd5b505050506040513d601f19601f82011682018060405250810190610e189190612bac565b80516080015190915064ffffffffff168214610e6d5760405162461bcd60e51b81526020600482015260146024820152732127a8259729281d103737ba10383632b233b7b960611b6044820152606401610540565b600254604051635023530760e01b81526001600160a01b0390911690635023530790610ea190889088908890600401612d06565b602060405180830381600087803b158015610ebb57600080fd5b505af1158015610ecf573d6000803e3d6000fd5b505050506040513d601f19601f82011682018060405250810190610ef39190612a7c565b5060035460208201516040908101519051632d42818760e21b8152600481018890526001600160401b0390911660248201526001600160a01b039091169063b50a061c906044015b600060405180830381600087803b158015610f5557600080fd5b505af1158015610f69573d6000803e3d6000fd5b505050505050505050565b73__$364aad554dc80380f414546becdd2c1584$__63ee98b3136004846104086124a1565b604051633b11adbf60e21b815260048082015233602482015273__$364aad554dc80380f414546becdd2c1584$__9063ec46b6fc9060440160206040518083038186803b158015610fe957600080fd5b505af4158015610ffd573d6000803e3d6000fd5b505050506040513d601f19601f820116820180604052508101906110219190612a7c565b61103d5760405162461bcd60e51b815260040161054090612a9e565b60025460405163f671e82160e01b8152600481018790526024810186905282916001600160a01b03169063f671e821906044016101a06040518083038186803b15801561108957600080fd5b505afa15801561109d573d6000803e3d6000fd5b505050506040513d601f19601f820116820180604052508101906110c19190612bac565b602001515164ffffffffff16146111125760405162461bcd60e51b81526020600482015260156024820152742127a825972a281d103737ba1031b932b234ba37b960591b6044820152606401610540565b600254604051632a17947360e11b8152600481018790526024810186905264ffffffffff851660448201526001600160401b03841660648201526001600160a01b039091169063542f28e6906084016101a060405180830381600087803b15801561117c57600080fd5b505af1158015611190573d6000803e3d6000fd5b505050506040513d601f19601f8201168201806040525081019061046f9190612bac565b60015460405163e0ff5b8b60e01b8152600560048201526001600160a01b039091169063e0ff5b8b9060240160206040518083038186803b1580156111f857600080fd5b505afa15801561120c573d6000803e3d6000fd5b505050506040513d601f19601f820116820180604052508101906112309190612d6a565b600280546001600160a01b0319166001600160a01b03929092169182179055604080516005815260208101929092527f6aa5e483fe137161b095cd68564a336d1657057f57987b1ae21019134dbc8da291015b60405180910390a1565b60015460405163e0ff5b8b60e01b8152600660048201526001600160a01b039091169063e0ff5b8b9060240160206040518083038186803b1580156112d157600080fd5b505afa1580156112e5573d6000803e3d6000fd5b505050506040513d601f19601f820116820180604052508101906113099190612d6a565b600380546001600160a01b0319166001600160a01b03929092169182179055604080516006815260208101929092527f6aa5e483fe137161b095cd68564a336d1657057f57987b1ae21019134dbc8da29101611283565b604051630f07232560e01b81526004808201523360248201526001600160a01b038216604482015273__$364aad554dc80380f414546becdd2c1584$__90630f0723259060640160006040518083038186803b1580156113bf57600080fd5b505af41580156113d3573d6000803e3d6000fd5b50506040516001600160a01b03841681527fe435cbeab64e4eae6497b9d8289704bd709d624a80704ef3ca9af777534bc6ec9250602001905061099d565b604051633b11adbf60e21b815260048082015233602482015273__$364aad554dc80380f414546becdd2c1584$__9063ec46b6fc9060440160206040518083038186803b15801561146157600080fd5b505af4158015611475573d6000803e3d6000fd5b505050506040513d601f19601f820116820180604052508101906114999190612a7c565b6114b55760405162461bcd60e51b815260040161054090612a9e565b60025460405163f671e82160e01b815260048101859052602481018490526000916001600160a01b03169063f671e821906044016101a06040518083038186803b15801561150257600080fd5b505afa158015611516573d6000803e3d6000fd5b505050506040513d601f19601f8201168201806040525081019061153a9190612bac565b80516080015190915064ffffffffff16821461158f5760405162461bcd60e51b81526020600482015260146024820152732127a8259729281d103737ba10383632b233b7b960611b6044820152606401610540565b60025460405163f424672b60e01b815260048101869052602481018590526001600160a01b039091169063f424672b90604401602060405180830381600087803b1580156115dc57600080fd5b505af11580156115f0573d6000803e3d6000fd5b505050506040513d601f19601f820116820180604052508101906116149190612a7c565b15610ce95760035460208201516040908101519051632d42818760e21b8152600481018790526001600160401b0390911660248201526001600160a01b039091169063b50a061c90604401610cb6565b604051632a3be56b60e21b8152600480820152602481018390526044810182905260009073__$364aad554dc80380f414546becdd2c1584$__9063a8ef95ac9060640160206040518083038186803b1580156116bf57600080fd5b505af41580156116d3573d6000803e3d6000fd5b505050506040513d601f19601f820116820180604052508101906116f79190612a7c565b9392505050565b604051633b11adbf60e21b815260048082015233602482015273__$364aad554dc80380f414546becdd2c1584$__9063ec46b6fc9060440160206040518083038186803b15801561174e57600080fd5b505af4158015611762573d6000803e3d6000fd5b505050506040513d601f19601f820116820180604052508101906117869190612a7c565b8061182b575073__$364aad554dc80380f414546becdd2c1584$__63fe27108660046117b06124a1565b6040516001600160e01b031960e085901b168152600481019290925264ffffffffff16602482015260440160206040518083038186803b1580156117f357600080fd5b505af4158015611807573d6000803e3d6000fd5b505050506040513d601f19601f8201168201806040525081019061182b9190612a7c565b6118475760405162461bcd60e51b815260040161054090612c7c565b60405163b6e38a2960e01b81526004808201526024810182905273__$364aad554dc80380f414546becdd2c1584$__9063b6e38a299060440160006040518083038186803b15801561189857600080fd5b505af41580156118ac573d6000803e3d6000fd5b505050507f8b6f40f36b4ae8cc5f55e895036457c43da4ab1f80f58c46f5ff0d72a650033b8160405161099d91815260200190565b60405163987ad15360e01b815260048082015260009073__$364aad554dc80380f414546becdd2c1584$__9063987ad1539060240161038e565b604051633b11adbf60e21b815260048082015233602482015273__$364aad554dc80380f414546becdd2c1584$__9063ec46b6fc9060440160206040518083038186803b15801561196b57600080fd5b505af415801561197f573d6000803e3d6000fd5b505050506040513d601f19601f820116820180604052508101906119a39190612a7c565b6119bf5760405162461bcd60e51b815260040161054090612a9e565b604051633aa65cdf60e21b81526004810188905260009073__$d113c86820c60155271829fbf7bae741f8$__9063ea99737c9060240160c06040518083038186803b158015611a0d57600080fd5b505af4158015611a21573d6000803e3d6000fd5b505050506040513d601f19601f82011682018060405250810190611a459190612d87565b60035481516040516319f6b4bf60e31b815263ffffffff909116600482015291925083916001600160a01b039091169063cfb5a5f8906024016101606040518083038186803b158015611a9757600080fd5b505afa158015611aab573d6000803e3d6000fd5b505050506040513d601f19601f82011682018060405250810190611acf9190612e39565b516080015164ffffffffff1614611b285760405162461bcd60e51b815260206004820152601860248201527f424f504b2e43503a204e4f54207368617265686f6c64657200000000000000006044820152606401610540565b81816080015164ffffffffff1614611b795760405162461bcd60e51b81526020600482015260146024820152732127a8259721a81d102727aa10383632b233b7b960611b6044820152606401610540565b6002546040516377f67c4560e11b8152600481018a905264ffffffffff8916602482015261ffff881660448201526001600160401b0380881660648301528087166084830152851660a48201526001600160a01b039091169063efecf88a9060c40160c060405180830381600087803b158015611bf557600080fd5b505af1158015611c09573d6000803e3d6000fd5b505050506040513d601f19601f82011682018060405250810190611c2d9190612d87565b600354815160405163020ddf3160e11b815263ffffffff90911660048201526001600160401b03881660248201529192506001600160a01b03169063041bbe6290604401600060405180830381600087803b158015611c8b57600080fd5b505af1158015611c9f573d6000803e3d6000fd5b505050505050505050505050565b6000611cb76124a1565b60405163cc0d511b60e01b81526004808201526024810184905264ffffffffff8216604482015290915073__$364aad554dc80380f414546becdd2c1584$__9063cc0d511b90606401610443565b604051633b11adbf60e21b815260048082015233602482015273__$364aad554dc80380f414546becdd2c1584$__9063ec46b6fc9060440160206040518083038186803b158015611d5557600080fd5b505af4158015611d69573d6000803e3d6000fd5b505050506040513d601f19601f82011682018060405250810190611d8d9190612a7c565b611da95760405162461bcd60e51b815260040161054090612a9e565b60025460405163f671e82160e01b8152600481018690526024810185905282916001600160a01b03169063f671e821906044016101a06040518083038186803b158015611df557600080fd5b505afa158015611e09573d6000803e3d6000fd5b505050506040513d601f19601f82011682018060405250810190611e2d9190612bac565b516080015164ffffffffff1614611e7d5760405162461bcd60e51b81526020600482015260146024820152732127a8259722a81d103737ba10383632b233b7b960611b6044820152606401610540565b6002546040516397f4a20560e01b8152600481018690526024810185905261ffff841660448201526001600160a01b03909116906397f4a20590606401610cb6565b611ec8826124fb565b611ed1816125aa565b604051636cdd0edf60e11b8152600480820152602481018590526001600160a01b038416604482015273__$364aad554dc80380f414546becdd2c1584$__9063d9ba1dbe9060640160006040518083038186803b158015611f3157600080fd5b505af4158015611f45573d6000803e3d6000fd5b5050604080518781526001600160a01b038781166020830152868116828401528516606082015290517f3abb2418c66fe32ba9c883030a75ce583971d9af9192b9b74e44e67c5e6c8c1f9350908190036080019150a150505050565b604051633c3e56c160e11b815260048082015260009073__$364aad554dc80380f414546becdd2c1584$__9063787cad829060240160206040518083038186803b158015611fee57600080fd5b505af4158015612002573d6000803e3d6000fd5b505050506040513d601f19601f820116820180604052508101906103de9190612d6a565b604051633b11adbf60e21b815260048082015233602482015273__$364aad554dc80380f414546becdd2c1584$__9063ec46b6fc9060440160206040518083038186803b15801561207657600080fd5b505af415801561208a573d6000803e3d6000fd5b505050506040513d601f19601f820116820180604052508101906120ae9190612a7c565b6120ca5760405162461bcd60e51b815260040161054090612a9e565b600454600160f01b900460ff166001146121265760405162461bcd60e51b815260206004820181905260248201527f41432e6f6e6c7950656e64696e673a20446f632069732066696e616c697a65646044820152606401610540565b60405163cc99e11b60e01b8152600480820152684174746f726e65797360b81b602482015273__$364aad554dc80380f414546becdd2c1584$__9063cc99e11b9060440160006040518083038186803b15801561218257600080fd5b505af4158015612196573d6000803e3d6000fd5b5050604051632725ebef60e21b81526004808201526000602482015273__$364aad554dc80380f414546becdd2c1584$__9250639c97afbc915060440160006040518083038186803b1580156121eb57600080fd5b505af41580156121ff573d6000803e3d6000fd5b50506004805460ff60f01b1916600160f11b17905550506040517f35012b512309c322acf68632cd6cb702ff0e1d776fbe9394e38ffc13b434fe7590600090a1565b604051633b11adbf60e21b815260048082015233602482015273__$364aad554dc80380f414546becdd2c1584$__9063ec46b6fc9060440160206040518083038186803b15801561229157600080fd5b505af41580156122a5573d6000803e3d6000fd5b505050506040513d601f19601f820116820180604052508101906122c99190612a7c565b6122e55760405162461bcd60e51b815260040161054090612a9e565b60025460405163f671e82160e01b815260048101869052602481018590526000916001600160a01b03169063f671e821906044016101a06040518083038186803b15801561233257600080fd5b505afa158015612346573d6000803e3d6000fd5b505050506040513d601f19601f8201168201806040525081019061236a9190612bac565b60208101515190915064ffffffffff1682146123c05760405162461bcd60e51b81526020600482015260156024820152742127a8259729221d103737ba1031b932b234ba37b960591b6044820152606401610540565b600254604051635304972760e01b815260048101879052602481018690526001600160401b03851660448201526001600160a01b03909116906353049727906064016101a060405180830381600087803b15801561241d57600080fd5b505af1158015612431573d6000803e3d6000fd5b505050506040513d601f19601f820116820180604052508101906124559190612bac565b60035460208201516040908101519051632d42818760e21b8152600481018990526001600160401b0390911660248201529192506001600160a01b03169063b50a061c90604401610f3b565b60008054604051636ae3b70d60e11b81523360048201526001600160a01b039091169063d5c76e1a90602401602060405180830381600087803b1580156124e757600080fd5b505af11580156103ba573d6000803e3d6000fd5b6000546001600160a01b03161561254c5760405162461bcd60e51b815260206004820152601560248201527430b63932b0b23c9039b2ba103932b3a1b2b73a32b960591b6044820152606401610540565b6040516001600160a01b03821681527f318da6c7624c71cbc0afe346c9d8827f119d0ecefb241a7b0c87217a076a8e029060200160405180910390a1600080546001600160a01b0319166001600160a01b0392909216919091179055565b6001546001600160a01b0316156126035760405162461bcd60e51b815260206004820152601960248201527f616c7265616479207365742067656e6572616c4b6565706572000000000000006044820152606401610540565b6040516001600160a01b03821681527fe513d3e0f0d0a3877029dcc588748679a7a3450ec1ec7ed56d96bd012c3e61aa9060200160405180910390a1600180546001600160a01b0319166001600160a01b0392909216919091179055565b6000806040838503121561267457600080fd5b50508035926020909101359150565b6000806000806080858703121561269957600080fd5b5050823594602084013594506040840135936060013592509050565b6000602082840312156126c757600080fd5b5035919050565b6000806000606084860312156126e357600080fd5b505081359360208301359350604090920135919050565b634e487b7160e01b600052604160045260246000fd5b60405160c081016001600160401b0381118282101715612732576127326126fa565b60405290565b604051606081016001600160401b0381118282101715612732576127326126fa565b604080519081016001600160401b0381118282101715612732576127326126fa565b604051601f8201601f191681016001600160401b03811182821017156127a4576127a46126fa565b604052919050565b600080600080608085870312156127c257600080fd5b84359350602080860135935060408601356001600160401b03808211156127e857600080fd5b818801915088601f8301126127fc57600080fd5b81358181111561280e5761280e6126fa565b612820601f8201601f1916850161277c565b9150808252898482850101111561283657600080fd5b8084840185840137600090820190930192909252509396929550929360600135925050565b64ffffffffff8116811461286e57600080fd5b50565b6001600160401b038116811461286e57600080fd5b600080600080600060a0868803121561289e57600080fd5b853594506020860135935060408601356128b78161285b565b925060608601356128c781612871565b949793965091946080013592915050565b6001600160a01b038116811461286e57600080fd5b6000602082840312156128ff57600080fd5b81356116f7816128d8565b61ffff8116811461286e57600080fd5b600080600080600080600060e0888a03121561293557600080fd5b8735965060208801356129478161285b565b955060408801356129578161290a565b9450606088013561296781612871565b9350608088013561297781612871565b925060a088013561298781612871565b8092505060c0880135905092959891949750929550565b600080600080608085870312156129b457600080fd5b843593506020850135925060408501356129cd8161290a565b9396929550929360600135925050565b600080600080608085870312156129f357600080fd5b843593506020850135612a05816128d8565b92506040850135612a15816128d8565b91506060850135612a25816128d8565b939692955090935050565b60008060008060808587031215612a4657600080fd5b843593506020850135925060408501356129cd81612871565b600060208284031215612a7157600080fd5b81516116f78161285b565b600060208284031215612a8e57600080fd5b815180151581146116f757600080fd5b60208082526026908201527f41432e6f6e6c794469726563744b65657065723a206e6f74206469726563742060408201526535b2b2b832b960d11b606082015260800190565b805163ffffffff81168114612af857600080fd5b919050565b805165ffffffffffff81168114612af857600080fd5b600060c08284031215612b2557600080fd5b612b2d612710565b9050612b3882612ae4565b81526020820151612b488161290a565b6020820152612b5960408301612afd565b6040820152612b6a60608301612afd565b60608201526080820151612b7d8161285b565b608082015260a0820151612b908161285b565b60a082015292915050565b805160ff81168114612af857600080fd5b60008183036101a0811215612bc057600080fd5b612bc8612738565b612bd28585612b13565b815260c060bf1983011215612be657600080fd5b612bee612710565b915060c0840151612bfe8161285b565b825260e0840151612c0e8161290a565b6020830152610100840151612c2281612871565b6040830152610120840151612c3681612871565b6060830152610140840151612c4a81612871565b6080830152612c5c6101608501612b9b565b60a083015260208101919091526101809290920151604083015250919050565b60208082526036908201527f41432e6f776e65724f72446972656374426f6f6b65657065723a206e6569746860408201527532b91037bbb732b9103737b9103137b7b5b2b2b832b960511b606082015260800190565b60006001600160401b0380841680612cfa57634e487b7160e01b600052601260045260246000fd5b92169190910492915050565b83815260006020848184015260606040840152835180606085015260005b81811015612d4057858101830151858201608001528201612d24565b81811115612d52576000608083870101525b50601f01601f19169290920160800195945050505050565b600060208284031215612d7c57600080fd5b81516116f7816128d8565b600060c08284031215612d9957600080fd5b6116f78383612b13565b600060a08284031215612db557600080fd5b60405160a081018181106001600160401b0382111715612dd757612dd76126fa565b604052905080612de683612afd565b81526020830151612df681612871565b60208201526040830151612e0981612871565b60408201526060830151612e1c81612871565b6060820152612e2d60808401612b9b565b60808201525092915050565b6000818303610160811215612e4d57600080fd5b612e5561275a565b60c0821215612e6357600080fd5b612e6b612710565b9150612e7684612ae4565b8252612e8460208501612ae4565b60208301526040840151612e978161290a565b6040830152612ea860608501612afd565b60608301526080840151612ebb8161285b565b6080830152612ecc60a08501612ae4565b60a0830152818152612ee18560c08601612da3565b602082015294935050505056fea26469706673582212209467fba5d9487ea974865539ce695f45429b2c61c114cdfedac86e782bd4697d64736f6c63430008080033",
    "sourcePath": "/Users/kaptain/github.com/hardhat/comboox/contracts/keepers/BOPKeeper.sol",
    "compiler": {
        "name": "solc",
        "version": "0.8.8+commit.dddeac2f"
    },
    "functionHashes": {
        "abandonRole(bytes32)": "3da9a600",
        "createPledge(uint256,uint40,uint16,uint64,uint64,uint64,uint256)": "8a150285",
        "execPledge(uint256,uint256,uint256)": "4c70a093",
        "extendPledge(uint256,uint256,uint16,uint256)": "9a92065d",
        "finalized()": "b3f05b97",
        "getBookeeper()": "ed211023",
        "getGeneralCounsel()": "103f6edd",
        "getOwner()": "893d20e8",
        "grantRole(bytes32,uint256)": "1b6ea9f9",
        "hasRole(bytes32,uint256)": "7e063c5a",
        "init(uint256,address,address,address)": "dc890da9",
        "initBOP()": "605f0d0d",
        "initBOS()": "62ce0a28",
        "lockContents()": "f045a769",
        "lockPledge(uint256,uint256,bytes32,uint256)": "3067033d",
        "refundDebt(uint256,uint256,uint64,uint256)": "fb268c58",
        "releasePledge(uint256,uint256,string,uint256)": "4c76218b",
        "renounceRole(bytes32)": "8bb9c5bf",
        "revokePledge(uint256,uint256,uint256)": "72b5e711",
        "revokeRole(bytes32,uint256)": "19d61ad9",
        "setDirectKeeper(address)": "6be8496f",
        "setGeneralCounsel(uint256)": "4a14beb1",
        "setOwner(uint256)": "8041494e",
        "setRoleAdmin(bytes32,uint256)": "5171ebd4",
        "transferPledge(uint256,uint256,uint40,uint64,uint256)": "55914410"
    },
    "gasEstimates": {
        "creation": {
            "codeDepositCost": "2413600",
            "executionCost": "2598",
            "totalCost": "2416198"
        },
        "external": {
            "abandonRole(bytes32)": "infinite",
            "createPledge(uint256,uint40,uint16,uint64,uint64,uint64,uint256)": "infinite",
            "execPledge(uint256,uint256,uint256)": "infinite",
            "extendPledge(uint256,uint256,uint16,uint256)": "infinite",
            "finalized()": "2416",
            "getBookeeper()": "infinite",
            "getGeneralCounsel()": "infinite",
            "getOwner()": "infinite",
            "grantRole(bytes32,uint256)": "infinite",
            "hasRole(bytes32,uint256)": "infinite",
            "init(uint256,address,address,address)": "infinite",
            "initBOP()": "infinite",
            "initBOS()": "infinite",
            "lockContents()": "infinite",
            "lockPledge(uint256,uint256,bytes32,uint256)": "infinite",
            "refundDebt(uint256,uint256,uint64,uint256)": "infinite",
            "releasePledge(uint256,uint256,string,uint256)": "infinite",
            "renounceRole(bytes32)": "infinite",
            "revokePledge(uint256,uint256,uint256)": "infinite",
            "revokeRole(bytes32,uint256)": "infinite",
            "setDirectKeeper(address)": "infinite",
            "setGeneralCounsel(uint256)": "infinite",
            "setOwner(uint256)": "infinite",
            "setRoleAdmin(bytes32,uint256)": "infinite",
            "transferPledge(uint256,uint256,uint40,uint64,uint256)": "infinite"
        }
    }
}