{
    "contractName": "BOPKeeper",
    "abi": [
        {
            "anonymous": false,
            "inputs": [
                {
                    "indexed": true,
                    "internalType": "address",
                    "name": "owner",
                    "type": "address"
                },
                {
                    "indexed": true,
                    "internalType": "address",
                    "name": "directKeeper",
                    "type": "address"
                },
                {
                    "indexed": false,
                    "internalType": "address",
                    "name": "regCenter",
                    "type": "address"
                },
                {
                    "indexed": true,
                    "internalType": "address",
                    "name": "generalKeeper",
                    "type": "address"
                }
            ],
            "name": "Init",
            "type": "event"
        },
        {
            "anonymous": false,
            "inputs": [],
            "name": "LockContents",
            "type": "event"
        },
        {
            "anonymous": false,
            "inputs": [
                {
                    "indexed": true,
                    "internalType": "address",
                    "name": "keeper",
                    "type": "address"
                }
            ],
            "name": "SetDirectKeeper",
            "type": "event"
        },
        {
            "anonymous": false,
            "inputs": [
                {
                    "indexed": true,
                    "internalType": "address",
                    "name": "acct",
                    "type": "address"
                }
            ],
            "name": "SetOwner",
            "type": "event"
        },
        {
            "anonymous": false,
            "inputs": [
                {
                    "indexed": true,
                    "internalType": "bytes32",
                    "name": "role",
                    "type": "bytes32"
                },
                {
                    "indexed": true,
                    "internalType": "address",
                    "name": "acct",
                    "type": "address"
                }
            ],
            "name": "SetRoleAdmin",
            "type": "event"
        },
        {
            "inputs": [
                {
                    "internalType": "bytes32",
                    "name": "role",
                    "type": "bytes32"
                }
            ],
            "name": "abandonRole",
            "outputs": [],
            "stateMutability": "nonpayable",
            "type": "function"
        },
        {
            "inputs": [
                {
                    "internalType": "bytes32",
                    "name": "snOfPld",
                    "type": "bytes32"
                },
                {
                    "internalType": "uint256",
                    "name": "paid",
                    "type": "uint256"
                },
                {
                    "internalType": "uint256",
                    "name": "par",
                    "type": "uint256"
                },
                {
                    "internalType": "uint256",
                    "name": "guaranteedAmt",
                    "type": "uint256"
                },
                {
                    "internalType": "uint256",
                    "name": "execDays",
                    "type": "uint256"
                },
                {
                    "internalType": "uint256",
                    "name": "caller",
                    "type": "uint256"
                }
            ],
            "name": "createPledge",
            "outputs": [],
            "stateMutability": "nonpayable",
            "type": "function"
        },
        {
            "inputs": [
                {
                    "internalType": "bytes32",
                    "name": "snOfDeal",
                    "type": "bytes32"
                },
                {
                    "internalType": "uint256",
                    "name": "seqOfPld",
                    "type": "uint256"
                },
                {
                    "internalType": "uint256",
                    "name": "version",
                    "type": "uint256"
                },
                {
                    "internalType": "address",
                    "name": "primeKeyOfCaller",
                    "type": "address"
                },
                {
                    "internalType": "uint256",
                    "name": "buyer",
                    "type": "uint256"
                },
                {
                    "internalType": "uint256",
                    "name": "groupOfBuyer",
                    "type": "uint256"
                },
                {
                    "internalType": "uint256",
                    "name": "caller",
                    "type": "uint256"
                }
            ],
            "name": "execPledge",
            "outputs": [],
            "stateMutability": "nonpayable",
            "type": "function"
        },
        {
            "inputs": [
                {
                    "internalType": "uint256",
                    "name": "seqOfShare",
                    "type": "uint256"
                },
                {
                    "internalType": "uint256",
                    "name": "seqOfPld",
                    "type": "uint256"
                },
                {
                    "internalType": "uint256",
                    "name": "extDays",
                    "type": "uint256"
                },
                {
                    "internalType": "uint256",
                    "name": "caller",
                    "type": "uint256"
                }
            ],
            "name": "extendPledge",
            "outputs": [],
            "stateMutability": "nonpayable",
            "type": "function"
        },
        {
            "inputs": [],
            "name": "getDK",
            "outputs": [
                {
                    "internalType": "address",
                    "name": "",
                    "type": "address"
                }
            ],
            "stateMutability": "view",
            "type": "function"
        },
        {
            "inputs": [],
            "name": "getOwner",
            "outputs": [
                {
                    "internalType": "address",
                    "name": "",
                    "type": "address"
                }
            ],
            "stateMutability": "view",
            "type": "function"
        },
        {
            "inputs": [
                {
                    "internalType": "bytes32",
                    "name": "role",
                    "type": "bytes32"
                }
            ],
            "name": "getRoleAdmin",
            "outputs": [
                {
                    "internalType": "address",
                    "name": "",
                    "type": "address"
                }
            ],
            "stateMutability": "view",
            "type": "function"
        },
        {
            "inputs": [
                {
                    "internalType": "bytes32",
                    "name": "role",
                    "type": "bytes32"
                },
                {
                    "internalType": "address",
                    "name": "acct",
                    "type": "address"
                }
            ],
            "name": "grantRole",
            "outputs": [],
            "stateMutability": "nonpayable",
            "type": "function"
        },
        {
            "inputs": [
                {
                    "internalType": "bytes32",
                    "name": "role",
                    "type": "bytes32"
                },
                {
                    "internalType": "address",
                    "name": "acct",
                    "type": "address"
                }
            ],
            "name": "hasRole",
            "outputs": [
                {
                    "internalType": "bool",
                    "name": "",
                    "type": "bool"
                }
            ],
            "stateMutability": "view",
            "type": "function"
        },
        {
            "inputs": [
                {
                    "internalType": "address",
                    "name": "owner",
                    "type": "address"
                },
                {
                    "internalType": "address",
                    "name": "directKeeper",
                    "type": "address"
                },
                {
                    "internalType": "address",
                    "name": "regCenter",
                    "type": "address"
                },
                {
                    "internalType": "address",
                    "name": "generalKeeper",
                    "type": "address"
                }
            ],
            "name": "init",
            "outputs": [],
            "stateMutability": "nonpayable",
            "type": "function"
        },
        {
            "inputs": [],
            "name": "isFinalized",
            "outputs": [
                {
                    "internalType": "bool",
                    "name": "",
                    "type": "bool"
                }
            ],
            "stateMutability": "view",
            "type": "function"
        },
        {
            "inputs": [],
            "name": "lockContents",
            "outputs": [],
            "stateMutability": "nonpayable",
            "type": "function"
        },
        {
            "inputs": [
                {
                    "internalType": "uint256",
                    "name": "seqOfShare",
                    "type": "uint256"
                },
                {
                    "internalType": "uint256",
                    "name": "seqOfPld",
                    "type": "uint256"
                },
                {
                    "internalType": "bytes32",
                    "name": "hashLock",
                    "type": "bytes32"
                },
                {
                    "internalType": "uint256",
                    "name": "caller",
                    "type": "uint256"
                }
            ],
            "name": "lockPledge",
            "outputs": [],
            "stateMutability": "nonpayable",
            "type": "function"
        },
        {
            "inputs": [
                {
                    "internalType": "uint256",
                    "name": "seqOfShare",
                    "type": "uint256"
                },
                {
                    "internalType": "uint256",
                    "name": "seqOfPld",
                    "type": "uint256"
                },
                {
                    "internalType": "uint256",
                    "name": "amt",
                    "type": "uint256"
                },
                {
                    "internalType": "uint256",
                    "name": "caller",
                    "type": "uint256"
                }
            ],
            "name": "refundDebt",
            "outputs": [],
            "stateMutability": "nonpayable",
            "type": "function"
        },
        {
            "inputs": [
                {
                    "internalType": "uint256",
                    "name": "seqOfShare",
                    "type": "uint256"
                },
                {
                    "internalType": "uint256",
                    "name": "seqOfPld",
                    "type": "uint256"
                },
                {
                    "internalType": "string",
                    "name": "hashKey",
                    "type": "string"
                }
            ],
            "name": "releasePledge",
            "outputs": [],
            "stateMutability": "nonpayable",
            "type": "function"
        },
        {
            "inputs": [
                {
                    "internalType": "bytes32",
                    "name": "role",
                    "type": "bytes32"
                }
            ],
            "name": "renounceRole",
            "outputs": [],
            "stateMutability": "nonpayable",
            "type": "function"
        },
        {
            "inputs": [
                {
                    "internalType": "uint256",
                    "name": "seqOfShare",
                    "type": "uint256"
                },
                {
                    "internalType": "uint256",
                    "name": "seqOfPld",
                    "type": "uint256"
                },
                {
                    "internalType": "uint256",
                    "name": "caller",
                    "type": "uint256"
                }
            ],
            "name": "revokePledge",
            "outputs": [],
            "stateMutability": "nonpayable",
            "type": "function"
        },
        {
            "inputs": [
                {
                    "internalType": "bytes32",
                    "name": "role",
                    "type": "bytes32"
                },
                {
                    "internalType": "address",
                    "name": "acct",
                    "type": "address"
                }
            ],
            "name": "revokeRole",
            "outputs": [],
            "stateMutability": "nonpayable",
            "type": "function"
        },
        {
            "inputs": [
                {
                    "internalType": "address",
                    "name": "acct",
                    "type": "address"
                }
            ],
            "name": "setDirectKeeper",
            "outputs": [],
            "stateMutability": "nonpayable",
            "type": "function"
        },
        {
            "inputs": [
                {
                    "internalType": "address",
                    "name": "acct",
                    "type": "address"
                }
            ],
            "name": "setOwner",
            "outputs": [],
            "stateMutability": "nonpayable",
            "type": "function"
        },
        {
            "inputs": [
                {
                    "internalType": "bytes32",
                    "name": "role",
                    "type": "bytes32"
                },
                {
                    "internalType": "address",
                    "name": "acct",
                    "type": "address"
                }
            ],
            "name": "setRoleAdmin",
            "outputs": [],
            "stateMutability": "nonpayable",
            "type": "function"
        },
        {
            "inputs": [
                {
                    "internalType": "uint256",
                    "name": "seqOfShare",
                    "type": "uint256"
                },
                {
                    "internalType": "uint256",
                    "name": "seqOfPld",
                    "type": "uint256"
                },
                {
                    "internalType": "uint256",
                    "name": "buyer",
                    "type": "uint256"
                },
                {
                    "internalType": "uint256",
                    "name": "amt",
                    "type": "uint256"
                },
                {
                    "internalType": "uint256",
                    "name": "caller",
                    "type": "uint256"
                }
            ],
            "name": "transferPledge",
            "outputs": [],
            "stateMutability": "nonpayable",
            "type": "function"
        }
    ],
    "bytecode": "6080604052600454600580546001600160a01b0319166001600160a01b0390921691909117905534801561003257600080fd5b50613648806100426000396000f3fe608060405234801561001057600080fd5b50600436106101425760003560e01c80636be8496f116100b85780638d4e40831161007c5780638d4e40831461028957806391d14854146102aa578063ad763192146102bd578063ca6de9ac146102d0578063d547741f146102e3578063f045a769146102f657600080fd5b80636be8496f1461023557806372b5e711146102485780637632be021461025b578063893d20e81461026e5780638bb9c5bf1461027657600080fd5b806333e685301161010a57806333e68530146101c55780633da9a600146101d8578063417dea25146101eb57806350235307146101fe57806350627aea146102115780635551fc481461022257600080fd5b806306552ff31461014757806313af40351461015c578063248a9ca31461016f5780632f2ff15d1461019f5780633067033d146101b2575b600080fd5b61015a610155366004612524565b6102fe565b005b61015a61016a366004612580565b6103ed565b61018261017d36600461259d565b61049c565b6040516001600160a01b0390911681526020015b60405180910390f35b61015a6101ad3660046125b6565b61052f565b61015a6101c03660046125e6565b6105a1565b61015a6101d3366004612618565b6106d2565b61015a6101e636600461259d565b610a87565b61015a6101f93660046125e6565b610afb565b61015a61020c366004612776565b610bef565b6002546001600160a01b0316610182565b61015a61023036600461281d565b610ddd565b61015a610243366004612580565b610f26565b61015a610256366004612858565b610f9a565b61015a610269366004612884565b611283565b6101826116e9565b61015a61028436600461259d565b611774565b600054600160a01b900460ff166002145b6040519015158152602001610196565b61029a6102b83660046125b6565b6117b9565b61015a6102cb3660046125b6565b61185c565b61015a6102de3660046125e6565b611904565b61015a6102f13660046125b6565b611a8d565b61015a611acb565b60405163013faf4960e71b8152600060048201526001600160a01b038516602482015273__$a374c895e6fa8c448878668e00d93ef99a$__90639fd7a4809060440160006040518083038186803b15801561035857600080fd5b505af415801561036c573d6000803e3d6000fd5b5050600280546001600160a01b038781166001600160a01b0319928316811790935560038054888316908416811790915560048054888416941684179055604051908152919450919250908716907f11e5c44db2defe55dea9656ae7848e94dc9f3e66eb342a7b84547a68d31c393a9060200160405180910390a450505050565b6040516351e7e80560e01b8152600060048201526001600160a01b038216602482015233604482015273__$a374c895e6fa8c448878668e00d93ef99a$__906351e7e8059060640160006040518083038186803b15801561044d57600080fd5b505af4158015610461573d6000803e3d6000fd5b50506040516001600160a01b03841692507f167d3e9c1016ab80e58802ca9da10ce5c6a0f4debc46a2e7a2cd9e56899a4fb59150600090a250565b604051639423dd0560e01b8152600060048201819052602482018390529073__$a374c895e6fa8c448878668e00d93ef99a$__90639423dd059060440160206040518083038186803b1580156104f157600080fd5b505af4158015610505573d6000803e3d6000fd5b505050506040513d601f19601f8201168201806040525081019061052991906128f0565b92915050565b604051633d3c5d2760e01b815273__$a374c895e6fa8c448878668e00d93ef99a$__90633d3c5d279061056d9060009086908690339060040161290d565b60006040518083038186803b15801561058557600080fd5b505af4158015610599573d6000803e3d6000fd5b505050505050565b6002546001600160a01b031633146105d45760405162461bcd60e51b81526004016105cb90612934565b60405180910390fd5b600560009054906101000a90046001600160a01b03166001600160a01b03166320fbea4e6040518163ffffffff1660e01b815260040160206040518083038186803b15801561062257600080fd5b505afa158015610636573d6000803e3d6000fd5b505050506040513d601f19601f8201168201806040525081019061065a91906128f0565b604051633067033d60e01b8152600481018690526024810185905260448101849052606481018390526001600160a01b039190911690633067033d906084015b600060405180830381600087803b1580156106b457600080fd5b505af11580156106c8573d6000803e3d6000fd5b5050505050505050565b6002546001600160a01b031633146106fc5760405162461bcd60e51b81526004016105cb90612934565b604051637dfd694760e11b81526004810187905260009073__$1fc3c1242eb97c1a973a3d89a72820680f$__9063fbfad28e906024016101206040518083038186803b15801561074b57600080fd5b505af415801561075f573d6000803e3d6000fd5b505050506040513d601f19601f820116820180604052508101906107839190612a75565b90506000600560009054906101000a90046001600160a01b03166001600160a01b031663f01e100f6040518163ffffffff1660e01b815260040160206040518083038186803b1580156107d557600080fd5b505afa1580156107e9573d6000803e3d6000fd5b505050506040513d601f19601f8201168201806040525081019061080d91906128f0565b82516040516319f6b4bf60e31b815263ffffffff90911660048201529091506001600160a01b0382169063cfb5a5f8906024016101e06040518083038186803b15801561085957600080fd5b505afa15801561086d573d6000803e3d6000fd5b505050506040513d601f19601f820116820180604052508101906108919190612b4a565b516080015164ffffffffff1660e0830181905283146108f25760405162461bcd60e51b815260206004820152601f60248201527f424f504b2e637265617465506c643a204e4f54207368617265686f6c6465720060448201526064016105cb565b600560009054906101000a90046001600160a01b03166001600160a01b03166320fbea4e6040518163ffffffff1660e01b815260040160206040518083038186803b15801561094057600080fd5b505afa158015610954573d6000803e3d6000fd5b505050506040513d601f19601f8201168201806040525081019061097891906128f0565b604051630db7f3e560e21b8152600481018a9052602481018990526044810188905260648101879052608481018690526001600160a01b0391909116906336dfcf949060a40161012060405180830381600087803b1580156109d957600080fd5b505af11580156109ed573d6000803e3d6000fd5b505050506040513d601f19601f82011682018060405250810190610a119190612a75565b80516040516360d095df60e01b815263ffffffff9091166004820152602481018990529092506001600160a01b038216906360d095df90604401600060405180830381600087803b158015610a6557600080fd5b505af1158015610a79573d6000803e3d6000fd5b505050505050505050505050565b60405163bf2755e360e01b8152600060048201526024810182905233604482015273__$a374c895e6fa8c448878668e00d93ef99a$__9063bf2755e3906064015b60006040518083038186803b158015610ae057600080fd5b505af4158015610af4573d6000803e3d6000fd5b5050505050565b6002546001600160a01b03163314610b255760405162461bcd60e51b81526004016105cb90612934565b600560009054906101000a90046001600160a01b03166001600160a01b03166320fbea4e6040518163ffffffff1660e01b815260040160206040518083038186803b158015610b7357600080fd5b505afa158015610b87573d6000803e3d6000fd5b505050506040513d601f19601f82011682018060405250810190610bab91906128f0565b60405163417dea2560e01b8152600481018690526024810185905260448101849052606481018390526001600160a01b03919091169063417dea259060840161069a565b6002546001600160a01b03163314610c195760405162461bcd60e51b81526004016105cb90612934565b6005546040805163107df52760e11b815290516000926001600160a01b0316916320fbea4e916004808301926020929190829003018186803b158015610c5e57600080fd5b505afa158015610c72573d6000803e3d6000fd5b505050506040513d601f19601f82011682018060405250810190610c9691906128f0565b6001600160a01b031663502353078585856040518463ffffffff1660e01b8152600401610cc593929190612c31565b602060405180830381600087803b158015610cdf57600080fd5b505af1158015610cf3573d6000803e3d6000fd5b505050506040513d601f19601f82011682018060405250810190610d179190612c95565b9050600560009054906101000a90046001600160a01b03166001600160a01b031663f01e100f6040518163ffffffff1660e01b815260040160206040518083038186803b158015610d6757600080fd5b505afa158015610d7b573d6000803e3d6000fd5b505050506040513d601f19601f82011682018060405250810190610d9f91906128f0565b60405163ccdddd4160e01b8152600481018690526001600160401b03831660248201526001600160a01b03919091169063ccdddd419060440161069a565b6002546001600160a01b03163314610e075760405162461bcd60e51b81526004016105cb90612934565b600560009054906101000a90046001600160a01b03166001600160a01b03166320fbea4e6040518163ffffffff1660e01b815260040160206040518083038186803b158015610e5557600080fd5b505afa158015610e69573d6000803e3d6000fd5b505050506040513d601f19601f82011682018060405250810190610e8d91906128f0565b604051630aaa3f8960e31b815260048101879052602481018690526044810185905260648101849052608481018390526001600160a01b039190911690635551fc489060a40161022060405180830381600087803b158015610eee57600080fd5b505af1158015610f02573d6000803e3d6000fd5b505050506040513d601f19601f820116820180604052508101906105999190612cb0565b6002546001600160a01b03163314610f505760405162461bcd60e51b81526004016105cb90612934565b600280546001600160a01b0319166001600160a01b0383169081179091556040517fe435cbeab64e4eae6497b9d8289704bd709d624a80704ef3ca9af777534bc6ec90600090a250565b6002546001600160a01b03163314610fc45760405162461bcd60e51b81526004016105cb90612934565b6005546040805163107df52760e11b815290516000926001600160a01b0316916320fbea4e916004808301926020929190829003018186803b15801561100957600080fd5b505afa15801561101d573d6000803e3d6000fd5b505050506040513d601f19601f8201168201806040525081019061104191906128f0565b60405163f671e82160e01b815260048101869052602481018590529091506000906001600160a01b0383169063f671e821906044016102206040518083038186803b15801561108f57600080fd5b505afa1580156110a3573d6000803e3d6000fd5b505050506040513d601f19601f820116820180604052508101906110c79190612cb0565b805160e0015190915064ffffffffff16831461111c5760405162461bcd60e51b81526020600482015260146024820152732127a8259729281d103737ba10383632b233b7b960611b60448201526064016105cb565b6040516372b5e71160e01b81526004810186905260248101859052604481018490526001600160a01b038316906372b5e71190606401600060405180830381600087803b15801561116c57600080fd5b505af1158015611180573d6000803e3d6000fd5b50505050600560009054906101000a90046001600160a01b03166001600160a01b031663f01e100f6040518163ffffffff1660e01b815260040160206040518083038186803b1580156111d257600080fd5b505afa1580156111e6573d6000803e3d6000fd5b505050506040513d601f19601f8201168201806040525081019061120a91906128f0565b60208201515160405163ccdddd4160e01b8152600481018890526001600160401b0390911660248201526001600160a01b03919091169063ccdddd4190604401600060405180830381600087803b15801561126457600080fd5b505af1158015611278573d6000803e3d6000fd5b505050505050505050565b6002546001600160a01b031633146112ad5760405162461bcd60e51b81526004016105cb90612934565b6112b561245f565b604051637dfd694760e11b81526004810189905273__$23dd9d551e721d1017bc44715ea3b7f356$__9063fbfad28e906024016101406040518083038186803b15801561130157600080fd5b505af4158015611315573d6000803e3d6000fd5b505050506040513d601f19601f820116820180604052508101906113399190612d8b565b815260055460408051632125578b60e11b815290516000926001600160a01b03169163424aaf16916004808301926020929190829003018186803b15801561138057600080fd5b505afa158015611394573d6000803e3d6000fd5b505050506040513d601f19601f820116820180604052508101906113b891906128f0565b90506000600560009054906101000a90046001600160a01b03166001600160a01b03166360c2a3406040518163ffffffff1660e01b815260040160206040518083038186803b15801561140a57600080fd5b505afa15801561141e573d6000803e3d6000fd5b505050506040513d601f19601f8201168201806040525081019061144291906128f0565b9050600061146284600001516080015163ffffffff168b8b8b878a611c5c565b90506000600560009054906101000a90046001600160a01b03166001600160a01b03166320fbea4e6040518163ffffffff1660e01b815260040160206040518083038186803b1580156114b457600080fd5b505afa1580156114c8573d6000803e3d6000fd5b505050506040513d601f19601f820116820180604052508101906114ec91906128f0565b85516080015160405163f671e82160e01b815263ffffffff9091166004820152602481018d90526001600160a01b03919091169063f671e821906044016102206040518083038186803b15801561154257600080fd5b505afa158015611556573d6000803e3d6000fd5b505050506040513d601f19601f8201168201806040525081019061157a9190612cb0565b6020808701805164ffffffffff808d169091528151908b169083015281830180515182516001600160401b0391821660409182015291518401519251921660609092019190915260055481516364ea7a6360e11b815291519394506001600160a01b03169263c9d4f4c692600480840193919291829003018186803b15801561160257600080fd5b505afa158015611616573d6000803e3d6000fd5b505050506040513d601f19601f8201168201806040525081019061163a91906128f0565b6001600160a01b031663d50c7377896040518263ffffffff1660e01b815260040161166791815260200190565b60206040518083038186803b15801561167f57600080fd5b505afa158015611693573d6000803e3d6000fd5b505050506040513d601f19601f820116820180604052508101906116b79190612e63565b6116c25760026116c5565b60035b855160ff90911690526116d9858386611f9f565b9450610a7983858488858b6122cd565b6040516394916c4760e01b81526000600482018190529073__$a374c895e6fa8c448878668e00d93ef99a$__906394916c479060240160206040518083038186803b15801561173757600080fd5b505af415801561174b573d6000803e3d6000fd5b505050506040513d601f19601f8201168201806040525081019061176f91906128f0565b905090565b604051632d16622360e11b8152600060048201526024810182905233604482015273__$a374c895e6fa8c448878668e00d93ef99a$__90635a2cc44690606401610ac8565b604051632c7ebf7360e01b8152600060048201819052602482018490526001600160a01b03831660448301529073__$a374c895e6fa8c448878668e00d93ef99a$__90632c7ebf739060640160206040518083038186803b15801561181d57600080fd5b505af4158015611831573d6000803e3d6000fd5b505050506040513d601f19601f820116820180604052508101906118559190612e63565b9392505050565b60405163f17b815160e01b815273__$a374c895e6fa8c448878668e00d93ef99a$__9063f17b81519061189a9060009086908690339060040161290d565b60006040518083038186803b1580156118b257600080fd5b505af41580156118c6573d6000803e3d6000fd5b50506040516001600160a01b03841692508491507fc58ebc6bc4ca6dc8356357e625ffa0eb58d0db30d94a31a80a840e1cc74d2df990600090a35050565b6002546001600160a01b0316331461192e5760405162461bcd60e51b81526004016105cb90612934565b6005546040805163107df52760e11b815290516000926001600160a01b0316916320fbea4e916004808301926020929190829003018186803b15801561197357600080fd5b505afa158015611987573d6000803e3d6000fd5b505050506040513d601f19601f820116820180604052508101906119ab91906128f0565b60405163329b7a6b60e21b8152600481018790526024810186905260448101859052606481018490526001600160a01b03919091169063ca6de9ac9060840161022060405180830381600087803b158015611a0557600080fd5b505af1158015611a19573d6000803e3d6000fd5b505050506040513d601f19601f82011682018060405250810190611a3d9190612cb0565b9050600560009054906101000a90046001600160a01b03166001600160a01b031663f01e100f6040518163ffffffff1660e01b815260040160206040518083038186803b1580156111d257600080fd5b60405163303b779f60e01b815273__$a374c895e6fa8c448878668e00d93ef99a$__9063303b779f9061056d9060009086908690339060040161290d565b600054600160a01b900460ff16600114611b275760405162461bcd60e51b815260206004820152601c60248201527f41432e6c6f636b436f6e74656e74733a2077726f6e672073746174650000000060448201526064016105cb565b60405163bf2755e360e01b815260006004820152684174746f726e65797360b81b602482015233604482018190529073__$a374c895e6fa8c448878668e00d93ef99a$__9063bf2755e39060640160006040518083038186803b158015611b8d57600080fd5b505af4158015611ba1573d6000803e3d6000fd5b50506040516351e7e80560e01b815260006004820181905260248201526001600160a01b038416604482015273__$a374c895e6fa8c448878668e00d93ef99a$__92506351e7e805915060640160006040518083038186803b158015611c0657600080fd5b505af4158015611c1a573d6000803e3d6000fd5b50506000805460ff60a01b1916600160a11b1781556040517f35012b512309c322acf68632cd6cb702ff0e1d776fbe9394e38ffc13b434fe759350909150a150565b6005546040805163107df52760e11b815290516000926001600160a01b0316916320fbea4e916004808301926020929190829003018186803b158015611ca157600080fd5b505afa158015611cb5573d6000803e3d6000fd5b505050506040513d601f19601f82011682018060405250810190611cd991906128f0565b604051634c70a09360e01b81526004810189905260248101889052604481018490526001600160a01b039190911690634c70a09390606401600060405180830381600087803b158015611d2b57600080fd5b505af1158015611d3f573d6000803e3d6000fd5b5060009250611d5991505060e087901b600b60f11b612e94565b90506000611d6f6003546001600160a01b031690565b60405163966ef88d60e01b8152600481018490526001600160a01b038881166024830152919091169063966ef88d9060440161014060405180830381600087803b158015611dbc57600080fd5b505af1158015611dd0573d6000803e3d6000fd5b505050506040513d601f19601f82011682018060405250810190611df49190612eac565b905080602001516001600160a01b03166306552ff38730611e1d6003546001600160a01b031690565b60055460405160e086901b6001600160e01b03191681526001600160a01b03948516600482015292841660248401529083166044830152919091166064820152608401600060405180830381600087803b158015611e7a57600080fd5b505af1158015611e8e573d6000803e3d6000fd5b505082516040516324d5cef160e11b81526001600160a01b038916935063024dd8c4925073__$09abfa05dcde8203885d48940a2fca9f8f$__916349ab9de291611edb9190600401612f84565b60206040518083038186803b158015611ef357600080fd5b505af4158015611f07573d6000803e3d6000fd5b505050506040513d601f19601f82011682018060405250810190611f2b9190613047565b60208401516040516001600160e01b031960e085901b16815260048101929092526001600160a01b03166024820152604401600060405180830381600087803b158015611f7757600080fd5b505af1158015611f8b573d6000803e3d6000fd5b505050506020015198975050505050505050565b611fa761245f565b604051631f24908560e31b81526001600160a01b0384169063f924842890611fd39087906004016130e5565b602060405180830381600087803b158015611fed57600080fd5b505af1158015612001573d6000803e3d6000fd5b505050506040513d601f19601f8201168201806040525081019061202591906131de565b845161ffff919091166020909101528351516040516338a6b6a360e11b815260ff90911660048201526001600160a01b0384169063714d6d4690602401600060405180830381600087803b15801561207c57600080fd5b505af1158015612090573d6000803e3d6000fd5b50505050600073__$fd7bbdaedbcbc33e1887256b0ab47b2b43$__638503d8d6600560009054906101000a90046001600160a01b03166001600160a01b031663a61adc286040518163ffffffff1660e01b815260040160206040518083038186803b1580156120fe57600080fd5b505afa158015612112573d6000803e3d6000fd5b505050506040513d601f19601f8201168201806040525081019061213691906128f0565b875151604051634846203760e01b815260ff90911660048201526001600160a01b03919091169063484620379060240160206040518083038186803b15801561217e57600080fd5b505afa158015612192573d6000803e3d6000fd5b505050506040513d601f19601f820116820180604052508101906121b69190613047565b6040518263ffffffff1660e01b81526004016121d491815260200190565b6102606040518083038186803b1580156121ed57600080fd5b505af4158015612201573d6000803e3d6000fd5b505050506040513d601f19601f82011682018060405250810190612225919061326f565b9050826001600160a01b0316636215b0e485600062015180428a60000151610100015161225291906133c9565b61225e9061a8c06133f0565b612268919061341a565b6040516001600160e01b031960e086901b168152612292939291908790600090819060040161347d565b600060405180830381600087803b1580156122ac57600080fd5b505af11580156122c0573d6000803e3d6000fd5b5096979650505050505050565b825151825160e001516040516336a2ddaf60e21b81526001600160a01b03878116600483015260ff90931660248201526044810184905264ffffffffff909116606482015260009188169063da8b76bc90608401602060405180830381600087803b15801561233b57600080fd5b505af115801561234f573d6000803e3d6000fd5b505050506040513d601f19601f820116820180604052508101906123739190612c95565b835160e0015160405163ec83613b60e01b81526001600160401b038316600482015264ffffffffff90911660248201529091506001600160a01b0388169063ec83613b90604401600060405180830381600087803b1580156123d457600080fd5b505af11580156123e8573d6000803e3d6000fd5b505060405163055ad79f60e41b81526001600160a01b0388811660048301526001600160401b0385166024830152891692506355ad79f09150604401600060405180830381600087803b15801561243e57600080fd5b505af1158015612452573d6000803e3d6000fd5b5050505050505050505050565b604080516101a081019091526000606082018181526080830182905260a0830182905260c0830182905260e08301829052610100830182905261012083018290526101408301829052610160830182905261018083019190915281908152604080516101008101825260008082526020828101829052928201819052606082018190526080820181905260a0820181905260c0820181905260e08201529101908152600060209091015290565b6001600160a01b038116811461252157600080fd5b50565b6000806000806080858703121561253a57600080fd5b84356125458161250c565b935060208501356125558161250c565b925060408501356125658161250c565b915060608501356125758161250c565b939692955090935050565b60006020828403121561259257600080fd5b81356118558161250c565b6000602082840312156125af57600080fd5b5035919050565b600080604083850312156125c957600080fd5b8235915060208301356125db8161250c565b809150509250929050565b600080600080608085870312156125fc57600080fd5b5050823594602084013594506040840135936060013592509050565b60008060008060008060c0878903121561263157600080fd5b505084359660208601359650604086013595606081013595506080810135945060a0013592509050565b634e487b7160e01b600052604160045260246000fd5b60405161012081016001600160401b03811182821017156126945761269461265b565b60405290565b604080519081016001600160401b03811182821017156126945761269461265b565b604051606081016001600160401b03811182821017156126945761269461265b565b60405160e081016001600160401b03811182821017156126945761269461265b565b60405161014081016001600160401b03811182821017156126945761269461265b565b60405161024081016001600160401b03811182821017156126945761269461265b565b604051601f8201601f191681016001600160401b038111828210171561276e5761276e61265b565b604052919050565b60008060006060848603121561278b57600080fd5b83359250602080850135925060408501356001600160401b03808211156127b157600080fd5b818701915087601f8301126127c557600080fd5b8135818111156127d7576127d761265b565b6127e9601f8201601f19168501612746565b915080825288848285010111156127ff57600080fd5b80848401858401376000848284010152508093505050509250925092565b600080600080600060a0868803121561283557600080fd5b505083359560208501359550604085013594606081013594506080013592509050565b60008060006060848603121561286d57600080fd5b505081359360208301359350604090920135919050565b600080600080600080600060e0888a03121561289f57600080fd5b87359650602088013595506040880135945060608801356128bf8161250c565b9699959850939660808101359560a0820135955060c0909101359350915050565b80516128eb8161250c565b919050565b60006020828403121561290257600080fd5b81516118558161250c565b93845260208401929092526001600160a01b03908116604084015216606082015260800190565b6020808252600e908201526d1050cb9bdb9b1e5112ce881393d560921b604082015260600190565b805163ffffffff811681146128eb57600080fd5b805161ffff811681146128eb57600080fd5b805165ffffffffffff811681146128eb57600080fd5b805164ffffffffff811681146128eb57600080fd5b805160ff811681146128eb57600080fd5b600061012082840312156129d157600080fd5b6129d9612671565b90506129e48261295c565b81526129f260208301612970565b6020820152612a0360408301612982565b6040820152612a1460608301612970565b6060820152612a2560808301612970565b6080820152612a3660a08301612998565b60a0820152612a4760c08301612998565b60c0820152612a5860e08301612998565b60e0820152610100612a6b8184016129ad565b9082015292915050565b60006101208284031215612a8857600080fd5b61185583836129be565b80516001600160401b03811681146128eb57600080fd5b600060c08284031215612abb57600080fd5b60405160c081018181106001600160401b0382111715612add57612add61265b565b604052905080612aec83612982565b8152612afa60208401612a92565b6020820152612b0b60408401612a92565b6040820152612b1c60608401612a92565b6060820152612b2d608084016129ad565b6080820152612b3e60a084016129ad565b60a08201525092915050565b60008183036101e0811215612b5e57600080fd5b612b6661269a565b61012080831215612b7657600080fd5b612b7e612671565b9250612b898561295c565b8352612b976020860161295c565b6020840152612ba860408601612970565b6040840152612bb960608601612982565b6060840152612bca60808601612998565b6080840152612bdb60a0860161295c565b60a0840152612bec60c0860161295c565b60c0840152612bfd60e08601612970565b60e0840152610100612c108187016129ad565b90840152828252612c2386868301612aa9565b602083015250949350505050565b83815260006020848184015260606040840152835180606085015260005b81811015612c6b57858101830151858201608001528201612c4f565b81811115612c7d576000608083870101525b50601f01601f19169290920160800195945050505050565b600060208284031215612ca757600080fd5b61185582612a92565b6000818303610220811215612cc457600080fd5b612ccc6126bc565b612cd685856129be565b815260e061011f1983011215612ceb57600080fd5b612cf36126de565b9150612d026101208501612a92565b8252612d116101408501612a92565b6020830152612d236101608501612a92565b6040830152612d356101808501612970565b6060830152612d476101a08501612970565b6080830152612d596101c08501612970565b60a0830152612d6b6101e08501612970565b60c083015260208101919091526102009290920151604083015250919050565b60006101408284031215612d9e57600080fd5b612da6612700565b612daf836129ad565b8152612dbd60208401612970565b6020820152612dce60408401612970565b6040820152612ddf60608401612970565b6060820152612df06080840161295c565b6080820152612e0160a08401612998565b60a0820152612e1260c0840161295c565b60c0820152612e2360e0840161295c565b60e0820152610100612e36818501612982565b90820152610120612e48848201612970565b908201529392505050565b805180151581146128eb57600080fd5b600060208284031215612e7557600080fd5b61185582612e53565b634e487b7160e01b600052601160045260246000fd5b60008219821115612ea757612ea7612e7e565b500190565b6000818303610140811215612ec057600080fd5b612ec861269a565b61012080831215612ed857600080fd5b612ee0612671565b9250612eeb85612970565b8352612ef960208601612970565b6020840152612f0a60408601612a92565b6040840152612f1b60608601612998565b6060840152612f2c60808601612982565b6080840152612f3d60a08601612970565b60a0840152612f4e60c08601612970565b60c0840152612f5f60e0860161295c565b60e0840152610100612f728187016129ad565b90840152828252612c238582016128e0565b60006101208201905061ffff808451168352806020850151166020840152506040830151612fbd60408401826001600160401b03169052565b506060830151612fd6606084018264ffffffffff169052565b506080830151612ff0608084018265ffffffffffff169052565b5060a083015161300660a084018261ffff169052565b5060c083015161301c60c084018261ffff169052565b5060e083015161303460e084018263ffffffff169052565b506101009283015160ff16919092015290565b60006020828403121561305957600080fd5b5051919050565b64ffffffffff8082511683528060208301511660208401525060408101516001600160401b038082166040850152806060840151166060850152505060ff608082015116608083015261ffff60a08201511660a083015260c08101516130cc60c084018261ffff169052565b5060e08101516130e060e084018215159052565b505050565b8151805160ff1682526102608201906020810151613109602085018261ffff169052565b50604081015161311f604085018261ffff169052565b506060810151613135606085018261ffff169052565b50608081015161314d608085018263ffffffff169052565b5060a081015161316660a085018264ffffffffff169052565b5060c081015161317e60c085018263ffffffff169052565b5060e081015161319660e085018263ffffffff169052565b506101008181015165ffffffffffff16908401526101209081015161ffff169083015260208301516131cc610140840182613060565b50604083015161024083015292915050565b6000602082840312156131f057600080fd5b61185582612970565b600082601f83011261320a57600080fd5b604051604081018181106001600160401b038211171561322c5761322c61265b565b806040525080604084018581111561324357600080fd5b845b818110156132645761325681612998565b835260209283019201613245565b509195945050505050565b6000610260828403121561328257600080fd5b61328a612723565b61329383612970565b81526132a1602084016129ad565b60208201526132b2604084016129ad565b60408201526132c360608401612970565b60608201526132d460808401612970565b60808201526132e560a08401612970565b60a08201526132f660c08401612e53565b60c082015261330760e08401612e53565b60e082015261010061331a818501612e53565b9082015261012061332c848201612e53565b9082015261014061333e8482016129ad565b908201526101606133508482016129ad565b908201526101806133628482016129ad565b908201526101a06133748482016129ad565b908201526101c06133868482016129ad565b908201526101e06133988482016129ad565b908201526102006133ab858583016131f9565b908201526133bc6102408401612970565b6102208201529392505050565b600065ffffffffffff838116908316818110156133e8576133e8612e7e565b039392505050565b600065ffffffffffff80831681851680830382111561341157613411612e7e565b01949350505050565b600065ffffffffffff8084168061344157634e487b7160e01b600052601260045260246000fd5b92169190910492915050565b8060005b600281101561347757815164ffffffffff16845260209384019390910190600101613451565b50505050565b6001600160a01b038716815261ffff8681166020830152858116604083015284511660608201526103008101602085015160ff8116608084015250604085015160ff811660a084015250606085015161ffff811660c084015250608085015161ffff811660e08401525060a08501516101006134fe8185018361ffff169052565b60c087015191506101206135158186018415159052565b60e0880151925061014061352c8187018515159052565b918801519250610160916135438684018515159052565b9088015192506101809061355a8683018515159052565b88015192506101a06135708682018560ff169052565b9188015192506101c0916135888684018560ff169052565b9088015192506101e0906135a08683018560ff169052565b88015192506102006135b68682018560ff169052565b918801519250610220916135ce8684018560ff169052565b9088015160ff1661024086015287015191506135ee61026085018361344d565b9095015161ffff166102a08301526102c08201939093526102e0015294935050505056fea2646970667358221220d5fdc8cc96fd4d08d46d0acd64440b24a6a35915efc7676dcf7bcfae15d9a25864736f6c63430008080033",
    "sourcePath": "/Users/kaptain/github.com/comboox/comboox/contracts/keepers/BOPKeeper.sol",
    "compiler": {
        "name": "solc",
        "version": "0.8.8+commit.dddeac2f"
    },
    "functionHashes": {
        "abandonRole(bytes32)": "3da9a600",
        "createPledge(bytes32,uint256,uint256,uint256,uint256,uint256)": "33e68530",
        "execPledge(bytes32,uint256,uint256,address,uint256,uint256,uint256)": "7632be02",
        "extendPledge(uint256,uint256,uint256,uint256)": "417dea25",
        "getDK()": "50627aea",
        "getOwner()": "893d20e8",
        "getRoleAdmin(bytes32)": "248a9ca3",
        "grantRole(bytes32,address)": "2f2ff15d",
        "hasRole(bytes32,address)": "91d14854",
        "init(address,address,address,address)": "06552ff3",
        "isFinalized()": "8d4e4083",
        "lockContents()": "f045a769",
        "lockPledge(uint256,uint256,bytes32,uint256)": "3067033d",
        "refundDebt(uint256,uint256,uint256,uint256)": "ca6de9ac",
        "releasePledge(uint256,uint256,string)": "50235307",
        "renounceRole(bytes32)": "8bb9c5bf",
        "revokePledge(uint256,uint256,uint256)": "72b5e711",
        "revokeRole(bytes32,address)": "d547741f",
        "setDirectKeeper(address)": "6be8496f",
        "setOwner(address)": "13af4035",
        "setRoleAdmin(bytes32,address)": "ad763192",
        "transferPledge(uint256,uint256,uint256,uint256,uint256)": "5551fc48"
    },
    "gasEstimates": {
        "creation": {
            "codeDepositCost": "2779200",
            "executionCost": "29399",
            "totalCost": "2808599"
        },
        "external": {
            "abandonRole(bytes32)": "infinite",
            "createPledge(bytes32,uint256,uint256,uint256,uint256,uint256)": "infinite",
            "execPledge(bytes32,uint256,uint256,address,uint256,uint256,uint256)": "infinite",
            "extendPledge(uint256,uint256,uint256,uint256)": "infinite",
            "getDK()": "2431",
            "getOwner()": "infinite",
            "getRoleAdmin(bytes32)": "infinite",
            "grantRole(bytes32,address)": "infinite",
            "hasRole(bytes32,address)": "infinite",
            "init(address,address,address,address)": "infinite",
            "isFinalized()": "2338",
            "lockContents()": "infinite",
            "lockPledge(uint256,uint256,bytes32,uint256)": "infinite",
            "refundDebt(uint256,uint256,uint256,uint256)": "infinite",
            "releasePledge(uint256,uint256,string)": "infinite",
            "renounceRole(bytes32)": "infinite",
            "revokePledge(uint256,uint256,uint256)": "infinite",
            "revokeRole(bytes32,address)": "infinite",
            "setDirectKeeper(address)": "27867",
            "setOwner(address)": "infinite",
            "setRoleAdmin(bytes32,address)": "infinite",
            "transferPledge(uint256,uint256,uint256,uint256,uint256)": "infinite"
        },
        "internal": {
            "_circulateIA(struct DealsRepo.Deal memory,contract IInvestmentAgreement,contract IBookOfIA)": "infinite",
            "_createIA(uint256,uint256,uint256,address,contract IBookOfIA,uint256)": "infinite",
            "_proposeIA(contract IMeetingMinutes,contract IBookOfIA,address,struct DealsRepo.Deal memory,struct PledgesRepo.Pledge memory,uint256)": "infinite",
            "_signIA(contract IInvestmentAgreement,struct DealsRepo.Deal memory,struct PledgesRepo.Pledge memory,contract IBookOfIA)": "infinite"
        }
    }
}