{
    "contractName": "BOPKeeper",
    "abi": [
        {
            "anonymous": false,
            "inputs": [
                {
                    "indexed": true,
                    "internalType": "uint256",
                    "name": "owner",
                    "type": "uint256"
                },
                {
                    "indexed": true,
                    "internalType": "address",
                    "name": "directKeeper",
                    "type": "address"
                },
                {
                    "indexed": false,
                    "internalType": "address",
                    "name": "regCenter",
                    "type": "address"
                },
                {
                    "indexed": true,
                    "internalType": "address",
                    "name": "generalKeeper",
                    "type": "address"
                }
            ],
            "name": "Init",
            "type": "event"
        },
        {
            "anonymous": false,
            "inputs": [],
            "name": "LockContents",
            "type": "event"
        },
        {
            "anonymous": false,
            "inputs": [
                {
                    "indexed": true,
                    "internalType": "address",
                    "name": "target",
                    "type": "address"
                }
            ],
            "name": "RemoveDirectKeeper",
            "type": "event"
        },
        {
            "anonymous": false,
            "inputs": [
                {
                    "indexed": true,
                    "internalType": "address",
                    "name": "keeper",
                    "type": "address"
                }
            ],
            "name": "SetDirectKeeper",
            "type": "event"
        },
        {
            "anonymous": false,
            "inputs": [
                {
                    "indexed": true,
                    "internalType": "uint256",
                    "name": "acct",
                    "type": "uint256"
                }
            ],
            "name": "SetGeneralCounsel",
            "type": "event"
        },
        {
            "anonymous": false,
            "inputs": [
                {
                    "indexed": true,
                    "internalType": "uint256",
                    "name": "acct",
                    "type": "uint256"
                }
            ],
            "name": "SetOwner",
            "type": "event"
        },
        {
            "inputs": [
                {
                    "internalType": "bytes32",
                    "name": "role",
                    "type": "bytes32"
                }
            ],
            "name": "abandonRole",
            "outputs": [],
            "stateMutability": "nonpayable",
            "type": "function"
        },
        {
            "inputs": [
                {
                    "internalType": "bytes32",
                    "name": "snOfPld",
                    "type": "bytes32"
                },
                {
                    "internalType": "uint256",
                    "name": "paid",
                    "type": "uint256"
                },
                {
                    "internalType": "uint256",
                    "name": "par",
                    "type": "uint256"
                },
                {
                    "internalType": "uint256",
                    "name": "guaranteedAmt",
                    "type": "uint256"
                },
                {
                    "internalType": "uint256",
                    "name": "execDays",
                    "type": "uint256"
                },
                {
                    "internalType": "uint256",
                    "name": "caller",
                    "type": "uint256"
                }
            ],
            "name": "createPledge",
            "outputs": [],
            "stateMutability": "nonpayable",
            "type": "function"
        },
        {
            "inputs": [
                {
                    "internalType": "bytes32",
                    "name": "snOfDeal",
                    "type": "bytes32"
                },
                {
                    "internalType": "uint256",
                    "name": "seqOfPld",
                    "type": "uint256"
                },
                {
                    "internalType": "uint256",
                    "name": "version",
                    "type": "uint256"
                },
                {
                    "internalType": "address",
                    "name": "primeKeyOfCaller",
                    "type": "address"
                },
                {
                    "internalType": "uint256",
                    "name": "buyer",
                    "type": "uint256"
                },
                {
                    "internalType": "uint256",
                    "name": "groupOfBuyer",
                    "type": "uint256"
                },
                {
                    "internalType": "uint256",
                    "name": "caller",
                    "type": "uint256"
                }
            ],
            "name": "execPledge",
            "outputs": [],
            "stateMutability": "nonpayable",
            "type": "function"
        },
        {
            "inputs": [
                {
                    "internalType": "uint256",
                    "name": "seqOfShare",
                    "type": "uint256"
                },
                {
                    "internalType": "uint256",
                    "name": "seqOfPld",
                    "type": "uint256"
                },
                {
                    "internalType": "uint256",
                    "name": "extDays",
                    "type": "uint256"
                },
                {
                    "internalType": "uint256",
                    "name": "caller",
                    "type": "uint256"
                }
            ],
            "name": "extendPledge",
            "outputs": [],
            "stateMutability": "nonpayable",
            "type": "function"
        },
        {
            "inputs": [],
            "name": "finalized",
            "outputs": [
                {
                    "internalType": "bool",
                    "name": "",
                    "type": "bool"
                }
            ],
            "stateMutability": "view",
            "type": "function"
        },
        {
            "inputs": [],
            "name": "getBookeeper",
            "outputs": [
                {
                    "internalType": "address",
                    "name": "",
                    "type": "address"
                }
            ],
            "stateMutability": "view",
            "type": "function"
        },
        {
            "inputs": [],
            "name": "getGeneralCounsel",
            "outputs": [
                {
                    "internalType": "uint40",
                    "name": "",
                    "type": "uint40"
                }
            ],
            "stateMutability": "view",
            "type": "function"
        },
        {
            "inputs": [],
            "name": "getOwner",
            "outputs": [
                {
                    "internalType": "uint40",
                    "name": "",
                    "type": "uint40"
                }
            ],
            "stateMutability": "view",
            "type": "function"
        },
        {
            "inputs": [
                {
                    "internalType": "bytes32",
                    "name": "role",
                    "type": "bytes32"
                },
                {
                    "internalType": "uint256",
                    "name": "acct",
                    "type": "uint256"
                }
            ],
            "name": "grantRole",
            "outputs": [],
            "stateMutability": "nonpayable",
            "type": "function"
        },
        {
            "inputs": [
                {
                    "internalType": "bytes32",
                    "name": "role",
                    "type": "bytes32"
                },
                {
                    "internalType": "uint256",
                    "name": "acct",
                    "type": "uint256"
                }
            ],
            "name": "hasRole",
            "outputs": [
                {
                    "internalType": "bool",
                    "name": "",
                    "type": "bool"
                }
            ],
            "stateMutability": "view",
            "type": "function"
        },
        {
            "inputs": [
                {
                    "internalType": "uint256",
                    "name": "owner",
                    "type": "uint256"
                },
                {
                    "internalType": "address",
                    "name": "directKeeper",
                    "type": "address"
                },
                {
                    "internalType": "address",
                    "name": "regCenter",
                    "type": "address"
                },
                {
                    "internalType": "address",
                    "name": "generalKeeper",
                    "type": "address"
                }
            ],
            "name": "init",
            "outputs": [],
            "stateMutability": "nonpayable",
            "type": "function"
        },
        {
            "inputs": [],
            "name": "lockContents",
            "outputs": [],
            "stateMutability": "nonpayable",
            "type": "function"
        },
        {
            "inputs": [
                {
                    "internalType": "uint256",
                    "name": "seqOfShare",
                    "type": "uint256"
                },
                {
                    "internalType": "uint256",
                    "name": "seqOfPld",
                    "type": "uint256"
                },
                {
                    "internalType": "bytes32",
                    "name": "hashLock",
                    "type": "bytes32"
                },
                {
                    "internalType": "uint256",
                    "name": "caller",
                    "type": "uint256"
                }
            ],
            "name": "lockPledge",
            "outputs": [],
            "stateMutability": "nonpayable",
            "type": "function"
        },
        {
            "inputs": [
                {
                    "internalType": "uint256",
                    "name": "seqOfShare",
                    "type": "uint256"
                },
                {
                    "internalType": "uint256",
                    "name": "seqOfPld",
                    "type": "uint256"
                },
                {
                    "internalType": "uint256",
                    "name": "amt",
                    "type": "uint256"
                },
                {
                    "internalType": "uint256",
                    "name": "caller",
                    "type": "uint256"
                }
            ],
            "name": "refundDebt",
            "outputs": [],
            "stateMutability": "nonpayable",
            "type": "function"
        },
        {
            "inputs": [
                {
                    "internalType": "uint256",
                    "name": "seqOfShare",
                    "type": "uint256"
                },
                {
                    "internalType": "uint256",
                    "name": "seqOfPld",
                    "type": "uint256"
                },
                {
                    "internalType": "string",
                    "name": "hashKey",
                    "type": "string"
                }
            ],
            "name": "releasePledge",
            "outputs": [],
            "stateMutability": "nonpayable",
            "type": "function"
        },
        {
            "inputs": [
                {
                    "internalType": "address",
                    "name": "target",
                    "type": "address"
                }
            ],
            "name": "removeDirectKeeper",
            "outputs": [],
            "stateMutability": "nonpayable",
            "type": "function"
        },
        {
            "inputs": [
                {
                    "internalType": "bytes32",
                    "name": "role",
                    "type": "bytes32"
                }
            ],
            "name": "renounceRole",
            "outputs": [],
            "stateMutability": "nonpayable",
            "type": "function"
        },
        {
            "inputs": [
                {
                    "internalType": "uint256",
                    "name": "seqOfShare",
                    "type": "uint256"
                },
                {
                    "internalType": "uint256",
                    "name": "seqOfPld",
                    "type": "uint256"
                },
                {
                    "internalType": "uint256",
                    "name": "caller",
                    "type": "uint256"
                }
            ],
            "name": "revokePledge",
            "outputs": [],
            "stateMutability": "nonpayable",
            "type": "function"
        },
        {
            "inputs": [
                {
                    "internalType": "bytes32",
                    "name": "role",
                    "type": "bytes32"
                },
                {
                    "internalType": "uint256",
                    "name": "acct",
                    "type": "uint256"
                }
            ],
            "name": "revokeRole",
            "outputs": [],
            "stateMutability": "nonpayable",
            "type": "function"
        },
        {
            "inputs": [
                {
                    "internalType": "address",
                    "name": "keeper",
                    "type": "address"
                }
            ],
            "name": "setDirectKeeper",
            "outputs": [],
            "stateMutability": "nonpayable",
            "type": "function"
        },
        {
            "inputs": [
                {
                    "internalType": "uint256",
                    "name": "acct",
                    "type": "uint256"
                }
            ],
            "name": "setGeneralCounsel",
            "outputs": [],
            "stateMutability": "nonpayable",
            "type": "function"
        },
        {
            "inputs": [
                {
                    "internalType": "uint256",
                    "name": "acct",
                    "type": "uint256"
                }
            ],
            "name": "setOwner",
            "outputs": [],
            "stateMutability": "nonpayable",
            "type": "function"
        },
        {
            "inputs": [
                {
                    "internalType": "bytes32",
                    "name": "role",
                    "type": "bytes32"
                },
                {
                    "internalType": "uint256",
                    "name": "acct",
                    "type": "uint256"
                }
            ],
            "name": "setRoleAdmin",
            "outputs": [],
            "stateMutability": "nonpayable",
            "type": "function"
        },
        {
            "inputs": [
                {
                    "internalType": "uint256",
                    "name": "seqOfShare",
                    "type": "uint256"
                },
                {
                    "internalType": "uint256",
                    "name": "seqOfPld",
                    "type": "uint256"
                },
                {
                    "internalType": "uint256",
                    "name": "buyer",
                    "type": "uint256"
                },
                {
                    "internalType": "uint256",
                    "name": "amt",
                    "type": "uint256"
                },
                {
                    "internalType": "uint256",
                    "name": "caller",
                    "type": "uint256"
                }
            ],
            "name": "transferPledge",
            "outputs": [],
            "stateMutability": "nonpayable",
            "type": "function"
        }
    ],
    "bytecode": "608060405234801561001057600080fd5b5061418b806100206000396000f3fe608060405234801561001057600080fd5b50600436106101585760003560e01c80636be8496f116100c35780638bb9c5bf1161007c5780638bb9c5bf146102ca578063b3f05b97146102dd578063ca6de9ac146102f1578063dc890da914610304578063ed21102314610317578063f045a7691461033757600080fd5b80636be8496f1461025357806372b5e711146102665780637632be02146102795780637e063c5a1461028c5780638041494e146102af578063893d20e8146102c257600080fd5b8063417dea2511610115578063417dea25146101e15780634a14beb1146101f457806350235307146102075780635171ebd41461021a5780635551fc481461022d5780635d7ad88f1461024057600080fd5b8063103f6edd1461015d57806319d61ad9146101805780631b6ea9f9146101955780633067033d146101a857806333e68530146101bb5780633da9a600146101ce575b600080fd5b61016561033f565b60405164ffffffffff90911681526020015b60405180910390f35b61019361018e366004613054565b6103cb565b005b6101936101a3366004613054565b610460565b6101936101b6366004613076565b610489565b6101936101c93660046130a8565b610635565b6101936101dc3660046130eb565b610ae9565b6101936101ef366004613076565b610b77565b6101936102023660046130eb565b610ce6565b61019361021536600461321f565b610f41565b610193610228366004613054565b6111aa565b61019361023b3660046132c6565b6111d3565b61019361024e366004613319565b611397565b610193610261366004613319565b6114cc565b610193610274366004613336565b61157b565b610193610287366004613362565b61192f565b61029f61029a366004613054565b611e1e565b6040519015158152602001610177565b6101936102bd3660046130eb565b611eb9565b610165611f72565b6101936102d83660046130eb565b611fad565b60028054600160f01b900460ff161461029f565b6101936102ff366004613076565b611fd5565b6101936103123660046133be565b61228a565b61031f612362565b6040516001600160a01b039091168152602001610177565b6101936123e8565b60405163e8c0cc1d60e01b81526002600482015260009073__$a374c895e6fa8c448878668e00d93ef99a$__9063e8c0cc1d906024015b60206040518083038186803b15801561038e57600080fd5b505af41580156103a2573d6000803e3d6000fd5b505050506040513d601f19601f820116820180604052508101906103c6919061342b565b905090565b73__$a374c895e6fa8c448878668e00d93ef99a$__6382daafaa600284846103f461c35061263b565b6040516001600160e01b031960e087901b16815260048101949094526024840192909252604483015264ffffffffff16606482015260840160006040518083038186803b15801561044457600080fd5b505af4158015610458573d6000803e3d6000fd5b505050505050565b73__$a374c895e6fa8c448878668e00d93ef99a$__636320d75e600284846103f461c35061263b565b604051633b11adbf60e21b81526002600482015233602482015273__$a374c895e6fa8c448878668e00d93ef99a$__9063ec46b6fc9060440160206040518083038186803b1580156104da57600080fd5b505af41580156104ee573d6000803e3d6000fd5b505050506040513d601f19601f820116820180604052508101906105129190613456565b6105375760405162461bcd60e51b815260040161052e90613471565b60405180910390fd5b600160009054906101000a90046001600160a01b03166001600160a01b03166320fbea4e6040518163ffffffff1660e01b815260040160206040518083038186803b15801561058557600080fd5b505afa158015610599573d6000803e3d6000fd5b505050506040513d601f19601f820116820180604052508101906105bd91906134b7565b604051633067033d60e01b8152600481018690526024810185905260448101849052606481018390526001600160a01b039190911690633067033d906084015b600060405180830381600087803b15801561061757600080fd5b505af115801561062b573d6000803e3d6000fd5b5050505050505050565b604051633b11adbf60e21b81526002600482015233602482015273__$a374c895e6fa8c448878668e00d93ef99a$__9063ec46b6fc9060440160206040518083038186803b15801561068657600080fd5b505af415801561069a573d6000803e3d6000fd5b505050506040513d601f19601f820116820180604052508101906106be9190613456565b6106da5760405162461bcd60e51b815260040161052e90613471565b604051637dfd694760e11b81526004810187905260009073__$1fc3c1242eb97c1a973a3d89a72820680f$__9063fbfad28e906024016101206040518083038186803b15801561072957600080fd5b505af415801561073d573d6000803e3d6000fd5b505050506040513d601f19601f8201168201806040525081019061076191906135d8565b9050600160009054906101000a90046001600160a01b03166001600160a01b031663f01e100f6040518163ffffffff1660e01b815260040160206040518083038186803b1580156107b157600080fd5b505afa1580156107c5573d6000803e3d6000fd5b505050506040513d601f19601f820116820180604052508101906107e991906134b7565b81516040516319f6b4bf60e31b815263ffffffff90911660048201526001600160a01b03919091169063cfb5a5f8906024016101e06040518083038186803b15801561083457600080fd5b505afa158015610848573d6000803e3d6000fd5b505050506040513d601f19601f8201168201806040525081019061086c91906136ad565b516080015164ffffffffff1660e0820181905282146108cd5760405162461bcd60e51b815260206004820152601f60248201527f424f504b2e637265617465506c643a204e4f54207368617265686f6c64657200604482015260640161052e565b600160009054906101000a90046001600160a01b03166001600160a01b03166320fbea4e6040518163ffffffff1660e01b815260040160206040518083038186803b15801561091b57600080fd5b505afa15801561092f573d6000803e3d6000fd5b505050506040513d601f19601f8201168201806040525081019061095391906134b7565b604051630db7f3e560e21b815260048101899052602481018890526044810187905260648101869052608481018590526001600160a01b0391909116906336dfcf949060a40161012060405180830381600087803b1580156109b457600080fd5b505af11580156109c8573d6000803e3d6000fd5b505050506040513d601f19601f820116820180604052508101906109ec91906135d8565b9050600160009054906101000a90046001600160a01b03166001600160a01b031663f01e100f6040518163ffffffff1660e01b815260040160206040518083038186803b158015610a3c57600080fd5b505afa158015610a50573d6000803e3d6000fd5b505050506040513d601f19601f82011682018060405250810190610a7491906134b7565b81516040516360d095df60e01b815263ffffffff9091166004820152602481018890526001600160a01b0391909116906360d095df906044015b600060405180830381600087803b158015610ac857600080fd5b505af1158015610adc573d6000803e3d6000fd5b5050505050505050505050565b73__$a374c895e6fa8c448878668e00d93ef99a$__63c51b295f600283610b1161c35061263b565b6040516001600160e01b031960e086901b1681526004810193909352602483019190915264ffffffffff16604482015260640160006040518083038186803b158015610b5c57600080fd5b505af4158015610b70573d6000803e3d6000fd5b5050505050565b604051633b11adbf60e21b81526002600482015233602482015273__$a374c895e6fa8c448878668e00d93ef99a$__9063ec46b6fc9060440160206040518083038186803b158015610bc857600080fd5b505af4158015610bdc573d6000803e3d6000fd5b505050506040513d601f19601f82011682018060405250810190610c009190613456565b610c1c5760405162461bcd60e51b815260040161052e90613471565b600160009054906101000a90046001600160a01b03166001600160a01b03166320fbea4e6040518163ffffffff1660e01b815260040160206040518083038186803b158015610c6a57600080fd5b505afa158015610c7e573d6000803e3d6000fd5b505050506040513d601f19601f82011682018060405250810190610ca291906134b7565b60405163417dea2560e01b8152600481018690526024810185905260448101849052606481018390526001600160a01b03919091169063417dea25906084016105fd565b604051633b11adbf60e21b81526002600482015233602482015273__$a374c895e6fa8c448878668e00d93ef99a$__9063ec46b6fc9060440160206040518083038186803b158015610d3757600080fd5b505af4158015610d4b573d6000803e3d6000fd5b505050506040513d601f19601f82011682018060405250810190610d6f9190613456565b80610e17575073__$a374c895e6fa8c448878668e00d93ef99a$__63fe2710866002610d9c61753061263b565b6040516001600160e01b031960e085901b168152600481019290925264ffffffffff16602482015260440160206040518083038186803b158015610ddf57600080fd5b505af4158015610df3573d6000803e3d6000fd5b505050506040513d601f19601f82011682018060405250810190610e179190613456565b610e825760405162461bcd60e51b815260206004820152603660248201527f41432e6f776e65724f72446972656374426f6f6b65657065723a206e6569746860448201527532b91037bbb732b9103737b9103137b7b5b2b2b832b960511b606482015260840161052e565b73__$a374c895e6fa8c448878668e00d93ef99a$__6313a187d2600283610eaa61753061263b565b6040516001600160e01b031960e086901b1681526004810193909352602483019190915264ffffffffff16604482015233606482015260840160006040518083038186803b158015610efb57600080fd5b505af4158015610f0f573d6000803e3d6000fd5b50506040518392507ff2735f34b69be1e6342dea95f9162f84d0db925fab655ca9f1f312ac8cbfc99d9150600090a250565b604051633b11adbf60e21b81526002600482015233602482015273__$a374c895e6fa8c448878668e00d93ef99a$__9063ec46b6fc9060440160206040518083038186803b158015610f9257600080fd5b505af4158015610fa6573d6000803e3d6000fd5b505050506040513d601f19601f82011682018060405250810190610fca9190613456565b610fe65760405162461bcd60e51b815260040161052e90613471565b6001546040805163107df52760e11b815290516000926001600160a01b0316916320fbea4e916004808301926020929190829003018186803b15801561102b57600080fd5b505afa15801561103f573d6000803e3d6000fd5b505050506040513d601f19601f8201168201806040525081019061106391906134b7565b6001600160a01b031663502353078585856040518463ffffffff1660e01b815260040161109293929190613794565b602060405180830381600087803b1580156110ac57600080fd5b505af11580156110c0573d6000803e3d6000fd5b505050506040513d601f19601f820116820180604052508101906110e491906137f8565b9050600160009054906101000a90046001600160a01b03166001600160a01b031663f01e100f6040518163ffffffff1660e01b815260040160206040518083038186803b15801561113457600080fd5b505afa158015611148573d6000803e3d6000fd5b505050506040513d601f19601f8201168201806040525081019061116c91906134b7565b60405163ccdddd4160e01b8152600481018690526001600160401b03831660248201526001600160a01b03919091169063ccdddd41906044016105fd565b73__$a374c895e6fa8c448878668e00d93ef99a$__63ee98b313600284846103f461c35061263b565b604051633b11adbf60e21b81526002600482015233602482015273__$a374c895e6fa8c448878668e00d93ef99a$__9063ec46b6fc9060440160206040518083038186803b15801561122457600080fd5b505af4158015611238573d6000803e3d6000fd5b505050506040513d601f19601f8201168201806040525081019061125c9190613456565b6112785760405162461bcd60e51b815260040161052e90613471565b600160009054906101000a90046001600160a01b03166001600160a01b03166320fbea4e6040518163ffffffff1660e01b815260040160206040518083038186803b1580156112c657600080fd5b505afa1580156112da573d6000803e3d6000fd5b505050506040513d601f19601f820116820180604052508101906112fe91906134b7565b604051630aaa3f8960e31b815260048101879052602481018690526044810185905260648101849052608481018390526001600160a01b039190911690635551fc489060a40161022060405180830381600087803b15801561135f57600080fd5b505af1158015611373573d6000803e3d6000fd5b505050506040513d601f19601f820116820180604052508101906104589190613813565b604051633b11adbf60e21b81526002600482015233602482015273__$a374c895e6fa8c448878668e00d93ef99a$__9063ec46b6fc9060440160206040518083038186803b1580156113e857600080fd5b505af41580156113fc573d6000803e3d6000fd5b505050506040513d601f19601f820116820180604052508101906114209190613456565b61143c5760405162461bcd60e51b815260040161052e90613471565b604051636be8496f60e01b81523360048201526001600160a01b03821690636be8496f90602401600060405180830381600087803b15801561147d57600080fd5b505af1158015611491573d6000803e3d6000fd5b50506040516001600160a01b03841692507f64dd6e84044f0067086012335dcfab3188db6615b5cc7debf18c9a621ebd5d919150600090a250565b604051630f07232560e01b8152600260048201526001600160a01b038216602482015233604482015273__$a374c895e6fa8c448878668e00d93ef99a$__90630f0723259060640160006040518083038186803b15801561152c57600080fd5b505af4158015611540573d6000803e3d6000fd5b50506040516001600160a01b03841692507fe435cbeab64e4eae6497b9d8289704bd709d624a80704ef3ca9af777534bc6ec9150600090a250565b604051633b11adbf60e21b81526002600482015233602482015273__$a374c895e6fa8c448878668e00d93ef99a$__9063ec46b6fc9060440160206040518083038186803b1580156115cc57600080fd5b505af41580156115e0573d6000803e3d6000fd5b505050506040513d601f19601f820116820180604052508101906116049190613456565b6116205760405162461bcd60e51b815260040161052e90613471565b6001546040805163107df52760e11b815290516000926001600160a01b0316916320fbea4e916004808301926020929190829003018186803b15801561166557600080fd5b505afa158015611679573d6000803e3d6000fd5b505050506040513d601f19601f8201168201806040525081019061169d91906134b7565b60405163f671e82160e01b815260048101869052602481018590526001600160a01b03919091169063f671e821906044016102206040518083038186803b1580156116e757600080fd5b505afa1580156116fb573d6000803e3d6000fd5b505050506040513d601f19601f8201168201806040525081019061171f9190613813565b805160e0015190915064ffffffffff1682146117745760405162461bcd60e51b81526020600482015260146024820152732127a8259729281d103737ba10383632b233b7b960611b604482015260640161052e565b600160009054906101000a90046001600160a01b03166001600160a01b03166320fbea4e6040518163ffffffff1660e01b815260040160206040518083038186803b1580156117c257600080fd5b505afa1580156117d6573d6000803e3d6000fd5b505050506040513d601f19601f820116820180604052508101906117fa91906134b7565b6040516372b5e71160e01b81526004810186905260248101859052604481018490526001600160a01b0391909116906372b5e71190606401600060405180830381600087803b15801561184c57600080fd5b505af1158015611860573d6000803e3d6000fd5b50505050600160009054906101000a90046001600160a01b03166001600160a01b031663f01e100f6040518163ffffffff1660e01b815260040160206040518083038186803b1580156118b257600080fd5b505afa1580156118c6573d6000803e3d6000fd5b505050506040513d601f19601f820116820180604052508101906118ea91906134b7565b60208201515160405163ccdddd4160e01b8152600481018790526001600160401b0390911660248201526001600160a01b03919091169063ccdddd41906044016105fd565b604051633b11adbf60e21b81526002600482015233602482015273__$a374c895e6fa8c448878668e00d93ef99a$__9063ec46b6fc9060440160206040518083038186803b15801561198057600080fd5b505af4158015611994573d6000803e3d6000fd5b505050506040513d601f19601f820116820180604052508101906119b89190613456565b6119d45760405162461bcd60e51b815260040161052e90613471565b6119dc612fa7565b604051637dfd694760e11b81526004810189905273__$23dd9d551e721d1017bc44715ea3b7f356$__9063fbfad28e906024016101406040518083038186803b158015611a2857600080fd5b505af4158015611a3c573d6000803e3d6000fd5b505050506040513d601f19601f82011682018060405250810190611a6091906138ee565b815260015460408051632125578b60e11b815290516000926001600160a01b03169163424aaf16916004808301926020929190829003018186803b158015611aa757600080fd5b505afa158015611abb573d6000803e3d6000fd5b505050506040513d601f19601f82011682018060405250810190611adf91906134b7565b90506000600160009054906101000a90046001600160a01b03166001600160a01b03166360c2a3406040518163ffffffff1660e01b815260040160206040518083038186803b158015611b3157600080fd5b505afa158015611b45573d6000803e3d6000fd5b505050506040513d601f19601f82011682018060405250810190611b6991906134b7565b90506000611b8984600001516080015163ffffffff168b8b8b878a61271d565b90506000600160009054906101000a90046001600160a01b03166001600160a01b03166320fbea4e6040518163ffffffff1660e01b815260040160206040518083038186803b158015611bdb57600080fd5b505afa158015611bef573d6000803e3d6000fd5b505050506040513d601f19601f82011682018060405250810190611c1391906134b7565b85516080015160405163f671e82160e01b815263ffffffff9091166004820152602481018d90526001600160a01b03919091169063f671e821906044016102206040518083038186803b158015611c6957600080fd5b505afa158015611c7d573d6000803e3d6000fd5b505050506040513d601f19601f82011682018060405250810190611ca19190613813565b6020808701805164ffffffffff808d169091528151908b169083015281830180515182516001600160401b0391821660409182015291518401519251921660609092019190915260015481516364ea7a6360e11b815291519394506001600160a01b03169263c9d4f4c692600480840193919291829003018186803b158015611d2957600080fd5b505afa158015611d3d573d6000803e3d6000fd5b505050506040513d601f19601f82011682018060405250810190611d6191906134b7565b6001600160a01b031663d50c7377896040518263ffffffff1660e01b8152600401611d8e91815260200190565b60206040518083038186803b158015611da657600080fd5b505afa158015611dba573d6000803e3d6000fd5b505050506040513d601f19601f82011682018060405250810190611dde9190613456565b611de9576002611dec565b60035b855160ff9091169052611e00858386612a2f565b9450611e1083858488858b612d5d565b505050505050505050505050565b604051632a3be56b60e21b815260026004820152602481018390526044810182905260009073__$a374c895e6fa8c448878668e00d93ef99a$__9063a8ef95ac9060640160206040518083038186803b158015611e7a57600080fd5b505af4158015611e8e573d6000803e3d6000fd5b505050506040513d601f19601f82011682018060405250810190611eb29190613456565b9392505050565b73__$a374c895e6fa8c448878668e00d93ef99a$__639b48160c600283611ee161753061263b565b6040516001600160e01b031960e086901b1681526004810193909352602483019190915264ffffffffff16604482015260640160006040518083038186803b158015611f2c57600080fd5b505af4158015611f40573d6000803e3d6000fd5b50506040518392507f8b6f40f36b4ae8cc5f55e895036457c43da4ab1f80f58c46f5ff0d72a650033b9150600090a250565b60405163987ad15360e01b81526002600482015260009073__$a374c895e6fa8c448878668e00d93ef99a$__9063987ad15390602401610376565b73__$a374c895e6fa8c448878668e00d93ef99a$__63cc0d511b600283610b1161c35061263b565b604051633b11adbf60e21b81526002600482015233602482015273__$a374c895e6fa8c448878668e00d93ef99a$__9063ec46b6fc9060440160206040518083038186803b15801561202657600080fd5b505af415801561203a573d6000803e3d6000fd5b505050506040513d601f19601f8201168201806040525081019061205e9190613456565b61207a5760405162461bcd60e51b815260040161052e90613471565b6001546040805163107df52760e11b815290516000926001600160a01b0316916320fbea4e916004808301926020929190829003018186803b1580156120bf57600080fd5b505afa1580156120d3573d6000803e3d6000fd5b505050506040513d601f19601f820116820180604052508101906120f791906134b7565b60405163329b7a6b60e21b8152600481018790526024810186905260448101859052606481018490526001600160a01b03919091169063ca6de9ac9060840161022060405180830381600087803b15801561215157600080fd5b505af1158015612165573d6000803e3d6000fd5b505050506040513d601f19601f820116820180604052508101906121899190613813565b9050600160009054906101000a90046001600160a01b03166001600160a01b031663f01e100f6040518163ffffffff1660e01b815260040160206040518083038186803b1580156121d957600080fd5b505afa1580156121ed573d6000803e3d6000fd5b505050506040513d601f19601f8201168201806040525081019061221191906134b7565b60208201515160405163ccdddd4160e01b8152600481018890526001600160401b0390911660248201526001600160a01b03919091169063ccdddd4190604401600060405180830381600087803b15801561226b57600080fd5b505af115801561227f573d6000803e3d6000fd5b505050505050505050565b604051636cdd0edf60e11b815260026004820152602481018590526001600160a01b038416604482015273__$a374c895e6fa8c448878668e00d93ef99a$__9063d9ba1dbe9060640160006040518083038186803b1580156122eb57600080fd5b505af41580156122ff573d6000803e3d6000fd5b5050505061230c82612eb9565b61231581612f2c565b6040516001600160a01b038381168252808316919085169086907f3abb2418c66fe32ba9c883030a75ce583971d9af9192b9b74e44e67c5e6c8c1f9060200160405180910390a450505050565b604051633c3e56c160e11b81526002600482015260009073__$a374c895e6fa8c448878668e00d93ef99a$__9063787cad829060240160206040518083038186803b1580156123b057600080fd5b505af41580156123c4573d6000803e3d6000fd5b505050506040513d601f19601f820116820180604052508101906103c691906134b7565b600254600160f01b900460ff166001146124445760405162461bcd60e51b815260206004820152601760248201527f41432e4c433a20446f632069732066696e616c697a6564000000000000000000604482015260640161052e565b73__$a374c895e6fa8c448878668e00d93ef99a$__63c51b295f6002684174746f726e65797360b81b61247861c35061263b565b6040516001600160e01b031960e086901b1681526004810193909352602483019190915264ffffffffff16604482015260640160006040518083038186803b1580156124c357600080fd5b505af41580156124d7573d6000803e3d6000fd5b50505050600273__$a374c895e6fa8c448878668e00d93ef99a$__6313a187d29091600061250661753061263b565b6040516001600160e01b031960e086901b1681526004810193909352602483019190915264ffffffffff16604482015233606482015260840160006040518083038186803b15801561255757600080fd5b505af415801561256b573d6000803e3d6000fd5b50505050600273__$a374c895e6fa8c448878668e00d93ef99a$__639b48160c9091600061259a61753061263b565b6040516001600160e01b031960e086901b1681526004810193909352602483019190915264ffffffffff16604482015260640160006040518083038186803b1580156125e557600080fd5b505af41580156125f9573d6000803e3d6000fd5b50506002805460ff60f01b1916600160f11b17905550506040517f35012b512309c322acf68632cd6cb702ff0e1d776fbe9394e38ffc13b434fe7590600090a1565b6000805460405163f3dcf3db60e01b81523360048201526024810184905282916001600160a01b03169063f3dcf3db90604401602060405180830381600087803b15801561268857600080fd5b505af115801561269c573d6000803e3d6000fd5b505050506040513d601f19601f820116820180604052508101906126c0919061342b565b905064ffffffffff8116156126d55792915050565b60405162461bcd60e51b815260206004820152601e60248201527f5243532e5f6d736753656e6465723a206e6f7420726567697374657265640000604482015260640161052e565b6001546040805163107df52760e11b815290516000926001600160a01b0316916320fbea4e916004808301926020929190829003018186803b15801561276257600080fd5b505afa158015612776573d6000803e3d6000fd5b505050506040513d601f19601f8201168201806040525081019061279a91906134b7565b604051634c70a09360e01b81526004810189905260248101889052604481018490526001600160a01b039190911690634c70a09390606401600060405180830381600087803b1580156127ec57600080fd5b505af1158015612800573d6000803e3d6000fd5b506000925061281a91505060e087901b600b60f11b6139d7565b6000805460405163966ef88d60e01b8152600481018490526001600160a01b0389811660248301529394509192169063966ef88d9060440161014060405180830381600087803b15801561286d57600080fd5b505af1158015612881573d6000803e3d6000fd5b505050506040513d601f19601f820116820180604052508101906128a591906139ef565b602081015160005460015460405163dc890da960e01b8152600481018990523060248201526001600160a01b0392831660448201529082166064820152929350169063dc890da990608401600060405180830381600087803b15801561290a57600080fd5b505af115801561291e573d6000803e3d6000fd5b505082516040516324d5cef160e11b81526001600160a01b038916935063024dd8c4925073__$09abfa05dcde8203885d48940a2fca9f8f$__916349ab9de29161296b9190600401613ac7565b60206040518083038186803b15801561298357600080fd5b505af4158015612997573d6000803e3d6000fd5b505050506040513d601f19601f820116820180604052508101906129bb9190613b8a565b60208401516040516001600160e01b031960e085901b16815260048101929092526001600160a01b03166024820152604401600060405180830381600087803b158015612a0757600080fd5b505af1158015612a1b573d6000803e3d6000fd5b505050506020015198975050505050505050565b612a37612fa7565b604051631f24908560e31b81526001600160a01b0384169063f924842890612a63908790600401613c28565b602060405180830381600087803b158015612a7d57600080fd5b505af1158015612a91573d6000803e3d6000fd5b505050506040513d601f19601f82011682018060405250810190612ab59190613d21565b845161ffff919091166020909101528351516040516338a6b6a360e11b815260ff90911660048201526001600160a01b0384169063714d6d4690602401600060405180830381600087803b158015612b0c57600080fd5b505af1158015612b20573d6000803e3d6000fd5b50505050600073__$fd7bbdaedbcbc33e1887256b0ab47b2b43$__638503d8d6600160009054906101000a90046001600160a01b03166001600160a01b031663a61adc286040518163ffffffff1660e01b815260040160206040518083038186803b158015612b8e57600080fd5b505afa158015612ba2573d6000803e3d6000fd5b505050506040513d601f19601f82011682018060405250810190612bc691906134b7565b875151604051634846203760e01b815260ff90911660048201526001600160a01b03919091169063484620379060240160206040518083038186803b158015612c0e57600080fd5b505afa158015612c22573d6000803e3d6000fd5b505050506040513d601f19601f82011682018060405250810190612c469190613b8a565b6040518263ffffffff1660e01b8152600401612c6491815260200190565b6102606040518083038186803b158015612c7d57600080fd5b505af4158015612c91573d6000803e3d6000fd5b505050506040513d601f19601f82011682018060405250810190612cb59190613db2565b9050826001600160a01b0316636215b0e485600062015180428a600001516101000151612ce29190613f0c565b612cee9061a8c0613f33565b612cf89190613f5d565b6040516001600160e01b031960e086901b168152612d229392919087906000908190600401613fc0565b600060405180830381600087803b158015612d3c57600080fd5b505af1158015612d50573d6000803e3d6000fd5b5096979650505050505050565b825151825160e001516040516336a2ddaf60e21b81526001600160a01b03878116600483015260ff90931660248201526044810184905264ffffffffff909116606482015260009188169063da8b76bc90608401602060405180830381600087803b158015612dcb57600080fd5b505af1158015612ddf573d6000803e3d6000fd5b505050506040513d601f19601f82011682018060405250810190612e0391906137f8565b835160e0015160405163ec83613b60e01b81526001600160401b038316600482015264ffffffffff90911660248201529091506001600160a01b0388169063ec83613b90604401600060405180830381600087803b158015612e6457600080fd5b505af1158015612e78573d6000803e3d6000fd5b505060405163055ad79f60e41b81526001600160a01b0388811660048301526001600160401b0385166024830152891692506355ad79f09150604401610aae565b6000546001600160a01b031615612f0a5760405162461bcd60e51b815260206004820152601560248201527430b63932b0b23c9039b2ba103932b3a1b2b73a32b960591b604482015260640161052e565b600080546001600160a01b0319166001600160a01b0392909216919091179055565b6001546001600160a01b031615612f855760405162461bcd60e51b815260206004820152601960248201527f616c7265616479207365742067656e6572616c4b656570657200000000000000604482015260640161052e565b600180546001600160a01b0319166001600160a01b0392909216919091179055565b604080516101a081019091526000606082018181526080830182905260a0830182905260c0830182905260e08301829052610100830182905261012083018290526101408301829052610160830182905261018083019190915281908152604080516101008101825260008082526020828101829052928201819052606082018190526080820181905260a0820181905260c0820181905260e08201529101908152600060209091015290565b6000806040838503121561306757600080fd5b50508035926020909101359150565b6000806000806080858703121561308c57600080fd5b5050823594602084013594506040840135936060013592509050565b60008060008060008060c087890312156130c157600080fd5b505084359660208601359650604086013595606081013595506080810135945060a0013592509050565b6000602082840312156130fd57600080fd5b5035919050565b634e487b7160e01b600052604160045260246000fd5b60405161012081016001600160401b038111828210171561313d5761313d613104565b60405290565b604080519081016001600160401b038111828210171561313d5761313d613104565b604051606081016001600160401b038111828210171561313d5761313d613104565b60405160e081016001600160401b038111828210171561313d5761313d613104565b60405161014081016001600160401b038111828210171561313d5761313d613104565b60405161024081016001600160401b038111828210171561313d5761313d613104565b604051601f8201601f191681016001600160401b038111828210171561321757613217613104565b604052919050565b60008060006060848603121561323457600080fd5b83359250602080850135925060408501356001600160401b038082111561325a57600080fd5b818701915087601f83011261326e57600080fd5b81358181111561328057613280613104565b613292601f8201601f191685016131ef565b915080825288848285010111156132a857600080fd5b80848401858401376000848284010152508093505050509250925092565b600080600080600060a086880312156132de57600080fd5b505083359560208501359550604085013594606081013594506080013592509050565b6001600160a01b038116811461331657600080fd5b50565b60006020828403121561332b57600080fd5b8135611eb281613301565b60008060006060848603121561334b57600080fd5b505081359360208301359350604090920135919050565b600080600080600080600060e0888a03121561337d57600080fd5b873596506020880135955060408801359450606088013561339d81613301565b9699959850939660808101359560a0820135955060c0909101359350915050565b600080600080608085870312156133d457600080fd5b8435935060208501356133e681613301565b925060408501356133f681613301565b9150606085013561340681613301565b939692955090935050565b805164ffffffffff8116811461342657600080fd5b919050565b60006020828403121561343d57600080fd5b611eb282613411565b8051801515811461342657600080fd5b60006020828403121561346857600080fd5b611eb282613446565b60208082526026908201527f41432e6f6e6c794469726563744b65657065723a206e6f74206469726563742060408201526535b2b2b832b960d11b606082015260800190565b6000602082840312156134c957600080fd5b8151611eb281613301565b805163ffffffff8116811461342657600080fd5b805161ffff8116811461342657600080fd5b805165ffffffffffff8116811461342657600080fd5b805160ff8116811461342657600080fd5b6000610120828403121561353457600080fd5b61353c61311a565b9050613547826134d4565b8152613555602083016134e8565b6020820152613566604083016134fa565b6040820152613577606083016134e8565b6060820152613588608083016134e8565b608082015261359960a08301613411565b60a08201526135aa60c08301613411565b60c08201526135bb60e08301613411565b60e08201526101006135ce818401613510565b9082015292915050565b600061012082840312156135eb57600080fd5b611eb28383613521565b80516001600160401b038116811461342657600080fd5b600060c0828403121561361e57600080fd5b60405160c081018181106001600160401b038211171561364057613640613104565b60405290508061364f836134fa565b815261365d602084016135f5565b602082015261366e604084016135f5565b604082015261367f606084016135f5565b606082015261369060808401613510565b60808201526136a160a08401613510565b60a08201525092915050565b60008183036101e08112156136c157600080fd5b6136c9613143565b610120808312156136d957600080fd5b6136e161311a565b92506136ec856134d4565b83526136fa602086016134d4565b602084015261370b604086016134e8565b604084015261371c606086016134fa565b606084015261372d60808601613411565b608084015261373e60a086016134d4565b60a084015261374f60c086016134d4565b60c084015261376060e086016134e8565b60e0840152610100613773818701613510565b908401528282526137868686830161360c565b602083015250949350505050565b83815260006020848184015260606040840152835180606085015260005b818110156137ce578581018301518582016080015282016137b2565b818111156137e0576000608083870101525b50601f01601f19169290920160800195945050505050565b60006020828403121561380a57600080fd5b611eb2826135f5565b600081830361022081121561382757600080fd5b61382f613165565b6138398585613521565b815260e061011f198301121561384e57600080fd5b613856613187565b915061386561012085016135f5565b825261387461014085016135f5565b602083015261388661016085016135f5565b604083015261389861018085016134e8565b60608301526138aa6101a085016134e8565b60808301526138bc6101c085016134e8565b60a08301526138ce6101e085016134e8565b60c083015260208101919091526102009290920151604083015250919050565b6000610140828403121561390157600080fd5b6139096131a9565b61391283613510565b8152613920602084016134e8565b6020820152613931604084016134e8565b6040820152613942606084016134e8565b6060820152613953608084016134d4565b608082015261396460a08401613411565b60a082015261397560c084016134d4565b60c082015261398660e084016134d4565b60e08201526101006139998185016134fa565b908201526101206139ab8482016134e8565b908201529392505050565b805161342681613301565b634e487b7160e01b600052601160045260246000fd5b600082198211156139ea576139ea6139c1565b500190565b6000818303610140811215613a0357600080fd5b613a0b613143565b61012080831215613a1b57600080fd5b613a2361311a565b9250613a2e856134e8565b8352613a3c602086016134e8565b6020840152613a4d604086016135f5565b6040840152613a5e60608601613411565b6060840152613a6f608086016134fa565b6080840152613a8060a086016134e8565b60a0840152613a9160c086016134e8565b60c0840152613aa260e086016134d4565b60e0840152610100613ab5818701613510565b908401528282526137868582016139b6565b60006101208201905061ffff808451168352806020850151166020840152506040830151613b0060408401826001600160401b03169052565b506060830151613b19606084018264ffffffffff169052565b506080830151613b33608084018265ffffffffffff169052565b5060a0830151613b4960a084018261ffff169052565b5060c0830151613b5f60c084018261ffff169052565b5060e0830151613b7760e084018263ffffffff169052565b506101009283015160ff16919092015290565b600060208284031215613b9c57600080fd5b5051919050565b64ffffffffff8082511683528060208301511660208401525060408101516001600160401b038082166040850152806060840151166060850152505060ff608082015116608083015261ffff60a08201511660a083015260c0810151613c0f60c084018261ffff169052565b5060e0810151613c2360e084018215159052565b505050565b8151805160ff1682526102608201906020810151613c4c602085018261ffff169052565b506040810151613c62604085018261ffff169052565b506060810151613c78606085018261ffff169052565b506080810151613c90608085018263ffffffff169052565b5060a0810151613ca960a085018264ffffffffff169052565b5060c0810151613cc160c085018263ffffffff169052565b5060e0810151613cd960e085018263ffffffff169052565b506101008181015165ffffffffffff16908401526101209081015161ffff16908301526020830151613d0f610140840182613ba3565b50604083015161024083015292915050565b600060208284031215613d3357600080fd5b611eb2826134e8565b600082601f830112613d4d57600080fd5b604051604081018181106001600160401b0382111715613d6f57613d6f613104565b8060405250806040840185811115613d8657600080fd5b845b81811015613da757613d9981613411565b835260209283019201613d88565b509195945050505050565b60006102608284031215613dc557600080fd5b613dcd6131cc565b613dd6836134e8565b8152613de460208401613510565b6020820152613df560408401613510565b6040820152613e06606084016134e8565b6060820152613e17608084016134e8565b6080820152613e2860a084016134e8565b60a0820152613e3960c08401613446565b60c0820152613e4a60e08401613446565b60e0820152610100613e5d818501613446565b90820152610120613e6f848201613446565b90820152610140613e81848201613510565b90820152610160613e93848201613510565b90820152610180613ea5848201613510565b908201526101a0613eb7848201613510565b908201526101c0613ec9848201613510565b908201526101e0613edb848201613510565b90820152610200613eee85858301613d3c565b90820152613eff61024084016134e8565b6102208201529392505050565b600065ffffffffffff83811690831681811015613f2b57613f2b6139c1565b039392505050565b600065ffffffffffff808316818516808303821115613f5457613f546139c1565b01949350505050565b600065ffffffffffff80841680613f8457634e487b7160e01b600052601260045260246000fd5b92169190910492915050565b8060005b6002811015613fba57815164ffffffffff16845260209384019390910190600101613f94565b50505050565b6001600160a01b038716815261ffff8681166020830152858116604083015284511660608201526103008101602085015160ff8116608084015250604085015160ff811660a084015250606085015161ffff811660c084015250608085015161ffff811660e08401525060a08501516101006140418185018361ffff169052565b60c087015191506101206140588186018415159052565b60e0880151925061014061406f8187018515159052565b918801519250610160916140868684018515159052565b9088015192506101809061409d8683018515159052565b88015192506101a06140b38682018560ff169052565b9188015192506101c0916140cb8684018560ff169052565b9088015192506101e0906140e38683018560ff169052565b88015192506102006140f98682018560ff169052565b918801519250610220916141118684018560ff169052565b9088015160ff166102408601528701519150614131610260850183613f90565b9095015161ffff166102a08301526102c08201939093526102e0015294935050505056fea2646970667358221220d7de4d758d0cf154bd8510b35912e417ab6a7595dde8f64cd8de70c783804bf864736f6c63430008080033",
    "sourcePath": "/Users/kaptain/github.com/comboox/comboox/contracts/keepers/BOPKeeper.sol",
    "compiler": {
        "name": "solc",
        "version": "0.8.8+commit.dddeac2f"
    },
    "functionHashes": {
        "abandonRole(bytes32)": "3da9a600",
        "createPledge(bytes32,uint256,uint256,uint256,uint256,uint256)": "33e68530",
        "execPledge(bytes32,uint256,uint256,address,uint256,uint256,uint256)": "7632be02",
        "extendPledge(uint256,uint256,uint256,uint256)": "417dea25",
        "finalized()": "b3f05b97",
        "getBookeeper()": "ed211023",
        "getGeneralCounsel()": "103f6edd",
        "getOwner()": "893d20e8",
        "grantRole(bytes32,uint256)": "1b6ea9f9",
        "hasRole(bytes32,uint256)": "7e063c5a",
        "init(uint256,address,address,address)": "dc890da9",
        "lockContents()": "f045a769",
        "lockPledge(uint256,uint256,bytes32,uint256)": "3067033d",
        "refundDebt(uint256,uint256,uint256,uint256)": "ca6de9ac",
        "releasePledge(uint256,uint256,string)": "50235307",
        "removeDirectKeeper(address)": "5d7ad88f",
        "renounceRole(bytes32)": "8bb9c5bf",
        "revokePledge(uint256,uint256,uint256)": "72b5e711",
        "revokeRole(bytes32,uint256)": "19d61ad9",
        "setDirectKeeper(address)": "6be8496f",
        "setGeneralCounsel(uint256)": "4a14beb1",
        "setOwner(uint256)": "8041494e",
        "setRoleAdmin(bytes32,uint256)": "5171ebd4",
        "transferPledge(uint256,uint256,uint256,uint256,uint256)": "5551fc48"
    },
    "gasEstimates": {
        "creation": {
            "codeDepositCost": "3355800",
            "executionCost": "3739",
            "totalCost": "3359539"
        },
        "external": {
            "abandonRole(bytes32)": "infinite",
            "createPledge(bytes32,uint256,uint256,uint256,uint256,uint256)": "infinite",
            "execPledge(bytes32,uint256,uint256,address,uint256,uint256,uint256)": "infinite",
            "extendPledge(uint256,uint256,uint256,uint256)": "infinite",
            "finalized()": "2371",
            "getBookeeper()": "infinite",
            "getGeneralCounsel()": "infinite",
            "getOwner()": "infinite",
            "grantRole(bytes32,uint256)": "infinite",
            "hasRole(bytes32,uint256)": "infinite",
            "init(uint256,address,address,address)": "infinite",
            "lockContents()": "infinite",
            "lockPledge(uint256,uint256,bytes32,uint256)": "infinite",
            "refundDebt(uint256,uint256,uint256,uint256)": "infinite",
            "releasePledge(uint256,uint256,string)": "infinite",
            "removeDirectKeeper(address)": "infinite",
            "renounceRole(bytes32)": "infinite",
            "revokePledge(uint256,uint256,uint256)": "infinite",
            "revokeRole(bytes32,uint256)": "infinite",
            "setDirectKeeper(address)": "infinite",
            "setGeneralCounsel(uint256)": "infinite",
            "setOwner(uint256)": "infinite",
            "setRoleAdmin(bytes32,uint256)": "infinite",
            "transferPledge(uint256,uint256,uint256,uint256,uint256)": "infinite"
        },
        "internal": {
            "_circulateIA(struct DealsRepo.Deal memory,contract IInvestmentAgreement,contract IBookOfIA)": "infinite",
            "_createIA(uint256,uint256,uint256,address,contract IBookOfIA,uint256)": "infinite",
            "_proposeIA(contract IMeetingMinutes,contract IBookOfIA,address,struct DealsRepo.Deal memory,struct PledgesRepo.Pledge memory,uint256)": "infinite",
            "_signIA(contract IInvestmentAgreement,struct DealsRepo.Deal memory,struct PledgesRepo.Pledge memory,contract IBookOfIA)": "infinite"
        }
    }
}