{
    "contractName": "BOPKeeper",
    "abi": [
        {
            "anonymous": false,
            "inputs": [
                {
                    "indexed": false,
                    "internalType": "uint256",
                    "name": "owner",
                    "type": "uint256"
                },
                {
                    "indexed": false,
                    "internalType": "address",
                    "name": "directKeeper",
                    "type": "address"
                },
                {
                    "indexed": false,
                    "internalType": "address",
                    "name": "regCenter",
                    "type": "address"
                },
                {
                    "indexed": false,
                    "internalType": "address",
                    "name": "generalKeeper",
                    "type": "address"
                }
            ],
            "name": "Init",
            "type": "event"
        },
        {
            "anonymous": false,
            "inputs": [],
            "name": "LockContents",
            "type": "event"
        },
        {
            "anonymous": false,
            "inputs": [
                {
                    "indexed": false,
                    "internalType": "address",
                    "name": "keeper",
                    "type": "address"
                }
            ],
            "name": "SetDirectKeeper",
            "type": "event"
        },
        {
            "anonymous": false,
            "inputs": [
                {
                    "indexed": false,
                    "internalType": "uint256",
                    "name": "acct",
                    "type": "uint256"
                }
            ],
            "name": "SetGeneralCounsel",
            "type": "event"
        },
        {
            "anonymous": false,
            "inputs": [
                {
                    "indexed": false,
                    "internalType": "address",
                    "name": "gk",
                    "type": "address"
                }
            ],
            "name": "SetGeneralKeeper",
            "type": "event"
        },
        {
            "anonymous": false,
            "inputs": [
                {
                    "indexed": false,
                    "internalType": "uint256",
                    "name": "acct",
                    "type": "uint256"
                }
            ],
            "name": "SetOwner",
            "type": "event"
        },
        {
            "anonymous": false,
            "inputs": [
                {
                    "indexed": false,
                    "internalType": "address",
                    "name": "rc",
                    "type": "address"
                }
            ],
            "name": "SetRegCenter",
            "type": "event"
        },
        {
            "inputs": [
                {
                    "internalType": "bytes32",
                    "name": "role",
                    "type": "bytes32"
                }
            ],
            "name": "abandonRole",
            "outputs": [],
            "stateMutability": "nonpayable",
            "type": "function"
        },
        {
            "inputs": [
                {
                    "internalType": "bytes32",
                    "name": "sn",
                    "type": "bytes32"
                },
                {
                    "internalType": "uint256",
                    "name": "creditor",
                    "type": "uint256"
                },
                {
                    "internalType": "uint16",
                    "name": "monOfGuarantee",
                    "type": "uint16"
                },
                {
                    "internalType": "uint64",
                    "name": "pledgedPaid",
                    "type": "uint64"
                },
                {
                    "internalType": "uint64",
                    "name": "pledgedPar",
                    "type": "uint64"
                },
                {
                    "internalType": "uint64",
                    "name": "guaranteedAmt",
                    "type": "uint64"
                },
                {
                    "internalType": "uint256",
                    "name": "caller",
                    "type": "uint256"
                }
            ],
            "name": "createPledge",
            "outputs": [],
            "stateMutability": "nonpayable",
            "type": "function"
        },
        {
            "inputs": [
                {
                    "internalType": "uint256",
                    "name": "seqOfShare",
                    "type": "uint256"
                },
                {
                    "internalType": "uint256",
                    "name": "seqOfPledge",
                    "type": "uint256"
                },
                {
                    "internalType": "uint256",
                    "name": "caller",
                    "type": "uint256"
                }
            ],
            "name": "delPledge",
            "outputs": [],
            "stateMutability": "nonpayable",
            "type": "function"
        },
        {
            "inputs": [],
            "name": "finalized",
            "outputs": [
                {
                    "internalType": "bool",
                    "name": "",
                    "type": "bool"
                }
            ],
            "stateMutability": "view",
            "type": "function"
        },
        {
            "inputs": [],
            "name": "getBookeeper",
            "outputs": [
                {
                    "internalType": "address",
                    "name": "",
                    "type": "address"
                }
            ],
            "stateMutability": "view",
            "type": "function"
        },
        {
            "inputs": [],
            "name": "getGeneralCounsel",
            "outputs": [
                {
                    "internalType": "uint40",
                    "name": "",
                    "type": "uint40"
                }
            ],
            "stateMutability": "view",
            "type": "function"
        },
        {
            "inputs": [],
            "name": "getOwner",
            "outputs": [
                {
                    "internalType": "uint40",
                    "name": "",
                    "type": "uint40"
                }
            ],
            "stateMutability": "view",
            "type": "function"
        },
        {
            "inputs": [
                {
                    "internalType": "bytes32",
                    "name": "role",
                    "type": "bytes32"
                },
                {
                    "internalType": "uint256",
                    "name": "acct",
                    "type": "uint256"
                }
            ],
            "name": "grantRole",
            "outputs": [],
            "stateMutability": "nonpayable",
            "type": "function"
        },
        {
            "inputs": [
                {
                    "internalType": "bytes32",
                    "name": "role",
                    "type": "bytes32"
                },
                {
                    "internalType": "uint256",
                    "name": "acct",
                    "type": "uint256"
                }
            ],
            "name": "hasRole",
            "outputs": [
                {
                    "internalType": "bool",
                    "name": "",
                    "type": "bool"
                }
            ],
            "stateMutability": "view",
            "type": "function"
        },
        {
            "inputs": [
                {
                    "internalType": "uint256",
                    "name": "owner",
                    "type": "uint256"
                },
                {
                    "internalType": "address",
                    "name": "directKeeper",
                    "type": "address"
                },
                {
                    "internalType": "address",
                    "name": "regCenter",
                    "type": "address"
                },
                {
                    "internalType": "address",
                    "name": "generalKeeper",
                    "type": "address"
                }
            ],
            "name": "init",
            "outputs": [],
            "stateMutability": "nonpayable",
            "type": "function"
        },
        {
            "inputs": [],
            "name": "lockContents",
            "outputs": [],
            "stateMutability": "nonpayable",
            "type": "function"
        },
        {
            "inputs": [
                {
                    "internalType": "bytes32",
                    "name": "role",
                    "type": "bytes32"
                }
            ],
            "name": "renounceRole",
            "outputs": [],
            "stateMutability": "nonpayable",
            "type": "function"
        },
        {
            "inputs": [
                {
                    "internalType": "bytes32",
                    "name": "role",
                    "type": "bytes32"
                },
                {
                    "internalType": "uint256",
                    "name": "acct",
                    "type": "uint256"
                }
            ],
            "name": "revokeRole",
            "outputs": [],
            "stateMutability": "nonpayable",
            "type": "function"
        },
        {
            "inputs": [
                {
                    "internalType": "address",
                    "name": "keeper",
                    "type": "address"
                }
            ],
            "name": "setDirectKeeper",
            "outputs": [],
            "stateMutability": "nonpayable",
            "type": "function"
        },
        {
            "inputs": [
                {
                    "internalType": "uint256",
                    "name": "acct",
                    "type": "uint256"
                }
            ],
            "name": "setGeneralCounsel",
            "outputs": [],
            "stateMutability": "nonpayable",
            "type": "function"
        },
        {
            "inputs": [
                {
                    "internalType": "uint256",
                    "name": "acct",
                    "type": "uint256"
                }
            ],
            "name": "setOwner",
            "outputs": [],
            "stateMutability": "nonpayable",
            "type": "function"
        },
        {
            "inputs": [
                {
                    "internalType": "bytes32",
                    "name": "role",
                    "type": "bytes32"
                },
                {
                    "internalType": "uint256",
                    "name": "acct",
                    "type": "uint256"
                }
            ],
            "name": "setRoleAdmin",
            "outputs": [],
            "stateMutability": "nonpayable",
            "type": "function"
        },
        {
            "inputs": [
                {
                    "internalType": "uint256",
                    "name": "seqOfShare",
                    "type": "uint256"
                },
                {
                    "internalType": "uint256",
                    "name": "seqOfPledge",
                    "type": "uint256"
                },
                {
                    "internalType": "uint256",
                    "name": "creditor",
                    "type": "uint256"
                },
                {
                    "internalType": "uint48",
                    "name": "expireDate",
                    "type": "uint48"
                },
                {
                    "internalType": "uint64",
                    "name": "pledgedPaid",
                    "type": "uint64"
                },
                {
                    "internalType": "uint64",
                    "name": "pledgedPar",
                    "type": "uint64"
                },
                {
                    "internalType": "uint64",
                    "name": "guaranteedAmt",
                    "type": "uint64"
                },
                {
                    "internalType": "uint256",
                    "name": "caller",
                    "type": "uint256"
                }
            ],
            "name": "updatePledge",
            "outputs": [],
            "stateMutability": "nonpayable",
            "type": "function"
        }
    ],
    "bytecode": "608060405234801561001057600080fd5b5061247d806100206000396000f3fe608060405234801561001057600080fd5b50600436106101165760003560e01c80638041494e116100a2578063b4341aae11610071578063b4341aae1461022a578063bcb3ba971461023d578063dc890da914610250578063ed21102314610263578063f045a7691461028357600080fd5b80638041494e146101e8578063893d20e8146101fb5780638bb9c5bf14610203578063b3f05b971461021657600080fd5b80634a14beb1116100e95780634a14beb1146101795780635171ebd41461018c5780636be8496f1461019f5780636f0fd299146101b25780637e063c5a146101c557600080fd5b8063103f6edd1461011b57806319d61ad91461013e5780631b6ea9f9146101535780633da9a60014610166575b600080fd5b61012361028b565b60405164ffffffffff90911681526020015b60405180910390f35b61015161014c366004611cb3565b610317565b005b610151610161366004611cb3565b6103ab565b610151610174366004611cd5565b6103d0565b610151610187366004611cd5565b6104eb565b61015161019a366004611cb3565b6106db565b6101516101ad366004611d06565b610700565b6101516101c0366004611d48565b6107b2565b6101d86101d3366004611cb3565b610b13565b6040519015158152602001610135565b6101516101f6366004611cd5565b610bae565b610123610d93565b610151610211366004611cd5565b610dce565b60028054600160f01b900460ff16146101d8565b610151610238366004611dc3565b610e27565b61015161024b366004611e03565b611133565b61015161025e366004611e88565b6116ed565b61026b6117d0565b6040516001600160a01b039091168152602001610135565b610151611856565b60405163e8c0cc1d60e01b81526002600482015260009073__$364aad554dc80380f414546becdd2c1584$__9063e8c0cc1d906024015b60206040518083038186803b1580156102da57600080fd5b505af41580156102ee573d6000803e3d6000fd5b505050506040513d601f19601f820116820180604052508101906103129190611ef5565b905090565b73__$364aad554dc80380f414546becdd2c1584$__6382daafaa60028461033c611a74565b6040516001600160e01b031960e086901b1681526004810193909352602483019190915264ffffffffff166044820152606481018490526084015b60006040518083038186803b15801561038f57600080fd5b505af41580156103a3573d6000803e3d6000fd5b505050505050565b73__$364aad554dc80380f414546becdd2c1584$__636320d75e60028461033c611a74565b604051633b11adbf60e21b81526002600482015233602482015273__$364aad554dc80380f414546becdd2c1584$__9063ec46b6fc9060440160206040518083038186803b15801561042157600080fd5b505af4158015610435573d6000803e3d6000fd5b505050506040513d601f19601f820116820180604052508101906104599190611f10565b61047e5760405162461bcd60e51b815260040161047590611f32565b60405180910390fd5b60405163cc99e11b60e01b8152600260048201526024810182905273__$364aad554dc80380f414546becdd2c1584$__9063cc99e11b9060440160006040518083038186803b1580156104d057600080fd5b505af41580156104e4573d6000803e3d6000fd5b5050505050565b604051633b11adbf60e21b81526002600482015233602482015273__$364aad554dc80380f414546becdd2c1584$__9063ec46b6fc9060440160206040518083038186803b15801561053c57600080fd5b505af4158015610550573d6000803e3d6000fd5b505050506040513d601f19601f820116820180604052508101906105749190611f10565b80610619575073__$364aad554dc80380f414546becdd2c1584$__63fe271086600261059e611a74565b6040516001600160e01b031960e085901b168152600481019290925264ffffffffff16602482015260440160206040518083038186803b1580156105e157600080fd5b505af41580156105f5573d6000803e3d6000fd5b505050506040513d601f19601f820116820180604052508101906106199190611f10565b6106355760405162461bcd60e51b815260040161047590611f78565b604051632725ebef60e21b8152600260048201526024810182905273__$364aad554dc80380f414546becdd2c1584$__90639c97afbc9060440160006040518083038186803b15801561068757600080fd5b505af415801561069b573d6000803e3d6000fd5b505050507ff2735f34b69be1e6342dea95f9162f84d0db925fab655ca9f1f312ac8cbfc99d816040516106d091815260200190565b60405180910390a150565b73__$364aad554dc80380f414546becdd2c1584$__63ee98b31360028461033c611a74565b604051630f07232560e01b8152600260048201523360248201526001600160a01b038216604482015273__$364aad554dc80380f414546becdd2c1584$__90630f0723259060640160006040518083038186803b15801561076057600080fd5b505af4158015610774573d6000803e3d6000fd5b50506040516001600160a01b03841681527fe435cbeab64e4eae6497b9d8289704bd709d624a80704ef3ca9af777534bc6ec925060200190506106d0565b604051633b11adbf60e21b81526002600482015233602482015273__$364aad554dc80380f414546becdd2c1584$__9063ec46b6fc9060440160206040518083038186803b15801561080357600080fd5b505af4158015610817573d6000803e3d6000fd5b505050506040513d601f19601f8201168201806040525081019061083b9190611f10565b6108575760405162461bcd60e51b815260040161047590611f32565b604051637dfd694760e11b81526004810188905260009073__$d113c86820c60155271829fbf7bae741f8$__9063fbfad28e9060240160c06040518083038186803b1580156108a557600080fd5b505af41580156108b9573d6000803e3d6000fd5b505050506040513d601f19601f820116820180604052508101906108dd9190612137565b905060006108e9611ace565b82516040516319f6b4bf60e31b815263ffffffff90911660048201529091506000906001600160a01b0383169063cfb5a5f8906024016101806040518083038186803b15801561093857600080fd5b505afa15801561094c573d6000803e3d6000fd5b505050506040513d601f19601f8201168201806040525081019061097091906121cc565b805160a0015190915064ffffffffff1684146109ce5760405162461bcd60e51b815260206004820152601860248201527f424f504b2e43503a204e4f54207368617265686f6c64657200000000000000006044820152606401610475565b83836080015164ffffffffff1614610a1f5760405162461bcd60e51b81526020600482015260146024820152732127a8259721a81d102727aa10383632b233b7b960611b6044820152606401610475565b8251604051634bacf96160e01b815263ffffffff90911660048201526001600160401b038089166024830152871660448201526001600160a01b03831690634bacf96190606401600060405180830381600087803b158015610a8057600080fd5b505af1158015610a94573d6000803e3d6000fd5b50505050610aa0611b32565b6001600160a01b0316639dd7e9af848b8b8b8b8b6040518763ffffffff1660e01b8152600401610ad5969594939291906122a3565b600060405180830381600087803b158015610aef57600080fd5b505af1158015610b03573d6000803e3d6000fd5b5050505050505050505050505050565b604051632a3be56b60e21b815260026004820152602481018390526044810182905260009073__$364aad554dc80380f414546becdd2c1584$__9063a8ef95ac9060640160206040518083038186803b158015610b6f57600080fd5b505af4158015610b83573d6000803e3d6000fd5b505050506040513d601f19601f82011682018060405250810190610ba79190611f10565b9392505050565b604051633b11adbf60e21b81526002600482015233602482015273__$364aad554dc80380f414546becdd2c1584$__9063ec46b6fc9060440160206040518083038186803b158015610bff57600080fd5b505af4158015610c13573d6000803e3d6000fd5b505050506040513d601f19601f82011682018060405250810190610c379190611f10565b80610cdc575073__$364aad554dc80380f414546becdd2c1584$__63fe2710866002610c61611a74565b6040516001600160e01b031960e085901b168152600481019290925264ffffffffff16602482015260440160206040518083038186803b158015610ca457600080fd5b505af4158015610cb8573d6000803e3d6000fd5b505050506040513d601f19601f82011682018060405250810190610cdc9190611f10565b610cf85760405162461bcd60e51b815260040161047590611f78565b60405163b6e38a2960e01b8152600260048201526024810182905273__$364aad554dc80380f414546becdd2c1584$__9063b6e38a299060440160006040518083038186803b158015610d4a57600080fd5b505af4158015610d5e573d6000803e3d6000fd5b505050507f8b6f40f36b4ae8cc5f55e895036457c43da4ab1f80f58c46f5ff0d72a650033b816040516106d091815260200190565b60405163987ad15360e01b81526002600482015260009073__$364aad554dc80380f414546becdd2c1584$__9063987ad153906024016102c2565b6000610dd8611a74565b60405163cc0d511b60e01b8152600260048201526024810184905264ffffffffff8216604482015290915073__$364aad554dc80380f414546becdd2c1584$__9063cc0d511b90606401610377565b604051633b11adbf60e21b81526002600482015233602482015273__$364aad554dc80380f414546becdd2c1584$__9063ec46b6fc9060440160206040518083038186803b158015610e7857600080fd5b505af4158015610e8c573d6000803e3d6000fd5b505050506040513d601f19601f82011682018060405250810190610eb09190611f10565b610ecc5760405162461bcd60e51b815260040161047590611f32565b6000610ed6611b32565b60405163f671e82160e01b815260048101869052602481018590526001600160a01b03919091169063f671e821906044016101406040518083038186803b158015610f2057600080fd5b505afa158015610f34573d6000803e3d6000fd5b505050506040513d601f19601f82011682018060405250810190610f589190612358565b80516060015190915065ffffffffffff16421015610fbf5760208101515164ffffffffff168214610fba5760405162461bcd60e51b815260206004820152600c60248201526b2727aa1031b932b234ba37b960a11b6044820152606401610475565b611008565b80516080015164ffffffffff1682146110085760405162461bcd60e51b815260206004820152600b60248201526a2727aa10283632b233b7b960a91b6044820152606401610475565b611010611ace565b602080830151908101516040918201519151631ba9b20960e21b8152600481018890526001600160401b039182166024820152911660448201526001600160a01b039190911690636ea6c82490606401600060405180830381600087803b15801561107a57600080fd5b505af115801561108e573d6000803e3d6000fd5b5050505061109a611b32565b60208201515160405163268375bf60e01b8152600481018790526024810186905264ffffffffff90911660448201526000606482018190526084820181905260a4820181905260c48201526001600160a01b03919091169063268375bf9060e401600060405180830381600087803b15801561111557600080fd5b505af1158015611129573d6000803e3d6000fd5b5050505050505050565b604051633b11adbf60e21b81526002600482015233602482015273__$364aad554dc80380f414546becdd2c1584$__9063ec46b6fc9060440160206040518083038186803b15801561118457600080fd5b505af4158015611198573d6000803e3d6000fd5b505050506040513d601f19601f820116820180604052508101906111bc9190611f10565b6111d85760405162461bcd60e51b815260040161047590611f32565b6001600160401b03841661122e5760405162461bcd60e51b815260206004820152601960248201527f424f504b2e55503a205a45524f20706c656467656450616964000000000000006044820152606401610475565b6000611238611b32565b60405163f671e82160e01b8152600481018b9052602481018a90526001600160a01b03919091169063f671e821906044016101406040518083038186803b15801561128257600080fd5b505afa158015611296573d6000803e3d6000fd5b505050506040513d601f19601f820116820180604052508101906112ba9190612358565b90508060200151602001516001600160401b0316856001600160401b031610806112fd57508060200151604001516001600160401b0316846001600160401b0316105b8061131f575080600001516060015165ffffffffffff168665ffffffffffff16105b80611336575060208101515164ffffffffff168714155b1561148f5760208101515164ffffffffff16821461138e5760405162461bcd60e51b81526020600482015260156024820152742127a825972aa81d102727aa1031b932b234ba37b960591b6044820152606401610475565b611396611ace565b6001600160a01b0316636ea6c8248a6000888560200151602001516113bb91906123f4565b6001600160401b0316116113d05760006113e4565b878460200151602001516113e491906123f4565b6000888660200151604001516113fa91906123f4565b6001600160401b03161161140f576000611423565b8785602001516040015161142391906123f4565b6040516001600160e01b031960e086901b16815260048101939093526001600160401b039182166024840152166044820152606401600060405180830381600087803b15801561147257600080fd5b505af1158015611486573d6000803e3d6000fd5b50505050611643565b8060200151602001516001600160401b0316856001600160401b031611806114d057508060200151604001516001600160401b0316846001600160401b0316115b806114f2575080600001516060015165ffffffffffff168665ffffffffffff16115b156116435780516080015164ffffffffff1682146115495760405162461bcd60e51b81526020600482015260146024820152732127a825972aa81d102727aa10383632b233b7b960611b6044820152606401610475565b611551611ace565b6001600160a01b0316634bacf9618a60008460200151602001518961157691906123f4565b6001600160401b03161161158b57600061159d565b602080850151015161159d90896123f4565b6000856020015160400151896115b391906123f4565b6001600160401b0316116115c85760006115db565b6020850151604001516115db90896123f4565b6040516001600160e01b031960e086901b16815260048101939093526001600160401b039182166024840152166044820152606401600060405180830381600087803b15801561162a57600080fd5b505af115801561163e573d6000803e3d6000fd5b505050505b61164b611b32565b60405163268375bf60e01b8152600481018b9052602481018a90526044810189905265ffffffffffff881660648201526001600160401b03808816608483015280871660a4830152851660c48201526001600160a01b03919091169063268375bf9060e401600060405180830381600087803b1580156116ca57600080fd5b505af11580156116de573d6000803e3d6000fd5b50505050505050505050505050565b6116f682611b4d565b6116ff81611bfc565b604051636cdd0edf60e11b815260026004820152602481018590526001600160a01b038416604482015273__$364aad554dc80380f414546becdd2c1584$__9063d9ba1dbe9060640160006040518083038186803b15801561176057600080fd5b505af4158015611774573d6000803e3d6000fd5b5050604080518781526001600160a01b038781166020830152868116828401528516606082015290517f3abb2418c66fe32ba9c883030a75ce583971d9af9192b9b74e44e67c5e6c8c1f9350908190036080019150a150505050565b604051633c3e56c160e11b81526002600482015260009073__$364aad554dc80380f414546becdd2c1584$__9063787cad829060240160206040518083038186803b15801561181e57600080fd5b505af4158015611832573d6000803e3d6000fd5b505050506040513d601f19601f82011682018060405250810190610312919061242a565b604051633b11adbf60e21b81526002600482015233602482015273__$364aad554dc80380f414546becdd2c1584$__9063ec46b6fc9060440160206040518083038186803b1580156118a757600080fd5b505af41580156118bb573d6000803e3d6000fd5b505050506040513d601f19601f820116820180604052508101906118df9190611f10565b6118fb5760405162461bcd60e51b815260040161047590611f32565b600254600160f01b900460ff166001146119575760405162461bcd60e51b815260206004820181905260248201527f41432e6f6e6c7950656e64696e673a20446f632069732066696e616c697a65646044820152606401610475565b60405163cc99e11b60e01b815260026004820152684174746f726e65797360b81b602482015273__$364aad554dc80380f414546becdd2c1584$__9063cc99e11b9060440160006040518083038186803b1580156119b457600080fd5b505af41580156119c8573d6000803e3d6000fd5b5050604051632725ebef60e21b8152600260048201526000602482015273__$364aad554dc80380f414546becdd2c1584$__9250639c97afbc915060440160006040518083038186803b158015611a1e57600080fd5b505af4158015611a32573d6000803e3d6000fd5b50506002805460ff60f01b1916600160f11b17905550506040517f35012b512309c322acf68632cd6cb702ff0e1d776fbe9394e38ffc13b434fe7590600090a1565b60008054604051634de835e760e11b81523360048201526001600160a01b0390911690639bd06bce90602401602060405180830381600087803b158015611aba57600080fd5b505af11580156102ee573d6000803e3d6000fd5b6001546000906001600160a01b031663e0ff5b8b60065b6040516001600160e01b031960e084901b16815260ff909116600482015260240160206040518083038186803b158015611b1e57600080fd5b505afa158015611832573d6000803e3d6000fd5b6001546000906001600160a01b031663e0ff5b8b6005611ae5565b6000546001600160a01b031615611b9e5760405162461bcd60e51b815260206004820152601560248201527430b63932b0b23c9039b2ba103932b3a1b2b73a32b960591b6044820152606401610475565b6040516001600160a01b03821681527f318da6c7624c71cbc0afe346c9d8827f119d0ecefb241a7b0c87217a076a8e029060200160405180910390a1600080546001600160a01b0319166001600160a01b0392909216919091179055565b6001546001600160a01b031615611c555760405162461bcd60e51b815260206004820152601960248201527f616c7265616479207365742067656e6572616c4b6565706572000000000000006044820152606401610475565b6040516001600160a01b03821681527fe513d3e0f0d0a3877029dcc588748679a7a3450ec1ec7ed56d96bd012c3e61aa9060200160405180910390a1600180546001600160a01b0319166001600160a01b0392909216919091179055565b60008060408385031215611cc657600080fd5b50508035926020909101359150565b600060208284031215611ce757600080fd5b5035919050565b6001600160a01b0381168114611d0357600080fd5b50565b600060208284031215611d1857600080fd5b8135610ba781611cee565b61ffff81168114611d0357600080fd5b6001600160401b0381168114611d0357600080fd5b600080600080600080600060e0888a031215611d6357600080fd5b87359650602088013595506040880135611d7c81611d23565b94506060880135611d8c81611d33565b93506080880135611d9c81611d33565b925060a0880135611dac81611d33565b8092505060c0880135905092959891949750929550565b600080600060608486031215611dd857600080fd5b505081359360208301359350604090920135919050565b65ffffffffffff81168114611d0357600080fd5b600080600080600080600080610100898b031215611e2057600080fd5b8835975060208901359650604089013595506060890135611e4081611def565b94506080890135611e5081611d33565b935060a0890135611e6081611d33565b925060c0890135611e7081611d33565b8092505060e089013590509295985092959890939650565b60008060008060808587031215611e9e57600080fd5b843593506020850135611eb081611cee565b92506040850135611ec081611cee565b91506060850135611ed081611cee565b939692955090935050565b805164ffffffffff81168114611ef057600080fd5b919050565b600060208284031215611f0757600080fd5b610ba782611edb565b600060208284031215611f2257600080fd5b81518015158114610ba757600080fd5b60208082526026908201527f41432e6f6e6c794469726563744b65657065723a206e6f74206469726563742060408201526535b2b2b832b960d11b606082015260800190565b60208082526036908201527f41432e6f776e65724f72446972656374426f6f6b65657065723a206e6569746860408201527532b91037bbb732b9103737b9103137b7b5b2b2b832b960511b606082015260800190565b604051608081016001600160401b0381118282101715611ffe57634e487b7160e01b600052604160045260246000fd5b60405290565b604080519081016001600160401b0381118282101715611ffe57634e487b7160e01b600052604160045260246000fd5b60405161010081016001600160401b0381118282101715611ffe57634e487b7160e01b600052604160045260246000fd5b805163ffffffff81168114611ef057600080fd5b8051611ef081611def565b600060c0828403121561209657600080fd5b60405160c081018181106001600160401b03821117156120c657634e487b7160e01b600052604160045260246000fd5b6040529050806120d583612065565b81526120e360208401612065565b602082015260408301516120f681611def565b6040820152606083015161210981611def565b606082015261211a60808401611edb565b608082015261212b60a08401611edb565b60a08201525092915050565b600060c0828403121561214957600080fd5b610ba78383612084565b805160ff81168114611ef057600080fd5b60006080828403121561217657600080fd5b61217e611fce565b9050815161218b81611d33565b8152602082015161219b81611d33565b602082015260408201516121ae81611d33565b604082015260608201516121c181611d33565b606082015292915050565b60008183036101808112156121e057600080fd5b6121e8612004565b610100808312156121f857600080fd5b612200612034565b9250845161220d81611d23565b835261221b60208601612065565b602084015261222c60408601612065565b604084015261223d60608601612079565b606084015261224e60808601612079565b608084015261225f60a08601611edb565b60a084015261227060c08601612065565b60c084015261228160e08601612153565b60e084015282825261229586828701612164565b602083015250949350505050565b60006101608201905063ffffffff8089511683528060208a015116602084015250604088015165ffffffffffff80821660408501528060608b01511660608501525050608088015164ffffffffff80821660808501528060a08b01511660a085015250508660c083015261231d60e083018761ffff169052565b6001600160401b0385166101008301526001600160401b0384166101208301526001600160401b038316610140830152979650505050505050565b600081830361014081121561236c57600080fd5b612374612004565b61237e8585612084565b8152608060bf198301121561239257600080fd5b61239a611fce565b91506123a860c08501611edb565b825260e08401516123b881611d33565b60208301526101008401516123cc81611d33565b60408301526101208401516123e081611d33565b606083015260208101919091529392505050565b60006001600160401b038381169083168181101561242257634e487b7160e01b600052601160045260246000fd5b039392505050565b60006020828403121561243c57600080fd5b8151610ba781611cee56fea264697066735822122017621212b97d9fea5f6292ac91e5bbcc61951b740d3e57d85aa77fb09ab1f42064736f6c63430008080033",
    "sourcePath": "/Users/kaptain/github.com/hardhat/comboox/contracts/keepers/BOPKeeper.sol",
    "compiler": {
        "name": "solc",
        "version": "0.8.8+commit.dddeac2f"
    },
    "functionHashes": {
        "abandonRole(bytes32)": "3da9a600",
        "createPledge(bytes32,uint256,uint16,uint64,uint64,uint64,uint256)": "6f0fd299",
        "delPledge(uint256,uint256,uint256)": "b4341aae",
        "finalized()": "b3f05b97",
        "getBookeeper()": "ed211023",
        "getGeneralCounsel()": "103f6edd",
        "getOwner()": "893d20e8",
        "grantRole(bytes32,uint256)": "1b6ea9f9",
        "hasRole(bytes32,uint256)": "7e063c5a",
        "init(uint256,address,address,address)": "dc890da9",
        "lockContents()": "f045a769",
        "renounceRole(bytes32)": "8bb9c5bf",
        "revokeRole(bytes32,uint256)": "19d61ad9",
        "setDirectKeeper(address)": "6be8496f",
        "setGeneralCounsel(uint256)": "4a14beb1",
        "setOwner(uint256)": "8041494e",
        "setRoleAdmin(bytes32,uint256)": "5171ebd4",
        "updatePledge(uint256,uint256,uint256,uint48,uint64,uint64,uint64,uint256)": "bcb3ba97"
    },
    "gasEstimates": {
        "creation": {
            "codeDepositCost": "1868200",
            "executionCost": "1969",
            "totalCost": "1870169"
        },
        "external": {
            "abandonRole(bytes32)": "infinite",
            "createPledge(bytes32,uint256,uint16,uint64,uint64,uint64,uint256)": "infinite",
            "delPledge(uint256,uint256,uint256)": "infinite",
            "finalized()": "2416",
            "getBookeeper()": "infinite",
            "getGeneralCounsel()": "infinite",
            "getOwner()": "infinite",
            "grantRole(bytes32,uint256)": "infinite",
            "hasRole(bytes32,uint256)": "infinite",
            "init(uint256,address,address,address)": "infinite",
            "lockContents()": "infinite",
            "renounceRole(bytes32)": "infinite",
            "revokeRole(bytes32,uint256)": "infinite",
            "setDirectKeeper(address)": "infinite",
            "setGeneralCounsel(uint256)": "infinite",
            "setOwner(uint256)": "infinite",
            "setRoleAdmin(bytes32,uint256)": "infinite",
            "updatePledge(uint256,uint256,uint256,uint48,uint64,uint64,uint64,uint256)": "infinite"
        }
    }
}