{
    "contractName": "BOPKeeper",
    "abi": [
        {
            "anonymous": false,
            "inputs": [
                {
                    "indexed": false,
                    "internalType": "uint256",
                    "name": "owner",
                    "type": "uint256"
                },
                {
                    "indexed": false,
                    "internalType": "address",
                    "name": "directKeeper",
                    "type": "address"
                },
                {
                    "indexed": false,
                    "internalType": "address",
                    "name": "regCenter",
                    "type": "address"
                },
                {
                    "indexed": false,
                    "internalType": "address",
                    "name": "generalKeeper",
                    "type": "address"
                }
            ],
            "name": "Init",
            "type": "event"
        },
        {
            "anonymous": false,
            "inputs": [],
            "name": "LockContents",
            "type": "event"
        },
        {
            "anonymous": false,
            "inputs": [
                {
                    "indexed": false,
                    "internalType": "address",
                    "name": "keeper",
                    "type": "address"
                }
            ],
            "name": "SetDirectKeeper",
            "type": "event"
        },
        {
            "anonymous": false,
            "inputs": [
                {
                    "indexed": false,
                    "internalType": "uint256",
                    "name": "acct",
                    "type": "uint256"
                }
            ],
            "name": "SetGeneralCounsel",
            "type": "event"
        },
        {
            "anonymous": false,
            "inputs": [
                {
                    "indexed": false,
                    "internalType": "address",
                    "name": "gk",
                    "type": "address"
                }
            ],
            "name": "SetGeneralKeeper",
            "type": "event"
        },
        {
            "anonymous": false,
            "inputs": [
                {
                    "indexed": false,
                    "internalType": "uint256",
                    "name": "acct",
                    "type": "uint256"
                }
            ],
            "name": "SetOwner",
            "type": "event"
        },
        {
            "anonymous": false,
            "inputs": [
                {
                    "indexed": false,
                    "internalType": "address",
                    "name": "rc",
                    "type": "address"
                }
            ],
            "name": "SetRegCenter",
            "type": "event"
        },
        {
            "inputs": [
                {
                    "internalType": "bytes32",
                    "name": "role",
                    "type": "bytes32"
                }
            ],
            "name": "abandonRole",
            "outputs": [],
            "stateMutability": "nonpayable",
            "type": "function"
        },
        {
            "inputs": [
                {
                    "internalType": "uint256",
                    "name": "sn",
                    "type": "uint256"
                },
                {
                    "internalType": "uint40",
                    "name": "creditor",
                    "type": "uint40"
                },
                {
                    "internalType": "uint16",
                    "name": "guaranteeDays",
                    "type": "uint16"
                },
                {
                    "internalType": "uint64",
                    "name": "paid",
                    "type": "uint64"
                },
                {
                    "internalType": "uint64",
                    "name": "par",
                    "type": "uint64"
                },
                {
                    "internalType": "uint64",
                    "name": "guaranteedAmt",
                    "type": "uint64"
                },
                {
                    "internalType": "uint256",
                    "name": "caller",
                    "type": "uint256"
                }
            ],
            "name": "createPledge",
            "outputs": [],
            "stateMutability": "nonpayable",
            "type": "function"
        },
        {
            "inputs": [
                {
                    "internalType": "uint256",
                    "name": "seqOfShare",
                    "type": "uint256"
                },
                {
                    "internalType": "uint256",
                    "name": "seqOfPld",
                    "type": "uint256"
                },
                {
                    "internalType": "uint256",
                    "name": "caller",
                    "type": "uint256"
                }
            ],
            "name": "execPledge",
            "outputs": [],
            "stateMutability": "nonpayable",
            "type": "function"
        },
        {
            "inputs": [
                {
                    "internalType": "uint256",
                    "name": "seqOfShare",
                    "type": "uint256"
                },
                {
                    "internalType": "uint256",
                    "name": "seqOfPld",
                    "type": "uint256"
                },
                {
                    "internalType": "uint16",
                    "name": "extDays",
                    "type": "uint16"
                },
                {
                    "internalType": "uint256",
                    "name": "caller",
                    "type": "uint256"
                }
            ],
            "name": "extendPledge",
            "outputs": [],
            "stateMutability": "nonpayable",
            "type": "function"
        },
        {
            "inputs": [],
            "name": "finalized",
            "outputs": [
                {
                    "internalType": "bool",
                    "name": "",
                    "type": "bool"
                }
            ],
            "stateMutability": "view",
            "type": "function"
        },
        {
            "inputs": [],
            "name": "getBookeeper",
            "outputs": [
                {
                    "internalType": "address",
                    "name": "",
                    "type": "address"
                }
            ],
            "stateMutability": "view",
            "type": "function"
        },
        {
            "inputs": [],
            "name": "getGeneralCounsel",
            "outputs": [
                {
                    "internalType": "uint40",
                    "name": "",
                    "type": "uint40"
                }
            ],
            "stateMutability": "view",
            "type": "function"
        },
        {
            "inputs": [],
            "name": "getOwner",
            "outputs": [
                {
                    "internalType": "uint40",
                    "name": "",
                    "type": "uint40"
                }
            ],
            "stateMutability": "view",
            "type": "function"
        },
        {
            "inputs": [
                {
                    "internalType": "bytes32",
                    "name": "role",
                    "type": "bytes32"
                },
                {
                    "internalType": "uint256",
                    "name": "acct",
                    "type": "uint256"
                }
            ],
            "name": "grantRole",
            "outputs": [],
            "stateMutability": "nonpayable",
            "type": "function"
        },
        {
            "inputs": [
                {
                    "internalType": "bytes32",
                    "name": "role",
                    "type": "bytes32"
                },
                {
                    "internalType": "uint256",
                    "name": "acct",
                    "type": "uint256"
                }
            ],
            "name": "hasRole",
            "outputs": [
                {
                    "internalType": "bool",
                    "name": "",
                    "type": "bool"
                }
            ],
            "stateMutability": "view",
            "type": "function"
        },
        {
            "inputs": [
                {
                    "internalType": "uint256",
                    "name": "owner",
                    "type": "uint256"
                },
                {
                    "internalType": "address",
                    "name": "directKeeper",
                    "type": "address"
                },
                {
                    "internalType": "address",
                    "name": "regCenter",
                    "type": "address"
                },
                {
                    "internalType": "address",
                    "name": "generalKeeper",
                    "type": "address"
                }
            ],
            "name": "init",
            "outputs": [],
            "stateMutability": "nonpayable",
            "type": "function"
        },
        {
            "inputs": [],
            "name": "lockContents",
            "outputs": [],
            "stateMutability": "nonpayable",
            "type": "function"
        },
        {
            "inputs": [
                {
                    "internalType": "uint256",
                    "name": "seqOfShare",
                    "type": "uint256"
                },
                {
                    "internalType": "uint256",
                    "name": "seqOfPld",
                    "type": "uint256"
                },
                {
                    "internalType": "bytes32",
                    "name": "hashLock",
                    "type": "bytes32"
                },
                {
                    "internalType": "uint256",
                    "name": "caller",
                    "type": "uint256"
                }
            ],
            "name": "lockPledge",
            "outputs": [],
            "stateMutability": "nonpayable",
            "type": "function"
        },
        {
            "inputs": [
                {
                    "internalType": "uint256",
                    "name": "seqOfShare",
                    "type": "uint256"
                },
                {
                    "internalType": "uint256",
                    "name": "seqOfPld",
                    "type": "uint256"
                },
                {
                    "internalType": "uint64",
                    "name": "amt",
                    "type": "uint64"
                },
                {
                    "internalType": "uint256",
                    "name": "caller",
                    "type": "uint256"
                }
            ],
            "name": "refundDebt",
            "outputs": [],
            "stateMutability": "nonpayable",
            "type": "function"
        },
        {
            "inputs": [
                {
                    "internalType": "uint256",
                    "name": "seqOfShare",
                    "type": "uint256"
                },
                {
                    "internalType": "uint256",
                    "name": "seqOfPld",
                    "type": "uint256"
                },
                {
                    "internalType": "string",
                    "name": "hashKey",
                    "type": "string"
                },
                {
                    "internalType": "uint256",
                    "name": "caller",
                    "type": "uint256"
                }
            ],
            "name": "releasePledge",
            "outputs": [],
            "stateMutability": "nonpayable",
            "type": "function"
        },
        {
            "inputs": [
                {
                    "internalType": "bytes32",
                    "name": "role",
                    "type": "bytes32"
                }
            ],
            "name": "renounceRole",
            "outputs": [],
            "stateMutability": "nonpayable",
            "type": "function"
        },
        {
            "inputs": [
                {
                    "internalType": "uint256",
                    "name": "seqOfShare",
                    "type": "uint256"
                },
                {
                    "internalType": "uint256",
                    "name": "seqOfPld",
                    "type": "uint256"
                },
                {
                    "internalType": "uint256",
                    "name": "caller",
                    "type": "uint256"
                }
            ],
            "name": "revokePledge",
            "outputs": [],
            "stateMutability": "nonpayable",
            "type": "function"
        },
        {
            "inputs": [
                {
                    "internalType": "bytes32",
                    "name": "role",
                    "type": "bytes32"
                },
                {
                    "internalType": "uint256",
                    "name": "acct",
                    "type": "uint256"
                }
            ],
            "name": "revokeRole",
            "outputs": [],
            "stateMutability": "nonpayable",
            "type": "function"
        },
        {
            "inputs": [
                {
                    "internalType": "address",
                    "name": "keeper",
                    "type": "address"
                }
            ],
            "name": "setDirectKeeper",
            "outputs": [],
            "stateMutability": "nonpayable",
            "type": "function"
        },
        {
            "inputs": [
                {
                    "internalType": "uint256",
                    "name": "acct",
                    "type": "uint256"
                }
            ],
            "name": "setGeneralCounsel",
            "outputs": [],
            "stateMutability": "nonpayable",
            "type": "function"
        },
        {
            "inputs": [
                {
                    "internalType": "uint256",
                    "name": "acct",
                    "type": "uint256"
                }
            ],
            "name": "setOwner",
            "outputs": [],
            "stateMutability": "nonpayable",
            "type": "function"
        },
        {
            "inputs": [
                {
                    "internalType": "bytes32",
                    "name": "role",
                    "type": "bytes32"
                },
                {
                    "internalType": "uint256",
                    "name": "acct",
                    "type": "uint256"
                }
            ],
            "name": "setRoleAdmin",
            "outputs": [],
            "stateMutability": "nonpayable",
            "type": "function"
        },
        {
            "inputs": [
                {
                    "internalType": "uint256",
                    "name": "seqOfShare",
                    "type": "uint256"
                },
                {
                    "internalType": "uint256",
                    "name": "seqOfPld",
                    "type": "uint256"
                },
                {
                    "internalType": "uint40",
                    "name": "buyer",
                    "type": "uint40"
                },
                {
                    "internalType": "uint64",
                    "name": "amt",
                    "type": "uint64"
                },
                {
                    "internalType": "uint256",
                    "name": "caller",
                    "type": "uint256"
                }
            ],
            "name": "transferPledge",
            "outputs": [],
            "stateMutability": "nonpayable",
            "type": "function"
        }
    ],
    "bytecode": "608060405234801561001057600080fd5b50612e80806100206000396000f3fe608060405234801561001057600080fd5b506004361061014d5760003560e01c806372b5e711116100c35780639a92065d1161007c5780639a92065d146102ac578063b3f05b97146102bf578063dc890da9146102d3578063ed211023146102e6578063f045a76914610306578063fb268c581461030e57600080fd5b806372b5e711146102355780637e063c5a146102485780638041494e1461026b578063893d20e81461027e5780638a150285146102865780638bb9c5bf1461029957600080fd5b80634a14beb1116101155780634a14beb1146101c35780634c70a093146101d65780634c76218b146101e95780635171ebd4146101fc578063559144101461020f5780636be8496f1461022257600080fd5b8063103f6edd1461015257806319d61ad9146101755780631b6ea9f91461018a5780633067033d1461019d5780633da9a600146101b0575b600080fd5b61015a610321565b60405164ffffffffff90911681526020015b60405180910390f35b610188610183366004612559565b6103ad565b005b610188610198366004612559565b610441565b6101886101ab36600461257b565b610466565b6101886101be3660046125ad565b61067c565b6101886101d13660046125ad565b61078e565b6101886101e43660046125c6565b61097e565b6101886101f73660046126c7565b610cde565b61018861020a366004612559565b610f49565b61018861021d3660046127a1565b610f6e565b610188610230366004612808565b61119a565b6101886102433660046125c6565b61124c565b61025b610256366004612559565b6114ef565b604051901515815260200161016c565b6101886102793660046125ad565b61158a565b61015a61176f565b610188610294366004612835565b6117aa565b6101886102a73660046125ad565b611b52565b6101886102ba3660046128b9565b611bab565b60028054600160f01b900460ff161461025b565b6101886102e13660046128f8565b611d6d565b6102ee611e50565b6040516001600160a01b03909116815260200161016c565b610188611ed6565b61018861031c36600461294b565b6120f4565b60405163e8c0cc1d60e01b81526002600482015260009073__$364aad554dc80380f414546becdd2c1584$__9063e8c0cc1d906024015b60206040518083038186803b15801561037057600080fd5b505af4158015610384573d6000803e3d6000fd5b505050506040513d601f19601f820116820180604052508101906103a8919061298a565b905090565b73__$364aad554dc80380f414546becdd2c1584$__6382daafaa6002846103d261231a565b6040516001600160e01b031960e086901b1681526004810193909352602483019190915264ffffffffff166044820152606481018490526084015b60006040518083038186803b15801561042557600080fd5b505af4158015610439573d6000803e3d6000fd5b505050505050565b73__$364aad554dc80380f414546becdd2c1584$__636320d75e6002846103d261231a565b604051633b11adbf60e21b81526002600482015233602482015273__$364aad554dc80380f414546becdd2c1584$__9063ec46b6fc9060440160206040518083038186803b1580156104b757600080fd5b505af41580156104cb573d6000803e3d6000fd5b505050506040513d601f19601f820116820180604052508101906104ef91906129a7565b6105145760405162461bcd60e51b815260040161050b906129c9565b60405180910390fd5b600061051e612374565b60405163f671e82160e01b8152600481018790526024810186905290915082906001600160a01b0383169063f671e821906044016101a06040518083038186803b15801561056b57600080fd5b505afa15801561057f573d6000803e3d6000fd5b505050506040513d601f19601f820116820180604052508101906105a39190612af2565b602001515164ffffffffff16146105f45760405162461bcd60e51b81526020600482015260156024820152742127a8259726281d103737ba1031b932b234ba37b960591b604482015260640161050b565b60405163205969bd60e01b81526004810186905260248101859052604481018490526001600160a01b0382169063205969bd90606401602060405180830381600087803b15801561064457600080fd5b505af1158015610658573d6000803e3d6000fd5b505050506040513d601f19601f8201168201806040525081019061043991906129a7565b604051633b11adbf60e21b81526002600482015233602482015273__$364aad554dc80380f414546becdd2c1584$__9063ec46b6fc9060440160206040518083038186803b1580156106cd57600080fd5b505af41580156106e1573d6000803e3d6000fd5b505050506040513d601f19601f8201168201806040525081019061070591906129a7565b6107215760405162461bcd60e51b815260040161050b906129c9565b60405163cc99e11b60e01b8152600260048201526024810182905273__$364aad554dc80380f414546becdd2c1584$__9063cc99e11b9060440160006040518083038186803b15801561077357600080fd5b505af4158015610787573d6000803e3d6000fd5b5050505050565b604051633b11adbf60e21b81526002600482015233602482015273__$364aad554dc80380f414546becdd2c1584$__9063ec46b6fc9060440160206040518083038186803b1580156107df57600080fd5b505af41580156107f3573d6000803e3d6000fd5b505050506040513d601f19601f8201168201806040525081019061081791906129a7565b806108bc575073__$364aad554dc80380f414546becdd2c1584$__63fe271086600261084161231a565b6040516001600160e01b031960e085901b168152600481019290925264ffffffffff16602482015260440160206040518083038186803b15801561088457600080fd5b505af4158015610898573d6000803e3d6000fd5b505050506040513d601f19601f820116820180604052508101906108bc91906129a7565b6108d85760405162461bcd60e51b815260040161050b90612bc2565b604051632725ebef60e21b8152600260048201526024810182905273__$364aad554dc80380f414546becdd2c1584$__90639c97afbc9060440160006040518083038186803b15801561092a57600080fd5b505af415801561093e573d6000803e3d6000fd5b505050507ff2735f34b69be1e6342dea95f9162f84d0db925fab655ca9f1f312ac8cbfc99d8160405161097391815260200190565b60405180910390a150565b604051633b11adbf60e21b81526002600482015233602482015273__$364aad554dc80380f414546becdd2c1584$__9063ec46b6fc9060440160206040518083038186803b1580156109cf57600080fd5b505af41580156109e3573d6000803e3d6000fd5b505050506040513d601f19601f82011682018060405250810190610a0791906129a7565b610a235760405162461bcd60e51b815260040161050b906129c9565b6000610a2d612374565b60405163f671e82160e01b815260048101869052602481018590529091506000906001600160a01b0383169063f671e821906044016101a06040518083038186803b158015610a7b57600080fd5b505afa158015610a8f573d6000803e3d6000fd5b505050506040513d601f19601f82011682018060405250810190610ab39190612af2565b60208101515190915064ffffffffff168314610b095760405162461bcd60e51b81526020600482015260156024820152742127a8259722a81d103737ba1031b932b234ba37b960591b604482015260640161050b565b6040516374e399e960e11b815260048101869052602481018590526001600160a01b0383169063e9c733d290604401602060405180830381600087803b158015610b5257600080fd5b505af1158015610b66573d6000803e3d6000fd5b505050506040513d601f19601f82011682018060405250810190610b8a91906129a7565b15610787576000610b996123d8565b60208301516040808201516060909201519051631ba9b20960e21b8152600481018a90526001600160401b039283166024820152911660448201529091506001600160a01b03821690636ea6c82490606401600060405180830381600087803b158015610c0557600080fd5b505af1158015610c19573d6000803e3d6000fd5b50505060208301516040810151606082015182516080909301516001600160a01b038616945063f0d6c109938b939291610c54908490612c18565b6040516001600160e01b031960e088901b16815260048101959095526001600160401b03938416602486015292909116604484015264ffffffffff16606483015263ffffffff16608482015260a4015b600060405180830381600087803b158015610cbe57600080fd5b505af1158015610cd2573d6000803e3d6000fd5b50505050505050505050565b604051633b11adbf60e21b81526002600482015233602482015273__$364aad554dc80380f414546becdd2c1584$__9063ec46b6fc9060440160206040518083038186803b158015610d2f57600080fd5b505af4158015610d43573d6000803e3d6000fd5b505050506040513d601f19601f82011682018060405250810190610d6791906129a7565b610d835760405162461bcd60e51b815260040161050b906129c9565b6000610d8d612374565b60405163f671e82160e01b815260048101879052602481018690529091506000906001600160a01b0383169063f671e821906044016101a06040518083038186803b158015610ddb57600080fd5b505afa158015610def573d6000803e3d6000fd5b505050506040513d601f19601f82011682018060405250810190610e139190612af2565b80516080015190915064ffffffffff168314610e685760405162461bcd60e51b81526020600482015260146024820152732127a8259729281d103737ba10383632b233b7b960611b604482015260640161050b565b604051635023530760e01b81526001600160a01b03831690635023530790610e9890899089908990600401612c4c565b602060405180830381600087803b158015610eb257600080fd5b505af1158015610ec6573d6000803e3d6000fd5b505050506040513d601f19601f82011682018060405250810190610eea91906129a7565b50610ef36123d8565b60208201516040808201516060909201519051631ba9b20960e21b8152600481018a90526001600160401b039283166024820152911660448201526001600160a01b039190911690636ea6c82490606401610ca4565b73__$364aad554dc80380f414546becdd2c1584$__63ee98b3136002846103d261231a565b604051633b11adbf60e21b81526002600482015233602482015273__$364aad554dc80380f414546becdd2c1584$__9063ec46b6fc9060440160206040518083038186803b158015610fbf57600080fd5b505af4158015610fd3573d6000803e3d6000fd5b505050506040513d601f19601f82011682018060405250810190610ff791906129a7565b6110135760405162461bcd60e51b815260040161050b906129c9565b600061101d612374565b60405163f671e82160e01b8152600481018890526024810187905290915082906001600160a01b0383169063f671e821906044016101a06040518083038186803b15801561106a57600080fd5b505afa15801561107e573d6000803e3d6000fd5b505050506040513d601f19601f820116820180604052508101906110a29190612af2565b602001515164ffffffffff16146110f35760405162461bcd60e51b81526020600482015260156024820152742127a825972a281d103737ba1031b932b234ba37b960591b604482015260640161050b565b604051632a17947360e11b8152600481018790526024810186905264ffffffffff851660448201526001600160401b03841660648201526001600160a01b0382169063542f28e6906084016101a060405180830381600087803b15801561115957600080fd5b505af115801561116d573d6000803e3d6000fd5b505050506040513d601f19601f820116820180604052508101906111919190612af2565b50505050505050565b604051630f07232560e01b8152600260048201523360248201526001600160a01b038216604482015273__$364aad554dc80380f414546becdd2c1584$__90630f0723259060640160006040518083038186803b1580156111fa57600080fd5b505af415801561120e573d6000803e3d6000fd5b50506040516001600160a01b03841681527fe435cbeab64e4eae6497b9d8289704bd709d624a80704ef3ca9af777534bc6ec92506020019050610973565b604051633b11adbf60e21b81526002600482015233602482015273__$364aad554dc80380f414546becdd2c1584$__9063ec46b6fc9060440160206040518083038186803b15801561129d57600080fd5b505af41580156112b1573d6000803e3d6000fd5b505050506040513d601f19601f820116820180604052508101906112d591906129a7565b6112f15760405162461bcd60e51b815260040161050b906129c9565b60006112fb612374565b60405163f671e82160e01b815260048101869052602481018590529091506000906001600160a01b0383169063f671e821906044016101a06040518083038186803b15801561134957600080fd5b505afa15801561135d573d6000803e3d6000fd5b505050506040513d601f19601f820116820180604052508101906113819190612af2565b80516080015190915064ffffffffff1683146113d65760405162461bcd60e51b81526020600482015260146024820152732127a8259729281d103737ba10383632b233b7b960611b604482015260640161050b565b60405163f424672b60e01b815260048101869052602481018590526001600160a01b0383169063f424672b90604401602060405180830381600087803b15801561141f57600080fd5b505af1158015611433573d6000803e3d6000fd5b505050506040513d601f19601f8201168201806040525081019061145791906129a7565b15610787576114646123d8565b60208201516040808201516060909201519051631ba9b20960e21b8152600481018990526001600160401b039283166024820152911660448201526001600160a01b039190911690636ea6c824906064015b600060405180830381600087803b1580156114d057600080fd5b505af11580156114e4573d6000803e3d6000fd5b505050505050505050565b604051632a3be56b60e21b815260026004820152602481018390526044810182905260009073__$364aad554dc80380f414546becdd2c1584$__9063a8ef95ac9060640160206040518083038186803b15801561154b57600080fd5b505af415801561155f573d6000803e3d6000fd5b505050506040513d601f19601f8201168201806040525081019061158391906129a7565b9392505050565b604051633b11adbf60e21b81526002600482015233602482015273__$364aad554dc80380f414546becdd2c1584$__9063ec46b6fc9060440160206040518083038186803b1580156115db57600080fd5b505af41580156115ef573d6000803e3d6000fd5b505050506040513d601f19601f8201168201806040525081019061161391906129a7565b806116b8575073__$364aad554dc80380f414546becdd2c1584$__63fe271086600261163d61231a565b6040516001600160e01b031960e085901b168152600481019290925264ffffffffff16602482015260440160206040518083038186803b15801561168057600080fd5b505af4158015611694573d6000803e3d6000fd5b505050506040513d601f19601f820116820180604052508101906116b891906129a7565b6116d45760405162461bcd60e51b815260040161050b90612bc2565b60405163b6e38a2960e01b8152600260048201526024810182905273__$364aad554dc80380f414546becdd2c1584$__9063b6e38a299060440160006040518083038186803b15801561172657600080fd5b505af415801561173a573d6000803e3d6000fd5b505050507f8b6f40f36b4ae8cc5f55e895036457c43da4ab1f80f58c46f5ff0d72a650033b8160405161097391815260200190565b60405163987ad15360e01b81526002600482015260009073__$364aad554dc80380f414546becdd2c1584$__9063987ad15390602401610358565b604051633b11adbf60e21b81526002600482015233602482015273__$364aad554dc80380f414546becdd2c1584$__9063ec46b6fc9060440160206040518083038186803b1580156117fb57600080fd5b505af415801561180f573d6000803e3d6000fd5b505050506040513d601f19601f8201168201806040525081019061183391906129a7565b61184f5760405162461bcd60e51b815260040161050b906129c9565b604051633aa65cdf60e21b81526004810188905260009073__$d113c86820c60155271829fbf7bae741f8$__9063ea99737c9060240160c06040518083038186803b15801561189d57600080fd5b505af41580156118b1573d6000803e3d6000fd5b505050506040513d601f19601f820116820180604052508101906118d59190612cb0565b905060006118e16123d8565b82516040516319f6b4bf60e31b815263ffffffff909116600482015290915083906001600160a01b0383169063cfb5a5f8906024016101806040518083038186803b15801561192f57600080fd5b505afa158015611943573d6000803e3d6000fd5b505050506040513d601f19601f820116820180604052508101906119679190612d56565b5160a0015164ffffffffff16146119c05760405162461bcd60e51b815260206004820152601860248201527f424f504b2e43503a204e4f54207368617265686f6c6465720000000000000000604482015260640161050b565b82826080015164ffffffffff1614611a115760405162461bcd60e51b81526020600482015260146024820152732127a8259721a81d102727aa10383632b233b7b960611b604482015260640161050b565b611a19612374565b6040516377f67c4560e11b8152600481018b905264ffffffffff8a16602482015261ffff891660448201526001600160401b0380891660648301528088166084830152861660a48201526001600160a01b03919091169063efecf88a9060c40160c060405180830381600087803b158015611a9357600080fd5b505af1158015611aa7573d6000803e3d6000fd5b505050506040513d601f19601f82011682018060405250810190611acb9190612cb0565b8051604051634bacf96160e01b815263ffffffff90911660048201526001600160401b038089166024830152871660448201529092506001600160a01b03821690634bacf96190606401600060405180830381600087803b158015611b2f57600080fd5b505af1158015611b43573d6000803e3d6000fd5b50505050505050505050505050565b6000611b5c61231a565b60405163cc0d511b60e01b8152600260048201526024810184905264ffffffffff8216604482015290915073__$364aad554dc80380f414546becdd2c1584$__9063cc0d511b9060640161040d565b604051633b11adbf60e21b81526002600482015233602482015273__$364aad554dc80380f414546becdd2c1584$__9063ec46b6fc9060440160206040518083038186803b158015611bfc57600080fd5b505af4158015611c10573d6000803e3d6000fd5b505050506040513d601f19601f82011682018060405250810190611c3491906129a7565b611c505760405162461bcd60e51b815260040161050b906129c9565b6000611c5a612374565b60405163f671e82160e01b8152600481018790526024810186905290915082906001600160a01b0383169063f671e821906044016101a06040518083038186803b158015611ca757600080fd5b505afa158015611cbb573d6000803e3d6000fd5b505050506040513d601f19601f82011682018060405250810190611cdf9190612af2565b516080015164ffffffffff1614611d2f5760405162461bcd60e51b81526020600482015260146024820152732127a8259722a81d103737ba10383632b233b7b960611b604482015260640161050b565b6040516397f4a20560e01b8152600481018690526024810185905261ffff841660448201526001600160a01b038216906397f4a205906064016114b6565b611d76826123f3565b611d7f816124a2565b604051636cdd0edf60e11b815260026004820152602481018590526001600160a01b038416604482015273__$364aad554dc80380f414546becdd2c1584$__9063d9ba1dbe9060640160006040518083038186803b158015611de057600080fd5b505af4158015611df4573d6000803e3d6000fd5b5050604080518781526001600160a01b038781166020830152868116828401528516606082015290517f3abb2418c66fe32ba9c883030a75ce583971d9af9192b9b74e44e67c5e6c8c1f9350908190036080019150a150505050565b604051633c3e56c160e11b81526002600482015260009073__$364aad554dc80380f414546becdd2c1584$__9063787cad829060240160206040518083038186803b158015611e9e57600080fd5b505af4158015611eb2573d6000803e3d6000fd5b505050506040513d601f19601f820116820180604052508101906103a89190612e2d565b604051633b11adbf60e21b81526002600482015233602482015273__$364aad554dc80380f414546becdd2c1584$__9063ec46b6fc9060440160206040518083038186803b158015611f2757600080fd5b505af4158015611f3b573d6000803e3d6000fd5b505050506040513d601f19601f82011682018060405250810190611f5f91906129a7565b611f7b5760405162461bcd60e51b815260040161050b906129c9565b600254600160f01b900460ff16600114611fd75760405162461bcd60e51b815260206004820181905260248201527f41432e6f6e6c7950656e64696e673a20446f632069732066696e616c697a6564604482015260640161050b565b60405163cc99e11b60e01b815260026004820152684174746f726e65797360b81b602482015273__$364aad554dc80380f414546becdd2c1584$__9063cc99e11b9060440160006040518083038186803b15801561203457600080fd5b505af4158015612048573d6000803e3d6000fd5b5050604051632725ebef60e21b8152600260048201526000602482015273__$364aad554dc80380f414546becdd2c1584$__9250639c97afbc915060440160006040518083038186803b15801561209e57600080fd5b505af41580156120b2573d6000803e3d6000fd5b50506002805460ff60f01b1916600160f11b17905550506040517f35012b512309c322acf68632cd6cb702ff0e1d776fbe9394e38ffc13b434fe7590600090a1565b604051633b11adbf60e21b81526002600482015233602482015273__$364aad554dc80380f414546becdd2c1584$__9063ec46b6fc9060440160206040518083038186803b15801561214557600080fd5b505af4158015612159573d6000803e3d6000fd5b505050506040513d601f19601f8201168201806040525081019061217d91906129a7565b6121995760405162461bcd60e51b815260040161050b906129c9565b60006121a3612374565b60405163f671e82160e01b815260048101879052602481018690529091506000906001600160a01b0383169063f671e821906044016101a06040518083038186803b1580156121f157600080fd5b505afa158015612205573d6000803e3d6000fd5b505050506040513d601f19601f820116820180604052508101906122299190612af2565b60208101515190915064ffffffffff16831461227f5760405162461bcd60e51b81526020600482015260156024820152742127a8259729221d103737ba1031b932b234ba37b960591b604482015260640161050b565b604051635304972760e01b815260048101879052602481018690526001600160401b03851660448201526001600160a01b038316906353049727906064016101a060405180830381600087803b1580156122d857600080fd5b505af11580156122ec573d6000803e3d6000fd5b505050506040513d601f19601f820116820180604052508101906123109190612af2565b9050610ef36123d8565b60008054604051634de835e760e11b81523360048201526001600160a01b0390911690639bd06bce90602401602060405180830381600087803b15801561236057600080fd5b505af1158015610384573d6000803e3d6000fd5b6001546000906001600160a01b031663e0ff5b8b60055b6040516001600160e01b031960e084901b16815260ff909116600482015260240160206040518083038186803b1580156123c457600080fd5b505afa158015611eb2573d6000803e3d6000fd5b6001546000906001600160a01b031663e0ff5b8b600661238b565b6000546001600160a01b0316156124445760405162461bcd60e51b815260206004820152601560248201527430b63932b0b23c9039b2ba103932b3a1b2b73a32b960591b604482015260640161050b565b6040516001600160a01b03821681527f318da6c7624c71cbc0afe346c9d8827f119d0ecefb241a7b0c87217a076a8e029060200160405180910390a1600080546001600160a01b0319166001600160a01b0392909216919091179055565b6001546001600160a01b0316156124fb5760405162461bcd60e51b815260206004820152601960248201527f616c7265616479207365742067656e6572616c4b656570657200000000000000604482015260640161050b565b6040516001600160a01b03821681527fe513d3e0f0d0a3877029dcc588748679a7a3450ec1ec7ed56d96bd012c3e61aa9060200160405180910390a1600180546001600160a01b0319166001600160a01b0392909216919091179055565b6000806040838503121561256c57600080fd5b50508035926020909101359150565b6000806000806080858703121561259157600080fd5b5050823594602084013594506040840135936060013592509050565b6000602082840312156125bf57600080fd5b5035919050565b6000806000606084860312156125db57600080fd5b505081359360208301359350604090920135919050565b634e487b7160e01b600052604160045260246000fd5b604051606081016001600160401b038111828210171561262a5761262a6125f2565b60405290565b60405160c081016001600160401b038111828210171561262a5761262a6125f2565b604080519081016001600160401b038111828210171561262a5761262a6125f2565b60405161010081016001600160401b038111828210171561262a5761262a6125f2565b604051601f8201601f191681016001600160401b03811182821017156126bf576126bf6125f2565b604052919050565b600080600080608085870312156126dd57600080fd5b84359350602080860135935060408601356001600160401b038082111561270357600080fd5b818801915088601f83011261271757600080fd5b813581811115612729576127296125f2565b61273b601f8201601f19168501612697565b9150808252898482850101111561275157600080fd5b8084840185840137600090820190930192909252509396929550929360600135925050565b64ffffffffff8116811461278957600080fd5b50565b6001600160401b038116811461278957600080fd5b600080600080600060a086880312156127b957600080fd5b853594506020860135935060408601356127d281612776565b925060608601356127e28161278c565b949793965091946080013592915050565b6001600160a01b038116811461278957600080fd5b60006020828403121561281a57600080fd5b8135611583816127f3565b61ffff8116811461278957600080fd5b600080600080600080600060e0888a03121561285057600080fd5b87359650602088013561286281612776565b9550604088013561287281612825565b945060608801356128828161278c565b935060808801356128928161278c565b925060a08801356128a28161278c565b8092505060c0880135905092959891949750929550565b600080600080608085870312156128cf57600080fd5b843593506020850135925060408501356128e881612825565b9396929550929360600135925050565b6000806000806080858703121561290e57600080fd5b843593506020850135612920816127f3565b92506040850135612930816127f3565b91506060850135612940816127f3565b939692955090935050565b6000806000806080858703121561296157600080fd5b843593506020850135925060408501356128e88161278c565b805161298581612776565b919050565b60006020828403121561299c57600080fd5b815161158381612776565b6000602082840312156129b957600080fd5b8151801515811461158357600080fd5b60208082526026908201527f41432e6f6e6c794469726563744b65657065723a206e6f74206469726563742060408201526535b2b2b832b960d11b606082015260800190565b805163ffffffff8116811461298557600080fd5b805165ffffffffffff8116811461298557600080fd5b600060c08284031215612a4b57600080fd5b60405160c081018181106001600160401b0382111715612a6d57612a6d6125f2565b604052905080612a7c83612a0f565b81526020830151612a8c81612825565b6020820152612a9d60408401612a23565b6040820152612aae60608401612a23565b60608201526080830151612ac181612776565b608082015260a0830151612ad481612776565b60a0919091015292915050565b805160ff8116811461298557600080fd5b60008183036101a0811215612b0657600080fd5b612b0e612608565b612b188585612a39565b815260c060bf1983011215612b2c57600080fd5b612b34612630565b915060c0840151612b4481612776565b825260e0840151612b5481612825565b6020830152610100840151612b688161278c565b6040830152610120840151612b7c8161278c565b6060830152610140840151612b908161278c565b6080830152612ba26101608501612ae1565b60a083015260208101919091526101809290920151604083015250919050565b60208082526036908201527f41432e6f776e65724f72446972656374426f6f6b65657065723a206e6569746860408201527532b91037bbb732b9103737b9103137b7b5b2b2b832b960511b606082015260800190565b60006001600160401b0380841680612c4057634e487b7160e01b600052601260045260246000fd5b92169190910492915050565b83815260006020848184015260606040840152835180606085015260005b81811015612c8657858101830151858201608001528201612c6a565b81811115612c98576000608083870101525b50601f01601f19169290920160800195945050505050565b600060c08284031215612cc257600080fd5b6115838383612a39565b600060808284031215612cde57600080fd5b604051608081018181106001600160401b0382111715612d0057612d006125f2565b80604052508091508251612d138161278c565b81526020830151612d238161278c565b60208201526040830151612d368161278c565b60408201526060830151612d498161278c565b6060919091015292915050565b6000818303610180811215612d6a57600080fd5b612d72612652565b61010080831215612d8257600080fd5b612d8a612674565b9250612d9585612a0f565b8352612da360208601612a0f565b60208401526040850151612db681612825565b6040840152612dc760608601612a23565b6060840152612dd860808601612a23565b6080840152612de960a0860161297a565b60a0840152612dfa60c08601612a0f565b60c0840152612e0b60e08601612ae1565b60e0840152828252612e1f86828701612ccc565b602083015250949350505050565b600060208284031215612e3f57600080fd5b8151611583816127f356fea2646970667358221220cea3fc61a5de5ea80aa619f5fd6dff99d10f40df735771cecb49ae0d20014fc364736f6c63430008080033",
    "sourcePath": "/Users/kaptain/github.com/hardhat/comboox/contracts/keepers/BOPKeeper.sol",
    "compiler": {
        "name": "solc",
        "version": "0.8.8+commit.dddeac2f"
    },
    "functionHashes": {
        "abandonRole(bytes32)": "3da9a600",
        "createPledge(uint256,uint40,uint16,uint64,uint64,uint64,uint256)": "8a150285",
        "execPledge(uint256,uint256,uint256)": "4c70a093",
        "extendPledge(uint256,uint256,uint16,uint256)": "9a92065d",
        "finalized()": "b3f05b97",
        "getBookeeper()": "ed211023",
        "getGeneralCounsel()": "103f6edd",
        "getOwner()": "893d20e8",
        "grantRole(bytes32,uint256)": "1b6ea9f9",
        "hasRole(bytes32,uint256)": "7e063c5a",
        "init(uint256,address,address,address)": "dc890da9",
        "lockContents()": "f045a769",
        "lockPledge(uint256,uint256,bytes32,uint256)": "3067033d",
        "refundDebt(uint256,uint256,uint64,uint256)": "fb268c58",
        "releasePledge(uint256,uint256,string,uint256)": "4c76218b",
        "renounceRole(bytes32)": "8bb9c5bf",
        "revokePledge(uint256,uint256,uint256)": "72b5e711",
        "revokeRole(bytes32,uint256)": "19d61ad9",
        "setDirectKeeper(address)": "6be8496f",
        "setGeneralCounsel(uint256)": "4a14beb1",
        "setOwner(uint256)": "8041494e",
        "setRoleAdmin(bytes32,uint256)": "5171ebd4",
        "transferPledge(uint256,uint256,uint40,uint64,uint256)": "55914410"
    },
    "gasEstimates": {
        "creation": {
            "codeDepositCost": "2380800",
            "executionCost": "2553",
            "totalCost": "2383353"
        },
        "external": {
            "abandonRole(bytes32)": "infinite",
            "createPledge(uint256,uint40,uint16,uint64,uint64,uint64,uint256)": "infinite",
            "execPledge(uint256,uint256,uint256)": "infinite",
            "extendPledge(uint256,uint256,uint16,uint256)": "infinite",
            "finalized()": "2371",
            "getBookeeper()": "infinite",
            "getGeneralCounsel()": "infinite",
            "getOwner()": "infinite",
            "grantRole(bytes32,uint256)": "infinite",
            "hasRole(bytes32,uint256)": "infinite",
            "init(uint256,address,address,address)": "infinite",
            "lockContents()": "infinite",
            "lockPledge(uint256,uint256,bytes32,uint256)": "infinite",
            "refundDebt(uint256,uint256,uint64,uint256)": "infinite",
            "releasePledge(uint256,uint256,string,uint256)": "infinite",
            "renounceRole(bytes32)": "infinite",
            "revokePledge(uint256,uint256,uint256)": "infinite",
            "revokeRole(bytes32,uint256)": "infinite",
            "setDirectKeeper(address)": "infinite",
            "setGeneralCounsel(uint256)": "infinite",
            "setOwner(uint256)": "infinite",
            "setRoleAdmin(bytes32,uint256)": "infinite",
            "transferPledge(uint256,uint256,uint40,uint64,uint256)": "infinite"
        }
    }
}