{
    "contractName": "BOSKeeper",
    "abi": [
        {
            "anonymous": false,
            "inputs": [
                {
                    "indexed": false,
                    "internalType": "uint256",
                    "name": "owner",
                    "type": "uint256"
                },
                {
                    "indexed": false,
                    "internalType": "address",
                    "name": "directKeeper",
                    "type": "address"
                },
                {
                    "indexed": false,
                    "internalType": "address",
                    "name": "regCenter",
                    "type": "address"
                },
                {
                    "indexed": false,
                    "internalType": "address",
                    "name": "generalKeeper",
                    "type": "address"
                }
            ],
            "name": "Init",
            "type": "event"
        },
        {
            "anonymous": false,
            "inputs": [],
            "name": "LockContents",
            "type": "event"
        },
        {
            "anonymous": false,
            "inputs": [
                {
                    "indexed": false,
                    "internalType": "address",
                    "name": "target",
                    "type": "address"
                }
            ],
            "name": "RemoveDirectKeeper",
            "type": "event"
        },
        {
            "anonymous": false,
            "inputs": [
                {
                    "indexed": false,
                    "internalType": "address",
                    "name": "keeper",
                    "type": "address"
                }
            ],
            "name": "SetDirectKeeper",
            "type": "event"
        },
        {
            "anonymous": false,
            "inputs": [
                {
                    "indexed": false,
                    "internalType": "uint256",
                    "name": "acct",
                    "type": "uint256"
                }
            ],
            "name": "SetGeneralCounsel",
            "type": "event"
        },
        {
            "anonymous": false,
            "inputs": [
                {
                    "indexed": false,
                    "internalType": "uint256",
                    "name": "acct",
                    "type": "uint256"
                }
            ],
            "name": "SetOwner",
            "type": "event"
        },
        {
            "inputs": [
                {
                    "internalType": "bytes32",
                    "name": "role",
                    "type": "bytes32"
                }
            ],
            "name": "abandonRole",
            "outputs": [],
            "stateMutability": "nonpayable",
            "type": "function"
        },
        {
            "inputs": [
                {
                    "internalType": "uint256",
                    "name": "seqOfShare",
                    "type": "uint256"
                },
                {
                    "internalType": "uint256",
                    "name": "paid",
                    "type": "uint256"
                },
                {
                    "internalType": "uint256",
                    "name": "par",
                    "type": "uint256"
                }
            ],
            "name": "decreaseCapital",
            "outputs": [],
            "stateMutability": "nonpayable",
            "type": "function"
        },
        {
            "inputs": [],
            "name": "finalized",
            "outputs": [
                {
                    "internalType": "bool",
                    "name": "",
                    "type": "bool"
                }
            ],
            "stateMutability": "view",
            "type": "function"
        },
        {
            "inputs": [],
            "name": "getBookeeper",
            "outputs": [
                {
                    "internalType": "address",
                    "name": "",
                    "type": "address"
                }
            ],
            "stateMutability": "view",
            "type": "function"
        },
        {
            "inputs": [],
            "name": "getGeneralCounsel",
            "outputs": [
                {
                    "internalType": "uint40",
                    "name": "",
                    "type": "uint40"
                }
            ],
            "stateMutability": "view",
            "type": "function"
        },
        {
            "inputs": [],
            "name": "getOwner",
            "outputs": [
                {
                    "internalType": "uint40",
                    "name": "",
                    "type": "uint40"
                }
            ],
            "stateMutability": "view",
            "type": "function"
        },
        {
            "inputs": [
                {
                    "internalType": "bytes32",
                    "name": "role",
                    "type": "bytes32"
                },
                {
                    "internalType": "uint256",
                    "name": "acct",
                    "type": "uint256"
                }
            ],
            "name": "grantRole",
            "outputs": [],
            "stateMutability": "nonpayable",
            "type": "function"
        },
        {
            "inputs": [
                {
                    "internalType": "bytes32",
                    "name": "role",
                    "type": "bytes32"
                },
                {
                    "internalType": "uint256",
                    "name": "acct",
                    "type": "uint256"
                }
            ],
            "name": "hasRole",
            "outputs": [
                {
                    "internalType": "bool",
                    "name": "",
                    "type": "bool"
                }
            ],
            "stateMutability": "view",
            "type": "function"
        },
        {
            "inputs": [
                {
                    "internalType": "uint256",
                    "name": "owner",
                    "type": "uint256"
                },
                {
                    "internalType": "address",
                    "name": "directKeeper",
                    "type": "address"
                },
                {
                    "internalType": "address",
                    "name": "regCenter",
                    "type": "address"
                },
                {
                    "internalType": "address",
                    "name": "generalKeeper",
                    "type": "address"
                }
            ],
            "name": "init",
            "outputs": [],
            "stateMutability": "nonpayable",
            "type": "function"
        },
        {
            "inputs": [],
            "name": "lockContents",
            "outputs": [],
            "stateMutability": "nonpayable",
            "type": "function"
        },
        {
            "inputs": [
                {
                    "internalType": "address",
                    "name": "target",
                    "type": "address"
                }
            ],
            "name": "removeDirectKeeper",
            "outputs": [],
            "stateMutability": "nonpayable",
            "type": "function"
        },
        {
            "inputs": [
                {
                    "internalType": "bytes32",
                    "name": "role",
                    "type": "bytes32"
                }
            ],
            "name": "renounceRole",
            "outputs": [],
            "stateMutability": "nonpayable",
            "type": "function"
        },
        {
            "inputs": [
                {
                    "internalType": "bytes32",
                    "name": "snOfLocker",
                    "type": "bytes32"
                },
                {
                    "internalType": "string",
                    "name": "hashKey",
                    "type": "string"
                },
                {
                    "internalType": "uint256",
                    "name": "salt",
                    "type": "uint256"
                },
                {
                    "internalType": "uint256",
                    "name": "caller",
                    "type": "uint256"
                }
            ],
            "name": "requestPaidInCapital",
            "outputs": [],
            "stateMutability": "nonpayable",
            "type": "function"
        },
        {
            "inputs": [
                {
                    "internalType": "bytes32",
                    "name": "role",
                    "type": "bytes32"
                },
                {
                    "internalType": "uint256",
                    "name": "acct",
                    "type": "uint256"
                }
            ],
            "name": "revokeRole",
            "outputs": [],
            "stateMutability": "nonpayable",
            "type": "function"
        },
        {
            "inputs": [
                {
                    "internalType": "address",
                    "name": "keeper",
                    "type": "address"
                }
            ],
            "name": "setDirectKeeper",
            "outputs": [],
            "stateMutability": "nonpayable",
            "type": "function"
        },
        {
            "inputs": [
                {
                    "internalType": "uint256",
                    "name": "acct",
                    "type": "uint256"
                }
            ],
            "name": "setGeneralCounsel",
            "outputs": [],
            "stateMutability": "nonpayable",
            "type": "function"
        },
        {
            "inputs": [
                {
                    "internalType": "uint256",
                    "name": "acct",
                    "type": "uint256"
                }
            ],
            "name": "setOwner",
            "outputs": [],
            "stateMutability": "nonpayable",
            "type": "function"
        },
        {
            "inputs": [
                {
                    "internalType": "bytes32",
                    "name": "snOfLocker",
                    "type": "bytes32"
                },
                {
                    "internalType": "uint256",
                    "name": "amount",
                    "type": "uint256"
                }
            ],
            "name": "setPayInAmt",
            "outputs": [],
            "stateMutability": "nonpayable",
            "type": "function"
        },
        {
            "inputs": [
                {
                    "internalType": "bytes32",
                    "name": "role",
                    "type": "bytes32"
                },
                {
                    "internalType": "uint256",
                    "name": "acct",
                    "type": "uint256"
                }
            ],
            "name": "setRoleAdmin",
            "outputs": [],
            "stateMutability": "nonpayable",
            "type": "function"
        },
        {
            "inputs": [
                {
                    "internalType": "uint256",
                    "name": "seqOfShare",
                    "type": "uint256"
                },
                {
                    "internalType": "uint256",
                    "name": "line",
                    "type": "uint256"
                }
            ],
            "name": "updatePaidInDeadline",
            "outputs": [],
            "stateMutability": "nonpayable",
            "type": "function"
        },
        {
            "inputs": [
                {
                    "internalType": "bytes32",
                    "name": "snOfLocker",
                    "type": "bytes32"
                }
            ],
            "name": "withdrawPayInAmt",
            "outputs": [],
            "stateMutability": "nonpayable",
            "type": "function"
        }
    ],
    "bytecode": "608060405234801561001057600080fd5b50611a90806100206000396000f3fe608060405234801561001057600080fd5b50600436106101375760003560e01c80637c3be473116100b8578063b3f05b971161007c578063b3f05b9714610270578063ba5052cb14610284578063cd78c98a14610297578063dc890da9146102aa578063ed211023146102bd578063f045a769146102dd57600080fd5b80637c3be4731461020c5780637e063c5a1461021f5780638041494e14610242578063893d20e8146102555780638bb9c5bf1461025d57600080fd5b8063498ec436116100ff578063498ec436146101ad5780634a14beb1146101c05780635171ebd4146101d35780635d7ad88f146101e65780636be8496f146101f957600080fd5b8063103f6edd1461013c57806319d61ad91461015f5780631b6ea9f91461017457806323e4b165146101875780633da9a6001461019a575b600080fd5b6101446102e5565b60405164ffffffffff90911681526020015b60405180910390f35b61017261016d366004611772565b610371565b005b610172610182366004611772565b610403565b610172610195366004611772565b610429565b6101726101a8366004611794565b6105bd565b6101726101bb366004611772565b610648565b6101726101ce366004611794565b6107a9565b6101726101e1366004611772565b610a06565b6101726101f43660046117c5565b610a2c565b6101726102073660046117c5565b610b64565b61017261021a3660046117f8565b610c16565b61023261022d366004611772565b610daa565b6040519015158152602001610156565b610172610250366004611794565b610e45565b610144610efe565b61017261026b366004611794565b610f39565b60028054600160f01b900460ff1614610232565b610172610292366004611794565b610f5e565b6101726102a53660046118c3565b6110e4565b6101726102b83660046118ef565b61127e565b6102c5611360565b6040516001600160a01b039091168152602001610156565b6101726113e6565b60405163e8c0cc1d60e01b81526002600482015260009073__$364aad554dc80380f414546becdd2c1584$__9063e8c0cc1d906024015b60206040518083038186803b15801561033457600080fd5b505af4158015610348573d6000803e3d6000fd5b505050506040513d601f19601f8201168201806040525081019061036c9190611942565b905090565b73__$364aad554dc80380f414546becdd2c1584$__6382daafaa6002848461039761162a565b6040516001600160e01b031960e087901b16815260048101949094526024840192909252604483015264ffffffffff16606482015260840160006040518083038186803b1580156103e757600080fd5b505af41580156103fb573d6000803e3d6000fd5b505050505050565b73__$364aad554dc80380f414546becdd2c1584$__636320d75e6002848461039761162a565b604051633b11adbf60e21b81526002600482015233602482015273__$364aad554dc80380f414546becdd2c1584$__9063ec46b6fc9060440160206040518083038186803b15801561047a57600080fd5b505af415801561048e573d6000803e3d6000fd5b505050506040513d601f19601f820116820180604052508101906104b29190611969565b6104d75760405162461bcd60e51b81526004016104ce9061198b565b60405180910390fd5b600160009054906101000a90046001600160a01b03166001600160a01b031663f01e100f6040518163ffffffff1660e01b815260040160206040518083038186803b15801561052557600080fd5b505afa158015610539573d6000803e3d6000fd5b505050506040513d601f19601f8201168201806040525081019061055d91906119d1565b6040516323e4b16560e01b815260048101849052602481018390526001600160a01b0391909116906323e4b165906044015b600060405180830381600087803b1580156105a957600080fd5b505af11580156103fb573d6000803e3d6000fd5b73__$364aad554dc80380f414546becdd2c1584$__63c51b295f6002836105e261162a565b6040516001600160e01b031960e086901b1681526004810193909352602483019190915264ffffffffff16604482015260640160006040518083038186803b15801561062d57600080fd5b505af4158015610641573d6000803e3d6000fd5b5050505050565b604051633b11adbf60e21b81526002600482015233602482015273__$364aad554dc80380f414546becdd2c1584$__9063ec46b6fc9060440160206040518083038186803b15801561069957600080fd5b505af41580156106ad573d6000803e3d6000fd5b505050506040513d601f19601f820116820180604052508101906106d19190611969565b6106ed5760405162461bcd60e51b81526004016104ce9061198b565b600160009054906101000a90046001600160a01b03166001600160a01b031663f01e100f6040518163ffffffff1660e01b815260040160206040518083038186803b15801561073b57600080fd5b505afa15801561074f573d6000803e3d6000fd5b505050506040513d601f19601f8201168201806040525081019061077391906119d1565b6040516324c7621b60e11b815260048101849052602481018390526001600160a01b03919091169063498ec4369060440161058f565b604051633b11adbf60e21b81526002600482015233602482015273__$364aad554dc80380f414546becdd2c1584$__9063ec46b6fc9060440160206040518083038186803b1580156107fa57600080fd5b505af415801561080e573d6000803e3d6000fd5b505050506040513d601f19601f820116820180604052508101906108329190611969565b806108d7575073__$364aad554dc80380f414546becdd2c1584$__63fe271086600261085c61162a565b6040516001600160e01b031960e085901b168152600481019290925264ffffffffff16602482015260440160206040518083038186803b15801561089f57600080fd5b505af41580156108b3573d6000803e3d6000fd5b505050506040513d601f19601f820116820180604052508101906108d79190611969565b6109425760405162461bcd60e51b815260206004820152603660248201527f41432e6f776e65724f72446972656374426f6f6b65657065723a206e6569746860448201527532b91037bbb732b9103737b9103137b7b5b2b2b832b960511b60648201526084016104ce565b73__$364aad554dc80380f414546becdd2c1584$__639b4510de60028361096761162a565b6040516001600160e01b031960e086901b1681526004810193909352602483019190915264ffffffffff16604482015260640160006040518083038186803b1580156109b257600080fd5b505af41580156109c6573d6000803e3d6000fd5b505050507ff2735f34b69be1e6342dea95f9162f84d0db925fab655ca9f1f312ac8cbfc99d816040516109fb91815260200190565b60405180910390a150565b73__$364aad554dc80380f414546becdd2c1584$__63ee98b3136002848461039761162a565b604051633b11adbf60e21b81526002600482015233602482015273__$364aad554dc80380f414546becdd2c1584$__9063ec46b6fc9060440160206040518083038186803b158015610a7d57600080fd5b505af4158015610a91573d6000803e3d6000fd5b505050506040513d601f19601f82011682018060405250810190610ab59190611969565b610ad15760405162461bcd60e51b81526004016104ce9061198b565b604051636be8496f60e01b81523360048201526001600160a01b03821690636be8496f90602401600060405180830381600087803b158015610b1257600080fd5b505af1158015610b26573d6000803e3d6000fd5b50506040516001600160a01b03841681527f64dd6e84044f0067086012335dcfab3188db6615b5cc7debf18c9a621ebd5d91925060200190506109fb565b604051630f07232560e01b8152600260048201526001600160a01b038216602482015233604482015273__$364aad554dc80380f414546becdd2c1584$__90630f0723259060640160006040518083038186803b158015610bc457600080fd5b505af4158015610bd8573d6000803e3d6000fd5b50506040516001600160a01b03841681527fe435cbeab64e4eae6497b9d8289704bd709d624a80704ef3ca9af777534bc6ec925060200190506109fb565b604051633b11adbf60e21b81526002600482015233602482015273__$364aad554dc80380f414546becdd2c1584$__9063ec46b6fc9060440160206040518083038186803b158015610c6757600080fd5b505af4158015610c7b573d6000803e3d6000fd5b505050506040513d601f19601f82011682018060405250810190610c9f9190611969565b610cbb5760405162461bcd60e51b81526004016104ce9061198b565b600160009054906101000a90046001600160a01b03166001600160a01b031663f01e100f6040518163ffffffff1660e01b815260040160206040518083038186803b158015610d0957600080fd5b505afa158015610d1d573d6000803e3d6000fd5b505050506040513d601f19601f82011682018060405250810190610d4191906119d1565b6001600160a01b0316637c3be473858585856040518563ffffffff1660e01b8152600401610d7294939291906119ee565b600060405180830381600087803b158015610d8c57600080fd5b505af1158015610da0573d6000803e3d6000fd5b5050505050505050565b604051632a3be56b60e21b815260026004820152602481018390526044810182905260009073__$364aad554dc80380f414546becdd2c1584$__9063a8ef95ac9060640160206040518083038186803b158015610e0657600080fd5b505af4158015610e1a573d6000803e3d6000fd5b505050506040513d601f19601f82011682018060405250810190610e3e9190611969565b9392505050565b73__$364aad554dc80380f414546becdd2c1584$__639b48160c600283610e6a61162a565b6040516001600160e01b031960e086901b1681526004810193909352602483019190915264ffffffffff16604482015260640160006040518083038186803b158015610eb557600080fd5b505af4158015610ec9573d6000803e3d6000fd5b505050507f8b6f40f36b4ae8cc5f55e895036457c43da4ab1f80f58c46f5ff0d72a650033b816040516109fb91815260200190565b60405163987ad15360e01b81526002600482015260009073__$364aad554dc80380f414546becdd2c1584$__9063987ad1539060240161031c565b73__$364aad554dc80380f414546becdd2c1584$__63cc0d511b6002836105e261162a565b604051633b11adbf60e21b81526002600482015233602482015273__$364aad554dc80380f414546becdd2c1584$__9063ec46b6fc9060440160206040518083038186803b158015610faf57600080fd5b505af4158015610fc3573d6000803e3d6000fd5b505050506040513d601f19601f82011682018060405250810190610fe79190611969565b6110035760405162461bcd60e51b81526004016104ce9061198b565b600160009054906101000a90046001600160a01b03166001600160a01b031663f01e100f6040518163ffffffff1660e01b815260040160206040518083038186803b15801561105157600080fd5b505afa158015611065573d6000803e3d6000fd5b505050506040513d601f19601f8201168201806040525081019061108991906119d1565b6001600160a01b031663ba5052cb826040518263ffffffff1660e01b81526004016110b691815260200190565b600060405180830381600087803b1580156110d057600080fd5b505af1158015610641573d6000803e3d6000fd5b604051633b11adbf60e21b81526002600482015233602482015273__$364aad554dc80380f414546becdd2c1584$__9063ec46b6fc9060440160206040518083038186803b15801561113557600080fd5b505af4158015611149573d6000803e3d6000fd5b505050506040513d601f19601f8201168201806040525081019061116d9190611969565b6111895760405162461bcd60e51b81526004016104ce9061198b565b600160009054906101000a90046001600160a01b03166001600160a01b031663f01e100f6040518163ffffffff1660e01b815260040160206040518083038186803b1580156111d757600080fd5b505afa1580156111eb573d6000803e3d6000fd5b505050506040513d601f19601f8201168201806040525081019061120f91906119d1565b6040516366bc64c560e11b81526004810185905260248101849052604481018390526001600160a01b03919091169063cd78c98a90606401600060405180830381600087803b15801561126157600080fd5b505af1158015611275573d6000803e3d6000fd5b50505050505050565b604051636cdd0edf60e11b815260026004820152602481018590526001600160a01b038416604482015273__$364aad554dc80380f414546becdd2c1584$__9063d9ba1dbe9060640160006040518083038186803b1580156112df57600080fd5b505af41580156112f3573d6000803e3d6000fd5b5050505061130082611684565b611309816116f7565b604080518581526001600160a01b038581166020830152848116828401528316606082015290517f3abb2418c66fe32ba9c883030a75ce583971d9af9192b9b74e44e67c5e6c8c1f9181900360800190a150505050565b604051633c3e56c160e11b81526002600482015260009073__$364aad554dc80380f414546becdd2c1584$__9063787cad829060240160206040518083038186803b1580156113ae57600080fd5b505af41580156113c2573d6000803e3d6000fd5b505050506040513d601f19601f8201168201806040525081019061036c91906119d1565b600254600160f01b900460ff166001146114425760405162461bcd60e51b815260206004820152601760248201527f41432e4c433a20446f632069732066696e616c697a656400000000000000000060448201526064016104ce565b73__$364aad554dc80380f414546becdd2c1584$__63c51b295f6002684174746f726e65797360b81b61147361162a565b6040516001600160e01b031960e086901b1681526004810193909352602483019190915264ffffffffff16604482015260640160006040518083038186803b1580156114be57600080fd5b505af41580156114d2573d6000803e3d6000fd5b50505050600273__$364aad554dc80380f414546becdd2c1584$__639b4510de909160006114fe61162a565b6040516001600160e01b031960e086901b1681526004810193909352602483019190915264ffffffffff16604482015260640160006040518083038186803b15801561154957600080fd5b505af415801561155d573d6000803e3d6000fd5b50505050600273__$364aad554dc80380f414546becdd2c1584$__639b48160c9091600061158961162a565b6040516001600160e01b031960e086901b1681526004810193909352602483019190915264ffffffffff16604482015260640160006040518083038186803b1580156115d457600080fd5b505af41580156115e8573d6000803e3d6000fd5b50506002805460ff60f01b1916600160f11b17905550506040517f35012b512309c322acf68632cd6cb702ff0e1d776fbe9394e38ffc13b434fe7590600090a1565b60008054604051636ae3b70d60e11b81523360048201526001600160a01b039091169063d5c76e1a90602401602060405180830381600087803b15801561167057600080fd5b505af1158015610348573d6000803e3d6000fd5b6000546001600160a01b0316156116d55760405162461bcd60e51b815260206004820152601560248201527430b63932b0b23c9039b2ba103932b3a1b2b73a32b960591b60448201526064016104ce565b600080546001600160a01b0319166001600160a01b0392909216919091179055565b6001546001600160a01b0316156117505760405162461bcd60e51b815260206004820152601960248201527f616c7265616479207365742067656e6572616c4b65657065720000000000000060448201526064016104ce565b600180546001600160a01b0319166001600160a01b0392909216919091179055565b6000806040838503121561178557600080fd5b50508035926020909101359150565b6000602082840312156117a657600080fd5b5035919050565b6001600160a01b03811681146117c257600080fd5b50565b6000602082840312156117d757600080fd5b8135610e3e816117ad565b634e487b7160e01b600052604160045260246000fd5b6000806000806080858703121561180e57600080fd5b84359350602085013567ffffffffffffffff8082111561182d57600080fd5b818701915087601f83011261184157600080fd5b813581811115611853576118536117e2565b604051601f8201601f19908116603f0116810190838211818310171561187b5761187b6117e2565b816040528281528a602084870101111561189457600080fd5b826020860160208301376000928101602001929092525095989597505050506040840135936060013592915050565b6000806000606084860312156118d857600080fd5b505081359360208301359350604090920135919050565b6000806000806080858703121561190557600080fd5b843593506020850135611917816117ad565b92506040850135611927816117ad565b91506060850135611937816117ad565b939692955090935050565b60006020828403121561195457600080fd5b815164ffffffffff81168114610e3e57600080fd5b60006020828403121561197b57600080fd5b81518015158114610e3e57600080fd5b60208082526026908201527f41432e6f6e6c794469726563744b65657065723a206e6f74206469726563742060408201526535b2b2b832b960d11b606082015260800190565b6000602082840312156119e357600080fd5b8151610e3e816117ad565b84815260006020608081840152855180608085015260005b81811015611a225787810183015185820160a001528201611a06565b81811115611a3457600060a083870101525b5060408401959095525050606081019190915260a0601f909201601f191601019291505056fea2646970667358221220026281f013cbff25ccac7a63bc82c2b008b9f9000f3fff5bc7921eb54a839cad64736f6c63430008080033",
    "sourcePath": "/Users/kaptain/github.com/hardhat/comboox/contracts/keepers/BOSKeeper.sol",
    "compiler": {
        "name": "solc",
        "version": "0.8.8+commit.dddeac2f"
    },
    "functionHashes": {
        "abandonRole(bytes32)": "3da9a600",
        "decreaseCapital(uint256,uint256,uint256)": "cd78c98a",
        "finalized()": "b3f05b97",
        "getBookeeper()": "ed211023",
        "getGeneralCounsel()": "103f6edd",
        "getOwner()": "893d20e8",
        "grantRole(bytes32,uint256)": "1b6ea9f9",
        "hasRole(bytes32,uint256)": "7e063c5a",
        "init(uint256,address,address,address)": "dc890da9",
        "lockContents()": "f045a769",
        "removeDirectKeeper(address)": "5d7ad88f",
        "renounceRole(bytes32)": "8bb9c5bf",
        "requestPaidInCapital(bytes32,string,uint256,uint256)": "7c3be473",
        "revokeRole(bytes32,uint256)": "19d61ad9",
        "setDirectKeeper(address)": "6be8496f",
        "setGeneralCounsel(uint256)": "4a14beb1",
        "setOwner(uint256)": "8041494e",
        "setPayInAmt(bytes32,uint256)": "23e4b165",
        "setRoleAdmin(bytes32,uint256)": "5171ebd4",
        "updatePaidInDeadline(uint256,uint256)": "498ec436",
        "withdrawPayInAmt(bytes32)": "ba5052cb"
    },
    "gasEstimates": {
        "creation": {
            "codeDepositCost": "1360000",
            "executionCost": "1417",
            "totalCost": "1361417"
        },
        "external": {
            "abandonRole(bytes32)": "infinite",
            "decreaseCapital(uint256,uint256,uint256)": "infinite",
            "finalized()": "2349",
            "getBookeeper()": "infinite",
            "getGeneralCounsel()": "infinite",
            "getOwner()": "infinite",
            "grantRole(bytes32,uint256)": "infinite",
            "hasRole(bytes32,uint256)": "infinite",
            "init(uint256,address,address,address)": "infinite",
            "lockContents()": "infinite",
            "removeDirectKeeper(address)": "infinite",
            "renounceRole(bytes32)": "infinite",
            "requestPaidInCapital(bytes32,string,uint256,uint256)": "infinite",
            "revokeRole(bytes32,uint256)": "infinite",
            "setDirectKeeper(address)": "infinite",
            "setGeneralCounsel(uint256)": "infinite",
            "setOwner(uint256)": "infinite",
            "setPayInAmt(bytes32,uint256)": "infinite",
            "setRoleAdmin(bytes32,uint256)": "infinite",
            "updatePaidInDeadline(uint256,uint256)": "infinite",
            "withdrawPayInAmt(bytes32)": "infinite"
        }
    }
}