{
    "contractName": "BOSKeeper",
    "abi": [
        {
            "anonymous": false,
            "inputs": [
                {
                    "indexed": false,
                    "internalType": "uint256",
                    "name": "owner",
                    "type": "uint256"
                },
                {
                    "indexed": false,
                    "internalType": "address",
                    "name": "directKeeper",
                    "type": "address"
                },
                {
                    "indexed": false,
                    "internalType": "address",
                    "name": "regCenter",
                    "type": "address"
                },
                {
                    "indexed": false,
                    "internalType": "address",
                    "name": "generalKeeper",
                    "type": "address"
                }
            ],
            "name": "Init",
            "type": "event"
        },
        {
            "anonymous": false,
            "inputs": [],
            "name": "LockContents",
            "type": "event"
        },
        {
            "anonymous": false,
            "inputs": [
                {
                    "indexed": false,
                    "internalType": "address",
                    "name": "keeper",
                    "type": "address"
                }
            ],
            "name": "SetDirectKeeper",
            "type": "event"
        },
        {
            "anonymous": false,
            "inputs": [
                {
                    "indexed": false,
                    "internalType": "uint256",
                    "name": "acct",
                    "type": "uint256"
                }
            ],
            "name": "SetGeneralCounsel",
            "type": "event"
        },
        {
            "anonymous": false,
            "inputs": [
                {
                    "indexed": false,
                    "internalType": "address",
                    "name": "gk",
                    "type": "address"
                }
            ],
            "name": "SetGeneralKeeper",
            "type": "event"
        },
        {
            "anonymous": false,
            "inputs": [
                {
                    "indexed": false,
                    "internalType": "uint256",
                    "name": "acct",
                    "type": "uint256"
                }
            ],
            "name": "SetOwner",
            "type": "event"
        },
        {
            "anonymous": false,
            "inputs": [
                {
                    "indexed": false,
                    "internalType": "address",
                    "name": "rc",
                    "type": "address"
                }
            ],
            "name": "SetRegCenter",
            "type": "event"
        },
        {
            "inputs": [
                {
                    "internalType": "bytes32",
                    "name": "role",
                    "type": "bytes32"
                }
            ],
            "name": "abandonRole",
            "outputs": [],
            "stateMutability": "nonpayable",
            "type": "function"
        },
        {
            "inputs": [
                {
                    "internalType": "uint256",
                    "name": "seqOfShare",
                    "type": "uint256"
                },
                {
                    "internalType": "uint64",
                    "name": "paid",
                    "type": "uint64"
                },
                {
                    "internalType": "uint64",
                    "name": "par",
                    "type": "uint64"
                }
            ],
            "name": "decreaseCapital",
            "outputs": [],
            "stateMutability": "nonpayable",
            "type": "function"
        },
        {
            "inputs": [],
            "name": "finalized",
            "outputs": [
                {
                    "internalType": "bool",
                    "name": "",
                    "type": "bool"
                }
            ],
            "stateMutability": "view",
            "type": "function"
        },
        {
            "inputs": [],
            "name": "getBookeeper",
            "outputs": [
                {
                    "internalType": "address",
                    "name": "",
                    "type": "address"
                }
            ],
            "stateMutability": "view",
            "type": "function"
        },
        {
            "inputs": [],
            "name": "getGeneralCounsel",
            "outputs": [
                {
                    "internalType": "uint40",
                    "name": "",
                    "type": "uint40"
                }
            ],
            "stateMutability": "view",
            "type": "function"
        },
        {
            "inputs": [],
            "name": "getOwner",
            "outputs": [
                {
                    "internalType": "uint40",
                    "name": "",
                    "type": "uint40"
                }
            ],
            "stateMutability": "view",
            "type": "function"
        },
        {
            "inputs": [
                {
                    "internalType": "bytes32",
                    "name": "role",
                    "type": "bytes32"
                },
                {
                    "internalType": "uint256",
                    "name": "acct",
                    "type": "uint256"
                }
            ],
            "name": "grantRole",
            "outputs": [],
            "stateMutability": "nonpayable",
            "type": "function"
        },
        {
            "inputs": [
                {
                    "internalType": "bytes32",
                    "name": "role",
                    "type": "bytes32"
                },
                {
                    "internalType": "uint256",
                    "name": "acct",
                    "type": "uint256"
                }
            ],
            "name": "hasRole",
            "outputs": [
                {
                    "internalType": "bool",
                    "name": "",
                    "type": "bool"
                }
            ],
            "stateMutability": "view",
            "type": "function"
        },
        {
            "inputs": [
                {
                    "internalType": "uint256",
                    "name": "owner",
                    "type": "uint256"
                },
                {
                    "internalType": "address",
                    "name": "directKeeper",
                    "type": "address"
                },
                {
                    "internalType": "address",
                    "name": "regCenter",
                    "type": "address"
                },
                {
                    "internalType": "address",
                    "name": "generalKeeper",
                    "type": "address"
                }
            ],
            "name": "init",
            "outputs": [],
            "stateMutability": "nonpayable",
            "type": "function"
        },
        {
            "inputs": [],
            "name": "lockContents",
            "outputs": [],
            "stateMutability": "nonpayable",
            "type": "function"
        },
        {
            "inputs": [
                {
                    "internalType": "bytes32",
                    "name": "role",
                    "type": "bytes32"
                }
            ],
            "name": "renounceRole",
            "outputs": [],
            "stateMutability": "nonpayable",
            "type": "function"
        },
        {
            "inputs": [
                {
                    "internalType": "bytes32",
                    "name": "sn",
                    "type": "bytes32"
                },
                {
                    "internalType": "string",
                    "name": "hashKey",
                    "type": "string"
                }
            ],
            "name": "requestPaidInCapital",
            "outputs": [],
            "stateMutability": "nonpayable",
            "type": "function"
        },
        {
            "inputs": [
                {
                    "internalType": "bytes32",
                    "name": "role",
                    "type": "bytes32"
                },
                {
                    "internalType": "uint256",
                    "name": "acct",
                    "type": "uint256"
                }
            ],
            "name": "revokeRole",
            "outputs": [],
            "stateMutability": "nonpayable",
            "type": "function"
        },
        {
            "inputs": [
                {
                    "internalType": "address",
                    "name": "keeper",
                    "type": "address"
                }
            ],
            "name": "setDirectKeeper",
            "outputs": [],
            "stateMutability": "nonpayable",
            "type": "function"
        },
        {
            "inputs": [
                {
                    "internalType": "uint256",
                    "name": "acct",
                    "type": "uint256"
                }
            ],
            "name": "setGeneralCounsel",
            "outputs": [],
            "stateMutability": "nonpayable",
            "type": "function"
        },
        {
            "inputs": [
                {
                    "internalType": "uint256",
                    "name": "acct",
                    "type": "uint256"
                }
            ],
            "name": "setOwner",
            "outputs": [],
            "stateMutability": "nonpayable",
            "type": "function"
        },
        {
            "inputs": [
                {
                    "internalType": "bytes32",
                    "name": "sn",
                    "type": "bytes32"
                },
                {
                    "internalType": "uint64",
                    "name": "amount",
                    "type": "uint64"
                }
            ],
            "name": "setPayInAmount",
            "outputs": [],
            "stateMutability": "nonpayable",
            "type": "function"
        },
        {
            "inputs": [
                {
                    "internalType": "bytes32",
                    "name": "role",
                    "type": "bytes32"
                },
                {
                    "internalType": "uint256",
                    "name": "acct",
                    "type": "uint256"
                }
            ],
            "name": "setRoleAdmin",
            "outputs": [],
            "stateMutability": "nonpayable",
            "type": "function"
        },
        {
            "inputs": [
                {
                    "internalType": "uint256",
                    "name": "seqOfShare",
                    "type": "uint256"
                },
                {
                    "internalType": "uint48",
                    "name": "line",
                    "type": "uint48"
                }
            ],
            "name": "updatePaidInDeadline",
            "outputs": [],
            "stateMutability": "nonpayable",
            "type": "function"
        },
        {
            "inputs": [
                {
                    "internalType": "bytes32",
                    "name": "sn",
                    "type": "bytes32"
                }
            ],
            "name": "withdrawPayInAmount",
            "outputs": [],
            "stateMutability": "nonpayable",
            "type": "function"
        }
    ],
    "bytecode": "608060405234801561001057600080fd5b50611997806100206000396000f3fe608060405234801561001057600080fd5b506004361061012c5760003560e01c80637e063c5a116100ad578063dc8492ce11610071578063dc8492ce14610266578063dc890da914610279578063e12388f21461028c578063ed2110231461029f578063f045a769146102bf57600080fd5b80637e063c5a146102015780638041494e14610224578063893d20e8146102375780638bb9c5bf1461023f578063b3f05b971461025257600080fd5b80634a14beb1116100f45780634a14beb1146101a25780634fc3e83f146101b55780635171ebd4146101c85780635f94411d146101db5780636be8496f146101ee57600080fd5b806304726d7a14610131578063103f6edd1461014657806319d61ad9146101695780631b6ea9f91461017c5780633da9a6001461018f575b600080fd5b61014461013f3660046115c4565b6102c7565b005b61014e6103e0565b60405164ffffffffff90911681526020015b60405180910390f35b61014461017736600461167f565b61046c565b61014461018a36600461167f565b6104f8565b61014461019d3660046116a1565b61051d565b6101446101b03660046116a1565b61062f565b6101446101c33660046116ba565b61081f565b6101446101d636600461167f565b610909565b6101446101e9366004611712565b61092e565b6101446101fc366004611756565b610a1a565b61021461020f36600461167f565b610acc565b6040519015158152602001610160565b6101446102323660046116a1565b610b67565b61014e610d4c565b61014461024d3660046116a1565b610d87565b60028054600160f01b900460ff1614610214565b610144610274366004611773565b610de0565b6101446102873660046117af565b610f06565b61014461029a3660046116a1565b610fe9565b6102a76110f1565b6040516001600160a01b039091168152602001610160565b610144611177565b604051633b11adbf60e21b81526002600482015233602482015273__$364aad554dc80380f414546becdd2c1584$__9063ec46b6fc9060440160206040518083038186803b15801561031857600080fd5b505af415801561032c573d6000803e3d6000fd5b505050506040513d601f19601f820116820180604052508101906103509190611802565b6103755760405162461bcd60e51b815260040161036c90611824565b60405180910390fd5b61037d611395565b6001600160a01b03166304726d7a83836040518363ffffffff1660e01b81526004016103aa92919061186a565b600060405180830381600087803b1580156103c457600080fd5b505af11580156103d8573d6000803e3d6000fd5b505050505050565b60405163e8c0cc1d60e01b81526002600482015260009073__$364aad554dc80380f414546becdd2c1584$__9063e8c0cc1d906024015b60206040518083038186803b15801561042f57600080fd5b505af4158015610443573d6000803e3d6000fd5b505050506040513d601f19601f8201168201806040525081019061046791906118c7565b905090565b73__$364aad554dc80380f414546becdd2c1584$__6382daafaa6002846104916113ee565b6040516001600160e01b031960e086901b1681526004810193909352602483019190915264ffffffffff166044820152606481018490526084015b60006040518083038186803b1580156104e457600080fd5b505af41580156103d8573d6000803e3d6000fd5b73__$364aad554dc80380f414546becdd2c1584$__636320d75e6002846104916113ee565b604051633b11adbf60e21b81526002600482015233602482015273__$364aad554dc80380f414546becdd2c1584$__9063ec46b6fc9060440160206040518083038186803b15801561056e57600080fd5b505af4158015610582573d6000803e3d6000fd5b505050506040513d601f19601f820116820180604052508101906105a69190611802565b6105c25760405162461bcd60e51b815260040161036c90611824565b60405163cc99e11b60e01b8152600260048201526024810182905273__$364aad554dc80380f414546becdd2c1584$__9063cc99e11b9060440160006040518083038186803b15801561061457600080fd5b505af4158015610628573d6000803e3d6000fd5b5050505050565b604051633b11adbf60e21b81526002600482015233602482015273__$364aad554dc80380f414546becdd2c1584$__9063ec46b6fc9060440160206040518083038186803b15801561068057600080fd5b505af4158015610694573d6000803e3d6000fd5b505050506040513d601f19601f820116820180604052508101906106b89190611802565b8061075d575073__$364aad554dc80380f414546becdd2c1584$__63fe27108660026106e26113ee565b6040516001600160e01b031960e085901b168152600481019290925264ffffffffff16602482015260440160206040518083038186803b15801561072557600080fd5b505af4158015610739573d6000803e3d6000fd5b505050506040513d601f19601f8201168201806040525081019061075d9190611802565b6107795760405162461bcd60e51b815260040161036c906118ee565b604051632725ebef60e21b8152600260048201526024810182905273__$364aad554dc80380f414546becdd2c1584$__90639c97afbc9060440160006040518083038186803b1580156107cb57600080fd5b505af41580156107df573d6000803e3d6000fd5b505050507ff2735f34b69be1e6342dea95f9162f84d0db925fab655ca9f1f312ac8cbfc99d8160405161081491815260200190565b60405180910390a150565b604051633b11adbf60e21b81526002600482015233602482015273__$364aad554dc80380f414546becdd2c1584$__9063ec46b6fc9060440160206040518083038186803b15801561087057600080fd5b505af4158015610884573d6000803e3d6000fd5b505050506040513d601f19601f820116820180604052508101906108a89190611802565b6108c45760405162461bcd60e51b815260040161036c90611824565b6108cc611395565b604051634fc3e83f60e01b81526004810184905265ffffffffffff831660248201526001600160a01b039190911690634fc3e83f906044016103aa565b73__$364aad554dc80380f414546becdd2c1584$__63ee98b3136002846104916113ee565b604051633b11adbf60e21b81526002600482015233602482015273__$364aad554dc80380f414546becdd2c1584$__9063ec46b6fc9060440160206040518083038186803b15801561097f57600080fd5b505af4158015610993573d6000803e3d6000fd5b505050506040513d601f19601f820116820180604052508101906109b79190611802565b6109d35760405162461bcd60e51b815260040161036c90611824565b6109db611395565b604051635f94411d60e01b81526004810184905267ffffffffffffffff831660248201526001600160a01b039190911690635f94411d906044016103aa565b604051630f07232560e01b8152600260048201523360248201526001600160a01b038216604482015273__$364aad554dc80380f414546becdd2c1584$__90630f0723259060640160006040518083038186803b158015610a7a57600080fd5b505af4158015610a8e573d6000803e3d6000fd5b50506040516001600160a01b03841681527fe435cbeab64e4eae6497b9d8289704bd709d624a80704ef3ca9af777534bc6ec92506020019050610814565b604051632a3be56b60e21b815260026004820152602481018390526044810182905260009073__$364aad554dc80380f414546becdd2c1584$__9063a8ef95ac9060640160206040518083038186803b158015610b2857600080fd5b505af4158015610b3c573d6000803e3d6000fd5b505050506040513d601f19601f82011682018060405250810190610b609190611802565b9392505050565b604051633b11adbf60e21b81526002600482015233602482015273__$364aad554dc80380f414546becdd2c1584$__9063ec46b6fc9060440160206040518083038186803b158015610bb857600080fd5b505af4158015610bcc573d6000803e3d6000fd5b505050506040513d601f19601f82011682018060405250810190610bf09190611802565b80610c95575073__$364aad554dc80380f414546becdd2c1584$__63fe2710866002610c1a6113ee565b6040516001600160e01b031960e085901b168152600481019290925264ffffffffff16602482015260440160206040518083038186803b158015610c5d57600080fd5b505af4158015610c71573d6000803e3d6000fd5b505050506040513d601f19601f82011682018060405250810190610c959190611802565b610cb15760405162461bcd60e51b815260040161036c906118ee565b60405163b6e38a2960e01b8152600260048201526024810182905273__$364aad554dc80380f414546becdd2c1584$__9063b6e38a299060440160006040518083038186803b158015610d0357600080fd5b505af4158015610d17573d6000803e3d6000fd5b505050507f8b6f40f36b4ae8cc5f55e895036457c43da4ab1f80f58c46f5ff0d72a650033b8160405161081491815260200190565b60405163987ad15360e01b81526002600482015260009073__$364aad554dc80380f414546becdd2c1584$__9063987ad15390602401610417565b6000610d916113ee565b60405163cc0d511b60e01b8152600260048201526024810184905264ffffffffff8216604482015290915073__$364aad554dc80380f414546becdd2c1584$__9063cc0d511b906064016104cc565b604051633b11adbf60e21b81526002600482015233602482015273__$364aad554dc80380f414546becdd2c1584$__9063ec46b6fc9060440160206040518083038186803b158015610e3157600080fd5b505af4158015610e45573d6000803e3d6000fd5b505050506040513d601f19601f82011682018060405250810190610e699190611802565b610e855760405162461bcd60e51b815260040161036c90611824565b610e8d611395565b604051636e42496760e11b81526004810185905267ffffffffffffffff8085166024830152831660448201526001600160a01b03919091169063dc8492ce90606401600060405180830381600087803b158015610ee957600080fd5b505af1158015610efd573d6000803e3d6000fd5b50505050505050565b610f0f82611448565b610f18816114f7565b604051636cdd0edf60e11b815260026004820152602481018590526001600160a01b038416604482015273__$364aad554dc80380f414546becdd2c1584$__9063d9ba1dbe9060640160006040518083038186803b158015610f7957600080fd5b505af4158015610f8d573d6000803e3d6000fd5b5050604080518781526001600160a01b038781166020830152868116828401528516606082015290517f3abb2418c66fe32ba9c883030a75ce583971d9af9192b9b74e44e67c5e6c8c1f9350908190036080019150a150505050565b604051633b11adbf60e21b81526002600482015233602482015273__$364aad554dc80380f414546becdd2c1584$__9063ec46b6fc9060440160206040518083038186803b15801561103a57600080fd5b505af415801561104e573d6000803e3d6000fd5b505050506040513d601f19601f820116820180604052508101906110729190611802565b61108e5760405162461bcd60e51b815260040161036c90611824565b611096611395565b6001600160a01b031663e12388f2826040518263ffffffff1660e01b81526004016110c391815260200190565b600060405180830381600087803b1580156110dd57600080fd5b505af1158015610628573d6000803e3d6000fd5b604051633c3e56c160e11b81526002600482015260009073__$364aad554dc80380f414546becdd2c1584$__9063787cad829060240160206040518083038186803b15801561113f57600080fd5b505af4158015611153573d6000803e3d6000fd5b505050506040513d601f19601f820116820180604052508101906104679190611944565b604051633b11adbf60e21b81526002600482015233602482015273__$364aad554dc80380f414546becdd2c1584$__9063ec46b6fc9060440160206040518083038186803b1580156111c857600080fd5b505af41580156111dc573d6000803e3d6000fd5b505050506040513d601f19601f820116820180604052508101906112009190611802565b61121c5760405162461bcd60e51b815260040161036c90611824565b600254600160f01b900460ff166001146112785760405162461bcd60e51b815260206004820181905260248201527f41432e6f6e6c7950656e64696e673a20446f632069732066696e616c697a6564604482015260640161036c565b60405163cc99e11b60e01b815260026004820152684174746f726e65797360b81b602482015273__$364aad554dc80380f414546becdd2c1584$__9063cc99e11b9060440160006040518083038186803b1580156112d557600080fd5b505af41580156112e9573d6000803e3d6000fd5b5050604051632725ebef60e21b8152600260048201526000602482015273__$364aad554dc80380f414546becdd2c1584$__9250639c97afbc915060440160006040518083038186803b15801561133f57600080fd5b505af4158015611353573d6000803e3d6000fd5b50506002805460ff60f01b1916600160f11b17905550506040517f35012b512309c322acf68632cd6cb702ff0e1d776fbe9394e38ffc13b434fe7590600090a1565b60015460405163381baea360e21b8152600660048201526000916001600160a01b03169063e06eba8c9060240160206040518083038186803b1580156113da57600080fd5b505afa158015611153573d6000803e3d6000fd5b60008054604051634de835e760e11b81523360048201526001600160a01b0390911690639bd06bce90602401602060405180830381600087803b15801561143457600080fd5b505af1158015610443573d6000803e3d6000fd5b6000546001600160a01b0316156114995760405162461bcd60e51b815260206004820152601560248201527430b63932b0b23c9039b2ba103932b3a1b2b73a32b960591b604482015260640161036c565b6040516001600160a01b03821681527f318da6c7624c71cbc0afe346c9d8827f119d0ecefb241a7b0c87217a076a8e029060200160405180910390a1600080546001600160a01b0319166001600160a01b0392909216919091179055565b6001546001600160a01b0316156115505760405162461bcd60e51b815260206004820152601960248201527f616c7265616479207365742067656e6572616c4b656570657200000000000000604482015260640161036c565b6040516001600160a01b03821681527fe513d3e0f0d0a3877029dcc588748679a7a3450ec1ec7ed56d96bd012c3e61aa9060200160405180910390a1600180546001600160a01b0319166001600160a01b0392909216919091179055565b634e487b7160e01b600052604160045260246000fd5b600080604083850312156115d757600080fd5b82359150602083013567ffffffffffffffff808211156115f657600080fd5b818501915085601f83011261160a57600080fd5b81358181111561161c5761161c6115ae565b604051601f8201601f19908116603f01168101908382118183101715611644576116446115ae565b8160405282815288602084870101111561165d57600080fd5b8260208601602083013760006020848301015280955050505050509250929050565b6000806040838503121561169257600080fd5b50508035926020909101359150565b6000602082840312156116b357600080fd5b5035919050565b600080604083850312156116cd57600080fd5b82359150602083013565ffffffffffff811681146116ea57600080fd5b809150509250929050565b803567ffffffffffffffff8116811461170d57600080fd5b919050565b6000806040838503121561172557600080fd5b82359150611735602084016116f5565b90509250929050565b6001600160a01b038116811461175357600080fd5b50565b60006020828403121561176857600080fd5b8135610b608161173e565b60008060006060848603121561178857600080fd5b83359250611798602085016116f5565b91506117a6604085016116f5565b90509250925092565b600080600080608085870312156117c557600080fd5b8435935060208501356117d78161173e565b925060408501356117e78161173e565b915060608501356117f78161173e565b939692955090935050565b60006020828403121561181457600080fd5b81518015158114610b6057600080fd5b60208082526026908201527f41432e6f6e6c794469726563744b65657065723a206e6f74206469726563742060408201526535b2b2b832b960d11b606082015260800190565b82815260006020604081840152835180604085015260005b8181101561189e57858101830151858201606001528201611882565b818111156118b0576000606083870101525b50601f01601f191692909201606001949350505050565b6000602082840312156118d957600080fd5b815164ffffffffff81168114610b6057600080fd5b60208082526036908201527f41432e6f776e65724f72446972656374426f6f6b65657065723a206e6569746860408201527532b91037bbb732b9103737b9103137b7b5b2b2b832b960511b606082015260800190565b60006020828403121561195657600080fd5b8151610b608161173e56fea2646970667358221220361d7e9a0aab6b6991fc4c9020c79b883408e2566bf42981b6918c6da0b0711064736f6c63430008080033",
    "sourcePath": "/Users/kaptain/github.com/hardhat/comboox/contracts/keepers/BOSKeeper.sol",
    "compiler": {
        "name": "solc",
        "version": "0.8.8+commit.dddeac2f"
    },
    "functionHashes": {
        "abandonRole(bytes32)": "3da9a600",
        "decreaseCapital(uint256,uint64,uint64)": "dc8492ce",
        "finalized()": "b3f05b97",
        "getBookeeper()": "ed211023",
        "getGeneralCounsel()": "103f6edd",
        "getOwner()": "893d20e8",
        "grantRole(bytes32,uint256)": "1b6ea9f9",
        "hasRole(bytes32,uint256)": "7e063c5a",
        "init(uint256,address,address,address)": "dc890da9",
        "lockContents()": "f045a769",
        "renounceRole(bytes32)": "8bb9c5bf",
        "requestPaidInCapital(bytes32,string)": "04726d7a",
        "revokeRole(bytes32,uint256)": "19d61ad9",
        "setDirectKeeper(address)": "6be8496f",
        "setGeneralCounsel(uint256)": "4a14beb1",
        "setOwner(uint256)": "8041494e",
        "setPayInAmount(bytes32,uint64)": "5f94411d",
        "setRoleAdmin(bytes32,uint256)": "5171ebd4",
        "updatePaidInDeadline(uint256,uint48)": "4fc3e83f",
        "withdrawPayInAmount(bytes32)": "e12388f2"
    },
    "gasEstimates": {
        "creation": {
            "codeDepositCost": "1310200",
            "executionCost": "1363",
            "totalCost": "1311563"
        },
        "external": {
            "abandonRole(bytes32)": "infinite",
            "decreaseCapital(uint256,uint64,uint64)": "infinite",
            "finalized()": "2438",
            "getBookeeper()": "infinite",
            "getGeneralCounsel()": "infinite",
            "getOwner()": "infinite",
            "grantRole(bytes32,uint256)": "infinite",
            "hasRole(bytes32,uint256)": "infinite",
            "init(uint256,address,address,address)": "infinite",
            "lockContents()": "infinite",
            "renounceRole(bytes32)": "infinite",
            "requestPaidInCapital(bytes32,string)": "infinite",
            "revokeRole(bytes32,uint256)": "infinite",
            "setDirectKeeper(address)": "infinite",
            "setGeneralCounsel(uint256)": "infinite",
            "setOwner(uint256)": "infinite",
            "setPayInAmount(bytes32,uint64)": "infinite",
            "setRoleAdmin(bytes32,uint256)": "infinite",
            "updatePaidInDeadline(uint256,uint48)": "infinite",
            "withdrawPayInAmount(bytes32)": "infinite"
        }
    }
}