{
    "contractName": "GeneralKeeper",
    "abi": [
        {
            "anonymous": false,
            "inputs": [
                {
                    "indexed": false,
                    "internalType": "uint256",
                    "name": "owner",
                    "type": "uint256"
                },
                {
                    "indexed": false,
                    "internalType": "address",
                    "name": "directKeeper",
                    "type": "address"
                },
                {
                    "indexed": false,
                    "internalType": "address",
                    "name": "regCenter",
                    "type": "address"
                },
                {
                    "indexed": false,
                    "internalType": "address",
                    "name": "generalKeeper",
                    "type": "address"
                }
            ],
            "name": "Init",
            "type": "event"
        },
        {
            "anonymous": false,
            "inputs": [],
            "name": "LockContents",
            "type": "event"
        },
        {
            "anonymous": false,
            "inputs": [
                {
                    "indexed": false,
                    "internalType": "uint256",
                    "name": "title",
                    "type": "uint256"
                },
                {
                    "indexed": false,
                    "internalType": "address",
                    "name": "book",
                    "type": "address"
                }
            ],
            "name": "RegBook",
            "type": "event"
        },
        {
            "anonymous": false,
            "inputs": [
                {
                    "indexed": false,
                    "internalType": "uint256",
                    "name": "title",
                    "type": "uint256"
                },
                {
                    "indexed": false,
                    "internalType": "address",
                    "name": "keeper",
                    "type": "address"
                }
            ],
            "name": "RegBookeeper",
            "type": "event"
        },
        {
            "anonymous": false,
            "inputs": [
                {
                    "indexed": false,
                    "internalType": "address",
                    "name": "target",
                    "type": "address"
                }
            ],
            "name": "RemoveDirectKeeper",
            "type": "event"
        },
        {
            "anonymous": false,
            "inputs": [
                {
                    "indexed": false,
                    "internalType": "bytes32",
                    "name": "regNumHash",
                    "type": "bytes32"
                },
                {
                    "indexed": false,
                    "internalType": "string",
                    "name": "nameOfCompany",
                    "type": "string"
                },
                {
                    "indexed": false,
                    "internalType": "string",
                    "name": "symbolOfCompany",
                    "type": "string"
                }
            ],
            "name": "SetCompInfo",
            "type": "event"
        },
        {
            "anonymous": false,
            "inputs": [
                {
                    "indexed": false,
                    "internalType": "address",
                    "name": "keeper",
                    "type": "address"
                }
            ],
            "name": "SetDirectKeeper",
            "type": "event"
        },
        {
            "anonymous": false,
            "inputs": [
                {
                    "indexed": false,
                    "internalType": "uint256",
                    "name": "acct",
                    "type": "uint256"
                }
            ],
            "name": "SetGeneralCounsel",
            "type": "event"
        },
        {
            "anonymous": false,
            "inputs": [
                {
                    "indexed": false,
                    "internalType": "uint256",
                    "name": "acct",
                    "type": "uint256"
                }
            ],
            "name": "SetOwner",
            "type": "event"
        },
        {
            "inputs": [
                {
                    "internalType": "bytes32",
                    "name": "role",
                    "type": "bytes32"
                }
            ],
            "name": "abandonRole",
            "outputs": [],
            "stateMutability": "nonpayable",
            "type": "function"
        },
        {
            "inputs": [
                {
                    "internalType": "address",
                    "name": "ia",
                    "type": "address"
                },
                {
                    "internalType": "uint256",
                    "name": "seqOfDeal",
                    "type": "uint256"
                },
                {
                    "internalType": "uint256",
                    "name": "seqOfShare",
                    "type": "uint256"
                },
                {
                    "internalType": "bytes32",
                    "name": "sigHash",
                    "type": "bytes32"
                }
            ],
            "name": "acceptAlongDeal",
            "outputs": [],
            "stateMutability": "nonpayable",
            "type": "function"
        },
        {
            "inputs": [
                {
                    "internalType": "address",
                    "name": "ia",
                    "type": "address"
                },
                {
                    "internalType": "uint256",
                    "name": "seqOfDeal",
                    "type": "uint256"
                },
                {
                    "internalType": "bytes32",
                    "name": "sigHash",
                    "type": "bytes32"
                }
            ],
            "name": "acceptFirstRefusal",
            "outputs": [],
            "stateMutability": "nonpayable",
            "type": "function"
        },
        {
            "inputs": [
                {
                    "internalType": "bytes32",
                    "name": "sigHash",
                    "type": "bytes32"
                }
            ],
            "name": "acceptSHA",
            "outputs": [],
            "stateMutability": "nonpayable",
            "type": "function"
        },
        {
            "inputs": [
                {
                    "internalType": "uint256",
                    "name": "seqOfMotion",
                    "type": "uint256"
                },
                {
                    "internalType": "uint256",
                    "name": "attitude",
                    "type": "uint256"
                },
                {
                    "internalType": "bytes32",
                    "name": "sigHash",
                    "type": "bytes32"
                }
            ],
            "name": "castVote",
            "outputs": [],
            "stateMutability": "nonpayable",
            "type": "function"
        },
        {
            "inputs": [
                {
                    "internalType": "uint256",
                    "name": "seqOfMotion",
                    "type": "uint256"
                },
                {
                    "internalType": "uint256",
                    "name": "attitude",
                    "type": "uint256"
                },
                {
                    "internalType": "bytes32",
                    "name": "sigHash",
                    "type": "bytes32"
                }
            ],
            "name": "castVoteOfGM",
            "outputs": [],
            "stateMutability": "nonpayable",
            "type": "function"
        },
        {
            "inputs": [
                {
                    "internalType": "address",
                    "name": "body",
                    "type": "address"
                },
                {
                    "internalType": "bytes32",
                    "name": "docUrl",
                    "type": "bytes32"
                },
                {
                    "internalType": "bytes32",
                    "name": "docHash",
                    "type": "bytes32"
                }
            ],
            "name": "circulateIA",
            "outputs": [],
            "stateMutability": "nonpayable",
            "type": "function"
        },
        {
            "inputs": [
                {
                    "internalType": "address",
                    "name": "body",
                    "type": "address"
                },
                {
                    "internalType": "bytes32",
                    "name": "docUrl",
                    "type": "bytes32"
                },
                {
                    "internalType": "bytes32",
                    "name": "docHash",
                    "type": "bytes32"
                }
            ],
            "name": "circulateSHA",
            "outputs": [],
            "stateMutability": "nonpayable",
            "type": "function"
        },
        {
            "inputs": [
                {
                    "internalType": "address",
                    "name": "ia",
                    "type": "address"
                },
                {
                    "internalType": "uint256",
                    "name": "seqOfDeal",
                    "type": "uint256"
                },
                {
                    "internalType": "string",
                    "name": "hashKey",
                    "type": "string"
                }
            ],
            "name": "closeDeal",
            "outputs": [],
            "stateMutability": "nonpayable",
            "type": "function"
        },
        {
            "inputs": [],
            "name": "createBoardSeal",
            "outputs": [],
            "stateMutability": "nonpayable",
            "type": "function"
        },
        {
            "inputs": [
                {
                    "internalType": "uint256",
                    "name": "info",
                    "type": "uint256"
                }
            ],
            "name": "createCorpSeal",
            "outputs": [],
            "stateMutability": "nonpayable",
            "type": "function"
        },
        {
            "inputs": [
                {
                    "internalType": "uint256",
                    "name": "snOfIA",
                    "type": "uint256"
                }
            ],
            "name": "createIA",
            "outputs": [],
            "stateMutability": "nonpayable",
            "type": "function"
        },
        {
            "inputs": [
                {
                    "internalType": "uint256",
                    "name": "sn",
                    "type": "uint256"
                },
                {
                    "internalType": "uint256",
                    "name": "creditor",
                    "type": "uint256"
                },
                {
                    "internalType": "uint256",
                    "name": "guaranteeDays",
                    "type": "uint256"
                },
                {
                    "internalType": "uint256",
                    "name": "paid",
                    "type": "uint256"
                },
                {
                    "internalType": "uint256",
                    "name": "par",
                    "type": "uint256"
                },
                {
                    "internalType": "uint256",
                    "name": "guaranteedAmt",
                    "type": "uint256"
                }
            ],
            "name": "createPledge",
            "outputs": [],
            "stateMutability": "nonpayable",
            "type": "function"
        },
        {
            "inputs": [
                {
                    "internalType": "uint256",
                    "name": "version",
                    "type": "uint256"
                }
            ],
            "name": "createSHA",
            "outputs": [],
            "stateMutability": "nonpayable",
            "type": "function"
        },
        {
            "inputs": [
                {
                    "internalType": "uint256",
                    "name": "sn",
                    "type": "uint256"
                },
                {
                    "internalType": "uint256",
                    "name": "rightholder",
                    "type": "uint256"
                },
                {
                    "internalType": "uint256",
                    "name": "paidOfConsider",
                    "type": "uint256"
                }
            ],
            "name": "createSwap",
            "outputs": [],
            "stateMutability": "nonpayable",
            "type": "function"
        },
        {
            "inputs": [
                {
                    "internalType": "uint256",
                    "name": "seqOfSwap",
                    "type": "uint256"
                },
                {
                    "internalType": "uint256",
                    "name": "seqOfConsider",
                    "type": "uint256"
                },
                {
                    "internalType": "uint256",
                    "name": "seqOfTarget",
                    "type": "uint256"
                }
            ],
            "name": "crystalizeSwap",
            "outputs": [],
            "stateMutability": "nonpayable",
            "type": "function"
        },
        {
            "inputs": [
                {
                    "internalType": "uint256",
                    "name": "seqOfShare",
                    "type": "uint256"
                },
                {
                    "internalType": "uint256",
                    "name": "parValue",
                    "type": "uint256"
                },
                {
                    "internalType": "uint256",
                    "name": "paidPar",
                    "type": "uint256"
                }
            ],
            "name": "decreaseCapital",
            "outputs": [],
            "stateMutability": "nonpayable",
            "type": "function"
        },
        {
            "inputs": [
                {
                    "internalType": "address",
                    "name": "body",
                    "type": "address"
                }
            ],
            "name": "effectiveSHA",
            "outputs": [],
            "stateMutability": "nonpayable",
            "type": "function"
        },
        {
            "inputs": [
                {
                    "internalType": "uint256",
                    "name": "seqOfMotion",
                    "type": "uint256"
                },
                {
                    "internalType": "uint256",
                    "name": "delegate",
                    "type": "uint256"
                }
            ],
            "name": "entrustDelegate",
            "outputs": [],
            "stateMutability": "nonpayable",
            "type": "function"
        },
        {
            "inputs": [
                {
                    "internalType": "uint256",
                    "name": "seqOfMotion",
                    "type": "uint256"
                },
                {
                    "internalType": "uint256",
                    "name": "delegate",
                    "type": "uint256"
                }
            ],
            "name": "entrustDelegateOfMember",
            "outputs": [],
            "stateMutability": "nonpayable",
            "type": "function"
        },
        {
            "inputs": [
                {
                    "internalType": "uint256",
                    "name": "typeOfAction",
                    "type": "uint256"
                },
                {
                    "internalType": "address[]",
                    "name": "targets",
                    "type": "address[]"
                },
                {
                    "internalType": "uint256[]",
                    "name": "values",
                    "type": "uint256[]"
                },
                {
                    "internalType": "bytes[]",
                    "name": "params",
                    "type": "bytes[]"
                },
                {
                    "internalType": "bytes32",
                    "name": "desHash",
                    "type": "bytes32"
                },
                {
                    "internalType": "uint256",
                    "name": "seqOfMotion",
                    "type": "uint256"
                }
            ],
            "name": "execAction",
            "outputs": [],
            "stateMutability": "nonpayable",
            "type": "function"
        },
        {
            "inputs": [
                {
                    "internalType": "uint256",
                    "name": "typeOfAction",
                    "type": "uint256"
                },
                {
                    "internalType": "address[]",
                    "name": "targets",
                    "type": "address[]"
                },
                {
                    "internalType": "uint256[]",
                    "name": "values",
                    "type": "uint256[]"
                },
                {
                    "internalType": "bytes[]",
                    "name": "params",
                    "type": "bytes[]"
                },
                {
                    "internalType": "bytes32",
                    "name": "desHash",
                    "type": "bytes32"
                },
                {
                    "internalType": "uint256",
                    "name": "seqOfMotion",
                    "type": "uint256"
                }
            ],
            "name": "execActionOfGM",
            "outputs": [],
            "stateMutability": "nonpayable",
            "type": "function"
        },
        {
            "inputs": [
                {
                    "internalType": "address",
                    "name": "ia",
                    "type": "address"
                },
                {
                    "internalType": "uint256",
                    "name": "seqOfDeal",
                    "type": "uint256"
                },
                {
                    "internalType": "uint256",
                    "name": "seqOfShare",
                    "type": "uint256"
                },
                {
                    "internalType": "bytes32",
                    "name": "sigHash",
                    "type": "bytes32"
                }
            ],
            "name": "execAntiDilution",
            "outputs": [],
            "stateMutability": "nonpayable",
            "type": "function"
        },
        {
            "inputs": [
                {
                    "internalType": "address",
                    "name": "ia",
                    "type": "address"
                },
                {
                    "internalType": "uint256",
                    "name": "seqOfDeal",
                    "type": "uint256"
                },
                {
                    "internalType": "uint256",
                    "name": "seqOfShare",
                    "type": "uint256"
                },
                {
                    "internalType": "uint256",
                    "name": "paid",
                    "type": "uint256"
                },
                {
                    "internalType": "uint256",
                    "name": "par",
                    "type": "uint256"
                },
                {
                    "internalType": "bytes32",
                    "name": "sigHash",
                    "type": "bytes32"
                }
            ],
            "name": "execDragAlong",
            "outputs": [],
            "stateMutability": "nonpayable",
            "type": "function"
        },
        {
            "inputs": [
                {
                    "internalType": "uint256",
                    "name": "seqOfRule",
                    "type": "uint256"
                },
                {
                    "internalType": "uint256",
                    "name": "seqOfRightholder",
                    "type": "uint256"
                },
                {
                    "internalType": "address",
                    "name": "ia",
                    "type": "address"
                },
                {
                    "internalType": "uint256",
                    "name": "seqOfDeal",
                    "type": "uint256"
                },
                {
                    "internalType": "bytes32",
                    "name": "sigHash",
                    "type": "bytes32"
                }
            ],
            "name": "execFirstRefusal",
            "outputs": [],
            "stateMutability": "nonpayable",
            "type": "function"
        },
        {
            "inputs": [
                {
                    "internalType": "uint256",
                    "name": "seqOfOpt",
                    "type": "uint256"
                }
            ],
            "name": "execOption",
            "outputs": [],
            "stateMutability": "nonpayable",
            "type": "function"
        },
        {
            "inputs": [
                {
                    "internalType": "uint256",
                    "name": "seqOfShare",
                    "type": "uint256"
                },
                {
                    "internalType": "uint256",
                    "name": "seqOfPld",
                    "type": "uint256"
                }
            ],
            "name": "execPledge",
            "outputs": [],
            "stateMutability": "nonpayable",
            "type": "function"
        },
        {
            "inputs": [
                {
                    "internalType": "uint256",
                    "name": "seqOfSwap",
                    "type": "uint256"
                }
            ],
            "name": "execSwap",
            "outputs": [],
            "stateMutability": "nonpayable",
            "type": "function"
        },
        {
            "inputs": [
                {
                    "internalType": "uint256",
                    "name": "seqOfOpt",
                    "type": "uint256"
                },
                {
                    "internalType": "uint256",
                    "name": "seqOfBrf",
                    "type": "uint256"
                }
            ],
            "name": "execSwapOrder",
            "outputs": [],
            "stateMutability": "nonpayable",
            "type": "function"
        },
        {
            "inputs": [
                {
                    "internalType": "address",
                    "name": "ia",
                    "type": "address"
                },
                {
                    "internalType": "uint256",
                    "name": "seqOfDeal",
                    "type": "uint256"
                },
                {
                    "internalType": "uint256",
                    "name": "seqOfShare",
                    "type": "uint256"
                },
                {
                    "internalType": "uint256",
                    "name": "paid",
                    "type": "uint256"
                },
                {
                    "internalType": "uint256",
                    "name": "par",
                    "type": "uint256"
                },
                {
                    "internalType": "bytes32",
                    "name": "sigHash",
                    "type": "bytes32"
                }
            ],
            "name": "execTagAlong",
            "outputs": [],
            "stateMutability": "nonpayable",
            "type": "function"
        },
        {
            "inputs": [
                {
                    "internalType": "uint256",
                    "name": "seqOfShare",
                    "type": "uint256"
                },
                {
                    "internalType": "uint256",
                    "name": "seqOfPld",
                    "type": "uint256"
                },
                {
                    "internalType": "uint256",
                    "name": "extDays",
                    "type": "uint256"
                }
            ],
            "name": "extendPledge",
            "outputs": [],
            "stateMutability": "nonpayable",
            "type": "function"
        },
        {
            "inputs": [],
            "name": "finalized",
            "outputs": [
                {
                    "internalType": "bool",
                    "name": "",
                    "type": "bool"
                }
            ],
            "stateMutability": "view",
            "type": "function"
        },
        {
            "inputs": [],
            "name": "getBOA",
            "outputs": [
                {
                    "internalType": "contract IBookOfIA",
                    "name": "",
                    "type": "address"
                }
            ],
            "stateMutability": "view",
            "type": "function"
        },
        {
            "inputs": [],
            "name": "getBOD",
            "outputs": [
                {
                    "internalType": "contract IBookOfDirectors",
                    "name": "",
                    "type": "address"
                }
            ],
            "stateMutability": "view",
            "type": "function"
        },
        {
            "inputs": [],
            "name": "getBOG",
            "outputs": [
                {
                    "internalType": "contract IBookOfGM",
                    "name": "",
                    "type": "address"
                }
            ],
            "stateMutability": "view",
            "type": "function"
        },
        {
            "inputs": [],
            "name": "getBOH",
            "outputs": [
                {
                    "internalType": "contract IBookOfSHA",
                    "name": "",
                    "type": "address"
                }
            ],
            "stateMutability": "view",
            "type": "function"
        },
        {
            "inputs": [],
            "name": "getBOO",
            "outputs": [
                {
                    "internalType": "contract IBookOfOptions",
                    "name": "",
                    "type": "address"
                }
            ],
            "stateMutability": "view",
            "type": "function"
        },
        {
            "inputs": [],
            "name": "getBOP",
            "outputs": [
                {
                    "internalType": "contract IBookOfPledges",
                    "name": "",
                    "type": "address"
                }
            ],
            "stateMutability": "view",
            "type": "function"
        },
        {
            "inputs": [],
            "name": "getBOS",
            "outputs": [
                {
                    "internalType": "contract IBookOfShares",
                    "name": "",
                    "type": "address"
                }
            ],
            "stateMutability": "view",
            "type": "function"
        },
        {
            "inputs": [],
            "name": "getBookeeper",
            "outputs": [
                {
                    "internalType": "address",
                    "name": "",
                    "type": "address"
                }
            ],
            "stateMutability": "view",
            "type": "function"
        },
        {
            "inputs": [],
            "name": "getGeneralCounsel",
            "outputs": [
                {
                    "internalType": "uint40",
                    "name": "",
                    "type": "uint40"
                }
            ],
            "stateMutability": "view",
            "type": "function"
        },
        {
            "inputs": [
                {
                    "internalType": "uint256",
                    "name": "title",
                    "type": "uint256"
                }
            ],
            "name": "getKeeper",
            "outputs": [
                {
                    "internalType": "address",
                    "name": "",
                    "type": "address"
                }
            ],
            "stateMutability": "view",
            "type": "function"
        },
        {
            "inputs": [],
            "name": "getOwner",
            "outputs": [
                {
                    "internalType": "uint40",
                    "name": "",
                    "type": "uint40"
                }
            ],
            "stateMutability": "view",
            "type": "function"
        },
        {
            "inputs": [],
            "name": "getROM",
            "outputs": [
                {
                    "internalType": "contract IRegisterOfMembers",
                    "name": "",
                    "type": "address"
                }
            ],
            "stateMutability": "view",
            "type": "function"
        },
        {
            "inputs": [],
            "name": "getROS",
            "outputs": [
                {
                    "internalType": "contract IRegisterOfSwaps",
                    "name": "",
                    "type": "address"
                }
            ],
            "stateMutability": "view",
            "type": "function"
        },
        {
            "inputs": [],
            "name": "getSHA",
            "outputs": [
                {
                    "internalType": "contract IShareholdersAgreement",
                    "name": "",
                    "type": "address"
                }
            ],
            "stateMutability": "view",
            "type": "function"
        },
        {
            "inputs": [
                {
                    "internalType": "bytes32",
                    "name": "role",
                    "type": "bytes32"
                },
                {
                    "internalType": "uint256",
                    "name": "acct",
                    "type": "uint256"
                }
            ],
            "name": "grantRole",
            "outputs": [],
            "stateMutability": "nonpayable",
            "type": "function"
        },
        {
            "inputs": [
                {
                    "internalType": "bytes32",
                    "name": "role",
                    "type": "bytes32"
                },
                {
                    "internalType": "uint256",
                    "name": "acct",
                    "type": "uint256"
                }
            ],
            "name": "hasRole",
            "outputs": [
                {
                    "internalType": "bool",
                    "name": "",
                    "type": "bool"
                }
            ],
            "stateMutability": "view",
            "type": "function"
        },
        {
            "inputs": [
                {
                    "internalType": "uint256",
                    "name": "owner",
                    "type": "uint256"
                },
                {
                    "internalType": "address",
                    "name": "directKeeper",
                    "type": "address"
                },
                {
                    "internalType": "address",
                    "name": "regCenter",
                    "type": "address"
                },
                {
                    "internalType": "address",
                    "name": "generalKeeper",
                    "type": "address"
                }
            ],
            "name": "init",
            "outputs": [],
            "stateMutability": "nonpayable",
            "type": "function"
        },
        {
            "inputs": [
                {
                    "internalType": "address",
                    "name": "caller",
                    "type": "address"
                }
            ],
            "name": "isKeeper",
            "outputs": [
                {
                    "internalType": "bool",
                    "name": "",
                    "type": "bool"
                }
            ],
            "stateMutability": "view",
            "type": "function"
        },
        {
            "inputs": [
                {
                    "internalType": "address",
                    "name": "ia",
                    "type": "address"
                },
                {
                    "internalType": "uint256",
                    "name": "seqOfDeal",
                    "type": "uint256"
                }
            ],
            "name": "issueNewShare",
            "outputs": [],
            "stateMutability": "nonpayable",
            "type": "function"
        },
        {
            "inputs": [],
            "name": "lockContents",
            "outputs": [],
            "stateMutability": "nonpayable",
            "type": "function"
        },
        {
            "inputs": [
                {
                    "internalType": "uint256",
                    "name": "seqOfShare",
                    "type": "uint256"
                },
                {
                    "internalType": "uint256",
                    "name": "seqOfPld",
                    "type": "uint256"
                },
                {
                    "internalType": "bytes32",
                    "name": "hashLock",
                    "type": "bytes32"
                }
            ],
            "name": "lockPledge",
            "outputs": [],
            "stateMutability": "nonpayable",
            "type": "function"
        },
        {
            "inputs": [
                {
                    "internalType": "uint256",
                    "name": "seqOfSwap",
                    "type": "uint256"
                },
                {
                    "internalType": "bytes32",
                    "name": "hashLock",
                    "type": "bytes32"
                }
            ],
            "name": "lockSwap",
            "outputs": [],
            "stateMutability": "nonpayable",
            "type": "function"
        },
        {
            "inputs": [
                {
                    "internalType": "uint256",
                    "name": "seqOfOpt",
                    "type": "uint256"
                },
                {
                    "internalType": "uint256",
                    "name": "seqOfBrf",
                    "type": "uint256"
                },
                {
                    "internalType": "bytes32",
                    "name": "hashLock",
                    "type": "bytes32"
                }
            ],
            "name": "lockSwapOrder",
            "outputs": [],
            "stateMutability": "nonpayable",
            "type": "function"
        },
        {
            "inputs": [],
            "name": "nameOfCompany",
            "outputs": [
                {
                    "internalType": "string",
                    "name": "",
                    "type": "string"
                }
            ],
            "stateMutability": "view",
            "type": "function"
        },
        {
            "inputs": [
                {
                    "internalType": "uint256",
                    "name": "seqOfPos",
                    "type": "uint256"
                },
                {
                    "internalType": "uint256",
                    "name": "candidate",
                    "type": "uint256"
                }
            ],
            "name": "nominateDirector",
            "outputs": [],
            "stateMutability": "nonpayable",
            "type": "function"
        },
        {
            "inputs": [
                {
                    "internalType": "uint256",
                    "name": "seqOfPos",
                    "type": "uint256"
                },
                {
                    "internalType": "uint256",
                    "name": "candidate",
                    "type": "uint256"
                }
            ],
            "name": "nominateOfficer",
            "outputs": [],
            "stateMutability": "nonpayable",
            "type": "function"
        },
        {
            "inputs": [
                {
                    "internalType": "uint256",
                    "name": "seqOfOpt",
                    "type": "uint256"
                },
                {
                    "internalType": "uint256",
                    "name": "seqOfConsider",
                    "type": "uint256"
                },
                {
                    "internalType": "uint256",
                    "name": "paidOfConsider",
                    "type": "uint256"
                },
                {
                    "internalType": "uint256",
                    "name": "seqOfTarget",
                    "type": "uint256"
                }
            ],
            "name": "placeSwapOrder",
            "outputs": [],
            "stateMutability": "nonpayable",
            "type": "function"
        },
        {
            "inputs": [
                {
                    "internalType": "uint256",
                    "name": "seqOfVR",
                    "type": "uint256"
                },
                {
                    "internalType": "address[]",
                    "name": "targets",
                    "type": "address[]"
                },
                {
                    "internalType": "uint256[]",
                    "name": "values",
                    "type": "uint256[]"
                },
                {
                    "internalType": "bytes[]",
                    "name": "params",
                    "type": "bytes[]"
                },
                {
                    "internalType": "bytes32",
                    "name": "desHash",
                    "type": "bytes32"
                },
                {
                    "internalType": "uint256",
                    "name": "executor",
                    "type": "uint256"
                }
            ],
            "name": "proposeAction",
            "outputs": [],
            "stateMutability": "nonpayable",
            "type": "function"
        },
        {
            "inputs": [
                {
                    "internalType": "uint256",
                    "name": "seqOfVR",
                    "type": "uint256"
                },
                {
                    "internalType": "address[]",
                    "name": "targets",
                    "type": "address[]"
                },
                {
                    "internalType": "uint256[]",
                    "name": "values",
                    "type": "uint256[]"
                },
                {
                    "internalType": "bytes[]",
                    "name": "params",
                    "type": "bytes[]"
                },
                {
                    "internalType": "bytes32",
                    "name": "desHash",
                    "type": "bytes32"
                },
                {
                    "internalType": "uint256",
                    "name": "executor",
                    "type": "uint256"
                }
            ],
            "name": "proposeActionOfGM",
            "outputs": [],
            "stateMutability": "nonpayable",
            "type": "function"
        },
        {
            "inputs": [
                {
                    "internalType": "address",
                    "name": "doc",
                    "type": "address"
                },
                {
                    "internalType": "uint256",
                    "name": "seqOfVR",
                    "type": "uint256"
                },
                {
                    "internalType": "uint256",
                    "name": "executor",
                    "type": "uint256"
                }
            ],
            "name": "proposeDoc",
            "outputs": [],
            "stateMutability": "nonpayable",
            "type": "function"
        },
        {
            "inputs": [
                {
                    "internalType": "address",
                    "name": "doc",
                    "type": "address"
                },
                {
                    "internalType": "uint256",
                    "name": "seqOfVR",
                    "type": "uint256"
                },
                {
                    "internalType": "uint256",
                    "name": "executor",
                    "type": "uint256"
                }
            ],
            "name": "proposeDocOfGM",
            "outputs": [],
            "stateMutability": "nonpayable",
            "type": "function"
        },
        {
            "inputs": [
                {
                    "internalType": "uint256",
                    "name": "seqOfMotion",
                    "type": "uint256"
                }
            ],
            "name": "proposeMotionOfGM",
            "outputs": [],
            "stateMutability": "nonpayable",
            "type": "function"
        },
        {
            "inputs": [
                {
                    "internalType": "uint256",
                    "name": "seqOfPos",
                    "type": "uint256"
                }
            ],
            "name": "proposeToRemoveDirector",
            "outputs": [],
            "stateMutability": "nonpayable",
            "type": "function"
        },
        {
            "inputs": [
                {
                    "internalType": "uint256",
                    "name": "seqOfPos",
                    "type": "uint256"
                }
            ],
            "name": "proposeToRemoveOfficer",
            "outputs": [],
            "stateMutability": "nonpayable",
            "type": "function"
        },
        {
            "inputs": [
                {
                    "internalType": "address",
                    "name": "ia",
                    "type": "address"
                },
                {
                    "internalType": "uint256",
                    "name": "seqOfDeal",
                    "type": "uint256"
                },
                {
                    "internalType": "bytes32",
                    "name": "hashLock",
                    "type": "bytes32"
                },
                {
                    "internalType": "uint256",
                    "name": "closingDate",
                    "type": "uint256"
                }
            ],
            "name": "pushToCoffer",
            "outputs": [],
            "stateMutability": "nonpayable",
            "type": "function"
        },
        {
            "inputs": [
                {
                    "internalType": "uint256",
                    "name": "seqOfPos",
                    "type": "uint256"
                }
            ],
            "name": "quitPosition",
            "outputs": [],
            "stateMutability": "nonpayable",
            "type": "function"
        },
        {
            "inputs": [
                {
                    "internalType": "uint256",
                    "name": "seqOfShare",
                    "type": "uint256"
                },
                {
                    "internalType": "uint256",
                    "name": "seqOfPld",
                    "type": "uint256"
                },
                {
                    "internalType": "uint256",
                    "name": "amt",
                    "type": "uint256"
                }
            ],
            "name": "refundDebt",
            "outputs": [],
            "stateMutability": "nonpayable",
            "type": "function"
        },
        {
            "inputs": [
                {
                    "internalType": "uint256",
                    "name": "title",
                    "type": "uint256"
                },
                {
                    "internalType": "address",
                    "name": "book",
                    "type": "address"
                }
            ],
            "name": "regBook",
            "outputs": [],
            "stateMutability": "nonpayable",
            "type": "function"
        },
        {
            "inputs": [
                {
                    "internalType": "uint256",
                    "name": "title",
                    "type": "uint256"
                },
                {
                    "internalType": "address",
                    "name": "keeper",
                    "type": "address"
                }
            ],
            "name": "regBookeeper",
            "outputs": [],
            "stateMutability": "nonpayable",
            "type": "function"
        },
        {
            "inputs": [],
            "name": "regNumHash",
            "outputs": [
                {
                    "internalType": "bytes32",
                    "name": "",
                    "type": "bytes32"
                }
            ],
            "stateMutability": "view",
            "type": "function"
        },
        {
            "inputs": [
                {
                    "internalType": "uint256",
                    "name": "seqOfShare",
                    "type": "uint256"
                },
                {
                    "internalType": "uint256",
                    "name": "seqOfPld",
                    "type": "uint256"
                },
                {
                    "internalType": "string",
                    "name": "hashKey",
                    "type": "string"
                }
            ],
            "name": "releasePledge",
            "outputs": [],
            "stateMutability": "nonpayable",
            "type": "function"
        },
        {
            "inputs": [
                {
                    "internalType": "uint256",
                    "name": "seqOfSwap",
                    "type": "uint256"
                },
                {
                    "internalType": "string",
                    "name": "hashKey",
                    "type": "string"
                }
            ],
            "name": "releaseSwap",
            "outputs": [],
            "stateMutability": "nonpayable",
            "type": "function"
        },
        {
            "inputs": [
                {
                    "internalType": "uint256",
                    "name": "seqOfOpt",
                    "type": "uint256"
                },
                {
                    "internalType": "uint256",
                    "name": "seqOfBrf",
                    "type": "uint256"
                },
                {
                    "internalType": "string",
                    "name": "hashKey",
                    "type": "string"
                }
            ],
            "name": "releaseSwapOrder",
            "outputs": [],
            "stateMutability": "nonpayable",
            "type": "function"
        },
        {
            "inputs": [
                {
                    "internalType": "address",
                    "name": "target",
                    "type": "address"
                }
            ],
            "name": "removeDirectKeeper",
            "outputs": [],
            "stateMutability": "nonpayable",
            "type": "function"
        },
        {
            "inputs": [
                {
                    "internalType": "uint256",
                    "name": "seqOfMotion",
                    "type": "uint256"
                },
                {
                    "internalType": "uint256",
                    "name": "seqOfPos",
                    "type": "uint256"
                },
                {
                    "internalType": "uint256",
                    "name": "director",
                    "type": "uint256"
                }
            ],
            "name": "removeDirector",
            "outputs": [],
            "stateMutability": "nonpayable",
            "type": "function"
        },
        {
            "inputs": [
                {
                    "internalType": "uint256",
                    "name": "seqOfMotion",
                    "type": "uint256"
                },
                {
                    "internalType": "uint256",
                    "name": "seqOfPos",
                    "type": "uint256"
                },
                {
                    "internalType": "uint256",
                    "name": "officer",
                    "type": "uint256"
                }
            ],
            "name": "removeOfficer",
            "outputs": [],
            "stateMutability": "nonpayable",
            "type": "function"
        },
        {
            "inputs": [
                {
                    "internalType": "bytes32",
                    "name": "role",
                    "type": "bytes32"
                }
            ],
            "name": "renounceRole",
            "outputs": [],
            "stateMutability": "nonpayable",
            "type": "function"
        },
        {
            "inputs": [
                {
                    "internalType": "uint256",
                    "name": "snOfLocker",
                    "type": "uint256"
                },
                {
                    "internalType": "string",
                    "name": "hashKey",
                    "type": "string"
                },
                {
                    "internalType": "uint256",
                    "name": "salt",
                    "type": "uint256"
                }
            ],
            "name": "requestPaidInCapital",
            "outputs": [],
            "stateMutability": "nonpayable",
            "type": "function"
        },
        {
            "inputs": [
                {
                    "internalType": "uint256",
                    "name": "seqOfMotion",
                    "type": "uint256"
                },
                {
                    "internalType": "uint256",
                    "name": "seqOfDeal",
                    "type": "uint256"
                },
                {
                    "internalType": "uint256",
                    "name": "seqOfTarget",
                    "type": "uint256"
                }
            ],
            "name": "requestToBuy",
            "outputs": [],
            "stateMutability": "nonpayable",
            "type": "function"
        },
        {
            "inputs": [
                {
                    "internalType": "address",
                    "name": "ia",
                    "type": "address"
                },
                {
                    "internalType": "uint256",
                    "name": "seqOfDeal",
                    "type": "uint256"
                },
                {
                    "internalType": "string",
                    "name": "hashKey",
                    "type": "string"
                }
            ],
            "name": "revokeDeal",
            "outputs": [],
            "stateMutability": "nonpayable",
            "type": "function"
        },
        {
            "inputs": [
                {
                    "internalType": "uint256",
                    "name": "seqOfShare",
                    "type": "uint256"
                },
                {
                    "internalType": "uint256",
                    "name": "seqOfPld",
                    "type": "uint256"
                }
            ],
            "name": "revokePledge",
            "outputs": [],
            "stateMutability": "nonpayable",
            "type": "function"
        },
        {
            "inputs": [
                {
                    "internalType": "bytes32",
                    "name": "role",
                    "type": "bytes32"
                },
                {
                    "internalType": "uint256",
                    "name": "acct",
                    "type": "uint256"
                }
            ],
            "name": "revokeRole",
            "outputs": [],
            "stateMutability": "nonpayable",
            "type": "function"
        },
        {
            "inputs": [
                {
                    "internalType": "uint256",
                    "name": "seqOfSwap",
                    "type": "uint256"
                }
            ],
            "name": "revokeSwap",
            "outputs": [],
            "stateMutability": "nonpayable",
            "type": "function"
        },
        {
            "inputs": [
                {
                    "internalType": "uint256",
                    "name": "seqOfOpt",
                    "type": "uint256"
                },
                {
                    "internalType": "uint256",
                    "name": "seqOfBrf",
                    "type": "uint256"
                }
            ],
            "name": "revokeSwapOrder",
            "outputs": [],
            "stateMutability": "nonpayable",
            "type": "function"
        },
        {
            "inputs": [
                {
                    "internalType": "bool",
                    "name": "onPar",
                    "type": "bool"
                }
            ],
            "name": "setAmtBase",
            "outputs": [],
            "stateMutability": "nonpayable",
            "type": "function"
        },
        {
            "inputs": [
                {
                    "internalType": "bytes32",
                    "name": "_regNumHash",
                    "type": "bytes32"
                },
                {
                    "internalType": "string",
                    "name": "_name",
                    "type": "string"
                },
                {
                    "internalType": "string",
                    "name": "_symbol",
                    "type": "string"
                }
            ],
            "name": "setCompInfo",
            "outputs": [],
            "stateMutability": "nonpayable",
            "type": "function"
        },
        {
            "inputs": [
                {
                    "internalType": "address",
                    "name": "keeper",
                    "type": "address"
                }
            ],
            "name": "setDirectKeeper",
            "outputs": [],
            "stateMutability": "nonpayable",
            "type": "function"
        },
        {
            "inputs": [
                {
                    "internalType": "uint256",
                    "name": "acct",
                    "type": "uint256"
                }
            ],
            "name": "setGeneralCounsel",
            "outputs": [],
            "stateMutability": "nonpayable",
            "type": "function"
        },
        {
            "inputs": [
                {
                    "internalType": "uint256",
                    "name": "max",
                    "type": "uint256"
                }
            ],
            "name": "setMaxQtyOfMembers",
            "outputs": [],
            "stateMutability": "nonpayable",
            "type": "function"
        },
        {
            "inputs": [
                {
                    "internalType": "uint256",
                    "name": "acct",
                    "type": "uint256"
                }
            ],
            "name": "setOwner",
            "outputs": [],
            "stateMutability": "nonpayable",
            "type": "function"
        },
        {
            "inputs": [
                {
                    "internalType": "uint256",
                    "name": "snOfLocker",
                    "type": "uint256"
                },
                {
                    "internalType": "uint256",
                    "name": "amount",
                    "type": "uint256"
                }
            ],
            "name": "setPayInAmt",
            "outputs": [],
            "stateMutability": "nonpayable",
            "type": "function"
        },
        {
            "inputs": [
                {
                    "internalType": "bytes32",
                    "name": "role",
                    "type": "bytes32"
                },
                {
                    "internalType": "uint256",
                    "name": "acct",
                    "type": "uint256"
                }
            ],
            "name": "setRoleAdmin",
            "outputs": [],
            "stateMutability": "nonpayable",
            "type": "function"
        },
        {
            "inputs": [
                {
                    "internalType": "bool",
                    "name": "onPar",
                    "type": "bool"
                }
            ],
            "name": "setVoteBase",
            "outputs": [],
            "stateMutability": "nonpayable",
            "type": "function"
        },
        {
            "inputs": [
                {
                    "internalType": "address",
                    "name": "ia",
                    "type": "address"
                },
                {
                    "internalType": "bytes32",
                    "name": "sigHash",
                    "type": "bytes32"
                }
            ],
            "name": "signIA",
            "outputs": [],
            "stateMutability": "nonpayable",
            "type": "function"
        },
        {
            "inputs": [
                {
                    "internalType": "address",
                    "name": "sha",
                    "type": "address"
                },
                {
                    "internalType": "bytes32",
                    "name": "sigHash",
                    "type": "bytes32"
                }
            ],
            "name": "signSHA",
            "outputs": [],
            "stateMutability": "nonpayable",
            "type": "function"
        },
        {
            "inputs": [],
            "name": "symbolOfCompany",
            "outputs": [
                {
                    "internalType": "string",
                    "name": "",
                    "type": "string"
                }
            ],
            "stateMutability": "view",
            "type": "function"
        },
        {
            "inputs": [
                {
                    "internalType": "address",
                    "name": "ia",
                    "type": "address"
                },
                {
                    "internalType": "uint256",
                    "name": "seqOfDeal",
                    "type": "uint256"
                }
            ],
            "name": "takeGiftShares",
            "outputs": [],
            "stateMutability": "nonpayable",
            "type": "function"
        },
        {
            "inputs": [
                {
                    "internalType": "uint256",
                    "name": "seqOfMotion",
                    "type": "uint256"
                },
                {
                    "internalType": "uint256",
                    "name": "seqOfPos",
                    "type": "uint256"
                }
            ],
            "name": "takePosition",
            "outputs": [],
            "stateMutability": "nonpayable",
            "type": "function"
        },
        {
            "inputs": [
                {
                    "internalType": "uint256",
                    "name": "seqOfMotion",
                    "type": "uint256"
                },
                {
                    "internalType": "uint256",
                    "name": "seqOfPos",
                    "type": "uint256"
                }
            ],
            "name": "takeSeat",
            "outputs": [],
            "stateMutability": "nonpayable",
            "type": "function"
        },
        {
            "inputs": [
                {
                    "internalType": "address",
                    "name": "ia",
                    "type": "address"
                },
                {
                    "internalType": "uint256",
                    "name": "seqOfDeal",
                    "type": "uint256"
                }
            ],
            "name": "terminateDeal",
            "outputs": [],
            "stateMutability": "nonpayable",
            "type": "function"
        },
        {
            "inputs": [
                {
                    "internalType": "uint256",
                    "name": "seqOfShare",
                    "type": "uint256"
                },
                {
                    "internalType": "uint256",
                    "name": "seqOfPld",
                    "type": "uint256"
                },
                {
                    "internalType": "uint256",
                    "name": "buyer",
                    "type": "uint256"
                },
                {
                    "internalType": "uint256",
                    "name": "amt",
                    "type": "uint256"
                }
            ],
            "name": "transferPledge",
            "outputs": [],
            "stateMutability": "nonpayable",
            "type": "function"
        },
        {
            "inputs": [
                {
                    "internalType": "uint256",
                    "name": "seqOfSwap",
                    "type": "uint256"
                },
                {
                    "internalType": "uint256",
                    "name": "to",
                    "type": "uint256"
                },
                {
                    "internalType": "uint256",
                    "name": "amt",
                    "type": "uint256"
                }
            ],
            "name": "transferSwap",
            "outputs": [],
            "stateMutability": "nonpayable",
            "type": "function"
        },
        {
            "inputs": [
                {
                    "internalType": "address",
                    "name": "ia",
                    "type": "address"
                },
                {
                    "internalType": "uint256",
                    "name": "seqOfDeal",
                    "type": "uint256"
                }
            ],
            "name": "transferTargetShare",
            "outputs": [],
            "stateMutability": "nonpayable",
            "type": "function"
        },
        {
            "inputs": [
                {
                    "internalType": "uint256",
                    "name": "seqOfOpt",
                    "type": "uint256"
                },
                {
                    "internalType": "uint256",
                    "name": "d1",
                    "type": "uint256"
                },
                {
                    "internalType": "uint256",
                    "name": "d2",
                    "type": "uint256"
                },
                {
                    "internalType": "uint256",
                    "name": "d3",
                    "type": "uint256"
                }
            ],
            "name": "updateOracle",
            "outputs": [],
            "stateMutability": "nonpayable",
            "type": "function"
        },
        {
            "inputs": [
                {
                    "internalType": "uint256",
                    "name": "seqOfShare",
                    "type": "uint256"
                },
                {
                    "internalType": "uint256",
                    "name": "line",
                    "type": "uint256"
                }
            ],
            "name": "updatePaidInDeadline",
            "outputs": [],
            "stateMutability": "nonpayable",
            "type": "function"
        },
        {
            "inputs": [
                {
                    "internalType": "uint256",
                    "name": "seqOfMotion",
                    "type": "uint256"
                }
            ],
            "name": "voteCounting",
            "outputs": [],
            "stateMutability": "nonpayable",
            "type": "function"
        },
        {
            "inputs": [
                {
                    "internalType": "uint256",
                    "name": "seqOfMotion",
                    "type": "uint256"
                }
            ],
            "name": "voteCountingOfGM",
            "outputs": [],
            "stateMutability": "nonpayable",
            "type": "function"
        },
        {
            "inputs": [
                {
                    "internalType": "uint256",
                    "name": "snOfLocker",
                    "type": "uint256"
                }
            ],
            "name": "withdrawPayInAmt",
            "outputs": [],
            "stateMutability": "nonpayable",
            "type": "function"
        }
    ],
    "bytecode": "608060405234801561001057600080fd5b50614ce1806100206000396000f3fe608060405234801561001057600080fd5b50600436106106aa5760003560e01c80638041494e1161036c578063bd6200cc116101de578063dc890da91161010f578063f1fe07af116100ad578063f8fb9e1d11610087578063f8fb9e1d14610ff9578063f9ee371b1461100c578063fa0be08514611023578063fd95c4c01461103657600080fd5b8063f1fe07af14610fc0578063f424672b14610fd3578063f584accb14610fe657600080fd5b8063ed211023116100e9578063ed21102314610f63578063efab005d14610f6b578063f01e100f14610f7e578063f045a76914610fb857600080fd5b8063dc890da914610f2a578063dfd3002114610f3d578063e9c733d214610f5057600080fd5b8063cd016f3c1161017c578063d867767111610156578063d867767114610ede578063da6a43d614610ef1578063dc09fd2914610f04578063dc730ca114610f1757600080fd5b8063cd016f3c14610ea5578063cd78c98a14610eb8578063d6c4985c14610ecb57600080fd5b8063c44a7130116101b8578063c44a713014610e43578063c52f628714610e6c578063cb38513314610e7f578063ccb35b9914610e9257600080fd5b8063bd6200cc14610de3578063bdc36f6214610e1d578063be29b07714610e3057600080fd5b8063959efc85116102b8578063aa22742b11610256578063b38dc81111610230578063b38dc81114610d48578063b3f05b9714610d82578063b613bb4c14610d96578063b73cb69914610dd057600080fd5b8063aa22742b14610ce8578063ab4e66b614610cfb578063acd2d05714610d0e57600080fd5b8063a61adc2811610292578063a61adc2814610cb2578063a690d94d14610cba578063a6f9388914610ccd578063a8ccff4b14610ce057600080fd5b8063959efc8514610c795780639e46e7d714610c8c578063a023707d14610c9f57600080fd5b80638bb9c5bf116103255780639262826d116102ff5780639262826d14610c0657806392c2c3d314610c40578063946088cd14610c5357806394e3833a14610c6657600080fd5b80638bb9c5bf14610bcd578063903cd50014610be0578063906149f114610bf357600080fd5b80638041494e14610b665780638489382114610b795780638506c43f14610b8c578063851aa5a014610b9f57806388ca46ed14610bb2578063893d20e814610bc557600080fd5b80635171ebd4116105205780636ba42aaa1161045157806375183b48116103ef57806377aab013116103c957806377aab01314610b1a5780637e063c5a14610b2d5780637e22e0ea14610b405780637e2b953014610b5357600080fd5b806375183b4814610ae157806376f2736f14610af457806377a9dfa014610b0757600080fd5b80636e93dcce1161042b5780636e93dcce14610a955780636f47c5e114610aa85780636fe4944314610abb5780637504e5a014610ace57600080fd5b80636ba42aaa14610a4c5780636be8496f14610a6f5780636e8d387314610a8257600080fd5b806361d65d55116104be57806367a456591161049857806367a45659146109d957806368271a82146109ec578063682ebf05146109ff5780636998d28d14610a3957600080fd5b806361d65d55146109a05780636555ff7a146109b35780636600f97a146109c657600080fd5b8063587e5b5e116104fa578063587e5b5e146109525780635a4f8f49146109675780635d7ad88f1461097a5780635eb3d3a41461098d57600080fd5b80635171ebd41461091957806352e1d4d51461092c578063569e10061461093f57600080fd5b8063298d645c116105fa5780633da9a60011610598578063467fb8f211610572578063467fb8f2146108cd578063498ec436146108e05780634a14beb1146108f3578063502353071461090657600080fd5b80633da9a60014610894578063452558b0146108a757806345a4bf78146108ba57600080fd5b8063331dbb22116105d4578063331dbb221461082157806333fb96ee146108345780633c8515921461086e5780633cb451441461088157600080fd5b8063298d645c146107e85780632c425acc146107fb5780633311ece61461080e57600080fd5b806318c678aa116106675780631f6b2609116106415780631f6b260914610761578063205969bd1461077457806320fbea4e14610787578063275943e9146107d557600080fd5b806318c678aa1461072857806319d61ad91461073b5780631b6ea9f91461074e57600080fd5b806301b38c6b146106af57806307f2990e146106c4578063103f6edd146106d757806313f2e8f8146106fa57806314d3cb851461070d578063159186c114610715575b600080fd5b6106c26106bd36600461405f565b611049565b005b6106c26106d2366004614253565b6110db565b6106df61116d565b60405164ffffffffff90911681526020015b60405180910390f35b6106c2610708366004614357565b6111f9565b6106c26112a4565b6106c261072336600461438c565b6113d9565b6106c26107363660046143c7565b61148c565b6106c26107493660046143f3565b611530565b6106c261075c3660046143f3565b6115ba565b6106c261076f36600461405f565b6115e0565b6106c2610782366004614415565b611611565b600660005260076020527f55c5b153ab560fcde54a63b18c7f53d75501706907cef8767fbded79ab9997c7546001600160a01b03165b6040516001600160a01b0390911681526020016106f1565b6106c26107e3366004614441565b611681565b6106c26107f636600461405f565b61171e565b6106c26108093660046143c7565b61174f565b6106c261081c36600461405f565b611781565b6106c261082f36600461405f565b61186e565b600860005260076020527f4b1bf46c9f1bd48ff8274d40bad76a6615cb6c59a637d451a3994194b2db86be546001600160a01b03166107bd565b6106c261087c366004614415565b61195b565b6106c261088f366004614415565b61198e565b6106c26108a236600461405f565b6119c1565b6106c26108b53660046143c7565b611a45565b6106c26108c8366004614253565b611b3a565b6106c26108db3660046144ad565b611b70565b6106c26108ee3660046143f3565b611bc2565b6106c261090136600461405f565b611cb6565b6106c2610914366004614506565b611f13565b6106c26109273660046143f3565b611f65565b6106c261093a366004614415565b611f8b565b6106c261094d36600461438c565b611fbe565b61095a611ff1565b6040516106f1919061458d565b6106c26109753660046145a0565b61207f565b6106c26109883660046145d2565b6120f8565b6106c261099b366004614415565b612230565b6106c26109ae366004614415565b612263565b6106c26109c136600461405f565b612296565b6106c26109d4366004614357565b6122c7565b6106c26109e7366004614441565b6122fa565b6106c26109fa366004614253565b612331565b600360005260076020527f3be6fd20d5acfde5b873b48692cd31f4d3c7e8ee8a813af4696af8859e5ca6c6546001600160a01b03166107bd565b6106c2610a473660046143f3565b612367565b610a5f610a5a3660046145d2565b6123d1565b60405190151581526020016106f1565b6106c2610a7d3660046145d2565b612422565b6106c2610a903660046143f3565b6124d4565b6106c2610aa3366004614415565b612506565b6106c2610ab63660046143f3565b612539565b6106c2610ac93660046145ef565b61256b565b6106c2610adc366004614415565b6125f3565b6106c2610aef36600461405f565b612626565b6106c2610b023660046145a0565b612657565b6106c2610b153660046143c7565b612759565b6106c2610b2836600461405f565b61278b565b610a5f610b3b3660046143f3565b6127bc565b6106c2610b4e3660046143f3565b612857565b6106c2610b613660046145d2565b612889565b6106c2610b7436600461405f565b6128f2565b6106c2610b87366004614357565b6129ab565b6106c2610b9a366004614357565b612a24565b6106c2610bad36600461405f565b612a57565b6106c2610bc0366004614357565b612b56565b6106df612b89565b6106c2610bdb36600461405f565b612bc4565b6106c2610bee366004614632565b612be9565b6106c2610c01366004614415565b612c39565b600260005260076020527fb7c774451310d1be4108bc180d1b52823cb0ee0274a6c0081bcaf94f115fb96d546001600160a01b03166107bd565b6106c2610c4e36600461405f565b612c6c565b6106c2610c6136600461405f565b612c9d565b6106c2610c74366004614415565b612d0f565b6106c2610c87366004614253565b612d42565b6106c2610c9a3660046143f3565b612d78565b6106c2610cad3660046145a0565b612e6c565b6107bd612ea0565b6106c2610cc836600461405f565b612f46565b6106c2610cdb36600461438c565b612f77565b61095a612ff8565b6106c2610cf636600461405f565b613005565b6106c2610d093660046144ad565b613036565b600160005260076020527fb39221ace053465ec3453ce2b36430bd138b997ecea25c1043da0c366812b828546001600160a01b03166107bd565b600560005260076020527fbcdda56b5d08466ec462cbbe0adfa57cb0a15fcc8940ef68f702f21b787bc935546001600160a01b03166107bd565b60028054600160f01b900460ff1614610a5f565b600460005260076020527fb805995a7ec585a251200611a61d179cfd7fb105e1ab17dc415a7336783786f7546001600160a01b03166107bd565b6106c2610dde3660046143f3565b613088565b600960005260076020527ff1f3e9c34634a546b3672c043f73844d83d55591bbe61b8e7e3a72bca1a812bf546001600160a01b03166107bd565b6106c2610e2b366004614687565b6130ba565b6106c2610e3e36600461405f565b6131ba565b6107bd610e5136600461405f565b6000908152600860205260409020546001600160a01b031690565b6106c2610e7a3660046143f3565b6131ec565b6106c2610e8d3660046143f3565b61321e565b6106c2610ea03660046146a4565b613250565b6106c2610eb3366004614415565b613364565b6106c2610ec6366004614415565b613397565b6106c2610ed9366004614506565b613492565b6106c2610eec3660046146d4565b6134c5565b6106c2610eff366004614687565b61360a565b6106c2610f123660046143f3565b61370a565b6106c2610f25366004614415565b61373c565b6106c2610f38366004614737565b61376f565b6106c2610f4b3660046143f3565b613851565b6106c2610f5e3660046143f3565b613883565b6107bd6138b5565b6106c2610f7936600461478a565b613917565b600760008190526020527fb7c49cceb9f85950584035457a41ebbd8cf93b9b612733ad25aa9731ac43aad6546001600160a01b03166107bd565b6106c2613969565b6106c2610fce3660046146a4565b613bad565b6106c2610fe13660046143f3565b613cc1565b6106c2610ff43660046147da565b613cf3565b6106c261100736600461405f565b613daf565b61101560045481565b6040519081526020016106f1565b6106c26110313660046143c7565b613de0565b6106c26110443660046143c7565b613e50565b600a6000526008602052600080516020614c0c833981519152546001600160a01b031663209ddb8d8261107a613e7e565b6040516001600160e01b031960e085901b168152600481019290925264ffffffffff1660248201526044015b600060405180830381600087803b1580156110c057600080fd5b505af11580156110d4573d6000803e3d6000fd5b5050505050565b60036000526008602052600080516020614bac833981519152546001600160a01b031663020c814d878787878787611111613e7e565b6040518863ffffffff1660e01b815260040161113397969594939291906148b3565b600060405180830381600087803b15801561114d57600080fd5b505af1158015611161573d6000803e3d6000fd5b50505050505050505050565b60405163e8c0cc1d60e01b81526002600482015260009073__$364aad554dc80380f414546becdd2c1584$__9063e8c0cc1d906024015b60206040518083038186803b1580156111bc57600080fd5b505af41580156111d0573d6000803e3d6000fd5b505050506040513d601f19601f820116820180604052508101906111f49190614956565b905090565b60036000526008602052600080516020614bac833981519152546001600160a01b031663d0e27e1084848461122c613e7e565b6040516001600160e01b031960e087901b1681526001600160a01b0390941660048501526024840192909252604483015264ffffffffff1660648201526084015b600060405180830381600087803b15801561128757600080fd5b505af115801561129b573d6000803e3d6000fd5b50505050505050565b604051633b11adbf60e21b81526002600482015233602482015273__$364aad554dc80380f414546becdd2c1584$__9063ec46b6fc9060440160206040518083038186803b1580156112f557600080fd5b505af4158015611309573d6000803e3d6000fd5b505050506040513d601f19601f8201168201806040525081019061132d919061497d565b6113525760405162461bcd60e51b81526004016113499061499a565b60405180910390fd5b6008602052600080516020614bac833981519152546001600052600080516020614bec83398151915254604051630c06e30760e11b81526001600160a01b03918216600482015291169063180dc60e90602401600060405180830381600087803b1580156113bf57600080fd5b505af11580156113d3573d6000803e3d6000fd5b50505050565b60096000526008602052600080516020614c8c833981519152546001600160a01b031663f51147e385858561140c613e7e565b6040516001600160e01b031960e087901b1681526001600160a01b0390941660048501526024840192909252604483015264ffffffffff1660648201526084810184905260a4015b600060405180830381600087803b15801561146e57600080fd5b505af1158015611482573d6000803e3d6000fd5b5050505050505050565b60016000526008602052600080516020614bec833981519152546001600160a01b031663755514d583836114be613e7e565b6040516001600160e01b031960e086901b1681526001600160a01b039093166004840152602483019190915264ffffffffff1660448201526064015b600060405180830381600087803b15801561151457600080fd5b505af1158015611528573d6000803e3d6000fd5b505050505050565b73__$364aad554dc80380f414546becdd2c1584$__6382daafaa60028484611556613e7e565b6040516001600160e01b031960e087901b16815260048101949094526024840192909252604483015264ffffffffff16606482015260840160006040518083038186803b1580156115a657600080fd5b505af4158015611528573d6000803e3d6000fd5b73__$364aad554dc80380f414546becdd2c1584$__636320d75e60028484611556613e7e565b60046000526008602052600080516020614c6c833981519152546001600160a01b0316637c67d7478261107a613e7e565b60066000526008602052600080516020614b8c833981519152546001600160a01b0316633067033d848484611644613e7e565b6040516001600160e01b031960e087901b16815260048101949094526024840192909252604483015264ffffffffff16606482015260840161126d565b600960009081526008602052600080516020614c8c833981519152546001600160a01b03169063651c7b0890889088908888886116bc613e7e565b6040516001600160e01b031960e08a901b1681526001600160a01b039097166004880152602487019590955292151560448601526064850191909152608484015260a483015264ffffffffff1660c482015260e4810184905261010401611133565b600a6000526008602052600080516020614c0c833981519152546001600160a01b031663ccbc79e88261107a613e7e565b60046000526008602052600080516020614c6c833981519152546001600160a01b0316637e2cd24a83836114be613e7e565b604051633b11adbf60e21b81526002600482015233602482015273__$364aad554dc80380f414546becdd2c1584$__9063ec46b6fc9060440160206040518083038186803b1580156117d257600080fd5b505af41580156117e6573d6000803e3d6000fd5b505050506040513d601f19601f8201168201806040525081019061180a919061497d565b6118265760405162461bcd60e51b81526004016113499061499a565b60076000526008602052600080516020614c2c83398151915254604051631988f67360e11b8152600481018390526001600160a01b0390911690633311ece6906024016110a6565b604051633b11adbf60e21b81526002600482015233602482015273__$364aad554dc80380f414546becdd2c1584$__9063ec46b6fc9060440160206040518083038186803b1580156118bf57600080fd5b505af41580156118d3573d6000803e3d6000fd5b505050506040513d601f19601f820116820180604052508101906118f7919061497d565b6119135760405162461bcd60e51b81526004016113499061499a565b60036000526008602052600080516020614bac8339815191525460405163198edd9160e11b8152600481018390526001600160a01b039091169063331dbb22906024016110a6565b60066000526008602052600080516020614b8c833981519152546001600160a01b031663417dea25848484611644613e7e565b600a6000526008602052600080516020614c0c833981519152546001600160a01b0316636a291ad6848484611644613e7e565b73__$364aad554dc80380f414546becdd2c1584$__63c51b295f6002836119e6613e7e565b6040516001600160e01b031960e086901b1681526004810193909352602483019190915264ffffffffff16604482015260640160006040518083038186803b158015611a3157600080fd5b505af41580156110d4573d6000803e3d6000fd5b604051633b11adbf60e21b81526002600482015233602482015273__$364aad554dc80380f414546becdd2c1584$__9063ec46b6fc9060440160206040518083038186803b158015611a9657600080fd5b505af4158015611aaa573d6000803e3d6000fd5b505050506040513d601f19601f82011682018060405250810190611ace919061497d565b611aea5760405162461bcd60e51b81526004016113499061499a565b60016000526008602052600080516020614bec83398151915254604051630452558b60e41b81526001600160a01b038481166004830152602482018490529091169063452558b0906044016114fa565b60036000526008602052600080516020614bac833981519152546001600160a01b031663c24cb859878787878787611111613e7e565b60016000526008602052600080516020614bec833981519152546001600160a01b031663d270be0e8484611ba2613e7e565b856040518563ffffffff1660e01b815260040161126d94939291906149e0565b604051633b11adbf60e21b81526002600482015233602482015273__$364aad554dc80380f414546becdd2c1584$__9063ec46b6fc9060440160206040518083038186803b158015611c1357600080fd5b505af4158015611c27573d6000803e3d6000fd5b505050506040513d601f19601f82011682018060405250810190611c4b919061497d565b611c675760405162461bcd60e51b81526004016113499061499a565b60076000526008602052600080516020614c2c833981519152546040516324c7621b60e11b815260048101849052602481018390526001600160a01b039091169063498ec436906044016114fa565b604051633b11adbf60e21b81526002600482015233602482015273__$364aad554dc80380f414546becdd2c1584$__9063ec46b6fc9060440160206040518083038186803b158015611d0757600080fd5b505af4158015611d1b573d6000803e3d6000fd5b505050506040513d601f19601f82011682018060405250810190611d3f919061497d565b80611de4575073__$364aad554dc80380f414546becdd2c1584$__63fe2710866002611d69613e7e565b6040516001600160e01b031960e085901b168152600481019290925264ffffffffff16602482015260440160206040518083038186803b158015611dac57600080fd5b505af4158015611dc0573d6000803e3d6000fd5b505050506040513d601f19601f82011682018060405250810190611de4919061497d565b611e4f5760405162461bcd60e51b815260206004820152603660248201527f41432e6f776e65724f72446972656374426f6f6b65657065723a206e6569746860448201527532b91037bbb732b9103737b9103137b7b5b2b2b832b960511b6064820152608401611349565b73__$364aad554dc80380f414546becdd2c1584$__639b4510de600283611e74613e7e565b6040516001600160e01b031960e086901b1681526004810193909352602483019190915264ffffffffff16604482015260640160006040518083038186803b158015611ebf57600080fd5b505af4158015611ed3573d6000803e3d6000fd5b505050507ff2735f34b69be1e6342dea95f9162f84d0db925fab655ca9f1f312ac8cbfc99d81604051611f0891815260200190565b60405180910390a150565b60066000526008602052600080516020614b8c833981519152546001600160a01b0316634c76218b848484611f46613e7e565b6040518563ffffffff1660e01b815260040161126d9493929190614a1e565b73__$364aad554dc80380f414546becdd2c1584$__63ee98b31360028484611556613e7e565b600a6000526008602052600080516020614c0c833981519152546001600160a01b0316631c3a1ce3848484611644613e7e565b60096000526008602052600080516020614c8c833981519152546001600160a01b031663325508d585858561140c613e7e565b60058054611ffe90614a55565b80601f016020809104026020016040519081016040528092919081815260200182805461202a90614a55565b80156120775780601f1061204c57610100808354040283529160200191612077565b820191906000526020600020905b81548152906001019060200180831161205a57829003601f168201915b505050505081565b60056000526008602052600080516020614c4c833981519152546001600160a01b031663b647c729858585856120b3613e7e565b6040516001600160e01b031960e088901b168152600481019590955260248501939093526044840191909152606483015264ffffffffff16608482015260a401611454565b604051633b11adbf60e21b81526002600482015233602482015273__$364aad554dc80380f414546becdd2c1584$__9063ec46b6fc9060440160206040518083038186803b15801561214957600080fd5b505af415801561215d573d6000803e3d6000fd5b505050506040513d601f19601f82011682018060405250810190612181919061497d565b61219d5760405162461bcd60e51b81526004016113499061499a565b604051636be8496f60e01b81523360048201526001600160a01b03821690636be8496f90602401600060405180830381600087803b1580156121de57600080fd5b505af11580156121f2573d6000803e3d6000fd5b50506040516001600160a01b03841681527f64dd6e84044f0067086012335dcfab3188db6615b5cc7debf18c9a621ebd5d9192506020019050611f08565b60026000526008602052600080516020614bcc833981519152546001600160a01b031663a8780799848484611644613e7e565b60066000526008602052600080516020614b8c833981519152546001600160a01b031663ca6de9ac848484611644613e7e565b60056000526008602052600080516020614c4c833981519152546001600160a01b0316632371494b8261107a613e7e565b60026000526008602052600080516020614bcc833981519152546001600160a01b031663cd43b16584848461122c613e7e565b60096000526008602052600080516020614c8c833981519152546001600160a01b031663651c7b08878760018888886116bc613e7e565b60026000526008602052600080516020614bcc833981519152546001600160a01b031663bbfd607d878787878787611111613e7e565b60026000526008602052600080516020614bcc833981519152546001600160a01b0316633e2032ab8383612399613e7e565b6040516001600160e01b031960e086901b1681526004810193909352602483019190915264ffffffffff1660448201526064016114fa565b6000600a5b8015612419576000818152600860205260409020546001600160a01b03848116911614156124075750600192915050565b8061241181614a90565b9150506123d6565b50600092915050565b604051630f07232560e01b8152600260048201526001600160a01b038216602482015233604482015273__$364aad554dc80380f414546becdd2c1584$__90630f0723259060640160006040518083038186803b15801561248257600080fd5b505af4158015612496573d6000803e3d6000fd5b50506040516001600160a01b03841681527fe435cbeab64e4eae6497b9d8289704bd709d624a80704ef3ca9af777534bc6ec92506020019050611f08565b60026000526008602052600080516020614bcc833981519152546001600160a01b0316636a0cb9648383612399613e7e565b60036000526008602052600080516020614bac833981519152546001600160a01b031663a8459ac0848484611644613e7e565b60026000526008602052600080516020614bcc833981519152546001600160a01b031663fe1bdff28383612399613e7e565b60066000526008602052600080516020614b8c833981519152546001600160a01b0316636380d14a8787878787876125a1613e7e565b6040516001600160e01b031960e08a901b1681526004810197909752602487019590955260448601939093526064850191909152608484015260a483015264ffffffffff1660c482015260e401611133565b60026000526008602052600080516020614bcc833981519152546001600160a01b0316631119501e848484611644613e7e565b60036000526008602052600080516020614bac833981519152546001600160a01b0316631153cd2e8261107a613e7e565b604051633b11adbf60e21b81526002600482015233602482015273__$364aad554dc80380f414546becdd2c1584$__9063ec46b6fc9060440160206040518083038186803b1580156126a857600080fd5b505af41580156126bc573d6000803e3d6000fd5b505050506040513d601f19601f820116820180604052508101906126e0919061497d565b6126fc5760405162461bcd60e51b81526004016113499061499a565b60056000526008602052600080516020614c4c833981519152546040516376f2736f60e01b8152600481018690526024810185905260448101849052606481018390526001600160a01b03909116906376f2736f90608401611454565b60096000526008602052600080516020614c8c833981519152546001600160a01b0316635867741883836114be613e7e565b60036000526008602052600080516020614bac833981519152546001600160a01b031663a60988078261107a613e7e565b604051632a3be56b60e21b815260026004820152602481018390526044810182905260009073__$364aad554dc80380f414546becdd2c1584$__9063a8ef95ac9060640160206040518083038186803b15801561281857600080fd5b505af415801561282c573d6000803e3d6000fd5b505050506040513d601f19601f82011682018060405250810190612850919061497d565b9392505050565b600a6000526008602052600080516020614c0c833981519152546001600160a01b03166307dd4c018383612399613e7e565b60046000526008602052600080516020614c6c833981519152546001600160a01b031663e396e78f826128ba613e7e565b6040516001600160e01b031960e085901b1681526001600160a01b03909216600483015264ffffffffff1660248201526044016110a6565b73__$364aad554dc80380f414546becdd2c1584$__639b48160c600283612917613e7e565b6040516001600160e01b031960e086901b1681526004810193909352602483019190915264ffffffffff16604482015260640160006040518083038186803b15801561296257600080fd5b505af4158015612976573d6000803e3d6000fd5b505050507f8b6f40f36b4ae8cc5f55e895036457c43da4ab1f80f58c46f5ff0d72a650033b81604051611f0891815260200190565b60096000526008602052600080516020614c8c833981519152546001600160a01b031663f61bf28484846129dd613e7e565b6040516001600160e01b031960e086901b1681526001600160a01b039093166004840152602483019190915264ffffffffff1660448201526064810184905260840161126d565b60016000526008602052600080516020614bec833981519152546001600160a01b0316636e6014a484848461122c613e7e565b604051633b11adbf60e21b81526002600482015233602482015273__$364aad554dc80380f414546becdd2c1584$__9063ec46b6fc9060440160206040518083038186803b158015612aa857600080fd5b505af4158015612abc573d6000803e3d6000fd5b505050506040513d601f19601f82011682018060405250810190612ae0919061497d565b612afc5760405162461bcd60e51b81526004016113499061499a565b600860008190526020527fe4c2e8be66af8dd2d277000f4f830a10546f8b14e45cd850b875c98ba0f0d2cd54604051630428d52d60e51b8152600481018390526001600160a01b039091169063851aa5a0906024016110a6565b60046000526008602052600080516020614c6c833981519152546001600160a01b0316634ad0da1c84848461122c613e7e565b60405163987ad15360e01b81526002600482015260009073__$364aad554dc80380f414546becdd2c1584$__9063987ad153906024016111a4565b73__$364aad554dc80380f414546becdd2c1584$__63cc0d511b6002836119e6613e7e565b600a6000526008602052600080516020614c0c833981519152546001600160a01b031663ad2049e28383612c1b613e7e565b6040518463ffffffff1660e01b81526004016114fa93929190614ab5565b60036000526008602052600080516020614bac833981519152546001600160a01b0316639d7d867b848484611644613e7e565b60026000526008602052600080516020614bcc833981519152546001600160a01b0316631ad1ea448261107a613e7e565b60016000526008602052600080516020614bec833981519152546001600160a01b031663f4a6975c8233612ccf613e7e565b6040516001600160e01b031960e086901b16815260048101939093526001600160a01b03909116602483015264ffffffffff1660448201526064016110a6565b600a6000526008602052600080516020614c0c833981519152546001600160a01b031663456d5574848484611644613e7e565b60026000526008602052600080516020614bcc833981519152546001600160a01b0316635c2753bf878787878787611111613e7e565b604051633b11adbf60e21b81526002600482015233602482015273__$364aad554dc80380f414546becdd2c1584$__9063ec46b6fc9060440160206040518083038186803b158015612dc957600080fd5b505af4158015612ddd573d6000803e3d6000fd5b505050506040513d601f19601f82011682018060405250810190612e01919061497d565b612e1d5760405162461bcd60e51b81526004016113499061499a565b60076000526008602052600080516020614c2c83398151915254604051639e46e7d760e01b815260048101849052602481018390526001600160a01b0390911690639e46e7d7906044016114fa565b60066000526008602052600080516020614b8c833981519152546001600160a01b0316635551fc48858585856120b3613e7e565b60046000818152600760209081527fb805995a7ec585a251200611a61d179cfd7fb105e1ab17dc415a7336783786f75460408051630bd7cecf60e21b8152905193946001600160a01b0390921693632f5f3b3c93828401939092829003018186803b158015612f0e57600080fd5b505afa158015612f22573d6000803e3d6000fd5b505050506040513d601f19601f820116820180604052508101906111f49190614ae5565b60026000526008602052600080516020614bcc833981519152546001600160a01b0316636765a9c28261107a613e7e565b60016000526008602052600080516020614bec833981519152546001600160a01b03166392a3820285858585612fab613e7e565b6040516001600160e01b031960e088901b1681526001600160a01b03909516600486015260248501939093526044840191909152606483015264ffffffffff16608482015260a401611454565b60068054611ffe90614a55565b60036000526008602052600080516020614bac833981519152546001600160a01b031663f1e9e7f78261107a613e7e565b60016000526008602052600080516020614bec833981519152546001600160a01b031663deeb633f848484613069613e7e565b6040518563ffffffff1660e01b815260040161126d9493929190614b02565b60056000526008602052600080516020614c4c833981519152546001600160a01b031663ab3594178383612399613e7e565b604051633b11adbf60e21b81526002600482015233602482015273__$364aad554dc80380f414546becdd2c1584$__9063ec46b6fc9060440160206040518083038186803b15801561310b57600080fd5b505af415801561311f573d6000803e3d6000fd5b505050506040513d601f19601f82011682018060405250810190613143919061497d565b61315f5760405162461bcd60e51b81526004016113499061499a565b600860008190526020527fe4c2e8be66af8dd2d277000f4f830a10546f8b14e45cd850b875c98ba0f0d2cd54604051635ee1b7b160e11b815282151560048201526001600160a01b039091169063bdc36f62906024016110a6565b60046000526008602052600080516020614c6c833981519152546001600160a01b031663262bc9258233612ccf613e7e565b60036000526008602052600080516020614bac833981519152546001600160a01b0316633b9f1b818383612399613e7e565b60036000526008602052600080516020614bac833981519152546001600160a01b0316633c44bcb68383612399613e7e565b604051633b11adbf60e21b81526002600482015233602482015273__$364aad554dc80380f414546becdd2c1584$__9063ec46b6fc9060440160206040518083038186803b1580156132a157600080fd5b505af41580156132b5573d6000803e3d6000fd5b505050506040513d601f19601f820116820180604052508101906132d9919061497d565b6132f55760405162461bcd60e51b81526004016113499061499a565b604080518381526001600160a01b03831660208201527f838fc13938ceb62aa7444f7131937844c8e2211f1ee9e1a6f306e00653cf724a910160405180910390a160009182526008602052604090912080546001600160a01b0319166001600160a01b03909216919091179055565b60056000526008602052600080516020614c4c833981519152546001600160a01b0316635d0389cd848484611644613e7e565b604051633b11adbf60e21b81526002600482015233602482015273__$364aad554dc80380f414546becdd2c1584$__9063ec46b6fc9060440160206040518083038186803b1580156133e857600080fd5b505af41580156133fc573d6000803e3d6000fd5b505050506040513d601f19601f82011682018060405250810190613420919061497d565b61343c5760405162461bcd60e51b81526004016113499061499a565b60076000526008602052600080516020614c2c833981519152546040516366bc64c560e11b81526004810185905260248101849052604481018390526001600160a01b039091169063cd78c98a9060640161126d565b60056000526008602052600080516020614c4c833981519152546001600160a01b031663866f989d848484611f46613e7e565b73__$364aad554dc80380f414546becdd2c1584$__63fe27108660026134e9613e7e565b6040516001600160e01b031960e085901b168152600481019290925264ffffffffff16602482015260440160206040518083038186803b15801561352c57600080fd5b505af4158015613540573d6000803e3d6000fd5b505050506040513d601f19601f82011682018060405250810190613564919061497d565b6135a35760405162461bcd60e51b815260206004820152601060248201526f20a19737bb9d103737ba1037bbb732b960811b6044820152606401611349565b7ff5dc62077fedfd6f264e19807cd9ba008d6cd1c756e4a565e6663e6b610918138383836040516135d693929190614b29565b60405180910390a1600483905581516135f6906005906020850190613fc6565b5080516113d3906006906020840190613fc6565b604051633b11adbf60e21b81526002600482015233602482015273__$364aad554dc80380f414546becdd2c1584$__9063ec46b6fc9060440160206040518083038186803b15801561365b57600080fd5b505af415801561366f573d6000803e3d6000fd5b505050506040513d601f19601f82011682018060405250810190613693919061497d565b6136af5760405162461bcd60e51b81526004016113499061499a565b600860008190526020527fe4c2e8be66af8dd2d277000f4f830a10546f8b14e45cd850b875c98ba0f0d2cd54604051636d3521eb60e11b815282151560048201526001600160a01b039091169063da6a43d6906024016110a6565b60036000526008602052600080516020614bac833981519152546001600160a01b0316637451ce038383612399613e7e565b600a6000526008602052600080516020614c0c833981519152546001600160a01b031663d64d278b848484611644613e7e565b604051636cdd0edf60e11b815260026004820152602481018590526001600160a01b038416604482015273__$364aad554dc80380f414546becdd2c1584$__9063d9ba1dbe9060640160006040518083038186803b1580156137d057600080fd5b505af41580156137e4573d6000803e3d6000fd5b505050506137f182613ed8565b6137fa81613f4b565b604080518581526001600160a01b038581166020830152848116828401528316606082015290517f3abb2418c66fe32ba9c883030a75ce583971d9af9192b9b74e44e67c5e6c8c1f9181900360800190a150505050565b60056000526008602052600080516020614c4c833981519152546001600160a01b031663084179bd8383612399613e7e565b60066000526008602052600080516020614b8c833981519152546001600160a01b0316634c70a0938383612399613e7e565b604051633c3e56c160e11b81526002600482015260009073__$364aad554dc80380f414546becdd2c1584$__9063787cad829060240160206040518083038186803b15801561390357600080fd5b505af4158015612f22573d6000803e3d6000fd5b60076000526008602052600080516020614c2c833981519152546001600160a01b03166357f204d184848461394a613e7e565b6040518563ffffffff1660e01b815260040161126d9493929190614b54565b600254600160f01b900460ff166001146139c55760405162461bcd60e51b815260206004820152601760248201527f41432e4c433a20446f632069732066696e616c697a65640000000000000000006044820152606401611349565b73__$364aad554dc80380f414546becdd2c1584$__63c51b295f6002684174746f726e65797360b81b6139f6613e7e565b6040516001600160e01b031960e086901b1681526004810193909352602483019190915264ffffffffff16604482015260640160006040518083038186803b158015613a4157600080fd5b505af4158015613a55573d6000803e3d6000fd5b50505050600273__$364aad554dc80380f414546becdd2c1584$__639b4510de90916000613a81613e7e565b6040516001600160e01b031960e086901b1681526004810193909352602483019190915264ffffffffff16604482015260640160006040518083038186803b158015613acc57600080fd5b505af4158015613ae0573d6000803e3d6000fd5b50505050600273__$364aad554dc80380f414546becdd2c1584$__639b48160c90916000613b0c613e7e565b6040516001600160e01b031960e086901b1681526004810193909352602483019190915264ffffffffff16604482015260640160006040518083038186803b158015613b5757600080fd5b505af4158015613b6b573d6000803e3d6000fd5b50506002805460ff60f01b1916600160f11b17905550506040517f35012b512309c322acf68632cd6cb702ff0e1d776fbe9394e38ffc13b434fe7590600090a1565b604051633b11adbf60e21b81526002600482015233602482015273__$364aad554dc80380f414546becdd2c1584$__9063ec46b6fc9060440160206040518083038186803b158015613bfe57600080fd5b505af4158015613c12573d6000803e3d6000fd5b505050506040513d601f19601f82011682018060405250810190613c36919061497d565b613c525760405162461bcd60e51b81526004016113499061499a565b604080518381526001600160a01b03831660208201527f7cb004fec701c042453550d71d8c69e859c2cd1dad277445da5580b38f65114b910160405180910390a160009182526007602052604090912080546001600160a01b0319166001600160a01b03909216919091179055565b60066000526008602052600080516020614b8c833981519152546001600160a01b03166372b5e7118383612399613e7e565b60096000526008602052600080516020614c8c833981519152546001600160a01b031663c65511d886868686613d27613e7e565b6040516001600160e01b031960e088901b168152600481019590955260248501939093526001600160a01b039091166044840152606483015264ffffffffff16608482015260a4810184905260c401600060405180830381600087803b158015613d9057600080fd5b505af1158015613da4573d6000803e3d6000fd5b505050505050505050565b60026000526008602052600080516020614bcc833981519152546001600160a01b031663f894759e8261107a613e7e565b60016000526008602052600080516020614bec833981519152546001600160a01b0316637a6ae86583613e11613e7e565b6040516001600160e01b031960e085901b1681526001600160a01b03909216600483015264ffffffffff166024820152604481018490526064016114fa565b60016000526008602052600080516020614bec833981519152546001600160a01b031663b951cf1d83836114be5b60008054604051636ae3b70d60e11b81523360048201526001600160a01b039091169063d5c76e1a90602401602060405180830381600087803b158015613ec457600080fd5b505af11580156111d0573d6000803e3d6000fd5b6000546001600160a01b031615613f295760405162461bcd60e51b815260206004820152601560248201527430b63932b0b23c9039b2ba103932b3a1b2b73a32b960591b6044820152606401611349565b600080546001600160a01b0319166001600160a01b0392909216919091179055565b6001546001600160a01b031615613fa45760405162461bcd60e51b815260206004820152601960248201527f616c7265616479207365742067656e6572616c4b6565706572000000000000006044820152606401611349565b600180546001600160a01b0319166001600160a01b0392909216919091179055565b828054613fd290614a55565b90600052602060002090601f016020900481019282613ff4576000855561403a565b82601f1061400d57805160ff191683800117855561403a565b8280016001018555821561403a579182015b8281111561403a57825182559160200191906001019061401f565b5061404692915061404a565b5090565b5b80821115614046576000815560010161404b565b60006020828403121561407157600080fd5b5035919050565b634e487b7160e01b600052604160045260246000fd5b604051601f8201601f1916810167ffffffffffffffff811182821017156140b7576140b7614078565b604052919050565b600067ffffffffffffffff8211156140d9576140d9614078565b5060051b60200190565b6001600160a01b03811681146140f857600080fd5b50565b600082601f83011261410c57600080fd5b8135602061412161411c836140bf565b61408e565b82815260059290921b8401810191818101908684111561414057600080fd5b8286015b8481101561415b5780358352918301918301614144565b509695505050505050565b600067ffffffffffffffff83111561418057614180614078565b614193601f8401601f191660200161408e565b90508281528383830111156141a757600080fd5b828260208301376000602084830101529392505050565b600082601f8301126141cf57600080fd5b813560206141df61411c836140bf565b82815260059290921b840181019181810190868411156141fe57600080fd5b8286015b8481101561415b57803567ffffffffffffffff8111156142225760008081fd5b8701603f810189136142345760008081fd5b614245898683013560408401614166565b845250918301918301614202565b60008060008060008060c0878903121561426c57600080fd5b8635955060208088013567ffffffffffffffff8082111561428c57600080fd5b818a0191508a601f8301126142a057600080fd5b81356142ae61411c826140bf565b81815260059190911b8301840190848101908d8311156142cd57600080fd5b938501935b828510156142f45784356142e5816140e3565b825293850193908501906142d2565b9950505060408a013592508083111561430c57600080fd5b6143188b848c016140fb565b965060608a013592508083111561432e57600080fd5b505061433c89828a016141be565b9350506080870135915060a087013590509295509295509295565b60008060006060848603121561436c57600080fd5b8335614377816140e3565b95602085013595506040909401359392505050565b600080600080608085870312156143a257600080fd5b84356143ad816140e3565b966020860135965060408601359560600135945092505050565b600080604083850312156143da57600080fd5b82356143e5816140e3565b946020939093013593505050565b6000806040838503121561440657600080fd5b50508035926020909101359150565b60008060006060848603121561442a57600080fd5b505081359360208301359350604090920135919050565b60008060008060008060c0878903121561445a57600080fd5b8635614465816140e3565b9860208801359850604088013597606081013597506080810135965060a00135945092505050565b600082601f83011261449e57600080fd5b61285083833560208501614166565b6000806000606084860312156144c257600080fd5b83356144cd816140e3565b925060208401359150604084013567ffffffffffffffff8111156144f057600080fd5b6144fc8682870161448d565b9150509250925092565b60008060006060848603121561451b57600080fd5b8335925060208401359150604084013567ffffffffffffffff8111156144f057600080fd5b6000815180845260005b818110156145665760208185018101518683018201520161454a565b81811115614578576000602083870101525b50601f01601f19169290920160200192915050565b6020815260006128506020830184614540565b600080600080608085870312156145b657600080fd5b5050823594602084013594506040840135936060013592509050565b6000602082840312156145e457600080fd5b8135612850816140e3565b60008060008060008060c0878903121561460857600080fd5b505084359660208601359650604086013595606081013595506080810135945060a0013592509050565b6000806040838503121561464557600080fd5b82359150602083013567ffffffffffffffff81111561466357600080fd5b61466f8582860161448d565b9150509250929050565b80151581146140f857600080fd5b60006020828403121561469957600080fd5b813561285081614679565b600080604083850312156146b757600080fd5b8235915060208301356146c9816140e3565b809150509250929050565b6000806000606084860312156146e957600080fd5b83359250602084013567ffffffffffffffff8082111561470857600080fd5b6147148783880161448d565b9350604086013591508082111561472a57600080fd5b506144fc8682870161448d565b6000806000806080858703121561474d57600080fd5b84359350602085013561475f816140e3565b9250604085013561476f816140e3565b9150606085013561477f816140e3565b939692955090935050565b60008060006060848603121561479f57600080fd5b83359250602084013567ffffffffffffffff8111156147bd57600080fd5b6147c98682870161448d565b925050604084013590509250925092565b600080600080600060a086880312156147f257600080fd5b8535945060208601359350604086013561480b816140e3565b94979396509394606081013594506080013592915050565b600081518084526020808501945080840160005b8381101561485357815187529582019590820190600101614837565b509495945050505050565b600081518084526020808501808196508360051b8101915082860160005b858110156148a6578284038952614894848351614540565b9885019893509084019060010161487c565b5091979650505050505050565b600060e08201898352602060e081850152818a5180845261010086019150828c01935060005b818110156148fe5784516001600160a01b0316835293830193918301916001016148d9565b50508481036040860152614912818b614823565b925050508281036060840152614928818861485e565b9150508460808301528360a083015261494a60c083018464ffffffffff169052565b98975050505050505050565b60006020828403121561496857600080fd5b815164ffffffffff8116811461285057600080fd5b60006020828403121561498f57600080fd5b815161285081614679565b60208082526026908201527f41432e6f6e6c794469726563744b65657065723a206e6f74206469726563742060408201526535b2b2b832b960d11b606082015260800190565b60018060a01b038516815283602082015264ffffffffff83166040820152608060608201526000614a146080830184614540565b9695505050505050565b848152836020820152608060408201526000614a3d6080830185614540565b905064ffffffffff8316606083015295945050505050565b600181811c90821680614a6957607f821691505b60208210811415614a8a57634e487b7160e01b600052602260045260246000fd5b50919050565b600081614aad57634e487b7160e01b600052601160045260246000fd5b506000190190565b838152606060208201526000614ace6060830185614540565b905064ffffffffff83166040830152949350505050565b600060208284031215614af757600080fd5b8151612850816140e3565b60018060a01b0385168152836020820152608060408201526000614a3d6080830185614540565b838152606060208201526000614b426060830185614540565b8281036040840152614a148185614540565b848152608060208201526000614b6d6080830186614540565b905083604083015264ffffffffff831660608301529594505050505056fe13acf3fc7bed94759963f076d5d3443d88732026bffc8253bdf4a6e65f21ecc5625b35f5e76f098dd7c3a05b10e2e5e78a4a01228d60c3b143426cdf36d264556add646517a5b0f6793cd5891b7937d28a5b2981a5d88ebc7cd776088fea9041ad67d757c34507f157cacfa2e3153e9f260a2244f30428821be7be64587ac55f586689db7536874b78a6eac0f58556a56a106985743f7c16a699b27bb02f88bd24cd397636bedc6cf9b490d0edd57c769c19b367fb7d5c2344ae1ddc7d21c14491238f30f286c9a1c6e901c4eda3b214c381c846e3dbe48df95c21488e8e1fdb9321edea6e3be4df59a344b401fab4f888b556fda1f954244cff9204bad624b882c9e868e45873bb5a4f47c09e14a12f6a6314e13aabd611e4374762bb4e8b36a2646970667358221220db8f55c4396af30be21393015e74f92c95e55d7b9610c63e52d6d1c7a4d2279b64736f6c63430008080033",
    "sourcePath": "/Users/kaptain/github.com/hardhat/comboox/contracts/keepers/GeneralKeeper.sol",
    "compiler": {
        "name": "solc",
        "version": "0.8.8+commit.dddeac2f"
    },
    "functionHashes": {
        "abandonRole(bytes32)": "3da9a600",
        "acceptAlongDeal(address,uint256,uint256,bytes32)": "159186c1",
        "acceptFirstRefusal(address,uint256,bytes32)": "84893821",
        "acceptSHA(bytes32)": "1f6b2609",
        "castVote(uint256,uint256,bytes32)": "7504e5a0",
        "castVoteOfGM(uint256,uint256,bytes32)": "6e93dcce",
        "circulateIA(address,bytes32,bytes32)": "8506c43f",
        "circulateSHA(address,bytes32,bytes32)": "88ca46ed",
        "closeDeal(address,uint256,string)": "ab4e66b6",
        "createBoardSeal()": "14d3cb85",
        "createCorpSeal(uint256)": "331dbb22",
        "createIA(uint256)": "946088cd",
        "createPledge(uint256,uint256,uint256,uint256,uint256,uint256)": "6fe49443",
        "createSHA(uint256)": "be29b077",
        "createSwap(uint256,uint256,uint256)": "52e1d4d5",
        "crystalizeSwap(uint256,uint256,uint256)": "dc730ca1",
        "decreaseCapital(uint256,uint256,uint256)": "cd78c98a",
        "effectiveSHA(address)": "7e2b9530",
        "entrustDelegate(uint256,uint256)": "6f47c5e1",
        "entrustDelegateOfMember(uint256,uint256)": "c52f6287",
        "execAction(uint256,address[],uint256[],bytes[],bytes32,uint256)": "959efc85",
        "execActionOfGM(uint256,address[],uint256[],bytes[],bytes32,uint256)": "07f2990e",
        "execAntiDilution(address,uint256,uint256,bytes32)": "569e1006",
        "execDragAlong(address,uint256,uint256,uint256,uint256,bytes32)": "67a45659",
        "execFirstRefusal(uint256,uint256,address,uint256,bytes32)": "f584accb",
        "execOption(uint256)": "6555ff7a",
        "execPledge(uint256,uint256)": "e9c733d2",
        "execSwap(uint256)": "298d645c",
        "execSwapOrder(uint256,uint256)": "dfd30021",
        "execTagAlong(address,uint256,uint256,uint256,uint256,bytes32)": "275943e9",
        "extendPledge(uint256,uint256,uint256)": "3c851592",
        "finalized()": "b3f05b97",
        "getBOA()": "acd2d057",
        "getBOD()": "9262826d",
        "getBOG()": "682ebf05",
        "getBOH()": "b613bb4c",
        "getBOO()": "b38dc811",
        "getBOP()": "20fbea4e",
        "getBOS()": "f01e100f",
        "getBookeeper()": "ed211023",
        "getGeneralCounsel()": "103f6edd",
        "getKeeper(uint256)": "c44a7130",
        "getOwner()": "893d20e8",
        "getROM()": "33fb96ee",
        "getROS()": "bd6200cc",
        "getSHA()": "a61adc28",
        "grantRole(bytes32,uint256)": "1b6ea9f9",
        "hasRole(bytes32,uint256)": "7e063c5a",
        "init(uint256,address,address,address)": "dc890da9",
        "isKeeper(address)": "6ba42aaa",
        "issueNewShare(address,uint256)": "452558b0",
        "lockContents()": "f045a769",
        "lockPledge(uint256,uint256,bytes32)": "205969bd",
        "lockSwap(uint256,bytes32)": "7e22e0ea",
        "lockSwapOrder(uint256,uint256,bytes32)": "cd016f3c",
        "nameOfCompany()": "587e5b5e",
        "nominateDirector(uint256,uint256)": "cb385133",
        "nominateOfficer(uint256,uint256)": "6e8d3873",
        "placeSwapOrder(uint256,uint256,uint256,uint256)": "5a4f8f49",
        "proposeAction(uint256,address[],uint256[],bytes[],bytes32,uint256)": "68271a82",
        "proposeActionOfGM(uint256,address[],uint256[],bytes[],bytes32,uint256)": "45a4bf78",
        "proposeDoc(address,uint256,uint256)": "6600f97a",
        "proposeDocOfGM(address,uint256,uint256)": "13f2e8f8",
        "proposeMotionOfGM(uint256)": "75183b48",
        "proposeToRemoveDirector(uint256)": "77aab013",
        "proposeToRemoveOfficer(uint256)": "a690d94d",
        "pushToCoffer(address,uint256,bytes32,uint256)": "a6f93889",
        "quitPosition(uint256)": "92c2c3d3",
        "refundDebt(uint256,uint256,uint256)": "61d65d55",
        "regBook(uint256,address)": "f1fe07af",
        "regBookeeper(uint256,address)": "ccb35b99",
        "regNumHash()": "f9ee371b",
        "releasePledge(uint256,uint256,string)": "50235307",
        "releaseSwap(uint256,string)": "903cd500",
        "releaseSwapOrder(uint256,uint256,string)": "d6c4985c",
        "removeDirectKeeper(address)": "5d7ad88f",
        "removeDirector(uint256,uint256,uint256)": "906149f1",
        "removeOfficer(uint256,uint256,uint256)": "5eb3d3a4",
        "renounceRole(bytes32)": "8bb9c5bf",
        "requestPaidInCapital(uint256,string,uint256)": "efab005d",
        "requestToBuy(uint256,uint256,uint256)": "94e3833a",
        "revokeDeal(address,uint256,string)": "467fb8f2",
        "revokePledge(uint256,uint256)": "f424672b",
        "revokeRole(bytes32,uint256)": "19d61ad9",
        "revokeSwap(uint256)": "01b38c6b",
        "revokeSwapOrder(uint256,uint256)": "b73cb699",
        "setAmtBase(bool)": "da6a43d6",
        "setCompInfo(bytes32,string,string)": "d8677671",
        "setDirectKeeper(address)": "6be8496f",
        "setGeneralCounsel(uint256)": "4a14beb1",
        "setMaxQtyOfMembers(uint256)": "851aa5a0",
        "setOwner(uint256)": "8041494e",
        "setPayInAmt(uint256,uint256)": "9e46e7d7",
        "setRoleAdmin(bytes32,uint256)": "5171ebd4",
        "setVoteBase(bool)": "bdc36f62",
        "signIA(address,bytes32)": "fa0be085",
        "signSHA(address,bytes32)": "2c425acc",
        "symbolOfCompany()": "a8ccff4b",
        "takeGiftShares(address,uint256)": "77a9dfa0",
        "takePosition(uint256,uint256)": "6998d28d",
        "takeSeat(uint256,uint256)": "dc09fd29",
        "terminateDeal(address,uint256)": "fd95c4c0",
        "transferPledge(uint256,uint256,uint256,uint256)": "a023707d",
        "transferSwap(uint256,uint256,uint256)": "3cb45144",
        "transferTargetShare(address,uint256)": "18c678aa",
        "updateOracle(uint256,uint256,uint256,uint256)": "76f2736f",
        "updatePaidInDeadline(uint256,uint256)": "498ec436",
        "voteCounting(uint256)": "f8fb9e1d",
        "voteCountingOfGM(uint256)": "aa22742b",
        "withdrawPayInAmt(uint256)": "3311ece6"
    },
    "gasEstimates": {
        "creation": {
            "codeDepositCost": "3936200",
            "executionCost": "4488",
            "totalCost": "3940688"
        },
        "external": {
            "abandonRole(bytes32)": "infinite",
            "acceptAlongDeal(address,uint256,uint256,bytes32)": "infinite",
            "acceptFirstRefusal(address,uint256,bytes32)": "infinite",
            "acceptSHA(bytes32)": "infinite",
            "castVote(uint256,uint256,bytes32)": "infinite",
            "castVoteOfGM(uint256,uint256,bytes32)": "infinite",
            "circulateIA(address,bytes32,bytes32)": "infinite",
            "circulateSHA(address,bytes32,bytes32)": "infinite",
            "closeDeal(address,uint256,string)": "infinite",
            "createBoardSeal()": "infinite",
            "createCorpSeal(uint256)": "infinite",
            "createIA(uint256)": "infinite",
            "createPledge(uint256,uint256,uint256,uint256,uint256,uint256)": "infinite",
            "createSHA(uint256)": "infinite",
            "createSwap(uint256,uint256,uint256)": "infinite",
            "crystalizeSwap(uint256,uint256,uint256)": "infinite",
            "decreaseCapital(uint256,uint256,uint256)": "infinite",
            "effectiveSHA(address)": "infinite",
            "entrustDelegate(uint256,uint256)": "infinite",
            "entrustDelegateOfMember(uint256,uint256)": "infinite",
            "execAction(uint256,address[],uint256[],bytes[],bytes32,uint256)": "infinite",
            "execActionOfGM(uint256,address[],uint256[],bytes[],bytes32,uint256)": "infinite",
            "execAntiDilution(address,uint256,uint256,bytes32)": "infinite",
            "execDragAlong(address,uint256,uint256,uint256,uint256,bytes32)": "infinite",
            "execFirstRefusal(uint256,uint256,address,uint256,bytes32)": "infinite",
            "execOption(uint256)": "infinite",
            "execPledge(uint256,uint256)": "infinite",
            "execSwap(uint256)": "infinite",
            "execSwapOrder(uint256,uint256)": "infinite",
            "execTagAlong(address,uint256,uint256,uint256,uint256,bytes32)": "infinite",
            "extendPledge(uint256,uint256,uint256)": "infinite",
            "finalized()": "2438",
            "getBOA()": "2483",
            "getBOD()": "2439",
            "getBOG()": "2483",
            "getBOH()": "2482",
            "getBOO()": "2438",
            "getBOP()": "2473",
            "getBOS()": "2485",
            "getBookeeper()": "infinite",
            "getGeneralCounsel()": "infinite",
            "getKeeper(uint256)": "2567",
            "getOwner()": "infinite",
            "getROM()": "2462",
            "getROS()": "2440",
            "getSHA()": "infinite",
            "grantRole(bytes32,uint256)": "infinite",
            "hasRole(bytes32,uint256)": "infinite",
            "init(uint256,address,address,address)": "infinite",
            "isKeeper(address)": "infinite",
            "issueNewShare(address,uint256)": "infinite",
            "lockContents()": "infinite",
            "lockPledge(uint256,uint256,bytes32)": "infinite",
            "lockSwap(uint256,bytes32)": "infinite",
            "lockSwapOrder(uint256,uint256,bytes32)": "infinite",
            "nameOfCompany()": "infinite",
            "nominateDirector(uint256,uint256)": "infinite",
            "nominateOfficer(uint256,uint256)": "infinite",
            "placeSwapOrder(uint256,uint256,uint256,uint256)": "infinite",
            "proposeAction(uint256,address[],uint256[],bytes[],bytes32,uint256)": "infinite",
            "proposeActionOfGM(uint256,address[],uint256[],bytes[],bytes32,uint256)": "infinite",
            "proposeDoc(address,uint256,uint256)": "infinite",
            "proposeDocOfGM(address,uint256,uint256)": "infinite",
            "proposeMotionOfGM(uint256)": "infinite",
            "proposeToRemoveDirector(uint256)": "infinite",
            "proposeToRemoveOfficer(uint256)": "infinite",
            "pushToCoffer(address,uint256,bytes32,uint256)": "infinite",
            "quitPosition(uint256)": "infinite",
            "refundDebt(uint256,uint256,uint256)": "infinite",
            "regBook(uint256,address)": "infinite",
            "regBookeeper(uint256,address)": "infinite",
            "regNumHash()": "2405",
            "releasePledge(uint256,uint256,string)": "infinite",
            "releaseSwap(uint256,string)": "infinite",
            "releaseSwapOrder(uint256,uint256,string)": "infinite",
            "removeDirectKeeper(address)": "infinite",
            "removeDirector(uint256,uint256,uint256)": "infinite",
            "removeOfficer(uint256,uint256,uint256)": "infinite",
            "renounceRole(bytes32)": "infinite",
            "requestPaidInCapital(uint256,string,uint256)": "infinite",
            "requestToBuy(uint256,uint256,uint256)": "infinite",
            "revokeDeal(address,uint256,string)": "infinite",
            "revokePledge(uint256,uint256)": "infinite",
            "revokeRole(bytes32,uint256)": "infinite",
            "revokeSwap(uint256)": "infinite",
            "revokeSwapOrder(uint256,uint256)": "infinite",
            "setAmtBase(bool)": "infinite",
            "setCompInfo(bytes32,string,string)": "infinite",
            "setDirectKeeper(address)": "infinite",
            "setGeneralCounsel(uint256)": "infinite",
            "setMaxQtyOfMembers(uint256)": "infinite",
            "setOwner(uint256)": "infinite",
            "setPayInAmt(uint256,uint256)": "infinite",
            "setRoleAdmin(bytes32,uint256)": "infinite",
            "setVoteBase(bool)": "infinite",
            "signIA(address,bytes32)": "infinite",
            "signSHA(address,bytes32)": "infinite",
            "symbolOfCompany()": "infinite",
            "takeGiftShares(address,uint256)": "infinite",
            "takePosition(uint256,uint256)": "infinite",
            "takeSeat(uint256,uint256)": "infinite",
            "terminateDeal(address,uint256)": "infinite",
            "transferPledge(uint256,uint256,uint256,uint256)": "infinite",
            "transferSwap(uint256,uint256,uint256)": "infinite",
            "transferTargetShare(address,uint256)": "infinite",
            "updateOracle(uint256,uint256,uint256,uint256)": "infinite",
            "updatePaidInDeadline(uint256,uint256)": "infinite",
            "voteCounting(uint256)": "infinite",
            "voteCountingOfGM(uint256)": "infinite",
            "withdrawPayInAmt(uint256)": "infinite"
        }
    }
}