{
    "contractName": "GeneralKeeper",
    "abi": [
        {
            "anonymous": false,
            "inputs": [
                {
                    "indexed": false,
                    "internalType": "uint256",
                    "name": "owner",
                    "type": "uint256"
                },
                {
                    "indexed": false,
                    "internalType": "address",
                    "name": "directKeeper",
                    "type": "address"
                },
                {
                    "indexed": false,
                    "internalType": "address",
                    "name": "regCenter",
                    "type": "address"
                },
                {
                    "indexed": false,
                    "internalType": "address",
                    "name": "generalKeeper",
                    "type": "address"
                }
            ],
            "name": "Init",
            "type": "event"
        },
        {
            "anonymous": false,
            "inputs": [],
            "name": "LockContents",
            "type": "event"
        },
        {
            "anonymous": false,
            "inputs": [
                {
                    "indexed": false,
                    "internalType": "uint256",
                    "name": "title",
                    "type": "uint256"
                },
                {
                    "indexed": false,
                    "internalType": "address",
                    "name": "book",
                    "type": "address"
                }
            ],
            "name": "SetBook",
            "type": "event"
        },
        {
            "anonymous": false,
            "inputs": [
                {
                    "indexed": false,
                    "internalType": "uint256",
                    "name": "title",
                    "type": "uint256"
                },
                {
                    "indexed": false,
                    "internalType": "address",
                    "name": "book",
                    "type": "address"
                }
            ],
            "name": "SetBookRuting",
            "type": "event"
        },
        {
            "anonymous": false,
            "inputs": [
                {
                    "indexed": false,
                    "internalType": "uint256",
                    "name": "title",
                    "type": "uint256"
                },
                {
                    "indexed": false,
                    "internalType": "address",
                    "name": "keeper",
                    "type": "address"
                }
            ],
            "name": "SetBookeeper",
            "type": "event"
        },
        {
            "anonymous": false,
            "inputs": [
                {
                    "indexed": false,
                    "internalType": "address",
                    "name": "keeper",
                    "type": "address"
                }
            ],
            "name": "SetDirectKeeper",
            "type": "event"
        },
        {
            "anonymous": false,
            "inputs": [
                {
                    "indexed": false,
                    "internalType": "uint256",
                    "name": "acct",
                    "type": "uint256"
                }
            ],
            "name": "SetGeneralCounsel",
            "type": "event"
        },
        {
            "anonymous": false,
            "inputs": [
                {
                    "indexed": false,
                    "internalType": "address",
                    "name": "gk",
                    "type": "address"
                }
            ],
            "name": "SetGeneralKeeper",
            "type": "event"
        },
        {
            "anonymous": false,
            "inputs": [
                {
                    "indexed": false,
                    "internalType": "uint256",
                    "name": "acct",
                    "type": "uint256"
                }
            ],
            "name": "SetOwner",
            "type": "event"
        },
        {
            "anonymous": false,
            "inputs": [
                {
                    "indexed": false,
                    "internalType": "address",
                    "name": "rc",
                    "type": "address"
                }
            ],
            "name": "SetRegCenter",
            "type": "event"
        },
        {
            "anonymous": false,
            "inputs": [
                {
                    "indexed": false,
                    "internalType": "bytes32",
                    "name": "numHash",
                    "type": "bytes32"
                }
            ],
            "name": "SetRegNumberHash",
            "type": "event"
        },
        {
            "inputs": [
                {
                    "internalType": "bytes32",
                    "name": "role",
                    "type": "bytes32"
                }
            ],
            "name": "abandonRole",
            "outputs": [],
            "stateMutability": "nonpayable",
            "type": "function"
        },
        {
            "inputs": [
                {
                    "internalType": "address",
                    "name": "ia",
                    "type": "address"
                },
                {
                    "internalType": "uint256",
                    "name": "seqOfDeal",
                    "type": "uint256"
                },
                {
                    "internalType": "uint256",
                    "name": "seqOfShare",
                    "type": "uint256"
                },
                {
                    "internalType": "bytes32",
                    "name": "sigHash",
                    "type": "bytes32"
                }
            ],
            "name": "acceptAlongDeal",
            "outputs": [],
            "stateMutability": "nonpayable",
            "type": "function"
        },
        {
            "inputs": [
                {
                    "internalType": "address",
                    "name": "ia",
                    "type": "address"
                },
                {
                    "internalType": "uint256",
                    "name": "seqOfDeal",
                    "type": "uint256"
                },
                {
                    "internalType": "bytes32",
                    "name": "sigHash",
                    "type": "bytes32"
                }
            ],
            "name": "acceptFirstRefusal",
            "outputs": [],
            "stateMutability": "nonpayable",
            "type": "function"
        },
        {
            "inputs": [
                {
                    "internalType": "bytes32",
                    "name": "sigHash",
                    "type": "bytes32"
                }
            ],
            "name": "acceptSHA",
            "outputs": [],
            "stateMutability": "nonpayable",
            "type": "function"
        },
        {
            "inputs": [
                {
                    "internalType": "uint256",
                    "name": "seqOfBSR",
                    "type": "uint256"
                },
                {
                    "internalType": "uint256",
                    "name": "seqOfTitle",
                    "type": "uint256"
                },
                {
                    "internalType": "uint256",
                    "name": "candidate",
                    "type": "uint256"
                }
            ],
            "name": "appointOfficer",
            "outputs": [],
            "stateMutability": "nonpayable",
            "type": "function"
        },
        {
            "inputs": [
                {
                    "internalType": "uint256",
                    "name": "actionId",
                    "type": "uint256"
                }
            ],
            "name": "boardVoteCounting",
            "outputs": [],
            "stateMutability": "nonpayable",
            "type": "function"
        },
        {
            "inputs": [
                {
                    "internalType": "uint256",
                    "name": "actionId",
                    "type": "uint256"
                },
                {
                    "internalType": "uint8",
                    "name": "attitude",
                    "type": "uint8"
                },
                {
                    "internalType": "bytes32",
                    "name": "sigHash",
                    "type": "bytes32"
                }
            ],
            "name": "castBoardVote",
            "outputs": [],
            "stateMutability": "nonpayable",
            "type": "function"
        },
        {
            "inputs": [
                {
                    "internalType": "uint256",
                    "name": "motionId",
                    "type": "uint256"
                },
                {
                    "internalType": "uint8",
                    "name": "attitude",
                    "type": "uint8"
                },
                {
                    "internalType": "bytes32",
                    "name": "sigHash",
                    "type": "bytes32"
                }
            ],
            "name": "castGMVote",
            "outputs": [],
            "stateMutability": "nonpayable",
            "type": "function"
        },
        {
            "inputs": [
                {
                    "internalType": "address",
                    "name": "body",
                    "type": "address"
                },
                {
                    "internalType": "bytes32",
                    "name": "docUrl",
                    "type": "bytes32"
                },
                {
                    "internalType": "bytes32",
                    "name": "docHash",
                    "type": "bytes32"
                }
            ],
            "name": "circulateIA",
            "outputs": [],
            "stateMutability": "nonpayable",
            "type": "function"
        },
        {
            "inputs": [
                {
                    "internalType": "address",
                    "name": "body",
                    "type": "address"
                },
                {
                    "internalType": "uint256",
                    "name": "seqOfVR",
                    "type": "uint256"
                },
                {
                    "internalType": "bytes32",
                    "name": "docUrl",
                    "type": "bytes32"
                },
                {
                    "internalType": "bytes32",
                    "name": "docHash",
                    "type": "bytes32"
                }
            ],
            "name": "circulateSHA",
            "outputs": [],
            "stateMutability": "nonpayable",
            "type": "function"
        },
        {
            "inputs": [
                {
                    "internalType": "address",
                    "name": "ia",
                    "type": "address"
                },
                {
                    "internalType": "uint256",
                    "name": "seqOfDeal",
                    "type": "uint256"
                },
                {
                    "internalType": "string",
                    "name": "hashKey",
                    "type": "string"
                }
            ],
            "name": "closeDeal",
            "outputs": [],
            "stateMutability": "nonpayable",
            "type": "function"
        },
        {
            "inputs": [],
            "name": "createBoardSeal",
            "outputs": [],
            "stateMutability": "nonpayable",
            "type": "function"
        },
        {
            "inputs": [],
            "name": "createCorpSeal",
            "outputs": [],
            "stateMutability": "nonpayable",
            "type": "function"
        },
        {
            "inputs": [
                {
                    "internalType": "uint16",
                    "name": "version",
                    "type": "uint16"
                }
            ],
            "name": "createIA",
            "outputs": [],
            "stateMutability": "nonpayable",
            "type": "function"
        },
        {
            "inputs": [
                {
                    "internalType": "uint256",
                    "name": "sn",
                    "type": "uint256"
                },
                {
                    "internalType": "uint40",
                    "name": "creditor",
                    "type": "uint40"
                },
                {
                    "internalType": "uint16",
                    "name": "guaranteeDays",
                    "type": "uint16"
                },
                {
                    "internalType": "uint64",
                    "name": "paid",
                    "type": "uint64"
                },
                {
                    "internalType": "uint64",
                    "name": "par",
                    "type": "uint64"
                },
                {
                    "internalType": "uint64",
                    "name": "guaranteedAmt",
                    "type": "uint64"
                }
            ],
            "name": "createPledge",
            "outputs": [],
            "stateMutability": "nonpayable",
            "type": "function"
        },
        {
            "inputs": [
                {
                    "internalType": "uint16",
                    "name": "version",
                    "type": "uint16"
                }
            ],
            "name": "createSHA",
            "outputs": [],
            "stateMutability": "nonpayable",
            "type": "function"
        },
        {
            "inputs": [
                {
                    "internalType": "uint256",
                    "name": "seqOfShare",
                    "type": "uint256"
                },
                {
                    "internalType": "uint64",
                    "name": "parValue",
                    "type": "uint64"
                },
                {
                    "internalType": "uint64",
                    "name": "paidPar",
                    "type": "uint64"
                }
            ],
            "name": "decreaseCapital",
            "outputs": [],
            "stateMutability": "nonpayable",
            "type": "function"
        },
        {
            "inputs": [
                {
                    "internalType": "address",
                    "name": "body",
                    "type": "address"
                }
            ],
            "name": "effectiveSHA",
            "outputs": [],
            "stateMutability": "nonpayable",
            "type": "function"
        },
        {
            "inputs": [
                {
                    "internalType": "uint256",
                    "name": "delegate",
                    "type": "uint256"
                },
                {
                    "internalType": "uint256",
                    "name": "actionId",
                    "type": "uint256"
                }
            ],
            "name": "entrustDirectorDelegate",
            "outputs": [],
            "stateMutability": "nonpayable",
            "type": "function"
        },
        {
            "inputs": [
                {
                    "internalType": "uint256",
                    "name": "delegate",
                    "type": "uint256"
                },
                {
                    "internalType": "uint256",
                    "name": "motionId",
                    "type": "uint256"
                }
            ],
            "name": "entrustMemberDelegate",
            "outputs": [],
            "stateMutability": "nonpayable",
            "type": "function"
        },
        {
            "inputs": [
                {
                    "internalType": "uint256",
                    "name": "typeOfAction",
                    "type": "uint256"
                },
                {
                    "internalType": "address[]",
                    "name": "targets",
                    "type": "address[]"
                },
                {
                    "internalType": "uint256[]",
                    "name": "values",
                    "type": "uint256[]"
                },
                {
                    "internalType": "bytes[]",
                    "name": "params",
                    "type": "bytes[]"
                },
                {
                    "internalType": "bytes32",
                    "name": "desHash",
                    "type": "bytes32"
                }
            ],
            "name": "execAction",
            "outputs": [
                {
                    "internalType": "uint256",
                    "name": "",
                    "type": "uint256"
                }
            ],
            "stateMutability": "nonpayable",
            "type": "function"
        },
        {
            "inputs": [
                {
                    "internalType": "address",
                    "name": "ia",
                    "type": "address"
                },
                {
                    "internalType": "uint256",
                    "name": "seqOfDeal",
                    "type": "uint256"
                },
                {
                    "internalType": "uint256",
                    "name": "seqOfShare",
                    "type": "uint256"
                },
                {
                    "internalType": "bytes32",
                    "name": "sigHash",
                    "type": "bytes32"
                }
            ],
            "name": "execAntiDilution",
            "outputs": [],
            "stateMutability": "nonpayable",
            "type": "function"
        },
        {
            "inputs": [
                {
                    "internalType": "uint8",
                    "name": "typeOfAction",
                    "type": "uint8"
                },
                {
                    "internalType": "address[]",
                    "name": "targets",
                    "type": "address[]"
                },
                {
                    "internalType": "uint256[]",
                    "name": "values",
                    "type": "uint256[]"
                },
                {
                    "internalType": "bytes[]",
                    "name": "params",
                    "type": "bytes[]"
                },
                {
                    "internalType": "bytes32",
                    "name": "desHash",
                    "type": "bytes32"
                }
            ],
            "name": "execBoardAction",
            "outputs": [],
            "stateMutability": "nonpayable",
            "type": "function"
        },
        {
            "inputs": [
                {
                    "internalType": "address",
                    "name": "ia",
                    "type": "address"
                },
                {
                    "internalType": "uint256",
                    "name": "seqOfDeal",
                    "type": "uint256"
                },
                {
                    "internalType": "uint256",
                    "name": "seqOfShare",
                    "type": "uint256"
                },
                {
                    "internalType": "uint64",
                    "name": "paid",
                    "type": "uint64"
                },
                {
                    "internalType": "uint64",
                    "name": "par",
                    "type": "uint64"
                },
                {
                    "internalType": "bytes32",
                    "name": "sigHash",
                    "type": "bytes32"
                }
            ],
            "name": "execDragAlong",
            "outputs": [],
            "stateMutability": "nonpayable",
            "type": "function"
        },
        {
            "inputs": [
                {
                    "internalType": "uint256",
                    "name": "seqOfRule",
                    "type": "uint256"
                },
                {
                    "internalType": "uint256",
                    "name": "seqOfRightholder",
                    "type": "uint256"
                },
                {
                    "internalType": "address",
                    "name": "ia",
                    "type": "address"
                },
                {
                    "internalType": "uint256",
                    "name": "seqOfDeal",
                    "type": "uint256"
                },
                {
                    "internalType": "bytes32",
                    "name": "sigHash",
                    "type": "bytes32"
                }
            ],
            "name": "execFirstRefusal",
            "outputs": [],
            "stateMutability": "nonpayable",
            "type": "function"
        },
        {
            "inputs": [
                {
                    "internalType": "uint256",
                    "name": "seqOfOpt",
                    "type": "uint256"
                }
            ],
            "name": "execOption",
            "outputs": [],
            "stateMutability": "nonpayable",
            "type": "function"
        },
        {
            "inputs": [
                {
                    "internalType": "uint256",
                    "name": "seqOfShare",
                    "type": "uint256"
                },
                {
                    "internalType": "uint256",
                    "name": "seqOfPld",
                    "type": "uint256"
                }
            ],
            "name": "execPledge",
            "outputs": [],
            "stateMutability": "nonpayable",
            "type": "function"
        },
        {
            "inputs": [
                {
                    "internalType": "uint256",
                    "name": "seqOfOpt",
                    "type": "uint256"
                },
                {
                    "internalType": "uint256",
                    "name": "seqOfBrf",
                    "type": "uint256"
                }
            ],
            "name": "execSwapOrder",
            "outputs": [],
            "stateMutability": "nonpayable",
            "type": "function"
        },
        {
            "inputs": [
                {
                    "internalType": "address",
                    "name": "ia",
                    "type": "address"
                },
                {
                    "internalType": "uint256",
                    "name": "seqOfDeal",
                    "type": "uint256"
                },
                {
                    "internalType": "uint256",
                    "name": "seqOfShare",
                    "type": "uint256"
                },
                {
                    "internalType": "uint64",
                    "name": "paid",
                    "type": "uint64"
                },
                {
                    "internalType": "uint64",
                    "name": "par",
                    "type": "uint64"
                },
                {
                    "internalType": "bytes32",
                    "name": "sigHash",
                    "type": "bytes32"
                }
            ],
            "name": "execTagAlong",
            "outputs": [],
            "stateMutability": "nonpayable",
            "type": "function"
        },
        {
            "inputs": [
                {
                    "internalType": "uint256",
                    "name": "seqOfShare",
                    "type": "uint256"
                },
                {
                    "internalType": "uint256",
                    "name": "seqOfPld",
                    "type": "uint256"
                },
                {
                    "internalType": "uint16",
                    "name": "extDays",
                    "type": "uint16"
                }
            ],
            "name": "extendPledge",
            "outputs": [],
            "stateMutability": "nonpayable",
            "type": "function"
        },
        {
            "inputs": [],
            "name": "finalized",
            "outputs": [
                {
                    "internalType": "bool",
                    "name": "",
                    "type": "bool"
                }
            ],
            "stateMutability": "view",
            "type": "function"
        },
        {
            "inputs": [
                {
                    "internalType": "uint256",
                    "name": "title",
                    "type": "uint256"
                }
            ],
            "name": "getBook",
            "outputs": [
                {
                    "internalType": "address",
                    "name": "",
                    "type": "address"
                }
            ],
            "stateMutability": "view",
            "type": "function"
        },
        {
            "inputs": [],
            "name": "getBookeeper",
            "outputs": [
                {
                    "internalType": "address",
                    "name": "",
                    "type": "address"
                }
            ],
            "stateMutability": "view",
            "type": "function"
        },
        {
            "inputs": [],
            "name": "getGeneralCounsel",
            "outputs": [
                {
                    "internalType": "uint40",
                    "name": "",
                    "type": "uint40"
                }
            ],
            "stateMutability": "view",
            "type": "function"
        },
        {
            "inputs": [],
            "name": "getOwner",
            "outputs": [
                {
                    "internalType": "uint40",
                    "name": "",
                    "type": "uint40"
                }
            ],
            "stateMutability": "view",
            "type": "function"
        },
        {
            "inputs": [
                {
                    "internalType": "bytes32",
                    "name": "role",
                    "type": "bytes32"
                },
                {
                    "internalType": "uint256",
                    "name": "acct",
                    "type": "uint256"
                }
            ],
            "name": "grantRole",
            "outputs": [],
            "stateMutability": "nonpayable",
            "type": "function"
        },
        {
            "inputs": [
                {
                    "internalType": "bytes32",
                    "name": "role",
                    "type": "bytes32"
                },
                {
                    "internalType": "uint256",
                    "name": "acct",
                    "type": "uint256"
                }
            ],
            "name": "hasRole",
            "outputs": [
                {
                    "internalType": "bool",
                    "name": "",
                    "type": "bool"
                }
            ],
            "stateMutability": "view",
            "type": "function"
        },
        {
            "inputs": [
                {
                    "internalType": "uint256",
                    "name": "owner",
                    "type": "uint256"
                },
                {
                    "internalType": "address",
                    "name": "directKeeper",
                    "type": "address"
                },
                {
                    "internalType": "address",
                    "name": "regCenter",
                    "type": "address"
                },
                {
                    "internalType": "address",
                    "name": "generalKeeper",
                    "type": "address"
                }
            ],
            "name": "init",
            "outputs": [],
            "stateMutability": "nonpayable",
            "type": "function"
        },
        {
            "inputs": [
                {
                    "internalType": "address",
                    "name": "caller",
                    "type": "address"
                }
            ],
            "name": "isKeeper",
            "outputs": [
                {
                    "internalType": "bool",
                    "name": "",
                    "type": "bool"
                }
            ],
            "stateMutability": "view",
            "type": "function"
        },
        {
            "inputs": [
                {
                    "internalType": "address",
                    "name": "ia",
                    "type": "address"
                },
                {
                    "internalType": "uint256",
                    "name": "seqOfDeal",
                    "type": "uint256"
                }
            ],
            "name": "issueNewShare",
            "outputs": [],
            "stateMutability": "nonpayable",
            "type": "function"
        },
        {
            "inputs": [],
            "name": "lockContents",
            "outputs": [],
            "stateMutability": "nonpayable",
            "type": "function"
        },
        {
            "inputs": [
                {
                    "internalType": "uint256",
                    "name": "seqOfShare",
                    "type": "uint256"
                },
                {
                    "internalType": "uint256",
                    "name": "seqOfPld",
                    "type": "uint256"
                },
                {
                    "internalType": "bytes32",
                    "name": "hashLock",
                    "type": "bytes32"
                }
            ],
            "name": "lockPledge",
            "outputs": [],
            "stateMutability": "nonpayable",
            "type": "function"
        },
        {
            "inputs": [
                {
                    "internalType": "uint256",
                    "name": "seqOfOpt",
                    "type": "uint256"
                },
                {
                    "internalType": "uint256",
                    "name": "seqOfBrf",
                    "type": "uint256"
                },
                {
                    "internalType": "bytes32",
                    "name": "hashLock",
                    "type": "bytes32"
                }
            ],
            "name": "lockSwapOrder",
            "outputs": [],
            "stateMutability": "nonpayable",
            "type": "function"
        },
        {
            "inputs": [],
            "name": "nameOfCompany",
            "outputs": [
                {
                    "internalType": "string",
                    "name": "",
                    "type": "string"
                }
            ],
            "stateMutability": "view",
            "type": "function"
        },
        {
            "inputs": [
                {
                    "internalType": "uint256",
                    "name": "seqOfBSR",
                    "type": "uint256"
                },
                {
                    "internalType": "uint256",
                    "name": "seqOfTitle",
                    "type": "uint256"
                },
                {
                    "internalType": "uint40",
                    "name": "candidate",
                    "type": "uint40"
                }
            ],
            "name": "nominateOfficer",
            "outputs": [],
            "stateMutability": "nonpayable",
            "type": "function"
        },
        {
            "inputs": [
                {
                    "internalType": "uint256",
                    "name": "seqOfOpt",
                    "type": "uint256"
                },
                {
                    "internalType": "uint32",
                    "name": "seqOfConsider",
                    "type": "uint32"
                },
                {
                    "internalType": "uint32",
                    "name": "paidOfConsider",
                    "type": "uint32"
                },
                {
                    "internalType": "uint32",
                    "name": "seqOfTarget",
                    "type": "uint32"
                }
            ],
            "name": "placeSwapOrder",
            "outputs": [],
            "stateMutability": "nonpayable",
            "type": "function"
        },
        {
            "inputs": [
                {
                    "internalType": "uint8",
                    "name": "typeOfAction",
                    "type": "uint8"
                },
                {
                    "internalType": "address[]",
                    "name": "targets",
                    "type": "address[]"
                },
                {
                    "internalType": "uint256[]",
                    "name": "values",
                    "type": "uint256[]"
                },
                {
                    "internalType": "bytes[]",
                    "name": "params",
                    "type": "bytes[]"
                },
                {
                    "internalType": "bytes32",
                    "name": "desHash",
                    "type": "bytes32"
                },
                {
                    "internalType": "uint40",
                    "name": "executor",
                    "type": "uint40"
                }
            ],
            "name": "proposeBoardAction",
            "outputs": [],
            "stateMutability": "nonpayable",
            "type": "function"
        },
        {
            "inputs": [
                {
                    "internalType": "uint256",
                    "name": "typeOfAction",
                    "type": "uint256"
                },
                {
                    "internalType": "address[]",
                    "name": "targets",
                    "type": "address[]"
                },
                {
                    "internalType": "uint256[]",
                    "name": "values",
                    "type": "uint256[]"
                },
                {
                    "internalType": "bytes[]",
                    "name": "params",
                    "type": "bytes[]"
                },
                {
                    "internalType": "bytes32",
                    "name": "desHash",
                    "type": "bytes32"
                },
                {
                    "internalType": "uint40",
                    "name": "executor",
                    "type": "uint40"
                }
            ],
            "name": "proposeGMAction",
            "outputs": [],
            "stateMutability": "nonpayable",
            "type": "function"
        },
        {
            "inputs": [
                {
                    "internalType": "address",
                    "name": "ia",
                    "type": "address"
                },
                {
                    "internalType": "uint256",
                    "name": "typeOfDoc",
                    "type": "uint256"
                }
            ],
            "name": "proposeIA",
            "outputs": [],
            "stateMutability": "nonpayable",
            "type": "function"
        },
        {
            "inputs": [
                {
                    "internalType": "address",
                    "name": "ia",
                    "type": "address"
                },
                {
                    "internalType": "uint256",
                    "name": "seqOfDeal",
                    "type": "uint256"
                },
                {
                    "internalType": "bytes32",
                    "name": "hashLock",
                    "type": "bytes32"
                },
                {
                    "internalType": "uint48",
                    "name": "closingDate",
                    "type": "uint48"
                }
            ],
            "name": "pushToCoffer",
            "outputs": [],
            "stateMutability": "nonpayable",
            "type": "function"
        },
        {
            "inputs": [],
            "name": "quitPosition",
            "outputs": [],
            "stateMutability": "nonpayable",
            "type": "function"
        },
        {
            "inputs": [
                {
                    "internalType": "uint256",
                    "name": "seqOfShare",
                    "type": "uint256"
                },
                {
                    "internalType": "uint256",
                    "name": "seqOfPld",
                    "type": "uint256"
                },
                {
                    "internalType": "uint64",
                    "name": "amt",
                    "type": "uint64"
                }
            ],
            "name": "refundDebt",
            "outputs": [],
            "stateMutability": "nonpayable",
            "type": "function"
        },
        {
            "inputs": [],
            "name": "regNumHash",
            "outputs": [
                {
                    "internalType": "bytes32",
                    "name": "",
                    "type": "bytes32"
                }
            ],
            "stateMutability": "view",
            "type": "function"
        },
        {
            "inputs": [
                {
                    "internalType": "uint256",
                    "name": "seqOfShare",
                    "type": "uint256"
                },
                {
                    "internalType": "uint256",
                    "name": "seqOfPld",
                    "type": "uint256"
                },
                {
                    "internalType": "string",
                    "name": "hashKey",
                    "type": "string"
                }
            ],
            "name": "releasePledge",
            "outputs": [],
            "stateMutability": "nonpayable",
            "type": "function"
        },
        {
            "inputs": [
                {
                    "internalType": "uint256",
                    "name": "seqOfOpt",
                    "type": "uint256"
                },
                {
                    "internalType": "uint256",
                    "name": "seqOfBrf",
                    "type": "uint256"
                },
                {
                    "internalType": "string",
                    "name": "hashKey",
                    "type": "string"
                }
            ],
            "name": "releaseSwapOrder",
            "outputs": [],
            "stateMutability": "nonpayable",
            "type": "function"
        },
        {
            "inputs": [
                {
                    "internalType": "uint256",
                    "name": "director",
                    "type": "uint256"
                }
            ],
            "name": "removeDirector",
            "outputs": [],
            "stateMutability": "nonpayable",
            "type": "function"
        },
        {
            "inputs": [
                {
                    "internalType": "bytes32",
                    "name": "role",
                    "type": "bytes32"
                }
            ],
            "name": "renounceRole",
            "outputs": [],
            "stateMutability": "nonpayable",
            "type": "function"
        },
        {
            "inputs": [
                {
                    "internalType": "uint256",
                    "name": "snOfLocker",
                    "type": "uint256"
                },
                {
                    "internalType": "string",
                    "name": "hashKey",
                    "type": "string"
                },
                {
                    "internalType": "uint8",
                    "name": "salt",
                    "type": "uint8"
                }
            ],
            "name": "requestPaidInCapital",
            "outputs": [],
            "stateMutability": "nonpayable",
            "type": "function"
        },
        {
            "inputs": [
                {
                    "internalType": "uint256",
                    "name": "motionId",
                    "type": "uint256"
                },
                {
                    "internalType": "uint256",
                    "name": "seqOfDeal",
                    "type": "uint256"
                },
                {
                    "internalType": "uint256",
                    "name": "againstVoter",
                    "type": "uint256"
                },
                {
                    "internalType": "uint32",
                    "name": "seqOfTarget",
                    "type": "uint32"
                }
            ],
            "name": "requestToBuy",
            "outputs": [],
            "stateMutability": "nonpayable",
            "type": "function"
        },
        {
            "inputs": [
                {
                    "internalType": "address",
                    "name": "ia",
                    "type": "address"
                },
                {
                    "internalType": "uint256",
                    "name": "seqOfDeal",
                    "type": "uint256"
                },
                {
                    "internalType": "string",
                    "name": "hashKey",
                    "type": "string"
                }
            ],
            "name": "revokeDeal",
            "outputs": [],
            "stateMutability": "nonpayable",
            "type": "function"
        },
        {
            "inputs": [
                {
                    "internalType": "uint256",
                    "name": "seqOfShare",
                    "type": "uint256"
                },
                {
                    "internalType": "uint256",
                    "name": "seqOfPld",
                    "type": "uint256"
                }
            ],
            "name": "revokePledge",
            "outputs": [],
            "stateMutability": "nonpayable",
            "type": "function"
        },
        {
            "inputs": [
                {
                    "internalType": "bytes32",
                    "name": "role",
                    "type": "bytes32"
                },
                {
                    "internalType": "uint256",
                    "name": "acct",
                    "type": "uint256"
                }
            ],
            "name": "revokeRole",
            "outputs": [],
            "stateMutability": "nonpayable",
            "type": "function"
        },
        {
            "inputs": [
                {
                    "internalType": "uint256",
                    "name": "seqOfOpt",
                    "type": "uint256"
                },
                {
                    "internalType": "uint256",
                    "name": "seqOfBrf",
                    "type": "uint256"
                }
            ],
            "name": "revokeSwapOrder",
            "outputs": [],
            "stateMutability": "nonpayable",
            "type": "function"
        },
        {
            "inputs": [
                {
                    "internalType": "bool",
                    "name": "onPar",
                    "type": "bool"
                }
            ],
            "name": "setAmtBase",
            "outputs": [],
            "stateMutability": "nonpayable",
            "type": "function"
        },
        {
            "inputs": [
                {
                    "internalType": "uint256",
                    "name": "title",
                    "type": "uint256"
                },
                {
                    "internalType": "address",
                    "name": "book",
                    "type": "address"
                }
            ],
            "name": "setBook",
            "outputs": [],
            "stateMutability": "nonpayable",
            "type": "function"
        },
        {
            "inputs": [
                {
                    "internalType": "uint256",
                    "name": "title",
                    "type": "uint256"
                },
                {
                    "internalType": "address",
                    "name": "keeper",
                    "type": "address"
                }
            ],
            "name": "setBookeeper",
            "outputs": [],
            "stateMutability": "nonpayable",
            "type": "function"
        },
        {
            "inputs": [
                {
                    "internalType": "address",
                    "name": "keeper",
                    "type": "address"
                }
            ],
            "name": "setDirectKeeper",
            "outputs": [],
            "stateMutability": "nonpayable",
            "type": "function"
        },
        {
            "inputs": [
                {
                    "internalType": "uint256",
                    "name": "acct",
                    "type": "uint256"
                }
            ],
            "name": "setGeneralCounsel",
            "outputs": [],
            "stateMutability": "nonpayable",
            "type": "function"
        },
        {
            "inputs": [
                {
                    "internalType": "uint8",
                    "name": "max",
                    "type": "uint8"
                }
            ],
            "name": "setMaxQtyOfMembers",
            "outputs": [],
            "stateMutability": "nonpayable",
            "type": "function"
        },
        {
            "inputs": [
                {
                    "internalType": "uint256",
                    "name": "acct",
                    "type": "uint256"
                }
            ],
            "name": "setOwner",
            "outputs": [],
            "stateMutability": "nonpayable",
            "type": "function"
        },
        {
            "inputs": [
                {
                    "internalType": "uint256",
                    "name": "snOfLocker",
                    "type": "uint256"
                },
                {
                    "internalType": "uint64",
                    "name": "amount",
                    "type": "uint64"
                }
            ],
            "name": "setPayInAmt",
            "outputs": [],
            "stateMutability": "nonpayable",
            "type": "function"
        },
        {
            "inputs": [
                {
                    "internalType": "bytes32",
                    "name": "_regNumHash",
                    "type": "bytes32"
                }
            ],
            "name": "setRegNumHash",
            "outputs": [],
            "stateMutability": "nonpayable",
            "type": "function"
        },
        {
            "inputs": [
                {
                    "internalType": "bytes32",
                    "name": "role",
                    "type": "bytes32"
                },
                {
                    "internalType": "uint256",
                    "name": "acct",
                    "type": "uint256"
                }
            ],
            "name": "setRoleAdmin",
            "outputs": [],
            "stateMutability": "nonpayable",
            "type": "function"
        },
        {
            "inputs": [
                {
                    "internalType": "bool",
                    "name": "onPar",
                    "type": "bool"
                }
            ],
            "name": "setVoteBase",
            "outputs": [],
            "stateMutability": "nonpayable",
            "type": "function"
        },
        {
            "inputs": [
                {
                    "internalType": "address",
                    "name": "ia",
                    "type": "address"
                },
                {
                    "internalType": "bytes32",
                    "name": "sigHash",
                    "type": "bytes32"
                }
            ],
            "name": "signIA",
            "outputs": [],
            "stateMutability": "nonpayable",
            "type": "function"
        },
        {
            "inputs": [
                {
                    "internalType": "address",
                    "name": "sha",
                    "type": "address"
                },
                {
                    "internalType": "bytes32",
                    "name": "sigHash",
                    "type": "bytes32"
                }
            ],
            "name": "signSHA",
            "outputs": [],
            "stateMutability": "nonpayable",
            "type": "function"
        },
        {
            "inputs": [],
            "name": "symbolOfCompany",
            "outputs": [
                {
                    "internalType": "string",
                    "name": "",
                    "type": "string"
                }
            ],
            "stateMutability": "view",
            "type": "function"
        },
        {
            "inputs": [
                {
                    "internalType": "address",
                    "name": "ia",
                    "type": "address"
                },
                {
                    "internalType": "uint256",
                    "name": "seqOfDeal",
                    "type": "uint256"
                }
            ],
            "name": "takeGiftShares",
            "outputs": [],
            "stateMutability": "nonpayable",
            "type": "function"
        },
        {
            "inputs": [
                {
                    "internalType": "uint256",
                    "name": "seqOfBSR",
                    "type": "uint256"
                },
                {
                    "internalType": "uint256",
                    "name": "seqOfTitle",
                    "type": "uint256"
                },
                {
                    "internalType": "uint256",
                    "name": "motionId",
                    "type": "uint256"
                }
            ],
            "name": "takePosition",
            "outputs": [],
            "stateMutability": "nonpayable",
            "type": "function"
        },
        {
            "inputs": [
                {
                    "internalType": "address",
                    "name": "ia",
                    "type": "address"
                },
                {
                    "internalType": "uint256",
                    "name": "seqOfDeal",
                    "type": "uint256"
                }
            ],
            "name": "terminateDeal",
            "outputs": [],
            "stateMutability": "nonpayable",
            "type": "function"
        },
        {
            "inputs": [
                {
                    "internalType": "uint256",
                    "name": "seqOfShare",
                    "type": "uint256"
                },
                {
                    "internalType": "uint256",
                    "name": "seqOfPld",
                    "type": "uint256"
                },
                {
                    "internalType": "uint40",
                    "name": "buyer",
                    "type": "uint40"
                },
                {
                    "internalType": "uint64",
                    "name": "amt",
                    "type": "uint64"
                }
            ],
            "name": "transferPledge",
            "outputs": [],
            "stateMutability": "nonpayable",
            "type": "function"
        },
        {
            "inputs": [
                {
                    "internalType": "address",
                    "name": "ia",
                    "type": "address"
                },
                {
                    "internalType": "uint256",
                    "name": "seqOfDeal",
                    "type": "uint256"
                }
            ],
            "name": "transferTargetShare",
            "outputs": [],
            "stateMutability": "nonpayable",
            "type": "function"
        },
        {
            "inputs": [
                {
                    "internalType": "uint256",
                    "name": "seqOfOpt",
                    "type": "uint256"
                },
                {
                    "internalType": "uint64",
                    "name": "d1",
                    "type": "uint64"
                },
                {
                    "internalType": "uint64",
                    "name": "d2",
                    "type": "uint64"
                },
                {
                    "internalType": "uint64",
                    "name": "d3",
                    "type": "uint64"
                }
            ],
            "name": "updateOracle",
            "outputs": [],
            "stateMutability": "nonpayable",
            "type": "function"
        },
        {
            "inputs": [
                {
                    "internalType": "uint256",
                    "name": "seqOfShare",
                    "type": "uint256"
                },
                {
                    "internalType": "uint48",
                    "name": "line",
                    "type": "uint48"
                }
            ],
            "name": "updatePaidInDeadline",
            "outputs": [],
            "stateMutability": "nonpayable",
            "type": "function"
        },
        {
            "inputs": [
                {
                    "internalType": "uint256",
                    "name": "motionId",
                    "type": "uint256"
                }
            ],
            "name": "voteCounting",
            "outputs": [],
            "stateMutability": "nonpayable",
            "type": "function"
        },
        {
            "inputs": [
                {
                    "internalType": "uint256",
                    "name": "snOfLocker",
                    "type": "uint256"
                }
            ],
            "name": "withdrawPayInAmt",
            "outputs": [],
            "stateMutability": "nonpayable",
            "type": "function"
        }
    ],
    "bytecode": "608060405234801561001057600080fd5b50614c00806100206000396000f3fe608060405234801561001057600080fd5b50600436106104c25760003560e01c80638041494e11610278578063cd016f3c1161015c578063ed211023116100ce578063f8fb9e1d11610092578063f8fb9e1d14610acb578063f94d189f14610ade578063f9ee371b14610af1578063fa0be08514610afa578063fd95c4c014610b0d578063ff5054eb14610b2057600080fd5b8063ed21102314610a82578063efecf88a14610a8a578063f045a76914610a9d578063f424672b14610aa5578063f584accb14610ab857600080fd5b8063dc8492ce11610120578063dc8492ce146109e2578063dc890da9146109f5578063dfd3002114610a08578063e0ff5b8b14610a1b578063e9c733d214610a5c578063ebf815b714610a6f57600080fd5b8063cd016f3c1461098e578063cd407328146109a1578063d1a0ce56146109b4578063d6c4985c146109bc578063da6a43d6146109cf57600080fd5b8063a00960f1116101f5578063b73cb699116101b9578063b73cb69914610919578063bdc36f621461092c578063bf89776d1461093f578063c1be2ad614610947578063c3f635f71461095a578063c61b15a81461096d57600080fd5b8063a00960f1146108c4578063a3e78f01146108d7578063a8ccff4b146108ea578063ab4e66b6146108f2578063b3f05b971461090557600080fd5b80638bb9c5bf1161023c5780638bb9c5bf146108655780638cc105f71461087857806397f4a2051461088b5780639cc12eb21461089e5780639f312688146108b157600080fd5b80638041494e1461081157806383336a071461082457806384893821146108375780638506c43f1461084a578063893d20e81461085d57600080fd5b8063452558b0116103aa5780636555ff7a1161031c5780637ab42864116102e05780637ab428641461079f5780637bce8afe146107b25780637e063c5a146107c55780637e2b9530146107d85780637e822fb7146107eb5780637fc3b005146107fe57600080fd5b80636555ff7a146107305780636ba42aaa146107435780636be8496f1461076657806373e654921461077957806377a9dfa01461078c57600080fd5b80635171ebd41161036e5780635171ebd4146106bc57806353049727146106cf578063542f28e6146106e2578063569e1006146106f5578063587e5b5e146107085780635ea643f91461071d57600080fd5b8063452558b01461065d578063467fb8f2146106705780634a14beb1146106835780634fc3e83f1461069657806350235307146106a957600080fd5b80631b6ea9f9116104435780632c425acc116104075780632c425acc146105eb5780633311ece6146105fe5780633da9a600146106115780633e2032ab146106245780633f312e811461063757806341dce6e01461064a57600080fd5b80631b6ea9f91461058c5780631f6b26091461059f578063205969bd146105b257806323ea0838146105c55780632b6c0ce1146105d857600080fd5b806315f874931161048a57806315f874931461052d578063160392d71461054057806318c678aa1461055357806319d61ad9146105665780631b2f0f991461057957600080fd5b80631022489b146104c7578063103f6edd146104dc57806310777ac5146104ff57806314d3cb8514610512578063159186c11461051a575b600080fd5b6104da6104d5366004613b8c565b610b33565b005b6104e4610c6f565b60405164ffffffffff90911681526020015b60405180910390f35b6104da61050d366004613bbb565b610cfb565b6104da610dae565b6104da610528366004613c12565b610ec7565b6104da61053b366004613c5f565b610f46565b6104da61054e366004613c7a565b610fa9565b6104da610561366004613c93565b61100a565b6104da610574366004613cbf565b6110ad565b6104da610587366004613cbf565b611139565b6104da61059a366004613cbf565b6111a3565b6104da6105ad366004613c7a565b6111c8565b6104da6105c0366004613ce1565b6111f9565b6104da6105d3366004613d0d565b61129c565b6104da6105e6366004613d66565b61131d565b6104da6105f9366004613c93565b611429565b6104da61060c366004613c7a565b61145b565b6104da61061f366004613c7a565b611549565b6104da610632366004613ce1565b611656565b6104da610645366004613cbf565b611689565b6104da610658366004613da8565b6116f1565b6104da61066b366004613c93565b6117fe565b6104da61067e366004613e95565b6118f3565b6104da610691366004613c7a565b611944565b6104da6106a4366004613f03565b611b84565b6104da6106b7366004613f2f565b611c80565b6104da6106ca366004613cbf565b611cd2565b6104da6106dd366004613f68565b611cf7565b6104da6106f0366004613fb0565b611d70565b6104da610703366004613c12565b611df2565b610710611e25565b6040516104f6919061402c565b6104da61072b366004613ce1565b611eb3565b6104da61073e366004613c7a565b611f24565b61075661075136600461403f565b611f55565b60405190151581526020016104f6565b6104da61077436600461403f565b611fb7565b6104da61078736600461405c565b612069565b6104da61079a366004613c93565b6120db565b6104da6107ad366004614217565b61210d565b6104da6107c03660046142c5565b61219f565b6107566107d3366004613cbf565b6121f7565b6104da6107e636600461403f565b612292565b6104da6107f9366004614303565b6122fb565b6104da61080c366004613c5f565b6123a5565b6104da61081f366004613c7a565b6123d6565b6104da610832366004613c7a565b6124f3565b6104da610845366004614364565b612524565b6104da610858366004614364565b61259d565b6104e4612613565b6104da610873366004613c7a565b61264e565b6104da610886366004614303565b6126a7565b6104da610899366004614399565b6126de565b6104da6108ac3660046143c5565b612752565b6104da6108bf366004613c12565b61284f565b6104da6108d2366004613da8565b6128d0565b6104da6108e5366004613c7a565b6129dd565b610710612afb565b6104da610900366004613e95565b612b08565b60028054600160f01b900460ff1614610756565b6104da610927366004613cbf565b612b59565b6104da61093a3660046143f6565b612b8b565b6104da612c8c565b6104da61095536600461405c565b612cfb565b6104da610968366004613c93565b612d2e565b61098061097b366004614413565b612d60565b6040519081526020016104f6565b6104da61099c366004613ce1565b612e14565b6104da6109af3660046144ac565b612e47565b6104da612eef565b6104da6109ca366004613f2f565b612fee565b6104da6109dd3660046143f6565b613021565b6104da6109f03660046144e9565b613122565b6104da610a0336600461451c565b613227565b6104da610a16366004613cbf565b61330a565b610a44610a29366004613c7a565b6000908152600760205260409020546001600160a01b031690565b6040516001600160a01b0390911681526020016104f6565b6104da610a6a366004613cbf565b61333c565b6104da610a7d36600461456f565b61336e565b610a446133e1565b6104da610a983660046145a8565b613467565b6104da6134fe565b6104da610ab3366004613cbf565b61371d565b6104da610ac6366004614617565b61374f565b6104da610ad9366004613c7a565b61380b565b6104da610aec366004614660565b61383c565b61098060045481565b6104da610b08366004613c93565b61388e565b6104da610b1b366004613c93565b6138fd565b6104da610b2e3660046146ad565b61392e565b604051633b11adbf60e21b815273__$364aad554dc80380f414546becdd2c1584$__9063ec46b6fc90610b6d9060029033906004016146ea565b60206040518083038186803b158015610b8557600080fd5b505af4158015610b99573d6000803e3d6000fd5b505050506040513d601f19601f82011682018060405250810190610bbd9190614701565b610be25760405162461bcd60e51b8152600401610bd99061471e565b60405180910390fd5b600760005260086020527f24cd397636bedc6cf9b490d0edd57c769c19b367fb7d5c2344ae1ddc7d21c14454604051631022489b60e01b815260ff831660048201526001600160a01b0390911690631022489b906024015b600060405180830381600087803b158015610c5457600080fd5b505af1158015610c68573d6000803e3d6000fd5b5050505050565b60405163e8c0cc1d60e01b81526002600482015260009073__$364aad554dc80380f414546becdd2c1584$__9063e8c0cc1d906024015b60206040518083038186803b158015610cbe57600080fd5b505af4158015610cd2573d6000803e3d6000fd5b505050506040513d601f19601f82011682018060405250810190610cf69190614764565b905090565b60026000526008602052600080516020614b2b833981519152546001600160a01b031663fd560e1885858585610d2f6139b6565b6040516001600160e01b031960e088901b16815260048101959095526024850193909352604484019190915263ffffffff16606483015264ffffffffff16608482015260a4015b600060405180830381600087803b158015610d9057600080fd5b505af1158015610da4573d6000803e3d6000fd5b5050505050505050565b604051633b11adbf60e21b815273__$364aad554dc80380f414546becdd2c1584$__9063ec46b6fc90610de89060029033906004016146ea565b60206040518083038186803b158015610e0057600080fd5b505af4158015610e14573d6000803e3d6000fd5b505050506040513d601f19601f82011682018060405250810190610e389190614701565b610e545760405162461bcd60e51b8152600401610bd99061471e565b600260009081526008602052600080516020614b2b83398151915254604080516314d3cb8560e01b815290516001600160a01b03909216926314d3cb859260048084019382900301818387803b158015610ead57600080fd5b505af1158015610ec1573d6000803e3d6000fd5b50505050565b60086000819052602052600080516020614aeb833981519152546001600160a01b031663f51147e3858585610efa6139b6565b6040516001600160e01b031960e087901b1681526001600160a01b0390941660048501526024840192909252604483015264ffffffffff1660648201526084810184905260a401610d76565b600080526008602052600080516020614b6b833981519152546001600160a01b0316633c97871782610f766139b6565b6040516001600160e01b031960e085901b16815261ffff909216600483015264ffffffffff166024820152604401610c3a565b60016000526008602052600080516020614b4b833981519152546001600160a01b031663f8be81ac82610fda6139b6565b6040516001600160e01b031960e085901b168152600481019290925264ffffffffff166024820152604401610c3a565b600080526008602052600080516020614b6b833981519152546001600160a01b031663755514d5838361103b6139b6565b6040516001600160e01b031960e086901b1681526001600160a01b039093166004840152602483019190915264ffffffffff1660448201526064015b600060405180830381600087803b15801561109157600080fd5b505af11580156110a5573d6000803e3d6000fd5b505050505050565b73__$364aad554dc80380f414546becdd2c1584$__6382daafaa6002846110d26139b6565b6040516001600160e01b031960e086901b1681526004810193909352602483019190915264ffffffffff166044820152606481018490526084015b60006040518083038186803b15801561112557600080fd5b505af41580156110a5573d6000803e3d6000fd5b60026000526008602052600080516020614b2b833981519152546001600160a01b031663fe1bdff2828461116b6139b6565b6040516001600160e01b031960e086901b1681526004810193909352602483019190915264ffffffffff166044820152606401611077565b73__$364aad554dc80380f414546becdd2c1584$__636320d75e6002846110d26139b6565b60036000526008602052600080516020614b0b833981519152546001600160a01b0316637c67d74782610fda6139b6565b60056000526008602052600080516020614b8b833981519152546001600160a01b0316633067033d84848461122c6139b6565b6040516001600160e01b031960e087901b16815260048101949094526024840192909252604483015264ffffffffff1660648201526084015b600060405180830381600087803b15801561127f57600080fd5b505af1158015611293573d6000803e3d6000fd5b50505050505050565b60046000526008602052600080516020614bab833981519152546001600160a01b031663a697e112858585856112d06139b6565b6040516001600160e01b031960e088901b168152600481019590955263ffffffff93841660248601529183166044850152909116606483015264ffffffffff16608482015260a401610d76565b604051633b11adbf60e21b815273__$364aad554dc80380f414546becdd2c1584$__9063ec46b6fc906113579060029033906004016146ea565b60206040518083038186803b15801561136f57600080fd5b505af4158015611383573d6000803e3d6000fd5b505050506040513d601f19601f820116820180604052508101906113a79190614701565b6113c35760405162461bcd60e51b8152600401610bd99061471e565b600460008190526008602052600080516020614bab83398151915254604051632b6c0ce160e01b81529182018690526001600160401b0380861660248401528085166044840152831660648301526001600160a01b031690632b6c0ce190608401610d76565b60036000526008602052600080516020614b0b833981519152546001600160a01b0316637e2cd24a838361103b6139b6565b604051633b11adbf60e21b815273__$364aad554dc80380f414546becdd2c1584$__9063ec46b6fc906114959060029033906004016146ea565b60206040518083038186803b1580156114ad57600080fd5b505af41580156114c1573d6000803e3d6000fd5b505050506040513d601f19601f820116820180604052508101906114e59190614701565b6115015760405162461bcd60e51b8152600401610bd99061471e565b60066000526008602052600080516020614acb83398151915254604051631988f67360e11b8152600481018390526001600160a01b0390911690633311ece690602401610c3a565b604051633b11adbf60e21b815273__$364aad554dc80380f414546becdd2c1584$__9063ec46b6fc906115839060029033906004016146ea565b60206040518083038186803b15801561159b57600080fd5b505af41580156115af573d6000803e3d6000fd5b505050506040513d601f19601f820116820180604052508101906115d39190614701565b6115ef5760405162461bcd60e51b8152600401610bd99061471e565b60405163cc99e11b60e01b8152600260048201526024810182905273__$364aad554dc80380f414546becdd2c1584$__9063cc99e11b906044015b60006040518083038186803b15801561164257600080fd5b505af4158015610c68573d6000803e3d6000fd5b60016000526008602052600080516020614b4b833981519152546001600160a01b0316633ea65d6f84848461122c6139b6565b60016000526008602052600080516020614b4b833981519152546001600160a01b031663fe1bdff26116b96139b6565b6040516001600160e01b031960e084901b16815264ffffffffff90911660048201526024810185905260448101849052606401611077565b604051633b11adbf60e21b815273__$364aad554dc80380f414546becdd2c1584$__9063ec46b6fc9061172b9060029033906004016146ea565b60206040518083038186803b15801561174357600080fd5b505af4158015611757573d6000803e3d6000fd5b505050506040513d601f19601f8201168201806040525081019061177b9190614701565b6117975760405162461bcd60e51b8152600401610bd99061471e565b7faf2880ce06e3954b60cfc6645e043948ebf4fd844995d9d7d9e2930bd5a12c7482826040516117c89291906146ea565b60405180910390a160009182526007602052604090912080546001600160a01b0319166001600160a01b03909216919091179055565b604051633b11adbf60e21b815273__$364aad554dc80380f414546becdd2c1584$__9063ec46b6fc906118389060029033906004016146ea565b60206040518083038186803b15801561185057600080fd5b505af4158015611864573d6000803e3d6000fd5b505050506040513d601f19601f820116820180604052508101906118889190614701565b6118a45760405162461bcd60e51b8152600401610bd99061471e565b600080526008602052600080516020614b6b83398151915254604051630452558b60e41b81526001600160a01b038481166004830152602482018490529091169063452558b090604401611077565b600080526008602052600080516020614b6b833981519152546001600160a01b031663d270be0e84846119246139b6565b856040518563ffffffff1660e01b81526004016112659493929190614781565b604051633b11adbf60e21b815273__$364aad554dc80380f414546becdd2c1584$__9063ec46b6fc9061197e9060029033906004016146ea565b60206040518083038186803b15801561199657600080fd5b505af41580156119aa573d6000803e3d6000fd5b505050506040513d601f19601f820116820180604052508101906119ce9190614701565b80611a73575073__$364aad554dc80380f414546becdd2c1584$__63fe27108660026119f86139b6565b6040516001600160e01b031960e085901b168152600481019290925264ffffffffff16602482015260440160206040518083038186803b158015611a3b57600080fd5b505af4158015611a4f573d6000803e3d6000fd5b505050506040513d601f19601f82011682018060405250810190611a739190614701565b611ade5760405162461bcd60e51b815260206004820152603660248201527f41432e6f776e65724f72446972656374426f6f6b65657065723a206e6569746860448201527532b91037bbb732b9103737b9103137b7b5b2b2b832b960511b6064820152608401610bd9565b604051632725ebef60e21b8152600260048201526024810182905273__$364aad554dc80380f414546becdd2c1584$__90639c97afbc9060440160006040518083038186803b158015611b3057600080fd5b505af4158015611b44573d6000803e3d6000fd5b505050507ff2735f34b69be1e6342dea95f9162f84d0db925fab655ca9f1f312ac8cbfc99d81604051611b7991815260200190565b60405180910390a150565b604051633b11adbf60e21b815273__$364aad554dc80380f414546becdd2c1584$__9063ec46b6fc90611bbe9060029033906004016146ea565b60206040518083038186803b158015611bd657600080fd5b505af4158015611bea573d6000803e3d6000fd5b505050506040513d601f19601f82011682018060405250810190611c0e9190614701565b611c2a5760405162461bcd60e51b8152600401610bd99061471e565b60066000526008602052600080516020614acb83398151915254604051634fc3e83f60e01b81526004810184905265ffffffffffff831660248201526001600160a01b0390911690634fc3e83f90604401611077565b60056000526008602052600080516020614b8b833981519152546001600160a01b0316634c76218b848484611cb36139b6565b6040518563ffffffff1660e01b815260040161126594939291906147b5565b73__$364aad554dc80380f414546becdd2c1584$__63ee98b3136002846110d26139b6565b60056000526008602052600080516020614b8b833981519152546001600160a01b031663fb268c58848484611d2a6139b6565b6040516001600160e01b031960e087901b168152600481019490945260248401929092526001600160401b0316604483015264ffffffffff166064820152608401611265565b60056000526008602052600080516020614b8b833981519152546001600160a01b0316635591441085858585611da46139b6565b6040516001600160e01b031960e088901b1681526004810195909552602485019390935264ffffffffff91821660448501526001600160401b0316606484015216608482015260a401610d76565b60086000819052602052600080516020614aeb833981519152546001600160a01b031663325508d5858585610efa6139b6565b60058054611e32906147ec565b80601f0160208091040260200160405190810160405280929190818152602001828054611e5e906147ec565b8015611eab5780601f10611e8057610100808354040283529160200191611eab565b820191906000526020600020905b815481529060010190602001808311611e8e57829003601f168201915b505050505081565b60016000526008602052600080516020614b4b833981519152546001600160a01b0316630bdda2ed8484611ee56139b6565b6040516001600160e01b031960e086901b1681526004810193909352602483019190915264ffffffffff16604482015260648101849052608401611265565b60046000526008602052600080516020614bab833981519152546001600160a01b0316632371494b82610fda6139b6565b6000600a5b8015611fae5760086000611f6f60018461483d565b81526020810191909152604001600020546001600160a01b0384811691161415611f9c5750600192915050565b80611fa681614854565b915050611f5a565b50600092915050565b604051630f07232560e01b8152600260048201523360248201526001600160a01b038216604482015273__$364aad554dc80380f414546becdd2c1584$__90630f0723259060640160006040518083038186803b15801561201757600080fd5b505af415801561202b573d6000803e3d6000fd5b50506040516001600160a01b03841681527fe435cbeab64e4eae6497b9d8289704bd709d624a80704ef3ca9af777534bc6ec92506020019050611b79565b60026000526008602052600080516020614b2b833981519152546001600160a01b0316631fa1fdc584848461209c6139b6565b6040516001600160e01b031960e087901b168152600481019490945260ff9092166024840152604483015264ffffffffff166064820152608401611265565b60086000819052602052600080516020614aeb833981519152546001600160a01b0316636c69e969838361103b6139b6565b60026000526008602052600080516020614b2b833981519152546001600160a01b031663371eda0f8787878787876121436139b6565b6040518863ffffffff1660e01b81526004016121659796959493929190614934565b600060405180830381600087803b15801561217f57600080fd5b505af1158015612193573d6000803e3d6000fd5b50505050505050505050565b60016000526008602052600080516020614b4b833981519152546001600160a01b031663e31f2d2c87878787876121d46139b6565b886040518863ffffffff1660e01b8152600401612165979695949392919061499b565b604051632a3be56b60e21b815260026004820152602481018390526044810182905260009073__$364aad554dc80380f414546becdd2c1584$__9063a8ef95ac9060640160206040518083038186803b15801561225357600080fd5b505af4158015612267573d6000803e3d6000fd5b505050506040513d601f19601f8201168201806040525081019061228b9190614701565b9392505050565b60036000526008602052600080516020614b0b833981519152546001600160a01b031663e396e78f826122c36139b6565b6040516001600160e01b031960e085901b1681526001600160a01b03909216600483015264ffffffffff166024820152604401610c3a565b60086000818152602091909152600080516020614aeb833981519152546001600160a01b031690639c436a7d90889088908888886123376139b6565b6040516001600160e01b031960e08a901b1681526001600160a01b0390971660048801526024870195909552921515604486015260648501919091526001600160401b0390811660848501521660a483015264ffffffffff1660c482015260e4810184905261010401612165565b60036000526008602052600080516020614b0b833981519152546001600160a01b0316639d2239cf82610f766139b6565b73__$364aad554dc80380f414546becdd2c1584$__63fe27108660026123fa6139b6565b6040516001600160e01b031960e085901b168152600481019290925264ffffffffff16602482015260440160206040518083038186803b15801561243d57600080fd5b505af4158015612451573d6000803e3d6000fd5b505050506040513d601f19601f820116820180604052508101906124759190614701565b6124b45760405162461bcd60e51b815260206004820152601060248201526f20a19737bb9d103737ba1037bbb732b960811b6044820152606401610bd9565b60405163b6e38a2960e01b8152600260048201526024810182905273__$364aad554dc80380f414546becdd2c1584$__9063b6e38a299060440161162a565b60016000526008602052600080516020614b4b833981519152546001600160a01b031663f894759e82610fda6139b6565b60086000819052602052600080516020614aeb833981519152546001600160a01b031663f61bf28484846125566139b6565b6040516001600160e01b031960e086901b1681526001600160a01b039093166004840152602483019190915264ffffffffff16604482015260648101849052608401611265565b600080526008602052600080516020614b6b833981519152546001600160a01b03166359e25c5d846125cd6139b6565b6040516001600160e01b031960e085901b1681526001600160a01b03909216600483015264ffffffffff1660248201526044810185905260648101849052608401611265565b60405163987ad15360e01b81526002600482015260009073__$364aad554dc80380f414546becdd2c1584$__9063987ad15390602401610ca6565b60006126586139b6565b60405163cc0d511b60e01b8152600260048201526024810184905264ffffffffff8216604482015290915073__$364aad554dc80380f414546becdd2c1584$__9063cc0d511b9060640161110d565b60086000819052602052600080516020614aeb833981519152546001600160a01b0316639c436a7d878760018888886123376139b6565b60056000526008602052600080516020614b8b833981519152546001600160a01b0316639a92065d8484846127116139b6565b6040516001600160e01b031960e087901b1681526004810194909452602484019290925261ffff16604483015264ffffffffff166064820152608401611265565b604051633b11adbf60e21b815273__$364aad554dc80380f414546becdd2c1584$__9063ec46b6fc9061278c9060029033906004016146ea565b60206040518083038186803b1580156127a457600080fd5b505af41580156127b8573d6000803e3d6000fd5b505050506040513d601f19601f820116820180604052508101906127dc9190614701565b6127f85760405162461bcd60e51b8152600401610bd99061471e565b60066000526008602052600080516020614acb83398151915254604051634e60975960e11b8152600481018490526001600160401b03831660248201526001600160a01b0390911690639cc12eb290604401611077565b60036000526008602052600080516020614b0b833981519152546001600160a01b0316637f7df34e858585856128836139b6565b6040516001600160e01b031960e088901b1681526001600160a01b03909516600486015260248501939093526044840191909152606483015264ffffffffff16608482015260a401610d76565b604051633b11adbf60e21b815273__$364aad554dc80380f414546becdd2c1584$__9063ec46b6fc9061290a9060029033906004016146ea565b60206040518083038186803b15801561292257600080fd5b505af4158015612936573d6000803e3d6000fd5b505050506040513d601f19601f8201168201806040525081019061295a9190614701565b6129765760405162461bcd60e51b8152600401610bd99061471e565b7f88c423fecf7460f81cf672dc65815ce75e996777c4a9d20df31aa8f8be424add82826040516129a79291906146ea565b60405180910390a160009182526008602052604090912080546001600160a01b0319166001600160a01b03909216919091179055565b73__$364aad554dc80380f414546becdd2c1584$__63fe2710866002612a016139b6565b6040516001600160e01b031960e085901b168152600481019290925264ffffffffff16602482015260440160206040518083038186803b158015612a4457600080fd5b505af4158015612a58573d6000803e3d6000fd5b505050506040513d601f19601f82011682018060405250810190612a7c9190614701565b612abb5760405162461bcd60e51b815260206004820152601060248201526f20a19737bb9d103737ba1037bbb732b960811b6044820152606401610bd9565b7f17ef7bd663554dc98b5419593050ca9410ad39692d3dee2f20e48f126379c0f0600454604051612aee91815260200190565b60405180910390a1600455565b60068054611e32906147ec565b600080526008602052600080516020614b6b833981519152546001600160a01b031663deeb633f848484612b3a6139b6565b6040518563ffffffff1660e01b815260040161126594939291906149b7565b60046000526008602052600080516020614bab833981519152546001600160a01b031663ab359417838361116b6139b6565b604051633b11adbf60e21b815273__$364aad554dc80380f414546becdd2c1584$__9063ec46b6fc90612bc59060029033906004016146ea565b60206040518083038186803b158015612bdd57600080fd5b505af4158015612bf1573d6000803e3d6000fd5b505050506040513d601f19601f82011682018060405250810190612c159190614701565b612c315760405162461bcd60e51b8152600401610bd99061471e565b600760005260086020527f24cd397636bedc6cf9b490d0edd57c769c19b367fb7d5c2344ae1ddc7d21c14454604051635ee1b7b160e11b815282151560048201526001600160a01b039091169063bdc36f6290602401610c3a565b60016000526008602052600080516020614b4b833981519152546001600160a01b03166392c2c3d3612cbc6139b6565b6040516001600160e01b031960e084901b16815264ffffffffff9091166004820152602401600060405180830381600087803b158015610ead57600080fd5b60016000526008602052600080516020614b4b833981519152546001600160a01b0316631fa1fdc584848461209c6139b6565b60026000526008602052600080516020614b2b833981519152546001600160a01b031663ec8e1a82838361103b6139b6565b600260009081526008602052600080516020614b2b833981519152546001600160a01b031663959efc858787878787612d976139b6565b6040518763ffffffff1660e01b8152600401612db8969594939291906149de565b602060405180830381600087803b158015612dd257600080fd5b505af1158015612de6573d6000803e3d6000fd5b505050506040513d601f19601f82011682018060405250810190612e0a9190614a3e565b9695505050505050565b60046000526008602052600080516020614bab833981519152546001600160a01b0316635d0389cd84848461122c6139b6565b60016000526008602052600080516020614b4b833981519152546001600160a01b031663a19012b98686868686612e7c6139b6565b6040518763ffffffff1660e01b8152600401612e9d96959493929190614a57565b602060405180830381600087803b158015612eb757600080fd5b505af1158015612ecb573d6000803e3d6000fd5b505050506040513d601f19601f820116820180604052508101906110a59190614a3e565b604051633b11adbf60e21b815273__$364aad554dc80380f414546becdd2c1584$__9063ec46b6fc90612f299060029033906004016146ea565b60206040518083038186803b158015612f4157600080fd5b505af4158015612f55573d6000803e3d6000fd5b505050506040513d601f19601f82011682018060405250810190612f799190614701565b612f955760405162461bcd60e51b8152600401610bd99061471e565b600260009081526008602052600080516020614b2b83398151915254604080516368d0672b60e11b815290516001600160a01b039092169263d1a0ce569260048084019382900301818387803b158015610ead57600080fd5b60046000526008602052600080516020614bab833981519152546001600160a01b031663866f989d848484611cb36139b6565b604051633b11adbf60e21b815273__$364aad554dc80380f414546becdd2c1584$__9063ec46b6fc9061305b9060029033906004016146ea565b60206040518083038186803b15801561307357600080fd5b505af4158015613087573d6000803e3d6000fd5b505050506040513d601f19601f820116820180604052508101906130ab9190614701565b6130c75760405162461bcd60e51b8152600401610bd99061471e565b600760005260086020527f24cd397636bedc6cf9b490d0edd57c769c19b367fb7d5c2344ae1ddc7d21c14454604051636d3521eb60e11b815282151560048201526001600160a01b039091169063da6a43d690602401610c3a565b604051633b11adbf60e21b815273__$364aad554dc80380f414546becdd2c1584$__9063ec46b6fc9061315c9060029033906004016146ea565b60206040518083038186803b15801561317457600080fd5b505af4158015613188573d6000803e3d6000fd5b505050506040513d601f19601f820116820180604052508101906131ac9190614701565b6131c85760405162461bcd60e51b8152600401610bd99061471e565b60066000526008602052600080516020614acb83398151915254604051636e42496760e11b8152600481018590526001600160401b038085166024830152831660448201526001600160a01b039091169063dc8492ce90606401611265565b61323082613a10565b61323981613abf565b604051636cdd0edf60e11b815260026004820152602481018590526001600160a01b038416604482015273__$364aad554dc80380f414546becdd2c1584$__9063d9ba1dbe9060640160006040518083038186803b15801561329a57600080fd5b505af41580156132ae573d6000803e3d6000fd5b5050604080518781526001600160a01b038781166020830152868116828401528516606082015290517f3abb2418c66fe32ba9c883030a75ce583971d9af9192b9b74e44e67c5e6c8c1f9350908190036080019150a150505050565b60046000526008602052600080516020614bab833981519152546001600160a01b031663084179bd838361116b6139b6565b60056000526008602052600080516020614b8b833981519152546001600160a01b0316634c70a093838361116b6139b6565b60026000526008602052600080516020614b2b833981519152546001600160a01b0316631aaf0fc38484846133a16139b6565b6040516001600160e01b031960e087901b1681526004810194909452602484019290925264ffffffffff9081166044840152166064820152608401611265565b604051633c3e56c160e11b81526002600482015260009073__$364aad554dc80380f414546becdd2c1584$__9063787cad829060240160206040518083038186803b15801561342f57600080fd5b505af4158015613443573d6000803e3d6000fd5b505050506040513d601f19601f82011682018060405250810190610cf69190614a73565b60056000526008602052600080516020614b8b833981519152546001600160a01b0316638a15028587878787878761349d6139b6565b6040516001600160e01b031960e08a901b168152600481019790975264ffffffffff958616602488015261ffff90941660448701526001600160401b03928316606487015290821660848601521660a48401521660c482015260e401612165565b604051633b11adbf60e21b815273__$364aad554dc80380f414546becdd2c1584$__9063ec46b6fc906135389060029033906004016146ea565b60206040518083038186803b15801561355057600080fd5b505af4158015613564573d6000803e3d6000fd5b505050506040513d601f19601f820116820180604052508101906135889190614701565b6135a45760405162461bcd60e51b8152600401610bd99061471e565b600254600160f01b900460ff166001146136005760405162461bcd60e51b815260206004820181905260248201527f41432e6f6e6c7950656e64696e673a20446f632069732066696e616c697a65646044820152606401610bd9565b60405163cc99e11b60e01b815260026004820152684174746f726e65797360b81b602482015273__$364aad554dc80380f414546becdd2c1584$__9063cc99e11b9060440160006040518083038186803b15801561365d57600080fd5b505af4158015613671573d6000803e3d6000fd5b5050604051632725ebef60e21b8152600260048201526000602482015273__$364aad554dc80380f414546becdd2c1584$__9250639c97afbc915060440160006040518083038186803b1580156136c757600080fd5b505af41580156136db573d6000803e3d6000fd5b50506002805460ff60f01b1916600160f11b17905550506040517f35012b512309c322acf68632cd6cb702ff0e1d776fbe9394e38ffc13b434fe7590600090a1565b60056000526008602052600080516020614b8b833981519152546001600160a01b03166372b5e711838361116b6139b6565b60086000819052602052600080516020614aeb833981519152546001600160a01b031663c65511d8868686866137836139b6565b6040516001600160e01b031960e088901b168152600481019590955260248501939093526001600160a01b039091166044840152606483015264ffffffffff16608482015260a4810184905260c401600060405180830381600087803b1580156137ec57600080fd5b505af1158015613800573d6000803e3d6000fd5b505050505050505050565b60026000526008602052600080516020614b2b833981519152546001600160a01b031663f894759e82610fda6139b6565b60066000526008602052600080516020614acb833981519152546001600160a01b031663ef607efb84848461386f6139b6565b6040518563ffffffff1660e01b81526004016112659493929190614a90565b600080526008602052600080516020614b6b833981519152546001600160a01b0316637a6ae865836138be6139b6565b6040516001600160e01b031960e085901b1681526001600160a01b03909216600483015264ffffffffff16602482015260448101849052606401611077565b600080526008602052600080516020614b6b833981519152546001600160a01b031663b951cf1d838361103b6139b6565b600080526008602052600080516020614b6b833981519152546001600160a01b031663fbc6362f858585856139616139b6565b6040516001600160e01b031960e088901b1681526001600160a01b0390951660048601526024850193909352604484019190915265ffffffffffff16606483015264ffffffffff16608482015260a401610d76565b60008054604051636ae3b70d60e11b81523360048201526001600160a01b039091169063d5c76e1a90602401602060405180830381600087803b1580156139fc57600080fd5b505af1158015610cd2573d6000803e3d6000fd5b6000546001600160a01b031615613a615760405162461bcd60e51b815260206004820152601560248201527430b63932b0b23c9039b2ba103932b3a1b2b73a32b960591b6044820152606401610bd9565b6040516001600160a01b03821681527f318da6c7624c71cbc0afe346c9d8827f119d0ecefb241a7b0c87217a076a8e029060200160405180910390a1600080546001600160a01b0319166001600160a01b0392909216919091179055565b6001546001600160a01b031615613b185760405162461bcd60e51b815260206004820152601960248201527f616c7265616479207365742067656e6572616c4b6565706572000000000000006044820152606401610bd9565b6040516001600160a01b03821681527fe513d3e0f0d0a3877029dcc588748679a7a3450ec1ec7ed56d96bd012c3e61aa9060200160405180910390a1600180546001600160a01b0319166001600160a01b0392909216919091179055565b803560ff81168114613b8757600080fd5b919050565b600060208284031215613b9e57600080fd5b61228b82613b76565b803563ffffffff81168114613b8757600080fd5b60008060008060808587031215613bd157600080fd5b843593506020850135925060408501359150613bef60608601613ba7565b905092959194509250565b6001600160a01b0381168114613c0f57600080fd5b50565b60008060008060808587031215613c2857600080fd5b8435613c3381613bfa565b966020860135965060408601359560600135945092505050565b803561ffff81168114613b8757600080fd5b600060208284031215613c7157600080fd5b61228b82613c4d565b600060208284031215613c8c57600080fd5b5035919050565b60008060408385031215613ca657600080fd5b8235613cb181613bfa565b946020939093013593505050565b60008060408385031215613cd257600080fd5b50508035926020909101359150565b600080600060608486031215613cf657600080fd5b505081359360208301359350604090920135919050565b60008060008060808587031215613d2357600080fd5b84359350613d3360208601613ba7565b9250613d4160408601613ba7565b9150613bef60608601613ba7565b80356001600160401b0381168114613b8757600080fd5b60008060008060808587031215613d7c57600080fd5b84359350613d8c60208601613d4f565b9250613d9a60408601613d4f565b9150613bef60608601613d4f565b60008060408385031215613dbb57600080fd5b823591506020830135613dcd81613bfa565b809150509250929050565b634e487b7160e01b600052604160045260246000fd5b604051601f8201601f191681016001600160401b0381118282101715613e1657613e16613dd8565b604052919050565b60006001600160401b03831115613e3757613e37613dd8565b613e4a601f8401601f1916602001613dee565b9050828152838383011115613e5e57600080fd5b828260208301376000602084830101529392505050565b600082601f830112613e8657600080fd5b61228b83833560208501613e1e565b600080600060608486031215613eaa57600080fd5b8335613eb581613bfa565b92506020840135915060408401356001600160401b03811115613ed757600080fd5b613ee386828701613e75565b9150509250925092565b803565ffffffffffff81168114613b8757600080fd5b60008060408385031215613f1657600080fd5b82359150613f2660208401613eed565b90509250929050565b600080600060608486031215613f4457600080fd5b833592506020840135915060408401356001600160401b03811115613ed757600080fd5b600080600060608486031215613f7d57600080fd5b8335925060208401359150613f9460408501613d4f565b90509250925092565b64ffffffffff81168114613c0f57600080fd5b60008060008060808587031215613fc657600080fd5b84359350602085013592506040850135613d9a81613f9d565b6000815180845260005b8181101561400557602081850181015186830182015201613fe9565b81811115614017576000602083870101525b50601f01601f19169290920160200192915050565b60208152600061228b6020830184613fdf565b60006020828403121561405157600080fd5b813561228b81613bfa565b60008060006060848603121561407157600080fd5b8335925061408160208501613b76565b9150604084013590509250925092565b60006001600160401b038211156140aa576140aa613dd8565b5060051b60200190565b600082601f8301126140c557600080fd5b813560206140da6140d583614091565b613dee565b82815260059290921b840181019181810190868411156140f957600080fd5b8286015b8481101561411d57803561411081613bfa565b83529183019183016140fd565b509695505050505050565b600082601f83011261413957600080fd5b813560206141496140d583614091565b82815260059290921b8401810191818101908684111561416857600080fd5b8286015b8481101561411d578035835291830191830161416c565b600082601f83011261419457600080fd5b813560206141a46140d583614091565b82815260059290921b840181019181810190868411156141c357600080fd5b8286015b8481101561411d5780356001600160401b038111156141e65760008081fd5b8701603f810189136141f85760008081fd5b614209898683013560408401613e1e565b8452509183019183016141c7565b60008060008060008060c0878903121561423057600080fd5b8635955060208701356001600160401b038082111561424e57600080fd5b61425a8a838b016140b4565b9650604089013591508082111561427057600080fd5b61427c8a838b01614128565b9550606089013591508082111561429257600080fd5b5061429f89828a01614183565b9350506080870135915060a08701356142b781613f9d565b809150509295509295509295565b60008060008060008060c087890312156142de57600080fd5b6142e787613b76565b955060208701356001600160401b038082111561424e57600080fd5b60008060008060008060c0878903121561431c57600080fd5b863561432781613bfa565b9550602087013594506040870135935061434360608801613d4f565b925061435160808801613d4f565b915060a087013590509295509295509295565b60008060006060848603121561437957600080fd5b833561438481613bfa565b95602085013595506040909401359392505050565b6000806000606084860312156143ae57600080fd5b8335925060208401359150613f9460408501613c4d565b600080604083850312156143d857600080fd5b82359150613f2660208401613d4f565b8015158114613c0f57600080fd5b60006020828403121561440857600080fd5b813561228b816143e8565b600080600080600060a0868803121561442b57600080fd5b8535945060208601356001600160401b038082111561444957600080fd5b61445589838a016140b4565b9550604088013591508082111561446b57600080fd5b61447789838a01614128565b9450606088013591508082111561448d57600080fd5b5061449a88828901614183565b95989497509295608001359392505050565b600080600080600060a086880312156144c457600080fd5b6144cd86613b76565b945060208601356001600160401b038082111561444957600080fd5b6000806000606084860312156144fe57600080fd5b8335925061450e60208501613d4f565b9150613f9460408501613d4f565b6000806000806080858703121561453257600080fd5b84359350602085013561454481613bfa565b9250604085013561455481613bfa565b9150606085013561456481613bfa565b939692955090935050565b60008060006060848603121561458457600080fd5b8335925060208401359150604084013561459d81613f9d565b809150509250925092565b60008060008060008060c087890312156145c157600080fd5b8635955060208701356145d381613f9d565b94506145e160408801613c4d565b93506145ef60608801613d4f565b92506145fd60808801613d4f565b915061460b60a08801613d4f565b90509295509295509295565b600080600080600060a0868803121561462f57600080fd5b8535945060208601359350604086013561464881613bfa565b94979396509394606081013594506080013592915050565b60008060006060848603121561467557600080fd5b8335925060208401356001600160401b0381111561469257600080fd5b61469e86828701613e75565b925050613f9460408501613b76565b600080600080608085870312156146c357600080fd5b84356146ce81613bfa565b93506020850135925060408501359150613bef60608601613eed565b9182526001600160a01b0316602082015260400190565b60006020828403121561471357600080fd5b815161228b816143e8565b60208082526026908201527f41432e6f6e6c794469726563744b65657065723a206e6f74206469726563742060408201526535b2b2b832b960d11b606082015260800190565b60006020828403121561477657600080fd5b815161228b81613f9d565b60018060a01b038516815283602082015264ffffffffff83166040820152608060608201526000612e0a6080830184613fdf565b8481528360208201526080604082015260006147d46080830185613fdf565b905064ffffffffff8316606083015295945050505050565b600181811c9082168061480057607f821691505b6020821081141561482157634e487b7160e01b600052602260045260246000fd5b50919050565b634e487b7160e01b600052601160045260246000fd5b60008282101561484f5761484f614827565b500390565b60008161486357614863614827565b506000190190565b600081518084526020808501945080840160005b838110156148a45781516001600160a01b03168752958201959082019060010161487f565b509495945050505050565b600081518084526020808501945080840160005b838110156148a4578151875295820195908201906001016148c3565b600081518084526020808501808196508360051b8101915082860160005b85811015614927578284038952614915848351613fdf565b988501989350908401906001016148fd565b5091979650505050505050565b87815260e06020820152600061494d60e083018961486b565b828103604084015261495f81896148af565b9050828103606084015261497381886148df565b6080840196909652505064ffffffffff92831660a0820152911660c090910152949350505050565b60ff8816815260e06020820152600061494d60e083018961486b565b60018060a01b03851681528360208201526080604082015260006147d46080830185613fdf565b86815260c0602082015260006149f760c083018861486b565b8281036040840152614a0981886148af565b90508281036060840152614a1d81876148df565b91505083608083015264ffffffffff831660a0830152979650505050505050565b600060208284031215614a5057600080fd5b5051919050565b60ff8716815260c0602082015260006149f760c083018861486b565b600060208284031215614a8557600080fd5b815161228b81613bfa565b848152608060208201526000614aa96080830186613fdf565b905060ff8416604083015264ffffffffff831660608301529594505050505056fe13acf3fc7bed94759963f076d5d3443d88732026bffc8253bdf4a6e65f21ecc5e4c2e8be66af8dd2d277000f4f830a10546f8b14e45cd850b875c98ba0f0d2cd625b35f5e76f098dd7c3a05b10e2e5e78a4a01228d60c3b143426cdf36d264556add646517a5b0f6793cd5891b7937d28a5b2981a5d88ebc7cd776088fea9041ad67d757c34507f157cacfa2e3153e9f260a2244f30428821be7be64587ac55f5eff886ea0ce6ca488a3d6e336d6c0f75f46d19b42c06ce5ee98e42c96d256c791238f30f286c9a1c6e901c4eda3b214c381c846e3dbe48df95c21488e8e1fdb9321edea6e3be4df59a344b401fab4f888b556fda1f954244cff9204bad624b8a2646970667358221220538a85ea41c4419659430882cff4b071ac1c0ca277e6b32c94dca4e7037caf8464736f6c63430008080033",
    "sourcePath": "/Users/kaptain/github.com/hardhat/comboox/contracts/keepers/GeneralKeeper.sol",
    "compiler": {
        "name": "solc",
        "version": "0.8.8+commit.dddeac2f"
    },
    "functionHashes": {
        "abandonRole(bytes32)": "3da9a600",
        "acceptAlongDeal(address,uint256,uint256,bytes32)": "159186c1",
        "acceptFirstRefusal(address,uint256,bytes32)": "84893821",
        "acceptSHA(bytes32)": "1f6b2609",
        "appointOfficer(uint256,uint256,uint256)": "5ea643f9",
        "boardVoteCounting(uint256)": "83336a07",
        "castBoardVote(uint256,uint8,bytes32)": "c1be2ad6",
        "castGMVote(uint256,uint8,bytes32)": "73e65492",
        "circulateIA(address,bytes32,bytes32)": "8506c43f",
        "circulateSHA(address,uint256,bytes32,bytes32)": "9f312688",
        "closeDeal(address,uint256,string)": "ab4e66b6",
        "createBoardSeal()": "14d3cb85",
        "createCorpSeal()": "d1a0ce56",
        "createIA(uint16)": "15f87493",
        "createPledge(uint256,uint40,uint16,uint64,uint64,uint64)": "efecf88a",
        "createSHA(uint16)": "7fc3b005",
        "decreaseCapital(uint256,uint64,uint64)": "dc8492ce",
        "effectiveSHA(address)": "7e2b9530",
        "entrustDirectorDelegate(uint256,uint256)": "3f312e81",
        "entrustMemberDelegate(uint256,uint256)": "1b2f0f99",
        "execAction(uint256,address[],uint256[],bytes[],bytes32)": "c61b15a8",
        "execAntiDilution(address,uint256,uint256,bytes32)": "569e1006",
        "execBoardAction(uint8,address[],uint256[],bytes[],bytes32)": "cd407328",
        "execDragAlong(address,uint256,uint256,uint64,uint64,bytes32)": "8cc105f7",
        "execFirstRefusal(uint256,uint256,address,uint256,bytes32)": "f584accb",
        "execOption(uint256)": "6555ff7a",
        "execPledge(uint256,uint256)": "e9c733d2",
        "execSwapOrder(uint256,uint256)": "dfd30021",
        "execTagAlong(address,uint256,uint256,uint64,uint64,bytes32)": "7e822fb7",
        "extendPledge(uint256,uint256,uint16)": "97f4a205",
        "finalized()": "b3f05b97",
        "getBook(uint256)": "e0ff5b8b",
        "getBookeeper()": "ed211023",
        "getGeneralCounsel()": "103f6edd",
        "getOwner()": "893d20e8",
        "grantRole(bytes32,uint256)": "1b6ea9f9",
        "hasRole(bytes32,uint256)": "7e063c5a",
        "init(uint256,address,address,address)": "dc890da9",
        "isKeeper(address)": "6ba42aaa",
        "issueNewShare(address,uint256)": "452558b0",
        "lockContents()": "f045a769",
        "lockPledge(uint256,uint256,bytes32)": "205969bd",
        "lockSwapOrder(uint256,uint256,bytes32)": "cd016f3c",
        "nameOfCompany()": "587e5b5e",
        "nominateOfficer(uint256,uint256,uint40)": "ebf815b7",
        "placeSwapOrder(uint256,uint32,uint32,uint32)": "23ea0838",
        "proposeBoardAction(uint8,address[],uint256[],bytes[],bytes32,uint40)": "7bce8afe",
        "proposeGMAction(uint256,address[],uint256[],bytes[],bytes32,uint40)": "7ab42864",
        "proposeIA(address,uint256)": "c3f635f7",
        "pushToCoffer(address,uint256,bytes32,uint48)": "ff5054eb",
        "quitPosition()": "bf89776d",
        "refundDebt(uint256,uint256,uint64)": "53049727",
        "regNumHash()": "f9ee371b",
        "releasePledge(uint256,uint256,string)": "50235307",
        "releaseSwapOrder(uint256,uint256,string)": "d6c4985c",
        "removeDirector(uint256)": "160392d7",
        "renounceRole(bytes32)": "8bb9c5bf",
        "requestPaidInCapital(uint256,string,uint8)": "f94d189f",
        "requestToBuy(uint256,uint256,uint256,uint32)": "10777ac5",
        "revokeDeal(address,uint256,string)": "467fb8f2",
        "revokePledge(uint256,uint256)": "f424672b",
        "revokeRole(bytes32,uint256)": "19d61ad9",
        "revokeSwapOrder(uint256,uint256)": "b73cb699",
        "setAmtBase(bool)": "da6a43d6",
        "setBook(uint256,address)": "41dce6e0",
        "setBookeeper(uint256,address)": "a00960f1",
        "setDirectKeeper(address)": "6be8496f",
        "setGeneralCounsel(uint256)": "4a14beb1",
        "setMaxQtyOfMembers(uint8)": "1022489b",
        "setOwner(uint256)": "8041494e",
        "setPayInAmt(uint256,uint64)": "9cc12eb2",
        "setRegNumHash(bytes32)": "a3e78f01",
        "setRoleAdmin(bytes32,uint256)": "5171ebd4",
        "setVoteBase(bool)": "bdc36f62",
        "signIA(address,bytes32)": "fa0be085",
        "signSHA(address,bytes32)": "2c425acc",
        "symbolOfCompany()": "a8ccff4b",
        "takeGiftShares(address,uint256)": "77a9dfa0",
        "takePosition(uint256,uint256,uint256)": "3e2032ab",
        "terminateDeal(address,uint256)": "fd95c4c0",
        "transferPledge(uint256,uint256,uint40,uint64)": "542f28e6",
        "transferTargetShare(address,uint256)": "18c678aa",
        "updateOracle(uint256,uint64,uint64,uint64)": "2b6c0ce1",
        "updatePaidInDeadline(uint256,uint48)": "4fc3e83f",
        "voteCounting(uint256)": "f8fb9e1d",
        "withdrawPayInAmt(uint256)": "3311ece6"
    },
    "gasEstimates": {
        "creation": {
            "codeDepositCost": "3891200",
            "executionCost": "4421",
            "totalCost": "3895621"
        },
        "external": {
            "abandonRole(bytes32)": "infinite",
            "acceptAlongDeal(address,uint256,uint256,bytes32)": "infinite",
            "acceptFirstRefusal(address,uint256,bytes32)": "infinite",
            "acceptSHA(bytes32)": "infinite",
            "appointOfficer(uint256,uint256,uint256)": "infinite",
            "boardVoteCounting(uint256)": "infinite",
            "castBoardVote(uint256,uint8,bytes32)": "infinite",
            "castGMVote(uint256,uint8,bytes32)": "infinite",
            "circulateIA(address,bytes32,bytes32)": "infinite",
            "circulateSHA(address,uint256,bytes32,bytes32)": "infinite",
            "closeDeal(address,uint256,string)": "infinite",
            "createBoardSeal()": "infinite",
            "createCorpSeal()": "infinite",
            "createIA(uint16)": "infinite",
            "createPledge(uint256,uint40,uint16,uint64,uint64,uint64)": "infinite",
            "createSHA(uint16)": "infinite",
            "decreaseCapital(uint256,uint64,uint64)": "infinite",
            "effectiveSHA(address)": "infinite",
            "entrustDirectorDelegate(uint256,uint256)": "infinite",
            "entrustMemberDelegate(uint256,uint256)": "infinite",
            "execAction(uint256,address[],uint256[],bytes[],bytes32)": "infinite",
            "execAntiDilution(address,uint256,uint256,bytes32)": "infinite",
            "execBoardAction(uint8,address[],uint256[],bytes[],bytes32)": "infinite",
            "execDragAlong(address,uint256,uint256,uint64,uint64,bytes32)": "infinite",
            "execFirstRefusal(uint256,uint256,address,uint256,bytes32)": "infinite",
            "execOption(uint256)": "infinite",
            "execPledge(uint256,uint256)": "infinite",
            "execSwapOrder(uint256,uint256)": "infinite",
            "execTagAlong(address,uint256,uint256,uint64,uint64,bytes32)": "infinite",
            "extendPledge(uint256,uint256,uint16)": "infinite",
            "finalized()": "2483",
            "getBook(uint256)": "2610",
            "getBookeeper()": "infinite",
            "getGeneralCounsel()": "infinite",
            "getOwner()": "infinite",
            "grantRole(bytes32,uint256)": "infinite",
            "hasRole(bytes32,uint256)": "infinite",
            "init(uint256,address,address,address)": "infinite",
            "isKeeper(address)": "infinite",
            "issueNewShare(address,uint256)": "infinite",
            "lockContents()": "infinite",
            "lockPledge(uint256,uint256,bytes32)": "infinite",
            "lockSwapOrder(uint256,uint256,bytes32)": "infinite",
            "nameOfCompany()": "infinite",
            "nominateOfficer(uint256,uint256,uint40)": "infinite",
            "placeSwapOrder(uint256,uint32,uint32,uint32)": "infinite",
            "proposeBoardAction(uint8,address[],uint256[],bytes[],bytes32,uint40)": "infinite",
            "proposeGMAction(uint256,address[],uint256[],bytes[],bytes32,uint40)": "infinite",
            "proposeIA(address,uint256)": "infinite",
            "pushToCoffer(address,uint256,bytes32,uint48)": "infinite",
            "quitPosition()": "infinite",
            "refundDebt(uint256,uint256,uint64)": "infinite",
            "regNumHash()": "2405",
            "releasePledge(uint256,uint256,string)": "infinite",
            "releaseSwapOrder(uint256,uint256,string)": "infinite",
            "removeDirector(uint256)": "infinite",
            "renounceRole(bytes32)": "infinite",
            "requestPaidInCapital(uint256,string,uint8)": "infinite",
            "requestToBuy(uint256,uint256,uint256,uint32)": "infinite",
            "revokeDeal(address,uint256,string)": "infinite",
            "revokePledge(uint256,uint256)": "infinite",
            "revokeRole(bytes32,uint256)": "infinite",
            "revokeSwapOrder(uint256,uint256)": "infinite",
            "setAmtBase(bool)": "infinite",
            "setBook(uint256,address)": "infinite",
            "setBookeeper(uint256,address)": "infinite",
            "setDirectKeeper(address)": "infinite",
            "setGeneralCounsel(uint256)": "infinite",
            "setMaxQtyOfMembers(uint8)": "infinite",
            "setOwner(uint256)": "infinite",
            "setPayInAmt(uint256,uint64)": "infinite",
            "setRegNumHash(bytes32)": "infinite",
            "setRoleAdmin(bytes32,uint256)": "infinite",
            "setVoteBase(bool)": "infinite",
            "signIA(address,bytes32)": "infinite",
            "signSHA(address,bytes32)": "infinite",
            "symbolOfCompany()": "infinite",
            "takeGiftShares(address,uint256)": "infinite",
            "takePosition(uint256,uint256,uint256)": "infinite",
            "terminateDeal(address,uint256)": "infinite",
            "transferPledge(uint256,uint256,uint40,uint64)": "infinite",
            "transferTargetShare(address,uint256)": "infinite",
            "updateOracle(uint256,uint64,uint64,uint64)": "infinite",
            "updatePaidInDeadline(uint256,uint48)": "infinite",
            "voteCounting(uint256)": "infinite",
            "withdrawPayInAmt(uint256)": "infinite"
        }
    }
}