{
    "contractName": "GeneralKeeper",
    "abi": [
        {
            "anonymous": false,
            "inputs": [
                {
                    "indexed": false,
                    "internalType": "uint40",
                    "name": "owner",
                    "type": "uint40"
                },
                {
                    "indexed": false,
                    "internalType": "address",
                    "name": "directKeeper",
                    "type": "address"
                },
                {
                    "indexed": false,
                    "internalType": "address",
                    "name": "regCenter",
                    "type": "address"
                },
                {
                    "indexed": false,
                    "internalType": "address",
                    "name": "generalKeeper",
                    "type": "address"
                }
            ],
            "name": "Init",
            "type": "event"
        },
        {
            "anonymous": false,
            "inputs": [],
            "name": "LockContents",
            "type": "event"
        },
        {
            "anonymous": false,
            "inputs": [
                {
                    "indexed": false,
                    "internalType": "uint16",
                    "name": "title",
                    "type": "uint16"
                },
                {
                    "indexed": false,
                    "internalType": "address",
                    "name": "book",
                    "type": "address"
                }
            ],
            "name": "SetBook",
            "type": "event"
        },
        {
            "anonymous": false,
            "inputs": [
                {
                    "indexed": false,
                    "internalType": "uint16",
                    "name": "title",
                    "type": "uint16"
                },
                {
                    "indexed": false,
                    "internalType": "address",
                    "name": "keeper",
                    "type": "address"
                }
            ],
            "name": "SetBookeeper",
            "type": "event"
        },
        {
            "anonymous": false,
            "inputs": [
                {
                    "indexed": false,
                    "internalType": "address",
                    "name": "keeper",
                    "type": "address"
                }
            ],
            "name": "SetDirectKeeper",
            "type": "event"
        },
        {
            "anonymous": false,
            "inputs": [
                {
                    "indexed": false,
                    "internalType": "uint256",
                    "name": "acct",
                    "type": "uint256"
                }
            ],
            "name": "SetGeneralCounsel",
            "type": "event"
        },
        {
            "anonymous": false,
            "inputs": [
                {
                    "indexed": false,
                    "internalType": "address",
                    "name": "gk",
                    "type": "address"
                }
            ],
            "name": "SetGeneralKeeper",
            "type": "event"
        },
        {
            "anonymous": false,
            "inputs": [
                {
                    "indexed": false,
                    "internalType": "uint256",
                    "name": "acct",
                    "type": "uint256"
                }
            ],
            "name": "SetOwner",
            "type": "event"
        },
        {
            "anonymous": false,
            "inputs": [
                {
                    "indexed": false,
                    "internalType": "address",
                    "name": "rc",
                    "type": "address"
                }
            ],
            "name": "SetRegCenter",
            "type": "event"
        },
        {
            "anonymous": false,
            "inputs": [
                {
                    "indexed": false,
                    "internalType": "bytes32",
                    "name": "numHash",
                    "type": "bytes32"
                }
            ],
            "name": "SetRegNumberHash",
            "type": "event"
        },
        {
            "inputs": [
                {
                    "internalType": "bytes32",
                    "name": "role",
                    "type": "bytes32"
                }
            ],
            "name": "abandonRole",
            "outputs": [],
            "stateMutability": "nonpayable",
            "type": "function"
        },
        {
            "inputs": [
                {
                    "internalType": "address",
                    "name": "ia",
                    "type": "address"
                },
                {
                    "internalType": "bytes32",
                    "name": "sn",
                    "type": "bytes32"
                },
                {
                    "internalType": "bytes32",
                    "name": "sigHash",
                    "type": "bytes32"
                }
            ],
            "name": "acceptDragAlong",
            "outputs": [],
            "stateMutability": "nonpayable",
            "type": "function"
        },
        {
            "inputs": [
                {
                    "internalType": "address",
                    "name": "ia",
                    "type": "address"
                },
                {
                    "internalType": "bytes32",
                    "name": "snOfOrg",
                    "type": "bytes32"
                },
                {
                    "internalType": "uint16",
                    "name": "ssnOfFR",
                    "type": "uint16"
                },
                {
                    "internalType": "bytes32",
                    "name": "sigHash",
                    "type": "bytes32"
                }
            ],
            "name": "acceptFirstRefusal",
            "outputs": [],
            "stateMutability": "nonpayable",
            "type": "function"
        },
        {
            "inputs": [
                {
                    "internalType": "bytes32",
                    "name": "sigHash",
                    "type": "bytes32"
                }
            ],
            "name": "acceptSHA",
            "outputs": [],
            "stateMutability": "nonpayable",
            "type": "function"
        },
        {
            "inputs": [
                {
                    "internalType": "address",
                    "name": "ia",
                    "type": "address"
                },
                {
                    "internalType": "bytes32",
                    "name": "sn",
                    "type": "bytes32"
                },
                {
                    "internalType": "bytes32",
                    "name": "sigHash",
                    "type": "bytes32"
                }
            ],
            "name": "acceptTagAlong",
            "outputs": [],
            "stateMutability": "nonpayable",
            "type": "function"
        },
        {
            "inputs": [
                {
                    "internalType": "bytes32",
                    "name": "sn",
                    "type": "bytes32"
                },
                {
                    "internalType": "bytes32",
                    "name": "shareNumber",
                    "type": "bytes32"
                },
                {
                    "internalType": "uint64",
                    "name": "paidPar",
                    "type": "uint64"
                }
            ],
            "name": "addFuture",
            "outputs": [],
            "stateMutability": "nonpayable",
            "type": "function"
        },
        {
            "inputs": [
                {
                    "internalType": "bytes32",
                    "name": "bsRule",
                    "type": "bytes32"
                },
                {
                    "internalType": "uint8",
                    "name": "seqOfTitle",
                    "type": "uint8"
                },
                {
                    "internalType": "uint40",
                    "name": "candidate",
                    "type": "uint40"
                }
            ],
            "name": "appointOfficer",
            "outputs": [],
            "stateMutability": "nonpayable",
            "type": "function"
        },
        {
            "inputs": [
                {
                    "internalType": "uint256",
                    "name": "actionId",
                    "type": "uint256"
                }
            ],
            "name": "boardVoteCounting",
            "outputs": [],
            "stateMutability": "nonpayable",
            "type": "function"
        },
        {
            "inputs": [
                {
                    "internalType": "uint256",
                    "name": "actionId",
                    "type": "uint256"
                },
                {
                    "internalType": "uint8",
                    "name": "attitude",
                    "type": "uint8"
                },
                {
                    "internalType": "bytes32",
                    "name": "sigHash",
                    "type": "bytes32"
                }
            ],
            "name": "castBoardVote",
            "outputs": [],
            "stateMutability": "nonpayable",
            "type": "function"
        },
        {
            "inputs": [
                {
                    "internalType": "uint256",
                    "name": "motionId",
                    "type": "uint256"
                },
                {
                    "internalType": "uint8",
                    "name": "attitude",
                    "type": "uint8"
                },
                {
                    "internalType": "bytes32",
                    "name": "sigHash",
                    "type": "bytes32"
                }
            ],
            "name": "castGMVote",
            "outputs": [],
            "stateMutability": "nonpayable",
            "type": "function"
        },
        {
            "inputs": [
                {
                    "internalType": "address",
                    "name": "body",
                    "type": "address"
                },
                {
                    "internalType": "bytes32",
                    "name": "docUrl",
                    "type": "bytes32"
                },
                {
                    "internalType": "bytes32",
                    "name": "docHash",
                    "type": "bytes32"
                }
            ],
            "name": "circulateIA",
            "outputs": [],
            "stateMutability": "nonpayable",
            "type": "function"
        },
        {
            "inputs": [
                {
                    "internalType": "address",
                    "name": "body",
                    "type": "address"
                },
                {
                    "internalType": "bytes32",
                    "name": "rule",
                    "type": "bytes32"
                },
                {
                    "internalType": "bytes32",
                    "name": "docUrl",
                    "type": "bytes32"
                },
                {
                    "internalType": "bytes32",
                    "name": "docHash",
                    "type": "bytes32"
                }
            ],
            "name": "circulateSHA",
            "outputs": [],
            "stateMutability": "nonpayable",
            "type": "function"
        },
        {
            "inputs": [
                {
                    "internalType": "address",
                    "name": "ia",
                    "type": "address"
                },
                {
                    "internalType": "bytes32",
                    "name": "sn",
                    "type": "bytes32"
                },
                {
                    "internalType": "string",
                    "name": "hashKey",
                    "type": "string"
                }
            ],
            "name": "closeDeal",
            "outputs": [],
            "stateMutability": "nonpayable",
            "type": "function"
        },
        {
            "inputs": [
                {
                    "internalType": "bytes32",
                    "name": "sn",
                    "type": "bytes32"
                },
                {
                    "internalType": "string",
                    "name": "hashKey",
                    "type": "string"
                }
            ],
            "name": "closeOption",
            "outputs": [],
            "stateMutability": "nonpayable",
            "type": "function"
        },
        {
            "inputs": [],
            "name": "createBoardSeal",
            "outputs": [],
            "stateMutability": "nonpayable",
            "type": "function"
        },
        {
            "inputs": [],
            "name": "createCorpSeal",
            "outputs": [],
            "stateMutability": "nonpayable",
            "type": "function"
        },
        {
            "inputs": [
                {
                    "internalType": "uint8",
                    "name": "typeOfIA",
                    "type": "uint8"
                }
            ],
            "name": "createIA",
            "outputs": [],
            "stateMutability": "nonpayable",
            "type": "function"
        },
        {
            "inputs": [
                {
                    "internalType": "bytes32",
                    "name": "sn",
                    "type": "bytes32"
                },
                {
                    "internalType": "uint40",
                    "name": "rightholder",
                    "type": "uint40"
                },
                {
                    "internalType": "uint64",
                    "name": "paid",
                    "type": "uint64"
                },
                {
                    "internalType": "uint64",
                    "name": "par",
                    "type": "uint64"
                }
            ],
            "name": "createOption",
            "outputs": [],
            "stateMutability": "nonpayable",
            "type": "function"
        },
        {
            "inputs": [
                {
                    "internalType": "bytes32",
                    "name": "sn",
                    "type": "bytes32"
                },
                {
                    "internalType": "bytes32",
                    "name": "shareNumber",
                    "type": "bytes32"
                },
                {
                    "internalType": "uint64",
                    "name": "pledgedPar",
                    "type": "uint64"
                },
                {
                    "internalType": "uint40",
                    "name": "creditor",
                    "type": "uint40"
                },
                {
                    "internalType": "uint16",
                    "name": "monOfGuarantee",
                    "type": "uint16"
                },
                {
                    "internalType": "uint64",
                    "name": "guaranteedAmt",
                    "type": "uint64"
                }
            ],
            "name": "createPledge",
            "outputs": [],
            "stateMutability": "nonpayable",
            "type": "function"
        },
        {
            "inputs": [
                {
                    "internalType": "uint8",
                    "name": "docType",
                    "type": "uint8"
                }
            ],
            "name": "createSHA",
            "outputs": [],
            "stateMutability": "nonpayable",
            "type": "function"
        },
        {
            "inputs": [
                {
                    "internalType": "uint32",
                    "name": "ssn",
                    "type": "uint32"
                },
                {
                    "internalType": "uint64",
                    "name": "parValue",
                    "type": "uint64"
                },
                {
                    "internalType": "uint64",
                    "name": "paidPar",
                    "type": "uint64"
                }
            ],
            "name": "decreaseCapital",
            "outputs": [],
            "stateMutability": "nonpayable",
            "type": "function"
        },
        {
            "inputs": [
                {
                    "internalType": "bytes32",
                    "name": "sn",
                    "type": "bytes32"
                }
            ],
            "name": "delPledge",
            "outputs": [],
            "stateMutability": "nonpayable",
            "type": "function"
        },
        {
            "inputs": [
                {
                    "internalType": "address",
                    "name": "body",
                    "type": "address"
                }
            ],
            "name": "effectiveSHA",
            "outputs": [],
            "stateMutability": "nonpayable",
            "type": "function"
        },
        {
            "inputs": [
                {
                    "internalType": "uint40",
                    "name": "delegate",
                    "type": "uint40"
                },
                {
                    "internalType": "uint256",
                    "name": "actionId",
                    "type": "uint256"
                }
            ],
            "name": "entrustDirectorDelegate",
            "outputs": [],
            "stateMutability": "nonpayable",
            "type": "function"
        },
        {
            "inputs": [
                {
                    "internalType": "uint40",
                    "name": "delegate",
                    "type": "uint40"
                },
                {
                    "internalType": "uint256",
                    "name": "motionId",
                    "type": "uint256"
                }
            ],
            "name": "entrustMemberDelegate",
            "outputs": [],
            "stateMutability": "nonpayable",
            "type": "function"
        },
        {
            "inputs": [
                {
                    "internalType": "uint8",
                    "name": "actionType",
                    "type": "uint8"
                },
                {
                    "internalType": "address[]",
                    "name": "targets",
                    "type": "address[]"
                },
                {
                    "internalType": "uint256[]",
                    "name": "values",
                    "type": "uint256[]"
                },
                {
                    "internalType": "bytes[]",
                    "name": "params",
                    "type": "bytes[]"
                },
                {
                    "internalType": "bytes32",
                    "name": "desHash",
                    "type": "bytes32"
                }
            ],
            "name": "execAction",
            "outputs": [
                {
                    "internalType": "uint256",
                    "name": "",
                    "type": "uint256"
                }
            ],
            "stateMutability": "nonpayable",
            "type": "function"
        },
        {
            "inputs": [
                {
                    "internalType": "address",
                    "name": "ia",
                    "type": "address"
                },
                {
                    "internalType": "bytes32",
                    "name": "sn",
                    "type": "bytes32"
                },
                {
                    "internalType": "bytes32",
                    "name": "shareNumber",
                    "type": "bytes32"
                },
                {
                    "internalType": "bytes32",
                    "name": "sigHash",
                    "type": "bytes32"
                }
            ],
            "name": "execAntiDilution",
            "outputs": [],
            "stateMutability": "nonpayable",
            "type": "function"
        },
        {
            "inputs": [
                {
                    "internalType": "uint8",
                    "name": "actionType",
                    "type": "uint8"
                },
                {
                    "internalType": "address[]",
                    "name": "targets",
                    "type": "address[]"
                },
                {
                    "internalType": "uint256[]",
                    "name": "values",
                    "type": "uint256[]"
                },
                {
                    "internalType": "bytes[]",
                    "name": "params",
                    "type": "bytes[]"
                },
                {
                    "internalType": "bytes32",
                    "name": "desHash",
                    "type": "bytes32"
                }
            ],
            "name": "execBoardAction",
            "outputs": [],
            "stateMutability": "nonpayable",
            "type": "function"
        },
        {
            "inputs": [
                {
                    "internalType": "address",
                    "name": "ia",
                    "type": "address"
                },
                {
                    "internalType": "bytes32",
                    "name": "sn",
                    "type": "bytes32"
                },
                {
                    "internalType": "bytes32",
                    "name": "shareNumber",
                    "type": "bytes32"
                },
                {
                    "internalType": "uint64",
                    "name": "paid",
                    "type": "uint64"
                },
                {
                    "internalType": "uint64",
                    "name": "par",
                    "type": "uint64"
                },
                {
                    "internalType": "bytes32",
                    "name": "sigHash",
                    "type": "bytes32"
                }
            ],
            "name": "execDragAlong",
            "outputs": [],
            "stateMutability": "nonpayable",
            "type": "function"
        },
        {
            "inputs": [
                {
                    "internalType": "bytes32",
                    "name": "rule",
                    "type": "bytes32"
                },
                {
                    "internalType": "uint256",
                    "name": "seqOfRightholder",
                    "type": "uint256"
                },
                {
                    "internalType": "address",
                    "name": "ia",
                    "type": "address"
                },
                {
                    "internalType": "bytes32",
                    "name": "sn",
                    "type": "bytes32"
                },
                {
                    "internalType": "bytes32",
                    "name": "sigHash",
                    "type": "bytes32"
                }
            ],
            "name": "execFirstRefusal",
            "outputs": [],
            "stateMutability": "nonpayable",
            "type": "function"
        },
        {
            "inputs": [
                {
                    "internalType": "bytes32",
                    "name": "sn",
                    "type": "bytes32"
                }
            ],
            "name": "execOption",
            "outputs": [],
            "stateMutability": "nonpayable",
            "type": "function"
        },
        {
            "inputs": [
                {
                    "internalType": "address",
                    "name": "ia",
                    "type": "address"
                },
                {
                    "internalType": "bytes32",
                    "name": "sn",
                    "type": "bytes32"
                },
                {
                    "internalType": "bytes32",
                    "name": "shareNumber",
                    "type": "bytes32"
                },
                {
                    "internalType": "uint64",
                    "name": "paid",
                    "type": "uint64"
                },
                {
                    "internalType": "uint64",
                    "name": "par",
                    "type": "uint64"
                },
                {
                    "internalType": "bytes32",
                    "name": "sigHash",
                    "type": "bytes32"
                }
            ],
            "name": "execTagAlong",
            "outputs": [],
            "stateMutability": "nonpayable",
            "type": "function"
        },
        {
            "inputs": [],
            "name": "finalized",
            "outputs": [
                {
                    "internalType": "bool",
                    "name": "",
                    "type": "bool"
                }
            ],
            "stateMutability": "view",
            "type": "function"
        },
        {
            "inputs": [],
            "name": "getBookeeper",
            "outputs": [
                {
                    "internalType": "address",
                    "name": "",
                    "type": "address"
                }
            ],
            "stateMutability": "view",
            "type": "function"
        },
        {
            "inputs": [],
            "name": "getGeneralCounsel",
            "outputs": [
                {
                    "internalType": "uint40",
                    "name": "",
                    "type": "uint40"
                }
            ],
            "stateMutability": "view",
            "type": "function"
        },
        {
            "inputs": [],
            "name": "getOwner",
            "outputs": [
                {
                    "internalType": "uint40",
                    "name": "",
                    "type": "uint40"
                }
            ],
            "stateMutability": "view",
            "type": "function"
        },
        {
            "inputs": [
                {
                    "internalType": "bytes32",
                    "name": "role",
                    "type": "bytes32"
                },
                {
                    "internalType": "uint40",
                    "name": "acct",
                    "type": "uint40"
                }
            ],
            "name": "grantRole",
            "outputs": [],
            "stateMutability": "nonpayable",
            "type": "function"
        },
        {
            "inputs": [
                {
                    "internalType": "bytes32",
                    "name": "role",
                    "type": "bytes32"
                },
                {
                    "internalType": "uint40",
                    "name": "acct",
                    "type": "uint40"
                }
            ],
            "name": "hasRole",
            "outputs": [
                {
                    "internalType": "bool",
                    "name": "",
                    "type": "bool"
                }
            ],
            "stateMutability": "view",
            "type": "function"
        },
        {
            "inputs": [
                {
                    "internalType": "uint40",
                    "name": "owner",
                    "type": "uint40"
                },
                {
                    "internalType": "address",
                    "name": "directKeeper",
                    "type": "address"
                },
                {
                    "internalType": "address",
                    "name": "regCenter",
                    "type": "address"
                },
                {
                    "internalType": "address",
                    "name": "generalKeeper",
                    "type": "address"
                }
            ],
            "name": "init",
            "outputs": [],
            "stateMutability": "nonpayable",
            "type": "function"
        },
        {
            "inputs": [
                {
                    "internalType": "address",
                    "name": "caller",
                    "type": "address"
                }
            ],
            "name": "isKeeper",
            "outputs": [
                {
                    "internalType": "bool",
                    "name": "flag",
                    "type": "bool"
                }
            ],
            "stateMutability": "view",
            "type": "function"
        },
        {
            "inputs": [
                {
                    "internalType": "address",
                    "name": "ia",
                    "type": "address"
                },
                {
                    "internalType": "bytes32",
                    "name": "sn",
                    "type": "bytes32"
                }
            ],
            "name": "issueNewShare",
            "outputs": [],
            "stateMutability": "nonpayable",
            "type": "function"
        },
        {
            "inputs": [
                {
                    "internalType": "bytes32",
                    "name": "sn",
                    "type": "bytes32"
                }
            ],
            "name": "joinOptionAsObligor",
            "outputs": [],
            "stateMutability": "nonpayable",
            "type": "function"
        },
        {
            "inputs": [],
            "name": "lockContents",
            "outputs": [],
            "stateMutability": "nonpayable",
            "type": "function"
        },
        {
            "inputs": [
                {
                    "internalType": "bytes32",
                    "name": "sn",
                    "type": "bytes32"
                },
                {
                    "internalType": "bytes32",
                    "name": "hashLock",
                    "type": "bytes32"
                }
            ],
            "name": "lockOption",
            "outputs": [],
            "stateMutability": "nonpayable",
            "type": "function"
        },
        {
            "inputs": [
                {
                    "internalType": "bytes32",
                    "name": "bsRule",
                    "type": "bytes32"
                },
                {
                    "internalType": "uint8",
                    "name": "seqOfTitle",
                    "type": "uint8"
                },
                {
                    "internalType": "uint40",
                    "name": "candidate",
                    "type": "uint40"
                }
            ],
            "name": "nominateOfficer",
            "outputs": [],
            "stateMutability": "nonpayable",
            "type": "function"
        },
        {
            "inputs": [
                {
                    "internalType": "uint8",
                    "name": "actionType",
                    "type": "uint8"
                },
                {
                    "internalType": "address[]",
                    "name": "targets",
                    "type": "address[]"
                },
                {
                    "internalType": "uint256[]",
                    "name": "values",
                    "type": "uint256[]"
                },
                {
                    "internalType": "bytes[]",
                    "name": "params",
                    "type": "bytes[]"
                },
                {
                    "internalType": "bytes32",
                    "name": "desHash",
                    "type": "bytes32"
                },
                {
                    "internalType": "uint40",
                    "name": "executor",
                    "type": "uint40"
                }
            ],
            "name": "proposeBoardAction",
            "outputs": [],
            "stateMutability": "nonpayable",
            "type": "function"
        },
        {
            "inputs": [
                {
                    "internalType": "uint8",
                    "name": "actionType",
                    "type": "uint8"
                },
                {
                    "internalType": "address[]",
                    "name": "targets",
                    "type": "address[]"
                },
                {
                    "internalType": "uint256[]",
                    "name": "values",
                    "type": "uint256[]"
                },
                {
                    "internalType": "bytes[]",
                    "name": "params",
                    "type": "bytes[]"
                },
                {
                    "internalType": "bytes32",
                    "name": "desHash",
                    "type": "bytes32"
                },
                {
                    "internalType": "uint40",
                    "name": "executor",
                    "type": "uint40"
                }
            ],
            "name": "proposeGMAction",
            "outputs": [],
            "stateMutability": "nonpayable",
            "type": "function"
        },
        {
            "inputs": [
                {
                    "internalType": "address",
                    "name": "ia",
                    "type": "address"
                },
                {
                    "internalType": "uint8",
                    "name": "typeOfDoc",
                    "type": "uint8"
                }
            ],
            "name": "proposeIA",
            "outputs": [],
            "stateMutability": "nonpayable",
            "type": "function"
        },
        {
            "inputs": [
                {
                    "internalType": "address",
                    "name": "ia",
                    "type": "address"
                },
                {
                    "internalType": "bytes32",
                    "name": "sn",
                    "type": "bytes32"
                },
                {
                    "internalType": "bytes32",
                    "name": "hashLock",
                    "type": "bytes32"
                },
                {
                    "internalType": "uint48",
                    "name": "closingDate",
                    "type": "uint48"
                }
            ],
            "name": "pushToCoffer",
            "outputs": [],
            "stateMutability": "nonpayable",
            "type": "function"
        },
        {
            "inputs": [],
            "name": "quitPosition",
            "outputs": [],
            "stateMutability": "nonpayable",
            "type": "function"
        },
        {
            "inputs": [],
            "name": "regNumHash",
            "outputs": [
                {
                    "internalType": "bytes32",
                    "name": "",
                    "type": "bytes32"
                }
            ],
            "stateMutability": "view",
            "type": "function"
        },
        {
            "inputs": [
                {
                    "internalType": "bytes32",
                    "name": "sn",
                    "type": "bytes32"
                }
            ],
            "name": "releasePledges",
            "outputs": [],
            "stateMutability": "nonpayable",
            "type": "function"
        },
        {
            "inputs": [
                {
                    "internalType": "uint40",
                    "name": "director",
                    "type": "uint40"
                }
            ],
            "name": "removeDirector",
            "outputs": [],
            "stateMutability": "nonpayable",
            "type": "function"
        },
        {
            "inputs": [
                {
                    "internalType": "bytes32",
                    "name": "sn",
                    "type": "bytes32"
                },
                {
                    "internalType": "bytes32",
                    "name": "ft",
                    "type": "bytes32"
                }
            ],
            "name": "removeFuture",
            "outputs": [],
            "stateMutability": "nonpayable",
            "type": "function"
        },
        {
            "inputs": [
                {
                    "internalType": "address",
                    "name": "body",
                    "type": "address"
                }
            ],
            "name": "removeIA",
            "outputs": [],
            "stateMutability": "nonpayable",
            "type": "function"
        },
        {
            "inputs": [
                {
                    "internalType": "bytes32",
                    "name": "sn",
                    "type": "bytes32"
                },
                {
                    "internalType": "uint40",
                    "name": "obligor",
                    "type": "uint40"
                }
            ],
            "name": "removeObligorFromOption",
            "outputs": [],
            "stateMutability": "nonpayable",
            "type": "function"
        },
        {
            "inputs": [
                {
                    "internalType": "address",
                    "name": "body",
                    "type": "address"
                }
            ],
            "name": "removeSHA",
            "outputs": [],
            "stateMutability": "nonpayable",
            "type": "function"
        },
        {
            "inputs": [
                {
                    "internalType": "bytes32",
                    "name": "role",
                    "type": "bytes32"
                }
            ],
            "name": "renounceRole",
            "outputs": [],
            "stateMutability": "nonpayable",
            "type": "function"
        },
        {
            "inputs": [
                {
                    "internalType": "bytes32",
                    "name": "sn",
                    "type": "bytes32"
                },
                {
                    "internalType": "string",
                    "name": "hashKey",
                    "type": "string"
                }
            ],
            "name": "requestPaidInCapital",
            "outputs": [],
            "stateMutability": "nonpayable",
            "type": "function"
        },
        {
            "inputs": [
                {
                    "internalType": "bytes32",
                    "name": "sn",
                    "type": "bytes32"
                },
                {
                    "internalType": "bytes32",
                    "name": "shareNumber",
                    "type": "bytes32"
                },
                {
                    "internalType": "uint64",
                    "name": "paidPar",
                    "type": "uint64"
                }
            ],
            "name": "requestPledge",
            "outputs": [],
            "stateMutability": "nonpayable",
            "type": "function"
        },
        {
            "inputs": [
                {
                    "internalType": "uint256",
                    "name": "motionId",
                    "type": "uint256"
                },
                {
                    "internalType": "bytes32",
                    "name": "snOfDeal",
                    "type": "bytes32"
                },
                {
                    "internalType": "uint40",
                    "name": "againstVoter",
                    "type": "uint40"
                }
            ],
            "name": "requestToBuy",
            "outputs": [],
            "stateMutability": "nonpayable",
            "type": "function"
        },
        {
            "inputs": [
                {
                    "internalType": "address",
                    "name": "ia",
                    "type": "address"
                },
                {
                    "internalType": "bytes32",
                    "name": "sn",
                    "type": "bytes32"
                },
                {
                    "internalType": "string",
                    "name": "hashKey",
                    "type": "string"
                }
            ],
            "name": "revokeDeal",
            "outputs": [],
            "stateMutability": "nonpayable",
            "type": "function"
        },
        {
            "inputs": [
                {
                    "internalType": "bytes32",
                    "name": "sn",
                    "type": "bytes32"
                }
            ],
            "name": "revokeOption",
            "outputs": [],
            "stateMutability": "nonpayable",
            "type": "function"
        },
        {
            "inputs": [
                {
                    "internalType": "bytes32",
                    "name": "role",
                    "type": "bytes32"
                },
                {
                    "internalType": "uint40",
                    "name": "acct",
                    "type": "uint40"
                }
            ],
            "name": "revokeRole",
            "outputs": [],
            "stateMutability": "nonpayable",
            "type": "function"
        },
        {
            "inputs": [
                {
                    "internalType": "bool",
                    "name": "onPar",
                    "type": "bool"
                }
            ],
            "name": "setAmtBase",
            "outputs": [],
            "stateMutability": "nonpayable",
            "type": "function"
        },
        {
            "inputs": [
                {
                    "internalType": "uint16",
                    "name": "title",
                    "type": "uint16"
                },
                {
                    "internalType": "address",
                    "name": "book",
                    "type": "address"
                }
            ],
            "name": "setBook",
            "outputs": [],
            "stateMutability": "nonpayable",
            "type": "function"
        },
        {
            "inputs": [
                {
                    "internalType": "uint8",
                    "name": "title",
                    "type": "uint8"
                },
                {
                    "internalType": "address",
                    "name": "keeper",
                    "type": "address"
                }
            ],
            "name": "setBookeeper",
            "outputs": [],
            "stateMutability": "nonpayable",
            "type": "function"
        },
        {
            "inputs": [
                {
                    "internalType": "address",
                    "name": "keeper",
                    "type": "address"
                }
            ],
            "name": "setDirectKeeper",
            "outputs": [],
            "stateMutability": "nonpayable",
            "type": "function"
        },
        {
            "inputs": [
                {
                    "internalType": "uint40",
                    "name": "acct",
                    "type": "uint40"
                }
            ],
            "name": "setGeneralCounsel",
            "outputs": [],
            "stateMutability": "nonpayable",
            "type": "function"
        },
        {
            "inputs": [
                {
                    "internalType": "uint8",
                    "name": "max",
                    "type": "uint8"
                }
            ],
            "name": "setMaxQtyOfMembers",
            "outputs": [],
            "stateMutability": "nonpayable",
            "type": "function"
        },
        {
            "inputs": [
                {
                    "internalType": "uint40",
                    "name": "acct",
                    "type": "uint40"
                }
            ],
            "name": "setOwner",
            "outputs": [],
            "stateMutability": "nonpayable",
            "type": "function"
        },
        {
            "inputs": [
                {
                    "internalType": "bytes32",
                    "name": "sn",
                    "type": "bytes32"
                },
                {
                    "internalType": "uint64",
                    "name": "amount",
                    "type": "uint64"
                }
            ],
            "name": "setPayInAmount",
            "outputs": [],
            "stateMutability": "nonpayable",
            "type": "function"
        },
        {
            "inputs": [
                {
                    "internalType": "bytes32",
                    "name": "_regNumHash",
                    "type": "bytes32"
                }
            ],
            "name": "setRegNumHash",
            "outputs": [],
            "stateMutability": "nonpayable",
            "type": "function"
        },
        {
            "inputs": [
                {
                    "internalType": "bytes32",
                    "name": "role",
                    "type": "bytes32"
                },
                {
                    "internalType": "uint40",
                    "name": "acct",
                    "type": "uint40"
                }
            ],
            "name": "setRoleAdmin",
            "outputs": [],
            "stateMutability": "nonpayable",
            "type": "function"
        },
        {
            "inputs": [
                {
                    "internalType": "address",
                    "name": "temp",
                    "type": "address"
                },
                {
                    "internalType": "uint8",
                    "name": "typeOfDoc",
                    "type": "uint8"
                }
            ],
            "name": "setTempOfIA",
            "outputs": [],
            "stateMutability": "nonpayable",
            "type": "function"
        },
        {
            "inputs": [
                {
                    "internalType": "address",
                    "name": "temp",
                    "type": "address"
                },
                {
                    "internalType": "uint8",
                    "name": "typeOfDoc",
                    "type": "uint8"
                }
            ],
            "name": "setTempOfSHA",
            "outputs": [],
            "stateMutability": "nonpayable",
            "type": "function"
        },
        {
            "inputs": [
                {
                    "internalType": "uint8",
                    "name": "title",
                    "type": "uint8"
                },
                {
                    "internalType": "address",
                    "name": "addr",
                    "type": "address"
                }
            ],
            "name": "setTermTemplate",
            "outputs": [],
            "stateMutability": "nonpayable",
            "type": "function"
        },
        {
            "inputs": [
                {
                    "internalType": "bool",
                    "name": "onPar",
                    "type": "bool"
                }
            ],
            "name": "setVoteBase",
            "outputs": [],
            "stateMutability": "nonpayable",
            "type": "function"
        },
        {
            "inputs": [
                {
                    "internalType": "address",
                    "name": "ia",
                    "type": "address"
                },
                {
                    "internalType": "bytes32",
                    "name": "sigHash",
                    "type": "bytes32"
                }
            ],
            "name": "signIA",
            "outputs": [],
            "stateMutability": "nonpayable",
            "type": "function"
        },
        {
            "inputs": [
                {
                    "internalType": "address",
                    "name": "sha",
                    "type": "address"
                },
                {
                    "internalType": "bytes32",
                    "name": "sigHash",
                    "type": "bytes32"
                }
            ],
            "name": "signSHA",
            "outputs": [],
            "stateMutability": "nonpayable",
            "type": "function"
        },
        {
            "inputs": [
                {
                    "internalType": "address",
                    "name": "ia",
                    "type": "address"
                },
                {
                    "internalType": "bytes32",
                    "name": "sn",
                    "type": "bytes32"
                }
            ],
            "name": "takeGiftShares",
            "outputs": [],
            "stateMutability": "nonpayable",
            "type": "function"
        },
        {
            "inputs": [
                {
                    "internalType": "bytes32",
                    "name": "bsRule",
                    "type": "bytes32"
                },
                {
                    "internalType": "uint8",
                    "name": "seqOfTitle",
                    "type": "uint8"
                },
                {
                    "internalType": "uint256",
                    "name": "motionId",
                    "type": "uint256"
                }
            ],
            "name": "takePosition",
            "outputs": [],
            "stateMutability": "nonpayable",
            "type": "function"
        },
        {
            "inputs": [
                {
                    "internalType": "address",
                    "name": "ia",
                    "type": "address"
                },
                {
                    "internalType": "bytes32",
                    "name": "sn",
                    "type": "bytes32"
                }
            ],
            "name": "transferTargetShare",
            "outputs": [],
            "stateMutability": "nonpayable",
            "type": "function"
        },
        {
            "inputs": [
                {
                    "internalType": "bytes32",
                    "name": "sn",
                    "type": "bytes32"
                },
                {
                    "internalType": "uint32",
                    "name": "d1",
                    "type": "uint32"
                },
                {
                    "internalType": "uint32",
                    "name": "d2",
                    "type": "uint32"
                }
            ],
            "name": "updateOracle",
            "outputs": [],
            "stateMutability": "nonpayable",
            "type": "function"
        },
        {
            "inputs": [
                {
                    "internalType": "uint32",
                    "name": "ssn",
                    "type": "uint32"
                },
                {
                    "internalType": "uint32",
                    "name": "line",
                    "type": "uint32"
                }
            ],
            "name": "updatePaidInDeadline",
            "outputs": [],
            "stateMutability": "nonpayable",
            "type": "function"
        },
        {
            "inputs": [
                {
                    "internalType": "bytes32",
                    "name": "sn",
                    "type": "bytes32"
                },
                {
                    "internalType": "uint40",
                    "name": "creditor",
                    "type": "uint40"
                },
                {
                    "internalType": "uint48",
                    "name": "expireDate",
                    "type": "uint48"
                },
                {
                    "internalType": "uint64",
                    "name": "pledgedPar",
                    "type": "uint64"
                },
                {
                    "internalType": "uint64",
                    "name": "guaranteedAmt",
                    "type": "uint64"
                }
            ],
            "name": "updatePledge",
            "outputs": [],
            "stateMutability": "nonpayable",
            "type": "function"
        },
        {
            "inputs": [
                {
                    "internalType": "uint256",
                    "name": "motionId",
                    "type": "uint256"
                }
            ],
            "name": "voteCounting",
            "outputs": [],
            "stateMutability": "nonpayable",
            "type": "function"
        },
        {
            "inputs": [
                {
                    "internalType": "bytes32",
                    "name": "sn",
                    "type": "bytes32"
                }
            ],
            "name": "withdrawPayInAmount",
            "outputs": [],
            "stateMutability": "nonpayable",
            "type": "function"
        }
    ],
    "bytecode": "608060405234801561001057600080fd5b506147e3806100206000396000f3fe608060405234801561001057600080fd5b50600436106104d85760003560e01c80638d52e29211610283578063cd4073281161015c578063e7e4859c116100ce578063f0e4b06d11610092578063f0e4b06d14610ae7578063f3782bd314610afa578063f8fb9e1d14610b0d578063f9ee371b14610b20578063fa0be08514610b29578063faf8b01814610b3c57600080fd5b8063e7e4859c14610a86578063ec58d13d14610a99578063ed21102314610aac578063eec1091e14610acc578063f045a76914610adf57600080fd5b8063d50e1a4711610120578063d50e1a4714610a14578063d9a2f90f14610a27578063da6a43d614610a3a578063db34d93414610a4d578063e12388f214610a60578063e50783e114610a7357600080fd5b8063cd407328146109c0578063d0f0ce51146109d3578063d1a0ce56146109e6578063d33168b2146109ee578063d489d88714610a0157600080fd5b8063ae2fc750116101f5578063bdc36f62116101b9578063bdc36f6214610959578063bf89776d1461096c578063bfb6a19814610974578063c0eb9e4b14610987578063c1be2ad61461099a578063c54ecfa8146109ad57600080fd5b8063ae2fc750146108f9578063b0e371851461090c578063b24d8e651461091f578063b3f05b9714610932578063bda549cf1461094657600080fd5b8063a02b544b11610247578063a02b544b14610887578063a0bad4541461089a578063a303fb07146108ad578063a3e78f01146108c0578063abbf6d13146108d3578063abd5c142146108e657600080fd5b80638d52e29214610828578063931e079c1461083b578063945abaf91461084e5780639619967a146108615780639fb9328e1461087457600080fd5b80635c57de79116103b55780637ba706e811610327578063821ee8ea116102eb578063821ee8ea146107c157806383336a07146107d45780638506c43f146107e757806385d578ea146107fa578063893d20e81461080d5780638bb9c5bf1461081557600080fd5b80637ba706e8146107545780637bce8afe146107675780637cbb47191461077a5780637d1249db1461079b5780637e2b9530146107ae57600080fd5b80636c77efee116103795780636c77efee146106e25780636dcd84f7146106f557806372a279781461070857806373e654921461071b578063740998151461072e57806379b2ec121461074157600080fd5b80635c57de79146106865780635f94411d14610699578063646e4b721461058f5780636ba42aaa146106ac5780636be8496f146106cf57600080fd5b80631f6b26091161044e5780633806f694116104125780633806f6941461061457806339f382c2146106275780633da9a6001461063a578063429c96081461064d578063480129101461066057806352ef3fa01461067357600080fd5b80631f6b2609146105b55780632167a7fc146105c8578063218355db146105db5780632c425acc146105ee5780633178a9a91461060157600080fd5b806314d3cb85116104a057806314d3cb851461054e57806316dc517e1461055657806317c51fec146105695780631976b2f01461057c5780631d3667041461058f5780631e0234be146105a257600080fd5b806304726d7a146104dd5780630c4919b7146104f25780631022489b14610505578063103f6edd14610518578063142d64d91461053b575b600080fd5b6104f06104eb3660046139ae565b610b4f565b005b6104f0610500366004613a22565b610bb7565b6104f0610513366004613a57565b610ca1565b610520610dab565b60405164ffffffffff90911681526020015b60405180910390f35b6104f0610549366004613a85565b610e37565b6104f0610ec6565b6104f0610564366004613abe565b610fd6565b6104f0610577366004613abe565b611064565b6104f061058a366004613abe565b611089565b6104f061059d366004613aee565b6110dc565b6104f06105b03660046139ae565b61113e565b6104f06105c3366004613b23565b611177565b6104f06105d6366004613b3c565b6111c1565b6104f06105e9366004613b71565b61121f565b6104f06105fc366004613b9d565b611271565b6104f061060f366004613bbb565b6112ca565b6104f0610622366004613bd8565b6113f2565b6104f0610635366004613b23565b611445565b6104f0610648366004613b23565b61145f565b6104f061065b366004613bfa565b611544565b6104f061066e366004613c43565b6115ea565b6104f0610681366004613a57565b611686565b6104f0610694366004613b23565b6116d2565b6104f06106a7366004613c95565b6116ec565b6106bf6106ba366004613cb8565b6117d2565b6040519015158152602001610532565b6104f06106dd366004613cb8565b6118ac565b6104f06106f0366004613b9d565b611965565b6104f0610703366004613cd5565b6119c0565b6104f0610716366004613d1c565b611a22565b6104f0610729366004613d62565b611a8e565b6104f061073c366004613abe565b611ae8565b6106bf61074f366004613abe565b611b0d565b6104f0610762366004613bbb565b611bae565b6104f0610775366004613f1d565b611cae565b61078d610788366004613fd2565b611d29565b604051908152602001610532565b6104f06107a9366004613b3c565b611dc6565b6104f06107bc366004613cb8565b611de1565b6104f06107cf366004614072565b611e33565b6104f06107e2366004613b23565b611f23565b6104f06107f5366004613aee565b611f3d565b6104f0610808366004613b23565b611f9d565b610520611fb7565b6104f0610823366004613b23565b611ff2565b6104f0610836366004613b9d565b61204b565b6104f0610849366004613a22565b612066565b6104f061085c366004613c43565b612147565b6104f061086f3660046140ce565b6121ae565b6104f0610882366004613b23565b61223c565b6104f0610895366004614143565b612256565b6104f06108a8366004614176565b612341565b6104f06108bb3660046141a2565b6125eb565b6104f06108ce366004613b23565b6126fc565b6104f06108e13660046140ce565b6127f7565b6104f06108f4366004613a22565b612817565b6104f06109073660046141be565b612874565b6104f061091a366004613b9d565b6128af565b6104f061092d366004613b23565b61298e565b60028054600160f01b900460ff16146106bf565b6104f0610954366004614176565b6129a8565b6104f0610967366004614224565b612a89565b6104f0612b61565b6104f0610982366004613cb8565b612bb9565b6104f0610995366004614257565b612bd3565b6104f06109a8366004613d62565b612c4e565b6104f06109bb3660046142b7565b612caa565b6104f06109ce366004613fd2565b612d9d565b6104f06109e13660046142f1565b612e2d565b6104f0612f11565b6104f06109fc366004613bd8565b613007565b6104f0610a0f366004613cb8565b613022565b6104f0610a22366004613f1d565b61303c565b6104f0610a35366004613a57565b61305a565b6104f0610a48366004614224565b613074565b6104f0610a5b366004613bbb565b61314c565b6104f0610a6e366004613b23565b613197565b6104f0610a8136600461431b565b61326e565b6104f0610a94366004613cd5565b6132ee565b6104f0610aa7366004613d62565b61330a565b610ab4613365565b6040516001600160a01b039091168152602001610532565b6104f0610ada366004614383565b6133eb565b6104f061345d565b6104f0610af5366004613b71565b61367c565b6104f0610b083660046143cb565b6136cf565b6104f0610b1b366004613b23565b61373b565b61078d60045481565b6104f0610b37366004613b9d565b613755565b6104f0610b4a3660046141be565b61376f565b600b5460405163023936bd60e11b81526001600160a01b03909116906304726d7a90610b81908590859060040161445c565b600060405180830381600087803b158015610b9b57600080fd5b505af1158015610baf573d6000803e3d6000fd5b505050505050565b604051633b11adbf60e21b815273__$364aad554dc80380f414546becdd2c1584$__9063ec46b6fc90610bf190600290339060040161447d565b60206040518083038186803b158015610c0957600080fd5b505af4158015610c1d573d6000803e3d6000fd5b505050506040513d601f19601f82011682018060405250810190610c419190614494565b610c665760405162461bcd60e51b8152600401610c5d906144b1565b60405180910390fd5b600554604051630c4919b760e01b81526001600160a01b03848116600483015260ff8416602483015290911690630c4919b790604401610b81565b604051633b11adbf60e21b815273__$364aad554dc80380f414546becdd2c1584$__9063ec46b6fc90610cdb90600290339060040161447d565b60206040518083038186803b158015610cf357600080fd5b505af4158015610d07573d6000803e3d6000fd5b505050506040513d601f19601f82011682018060405250810190610d2b9190614494565b610d475760405162461bcd60e51b8152600401610c5d906144b1565b600c54604051631022489b60e01b815260ff831660048201526001600160a01b0390911690631022489b906024015b600060405180830381600087803b158015610d9057600080fd5b505af1158015610da4573d6000803e3d6000fd5b5050505050565b60405163e8c0cc1d60e01b81526002600482015260009073__$364aad554dc80380f414546becdd2c1584$__9063e8c0cc1d906024015b60206040518083038186803b158015610dfa57600080fd5b505af4158015610e0e573d6000803e3d6000fd5b505050506040513d601f19601f82011682018060405250810190610e3291906144f7565b905090565b6007546001600160a01b0316633fb2be33848484610e536137aa565b6040516001600160e01b031960e087901b1681526004810194909452602484019290925264ffffffffff90811660448401521660648201526084015b600060405180830381600087803b158015610ea957600080fd5b505af1158015610ebd573d6000803e3d6000fd5b50505050505050565b604051633b11adbf60e21b815273__$364aad554dc80380f414546becdd2c1584$__9063ec46b6fc90610f0090600290339060040161447d565b60206040518083038186803b158015610f1857600080fd5b505af4158015610f2c573d6000803e3d6000fd5b505050506040513d601f19601f82011682018060405250810190610f509190614494565b610f6c5760405162461bcd60e51b8152600401610c5d906144b1565b600760009054906101000a90046001600160a01b03166001600160a01b03166314d3cb856040518163ffffffff1660e01b8152600401600060405180830381600087803b158015610fbc57600080fd5b505af1158015610fd0573d6000803e3d6000fd5b50505050565b73__$364aad554dc80380f414546becdd2c1584$__63427abff4600284610ffb6137aa565b6040516001600160e01b031960e086901b1681526004810193909352602483019190915264ffffffffff9081166044830152841660648201526084015b60006040518083038186803b15801561105057600080fd5b505af4158015610baf573d6000803e3d6000fd5b73__$364aad554dc80380f414546becdd2c1584$__638ce15845600284610ffb6137aa565b6009546001600160a01b031663d18e497083836110a46137aa565b6040516001600160e01b031960e086901b168152600481019390935264ffffffffff9182166024840152166044820152606401610b81565b600d546001600160a01b03166384c9e68784846110f76137aa565b6040516001600160e01b031960e086901b1681526001600160a01b039093166004840152602483019190915264ffffffffff16604482015260648101849052608401610e8f565b6009546001600160a01b031663c10d7e0883836111596137aa565b6040518463ffffffff1660e01b8152600401610b8193929190614514565b6008546001600160a01b031663ed3520f8826111916137aa565b6040516001600160e01b031960e085901b168152600481019290925264ffffffffff166024820152604401610d76565b6007546001600160a01b031663dbf1f4c484846111dc6137aa565b6040516001600160e01b031960e086901b168152600481019390935260ff909116602483015264ffffffffff908116604483015284166064820152608401610e8f565b6006546001600160a01b0316637d2c6fe76112386137aa565b6040516001600160e01b031960e084901b16815264ffffffffff9182166004820152908516602482015260448101849052606401610b81565b6008546001600160a01b0316639dd203328361128b6137aa565b6040516001600160e01b031960e085901b1681526001600160a01b03909216600483015264ffffffffff16602482015260448101849052606401610b81565b73__$364aad554dc80380f414546becdd2c1584$__63fe27108660026112ee6137aa565b6040516001600160e01b031960e085901b168152600481019290925264ffffffffff16602482015260440160206040518083038186803b15801561133157600080fd5b505af4158015611345573d6000803e3d6000fd5b505050506040513d601f19601f820116820180604052508101906113699190614494565b6113855760405162461bcd60e51b8152600401610c5d90614544565b604051632725ebef60e21b81526002600482015264ffffffffff8216602482015273__$364aad554dc80380f414546becdd2c1584$__90639c97afbc906044015b60006040518083038186803b1580156113de57600080fd5b505af4158015610da4573d6000803e3d6000fd5b6009546001600160a01b031663fe079aff838361140d6137aa565b6040516001600160e01b031960e086901b1681526004810193909352602483019190915264ffffffffff166044820152606401610b81565b6009546001600160a01b031663ff848225826111916137aa565b604051633b11adbf60e21b815273__$364aad554dc80380f414546becdd2c1584$__9063ec46b6fc9061149990600290339060040161447d565b60206040518083038186803b1580156114b157600080fd5b505af41580156114c5573d6000803e3d6000fd5b505050506040513d601f19601f820116820180604052508101906114e99190614494565b6115055760405162461bcd60e51b8152600401610c5d906144b1565b60405163cc99e11b60e01b8152600260048201526024810182905273__$364aad554dc80380f414546becdd2c1584$__9063cc99e11b906044016113c6565b600d546001600160a01b031663337bb453868686866115616137aa565b6040516001600160e01b031960e088901b168152600481019590955260248501939093526001600160a01b039091166044840152606483015264ffffffffff16608482015260a4810184905260c4015b600060405180830381600087803b1580156115cb57600080fd5b505af11580156115df573d6000803e3d6000fd5b505050505050505050565b600d546001600160a01b0316639622e8e68585856116066137aa565b6040516001600160e01b031960e087901b1681526001600160a01b0390941660048501526024840192909252604483015264ffffffffff1660648201526084810184905260a4015b600060405180830381600087803b15801561166857600080fd5b505af115801561167c573d6000803e3d6000fd5b5050505050505050565b6005546001600160a01b031663eeec1419826116a06137aa565b6040516001600160e01b031960e085901b16815260ff909216600483015264ffffffffff166024820152604401610d76565b6009546001600160a01b0316630190ab3f826111916137aa565b604051633b11adbf60e21b815273__$364aad554dc80380f414546becdd2c1584$__9063ec46b6fc9061172690600290339060040161447d565b60206040518083038186803b15801561173e57600080fd5b505af4158015611752573d6000803e3d6000fd5b505050506040513d601f19601f820116820180604052508101906117769190614494565b6117925760405162461bcd60e51b8152600401610c5d906144b1565b600b54604051635f94411d60e01b8152600481018490526001600160401b03831660248201526001600160a01b0390911690635f94411d90604401610b81565b6005546000906001600160a01b03838116911614806117fe57506006546001600160a01b038381169116145b8061181657506007546001600160a01b038381169116145b8061182e57506008546001600160a01b038381169116145b8061184657506009546001600160a01b038381169116145b8061185e5750600a546001600160a01b038381169116145b806118765750600b546001600160a01b038381169116145b8061188e5750600c546001600160a01b038381169116145b806118a65750600d546001600160a01b038381169116145b92915050565b604051630f07232560e01b8152600260048201523360248201526001600160a01b038216604482015273__$364aad554dc80380f414546becdd2c1584$__90630f0723259060640160006040518083038186803b15801561190c57600080fd5b505af4158015611920573d6000803e3d6000fd5b50506040516001600160a01b03841681527fe435cbeab64e4eae6497b9d8289704bd709d624a80704ef3ca9af777534bc6ec925060200190505b60405180910390a150565b6005546001600160a01b031663bae6f62383836119806137aa565b6040516001600160e01b031960e086901b1681526001600160a01b039093166004840152602483019190915264ffffffffff166044820152606401610b81565b6009546001600160a01b03166350836e6c8484846119dc6137aa565b6040516001600160e01b031960e087901b168152600481019490945260248401929092526001600160401b0316604483015264ffffffffff166064820152608401610e8f565b600d546001600160a01b0316633fc3742b858585611a3e6137aa565b6040516001600160e01b031960e087901b1681526001600160a01b039094166004850152602484019290925261ffff16604483015264ffffffffff1660648201526084810184905260a40161164e565b6007546001600160a01b031663cba36bf384611aa86137aa565b6040516001600160e01b031960e085901b168152600481019290925264ffffffffff16602482015260ff8516604482015260648101849052608401610e8f565b73__$364aad554dc80380f414546becdd2c1584$__63d2a15ba7600284610ffb6137aa565b604051632a3be56b60e21b8152600260048201526024810183905264ffffffffff8216604482015260009073__$364aad554dc80380f414546becdd2c1584$__9063a8ef95ac9060640160206040518083038186803b158015611b6f57600080fd5b505af4158015611b83573d6000803e3d6000fd5b505050506040513d601f19601f82011682018060405250810190611ba79190614494565b9392505050565b73__$364aad554dc80380f414546becdd2c1584$__63fe2710866002611bd26137aa565b6040516001600160e01b031960e085901b168152600481019290925264ffffffffff16602482015260440160206040518083038186803b158015611c1557600080fd5b505af4158015611c29573d6000803e3d6000fd5b505050506040513d601f19601f82011682018060405250810190611c4d9190614494565b611c695760405162461bcd60e51b8152600401610c5d90614544565b60405163b6e38a2960e01b81526002600482015264ffffffffff8216602482015273__$364aad554dc80380f414546becdd2c1584$__9063b6e38a29906044016113c6565b6006546001600160a01b031663e31f2d2c8787878787611ccc6137aa565b886040518863ffffffff1660e01b8152600401611cef9796959493929190614637565b600060405180830381600087803b158015611d0957600080fd5b505af1158015611d1d573d6000803e3d6000fd5b50505050505050505050565b6007546000906001600160a01b0316624f41748787878787611d496137aa565b6040518763ffffffff1660e01b8152600401611d6a969594939291906146a1565b602060405180830381600087803b158015611d8457600080fd5b505af1158015611d98573d6000803e3d6000fd5b505050506040513d601f19601f82011682018060405250810190611dbc9190614704565b9695505050505050565b6006546001600160a01b0316634a8bbd7f84846111dc6137aa565b6008546001600160a01b031663f538606582611dfb6137aa565b6040516001600160e01b031960e085901b1681526001600160a01b03909216600483015264ffffffffff166024820152604401610d76565b611e3c82613804565b611e45816138a3565b604051636cdd0edf60e11b81526002600482015264ffffffffff851660248201526001600160a01b038416604482015273__$364aad554dc80380f414546becdd2c1584$__9063d9ba1dbe9060640160006040518083038186803b158015611eac57600080fd5b505af4158015611ec0573d6000803e3d6000fd5b50506040805164ffffffffff881681526001600160a01b038781166020830152868116828401528516606082015290517f4d18c0021addc919105cb1ed2c11ad241e859cc1d9e77d4ee1d9ca2cdc1f255b9350908190036080019150a150505050565b6006546001600160a01b0316630e91a0a7826111916137aa565b6005546001600160a01b031663cb132cc784611f576137aa565b6040516001600160e01b031960e085901b1681526001600160a01b03909216600483015264ffffffffff1660248201526044810185905260648101849052608401610e8f565b6009546001600160a01b03166353db7067826111916137aa565b60405163987ad15360e01b81526002600482015260009073__$364aad554dc80380f414546becdd2c1584$__9063987ad15390602401610de2565b6000611ffc6137aa565b604051637963595360e11b8152600260048201526024810184905264ffffffffff8216604482015290915073__$364aad554dc80380f414546becdd2c1584$__9063f2c6b2a690606401611038565b600d546001600160a01b031663de40ddb983836119806137aa565b604051633b11adbf60e21b815273__$364aad554dc80380f414546becdd2c1584$__9063ec46b6fc906120a090600290339060040161447d565b60206040518083038186803b1580156120b857600080fd5b505af41580156120cc573d6000803e3d6000fd5b505050506040513d601f19601f820116820180604052508101906120f09190614494565b61210c5760405162461bcd60e51b8152600401610c5d906144b1565b6008546040516324c781e760e21b81526001600160a01b03848116600483015260ff841660248301529091169063931e079c90604401610b81565b6008546001600160a01b0316635305ed89856121616137aa565b6040516001600160e01b031960e085901b1681526001600160a01b03909216600483015264ffffffffff16602482015260448101869052606481018590526084810184905260a40161164e565b600d546001600160a01b0316631414603e878760008888886121ce6137aa565b6040516001600160e01b031960e08a901b1681526001600160a01b0390971660048801526024870195909552921515604486015260648501919091526001600160401b0390811660848501521660a483015264ffffffffff1660c482015260e4810184905261010401611cef565b600a546001600160a01b031663b9ffc96e826111916137aa565b604051633b11adbf60e21b815273__$364aad554dc80380f414546becdd2c1584$__9063ec46b6fc9061229090600290339060040161447d565b60206040518083038186803b1580156122a857600080fd5b505af41580156122bc573d6000803e3d6000fd5b505050506040513d601f19601f820116820180604052508101906122e09190614494565b6122fc5760405162461bcd60e51b8152600401610c5d906144b1565b60095460405163a02b544b60e01b81526004810185905263ffffffff8085166024830152831660448201526001600160a01b039091169063a02b544b90606401610e8f565b604051633b11adbf60e21b815273__$364aad554dc80380f414546becdd2c1584$__9063ec46b6fc9061237b90600290339060040161447d565b60206040518083038186803b15801561239357600080fd5b505af41580156123a7573d6000803e3d6000fd5b505050506040513d601f19601f820116820180604052508101906123cb9190614494565b6123e75760405162461bcd60e51b8152600401610c5d906144b1565b6040805160ff841681526001600160a01b03831660208201527fe9f2a79479f1cf09cb822bdfbaf62cb843e8365cf870e6bee1edc316ae1fcb52910160405180910390a160ff821661245257600580546001600160a01b0319166001600160a01b0383161790555050565b60ff82166001141561247d57600680546001600160a01b0319166001600160a01b0383161790555050565b60ff8216600214156124a857600780546001600160a01b0319166001600160a01b0383161790555050565b60ff8216600314156124d357600880546001600160a01b0319166001600160a01b0383161790555050565b60ff8216600414156124fe57600980546001600160a01b0319166001600160a01b0383161790555050565b60ff82166005141561252957600a80546001600160a01b0319166001600160a01b0383161790555050565b60ff82166006141561255457600b80546001600160a01b0319166001600160a01b0383161790555050565b60ff82166007141561257f57600c80546001600160a01b0319166001600160a01b0383161790555050565b60ff8216600814156125aa57600d80546001600160a01b0319166001600160a01b0383161790555050565b60405162461bcd60e51b8152602060048201526016602482015275474b2e53424b3a207469746c65206f766572666c6f7760501b6044820152606401610c5d565b604051633b11adbf60e21b815273__$364aad554dc80380f414546becdd2c1584$__9063ec46b6fc9061262590600290339060040161447d565b60206040518083038186803b15801561263d57600080fd5b505af4158015612651573d6000803e3d6000fd5b505050506040513d601f19601f820116820180604052508101906126759190614494565b6126915760405162461bcd60e51b8152600401610c5d906144b1565b61ffff82166000818152600e602090815260409182902080546001600160a01b0319166001600160a01b0386169081179091558251938452908301527f544086471d9f22fb00aa44e06837758c3f089b27d2503102a29e585eb51a5ab6910160405180910390a15050565b73__$364aad554dc80380f414546becdd2c1584$__63fe27108660026127206137aa565b6040516001600160e01b031960e085901b168152600481019290925264ffffffffff16602482015260440160206040518083038186803b15801561276357600080fd5b505af4158015612777573d6000803e3d6000fd5b505050506040513d601f19601f8201168201806040525081019061279b9190614494565b6127b75760405162461bcd60e51b8152600401610c5d90614544565b7f17ef7bd663554dc98b5419593050ca9410ad39692d3dee2f20e48f126379c0f06004546040516127ea91815260200190565b60405180910390a1600455565b600d546001600160a01b0316631414603e878760018888886121ce6137aa565b6007546001600160a01b031663b1b7439783836128326137aa565b6040516001600160e01b031960e086901b1681526001600160a01b03909316600484015260ff909116602483015264ffffffffff166044820152606401610b81565b6005546001600160a01b031663235e6935848461288f6137aa565b856040518563ffffffff1660e01b8152600401610e8f949392919061471d565b604051633b11adbf60e21b815273__$364aad554dc80380f414546becdd2c1584$__9063ec46b6fc906128e990600290339060040161447d565b60206040518083038186803b15801561290157600080fd5b505af4158015612915573d6000803e3d6000fd5b505050506040513d601f19601f820116820180604052508101906129399190614494565b6129555760405162461bcd60e51b8152600401610c5d906144b1565b60055460405163b0e3718560e01b81526001600160a01b038481166004830152602482018490529091169063b0e3718590604401610b81565b6009546001600160a01b03166321d0e4ed826111916137aa565b604051633b11adbf60e21b815273__$364aad554dc80380f414546becdd2c1584$__9063ec46b6fc906129e290600290339060040161447d565b60206040518083038186803b1580156129fa57600080fd5b505af4158015612a0e573d6000803e3d6000fd5b505050506040513d601f19601f82011682018060405250810190612a329190614494565b612a4e5760405162461bcd60e51b8152600401610c5d906144b1565b60085460405163bda549cf60e01b815260ff841660048201526001600160a01b0383811660248301529091169063bda549cf90604401610b81565b604051633b11adbf60e21b815273__$364aad554dc80380f414546becdd2c1584$__9063ec46b6fc90612ac390600290339060040161447d565b60206040518083038186803b158015612adb57600080fd5b505af4158015612aef573d6000803e3d6000fd5b505050506040513d601f19601f82011682018060405250810190612b139190614494565b612b2f5760405162461bcd60e51b8152600401610c5d906144b1565b600c54604051635ee1b7b160e11b815282151560048201526001600160a01b039091169063bdc36f6290602401610d76565b6006546001600160a01b031663edaebad4612b7a6137aa565b6040516001600160e01b031960e084901b16815264ffffffffff9091166004820152602401600060405180830381600087803b158015610fbc57600080fd5b6008546001600160a01b03166330f731c282611dfb6137aa565b600a546001600160a01b03166373fe510f8686868686612bf16137aa565b6040516001600160e01b031960e089901b168152600481019690965264ffffffffff948516602487015265ffffffffffff90931660448601526001600160401b0391821660648601521660848401521660a482015260c4016115b1565b6006546001600160a01b031663458349c88484612c696137aa565b6040516001600160e01b031960e086901b168152600481019390935260ff909116602483015264ffffffffff16604482015260648101849052608401610e8f565b604051633b11adbf60e21b815273__$364aad554dc80380f414546becdd2c1584$__9063ec46b6fc90612ce490600290339060040161447d565b60206040518083038186803b158015612cfc57600080fd5b505af4158015612d10573d6000803e3d6000fd5b505050506040513d601f19601f82011682018060405250810190612d349190614494565b612d505760405162461bcd60e51b8152600401610c5d906144b1565b600b546040516318a9d9f560e31b815263ffffffff851660048201526001600160401b038085166024830152831660448201526001600160a01b039091169063c54ecfa890606401610e8f565b6006546001600160a01b0316624f41748686868686612dba6137aa565b6040518763ffffffff1660e01b8152600401612ddb969594939291906146a1565b602060405180830381600087803b158015612df557600080fd5b505af1158015612e09573d6000803e3d6000fd5b505050506040513d601f19601f82011682018060405250810190610baf9190614704565b604051633b11adbf60e21b815273__$364aad554dc80380f414546becdd2c1584$__9063ec46b6fc90612e6790600290339060040161447d565b60206040518083038186803b158015612e7f57600080fd5b505af4158015612e93573d6000803e3d6000fd5b505050506040513d601f19601f82011682018060405250810190612eb79190614494565b612ed35760405162461bcd60e51b8152600401610c5d906144b1565b600b5460405163d0f0ce5160e01b815263ffffffff8085166004830152831660248201526001600160a01b039091169063d0f0ce5190604401610b81565b604051633b11adbf60e21b815273__$364aad554dc80380f414546becdd2c1584$__9063ec46b6fc90612f4b90600290339060040161447d565b60206040518083038186803b158015612f6357600080fd5b505af4158015612f77573d6000803e3d6000fd5b505050506040513d601f19601f82011682018060405250810190612f9b9190614494565b612fb75760405162461bcd60e51b8152600401610c5d906144b1565b600760009054906101000a90046001600160a01b03166001600160a01b031663d1a0ce566040518163ffffffff1660e01b8152600401600060405180830381600087803b158015610fbc57600080fd5b6009546001600160a01b0316635ca7e2f8838361140d6137aa565b6005546001600160a01b031663360c4b5282611dfb6137aa565b6007546001600160a01b031663e31f2d2c8787878787611ccc6137aa565b6008546001600160a01b03166394661790826116a06137aa565b604051633b11adbf60e21b815273__$364aad554dc80380f414546becdd2c1584$__9063ec46b6fc906130ae90600290339060040161447d565b60206040518083038186803b1580156130c657600080fd5b505af41580156130da573d6000803e3d6000fd5b505050506040513d601f19601f820116820180604052508101906130fe9190614494565b61311a5760405162461bcd60e51b8152600401610c5d906144b1565b600c54604051636d3521eb60e11b815282151560048201526001600160a01b039091169063da6a43d690602401610d76565b6006546001600160a01b0316638d8358bd826131666137aa565b6040516001600160e01b031960e085901b16815264ffffffffff928316600482015291166024820152604401610d76565b604051633b11adbf60e21b815273__$364aad554dc80380f414546becdd2c1584$__9063ec46b6fc906131d190600290339060040161447d565b60206040518083038186803b1580156131e957600080fd5b505af41580156131fd573d6000803e3d6000fd5b505050506040513d601f19601f820116820180604052508101906132219190614494565b61323d5760405162461bcd60e51b8152600401610c5d906144b1565b600b54604051637091c47960e11b8152600481018390526001600160a01b039091169063e12388f290602401610d76565b600a546001600160a01b0316631bf068e687878686898761328d6137aa565b6040516001600160e01b031960e08a901b1681526004810197909752602487019590955264ffffffffff938416604487015261ffff90921660648601526001600160401b0390811660848601521660a48401521660c482015260e401611cef565b6009546001600160a01b0316639a14562c8484846119dc6137aa565b6006546001600160a01b031663d9624d358484846133266137aa565b6040516001600160e01b031960e087901b168152600481019490945260ff9092166024840152604483015264ffffffffff166064820152608401610e8f565b604051633c3e56c160e11b81526002600482015260009073__$364aad554dc80380f414546becdd2c1584$__9063787cad829060240160206040518083038186803b1580156133b357600080fd5b505af41580156133c7573d6000803e3d6000fd5b505050506040513d601f19601f82011682018060405250810190610e329190614751565b6005546001600160a01b031663e495ed1c858585856134086137aa565b6040516001600160e01b031960e088901b1681526001600160a01b0390951660048601526024850193909352604484019190915265ffffffffffff16606483015264ffffffffff16608482015260a40161164e565b604051633b11adbf60e21b815273__$364aad554dc80380f414546becdd2c1584$__9063ec46b6fc9061349790600290339060040161447d565b60206040518083038186803b1580156134af57600080fd5b505af41580156134c3573d6000803e3d6000fd5b505050506040513d601f19601f820116820180604052508101906134e79190614494565b6135035760405162461bcd60e51b8152600401610c5d906144b1565b600254600160f01b900460ff1660011461355f5760405162461bcd60e51b815260206004820181905260248201527f41432e6f6e6c7950656e64696e673a20446f632069732066696e616c697a65646044820152606401610c5d565b60405163cc99e11b60e01b815260026004820152684174746f726e65797360b81b602482015273__$364aad554dc80380f414546becdd2c1584$__9063cc99e11b9060440160006040518083038186803b1580156135bc57600080fd5b505af41580156135d0573d6000803e3d6000fd5b5050604051632725ebef60e21b8152600260048201526000602482015273__$364aad554dc80380f414546becdd2c1584$__9250639c97afbc915060440160006040518083038186803b15801561362657600080fd5b505af415801561363a573d6000803e3d6000fd5b50506002805460ff60f01b1916600160f11b17905550506040517f35012b512309c322acf68632cd6cb702ff0e1d776fbe9394e38ffc13b434fe7590600090a1565b6007546001600160a01b03166381ab05cb826136966137aa565b6040516001600160e01b031960e085901b168152600481019290925264ffffffffff908116602483015285166044820152606401610b81565b6009546001600160a01b03166390e31463858585856136ec6137aa565b6040516001600160e01b031960e088901b168152600481019590955264ffffffffff93841660248601526001600160401b0392831660448601529116606484015216608482015260a40161164e565b6007546001600160a01b0316630e91a0a7826111916137aa565b6005546001600160a01b03166333f36a2b8361128b6137aa565b6005546001600160a01b0316630a21949784848461378b6137aa565b6040518563ffffffff1660e01b8152600401610e8f949392919061476e565b60008054604051634de835e760e11b81523360048201526001600160a01b0390911690639bd06bce90602401602060405180830381600087803b1580156137f057600080fd5b505af1158015610e0e573d6000803e3d6000fd5b6000546001600160a01b0316156138555760405162461bcd60e51b815260206004820152601560248201527430b63932b0b23c9039b2ba103932b3a1b2b73a32b960591b6044820152606401610c5d565b600080546001600160a01b0319166001600160a01b0383169081179091556040519081527f318da6c7624c71cbc0afe346c9d8827f119d0ecefb241a7b0c87217a076a8e029060200161195a565b600180546001600160a01b0319166001600160a01b0383169081179091556040519081527fe513d3e0f0d0a3877029dcc588748679a7a3450ec1ec7ed56d96bd012c3e61aa9060200161195a565b634e487b7160e01b600052604160045260246000fd5b604051601f8201601f191681016001600160401b038111828210171561392f5761392f6138f1565b604052919050565b60006001600160401b03831115613950576139506138f1565b613963601f8401601f1916602001613907565b905082815283838301111561397757600080fd5b828260208301376000602084830101529392505050565b600082601f83011261399f57600080fd5b611ba783833560208501613937565b600080604083850312156139c157600080fd5b8235915060208301356001600160401b038111156139de57600080fd5b6139ea8582860161398e565b9150509250929050565b6001600160a01b0381168114613a0957600080fd5b50565b803560ff81168114613a1d57600080fd5b919050565b60008060408385031215613a3557600080fd5b8235613a40816139f4565b9150613a4e60208401613a0c565b90509250929050565b600060208284031215613a6957600080fd5b611ba782613a0c565b64ffffffffff81168114613a0957600080fd5b600080600060608486031215613a9a57600080fd5b83359250602084013591506040840135613ab381613a72565b809150509250925092565b60008060408385031215613ad157600080fd5b823591506020830135613ae381613a72565b809150509250929050565b600080600060608486031215613b0357600080fd5b8335613b0e816139f4565b95602085013595506040909401359392505050565b600060208284031215613b3557600080fd5b5035919050565b600080600060608486031215613b5157600080fd5b83359250613b6160208501613a0c565b91506040840135613ab381613a72565b60008060408385031215613b8457600080fd5b8235613b8f81613a72565b946020939093013593505050565b60008060408385031215613bb057600080fd5b8235613b8f816139f4565b600060208284031215613bcd57600080fd5b8135611ba781613a72565b60008060408385031215613beb57600080fd5b50508035926020909101359150565b600080600080600060a08688031215613c1257600080fd5b85359450602086013593506040860135613c2b816139f4565b94979396509394606081013594506080013592915050565b60008060008060808587031215613c5957600080fd5b8435613c64816139f4565b966020860135965060408601359560600135945092505050565b80356001600160401b0381168114613a1d57600080fd5b60008060408385031215613ca857600080fd5b82359150613a4e60208401613c7e565b600060208284031215613cca57600080fd5b8135611ba7816139f4565b600080600060608486031215613cea57600080fd5b8335925060208401359150613d0160408501613c7e565b90509250925092565b803561ffff81168114613a1d57600080fd5b60008060008060808587031215613d3257600080fd5b8435613d3d816139f4565b935060208501359250613d5260408601613d0a565b9396929550929360600135925050565b600080600060608486031215613d7757600080fd5b83359250613d8760208501613a0c565b9150604084013590509250925092565b60006001600160401b03821115613db057613db06138f1565b5060051b60200190565b600082601f830112613dcb57600080fd5b81356020613de0613ddb83613d97565b613907565b82815260059290921b84018101918181019086841115613dff57600080fd5b8286015b84811015613e23578035613e16816139f4565b8352918301918301613e03565b509695505050505050565b600082601f830112613e3f57600080fd5b81356020613e4f613ddb83613d97565b82815260059290921b84018101918181019086841115613e6e57600080fd5b8286015b84811015613e235780358352918301918301613e72565b600082601f830112613e9a57600080fd5b81356020613eaa613ddb83613d97565b82815260059290921b84018101918181019086841115613ec957600080fd5b8286015b84811015613e235780356001600160401b03811115613eec5760008081fd5b8701603f81018913613efe5760008081fd5b613f0f898683013560408401613937565b845250918301918301613ecd565b60008060008060008060c08789031215613f3657600080fd5b613f3f87613a0c565b955060208701356001600160401b0380821115613f5b57600080fd5b613f678a838b01613dba565b96506040890135915080821115613f7d57600080fd5b613f898a838b01613e2e565b95506060890135915080821115613f9f57600080fd5b50613fac89828a01613e89565b9350506080870135915060a0870135613fc481613a72565b809150509295509295509295565b600080600080600060a08688031215613fea57600080fd5b613ff386613a0c565b945060208601356001600160401b038082111561400f57600080fd5b61401b89838a01613dba565b9550604088013591508082111561403157600080fd5b61403d89838a01613e2e565b9450606088013591508082111561405357600080fd5b5061406088828901613e89565b95989497509295608001359392505050565b6000806000806080858703121561408857600080fd5b843561409381613a72565b935060208501356140a3816139f4565b925060408501356140b3816139f4565b915060608501356140c3816139f4565b939692955090935050565b60008060008060008060c087890312156140e757600080fd5b86356140f2816139f4565b9550602087013594506040870135935061410e60608801613c7e565b925061411c60808801613c7e565b915060a087013590509295509295509295565b803563ffffffff81168114613a1d57600080fd5b60008060006060848603121561415857600080fd5b833592506141686020850161412f565b9150613d016040850161412f565b6000806040838503121561418957600080fd5b61419283613a0c565b91506020830135613ae3816139f4565b600080604083850312156141b557600080fd5b61419283613d0a565b6000806000606084860312156141d357600080fd5b83356141de816139f4565b92506020840135915060408401356001600160401b0381111561420057600080fd5b61420c8682870161398e565b9150509250925092565b8015158114613a0957600080fd5b60006020828403121561423657600080fd5b8135611ba781614216565b803565ffffffffffff81168114613a1d57600080fd5b600080600080600060a0868803121561426f57600080fd5b85359450602086013561428181613a72565b935061428f60408701614241565b925061429d60608701613c7e565b91506142ab60808701613c7e565b90509295509295909350565b6000806000606084860312156142cc57600080fd5b6142d58461412f565b92506142e360208501613c7e565b9150613d0160408501613c7e565b6000806040838503121561430457600080fd5b61430d8361412f565b9150613a4e6020840161412f565b60008060008060008060c0878903121561433457600080fd5b863595506020870135945061434b60408801613c7e565b9350606087013561435b81613a72565b925061436960808801613d0a565b915061437760a08801613c7e565b90509295509295509295565b6000806000806080858703121561439957600080fd5b84356143a4816139f4565b935060208501359250604085013591506143c060608601614241565b905092959194509250565b600080600080608085870312156143e157600080fd5b8435935060208501356143f381613a72565b925061440160408601613c7e565b91506143c060608601613c7e565b6000815180845260005b8181101561443557602081850181015186830182015201614419565b81811115614447576000602083870101525b50601f01601f19169290920160200192915050565b828152604060208201526000614475604083018461440f565b949350505050565b9182526001600160a01b0316602082015260400190565b6000602082840312156144a657600080fd5b8151611ba781614216565b60208082526026908201527f41432e6f6e6c794469726563744b65657065723a206e6f74206469726563742060408201526535b2b2b832b960d11b606082015260800190565b60006020828403121561450957600080fd5b8151611ba781613a72565b83815260606020820152600061452d606083018561440f565b905064ffffffffff83166040830152949350505050565b60208082526010908201526f20a19737bb9d103737ba1037bbb732b960811b604082015260600190565b600081518084526020808501945080840160005b838110156145a75781516001600160a01b031687529582019590820190600101614582565b509495945050505050565b600081518084526020808501945080840160005b838110156145a7578151875295820195908201906001016145c6565b600081518084526020808501808196508360051b8101915082860160005b8581101561462a57828403895261461884835161440f565b98850198935090840190600101614600565b5091979650505050505050565b60ff8816815260e06020820152600061465360e083018961456e565b828103604084015261466581896145b2565b9050828103606084015261467981886145e2565b6080840196909652505064ffffffffff92831660a0820152911660c090910152949350505050565b60ff8716815260c0602082015260006146bd60c083018861456e565b82810360408401526146cf81886145b2565b905082810360608401526146e381876145e2565b91505083608083015264ffffffffff831660a0830152979650505050505050565b60006020828403121561471657600080fd5b5051919050565b60018060a01b038516815283602082015264ffffffffff83166040820152608060608201526000611dbc608083018461440f565b60006020828403121561476357600080fd5b8151611ba7816139f4565b60018060a01b0385168152836020820152608060408201526000614795608083018561440f565b905064ffffffffff831660608301529594505050505056fea2646970667358221220591f571eecdb7e9f7acabcee2dc99f04b77a9755a10a95e64053c343770a23e064736f6c63430008080033",
    "sourcePath": "/Users/kaptain/github.com/hardhat/comboox/contracts/keepers/GeneralKeeper.sol",
    "compiler": {
        "name": "solc",
        "version": "0.8.8+commit.dddeac2f"
    },
    "functionHashes": {
        "abandonRole(bytes32)": "3da9a600",
        "acceptDragAlong(address,bytes32,bytes32)": "1d366704",
        "acceptFirstRefusal(address,bytes32,uint16,bytes32)": "72a27978",
        "acceptSHA(bytes32)": "1f6b2609",
        "acceptTagAlong(address,bytes32,bytes32)": "646e4b72",
        "addFuture(bytes32,bytes32,uint64)": "e7e4859c",
        "appointOfficer(bytes32,uint8,uint40)": "7d1249db",
        "boardVoteCounting(uint256)": "83336a07",
        "castBoardVote(uint256,uint8,bytes32)": "c1be2ad6",
        "castGMVote(uint256,uint8,bytes32)": "73e65492",
        "circulateIA(address,bytes32,bytes32)": "8506c43f",
        "circulateSHA(address,bytes32,bytes32,bytes32)": "945abaf9",
        "closeDeal(address,bytes32,string)": "faf8b018",
        "closeOption(bytes32,string)": "1e0234be",
        "createBoardSeal()": "14d3cb85",
        "createCorpSeal()": "d1a0ce56",
        "createIA(uint8)": "52ef3fa0",
        "createOption(bytes32,uint40,uint64,uint64)": "f3782bd3",
        "createPledge(bytes32,bytes32,uint64,uint40,uint16,uint64)": "e50783e1",
        "createSHA(uint8)": "d9a2f90f",
        "decreaseCapital(uint32,uint64,uint64)": "c54ecfa8",
        "delPledge(bytes32)": "9fb9328e",
        "effectiveSHA(address)": "7e2b9530",
        "entrustDirectorDelegate(uint40,uint256)": "218355db",
        "entrustMemberDelegate(uint40,uint256)": "f0e4b06d",
        "execAction(uint8,address[],uint256[],bytes[],bytes32)": "7cbb4719",
        "execAntiDilution(address,bytes32,bytes32,bytes32)": "48012910",
        "execBoardAction(uint8,address[],uint256[],bytes[],bytes32)": "cd407328",
        "execDragAlong(address,bytes32,bytes32,uint64,uint64,bytes32)": "abbf6d13",
        "execFirstRefusal(bytes32,uint256,address,bytes32,bytes32)": "429c9608",
        "execOption(bytes32)": "b24d8e65",
        "execTagAlong(address,bytes32,bytes32,uint64,uint64,bytes32)": "9619967a",
        "finalized()": "b3f05b97",
        "getBookeeper()": "ed211023",
        "getGeneralCounsel()": "103f6edd",
        "getOwner()": "893d20e8",
        "grantRole(bytes32,uint40)": "74099815",
        "hasRole(bytes32,uint40)": "79b2ec12",
        "init(uint40,address,address,address)": "821ee8ea",
        "isKeeper(address)": "6ba42aaa",
        "issueNewShare(address,bytes32)": "b0e37185",
        "joinOptionAsObligor(bytes32)": "39f382c2",
        "lockContents()": "f045a769",
        "lockOption(bytes32,bytes32)": "3806f694",
        "nominateOfficer(bytes32,uint8,uint40)": "2167a7fc",
        "proposeBoardAction(uint8,address[],uint256[],bytes[],bytes32,uint40)": "7bce8afe",
        "proposeGMAction(uint8,address[],uint256[],bytes[],bytes32,uint40)": "d50e1a47",
        "proposeIA(address,uint8)": "abd5c142",
        "pushToCoffer(address,bytes32,bytes32,uint48)": "eec1091e",
        "quitPosition()": "bf89776d",
        "regNumHash()": "f9ee371b",
        "releasePledges(bytes32)": "5c57de79",
        "removeDirector(uint40)": "db34d934",
        "removeFuture(bytes32,bytes32)": "d33168b2",
        "removeIA(address)": "d489d887",
        "removeObligorFromOption(bytes32,uint40)": "1976b2f0",
        "removeSHA(address)": "bfb6a198",
        "renounceRole(bytes32)": "8bb9c5bf",
        "requestPaidInCapital(bytes32,string)": "04726d7a",
        "requestPledge(bytes32,bytes32,uint64)": "6dcd84f7",
        "requestToBuy(uint256,bytes32,uint40)": "142d64d9",
        "revokeDeal(address,bytes32,string)": "ae2fc750",
        "revokeOption(bytes32)": "85d578ea",
        "revokeRole(bytes32,uint40)": "17c51fec",
        "setAmtBase(bool)": "da6a43d6",
        "setBook(uint16,address)": "a303fb07",
        "setBookeeper(uint8,address)": "a0bad454",
        "setDirectKeeper(address)": "6be8496f",
        "setGeneralCounsel(uint40)": "3178a9a9",
        "setMaxQtyOfMembers(uint8)": "1022489b",
        "setOwner(uint40)": "7ba706e8",
        "setPayInAmount(bytes32,uint64)": "5f94411d",
        "setRegNumHash(bytes32)": "a3e78f01",
        "setRoleAdmin(bytes32,uint40)": "16dc517e",
        "setTempOfIA(address,uint8)": "0c4919b7",
        "setTempOfSHA(address,uint8)": "931e079c",
        "setTermTemplate(uint8,address)": "bda549cf",
        "setVoteBase(bool)": "bdc36f62",
        "signIA(address,bytes32)": "fa0be085",
        "signSHA(address,bytes32)": "2c425acc",
        "takeGiftShares(address,bytes32)": "8d52e292",
        "takePosition(bytes32,uint8,uint256)": "ec58d13d",
        "transferTargetShare(address,bytes32)": "6c77efee",
        "updateOracle(bytes32,uint32,uint32)": "a02b544b",
        "updatePaidInDeadline(uint32,uint32)": "d0f0ce51",
        "updatePledge(bytes32,uint40,uint48,uint64,uint64)": "c0eb9e4b",
        "voteCounting(uint256)": "f8fb9e1d",
        "withdrawPayInAmount(bytes32)": "e12388f2"
    },
    "gasEstimates": {
        "creation": {
            "codeDepositCost": "3680600",
            "executionCost": "4155",
            "totalCost": "3684755"
        },
        "external": {
            "abandonRole(bytes32)": "infinite",
            "acceptDragAlong(address,bytes32,bytes32)": "infinite",
            "acceptFirstRefusal(address,bytes32,uint16,bytes32)": "infinite",
            "acceptSHA(bytes32)": "infinite",
            "acceptTagAlong(address,bytes32,bytes32)": "infinite",
            "addFuture(bytes32,bytes32,uint64)": "infinite",
            "appointOfficer(bytes32,uint8,uint40)": "infinite",
            "boardVoteCounting(uint256)": "infinite",
            "castBoardVote(uint256,uint8,bytes32)": "infinite",
            "castGMVote(uint256,uint8,bytes32)": "infinite",
            "circulateIA(address,bytes32,bytes32)": "infinite",
            "circulateSHA(address,bytes32,bytes32,bytes32)": "infinite",
            "closeDeal(address,bytes32,string)": "infinite",
            "closeOption(bytes32,string)": "infinite",
            "createBoardSeal()": "infinite",
            "createCorpSeal()": "infinite",
            "createIA(uint8)": "infinite",
            "createOption(bytes32,uint40,uint64,uint64)": "infinite",
            "createPledge(bytes32,bytes32,uint64,uint40,uint16,uint64)": "infinite",
            "createSHA(uint8)": "infinite",
            "decreaseCapital(uint32,uint64,uint64)": "infinite",
            "delPledge(bytes32)": "infinite",
            "effectiveSHA(address)": "infinite",
            "entrustDirectorDelegate(uint40,uint256)": "infinite",
            "entrustMemberDelegate(uint40,uint256)": "infinite",
            "execAction(uint8,address[],uint256[],bytes[],bytes32)": "infinite",
            "execAntiDilution(address,bytes32,bytes32,bytes32)": "infinite",
            "execBoardAction(uint8,address[],uint256[],bytes[],bytes32)": "infinite",
            "execDragAlong(address,bytes32,bytes32,uint64,uint64,bytes32)": "infinite",
            "execFirstRefusal(bytes32,uint256,address,bytes32,bytes32)": "infinite",
            "execOption(bytes32)": "infinite",
            "execTagAlong(address,bytes32,bytes32,uint64,uint64,bytes32)": "infinite",
            "finalized()": "2461",
            "getBookeeper()": "infinite",
            "getGeneralCounsel()": "infinite",
            "getOwner()": "infinite",
            "grantRole(bytes32,uint40)": "infinite",
            "hasRole(bytes32,uint40)": "infinite",
            "init(uint40,address,address,address)": "infinite",
            "isKeeper(address)": "19886",
            "issueNewShare(address,bytes32)": "infinite",
            "joinOptionAsObligor(bytes32)": "infinite",
            "lockContents()": "infinite",
            "lockOption(bytes32,bytes32)": "infinite",
            "nominateOfficer(bytes32,uint8,uint40)": "infinite",
            "proposeBoardAction(uint8,address[],uint256[],bytes[],bytes32,uint40)": "infinite",
            "proposeGMAction(uint8,address[],uint256[],bytes[],bytes32,uint40)": "infinite",
            "proposeIA(address,uint8)": "infinite",
            "pushToCoffer(address,bytes32,bytes32,uint48)": "infinite",
            "quitPosition()": "infinite",
            "regNumHash()": "2427",
            "releasePledges(bytes32)": "infinite",
            "removeDirector(uint40)": "infinite",
            "removeFuture(bytes32,bytes32)": "infinite",
            "removeIA(address)": "infinite",
            "removeObligorFromOption(bytes32,uint40)": "infinite",
            "removeSHA(address)": "infinite",
            "renounceRole(bytes32)": "infinite",
            "requestPaidInCapital(bytes32,string)": "infinite",
            "requestPledge(bytes32,bytes32,uint64)": "infinite",
            "requestToBuy(uint256,bytes32,uint40)": "infinite",
            "revokeDeal(address,bytes32,string)": "infinite",
            "revokeOption(bytes32)": "infinite",
            "revokeRole(bytes32,uint40)": "infinite",
            "setAmtBase(bool)": "infinite",
            "setBook(uint16,address)": "infinite",
            "setBookeeper(uint8,address)": "infinite",
            "setDirectKeeper(address)": "infinite",
            "setGeneralCounsel(uint40)": "infinite",
            "setMaxQtyOfMembers(uint8)": "infinite",
            "setOwner(uint40)": "infinite",
            "setPayInAmount(bytes32,uint64)": "infinite",
            "setRegNumHash(bytes32)": "infinite",
            "setRoleAdmin(bytes32,uint40)": "infinite",
            "setTempOfIA(address,uint8)": "infinite",
            "setTempOfSHA(address,uint8)": "infinite",
            "setTermTemplate(uint8,address)": "infinite",
            "setVoteBase(bool)": "infinite",
            "signIA(address,bytes32)": "infinite",
            "signSHA(address,bytes32)": "infinite",
            "takeGiftShares(address,bytes32)": "infinite",
            "takePosition(bytes32,uint8,uint256)": "infinite",
            "transferTargetShare(address,bytes32)": "infinite",
            "updateOracle(bytes32,uint32,uint32)": "infinite",
            "updatePaidInDeadline(uint32,uint32)": "infinite",
            "updatePledge(bytes32,uint40,uint48,uint64,uint64)": "infinite",
            "voteCounting(uint256)": "infinite",
            "withdrawPayInAmount(bytes32)": "infinite"
        }
    }
}