{
    "contractName": "GeneralKeeper",
    "abi": [
        {
            "anonymous": false,
            "inputs": [
                {
                    "indexed": true,
                    "internalType": "uint256",
                    "name": "contents",
                    "type": "uint256"
                },
                {
                    "indexed": false,
                    "internalType": "bool",
                    "name": "result",
                    "type": "bool"
                }
            ],
            "name": "ExecAction",
            "type": "event"
        },
        {
            "anonymous": false,
            "inputs": [
                {
                    "indexed": false,
                    "internalType": "uint256",
                    "name": "owner",
                    "type": "uint256"
                },
                {
                    "indexed": false,
                    "internalType": "address",
                    "name": "directKeeper",
                    "type": "address"
                },
                {
                    "indexed": false,
                    "internalType": "address",
                    "name": "regCenter",
                    "type": "address"
                },
                {
                    "indexed": false,
                    "internalType": "address",
                    "name": "generalKeeper",
                    "type": "address"
                }
            ],
            "name": "Init",
            "type": "event"
        },
        {
            "anonymous": false,
            "inputs": [],
            "name": "LockContents",
            "type": "event"
        },
        {
            "anonymous": false,
            "inputs": [
                {
                    "indexed": false,
                    "internalType": "uint256",
                    "name": "title",
                    "type": "uint256"
                },
                {
                    "indexed": false,
                    "internalType": "address",
                    "name": "book",
                    "type": "address"
                }
            ],
            "name": "RegBook",
            "type": "event"
        },
        {
            "anonymous": false,
            "inputs": [
                {
                    "indexed": false,
                    "internalType": "uint256",
                    "name": "title",
                    "type": "uint256"
                },
                {
                    "indexed": false,
                    "internalType": "address",
                    "name": "keeper",
                    "type": "address"
                }
            ],
            "name": "RegBookeeper",
            "type": "event"
        },
        {
            "anonymous": false,
            "inputs": [
                {
                    "indexed": false,
                    "internalType": "address",
                    "name": "target",
                    "type": "address"
                }
            ],
            "name": "RemoveDirectKeeper",
            "type": "event"
        },
        {
            "anonymous": false,
            "inputs": [
                {
                    "indexed": false,
                    "internalType": "bytes32",
                    "name": "regNumHash",
                    "type": "bytes32"
                },
                {
                    "indexed": false,
                    "internalType": "string",
                    "name": "nameOfCompany",
                    "type": "string"
                },
                {
                    "indexed": false,
                    "internalType": "string",
                    "name": "symbolOfCompany",
                    "type": "string"
                }
            ],
            "name": "SetCompInfo",
            "type": "event"
        },
        {
            "anonymous": false,
            "inputs": [
                {
                    "indexed": false,
                    "internalType": "address",
                    "name": "keeper",
                    "type": "address"
                }
            ],
            "name": "SetDirectKeeper",
            "type": "event"
        },
        {
            "anonymous": false,
            "inputs": [
                {
                    "indexed": false,
                    "internalType": "uint256",
                    "name": "acct",
                    "type": "uint256"
                }
            ],
            "name": "SetGeneralCounsel",
            "type": "event"
        },
        {
            "anonymous": false,
            "inputs": [
                {
                    "indexed": false,
                    "internalType": "uint256",
                    "name": "acct",
                    "type": "uint256"
                }
            ],
            "name": "SetOwner",
            "type": "event"
        },
        {
            "inputs": [
                {
                    "internalType": "bytes32",
                    "name": "role",
                    "type": "bytes32"
                }
            ],
            "name": "abandonRole",
            "outputs": [],
            "stateMutability": "nonpayable",
            "type": "function"
        },
        {
            "inputs": [
                {
                    "internalType": "address",
                    "name": "ia",
                    "type": "address"
                },
                {
                    "internalType": "uint256",
                    "name": "seqOfDeal",
                    "type": "uint256"
                },
                {
                    "internalType": "uint256",
                    "name": "seqOfShare",
                    "type": "uint256"
                },
                {
                    "internalType": "bytes32",
                    "name": "sigHash",
                    "type": "bytes32"
                }
            ],
            "name": "acceptAlongDeal",
            "outputs": [],
            "stateMutability": "nonpayable",
            "type": "function"
        },
        {
            "inputs": [
                {
                    "internalType": "address",
                    "name": "ia",
                    "type": "address"
                },
                {
                    "internalType": "uint256",
                    "name": "seqOfDeal",
                    "type": "uint256"
                },
                {
                    "internalType": "bytes32",
                    "name": "sigHash",
                    "type": "bytes32"
                }
            ],
            "name": "acceptFirstRefusal",
            "outputs": [],
            "stateMutability": "nonpayable",
            "type": "function"
        },
        {
            "inputs": [
                {
                    "internalType": "bytes32",
                    "name": "sigHash",
                    "type": "bytes32"
                }
            ],
            "name": "acceptSHA",
            "outputs": [],
            "stateMutability": "nonpayable",
            "type": "function"
        },
        {
            "inputs": [
                {
                    "internalType": "uint256",
                    "name": "seqOfMotion",
                    "type": "uint256"
                },
                {
                    "internalType": "uint256",
                    "name": "attitude",
                    "type": "uint256"
                },
                {
                    "internalType": "bytes32",
                    "name": "sigHash",
                    "type": "bytes32"
                }
            ],
            "name": "castVote",
            "outputs": [],
            "stateMutability": "nonpayable",
            "type": "function"
        },
        {
            "inputs": [
                {
                    "internalType": "uint256",
                    "name": "seqOfMotion",
                    "type": "uint256"
                },
                {
                    "internalType": "uint256",
                    "name": "attitude",
                    "type": "uint256"
                },
                {
                    "internalType": "bytes32",
                    "name": "sigHash",
                    "type": "bytes32"
                }
            ],
            "name": "castVoteOfGM",
            "outputs": [],
            "stateMutability": "nonpayable",
            "type": "function"
        },
        {
            "inputs": [
                {
                    "internalType": "address",
                    "name": "body",
                    "type": "address"
                },
                {
                    "internalType": "bytes32",
                    "name": "docUrl",
                    "type": "bytes32"
                },
                {
                    "internalType": "bytes32",
                    "name": "docHash",
                    "type": "bytes32"
                }
            ],
            "name": "circulateIA",
            "outputs": [],
            "stateMutability": "nonpayable",
            "type": "function"
        },
        {
            "inputs": [
                {
                    "internalType": "address",
                    "name": "body",
                    "type": "address"
                },
                {
                    "internalType": "bytes32",
                    "name": "docUrl",
                    "type": "bytes32"
                },
                {
                    "internalType": "bytes32",
                    "name": "docHash",
                    "type": "bytes32"
                }
            ],
            "name": "circulateSHA",
            "outputs": [],
            "stateMutability": "nonpayable",
            "type": "function"
        },
        {
            "inputs": [
                {
                    "internalType": "address",
                    "name": "ia",
                    "type": "address"
                },
                {
                    "internalType": "uint256",
                    "name": "seqOfDeal",
                    "type": "uint256"
                },
                {
                    "internalType": "string",
                    "name": "hashKey",
                    "type": "string"
                }
            ],
            "name": "closeDeal",
            "outputs": [],
            "stateMutability": "nonpayable",
            "type": "function"
        },
        {
            "inputs": [],
            "name": "createBoardSeal",
            "outputs": [],
            "stateMutability": "nonpayable",
            "type": "function"
        },
        {
            "inputs": [
                {
                    "internalType": "uint256",
                    "name": "info",
                    "type": "uint256"
                }
            ],
            "name": "createCorpSeal",
            "outputs": [],
            "stateMutability": "nonpayable",
            "type": "function"
        },
        {
            "inputs": [
                {
                    "internalType": "uint256",
                    "name": "snOfIA",
                    "type": "uint256"
                }
            ],
            "name": "createIA",
            "outputs": [],
            "stateMutability": "nonpayable",
            "type": "function"
        },
        {
            "inputs": [
                {
                    "internalType": "bytes32",
                    "name": "snOfPld",
                    "type": "bytes32"
                },
                {
                    "internalType": "uint256",
                    "name": "creditor",
                    "type": "uint256"
                },
                {
                    "internalType": "uint256",
                    "name": "guaranteeDays",
                    "type": "uint256"
                },
                {
                    "internalType": "uint256",
                    "name": "paid",
                    "type": "uint256"
                },
                {
                    "internalType": "uint256",
                    "name": "par",
                    "type": "uint256"
                },
                {
                    "internalType": "uint256",
                    "name": "guaranteedAmt",
                    "type": "uint256"
                }
            ],
            "name": "createPledge",
            "outputs": [],
            "stateMutability": "nonpayable",
            "type": "function"
        },
        {
            "inputs": [
                {
                    "internalType": "uint256",
                    "name": "version",
                    "type": "uint256"
                }
            ],
            "name": "createSHA",
            "outputs": [],
            "stateMutability": "nonpayable",
            "type": "function"
        },
        {
            "inputs": [
                {
                    "internalType": "bytes32",
                    "name": "snOfSwap",
                    "type": "bytes32"
                },
                {
                    "internalType": "uint256",
                    "name": "rightholder",
                    "type": "uint256"
                },
                {
                    "internalType": "uint256",
                    "name": "paidOfConsider",
                    "type": "uint256"
                }
            ],
            "name": "createSwap",
            "outputs": [],
            "stateMutability": "nonpayable",
            "type": "function"
        },
        {
            "inputs": [
                {
                    "internalType": "uint256",
                    "name": "seqOfSwap",
                    "type": "uint256"
                },
                {
                    "internalType": "uint256",
                    "name": "seqOfConsider",
                    "type": "uint256"
                },
                {
                    "internalType": "uint256",
                    "name": "seqOfTarget",
                    "type": "uint256"
                }
            ],
            "name": "crystalizeSwap",
            "outputs": [],
            "stateMutability": "nonpayable",
            "type": "function"
        },
        {
            "inputs": [
                {
                    "internalType": "uint256",
                    "name": "seqOfShare",
                    "type": "uint256"
                },
                {
                    "internalType": "uint256",
                    "name": "parValue",
                    "type": "uint256"
                },
                {
                    "internalType": "uint256",
                    "name": "paidPar",
                    "type": "uint256"
                }
            ],
            "name": "decreaseCapital",
            "outputs": [],
            "stateMutability": "nonpayable",
            "type": "function"
        },
        {
            "inputs": [
                {
                    "internalType": "address",
                    "name": "body",
                    "type": "address"
                }
            ],
            "name": "effectiveSHA",
            "outputs": [],
            "stateMutability": "nonpayable",
            "type": "function"
        },
        {
            "inputs": [
                {
                    "internalType": "uint256",
                    "name": "seqOfMotion",
                    "type": "uint256"
                },
                {
                    "internalType": "uint256",
                    "name": "delegate",
                    "type": "uint256"
                }
            ],
            "name": "entrustDelegate",
            "outputs": [],
            "stateMutability": "nonpayable",
            "type": "function"
        },
        {
            "inputs": [
                {
                    "internalType": "uint256",
                    "name": "seqOfMotion",
                    "type": "uint256"
                },
                {
                    "internalType": "uint256",
                    "name": "delegate",
                    "type": "uint256"
                }
            ],
            "name": "entrustDelegateOfMember",
            "outputs": [],
            "stateMutability": "nonpayable",
            "type": "function"
        },
        {
            "inputs": [
                {
                    "internalType": "uint256",
                    "name": "typeOfAction",
                    "type": "uint256"
                },
                {
                    "internalType": "address[]",
                    "name": "targets",
                    "type": "address[]"
                },
                {
                    "internalType": "uint256[]",
                    "name": "values",
                    "type": "uint256[]"
                },
                {
                    "internalType": "bytes[]",
                    "name": "params",
                    "type": "bytes[]"
                },
                {
                    "internalType": "bytes32",
                    "name": "desHash",
                    "type": "bytes32"
                },
                {
                    "internalType": "uint256",
                    "name": "seqOfMotion",
                    "type": "uint256"
                }
            ],
            "name": "execAction",
            "outputs": [],
            "stateMutability": "nonpayable",
            "type": "function"
        },
        {
            "inputs": [
                {
                    "internalType": "uint256",
                    "name": "typeOfAction",
                    "type": "uint256"
                },
                {
                    "internalType": "address[]",
                    "name": "targets",
                    "type": "address[]"
                },
                {
                    "internalType": "uint256[]",
                    "name": "values",
                    "type": "uint256[]"
                },
                {
                    "internalType": "bytes[]",
                    "name": "params",
                    "type": "bytes[]"
                },
                {
                    "internalType": "bytes32",
                    "name": "desHash",
                    "type": "bytes32"
                },
                {
                    "internalType": "uint256",
                    "name": "seqOfMotion",
                    "type": "uint256"
                }
            ],
            "name": "execActionOfGM",
            "outputs": [],
            "stateMutability": "nonpayable",
            "type": "function"
        },
        {
            "inputs": [
                {
                    "internalType": "address",
                    "name": "ia",
                    "type": "address"
                },
                {
                    "internalType": "uint256",
                    "name": "seqOfDeal",
                    "type": "uint256"
                },
                {
                    "internalType": "uint256",
                    "name": "seqOfShare",
                    "type": "uint256"
                },
                {
                    "internalType": "bytes32",
                    "name": "sigHash",
                    "type": "bytes32"
                }
            ],
            "name": "execAntiDilution",
            "outputs": [],
            "stateMutability": "nonpayable",
            "type": "function"
        },
        {
            "inputs": [
                {
                    "internalType": "address",
                    "name": "ia",
                    "type": "address"
                },
                {
                    "internalType": "uint256",
                    "name": "seqOfDeal",
                    "type": "uint256"
                },
                {
                    "internalType": "uint256",
                    "name": "seqOfShare",
                    "type": "uint256"
                },
                {
                    "internalType": "uint256",
                    "name": "paid",
                    "type": "uint256"
                },
                {
                    "internalType": "uint256",
                    "name": "par",
                    "type": "uint256"
                },
                {
                    "internalType": "bytes32",
                    "name": "sigHash",
                    "type": "bytes32"
                }
            ],
            "name": "execDragAlong",
            "outputs": [],
            "stateMutability": "nonpayable",
            "type": "function"
        },
        {
            "inputs": [
                {
                    "internalType": "uint256",
                    "name": "seqOfRule",
                    "type": "uint256"
                },
                {
                    "internalType": "uint256",
                    "name": "seqOfRightholder",
                    "type": "uint256"
                },
                {
                    "internalType": "address",
                    "name": "ia",
                    "type": "address"
                },
                {
                    "internalType": "uint256",
                    "name": "seqOfDeal",
                    "type": "uint256"
                },
                {
                    "internalType": "bytes32",
                    "name": "sigHash",
                    "type": "bytes32"
                }
            ],
            "name": "execFirstRefusal",
            "outputs": [],
            "stateMutability": "nonpayable",
            "type": "function"
        },
        {
            "inputs": [
                {
                    "internalType": "uint256",
                    "name": "seqOfOpt",
                    "type": "uint256"
                }
            ],
            "name": "execOption",
            "outputs": [],
            "stateMutability": "nonpayable",
            "type": "function"
        },
        {
            "inputs": [
                {
                    "internalType": "uint256",
                    "name": "seqOfShare",
                    "type": "uint256"
                },
                {
                    "internalType": "uint256",
                    "name": "seqOfPld",
                    "type": "uint256"
                }
            ],
            "name": "execPledge",
            "outputs": [],
            "stateMutability": "nonpayable",
            "type": "function"
        },
        {
            "inputs": [
                {
                    "internalType": "uint256",
                    "name": "seqOfSwap",
                    "type": "uint256"
                }
            ],
            "name": "execSwap",
            "outputs": [],
            "stateMutability": "nonpayable",
            "type": "function"
        },
        {
            "inputs": [
                {
                    "internalType": "uint256",
                    "name": "seqOfOpt",
                    "type": "uint256"
                },
                {
                    "internalType": "uint256",
                    "name": "seqOfBrf",
                    "type": "uint256"
                }
            ],
            "name": "execSwapOrder",
            "outputs": [],
            "stateMutability": "nonpayable",
            "type": "function"
        },
        {
            "inputs": [
                {
                    "internalType": "address",
                    "name": "ia",
                    "type": "address"
                },
                {
                    "internalType": "uint256",
                    "name": "seqOfDeal",
                    "type": "uint256"
                },
                {
                    "internalType": "uint256",
                    "name": "seqOfShare",
                    "type": "uint256"
                },
                {
                    "internalType": "uint256",
                    "name": "paid",
                    "type": "uint256"
                },
                {
                    "internalType": "uint256",
                    "name": "par",
                    "type": "uint256"
                },
                {
                    "internalType": "bytes32",
                    "name": "sigHash",
                    "type": "bytes32"
                }
            ],
            "name": "execTagAlong",
            "outputs": [],
            "stateMutability": "nonpayable",
            "type": "function"
        },
        {
            "inputs": [
                {
                    "internalType": "uint256",
                    "name": "seqOfShare",
                    "type": "uint256"
                },
                {
                    "internalType": "uint256",
                    "name": "seqOfPld",
                    "type": "uint256"
                },
                {
                    "internalType": "uint256",
                    "name": "extDays",
                    "type": "uint256"
                }
            ],
            "name": "extendPledge",
            "outputs": [],
            "stateMutability": "nonpayable",
            "type": "function"
        },
        {
            "inputs": [],
            "name": "finalized",
            "outputs": [
                {
                    "internalType": "bool",
                    "name": "",
                    "type": "bool"
                }
            ],
            "stateMutability": "view",
            "type": "function"
        },
        {
            "inputs": [],
            "name": "getBOA",
            "outputs": [
                {
                    "internalType": "contract IBookOfIA",
                    "name": "",
                    "type": "address"
                }
            ],
            "stateMutability": "view",
            "type": "function"
        },
        {
            "inputs": [],
            "name": "getBOD",
            "outputs": [
                {
                    "internalType": "contract IBookOfDirectors",
                    "name": "",
                    "type": "address"
                }
            ],
            "stateMutability": "view",
            "type": "function"
        },
        {
            "inputs": [],
            "name": "getBOG",
            "outputs": [
                {
                    "internalType": "contract IBookOfGM",
                    "name": "",
                    "type": "address"
                }
            ],
            "stateMutability": "view",
            "type": "function"
        },
        {
            "inputs": [],
            "name": "getBOH",
            "outputs": [
                {
                    "internalType": "contract IBookOfSHA",
                    "name": "",
                    "type": "address"
                }
            ],
            "stateMutability": "view",
            "type": "function"
        },
        {
            "inputs": [],
            "name": "getBOO",
            "outputs": [
                {
                    "internalType": "contract IBookOfOptions",
                    "name": "",
                    "type": "address"
                }
            ],
            "stateMutability": "view",
            "type": "function"
        },
        {
            "inputs": [],
            "name": "getBOP",
            "outputs": [
                {
                    "internalType": "contract IBookOfPledges",
                    "name": "",
                    "type": "address"
                }
            ],
            "stateMutability": "view",
            "type": "function"
        },
        {
            "inputs": [],
            "name": "getBOS",
            "outputs": [
                {
                    "internalType": "contract IBookOfShares",
                    "name": "",
                    "type": "address"
                }
            ],
            "stateMutability": "view",
            "type": "function"
        },
        {
            "inputs": [],
            "name": "getBookeeper",
            "outputs": [
                {
                    "internalType": "address",
                    "name": "",
                    "type": "address"
                }
            ],
            "stateMutability": "view",
            "type": "function"
        },
        {
            "inputs": [],
            "name": "getGeneralCounsel",
            "outputs": [
                {
                    "internalType": "uint40",
                    "name": "",
                    "type": "uint40"
                }
            ],
            "stateMutability": "view",
            "type": "function"
        },
        {
            "inputs": [
                {
                    "internalType": "uint256",
                    "name": "title",
                    "type": "uint256"
                }
            ],
            "name": "getKeeper",
            "outputs": [
                {
                    "internalType": "address",
                    "name": "",
                    "type": "address"
                }
            ],
            "stateMutability": "view",
            "type": "function"
        },
        {
            "inputs": [],
            "name": "getOwner",
            "outputs": [
                {
                    "internalType": "uint40",
                    "name": "",
                    "type": "uint40"
                }
            ],
            "stateMutability": "view",
            "type": "function"
        },
        {
            "inputs": [],
            "name": "getROM",
            "outputs": [
                {
                    "internalType": "contract IRegisterOfMembers",
                    "name": "",
                    "type": "address"
                }
            ],
            "stateMutability": "view",
            "type": "function"
        },
        {
            "inputs": [],
            "name": "getROS",
            "outputs": [
                {
                    "internalType": "contract IRegisterOfSwaps",
                    "name": "",
                    "type": "address"
                }
            ],
            "stateMutability": "view",
            "type": "function"
        },
        {
            "inputs": [],
            "name": "getSHA",
            "outputs": [
                {
                    "internalType": "contract IShareholdersAgreement",
                    "name": "",
                    "type": "address"
                }
            ],
            "stateMutability": "view",
            "type": "function"
        },
        {
            "inputs": [
                {
                    "internalType": "bytes32",
                    "name": "role",
                    "type": "bytes32"
                },
                {
                    "internalType": "uint256",
                    "name": "acct",
                    "type": "uint256"
                }
            ],
            "name": "grantRole",
            "outputs": [],
            "stateMutability": "nonpayable",
            "type": "function"
        },
        {
            "inputs": [
                {
                    "internalType": "bytes32",
                    "name": "role",
                    "type": "bytes32"
                },
                {
                    "internalType": "uint256",
                    "name": "acct",
                    "type": "uint256"
                }
            ],
            "name": "hasRole",
            "outputs": [
                {
                    "internalType": "bool",
                    "name": "",
                    "type": "bool"
                }
            ],
            "stateMutability": "view",
            "type": "function"
        },
        {
            "inputs": [
                {
                    "internalType": "uint256",
                    "name": "owner",
                    "type": "uint256"
                },
                {
                    "internalType": "address",
                    "name": "directKeeper",
                    "type": "address"
                },
                {
                    "internalType": "address",
                    "name": "regCenter",
                    "type": "address"
                },
                {
                    "internalType": "address",
                    "name": "generalKeeper",
                    "type": "address"
                }
            ],
            "name": "init",
            "outputs": [],
            "stateMutability": "nonpayable",
            "type": "function"
        },
        {
            "inputs": [
                {
                    "internalType": "address",
                    "name": "caller",
                    "type": "address"
                }
            ],
            "name": "isKeeper",
            "outputs": [
                {
                    "internalType": "bool",
                    "name": "",
                    "type": "bool"
                }
            ],
            "stateMutability": "view",
            "type": "function"
        },
        {
            "inputs": [
                {
                    "internalType": "address",
                    "name": "ia",
                    "type": "address"
                },
                {
                    "internalType": "uint256",
                    "name": "seqOfDeal",
                    "type": "uint256"
                }
            ],
            "name": "issueNewShare",
            "outputs": [],
            "stateMutability": "nonpayable",
            "type": "function"
        },
        {
            "inputs": [],
            "name": "lockContents",
            "outputs": [],
            "stateMutability": "nonpayable",
            "type": "function"
        },
        {
            "inputs": [
                {
                    "internalType": "uint256",
                    "name": "seqOfShare",
                    "type": "uint256"
                },
                {
                    "internalType": "uint256",
                    "name": "seqOfPld",
                    "type": "uint256"
                },
                {
                    "internalType": "bytes32",
                    "name": "hashLock",
                    "type": "bytes32"
                }
            ],
            "name": "lockPledge",
            "outputs": [],
            "stateMutability": "nonpayable",
            "type": "function"
        },
        {
            "inputs": [
                {
                    "internalType": "uint256",
                    "name": "seqOfSwap",
                    "type": "uint256"
                },
                {
                    "internalType": "bytes32",
                    "name": "hashLock",
                    "type": "bytes32"
                }
            ],
            "name": "lockSwap",
            "outputs": [],
            "stateMutability": "nonpayable",
            "type": "function"
        },
        {
            "inputs": [
                {
                    "internalType": "uint256",
                    "name": "seqOfOpt",
                    "type": "uint256"
                },
                {
                    "internalType": "uint256",
                    "name": "seqOfBrf",
                    "type": "uint256"
                },
                {
                    "internalType": "bytes32",
                    "name": "hashLock",
                    "type": "bytes32"
                }
            ],
            "name": "lockSwapOrder",
            "outputs": [],
            "stateMutability": "nonpayable",
            "type": "function"
        },
        {
            "inputs": [],
            "name": "nameOfCompany",
            "outputs": [
                {
                    "internalType": "string",
                    "name": "",
                    "type": "string"
                }
            ],
            "stateMutability": "view",
            "type": "function"
        },
        {
            "inputs": [
                {
                    "internalType": "uint256",
                    "name": "seqOfPos",
                    "type": "uint256"
                },
                {
                    "internalType": "uint256",
                    "name": "candidate",
                    "type": "uint256"
                }
            ],
            "name": "nominateDirector",
            "outputs": [],
            "stateMutability": "nonpayable",
            "type": "function"
        },
        {
            "inputs": [
                {
                    "internalType": "uint256",
                    "name": "seqOfPos",
                    "type": "uint256"
                },
                {
                    "internalType": "uint256",
                    "name": "candidate",
                    "type": "uint256"
                }
            ],
            "name": "nominateOfficer",
            "outputs": [],
            "stateMutability": "nonpayable",
            "type": "function"
        },
        {
            "inputs": [
                {
                    "internalType": "uint256",
                    "name": "seqOfOpt",
                    "type": "uint256"
                },
                {
                    "internalType": "uint256",
                    "name": "seqOfConsider",
                    "type": "uint256"
                },
                {
                    "internalType": "uint256",
                    "name": "paidOfConsider",
                    "type": "uint256"
                },
                {
                    "internalType": "uint256",
                    "name": "seqOfTarget",
                    "type": "uint256"
                }
            ],
            "name": "placeSwapOrder",
            "outputs": [],
            "stateMutability": "nonpayable",
            "type": "function"
        },
        {
            "inputs": [
                {
                    "internalType": "uint256",
                    "name": "seqOfVR",
                    "type": "uint256"
                },
                {
                    "internalType": "address[]",
                    "name": "targets",
                    "type": "address[]"
                },
                {
                    "internalType": "uint256[]",
                    "name": "values",
                    "type": "uint256[]"
                },
                {
                    "internalType": "bytes[]",
                    "name": "params",
                    "type": "bytes[]"
                },
                {
                    "internalType": "bytes32",
                    "name": "desHash",
                    "type": "bytes32"
                },
                {
                    "internalType": "uint256",
                    "name": "executor",
                    "type": "uint256"
                }
            ],
            "name": "proposeAction",
            "outputs": [],
            "stateMutability": "nonpayable",
            "type": "function"
        },
        {
            "inputs": [
                {
                    "internalType": "uint256",
                    "name": "seqOfVR",
                    "type": "uint256"
                },
                {
                    "internalType": "address[]",
                    "name": "targets",
                    "type": "address[]"
                },
                {
                    "internalType": "uint256[]",
                    "name": "values",
                    "type": "uint256[]"
                },
                {
                    "internalType": "bytes[]",
                    "name": "params",
                    "type": "bytes[]"
                },
                {
                    "internalType": "bytes32",
                    "name": "desHash",
                    "type": "bytes32"
                },
                {
                    "internalType": "uint256",
                    "name": "executor",
                    "type": "uint256"
                }
            ],
            "name": "proposeActionOfGM",
            "outputs": [],
            "stateMutability": "nonpayable",
            "type": "function"
        },
        {
            "inputs": [
                {
                    "internalType": "address",
                    "name": "doc",
                    "type": "address"
                },
                {
                    "internalType": "uint256",
                    "name": "seqOfVR",
                    "type": "uint256"
                },
                {
                    "internalType": "uint256",
                    "name": "executor",
                    "type": "uint256"
                }
            ],
            "name": "proposeDoc",
            "outputs": [],
            "stateMutability": "nonpayable",
            "type": "function"
        },
        {
            "inputs": [
                {
                    "internalType": "address",
                    "name": "doc",
                    "type": "address"
                },
                {
                    "internalType": "uint256",
                    "name": "seqOfVR",
                    "type": "uint256"
                },
                {
                    "internalType": "uint256",
                    "name": "executor",
                    "type": "uint256"
                }
            ],
            "name": "proposeDocOfGM",
            "outputs": [],
            "stateMutability": "nonpayable",
            "type": "function"
        },
        {
            "inputs": [
                {
                    "internalType": "uint256",
                    "name": "seqOfMotion",
                    "type": "uint256"
                }
            ],
            "name": "proposeMotionOfGM",
            "outputs": [],
            "stateMutability": "nonpayable",
            "type": "function"
        },
        {
            "inputs": [
                {
                    "internalType": "uint256",
                    "name": "seqOfPos",
                    "type": "uint256"
                }
            ],
            "name": "proposeToRemoveDirector",
            "outputs": [],
            "stateMutability": "nonpayable",
            "type": "function"
        },
        {
            "inputs": [
                {
                    "internalType": "uint256",
                    "name": "seqOfPos",
                    "type": "uint256"
                }
            ],
            "name": "proposeToRemoveOfficer",
            "outputs": [],
            "stateMutability": "nonpayable",
            "type": "function"
        },
        {
            "inputs": [
                {
                    "internalType": "address",
                    "name": "ia",
                    "type": "address"
                },
                {
                    "internalType": "uint256",
                    "name": "seqOfDeal",
                    "type": "uint256"
                },
                {
                    "internalType": "bytes32",
                    "name": "hashLock",
                    "type": "bytes32"
                },
                {
                    "internalType": "uint256",
                    "name": "closingDate",
                    "type": "uint256"
                }
            ],
            "name": "pushToCoffer",
            "outputs": [],
            "stateMutability": "nonpayable",
            "type": "function"
        },
        {
            "inputs": [
                {
                    "internalType": "uint256",
                    "name": "seqOfPos",
                    "type": "uint256"
                }
            ],
            "name": "quitPosition",
            "outputs": [],
            "stateMutability": "nonpayable",
            "type": "function"
        },
        {
            "inputs": [
                {
                    "internalType": "uint256",
                    "name": "seqOfShare",
                    "type": "uint256"
                },
                {
                    "internalType": "uint256",
                    "name": "seqOfPld",
                    "type": "uint256"
                },
                {
                    "internalType": "uint256",
                    "name": "amt",
                    "type": "uint256"
                }
            ],
            "name": "refundDebt",
            "outputs": [],
            "stateMutability": "nonpayable",
            "type": "function"
        },
        {
            "inputs": [
                {
                    "internalType": "uint256",
                    "name": "title",
                    "type": "uint256"
                },
                {
                    "internalType": "address",
                    "name": "book",
                    "type": "address"
                }
            ],
            "name": "regBook",
            "outputs": [],
            "stateMutability": "nonpayable",
            "type": "function"
        },
        {
            "inputs": [
                {
                    "internalType": "uint256",
                    "name": "title",
                    "type": "uint256"
                },
                {
                    "internalType": "address",
                    "name": "keeper",
                    "type": "address"
                }
            ],
            "name": "regBookeeper",
            "outputs": [],
            "stateMutability": "nonpayable",
            "type": "function"
        },
        {
            "inputs": [],
            "name": "regNumHash",
            "outputs": [
                {
                    "internalType": "bytes32",
                    "name": "",
                    "type": "bytes32"
                }
            ],
            "stateMutability": "view",
            "type": "function"
        },
        {
            "inputs": [
                {
                    "internalType": "uint256",
                    "name": "seqOfShare",
                    "type": "uint256"
                },
                {
                    "internalType": "uint256",
                    "name": "seqOfPld",
                    "type": "uint256"
                },
                {
                    "internalType": "string",
                    "name": "hashKey",
                    "type": "string"
                }
            ],
            "name": "releasePledge",
            "outputs": [],
            "stateMutability": "nonpayable",
            "type": "function"
        },
        {
            "inputs": [
                {
                    "internalType": "uint256",
                    "name": "seqOfSwap",
                    "type": "uint256"
                },
                {
                    "internalType": "string",
                    "name": "hashKey",
                    "type": "string"
                }
            ],
            "name": "releaseSwap",
            "outputs": [],
            "stateMutability": "nonpayable",
            "type": "function"
        },
        {
            "inputs": [
                {
                    "internalType": "uint256",
                    "name": "seqOfOpt",
                    "type": "uint256"
                },
                {
                    "internalType": "uint256",
                    "name": "seqOfBrf",
                    "type": "uint256"
                },
                {
                    "internalType": "string",
                    "name": "hashKey",
                    "type": "string"
                }
            ],
            "name": "releaseSwapOrder",
            "outputs": [],
            "stateMutability": "nonpayable",
            "type": "function"
        },
        {
            "inputs": [
                {
                    "internalType": "address",
                    "name": "target",
                    "type": "address"
                }
            ],
            "name": "removeDirectKeeper",
            "outputs": [],
            "stateMutability": "nonpayable",
            "type": "function"
        },
        {
            "inputs": [
                {
                    "internalType": "uint256",
                    "name": "seqOfMotion",
                    "type": "uint256"
                },
                {
                    "internalType": "uint256",
                    "name": "seqOfPos",
                    "type": "uint256"
                },
                {
                    "internalType": "uint256",
                    "name": "director",
                    "type": "uint256"
                }
            ],
            "name": "removeDirector",
            "outputs": [],
            "stateMutability": "nonpayable",
            "type": "function"
        },
        {
            "inputs": [
                {
                    "internalType": "uint256",
                    "name": "seqOfMotion",
                    "type": "uint256"
                },
                {
                    "internalType": "uint256",
                    "name": "seqOfPos",
                    "type": "uint256"
                },
                {
                    "internalType": "uint256",
                    "name": "officer",
                    "type": "uint256"
                }
            ],
            "name": "removeOfficer",
            "outputs": [],
            "stateMutability": "nonpayable",
            "type": "function"
        },
        {
            "inputs": [
                {
                    "internalType": "bytes32",
                    "name": "role",
                    "type": "bytes32"
                }
            ],
            "name": "renounceRole",
            "outputs": [],
            "stateMutability": "nonpayable",
            "type": "function"
        },
        {
            "inputs": [
                {
                    "internalType": "bytes32",
                    "name": "snOfLocker",
                    "type": "bytes32"
                },
                {
                    "internalType": "string",
                    "name": "hashKey",
                    "type": "string"
                },
                {
                    "internalType": "uint256",
                    "name": "salt",
                    "type": "uint256"
                }
            ],
            "name": "requestPaidInCapital",
            "outputs": [],
            "stateMutability": "nonpayable",
            "type": "function"
        },
        {
            "inputs": [
                {
                    "internalType": "uint256",
                    "name": "seqOfMotion",
                    "type": "uint256"
                },
                {
                    "internalType": "uint256",
                    "name": "seqOfDeal",
                    "type": "uint256"
                },
                {
                    "internalType": "uint256",
                    "name": "seqOfTarget",
                    "type": "uint256"
                }
            ],
            "name": "requestToBuy",
            "outputs": [],
            "stateMutability": "nonpayable",
            "type": "function"
        },
        {
            "inputs": [
                {
                    "internalType": "address",
                    "name": "ia",
                    "type": "address"
                },
                {
                    "internalType": "uint256",
                    "name": "seqOfDeal",
                    "type": "uint256"
                },
                {
                    "internalType": "string",
                    "name": "hashKey",
                    "type": "string"
                }
            ],
            "name": "revokeDeal",
            "outputs": [],
            "stateMutability": "nonpayable",
            "type": "function"
        },
        {
            "inputs": [
                {
                    "internalType": "uint256",
                    "name": "seqOfShare",
                    "type": "uint256"
                },
                {
                    "internalType": "uint256",
                    "name": "seqOfPld",
                    "type": "uint256"
                }
            ],
            "name": "revokePledge",
            "outputs": [],
            "stateMutability": "nonpayable",
            "type": "function"
        },
        {
            "inputs": [
                {
                    "internalType": "bytes32",
                    "name": "role",
                    "type": "bytes32"
                },
                {
                    "internalType": "uint256",
                    "name": "acct",
                    "type": "uint256"
                }
            ],
            "name": "revokeRole",
            "outputs": [],
            "stateMutability": "nonpayable",
            "type": "function"
        },
        {
            "inputs": [
                {
                    "internalType": "uint256",
                    "name": "seqOfSwap",
                    "type": "uint256"
                }
            ],
            "name": "revokeSwap",
            "outputs": [],
            "stateMutability": "nonpayable",
            "type": "function"
        },
        {
            "inputs": [
                {
                    "internalType": "uint256",
                    "name": "seqOfOpt",
                    "type": "uint256"
                },
                {
                    "internalType": "uint256",
                    "name": "seqOfBrf",
                    "type": "uint256"
                }
            ],
            "name": "revokeSwapOrder",
            "outputs": [],
            "stateMutability": "nonpayable",
            "type": "function"
        },
        {
            "inputs": [
                {
                    "internalType": "bool",
                    "name": "onPar",
                    "type": "bool"
                }
            ],
            "name": "setAmtBase",
            "outputs": [],
            "stateMutability": "nonpayable",
            "type": "function"
        },
        {
            "inputs": [
                {
                    "internalType": "bytes32",
                    "name": "_regNumHash",
                    "type": "bytes32"
                },
                {
                    "internalType": "string",
                    "name": "_name",
                    "type": "string"
                },
                {
                    "internalType": "string",
                    "name": "_symbol",
                    "type": "string"
                }
            ],
            "name": "setCompInfo",
            "outputs": [],
            "stateMutability": "nonpayable",
            "type": "function"
        },
        {
            "inputs": [
                {
                    "internalType": "address",
                    "name": "keeper",
                    "type": "address"
                }
            ],
            "name": "setDirectKeeper",
            "outputs": [],
            "stateMutability": "nonpayable",
            "type": "function"
        },
        {
            "inputs": [
                {
                    "internalType": "uint256",
                    "name": "acct",
                    "type": "uint256"
                }
            ],
            "name": "setGeneralCounsel",
            "outputs": [],
            "stateMutability": "nonpayable",
            "type": "function"
        },
        {
            "inputs": [
                {
                    "internalType": "uint256",
                    "name": "max",
                    "type": "uint256"
                }
            ],
            "name": "setMaxQtyOfMembers",
            "outputs": [],
            "stateMutability": "nonpayable",
            "type": "function"
        },
        {
            "inputs": [
                {
                    "internalType": "uint256",
                    "name": "acct",
                    "type": "uint256"
                }
            ],
            "name": "setOwner",
            "outputs": [],
            "stateMutability": "nonpayable",
            "type": "function"
        },
        {
            "inputs": [
                {
                    "internalType": "bytes32",
                    "name": "snOfLocker",
                    "type": "bytes32"
                },
                {
                    "internalType": "uint256",
                    "name": "amount",
                    "type": "uint256"
                }
            ],
            "name": "setPayInAmt",
            "outputs": [],
            "stateMutability": "nonpayable",
            "type": "function"
        },
        {
            "inputs": [
                {
                    "internalType": "bytes32",
                    "name": "role",
                    "type": "bytes32"
                },
                {
                    "internalType": "uint256",
                    "name": "acct",
                    "type": "uint256"
                }
            ],
            "name": "setRoleAdmin",
            "outputs": [],
            "stateMutability": "nonpayable",
            "type": "function"
        },
        {
            "inputs": [
                {
                    "internalType": "bool",
                    "name": "onPar",
                    "type": "bool"
                }
            ],
            "name": "setVoteBase",
            "outputs": [],
            "stateMutability": "nonpayable",
            "type": "function"
        },
        {
            "inputs": [
                {
                    "internalType": "address",
                    "name": "ia",
                    "type": "address"
                },
                {
                    "internalType": "bytes32",
                    "name": "sigHash",
                    "type": "bytes32"
                }
            ],
            "name": "signIA",
            "outputs": [],
            "stateMutability": "nonpayable",
            "type": "function"
        },
        {
            "inputs": [
                {
                    "internalType": "address",
                    "name": "sha",
                    "type": "address"
                },
                {
                    "internalType": "bytes32",
                    "name": "sigHash",
                    "type": "bytes32"
                }
            ],
            "name": "signSHA",
            "outputs": [],
            "stateMutability": "nonpayable",
            "type": "function"
        },
        {
            "inputs": [],
            "name": "symbolOfCompany",
            "outputs": [
                {
                    "internalType": "string",
                    "name": "",
                    "type": "string"
                }
            ],
            "stateMutability": "view",
            "type": "function"
        },
        {
            "inputs": [
                {
                    "internalType": "address",
                    "name": "ia",
                    "type": "address"
                },
                {
                    "internalType": "uint256",
                    "name": "seqOfDeal",
                    "type": "uint256"
                }
            ],
            "name": "takeGiftShares",
            "outputs": [],
            "stateMutability": "nonpayable",
            "type": "function"
        },
        {
            "inputs": [
                {
                    "internalType": "uint256",
                    "name": "seqOfMotion",
                    "type": "uint256"
                },
                {
                    "internalType": "uint256",
                    "name": "seqOfPos",
                    "type": "uint256"
                }
            ],
            "name": "takePosition",
            "outputs": [],
            "stateMutability": "nonpayable",
            "type": "function"
        },
        {
            "inputs": [
                {
                    "internalType": "uint256",
                    "name": "seqOfMotion",
                    "type": "uint256"
                },
                {
                    "internalType": "uint256",
                    "name": "seqOfPos",
                    "type": "uint256"
                }
            ],
            "name": "takeSeat",
            "outputs": [],
            "stateMutability": "nonpayable",
            "type": "function"
        },
        {
            "inputs": [
                {
                    "internalType": "address",
                    "name": "ia",
                    "type": "address"
                },
                {
                    "internalType": "uint256",
                    "name": "seqOfDeal",
                    "type": "uint256"
                }
            ],
            "name": "terminateDeal",
            "outputs": [],
            "stateMutability": "nonpayable",
            "type": "function"
        },
        {
            "inputs": [
                {
                    "internalType": "uint256",
                    "name": "seqOfShare",
                    "type": "uint256"
                },
                {
                    "internalType": "uint256",
                    "name": "seqOfPld",
                    "type": "uint256"
                },
                {
                    "internalType": "uint256",
                    "name": "buyer",
                    "type": "uint256"
                },
                {
                    "internalType": "uint256",
                    "name": "amt",
                    "type": "uint256"
                }
            ],
            "name": "transferPledge",
            "outputs": [],
            "stateMutability": "nonpayable",
            "type": "function"
        },
        {
            "inputs": [
                {
                    "internalType": "uint256",
                    "name": "seqOfSwap",
                    "type": "uint256"
                },
                {
                    "internalType": "uint256",
                    "name": "to",
                    "type": "uint256"
                },
                {
                    "internalType": "uint256",
                    "name": "amt",
                    "type": "uint256"
                }
            ],
            "name": "transferSwap",
            "outputs": [],
            "stateMutability": "nonpayable",
            "type": "function"
        },
        {
            "inputs": [
                {
                    "internalType": "address",
                    "name": "ia",
                    "type": "address"
                },
                {
                    "internalType": "uint256",
                    "name": "seqOfDeal",
                    "type": "uint256"
                }
            ],
            "name": "transferTargetShare",
            "outputs": [],
            "stateMutability": "nonpayable",
            "type": "function"
        },
        {
            "inputs": [
                {
                    "internalType": "uint256",
                    "name": "seqOfOpt",
                    "type": "uint256"
                },
                {
                    "internalType": "uint256",
                    "name": "d1",
                    "type": "uint256"
                },
                {
                    "internalType": "uint256",
                    "name": "d2",
                    "type": "uint256"
                },
                {
                    "internalType": "uint256",
                    "name": "d3",
                    "type": "uint256"
                }
            ],
            "name": "updateOracle",
            "outputs": [],
            "stateMutability": "nonpayable",
            "type": "function"
        },
        {
            "inputs": [
                {
                    "internalType": "uint256",
                    "name": "seqOfShare",
                    "type": "uint256"
                },
                {
                    "internalType": "uint256",
                    "name": "line",
                    "type": "uint256"
                }
            ],
            "name": "updatePaidInDeadline",
            "outputs": [],
            "stateMutability": "nonpayable",
            "type": "function"
        },
        {
            "inputs": [
                {
                    "internalType": "uint256",
                    "name": "seqOfMotion",
                    "type": "uint256"
                }
            ],
            "name": "voteCounting",
            "outputs": [],
            "stateMutability": "nonpayable",
            "type": "function"
        },
        {
            "inputs": [
                {
                    "internalType": "uint256",
                    "name": "seqOfMotion",
                    "type": "uint256"
                }
            ],
            "name": "voteCountingOfGM",
            "outputs": [],
            "stateMutability": "nonpayable",
            "type": "function"
        },
        {
            "inputs": [
                {
                    "internalType": "bytes32",
                    "name": "snOfLocker",
                    "type": "bytes32"
                }
            ],
            "name": "withdrawPayInAmt",
            "outputs": [],
            "stateMutability": "nonpayable",
            "type": "function"
        }
    ],
    "bytecode": "608060405234801561001057600080fd5b50614f2d806100206000396000f3fe608060405234801561001057600080fd5b50600436106106aa5760003560e01c8063848938211161036c578063bd6200cc116101de578063dc730ca11161010f578063f1fe07af116100ad578063f8fb9e1d11610087578063f8fb9e1d14610ff9578063f9ee371b1461100c578063fa0be08514611023578063fd95c4c01461103657600080fd5b8063f1fe07af14610fc0578063f424672b14610fd3578063f584accb14610fe657600080fd5b8063e9c733d2116100e9578063e9c733d214610f63578063ed21102314610f76578063f01e100f14610f7e578063f045a76914610fb857600080fd5b8063dc730ca114610f2a578063dc890da914610f3d578063dfd3002114610f5057600080fd5b8063ccb35b991161017c578063d6c4985c11610156578063d6c4985c14610ede578063d867767114610ef1578063da6a43d614610f04578063dc09fd2914610f1757600080fd5b8063ccb35b9914610ea5578063cd016f3c14610eb8578063cd78c98a14610ecb57600080fd5b8063c44a7130116101b8578063c44a713014610e43578063c52f628714610e6c578063c563127714610e7f578063cb38513314610e9257600080fd5b8063bd6200cc14610de3578063bdc36f6214610e1d578063be29b07714610e3057600080fd5b8063a023707d116102b8578063ab4e66b611610256578063b3f05b9711610230578063b3f05b9714610d6f578063b613bb4c14610d83578063b73cb69914610dbd578063ba5052cb14610dd057600080fd5b8063ab4e66b614610ce8578063acd2d05714610cfb578063b38dc81114610d3557600080fd5b8063a6f9388911610292578063a6f9388914610ca7578063a8ccff4b14610cba578063aa0ad35214610cc2578063aa22742b14610cd557600080fd5b8063a023707d14610c79578063a61adc2814610c8c578063a690d94d14610c9457600080fd5b8063903cd5001161032557806392c2c3d3116102ff57806392c2c3d314610c2d578063946088cd14610c4057806394e3833a14610c53578063959efc8514610c6657600080fd5b8063903cd50014610bcd578063906149f114610be05780639262826d14610bf357600080fd5b80638489382114610b665780638506c43f14610b79578063851aa5a014610b8c57806388ca46ed14610b9f578063893d20e814610bb25780638bb9c5bf14610bba57600080fd5b806350235307116105205780636ba42aaa1161045157806376f2736f116103ef5780637e063c5a116103c95780637e063c5a14610b1a5780637e22e0ea14610b2d5780637e2b953014610b405780638041494e14610b5357600080fd5b806376f2736f14610ae157806377a9dfa014610af457806377aab01314610b0757600080fd5b80636e93dcce1161042b5780636e93dcce14610a955780636f47c5e114610aa85780637504e5a014610abb57806375183b4814610ace57600080fd5b80636ba42aaa14610a4c5780636be8496f14610a6f5780636e8d387314610a8257600080fd5b806361d65d55116104be57806367a456591161049857806367a45659146109d957806368271a82146109ec578063682ebf05146109ff5780636998d28d14610a3957600080fd5b806361d65d55146109a05780636555ff7a146109b35780636600f97a146109c657600080fd5b8063587e5b5e116104fa578063587e5b5e146109525780635a4f8f49146109675780635d7ad88f1461097a5780635eb3d3a41461098d57600080fd5b806350235307146109195780635171ebd41461092c578063569e10061461093f57600080fd5b8063275943e9116105fa5780633cb451441161059857806345a4bf781161057257806345a4bf78146108cd578063467fb8f2146108e0578063498ec436146108f35780634a14beb11461090657600080fd5b80633cb45144146108945780633da9a600146108a7578063452558b0146108ba57600080fd5b8063331dbb22116105d4578063331dbb221461082157806333e685301461083457806333fb96ee146108475780633c8515921461088157600080fd5b8063275943e9146107e8578063298d645c146107fb5780632c425acc1461080e57600080fd5b806318c678aa116106675780631f6b2609116106415780631f6b260914610761578063205969bd1461077457806320fbea4e1461078757806323e4b165146107d557600080fd5b806318c678aa1461072857806319d61ad91461073b5780631b6ea9f91461074e57600080fd5b806301b38c6b146106af57806307f2990e146106c4578063103f6edd146106d757806313f2e8f8146106fa57806314d3cb851461070d578063159186c114610715575b600080fd5b6106c26106bd366004614235565b611049565b005b6106c26106d2366004614429565b6110db565b6106df611214565b60405164ffffffffff90911681526020015b60405180910390f35b6106c261070836600461452d565b6112a0565b6106c2611342565b6106c2610723366004614562565b611477565b6106c261073636600461459d565b61152a565b6106c26107493660046145c9565b6115ce565b6106c261075c3660046145c9565b611658565b6106c261076f366004614235565b61167e565b6106c26107823660046145eb565b6116af565b600660005260076020527f55c5b153ab560fcde54a63b18c7f53d75501706907cef8767fbded79ab9997c7546001600160a01b03165b6040516001600160a01b0390911681526020016106f1565b6106c26107e33660046145c9565b61171f565b6106c26107f6366004614617565b611813565b6106c2610809366004614235565b6118e6565b6106c261081c36600461459d565b611917565b6106c261082f366004614235565b611949565b6106c2610842366004614663565b611a36565b600860005260076020527f4b1bf46c9f1bd48ff8274d40bad76a6615cb6c59a637d451a3994194b2db86be546001600160a01b03166107bd565b6106c261088f3660046145eb565b611abe565b6106c26108a23660046145eb565b611af1565b6106c26108b5366004614235565b611b24565b6106c26108c836600461459d565b611ba8565b6106c26108db366004614429565b611c9d565b6106c26108ee3660046146c6565b611cf5565b6106c26109013660046145c9565b611d47565b6106c2610914366004614235565b611e3b565b6106c261092736600461471f565b612098565b6106c261093a3660046145c9565b6120ea565b6106c261094d366004614562565b612110565b61095a612143565b6040516106f191906147b1565b6106c26109753660046147c4565b6121d1565b6106c26109883660046147f6565b61224a565b6106c261099b3660046145eb565b612382565b6106c26109ae3660046145eb565b6123b5565b6106c26109c1366004614235565b6123e8565b6106c26109d436600461452d565b612419565b6106c26109e7366004614617565b61244c565b6106c26109fa366004614429565b612483565b600360005260076020527f3be6fd20d5acfde5b873b48692cd31f4d3c7e8ee8a813af4696af8859e5ca6c6546001600160a01b03166107bd565b6106c2610a473660046145c9565b6124b9565b610a5f610a5a3660046147f6565b612523565b60405190151581526020016106f1565b6106c2610a7d3660046147f6565b612574565b6106c2610a903660046145c9565b612626565b6106c2610aa33660046145eb565b612658565b6106c2610ab63660046145c9565b61268b565b6106c2610ac93660046145eb565b6126bd565b6106c2610adc366004614235565b6126f0565b6106c2610aef3660046147c4565b612721565b6106c2610b0236600461459d565b612823565b6106c2610b15366004614235565b612855565b610a5f610b283660046145c9565b612886565b6106c2610b3b3660046145c9565b612921565b6106c2610b4e3660046147f6565b612953565b6106c2610b61366004614235565b6129bc565b6106c2610b7436600461452d565b612a75565b6106c2610b8736600461452d565b612aee565b6106c2610b9a366004614235565b612b21565b6106c2610bad36600461452d565b612c20565b6106df612c53565b6106c2610bc8366004614235565b612c8e565b6106c2610bdb366004614813565b612cb3565b6106c2610bee3660046145eb565b612d03565b600260005260076020527fb7c774451310d1be4108bc180d1b52823cb0ee0274a6c0081bcaf94f115fb96d546001600160a01b03166107bd565b6106c2610c3b366004614235565b612d36565b6106c2610c4e366004614235565b612d67565b6106c2610c613660046145eb565b612dd9565b6106c2610c74366004614429565b612e0c565b6106c2610c873660046147c4565b612e44565b6107bd612e78565b6106c2610ca2366004614235565b612f1e565b6106c2610cb5366004614562565b612f4f565b61095a612fd0565b6106c2610cd036600461485a565b612fdd565b6106c2610ce3366004614235565b61302f565b6106c2610cf63660046146c6565b613060565b600160005260076020527fb39221ace053465ec3453ce2b36430bd138b997ecea25c1043da0c366812b828546001600160a01b03166107bd565b600560005260076020527fbcdda56b5d08466ec462cbbe0adfa57cb0a15fcc8940ef68f702f21b787bc935546001600160a01b03166107bd565b60028054600160f01b900460ff1614610a5f565b600460005260076020527fb805995a7ec585a251200611a61d179cfd7fb105e1ab17dc415a7336783786f7546001600160a01b03166107bd565b6106c2610dcb3660046145c9565b6130b2565b6106c2610dde366004614235565b6130e4565b600960005260076020527ff1f3e9c34634a546b3672c043f73844d83d55591bbe61b8e7e3a72bca1a812bf546001600160a01b03166107bd565b6106c2610e2b3660046148b8565b6131d1565b6106c2610e3e366004614235565b6132d1565b6107bd610e51366004614235565b6000908152600860205260409020546001600160a01b031690565b6106c2610e7a3660046145c9565b613303565b6106c2610e8d3660046145eb565b613335565b6106c2610ea03660046145c9565b613368565b6106c2610eb33660046148d5565b61339a565b6106c2610ec63660046145eb565b6134ae565b6106c2610ed93660046145eb565b6134e1565b6106c2610eec36600461471f565b6135dc565b6106c2610eff366004614905565b61360f565b6106c2610f123660046148b8565b613754565b6106c2610f253660046145c9565b613854565b6106c2610f383660046145eb565b613886565b6106c2610f4b366004614968565b6138b9565b6106c2610f5e3660046145c9565b61399b565b6106c2610f713660046145c9565b6139cd565b6107bd6139ff565b600760008190526020527fb7c49cceb9f85950584035457a41ebbd8cf93b9b612733ad25aa9731ac43aad6546001600160a01b03166107bd565b6106c2613a61565b6106c2610fce3660046148d5565b613ca5565b6106c2610fe13660046145c9565b613db9565b6106c2610ff43660046149bb565b613deb565b6106c2611007366004614235565b613ea7565b61101560045481565b6040519081526020016106f1565b6106c261103136600461459d565b613ed8565b6106c261104436600461459d565b613f48565b600a6000526008602052600080516020614e58833981519152546001600160a01b031663209ddb8d8261107a613f76565b6040516001600160e01b031960e085901b168152600481019290925264ffffffffff1660248201526044015b600060405180830381600087803b1580156110c057600080fd5b505af11580156110d4573d6000803e3d6000fd5b5050505050565b600360009081526008602052600080516020614df8833981519152546001600160a01b031663020c814d888888888888611113613f76565b6040518863ffffffff1660e01b81526004016111359796959493929190614a91565b602060405180830381600087803b15801561114f57600080fd5b505af1158015611163573d6000803e3d6000fd5b505050506040513d601f19601f820116820180604052508101906111879190614b34565b9050611194868686613fd0565b156111d4576040516001815281907f90d27aa223d991b1f5ce114c8bd3a03525a9f3e05799b7b66fb9f431df931f139060200160405180910390a261120b565b6040516000815281907f90d27aa223d991b1f5ce114c8bd3a03525a9f3e05799b7b66fb9f431df931f139060200160405180910390a25b50505050505050565b60405163e8c0cc1d60e01b81526002600482015260009073__$364aad554dc80380f414546becdd2c1584$__9063e8c0cc1d906024015b60206040518083038186803b15801561126357600080fd5b505af4158015611277573d6000803e3d6000fd5b505050506040513d601f19601f8201168201806040525081019061129b9190614b4d565b905090565b60036000526008602052600080516020614df8833981519152546001600160a01b031663d0e27e108484846112d3613f76565b6040516001600160e01b031960e087901b1681526001600160a01b0390941660048501526024840192909252604483015264ffffffffff1660648201526084015b600060405180830381600087803b15801561132e57600080fd5b505af115801561120b573d6000803e3d6000fd5b604051633b11adbf60e21b81526002600482015233602482015273__$364aad554dc80380f414546becdd2c1584$__9063ec46b6fc9060440160206040518083038186803b15801561139357600080fd5b505af41580156113a7573d6000803e3d6000fd5b505050506040513d601f19601f820116820180604052508101906113cb9190614b74565b6113f05760405162461bcd60e51b81526004016113e790614b91565b60405180910390fd5b6008602052600080516020614df8833981519152546001600052600080516020614e3883398151915254604051630c06e30760e11b81526001600160a01b03918216600482015291169063180dc60e90602401600060405180830381600087803b15801561145d57600080fd5b505af1158015611471573d6000803e3d6000fd5b50505050565b60096000526008602052600080516020614ed8833981519152546001600160a01b031663f51147e38585856114aa613f76565b6040516001600160e01b031960e087901b1681526001600160a01b0390941660048501526024840192909252604483015264ffffffffff1660648201526084810184905260a4015b600060405180830381600087803b15801561150c57600080fd5b505af1158015611520573d6000803e3d6000fd5b5050505050505050565b60016000526008602052600080516020614e38833981519152546001600160a01b031663755514d5838361155c613f76565b6040516001600160e01b031960e086901b1681526001600160a01b039093166004840152602483019190915264ffffffffff1660448201526064015b600060405180830381600087803b1580156115b257600080fd5b505af11580156115c6573d6000803e3d6000fd5b505050505050565b73__$364aad554dc80380f414546becdd2c1584$__6382daafaa600284846115f4613f76565b6040516001600160e01b031960e087901b16815260048101949094526024840192909252604483015264ffffffffff16606482015260840160006040518083038186803b15801561164457600080fd5b505af41580156115c6573d6000803e3d6000fd5b73__$364aad554dc80380f414546becdd2c1584$__636320d75e600284846115f4613f76565b60046000526008602052600080516020614eb8833981519152546001600160a01b0316637c67d7478261107a613f76565b60066000526008602052600080516020614dd8833981519152546001600160a01b0316633067033d8484846116e2613f76565b6040516001600160e01b031960e087901b16815260048101949094526024840192909252604483015264ffffffffff166064820152608401611314565b604051633b11adbf60e21b81526002600482015233602482015273__$364aad554dc80380f414546becdd2c1584$__9063ec46b6fc9060440160206040518083038186803b15801561177057600080fd5b505af4158015611784573d6000803e3d6000fd5b505050506040513d601f19601f820116820180604052508101906117a89190614b74565b6117c45760405162461bcd60e51b81526004016113e790614b91565b60076000526008602052600080516020614e78833981519152546040516323e4b16560e01b815260048101849052602481018390526001600160a01b03909116906323e4b16590604401611598565b600960009081526008602052600080516020614ed8833981519152546001600160a01b03169063651c7b08908890889088888861184e613f76565b6040516001600160e01b031960e08a901b1681526001600160a01b039097166004880152602487019590955292151560448601526064850191909152608484015260a483015264ffffffffff1660c482015260e48101849052610104015b600060405180830381600087803b1580156118c657600080fd5b505af11580156118da573d6000803e3d6000fd5b50505050505050505050565b600a6000526008602052600080516020614e58833981519152546001600160a01b031663ccbc79e88261107a613f76565b60046000526008602052600080516020614eb8833981519152546001600160a01b0316637e2cd24a838361155c613f76565b604051633b11adbf60e21b81526002600482015233602482015273__$364aad554dc80380f414546becdd2c1584$__9063ec46b6fc9060440160206040518083038186803b15801561199a57600080fd5b505af41580156119ae573d6000803e3d6000fd5b505050506040513d601f19601f820116820180604052508101906119d29190614b74565b6119ee5760405162461bcd60e51b81526004016113e790614b91565b60036000526008602052600080516020614df88339815191525460405163198edd9160e11b8152600481018390526001600160a01b039091169063331dbb22906024016110a6565b60066000526008602052600080516020614dd8833981519152546001600160a01b0316631452443b878787878787611a6c613f76565b6040516001600160e01b031960e08a901b1681526004810197909752602487019590955260448601939093526064850191909152608484015260a483015264ffffffffff1660c482015260e4016118ac565b60066000526008602052600080516020614dd8833981519152546001600160a01b031663417dea258484846116e2613f76565b600a6000526008602052600080516020614e58833981519152546001600160a01b0316636a291ad68484846116e2613f76565b73__$364aad554dc80380f414546becdd2c1584$__63c51b295f600283611b49613f76565b6040516001600160e01b031960e086901b1681526004810193909352602483019190915264ffffffffff16604482015260640160006040518083038186803b158015611b9457600080fd5b505af41580156110d4573d6000803e3d6000fd5b604051633b11adbf60e21b81526002600482015233602482015273__$364aad554dc80380f414546becdd2c1584$__9063ec46b6fc9060440160206040518083038186803b158015611bf957600080fd5b505af4158015611c0d573d6000803e3d6000fd5b505050506040513d601f19601f82011682018060405250810190611c319190614b74565b611c4d5760405162461bcd60e51b81526004016113e790614b91565b60016000526008602052600080516020614e3883398151915254604051630452558b60e41b81526001600160a01b038481166004830152602482018490529091169063452558b090604401611598565b60036000526008602052600080516020614df8833981519152546001600160a01b031663c24cb859878787878787611cd3613f76565b6040518863ffffffff1660e01b81526004016118ac9796959493929190614a91565b60016000526008602052600080516020614e38833981519152546001600160a01b031663d270be0e8484611d27613f76565b856040518563ffffffff1660e01b81526004016113149493929190614bd7565b604051633b11adbf60e21b81526002600482015233602482015273__$364aad554dc80380f414546becdd2c1584$__9063ec46b6fc9060440160206040518083038186803b158015611d9857600080fd5b505af4158015611dac573d6000803e3d6000fd5b505050506040513d601f19601f82011682018060405250810190611dd09190614b74565b611dec5760405162461bcd60e51b81526004016113e790614b91565b60076000526008602052600080516020614e78833981519152546040516324c7621b60e11b815260048101849052602481018390526001600160a01b039091169063498ec43690604401611598565b604051633b11adbf60e21b81526002600482015233602482015273__$364aad554dc80380f414546becdd2c1584$__9063ec46b6fc9060440160206040518083038186803b158015611e8c57600080fd5b505af4158015611ea0573d6000803e3d6000fd5b505050506040513d601f19601f82011682018060405250810190611ec49190614b74565b80611f69575073__$364aad554dc80380f414546becdd2c1584$__63fe2710866002611eee613f76565b6040516001600160e01b031960e085901b168152600481019290925264ffffffffff16602482015260440160206040518083038186803b158015611f3157600080fd5b505af4158015611f45573d6000803e3d6000fd5b505050506040513d601f19601f82011682018060405250810190611f699190614b74565b611fd45760405162461bcd60e51b815260206004820152603660248201527f41432e6f776e65724f72446972656374426f6f6b65657065723a206e6569746860448201527532b91037bbb732b9103737b9103137b7b5b2b2b832b960511b60648201526084016113e7565b73__$364aad554dc80380f414546becdd2c1584$__639b4510de600283611ff9613f76565b6040516001600160e01b031960e086901b1681526004810193909352602483019190915264ffffffffff16604482015260640160006040518083038186803b15801561204457600080fd5b505af4158015612058573d6000803e3d6000fd5b505050507ff2735f34b69be1e6342dea95f9162f84d0db925fab655ca9f1f312ac8cbfc99d8160405161208d91815260200190565b60405180910390a150565b60066000526008602052600080516020614dd8833981519152546001600160a01b0316634c76218b8484846120cb613f76565b6040518563ffffffff1660e01b81526004016113149493929190614c15565b73__$364aad554dc80380f414546becdd2c1584$__63ee98b313600284846115f4613f76565b60096000526008602052600080516020614ed8833981519152546001600160a01b031663325508d58585856114aa613f76565b6005805461215090614c4c565b80601f016020809104026020016040519081016040528092919081815260200182805461217c90614c4c565b80156121c95780601f1061219e576101008083540402835291602001916121c9565b820191906000526020600020905b8154815290600101906020018083116121ac57829003601f168201915b505050505081565b60056000526008602052600080516020614e98833981519152546001600160a01b031663b647c72985858585612205613f76565b6040516001600160e01b031960e088901b168152600481019590955260248501939093526044840191909152606483015264ffffffffff16608482015260a4016114f2565b604051633b11adbf60e21b81526002600482015233602482015273__$364aad554dc80380f414546becdd2c1584$__9063ec46b6fc9060440160206040518083038186803b15801561229b57600080fd5b505af41580156122af573d6000803e3d6000fd5b505050506040513d601f19601f820116820180604052508101906122d39190614b74565b6122ef5760405162461bcd60e51b81526004016113e790614b91565b604051636be8496f60e01b81523360048201526001600160a01b03821690636be8496f90602401600060405180830381600087803b15801561233057600080fd5b505af1158015612344573d6000803e3d6000fd5b50506040516001600160a01b03841681527f64dd6e84044f0067086012335dcfab3188db6615b5cc7debf18c9a621ebd5d919250602001905061208d565b60026000526008602052600080516020614e18833981519152546001600160a01b031663a87807998484846116e2613f76565b60066000526008602052600080516020614dd8833981519152546001600160a01b031663ca6de9ac8484846116e2613f76565b60056000526008602052600080516020614e98833981519152546001600160a01b0316632371494b8261107a613f76565b60026000526008602052600080516020614e18833981519152546001600160a01b031663cd43b1658484846112d3613f76565b60096000526008602052600080516020614ed8833981519152546001600160a01b031663651c7b088787600188888861184e613f76565b60026000526008602052600080516020614e18833981519152546001600160a01b031663bbfd607d878787878787611cd3613f76565b60026000526008602052600080516020614e18833981519152546001600160a01b0316633e2032ab83836124eb613f76565b6040516001600160e01b031960e086901b1681526004810193909352602483019190915264ffffffffff166044820152606401611598565b6000600a5b801561256b576000818152600860205260409020546001600160a01b03848116911614156125595750600192915050565b8061256381614c9d565b915050612528565b50600092915050565b604051630f07232560e01b8152600260048201526001600160a01b038216602482015233604482015273__$364aad554dc80380f414546becdd2c1584$__90630f0723259060640160006040518083038186803b1580156125d457600080fd5b505af41580156125e8573d6000803e3d6000fd5b50506040516001600160a01b03841681527fe435cbeab64e4eae6497b9d8289704bd709d624a80704ef3ca9af777534bc6ec9250602001905061208d565b60026000526008602052600080516020614e18833981519152546001600160a01b0316636a0cb96483836124eb613f76565b60036000526008602052600080516020614df8833981519152546001600160a01b031663a8459ac08484846116e2613f76565b60026000526008602052600080516020614e18833981519152546001600160a01b031663fe1bdff283836124eb613f76565b60026000526008602052600080516020614e18833981519152546001600160a01b0316631119501e8484846116e2613f76565b60036000526008602052600080516020614df8833981519152546001600160a01b0316631153cd2e8261107a613f76565b604051633b11adbf60e21b81526002600482015233602482015273__$364aad554dc80380f414546becdd2c1584$__9063ec46b6fc9060440160206040518083038186803b15801561277257600080fd5b505af4158015612786573d6000803e3d6000fd5b505050506040513d601f19601f820116820180604052508101906127aa9190614b74565b6127c65760405162461bcd60e51b81526004016113e790614b91565b60056000526008602052600080516020614e98833981519152546040516376f2736f60e01b8152600481018690526024810185905260448101849052606481018390526001600160a01b03909116906376f2736f906084016114f2565b60096000526008602052600080516020614ed8833981519152546001600160a01b03166358677418838361155c613f76565b60036000526008602052600080516020614df8833981519152546001600160a01b031663a60988078261107a613f76565b604051632a3be56b60e21b815260026004820152602481018390526044810182905260009073__$364aad554dc80380f414546becdd2c1584$__9063a8ef95ac9060640160206040518083038186803b1580156128e257600080fd5b505af41580156128f6573d6000803e3d6000fd5b505050506040513d601f19601f8201168201806040525081019061291a9190614b74565b9392505050565b600a6000526008602052600080516020614e58833981519152546001600160a01b03166307dd4c0183836124eb613f76565b60046000526008602052600080516020614eb8833981519152546001600160a01b031663e396e78f82612984613f76565b6040516001600160e01b031960e085901b1681526001600160a01b03909216600483015264ffffffffff1660248201526044016110a6565b73__$364aad554dc80380f414546becdd2c1584$__639b48160c6002836129e1613f76565b6040516001600160e01b031960e086901b1681526004810193909352602483019190915264ffffffffff16604482015260640160006040518083038186803b158015612a2c57600080fd5b505af4158015612a40573d6000803e3d6000fd5b505050507f8b6f40f36b4ae8cc5f55e895036457c43da4ab1f80f58c46f5ff0d72a650033b8160405161208d91815260200190565b60096000526008602052600080516020614ed8833981519152546001600160a01b031663f61bf2848484612aa7613f76565b6040516001600160e01b031960e086901b1681526001600160a01b039093166004840152602483019190915264ffffffffff16604482015260648101849052608401611314565b60016000526008602052600080516020614e38833981519152546001600160a01b0316636e6014a48484846112d3613f76565b604051633b11adbf60e21b81526002600482015233602482015273__$364aad554dc80380f414546becdd2c1584$__9063ec46b6fc9060440160206040518083038186803b158015612b7257600080fd5b505af4158015612b86573d6000803e3d6000fd5b505050506040513d601f19601f82011682018060405250810190612baa9190614b74565b612bc65760405162461bcd60e51b81526004016113e790614b91565b600860008190526020527fe4c2e8be66af8dd2d277000f4f830a10546f8b14e45cd850b875c98ba0f0d2cd54604051630428d52d60e51b8152600481018390526001600160a01b039091169063851aa5a0906024016110a6565b60046000526008602052600080516020614eb8833981519152546001600160a01b0316634ad0da1c8484846112d3613f76565b60405163987ad15360e01b81526002600482015260009073__$364aad554dc80380f414546becdd2c1584$__9063987ad1539060240161124b565b73__$364aad554dc80380f414546becdd2c1584$__63cc0d511b600283611b49613f76565b600a6000526008602052600080516020614e58833981519152546001600160a01b031663ad2049e28383612ce5613f76565b6040518463ffffffff1660e01b815260040161159893929190614cb4565b60036000526008602052600080516020614df8833981519152546001600160a01b0316639d7d867b8484846116e2613f76565b60026000526008602052600080516020614e18833981519152546001600160a01b0316631ad1ea448261107a613f76565b60016000526008602052600080516020614e38833981519152546001600160a01b031663f4a6975c8233612d99613f76565b6040516001600160e01b031960e086901b16815260048101939093526001600160a01b03909116602483015264ffffffffff1660448201526064016110a6565b600a6000526008602052600080516020614e58833981519152546001600160a01b031663456d55748484846116e2613f76565b600260009081526008602052600080516020614e18833981519152546001600160a01b0316635c2753bf888888888888611113613f76565b60066000526008602052600080516020614dd8833981519152546001600160a01b0316635551fc4885858585612205613f76565b60046000818152600760209081527fb805995a7ec585a251200611a61d179cfd7fb105e1ab17dc415a7336783786f75460408051630bd7cecf60e21b8152905193946001600160a01b0390921693632f5f3b3c93828401939092829003018186803b158015612ee657600080fd5b505afa158015612efa573d6000803e3d6000fd5b505050506040513d601f19601f8201168201806040525081019061129b9190614ce4565b60026000526008602052600080516020614e18833981519152546001600160a01b0316636765a9c28261107a613f76565b60016000526008602052600080516020614e38833981519152546001600160a01b03166392a3820285858585612f83613f76565b6040516001600160e01b031960e088901b1681526001600160a01b03909516600486015260248501939093526044840191909152606483015264ffffffffff16608482015260a4016114f2565b6006805461215090614c4c565b60076000526008602052600080516020614e78833981519152546001600160a01b0316637c3be473848484613010613f76565b6040518563ffffffff1660e01b81526004016113149493929190614d01565b60036000526008602052600080516020614df8833981519152546001600160a01b031663f1e9e7f78261107a613f76565b60016000526008602052600080516020614e38833981519152546001600160a01b031663deeb633f848484613093613f76565b6040518563ffffffff1660e01b81526004016113149493929190614d38565b60056000526008602052600080516020614e98833981519152546001600160a01b031663ab35941783836124eb613f76565b604051633b11adbf60e21b81526002600482015233602482015273__$364aad554dc80380f414546becdd2c1584$__9063ec46b6fc9060440160206040518083038186803b15801561313557600080fd5b505af4158015613149573d6000803e3d6000fd5b505050506040513d601f19601f8201168201806040525081019061316d9190614b74565b6131895760405162461bcd60e51b81526004016113e790614b91565b60076000526008602052600080516020614e788339815191525460405163ba5052cb60e01b8152600481018390526001600160a01b039091169063ba5052cb906024016110a6565b604051633b11adbf60e21b81526002600482015233602482015273__$364aad554dc80380f414546becdd2c1584$__9063ec46b6fc9060440160206040518083038186803b15801561322257600080fd5b505af4158015613236573d6000803e3d6000fd5b505050506040513d601f19601f8201168201806040525081019061325a9190614b74565b6132765760405162461bcd60e51b81526004016113e790614b91565b600860008190526020527fe4c2e8be66af8dd2d277000f4f830a10546f8b14e45cd850b875c98ba0f0d2cd54604051635ee1b7b160e11b815282151560048201526001600160a01b039091169063bdc36f62906024016110a6565b60046000526008602052600080516020614eb8833981519152546001600160a01b031663262bc9258233612d99613f76565b60036000526008602052600080516020614df8833981519152546001600160a01b0316633b9f1b8183836124eb613f76565b600a6000526008602052600080516020614e58833981519152546001600160a01b031663b06cfa478484846116e2613f76565b60036000526008602052600080516020614df8833981519152546001600160a01b0316633c44bcb683836124eb613f76565b604051633b11adbf60e21b81526002600482015233602482015273__$364aad554dc80380f414546becdd2c1584$__9063ec46b6fc9060440160206040518083038186803b1580156133eb57600080fd5b505af41580156133ff573d6000803e3d6000fd5b505050506040513d601f19601f820116820180604052508101906134239190614b74565b61343f5760405162461bcd60e51b81526004016113e790614b91565b604080518381526001600160a01b03831660208201527f838fc13938ceb62aa7444f7131937844c8e2211f1ee9e1a6f306e00653cf724a910160405180910390a160009182526008602052604090912080546001600160a01b0319166001600160a01b03909216919091179055565b60056000526008602052600080516020614e98833981519152546001600160a01b0316635d0389cd8484846116e2613f76565b604051633b11adbf60e21b81526002600482015233602482015273__$364aad554dc80380f414546becdd2c1584$__9063ec46b6fc9060440160206040518083038186803b15801561353257600080fd5b505af4158015613546573d6000803e3d6000fd5b505050506040513d601f19601f8201168201806040525081019061356a9190614b74565b6135865760405162461bcd60e51b81526004016113e790614b91565b60076000526008602052600080516020614e78833981519152546040516366bc64c560e11b81526004810185905260248101849052604481018390526001600160a01b039091169063cd78c98a90606401611314565b60056000526008602052600080516020614e98833981519152546001600160a01b031663866f989d8484846120cb613f76565b73__$364aad554dc80380f414546becdd2c1584$__63fe2710866002613633613f76565b6040516001600160e01b031960e085901b168152600481019290925264ffffffffff16602482015260440160206040518083038186803b15801561367657600080fd5b505af415801561368a573d6000803e3d6000fd5b505050506040513d601f19601f820116820180604052508101906136ae9190614b74565b6136ed5760405162461bcd60e51b815260206004820152601060248201526f20a19737bb9d103737ba1037bbb732b960811b60448201526064016113e7565b7ff5dc62077fedfd6f264e19807cd9ba008d6cd1c756e4a565e6663e6b6109181383838360405161372093929190614d5f565b60405180910390a16004839055815161374090600590602085019061419c565b50805161147190600690602084019061419c565b604051633b11adbf60e21b81526002600482015233602482015273__$364aad554dc80380f414546becdd2c1584$__9063ec46b6fc9060440160206040518083038186803b1580156137a557600080fd5b505af41580156137b9573d6000803e3d6000fd5b505050506040513d601f19601f820116820180604052508101906137dd9190614b74565b6137f95760405162461bcd60e51b81526004016113e790614b91565b600860008190526020527fe4c2e8be66af8dd2d277000f4f830a10546f8b14e45cd850b875c98ba0f0d2cd54604051636d3521eb60e11b815282151560048201526001600160a01b039091169063da6a43d6906024016110a6565b60036000526008602052600080516020614df8833981519152546001600160a01b0316637451ce0383836124eb613f76565b600a6000526008602052600080516020614e58833981519152546001600160a01b031663d64d278b8484846116e2613f76565b604051636cdd0edf60e11b815260026004820152602481018590526001600160a01b038416604482015273__$364aad554dc80380f414546becdd2c1584$__9063d9ba1dbe9060640160006040518083038186803b15801561391a57600080fd5b505af415801561392e573d6000803e3d6000fd5b5050505061393b826140ae565b61394481614121565b604080518581526001600160a01b038581166020830152848116828401528316606082015290517f3abb2418c66fe32ba9c883030a75ce583971d9af9192b9b74e44e67c5e6c8c1f9181900360800190a150505050565b60056000526008602052600080516020614e98833981519152546001600160a01b031663084179bd83836124eb613f76565b60066000526008602052600080516020614dd8833981519152546001600160a01b0316634c70a09383836124eb613f76565b604051633c3e56c160e11b81526002600482015260009073__$364aad554dc80380f414546becdd2c1584$__9063787cad829060240160206040518083038186803b158015613a4d57600080fd5b505af4158015612efa573d6000803e3d6000fd5b600254600160f01b900460ff16600114613abd5760405162461bcd60e51b815260206004820152601760248201527f41432e4c433a20446f632069732066696e616c697a656400000000000000000060448201526064016113e7565b73__$364aad554dc80380f414546becdd2c1584$__63c51b295f6002684174746f726e65797360b81b613aee613f76565b6040516001600160e01b031960e086901b1681526004810193909352602483019190915264ffffffffff16604482015260640160006040518083038186803b158015613b3957600080fd5b505af4158015613b4d573d6000803e3d6000fd5b50505050600273__$364aad554dc80380f414546becdd2c1584$__639b4510de90916000613b79613f76565b6040516001600160e01b031960e086901b1681526004810193909352602483019190915264ffffffffff16604482015260640160006040518083038186803b158015613bc457600080fd5b505af4158015613bd8573d6000803e3d6000fd5b50505050600273__$364aad554dc80380f414546becdd2c1584$__639b48160c90916000613c04613f76565b6040516001600160e01b031960e086901b1681526004810193909352602483019190915264ffffffffff16604482015260640160006040518083038186803b158015613c4f57600080fd5b505af4158015613c63573d6000803e3d6000fd5b50506002805460ff60f01b1916600160f11b17905550506040517f35012b512309c322acf68632cd6cb702ff0e1d776fbe9394e38ffc13b434fe7590600090a1565b604051633b11adbf60e21b81526002600482015233602482015273__$364aad554dc80380f414546becdd2c1584$__9063ec46b6fc9060440160206040518083038186803b158015613cf657600080fd5b505af4158015613d0a573d6000803e3d6000fd5b505050506040513d601f19601f82011682018060405250810190613d2e9190614b74565b613d4a5760405162461bcd60e51b81526004016113e790614b91565b604080518381526001600160a01b03831660208201527f7cb004fec701c042453550d71d8c69e859c2cd1dad277445da5580b38f65114b910160405180910390a160009182526007602052604090912080546001600160a01b0319166001600160a01b03909216919091179055565b60066000526008602052600080516020614dd8833981519152546001600160a01b03166372b5e71183836124eb613f76565b60096000526008602052600080516020614ed8833981519152546001600160a01b031663c65511d886868686613e1f613f76565b6040516001600160e01b031960e088901b168152600481019590955260248501939093526001600160a01b039091166044840152606483015264ffffffffff16608482015260a4810184905260c401600060405180830381600087803b158015613e8857600080fd5b505af1158015613e9c573d6000803e3d6000fd5b505050505050505050565b60026000526008602052600080516020614e18833981519152546001600160a01b031663f894759e8261107a613f76565b60016000526008602052600080516020614e38833981519152546001600160a01b0316637a6ae86583613f09613f76565b6040516001600160e01b031960e085901b1681526001600160a01b03909216600483015264ffffffffff16602482015260448101849052606401611598565b60016000526008602052600080516020614e38833981519152546001600160a01b031663b951cf1d838361155c5b60008054604051636ae3b70d60e11b81523360048201526001600160a01b039091169063d5c76e1a90602401602060405180830381600087803b158015613fbc57600080fd5b505af1158015611277573d6000803e3d6000fd5b6000805b84518110156140a657848181518110613fef57613fef614d8a565b60200260200101516001600160a01b031684828151811061401257614012614d8a565b602002602001015184838151811061402c5761402c614d8a565b60200260200101516040516140419190614da0565b60006040518083038185875af1925050503d806000811461407e576040519150601f19603f3d011682016040523d82523d6000602084013e614083565b606091505b50508092505081614094575061291a565b8061409e81614dbc565b915050613fd4565b509392505050565b6000546001600160a01b0316156140ff5760405162461bcd60e51b815260206004820152601560248201527430b63932b0b23c9039b2ba103932b3a1b2b73a32b960591b60448201526064016113e7565b600080546001600160a01b0319166001600160a01b0392909216919091179055565b6001546001600160a01b03161561417a5760405162461bcd60e51b815260206004820152601960248201527f616c7265616479207365742067656e6572616c4b65657065720000000000000060448201526064016113e7565b600180546001600160a01b0319166001600160a01b0392909216919091179055565b8280546141a890614c4c565b90600052602060002090601f0160209004810192826141ca5760008555614210565b82601f106141e357805160ff1916838001178555614210565b82800160010185558215614210579182015b828111156142105782518255916020019190600101906141f5565b5061421c929150614220565b5090565b5b8082111561421c5760008155600101614221565b60006020828403121561424757600080fd5b5035919050565b634e487b7160e01b600052604160045260246000fd5b604051601f8201601f1916810167ffffffffffffffff8111828210171561428d5761428d61424e565b604052919050565b600067ffffffffffffffff8211156142af576142af61424e565b5060051b60200190565b6001600160a01b03811681146142ce57600080fd5b50565b600082601f8301126142e257600080fd5b813560206142f76142f283614295565b614264565b82815260059290921b8401810191818101908684111561431657600080fd5b8286015b84811015614331578035835291830191830161431a565b509695505050505050565b600067ffffffffffffffff8311156143565761435661424e565b614369601f8401601f1916602001614264565b905082815283838301111561437d57600080fd5b828260208301376000602084830101529392505050565b600082601f8301126143a557600080fd5b813560206143b56142f283614295565b82815260059290921b840181019181810190868411156143d457600080fd5b8286015b8481101561433157803567ffffffffffffffff8111156143f85760008081fd5b8701603f8101891361440a5760008081fd5b61441b89868301356040840161433c565b8452509183019183016143d8565b60008060008060008060c0878903121561444257600080fd5b8635955060208088013567ffffffffffffffff8082111561446257600080fd5b818a0191508a601f83011261447657600080fd5b81356144846142f282614295565b81815260059190911b8301840190848101908d8311156144a357600080fd5b938501935b828510156144ca5784356144bb816142b9565b825293850193908501906144a8565b9950505060408a01359250808311156144e257600080fd5b6144ee8b848c016142d1565b965060608a013592508083111561450457600080fd5b505061451289828a01614394565b9350506080870135915060a087013590509295509295509295565b60008060006060848603121561454257600080fd5b833561454d816142b9565b95602085013595506040909401359392505050565b6000806000806080858703121561457857600080fd5b8435614583816142b9565b966020860135965060408601359560600135945092505050565b600080604083850312156145b057600080fd5b82356145bb816142b9565b946020939093013593505050565b600080604083850312156145dc57600080fd5b50508035926020909101359150565b60008060006060848603121561460057600080fd5b505081359360208301359350604090920135919050565b60008060008060008060c0878903121561463057600080fd5b863561463b816142b9565b9860208801359850604088013597606081013597506080810135965060a00135945092505050565b60008060008060008060c0878903121561467c57600080fd5b505084359660208601359650604086013595606081013595506080810135945060a0013592509050565b600082601f8301126146b757600080fd5b61291a8383356020850161433c565b6000806000606084860312156146db57600080fd5b83356146e6816142b9565b925060208401359150604084013567ffffffffffffffff81111561470957600080fd5b614715868287016146a6565b9150509250925092565b60008060006060848603121561473457600080fd5b8335925060208401359150604084013567ffffffffffffffff81111561470957600080fd5b60005b8381101561477457818101518382015260200161475c565b838111156114715750506000910152565b6000815180845261479d816020860160208601614759565b601f01601f19169290920160200192915050565b60208152600061291a6020830184614785565b600080600080608085870312156147da57600080fd5b5050823594602084013594506040840135936060013592509050565b60006020828403121561480857600080fd5b813561291a816142b9565b6000806040838503121561482657600080fd5b82359150602083013567ffffffffffffffff81111561484457600080fd5b614850858286016146a6565b9150509250929050565b60008060006060848603121561486f57600080fd5b83359250602084013567ffffffffffffffff81111561488d57600080fd5b614899868287016146a6565b925050604084013590509250925092565b80151581146142ce57600080fd5b6000602082840312156148ca57600080fd5b813561291a816148aa565b600080604083850312156148e857600080fd5b8235915060208301356148fa816142b9565b809150509250929050565b60008060006060848603121561491a57600080fd5b83359250602084013567ffffffffffffffff8082111561493957600080fd5b614945878388016146a6565b9350604086013591508082111561495b57600080fd5b50614715868287016146a6565b6000806000806080858703121561497e57600080fd5b843593506020850135614990816142b9565b925060408501356149a0816142b9565b915060608501356149b0816142b9565b939692955090935050565b600080600080600060a086880312156149d357600080fd5b853594506020860135935060408601356149ec816142b9565b94979396509394606081013594506080013592915050565b600081518084526020808501945080840160005b83811015614a3457815187529582019590820190600101614a18565b509495945050505050565b6000815180845260208085019450848260051b860182860160005b85811015614a84578383038952614a72838351614785565b98850198925090840190600101614a5a565b5090979650505050505050565b600060e08201898352602060e081850152818a5180845261010086019150828c01935060005b81811015614adc5784516001600160a01b031683529383019391830191600101614ab7565b50508481036040860152614af0818b614a04565b925050508281036060840152614b068188614a3f565b9150508460808301528360a0830152614b2860c083018464ffffffffff169052565b98975050505050505050565b600060208284031215614b4657600080fd5b5051919050565b600060208284031215614b5f57600080fd5b815164ffffffffff8116811461291a57600080fd5b600060208284031215614b8657600080fd5b815161291a816148aa565b60208082526026908201527f41432e6f6e6c794469726563744b65657065723a206e6f74206469726563742060408201526535b2b2b832b960d11b606082015260800190565b60018060a01b038516815283602082015264ffffffffff83166040820152608060608201526000614c0b6080830184614785565b9695505050505050565b848152836020820152608060408201526000614c346080830185614785565b905064ffffffffff8316606083015295945050505050565b600181811c90821680614c6057607f821691505b60208210811415614c8157634e487b7160e01b600052602260045260246000fd5b50919050565b634e487b7160e01b600052601160045260246000fd5b600081614cac57614cac614c87565b506000190190565b838152606060208201526000614ccd6060830185614785565b905064ffffffffff83166040830152949350505050565b600060208284031215614cf657600080fd5b815161291a816142b9565b848152608060208201526000614d1a6080830186614785565b905083604083015264ffffffffff8316606083015295945050505050565b60018060a01b0385168152836020820152608060408201526000614c346080830185614785565b838152606060208201526000614d786060830185614785565b8281036040840152614c0b8185614785565b634e487b7160e01b600052603260045260246000fd5b60008251614db2818460208701614759565b9190910192915050565b6000600019821415614dd057614dd0614c87565b506001019056fe13acf3fc7bed94759963f076d5d3443d88732026bffc8253bdf4a6e65f21ecc5625b35f5e76f098dd7c3a05b10e2e5e78a4a01228d60c3b143426cdf36d264556add646517a5b0f6793cd5891b7937d28a5b2981a5d88ebc7cd776088fea9041ad67d757c34507f157cacfa2e3153e9f260a2244f30428821be7be64587ac55f586689db7536874b78a6eac0f58556a56a106985743f7c16a699b27bb02f88bd24cd397636bedc6cf9b490d0edd57c769c19b367fb7d5c2344ae1ddc7d21c14491238f30f286c9a1c6e901c4eda3b214c381c846e3dbe48df95c21488e8e1fdb9321edea6e3be4df59a344b401fab4f888b556fda1f954244cff9204bad624b882c9e868e45873bb5a4f47c09e14a12f6a6314e13aabd611e4374762bb4e8b36a2646970667358221220fe1af6223b7873d4273f13e74300515c50649756cd404e2bc486c92c54d3b68964736f6c63430008080033",
    "sourcePath": "/Users/kaptain/github.com/hardhat/comboox/contracts/keepers/GeneralKeeper.sol",
    "compiler": {
        "name": "solc",
        "version": "0.8.8+commit.dddeac2f"
    },
    "functionHashes": {
        "abandonRole(bytes32)": "3da9a600",
        "acceptAlongDeal(address,uint256,uint256,bytes32)": "159186c1",
        "acceptFirstRefusal(address,uint256,bytes32)": "84893821",
        "acceptSHA(bytes32)": "1f6b2609",
        "castVote(uint256,uint256,bytes32)": "7504e5a0",
        "castVoteOfGM(uint256,uint256,bytes32)": "6e93dcce",
        "circulateIA(address,bytes32,bytes32)": "8506c43f",
        "circulateSHA(address,bytes32,bytes32)": "88ca46ed",
        "closeDeal(address,uint256,string)": "ab4e66b6",
        "createBoardSeal()": "14d3cb85",
        "createCorpSeal(uint256)": "331dbb22",
        "createIA(uint256)": "946088cd",
        "createPledge(bytes32,uint256,uint256,uint256,uint256,uint256)": "33e68530",
        "createSHA(uint256)": "be29b077",
        "createSwap(bytes32,uint256,uint256)": "c5631277",
        "crystalizeSwap(uint256,uint256,uint256)": "dc730ca1",
        "decreaseCapital(uint256,uint256,uint256)": "cd78c98a",
        "effectiveSHA(address)": "7e2b9530",
        "entrustDelegate(uint256,uint256)": "6f47c5e1",
        "entrustDelegateOfMember(uint256,uint256)": "c52f6287",
        "execAction(uint256,address[],uint256[],bytes[],bytes32,uint256)": "959efc85",
        "execActionOfGM(uint256,address[],uint256[],bytes[],bytes32,uint256)": "07f2990e",
        "execAntiDilution(address,uint256,uint256,bytes32)": "569e1006",
        "execDragAlong(address,uint256,uint256,uint256,uint256,bytes32)": "67a45659",
        "execFirstRefusal(uint256,uint256,address,uint256,bytes32)": "f584accb",
        "execOption(uint256)": "6555ff7a",
        "execPledge(uint256,uint256)": "e9c733d2",
        "execSwap(uint256)": "298d645c",
        "execSwapOrder(uint256,uint256)": "dfd30021",
        "execTagAlong(address,uint256,uint256,uint256,uint256,bytes32)": "275943e9",
        "extendPledge(uint256,uint256,uint256)": "3c851592",
        "finalized()": "b3f05b97",
        "getBOA()": "acd2d057",
        "getBOD()": "9262826d",
        "getBOG()": "682ebf05",
        "getBOH()": "b613bb4c",
        "getBOO()": "b38dc811",
        "getBOP()": "20fbea4e",
        "getBOS()": "f01e100f",
        "getBookeeper()": "ed211023",
        "getGeneralCounsel()": "103f6edd",
        "getKeeper(uint256)": "c44a7130",
        "getOwner()": "893d20e8",
        "getROM()": "33fb96ee",
        "getROS()": "bd6200cc",
        "getSHA()": "a61adc28",
        "grantRole(bytes32,uint256)": "1b6ea9f9",
        "hasRole(bytes32,uint256)": "7e063c5a",
        "init(uint256,address,address,address)": "dc890da9",
        "isKeeper(address)": "6ba42aaa",
        "issueNewShare(address,uint256)": "452558b0",
        "lockContents()": "f045a769",
        "lockPledge(uint256,uint256,bytes32)": "205969bd",
        "lockSwap(uint256,bytes32)": "7e22e0ea",
        "lockSwapOrder(uint256,uint256,bytes32)": "cd016f3c",
        "nameOfCompany()": "587e5b5e",
        "nominateDirector(uint256,uint256)": "cb385133",
        "nominateOfficer(uint256,uint256)": "6e8d3873",
        "placeSwapOrder(uint256,uint256,uint256,uint256)": "5a4f8f49",
        "proposeAction(uint256,address[],uint256[],bytes[],bytes32,uint256)": "68271a82",
        "proposeActionOfGM(uint256,address[],uint256[],bytes[],bytes32,uint256)": "45a4bf78",
        "proposeDoc(address,uint256,uint256)": "6600f97a",
        "proposeDocOfGM(address,uint256,uint256)": "13f2e8f8",
        "proposeMotionOfGM(uint256)": "75183b48",
        "proposeToRemoveDirector(uint256)": "77aab013",
        "proposeToRemoveOfficer(uint256)": "a690d94d",
        "pushToCoffer(address,uint256,bytes32,uint256)": "a6f93889",
        "quitPosition(uint256)": "92c2c3d3",
        "refundDebt(uint256,uint256,uint256)": "61d65d55",
        "regBook(uint256,address)": "f1fe07af",
        "regBookeeper(uint256,address)": "ccb35b99",
        "regNumHash()": "f9ee371b",
        "releasePledge(uint256,uint256,string)": "50235307",
        "releaseSwap(uint256,string)": "903cd500",
        "releaseSwapOrder(uint256,uint256,string)": "d6c4985c",
        "removeDirectKeeper(address)": "5d7ad88f",
        "removeDirector(uint256,uint256,uint256)": "906149f1",
        "removeOfficer(uint256,uint256,uint256)": "5eb3d3a4",
        "renounceRole(bytes32)": "8bb9c5bf",
        "requestPaidInCapital(bytes32,string,uint256)": "aa0ad352",
        "requestToBuy(uint256,uint256,uint256)": "94e3833a",
        "revokeDeal(address,uint256,string)": "467fb8f2",
        "revokePledge(uint256,uint256)": "f424672b",
        "revokeRole(bytes32,uint256)": "19d61ad9",
        "revokeSwap(uint256)": "01b38c6b",
        "revokeSwapOrder(uint256,uint256)": "b73cb699",
        "setAmtBase(bool)": "da6a43d6",
        "setCompInfo(bytes32,string,string)": "d8677671",
        "setDirectKeeper(address)": "6be8496f",
        "setGeneralCounsel(uint256)": "4a14beb1",
        "setMaxQtyOfMembers(uint256)": "851aa5a0",
        "setOwner(uint256)": "8041494e",
        "setPayInAmt(bytes32,uint256)": "23e4b165",
        "setRoleAdmin(bytes32,uint256)": "5171ebd4",
        "setVoteBase(bool)": "bdc36f62",
        "signIA(address,bytes32)": "fa0be085",
        "signSHA(address,bytes32)": "2c425acc",
        "symbolOfCompany()": "a8ccff4b",
        "takeGiftShares(address,uint256)": "77a9dfa0",
        "takePosition(uint256,uint256)": "6998d28d",
        "takeSeat(uint256,uint256)": "dc09fd29",
        "terminateDeal(address,uint256)": "fd95c4c0",
        "transferPledge(uint256,uint256,uint256,uint256)": "a023707d",
        "transferSwap(uint256,uint256,uint256)": "3cb45144",
        "transferTargetShare(address,uint256)": "18c678aa",
        "updateOracle(uint256,uint256,uint256,uint256)": "76f2736f",
        "updatePaidInDeadline(uint256,uint256)": "498ec436",
        "voteCounting(uint256)": "f8fb9e1d",
        "voteCountingOfGM(uint256)": "aa22742b",
        "withdrawPayInAmt(bytes32)": "ba5052cb"
    },
    "gasEstimates": {
        "creation": {
            "codeDepositCost": "4053800",
            "executionCost": "4640",
            "totalCost": "4058440"
        },
        "external": {
            "abandonRole(bytes32)": "infinite",
            "acceptAlongDeal(address,uint256,uint256,bytes32)": "infinite",
            "acceptFirstRefusal(address,uint256,bytes32)": "infinite",
            "acceptSHA(bytes32)": "infinite",
            "castVote(uint256,uint256,bytes32)": "infinite",
            "castVoteOfGM(uint256,uint256,bytes32)": "infinite",
            "circulateIA(address,bytes32,bytes32)": "infinite",
            "circulateSHA(address,bytes32,bytes32)": "infinite",
            "closeDeal(address,uint256,string)": "infinite",
            "createBoardSeal()": "infinite",
            "createCorpSeal(uint256)": "infinite",
            "createIA(uint256)": "infinite",
            "createPledge(bytes32,uint256,uint256,uint256,uint256,uint256)": "infinite",
            "createSHA(uint256)": "infinite",
            "createSwap(bytes32,uint256,uint256)": "infinite",
            "crystalizeSwap(uint256,uint256,uint256)": "infinite",
            "decreaseCapital(uint256,uint256,uint256)": "infinite",
            "effectiveSHA(address)": "infinite",
            "entrustDelegate(uint256,uint256)": "infinite",
            "entrustDelegateOfMember(uint256,uint256)": "infinite",
            "execAction(uint256,address[],uint256[],bytes[],bytes32,uint256)": "infinite",
            "execActionOfGM(uint256,address[],uint256[],bytes[],bytes32,uint256)": "infinite",
            "execAntiDilution(address,uint256,uint256,bytes32)": "infinite",
            "execDragAlong(address,uint256,uint256,uint256,uint256,bytes32)": "infinite",
            "execFirstRefusal(uint256,uint256,address,uint256,bytes32)": "infinite",
            "execOption(uint256)": "infinite",
            "execPledge(uint256,uint256)": "infinite",
            "execSwap(uint256)": "infinite",
            "execSwapOrder(uint256,uint256)": "infinite",
            "execTagAlong(address,uint256,uint256,uint256,uint256,bytes32)": "infinite",
            "extendPledge(uint256,uint256,uint256)": "infinite",
            "finalized()": "2416",
            "getBOA()": "2461",
            "getBOD()": "2484",
            "getBOG()": "2483",
            "getBOH()": "2460",
            "getBOO()": "2483",
            "getBOP()": "2473",
            "getBOS()": "2485",
            "getBookeeper()": "infinite",
            "getGeneralCounsel()": "infinite",
            "getKeeper(uint256)": "2567",
            "getOwner()": "infinite",
            "getROM()": "2484",
            "getROS()": "2440",
            "getSHA()": "infinite",
            "grantRole(bytes32,uint256)": "infinite",
            "hasRole(bytes32,uint256)": "infinite",
            "init(uint256,address,address,address)": "infinite",
            "isKeeper(address)": "infinite",
            "issueNewShare(address,uint256)": "infinite",
            "lockContents()": "infinite",
            "lockPledge(uint256,uint256,bytes32)": "infinite",
            "lockSwap(uint256,bytes32)": "infinite",
            "lockSwapOrder(uint256,uint256,bytes32)": "infinite",
            "nameOfCompany()": "infinite",
            "nominateDirector(uint256,uint256)": "infinite",
            "nominateOfficer(uint256,uint256)": "infinite",
            "placeSwapOrder(uint256,uint256,uint256,uint256)": "infinite",
            "proposeAction(uint256,address[],uint256[],bytes[],bytes32,uint256)": "infinite",
            "proposeActionOfGM(uint256,address[],uint256[],bytes[],bytes32,uint256)": "infinite",
            "proposeDoc(address,uint256,uint256)": "infinite",
            "proposeDocOfGM(address,uint256,uint256)": "infinite",
            "proposeMotionOfGM(uint256)": "infinite",
            "proposeToRemoveDirector(uint256)": "infinite",
            "proposeToRemoveOfficer(uint256)": "infinite",
            "pushToCoffer(address,uint256,bytes32,uint256)": "infinite",
            "quitPosition(uint256)": "infinite",
            "refundDebt(uint256,uint256,uint256)": "infinite",
            "regBook(uint256,address)": "infinite",
            "regBookeeper(uint256,address)": "infinite",
            "regNumHash()": "2405",
            "releasePledge(uint256,uint256,string)": "infinite",
            "releaseSwap(uint256,string)": "infinite",
            "releaseSwapOrder(uint256,uint256,string)": "infinite",
            "removeDirectKeeper(address)": "infinite",
            "removeDirector(uint256,uint256,uint256)": "infinite",
            "removeOfficer(uint256,uint256,uint256)": "infinite",
            "renounceRole(bytes32)": "infinite",
            "requestPaidInCapital(bytes32,string,uint256)": "infinite",
            "requestToBuy(uint256,uint256,uint256)": "infinite",
            "revokeDeal(address,uint256,string)": "infinite",
            "revokePledge(uint256,uint256)": "infinite",
            "revokeRole(bytes32,uint256)": "infinite",
            "revokeSwap(uint256)": "infinite",
            "revokeSwapOrder(uint256,uint256)": "infinite",
            "setAmtBase(bool)": "infinite",
            "setCompInfo(bytes32,string,string)": "infinite",
            "setDirectKeeper(address)": "infinite",
            "setGeneralCounsel(uint256)": "infinite",
            "setMaxQtyOfMembers(uint256)": "infinite",
            "setOwner(uint256)": "infinite",
            "setPayInAmt(bytes32,uint256)": "infinite",
            "setRoleAdmin(bytes32,uint256)": "infinite",
            "setVoteBase(bool)": "infinite",
            "signIA(address,bytes32)": "infinite",
            "signSHA(address,bytes32)": "infinite",
            "symbolOfCompany()": "infinite",
            "takeGiftShares(address,uint256)": "infinite",
            "takePosition(uint256,uint256)": "infinite",
            "takeSeat(uint256,uint256)": "infinite",
            "terminateDeal(address,uint256)": "infinite",
            "transferPledge(uint256,uint256,uint256,uint256)": "infinite",
            "transferSwap(uint256,uint256,uint256)": "infinite",
            "transferTargetShare(address,uint256)": "infinite",
            "updateOracle(uint256,uint256,uint256,uint256)": "infinite",
            "updatePaidInDeadline(uint256,uint256)": "infinite",
            "voteCounting(uint256)": "infinite",
            "voteCountingOfGM(uint256)": "infinite",
            "withdrawPayInAmt(bytes32)": "infinite"
        },
        "internal": {
            "_execute(address[] memory,uint256[] memory,bytes memory[] memory)": "infinite"
        }
    }
}