{
    "contractName": "GeneralKeeper",
    "abi": [
        {
            "anonymous": false,
            "inputs": [
                {
                    "indexed": false,
                    "internalType": "uint40",
                    "name": "owner",
                    "type": "uint40"
                },
                {
                    "indexed": false,
                    "internalType": "address",
                    "name": "directKeeper",
                    "type": "address"
                },
                {
                    "indexed": false,
                    "internalType": "address",
                    "name": "regCenter",
                    "type": "address"
                },
                {
                    "indexed": false,
                    "internalType": "address",
                    "name": "generalKeeper",
                    "type": "address"
                }
            ],
            "name": "Init",
            "type": "event"
        },
        {
            "anonymous": false,
            "inputs": [],
            "name": "LockContents",
            "type": "event"
        },
        {
            "anonymous": false,
            "inputs": [
                {
                    "indexed": false,
                    "internalType": "uint16",
                    "name": "title",
                    "type": "uint16"
                },
                {
                    "indexed": false,
                    "internalType": "address",
                    "name": "book",
                    "type": "address"
                }
            ],
            "name": "SetBook",
            "type": "event"
        },
        {
            "anonymous": false,
            "inputs": [
                {
                    "indexed": false,
                    "internalType": "uint16",
                    "name": "title",
                    "type": "uint16"
                },
                {
                    "indexed": false,
                    "internalType": "address",
                    "name": "keeper",
                    "type": "address"
                }
            ],
            "name": "SetBookeeper",
            "type": "event"
        },
        {
            "anonymous": false,
            "inputs": [
                {
                    "indexed": false,
                    "internalType": "address",
                    "name": "keeper",
                    "type": "address"
                }
            ],
            "name": "SetDirectKeeper",
            "type": "event"
        },
        {
            "anonymous": false,
            "inputs": [
                {
                    "indexed": false,
                    "internalType": "uint256",
                    "name": "acct",
                    "type": "uint256"
                }
            ],
            "name": "SetGeneralCounsel",
            "type": "event"
        },
        {
            "anonymous": false,
            "inputs": [
                {
                    "indexed": false,
                    "internalType": "address",
                    "name": "gk",
                    "type": "address"
                }
            ],
            "name": "SetGeneralKeeper",
            "type": "event"
        },
        {
            "anonymous": false,
            "inputs": [
                {
                    "indexed": false,
                    "internalType": "uint256",
                    "name": "acct",
                    "type": "uint256"
                }
            ],
            "name": "SetOwner",
            "type": "event"
        },
        {
            "anonymous": false,
            "inputs": [
                {
                    "indexed": false,
                    "internalType": "address",
                    "name": "rc",
                    "type": "address"
                }
            ],
            "name": "SetRegCenter",
            "type": "event"
        },
        {
            "anonymous": false,
            "inputs": [
                {
                    "indexed": false,
                    "internalType": "bytes32",
                    "name": "numHash",
                    "type": "bytes32"
                }
            ],
            "name": "SetRegNumberHash",
            "type": "event"
        },
        {
            "inputs": [
                {
                    "internalType": "bytes32",
                    "name": "role",
                    "type": "bytes32"
                }
            ],
            "name": "abandonRole",
            "outputs": [],
            "stateMutability": "nonpayable",
            "type": "function"
        },
        {
            "inputs": [
                {
                    "internalType": "address",
                    "name": "ia",
                    "type": "address"
                },
                {
                    "internalType": "bytes32",
                    "name": "sn",
                    "type": "bytes32"
                },
                {
                    "internalType": "bytes32",
                    "name": "sigHash",
                    "type": "bytes32"
                }
            ],
            "name": "acceptDragAlong",
            "outputs": [],
            "stateMutability": "nonpayable",
            "type": "function"
        },
        {
            "inputs": [
                {
                    "internalType": "address",
                    "name": "ia",
                    "type": "address"
                },
                {
                    "internalType": "bytes32",
                    "name": "snOfDeal",
                    "type": "bytes32"
                },
                {
                    "internalType": "bytes32",
                    "name": "sigHash",
                    "type": "bytes32"
                }
            ],
            "name": "acceptFirstRefusal",
            "outputs": [],
            "stateMutability": "nonpayable",
            "type": "function"
        },
        {
            "inputs": [
                {
                    "internalType": "bytes32",
                    "name": "sigHash",
                    "type": "bytes32"
                }
            ],
            "name": "acceptSHA",
            "outputs": [],
            "stateMutability": "nonpayable",
            "type": "function"
        },
        {
            "inputs": [
                {
                    "internalType": "address",
                    "name": "ia",
                    "type": "address"
                },
                {
                    "internalType": "bytes32",
                    "name": "sn",
                    "type": "bytes32"
                },
                {
                    "internalType": "bytes32",
                    "name": "sigHash",
                    "type": "bytes32"
                }
            ],
            "name": "acceptTagAlong",
            "outputs": [],
            "stateMutability": "nonpayable",
            "type": "function"
        },
        {
            "inputs": [
                {
                    "internalType": "bytes32",
                    "name": "sn",
                    "type": "bytes32"
                },
                {
                    "internalType": "bytes32",
                    "name": "shareNumber",
                    "type": "bytes32"
                },
                {
                    "internalType": "uint64",
                    "name": "paidPar",
                    "type": "uint64"
                }
            ],
            "name": "addFuture",
            "outputs": [],
            "stateMutability": "nonpayable",
            "type": "function"
        },
        {
            "inputs": [
                {
                    "internalType": "bytes32",
                    "name": "bsRule",
                    "type": "bytes32"
                },
                {
                    "internalType": "uint8",
                    "name": "seqOfTitle",
                    "type": "uint8"
                },
                {
                    "internalType": "uint40",
                    "name": "candidate",
                    "type": "uint40"
                }
            ],
            "name": "appointOfficer",
            "outputs": [],
            "stateMutability": "nonpayable",
            "type": "function"
        },
        {
            "inputs": [
                {
                    "internalType": "uint256",
                    "name": "actionId",
                    "type": "uint256"
                }
            ],
            "name": "boardVoteCounting",
            "outputs": [],
            "stateMutability": "nonpayable",
            "type": "function"
        },
        {
            "inputs": [
                {
                    "internalType": "uint256",
                    "name": "actionId",
                    "type": "uint256"
                },
                {
                    "internalType": "uint8",
                    "name": "attitude",
                    "type": "uint8"
                },
                {
                    "internalType": "bytes32",
                    "name": "sigHash",
                    "type": "bytes32"
                }
            ],
            "name": "castBoardVote",
            "outputs": [],
            "stateMutability": "nonpayable",
            "type": "function"
        },
        {
            "inputs": [
                {
                    "internalType": "uint256",
                    "name": "motionId",
                    "type": "uint256"
                },
                {
                    "internalType": "uint8",
                    "name": "attitude",
                    "type": "uint8"
                },
                {
                    "internalType": "bytes32",
                    "name": "sigHash",
                    "type": "bytes32"
                }
            ],
            "name": "castGMVote",
            "outputs": [],
            "stateMutability": "nonpayable",
            "type": "function"
        },
        {
            "inputs": [
                {
                    "internalType": "address",
                    "name": "body",
                    "type": "address"
                },
                {
                    "internalType": "bytes32",
                    "name": "docUrl",
                    "type": "bytes32"
                },
                {
                    "internalType": "bytes32",
                    "name": "docHash",
                    "type": "bytes32"
                }
            ],
            "name": "circulateIA",
            "outputs": [],
            "stateMutability": "nonpayable",
            "type": "function"
        },
        {
            "inputs": [
                {
                    "internalType": "address",
                    "name": "body",
                    "type": "address"
                },
                {
                    "internalType": "bytes32",
                    "name": "rule",
                    "type": "bytes32"
                },
                {
                    "internalType": "bytes32",
                    "name": "docUrl",
                    "type": "bytes32"
                },
                {
                    "internalType": "bytes32",
                    "name": "docHash",
                    "type": "bytes32"
                }
            ],
            "name": "circulateSHA",
            "outputs": [],
            "stateMutability": "nonpayable",
            "type": "function"
        },
        {
            "inputs": [
                {
                    "internalType": "address",
                    "name": "ia",
                    "type": "address"
                },
                {
                    "internalType": "bytes32",
                    "name": "sn",
                    "type": "bytes32"
                },
                {
                    "internalType": "string",
                    "name": "hashKey",
                    "type": "string"
                }
            ],
            "name": "closeDeal",
            "outputs": [],
            "stateMutability": "nonpayable",
            "type": "function"
        },
        {
            "inputs": [
                {
                    "internalType": "bytes32",
                    "name": "sn",
                    "type": "bytes32"
                },
                {
                    "internalType": "string",
                    "name": "hashKey",
                    "type": "string"
                }
            ],
            "name": "closeOption",
            "outputs": [],
            "stateMutability": "nonpayable",
            "type": "function"
        },
        {
            "inputs": [],
            "name": "createBoardSeal",
            "outputs": [],
            "stateMutability": "nonpayable",
            "type": "function"
        },
        {
            "inputs": [],
            "name": "createCorpSeal",
            "outputs": [],
            "stateMutability": "nonpayable",
            "type": "function"
        },
        {
            "inputs": [
                {
                    "internalType": "uint8",
                    "name": "typeOfIA",
                    "type": "uint8"
                }
            ],
            "name": "createIA",
            "outputs": [],
            "stateMutability": "nonpayable",
            "type": "function"
        },
        {
            "inputs": [
                {
                    "internalType": "bytes32",
                    "name": "sn",
                    "type": "bytes32"
                },
                {
                    "internalType": "uint40",
                    "name": "rightholder",
                    "type": "uint40"
                },
                {
                    "internalType": "uint64",
                    "name": "paid",
                    "type": "uint64"
                },
                {
                    "internalType": "uint64",
                    "name": "par",
                    "type": "uint64"
                }
            ],
            "name": "createOption",
            "outputs": [],
            "stateMutability": "nonpayable",
            "type": "function"
        },
        {
            "inputs": [
                {
                    "internalType": "bytes32",
                    "name": "sn",
                    "type": "bytes32"
                },
                {
                    "internalType": "bytes32",
                    "name": "shareNumber",
                    "type": "bytes32"
                },
                {
                    "internalType": "uint64",
                    "name": "pledgedPar",
                    "type": "uint64"
                },
                {
                    "internalType": "uint40",
                    "name": "creditor",
                    "type": "uint40"
                },
                {
                    "internalType": "uint16",
                    "name": "monOfGuarantee",
                    "type": "uint16"
                },
                {
                    "internalType": "uint64",
                    "name": "guaranteedAmt",
                    "type": "uint64"
                }
            ],
            "name": "createPledge",
            "outputs": [],
            "stateMutability": "nonpayable",
            "type": "function"
        },
        {
            "inputs": [
                {
                    "internalType": "uint8",
                    "name": "docType",
                    "type": "uint8"
                }
            ],
            "name": "createSHA",
            "outputs": [],
            "stateMutability": "nonpayable",
            "type": "function"
        },
        {
            "inputs": [
                {
                    "internalType": "uint32",
                    "name": "ssn",
                    "type": "uint32"
                },
                {
                    "internalType": "uint64",
                    "name": "parValue",
                    "type": "uint64"
                },
                {
                    "internalType": "uint64",
                    "name": "paidPar",
                    "type": "uint64"
                }
            ],
            "name": "decreaseCapital",
            "outputs": [],
            "stateMutability": "nonpayable",
            "type": "function"
        },
        {
            "inputs": [
                {
                    "internalType": "bytes32",
                    "name": "sn",
                    "type": "bytes32"
                }
            ],
            "name": "delPledge",
            "outputs": [],
            "stateMutability": "nonpayable",
            "type": "function"
        },
        {
            "inputs": [
                {
                    "internalType": "address",
                    "name": "body",
                    "type": "address"
                }
            ],
            "name": "effectiveSHA",
            "outputs": [],
            "stateMutability": "nonpayable",
            "type": "function"
        },
        {
            "inputs": [
                {
                    "internalType": "uint40",
                    "name": "delegate",
                    "type": "uint40"
                },
                {
                    "internalType": "uint256",
                    "name": "actionId",
                    "type": "uint256"
                }
            ],
            "name": "entrustDirectorDelegate",
            "outputs": [],
            "stateMutability": "nonpayable",
            "type": "function"
        },
        {
            "inputs": [
                {
                    "internalType": "uint40",
                    "name": "delegate",
                    "type": "uint40"
                },
                {
                    "internalType": "uint256",
                    "name": "motionId",
                    "type": "uint256"
                }
            ],
            "name": "entrustMemberDelegate",
            "outputs": [],
            "stateMutability": "nonpayable",
            "type": "function"
        },
        {
            "inputs": [
                {
                    "internalType": "uint8",
                    "name": "actionType",
                    "type": "uint8"
                },
                {
                    "internalType": "address[]",
                    "name": "targets",
                    "type": "address[]"
                },
                {
                    "internalType": "uint256[]",
                    "name": "values",
                    "type": "uint256[]"
                },
                {
                    "internalType": "bytes[]",
                    "name": "params",
                    "type": "bytes[]"
                },
                {
                    "internalType": "bytes32",
                    "name": "desHash",
                    "type": "bytes32"
                }
            ],
            "name": "execAction",
            "outputs": [
                {
                    "internalType": "uint256",
                    "name": "",
                    "type": "uint256"
                }
            ],
            "stateMutability": "nonpayable",
            "type": "function"
        },
        {
            "inputs": [
                {
                    "internalType": "address",
                    "name": "ia",
                    "type": "address"
                },
                {
                    "internalType": "bytes32",
                    "name": "sn",
                    "type": "bytes32"
                },
                {
                    "internalType": "bytes32",
                    "name": "shareNumber",
                    "type": "bytes32"
                },
                {
                    "internalType": "bytes32",
                    "name": "sigHash",
                    "type": "bytes32"
                }
            ],
            "name": "execAntiDilution",
            "outputs": [],
            "stateMutability": "nonpayable",
            "type": "function"
        },
        {
            "inputs": [
                {
                    "internalType": "uint8",
                    "name": "actionType",
                    "type": "uint8"
                },
                {
                    "internalType": "address[]",
                    "name": "targets",
                    "type": "address[]"
                },
                {
                    "internalType": "uint256[]",
                    "name": "values",
                    "type": "uint256[]"
                },
                {
                    "internalType": "bytes[]",
                    "name": "params",
                    "type": "bytes[]"
                },
                {
                    "internalType": "bytes32",
                    "name": "desHash",
                    "type": "bytes32"
                }
            ],
            "name": "execBoardAction",
            "outputs": [],
            "stateMutability": "nonpayable",
            "type": "function"
        },
        {
            "inputs": [
                {
                    "internalType": "address",
                    "name": "ia",
                    "type": "address"
                },
                {
                    "internalType": "bytes32",
                    "name": "sn",
                    "type": "bytes32"
                },
                {
                    "internalType": "bytes32",
                    "name": "shareNumber",
                    "type": "bytes32"
                },
                {
                    "internalType": "uint64",
                    "name": "paid",
                    "type": "uint64"
                },
                {
                    "internalType": "uint64",
                    "name": "par",
                    "type": "uint64"
                },
                {
                    "internalType": "bytes32",
                    "name": "sigHash",
                    "type": "bytes32"
                }
            ],
            "name": "execDragAlong",
            "outputs": [],
            "stateMutability": "nonpayable",
            "type": "function"
        },
        {
            "inputs": [
                {
                    "internalType": "uint16",
                    "name": "seqOfRule",
                    "type": "uint16"
                },
                {
                    "internalType": "uint256",
                    "name": "seqOfRightholder",
                    "type": "uint256"
                },
                {
                    "internalType": "address",
                    "name": "ia",
                    "type": "address"
                },
                {
                    "internalType": "bytes32",
                    "name": "sn",
                    "type": "bytes32"
                },
                {
                    "internalType": "bytes32",
                    "name": "sigHash",
                    "type": "bytes32"
                }
            ],
            "name": "execFirstRefusal",
            "outputs": [],
            "stateMutability": "nonpayable",
            "type": "function"
        },
        {
            "inputs": [
                {
                    "internalType": "bytes32",
                    "name": "sn",
                    "type": "bytes32"
                }
            ],
            "name": "execOption",
            "outputs": [],
            "stateMutability": "nonpayable",
            "type": "function"
        },
        {
            "inputs": [
                {
                    "internalType": "address",
                    "name": "ia",
                    "type": "address"
                },
                {
                    "internalType": "bytes32",
                    "name": "sn",
                    "type": "bytes32"
                },
                {
                    "internalType": "bytes32",
                    "name": "shareNumber",
                    "type": "bytes32"
                },
                {
                    "internalType": "uint64",
                    "name": "paid",
                    "type": "uint64"
                },
                {
                    "internalType": "uint64",
                    "name": "par",
                    "type": "uint64"
                },
                {
                    "internalType": "bytes32",
                    "name": "sigHash",
                    "type": "bytes32"
                }
            ],
            "name": "execTagAlong",
            "outputs": [],
            "stateMutability": "nonpayable",
            "type": "function"
        },
        {
            "inputs": [],
            "name": "finalized",
            "outputs": [
                {
                    "internalType": "bool",
                    "name": "",
                    "type": "bool"
                }
            ],
            "stateMutability": "view",
            "type": "function"
        },
        {
            "inputs": [
                {
                    "internalType": "uint16",
                    "name": "title",
                    "type": "uint16"
                }
            ],
            "name": "getBook",
            "outputs": [
                {
                    "internalType": "address",
                    "name": "",
                    "type": "address"
                }
            ],
            "stateMutability": "view",
            "type": "function"
        },
        {
            "inputs": [],
            "name": "getBookeeper",
            "outputs": [
                {
                    "internalType": "address",
                    "name": "",
                    "type": "address"
                }
            ],
            "stateMutability": "view",
            "type": "function"
        },
        {
            "inputs": [],
            "name": "getGeneralCounsel",
            "outputs": [
                {
                    "internalType": "uint40",
                    "name": "",
                    "type": "uint40"
                }
            ],
            "stateMutability": "view",
            "type": "function"
        },
        {
            "inputs": [],
            "name": "getOwner",
            "outputs": [
                {
                    "internalType": "uint40",
                    "name": "",
                    "type": "uint40"
                }
            ],
            "stateMutability": "view",
            "type": "function"
        },
        {
            "inputs": [
                {
                    "internalType": "bytes32",
                    "name": "role",
                    "type": "bytes32"
                },
                {
                    "internalType": "uint40",
                    "name": "acct",
                    "type": "uint40"
                }
            ],
            "name": "grantRole",
            "outputs": [],
            "stateMutability": "nonpayable",
            "type": "function"
        },
        {
            "inputs": [
                {
                    "internalType": "bytes32",
                    "name": "role",
                    "type": "bytes32"
                },
                {
                    "internalType": "uint40",
                    "name": "acct",
                    "type": "uint40"
                }
            ],
            "name": "hasRole",
            "outputs": [
                {
                    "internalType": "bool",
                    "name": "",
                    "type": "bool"
                }
            ],
            "stateMutability": "view",
            "type": "function"
        },
        {
            "inputs": [
                {
                    "internalType": "uint40",
                    "name": "owner",
                    "type": "uint40"
                },
                {
                    "internalType": "address",
                    "name": "directKeeper",
                    "type": "address"
                },
                {
                    "internalType": "address",
                    "name": "regCenter",
                    "type": "address"
                },
                {
                    "internalType": "address",
                    "name": "generalKeeper",
                    "type": "address"
                }
            ],
            "name": "init",
            "outputs": [],
            "stateMutability": "nonpayable",
            "type": "function"
        },
        {
            "inputs": [
                {
                    "internalType": "address",
                    "name": "caller",
                    "type": "address"
                }
            ],
            "name": "isKeeper",
            "outputs": [
                {
                    "internalType": "bool",
                    "name": "",
                    "type": "bool"
                }
            ],
            "stateMutability": "view",
            "type": "function"
        },
        {
            "inputs": [
                {
                    "internalType": "address",
                    "name": "ia",
                    "type": "address"
                },
                {
                    "internalType": "bytes32",
                    "name": "sn",
                    "type": "bytes32"
                }
            ],
            "name": "issueNewShare",
            "outputs": [],
            "stateMutability": "nonpayable",
            "type": "function"
        },
        {
            "inputs": [
                {
                    "internalType": "bytes32",
                    "name": "sn",
                    "type": "bytes32"
                }
            ],
            "name": "joinOptionAsObligor",
            "outputs": [],
            "stateMutability": "nonpayable",
            "type": "function"
        },
        {
            "inputs": [],
            "name": "lockContents",
            "outputs": [],
            "stateMutability": "nonpayable",
            "type": "function"
        },
        {
            "inputs": [
                {
                    "internalType": "bytes32",
                    "name": "sn",
                    "type": "bytes32"
                },
                {
                    "internalType": "bytes32",
                    "name": "hashLock",
                    "type": "bytes32"
                }
            ],
            "name": "lockOption",
            "outputs": [],
            "stateMutability": "nonpayable",
            "type": "function"
        },
        {
            "inputs": [
                {
                    "internalType": "bytes32",
                    "name": "bsRule",
                    "type": "bytes32"
                },
                {
                    "internalType": "uint8",
                    "name": "seqOfTitle",
                    "type": "uint8"
                },
                {
                    "internalType": "uint40",
                    "name": "candidate",
                    "type": "uint40"
                }
            ],
            "name": "nominateOfficer",
            "outputs": [],
            "stateMutability": "nonpayable",
            "type": "function"
        },
        {
            "inputs": [
                {
                    "internalType": "uint8",
                    "name": "actionType",
                    "type": "uint8"
                },
                {
                    "internalType": "address[]",
                    "name": "targets",
                    "type": "address[]"
                },
                {
                    "internalType": "uint256[]",
                    "name": "values",
                    "type": "uint256[]"
                },
                {
                    "internalType": "bytes[]",
                    "name": "params",
                    "type": "bytes[]"
                },
                {
                    "internalType": "bytes32",
                    "name": "desHash",
                    "type": "bytes32"
                },
                {
                    "internalType": "uint40",
                    "name": "executor",
                    "type": "uint40"
                }
            ],
            "name": "proposeBoardAction",
            "outputs": [],
            "stateMutability": "nonpayable",
            "type": "function"
        },
        {
            "inputs": [
                {
                    "internalType": "uint8",
                    "name": "actionType",
                    "type": "uint8"
                },
                {
                    "internalType": "address[]",
                    "name": "targets",
                    "type": "address[]"
                },
                {
                    "internalType": "uint256[]",
                    "name": "values",
                    "type": "uint256[]"
                },
                {
                    "internalType": "bytes[]",
                    "name": "params",
                    "type": "bytes[]"
                },
                {
                    "internalType": "bytes32",
                    "name": "desHash",
                    "type": "bytes32"
                },
                {
                    "internalType": "uint40",
                    "name": "executor",
                    "type": "uint40"
                }
            ],
            "name": "proposeGMAction",
            "outputs": [],
            "stateMutability": "nonpayable",
            "type": "function"
        },
        {
            "inputs": [
                {
                    "internalType": "address",
                    "name": "ia",
                    "type": "address"
                },
                {
                    "internalType": "uint8",
                    "name": "typeOfDoc",
                    "type": "uint8"
                }
            ],
            "name": "proposeIA",
            "outputs": [],
            "stateMutability": "nonpayable",
            "type": "function"
        },
        {
            "inputs": [
                {
                    "internalType": "address",
                    "name": "ia",
                    "type": "address"
                },
                {
                    "internalType": "bytes32",
                    "name": "sn",
                    "type": "bytes32"
                },
                {
                    "internalType": "bytes32",
                    "name": "hashLock",
                    "type": "bytes32"
                },
                {
                    "internalType": "uint48",
                    "name": "closingDate",
                    "type": "uint48"
                }
            ],
            "name": "pushToCoffer",
            "outputs": [],
            "stateMutability": "nonpayable",
            "type": "function"
        },
        {
            "inputs": [],
            "name": "quitPosition",
            "outputs": [],
            "stateMutability": "nonpayable",
            "type": "function"
        },
        {
            "inputs": [],
            "name": "regNumHash",
            "outputs": [
                {
                    "internalType": "bytes32",
                    "name": "",
                    "type": "bytes32"
                }
            ],
            "stateMutability": "view",
            "type": "function"
        },
        {
            "inputs": [
                {
                    "internalType": "bytes32",
                    "name": "sn",
                    "type": "bytes32"
                }
            ],
            "name": "releasePledges",
            "outputs": [],
            "stateMutability": "nonpayable",
            "type": "function"
        },
        {
            "inputs": [
                {
                    "internalType": "uint40",
                    "name": "director",
                    "type": "uint40"
                }
            ],
            "name": "removeDirector",
            "outputs": [],
            "stateMutability": "nonpayable",
            "type": "function"
        },
        {
            "inputs": [
                {
                    "internalType": "bytes32",
                    "name": "sn",
                    "type": "bytes32"
                },
                {
                    "internalType": "bytes32",
                    "name": "ft",
                    "type": "bytes32"
                }
            ],
            "name": "removeFuture",
            "outputs": [],
            "stateMutability": "nonpayable",
            "type": "function"
        },
        {
            "inputs": [
                {
                    "internalType": "address",
                    "name": "body",
                    "type": "address"
                }
            ],
            "name": "removeIA",
            "outputs": [],
            "stateMutability": "nonpayable",
            "type": "function"
        },
        {
            "inputs": [
                {
                    "internalType": "bytes32",
                    "name": "sn",
                    "type": "bytes32"
                },
                {
                    "internalType": "uint40",
                    "name": "obligor",
                    "type": "uint40"
                }
            ],
            "name": "removeObligorFromOption",
            "outputs": [],
            "stateMutability": "nonpayable",
            "type": "function"
        },
        {
            "inputs": [
                {
                    "internalType": "address",
                    "name": "body",
                    "type": "address"
                }
            ],
            "name": "removeSHA",
            "outputs": [],
            "stateMutability": "nonpayable",
            "type": "function"
        },
        {
            "inputs": [
                {
                    "internalType": "bytes32",
                    "name": "role",
                    "type": "bytes32"
                }
            ],
            "name": "renounceRole",
            "outputs": [],
            "stateMutability": "nonpayable",
            "type": "function"
        },
        {
            "inputs": [
                {
                    "internalType": "bytes32",
                    "name": "sn",
                    "type": "bytes32"
                },
                {
                    "internalType": "string",
                    "name": "hashKey",
                    "type": "string"
                }
            ],
            "name": "requestPaidInCapital",
            "outputs": [],
            "stateMutability": "nonpayable",
            "type": "function"
        },
        {
            "inputs": [
                {
                    "internalType": "bytes32",
                    "name": "sn",
                    "type": "bytes32"
                },
                {
                    "internalType": "bytes32",
                    "name": "shareNumber",
                    "type": "bytes32"
                },
                {
                    "internalType": "uint64",
                    "name": "paidPar",
                    "type": "uint64"
                }
            ],
            "name": "requestPledge",
            "outputs": [],
            "stateMutability": "nonpayable",
            "type": "function"
        },
        {
            "inputs": [
                {
                    "internalType": "uint256",
                    "name": "motionId",
                    "type": "uint256"
                },
                {
                    "internalType": "bytes32",
                    "name": "snOfDeal",
                    "type": "bytes32"
                },
                {
                    "internalType": "uint40",
                    "name": "againstVoter",
                    "type": "uint40"
                }
            ],
            "name": "requestToBuy",
            "outputs": [],
            "stateMutability": "nonpayable",
            "type": "function"
        },
        {
            "inputs": [
                {
                    "internalType": "address",
                    "name": "ia",
                    "type": "address"
                },
                {
                    "internalType": "bytes32",
                    "name": "sn",
                    "type": "bytes32"
                },
                {
                    "internalType": "string",
                    "name": "hashKey",
                    "type": "string"
                }
            ],
            "name": "revokeDeal",
            "outputs": [],
            "stateMutability": "nonpayable",
            "type": "function"
        },
        {
            "inputs": [
                {
                    "internalType": "bytes32",
                    "name": "sn",
                    "type": "bytes32"
                }
            ],
            "name": "revokeOption",
            "outputs": [],
            "stateMutability": "nonpayable",
            "type": "function"
        },
        {
            "inputs": [
                {
                    "internalType": "bytes32",
                    "name": "role",
                    "type": "bytes32"
                },
                {
                    "internalType": "uint40",
                    "name": "acct",
                    "type": "uint40"
                }
            ],
            "name": "revokeRole",
            "outputs": [],
            "stateMutability": "nonpayable",
            "type": "function"
        },
        {
            "inputs": [
                {
                    "internalType": "bool",
                    "name": "onPar",
                    "type": "bool"
                }
            ],
            "name": "setAmtBase",
            "outputs": [],
            "stateMutability": "nonpayable",
            "type": "function"
        },
        {
            "inputs": [
                {
                    "internalType": "uint16",
                    "name": "title",
                    "type": "uint16"
                },
                {
                    "internalType": "address",
                    "name": "book",
                    "type": "address"
                }
            ],
            "name": "setBook",
            "outputs": [],
            "stateMutability": "nonpayable",
            "type": "function"
        },
        {
            "inputs": [
                {
                    "internalType": "uint16",
                    "name": "title",
                    "type": "uint16"
                },
                {
                    "internalType": "address",
                    "name": "keeper",
                    "type": "address"
                }
            ],
            "name": "setBookeeper",
            "outputs": [],
            "stateMutability": "nonpayable",
            "type": "function"
        },
        {
            "inputs": [
                {
                    "internalType": "address",
                    "name": "keeper",
                    "type": "address"
                }
            ],
            "name": "setDirectKeeper",
            "outputs": [],
            "stateMutability": "nonpayable",
            "type": "function"
        },
        {
            "inputs": [
                {
                    "internalType": "uint40",
                    "name": "acct",
                    "type": "uint40"
                }
            ],
            "name": "setGeneralCounsel",
            "outputs": [],
            "stateMutability": "nonpayable",
            "type": "function"
        },
        {
            "inputs": [
                {
                    "internalType": "uint8",
                    "name": "max",
                    "type": "uint8"
                }
            ],
            "name": "setMaxQtyOfMembers",
            "outputs": [],
            "stateMutability": "nonpayable",
            "type": "function"
        },
        {
            "inputs": [
                {
                    "internalType": "uint40",
                    "name": "acct",
                    "type": "uint40"
                }
            ],
            "name": "setOwner",
            "outputs": [],
            "stateMutability": "nonpayable",
            "type": "function"
        },
        {
            "inputs": [
                {
                    "internalType": "bytes32",
                    "name": "sn",
                    "type": "bytes32"
                },
                {
                    "internalType": "uint64",
                    "name": "amount",
                    "type": "uint64"
                }
            ],
            "name": "setPayInAmount",
            "outputs": [],
            "stateMutability": "nonpayable",
            "type": "function"
        },
        {
            "inputs": [
                {
                    "internalType": "bytes32",
                    "name": "_regNumHash",
                    "type": "bytes32"
                }
            ],
            "name": "setRegNumHash",
            "outputs": [],
            "stateMutability": "nonpayable",
            "type": "function"
        },
        {
            "inputs": [
                {
                    "internalType": "bytes32",
                    "name": "role",
                    "type": "bytes32"
                },
                {
                    "internalType": "uint40",
                    "name": "acct",
                    "type": "uint40"
                }
            ],
            "name": "setRoleAdmin",
            "outputs": [],
            "stateMutability": "nonpayable",
            "type": "function"
        },
        {
            "inputs": [
                {
                    "internalType": "address",
                    "name": "temp",
                    "type": "address"
                },
                {
                    "internalType": "uint8",
                    "name": "typeOfDoc",
                    "type": "uint8"
                }
            ],
            "name": "setTempOfBOH",
            "outputs": [],
            "stateMutability": "nonpayable",
            "type": "function"
        },
        {
            "inputs": [
                {
                    "internalType": "address",
                    "name": "temp",
                    "type": "address"
                },
                {
                    "internalType": "uint8",
                    "name": "typeOfDoc",
                    "type": "uint8"
                }
            ],
            "name": "setTempOfIA",
            "outputs": [],
            "stateMutability": "nonpayable",
            "type": "function"
        },
        {
            "inputs": [
                {
                    "internalType": "bool",
                    "name": "onPar",
                    "type": "bool"
                }
            ],
            "name": "setVoteBase",
            "outputs": [],
            "stateMutability": "nonpayable",
            "type": "function"
        },
        {
            "inputs": [
                {
                    "internalType": "address",
                    "name": "ia",
                    "type": "address"
                },
                {
                    "internalType": "bytes32",
                    "name": "sigHash",
                    "type": "bytes32"
                }
            ],
            "name": "signIA",
            "outputs": [],
            "stateMutability": "nonpayable",
            "type": "function"
        },
        {
            "inputs": [
                {
                    "internalType": "address",
                    "name": "sha",
                    "type": "address"
                },
                {
                    "internalType": "bytes32",
                    "name": "sigHash",
                    "type": "bytes32"
                }
            ],
            "name": "signSHA",
            "outputs": [],
            "stateMutability": "nonpayable",
            "type": "function"
        },
        {
            "inputs": [
                {
                    "internalType": "address",
                    "name": "ia",
                    "type": "address"
                },
                {
                    "internalType": "bytes32",
                    "name": "sn",
                    "type": "bytes32"
                }
            ],
            "name": "takeGiftShares",
            "outputs": [],
            "stateMutability": "nonpayable",
            "type": "function"
        },
        {
            "inputs": [
                {
                    "internalType": "bytes32",
                    "name": "bsRule",
                    "type": "bytes32"
                },
                {
                    "internalType": "uint8",
                    "name": "seqOfTitle",
                    "type": "uint8"
                },
                {
                    "internalType": "uint256",
                    "name": "motionId",
                    "type": "uint256"
                }
            ],
            "name": "takePosition",
            "outputs": [],
            "stateMutability": "nonpayable",
            "type": "function"
        },
        {
            "inputs": [
                {
                    "internalType": "address",
                    "name": "ia",
                    "type": "address"
                },
                {
                    "internalType": "bytes32",
                    "name": "sn",
                    "type": "bytes32"
                }
            ],
            "name": "transferTargetShare",
            "outputs": [],
            "stateMutability": "nonpayable",
            "type": "function"
        },
        {
            "inputs": [
                {
                    "internalType": "bytes32",
                    "name": "sn",
                    "type": "bytes32"
                },
                {
                    "internalType": "uint32",
                    "name": "d1",
                    "type": "uint32"
                },
                {
                    "internalType": "uint32",
                    "name": "d2",
                    "type": "uint32"
                }
            ],
            "name": "updateOracle",
            "outputs": [],
            "stateMutability": "nonpayable",
            "type": "function"
        },
        {
            "inputs": [
                {
                    "internalType": "uint32",
                    "name": "ssn",
                    "type": "uint32"
                },
                {
                    "internalType": "uint32",
                    "name": "line",
                    "type": "uint32"
                }
            ],
            "name": "updatePaidInDeadline",
            "outputs": [],
            "stateMutability": "nonpayable",
            "type": "function"
        },
        {
            "inputs": [
                {
                    "internalType": "bytes32",
                    "name": "sn",
                    "type": "bytes32"
                },
                {
                    "internalType": "uint40",
                    "name": "creditor",
                    "type": "uint40"
                },
                {
                    "internalType": "uint48",
                    "name": "expireDate",
                    "type": "uint48"
                },
                {
                    "internalType": "uint64",
                    "name": "pledgedPar",
                    "type": "uint64"
                },
                {
                    "internalType": "uint64",
                    "name": "guaranteedAmt",
                    "type": "uint64"
                }
            ],
            "name": "updatePledge",
            "outputs": [],
            "stateMutability": "nonpayable",
            "type": "function"
        },
        {
            "inputs": [
                {
                    "internalType": "uint256",
                    "name": "motionId",
                    "type": "uint256"
                }
            ],
            "name": "voteCounting",
            "outputs": [],
            "stateMutability": "nonpayable",
            "type": "function"
        },
        {
            "inputs": [
                {
                    "internalType": "bytes32",
                    "name": "sn",
                    "type": "bytes32"
                }
            ],
            "name": "withdrawPayInAmount",
            "outputs": [],
            "stateMutability": "nonpayable",
            "type": "function"
        }
    ],
    "bytecode": "608060405234801561001057600080fd5b50614dca806100206000396000f3fe608060405234801561001057600080fd5b50600436106104d85760003560e01c80638d52e29211610283578063d1a0ce561161015c578063e9e1cccc116100ce578063f0e4b06d11610092578063f0e4b06d14610b01578063f3782bd314610b14578063f8fb9e1d14610b27578063f9ee371b14610b3a578063fa0be08514610b43578063faf8b01814610b5657600080fd5b8063e9e1cccc14610ab8578063ec58d13d14610acb578063ed21102314610ade578063eec1091e14610ae6578063f045a76914610af957600080fd5b8063da6a43d611610120578063da6a43d614610a14578063db34d93414610a27578063e06eba8c14610a3a578063e12388f214610a7f578063e50783e114610a92578063e7e4859c14610aa557600080fd5b8063d1a0ce56146109c0578063d33168b2146109c8578063d489d887146109db578063d50e1a47146109ee578063d9a2f90f14610a0157600080fd5b8063b24d8e65116101f5578063bfb6a198116101b9578063bfb6a1981461094e578063c0eb9e4b14610961578063c1be2ad614610974578063c54ecfa814610987578063cd4073281461099a578063d0f0ce51146109ad57600080fd5b8063b24d8e65146108f9578063b3f05b971461090c578063bd13127914610920578063bdc36f6214610933578063bf89776d1461094657600080fd5b8063a303fb0711610247578063a303fb0714610887578063a3e78f011461089a578063abbf6d13146108ad578063abd5c142146108c0578063ae2fc750146108d3578063b0e37185146108e657600080fd5b80638d52e29214610828578063945abaf91461083b5780639619967a1461084e5780639fb9328e14610861578063a02b544b1461087457600080fd5b80635c57de79116103b55780637ba706e811610327578063821ee8ea116102eb578063821ee8ea146107c157806383336a07146107d45780638506c43f146107e757806385d578ea146107fa578063893d20e81461080d5780638bb9c5bf1461081557600080fd5b80637ba706e8146107545780637bce8afe146107675780637cbb47191461077a5780637d1249db1461079b5780637e2b9530146107ae57600080fd5b80636c77efee116103795780636c77efee146106e25780636dcd84f7146106f5578063735dc1e31461070857806373e654921461071b578063740998151461072e57806379b2ec121461074157600080fd5b80635c57de79146106865780635f94411d14610699578063646e4b721461058f5780636ba42aaa146106ac5780636be8496f146106cf57600080fd5b80631f6b26091161044e5780633806f694116104125780633806f6941461061457806339f382c2146106275780633da9a6001461063a578063480129101461064d57806352ef3fa0146106605780635a71d25b1461067357600080fd5b80631f6b2609146105b55780632167a7fc146105c8578063218355db146105db5780632c425acc146105ee5780633178a9a91461060157600080fd5b806314d3cb85116104a057806314d3cb851461054e57806316dc517e1461055657806317c51fec146105695780631976b2f01461057c5780631d3667041461058f5780631e0234be146105a257600080fd5b806304726d7a146104dd5780630c4919b7146104f25780631022489b14610505578063103f6edd14610518578063142d64d91461053b575b600080fd5b6104f06104eb366004613edb565b610b69565b005b6104f0610500366004613f4f565b610be8565b6104f0610513366004613f84565b610ce8565b610520610e1b565b60405164ffffffffff90911681526020015b60405180910390f35b6104f0610549366004613fb2565b610ea7565b6104f0610f4d565b6104f0610564366004613feb565b611066565b6104f0610577366004613feb565b6110f4565b6104f061058a366004613feb565b611119565b6104f061059d36600461401b565b611183565b6104f06105b0366004613edb565b6111fc565b6104f06105c3366004614050565b61124c565b6104f06105d6366004614069565b6112ad565b6104f06105e936600461409e565b611322565b6104f06105fc3660046140ca565b61138b565b6104f061060f3660046140e8565b6113fb565b6104f0610622366004614105565b611644565b6104f0610635366004614050565b6116ae565b6104f0610648366004614050565b6116df565b6104f061065b366004614127565b6117ec565b6104f061066e366004613f84565b61189f565b6104f0610681366004614174565b611901565b6104f0610694366004614050565b611a20565b6104f06106a73660046141b7565b611a51565b6106bf6106ba3660046141da565b611b4e565b6040519015158152602001610532565b6104f06106dd3660046141da565b611bb0565b6104f06106f03660046140ca565b611c62565b6104f06107033660046141f7565b611cd3565b6104f0610716366004613f4f565b611d4c565b6104f061072936600461422c565b611e44565b6104f061073c366004613feb565b611eb5565b6106bf61074f366004613feb565b611eda565b6104f06107623660046140e8565b611f7b565b6104f06107753660046143e7565b61209e565b61078d61078836600461449c565b612130565b604051908152602001610532565b6104f06107a9366004614069565b6121e3565b6104f06107bc3660046141da565b612215565b6104f06107cf36600461453c565b61227e565b6104f06107e2366004614050565b61236e565b6104f06107f536600461401b565b61239f565b6104f0610808366004614050565b612415565b610520612446565b6104f0610823366004614050565b612481565b6104f06108363660046140ca565b6124da565b6104f0610849366004614127565b61250c565b6104f061085c366004614598565b61258a565b6104f061086f366004614050565b612633565b6104f061088236600461460d565b612676565b6104f0610895366004614174565b612777565b6104f06108a8366004614050565b612896565b6104f06108bb366004614598565b6129b4565b6104f06108ce366004613f4f565b6129eb565b6104f06108e1366004614640565b612a5f565b6104f06108f43660046140ca565b612ab0565b6104f0610907366004614050565b612ba5565b60028054600160f01b900460ff16146106bf565b6104f061092e36600461401b565b612bd6565b6104f06109413660046146a6565b612c08565b6104f0612d09565b6104f061095c3660046141da565b612d78565b6104f061096f3660046146d9565b612da9565b6104f061098236600461422c565b612e82565b6104f0610995366004614739565b612ef5565b6104f06109a836600461449c565b612fff565b6104f06109bb366004614773565b6130a6565b6104f06131a1565b6104f06109d6366004614105565b6132a0565b6104f06109e93660046141da565b6132d2565b6104f06109fc3660046143e7565b613302565b6104f0610a0f366004613f84565b613337565b6104f0610a223660046146a6565b613368565b6104f0610a353660046140e8565b613469565b610a67610a4836600461479d565b61ffff166000908152600560205260409020546001600160a01b031690565b6040516001600160a01b039091168152602001610532565b6104f0610a8d366004614050565b6134cb565b6104f0610aa03660046147b8565b6135b9565b6104f0610ab33660046141f7565b613662565b6104f0610ac6366004614820565b613695565b6104f0610ad936600461422c565b613720565b610a67613792565b6104f0610af4366004614870565b613818565b6104f06138a0565b6104f0610b0f36600461409e565b613abf565b6104f0610b223660046148b8565b613b29565b6104f0610b35366004614050565b613bac565b61078d60045481565b6104f0610b513660046140ca565b613bdd565b6104f0610b64366004614640565b613c0d565b60066000819052602052600080516020614cf58339815191525460405163023936bd60e11b81526001600160a01b03909116906304726d7a90610bb29085908590600401614949565b600060405180830381600087803b158015610bcc57600080fd5b505af1158015610be0573d6000803e3d6000fd5b505050505050565b604051633b11adbf60e21b815273__$364aad554dc80380f414546becdd2c1584$__9063ec46b6fc90610c2290600290339060040161496a565b60206040518083038186803b158015610c3a57600080fd5b505af4158015610c4e573d6000803e3d6000fd5b505050506040513d601f19601f82011682018060405250810190610c729190614981565b610c975760405162461bcd60e51b8152600401610c8e9061499e565b60405180910390fd5b600080526006602052600080516020614d5583398151915254604051630c4919b760e01b81526001600160a01b03848116600483015260ff8416602483015290911690630c4919b790604401610bb2565b604051633b11adbf60e21b815273__$364aad554dc80380f414546becdd2c1584$__9063ec46b6fc90610d2290600290339060040161496a565b60206040518083038186803b158015610d3a57600080fd5b505af4158015610d4e573d6000803e3d6000fd5b505050506040513d601f19601f82011682018060405250810190610d729190614981565b610d8e5760405162461bcd60e51b8152600401610c8e9061499e565b600760005260066020527f4ced6d0d36392b04cc5d8761b1327b3bbba6e1089c77f60a9a9ca18e05e4f00e54604051631022489b60e01b815260ff831660048201526001600160a01b0390911690631022489b906024015b600060405180830381600087803b158015610e0057600080fd5b505af1158015610e14573d6000803e3d6000fd5b5050505050565b60405163e8c0cc1d60e01b81526002600482015260009073__$364aad554dc80380f414546becdd2c1584$__9063e8c0cc1d906024015b60206040518083038186803b158015610e6a57600080fd5b505af4158015610e7e573d6000803e3d6000fd5b505050506040513d601f19601f82011682018060405250810190610ea291906149e4565b905090565b60026000526006602052600080516020614d75833981519152546001600160a01b0316633fb2be33848484610eda613c5e565b6040516001600160e01b031960e087901b1681526004810194909452602484019290925264ffffffffff90811660448401521660648201526084015b600060405180830381600087803b158015610f3057600080fd5b505af1158015610f44573d6000803e3d6000fd5b50505050505050565b604051633b11adbf60e21b815273__$364aad554dc80380f414546becdd2c1584$__9063ec46b6fc90610f8790600290339060040161496a565b60206040518083038186803b158015610f9f57600080fd5b505af4158015610fb3573d6000803e3d6000fd5b505050506040513d601f19601f82011682018060405250810190610fd79190614981565b610ff35760405162461bcd60e51b8152600401610c8e9061499e565b600260009081526006602052600080516020614d7583398151915254604080516314d3cb8560e01b815290516001600160a01b03909216926314d3cb859260048084019382900301818387803b15801561104c57600080fd5b505af1158015611060573d6000803e3d6000fd5b50505050565b73__$364aad554dc80380f414546becdd2c1584$__63427abff460028461108b613c5e565b6040516001600160e01b031960e086901b1681526004810193909352602483019190915264ffffffffff9081166044830152841660648201526084015b60006040518083038186803b1580156110e057600080fd5b505af4158015610be0573d6000803e3d6000fd5b73__$364aad554dc80380f414546becdd2c1584$__638ce1584560028461108b613c5e565b60046000526006602052600080516020614d15833981519152546001600160a01b031663d18e4970838361114b613c5e565b6040516001600160e01b031960e086901b168152600481019390935264ffffffffff9182166024840152166044820152606401610bb2565b60086000526006602052600080516020614d35833981519152546001600160a01b03166384c9e68784846111b5613c5e565b6040516001600160e01b031960e086901b1681526001600160a01b039093166004840152602483019190915264ffffffffff16604482015260648101849052608401610f16565b60046000526006602052600080516020614d15833981519152546001600160a01b031663c10d7e08838361122e613c5e565b6040518463ffffffff1660e01b8152600401610bb293929190614a01565b60036000526006602052600080516020614cb5833981519152546001600160a01b031663ed3520f88261127d613c5e565b6040516001600160e01b031960e085901b168152600481019290925264ffffffffff166024820152604401610de6565b60026000526006602052600080516020614d75833981519152546001600160a01b031663dbf1f4c484846112df613c5e565b6040516001600160e01b031960e086901b168152600481019390935260ff909116602483015264ffffffffff908116604483015284166064820152608401610f16565b60016000526006602052600080516020614cd5833981519152546001600160a01b0316637d2c6fe7611352613c5e565b6040516001600160e01b031960e084901b16815264ffffffffff9182166004820152908516602482015260448101849052606401610bb2565b60036000526006602052600080516020614cb5833981519152546001600160a01b0316639dd20332836113bc613c5e565b6040516001600160e01b031960e085901b1681526001600160a01b03909216600483015264ffffffffff16602482015260448101849052606401610bb2565b604051633b11adbf60e21b815273__$364aad554dc80380f414546becdd2c1584$__9063ec46b6fc9061143590600290339060040161496a565b60206040518083038186803b15801561144d57600080fd5b505af4158015611461573d6000803e3d6000fd5b505050506040513d601f19601f820116820180604052508101906114859190614981565b8061152a575073__$364aad554dc80380f414546becdd2c1584$__63fe27108660026114af613c5e565b6040516001600160e01b031960e085901b168152600481019290925264ffffffffff16602482015260440160206040518083038186803b1580156114f257600080fd5b505af4158015611506573d6000803e3d6000fd5b505050506040513d601f19601f8201168201806040525081019061152a9190614981565b6115955760405162461bcd60e51b815260206004820152603660248201527f41432e6f776e65724f72446972656374426f6f6b65657065723a206e6569746860448201527532b91037bbb732b9103737b9103137b7b5b2b2b832b960511b6064820152608401610c8e565b604051632725ebef60e21b81526002600482015264ffffffffff8216602482015273__$364aad554dc80380f414546becdd2c1584$__90639c97afbc9060440160006040518083038186803b1580156115ed57600080fd5b505af4158015611601573d6000803e3d6000fd5b505060405164ffffffffff841681527ff2735f34b69be1e6342dea95f9162f84d0db925fab655ca9f1f312ac8cbfc99d925060200190505b60405180910390a150565b60046000526006602052600080516020614d15833981519152546001600160a01b031663fe079aff8383611676613c5e565b6040516001600160e01b031960e086901b1681526004810193909352602483019190915264ffffffffff166044820152606401610bb2565b60046000526006602052600080516020614d15833981519152546001600160a01b031663ff8482258261127d613c5e565b604051633b11adbf60e21b815273__$364aad554dc80380f414546becdd2c1584$__9063ec46b6fc9061171990600290339060040161496a565b60206040518083038186803b15801561173157600080fd5b505af4158015611745573d6000803e3d6000fd5b505050506040513d601f19601f820116820180604052508101906117699190614981565b6117855760405162461bcd60e51b8152600401610c8e9061499e565b60405163cc99e11b60e01b8152600260048201526024810182905273__$364aad554dc80380f414546becdd2c1584$__9063cc99e11b906044015b60006040518083038186803b1580156117d857600080fd5b505af4158015610e14573d6000803e3d6000fd5b60086000526006602052600080516020614d35833981519152546001600160a01b0316639622e8e685858561181f613c5e565b6040516001600160e01b031960e087901b1681526001600160a01b0390941660048501526024840192909252604483015264ffffffffff1660648201526084810184905260a4015b600060405180830381600087803b15801561188157600080fd5b505af1158015611895573d6000803e3d6000fd5b5050505050505050565b600080526006602052600080516020614d55833981519152546001600160a01b031663eeec1419826118cf613c5e565b6040516001600160e01b031960e085901b16815260ff909216600483015264ffffffffff166024820152604401610de6565b604051633b11adbf60e21b815273__$364aad554dc80380f414546becdd2c1584$__9063ec46b6fc9061193b90600290339060040161496a565b60206040518083038186803b15801561195357600080fd5b505af4158015611967573d6000803e3d6000fd5b505050506040513d601f19601f8201168201806040525081019061198b9190614981565b6119a75760405162461bcd60e51b8152600401610c8e9061499e565b6040805161ffff841681526001600160a01b03831660208201527fe9f2a79479f1cf09cb822bdfbaf62cb843e8365cf870e6bee1edc316ae1fcb52910160405180910390a161ffff91909116600090815260066020526040902080546001600160a01b0319166001600160a01b03909216919091179055565b60046000526006602052600080516020614d15833981519152546001600160a01b0316630190ab3f8261127d613c5e565b604051633b11adbf60e21b815273__$364aad554dc80380f414546becdd2c1584$__9063ec46b6fc90611a8b90600290339060040161496a565b60206040518083038186803b158015611aa357600080fd5b505af4158015611ab7573d6000803e3d6000fd5b505050506040513d601f19601f82011682018060405250810190611adb9190614981565b611af75760405162461bcd60e51b8152600401610c8e9061499e565b60066000819052602052600080516020614cf583398151915254604051635f94411d60e01b8152600481018490526001600160401b03831660248201526001600160a01b0390911690635f94411d90604401610bb2565b600060095b8015611ba75760066000611b68600184614a47565b81526020810191909152604001600020546001600160a01b0384811691161415611b955750600192915050565b80611b9f81614a5e565b915050611b53565b50600092915050565b604051630f07232560e01b8152600260048201523360248201526001600160a01b038216604482015273__$364aad554dc80380f414546becdd2c1584$__90630f0723259060640160006040518083038186803b158015611c1057600080fd5b505af4158015611c24573d6000803e3d6000fd5b50506040516001600160a01b03841681527fe435cbeab64e4eae6497b9d8289704bd709d624a80704ef3ca9af777534bc6ec92506020019050611639565b600080526006602052600080516020614d55833981519152546001600160a01b031663bae6f6238383611c93613c5e565b6040516001600160e01b031960e086901b1681526001600160a01b039093166004840152602483019190915264ffffffffff166044820152606401610bb2565b60046000526006602052600080516020614d15833981519152546001600160a01b03166350836e6c848484611d06613c5e565b6040516001600160e01b031960e087901b168152600481019490945260248401929092526001600160401b0316604483015264ffffffffff166064820152608401610f16565b604051633b11adbf60e21b815273__$364aad554dc80380f414546becdd2c1584$__9063ec46b6fc90611d8690600290339060040161496a565b60206040518083038186803b158015611d9e57600080fd5b505af4158015611db2573d6000803e3d6000fd5b505050506040513d601f19601f82011682018060405250810190611dd69190614981565b611df25760405162461bcd60e51b8152600401610c8e9061499e565b60036000526006602052600080516020614cb58339815191525460405163735dc1e360e01b81526001600160a01b03848116600483015260ff841660248301529091169063735dc1e390604401610bb2565b60026000526006602052600080516020614d75833981519152546001600160a01b031663cba36bf384611e75613c5e565b6040516001600160e01b031960e085901b168152600481019290925264ffffffffff16602482015260ff8516604482015260648101849052608401610f16565b73__$364aad554dc80380f414546becdd2c1584$__63d2a15ba760028461108b613c5e565b604051632a3be56b60e21b8152600260048201526024810183905264ffffffffff8216604482015260009073__$364aad554dc80380f414546becdd2c1584$__9063a8ef95ac9060640160206040518083038186803b158015611f3c57600080fd5b505af4158015611f50573d6000803e3d6000fd5b505050506040513d601f19601f82011682018060405250810190611f749190614981565b9392505050565b73__$364aad554dc80380f414546becdd2c1584$__63fe2710866002611f9f613c5e565b6040516001600160e01b031960e085901b168152600481019290925264ffffffffff16602482015260440160206040518083038186803b158015611fe257600080fd5b505af4158015611ff6573d6000803e3d6000fd5b505050506040513d601f19601f8201168201806040525081019061201a9190614981565b6120595760405162461bcd60e51b815260206004820152601060248201526f20a19737bb9d103737ba1037bbb732b960811b6044820152606401610c8e565b60405163b6e38a2960e01b81526002600482015264ffffffffff8216602482015273__$364aad554dc80380f414546becdd2c1584$__9063b6e38a29906044016117c0565b60016000526006602052600080516020614cd5833981519152546001600160a01b031663e31f2d2c87878787876120d3613c5e565b886040518863ffffffff1660e01b81526004016120f69796959493929190614b3e565b600060405180830381600087803b15801561211057600080fd5b505af1158015612124573d6000803e3d6000fd5b50505050505050505050565b600260009081526006602052600080516020614d75833981519152546001600160a01b0316624f41748787878787612166613c5e565b6040518763ffffffff1660e01b815260040161218796959493929190614ba8565b602060405180830381600087803b1580156121a157600080fd5b505af11580156121b5573d6000803e3d6000fd5b505050506040513d601f19601f820116820180604052508101906121d99190614c0b565b9695505050505050565b60016000526006602052600080516020614cd5833981519152546001600160a01b0316634a8bbd7f84846112df613c5e565b60036000526006602052600080516020614cb5833981519152546001600160a01b031663f538606582612246613c5e565b6040516001600160e01b031960e085901b1681526001600160a01b03909216600483015264ffffffffff166024820152604401610de6565b61228782613cb8565b61229081613d67565b604051636cdd0edf60e11b81526002600482015264ffffffffff851660248201526001600160a01b038416604482015273__$364aad554dc80380f414546becdd2c1584$__9063d9ba1dbe9060640160006040518083038186803b1580156122f757600080fd5b505af415801561230b573d6000803e3d6000fd5b50506040805164ffffffffff881681526001600160a01b038781166020830152868116828401528516606082015290517f4d18c0021addc919105cb1ed2c11ad241e859cc1d9e77d4ee1d9ca2cdc1f255b9350908190036080019150a150505050565b60016000526006602052600080516020614cd5833981519152546001600160a01b0316630e91a0a78261127d613c5e565b600080526006602052600080516020614d55833981519152546001600160a01b031663cb132cc7846123cf613c5e565b6040516001600160e01b031960e085901b1681526001600160a01b03909216600483015264ffffffffff1660248201526044810185905260648101849052608401610f16565b60046000526006602052600080516020614d15833981519152546001600160a01b03166353db70678261127d613c5e565b60405163987ad15360e01b81526002600482015260009073__$364aad554dc80380f414546becdd2c1584$__9063987ad15390602401610e52565b600061248b613c5e565b604051637963595360e11b8152600260048201526024810184905264ffffffffff8216604482015290915073__$364aad554dc80380f414546becdd2c1584$__9063f2c6b2a6906064016110c8565b60086000526006602052600080516020614d35833981519152546001600160a01b031663de40ddb98383611c93613c5e565b60036000526006602052600080516020614cb5833981519152546001600160a01b0316635305ed898561253d613c5e565b6040516001600160e01b031960e085901b1681526001600160a01b03909216600483015264ffffffffff16602482015260448101869052606481018590526084810184905260a401611867565b600860009081526006602052600080516020614d35833981519152546001600160a01b031690631414603e90889088908888886125c5613c5e565b6040516001600160e01b031960e08a901b1681526001600160a01b0390971660048801526024870195909552921515604486015260648501919091526001600160401b0390811660848501521660a483015264ffffffffff1660c482015260e48101849052610104016120f6565b600560005260066020527fbfd358e93f18da3ed276c3afdbdba00b8f0b6008a03476a6a86bd6320ee6938b546001600160a01b031663b9ffc96e8261127d613c5e565b604051633b11adbf60e21b815273__$364aad554dc80380f414546becdd2c1584$__9063ec46b6fc906126b090600290339060040161496a565b60206040518083038186803b1580156126c857600080fd5b505af41580156126dc573d6000803e3d6000fd5b505050506040513d601f19601f820116820180604052508101906127009190614981565b61271c5760405162461bcd60e51b8152600401610c8e9061499e565b600460008190526006602052600080516020614d158339815191525460405163a02b544b60e01b815291820185905263ffffffff8085166024840152831660448301526001600160a01b03169063a02b544b90606401610f16565b604051633b11adbf60e21b815273__$364aad554dc80380f414546becdd2c1584$__9063ec46b6fc906127b190600290339060040161496a565b60206040518083038186803b1580156127c957600080fd5b505af41580156127dd573d6000803e3d6000fd5b505050506040513d601f19601f820116820180604052508101906128019190614981565b61281d5760405162461bcd60e51b8152600401610c8e9061499e565b6040805161ffff841681526001600160a01b03831660208201527f544086471d9f22fb00aa44e06837758c3f089b27d2503102a29e585eb51a5ab6910160405180910390a161ffff91909116600090815260056020526040902080546001600160a01b0319166001600160a01b03909216919091179055565b73__$364aad554dc80380f414546becdd2c1584$__63fe27108660026128ba613c5e565b6040516001600160e01b031960e085901b168152600481019290925264ffffffffff16602482015260440160206040518083038186803b1580156128fd57600080fd5b505af4158015612911573d6000803e3d6000fd5b505050506040513d601f19601f820116820180604052508101906129359190614981565b6129745760405162461bcd60e51b815260206004820152601060248201526f20a19737bb9d103737ba1037bbb732b960811b6044820152606401610c8e565b7f17ef7bd663554dc98b5419593050ca9410ad39692d3dee2f20e48f126379c0f06004546040516129a791815260200190565b60405180910390a1600455565b60086000526006602052600080516020614d35833981519152546001600160a01b0316631414603e878760018888886125c5613c5e565b60026000526006602052600080516020614d75833981519152546001600160a01b031663b1b743978383612a1d613c5e565b6040516001600160e01b031960e086901b1681526001600160a01b03909316600484015260ff909116602483015264ffffffffff166044820152606401610bb2565b600080526006602052600080516020614d55833981519152546001600160a01b031663235e69358484612a90613c5e565b856040518563ffffffff1660e01b8152600401610f169493929190614c24565b604051633b11adbf60e21b815273__$364aad554dc80380f414546becdd2c1584$__9063ec46b6fc90612aea90600290339060040161496a565b60206040518083038186803b158015612b0257600080fd5b505af4158015612b16573d6000803e3d6000fd5b505050506040513d601f19601f82011682018060405250810190612b3a9190614981565b612b565760405162461bcd60e51b8152600401610c8e9061499e565b600080526006602052600080516020614d558339815191525460405163b0e3718560e01b81526001600160a01b038481166004830152602482018490529091169063b0e3718590604401610bb2565b60046000526006602052600080516020614d15833981519152546001600160a01b03166321d0e4ed8261127d613c5e565b60086000526006602052600080516020614d35833981519152546001600160a01b031663f899f4f584846111b5613c5e565b604051633b11adbf60e21b815273__$364aad554dc80380f414546becdd2c1584$__9063ec46b6fc90612c4290600290339060040161496a565b60206040518083038186803b158015612c5a57600080fd5b505af4158015612c6e573d6000803e3d6000fd5b505050506040513d601f19601f82011682018060405250810190612c929190614981565b612cae5760405162461bcd60e51b8152600401610c8e9061499e565b600760005260066020527f4ced6d0d36392b04cc5d8761b1327b3bbba6e1089c77f60a9a9ca18e05e4f00e54604051635ee1b7b160e11b815282151560048201526001600160a01b039091169063bdc36f6290602401610de6565b60016000526006602052600080516020614cd5833981519152546001600160a01b031663edaebad4612d39613c5e565b6040516001600160e01b031960e084901b16815264ffffffffff9091166004820152602401600060405180830381600087803b15801561104c57600080fd5b60036000526006602052600080516020614cb5833981519152546001600160a01b03166330f731c282612246613c5e565b600560005260066020527fbfd358e93f18da3ed276c3afdbdba00b8f0b6008a03476a6a86bd6320ee6938b546001600160a01b03166373fe510f8686868686612df0613c5e565b6040516001600160e01b031960e089901b168152600481019690965264ffffffffff948516602487015265ffffffffffff90931660448601526001600160401b0391821660648601521660848401521660a482015260c4015b600060405180830381600087803b158015612e6357600080fd5b505af1158015612e77573d6000803e3d6000fd5b505050505050505050565b60016000526006602052600080516020614cd5833981519152546001600160a01b031663458349c88484612eb4613c5e565b6040516001600160e01b031960e086901b168152600481019390935260ff909116602483015264ffffffffff16604482015260648101849052608401610f16565b604051633b11adbf60e21b815273__$364aad554dc80380f414546becdd2c1584$__9063ec46b6fc90612f2f90600290339060040161496a565b60206040518083038186803b158015612f4757600080fd5b505af4158015612f5b573d6000803e3d6000fd5b505050506040513d601f19601f82011682018060405250810190612f7f9190614981565b612f9b5760405162461bcd60e51b8152600401610c8e9061499e565b60066000819052602052600080516020614cf5833981519152546040516318a9d9f560e31b815263ffffffff851660048201526001600160401b038085166024830152831660448201526001600160a01b039091169063c54ecfa890606401610f16565b60016000526006602052600080516020614cd5833981519152546001600160a01b0316624f41748686868686613033613c5e565b6040518763ffffffff1660e01b815260040161305496959493929190614ba8565b602060405180830381600087803b15801561306e57600080fd5b505af1158015613082573d6000803e3d6000fd5b505050506040513d601f19601f82011682018060405250810190610be09190614c0b565b604051633b11adbf60e21b815273__$364aad554dc80380f414546becdd2c1584$__9063ec46b6fc906130e090600290339060040161496a565b60206040518083038186803b1580156130f857600080fd5b505af415801561310c573d6000803e3d6000fd5b505050506040513d601f19601f820116820180604052508101906131309190614981565b61314c5760405162461bcd60e51b8152600401610c8e9061499e565b60066000819052602052600080516020614cf58339815191525460405163d0f0ce5160e01b815263ffffffff8085166004830152831660248201526001600160a01b039091169063d0f0ce5190604401610bb2565b604051633b11adbf60e21b815273__$364aad554dc80380f414546becdd2c1584$__9063ec46b6fc906131db90600290339060040161496a565b60206040518083038186803b1580156131f357600080fd5b505af4158015613207573d6000803e3d6000fd5b505050506040513d601f19601f8201168201806040525081019061322b9190614981565b6132475760405162461bcd60e51b8152600401610c8e9061499e565b600260009081526006602052600080516020614d7583398151915254604080516368d0672b60e11b815290516001600160a01b039092169263d1a0ce569260048084019382900301818387803b15801561104c57600080fd5b60046000526006602052600080516020614d15833981519152546001600160a01b0316635ca7e2f88383611676613c5e565b600080526006602052600080516020614d55833981519152546001600160a01b031663360c4b5282612246613c5e565b60026000526006602052600080516020614d75833981519152546001600160a01b031663e31f2d2c87878787876120d3613c5e565b60036000526006602052600080516020614cb5833981519152546001600160a01b03166394661790826118cf613c5e565b604051633b11adbf60e21b815273__$364aad554dc80380f414546becdd2c1584$__9063ec46b6fc906133a290600290339060040161496a565b60206040518083038186803b1580156133ba57600080fd5b505af41580156133ce573d6000803e3d6000fd5b505050506040513d601f19601f820116820180604052508101906133f29190614981565b61340e5760405162461bcd60e51b8152600401610c8e9061499e565b600760005260066020527f4ced6d0d36392b04cc5d8761b1327b3bbba6e1089c77f60a9a9ca18e05e4f00e54604051636d3521eb60e11b815282151560048201526001600160a01b039091169063da6a43d690602401610de6565b60016000526006602052600080516020614cd5833981519152546001600160a01b0316638d8358bd8261349a613c5e565b6040516001600160e01b031960e085901b16815264ffffffffff928316600482015291166024820152604401610de6565b604051633b11adbf60e21b815273__$364aad554dc80380f414546becdd2c1584$__9063ec46b6fc9061350590600290339060040161496a565b60206040518083038186803b15801561351d57600080fd5b505af4158015613531573d6000803e3d6000fd5b505050506040513d601f19601f820116820180604052508101906135559190614981565b6135715760405162461bcd60e51b8152600401610c8e9061499e565b60066000819052602052600080516020614cf583398151915254604051637091c47960e11b8152600481018390526001600160a01b039091169063e12388f290602401610de6565b600560005260066020527fbfd358e93f18da3ed276c3afdbdba00b8f0b6008a03476a6a86bd6320ee6938b546001600160a01b0316631bf068e6878786868987613601613c5e565b6040516001600160e01b031960e08a901b1681526004810197909752602487019590955264ffffffffff938416604487015261ffff90921660648601526001600160401b0390811660848601521660a48401521660c482015260e4016120f6565b60046000526006602052600080516020614d15833981519152546001600160a01b0316639a14562c848484611d06613c5e565b60086000526006602052600080516020614d35833981519152546001600160a01b0316639eea4b9f868686866136c9613c5e565b6040516001600160e01b031960e088901b16815261ffff909516600486015260248501939093526001600160a01b039091166044840152606483015264ffffffffff16608482015260a4810184905260c401612e49565b60016000526006602052600080516020614cd5833981519152546001600160a01b031663d9624d35848484613753613c5e565b6040516001600160e01b031960e087901b168152600481019490945260ff9092166024840152604483015264ffffffffff166064820152608401610f16565b604051633c3e56c160e11b81526002600482015260009073__$364aad554dc80380f414546becdd2c1584$__9063787cad829060240160206040518083038186803b1580156137e057600080fd5b505af41580156137f4573d6000803e3d6000fd5b505050506040513d601f19601f82011682018060405250810190610ea29190614c58565b600080526006602052600080516020614d55833981519152546001600160a01b031663e495ed1c8585858561384b613c5e565b6040516001600160e01b031960e088901b1681526001600160a01b0390951660048601526024850193909352604484019190915265ffffffffffff16606483015264ffffffffff16608482015260a401611867565b604051633b11adbf60e21b815273__$364aad554dc80380f414546becdd2c1584$__9063ec46b6fc906138da90600290339060040161496a565b60206040518083038186803b1580156138f257600080fd5b505af4158015613906573d6000803e3d6000fd5b505050506040513d601f19601f8201168201806040525081019061392a9190614981565b6139465760405162461bcd60e51b8152600401610c8e9061499e565b600254600160f01b900460ff166001146139a25760405162461bcd60e51b815260206004820181905260248201527f41432e6f6e6c7950656e64696e673a20446f632069732066696e616c697a65646044820152606401610c8e565b60405163cc99e11b60e01b815260026004820152684174746f726e65797360b81b602482015273__$364aad554dc80380f414546becdd2c1584$__9063cc99e11b9060440160006040518083038186803b1580156139ff57600080fd5b505af4158015613a13573d6000803e3d6000fd5b5050604051632725ebef60e21b8152600260048201526000602482015273__$364aad554dc80380f414546becdd2c1584$__9250639c97afbc915060440160006040518083038186803b158015613a6957600080fd5b505af4158015613a7d573d6000803e3d6000fd5b50506002805460ff60f01b1916600160f11b17905550506040517f35012b512309c322acf68632cd6cb702ff0e1d776fbe9394e38ffc13b434fe7590600090a1565b60026000526006602052600080516020614d75833981519152546001600160a01b03166381ab05cb82613af0613c5e565b6040516001600160e01b031960e085901b168152600481019290925264ffffffffff908116602483015285166044820152606401610bb2565b60046000526006602052600080516020614d15833981519152546001600160a01b03166390e3146385858585613b5d613c5e565b6040516001600160e01b031960e088901b168152600481019590955264ffffffffff93841660248601526001600160401b0392831660448601529116606484015216608482015260a401611867565b60026000526006602052600080516020614d75833981519152546001600160a01b0316630e91a0a78261127d613c5e565b600080526006602052600080516020614d55833981519152546001600160a01b03166333f36a2b836113bc613c5e565b600080526006602052600080516020614d55833981519152546001600160a01b0316630a219497848484613c3f613c5e565b6040518563ffffffff1660e01b8152600401610f169493929190614c75565b60008054604051634de835e760e11b81523360048201526001600160a01b0390911690639bd06bce90602401602060405180830381600087803b158015613ca457600080fd5b505af1158015610e7e573d6000803e3d6000fd5b6000546001600160a01b031615613d095760405162461bcd60e51b815260206004820152601560248201527430b63932b0b23c9039b2ba103932b3a1b2b73a32b960591b6044820152606401610c8e565b6040516001600160a01b03821681527f318da6c7624c71cbc0afe346c9d8827f119d0ecefb241a7b0c87217a076a8e029060200160405180910390a1600080546001600160a01b0319166001600160a01b0392909216919091179055565b6001546001600160a01b031615613dc05760405162461bcd60e51b815260206004820152601960248201527f616c7265616479207365742067656e6572616c4b6565706572000000000000006044820152606401610c8e565b6040516001600160a01b03821681527fe513d3e0f0d0a3877029dcc588748679a7a3450ec1ec7ed56d96bd012c3e61aa9060200160405180910390a1600180546001600160a01b0319166001600160a01b0392909216919091179055565b634e487b7160e01b600052604160045260246000fd5b604051601f8201601f191681016001600160401b0381118282101715613e5c57613e5c613e1e565b604052919050565b60006001600160401b03831115613e7d57613e7d613e1e565b613e90601f8401601f1916602001613e34565b9050828152838383011115613ea457600080fd5b828260208301376000602084830101529392505050565b600082601f830112613ecc57600080fd5b611f7483833560208501613e64565b60008060408385031215613eee57600080fd5b8235915060208301356001600160401b03811115613f0b57600080fd5b613f1785828601613ebb565b9150509250929050565b6001600160a01b0381168114613f3657600080fd5b50565b803560ff81168114613f4a57600080fd5b919050565b60008060408385031215613f6257600080fd5b8235613f6d81613f21565b9150613f7b60208401613f39565b90509250929050565b600060208284031215613f9657600080fd5b611f7482613f39565b64ffffffffff81168114613f3657600080fd5b600080600060608486031215613fc757600080fd5b83359250602084013591506040840135613fe081613f9f565b809150509250925092565b60008060408385031215613ffe57600080fd5b82359150602083013561401081613f9f565b809150509250929050565b60008060006060848603121561403057600080fd5b833561403b81613f21565b95602085013595506040909401359392505050565b60006020828403121561406257600080fd5b5035919050565b60008060006060848603121561407e57600080fd5b8335925061408e60208501613f39565b91506040840135613fe081613f9f565b600080604083850312156140b157600080fd5b82356140bc81613f9f565b946020939093013593505050565b600080604083850312156140dd57600080fd5b82356140bc81613f21565b6000602082840312156140fa57600080fd5b8135611f7481613f9f565b6000806040838503121561411857600080fd5b50508035926020909101359150565b6000806000806080858703121561413d57600080fd5b843561414881613f21565b966020860135965060408601359560600135945092505050565b803561ffff81168114613f4a57600080fd5b6000806040838503121561418757600080fd5b61419083614162565b9150602083013561401081613f21565b80356001600160401b0381168114613f4a57600080fd5b600080604083850312156141ca57600080fd5b82359150613f7b602084016141a0565b6000602082840312156141ec57600080fd5b8135611f7481613f21565b60008060006060848603121561420c57600080fd5b8335925060208401359150614223604085016141a0565b90509250925092565b60008060006060848603121561424157600080fd5b8335925061425160208501613f39565b9150604084013590509250925092565b60006001600160401b0382111561427a5761427a613e1e565b5060051b60200190565b600082601f83011261429557600080fd5b813560206142aa6142a583614261565b613e34565b82815260059290921b840181019181810190868411156142c957600080fd5b8286015b848110156142ed5780356142e081613f21565b83529183019183016142cd565b509695505050505050565b600082601f83011261430957600080fd5b813560206143196142a583614261565b82815260059290921b8401810191818101908684111561433857600080fd5b8286015b848110156142ed578035835291830191830161433c565b600082601f83011261436457600080fd5b813560206143746142a583614261565b82815260059290921b8401810191818101908684111561439357600080fd5b8286015b848110156142ed5780356001600160401b038111156143b65760008081fd5b8701603f810189136143c85760008081fd5b6143d9898683013560408401613e64565b845250918301918301614397565b60008060008060008060c0878903121561440057600080fd5b61440987613f39565b955060208701356001600160401b038082111561442557600080fd5b6144318a838b01614284565b9650604089013591508082111561444757600080fd5b6144538a838b016142f8565b9550606089013591508082111561446957600080fd5b5061447689828a01614353565b9350506080870135915060a087013561448e81613f9f565b809150509295509295509295565b600080600080600060a086880312156144b457600080fd5b6144bd86613f39565b945060208601356001600160401b03808211156144d957600080fd5b6144e589838a01614284565b955060408801359150808211156144fb57600080fd5b61450789838a016142f8565b9450606088013591508082111561451d57600080fd5b5061452a88828901614353565b95989497509295608001359392505050565b6000806000806080858703121561455257600080fd5b843561455d81613f9f565b9350602085013561456d81613f21565b9250604085013561457d81613f21565b9150606085013561458d81613f21565b939692955090935050565b60008060008060008060c087890312156145b157600080fd5b86356145bc81613f21565b955060208701359450604087013593506145d8606088016141a0565b92506145e6608088016141a0565b915060a087013590509295509295509295565b803563ffffffff81168114613f4a57600080fd5b60008060006060848603121561462257600080fd5b83359250614632602085016145f9565b9150614223604085016145f9565b60008060006060848603121561465557600080fd5b833561466081613f21565b92506020840135915060408401356001600160401b0381111561468257600080fd5b61468e86828701613ebb565b9150509250925092565b8015158114613f3657600080fd5b6000602082840312156146b857600080fd5b8135611f7481614698565b803565ffffffffffff81168114613f4a57600080fd5b600080600080600060a086880312156146f157600080fd5b85359450602086013561470381613f9f565b9350614711604087016146c3565b925061471f606087016141a0565b915061472d608087016141a0565b90509295509295909350565b60008060006060848603121561474e57600080fd5b614757846145f9565b9250614765602085016141a0565b9150614223604085016141a0565b6000806040838503121561478657600080fd5b61478f836145f9565b9150613f7b602084016145f9565b6000602082840312156147af57600080fd5b611f7482614162565b60008060008060008060c087890312156147d157600080fd5b86359550602087013594506147e8604088016141a0565b935060608701356147f881613f9f565b925061480660808801614162565b915061481460a088016141a0565b90509295509295509295565b600080600080600060a0868803121561483857600080fd5b61484186614162565b945060208601359350604086013561485881613f21565b94979396509394606081013594506080013592915050565b6000806000806080858703121561488657600080fd5b843561489181613f21565b935060208501359250604085013591506148ad606086016146c3565b905092959194509250565b600080600080608085870312156148ce57600080fd5b8435935060208501356148e081613f9f565b92506148ee604086016141a0565b91506148ad606086016141a0565b6000815180845260005b8181101561492257602081850181015186830182015201614906565b81811115614934576000602083870101525b50601f01601f19169290920160200192915050565b82815260406020820152600061496260408301846148fc565b949350505050565b9182526001600160a01b0316602082015260400190565b60006020828403121561499357600080fd5b8151611f7481614698565b60208082526026908201527f41432e6f6e6c794469726563744b65657065723a206e6f74206469726563742060408201526535b2b2b832b960d11b606082015260800190565b6000602082840312156149f657600080fd5b8151611f7481613f9f565b838152606060208201526000614a1a60608301856148fc565b905064ffffffffff83166040830152949350505050565b634e487b7160e01b600052601160045260246000fd5b600082821015614a5957614a59614a31565b500390565b600081614a6d57614a6d614a31565b506000190190565b600081518084526020808501945080840160005b83811015614aae5781516001600160a01b031687529582019590820190600101614a89565b509495945050505050565b600081518084526020808501945080840160005b83811015614aae57815187529582019590820190600101614acd565b600081518084526020808501808196508360051b8101915082860160005b85811015614b31578284038952614b1f8483516148fc565b98850198935090840190600101614b07565b5091979650505050505050565b60ff8816815260e060208201526000614b5a60e0830189614a75565b8281036040840152614b6c8189614ab9565b90508281036060840152614b808188614ae9565b6080840196909652505064ffffffffff92831660a0820152911660c090910152949350505050565b60ff8716815260c060208201526000614bc460c0830188614a75565b8281036040840152614bd68188614ab9565b90508281036060840152614bea8187614ae9565b91505083608083015264ffffffffff831660a0830152979650505050505050565b600060208284031215614c1d57600080fd5b5051919050565b60018060a01b038516815283602082015264ffffffffff831660408201526080606082015260006121d960808301846148fc565b600060208284031215614c6a57600080fd5b8151611f7481613f21565b60018060a01b0385168152836020820152608060408201526000614c9c60808301856148fc565b905064ffffffffff831660608301529594505050505056fe75f96ab15d697e93042dc45b5c896c4b27e89bb6eaf39475c5c371cb2513f7d23e5fec24aa4dc4e5aee2e025e51e1392c72a2500577559fae9665c6d52bd6a31697b2bd7bb2984c4e0dc14c79c987d37818484a62958b9c45a0e8b962f20650fc5069e24aaadb2addc3e52e868fcf3f4f8acf5a87e24300992fd4540c2a87eedb8d683c9d414f481826f3e7fe14b3ac6ae8c73450778287390c4bb8cb9f2e80b54cdd369e4e8a8515e52ca72ec816c2101831ad1f18bf44102ed171459c9b4f88819ef417987f8ae7a81f42cdfb18815282fe989326fbff903d13cf0e03ace29a2646970667358221220e0e401f2a8763ea8563db24eff8f13f5f011136acde4fe252ac6d5fc8e3f8d2664736f6c63430008080033",
    "sourcePath": "/Users/kaptain/github.com/hardhat/comboox/contracts/keepers/GeneralKeeper.sol",
    "compiler": {
        "name": "solc",
        "version": "0.8.8+commit.dddeac2f"
    },
    "functionHashes": {
        "abandonRole(bytes32)": "3da9a600",
        "acceptDragAlong(address,bytes32,bytes32)": "1d366704",
        "acceptFirstRefusal(address,bytes32,bytes32)": "bd131279",
        "acceptSHA(bytes32)": "1f6b2609",
        "acceptTagAlong(address,bytes32,bytes32)": "646e4b72",
        "addFuture(bytes32,bytes32,uint64)": "e7e4859c",
        "appointOfficer(bytes32,uint8,uint40)": "7d1249db",
        "boardVoteCounting(uint256)": "83336a07",
        "castBoardVote(uint256,uint8,bytes32)": "c1be2ad6",
        "castGMVote(uint256,uint8,bytes32)": "73e65492",
        "circulateIA(address,bytes32,bytes32)": "8506c43f",
        "circulateSHA(address,bytes32,bytes32,bytes32)": "945abaf9",
        "closeDeal(address,bytes32,string)": "faf8b018",
        "closeOption(bytes32,string)": "1e0234be",
        "createBoardSeal()": "14d3cb85",
        "createCorpSeal()": "d1a0ce56",
        "createIA(uint8)": "52ef3fa0",
        "createOption(bytes32,uint40,uint64,uint64)": "f3782bd3",
        "createPledge(bytes32,bytes32,uint64,uint40,uint16,uint64)": "e50783e1",
        "createSHA(uint8)": "d9a2f90f",
        "decreaseCapital(uint32,uint64,uint64)": "c54ecfa8",
        "delPledge(bytes32)": "9fb9328e",
        "effectiveSHA(address)": "7e2b9530",
        "entrustDirectorDelegate(uint40,uint256)": "218355db",
        "entrustMemberDelegate(uint40,uint256)": "f0e4b06d",
        "execAction(uint8,address[],uint256[],bytes[],bytes32)": "7cbb4719",
        "execAntiDilution(address,bytes32,bytes32,bytes32)": "48012910",
        "execBoardAction(uint8,address[],uint256[],bytes[],bytes32)": "cd407328",
        "execDragAlong(address,bytes32,bytes32,uint64,uint64,bytes32)": "abbf6d13",
        "execFirstRefusal(uint16,uint256,address,bytes32,bytes32)": "e9e1cccc",
        "execOption(bytes32)": "b24d8e65",
        "execTagAlong(address,bytes32,bytes32,uint64,uint64,bytes32)": "9619967a",
        "finalized()": "b3f05b97",
        "getBook(uint16)": "e06eba8c",
        "getBookeeper()": "ed211023",
        "getGeneralCounsel()": "103f6edd",
        "getOwner()": "893d20e8",
        "grantRole(bytes32,uint40)": "74099815",
        "hasRole(bytes32,uint40)": "79b2ec12",
        "init(uint40,address,address,address)": "821ee8ea",
        "isKeeper(address)": "6ba42aaa",
        "issueNewShare(address,bytes32)": "b0e37185",
        "joinOptionAsObligor(bytes32)": "39f382c2",
        "lockContents()": "f045a769",
        "lockOption(bytes32,bytes32)": "3806f694",
        "nominateOfficer(bytes32,uint8,uint40)": "2167a7fc",
        "proposeBoardAction(uint8,address[],uint256[],bytes[],bytes32,uint40)": "7bce8afe",
        "proposeGMAction(uint8,address[],uint256[],bytes[],bytes32,uint40)": "d50e1a47",
        "proposeIA(address,uint8)": "abd5c142",
        "pushToCoffer(address,bytes32,bytes32,uint48)": "eec1091e",
        "quitPosition()": "bf89776d",
        "regNumHash()": "f9ee371b",
        "releasePledges(bytes32)": "5c57de79",
        "removeDirector(uint40)": "db34d934",
        "removeFuture(bytes32,bytes32)": "d33168b2",
        "removeIA(address)": "d489d887",
        "removeObligorFromOption(bytes32,uint40)": "1976b2f0",
        "removeSHA(address)": "bfb6a198",
        "renounceRole(bytes32)": "8bb9c5bf",
        "requestPaidInCapital(bytes32,string)": "04726d7a",
        "requestPledge(bytes32,bytes32,uint64)": "6dcd84f7",
        "requestToBuy(uint256,bytes32,uint40)": "142d64d9",
        "revokeDeal(address,bytes32,string)": "ae2fc750",
        "revokeOption(bytes32)": "85d578ea",
        "revokeRole(bytes32,uint40)": "17c51fec",
        "setAmtBase(bool)": "da6a43d6",
        "setBook(uint16,address)": "a303fb07",
        "setBookeeper(uint16,address)": "5a71d25b",
        "setDirectKeeper(address)": "6be8496f",
        "setGeneralCounsel(uint40)": "3178a9a9",
        "setMaxQtyOfMembers(uint8)": "1022489b",
        "setOwner(uint40)": "7ba706e8",
        "setPayInAmount(bytes32,uint64)": "5f94411d",
        "setRegNumHash(bytes32)": "a3e78f01",
        "setRoleAdmin(bytes32,uint40)": "16dc517e",
        "setTempOfBOH(address,uint8)": "735dc1e3",
        "setTempOfIA(address,uint8)": "0c4919b7",
        "setVoteBase(bool)": "bdc36f62",
        "signIA(address,bytes32)": "fa0be085",
        "signSHA(address,bytes32)": "2c425acc",
        "takeGiftShares(address,bytes32)": "8d52e292",
        "takePosition(bytes32,uint8,uint256)": "ec58d13d",
        "transferTargetShare(address,bytes32)": "6c77efee",
        "updateOracle(bytes32,uint32,uint32)": "a02b544b",
        "updatePaidInDeadline(uint32,uint32)": "d0f0ce51",
        "updatePledge(bytes32,uint40,uint48,uint64,uint64)": "c0eb9e4b",
        "voteCounting(uint256)": "f8fb9e1d",
        "withdrawPayInAmount(bytes32)": "e12388f2"
    },
    "gasEstimates": {
        "creation": {
            "codeDepositCost": "3982800",
            "executionCost": "4547",
            "totalCost": "3987347"
        },
        "external": {
            "abandonRole(bytes32)": "infinite",
            "acceptDragAlong(address,bytes32,bytes32)": "infinite",
            "acceptFirstRefusal(address,bytes32,bytes32)": "infinite",
            "acceptSHA(bytes32)": "infinite",
            "acceptTagAlong(address,bytes32,bytes32)": "infinite",
            "addFuture(bytes32,bytes32,uint64)": "infinite",
            "appointOfficer(bytes32,uint8,uint40)": "infinite",
            "boardVoteCounting(uint256)": "infinite",
            "castBoardVote(uint256,uint8,bytes32)": "infinite",
            "castGMVote(uint256,uint8,bytes32)": "infinite",
            "circulateIA(address,bytes32,bytes32)": "infinite",
            "circulateSHA(address,bytes32,bytes32,bytes32)": "infinite",
            "closeDeal(address,bytes32,string)": "infinite",
            "closeOption(bytes32,string)": "infinite",
            "createBoardSeal()": "infinite",
            "createCorpSeal()": "infinite",
            "createIA(uint8)": "infinite",
            "createOption(bytes32,uint40,uint64,uint64)": "infinite",
            "createPledge(bytes32,bytes32,uint64,uint40,uint16,uint64)": "infinite",
            "createSHA(uint8)": "infinite",
            "decreaseCapital(uint32,uint64,uint64)": "infinite",
            "delPledge(bytes32)": "infinite",
            "effectiveSHA(address)": "infinite",
            "entrustDirectorDelegate(uint40,uint256)": "infinite",
            "entrustMemberDelegate(uint40,uint256)": "infinite",
            "execAction(uint8,address[],uint256[],bytes[],bytes32)": "infinite",
            "execAntiDilution(address,bytes32,bytes32,bytes32)": "infinite",
            "execBoardAction(uint8,address[],uint256[],bytes[],bytes32)": "infinite",
            "execDragAlong(address,bytes32,bytes32,uint64,uint64,bytes32)": "infinite",
            "execFirstRefusal(uint16,uint256,address,bytes32,bytes32)": "infinite",
            "execOption(bytes32)": "infinite",
            "execTagAlong(address,bytes32,bytes32,uint64,uint64,bytes32)": "infinite",
            "finalized()": "2417",
            "getBook(uint16)": "2663",
            "getBookeeper()": "infinite",
            "getGeneralCounsel()": "infinite",
            "getOwner()": "infinite",
            "grantRole(bytes32,uint40)": "infinite",
            "hasRole(bytes32,uint40)": "infinite",
            "init(uint40,address,address,address)": "infinite",
            "isKeeper(address)": "infinite",
            "issueNewShare(address,bytes32)": "infinite",
            "joinOptionAsObligor(bytes32)": "infinite",
            "lockContents()": "infinite",
            "lockOption(bytes32,bytes32)": "infinite",
            "nominateOfficer(bytes32,uint8,uint40)": "infinite",
            "proposeBoardAction(uint8,address[],uint256[],bytes[],bytes32,uint40)": "infinite",
            "proposeGMAction(uint8,address[],uint256[],bytes[],bytes32,uint40)": "infinite",
            "proposeIA(address,uint8)": "infinite",
            "pushToCoffer(address,bytes32,bytes32,uint48)": "infinite",
            "quitPosition()": "infinite",
            "regNumHash()": "2427",
            "releasePledges(bytes32)": "infinite",
            "removeDirector(uint40)": "infinite",
            "removeFuture(bytes32,bytes32)": "infinite",
            "removeIA(address)": "infinite",
            "removeObligorFromOption(bytes32,uint40)": "infinite",
            "removeSHA(address)": "infinite",
            "renounceRole(bytes32)": "infinite",
            "requestPaidInCapital(bytes32,string)": "infinite",
            "requestPledge(bytes32,bytes32,uint64)": "infinite",
            "requestToBuy(uint256,bytes32,uint40)": "infinite",
            "revokeDeal(address,bytes32,string)": "infinite",
            "revokeOption(bytes32)": "infinite",
            "revokeRole(bytes32,uint40)": "infinite",
            "setAmtBase(bool)": "infinite",
            "setBook(uint16,address)": "infinite",
            "setBookeeper(uint16,address)": "infinite",
            "setDirectKeeper(address)": "infinite",
            "setGeneralCounsel(uint40)": "infinite",
            "setMaxQtyOfMembers(uint8)": "infinite",
            "setOwner(uint40)": "infinite",
            "setPayInAmount(bytes32,uint64)": "infinite",
            "setRegNumHash(bytes32)": "infinite",
            "setRoleAdmin(bytes32,uint40)": "infinite",
            "setTempOfBOH(address,uint8)": "infinite",
            "setTempOfIA(address,uint8)": "infinite",
            "setVoteBase(bool)": "infinite",
            "signIA(address,bytes32)": "infinite",
            "signSHA(address,bytes32)": "infinite",
            "takeGiftShares(address,bytes32)": "infinite",
            "takePosition(bytes32,uint8,uint256)": "infinite",
            "transferTargetShare(address,bytes32)": "infinite",
            "updateOracle(bytes32,uint32,uint32)": "infinite",
            "updatePaidInDeadline(uint32,uint32)": "infinite",
            "updatePledge(bytes32,uint40,uint48,uint64,uint64)": "infinite",
            "voteCounting(uint256)": "infinite",
            "withdrawPayInAmount(bytes32)": "infinite"
        }
    }
}