{
    "contractName": "SHAKeeper",
    "abi": [
        {
            "anonymous": false,
            "inputs": [
                {
                    "indexed": true,
                    "internalType": "address",
                    "name": "owner",
                    "type": "address"
                },
                {
                    "indexed": true,
                    "internalType": "address",
                    "name": "directKeeper",
                    "type": "address"
                },
                {
                    "indexed": false,
                    "internalType": "address",
                    "name": "regCenter",
                    "type": "address"
                },
                {
                    "indexed": true,
                    "internalType": "address",
                    "name": "generalKeeper",
                    "type": "address"
                }
            ],
            "name": "Init",
            "type": "event"
        },
        {
            "anonymous": false,
            "inputs": [],
            "name": "LockContents",
            "type": "event"
        },
        {
            "anonymous": false,
            "inputs": [
                {
                    "indexed": true,
                    "internalType": "address",
                    "name": "keeper",
                    "type": "address"
                }
            ],
            "name": "SetDirectKeeper",
            "type": "event"
        },
        {
            "anonymous": false,
            "inputs": [
                {
                    "indexed": true,
                    "internalType": "address",
                    "name": "acct",
                    "type": "address"
                }
            ],
            "name": "SetOwner",
            "type": "event"
        },
        {
            "anonymous": false,
            "inputs": [
                {
                    "indexed": true,
                    "internalType": "bytes32",
                    "name": "role",
                    "type": "bytes32"
                },
                {
                    "indexed": true,
                    "internalType": "address",
                    "name": "acct",
                    "type": "address"
                }
            ],
            "name": "SetRoleAdmin",
            "type": "event"
        },
        {
            "inputs": [
                {
                    "internalType": "bytes32",
                    "name": "role",
                    "type": "bytes32"
                }
            ],
            "name": "abandonRole",
            "outputs": [],
            "stateMutability": "nonpayable",
            "type": "function"
        },
        {
            "inputs": [
                {
                    "internalType": "address",
                    "name": "ia",
                    "type": "address"
                },
                {
                    "internalType": "uint256",
                    "name": "seqOfDeal",
                    "type": "uint256"
                },
                {
                    "internalType": "uint256",
                    "name": "seqOfShare",
                    "type": "uint256"
                },
                {
                    "internalType": "uint256",
                    "name": "caller",
                    "type": "uint256"
                },
                {
                    "internalType": "bytes32",
                    "name": "sigHash",
                    "type": "bytes32"
                }
            ],
            "name": "acceptAlongDeal",
            "outputs": [],
            "stateMutability": "nonpayable",
            "type": "function"
        },
        {
            "inputs": [
                {
                    "internalType": "address",
                    "name": "ia",
                    "type": "address"
                },
                {
                    "internalType": "uint256",
                    "name": "seqOfDeal",
                    "type": "uint256"
                },
                {
                    "internalType": "uint256",
                    "name": "caller",
                    "type": "uint256"
                },
                {
                    "internalType": "bytes32",
                    "name": "sigHash",
                    "type": "bytes32"
                }
            ],
            "name": "acceptFirstRefusal",
            "outputs": [],
            "stateMutability": "nonpayable",
            "type": "function"
        },
        {
            "inputs": [
                {
                    "internalType": "address",
                    "name": "ia",
                    "type": "address"
                },
                {
                    "internalType": "uint256",
                    "name": "seqOfDeal",
                    "type": "uint256"
                },
                {
                    "internalType": "bool",
                    "name": "dragAlong",
                    "type": "bool"
                },
                {
                    "internalType": "uint256",
                    "name": "seqOfShare",
                    "type": "uint256"
                },
                {
                    "internalType": "uint256",
                    "name": "paid",
                    "type": "uint256"
                },
                {
                    "internalType": "uint256",
                    "name": "par",
                    "type": "uint256"
                },
                {
                    "internalType": "uint256",
                    "name": "caller",
                    "type": "uint256"
                },
                {
                    "internalType": "bytes32",
                    "name": "sigHash",
                    "type": "bytes32"
                }
            ],
            "name": "execAlongRight",
            "outputs": [],
            "stateMutability": "nonpayable",
            "type": "function"
        },
        {
            "inputs": [
                {
                    "internalType": "address",
                    "name": "ia",
                    "type": "address"
                },
                {
                    "internalType": "uint256",
                    "name": "seqOfDeal",
                    "type": "uint256"
                },
                {
                    "internalType": "uint256",
                    "name": "seqOfShare",
                    "type": "uint256"
                },
                {
                    "internalType": "uint256",
                    "name": "caller",
                    "type": "uint256"
                },
                {
                    "internalType": "bytes32",
                    "name": "sigHash",
                    "type": "bytes32"
                }
            ],
            "name": "execAntiDilution",
            "outputs": [],
            "stateMutability": "nonpayable",
            "type": "function"
        },
        {
            "inputs": [
                {
                    "internalType": "uint256",
                    "name": "seqOfFRRule",
                    "type": "uint256"
                },
                {
                    "internalType": "uint256",
                    "name": "seqOfRightholder",
                    "type": "uint256"
                },
                {
                    "internalType": "address",
                    "name": "ia",
                    "type": "address"
                },
                {
                    "internalType": "uint256",
                    "name": "seqOfDeal",
                    "type": "uint256"
                },
                {
                    "internalType": "uint256",
                    "name": "caller",
                    "type": "uint256"
                },
                {
                    "internalType": "bytes32",
                    "name": "sigHash",
                    "type": "bytes32"
                }
            ],
            "name": "execFirstRefusal",
            "outputs": [],
            "stateMutability": "nonpayable",
            "type": "function"
        },
        {
            "inputs": [],
            "name": "getDK",
            "outputs": [
                {
                    "internalType": "address",
                    "name": "",
                    "type": "address"
                }
            ],
            "stateMutability": "view",
            "type": "function"
        },
        {
            "inputs": [],
            "name": "getOwner",
            "outputs": [
                {
                    "internalType": "address",
                    "name": "",
                    "type": "address"
                }
            ],
            "stateMutability": "view",
            "type": "function"
        },
        {
            "inputs": [
                {
                    "internalType": "bytes32",
                    "name": "role",
                    "type": "bytes32"
                }
            ],
            "name": "getRoleAdmin",
            "outputs": [
                {
                    "internalType": "address",
                    "name": "",
                    "type": "address"
                }
            ],
            "stateMutability": "view",
            "type": "function"
        },
        {
            "inputs": [
                {
                    "internalType": "bytes32",
                    "name": "role",
                    "type": "bytes32"
                },
                {
                    "internalType": "address",
                    "name": "acct",
                    "type": "address"
                }
            ],
            "name": "grantRole",
            "outputs": [],
            "stateMutability": "nonpayable",
            "type": "function"
        },
        {
            "inputs": [
                {
                    "internalType": "bytes32",
                    "name": "role",
                    "type": "bytes32"
                },
                {
                    "internalType": "address",
                    "name": "acct",
                    "type": "address"
                }
            ],
            "name": "hasRole",
            "outputs": [
                {
                    "internalType": "bool",
                    "name": "",
                    "type": "bool"
                }
            ],
            "stateMutability": "view",
            "type": "function"
        },
        {
            "inputs": [
                {
                    "internalType": "address",
                    "name": "owner",
                    "type": "address"
                },
                {
                    "internalType": "address",
                    "name": "directKeeper",
                    "type": "address"
                },
                {
                    "internalType": "address",
                    "name": "regCenter",
                    "type": "address"
                },
                {
                    "internalType": "address",
                    "name": "generalKeeper",
                    "type": "address"
                }
            ],
            "name": "init",
            "outputs": [],
            "stateMutability": "nonpayable",
            "type": "function"
        },
        {
            "inputs": [],
            "name": "isFinalized",
            "outputs": [
                {
                    "internalType": "bool",
                    "name": "",
                    "type": "bool"
                }
            ],
            "stateMutability": "view",
            "type": "function"
        },
        {
            "inputs": [],
            "name": "lockContents",
            "outputs": [],
            "stateMutability": "nonpayable",
            "type": "function"
        },
        {
            "inputs": [
                {
                    "internalType": "bytes32",
                    "name": "role",
                    "type": "bytes32"
                }
            ],
            "name": "renounceRole",
            "outputs": [],
            "stateMutability": "nonpayable",
            "type": "function"
        },
        {
            "inputs": [
                {
                    "internalType": "bytes32",
                    "name": "role",
                    "type": "bytes32"
                },
                {
                    "internalType": "address",
                    "name": "acct",
                    "type": "address"
                }
            ],
            "name": "revokeRole",
            "outputs": [],
            "stateMutability": "nonpayable",
            "type": "function"
        },
        {
            "inputs": [
                {
                    "internalType": "address",
                    "name": "acct",
                    "type": "address"
                }
            ],
            "name": "setDirectKeeper",
            "outputs": [],
            "stateMutability": "nonpayable",
            "type": "function"
        },
        {
            "inputs": [
                {
                    "internalType": "address",
                    "name": "acct",
                    "type": "address"
                }
            ],
            "name": "setOwner",
            "outputs": [],
            "stateMutability": "nonpayable",
            "type": "function"
        },
        {
            "inputs": [
                {
                    "internalType": "bytes32",
                    "name": "role",
                    "type": "bytes32"
                },
                {
                    "internalType": "address",
                    "name": "acct",
                    "type": "address"
                }
            ],
            "name": "setRoleAdmin",
            "outputs": [],
            "stateMutability": "nonpayable",
            "type": "function"
        },
        {
            "inputs": [
                {
                    "internalType": "address",
                    "name": "target",
                    "type": "address"
                }
            ],
            "name": "takeBackKeys",
            "outputs": [],
            "stateMutability": "nonpayable",
            "type": "function"
        },
        {
            "inputs": [
                {
                    "internalType": "address",
                    "name": "ia",
                    "type": "address"
                },
                {
                    "internalType": "uint256",
                    "name": "seqOfDeal",
                    "type": "uint256"
                },
                {
                    "internalType": "uint256",
                    "name": "caller",
                    "type": "uint256"
                }
            ],
            "name": "takeGiftShares",
            "outputs": [],
            "stateMutability": "nonpayable",
            "type": "function"
        }
    ],
    "bytecode": "608060405234801561001057600080fd5b50615294806100206000396000f3fe608060405234801561001057600080fd5b50600436106101375760003560e01c80636be8496f116100b8578063ad7631921161007c578063ad76319214610279578063c65511d81461028c578063d547741f1461029f578063f045a769146102b2578063f51147e3146102ba578063f61bf284146102cd57600080fd5b80636be8496f14610217578063893d20e81461022a5780638bb9c5bf146102325780638d4e40831461024557806391d148541461026657600080fd5b80633da9a600116100ff5780633da9a600146101ba57806340b6c23e146101cd57806350627aea146101e057806358677418146101f1578063651c7b081461020457600080fd5b806306552ff31461013c57806313af403514610151578063248a9ca3146101645780632f2ff15d14610194578063325508d5146101a7575b600080fd5b61014f61014a3660046143a2565b6102e0565b005b61014f61015f3660046143fe565b6103cf565b61017761017236600461441b565b61047e565b6040516001600160a01b0390911681526020015b60405180910390f35b61014f6101a2366004614434565b610511565b61014f6101b5366004614464565b610583565b61014f6101c836600461441b565b610b31565b61014f6101db3660046143fe565b610ba5565b6002546001600160a01b0316610177565b61014f6101ff3660046144a8565b610c24565b61014f6102123660046144eb565b61102e565b61014f6102253660046143fe565b611505565b610177611579565b61014f61024036600461441b565b611604565b600054600160a01b900460ff166002145b604051901515815260200161018b565b610256610274366004614434565b611649565b61014f610287366004614434565b6116ec565b61014f61029a366004614559565b611794565b61014f6102ad366004614434565b611f1c565b61014f611f5a565b61014f6102c8366004614464565b6120eb565b61014f6102db3660046145ac565b6127a4565b60405163013faf4960e71b8152600060048201526001600160a01b038516602482015273__$a374c895e6fa8c448878668e00d93ef99a$__90639fd7a4809060440160006040518083038186803b15801561033a57600080fd5b505af415801561034e573d6000803e3d6000fd5b5050600280546001600160a01b038781166001600160a01b0319928316811790935560038054888316908416811790915560048054888416941684179055604051908152919450919250908716907f11e5c44db2defe55dea9656ae7848e94dc9f3e66eb342a7b84547a68d31c393a9060200160405180910390a450505050565b6040516351e7e80560e01b8152600060048201526001600160a01b038216602482015233604482015273__$a374c895e6fa8c448878668e00d93ef99a$__906351e7e8059060640160006040518083038186803b15801561042f57600080fd5b505af4158015610443573d6000803e3d6000fd5b50506040516001600160a01b03841692507f167d3e9c1016ab80e58802ca9da10ce5c6a0f4debc46a2e7a2cd9e56899a4fb59150600090a250565b604051639423dd0560e01b8152600060048201819052602482018390529073__$a374c895e6fa8c448878668e00d93ef99a$__90639423dd059060440160206040518083038186803b1580156104d357600080fd5b505af41580156104e7573d6000803e3d6000fd5b505050506040513d601f19601f8201168201806040525081019061050b91906145e7565b92915050565b604051633d3c5d2760e01b815273__$a374c895e6fa8c448878668e00d93ef99a$__90633d3c5d279061054f90600090869086903390600401614604565b60006040518083038186803b15801561056757600080fd5b505af415801561057b573d6000803e3d6000fd5b505050505050565b6002546001600160a01b031633146105b65760405162461bcd60e51b81526004016105ad9061462b565b60405180910390fd5b846105c96004546001600160a01b031690565b6001600160a01b0316630771d84e6040518163ffffffff1660e01b815260040160206040518083038186803b15801561060157600080fd5b505afa158015610615573d6000803e3d6000fd5b505050506040513d601f19601f8201168201806040525081019061063991906145e7565b604051632398074f60e21b81526001600160a01b0383811660048301529190911690638e601d3c9060240160206040518083038186803b15801561067c57600080fd5b505afa158015610690573d6000803e3d6000fd5b505050506040513d601f19601f820116820180604052508101906106b4919061466e565b65ffffffffffff1642106106da5760405162461bcd60e51b81526004016105ad90614689565b60006106ee6004546001600160a01b031690565b90506000816001600160a01b031663f01e100f6040518163ffffffff1660e01b815260040160206040518083038186803b15801561072b57600080fd5b505afa15801561073f573d6000803e3d6000fd5b505050506040513d601f19601f8201168201806040525081019061076391906145e7565b6001600160a01b031663cfb5a5f8876040518263ffffffff1660e01b815260040161079091815260200190565b6101e06040518083038186803b1580156107a957600080fd5b505afa1580156107bd573d6000803e3d6000fd5b505050506040513d601f19601f820116820180604052508101906107e191906148b7565b80516080015190915064ffffffffff16851461083f5760405162461bcd60e51b815260206004820152601960248201527f5348414b2e4541443a206e6f74207368617265686f6c6465720000000000000060448201526064016105ad565b604051631c37ef3d60e21b8152600481018690526001600160a01b038916906370dfbcf49060240160206040518083038186803b15801561087f57600080fd5b505afa158015610893573d6000803e3d6000fd5b505050506040513d601f19601f820116820180604052508101906108b791906149a9565b156109045760405162461bcd60e51b815260206004820152601760248201527f5348414b2e4541443a20697320496e69745369676e657200000000000000000060448201526064016105ad565b6000826001600160a01b031663a61adc286040518163ffffffff1660e01b815260040160206040518083038186803b15801561093f57600080fd5b505afa158015610953573d6000803e3d6000fd5b505050506040513d601f19601f8201168201806040525081019061097791906145e7565b60405163346ba94160e01b8152600160048201526001600160a01b03919091169063346ba9419060240160206040518083038186803b1580156109b957600080fd5b505afa1580156109cd573d6000803e3d6000fd5b505050506040513d601f19601f820116820180604052508101906109f191906145e7565b604051630cfc4a8360e31b81526001600160a01b038b81166004830152602482018b9052604482018a90529192506000918316906367e254189060640160206040518083038186803b158015610a4657600080fd5b505afa158015610a5a573d6000803e3d6000fd5b505050506040513d601f19601f82011682018060405250810190610a7e91906149dc565b8351604090810151905163a31da53b60e01b815261ffff90911660048201529091506000906001600160a01b0384169063a31da53b9060240160006040518083038186803b158015610acf57600080fd5b505afa158015610ae3573d6000803e3d6000fd5b505050506040513d6000823e601f3d908101601f19168201604052610b0b9190810190614a1a565b9050610b248b8b846001600160401b0316848c8c612da1565b5050505050505050505050565b60405163bf2755e360e01b8152600060048201526024810182905233604482015273__$a374c895e6fa8c448878668e00d93ef99a$__9063bf2755e3906064015b60006040518083038186803b158015610b8a57600080fd5b505af4158015610b9e573d6000803e3d6000fd5b5050505050565b6002546001600160a01b03163314610bcf5760405162461bcd60e51b81526004016105ad9061462b565b604051636be8496f60e01b81523360048201526001600160a01b03821690636be8496f90602401600060405180830381600087803b158015610c1057600080fd5b505af1158015610b9e573d6000803e3d6000fd5b6002546001600160a01b03163314610c4e5760405162461bcd60e51b81526004016105ad9061462b565b6000610c626004546001600160a01b031690565b90506000816001600160a01b031663f01e100f6040518163ffffffff1660e01b815260040160206040518083038186803b158015610c9f57600080fd5b505afa158015610cb3573d6000803e3d6000fd5b505050506040513d601f19601f82011682018060405250810190610cd791906145e7565b6040516320bf56eb60e21b8152600481018690529091506000906001600160a01b038716906382fd5bac906024016102606040518083038186803b158015610d1e57600080fd5b505afa158015610d32573d6000803e3d6000fd5b505050506040513d601f19601f82011682018060405250810190610d569190614b78565b60208101515190915064ffffffffff168414610daa5760405162461bcd60e51b815260206004820152601360248201527231b0b63632b91034b9903737ba10313abcb2b960691b60448201526064016105ad565b60405163122ec47f60e31b8152600481018690526001600160a01b0387169063917623f890602401602060405180830381600087803b158015610dec57600080fd5b505af1158015610e00573d6000803e3d6000fd5b505050506040513d601f19601f82011682018060405250810190610e2491906149a9565b15610eff57826001600160a01b0316630771d84e6040518163ffffffff1660e01b815260040160206040518083038186803b158015610e6257600080fd5b505afa158015610e76573d6000803e3d6000fd5b505050506040513d601f19601f82011682018060405250810190610e9a91906145e7565b604051634c6a94cb60e01b81526001600160a01b038881166004830152600760248301529190911690634c6a94cb90604401600060405180830381600087803b158015610ee657600080fd5b505af1158015610efa573d6000803e3d6000fd5b505050505b8051608001516020820151604090810151905163ccdddd4160e01b815263ffffffff90921660048301526001600160401b031660248201526001600160a01b0383169063ccdddd4190604401600060405180830381600087803b158015610f6557600080fd5b505af1158015610f79573d6000803e3d6000fd5b50508251608001516020840151604080820151606083015192519151632b91fe9560e21b815263ffffffff90941660048501526001600160401b039081166024850152909116604483015264ffffffffff16606482015260006084820181905260a48201526001600160a01b038516925063ae47fa54915060c401600060405180830381600087803b15801561100e57600080fd5b505af1158015611022573d6000803e3d6000fd5b50505050505050505050565b6002546001600160a01b031633146110585760405162461bcd60e51b81526004016105ad9061462b565b8761106b6004546001600160a01b031690565b6001600160a01b0316630771d84e6040518163ffffffff1660e01b815260040160206040518083038186803b1580156110a357600080fd5b505afa1580156110b7573d6000803e3d6000fd5b505050506040513d601f19601f820116820180604052508101906110db91906145e7565b604051632398074f60e21b81526001600160a01b0383811660048301529190911690638e601d3c9060240160206040518083038186803b15801561111e57600080fd5b505afa158015611132573d6000803e3d6000fd5b505050506040513d601f19601f82011682018060405250810190611156919061466e565b65ffffffffffff16421061117c5760405162461bcd60e51b81526004016105ad90614689565b60006111906004546001600160a01b031690565b90506000816001600160a01b0316630771d84e6040518163ffffffff1660e01b815260040160206040518083038186803b1580156111cd57600080fd5b505afa1580156111e1573d6000803e3d6000fd5b505050506040513d601f19601f8201168201806040525081019061120591906145e7565b6040516320bf56eb60e21b8152600481018c90529091506000906001600160a01b038d16906382fd5bac906024016102606040518083038186803b15801561124c57600080fd5b505afa158015611260573d6000803e3d6000fd5b505050506040513d601f19601f820116820180604052508101906112849190614b78565b90506000836001600160a01b031663f01e100f6040518163ffffffff1660e01b815260040160206040518083038186803b1580156112c157600080fd5b505afa1580156112d5573d6000803e3d6000fd5b505050506040513d601f19601f820116820180604052508101906112f991906145e7565b6001600160a01b031663cfb5a5f88b6040518263ffffffff1660e01b815260040161132691815260200190565b6101e06040518083038186803b15801561133f57600080fd5b505afa158015611353573d6000803e3d6000fd5b505050506040513d601f19601f8201168201806040525081019061137791906148b7565b60208301516080015190915060ff166001146113df5760405162461bcd60e51b815260206004820152602160248201527f5348414b2e65786563416c6f6e67733a207374617465206e6f74204c6f636b656044820152601960fa1b60648201526084016105ad565b6040516332277b1160e01b81526001600160a01b038e811660048301528416906332277b1190602401602060405180830381600087803b15801561142257600080fd5b505af1158015611436573d6000803e3d6000fd5b505050506040513d601f19601f8201168201806040525081019061145a91906149a9565b506114688b8e84848b613051565b604051630b44c60160e01b81526001600160a01b038e811660048301528c15156024830152604482018e9052606482018c9052608482018b905260a482018a905260c4820189905260e48201889052841690630b44c6019061010401600060405180830381600087803b1580156114de57600080fd5b505af11580156114f2573d6000803e3d6000fd5b5050505050505050505050505050505050565b6002546001600160a01b0316331461152f5760405162461bcd60e51b81526004016105ad9061462b565b600280546001600160a01b0319166001600160a01b0383169081179091556040517fe435cbeab64e4eae6497b9d8289704bd709d624a80704ef3ca9af777534bc6ec90600090a250565b6040516394916c4760e01b81526000600482018190529073__$a374c895e6fa8c448878668e00d93ef99a$__906394916c479060240160206040518083038186803b1580156115c757600080fd5b505af41580156115db573d6000803e3d6000fd5b505050506040513d601f19601f820116820180604052508101906115ff91906145e7565b905090565b604051632d16622360e11b8152600060048201526024810182905233604482015273__$a374c895e6fa8c448878668e00d93ef99a$__90635a2cc44690606401610b72565b604051632c7ebf7360e01b8152600060048201819052602482018490526001600160a01b03831660448301529073__$a374c895e6fa8c448878668e00d93ef99a$__90632c7ebf739060640160206040518083038186803b1580156116ad57600080fd5b505af41580156116c1573d6000803e3d6000fd5b505050506040513d601f19601f820116820180604052508101906116e591906149a9565b9392505050565b60405163f17b815160e01b815273__$a374c895e6fa8c448878668e00d93ef99a$__9063f17b81519061172a90600090869086903390600401614604565b60006040518083038186803b15801561174257600080fd5b505af4158015611756573d6000803e3d6000fd5b50506040516001600160a01b03841692508491507fc58ebc6bc4ca6dc8356357e625ffa0eb58d0db30d94a31a80a840e1cc74d2df990600090a35050565b6002546001600160a01b031633146117be5760405162461bcd60e51b81526004016105ad9061462b565b836117d16004546001600160a01b031690565b6001600160a01b0316630771d84e6040518163ffffffff1660e01b815260040160206040518083038186803b15801561180957600080fd5b505afa15801561181d573d6000803e3d6000fd5b505050506040513d601f19601f8201168201806040525081019061184191906145e7565b604051632398074f60e21b81526001600160a01b0383811660048301529190911690638e601d3c9060240160206040518083038186803b15801561188457600080fd5b505afa158015611898573d6000803e3d6000fd5b505050506040513d601f19601f820116820180604052508101906118bc919061466e565b65ffffffffffff1642106118e25760405162461bcd60e51b81526004016105ad90614689565b60006118f66004546001600160a01b031690565b6040516351b171a360e01b815260016004820152602481018690529091506001600160a01b038716906351b171a39060440160206040518083038186803b15801561194057600080fd5b505afa158015611954573d6000803e3d6000fd5b505050506040513d601f19601f8201168201806040525081019061197891906149a9565b156119c55760405162461bcd60e51b815260206004820152601d60248201527f5348414b2e4546523a206672436c61696d65722069732073656c6c657200000060448201526064016105ad565b60405163cdf4b38760e01b8152600481018690526000906001600160a01b0388169063cdf4b387906024016101406040518083038186803b158015611a0957600080fd5b505afa158015611a1d573d6000803e3d6000fd5b505050506040513d601f19601f82011682018060405250810190611a419190614c68565b90506000826001600160a01b031663a61adc286040518163ffffffff1660e01b815260040160206040518083038186803b158015611a7e57600080fd5b505afa158015611a92573d6000803e3d6000fd5b505050506040513d601f19601f82011682018060405250810190611ab691906145e7565b6001600160a01b031663484620378b6040518263ffffffff1660e01b8152600401611ae391815260200190565b60206040518083038186803b158015611afb57600080fd5b505afa158015611b0f573d6000803e3d6000fd5b505050506040513d601f19601f82011682018060405250810190611b339190614c85565b6040516375d6f2ff60e11b8152600481019190915273__$fd7bbdaedbcbc33e1887256b0ab47b2b43$__9063ebade5fe906024016101a06040518083038186803b158015611b8057600080fd5b505af4158015611b94573d6000803e3d6000fd5b505050506040513d601f19601f82011682018060405250810190611bb89190614d12565b9050816000015160ff16816060015160ff1614611c295760405162461bcd60e51b815260206004820152602960248201527f5348414b2e4546523a2072756c6520616e64206465616c20617265206e6f742060448201526873616d65207479706560b81b60648201526084016105ad565b80608001518015611d235750826001600160a01b03166333fb96ee6040518163ffffffff1660e01b815260040160206040518083038186803b158015611c6e57600080fd5b505afa158015611c82573d6000803e3d6000fd5b505050506040513d601f19601f82011682018060405250810190611ca691906145e7565b6001600160a01b031663d50c7377876040518263ffffffff1660e01b8152600401611cd391815260200190565b60206040518083038186803b158015611ceb57600080fd5b505afa158015611cff573d6000803e3d6000fd5b505050506040513d601f19601f82011682018060405250810190611d2391906149a9565b80611d4e5750858160e001518a60048110611d4057611d40614ddd565b602002015164ffffffffff16145b611d9a5760405162461bcd60e51b815260206004820181905260248201527f5348414b2e4546523a2063616c6c6572204e4f54207269676874686f6c64657260448201526064016105ad565b826001600160a01b0316630771d84e6040518163ffffffff1660e01b815260040160206040518083038186803b158015611dd357600080fd5b505afa158015611de7573d6000803e3d6000fd5b505050506040513d601f19601f82011682018060405250810190611e0b91906145e7565b60405163fb255fcd60e01b81526001600160a01b038a81166004830152602482018a90526044820189905260648201889052919091169063fb255fcd90608401602060405180830381600087803b158015611e6557600080fd5b505af1158015611e79573d6000803e3d6000fd5b505050506040513d601f19601f82011682018060405250810190611e9d91906149a9565b1561102257604051637b019deb60e01b8152600481018890526001600160a01b03891690637b019deb90602401602060405180830381600087803b158015611ee457600080fd5b505af1158015611ef8573d6000803e3d6000fd5b505050506040513d601f19601f82011682018060405250810190610b2491906149a9565b60405163303b779f60e01b815273__$a374c895e6fa8c448878668e00d93ef99a$__9063303b779f9061054f90600090869086903390600401614604565b600054600160a01b900460ff16600114611fb65760405162461bcd60e51b815260206004820152601c60248201527f41432e6c6f636b436f6e74656e74733a2077726f6e672073746174650000000060448201526064016105ad565b60405163bf2755e360e01b815260006004820152684174746f726e65797360b81b602482015233604482018190529073__$a374c895e6fa8c448878668e00d93ef99a$__9063bf2755e39060640160006040518083038186803b15801561201c57600080fd5b505af4158015612030573d6000803e3d6000fd5b50506040516351e7e80560e01b815260006004820181905260248201526001600160a01b038416604482015273__$a374c895e6fa8c448878668e00d93ef99a$__92506351e7e805915060640160006040518083038186803b15801561209557600080fd5b505af41580156120a9573d6000803e3d6000fd5b50506000805460ff60a01b1916600160a11b1781556040517f35012b512309c322acf68632cd6cb702ff0e1d776fbe9394e38ffc13b434fe759350909150a150565b6002546001600160a01b031633146121155760405162461bcd60e51b81526004016105ad9061462b565b846121286004546001600160a01b031690565b6001600160a01b0316630771d84e6040518163ffffffff1660e01b815260040160206040518083038186803b15801561216057600080fd5b505afa158015612174573d6000803e3d6000fd5b505050506040513d601f19601f8201168201806040525081019061219891906145e7565b604051632398074f60e21b81526001600160a01b0383811660048301529190911690638e601d3c9060240160206040518083038186803b1580156121db57600080fd5b505afa1580156121ef573d6000803e3d6000fd5b505050506040513d601f19601f82011682018060405250810190612213919061466e565b65ffffffffffff1642101561226a5760405162461bcd60e51b815260206004820152601a60248201527f7374696c6c2077697468696e2072657669657720706572696f6400000000000060448201526064016105ad565b600061227e6004546001600160a01b031690565b90506000816001600160a01b0316630771d84e6040518163ffffffff1660e01b815260040160206040518083038186803b1580156122bb57600080fd5b505afa1580156122cf573d6000803e3d6000fd5b505050506040513d601f19601f820116820180604052508101906122f391906145e7565b604051631b0ec68f60e21b81526001600160a01b038a8116600483015291925090821690636c3b1a3c9060240160206040518083038186803b15801561233857600080fd5b505afa15801561234c573d6000803e3d6000fd5b505050506040513d601f19601f82011682018060405250810190612370919061466e565b65ffffffffffff1642106123dd5760405162461bcd60e51b815260206004820152602e60248201527f5348414b2e616363657074416c6f6e674465616c3a206d69737365642070726f60448201526d706f73616c20646561646c696e6560901b60648201526084016105ad565b6040516320bf56eb60e21b8152600481018890526000906001600160a01b038a16906382fd5bac906024016102606040518083038186803b15801561242157600080fd5b505afa158015612435573d6000803e3d6000fd5b505050506040513d601f19601f820116820180604052508101906124599190614b78565b60208101515190915064ffffffffff1686146124ad5760405162461bcd60e51b815260206004820152601360248201527229a420a59720a0a21d103737ba10313abcb2b960691b60448201526064016105ad565b60208101516080015160ff166001141561279957604051630fc89eeb60e01b81526001600160a01b038a81166004830152602482018a90526044820189905260009190841690630fc89eeb9060640160e06040518083038186803b15801561251457600080fd5b505afa158015612528573d6000803e3d6000fd5b505050506040513d601f19601f8201168201806040525081019061254c9190614df3565b90506000846001600160a01b031663f01e100f6040518163ffffffff1660e01b815260040160206040518083038186803b15801561258957600080fd5b505afa15801561259d573d6000803e3d6000fd5b505050506040513d601f19601f820116820180604052508101906125c191906145e7565b6001600160a01b031663cfb5a5f88a6040518263ffffffff1660e01b81526004016125ee91815260200190565b6101e06040518083038186803b15801561260757600080fd5b505afa15801561261b573d6000803e3d6000fd5b505050506040513d601f19601f8201168201806040525081019061263f91906148b7565b9050600061264f8c848685613898565b608084015160a085015160c08601516040516329014b6d60e21b81526004810185905264ffffffffff909316602484015265ffffffffffff909116604483015260648201529091506001600160a01b038d169063a4052db490608401602060405180830381600087803b1580156126c557600080fd5b505af11580156126d9573d6000803e3d6000fd5b505050506040513d601f19601f820116820180604052508101906126fd91906149a9565b506040516329014b6d60e21b815260048101829052602481018a905265ffffffffffff42166044820152606481018990526001600160a01b038d169063a4052db490608401602060405180830381600087803b15801561275c57600080fd5b505af1158015612770573d6000803e3d6000fd5b505050506040513d601f19601f8201168201806040525081019061279491906149a9565b505050505b505050505050505050565b6002546001600160a01b031633146127ce5760405162461bcd60e51b81526004016105ad9061462b565b836127e16004546001600160a01b031690565b6001600160a01b0316630771d84e6040518163ffffffff1660e01b815260040160206040518083038186803b15801561281957600080fd5b505afa15801561282d573d6000803e3d6000fd5b505050506040513d601f19601f8201168201806040525081019061285191906145e7565b604051632398074f60e21b81526001600160a01b0383811660048301529190911690638e601d3c9060240160206040518083038186803b15801561289457600080fd5b505afa1580156128a8573d6000803e3d6000fd5b505050506040513d601f19601f820116820180604052508101906128cc919061466e565b65ffffffffffff164210156129235760405162461bcd60e51b815260206004820152601a60248201527f7374696c6c2077697468696e2072657669657720706572696f6400000000000060448201526064016105ad565b60006129376004546001600160a01b031690565b90506000816001600160a01b03166333fb96ee6040518163ffffffff1660e01b815260040160206040518083038186803b15801561297457600080fd5b505afa158015612988573d6000803e3d6000fd5b505050506040513d601f19601f820116820180604052508101906129ac91906145e7565b6040516320bf56eb60e21b8152600481018890529091506000906001600160a01b038916906382fd5bac906024016102606040518083038186803b1580156129f357600080fd5b505afa158015612a07573d6000803e3d6000fd5b505050506040513d601f19601f82011682018060405250810190612a2b9190614b78565b80515190915060ff1660011415612b8b57816001600160a01b031663984199286040518163ffffffff1660e01b815260040160206040518083038186803b158015612a7557600080fd5b505afa158015612a89573d6000803e3d6000fd5b505050506040513d601f19601f82011682018060405250810190612aad9190614e9e565b64ffffffffff16826001600160a01b031663605c5ec6886040518263ffffffff1660e01b8152600401612ae291815260200190565b60206040518083038186803b158015612afa57600080fd5b505afa158015612b0e573d6000803e3d6000fd5b505050506040513d601f19601f82011682018060405250810190612b329190614e9e565b64ffffffffff1614612b865760405162461bcd60e51b815260206004820152601860248201527f5348414b2e4146523a206e6f7420636f6e74726f6c6c6572000000000000000060448201526064016105ad565b612be6565b805160a0015164ffffffffff168614612be65760405162461bcd60e51b815260206004820152601a60248201527f5348414b2e4146523a206e6f742073656c6c65724f664465616c00000000000060448201526064016105ad565b6000836001600160a01b0316630771d84e6040518163ffffffff1660e01b815260040160206040518083038186803b158015612c2157600080fd5b505afa158015612c35573d6000803e3d6000fd5b505050506040513d601f19601f82011682018060405250810190612c5991906145e7565b60405163a0b7b8a760e01b81526001600160a01b038b81166004830152602482018b9052919091169063a0b7b8a790604401600060405180830381600087803b158015612ca557600080fd5b505af1158015612cb9573d6000803e3d6000fd5b505050506040513d6000823e601f3d908101601f19168201604052612ce19190810190614eb9565b80519091505b8015612d2d57612d1b8a8484612cfe600186614fcd565b81518110612d0e57612d0e614ddd565b6020026020010151613c03565b80612d2581614fe4565b915050612ce7565b604051630cac562d60e11b81526000600482015260248101899052604481018890526001600160a01b038b1690631958ac5a90606401600060405180830381600087803b158015612d7d57600080fd5b505af1158015612d91573d6000803e3d6000fd5b5050505050505050505050505050565b60005b8351811015612ff7576000612dc16004546001600160a01b031690565b6001600160a01b03166333fb96ee6040518163ffffffff1660e01b815260040160206040518083038186803b158015612df957600080fd5b505afa158015612e0d573d6000803e3d6000fd5b505050506040513d601f19601f82011682018060405250810190612e3191906145e7565b6001600160a01b031663e80bf906868481518110612e5157612e51614ddd565b60200260200101516040518263ffffffff1660e01b8152600401612e7791815260200190565b60006040518083038186803b158015612e8f57600080fd5b505afa158015612ea3573d6000803e3d6000fd5b505050506040513d6000823e601f3d908101601f19168201604052612ecb9190810190614a1a565b905060005b8151811015612fd857600080612f088b8b60e0878781518110612ef557612ef5614ddd565b602002602001015160001c901c8c613f52565b6040516329014b6d60e21b815260048101839052602481018a905265ffffffffffff421660448201526064810189905291935091506001600160a01b038c169063a4052db490608401602060405180830381600087803b158015612f6b57600080fd5b505af1158015612f7f573d6000803e3d6000fd5b505050506040513d601f19601f82011682018060405250810190612fa391906149a9565b506001600160401b038116612fb9575050612fd8565b6001600160401b03169750819050612fd081614ffb565b915050612ed0565b5085612fe45750612ff7565b5080612fef81614ffb565b915050612da4565b50831561057b5760405162461bcd60e51b815260206004820152602260248201527f5348414b2e4347443a20696e73756666696369656e74207061696420616d6f756044820152611b9d60f21b60648201526084016105ad565b60006130656004546001600160a01b031690565b90506000816001600160a01b0316630771d84e6040518163ffffffff1660e01b815260040160206040518083038186803b1580156130a257600080fd5b505afa1580156130b6573d6000803e3d6000fd5b505050506040513d601f19601f820116820180604052508101906130da91906145e7565b604051638f6b658760e01b81526001600160a01b0388811660048301526024820186905291925090821690638f6b658790604401602060405180830381600087803b15801561312857600080fd5b505af115801561313c573d6000803e3d6000fd5b505050506040513d601f19601f8201168201806040525081019061316091906149a9565b156131ad5760405162461bcd60e51b815260206004820152601d60248201527f5348414b2e4341443a2063616c6c6572206973206672436c61696d657200000060448201526064016105ad565b835160800151604051638f6b658760e01b81526001600160a01b03888116600483015264ffffffffff909216602482015290821690638f6b658790604401602060405180830381600087803b15801561320557600080fd5b505af1158015613219573d6000803e3d6000fd5b505050506040513d601f19601f8201168201806040525081019061323d91906149a9565b156132955760405162461bcd60e51b815260206004820152602260248201527f5348414b2e4341443a207368617265686f6c646572206973206672436c61696d60448201526132b960f11b60648201526084016105ad565b60008761338b57826001600160a01b031663a61adc286040518163ffffffff1660e01b815260040160206040518083038186803b1580156132d557600080fd5b505afa1580156132e9573d6000803e3d6000fd5b505050506040513d601f19601f8201168201806040525081019061330d91906145e7565b60405163346ba94160e01b81526004818101526001600160a01b03919091169063346ba9419060240160206040518083038186803b15801561334e57600080fd5b505afa158015613362573d6000803e3d6000fd5b505050506040513d601f19601f8201168201806040525081019061338691906145e7565b613476565b826001600160a01b031663a61adc286040518163ffffffff1660e01b815260040160206040518083038186803b1580156133c457600080fd5b505afa1580156133d8573d6000803e3d6000fd5b505050506040513d601f19601f820116820180604052508101906133fc91906145e7565b60405163346ba94160e01b8152600360048201526001600160a01b03919091169063346ba9419060240160206040518083038186803b15801561343e57600080fd5b505afa158015613452573d6000803e3d6000fd5b505050506040513d601f19601f8201168201806040525081019061347691906145e7565b60405163e065228560e01b81529091506001600160a01b0382169063e0652285906134a7908a908a9060040161518b565b60206040518083038186803b1580156134bf57600080fd5b505afa1580156134d3573d6000803e3d6000fd5b505050506040513d601f19601f820116820180604052508101906134f791906149a9565b61354e5760405162461bcd60e51b815260206004820152602260248201527f5348414b2e65786563416c6f6e6752696768743a206e6f742074726967676572604482015261195960f21b60648201526084016105ad565b855160a00151855160800151604051635ba7f16360e01b815264ffffffffff9283166004820152911660248201526001600160a01b03821690635ba7f1639060440160206040518083038186803b1580156135a857600080fd5b505afa1580156135bc573d6000803e3d6000fd5b505050506040513d601f19601f820116820180604052508101906135e091906149a9565b61362c5760405162461bcd60e51b815260206004820152601c60248201527f5348414b2e636865636b416c6f6e67733a204e4f54206c696e6b65640000000060448201526064016105ad565b60405163e065228560e01b81526001600160a01b0382169063e06522859061365a908a908a9060040161518b565b60206040518083038186803b15801561367257600080fd5b505afa158015613686573d6000803e3d6000fd5b505050506040513d601f19601f820116820180604052508101906136aa91906149a9565b6136f65760405162461bcd60e51b815260206004820152601f60248201527f5348414b2e636865636b416c6f6e67733a206e6f74207472696767657265640060448201526064016105ad565b871561375c57855160a0015164ffffffffff1684146137575760405162461bcd60e51b815260206004820152601c60248201527f5348414b2e636865636b416c6f6e67733a206e6f74206472616765720000000060448201526064016105ad565b61388e565b84516080015164ffffffffff1684146137b75760405162461bcd60e51b815260206004820152601e60248201527f5348414b2e636865636b416c6f6e67733a206e6f7420666f6c6c6f776572000060448201526064016105ad565b60405163b115233560e01b815260016004820152602481018590526001600160a01b0388169063b11523359060440160206040518083038186803b1580156137fe57600080fd5b505afa158015613812573d6000803e3d6000fd5b505050506040513d601f19601f8201168201806040525081019061383691906149a9565b1561388e5760405162461bcd60e51b815260206004820152602260248201527f5348414b2e636865636b416c6f6e67733a206973204275796572206f66204465604482015261185b60f21b60648201526084016105ad565b5050505050505050565b6000604051806101400160405280856000015160ff166000146138bc5760056138bf565b60065b60ff168152602001600061ffff16815260200184600001516020015161ffff16815260200183600001516040015161ffff16815260200183600001516000015163ffffffff16815260200183600001516080015164ffffffffff168152602001846000015160c0015163ffffffff168152602001846000015160e0015163ffffffff1681526020018460000151610100015165ffffffffffff168152602001600061ffff16815250836000018190525060405180610100016040528084602001516000015164ffffffffff16815260200184602001516020015164ffffffffff16815260200185604001516001600160401b0316815260200185606001516001600160401b03168152602001600160048111156139de576139de6149c6565b60ff16815260006020808301829052604080840183905260609093019190915285019190915251631f24908560e31b81526001600160a01b0386169063f924842890613a2e9086906004016151a9565b602060405180830381600087803b158015613a4857600080fd5b505af1158015613a5c573d6000803e3d6000fd5b505050506040513d601f19601f82011682018060405250810190613a8091906151b8565b61ffff169050846001600160a01b0316639a9a7a44826040518263ffffffff1660e01b8152600401613ab491815260200190565b602060405180830381600087803b158015613ace57600080fd5b505af1158015613ae2573d6000803e3d6000fd5b505050506040513d601f19601f82011682018060405250810190613b0691906149a9565b506004546001600160a01b03166001600160a01b031663f01e100f6040518163ffffffff1660e01b815260040160206040518083038186803b158015613b4b57600080fd5b505afa158015613b5f573d6000803e3d6000fd5b505050506040513d601f19601f82011682018060405250810190613b8391906145e7565b82515160408681015190516360d095df60e01b815263ffffffff90921660048301526001600160401b031660248201526001600160a01b0391909116906360d095df90604401600060405180830381600087803b158015613be357600080fd5b505af1158015613bf7573d6000803e3d6000fd5b50505050949350505050565b6000613c176004546001600160a01b031690565b6001600160a01b03166333fb96ee6040518163ffffffff1660e01b815260040160206040518083038186803b158015613c4f57600080fd5b505afa158015613c63573d6000803e3d6000fd5b505050506040513d601f19601f82011682018060405250810190613c8791906145e7565b83516080015190915063ffffffff1615613ca657825160079052613cad565b8251600490525b825160208082015161ffff1660409283015283810180519186015164ffffffffff928316905251915163302e2f6360e11b8152911660048201526001600160a01b0382169063605c5ec69060240160206040518083038186803b158015613d1357600080fd5b505afa158015613d27573d6000803e3d6000fd5b505050506040513d601f19601f82011682018060405250810190613d4b9190614e9e565b6020808501805164ffffffffff9093169290910191909152606083015190516040015161271091613d7b916151d3565b613d859190615202565b6020840180516001600160401b039092166040909201919091526060808401519151015161271091613db6916151d3565b613dc09190615202565b6020840180516001600160401b0392909216606090920191909152516001608090910152604051631f24908560e31b81526001600160a01b03851690639a9a7a4490829063f924842890613e189088906004016151a9565b602060405180830381600087803b158015613e3257600080fd5b505af1158015613e46573d6000803e3d6000fd5b505050506040513d601f19601f82011682018060405250810190613e6a91906151b8565b6040516001600160e01b031960e084901b16815261ffff9091166004820152602401602060405180830381600087803b158015613ea657600080fd5b505af1158015613eba573d6000803e3d6000fd5b505050506040513d601f19601f82011682018060405250810190613ede91906149a9565b50602082015160a0830151604051630cac562d60e11b81526000600482015264ffffffffff909216602483015260448201526001600160a01b03851690631958ac5a90606401600060405180830381600087803b158015613f3e57600080fd5b505af115801561388e573d6000803e3d6000fd5b6000806000613f696004546001600160a01b031690565b6001600160a01b031663f01e100f6040518163ffffffff1660e01b815260040160206040518083038186803b158015613fa157600080fd5b505afa158015613fb5573d6000803e3d6000fd5b505050506040513d601f19601f82011682018060405250810190613fd991906145e7565b6040516320bf56eb60e21b8152600481018890529091506000906001600160a01b038916906382fd5bac906024016102606040518083038186803b15801561402057600080fd5b505afa158015614034573d6000803e3d6000fd5b505050506040513d601f19601f820116820180604052508101906140589190614b78565b6040516319f6b4bf60e31b8152600481018890529091506000906001600160a01b0384169063cfb5a5f8906024016101e06040518083038186803b15801561409f57600080fd5b505afa1580156140b3573d6000803e3d6000fd5b505050506040513d601f19601f820116820180604052508101906140d791906148b7565b90506000808260200151606001516001600160401b0316111561437157868260200151606001516001600160401b031610614112578661411c565b8160200151606001515b90506141ce604080516101a081019091526000606082018181526080830182905260a0830182905260c0830182905260e08301829052610100830182905261012083018290526101408301829052610160830182905261018083019190915281908152604080516101008101825260008082526020828101829052928201819052606082018190526080820181905260a0820181905260c0820181905260e08201529101908152600060209091015290565b805160089052805161ffff8b8116604092830152845182015183519116606091820152845151835163ffffffff9091166080918201528551810151845164ffffffffff91821660a090910152875161010090810151865165ffffffffffff90911691015260208089018051518288018051918516909152905182015181519316929091019190915280516001600160401b0387169085018190528151909301929092529051600191015251631f24908560e31b81526001600160a01b038c169063f9248428906142a29084906004016151a9565b602060405180830381600087803b1580156142bc57600080fd5b505af11580156142d0573d6000803e3d6000fd5b505050506040513d601f19601f820116820180604052508101906142f491906151b8565b8351516040516360d095df60e01b815263ffffffff90911660048201526001600160401b038416602482015261ffff9190911697506001600160a01b038616906360d095df90604401600060405180830381600087803b15801561435757600080fd5b505af115801561436b573d6000803e3d6000fd5b50505050505b61437b8188615236565b94505050505094509492505050565b6001600160a01b038116811461439f57600080fd5b50565b600080600080608085870312156143b857600080fd5b84356143c38161438a565b935060208501356143d38161438a565b925060408501356143e38161438a565b915060608501356143f38161438a565b939692955090935050565b60006020828403121561441057600080fd5b81356116e58161438a565b60006020828403121561442d57600080fd5b5035919050565b6000806040838503121561444757600080fd5b8235915060208301356144598161438a565b809150509250929050565b600080600080600060a0868803121561447c57600080fd5b85356144878161438a565b97602087013597506040870135966060810135965060800135945092505050565b6000806000606084860312156144bd57600080fd5b83356144c88161438a565b95602085013595506040909401359392505050565b801515811461439f57600080fd5b600080600080600080600080610100898b03121561450857600080fd5b88356145138161438a565b975060208901359650604089013561452a816144dd565b979a96995096976060810135975060808101359660a0820135965060c0820135955060e0909101359350915050565b60008060008060008060c0878903121561457257600080fd5b8635955060208701359450604087013561458b8161438a565b959894975094956060810135955060808101359460a0909101359350915050565b600080600080608085870312156145c257600080fd5b84356145cd8161438a565b966020860135965060408601359560600135945092505050565b6000602082840312156145f957600080fd5b81516116e58161438a565b93845260208401929092526001600160a01b03908116604084015216606082015260800190565b6020808252600e908201526d1050cb9bdb9b1e5112ce881393d560921b604082015260600190565b805165ffffffffffff8116811461466957600080fd5b919050565b60006020828403121561468057600080fd5b6116e582614653565b6020808252601490820152731b5a5cdcd959081c995d9a595dc81c195c9a5bd960621b604082015260600190565b634e487b7160e01b600052604160045260246000fd5b60405160c081016001600160401b03811182821017156146ef576146ef6146b7565b60405290565b604080519081016001600160401b03811182821017156146ef576146ef6146b7565b60405161012081016001600160401b03811182821017156146ef576146ef6146b7565b60405161014081016001600160401b03811182821017156146ef576146ef6146b7565b604051606081016001600160401b03811182821017156146ef576146ef6146b7565b60405161010081016001600160401b03811182821017156146ef576146ef6146b7565b604051601f8201601f191681016001600160401b03811182821017156147ca576147ca6146b7565b604052919050565b805163ffffffff8116811461466957600080fd5b805161ffff8116811461466957600080fd5b805164ffffffffff8116811461466957600080fd5b805160ff8116811461466957600080fd5b80516001600160401b038116811461466957600080fd5b600060c0828403121561484757600080fd5b61484f6146cd565b905061485a82614653565b81526148686020830161481e565b60208201526148796040830161481e565b604082015261488a6060830161481e565b606082015261489b6080830161480d565b60808201526148ac60a0830161480d565b60a082015292915050565b60008183036101e08112156148cb57600080fd5b6148d36146f5565b610120808312156148e357600080fd5b6148eb614717565b92506148f6856147d2565b8352614904602086016147d2565b6020840152614915604086016147e6565b604084015261492660608601614653565b6060840152614937608086016147f8565b608084015261494860a086016147d2565b60a084015261495960c086016147d2565b60c084015261496a60e086016147e6565b60e084015261010061497d81870161480d565b9084015282825261499086868301614835565b602083015250949350505050565b8051614669816144dd565b6000602082840312156149bb57600080fd5b81516116e5816144dd565b634e487b7160e01b600052602160045260246000fd5b6000602082840312156149ee57600080fd5b6116e58261481e565b60006001600160401b03821115614a1057614a106146b7565b5060051b60200190565b60006020808385031215614a2d57600080fd5b82516001600160401b03811115614a4357600080fd5b8301601f81018513614a5457600080fd5b8051614a67614a62826149f7565b6147a2565b81815260059190911b82018301908381019087831115614a8657600080fd5b928401925b82841015614aa457835182529284019290840190614a8b565b979650505050505050565b60006101408284031215614ac257600080fd5b614aca61473a565b9050614ad58261480d565b8152614ae3602083016147e6565b6020820152614af4604083016147e6565b6040820152614b05606083016147e6565b6060820152614b16608083016147d2565b6080820152614b2760a083016147f8565b60a0820152614b3860c083016147d2565b60c0820152614b4960e083016147d2565b60e0820152610100614b5c818401614653565b90820152610120614b6e8382016147e6565b9082015292915050565b6000818303610260811215614b8c57600080fd5b614b9461475d565b614b9e8585614aaf565b815261010061013f1983011215614bb457600080fd5b614bbc61477f565b9150614bcb61014085016147f8565b8252614bda61016085016147f8565b6020830152614bec610180850161481e565b6040830152614bfe6101a0850161481e565b6060830152614c106101c0850161480d565b6080830152614c226101e085016147e6565b60a0830152614c3461020085016147e6565b60c0830152610220840151614c48816144dd565b60e083015260208101919091526102409290920151604083015250919050565b60006101408284031215614c7b57600080fd5b6116e58383614aaf565b600060208284031215614c9757600080fd5b5051919050565b600082601f830112614caf57600080fd5b604051608081018181106001600160401b0382111715614cd157614cd16146b7565b604052806080840185811115614ce657600080fd5b845b81811015614d0757614cf9816147f8565b835260209283019201614ce8565b509195945050505050565b60006101a08284031215614d2557600080fd5b614d2d61473a565b614d36836147e6565b8152614d446020840161480d565b6020820152614d556040840161480d565b6040820152614d666060840161480d565b6060820152614d776080840161499e565b6080820152614d8860a0840161499e565b60a0820152614d9960c0840161499e565b60c0820152614dab8460e08501614c9e565b60e0820152614dbd61016084016147e6565b610100820152614dd061018084016147e6565b6101208201529392505050565b634e487b7160e01b600052603260045260246000fd5b600060e08284031215614e0557600080fd5b60405160e081018181106001600160401b0382111715614e2757614e276146b7565b604052614e338361480d565b8152614e41602084016147d2565b6020820152614e526040840161481e565b6040820152614e636060840161481e565b6060820152614e74608084016147f8565b6080820152614e8560a08401614653565b60a082015260c083015160c08201528091505092915050565b600060208284031215614eb057600080fd5b6116e5826147f8565b60006020808385031215614ecc57600080fd5b82516001600160401b03811115614ee257600080fd5b8301601f81018513614ef357600080fd5b8051614f01614a62826149f7565b81815260c09182028301840191848201919088841115614f2057600080fd5b938501935b83851015614fab5780858a031215614f3d5760008081fd5b614f456146cd565b614f4e866147e6565b8152614f5b8787016147f8565b878201526040614f6c81880161481e565b908201526060614f7d87820161481e565b908201526080614f8e878201614653565b9082015260a0868101519082015283529384019391850191614f25565b50979650505050505050565b634e487b7160e01b600052601160045260246000fd5b600082821015614fdf57614fdf614fb7565b500390565b600081614ff357614ff3614fb7565b506000190190565b600060001982141561500f5761500f614fb7565b5060010190565b64ffffffffff8082511683528060208301511660208401525060408101516001600160401b038082166040850152806060840151166060850152505060ff608082015116608083015261ffff60a08201511660a083015260c081015161508260c084018261ffff169052565b5060e081015161509660e084018215159052565b505050565b8051805160ff16835260208101516150b9602085018261ffff169052565b5060408101516150cf604085018261ffff169052565b5060608101516150e5606085018261ffff169052565b5060808101516150fd608085018263ffffffff169052565b5060a081015161511660a085018264ffffffffff169052565b5060c081015161512e60c085018263ffffffff169052565b5060e081015161514660e085018263ffffffff169052565b506101008181015165ffffffffffff16908401526101209081015161ffff1690830152602081015161517c610140840182615016565b50604001516102409190910152565b6001600160a01b038316815261028081016116e5602083018461509b565b610260810161050b828461509b565b6000602082840312156151ca57600080fd5b6116e5826147e6565b60006001600160401b03808316818516818304811182151516156151f9576151f9614fb7565b02949350505050565b60006001600160401b038084168061522a57634e487b7160e01b600052601260045260246000fd5b92169190910492915050565b60006001600160401b038381169083168181101561525657615256614fb7565b03939250505056fea264697066735822122014e89f056385895b53166d01e45c3eccbab72d4c524f20698cbc06f2cf13ef7064736f6c63430008080033",
    "sourcePath": "/Users/kaptain/github.com/comboox/comboox/contracts/keepers/SHAKeeper.sol",
    "compiler": {
        "name": "solc",
        "version": "0.8.8+commit.dddeac2f"
    },
    "functionHashes": {
        "abandonRole(bytes32)": "3da9a600",
        "acceptAlongDeal(address,uint256,uint256,uint256,bytes32)": "f51147e3",
        "acceptFirstRefusal(address,uint256,uint256,bytes32)": "f61bf284",
        "execAlongRight(address,uint256,bool,uint256,uint256,uint256,uint256,bytes32)": "651c7b08",
        "execAntiDilution(address,uint256,uint256,uint256,bytes32)": "325508d5",
        "execFirstRefusal(uint256,uint256,address,uint256,uint256,bytes32)": "c65511d8",
        "getDK()": "50627aea",
        "getOwner()": "893d20e8",
        "getRoleAdmin(bytes32)": "248a9ca3",
        "grantRole(bytes32,address)": "2f2ff15d",
        "hasRole(bytes32,address)": "91d14854",
        "init(address,address,address,address)": "06552ff3",
        "isFinalized()": "8d4e4083",
        "lockContents()": "f045a769",
        "renounceRole(bytes32)": "8bb9c5bf",
        "revokeRole(bytes32,address)": "d547741f",
        "setDirectKeeper(address)": "6be8496f",
        "setOwner(address)": "13af4035",
        "setRoleAdmin(bytes32,address)": "ad763192",
        "takeBackKeys(address)": "40b6c23e",
        "takeGiftShares(address,uint256,uint256)": "58677418"
    },
    "gasEstimates": {
        "creation": {
            "codeDepositCost": "4228000",
            "executionCost": "4870",
            "totalCost": "4232870"
        },
        "external": {
            "abandonRole(bytes32)": "infinite",
            "acceptAlongDeal(address,uint256,uint256,uint256,bytes32)": "infinite",
            "acceptFirstRefusal(address,uint256,uint256,bytes32)": "infinite",
            "execAlongRight(address,uint256,bool,uint256,uint256,uint256,uint256,bytes32)": "infinite",
            "execAntiDilution(address,uint256,uint256,uint256,bytes32)": "infinite",
            "execFirstRefusal(uint256,uint256,address,uint256,uint256,bytes32)": "infinite",
            "getDK()": "2387",
            "getOwner()": "infinite",
            "getRoleAdmin(bytes32)": "infinite",
            "grantRole(bytes32,address)": "infinite",
            "hasRole(bytes32,address)": "infinite",
            "init(address,address,address,address)": "infinite",
            "isFinalized()": "2405",
            "lockContents()": "infinite",
            "renounceRole(bytes32)": "infinite",
            "revokeRole(bytes32,address)": "infinite",
            "setDirectKeeper(address)": "27867",
            "setOwner(address)": "infinite",
            "setRoleAdmin(bytes32,address)": "infinite",
            "takeBackKeys(address)": "infinite",
            "takeGiftShares(address,uint256,uint256)": "infinite"
        },
        "internal": {
            "_checkAlongDeal(bool,address,struct DealsRepo.Deal memory,struct SharesRepo.Share memory,uint256)": "infinite",
            "_createAlongDeal(address,struct DTClaims.Claim memory,struct DealsRepo.Deal memory,struct SharesRepo.Share memory)": "infinite",
            "_createFRDeal(address,struct DealsRepo.Deal memory,struct FRClaims.Claim memory)": "infinite",
            "_createGift(address,uint256,uint256,uint256)": "infinite",
            "_createGiftDeals(address,uint256,uint256,uint256[] memory,uint256,bytes32)": "infinite"
        }
    }
}