{
    "contractName": "SHAKeeper",
    "abi": [
        {
            "anonymous": false,
            "inputs": [
                {
                    "indexed": true,
                    "internalType": "address",
                    "name": "owner",
                    "type": "address"
                },
                {
                    "indexed": true,
                    "internalType": "address",
                    "name": "directKeeper",
                    "type": "address"
                },
                {
                    "indexed": false,
                    "internalType": "address",
                    "name": "regCenter",
                    "type": "address"
                },
                {
                    "indexed": true,
                    "internalType": "address",
                    "name": "generalKeeper",
                    "type": "address"
                }
            ],
            "name": "Init",
            "type": "event"
        },
        {
            "anonymous": false,
            "inputs": [],
            "name": "LockContents",
            "type": "event"
        },
        {
            "anonymous": false,
            "inputs": [
                {
                    "indexed": true,
                    "internalType": "address",
                    "name": "keeper",
                    "type": "address"
                }
            ],
            "name": "SetDirectKeeper",
            "type": "event"
        },
        {
            "anonymous": false,
            "inputs": [
                {
                    "indexed": true,
                    "internalType": "address",
                    "name": "acct",
                    "type": "address"
                }
            ],
            "name": "SetOwner",
            "type": "event"
        },
        {
            "anonymous": false,
            "inputs": [
                {
                    "indexed": true,
                    "internalType": "bytes32",
                    "name": "role",
                    "type": "bytes32"
                },
                {
                    "indexed": true,
                    "internalType": "address",
                    "name": "acct",
                    "type": "address"
                }
            ],
            "name": "SetRoleAdmin",
            "type": "event"
        },
        {
            "inputs": [
                {
                    "internalType": "bytes32",
                    "name": "role",
                    "type": "bytes32"
                }
            ],
            "name": "abandonRole",
            "outputs": [],
            "stateMutability": "nonpayable",
            "type": "function"
        },
        {
            "inputs": [
                {
                    "internalType": "address",
                    "name": "ia",
                    "type": "address"
                },
                {
                    "internalType": "uint256",
                    "name": "seqOfDeal",
                    "type": "uint256"
                },
                {
                    "internalType": "uint256",
                    "name": "caller",
                    "type": "uint256"
                },
                {
                    "internalType": "bytes32",
                    "name": "sigHash",
                    "type": "bytes32"
                }
            ],
            "name": "acceptAlongDeal",
            "outputs": [],
            "stateMutability": "nonpayable",
            "type": "function"
        },
        {
            "inputs": [
                {
                    "internalType": "address",
                    "name": "ia",
                    "type": "address"
                },
                {
                    "internalType": "uint256",
                    "name": "seqOfDeal",
                    "type": "uint256"
                },
                {
                    "internalType": "uint256",
                    "name": "caller",
                    "type": "uint256"
                }
            ],
            "name": "computeFirstRefusal",
            "outputs": [],
            "stateMutability": "nonpayable",
            "type": "function"
        },
        {
            "inputs": [
                {
                    "internalType": "address",
                    "name": "ia",
                    "type": "address"
                },
                {
                    "internalType": "uint256",
                    "name": "seqOfDeal",
                    "type": "uint256"
                },
                {
                    "internalType": "bool",
                    "name": "dragAlong",
                    "type": "bool"
                },
                {
                    "internalType": "uint256",
                    "name": "seqOfShare",
                    "type": "uint256"
                },
                {
                    "internalType": "uint256",
                    "name": "paid",
                    "type": "uint256"
                },
                {
                    "internalType": "uint256",
                    "name": "par",
                    "type": "uint256"
                },
                {
                    "internalType": "uint256",
                    "name": "caller",
                    "type": "uint256"
                },
                {
                    "internalType": "bytes32",
                    "name": "sigHash",
                    "type": "bytes32"
                }
            ],
            "name": "execAlongRight",
            "outputs": [],
            "stateMutability": "nonpayable",
            "type": "function"
        },
        {
            "inputs": [
                {
                    "internalType": "address",
                    "name": "ia",
                    "type": "address"
                },
                {
                    "internalType": "uint256",
                    "name": "seqOfDeal",
                    "type": "uint256"
                },
                {
                    "internalType": "uint256",
                    "name": "seqOfShare",
                    "type": "uint256"
                },
                {
                    "internalType": "uint256",
                    "name": "caller",
                    "type": "uint256"
                },
                {
                    "internalType": "bytes32",
                    "name": "sigHash",
                    "type": "bytes32"
                }
            ],
            "name": "execAntiDilution",
            "outputs": [],
            "stateMutability": "nonpayable",
            "type": "function"
        },
        {
            "inputs": [
                {
                    "internalType": "uint256",
                    "name": "seqOfFRRule",
                    "type": "uint256"
                },
                {
                    "internalType": "uint256",
                    "name": "seqOfRightholder",
                    "type": "uint256"
                },
                {
                    "internalType": "address",
                    "name": "ia",
                    "type": "address"
                },
                {
                    "internalType": "uint256",
                    "name": "seqOfDeal",
                    "type": "uint256"
                },
                {
                    "internalType": "uint256",
                    "name": "caller",
                    "type": "uint256"
                },
                {
                    "internalType": "bytes32",
                    "name": "sigHash",
                    "type": "bytes32"
                }
            ],
            "name": "execFirstRefusal",
            "outputs": [],
            "stateMutability": "nonpayable",
            "type": "function"
        },
        {
            "inputs": [],
            "name": "getDK",
            "outputs": [
                {
                    "internalType": "address",
                    "name": "",
                    "type": "address"
                }
            ],
            "stateMutability": "view",
            "type": "function"
        },
        {
            "inputs": [],
            "name": "getOwner",
            "outputs": [
                {
                    "internalType": "address",
                    "name": "",
                    "type": "address"
                }
            ],
            "stateMutability": "view",
            "type": "function"
        },
        {
            "inputs": [
                {
                    "internalType": "bytes32",
                    "name": "role",
                    "type": "bytes32"
                }
            ],
            "name": "getRoleAdmin",
            "outputs": [
                {
                    "internalType": "address",
                    "name": "",
                    "type": "address"
                }
            ],
            "stateMutability": "view",
            "type": "function"
        },
        {
            "inputs": [
                {
                    "internalType": "bytes32",
                    "name": "role",
                    "type": "bytes32"
                },
                {
                    "internalType": "address",
                    "name": "acct",
                    "type": "address"
                }
            ],
            "name": "grantRole",
            "outputs": [],
            "stateMutability": "nonpayable",
            "type": "function"
        },
        {
            "inputs": [
                {
                    "internalType": "bytes32",
                    "name": "role",
                    "type": "bytes32"
                },
                {
                    "internalType": "address",
                    "name": "acct",
                    "type": "address"
                }
            ],
            "name": "hasRole",
            "outputs": [
                {
                    "internalType": "bool",
                    "name": "",
                    "type": "bool"
                }
            ],
            "stateMutability": "view",
            "type": "function"
        },
        {
            "inputs": [
                {
                    "internalType": "address",
                    "name": "owner",
                    "type": "address"
                },
                {
                    "internalType": "address",
                    "name": "directKeeper",
                    "type": "address"
                },
                {
                    "internalType": "address",
                    "name": "regCenter",
                    "type": "address"
                },
                {
                    "internalType": "address",
                    "name": "generalKeeper",
                    "type": "address"
                }
            ],
            "name": "init",
            "outputs": [],
            "stateMutability": "nonpayable",
            "type": "function"
        },
        {
            "inputs": [],
            "name": "isFinalized",
            "outputs": [
                {
                    "internalType": "bool",
                    "name": "",
                    "type": "bool"
                }
            ],
            "stateMutability": "view",
            "type": "function"
        },
        {
            "inputs": [],
            "name": "lockContents",
            "outputs": [],
            "stateMutability": "nonpayable",
            "type": "function"
        },
        {
            "inputs": [
                {
                    "internalType": "bytes32",
                    "name": "role",
                    "type": "bytes32"
                }
            ],
            "name": "renounceRole",
            "outputs": [],
            "stateMutability": "nonpayable",
            "type": "function"
        },
        {
            "inputs": [
                {
                    "internalType": "bytes32",
                    "name": "role",
                    "type": "bytes32"
                },
                {
                    "internalType": "address",
                    "name": "acct",
                    "type": "address"
                }
            ],
            "name": "revokeRole",
            "outputs": [],
            "stateMutability": "nonpayable",
            "type": "function"
        },
        {
            "inputs": [
                {
                    "internalType": "address",
                    "name": "acct",
                    "type": "address"
                }
            ],
            "name": "setDirectKeeper",
            "outputs": [],
            "stateMutability": "nonpayable",
            "type": "function"
        },
        {
            "inputs": [
                {
                    "internalType": "address",
                    "name": "acct",
                    "type": "address"
                }
            ],
            "name": "setOwner",
            "outputs": [],
            "stateMutability": "nonpayable",
            "type": "function"
        },
        {
            "inputs": [
                {
                    "internalType": "bytes32",
                    "name": "role",
                    "type": "bytes32"
                },
                {
                    "internalType": "address",
                    "name": "acct",
                    "type": "address"
                }
            ],
            "name": "setRoleAdmin",
            "outputs": [],
            "stateMutability": "nonpayable",
            "type": "function"
        },
        {
            "inputs": [
                {
                    "internalType": "address",
                    "name": "target",
                    "type": "address"
                }
            ],
            "name": "takeBackKeys",
            "outputs": [],
            "stateMutability": "nonpayable",
            "type": "function"
        },
        {
            "inputs": [
                {
                    "internalType": "address",
                    "name": "ia",
                    "type": "address"
                },
                {
                    "internalType": "uint256",
                    "name": "seqOfDeal",
                    "type": "uint256"
                },
                {
                    "internalType": "uint256",
                    "name": "caller",
                    "type": "uint256"
                }
            ],
            "name": "takeGiftShares",
            "outputs": [],
            "stateMutability": "nonpayable",
            "type": "function"
        }
    ],
    "bytecode": "608060405234801561001057600080fd5b506150e2806100206000396000f3fe608060405234801561001057600080fd5b50600436106101375760003560e01c8063651c7b08116100b857806391d148541161007c57806391d1485414610279578063ad7631921461028c578063c65511d81461029f578063d547741f146102b2578063d5572bac146102c5578063f045a769146102d857600080fd5b8063651c7b08146102175780636be8496f1461022a578063893d20e81461023d5780638bb9c5bf146102455780638d4e40831461025857600080fd5b8063325508d5116100ff578063325508d5146101ba5780633da9a600146101cd57806340b6c23e146101e057806350627aea146101f3578063586774181461020457600080fd5b806306552ff31461013c57806313af403514610151578063159186c114610164578063248a9ca3146101775780632f2ff15d146101a7575b600080fd5b61014f61014a366004613df3565b6102e0565b005b61014f61015f366004613e4f565b6103cf565b61014f610172366004613e6c565b61047e565b61018a610185366004613ea7565b61092b565b6040516001600160a01b0390911681526020015b60405180910390f35b61014f6101b5366004613ec0565b6109be565b61014f6101c8366004613ef0565b610a30565b61014f6101db366004613ea7565b61135d565b61014f6101ee366004613e4f565b6113d1565b6002546001600160a01b031661018a565b61014f610212366004613f34565b611450565b61014f610225366004613f77565b61185d565b61014f610238366004613e4f565b611dba565b61018a611e2e565b61014f610253366004613ea7565b611eb9565b600054600160a01b900460ff166002145b604051901515815260200161019e565b610269610287366004613ec0565b611efe565b61014f61029a366004613ec0565b611fa1565b61014f6102ad366004613fe5565b612049565b61014f6102c0366004613ec0565b61268a565b61014f6102d3366004613f34565b6126c8565b61014f612b24565b60405163013faf4960e71b8152600060048201526001600160a01b038516602482015273__$a374c895e6fa8c448878668e00d93ef99a$__90639fd7a4809060440160006040518083038186803b15801561033a57600080fd5b505af415801561034e573d6000803e3d6000fd5b5050600280546001600160a01b038781166001600160a01b0319928316811790935560038054888316908416811790915560048054888416941684179055604051908152919450919250908716907f11e5c44db2defe55dea9656ae7848e94dc9f3e66eb342a7b84547a68d31c393a9060200160405180910390a450505050565b6040516351e7e80560e01b8152600060048201526001600160a01b038216602482015233604482015273__$a374c895e6fa8c448878668e00d93ef99a$__906351e7e8059060640160006040518083038186803b15801561042f57600080fd5b505af4158015610443573d6000803e3d6000fd5b50506040516001600160a01b03841692507f167d3e9c1016ab80e58802ca9da10ce5c6a0f4debc46a2e7a2cd9e56899a4fb59150600090a250565b6002546001600160a01b031633146104b15760405162461bcd60e51b81526004016104a890614038565b60405180910390fd5b60006104c56004546001600160a01b031690565b90506000816001600160a01b0316630771d84e6040518163ffffffff1660e01b815260040160206040518083038186803b15801561050257600080fd5b505afa158015610516573d6000803e3d6000fd5b505050506040513d601f19601f8201168201806040525081019061053a9190614060565b6040516320bf56eb60e21b81526004810187905290915086906000906001600160a01b038316906382fd5bac906024016102606040518083038186803b15801561058357600080fd5b505afa158015610597573d6000803e3d6000fd5b505050506040513d601f19601f820116820180604052508101906105bb9190614352565b60208101515190915064ffffffffff16861461060f5760405162461bcd60e51b815260206004820152601360248201527229a420a59720a0a21d103737ba10313abcb2b960691b60448201526064016104a8565b60405163257fff5b60e21b81526001600160a01b03898116600483015260248201899052600091908516906395fffd6c90604401600060405180830381600087803b15801561065d57600080fd5b505af1158015610671573d6000803e3d6000fd5b505050506040513d6000823e601f3d908101601f191682016040526106999190810190614465565b80519091505b801561091f576000826106b360018461458f565b815181106106c3576106c36145a6565b602002602001015190506000876001600160a01b031663f01e100f6040518163ffffffff1660e01b815260040160206040518083038186803b15801561070857600080fd5b505afa15801561071c573d6000803e3d6000fd5b505050506040513d601f19601f820116820180604052508101906107409190614060565b60208301516040516319f6b4bf60e31b815263ffffffff90911660048201526001600160a01b03919091169063cfb5a5f8906024016101e06040518083038186803b15801561078e57600080fd5b505afa1580156107a2573d6000803e3d6000fd5b505050506040513d601f19601f820116820180604052508101906107c6919061463e565b90506107d486838784612cb5565b845160a0908101519083015160c0840151604051633f1f1f8560e21b815264ffffffffff909316600484015265ffffffffffff909116602483015260448201526001600160a01b0387169063fc7c7e1490606401602060405180830381600087803b15801561084257600080fd5b505af1158015610856573d6000803e3d6000fd5b505050506040513d601f19601f8201168201806040525081019061087a9190614725565b50604051633f1f1f8560e21b8152600481018b905265ffffffffffff42166024820152604481018a90526001600160a01b0387169063fc7c7e1490606401602060405180830381600087803b1580156108d257600080fd5b505af11580156108e6573d6000803e3d6000fd5b505050506040513d601f19601f8201168201806040525081019061090a9190614725565b508261091581614742565b935050505061069f565b50505050505050505050565b604051639423dd0560e01b8152600060048201819052602482018390529073__$a374c895e6fa8c448878668e00d93ef99a$__90639423dd059060440160206040518083038186803b15801561098057600080fd5b505af4158015610994573d6000803e3d6000fd5b505050506040513d601f19601f820116820180604052508101906109b89190614060565b92915050565b604051633d3c5d2760e01b815273__$a374c895e6fa8c448878668e00d93ef99a$__90633d3c5d27906109fc90600090869086903390600401614759565b60006040518083038186803b158015610a1457600080fd5b505af4158015610a28573d6000803e3d6000fd5b505050505050565b6002546001600160a01b03163314610a5a5760405162461bcd60e51b81526004016104a890614038565b6000610a6e6004546001600160a01b031690565b90506000816001600160a01b031663f01e100f6040518163ffffffff1660e01b815260040160206040518083038186803b158015610aab57600080fd5b505afa158015610abf573d6000803e3d6000fd5b505050506040513d601f19601f82011682018060405250810190610ae39190614060565b6040516319f6b4bf60e31b81526004810187905290915087906000906001600160a01b0384169063cfb5a5f8906024016101e06040518083038186803b158015610b2c57600080fd5b505afa158015610b40573d6000803e3d6000fd5b505050506040513d601f19601f82011682018060405250810190610b64919061463e565b80516080015190915064ffffffffff168614610bc25760405162461bcd60e51b815260206004820152601c60248201527f5348414b2e6578656341443a206e6f74207368617265686f6c6465720000000060448201526064016104a8565b604051631c37ef3d60e21b8152600481018790526001600160a01b038316906370dfbcf49060240160206040518083038186803b158015610c0257600080fd5b505afa158015610c16573d6000803e3d6000fd5b505050506040513d601f19601f82011682018060405250810190610c3a9190614725565b15610c875760405162461bcd60e51b815260206004820152601a60248201527f5348414b2e6578656341443a20697320496e69745369676e657200000000000060448201526064016104a8565b600260ff16846001600160a01b0316630771d84e6040518163ffffffff1660e01b815260040160206040518083038186803b158015610cc557600080fd5b505afa158015610cd9573d6000803e3d6000fd5b505050506040513d601f19601f82011682018060405250810190610cfd9190614060565b6040516337066e9d60e11b81526001600160a01b038c811660048301529190911690636e0cdd3a906024016101c06040518083038186803b158015610d4157600080fd5b505afa158015610d55573d6000803e3d6000fd5b505050506040513d601f19601f82011682018060405250810190610d799190614796565b6101a0015160ff1614610dce5760405162461bcd60e51b815260206004820152601d60248201527f5348414b2e6578656341443a2077726f6e672066696c6520737461746500000060448201526064016104a8565b6000846001600160a01b03166333fb96ee6040518163ffffffff1660e01b815260040160206040518083038186803b158015610e0957600080fd5b505afa158015610e1d573d6000803e3d6000fd5b505050506040513d601f19601f82011682018060405250810190610e419190614060565b90506000856001600160a01b031663a61adc286040518163ffffffff1660e01b815260040160206040518083038186803b158015610e7e57600080fd5b505afa158015610e92573d6000803e3d6000fd5b505050506040513d601f19601f82011682018060405250810190610eb69190614060565b60405163346ba94160e01b8152600160048201526001600160a01b03919091169063346ba9419060240160206040518083038186803b158015610ef857600080fd5b505afa158015610f0c573d6000803e3d6000fd5b505050506040513d601f19601f82011682018060405250810190610f309190614060565b835151604051630cfc4a8360e31b81526001600160a01b038e81166004830152602482018e905263ffffffff9092166044820152919250600091908316906367e254189060640160206040518083038186803b158015610f8f57600080fd5b505afa158015610fa3573d6000803e3d6000fd5b505050506040513d601f19601f82011682018060405250810190610fc791906148a6565b8451604090810151905163a31da53b60e01b815261ffff90911660048201529091506000906001600160a01b0384169063a31da53b9060240160006040518083038186803b15801561101857600080fd5b505afa15801561102c573d6000803e3d6000fd5b505050506040513d6000823e601f3d908101601f191682016040526110549190810190614927565b6040516320bf56eb60e21b8152600481018e90529091506000906001600160a01b038816906382fd5bac906024016102606040518083038186803b15801561109b57600080fd5b505afa1580156110af573d6000803e3d6000fd5b505050506040513d601f19601f820116820180604052508101906110d39190614352565b805160089052805160208082015161ffff1660409283015288516080908101519184015164ffffffffff928316905289510151915163302e2f6360e11b8152911660048201529091506001600160a01b0386169063605c5ec69060240160206040518083038186803b15801561114857600080fd5b505afa15801561115c573d6000803e3d6000fd5b505050506040513d601f19601f820116820180604052508101906111809190614963565b60208083015164ffffffffff9092169101526001602082015160ff90911660809091015260005b82518110156112d7576000866001600160a01b031663e80bf9068584815181106111d3576111d36145a6565b60200260200101516040518263ffffffff1660e01b81526004016111f991815260200190565b60006040518083038186803b15801561121157600080fd5b505afa158015611225573d6000803e3d6000fd5b505050506040513d6000823e601f3d908101601f1916820160405261124d919081019061497e565b905060005b81518110156112af576112888a8560e0858581518110611274576112746145a6565b602002602001015160001c901c898f612f96565b95506001600160401b03861661129d576112af565b806112a781614a0e565b915050611252565b506001600160401b0385166112c457506112d7565b50806112cf81614a0e565b9150506111a7565b50602081015151604051630cac562d60e11b81526000600482015264ffffffffff9091166024820152604481018b90526001600160a01b03881690631958ac5a90606401600060405180830381600087803b15801561133557600080fd5b505af1158015611349573d6000803e3d6000fd5b505050505050505050505050505050505050565b60405163bf2755e360e01b8152600060048201526024810182905233604482015273__$a374c895e6fa8c448878668e00d93ef99a$__9063bf2755e3906064015b60006040518083038186803b1580156113b657600080fd5b505af41580156113ca573d6000803e3d6000fd5b5050505050565b6002546001600160a01b031633146113fb5760405162461bcd60e51b81526004016104a890614038565b604051636be8496f60e01b81523360048201526001600160a01b03821690636be8496f90602401600060405180830381600087803b15801561143c57600080fd5b505af11580156113ca573d6000803e3d6000fd5b6002546001600160a01b0316331461147a5760405162461bcd60e51b81526004016104a890614038565b600061148e6004546001600160a01b031690565b90506000816001600160a01b031663f01e100f6040518163ffffffff1660e01b815260040160206040518083038186803b1580156114cb57600080fd5b505afa1580156114df573d6000803e3d6000fd5b505050506040513d601f19601f820116820180604052508101906115039190614060565b6040516320bf56eb60e21b81526004810186905290915085906000906001600160a01b038316906382fd5bac906024016102606040518083038186803b15801561154c57600080fd5b505afa158015611560573d6000803e3d6000fd5b505050506040513d601f19601f820116820180604052508101906115849190614352565b60208101515190915064ffffffffff1685146115d85760405162461bcd60e51b815260206004820152601360248201527231b0b63632b91034b9903737ba10313abcb2b960691b60448201526064016104a8565b60405163122ec47f60e31b8152600481018790526001600160a01b0383169063917623f890602401602060405180830381600087803b15801561161a57600080fd5b505af115801561162e573d6000803e3d6000fd5b505050506040513d601f19601f820116820180604052508101906116529190614725565b1561172d57836001600160a01b0316630771d84e6040518163ffffffff1660e01b815260040160206040518083038186803b15801561169057600080fd5b505afa1580156116a4573d6000803e3d6000fd5b505050506040513d601f19601f820116820180604052508101906116c89190614060565b604051634c6a94cb60e01b81526001600160a01b038981166004830152600660248301529190911690634c6a94cb90604401600060405180830381600087803b15801561171457600080fd5b505af1158015611728573d6000803e3d6000fd5b505050505b8051608001516020820151604090810151905163ccdddd4160e01b815263ffffffff90921660048301526001600160401b031660248201526001600160a01b0384169063ccdddd4190604401600060405180830381600087803b15801561179357600080fd5b505af11580156117a7573d6000803e3d6000fd5b50508251608001516020840151604080820151606083015192519151632b91fe9560e21b815263ffffffff90941660048501526001600160401b039081166024850152909116604483015264ffffffffff16606482015260006084820181905260a48201526001600160a01b038616925063ae47fa54915060c401600060405180830381600087803b15801561183c57600080fd5b505af1158015611850573d6000803e3d6000fd5b5050505050505050505050565b6002546001600160a01b031633146118875760405162461bcd60e51b81526004016104a890614038565b600061189b6004546001600160a01b031690565b90506000816001600160a01b0316630771d84e6040518163ffffffff1660e01b815260040160206040518083038186803b1580156118d857600080fd5b505afa1580156118ec573d6000803e3d6000fd5b505050506040513d601f19601f820116820180604052508101906119109190614060565b6040516320bf56eb60e21b8152600481018b90529091506000906001600160a01b038c16906382fd5bac906024016102606040518083038186803b15801561195757600080fd5b505afa15801561196b573d6000803e3d6000fd5b505050506040513d601f19601f8201168201806040525081019061198f9190614352565b90506000836001600160a01b031663f01e100f6040518163ffffffff1660e01b815260040160206040518083038186803b1580156119cc57600080fd5b505afa1580156119e0573d6000803e3d6000fd5b505050506040513d601f19601f82011682018060405250810190611a049190614060565b6001600160a01b031663cfb5a5f88a6040518263ffffffff1660e01b8152600401611a3191815260200190565b6101e06040518083038186803b158015611a4a57600080fd5b505afa158015611a5e573d6000803e3d6000fd5b505050506040513d601f19601f82011682018060405250810190611a82919061463e565b60208301516080015190915060ff16600114611aea5760405162461bcd60e51b815260206004820152602160248201527f5348414b2e65786563416c6f6e67733a207374617465206e6f74204c6f636b656044820152601960fa1b60648201526084016104a8565b604051638f6b658760e01b81526001600160a01b038d8116600483015260248201889052841690638f6b658790604401602060405180830381600087803b158015611b3457600080fd5b505af1158015611b48573d6000803e3d6000fd5b505050506040513d601f19601f82011682018060405250810190611b6c9190614725565b15611bc55760405162461bcd60e51b8152602060048201526024808201527f5348414b2e65786563416c6f6e67733a2063616c6c6572206973206672436c6160448201526334b6b2b960e11b60648201526084016104a8565b805160800151604051638f6b658760e01b81526001600160a01b038e8116600483015264ffffffffff909216602482015290841690638f6b658790604401602060405180830381600087803b158015611c1d57600080fd5b505af1158015611c31573d6000803e3d6000fd5b505050506040513d601f19601f82011682018060405250810190611c559190614725565b15611cb45760405162461bcd60e51b815260206004820152602960248201527f5348414b2e65786563416c6f6e67733a207368617265686f6c64657220697320604482015268333921b630b4b6b2b960b91b60648201526084016104a8565b6040516332277b1160e01b81526001600160a01b038d811660048301528416906332277b1190602401600060405180830381600087803b158015611cf757600080fd5b505af1158015611d0b573d6000803e3d6000fd5b50505050611d1e8a8d84848a8d8d61326d565b604051630b44c60160e01b81526001600160a01b038d811660048301528b15156024830152604482018d9052606482018b9052608482018a905260a4820189905260c4820188905260e48201879052841690630b44c6019061010401600060405180830381600087803b158015611d9457600080fd5b505af1158015611da8573d6000803e3d6000fd5b50505050505050505050505050505050565b6002546001600160a01b03163314611de45760405162461bcd60e51b81526004016104a890614038565b600280546001600160a01b0319166001600160a01b0383169081179091556040517fe435cbeab64e4eae6497b9d8289704bd709d624a80704ef3ca9af777534bc6ec90600090a250565b6040516394916c4760e01b81526000600482018190529073__$a374c895e6fa8c448878668e00d93ef99a$__906394916c479060240160206040518083038186803b158015611e7c57600080fd5b505af4158015611e90573d6000803e3d6000fd5b505050506040513d601f19601f82011682018060405250810190611eb49190614060565b905090565b604051632d16622360e11b8152600060048201526024810182905233604482015273__$a374c895e6fa8c448878668e00d93ef99a$__90635a2cc4469060640161139e565b604051632c7ebf7360e01b8152600060048201819052602482018490526001600160a01b03831660448301529073__$a374c895e6fa8c448878668e00d93ef99a$__90632c7ebf739060640160206040518083038186803b158015611f6257600080fd5b505af4158015611f76573d6000803e3d6000fd5b505050506040513d601f19601f82011682018060405250810190611f9a9190614725565b9392505050565b60405163f17b815160e01b815273__$a374c895e6fa8c448878668e00d93ef99a$__9063f17b815190611fdf90600090869086903390600401614759565b60006040518083038186803b158015611ff757600080fd5b505af415801561200b573d6000803e3d6000fd5b50506040516001600160a01b03841692508491507fc58ebc6bc4ca6dc8356357e625ffa0eb58d0db30d94a31a80a840e1cc74d2df990600090a35050565b6002546001600160a01b031633146120735760405162461bcd60e51b81526004016104a890614038565b60006120876004546001600160a01b031690565b6040516351b171a360e01b8152600160048201526024810185905290915085906001600160a01b038216906351b171a39060440160206040518083038186803b1580156120d357600080fd5b505afa1580156120e7573d6000803e3d6000fd5b505050506040513d601f19601f8201168201806040525081019061210b9190614725565b156121585760405162461bcd60e51b815260206004820152601d60248201527f5348414b2e4546523a206672436c61696d65722069732073656c6c657200000060448201526064016104a8565b60405163cdf4b38760e01b8152600481018690526000906001600160a01b0383169063cdf4b387906024016101406040518083038186803b15801561219c57600080fd5b505afa1580156121b0573d6000803e3d6000fd5b505050506040513d601f19601f820116820180604052508101906121d49190614a29565b90506000836001600160a01b031663a61adc286040518163ffffffff1660e01b815260040160206040518083038186803b15801561221157600080fd5b505afa158015612225573d6000803e3d6000fd5b505050506040513d601f19601f820116820180604052508101906122499190614060565b6001600160a01b031663484620378b6040518263ffffffff1660e01b815260040161227691815260200190565b60206040518083038186803b15801561228e57600080fd5b505afa1580156122a2573d6000803e3d6000fd5b505050506040513d601f19601f820116820180604052508101906122c69190614a46565b6040516375d6f2ff60e11b8152600481019190915273__$fd7bbdaedbcbc33e1887256b0ab47b2b43$__9063ebade5fe906024016101a06040518083038186803b15801561231357600080fd5b505af4158015612327573d6000803e3d6000fd5b505050506040513d601f19601f8201168201806040525081019061234b9190614ad3565b9050816000015160ff16816060015160ff16146123bc5760405162461bcd60e51b815260206004820152602960248201527f5348414b2e4546523a2072756c6520616e64206465616c20617265206e6f742060448201526873616d65207479706560b81b60648201526084016104a8565b806080015180156124b65750836001600160a01b03166333fb96ee6040518163ffffffff1660e01b815260040160206040518083038186803b15801561240157600080fd5b505afa158015612415573d6000803e3d6000fd5b505050506040513d601f19601f820116820180604052508101906124399190614060565b6001600160a01b031663d50c7377876040518263ffffffff1660e01b815260040161246691815260200190565b60206040518083038186803b15801561247e57600080fd5b505afa158015612492573d6000803e3d6000fd5b505050506040513d601f19601f820116820180604052508101906124b69190614725565b806124e15750858160e001518a600481106124d3576124d36145a6565b602002015164ffffffffff16145b61252d5760405162461bcd60e51b815260206004820181905260248201527f5348414b2e4546523a2063616c6c6572204e4f54207269676874686f6c64657260448201526064016104a8565b836001600160a01b0316630771d84e6040518163ffffffff1660e01b815260040160206040518083038186803b15801561256657600080fd5b505afa15801561257a573d6000803e3d6000fd5b505050506040513d601f19601f8201168201806040525081019061259e9190614060565b60405163f34d89cd60e01b81526001600160a01b038a81166004830152602482018a90526044820189905260648201889052919091169063f34d89cd90608401600060405180830381600087803b1580156125f857600080fd5b505af115801561260c573d6000803e3d6000fd5b5050604051637b019deb60e01b8152600481018a90526001600160a01b0386169250637b019deb9150602401602060405180830381600087803b15801561265257600080fd5b505af1158015612666573d6000803e3d6000fd5b505050506040513d601f19601f820116820180604052508101906118509190614725565b60405163303b779f60e01b815273__$a374c895e6fa8c448878668e00d93ef99a$__9063303b779f906109fc90600090869086903390600401614759565b6002546001600160a01b031633146126f25760405162461bcd60e51b81526004016104a890614038565b60006127066004546001600160a01b031690565b90506000816001600160a01b03166333fb96ee6040518163ffffffff1660e01b815260040160206040518083038186803b15801561274357600080fd5b505afa158015612757573d6000803e3d6000fd5b505050506040513d601f19601f8201168201806040525081019061277b9190614060565b6040516320bf56eb60e21b81526004810186905290915085906000906001600160a01b038316906382fd5bac906024016102606040518083038186803b1580156127c457600080fd5b505afa1580156127d8573d6000803e3d6000fd5b505050506040513d601f19601f820116820180604052508101906127fc9190614352565b805160a00151604051633436731360e01b81526001600482015264ffffffffff90911660248201529091506000906001600160a01b0384169063343673139060440160006040518083038186803b15801561285657600080fd5b505afa15801561286a573d6000803e3d6000fd5b505050506040513d6000823e601f3d908101601f191682016040526128929190810190614b9e565b60405163d50c737760e01b8152600481018a90529093506001600160a01b038716925063d50c7377915060240160206040518083038186803b1580156128d757600080fd5b505afa1580156128eb573d6000803e3d6000fd5b505050506040513d601f19601f8201168201806040525081019061290f9190614725565b61295b5760405162461bcd60e51b815260206004820152601f60248201527f5348414b65657065722e636f6d7075746546523a206e6f74206d656d6265720060448201526064016104a8565b6000856001600160a01b0316630771d84e6040518163ffffffff1660e01b815260040160206040518083038186803b15801561299657600080fd5b505afa1580156129aa573d6000803e3d6000fd5b505050506040513d601f19601f820116820180604052508101906129ce9190614060565b60405163c0e4aecd60e01b81526001600160a01b038b81166004830152602482018b9052919091169063c0e4aecd90604401600060405180830381600087803b158015612a1a57600080fd5b505af1158015612a2e573d6000803e3d6000fd5b505050506040513d6000823e601f3d908101601f19168201604052612a569190810190614ca3565b80519091505b8015612aa357612a91858584612a7360018661458f565b81518110612a8357612a836145a6565b602002602001015189613b5e565b80612a9b81614742565b915050612a5c565b835160a00151604051630cac562d60e11b81526000600482015264ffffffffff9091166024820152604481018490526001600160a01b03861690631958ac5a90606401600060405180830381600087803b158015612b0057600080fd5b505af1158015612b14573d6000803e3d6000fd5b5050505050505050505050505050565b600054600160a01b900460ff16600114612b805760405162461bcd60e51b815260206004820152601c60248201527f41432e6c6f636b436f6e74656e74733a2077726f6e672073746174650000000060448201526064016104a8565b60405163bf2755e360e01b815260006004820152684174746f726e65797360b81b602482015233604482018190529073__$a374c895e6fa8c448878668e00d93ef99a$__9063bf2755e39060640160006040518083038186803b158015612be657600080fd5b505af4158015612bfa573d6000803e3d6000fd5b50506040516351e7e80560e01b815260006004820181905260248201526001600160a01b038416604482015273__$a374c895e6fa8c448878668e00d93ef99a$__92506351e7e805915060640160006040518083038186803b158015612c5f57600080fd5b505af4158015612c73573d6000803e3d6000fd5b50506000805460ff60a01b1916600160a11b1781556040517f35012b512309c322acf68632cd6cb702ff0e1d776fbe9394e38ffc13b434fe759350909150a150565b604051806101400160405280846000015160ff16600014612cd7576005612cda565b60065b60ff168152602001600061ffff16815260200183600001516020015161ffff16815260200182600001516040015161ffff16815260200182600001516000015163ffffffff16815260200182600001516080015164ffffffffff168152602001836000015160c0015163ffffffff168152602001836000015160e0015163ffffffff1681526020018360000151610100015165ffffffffffff168152602001600061ffff16815250826000018190525060405180610100016040528083602001516000015164ffffffffff16815260200183602001516020015164ffffffffff16815260200184604001516001600160401b0316815260200184606001516001600160401b0316815260200160016004811115612df957612df9614780565b60ff16815260006020808301829052604080840183905260609093019190915284019190915251631f24908560e31b81526001600160a01b0385169063f924842890612e49908590600401614f0a565b602060405180830381600087803b158015612e6357600080fd5b505af1158015612e77573d6000803e3d6000fd5b505050506040513d601f19601f82011682018060405250810190612e9b9190614f19565b506004546001600160a01b03166001600160a01b031663f01e100f6040518163ffffffff1660e01b815260040160206040518083038186803b158015612ee057600080fd5b505afa158015612ef4573d6000803e3d6000fd5b505050506040513d601f19601f82011682018060405250810190612f189190614060565b81515160408581015190516360d095df60e01b815263ffffffff90921660048301526001600160401b031660248201526001600160a01b0391909116906360d095df90604401600060405180830381600087803b158015612f7857600080fd5b505af1158015612f8c573d6000803e3d6000fd5b5050505050505050565b6040516319f6b4bf60e31b81526004810184905260009081906001600160a01b0384169063cfb5a5f8906024016101e06040518083038186803b158015612fdc57600080fd5b505afa158015612ff0573d6000803e3d6000fd5b505050506040513d601f19601f82011682018060405250810190613014919061463e565b90506000808260200151606001516001600160401b0316111561325757846001600160401b03168260200151606001516001600160401b0316106130585784613062565b8160200151606001515b8251604090810151895161ffff9091166060918201528451518a5163ffffffff909116608091820152855101518a5164ffffffffff90911660a09091015260208a0180516001600160401b03851690840181905290519091015251631f24908560e31b81529091506001600160a01b0389169063f9248428906130e9908a90600401614f0a565b602060405180830381600087803b15801561310357600080fd5b505af1158015613117573d6000803e3d6000fd5b505050506040513d601f19601f8201168201806040525081019061313b9190614f19565b50865160a0810151608090910151604051633f1f1f8560e21b815264ffffffffff909216600483015265ffffffffffff4216602483015263ffffffff1660448201526001600160a01b0389169063fc7c7e1490606401602060405180830381600087803b1580156131ab57600080fd5b505af11580156131bf573d6000803e3d6000fd5b505050506040513d601f19601f820116820180604052508101906131e39190614725565b508151516040516360d095df60e01b815263ffffffff90911660048201526001600160401b03821660248201526001600160a01b038516906360d095df90604401600060405180830381600087803b15801561323e57600080fd5b505af1158015613252573d6000803e3d6000fd5b505050505b6132618186614f34565b98975050505050505050565b60006132816004546001600160a01b031690565b905060008861337957816001600160a01b031663a61adc286040518163ffffffff1660e01b815260040160206040518083038186803b1580156132c357600080fd5b505afa1580156132d7573d6000803e3d6000fd5b505050506040513d601f19601f820116820180604052508101906132fb9190614060565b60405163346ba94160e01b81526004818101526001600160a01b03919091169063346ba9419060240160206040518083038186803b15801561333c57600080fd5b505afa158015613350573d6000803e3d6000fd5b505050506040513d601f19601f820116820180604052508101906133749190614060565b613464565b816001600160a01b031663a61adc286040518163ffffffff1660e01b815260040160206040518083038186803b1580156133b257600080fd5b505afa1580156133c6573d6000803e3d6000fd5b505050506040513d601f19601f820116820180604052508101906133ea9190614060565b60405163346ba94160e01b8152600360048201526001600160a01b03919091169063346ba9419060240160206040518083038186803b15801561342c57600080fd5b505afa158015613440573d6000803e3d6000fd5b505050506040513d601f19601f820116820180604052508101906134649190614060565b875160a00151875160800151604051635ba7f16360e01b815264ffffffffff9283166004820152911660248201529091506001600160a01b03821690635ba7f1639060440160206040518083038186803b1580156134c157600080fd5b505afa1580156134d5573d6000803e3d6000fd5b505050506040513d601f19601f820116820180604052508101906134f99190614725565b6135455760405162461bcd60e51b815260206004820152601c60248201527f5348414b2e636865636b416c6f6e67733a204e4f54206c696e6b65640000000060448201526064016104a8565b60405163e065228560e01b81526001600160a01b0382169063e065228590613573908b908b90600401614f5c565b60206040518083038186803b15801561358b57600080fd5b505afa15801561359f573d6000803e3d6000fd5b505050506040513d601f19601f820116820180604052508101906135c39190614725565b61360f5760405162461bcd60e51b815260206004820152601f60248201527f5348414b2e636865636b416c6f6e67733a206e6f74207472696767657265640060448201526064016104a8565b881561367557865160a0015164ffffffffff1685146136705760405162461bcd60e51b815260206004820152601c60248201527f5348414b2e636865636b416c6f6e67733a206e6f74206472616765720000000060448201526064016104a8565b6137a6565b85516080015164ffffffffff1685146136d05760405162461bcd60e51b815260206004820152601e60248201527f5348414b2e636865636b416c6f6e67733a206e6f7420666f6c6c6f776572000060448201526064016104a8565b60405163b115233560e01b815260016004820152602481018690526001600160a01b0389169063b11523359060440160206040518083038186803b15801561371757600080fd5b505afa15801561372b573d6000803e3d6000fd5b505050506040513d601f19601f8201168201806040525081019061374f9190614725565b156137a65760405162461bcd60e51b815260206004820152602160248201527f5348414b2e636865636b416c6f6e67733a2063616c6c657220697320427579656044820152603960f91b60648201526084016104a8565b865160a0015160405163444fb72160e01b815264ffffffffff90911660048201526001600160a01b0382169063444fb721906024016101606040518083038186803b1580156137f457600080fd5b505afa158015613808573d6000803e3d6000fd5b505050506040513d601f19601f8201168201806040525081019061382c9190614f7a565b60a0015115613b535760006138496004546001600160a01b031690565b6001600160a01b03166333fb96ee6040518163ffffffff1660e01b815260040160206040518083038186803b15801561388157600080fd5b505afa158015613895573d6000803e3d6000fd5b505050506040513d601f19601f820116820180604052508101906138b99190614060565b9050806001600160a01b031663e4df91006040518163ffffffff1660e01b815260040160206040518083038186803b1580156138f457600080fd5b505afa158015613908573d6000803e3d6000fd5b505050506040513d601f19601f8201168201806040525081019061392c9190614725565b15613a4457875160a001516040516315fc64a760e21b815264ffffffffff90911660048201526001600160a01b038216906357f1929c9060240160206040518083038186803b15801561397e57600080fd5b505afa158015613992573d6000803e3d6000fd5b505050506040513d601f19601f820116820180604052508101906139b691906148a6565b8760200151604001518960200151606001516139d29190615049565b6139dc9190615078565b6001600160401b0316841115613a3f5760405162461bcd60e51b815260206004820152602260248201527f5348414b65657065722e636865636b416c6f6e673a20706172206f766572666c6044820152616f7760f01b60648201526084016104a8565b61091f565b875160a001516040516315fc64a760e21b815264ffffffffff90911660048201526001600160a01b038216906357f1929c9060240160206040518083038186803b158015613a9157600080fd5b505afa158015613aa5573d6000803e3d6000fd5b505050506040513d601f19601f82011682018060405250810190613ac991906148a6565b876020015160200151896020015160400151613ae59190615049565b613aef9190615078565b6001600160401b031685111561091f5760405162461bcd60e51b815260206004820152602360248201527f5348414b65657065722e636865636b416c6f6e673a2070616964206f766572666044820152626c6f7760e81b60648201526084016104a8565b505050505050505050565b82516080015163ffffffff1615613b7a57825160079052613b81565b8251600490525b825160208082015161ffff1660409283015283810180519186015164ffffffffff928316905251915163302e2f6360e11b8152911660048201526001600160a01b0382169063605c5ec69060240160206040518083038186803b158015613be757600080fd5b505afa158015613bfb573d6000803e3d6000fd5b505050506040513d601f19601f82011682018060405250810190613c1f9190614963565b6020808501805164ffffffffff9093169290910191909152606083015190516040015161271091613c4f91615049565b613c599190615078565b6020840180516001600160401b039092166040909201919091526060808401519151015161271091613c8a91615049565b613c949190615078565b6020840180516001600160401b0392909216606090920191909152516001608090910152604051631f24908560e31b81526001600160a01b0385169063f924842890613ce4908690600401614f0a565b602060405180830381600087803b158015613cfe57600080fd5b505af1158015613d12573d6000803e3d6000fd5b505050506040513d601f19601f82011682018060405250810190613d369190614f19565b506020820151608083015160a0840151604051633f1f1f8560e21b815264ffffffffff909316600484015265ffffffffffff909116602483015260448201526001600160a01b0385169063fc7c7e1490606401602060405180830381600087803b158015613da357600080fd5b505af1158015613db7573d6000803e3d6000fd5b505050506040513d601f19601f820116820180604052508101906113ca9190614725565b6001600160a01b0381168114613df057600080fd5b50565b60008060008060808587031215613e0957600080fd5b8435613e1481613ddb565b93506020850135613e2481613ddb565b92506040850135613e3481613ddb565b91506060850135613e4481613ddb565b939692955090935050565b600060208284031215613e6157600080fd5b8135611f9a81613ddb565b60008060008060808587031215613e8257600080fd5b8435613e8d81613ddb565b966020860135965060408601359560600135945092505050565b600060208284031215613eb957600080fd5b5035919050565b60008060408385031215613ed357600080fd5b823591506020830135613ee581613ddb565b809150509250929050565b600080600080600060a08688031215613f0857600080fd5b8535613f1381613ddb565b97602087013597506040870135966060810135965060800135945092505050565b600080600060608486031215613f4957600080fd5b8335613f5481613ddb565b95602085013595506040909401359392505050565b8015158114613df057600080fd5b600080600080600080600080610100898b031215613f9457600080fd5b8835613f9f81613ddb565b9750602089013596506040890135613fb681613f69565b979a96995096976060810135975060808101359660a0820135965060c0820135955060e0909101359350915050565b60008060008060008060c08789031215613ffe57600080fd5b8635955060208701359450604087013561401781613ddb565b959894975094956060810135955060808101359460a0909101359350915050565b6020808252600e908201526d1050cb9bdb9b1e5112ce881393d560921b604082015260600190565b60006020828403121561407257600080fd5b8151611f9a81613ddb565b634e487b7160e01b600052604160045260246000fd5b60405161014081016001600160401b03811182821017156140b6576140b661407d565b60405290565b604051606081016001600160401b03811182821017156140b6576140b661407d565b60405161010081016001600160401b03811182821017156140b6576140b661407d565b60405160e081016001600160401b03811182821017156140b6576140b661407d565b60405160c081016001600160401b03811182821017156140b6576140b661407d565b604080519081016001600160401b03811182821017156140b6576140b661407d565b60405161012081016001600160401b03811182821017156140b6576140b661407d565b6040516101c081016001600160401b03811182821017156140b6576140b661407d565b60405161016081016001600160401b03811182821017156140b6576140b661407d565b604051601f8201601f191681016001600160401b03811182821017156141f8576141f861407d565b604052919050565b805160ff8116811461421157600080fd5b919050565b805161ffff8116811461421157600080fd5b805163ffffffff8116811461421157600080fd5b805164ffffffffff8116811461421157600080fd5b805165ffffffffffff8116811461421157600080fd5b6000610140828403121561427a57600080fd5b614282614093565b905061428d82614200565b815261429b60208301614216565b60208201526142ac60408301614216565b60408201526142bd60608301614216565b60608201526142ce60808301614228565b60808201526142df60a0830161423c565b60a08201526142f060c08301614228565b60c082015261430160e08301614228565b60e0820152610100614314818401614251565b90820152610120614326838201614216565b9082015292915050565b80516001600160401b038116811461421157600080fd5b805161421181613f69565b600081830361026081121561436657600080fd5b61436e6140bc565b6143788585614267565b815261010061013f198301121561438e57600080fd5b6143966140de565b91506143a5610140850161423c565b82526143b4610160850161423c565b60208301526143c66101808501614330565b60408301526143d86101a08501614330565b60608301526143ea6101c08501614200565b60808301526143fc6101e08501614216565b60a083015261440e6102008501614216565b60c083015261022084015161442281613f69565b60e083015260208101919091526102409290920151604083015250919050565b60006001600160401b0382111561445b5761445b61407d565b5060051b60200190565b6000602080838503121561447857600080fd5b82516001600160401b0381111561448e57600080fd5b8301601f8101851361449f57600080fd5b80516144b26144ad82614442565b6141d0565b81815260e091820283018401918482019190888411156144d157600080fd5b938501935b8385101561456d5780858a0312156144ee5760008081fd5b6144f6614101565b6144ff86614200565b815261450c878701614228565b87820152604061451d818801614330565b90820152606061452e878201614330565b90820152608061453f87820161423c565b9082015260a0614550878201614251565b9082015260c08681015190820152835293840193918501916144d6565b50979650505050505050565b634e487b7160e01b600052601160045260246000fd5b6000828210156145a1576145a1614579565b500390565b634e487b7160e01b600052603260045260246000fd5b600060c082840312156145ce57600080fd5b6145d6614123565b90506145e182614251565b81526145ef60208301614330565b602082015261460060408301614330565b604082015261461160608301614330565b606082015261462260808301614200565b608082015261463360a08301614200565b60a082015292915050565b60008183036101e081121561465257600080fd5b61465a614145565b6101208083121561466a57600080fd5b614672614167565b925061467d85614228565b835261468b60208601614228565b602084015261469c60408601614216565b60408401526146ad60608601614251565b60608401526146be6080860161423c565b60808401526146cf60a08601614228565b60a08401526146e060c08601614228565b60c08401526146f160e08601614216565b60e0840152610100614704818701614200565b90840152828252614717868683016145bc565b602083015250949350505050565b60006020828403121561473757600080fd5b8151611f9a81613f69565b60008161475157614751614579565b506000190190565b93845260208401929092526001600160a01b03908116604084015216606082015260800190565b634e487b7160e01b600052602160045260246000fd5b60006101c082840312156147a957600080fd5b6147b161418a565b6147ba83614251565b81526147c860208401614200565b60208201526147d960408401614200565b60408201526147ea60608401614216565b60608201526147fb60808401614200565b608082015261480c60a08401614200565b60a082015261481d60c08401614200565b60c082015261482e60e08401614251565b60e0820152610100614841818501614200565b90820152610120614853848201614200565b90820152610140614865848201614200565b90820152610160614877848201614200565b90820152610180614889848201614330565b908201526101a061489b848201614200565b908201529392505050565b6000602082840312156148b857600080fd5b611f9a82614330565b600082601f8301126148d257600080fd5b815160206148e26144ad83614442565b82815260059290921b8401810191818101908684111561490157600080fd5b8286015b8481101561491c5780518352918301918301614905565b509695505050505050565b60006020828403121561493957600080fd5b81516001600160401b0381111561494f57600080fd5b61495b848285016148c1565b949350505050565b60006020828403121561497557600080fd5b611f9a8261423c565b6000602080838503121561499157600080fd5b82516001600160401b038111156149a757600080fd5b8301601f810185136149b857600080fd5b80516149c66144ad82614442565b81815260059190911b820183019083810190878311156149e557600080fd5b928401925b82841015614a03578351825292840192908401906149ea565b979650505050505050565b6000600019821415614a2257614a22614579565b5060010190565b60006101408284031215614a3c57600080fd5b611f9a8383614267565b600060208284031215614a5857600080fd5b5051919050565b600082601f830112614a7057600080fd5b604051608081018181106001600160401b0382111715614a9257614a9261407d565b604052806080840185811115614aa757600080fd5b845b81811015614ac857614aba8161423c565b835260209283019201614aa9565b509195945050505050565b60006101a08284031215614ae657600080fd5b614aee614093565b614af783614216565b8152614b0560208401614200565b6020820152614b1660408401614200565b6040820152614b2760608401614200565b6060820152614b3860808401614347565b6080820152614b4960a08401614347565b60a0820152614b5a60c08401614347565b60c0820152614b6c8460e08501614a5f565b60e0820152614b7e6101608401614216565b610100820152614b916101808401614216565b6101208201529392505050565b6000806000838503610160811215614bb557600080fd5b84516001600160401b03811115614bcb57600080fd5b614bd7878288016148c1565b94505061012080601f1983011215614bee57600080fd5b614bf6614167565b9150614c046020870161423c565b8252614c1260408701614251565b6020830152614c2360608701614330565b6040830152614c3460808701614347565b6060830152614c4560a08701614216565b6080830152614c5660c08701614216565b60a0830152614c6760e08701614216565b60c0830152610100614c7a818801614216565b60e0840152614c8a828801614228565b8184015250508092505061014084015190509250925092565b60006020808385031215614cb657600080fd5b82516001600160401b03811115614ccc57600080fd5b8301601f81018513614cdd57600080fd5b8051614ceb6144ad82614442565b81815260c09182028301840191848201919088841115614d0a57600080fd5b938501935b8385101561456d5780858a031215614d275760008081fd5b614d2f614123565b614d3886614216565b8152614d4587870161423c565b878201526040614d56818801614330565b908201526060614d67878201614330565b908201526080614d78878201614251565b9082015260a0868101519082015283529384019391850191614d0f565b64ffffffffff8082511683528060208301511660208401525060408101516001600160401b038082166040850152806060840151166060850152505060ff608082015116608083015261ffff60a08201511660a083015260c0810151614e0160c084018261ffff169052565b5060e0810151614e1560e084018215159052565b505050565b8051805160ff1683526020810151614e38602085018261ffff169052565b506040810151614e4e604085018261ffff169052565b506060810151614e64606085018261ffff169052565b506080810151614e7c608085018263ffffffff169052565b5060a0810151614e9560a085018264ffffffffff169052565b5060c0810151614ead60c085018263ffffffff169052565b5060e0810151614ec560e085018263ffffffff169052565b506101008181015165ffffffffffff16908401526101209081015161ffff16908301526020810151614efb610140840182614d95565b50604001516102409190910152565b61026081016109b88284614e1a565b600060208284031215614f2b57600080fd5b611f9a82614216565b60006001600160401b0383811690831681811015614f5457614f54614579565b039392505050565b6001600160a01b03831681526102808101611f9a6020830184614e1a565b60006101608284031215614f8d57600080fd5b614f956141ad565b614f9e83614251565b8152614fac60208401614216565b6020820152614fbd60408401614200565b6040820152614fce60608401614216565b6060820152614fdf60808401614228565b6080820152614ff060a08401614347565b60a082015261500160c08401614216565b60c082015261501260e08401614216565b60e0820152610100615025818501614216565b90820152610120615037848201614216565b9082015261014061489b848201614330565b60006001600160401b038083168185168183048111821515161561506f5761506f614579565b02949350505050565b60006001600160401b03808416806150a057634e487b7160e01b600052601260045260246000fd5b9216919091049291505056fea2646970667358221220cfff9ade93771c74c97fecc882b13bb99814ff1f42d581597801a19138f08d8d64736f6c63430008080033",
    "sourcePath": "/Users/kaptain/github.com/comboox/comboox/contracts/keepers/SHAKeeper.sol",
    "compiler": {
        "name": "solc",
        "version": "0.8.8+commit.dddeac2f"
    },
    "functionHashes": {
        "abandonRole(bytes32)": "3da9a600",
        "acceptAlongDeal(address,uint256,uint256,bytes32)": "159186c1",
        "computeFirstRefusal(address,uint256,uint256)": "d5572bac",
        "execAlongRight(address,uint256,bool,uint256,uint256,uint256,uint256,bytes32)": "651c7b08",
        "execAntiDilution(address,uint256,uint256,uint256,bytes32)": "325508d5",
        "execFirstRefusal(uint256,uint256,address,uint256,uint256,bytes32)": "c65511d8",
        "getDK()": "50627aea",
        "getOwner()": "893d20e8",
        "getRoleAdmin(bytes32)": "248a9ca3",
        "grantRole(bytes32,address)": "2f2ff15d",
        "hasRole(bytes32,address)": "91d14854",
        "init(address,address,address,address)": "06552ff3",
        "isFinalized()": "8d4e4083",
        "lockContents()": "f045a769",
        "renounceRole(bytes32)": "8bb9c5bf",
        "revokeRole(bytes32,address)": "d547741f",
        "setDirectKeeper(address)": "6be8496f",
        "setOwner(address)": "13af4035",
        "setRoleAdmin(bytes32,address)": "ad763192",
        "takeBackKeys(address)": "40b6c23e",
        "takeGiftShares(address,uint256,uint256)": "58677418"
    },
    "gasEstimates": {
        "creation": {
            "codeDepositCost": "4141200",
            "executionCost": "4759",
            "totalCost": "4145959"
        },
        "external": {
            "abandonRole(bytes32)": "infinite",
            "acceptAlongDeal(address,uint256,uint256,bytes32)": "infinite",
            "computeFirstRefusal(address,uint256,uint256)": "infinite",
            "execAlongRight(address,uint256,bool,uint256,uint256,uint256,uint256,bytes32)": "infinite",
            "execAntiDilution(address,uint256,uint256,uint256,bytes32)": "infinite",
            "execFirstRefusal(uint256,uint256,address,uint256,uint256,bytes32)": "infinite",
            "getDK()": "2409",
            "getOwner()": "infinite",
            "getRoleAdmin(bytes32)": "infinite",
            "grantRole(bytes32,address)": "infinite",
            "hasRole(bytes32,address)": "infinite",
            "init(address,address,address,address)": "infinite",
            "isFinalized()": "2427",
            "lockContents()": "infinite",
            "renounceRole(bytes32)": "infinite",
            "revokeRole(bytes32,address)": "infinite",
            "setDirectKeeper(address)": "27889",
            "setOwner(address)": "infinite",
            "setRoleAdmin(bytes32,address)": "infinite",
            "takeBackKeys(address)": "infinite",
            "takeGiftShares(address,uint256,uint256)": "infinite"
        },
        "internal": {
            "_checkAlongDeal(bool,address,struct DealsRepo.Deal memory,struct SharesRepo.Share memory,uint256,uint256,uint256)": "infinite",
            "_createAlongDeal(contract IInvestmentAgreement,struct DTClaims.Claim memory,struct DealsRepo.Deal memory,struct SharesRepo.Share memory)": "infinite",
            "_createFRDeal(contract IInvestmentAgreement,struct DealsRepo.Deal memory,struct FRClaims.Claim memory,contract IRegisterOfMembers)": "infinite",
            "_createGift(contract IInvestmentAgreement,struct DealsRepo.Deal memory,uint256,uint64,contract IBookOfShares)": "infinite"
        }
    }
}