{
    "contractName": "SHAKeeper",
    "abi": [
        {
            "anonymous": false,
            "inputs": [
                {
                    "indexed": false,
                    "internalType": "uint256",
                    "name": "owner",
                    "type": "uint256"
                },
                {
                    "indexed": false,
                    "internalType": "address",
                    "name": "directKeeper",
                    "type": "address"
                },
                {
                    "indexed": false,
                    "internalType": "address",
                    "name": "regCenter",
                    "type": "address"
                },
                {
                    "indexed": false,
                    "internalType": "address",
                    "name": "generalKeeper",
                    "type": "address"
                }
            ],
            "name": "Init",
            "type": "event"
        },
        {
            "anonymous": false,
            "inputs": [],
            "name": "LockContents",
            "type": "event"
        },
        {
            "anonymous": false,
            "inputs": [
                {
                    "indexed": false,
                    "internalType": "address",
                    "name": "keeper",
                    "type": "address"
                }
            ],
            "name": "SetDirectKeeper",
            "type": "event"
        },
        {
            "anonymous": false,
            "inputs": [
                {
                    "indexed": false,
                    "internalType": "uint256",
                    "name": "acct",
                    "type": "uint256"
                }
            ],
            "name": "SetGeneralCounsel",
            "type": "event"
        },
        {
            "anonymous": false,
            "inputs": [
                {
                    "indexed": false,
                    "internalType": "address",
                    "name": "gk",
                    "type": "address"
                }
            ],
            "name": "SetGeneralKeeper",
            "type": "event"
        },
        {
            "anonymous": false,
            "inputs": [
                {
                    "indexed": false,
                    "internalType": "uint256",
                    "name": "acct",
                    "type": "uint256"
                }
            ],
            "name": "SetOwner",
            "type": "event"
        },
        {
            "anonymous": false,
            "inputs": [
                {
                    "indexed": false,
                    "internalType": "address",
                    "name": "rc",
                    "type": "address"
                }
            ],
            "name": "SetRegCenter",
            "type": "event"
        },
        {
            "inputs": [
                {
                    "internalType": "bytes32",
                    "name": "role",
                    "type": "bytes32"
                }
            ],
            "name": "abandonRole",
            "outputs": [],
            "stateMutability": "nonpayable",
            "type": "function"
        },
        {
            "inputs": [
                {
                    "internalType": "address",
                    "name": "ia",
                    "type": "address"
                },
                {
                    "internalType": "uint256",
                    "name": "seqOfDeal",
                    "type": "uint256"
                },
                {
                    "internalType": "uint256",
                    "name": "seqOfShare",
                    "type": "uint256"
                },
                {
                    "internalType": "uint256",
                    "name": "caller",
                    "type": "uint256"
                },
                {
                    "internalType": "bytes32",
                    "name": "sigHash",
                    "type": "bytes32"
                }
            ],
            "name": "acceptAlongDeal",
            "outputs": [],
            "stateMutability": "nonpayable",
            "type": "function"
        },
        {
            "inputs": [
                {
                    "internalType": "address",
                    "name": "ia",
                    "type": "address"
                },
                {
                    "internalType": "uint256",
                    "name": "seqOfDeal",
                    "type": "uint256"
                },
                {
                    "internalType": "uint256",
                    "name": "caller",
                    "type": "uint256"
                },
                {
                    "internalType": "bytes32",
                    "name": "sigHash",
                    "type": "bytes32"
                }
            ],
            "name": "acceptFirstRefusal",
            "outputs": [],
            "stateMutability": "nonpayable",
            "type": "function"
        },
        {
            "inputs": [
                {
                    "internalType": "address",
                    "name": "ia",
                    "type": "address"
                },
                {
                    "internalType": "uint256",
                    "name": "seqOfDeal",
                    "type": "uint256"
                },
                {
                    "internalType": "bool",
                    "name": "dragAlong",
                    "type": "bool"
                },
                {
                    "internalType": "uint256",
                    "name": "seqOfShare",
                    "type": "uint256"
                },
                {
                    "internalType": "uint64",
                    "name": "paid",
                    "type": "uint64"
                },
                {
                    "internalType": "uint64",
                    "name": "par",
                    "type": "uint64"
                },
                {
                    "internalType": "uint256",
                    "name": "caller",
                    "type": "uint256"
                },
                {
                    "internalType": "bytes32",
                    "name": "sigHash",
                    "type": "bytes32"
                }
            ],
            "name": "execAlongRight",
            "outputs": [],
            "stateMutability": "nonpayable",
            "type": "function"
        },
        {
            "inputs": [
                {
                    "internalType": "address",
                    "name": "ia",
                    "type": "address"
                },
                {
                    "internalType": "uint256",
                    "name": "seqOfDeal",
                    "type": "uint256"
                },
                {
                    "internalType": "uint256",
                    "name": "seqOfShare",
                    "type": "uint256"
                },
                {
                    "internalType": "uint256",
                    "name": "caller",
                    "type": "uint256"
                },
                {
                    "internalType": "bytes32",
                    "name": "sigHash",
                    "type": "bytes32"
                }
            ],
            "name": "execAntiDilution",
            "outputs": [],
            "stateMutability": "nonpayable",
            "type": "function"
        },
        {
            "inputs": [
                {
                    "internalType": "uint256",
                    "name": "seqOfFRRule",
                    "type": "uint256"
                },
                {
                    "internalType": "uint256",
                    "name": "seqOfRightholder",
                    "type": "uint256"
                },
                {
                    "internalType": "address",
                    "name": "ia",
                    "type": "address"
                },
                {
                    "internalType": "uint256",
                    "name": "seqOfDeal",
                    "type": "uint256"
                },
                {
                    "internalType": "uint256",
                    "name": "caller",
                    "type": "uint256"
                },
                {
                    "internalType": "bytes32",
                    "name": "sigHash",
                    "type": "bytes32"
                }
            ],
            "name": "execFirstRefusal",
            "outputs": [],
            "stateMutability": "nonpayable",
            "type": "function"
        },
        {
            "inputs": [],
            "name": "finalized",
            "outputs": [
                {
                    "internalType": "bool",
                    "name": "",
                    "type": "bool"
                }
            ],
            "stateMutability": "view",
            "type": "function"
        },
        {
            "inputs": [],
            "name": "getBookeeper",
            "outputs": [
                {
                    "internalType": "address",
                    "name": "",
                    "type": "address"
                }
            ],
            "stateMutability": "view",
            "type": "function"
        },
        {
            "inputs": [],
            "name": "getGeneralCounsel",
            "outputs": [
                {
                    "internalType": "uint40",
                    "name": "",
                    "type": "uint40"
                }
            ],
            "stateMutability": "view",
            "type": "function"
        },
        {
            "inputs": [],
            "name": "getOwner",
            "outputs": [
                {
                    "internalType": "uint40",
                    "name": "",
                    "type": "uint40"
                }
            ],
            "stateMutability": "view",
            "type": "function"
        },
        {
            "inputs": [
                {
                    "internalType": "bytes32",
                    "name": "role",
                    "type": "bytes32"
                },
                {
                    "internalType": "uint256",
                    "name": "acct",
                    "type": "uint256"
                }
            ],
            "name": "grantRole",
            "outputs": [],
            "stateMutability": "nonpayable",
            "type": "function"
        },
        {
            "inputs": [
                {
                    "internalType": "bytes32",
                    "name": "role",
                    "type": "bytes32"
                },
                {
                    "internalType": "uint256",
                    "name": "acct",
                    "type": "uint256"
                }
            ],
            "name": "hasRole",
            "outputs": [
                {
                    "internalType": "bool",
                    "name": "",
                    "type": "bool"
                }
            ],
            "stateMutability": "view",
            "type": "function"
        },
        {
            "inputs": [
                {
                    "internalType": "uint256",
                    "name": "owner",
                    "type": "uint256"
                },
                {
                    "internalType": "address",
                    "name": "directKeeper",
                    "type": "address"
                },
                {
                    "internalType": "address",
                    "name": "regCenter",
                    "type": "address"
                },
                {
                    "internalType": "address",
                    "name": "generalKeeper",
                    "type": "address"
                }
            ],
            "name": "init",
            "outputs": [],
            "stateMutability": "nonpayable",
            "type": "function"
        },
        {
            "inputs": [],
            "name": "lockContents",
            "outputs": [],
            "stateMutability": "nonpayable",
            "type": "function"
        },
        {
            "inputs": [
                {
                    "internalType": "bytes32",
                    "name": "role",
                    "type": "bytes32"
                }
            ],
            "name": "renounceRole",
            "outputs": [],
            "stateMutability": "nonpayable",
            "type": "function"
        },
        {
            "inputs": [
                {
                    "internalType": "bytes32",
                    "name": "role",
                    "type": "bytes32"
                },
                {
                    "internalType": "uint256",
                    "name": "acct",
                    "type": "uint256"
                }
            ],
            "name": "revokeRole",
            "outputs": [],
            "stateMutability": "nonpayable",
            "type": "function"
        },
        {
            "inputs": [
                {
                    "internalType": "address",
                    "name": "keeper",
                    "type": "address"
                }
            ],
            "name": "setDirectKeeper",
            "outputs": [],
            "stateMutability": "nonpayable",
            "type": "function"
        },
        {
            "inputs": [
                {
                    "internalType": "uint256",
                    "name": "acct",
                    "type": "uint256"
                }
            ],
            "name": "setGeneralCounsel",
            "outputs": [],
            "stateMutability": "nonpayable",
            "type": "function"
        },
        {
            "inputs": [
                {
                    "internalType": "uint256",
                    "name": "acct",
                    "type": "uint256"
                }
            ],
            "name": "setOwner",
            "outputs": [],
            "stateMutability": "nonpayable",
            "type": "function"
        },
        {
            "inputs": [
                {
                    "internalType": "bytes32",
                    "name": "role",
                    "type": "bytes32"
                },
                {
                    "internalType": "uint256",
                    "name": "acct",
                    "type": "uint256"
                }
            ],
            "name": "setRoleAdmin",
            "outputs": [],
            "stateMutability": "nonpayable",
            "type": "function"
        },
        {
            "inputs": [
                {
                    "internalType": "address",
                    "name": "ia",
                    "type": "address"
                },
                {
                    "internalType": "uint256",
                    "name": "seqOfDeal",
                    "type": "uint256"
                },
                {
                    "internalType": "uint40",
                    "name": "caller",
                    "type": "uint40"
                }
            ],
            "name": "takeGiftShares",
            "outputs": [],
            "stateMutability": "nonpayable",
            "type": "function"
        }
    ],
    "bytecode": "608060405234801561001057600080fd5b50615165806100206000396000f3fe608060405234801561001057600080fd5b50600436106101375760003560e01c80638041494e116100b8578063c65511d81161007c578063c65511d814610271578063dc890da914610284578063ed21102314610297578063f045a769146102b7578063f51147e3146102bf578063f61bf284146102d257600080fd5b80638041494e1461021c578063893d20e81461022f5780638bb9c5bf146102375780639c436a7d1461024a578063b3f05b971461025d57600080fd5b80634a14beb1116100ff5780634a14beb1146101ad5780635171ebd4146101c05780636be8496f146101d35780636c69e969146101e65780637e063c5a146101f957600080fd5b8063103f6edd1461013c57806319d61ad91461015f5780631b6ea9f914610174578063325508d5146101875780633da9a6001461019a575b600080fd5b6101446102e5565b60405164ffffffffff90911681526020015b60405180910390f35b61017261016d36600461413c565b610371565b005b61017261018236600461413c565b610405565b610172610195366004614176565b61042a565b6101726101a83660046141ba565b6109d8565b6101726101bb3660046141ba565b610aea565b6101726101ce36600461413c565b610cda565b6101726101e13660046141d3565b610cff565b6101726101f436600461420a565b610db1565b61020c61020736600461413c565b611163565b6040519015158152602001610156565b61017261022a3660046141ba565b611200565b6101446113e5565b6101726102453660046141ba565b611420565b61017261025836600461426f565b611479565b60028054600160f01b900460ff161461020c565b61017261027f3660046142f2565b611870565b610172610292366004614345565b611eb8565b61029f611f9b565b6040516001600160a01b039091168152602001610156565b610172612021565b6101726102cd366004614176565b61223f565b6101726102e0366004614398565b6127a3565b60405163e8c0cc1d60e01b81526002600482015260009073__$364aad554dc80380f414546becdd2c1584$__9063e8c0cc1d906024015b60206040518083038186803b15801561033457600080fd5b505af4158015610348573d6000803e3d6000fd5b505050506040513d601f19601f8201168201806040525081019061036c91906143e3565b905090565b73__$364aad554dc80380f414546becdd2c1584$__6382daafaa600284610396612c7e565b6040516001600160e01b031960e086901b1681526004810193909352602483019190915264ffffffffff166044820152606481018490526084015b60006040518083038186803b1580156103e957600080fd5b505af41580156103fd573d6000803e3d6000fd5b505050505050565b73__$364aad554dc80380f414546becdd2c1584$__636320d75e600284610396612c7e565b604051633b11adbf60e21b81526002600482015233602482015273__$364aad554dc80380f414546becdd2c1584$__9063ec46b6fc9060440160206040518083038186803b15801561047b57600080fd5b505af415801561048f573d6000803e3d6000fd5b505050506040513d601f19601f820116820180604052508101906104b3919061440b565b6104d85760405162461bcd60e51b81526004016104cf90614428565b60405180910390fd5b8460036104e3612cd8565b60405163de154c2760e01b81526001600160a01b038481166004830152919091169063de154c279060240160c06040518083038186803b15801561052657600080fd5b505afa15801561053a573d6000803e3d6000fd5b505050506040513d601f19601f8201168201806040525081019061055e91906145af565b60a0015160ff16146105a75760405162461bcd60e51b81526020600482015260126024820152711250481b9bdd08195cdd18589b1a5cda195960721b60448201526064016104cf565b85426105b1612cd8565b60405163de154c2760e01b81526001600160a01b038481166004830152919091169063de154c279060240160c06040518083038186803b1580156105f457600080fd5b505afa158015610608573d6000803e3d6000fd5b505050506040513d601f19601f8201168201806040525081019061062c91906145af565b6060015165ffffffffffff16116106555760405162461bcd60e51b81526004016104cf9061464f565b600061065f612d3b565b6001600160a01b031663cfb5a5f8876040518263ffffffff1660e01b815260040161068c91815260200190565b6101806040518083038186803b1580156106a557600080fd5b505afa1580156106b9573d6000803e3d6000fd5b505050506040513d601f19601f820116820180604052508101906106dd919061470b565b805160a0015190915064ffffffffff1685146107475760405162461bcd60e51b815260206004820152602360248201527f5348414b2e4541443a2063616c6c6572206973206e6f74207368617265686f6c6044820152623232b960e91b60648201526084016104cf565b6040516332c848f960e21b815260016004820152602481018690526001600160a01b0389169063cb2123e49060440160206040518083038186803b15801561078e57600080fd5b505afa1580156107a2573d6000803e3d6000fd5b505050506040513d601f19601f820116820180604052508101906107c6919061440b565b1561081d5760405162461bcd60e51b815260206004820152602160248201527f5348414b2e4541443a2063616c6c657220697320616e20496e69745369676e656044820152603960f91b60648201526084016104cf565b6000610827612d56565b60405163346ba94160e01b8152600260048201526001600160a01b03919091169063346ba9419060240160206040518083038186803b15801561086957600080fd5b505afa15801561087d573d6000803e3d6000fd5b505050506040513d601f19601f820116820180604052508101906108a191906147e2565b604051630cfc4a8360e31b81526001600160a01b038b81166004830152602482018b9052604482018a90529192506000918316906367e254189060640160206040518083038186803b1580156108f657600080fd5b505afa15801561090a573d6000803e3d6000fd5b505050506040513d601f19601f8201168201806040525081019061092e91906147ff565b8351604090810151905163a31da53b60e01b815261ffff90911660048201529091506000906001600160a01b0384169063a31da53b9060240160006040518083038186803b15801561097f57600080fd5b505afa158015610993573d6000803e3d6000fd5b505050506040513d6000823e601f3d908101601f191682016040526109bb919081019061483f565b90506109cb8b8b84848c8c612d98565b5050505050505050505050565b604051633b11adbf60e21b81526002600482015233602482015273__$364aad554dc80380f414546becdd2c1584$__9063ec46b6fc9060440160206040518083038186803b158015610a2957600080fd5b505af4158015610a3d573d6000803e3d6000fd5b505050506040513d601f19601f82011682018060405250810190610a61919061440b565b610a7d5760405162461bcd60e51b81526004016104cf90614428565b60405163cc99e11b60e01b8152600260048201526024810182905273__$364aad554dc80380f414546becdd2c1584$__9063cc99e11b9060440160006040518083038186803b158015610acf57600080fd5b505af4158015610ae3573d6000803e3d6000fd5b5050505050565b604051633b11adbf60e21b81526002600482015233602482015273__$364aad554dc80380f414546becdd2c1584$__9063ec46b6fc9060440160206040518083038186803b158015610b3b57600080fd5b505af4158015610b4f573d6000803e3d6000fd5b505050506040513d601f19601f82011682018060405250810190610b73919061440b565b80610c18575073__$364aad554dc80380f414546becdd2c1584$__63fe2710866002610b9d612c7e565b6040516001600160e01b031960e085901b168152600481019290925264ffffffffff16602482015260440160206040518083038186803b158015610be057600080fd5b505af4158015610bf4573d6000803e3d6000fd5b505050506040513d601f19601f82011682018060405250810190610c18919061440b565b610c345760405162461bcd60e51b81526004016104cf906148d4565b604051632725ebef60e21b8152600260048201526024810182905273__$364aad554dc80380f414546becdd2c1584$__90639c97afbc9060440160006040518083038186803b158015610c8657600080fd5b505af4158015610c9a573d6000803e3d6000fd5b505050507ff2735f34b69be1e6342dea95f9162f84d0db925fab655ca9f1f312ac8cbfc99d81604051610ccf91815260200190565b60405180910390a150565b73__$364aad554dc80380f414546becdd2c1584$__63ee98b313600284610396612c7e565b604051630f07232560e01b8152600260048201523360248201526001600160a01b038216604482015273__$364aad554dc80380f414546becdd2c1584$__90630f0723259060640160006040518083038186803b158015610d5f57600080fd5b505af4158015610d73573d6000803e3d6000fd5b50506040516001600160a01b03841681527fe435cbeab64e4eae6497b9d8289704bd709d624a80704ef3ca9af777534bc6ec92506020019050610ccf565b604051633b11adbf60e21b81526002600482015233602482015273__$364aad554dc80380f414546becdd2c1584$__9063ec46b6fc9060440160206040518083038186803b158015610e0257600080fd5b505af4158015610e16573d6000803e3d6000fd5b505050506040513d601f19601f82011682018060405250810190610e3a919061440b565b610e565760405162461bcd60e51b81526004016104cf90614428565b6040516320bf56eb60e21b8152600481018390526000906001600160a01b038516906382fd5bac906024016101e06040518083038186803b158015610e9a57600080fd5b505afa158015610eae573d6000803e3d6000fd5b505050506040513d601f19601f82011682018060405250810190610ed291906149f3565b905080602001516000015164ffffffffff168264ffffffffff1614610f2f5760405162461bcd60e51b815260206004820152601360248201527231b0b63632b91034b9903737ba10313abcb2b960691b60448201526064016104cf565b60405163122ec47f60e31b8152600481018490526001600160a01b0385169063917623f890602401602060405180830381600087803b158015610f7157600080fd5b505af1158015610f85573d6000803e3d6000fd5b505050506040513d601f19601f82011682018060405250810190610fa9919061440b565b1561101b57610fb6612cd8565b60405163108fac0b60e11b81526001600160a01b03868116600483015260066024830152919091169063211f581690604401600060405180830381600087803b15801561100257600080fd5b505af1158015611016573d6000803e3d6000fd5b505050505b611023612d3b565b81516080015160208301516040808201516060909201519051631ba9b20960e21b815263ffffffff90931660048401526001600160401b0391821660248401521660448201526001600160a01b039190911690636ea6c82490606401600060405180830381600087803b15801561109957600080fd5b505af11580156110ad573d6000803e3d6000fd5b505050506110b9612d3b565b815160800151602083015160408082015160608301519251915163f0d6c10960e01b815263ffffffff90941660048501526001600160401b039081166024850152909116604483015264ffffffffff166064820152600060848201526001600160a01b03919091169063f0d6c1099060a401600060405180830381600087803b15801561114557600080fd5b505af1158015611159573d6000803e3d6000fd5b5050505050505050565b604051632a3be56b60e21b815260026004820152602481018390526044810182905260009073__$364aad554dc80380f414546becdd2c1584$__9063a8ef95ac9060640160206040518083038186803b1580156111bf57600080fd5b505af41580156111d3573d6000803e3d6000fd5b505050506040513d601f19601f820116820180604052508101906111f7919061440b565b90505b92915050565b604051633b11adbf60e21b81526002600482015233602482015273__$364aad554dc80380f414546becdd2c1584$__9063ec46b6fc9060440160206040518083038186803b15801561125157600080fd5b505af4158015611265573d6000803e3d6000fd5b505050506040513d601f19601f82011682018060405250810190611289919061440b565b8061132e575073__$364aad554dc80380f414546becdd2c1584$__63fe27108660026112b3612c7e565b6040516001600160e01b031960e085901b168152600481019290925264ffffffffff16602482015260440160206040518083038186803b1580156112f657600080fd5b505af415801561130a573d6000803e3d6000fd5b505050506040513d601f19601f8201168201806040525081019061132e919061440b565b61134a5760405162461bcd60e51b81526004016104cf906148d4565b60405163b6e38a2960e01b8152600260048201526024810182905273__$364aad554dc80380f414546becdd2c1584$__9063b6e38a299060440160006040518083038186803b15801561139c57600080fd5b505af41580156113b0573d6000803e3d6000fd5b505050507f8b6f40f36b4ae8cc5f55e895036457c43da4ab1f80f58c46f5ff0d72a650033b81604051610ccf91815260200190565b60405163987ad15360e01b81526002600482015260009073__$364aad554dc80380f414546becdd2c1584$__9063987ad1539060240161031c565b600061142a612c7e565b60405163cc0d511b60e01b8152600260048201526024810184905264ffffffffff8216604482015290915073__$364aad554dc80380f414546becdd2c1584$__9063cc0d511b906064016103d1565b604051633b11adbf60e21b81526002600482015233602482015273__$364aad554dc80380f414546becdd2c1584$__9063ec46b6fc9060440160206040518083038186803b1580156114ca57600080fd5b505af41580156114de573d6000803e3d6000fd5b505050506040513d601f19601f82011682018060405250810190611502919061440b565b61151e5760405162461bcd60e51b81526004016104cf90614428565b8742611528612cd8565b60405163de154c2760e01b81526001600160a01b038481166004830152919091169063de154c279060240160c06040518083038186803b15801561156b57600080fd5b505afa15801561157f573d6000803e3d6000fd5b505050506040513d601f19601f820116820180604052508101906115a391906145af565b6060015165ffffffffffff16116115cc5760405162461bcd60e51b81526004016104cf9061464f565b6040516320bf56eb60e21b8152600481018990526000906001600160a01b038b16906382fd5bac906024016101e06040518083038186803b15801561161057600080fd5b505afa158015611624573d6000803e3d6000fd5b505050506040513d601f19601f8201168201806040525081019061164891906149f3565b90506000611654612d3b565b6001600160a01b031663cfb5a5f8896040518263ffffffff1660e01b815260040161168191815260200190565b6101806040518083038186803b15801561169a57600080fd5b505afa1580156116ae573d6000803e3d6000fd5b505050506040513d601f19601f820116820180604052508101906116d2919061470b565b8251610120015190915060ff166004141561172f5760405162461bcd60e51b815260206004820152601960248201527f5348414b2e4541523a206465616c207465726d696e617465640000000000000060448201526064016104cf565b611737612cd8565b6040516332277b1160e01b81526001600160a01b038d8116600483015291909116906332277b1190602401602060405180830381600087803b15801561177c57600080fd5b505af1158015611790573d6000803e3d6000fd5b505050506040513d601f19601f820116820180604052508101906117b4919061440b565b506117c2898c848489612fcf565b6117ca612cd8565b604051631b3dc1eb60e31b81526001600160a01b038d811660048301528b15156024830152604482018d9052606482018b90526001600160401b03808b166084840152891660a483015260c4820188905260e48201879052919091169063d9ee0f589061010401600060405180830381600087803b15801561184b57600080fd5b505af115801561185f573d6000803e3d6000fd5b505050505050505050505050505050565b604051633b11adbf60e21b81526002600482015233602482015273__$364aad554dc80380f414546becdd2c1584$__9063ec46b6fc9060440160206040518083038186803b1580156118c157600080fd5b505af41580156118d5573d6000803e3d6000fd5b505050506040513d601f19601f820116820180604052508101906118f9919061440b565b6119155760405162461bcd60e51b81526004016104cf90614428565b834261191f612cd8565b60405163de154c2760e01b81526001600160a01b038481166004830152919091169063de154c279060240160c06040518083038186803b15801561196257600080fd5b505afa158015611976573d6000803e3d6000fd5b505050506040513d601f19601f8201168201806040525081019061199a91906145af565b6060015165ffffffffffff16116119c35760405162461bcd60e51b81526004016104cf9061464f565b6040516351b171a360e01b815260016004820152602481018490526001600160a01b038616906351b171a39060440160206040518083038186803b158015611a0a57600080fd5b505afa158015611a1e573d6000803e3d6000fd5b505050506040513d601f19601f82011682018060405250810190611a42919061440b565b15611a8f5760405162461bcd60e51b815260206004820152601d60248201527f5348414b2e4546523a206672436c61696d65722069732073656c6c657200000060448201526064016104cf565b60405163cdf4b38760e01b8152600481018590526000906001600160a01b0387169063cdf4b387906024016101406040518083038186803b158015611ad357600080fd5b505afa158015611ae7573d6000803e3d6000fd5b505050506040513d601f19601f82011682018060405250810190611b0b9190614aa0565b90506000611b17612d56565b6001600160a01b031663484620378a6040518263ffffffff1660e01b8152600401611b4491815260200190565b60206040518083038186803b158015611b5c57600080fd5b505afa158015611b70573d6000803e3d6000fd5b505050506040513d601f19601f82011682018060405250810190611b949190614abd565b6040516375d6f2ff60e11b8152600481019190915273__$9d2c69e94fee47b9774dc8db4aa5c0bbec$__9063ebade5fe906024016101806040518083038186803b158015611be157600080fd5b505af4158015611bf5573d6000803e3d6000fd5b505050506040513d601f19601f82011682018060405250810190611c199190614b4c565b9050816000015160ff16816060015160ff1614611c8a5760405162461bcd60e51b815260206004820152602960248201527f5348414b2e4546523a2072756c6520616e64206465616c20617265206e6f742060448201526873616d65207479706560b81b60648201526084016104cf565b80608001518015611d1b5750611c9e6136e5565b6001600160a01b031663d50c7377866040518263ffffffff1660e01b8152600401611ccb91815260200190565b60206040518083038186803b158015611ce357600080fd5b505afa158015611cf7573d6000803e3d6000fd5b505050506040513d601f19601f82011682018060405250810190611d1b919061440b565b80611d465750848160e001518960058110611d3857611d38614bf5565b602002015164ffffffffff16145b611d925760405162461bcd60e51b815260206004820181905260248201527f5348414b2e4546523a2063616c6c6572204e4f54207269676874686f6c64657260448201526064016104cf565b611d9a612cd8565b60405163fb255fcd60e01b81526001600160a01b038981166004830152602482018990526044820188905260648201879052919091169063fb255fcd90608401602060405180830381600087803b158015611df457600080fd5b505af1158015611e08573d6000803e3d6000fd5b505050506040513d601f19601f82011682018060405250810190611e2c919061440b565b15611ead57604051637b019deb60e01b8152600481018790526001600160a01b03881690637b019deb90602401602060405180830381600087803b158015611e7357600080fd5b505af1158015611e87573d6000803e3d6000fd5b505050506040513d601f19601f82011682018060405250810190611eab919061440b565b505b505050505050505050565b611ec182613700565b611eca816137af565b604051636cdd0edf60e11b815260026004820152602481018590526001600160a01b038416604482015273__$364aad554dc80380f414546becdd2c1584$__9063d9ba1dbe9060640160006040518083038186803b158015611f2b57600080fd5b505af4158015611f3f573d6000803e3d6000fd5b5050604080518781526001600160a01b038781166020830152868116828401528516606082015290517f3abb2418c66fe32ba9c883030a75ce583971d9af9192b9b74e44e67c5e6c8c1f9350908190036080019150a150505050565b604051633c3e56c160e11b81526002600482015260009073__$364aad554dc80380f414546becdd2c1584$__9063787cad829060240160206040518083038186803b158015611fe957600080fd5b505af4158015611ffd573d6000803e3d6000fd5b505050506040513d601f19601f8201168201806040525081019061036c91906147e2565b604051633b11adbf60e21b81526002600482015233602482015273__$364aad554dc80380f414546becdd2c1584$__9063ec46b6fc9060440160206040518083038186803b15801561207257600080fd5b505af4158015612086573d6000803e3d6000fd5b505050506040513d601f19601f820116820180604052508101906120aa919061440b565b6120c65760405162461bcd60e51b81526004016104cf90614428565b600254600160f01b900460ff166001146121225760405162461bcd60e51b815260206004820181905260248201527f41432e6f6e6c7950656e64696e673a20446f632069732066696e616c697a656460448201526064016104cf565b60405163cc99e11b60e01b815260026004820152684174746f726e65797360b81b602482015273__$364aad554dc80380f414546becdd2c1584$__9063cc99e11b9060440160006040518083038186803b15801561217f57600080fd5b505af4158015612193573d6000803e3d6000fd5b5050604051632725ebef60e21b8152600260048201526000602482015273__$364aad554dc80380f414546becdd2c1584$__9250639c97afbc915060440160006040518083038186803b1580156121e957600080fd5b505af41580156121fd573d6000803e3d6000fd5b50506002805460ff60f01b1916600160f11b17905550506040517f35012b512309c322acf68632cd6cb702ff0e1d776fbe9394e38ffc13b434fe7590600090a1565b604051633b11adbf60e21b81526002600482015233602482015273__$364aad554dc80380f414546becdd2c1584$__9063ec46b6fc9060440160206040518083038186803b15801561229057600080fd5b505af41580156122a4573d6000803e3d6000fd5b505050506040513d601f19601f820116820180604052508101906122c8919061440b565b6122e45760405162461bcd60e51b81526004016104cf90614428565b84426122ee612cd8565b60405163de154c2760e01b81526001600160a01b038481166004830152919091169063de154c279060240160c06040518083038186803b15801561233157600080fd5b505afa158015612345573d6000803e3d6000fd5b505050506040513d601f19601f8201168201806040525081019061236991906145af565b6060015165ffffffffffff1611156123935760405162461bcd60e51b81526004016104cf90614c0b565b854261239d612cd8565b60405163de154c2760e01b81526001600160a01b038481166004830152919091169063de154c279060240160c06040518083038186803b1580156123e057600080fd5b505afa1580156123f4573d6000803e3d6000fd5b505050506040513d601f19601f8201168201806040525081019061241891906145af565b6080015165ffffffffffff1610156124425760405162461bcd60e51b81526004016104cf90614c0b565b6040516320bf56eb60e21b8152600481018790526000906001600160a01b038916906382fd5bac906024016101e06040518083038186803b15801561248657600080fd5b505afa15801561249a573d6000803e3d6000fd5b505050506040513d601f19601f820116820180604052508101906124be91906149f3565b60208101515190915064ffffffffff1685146125125760405162461bcd60e51b815260206004820152601360248201527229a420a59720a0a21d103737ba10313abcb2b960691b60448201526064016104cf565b8051610120015160ff1660041461115957600061252d612cd8565b604051630fc89eeb60e01b81526001600160a01b038b81166004830152602482018b9052604482018a90529190911690630fc89eeb9060640160e06040518083038186803b15801561257e57600080fd5b505afa158015612592573d6000803e3d6000fd5b505050506040513d601f19601f820116820180604052508101906125b69190614c42565b905060006125c2612d3b565b6001600160a01b031663cfb5a5f8896040518263ffffffff1660e01b81526004016125ef91815260200190565b6101806040518083038186803b15801561260857600080fd5b505afa15801561261c573d6000803e3d6000fd5b505050506040513d601f19601f82011682018060405250810190612640919061470b565b905060006126508b848685613866565b608084015160a085015160c0860151604051633ac69e7d60e21b81526004810185905264ffffffffff909316602484015265ffffffffffff909116604483015260648201529091506001600160a01b038c169063eb1a79f490608401602060405180830381600087803b1580156126c657600080fd5b505af11580156126da573d6000803e3d6000fd5b505050506040513d601f19601f820116820180604052508101906126fe919061440b565b50604051633ac69e7d60e21b8152600481018290526024810189905265ffffffffffff42166044820152606481018890526001600160a01b038c169063eb1a79f490608401602060405180830381600087803b15801561275d57600080fd5b505af1158015612771573d6000803e3d6000fd5b505050506040513d601f19601f82011682018060405250810190612795919061440b565b505050505050505050505050565b604051633b11adbf60e21b81526002600482015233602482015273__$364aad554dc80380f414546becdd2c1584$__9063ec46b6fc9060440160206040518083038186803b1580156127f457600080fd5b505af4158015612808573d6000803e3d6000fd5b505050506040513d601f19601f8201168201806040525081019061282c919061440b565b6128485760405162461bcd60e51b81526004016104cf90614428565b8342612852612cd8565b60405163de154c2760e01b81526001600160a01b038481166004830152919091169063de154c279060240160c06040518083038186803b15801561289557600080fd5b505afa1580156128a9573d6000803e3d6000fd5b505050506040513d601f19601f820116820180604052508101906128cd91906145af565b6060015165ffffffffffff1611156128f75760405162461bcd60e51b81526004016104cf90614c0b565b6040516320bf56eb60e21b8152600481018590526000906001600160a01b038716906382fd5bac906024016101e06040518083038186803b15801561293b57600080fd5b505afa15801561294f573d6000803e3d6000fd5b505050506040513d601f19601f8201168201806040525081019061297391906149f3565b80515190915060ff1660011415612ae15761298c6136e5565b6001600160a01b031663984199286040518163ffffffff1660e01b815260040160206040518083038186803b1580156129c457600080fd5b505afa1580156129d8573d6000803e3d6000fd5b505050506040513d601f19601f820116820180604052508101906129fc91906143e3565b64ffffffffff16612a0b6136e5565b6001600160a01b031663605c5ec6866040518263ffffffff1660e01b8152600401612a3891815260200190565b60206040518083038186803b158015612a5057600080fd5b505afa158015612a64573d6000803e3d6000fd5b505050506040513d601f19601f82011682018060405250810190612a8891906143e3565b64ffffffffff1614612adc5760405162461bcd60e51b815260206004820152601860248201527f5348414b2e4146523a206e6f7420636f6e74726f6c6c6572000000000000000060448201526064016104cf565b612b3c565b805160a0015164ffffffffff168414612b3c5760405162461bcd60e51b815260206004820152601a60248201527f5348414b2e4146523a206e6f742073656c6c65724f664465616c00000000000060448201526064016104cf565b6000612b46612cd8565b60405163a0b7b8a760e01b81526001600160a01b03898116600483015260248201899052919091169063a0b7b8a790604401600060405180830381600087803b158015612b9257600080fd5b505af1158015612ba6573d6000803e3d6000fd5b505050506040513d6000823e601f3d908101601f19168201604052612bce9190810190614cf3565b80519091505b8015612c1a57612c08888484612beb600186614e0d565b81518110612bfb57612bfb614bf5565b6020026020010151613b01565b80612c1281614e24565b915050612bd4565b604051630cac562d60e11b81526000600482015260248101879052604481018690526001600160a01b03891690631958ac5a90606401600060405180830381600087803b158015612c6a57600080fd5b505af1158015612795573d6000803e3d6000fd5b60008054604051634de835e760e11b81523360048201526001600160a01b0390911690639bd06bce90602401602060405180830381600087803b158015612cc457600080fd5b505af1158015610348573d6000803e3d6000fd5b6001546000906001600160a01b031663e0ff5b8b825b6040516001600160e01b031960e084901b16815260ff909116600482015260240160206040518083038186803b158015612d2757600080fd5b505afa158015611ffd573d6000803e3d6000fd5b6001546000906001600160a01b031663e0ff5b8b6006612cee565b6000612d60613dd5565b6001600160a01b0316632f5f3b3c6040518163ffffffff1660e01b815260040160206040518083038186803b158015612d2757600080fd5b60005b8351811015612f6d576000612dae6136e5565b6001600160a01b031663e80bf906868481518110612dce57612dce614bf5565b60200260200101516040518263ffffffff1660e01b8152600401612df491815260200190565b60006040518083038186803b158015612e0c57600080fd5b505afa158015612e20573d6000803e3d6000fd5b505050506040513d6000823e601f3d908101601f19168201604052612e48919081019061483f565b905060005b8151811015612f4557600080612e7e8b8b868681518110612e7057612e70614bf5565b60200260200101518c613df0565b604051633ac69e7d60e21b815260048101839052602481018a905265ffffffffffff421660448201526064810189905291935091506001600160a01b038c169063eb1a79f490608401602060405180830381600087803b158015612ee157600080fd5b505af1158015612ef5573d6000803e3d6000fd5b505050506040513d601f19601f82011682018060405250810190612f19919061440b565b506001600160401b038116612f2f575050612f45565b9750819050612f3d81614e3b565b915050612e4d565b506001600160401b038616612f5a5750612f6d565b5080612f6581614e3b565b915050612d9b565b506001600160401b038416156103fd5760405162461bcd60e51b815260206004820152602160248201527f6f626c69676f72732068617665206e6f7420656e6f7567682070617256616c756044820152606560f81b60648201526084016104cf565b612fd7612cd8565b604051638f6b658760e01b81526001600160a01b038681166004830152602482018490529190911690638f6b658790604401602060405180830381600087803b15801561302357600080fd5b505af1158015613037573d6000803e3d6000fd5b505050506040513d601f19601f8201168201806040525081019061305b919061440b565b156130a85760405162461bcd60e51b815260206004820152601d60248201527f5348414b2e4341443a2063616c6c6572206973206672436c61696d657200000060448201526064016104cf565b6130b0612cd8565b825160a00151604051638f6b658760e01b81526001600160a01b03878116600483015264ffffffffff9092166024820152911690638f6b658790604401602060405180830381600087803b15801561310757600080fd5b505af115801561311b573d6000803e3d6000fd5b505050506040513d601f19601f8201168201806040525081019061313f919061440b565b156131975760405162461bcd60e51b815260206004820152602260248201527f5348414b2e4341443a207368617265686f6c646572206973206672436c61696d60448201526132b960f11b60648201526084016104cf565b600085613224576131a6612d56565b60405163346ba94160e01b81526004818101526001600160a01b03919091169063346ba9419060240160206040518083038186803b1580156131e757600080fd5b505afa1580156131fb573d6000803e3d6000fd5b505050506040513d601f19601f8201168201806040525081019061321f91906147e2565b6132a6565b61322c612d56565b60405163346ba94160e01b8152600360048201526001600160a01b03919091169063346ba9419060240160206040518083038186803b15801561326e57600080fd5b505afa158015613282573d6000803e3d6000fd5b505050506040513d601f19601f820116820180604052508101906132a691906147e2565b604051633a8a879f60e01b81529091506001600160a01b03821690633a8a879f906132d79088908890600401614f78565b60206040518083038186803b1580156132ef57600080fd5b505afa158015613303573d6000803e3d6000fd5b505050506040513d601f19601f82011682018060405250810190613327919061440b565b6133635760405162461bcd60e51b815260206004820152600d60248201526c1b9bdd081d1c9a59d9d95c9959609a1b60448201526064016104cf565b835160a09081015184519091015160405163b097b85760e01b815264ffffffffff9283166004820152911660248201526001600160a01b0382169063b097b8579060440160206040518083038186803b1580156133bf57600080fd5b505afa1580156133d3573d6000803e3d6000fd5b505050506040513d601f19601f820116820180604052508101906133f7919061440b565b6134545760405162461bcd60e51b815260206004820152602860248201527f64726167657220616e6420746172676574207368617265686f6c646572204e4f60448201526715081b1a5b9ad95960c21b60648201526084016104cf565b851561359c57835160a0015164ffffffffff1682146134c95760405162461bcd60e51b815260206004820152602b60248201527f5348414b2e4d41443a2063616c6c6572206973206e6f7420647261676572206f60448201526a662044726167416c6f6e6760a81b60648201526084016104cf565b6040516383680fff60e01b81526001600160a01b038216906383680fff906134fb908890889088908890600401614f96565b60206040518083038186803b15801561351357600080fd5b505afa158015613527573d6000803e3d6000fd5b505050506040513d601f19601f8201168201806040525081019061354b919061440b565b6135975760405162461bcd60e51b815260206004820152601d60248201527f5348414b2e4d41443a207072696365204e4f542073617469736669656400000060448201526064016104cf565b6103fd565b825160a0015164ffffffffff16821461360f5760405162461bcd60e51b815260206004820152602f60248201527f5348414b2e4d41443a2063616c6c6572206973206e6f74207368617265686f6c60448201526e646572206f6620546167416c6f6e6760881b60648201526084016104cf565b60405163b115233560e01b815260016004820152602481018390526001600160a01b0386169063b11523359060440160206040518083038186803b15801561365657600080fd5b505afa15801561366a573d6000803e3d6000fd5b505050506040513d601f19601f8201168201806040525081019061368e919061440b565b156103fd5760405162461bcd60e51b815260206004820152602160248201527f5348414b2e4d41443a2063616c6c6572206973204275796572206f66204465616044820152601b60fa1b60648201526084016104cf565b6001546000906001600160a01b031663e0ff5b8b6007612cee565b6000546001600160a01b0316156137515760405162461bcd60e51b815260206004820152601560248201527430b63932b0b23c9039b2ba103932b3a1b2b73a32b960591b60448201526064016104cf565b6040516001600160a01b03821681527f318da6c7624c71cbc0afe346c9d8827f119d0ecefb241a7b0c87217a076a8e029060200160405180910390a1600080546001600160a01b0319166001600160a01b0392909216919091179055565b6001546001600160a01b0316156138085760405162461bcd60e51b815260206004820152601960248201527f616c7265616479207365742067656e6572616c4b65657065720000000000000060448201526064016104cf565b6040516001600160a01b03821681527fe513d3e0f0d0a3877029dcc588748679a7a3450ec1ec7ed56d96bd012c3e61aa9060200160405180910390a1600180546001600160a01b0319166001600160a01b0392909216919091179055565b6000604051806101400160405280856000015160ff1660001461388a57600561388d565b60065b60ff16815260006020808301919091528551015161ffff9081166040808401919091528551015116606082015283515163ffffffff9081166080830152845160a09081015164ffffffffff1690830152855160c090810151821690830152855160e0908101519091169082015284516101009081015165ffffffffffff169082015261012001600160ff169052835260408051608081018252602080860180515164ffffffffff908116845281518301511691830191909152868301516001600160401b0390811683850152606080890151909116908301525251631efbff1160e01b81526001600160a01b03861690631efbff119061399190869060040161507a565b602060405180830381600087803b1580156139ab57600080fd5b505af11580156139bf573d6000803e3d6000fd5b505050506040513d601f19601f820116820180604052508101906139e39190615089565b63ffffffff169050846001600160a01b0316639a9a7a44826040518263ffffffff1660e01b8152600401613a1991815260200190565b602060405180830381600087803b158015613a3357600080fd5b505af1158015613a47573d6000803e3d6000fd5b505050506040513d601f19601f82011682018060405250810190613a6b919061440b565b50613a74612d3b565b82515160408681015160608801519151634bacf96160e01b815263ffffffff90931660048401526001600160401b0390811660248401521660448201526001600160a01b039190911690634bacf96190606401600060405180830381600087803b158015613ae157600080fd5b505af1158015613af5573d6000803e3d6000fd5b50505050949350505050565b81516080015163ffffffff1615613b1d57815160079052613b24565b8151600490525b815160208082015161ffff1660409283015283516001610120909101528151608081019092528281015164ffffffffff1682528101613b616136e5565b602084015160405163302e2f6360e11b815264ffffffffff90911660048201526001600160a01b03919091169063605c5ec69060240160206040518083038186803b158015613baf57600080fd5b505afa158015613bc3573d6000803e3d6000fd5b505050506040513d601f19601f82011682018060405250810190613be791906143e3565b64ffffffffff1681526020016127108360600151856020015160400151613c0e91906150a4565b613c1891906150d3565b6001600160401b031681526020016127108360600151856020015160600151613c4191906150a4565b613c4b91906150d3565b6001600160401b031690526020830152604051631efbff1160e01b81526001600160a01b03841690639a9a7a44908290631efbff1190613c8f90879060040161507a565b602060405180830381600087803b158015613ca957600080fd5b505af1158015613cbd573d6000803e3d6000fd5b505050506040513d601f19601f82011682018060405250810190613ce19190615089565b6040516001600160e01b031960e084901b16815263ffffffff919091166004820152602401602060405180830381600087803b158015613d2057600080fd5b505af1158015613d34573d6000803e3d6000fd5b505050506040513d601f19601f82011682018060405250810190613d58919061440b565b50602081015160a0820151604051630cac562d60e11b81526000600482015264ffffffffff909216602483015260448201526001600160a01b03841690631958ac5a90606401600060405180830381600087803b158015613db857600080fd5b505af1158015613dcc573d6000803e3d6000fd5b50505050505050565b6001546000906001600160a01b031663e0ff5b8b6003612cee565b6000806000866001600160a01b03166382fd5bac876040518263ffffffff1660e01b8152600401613e2391815260200190565b6101e06040518083038186803b158015613e3c57600080fd5b505afa158015613e50573d6000803e3d6000fd5b505050506040513d601f19601f82011682018060405250810190613e7491906149f3565b90506000613e80612d3b565b6001600160a01b031663cfb5a5f8876040518263ffffffff1660e01b8152600401613ead91815260200190565b6101806040518083038186803b158015613ec657600080fd5b505afa158015613eda573d6000803e3d6000fd5b505050506040513d601f19601f82011682018060405250810190613efe919061470b565b90506000808260200151604001516001600160401b0316111561412457856001600160401b03168260200151604001516001600160401b031610613f425785613f4c565b8160200151604001515b604080516101a081018252600860608083019182526000608080850182905261ffff8f811660a0808801919091528a5188015190911660c087015289515163ffffffff1660e08701528951015164ffffffffff90811661010080880191909152610120870184905261014087018490528b51015165ffffffffffff1661016087015260016101808701529385528551908101865260208a81018051518616835251810151909416818501526001600160401b0387168187018190529281019290925291830152818301529051631efbff1160e01b8152919250906001600160a01b038b1690631efbff119061404590849060040161507a565b602060405180830381600087803b15801561405f57600080fd5b505af1158015614073573d6000803e3d6000fd5b505050506040513d601f19601f820116820180604052508101906140979190615089565b63ffffffff1695506140a7612d3b565b835151604051634bacf96160e01b815263ffffffff90911660048201526001600160401b0384166024820181905260448201526001600160a01b039190911690634bacf96190606401600060405180830381600087803b15801561410a57600080fd5b505af115801561411e573d6000803e3d6000fd5b50505050505b61412e8187615107565b935050505094509492505050565b6000806040838503121561414f57600080fd5b50508035926020909101359150565b6001600160a01b038116811461417357600080fd5b50565b600080600080600060a0868803121561418e57600080fd5b85356141998161415e565b97602087013597506040870135966060810135965060800135945092505050565b6000602082840312156141cc57600080fd5b5035919050565b6000602082840312156141e557600080fd5b81356141f08161415e565b9392505050565b64ffffffffff8116811461417357600080fd5b60008060006060848603121561421f57600080fd5b833561422a8161415e565b9250602084013591506040840135614241816141f7565b809150509250925092565b801515811461417357600080fd5b6001600160401b038116811461417357600080fd5b600080600080600080600080610100898b03121561428c57600080fd5b88356142978161415e565b97506020890135965060408901356142ae8161424c565b95506060890135945060808901356142c58161425a565b935060a08901356142d58161425a565b979a969950949793969295929450505060c08201359160e0013590565b60008060008060008060c0878903121561430b57600080fd5b863595506020870135945060408701356143248161415e565b959894975094956060810135955060808101359460a0909101359350915050565b6000806000806080858703121561435b57600080fd5b84359350602085013561436d8161415e565b9250604085013561437d8161415e565b9150606085013561438d8161415e565b939692955090935050565b600080600080608085870312156143ae57600080fd5b84356143b98161415e565b966020860135965060408601359560600135945092505050565b80516143de816141f7565b919050565b6000602082840312156143f557600080fd5b81516141f0816141f7565b80516143de8161424c565b60006020828403121561441d57600080fd5b81516141f08161424c565b60208082526026908201527f41432e6f6e6c794469726563744b65657065723a206e6f74206469726563742060408201526535b2b2b832b960d11b606082015260800190565b634e487b7160e01b600052604160045260246000fd5b604051608081016001600160401b03811182821017156144a6576144a661446e565b60405290565b604080519081016001600160401b03811182821017156144a6576144a661446e565b60405161010081016001600160401b03811182821017156144a6576144a661446e565b60405161014081016001600160401b03811182821017156144a6576144a661446e565b604051606081016001600160401b03811182821017156144a6576144a661446e565b60405160c081016001600160401b03811182821017156144a6576144a661446e565b604051601f8201601f191681016001600160401b03811182821017156145805761458061446e565b604052919050565b805160ff811681146143de57600080fd5b805165ffffffffffff811681146143de57600080fd5b600060c082840312156145c157600080fd5b60405160c081018181106001600160401b03821117156145e3576145e361446e565b6040526145ef83614588565b815260208301516145ff816141f7565b602082015261461060408401614599565b604082015261462160608401614599565b606082015261463260808401614599565b608082015261464360a08401614588565b60a08201529392505050565b6020808252601490820152731b5a5cdcd959081c995d9a595dc81c195c9a5bd960621b604082015260600190565b805163ffffffff811681146143de57600080fd5b805161ffff811681146143de57600080fd5b6000608082840312156146b557600080fd5b6146bd614484565b905081516146ca8161425a565b815260208201516146da8161425a565b602082015260408201516146ed8161425a565b604082015260608201516147008161425a565b606082015292915050565b600081830361018081121561471f57600080fd5b6147276144ac565b6101008083121561473757600080fd5b61473f6144ce565b925061474a8561467d565b83526147586020860161467d565b602084015261476960408601614691565b604084015261477a60608601614599565b606084015261478b60808601614599565b608084015260a085015161479e816141f7565b60a08401526147af60c0860161467d565b60c08401526147c060e08601614588565b60e08401528282526147d4868287016146a3565b602083015250949350505050565b6000602082840312156147f457600080fd5b81516141f08161415e565b60006020828403121561481157600080fd5b81516141f08161425a565b60006001600160401b038211156148355761483561446e565b5060051b60200190565b6000602080838503121561485257600080fd5b82516001600160401b0381111561486857600080fd5b8301601f8101851361487957600080fd5b805161488c6148878261481c565b614558565b81815260059190911b820183019083810190878311156148ab57600080fd5b928401925b828410156148c9578351825292840192908401906148b0565b979650505050505050565b60208082526036908201527f41432e6f776e65724f72446972656374426f6f6b65657065723a206e6569746860408201527532b91037bbb732b9103737b9103137b7b5b2b2b832b960511b606082015260800190565b6000610140828403121561493d57600080fd5b6149456144f1565b905061495082614588565b815261495e60208301614691565b602082015261496f60408301614691565b604082015261498060608301614691565b60608201526149916080830161467d565b60808201526149a260a083016143d3565b60a08201526149b360c0830161467d565b60c08201526149c460e0830161467d565b60e08201526101006149d7818401614599565b908201526101206149e9838201614588565b9082015292915050565b60008183036101e0811215614a0757600080fd5b614a0f614514565b614a19858561492a565b8152608061013f1983011215614a2e57600080fd5b614a36614484565b9150610140840151614a47816141f7565b8252610160840151614a58816141f7565b6020830152610180840151614a6c8161425a565b60408301526101a0840151614a808161425a565b606083015260208101919091526101c09290920151604083015250919050565b60006101408284031215614ab357600080fd5b6111f7838361492a565b600060208284031215614acf57600080fd5b5051919050565b600082601f830112614ae757600080fd5b60405160a081018181106001600160401b0382111715614b0957614b0961446e565b6040528060a0840185811115614b1e57600080fd5b845b81811015614b41578051614b33816141f7565b835260209283019201614b20565b509195945050505050565b60006101808284031215614b5f57600080fd5b614b676144ce565b614b7083614691565b8152614b7e60208401614588565b6020820152614b8f60408401614588565b6040820152614ba060608401614588565b60608201526080830151614bb38161424c565b608082015260a0830151614bc68161424c565b60a0820152614bd760c08401614400565b60c0820152614be98460e08501614ad6565b60e08201529392505050565b634e487b7160e01b600052603260045260246000fd5b6020808252601a908201527f7374696c6c2077697468696e2072657669657720706572696f64000000000000604082015260600190565b600060e08284031215614c5457600080fd5b60405160e081018181106001600160401b0382111715614c7657614c7661446e565b604052614c8283614588565b8152614c906020840161467d565b60208201526040830151614ca38161425a565b60408201526060830151614cb68161425a565b60608201526080830151614cc9816141f7565b6080820152614cda60a08401614599565b60a082015260c083015160c08201528091505092915050565b60006020808385031215614d0657600080fd5b82516001600160401b03811115614d1c57600080fd5b8301601f81018513614d2d57600080fd5b8051614d3b6148878261481c565b81815260c09182028301840191848201919088841115614d5a57600080fd5b938501935b83851015614deb5780858a031215614d775760008081fd5b614d7f614536565b614d8886614691565b815286860151614d97816141f7565b81880152604086810151614daa8161425a565b90820152606086810151614dbd8161425a565b908201526080614dce878201614599565b9082015260a0868101519082015283529384019391850191614d5f565b50979650505050505050565b634e487b7160e01b600052601160045260246000fd5b600082821015614e1f57614e1f614df7565b500390565b600081614e3357614e33614df7565b506000190190565b6000600019821415614e4f57614e4f614df7565b5060010190565b8051805160ff1683526020810151614e74602085018261ffff169052565b506040810151614e8a604085018261ffff169052565b506060810151614ea0606085018261ffff169052565b506080810151614eb8608085018263ffffffff169052565b5060a0810151614ed160a085018264ffffffffff169052565b5060c0810151614ee960c085018263ffffffff169052565b5060e0810151614f0160e085018263ffffffff169052565b506101008181015165ffffffffffff16908401526101209081015160ff1690830152602081810151805164ffffffffff908116610140860152918101519091166101608401526040808201516001600160401b039081166101808601526060909201519091166101a084015201516101c090910152565b6001600160a01b038316815261020081016141f06020830184614e56565b6001600160a01b03851681526103a08101614fb46020830186614e56565b8351805163ffffffff908116610200850152602080830151821661022086015260408084015161ffff1661024087015260608085015165ffffffffffff90811661026089015260808601511661028088015260a085015164ffffffffff166102a088015260c08501519093166102c087015260e09093015160ff166102e08601529586015180516001600160401b039081166103008701529681015187166103208601529182015186166103408501520151909316610360820152610380015292915050565b6101e081016111fa8284614e56565b60006020828403121561509b57600080fd5b6111f78261467d565b60006001600160401b03808316818516818304811182151516156150ca576150ca614df7565b02949350505050565b60006001600160401b03808416806150fb57634e487b7160e01b600052601260045260246000fd5b92169190910492915050565b60006001600160401b038381169083168181101561512757615127614df7565b03939250505056fea26469706673582212209e45c1c443172fa62ca7eeb4b31128cfa48d372a3a8f186a37c9fdaccd6b1b3f64736f6c63430008080033",
    "sourcePath": "/Users/kaptain/github.com/hardhat/comboox/contracts/keepers/SHAKeeper.sol",
    "compiler": {
        "name": "solc",
        "version": "0.8.8+commit.dddeac2f"
    },
    "functionHashes": {
        "abandonRole(bytes32)": "3da9a600",
        "acceptAlongDeal(address,uint256,uint256,uint256,bytes32)": "f51147e3",
        "acceptFirstRefusal(address,uint256,uint256,bytes32)": "f61bf284",
        "execAlongRight(address,uint256,bool,uint256,uint64,uint64,uint256,bytes32)": "9c436a7d",
        "execAntiDilution(address,uint256,uint256,uint256,bytes32)": "325508d5",
        "execFirstRefusal(uint256,uint256,address,uint256,uint256,bytes32)": "c65511d8",
        "finalized()": "b3f05b97",
        "getBookeeper()": "ed211023",
        "getGeneralCounsel()": "103f6edd",
        "getOwner()": "893d20e8",
        "grantRole(bytes32,uint256)": "1b6ea9f9",
        "hasRole(bytes32,uint256)": "7e063c5a",
        "init(uint256,address,address,address)": "dc890da9",
        "lockContents()": "f045a769",
        "renounceRole(bytes32)": "8bb9c5bf",
        "revokeRole(bytes32,uint256)": "19d61ad9",
        "setDirectKeeper(address)": "6be8496f",
        "setGeneralCounsel(uint256)": "4a14beb1",
        "setOwner(uint256)": "8041494e",
        "setRoleAdmin(bytes32,uint256)": "5171ebd4",
        "takeGiftShares(address,uint256,uint40)": "6c69e969"
    },
    "gasEstimates": {
        "creation": {
            "codeDepositCost": "4167400",
            "executionCost": "4793",
            "totalCost": "4172193"
        },
        "external": {
            "abandonRole(bytes32)": "infinite",
            "acceptAlongDeal(address,uint256,uint256,uint256,bytes32)": "infinite",
            "acceptFirstRefusal(address,uint256,uint256,bytes32)": "infinite",
            "execAlongRight(address,uint256,bool,uint256,uint64,uint64,uint256,bytes32)": "infinite",
            "execAntiDilution(address,uint256,uint256,uint256,bytes32)": "infinite",
            "execFirstRefusal(uint256,uint256,address,uint256,uint256,bytes32)": "infinite",
            "finalized()": "2438",
            "getBookeeper()": "infinite",
            "getGeneralCounsel()": "infinite",
            "getOwner()": "infinite",
            "grantRole(bytes32,uint256)": "infinite",
            "hasRole(bytes32,uint256)": "infinite",
            "init(uint256,address,address,address)": "infinite",
            "lockContents()": "infinite",
            "renounceRole(bytes32)": "infinite",
            "revokeRole(bytes32,uint256)": "infinite",
            "setDirectKeeper(address)": "infinite",
            "setGeneralCounsel(uint256)": "infinite",
            "setOwner(uint256)": "infinite",
            "setRoleAdmin(bytes32,uint256)": "infinite",
            "takeGiftShares(address,uint256,uint40)": "infinite"
        },
        "internal": {
            "_checkAlongDeal(bool,address,struct IInvestmentAgreement.Deal memory,struct SharesRepo.Share memory,uint256)": "infinite",
            "_createAlongDeal(address,struct DTClaims.Claim memory,struct IInvestmentAgreement.Deal memory,struct SharesRepo.Share memory)": "infinite",
            "_createFRDeal(address,struct IInvestmentAgreement.Deal memory,struct FRClaims.Claim memory)": "infinite",
            "_createGift(address,uint256,uint256,uint64)": "infinite",
            "_createGiftDeals(address,uint256,uint64,uint256[] memory,uint256,bytes32)": "infinite"
        }
    }
}