{
    "contractName": "SHAKeeper",
    "abi": [
        {
            "anonymous": false,
            "inputs": [
                {
                    "indexed": false,
                    "internalType": "uint256",
                    "name": "owner",
                    "type": "uint256"
                },
                {
                    "indexed": false,
                    "internalType": "address",
                    "name": "directKeeper",
                    "type": "address"
                },
                {
                    "indexed": false,
                    "internalType": "address",
                    "name": "regCenter",
                    "type": "address"
                },
                {
                    "indexed": false,
                    "internalType": "address",
                    "name": "generalKeeper",
                    "type": "address"
                }
            ],
            "name": "Init",
            "type": "event"
        },
        {
            "anonymous": false,
            "inputs": [],
            "name": "LockContents",
            "type": "event"
        },
        {
            "anonymous": false,
            "inputs": [
                {
                    "indexed": false,
                    "internalType": "address",
                    "name": "target",
                    "type": "address"
                }
            ],
            "name": "RemoveDirectKeeper",
            "type": "event"
        },
        {
            "anonymous": false,
            "inputs": [
                {
                    "indexed": false,
                    "internalType": "address",
                    "name": "keeper",
                    "type": "address"
                }
            ],
            "name": "SetDirectKeeper",
            "type": "event"
        },
        {
            "anonymous": false,
            "inputs": [
                {
                    "indexed": false,
                    "internalType": "uint256",
                    "name": "acct",
                    "type": "uint256"
                }
            ],
            "name": "SetGeneralCounsel",
            "type": "event"
        },
        {
            "anonymous": false,
            "inputs": [
                {
                    "indexed": false,
                    "internalType": "uint256",
                    "name": "acct",
                    "type": "uint256"
                }
            ],
            "name": "SetOwner",
            "type": "event"
        },
        {
            "inputs": [
                {
                    "internalType": "bytes32",
                    "name": "role",
                    "type": "bytes32"
                }
            ],
            "name": "abandonRole",
            "outputs": [],
            "stateMutability": "nonpayable",
            "type": "function"
        },
        {
            "inputs": [
                {
                    "internalType": "address",
                    "name": "ia",
                    "type": "address"
                },
                {
                    "internalType": "uint256",
                    "name": "seqOfDeal",
                    "type": "uint256"
                },
                {
                    "internalType": "uint256",
                    "name": "seqOfShare",
                    "type": "uint256"
                },
                {
                    "internalType": "uint256",
                    "name": "caller",
                    "type": "uint256"
                },
                {
                    "internalType": "bytes32",
                    "name": "sigHash",
                    "type": "bytes32"
                }
            ],
            "name": "acceptAlongDeal",
            "outputs": [],
            "stateMutability": "nonpayable",
            "type": "function"
        },
        {
            "inputs": [
                {
                    "internalType": "address",
                    "name": "ia",
                    "type": "address"
                },
                {
                    "internalType": "uint256",
                    "name": "seqOfDeal",
                    "type": "uint256"
                },
                {
                    "internalType": "uint256",
                    "name": "caller",
                    "type": "uint256"
                },
                {
                    "internalType": "bytes32",
                    "name": "sigHash",
                    "type": "bytes32"
                }
            ],
            "name": "acceptFirstRefusal",
            "outputs": [],
            "stateMutability": "nonpayable",
            "type": "function"
        },
        {
            "inputs": [
                {
                    "internalType": "address",
                    "name": "ia",
                    "type": "address"
                },
                {
                    "internalType": "uint256",
                    "name": "seqOfDeal",
                    "type": "uint256"
                },
                {
                    "internalType": "bool",
                    "name": "dragAlong",
                    "type": "bool"
                },
                {
                    "internalType": "uint256",
                    "name": "seqOfShare",
                    "type": "uint256"
                },
                {
                    "internalType": "uint256",
                    "name": "paid",
                    "type": "uint256"
                },
                {
                    "internalType": "uint256",
                    "name": "par",
                    "type": "uint256"
                },
                {
                    "internalType": "uint256",
                    "name": "caller",
                    "type": "uint256"
                },
                {
                    "internalType": "bytes32",
                    "name": "sigHash",
                    "type": "bytes32"
                }
            ],
            "name": "execAlongRight",
            "outputs": [],
            "stateMutability": "nonpayable",
            "type": "function"
        },
        {
            "inputs": [
                {
                    "internalType": "address",
                    "name": "ia",
                    "type": "address"
                },
                {
                    "internalType": "uint256",
                    "name": "seqOfDeal",
                    "type": "uint256"
                },
                {
                    "internalType": "uint256",
                    "name": "seqOfShare",
                    "type": "uint256"
                },
                {
                    "internalType": "uint256",
                    "name": "caller",
                    "type": "uint256"
                },
                {
                    "internalType": "bytes32",
                    "name": "sigHash",
                    "type": "bytes32"
                }
            ],
            "name": "execAntiDilution",
            "outputs": [],
            "stateMutability": "nonpayable",
            "type": "function"
        },
        {
            "inputs": [
                {
                    "internalType": "uint256",
                    "name": "seqOfFRRule",
                    "type": "uint256"
                },
                {
                    "internalType": "uint256",
                    "name": "seqOfRightholder",
                    "type": "uint256"
                },
                {
                    "internalType": "address",
                    "name": "ia",
                    "type": "address"
                },
                {
                    "internalType": "uint256",
                    "name": "seqOfDeal",
                    "type": "uint256"
                },
                {
                    "internalType": "uint256",
                    "name": "caller",
                    "type": "uint256"
                },
                {
                    "internalType": "bytes32",
                    "name": "sigHash",
                    "type": "bytes32"
                }
            ],
            "name": "execFirstRefusal",
            "outputs": [],
            "stateMutability": "nonpayable",
            "type": "function"
        },
        {
            "inputs": [],
            "name": "finalized",
            "outputs": [
                {
                    "internalType": "bool",
                    "name": "",
                    "type": "bool"
                }
            ],
            "stateMutability": "view",
            "type": "function"
        },
        {
            "inputs": [],
            "name": "getBookeeper",
            "outputs": [
                {
                    "internalType": "address",
                    "name": "",
                    "type": "address"
                }
            ],
            "stateMutability": "view",
            "type": "function"
        },
        {
            "inputs": [],
            "name": "getGeneralCounsel",
            "outputs": [
                {
                    "internalType": "uint40",
                    "name": "",
                    "type": "uint40"
                }
            ],
            "stateMutability": "view",
            "type": "function"
        },
        {
            "inputs": [],
            "name": "getOwner",
            "outputs": [
                {
                    "internalType": "uint40",
                    "name": "",
                    "type": "uint40"
                }
            ],
            "stateMutability": "view",
            "type": "function"
        },
        {
            "inputs": [
                {
                    "internalType": "bytes32",
                    "name": "role",
                    "type": "bytes32"
                },
                {
                    "internalType": "uint256",
                    "name": "acct",
                    "type": "uint256"
                }
            ],
            "name": "grantRole",
            "outputs": [],
            "stateMutability": "nonpayable",
            "type": "function"
        },
        {
            "inputs": [
                {
                    "internalType": "bytes32",
                    "name": "role",
                    "type": "bytes32"
                },
                {
                    "internalType": "uint256",
                    "name": "acct",
                    "type": "uint256"
                }
            ],
            "name": "hasRole",
            "outputs": [
                {
                    "internalType": "bool",
                    "name": "",
                    "type": "bool"
                }
            ],
            "stateMutability": "view",
            "type": "function"
        },
        {
            "inputs": [
                {
                    "internalType": "uint256",
                    "name": "owner",
                    "type": "uint256"
                },
                {
                    "internalType": "address",
                    "name": "directKeeper",
                    "type": "address"
                },
                {
                    "internalType": "address",
                    "name": "regCenter",
                    "type": "address"
                },
                {
                    "internalType": "address",
                    "name": "generalKeeper",
                    "type": "address"
                }
            ],
            "name": "init",
            "outputs": [],
            "stateMutability": "nonpayable",
            "type": "function"
        },
        {
            "inputs": [],
            "name": "lockContents",
            "outputs": [],
            "stateMutability": "nonpayable",
            "type": "function"
        },
        {
            "inputs": [
                {
                    "internalType": "address",
                    "name": "target",
                    "type": "address"
                }
            ],
            "name": "removeDirectKeeper",
            "outputs": [],
            "stateMutability": "nonpayable",
            "type": "function"
        },
        {
            "inputs": [
                {
                    "internalType": "bytes32",
                    "name": "role",
                    "type": "bytes32"
                }
            ],
            "name": "renounceRole",
            "outputs": [],
            "stateMutability": "nonpayable",
            "type": "function"
        },
        {
            "inputs": [
                {
                    "internalType": "bytes32",
                    "name": "role",
                    "type": "bytes32"
                },
                {
                    "internalType": "uint256",
                    "name": "acct",
                    "type": "uint256"
                }
            ],
            "name": "revokeRole",
            "outputs": [],
            "stateMutability": "nonpayable",
            "type": "function"
        },
        {
            "inputs": [
                {
                    "internalType": "address",
                    "name": "keeper",
                    "type": "address"
                }
            ],
            "name": "setDirectKeeper",
            "outputs": [],
            "stateMutability": "nonpayable",
            "type": "function"
        },
        {
            "inputs": [
                {
                    "internalType": "uint256",
                    "name": "acct",
                    "type": "uint256"
                }
            ],
            "name": "setGeneralCounsel",
            "outputs": [],
            "stateMutability": "nonpayable",
            "type": "function"
        },
        {
            "inputs": [
                {
                    "internalType": "uint256",
                    "name": "acct",
                    "type": "uint256"
                }
            ],
            "name": "setOwner",
            "outputs": [],
            "stateMutability": "nonpayable",
            "type": "function"
        },
        {
            "inputs": [
                {
                    "internalType": "bytes32",
                    "name": "role",
                    "type": "bytes32"
                },
                {
                    "internalType": "uint256",
                    "name": "acct",
                    "type": "uint256"
                }
            ],
            "name": "setRoleAdmin",
            "outputs": [],
            "stateMutability": "nonpayable",
            "type": "function"
        },
        {
            "inputs": [
                {
                    "internalType": "address",
                    "name": "ia",
                    "type": "address"
                },
                {
                    "internalType": "uint256",
                    "name": "seqOfDeal",
                    "type": "uint256"
                },
                {
                    "internalType": "uint256",
                    "name": "caller",
                    "type": "uint256"
                }
            ],
            "name": "takeGiftShares",
            "outputs": [],
            "stateMutability": "nonpayable",
            "type": "function"
        }
    ],
    "bytecode": "608060405234801561001057600080fd5b506160fa80620000216000396000f3fe608060405234801561001057600080fd5b50600436106101425760003560e01c80637e063c5a116100b8578063c65511d81161007c578063c65511d81461028f578063dc890da9146102a2578063ed211023146102b5578063f045a769146102d5578063f51147e3146102dd578063f61bf284146102f057600080fd5b80637e063c5a1461022a5780638041494e1461024d578063893d20e8146102605780638bb9c5bf14610268578063b3f05b971461027b57600080fd5b80634a14beb11161010a5780634a14beb1146101b85780635171ebd4146101cb57806358677418146101de5780635d7ad88f146101f1578063651c7b08146102045780636be8496f1461021757600080fd5b8063103f6edd1461014757806319d61ad91461016a5780631b6ea9f91461017f578063325508d5146101925780633da9a600146101a5575b600080fd5b61014f610303565b60405164ffffffffff90911681526020015b60405180910390f35b61017d610178366004615060565b61038f565b005b61017d61018d366004615060565b610421565b61017d6101a036600461509a565b610447565b61017d6101b33660046150de565b610bdc565b61017d6101c63660046150de565b610c67565b61017d6101d9366004615060565b610ec4565b61017d6101ec3660046150f7565b610eea565b61017d6101ff36600461512c565b611406565b61017d61021236600461515e565b61153e565b61017d61022536600461512c565b611b26565b61023d610238366004615060565b611bd8565b6040519015158152602001610161565b61017d61025b3660046150de565b611c75565b61014f611d2e565b61017d6102763660046150de565b611d69565b60028054600160f01b900460ff161461023d565b61017d61029d3660046151cc565b611d8e565b61017d6102b036600461521f565b6125ce565b6102bd6126b0565b6040516001600160a01b039091168152602001610161565b61017d612736565b61017d6102eb36600461509a565b61297a565b61017d6102fe366004615272565b6130cd565b60405163e8c0cc1d60e01b81526002600482015260009073__$364aad554dc80380f414546becdd2c1584$__9063e8c0cc1d906024015b60206040518083038186803b15801561035257600080fd5b505af4158015610366573d6000803e3d6000fd5b505050506040513d601f19601f8201168201806040525081019061038a91906152c7565b905090565b73__$364aad554dc80380f414546becdd2c1584$__6382daafaa600284846103b56137b9565b6040516001600160e01b031960e087901b16815260048101949094526024840192909252604483015264ffffffffff16606482015260840160006040518083038186803b15801561040557600080fd5b505af4158015610419573d6000803e3d6000fd5b505050505050565b73__$364aad554dc80380f414546becdd2c1584$__636320d75e600284846103b56137b9565b604051633b11adbf60e21b81526002600482015233602482015273__$364aad554dc80380f414546becdd2c1584$__9063ec46b6fc9060440160206040518083038186803b15801561049857600080fd5b505af41580156104ac573d6000803e3d6000fd5b505050506040513d601f19601f820116820180604052508101906104d091906152ed565b6104f55760405162461bcd60e51b81526004016104ec9061530a565b60405180910390fd5b84600360ff16600160009054906101000a90046001600160a01b03166001600160a01b031663acd2d0576040518163ffffffff1660e01b815260040160206040518083038186803b15801561054957600080fd5b505afa15801561055d573d6000803e3d6000fd5b505050506040513d601f19601f820116820180604052508101906105819190615366565b6040516337066e9d60e11b81526001600160a01b0384811660048301529190911690636e0cdd3a9060240160c06040518083038186803b1580156105c457600080fd5b505afa1580156105d8573d6000803e3d6000fd5b505050506040513d601f19601f820116820180604052508101906105fc91906154c5565b60a0015160ff16146106455760405162461bcd60e51b81526020600482015260126024820152711250481b9bdd08195cdd18589b1a5cda195960721b60448201526064016104ec565b8542600160009054906101000a90046001600160a01b03166001600160a01b031663acd2d0576040518163ffffffff1660e01b815260040160206040518083038186803b15801561069557600080fd5b505afa1580156106a9573d6000803e3d6000fd5b505050506040513d601f19601f820116820180604052508101906106cd9190615366565b6040516337066e9d60e11b81526001600160a01b0384811660048301529190911690636e0cdd3a9060240160c06040518083038186803b15801561071057600080fd5b505afa158015610724573d6000803e3d6000fd5b505050506040513d601f19601f8201168201806040525081019061074891906154c5565b6020015165ffffffffffff16116107715760405162461bcd60e51b81526004016104ec90615563565b6001546040805163f01e100f60e01b815290516000926001600160a01b03169163f01e100f916004808301926020929190829003018186803b1580156107b657600080fd5b505afa1580156107ca573d6000803e3d6000fd5b505050506040513d601f19601f820116820180604052508101906107ee9190615366565b6001600160a01b031663cfb5a5f8876040518263ffffffff1660e01b815260040161081b91815260200190565b6101e06040518083038186803b15801561083457600080fd5b505afa158015610848573d6000803e3d6000fd5b505050506040513d601f19601f8201168201806040525081019061086c9190615650565b80516080015190915064ffffffffff1685146108d65760405162461bcd60e51b815260206004820152602360248201527f5348414b2e4541443a2063616c6c6572206973206e6f74207368617265686f6c6044820152623232b960e91b60648201526084016104ec565b60405163143b4f6f60e11b8152600481018690526001600160a01b038916906328769ede9060240160206040518083038186803b15801561091657600080fd5b505afa15801561092a573d6000803e3d6000fd5b505050506040513d601f19601f8201168201806040525081019061094e91906152ed565b156109a55760405162461bcd60e51b815260206004820152602160248201527f5348414b2e4541443a2063616c6c657220697320616e20496e69745369676e656044820152603960f91b60648201526084016104ec565b600154604080516314c35b8560e31b815290516000926001600160a01b03169163a61adc28916004808301926020929190829003018186803b1580156109ea57600080fd5b505afa1580156109fe573d6000803e3d6000fd5b505050506040513d601f19601f82011682018060405250810190610a229190615366565b60405163346ba94160e01b8152601760048201526001600160a01b03919091169063346ba9419060240160206040518083038186803b158015610a6457600080fd5b505afa158015610a78573d6000803e3d6000fd5b505050506040513d601f19601f82011682018060405250810190610a9c9190615366565b604051630cfc4a8360e31b81526001600160a01b038b81166004830152602482018b9052604482018a90529192506000918316906367e254189060640160206040518083038186803b158015610af157600080fd5b505afa158015610b05573d6000803e3d6000fd5b505050506040513d601f19601f82011682018060405250810190610b299190615737565b8351604090810151905163a31da53b60e01b815261ffff90911660048201529091506000906001600160a01b0384169063a31da53b9060240160006040518083038186803b158015610b7a57600080fd5b505afa158015610b8e573d6000803e3d6000fd5b505050506040513d6000823e601f3d908101601f19168201604052610bb69190810190615775565b9050610bcf8b8b846001600160401b0316848c8c613813565b5050505050505050505050565b73__$364aad554dc80380f414546becdd2c1584$__63c51b295f600283610c016137b9565b6040516001600160e01b031960e086901b1681526004810193909352602483019190915264ffffffffff16604482015260640160006040518083038186803b158015610c4c57600080fd5b505af4158015610c60573d6000803e3d6000fd5b5050505050565b604051633b11adbf60e21b81526002600482015233602482015273__$364aad554dc80380f414546becdd2c1584$__9063ec46b6fc9060440160206040518083038186803b158015610cb857600080fd5b505af4158015610ccc573d6000803e3d6000fd5b505050506040513d601f19601f82011682018060405250810190610cf091906152ed565b80610d95575073__$364aad554dc80380f414546becdd2c1584$__63fe2710866002610d1a6137b9565b6040516001600160e01b031960e085901b168152600481019290925264ffffffffff16602482015260440160206040518083038186803b158015610d5d57600080fd5b505af4158015610d71573d6000803e3d6000fd5b505050506040513d601f19601f82011682018060405250810190610d9591906152ed565b610e005760405162461bcd60e51b815260206004820152603660248201527f41432e6f776e65724f72446972656374426f6f6b65657065723a206e6569746860448201527532b91037bbb732b9103737b9103137b7b5b2b2b832b960511b60648201526084016104ec565b73__$364aad554dc80380f414546becdd2c1584$__639b4510de600283610e256137b9565b6040516001600160e01b031960e086901b1681526004810193909352602483019190915264ffffffffff16604482015260640160006040518083038186803b158015610e7057600080fd5b505af4158015610e84573d6000803e3d6000fd5b505050507ff2735f34b69be1e6342dea95f9162f84d0db925fab655ca9f1f312ac8cbfc99d81604051610eb991815260200190565b60405180910390a150565b73__$364aad554dc80380f414546becdd2c1584$__63ee98b313600284846103b56137b9565b604051633b11adbf60e21b81526002600482015233602482015273__$364aad554dc80380f414546becdd2c1584$__9063ec46b6fc9060440160206040518083038186803b158015610f3b57600080fd5b505af4158015610f4f573d6000803e3d6000fd5b505050506040513d601f19601f82011682018060405250810190610f7391906152ed565b610f8f5760405162461bcd60e51b81526004016104ec9061530a565b6040516320bf56eb60e21b8152600481018390526000906001600160a01b038516906382fd5bac906024016102606040518083038186803b158015610fd357600080fd5b505afa158015610fe7573d6000803e3d6000fd5b505050506040513d601f19601f8201168201806040525081019061100b91906158d3565b60208101515190915064ffffffffff16821461105f5760405162461bcd60e51b815260206004820152601360248201527231b0b63632b91034b9903737ba10313abcb2b960691b60448201526064016104ec565b60405163122ec47f60e31b8152600481018490526001600160a01b0385169063917623f890602401602060405180830381600087803b1580156110a157600080fd5b505af11580156110b5573d6000803e3d6000fd5b505050506040513d601f19601f820116820180604052508101906110d991906152ed565b156111c957600160009054906101000a90046001600160a01b03166001600160a01b031663acd2d0576040518163ffffffff1660e01b815260040160206040518083038186803b15801561112c57600080fd5b505afa158015611140573d6000803e3d6000fd5b505050506040513d601f19601f820116820180604052508101906111649190615366565b604051634c6a94cb60e01b81526001600160a01b038681166004830152600760248301529190911690634c6a94cb90604401600060405180830381600087803b1580156111b057600080fd5b505af11580156111c4573d6000803e3d6000fd5b505050505b600160009054906101000a90046001600160a01b03166001600160a01b031663f01e100f6040518163ffffffff1660e01b815260040160206040518083038186803b15801561121757600080fd5b505afa15801561122b573d6000803e3d6000fd5b505050506040513d601f19601f8201168201806040525081019061124f9190615366565b8151608001516020830151604090810151905163ccdddd4160e01b815263ffffffff90921660048301526001600160401b031660248201526001600160a01b03919091169063ccdddd4190604401600060405180830381600087803b1580156112b757600080fd5b505af11580156112cb573d6000803e3d6000fd5b50505050600160009054906101000a90046001600160a01b03166001600160a01b031663f01e100f6040518163ffffffff1660e01b815260040160206040518083038186803b15801561131d57600080fd5b505afa158015611331573d6000803e3d6000fd5b505050506040513d601f19601f820116820180604052508101906113559190615366565b8151608001516020830151604080820151606083015192519151632b91fe9560e21b815263ffffffff90941660048501526001600160401b039081166024850152909116604483015264ffffffffff16606482015260006084820181905260a48201526001600160a01b03919091169063ae47fa549060c401600060405180830381600087803b1580156113e857600080fd5b505af11580156113fc573d6000803e3d6000fd5b5050505050505050565b604051633b11adbf60e21b81526002600482015233602482015273__$364aad554dc80380f414546becdd2c1584$__9063ec46b6fc9060440160206040518083038186803b15801561145757600080fd5b505af415801561146b573d6000803e3d6000fd5b505050506040513d601f19601f8201168201806040525081019061148f91906152ed565b6114ab5760405162461bcd60e51b81526004016104ec9061530a565b604051636be8496f60e01b81523360048201526001600160a01b03821690636be8496f90602401600060405180830381600087803b1580156114ec57600080fd5b505af1158015611500573d6000803e3d6000fd5b50506040516001600160a01b03841681527f64dd6e84044f0067086012335dcfab3188db6615b5cc7debf18c9a621ebd5d9192506020019050610eb9565b604051633b11adbf60e21b81526002600482015233602482015273__$364aad554dc80380f414546becdd2c1584$__9063ec46b6fc9060440160206040518083038186803b15801561158f57600080fd5b505af41580156115a3573d6000803e3d6000fd5b505050506040513d601f19601f820116820180604052508101906115c791906152ed565b6115e35760405162461bcd60e51b81526004016104ec9061530a565b8742600160009054906101000a90046001600160a01b03166001600160a01b031663acd2d0576040518163ffffffff1660e01b815260040160206040518083038186803b15801561163357600080fd5b505afa158015611647573d6000803e3d6000fd5b505050506040513d601f19601f8201168201806040525081019061166b9190615366565b6040516337066e9d60e11b81526001600160a01b0384811660048301529190911690636e0cdd3a9060240160c06040518083038186803b1580156116ae57600080fd5b505afa1580156116c2573d6000803e3d6000fd5b505050506040513d601f19601f820116820180604052508101906116e691906154c5565b6020015165ffffffffffff161161170f5760405162461bcd60e51b81526004016104ec90615563565b6040516320bf56eb60e21b8152600481018990526000906001600160a01b038b16906382fd5bac906024016102606040518083038186803b15801561175357600080fd5b505afa158015611767573d6000803e3d6000fd5b505050506040513d601f19601f8201168201806040525081019061178b91906158d3565b90506000600160009054906101000a90046001600160a01b03166001600160a01b031663f01e100f6040518163ffffffff1660e01b815260040160206040518083038186803b1580156117dd57600080fd5b505afa1580156117f1573d6000803e3d6000fd5b505050506040513d601f19601f820116820180604052508101906118159190615366565b6001600160a01b031663cfb5a5f8896040518263ffffffff1660e01b815260040161184291815260200190565b6101e06040518083038186803b15801561185b57600080fd5b505afa15801561186f573d6000803e3d6000fd5b505050506040513d601f19601f820116820180604052508101906118939190615650565b60208301516080015190915060ff16600414156118f25760405162461bcd60e51b815260206004820152601960248201527f5348414b2e4541523a206465616c207465726d696e617465640000000000000060448201526064016104ec565b600160009054906101000a90046001600160a01b03166001600160a01b031663acd2d0576040518163ffffffff1660e01b815260040160206040518083038186803b15801561194057600080fd5b505afa158015611954573d6000803e3d6000fd5b505050506040513d601f19601f820116820180604052508101906119789190615366565b6040516332277b1160e01b81526001600160a01b038d8116600483015291909116906332277b1190602401602060405180830381600087803b1580156119bd57600080fd5b505af11580156119d1573d6000803e3d6000fd5b505050506040513d601f19601f820116820180604052508101906119f591906152ed565b50611a03898c848489613ab7565b600160009054906101000a90046001600160a01b03166001600160a01b031663acd2d0576040518163ffffffff1660e01b815260040160206040518083038186803b158015611a5157600080fd5b505afa158015611a65573d6000803e3d6000fd5b505050506040513d601f19601f82011682018060405250810190611a899190615366565b604051630b44c60160e01b81526001600160a01b038d811660048301528b15156024830152604482018d9052606482018b9052608482018a905260a4820189905260c4820188905260e482018790529190911690630b44c6019061010401600060405180830381600087803b158015611b0157600080fd5b505af1158015611b15573d6000803e3d6000fd5b505050505050505050505050505050565b604051630f07232560e01b8152600260048201526001600160a01b038216602482015233604482015273__$364aad554dc80380f414546becdd2c1584$__90630f0723259060640160006040518083038186803b158015611b8657600080fd5b505af4158015611b9a573d6000803e3d6000fd5b50506040516001600160a01b03841681527fe435cbeab64e4eae6497b9d8289704bd709d624a80704ef3ca9af777534bc6ec92506020019050610eb9565b604051632a3be56b60e21b815260026004820152602481018390526044810182905260009073__$364aad554dc80380f414546becdd2c1584$__9063a8ef95ac9060640160206040518083038186803b158015611c3457600080fd5b505af4158015611c48573d6000803e3d6000fd5b505050506040513d601f19601f82011682018060405250810190611c6c91906152ed565b90505b92915050565b73__$364aad554dc80380f414546becdd2c1584$__639b48160c600283611c9a6137b9565b6040516001600160e01b031960e086901b1681526004810193909352602483019190915264ffffffffff16604482015260640160006040518083038186803b158015611ce557600080fd5b505af4158015611cf9573d6000803e3d6000fd5b505050507f8b6f40f36b4ae8cc5f55e895036457c43da4ab1f80f58c46f5ff0d72a650033b81604051610eb991815260200190565b60405163987ad15360e01b81526002600482015260009073__$364aad554dc80380f414546becdd2c1584$__9063987ad1539060240161033a565b73__$364aad554dc80380f414546becdd2c1584$__63cc0d511b600283610c016137b9565b604051633b11adbf60e21b81526002600482015233602482015273__$364aad554dc80380f414546becdd2c1584$__9063ec46b6fc9060440160206040518083038186803b158015611ddf57600080fd5b505af4158015611df3573d6000803e3d6000fd5b505050506040513d601f19601f82011682018060405250810190611e1791906152ed565b611e335760405162461bcd60e51b81526004016104ec9061530a565b8342600160009054906101000a90046001600160a01b03166001600160a01b031663acd2d0576040518163ffffffff1660e01b815260040160206040518083038186803b158015611e8357600080fd5b505afa158015611e97573d6000803e3d6000fd5b505050506040513d601f19601f82011682018060405250810190611ebb9190615366565b6040516337066e9d60e11b81526001600160a01b0384811660048301529190911690636e0cdd3a9060240160c06040518083038186803b158015611efe57600080fd5b505afa158015611f12573d6000803e3d6000fd5b505050506040513d601f19601f82011682018060405250810190611f3691906154c5565b6020015165ffffffffffff1611611f5f5760405162461bcd60e51b81526004016104ec90615563565b6040516351b171a360e01b815260016004820152602481018490526001600160a01b038616906351b171a39060440160206040518083038186803b158015611fa657600080fd5b505afa158015611fba573d6000803e3d6000fd5b505050506040513d601f19601f82011682018060405250810190611fde91906152ed565b1561202b5760405162461bcd60e51b815260206004820152601d60248201527f5348414b2e4546523a206672436c61696d65722069732073656c6c657200000060448201526064016104ec565b60405163cdf4b38760e01b8152600481018590526000906001600160a01b0387169063cdf4b387906024016101406040518083038186803b15801561206f57600080fd5b505afa158015612083573d6000803e3d6000fd5b505050506040513d601f19601f820116820180604052508101906120a791906159c3565b90506000600160009054906101000a90046001600160a01b03166001600160a01b031663a61adc286040518163ffffffff1660e01b815260040160206040518083038186803b1580156120f957600080fd5b505afa15801561210d573d6000803e3d6000fd5b505050506040513d601f19601f820116820180604052508101906121319190615366565b6001600160a01b031663484620378a6040518263ffffffff1660e01b815260040161215e91815260200190565b60206040518083038186803b15801561217657600080fd5b505afa15801561218a573d6000803e3d6000fd5b505050506040513d601f19601f820116820180604052508101906121ae91906159e0565b6040516337b96de160e11b8152600481019190915273__$9d2c69e94fee47b9774dc8db4aa5c0bbec$__90636f72dbc2906024016101606040518083038186803b1580156121fb57600080fd5b505af415801561220f573d6000803e3d6000fd5b505050506040513d601f19601f820116820180604052508101906122339190615a6d565b9050816000015160ff16816060015160ff16146122a45760405162461bcd60e51b815260206004820152602960248201527f5348414b2e4546523a2072756c6520616e64206465616c20617265206e6f742060448201526873616d65207479706560b81b60648201526084016104ec565b806080015180156123b35750600160009054906101000a90046001600160a01b03166001600160a01b03166333fb96ee6040518163ffffffff1660e01b815260040160206040518083038186803b1580156122fe57600080fd5b505afa158015612312573d6000803e3d6000fd5b505050506040513d601f19601f820116820180604052508101906123369190615366565b6001600160a01b031663d50c7377866040518263ffffffff1660e01b815260040161236391815260200190565b60206040518083038186803b15801561237b57600080fd5b505afa15801561238f573d6000803e3d6000fd5b505050506040513d601f19601f820116820180604052508101906123b391906152ed565b806123de5750848160e0015189600481106123d0576123d0615b16565b602002015164ffffffffff16145b61242a5760405162461bcd60e51b815260206004820181905260248201527f5348414b2e4546523a2063616c6c6572204e4f54207269676874686f6c64657260448201526064016104ec565b600160009054906101000a90046001600160a01b03166001600160a01b031663acd2d0576040518163ffffffff1660e01b815260040160206040518083038186803b15801561247857600080fd5b505afa15801561248c573d6000803e3d6000fd5b505050506040513d601f19601f820116820180604052508101906124b09190615366565b60405163fb255fcd60e01b81526001600160a01b038981166004830152602482018990526044820188905260648201879052919091169063fb255fcd90608401602060405180830381600087803b15801561250a57600080fd5b505af115801561251e573d6000803e3d6000fd5b505050506040513d601f19601f8201168201806040525081019061254291906152ed565b156125c357604051637b019deb60e01b8152600481018790526001600160a01b03881690637b019deb90602401602060405180830381600087803b15801561258957600080fd5b505af115801561259d573d6000803e3d6000fd5b505050506040513d601f19601f820116820180604052508101906125c191906152ed565b505b505050505050505050565b604051636cdd0edf60e11b815260026004820152602481018590526001600160a01b038416604482015273__$364aad554dc80380f414546becdd2c1584$__9063d9ba1dbe9060640160006040518083038186803b15801561262f57600080fd5b505af4158015612643573d6000803e3d6000fd5b50505050612650826143c4565b61265981614437565b604080518581526001600160a01b038581166020830152848116828401528316606082015290517f3abb2418c66fe32ba9c883030a75ce583971d9af9192b9b74e44e67c5e6c8c1f9181900360800190a150505050565b604051633c3e56c160e11b81526002600482015260009073__$364aad554dc80380f414546becdd2c1584$__9063787cad829060240160206040518083038186803b1580156126fe57600080fd5b505af4158015612712573d6000803e3d6000fd5b505050506040513d601f19601f8201168201806040525081019061038a9190615366565b600254600160f01b900460ff166001146127925760405162461bcd60e51b815260206004820152601760248201527f41432e4c433a20446f632069732066696e616c697a656400000000000000000060448201526064016104ec565b73__$364aad554dc80380f414546becdd2c1584$__63c51b295f6002684174746f726e65797360b81b6127c36137b9565b6040516001600160e01b031960e086901b1681526004810193909352602483019190915264ffffffffff16604482015260640160006040518083038186803b15801561280e57600080fd5b505af4158015612822573d6000803e3d6000fd5b50505050600273__$364aad554dc80380f414546becdd2c1584$__639b4510de9091600061284e6137b9565b6040516001600160e01b031960e086901b1681526004810193909352602483019190915264ffffffffff16604482015260640160006040518083038186803b15801561289957600080fd5b505af41580156128ad573d6000803e3d6000fd5b50505050600273__$364aad554dc80380f414546becdd2c1584$__639b48160c909160006128d96137b9565b6040516001600160e01b031960e086901b1681526004810193909352602483019190915264ffffffffff16604482015260640160006040518083038186803b15801561292457600080fd5b505af4158015612938573d6000803e3d6000fd5b50506002805460ff60f01b1916600160f11b17905550506040517f35012b512309c322acf68632cd6cb702ff0e1d776fbe9394e38ffc13b434fe7590600090a1565b604051633b11adbf60e21b81526002600482015233602482015273__$364aad554dc80380f414546becdd2c1584$__9063ec46b6fc9060440160206040518083038186803b1580156129cb57600080fd5b505af41580156129df573d6000803e3d6000fd5b505050506040513d601f19601f82011682018060405250810190612a0391906152ed565b612a1f5760405162461bcd60e51b81526004016104ec9061530a565b8442600160009054906101000a90046001600160a01b03166001600160a01b031663acd2d0576040518163ffffffff1660e01b815260040160206040518083038186803b158015612a6f57600080fd5b505afa158015612a83573d6000803e3d6000fd5b505050506040513d601f19601f82011682018060405250810190612aa79190615366565b6040516337066e9d60e11b81526001600160a01b0384811660048301529190911690636e0cdd3a9060240160c06040518083038186803b158015612aea57600080fd5b505afa158015612afe573d6000803e3d6000fd5b505050506040513d601f19601f82011682018060405250810190612b2291906154c5565b6020015165ffffffffffff161115612b4c5760405162461bcd60e51b81526004016104ec90615b2c565b8542600160009054906101000a90046001600160a01b03166001600160a01b031663acd2d0576040518163ffffffff1660e01b815260040160206040518083038186803b158015612b9c57600080fd5b505afa158015612bb0573d6000803e3d6000fd5b505050506040513d601f19601f82011682018060405250810190612bd49190615366565b6040516337066e9d60e11b81526001600160a01b0384811660048301529190911690636e0cdd3a9060240160c06040518083038186803b158015612c1757600080fd5b505afa158015612c2b573d6000803e3d6000fd5b505050506040513d601f19601f82011682018060405250810190612c4f91906154c5565b6040015165ffffffffffff161015612c795760405162461bcd60e51b81526004016104ec90615b2c565b6040516320bf56eb60e21b8152600481018790526000906001600160a01b038916906382fd5bac906024016102606040518083038186803b158015612cbd57600080fd5b505afa158015612cd1573d6000803e3d6000fd5b505050506040513d601f19601f82011682018060405250810190612cf591906158d3565b60208101515190915064ffffffffff168514612d495760405162461bcd60e51b815260206004820152601360248201527229a420a59720a0a21d103737ba10313abcb2b960691b60448201526064016104ec565b60208101516080015160ff166004146113fc576001546040805163acd2d05760e01b815290516000926001600160a01b03169163acd2d057916004808301926020929190829003018186803b158015612da157600080fd5b505afa158015612db5573d6000803e3d6000fd5b505050506040513d601f19601f82011682018060405250810190612dd99190615366565b604051630fc89eeb60e01b81526001600160a01b038b81166004830152602482018b9052604482018a90529190911690630fc89eeb9060640160e06040518083038186803b158015612e2a57600080fd5b505afa158015612e3e573d6000803e3d6000fd5b505050506040513d601f19601f82011682018060405250810190612e629190615b63565b90506000600160009054906101000a90046001600160a01b03166001600160a01b031663f01e100f6040518163ffffffff1660e01b815260040160206040518083038186803b158015612eb457600080fd5b505afa158015612ec8573d6000803e3d6000fd5b505050506040513d601f19601f82011682018060405250810190612eec9190615366565b6001600160a01b031663cfb5a5f8896040518263ffffffff1660e01b8152600401612f1991815260200190565b6101e06040518083038186803b158015612f3257600080fd5b505afa158015612f46573d6000803e3d6000fd5b505050506040513d601f19601f82011682018060405250810190612f6a9190615650565b90506000612f7a8b8486856144b2565b608084015160a085015160c08601516040516329014b6d60e21b81526004810185905264ffffffffff909316602484015265ffffffffffff909116604483015260648201529091506001600160a01b038c169063a4052db490608401602060405180830381600087803b158015612ff057600080fd5b505af1158015613004573d6000803e3d6000fd5b505050506040513d601f19601f8201168201806040525081019061302891906152ed565b506040516329014b6d60e21b8152600481018290526024810189905265ffffffffffff42166044820152606481018890526001600160a01b038c169063a4052db490608401602060405180830381600087803b15801561308757600080fd5b505af115801561309b573d6000803e3d6000fd5b505050506040513d601f19601f820116820180604052508101906130bf91906152ed565b505050505050505050505050565b604051633b11adbf60e21b81526002600482015233602482015273__$364aad554dc80380f414546becdd2c1584$__9063ec46b6fc9060440160206040518083038186803b15801561311e57600080fd5b505af4158015613132573d6000803e3d6000fd5b505050506040513d601f19601f8201168201806040525081019061315691906152ed565b6131725760405162461bcd60e51b81526004016104ec9061530a565b8342600160009054906101000a90046001600160a01b03166001600160a01b031663acd2d0576040518163ffffffff1660e01b815260040160206040518083038186803b1580156131c257600080fd5b505afa1580156131d6573d6000803e3d6000fd5b505050506040513d601f19601f820116820180604052508101906131fa9190615366565b6040516337066e9d60e11b81526001600160a01b0384811660048301529190911690636e0cdd3a9060240160c06040518083038186803b15801561323d57600080fd5b505afa158015613251573d6000803e3d6000fd5b505050506040513d601f19601f8201168201806040525081019061327591906154c5565b6020015165ffffffffffff16111561329f5760405162461bcd60e51b81526004016104ec90615b2c565b6040516320bf56eb60e21b8152600481018590526000906001600160a01b038716906382fd5bac906024016102606040518083038186803b1580156132e357600080fd5b505afa1580156132f7573d6000803e3d6000fd5b505050506040513d601f19601f8201168201806040525081019061331b91906158d3565b80515190915060ff166001141561358557600160009054906101000a90046001600160a01b03166001600160a01b03166333fb96ee6040518163ffffffff1660e01b815260040160206040518083038186803b15801561337a57600080fd5b505afa15801561338e573d6000803e3d6000fd5b505050506040513d601f19601f820116820180604052508101906133b29190615366565b6001600160a01b031663984199286040518163ffffffff1660e01b815260040160206040518083038186803b1580156133ea57600080fd5b505afa1580156133fe573d6000803e3d6000fd5b505050506040513d601f19601f8201168201806040525081019061342291906152c7565b64ffffffffff16600160009054906101000a90046001600160a01b03166001600160a01b03166333fb96ee6040518163ffffffff1660e01b815260040160206040518083038186803b15801561347757600080fd5b505afa15801561348b573d6000803e3d6000fd5b505050506040513d601f19601f820116820180604052508101906134af9190615366565b6001600160a01b031663605c5ec6866040518263ffffffff1660e01b81526004016134dc91815260200190565b60206040518083038186803b1580156134f457600080fd5b505afa158015613508573d6000803e3d6000fd5b505050506040513d601f19601f8201168201806040525081019061352c91906152c7565b64ffffffffff16146135805760405162461bcd60e51b815260206004820152601860248201527f5348414b2e4146523a206e6f7420636f6e74726f6c6c6572000000000000000060448201526064016104ec565b6135e0565b805160a0015164ffffffffff1684146135e05760405162461bcd60e51b815260206004820152601a60248201527f5348414b2e4146523a206e6f742073656c6c65724f664465616c00000000000060448201526064016104ec565b6001546040805163acd2d05760e01b815290516000926001600160a01b03169163acd2d057916004808301926020929190829003018186803b15801561362557600080fd5b505afa158015613639573d6000803e3d6000fd5b505050506040513d601f19601f8201168201806040525081019061365d9190615366565b60405163a0b7b8a760e01b81526001600160a01b03898116600483015260248201899052919091169063a0b7b8a790604401600060405180830381600087803b1580156136a957600080fd5b505af11580156136bd573d6000803e3d6000fd5b505050506040513d6000823e601f3d908101601f191682016040526136e59190810190615c0e565b80519091505b80156137315761371f888484613702600186615d22565b8151811061371257613712615b16565b6020026020010151614827565b8061372981615d39565b9150506136eb565b604051630cac562d60e11b81526000600482015260248101879052604481018690526001600160a01b03891690631958ac5a90606401602060405180830381600087803b15801561378157600080fd5b505af1158015613795573d6000803e3d6000fd5b505050506040513d601f19601f820116820180604052508101906125c391906152ed565b60008054604051636ae3b70d60e11b81523360048201526001600160a01b039091169063d5c76e1a90602401602060405180830381600087803b1580156137ff57600080fd5b505af1158015610366573d6000803e3d6000fd5b60005b8351811015613a5e57600154604080516319fdcb7760e11b815290516000926001600160a01b0316916333fb96ee916004808301926020929190829003018186803b15801561386457600080fd5b505afa158015613878573d6000803e3d6000fd5b505050506040513d601f19601f8201168201806040525081019061389c9190615366565b6001600160a01b031663e80bf9068684815181106138bc576138bc615b16565b60200260200101516040518263ffffffff1660e01b81526004016138e291815260200190565b60006040518083038186803b1580156138fa57600080fd5b505afa15801561390e573d6000803e3d6000fd5b505050506040513d6000823e601f3d908101601f191682016040526139369190810190615775565b905060005b8151811015613a3f5760008061396f8b8b86868151811061395e5761395e615b16565b602002602001015160001c8c614b9d565b6040516329014b6d60e21b815260048101839052602481018a905265ffffffffffff421660448201526064810189905291935091506001600160a01b038c169063a4052db490608401602060405180830381600087803b1580156139d257600080fd5b505af11580156139e6573d6000803e3d6000fd5b505050506040513d601f19601f82011682018060405250810190613a0a91906152ed565b506001600160401b038116613a20575050613a3f565b6001600160401b03169750819050613a3781615d50565b91505061393b565b5085613a4b5750613a5e565b5080613a5681615d50565b915050613816565b5083156104195760405162461bcd60e51b815260206004820152602160248201527f6f626c69676f72732068617665206e6f7420656e6f7567682070617256616c756044820152606560f81b60648201526084016104ec565b600160009054906101000a90046001600160a01b03166001600160a01b031663acd2d0576040518163ffffffff1660e01b815260040160206040518083038186803b158015613b0557600080fd5b505afa158015613b19573d6000803e3d6000fd5b505050506040513d601f19601f82011682018060405250810190613b3d9190615366565b604051638f6b658760e01b81526001600160a01b038681166004830152602482018490529190911690638f6b658790604401602060405180830381600087803b158015613b8957600080fd5b505af1158015613b9d573d6000803e3d6000fd5b505050506040513d601f19601f82011682018060405250810190613bc191906152ed565b15613c0e5760405162461bcd60e51b815260206004820152601d60248201527f5348414b2e4341443a2063616c6c6572206973206672436c61696d657200000060448201526064016104ec565b600160009054906101000a90046001600160a01b03166001600160a01b031663acd2d0576040518163ffffffff1660e01b815260040160206040518083038186803b158015613c5c57600080fd5b505afa158015613c70573d6000803e3d6000fd5b505050506040513d601f19601f82011682018060405250810190613c949190615366565b825160800151604051638f6b658760e01b81526001600160a01b03878116600483015264ffffffffff9092166024820152911690638f6b658790604401602060405180830381600087803b158015613ceb57600080fd5b505af1158015613cff573d6000803e3d6000fd5b505050506040513d601f19601f82011682018060405250810190613d2391906152ed565b15613d7b5760405162461bcd60e51b815260206004820152602260248201527f5348414b2e4341443a207368617265686f6c646572206973206672436c61696d60448201526132b960f11b60648201526084016104ec565b600085613e8757600160009054906101000a90046001600160a01b03166001600160a01b031663a61adc286040518163ffffffff1660e01b815260040160206040518083038186803b158015613dd057600080fd5b505afa158015613de4573d6000803e3d6000fd5b505050506040513d601f19601f82011682018060405250810190613e089190615366565b60405163346ba94160e01b8152601b60048201526001600160a01b03919091169063346ba9419060240160206040518083038186803b158015613e4a57600080fd5b505afa158015613e5e573d6000803e3d6000fd5b505050506040513d601f19601f82011682018060405250810190613e829190615366565b613f87565b600160009054906101000a90046001600160a01b03166001600160a01b031663a61adc286040518163ffffffff1660e01b815260040160206040518083038186803b158015613ed557600080fd5b505afa158015613ee9573d6000803e3d6000fd5b505050506040513d601f19601f82011682018060405250810190613f0d9190615366565b60405163346ba94160e01b8152601860048201526001600160a01b03919091169063346ba9419060240160206040518083038186803b158015613f4f57600080fd5b505afa158015613f63573d6000803e3d6000fd5b505050506040513d601f19601f82011682018060405250810190613f879190615366565b60405163e065228560e01b81529091506001600160a01b0382169063e065228590613fb89088908890600401615ee0565b60206040518083038186803b158015613fd057600080fd5b505afa158015613fe4573d6000803e3d6000fd5b505050506040513d601f19601f8201168201806040525081019061400891906152ed565b6140445760405162461bcd60e51b815260206004820152600d60248201526c1b9bdd081d1c9a59d9d95c9959609a1b60448201526064016104ec565b835160a0015183516080015160405163b097b85760e01b815264ffffffffff9283166004820152911660248201526001600160a01b0382169063b097b8579060440160206040518083038186803b15801561409e57600080fd5b505afa1580156140b2573d6000803e3d6000fd5b505050506040513d601f19601f820116820180604052508101906140d691906152ed565b6141335760405162461bcd60e51b815260206004820152602860248201527f64726167657220616e6420746172676574207368617265686f6c646572204e4f60448201526715081b1a5b9ad95960c21b60648201526084016104ec565b851561427b57835160a0015164ffffffffff1682146141a85760405162461bcd60e51b815260206004820152602b60248201527f5348414b2e4d41443a2063616c6c6572206973206e6f7420647261676572206f60448201526a662044726167416c6f6e6760a81b60648201526084016104ec565b60405163320a2fbd60e01b81526001600160a01b0382169063320a2fbd906141da908890889088908890600401615efe565b60206040518083038186803b1580156141f257600080fd5b505afa158015614206573d6000803e3d6000fd5b505050506040513d601f19601f8201168201806040525081019061422a91906152ed565b6142765760405162461bcd60e51b815260206004820152601d60248201527f5348414b2e4d41443a207072696365204e4f542073617469736669656400000060448201526064016104ec565b610419565b82516080015164ffffffffff1682146142ee5760405162461bcd60e51b815260206004820152602f60248201527f5348414b2e4d41443a2063616c6c6572206973206e6f74207368617265686f6c60448201526e646572206f6620546167416c6f6e6760881b60648201526084016104ec565b60405163b115233560e01b815260016004820152602481018390526001600160a01b0386169063b11523359060440160206040518083038186803b15801561433557600080fd5b505afa158015614349573d6000803e3d6000fd5b505050506040513d601f19601f8201168201806040525081019061436d91906152ed565b156104195760405162461bcd60e51b815260206004820152602160248201527f5348414b2e4d41443a2063616c6c6572206973204275796572206f66204465616044820152601b60fa1b60648201526084016104ec565b6000546001600160a01b0316156144155760405162461bcd60e51b815260206004820152601560248201527430b63932b0b23c9039b2ba103932b3a1b2b73a32b960591b60448201526064016104ec565b600080546001600160a01b0319166001600160a01b0392909216919091179055565b6001546001600160a01b0316156144905760405162461bcd60e51b815260206004820152601960248201527f616c7265616479207365742067656e6572616c4b65657065720000000000000060448201526064016104ec565b600180546001600160a01b0319166001600160a01b0392909216919091179055565b6000604051806101400160405280856000015160ff166000146144d65760056144d9565b60065b60ff168152602001600061ffff16815260200184600001516020015161ffff16815260200183600001516040015161ffff16815260200183600001516000015163ffffffff16815260200183600001516080015164ffffffffff168152602001846000015160c0015163ffffffff168152602001846000015160e0015163ffffffff1681526020018460000151610100015165ffffffffffff168152602001600061ffff16815250836000018190525060405180610100016040528084602001516000015164ffffffffff16815260200184602001516020015164ffffffffff16815260200185604001516001600160401b0316815260200185606001516001600160401b03168152602001600160048111156145f8576145f8615350565b60ff16815260006020808301829052604080840183905260609093019190915285019190915251631f24908560e31b81526001600160a01b0386169063f92484289061464890869060040161600f565b602060405180830381600087803b15801561466257600080fd5b505af1158015614676573d6000803e3d6000fd5b505050506040513d601f19601f8201168201806040525081019061469a919061601e565b61ffff169050846001600160a01b0316639a9a7a44826040518263ffffffff1660e01b81526004016146ce91815260200190565b602060405180830381600087803b1580156146e857600080fd5b505af11580156146fc573d6000803e3d6000fd5b505050506040513d601f19601f8201168201806040525081019061472091906152ed565b50600160009054906101000a90046001600160a01b03166001600160a01b031663f01e100f6040518163ffffffff1660e01b815260040160206040518083038186803b15801561476f57600080fd5b505afa158015614783573d6000803e3d6000fd5b505050506040513d601f19601f820116820180604052508101906147a79190615366565b82515160408681015190516360d095df60e01b815263ffffffff90921660048301526001600160401b031660248201526001600160a01b0391909116906360d095df90604401600060405180830381600087803b15801561480757600080fd5b505af115801561481b573d6000803e3d6000fd5b50505050949350505050565b81516080015163ffffffff16156148435781516007905261484a565b8151600490525b815160208082015161ffff16604092830152828101518185015164ffffffffff909116905260015482516319fdcb7760e11b815292516001600160a01b03909116926333fb96ee926004808301939192829003018186803b1580156148ae57600080fd5b505afa1580156148c2573d6000803e3d6000fd5b505050506040513d601f19601f820116820180604052508101906148e69190615366565b602082015160405163302e2f6360e11b815264ffffffffff90911660048201526001600160a01b03919091169063605c5ec69060240160206040518083038186803b15801561493457600080fd5b505afa158015614948573d6000803e3d6000fd5b505050506040513d601f19601f8201168201806040525081019061496c91906152c7565b6020808401805164ffffffffff909316929091019190915260608201519051604001516127109161499c91616039565b6149a69190616068565b6020830180516001600160401b0390921660409092019190915260608083015191510151612710916149d791616039565b6149e19190616068565b6020830180516001600160401b0392909216606090920191909152516001608090910152604051631f24908560e31b81526001600160a01b03841690639a9a7a4490829063f924842890614a3990879060040161600f565b602060405180830381600087803b158015614a5357600080fd5b505af1158015614a67573d6000803e3d6000fd5b505050506040513d601f19601f82011682018060405250810190614a8b919061601e565b6040516001600160e01b031960e084901b16815261ffff9091166004820152602401602060405180830381600087803b158015614ac757600080fd5b505af1158015614adb573d6000803e3d6000fd5b505050506040513d601f19601f82011682018060405250810190614aff91906152ed565b50602081015160a0820151604051630cac562d60e11b81526000600482015264ffffffffff909216602483015260448201526001600160a01b03841690631958ac5a90606401602060405180830381600087803b158015614b5f57600080fd5b505af1158015614b73573d6000803e3d6000fd5b505050506040513d601f19601f82011682018060405250810190614b9791906152ed565b50505050565b6000806000866001600160a01b03166382fd5bac876040518263ffffffff1660e01b8152600401614bd091815260200190565b6102606040518083038186803b158015614be957600080fd5b505afa158015614bfd573d6000803e3d6000fd5b505050506040513d601f19601f82011682018060405250810190614c2191906158d3565b90506000600160009054906101000a90046001600160a01b03166001600160a01b031663f01e100f6040518163ffffffff1660e01b815260040160206040518083038186803b158015614c7357600080fd5b505afa158015614c87573d6000803e3d6000fd5b505050506040513d601f19601f82011682018060405250810190614cab9190615366565b6001600160a01b031663cfb5a5f8876040518263ffffffff1660e01b8152600401614cd891815260200190565b6101e06040518083038186803b158015614cf157600080fd5b505afa158015614d05573d6000803e3d6000fd5b505050506040513d601f19601f82011682018060405250810190614d299190615650565b90506000808260200151606001516001600160401b0316111561504857858260200151606001516001600160401b031610614d645785614d6e565b8160200151606001515b9050614e20604080516101a081019091526000606082018181526080830182905260a0830182905260c0830182905260e08301829052610100830182905261012083018290526101408301829052610160830182905261018083019190915281908152604080516101008101825260008082526020828101829052928201819052606082018190526080820181905260a0820181905260c0820181905260e08201529101908152600060209091015290565b805160089052805161ffff8a8116604092830152845182015183519116606091820152845151835163ffffffff9091166080918201528551810151845164ffffffffff91821660a090910152875161010090810151865165ffffffffffff90911691015260208089018051518288018051918516909152905182015181519316929091019190915280516001600160401b0387169085018190528151909301929092529051600191015251631f24908560e31b81526001600160a01b038b169063f924842890614ef490849060040161600f565b602060405180830381600087803b158015614f0e57600080fd5b505af1158015614f22573d6000803e3d6000fd5b505050506040513d601f19601f82011682018060405250810190614f46919061601e565b61ffff169550600160009054906101000a90046001600160a01b03166001600160a01b031663f01e100f6040518163ffffffff1660e01b815260040160206040518083038186803b158015614f9a57600080fd5b505afa158015614fae573d6000803e3d6000fd5b505050506040513d601f19601f82011682018060405250810190614fd29190615366565b8351516040516360d095df60e01b815263ffffffff90911660048201526001600160401b03841660248201526001600160a01b0391909116906360d095df90604401600060405180830381600087803b15801561502e57600080fd5b505af1158015615042573d6000803e3d6000fd5b50505050505b615052818761609c565b935050505094509492505050565b6000806040838503121561507357600080fd5b50508035926020909101359150565b6001600160a01b038116811461509757600080fd5b50565b600080600080600060a086880312156150b257600080fd5b85356150bd81615082565b97602087013597506040870135966060810135965060800135945092505050565b6000602082840312156150f057600080fd5b5035919050565b60008060006060848603121561510c57600080fd5b833561511781615082565b95602085013595506040909401359392505050565b60006020828403121561513e57600080fd5b813561514981615082565b9392505050565b801515811461509757600080fd5b600080600080600080600080610100898b03121561517b57600080fd5b883561518681615082565b975060208901359650604089013561519d81615150565b979a96995096976060810135975060808101359660a0820135965060c0820135955060e0909101359350915050565b60008060008060008060c087890312156151e557600080fd5b863595506020870135945060408701356151fe81615082565b959894975094956060810135955060808101359460a0909101359350915050565b6000806000806080858703121561523557600080fd5b84359350602085013561524781615082565b9250604085013561525781615082565b9150606085013561526781615082565b939692955090935050565b6000806000806080858703121561528857600080fd5b843561529381615082565b966020860135965060408601359560600135945092505050565b805164ffffffffff811681146152c257600080fd5b919050565b6000602082840312156152d957600080fd5b611c6c826152ad565b80516152c281615150565b6000602082840312156152ff57600080fd5b815161514981615150565b60208082526026908201527f41432e6f6e6c794469726563744b65657065723a206e6f74206469726563742060408201526535b2b2b832b960d11b606082015260800190565b634e487b7160e01b600052602160045260246000fd5b60006020828403121561537857600080fd5b815161514981615082565b634e487b7160e01b600052604160045260246000fd5b60405160c081016001600160401b03811182821017156153bb576153bb615383565b60405290565b604080519081016001600160401b03811182821017156153bb576153bb615383565b60405161012081016001600160401b03811182821017156153bb576153bb615383565b60405161014081016001600160401b03811182821017156153bb576153bb615383565b604051606081016001600160401b03811182821017156153bb576153bb615383565b60405161010081016001600160401b03811182821017156153bb576153bb615383565b604051601f8201601f191681016001600160401b038111828210171561549657615496615383565b604052919050565b805165ffffffffffff811681146152c257600080fd5b805160ff811681146152c257600080fd5b600060c082840312156154d757600080fd5b60405160c081018181106001600160401b03821117156154f9576154f9615383565b6040526155058361549e565b81526155136020840161549e565b60208201526155246040840161549e565b60408201526155356060840161549e565b60608201526155466080840161549e565b608082015261555760a084016154b4565b60a08201529392505050565b6020808252601490820152731b5a5cdcd959081c995d9a595dc81c195c9a5bd960621b604082015260600190565b805163ffffffff811681146152c257600080fd5b805161ffff811681146152c257600080fd5b80516001600160401b03811681146152c257600080fd5b600060c082840312156155e057600080fd5b6155e8615399565b90506155f38261549e565b8152615601602083016155b7565b6020820152615612604083016155b7565b6040820152615623606083016155b7565b6060820152615634608083016154b4565b608082015261564560a083016154b4565b60a082015292915050565b60008183036101e081121561566457600080fd5b61566c6153c1565b6101208083121561567c57600080fd5b6156846153e3565b925061568f85615591565b835261569d60208601615591565b60208401526156ae604086016155a5565b60408401526156bf6060860161549e565b60608401526156d0608086016152ad565b60808401526156e160a08601615591565b60a08401526156f260c08601615591565b60c084015261570360e086016155a5565b60e08401526101006157168187016154b4565b90840152828252615729868683016155ce565b602083015250949350505050565b60006020828403121561574957600080fd5b611c6c826155b7565b60006001600160401b0382111561576b5761576b615383565b5060051b60200190565b6000602080838503121561578857600080fd5b82516001600160401b0381111561579e57600080fd5b8301601f810185136157af57600080fd5b80516157c26157bd82615752565b61546e565b81815260059190911b820183019083810190878311156157e157600080fd5b928401925b828410156157ff578351825292840192908401906157e6565b979650505050505050565b6000610140828403121561581d57600080fd5b615825615406565b9050615830826154b4565b815261583e602083016155a5565b602082015261584f604083016155a5565b6040820152615860606083016155a5565b606082015261587160808301615591565b608082015261588260a083016152ad565b60a082015261589360c08301615591565b60c08201526158a460e08301615591565b60e08201526101006158b781840161549e565b908201526101206158c98382016155a5565b9082015292915050565b60008183036102608112156158e757600080fd5b6158ef615429565b6158f9858561580a565b815261010061013f198301121561590f57600080fd5b61591761544b565b915061592661014085016152ad565b825261593561016085016152ad565b602083015261594761018085016155b7565b60408301526159596101a085016155b7565b606083015261596b6101c085016154b4565b608083015261597d6101e085016155a5565b60a083015261598f61020085016155a5565b60c08301526102208401516159a381615150565b60e083015260208101919091526102409290920151604083015250919050565b600061014082840312156159d657600080fd5b611c6c838361580a565b6000602082840312156159f257600080fd5b5051919050565b600082601f830112615a0a57600080fd5b604051608081018181106001600160401b0382111715615a2c57615a2c615383565b604052806080840185811115615a4157600080fd5b845b81811015615a6257615a54816152ad565b835260209283019201615a43565b509195945050505050565b60006101608284031215615a8057600080fd5b615a8861544b565b615a91836155a5565b8152615a9f602084016154b4565b6020820152615ab0604084016154b4565b6040820152615ac1606084016154b4565b60608201526080830151615ad481615150565b608082015260a0830151615ae781615150565b60a0820152615af860c084016152e2565b60c0820152615b0a8460e085016159f9565b60e08201529392505050565b634e487b7160e01b600052603260045260246000fd5b6020808252601a908201527f7374696c6c2077697468696e2072657669657720706572696f64000000000000604082015260600190565b600060e08284031215615b7557600080fd5b60405160e081018181106001600160401b0382111715615b9757615b97615383565b604052615ba3836154b4565b8152615bb160208401615591565b6020820152615bc2604084016155b7565b6040820152615bd3606084016155b7565b6060820152615be4608084016152ad565b6080820152615bf560a0840161549e565b60a082015260c083015160c08201528091505092915050565b60006020808385031215615c2157600080fd5b82516001600160401b03811115615c3757600080fd5b8301601f81018513615c4857600080fd5b8051615c566157bd82615752565b81815260c09182028301840191848201919088841115615c7557600080fd5b938501935b83851015615d005780858a031215615c925760008081fd5b615c9a615399565b615ca3866155a5565b8152615cb08787016152ad565b878201526040615cc18188016155b7565b908201526060615cd28782016155b7565b908201526080615ce387820161549e565b9082015260a0868101519082015283529384019391850191615c7a565b50979650505050505050565b634e487b7160e01b600052601160045260246000fd5b600082821015615d3457615d34615d0c565b500390565b600081615d4857615d48615d0c565b506000190190565b6000600019821415615d6457615d64615d0c565b5060010190565b64ffffffffff8082511683528060208301511660208401525060408101516001600160401b038082166040850152806060840151166060850152505060ff608082015116608083015261ffff60a08201511660a083015260c0810151615dd760c084018261ffff169052565b5060e0810151615deb60e084018215159052565b505050565b8051805160ff1683526020810151615e0e602085018261ffff169052565b506040810151615e24604085018261ffff169052565b506060810151615e3a606085018261ffff169052565b506080810151615e52608085018263ffffffff169052565b5060a0810151615e6b60a085018264ffffffffff169052565b5060c0810151615e8360c085018263ffffffff169052565b5060e0810151615e9b60e085018263ffffffff169052565b506101008181015165ffffffffffff16908401526101209081015161ffff16908301526020810151615ed1610140840182615d6b565b50604001516102409190910152565b6001600160a01b038316815261028081016151496020830184615df0565b6001600160a01b03851681526104808101615f1c6020830186615df0565b8351805163ffffffff90811661028085015260208083015182166102a086015260408084015161ffff9081166102c088015260608086015165ffffffffffff9081166102e08a015260808088015164ffffffffff166103008b015260a08089015188166103208c015260c08901519097166103408b015260e08801519093166103608a01526101009096015160ff9081166103808a01529984015180519096166103a0890152928501516001600160401b039081166103c08901529185015182166103e0880152918401511661040086015282015186166104208501520151909316610440820152610460015292915050565b6102608101611c6f8284615df0565b60006020828403121561603057600080fd5b611c6c826155a5565b60006001600160401b038083168185168183048111821515161561605f5761605f615d0c565b02949350505050565b60006001600160401b038084168061609057634e487b7160e01b600052601260045260246000fd5b92169190910492915050565b60006001600160401b03838116908316818110156160bc576160bc615d0c565b03939250505056fea264697066735822122066cb66b13cf9de3e9e2c780950ceb3a2b88c6d411e13a7c5c5dbf705a44bc7ed64736f6c63430008080033",
    "sourcePath": "/Users/kaptain/github.com/hardhat/comboox/contracts/keepers/SHAKeeper.sol",
    "compiler": {
        "name": "solc",
        "version": "0.8.8+commit.dddeac2f"
    },
    "functionHashes": {
        "abandonRole(bytes32)": "3da9a600",
        "acceptAlongDeal(address,uint256,uint256,uint256,bytes32)": "f51147e3",
        "acceptFirstRefusal(address,uint256,uint256,bytes32)": "f61bf284",
        "execAlongRight(address,uint256,bool,uint256,uint256,uint256,uint256,bytes32)": "651c7b08",
        "execAntiDilution(address,uint256,uint256,uint256,bytes32)": "325508d5",
        "execFirstRefusal(uint256,uint256,address,uint256,uint256,bytes32)": "c65511d8",
        "finalized()": "b3f05b97",
        "getBookeeper()": "ed211023",
        "getGeneralCounsel()": "103f6edd",
        "getOwner()": "893d20e8",
        "grantRole(bytes32,uint256)": "1b6ea9f9",
        "hasRole(bytes32,uint256)": "7e063c5a",
        "init(uint256,address,address,address)": "dc890da9",
        "lockContents()": "f045a769",
        "removeDirectKeeper(address)": "5d7ad88f",
        "renounceRole(bytes32)": "8bb9c5bf",
        "revokeRole(bytes32,uint256)": "19d61ad9",
        "setDirectKeeper(address)": "6be8496f",
        "setGeneralCounsel(uint256)": "4a14beb1",
        "setOwner(uint256)": "8041494e",
        "setRoleAdmin(bytes32,uint256)": "5171ebd4",
        "takeGiftShares(address,uint256,uint256)": "58677418"
    },
    "gasEstimates": {
        "creation": {
            "codeDepositCost": "4965200",
            "executionCost": "5883",
            "totalCost": "4971083"
        },
        "external": {
            "abandonRole(bytes32)": "infinite",
            "acceptAlongDeal(address,uint256,uint256,uint256,bytes32)": "infinite",
            "acceptFirstRefusal(address,uint256,uint256,bytes32)": "infinite",
            "execAlongRight(address,uint256,bool,uint256,uint256,uint256,uint256,bytes32)": "infinite",
            "execAntiDilution(address,uint256,uint256,uint256,bytes32)": "infinite",
            "execFirstRefusal(uint256,uint256,address,uint256,uint256,bytes32)": "infinite",
            "finalized()": "2438",
            "getBookeeper()": "infinite",
            "getGeneralCounsel()": "infinite",
            "getOwner()": "infinite",
            "grantRole(bytes32,uint256)": "infinite",
            "hasRole(bytes32,uint256)": "infinite",
            "init(uint256,address,address,address)": "infinite",
            "lockContents()": "infinite",
            "removeDirectKeeper(address)": "infinite",
            "renounceRole(bytes32)": "infinite",
            "revokeRole(bytes32,uint256)": "infinite",
            "setDirectKeeper(address)": "infinite",
            "setGeneralCounsel(uint256)": "infinite",
            "setOwner(uint256)": "infinite",
            "setRoleAdmin(bytes32,uint256)": "infinite",
            "takeGiftShares(address,uint256,uint256)": "infinite"
        },
        "internal": {
            "_checkAlongDeal(bool,address,struct DealsRepo.Deal memory,struct SharesRepo.Share memory,uint256)": "infinite",
            "_createAlongDeal(address,struct DTClaims.Claim memory,struct DealsRepo.Deal memory,struct SharesRepo.Share memory)": "infinite",
            "_createFRDeal(address,struct DealsRepo.Deal memory,struct FRClaims.Claim memory)": "infinite",
            "_createGift(address,uint256,uint256,uint256)": "infinite",
            "_createGiftDeals(address,uint256,uint256,uint256[] memory,uint256,bytes32)": "infinite"
        }
    }
}