{
    "contractName": "SHAKeeper",
    "abi": [
        {
            "anonymous": false,
            "inputs": [
                {
                    "indexed": true,
                    "internalType": "address",
                    "name": "owner",
                    "type": "address"
                },
                {
                    "indexed": true,
                    "internalType": "address",
                    "name": "directKeeper",
                    "type": "address"
                },
                {
                    "indexed": false,
                    "internalType": "address",
                    "name": "regCenter",
                    "type": "address"
                },
                {
                    "indexed": true,
                    "internalType": "address",
                    "name": "generalKeeper",
                    "type": "address"
                }
            ],
            "name": "Init",
            "type": "event"
        },
        {
            "anonymous": false,
            "inputs": [],
            "name": "LockContents",
            "type": "event"
        },
        {
            "anonymous": false,
            "inputs": [
                {
                    "indexed": true,
                    "internalType": "address",
                    "name": "keeper",
                    "type": "address"
                }
            ],
            "name": "SetDirectKeeper",
            "type": "event"
        },
        {
            "anonymous": false,
            "inputs": [
                {
                    "indexed": true,
                    "internalType": "address",
                    "name": "acct",
                    "type": "address"
                }
            ],
            "name": "SetOwner",
            "type": "event"
        },
        {
            "anonymous": false,
            "inputs": [
                {
                    "indexed": true,
                    "internalType": "bytes32",
                    "name": "role",
                    "type": "bytes32"
                },
                {
                    "indexed": true,
                    "internalType": "address",
                    "name": "acct",
                    "type": "address"
                }
            ],
            "name": "SetRoleAdmin",
            "type": "event"
        },
        {
            "inputs": [
                {
                    "internalType": "bytes32",
                    "name": "role",
                    "type": "bytes32"
                }
            ],
            "name": "abandonRole",
            "outputs": [],
            "stateMutability": "nonpayable",
            "type": "function"
        },
        {
            "inputs": [
                {
                    "internalType": "address",
                    "name": "ia",
                    "type": "address"
                },
                {
                    "internalType": "uint256",
                    "name": "seqOfDeal",
                    "type": "uint256"
                },
                {
                    "internalType": "uint256",
                    "name": "seqOfShare",
                    "type": "uint256"
                },
                {
                    "internalType": "uint256",
                    "name": "caller",
                    "type": "uint256"
                },
                {
                    "internalType": "bytes32",
                    "name": "sigHash",
                    "type": "bytes32"
                }
            ],
            "name": "acceptAlongDeal",
            "outputs": [],
            "stateMutability": "nonpayable",
            "type": "function"
        },
        {
            "inputs": [
                {
                    "internalType": "address",
                    "name": "ia",
                    "type": "address"
                },
                {
                    "internalType": "uint256",
                    "name": "seqOfDeal",
                    "type": "uint256"
                },
                {
                    "internalType": "uint256",
                    "name": "caller",
                    "type": "uint256"
                },
                {
                    "internalType": "bytes32",
                    "name": "sigHash",
                    "type": "bytes32"
                }
            ],
            "name": "acceptFirstRefusal",
            "outputs": [],
            "stateMutability": "nonpayable",
            "type": "function"
        },
        {
            "inputs": [
                {
                    "internalType": "address",
                    "name": "ia",
                    "type": "address"
                },
                {
                    "internalType": "uint256",
                    "name": "seqOfDeal",
                    "type": "uint256"
                },
                {
                    "internalType": "bool",
                    "name": "dragAlong",
                    "type": "bool"
                },
                {
                    "internalType": "uint256",
                    "name": "seqOfShare",
                    "type": "uint256"
                },
                {
                    "internalType": "uint256",
                    "name": "paid",
                    "type": "uint256"
                },
                {
                    "internalType": "uint256",
                    "name": "par",
                    "type": "uint256"
                },
                {
                    "internalType": "uint256",
                    "name": "caller",
                    "type": "uint256"
                },
                {
                    "internalType": "bytes32",
                    "name": "sigHash",
                    "type": "bytes32"
                }
            ],
            "name": "execAlongRight",
            "outputs": [],
            "stateMutability": "nonpayable",
            "type": "function"
        },
        {
            "inputs": [
                {
                    "internalType": "address",
                    "name": "ia",
                    "type": "address"
                },
                {
                    "internalType": "uint256",
                    "name": "seqOfDeal",
                    "type": "uint256"
                },
                {
                    "internalType": "uint256",
                    "name": "seqOfShare",
                    "type": "uint256"
                },
                {
                    "internalType": "uint256",
                    "name": "caller",
                    "type": "uint256"
                },
                {
                    "internalType": "bytes32",
                    "name": "sigHash",
                    "type": "bytes32"
                }
            ],
            "name": "execAntiDilution",
            "outputs": [],
            "stateMutability": "nonpayable",
            "type": "function"
        },
        {
            "inputs": [
                {
                    "internalType": "uint256",
                    "name": "seqOfFRRule",
                    "type": "uint256"
                },
                {
                    "internalType": "uint256",
                    "name": "seqOfRightholder",
                    "type": "uint256"
                },
                {
                    "internalType": "address",
                    "name": "ia",
                    "type": "address"
                },
                {
                    "internalType": "uint256",
                    "name": "seqOfDeal",
                    "type": "uint256"
                },
                {
                    "internalType": "uint256",
                    "name": "caller",
                    "type": "uint256"
                },
                {
                    "internalType": "bytes32",
                    "name": "sigHash",
                    "type": "bytes32"
                }
            ],
            "name": "execFirstRefusal",
            "outputs": [],
            "stateMutability": "nonpayable",
            "type": "function"
        },
        {
            "inputs": [],
            "name": "getDK",
            "outputs": [
                {
                    "internalType": "address",
                    "name": "",
                    "type": "address"
                }
            ],
            "stateMutability": "view",
            "type": "function"
        },
        {
            "inputs": [],
            "name": "getOwner",
            "outputs": [
                {
                    "internalType": "address",
                    "name": "",
                    "type": "address"
                }
            ],
            "stateMutability": "view",
            "type": "function"
        },
        {
            "inputs": [
                {
                    "internalType": "bytes32",
                    "name": "role",
                    "type": "bytes32"
                }
            ],
            "name": "getRoleAdmin",
            "outputs": [
                {
                    "internalType": "address",
                    "name": "",
                    "type": "address"
                }
            ],
            "stateMutability": "view",
            "type": "function"
        },
        {
            "inputs": [
                {
                    "internalType": "bytes32",
                    "name": "role",
                    "type": "bytes32"
                },
                {
                    "internalType": "address",
                    "name": "acct",
                    "type": "address"
                }
            ],
            "name": "grantRole",
            "outputs": [],
            "stateMutability": "nonpayable",
            "type": "function"
        },
        {
            "inputs": [
                {
                    "internalType": "bytes32",
                    "name": "role",
                    "type": "bytes32"
                },
                {
                    "internalType": "address",
                    "name": "acct",
                    "type": "address"
                }
            ],
            "name": "hasRole",
            "outputs": [
                {
                    "internalType": "bool",
                    "name": "",
                    "type": "bool"
                }
            ],
            "stateMutability": "view",
            "type": "function"
        },
        {
            "inputs": [
                {
                    "internalType": "address",
                    "name": "owner",
                    "type": "address"
                },
                {
                    "internalType": "address",
                    "name": "directKeeper",
                    "type": "address"
                },
                {
                    "internalType": "address",
                    "name": "regCenter",
                    "type": "address"
                },
                {
                    "internalType": "address",
                    "name": "generalKeeper",
                    "type": "address"
                }
            ],
            "name": "init",
            "outputs": [],
            "stateMutability": "nonpayable",
            "type": "function"
        },
        {
            "inputs": [],
            "name": "isFinalized",
            "outputs": [
                {
                    "internalType": "bool",
                    "name": "",
                    "type": "bool"
                }
            ],
            "stateMutability": "view",
            "type": "function"
        },
        {
            "inputs": [],
            "name": "lockContents",
            "outputs": [],
            "stateMutability": "nonpayable",
            "type": "function"
        },
        {
            "inputs": [
                {
                    "internalType": "bytes32",
                    "name": "role",
                    "type": "bytes32"
                }
            ],
            "name": "renounceRole",
            "outputs": [],
            "stateMutability": "nonpayable",
            "type": "function"
        },
        {
            "inputs": [
                {
                    "internalType": "bytes32",
                    "name": "role",
                    "type": "bytes32"
                },
                {
                    "internalType": "address",
                    "name": "acct",
                    "type": "address"
                }
            ],
            "name": "revokeRole",
            "outputs": [],
            "stateMutability": "nonpayable",
            "type": "function"
        },
        {
            "inputs": [
                {
                    "internalType": "address",
                    "name": "acct",
                    "type": "address"
                }
            ],
            "name": "setDirectKeeper",
            "outputs": [],
            "stateMutability": "nonpayable",
            "type": "function"
        },
        {
            "inputs": [
                {
                    "internalType": "address",
                    "name": "acct",
                    "type": "address"
                }
            ],
            "name": "setOwner",
            "outputs": [],
            "stateMutability": "nonpayable",
            "type": "function"
        },
        {
            "inputs": [
                {
                    "internalType": "bytes32",
                    "name": "role",
                    "type": "bytes32"
                },
                {
                    "internalType": "address",
                    "name": "acct",
                    "type": "address"
                }
            ],
            "name": "setRoleAdmin",
            "outputs": [],
            "stateMutability": "nonpayable",
            "type": "function"
        },
        {
            "inputs": [
                {
                    "internalType": "address",
                    "name": "ia",
                    "type": "address"
                },
                {
                    "internalType": "uint256",
                    "name": "seqOfDeal",
                    "type": "uint256"
                },
                {
                    "internalType": "uint256",
                    "name": "caller",
                    "type": "uint256"
                }
            ],
            "name": "takeGiftShares",
            "outputs": [],
            "stateMutability": "nonpayable",
            "type": "function"
        }
    ],
    "bytecode": "6080604052600454600580546001600160a01b0319166001600160a01b0390921691909117905534801561003257600080fd5b506155c280620000436000396000f3fe608060405234801561001057600080fd5b506004361061012c5760003560e01c8063893d20e8116100ad578063c65511d811610071578063c65511d81461026e578063d547741f14610281578063f045a76914610294578063f51147e31461029c578063f61bf284146102af57600080fd5b8063893d20e81461020c5780638bb9c5bf146102145780638d4e40831461022757806391d1485414610248578063ad7631921461025b57600080fd5b80633da9a600116100f45780633da9a600146101af57806350627aea146101c257806358677418146101d3578063651c7b08146101e65780636be8496f146101f957600080fd5b806306552ff31461013157806313af403514610146578063248a9ca3146101595780632f2ff15d14610189578063325508d51461019c575b600080fd5b61014461013f3660046145bf565b6102c2565b005b61014461015436600461461b565b6103b1565b61016c610167366004614638565b610460565b6040516001600160a01b0390911681526020015b60405180910390f35b610144610197366004614651565b6104f3565b6101446101aa366004614681565b610565565b6101446101bd366004614638565b610b09565b6002546001600160a01b031661016c565b6101446101e13660046146c5565b610b7d565b6101446101f4366004614708565b61101e565b61014461020736600461461b565b6114ef565b61016c611563565b610144610222366004614638565b6115ee565b600054600160a01b900460ff166002145b6040519015158152602001610180565b610238610256366004614651565b611633565b610144610269366004614651565b6116d6565b61014461027c366004614776565b61177e565b61014461028f366004614651565b611f32565b610144611f70565b6101446102aa366004614681565b612101565b6101446102bd3660046147c9565b61283b565b60405163013faf4960e71b8152600060048201526001600160a01b038516602482015273__$a374c895e6fa8c448878668e00d93ef99a$__90639fd7a4809060440160006040518083038186803b15801561031c57600080fd5b505af4158015610330573d6000803e3d6000fd5b5050600280546001600160a01b038781166001600160a01b0319928316811790935560038054888316908416811790915560048054888416941684179055604051908152919450919250908716907f11e5c44db2defe55dea9656ae7848e94dc9f3e66eb342a7b84547a68d31c393a9060200160405180910390a450505050565b6040516351e7e80560e01b8152600060048201526001600160a01b038216602482015233604482015273__$a374c895e6fa8c448878668e00d93ef99a$__906351e7e8059060640160006040518083038186803b15801561041157600080fd5b505af4158015610425573d6000803e3d6000fd5b50506040516001600160a01b03841692507f167d3e9c1016ab80e58802ca9da10ce5c6a0f4debc46a2e7a2cd9e56899a4fb59150600090a250565b604051639423dd0560e01b8152600060048201819052602482018390529073__$a374c895e6fa8c448878668e00d93ef99a$__90639423dd059060440160206040518083038186803b1580156104b557600080fd5b505af41580156104c9573d6000803e3d6000fd5b505050506040513d601f19601f820116820180604052508101906104ed9190614804565b92915050565b604051633d3c5d2760e01b815273__$a374c895e6fa8c448878668e00d93ef99a$__90633d3c5d279061053190600090869086903390600401614821565b60006040518083038186803b15801561054957600080fd5b505af415801561055d573d6000803e3d6000fd5b505050505050565b6002546001600160a01b031633146105985760405162461bcd60e51b815260040161058f90614848565b60405180910390fd5b60055460408051632125578b60e11b8152905187926001600160a01b03169163424aaf16916004808301926020929190829003018186803b1580156105dc57600080fd5b505afa1580156105f0573d6000803e3d6000fd5b505050506040513d601f19601f820116820180604052508101906106149190614804565b604051632398074f60e21b81526001600160a01b0383811660048301529190911690638e601d3c9060240160206040518083038186803b15801561065757600080fd5b505afa15801561066b573d6000803e3d6000fd5b505050506040513d601f19601f8201168201806040525081019061068f919061488b565b65ffffffffffff1642106106b55760405162461bcd60e51b815260040161058f906148a6565b6005546040805163f01e100f60e01b815290516000926001600160a01b03169163f01e100f916004808301926020929190829003018186803b1580156106fa57600080fd5b505afa15801561070e573d6000803e3d6000fd5b505050506040513d601f19601f820116820180604052508101906107329190614804565b6001600160a01b031663cfb5a5f8866040518263ffffffff1660e01b815260040161075f91815260200190565b6101e06040518083038186803b15801561077857600080fd5b505afa15801561078c573d6000803e3d6000fd5b505050506040513d601f19601f820116820180604052508101906107b09190614ad4565b80516080015190915064ffffffffff16841461080e5760405162461bcd60e51b815260206004820152601960248201527f5348414b2e4541443a206e6f74207368617265686f6c64657200000000000000604482015260640161058f565b604051631c37ef3d60e21b8152600481018590526001600160a01b038816906370dfbcf49060240160206040518083038186803b15801561084e57600080fd5b505afa158015610862573d6000803e3d6000fd5b505050506040513d601f19601f820116820180604052508101906108869190614bc6565b156108d35760405162461bcd60e51b815260206004820152601760248201527f5348414b2e4541443a20697320496e69745369676e6572000000000000000000604482015260640161058f565b600554604080516314c35b8560e31b815290516000926001600160a01b03169163a61adc28916004808301926020929190829003018186803b15801561091857600080fd5b505afa15801561092c573d6000803e3d6000fd5b505050506040513d601f19601f820116820180604052508101906109509190614804565b60405163346ba94160e01b8152601860048201526001600160a01b03919091169063346ba9419060240160206040518083038186803b15801561099257600080fd5b505afa1580156109a6573d6000803e3d6000fd5b505050506040513d601f19601f820116820180604052508101906109ca9190614804565b604051630cfc4a8360e31b81526001600160a01b038a81166004830152602482018a9052604482018990529192506000918316906367e254189060640160206040518083038186803b158015610a1f57600080fd5b505afa158015610a33573d6000803e3d6000fd5b505050506040513d601f19601f82011682018060405250810190610a579190614bf9565b8351604090810151905163a31da53b60e01b815261ffff90911660048201529091506000906001600160a01b0384169063a31da53b9060240160006040518083038186803b158015610aa857600080fd5b505afa158015610abc573d6000803e3d6000fd5b505050506040513d6000823e601f3d908101601f19168201604052610ae49190810190614c37565b9050610afd8a8a846001600160401b0316848b8b612ecd565b50505050505050505050565b60405163bf2755e360e01b8152600060048201526024810182905233604482015273__$a374c895e6fa8c448878668e00d93ef99a$__9063bf2755e3906064015b60006040518083038186803b158015610b6257600080fd5b505af4158015610b76573d6000803e3d6000fd5b5050505050565b6002546001600160a01b03163314610ba75760405162461bcd60e51b815260040161058f90614848565b6040516320bf56eb60e21b8152600481018390526000906001600160a01b038516906382fd5bac906024016102606040518083038186803b158015610beb57600080fd5b505afa158015610bff573d6000803e3d6000fd5b505050506040513d601f19601f82011682018060405250810190610c239190614d95565b60208101515190915064ffffffffff168214610c775760405162461bcd60e51b815260206004820152601360248201527231b0b63632b91034b9903737ba10313abcb2b960691b604482015260640161058f565b60405163122ec47f60e31b8152600481018490526001600160a01b0385169063917623f890602401602060405180830381600087803b158015610cb957600080fd5b505af1158015610ccd573d6000803e3d6000fd5b505050506040513d601f19601f82011682018060405250810190610cf19190614bc6565b15610de157600560009054906101000a90046001600160a01b03166001600160a01b031663424aaf166040518163ffffffff1660e01b815260040160206040518083038186803b158015610d4457600080fd5b505afa158015610d58573d6000803e3d6000fd5b505050506040513d601f19601f82011682018060405250810190610d7c9190614804565b604051634c6a94cb60e01b81526001600160a01b038681166004830152600760248301529190911690634c6a94cb90604401600060405180830381600087803b158015610dc857600080fd5b505af1158015610ddc573d6000803e3d6000fd5b505050505b600560009054906101000a90046001600160a01b03166001600160a01b031663f01e100f6040518163ffffffff1660e01b815260040160206040518083038186803b158015610e2f57600080fd5b505afa158015610e43573d6000803e3d6000fd5b505050506040513d601f19601f82011682018060405250810190610e679190614804565b8151608001516020830151604090810151905163ccdddd4160e01b815263ffffffff90921660048301526001600160401b031660248201526001600160a01b03919091169063ccdddd4190604401600060405180830381600087803b158015610ecf57600080fd5b505af1158015610ee3573d6000803e3d6000fd5b50505050600560009054906101000a90046001600160a01b03166001600160a01b031663f01e100f6040518163ffffffff1660e01b815260040160206040518083038186803b158015610f3557600080fd5b505afa158015610f49573d6000803e3d6000fd5b505050506040513d601f19601f82011682018060405250810190610f6d9190614804565b8151608001516020830151604080820151606083015192519151632b91fe9560e21b815263ffffffff90941660048501526001600160401b039081166024850152909116604483015264ffffffffff16606482015260006084820181905260a48201526001600160a01b03919091169063ae47fa549060c401600060405180830381600087803b15801561100057600080fd5b505af1158015611014573d6000803e3d6000fd5b5050505050505050565b6002546001600160a01b031633146110485760405162461bcd60e51b815260040161058f90614848565b60055460408051632125578b60e11b815290518a926001600160a01b03169163424aaf16916004808301926020929190829003018186803b15801561108c57600080fd5b505afa1580156110a0573d6000803e3d6000fd5b505050506040513d601f19601f820116820180604052508101906110c49190614804565b604051632398074f60e21b81526001600160a01b0383811660048301529190911690638e601d3c9060240160206040518083038186803b15801561110757600080fd5b505afa15801561111b573d6000803e3d6000fd5b505050506040513d601f19601f8201168201806040525081019061113f919061488b565b65ffffffffffff1642106111655760405162461bcd60e51b815260040161058f906148a6565b6040516320bf56eb60e21b8152600481018990526000906001600160a01b038b16906382fd5bac906024016102606040518083038186803b1580156111a957600080fd5b505afa1580156111bd573d6000803e3d6000fd5b505050506040513d601f19601f820116820180604052508101906111e19190614d95565b90506000600560009054906101000a90046001600160a01b03166001600160a01b031663f01e100f6040518163ffffffff1660e01b815260040160206040518083038186803b15801561123357600080fd5b505afa158015611247573d6000803e3d6000fd5b505050506040513d601f19601f8201168201806040525081019061126b9190614804565b6001600160a01b031663cfb5a5f8896040518263ffffffff1660e01b815260040161129891815260200190565b6101e06040518083038186803b1580156112b157600080fd5b505afa1580156112c5573d6000803e3d6000fd5b505050506040513d601f19601f820116820180604052508101906112e99190614ad4565b60208301516080015190915060ff16600414156113485760405162461bcd60e51b815260206004820152601960248201527f5348414b2e4541523a206465616c207465726d696e6174656400000000000000604482015260640161058f565b60055460408051632125578b60e11b815290516000926001600160a01b03169163424aaf16916004808301926020929190829003018186803b15801561138d57600080fd5b505afa1580156113a1573d6000803e3d6000fd5b505050506040513d601f19601f820116820180604052508101906113c59190614804565b6040516332277b1160e01b81526001600160a01b038e81166004830152919250908216906332277b1190602401602060405180830381600087803b15801561140c57600080fd5b505af1158015611420573d6000803e3d6000fd5b505050506040513d601f19601f820116820180604052508101906114449190614bc6565b506114538a8d85858a86613176565b604051630b44c60160e01b81526001600160a01b038d811660048301528b15156024830152604482018d9052606482018b9052608482018a905260a4820189905260c4820188905260e48201879052821690630b44c6019061010401600060405180830381600087803b1580156114c957600080fd5b505af11580156114dd573d6000803e3d6000fd5b50505050505050505050505050505050565b6002546001600160a01b031633146115195760405162461bcd60e51b815260040161058f90614848565b600280546001600160a01b0319166001600160a01b0383169081179091556040517fe435cbeab64e4eae6497b9d8289704bd709d624a80704ef3ca9af777534bc6ec90600090a250565b6040516394916c4760e01b81526000600482018190529073__$a374c895e6fa8c448878668e00d93ef99a$__906394916c479060240160206040518083038186803b1580156115b157600080fd5b505af41580156115c5573d6000803e3d6000fd5b505050506040513d601f19601f820116820180604052508101906115e99190614804565b905090565b604051632d16622360e11b8152600060048201526024810182905233604482015273__$a374c895e6fa8c448878668e00d93ef99a$__90635a2cc44690606401610b4a565b604051632c7ebf7360e01b8152600060048201819052602482018490526001600160a01b03831660448301529073__$a374c895e6fa8c448878668e00d93ef99a$__90632c7ebf739060640160206040518083038186803b15801561169757600080fd5b505af41580156116ab573d6000803e3d6000fd5b505050506040513d601f19601f820116820180604052508101906116cf9190614bc6565b9392505050565b60405163f17b815160e01b815273__$a374c895e6fa8c448878668e00d93ef99a$__9063f17b81519061171490600090869086903390600401614821565b60006040518083038186803b15801561172c57600080fd5b505af4158015611740573d6000803e3d6000fd5b50506040516001600160a01b03841692508491507fc58ebc6bc4ca6dc8356357e625ffa0eb58d0db30d94a31a80a840e1cc74d2df990600090a35050565b6002546001600160a01b031633146117a85760405162461bcd60e51b815260040161058f90614848565b60055460408051632125578b60e11b8152905186926001600160a01b03169163424aaf16916004808301926020929190829003018186803b1580156117ec57600080fd5b505afa158015611800573d6000803e3d6000fd5b505050506040513d601f19601f820116820180604052508101906118249190614804565b604051632398074f60e21b81526001600160a01b0383811660048301529190911690638e601d3c9060240160206040518083038186803b15801561186757600080fd5b505afa15801561187b573d6000803e3d6000fd5b505050506040513d601f19601f8201168201806040525081019061189f919061488b565b65ffffffffffff1642106118c55760405162461bcd60e51b815260040161058f906148a6565b6040516351b171a360e01b815260016004820152602481018490526001600160a01b038616906351b171a39060440160206040518083038186803b15801561190c57600080fd5b505afa158015611920573d6000803e3d6000fd5b505050506040513d601f19601f820116820180604052508101906119449190614bc6565b156119915760405162461bcd60e51b815260206004820152601d60248201527f5348414b2e4546523a206672436c61696d65722069732073656c6c6572000000604482015260640161058f565b60405163cdf4b38760e01b8152600481018590526000906001600160a01b0387169063cdf4b387906024016101406040518083038186803b1580156119d557600080fd5b505afa1580156119e9573d6000803e3d6000fd5b505050506040513d601f19601f82011682018060405250810190611a0d9190614e85565b90506000600560009054906101000a90046001600160a01b03166001600160a01b031663a61adc286040518163ffffffff1660e01b815260040160206040518083038186803b158015611a5f57600080fd5b505afa158015611a73573d6000803e3d6000fd5b505050506040513d601f19601f82011682018060405250810190611a979190614804565b6001600160a01b031663484620378a6040518263ffffffff1660e01b8152600401611ac491815260200190565b60206040518083038186803b158015611adc57600080fd5b505afa158015611af0573d6000803e3d6000fd5b505050506040513d601f19601f82011682018060405250810190611b149190614ea2565b6040516375d6f2ff60e11b8152600481019190915273__$fd7bbdaedbcbc33e1887256b0ab47b2b43$__9063ebade5fe906024016101a06040518083038186803b158015611b6157600080fd5b505af4158015611b75573d6000803e3d6000fd5b505050506040513d601f19601f82011682018060405250810190611b999190614f2f565b9050816000015160ff16816060015160ff1614611c0a5760405162461bcd60e51b815260206004820152602960248201527f5348414b2e4546523a2072756c6520616e64206465616c20617265206e6f742060448201526873616d65207479706560b81b606482015260840161058f565b80608001518015611d195750600560009054906101000a90046001600160a01b03166001600160a01b031663c9d4f4c66040518163ffffffff1660e01b815260040160206040518083038186803b158015611c6457600080fd5b505afa158015611c78573d6000803e3d6000fd5b505050506040513d601f19601f82011682018060405250810190611c9c9190614804565b6001600160a01b031663d50c7377866040518263ffffffff1660e01b8152600401611cc991815260200190565b60206040518083038186803b158015611ce157600080fd5b505afa158015611cf5573d6000803e3d6000fd5b505050506040513d601f19601f82011682018060405250810190611d199190614bc6565b80611d445750848160e001518960048110611d3657611d36614ffa565b602002015164ffffffffff16145b611d905760405162461bcd60e51b815260206004820181905260248201527f5348414b2e4546523a2063616c6c6572204e4f54207269676874686f6c646572604482015260640161058f565b600560009054906101000a90046001600160a01b03166001600160a01b031663424aaf166040518163ffffffff1660e01b815260040160206040518083038186803b158015611dde57600080fd5b505afa158015611df2573d6000803e3d6000fd5b505050506040513d601f19601f82011682018060405250810190611e169190614804565b60405163fb255fcd60e01b81526001600160a01b038981166004830152602482018990526044820188905260648201879052919091169063fb255fcd90608401602060405180830381600087803b158015611e7057600080fd5b505af1158015611e84573d6000803e3d6000fd5b505050506040513d601f19601f82011682018060405250810190611ea89190614bc6565b15611f2757604051637b019deb60e01b8152600481018790526001600160a01b03881690637b019deb90602401602060405180830381600087803b158015611eef57600080fd5b505af1158015611f03573d6000803e3d6000fd5b505050506040513d601f19601f82011682018060405250810190610afd9190614bc6565b505050505050505050565b60405163303b779f60e01b815273__$a374c895e6fa8c448878668e00d93ef99a$__9063303b779f9061053190600090869086903390600401614821565b600054600160a01b900460ff16600114611fcc5760405162461bcd60e51b815260206004820152601c60248201527f41432e6c6f636b436f6e74656e74733a2077726f6e6720737461746500000000604482015260640161058f565b60405163bf2755e360e01b815260006004820152684174746f726e65797360b81b602482015233604482018190529073__$a374c895e6fa8c448878668e00d93ef99a$__9063bf2755e39060640160006040518083038186803b15801561203257600080fd5b505af4158015612046573d6000803e3d6000fd5b50506040516351e7e80560e01b815260006004820181905260248201526001600160a01b038416604482015273__$a374c895e6fa8c448878668e00d93ef99a$__92506351e7e805915060640160006040518083038186803b1580156120ab57600080fd5b505af41580156120bf573d6000803e3d6000fd5b50506000805460ff60a01b1916600160a11b1781556040517f35012b512309c322acf68632cd6cb702ff0e1d776fbe9394e38ffc13b434fe759350909150a150565b6002546001600160a01b0316331461212b5760405162461bcd60e51b815260040161058f90614848565b60055460408051632125578b60e11b8152905187926001600160a01b03169163424aaf16916004808301926020929190829003018186803b15801561216f57600080fd5b505afa158015612183573d6000803e3d6000fd5b505050506040513d601f19601f820116820180604052508101906121a79190614804565b604051632398074f60e21b81526001600160a01b0383811660048301529190911690638e601d3c9060240160206040518083038186803b1580156121ea57600080fd5b505afa1580156121fe573d6000803e3d6000fd5b505050506040513d601f19601f82011682018060405250810190612222919061488b565b65ffffffffffff164210156122795760405162461bcd60e51b815260206004820152601a60248201527f7374696c6c2077697468696e2072657669657720706572696f64000000000000604482015260640161058f565b600560009054906101000a90046001600160a01b03166001600160a01b031663424aaf166040518163ffffffff1660e01b815260040160206040518083038186803b1580156122c757600080fd5b505afa1580156122db573d6000803e3d6000fd5b505050506040513d601f19601f820116820180604052508101906122ff9190614804565b604051631b0ec68f60e21b81526001600160a01b0388811660048301529190911690636c3b1a3c9060240160206040518083038186803b15801561234257600080fd5b505afa158015612356573d6000803e3d6000fd5b505050506040513d601f19601f8201168201806040525081019061237a919061488b565b65ffffffffffff1642106123e75760405162461bcd60e51b815260206004820152602e60248201527f5348414b2e616363657074416c6f6e674465616c3a206d69737365642070726f60448201526d706f73616c20646561646c696e6560901b606482015260840161058f565b6040516320bf56eb60e21b8152600481018690526000906001600160a01b038816906382fd5bac906024016102606040518083038186803b15801561242b57600080fd5b505afa15801561243f573d6000803e3d6000fd5b505050506040513d601f19601f820116820180604052508101906124639190614d95565b60208101515190915064ffffffffff1684146124b75760405162461bcd60e51b815260206004820152601360248201527229a420a59720a0a21d103737ba10313abcb2b960691b604482015260640161058f565b60208101516080015160ff166004146128325760055460408051632125578b60e11b815290516000926001600160a01b03169163424aaf16916004808301926020929190829003018186803b15801561250f57600080fd5b505afa158015612523573d6000803e3d6000fd5b505050506040513d601f19601f820116820180604052508101906125479190614804565b604051630fc89eeb60e01b81526001600160a01b038a81166004830152602482018a9052604482018990529190911690630fc89eeb9060640160e06040518083038186803b15801561259857600080fd5b505afa1580156125ac573d6000803e3d6000fd5b505050506040513d601f19601f820116820180604052508101906125d09190615010565b90506000600560009054906101000a90046001600160a01b03166001600160a01b031663f01e100f6040518163ffffffff1660e01b815260040160206040518083038186803b15801561262257600080fd5b505afa158015612636573d6000803e3d6000fd5b505050506040513d601f19601f8201168201806040525081019061265a9190614804565b6001600160a01b031663cfb5a5f8886040518263ffffffff1660e01b815260040161268791815260200190565b6101e06040518083038186803b1580156126a057600080fd5b505afa1580156126b4573d6000803e3d6000fd5b505050506040513d601f19601f820116820180604052508101906126d89190614ad4565b905060006126e88a8486856139f9565b608084015160a085015160c08601516040516329014b6d60e21b81526004810185905264ffffffffff909316602484015265ffffffffffff909116604483015260648201529091506001600160a01b038b169063a4052db490608401602060405180830381600087803b15801561275e57600080fd5b505af1158015612772573d6000803e3d6000fd5b505050506040513d601f19601f820116820180604052508101906127969190614bc6565b506040516329014b6d60e21b8152600481018290526024810188905265ffffffffffff42166044820152606481018790526001600160a01b038b169063a4052db490608401602060405180830381600087803b1580156127f557600080fd5b505af1158015612809573d6000803e3d6000fd5b505050506040513d601f19601f8201168201806040525081019061282d9190614bc6565b505050505b50505050505050565b6002546001600160a01b031633146128655760405162461bcd60e51b815260040161058f90614848565b60055460408051632125578b60e11b8152905186926001600160a01b03169163424aaf16916004808301926020929190829003018186803b1580156128a957600080fd5b505afa1580156128bd573d6000803e3d6000fd5b505050506040513d601f19601f820116820180604052508101906128e19190614804565b604051632398074f60e21b81526001600160a01b0383811660048301529190911690638e601d3c9060240160206040518083038186803b15801561292457600080fd5b505afa158015612938573d6000803e3d6000fd5b505050506040513d601f19601f8201168201806040525081019061295c919061488b565b65ffffffffffff164210156129b35760405162461bcd60e51b815260206004820152601a60248201527f7374696c6c2077697468696e2072657669657720706572696f64000000000000604482015260640161058f565b6040516320bf56eb60e21b8152600481018590526000906001600160a01b038716906382fd5bac906024016102606040518083038186803b1580156129f757600080fd5b505afa158015612a0b573d6000803e3d6000fd5b505050506040513d601f19601f82011682018060405250810190612a2f9190614d95565b80515190915060ff1660011415612c9957600560009054906101000a90046001600160a01b03166001600160a01b031663c9d4f4c66040518163ffffffff1660e01b815260040160206040518083038186803b158015612a8e57600080fd5b505afa158015612aa2573d6000803e3d6000fd5b505050506040513d601f19601f82011682018060405250810190612ac69190614804565b6001600160a01b031663984199286040518163ffffffff1660e01b815260040160206040518083038186803b158015612afe57600080fd5b505afa158015612b12573d6000803e3d6000fd5b505050506040513d601f19601f82011682018060405250810190612b3691906150bb565b64ffffffffff16600560009054906101000a90046001600160a01b03166001600160a01b031663c9d4f4c66040518163ffffffff1660e01b815260040160206040518083038186803b158015612b8b57600080fd5b505afa158015612b9f573d6000803e3d6000fd5b505050506040513d601f19601f82011682018060405250810190612bc39190614804565b6001600160a01b031663605c5ec6866040518263ffffffff1660e01b8152600401612bf091815260200190565b60206040518083038186803b158015612c0857600080fd5b505afa158015612c1c573d6000803e3d6000fd5b505050506040513d601f19601f82011682018060405250810190612c4091906150bb565b64ffffffffff1614612c945760405162461bcd60e51b815260206004820152601860248201527f5348414b2e4146523a206e6f7420636f6e74726f6c6c65720000000000000000604482015260640161058f565b612cf4565b805160a0015164ffffffffff168414612cf45760405162461bcd60e51b815260206004820152601a60248201527f5348414b2e4146523a206e6f742073656c6c65724f664465616c000000000000604482015260640161058f565b60055460408051632125578b60e11b815290516000926001600160a01b03169163424aaf16916004808301926020929190829003018186803b158015612d3957600080fd5b505afa158015612d4d573d6000803e3d6000fd5b505050506040513d601f19601f82011682018060405250810190612d719190614804565b60405163a0b7b8a760e01b81526001600160a01b03898116600483015260248201899052919091169063a0b7b8a790604401600060405180830381600087803b158015612dbd57600080fd5b505af1158015612dd1573d6000803e3d6000fd5b505050506040513d6000823e601f3d908101601f19168201604052612df991908101906150d6565b80519091505b8015612e4557612e33888484612e166001866151ea565b81518110612e2657612e26614ffa565b6020026020010151613d6e565b80612e3d81615201565b915050612dff565b604051630cac562d60e11b81526000600482015260248101879052604481018690526001600160a01b03891690631958ac5a90606401602060405180830381600087803b158015612e9557600080fd5b505af1158015612ea9573d6000803e3d6000fd5b505050506040513d601f19601f82011682018060405250810190611f279190614bc6565b60005b835181101561311c57600554604080516364ea7a6360e11b815290516000926001600160a01b03169163c9d4f4c6916004808301926020929190829003018186803b158015612f1e57600080fd5b505afa158015612f32573d6000803e3d6000fd5b505050506040513d601f19601f82011682018060405250810190612f569190614804565b6001600160a01b031663e80bf906868481518110612f7657612f76614ffa565b60200260200101516040518263ffffffff1660e01b8152600401612f9c91815260200190565b60006040518083038186803b158015612fb457600080fd5b505afa158015612fc8573d6000803e3d6000fd5b505050506040513d6000823e601f3d908101601f19168201604052612ff09190810190614c37565b905060005b81518110156130fd5760008061302d8b8b60e087878151811061301a5761301a614ffa565b602002602001015160001c901c8c6140e4565b6040516329014b6d60e21b815260048101839052602481018a905265ffffffffffff421660448201526064810189905291935091506001600160a01b038c169063a4052db490608401602060405180830381600087803b15801561309057600080fd5b505af11580156130a4573d6000803e3d6000fd5b505050506040513d601f19601f820116820180604052508101906130c89190614bc6565b506001600160401b0381166130de5750506130fd565b6001600160401b031697508190506130f581615218565b915050612ff5565b5085613109575061311c565b508061311481615218565b915050612ed0565b50831561055d5760405162461bcd60e51b815260206004820152602260248201527f5348414b2e4347443a20696e73756666696369656e74207061696420616d6f756044820152611b9d60f21b606482015260840161058f565b604051638f6b658760e01b81526001600160a01b03868116600483015260248201849052821690638f6b658790604401602060405180830381600087803b1580156131c057600080fd5b505af11580156131d4573d6000803e3d6000fd5b505050506040513d601f19601f820116820180604052508101906131f89190614bc6565b156132455760405162461bcd60e51b815260206004820152601d60248201527f5348414b2e4341443a2063616c6c6572206973206672436c61696d6572000000604482015260640161058f565b825160800151604051638f6b658760e01b81526001600160a01b03878116600483015264ffffffffff909216602482015290821690638f6b658790604401602060405180830381600087803b15801561329d57600080fd5b505af11580156132b1573d6000803e3d6000fd5b505050506040513d601f19601f820116820180604052508101906132d59190614bc6565b1561332d5760405162461bcd60e51b815260206004820152602260248201527f5348414b2e4341443a207368617265686f6c646572206973206672436c61696d60448201526132b960f11b606482015260840161058f565b60008661343957600560009054906101000a90046001600160a01b03166001600160a01b031663a61adc286040518163ffffffff1660e01b815260040160206040518083038186803b15801561338257600080fd5b505afa158015613396573d6000803e3d6000fd5b505050506040513d601f19601f820116820180604052508101906133ba9190614804565b60405163346ba94160e01b8152601c60048201526001600160a01b03919091169063346ba9419060240160206040518083038186803b1580156133fc57600080fd5b505afa158015613410573d6000803e3d6000fd5b505050506040513d601f19601f820116820180604052508101906134349190614804565b613539565b600560009054906101000a90046001600160a01b03166001600160a01b031663a61adc286040518163ffffffff1660e01b815260040160206040518083038186803b15801561348757600080fd5b505afa15801561349b573d6000803e3d6000fd5b505050506040513d601f19601f820116820180604052508101906134bf9190614804565b60405163346ba94160e01b8152601960048201526001600160a01b03919091169063346ba9419060240160206040518083038186803b15801561350157600080fd5b505afa158015613515573d6000803e3d6000fd5b505050506040513d601f19601f820116820180604052508101906135399190614804565b60405163e065228560e01b81529091506001600160a01b0382169063e06522859061356a90899089906004016153a8565b60206040518083038186803b15801561358257600080fd5b505afa158015613596573d6000803e3d6000fd5b505050506040513d601f19601f820116820180604052508101906135ba9190614bc6565b6136065760405162461bcd60e51b815260206004820152601760248201527f5348414b2e4341443a206e6f7420747269676765726564000000000000000000604482015260640161058f565b806001600160a01b0316632be4d004866000015160a00151866000015160800151600560009054906101000a90046001600160a01b03166001600160a01b031663c9d4f4c66040518163ffffffff1660e01b815260040160206040518083038186803b15801561367557600080fd5b505afa158015613689573d6000803e3d6000fd5b505050506040513d601f19601f820116820180604052508101906136ad9190614804565b6040516001600160e01b031960e086901b16815264ffffffffff93841660048201529290911660248301526001600160a01b0316604482015260640160206040518083038186803b15801561370157600080fd5b505afa158015613715573d6000803e3d6000fd5b505050506040513d601f19601f820116820180604052508101906137399190614bc6565b61377c5760405162461bcd60e51b815260206004820152601460248201527314d21052cb90d0510e881393d5081b1a5b9ad95960621b604482015260640161058f565b86156138c457845160a0015164ffffffffff1683146137f15760405162461bcd60e51b815260206004820152602b60248201527f5348414b2e4d41443a2063616c6c6572206973206e6f7420647261676572206f60448201526a662044726167416c6f6e6760a81b606482015260840161058f565b60405163320a2fbd60e01b81526001600160a01b0382169063320a2fbd906138239089908990899089906004016153c6565b60206040518083038186803b15801561383b57600080fd5b505afa15801561384f573d6000803e3d6000fd5b505050506040513d601f19601f820116820180604052508101906138739190614bc6565b6138bf5760405162461bcd60e51b815260206004820152601d60248201527f5348414b2e4341443a207072696365204e4f5420736174697366696564000000604482015260640161058f565b612832565b83516080015164ffffffffff16831461392d5760405162461bcd60e51b815260206004820152602560248201527f5348414b2e4341443a206e6f74207368617265686f6c646572206f6620546167604482015264416c6f6e6760d81b606482015260840161058f565b60405163b115233560e01b815260016004820152602481018490526001600160a01b0387169063b11523359060440160206040518083038186803b15801561397457600080fd5b505afa158015613988573d6000803e3d6000fd5b505050506040513d601f19601f820116820180604052508101906139ac9190614bc6565b156128325760405162461bcd60e51b815260206004820152601a60248201527f5348414b2e4341443a206973204275796572206f66204465616c000000000000604482015260640161058f565b6000604051806101400160405280856000015160ff16600014613a1d576005613a20565b60065b60ff168152602001600061ffff16815260200184600001516020015161ffff16815260200183600001516040015161ffff16815260200183600001516000015163ffffffff16815260200183600001516080015164ffffffffff168152602001846000015160c0015163ffffffff168152602001846000015160e0015163ffffffff1681526020018460000151610100015165ffffffffffff168152602001600061ffff16815250836000018190525060405180610100016040528084602001516000015164ffffffffff16815260200184602001516020015164ffffffffff16815260200185604001516001600160401b0316815260200185606001516001600160401b0316815260200160016004811115613b3f57613b3f614be3565b60ff16815260006020808301829052604080840183905260609093019190915285019190915251631f24908560e31b81526001600160a01b0386169063f924842890613b8f9086906004016154d7565b602060405180830381600087803b158015613ba957600080fd5b505af1158015613bbd573d6000803e3d6000fd5b505050506040513d601f19601f82011682018060405250810190613be191906154e6565b61ffff169050846001600160a01b0316639a9a7a44826040518263ffffffff1660e01b8152600401613c1591815260200190565b602060405180830381600087803b158015613c2f57600080fd5b505af1158015613c43573d6000803e3d6000fd5b505050506040513d601f19601f82011682018060405250810190613c679190614bc6565b50600560009054906101000a90046001600160a01b03166001600160a01b031663f01e100f6040518163ffffffff1660e01b815260040160206040518083038186803b158015613cb657600080fd5b505afa158015613cca573d6000803e3d6000fd5b505050506040513d601f19601f82011682018060405250810190613cee9190614804565b82515160408681015190516360d095df60e01b815263ffffffff90921660048301526001600160401b031660248201526001600160a01b0391909116906360d095df90604401600060405180830381600087803b158015613d4e57600080fd5b505af1158015613d62573d6000803e3d6000fd5b50505050949350505050565b81516080015163ffffffff1615613d8a57815160079052613d91565b8151600490525b815160208082015161ffff16604092830152828101518185015164ffffffffff909116905260055482516364ea7a6360e11b815292516001600160a01b039091169263c9d4f4c6926004808301939192829003018186803b158015613df557600080fd5b505afa158015613e09573d6000803e3d6000fd5b505050506040513d601f19601f82011682018060405250810190613e2d9190614804565b602082015160405163302e2f6360e11b815264ffffffffff90911660048201526001600160a01b03919091169063605c5ec69060240160206040518083038186803b158015613e7b57600080fd5b505afa158015613e8f573d6000803e3d6000fd5b505050506040513d601f19601f82011682018060405250810190613eb391906150bb565b6020808401805164ffffffffff9093169290910191909152606082015190516040015161271091613ee391615501565b613eed9190615530565b6020830180516001600160401b039092166040909201919091526060808301519151015161271091613f1e91615501565b613f289190615530565b6020830180516001600160401b0392909216606090920191909152516001608090910152604051631f24908560e31b81526001600160a01b03841690639a9a7a4490829063f924842890613f809087906004016154d7565b602060405180830381600087803b158015613f9a57600080fd5b505af1158015613fae573d6000803e3d6000fd5b505050506040513d601f19601f82011682018060405250810190613fd291906154e6565b6040516001600160e01b031960e084901b16815261ffff9091166004820152602401602060405180830381600087803b15801561400e57600080fd5b505af1158015614022573d6000803e3d6000fd5b505050506040513d601f19601f820116820180604052508101906140469190614bc6565b50602081015160a0820151604051630cac562d60e11b81526000600482015264ffffffffff909216602483015260448201526001600160a01b03841690631958ac5a90606401602060405180830381600087803b1580156140a657600080fd5b505af11580156140ba573d6000803e3d6000fd5b505050506040513d601f19601f820116820180604052508101906140de9190614bc6565b50505050565b6000806000866001600160a01b03166382fd5bac876040518263ffffffff1660e01b815260040161411791815260200190565b6102606040518083038186803b15801561413057600080fd5b505afa158015614144573d6000803e3d6000fd5b505050506040513d601f19601f820116820180604052508101906141689190614d95565b90506000600560009054906101000a90046001600160a01b03166001600160a01b031663f01e100f6040518163ffffffff1660e01b815260040160206040518083038186803b1580156141ba57600080fd5b505afa1580156141ce573d6000803e3d6000fd5b505050506040513d601f19601f820116820180604052508101906141f29190614804565b6001600160a01b031663cfb5a5f8876040518263ffffffff1660e01b815260040161421f91815260200190565b6101e06040518083038186803b15801561423857600080fd5b505afa15801561424c573d6000803e3d6000fd5b505050506040513d601f19601f820116820180604052508101906142709190614ad4565b90506000808260200151606001516001600160401b0316111561458f57858260200151606001516001600160401b0316106142ab57856142b5565b8160200151606001515b9050614367604080516101a081019091526000606082018181526080830182905260a0830182905260c0830182905260e08301829052610100830182905261012083018290526101408301829052610160830182905261018083019190915281908152604080516101008101825260008082526020828101829052928201819052606082018190526080820181905260a0820181905260c0820181905260e08201529101908152600060209091015290565b805160089052805161ffff8a8116604092830152845182015183519116606091820152845151835163ffffffff9091166080918201528551810151845164ffffffffff91821660a090910152875161010090810151865165ffffffffffff90911691015260208089018051518288018051918516909152905182015181519316929091019190915280516001600160401b0387169085018190528151909301929092529051600191015251631f24908560e31b81526001600160a01b038b169063f92484289061443b9084906004016154d7565b602060405180830381600087803b15801561445557600080fd5b505af1158015614469573d6000803e3d6000fd5b505050506040513d601f19601f8201168201806040525081019061448d91906154e6565b61ffff169550600560009054906101000a90046001600160a01b03166001600160a01b031663f01e100f6040518163ffffffff1660e01b815260040160206040518083038186803b1580156144e157600080fd5b505afa1580156144f5573d6000803e3d6000fd5b505050506040513d601f19601f820116820180604052508101906145199190614804565b8351516040516360d095df60e01b815263ffffffff90911660048201526001600160401b03841660248201526001600160a01b0391909116906360d095df90604401600060405180830381600087803b15801561457557600080fd5b505af1158015614589573d6000803e3d6000fd5b50505050505b6145998187615564565b935050505094509492505050565b6001600160a01b03811681146145bc57600080fd5b50565b600080600080608085870312156145d557600080fd5b84356145e0816145a7565b935060208501356145f0816145a7565b92506040850135614600816145a7565b91506060850135614610816145a7565b939692955090935050565b60006020828403121561462d57600080fd5b81356116cf816145a7565b60006020828403121561464a57600080fd5b5035919050565b6000806040838503121561466457600080fd5b823591506020830135614676816145a7565b809150509250929050565b600080600080600060a0868803121561469957600080fd5b85356146a4816145a7565b97602087013597506040870135966060810135965060800135945092505050565b6000806000606084860312156146da57600080fd5b83356146e5816145a7565b95602085013595506040909401359392505050565b80151581146145bc57600080fd5b600080600080600080600080610100898b03121561472557600080fd5b8835614730816145a7565b9750602089013596506040890135614747816146fa565b979a96995096976060810135975060808101359660a0820135965060c0820135955060e0909101359350915050565b60008060008060008060c0878903121561478f57600080fd5b863595506020870135945060408701356147a8816145a7565b959894975094956060810135955060808101359460a0909101359350915050565b600080600080608085870312156147df57600080fd5b84356147ea816145a7565b966020860135965060408601359560600135945092505050565b60006020828403121561481657600080fd5b81516116cf816145a7565b93845260208401929092526001600160a01b03908116604084015216606082015260800190565b6020808252600e908201526d1050cb9bdb9b1e5112ce881393d560921b604082015260600190565b805165ffffffffffff8116811461488657600080fd5b919050565b60006020828403121561489d57600080fd5b6116cf82614870565b6020808252601490820152731b5a5cdcd959081c995d9a595dc81c195c9a5bd960621b604082015260600190565b634e487b7160e01b600052604160045260246000fd5b60405160c081016001600160401b038111828210171561490c5761490c6148d4565b60405290565b604080519081016001600160401b038111828210171561490c5761490c6148d4565b60405161012081016001600160401b038111828210171561490c5761490c6148d4565b60405161014081016001600160401b038111828210171561490c5761490c6148d4565b604051606081016001600160401b038111828210171561490c5761490c6148d4565b60405161010081016001600160401b038111828210171561490c5761490c6148d4565b604051601f8201601f191681016001600160401b03811182821017156149e7576149e76148d4565b604052919050565b805163ffffffff8116811461488657600080fd5b805161ffff8116811461488657600080fd5b805164ffffffffff8116811461488657600080fd5b805160ff8116811461488657600080fd5b80516001600160401b038116811461488657600080fd5b600060c08284031215614a6457600080fd5b614a6c6148ea565b9050614a7782614870565b8152614a8560208301614a3b565b6020820152614a9660408301614a3b565b6040820152614aa760608301614a3b565b6060820152614ab860808301614a2a565b6080820152614ac960a08301614a2a565b60a082015292915050565b60008183036101e0811215614ae857600080fd5b614af0614912565b61012080831215614b0057600080fd5b614b08614934565b9250614b13856149ef565b8352614b21602086016149ef565b6020840152614b3260408601614a03565b6040840152614b4360608601614870565b6060840152614b5460808601614a15565b6080840152614b6560a086016149ef565b60a0840152614b7660c086016149ef565b60c0840152614b8760e08601614a03565b60e0840152610100614b9a818701614a2a565b90840152828252614bad86868301614a52565b602083015250949350505050565b8051614886816146fa565b600060208284031215614bd857600080fd5b81516116cf816146fa565b634e487b7160e01b600052602160045260246000fd5b600060208284031215614c0b57600080fd5b6116cf82614a3b565b60006001600160401b03821115614c2d57614c2d6148d4565b5060051b60200190565b60006020808385031215614c4a57600080fd5b82516001600160401b03811115614c6057600080fd5b8301601f81018513614c7157600080fd5b8051614c84614c7f82614c14565b6149bf565b81815260059190911b82018301908381019087831115614ca357600080fd5b928401925b82841015614cc157835182529284019290840190614ca8565b979650505050505050565b60006101408284031215614cdf57600080fd5b614ce7614957565b9050614cf282614a2a565b8152614d0060208301614a03565b6020820152614d1160408301614a03565b6040820152614d2260608301614a03565b6060820152614d33608083016149ef565b6080820152614d4460a08301614a15565b60a0820152614d5560c083016149ef565b60c0820152614d6660e083016149ef565b60e0820152610100614d79818401614870565b90820152610120614d8b838201614a03565b9082015292915050565b6000818303610260811215614da957600080fd5b614db161497a565b614dbb8585614ccc565b815261010061013f1983011215614dd157600080fd5b614dd961499c565b9150614de86101408501614a15565b8252614df76101608501614a15565b6020830152614e096101808501614a3b565b6040830152614e1b6101a08501614a3b565b6060830152614e2d6101c08501614a2a565b6080830152614e3f6101e08501614a03565b60a0830152614e516102008501614a03565b60c0830152610220840151614e65816146fa565b60e083015260208101919091526102409290920151604083015250919050565b60006101408284031215614e9857600080fd5b6116cf8383614ccc565b600060208284031215614eb457600080fd5b5051919050565b600082601f830112614ecc57600080fd5b604051608081018181106001600160401b0382111715614eee57614eee6148d4565b604052806080840185811115614f0357600080fd5b845b81811015614f2457614f1681614a15565b835260209283019201614f05565b509195945050505050565b60006101a08284031215614f4257600080fd5b614f4a614957565b614f5383614a03565b8152614f6160208401614a2a565b6020820152614f7260408401614a2a565b6040820152614f8360608401614a2a565b6060820152614f9460808401614bbb565b6080820152614fa560a08401614bbb565b60a0820152614fb660c08401614bbb565b60c0820152614fc88460e08501614ebb565b60e0820152614fda6101608401614a03565b610100820152614fed6101808401614a03565b6101208201529392505050565b634e487b7160e01b600052603260045260246000fd5b600060e0828403121561502257600080fd5b60405160e081018181106001600160401b0382111715615044576150446148d4565b60405261505083614a2a565b815261505e602084016149ef565b602082015261506f60408401614a3b565b604082015261508060608401614a3b565b606082015261509160808401614a15565b60808201526150a260a08401614870565b60a082015260c083015160c08201528091505092915050565b6000602082840312156150cd57600080fd5b6116cf82614a15565b600060208083850312156150e957600080fd5b82516001600160401b038111156150ff57600080fd5b8301601f8101851361511057600080fd5b805161511e614c7f82614c14565b81815260c0918202830184019184820191908884111561513d57600080fd5b938501935b838510156151c85780858a03121561515a5760008081fd5b6151626148ea565b61516b86614a03565b8152615178878701614a15565b878201526040615189818801614a3b565b90820152606061519a878201614a3b565b9082015260806151ab878201614870565b9082015260a0868101519082015283529384019391850191615142565b50979650505050505050565b634e487b7160e01b600052601160045260246000fd5b6000828210156151fc576151fc6151d4565b500390565b600081615210576152106151d4565b506000190190565b600060001982141561522c5761522c6151d4565b5060010190565b64ffffffffff8082511683528060208301511660208401525060408101516001600160401b038082166040850152806060840151166060850152505060ff608082015116608083015261ffff60a08201511660a083015260c081015161529f60c084018261ffff169052565b5060e08101516152b360e084018215159052565b505050565b8051805160ff16835260208101516152d6602085018261ffff169052565b5060408101516152ec604085018261ffff169052565b506060810151615302606085018261ffff169052565b50608081015161531a608085018263ffffffff169052565b5060a081015161533360a085018264ffffffffff169052565b5060c081015161534b60c085018263ffffffff169052565b5060e081015161536360e085018263ffffffff169052565b506101008181015165ffffffffffff16908401526101209081015161ffff16908301526020810151615399610140840182615233565b50604001516102409190910152565b6001600160a01b038316815261028081016116cf60208301846152b8565b6001600160a01b038516815261048081016153e460208301866152b8565b8351805163ffffffff90811661028085015260208083015182166102a086015260408084015161ffff9081166102c088015260608086015165ffffffffffff9081166102e08a015260808088015164ffffffffff166103008b015260a08089015188166103208c015260c08901519097166103408b015260e08801519093166103608a01526101009096015160ff9081166103808a01529984015180519096166103a0890152928501516001600160401b039081166103c08901529185015182166103e0880152918401511661040086015282015186166104208501520151909316610440820152610460015292915050565b61026081016104ed82846152b8565b6000602082840312156154f857600080fd5b6116cf82614a03565b60006001600160401b0380831681851681830481118215151615615527576155276151d4565b02949350505050565b60006001600160401b038084168061555857634e487b7160e01b600052601260045260246000fd5b92169190910492915050565b60006001600160401b0383811690831681811015615584576155846151d4565b03939250505056fea2646970667358221220a7b2961b05aa2b11f2f71bcbbbc6bd2d5be644c51aaaa4b8b70225afac41c21d64736f6c63430008080033",
    "sourcePath": "/Users/kaptain/github.com/comboox/comboox/contracts/keepers/SHAKeeper.sol",
    "compiler": {
        "name": "solc",
        "version": "0.8.8+commit.dddeac2f"
    },
    "functionHashes": {
        "abandonRole(bytes32)": "3da9a600",
        "acceptAlongDeal(address,uint256,uint256,uint256,bytes32)": "f51147e3",
        "acceptFirstRefusal(address,uint256,uint256,bytes32)": "f61bf284",
        "execAlongRight(address,uint256,bool,uint256,uint256,uint256,uint256,bytes32)": "651c7b08",
        "execAntiDilution(address,uint256,uint256,uint256,bytes32)": "325508d5",
        "execFirstRefusal(uint256,uint256,address,uint256,uint256,bytes32)": "c65511d8",
        "getDK()": "50627aea",
        "getOwner()": "893d20e8",
        "getRoleAdmin(bytes32)": "248a9ca3",
        "grantRole(bytes32,address)": "2f2ff15d",
        "hasRole(bytes32,address)": "91d14854",
        "init(address,address,address,address)": "06552ff3",
        "isFinalized()": "8d4e4083",
        "lockContents()": "f045a769",
        "renounceRole(bytes32)": "8bb9c5bf",
        "revokeRole(bytes32,address)": "d547741f",
        "setDirectKeeper(address)": "6be8496f",
        "setOwner(address)": "13af4035",
        "setRoleAdmin(bytes32,address)": "ad763192",
        "takeGiftShares(address,uint256,uint256)": "58677418"
    },
    "gasEstimates": {
        "creation": {
            "codeDepositCost": "4390800",
            "executionCost": "31463",
            "totalCost": "4422263"
        },
        "external": {
            "abandonRole(bytes32)": "infinite",
            "acceptAlongDeal(address,uint256,uint256,uint256,bytes32)": "infinite",
            "acceptFirstRefusal(address,uint256,uint256,bytes32)": "infinite",
            "execAlongRight(address,uint256,bool,uint256,uint256,uint256,uint256,bytes32)": "infinite",
            "execAntiDilution(address,uint256,uint256,uint256,bytes32)": "infinite",
            "execFirstRefusal(uint256,uint256,address,uint256,uint256,bytes32)": "infinite",
            "getDK()": "2365",
            "getOwner()": "infinite",
            "getRoleAdmin(bytes32)": "infinite",
            "grantRole(bytes32,address)": "infinite",
            "hasRole(bytes32,address)": "infinite",
            "init(address,address,address,address)": "infinite",
            "isFinalized()": "2383",
            "lockContents()": "infinite",
            "renounceRole(bytes32)": "infinite",
            "revokeRole(bytes32,address)": "infinite",
            "setDirectKeeper(address)": "27955",
            "setOwner(address)": "infinite",
            "setRoleAdmin(bytes32,address)": "infinite",
            "takeGiftShares(address,uint256,uint256)": "infinite"
        },
        "internal": {
            "_checkAlongDeal(bool,address,struct DealsRepo.Deal memory,struct SharesRepo.Share memory,uint256,contract IBookOfIA)": "infinite",
            "_createAlongDeal(address,struct DTClaims.Claim memory,struct DealsRepo.Deal memory,struct SharesRepo.Share memory)": "infinite",
            "_createFRDeal(address,struct DealsRepo.Deal memory,struct FRClaims.Claim memory)": "infinite",
            "_createGift(address,uint256,uint256,uint256)": "infinite",
            "_createGiftDeals(address,uint256,uint256,uint256[] memory,uint256,bytes32)": "infinite"
        }
    }
}