{
    "contractName": "SHAKeeper",
    "abi": [
        {
            "anonymous": false,
            "inputs": [
                {
                    "indexed": false,
                    "internalType": "uint40",
                    "name": "owner",
                    "type": "uint40"
                },
                {
                    "indexed": false,
                    "internalType": "address",
                    "name": "directKeeper",
                    "type": "address"
                },
                {
                    "indexed": false,
                    "internalType": "address",
                    "name": "regCenter",
                    "type": "address"
                },
                {
                    "indexed": false,
                    "internalType": "address",
                    "name": "generalKeeper",
                    "type": "address"
                }
            ],
            "name": "Init",
            "type": "event"
        },
        {
            "anonymous": false,
            "inputs": [],
            "name": "LockContents",
            "type": "event"
        },
        {
            "anonymous": false,
            "inputs": [
                {
                    "indexed": false,
                    "internalType": "address",
                    "name": "keeper",
                    "type": "address"
                }
            ],
            "name": "SetDirectKeeper",
            "type": "event"
        },
        {
            "anonymous": false,
            "inputs": [
                {
                    "indexed": false,
                    "internalType": "uint256",
                    "name": "acct",
                    "type": "uint256"
                }
            ],
            "name": "SetGeneralCounsel",
            "type": "event"
        },
        {
            "anonymous": false,
            "inputs": [
                {
                    "indexed": false,
                    "internalType": "address",
                    "name": "gk",
                    "type": "address"
                }
            ],
            "name": "SetGeneralKeeper",
            "type": "event"
        },
        {
            "anonymous": false,
            "inputs": [
                {
                    "indexed": false,
                    "internalType": "uint256",
                    "name": "acct",
                    "type": "uint256"
                }
            ],
            "name": "SetOwner",
            "type": "event"
        },
        {
            "anonymous": false,
            "inputs": [
                {
                    "indexed": false,
                    "internalType": "address",
                    "name": "rc",
                    "type": "address"
                }
            ],
            "name": "SetRegCenter",
            "type": "event"
        },
        {
            "inputs": [
                {
                    "internalType": "bytes32",
                    "name": "role",
                    "type": "bytes32"
                }
            ],
            "name": "abandonRole",
            "outputs": [],
            "stateMutability": "nonpayable",
            "type": "function"
        },
        {
            "inputs": [
                {
                    "internalType": "address",
                    "name": "ia",
                    "type": "address"
                },
                {
                    "internalType": "bytes32",
                    "name": "sn",
                    "type": "bytes32"
                },
                {
                    "internalType": "uint40",
                    "name": "caller",
                    "type": "uint40"
                },
                {
                    "internalType": "bytes32",
                    "name": "sigHash",
                    "type": "bytes32"
                }
            ],
            "name": "acceptAlongDeal",
            "outputs": [],
            "stateMutability": "nonpayable",
            "type": "function"
        },
        {
            "inputs": [
                {
                    "internalType": "address",
                    "name": "ia",
                    "type": "address"
                },
                {
                    "internalType": "bytes32",
                    "name": "snOfOD",
                    "type": "bytes32"
                },
                {
                    "internalType": "uint40",
                    "name": "caller",
                    "type": "uint40"
                },
                {
                    "internalType": "bytes32",
                    "name": "sigHash",
                    "type": "bytes32"
                }
            ],
            "name": "acceptFirstRefusal",
            "outputs": [],
            "stateMutability": "nonpayable",
            "type": "function"
        },
        {
            "inputs": [
                {
                    "internalType": "uint16",
                    "name": "class",
                    "type": "uint16"
                },
                {
                    "internalType": "uint16",
                    "name": "seq",
                    "type": "uint16"
                },
                {
                    "internalType": "uint8",
                    "name": "typeOfDeal",
                    "type": "uint8"
                },
                {
                    "internalType": "uint40",
                    "name": "seller",
                    "type": "uint40"
                },
                {
                    "internalType": "uint40",
                    "name": "buyer",
                    "type": "uint40"
                },
                {
                    "internalType": "uint40",
                    "name": "group",
                    "type": "uint40"
                },
                {
                    "internalType": "uint32",
                    "name": "ssn",
                    "type": "uint32"
                },
                {
                    "internalType": "uint32",
                    "name": "unitPrice",
                    "type": "uint32"
                },
                {
                    "internalType": "uint16",
                    "name": "preSeq",
                    "type": "uint16"
                }
            ],
            "name": "createDealSN",
            "outputs": [
                {
                    "internalType": "bytes32",
                    "name": "sn",
                    "type": "bytes32"
                }
            ],
            "stateMutability": "pure",
            "type": "function"
        },
        {
            "inputs": [
                {
                    "internalType": "address",
                    "name": "ia",
                    "type": "address"
                },
                {
                    "internalType": "bytes32",
                    "name": "sn",
                    "type": "bytes32"
                },
                {
                    "internalType": "bool",
                    "name": "dragAlong",
                    "type": "bool"
                },
                {
                    "internalType": "bytes32",
                    "name": "shareNumber",
                    "type": "bytes32"
                },
                {
                    "internalType": "uint64",
                    "name": "paid",
                    "type": "uint64"
                },
                {
                    "internalType": "uint64",
                    "name": "par",
                    "type": "uint64"
                },
                {
                    "internalType": "uint40",
                    "name": "caller",
                    "type": "uint40"
                },
                {
                    "internalType": "bytes32",
                    "name": "sigHash",
                    "type": "bytes32"
                }
            ],
            "name": "execAlongRight",
            "outputs": [],
            "stateMutability": "nonpayable",
            "type": "function"
        },
        {
            "inputs": [
                {
                    "internalType": "address",
                    "name": "ia",
                    "type": "address"
                },
                {
                    "internalType": "bytes32",
                    "name": "sn",
                    "type": "bytes32"
                },
                {
                    "internalType": "bytes32",
                    "name": "shareNumber",
                    "type": "bytes32"
                },
                {
                    "internalType": "uint40",
                    "name": "caller",
                    "type": "uint40"
                },
                {
                    "internalType": "bytes32",
                    "name": "sigHash",
                    "type": "bytes32"
                }
            ],
            "name": "execAntiDilution",
            "outputs": [],
            "stateMutability": "nonpayable",
            "type": "function"
        },
        {
            "inputs": [
                {
                    "internalType": "uint16",
                    "name": "seqOfFRRule",
                    "type": "uint16"
                },
                {
                    "internalType": "uint256",
                    "name": "seqOfRightholder",
                    "type": "uint256"
                },
                {
                    "internalType": "address",
                    "name": "ia",
                    "type": "address"
                },
                {
                    "internalType": "bytes32",
                    "name": "snOfDeal",
                    "type": "bytes32"
                },
                {
                    "internalType": "uint40",
                    "name": "caller",
                    "type": "uint40"
                },
                {
                    "internalType": "bytes32",
                    "name": "sigHash",
                    "type": "bytes32"
                }
            ],
            "name": "execFirstRefusal",
            "outputs": [],
            "stateMutability": "nonpayable",
            "type": "function"
        },
        {
            "inputs": [],
            "name": "finalized",
            "outputs": [
                {
                    "internalType": "bool",
                    "name": "",
                    "type": "bool"
                }
            ],
            "stateMutability": "view",
            "type": "function"
        },
        {
            "inputs": [],
            "name": "getBookeeper",
            "outputs": [
                {
                    "internalType": "address",
                    "name": "",
                    "type": "address"
                }
            ],
            "stateMutability": "view",
            "type": "function"
        },
        {
            "inputs": [],
            "name": "getGeneralCounsel",
            "outputs": [
                {
                    "internalType": "uint40",
                    "name": "",
                    "type": "uint40"
                }
            ],
            "stateMutability": "view",
            "type": "function"
        },
        {
            "inputs": [],
            "name": "getOwner",
            "outputs": [
                {
                    "internalType": "uint40",
                    "name": "",
                    "type": "uint40"
                }
            ],
            "stateMutability": "view",
            "type": "function"
        },
        {
            "inputs": [
                {
                    "internalType": "bytes32",
                    "name": "role",
                    "type": "bytes32"
                },
                {
                    "internalType": "uint40",
                    "name": "acct",
                    "type": "uint40"
                }
            ],
            "name": "grantRole",
            "outputs": [],
            "stateMutability": "nonpayable",
            "type": "function"
        },
        {
            "inputs": [
                {
                    "internalType": "bytes32",
                    "name": "role",
                    "type": "bytes32"
                },
                {
                    "internalType": "uint40",
                    "name": "acct",
                    "type": "uint40"
                }
            ],
            "name": "hasRole",
            "outputs": [
                {
                    "internalType": "bool",
                    "name": "",
                    "type": "bool"
                }
            ],
            "stateMutability": "view",
            "type": "function"
        },
        {
            "inputs": [
                {
                    "internalType": "uint40",
                    "name": "owner",
                    "type": "uint40"
                },
                {
                    "internalType": "address",
                    "name": "directKeeper",
                    "type": "address"
                },
                {
                    "internalType": "address",
                    "name": "regCenter",
                    "type": "address"
                },
                {
                    "internalType": "address",
                    "name": "generalKeeper",
                    "type": "address"
                }
            ],
            "name": "init",
            "outputs": [],
            "stateMutability": "nonpayable",
            "type": "function"
        },
        {
            "inputs": [],
            "name": "lockContents",
            "outputs": [],
            "stateMutability": "nonpayable",
            "type": "function"
        },
        {
            "inputs": [
                {
                    "internalType": "bytes32",
                    "name": "role",
                    "type": "bytes32"
                }
            ],
            "name": "renounceRole",
            "outputs": [],
            "stateMutability": "nonpayable",
            "type": "function"
        },
        {
            "inputs": [
                {
                    "internalType": "bytes32",
                    "name": "role",
                    "type": "bytes32"
                },
                {
                    "internalType": "uint40",
                    "name": "acct",
                    "type": "uint40"
                }
            ],
            "name": "revokeRole",
            "outputs": [],
            "stateMutability": "nonpayable",
            "type": "function"
        },
        {
            "inputs": [
                {
                    "internalType": "address",
                    "name": "keeper",
                    "type": "address"
                }
            ],
            "name": "setDirectKeeper",
            "outputs": [],
            "stateMutability": "nonpayable",
            "type": "function"
        },
        {
            "inputs": [
                {
                    "internalType": "uint40",
                    "name": "acct",
                    "type": "uint40"
                }
            ],
            "name": "setGeneralCounsel",
            "outputs": [],
            "stateMutability": "nonpayable",
            "type": "function"
        },
        {
            "inputs": [
                {
                    "internalType": "uint40",
                    "name": "acct",
                    "type": "uint40"
                }
            ],
            "name": "setOwner",
            "outputs": [],
            "stateMutability": "nonpayable",
            "type": "function"
        },
        {
            "inputs": [
                {
                    "internalType": "bytes32",
                    "name": "role",
                    "type": "bytes32"
                },
                {
                    "internalType": "uint40",
                    "name": "acct",
                    "type": "uint40"
                }
            ],
            "name": "setRoleAdmin",
            "outputs": [],
            "stateMutability": "nonpayable",
            "type": "function"
        },
        {
            "inputs": [
                {
                    "internalType": "address",
                    "name": "ia",
                    "type": "address"
                },
                {
                    "internalType": "bytes32",
                    "name": "sn",
                    "type": "bytes32"
                },
                {
                    "internalType": "uint40",
                    "name": "caller",
                    "type": "uint40"
                }
            ],
            "name": "takeGiftShares",
            "outputs": [],
            "stateMutability": "nonpayable",
            "type": "function"
        }
    ],
    "bytecode": "608060405234801561001057600080fd5b50616d0480620000216000396000f3fe608060405234801561001057600080fd5b50600436106101425760003560e01c806384c9e687116100b85780639eea4b9f1161007c5780639eea4b9f1461029c578063b3f05b97146102af578063de40ddb9146102c3578063ed211023146102d6578063f045a769146102f6578063f899f4f5146102fe57600080fd5b806384c9e6871461023a578063893d20e81461024d5780638bb9c5bf146102555780639622e8e6146102685780639bd26e601461027b57600080fd5b80633da9a6001161010a5780633da9a600146101b85780636be8496f146101cb57806374099815146101de57806379b2ec12146101f15780637ba706e814610214578063821ee8ea1461022757600080fd5b8063103f6edd146101475780631414603e1461016a57806316dc517e1461017f57806317c51fec146101925780633178a9a9146101a5575b600080fd5b61014f610311565b60405164ffffffffff90911681526020015b60405180910390f35b61017d610178366004616086565b61039d565b005b61017d61018d366004616114565b6109b7565b61017d6101a0366004616114565b610a4d565b61017d6101b3366004616144565b610a72565b61017d6101c6366004616161565b610c6b565b61017d6101d936600461617a565b610d7d565b61017d6101ec366004616114565b610e2f565b6102046101ff366004616114565b610e54565b6040519015158152602001610161565b61017d610222366004616144565b610ef5565b61017d610235366004616197565b6110e7565b61017d6102483660046161f3565b6111d7565b61014f611879565b61017d610263366004616161565b6118b4565b61017d61027636600461623b565b61190d565b61028e6102893660046162be565b611f5c565b604051908152602001610161565b61017d6102aa36600461637a565b6124dd565b60028054600160f01b900460ff1614610204565b61017d6102d13660046163e1565b612cb3565b6102de6131e5565b6040516001600160a01b039091168152602001610161565b61017d61326b565b61017d61030c3660046161f3565b613489565b60405163e8c0cc1d60e01b81526002600482015260009073__$364aad554dc80380f414546becdd2c1584$__9063e8c0cc1d906024015b60206040518083038186803b15801561036057600080fd5b505af4158015610374573d6000803e3d6000fd5b505050506040513d601f19601f820116820180604052508101906103989190616423565b905090565b604051633b11adbf60e21b81526002600482015233602482015273__$364aad554dc80380f414546becdd2c1584$__9063ec46b6fc9060440160206040518083038186803b1580156103ee57600080fd5b505af4158015610402573d6000803e3d6000fd5b505050506040513d601f19601f820116820180604052508101906104269190616440565b61044b5760405162461bcd60e51b81526004016104429061645d565b60405180910390fd5b876003610456613b84565b60405163de154c2760e01b81526001600160a01b038481166004830152919091169063de154c279060240160c06040518083038186803b15801561049957600080fd5b505afa1580156104ad573d6000803e3d6000fd5b505050506040513d601f19601f820116820180604052508101906104d1919061654e565b60a0015160ff16146104f55760405162461bcd60e51b8152600401610442906165d5565b88426104ff613b84565b60405163de154c2760e01b81526001600160a01b038481166004830152919091169063de154c279060240160c06040518083038186803b15801561054257600080fd5b505afa158015610556573d6000803e3d6000fd5b505050506040513d601f19601f8201168201806040525081019061057a919061654e565b6060015165ffffffffffff16116105a35760405162461bcd60e51b815260040161044290616601565b60006105ad613b84565b60405163deb5717560e01b81526001600160a01b038d81166004830152919091169063deb571759060240160206040518083038186803b1580156105f057600080fd5b505afa158015610604573d6000803e3d6000fd5b505050506040513d601f19601f82011682018060405250810190610628919061662f565b90506001600160a01b0381166107f857610640613b84565b60405163df280c2160e01b81526001600160a01b038d8116600483015264ffffffffff88166024830152919091169063df280c2190604401602060405180830381600087803b15801561069257600080fd5b505af11580156106a6573d6000803e3d6000fd5b505050506040513d601f19601f820116820180604052508101906106ca919061662f565b60005460015460405163410f747560e11b815264ffffffffff891660048201523060248201526001600160a01b039283166044820152908216606482015291925082169063821ee8ea90608401600060405180830381600087803b15801561073157600080fd5b505af1158015610745573d6000803e3d6000fd5b5050604051637d15bfe160e11b81526001600160a01b038e811660048301528416925063fa2b7fc29150602401600060405180830381600087803b15801561078c57600080fd5b505af11580156107a0573d6000803e3d6000fd5b50505050806001600160a01b0316631dd014db6040518163ffffffff1660e01b8152600401600060405180830381600087803b1580156107df57600080fd5b505af11580156107f3573d6000803e3d6000fd5b505050505b610808898c838d8c8c8c8c613be7565b60006108168c8c8c8c6144f5565b90506108258c8c838b8b614940565b6108308c8289614aa2565b50896109a9578b6001600160a01b031663b931f29b6040518163ffffffff1660e01b815260040160206040518083038186803b15801561086f57600080fd5b505afa158015610883573d6000803e3d6000fd5b505050506040513d601f19601f820116820180604052508101906108a7919061662f565b6001600160a01b0316631d345b498273__$94c94c1f27eaba30857c7d0c37f90b5581$__635defb38490916040518263ffffffff1660e01b81526004016108f091815260200190565b60206040518083038186803b15801561090857600080fd5b505af415801561091c573d6000803e3d6000fd5b505050506040513d601f19601f82011682018060405250810190610940919061664c565b6040516001600160e01b031960e084901b16815261ffff909116600482015264ffffffffff8916602482015260448101889052606401600060405180830381600087803b15801561099057600080fd5b505af11580156109a4573d6000803e3d6000fd5b505050505b505050505050505050505050565b73__$364aad554dc80380f414546becdd2c1584$__63427abff46002846109dc614cc3565b6040516001600160e01b031960e086901b1681526004810193909352602483019190915264ffffffffff9081166044830152841660648201526084015b60006040518083038186803b158015610a3157600080fd5b505af4158015610a45573d6000803e3d6000fd5b505050505050565b73__$364aad554dc80380f414546becdd2c1584$__638ce158456002846109dc614cc3565b604051633b11adbf60e21b81526002600482015233602482015273__$364aad554dc80380f414546becdd2c1584$__9063ec46b6fc9060440160206040518083038186803b158015610ac357600080fd5b505af4158015610ad7573d6000803e3d6000fd5b505050506040513d601f19601f82011682018060405250810190610afb9190616440565b80610ba0575073__$364aad554dc80380f414546becdd2c1584$__63fe2710866002610b25614cc3565b6040516001600160e01b031960e085901b168152600481019290925264ffffffffff16602482015260440160206040518083038186803b158015610b6857600080fd5b505af4158015610b7c573d6000803e3d6000fd5b505050506040513d601f19601f82011682018060405250810190610ba09190616440565b610bbc5760405162461bcd60e51b815260040161044290616669565b604051632725ebef60e21b81526002600482015264ffffffffff8216602482015273__$364aad554dc80380f414546becdd2c1584$__90639c97afbc9060440160006040518083038186803b158015610c1457600080fd5b505af4158015610c28573d6000803e3d6000fd5b505060405164ffffffffff841681527ff2735f34b69be1e6342dea95f9162f84d0db925fab655ca9f1f312ac8cbfc99d925060200190505b60405180910390a150565b604051633b11adbf60e21b81526002600482015233602482015273__$364aad554dc80380f414546becdd2c1584$__9063ec46b6fc9060440160206040518083038186803b158015610cbc57600080fd5b505af4158015610cd0573d6000803e3d6000fd5b505050506040513d601f19601f82011682018060405250810190610cf49190616440565b610d105760405162461bcd60e51b81526004016104429061645d565b60405163cc99e11b60e01b8152600260048201526024810182905273__$364aad554dc80380f414546becdd2c1584$__9063cc99e11b9060440160006040518083038186803b158015610d6257600080fd5b505af4158015610d76573d6000803e3d6000fd5b5050505050565b604051630f07232560e01b8152600260048201523360248201526001600160a01b038216604482015273__$364aad554dc80380f414546becdd2c1584$__90630f0723259060640160006040518083038186803b158015610ddd57600080fd5b505af4158015610df1573d6000803e3d6000fd5b50506040516001600160a01b03841681527fe435cbeab64e4eae6497b9d8289704bd709d624a80704ef3ca9af777534bc6ec92506020019050610c60565b73__$364aad554dc80380f414546becdd2c1584$__63d2a15ba76002846109dc614cc3565b604051632a3be56b60e21b8152600260048201526024810183905264ffffffffff8216604482015260009073__$364aad554dc80380f414546becdd2c1584$__9063a8ef95ac9060640160206040518083038186803b158015610eb657600080fd5b505af4158015610eca573d6000803e3d6000fd5b505050506040513d601f19601f82011682018060405250810190610eee9190616440565b9392505050565b604051633b11adbf60e21b81526002600482015233602482015273__$364aad554dc80380f414546becdd2c1584$__9063ec46b6fc9060440160206040518083038186803b158015610f4657600080fd5b505af4158015610f5a573d6000803e3d6000fd5b505050506040513d601f19601f82011682018060405250810190610f7e9190616440565b80611023575073__$364aad554dc80380f414546becdd2c1584$__63fe2710866002610fa8614cc3565b6040516001600160e01b031960e085901b168152600481019290925264ffffffffff16602482015260440160206040518083038186803b158015610feb57600080fd5b505af4158015610fff573d6000803e3d6000fd5b505050506040513d601f19601f820116820180604052508101906110239190616440565b61103f5760405162461bcd60e51b815260040161044290616669565b60405163b6e38a2960e01b81526002600482015264ffffffffff8216602482015273__$364aad554dc80380f414546becdd2c1584$__9063b6e38a299060440160006040518083038186803b15801561109757600080fd5b505af41580156110ab573d6000803e3d6000fd5b505060405164ffffffffff841681527f8b6f40f36b4ae8cc5f55e895036457c43da4ab1f80f58c46f5ff0d72a650033b92506020019050610c60565b6110f082614d1d565b6110f981614dcc565b604051636cdd0edf60e11b81526002600482015264ffffffffff851660248201526001600160a01b038416604482015273__$364aad554dc80380f414546becdd2c1584$__9063d9ba1dbe9060640160006040518083038186803b15801561116057600080fd5b505af4158015611174573d6000803e3d6000fd5b50506040805164ffffffffff881681526001600160a01b038781166020830152868116828401528516606082015290517f4d18c0021addc919105cb1ed2c11ad241e859cc1d9e77d4ee1d9ca2cdc1f255b9350908190036080019150a150505050565b604051633b11adbf60e21b81526002600482015233602482015273__$364aad554dc80380f414546becdd2c1584$__9063ec46b6fc9060440160206040518083038186803b15801561122857600080fd5b505af415801561123c573d6000803e3d6000fd5b505050506040513d601f19601f820116820180604052508101906112609190616440565b61127c5760405162461bcd60e51b81526004016104429061645d565b836003611287613b84565b60405163de154c2760e01b81526001600160a01b038481166004830152919091169063de154c279060240160c06040518083038186803b1580156112ca57600080fd5b505afa1580156112de573d6000803e3d6000fd5b505050506040513d601f19601f82011682018060405250810190611302919061654e565b60a0015160ff16146113265760405162461bcd60e51b8152600401610442906165d5565b8442611330613b84565b60405163de154c2760e01b81526001600160a01b038481166004830152919091169063de154c279060240160c06040518083038186803b15801561137357600080fd5b505afa158015611387573d6000803e3d6000fd5b505050506040513d601f19601f820116820180604052508101906113ab919061654e565b6060015165ffffffffffff16116113d45760405162461bcd60e51b815260040161044290616601565b6040516309d73b9560e11b81526004810186905273__$94c94c1f27eaba30857c7d0c37f90b5581$__906313ae772a9060240160206040518083038186803b15801561141f57600080fd5b505af4158015611433573d6000803e3d6000fd5b505050506040513d601f19601f820116820180604052508101906114579190616423565b64ffffffffff168464ffffffffff16146114a65760405162461bcd60e51b815260206004820152601060248201526f31b0b63632b9102727aa10313abcb2b960811b6044820152606401610442565b60006114b0613b84565b60405163deb5717560e01b81526001600160a01b038981166004830152919091169063deb571759060240160206040518083038186803b1580156114f357600080fd5b505afa158015611507573d6000803e3d6000fd5b505050506040513d601f19601f8201168201806040525081019061152b919061662f565b90506001600160a01b0381166115835760405162461bcd60e51b815260206004820152601f60248201527f6e6f204d6f636b526573756c74732061726520666f756e6420666f72204941006044820152606401610442565b60405163177bece160e21b81526004810187905260009073__$94c94c1f27eaba30857c7d0c37f90b5581$__90635defb3849060240160206040518083038186803b1580156115d157600080fd5b505af41580156115e5573d6000803e3d6000fd5b505050506040513d601f19601f82011682018060405250810190611609919061664c565b60405163b7cd729360e01b815261ffff8216600482015290915060009081906001600160a01b038b169063b7cd72939060240160c06040518083038186803b15801561165457600080fd5b505afa158015611668573d6000803e3d6000fd5b505050506040513d601f19601f8201168201806040525081019061168c91906166bf565b9050611696614e83565b6001600160a01b031663e4df91006040518163ffffffff1660e01b815260040160206040518083038186803b1580156116ce57600080fd5b505afa1580156116e2573d6000803e3d6000fd5b505050506040513d601f19601f820116820180604052508101906117069190616440565b15611717578060400151915061171f565b806020015191505b604051633acdf6c160e21b8152600481018a90526001600160401b03831660248201526001600160a01b0385169063eb37db0490604401600060405180830381600087803b15801561177057600080fd5b505af1158015611784573d6000803e3d6000fd5b50505050896001600160a01b031663b931f29b6040518163ffffffff1660e01b815260040160206040518083038186803b1580156117c157600080fd5b505afa1580156117d5573d6000803e3d6000fd5b505050506040513d601f19601f820116820180604052508101906117f9919061662f565b604051631d345b4960e01b815261ffff8516600482015264ffffffffff8a166024820152604481018990526001600160a01b039190911690631d345b49906064015b600060405180830381600087803b15801561185557600080fd5b505af1158015611869573d6000803e3d6000fd5b5050505050505050505050505050565b60405163987ad15360e01b81526002600482015260009073__$364aad554dc80380f414546becdd2c1584$__9063987ad15390602401610348565b60006118be614cc3565b604051637963595360e11b8152600260048201526024810184905264ffffffffff8216604482015290915073__$364aad554dc80380f414546becdd2c1584$__9063f2c6b2a690606401610a19565b604051633b11adbf60e21b81526002600482015233602482015273__$364aad554dc80380f414546becdd2c1584$__9063ec46b6fc9060440160206040518083038186803b15801561195e57600080fd5b505af4158015611972573d6000803e3d6000fd5b505050506040513d601f19601f820116820180604052508101906119969190616440565b6119b25760405162461bcd60e51b81526004016104429061645d565b8460036119bd613b84565b60405163de154c2760e01b81526001600160a01b038481166004830152919091169063de154c279060240160c06040518083038186803b158015611a0057600080fd5b505afa158015611a14573d6000803e3d6000fd5b505050506040513d601f19601f82011682018060405250810190611a38919061654e565b60a0015160ff1614611a5c5760405162461bcd60e51b8152600401610442906165d5565b8542611a66613b84565b60405163de154c2760e01b81526001600160a01b038481166004830152919091169063de154c279060240160c06040518083038186803b158015611aa957600080fd5b505afa158015611abd573d6000803e3d6000fd5b505050506040513d601f19601f82011682018060405250810190611ae1919061654e565b6060015165ffffffffffff1611611b0a5760405162461bcd60e51b815260040161044290616601565b604051630b7879eb60e21b81526004810186905273__$94c94c1f27eaba30857c7d0c37f90b5581$__90632de1e7ac9060240160206040518083038186803b158015611b5557600080fd5b505af4158015611b69573d6000803e3d6000fd5b505050506040513d601f19601f82011682018060405250810190611b8d9190616423565b64ffffffffff168464ffffffffff1614611be95760405162461bcd60e51b815260206004820152601960248201527f63616c6c6572206973206e6f74207368617265686f6c646572000000000000006044820152606401610442565b866001600160a01b031663b931f29b6040518163ffffffff1660e01b815260040160206040518083038186803b158015611c2257600080fd5b505afa158015611c36573d6000803e3d6000fd5b505050506040513d601f19601f82011682018060405250810190611c5a919061662f565b604051630578879f60e01b815264ffffffffff861660048201526001600160a01b039190911690630578879f9060240160206040518083038186803b158015611ca257600080fd5b505afa158015611cb6573d6000803e3d6000fd5b505050506040513d601f19601f82011682018060405250810190611cda9190616440565b15611d275760405162461bcd60e51b815260206004820152601d60248201527f63616c6c657220697320616e20496e69745369676e6572206f662049410000006044820152606401610442565b6000611d31614e9e565b60405163346ba94160e01b8152600260048201526001600160a01b03919091169063346ba9419060240160206040518083038186803b158015611d7357600080fd5b505afa158015611d87573d6000803e3d6000fd5b505050506040513d601f19601f82011682018060405250810190611dab919061662f565b60405163a34a8eab60e01b815260048101899052602481018890529091506000906001600160a01b0383169063a34a8eab9060440160206040518083038186803b158015611df857600080fd5b505afa158015611e0c573d6000803e3d6000fd5b505050506040513d601f19601f82011682018060405250810190611e30919061673a565b60405163217cf12b60e01b8152600481018990529091506000906001600160a01b0384169063e4cd97c79073__$94c94c1f27eaba30857c7d0c37f90b5581$__9063217cf12b9060240160206040518083038186803b158015611e9257600080fd5b505af4158015611ea6573d6000803e3d6000fd5b505050506040513d601f19601f82011682018060405250810190611eca919061664c565b6040516001600160e01b031960e084901b16815261ffff909116600482015260240160006040518083038186803b158015611f0457600080fd5b505afa158015611f18573d6000803e3d6000fd5b505050506040513d6000823e601f3d908101601f19168201604052611f40919081019061677a565b9050611f508a8a84848b8b614ee0565b50505050505050505050565b6040805160208082528183019092526000918291906020820181803683370190505090508073__$f4d24a073c4d632c09a66fb0a7ac9d4583$__63d8a3155f909160008e6040518463ffffffff1660e01b8152600401611fbe93929190616869565b60006040518083038186803b158015611fd657600080fd5b505af4158015611fea573d6000803e3d6000fd5b505050506040513d6000823e601f3d908101601f191682016040526120129190810190616896565b60405163d8a3155f60e01b815290915073__$f4d24a073c4d632c09a66fb0a7ac9d4583$__9063d8a3155f906120519084906002908f90600401616869565b60006040518083038186803b15801561206957600080fd5b505af415801561207d573d6000803e3d6000fd5b505050506040513d6000823e601f3d908101601f191682016040526120a59190810190616896565b90508860f81b816004815181106120be576120be616929565b60200101906001600160f81b031916908160001a905350604051630e6c1adf60e21b815273__$f4d24a073c4d632c09a66fb0a7ac9d4583$__906339b06b7c906121119084906005908d9060040161693f565b60006040518083038186803b15801561212957600080fd5b505af415801561213d573d6000803e3d6000fd5b505050506040513d6000823e601f3d908101601f191682016040526121659190810190616896565b604051630e6c1adf60e21b815290915073__$f4d24a073c4d632c09a66fb0a7ac9d4583$__906339b06b7c906121a4908490600a908c9060040161693f565b60006040518083038186803b1580156121bc57600080fd5b505af41580156121d0573d6000803e3d6000fd5b505050506040513d6000823e601f3d908101601f191682016040526121f89190810190616896565b604051630e6c1adf60e21b815290915073__$f4d24a073c4d632c09a66fb0a7ac9d4583$__906339b06b7c90612237908490600f908b9060040161693f565b60006040518083038186803b15801561224f57600080fd5b505af4158015612263573d6000803e3d6000fd5b505050506040513d6000823e601f3d908101601f1916820160405261228b9190810190616896565b60405163757398af60e11b815290915073__$f4d24a073c4d632c09a66fb0a7ac9d4583$__9063eae7315e906122ca9084906014908a9060040161696f565b60006040518083038186803b1580156122e257600080fd5b505af41580156122f6573d6000803e3d6000fd5b505050506040513d6000823e601f3d908101601f1916820160405261231e9190810190616896565b60405163757398af60e11b815290915073__$f4d24a073c4d632c09a66fb0a7ac9d4583$__9063eae7315e9061235d908490601890899060040161696f565b60006040518083038186803b15801561237557600080fd5b505af4158015612389573d6000803e3d6000fd5b505050506040513d6000823e601f3d908101601f191682016040526123b19190810190616896565b60405163d8a3155f60e01b815290915073__$f4d24a073c4d632c09a66fb0a7ac9d4583$__9063d8a3155f906123f0908490601c908890600401616869565b60006040518083038186803b15801561240857600080fd5b505af415801561241c573d6000803e3d6000fd5b505050506040513d6000823e601f3d908101601f191682016040526124449190810190616896565b60405163bfe370d960e01b815290915073__$f4d24a073c4d632c09a66fb0a7ac9d4583$__9063bfe370d99061247e90849060040161699e565b60206040518083038186803b15801561249657600080fd5b505af41580156124aa573d6000803e3d6000fd5b505050506040513d601f19601f820116820180604052508101906124ce91906169b1565b9b9a5050505050505050505050565b604051633b11adbf60e21b81526002600482015233602482015273__$364aad554dc80380f414546becdd2c1584$__9063ec46b6fc9060440160206040518083038186803b15801561252e57600080fd5b505af4158015612542573d6000803e3d6000fd5b505050506040513d601f19601f820116820180604052508101906125669190616440565b6125825760405162461bcd60e51b81526004016104429061645d565b834261258c613b84565b60405163de154c2760e01b81526001600160a01b038481166004830152919091169063de154c279060240160c06040518083038186803b1580156125cf57600080fd5b505afa1580156125e3573d6000803e3d6000fd5b505050506040513d601f19601f82011682018060405250810190612607919061654e565b6060015165ffffffffffff16116126305760405162461bcd60e51b815260040161044290616601565b600061263a613b84565b60405163177bece160e21b81526004810187905290915060009073__$94c94c1f27eaba30857c7d0c37f90b5581$__90635defb3849060240160206040518083038186803b15801561268b57600080fd5b505af415801561269f573d6000803e3d6000fd5b505050506040513d601f19601f820116820180604052508101906126c3919061664c565b905060006126cf614e9e565b604051634846203760e01b815261ffff8c1660048201526001600160a01b03919091169063484620379060240160206040518083038186803b15801561271457600080fd5b505afa158015612728573d6000803e3d6000fd5b505050506040513d601f19601f8201168201806040525081019061274c91906169b1565b6040516364dc784760e11b81526004810189905290915073__$94c94c1f27eaba30857c7d0c37f90b5581$__9063c9b8f08e9060240160206040518083038186803b15801561279a57600080fd5b505af41580156127ae573d6000803e3d6000fd5b505050506040513d601f19601f820116820180604052508101906127d291906169ca565b60405163d059a41960e01b81526004810183905260ff919091169073__$94c94c1f27eaba30857c7d0c37f90b5581$__9063d059a4199060240160206040518083038186803b15801561282457600080fd5b505af4158015612838573d6000803e3d6000fd5b505050506040513d601f19601f8201168201806040525081019061285c91906169ca565b60ff16146128be5760405162461bcd60e51b815260206004820152602960248201527f5348414b2e4546523a2072756c6520616e64206465616c20617265206e6f742060448201526873616d65207479706560b81b6064820152608401610442565b6040516304f1d2a560e51b81526004810182905273__$94c94c1f27eaba30857c7d0c37f90b5581$__90639e3a54a09060240160206040518083038186803b15801561290957600080fd5b505af415801561291d573d6000803e3d6000fd5b505050506040513d601f19601f820116820180604052508101906129419190616440565b80156129d05750612950614e83565b60405163c5916f4b60e01b815264ffffffffff881660048201526001600160a01b03919091169063c5916f4b9060240160206040518083038186803b15801561299857600080fd5b505afa1580156129ac573d6000803e3d6000fd5b505050506040513d601f19601f820116820180604052508101906129d09190616440565b80612a725750604051631ba2c6f760e01b815260048101829052602481018a905264ffffffffff87169073__$94c94c1f27eaba30857c7d0c37f90b5581$__90631ba2c6f79060440160206040518083038186803b158015612a3157600080fd5b505af4158015612a45573d6000803e3d6000fd5b505050506040513d601f19601f82011682018060405250810190612a699190616423565b64ffffffffff16145b612abe5760405162461bcd60e51b815260206004820181905260248201527f5348414b2e4546523a2063616c6c6572204e4f54207269676874686f6c6465726044820152606401610442565b604051638de96c8d60e01b81526001600160a01b03898116600483015261ffff8416602483015264ffffffffff88166044830152841690638de96c8d90606401602060405180830381600087803b158015612b1857600080fd5b505af1158015612b2c573d6000803e3d6000fd5b505050506040513d601f19601f82011682018060405250810190612b509190616440565b15611f50576000886001600160a01b031663b931f29b6040518163ffffffff1660e01b815260040160206040518083038186803b158015612b9057600080fd5b505afa158015612ba4573d6000803e3d6000fd5b505050506040513d601f19601f82011682018060405250810190612bc8919061662f565b60405163e0b722ff60e01b815261ffff8516600482015264ffffffffff891660248201529091506001600160a01b0382169063e0b722ff90604401600060405180830381600087803b158015612c1d57600080fd5b505af1158015612c31573d6000803e3d6000fd5b5050604051631d345b4960e01b815261ffff8616600482015264ffffffffff8a166024820152604481018990526001600160a01b0384169250631d345b499150606401600060405180830381600087803b158015612c8e57600080fd5b505af1158015612ca2573d6000803e3d6000fd5b505050505050505050505050505050565b604051633b11adbf60e21b81526002600482015233602482015273__$364aad554dc80380f414546becdd2c1584$__9063ec46b6fc9060440160206040518083038186803b158015612d0457600080fd5b505af4158015612d18573d6000803e3d6000fd5b505050506040513d601f19601f82011682018060405250810190612d3c9190616440565b612d585760405162461bcd60e51b81526004016104429061645d565b6040516309d73b9560e11b81526004810183905273__$94c94c1f27eaba30857c7d0c37f90b5581$__906313ae772a9060240160206040518083038186803b158015612da357600080fd5b505af4158015612db7573d6000803e3d6000fd5b505050506040513d601f19601f82011682018060405250810190612ddb9190616423565b64ffffffffff168164ffffffffff1614612e2d5760405162461bcd60e51b815260206004820152601360248201527231b0b63632b91034b9903737ba10313abcb2b960691b6044820152606401610442565b60405163177bece160e21b81526004810183905260009073__$94c94c1f27eaba30857c7d0c37f90b5581$__90635defb3849060240160206040518083038186803b158015612e7b57600080fd5b505af4158015612e8f573d6000803e3d6000fd5b505050506040513d601f19601f82011682018060405250810190612eb3919061664c565b604051631e0326d760e11b815261ffff821660048201529091506001600160a01b03851690633c064dae90602401602060405180830381600087803b158015612efb57600080fd5b505af1158015612f0f573d6000803e3d6000fd5b505050506040513d601f19601f82011682018060405250810190612f339190616440565b5060405163b7cd729360e01b815261ffff821660048201526000906001600160a01b0386169063b7cd72939060240160c06040518083038186803b158015612f7a57600080fd5b505afa158015612f8e573d6000803e3d6000fd5b505050506040513d601f19601f82011682018060405250810190612fb291906166bf565b604051632805fd7360e21b81526004810186905290915060009073__$94c94c1f27eaba30857c7d0c37f90b5581$__9063a017f5cc9060240160206040518083038186803b15801561300357600080fd5b505af4158015613017573d6000803e3d6000fd5b505050506040513d601f19601f8201168201806040525081019061303b91906169e7565b9050613045615203565b60208301516040516361cd252b60e01b815263ffffffff841660048201526001600160401b0390911660248201526001600160a01b0391909116906361cd252b90604401600060405180830381600087803b1580156130a357600080fd5b505af11580156130b7573d6000803e3d6000fd5b505050506130c3615203565b6001600160a01b031663608c472182846020015185604001518973__$94c94c1f27eaba30857c7d0c37f90b5581$__6313ae772a90916040518263ffffffff1660e01b815260040161311791815260200190565b60206040518083038186803b15801561312f57600080fd5b505af4158015613143573d6000803e3d6000fd5b505050506040513d601f19601f820116820180604052508101906131679190616423565b6040516001600160e01b031960e087901b16815263ffffffff9490941660048501526001600160401b0392831660248501529116604483015264ffffffffff1660648201526000608482015260a4015b600060405180830381600087803b1580156131d157600080fd5b505af1158015611f50573d6000803e3d6000fd5b604051633c3e56c160e11b81526002600482015260009073__$364aad554dc80380f414546becdd2c1584$__9063787cad829060240160206040518083038186803b15801561323357600080fd5b505af4158015613247573d6000803e3d6000fd5b505050506040513d601f19601f82011682018060405250810190610398919061662f565b604051633b11adbf60e21b81526002600482015233602482015273__$364aad554dc80380f414546becdd2c1584$__9063ec46b6fc9060440160206040518083038186803b1580156132bc57600080fd5b505af41580156132d0573d6000803e3d6000fd5b505050506040513d601f19601f820116820180604052508101906132f49190616440565b6133105760405162461bcd60e51b81526004016104429061645d565b600254600160f01b900460ff1660011461336c5760405162461bcd60e51b815260206004820181905260248201527f41432e6f6e6c7950656e64696e673a20446f632069732066696e616c697a65646044820152606401610442565b60405163cc99e11b60e01b815260026004820152684174746f726e65797360b81b602482015273__$364aad554dc80380f414546becdd2c1584$__9063cc99e11b9060440160006040518083038186803b1580156133c957600080fd5b505af41580156133dd573d6000803e3d6000fd5b5050604051632725ebef60e21b8152600260048201526000602482015273__$364aad554dc80380f414546becdd2c1584$__9250639c97afbc915060440160006040518083038186803b15801561343357600080fd5b505af4158015613447573d6000803e3d6000fd5b50506002805460ff60f01b1916600160f11b17905550506040517f35012b512309c322acf68632cd6cb702ff0e1d776fbe9394e38ffc13b434fe7590600090a1565b604051633b11adbf60e21b81526002600482015233602482015273__$364aad554dc80380f414546becdd2c1584$__9063ec46b6fc9060440160206040518083038186803b1580156134da57600080fd5b505af41580156134ee573d6000803e3d6000fd5b505050506040513d601f19601f820116820180604052508101906135129190616440565b61352e5760405162461bcd60e51b81526004016104429061645d565b8342613538613b84565b60405163de154c2760e01b81526001600160a01b038481166004830152919091169063de154c279060240160c06040518083038186803b15801561357b57600080fd5b505afa15801561358f573d6000803e3d6000fd5b505050506040513d601f19601f820116820180604052508101906135b3919061654e565b6060015165ffffffffffff16111561360d5760405162461bcd60e51b815260206004820152601a60248201527f7374696c6c2077697468696e2072657669657720706572696f640000000000006044820152606401610442565b60405163177bece160e21b81526004810185905260009073__$94c94c1f27eaba30857c7d0c37f90b5581$__90635defb3849060240160206040518083038186803b15801561365b57600080fd5b505af415801561366f573d6000803e3d6000fd5b505050506040513d601f19601f82011682018060405250810190613693919061664c565b6040516364dc784760e11b81526004810187905290915060019073__$94c94c1f27eaba30857c7d0c37f90b5581$__9063c9b8f08e9060240160206040518083038186803b1580156136e457600080fd5b505af41580156136f8573d6000803e3d6000fd5b505050506040513d601f19601f8201168201806040525081019061371c91906169ca565b60ff16141561389d5761372d614e83565b6001600160a01b031663984199286040518163ffffffff1660e01b815260040160206040518083038186803b15801561376557600080fd5b505afa158015613779573d6000803e3d6000fd5b505050506040513d601f19601f8201168201806040525081019061379d9190616423565b64ffffffffff166137ac614e83565b6040516323b4367960e11b815264ffffffffff871660048201526001600160a01b0391909116906347686cf29060240160206040518083038186803b1580156137f457600080fd5b505afa158015613808573d6000803e3d6000fd5b505050506040513d601f19601f8201168201806040525081019061382c9190616423565b64ffffffffff16146138985760405162461bcd60e51b815260206004820152602f60248201527f5348414b2e4146523a2063616c6c6572206e6f742062656c6f6e6720746f206360448201526e06f6e74726f6c6c65722067726f757608c1b6064820152608401610442565b61397c565b604051630d914a1d60e41b81526004810186905273__$94c94c1f27eaba30857c7d0c37f90b5581$__9063d914a1d09060240160206040518083038186803b1580156138e857600080fd5b505af41580156138fc573d6000803e3d6000fd5b505050506040513d601f19601f820116820180604052508101906139209190616423565b64ffffffffff168464ffffffffff161461397c5760405162461bcd60e51b815260206004820152601c60248201527f5348414b2e4146523a206e6f742073656c6c6572206f66204465616c000000006044820152606401610442565b6000613986613b84565b60405163637d473f60e01b81526001600160a01b03898116600483015261ffff8516602483015291925060009183169063637d473f90604401600060405180830381600087803b1580156139d957600080fd5b505af11580156139ed573d6000803e3d6000fd5b505050506040513d6000823e601f3d908101601f19168201604052613a159190810190616a04565b80519091505b8015613a6057613a4e8983613a31600185616afd565b81518110613a4157613a41616929565b602002602001015161521e565b80613a5881616b14565b915050613a1b565b6000896001600160a01b031663b931f29b6040518163ffffffff1660e01b815260040160206040518083038186803b158015613a9b57600080fd5b505afa158015613aaf573d6000803e3d6000fd5b505050506040513d601f19601f82011682018060405250810190613ad3919061662f565b60405163e0b722ff60e01b815261ffff8716600482015264ffffffffff8a1660248201529091506001600160a01b0382169063e0b722ff90604401600060405180830381600087803b158015613b2857600080fd5b505af1158015613b3c573d6000803e3d6000fd5b5050604051631d345b4960e01b815261ffff8816600482015264ffffffffff8b166024820152604481018a90526001600160a01b0384169250631d345b49915060640161183b565b6001546000906001600160a01b031663e06eba8c825b6040516001600160e01b031960e084901b16815260ff909116600482015260240160206040518083038186803b158015613bd357600080fd5b505afa158015613247573d6000803e3d6000fd5b604051630d914a1d60e41b81526004810186905260009073__$94c94c1f27eaba30857c7d0c37f90b5581$__9063d914a1d09060240160206040518083038186803b158015613c3557600080fd5b505af4158015613c49573d6000803e3d6000fd5b505050506040513d601f19601f82011682018060405250810190613c6d9190616423565b9050600089613cfc57613c7e614e9e565b60405163346ba94160e01b81526004818101526001600160a01b03919091169063346ba9419060240160206040518083038186803b158015613cbf57600080fd5b505afa158015613cd3573d6000803e3d6000fd5b505050506040513d601f19601f82011682018060405250810190613cf7919061662f565b613d7e565b613d04614e9e565b60405163346ba94160e01b8152600360048201526001600160a01b03919091169063346ba9419060240160206040518083038186803b158015613d4657600080fd5b505afa158015613d5a573d6000803e3d6000fd5b505050506040513d601f19601f82011682018060405250810190613d7e919061662f565b604051638e5a886f60e01b81526001600160a01b038b81166004830152602482018a905291925090821690638e5a886f9060440160206040518083038186803b158015613dca57600080fd5b505afa158015613dde573d6000803e3d6000fd5b505050506040513d601f19601f82011682018060405250810190613e029190616440565b613e3e5760405162461bcd60e51b815260206004820152600d60248201526c1b9bdd081d1c9a59d9d95c9959609a1b6044820152606401610442565b604051630b7879eb60e21b8152600481018790526001600160a01b03821690634283a0ed90849073__$94c94c1f27eaba30857c7d0c37f90b5581$__90632de1e7ac9060240160206040518083038186803b158015613e9c57600080fd5b505af4158015613eb0573d6000803e3d6000fd5b505050506040513d601f19601f82011682018060405250810190613ed49190616423565b6040516001600160e01b031960e085901b16815264ffffffffff92831660048201529116602482015260440160206040518083038186803b158015613f1857600080fd5b505afa158015613f2c573d6000803e3d6000fd5b505050506040513d601f19601f82011682018060405250810190613f509190616440565b613fad5760405162461bcd60e51b815260206004820152602860248201527f64726167657220616e6420746172676574207368617265686f6c646572204e4f60448201526715081b1a5b9ad95960c21b6064820152608401610442565b886001600160a01b031663b931f29b6040518163ffffffff1660e01b815260040160206040518083038186803b158015613fe657600080fd5b505afa158015613ffa573d6000803e3d6000fd5b505050506040513d601f19601f8201168201806040525081019061401e919061662f565b6001600160a01b0316630578879f8773__$94c94c1f27eaba30857c7d0c37f90b5581$__632de1e7ac90916040518263ffffffff1660e01b815260040161406791815260200190565b60206040518083038186803b15801561407f57600080fd5b505af4158015614093573d6000803e3d6000fd5b505050506040513d601f19601f820116820180604052508101906140b79190616423565b6040516001600160e01b031960e084901b16815264ffffffffff909116600482015260240160206040518083038186803b1580156140f457600080fd5b505afa158015614108573d6000803e3d6000fd5b505050506040513d601f19601f8201168201806040525081019061412c9190616440565b156141795760405162461bcd60e51b815260206004820152601f60248201527f666f6c6c6f77657220697320616e20496e69745369676e6572206f66204941006044820152606401610442565b89156142c1578164ffffffffff168364ffffffffff16146141e65760405162461bcd60e51b815260206004820152602160248201527f63616c6c6572206973206e6f7420647261676572206f662044726167416c6f6e6044820152606760f81b6064820152608401610442565b604051635121494160e01b81526001600160a01b038a81166004830152602482018990526044820188905264ffffffffff8516606483015282169063512149419060840160206040518083038186803b15801561424257600080fd5b505afa158015614256573d6000803e3d6000fd5b505050506040513d601f19601f8201168201806040525081019061427a9190616440565b6142bc5760405162461bcd60e51b81526020600482015260136024820152721c1c9a58d9481393d5081cd85d1a5cd99a5959606a1b6044820152606401610442565b6143ae565b604051630b7879eb60e21b81526004810187905273__$94c94c1f27eaba30857c7d0c37f90b5581$__90632de1e7ac9060240160206040518083038186803b15801561430c57600080fd5b505af4158015614320573d6000803e3d6000fd5b505050506040513d601f19601f820116820180604052508101906143449190616423565b64ffffffffff168364ffffffffff16146143ae5760405162461bcd60e51b815260206004820152602560248201527f63616c6c6572206973206e6f74207368617265686f6c646572206f6620546167604482015264416c6f6e6760d81b6064820152608401610442565b604051636ec616f360e11b815264ffffffffff831660048201526001600160a01b03808a169163a57b3ff99184169063dd8c2de69060240160206040518083038186803b1580156143fe57600080fd5b505afa158015614412573d6000803e3d6000fd5b505050506040513d601f19601f8201168201806040525081019061443691906169b1565b8861443f614e83565b6001600160a01b031663e4df91006040518163ffffffff1660e01b815260040160206040518083038186803b15801561447757600080fd5b505afa15801561448b573d6000803e3d6000fd5b505050506040513d601f19601f820116820180604052508101906144af9190616440565b6144b957886144bb565b875b6040516001600160e01b031960e086901b168152600481019390935260248301919091526001600160401b0316604482015260640161183b565b60008083614504576009614507565b600a5b6040516309d73b9560e11b81526004810187905290915060009073__$94c94c1f27eaba30857c7d0c37f90b5581$__906313ae772a9060240160206040518083038186803b15801561455857600080fd5b505af415801561456c573d6000803e3d6000fd5b505050506040513d601f19601f820116820180604052508101906145909190616423565b60405163217cf12b60e01b8152600481018690529091506149359073__$94c94c1f27eaba30857c7d0c37f90b5581$__9063217cf12b9060240160206040518083038186803b1580156145e257600080fd5b505af41580156145f6573d6000803e3d6000fd5b505050506040513d601f19601f8201168201806040525081019061461a919061664c565b886001600160a01b031663630fc1356040518163ffffffff1660e01b815260040160206040518083038186803b15801561465357600080fd5b505afa158015614667573d6000803e3d6000fd5b505050506040513d601f19601f8201168201806040525081019061468b919061664c565b614696906001616b2b565b604051630b7879eb60e21b815260048101889052859073__$94c94c1f27eaba30857c7d0c37f90b5581$__90632de1e7ac9060240160206040518083038186803b1580156146e357600080fd5b505af41580156146f7573d6000803e3d6000fd5b505050506040513d601f19601f8201168201806040525081019061471b9190616423565b85614724614e83565b6040516323b4367960e11b815264ffffffffff891660048201526001600160a01b0391909116906347686cf29060240160206040518083038186803b15801561476c57600080fd5b505afa158015614780573d6000803e3d6000fd5b505050506040513d601f19601f820116820180604052508101906147a49190616423565b6040516321aa0faf60e01b8152600481018c905273__$94c94c1f27eaba30857c7d0c37f90b5581$__906321aa0faf9060240160206040518083038186803b1580156147ef57600080fd5b505af4158015614803573d6000803e3d6000fd5b505050506040513d601f19601f8201168201806040525081019061482791906169e7565b604051638b257a7160e01b8152600481018f905273__$94c94c1f27eaba30857c7d0c37f90b5581$__90638b257a719060240160206040518083038186803b15801561487257600080fd5b505af4158015614886573d6000803e3d6000fd5b505050506040513d601f19601f820116820180604052508101906148aa91906169e7565b8e73__$94c94c1f27eaba30857c7d0c37f90b5581$__635defb38490916040518263ffffffff1660e01b81526004016148e591815260200190565b60206040518083038186803b1580156148fd57600080fd5b505af4158015614911573d6000803e3d6000fd5b505050506040513d601f19601f82011682018060405250810190610289919061664c565b979650505050505050565b60405163177bece160e21b8152600481018590526000906001600160a01b0387169063b7cd72939073__$94c94c1f27eaba30857c7d0c37f90b5581$__90635defb3849060240160206040518083038186803b15801561499f57600080fd5b505af41580156149b3573d6000803e3d6000fd5b505050506040513d601f19601f820116820180604052508101906149d7919061664c565b6040516001600160e01b031960e084901b16815261ffff909116600482015260240160c06040518083038186803b158015614a1157600080fd5b505afa158015614a25573d6000803e3d6000fd5b505050506040513d601f19601f82011682018060405250810190614a4991906166bf565b606001516040516374b07c2160e01b8152600481018690526001600160401b0380861660248301528416604482015265ffffffffffff821660648201529091506001600160a01b038716906374b07c21906084016131b7565b60405163177bece160e21b8152600481018390526000906001600160a01b0385169063646ea9c09073__$94c94c1f27eaba30857c7d0c37f90b5581$__90635defb3849060240160206040518083038186803b158015614b0157600080fd5b505af4158015614b15573d6000803e3d6000fd5b505050506040513d601f19601f82011682018060405250810190614b39919061664c565b6040516001600160e01b031960e084901b16815261ffff9091166004820152602401602060405180830381600087803b158015614b7557600080fd5b505af1158015614b89573d6000803e3d6000fd5b505050506040513d601f19601f82011682018060405250810190614bad9190616440565b15610eee57614bba615203565b6001600160a01b0316635a31dd568473__$94c94c1f27eaba30857c7d0c37f90b5581$__63a017f5cc90916040518263ffffffff1660e01b8152600401614c0391815260200190565b60206040518083038186803b158015614c1b57600080fd5b505af4158015614c2f573d6000803e3d6000fd5b505050506040513d601f19601f82011682018060405250810190614c5391906169e7565b6040516001600160e01b031960e084901b16815263ffffffff9190911660048201526001600160401b0385166024820152604401600060405180830381600087803b158015614ca157600080fd5b505af1158015614cb5573d6000803e3d6000fd5b506001979650505050505050565b60008054604051634de835e760e11b81523360048201526001600160a01b0390911690639bd06bce90602401602060405180830381600087803b158015614d0957600080fd5b505af1158015610374573d6000803e3d6000fd5b6000546001600160a01b031615614d6e5760405162461bcd60e51b815260206004820152601560248201527430b63932b0b23c9039b2ba103932b3a1b2b73a32b960591b6044820152606401610442565b6040516001600160a01b03821681527f318da6c7624c71cbc0afe346c9d8827f119d0ecefb241a7b0c87217a076a8e029060200160405180910390a1600080546001600160a01b0319166001600160a01b0392909216919091179055565b6001546001600160a01b031615614e255760405162461bcd60e51b815260206004820152601960248201527f616c7265616479207365742067656e6572616c4b6565706572000000000000006044820152606401610442565b6040516001600160a01b03821681527fe513d3e0f0d0a3877029dcc588748679a7a3450ec1ec7ed56d96bd012c3e61aa9060200160405180910390a1600180546001600160a01b0319166001600160a01b0392909216919091179055565b6001546000906001600160a01b031663e06eba8c6007613b9a565b6000614ea8615825565b6001600160a01b0316632f5f3b3c6040518163ffffffff1660e01b815260040160206040518083038186803b158015613bd357600080fd5b60005b83518110156151a1576000614ef6614e83565b6001600160a01b0316633e211006868481518110614f1657614f16616929565b60200260200101516040518263ffffffff1660e01b8152600401614f47919064ffffffffff91909116815260200190565b60006040518083038186803b158015614f5f57600080fd5b505afa158015614f73573d6000803e3d6000fd5b505050506040513d6000823e601f3d908101601f19168201604052614f9b9190810190616b51565b905060005b815181101561517957600080614fd28b8b868681518110614fc357614fc3616929565b60200260200101518c8b615840565b915091508a6001600160a01b031663b931f29b6040518163ffffffff1660e01b815260040160206040518083038186803b15801561500f57600080fd5b505afa158015615023573d6000803e3d6000fd5b505050506040513d601f19601f82011682018060405250810190615047919061662f565b6001600160a01b0316631d345b498373__$94c94c1f27eaba30857c7d0c37f90b5581$__635defb38490916040518263ffffffff1660e01b815260040161509091815260200190565b60206040518083038186803b1580156150a857600080fd5b505af41580156150bc573d6000803e3d6000fd5b505050506040513d601f19601f820116820180604052508101906150e0919061664c565b6040516001600160e01b031960e084901b16815261ffff909116600482015264ffffffffff8a16602482015260448101899052606401600060405180830381600087803b15801561513057600080fd5b505af1158015615144573d6000803e3d6000fd5b50505050809850886001600160401b031660001415615164575050615179565b5050808061517190616bd6565b915050614fa0565b506001600160401b03861661518e57506151a1565b508061519981616bd6565b915050614ee3565b506001600160401b03841615610a455760405162461bcd60e51b815260206004820152602160248201527f6f626c69676f72732068617665206e6f7420656e6f7567682070617256616c756044820152606560f81b6064820152608401610442565b6001546000906001600160a01b031663e06eba8c6006613b9a565b805160405163b7cd729360e01b815261ffff909116600482015282906000906001600160a01b0383169063b7cd72939060240160c06040518083038186803b15801561526957600080fd5b505afa15801561527d573d6000803e3d6000fd5b505050506040513d601f19601f820116820180604052508101906152a191906166bf565b8051604051632805fd7360e21b8152600481019190915290915060009073__$94c94c1f27eaba30857c7d0c37f90b5581$__9063a017f5cc9060240160206040518083038186803b1580156152f557600080fd5b505af4158015615309573d6000803e3d6000fd5b505050506040513d601f19601f8201168201806040525081019061532d91906169e7565b6040805160c081018252600080825260208201819052918101829052606081018290526080810182905260a081019190915290915063ffffffff8216156153f857615376615203565b6040516352aadfd760e01b815263ffffffff841660048201526001600160a01b0391909116906352aadfd79060240160c06040518083038186803b1580156153bd57600080fd5b505afa1580156153d1573d6000803e3d6000fd5b505050506040513d601f19601f820116820180604052508101906153f59190616bf1565b90505b6000846001600160a01b031663630fc1356040518163ffffffff1660e01b815260040160206040518083038186803b15801561543357600080fd5b505afa158015615447573d6000803e3d6000fd5b505050506040513d601f19601f8201168201806040525081019061546b919061664c565b615476906001616b2b565b845160405163217cf12b60e01b81529192506000916156cf9173__$94c94c1f27eaba30857c7d0c37f90b5581$__9163217cf12b916154bb9160040190815260200190565b60206040518083038186803b1580156154d357600080fd5b505af41580156154e7573d6000803e3d6000fd5b505050506040513d601f19601f8201168201806040525081019061550b919061664c565b8363ffffffff87161561551f57600b615522565b60085b8651604051630b7879eb60e21b8152600481019190915273__$94c94c1f27eaba30857c7d0c37f90b5581$__90632de1e7ac9060240160206040518083038186803b15801561557057600080fd5b505af4158015615584573d6000803e3d6000fd5b505050506040513d601f19601f820116820180604052508101906155a89190616423565b8b602001516155b5614e83565b60208e01516040516323b4367960e11b815264ffffffffff90911660048201526001600160a01b0391909116906347686cf29060240160206040518083038186803b15801561560357600080fd5b505afa158015615617573d6000803e3d6000fd5b505050506040513d601f19601f8201168201806040525081019061563b9190616423565b8b51604051638b257a7160e01b81528c9173__$94c94c1f27eaba30857c7d0c37f90b5581$__91638b257a71916156789160040190815260200190565b60206040518083038186803b15801561569057600080fd5b505af41580156156a4573d6000803e3d6000fd5b505050506040513d601f19601f820116820180604052508101906156c891906169e7565b8f51611f5c565b9050856001600160a01b03166374b07c21826127108a6060015189602001516156f89190616c43565b6157029190616c72565b6127108b606001518a604001516157199190616c43565b6157239190616c72565b60608a01516040516001600160e01b031960e087901b16815260048101949094526001600160401b0392831660248501529116604483015265ffffffffffff166064820152608401600060405180830381600087803b15801561578557600080fd5b505af1158015615799573d6000803e3d6000fd5b5050604051630191baa760e61b815261ffff851660048201526001600160a01b038916925063646ea9c09150602401602060405180830381600087803b1580156157e257600080fd5b505af11580156157f6573d6000803e3d6000fd5b505050506040513d601f19601f8201168201806040525081019061581a9190616440565b505050505050505050565b6001546000906001600160a01b031663e06eba8c6003613b9a565b600080600061584d615203565b6001600160a01b031663b8558d8f8773__$94c94c1f27eaba30857c7d0c37f90b5581$__6321aa0faf90916040518263ffffffff1660e01b815260040161589691815260200190565b60206040518083038186803b1580156158ae57600080fd5b505af41580156158c2573d6000803e3d6000fd5b505050506040513d601f19601f820116820180604052508101906158e691906169e7565b6040516001600160e01b031960e084901b16815263ffffffff91909116600482015260240160206040518083038186803b15801561592357600080fd5b505afa158015615937573d6000803e3d6000fd5b505050506040513d601f19601f8201168201806040525081019061595b919061673a565b905060006001600160401b03821615615d455761597a89898988615d5d565b60405163177bece160e21b8152600481018a90529094506000906001600160a01b038b169063b7cd72939073__$94c94c1f27eaba30857c7d0c37f90b5581$__90635defb3849060240160206040518083038186803b1580156159dc57600080fd5b505af41580156159f0573d6000803e3d6000fd5b505050506040513d601f19601f82011682018060405250810190615a14919061664c565b6040516001600160e01b031960e084901b16815261ffff909116600482015260240160c06040518083038186803b158015615a4e57600080fd5b505afa158015615a62573d6000803e3d6000fd5b505050506040513d601f19601f82011682018060405250810190615a8691906166bf565b606001519050866001600160401b0316836001600160401b031610615aab5786615aad565b825b6040516374b07c2160e01b8152600481018790526001600160401b03821660248201819052604482015265ffffffffffff831660648201529092506001600160a01b038b16906374b07c2190608401600060405180830381600087803b158015615b1657600080fd5b505af1158015615b2a573d6000803e3d6000fd5b505060405163177bece160e21b8152600481018890526001600160a01b038d16925063646ea9c0915073__$94c94c1f27eaba30857c7d0c37f90b5581$__90635defb3849060240160206040518083038186803b158015615b8a57600080fd5b505af4158015615b9e573d6000803e3d6000fd5b505050506040513d601f19601f82011682018060405250810190615bc2919061664c565b6040516001600160e01b031960e084901b16815261ffff9091166004820152602401602060405180830381600087803b158015615bfe57600080fd5b505af1158015615c12573d6000803e3d6000fd5b505050506040513d601f19601f82011682018060405250810190615c369190616440565b15615d4357615c43615203565b6001600160a01b0316635a31dd568973__$94c94c1f27eaba30857c7d0c37f90b5581$__6321aa0faf90916040518263ffffffff1660e01b8152600401615c8c91815260200190565b60206040518083038186803b158015615ca457600080fd5b505af4158015615cb8573d6000803e3d6000fd5b505050506040513d601f19601f82011682018060405250810190615cdc91906169e7565b6040516001600160e01b031960e084901b16815263ffffffff9190911660048201526001600160401b0385166024820152604401600060405180830381600087803b158015615d2a57600080fd5b505af1158015615d3e573d6000803e3d6000fd5b505050505b505b615d4f8187616ca6565b925050509550959350505050565b60405163217cf12b60e01b81526004810183905260009061602f9073__$94c94c1f27eaba30857c7d0c37f90b5581$__9063217cf12b9060240160206040518083038186803b158015615daf57600080fd5b505af4158015615dc3573d6000803e3d6000fd5b505050506040513d601f19601f82011682018060405250810190615de7919061664c565b866001600160a01b031663630fc1356040518163ffffffff1660e01b815260040160206040518083038186803b158015615e2057600080fd5b505afa158015615e34573d6000803e3d6000fd5b505050506040513d601f19601f82011682018060405250810190615e58919061664c565b615e63906001616b2b565b600c604051630b7879eb60e21b81526004810188905273__$94c94c1f27eaba30857c7d0c37f90b5581$__90632de1e7ac9060240160206040518083038186803b158015615eb057600080fd5b505af4158015615ec4573d6000803e3d6000fd5b505050506040513d601f19601f82011682018060405250810190615ee89190616423565b86615ef1614e83565b6040516323b4367960e11b815264ffffffffff8a1660048201526001600160a01b0391909116906347686cf29060240160206040518083038186803b158015615f3957600080fd5b505afa158015615f4d573d6000803e3d6000fd5b505050506040513d601f19601f82011682018060405250810190615f719190616423565b6040516321aa0faf60e01b8152600481018b905273__$94c94c1f27eaba30857c7d0c37f90b5581$__906321aa0faf9060240160206040518083038186803b158015615fbc57600080fd5b505af4158015615fd0573d6000803e3d6000fd5b505050506040513d601f19601f82011682018060405250810190615ff491906169e7565b60405163177bece160e21b8152600481018d905260009073__$94c94c1f27eaba30857c7d0c37f90b5581$__90635defb384906024016148e5565b95945050505050565b6001600160a01b038116811461604d57600080fd5b50565b801515811461604d57600080fd5b6001600160401b038116811461604d57600080fd5b64ffffffffff8116811461604d57600080fd5b600080600080600080600080610100898b0312156160a357600080fd5b88356160ae81616038565b97506020890135965060408901356160c581616050565b95506060890135945060808901356160dc8161605e565b935060a08901356160ec8161605e565b925060c08901356160fc81616073565b8092505060e089013590509295985092959890939650565b6000806040838503121561612757600080fd5b82359150602083013561613981616073565b809150509250929050565b60006020828403121561615657600080fd5b8135610eee81616073565b60006020828403121561617357600080fd5b5035919050565b60006020828403121561618c57600080fd5b8135610eee81616038565b600080600080608085870312156161ad57600080fd5b84356161b881616073565b935060208501356161c881616038565b925060408501356161d881616038565b915060608501356161e881616038565b939692955090935050565b6000806000806080858703121561620957600080fd5b843561621481616038565b935060208501359250604085013561622b81616073565b9396929550929360600135925050565b600080600080600060a0868803121561625357600080fd5b853561625e81616038565b94506020860135935060408601359250606086013561627c81616073565b949793965091946080013592915050565b61ffff8116811461604d57600080fd5b60ff8116811461604d57600080fd5b63ffffffff8116811461604d57600080fd5b60008060008060008060008060006101208a8c0312156162dd57600080fd5b89356162e88161628d565b985060208a01356162f88161628d565b975060408a01356163088161629d565b965060608a013561631881616073565b955060808a013561632881616073565b945060a08a013561633881616073565b935060c08a0135616348816162ac565b925060e08a0135616358816162ac565b91506101008a01356163698161628d565b809150509295985092959850929598565b60008060008060008060c0878903121561639357600080fd5b863561639e8161628d565b95506020870135945060408701356163b581616038565b93506060870135925060808701356163cc81616073565b8092505060a087013590509295509295509295565b6000806000606084860312156163f657600080fd5b833561640181616038565b925060208401359150604084013561641881616073565b809150509250925092565b60006020828403121561643557600080fd5b8151610eee81616073565b60006020828403121561645257600080fd5b8151610eee81616050565b60208082526026908201527f41432e6f6e6c794469726563744b65657065723a206e6f74206469726563742060408201526535b2b2b832b960d11b606082015260800190565b634e487b7160e01b600052604160045260246000fd5b60405160c081016001600160401b03811182821017156164db576164db6164a3565b60405290565b604051608081016001600160401b03811182821017156164db576164db6164a3565b604051601f8201601f191681016001600160401b038111828210171561652b5761652b6164a3565b604052919050565b805165ffffffffffff8116811461654957600080fd5b919050565b600060c0828403121561656057600080fd5b6165686164b9565b82516165738161629d565b8152602083015161658381616073565b602082015261659460408401616533565b60408201526165a560608401616533565b60608201526165b660808401616533565b608082015260a08301516165c98161629d565b60a08201529392505050565b6020808252601290820152711250481b9bdd08195cdd18589b1a5cda195960721b604082015260600190565b6020808252601490820152731b5a5cdcd959081c995d9a595dc81c195c9a5bd960621b604082015260600190565b60006020828403121561664157600080fd5b8151610eee81616038565b60006020828403121561665e57600080fd5b8151610eee8161628d565b60208082526036908201527f41432e6f776e65724f72446972656374426f6f6b65657065723a206e6569746860408201527532b91037bbb732b9103737b9103137b7b5b2b2b832b960511b606082015260800190565b600060c082840312156166d157600080fd5b6166d96164b9565b8251815260208301516166eb8161605e565b602082015260408301516166fe8161605e565b604082015261670f60608401616533565b606082015260808301516167228161629d565b608082015260a0928301519281019290925250919050565b60006020828403121561674c57600080fd5b8151610eee8161605e565b60006001600160401b03821115616770576167706164a3565b5060051b60200190565b6000602080838503121561678d57600080fd5b82516001600160401b038111156167a357600080fd5b8301601f810185136167b457600080fd5b80516167c76167c282616757565b616503565b81815260059190911b820183019083810190878311156167e657600080fd5b928401925b828410156149355783516167fe81616073565b825292840192908401906167eb565b60005b83811015616828578181015183820152602001616810565b83811115616837576000848401525b50505050565b6000815180845261685581602086016020860161680d565b601f01601f19169290920160200192915050565b60608152600061687c606083018661683d565b905083602083015261ffff83166040830152949350505050565b6000602082840312156168a857600080fd5b81516001600160401b03808211156168bf57600080fd5b818401915084601f8301126168d357600080fd5b8151818111156168e5576168e56164a3565b6168f8601f8201601f1916602001616503565b915080825285602082850101111561690f57600080fd5b61692081602084016020860161680d565b50949350505050565b634e487b7160e01b600052603260045260246000fd5b606081526000616952606083018661683d565b905083602083015264ffffffffff83166040830152949350505050565b606081526000616982606083018661683d565b905083602083015263ffffffff83166040830152949350505050565b602081526000610eee602083018461683d565b6000602082840312156169c357600080fd5b5051919050565b6000602082840312156169dc57600080fd5b8151610eee8161629d565b6000602082840312156169f957600080fd5b8151610eee816162ac565b60006020808385031215616a1757600080fd5b82516001600160401b03811115616a2d57600080fd5b8301601f81018513616a3e57600080fd5b8051616a4c6167c282616757565b81815260079190911b82018301908381019087831115616a6b57600080fd5b928401925b828410156149355760808489031215616a895760008081fd5b616a916164e1565b8451616a9c8161628d565b815284860151616aab81616073565b81870152604085810151616abe8161605e565b90820152606085810151616ad18161605e565b9082015282526080939093019290840190616a70565b634e487b7160e01b600052601160045260246000fd5b600082821015616b0f57616b0f616ae7565b500390565b600081616b2357616b23616ae7565b506000190190565b600061ffff808316818516808303821115616b4857616b48616ae7565b01949350505050565b60006020808385031215616b6457600080fd5b82516001600160401b03811115616b7a57600080fd5b8301601f81018513616b8b57600080fd5b8051616b996167c282616757565b81815260059190911b82018301908381019087831115616bb857600080fd5b928401925b8284101561493557835182529284019290840190616bbd565b6000600019821415616bea57616bea616ae7565b5060010190565b600060c08284031215616c0357600080fd5b616c0b6164b9565b825181526020830151616c1d8161605e565b60208201526040830151616c308161605e565b604082015260608301516165a58161605e565b60006001600160401b0380831681851681830481118215151615616c6957616c69616ae7565b02949350505050565b60006001600160401b0380841680616c9a57634e487b7160e01b600052601260045260246000fd5b92169190910492915050565b60006001600160401b0383811690831681811015616cc657616cc6616ae7565b03939250505056fea2646970667358221220bc9172bb011f402297234a6c68ace19247fc21f3445c21c52dfd0228b777be5364736f6c63430008080033",
    "sourcePath": "/Users/kaptain/github.com/hardhat/comboox/contracts/keepers/SHAKeeper.sol",
    "compiler": {
        "name": "solc",
        "version": "0.8.8+commit.dddeac2f"
    },
    "functionHashes": {
        "abandonRole(bytes32)": "3da9a600",
        "acceptAlongDeal(address,bytes32,uint40,bytes32)": "84c9e687",
        "acceptFirstRefusal(address,bytes32,uint40,bytes32)": "f899f4f5",
        "createDealSN(uint16,uint16,uint8,uint40,uint40,uint40,uint32,uint32,uint16)": "9bd26e60",
        "execAlongRight(address,bytes32,bool,bytes32,uint64,uint64,uint40,bytes32)": "1414603e",
        "execAntiDilution(address,bytes32,bytes32,uint40,bytes32)": "9622e8e6",
        "execFirstRefusal(uint16,uint256,address,bytes32,uint40,bytes32)": "9eea4b9f",
        "finalized()": "b3f05b97",
        "getBookeeper()": "ed211023",
        "getGeneralCounsel()": "103f6edd",
        "getOwner()": "893d20e8",
        "grantRole(bytes32,uint40)": "74099815",
        "hasRole(bytes32,uint40)": "79b2ec12",
        "init(uint40,address,address,address)": "821ee8ea",
        "lockContents()": "f045a769",
        "renounceRole(bytes32)": "8bb9c5bf",
        "revokeRole(bytes32,uint40)": "17c51fec",
        "setDirectKeeper(address)": "6be8496f",
        "setGeneralCounsel(uint40)": "3178a9a9",
        "setOwner(uint40)": "7ba706e8",
        "setRoleAdmin(bytes32,uint40)": "16dc517e",
        "takeGiftShares(address,bytes32,uint40)": "de40ddb9"
    },
    "gasEstimates": {
        "creation": {
            "codeDepositCost": "5581600",
            "executionCost": "6777",
            "totalCost": "5588377"
        },
        "external": {
            "abandonRole(bytes32)": "infinite",
            "acceptAlongDeal(address,bytes32,uint40,bytes32)": "infinite",
            "acceptFirstRefusal(address,bytes32,uint40,bytes32)": "infinite",
            "createDealSN(uint16,uint16,uint8,uint40,uint40,uint40,uint32,uint32,uint16)": "infinite",
            "execAlongRight(address,bytes32,bool,bytes32,uint64,uint64,uint40,bytes32)": "infinite",
            "execAntiDilution(address,bytes32,bytes32,uint40,bytes32)": "infinite",
            "execFirstRefusal(uint16,uint256,address,bytes32,uint40,bytes32)": "infinite",
            "finalized()": "2371",
            "getBookeeper()": "infinite",
            "getGeneralCounsel()": "infinite",
            "getOwner()": "infinite",
            "grantRole(bytes32,uint40)": "infinite",
            "hasRole(bytes32,uint40)": "infinite",
            "init(uint40,address,address,address)": "infinite",
            "lockContents()": "infinite",
            "renounceRole(bytes32)": "infinite",
            "revokeRole(bytes32,uint40)": "infinite",
            "setDirectKeeper(address)": "infinite",
            "setGeneralCounsel(uint40)": "infinite",
            "setOwner(uint40)": "infinite",
            "setRoleAdmin(bytes32,uint40)": "infinite",
            "takeGiftShares(address,bytes32,uint40)": "infinite"
        },
        "internal": {
            "_addAlongDeal(bool,address,address,bytes32,bytes32,uint64,uint64,uint40)": "infinite",
            "_createAlongDeal(address,bytes32,bytes32,uint64,uint64)": "infinite",
            "_createAlongDealSN(address,bytes32,bool,bytes32)": "infinite",
            "_createFRDeal(address,struct FRClaims.Claim memory)": "infinite",
            "_createGift(address,bytes32,bytes32,uint64,uint40)": "infinite",
            "_createGiftDealSN(address,bytes32,bytes32,uint40)": "infinite",
            "_createGiftDeals(address,bytes32,uint64,uint40[] memory,uint40,bytes32)": "infinite",
            "_lockDealSubject(address,bytes32,uint64)": "infinite"
        }
    }
}