{
    "contractName": "SHAKeeper",
    "abi": [
        {
            "anonymous": false,
            "inputs": [
                {
                    "indexed": false,
                    "internalType": "uint256",
                    "name": "owner",
                    "type": "uint256"
                },
                {
                    "indexed": false,
                    "internalType": "address",
                    "name": "directKeeper",
                    "type": "address"
                },
                {
                    "indexed": false,
                    "internalType": "address",
                    "name": "regCenter",
                    "type": "address"
                },
                {
                    "indexed": false,
                    "internalType": "address",
                    "name": "generalKeeper",
                    "type": "address"
                }
            ],
            "name": "Init",
            "type": "event"
        },
        {
            "anonymous": false,
            "inputs": [],
            "name": "LockContents",
            "type": "event"
        },
        {
            "anonymous": false,
            "inputs": [
                {
                    "indexed": false,
                    "internalType": "address",
                    "name": "keeper",
                    "type": "address"
                }
            ],
            "name": "SetDirectKeeper",
            "type": "event"
        },
        {
            "anonymous": false,
            "inputs": [
                {
                    "indexed": false,
                    "internalType": "uint256",
                    "name": "acct",
                    "type": "uint256"
                }
            ],
            "name": "SetGeneralCounsel",
            "type": "event"
        },
        {
            "anonymous": false,
            "inputs": [
                {
                    "indexed": false,
                    "internalType": "address",
                    "name": "gk",
                    "type": "address"
                }
            ],
            "name": "SetGeneralKeeper",
            "type": "event"
        },
        {
            "anonymous": false,
            "inputs": [
                {
                    "indexed": false,
                    "internalType": "uint256",
                    "name": "acct",
                    "type": "uint256"
                }
            ],
            "name": "SetOwner",
            "type": "event"
        },
        {
            "anonymous": false,
            "inputs": [
                {
                    "indexed": false,
                    "internalType": "address",
                    "name": "rc",
                    "type": "address"
                }
            ],
            "name": "SetRegCenter",
            "type": "event"
        },
        {
            "inputs": [
                {
                    "internalType": "bytes32",
                    "name": "role",
                    "type": "bytes32"
                }
            ],
            "name": "abandonRole",
            "outputs": [],
            "stateMutability": "nonpayable",
            "type": "function"
        },
        {
            "inputs": [
                {
                    "internalType": "address",
                    "name": "ia",
                    "type": "address"
                },
                {
                    "internalType": "uint256",
                    "name": "seqOfDeal",
                    "type": "uint256"
                },
                {
                    "internalType": "uint256",
                    "name": "seqOfShare",
                    "type": "uint256"
                },
                {
                    "internalType": "uint256",
                    "name": "caller",
                    "type": "uint256"
                },
                {
                    "internalType": "bytes32",
                    "name": "sigHash",
                    "type": "bytes32"
                }
            ],
            "name": "acceptAlongDeal",
            "outputs": [],
            "stateMutability": "nonpayable",
            "type": "function"
        },
        {
            "inputs": [
                {
                    "internalType": "address",
                    "name": "ia",
                    "type": "address"
                },
                {
                    "internalType": "uint256",
                    "name": "seqOfDeal",
                    "type": "uint256"
                },
                {
                    "internalType": "uint256",
                    "name": "caller",
                    "type": "uint256"
                },
                {
                    "internalType": "bytes32",
                    "name": "sigHash",
                    "type": "bytes32"
                }
            ],
            "name": "acceptFirstRefusal",
            "outputs": [],
            "stateMutability": "nonpayable",
            "type": "function"
        },
        {
            "inputs": [
                {
                    "internalType": "address",
                    "name": "ia",
                    "type": "address"
                },
                {
                    "internalType": "uint256",
                    "name": "seqOfDeal",
                    "type": "uint256"
                },
                {
                    "internalType": "bool",
                    "name": "dragAlong",
                    "type": "bool"
                },
                {
                    "internalType": "uint256",
                    "name": "seqOfShare",
                    "type": "uint256"
                },
                {
                    "internalType": "uint64",
                    "name": "paid",
                    "type": "uint64"
                },
                {
                    "internalType": "uint64",
                    "name": "par",
                    "type": "uint64"
                },
                {
                    "internalType": "uint256",
                    "name": "caller",
                    "type": "uint256"
                },
                {
                    "internalType": "bytes32",
                    "name": "sigHash",
                    "type": "bytes32"
                }
            ],
            "name": "execAlongRight",
            "outputs": [],
            "stateMutability": "nonpayable",
            "type": "function"
        },
        {
            "inputs": [
                {
                    "internalType": "address",
                    "name": "ia",
                    "type": "address"
                },
                {
                    "internalType": "uint256",
                    "name": "seqOfDeal",
                    "type": "uint256"
                },
                {
                    "internalType": "uint256",
                    "name": "seqOfShare",
                    "type": "uint256"
                },
                {
                    "internalType": "uint256",
                    "name": "caller",
                    "type": "uint256"
                },
                {
                    "internalType": "bytes32",
                    "name": "sigHash",
                    "type": "bytes32"
                }
            ],
            "name": "execAntiDilution",
            "outputs": [],
            "stateMutability": "nonpayable",
            "type": "function"
        },
        {
            "inputs": [
                {
                    "internalType": "uint256",
                    "name": "seqOfFRRule",
                    "type": "uint256"
                },
                {
                    "internalType": "uint256",
                    "name": "seqOfRightholder",
                    "type": "uint256"
                },
                {
                    "internalType": "address",
                    "name": "ia",
                    "type": "address"
                },
                {
                    "internalType": "uint256",
                    "name": "seqOfDeal",
                    "type": "uint256"
                },
                {
                    "internalType": "uint256",
                    "name": "caller",
                    "type": "uint256"
                },
                {
                    "internalType": "bytes32",
                    "name": "sigHash",
                    "type": "bytes32"
                }
            ],
            "name": "execFirstRefusal",
            "outputs": [],
            "stateMutability": "nonpayable",
            "type": "function"
        },
        {
            "inputs": [],
            "name": "finalized",
            "outputs": [
                {
                    "internalType": "bool",
                    "name": "",
                    "type": "bool"
                }
            ],
            "stateMutability": "view",
            "type": "function"
        },
        {
            "inputs": [],
            "name": "getBookeeper",
            "outputs": [
                {
                    "internalType": "address",
                    "name": "",
                    "type": "address"
                }
            ],
            "stateMutability": "view",
            "type": "function"
        },
        {
            "inputs": [],
            "name": "getGeneralCounsel",
            "outputs": [
                {
                    "internalType": "uint40",
                    "name": "",
                    "type": "uint40"
                }
            ],
            "stateMutability": "view",
            "type": "function"
        },
        {
            "inputs": [],
            "name": "getOwner",
            "outputs": [
                {
                    "internalType": "uint40",
                    "name": "",
                    "type": "uint40"
                }
            ],
            "stateMutability": "view",
            "type": "function"
        },
        {
            "inputs": [
                {
                    "internalType": "bytes32",
                    "name": "role",
                    "type": "bytes32"
                },
                {
                    "internalType": "uint256",
                    "name": "acct",
                    "type": "uint256"
                }
            ],
            "name": "grantRole",
            "outputs": [],
            "stateMutability": "nonpayable",
            "type": "function"
        },
        {
            "inputs": [
                {
                    "internalType": "bytes32",
                    "name": "role",
                    "type": "bytes32"
                },
                {
                    "internalType": "uint256",
                    "name": "acct",
                    "type": "uint256"
                }
            ],
            "name": "hasRole",
            "outputs": [
                {
                    "internalType": "bool",
                    "name": "",
                    "type": "bool"
                }
            ],
            "stateMutability": "view",
            "type": "function"
        },
        {
            "inputs": [
                {
                    "internalType": "uint256",
                    "name": "owner",
                    "type": "uint256"
                },
                {
                    "internalType": "address",
                    "name": "directKeeper",
                    "type": "address"
                },
                {
                    "internalType": "address",
                    "name": "regCenter",
                    "type": "address"
                },
                {
                    "internalType": "address",
                    "name": "generalKeeper",
                    "type": "address"
                }
            ],
            "name": "init",
            "outputs": [],
            "stateMutability": "nonpayable",
            "type": "function"
        },
        {
            "inputs": [],
            "name": "lockContents",
            "outputs": [],
            "stateMutability": "nonpayable",
            "type": "function"
        },
        {
            "inputs": [
                {
                    "internalType": "bytes32",
                    "name": "role",
                    "type": "bytes32"
                }
            ],
            "name": "renounceRole",
            "outputs": [],
            "stateMutability": "nonpayable",
            "type": "function"
        },
        {
            "inputs": [
                {
                    "internalType": "bytes32",
                    "name": "role",
                    "type": "bytes32"
                },
                {
                    "internalType": "uint256",
                    "name": "acct",
                    "type": "uint256"
                }
            ],
            "name": "revokeRole",
            "outputs": [],
            "stateMutability": "nonpayable",
            "type": "function"
        },
        {
            "inputs": [
                {
                    "internalType": "address",
                    "name": "keeper",
                    "type": "address"
                }
            ],
            "name": "setDirectKeeper",
            "outputs": [],
            "stateMutability": "nonpayable",
            "type": "function"
        },
        {
            "inputs": [
                {
                    "internalType": "uint256",
                    "name": "acct",
                    "type": "uint256"
                }
            ],
            "name": "setGeneralCounsel",
            "outputs": [],
            "stateMutability": "nonpayable",
            "type": "function"
        },
        {
            "inputs": [
                {
                    "internalType": "uint256",
                    "name": "acct",
                    "type": "uint256"
                }
            ],
            "name": "setOwner",
            "outputs": [],
            "stateMutability": "nonpayable",
            "type": "function"
        },
        {
            "inputs": [
                {
                    "internalType": "bytes32",
                    "name": "role",
                    "type": "bytes32"
                },
                {
                    "internalType": "uint256",
                    "name": "acct",
                    "type": "uint256"
                }
            ],
            "name": "setRoleAdmin",
            "outputs": [],
            "stateMutability": "nonpayable",
            "type": "function"
        },
        {
            "inputs": [
                {
                    "internalType": "address",
                    "name": "ia",
                    "type": "address"
                },
                {
                    "internalType": "uint256",
                    "name": "seqOfDeal",
                    "type": "uint256"
                },
                {
                    "internalType": "uint40",
                    "name": "caller",
                    "type": "uint40"
                }
            ],
            "name": "takeGiftShares",
            "outputs": [],
            "stateMutability": "nonpayable",
            "type": "function"
        }
    ],
    "bytecode": "608060405234801561001057600080fd5b506151d1806100206000396000f3fe608060405234801561001057600080fd5b50600436106101375760003560e01c80638041494e116100b8578063c65511d81161007c578063c65511d814610271578063dc890da914610284578063ed21102314610297578063f045a769146102b7578063f51147e3146102bf578063f61bf284146102d257600080fd5b80638041494e1461021c578063893d20e81461022f5780638bb9c5bf146102375780639c436a7d1461024a578063b3f05b971461025d57600080fd5b80634a14beb1116100ff5780634a14beb1146101ad5780635171ebd4146101c05780636be8496f146101d35780636c69e969146101e65780637e063c5a146101f957600080fd5b8063103f6edd1461013c57806319d61ad91461015f5780631b6ea9f914610174578063325508d5146101875780633da9a6001461019a575b600080fd5b6101446102e5565b60405164ffffffffff90911681526020015b60405180910390f35b61017261016d36600461417a565b610371565b005b61017261018236600461417a565b610405565b6101726101953660046141b4565b61042a565b6101726101a83660046141f8565b6109d8565b6101726101bb3660046141f8565b610aea565b6101726101ce36600461417a565b610cda565b6101726101e1366004614211565b610cff565b6101726101f4366004614248565b610db1565b61020c61020736600461417a565b611163565b6040519015158152602001610156565b61017261022a3660046141f8565b611200565b6101446113e5565b6101726102453660046141f8565b611420565b6101726102583660046142ad565b611479565b60028054600160f01b900460ff161461020c565b61017261027f366004614330565b611872565b610172610292366004614383565b611eba565b61029f611f9d565b6040516001600160a01b039091168152602001610156565b610172612023565b6101726102cd3660046141b4565b612241565b6101726102e03660046143d6565b6127a7565b60405163e8c0cc1d60e01b81526002600482015260009073__$364aad554dc80380f414546becdd2c1584$__9063e8c0cc1d906024015b60206040518083038186803b15801561033457600080fd5b505af4158015610348573d6000803e3d6000fd5b505050506040513d601f19601f8201168201806040525081019061036c9190614421565b905090565b73__$364aad554dc80380f414546becdd2c1584$__6382daafaa600284610396612c82565b6040516001600160e01b031960e086901b1681526004810193909352602483019190915264ffffffffff166044820152606481018490526084015b60006040518083038186803b1580156103e957600080fd5b505af41580156103fd573d6000803e3d6000fd5b505050505050565b73__$364aad554dc80380f414546becdd2c1584$__636320d75e600284610396612c82565b604051633b11adbf60e21b81526002600482015233602482015273__$364aad554dc80380f414546becdd2c1584$__9063ec46b6fc9060440160206040518083038186803b15801561047b57600080fd5b505af415801561048f573d6000803e3d6000fd5b505050506040513d601f19601f820116820180604052508101906104b39190614449565b6104d85760405162461bcd60e51b81526004016104cf90614466565b60405180910390fd5b8460036104e3612cdc565b60405163de154c2760e01b81526001600160a01b038481166004830152919091169063de154c279060240160c06040518083038186803b15801561052657600080fd5b505afa15801561053a573d6000803e3d6000fd5b505050506040513d601f19601f8201168201806040525081019061055e9190614603565b60a0015160ff16146105a75760405162461bcd60e51b81526020600482015260126024820152711250481b9bdd08195cdd18589b1a5cda195960721b60448201526064016104cf565b85426105b1612cdc565b60405163de154c2760e01b81526001600160a01b038481166004830152919091169063de154c279060240160c06040518083038186803b1580156105f457600080fd5b505afa158015610608573d6000803e3d6000fd5b505050506040513d601f19601f8201168201806040525081019061062c9190614603565b6060015165ffffffffffff16116106555760405162461bcd60e51b81526004016104cf906146a3565b600061065f612d3f565b6001600160a01b031663cfb5a5f8876040518263ffffffff1660e01b815260040161068c91815260200190565b6101806040518083038186803b1580156106a557600080fd5b505afa1580156106b9573d6000803e3d6000fd5b505050506040513d601f19601f820116820180604052508101906106dd9190614781565b805160a0015190915064ffffffffff1685146107475760405162461bcd60e51b815260206004820152602360248201527f5348414b2e4541443a2063616c6c6572206973206e6f74207368617265686f6c6044820152623232b960e91b60648201526084016104cf565b6040516332c848f960e21b815260016004820152602481018690526001600160a01b0389169063cb2123e49060440160206040518083038186803b15801561078e57600080fd5b505afa1580156107a2573d6000803e3d6000fd5b505050506040513d601f19601f820116820180604052508101906107c69190614449565b1561081d5760405162461bcd60e51b815260206004820152602160248201527f5348414b2e4541443a2063616c6c657220697320616e20496e69745369676e656044820152603960f91b60648201526084016104cf565b6000610827612d5a565b60405163346ba94160e01b8152600260048201526001600160a01b03919091169063346ba9419060240160206040518083038186803b15801561086957600080fd5b505afa15801561087d573d6000803e3d6000fd5b505050506040513d601f19601f820116820180604052508101906108a19190614858565b604051630cfc4a8360e31b81526001600160a01b038b81166004830152602482018b9052604482018a90529192506000918316906367e254189060640160206040518083038186803b1580156108f657600080fd5b505afa15801561090a573d6000803e3d6000fd5b505050506040513d601f19601f8201168201806040525081019061092e9190614875565b8351604090810151905163a31da53b60e01b815261ffff90911660048201529091506000906001600160a01b0384169063a31da53b9060240160006040518083038186803b15801561097f57600080fd5b505afa158015610993573d6000803e3d6000fd5b505050506040513d6000823e601f3d908101601f191682016040526109bb91908101906148b5565b90506109cb8b8b84848c8c612d9c565b5050505050505050505050565b604051633b11adbf60e21b81526002600482015233602482015273__$364aad554dc80380f414546becdd2c1584$__9063ec46b6fc9060440160206040518083038186803b158015610a2957600080fd5b505af4158015610a3d573d6000803e3d6000fd5b505050506040513d601f19601f82011682018060405250810190610a619190614449565b610a7d5760405162461bcd60e51b81526004016104cf90614466565b60405163cc99e11b60e01b8152600260048201526024810182905273__$364aad554dc80380f414546becdd2c1584$__9063cc99e11b9060440160006040518083038186803b158015610acf57600080fd5b505af4158015610ae3573d6000803e3d6000fd5b5050505050565b604051633b11adbf60e21b81526002600482015233602482015273__$364aad554dc80380f414546becdd2c1584$__9063ec46b6fc9060440160206040518083038186803b158015610b3b57600080fd5b505af4158015610b4f573d6000803e3d6000fd5b505050506040513d601f19601f82011682018060405250810190610b739190614449565b80610c18575073__$364aad554dc80380f414546becdd2c1584$__63fe2710866002610b9d612c82565b6040516001600160e01b031960e085901b168152600481019290925264ffffffffff16602482015260440160206040518083038186803b158015610be057600080fd5b505af4158015610bf4573d6000803e3d6000fd5b505050506040513d601f19601f82011682018060405250810190610c189190614449565b610c345760405162461bcd60e51b81526004016104cf9061494a565b604051632725ebef60e21b8152600260048201526024810182905273__$364aad554dc80380f414546becdd2c1584$__90639c97afbc9060440160006040518083038186803b158015610c8657600080fd5b505af4158015610c9a573d6000803e3d6000fd5b505050507ff2735f34b69be1e6342dea95f9162f84d0db925fab655ca9f1f312ac8cbfc99d81604051610ccf91815260200190565b60405180910390a150565b73__$364aad554dc80380f414546becdd2c1584$__63ee98b313600284610396612c82565b604051630f07232560e01b8152600260048201523360248201526001600160a01b038216604482015273__$364aad554dc80380f414546becdd2c1584$__90630f0723259060640160006040518083038186803b158015610d5f57600080fd5b505af4158015610d73573d6000803e3d6000fd5b50506040516001600160a01b03841681527fe435cbeab64e4eae6497b9d8289704bd709d624a80704ef3ca9af777534bc6ec92506020019050610ccf565b604051633b11adbf60e21b81526002600482015233602482015273__$364aad554dc80380f414546becdd2c1584$__9063ec46b6fc9060440160206040518083038186803b158015610e0257600080fd5b505af4158015610e16573d6000803e3d6000fd5b505050506040513d601f19601f82011682018060405250810190610e3a9190614449565b610e565760405162461bcd60e51b81526004016104cf90614466565b6040516320bf56eb60e21b8152600481018390526000906001600160a01b038516906382fd5bac906024016101e06040518083038186803b158015610e9a57600080fd5b505afa158015610eae573d6000803e3d6000fd5b505050506040513d601f19601f82011682018060405250810190610ed29190614a57565b905080602001516000015164ffffffffff168264ffffffffff1614610f2f5760405162461bcd60e51b815260206004820152601360248201527231b0b63632b91034b9903737ba10313abcb2b960691b60448201526064016104cf565b60405163122ec47f60e31b8152600481018490526001600160a01b0385169063917623f890602401602060405180830381600087803b158015610f7157600080fd5b505af1158015610f85573d6000803e3d6000fd5b505050506040513d601f19601f82011682018060405250810190610fa99190614449565b1561101b57610fb6612cdc565b60405163108fac0b60e11b81526001600160a01b03868116600483015260066024830152919091169063211f581690604401600060405180830381600087803b15801561100257600080fd5b505af1158015611016573d6000803e3d6000fd5b505050505b611023612d3f565b81516080015160208301516040808201516060909201519051631ba9b20960e21b815263ffffffff90931660048401526001600160401b0391821660248401521660448201526001600160a01b039190911690636ea6c82490606401600060405180830381600087803b15801561109957600080fd5b505af11580156110ad573d6000803e3d6000fd5b505050506110b9612d3f565b815160800151602083015160408082015160608301519251915163f0d6c10960e01b815263ffffffff90941660048501526001600160401b039081166024850152909116604483015264ffffffffff166064820152600060848201526001600160a01b03919091169063f0d6c1099060a401600060405180830381600087803b15801561114557600080fd5b505af1158015611159573d6000803e3d6000fd5b5050505050505050565b604051632a3be56b60e21b815260026004820152602481018390526044810182905260009073__$364aad554dc80380f414546becdd2c1584$__9063a8ef95ac9060640160206040518083038186803b1580156111bf57600080fd5b505af41580156111d3573d6000803e3d6000fd5b505050506040513d601f19601f820116820180604052508101906111f79190614449565b90505b92915050565b604051633b11adbf60e21b81526002600482015233602482015273__$364aad554dc80380f414546becdd2c1584$__9063ec46b6fc9060440160206040518083038186803b15801561125157600080fd5b505af4158015611265573d6000803e3d6000fd5b505050506040513d601f19601f820116820180604052508101906112899190614449565b8061132e575073__$364aad554dc80380f414546becdd2c1584$__63fe27108660026112b3612c82565b6040516001600160e01b031960e085901b168152600481019290925264ffffffffff16602482015260440160206040518083038186803b1580156112f657600080fd5b505af415801561130a573d6000803e3d6000fd5b505050506040513d601f19601f8201168201806040525081019061132e9190614449565b61134a5760405162461bcd60e51b81526004016104cf9061494a565b60405163b6e38a2960e01b8152600260048201526024810182905273__$364aad554dc80380f414546becdd2c1584$__9063b6e38a299060440160006040518083038186803b15801561139c57600080fd5b505af41580156113b0573d6000803e3d6000fd5b505050507f8b6f40f36b4ae8cc5f55e895036457c43da4ab1f80f58c46f5ff0d72a650033b81604051610ccf91815260200190565b60405163987ad15360e01b81526002600482015260009073__$364aad554dc80380f414546becdd2c1584$__9063987ad1539060240161031c565b600061142a612c82565b60405163cc0d511b60e01b8152600260048201526024810184905264ffffffffff8216604482015290915073__$364aad554dc80380f414546becdd2c1584$__9063cc0d511b906064016103d1565b604051633b11adbf60e21b81526002600482015233602482015273__$364aad554dc80380f414546becdd2c1584$__9063ec46b6fc9060440160206040518083038186803b1580156114ca57600080fd5b505af41580156114de573d6000803e3d6000fd5b505050506040513d601f19601f820116820180604052508101906115029190614449565b61151e5760405162461bcd60e51b81526004016104cf90614466565b8742611528612cdc565b60405163de154c2760e01b81526001600160a01b038481166004830152919091169063de154c279060240160c06040518083038186803b15801561156b57600080fd5b505afa15801561157f573d6000803e3d6000fd5b505050506040513d601f19601f820116820180604052508101906115a39190614603565b6060015165ffffffffffff16116115cc5760405162461bcd60e51b81526004016104cf906146a3565b6040516320bf56eb60e21b8152600481018990526000906001600160a01b038b16906382fd5bac906024016101e06040518083038186803b15801561161057600080fd5b505afa158015611624573d6000803e3d6000fd5b505050506040513d601f19601f820116820180604052508101906116489190614a57565b90506000611654612d3f565b6001600160a01b031663cfb5a5f8896040518263ffffffff1660e01b815260040161168191815260200190565b6101806040518083038186803b15801561169a57600080fd5b505afa1580156116ae573d6000803e3d6000fd5b505050506040513d601f19601f820116820180604052508101906116d29190614781565b60208301516080015190915060ff16600414156117315760405162461bcd60e51b815260206004820152601960248201527f5348414b2e4541523a206465616c207465726d696e617465640000000000000060448201526064016104cf565b611739612cdc565b6040516332277b1160e01b81526001600160a01b038d8116600483015291909116906332277b1190602401602060405180830381600087803b15801561177e57600080fd5b505af1158015611792573d6000803e3d6000fd5b505050506040513d601f19601f820116820180604052508101906117b69190614449565b506117c4898c848489612fd3565b6117cc612cdc565b604051631b3dc1eb60e31b81526001600160a01b038d811660048301528b15156024830152604482018d9052606482018b90526001600160401b03808b166084840152891660a483015260c4820188905260e48201879052919091169063d9ee0f589061010401600060405180830381600087803b15801561184d57600080fd5b505af1158015611861573d6000803e3d6000fd5b505050505050505050505050505050565b604051633b11adbf60e21b81526002600482015233602482015273__$364aad554dc80380f414546becdd2c1584$__9063ec46b6fc9060440160206040518083038186803b1580156118c357600080fd5b505af41580156118d7573d6000803e3d6000fd5b505050506040513d601f19601f820116820180604052508101906118fb9190614449565b6119175760405162461bcd60e51b81526004016104cf90614466565b8342611921612cdc565b60405163de154c2760e01b81526001600160a01b038481166004830152919091169063de154c279060240160c06040518083038186803b15801561196457600080fd5b505afa158015611978573d6000803e3d6000fd5b505050506040513d601f19601f8201168201806040525081019061199c9190614603565b6060015165ffffffffffff16116119c55760405162461bcd60e51b81526004016104cf906146a3565b6040516351b171a360e01b815260016004820152602481018490526001600160a01b038616906351b171a39060440160206040518083038186803b158015611a0c57600080fd5b505afa158015611a20573d6000803e3d6000fd5b505050506040513d601f19601f82011682018060405250810190611a449190614449565b15611a915760405162461bcd60e51b815260206004820152601d60248201527f5348414b2e4546523a206672436c61696d65722069732073656c6c657200000060448201526064016104cf565b60405163cdf4b38760e01b8152600481018590526000906001600160a01b0387169063cdf4b387906024016101206040518083038186803b158015611ad557600080fd5b505afa158015611ae9573d6000803e3d6000fd5b505050506040513d601f19601f82011682018060405250810190611b0d9190614b16565b90506000611b19612d5a565b6001600160a01b031663484620378a6040518263ffffffff1660e01b8152600401611b4691815260200190565b60206040518083038186803b158015611b5e57600080fd5b505afa158015611b72573d6000803e3d6000fd5b505050506040513d601f19601f82011682018060405250810190611b969190614b33565b6040516375d6f2ff60e11b8152600481019190915273__$9d2c69e94fee47b9774dc8db4aa5c0bbec$__9063ebade5fe906024016101806040518083038186803b158015611be357600080fd5b505af4158015611bf7573d6000803e3d6000fd5b505050506040513d601f19601f82011682018060405250810190611c1b9190614bc2565b9050816000015160ff16816060015160ff1614611c8c5760405162461bcd60e51b815260206004820152602960248201527f5348414b2e4546523a2072756c6520616e64206465616c20617265206e6f742060448201526873616d65207479706560b81b60648201526084016104cf565b80608001518015611d1d5750611ca06136eb565b6001600160a01b031663d50c7377866040518263ffffffff1660e01b8152600401611ccd91815260200190565b60206040518083038186803b158015611ce557600080fd5b505afa158015611cf9573d6000803e3d6000fd5b505050506040513d601f19601f82011682018060405250810190611d1d9190614449565b80611d485750848160e001518960058110611d3a57611d3a614c6b565b602002015164ffffffffff16145b611d945760405162461bcd60e51b815260206004820181905260248201527f5348414b2e4546523a2063616c6c6572204e4f54207269676874686f6c64657260448201526064016104cf565b611d9c612cdc565b60405163fb255fcd60e01b81526001600160a01b038981166004830152602482018990526044820188905260648201879052919091169063fb255fcd90608401602060405180830381600087803b158015611df657600080fd5b505af1158015611e0a573d6000803e3d6000fd5b505050506040513d601f19601f82011682018060405250810190611e2e9190614449565b15611eaf57604051637b019deb60e01b8152600481018790526001600160a01b03881690637b019deb90602401602060405180830381600087803b158015611e7557600080fd5b505af1158015611e89573d6000803e3d6000fd5b505050506040513d601f19601f82011682018060405250810190611ead9190614449565b505b505050505050505050565b611ec382613706565b611ecc816137b5565b604051636cdd0edf60e11b815260026004820152602481018590526001600160a01b038416604482015273__$364aad554dc80380f414546becdd2c1584$__9063d9ba1dbe9060640160006040518083038186803b158015611f2d57600080fd5b505af4158015611f41573d6000803e3d6000fd5b5050604080518781526001600160a01b038781166020830152868116828401528516606082015290517f3abb2418c66fe32ba9c883030a75ce583971d9af9192b9b74e44e67c5e6c8c1f9350908190036080019150a150505050565b604051633c3e56c160e11b81526002600482015260009073__$364aad554dc80380f414546becdd2c1584$__9063787cad829060240160206040518083038186803b158015611feb57600080fd5b505af4158015611fff573d6000803e3d6000fd5b505050506040513d601f19601f8201168201806040525081019061036c9190614858565b604051633b11adbf60e21b81526002600482015233602482015273__$364aad554dc80380f414546becdd2c1584$__9063ec46b6fc9060440160206040518083038186803b15801561207457600080fd5b505af4158015612088573d6000803e3d6000fd5b505050506040513d601f19601f820116820180604052508101906120ac9190614449565b6120c85760405162461bcd60e51b81526004016104cf90614466565b600254600160f01b900460ff166001146121245760405162461bcd60e51b815260206004820181905260248201527f41432e6f6e6c7950656e64696e673a20446f632069732066696e616c697a656460448201526064016104cf565b60405163cc99e11b60e01b815260026004820152684174746f726e65797360b81b602482015273__$364aad554dc80380f414546becdd2c1584$__9063cc99e11b9060440160006040518083038186803b15801561218157600080fd5b505af4158015612195573d6000803e3d6000fd5b5050604051632725ebef60e21b8152600260048201526000602482015273__$364aad554dc80380f414546becdd2c1584$__9250639c97afbc915060440160006040518083038186803b1580156121eb57600080fd5b505af41580156121ff573d6000803e3d6000fd5b50506002805460ff60f01b1916600160f11b17905550506040517f35012b512309c322acf68632cd6cb702ff0e1d776fbe9394e38ffc13b434fe7590600090a1565b604051633b11adbf60e21b81526002600482015233602482015273__$364aad554dc80380f414546becdd2c1584$__9063ec46b6fc9060440160206040518083038186803b15801561229257600080fd5b505af41580156122a6573d6000803e3d6000fd5b505050506040513d601f19601f820116820180604052508101906122ca9190614449565b6122e65760405162461bcd60e51b81526004016104cf90614466565b84426122f0612cdc565b60405163de154c2760e01b81526001600160a01b038481166004830152919091169063de154c279060240160c06040518083038186803b15801561233357600080fd5b505afa158015612347573d6000803e3d6000fd5b505050506040513d601f19601f8201168201806040525081019061236b9190614603565b6060015165ffffffffffff1611156123955760405162461bcd60e51b81526004016104cf90614c81565b854261239f612cdc565b60405163de154c2760e01b81526001600160a01b038481166004830152919091169063de154c279060240160c06040518083038186803b1580156123e257600080fd5b505afa1580156123f6573d6000803e3d6000fd5b505050506040513d601f19601f8201168201806040525081019061241a9190614603565b6080015165ffffffffffff1610156124445760405162461bcd60e51b81526004016104cf90614c81565b6040516320bf56eb60e21b8152600481018790526000906001600160a01b038916906382fd5bac906024016101e06040518083038186803b15801561248857600080fd5b505afa15801561249c573d6000803e3d6000fd5b505050506040513d601f19601f820116820180604052508101906124c09190614a57565b60208101515190915064ffffffffff1685146125145760405162461bcd60e51b815260206004820152601360248201527229a420a59720a0a21d103737ba10313abcb2b960691b60448201526064016104cf565b60208101516080015160ff16600414611159576000612531612cdc565b604051630fc89eeb60e01b81526001600160a01b038b81166004830152602482018b9052604482018a90529190911690630fc89eeb9060640160e06040518083038186803b15801561258257600080fd5b505afa158015612596573d6000803e3d6000fd5b505050506040513d601f19601f820116820180604052508101906125ba9190614cb8565b905060006125c6612d3f565b6001600160a01b031663cfb5a5f8896040518263ffffffff1660e01b81526004016125f391815260200190565b6101806040518083038186803b15801561260c57600080fd5b505afa158015612620573d6000803e3d6000fd5b505050506040513d601f19601f820116820180604052508101906126449190614781565b905060006126548b84868561386c565b608084015160a085015160c0860151604051633ac69e7d60e21b81526004810185905264ffffffffff909316602484015265ffffffffffff909116604483015260648201529091506001600160a01b038c169063eb1a79f490608401602060405180830381600087803b1580156126ca57600080fd5b505af11580156126de573d6000803e3d6000fd5b505050506040513d601f19601f820116820180604052508101906127029190614449565b50604051633ac69e7d60e21b8152600481018290526024810189905265ffffffffffff42166044820152606481018890526001600160a01b038c169063eb1a79f490608401602060405180830381600087803b15801561276157600080fd5b505af1158015612775573d6000803e3d6000fd5b505050506040513d601f19601f820116820180604052508101906127999190614449565b505050505050505050505050565b604051633b11adbf60e21b81526002600482015233602482015273__$364aad554dc80380f414546becdd2c1584$__9063ec46b6fc9060440160206040518083038186803b1580156127f857600080fd5b505af415801561280c573d6000803e3d6000fd5b505050506040513d601f19601f820116820180604052508101906128309190614449565b61284c5760405162461bcd60e51b81526004016104cf90614466565b8342612856612cdc565b60405163de154c2760e01b81526001600160a01b038481166004830152919091169063de154c279060240160c06040518083038186803b15801561289957600080fd5b505afa1580156128ad573d6000803e3d6000fd5b505050506040513d601f19601f820116820180604052508101906128d19190614603565b6060015165ffffffffffff1611156128fb5760405162461bcd60e51b81526004016104cf90614c81565b6040516320bf56eb60e21b8152600481018590526000906001600160a01b038716906382fd5bac906024016101e06040518083038186803b15801561293f57600080fd5b505afa158015612953573d6000803e3d6000fd5b505050506040513d601f19601f820116820180604052508101906129779190614a57565b80515190915060ff1660011415612ae5576129906136eb565b6001600160a01b031663984199286040518163ffffffff1660e01b815260040160206040518083038186803b1580156129c857600080fd5b505afa1580156129dc573d6000803e3d6000fd5b505050506040513d601f19601f82011682018060405250810190612a009190614421565b64ffffffffff16612a0f6136eb565b6001600160a01b031663605c5ec6866040518263ffffffff1660e01b8152600401612a3c91815260200190565b60206040518083038186803b158015612a5457600080fd5b505afa158015612a68573d6000803e3d6000fd5b505050506040513d601f19601f82011682018060405250810190612a8c9190614421565b64ffffffffff1614612ae05760405162461bcd60e51b815260206004820152601860248201527f5348414b2e4146523a206e6f7420636f6e74726f6c6c6572000000000000000060448201526064016104cf565b612b40565b805160a0015164ffffffffff168414612b405760405162461bcd60e51b815260206004820152601a60248201527f5348414b2e4146523a206e6f742073656c6c65724f664465616c00000000000060448201526064016104cf565b6000612b4a612cdc565b60405163a0b7b8a760e01b81526001600160a01b03898116600483015260248201899052919091169063a0b7b8a790604401600060405180830381600087803b158015612b9657600080fd5b505af1158015612baa573d6000803e3d6000fd5b505050506040513d6000823e601f3d908101601f19168201604052612bd29190810190614d69565b80519091505b8015612c1e57612c0c888484612bef600186614e83565b81518110612bff57612bff614c6b565b6020026020010151613b4a565b80612c1681614e9a565b915050612bd8565b604051630cac562d60e11b81526000600482015260248101879052604481018690526001600160a01b03891690631958ac5a90606401600060405180830381600087803b158015612c6e57600080fd5b505af1158015612799573d6000803e3d6000fd5b60008054604051634de835e760e11b81523360048201526001600160a01b0390911690639bd06bce90602401602060405180830381600087803b158015612cc857600080fd5b505af1158015610348573d6000803e3d6000fd5b6001546000906001600160a01b031663e0ff5b8b825b6040516001600160e01b031960e084901b16815260ff909116600482015260240160206040518083038186803b158015612d2b57600080fd5b505afa158015611fff573d6000803e3d6000fd5b6001546000906001600160a01b031663e0ff5b8b6006612cf2565b6000612d64613e16565b6001600160a01b0316632f5f3b3c6040518163ffffffff1660e01b815260040160206040518083038186803b158015612d2b57600080fd5b60005b8351811015612f71576000612db26136eb565b6001600160a01b031663e80bf906868481518110612dd257612dd2614c6b565b60200260200101516040518263ffffffff1660e01b8152600401612df891815260200190565b60006040518083038186803b158015612e1057600080fd5b505afa158015612e24573d6000803e3d6000fd5b505050506040513d6000823e601f3d908101601f19168201604052612e4c91908101906148b5565b905060005b8151811015612f4957600080612e828b8b868681518110612e7457612e74614c6b565b60200260200101518c613e31565b604051633ac69e7d60e21b815260048101839052602481018a905265ffffffffffff421660448201526064810189905291935091506001600160a01b038c169063eb1a79f490608401602060405180830381600087803b158015612ee557600080fd5b505af1158015612ef9573d6000803e3d6000fd5b505050506040513d601f19601f82011682018060405250810190612f1d9190614449565b506001600160401b038116612f33575050612f49565b9750819050612f4181614eb1565b915050612e51565b506001600160401b038616612f5e5750612f71565b5080612f6981614eb1565b915050612d9f565b506001600160401b038416156103fd5760405162461bcd60e51b815260206004820152602160248201527f6f626c69676f72732068617665206e6f7420656e6f7567682070617256616c756044820152606560f81b60648201526084016104cf565b612fdb612cdc565b604051638f6b658760e01b81526001600160a01b038681166004830152602482018490529190911690638f6b658790604401602060405180830381600087803b15801561302757600080fd5b505af115801561303b573d6000803e3d6000fd5b505050506040513d601f19601f8201168201806040525081019061305f9190614449565b156130ac5760405162461bcd60e51b815260206004820152601d60248201527f5348414b2e4341443a2063616c6c6572206973206672436c61696d657200000060448201526064016104cf565b6130b4612cdc565b825160a00151604051638f6b658760e01b81526001600160a01b03878116600483015264ffffffffff9092166024820152911690638f6b658790604401602060405180830381600087803b15801561310b57600080fd5b505af115801561311f573d6000803e3d6000fd5b505050506040513d601f19601f820116820180604052508101906131439190614449565b1561319b5760405162461bcd60e51b815260206004820152602260248201527f5348414b2e4341443a207368617265686f6c646572206973206672436c61696d60448201526132b960f11b60648201526084016104cf565b600085613228576131aa612d5a565b60405163346ba94160e01b81526004818101526001600160a01b03919091169063346ba9419060240160206040518083038186803b1580156131eb57600080fd5b505afa1580156131ff573d6000803e3d6000fd5b505050506040513d601f19601f820116820180604052508101906132239190614858565b6132aa565b613230612d5a565b60405163346ba94160e01b8152600360048201526001600160a01b03919091169063346ba9419060240160206040518083038186803b15801561327257600080fd5b505afa158015613286573d6000803e3d6000fd5b505050506040513d601f19601f820116820180604052508101906132aa9190614858565b60405162d8964160e31b81529091506001600160a01b038216906306c4b208906132da9088908890600401614fe4565b60206040518083038186803b1580156132f257600080fd5b505afa158015613306573d6000803e3d6000fd5b505050506040513d601f19601f8201168201806040525081019061332a9190614449565b6133665760405162461bcd60e51b815260206004820152600d60248201526c1b9bdd081d1c9a59d9d95c9959609a1b60448201526064016104cf565b835160a09081015184519091015160405163b097b85760e01b815264ffffffffff9283166004820152911660248201526001600160a01b0382169063b097b8579060440160206040518083038186803b1580156133c257600080fd5b505afa1580156133d6573d6000803e3d6000fd5b505050506040513d601f19601f820116820180604052508101906133fa9190614449565b6134575760405162461bcd60e51b815260206004820152602860248201527f64726167657220616e6420746172676574207368617265686f6c646572204e4f60448201526715081b1a5b9ad95960c21b60648201526084016104cf565b85156135a257835160a0015164ffffffffff1682146134cc5760405162461bcd60e51b815260206004820152602b60248201527f5348414b2e4d41443a2063616c6c6572206973206e6f7420647261676572206f60448201526a662044726167416c6f6e6760a81b60648201526084016104cf565b60405160016205baf360e41b031981526001600160a01b0382169063ffa450d090613501908890889088908890600401615002565b60206040518083038186803b15801561351957600080fd5b505afa15801561352d573d6000803e3d6000fd5b505050506040513d601f19601f820116820180604052508101906135519190614449565b61359d5760405162461bcd60e51b815260206004820152601d60248201527f5348414b2e4d41443a207072696365204e4f542073617469736669656400000060448201526064016104cf565b6103fd565b825160a0015164ffffffffff1682146136155760405162461bcd60e51b815260206004820152602f60248201527f5348414b2e4d41443a2063616c6c6572206973206e6f74207368617265686f6c60448201526e646572206f6620546167416c6f6e6760881b60648201526084016104cf565b60405163b115233560e01b815260016004820152602481018390526001600160a01b0386169063b11523359060440160206040518083038186803b15801561365c57600080fd5b505afa158015613670573d6000803e3d6000fd5b505050506040513d601f19601f820116820180604052508101906136949190614449565b156103fd5760405162461bcd60e51b815260206004820152602160248201527f5348414b2e4d41443a2063616c6c6572206973204275796572206f66204465616044820152601b60fa1b60648201526084016104cf565b6001546000906001600160a01b031663e0ff5b8b6007612cf2565b6000546001600160a01b0316156137575760405162461bcd60e51b815260206004820152601560248201527430b63932b0b23c9039b2ba103932b3a1b2b73a32b960591b60448201526064016104cf565b6040516001600160a01b03821681527f318da6c7624c71cbc0afe346c9d8827f119d0ecefb241a7b0c87217a076a8e029060200160405180910390a1600080546001600160a01b0319166001600160a01b0392909216919091179055565b6001546001600160a01b03161561380e5760405162461bcd60e51b815260206004820152601960248201527f616c7265616479207365742067656e6572616c4b65657065720000000000000060448201526064016104cf565b6040516001600160a01b03821681527fe513d3e0f0d0a3877029dcc588748679a7a3450ec1ec7ed56d96bd012c3e61aa9060200160405180910390a1600180546001600160a01b0319166001600160a01b0392909216919091179055565b6000604051806101200160405280856000015160ff16600014613890576005613893565b60065b60ff168152602001600061ffff16815260200184600001516020015161ffff16815260200183600001516040015161ffff16815260200183600001516000015163ffffffff168152602001836000015160a0015164ffffffffff168152602001846000015160c0015163ffffffff168152602001846000015160e0015163ffffffff1681526020018460000151610100015165ffffffffffff1681525083600001819052506040518060a0016040528084602001516000015164ffffffffff16815260200184602001516020015164ffffffffff16815260200185604001516001600160401b0316815260200185606001516001600160401b03168152602001600160048111156139a6576139a66144ac565b60ff1690526020840152604051637ae11a3d60e01b81526001600160a01b03861690637ae11a3d906139dc9086906004016150e6565b602060405180830381600087803b1580156139f657600080fd5b505af1158015613a0a573d6000803e3d6000fd5b505050506040513d601f19601f82011682018060405250810190613a2e91906150f5565b61ffff169050846001600160a01b0316639a9a7a44826040518263ffffffff1660e01b8152600401613a6291815260200190565b602060405180830381600087803b158015613a7c57600080fd5b505af1158015613a90573d6000803e3d6000fd5b505050506040513d601f19601f82011682018060405250810190613ab49190614449565b50613abd612d3f565b82515160408681015160608801519151634bacf96160e01b815263ffffffff90931660048401526001600160401b0390811660248401521660448201526001600160a01b039190911690634bacf96190606401600060405180830381600087803b158015613b2a57600080fd5b505af1158015613b3e573d6000803e3d6000fd5b50505050949350505050565b81516080015163ffffffff1615613b6657815160079052613b6d565b8151600490525b815160208082015161ffff16604092830152815160a081019092528281015164ffffffffff1682528101613b9f6136eb565b602084015160405163302e2f6360e11b815264ffffffffff90911660048201526001600160a01b03919091169063605c5ec69060240160206040518083038186803b158015613bed57600080fd5b505afa158015613c01573d6000803e3d6000fd5b505050506040513d601f19601f82011682018060405250810190613c259190614421565b64ffffffffff1681526020016127108360600151856020015160400151613c4c9190615110565b613c56919061513f565b6001600160401b031681526020016127108360600151856020015160600151613c7f9190615110565b613c89919061513f565b6001600160401b031681526001602091820152830152604051637ae11a3d60e01b81526001600160a01b03841690639a9a7a44908290637ae11a3d90613cd39087906004016150e6565b602060405180830381600087803b158015613ced57600080fd5b505af1158015613d01573d6000803e3d6000fd5b505050506040513d601f19601f82011682018060405250810190613d2591906150f5565b6040516001600160e01b031960e084901b16815261ffff9091166004820152602401602060405180830381600087803b158015613d6157600080fd5b505af1158015613d75573d6000803e3d6000fd5b505050506040513d601f19601f82011682018060405250810190613d999190614449565b50602081015160a0820151604051630cac562d60e11b81526000600482015264ffffffffff909216602483015260448201526001600160a01b03841690631958ac5a90606401600060405180830381600087803b158015613df957600080fd5b505af1158015613e0d573d6000803e3d6000fd5b50505050505050565b6001546000906001600160a01b031663e0ff5b8b6003612cf2565b6000806000866001600160a01b03166382fd5bac876040518263ffffffff1660e01b8152600401613e6491815260200190565b6101e06040518083038186803b158015613e7d57600080fd5b505afa158015613e91573d6000803e3d6000fd5b505050506040513d601f19601f82011682018060405250810190613eb59190614a57565b90506000613ec1612d3f565b6001600160a01b031663cfb5a5f8876040518263ffffffff1660e01b8152600401613eee91815260200190565b6101806040518083038186803b158015613f0757600080fd5b505afa158015613f1b573d6000803e3d6000fd5b505050506040513d601f19601f82011682018060405250810190613f3f9190614781565b90506000808260200151604001516001600160401b0316111561416257856001600160401b03168260200151604001516001600160401b031610613f835785613f8d565b8160200151604001515b6040805161018081018252600860608083019182526000608080850182905261ffff8f811660a0808801919091528a5188015190911660c087015289515163ffffffff1660e0870152895181015164ffffffffff90811661010080890191909152610120880185905261014088018590528c51015165ffffffffffff16610160880152948652865190810187526020808c018051518716835251810151909516858201526001600160401b0388168188018190529381019390935260019083015291830152818301529051637ae11a3d60e01b8152919250906001600160a01b038b1690637ae11a3d906140859084906004016150e6565b602060405180830381600087803b15801561409f57600080fd5b505af11580156140b3573d6000803e3d6000fd5b505050506040513d601f19601f820116820180604052508101906140d791906150f5565b61ffff1695506140e5612d3f565b835151604051634bacf96160e01b815263ffffffff90911660048201526001600160401b0384166024820181905260448201526001600160a01b039190911690634bacf96190606401600060405180830381600087803b15801561414857600080fd5b505af115801561415c573d6000803e3d6000fd5b50505050505b61416c8187615173565b935050505094509492505050565b6000806040838503121561418d57600080fd5b50508035926020909101359150565b6001600160a01b03811681146141b157600080fd5b50565b600080600080600060a086880312156141cc57600080fd5b85356141d78161419c565b97602087013597506040870135966060810135965060800135945092505050565b60006020828403121561420a57600080fd5b5035919050565b60006020828403121561422357600080fd5b813561422e8161419c565b9392505050565b64ffffffffff811681146141b157600080fd5b60008060006060848603121561425d57600080fd5b83356142688161419c565b925060208401359150604084013561427f81614235565b809150509250925092565b80151581146141b157600080fd5b6001600160401b03811681146141b157600080fd5b600080600080600080600080610100898b0312156142ca57600080fd5b88356142d58161419c565b97506020890135965060408901356142ec8161428a565b955060608901359450608089013561430381614298565b935060a089013561431381614298565b979a969950949793969295929450505060c08201359160e0013590565b60008060008060008060c0878903121561434957600080fd5b863595506020870135945060408701356143628161419c565b959894975094956060810135955060808101359460a0909101359350915050565b6000806000806080858703121561439957600080fd5b8435935060208501356143ab8161419c565b925060408501356143bb8161419c565b915060608501356143cb8161419c565b939692955090935050565b600080600080608085870312156143ec57600080fd5b84356143f78161419c565b966020860135965060408601359560600135945092505050565b805161441c81614235565b919050565b60006020828403121561443357600080fd5b815161422e81614235565b805161441c8161428a565b60006020828403121561445b57600080fd5b815161422e8161428a565b60208082526026908201527f41432e6f6e6c794469726563744b65657065723a206e6f74206469726563742060408201526535b2b2b832b960d11b606082015260800190565b634e487b7160e01b600052602160045260246000fd5b634e487b7160e01b600052604160045260246000fd5b604080519081016001600160401b03811182821017156144fa576144fa6144c2565b60405290565b60405161010081016001600160401b03811182821017156144fa576144fa6144c2565b60405161012081016001600160401b03811182821017156144fa576144fa6144c2565b604051606081016001600160401b03811182821017156144fa576144fa6144c2565b60405160a081016001600160401b03811182821017156144fa576144fa6144c2565b60405160c081016001600160401b03811182821017156144fa576144fa6144c2565b604051601f8201601f191681016001600160401b03811182821017156145d4576145d46144c2565b604052919050565b805160ff8116811461441c57600080fd5b805165ffffffffffff8116811461441c57600080fd5b600060c0828403121561461557600080fd5b60405160c081018181106001600160401b0382111715614637576146376144c2565b604052614643836145dc565b8152602083015161465381614235565b6020820152614664604084016145ed565b6040820152614675606084016145ed565b6060820152614686608084016145ed565b608082015261469760a084016145dc565b60a08201529392505050565b6020808252601490820152731b5a5cdcd959081c995d9a595dc81c195c9a5bd960621b604082015260600190565b805163ffffffff8116811461441c57600080fd5b805161ffff8116811461441c57600080fd5b60006080828403121561470957600080fd5b604051608081018181106001600160401b038211171561472b5761472b6144c2565b8060405250809150825161473e81614298565b8152602083015161474e81614298565b6020820152604083015161476181614298565b6040820152606083015161477481614298565b6060919091015292915050565b600081830361018081121561479557600080fd5b61479d6144d8565b610100808312156147ad57600080fd5b6147b5614500565b92506147c0856146d1565b83526147ce602086016146d1565b60208401526147df604086016146e5565b60408401526147f0606086016145ed565b6060840152614801608086016145ed565b608084015260a085015161481481614235565b60a084015261482560c086016146d1565b60c084015261483660e086016145dc565b60e084015282825261484a868287016146f7565b602083015250949350505050565b60006020828403121561486a57600080fd5b815161422e8161419c565b60006020828403121561488757600080fd5b815161422e81614298565b60006001600160401b038211156148ab576148ab6144c2565b5060051b60200190565b600060208083850312156148c857600080fd5b82516001600160401b038111156148de57600080fd5b8301601f810185136148ef57600080fd5b80516149026148fd82614892565b6145ac565b81815260059190911b8201830190838101908783111561492157600080fd5b928401925b8284101561493f57835182529284019290840190614926565b979650505050505050565b60208082526036908201527f41432e6f776e65724f72446972656374426f6f6b65657065723a206e6569746860408201527532b91037bbb732b9103737b9103137b7b5b2b2b832b960511b606082015260800190565b600061012082840312156149b357600080fd5b6149bb614523565b90506149c6826145dc565b81526149d4602083016146e5565b60208201526149e5604083016146e5565b60408201526149f6606083016146e5565b6060820152614a07608083016146d1565b6080820152614a1860a08301614411565b60a0820152614a2960c083016146d1565b60c0820152614a3a60e083016146d1565b60e0820152610100614a4d8184016145ed565b9082015292915050565b60008183036101e0811215614a6b57600080fd5b614a73614546565b614a7d85856149a0565b815260a061011f1983011215614a9257600080fd5b614a9a614568565b9150610120840151614aab81614235565b8252610140840151614abc81614235565b6020830152610160840151614ad081614298565b6040830152610180840151614ae481614298565b6060830152614af66101a085016145dc565b608083015260208101919091526101c09290920151604083015250919050565b60006101208284031215614b2957600080fd5b6111f783836149a0565b600060208284031215614b4557600080fd5b5051919050565b600082601f830112614b5d57600080fd5b60405160a081018181106001600160401b0382111715614b7f57614b7f6144c2565b6040528060a0840185811115614b9457600080fd5b845b81811015614bb7578051614ba981614235565b835260209283019201614b96565b509195945050505050565b60006101808284031215614bd557600080fd5b614bdd614500565b614be6836146e5565b8152614bf4602084016145dc565b6020820152614c05604084016145dc565b6040820152614c16606084016145dc565b60608201526080830151614c298161428a565b608082015260a0830151614c3c8161428a565b60a0820152614c4d60c0840161443e565b60c0820152614c5f8460e08501614b4c565b60e08201529392505050565b634e487b7160e01b600052603260045260246000fd5b6020808252601a908201527f7374696c6c2077697468696e2072657669657720706572696f64000000000000604082015260600190565b600060e08284031215614cca57600080fd5b60405160e081018181106001600160401b0382111715614cec57614cec6144c2565b604052614cf8836145dc565b8152614d06602084016146d1565b60208201526040830151614d1981614298565b60408201526060830151614d2c81614298565b60608201526080830151614d3f81614235565b6080820152614d5060a084016145ed565b60a082015260c083015160c08201528091505092915050565b60006020808385031215614d7c57600080fd5b82516001600160401b03811115614d9257600080fd5b8301601f81018513614da357600080fd5b8051614db16148fd82614892565b81815260c09182028301840191848201919088841115614dd057600080fd5b938501935b83851015614e615780858a031215614ded5760008081fd5b614df561458a565b614dfe866146e5565b815286860151614e0d81614235565b81880152604086810151614e2081614298565b90820152606086810151614e3381614298565b908201526080614e448782016145ed565b9082015260a0868101519082015283529384019391850191614dd5565b50979650505050505050565b634e487b7160e01b600052601160045260246000fd5b600082821015614e9557614e95614e6d565b500390565b600081614ea957614ea9614e6d565b506000190190565b6000600019821415614ec557614ec5614e6d565b5060010190565b805160ff815116835261ffff60208201511660208401526040810151614ef8604085018261ffff169052565b506060810151614f0e606085018261ffff169052565b506080810151614f26608085018263ffffffff169052565b5060a0810151614f3f60a085018264ffffffffff169052565b5060c0810151614f5760c085018263ffffffff169052565b5060e0810151614f6f60e085018263ffffffff169052565b506101009081015165ffffffffffff1690830152602081810151805164ffffffffff908116610120860152918101519091166101408401526040808201516001600160401b0390811661016086015260608301511661018085015260809091015160ff166101a084015201516101c090910152565b6001600160a01b0383168152610200810161422e6020830184614ecc565b6001600160a01b03851681526103a081016150206020830186614ecc565b8351805163ffffffff908116610200850152602080830151821661022086015260408084015161ffff1661024087015260608085015165ffffffffffff90811661026089015260808601511661028088015260a085015164ffffffffff166102a088015260c08501519093166102c087015260e09093015160ff166102e08601529586015180516001600160401b039081166103008701529681015187166103208601529182015186166103408501520151909316610360820152610380015292915050565b6101e081016111fa8284614ecc565b60006020828403121561510757600080fd5b6111f7826146e5565b60006001600160401b038083168185168183048111821515161561513657615136614e6d565b02949350505050565b60006001600160401b038084168061516757634e487b7160e01b600052601260045260246000fd5b92169190910492915050565b60006001600160401b038381169083168181101561519357615193614e6d565b03939250505056fea26469706673582212203b10041d0c09fcc94a434cc1a38abce4c585347a4c229a44ef4faa0ddc4baea164736f6c63430008080033",
    "sourcePath": "/Users/kaptain/github.com/hardhat/comboox/contracts/keepers/SHAKeeper.sol",
    "compiler": {
        "name": "solc",
        "version": "0.8.8+commit.dddeac2f"
    },
    "functionHashes": {
        "abandonRole(bytes32)": "3da9a600",
        "acceptAlongDeal(address,uint256,uint256,uint256,bytes32)": "f51147e3",
        "acceptFirstRefusal(address,uint256,uint256,bytes32)": "f61bf284",
        "execAlongRight(address,uint256,bool,uint256,uint64,uint64,uint256,bytes32)": "9c436a7d",
        "execAntiDilution(address,uint256,uint256,uint256,bytes32)": "325508d5",
        "execFirstRefusal(uint256,uint256,address,uint256,uint256,bytes32)": "c65511d8",
        "finalized()": "b3f05b97",
        "getBookeeper()": "ed211023",
        "getGeneralCounsel()": "103f6edd",
        "getOwner()": "893d20e8",
        "grantRole(bytes32,uint256)": "1b6ea9f9",
        "hasRole(bytes32,uint256)": "7e063c5a",
        "init(uint256,address,address,address)": "dc890da9",
        "lockContents()": "f045a769",
        "renounceRole(bytes32)": "8bb9c5bf",
        "revokeRole(bytes32,uint256)": "19d61ad9",
        "setDirectKeeper(address)": "6be8496f",
        "setGeneralCounsel(uint256)": "4a14beb1",
        "setOwner(uint256)": "8041494e",
        "setRoleAdmin(bytes32,uint256)": "5171ebd4",
        "takeGiftShares(address,uint256,uint40)": "6c69e969"
    },
    "gasEstimates": {
        "creation": {
            "codeDepositCost": "4189000",
            "executionCost": "4818",
            "totalCost": "4193818"
        },
        "external": {
            "abandonRole(bytes32)": "infinite",
            "acceptAlongDeal(address,uint256,uint256,uint256,bytes32)": "infinite",
            "acceptFirstRefusal(address,uint256,uint256,bytes32)": "infinite",
            "execAlongRight(address,uint256,bool,uint256,uint64,uint64,uint256,bytes32)": "infinite",
            "execAntiDilution(address,uint256,uint256,uint256,bytes32)": "infinite",
            "execFirstRefusal(uint256,uint256,address,uint256,uint256,bytes32)": "infinite",
            "finalized()": "2438",
            "getBookeeper()": "infinite",
            "getGeneralCounsel()": "infinite",
            "getOwner()": "infinite",
            "grantRole(bytes32,uint256)": "infinite",
            "hasRole(bytes32,uint256)": "infinite",
            "init(uint256,address,address,address)": "infinite",
            "lockContents()": "infinite",
            "renounceRole(bytes32)": "infinite",
            "revokeRole(bytes32,uint256)": "infinite",
            "setDirectKeeper(address)": "infinite",
            "setGeneralCounsel(uint256)": "infinite",
            "setOwner(uint256)": "infinite",
            "setRoleAdmin(bytes32,uint256)": "infinite",
            "takeGiftShares(address,uint256,uint40)": "infinite"
        },
        "internal": {
            "_checkAlongDeal(bool,address,struct DealsRepo.Deal memory,struct SharesRepo.Share memory,uint256)": "infinite",
            "_createAlongDeal(address,struct DTClaims.Claim memory,struct DealsRepo.Deal memory,struct SharesRepo.Share memory)": "infinite",
            "_createFRDeal(address,struct DealsRepo.Deal memory,struct FRClaims.Claim memory)": "infinite",
            "_createGift(address,uint256,uint256,uint64)": "infinite",
            "_createGiftDeals(address,uint256,uint64,uint256[] memory,uint256,bytes32)": "infinite"
        }
    }
}