{
    "contractName": "AntiDilution",
    "abi": [
        {
            "anonymous": false,
            "inputs": [
                {
                    "indexed": false,
                    "internalType": "uint256",
                    "name": "owner",
                    "type": "uint256"
                },
                {
                    "indexed": false,
                    "internalType": "address",
                    "name": "directKeeper",
                    "type": "address"
                },
                {
                    "indexed": false,
                    "internalType": "address",
                    "name": "regCenter",
                    "type": "address"
                },
                {
                    "indexed": false,
                    "internalType": "address",
                    "name": "generalKeeper",
                    "type": "address"
                }
            ],
            "name": "Init",
            "type": "event"
        },
        {
            "anonymous": false,
            "inputs": [],
            "name": "LockContents",
            "type": "event"
        },
        {
            "anonymous": false,
            "inputs": [
                {
                    "indexed": false,
                    "internalType": "address",
                    "name": "keeper",
                    "type": "address"
                }
            ],
            "name": "SetDirectKeeper",
            "type": "event"
        },
        {
            "anonymous": false,
            "inputs": [
                {
                    "indexed": false,
                    "internalType": "uint256",
                    "name": "acct",
                    "type": "uint256"
                }
            ],
            "name": "SetGeneralCounsel",
            "type": "event"
        },
        {
            "anonymous": false,
            "inputs": [
                {
                    "indexed": false,
                    "internalType": "uint256",
                    "name": "acct",
                    "type": "uint256"
                }
            ],
            "name": "SetOwner",
            "type": "event"
        },
        {
            "inputs": [
                {
                    "internalType": "bytes32",
                    "name": "role",
                    "type": "bytes32"
                }
            ],
            "name": "abandonRole",
            "outputs": [],
            "stateMutability": "nonpayable",
            "type": "function"
        },
        {
            "inputs": [
                {
                    "internalType": "uint256",
                    "name": "class",
                    "type": "uint256"
                },
                {
                    "internalType": "uint256",
                    "name": "price",
                    "type": "uint256"
                }
            ],
            "name": "addBenchmark",
            "outputs": [],
            "stateMutability": "nonpayable",
            "type": "function"
        },
        {
            "inputs": [
                {
                    "internalType": "uint256",
                    "name": "class",
                    "type": "uint256"
                },
                {
                    "internalType": "uint256",
                    "name": "obligor",
                    "type": "uint256"
                }
            ],
            "name": "addObligor",
            "outputs": [],
            "stateMutability": "nonpayable",
            "type": "function"
        },
        {
            "inputs": [],
            "name": "finalized",
            "outputs": [
                {
                    "internalType": "bool",
                    "name": "",
                    "type": "bool"
                }
            ],
            "stateMutability": "view",
            "type": "function"
        },
        {
            "inputs": [],
            "name": "getBookeeper",
            "outputs": [
                {
                    "internalType": "address",
                    "name": "",
                    "type": "address"
                }
            ],
            "stateMutability": "view",
            "type": "function"
        },
        {
            "inputs": [],
            "name": "getClasses",
            "outputs": [
                {
                    "internalType": "uint256[]",
                    "name": "",
                    "type": "uint256[]"
                }
            ],
            "stateMutability": "view",
            "type": "function"
        },
        {
            "inputs": [
                {
                    "internalType": "uint256",
                    "name": "class",
                    "type": "uint256"
                }
            ],
            "name": "getFloorPriceOfClass",
            "outputs": [
                {
                    "internalType": "uint32",
                    "name": "price",
                    "type": "uint32"
                }
            ],
            "stateMutability": "view",
            "type": "function"
        },
        {
            "inputs": [],
            "name": "getGeneralCounsel",
            "outputs": [
                {
                    "internalType": "uint40",
                    "name": "",
                    "type": "uint40"
                }
            ],
            "stateMutability": "view",
            "type": "function"
        },
        {
            "inputs": [
                {
                    "internalType": "address",
                    "name": "ia",
                    "type": "address"
                },
                {
                    "internalType": "uint256",
                    "name": "seqOfDeal",
                    "type": "uint256"
                },
                {
                    "internalType": "uint256",
                    "name": "seqOfShare",
                    "type": "uint256"
                }
            ],
            "name": "getGiftPaid",
            "outputs": [
                {
                    "internalType": "uint64",
                    "name": "gift",
                    "type": "uint64"
                }
            ],
            "stateMutability": "view",
            "type": "function"
        },
        {
            "inputs": [
                {
                    "internalType": "uint256",
                    "name": "class",
                    "type": "uint256"
                }
            ],
            "name": "getObligorsOfAD",
            "outputs": [
                {
                    "internalType": "uint256[]",
                    "name": "",
                    "type": "uint256[]"
                }
            ],
            "stateMutability": "view",
            "type": "function"
        },
        {
            "inputs": [],
            "name": "getOwner",
            "outputs": [
                {
                    "internalType": "uint40",
                    "name": "",
                    "type": "uint40"
                }
            ],
            "stateMutability": "view",
            "type": "function"
        },
        {
            "inputs": [
                {
                    "internalType": "bytes32",
                    "name": "role",
                    "type": "bytes32"
                },
                {
                    "internalType": "uint256",
                    "name": "acct",
                    "type": "uint256"
                }
            ],
            "name": "grantRole",
            "outputs": [],
            "stateMutability": "nonpayable",
            "type": "function"
        },
        {
            "inputs": [
                {
                    "internalType": "bytes32",
                    "name": "role",
                    "type": "bytes32"
                },
                {
                    "internalType": "uint256",
                    "name": "acct",
                    "type": "uint256"
                }
            ],
            "name": "hasRole",
            "outputs": [
                {
                    "internalType": "bool",
                    "name": "",
                    "type": "bool"
                }
            ],
            "stateMutability": "view",
            "type": "function"
        },
        {
            "inputs": [
                {
                    "internalType": "uint256",
                    "name": "owner",
                    "type": "uint256"
                },
                {
                    "internalType": "address",
                    "name": "directKeeper",
                    "type": "address"
                },
                {
                    "internalType": "address",
                    "name": "regCenter",
                    "type": "address"
                },
                {
                    "internalType": "address",
                    "name": "generalKeeper",
                    "type": "address"
                }
            ],
            "name": "init",
            "outputs": [],
            "stateMutability": "nonpayable",
            "type": "function"
        },
        {
            "inputs": [
                {
                    "internalType": "address",
                    "name": "ia",
                    "type": "address"
                },
                {
                    "components": [
                        {
                            "components": [
                                {
                                    "internalType": "uint8",
                                    "name": "typeOfDeal",
                                    "type": "uint8"
                                },
                                {
                                    "internalType": "uint16",
                                    "name": "seqOfDeal",
                                    "type": "uint16"
                                },
                                {
                                    "internalType": "uint16",
                                    "name": "preSeq",
                                    "type": "uint16"
                                },
                                {
                                    "internalType": "uint16",
                                    "name": "classOfShare",
                                    "type": "uint16"
                                },
                                {
                                    "internalType": "uint32",
                                    "name": "seqOfShare",
                                    "type": "uint32"
                                },
                                {
                                    "internalType": "uint40",
                                    "name": "seller",
                                    "type": "uint40"
                                },
                                {
                                    "internalType": "uint32",
                                    "name": "priceOfPaid",
                                    "type": "uint32"
                                },
                                {
                                    "internalType": "uint32",
                                    "name": "priceOfPar",
                                    "type": "uint32"
                                },
                                {
                                    "internalType": "uint48",
                                    "name": "closingDate",
                                    "type": "uint48"
                                }
                            ],
                            "internalType": "struct DealsRepo.Head",
                            "name": "head",
                            "type": "tuple"
                        },
                        {
                            "components": [
                                {
                                    "internalType": "uint40",
                                    "name": "buyer",
                                    "type": "uint40"
                                },
                                {
                                    "internalType": "uint40",
                                    "name": "groupOfBuyer",
                                    "type": "uint40"
                                },
                                {
                                    "internalType": "uint64",
                                    "name": "paid",
                                    "type": "uint64"
                                },
                                {
                                    "internalType": "uint64",
                                    "name": "par",
                                    "type": "uint64"
                                },
                                {
                                    "internalType": "uint8",
                                    "name": "state",
                                    "type": "uint8"
                                }
                            ],
                            "internalType": "struct DealsRepo.Body",
                            "name": "body",
                            "type": "tuple"
                        },
                        {
                            "internalType": "bytes32",
                            "name": "hashLock",
                            "type": "bytes32"
                        }
                    ],
                    "internalType": "struct DealsRepo.Deal",
                    "name": "deal",
                    "type": "tuple"
                }
            ],
            "name": "isExempted",
            "outputs": [
                {
                    "internalType": "bool",
                    "name": "",
                    "type": "bool"
                }
            ],
            "stateMutability": "view",
            "type": "function"
        },
        {
            "inputs": [
                {
                    "internalType": "uint256",
                    "name": "class",
                    "type": "uint256"
                }
            ],
            "name": "isMarked",
            "outputs": [
                {
                    "internalType": "bool",
                    "name": "flag",
                    "type": "bool"
                }
            ],
            "stateMutability": "view",
            "type": "function"
        },
        {
            "inputs": [
                {
                    "internalType": "uint256",
                    "name": "class",
                    "type": "uint256"
                },
                {
                    "internalType": "uint256",
                    "name": "acct",
                    "type": "uint256"
                }
            ],
            "name": "isObligor",
            "outputs": [
                {
                    "internalType": "bool",
                    "name": "flag",
                    "type": "bool"
                }
            ],
            "stateMutability": "view",
            "type": "function"
        },
        {
            "inputs": [
                {
                    "internalType": "address",
                    "name": "ia",
                    "type": "address"
                },
                {
                    "components": [
                        {
                            "components": [
                                {
                                    "internalType": "uint8",
                                    "name": "typeOfDeal",
                                    "type": "uint8"
                                },
                                {
                                    "internalType": "uint16",
                                    "name": "seqOfDeal",
                                    "type": "uint16"
                                },
                                {
                                    "internalType": "uint16",
                                    "name": "preSeq",
                                    "type": "uint16"
                                },
                                {
                                    "internalType": "uint16",
                                    "name": "classOfShare",
                                    "type": "uint16"
                                },
                                {
                                    "internalType": "uint32",
                                    "name": "seqOfShare",
                                    "type": "uint32"
                                },
                                {
                                    "internalType": "uint40",
                                    "name": "seller",
                                    "type": "uint40"
                                },
                                {
                                    "internalType": "uint32",
                                    "name": "priceOfPaid",
                                    "type": "uint32"
                                },
                                {
                                    "internalType": "uint32",
                                    "name": "priceOfPar",
                                    "type": "uint32"
                                },
                                {
                                    "internalType": "uint48",
                                    "name": "closingDate",
                                    "type": "uint48"
                                }
                            ],
                            "internalType": "struct DealsRepo.Head",
                            "name": "head",
                            "type": "tuple"
                        },
                        {
                            "components": [
                                {
                                    "internalType": "uint40",
                                    "name": "buyer",
                                    "type": "uint40"
                                },
                                {
                                    "internalType": "uint40",
                                    "name": "groupOfBuyer",
                                    "type": "uint40"
                                },
                                {
                                    "internalType": "uint64",
                                    "name": "paid",
                                    "type": "uint64"
                                },
                                {
                                    "internalType": "uint64",
                                    "name": "par",
                                    "type": "uint64"
                                },
                                {
                                    "internalType": "uint8",
                                    "name": "state",
                                    "type": "uint8"
                                }
                            ],
                            "internalType": "struct DealsRepo.Body",
                            "name": "body",
                            "type": "tuple"
                        },
                        {
                            "internalType": "bytes32",
                            "name": "hashLock",
                            "type": "bytes32"
                        }
                    ],
                    "internalType": "struct DealsRepo.Deal",
                    "name": "deal",
                    "type": "tuple"
                }
            ],
            "name": "isTriggered",
            "outputs": [
                {
                    "internalType": "bool",
                    "name": "",
                    "type": "bool"
                }
            ],
            "stateMutability": "view",
            "type": "function"
        },
        {
            "inputs": [],
            "name": "lockContents",
            "outputs": [],
            "stateMutability": "nonpayable",
            "type": "function"
        },
        {
            "inputs": [
                {
                    "internalType": "uint256",
                    "name": "class",
                    "type": "uint256"
                }
            ],
            "name": "removeBenchmark",
            "outputs": [],
            "stateMutability": "nonpayable",
            "type": "function"
        },
        {
            "inputs": [
                {
                    "internalType": "uint256",
                    "name": "class",
                    "type": "uint256"
                },
                {
                    "internalType": "uint256",
                    "name": "obligor",
                    "type": "uint256"
                }
            ],
            "name": "removeObligor",
            "outputs": [],
            "stateMutability": "nonpayable",
            "type": "function"
        },
        {
            "inputs": [
                {
                    "internalType": "bytes32",
                    "name": "role",
                    "type": "bytes32"
                }
            ],
            "name": "renounceRole",
            "outputs": [],
            "stateMutability": "nonpayable",
            "type": "function"
        },
        {
            "inputs": [
                {
                    "internalType": "bytes32",
                    "name": "role",
                    "type": "bytes32"
                },
                {
                    "internalType": "uint256",
                    "name": "acct",
                    "type": "uint256"
                }
            ],
            "name": "revokeRole",
            "outputs": [],
            "stateMutability": "nonpayable",
            "type": "function"
        },
        {
            "inputs": [
                {
                    "internalType": "address",
                    "name": "keeper",
                    "type": "address"
                }
            ],
            "name": "setDirectKeeper",
            "outputs": [],
            "stateMutability": "nonpayable",
            "type": "function"
        },
        {
            "inputs": [
                {
                    "internalType": "uint256",
                    "name": "acct",
                    "type": "uint256"
                }
            ],
            "name": "setGeneralCounsel",
            "outputs": [],
            "stateMutability": "nonpayable",
            "type": "function"
        },
        {
            "inputs": [
                {
                    "internalType": "uint256",
                    "name": "acct",
                    "type": "uint256"
                }
            ],
            "name": "setOwner",
            "outputs": [],
            "stateMutability": "nonpayable",
            "type": "function"
        },
        {
            "inputs": [
                {
                    "internalType": "bytes32",
                    "name": "role",
                    "type": "bytes32"
                },
                {
                    "internalType": "uint256",
                    "name": "acct",
                    "type": "uint256"
                }
            ],
            "name": "setRoleAdmin",
            "outputs": [],
            "stateMutability": "nonpayable",
            "type": "function"
        }
    ],
    "bytecode": "608060405234801561001057600080fd5b50612c59806100206000396000f3fe608060405234801561001057600080fd5b50600436106101a95760003560e01c80635b54d12f116100f9578063a31da53b11610097578063b3f05b9711610071578063b3f05b97146103ad578063dc890da9146103c1578063ed211023146103d4578063f045a769146103f457600080fd5b8063a31da53b14610374578063a4fb56f114610387578063a9c4133c1461039a57600080fd5b80637e063c5a116100d35780637e063c5a146103335780638041494e14610346578063893d20e8146103595780638bb9c5bf1461036157600080fd5b80635b54d12f146102cd57806367e25418146102f55780636be8496f1461032057600080fd5b8063237006e0116101665780633da9a600116101405780633da9a600146102815780634a14beb1146102945780634bcfb733146102a75780635171ebd4146102ba57600080fd5b8063237006e01461024857806335a7bb441461025b5780633bce3c301461026e57600080fd5b80630193a955146101ae57806306c4b208146101cc578063103f6edd146101ef57806319d61ad91461020d5780631b6ea9f91461022257806320a390b114610235575b600080fd5b6101b66103fc565b6040516101c3919061216b565b60405180910390f35b6101df6101da36600461238d565b61048b565b60405190151581526020016101c3565b6101f76104e8565b60405164ffffffffff90911681526020016101c3565b61022061021b3660046124a3565b61056f565b005b6102206102303660046124a3565b610601565b6102206102433660046124a3565b610627565b6101df61025636600461238d565b6107ca565b6102206102693660046124a3565b610a2c565b6101df61027c3660046124a3565b610c4d565b61022061028f3660046124c5565b610cf8565b6102206102a23660046124c5565b610d83565b6102206102b53660046124c5565b610fe0565b6102206102c83660046124a3565b611176565b6102e06102db3660046124c5565b61119c565b60405163ffffffff90911681526020016101c3565b6103086103033660046124de565b6111e4565b6040516001600160401b0390911681526020016101c3565b61022061032e366004612513565b611414565b6101df6103413660046124a3565b6114c6565b6102206103543660046124c5565b61150f565b6101f76115c8565b61022061036f3660046124c5565b611603565b6101b66103823660046124c5565b611628565b6101df6103953660046124c5565b6116ea565b6102206103a83660046124a3565b611777565b60028054600160f01b900460ff16146101df565b6102206103cf366004612530565b6118bf565b6103dc6119a1565b6040516001600160a01b0390911681526020016101c3565b610220611a27565b60405163034306e160e21b81526005600482015260609073__$8c1a4844a0a0988ea2454cf87145a95df1$__90630d0c1b849060240160006040518083038186803b15801561044a57600080fd5b505af415801561045e573d6000803e3d6000fd5b505050506040513d6000823e601f3d908101601f191682016040526104869190810190612612565b905090565b80515160009060ff166001146104a3575060006104e2565b60006104ba83600001516060015161ffff1661119c565b835160c0015163ffffffff9182169250168111156104dc5760019150506104e2565b60009150505b92915050565b60405163e8c0cc1d60e01b81526002600482015260009073__$364aad554dc80380f414546becdd2c1584$__9063e8c0cc1d906024015b60206040518083038186803b15801561053757600080fd5b505af415801561054b573d6000803e3d6000fd5b505050506040513d601f19601f820116820180604052508101906104869190612659565b73__$364aad554dc80380f414546becdd2c1584$__6382daafaa60028484610595611c6b565b6040516001600160e01b031960e087901b16815260048101949094526024840192909252604483015264ffffffffff16606482015260840160006040518083038186803b1580156105e557600080fd5b505af41580156105f9573d6000803e3d6000fd5b505050505050565b73__$364aad554dc80380f414546becdd2c1584$__636320d75e60028484610595611c6b565b81610631816116ea565b6106565760405162461bcd60e51b815260040161064d90612676565b60405180910390fd5b73__$364aad554dc80380f414546becdd2c1584$__63a8ef95ac6002684174746f726e65797360b81b610687611c6b565b6040516001600160e01b031960e086901b1681526004810193909352602483019190915264ffffffffff16604482015260640160206040518083038186803b1580156106d257600080fd5b505af41580156106e6573d6000803e3d6000fd5b505050506040513d601f19601f8201168201806040525081019061070a91906126ad565b6107265760405162461bcd60e51b815260040161064d906126cf565b60008381526004602081905260409182902091516392f13c3f60e01b81526001909201908201526024810183905273__$8c1a4844a0a0988ea2454cf87145a95df1$__906392f13c3f906044015b60206040518083038186803b15801561078c57600080fd5b505af41580156107a0573d6000803e3d6000fd5b505050506040513d601f19601f820116820180604052508101906107c491906126ad565b50505050565b60006107d6838361048b565b6107e2575060016104e2565b6000836001600160a01b031690506000846001600160a01b031663a8311aa86040518163ffffffff1660e01b815260040160006040518083038186803b15801561082b57600080fd5b505afa15801561083f573d6000803e3d6000fd5b505050506040513d6000823e601f3d908101601f191682016040526108679190810190612612565b90506000600160009054906101000a90046001600160a01b03166001600160a01b031663682ebf056040518163ffffffff1660e01b815260040160206040518083038186803b1580156108b957600080fd5b505afa1580156108cd573d6000803e3d6000fd5b505050506040513d601f19601f820116820180604052508101906108f191906126fc565b604051630597757b60e21b815260048101859052600160248201526001600160a01b03919091169063165dd5ec9060440160006040518083038186803b15801561093a57600080fd5b505afa15801561094e573d6000803e3d6000fd5b505050506040513d6000823e601f3d908101601f191682016040526109769190810190612724565b60400151905060008273__$ccb256085f563a601d001f7c9087d87207$__63088b9bf69091846040518363ffffffff1660e01b81526004016109b99291906127f1565b60006040518083038186803b1580156109d157600080fd5b505af41580156109e5573d6000803e3d6000fd5b505050506040513d6000823e601f3d908101601f19168201604052610a0d9190810190612612565b9050610a21866000015160c0015182611cc5565b979650505050505050565b73__$364aad554dc80380f414546becdd2c1584$__63a8ef95ac6002684174746f726e65797360b81b610a5d611c6b565b6040516001600160e01b031960e086901b1681526004810193909352602483019190915264ffffffffff16604482015260640160206040518083038186803b158015610aa857600080fd5b505af4158015610abc573d6000803e3d6000fd5b505050506040513d601f19601f82011682018060405250810190610ae091906126ad565b610afc5760405162461bcd60e51b815260040161064d906126cf565b60008211610b405760405162461bcd60e51b815260206004820152601160248201527041442e41423a207a65726f20636c61737360781b604482015260640161064d565b60008111610b845760405162461bcd60e51b815260206004820152601160248201527041442e41423a207a65726f20707269636560781b604482015260640161064d565b600082815260046020819052604091829020805463ffffffff8516620100000265ffffffffffff1990911661ffff87161717905590516392f13c3f60e01b815273__$8c1a4844a0a0988ea2454cf87145a95df1$__916392f13c3f91610bf891600591879101918252602082015260400190565b60206040518083038186803b158015610c1057600080fd5b505af4158015610c24573d6000803e3d6000fd5b505050506040513d601f19601f82011682018060405250810190610c4891906126ad565b505050565b60008281526004602081905260408083209051633f5f77cd60e01b815273__$8c1a4844a0a0988ea2454cf87145a95df1$__92633f5f77cd92610ca192600190910191879101918252602082015260400190565b60206040518083038186803b158015610cb957600080fd5b505af4158015610ccd573d6000803e3d6000fd5b505050506040513d601f19601f82011682018060405250810190610cf191906126ad565b9392505050565b73__$364aad554dc80380f414546becdd2c1584$__63c51b295f600283610d1d611c6b565b6040516001600160e01b031960e086901b1681526004810193909352602483019190915264ffffffffff16604482015260640160006040518083038186803b158015610d6857600080fd5b505af4158015610d7c573d6000803e3d6000fd5b5050505050565b604051633b11adbf60e21b81526002600482015233602482015273__$364aad554dc80380f414546becdd2c1584$__9063ec46b6fc9060440160206040518083038186803b158015610dd457600080fd5b505af4158015610de8573d6000803e3d6000fd5b505050506040513d601f19601f82011682018060405250810190610e0c91906126ad565b80610eb1575073__$364aad554dc80380f414546becdd2c1584$__63fe2710866002610e36611c6b565b6040516001600160e01b031960e085901b168152600481019290925264ffffffffff16602482015260440160206040518083038186803b158015610e7957600080fd5b505af4158015610e8d573d6000803e3d6000fd5b505050506040513d601f19601f82011682018060405250810190610eb191906126ad565b610f1c5760405162461bcd60e51b815260206004820152603660248201527f41432e6f776e65724f72446972656374426f6f6b65657065723a206e6569746860448201527532b91037bbb732b9103737b9103137b7b5b2b2b832b960511b606482015260840161064d565b73__$364aad554dc80380f414546becdd2c1584$__639b4510de600283610f41611c6b565b6040516001600160e01b031960e086901b1681526004810193909352602483019190915264ffffffffff16604482015260640160006040518083038186803b158015610f8c57600080fd5b505af4158015610fa0573d6000803e3d6000fd5b505050507ff2735f34b69be1e6342dea95f9162f84d0db925fab655ca9f1f312ac8cbfc99d81604051610fd591815260200190565b60405180910390a150565b73__$364aad554dc80380f414546becdd2c1584$__63a8ef95ac6002684174746f726e65797360b81b611011611c6b565b6040516001600160e01b031960e086901b1681526004810193909352602483019190915264ffffffffff16604482015260640160206040518083038186803b15801561105c57600080fd5b505af4158015611070573d6000803e3d6000fd5b505050506040513d601f19601f8201168201806040525081019061109491906126ad565b6110b05760405162461bcd60e51b815260040161064d906126cf565b6040516392fd02df60e01b8152600560048201526024810182905273__$8c1a4844a0a0988ea2454cf87145a95df1$__906392fd02df9060440160206040518083038186803b15801561110257600080fd5b505af4158015611116573d6000803e3d6000fd5b505050506040513d601f19601f8201168201806040525081019061113a91906126ad565b15611173576000818152600460205260408120805465ffffffffffff19168155906001820181818161116c8282612139565b5050505050505b50565b73__$364aad554dc80380f414546becdd2c1584$__63ee98b31360028484610595611c6b565b6000816111a8816116ea565b6111c45760405162461bcd60e51b815260040161064d90612676565b505060009081526004602052604090205462010000900463ffffffff1690565b6040516320bf56eb60e21b81526004810183905260009081906001600160a01b038616906382fd5bac906024016101e06040518083038186803b15801561122a57600080fd5b505afa15801561123e573d6000803e3d6000fd5b505050506040513d601f19601f8201168201806040525081019061126291906128b0565b90506000600160009054906101000a90046001600160a01b03166001600160a01b031663f01e100f6040518163ffffffff1660e01b815260040160206040518083038186803b1580156112b457600080fd5b505afa1580156112c8573d6000803e3d6000fd5b505050506040513d601f19601f820116820180604052508101906112ec91906126fc565b6001600160a01b031663cfb5a5f8856040518263ffffffff1660e01b815260040161131991815260200190565b6101e06040518083038186803b15801561133257600080fd5b505afa158015611346573d6000803e3d6000fd5b505050506040513d601f19601f8201168201806040525081019061136a9190612a54565b9050600061138382600001516040015161ffff1661119c565b835160c0015163ffffffff91821692501681116113e25760405162461bcd60e51b815260206004820152601b60248201527f41442e47503a20616452756c65206e6f74207472696767657265640000000000604482015260640161064d565b6020808301510151835160c0015163ffffffff166114008383612b51565b61140a9190612b80565b610a219190612bb4565b604051630f07232560e01b8152600260048201526001600160a01b038216602482015233604482015273__$364aad554dc80380f414546becdd2c1584$__90630f0723259060640160006040518083038186803b15801561147457600080fd5b505af4158015611488573d6000803e3d6000fd5b50506040516001600160a01b03841681527fe435cbeab64e4eae6497b9d8289704bd709d624a80704ef3ca9af777534bc6ec92506020019050610fd5565b604051632a3be56b60e21b815260026004820152602481018390526044810182905260009073__$364aad554dc80380f414546becdd2c1584$__9063a8ef95ac90606401610ca1565b73__$364aad554dc80380f414546becdd2c1584$__639b48160c600283611534611c6b565b6040516001600160e01b031960e086901b1681526004810193909352602483019190915264ffffffffff16604482015260640160006040518083038186803b15801561157f57600080fd5b505af4158015611593573d6000803e3d6000fd5b505050507f8b6f40f36b4ae8cc5f55e895036457c43da4ab1f80f58c46f5ff0d72a650033b81604051610fd591815260200190565b60405163987ad15360e01b81526002600482015260009073__$364aad554dc80380f414546becdd2c1584$__9063987ad1539060240161051f565b73__$364aad554dc80380f414546becdd2c1584$__63cc0d511b600283610d1d611c6b565b606081611634816116ea565b6116505760405162461bcd60e51b815260040161064d90612676565b600083815260046020819052604091829020915163034306e160e21b815260019092019082015273__$8c1a4844a0a0988ea2454cf87145a95df1$__90630d0c1b849060240160006040518083038186803b1580156116ae57600080fd5b505af41580156116c2573d6000803e3d6000fd5b505050506040513d6000823e601f3d908101601f19168201604052610cf19190810190612612565b604051633f5f77cd60e01b8152600560048201526024810182905260009073__$8c1a4844a0a0988ea2454cf87145a95df1$__90633f5f77cd9060440160206040518083038186803b15801561173f57600080fd5b505af4158015611753573d6000803e3d6000fd5b505050506040513d601f19601f820116820180604052508101906104e291906126ad565b81611781816116ea565b61179d5760405162461bcd60e51b815260040161064d90612676565b73__$364aad554dc80380f414546becdd2c1584$__63a8ef95ac6002684174746f726e65797360b81b6117ce611c6b565b6040516001600160e01b031960e086901b1681526004810193909352602483019190915264ffffffffff16604482015260640160206040518083038186803b15801561181957600080fd5b505af415801561182d573d6000803e3d6000fd5b505050506040513d601f19601f8201168201806040525081019061185191906126ad565b61186d5760405162461bcd60e51b815260040161064d906126cf565b60008381526004602081905260409182902091516392fd02df60e01b81526001909201908201526024810183905273__$8c1a4844a0a0988ea2454cf87145a95df1$__906392fd02df90604401610774565b604051636cdd0edf60e11b815260026004820152602481018590526001600160a01b038416604482015273__$364aad554dc80380f414546becdd2c1584$__9063d9ba1dbe9060640160006040518083038186803b15801561192057600080fd5b505af4158015611934573d6000803e3d6000fd5b505050506119418261204b565b61194a816120be565b604080518581526001600160a01b038581166020830152848116828401528316606082015290517f3abb2418c66fe32ba9c883030a75ce583971d9af9192b9b74e44e67c5e6c8c1f9181900360800190a150505050565b604051633c3e56c160e11b81526002600482015260009073__$364aad554dc80380f414546becdd2c1584$__9063787cad829060240160206040518083038186803b1580156119ef57600080fd5b505af4158015611a03573d6000803e3d6000fd5b505050506040513d601f19601f8201168201806040525081019061048691906126fc565b600254600160f01b900460ff16600114611a835760405162461bcd60e51b815260206004820152601760248201527f41432e4c433a20446f632069732066696e616c697a6564000000000000000000604482015260640161064d565b73__$364aad554dc80380f414546becdd2c1584$__63c51b295f6002684174746f726e65797360b81b611ab4611c6b565b6040516001600160e01b031960e086901b1681526004810193909352602483019190915264ffffffffff16604482015260640160006040518083038186803b158015611aff57600080fd5b505af4158015611b13573d6000803e3d6000fd5b50505050600273__$364aad554dc80380f414546becdd2c1584$__639b4510de90916000611b3f611c6b565b6040516001600160e01b031960e086901b1681526004810193909352602483019190915264ffffffffff16604482015260640160006040518083038186803b158015611b8a57600080fd5b505af4158015611b9e573d6000803e3d6000fd5b50505050600273__$364aad554dc80380f414546becdd2c1584$__639b48160c90916000611bca611c6b565b6040516001600160e01b031960e086901b1681526004810193909352602483019190915264ffffffffff16604482015260640160006040518083038186803b158015611c1557600080fd5b505af4158015611c29573d6000803e3d6000fd5b50506002805460ff60f01b1916600160f11b17905550506040517f35012b512309c322acf68632cd6cb702ff0e1d776fbe9394e38ffc13b434fe7590600090a1565b60008054604051636ae3b70d60e11b81523360048201526001600160a01b039091169063d5c76e1a90602401602060405180830381600087803b158015611cb157600080fd5b505af115801561054b573d6000803e3d6000fd5b6000815160001415611d245760405162461bcd60e51b815260206004820152602260248201527f41442e69734578656d707465643a207a65726f20636f6e73656e745061727469604482015261657360f01b606482015260840161064d565b60405163c2b46a8560e01b81526005600482015260009073__$8c1a4844a0a0988ea2454cf87145a95df1$__9063c2b46a859060240160206040518083038186803b158015611d7257600080fd5b505af4158015611d86573d6000803e3d6000fd5b505050506040513d601f19601f82011682018060405250810190611daa9190612bdc565b90505b801561204157600073__$8c1a4844a0a0988ea2454cf87145a95df1$__63ef6982f06005611ddc600186612bf5565b6040516001600160e01b031960e085901b1681526004810192909252602482015260440160206040518083038186803b158015611e1857600080fd5b505af4158015611e2c573d6000803e3d6000fd5b505050506040513d601f19601f82011682018060405250810190611e509190612bdc565b61ffff811660009081526004602052604090205490915063ffffffff8087166201000090920416111561202e57600154604080516319fdcb7760e11b815290516000926001600160a01b0316916333fb96ee916004808301926020929190829003018186803b158015611ec257600080fd5b505afa158015611ed6573d6000803e3d6000fd5b505050506040513d601f19601f82011682018060405250810190611efa91906126fc565b6040516321f55b9f60e11b815261ffff841660048201526001600160a01b0391909116906343eab73e9060240160006040518083038186803b158015611f3f57600080fd5b505afa158015611f53573d6000803e3d6000fd5b505050506040513d6000823e601f3d908101601f19168201604052611f7b9190810190612612565b9050845181511115611f9357600093505050506104e2565b604051638410a30d60e01b815273__$ccb256085f563a601d001f7c9087d87207$__90638410a30d90611fcc90849089906004016127f1565b60206040518083038186803b158015611fe457600080fd5b505af4158015611ff8573d6000803e3d6000fd5b505050506040513d601f19601f8201168201806040525081019061201c91906126ad565b61202c57600093505050506104e2565b505b8161203881612c0c565b92505050611dad565b5060019392505050565b6000546001600160a01b03161561209c5760405162461bcd60e51b815260206004820152601560248201527430b63932b0b23c9039b2ba103932b3a1b2b73a32b960591b604482015260640161064d565b600080546001600160a01b0319166001600160a01b0392909216919091179055565b6001546001600160a01b0316156121175760405162461bcd60e51b815260206004820152601960248201527f616c7265616479207365742067656e6572616c4b656570657200000000000000604482015260640161064d565b600180546001600160a01b0319166001600160a01b0392909216919091179055565b508054600082559060005260206000209081019061117391905b808211156121675760008155600101612153565b5090565b6020808252825182820181905260009190848201906040850190845b818110156121a357835183529284019291840191600101612187565b50909695505050505050565b6001600160a01b038116811461117357600080fd5b634e487b7160e01b600052604160045260246000fd5b60405160a081016001600160401b03811182821017156121fc576121fc6121c4565b60405290565b604051606081016001600160401b03811182821017156121fc576121fc6121c4565b60405161012081016001600160401b03811182821017156121fc576121fc6121c4565b604080519081016001600160401b03811182821017156121fc576121fc6121c4565b60ff8116811461117357600080fd5b803561228381612269565b919050565b61ffff8116811461117357600080fd5b803561228381612288565b63ffffffff8116811461117357600080fd5b8035612283816122a3565b64ffffffffff8116811461117357600080fd5b8035612283816122c0565b65ffffffffffff8116811461117357600080fd5b8035612283816122de565b6001600160401b038116811461117357600080fd5b600060a0828403121561232457600080fd5b61232c6121da565b90508135612339816122c0565b81526020820135612349816122c0565b6020820152604082013561235c816122fd565b6040820152606082013561236f816122fd565b6060820152608082013561238281612269565b608082015292915050565b6000808284036102008112156123a257600080fd5b83356123ad816121af565b9250601f19016101e0808212156123c357600080fd5b6123cb612202565b610120808412156123db57600080fd5b6123e3612224565b93506123f160208801612278565b84526123ff60408801612298565b602085015261241060608801612298565b604085015261242160808801612298565b606085015261243260a088016122b5565b608085015261244360c088016122d3565b60a085015261245460e088016122b5565b60c08501526101006124678189016122b5565b60e08601526124778289016122f2565b908501525082815261248d876101408801612312565b6020820152940135604085015250909391925050565b600080604083850312156124b657600080fd5b50508035926020909101359150565b6000602082840312156124d757600080fd5b5035919050565b6000806000606084860312156124f357600080fd5b83356124fe816121af565b95602085013595506040909401359392505050565b60006020828403121561252557600080fd5b8135610cf1816121af565b6000806000806080858703121561254657600080fd5b843593506020850135612558816121af565b92506040850135612568816121af565b91506060850135612578816121af565b939692955090935050565b600082601f83011261259457600080fd5b815160206001600160401b03808311156125b0576125b06121c4565b8260051b604051601f19603f830116810181811084821117156125d5576125d56121c4565b6040529384528581018301938381019250878511156125f357600080fd5b83870191505b84821015610a21578151835291830191908301906125f9565b60006020828403121561262457600080fd5b81516001600160401b0381111561263a57600080fd5b61264684828501612583565b949350505050565b8051612283816122c0565b60006020828403121561266b57600080fd5b8151610cf1816122c0565b6020808252601a908201527f41442e6d662e4f4d3a20636c617373206e6f74206d61726b6564000000000000604082015260600190565b6000602082840312156126bf57600080fd5b81518015158114610cf157600080fd5b60208082526013908201527241432e6f743a206e6f74204174746f726e657960681b604082015260600190565b60006020828403121561270e57600080fd5b8151610cf1816121af565b8051612283816122a3565b60006020828403121561273657600080fd5b81516001600160401b038082111561274d57600080fd5b908301906060828603121561276157600080fd5b612769612202565b8251612774816122a3565b81526020830151612784816122fd565b602082015260408301518281111561279b57600080fd5b6127a787828601612583565b60408301525095945050505050565b600081518084526020808501945080840160005b838110156127e6578151875295820195908201906001016127ca565b509495945050505050565b60408152600061280460408301856127b6565b828103602084015261281681856127b6565b95945050505050565b805161228381612269565b805161228381612288565b8051612283816122de565b600060a0828403121561285257600080fd5b61285a6121da565b90508151612867816122c0565b81526020820151612877816122c0565b6020820152604082015161288a816122fd565b6040820152606082015161289d816122fd565b6060820152608082015161238281612269565b60008183036101e08112156128c457600080fd5b6128cc612202565b610120808312156128dc57600080fd5b6128e4612224565b92506128ef8561281f565b83526128fd6020860161282a565b602084015261290e6040860161282a565b604084015261291f6060860161282a565b606084015261293060808601612719565b608084015261294160a0860161264e565b60a084015261295260c08601612719565b60c084015261296360e08601612719565b60e0840152610100612976818701612835565b9084015282825261298986868301612840565b6020830152506101c093909301516040840152509092915050565b600060c082840312156129b657600080fd5b60405160c081018181106001600160401b03821117156129d8576129d86121c4565b806040525080915082516129eb816122de565b815260208301516129fb816122fd565b60208201526040830151612a0e816122fd565b60408201526060830151612a21816122fd565b60608201526080830151612a3481612269565b608082015260a0830151612a4781612269565b60a0919091015292915050565b60008183036101e0811215612a6857600080fd5b612a70612247565b61012080831215612a8057600080fd5b612a88612224565b9250612a9385612719565b8352612aa160208601612719565b6020840152612ab26040860161282a565b6040840152612ac360608601612835565b6060840152612ad46080860161264e565b6080840152612ae560a08601612719565b60a0840152612af660c08601612719565b60c0840152612b0760e0860161282a565b60e0840152610100612b1a81870161281f565b90840152828252612b2d868683016129a4565b602083015250949350505050565b634e487b7160e01b600052601160045260246000fd5b60006001600160401b0380831681851681830481118215151615612b7757612b77612b3b565b02949350505050565b60006001600160401b0380841680612ba857634e487b7160e01b600052601260045260246000fd5b92169190910492915050565b60006001600160401b0383811690831681811015612bd457612bd4612b3b565b039392505050565b600060208284031215612bee57600080fd5b5051919050565b600082821015612c0757612c07612b3b565b500390565b600081612c1b57612c1b612b3b565b50600019019056fea2646970667358221220a7b988abe057d30d23968c00fe321edbb45725b63eb11bc2374e3e300264249564736f6c63430008080033",
    "sourcePath": "/Users/kaptain/github.com/hardhat/comboox/contracts/books/boh/terms/AntiDilution.sol",
    "compiler": {
        "name": "solc",
        "version": "0.8.8+commit.dddeac2f"
    },
    "functionHashes": {
        "abandonRole(bytes32)": "3da9a600",
        "addBenchmark(uint256,uint256)": "35a7bb44",
        "addObligor(uint256,uint256)": "20a390b1",
        "finalized()": "b3f05b97",
        "getBookeeper()": "ed211023",
        "getClasses()": "0193a955",
        "getFloorPriceOfClass(uint256)": "5b54d12f",
        "getGeneralCounsel()": "103f6edd",
        "getGiftPaid(address,uint256,uint256)": "67e25418",
        "getObligorsOfAD(uint256)": "a31da53b",
        "getOwner()": "893d20e8",
        "grantRole(bytes32,uint256)": "1b6ea9f9",
        "hasRole(bytes32,uint256)": "7e063c5a",
        "init(uint256,address,address,address)": "dc890da9",
        "isExempted(address,((uint8,uint16,uint16,uint16,uint32,uint40,uint32,uint32,uint48),(uint40,uint40,uint64,uint64,uint8),bytes32))": "237006e0",
        "isMarked(uint256)": "a4fb56f1",
        "isObligor(uint256,uint256)": "3bce3c30",
        "isTriggered(address,((uint8,uint16,uint16,uint16,uint32,uint40,uint32,uint32,uint48),(uint40,uint40,uint64,uint64,uint8),bytes32))": "06c4b208",
        "lockContents()": "f045a769",
        "removeBenchmark(uint256)": "4bcfb733",
        "removeObligor(uint256,uint256)": "a9c4133c",
        "renounceRole(bytes32)": "8bb9c5bf",
        "revokeRole(bytes32,uint256)": "19d61ad9",
        "setDirectKeeper(address)": "6be8496f",
        "setGeneralCounsel(uint256)": "4a14beb1",
        "setOwner(uint256)": "8041494e",
        "setRoleAdmin(bytes32,uint256)": "5171ebd4"
    },
    "gasEstimates": {
        "creation": {
            "codeDepositCost": "2270600",
            "executionCost": "2427",
            "totalCost": "2273027"
        },
        "external": {
            "abandonRole(bytes32)": "infinite",
            "addBenchmark(uint256,uint256)": "infinite",
            "addObligor(uint256,uint256)": "infinite",
            "finalized()": "2371",
            "getBookeeper()": "infinite",
            "getClasses()": "infinite",
            "getFloorPriceOfClass(uint256)": "infinite",
            "getGeneralCounsel()": "infinite",
            "getGiftPaid(address,uint256,uint256)": "infinite",
            "getObligorsOfAD(uint256)": "infinite",
            "getOwner()": "infinite",
            "grantRole(bytes32,uint256)": "infinite",
            "hasRole(bytes32,uint256)": "infinite",
            "init(uint256,address,address,address)": "infinite",
            "isExempted(address,((uint8,uint16,uint16,uint16,uint32,uint40,uint32,uint32,uint48),(uint40,uint40,uint64,uint64,uint8),bytes32))": "infinite",
            "isMarked(uint256)": "infinite",
            "isObligor(uint256,uint256)": "infinite",
            "isTriggered(address,((uint8,uint16,uint16,uint16,uint32,uint40,uint32,uint32,uint48),(uint40,uint40,uint64,uint64,uint8),bytes32))": "infinite",
            "lockContents()": "infinite",
            "removeBenchmark(uint256)": "infinite",
            "removeObligor(uint256,uint256)": "infinite",
            "renounceRole(bytes32)": "infinite",
            "revokeRole(bytes32,uint256)": "infinite",
            "setDirectKeeper(address)": "infinite",
            "setGeneralCounsel(uint256)": "infinite",
            "setOwner(uint256)": "infinite",
            "setRoleAdmin(bytes32,uint256)": "infinite"
        },
        "internal": {
            "_isExempted(uint32,uint256[] memory)": "infinite"
        }
    }
}