{
    "contractName": "AntiDilution",
    "abi": [
        {
            "anonymous": false,
            "inputs": [
                {
                    "indexed": false,
                    "internalType": "uint256",
                    "name": "owner",
                    "type": "uint256"
                },
                {
                    "indexed": false,
                    "internalType": "address",
                    "name": "directKeeper",
                    "type": "address"
                },
                {
                    "indexed": false,
                    "internalType": "address",
                    "name": "regCenter",
                    "type": "address"
                },
                {
                    "indexed": false,
                    "internalType": "address",
                    "name": "generalKeeper",
                    "type": "address"
                }
            ],
            "name": "Init",
            "type": "event"
        },
        {
            "anonymous": false,
            "inputs": [],
            "name": "LockContents",
            "type": "event"
        },
        {
            "anonymous": false,
            "inputs": [
                {
                    "indexed": false,
                    "internalType": "uint256",
                    "name": "title",
                    "type": "uint256"
                },
                {
                    "indexed": false,
                    "internalType": "address",
                    "name": "book",
                    "type": "address"
                }
            ],
            "name": "SetBookRuting",
            "type": "event"
        },
        {
            "anonymous": false,
            "inputs": [
                {
                    "indexed": false,
                    "internalType": "address",
                    "name": "keeper",
                    "type": "address"
                }
            ],
            "name": "SetDirectKeeper",
            "type": "event"
        },
        {
            "anonymous": false,
            "inputs": [
                {
                    "indexed": false,
                    "internalType": "uint256",
                    "name": "acct",
                    "type": "uint256"
                }
            ],
            "name": "SetGeneralCounsel",
            "type": "event"
        },
        {
            "anonymous": false,
            "inputs": [
                {
                    "indexed": false,
                    "internalType": "address",
                    "name": "gk",
                    "type": "address"
                }
            ],
            "name": "SetGeneralKeeper",
            "type": "event"
        },
        {
            "anonymous": false,
            "inputs": [
                {
                    "indexed": false,
                    "internalType": "uint256",
                    "name": "acct",
                    "type": "uint256"
                }
            ],
            "name": "SetOwner",
            "type": "event"
        },
        {
            "anonymous": false,
            "inputs": [
                {
                    "indexed": false,
                    "internalType": "address",
                    "name": "rc",
                    "type": "address"
                }
            ],
            "name": "SetRegCenter",
            "type": "event"
        },
        {
            "inputs": [
                {
                    "internalType": "bytes32",
                    "name": "role",
                    "type": "bytes32"
                }
            ],
            "name": "abandonRole",
            "outputs": [],
            "stateMutability": "nonpayable",
            "type": "function"
        },
        {
            "inputs": [
                {
                    "internalType": "uint256",
                    "name": "class",
                    "type": "uint256"
                },
                {
                    "internalType": "uint32",
                    "name": "price",
                    "type": "uint32"
                }
            ],
            "name": "addBenchmark",
            "outputs": [],
            "stateMutability": "nonpayable",
            "type": "function"
        },
        {
            "inputs": [
                {
                    "internalType": "uint256",
                    "name": "class",
                    "type": "uint256"
                },
                {
                    "internalType": "uint256",
                    "name": "obligor",
                    "type": "uint256"
                }
            ],
            "name": "addObligor",
            "outputs": [],
            "stateMutability": "nonpayable",
            "type": "function"
        },
        {
            "inputs": [],
            "name": "finalized",
            "outputs": [
                {
                    "internalType": "bool",
                    "name": "",
                    "type": "bool"
                }
            ],
            "stateMutability": "view",
            "type": "function"
        },
        {
            "inputs": [],
            "name": "getBookeeper",
            "outputs": [
                {
                    "internalType": "address",
                    "name": "",
                    "type": "address"
                }
            ],
            "stateMutability": "view",
            "type": "function"
        },
        {
            "inputs": [],
            "name": "getClasses",
            "outputs": [
                {
                    "internalType": "uint256[]",
                    "name": "",
                    "type": "uint256[]"
                }
            ],
            "stateMutability": "view",
            "type": "function"
        },
        {
            "inputs": [
                {
                    "internalType": "uint256",
                    "name": "class",
                    "type": "uint256"
                }
            ],
            "name": "getFloorPriceOfClass",
            "outputs": [
                {
                    "internalType": "uint64",
                    "name": "price",
                    "type": "uint64"
                }
            ],
            "stateMutability": "view",
            "type": "function"
        },
        {
            "inputs": [],
            "name": "getGeneralCounsel",
            "outputs": [
                {
                    "internalType": "uint40",
                    "name": "",
                    "type": "uint40"
                }
            ],
            "stateMutability": "view",
            "type": "function"
        },
        {
            "inputs": [
                {
                    "internalType": "address",
                    "name": "ia",
                    "type": "address"
                },
                {
                    "internalType": "uint256",
                    "name": "seqOfDeal",
                    "type": "uint256"
                },
                {
                    "internalType": "uint256",
                    "name": "seqOfShare",
                    "type": "uint256"
                }
            ],
            "name": "getGiftPaid",
            "outputs": [
                {
                    "internalType": "uint64",
                    "name": "gift",
                    "type": "uint64"
                }
            ],
            "stateMutability": "view",
            "type": "function"
        },
        {
            "inputs": [
                {
                    "internalType": "uint256",
                    "name": "class",
                    "type": "uint256"
                }
            ],
            "name": "getObligorsOfAD",
            "outputs": [
                {
                    "internalType": "uint256[]",
                    "name": "",
                    "type": "uint256[]"
                }
            ],
            "stateMutability": "view",
            "type": "function"
        },
        {
            "inputs": [],
            "name": "getOwner",
            "outputs": [
                {
                    "internalType": "uint40",
                    "name": "",
                    "type": "uint40"
                }
            ],
            "stateMutability": "view",
            "type": "function"
        },
        {
            "inputs": [
                {
                    "internalType": "bytes32",
                    "name": "role",
                    "type": "bytes32"
                },
                {
                    "internalType": "uint256",
                    "name": "acct",
                    "type": "uint256"
                }
            ],
            "name": "grantRole",
            "outputs": [],
            "stateMutability": "nonpayable",
            "type": "function"
        },
        {
            "inputs": [
                {
                    "internalType": "bytes32",
                    "name": "role",
                    "type": "bytes32"
                },
                {
                    "internalType": "uint256",
                    "name": "acct",
                    "type": "uint256"
                }
            ],
            "name": "hasRole",
            "outputs": [
                {
                    "internalType": "bool",
                    "name": "",
                    "type": "bool"
                }
            ],
            "stateMutability": "view",
            "type": "function"
        },
        {
            "inputs": [
                {
                    "internalType": "uint256",
                    "name": "owner",
                    "type": "uint256"
                },
                {
                    "internalType": "address",
                    "name": "directKeeper",
                    "type": "address"
                },
                {
                    "internalType": "address",
                    "name": "regCenter",
                    "type": "address"
                },
                {
                    "internalType": "address",
                    "name": "generalKeeper",
                    "type": "address"
                }
            ],
            "name": "init",
            "outputs": [],
            "stateMutability": "nonpayable",
            "type": "function"
        },
        {
            "inputs": [],
            "name": "initBOG",
            "outputs": [],
            "stateMutability": "nonpayable",
            "type": "function"
        },
        {
            "inputs": [],
            "name": "initBOS",
            "outputs": [],
            "stateMutability": "nonpayable",
            "type": "function"
        },
        {
            "inputs": [],
            "name": "initROM",
            "outputs": [],
            "stateMutability": "nonpayable",
            "type": "function"
        },
        {
            "inputs": [
                {
                    "internalType": "address",
                    "name": "ia",
                    "type": "address"
                },
                {
                    "components": [
                        {
                            "components": [
                                {
                                    "internalType": "uint8",
                                    "name": "typeOfDeal",
                                    "type": "uint8"
                                },
                                {
                                    "internalType": "uint16",
                                    "name": "seqOfDeal",
                                    "type": "uint16"
                                },
                                {
                                    "internalType": "uint16",
                                    "name": "preSeq",
                                    "type": "uint16"
                                },
                                {
                                    "internalType": "uint16",
                                    "name": "classOfShare",
                                    "type": "uint16"
                                },
                                {
                                    "internalType": "uint32",
                                    "name": "seqOfShare",
                                    "type": "uint32"
                                },
                                {
                                    "internalType": "uint40",
                                    "name": "seller",
                                    "type": "uint40"
                                },
                                {
                                    "internalType": "uint32",
                                    "name": "priceOfPaid",
                                    "type": "uint32"
                                },
                                {
                                    "internalType": "uint32",
                                    "name": "priceOfPar",
                                    "type": "uint32"
                                },
                                {
                                    "internalType": "uint48",
                                    "name": "closingDate",
                                    "type": "uint48"
                                }
                            ],
                            "internalType": "struct DealsRepo.Head",
                            "name": "head",
                            "type": "tuple"
                        },
                        {
                            "components": [
                                {
                                    "internalType": "uint40",
                                    "name": "buyer",
                                    "type": "uint40"
                                },
                                {
                                    "internalType": "uint40",
                                    "name": "groupOfBuyer",
                                    "type": "uint40"
                                },
                                {
                                    "internalType": "uint64",
                                    "name": "paid",
                                    "type": "uint64"
                                },
                                {
                                    "internalType": "uint64",
                                    "name": "par",
                                    "type": "uint64"
                                },
                                {
                                    "internalType": "uint8",
                                    "name": "state",
                                    "type": "uint8"
                                }
                            ],
                            "internalType": "struct DealsRepo.Body",
                            "name": "body",
                            "type": "tuple"
                        },
                        {
                            "internalType": "bytes32",
                            "name": "hashLock",
                            "type": "bytes32"
                        }
                    ],
                    "internalType": "struct DealsRepo.Deal",
                    "name": "deal",
                    "type": "tuple"
                }
            ],
            "name": "isExempted",
            "outputs": [
                {
                    "internalType": "bool",
                    "name": "",
                    "type": "bool"
                }
            ],
            "stateMutability": "view",
            "type": "function"
        },
        {
            "inputs": [
                {
                    "internalType": "uint256",
                    "name": "class",
                    "type": "uint256"
                }
            ],
            "name": "isMarked",
            "outputs": [
                {
                    "internalType": "bool",
                    "name": "flag",
                    "type": "bool"
                }
            ],
            "stateMutability": "view",
            "type": "function"
        },
        {
            "inputs": [
                {
                    "internalType": "uint256",
                    "name": "class",
                    "type": "uint256"
                },
                {
                    "internalType": "uint256",
                    "name": "acct",
                    "type": "uint256"
                }
            ],
            "name": "isObligor",
            "outputs": [
                {
                    "internalType": "bool",
                    "name": "flag",
                    "type": "bool"
                }
            ],
            "stateMutability": "view",
            "type": "function"
        },
        {
            "inputs": [
                {
                    "internalType": "address",
                    "name": "ia",
                    "type": "address"
                },
                {
                    "components": [
                        {
                            "components": [
                                {
                                    "internalType": "uint8",
                                    "name": "typeOfDeal",
                                    "type": "uint8"
                                },
                                {
                                    "internalType": "uint16",
                                    "name": "seqOfDeal",
                                    "type": "uint16"
                                },
                                {
                                    "internalType": "uint16",
                                    "name": "preSeq",
                                    "type": "uint16"
                                },
                                {
                                    "internalType": "uint16",
                                    "name": "classOfShare",
                                    "type": "uint16"
                                },
                                {
                                    "internalType": "uint32",
                                    "name": "seqOfShare",
                                    "type": "uint32"
                                },
                                {
                                    "internalType": "uint40",
                                    "name": "seller",
                                    "type": "uint40"
                                },
                                {
                                    "internalType": "uint32",
                                    "name": "priceOfPaid",
                                    "type": "uint32"
                                },
                                {
                                    "internalType": "uint32",
                                    "name": "priceOfPar",
                                    "type": "uint32"
                                },
                                {
                                    "internalType": "uint48",
                                    "name": "closingDate",
                                    "type": "uint48"
                                }
                            ],
                            "internalType": "struct DealsRepo.Head",
                            "name": "head",
                            "type": "tuple"
                        },
                        {
                            "components": [
                                {
                                    "internalType": "uint40",
                                    "name": "buyer",
                                    "type": "uint40"
                                },
                                {
                                    "internalType": "uint40",
                                    "name": "groupOfBuyer",
                                    "type": "uint40"
                                },
                                {
                                    "internalType": "uint64",
                                    "name": "paid",
                                    "type": "uint64"
                                },
                                {
                                    "internalType": "uint64",
                                    "name": "par",
                                    "type": "uint64"
                                },
                                {
                                    "internalType": "uint8",
                                    "name": "state",
                                    "type": "uint8"
                                }
                            ],
                            "internalType": "struct DealsRepo.Body",
                            "name": "body",
                            "type": "tuple"
                        },
                        {
                            "internalType": "bytes32",
                            "name": "hashLock",
                            "type": "bytes32"
                        }
                    ],
                    "internalType": "struct DealsRepo.Deal",
                    "name": "deal",
                    "type": "tuple"
                }
            ],
            "name": "isTriggered",
            "outputs": [
                {
                    "internalType": "bool",
                    "name": "",
                    "type": "bool"
                }
            ],
            "stateMutability": "view",
            "type": "function"
        },
        {
            "inputs": [],
            "name": "lockContents",
            "outputs": [],
            "stateMutability": "nonpayable",
            "type": "function"
        },
        {
            "inputs": [
                {
                    "internalType": "uint256",
                    "name": "class",
                    "type": "uint256"
                }
            ],
            "name": "removeBenchmark",
            "outputs": [],
            "stateMutability": "nonpayable",
            "type": "function"
        },
        {
            "inputs": [
                {
                    "internalType": "uint256",
                    "name": "class",
                    "type": "uint256"
                },
                {
                    "internalType": "uint256",
                    "name": "obligor",
                    "type": "uint256"
                }
            ],
            "name": "removeObligor",
            "outputs": [],
            "stateMutability": "nonpayable",
            "type": "function"
        },
        {
            "inputs": [
                {
                    "internalType": "bytes32",
                    "name": "role",
                    "type": "bytes32"
                }
            ],
            "name": "renounceRole",
            "outputs": [],
            "stateMutability": "nonpayable",
            "type": "function"
        },
        {
            "inputs": [
                {
                    "internalType": "bytes32",
                    "name": "role",
                    "type": "bytes32"
                },
                {
                    "internalType": "uint256",
                    "name": "acct",
                    "type": "uint256"
                }
            ],
            "name": "revokeRole",
            "outputs": [],
            "stateMutability": "nonpayable",
            "type": "function"
        },
        {
            "inputs": [
                {
                    "internalType": "address",
                    "name": "keeper",
                    "type": "address"
                }
            ],
            "name": "setDirectKeeper",
            "outputs": [],
            "stateMutability": "nonpayable",
            "type": "function"
        },
        {
            "inputs": [
                {
                    "internalType": "uint256",
                    "name": "acct",
                    "type": "uint256"
                }
            ],
            "name": "setGeneralCounsel",
            "outputs": [],
            "stateMutability": "nonpayable",
            "type": "function"
        },
        {
            "inputs": [
                {
                    "internalType": "uint256",
                    "name": "acct",
                    "type": "uint256"
                }
            ],
            "name": "setOwner",
            "outputs": [],
            "stateMutability": "nonpayable",
            "type": "function"
        },
        {
            "inputs": [
                {
                    "internalType": "bytes32",
                    "name": "role",
                    "type": "bytes32"
                },
                {
                    "internalType": "uint256",
                    "name": "acct",
                    "type": "uint256"
                }
            ],
            "name": "setRoleAdmin",
            "outputs": [],
            "stateMutability": "nonpayable",
            "type": "function"
        }
    ],
    "bytecode": "608060405234801561001057600080fd5b50612fbb806100206000396000f3fe608060405234801561001057600080fd5b50600436106101da5760003560e01c80636825885811610104578063a4fb56f1116100a2578063ea6cfb3e11610071578063ea6cfb3e146103ee578063ed21102314610401578063f045a76914610421578063fa9e79341461042957600080fd5b8063a4fb56f1146103a0578063a9c4133c146103b3578063b3f05b97146103c6578063dc890da9146103db57600080fd5b80638041494e116100de5780638041494e1461035f578063893d20e8146103725780638bb9c5bf1461037a578063a31da53b1461038d57600080fd5b806368258858146103315780636be8496f146103395780637e063c5a1461034c57600080fd5b80633bce3c301161017c5780635171ebd41161014b5780635171ebd4146102d85780635b54d12f146102eb57806362ce0a281461031657806367e254181461031e57600080fd5b80633bce3c301461028c5780633da9a6001461029f5780634a14beb1146102b25780634bcfb733146102c557600080fd5b806319d61ad9116101b857806319d61ad91461023e5780631b6ea9f91461025357806320a390b114610266578063237006e01461027957600080fd5b80630193a955146101df57806306c4b208146101fd578063103f6edd14610220575b600080fd5b6101e7610431565b6040516101f49190612482565b60405180910390f35b61021061020b3660046126c6565b6104c0565b60405190151581526020016101f4565b610228610526565b60405164ffffffffff90911681526020016101f4565b61025161024c3660046127dc565b6105ad565b005b6102516102613660046127dc565b610641565b6102516102743660046127dc565b610666565b6102106102873660046126c6565b610808565b61021061029a3660046127dc565b6109e8565b6102516102ad3660046127fe565b610a8b565b6102516102c03660046127fe565b610b9d565b6102516102d33660046127fe565b610d8d565b6102516102e63660046127dc565b610f27565b6102fe6102f93660046127fe565b610f4c565b6040516001600160401b0390911681526020016101f4565b610251610f97565b6102fe61032c366004612817565b611070565b610251611222565b61025161034736600461284c565b6112f4565b61021061035a3660046127dc565b6113a6565b61025161036d3660046127fe565b6113ef565b6102286115d4565b6102516103883660046127fe565b61160f565b6101e761039b3660046127fe565b611668565b6102106103ae3660046127fe565b611729565b6102516103c13660046127dc565b6117b6565b600554600160f01b900460ff16600214610210565b6102516103e9366004612869565b6118fd565b6102516103fc3660046128bc565b6119e0565b610409611c01565b6040516001600160a01b0390911681526020016101f4565b610251611c87565b610251611ea5565b60405163034306e160e21b81526008600482015260609073__$8c1a4844a0a0988ea2454cf87145a95df1$__90630d0c1b849060240160006040518083038186803b15801561047f57600080fd5b505af4158015610493573d6000803e3d6000fd5b505050506040513d6000823e601f3d908101601f191682016040526104bb919081019061297b565b905090565b80515160009060ff166001146104d857506000610520565b60006104ef83600001516060015161ffff16610f4c565b9050806001600160401b0316836000015160c0015163ffffffff16101561051a576001915050610520565b60009150505b92915050565b60405163e8c0cc1d60e01b81526005600482015260009073__$364aad554dc80380f414546becdd2c1584$__9063e8c0cc1d906024015b60206040518083038186803b15801561057557600080fd5b505af4158015610589573d6000803e3d6000fd5b505050506040513d601f19601f820116820180604052508101906104bb91906129c2565b73__$364aad554dc80380f414546becdd2c1584$__6382daafaa6005846105d2611f78565b6040516001600160e01b031960e086901b1681526004810193909352602483019190915264ffffffffff166044820152606481018490526084015b60006040518083038186803b15801561062557600080fd5b505af4158015610639573d6000803e3d6000fd5b505050505050565b73__$364aad554dc80380f414546becdd2c1584$__636320d75e6005846105d2611f78565b8161067081611729565b6106955760405162461bcd60e51b815260040161068c906129df565b60405180910390fd5b73__$364aad554dc80380f414546becdd2c1584$__63a8ef95ac6005684174746f726e65797360b81b6106c6611f78565b6040516001600160e01b031960e086901b1681526004810193909352602483019190915264ffffffffff16604482015260640160206040518083038186803b15801561071157600080fd5b505af4158015610725573d6000803e3d6000fd5b505050506040513d601f19601f820116820180604052508101906107499190612a16565b6107655760405162461bcd60e51b815260040161068c90612a38565b6000838152600760205260409081902090516392f13c3f60e01b8152600190910160048201526024810183905273__$8c1a4844a0a0988ea2454cf87145a95df1$__906392f13c3f906044015b60206040518083038186803b1580156107ca57600080fd5b505af41580156107de573d6000803e3d6000fd5b505050506040513d601f19601f820116820180604052508101906108029190612a16565b50505050565b600061081483836104c0565b61082057506001610520565b6000836001600160a01b031690506000846001600160a01b031663a8311aa86040518163ffffffff1660e01b815260040160006040518083038186803b15801561086957600080fd5b505afa15801561087d573d6000803e3d6000fd5b505050506040513d6000823e601f3d908101601f191682016040526108a5919081019061297b565b600254604051638d5b658560e01b815260048101859052600160248201529192506000916001600160a01b0390911690638d5b65859060440160006040518083038186803b1580156108f657600080fd5b505afa15801561090a573d6000803e3d6000fd5b505050506040513d6000823e601f3d908101601f191682016040526109329190810190612a70565b60400151905060008273__$ccb256085f563a601d001f7c9087d87207$__63088b9bf69091846040518363ffffffff1660e01b8152600401610975929190612b3d565b60006040518083038186803b15801561098d57600080fd5b505af41580156109a1573d6000803e3d6000fd5b505050506040513d6000823e601f3d908101601f191682016040526109c9919081019061297b565b90506109dd866000015160c0015182611fd2565b979650505050505050565b6000828152600760205260408082209051633f5f77cd60e01b8152600190910160048201526024810183905273__$8c1a4844a0a0988ea2454cf87145a95df1$__90633f5f77cd906044015b60206040518083038186803b158015610a4c57600080fd5b505af4158015610a60573d6000803e3d6000fd5b505050506040513d601f19601f82011682018060405250810190610a849190612a16565b9392505050565b604051633b11adbf60e21b81526005600482015233602482015273__$364aad554dc80380f414546becdd2c1584$__9063ec46b6fc9060440160206040518083038186803b158015610adc57600080fd5b505af4158015610af0573d6000803e3d6000fd5b505050506040513d601f19601f82011682018060405250810190610b149190612a16565b610b305760405162461bcd60e51b815260040161068c90612b6b565b60405163cc99e11b60e01b8152600560048201526024810182905273__$364aad554dc80380f414546becdd2c1584$__9063cc99e11b9060440160006040518083038186803b158015610b8257600080fd5b505af4158015610b96573d6000803e3d6000fd5b5050505050565b604051633b11adbf60e21b81526005600482015233602482015273__$364aad554dc80380f414546becdd2c1584$__9063ec46b6fc9060440160206040518083038186803b158015610bee57600080fd5b505af4158015610c02573d6000803e3d6000fd5b505050506040513d601f19601f82011682018060405250810190610c269190612a16565b80610ccb575073__$364aad554dc80380f414546becdd2c1584$__63fe2710866005610c50611f78565b6040516001600160e01b031960e085901b168152600481019290925264ffffffffff16602482015260440160206040518083038186803b158015610c9357600080fd5b505af4158015610ca7573d6000803e3d6000fd5b505050506040513d601f19601f82011682018060405250810190610ccb9190612a16565b610ce75760405162461bcd60e51b815260040161068c90612bb1565b604051632725ebef60e21b8152600560048201526024810182905273__$364aad554dc80380f414546becdd2c1584$__90639c97afbc9060440160006040518083038186803b158015610d3957600080fd5b505af4158015610d4d573d6000803e3d6000fd5b505050507ff2735f34b69be1e6342dea95f9162f84d0db925fab655ca9f1f312ac8cbfc99d81604051610d8291815260200190565b60405180910390a150565b73__$364aad554dc80380f414546becdd2c1584$__63a8ef95ac6005684174746f726e65797360b81b610dbe611f78565b6040516001600160e01b031960e086901b1681526004810193909352602483019190915264ffffffffff16604482015260640160206040518083038186803b158015610e0957600080fd5b505af4158015610e1d573d6000803e3d6000fd5b505050506040513d601f19601f82011682018060405250810190610e419190612a16565b610e5d5760405162461bcd60e51b815260040161068c90612a38565b6040516392fd02df60e01b8152600860048201526024810182905273__$8c1a4844a0a0988ea2454cf87145a95df1$__906392fd02df9060440160206040518083038186803b158015610eaf57600080fd5b505af4158015610ec3573d6000803e3d6000fd5b505050506040513d601f19601f82011682018060405250810190610ee79190612a16565b15610f24576000818152600760205260408120805469ffffffffffffffffffff191681559060018201818181610f1d8282612450565b5050505050505b50565b73__$364aad554dc80380f414546becdd2c1584$__63ee98b3136005846105d2611f78565b600081610f5881611729565b610f745760405162461bcd60e51b815260040161068c906129df565b50506000908152600760205260409020546201000090046001600160401b031690565b60015460405163e0ff5b8b60e01b8152600660048201526001600160a01b039091169063e0ff5b8b9060240160206040518083038186803b158015610fdb57600080fd5b505afa158015610fef573d6000803e3d6000fd5b505050506040513d601f19601f820116820180604052508101906110139190612c07565b600380546001600160a01b0319166001600160a01b03929092169182179055604080516006815260208101929092527f6aa5e483fe137161b095cd68564a336d1657057f57987b1ae21019134dbc8da291015b60405180910390a1565b6040516320bf56eb60e21b81526004810183905260009081906001600160a01b038616906382fd5bac906024016101e06040518083038186803b1580156110b657600080fd5b505afa1580156110ca573d6000803e3d6000fd5b505050506040513d601f19601f820116820180604052508101906110ee9190612cb5565b6003546040516319f6b4bf60e31b8152600481018690529192506000916001600160a01b039091169063cfb5a5f8906024016101606040518083038186803b15801561113957600080fd5b505afa15801561114d573d6000803e3d6000fd5b505050506040513d601f19601f820116820180604052508101906111719190612de0565b9050600061118a82600001516040015161ffff16610f4c565b835160c0015190915063ffffffff166001600160401b038216116111f05760405162461bcd60e51b815260206004820152601b60248201527f41442e47503a20616452756c65206e6f74207472696767657265640000000000604482015260640161068c565b6020808301510151835160c0015163ffffffff1661120e8383612eb3565b6112189190612ee2565b6109dd9190612f16565b60015460405163e0ff5b8b60e01b8152600260048201526001600160a01b039091169063e0ff5b8b9060240160206040518083038186803b15801561126657600080fd5b505afa15801561127a573d6000803e3d6000fd5b505050506040513d601f19601f8201168201806040525081019061129e9190612c07565b600280546001600160a01b0319166001600160a01b039290921691821781556040805191825260208201929092527f6aa5e483fe137161b095cd68564a336d1657057f57987b1ae21019134dbc8da29101611066565b604051630f07232560e01b8152600560048201523360248201526001600160a01b038216604482015273__$364aad554dc80380f414546becdd2c1584$__90630f0723259060640160006040518083038186803b15801561135457600080fd5b505af4158015611368573d6000803e3d6000fd5b50506040516001600160a01b03841681527fe435cbeab64e4eae6497b9d8289704bd709d624a80704ef3ca9af777534bc6ec92506020019050610d82565b604051632a3be56b60e21b815260056004820152602481018390526044810182905260009073__$364aad554dc80380f414546becdd2c1584$__9063a8ef95ac90606401610a34565b604051633b11adbf60e21b81526005600482015233602482015273__$364aad554dc80380f414546becdd2c1584$__9063ec46b6fc9060440160206040518083038186803b15801561144057600080fd5b505af4158015611454573d6000803e3d6000fd5b505050506040513d601f19601f820116820180604052508101906114789190612a16565b8061151d575073__$364aad554dc80380f414546becdd2c1584$__63fe27108660056114a2611f78565b6040516001600160e01b031960e085901b168152600481019290925264ffffffffff16602482015260440160206040518083038186803b1580156114e557600080fd5b505af41580156114f9573d6000803e3d6000fd5b505050506040513d601f19601f8201168201806040525081019061151d9190612a16565b6115395760405162461bcd60e51b815260040161068c90612bb1565b60405163b6e38a2960e01b8152600560048201526024810182905273__$364aad554dc80380f414546becdd2c1584$__9063b6e38a299060440160006040518083038186803b15801561158b57600080fd5b505af415801561159f573d6000803e3d6000fd5b505050507f8b6f40f36b4ae8cc5f55e895036457c43da4ab1f80f58c46f5ff0d72a650033b81604051610d8291815260200190565b60405163987ad15360e01b81526005600482015260009073__$364aad554dc80380f414546becdd2c1584$__9063987ad1539060240161055d565b6000611619611f78565b60405163cc0d511b60e01b8152600560048201526024810184905264ffffffffff8216604482015290915073__$364aad554dc80380f414546becdd2c1584$__9063cc0d511b9060640161060d565b60608161167481611729565b6116905760405162461bcd60e51b815260040161068c906129df565b60008381526007602052604090819020905163034306e160e21b81526001909101600482015273__$8c1a4844a0a0988ea2454cf87145a95df1$__90630d0c1b849060240160006040518083038186803b1580156116ed57600080fd5b505af4158015611701573d6000803e3d6000fd5b505050506040513d6000823e601f3d908101601f19168201604052610a84919081019061297b565b604051633f5f77cd60e01b8152600860048201526024810182905260009073__$8c1a4844a0a0988ea2454cf87145a95df1$__90633f5f77cd9060440160206040518083038186803b15801561177e57600080fd5b505af4158015611792573d6000803e3d6000fd5b505050506040513d601f19601f820116820180604052508101906105209190612a16565b816117c081611729565b6117dc5760405162461bcd60e51b815260040161068c906129df565b73__$364aad554dc80380f414546becdd2c1584$__63a8ef95ac6005684174746f726e65797360b81b61180d611f78565b6040516001600160e01b031960e086901b1681526004810193909352602483019190915264ffffffffff16604482015260640160206040518083038186803b15801561185857600080fd5b505af415801561186c573d6000803e3d6000fd5b505050506040513d601f19601f820116820180604052508101906118909190612a16565b6118ac5760405162461bcd60e51b815260040161068c90612a38565b6000838152600760205260409081902090516392fd02df60e01b8152600190910160048201526024810183905273__$8c1a4844a0a0988ea2454cf87145a95df1$__906392fd02df906044016107b2565b611906826122ea565b61190f81612399565b604051636cdd0edf60e11b815260056004820152602481018590526001600160a01b038416604482015273__$364aad554dc80380f414546becdd2c1584$__9063d9ba1dbe9060640160006040518083038186803b15801561197057600080fd5b505af4158015611984573d6000803e3d6000fd5b5050604080518781526001600160a01b038781166020830152868116828401528516606082015290517f3abb2418c66fe32ba9c883030a75ce583971d9af9192b9b74e44e67c5e6c8c1f9350908190036080019150a150505050565b73__$364aad554dc80380f414546becdd2c1584$__63a8ef95ac6005684174746f726e65797360b81b611a11611f78565b6040516001600160e01b031960e086901b1681526004810193909352602483019190915264ffffffffff16604482015260640160206040518083038186803b158015611a5c57600080fd5b505af4158015611a70573d6000803e3d6000fd5b505050506040513d601f19601f82011682018060405250810190611a949190612a16565b611ab05760405162461bcd60e51b815260040161068c90612a38565b60008211611af45760405162461bcd60e51b815260206004820152601160248201527041442e41423a207a65726f20636c61737360781b604482015260640161068c565b60008163ffffffff1611611b3e5760405162461bcd60e51b815260206004820152601160248201527041442e41423a207a65726f20707269636560781b604482015260640161068c565b60008281526007602052604090819020805461ffff851669ffffffffffffffffffff199091161763ffffffff84166201000002179055516392f13c3f60e01b8152600860048201526024810183905273__$8c1a4844a0a0988ea2454cf87145a95df1$__906392f13c3f9060440160206040518083038186803b158015611bc457600080fd5b505af4158015611bd8573d6000803e3d6000fd5b505050506040513d601f19601f82011682018060405250810190611bfc9190612a16565b505050565b604051633c3e56c160e11b81526005600482015260009073__$364aad554dc80380f414546becdd2c1584$__9063787cad829060240160206040518083038186803b158015611c4f57600080fd5b505af4158015611c63573d6000803e3d6000fd5b505050506040513d601f19601f820116820180604052508101906104bb9190612c07565b604051633b11adbf60e21b81526005600482015233602482015273__$364aad554dc80380f414546becdd2c1584$__9063ec46b6fc9060440160206040518083038186803b158015611cd857600080fd5b505af4158015611cec573d6000803e3d6000fd5b505050506040513d601f19601f82011682018060405250810190611d109190612a16565b611d2c5760405162461bcd60e51b815260040161068c90612b6b565b600554600160f01b900460ff16600114611d885760405162461bcd60e51b815260206004820181905260248201527f41432e6f6e6c7950656e64696e673a20446f632069732066696e616c697a6564604482015260640161068c565b60405163cc99e11b60e01b815260056004820152684174746f726e65797360b81b602482015273__$364aad554dc80380f414546becdd2c1584$__9063cc99e11b9060440160006040518083038186803b158015611de557600080fd5b505af4158015611df9573d6000803e3d6000fd5b5050604051632725ebef60e21b8152600560048201526000602482015273__$364aad554dc80380f414546becdd2c1584$__9250639c97afbc915060440160006040518083038186803b158015611e4f57600080fd5b505af4158015611e63573d6000803e3d6000fd5b50506005805460ff60f01b1916600160f11b17905550506040517f35012b512309c322acf68632cd6cb702ff0e1d776fbe9394e38ffc13b434fe7590600090a1565b60015460405163e0ff5b8b60e01b8152600760048201526001600160a01b039091169063e0ff5b8b9060240160206040518083038186803b158015611ee957600080fd5b505afa158015611efd573d6000803e3d6000fd5b505050506040513d601f19601f82011682018060405250810190611f219190612c07565b600480546001600160a01b0319166001600160a01b03929092169182179055604080516007815260208101929092527f6aa5e483fe137161b095cd68564a336d1657057f57987b1ae21019134dbc8da29101611066565b60008054604051634de835e760e11b81523360048201526001600160a01b0390911690639bd06bce90602401602060405180830381600087803b158015611fbe57600080fd5b505af1158015610589573d6000803e3d6000fd5b60008151600014156120315760405162461bcd60e51b815260206004820152602260248201527f41442e69734578656d707465643a207a65726f20636f6e73656e745061727469604482015261657360f01b606482015260840161068c565b60405163c2b46a8560e01b81526008600482015260009073__$8c1a4844a0a0988ea2454cf87145a95df1$__9063c2b46a859060240160206040518083038186803b15801561207f57600080fd5b505af4158015612093573d6000803e3d6000fd5b505050506040513d601f19601f820116820180604052508101906120b79190612f3e565b90505b80156122e057600073__$8c1a4844a0a0988ea2454cf87145a95df1$__63ef6982f060086120e9600186612f57565b6040516001600160e01b031960e085901b1681526004810192909252602482015260440160206040518083038186803b15801561212557600080fd5b505af4158015612139573d6000803e3d6000fd5b505050506040513d601f19601f8201168201806040525081019061215d9190612f3e565b61ffff811660009081526007602052604090205490915063ffffffff8616620100009091046001600160401b031611156122cd57600480546040516321f55b9f60e11b815261ffff8416928101929092526000916001600160a01b03909116906343eab73e9060240160006040518083038186803b1580156121de57600080fd5b505afa1580156121f2573d6000803e3d6000fd5b505050506040513d6000823e601f3d908101601f1916820160405261221a919081019061297b565b90508451815111156122325760009350505050610520565b604051638410a30d60e01b815273__$ccb256085f563a601d001f7c9087d87207$__90638410a30d9061226b9084908990600401612b3d565b60206040518083038186803b15801561228357600080fd5b505af4158015612297573d6000803e3d6000fd5b505050506040513d601f19601f820116820180604052508101906122bb9190612a16565b6122cb5760009350505050610520565b505b816122d781612f6e565b925050506120ba565b5060019392505050565b6000546001600160a01b03161561233b5760405162461bcd60e51b815260206004820152601560248201527430b63932b0b23c9039b2ba103932b3a1b2b73a32b960591b604482015260640161068c565b6040516001600160a01b03821681527f318da6c7624c71cbc0afe346c9d8827f119d0ecefb241a7b0c87217a076a8e029060200160405180910390a1600080546001600160a01b0319166001600160a01b0392909216919091179055565b6001546001600160a01b0316156123f25760405162461bcd60e51b815260206004820152601960248201527f616c7265616479207365742067656e6572616c4b656570657200000000000000604482015260640161068c565b6040516001600160a01b03821681527fe513d3e0f0d0a3877029dcc588748679a7a3450ec1ec7ed56d96bd012c3e61aa9060200160405180910390a1600180546001600160a01b0319166001600160a01b0392909216919091179055565b5080546000825590600052602060002090810190610f2491905b8082111561247e576000815560010161246a565b5090565b6020808252825182820181905260009190848201906040850190845b818110156124ba5783518352928401929184019160010161249e565b50909695505050505050565b6001600160a01b0381168114610f2457600080fd5b634e487b7160e01b600052604160045260246000fd5b60405160a081016001600160401b0381118282101715612513576125136124db565b60405290565b604051606081016001600160401b0381118282101715612513576125136124db565b60405161012081016001600160401b0381118282101715612513576125136124db565b604080519081016001600160401b0381118282101715612513576125136124db565b60405160c081016001600160401b0381118282101715612513576125136124db565b60ff81168114610f2457600080fd5b80356125bc816125a2565b919050565b61ffff81168114610f2457600080fd5b80356125bc816125c1565b63ffffffff81168114610f2457600080fd5b80356125bc816125dc565b64ffffffffff81168114610f2457600080fd5b80356125bc816125f9565b65ffffffffffff81168114610f2457600080fd5b80356125bc81612617565b6001600160401b0381168114610f2457600080fd5b600060a0828403121561265d57600080fd5b6126656124f1565b90508135612672816125f9565b81526020820135612682816125f9565b6020820152604082013561269581612636565b604082015260608201356126a881612636565b606082015260808201356126bb816125a2565b608082015292915050565b6000808284036102008112156126db57600080fd5b83356126e6816124c6565b9250601f19016101e0808212156126fc57600080fd5b612704612519565b6101208084121561271457600080fd5b61271c61253b565b935061272a602088016125b1565b8452612738604088016125d1565b6020850152612749606088016125d1565b604085015261275a608088016125d1565b606085015261276b60a088016125ee565b608085015261277c60c0880161260c565b60a085015261278d60e088016125ee565b60c08501526101006127a08189016125ee565b60e08601526127b082890161262b565b90850152508281526127c687610140880161264b565b6020820152940135604085015250909391925050565b600080604083850312156127ef57600080fd5b50508035926020909101359150565b60006020828403121561281057600080fd5b5035919050565b60008060006060848603121561282c57600080fd5b8335612837816124c6565b95602085013595506040909401359392505050565b60006020828403121561285e57600080fd5b8135610a84816124c6565b6000806000806080858703121561287f57600080fd5b843593506020850135612891816124c6565b925060408501356128a1816124c6565b915060608501356128b1816124c6565b939692955090935050565b600080604083850312156128cf57600080fd5b8235915060208301356128e1816125dc565b809150509250929050565b600082601f8301126128fd57600080fd5b815160206001600160401b0380831115612919576129196124db565b8260051b604051601f19603f8301168101818110848211171561293e5761293e6124db565b60405293845285810183019383810192508785111561295c57600080fd5b83870191505b848210156109dd57815183529183019190830190612962565b60006020828403121561298d57600080fd5b81516001600160401b038111156129a357600080fd5b6129af848285016128ec565b949350505050565b80516125bc816125f9565b6000602082840312156129d457600080fd5b8151610a84816125f9565b6020808252601a908201527f41442e6d662e4f4d3a20636c617373206e6f74206d61726b6564000000000000604082015260600190565b600060208284031215612a2857600080fd5b81518015158114610a8457600080fd5b60208082526013908201527241432e6f743a206e6f74204174746f726e657960681b604082015260600190565b80516125bc816125dc565b600060208284031215612a8257600080fd5b81516001600160401b0380821115612a9957600080fd5b9083019060608286031215612aad57600080fd5b612ab5612519565b8251612ac0816125dc565b81526020830151612ad081612636565b6020820152604083015182811115612ae757600080fd5b612af3878286016128ec565b60408301525095945050505050565b600081518084526020808501945080840160005b83811015612b3257815187529582019590820190600101612b16565b509495945050505050565b604081526000612b506040830185612b02565b8281036020840152612b628185612b02565b95945050505050565b60208082526026908201527f41432e6f6e6c794469726563744b65657065723a206e6f74206469726563742060408201526535b2b2b832b960d11b606082015260800190565b60208082526036908201527f41432e6f776e65724f72446972656374426f6f6b65657065723a206e6569746860408201527532b91037bbb732b9103737b9103137b7b5b2b2b832b960511b606082015260800190565b600060208284031215612c1957600080fd5b8151610a84816124c6565b80516125bc816125a2565b80516125bc816125c1565b80516125bc81612617565b600060a08284031215612c5757600080fd5b612c5f6124f1565b90508151612c6c816125f9565b81526020820151612c7c816125f9565b60208201526040820151612c8f81612636565b60408201526060820151612ca281612636565b606082015260808201516126bb816125a2565b60008183036101e0811215612cc957600080fd5b612cd1612519565b61012080831215612ce157600080fd5b612ce961253b565b9250612cf485612c24565b8352612d0260208601612c2f565b6020840152612d1360408601612c2f565b6040840152612d2460608601612c2f565b6060840152612d3560808601612a65565b6080840152612d4660a086016129b7565b60a0840152612d5760c08601612a65565b60c0840152612d6860e08601612a65565b60e0840152610100612d7b818701612c3a565b90840152828252612d8e86868301612c45565b6020830152506101c093909301516040840152509092915050565b600060a08284031215612dbb57600080fd5b612dc36124f1565b90508151612dd081612617565b81526020820151612c7c81612636565b6000818303610160811215612df457600080fd5b612dfc61255e565b60c0821215612e0a57600080fd5b612e12612580565b91508351612e1f816125dc565b82526020840151612e2f816125dc565b60208301526040840151612e42816125c1565b60408301526060840151612e5581612617565b60608301526080840151612e68816125f9565b608083015260a0840151612e7b816125dc565b60a0830152818152612e908560c08601612da9565b6020820152949350505050565b634e487b7160e01b600052601160045260246000fd5b60006001600160401b0380831681851681830481118215151615612ed957612ed9612e9d565b02949350505050565b60006001600160401b0380841680612f0a57634e487b7160e01b600052601260045260246000fd5b92169190910492915050565b60006001600160401b0383811690831681811015612f3657612f36612e9d565b039392505050565b600060208284031215612f5057600080fd5b5051919050565b600082821015612f6957612f69612e9d565b500390565b600081612f7d57612f7d612e9d565b50600019019056fea2646970667358221220e4e2e8dc98eb0cd34d68c24d9105ab4bf24f44fa700a2f9a90d719d08709be3c64736f6c63430008080033",
    "sourcePath": "/Users/kaptain/github.com/hardhat/comboox/contracts/books/boh/terms/AntiDilution.sol",
    "compiler": {
        "name": "solc",
        "version": "0.8.8+commit.dddeac2f"
    },
    "functionHashes": {
        "abandonRole(bytes32)": "3da9a600",
        "addBenchmark(uint256,uint32)": "ea6cfb3e",
        "addObligor(uint256,uint256)": "20a390b1",
        "finalized()": "b3f05b97",
        "getBookeeper()": "ed211023",
        "getClasses()": "0193a955",
        "getFloorPriceOfClass(uint256)": "5b54d12f",
        "getGeneralCounsel()": "103f6edd",
        "getGiftPaid(address,uint256,uint256)": "67e25418",
        "getObligorsOfAD(uint256)": "a31da53b",
        "getOwner()": "893d20e8",
        "grantRole(bytes32,uint256)": "1b6ea9f9",
        "hasRole(bytes32,uint256)": "7e063c5a",
        "init(uint256,address,address,address)": "dc890da9",
        "initBOG()": "68258858",
        "initBOS()": "62ce0a28",
        "initROM()": "fa9e7934",
        "isExempted(address,((uint8,uint16,uint16,uint16,uint32,uint40,uint32,uint32,uint48),(uint40,uint40,uint64,uint64,uint8),bytes32))": "237006e0",
        "isMarked(uint256)": "a4fb56f1",
        "isObligor(uint256,uint256)": "3bce3c30",
        "isTriggered(address,((uint8,uint16,uint16,uint16,uint32,uint40,uint32,uint32,uint48),(uint40,uint40,uint64,uint64,uint8),bytes32))": "06c4b208",
        "lockContents()": "f045a769",
        "removeBenchmark(uint256)": "4bcfb733",
        "removeObligor(uint256,uint256)": "a9c4133c",
        "renounceRole(bytes32)": "8bb9c5bf",
        "revokeRole(bytes32,uint256)": "19d61ad9",
        "setDirectKeeper(address)": "6be8496f",
        "setGeneralCounsel(uint256)": "4a14beb1",
        "setOwner(uint256)": "8041494e",
        "setRoleAdmin(bytes32,uint256)": "5171ebd4"
    },
    "gasEstimates": {
        "creation": {
            "codeDepositCost": "2443800",
            "executionCost": "2628",
            "totalCost": "2446428"
        },
        "external": {
            "abandonRole(bytes32)": "infinite",
            "addBenchmark(uint256,uint32)": "infinite",
            "addObligor(uint256,uint256)": "infinite",
            "finalized()": "2416",
            "getBookeeper()": "infinite",
            "getClasses()": "infinite",
            "getFloorPriceOfClass(uint256)": "infinite",
            "getGeneralCounsel()": "infinite",
            "getGiftPaid(address,uint256,uint256)": "infinite",
            "getObligorsOfAD(uint256)": "infinite",
            "getOwner()": "infinite",
            "grantRole(bytes32,uint256)": "infinite",
            "hasRole(bytes32,uint256)": "infinite",
            "init(uint256,address,address,address)": "infinite",
            "initBOG()": "infinite",
            "initBOS()": "infinite",
            "initROM()": "infinite",
            "isExempted(address,((uint8,uint16,uint16,uint16,uint32,uint40,uint32,uint32,uint48),(uint40,uint40,uint64,uint64,uint8),bytes32))": "infinite",
            "isMarked(uint256)": "infinite",
            "isObligor(uint256,uint256)": "infinite",
            "isTriggered(address,((uint8,uint16,uint16,uint16,uint32,uint40,uint32,uint32,uint48),(uint40,uint40,uint64,uint64,uint8),bytes32))": "infinite",
            "lockContents()": "infinite",
            "removeBenchmark(uint256)": "infinite",
            "removeObligor(uint256,uint256)": "infinite",
            "renounceRole(bytes32)": "infinite",
            "revokeRole(bytes32,uint256)": "infinite",
            "setDirectKeeper(address)": "infinite",
            "setGeneralCounsel(uint256)": "infinite",
            "setOwner(uint256)": "infinite",
            "setRoleAdmin(bytes32,uint256)": "infinite"
        },
        "internal": {
            "_isExempted(uint32,uint256[] memory)": "infinite"
        }
    }
}