{
    "contractName": "AntiDilution",
    "abi": [
        {
            "anonymous": false,
            "inputs": [
                {
                    "indexed": false,
                    "internalType": "uint256",
                    "name": "owner",
                    "type": "uint256"
                },
                {
                    "indexed": false,
                    "internalType": "address",
                    "name": "directKeeper",
                    "type": "address"
                },
                {
                    "indexed": false,
                    "internalType": "address",
                    "name": "regCenter",
                    "type": "address"
                },
                {
                    "indexed": false,
                    "internalType": "address",
                    "name": "generalKeeper",
                    "type": "address"
                }
            ],
            "name": "Init",
            "type": "event"
        },
        {
            "anonymous": false,
            "inputs": [],
            "name": "LockContents",
            "type": "event"
        },
        {
            "anonymous": false,
            "inputs": [
                {
                    "indexed": false,
                    "internalType": "address",
                    "name": "keeper",
                    "type": "address"
                }
            ],
            "name": "SetDirectKeeper",
            "type": "event"
        },
        {
            "anonymous": false,
            "inputs": [
                {
                    "indexed": false,
                    "internalType": "uint256",
                    "name": "acct",
                    "type": "uint256"
                }
            ],
            "name": "SetGeneralCounsel",
            "type": "event"
        },
        {
            "anonymous": false,
            "inputs": [
                {
                    "indexed": false,
                    "internalType": "address",
                    "name": "gk",
                    "type": "address"
                }
            ],
            "name": "SetGeneralKeeper",
            "type": "event"
        },
        {
            "anonymous": false,
            "inputs": [
                {
                    "indexed": false,
                    "internalType": "uint256",
                    "name": "acct",
                    "type": "uint256"
                }
            ],
            "name": "SetOwner",
            "type": "event"
        },
        {
            "anonymous": false,
            "inputs": [
                {
                    "indexed": false,
                    "internalType": "address",
                    "name": "rc",
                    "type": "address"
                }
            ],
            "name": "SetRegCenter",
            "type": "event"
        },
        {
            "inputs": [
                {
                    "internalType": "bytes32",
                    "name": "role",
                    "type": "bytes32"
                }
            ],
            "name": "abandonRole",
            "outputs": [],
            "stateMutability": "nonpayable",
            "type": "function"
        },
        {
            "inputs": [
                {
                    "internalType": "uint256",
                    "name": "class",
                    "type": "uint256"
                },
                {
                    "internalType": "uint32",
                    "name": "price",
                    "type": "uint32"
                }
            ],
            "name": "addBenchmark",
            "outputs": [],
            "stateMutability": "nonpayable",
            "type": "function"
        },
        {
            "inputs": [
                {
                    "internalType": "uint256",
                    "name": "class",
                    "type": "uint256"
                },
                {
                    "internalType": "uint256",
                    "name": "obligor",
                    "type": "uint256"
                }
            ],
            "name": "addObligor",
            "outputs": [],
            "stateMutability": "nonpayable",
            "type": "function"
        },
        {
            "inputs": [],
            "name": "finalized",
            "outputs": [
                {
                    "internalType": "bool",
                    "name": "",
                    "type": "bool"
                }
            ],
            "stateMutability": "view",
            "type": "function"
        },
        {
            "inputs": [],
            "name": "getBookeeper",
            "outputs": [
                {
                    "internalType": "address",
                    "name": "",
                    "type": "address"
                }
            ],
            "stateMutability": "view",
            "type": "function"
        },
        {
            "inputs": [],
            "name": "getClasses",
            "outputs": [
                {
                    "internalType": "uint256[]",
                    "name": "",
                    "type": "uint256[]"
                }
            ],
            "stateMutability": "view",
            "type": "function"
        },
        {
            "inputs": [
                {
                    "internalType": "uint256",
                    "name": "class",
                    "type": "uint256"
                }
            ],
            "name": "getFloorPriceOfClass",
            "outputs": [
                {
                    "internalType": "uint64",
                    "name": "price",
                    "type": "uint64"
                }
            ],
            "stateMutability": "view",
            "type": "function"
        },
        {
            "inputs": [],
            "name": "getGeneralCounsel",
            "outputs": [
                {
                    "internalType": "uint40",
                    "name": "",
                    "type": "uint40"
                }
            ],
            "stateMutability": "view",
            "type": "function"
        },
        {
            "inputs": [
                {
                    "internalType": "address",
                    "name": "ia",
                    "type": "address"
                },
                {
                    "internalType": "uint256",
                    "name": "seqOfDeal",
                    "type": "uint256"
                },
                {
                    "internalType": "uint256",
                    "name": "seqOfShare",
                    "type": "uint256"
                }
            ],
            "name": "getGiftPaid",
            "outputs": [
                {
                    "internalType": "uint64",
                    "name": "gift",
                    "type": "uint64"
                }
            ],
            "stateMutability": "view",
            "type": "function"
        },
        {
            "inputs": [
                {
                    "internalType": "uint256",
                    "name": "class",
                    "type": "uint256"
                }
            ],
            "name": "getObligorsOfAD",
            "outputs": [
                {
                    "internalType": "uint256[]",
                    "name": "",
                    "type": "uint256[]"
                }
            ],
            "stateMutability": "view",
            "type": "function"
        },
        {
            "inputs": [],
            "name": "getOwner",
            "outputs": [
                {
                    "internalType": "uint40",
                    "name": "",
                    "type": "uint40"
                }
            ],
            "stateMutability": "view",
            "type": "function"
        },
        {
            "inputs": [
                {
                    "internalType": "bytes32",
                    "name": "role",
                    "type": "bytes32"
                },
                {
                    "internalType": "uint256",
                    "name": "acct",
                    "type": "uint256"
                }
            ],
            "name": "grantRole",
            "outputs": [],
            "stateMutability": "nonpayable",
            "type": "function"
        },
        {
            "inputs": [
                {
                    "internalType": "bytes32",
                    "name": "role",
                    "type": "bytes32"
                },
                {
                    "internalType": "uint256",
                    "name": "acct",
                    "type": "uint256"
                }
            ],
            "name": "hasRole",
            "outputs": [
                {
                    "internalType": "bool",
                    "name": "",
                    "type": "bool"
                }
            ],
            "stateMutability": "view",
            "type": "function"
        },
        {
            "inputs": [
                {
                    "internalType": "uint256",
                    "name": "owner",
                    "type": "uint256"
                },
                {
                    "internalType": "address",
                    "name": "directKeeper",
                    "type": "address"
                },
                {
                    "internalType": "address",
                    "name": "regCenter",
                    "type": "address"
                },
                {
                    "internalType": "address",
                    "name": "generalKeeper",
                    "type": "address"
                }
            ],
            "name": "init",
            "outputs": [],
            "stateMutability": "nonpayable",
            "type": "function"
        },
        {
            "inputs": [
                {
                    "internalType": "address",
                    "name": "ia",
                    "type": "address"
                },
                {
                    "components": [
                        {
                            "components": [
                                {
                                    "internalType": "uint8",
                                    "name": "typeOfDeal",
                                    "type": "uint8"
                                },
                                {
                                    "internalType": "uint16",
                                    "name": "seqOfDeal",
                                    "type": "uint16"
                                },
                                {
                                    "internalType": "uint16",
                                    "name": "preSeq",
                                    "type": "uint16"
                                },
                                {
                                    "internalType": "uint16",
                                    "name": "classOfShare",
                                    "type": "uint16"
                                },
                                {
                                    "internalType": "uint32",
                                    "name": "seqOfShare",
                                    "type": "uint32"
                                },
                                {
                                    "internalType": "uint40",
                                    "name": "seller",
                                    "type": "uint40"
                                },
                                {
                                    "internalType": "uint32",
                                    "name": "priceOfPaid",
                                    "type": "uint32"
                                },
                                {
                                    "internalType": "uint32",
                                    "name": "priceOfPar",
                                    "type": "uint32"
                                },
                                {
                                    "internalType": "uint48",
                                    "name": "closingDate",
                                    "type": "uint48"
                                }
                            ],
                            "internalType": "struct DealsRepo.Head",
                            "name": "head",
                            "type": "tuple"
                        },
                        {
                            "components": [
                                {
                                    "internalType": "uint40",
                                    "name": "buyer",
                                    "type": "uint40"
                                },
                                {
                                    "internalType": "uint40",
                                    "name": "groupOfBuyer",
                                    "type": "uint40"
                                },
                                {
                                    "internalType": "uint64",
                                    "name": "paid",
                                    "type": "uint64"
                                },
                                {
                                    "internalType": "uint64",
                                    "name": "par",
                                    "type": "uint64"
                                },
                                {
                                    "internalType": "uint8",
                                    "name": "state",
                                    "type": "uint8"
                                }
                            ],
                            "internalType": "struct DealsRepo.Body",
                            "name": "body",
                            "type": "tuple"
                        },
                        {
                            "internalType": "bytes32",
                            "name": "hashLock",
                            "type": "bytes32"
                        }
                    ],
                    "internalType": "struct DealsRepo.Deal",
                    "name": "deal",
                    "type": "tuple"
                }
            ],
            "name": "isExempted",
            "outputs": [
                {
                    "internalType": "bool",
                    "name": "",
                    "type": "bool"
                }
            ],
            "stateMutability": "view",
            "type": "function"
        },
        {
            "inputs": [
                {
                    "internalType": "uint256",
                    "name": "class",
                    "type": "uint256"
                }
            ],
            "name": "isMarked",
            "outputs": [
                {
                    "internalType": "bool",
                    "name": "flag",
                    "type": "bool"
                }
            ],
            "stateMutability": "view",
            "type": "function"
        },
        {
            "inputs": [
                {
                    "internalType": "uint256",
                    "name": "class",
                    "type": "uint256"
                },
                {
                    "internalType": "uint256",
                    "name": "acct",
                    "type": "uint256"
                }
            ],
            "name": "isObligor",
            "outputs": [
                {
                    "internalType": "bool",
                    "name": "flag",
                    "type": "bool"
                }
            ],
            "stateMutability": "view",
            "type": "function"
        },
        {
            "inputs": [
                {
                    "internalType": "address",
                    "name": "ia",
                    "type": "address"
                },
                {
                    "components": [
                        {
                            "components": [
                                {
                                    "internalType": "uint8",
                                    "name": "typeOfDeal",
                                    "type": "uint8"
                                },
                                {
                                    "internalType": "uint16",
                                    "name": "seqOfDeal",
                                    "type": "uint16"
                                },
                                {
                                    "internalType": "uint16",
                                    "name": "preSeq",
                                    "type": "uint16"
                                },
                                {
                                    "internalType": "uint16",
                                    "name": "classOfShare",
                                    "type": "uint16"
                                },
                                {
                                    "internalType": "uint32",
                                    "name": "seqOfShare",
                                    "type": "uint32"
                                },
                                {
                                    "internalType": "uint40",
                                    "name": "seller",
                                    "type": "uint40"
                                },
                                {
                                    "internalType": "uint32",
                                    "name": "priceOfPaid",
                                    "type": "uint32"
                                },
                                {
                                    "internalType": "uint32",
                                    "name": "priceOfPar",
                                    "type": "uint32"
                                },
                                {
                                    "internalType": "uint48",
                                    "name": "closingDate",
                                    "type": "uint48"
                                }
                            ],
                            "internalType": "struct DealsRepo.Head",
                            "name": "head",
                            "type": "tuple"
                        },
                        {
                            "components": [
                                {
                                    "internalType": "uint40",
                                    "name": "buyer",
                                    "type": "uint40"
                                },
                                {
                                    "internalType": "uint40",
                                    "name": "groupOfBuyer",
                                    "type": "uint40"
                                },
                                {
                                    "internalType": "uint64",
                                    "name": "paid",
                                    "type": "uint64"
                                },
                                {
                                    "internalType": "uint64",
                                    "name": "par",
                                    "type": "uint64"
                                },
                                {
                                    "internalType": "uint8",
                                    "name": "state",
                                    "type": "uint8"
                                }
                            ],
                            "internalType": "struct DealsRepo.Body",
                            "name": "body",
                            "type": "tuple"
                        },
                        {
                            "internalType": "bytes32",
                            "name": "hashLock",
                            "type": "bytes32"
                        }
                    ],
                    "internalType": "struct DealsRepo.Deal",
                    "name": "deal",
                    "type": "tuple"
                }
            ],
            "name": "isTriggered",
            "outputs": [
                {
                    "internalType": "bool",
                    "name": "",
                    "type": "bool"
                }
            ],
            "stateMutability": "view",
            "type": "function"
        },
        {
            "inputs": [],
            "name": "lockContents",
            "outputs": [],
            "stateMutability": "nonpayable",
            "type": "function"
        },
        {
            "inputs": [
                {
                    "internalType": "uint256",
                    "name": "class",
                    "type": "uint256"
                }
            ],
            "name": "removeBenchmark",
            "outputs": [],
            "stateMutability": "nonpayable",
            "type": "function"
        },
        {
            "inputs": [
                {
                    "internalType": "uint256",
                    "name": "class",
                    "type": "uint256"
                },
                {
                    "internalType": "uint256",
                    "name": "obligor",
                    "type": "uint256"
                }
            ],
            "name": "removeObligor",
            "outputs": [],
            "stateMutability": "nonpayable",
            "type": "function"
        },
        {
            "inputs": [
                {
                    "internalType": "bytes32",
                    "name": "role",
                    "type": "bytes32"
                }
            ],
            "name": "renounceRole",
            "outputs": [],
            "stateMutability": "nonpayable",
            "type": "function"
        },
        {
            "inputs": [
                {
                    "internalType": "bytes32",
                    "name": "role",
                    "type": "bytes32"
                },
                {
                    "internalType": "uint256",
                    "name": "acct",
                    "type": "uint256"
                }
            ],
            "name": "revokeRole",
            "outputs": [],
            "stateMutability": "nonpayable",
            "type": "function"
        },
        {
            "inputs": [
                {
                    "internalType": "address",
                    "name": "keeper",
                    "type": "address"
                }
            ],
            "name": "setDirectKeeper",
            "outputs": [],
            "stateMutability": "nonpayable",
            "type": "function"
        },
        {
            "inputs": [
                {
                    "internalType": "uint256",
                    "name": "acct",
                    "type": "uint256"
                }
            ],
            "name": "setGeneralCounsel",
            "outputs": [],
            "stateMutability": "nonpayable",
            "type": "function"
        },
        {
            "inputs": [
                {
                    "internalType": "uint256",
                    "name": "acct",
                    "type": "uint256"
                }
            ],
            "name": "setOwner",
            "outputs": [],
            "stateMutability": "nonpayable",
            "type": "function"
        },
        {
            "inputs": [
                {
                    "internalType": "bytes32",
                    "name": "role",
                    "type": "bytes32"
                },
                {
                    "internalType": "uint256",
                    "name": "acct",
                    "type": "uint256"
                }
            ],
            "name": "setRoleAdmin",
            "outputs": [],
            "stateMutability": "nonpayable",
            "type": "function"
        }
    ],
    "bytecode": "608060405234801561001057600080fd5b50612daf806100206000396000f3fe608060405234801561001057600080fd5b50600436106101a95760003560e01c806367e25418116100f9578063a4fb56f111610097578063dc890da911610071578063dc890da914610399578063ea6cfb3e146103ac578063ed211023146103bf578063f045a769146103df57600080fd5b8063a4fb56f11461035f578063a9c4133c14610372578063b3f05b971461038557600080fd5b80638041494e116100d35780638041494e1461031e578063893d20e8146103315780638bb9c5bf14610339578063a31da53b1461034c57600080fd5b806367e25418146102e55780636be8496f146102f85780637e063c5a1461030b57600080fd5b8063237006e0116101665780634a14beb1116101405780634a14beb1146102815780634bcfb733146102945780635171ebd4146102a75780635b54d12f146102ba57600080fd5b8063237006e0146102485780633bce3c301461025b5780633da9a6001461026e57600080fd5b80630193a955146101ae57806306c4b208146101cc578063103f6edd146101ef57806319d61ad91461020d5780631b6ea9f91461022257806320a390b114610235575b600080fd5b6101b66103e7565b6040516101c39190612276565b60405180910390f35b6101df6101da3660046124ba565b610476565b60405190151581526020016101c3565b6101f76104dc565b60405164ffffffffff90911681526020016101c3565b61022061021b3660046125d0565b610563565b005b6102206102303660046125d0565b6105f7565b6102206102433660046125d0565b61061c565b6101df6102563660046124ba565b6107bf565b6101df6102693660046125d0565b6109a3565b61022061027c3660046125f2565b610a4e565b61022061028f3660046125f2565b610b60565b6102206102a23660046125f2565b610d50565b6102206102b53660046125d0565b610eea565b6102cd6102c83660046125f2565b610f0f565b6040516001600160401b0390911681526020016101c3565b6102cd6102f336600461260b565b610f5a565b610220610306366004612640565b611113565b6101df6103193660046125d0565b6111c5565b61022061032c3660046125f2565b61120e565b6101f76113f3565b6102206103473660046125f2565b61142e565b6101b661035a3660046125f2565b611487565b6101df61036d3660046125f2565b611549565b6102206103803660046125d0565b6115d6565b60028054600160f01b900460ff16146101df565b6102206103a736600461265d565b61171e565b6102206103ba3660046126b0565b611801565b6103c7611a2c565b6040516001600160a01b0390911681526020016101c3565b610220611ab2565b60405163034306e160e21b81526005600482015260609073__$8c1a4844a0a0988ea2454cf87145a95df1$__90630d0c1b849060240160006040518083038186803b15801561043557600080fd5b505af4158015610449573d6000803e3d6000fd5b505050506040513d6000823e601f3d908101601f19168201604052610471919081019061276f565b905090565b80515160009060ff1660011461048e575060006104d6565b60006104a583600001516060015161ffff16610f0f565b9050806001600160401b0316836000015160c0015163ffffffff1610156104d05760019150506104d6565b60009150505b92915050565b60405163e8c0cc1d60e01b81526002600482015260009073__$364aad554dc80380f414546becdd2c1584$__9063e8c0cc1d906024015b60206040518083038186803b15801561052b57600080fd5b505af415801561053f573d6000803e3d6000fd5b505050506040513d601f19601f8201168201806040525081019061047191906127b6565b73__$364aad554dc80380f414546becdd2c1584$__6382daafaa600284610588611cd0565b6040516001600160e01b031960e086901b1681526004810193909352602483019190915264ffffffffff166044820152606481018490526084015b60006040518083038186803b1580156105db57600080fd5b505af41580156105ef573d6000803e3d6000fd5b505050505050565b73__$364aad554dc80380f414546becdd2c1584$__636320d75e600284610588611cd0565b8161062681611549565b61064b5760405162461bcd60e51b8152600401610642906127d3565b60405180910390fd5b73__$364aad554dc80380f414546becdd2c1584$__63a8ef95ac6002684174746f726e65797360b81b61067c611cd0565b6040516001600160e01b031960e086901b1681526004810193909352602483019190915264ffffffffff16604482015260640160206040518083038186803b1580156106c757600080fd5b505af41580156106db573d6000803e3d6000fd5b505050506040513d601f19601f820116820180604052508101906106ff919061280a565b61071b5760405162461bcd60e51b81526004016106429061282c565b60008381526004602081905260409182902091516392f13c3f60e01b81526001909201908201526024810183905273__$8c1a4844a0a0988ea2454cf87145a95df1$__906392f13c3f906044015b60206040518083038186803b15801561078157600080fd5b505af4158015610795573d6000803e3d6000fd5b505050506040513d601f19601f820116820180604052508101906107b9919061280a565b50505050565b60006107cb8383610476565b6107d7575060016104d6565b6000836001600160a01b031690506000846001600160a01b031663a8311aa86040518163ffffffff1660e01b815260040160006040518083038186803b15801561082057600080fd5b505afa158015610834573d6000803e3d6000fd5b505050506040513d6000823e601f3d908101601f1916820160405261085c919081019061276f565b90506000610868611d2a565b604051638d5b658560e01b815260048101859052600160248201526001600160a01b039190911690638d5b65859060440160006040518083038186803b1580156108b157600080fd5b505afa1580156108c5573d6000803e3d6000fd5b505050506040513d6000823e601f3d908101601f191682016040526108ed9190810190612864565b60400151905060008273__$ccb256085f563a601d001f7c9087d87207$__63088b9bf69091846040518363ffffffff1660e01b8152600401610930929190612931565b60006040518083038186803b15801561094857600080fd5b505af415801561095c573d6000803e3d6000fd5b505050506040513d6000823e601f3d908101601f19168201604052610984919081019061276f565b9050610998866000015160c0015182611d8e565b979650505050505050565b60008281526004602081905260408083209051633f5f77cd60e01b815273__$8c1a4844a0a0988ea2454cf87145a95df1$__92633f5f77cd926109f792600190910191879101918252602082015260400190565b60206040518083038186803b158015610a0f57600080fd5b505af4158015610a23573d6000803e3d6000fd5b505050506040513d601f19601f82011682018060405250810190610a47919061280a565b9392505050565b604051633b11adbf60e21b81526002600482015233602482015273__$364aad554dc80380f414546becdd2c1584$__9063ec46b6fc9060440160206040518083038186803b158015610a9f57600080fd5b505af4158015610ab3573d6000803e3d6000fd5b505050506040513d601f19601f82011682018060405250810190610ad7919061280a565b610af35760405162461bcd60e51b81526004016106429061295f565b60405163cc99e11b60e01b8152600260048201526024810182905273__$364aad554dc80380f414546becdd2c1584$__9063cc99e11b9060440160006040518083038186803b158015610b4557600080fd5b505af4158015610b59573d6000803e3d6000fd5b5050505050565b604051633b11adbf60e21b81526002600482015233602482015273__$364aad554dc80380f414546becdd2c1584$__9063ec46b6fc9060440160206040518083038186803b158015610bb157600080fd5b505af4158015610bc5573d6000803e3d6000fd5b505050506040513d601f19601f82011682018060405250810190610be9919061280a565b80610c8e575073__$364aad554dc80380f414546becdd2c1584$__63fe2710866002610c13611cd0565b6040516001600160e01b031960e085901b168152600481019290925264ffffffffff16602482015260440160206040518083038186803b158015610c5657600080fd5b505af4158015610c6a573d6000803e3d6000fd5b505050506040513d601f19601f82011682018060405250810190610c8e919061280a565b610caa5760405162461bcd60e51b8152600401610642906129a5565b604051632725ebef60e21b8152600260048201526024810182905273__$364aad554dc80380f414546becdd2c1584$__90639c97afbc9060440160006040518083038186803b158015610cfc57600080fd5b505af4158015610d10573d6000803e3d6000fd5b505050507ff2735f34b69be1e6342dea95f9162f84d0db925fab655ca9f1f312ac8cbfc99d81604051610d4591815260200190565b60405180910390a150565b73__$364aad554dc80380f414546becdd2c1584$__63a8ef95ac6002684174746f726e65797360b81b610d81611cd0565b6040516001600160e01b031960e086901b1681526004810193909352602483019190915264ffffffffff16604482015260640160206040518083038186803b158015610dcc57600080fd5b505af4158015610de0573d6000803e3d6000fd5b505050506040513d601f19601f82011682018060405250810190610e04919061280a565b610e205760405162461bcd60e51b81526004016106429061282c565b6040516392fd02df60e01b8152600560048201526024810182905273__$8c1a4844a0a0988ea2454cf87145a95df1$__906392fd02df9060440160206040518083038186803b158015610e7257600080fd5b505af4158015610e86573d6000803e3d6000fd5b505050506040513d601f19601f82011682018060405250810190610eaa919061280a565b15610ee7576000818152600460205260408120805469ffffffffffffffffffff191681559060018201818181610ee08282612244565b5050505050505b50565b73__$364aad554dc80380f414546becdd2c1584$__63ee98b313600284610588611cd0565b600081610f1b81611549565b610f375760405162461bcd60e51b8152600401610642906127d3565b50506000908152600460205260409020546201000090046001600160401b031690565b6040516320bf56eb60e21b81526004810183905260009081906001600160a01b038616906382fd5bac906024016101e06040518083038186803b158015610fa057600080fd5b505afa158015610fb4573d6000803e3d6000fd5b505050506040513d601f19601f82011682018060405250810190610fd89190612a8c565b90506000610fe46120a8565b6001600160a01b031663cfb5a5f8856040518263ffffffff1660e01b815260040161101191815260200190565b6101606040518083038186803b15801561102a57600080fd5b505afa15801561103e573d6000803e3d6000fd5b505050506040513d601f19601f820116820180604052508101906110629190612bb7565b9050600061107b82600001516040015161ffff16610f0f565b835160c0015190915063ffffffff166001600160401b038216116110e15760405162461bcd60e51b815260206004820152601b60248201527f41442e47503a20616452756c65206e6f742074726967676572656400000000006044820152606401610642565b6020808301510151835160c0015163ffffffff166110ff8383612c8a565b6111099190612cb9565b6109989190612ced565b604051630f07232560e01b8152600260048201523360248201526001600160a01b038216604482015273__$364aad554dc80380f414546becdd2c1584$__90630f0723259060640160006040518083038186803b15801561117357600080fd5b505af4158015611187573d6000803e3d6000fd5b50506040516001600160a01b03841681527fe435cbeab64e4eae6497b9d8289704bd709d624a80704ef3ca9af777534bc6ec92506020019050610d45565b604051632a3be56b60e21b815260026004820152602481018390526044810182905260009073__$364aad554dc80380f414546becdd2c1584$__9063a8ef95ac906064016109f7565b604051633b11adbf60e21b81526002600482015233602482015273__$364aad554dc80380f414546becdd2c1584$__9063ec46b6fc9060440160206040518083038186803b15801561125f57600080fd5b505af4158015611273573d6000803e3d6000fd5b505050506040513d601f19601f82011682018060405250810190611297919061280a565b8061133c575073__$364aad554dc80380f414546becdd2c1584$__63fe27108660026112c1611cd0565b6040516001600160e01b031960e085901b168152600481019290925264ffffffffff16602482015260440160206040518083038186803b15801561130457600080fd5b505af4158015611318573d6000803e3d6000fd5b505050506040513d601f19601f8201168201806040525081019061133c919061280a565b6113585760405162461bcd60e51b8152600401610642906129a5565b60405163b6e38a2960e01b8152600260048201526024810182905273__$364aad554dc80380f414546becdd2c1584$__9063b6e38a299060440160006040518083038186803b1580156113aa57600080fd5b505af41580156113be573d6000803e3d6000fd5b505050507f8b6f40f36b4ae8cc5f55e895036457c43da4ab1f80f58c46f5ff0d72a650033b81604051610d4591815260200190565b60405163987ad15360e01b81526002600482015260009073__$364aad554dc80380f414546becdd2c1584$__9063987ad15390602401610513565b6000611438611cd0565b60405163cc0d511b60e01b8152600260048201526024810184905264ffffffffff8216604482015290915073__$364aad554dc80380f414546becdd2c1584$__9063cc0d511b906064016105c3565b60608161149381611549565b6114af5760405162461bcd60e51b8152600401610642906127d3565b600083815260046020819052604091829020915163034306e160e21b815260019092019082015273__$8c1a4844a0a0988ea2454cf87145a95df1$__90630d0c1b849060240160006040518083038186803b15801561150d57600080fd5b505af4158015611521573d6000803e3d6000fd5b505050506040513d6000823e601f3d908101601f19168201604052610a47919081019061276f565b604051633f5f77cd60e01b8152600560048201526024810182905260009073__$8c1a4844a0a0988ea2454cf87145a95df1$__90633f5f77cd9060440160206040518083038186803b15801561159e57600080fd5b505af41580156115b2573d6000803e3d6000fd5b505050506040513d601f19601f820116820180604052508101906104d6919061280a565b816115e081611549565b6115fc5760405162461bcd60e51b8152600401610642906127d3565b73__$364aad554dc80380f414546becdd2c1584$__63a8ef95ac6002684174746f726e65797360b81b61162d611cd0565b6040516001600160e01b031960e086901b1681526004810193909352602483019190915264ffffffffff16604482015260640160206040518083038186803b15801561167857600080fd5b505af415801561168c573d6000803e3d6000fd5b505050506040513d601f19601f820116820180604052508101906116b0919061280a565b6116cc5760405162461bcd60e51b81526004016106429061282c565b60008381526004602081905260409182902091516392fd02df60e01b81526001909201908201526024810183905273__$8c1a4844a0a0988ea2454cf87145a95df1$__906392fd02df90604401610769565b611727826120c3565b61173081612172565b604051636cdd0edf60e11b815260026004820152602481018590526001600160a01b038416604482015273__$364aad554dc80380f414546becdd2c1584$__9063d9ba1dbe9060640160006040518083038186803b15801561179157600080fd5b505af41580156117a5573d6000803e3d6000fd5b5050604080518781526001600160a01b038781166020830152868116828401528516606082015290517f3abb2418c66fe32ba9c883030a75ce583971d9af9192b9b74e44e67c5e6c8c1f9350908190036080019150a150505050565b73__$364aad554dc80380f414546becdd2c1584$__63a8ef95ac6002684174746f726e65797360b81b611832611cd0565b6040516001600160e01b031960e086901b1681526004810193909352602483019190915264ffffffffff16604482015260640160206040518083038186803b15801561187d57600080fd5b505af4158015611891573d6000803e3d6000fd5b505050506040513d601f19601f820116820180604052508101906118b5919061280a565b6118d15760405162461bcd60e51b81526004016106429061282c565b600082116119155760405162461bcd60e51b815260206004820152601160248201527041442e41423a207a65726f20636c61737360781b6044820152606401610642565b60008163ffffffff161161195f5760405162461bcd60e51b815260206004820152601160248201527041442e41423a207a65726f20707269636560781b6044820152606401610642565b60008281526004602081905260409182902080546201000063ffffffff86160269ffffffffffffffffffff1990911661ffff87161717905590516392f13c3f60e01b815273__$8c1a4844a0a0988ea2454cf87145a95df1$__916392f13c3f916119d791600591879101918252602082015260400190565b60206040518083038186803b1580156119ef57600080fd5b505af4158015611a03573d6000803e3d6000fd5b505050506040513d601f19601f82011682018060405250810190611a27919061280a565b505050565b604051633c3e56c160e11b81526002600482015260009073__$364aad554dc80380f414546becdd2c1584$__9063787cad829060240160206040518083038186803b158015611a7a57600080fd5b505af4158015611a8e573d6000803e3d6000fd5b505050506040513d601f19601f820116820180604052508101906104719190612d15565b604051633b11adbf60e21b81526002600482015233602482015273__$364aad554dc80380f414546becdd2c1584$__9063ec46b6fc9060440160206040518083038186803b158015611b0357600080fd5b505af4158015611b17573d6000803e3d6000fd5b505050506040513d601f19601f82011682018060405250810190611b3b919061280a565b611b575760405162461bcd60e51b81526004016106429061295f565b600254600160f01b900460ff16600114611bb35760405162461bcd60e51b815260206004820181905260248201527f41432e6f6e6c7950656e64696e673a20446f632069732066696e616c697a65646044820152606401610642565b60405163cc99e11b60e01b815260026004820152684174746f726e65797360b81b602482015273__$364aad554dc80380f414546becdd2c1584$__9063cc99e11b9060440160006040518083038186803b158015611c1057600080fd5b505af4158015611c24573d6000803e3d6000fd5b5050604051632725ebef60e21b8152600260048201526000602482015273__$364aad554dc80380f414546becdd2c1584$__9250639c97afbc915060440160006040518083038186803b158015611c7a57600080fd5b505af4158015611c8e573d6000803e3d6000fd5b50506002805460ff60f01b1916600160f11b17905550506040517f35012b512309c322acf68632cd6cb702ff0e1d776fbe9394e38ffc13b434fe7590600090a1565b60008054604051634de835e760e11b81523360048201526001600160a01b0390911690639bd06bce90602401602060405180830381600087803b158015611d1657600080fd5b505af115801561053f573d6000803e3d6000fd5b6001546000906001600160a01b031663e0ff5b8b60025b6040516001600160e01b031960e084901b16815260ff909116600482015260240160206040518083038186803b158015611d7a57600080fd5b505afa158015611a8e573d6000803e3d6000fd5b6000815160001415611ded5760405162461bcd60e51b815260206004820152602260248201527f41442e69734578656d707465643a207a65726f20636f6e73656e745061727469604482015261657360f01b6064820152608401610642565b60405163c2b46a8560e01b81526005600482015260009073__$8c1a4844a0a0988ea2454cf87145a95df1$__9063c2b46a859060240160206040518083038186803b158015611e3b57600080fd5b505af4158015611e4f573d6000803e3d6000fd5b505050506040513d601f19601f82011682018060405250810190611e739190612d32565b90505b801561209e57600073__$8c1a4844a0a0988ea2454cf87145a95df1$__63ef6982f06005611ea5600186612d4b565b6040516001600160e01b031960e085901b1681526004810192909252602482015260440160206040518083038186803b158015611ee157600080fd5b505af4158015611ef5573d6000803e3d6000fd5b505050506040513d601f19601f82011682018060405250810190611f199190612d32565b61ffff811660009081526004602052604090205490915063ffffffff8616620100009091046001600160401b0316111561208b576000611f57612229565b6040516321f55b9f60e11b815261ffff841660048201526001600160a01b0391909116906343eab73e9060240160006040518083038186803b158015611f9c57600080fd5b505afa158015611fb0573d6000803e3d6000fd5b505050506040513d6000823e601f3d908101601f19168201604052611fd8919081019061276f565b9050845181511115611ff057600093505050506104d6565b604051638410a30d60e01b815273__$ccb256085f563a601d001f7c9087d87207$__90638410a30d906120299084908990600401612931565b60206040518083038186803b15801561204157600080fd5b505af4158015612055573d6000803e3d6000fd5b505050506040513d601f19601f82011682018060405250810190612079919061280a565b61208957600093505050506104d6565b505b8161209581612d62565b92505050611e76565b5060019392505050565b6001546000906001600160a01b031663e0ff5b8b6006611d41565b6000546001600160a01b0316156121145760405162461bcd60e51b815260206004820152601560248201527430b63932b0b23c9039b2ba103932b3a1b2b73a32b960591b6044820152606401610642565b6040516001600160a01b03821681527f318da6c7624c71cbc0afe346c9d8827f119d0ecefb241a7b0c87217a076a8e029060200160405180910390a1600080546001600160a01b0319166001600160a01b0392909216919091179055565b6001546001600160a01b0316156121cb5760405162461bcd60e51b815260206004820152601960248201527f616c7265616479207365742067656e6572616c4b6565706572000000000000006044820152606401610642565b6040516001600160a01b03821681527fe513d3e0f0d0a3877029dcc588748679a7a3450ec1ec7ed56d96bd012c3e61aa9060200160405180910390a1600180546001600160a01b0319166001600160a01b0392909216919091179055565b6001546000906001600160a01b031663e0ff5b8b6007611d41565b5080546000825590600052602060002090810190610ee791905b80821115612272576000815560010161225e565b5090565b6020808252825182820181905260009190848201906040850190845b818110156122ae57835183529284019291840191600101612292565b50909695505050505050565b6001600160a01b0381168114610ee757600080fd5b634e487b7160e01b600052604160045260246000fd5b60405160a081016001600160401b0381118282101715612307576123076122cf565b60405290565b604051606081016001600160401b0381118282101715612307576123076122cf565b60405161012081016001600160401b0381118282101715612307576123076122cf565b604080519081016001600160401b0381118282101715612307576123076122cf565b60405160c081016001600160401b0381118282101715612307576123076122cf565b60ff81168114610ee757600080fd5b80356123b081612396565b919050565b61ffff81168114610ee757600080fd5b80356123b0816123b5565b63ffffffff81168114610ee757600080fd5b80356123b0816123d0565b64ffffffffff81168114610ee757600080fd5b80356123b0816123ed565b65ffffffffffff81168114610ee757600080fd5b80356123b08161240b565b6001600160401b0381168114610ee757600080fd5b600060a0828403121561245157600080fd5b6124596122e5565b90508135612466816123ed565b81526020820135612476816123ed565b602082015260408201356124898161242a565b6040820152606082013561249c8161242a565b606082015260808201356124af81612396565b608082015292915050565b6000808284036102008112156124cf57600080fd5b83356124da816122ba565b9250601f19016101e0808212156124f057600080fd5b6124f861230d565b6101208084121561250857600080fd5b61251061232f565b935061251e602088016123a5565b845261252c604088016123c5565b602085015261253d606088016123c5565b604085015261254e608088016123c5565b606085015261255f60a088016123e2565b608085015261257060c08801612400565b60a085015261258160e088016123e2565b60c08501526101006125948189016123e2565b60e08601526125a482890161241f565b90850152508281526125ba87610140880161243f565b6020820152940135604085015250909391925050565b600080604083850312156125e357600080fd5b50508035926020909101359150565b60006020828403121561260457600080fd5b5035919050565b60008060006060848603121561262057600080fd5b833561262b816122ba565b95602085013595506040909401359392505050565b60006020828403121561265257600080fd5b8135610a47816122ba565b6000806000806080858703121561267357600080fd5b843593506020850135612685816122ba565b92506040850135612695816122ba565b915060608501356126a5816122ba565b939692955090935050565b600080604083850312156126c357600080fd5b8235915060208301356126d5816123d0565b809150509250929050565b600082601f8301126126f157600080fd5b815160206001600160401b038083111561270d5761270d6122cf565b8260051b604051601f19603f83011681018181108482111715612732576127326122cf565b60405293845285810183019383810192508785111561275057600080fd5b83870191505b8482101561099857815183529183019190830190612756565b60006020828403121561278157600080fd5b81516001600160401b0381111561279757600080fd5b6127a3848285016126e0565b949350505050565b80516123b0816123ed565b6000602082840312156127c857600080fd5b8151610a47816123ed565b6020808252601a908201527f41442e6d662e4f4d3a20636c617373206e6f74206d61726b6564000000000000604082015260600190565b60006020828403121561281c57600080fd5b81518015158114610a4757600080fd5b60208082526013908201527241432e6f743a206e6f74204174746f726e657960681b604082015260600190565b80516123b0816123d0565b60006020828403121561287657600080fd5b81516001600160401b038082111561288d57600080fd5b90830190606082860312156128a157600080fd5b6128a961230d565b82516128b4816123d0565b815260208301516128c48161242a565b60208201526040830151828111156128db57600080fd5b6128e7878286016126e0565b60408301525095945050505050565b600081518084526020808501945080840160005b838110156129265781518752958201959082019060010161290a565b509495945050505050565b60408152600061294460408301856128f6565b828103602084015261295681856128f6565b95945050505050565b60208082526026908201527f41432e6f6e6c794469726563744b65657065723a206e6f74206469726563742060408201526535b2b2b832b960d11b606082015260800190565b60208082526036908201527f41432e6f776e65724f72446972656374426f6f6b65657065723a206e6569746860408201527532b91037bbb732b9103737b9103137b7b5b2b2b832b960511b606082015260800190565b80516123b081612396565b80516123b0816123b5565b80516123b08161240b565b600060a08284031215612a2e57600080fd5b612a366122e5565b90508151612a43816123ed565b81526020820151612a53816123ed565b60208201526040820151612a668161242a565b60408201526060820151612a798161242a565b606082015260808201516124af81612396565b60008183036101e0811215612aa057600080fd5b612aa861230d565b61012080831215612ab857600080fd5b612ac061232f565b9250612acb856129fb565b8352612ad960208601612a06565b6020840152612aea60408601612a06565b6040840152612afb60608601612a06565b6060840152612b0c60808601612859565b6080840152612b1d60a086016127ab565b60a0840152612b2e60c08601612859565b60c0840152612b3f60e08601612859565b60e0840152610100612b52818701612a11565b90840152828252612b6586868301612a1c565b6020830152506101c093909301516040840152509092915050565b600060a08284031215612b9257600080fd5b612b9a6122e5565b90508151612ba78161240b565b81526020820151612a538161242a565b6000818303610160811215612bcb57600080fd5b612bd3612352565b60c0821215612be157600080fd5b612be9612374565b91508351612bf6816123d0565b82526020840151612c06816123d0565b60208301526040840151612c19816123b5565b60408301526060840151612c2c8161240b565b60608301526080840151612c3f816123ed565b608083015260a0840151612c52816123d0565b60a0830152818152612c678560c08601612b80565b6020820152949350505050565b634e487b7160e01b600052601160045260246000fd5b60006001600160401b0380831681851681830481118215151615612cb057612cb0612c74565b02949350505050565b60006001600160401b0380841680612ce157634e487b7160e01b600052601260045260246000fd5b92169190910492915050565b60006001600160401b0383811690831681811015612d0d57612d0d612c74565b039392505050565b600060208284031215612d2757600080fd5b8151610a47816122ba565b600060208284031215612d4457600080fd5b5051919050565b600082821015612d5d57612d5d612c74565b500390565b600081612d7157612d71612c74565b50600019019056fea26469706673582212206414e24df71316b97261ebf706ae9e90feed2129f1ad6fe145f95c05b425f80e64736f6c63430008080033",
    "sourcePath": "/Users/kaptain/github.com/hardhat/comboox/contracts/books/boh/terms/AntiDilution.sol",
    "compiler": {
        "name": "solc",
        "version": "0.8.8+commit.dddeac2f"
    },
    "functionHashes": {
        "abandonRole(bytes32)": "3da9a600",
        "addBenchmark(uint256,uint32)": "ea6cfb3e",
        "addObligor(uint256,uint256)": "20a390b1",
        "finalized()": "b3f05b97",
        "getBookeeper()": "ed211023",
        "getClasses()": "0193a955",
        "getFloorPriceOfClass(uint256)": "5b54d12f",
        "getGeneralCounsel()": "103f6edd",
        "getGiftPaid(address,uint256,uint256)": "67e25418",
        "getObligorsOfAD(uint256)": "a31da53b",
        "getOwner()": "893d20e8",
        "grantRole(bytes32,uint256)": "1b6ea9f9",
        "hasRole(bytes32,uint256)": "7e063c5a",
        "init(uint256,address,address,address)": "dc890da9",
        "isExempted(address,((uint8,uint16,uint16,uint16,uint32,uint40,uint32,uint32,uint48),(uint40,uint40,uint64,uint64,uint8),bytes32))": "237006e0",
        "isMarked(uint256)": "a4fb56f1",
        "isObligor(uint256,uint256)": "3bce3c30",
        "isTriggered(address,((uint8,uint16,uint16,uint16,uint32,uint40,uint32,uint32,uint48),(uint40,uint40,uint64,uint64,uint8),bytes32))": "06c4b208",
        "lockContents()": "f045a769",
        "removeBenchmark(uint256)": "4bcfb733",
        "removeObligor(uint256,uint256)": "a9c4133c",
        "renounceRole(bytes32)": "8bb9c5bf",
        "revokeRole(bytes32,uint256)": "19d61ad9",
        "setDirectKeeper(address)": "6be8496f",
        "setGeneralCounsel(uint256)": "4a14beb1",
        "setOwner(uint256)": "8041494e",
        "setRoleAdmin(bytes32,uint256)": "5171ebd4"
    },
    "gasEstimates": {
        "creation": {
            "codeDepositCost": "2339000",
            "executionCost": "2508",
            "totalCost": "2341508"
        },
        "external": {
            "abandonRole(bytes32)": "infinite",
            "addBenchmark(uint256,uint32)": "infinite",
            "addObligor(uint256,uint256)": "infinite",
            "finalized()": "2416",
            "getBookeeper()": "infinite",
            "getClasses()": "infinite",
            "getFloorPriceOfClass(uint256)": "infinite",
            "getGeneralCounsel()": "infinite",
            "getGiftPaid(address,uint256,uint256)": "infinite",
            "getObligorsOfAD(uint256)": "infinite",
            "getOwner()": "infinite",
            "grantRole(bytes32,uint256)": "infinite",
            "hasRole(bytes32,uint256)": "infinite",
            "init(uint256,address,address,address)": "infinite",
            "isExempted(address,((uint8,uint16,uint16,uint16,uint32,uint40,uint32,uint32,uint48),(uint40,uint40,uint64,uint64,uint8),bytes32))": "infinite",
            "isMarked(uint256)": "infinite",
            "isObligor(uint256,uint256)": "infinite",
            "isTriggered(address,((uint8,uint16,uint16,uint16,uint32,uint40,uint32,uint32,uint48),(uint40,uint40,uint64,uint64,uint8),bytes32))": "infinite",
            "lockContents()": "infinite",
            "removeBenchmark(uint256)": "infinite",
            "removeObligor(uint256,uint256)": "infinite",
            "renounceRole(bytes32)": "infinite",
            "revokeRole(bytes32,uint256)": "infinite",
            "setDirectKeeper(address)": "infinite",
            "setGeneralCounsel(uint256)": "infinite",
            "setOwner(uint256)": "infinite",
            "setRoleAdmin(bytes32,uint256)": "infinite"
        },
        "internal": {
            "_isExempted(uint32,uint256[] memory)": "infinite"
        }
    }
}