{
    "contractName": "AntiDilution",
    "abi": [
        {
            "anonymous": false,
            "inputs": [
                {
                    "indexed": false,
                    "internalType": "uint40",
                    "name": "owner",
                    "type": "uint40"
                },
                {
                    "indexed": false,
                    "internalType": "address",
                    "name": "directKeeper",
                    "type": "address"
                },
                {
                    "indexed": false,
                    "internalType": "address",
                    "name": "regCenter",
                    "type": "address"
                },
                {
                    "indexed": false,
                    "internalType": "address",
                    "name": "generalKeeper",
                    "type": "address"
                }
            ],
            "name": "Init",
            "type": "event"
        },
        {
            "anonymous": false,
            "inputs": [],
            "name": "LockContents",
            "type": "event"
        },
        {
            "anonymous": false,
            "inputs": [
                {
                    "indexed": false,
                    "internalType": "address",
                    "name": "keeper",
                    "type": "address"
                }
            ],
            "name": "SetDirectKeeper",
            "type": "event"
        },
        {
            "anonymous": false,
            "inputs": [
                {
                    "indexed": false,
                    "internalType": "uint256",
                    "name": "acct",
                    "type": "uint256"
                }
            ],
            "name": "SetGeneralCounsel",
            "type": "event"
        },
        {
            "anonymous": false,
            "inputs": [
                {
                    "indexed": false,
                    "internalType": "address",
                    "name": "gk",
                    "type": "address"
                }
            ],
            "name": "SetGeneralKeeper",
            "type": "event"
        },
        {
            "anonymous": false,
            "inputs": [
                {
                    "indexed": false,
                    "internalType": "uint256",
                    "name": "acct",
                    "type": "uint256"
                }
            ],
            "name": "SetOwner",
            "type": "event"
        },
        {
            "anonymous": false,
            "inputs": [
                {
                    "indexed": false,
                    "internalType": "address",
                    "name": "rc",
                    "type": "address"
                }
            ],
            "name": "SetRegCenter",
            "type": "event"
        },
        {
            "inputs": [
                {
                    "internalType": "bytes32",
                    "name": "role",
                    "type": "bytes32"
                }
            ],
            "name": "abandonRole",
            "outputs": [],
            "stateMutability": "nonpayable",
            "type": "function"
        },
        {
            "inputs": [
                {
                    "internalType": "uint16",
                    "name": "class",
                    "type": "uint16"
                },
                {
                    "internalType": "uint32",
                    "name": "price",
                    "type": "uint32"
                }
            ],
            "name": "addBenchmark",
            "outputs": [],
            "stateMutability": "nonpayable",
            "type": "function"
        },
        {
            "inputs": [
                {
                    "internalType": "uint16",
                    "name": "class",
                    "type": "uint16"
                },
                {
                    "internalType": "uint40",
                    "name": "obligor",
                    "type": "uint40"
                }
            ],
            "name": "addObligor",
            "outputs": [],
            "stateMutability": "nonpayable",
            "type": "function"
        },
        {
            "inputs": [
                {
                    "internalType": "uint16",
                    "name": "class",
                    "type": "uint16"
                }
            ],
            "name": "delBenchmark",
            "outputs": [],
            "stateMutability": "nonpayable",
            "type": "function"
        },
        {
            "inputs": [],
            "name": "finalized",
            "outputs": [
                {
                    "internalType": "bool",
                    "name": "",
                    "type": "bool"
                }
            ],
            "stateMutability": "view",
            "type": "function"
        },
        {
            "inputs": [
                {
                    "internalType": "uint16",
                    "name": "class",
                    "type": "uint16"
                }
            ],
            "name": "getBenchmark",
            "outputs": [
                {
                    "internalType": "uint64",
                    "name": "price",
                    "type": "uint64"
                }
            ],
            "stateMutability": "view",
            "type": "function"
        },
        {
            "inputs": [],
            "name": "getBookeeper",
            "outputs": [
                {
                    "internalType": "address",
                    "name": "",
                    "type": "address"
                }
            ],
            "stateMutability": "view",
            "type": "function"
        },
        {
            "inputs": [],
            "name": "getGeneralCounsel",
            "outputs": [
                {
                    "internalType": "uint40",
                    "name": "",
                    "type": "uint40"
                }
            ],
            "stateMutability": "view",
            "type": "function"
        },
        {
            "inputs": [],
            "name": "getOwner",
            "outputs": [
                {
                    "internalType": "uint40",
                    "name": "",
                    "type": "uint40"
                }
            ],
            "stateMutability": "view",
            "type": "function"
        },
        {
            "inputs": [
                {
                    "internalType": "bytes32",
                    "name": "snOfDeal",
                    "type": "bytes32"
                },
                {
                    "internalType": "bytes32",
                    "name": "shareNumber",
                    "type": "bytes32"
                }
            ],
            "name": "giftPar",
            "outputs": [
                {
                    "internalType": "uint64",
                    "name": "gift",
                    "type": "uint64"
                }
            ],
            "stateMutability": "view",
            "type": "function"
        },
        {
            "inputs": [
                {
                    "internalType": "bytes32",
                    "name": "role",
                    "type": "bytes32"
                },
                {
                    "internalType": "uint40",
                    "name": "acct",
                    "type": "uint40"
                }
            ],
            "name": "grantRole",
            "outputs": [],
            "stateMutability": "nonpayable",
            "type": "function"
        },
        {
            "inputs": [
                {
                    "internalType": "bytes32",
                    "name": "role",
                    "type": "bytes32"
                },
                {
                    "internalType": "uint40",
                    "name": "acct",
                    "type": "uint40"
                }
            ],
            "name": "hasRole",
            "outputs": [
                {
                    "internalType": "bool",
                    "name": "",
                    "type": "bool"
                }
            ],
            "stateMutability": "view",
            "type": "function"
        },
        {
            "inputs": [
                {
                    "internalType": "uint40",
                    "name": "owner",
                    "type": "uint40"
                },
                {
                    "internalType": "address",
                    "name": "directKeeper",
                    "type": "address"
                },
                {
                    "internalType": "address",
                    "name": "regCenter",
                    "type": "address"
                },
                {
                    "internalType": "address",
                    "name": "generalKeeper",
                    "type": "address"
                }
            ],
            "name": "init",
            "outputs": [],
            "stateMutability": "nonpayable",
            "type": "function"
        },
        {
            "inputs": [
                {
                    "internalType": "address",
                    "name": "ia",
                    "type": "address"
                },
                {
                    "internalType": "bytes32",
                    "name": "sn",
                    "type": "bytes32"
                }
            ],
            "name": "isExempted",
            "outputs": [
                {
                    "internalType": "bool",
                    "name": "",
                    "type": "bool"
                }
            ],
            "stateMutability": "view",
            "type": "function"
        },
        {
            "inputs": [
                {
                    "internalType": "uint16",
                    "name": "class",
                    "type": "uint16"
                }
            ],
            "name": "isMarked",
            "outputs": [
                {
                    "internalType": "bool",
                    "name": "",
                    "type": "bool"
                }
            ],
            "stateMutability": "view",
            "type": "function"
        },
        {
            "inputs": [
                {
                    "internalType": "address",
                    "name": "ia",
                    "type": "address"
                },
                {
                    "internalType": "bytes32",
                    "name": "sn",
                    "type": "bytes32"
                }
            ],
            "name": "isTriggered",
            "outputs": [
                {
                    "internalType": "bool",
                    "name": "",
                    "type": "bool"
                }
            ],
            "stateMutability": "view",
            "type": "function"
        },
        {
            "inputs": [],
            "name": "lockContents",
            "outputs": [],
            "stateMutability": "nonpayable",
            "type": "function"
        },
        {
            "inputs": [],
            "name": "markedClasses",
            "outputs": [
                {
                    "internalType": "uint40[]",
                    "name": "",
                    "type": "uint40[]"
                }
            ],
            "stateMutability": "view",
            "type": "function"
        },
        {
            "inputs": [
                {
                    "internalType": "uint16",
                    "name": "class",
                    "type": "uint16"
                }
            ],
            "name": "obligors",
            "outputs": [
                {
                    "internalType": "uint40[]",
                    "name": "",
                    "type": "uint40[]"
                }
            ],
            "stateMutability": "view",
            "type": "function"
        },
        {
            "inputs": [
                {
                    "internalType": "uint16",
                    "name": "class",
                    "type": "uint16"
                },
                {
                    "internalType": "uint40",
                    "name": "obligor",
                    "type": "uint40"
                }
            ],
            "name": "removeObligor",
            "outputs": [],
            "stateMutability": "nonpayable",
            "type": "function"
        },
        {
            "inputs": [
                {
                    "internalType": "bytes32",
                    "name": "role",
                    "type": "bytes32"
                }
            ],
            "name": "renounceRole",
            "outputs": [],
            "stateMutability": "nonpayable",
            "type": "function"
        },
        {
            "inputs": [
                {
                    "internalType": "bytes32",
                    "name": "role",
                    "type": "bytes32"
                },
                {
                    "internalType": "uint40",
                    "name": "acct",
                    "type": "uint40"
                }
            ],
            "name": "revokeRole",
            "outputs": [],
            "stateMutability": "nonpayable",
            "type": "function"
        },
        {
            "inputs": [
                {
                    "internalType": "address",
                    "name": "keeper",
                    "type": "address"
                }
            ],
            "name": "setDirectKeeper",
            "outputs": [],
            "stateMutability": "nonpayable",
            "type": "function"
        },
        {
            "inputs": [
                {
                    "internalType": "uint40",
                    "name": "acct",
                    "type": "uint40"
                }
            ],
            "name": "setGeneralCounsel",
            "outputs": [],
            "stateMutability": "nonpayable",
            "type": "function"
        },
        {
            "inputs": [
                {
                    "internalType": "uint16",
                    "name": "max",
                    "type": "uint16"
                }
            ],
            "name": "setMaxQtyOfMarks",
            "outputs": [],
            "stateMutability": "nonpayable",
            "type": "function"
        },
        {
            "inputs": [
                {
                    "internalType": "uint40",
                    "name": "acct",
                    "type": "uint40"
                }
            ],
            "name": "setOwner",
            "outputs": [],
            "stateMutability": "nonpayable",
            "type": "function"
        },
        {
            "inputs": [
                {
                    "internalType": "bytes32",
                    "name": "role",
                    "type": "bytes32"
                },
                {
                    "internalType": "uint40",
                    "name": "acct",
                    "type": "uint40"
                }
            ],
            "name": "setRoleAdmin",
            "outputs": [],
            "stateMutability": "nonpayable",
            "type": "function"
        },
        {
            "inputs": [
                {
                    "internalType": "uint16",
                    "name": "class",
                    "type": "uint16"
                },
                {
                    "internalType": "uint32",
                    "name": "deltaPrice",
                    "type": "uint32"
                },
                {
                    "internalType": "bool",
                    "name": "increase",
                    "type": "bool"
                }
            ],
            "name": "updateBenchmark",
            "outputs": [],
            "stateMutability": "nonpayable",
            "type": "function"
        }
    ],
    "bytecode": "608060405234801561001057600080fd5b5061358a806100206000396000f3fe608060405234801561001057600080fd5b50600436106101c45760003560e01c80638bb9c5bf116100f9578063aa5f3ff211610097578063e4cd97c711610071578063e4cd97c7146103c3578063ed211023146103d6578063f045a769146103f6578063fb6218a1146103fe57600080fd5b8063aa5f3ff214610389578063b3f05b971461039c578063c3da17f3146103b057600080fd5b8063943508bf116100d3578063943508bf1461033d5780639cc538a414610350578063a22ee42c14610363578063a34a8eab1461037657600080fd5b80638bb9c5bf146103025780638e5a886f1461031557806393832e881461032857600080fd5b806358bbf64a1161016657806379b2ec121161014057806379b2ec12146102c15780637ba706e8146102d4578063821ee8ea146102e7578063893d20e8146102fa57600080fd5b806358bbf64a146102885780636be8496f1461029b57806374099815146102ae57600080fd5b80633178a9a9116101a25780633178a9a9146102145780633c02fad7146102275780633da9a6001461025257806352000f511461026557600080fd5b8063103f6edd146101c957806316dc517e146101ec57806317c51fec14610201575b600080fd5b6101d1610411565b60405164ffffffffff90911681526020015b60405180910390f35b6101ff6101fa366004612bea565b61049d565b005b6101ff61020f366004612bea565b610533565b6101ff610222366004612c1a565b610558565b61023a610235366004612c47565b61075a565b6040516001600160401b0390911681526020016101e3565b6101ff610260366004612c64565b610830565b610278610273366004612c92565b610943565b60405190151581526020016101e3565b6101ff610296366004612cde565b610b26565b6101ff6102a9366004612d29565b610c9c565b6101ff6102bc366004612bea565b610d4e565b6102786102cf366004612bea565b610d73565b6101ff6102e2366004612c1a565b610e14565b6101ff6102f5366004612d46565b611006565b6101d16110f6565b6101ff610310366004612c64565b611131565b610278610323366004612c92565b61118a565b6103306113f8565b6040516101e39190612da2565b6101ff61034b366004612ded565b611482565b6101ff61035e366004612c47565b611602565b6101ff610371366004612e1b565b611850565b61023a610384366004612e49565b611a02565b6101ff610397366004612ded565b611e1f565b60028054600160f01b900460ff1614610278565b6101ff6103be366004612c47565b611f4a565b6103306103d1366004612c47565b61205c565b6103de6121ab565b6040516001600160a01b0390911681526020016101e3565b6101ff612231565b61027861040c366004612c47565b61244f565b60405163e8c0cc1d60e01b81526002600482015260009073__$364aad554dc80380f414546becdd2c1584$__9063e8c0cc1d906024015b60206040518083038186803b15801561046057600080fd5b505af4158015610474573d6000803e3d6000fd5b505050506040513d601f19601f820116820180604052508101906104989190612e6b565b905090565b73__$364aad554dc80380f414546becdd2c1584$__63427abff46002846104c2612485565b6040516001600160e01b031960e086901b1681526004810193909352602483019190915264ffffffffff9081166044830152841660648201526084015b60006040518083038186803b15801561051757600080fd5b505af415801561052b573d6000803e3d6000fd5b505050505050565b73__$364aad554dc80380f414546becdd2c1584$__638ce158456002846104c2612485565b604051633b11adbf60e21b81526002600482015233602482015273__$364aad554dc80380f414546becdd2c1584$__9063ec46b6fc9060440160206040518083038186803b1580156105a957600080fd5b505af41580156105bd573d6000803e3d6000fd5b505050506040513d601f19601f820116820180604052508101906105e19190612e88565b80610686575073__$364aad554dc80380f414546becdd2c1584$__63fe271086600261060b612485565b6040516001600160e01b031960e085901b168152600481019290925264ffffffffff16602482015260440160206040518083038186803b15801561064e57600080fd5b505af4158015610662573d6000803e3d6000fd5b505050506040513d601f19601f820116820180604052508101906106869190612e88565b6106ab5760405162461bcd60e51b81526004016106a290612ea5565b60405180910390fd5b604051632725ebef60e21b81526002600482015264ffffffffff8216602482015273__$364aad554dc80380f414546becdd2c1584$__90639c97afbc9060440160006040518083038186803b15801561070357600080fd5b505af4158015610717573d6000803e3d6000fd5b505060405164ffffffffff841681527ff2735f34b69be1e6342dea95f9162f84d0db925fab655ca9f1f312ac8cbfc99d925060200190505b60405180910390a150565b604051630df8a86360e11b81526005600482015261ffff82166024820152600090829073__$0373da85302df7c003c5cc5214782e6132$__90631bf150c69060440160206040518083038186803b1580156107b457600080fd5b505af41580156107c8573d6000803e3d6000fd5b505050506040513d601f19601f820116820180604052508101906107ec9190612e88565b6108085760405162461bcd60e51b81526004016106a290612efb565b505061ffff16600090815260056020526040902054600160781b90046001600160401b031690565b604051633b11adbf60e21b81526002600482015233602482015273__$364aad554dc80380f414546becdd2c1584$__9063ec46b6fc9060440160206040518083038186803b15801561088157600080fd5b505af4158015610895573d6000803e3d6000fd5b505050506040513d601f19601f820116820180604052508101906108b99190612e88565b6108d55760405162461bcd60e51b81526004016106a290612f4b565b60405163cc99e11b60e01b8152600260048201526024810182905273__$364aad554dc80380f414546becdd2c1584$__9063cc99e11b906044015b60006040518083038186803b15801561092857600080fd5b505af415801561093c573d6000803e3d6000fd5b5050505050565b600061094f838361118a565b61095b57506001610b20565b6000836001600160a01b0316639b59d9806040518163ffffffff1660e01b815260040160206040518083038186803b15801561099657600080fd5b505afa1580156109aa573d6000803e3d6000fd5b505050506040513d601f19601f820116820180604052508101906109ce9190612fa7565b60ff1690506000846001600160a01b031660a083901b6109ee9190612fd8565b905060006109fa6124df565b604051638d5b658560e01b815260048101849052600160248201526001600160a01b039190911690638d5b65859060440160006040518083038186803b158015610a4357600080fd5b505afa158015610a57573d6000803e3d6000fd5b505050506040513d6000823e601f3d908101601f19168201604052610a7f91908101906130e4565b6040908101519051638b257a7160e01b81526004810187905290915060009073__$94c94c1f27eaba30857c7d0c37f90b5581$__90638b257a719060240160206040518083038186803b158015610ad557600080fd5b505af4158015610ae9573d6000803e3d6000fd5b505050506040513d601f19601f82011682018060405250810190610b0d919061318a565b9050610b198183612546565b9450505050505b92915050565b73__$364aad554dc80380f414546becdd2c1584$__63a8ef95ac6002684174746f726e65797360b81b610b57612485565b6040516001600160e01b031960e086901b1681526004810193909352602483019190915264ffffffffff16604482015260640160206040518083038186803b158015610ba257600080fd5b505af4158015610bb6573d6000803e3d6000fd5b505050506040513d601f19601f82011682018060405250810190610bda9190612e88565b610bf65760405162461bcd60e51b81526004016106a2906131a7565b60405162960c4360e51b81526005600482015261ffff8416602482015263ffffffff83166044820152811515606482015273__$0373da85302df7c003c5cc5214782e6132$__906312c188609060840160206040518083038186803b158015610c5e57600080fd5b505af4158015610c72573d6000803e3d6000fd5b505050506040513d601f19601f82011682018060405250810190610c969190612e88565b50505050565b604051630f07232560e01b8152600260048201523360248201526001600160a01b038216604482015273__$364aad554dc80380f414546becdd2c1584$__90630f0723259060640160006040518083038186803b158015610cfc57600080fd5b505af4158015610d10573d6000803e3d6000fd5b50506040516001600160a01b03841681527fe435cbeab64e4eae6497b9d8289704bd709d624a80704ef3ca9af777534bc6ec9250602001905061074f565b73__$364aad554dc80380f414546becdd2c1584$__63d2a15ba76002846104c2612485565b604051632a3be56b60e21b8152600260048201526024810183905264ffffffffff8216604482015260009073__$364aad554dc80380f414546becdd2c1584$__9063a8ef95ac9060640160206040518083038186803b158015610dd557600080fd5b505af4158015610de9573d6000803e3d6000fd5b505050506040513d601f19601f82011682018060405250810190610e0d9190612e88565b9392505050565b604051633b11adbf60e21b81526002600482015233602482015273__$364aad554dc80380f414546becdd2c1584$__9063ec46b6fc9060440160206040518083038186803b158015610e6557600080fd5b505af4158015610e79573d6000803e3d6000fd5b505050506040513d601f19601f82011682018060405250810190610e9d9190612e88565b80610f42575073__$364aad554dc80380f414546becdd2c1584$__63fe2710866002610ec7612485565b6040516001600160e01b031960e085901b168152600481019290925264ffffffffff16602482015260440160206040518083038186803b158015610f0a57600080fd5b505af4158015610f1e573d6000803e3d6000fd5b505050506040513d601f19601f82011682018060405250810190610f429190612e88565b610f5e5760405162461bcd60e51b81526004016106a290612ea5565b60405163b6e38a2960e01b81526002600482015264ffffffffff8216602482015273__$364aad554dc80380f414546becdd2c1584$__9063b6e38a299060440160006040518083038186803b158015610fb657600080fd5b505af4158015610fca573d6000803e3d6000fd5b505060405164ffffffffff841681527f8b6f40f36b4ae8cc5f55e895036457c43da4ab1f80f58c46f5ff0d72a650033b9250602001905061074f565b61100f8261270f565b611018816127be565b604051636cdd0edf60e11b81526002600482015264ffffffffff851660248201526001600160a01b038416604482015273__$364aad554dc80380f414546becdd2c1584$__9063d9ba1dbe9060640160006040518083038186803b15801561107f57600080fd5b505af4158015611093573d6000803e3d6000fd5b50506040805164ffffffffff881681526001600160a01b038781166020830152868116828401528516606082015290517f4d18c0021addc919105cb1ed2c11ad241e859cc1d9e77d4ee1d9ca2cdc1f255b9350908190036080019150a150505050565b60405163987ad15360e01b81526002600482015260009073__$364aad554dc80380f414546becdd2c1584$__9063987ad15390602401610448565b600061113b612485565b604051637963595360e11b8152600260048201526024810184905264ffffffffff8216604482015290915073__$364aad554dc80380f414546becdd2c1584$__9063f2c6b2a6906064016104ff565b604051638b257a7160e01b815260048101829052600090819073__$94c94c1f27eaba30857c7d0c37f90b5581$__90638b257a719060240160206040518083038186803b1580156111da57600080fd5b505af41580156111ee573d6000803e3d6000fd5b505050506040513d601f19601f82011682018060405250810190611212919061318a565b6040516364dc784760e11b81526004810185905290915060019073__$94c94c1f27eaba30857c7d0c37f90b5581$__9063c9b8f08e9060240160206040518083038186803b15801561126357600080fd5b505af4158015611277573d6000803e3d6000fd5b505050506040513d601f19601f8201168201806040525081019061129b9190612fa7565b60ff161415801561133357506040516364dc784760e11b81526004810184905260089073__$94c94c1f27eaba30857c7d0c37f90b5581$__9063c9b8f08e9060240160206040518083038186803b1580156112f557600080fd5b505af4158015611309573d6000803e3d6000fd5b505050506040513d601f19601f8201168201806040525081019061132d9190612fa7565b60ff1614155b15611342576000915050610b20565b6000805260056020527f05b8ccbb9d4d8fb16ea74ce3c29a41f1b461fbdaff4714a0d9a8eb05499746bc54600160281b900464ffffffffff165b64ffffffffff8116156113ed5764ffffffffff8116600090815260056020526040902054600160781b90046001600160401b031663ffffffff831610156113c857600192505050610b20565b64ffffffffff908116600090815260056020526040902054600160281b90041661137c565b506000949350505050565b604051632666ad2360e21b81526005600482015260609073__$0373da85302df7c003c5cc5214782e6132$__9063999ab48c9060240160006040518083038186803b15801561144657600080fd5b505af415801561145a573d6000803e3d6000fd5b505050506040513d6000823e601f3d908101601f1916820160405261049891908101906131d4565b73__$364aad554dc80380f414546becdd2c1584$__63a8ef95ac6002684174746f726e65797360b81b6114b3612485565b6040516001600160e01b031960e086901b1681526004810193909352602483019190915264ffffffffff16604482015260640160206040518083038186803b1580156114fe57600080fd5b505af4158015611512573d6000803e3d6000fd5b505050506040513d601f19601f820116820180604052508101906115369190612e88565b6115525760405162461bcd60e51b81526004016106a2906131a7565b61ffff821660009081526004602081905260409182902091516392f13c3f60e01b815273__$8c1a4844a0a0988ea2454cf87145a95df1$__926392f13c3f926115ad9286910191825264ffffffffff16602082015260400190565b60206040518083038186803b1580156115c557600080fd5b505af41580156115d9573d6000803e3d6000fd5b505050506040513d601f19601f820116820180604052508101906115fd9190612e88565b505050565b73__$364aad554dc80380f414546becdd2c1584$__63a8ef95ac6002684174746f726e65797360b81b611633612485565b6040516001600160e01b031960e086901b1681526004810193909352602483019190915264ffffffffff16604482015260640160206040518083038186803b15801561167e57600080fd5b505af4158015611692573d6000803e3d6000fd5b505050506040513d601f19601f820116820180604052508101906116b69190612e88565b6116d25760405162461bcd60e51b81526004016106a2906131a7565b60405163df2d0b7360e01b81526005600482015261ffff8216602482015260009073__$0373da85302df7c003c5cc5214782e6132$__9063df2d0b739060440160c06040518083038186803b15801561172a57600080fd5b505af415801561173e573d6000803e3d6000fd5b505050506040513d601f19601f820116820180604052508101906117629190613210565b505060405162960c4360e51b81526005600482015261ffff871660248201526001600160401b03821660448201526000606482015290945073__$0373da85302df7c003c5cc5214782e6132$__93506312c188609250608401905060206040518083038186803b1580156117d557600080fd5b505af41580156117e9573d6000803e3d6000fd5b505050506040513d601f19601f8201168201806040525081019061180d9190612e88565b5060405163029e389b60e21b81526005600482015261ffff8316602482015273__$0373da85302df7c003c5cc5214782e6132$__90630a78e26c906044016115ad565b73__$364aad554dc80380f414546becdd2c1584$__63a8ef95ac6002684174746f726e65797360b81b611881612485565b6040516001600160e01b031960e086901b1681526004810193909352602483019190915264ffffffffff16604482015260640160206040518083038186803b1580156118cc57600080fd5b505af41580156118e0573d6000803e3d6000fd5b505050506040513d601f19601f820116820180604052508101906119049190612e88565b6119205760405162461bcd60e51b81526004016106a2906131a7565b60405163506d439360e11b81526005600482015261ffff8316602482015273__$0373da85302df7c003c5cc5214782e6132$__9063a0da87269060440160206040518083038186803b15801561197557600080fd5b505af4158015611989573d6000803e3d6000fd5b505050506040513d601f19601f820116820180604052508101906119ad9190612e88565b5060405162960c4360e51b81526005600482015261ffff8316602482015263ffffffff821660448201526001606482015273__$0373da85302df7c003c5cc5214782e6132$__906312c18860906084016115ad565b60405163217cf12b60e01b81526004810182905260009073__$94c94c1f27eaba30857c7d0c37f90b5581$__9063217cf12b9060240160206040518083038186803b158015611a5057600080fd5b505af4158015611a64573d6000803e3d6000fd5b505050506040513d601f19601f82011682018060405250810190611a88919061328c565b604051630df8a86360e11b81526005600482015261ffff8216602482015273__$0373da85302df7c003c5cc5214782e6132$__90631bf150c69060440160206040518083038186803b158015611add57600080fd5b505af4158015611af1573d6000803e3d6000fd5b505050506040513d601f19601f82011682018060405250810190611b159190612e88565b611b315760405162461bcd60e51b81526004016106a290612efb565b60405163217cf12b60e01b815260048101849052600090600590829073__$94c94c1f27eaba30857c7d0c37f90b5581$__9063217cf12b9060240160206040518083038186803b158015611b8457600080fd5b505af4158015611b98573d6000803e3d6000fd5b505050506040513d601f19601f82011682018060405250810190611bbc919061328c565b61ffff168152602081019190915260409081016000908120549151638b257a7160e01b815260048101889052600160781b9092046001600160401b031692509073__$94c94c1f27eaba30857c7d0c37f90b5581$__90638b257a719060240160206040518083038186803b158015611c3357600080fd5b505af4158015611c47573d6000803e3d6000fd5b505050506040513d601f19601f82011682018060405250810190611c6b919061318a565b90508063ffffffff16826001600160401b031611611cda5760405162461bcd60e51b815260206004820152602660248201527f41442e676966745061723a20416e746944696c7574696f6e206e6f742074726960448201526519d9d95c995960d21b60648201526084016106a2565b6000611ce4612875565b6001600160a01b03166352aadfd78773__$94c94c1f27eaba30857c7d0c37f90b5581$__6321aa0faf90916040518263ffffffff1660e01b8152600401611d2d91815260200190565b60206040518083038186803b158015611d4557600080fd5b505af4158015611d59573d6000803e3d6000fd5b505050506040513d601f19601f82011682018060405250810190611d7d919061318a565b6040516001600160e01b031960e084901b16815263ffffffff91909116600482015260240160c06040518083038186803b158015611dba57600080fd5b505afa158015611dce573d6000803e3d6000fd5b505050506040513d601f19601f82011682018060405250810190611df291906132a9565b602081015190915063ffffffff8316611e0b858361334d565b611e15919061337c565b610b1991906133b0565b73__$364aad554dc80380f414546becdd2c1584$__63a8ef95ac6002684174746f726e65797360b81b611e50612485565b6040516001600160e01b031960e086901b1681526004810193909352602483019190915264ffffffffff16604482015260640160206040518083038186803b158015611e9b57600080fd5b505af4158015611eaf573d6000803e3d6000fd5b505050506040513d601f19601f82011682018060405250810190611ed39190612e88565b611eef5760405162461bcd60e51b81526004016106a2906131a7565b61ffff821660009081526004602081905260409182902091516392fd02df60e01b815273__$8c1a4844a0a0988ea2454cf87145a95df1$__926392fd02df926115ad9286910191825264ffffffffff16602082015260400190565b73__$364aad554dc80380f414546becdd2c1584$__63a8ef95ac6002684174746f726e65797360b81b611f7b612485565b6040516001600160e01b031960e086901b1681526004810193909352602483019190915264ffffffffff16604482015260640160206040518083038186803b158015611fc657600080fd5b505af4158015611fda573d6000803e3d6000fd5b505050506040513d601f19601f82011682018060405250810190611ffe9190612e88565b61201a5760405162461bcd60e51b81526004016106a2906131a7565b604051630f98e91f60e21b81526005600482015261ffff8216602482015273__$0373da85302df7c003c5cc5214782e6132$__90633e63a47c90604401610910565b604051630df8a86360e11b81526005600482015261ffff82166024820152606090829073__$0373da85302df7c003c5cc5214782e6132$__90631bf150c69060440160206040518083038186803b1580156120b657600080fd5b505af41580156120ca573d6000803e3d6000fd5b505050506040513d601f19601f820116820180604052508101906120ee9190612e88565b61210a5760405162461bcd60e51b81526004016106a290612efb565b61ffff83166000908152600460208190526040918290209151639857dfd560e01b815273__$8c1a4844a0a0988ea2454cf87145a95df1$__92639857dfd592612157920190815260200190565b60006040518083038186803b15801561216f57600080fd5b505af4158015612183573d6000803e3d6000fd5b505050506040513d6000823e601f3d908101601f19168201604052610e0d91908101906131d4565b604051633c3e56c160e11b81526002600482015260009073__$364aad554dc80380f414546becdd2c1584$__9063787cad829060240160206040518083038186803b1580156121f957600080fd5b505af415801561220d573d6000803e3d6000fd5b505050506040513d601f19601f8201168201806040525081019061049891906133d8565b604051633b11adbf60e21b81526002600482015233602482015273__$364aad554dc80380f414546becdd2c1584$__9063ec46b6fc9060440160206040518083038186803b15801561228257600080fd5b505af4158015612296573d6000803e3d6000fd5b505050506040513d601f19601f820116820180604052508101906122ba9190612e88565b6122d65760405162461bcd60e51b81526004016106a290612f4b565b600254600160f01b900460ff166001146123325760405162461bcd60e51b815260206004820181905260248201527f41432e6f6e6c7950656e64696e673a20446f632069732066696e616c697a656460448201526064016106a2565b60405163cc99e11b60e01b815260026004820152684174746f726e65797360b81b602482015273__$364aad554dc80380f414546becdd2c1584$__9063cc99e11b9060440160006040518083038186803b15801561238f57600080fd5b505af41580156123a3573d6000803e3d6000fd5b5050604051632725ebef60e21b8152600260048201526000602482015273__$364aad554dc80380f414546becdd2c1584$__9250639c97afbc915060440160006040518083038186803b1580156123f957600080fd5b505af415801561240d573d6000803e3d6000fd5b50506002805460ff60f01b1916600160f11b17905550506040517f35012b512309c322acf68632cd6cb702ff0e1d776fbe9394e38ffc13b434fe7590600090a1565b6000808261ffff16118015610b2057505061ffff16600081815260056020526040902054600160501b900464ffffffffff161490565b60008054604051634de835e760e11b81523360048201526001600160a01b0390911690639bd06bce90602401602060405180830381600087803b1580156124cb57600080fd5b505af1158015610474573d6000803e3d6000fd5b600180546000916001600160a01b039091169063e06eba8c905b6040516001600160e01b031960e084901b16815260ff909116600482015260240160206040518083038186803b15801561253257600080fd5b505afa15801561220d573d6000803e3d6000fd5b60008151600014156125a55760405162461bcd60e51b815260206004820152602260248201527f41442e69734578656d707465643a207a65726f20636f6e73656e745061727469604482015261657360f01b60648201526084016106a2565b6000805260056020527f05b8ccbb9d4d8fb16ea74ce3c29a41f1b461fbdaff4714a0d9a8eb05499746bc54600160281b900464ffffffffff165b64ffffffffff8116156127055764ffffffffff811660009081526005602052604090205463ffffffff8516600160781b9091046001600160401b03161161262557612705565b600061263082612890565b905083518151111561264757600092505050610b20565b60405163139a2fbd60e21b815273__$ccb256085f563a601d001f7c9087d87207$__90634e68bef4906126809084908890600401613437565b60206040518083038186803b15801561269857600080fd5b505af41580156126ac573d6000803e3d6000fd5b505050506040513d601f19601f820116820180604052508101906126d09190612e88565b6126df57600092505050610b20565b5064ffffffffff908116600090815260056020526040902054600160281b9004166125df565b5060019392505050565b6000546001600160a01b0316156127605760405162461bcd60e51b815260206004820152601560248201527430b63932b0b23c9039b2ba103932b3a1b2b73a32b960591b60448201526064016106a2565b6040516001600160a01b03821681527f318da6c7624c71cbc0afe346c9d8827f119d0ecefb241a7b0c87217a076a8e029060200160405180910390a1600080546001600160a01b0319166001600160a01b0392909216919091179055565b6001546001600160a01b0316156128175760405162461bcd60e51b815260206004820152601960248201527f616c7265616479207365742067656e6572616c4b65657065720000000000000060448201526064016106a2565b6040516001600160a01b03821681527fe513d3e0f0d0a3877029dcc588748679a7a3450ec1ec7ed56d96bd012c3e61aa9060200160405180910390a1600180546001600160a01b0319166001600160a01b0392909216919091179055565b6001546000906001600160a01b031663e06eba8c60066124f9565b6060600061289c612bb9565b90506000816001600160a01b031663dd5042f46040518163ffffffff1660e01b815260040160006040518083038186803b1580156128d957600080fd5b505afa1580156128ed573d6000803e3d6000fd5b505050506040513d6000823e601f3d908101601f1916820160405261291591908101906131d4565b80519091506000816001600160401b0381111561293457612934612ff0565b60405190808252806020026020018201604052801561295d578160200160208202803683370190505b50905060005b8215612b685760006001600160a01b038616633e21100686612986600188613465565b815181106129965761299661347c565b60200260200101516040518263ffffffff1660e01b81526004016129c7919064ffffffffff91909116815260200190565b60006040518083038186803b1580156129df57600080fd5b505afa1580156129f3573d6000803e3d6000fd5b505050506040513d6000823e601f3d908101601f19168201604052612a1b9190810190613492565b80519091505b8015612b545761ffff891682612a38600184613465565b81518110612a4857612a4861347c565b602002602001015173__$94c94c1f27eaba30857c7d0c37f90b5581$__63217cf12b90916040518263ffffffff1660e01b8152600401612a8a91815260200190565b60206040518083038186803b158015612aa257600080fd5b505af4158015612ab6573d6000803e3d6000fd5b505050506040513d601f19601f82011682018060405250810190612ada919061328c565b61ffff161415612b425785612af0600187613465565b81518110612b0057612b0061347c565b6020026020010151848481518110612b1a57612b1a61347c565b64ffffffffff9092166020928302919091019091015282612b3a81613522565b935050612b54565b80612b4c8161353d565b915050612a21565b84612b5e8161353d565b9550505050612963565b6000816001600160401b03811115612b8257612b82612ff0565b604051908082528060200260200182016040528015612bab578160200160208202803683370190505b509298975050505050505050565b6001546000906001600160a01b031663e06eba8c60076124f9565b64ffffffffff81168114612be757600080fd5b50565b60008060408385031215612bfd57600080fd5b823591506020830135612c0f81612bd4565b809150509250929050565b600060208284031215612c2c57600080fd5b8135610e0d81612bd4565b61ffff81168114612be757600080fd5b600060208284031215612c5957600080fd5b8135610e0d81612c37565b600060208284031215612c7657600080fd5b5035919050565b6001600160a01b0381168114612be757600080fd5b60008060408385031215612ca557600080fd5b8235612cb081612c7d565b946020939093013593505050565b63ffffffff81168114612be757600080fd5b8015158114612be757600080fd5b600080600060608486031215612cf357600080fd5b8335612cfe81612c37565b92506020840135612d0e81612cbe565b91506040840135612d1e81612cd0565b809150509250925092565b600060208284031215612d3b57600080fd5b8135610e0d81612c7d565b60008060008060808587031215612d5c57600080fd5b8435612d6781612bd4565b93506020850135612d7781612c7d565b92506040850135612d8781612c7d565b91506060850135612d9781612c7d565b939692955090935050565b6020808252825182820181905260009190848201906040850190845b81811015612de157835164ffffffffff1683529284019291840191600101612dbe565b50909695505050505050565b60008060408385031215612e0057600080fd5b8235612e0b81612c37565b91506020830135612c0f81612bd4565b60008060408385031215612e2e57600080fd5b8235612e3981612c37565b91506020830135612c0f81612cbe565b60008060408385031215612e5c57600080fd5b50508035926020909101359150565b600060208284031215612e7d57600080fd5b8151610e0d81612bd4565b600060208284031215612e9a57600080fd5b8151610e0d81612cd0565b60208082526036908201527f41432e6f776e65724f72446972656374426f6f6b65657065723a206e6569746860408201527532b91037bbb732b9103737b9103137b7b5b2b2b832b960511b606082015260800190565b60208082526030908201527f41442e6f6e6c794d61726b65643a206e6f2075696e74207072696365206d616b60408201526f656420666f722074686520636c61737360801b606082015260800190565b60208082526026908201527f41432e6f6e6c794469726563744b65657065723a206e6f74206469726563742060408201526535b2b2b832b960d11b606082015260800190565b805160ff81168114612fa257600080fd5b919050565b600060208284031215612fb957600080fd5b610e0d82612f91565b634e487b7160e01b600052601160045260246000fd5b60008219821115612feb57612feb612fc2565b500190565b634e487b7160e01b600052604160045260246000fd5b604051601f8201601f191681016001600160401b038111828210171561302e5761302e612ff0565b604052919050565b80516001600160401b0381168114612fa257600080fd5b60006001600160401b0382111561306657613066612ff0565b5060051b60200190565b600082601f83011261308157600080fd5b815160206130966130918361304d565b613006565b82815260059290921b840181019181810190868411156130b557600080fd5b8286015b848110156130d95780516130cc81612bd4565b83529183019183016130b9565b509695505050505050565b6000602082840312156130f657600080fd5b81516001600160401b038082111561310d57600080fd5b908301906060828603121561312157600080fd5b60405160608101818110838211171561313c5761313c612ff0565b604052825161314a81612cbe565b815261315860208401613036565b602082015260408301518281111561316f57600080fd5b61317b87828601613070565b60408301525095945050505050565b60006020828403121561319c57600080fd5b8151610e0d81612cbe565b60208082526013908201527241432e6f743a206e6f74204174746f726e657960681b604082015260600190565b6000602082840312156131e657600080fd5b81516001600160401b038111156131fc57600080fd5b61320884828501613070565b949350505050565b60008060008060008060c0878903121561322957600080fd5b865161323481612bd4565b602088015190965061324581612bd4565b604088015190955061325681612bd4565b935061326460608801613036565b925061327260808801613036565b915061328060a08801612f91565b90509295509295509295565b60006020828403121561329e57600080fd5b8151610e0d81612c37565b600060c082840312156132bb57600080fd5b60405160c081018181106001600160401b03821117156132dd576132dd612ff0565b604052825181526132f060208401613036565b602082015261330160408401613036565b604082015261331260608401613036565b6060820152608083015165ffffffffffff8116811461333057600080fd5b608082015261334160a08401612f91565b60a08201529392505050565b60006001600160401b038083168185168183048111821515161561337357613373612fc2565b02949350505050565b60006001600160401b03808416806133a457634e487b7160e01b600052601260045260246000fd5b92169190910492915050565b60006001600160401b03838116908316818110156133d0576133d0612fc2565b039392505050565b6000602082840312156133ea57600080fd5b8151610e0d81612c7d565b600081518084526020808501945080840160005b8381101561342c57815164ffffffffff1687529582019590820190600101613409565b509495945050505050565b60408152600061344a60408301856133f5565b828103602084015261345c81856133f5565b95945050505050565b60008282101561347757613477612fc2565b500390565b634e487b7160e01b600052603260045260246000fd5b600060208083850312156134a557600080fd5b82516001600160401b038111156134bb57600080fd5b8301601f810185136134cc57600080fd5b80516134da6130918261304d565b81815260059190911b820183019083810190878311156134f957600080fd5b928401925b82841015613517578351825292840192908401906134fe565b979650505050505050565b600060001982141561353657613536612fc2565b5060010190565b60008161354c5761354c612fc2565b50600019019056fea2646970667358221220fbdea873d26bc364b0b1353e1a2eed1563a97c7a151b3be95713196e450c8fed64736f6c63430008080033",
    "sourcePath": "/Users/kaptain/github.com/hardhat/comboox/contracts/books/boh/terms/AntiDilution.sol",
    "compiler": {
        "name": "solc",
        "version": "0.8.8+commit.dddeac2f"
    },
    "functionHashes": {
        "abandonRole(bytes32)": "3da9a600",
        "addBenchmark(uint16,uint32)": "a22ee42c",
        "addObligor(uint16,uint40)": "943508bf",
        "delBenchmark(uint16)": "9cc538a4",
        "finalized()": "b3f05b97",
        "getBenchmark(uint16)": "3c02fad7",
        "getBookeeper()": "ed211023",
        "getGeneralCounsel()": "103f6edd",
        "getOwner()": "893d20e8",
        "giftPar(bytes32,bytes32)": "a34a8eab",
        "grantRole(bytes32,uint40)": "74099815",
        "hasRole(bytes32,uint40)": "79b2ec12",
        "init(uint40,address,address,address)": "821ee8ea",
        "isExempted(address,bytes32)": "52000f51",
        "isMarked(uint16)": "fb6218a1",
        "isTriggered(address,bytes32)": "8e5a886f",
        "lockContents()": "f045a769",
        "markedClasses()": "93832e88",
        "obligors(uint16)": "e4cd97c7",
        "removeObligor(uint16,uint40)": "aa5f3ff2",
        "renounceRole(bytes32)": "8bb9c5bf",
        "revokeRole(bytes32,uint40)": "17c51fec",
        "setDirectKeeper(address)": "6be8496f",
        "setGeneralCounsel(uint40)": "3178a9a9",
        "setMaxQtyOfMarks(uint16)": "c3da17f3",
        "setOwner(uint40)": "7ba706e8",
        "setRoleAdmin(bytes32,uint40)": "16dc517e",
        "updateBenchmark(uint16,uint32,bool)": "58bbf64a"
    },
    "gasEstimates": {
        "creation": {
            "codeDepositCost": "2741200",
            "executionCost": "2984",
            "totalCost": "2744184"
        },
        "external": {
            "abandonRole(bytes32)": "infinite",
            "addBenchmark(uint16,uint32)": "infinite",
            "addObligor(uint16,uint40)": "infinite",
            "delBenchmark(uint16)": "infinite",
            "finalized()": "2394",
            "getBenchmark(uint16)": "infinite",
            "getBookeeper()": "infinite",
            "getGeneralCounsel()": "infinite",
            "getOwner()": "infinite",
            "giftPar(bytes32,bytes32)": "infinite",
            "grantRole(bytes32,uint40)": "infinite",
            "hasRole(bytes32,uint40)": "infinite",
            "init(uint40,address,address,address)": "infinite",
            "isExempted(address,bytes32)": "infinite",
            "isMarked(uint16)": "2702",
            "isTriggered(address,bytes32)": "infinite",
            "lockContents()": "infinite",
            "markedClasses()": "infinite",
            "obligors(uint16)": "infinite",
            "removeObligor(uint16,uint40)": "infinite",
            "renounceRole(bytes32)": "infinite",
            "revokeRole(bytes32,uint40)": "infinite",
            "setDirectKeeper(address)": "infinite",
            "setGeneralCounsel(uint40)": "infinite",
            "setMaxQtyOfMarks(uint16)": "infinite",
            "setOwner(uint40)": "infinite",
            "setRoleAdmin(bytes32,uint40)": "infinite",
            "updateBenchmark(uint16,uint32,bool)": "infinite"
        },
        "internal": {
            "_isExempted(uint32,uint40[] memory)": "infinite",
            "_membersOfClass(uint16)": "infinite"
        }
    }
}