{
    "contractName": "AntiDilution",
    "abi": [
        {
            "anonymous": false,
            "inputs": [
                {
                    "indexed": false,
                    "internalType": "uint256",
                    "name": "owner",
                    "type": "uint256"
                },
                {
                    "indexed": false,
                    "internalType": "address",
                    "name": "directKeeper",
                    "type": "address"
                },
                {
                    "indexed": false,
                    "internalType": "address",
                    "name": "regCenter",
                    "type": "address"
                },
                {
                    "indexed": false,
                    "internalType": "address",
                    "name": "generalKeeper",
                    "type": "address"
                }
            ],
            "name": "Init",
            "type": "event"
        },
        {
            "anonymous": false,
            "inputs": [],
            "name": "LockContents",
            "type": "event"
        },
        {
            "anonymous": false,
            "inputs": [
                {
                    "indexed": false,
                    "internalType": "address",
                    "name": "keeper",
                    "type": "address"
                }
            ],
            "name": "SetDirectKeeper",
            "type": "event"
        },
        {
            "anonymous": false,
            "inputs": [
                {
                    "indexed": false,
                    "internalType": "uint256",
                    "name": "acct",
                    "type": "uint256"
                }
            ],
            "name": "SetGeneralCounsel",
            "type": "event"
        },
        {
            "anonymous": false,
            "inputs": [
                {
                    "indexed": false,
                    "internalType": "address",
                    "name": "gk",
                    "type": "address"
                }
            ],
            "name": "SetGeneralKeeper",
            "type": "event"
        },
        {
            "anonymous": false,
            "inputs": [
                {
                    "indexed": false,
                    "internalType": "uint256",
                    "name": "acct",
                    "type": "uint256"
                }
            ],
            "name": "SetOwner",
            "type": "event"
        },
        {
            "anonymous": false,
            "inputs": [
                {
                    "indexed": false,
                    "internalType": "address",
                    "name": "rc",
                    "type": "address"
                }
            ],
            "name": "SetRegCenter",
            "type": "event"
        },
        {
            "inputs": [
                {
                    "internalType": "bytes32",
                    "name": "role",
                    "type": "bytes32"
                }
            ],
            "name": "abandonRole",
            "outputs": [],
            "stateMutability": "nonpayable",
            "type": "function"
        },
        {
            "inputs": [
                {
                    "internalType": "uint256",
                    "name": "class",
                    "type": "uint256"
                },
                {
                    "internalType": "uint32",
                    "name": "price",
                    "type": "uint32"
                }
            ],
            "name": "addBenchmark",
            "outputs": [],
            "stateMutability": "nonpayable",
            "type": "function"
        },
        {
            "inputs": [
                {
                    "internalType": "uint256",
                    "name": "class",
                    "type": "uint256"
                },
                {
                    "internalType": "uint256",
                    "name": "obligor",
                    "type": "uint256"
                }
            ],
            "name": "addObligor",
            "outputs": [],
            "stateMutability": "nonpayable",
            "type": "function"
        },
        {
            "inputs": [
                {
                    "internalType": "uint256",
                    "name": "class",
                    "type": "uint256"
                }
            ],
            "name": "delBenchmark",
            "outputs": [],
            "stateMutability": "nonpayable",
            "type": "function"
        },
        {
            "inputs": [],
            "name": "finalized",
            "outputs": [
                {
                    "internalType": "bool",
                    "name": "",
                    "type": "bool"
                }
            ],
            "stateMutability": "view",
            "type": "function"
        },
        {
            "inputs": [
                {
                    "internalType": "uint256",
                    "name": "class",
                    "type": "uint256"
                }
            ],
            "name": "getBenchmark",
            "outputs": [
                {
                    "internalType": "uint64",
                    "name": "price",
                    "type": "uint64"
                }
            ],
            "stateMutability": "view",
            "type": "function"
        },
        {
            "inputs": [],
            "name": "getBookeeper",
            "outputs": [
                {
                    "internalType": "address",
                    "name": "",
                    "type": "address"
                }
            ],
            "stateMutability": "view",
            "type": "function"
        },
        {
            "inputs": [],
            "name": "getGeneralCounsel",
            "outputs": [
                {
                    "internalType": "uint40",
                    "name": "",
                    "type": "uint40"
                }
            ],
            "stateMutability": "view",
            "type": "function"
        },
        {
            "inputs": [],
            "name": "getOwner",
            "outputs": [
                {
                    "internalType": "uint40",
                    "name": "",
                    "type": "uint40"
                }
            ],
            "stateMutability": "view",
            "type": "function"
        },
        {
            "inputs": [
                {
                    "internalType": "address",
                    "name": "ia",
                    "type": "address"
                },
                {
                    "internalType": "uint256",
                    "name": "seqOfDeal",
                    "type": "uint256"
                },
                {
                    "internalType": "uint256",
                    "name": "seqOfShare",
                    "type": "uint256"
                }
            ],
            "name": "giftPar",
            "outputs": [
                {
                    "internalType": "uint64",
                    "name": "gift",
                    "type": "uint64"
                }
            ],
            "stateMutability": "view",
            "type": "function"
        },
        {
            "inputs": [
                {
                    "internalType": "bytes32",
                    "name": "role",
                    "type": "bytes32"
                },
                {
                    "internalType": "uint256",
                    "name": "acct",
                    "type": "uint256"
                }
            ],
            "name": "grantRole",
            "outputs": [],
            "stateMutability": "nonpayable",
            "type": "function"
        },
        {
            "inputs": [
                {
                    "internalType": "bytes32",
                    "name": "role",
                    "type": "bytes32"
                },
                {
                    "internalType": "uint256",
                    "name": "acct",
                    "type": "uint256"
                }
            ],
            "name": "hasRole",
            "outputs": [
                {
                    "internalType": "bool",
                    "name": "",
                    "type": "bool"
                }
            ],
            "stateMutability": "view",
            "type": "function"
        },
        {
            "inputs": [
                {
                    "internalType": "uint256",
                    "name": "owner",
                    "type": "uint256"
                },
                {
                    "internalType": "address",
                    "name": "directKeeper",
                    "type": "address"
                },
                {
                    "internalType": "address",
                    "name": "regCenter",
                    "type": "address"
                },
                {
                    "internalType": "address",
                    "name": "generalKeeper",
                    "type": "address"
                }
            ],
            "name": "init",
            "outputs": [],
            "stateMutability": "nonpayable",
            "type": "function"
        },
        {
            "inputs": [
                {
                    "internalType": "address",
                    "name": "ia",
                    "type": "address"
                },
                {
                    "internalType": "uint256",
                    "name": "seqOfDeal",
                    "type": "uint256"
                }
            ],
            "name": "isExempted",
            "outputs": [
                {
                    "internalType": "bool",
                    "name": "",
                    "type": "bool"
                }
            ],
            "stateMutability": "view",
            "type": "function"
        },
        {
            "inputs": [
                {
                    "internalType": "uint256",
                    "name": "class",
                    "type": "uint256"
                }
            ],
            "name": "isMarked",
            "outputs": [
                {
                    "internalType": "bool",
                    "name": "",
                    "type": "bool"
                }
            ],
            "stateMutability": "view",
            "type": "function"
        },
        {
            "inputs": [
                {
                    "internalType": "address",
                    "name": "ia",
                    "type": "address"
                },
                {
                    "internalType": "uint256",
                    "name": "seqOfDeal",
                    "type": "uint256"
                }
            ],
            "name": "isTriggered",
            "outputs": [
                {
                    "internalType": "bool",
                    "name": "",
                    "type": "bool"
                }
            ],
            "stateMutability": "view",
            "type": "function"
        },
        {
            "inputs": [],
            "name": "lockContents",
            "outputs": [],
            "stateMutability": "nonpayable",
            "type": "function"
        },
        {
            "inputs": [],
            "name": "markedClasses",
            "outputs": [
                {
                    "internalType": "uint256[]",
                    "name": "",
                    "type": "uint256[]"
                }
            ],
            "stateMutability": "view",
            "type": "function"
        },
        {
            "inputs": [
                {
                    "internalType": "uint256",
                    "name": "class",
                    "type": "uint256"
                }
            ],
            "name": "obligors",
            "outputs": [
                {
                    "internalType": "uint256[]",
                    "name": "",
                    "type": "uint256[]"
                }
            ],
            "stateMutability": "view",
            "type": "function"
        },
        {
            "inputs": [
                {
                    "internalType": "uint256",
                    "name": "class",
                    "type": "uint256"
                },
                {
                    "internalType": "uint256",
                    "name": "obligor",
                    "type": "uint256"
                }
            ],
            "name": "removeObligor",
            "outputs": [],
            "stateMutability": "nonpayable",
            "type": "function"
        },
        {
            "inputs": [
                {
                    "internalType": "bytes32",
                    "name": "role",
                    "type": "bytes32"
                }
            ],
            "name": "renounceRole",
            "outputs": [],
            "stateMutability": "nonpayable",
            "type": "function"
        },
        {
            "inputs": [
                {
                    "internalType": "bytes32",
                    "name": "role",
                    "type": "bytes32"
                },
                {
                    "internalType": "uint256",
                    "name": "acct",
                    "type": "uint256"
                }
            ],
            "name": "revokeRole",
            "outputs": [],
            "stateMutability": "nonpayable",
            "type": "function"
        },
        {
            "inputs": [
                {
                    "internalType": "address",
                    "name": "keeper",
                    "type": "address"
                }
            ],
            "name": "setDirectKeeper",
            "outputs": [],
            "stateMutability": "nonpayable",
            "type": "function"
        },
        {
            "inputs": [
                {
                    "internalType": "uint256",
                    "name": "acct",
                    "type": "uint256"
                }
            ],
            "name": "setGeneralCounsel",
            "outputs": [],
            "stateMutability": "nonpayable",
            "type": "function"
        },
        {
            "inputs": [
                {
                    "internalType": "uint16",
                    "name": "max",
                    "type": "uint16"
                }
            ],
            "name": "setMaxQtyOfMarks",
            "outputs": [],
            "stateMutability": "nonpayable",
            "type": "function"
        },
        {
            "inputs": [
                {
                    "internalType": "uint256",
                    "name": "acct",
                    "type": "uint256"
                }
            ],
            "name": "setOwner",
            "outputs": [],
            "stateMutability": "nonpayable",
            "type": "function"
        },
        {
            "inputs": [
                {
                    "internalType": "bytes32",
                    "name": "role",
                    "type": "bytes32"
                },
                {
                    "internalType": "uint256",
                    "name": "acct",
                    "type": "uint256"
                }
            ],
            "name": "setRoleAdmin",
            "outputs": [],
            "stateMutability": "nonpayable",
            "type": "function"
        },
        {
            "inputs": [
                {
                    "internalType": "uint256",
                    "name": "class",
                    "type": "uint256"
                },
                {
                    "internalType": "uint32",
                    "name": "deltaPrice",
                    "type": "uint32"
                },
                {
                    "internalType": "bool",
                    "name": "increase",
                    "type": "bool"
                }
            ],
            "name": "updateBenchmark",
            "outputs": [],
            "stateMutability": "nonpayable",
            "type": "function"
        }
    ],
    "bytecode": "608060405234801561001057600080fd5b506133af806100206000396000f3fe608060405234801561001057600080fd5b50600436106101c45760003560e01c806384a058c9116100f9578063badbf7fc11610097578063ea6cfb3e11610071578063ea6cfb3e146103c3578063ed211023146103d6578063f045a769146103f6578063f75afd2a146103fe57600080fd5b8063badbf7fc1461038a578063c3da17f31461039d578063dc890da9146103b057600080fd5b806393832e88116100d357806393832e881461033b578063a4fb56f114610350578063a9c4133c14610363578063b3f05b971461037657600080fd5b806384a058c9146102f5578063893d20e8146103205780638bb9c5bf1461032857600080fd5b80634a14beb111610166578063527b109a11610140578063527b109a146102a95780636be8496f146102bc5780637e063c5a146102cf5780638041494e146102e257600080fd5b80634a14beb1146102605780634f500a8f146102735780635171ebd41461029657600080fd5b806319d61ad9116101a257806319d61ad9146102145780631b6ea9f91461022757806320a390b11461023a5780633da9a6001461024d57600080fd5b80630d26f515146101c95780630eeeaf48146101de578063103f6edd146101f1575b600080fd5b6101dc6101d7366004612834565b610411565b005b6101dc6101ec366004612876565b61058e565b6101f9610825565b60405164ffffffffff90911681526020015b60405180910390f35b6101dc61022236600461288f565b6108b1565b6101dc61023536600461288f565b610945565b6101dc61024836600461288f565b61096a565b6101dc61025b366004612876565b610a89565b6101dc61026e366004612876565b610b9c565b6102866102813660046128c6565b610d8c565b604051901515815260200161020b565b6101dc6102a436600461288f565b610ef8565b6102866102b73660046128c6565b610f1d565b6101dc6102ca3660046128f2565b611102565b6102866102dd36600461288f565b6111b4565b6101dc6102f0366004612876565b61124f565b61030861030336600461290f565b611434565b6040516001600160401b03909116815260200161020b565b6101f961160a565b6101dc610336366004612876565b611645565b61034361169e565b60405161020b9190612944565b61028661035e366004612876565b611728565b6101dc61037136600461288f565b611759565b60028054600160f01b900460ff1614610286565b610308610398366004612876565b611878565b6101dc6103ab366004612998565b611947565b6101dc6103be3660046129b5565b611a59565b6101dc6103d1366004612a08565b611b3c565b6103de611ce9565b6040516001600160a01b03909116815260200161020b565b6101dc611d6f565b61034361040c366004612876565b611f8d565b73__$364aad554dc80380f414546becdd2c1584$__63a8ef95ac6002684174746f726e65797360b81b6104426120d4565b6040516001600160e01b031960e086901b1681526004810193909352602483019190915264ffffffffff16604482015260640160206040518083038186803b15801561048d57600080fd5b505af41580156104a1573d6000803e3d6000fd5b505050506040513d601f19601f820116820180604052508101906104c59190612a38565b6104ea5760405162461bcd60e51b81526004016104e190612a55565b60405180910390fd5b604051632eb1c72b60e01b8152600560048201526024810184905263ffffffff83166044820152811515606482015273__$0373da85302df7c003c5cc5214782e6132$__90632eb1c72b9060840160206040518083038186803b15801561055057600080fd5b505af4158015610564573d6000803e3d6000fd5b505050506040513d601f19601f820116820180604052508101906105889190612a38565b50505050565b73__$364aad554dc80380f414546becdd2c1584$__63a8ef95ac6002684174746f726e65797360b81b6105bf6120d4565b6040516001600160e01b031960e086901b1681526004810193909352602483019190915264ffffffffff16604482015260640160206040518083038186803b15801561060a57600080fd5b505af415801561061e573d6000803e3d6000fd5b505050506040513d601f19601f820116820180604052508101906106429190612a38565b61065e5760405162461bcd60e51b81526004016104e190612a55565b6040516327ebfb3760e01b8152600560048201526024810182905260009073__$0373da85302df7c003c5cc5214782e6132$__906327ebfb379060440160c06040518083038186803b1580156106b357600080fd5b505af41580156106c7573d6000803e3d6000fd5b505050506040513d601f19601f820116820180604052508101906106eb9190612b99565b6060810151604051632eb1c72b60e01b815260056004820152602481018590526001600160401b0390911660448201526000606482015290915073__$0373da85302df7c003c5cc5214782e6132$__90632eb1c72b9060840160206040518083038186803b15801561075c57600080fd5b505af4158015610770573d6000803e3d6000fd5b505050506040513d601f19601f820116820180604052508101906107949190612a38565b50604051630d47959760e31b8152600560048201526024810183905273__$0373da85302df7c003c5cc5214782e6132$__90636a3cacb8906044015b60206040518083038186803b1580156107e857600080fd5b505af41580156107fc573d6000803e3d6000fd5b505050506040513d601f19601f820116820180604052508101906108209190612a38565b505050565b60405163e8c0cc1d60e01b81526002600482015260009073__$364aad554dc80380f414546becdd2c1584$__9063e8c0cc1d906024015b60206040518083038186803b15801561087457600080fd5b505af4158015610888573d6000803e3d6000fd5b505050506040513d601f19601f820116820180604052508101906108ac9190612c37565b905090565b73__$364aad554dc80380f414546becdd2c1584$__6382daafaa6002846108d66120d4565b6040516001600160e01b031960e086901b1681526004810193909352602483019190915264ffffffffff166044820152606481018490526084015b60006040518083038186803b15801561092957600080fd5b505af415801561093d573d6000803e3d6000fd5b505050505050565b73__$364aad554dc80380f414546becdd2c1584$__636320d75e6002846108d66120d4565b73__$364aad554dc80380f414546becdd2c1584$__63a8ef95ac6002684174746f726e65797360b81b61099b6120d4565b6040516001600160e01b031960e086901b1681526004810193909352602483019190915264ffffffffff16604482015260640160206040518083038186803b1580156109e657600080fd5b505af41580156109fa573d6000803e3d6000fd5b505050506040513d601f19601f82011682018060405250810190610a1e9190612a38565b610a3a5760405162461bcd60e51b81526004016104e190612a55565b60008281526004602081905260409182902091516392f13c3f60e01b815273__$8c1a4844a0a0988ea2454cf87145a95df1$__926392f13c3f926107d092869101918252602082015260400190565b604051633b11adbf60e21b81526002600482015233602482015273__$364aad554dc80380f414546becdd2c1584$__9063ec46b6fc9060440160206040518083038186803b158015610ada57600080fd5b505af4158015610aee573d6000803e3d6000fd5b505050506040513d601f19601f82011682018060405250810190610b129190612a38565b610b2e5760405162461bcd60e51b81526004016104e190612c52565b60405163cc99e11b60e01b8152600260048201526024810182905273__$364aad554dc80380f414546becdd2c1584$__9063cc99e11b906044015b60006040518083038186803b158015610b8157600080fd5b505af4158015610b95573d6000803e3d6000fd5b5050505050565b604051633b11adbf60e21b81526002600482015233602482015273__$364aad554dc80380f414546becdd2c1584$__9063ec46b6fc9060440160206040518083038186803b158015610bed57600080fd5b505af4158015610c01573d6000803e3d6000fd5b505050506040513d601f19601f82011682018060405250810190610c259190612a38565b80610cca575073__$364aad554dc80380f414546becdd2c1584$__63fe2710866002610c4f6120d4565b6040516001600160e01b031960e085901b168152600481019290925264ffffffffff16602482015260440160206040518083038186803b158015610c9257600080fd5b505af4158015610ca6573d6000803e3d6000fd5b505050506040513d601f19601f82011682018060405250810190610cca9190612a38565b610ce65760405162461bcd60e51b81526004016104e190612c98565b604051632725ebef60e21b8152600260048201526024810182905273__$364aad554dc80380f414546becdd2c1584$__90639c97afbc9060440160006040518083038186803b158015610d3857600080fd5b505af4158015610d4c573d6000803e3d6000fd5b505050507ff2735f34b69be1e6342dea95f9162f84d0db925fab655ca9f1f312ac8cbfc99d81604051610d8191815260200190565b60405180910390a150565b6040516320bf56eb60e21b81526004810182905260009081906001600160a01b038516906382fd5bac906024016101c06040518083038186803b158015610dd257600080fd5b505afa158015610de6573d6000803e3d6000fd5b505050506040513d601f19601f82011682018060405250810190610e0a9190612d99565b80515190915060ff16600114801590610e29575080515160ff16600814155b15610e38576000915050610ef2565b6000805260056020527f05b8ccbb9d4d8fb16ea74ce3c29a41f1b461fbdaff4714a0d9a8eb05499746bc54600160281b900464ffffffffff165b64ffffffffff811615610eeb5764ffffffffff8116600090815260056020526040902054825160800151600160781b9091046001600160401b031663ffffffff9091161015610ec657600192505050610ef2565b64ffffffffff908116600090815260056020526040902054600160281b900416610e72565b6000925050505b92915050565b73__$364aad554dc80380f414546becdd2c1584$__63ee98b3136002846108d66120d4565b6000610f298383610d8c565b610f3557506001610ef2565b6000836001600160a01b0316639b59d9806040518163ffffffff1660e01b815260040160206040518083038186803b158015610f7057600080fd5b505afa158015610f84573d6000803e3d6000fd5b505050506040513d601f19601f82011682018060405250810190610fa89190612e8d565b60ff1690506000846001600160a01b031660a083901b610fc89190612ebe565b905060606000610fd661212e565b604051638d5b658560e01b815260048101859052600160248201526001600160a01b039190911690638d5b65859060440160006040518083038186803b15801561101f57600080fd5b505afa158015611033573d6000803e3d6000fd5b505050506040513d6000823e601f3d908101601f1916820160405261105b9190810190612ef9565b6040015190508091506000876001600160a01b03166382fd5bac886040518263ffffffff1660e01b815260040161109491815260200190565b6101c06040518083038186803b1580156110ad57600080fd5b505afa1580156110c1573d6000803e3d6000fd5b505050506040513d601f19601f820116820180604052508101906110e59190612d99565b516080015190506110f68184612195565b98975050505050505050565b604051630f07232560e01b8152600260048201523360248201526001600160a01b038216604482015273__$364aad554dc80380f414546becdd2c1584$__90630f0723259060640160006040518083038186803b15801561116257600080fd5b505af4158015611176573d6000803e3d6000fd5b50506040516001600160a01b03841681527fe435cbeab64e4eae6497b9d8289704bd709d624a80704ef3ca9af777534bc6ec92506020019050610d81565b604051632a3be56b60e21b815260026004820152602481018390526044810182905260009073__$364aad554dc80380f414546becdd2c1584$__9063a8ef95ac9060640160206040518083038186803b15801561121057600080fd5b505af4158015611224573d6000803e3d6000fd5b505050506040513d601f19601f820116820180604052508101906112489190612a38565b9392505050565b604051633b11adbf60e21b81526002600482015233602482015273__$364aad554dc80380f414546becdd2c1584$__9063ec46b6fc9060440160206040518083038186803b1580156112a057600080fd5b505af41580156112b4573d6000803e3d6000fd5b505050506040513d601f19601f820116820180604052508101906112d89190612a38565b8061137d575073__$364aad554dc80380f414546becdd2c1584$__63fe27108660026113026120d4565b6040516001600160e01b031960e085901b168152600481019290925264ffffffffff16602482015260440160206040518083038186803b15801561134557600080fd5b505af4158015611359573d6000803e3d6000fd5b505050506040513d601f19601f8201168201806040525081019061137d9190612a38565b6113995760405162461bcd60e51b81526004016104e190612c98565b60405163b6e38a2960e01b8152600260048201526024810182905273__$364aad554dc80380f414546becdd2c1584$__9063b6e38a299060440160006040518083038186803b1580156113eb57600080fd5b505af41580156113ff573d6000803e3d6000fd5b505050507f8b6f40f36b4ae8cc5f55e895036457c43da4ab1f80f58c46f5ff0d72a650033b81604051610d8191815260200190565b6040516320bf56eb60e21b81526004810183905260009081906001600160a01b038616906382fd5bac906024016101c06040518083038186803b15801561147a57600080fd5b505afa15801561148e573d6000803e3d6000fd5b505050506040513d601f19601f820116820180604052508101906114b29190612d99565b905060006114be61235e565b6001600160a01b031663cfb5a5f8856040518263ffffffff1660e01b81526004016114eb91815260200190565b6101606040518083038186803b15801561150457600080fd5b505afa158015611518573d6000803e3d6000fd5b505050506040513d601f19601f8201168201806040525081019061153c919061307b565b80515161ffff16600090815260056020526040902054835160800151919250600160781b90046001600160401b03169063ffffffff1681116115cf5760405162461bcd60e51b815260206004820152602660248201527f41442e676966745061723a20416e746944696c7574696f6e206e6f742074726960448201526519d9d95c995960d21b60648201526084016104e1565b60208201515183516080015163ffffffff166115eb8383613134565b6115f59190613163565b6115ff9190613197565b979650505050505050565b60405163987ad15360e01b81526002600482015260009073__$364aad554dc80380f414546becdd2c1584$__9063987ad1539060240161085c565b600061164f6120d4565b60405163cc0d511b60e01b8152600260048201526024810184905264ffffffffff8216604482015290915073__$364aad554dc80380f414546becdd2c1584$__9063cc0d511b90606401610911565b604051632666ad2360e21b81526005600482015260609073__$0373da85302df7c003c5cc5214782e6132$__9063999ab48c9060240160006040518083038186803b1580156116ec57600080fd5b505af4158015611700573d6000803e3d6000fd5b505050506040513d6000823e601f3d908101601f191682016040526108ac91908101906131bf565b60008082118015610ef2575050600090815260056020526040902054600160781b90046001600160401b0316151590565b73__$364aad554dc80380f414546becdd2c1584$__63a8ef95ac6002684174746f726e65797360b81b61178a6120d4565b6040516001600160e01b031960e086901b1681526004810193909352602483019190915264ffffffffff16604482015260640160206040518083038186803b1580156117d557600080fd5b505af41580156117e9573d6000803e3d6000fd5b505050506040513d601f19601f8201168201806040525081019061180d9190612a38565b6118295760405162461bcd60e51b81526004016104e190612a55565b60008281526004602081905260409182902091516392fd02df60e01b815273__$8c1a4844a0a0988ea2454cf87145a95df1$__926392fd02df926107d092869101918252602082015260400190565b604051630a4225b960e41b81526005600482015260248101829052600090829073__$0373da85302df7c003c5cc5214782e6132$__9063a4225b909060440160206040518083038186803b1580156118cf57600080fd5b505af41580156118e3573d6000803e3d6000fd5b505050506040513d601f19601f820116820180604052508101906119079190612a38565b6119235760405162461bcd60e51b81526004016104e190613244565b5050600090815260056020526040902054600160781b90046001600160401b031690565b73__$364aad554dc80380f414546becdd2c1584$__63a8ef95ac6002684174746f726e65797360b81b6119786120d4565b6040516001600160e01b031960e086901b1681526004810193909352602483019190915264ffffffffff16604482015260640160206040518083038186803b1580156119c357600080fd5b505af41580156119d7573d6000803e3d6000fd5b505050506040513d601f19601f820116820180604052508101906119fb9190612a38565b611a175760405162461bcd60e51b81526004016104e190612a55565b604051630f98e91f60e21b81526005600482015261ffff8216602482015273__$0373da85302df7c003c5cc5214782e6132$__90633e63a47c90604401610b69565b611a6282612379565b611a6b81612428565b604051636cdd0edf60e11b815260026004820152602481018590526001600160a01b038416604482015273__$364aad554dc80380f414546becdd2c1584$__9063d9ba1dbe9060640160006040518083038186803b158015611acc57600080fd5b505af4158015611ae0573d6000803e3d6000fd5b5050604080518781526001600160a01b038781166020830152868116828401528516606082015290517f3abb2418c66fe32ba9c883030a75ce583971d9af9192b9b74e44e67c5e6c8c1f9350908190036080019150a150505050565b73__$364aad554dc80380f414546becdd2c1584$__63a8ef95ac6002684174746f726e65797360b81b611b6d6120d4565b6040516001600160e01b031960e086901b1681526004810193909352602483019190915264ffffffffff16604482015260640160206040518083038186803b158015611bb857600080fd5b505af4158015611bcc573d6000803e3d6000fd5b505050506040513d601f19601f82011682018060405250810190611bf09190612a38565b611c0c5760405162461bcd60e51b81526004016104e190612a55565b6040516324ac0fef60e11b8152600560048201526024810183905273__$0373da85302df7c003c5cc5214782e6132$__906349581fde9060440160206040518083038186803b158015611c5e57600080fd5b505af4158015611c72573d6000803e3d6000fd5b505050506040513d601f19601f82011682018060405250810190611c969190612a38565b50604051632eb1c72b60e01b8152600560048201526024810183905263ffffffff821660448201526001606482015273__$0373da85302df7c003c5cc5214782e6132$__90632eb1c72b906084016107d0565b604051633c3e56c160e11b81526002600482015260009073__$364aad554dc80380f414546becdd2c1584$__9063787cad829060240160206040518083038186803b158015611d3757600080fd5b505af4158015611d4b573d6000803e3d6000fd5b505050506040513d601f19601f820116820180604052508101906108ac9190613294565b604051633b11adbf60e21b81526002600482015233602482015273__$364aad554dc80380f414546becdd2c1584$__9063ec46b6fc9060440160206040518083038186803b158015611dc057600080fd5b505af4158015611dd4573d6000803e3d6000fd5b505050506040513d601f19601f82011682018060405250810190611df89190612a38565b611e145760405162461bcd60e51b81526004016104e190612c52565b600254600160f01b900460ff16600114611e705760405162461bcd60e51b815260206004820181905260248201527f41432e6f6e6c7950656e64696e673a20446f632069732066696e616c697a656460448201526064016104e1565b60405163cc99e11b60e01b815260026004820152684174746f726e65797360b81b602482015273__$364aad554dc80380f414546becdd2c1584$__9063cc99e11b9060440160006040518083038186803b158015611ecd57600080fd5b505af4158015611ee1573d6000803e3d6000fd5b5050604051632725ebef60e21b8152600260048201526000602482015273__$364aad554dc80380f414546becdd2c1584$__9250639c97afbc915060440160006040518083038186803b158015611f3757600080fd5b505af4158015611f4b573d6000803e3d6000fd5b50506002805460ff60f01b1916600160f11b17905550506040517f35012b512309c322acf68632cd6cb702ff0e1d776fbe9394e38ffc13b434fe7590600090a1565b604051630a4225b960e41b81526005600482015260248101829052606090829073__$0373da85302df7c003c5cc5214782e6132$__9063a4225b909060440160206040518083038186803b158015611fe457600080fd5b505af4158015611ff8573d6000803e3d6000fd5b505050506040513d601f19601f8201168201806040525081019061201c9190612a38565b6120385760405162461bcd60e51b81526004016104e190613244565b600083815260046020819052604091829020915163034306e160e21b815273__$8c1a4844a0a0988ea2454cf87145a95df1$__92630d0c1b8492612080920190815260200190565b60006040518083038186803b15801561209857600080fd5b505af41580156120ac573d6000803e3d6000fd5b505050506040513d6000823e601f3d908101601f1916820160405261124891908101906131bf565b60008054604051634de835e760e11b81523360048201526001600160a01b0390911690639bd06bce90602401602060405180830381600087803b15801561211a57600080fd5b505af1158015610888573d6000803e3d6000fd5b600180546000916001600160a01b039091169063e06eba8c905b6040516001600160e01b031960e084901b16815260ff909116600482015260240160206040518083038186803b15801561218157600080fd5b505afa158015611d4b573d6000803e3d6000fd5b60008151600014156121f45760405162461bcd60e51b815260206004820152602260248201527f41442e69734578656d707465643a207a65726f20636f6e73656e745061727469604482015261657360f01b60648201526084016104e1565b6000805260056020527f05b8ccbb9d4d8fb16ea74ce3c29a41f1b461fbdaff4714a0d9a8eb05499746bc54600160281b900464ffffffffff165b64ffffffffff8116156123545764ffffffffff811660009081526005602052604090205463ffffffff8516600160781b9091046001600160401b03161161227457612354565b600061227f826124df565b905083518151111561229657600092505050610ef2565b604051638410a30d60e01b815273__$ccb256085f563a601d001f7c9087d87207$__90638410a30d906122cf90849088906004016132ec565b60206040518083038186803b1580156122e757600080fd5b505af41580156122fb573d6000803e3d6000fd5b505050506040513d601f19601f8201168201806040525081019061231f9190612a38565b61232e57600092505050610ef2565b5064ffffffffff908116600090815260056020526040902054600160281b90041661222e565b5060019392505050565b6001546000906001600160a01b031663e06eba8c6006612148565b6000546001600160a01b0316156123ca5760405162461bcd60e51b815260206004820152601560248201527430b63932b0b23c9039b2ba103932b3a1b2b73a32b960591b60448201526064016104e1565b6040516001600160a01b03821681527f318da6c7624c71cbc0afe346c9d8827f119d0ecefb241a7b0c87217a076a8e029060200160405180910390a1600080546001600160a01b0319166001600160a01b0392909216919091179055565b6001546001600160a01b0316156124815760405162461bcd60e51b815260206004820152601960248201527f616c7265616479207365742067656e6572616c4b65657065720000000000000060448201526064016104e1565b6040516001600160a01b03821681527fe513d3e0f0d0a3877029dcc588748679a7a3450ec1ec7ed56d96bd012c3e61aa9060200160405180910390a1600180546001600160a01b0319166001600160a01b0392909216919091179055565b606060006124eb6127f6565b90506000816001600160a01b031663dd5042f46040518163ffffffff1660e01b815260040160006040518083038186803b15801561252857600080fd5b505afa15801561253c573d6000803e3d6000fd5b505050506040513d6000823e601f3d908101601f1916820160405261256491908101906131bf565b80519091506000816001600160401b0381111561258357612583612a82565b6040519080825280602002602001820160405280156125ac578160200160208202803683370190505b50905060005b82156127a55760006001600160a01b03861663e80bf906866125d560018861331a565b815181106125e5576125e5613331565b60200260200101516040518263ffffffff1660e01b815260040161260b91815260200190565b60006040518083038186803b15801561262357600080fd5b505afa158015612637573d6000803e3d6000fd5b505050506040513d6000823e601f3d908101601f1916820160405261265f91908101906131bf565b80519091505b801561279157600061267561235e565b6001600160a01b031663cfb5a5f88461268f60018661331a565b8151811061269f5761269f613331565b60200260200101516040518263ffffffff1660e01b81526004016126c591815260200190565b6101606040518083038186803b1580156126de57600080fd5b505afa1580156126f2573d6000803e3d6000fd5b505050506040513d601f19601f82011682018060405250810190612716919061307b565b80515190915061ffff8b81169116141561277e578661273660018861331a565b8151811061274657612746613331565b602002602001015185858151811061276057612760613331565b60209081029190910101528361277581613347565b94505050612791565b8161278881613362565b92505050612665565b8461279b81613362565b95505050506125b2565b6000816001600160401b038111156127bf576127bf612a82565b6040519080825280602002602001820160405280156127e8578160200160208202803683370190505b509298975050505050505050565b6001546000906001600160a01b031663e06eba8c6007612148565b63ffffffff8116811461282357600080fd5b50565b801515811461282357600080fd5b60008060006060848603121561284957600080fd5b83359250602084013561285b81612811565b9150604084013561286b81612826565b809150509250925092565b60006020828403121561288857600080fd5b5035919050565b600080604083850312156128a257600080fd5b50508035926020909101359150565b6001600160a01b038116811461282357600080fd5b600080604083850312156128d957600080fd5b82356128e4816128b1565b946020939093013593505050565b60006020828403121561290457600080fd5b8135611248816128b1565b60008060006060848603121561292457600080fd5b833561292f816128b1565b95602085013595506040909401359392505050565b6020808252825182820181905260009190848201906040850190845b8181101561297c57835183529284019291840191600101612960565b50909695505050505050565b61ffff8116811461282357600080fd5b6000602082840312156129aa57600080fd5b813561124881612988565b600080600080608085870312156129cb57600080fd5b8435935060208501356129dd816128b1565b925060408501356129ed816128b1565b915060608501356129fd816128b1565b939692955090935050565b60008060408385031215612a1b57600080fd5b823591506020830135612a2d81612811565b809150509250929050565b600060208284031215612a4a57600080fd5b815161124881612826565b60208082526013908201527241432e6f743a206e6f74204174746f726e657960681b604082015260600190565b634e487b7160e01b600052604160045260246000fd5b604051606081016001600160401b0381118282101715612aba57612aba612a82565b60405290565b60405161012081016001600160401b0381118282101715612aba57612aba612a82565b604080519081016001600160401b0381118282101715612aba57612aba612a82565b60405160c081016001600160401b0381118282101715612aba57612aba612a82565b604051601f8201601f191681016001600160401b0381118282101715612b4f57612b4f612a82565b604052919050565b805164ffffffffff81168114612b6c57600080fd5b919050565b80516001600160401b0381168114612b6c57600080fd5b805160ff81168114612b6c57600080fd5b600060c08284031215612bab57600080fd5b60405160c081018181106001600160401b0382111715612bcd57612bcd612a82565b604052612bd983612b57565b8152612be760208401612b57565b6020820152612bf860408401612b57565b6040820152612c0960608401612b71565b6060820152612c1a60808401612b71565b6080820152612c2b60a08401612b88565b60a08201529392505050565b600060208284031215612c4957600080fd5b61124882612b57565b60208082526026908201527f41432e6f6e6c794469726563744b65657065723a206e6f74206469726563742060408201526535b2b2b832b960d11b606082015260800190565b60208082526036908201527f41432e6f776e65724f72446972656374426f6f6b65657065723a206e6569746860408201527532b91037bbb732b9103737b9103137b7b5b2b2b832b960511b606082015260800190565b8051612b6c81612988565b8051612b6c81612811565b805165ffffffffffff81168114612b6c57600080fd5b600060808284031215612d2c57600080fd5b604051608081018181106001600160401b0382111715612d4e57612d4e612a82565b604052905080612d5d83612b57565b8152612d6b60208401612b57565b6020820152612d7c60408401612b71565b6040820152612d8d60608401612b71565b60608201525092915050565b60008183036101c0811215612dad57600080fd5b612db5612a98565b61012080831215612dc557600080fd5b612dcd612ac0565b9250612dd885612b88565b8352612de660208601612cee565b6020840152612df760408601612cf9565b6040840152612e0860608601612b57565b6060840152612e1960808601612cf9565b6080840152612e2a60a08601612cf9565b60a0840152612e3b60c08601612cf9565b60c0840152612e4c60e08601612d04565b60e0840152610100612e5f818701612b88565b90840152828252612e7286868301612d1a565b6020830152506101a093909301516040840152509092915050565b600060208284031215612e9f57600080fd5b61124882612b88565b634e487b7160e01b600052601160045260246000fd5b60008219821115612ed157612ed1612ea8565b500190565b60006001600160401b03821115612eef57612eef612a82565b5060051b60200190565b60006020808385031215612f0c57600080fd5b82516001600160401b0380821115612f2357600080fd5b9084019060608287031215612f3757600080fd5b612f3f612a98565b8251612f4a81612811565b8152612f57838501612b71565b84820152604083015182811115612f6d57600080fd5b80840193505086601f840112612f8257600080fd5b82519150612f97612f9283612ed6565b612b27565b82815260059290921b83018401918481019088841115612fb657600080fd5b938501935b83851015612fdb57612fcc85612b57565b82529385019390850190612fbb565b6040830152509695505050505050565b600060a08284031215612ffd57600080fd5b60405160a081018181106001600160401b038211171561301f5761301f612a82565b60405290508061302e83612b71565b815261303c60208401612b71565b602082015261304d60408401612b71565b604082015261305e60608401612d04565b606082015261306f60808401612b88565b60808201525092915050565b600081830361016081121561308f57600080fd5b613097612ae3565b60c08212156130a557600080fd5b6130ad612b05565b915083516130ba81612988565b825260208401516130ca81612811565b60208301526130db60408501612d04565b60408301526130ec60608501612b57565b606083015260808401516130ff81612811565b608083015260a084015161311281612811565b60a08301528181526131278560c08601612feb565b6020820152949350505050565b60006001600160401b038083168185168183048111821515161561315a5761315a612ea8565b02949350505050565b60006001600160401b038084168061318b57634e487b7160e01b600052601260045260246000fd5b92169190910492915050565b60006001600160401b03838116908316818110156131b7576131b7612ea8565b039392505050565b600060208083850312156131d257600080fd5b82516001600160401b038111156131e857600080fd5b8301601f810185136131f957600080fd5b8051613207612f9282612ed6565b81815260059190911b8201830190838101908783111561322657600080fd5b928401925b828410156115ff5783518252928401929084019061322b565b60208082526030908201527f41442e6f6e6c794d61726b65643a206e6f2075696e74207072696365206d616b60408201526f656420666f722074686520636c61737360801b606082015260800190565b6000602082840312156132a657600080fd5b8151611248816128b1565b600081518084526020808501945080840160005b838110156132e1578151875295820195908201906001016132c5565b509495945050505050565b6040815260006132ff60408301856132b1565b828103602084015261331181856132b1565b95945050505050565b60008282101561332c5761332c612ea8565b500390565b634e487b7160e01b600052603260045260246000fd5b600060001982141561335b5761335b612ea8565b5060010190565b60008161337157613371612ea8565b50600019019056fea26469706673582212201f0d27e85a4fbb33448a9ada8d62e5df73d692b9e39759cf6036740ace829eb564736f6c63430008080033",
    "sourcePath": "/Users/kaptain/github.com/hardhat/comboox/contracts/books/boh/terms/AntiDilution.sol",
    "compiler": {
        "name": "solc",
        "version": "0.8.8+commit.dddeac2f"
    },
    "functionHashes": {
        "abandonRole(bytes32)": "3da9a600",
        "addBenchmark(uint256,uint32)": "ea6cfb3e",
        "addObligor(uint256,uint256)": "20a390b1",
        "delBenchmark(uint256)": "0eeeaf48",
        "finalized()": "b3f05b97",
        "getBenchmark(uint256)": "badbf7fc",
        "getBookeeper()": "ed211023",
        "getGeneralCounsel()": "103f6edd",
        "getOwner()": "893d20e8",
        "giftPar(address,uint256,uint256)": "84a058c9",
        "grantRole(bytes32,uint256)": "1b6ea9f9",
        "hasRole(bytes32,uint256)": "7e063c5a",
        "init(uint256,address,address,address)": "dc890da9",
        "isExempted(address,uint256)": "527b109a",
        "isMarked(uint256)": "a4fb56f1",
        "isTriggered(address,uint256)": "4f500a8f",
        "lockContents()": "f045a769",
        "markedClasses()": "93832e88",
        "obligors(uint256)": "f75afd2a",
        "removeObligor(uint256,uint256)": "a9c4133c",
        "renounceRole(bytes32)": "8bb9c5bf",
        "revokeRole(bytes32,uint256)": "19d61ad9",
        "setDirectKeeper(address)": "6be8496f",
        "setGeneralCounsel(uint256)": "4a14beb1",
        "setMaxQtyOfMarks(uint16)": "c3da17f3",
        "setOwner(uint256)": "8041494e",
        "setRoleAdmin(bytes32,uint256)": "5171ebd4",
        "updateBenchmark(uint256,uint32,bool)": "0d26f515"
    },
    "gasEstimates": {
        "creation": {
            "codeDepositCost": "2646200",
            "executionCost": "2869",
            "totalCost": "2649069"
        },
        "external": {
            "abandonRole(bytes32)": "infinite",
            "addBenchmark(uint256,uint32)": "infinite",
            "addObligor(uint256,uint256)": "infinite",
            "delBenchmark(uint256)": "infinite",
            "finalized()": "2438",
            "getBenchmark(uint256)": "infinite",
            "getBookeeper()": "infinite",
            "getGeneralCounsel()": "infinite",
            "getOwner()": "infinite",
            "giftPar(address,uint256,uint256)": "infinite",
            "grantRole(bytes32,uint256)": "infinite",
            "hasRole(bytes32,uint256)": "infinite",
            "init(uint256,address,address,address)": "infinite",
            "isExempted(address,uint256)": "infinite",
            "isMarked(uint256)": "2599",
            "isTriggered(address,uint256)": "infinite",
            "lockContents()": "infinite",
            "markedClasses()": "infinite",
            "obligors(uint256)": "infinite",
            "removeObligor(uint256,uint256)": "infinite",
            "renounceRole(bytes32)": "infinite",
            "revokeRole(bytes32,uint256)": "infinite",
            "setDirectKeeper(address)": "infinite",
            "setGeneralCounsel(uint256)": "infinite",
            "setMaxQtyOfMarks(uint16)": "infinite",
            "setOwner(uint256)": "infinite",
            "setRoleAdmin(bytes32,uint256)": "infinite",
            "updateBenchmark(uint256,uint32,bool)": "infinite"
        },
        "internal": {
            "_isExempted(uint32,uint256[] memory)": "infinite",
            "_membersOfClass(uint16)": "infinite"
        }
    }
}