{
    "contractName": "DragAlong",
    "abi": [
        {
            "anonymous": false,
            "inputs": [
                {
                    "indexed": false,
                    "internalType": "uint256",
                    "name": "owner",
                    "type": "uint256"
                },
                {
                    "indexed": false,
                    "internalType": "address",
                    "name": "directKeeper",
                    "type": "address"
                },
                {
                    "indexed": false,
                    "internalType": "address",
                    "name": "regCenter",
                    "type": "address"
                },
                {
                    "indexed": false,
                    "internalType": "address",
                    "name": "generalKeeper",
                    "type": "address"
                }
            ],
            "name": "Init",
            "type": "event"
        },
        {
            "anonymous": false,
            "inputs": [],
            "name": "LockContents",
            "type": "event"
        },
        {
            "anonymous": false,
            "inputs": [
                {
                    "indexed": false,
                    "internalType": "address",
                    "name": "keeper",
                    "type": "address"
                }
            ],
            "name": "SetDirectKeeper",
            "type": "event"
        },
        {
            "anonymous": false,
            "inputs": [
                {
                    "indexed": false,
                    "internalType": "uint256",
                    "name": "acct",
                    "type": "uint256"
                }
            ],
            "name": "SetGeneralCounsel",
            "type": "event"
        },
        {
            "anonymous": false,
            "inputs": [
                {
                    "indexed": false,
                    "internalType": "address",
                    "name": "gk",
                    "type": "address"
                }
            ],
            "name": "SetGeneralKeeper",
            "type": "event"
        },
        {
            "anonymous": false,
            "inputs": [
                {
                    "indexed": false,
                    "internalType": "uint256",
                    "name": "acct",
                    "type": "uint256"
                }
            ],
            "name": "SetOwner",
            "type": "event"
        },
        {
            "anonymous": false,
            "inputs": [
                {
                    "indexed": false,
                    "internalType": "address",
                    "name": "rc",
                    "type": "address"
                }
            ],
            "name": "SetRegCenter",
            "type": "event"
        },
        {
            "inputs": [
                {
                    "internalType": "bytes32",
                    "name": "role",
                    "type": "bytes32"
                }
            ],
            "name": "abandonRole",
            "outputs": [],
            "stateMutability": "nonpayable",
            "type": "function"
        },
        {
            "inputs": [
                {
                    "internalType": "uint256",
                    "name": "drager",
                    "type": "uint256"
                },
                {
                    "internalType": "uint256",
                    "name": "follower",
                    "type": "uint256"
                }
            ],
            "name": "addFollower",
            "outputs": [],
            "stateMutability": "nonpayable",
            "type": "function"
        },
        {
            "inputs": [
                {
                    "internalType": "bytes32",
                    "name": "rule",
                    "type": "bytes32"
                },
                {
                    "internalType": "uint256",
                    "name": "drager",
                    "type": "uint256"
                }
            ],
            "name": "createLink",
            "outputs": [],
            "stateMutability": "nonpayable",
            "type": "function"
        },
        {
            "inputs": [],
            "name": "dragers",
            "outputs": [
                {
                    "internalType": "uint256[]",
                    "name": "",
                    "type": "uint256[]"
                }
            ],
            "stateMutability": "view",
            "type": "function"
        },
        {
            "inputs": [],
            "name": "finalized",
            "outputs": [
                {
                    "internalType": "bool",
                    "name": "",
                    "type": "bool"
                }
            ],
            "stateMutability": "view",
            "type": "function"
        },
        {
            "inputs": [
                {
                    "internalType": "uint256",
                    "name": "drager",
                    "type": "uint256"
                }
            ],
            "name": "followers",
            "outputs": [
                {
                    "internalType": "uint256[]",
                    "name": "",
                    "type": "uint256[]"
                }
            ],
            "stateMutability": "view",
            "type": "function"
        },
        {
            "inputs": [],
            "name": "getBookeeper",
            "outputs": [
                {
                    "internalType": "address",
                    "name": "",
                    "type": "address"
                }
            ],
            "stateMutability": "view",
            "type": "function"
        },
        {
            "inputs": [],
            "name": "getGeneralCounsel",
            "outputs": [
                {
                    "internalType": "uint40",
                    "name": "",
                    "type": "uint40"
                }
            ],
            "stateMutability": "view",
            "type": "function"
        },
        {
            "inputs": [],
            "name": "getOwner",
            "outputs": [
                {
                    "internalType": "uint40",
                    "name": "",
                    "type": "uint40"
                }
            ],
            "stateMutability": "view",
            "type": "function"
        },
        {
            "inputs": [
                {
                    "internalType": "bytes32",
                    "name": "role",
                    "type": "bytes32"
                },
                {
                    "internalType": "uint256",
                    "name": "acct",
                    "type": "uint256"
                }
            ],
            "name": "grantRole",
            "outputs": [],
            "stateMutability": "nonpayable",
            "type": "function"
        },
        {
            "inputs": [
                {
                    "internalType": "bytes32",
                    "name": "role",
                    "type": "bytes32"
                },
                {
                    "internalType": "uint256",
                    "name": "acct",
                    "type": "uint256"
                }
            ],
            "name": "hasRole",
            "outputs": [
                {
                    "internalType": "bool",
                    "name": "",
                    "type": "bool"
                }
            ],
            "stateMutability": "view",
            "type": "function"
        },
        {
            "inputs": [
                {
                    "internalType": "uint256",
                    "name": "owner",
                    "type": "uint256"
                },
                {
                    "internalType": "address",
                    "name": "directKeeper",
                    "type": "address"
                },
                {
                    "internalType": "address",
                    "name": "regCenter",
                    "type": "address"
                },
                {
                    "internalType": "address",
                    "name": "generalKeeper",
                    "type": "address"
                }
            ],
            "name": "init",
            "outputs": [],
            "stateMutability": "nonpayable",
            "type": "function"
        },
        {
            "inputs": [
                {
                    "internalType": "uint256",
                    "name": "drager",
                    "type": "uint256"
                }
            ],
            "name": "isDrager",
            "outputs": [
                {
                    "internalType": "bool",
                    "name": "",
                    "type": "bool"
                }
            ],
            "stateMutability": "view",
            "type": "function"
        },
        {
            "inputs": [
                {
                    "internalType": "uint256",
                    "name": "drager",
                    "type": "uint256"
                },
                {
                    "internalType": "uint256",
                    "name": "follower",
                    "type": "uint256"
                }
            ],
            "name": "isLinked",
            "outputs": [
                {
                    "internalType": "bool",
                    "name": "",
                    "type": "bool"
                }
            ],
            "stateMutability": "view",
            "type": "function"
        },
        {
            "inputs": [
                {
                    "internalType": "address",
                    "name": "ia",
                    "type": "address"
                },
                {
                    "components": [
                        {
                            "components": [
                                {
                                    "internalType": "uint8",
                                    "name": "typeOfDeal",
                                    "type": "uint8"
                                },
                                {
                                    "internalType": "uint16",
                                    "name": "classOfShare",
                                    "type": "uint16"
                                },
                                {
                                    "internalType": "uint32",
                                    "name": "seqOfShare",
                                    "type": "uint32"
                                },
                                {
                                    "internalType": "uint40",
                                    "name": "seller",
                                    "type": "uint40"
                                },
                                {
                                    "internalType": "uint32",
                                    "name": "price",
                                    "type": "uint32"
                                },
                                {
                                    "internalType": "uint32",
                                    "name": "seq",
                                    "type": "uint32"
                                },
                                {
                                    "internalType": "uint32",
                                    "name": "preSeq",
                                    "type": "uint32"
                                },
                                {
                                    "internalType": "uint48",
                                    "name": "closingDate",
                                    "type": "uint48"
                                },
                                {
                                    "internalType": "uint8",
                                    "name": "state",
                                    "type": "uint8"
                                }
                            ],
                            "internalType": "struct IInvestmentAgreement.Head",
                            "name": "head",
                            "type": "tuple"
                        },
                        {
                            "components": [
                                {
                                    "internalType": "uint40",
                                    "name": "buyer",
                                    "type": "uint40"
                                },
                                {
                                    "internalType": "uint40",
                                    "name": "groupOfBuyer",
                                    "type": "uint40"
                                },
                                {
                                    "internalType": "uint64",
                                    "name": "paid",
                                    "type": "uint64"
                                },
                                {
                                    "internalType": "uint64",
                                    "name": "par",
                                    "type": "uint64"
                                }
                            ],
                            "internalType": "struct IInvestmentAgreement.Body",
                            "name": "body",
                            "type": "tuple"
                        },
                        {
                            "internalType": "bytes32",
                            "name": "hashLock",
                            "type": "bytes32"
                        }
                    ],
                    "internalType": "struct IInvestmentAgreement.Deal",
                    "name": "deal",
                    "type": "tuple"
                }
            ],
            "name": "isTriggered",
            "outputs": [
                {
                    "internalType": "bool",
                    "name": "",
                    "type": "bool"
                }
            ],
            "stateMutability": "view",
            "type": "function"
        },
        {
            "inputs": [
                {
                    "internalType": "uint256",
                    "name": "drager",
                    "type": "uint256"
                }
            ],
            "name": "linkRule",
            "outputs": [
                {
                    "components": [
                        {
                            "internalType": "uint16",
                            "name": "seq",
                            "type": "uint16"
                        },
                        {
                            "internalType": "uint8",
                            "name": "qtyOfSubRule",
                            "type": "uint8"
                        },
                        {
                            "internalType": "uint8",
                            "name": "seqOfSubRule",
                            "type": "uint8"
                        },
                        {
                            "internalType": "uint40",
                            "name": "drager",
                            "type": "uint40"
                        },
                        {
                            "internalType": "uint40",
                            "name": "dragerGroup",
                            "type": "uint40"
                        },
                        {
                            "internalType": "uint8",
                            "name": "triggerType",
                            "type": "uint8"
                        },
                        {
                            "internalType": "uint16",
                            "name": "shareRatioThreshold",
                            "type": "uint16"
                        },
                        {
                            "internalType": "bool",
                            "name": "proRata",
                            "type": "bool"
                        },
                        {
                            "internalType": "uint32",
                            "name": "unitPrice",
                            "type": "uint32"
                        },
                        {
                            "internalType": "uint32",
                            "name": "roe",
                            "type": "uint32"
                        }
                    ],
                    "internalType": "struct RulesParser.LinkRule",
                    "name": "",
                    "type": "tuple"
                }
            ],
            "stateMutability": "view",
            "type": "function"
        },
        {
            "inputs": [],
            "name": "lockContents",
            "outputs": [],
            "stateMutability": "nonpayable",
            "type": "function"
        },
        {
            "inputs": [
                {
                    "internalType": "address",
                    "name": "ia",
                    "type": "address"
                },
                {
                    "components": [
                        {
                            "components": [
                                {
                                    "internalType": "uint8",
                                    "name": "typeOfDeal",
                                    "type": "uint8"
                                },
                                {
                                    "internalType": "uint16",
                                    "name": "classOfShare",
                                    "type": "uint16"
                                },
                                {
                                    "internalType": "uint32",
                                    "name": "seqOfShare",
                                    "type": "uint32"
                                },
                                {
                                    "internalType": "uint40",
                                    "name": "seller",
                                    "type": "uint40"
                                },
                                {
                                    "internalType": "uint32",
                                    "name": "price",
                                    "type": "uint32"
                                },
                                {
                                    "internalType": "uint32",
                                    "name": "seq",
                                    "type": "uint32"
                                },
                                {
                                    "internalType": "uint32",
                                    "name": "preSeq",
                                    "type": "uint32"
                                },
                                {
                                    "internalType": "uint48",
                                    "name": "closingDate",
                                    "type": "uint48"
                                },
                                {
                                    "internalType": "uint8",
                                    "name": "state",
                                    "type": "uint8"
                                }
                            ],
                            "internalType": "struct IInvestmentAgreement.Head",
                            "name": "head",
                            "type": "tuple"
                        },
                        {
                            "components": [
                                {
                                    "internalType": "uint40",
                                    "name": "buyer",
                                    "type": "uint40"
                                },
                                {
                                    "internalType": "uint40",
                                    "name": "groupOfBuyer",
                                    "type": "uint40"
                                },
                                {
                                    "internalType": "uint64",
                                    "name": "paid",
                                    "type": "uint64"
                                },
                                {
                                    "internalType": "uint64",
                                    "name": "par",
                                    "type": "uint64"
                                }
                            ],
                            "internalType": "struct IInvestmentAgreement.Body",
                            "name": "body",
                            "type": "tuple"
                        },
                        {
                            "internalType": "bytes32",
                            "name": "hashLock",
                            "type": "bytes32"
                        }
                    ],
                    "internalType": "struct IInvestmentAgreement.Deal",
                    "name": "deal",
                    "type": "tuple"
                },
                {
                    "components": [
                        {
                            "components": [
                                {
                                    "internalType": "uint16",
                                    "name": "class",
                                    "type": "uint16"
                                },
                                {
                                    "internalType": "uint32",
                                    "name": "seq",
                                    "type": "uint32"
                                },
                                {
                                    "internalType": "uint48",
                                    "name": "issueDate",
                                    "type": "uint48"
                                },
                                {
                                    "internalType": "uint40",
                                    "name": "shareholder",
                                    "type": "uint40"
                                },
                                {
                                    "internalType": "uint32",
                                    "name": "price",
                                    "type": "uint32"
                                },
                                {
                                    "internalType": "uint32",
                                    "name": "preSeq",
                                    "type": "uint32"
                                }
                            ],
                            "internalType": "struct IBookOfShares.Head",
                            "name": "head",
                            "type": "tuple"
                        },
                        {
                            "components": [
                                {
                                    "internalType": "uint64",
                                    "name": "paid",
                                    "type": "uint64"
                                },
                                {
                                    "internalType": "uint64",
                                    "name": "par",
                                    "type": "uint64"
                                },
                                {
                                    "internalType": "uint64",
                                    "name": "cleanPar",
                                    "type": "uint64"
                                },
                                {
                                    "internalType": "uint48",
                                    "name": "paidInDeadline",
                                    "type": "uint48"
                                },
                                {
                                    "internalType": "uint8",
                                    "name": "state",
                                    "type": "uint8"
                                }
                            ],
                            "internalType": "struct IBookOfShares.Body",
                            "name": "body",
                            "type": "tuple"
                        }
                    ],
                    "internalType": "struct IBookOfShares.Share",
                    "name": "share",
                    "type": "tuple"
                },
                {
                    "internalType": "uint256",
                    "name": "caller",
                    "type": "uint256"
                }
            ],
            "name": "priceCheck",
            "outputs": [
                {
                    "internalType": "bool",
                    "name": "",
                    "type": "bool"
                }
            ],
            "stateMutability": "view",
            "type": "function"
        },
        {
            "inputs": [
                {
                    "internalType": "uint256",
                    "name": "drager",
                    "type": "uint256"
                }
            ],
            "name": "removeDrager",
            "outputs": [],
            "stateMutability": "nonpayable",
            "type": "function"
        },
        {
            "inputs": [
                {
                    "internalType": "uint256",
                    "name": "drager",
                    "type": "uint256"
                },
                {
                    "internalType": "uint256",
                    "name": "follower",
                    "type": "uint256"
                }
            ],
            "name": "removeFollower",
            "outputs": [],
            "stateMutability": "nonpayable",
            "type": "function"
        },
        {
            "inputs": [
                {
                    "internalType": "bytes32",
                    "name": "role",
                    "type": "bytes32"
                }
            ],
            "name": "renounceRole",
            "outputs": [],
            "stateMutability": "nonpayable",
            "type": "function"
        },
        {
            "inputs": [
                {
                    "internalType": "bytes32",
                    "name": "role",
                    "type": "bytes32"
                },
                {
                    "internalType": "uint256",
                    "name": "acct",
                    "type": "uint256"
                }
            ],
            "name": "revokeRole",
            "outputs": [],
            "stateMutability": "nonpayable",
            "type": "function"
        },
        {
            "inputs": [
                {
                    "internalType": "address",
                    "name": "keeper",
                    "type": "address"
                }
            ],
            "name": "setDirectKeeper",
            "outputs": [],
            "stateMutability": "nonpayable",
            "type": "function"
        },
        {
            "inputs": [
                {
                    "internalType": "uint256",
                    "name": "acct",
                    "type": "uint256"
                }
            ],
            "name": "setGeneralCounsel",
            "outputs": [],
            "stateMutability": "nonpayable",
            "type": "function"
        },
        {
            "inputs": [
                {
                    "internalType": "uint256",
                    "name": "acct",
                    "type": "uint256"
                }
            ],
            "name": "setOwner",
            "outputs": [],
            "stateMutability": "nonpayable",
            "type": "function"
        },
        {
            "inputs": [
                {
                    "internalType": "bytes32",
                    "name": "role",
                    "type": "bytes32"
                },
                {
                    "internalType": "uint256",
                    "name": "acct",
                    "type": "uint256"
                }
            ],
            "name": "setRoleAdmin",
            "outputs": [],
            "stateMutability": "nonpayable",
            "type": "function"
        }
    ],
    "bytecode": "608060405234801561001057600080fd5b50612f6c806100206000396000f3fe608060405234801561001057600080fd5b506004361061018e5760003560e01c8063893d20e8116100de578063c68f51f811610097578063d249176e11610071578063d249176e1461046b578063dc890da91461047e578063ed21102314610491578063f045a769146104b157600080fd5b8063c68f51f814610432578063ca93c8fc14610445578063cb3ec2601461045857600080fd5b8063893d20e8146103d557806389c29dbb146103dd5780638bb9c5bf146103f0578063b097b85714610403578063b3f05b9714610416578063b4a952b31461042a57600080fd5b80634a14beb11161014b578063560328de11610125578063560328de146103795780636be8496f1461039c5780637e063c5a146103af5780638041494e146103c257600080fd5b80634a14beb1146103405780635171ebd41461035357806352fae48a1461036657600080fd5b8063103f6edd1461019357806319d61ad9146101b65780631abc901f146101cb5780631b6ea9f9146101eb5780631ce69d39146101fe5780633da9a6001461032d575b600080fd5b61019b6104b9565b60405164ffffffffff90911681526020015b60405180910390f35b6101c96101c43660046123f1565b610545565b005b6101de6101d9366004612413565b6105d9565b6040516101ad919061242c565b6101c96101f93660046123f1565b61067f565b61032061020c366004612413565b6040805161014081018252600080825260208201819052918101829052606081018290526080810182905260a0810182905260c0810182905260e0810182905261010081018290526101208101919091525060009081526004602090815260409182902082516101408101845260029091015461ffff808216835260ff6201000083048116948401949094526301000000820484169483019490945264ffffffffff640100000000820481166060840152600160481b8204166080830152600160701b8104831660a0830152600160781b810490931660c0820152600160881b8304909116151560e082015263ffffffff600160901b83048116610100830152600160b01b90920490911661012082015290565b6040516101ad9190612470565b6101c961033b366004612413565b6106a4565b6101c961034e366004612413565b6107bf565b6101c96103613660046123f1565b6109af565b6101c9610374366004612413565b6109d4565b61038c610387366004612877565b610b6d565b60405190151581526020016101ad565b6101c96103aa3660046128ae565b610fa9565b61038c6103bd3660046123f1565b61105b565b6101c96103d0366004612413565b6110f7565b61019b6112dc565b6101c96103eb3660046123f1565b611317565b6101c96103fe366004612413565b61148b565b61038c6104113660046123f1565b6114e4565b60028054600160f01b900460ff161461038c565b6101de611530565b6101c96104403660046123f1565b6115ba565b6101c96104533660046123f1565b6118e4565b61038c610466366004612961565b611a03565b61038c610479366004612413565b611c61565b6101c961048c366004612a66565b611cee565b610499611dd1565b6040516001600160a01b0390911681526020016101ad565b6101c9611e57565b60405163e8c0cc1d60e01b81526002600482015260009073__$364aad554dc80380f414546becdd2c1584$__9063e8c0cc1d906024015b60206040518083038186803b15801561050857600080fd5b505af415801561051c573d6000803e3d6000fd5b505050506040513d601f19601f820116820180604052508101906105409190612ac4565b905090565b73__$364aad554dc80380f414546becdd2c1584$__6382daafaa60028461056a612075565b6040516001600160e01b031960e086901b1681526004810193909352602483019190915264ffffffffff166044820152606481018490526084015b60006040518083038186803b1580156105bd57600080fd5b505af41580156105d1573d6000803e3d6000fd5b505050505050565b600081815260046020819052604091829020915163034306e160e21b815260609273__$8c1a4844a0a0988ea2454cf87145a95df1$__92630d0c1b849261062592910190815260200190565b60006040518083038186803b15801561063d57600080fd5b505af4158015610651573d6000803e3d6000fd5b505050506040513d6000823e601f3d908101601f191682016040526106799190810190612ae1565b92915050565b73__$364aad554dc80380f414546becdd2c1584$__636320d75e60028461056a612075565b604051633b11adbf60e21b81526002600482015233602482015273__$364aad554dc80380f414546becdd2c1584$__9063ec46b6fc9060440160206040518083038186803b1580156106f557600080fd5b505af4158015610709573d6000803e3d6000fd5b505050506040513d601f19601f8201168201806040525081019061072d9190612b97565b6107525760405162461bcd60e51b815260040161074990612bb2565b60405180910390fd5b60405163cc99e11b60e01b8152600260048201526024810182905273__$364aad554dc80380f414546becdd2c1584$__9063cc99e11b9060440160006040518083038186803b1580156107a457600080fd5b505af41580156107b8573d6000803e3d6000fd5b5050505050565b604051633b11adbf60e21b81526002600482015233602482015273__$364aad554dc80380f414546becdd2c1584$__9063ec46b6fc9060440160206040518083038186803b15801561081057600080fd5b505af4158015610824573d6000803e3d6000fd5b505050506040513d601f19601f820116820180604052508101906108489190612b97565b806108ed575073__$364aad554dc80380f414546becdd2c1584$__63fe2710866002610872612075565b6040516001600160e01b031960e085901b168152600481019290925264ffffffffff16602482015260440160206040518083038186803b1580156108b557600080fd5b505af41580156108c9573d6000803e3d6000fd5b505050506040513d601f19601f820116820180604052508101906108ed9190612b97565b6109095760405162461bcd60e51b815260040161074990612bf8565b604051632725ebef60e21b8152600260048201526024810182905273__$364aad554dc80380f414546becdd2c1584$__90639c97afbc9060440160006040518083038186803b15801561095b57600080fd5b505af415801561096f573d6000803e3d6000fd5b505050507ff2735f34b69be1e6342dea95f9162f84d0db925fab655ca9f1f312ac8cbfc99d816040516109a491815260200190565b60405180910390a150565b73__$364aad554dc80380f414546becdd2c1584$__63ee98b31360028461056a612075565b73__$364aad554dc80380f414546becdd2c1584$__63a8ef95ac6002684174746f726e65797360b81b610a05612075565b6040516001600160e01b031960e086901b1681526004810193909352602483019190915264ffffffffff16604482015260640160206040518083038186803b158015610a5057600080fd5b505af4158015610a64573d6000803e3d6000fd5b505050506040513d601f19601f82011682018060405250810190610a889190612b97565b610aa45760405162461bcd60e51b815260040161074990612c4e565b6040516392fd02df60e01b8152600560048201526024810182905273__$8c1a4844a0a0988ea2454cf87145a95df1$__906392fd02df9060440160206040518083038186803b158015610af657600080fd5b505af4158015610b0a573d6000803e3d6000fd5b505050506040513d601f19601f82011682018060405250810190610b2e9190612b97565b15610b6a5760008181526004602052604081209081818181610b5082826123bf565b5050505060029190910180546001600160d01b0319169055505b50565b60006002610b796120cf565b60405163de154c2760e01b81526001600160a01b038681166004830152919091169063de154c279060240160c06040518083038186803b158015610bbc57600080fd5b505afa158015610bd0573d6000803e3d6000fd5b505050506040513d601f19601f82011682018060405250810190610bf49190612c86565b60a0015160ff1614610c0857506000610679565b81515160ff1660011480610c21575081515160ff166008145b15610c2e57506000610679565b815160600151604051633f5f77cd60e01b81526005600482015264ffffffffff909116602482015273__$8c1a4844a0a0988ea2454cf87145a95df1$__90633f5f77cd9060440160206040518083038186803b158015610c8d57600080fd5b505af4158015610ca1573d6000803e3d6000fd5b505050506040513d601f19601f82011682018060405250810190610cc59190612b97565b610cd157506000610679565b815160609081015164ffffffffff90811660009081526004602090815260409182902082516101408101845260029091015461ffff808216835260ff620100008304811694840194909452630100000082048416948301949094526401000000008104851695820195909552600160481b85049093166080840152600160701b8404811660a08401819052600160781b850490921660c0840152600160881b840416151560e083015263ffffffff600160901b84048116610100840152600160b01b90930490921661012082015290610dae576001915050610679565b6000610db8612132565b6001600160a01b031663984199286040518163ffffffff1660e01b815260040160206040518083038186803b158015610df057600080fd5b505afa158015610e04573d6000803e3d6000fd5b505050506040513d601f19601f82011682018060405250810190610e289190612ac4565b9050610e32612132565b84516060015160405163302e2f6360e11b815264ffffffffff90911660048201526001600160a01b03919091169063605c5ec69060240160206040518083038186803b158015610e8157600080fd5b505afa158015610e95573d6000803e3d6000fd5b505050506040513d601f19601f82011682018060405250810190610eb99190612d31565b8164ffffffffff1614610ed157600092505050610679565b600080610edc6120cf565b60405163deb5717560e01b81526001600160a01b038981166004830152919091169063deb5717590602401604080518083038186803b158015610f1e57600080fd5b505afa158015610f32573d6000803e3d6000fd5b505050506040513d601f19601f82011682018060405250810190610f569190612d55565b915091508164ffffffffff168364ffffffffff1614610f7c576001945050505050610679565b8360c0015161ffff168161ffff1611610f9c576001945050505050610679565b5060009695505050505050565b604051630f07232560e01b8152600260048201523360248201526001600160a01b038216604482015273__$364aad554dc80380f414546becdd2c1584$__90630f0723259060640160006040518083038186803b15801561100957600080fd5b505af415801561101d573d6000803e3d6000fd5b50506040516001600160a01b03841681527fe435cbeab64e4eae6497b9d8289704bd709d624a80704ef3ca9af777534bc6ec925060200190506109a4565b604051632a3be56b60e21b815260026004820152602481018390526044810182905260009073__$364aad554dc80380f414546becdd2c1584$__9063a8ef95ac906064015b60206040518083038186803b1580156110b857600080fd5b505af41580156110cc573d6000803e3d6000fd5b505050506040513d601f19601f820116820180604052508101906110f09190612b97565b9392505050565b604051633b11adbf60e21b81526002600482015233602482015273__$364aad554dc80380f414546becdd2c1584$__9063ec46b6fc9060440160206040518083038186803b15801561114857600080fd5b505af415801561115c573d6000803e3d6000fd5b505050506040513d601f19601f820116820180604052508101906111809190612b97565b80611225575073__$364aad554dc80380f414546becdd2c1584$__63fe27108660026111aa612075565b6040516001600160e01b031960e085901b168152600481019290925264ffffffffff16602482015260440160206040518083038186803b1580156111ed57600080fd5b505af4158015611201573d6000803e3d6000fd5b505050506040513d601f19601f820116820180604052508101906112259190612b97565b6112415760405162461bcd60e51b815260040161074990612bf8565b60405163b6e38a2960e01b8152600260048201526024810182905273__$364aad554dc80380f414546becdd2c1584$__9063b6e38a299060440160006040518083038186803b15801561129357600080fd5b505af41580156112a7573d6000803e3d6000fd5b505050507f8b6f40f36b4ae8cc5f55e895036457c43da4ab1f80f58c46f5ff0d72a650033b816040516109a491815260200190565b60405163987ad15360e01b81526002600482015260009073__$364aad554dc80380f414546becdd2c1584$__9063987ad153906024016104f0565b73__$364aad554dc80380f414546becdd2c1584$__63a8ef95ac6002684174746f726e65797360b81b611348612075565b6040516001600160e01b031960e086901b1681526004810193909352602483019190915264ffffffffff16604482015260640160206040518083038186803b15801561139357600080fd5b505af41580156113a7573d6000803e3d6000fd5b505050506040513d601f19601f820116820180604052508101906113cb9190612b97565b6113e75760405162461bcd60e51b815260040161074990612c4e565b60008281526004602081905260409182902091516392f13c3f60e01b815273__$8c1a4844a0a0988ea2454cf87145a95df1$__926392f13c3f9261143692869101918252602082015260400190565b60206040518083038186803b15801561144e57600080fd5b505af4158015611462573d6000803e3d6000fd5b505050506040513d601f19601f820116820180604052508101906114869190612b97565b505050565b6000611495612075565b60405163cc0d511b60e01b8152600260048201526024810184905264ffffffffff8216604482015290915073__$364aad554dc80380f414546becdd2c1584$__9063cc0d511b906064016105a5565b60008281526004602081905260408083209051633f5f77cd60e01b8152918201526024810183905273__$8c1a4844a0a0988ea2454cf87145a95df1$__90633f5f77cd906044016110a0565b60405163034306e160e21b81526005600482015260609073__$8c1a4844a0a0988ea2454cf87145a95df1$__90630d0c1b849060240160006040518083038186803b15801561157e57600080fd5b505af4158015611592573d6000803e3d6000fd5b505050506040513d6000823e601f3d908101601f191682016040526105409190810190612ae1565b73__$364aad554dc80380f414546becdd2c1584$__63a8ef95ac6002684174746f726e65797360b81b6115eb612075565b6040516001600160e01b031960e086901b1681526004810193909352602483019190915264ffffffffff16604482015260640160206040518083038186803b15801561163657600080fd5b505af415801561164a573d6000803e3d6000fd5b505050506040513d601f19601f8201168201806040525081019061166e9190612b97565b61168a5760405162461bcd60e51b815260040161074990612c4e565b6040516392f13c3f60e01b8152600560048201526024810182905273__$8c1a4844a0a0988ea2454cf87145a95df1$__906392f13c3f9060440160206040518083038186803b1580156116dc57600080fd5b505af41580156116f0573d6000803e3d6000fd5b505050506040513d601f19601f820116820180604052508101906117149190612b97565b156118e057604051634666ce3160e11b81526004810183905273__$9d2c69e94fee47b9774dc8db4aa5c0bbec$__90638ccd9c62906024016101406040518083038186803b15801561176557600080fd5b505af4158015611779573d6000803e3d6000fd5b505050506040513d601f19601f8201168201806040525081019061179d9190612d9a565b60008281526004602090815260409182902083516002909101805492850151938501516060860151608087015160a088015160c089015160e08a01516101008b0151610120909b015161ffff98891662ffffff19909a16999099176201000060ff9b8c16021768ffffffffffff00000019166301000000968b169690960268ffffffffff0000000019169590951764010000000064ffffffffff95861602176effffffffffff0000000000000000001916600160481b949093169390930260ff60701b191691909117600160701b97909116969096029590951762ffffff60781b1916600160781b939095169290920260ff60881b191693909317600160881b911515919091021767ffffffffffffffff60901b1916600160901b63ffffffff9485160263ffffffff60b01b191617600160b01b93909116929092029190911790555b5050565b73__$364aad554dc80380f414546becdd2c1584$__63a8ef95ac6002684174746f726e65797360b81b611915612075565b6040516001600160e01b031960e086901b1681526004810193909352602483019190915264ffffffffff16604482015260640160206040518083038186803b15801561196057600080fd5b505af4158015611974573d6000803e3d6000fd5b505050506040513d601f19601f820116820180604052508101906119989190612b97565b6119b45760405162461bcd60e51b815260040161074990612c4e565b60008281526004602081905260409182902091516392fd02df60e01b815273__$8c1a4844a0a0988ea2454cf87145a95df1$__926392fd02df9261143692869101918252602082015260400190565b6000611a0f8585610b6d565b611a1b57506000611c59565b83516060015164ffffffffff168214611a765760405162461bcd60e51b815260206004820152601b60248201527f44412e50433a2063616c6c6572206973206e6f742064726167657200000000006044820152606401610749565b611a8f8284600001516060015164ffffffffff166114e4565b611aef5760405162461bcd60e51b815260206004820152602b60248201527f44412e50433a2063616c6c6572206e6f74206c696e6b6564207461726765742060448201526a39b430b932b437b63232b960a91b6064820152608401610749565b60008281526004602090815260409182902082516101408101845260029182015461ffff808216835260ff6201000083048116958401959095526301000000820485169583019590955264ffffffffff640100000000820481166060840152600160481b8204166080830152600160701b8104841660a08301819052600160781b820490951660c0830152600160881b8104909316151560e082015263ffffffff600160901b84048116610100830152600160b01b90930490921661012083015290911015611bc2576001915050611c59565b60a081015160ff1660021415611c065780610100015163ffffffff1685600001516080015163ffffffff1610611bfc576001915050611c59565b6000915050611c59565b80610120015163ffffffff16611c3e866000015160800151866000015160800151886000015160e0015188600001516040015161214d565b63ffffffff1610611c53576001915050611c59565b60009150505b949350505050565b604051633f5f77cd60e01b8152600560048201526024810182905260009073__$8c1a4844a0a0988ea2454cf87145a95df1$__90633f5f77cd9060440160206040518083038186803b158015611cb657600080fd5b505af4158015611cca573d6000803e3d6000fd5b505050506040513d601f19601f820116820180604052508101906106799190612b97565b611cf782612259565b611d0081612308565b604051636cdd0edf60e11b815260026004820152602481018590526001600160a01b038416604482015273__$364aad554dc80380f414546becdd2c1584$__9063d9ba1dbe9060640160006040518083038186803b158015611d6157600080fd5b505af4158015611d75573d6000803e3d6000fd5b5050604080518781526001600160a01b038781166020830152868116828401528516606082015290517f3abb2418c66fe32ba9c883030a75ce583971d9af9192b9b74e44e67c5e6c8c1f9350908190036080019150a150505050565b604051633c3e56c160e11b81526002600482015260009073__$364aad554dc80380f414546becdd2c1584$__9063787cad829060240160206040518083038186803b158015611e1f57600080fd5b505af4158015611e33573d6000803e3d6000fd5b505050506040513d601f19601f820116820180604052508101906105409190612e62565b604051633b11adbf60e21b81526002600482015233602482015273__$364aad554dc80380f414546becdd2c1584$__9063ec46b6fc9060440160206040518083038186803b158015611ea857600080fd5b505af4158015611ebc573d6000803e3d6000fd5b505050506040513d601f19601f82011682018060405250810190611ee09190612b97565b611efc5760405162461bcd60e51b815260040161074990612bb2565b600254600160f01b900460ff16600114611f585760405162461bcd60e51b815260206004820181905260248201527f41432e6f6e6c7950656e64696e673a20446f632069732066696e616c697a65646044820152606401610749565b60405163cc99e11b60e01b815260026004820152684174746f726e65797360b81b602482015273__$364aad554dc80380f414546becdd2c1584$__9063cc99e11b9060440160006040518083038186803b158015611fb557600080fd5b505af4158015611fc9573d6000803e3d6000fd5b5050604051632725ebef60e21b8152600260048201526000602482015273__$364aad554dc80380f414546becdd2c1584$__9250639c97afbc915060440160006040518083038186803b15801561201f57600080fd5b505af4158015612033573d6000803e3d6000fd5b50506002805460ff60f01b1916600160f11b17905550506040517f35012b512309c322acf68632cd6cb702ff0e1d776fbe9394e38ffc13b434fe7590600090a1565b60008054604051634de835e760e11b81523360048201526001600160a01b0390911690639bd06bce90602401602060405180830381600087803b1580156120bb57600080fd5b505af115801561051c573d6000803e3d6000fd5b6001546000906001600160a01b031663e0ff5b8b825b6040516001600160e01b031960e084901b16815260ff909116600482015260240160206040518083038186803b15801561211e57600080fd5b505afa158015611e33573d6000803e3d6000fd5b6001546000906001600160a01b031663e0ff5b8b60076120e5565b60008363ffffffff168563ffffffff16116121a35760405162461bcd60e51b81526020600482015260166024820152754e454741544956452073656c6c696e6720707269636560501b6044820152606401610749565b8165ffffffffffff168365ffffffffffff16116122025760405162461bcd60e51b815260206004820152601760248201527f4e4547415449564520686f6c64696e6720706572696f640000000000000000006044820152606401610749565b600061220e8587612e95565b9050600061221c8486612eba565b9050808661222c84612710612ed9565b6122369190612f05565b612244906301e13380612ed9565b61224e9190612f05565b979650505050505050565b6000546001600160a01b0316156122aa5760405162461bcd60e51b815260206004820152601560248201527430b63932b0b23c9039b2ba103932b3a1b2b73a32b960591b6044820152606401610749565b6040516001600160a01b03821681527f318da6c7624c71cbc0afe346c9d8827f119d0ecefb241a7b0c87217a076a8e029060200160405180910390a1600080546001600160a01b0319166001600160a01b0392909216919091179055565b6001546001600160a01b0316156123615760405162461bcd60e51b815260206004820152601960248201527f616c7265616479207365742067656e6572616c4b6565706572000000000000006044820152606401610749565b6040516001600160a01b03821681527fe513d3e0f0d0a3877029dcc588748679a7a3450ec1ec7ed56d96bd012c3e61aa9060200160405180910390a1600180546001600160a01b0319166001600160a01b0392909216919091179055565b5080546000825590600052602060002090810190610b6a91905b808211156123ed57600081556001016123d9565b5090565b6000806040838503121561240457600080fd5b50508035926020909101359150565b60006020828403121561242557600080fd5b5035919050565b6020808252825182820181905260009190848201906040850190845b8181101561246457835183529284019291840191600101612448565b50909695505050505050565b815161ffff16815261014081016020830151612491602084018260ff169052565b5060408301516124a6604084018260ff169052565b5060608301516124bf606084018264ffffffffff169052565b5060808301516124d8608084018264ffffffffff169052565b5060a08301516124ed60a084018260ff169052565b5060c083015161250360c084018261ffff169052565b5060e083015161251760e084018215159052565b506101008381015163ffffffff908116918401919091526101209384015116929091019190915290565b6001600160a01b0381168114610b6a57600080fd5b634e487b7160e01b600052604160045260246000fd5b6040516060810167ffffffffffffffff8111828210171561258f5761258f612556565b60405290565b604051610120810167ffffffffffffffff8111828210171561258f5761258f612556565b6040805190810167ffffffffffffffff8111828210171561258f5761258f612556565b60405160c0810167ffffffffffffffff8111828210171561258f5761258f612556565b604051610140810167ffffffffffffffff8111828210171561258f5761258f612556565b604051601f8201601f1916810167ffffffffffffffff8111828210171561264c5761264c612556565b604052919050565b60ff81168114610b6a57600080fd5b803561266e81612654565b919050565b61ffff81168114610b6a57600080fd5b803561266e81612673565b63ffffffff81168114610b6a57600080fd5b803561266e8161268e565b64ffffffffff81168114610b6a57600080fd5b803561266e816126ab565b65ffffffffffff81168114610b6a57600080fd5b803561266e816126c9565b803567ffffffffffffffff8116811461266e57600080fd5b60006080828403121561271257600080fd5b6040516080810181811067ffffffffffffffff8211171561273557612735612556565b6040529050808235612746816126ab565b81526020830135612756816126ab565b6020820152612767604084016126e8565b6040820152612778606084016126e8565b60608201525092915050565b60008183036101c081121561279857600080fd5b6127a061256c565b9150610120808212156127b257600080fd5b6127ba612595565b91506127c584612663565b82526127d360208501612683565b60208301526127e4604085016126a0565b60408301526127f5606085016126be565b6060830152612806608085016126a0565b608083015261281760a085016126a0565b60a083015261282860c085016126a0565b60c083015261283960e085016126dd565b60e083015261010061284c818601612663565b9083015281835261285f85858301612700565b602084015250506101a0820135604082015292915050565b6000806101e0838503121561288b57600080fd5b823561289681612541565b91506128a58460208501612784565b90509250929050565b6000602082840312156128c057600080fd5b81356110f081612541565b600060a082840312156128dd57600080fd5b60405160a0810181811067ffffffffffffffff8211171561290057612900612556565b60405290508061290f836126e8565b815261291d602084016126e8565b602082015261292e604084016126e8565b60408201526060830135612941816126c9565b6060820152608083013561295481612654565b6080919091015292915050565b60008060008084860361036081121561297957600080fd5b853561298481612541565b94506129938760208801612784565b93506101df19016101608112156129a957600080fd5b6129b16125b9565b60c08212156129bf57600080fd5b6129c76125dc565b91506101e08701356129d881612673565b82526102008701356129e98161268e565b60208301526102208701356129fd816126c9565b6040830152610240870135612a11816126ab565b6060830152610260870135612a258161268e565b6080830152610280870135612a398161268e565b60a0830152818152612a4f886102a089016128cb565b602082015294979396509394610340013593505050565b60008060008060808587031215612a7c57600080fd5b843593506020850135612a8e81612541565b92506040850135612a9e81612541565b91506060850135612aae81612541565b939692955090935050565b805161266e816126ab565b600060208284031215612ad657600080fd5b81516110f0816126ab565b60006020808385031215612af457600080fd5b825167ffffffffffffffff80821115612b0c57600080fd5b818501915085601f830112612b2057600080fd5b815181811115612b3257612b32612556565b8060051b9150612b43848301612623565b8181529183018401918481019088841115612b5d57600080fd5b938501935b83851015612b7b57845182529385019390850190612b62565b98975050505050505050565b8051801515811461266e57600080fd5b600060208284031215612ba957600080fd5b6110f082612b87565b60208082526026908201527f41432e6f6e6c794469726563744b65657065723a206e6f74206469726563742060408201526535b2b2b832b960d11b606082015260800190565b60208082526036908201527f41432e6f776e65724f72446972656374426f6f6b65657065723a206e6569746860408201527532b91037bbb732b9103737b9103137b7b5b2b2b832b960511b606082015260800190565b60208082526013908201527241432e6f743a206e6f74204174746f726e657960681b604082015260600190565b805161266e81612654565b600060c08284031215612c9857600080fd5b60405160c0810181811067ffffffffffffffff82111715612cbb57612cbb612556565b6040528251612cc981612654565b81526020830151612cd9816126ab565b60208201526040830151612cec816126c9565b60408201526060830151612cff816126c9565b60608201526080830151612d12816126c9565b608082015260a0830151612d2581612654565b60a08201529392505050565b600060208284031215612d4357600080fd5b5051919050565b805161266e81612673565b60008060408385031215612d6857600080fd5b8251612d73816126ab565b6020840151909250612d8481612673565b809150509250929050565b805161266e8161268e565b60006101408284031215612dad57600080fd5b612db56125ff565b612dbe83612d4a565b8152612dcc60208401612c7b565b6020820152612ddd60408401612c7b565b6040820152612dee60608401612ab9565b6060820152612dff60808401612ab9565b6080820152612e1060a08401612c7b565b60a0820152612e2160c08401612d4a565b60c0820152612e3260e08401612b87565b60e0820152610100612e45818501612d8f565b90820152610120612e57848201612d8f565b908201529392505050565b600060208284031215612e7457600080fd5b81516110f081612541565b634e487b7160e01b600052601160045260246000fd5b600063ffffffff83811690831681811015612eb257612eb2612e7f565b039392505050565b600065ffffffffffff83811690831681811015612eb257612eb2612e7f565b600063ffffffff80831681851681830481118215151615612efc57612efc612e7f565b02949350505050565b600063ffffffff80841680612f2a57634e487b7160e01b600052601260045260246000fd5b9216919091049291505056fea2646970667358221220edf83a38e4d6743c3f82946e82fdc0e0e1b47c1842a40a42718fad3465b4a79564736f6c63430008080033",
    "sourcePath": "/Users/kaptain/github.com/hardhat/comboox/contracts/books/boh/terms/DragAlong.sol",
    "compiler": {
        "name": "solc",
        "version": "0.8.8+commit.dddeac2f"
    },
    "functionHashes": {
        "abandonRole(bytes32)": "3da9a600",
        "addFollower(uint256,uint256)": "89c29dbb",
        "createLink(bytes32,uint256)": "c68f51f8",
        "dragers()": "b4a952b3",
        "finalized()": "b3f05b97",
        "followers(uint256)": "1abc901f",
        "getBookeeper()": "ed211023",
        "getGeneralCounsel()": "103f6edd",
        "getOwner()": "893d20e8",
        "grantRole(bytes32,uint256)": "1b6ea9f9",
        "hasRole(bytes32,uint256)": "7e063c5a",
        "init(uint256,address,address,address)": "dc890da9",
        "isDrager(uint256)": "d249176e",
        "isLinked(uint256,uint256)": "b097b857",
        "isTriggered(address,((uint8,uint16,uint32,uint40,uint32,uint32,uint32,uint48,uint8),(uint40,uint40,uint64,uint64),bytes32))": "560328de",
        "linkRule(uint256)": "1ce69d39",
        "lockContents()": "f045a769",
        "priceCheck(address,((uint8,uint16,uint32,uint40,uint32,uint32,uint32,uint48,uint8),(uint40,uint40,uint64,uint64),bytes32),((uint16,uint32,uint48,uint40,uint32,uint32),(uint64,uint64,uint64,uint48,uint8)),uint256)": "cb3ec260",
        "removeDrager(uint256)": "52fae48a",
        "removeFollower(uint256,uint256)": "ca93c8fc",
        "renounceRole(bytes32)": "8bb9c5bf",
        "revokeRole(bytes32,uint256)": "19d61ad9",
        "setDirectKeeper(address)": "6be8496f",
        "setGeneralCounsel(uint256)": "4a14beb1",
        "setOwner(uint256)": "8041494e",
        "setRoleAdmin(bytes32,uint256)": "5171ebd4"
    },
    "gasEstimates": {
        "creation": {
            "codeDepositCost": "2428000",
            "executionCost": "2613",
            "totalCost": "2430613"
        },
        "external": {
            "abandonRole(bytes32)": "infinite",
            "addFollower(uint256,uint256)": "infinite",
            "createLink(bytes32,uint256)": "infinite",
            "dragers()": "infinite",
            "finalized()": "2438",
            "followers(uint256)": "infinite",
            "getBookeeper()": "infinite",
            "getGeneralCounsel()": "infinite",
            "getOwner()": "infinite",
            "grantRole(bytes32,uint256)": "infinite",
            "hasRole(bytes32,uint256)": "infinite",
            "init(uint256,address,address,address)": "infinite",
            "isDrager(uint256)": "infinite",
            "isLinked(uint256,uint256)": "infinite",
            "isTriggered(address,((uint8,uint16,uint32,uint40,uint32,uint32,uint32,uint48,uint8),(uint40,uint40,uint64,uint64),bytes32))": "infinite",
            "linkRule(uint256)": "3717",
            "lockContents()": "infinite",
            "priceCheck(address,((uint8,uint16,uint32,uint40,uint32,uint32,uint32,uint48,uint8),(uint40,uint40,uint64,uint64),bytes32),((uint16,uint32,uint48,uint40,uint32,uint32),(uint64,uint64,uint64,uint48,uint8)),uint256)": "infinite",
            "removeDrager(uint256)": "infinite",
            "removeFollower(uint256,uint256)": "infinite",
            "renounceRole(bytes32)": "infinite",
            "revokeRole(bytes32,uint256)": "infinite",
            "setDirectKeeper(address)": "infinite",
            "setGeneralCounsel(uint256)": "infinite",
            "setOwner(uint256)": "infinite",
            "setRoleAdmin(bytes32,uint256)": "infinite"
        },
        "internal": {
            "_roeOfDeal(uint32,uint32,uint48,uint48)": "infinite"
        }
    }
}