{
    "contractName": "DragAlong",
    "abi": [
        {
            "anonymous": false,
            "inputs": [
                {
                    "indexed": false,
                    "internalType": "uint256",
                    "name": "owner",
                    "type": "uint256"
                },
                {
                    "indexed": false,
                    "internalType": "address",
                    "name": "directKeeper",
                    "type": "address"
                },
                {
                    "indexed": false,
                    "internalType": "address",
                    "name": "regCenter",
                    "type": "address"
                },
                {
                    "indexed": false,
                    "internalType": "address",
                    "name": "generalKeeper",
                    "type": "address"
                }
            ],
            "name": "Init",
            "type": "event"
        },
        {
            "anonymous": false,
            "inputs": [],
            "name": "LockContents",
            "type": "event"
        },
        {
            "anonymous": false,
            "inputs": [
                {
                    "indexed": false,
                    "internalType": "address",
                    "name": "keeper",
                    "type": "address"
                }
            ],
            "name": "SetDirectKeeper",
            "type": "event"
        },
        {
            "anonymous": false,
            "inputs": [
                {
                    "indexed": false,
                    "internalType": "uint256",
                    "name": "acct",
                    "type": "uint256"
                }
            ],
            "name": "SetGeneralCounsel",
            "type": "event"
        },
        {
            "anonymous": false,
            "inputs": [
                {
                    "indexed": false,
                    "internalType": "address",
                    "name": "gk",
                    "type": "address"
                }
            ],
            "name": "SetGeneralKeeper",
            "type": "event"
        },
        {
            "anonymous": false,
            "inputs": [
                {
                    "indexed": false,
                    "internalType": "uint256",
                    "name": "acct",
                    "type": "uint256"
                }
            ],
            "name": "SetOwner",
            "type": "event"
        },
        {
            "anonymous": false,
            "inputs": [
                {
                    "indexed": false,
                    "internalType": "address",
                    "name": "rc",
                    "type": "address"
                }
            ],
            "name": "SetRegCenter",
            "type": "event"
        },
        {
            "inputs": [
                {
                    "internalType": "bytes32",
                    "name": "role",
                    "type": "bytes32"
                }
            ],
            "name": "abandonRole",
            "outputs": [],
            "stateMutability": "nonpayable",
            "type": "function"
        },
        {
            "inputs": [
                {
                    "internalType": "uint256",
                    "name": "drager",
                    "type": "uint256"
                },
                {
                    "internalType": "uint256",
                    "name": "follower",
                    "type": "uint256"
                }
            ],
            "name": "addFollower",
            "outputs": [],
            "stateMutability": "nonpayable",
            "type": "function"
        },
        {
            "inputs": [
                {
                    "internalType": "bytes32",
                    "name": "rule",
                    "type": "bytes32"
                },
                {
                    "internalType": "uint256",
                    "name": "drager",
                    "type": "uint256"
                }
            ],
            "name": "createLink",
            "outputs": [],
            "stateMutability": "nonpayable",
            "type": "function"
        },
        {
            "inputs": [],
            "name": "dragers",
            "outputs": [
                {
                    "internalType": "uint256[]",
                    "name": "",
                    "type": "uint256[]"
                }
            ],
            "stateMutability": "view",
            "type": "function"
        },
        {
            "inputs": [],
            "name": "finalized",
            "outputs": [
                {
                    "internalType": "bool",
                    "name": "",
                    "type": "bool"
                }
            ],
            "stateMutability": "view",
            "type": "function"
        },
        {
            "inputs": [
                {
                    "internalType": "uint256",
                    "name": "drager",
                    "type": "uint256"
                }
            ],
            "name": "followers",
            "outputs": [
                {
                    "internalType": "uint256[]",
                    "name": "",
                    "type": "uint256[]"
                }
            ],
            "stateMutability": "view",
            "type": "function"
        },
        {
            "inputs": [],
            "name": "getBookeeper",
            "outputs": [
                {
                    "internalType": "address",
                    "name": "",
                    "type": "address"
                }
            ],
            "stateMutability": "view",
            "type": "function"
        },
        {
            "inputs": [],
            "name": "getGeneralCounsel",
            "outputs": [
                {
                    "internalType": "uint40",
                    "name": "",
                    "type": "uint40"
                }
            ],
            "stateMutability": "view",
            "type": "function"
        },
        {
            "inputs": [],
            "name": "getOwner",
            "outputs": [
                {
                    "internalType": "uint40",
                    "name": "",
                    "type": "uint40"
                }
            ],
            "stateMutability": "view",
            "type": "function"
        },
        {
            "inputs": [
                {
                    "internalType": "bytes32",
                    "name": "role",
                    "type": "bytes32"
                },
                {
                    "internalType": "uint256",
                    "name": "acct",
                    "type": "uint256"
                }
            ],
            "name": "grantRole",
            "outputs": [],
            "stateMutability": "nonpayable",
            "type": "function"
        },
        {
            "inputs": [
                {
                    "internalType": "bytes32",
                    "name": "role",
                    "type": "bytes32"
                },
                {
                    "internalType": "uint256",
                    "name": "acct",
                    "type": "uint256"
                }
            ],
            "name": "hasRole",
            "outputs": [
                {
                    "internalType": "bool",
                    "name": "",
                    "type": "bool"
                }
            ],
            "stateMutability": "view",
            "type": "function"
        },
        {
            "inputs": [
                {
                    "internalType": "uint256",
                    "name": "owner",
                    "type": "uint256"
                },
                {
                    "internalType": "address",
                    "name": "directKeeper",
                    "type": "address"
                },
                {
                    "internalType": "address",
                    "name": "regCenter",
                    "type": "address"
                },
                {
                    "internalType": "address",
                    "name": "generalKeeper",
                    "type": "address"
                }
            ],
            "name": "init",
            "outputs": [],
            "stateMutability": "nonpayable",
            "type": "function"
        },
        {
            "inputs": [
                {
                    "internalType": "uint256",
                    "name": "drager",
                    "type": "uint256"
                }
            ],
            "name": "isDrager",
            "outputs": [
                {
                    "internalType": "bool",
                    "name": "",
                    "type": "bool"
                }
            ],
            "stateMutability": "view",
            "type": "function"
        },
        {
            "inputs": [
                {
                    "internalType": "uint256",
                    "name": "drager",
                    "type": "uint256"
                },
                {
                    "internalType": "uint256",
                    "name": "follower",
                    "type": "uint256"
                }
            ],
            "name": "isLinked",
            "outputs": [
                {
                    "internalType": "bool",
                    "name": "",
                    "type": "bool"
                }
            ],
            "stateMutability": "view",
            "type": "function"
        },
        {
            "inputs": [
                {
                    "internalType": "address",
                    "name": "ia",
                    "type": "address"
                },
                {
                    "components": [
                        {
                            "components": [
                                {
                                    "internalType": "uint8",
                                    "name": "typeOfDeal",
                                    "type": "uint8"
                                },
                                {
                                    "internalType": "uint16",
                                    "name": "seq",
                                    "type": "uint16"
                                },
                                {
                                    "internalType": "uint16",
                                    "name": "preSeq",
                                    "type": "uint16"
                                },
                                {
                                    "internalType": "uint16",
                                    "name": "classOfShare",
                                    "type": "uint16"
                                },
                                {
                                    "internalType": "uint32",
                                    "name": "seqOfShare",
                                    "type": "uint32"
                                },
                                {
                                    "internalType": "uint40",
                                    "name": "seller",
                                    "type": "uint40"
                                },
                                {
                                    "internalType": "uint32",
                                    "name": "priceOfPaid",
                                    "type": "uint32"
                                },
                                {
                                    "internalType": "uint32",
                                    "name": "priceOfPar",
                                    "type": "uint32"
                                },
                                {
                                    "internalType": "uint48",
                                    "name": "closingDate",
                                    "type": "uint48"
                                },
                                {
                                    "internalType": "uint8",
                                    "name": "state",
                                    "type": "uint8"
                                }
                            ],
                            "internalType": "struct DealsRepo.Head",
                            "name": "head",
                            "type": "tuple"
                        },
                        {
                            "components": [
                                {
                                    "internalType": "uint40",
                                    "name": "buyer",
                                    "type": "uint40"
                                },
                                {
                                    "internalType": "uint40",
                                    "name": "groupOfBuyer",
                                    "type": "uint40"
                                },
                                {
                                    "internalType": "uint64",
                                    "name": "paid",
                                    "type": "uint64"
                                },
                                {
                                    "internalType": "uint64",
                                    "name": "par",
                                    "type": "uint64"
                                }
                            ],
                            "internalType": "struct DealsRepo.Body",
                            "name": "body",
                            "type": "tuple"
                        },
                        {
                            "internalType": "bytes32",
                            "name": "hashLock",
                            "type": "bytes32"
                        }
                    ],
                    "internalType": "struct DealsRepo.Deal",
                    "name": "deal",
                    "type": "tuple"
                }
            ],
            "name": "isTriggered",
            "outputs": [
                {
                    "internalType": "bool",
                    "name": "",
                    "type": "bool"
                }
            ],
            "stateMutability": "view",
            "type": "function"
        },
        {
            "inputs": [
                {
                    "internalType": "uint256",
                    "name": "drager",
                    "type": "uint256"
                }
            ],
            "name": "linkRule",
            "outputs": [
                {
                    "components": [
                        {
                            "internalType": "uint16",
                            "name": "seq",
                            "type": "uint16"
                        },
                        {
                            "internalType": "uint8",
                            "name": "qtyOfSubRule",
                            "type": "uint8"
                        },
                        {
                            "internalType": "uint8",
                            "name": "seqOfSubRule",
                            "type": "uint8"
                        },
                        {
                            "internalType": "uint40",
                            "name": "drager",
                            "type": "uint40"
                        },
                        {
                            "internalType": "uint40",
                            "name": "dragerGroup",
                            "type": "uint40"
                        },
                        {
                            "internalType": "uint8",
                            "name": "triggerType",
                            "type": "uint8"
                        },
                        {
                            "internalType": "uint16",
                            "name": "shareRatioThreshold",
                            "type": "uint16"
                        },
                        {
                            "internalType": "bool",
                            "name": "proRata",
                            "type": "bool"
                        },
                        {
                            "internalType": "uint32",
                            "name": "unitPrice",
                            "type": "uint32"
                        },
                        {
                            "internalType": "uint32",
                            "name": "roe",
                            "type": "uint32"
                        }
                    ],
                    "internalType": "struct RulesParser.LinkRule",
                    "name": "",
                    "type": "tuple"
                }
            ],
            "stateMutability": "view",
            "type": "function"
        },
        {
            "inputs": [],
            "name": "lockContents",
            "outputs": [],
            "stateMutability": "nonpayable",
            "type": "function"
        },
        {
            "inputs": [
                {
                    "internalType": "address",
                    "name": "ia",
                    "type": "address"
                },
                {
                    "components": [
                        {
                            "components": [
                                {
                                    "internalType": "uint8",
                                    "name": "typeOfDeal",
                                    "type": "uint8"
                                },
                                {
                                    "internalType": "uint16",
                                    "name": "seq",
                                    "type": "uint16"
                                },
                                {
                                    "internalType": "uint16",
                                    "name": "preSeq",
                                    "type": "uint16"
                                },
                                {
                                    "internalType": "uint16",
                                    "name": "classOfShare",
                                    "type": "uint16"
                                },
                                {
                                    "internalType": "uint32",
                                    "name": "seqOfShare",
                                    "type": "uint32"
                                },
                                {
                                    "internalType": "uint40",
                                    "name": "seller",
                                    "type": "uint40"
                                },
                                {
                                    "internalType": "uint32",
                                    "name": "priceOfPaid",
                                    "type": "uint32"
                                },
                                {
                                    "internalType": "uint32",
                                    "name": "priceOfPar",
                                    "type": "uint32"
                                },
                                {
                                    "internalType": "uint48",
                                    "name": "closingDate",
                                    "type": "uint48"
                                },
                                {
                                    "internalType": "uint8",
                                    "name": "state",
                                    "type": "uint8"
                                }
                            ],
                            "internalType": "struct DealsRepo.Head",
                            "name": "head",
                            "type": "tuple"
                        },
                        {
                            "components": [
                                {
                                    "internalType": "uint40",
                                    "name": "buyer",
                                    "type": "uint40"
                                },
                                {
                                    "internalType": "uint40",
                                    "name": "groupOfBuyer",
                                    "type": "uint40"
                                },
                                {
                                    "internalType": "uint64",
                                    "name": "paid",
                                    "type": "uint64"
                                },
                                {
                                    "internalType": "uint64",
                                    "name": "par",
                                    "type": "uint64"
                                }
                            ],
                            "internalType": "struct DealsRepo.Body",
                            "name": "body",
                            "type": "tuple"
                        },
                        {
                            "internalType": "bytes32",
                            "name": "hashLock",
                            "type": "bytes32"
                        }
                    ],
                    "internalType": "struct DealsRepo.Deal",
                    "name": "deal",
                    "type": "tuple"
                },
                {
                    "components": [
                        {
                            "components": [
                                {
                                    "internalType": "uint32",
                                    "name": "seq",
                                    "type": "uint32"
                                },
                                {
                                    "internalType": "uint32",
                                    "name": "preSeq",
                                    "type": "uint32"
                                },
                                {
                                    "internalType": "uint16",
                                    "name": "class",
                                    "type": "uint16"
                                },
                                {
                                    "internalType": "uint48",
                                    "name": "issueDate",
                                    "type": "uint48"
                                },
                                {
                                    "internalType": "uint48",
                                    "name": "payInDeadline",
                                    "type": "uint48"
                                },
                                {
                                    "internalType": "uint40",
                                    "name": "shareholder",
                                    "type": "uint40"
                                },
                                {
                                    "internalType": "uint32",
                                    "name": "price",
                                    "type": "uint32"
                                },
                                {
                                    "internalType": "uint8",
                                    "name": "state",
                                    "type": "uint8"
                                }
                            ],
                            "internalType": "struct SharesRepo.Head",
                            "name": "head",
                            "type": "tuple"
                        },
                        {
                            "components": [
                                {
                                    "internalType": "uint64",
                                    "name": "paid",
                                    "type": "uint64"
                                },
                                {
                                    "internalType": "uint64",
                                    "name": "par",
                                    "type": "uint64"
                                },
                                {
                                    "internalType": "uint64",
                                    "name": "cleanPaid",
                                    "type": "uint64"
                                },
                                {
                                    "internalType": "uint64",
                                    "name": "cleanPar",
                                    "type": "uint64"
                                }
                            ],
                            "internalType": "struct SharesRepo.Body",
                            "name": "body",
                            "type": "tuple"
                        }
                    ],
                    "internalType": "struct SharesRepo.Share",
                    "name": "share",
                    "type": "tuple"
                },
                {
                    "internalType": "uint256",
                    "name": "caller",
                    "type": "uint256"
                }
            ],
            "name": "priceCheck",
            "outputs": [
                {
                    "internalType": "bool",
                    "name": "",
                    "type": "bool"
                }
            ],
            "stateMutability": "view",
            "type": "function"
        },
        {
            "inputs": [
                {
                    "internalType": "uint256",
                    "name": "drager",
                    "type": "uint256"
                }
            ],
            "name": "removeDrager",
            "outputs": [],
            "stateMutability": "nonpayable",
            "type": "function"
        },
        {
            "inputs": [
                {
                    "internalType": "uint256",
                    "name": "drager",
                    "type": "uint256"
                },
                {
                    "internalType": "uint256",
                    "name": "follower",
                    "type": "uint256"
                }
            ],
            "name": "removeFollower",
            "outputs": [],
            "stateMutability": "nonpayable",
            "type": "function"
        },
        {
            "inputs": [
                {
                    "internalType": "bytes32",
                    "name": "role",
                    "type": "bytes32"
                }
            ],
            "name": "renounceRole",
            "outputs": [],
            "stateMutability": "nonpayable",
            "type": "function"
        },
        {
            "inputs": [
                {
                    "internalType": "bytes32",
                    "name": "role",
                    "type": "bytes32"
                },
                {
                    "internalType": "uint256",
                    "name": "acct",
                    "type": "uint256"
                }
            ],
            "name": "revokeRole",
            "outputs": [],
            "stateMutability": "nonpayable",
            "type": "function"
        },
        {
            "inputs": [
                {
                    "internalType": "address",
                    "name": "keeper",
                    "type": "address"
                }
            ],
            "name": "setDirectKeeper",
            "outputs": [],
            "stateMutability": "nonpayable",
            "type": "function"
        },
        {
            "inputs": [
                {
                    "internalType": "uint256",
                    "name": "acct",
                    "type": "uint256"
                }
            ],
            "name": "setGeneralCounsel",
            "outputs": [],
            "stateMutability": "nonpayable",
            "type": "function"
        },
        {
            "inputs": [
                {
                    "internalType": "uint256",
                    "name": "acct",
                    "type": "uint256"
                }
            ],
            "name": "setOwner",
            "outputs": [],
            "stateMutability": "nonpayable",
            "type": "function"
        },
        {
            "inputs": [
                {
                    "internalType": "bytes32",
                    "name": "role",
                    "type": "bytes32"
                },
                {
                    "internalType": "uint256",
                    "name": "acct",
                    "type": "uint256"
                }
            ],
            "name": "setRoleAdmin",
            "outputs": [],
            "stateMutability": "nonpayable",
            "type": "function"
        }
    ],
    "bytecode": "608060405234801561001057600080fd5b50612e90806100206000396000f3fe608060405234801561001057600080fd5b506004361061018e5760003560e01c806383680fff116100de578063b4a952b311610097578063d249176e11610071578063d249176e1461046b578063dc890da91461047e578063ed21102314610491578063f045a769146104b157600080fd5b8063b4a952b31461043d578063c68f51f814610445578063ca93c8fc1461045857600080fd5b806383680fff146103d5578063893d20e8146103e857806389c29dbb146103f05780638bb9c5bf14610403578063b097b85714610416578063b3f05b971461042957600080fd5b80633da9a6001161014b57806352fae48a1161012557806352fae48a146103895780636be8496f1461039c5780637e063c5a146103af5780638041494e146103c257600080fd5b80633da9a600146103505780634a14beb1146103635780635171ebd41461037657600080fd5b8063103f6edd1461019357806319d61ad9146101b65780631abc901f146101cb5780631b6ea9f9146101eb5780631ce69d39146101fe5780633a8a879f1461032d575b600080fd5b61019b6104b9565b60405164ffffffffff90911681526020015b60405180910390f35b6101c96101c4366004612384565b610545565b005b6101de6101d93660046123a6565b6105d9565b6040516101ad91906123bf565b6101c96101f9366004612384565b61067f565b61032061020c3660046123a6565b6040805161014081018252600080825260208201819052918101829052606081018290526080810182905260a0810182905260c0810182905260e0810182905261010081018290526101208101919091525060009081526004602090815260409182902082516101408101845260029091015461ffff808216835260ff6201000083048116948401949094526301000000820484169483019490945264ffffffffff640100000000820481166060840152600160481b8204166080830152600160701b8104831660a0830152600160781b810490931660c0820152600160881b8304909116151560e082015263ffffffff600160901b83048116610100830152600160b01b90920490911661012082015290565b6040516101ad9190612403565b61034061033b3660046127fc565b6106a4565b60405190151581526020016101ad565b6101c961035e3660046123a6565b610ae4565b6101c96103713660046123a6565b610bff565b6101c9610384366004612384565b610def565b6101c96103973660046123a6565b610e14565b6101c96103aa366004612833565b610fad565b6103406103bd366004612384565b61105f565b6101c96103d03660046123a6565b6110fb565b6103406103e3366004612883565b6112e0565b61019b6114c6565b6101c96103fe366004612384565b611501565b6101c96104113660046123a6565b611675565b610340610424366004612384565b6116ce565b60028054600160f01b900460ff1614610340565b6101de61171a565b6101c9610453366004612384565b6117a4565b6101c9610466366004612384565b611ace565b6103406104793660046123a6565b611bed565b6101c961048c3660046129a3565b611c7a565b610499611d5d565b6040516001600160a01b0390911681526020016101ad565b6101c9611de3565b60405163e8c0cc1d60e01b81526002600482015260009073__$364aad554dc80380f414546becdd2c1584$__9063e8c0cc1d906024015b60206040518083038186803b15801561050857600080fd5b505af415801561051c573d6000803e3d6000fd5b505050506040513d601f19601f820116820180604052508101906105409190612a01565b905090565b73__$364aad554dc80380f414546becdd2c1584$__6382daafaa60028461056a612001565b6040516001600160e01b031960e086901b1681526004810193909352602483019190915264ffffffffff166044820152606481018490526084015b60006040518083038186803b1580156105bd57600080fd5b505af41580156105d1573d6000803e3d6000fd5b505050505050565b600081815260046020819052604091829020915163034306e160e21b815260609273__$8c1a4844a0a0988ea2454cf87145a95df1$__92630d0c1b849261062592910190815260200190565b60006040518083038186803b15801561063d57600080fd5b505af4158015610651573d6000803e3d6000fd5b505050506040513d6000823e601f3d908101601f191682016040526106799190810190612a1e565b92915050565b73__$364aad554dc80380f414546becdd2c1584$__636320d75e60028461056a612001565b600060026106b061205b565b60405163de154c2760e01b81526001600160a01b038681166004830152919091169063de154c279060240160c06040518083038186803b1580156106f357600080fd5b505afa158015610707573d6000803e3d6000fd5b505050506040513d601f19601f8201168201806040525081019061072b9190612acf565b60a0015160ff161461073f57506000610679565b81515160ff1660011480610758575081515160ff166004145b1561076557506000610679565b815160a00151604051633f5f77cd60e01b81526005600482015264ffffffffff909116602482015273__$8c1a4844a0a0988ea2454cf87145a95df1$__90633f5f77cd9060440160206040518083038186803b1580156107c457600080fd5b505af41580156107d8573d6000803e3d6000fd5b505050506040513d601f19601f820116820180604052508101906107fc9190612b8a565b61080857506000610679565b815160a09081015164ffffffffff90811660009081526004602090815260409182902082516101408101845260029091015461ffff808216835260ff62010000830481169484019490945263010000008204841694830194909452640100000000810485166060830152600160481b81049094166080820152600160701b84048216948101859052600160781b840490921660c0830152600160881b830416151560e082015263ffffffff600160901b83048116610100830152600160b01b909204909116610120820152906108e2576001915050610679565b60006108ec6120be565b6001600160a01b031663984199286040518163ffffffff1660e01b815260040160206040518083038186803b15801561092457600080fd5b505afa158015610938573d6000803e3d6000fd5b505050506040513d601f19601f8201168201806040525081019061095c9190612a01565b90506109666120be565b845160a0015160405163302e2f6360e11b815264ffffffffff90911660048201526001600160a01b03919091169063605c5ec69060240160206040518083038186803b1580156109b557600080fd5b505afa1580156109c9573d6000803e3d6000fd5b505050506040513d601f19601f820116820180604052508101906109ed9190612a01565b64ffffffffff168164ffffffffff1614610a0c57600092505050610679565b600080610a1761205b565b60405163deb5717560e01b81526001600160a01b038981166004830152919091169063deb5717590602401604080518083038186803b158015610a5957600080fd5b505afa158015610a6d573d6000803e3d6000fd5b505050506040513d601f19601f82011682018060405250810190610a919190612bb0565b915091508164ffffffffff168364ffffffffff1614610ab7576001945050505050610679565b8360c0015161ffff168161ffff1611610ad7576001945050505050610679565b5060009695505050505050565b604051633b11adbf60e21b81526002600482015233602482015273__$364aad554dc80380f414546becdd2c1584$__9063ec46b6fc9060440160206040518083038186803b158015610b3557600080fd5b505af4158015610b49573d6000803e3d6000fd5b505050506040513d601f19601f82011682018060405250810190610b6d9190612b8a565b610b925760405162461bcd60e51b8152600401610b8990612bea565b60405180910390fd5b60405163cc99e11b60e01b8152600260048201526024810182905273__$364aad554dc80380f414546becdd2c1584$__9063cc99e11b9060440160006040518083038186803b158015610be457600080fd5b505af4158015610bf8573d6000803e3d6000fd5b5050505050565b604051633b11adbf60e21b81526002600482015233602482015273__$364aad554dc80380f414546becdd2c1584$__9063ec46b6fc9060440160206040518083038186803b158015610c5057600080fd5b505af4158015610c64573d6000803e3d6000fd5b505050506040513d601f19601f82011682018060405250810190610c889190612b8a565b80610d2d575073__$364aad554dc80380f414546becdd2c1584$__63fe2710866002610cb2612001565b6040516001600160e01b031960e085901b168152600481019290925264ffffffffff16602482015260440160206040518083038186803b158015610cf557600080fd5b505af4158015610d09573d6000803e3d6000fd5b505050506040513d601f19601f82011682018060405250810190610d2d9190612b8a565b610d495760405162461bcd60e51b8152600401610b8990612c30565b604051632725ebef60e21b8152600260048201526024810182905273__$364aad554dc80380f414546becdd2c1584$__90639c97afbc9060440160006040518083038186803b158015610d9b57600080fd5b505af4158015610daf573d6000803e3d6000fd5b505050507ff2735f34b69be1e6342dea95f9162f84d0db925fab655ca9f1f312ac8cbfc99d81604051610de491815260200190565b60405180910390a150565b73__$364aad554dc80380f414546becdd2c1584$__63ee98b31360028461056a612001565b73__$364aad554dc80380f414546becdd2c1584$__63a8ef95ac6002684174746f726e65797360b81b610e45612001565b6040516001600160e01b031960e086901b1681526004810193909352602483019190915264ffffffffff16604482015260640160206040518083038186803b158015610e9057600080fd5b505af4158015610ea4573d6000803e3d6000fd5b505050506040513d601f19601f82011682018060405250810190610ec89190612b8a565b610ee45760405162461bcd60e51b8152600401610b8990612c86565b6040516392fd02df60e01b8152600560048201526024810182905273__$8c1a4844a0a0988ea2454cf87145a95df1$__906392fd02df9060440160206040518083038186803b158015610f3657600080fd5b505af4158015610f4a573d6000803e3d6000fd5b505050506040513d601f19601f82011682018060405250810190610f6e9190612b8a565b15610faa5760008181526004602052604081209081818181610f908282612352565b5050505060029190910180546001600160d01b0319169055505b50565b604051630f07232560e01b8152600260048201523360248201526001600160a01b038216604482015273__$364aad554dc80380f414546becdd2c1584$__90630f0723259060640160006040518083038186803b15801561100d57600080fd5b505af4158015611021573d6000803e3d6000fd5b50506040516001600160a01b03841681527fe435cbeab64e4eae6497b9d8289704bd709d624a80704ef3ca9af777534bc6ec92506020019050610de4565b604051632a3be56b60e21b815260026004820152602481018390526044810182905260009073__$364aad554dc80380f414546becdd2c1584$__9063a8ef95ac906064015b60206040518083038186803b1580156110bc57600080fd5b505af41580156110d0573d6000803e3d6000fd5b505050506040513d601f19601f820116820180604052508101906110f49190612b8a565b9392505050565b604051633b11adbf60e21b81526002600482015233602482015273__$364aad554dc80380f414546becdd2c1584$__9063ec46b6fc9060440160206040518083038186803b15801561114c57600080fd5b505af4158015611160573d6000803e3d6000fd5b505050506040513d601f19601f820116820180604052508101906111849190612b8a565b80611229575073__$364aad554dc80380f414546becdd2c1584$__63fe27108660026111ae612001565b6040516001600160e01b031960e085901b168152600481019290925264ffffffffff16602482015260440160206040518083038186803b1580156111f157600080fd5b505af4158015611205573d6000803e3d6000fd5b505050506040513d601f19601f820116820180604052508101906112299190612b8a565b6112455760405162461bcd60e51b8152600401610b8990612c30565b60405163b6e38a2960e01b8152600260048201526024810182905273__$364aad554dc80380f414546becdd2c1584$__9063b6e38a299060440160006040518083038186803b15801561129757600080fd5b505af41580156112ab573d6000803e3d6000fd5b505050507f8b6f40f36b4ae8cc5f55e895036457c43da4ab1f80f58c46f5ff0d72a650033b81604051610de491815260200190565b60006112ec85856106a4565b6112f8575060006114be565b835160a0015164ffffffffff1682146113535760405162461bcd60e51b815260206004820152601b60248201527f44412e50433a2063616c6c6572206973206e6f742064726167657200000000006044820152606401610b89565b60008281526004602090815260409182902082516101408101845260029182015461ffff808216835260ff6201000083048116958401959095526301000000820485169583019590955264ffffffffff640100000000820481166060840152600160481b8204166080830152600160701b8104841660a08301819052600160781b820490951660c0830152600160881b8104909316151560e082015263ffffffff600160901b84048116610100830152600160b01b909304909216610120830152909110156114265760019150506114be565b60a081015160ff166002141561146a5780610100015163ffffffff16856000015160c0015163ffffffff16106114605760019150506114be565b60009150506114be565b80610120015163ffffffff166114a3866000015160c00151866000015160c00151886000015161010001518860000151606001516120d9565b63ffffffff16106114b85760019150506114be565b60009150505b949350505050565b60405163987ad15360e01b81526002600482015260009073__$364aad554dc80380f414546becdd2c1584$__9063987ad153906024016104f0565b73__$364aad554dc80380f414546becdd2c1584$__63a8ef95ac6002684174746f726e65797360b81b611532612001565b6040516001600160e01b031960e086901b1681526004810193909352602483019190915264ffffffffff16604482015260640160206040518083038186803b15801561157d57600080fd5b505af4158015611591573d6000803e3d6000fd5b505050506040513d601f19601f820116820180604052508101906115b59190612b8a565b6115d15760405162461bcd60e51b8152600401610b8990612c86565b60008281526004602081905260409182902091516392f13c3f60e01b815273__$8c1a4844a0a0988ea2454cf87145a95df1$__926392f13c3f9261162092869101918252602082015260400190565b60206040518083038186803b15801561163857600080fd5b505af415801561164c573d6000803e3d6000fd5b505050506040513d601f19601f820116820180604052508101906116709190612b8a565b505050565b600061167f612001565b60405163cc0d511b60e01b8152600260048201526024810184905264ffffffffff8216604482015290915073__$364aad554dc80380f414546becdd2c1584$__9063cc0d511b906064016105a5565b60008281526004602081905260408083209051633f5f77cd60e01b8152918201526024810183905273__$8c1a4844a0a0988ea2454cf87145a95df1$__90633f5f77cd906044016110a4565b60405163034306e160e21b81526005600482015260609073__$8c1a4844a0a0988ea2454cf87145a95df1$__90630d0c1b849060240160006040518083038186803b15801561176857600080fd5b505af415801561177c573d6000803e3d6000fd5b505050506040513d6000823e601f3d908101601f191682016040526105409190810190612a1e565b73__$364aad554dc80380f414546becdd2c1584$__63a8ef95ac6002684174746f726e65797360b81b6117d5612001565b6040516001600160e01b031960e086901b1681526004810193909352602483019190915264ffffffffff16604482015260640160206040518083038186803b15801561182057600080fd5b505af4158015611834573d6000803e3d6000fd5b505050506040513d601f19601f820116820180604052508101906118589190612b8a565b6118745760405162461bcd60e51b8152600401610b8990612c86565b6040516392f13c3f60e01b8152600560048201526024810182905273__$8c1a4844a0a0988ea2454cf87145a95df1$__906392f13c3f9060440160206040518083038186803b1580156118c657600080fd5b505af41580156118da573d6000803e3d6000fd5b505050506040513d601f19601f820116820180604052508101906118fe9190612b8a565b15611aca57604051634666ce3160e11b81526004810183905273__$9d2c69e94fee47b9774dc8db4aa5c0bbec$__90638ccd9c62906024016101406040518083038186803b15801561194f57600080fd5b505af4158015611963573d6000803e3d6000fd5b505050506040513d601f19601f820116820180604052508101906119879190612cbe565b60008281526004602090815260409182902083516002909101805492850151938501516060860151608087015160a088015160c089015160e08a01516101008b0151610120909b015161ffff98891662ffffff19909a16999099176201000060ff9b8c16021768ffffffffffff00000019166301000000968b169690960268ffffffffff0000000019169590951764010000000064ffffffffff95861602176effffffffffff0000000000000000001916600160481b949093169390930260ff60701b191691909117600160701b97909116969096029590951762ffffff60781b1916600160781b939095169290920260ff60881b191693909317600160881b911515919091021767ffffffffffffffff60901b1916600160901b63ffffffff9485160263ffffffff60b01b191617600160b01b93909116929092029190911790555b5050565b73__$364aad554dc80380f414546becdd2c1584$__63a8ef95ac6002684174746f726e65797360b81b611aff612001565b6040516001600160e01b031960e086901b1681526004810193909352602483019190915264ffffffffff16604482015260640160206040518083038186803b158015611b4a57600080fd5b505af4158015611b5e573d6000803e3d6000fd5b505050506040513d601f19601f82011682018060405250810190611b829190612b8a565b611b9e5760405162461bcd60e51b8152600401610b8990612c86565b60008281526004602081905260409182902091516392fd02df60e01b815273__$8c1a4844a0a0988ea2454cf87145a95df1$__926392fd02df9261162092869101918252602082015260400190565b604051633f5f77cd60e01b8152600560048201526024810182905260009073__$8c1a4844a0a0988ea2454cf87145a95df1$__90633f5f77cd9060440160206040518083038186803b158015611c4257600080fd5b505af4158015611c56573d6000803e3d6000fd5b505050506040513d601f19601f820116820180604052508101906106799190612b8a565b611c83826121ec565b611c8c8161229b565b604051636cdd0edf60e11b815260026004820152602481018590526001600160a01b038416604482015273__$364aad554dc80380f414546becdd2c1584$__9063d9ba1dbe9060640160006040518083038186803b158015611ced57600080fd5b505af4158015611d01573d6000803e3d6000fd5b5050604080518781526001600160a01b038781166020830152868116828401528516606082015290517f3abb2418c66fe32ba9c883030a75ce583971d9af9192b9b74e44e67c5e6c8c1f9350908190036080019150a150505050565b604051633c3e56c160e11b81526002600482015260009073__$364aad554dc80380f414546becdd2c1584$__9063787cad829060240160206040518083038186803b158015611dab57600080fd5b505af4158015611dbf573d6000803e3d6000fd5b505050506040513d601f19601f820116820180604052508101906105409190612d86565b604051633b11adbf60e21b81526002600482015233602482015273__$364aad554dc80380f414546becdd2c1584$__9063ec46b6fc9060440160206040518083038186803b158015611e3457600080fd5b505af4158015611e48573d6000803e3d6000fd5b505050506040513d601f19601f82011682018060405250810190611e6c9190612b8a565b611e885760405162461bcd60e51b8152600401610b8990612bea565b600254600160f01b900460ff16600114611ee45760405162461bcd60e51b815260206004820181905260248201527f41432e6f6e6c7950656e64696e673a20446f632069732066696e616c697a65646044820152606401610b89565b60405163cc99e11b60e01b815260026004820152684174746f726e65797360b81b602482015273__$364aad554dc80380f414546becdd2c1584$__9063cc99e11b9060440160006040518083038186803b158015611f4157600080fd5b505af4158015611f55573d6000803e3d6000fd5b5050604051632725ebef60e21b8152600260048201526000602482015273__$364aad554dc80380f414546becdd2c1584$__9250639c97afbc915060440160006040518083038186803b158015611fab57600080fd5b505af4158015611fbf573d6000803e3d6000fd5b50506002805460ff60f01b1916600160f11b17905550506040517f35012b512309c322acf68632cd6cb702ff0e1d776fbe9394e38ffc13b434fe7590600090a1565b60008054604051634de835e760e11b81523360048201526001600160a01b0390911690639bd06bce90602401602060405180830381600087803b15801561204757600080fd5b505af115801561051c573d6000803e3d6000fd5b6001546000906001600160a01b031663e0ff5b8b825b6040516001600160e01b031960e084901b16815260ff909116600482015260240160206040518083038186803b1580156120aa57600080fd5b505afa158015611dbf573d6000803e3d6000fd5b6001546000906001600160a01b031663e0ff5b8b6007612071565b60008363ffffffff168563ffffffff16116121365760405162461bcd60e51b815260206004820152601b60248201527f524f453a204e454741544956452073656c6c696e6720707269636500000000006044820152606401610b89565b8165ffffffffffff168365ffffffffffff16116121955760405162461bcd60e51b815260206004820152601c60248201527f524f453a204e4547415449564520686f6c64696e6720706572696f64000000006044820152606401610b89565b60006121a18587612db9565b905060006121af8486612dde565b905080866121bf84612710612dfd565b6121c99190612e29565b6121d7906301e13380612dfd565b6121e19190612e29565b979650505050505050565b6000546001600160a01b03161561223d5760405162461bcd60e51b815260206004820152601560248201527430b63932b0b23c9039b2ba103932b3a1b2b73a32b960591b6044820152606401610b89565b6040516001600160a01b03821681527f318da6c7624c71cbc0afe346c9d8827f119d0ecefb241a7b0c87217a076a8e029060200160405180910390a1600080546001600160a01b0319166001600160a01b0392909216919091179055565b6001546001600160a01b0316156122f45760405162461bcd60e51b815260206004820152601960248201527f616c7265616479207365742067656e6572616c4b6565706572000000000000006044820152606401610b89565b6040516001600160a01b03821681527fe513d3e0f0d0a3877029dcc588748679a7a3450ec1ec7ed56d96bd012c3e61aa9060200160405180910390a1600180546001600160a01b0319166001600160a01b0392909216919091179055565b5080546000825590600052602060002090810190610faa91905b80821115612380576000815560010161236c565b5090565b6000806040838503121561239757600080fd5b50508035926020909101359150565b6000602082840312156123b857600080fd5b5035919050565b6020808252825182820181905260009190848201906040850190845b818110156123f7578351835292840192918401916001016123db565b50909695505050505050565b815161ffff16815261014081016020830151612424602084018260ff169052565b506040830151612439604084018260ff169052565b506060830151612452606084018264ffffffffff169052565b50608083015161246b608084018264ffffffffff169052565b5060a083015161248060a084018260ff169052565b5060c083015161249660c084018261ffff169052565b5060e08301516124aa60e084018215159052565b506101008381015163ffffffff908116918401919091526101209384015116929091019190915290565b6001600160a01b0381168114610faa57600080fd5b634e487b7160e01b600052604160045260246000fd5b6040516080810167ffffffffffffffff81118282101715612522576125226124e9565b60405290565b6040516060810167ffffffffffffffff81118282101715612522576125226124e9565b604051610140810167ffffffffffffffff81118282101715612522576125226124e9565b6040805190810167ffffffffffffffff81118282101715612522576125226124e9565b604051610100810167ffffffffffffffff81118282101715612522576125226124e9565b604051601f8201601f1916810167ffffffffffffffff811182821017156125df576125df6124e9565b604052919050565b60ff81168114610faa57600080fd5b8035612601816125e7565b919050565b61ffff81168114610faa57600080fd5b803561260181612606565b63ffffffff81168114610faa57600080fd5b803561260181612621565b64ffffffffff81168114610faa57600080fd5b80356126018161263e565b65ffffffffffff81168114610faa57600080fd5b80356126018161265c565b803567ffffffffffffffff8116811461260157600080fd5b6000608082840312156126a557600080fd5b6126ad6124ff565b905081356126ba8161263e565b815260208201356126ca8161263e565b60208201526126db6040830161267b565b60408201526126ec6060830161267b565b606082015292915050565b60008183036101e081121561270b57600080fd5b612713612528565b91506101408082121561272557600080fd5b61272d61254b565b9150612738846125f6565b825261274660208501612616565b602083015261275760408501612616565b604083015261276860608501612616565b606083015261277960808501612633565b608083015261278a60a08501612651565b60a083015261279b60c08501612633565b60c08301526127ac60e08501612633565b60e08301526101006127bf818601612670565b908301526101206127d18582016125f6565b908301528183526127e485858301612693565b602084015250506101c0820135604082015292915050565b600080610200838503121561281057600080fd5b823561281b816124d4565b915061282a84602085016126f7565b90509250929050565b60006020828403121561284557600080fd5b81356110f4816124d4565b60006080828403121561286257600080fd5b61286a6124ff565b90506128758261267b565b81526126ca6020830161267b565b6000806000808486036103a081121561289b57600080fd5b85356128a6816124d4565b94506128b587602088016126f7565b93506101ff19016101808112156128cb57600080fd5b6128d361256f565b6101008212156128e257600080fd5b6128ea612592565b91506102008701356128fb81612621565b825261290a6102208801612633565b602083015261291c6102408801612616565b604083015261292e6102608801612670565b60608301526129406102808801612670565b60808301526129526102a08801612651565b60a08301526129646102c08801612633565b60c08301526129766102e088016125f6565b60e083015281815261298c886103008901612850565b602082015294979396509394610380013593505050565b600080600080608085870312156129b957600080fd5b8435935060208501356129cb816124d4565b925060408501356129db816124d4565b915060608501356129eb816124d4565b939692955090935050565b80516126018161263e565b600060208284031215612a1357600080fd5b81516110f48161263e565b60006020808385031215612a3157600080fd5b825167ffffffffffffffff80821115612a4957600080fd5b818501915085601f830112612a5d57600080fd5b815181811115612a6f57612a6f6124e9565b8060051b9150612a808483016125b6565b8181529183018401918481019088841115612a9a57600080fd5b938501935b83851015612ab857845182529385019390850190612a9f565b98975050505050505050565b8051612601816125e7565b600060c08284031215612ae157600080fd5b60405160c0810181811067ffffffffffffffff82111715612b0457612b046124e9565b6040528251612b12816125e7565b81526020830151612b228161263e565b60208201526040830151612b358161265c565b60408201526060830151612b488161265c565b60608201526080830151612b5b8161265c565b608082015260a0830151612b6e816125e7565b60a08201529392505050565b8051801515811461260157600080fd5b600060208284031215612b9c57600080fd5b6110f482612b7a565b805161260181612606565b60008060408385031215612bc357600080fd5b8251612bce8161263e565b6020840151909250612bdf81612606565b809150509250929050565b60208082526026908201527f41432e6f6e6c794469726563744b65657065723a206e6f74206469726563742060408201526535b2b2b832b960d11b606082015260800190565b60208082526036908201527f41432e6f776e65724f72446972656374426f6f6b65657065723a206e6569746860408201527532b91037bbb732b9103737b9103137b7b5b2b2b832b960511b606082015260800190565b60208082526013908201527241432e6f743a206e6f74204174746f726e657960681b604082015260600190565b805161260181612621565b60006101408284031215612cd157600080fd5b612cd961254b565b612ce283612ba5565b8152612cf060208401612ac4565b6020820152612d0160408401612ac4565b6040820152612d12606084016129f6565b6060820152612d23608084016129f6565b6080820152612d3460a08401612ac4565b60a0820152612d4560c08401612ba5565b60c0820152612d5660e08401612b7a565b60e0820152610100612d69818501612cb3565b90820152610120612d7b848201612cb3565b908201529392505050565b600060208284031215612d9857600080fd5b81516110f4816124d4565b634e487b7160e01b600052601160045260246000fd5b600063ffffffff83811690831681811015612dd657612dd6612da3565b039392505050565b600065ffffffffffff83811690831681811015612dd657612dd6612da3565b600063ffffffff80831681851681830481118215151615612e2057612e20612da3565b02949350505050565b600063ffffffff80841680612e4e57634e487b7160e01b600052601260045260246000fd5b9216919091049291505056fea264697066735822122005c0c1e55f68a985c311d053f11a4f25b9b18d25d589e4d0c2d328ae83e36a9264736f6c63430008080033",
    "sourcePath": "/Users/kaptain/github.com/hardhat/comboox/contracts/books/boh/terms/DragAlong.sol",
    "compiler": {
        "name": "solc",
        "version": "0.8.8+commit.dddeac2f"
    },
    "functionHashes": {
        "abandonRole(bytes32)": "3da9a600",
        "addFollower(uint256,uint256)": "89c29dbb",
        "createLink(bytes32,uint256)": "c68f51f8",
        "dragers()": "b4a952b3",
        "finalized()": "b3f05b97",
        "followers(uint256)": "1abc901f",
        "getBookeeper()": "ed211023",
        "getGeneralCounsel()": "103f6edd",
        "getOwner()": "893d20e8",
        "grantRole(bytes32,uint256)": "1b6ea9f9",
        "hasRole(bytes32,uint256)": "7e063c5a",
        "init(uint256,address,address,address)": "dc890da9",
        "isDrager(uint256)": "d249176e",
        "isLinked(uint256,uint256)": "b097b857",
        "isTriggered(address,((uint8,uint16,uint16,uint16,uint32,uint40,uint32,uint32,uint48,uint8),(uint40,uint40,uint64,uint64),bytes32))": "3a8a879f",
        "linkRule(uint256)": "1ce69d39",
        "lockContents()": "f045a769",
        "priceCheck(address,((uint8,uint16,uint16,uint16,uint32,uint40,uint32,uint32,uint48,uint8),(uint40,uint40,uint64,uint64),bytes32),((uint32,uint32,uint16,uint48,uint48,uint40,uint32,uint8),(uint64,uint64,uint64,uint64)),uint256)": "83680fff",
        "removeDrager(uint256)": "52fae48a",
        "removeFollower(uint256,uint256)": "ca93c8fc",
        "renounceRole(bytes32)": "8bb9c5bf",
        "revokeRole(bytes32,uint256)": "19d61ad9",
        "setDirectKeeper(address)": "6be8496f",
        "setGeneralCounsel(uint256)": "4a14beb1",
        "setOwner(uint256)": "8041494e",
        "setRoleAdmin(bytes32,uint256)": "5171ebd4"
    },
    "gasEstimates": {
        "creation": {
            "codeDepositCost": "2384000",
            "executionCost": "2560",
            "totalCost": "2386560"
        },
        "external": {
            "abandonRole(bytes32)": "infinite",
            "addFollower(uint256,uint256)": "infinite",
            "createLink(bytes32,uint256)": "infinite",
            "dragers()": "infinite",
            "finalized()": "2460",
            "followers(uint256)": "infinite",
            "getBookeeper()": "infinite",
            "getGeneralCounsel()": "infinite",
            "getOwner()": "infinite",
            "grantRole(bytes32,uint256)": "infinite",
            "hasRole(bytes32,uint256)": "infinite",
            "init(uint256,address,address,address)": "infinite",
            "isDrager(uint256)": "infinite",
            "isLinked(uint256,uint256)": "infinite",
            "isTriggered(address,((uint8,uint16,uint16,uint16,uint32,uint40,uint32,uint32,uint48,uint8),(uint40,uint40,uint64,uint64),bytes32))": "infinite",
            "linkRule(uint256)": "3717",
            "lockContents()": "infinite",
            "priceCheck(address,((uint8,uint16,uint16,uint16,uint32,uint40,uint32,uint32,uint48,uint8),(uint40,uint40,uint64,uint64),bytes32),((uint32,uint32,uint16,uint48,uint48,uint40,uint32,uint8),(uint64,uint64,uint64,uint64)),uint256)": "infinite",
            "removeDrager(uint256)": "infinite",
            "removeFollower(uint256,uint256)": "infinite",
            "renounceRole(bytes32)": "infinite",
            "revokeRole(bytes32,uint256)": "infinite",
            "setDirectKeeper(address)": "infinite",
            "setGeneralCounsel(uint256)": "infinite",
            "setOwner(uint256)": "infinite",
            "setRoleAdmin(bytes32,uint256)": "infinite"
        },
        "internal": {
            "_roeOfDeal(uint32,uint32,uint48,uint48)": "infinite"
        }
    }
}