{
    "contractName": "DragAlong",
    "abi": [
        {
            "anonymous": false,
            "inputs": [
                {
                    "indexed": false,
                    "internalType": "uint40",
                    "name": "owner",
                    "type": "uint40"
                },
                {
                    "indexed": false,
                    "internalType": "address",
                    "name": "directKeeper",
                    "type": "address"
                },
                {
                    "indexed": false,
                    "internalType": "address",
                    "name": "regCenter",
                    "type": "address"
                },
                {
                    "indexed": false,
                    "internalType": "address",
                    "name": "generalKeeper",
                    "type": "address"
                }
            ],
            "name": "Init",
            "type": "event"
        },
        {
            "anonymous": false,
            "inputs": [],
            "name": "LockContents",
            "type": "event"
        },
        {
            "anonymous": false,
            "inputs": [
                {
                    "indexed": false,
                    "internalType": "address",
                    "name": "keeper",
                    "type": "address"
                }
            ],
            "name": "SetDirectKeeper",
            "type": "event"
        },
        {
            "anonymous": false,
            "inputs": [
                {
                    "indexed": false,
                    "internalType": "uint256",
                    "name": "acct",
                    "type": "uint256"
                }
            ],
            "name": "SetGeneralCounsel",
            "type": "event"
        },
        {
            "anonymous": false,
            "inputs": [
                {
                    "indexed": false,
                    "internalType": "address",
                    "name": "gk",
                    "type": "address"
                }
            ],
            "name": "SetGeneralKeeper",
            "type": "event"
        },
        {
            "anonymous": false,
            "inputs": [
                {
                    "indexed": false,
                    "internalType": "uint256",
                    "name": "acct",
                    "type": "uint256"
                }
            ],
            "name": "SetOwner",
            "type": "event"
        },
        {
            "anonymous": false,
            "inputs": [
                {
                    "indexed": false,
                    "internalType": "address",
                    "name": "rc",
                    "type": "address"
                }
            ],
            "name": "SetRegCenter",
            "type": "event"
        },
        {
            "inputs": [
                {
                    "internalType": "bytes32",
                    "name": "role",
                    "type": "bytes32"
                }
            ],
            "name": "abandonRole",
            "outputs": [],
            "stateMutability": "nonpayable",
            "type": "function"
        },
        {
            "inputs": [
                {
                    "internalType": "uint40",
                    "name": "drager",
                    "type": "uint40"
                },
                {
                    "internalType": "uint40",
                    "name": "follower",
                    "type": "uint40"
                }
            ],
            "name": "addFollower",
            "outputs": [],
            "stateMutability": "nonpayable",
            "type": "function"
        },
        {
            "inputs": [
                {
                    "internalType": "bytes32",
                    "name": "rule",
                    "type": "bytes32"
                },
                {
                    "internalType": "uint40",
                    "name": "drager",
                    "type": "uint40"
                }
            ],
            "name": "createLink",
            "outputs": [],
            "stateMutability": "nonpayable",
            "type": "function"
        },
        {
            "inputs": [
                {
                    "internalType": "bytes32",
                    "name": "rule",
                    "type": "bytes32"
                }
            ],
            "name": "delLink",
            "outputs": [],
            "stateMutability": "nonpayable",
            "type": "function"
        },
        {
            "inputs": [],
            "name": "dragers",
            "outputs": [
                {
                    "internalType": "uint40[]",
                    "name": "",
                    "type": "uint40[]"
                }
            ],
            "stateMutability": "view",
            "type": "function"
        },
        {
            "inputs": [],
            "name": "finalized",
            "outputs": [
                {
                    "internalType": "bool",
                    "name": "",
                    "type": "bool"
                }
            ],
            "stateMutability": "view",
            "type": "function"
        },
        {
            "inputs": [
                {
                    "internalType": "uint40",
                    "name": "drager",
                    "type": "uint40"
                }
            ],
            "name": "followers",
            "outputs": [
                {
                    "internalType": "uint40[]",
                    "name": "",
                    "type": "uint40[]"
                }
            ],
            "stateMutability": "view",
            "type": "function"
        },
        {
            "inputs": [],
            "name": "getBookeeper",
            "outputs": [
                {
                    "internalType": "address",
                    "name": "",
                    "type": "address"
                }
            ],
            "stateMutability": "view",
            "type": "function"
        },
        {
            "inputs": [],
            "name": "getGeneralCounsel",
            "outputs": [
                {
                    "internalType": "uint40",
                    "name": "",
                    "type": "uint40"
                }
            ],
            "stateMutability": "view",
            "type": "function"
        },
        {
            "inputs": [],
            "name": "getOwner",
            "outputs": [
                {
                    "internalType": "uint40",
                    "name": "",
                    "type": "uint40"
                }
            ],
            "stateMutability": "view",
            "type": "function"
        },
        {
            "inputs": [
                {
                    "internalType": "bytes32",
                    "name": "role",
                    "type": "bytes32"
                },
                {
                    "internalType": "uint40",
                    "name": "acct",
                    "type": "uint40"
                }
            ],
            "name": "grantRole",
            "outputs": [],
            "stateMutability": "nonpayable",
            "type": "function"
        },
        {
            "inputs": [
                {
                    "internalType": "bytes32",
                    "name": "role",
                    "type": "bytes32"
                },
                {
                    "internalType": "uint40",
                    "name": "acct",
                    "type": "uint40"
                }
            ],
            "name": "hasRole",
            "outputs": [
                {
                    "internalType": "bool",
                    "name": "",
                    "type": "bool"
                }
            ],
            "stateMutability": "view",
            "type": "function"
        },
        {
            "inputs": [
                {
                    "internalType": "uint40",
                    "name": "owner",
                    "type": "uint40"
                },
                {
                    "internalType": "address",
                    "name": "directKeeper",
                    "type": "address"
                },
                {
                    "internalType": "address",
                    "name": "regCenter",
                    "type": "address"
                },
                {
                    "internalType": "address",
                    "name": "generalKeeper",
                    "type": "address"
                }
            ],
            "name": "init",
            "outputs": [],
            "stateMutability": "nonpayable",
            "type": "function"
        },
        {
            "inputs": [
                {
                    "internalType": "uint40",
                    "name": "drager",
                    "type": "uint40"
                }
            ],
            "name": "isDrager",
            "outputs": [
                {
                    "internalType": "bool",
                    "name": "",
                    "type": "bool"
                }
            ],
            "stateMutability": "view",
            "type": "function"
        },
        {
            "inputs": [
                {
                    "internalType": "uint40",
                    "name": "drager",
                    "type": "uint40"
                },
                {
                    "internalType": "uint40",
                    "name": "follower",
                    "type": "uint40"
                }
            ],
            "name": "isLinked",
            "outputs": [
                {
                    "internalType": "bool",
                    "name": "",
                    "type": "bool"
                }
            ],
            "stateMutability": "view",
            "type": "function"
        },
        {
            "inputs": [
                {
                    "internalType": "address",
                    "name": "ia",
                    "type": "address"
                },
                {
                    "internalType": "bytes32",
                    "name": "sn",
                    "type": "bytes32"
                }
            ],
            "name": "isTriggered",
            "outputs": [
                {
                    "internalType": "bool",
                    "name": "",
                    "type": "bool"
                }
            ],
            "stateMutability": "view",
            "type": "function"
        },
        {
            "inputs": [
                {
                    "internalType": "uint40",
                    "name": "drager",
                    "type": "uint40"
                }
            ],
            "name": "linkRule",
            "outputs": [
                {
                    "internalType": "bytes32",
                    "name": "",
                    "type": "bytes32"
                }
            ],
            "stateMutability": "view",
            "type": "function"
        },
        {
            "inputs": [],
            "name": "lockContents",
            "outputs": [],
            "stateMutability": "nonpayable",
            "type": "function"
        },
        {
            "inputs": [
                {
                    "internalType": "address",
                    "name": "ia",
                    "type": "address"
                },
                {
                    "internalType": "bytes32",
                    "name": "sn",
                    "type": "bytes32"
                },
                {
                    "internalType": "bytes32",
                    "name": "shareNumber",
                    "type": "bytes32"
                },
                {
                    "internalType": "uint40",
                    "name": "caller",
                    "type": "uint40"
                }
            ],
            "name": "priceCheck",
            "outputs": [
                {
                    "internalType": "bool",
                    "name": "",
                    "type": "bool"
                }
            ],
            "stateMutability": "view",
            "type": "function"
        },
        {
            "inputs": [
                {
                    "internalType": "uint40",
                    "name": "drager",
                    "type": "uint40"
                }
            ],
            "name": "removeDrager",
            "outputs": [],
            "stateMutability": "nonpayable",
            "type": "function"
        },
        {
            "inputs": [
                {
                    "internalType": "uint40",
                    "name": "drager",
                    "type": "uint40"
                },
                {
                    "internalType": "uint40",
                    "name": "follower",
                    "type": "uint40"
                }
            ],
            "name": "removeFollower",
            "outputs": [],
            "stateMutability": "nonpayable",
            "type": "function"
        },
        {
            "inputs": [
                {
                    "internalType": "bytes32",
                    "name": "role",
                    "type": "bytes32"
                }
            ],
            "name": "renounceRole",
            "outputs": [],
            "stateMutability": "nonpayable",
            "type": "function"
        },
        {
            "inputs": [
                {
                    "internalType": "bytes32",
                    "name": "role",
                    "type": "bytes32"
                },
                {
                    "internalType": "uint40",
                    "name": "acct",
                    "type": "uint40"
                }
            ],
            "name": "revokeRole",
            "outputs": [],
            "stateMutability": "nonpayable",
            "type": "function"
        },
        {
            "inputs": [
                {
                    "internalType": "address",
                    "name": "keeper",
                    "type": "address"
                }
            ],
            "name": "setDirectKeeper",
            "outputs": [],
            "stateMutability": "nonpayable",
            "type": "function"
        },
        {
            "inputs": [
                {
                    "internalType": "uint40",
                    "name": "acct",
                    "type": "uint40"
                }
            ],
            "name": "setGeneralCounsel",
            "outputs": [],
            "stateMutability": "nonpayable",
            "type": "function"
        },
        {
            "inputs": [
                {
                    "internalType": "uint40",
                    "name": "acct",
                    "type": "uint40"
                }
            ],
            "name": "setOwner",
            "outputs": [],
            "stateMutability": "nonpayable",
            "type": "function"
        },
        {
            "inputs": [
                {
                    "internalType": "bytes32",
                    "name": "role",
                    "type": "bytes32"
                },
                {
                    "internalType": "uint40",
                    "name": "acct",
                    "type": "uint40"
                }
            ],
            "name": "setRoleAdmin",
            "outputs": [],
            "stateMutability": "nonpayable",
            "type": "function"
        }
    ],
    "bytecode": "608060405234801561001057600080fd5b50613294806100206000396000f3fe608060405234801561001057600080fd5b50600436106101a95760003560e01c8063790ff6af116100f9578063b3f05b9711610097578063dd8c2de611610071578063dd8c2de61461037d578063ec786d28146103b2578063ed211023146103c5578063f045a769146103e557600080fd5b8063b3f05b971461034e578063b4a952b314610362578063c189bbd61461036a57600080fd5b8063821ee8ea116100d3578063821ee8ea1461030d578063893d20e8146103205780638bb9c5bf146103285780638e5a886f1461033b57600080fd5b8063790ff6af146102d457806379b2ec12146102e75780637ba706e8146102fa57600080fd5b80633e38dca0116101665780635121494111610140578063512149411461028857806358be68891461029b5780636be8496f146102ae57806374099815146102c157600080fd5b80633e38dca01461023f5780634283a0ed146102525780634fd3880b1461027557600080fd5b8063103f6edd146101ae57806316dc517e146101d157806317c51fec146101e65780633178a9a9146101f957806334518c721461020c5780633da9a6001461022c575b600080fd5b6101b66103ed565b60405164ffffffffff90911681526020015b60405180910390f35b6101e46101df366004612b7b565b610479565b005b6101e46101f4366004612b7b565b61050f565b6101e4610207366004612bab565b610534565b61021f61021a366004612bab565b610736565b6040516101c89190612bc8565b6101e461023a366004612c13565b6107f0565b6101e461024d366004612b7b565b610902565b610265610260366004612c2c565b610b15565b60405190151581526020016101c8565b6101e4610283366004612c13565b610bd7565b610265610296366004612c6f565b610d54565b6102656102a9366004612bab565b6114c5565b6101e46102bc366004612cb9565b611557565b6101e46102cf366004612b7b565b611609565b6101e46102e2366004612bab565b61162e565b6102656102f5366004612b7b565b6117aa565b6101e4610308366004612bab565b6117f9565b6101e461031b366004612cd6565b6119eb565b6101b6611adb565b6101e4610336366004612c13565b611b16565b610265610349366004612d27565b611b6f565b60028054600160f01b900460ff1614610265565b61021f612202565b6101e4610378366004612c2c565b61228b565b6103a461038b366004612bab565b64ffffffffff1660009081526009602052604090205490565b6040519081526020016101c8565b6101e46103c0366004612c2c565b612412565b6103cd612548565b6040516001600160a01b0390911681526020016101c8565b6101e46125ce565b60405163e8c0cc1d60e01b81526002600482015260009073__$364aad554dc80380f414546becdd2c1584$__9063e8c0cc1d906024015b60206040518083038186803b15801561043c57600080fd5b505af4158015610450573d6000803e3d6000fd5b505050506040513d601f19601f820116820180604052508101906104749190612d53565b905090565b73__$364aad554dc80380f414546becdd2c1584$__63427abff460028461049e6127ec565b6040516001600160e01b031960e086901b1681526004810193909352602483019190915264ffffffffff9081166044830152841660648201526084015b60006040518083038186803b1580156104f357600080fd5b505af4158015610507573d6000803e3d6000fd5b505050505050565b73__$364aad554dc80380f414546becdd2c1584$__638ce1584560028461049e6127ec565b604051633b11adbf60e21b81526002600482015233602482015273__$364aad554dc80380f414546becdd2c1584$__9063ec46b6fc9060440160206040518083038186803b15801561058557600080fd5b505af4158015610599573d6000803e3d6000fd5b505050506040513d601f19601f820116820180604052508101906105bd9190612d70565b80610662575073__$364aad554dc80380f414546becdd2c1584$__63fe27108660026105e76127ec565b6040516001600160e01b031960e085901b168152600481019290925264ffffffffff16602482015260440160206040518083038186803b15801561062a57600080fd5b505af415801561063e573d6000803e3d6000fd5b505050506040513d601f19601f820116820180604052508101906106629190612d70565b6106875760405162461bcd60e51b815260040161067e90612d92565b60405180910390fd5b604051632725ebef60e21b81526002600482015264ffffffffff8216602482015273__$364aad554dc80380f414546becdd2c1584$__90639c97afbc9060440160006040518083038186803b1580156106df57600080fd5b505af41580156106f3573d6000803e3d6000fd5b505060405164ffffffffff841681527ff2735f34b69be1e6342dea95f9162f84d0db925fab655ca9f1f312ac8cbfc99d925060200190505b60405180910390a150565b64ffffffffff811660009081526009602090815260408083205483526008909152908190209051639857dfd560e01b815260609173__$8c1a4844a0a0988ea2454cf87145a95df1$__91639857dfd5916107969160040190815260200190565b60006040518083038186803b1580156107ae57600080fd5b505af41580156107c2573d6000803e3d6000fd5b505050506040513d6000823e601f3d908101601f191682016040526107ea9190810190612e58565b92915050565b604051633b11adbf60e21b81526002600482015233602482015273__$364aad554dc80380f414546becdd2c1584$__9063ec46b6fc9060440160206040518083038186803b15801561084157600080fd5b505af4158015610855573d6000803e3d6000fd5b505050506040513d601f19601f820116820180604052508101906108799190612d70565b6108955760405162461bcd60e51b815260040161067e90612f0a565b60405163cc99e11b60e01b8152600260048201526024810182905273__$364aad554dc80380f414546becdd2c1584$__9063cc99e11b9060440160006040518083038186803b1580156108e757600080fd5b505af41580156108fb573d6000803e3d6000fd5b5050505050565b73__$364aad554dc80380f414546becdd2c1584$__63a8ef95ac6002684174746f726e65797360b81b6109336127ec565b6040516001600160e01b031960e086901b1681526004810193909352602483019190915264ffffffffff16604482015260640160206040518083038186803b15801561097e57600080fd5b505af4158015610992573d6000803e3d6000fd5b505050506040513d601f19601f820116820180604052508101906109b69190612d70565b6109d25760405162461bcd60e51b815260040161067e90612f50565b6040516392f13c3f60e01b815260048082015264ffffffffff8216602482015273__$8c1a4844a0a0988ea2454cf87145a95df1$__906392f13c3f9060440160206040518083038186803b158015610a2957600080fd5b505af4158015610a3d573d6000803e3d6000fd5b505050506040513d601f19601f82011682018060405250810190610a619190612d70565b8015610af257506040516313451ba360e11b8152600660048201526024810183905273__$8c1a4844a0a0988ea2454cf87145a95df1$__9063268a37469060440160206040518083038186803b158015610aba57600080fd5b505af4158015610ace573d6000803e3d6000fd5b505050506040513d601f19601f82011682018060405250810190610af29190612d70565b15610b115764ffffffffff811660009081526009602052604090208290555b5050565b64ffffffffff8216600090815260096020908152604080832054835260089091528082209051633f5f77cd60e01b815273__$8c1a4844a0a0988ea2454cf87145a95df1$__91633f5f77cd91610b809190869060040191825264ffffffffff16602082015260400190565b60206040518083038186803b158015610b9857600080fd5b505af4158015610bac573d6000803e3d6000fd5b505050506040513d601f19601f82011682018060405250810190610bd09190612d70565b9392505050565b73__$364aad554dc80380f414546becdd2c1584$__63a8ef95ac6002684174746f726e65797360b81b610c086127ec565b6040516001600160e01b031960e086901b1681526004810193909352602483019190915264ffffffffff16604482015260640160206040518083038186803b158015610c5357600080fd5b505af4158015610c67573d6000803e3d6000fd5b505050506040513d601f19601f82011682018060405250810190610c8b9190612d70565b610ca75760405162461bcd60e51b815260040161067e90612f50565b604051630f41111560e21b8152600660048201526024810182905273__$8c1a4844a0a0988ea2454cf87145a95df1$__90633d0444549060440160206040518083038186803b158015610cf957600080fd5b505af4158015610d0d573d6000803e3d6000fd5b505050506040513d601f19601f82011682018060405250810190610d319190612d70565b15610d515760008181526008602052604081209081816108fb8282612b36565b50565b6000610d608585611b6f565b610d6c575060006114bd565b604051630d914a1d60e41b81526004810185905260009073__$94c94c1f27eaba30857c7d0c37f90b5581$__9063d914a1d09060240160206040518083038186803b158015610dba57600080fd5b505af4158015610dce573d6000803e3d6000fd5b505050506040513d601f19601f82011682018060405250810190610df29190612d53565b90508064ffffffffff168364ffffffffff1614610e6a5760405162461bcd60e51b815260206004820152603060248201527f44412e7072696365436865636b3a2063616c6c6572206973206e6f742064726160448201526f676572206f662044726167416c6f6e6760801b606482015260840161067e565b604051630b7879eb60e21b815260048101859052610ef390849073__$94c94c1f27eaba30857c7d0c37f90b5581$__90632de1e7ac9060240160206040518083038186803b158015610ebb57600080fd5b505af4158015610ecf573d6000803e3d6000fd5b505050506040513d601f19601f820116820180604052508101906102609190612d53565b610f655760405162461bcd60e51b815260206004820152603760248201527f44412e5072696365436865636b3a2063616c6c657220616e642074617267657460448201527f207368617265686f6c646572204e4f54206c696e6b6564000000000000000000606482015260840161067e565b604051638b257a7160e01b81526004810186905260009073__$94c94c1f27eaba30857c7d0c37f90b5581$__90638b257a719060240160206040518083038186803b158015610fb357600080fd5b505af4158015610fc7573d6000803e3d6000fd5b505050506040513d601f19601f82011682018060405250810190610feb9190612f7d565b60405163177bece160e21b8152600481018890529091506000906001600160a01b0389169063b7cd72939073__$94c94c1f27eaba30857c7d0c37f90b5581$__90635defb3849060240160206040518083038186803b15801561104d57600080fd5b505af4158015611061573d6000803e3d6000fd5b505050506040513d601f19601f820116820180604052508101906110859190612fa3565b6040516001600160e01b031960e084901b16815261ffff909116600482015260240160c06040518083038186803b1580156110bf57600080fd5b505afa1580156110d3573d6000803e3d6000fd5b505050506040513d601f19601f820116820180604052508101906110f7919061300b565b6060015164ffffffffff861660009081526009602052604090819020549051633cf76a9960e21b8152600481018290529192509060029073__$94c94c1f27eaba30857c7d0c37f90b5581$__9063f3ddaa649060240160206040518083038186803b15801561116557600080fd5b505af4158015611179573d6000803e3d6000fd5b505050506040513d601f19601f8201168201806040525081019061119d9190613081565b60ff1610156111b35760019450505050506114bd565b604051633cf76a9960e21b81526004810182905260029073__$94c94c1f27eaba30857c7d0c37f90b5581$__9063f3ddaa649060240160206040518083038186803b15801561120157600080fd5b505af4158015611215573d6000803e3d6000fd5b505050506040513d601f19601f820116820180604052508101906112399190613081565b60ff1614156112f15760405163ed7d1de960e01b81526004810182905273__$94c94c1f27eaba30857c7d0c37f90b5581$__9063ed7d1de99060240160206040518083038186803b15801561128d57600080fd5b505af41580156112a1573d6000803e3d6000fd5b505050506040513d601f19601f820116820180604052508101906112c59190612f7d565b63ffffffff168363ffffffff16106112e45760019450505050506114bd565b60009450505050506114bd565b60405163ab9087e160e01b81526004810188905260009073__$94c94c1f27eaba30857c7d0c37f90b5581$__9063ab9087e19060240160206040518083038186803b15801561133f57600080fd5b505af4158015611353573d6000803e3d6000fd5b505050506040513d601f19601f820116820180604052508101906113779190612f7d565b60405163483c0b9760e11b8152600481018a905290915060009073__$94c94c1f27eaba30857c7d0c37f90b5581$__90639078172e9060240160206040518083038186803b1580156113c857600080fd5b505af41580156113dc573d6000803e3d6000fd5b505050506040513d601f19601f82011682018060405250810190611400919061309c565b604051632bb3152760e01b81526004810185905290915073__$94c94c1f27eaba30857c7d0c37f90b5581$__90632bb315279060240160206040518083038186803b15801561144e57600080fd5b505af4158015611462573d6000803e3d6000fd5b505050506040513d601f19601f820116820180604052508101906114869190612f7d565b63ffffffff1661149886848785612846565b63ffffffff16106114b257600196505050505050506114bd565b600096505050505050505b949350505050565b604051633f5f77cd60e01b815260048082015264ffffffffff8216602482015260009073__$8c1a4844a0a0988ea2454cf87145a95df1$__90633f5f77cd9060440160206040518083038186803b15801561151f57600080fd5b505af4158015611533573d6000803e3d6000fd5b505050506040513d601f19601f820116820180604052508101906107ea9190612d70565b604051630f07232560e01b8152600260048201523360248201526001600160a01b038216604482015273__$364aad554dc80380f414546becdd2c1584$__90630f0723259060640160006040518083038186803b1580156115b757600080fd5b505af41580156115cb573d6000803e3d6000fd5b50506040516001600160a01b03841681527fe435cbeab64e4eae6497b9d8289704bd709d624a80704ef3ca9af777534bc6ec9250602001905061072b565b73__$364aad554dc80380f414546becdd2c1584$__63d2a15ba760028461049e6127ec565b73__$364aad554dc80380f414546becdd2c1584$__63a8ef95ac6002684174746f726e65797360b81b61165f6127ec565b6040516001600160e01b031960e086901b1681526004810193909352602483019190915264ffffffffff16604482015260640160206040518083038186803b1580156116aa57600080fd5b505af41580156116be573d6000803e3d6000fd5b505050506040513d601f19601f820116820180604052508101906116e29190612d70565b6116fe5760405162461bcd60e51b815260040161067e90612f50565b6040516392fd02df60e01b815260048082015264ffffffffff8216602482015273__$8c1a4844a0a0988ea2454cf87145a95df1$__906392fd02df9060440160206040518083038186803b15801561175557600080fd5b505af4158015611769573d6000803e3d6000fd5b505050506040513d601f19601f8201168201806040525081019061178d9190612d70565b15610d515764ffffffffff16600090815260096020526040812055565b604051632a3be56b60e21b8152600260048201526024810183905264ffffffffff8216604482015260009073__$364aad554dc80380f414546becdd2c1584$__9063a8ef95ac90606401610b80565b604051633b11adbf60e21b81526002600482015233602482015273__$364aad554dc80380f414546becdd2c1584$__9063ec46b6fc9060440160206040518083038186803b15801561184a57600080fd5b505af415801561185e573d6000803e3d6000fd5b505050506040513d601f19601f820116820180604052508101906118829190612d70565b80611927575073__$364aad554dc80380f414546becdd2c1584$__63fe27108660026118ac6127ec565b6040516001600160e01b031960e085901b168152600481019290925264ffffffffff16602482015260440160206040518083038186803b1580156118ef57600080fd5b505af4158015611903573d6000803e3d6000fd5b505050506040513d601f19601f820116820180604052508101906119279190612d70565b6119435760405162461bcd60e51b815260040161067e90612d92565b60405163b6e38a2960e01b81526002600482015264ffffffffff8216602482015273__$364aad554dc80380f414546becdd2c1584$__9063b6e38a299060440160006040518083038186803b15801561199b57600080fd5b505af41580156119af573d6000803e3d6000fd5b505060405164ffffffffff841681527f8b6f40f36b4ae8cc5f55e895036457c43da4ab1f80f58c46f5ff0d72a650033b9250602001905061072b565b6119f482612952565b6119fd81612a01565b604051636cdd0edf60e11b81526002600482015264ffffffffff851660248201526001600160a01b038416604482015273__$364aad554dc80380f414546becdd2c1584$__9063d9ba1dbe9060640160006040518083038186803b158015611a6457600080fd5b505af4158015611a78573d6000803e3d6000fd5b50506040805164ffffffffff881681526001600160a01b038781166020830152868116828401528516606082015290517f4d18c0021addc919105cb1ed2c11ad241e859cc1d9e77d4ee1d9ca2cdc1f255b9350908190036080019150a150505050565b60405163987ad15360e01b81526002600482015260009073__$364aad554dc80380f414546becdd2c1584$__9063987ad15390602401610424565b6000611b206127ec565b604051637963595360e11b8152600260048201526024810184905264ffffffffff8216604482015290915073__$364aad554dc80380f414546becdd2c1584$__9063f2c6b2a6906064016104db565b60006002611b7b612ab8565b60405163de154c2760e01b81526001600160a01b038681166004830152919091169063de154c279060240160c06040518083038186803b158015611bbe57600080fd5b505afa158015611bd2573d6000803e3d6000fd5b505050506040513d601f19601f82011682018060405250810190611bf691906130b7565b60a0015160ff1614611c0a575060006107ea565b6040516364dc784760e11b81526004810183905260019073__$94c94c1f27eaba30857c7d0c37f90b5581$__9063c9b8f08e9060240160206040518083038186803b158015611c5857600080fd5b505af4158015611c6c573d6000803e3d6000fd5b505050506040513d601f19601f82011682018060405250810190611c909190613081565b60ff161480611d2557506040516364dc784760e11b81526004810183905260089073__$94c94c1f27eaba30857c7d0c37f90b5581$__9063c9b8f08e9060240160206040518083038186803b158015611ce857600080fd5b505af4158015611cfc573d6000803e3d6000fd5b505050506040513d601f19601f82011682018060405250810190611d209190613081565b60ff16145b15611d32575060006107ea565b604051630d914a1d60e41b81526004810183905260009073__$94c94c1f27eaba30857c7d0c37f90b5581$__9063d914a1d09060240160206040518083038186803b158015611d8057600080fd5b505af4158015611d94573d6000803e3d6000fd5b505050506040513d601f19601f82011682018060405250810190611db89190612d53565b604051633f5f77cd60e01b815260048082015264ffffffffff8216602482015290915073__$8c1a4844a0a0988ea2454cf87145a95df1$__90633f5f77cd9060440160206040518083038186803b158015611e1257600080fd5b505af4158015611e26573d6000803e3d6000fd5b505050506040513d601f19601f82011682018060405250810190611e4a9190612d70565b611e585760009150506107ea565b64ffffffffff8116600090815260096020526040808220549051633cf76a9960e21b81526004810182905290919073__$94c94c1f27eaba30857c7d0c37f90b5581$__9063f3ddaa649060240160206040518083038186803b158015611ebd57600080fd5b505af4158015611ed1573d6000803e3d6000fd5b505050506040513d601f19601f82011682018060405250810190611ef59190613081565b60ff161415611f09576001925050506107ea565b6000611f13612b1b565b6001600160a01b031663984199286040518163ffffffff1660e01b815260040160206040518083038186803b158015611f4b57600080fd5b505afa158015611f5f573d6000803e3d6000fd5b505050506040513d601f19601f82011682018060405250810190611f839190612d53565b9050611f8d612b1b565b6040516323b4367960e11b815264ffffffffff851660048201526001600160a01b0391909116906347686cf29060240160206040518083038186803b158015611fd557600080fd5b505afa158015611fe9573d6000803e3d6000fd5b505050506040513d601f19601f8201168201806040525081019061200d9190612d53565b64ffffffffff168164ffffffffff161461202d57600093505050506107ea565b600080612038612ab8565b60405163deb5717560e01b81526001600160a01b038a81166004830152919091169063deb571759060240160206040518083038186803b15801561207b57600080fd5b505afa15801561208f573d6000803e3d6000fd5b505050506040513d601f19601f820116820180604052508101906120b3919061313a565b6001600160a01b0316635346aa486040518163ffffffff1660e01b8152600401604080518083038186803b1580156120ea57600080fd5b505afa1580156120fe573d6000803e3d6000fd5b505050506040513d601f19601f820116820180604052508101906121229190613157565b915091508164ffffffffff168364ffffffffff1614612149576001955050505050506107ea565b6040516320b2406360e01b81526004810185905273__$94c94c1f27eaba30857c7d0c37f90b5581$__906320b240639060240160206040518083038186803b15801561219457600080fd5b505af41580156121a8573d6000803e3d6000fd5b505050506040513d601f19601f820116820180604052508101906121cc919061318c565b67ffffffffffffffff168167ffffffffffffffff16116121f4576001955050505050506107ea565b506000979650505050505050565b604051639857dfd560e01b815260048082015260609073__$8c1a4844a0a0988ea2454cf87145a95df1$__90639857dfd59060240160006040518083038186803b15801561224f57600080fd5b505af4158015612263573d6000803e3d6000fd5b505050506040513d6000823e601f3d908101601f191682016040526104749190810190612e58565b73__$364aad554dc80380f414546becdd2c1584$__63a8ef95ac6002684174746f726e65797360b81b6122bc6127ec565b6040516001600160e01b031960e086901b1681526004810193909352602483019190915264ffffffffff16604482015260640160206040518083038186803b15801561230757600080fd5b505af415801561231b573d6000803e3d6000fd5b505050506040513d601f19601f8201168201806040525081019061233f9190612d70565b61235b5760405162461bcd60e51b815260040161067e90612f50565b64ffffffffff828116600090815260096020908152604080832054835260089091529081902090516392f13c3f60e01b81526004810191909152908216602482015273__$8c1a4844a0a0988ea2454cf87145a95df1$__906392f13c3f906044015b60206040518083038186803b1580156123d557600080fd5b505af41580156123e9573d6000803e3d6000fd5b505050506040513d601f19601f8201168201806040525081019061240d9190612d70565b505050565b73__$364aad554dc80380f414546becdd2c1584$__63a8ef95ac6002684174746f726e65797360b81b6124436127ec565b6040516001600160e01b031960e086901b1681526004810193909352602483019190915264ffffffffff16604482015260640160206040518083038186803b15801561248e57600080fd5b505af41580156124a2573d6000803e3d6000fd5b505050506040513d601f19601f820116820180604052508101906124c69190612d70565b6124e25760405162461bcd60e51b815260040161067e90612f50565b64ffffffffff828116600090815260096020908152604080832054835260089091529081902090516392fd02df60e01b81526004810191909152908216602482015273__$8c1a4844a0a0988ea2454cf87145a95df1$__906392fd02df906044016123bd565b604051633c3e56c160e11b81526002600482015260009073__$364aad554dc80380f414546becdd2c1584$__9063787cad829060240160206040518083038186803b15801561259657600080fd5b505af41580156125aa573d6000803e3d6000fd5b505050506040513d601f19601f82011682018060405250810190610474919061313a565b604051633b11adbf60e21b81526002600482015233602482015273__$364aad554dc80380f414546becdd2c1584$__9063ec46b6fc9060440160206040518083038186803b15801561261f57600080fd5b505af4158015612633573d6000803e3d6000fd5b505050506040513d601f19601f820116820180604052508101906126579190612d70565b6126735760405162461bcd60e51b815260040161067e90612f0a565b600254600160f01b900460ff166001146126cf5760405162461bcd60e51b815260206004820181905260248201527f41432e6f6e6c7950656e64696e673a20446f632069732066696e616c697a6564604482015260640161067e565b60405163cc99e11b60e01b815260026004820152684174746f726e65797360b81b602482015273__$364aad554dc80380f414546becdd2c1584$__9063cc99e11b9060440160006040518083038186803b15801561272c57600080fd5b505af4158015612740573d6000803e3d6000fd5b5050604051632725ebef60e21b8152600260048201526000602482015273__$364aad554dc80380f414546becdd2c1584$__9250639c97afbc915060440160006040518083038186803b15801561279657600080fd5b505af41580156127aa573d6000803e3d6000fd5b50506002805460ff60f01b1916600160f11b17905550506040517f35012b512309c322acf68632cd6cb702ff0e1d776fbe9394e38ffc13b434fe7590600090a1565b60008054604051634de835e760e11b81523360048201526001600160a01b0390911690639bd06bce90602401602060405180830381600087803b15801561283257600080fd5b505af1158015610450573d6000803e3d6000fd5b60008363ffffffff168563ffffffff161161289c5760405162461bcd60e51b81526020600482015260166024820152754e454741544956452073656c6c696e6720707269636560501b604482015260640161067e565b8165ffffffffffff168365ffffffffffff16116128fb5760405162461bcd60e51b815260206004820152601760248201527f4e4547415449564520686f6c64696e6720706572696f64000000000000000000604482015260640161067e565b600061290785876131bd565b9050600061291584866131e2565b9050808661292584612710613201565b61292f919061322d565b61293d906301e13380613201565b612947919061322d565b979650505050505050565b6000546001600160a01b0316156129a35760405162461bcd60e51b815260206004820152601560248201527430b63932b0b23c9039b2ba103932b3a1b2b73a32b960591b604482015260640161067e565b6040516001600160a01b03821681527f318da6c7624c71cbc0afe346c9d8827f119d0ecefb241a7b0c87217a076a8e029060200160405180910390a1600080546001600160a01b0319166001600160a01b0392909216919091179055565b6001546001600160a01b031615612a5a5760405162461bcd60e51b815260206004820152601960248201527f616c7265616479207365742067656e6572616c4b656570657200000000000000604482015260640161067e565b6040516001600160a01b03821681527fe513d3e0f0d0a3877029dcc588748679a7a3450ec1ec7ed56d96bd012c3e61aa9060200160405180910390a1600180546001600160a01b0319166001600160a01b0392909216919091179055565b6001546000906001600160a01b031663e06eba8c825b6040516001600160e01b031960e084901b16815260ff909116600482015260240160206040518083038186803b158015612b0757600080fd5b505afa1580156125aa573d6000803e3d6000fd5b6001546000906001600160a01b031663e06eba8c6007612ace565b5080546000825590600052602060002090810190610d5191905b80821115612b645760008155600101612b50565b5090565b64ffffffffff81168114610d5157600080fd5b60008060408385031215612b8e57600080fd5b823591506020830135612ba081612b68565b809150509250929050565b600060208284031215612bbd57600080fd5b8135610bd081612b68565b6020808252825182820181905260009190848201906040850190845b81811015612c0757835164ffffffffff1683529284019291840191600101612be4565b50909695505050505050565b600060208284031215612c2557600080fd5b5035919050565b60008060408385031215612c3f57600080fd5b8235612c4a81612b68565b91506020830135612ba081612b68565b6001600160a01b0381168114610d5157600080fd5b60008060008060808587031215612c8557600080fd5b8435612c9081612c5a565b935060208501359250604085013591506060850135612cae81612b68565b939692955090935050565b600060208284031215612ccb57600080fd5b8135610bd081612c5a565b60008060008060808587031215612cec57600080fd5b8435612cf781612b68565b93506020850135612d0781612c5a565b92506040850135612d1781612c5a565b91506060850135612cae81612c5a565b60008060408385031215612d3a57600080fd5b8235612d4581612c5a565b946020939093013593505050565b600060208284031215612d6557600080fd5b8151610bd081612b68565b600060208284031215612d8257600080fd5b81518015158114610bd057600080fd5b60208082526036908201527f41432e6f776e65724f72446972656374426f6f6b65657065723a206e6569746860408201527532b91037bbb732b9103737b9103137b7b5b2b2b832b960511b606082015260800190565b634e487b7160e01b600052604160045260246000fd5b60405160c0810167ffffffffffffffff81118282101715612e2157612e21612de8565b60405290565b604051601f8201601f1916810167ffffffffffffffff81118282101715612e5057612e50612de8565b604052919050565b60006020808385031215612e6b57600080fd5b825167ffffffffffffffff80821115612e8357600080fd5b818501915085601f830112612e9757600080fd5b815181811115612ea957612ea9612de8565b8060051b9150612eba848301612e27565b8181529183018401918481019088841115612ed457600080fd5b938501935b83851015612efe5784519250612eee83612b68565b8282529385019390850190612ed9565b98975050505050505050565b60208082526026908201527f41432e6f6e6c794469726563744b65657065723a206e6f74206469726563742060408201526535b2b2b832b960d11b606082015260800190565b60208082526013908201527241432e6f743a206e6f74204174746f726e657960681b604082015260600190565b600060208284031215612f8f57600080fd5b815163ffffffff81168114610bd057600080fd5b600060208284031215612fb557600080fd5b815161ffff81168114610bd057600080fd5b805167ffffffffffffffff81168114612fdf57600080fd5b919050565b805165ffffffffffff81168114612fdf57600080fd5b805160ff81168114612fdf57600080fd5b600060c0828403121561301d57600080fd5b613025612dfe565b8251815261303560208401612fc7565b602082015261304660408401612fc7565b604082015261305760608401612fe4565b606082015261306860808401612ffa565b608082015260a083015160a08201528091505092915050565b60006020828403121561309357600080fd5b610bd082612ffa565b6000602082840312156130ae57600080fd5b610bd082612fe4565b600060c082840312156130c957600080fd5b6130d1612dfe565b6130da83612ffa565b815260208301516130ea81612b68565b60208201526130fb60408401612fe4565b604082015261310c60608401612fe4565b606082015261311d60808401612fe4565b608082015261312e60a08401612ffa565b60a08201529392505050565b60006020828403121561314c57600080fd5b8151610bd081612c5a565b6000806040838503121561316a57600080fd5b825161317581612b68565b915061318360208401612fc7565b90509250929050565b60006020828403121561319e57600080fd5b610bd082612fc7565b634e487b7160e01b600052601160045260246000fd5b600063ffffffff838116908316818110156131da576131da6131a7565b039392505050565b600065ffffffffffff838116908316818110156131da576131da6131a7565b600063ffffffff80831681851681830481118215151615613224576132246131a7565b02949350505050565b600063ffffffff8084168061325257634e487b7160e01b600052601260045260246000fd5b9216919091049291505056fea264697066735822122033149b84e0a747ab063f46afde67a4526306521a41a8b7f98966539238aac6f864736f6c63430008080033",
    "sourcePath": "/Users/kaptain/github.com/hardhat/comboox/contracts/books/boh/terms/DragAlong.sol",
    "compiler": {
        "name": "solc",
        "version": "0.8.8+commit.dddeac2f"
    },
    "functionHashes": {
        "abandonRole(bytes32)": "3da9a600",
        "addFollower(uint40,uint40)": "c189bbd6",
        "createLink(bytes32,uint40)": "3e38dca0",
        "delLink(bytes32)": "4fd3880b",
        "dragers()": "b4a952b3",
        "finalized()": "b3f05b97",
        "followers(uint40)": "34518c72",
        "getBookeeper()": "ed211023",
        "getGeneralCounsel()": "103f6edd",
        "getOwner()": "893d20e8",
        "grantRole(bytes32,uint40)": "74099815",
        "hasRole(bytes32,uint40)": "79b2ec12",
        "init(uint40,address,address,address)": "821ee8ea",
        "isDrager(uint40)": "58be6889",
        "isLinked(uint40,uint40)": "4283a0ed",
        "isTriggered(address,bytes32)": "8e5a886f",
        "linkRule(uint40)": "dd8c2de6",
        "lockContents()": "f045a769",
        "priceCheck(address,bytes32,bytes32,uint40)": "51214941",
        "removeDrager(uint40)": "790ff6af",
        "removeFollower(uint40,uint40)": "ec786d28",
        "renounceRole(bytes32)": "8bb9c5bf",
        "revokeRole(bytes32,uint40)": "17c51fec",
        "setDirectKeeper(address)": "6be8496f",
        "setGeneralCounsel(uint40)": "3178a9a9",
        "setOwner(uint40)": "7ba706e8",
        "setRoleAdmin(bytes32,uint40)": "16dc517e"
    },
    "gasEstimates": {
        "creation": {
            "codeDepositCost": "2589600",
            "executionCost": "2801",
            "totalCost": "2592401"
        },
        "external": {
            "abandonRole(bytes32)": "infinite",
            "addFollower(uint40,uint40)": "infinite",
            "createLink(bytes32,uint40)": "infinite",
            "delLink(bytes32)": "infinite",
            "dragers()": "infinite",
            "finalized()": "2372",
            "followers(uint40)": "infinite",
            "getBookeeper()": "infinite",
            "getGeneralCounsel()": "infinite",
            "getOwner()": "infinite",
            "grantRole(bytes32,uint40)": "infinite",
            "hasRole(bytes32,uint40)": "infinite",
            "init(uint40,address,address,address)": "infinite",
            "isDrager(uint40)": "infinite",
            "isLinked(uint40,uint40)": "infinite",
            "isTriggered(address,bytes32)": "infinite",
            "linkRule(uint40)": "2551",
            "lockContents()": "infinite",
            "priceCheck(address,bytes32,bytes32,uint40)": "infinite",
            "removeDrager(uint40)": "infinite",
            "removeFollower(uint40,uint40)": "infinite",
            "renounceRole(bytes32)": "infinite",
            "revokeRole(bytes32,uint40)": "infinite",
            "setDirectKeeper(address)": "infinite",
            "setGeneralCounsel(uint40)": "infinite",
            "setOwner(uint40)": "infinite",
            "setRoleAdmin(bytes32,uint40)": "infinite"
        },
        "internal": {
            "_roeOfDeal(uint32,uint32,uint48,uint48)": "infinite"
        }
    }
}