{
    "contractName": "LockUp",
    "abi": [
        {
            "anonymous": false,
            "inputs": [
                {
                    "indexed": false,
                    "internalType": "uint256",
                    "name": "owner",
                    "type": "uint256"
                },
                {
                    "indexed": false,
                    "internalType": "address",
                    "name": "directKeeper",
                    "type": "address"
                },
                {
                    "indexed": false,
                    "internalType": "address",
                    "name": "regCenter",
                    "type": "address"
                },
                {
                    "indexed": false,
                    "internalType": "address",
                    "name": "generalKeeper",
                    "type": "address"
                }
            ],
            "name": "Init",
            "type": "event"
        },
        {
            "anonymous": false,
            "inputs": [],
            "name": "LockContents",
            "type": "event"
        },
        {
            "anonymous": false,
            "inputs": [
                {
                    "indexed": false,
                    "internalType": "address",
                    "name": "keeper",
                    "type": "address"
                }
            ],
            "name": "SetDirectKeeper",
            "type": "event"
        },
        {
            "anonymous": false,
            "inputs": [
                {
                    "indexed": false,
                    "internalType": "uint256",
                    "name": "acct",
                    "type": "uint256"
                }
            ],
            "name": "SetGeneralCounsel",
            "type": "event"
        },
        {
            "anonymous": false,
            "inputs": [
                {
                    "indexed": false,
                    "internalType": "address",
                    "name": "gk",
                    "type": "address"
                }
            ],
            "name": "SetGeneralKeeper",
            "type": "event"
        },
        {
            "anonymous": false,
            "inputs": [
                {
                    "indexed": false,
                    "internalType": "uint256",
                    "name": "acct",
                    "type": "uint256"
                }
            ],
            "name": "SetOwner",
            "type": "event"
        },
        {
            "anonymous": false,
            "inputs": [
                {
                    "indexed": false,
                    "internalType": "address",
                    "name": "rc",
                    "type": "address"
                }
            ],
            "name": "SetRegCenter",
            "type": "event"
        },
        {
            "inputs": [
                {
                    "internalType": "bytes32",
                    "name": "role",
                    "type": "bytes32"
                }
            ],
            "name": "abandonRole",
            "outputs": [],
            "stateMutability": "nonpayable",
            "type": "function"
        },
        {
            "inputs": [
                {
                    "internalType": "uint256",
                    "name": "seqOfShare",
                    "type": "uint256"
                },
                {
                    "internalType": "uint256",
                    "name": "keyholder",
                    "type": "uint256"
                }
            ],
            "name": "addKeyholder",
            "outputs": [],
            "stateMutability": "nonpayable",
            "type": "function"
        },
        {
            "inputs": [
                {
                    "internalType": "uint256",
                    "name": "seqOfShare",
                    "type": "uint256"
                }
            ],
            "name": "delLocker",
            "outputs": [],
            "stateMutability": "nonpayable",
            "type": "function"
        },
        {
            "inputs": [],
            "name": "finalized",
            "outputs": [
                {
                    "internalType": "bool",
                    "name": "",
                    "type": "bool"
                }
            ],
            "stateMutability": "view",
            "type": "function"
        },
        {
            "inputs": [],
            "name": "getBookeeper",
            "outputs": [
                {
                    "internalType": "address",
                    "name": "",
                    "type": "address"
                }
            ],
            "stateMutability": "view",
            "type": "function"
        },
        {
            "inputs": [],
            "name": "getGeneralCounsel",
            "outputs": [
                {
                    "internalType": "uint40",
                    "name": "",
                    "type": "uint40"
                }
            ],
            "stateMutability": "view",
            "type": "function"
        },
        {
            "inputs": [
                {
                    "internalType": "uint256",
                    "name": "seqOfShare",
                    "type": "uint256"
                }
            ],
            "name": "getLocker",
            "outputs": [
                {
                    "internalType": "uint48",
                    "name": "dueDate",
                    "type": "uint48"
                },
                {
                    "internalType": "uint256[]",
                    "name": "keyHolders",
                    "type": "uint256[]"
                }
            ],
            "stateMutability": "view",
            "type": "function"
        },
        {
            "inputs": [],
            "name": "getOwner",
            "outputs": [
                {
                    "internalType": "uint40",
                    "name": "",
                    "type": "uint40"
                }
            ],
            "stateMutability": "view",
            "type": "function"
        },
        {
            "inputs": [
                {
                    "internalType": "bytes32",
                    "name": "role",
                    "type": "bytes32"
                },
                {
                    "internalType": "uint256",
                    "name": "acct",
                    "type": "uint256"
                }
            ],
            "name": "grantRole",
            "outputs": [],
            "stateMutability": "nonpayable",
            "type": "function"
        },
        {
            "inputs": [
                {
                    "internalType": "bytes32",
                    "name": "role",
                    "type": "bytes32"
                },
                {
                    "internalType": "uint256",
                    "name": "acct",
                    "type": "uint256"
                }
            ],
            "name": "hasRole",
            "outputs": [
                {
                    "internalType": "bool",
                    "name": "",
                    "type": "bool"
                }
            ],
            "stateMutability": "view",
            "type": "function"
        },
        {
            "inputs": [
                {
                    "internalType": "uint256",
                    "name": "owner",
                    "type": "uint256"
                },
                {
                    "internalType": "address",
                    "name": "directKeeper",
                    "type": "address"
                },
                {
                    "internalType": "address",
                    "name": "regCenter",
                    "type": "address"
                },
                {
                    "internalType": "address",
                    "name": "generalKeeper",
                    "type": "address"
                }
            ],
            "name": "init",
            "outputs": [],
            "stateMutability": "nonpayable",
            "type": "function"
        },
        {
            "inputs": [
                {
                    "internalType": "address",
                    "name": "ia",
                    "type": "address"
                },
                {
                    "components": [
                        {
                            "components": [
                                {
                                    "internalType": "uint8",
                                    "name": "typeOfDeal",
                                    "type": "uint8"
                                },
                                {
                                    "internalType": "uint16",
                                    "name": "seq",
                                    "type": "uint16"
                                },
                                {
                                    "internalType": "uint16",
                                    "name": "preSeq",
                                    "type": "uint16"
                                },
                                {
                                    "internalType": "uint16",
                                    "name": "classOfShare",
                                    "type": "uint16"
                                },
                                {
                                    "internalType": "uint32",
                                    "name": "seqOfShare",
                                    "type": "uint32"
                                },
                                {
                                    "internalType": "uint40",
                                    "name": "seller",
                                    "type": "uint40"
                                },
                                {
                                    "internalType": "uint32",
                                    "name": "priceOfPaid",
                                    "type": "uint32"
                                },
                                {
                                    "internalType": "uint32",
                                    "name": "priceOfPar",
                                    "type": "uint32"
                                },
                                {
                                    "internalType": "uint48",
                                    "name": "closingDate",
                                    "type": "uint48"
                                },
                                {
                                    "internalType": "uint8",
                                    "name": "state",
                                    "type": "uint8"
                                }
                            ],
                            "internalType": "struct IInvestmentAgreement.Head",
                            "name": "head",
                            "type": "tuple"
                        },
                        {
                            "components": [
                                {
                                    "internalType": "uint40",
                                    "name": "buyer",
                                    "type": "uint40"
                                },
                                {
                                    "internalType": "uint40",
                                    "name": "groupOfBuyer",
                                    "type": "uint40"
                                },
                                {
                                    "internalType": "uint64",
                                    "name": "paid",
                                    "type": "uint64"
                                },
                                {
                                    "internalType": "uint64",
                                    "name": "par",
                                    "type": "uint64"
                                }
                            ],
                            "internalType": "struct IInvestmentAgreement.Body",
                            "name": "body",
                            "type": "tuple"
                        },
                        {
                            "internalType": "bytes32",
                            "name": "hashLock",
                            "type": "bytes32"
                        }
                    ],
                    "internalType": "struct IInvestmentAgreement.Deal",
                    "name": "deal",
                    "type": "tuple"
                }
            ],
            "name": "isExempted",
            "outputs": [
                {
                    "internalType": "bool",
                    "name": "",
                    "type": "bool"
                }
            ],
            "stateMutability": "view",
            "type": "function"
        },
        {
            "inputs": [
                {
                    "internalType": "uint256",
                    "name": "seqOfShare",
                    "type": "uint256"
                }
            ],
            "name": "isLocked",
            "outputs": [
                {
                    "internalType": "bool",
                    "name": "",
                    "type": "bool"
                }
            ],
            "stateMutability": "view",
            "type": "function"
        },
        {
            "inputs": [
                {
                    "internalType": "address",
                    "name": "ia",
                    "type": "address"
                },
                {
                    "components": [
                        {
                            "components": [
                                {
                                    "internalType": "uint8",
                                    "name": "typeOfDeal",
                                    "type": "uint8"
                                },
                                {
                                    "internalType": "uint16",
                                    "name": "seq",
                                    "type": "uint16"
                                },
                                {
                                    "internalType": "uint16",
                                    "name": "preSeq",
                                    "type": "uint16"
                                },
                                {
                                    "internalType": "uint16",
                                    "name": "classOfShare",
                                    "type": "uint16"
                                },
                                {
                                    "internalType": "uint32",
                                    "name": "seqOfShare",
                                    "type": "uint32"
                                },
                                {
                                    "internalType": "uint40",
                                    "name": "seller",
                                    "type": "uint40"
                                },
                                {
                                    "internalType": "uint32",
                                    "name": "priceOfPaid",
                                    "type": "uint32"
                                },
                                {
                                    "internalType": "uint32",
                                    "name": "priceOfPar",
                                    "type": "uint32"
                                },
                                {
                                    "internalType": "uint48",
                                    "name": "closingDate",
                                    "type": "uint48"
                                },
                                {
                                    "internalType": "uint8",
                                    "name": "state",
                                    "type": "uint8"
                                }
                            ],
                            "internalType": "struct IInvestmentAgreement.Head",
                            "name": "head",
                            "type": "tuple"
                        },
                        {
                            "components": [
                                {
                                    "internalType": "uint40",
                                    "name": "buyer",
                                    "type": "uint40"
                                },
                                {
                                    "internalType": "uint40",
                                    "name": "groupOfBuyer",
                                    "type": "uint40"
                                },
                                {
                                    "internalType": "uint64",
                                    "name": "paid",
                                    "type": "uint64"
                                },
                                {
                                    "internalType": "uint64",
                                    "name": "par",
                                    "type": "uint64"
                                }
                            ],
                            "internalType": "struct IInvestmentAgreement.Body",
                            "name": "body",
                            "type": "tuple"
                        },
                        {
                            "internalType": "bytes32",
                            "name": "hashLock",
                            "type": "bytes32"
                        }
                    ],
                    "internalType": "struct IInvestmentAgreement.Deal",
                    "name": "deal",
                    "type": "tuple"
                }
            ],
            "name": "isTriggered",
            "outputs": [
                {
                    "internalType": "bool",
                    "name": "",
                    "type": "bool"
                }
            ],
            "stateMutability": "view",
            "type": "function"
        },
        {
            "inputs": [],
            "name": "lockContents",
            "outputs": [],
            "stateMutability": "nonpayable",
            "type": "function"
        },
        {
            "inputs": [],
            "name": "lockedShares",
            "outputs": [
                {
                    "internalType": "uint256[]",
                    "name": "",
                    "type": "uint256[]"
                }
            ],
            "stateMutability": "view",
            "type": "function"
        },
        {
            "inputs": [
                {
                    "internalType": "uint256",
                    "name": "seqOfShare",
                    "type": "uint256"
                },
                {
                    "internalType": "uint256",
                    "name": "keyholder",
                    "type": "uint256"
                }
            ],
            "name": "removeKeyholder",
            "outputs": [],
            "stateMutability": "nonpayable",
            "type": "function"
        },
        {
            "inputs": [
                {
                    "internalType": "bytes32",
                    "name": "role",
                    "type": "bytes32"
                }
            ],
            "name": "renounceRole",
            "outputs": [],
            "stateMutability": "nonpayable",
            "type": "function"
        },
        {
            "inputs": [
                {
                    "internalType": "bytes32",
                    "name": "role",
                    "type": "bytes32"
                },
                {
                    "internalType": "uint256",
                    "name": "acct",
                    "type": "uint256"
                }
            ],
            "name": "revokeRole",
            "outputs": [],
            "stateMutability": "nonpayable",
            "type": "function"
        },
        {
            "inputs": [
                {
                    "internalType": "address",
                    "name": "keeper",
                    "type": "address"
                }
            ],
            "name": "setDirectKeeper",
            "outputs": [],
            "stateMutability": "nonpayable",
            "type": "function"
        },
        {
            "inputs": [
                {
                    "internalType": "uint256",
                    "name": "acct",
                    "type": "uint256"
                }
            ],
            "name": "setGeneralCounsel",
            "outputs": [],
            "stateMutability": "nonpayable",
            "type": "function"
        },
        {
            "inputs": [
                {
                    "internalType": "uint256",
                    "name": "seqOfShare",
                    "type": "uint256"
                },
                {
                    "internalType": "uint48",
                    "name": "dueDate",
                    "type": "uint48"
                }
            ],
            "name": "setLocker",
            "outputs": [],
            "stateMutability": "nonpayable",
            "type": "function"
        },
        {
            "inputs": [
                {
                    "internalType": "uint256",
                    "name": "acct",
                    "type": "uint256"
                }
            ],
            "name": "setOwner",
            "outputs": [],
            "stateMutability": "nonpayable",
            "type": "function"
        },
        {
            "inputs": [
                {
                    "internalType": "bytes32",
                    "name": "role",
                    "type": "bytes32"
                },
                {
                    "internalType": "uint256",
                    "name": "acct",
                    "type": "uint256"
                }
            ],
            "name": "setRoleAdmin",
            "outputs": [],
            "stateMutability": "nonpayable",
            "type": "function"
        }
    ],
    "bytecode": "608060405234801561001057600080fd5b50612477806100206000396000f3fe608060405234801561001057600080fd5b50600436106101585760003560e01c80637e063c5a116100c3578063e95502fb1161007c578063e95502fb146102dd578063ed211023146102f2578063f045a76914610312578063f6aacfb11461031a578063f6e093f41461032d578063feb123d71461034057600080fd5b80637e063c5a146102755780638041494e14610288578063893d20e81461029b5780638bb9c5bf146102a3578063b3f05b97146102b6578063dc890da9146102ca57600080fd5b80633da9a600116101155780633da9a600146102035780634a14beb1146102165780635171ebd41461022957806368d89b561461023c5780636be8496f1461024f578063724589e01461026257600080fd5b806306de3d2c1461015d5780630b1bd24314610172578063103f6edd1461019c57806319d61ad9146101ba5780631b6ea9f9146101cd5780633a8a879f146101e0575b600080fd5b61017061016b366004611d6f565b610353565b005b610185610180366004611d91565b61051c565b604051610193929190611de5565b60405180910390f35b6101a46105d5565b60405164ffffffffff9091168152602001610193565b6101706101c8366004611d6f565b610661565b6101706101db366004611d6f565b6106f5565b6101f36101ee366004611f9e565b61071a565b6040519015158152602001610193565b610170610211366004611d91565b610794565b610170610224366004611d91565b6108a6565b610170610237366004611d6f565b610a96565b6101f361024a366004611f9e565b610abb565b61017061025d3660046120c7565b610c8a565b610170610270366004611d6f565b610d3c565b6101f3610283366004611d6f565b610eb7565b610170610296366004611d91565b610f52565b6101a4611137565b6101706102b1366004611d91565b611172565b60028054600160f01b900460ff16146101f3565b6101706102d83660046120e4565b6111cb565b6102e56112ae565b6040516101939190612137565b6102fa611357565b6040516001600160a01b039091168152602001610193565b6101706113dd565b6101f3610328366004611d91565b6115fb565b61017061033b366004611d91565b6116a5565b61017061034e36600461214a565b61185a565b73__$364aad554dc80380f414546becdd2c1584$__63a8ef95ac6002684174746f726e65797360b81b6103846119c2565b6040516001600160e01b031960e086901b1681526004810193909352602483019190915264ffffffffff16604482015260640160206040518083038186803b1580156103cf57600080fd5b505af41580156103e3573d6000803e3d6000fd5b505050506040513d601f19601f820116820180604052508101906104079190612176565b61042c5760405162461bcd60e51b815260040161042390612198565b60405180910390fd5b816104795760405162461bcd60e51b815260206004820181905260248201527f4c552e6164644b6579686f6c6465723a207a65726f207365714f6653686172656044820152606401610423565b60008281526004602081905260409182902091516392f13c3f60e01b81526001909201908201526024810182905273__$8c1a4844a0a0988ea2454cf87145a95df1$__906392f13c3f906044015b60206040518083038186803b1580156104df57600080fd5b505af41580156104f3573d6000803e3d6000fd5b505050506040513d601f19601f820116820180604052508101906105179190612176565b505050565b6000818152600460208190526040918290208054925163034306e160e21b815265ffffffffffff9093169260609273__$8c1a4844a0a0988ea2454cf87145a95df1$__92630d0c1b849261057a926001909201910190815260200190565b60006040518083038186803b15801561059257600080fd5b505af41580156105a6573d6000803e3d6000fd5b505050506040513d6000823e601f3d908101601f191682016040526105ce9190810190612255565b9050915091565b60405163e8c0cc1d60e01b81526002600482015260009073__$364aad554dc80380f414546becdd2c1584$__9063e8c0cc1d906024015b60206040518083038186803b15801561062457600080fd5b505af4158015610638573d6000803e3d6000fd5b505050506040513d601f19601f8201168201806040525081019061065c919061228a565b905090565b73__$364aad554dc80380f414546becdd2c1584$__6382daafaa6002846106866119c2565b6040516001600160e01b031960e086901b1681526004810193909352602483019190915264ffffffffff166044820152606481018490526084015b60006040518083038186803b1580156106d957600080fd5b505af41580156106ed573d6000803e3d6000fd5b505050505050565b73__$364aad554dc80380f414546becdd2c1584$__636320d75e6002846106866119c2565b805151600090600160ff90911611801561074457508151608001516107449063ffffffff166115fb565b801561077d5750815161010081015160809091015163ffffffff1660009081526004602052604090205465ffffffffffff918216911610155b1561078a5750600161078e565b5060005b92915050565b604051633b11adbf60e21b81526002600482015233602482015273__$364aad554dc80380f414546becdd2c1584$__9063ec46b6fc9060440160206040518083038186803b1580156107e557600080fd5b505af41580156107f9573d6000803e3d6000fd5b505050506040513d601f19601f8201168201806040525081019061081d9190612176565b6108395760405162461bcd60e51b8152600401610423906122a7565b60405163cc99e11b60e01b8152600260048201526024810182905273__$364aad554dc80380f414546becdd2c1584$__9063cc99e11b9060440160006040518083038186803b15801561088b57600080fd5b505af415801561089f573d6000803e3d6000fd5b5050505050565b604051633b11adbf60e21b81526002600482015233602482015273__$364aad554dc80380f414546becdd2c1584$__9063ec46b6fc9060440160206040518083038186803b1580156108f757600080fd5b505af415801561090b573d6000803e3d6000fd5b505050506040513d601f19601f8201168201806040525081019061092f9190612176565b806109d4575073__$364aad554dc80380f414546becdd2c1584$__63fe27108660026109596119c2565b6040516001600160e01b031960e085901b168152600481019290925264ffffffffff16602482015260440160206040518083038186803b15801561099c57600080fd5b505af41580156109b0573d6000803e3d6000fd5b505050506040513d601f19601f820116820180604052508101906109d49190612176565b6109f05760405162461bcd60e51b8152600401610423906122ed565b604051632725ebef60e21b8152600260048201526024810182905273__$364aad554dc80380f414546becdd2c1584$__90639c97afbc9060440160006040518083038186803b158015610a4257600080fd5b505af4158015610a56573d6000803e3d6000fd5b505050507ff2735f34b69be1e6342dea95f9162f84d0db925fab655ca9f1f312ac8cbfc99d81604051610a8b91815260200190565b60405180910390a150565b73__$364aad554dc80380f414546becdd2c1584$__63ee98b3136002846106866119c2565b60006001600160a01b03831681610ad0611a1c565b604051638d5b658560e01b815260048101849052600160248201526001600160a01b039190911690638d5b65859060440160006040518083038186803b158015610b1957600080fd5b505afa158015610b2d573d6000803e3d6000fd5b505050506040513d6000823e601f3d908101601f19168201604052610b559190810190612343565b6040015190506000856001600160a01b031663a8311aa86040518163ffffffff1660e01b815260040160006040518083038186803b158015610b9657600080fd5b505afa158015610baa573d6000803e3d6000fd5b505050506040513d6000823e601f3d908101601f19168201604052610bd29190810190612255565b604051630445cdfb60e11b815290915060009073__$ccb256085f563a601d001f7c9087d87207$__9063088b9bf690610c1190869086906004016123d6565b60006040518083038186803b158015610c2957600080fd5b505af4158015610c3d573d6000803e3d6000fd5b505050506040513d6000823e601f3d908101601f19168201604052610c659190810190612255565b9050610c7f86600001516080015163ffffffff1682611a75565b979650505050505050565b604051630f07232560e01b8152600260048201523360248201526001600160a01b038216604482015273__$364aad554dc80380f414546becdd2c1584$__90630f0723259060640160006040518083038186803b158015610cea57600080fd5b505af4158015610cfe573d6000803e3d6000fd5b50506040516001600160a01b03841681527fe435cbeab64e4eae6497b9d8289704bd709d624a80704ef3ca9af777534bc6ec92506020019050610a8b565b73__$364aad554dc80380f414546becdd2c1584$__63a8ef95ac6002684174746f726e65797360b81b610d6d6119c2565b6040516001600160e01b031960e086901b1681526004810193909352602483019190915264ffffffffff16604482015260640160206040518083038186803b158015610db857600080fd5b505af4158015610dcc573d6000803e3d6000fd5b505050506040513d601f19601f82011682018060405250810190610df09190612176565b610e0c5760405162461bcd60e51b815260040161042390612198565b81610e655760405162461bcd60e51b815260206004820152602360248201527f4c552e72656d6f76654b6579686f6c6465723a207a65726f207365714f66536860448201526261726560e81b6064820152608401610423565b60008281526004602081905260409182902091516392fd02df60e01b81526001909201908201526024810182905273__$8c1a4844a0a0988ea2454cf87145a95df1$__906392fd02df906044016104c7565b604051632a3be56b60e21b815260026004820152602481018390526044810182905260009073__$364aad554dc80380f414546becdd2c1584$__9063a8ef95ac9060640160206040518083038186803b158015610f1357600080fd5b505af4158015610f27573d6000803e3d6000fd5b505050506040513d601f19601f82011682018060405250810190610f4b9190612176565b9392505050565b604051633b11adbf60e21b81526002600482015233602482015273__$364aad554dc80380f414546becdd2c1584$__9063ec46b6fc9060440160206040518083038186803b158015610fa357600080fd5b505af4158015610fb7573d6000803e3d6000fd5b505050506040513d601f19601f82011682018060405250810190610fdb9190612176565b80611080575073__$364aad554dc80380f414546becdd2c1584$__63fe27108660026110056119c2565b6040516001600160e01b031960e085901b168152600481019290925264ffffffffff16602482015260440160206040518083038186803b15801561104857600080fd5b505af415801561105c573d6000803e3d6000fd5b505050506040513d601f19601f820116820180604052508101906110809190612176565b61109c5760405162461bcd60e51b8152600401610423906122ed565b60405163b6e38a2960e01b8152600260048201526024810182905273__$364aad554dc80380f414546becdd2c1584$__9063b6e38a299060440160006040518083038186803b1580156110ee57600080fd5b505af4158015611102573d6000803e3d6000fd5b505050507f8b6f40f36b4ae8cc5f55e895036457c43da4ab1f80f58c46f5ff0d72a650033b81604051610a8b91815260200190565b60405163987ad15360e01b81526002600482015260009073__$364aad554dc80380f414546becdd2c1584$__9063987ad1539060240161060c565b600061117c6119c2565b60405163cc0d511b60e01b8152600260048201526024810184905264ffffffffff8216604482015290915073__$364aad554dc80380f414546becdd2c1584$__9063cc0d511b906064016106c1565b6111d482611bd7565b6111dd81611c86565b604051636cdd0edf60e11b815260026004820152602481018590526001600160a01b038416604482015273__$364aad554dc80380f414546becdd2c1584$__9063d9ba1dbe9060640160006040518083038186803b15801561123e57600080fd5b505af4158015611252573d6000803e3d6000fd5b5050604080518781526001600160a01b038781166020830152868116828401528516606082015290517f3abb2418c66fe32ba9c883030a75ce583971d9af9192b9b74e44e67c5e6c8c1f9350908190036080019150a150505050565b600080526004602081905260405163034306e160e21b815260609173__$8c1a4844a0a0988ea2454cf87145a95df1$__91630d0c1b849161130391600080516020612422833981519152910190815260200190565b60006040518083038186803b15801561131b57600080fd5b505af415801561132f573d6000803e3d6000fd5b505050506040513d6000823e601f3d908101601f1916820160405261065c9190810190612255565b604051633c3e56c160e11b81526002600482015260009073__$364aad554dc80380f414546becdd2c1584$__9063787cad829060240160206040518083038186803b1580156113a557600080fd5b505af41580156113b9573d6000803e3d6000fd5b505050506040513d601f19601f8201168201806040525081019061065c9190612404565b604051633b11adbf60e21b81526002600482015233602482015273__$364aad554dc80380f414546becdd2c1584$__9063ec46b6fc9060440160206040518083038186803b15801561142e57600080fd5b505af4158015611442573d6000803e3d6000fd5b505050506040513d601f19601f820116820180604052508101906114669190612176565b6114825760405162461bcd60e51b8152600401610423906122a7565b600254600160f01b900460ff166001146114de5760405162461bcd60e51b815260206004820181905260248201527f41432e6f6e6c7950656e64696e673a20446f632069732066696e616c697a65646044820152606401610423565b60405163cc99e11b60e01b815260026004820152684174746f726e65797360b81b602482015273__$364aad554dc80380f414546becdd2c1584$__9063cc99e11b9060440160006040518083038186803b15801561153b57600080fd5b505af415801561154f573d6000803e3d6000fd5b5050604051632725ebef60e21b8152600260048201526000602482015273__$364aad554dc80380f414546becdd2c1584$__9250639c97afbc915060440160006040518083038186803b1580156115a557600080fd5b505af41580156115b9573d6000803e3d6000fd5b50506002805460ff60f01b1916600160f11b17905550506040517f35012b512309c322acf68632cd6cb702ff0e1d776fbe9394e38ffc13b434fe7590600090a1565b600080805260046020819052604051633f5f77cd60e01b815273__$8c1a4844a0a0988ea2454cf87145a95df1$__91633f5f77cd916116559160008051602061242283398151915291879101918252602082015260400190565b60206040518083038186803b15801561166d57600080fd5b505af4158015611681573d6000803e3d6000fd5b505050506040513d601f19601f8201168201806040525081019061078e9190612176565b73__$364aad554dc80380f414546becdd2c1584$__63a8ef95ac6002684174746f726e65797360b81b6116d66119c2565b6040516001600160e01b031960e086901b1681526004810193909352602483019190915264ffffffffff16604482015260640160206040518083038186803b15801561172157600080fd5b505af4158015611735573d6000803e3d6000fd5b505050506040513d601f19601f820116820180604052508101906117599190612176565b6117755760405162461bcd60e51b815260040161042390612198565b60008052600460208190526040516392fd02df60e01b815273__$8c1a4844a0a0988ea2454cf87145a95df1$__916392fd02df916117ce9160008051602061242283398151915291869101918252602082015260400190565b60206040518083038186803b1580156117e657600080fd5b505af41580156117fa573d6000803e3d6000fd5b505050506040513d601f19601f8201168201806040525081019061181e9190612176565b15611857576000818152600460205260408120805465ffffffffffff1916815590600182018181816118508282611d3d565b5050505050505b50565b73__$364aad554dc80380f414546becdd2c1584$__63a8ef95ac6002684174746f726e65797360b81b61188b6119c2565b6040516001600160e01b031960e086901b1681526004810193909352602483019190915264ffffffffff16604482015260640160206040518083038186803b1580156118d657600080fd5b505af41580156118ea573d6000803e3d6000fd5b505050506040513d601f19601f8201168201806040525081019061190e9190612176565b61192a5760405162461bcd60e51b815260040161042390612198565b65ffffffffffff81161561193e5780611944565b63ff4551005b6000838152600460208190526040808320805465ffffffffffff191665ffffffffffff959095169490941790935590805290516392f13c3f60e01b8152600080516020612422833981519152918101919091526024810183905273__$8c1a4844a0a0988ea2454cf87145a95df1$__906392f13c3f906044016104c7565b60008054604051634de835e760e11b81523360048201526001600160a01b0390911690639bd06bce90602401602060405180830381600087803b158015611a0857600080fd5b505af1158015610638573d6000803e3d6000fd5b60015460405163e0ff5b8b60e01b8152600260048201526000916001600160a01b03169063e0ff5b8b9060240160206040518083038186803b158015611a6157600080fd5b505afa1580156113b9573d6000803e3d6000fd5b6000611a80836115fb565b611a8c5750600161078e565b6000838152600460208190526040808320905163034306e160e21b81526001820192810192909252919073__$8c1a4844a0a0988ea2454cf87145a95df1$__90630d0c1b849060240160006040518083038186803b158015611aed57600080fd5b505af4158015611b01573d6000803e3d6000fd5b505050506040513d6000823e601f3d908101601f19168201604052611b299190810190612255565b8051855191925090811115611b44576000935050505061078e565b604051638410a30d60e01b815273__$ccb256085f563a601d001f7c9087d87207$__90638410a30d90611b7d90859089906004016123d6565b60206040518083038186803b158015611b9557600080fd5b505af4158015611ba9573d6000803e3d6000fd5b505050506040513d601f19601f82011682018060405250810190611bcd9190612176565b935050505061078e565b6000546001600160a01b031615611c285760405162461bcd60e51b815260206004820152601560248201527430b63932b0b23c9039b2ba103932b3a1b2b73a32b960591b6044820152606401610423565b6040516001600160a01b03821681527f318da6c7624c71cbc0afe346c9d8827f119d0ecefb241a7b0c87217a076a8e029060200160405180910390a1600080546001600160a01b0319166001600160a01b0392909216919091179055565b6001546001600160a01b031615611cdf5760405162461bcd60e51b815260206004820152601960248201527f616c7265616479207365742067656e6572616c4b6565706572000000000000006044820152606401610423565b6040516001600160a01b03821681527fe513d3e0f0d0a3877029dcc588748679a7a3450ec1ec7ed56d96bd012c3e61aa9060200160405180910390a1600180546001600160a01b0319166001600160a01b0392909216919091179055565b508054600082559060005260206000209081019061185791905b80821115611d6b5760008155600101611d57565b5090565b60008060408385031215611d8257600080fd5b50508035926020909101359150565b600060208284031215611da357600080fd5b5035919050565b600081518084526020808501945080840160005b83811015611dda57815187529582019590820190600101611dbe565b509495945050505050565b65ffffffffffff83168152604060208201526000611e066040830184611daa565b949350505050565b6001600160a01b038116811461185757600080fd5b634e487b7160e01b600052604160045260246000fd5b6040516060810167ffffffffffffffff81118282101715611e5c57611e5c611e23565b60405290565b604051610140810167ffffffffffffffff81118282101715611e5c57611e5c611e23565b803560ff81168114611e9757600080fd5b919050565b803561ffff81168114611e9757600080fd5b63ffffffff8116811461185757600080fd5b8035611e9781611eae565b64ffffffffff8116811461185757600080fd5b8035611e9781611ecb565b803565ffffffffffff81168114611e9757600080fd5b67ffffffffffffffff8116811461185757600080fd5b600060808284031215611f2757600080fd5b6040516080810181811067ffffffffffffffff82111715611f4a57611f4a611e23565b6040529050808235611f5b81611ecb565b81526020830135611f6b81611ecb565b60208201526040830135611f7e81611eff565b60408201526060830135611f9181611eff565b6060919091015292915050565b600080828403610200811215611fb357600080fd5b8335611fbe81611e0e565b9250601f19016101e080821215611fd457600080fd5b611fdc611e39565b61014080841215611fec57600080fd5b611ff4611e62565b935061200260208801611e86565b845261201060408801611e9c565b602085015261202160608801611e9c565b604085015261203260808801611e9c565b606085015261204360a08801611ec0565b608085015261205460c08801611ede565b60a085015261206560e08801611ec0565b60c0850152610100612078818901611ec0565b60e086015261012061208b818a01611ee9565b8287015261209a838a01611e86565b9086015250508281526120b1876101608801611f15565b6020820152940135604085015250909391925050565b6000602082840312156120d957600080fd5b8135610f4b81611e0e565b600080600080608085870312156120fa57600080fd5b84359350602085013561210c81611e0e565b9250604085013561211c81611e0e565b9150606085013561212c81611e0e565b939692955090935050565b602081526000610f4b6020830184611daa565b6000806040838503121561215d57600080fd5b8235915061216d60208401611ee9565b90509250929050565b60006020828403121561218857600080fd5b81518015158114610f4b57600080fd5b60208082526013908201527241432e6f743a206e6f74204174746f726e657960681b604082015260600190565b600082601f8301126121d657600080fd5b8151602067ffffffffffffffff808311156121f3576121f3611e23565b8260051b604051601f19603f8301168101818110848211171561221857612218611e23565b60405293845285810183019383810192508785111561223657600080fd5b83870191505b84821015610c7f5781518352918301919083019061223c565b60006020828403121561226757600080fd5b815167ffffffffffffffff81111561227e57600080fd5b611e06848285016121c5565b60006020828403121561229c57600080fd5b8151610f4b81611ecb565b60208082526026908201527f41432e6f6e6c794469726563744b65657065723a206e6f74206469726563742060408201526535b2b2b832b960d11b606082015260800190565b60208082526036908201527f41432e6f776e65724f72446972656374426f6f6b65657065723a206e6569746860408201527532b91037bbb732b9103737b9103137b7b5b2b2b832b960511b606082015260800190565b60006020828403121561235557600080fd5b815167ffffffffffffffff8082111561236d57600080fd5b908301906060828603121561238157600080fd5b612389611e39565b825161239481611eae565b815260208301516123a481611eff565b60208201526040830151828111156123bb57600080fd5b6123c7878286016121c5565b60408301525095945050505050565b6040815260006123e96040830185611daa565b82810360208401526123fb8185611daa565b95945050505050565b60006020828403121561241657600080fd5b8151610f4b81611e0e56fe17ef568e3e12ab5b9c7254a8d58478811de00f9e6eb34345acd53bf8fd09d3eda26469706673582212209a5b2f034a0e5aea24792885479759c87db6ff0efcdcaac805373095cd2db1ec64736f6c63430008080033",
    "sourcePath": "/Users/kaptain/github.com/hardhat/comboox/contracts/books/boh/terms/LockUp.sol",
    "compiler": {
        "name": "solc",
        "version": "0.8.8+commit.dddeac2f"
    },
    "functionHashes": {
        "abandonRole(bytes32)": "3da9a600",
        "addKeyholder(uint256,uint256)": "06de3d2c",
        "delLocker(uint256)": "f6e093f4",
        "finalized()": "b3f05b97",
        "getBookeeper()": "ed211023",
        "getGeneralCounsel()": "103f6edd",
        "getLocker(uint256)": "0b1bd243",
        "getOwner()": "893d20e8",
        "grantRole(bytes32,uint256)": "1b6ea9f9",
        "hasRole(bytes32,uint256)": "7e063c5a",
        "init(uint256,address,address,address)": "dc890da9",
        "isExempted(address,((uint8,uint16,uint16,uint16,uint32,uint40,uint32,uint32,uint48,uint8),(uint40,uint40,uint64,uint64),bytes32))": "68d89b56",
        "isLocked(uint256)": "f6aacfb1",
        "isTriggered(address,((uint8,uint16,uint16,uint16,uint32,uint40,uint32,uint32,uint48,uint8),(uint40,uint40,uint64,uint64),bytes32))": "3a8a879f",
        "lockContents()": "f045a769",
        "lockedShares()": "e95502fb",
        "removeKeyholder(uint256,uint256)": "724589e0",
        "renounceRole(bytes32)": "8bb9c5bf",
        "revokeRole(bytes32,uint256)": "19d61ad9",
        "setDirectKeeper(address)": "6be8496f",
        "setGeneralCounsel(uint256)": "4a14beb1",
        "setLocker(uint256,uint48)": "feb123d7",
        "setOwner(uint256)": "8041494e",
        "setRoleAdmin(bytes32,uint256)": "5171ebd4"
    },
    "gasEstimates": {
        "creation": {
            "codeDepositCost": "1867000",
            "executionCost": "1969",
            "totalCost": "1868969"
        },
        "external": {
            "abandonRole(bytes32)": "infinite",
            "addKeyholder(uint256,uint256)": "infinite",
            "delLocker(uint256)": "infinite",
            "finalized()": "2438",
            "getBookeeper()": "infinite",
            "getGeneralCounsel()": "infinite",
            "getLocker(uint256)": "infinite",
            "getOwner()": "infinite",
            "grantRole(bytes32,uint256)": "infinite",
            "hasRole(bytes32,uint256)": "infinite",
            "init(uint256,address,address,address)": "infinite",
            "isExempted(address,((uint8,uint16,uint16,uint16,uint32,uint40,uint32,uint32,uint48,uint8),(uint40,uint40,uint64,uint64),bytes32))": "infinite",
            "isLocked(uint256)": "infinite",
            "isTriggered(address,((uint8,uint16,uint16,uint16,uint32,uint40,uint32,uint32,uint48,uint8),(uint40,uint40,uint64,uint64),bytes32))": "infinite",
            "lockContents()": "infinite",
            "lockedShares()": "infinite",
            "removeKeyholder(uint256,uint256)": "infinite",
            "renounceRole(bytes32)": "infinite",
            "revokeRole(bytes32,uint256)": "infinite",
            "setDirectKeeper(address)": "infinite",
            "setGeneralCounsel(uint256)": "infinite",
            "setLocker(uint256,uint48)": "infinite",
            "setOwner(uint256)": "infinite",
            "setRoleAdmin(bytes32,uint256)": "infinite"
        },
        "internal": {
            "_isExempted(uint256,uint256[] memory)": "infinite"
        }
    }
}