{
    "contractName": "LockUp",
    "abi": [
        {
            "anonymous": false,
            "inputs": [
                {
                    "indexed": false,
                    "internalType": "uint256",
                    "name": "owner",
                    "type": "uint256"
                },
                {
                    "indexed": false,
                    "internalType": "address",
                    "name": "directKeeper",
                    "type": "address"
                },
                {
                    "indexed": false,
                    "internalType": "address",
                    "name": "regCenter",
                    "type": "address"
                },
                {
                    "indexed": false,
                    "internalType": "address",
                    "name": "generalKeeper",
                    "type": "address"
                }
            ],
            "name": "Init",
            "type": "event"
        },
        {
            "anonymous": false,
            "inputs": [],
            "name": "LockContents",
            "type": "event"
        },
        {
            "anonymous": false,
            "inputs": [
                {
                    "indexed": false,
                    "internalType": "address",
                    "name": "keeper",
                    "type": "address"
                }
            ],
            "name": "SetDirectKeeper",
            "type": "event"
        },
        {
            "anonymous": false,
            "inputs": [
                {
                    "indexed": false,
                    "internalType": "uint256",
                    "name": "acct",
                    "type": "uint256"
                }
            ],
            "name": "SetGeneralCounsel",
            "type": "event"
        },
        {
            "anonymous": false,
            "inputs": [
                {
                    "indexed": false,
                    "internalType": "uint256",
                    "name": "acct",
                    "type": "uint256"
                }
            ],
            "name": "SetOwner",
            "type": "event"
        },
        {
            "inputs": [
                {
                    "internalType": "bytes32",
                    "name": "role",
                    "type": "bytes32"
                }
            ],
            "name": "abandonRole",
            "outputs": [],
            "stateMutability": "nonpayable",
            "type": "function"
        },
        {
            "inputs": [
                {
                    "internalType": "uint256",
                    "name": "seqOfShare",
                    "type": "uint256"
                },
                {
                    "internalType": "uint256",
                    "name": "keyholder",
                    "type": "uint256"
                }
            ],
            "name": "addKeyholder",
            "outputs": [],
            "stateMutability": "nonpayable",
            "type": "function"
        },
        {
            "inputs": [
                {
                    "internalType": "uint256",
                    "name": "seqOfShare",
                    "type": "uint256"
                }
            ],
            "name": "delLocker",
            "outputs": [],
            "stateMutability": "nonpayable",
            "type": "function"
        },
        {
            "inputs": [],
            "name": "finalized",
            "outputs": [
                {
                    "internalType": "bool",
                    "name": "",
                    "type": "bool"
                }
            ],
            "stateMutability": "view",
            "type": "function"
        },
        {
            "inputs": [],
            "name": "getBookeeper",
            "outputs": [
                {
                    "internalType": "address",
                    "name": "",
                    "type": "address"
                }
            ],
            "stateMutability": "view",
            "type": "function"
        },
        {
            "inputs": [],
            "name": "getGeneralCounsel",
            "outputs": [
                {
                    "internalType": "uint40",
                    "name": "",
                    "type": "uint40"
                }
            ],
            "stateMutability": "view",
            "type": "function"
        },
        {
            "inputs": [
                {
                    "internalType": "uint256",
                    "name": "seqOfShare",
                    "type": "uint256"
                }
            ],
            "name": "getLocker",
            "outputs": [
                {
                    "internalType": "uint48",
                    "name": "dueDate",
                    "type": "uint48"
                },
                {
                    "internalType": "uint256[]",
                    "name": "keyHolders",
                    "type": "uint256[]"
                }
            ],
            "stateMutability": "view",
            "type": "function"
        },
        {
            "inputs": [],
            "name": "getOwner",
            "outputs": [
                {
                    "internalType": "uint40",
                    "name": "",
                    "type": "uint40"
                }
            ],
            "stateMutability": "view",
            "type": "function"
        },
        {
            "inputs": [
                {
                    "internalType": "bytes32",
                    "name": "role",
                    "type": "bytes32"
                },
                {
                    "internalType": "uint256",
                    "name": "acct",
                    "type": "uint256"
                }
            ],
            "name": "grantRole",
            "outputs": [],
            "stateMutability": "nonpayable",
            "type": "function"
        },
        {
            "inputs": [
                {
                    "internalType": "bytes32",
                    "name": "role",
                    "type": "bytes32"
                },
                {
                    "internalType": "uint256",
                    "name": "acct",
                    "type": "uint256"
                }
            ],
            "name": "hasRole",
            "outputs": [
                {
                    "internalType": "bool",
                    "name": "",
                    "type": "bool"
                }
            ],
            "stateMutability": "view",
            "type": "function"
        },
        {
            "inputs": [
                {
                    "internalType": "uint256",
                    "name": "owner",
                    "type": "uint256"
                },
                {
                    "internalType": "address",
                    "name": "directKeeper",
                    "type": "address"
                },
                {
                    "internalType": "address",
                    "name": "regCenter",
                    "type": "address"
                },
                {
                    "internalType": "address",
                    "name": "generalKeeper",
                    "type": "address"
                }
            ],
            "name": "init",
            "outputs": [],
            "stateMutability": "nonpayable",
            "type": "function"
        },
        {
            "inputs": [
                {
                    "internalType": "address",
                    "name": "ia",
                    "type": "address"
                },
                {
                    "components": [
                        {
                            "components": [
                                {
                                    "internalType": "uint8",
                                    "name": "typeOfDeal",
                                    "type": "uint8"
                                },
                                {
                                    "internalType": "uint16",
                                    "name": "seqOfDeal",
                                    "type": "uint16"
                                },
                                {
                                    "internalType": "uint16",
                                    "name": "preSeq",
                                    "type": "uint16"
                                },
                                {
                                    "internalType": "uint16",
                                    "name": "classOfShare",
                                    "type": "uint16"
                                },
                                {
                                    "internalType": "uint32",
                                    "name": "seqOfShare",
                                    "type": "uint32"
                                },
                                {
                                    "internalType": "uint40",
                                    "name": "seller",
                                    "type": "uint40"
                                },
                                {
                                    "internalType": "uint32",
                                    "name": "priceOfPaid",
                                    "type": "uint32"
                                },
                                {
                                    "internalType": "uint32",
                                    "name": "priceOfPar",
                                    "type": "uint32"
                                },
                                {
                                    "internalType": "uint48",
                                    "name": "closingDate",
                                    "type": "uint48"
                                }
                            ],
                            "internalType": "struct DealsRepo.Head",
                            "name": "head",
                            "type": "tuple"
                        },
                        {
                            "components": [
                                {
                                    "internalType": "uint40",
                                    "name": "buyer",
                                    "type": "uint40"
                                },
                                {
                                    "internalType": "uint40",
                                    "name": "groupOfBuyer",
                                    "type": "uint40"
                                },
                                {
                                    "internalType": "uint64",
                                    "name": "paid",
                                    "type": "uint64"
                                },
                                {
                                    "internalType": "uint64",
                                    "name": "par",
                                    "type": "uint64"
                                },
                                {
                                    "internalType": "uint8",
                                    "name": "state",
                                    "type": "uint8"
                                }
                            ],
                            "internalType": "struct DealsRepo.Body",
                            "name": "body",
                            "type": "tuple"
                        },
                        {
                            "internalType": "bytes32",
                            "name": "hashLock",
                            "type": "bytes32"
                        }
                    ],
                    "internalType": "struct DealsRepo.Deal",
                    "name": "deal",
                    "type": "tuple"
                }
            ],
            "name": "isExempted",
            "outputs": [
                {
                    "internalType": "bool",
                    "name": "",
                    "type": "bool"
                }
            ],
            "stateMutability": "view",
            "type": "function"
        },
        {
            "inputs": [
                {
                    "internalType": "uint256",
                    "name": "seqOfShare",
                    "type": "uint256"
                }
            ],
            "name": "isLocked",
            "outputs": [
                {
                    "internalType": "bool",
                    "name": "",
                    "type": "bool"
                }
            ],
            "stateMutability": "view",
            "type": "function"
        },
        {
            "inputs": [
                {
                    "internalType": "address",
                    "name": "ia",
                    "type": "address"
                },
                {
                    "components": [
                        {
                            "components": [
                                {
                                    "internalType": "uint8",
                                    "name": "typeOfDeal",
                                    "type": "uint8"
                                },
                                {
                                    "internalType": "uint16",
                                    "name": "seqOfDeal",
                                    "type": "uint16"
                                },
                                {
                                    "internalType": "uint16",
                                    "name": "preSeq",
                                    "type": "uint16"
                                },
                                {
                                    "internalType": "uint16",
                                    "name": "classOfShare",
                                    "type": "uint16"
                                },
                                {
                                    "internalType": "uint32",
                                    "name": "seqOfShare",
                                    "type": "uint32"
                                },
                                {
                                    "internalType": "uint40",
                                    "name": "seller",
                                    "type": "uint40"
                                },
                                {
                                    "internalType": "uint32",
                                    "name": "priceOfPaid",
                                    "type": "uint32"
                                },
                                {
                                    "internalType": "uint32",
                                    "name": "priceOfPar",
                                    "type": "uint32"
                                },
                                {
                                    "internalType": "uint48",
                                    "name": "closingDate",
                                    "type": "uint48"
                                }
                            ],
                            "internalType": "struct DealsRepo.Head",
                            "name": "head",
                            "type": "tuple"
                        },
                        {
                            "components": [
                                {
                                    "internalType": "uint40",
                                    "name": "buyer",
                                    "type": "uint40"
                                },
                                {
                                    "internalType": "uint40",
                                    "name": "groupOfBuyer",
                                    "type": "uint40"
                                },
                                {
                                    "internalType": "uint64",
                                    "name": "paid",
                                    "type": "uint64"
                                },
                                {
                                    "internalType": "uint64",
                                    "name": "par",
                                    "type": "uint64"
                                },
                                {
                                    "internalType": "uint8",
                                    "name": "state",
                                    "type": "uint8"
                                }
                            ],
                            "internalType": "struct DealsRepo.Body",
                            "name": "body",
                            "type": "tuple"
                        },
                        {
                            "internalType": "bytes32",
                            "name": "hashLock",
                            "type": "bytes32"
                        }
                    ],
                    "internalType": "struct DealsRepo.Deal",
                    "name": "deal",
                    "type": "tuple"
                }
            ],
            "name": "isTriggered",
            "outputs": [
                {
                    "internalType": "bool",
                    "name": "",
                    "type": "bool"
                }
            ],
            "stateMutability": "view",
            "type": "function"
        },
        {
            "inputs": [],
            "name": "lockContents",
            "outputs": [],
            "stateMutability": "nonpayable",
            "type": "function"
        },
        {
            "inputs": [],
            "name": "lockedShares",
            "outputs": [
                {
                    "internalType": "uint256[]",
                    "name": "",
                    "type": "uint256[]"
                }
            ],
            "stateMutability": "view",
            "type": "function"
        },
        {
            "inputs": [
                {
                    "internalType": "uint256",
                    "name": "seqOfShare",
                    "type": "uint256"
                },
                {
                    "internalType": "uint256",
                    "name": "keyholder",
                    "type": "uint256"
                }
            ],
            "name": "removeKeyholder",
            "outputs": [],
            "stateMutability": "nonpayable",
            "type": "function"
        },
        {
            "inputs": [
                {
                    "internalType": "bytes32",
                    "name": "role",
                    "type": "bytes32"
                }
            ],
            "name": "renounceRole",
            "outputs": [],
            "stateMutability": "nonpayable",
            "type": "function"
        },
        {
            "inputs": [
                {
                    "internalType": "bytes32",
                    "name": "role",
                    "type": "bytes32"
                },
                {
                    "internalType": "uint256",
                    "name": "acct",
                    "type": "uint256"
                }
            ],
            "name": "revokeRole",
            "outputs": [],
            "stateMutability": "nonpayable",
            "type": "function"
        },
        {
            "inputs": [
                {
                    "internalType": "address",
                    "name": "keeper",
                    "type": "address"
                }
            ],
            "name": "setDirectKeeper",
            "outputs": [],
            "stateMutability": "nonpayable",
            "type": "function"
        },
        {
            "inputs": [
                {
                    "internalType": "uint256",
                    "name": "acct",
                    "type": "uint256"
                }
            ],
            "name": "setGeneralCounsel",
            "outputs": [],
            "stateMutability": "nonpayable",
            "type": "function"
        },
        {
            "inputs": [
                {
                    "internalType": "uint256",
                    "name": "seqOfShare",
                    "type": "uint256"
                },
                {
                    "internalType": "uint256",
                    "name": "dueDate",
                    "type": "uint256"
                }
            ],
            "name": "setLocker",
            "outputs": [],
            "stateMutability": "nonpayable",
            "type": "function"
        },
        {
            "inputs": [
                {
                    "internalType": "uint256",
                    "name": "acct",
                    "type": "uint256"
                }
            ],
            "name": "setOwner",
            "outputs": [],
            "stateMutability": "nonpayable",
            "type": "function"
        },
        {
            "inputs": [
                {
                    "internalType": "bytes32",
                    "name": "role",
                    "type": "bytes32"
                },
                {
                    "internalType": "uint256",
                    "name": "acct",
                    "type": "uint256"
                }
            ],
            "name": "setRoleAdmin",
            "outputs": [],
            "stateMutability": "nonpayable",
            "type": "function"
        }
    ],
    "bytecode": "608060405234801561001057600080fd5b50612204806100206000396000f3fe608060405234801561001057600080fd5b50600436106101585760003560e01c80637e063c5a116100c3578063e336e0aa1161007c578063e336e0aa146102d9578063e95502fb146102ec578063ed21102314610301578063f045a76914610321578063f6aacfb114610329578063f6e093f41461033c57600080fd5b80637e063c5a146102715780638041494e14610284578063893d20e8146102975780638bb9c5bf1461029f578063b3f05b97146102b2578063dc890da9146102c657600080fd5b8063237006e011610115578063237006e0146101ff5780633da9a600146102125780634a14beb1146102255780635171ebd4146102385780636be8496f1461024b578063724589e01461025e57600080fd5b806306c4b2081461015d57806306de3d2c146101855780630b1bd2431461019a578063103f6edd146101bb57806319d61ad9146101d95780631b6ea9f9146101ec575b600080fd5b61017061016b366004611d67565b61034f565b60405190151581526020015b60405180910390f35b610198610193366004611e7d565b6103c9565b005b6101ad6101a8366004611e9f565b610592565b60405161017c929190611ef3565b6101c361064b565b60405164ffffffffff909116815260200161017c565b6101986101e7366004611e7d565b6106d7565b6101986101fa366004611e7d565b610769565b61017061020d366004611d67565b61078f565b610198610220366004611e9f565b6109e0565b610198610233366004611e9f565b610a6b565b610198610246366004611e7d565b610cc8565b610198610259366004611f1c565b610cee565b61019861026c366004611e7d565b610da0565b61017061027f366004611e7d565b610f1b565b610198610292366004611e9f565b610fb6565b6101c361106f565b6101986102ad366004611e9f565b6110aa565b60028054600160f01b900460ff1614610170565b6101986102d4366004611f39565b6110cf565b6101986102e7366004611e7d565b6111b1565b6102f4611319565b60405161017c9190611f8c565b6103096113c2565b6040516001600160a01b03909116815260200161017c565b610198611448565b610170610337366004611e9f565b61168c565b61019861034a366004611e9f565b611736565b805151600090600160ff90911611801561037957508151608001516103799063ffffffff1661168c565b80156103b25750815161010081015160809091015163ffffffff1660009081526004602052604090205465ffffffffffff918216911610155b156103bf575060016103c3565b5060005b92915050565b73__$364aad554dc80380f414546becdd2c1584$__63a8ef95ac6002684174746f726e65797360b81b6103fa6118eb565b6040516001600160e01b031960e086901b1681526004810193909352602483019190915264ffffffffff16604482015260640160206040518083038186803b15801561044557600080fd5b505af4158015610459573d6000803e3d6000fd5b505050506040513d601f19601f8201168201806040525081019061047d9190611f9f565b6104a25760405162461bcd60e51b815260040161049990611fc1565b60405180910390fd5b816104ef5760405162461bcd60e51b815260206004820181905260248201527f4c552e6164644b6579686f6c6465723a207a65726f207365714f6653686172656044820152606401610499565b60008281526004602081905260409182902091516392f13c3f60e01b81526001909201908201526024810182905273__$8c1a4844a0a0988ea2454cf87145a95df1$__906392f13c3f906044015b60206040518083038186803b15801561055557600080fd5b505af4158015610569573d6000803e3d6000fd5b505050506040513d601f19601f8201168201806040525081019061058d9190611f9f565b505050565b6000818152600460208190526040918290208054925163034306e160e21b815265ffffffffffff9093169260609273__$8c1a4844a0a0988ea2454cf87145a95df1$__92630d0c1b84926105f0926001909201910190815260200190565b60006040518083038186803b15801561060857600080fd5b505af415801561061c573d6000803e3d6000fd5b505050506040513d6000823e601f3d908101601f19168201604052610644919081019061207e565b9050915091565b60405163e8c0cc1d60e01b81526002600482015260009073__$364aad554dc80380f414546becdd2c1584$__9063e8c0cc1d906024015b60206040518083038186803b15801561069a57600080fd5b505af41580156106ae573d6000803e3d6000fd5b505050506040513d601f19601f820116820180604052508101906106d291906120b3565b905090565b73__$364aad554dc80380f414546becdd2c1584$__6382daafaa600284846106fd6118eb565b6040516001600160e01b031960e087901b16815260048101949094526024840192909252604483015264ffffffffff16606482015260840160006040518083038186803b15801561074d57600080fd5b505af4158015610761573d6000803e3d6000fd5b505050505050565b73__$364aad554dc80380f414546becdd2c1584$__636320d75e600284846106fd6118eb565b600080836001600160a01b031690506000600160009054906101000a90046001600160a01b03166001600160a01b031663682ebf056040518163ffffffff1660e01b815260040160206040518083038186803b1580156107ee57600080fd5b505afa158015610802573d6000803e3d6000fd5b505050506040513d601f19601f8201168201806040525081019061082691906120d0565b604051630597757b60e21b815260048101849052600160248201526001600160a01b03919091169063165dd5ec9060440160006040518083038186803b15801561086f57600080fd5b505afa158015610883573d6000803e3d6000fd5b505050506040513d6000823e601f3d908101601f191682016040526108ab91908101906120ed565b6040015190506000856001600160a01b031663a8311aa86040518163ffffffff1660e01b815260040160006040518083038186803b1580156108ec57600080fd5b505afa158015610900573d6000803e3d6000fd5b505050506040513d6000823e601f3d908101601f19168201604052610928919081019061207e565b604051630445cdfb60e11b815290915060009073__$ccb256085f563a601d001f7c9087d87207$__9063088b9bf6906109679086908690600401612180565b60006040518083038186803b15801561097f57600080fd5b505af4158015610993573d6000803e3d6000fd5b505050506040513d6000823e601f3d908101601f191682016040526109bb919081019061207e565b90506109d586600001516080015163ffffffff1682611945565b979650505050505050565b73__$364aad554dc80380f414546becdd2c1584$__63c51b295f600283610a056118eb565b6040516001600160e01b031960e086901b1681526004810193909352602483019190915264ffffffffff16604482015260640160006040518083038186803b158015610a5057600080fd5b505af4158015610a64573d6000803e3d6000fd5b5050505050565b604051633b11adbf60e21b81526002600482015233602482015273__$364aad554dc80380f414546becdd2c1584$__9063ec46b6fc9060440160206040518083038186803b158015610abc57600080fd5b505af4158015610ad0573d6000803e3d6000fd5b505050506040513d601f19601f82011682018060405250810190610af49190611f9f565b80610b99575073__$364aad554dc80380f414546becdd2c1584$__63fe2710866002610b1e6118eb565b6040516001600160e01b031960e085901b168152600481019290925264ffffffffff16602482015260440160206040518083038186803b158015610b6157600080fd5b505af4158015610b75573d6000803e3d6000fd5b505050506040513d601f19601f82011682018060405250810190610b999190611f9f565b610c045760405162461bcd60e51b815260206004820152603660248201527f41432e6f776e65724f72446972656374426f6f6b65657065723a206e6569746860448201527532b91037bbb732b9103737b9103137b7b5b2b2b832b960511b6064820152608401610499565b73__$364aad554dc80380f414546becdd2c1584$__639b4510de600283610c296118eb565b6040516001600160e01b031960e086901b1681526004810193909352602483019190915264ffffffffff16604482015260640160006040518083038186803b158015610c7457600080fd5b505af4158015610c88573d6000803e3d6000fd5b505050507ff2735f34b69be1e6342dea95f9162f84d0db925fab655ca9f1f312ac8cbfc99d81604051610cbd91815260200190565b60405180910390a150565b73__$364aad554dc80380f414546becdd2c1584$__63ee98b313600284846106fd6118eb565b604051630f07232560e01b8152600260048201526001600160a01b038216602482015233604482015273__$364aad554dc80380f414546becdd2c1584$__90630f0723259060640160006040518083038186803b158015610d4e57600080fd5b505af4158015610d62573d6000803e3d6000fd5b50506040516001600160a01b03841681527fe435cbeab64e4eae6497b9d8289704bd709d624a80704ef3ca9af777534bc6ec92506020019050610cbd565b73__$364aad554dc80380f414546becdd2c1584$__63a8ef95ac6002684174746f726e65797360b81b610dd16118eb565b6040516001600160e01b031960e086901b1681526004810193909352602483019190915264ffffffffff16604482015260640160206040518083038186803b158015610e1c57600080fd5b505af4158015610e30573d6000803e3d6000fd5b505050506040513d601f19601f82011682018060405250810190610e549190611f9f565b610e705760405162461bcd60e51b815260040161049990611fc1565b81610ec95760405162461bcd60e51b815260206004820152602360248201527f4c552e72656d6f76654b6579686f6c6465723a207a65726f207365714f66536860448201526261726560e81b6064820152608401610499565b60008281526004602081905260409182902091516392fd02df60e01b81526001909201908201526024810182905273__$8c1a4844a0a0988ea2454cf87145a95df1$__906392fd02df9060440161053d565b604051632a3be56b60e21b815260026004820152602481018390526044810182905260009073__$364aad554dc80380f414546becdd2c1584$__9063a8ef95ac9060640160206040518083038186803b158015610f7757600080fd5b505af4158015610f8b573d6000803e3d6000fd5b505050506040513d601f19601f82011682018060405250810190610faf9190611f9f565b9392505050565b73__$364aad554dc80380f414546becdd2c1584$__639b48160c600283610fdb6118eb565b6040516001600160e01b031960e086901b1681526004810193909352602483019190915264ffffffffff16604482015260640160006040518083038186803b15801561102657600080fd5b505af415801561103a573d6000803e3d6000fd5b505050507f8b6f40f36b4ae8cc5f55e895036457c43da4ab1f80f58c46f5ff0d72a650033b81604051610cbd91815260200190565b60405163987ad15360e01b81526002600482015260009073__$364aad554dc80380f414546becdd2c1584$__9063987ad15390602401610682565b73__$364aad554dc80380f414546becdd2c1584$__63cc0d511b600283610a056118eb565b604051636cdd0edf60e11b815260026004820152602481018590526001600160a01b038416604482015273__$364aad554dc80380f414546becdd2c1584$__9063d9ba1dbe9060640160006040518083038186803b15801561113057600080fd5b505af4158015611144573d6000803e3d6000fd5b5050505061115182611aa7565b61115a81611b1a565b604080518581526001600160a01b038581166020830152848116828401528316606082015290517f3abb2418c66fe32ba9c883030a75ce583971d9af9192b9b74e44e67c5e6c8c1f9181900360800190a150505050565b73__$364aad554dc80380f414546becdd2c1584$__63a8ef95ac6002684174746f726e65797360b81b6111e26118eb565b6040516001600160e01b031960e086901b1681526004810193909352602483019190915264ffffffffff16604482015260640160206040518083038186803b15801561122d57600080fd5b505af4158015611241573d6000803e3d6000fd5b505050506040513d601f19601f820116820180604052508101906112659190611f9f565b6112815760405162461bcd60e51b815260040161049990611fc1565b65ffffffffffff811615611295578061129b565b63ff4551005b6000838152600460208190526040808320805465ffffffffffff191665ffffffffffff959095169490941790935590805290516392f13c3f60e01b81526000805160206121af833981519152918101919091526024810183905273__$8c1a4844a0a0988ea2454cf87145a95df1$__906392f13c3f9060440161053d565b600080526004602081905260405163034306e160e21b815260609173__$8c1a4844a0a0988ea2454cf87145a95df1$__91630d0c1b849161136e916000805160206121af833981519152910190815260200190565b60006040518083038186803b15801561138657600080fd5b505af415801561139a573d6000803e3d6000fd5b505050506040513d6000823e601f3d908101601f191682016040526106d2919081019061207e565b604051633c3e56c160e11b81526002600482015260009073__$364aad554dc80380f414546becdd2c1584$__9063787cad829060240160206040518083038186803b15801561141057600080fd5b505af4158015611424573d6000803e3d6000fd5b505050506040513d601f19601f820116820180604052508101906106d291906120d0565b600254600160f01b900460ff166001146114a45760405162461bcd60e51b815260206004820152601760248201527f41432e4c433a20446f632069732066696e616c697a65640000000000000000006044820152606401610499565b73__$364aad554dc80380f414546becdd2c1584$__63c51b295f6002684174746f726e65797360b81b6114d56118eb565b6040516001600160e01b031960e086901b1681526004810193909352602483019190915264ffffffffff16604482015260640160006040518083038186803b15801561152057600080fd5b505af4158015611534573d6000803e3d6000fd5b50505050600273__$364aad554dc80380f414546becdd2c1584$__639b4510de909160006115606118eb565b6040516001600160e01b031960e086901b1681526004810193909352602483019190915264ffffffffff16604482015260640160006040518083038186803b1580156115ab57600080fd5b505af41580156115bf573d6000803e3d6000fd5b50505050600273__$364aad554dc80380f414546becdd2c1584$__639b48160c909160006115eb6118eb565b6040516001600160e01b031960e086901b1681526004810193909352602483019190915264ffffffffff16604482015260640160006040518083038186803b15801561163657600080fd5b505af415801561164a573d6000803e3d6000fd5b50506002805460ff60f01b1916600160f11b17905550506040517f35012b512309c322acf68632cd6cb702ff0e1d776fbe9394e38ffc13b434fe7590600090a1565b600080805260046020819052604051633f5f77cd60e01b815273__$8c1a4844a0a0988ea2454cf87145a95df1$__91633f5f77cd916116e6916000805160206121af83398151915291879101918252602082015260400190565b60206040518083038186803b1580156116fe57600080fd5b505af4158015611712573d6000803e3d6000fd5b505050506040513d601f19601f820116820180604052508101906103c39190611f9f565b73__$364aad554dc80380f414546becdd2c1584$__63a8ef95ac6002684174746f726e65797360b81b6117676118eb565b6040516001600160e01b031960e086901b1681526004810193909352602483019190915264ffffffffff16604482015260640160206040518083038186803b1580156117b257600080fd5b505af41580156117c6573d6000803e3d6000fd5b505050506040513d601f19601f820116820180604052508101906117ea9190611f9f565b6118065760405162461bcd60e51b815260040161049990611fc1565b60008052600460208190526040516392fd02df60e01b815273__$8c1a4844a0a0988ea2454cf87145a95df1$__916392fd02df9161185f916000805160206121af83398151915291869101918252602082015260400190565b60206040518083038186803b15801561187757600080fd5b505af415801561188b573d6000803e3d6000fd5b505050506040513d601f19601f820116820180604052508101906118af9190611f9f565b156118e8576000818152600460205260408120805465ffffffffffff1916815590600182018181816118e18282611b95565b5050505050505b50565b60008054604051636ae3b70d60e11b81523360048201526001600160a01b039091169063d5c76e1a90602401602060405180830381600087803b15801561193157600080fd5b505af11580156106ae573d6000803e3d6000fd5b60006119508361168c565b61195c575060016103c3565b6000838152600460208190526040808320905163034306e160e21b81526001820192810192909252919073__$8c1a4844a0a0988ea2454cf87145a95df1$__90630d0c1b849060240160006040518083038186803b1580156119bd57600080fd5b505af41580156119d1573d6000803e3d6000fd5b505050506040513d6000823e601f3d908101601f191682016040526119f9919081019061207e565b8051855191925090811115611a1457600093505050506103c3565b604051638410a30d60e01b815273__$ccb256085f563a601d001f7c9087d87207$__90638410a30d90611a4d9085908990600401612180565b60206040518083038186803b158015611a6557600080fd5b505af4158015611a79573d6000803e3d6000fd5b505050506040513d601f19601f82011682018060405250810190611a9d9190611f9f565b93505050506103c3565b6000546001600160a01b031615611af85760405162461bcd60e51b815260206004820152601560248201527430b63932b0b23c9039b2ba103932b3a1b2b73a32b960591b6044820152606401610499565b600080546001600160a01b0319166001600160a01b0392909216919091179055565b6001546001600160a01b031615611b735760405162461bcd60e51b815260206004820152601960248201527f616c7265616479207365742067656e6572616c4b6565706572000000000000006044820152606401610499565b600180546001600160a01b0319166001600160a01b0392909216919091179055565b50805460008255906000526020600020908101906118e891905b80821115611bc35760008155600101611baf565b5090565b6001600160a01b03811681146118e857600080fd5b634e487b7160e01b600052604160045260246000fd5b6040516060810167ffffffffffffffff81118282101715611c1557611c15611bdc565b60405290565b604051610120810167ffffffffffffffff81118282101715611c1557611c15611bdc565b803560ff81168114611c5057600080fd5b919050565b803561ffff81168114611c5057600080fd5b63ffffffff811681146118e857600080fd5b8035611c5081611c67565b64ffffffffff811681146118e857600080fd5b8035611c5081611c84565b803565ffffffffffff81168114611c5057600080fd5b67ffffffffffffffff811681146118e857600080fd5b600060a08284031215611ce057600080fd5b60405160a0810181811067ffffffffffffffff82111715611d0357611d03611bdc565b6040529050808235611d1481611c84565b81526020830135611d2481611c84565b60208201526040830135611d3781611cb8565b60408201526060830135611d4a81611cb8565b6060820152611d5b60808401611c3f565b60808201525092915050565b600080828403610200811215611d7c57600080fd5b8335611d8781611bc7565b9250601f19016101e080821215611d9d57600080fd5b611da5611bf2565b61012080841215611db557600080fd5b611dbd611c1b565b9350611dcb60208801611c3f565b8452611dd960408801611c55565b6020850152611dea60608801611c55565b6040850152611dfb60808801611c55565b6060850152611e0c60a08801611c79565b6080850152611e1d60c08801611c97565b60a0850152611e2e60e08801611c79565b60c0850152610100611e41818901611c79565b60e0860152611e51828901611ca2565b9085015250828152611e67876101408801611cce565b6020820152940135604085015250909391925050565b60008060408385031215611e9057600080fd5b50508035926020909101359150565b600060208284031215611eb157600080fd5b5035919050565b600081518084526020808501945080840160005b83811015611ee857815187529582019590820190600101611ecc565b509495945050505050565b65ffffffffffff83168152604060208201526000611f146040830184611eb8565b949350505050565b600060208284031215611f2e57600080fd5b8135610faf81611bc7565b60008060008060808587031215611f4f57600080fd5b843593506020850135611f6181611bc7565b92506040850135611f7181611bc7565b91506060850135611f8181611bc7565b939692955090935050565b602081526000610faf6020830184611eb8565b600060208284031215611fb157600080fd5b81518015158114610faf57600080fd5b60208082526013908201527241432e6f743a206e6f74204174746f726e657960681b604082015260600190565b600082601f830112611fff57600080fd5b8151602067ffffffffffffffff8083111561201c5761201c611bdc565b8260051b604051601f19603f8301168101818110848211171561204157612041611bdc565b60405293845285810183019383810192508785111561205f57600080fd5b83870191505b848210156109d557815183529183019190830190612065565b60006020828403121561209057600080fd5b815167ffffffffffffffff8111156120a757600080fd5b611f1484828501611fee565b6000602082840312156120c557600080fd5b8151610faf81611c84565b6000602082840312156120e257600080fd5b8151610faf81611bc7565b6000602082840312156120ff57600080fd5b815167ffffffffffffffff8082111561211757600080fd5b908301906060828603121561212b57600080fd5b612133611bf2565b825161213e81611c67565b8152602083015161214e81611cb8565b602082015260408301518281111561216557600080fd5b61217187828601611fee565b60408301525095945050505050565b6040815260006121936040830185611eb8565b82810360208401526121a58185611eb8565b9594505050505056fe17ef568e3e12ab5b9c7254a8d58478811de00f9e6eb34345acd53bf8fd09d3eda264697066735822122005c2ad3ef468bad122f59eb16a28088a612664e18444567a2774c375bed7034764736f6c63430008080033",
    "sourcePath": "/Users/kaptain/github.com/hardhat/comboox/contracts/books/boh/terms/LockUp.sol",
    "compiler": {
        "name": "solc",
        "version": "0.8.8+commit.dddeac2f"
    },
    "functionHashes": {
        "abandonRole(bytes32)": "3da9a600",
        "addKeyholder(uint256,uint256)": "06de3d2c",
        "delLocker(uint256)": "f6e093f4",
        "finalized()": "b3f05b97",
        "getBookeeper()": "ed211023",
        "getGeneralCounsel()": "103f6edd",
        "getLocker(uint256)": "0b1bd243",
        "getOwner()": "893d20e8",
        "grantRole(bytes32,uint256)": "1b6ea9f9",
        "hasRole(bytes32,uint256)": "7e063c5a",
        "init(uint256,address,address,address)": "dc890da9",
        "isExempted(address,((uint8,uint16,uint16,uint16,uint32,uint40,uint32,uint32,uint48),(uint40,uint40,uint64,uint64,uint8),bytes32))": "237006e0",
        "isLocked(uint256)": "f6aacfb1",
        "isTriggered(address,((uint8,uint16,uint16,uint16,uint32,uint40,uint32,uint32,uint48),(uint40,uint40,uint64,uint64,uint8),bytes32))": "06c4b208",
        "lockContents()": "f045a769",
        "lockedShares()": "e95502fb",
        "removeKeyholder(uint256,uint256)": "724589e0",
        "renounceRole(bytes32)": "8bb9c5bf",
        "revokeRole(bytes32,uint256)": "19d61ad9",
        "setDirectKeeper(address)": "6be8496f",
        "setGeneralCounsel(uint256)": "4a14beb1",
        "setLocker(uint256,uint256)": "e336e0aa",
        "setOwner(uint256)": "8041494e",
        "setRoleAdmin(bytes32,uint256)": "5171ebd4"
    },
    "gasEstimates": {
        "creation": {
            "codeDepositCost": "1741600",
            "executionCost": "1834",
            "totalCost": "1743434"
        },
        "external": {
            "abandonRole(bytes32)": "infinite",
            "addKeyholder(uint256,uint256)": "infinite",
            "delLocker(uint256)": "infinite",
            "finalized()": "2427",
            "getBookeeper()": "infinite",
            "getGeneralCounsel()": "infinite",
            "getLocker(uint256)": "infinite",
            "getOwner()": "infinite",
            "grantRole(bytes32,uint256)": "infinite",
            "hasRole(bytes32,uint256)": "infinite",
            "init(uint256,address,address,address)": "infinite",
            "isExempted(address,((uint8,uint16,uint16,uint16,uint32,uint40,uint32,uint32,uint48),(uint40,uint40,uint64,uint64,uint8),bytes32))": "infinite",
            "isLocked(uint256)": "infinite",
            "isTriggered(address,((uint8,uint16,uint16,uint16,uint32,uint40,uint32,uint32,uint48),(uint40,uint40,uint64,uint64,uint8),bytes32))": "infinite",
            "lockContents()": "infinite",
            "lockedShares()": "infinite",
            "removeKeyholder(uint256,uint256)": "infinite",
            "renounceRole(bytes32)": "infinite",
            "revokeRole(bytes32,uint256)": "infinite",
            "setDirectKeeper(address)": "infinite",
            "setGeneralCounsel(uint256)": "infinite",
            "setLocker(uint256,uint256)": "infinite",
            "setOwner(uint256)": "infinite",
            "setRoleAdmin(bytes32,uint256)": "infinite"
        },
        "internal": {
            "_isExempted(uint256,uint256[] memory)": "infinite"
        }
    }
}