{
    "contractName": "LockUp",
    "abi": [
        {
            "anonymous": false,
            "inputs": [
                {
                    "indexed": false,
                    "internalType": "uint40",
                    "name": "owner",
                    "type": "uint40"
                },
                {
                    "indexed": false,
                    "internalType": "address",
                    "name": "directKeeper",
                    "type": "address"
                },
                {
                    "indexed": false,
                    "internalType": "address",
                    "name": "regCenter",
                    "type": "address"
                },
                {
                    "indexed": false,
                    "internalType": "address",
                    "name": "generalKeeper",
                    "type": "address"
                }
            ],
            "name": "Init",
            "type": "event"
        },
        {
            "anonymous": false,
            "inputs": [],
            "name": "LockContents",
            "type": "event"
        },
        {
            "anonymous": false,
            "inputs": [
                {
                    "indexed": false,
                    "internalType": "address",
                    "name": "keeper",
                    "type": "address"
                }
            ],
            "name": "SetDirectKeeper",
            "type": "event"
        },
        {
            "anonymous": false,
            "inputs": [
                {
                    "indexed": false,
                    "internalType": "uint256",
                    "name": "acct",
                    "type": "uint256"
                }
            ],
            "name": "SetGeneralCounsel",
            "type": "event"
        },
        {
            "anonymous": false,
            "inputs": [
                {
                    "indexed": false,
                    "internalType": "address",
                    "name": "gk",
                    "type": "address"
                }
            ],
            "name": "SetGeneralKeeper",
            "type": "event"
        },
        {
            "anonymous": false,
            "inputs": [
                {
                    "indexed": false,
                    "internalType": "uint256",
                    "name": "acct",
                    "type": "uint256"
                }
            ],
            "name": "SetOwner",
            "type": "event"
        },
        {
            "anonymous": false,
            "inputs": [
                {
                    "indexed": false,
                    "internalType": "address",
                    "name": "rc",
                    "type": "address"
                }
            ],
            "name": "SetRegCenter",
            "type": "event"
        },
        {
            "inputs": [
                {
                    "internalType": "bytes32",
                    "name": "role",
                    "type": "bytes32"
                }
            ],
            "name": "abandonRole",
            "outputs": [],
            "stateMutability": "nonpayable",
            "type": "function"
        },
        {
            "inputs": [
                {
                    "internalType": "uint32",
                    "name": "ssn",
                    "type": "uint32"
                },
                {
                    "internalType": "uint40",
                    "name": "keyholder",
                    "type": "uint40"
                }
            ],
            "name": "addKeyholder",
            "outputs": [],
            "stateMutability": "nonpayable",
            "type": "function"
        },
        {
            "inputs": [
                {
                    "internalType": "uint32",
                    "name": "ssn",
                    "type": "uint32"
                }
            ],
            "name": "delLocker",
            "outputs": [],
            "stateMutability": "nonpayable",
            "type": "function"
        },
        {
            "inputs": [],
            "name": "finalized",
            "outputs": [
                {
                    "internalType": "bool",
                    "name": "",
                    "type": "bool"
                }
            ],
            "stateMutability": "view",
            "type": "function"
        },
        {
            "inputs": [],
            "name": "getBookeeper",
            "outputs": [
                {
                    "internalType": "address",
                    "name": "",
                    "type": "address"
                }
            ],
            "stateMutability": "view",
            "type": "function"
        },
        {
            "inputs": [],
            "name": "getGeneralCounsel",
            "outputs": [
                {
                    "internalType": "uint40",
                    "name": "",
                    "type": "uint40"
                }
            ],
            "stateMutability": "view",
            "type": "function"
        },
        {
            "inputs": [
                {
                    "internalType": "uint32",
                    "name": "ssn",
                    "type": "uint32"
                }
            ],
            "name": "getLocker",
            "outputs": [
                {
                    "internalType": "uint48",
                    "name": "dueDate",
                    "type": "uint48"
                },
                {
                    "internalType": "uint40[]",
                    "name": "keyHolders",
                    "type": "uint40[]"
                }
            ],
            "stateMutability": "view",
            "type": "function"
        },
        {
            "inputs": [],
            "name": "getOwner",
            "outputs": [
                {
                    "internalType": "uint40",
                    "name": "",
                    "type": "uint40"
                }
            ],
            "stateMutability": "view",
            "type": "function"
        },
        {
            "inputs": [
                {
                    "internalType": "bytes32",
                    "name": "role",
                    "type": "bytes32"
                },
                {
                    "internalType": "uint40",
                    "name": "acct",
                    "type": "uint40"
                }
            ],
            "name": "grantRole",
            "outputs": [],
            "stateMutability": "nonpayable",
            "type": "function"
        },
        {
            "inputs": [
                {
                    "internalType": "bytes32",
                    "name": "role",
                    "type": "bytes32"
                },
                {
                    "internalType": "uint40",
                    "name": "acct",
                    "type": "uint40"
                }
            ],
            "name": "hasRole",
            "outputs": [
                {
                    "internalType": "bool",
                    "name": "",
                    "type": "bool"
                }
            ],
            "stateMutability": "view",
            "type": "function"
        },
        {
            "inputs": [
                {
                    "internalType": "uint40",
                    "name": "owner",
                    "type": "uint40"
                },
                {
                    "internalType": "address",
                    "name": "directKeeper",
                    "type": "address"
                },
                {
                    "internalType": "address",
                    "name": "regCenter",
                    "type": "address"
                },
                {
                    "internalType": "address",
                    "name": "generalKeeper",
                    "type": "address"
                }
            ],
            "name": "init",
            "outputs": [],
            "stateMutability": "nonpayable",
            "type": "function"
        },
        {
            "inputs": [
                {
                    "internalType": "address",
                    "name": "ia",
                    "type": "address"
                },
                {
                    "internalType": "bytes32",
                    "name": "sn",
                    "type": "bytes32"
                }
            ],
            "name": "isExempted",
            "outputs": [
                {
                    "internalType": "bool",
                    "name": "",
                    "type": "bool"
                }
            ],
            "stateMutability": "view",
            "type": "function"
        },
        {
            "inputs": [
                {
                    "internalType": "uint32",
                    "name": "ssn",
                    "type": "uint32"
                }
            ],
            "name": "isLocked",
            "outputs": [
                {
                    "internalType": "bool",
                    "name": "",
                    "type": "bool"
                }
            ],
            "stateMutability": "view",
            "type": "function"
        },
        {
            "inputs": [
                {
                    "internalType": "address",
                    "name": "ia",
                    "type": "address"
                },
                {
                    "internalType": "bytes32",
                    "name": "sn",
                    "type": "bytes32"
                }
            ],
            "name": "isTriggered",
            "outputs": [
                {
                    "internalType": "bool",
                    "name": "",
                    "type": "bool"
                }
            ],
            "stateMutability": "view",
            "type": "function"
        },
        {
            "inputs": [],
            "name": "lockContents",
            "outputs": [],
            "stateMutability": "nonpayable",
            "type": "function"
        },
        {
            "inputs": [],
            "name": "lockedShares",
            "outputs": [
                {
                    "internalType": "uint32[]",
                    "name": "",
                    "type": "uint32[]"
                }
            ],
            "stateMutability": "view",
            "type": "function"
        },
        {
            "inputs": [
                {
                    "internalType": "uint32",
                    "name": "ssn",
                    "type": "uint32"
                },
                {
                    "internalType": "uint40",
                    "name": "keyholder",
                    "type": "uint40"
                }
            ],
            "name": "removeKeyholder",
            "outputs": [],
            "stateMutability": "nonpayable",
            "type": "function"
        },
        {
            "inputs": [
                {
                    "internalType": "bytes32",
                    "name": "role",
                    "type": "bytes32"
                }
            ],
            "name": "renounceRole",
            "outputs": [],
            "stateMutability": "nonpayable",
            "type": "function"
        },
        {
            "inputs": [
                {
                    "internalType": "bytes32",
                    "name": "role",
                    "type": "bytes32"
                },
                {
                    "internalType": "uint40",
                    "name": "acct",
                    "type": "uint40"
                }
            ],
            "name": "revokeRole",
            "outputs": [],
            "stateMutability": "nonpayable",
            "type": "function"
        },
        {
            "inputs": [
                {
                    "internalType": "address",
                    "name": "keeper",
                    "type": "address"
                }
            ],
            "name": "setDirectKeeper",
            "outputs": [],
            "stateMutability": "nonpayable",
            "type": "function"
        },
        {
            "inputs": [
                {
                    "internalType": "uint40",
                    "name": "acct",
                    "type": "uint40"
                }
            ],
            "name": "setGeneralCounsel",
            "outputs": [],
            "stateMutability": "nonpayable",
            "type": "function"
        },
        {
            "inputs": [
                {
                    "internalType": "uint32",
                    "name": "ssn",
                    "type": "uint32"
                },
                {
                    "internalType": "uint48",
                    "name": "dueDate",
                    "type": "uint48"
                }
            ],
            "name": "setLocker",
            "outputs": [],
            "stateMutability": "nonpayable",
            "type": "function"
        },
        {
            "inputs": [
                {
                    "internalType": "uint40",
                    "name": "acct",
                    "type": "uint40"
                }
            ],
            "name": "setOwner",
            "outputs": [],
            "stateMutability": "nonpayable",
            "type": "function"
        },
        {
            "inputs": [
                {
                    "internalType": "bytes32",
                    "name": "role",
                    "type": "bytes32"
                },
                {
                    "internalType": "uint40",
                    "name": "acct",
                    "type": "uint40"
                }
            ],
            "name": "setRoleAdmin",
            "outputs": [],
            "stateMutability": "nonpayable",
            "type": "function"
        }
    ],
    "bytecode": "608060405234801561001057600080fd5b50612922806100206000396000f3fe608060405234801561001057600080fd5b50600436106101585760003560e01c80637ba706e8116100c3578063b3f05b971161007c578063b3f05b97146102ca578063d3a9a4f5146102de578063e0f50d36146102ff578063e95502fb14610312578063ed21102314610327578063f045a7691461034757600080fd5b80637ba706e814610263578063821ee8ea14610276578063893d20e8146102895780638bb9c5bf146102915780638e5a886f146102a45780639815fbba146102b757600080fd5b80633da9a600116101155780633da9a600146101f157806352000f5114610204578063589e2295146102175780636be8496f1461022a578063740998151461023d57806379b2ec121461025057600080fd5b8063103f6edd1461015d57806316dc517e1461018057806317c51fec146101955780631c2780aa146101a85780633178a9a9146101bb5780633d6a2679146101ce575b600080fd5b61016561034f565b60405164ffffffffff90911681526020015b60405180910390f35b61019361018e36600461212e565b6103db565b005b6101936101a336600461212e565b610471565b6101936101b6366004612170565b610496565b6101936101c936600461219e565b610672565b6101e16101dc3660046121bb565b61086b565b6040519015158152602001610177565b6101936101ff3660046121d8565b61091b565b6101e1610212366004612206565b610a2d565b610193610225366004612246565b610d16565b610193610238366004612274565b610e83565b61019361024b36600461212e565b610f35565b6101e161025e36600461212e565b610f5a565b61019361027136600461219e565b610ffb565b610193610284366004612291565b6111ed565b6101656112dd565b61019361029f3660046121d8565b611318565b6101e16102b2366004612206565b611371565b6101936102c53660046121bb565b6115f4565b60028054600160f01b900460ff16146101e1565b6102f16102ec3660046121bb565b6117b0565b6040516101779291906122ed565b61019361030d366004612170565b611870565b61031a6119f2565b604051610177919061234a565b61032f611a9b565b6040516001600160a01b039091168152602001610177565b610193611b21565b60405163e8c0cc1d60e01b81526002600482015260009073__$364aad554dc80380f414546becdd2c1584$__9063e8c0cc1d906024015b60206040518083038186803b15801561039e57600080fd5b505af41580156103b2573d6000803e3d6000fd5b505050506040513d601f19601f820116820180604052508101906103d69190612394565b905090565b73__$364aad554dc80380f414546becdd2c1584$__63427abff4600284610400611d3f565b6040516001600160e01b031960e086901b1681526004810193909352602483019190915264ffffffffff9081166044830152841660648201526084015b60006040518083038186803b15801561045557600080fd5b505af4158015610469573d6000803e3d6000fd5b505050505050565b73__$364aad554dc80380f414546becdd2c1584$__638ce15845600284610400611d3f565b73__$364aad554dc80380f414546becdd2c1584$__63a8ef95ac6002684174746f726e65797360b81b6104c7611d3f565b6040516001600160e01b031960e086901b1681526004810193909352602483019190915264ffffffffff16604482015260640160206040518083038186803b15801561051257600080fd5b505af4158015610526573d6000803e3d6000fd5b505050506040513d601f19601f8201168201806040525081019061054a91906123b1565b61056f5760405162461bcd60e51b8152600401610566906123d3565b60405180910390fd5b63ffffffff82166105c25760405162461bcd60e51b815260206004820152601960248201527f4c552e6164644b6579686f6c6465723a207a65726f2073736e000000000000006044820152606401610566565b63ffffffff821660009081526004602081905260409182902091516392f13c3f60e01b815260019092019082015264ffffffffff8216602482015273__$8c1a4844a0a0988ea2454cf87145a95df1$__906392f13c3f906044015b60206040518083038186803b15801561063557600080fd5b505af4158015610649573d6000803e3d6000fd5b505050506040513d601f19601f8201168201806040525081019061066d91906123b1565b505050565b604051633b11adbf60e21b81526002600482015233602482015273__$364aad554dc80380f414546becdd2c1584$__9063ec46b6fc9060440160206040518083038186803b1580156106c357600080fd5b505af41580156106d7573d6000803e3d6000fd5b505050506040513d601f19601f820116820180604052508101906106fb91906123b1565b806107a0575073__$364aad554dc80380f414546becdd2c1584$__63fe2710866002610725611d3f565b6040516001600160e01b031960e085901b168152600481019290925264ffffffffff16602482015260440160206040518083038186803b15801561076857600080fd5b505af415801561077c573d6000803e3d6000fd5b505050506040513d601f19601f820116820180604052508101906107a091906123b1565b6107bc5760405162461bcd60e51b815260040161056690612400565b604051632725ebef60e21b81526002600482015264ffffffffff8216602482015273__$364aad554dc80380f414546becdd2c1584$__90639c97afbc9060440160006040518083038186803b15801561081457600080fd5b505af4158015610828573d6000803e3d6000fd5b505060405164ffffffffff841681527ff2735f34b69be1e6342dea95f9162f84d0db925fab655ca9f1f312ac8cbfc99d925060200190505b60405180910390a150565b600080805260046020819052604051633f5f77cd60e01b81526000805160206128cd8339815191529181019190915263ffffffff8316602482015273__$8c1a4844a0a0988ea2454cf87145a95df1$__90633f5f77cd9060440160206040518083038186803b1580156108dd57600080fd5b505af41580156108f1573d6000803e3d6000fd5b505050506040513d601f19601f8201168201806040525081019061091591906123b1565b92915050565b604051633b11adbf60e21b81526002600482015233602482015273__$364aad554dc80380f414546becdd2c1584$__9063ec46b6fc9060440160206040518083038186803b15801561096c57600080fd5b505af4158015610980573d6000803e3d6000fd5b505050506040513d601f19601f820116820180604052508101906109a491906123b1565b6109c05760405162461bcd60e51b815260040161056690612456565b60405163cc99e11b60e01b8152600260048201526024810182905273__$364aad554dc80380f414546becdd2c1584$__9063cc99e11b9060440160006040518083038186803b158015610a1257600080fd5b505af4158015610a26573d6000803e3d6000fd5b5050505050565b600080836001600160a01b0316639b59d9806040518163ffffffff1660e01b815260040160206040518083038186803b158015610a6957600080fd5b505afa158015610a7d573d6000803e3d6000fd5b505050506040513d601f19601f82011682018060405250810190610aa191906124b2565b60ff1690506000846001600160a01b031660a083901b610ac191906124cd565b90506000610acd611d99565b604051638d5b658560e01b815260048101849052600160248201526001600160a01b039190911690638d5b65859060440160006040518083038186803b158015610b1657600080fd5b505afa158015610b2a573d6000803e3d6000fd5b505050506040513d6000823e601f3d908101601f19168201604052610b5291908101906125ea565b6040015190506000610b62611e00565b60405163d633627760e01b81526001600160a01b038981166004830152919091169063d63362779060240160006040518083038186803b158015610ba557600080fd5b505afa158015610bb9573d6000803e3d6000fd5b505050506040513d6000823e601f3d908101601f19168201604052610be19190810190612691565b6040516352b73d5f60e11b815290915060009073__$ccb256085f563a601d001f7c9087d87207$__9063a56e7abe90610c209086908690600401612710565b60006040518083038186803b158015610c3857600080fd5b505af4158015610c4c573d6000803e3d6000fd5b505050506040513d6000823e601f3d908101601f19168201604052610c749190810190612691565b604051632805fd7360e21b81526004810189905290915060009073__$94c94c1f27eaba30857c7d0c37f90b5581$__9063a017f5cc9060240160206040518083038186803b158015610cc557600080fd5b505af4158015610cd9573d6000803e3d6000fd5b505050506040513d601f19601f82011682018060405250810190610cfd919061273e565b9050610d098183611e1a565b9998505050505050505050565b73__$364aad554dc80380f414546becdd2c1584$__63a8ef95ac6002684174746f726e65797360b81b610d47611d3f565b6040516001600160e01b031960e086901b1681526004810193909352602483019190915264ffffffffff16604482015260640160206040518083038186803b158015610d9257600080fd5b505af4158015610da6573d6000803e3d6000fd5b505050506040513d601f19601f82011682018060405250810190610dca91906123b1565b610de65760405162461bcd60e51b8152600401610566906123d3565b65ffffffffffff811615610dfa5780610e00565b63ff4551005b63ffffffff83166000818152600460208190526040808320805465ffffffffffff191665ffffffffffff969096169590951790945590805291516392f13c3f60e01b81526000805160206128cd83398151915292810192909252602482015273__$8c1a4844a0a0988ea2454cf87145a95df1$__906392f13c3f9060440161061d565b604051630f07232560e01b8152600260048201523360248201526001600160a01b038216604482015273__$364aad554dc80380f414546becdd2c1584$__90630f0723259060640160006040518083038186803b158015610ee357600080fd5b505af4158015610ef7573d6000803e3d6000fd5b50506040516001600160a01b03841681527fe435cbeab64e4eae6497b9d8289704bd709d624a80704ef3ca9af777534bc6ec92506020019050610860565b73__$364aad554dc80380f414546becdd2c1584$__63d2a15ba7600284610400611d3f565b604051632a3be56b60e21b8152600260048201526024810183905264ffffffffff8216604482015260009073__$364aad554dc80380f414546becdd2c1584$__9063a8ef95ac9060640160206040518083038186803b158015610fbc57600080fd5b505af4158015610fd0573d6000803e3d6000fd5b505050506040513d601f19601f82011682018060405250810190610ff491906123b1565b9392505050565b604051633b11adbf60e21b81526002600482015233602482015273__$364aad554dc80380f414546becdd2c1584$__9063ec46b6fc9060440160206040518083038186803b15801561104c57600080fd5b505af4158015611060573d6000803e3d6000fd5b505050506040513d601f19601f8201168201806040525081019061108491906123b1565b80611129575073__$364aad554dc80380f414546becdd2c1584$__63fe27108660026110ae611d3f565b6040516001600160e01b031960e085901b168152600481019290925264ffffffffff16602482015260440160206040518083038186803b1580156110f157600080fd5b505af4158015611105573d6000803e3d6000fd5b505050506040513d601f19601f8201168201806040525081019061112991906123b1565b6111455760405162461bcd60e51b815260040161056690612400565b60405163b6e38a2960e01b81526002600482015264ffffffffff8216602482015273__$364aad554dc80380f414546becdd2c1584$__9063b6e38a299060440160006040518083038186803b15801561119d57600080fd5b505af41580156111b1573d6000803e3d6000fd5b505060405164ffffffffff841681527f8b6f40f36b4ae8cc5f55e895036457c43da4ab1f80f58c46f5ff0d72a650033b92506020019050610860565b6111f682611f83565b6111ff81612032565b604051636cdd0edf60e11b81526002600482015264ffffffffff851660248201526001600160a01b038416604482015273__$364aad554dc80380f414546becdd2c1584$__9063d9ba1dbe9060640160006040518083038186803b15801561126657600080fd5b505af415801561127a573d6000803e3d6000fd5b50506040805164ffffffffff881681526001600160a01b038781166020830152868116828401528516606082015290517f4d18c0021addc919105cb1ed2c11ad241e859cc1d9e77d4ee1d9ca2cdc1f255b9350908190036080019150a150505050565b60405163987ad15360e01b81526002600482015260009073__$364aad554dc80380f414546becdd2c1584$__9063987ad15390602401610386565b6000611322611d3f565b604051637963595360e11b8152600260048201526024810184905264ffffffffff8216604482015290915073__$364aad554dc80380f414546becdd2c1584$__9063f2c6b2a69060640161043d565b60405163177bece160e21b81526004810182905260009081906001600160a01b0385169063b7cd72939073__$94c94c1f27eaba30857c7d0c37f90b5581$__90635defb3849060240160206040518083038186803b1580156113d257600080fd5b505af41580156113e6573d6000803e3d6000fd5b505050506040513d601f19601f8201168201806040525081019061140a919061275b565b6040516001600160e01b031960e084901b16815261ffff909116600482015260240160c06040518083038186803b15801561144457600080fd5b505afa158015611458573d6000803e3d6000fd5b505050506040513d601f19601f8201168201806040525081019061147c919061277f565b606001516040516364dc784760e11b81526004810185905290915060009073__$94c94c1f27eaba30857c7d0c37f90b5581$__9063c9b8f08e9060240160206040518083038186803b1580156114d157600080fd5b505af41580156114e5573d6000803e3d6000fd5b505050506040513d601f19601f8201168201806040525081019061150991906124b2565b604051632805fd7360e21b81526004810186905290915060009073__$94c94c1f27eaba30857c7d0c37f90b5581$__9063a017f5cc9060240160206040518083038186803b15801561155a57600080fd5b505af415801561156e573d6000803e3d6000fd5b505050506040513d601f19601f82011682018060405250810190611592919061273e565b905060018260ff161180156115ab57506115ab8161086b565b80156115d7575063ffffffff811660009081526004602052604090205465ffffffffffff808516911610155b156115e85760019350505050610915565b50600095945050505050565b73__$364aad554dc80380f414546becdd2c1584$__63a8ef95ac6002684174746f726e65797360b81b611625611d3f565b6040516001600160e01b031960e086901b1681526004810193909352602483019190915264ffffffffff16604482015260640160206040518083038186803b15801561167057600080fd5b505af4158015611684573d6000803e3d6000fd5b505050506040513d601f19601f820116820180604052508101906116a891906123b1565b6116c45760405162461bcd60e51b8152600401610566906123d3565b60008052600460208190526040516392fd02df60e01b81526000805160206128cd8339815191529181019190915263ffffffff8216602482015273__$8c1a4844a0a0988ea2454cf87145a95df1$__906392fd02df9060440160206040518083038186803b15801561173557600080fd5b505af4158015611749573d6000803e3d6000fd5b505050506040513d601f19601f8201168201806040525081019061176d91906123b1565b156117ad5763ffffffff81166000908152600460205260408120805465ffffffffffff1916815590600182018181816117a682826120e9565b5050505050505b50565b63ffffffff811660009081526004602081905260409182902080549251639857dfd560e01b815265ffffffffffff9093169260609273__$8c1a4844a0a0988ea2454cf87145a95df1$__92639857dfd592611815926001909201910190815260200190565b60006040518083038186803b15801561182d57600080fd5b505af4158015611841573d6000803e3d6000fd5b505050506040513d6000823e601f3d908101601f191682016040526118699190810190612691565b9050915091565b73__$364aad554dc80380f414546becdd2c1584$__63a8ef95ac6002684174746f726e65797360b81b6118a1611d3f565b6040516001600160e01b031960e086901b1681526004810193909352602483019190915264ffffffffff16604482015260640160206040518083038186803b1580156118ec57600080fd5b505af4158015611900573d6000803e3d6000fd5b505050506040513d601f19601f8201168201806040525081019061192491906123b1565b6119405760405162461bcd60e51b8152600401610566906123d3565b63ffffffff82166119935760405162461bcd60e51b815260206004820152601c60248201527f4c552e72656d6f76654b6579686f6c6465723a207a65726f2073736e000000006044820152606401610566565b63ffffffff821660009081526004602081905260409182902091516392fd02df60e01b815260019092019082015264ffffffffff8216602482015273__$8c1a4844a0a0988ea2454cf87145a95df1$__906392fd02df9060440161061d565b600080526004602081905260405163deddb1b760e01b815260609173__$8c1a4844a0a0988ea2454cf87145a95df1$__9163deddb1b791611a47916000805160206128cd833981519152910190815260200190565b60006040518083038186803b158015611a5f57600080fd5b505af4158015611a73573d6000803e3d6000fd5b505050506040513d6000823e601f3d908101601f191682016040526103d69190810190612815565b604051633c3e56c160e11b81526002600482015260009073__$364aad554dc80380f414546becdd2c1584$__9063787cad829060240160206040518083038186803b158015611ae957600080fd5b505af4158015611afd573d6000803e3d6000fd5b505050506040513d601f19601f820116820180604052508101906103d691906128af565b604051633b11adbf60e21b81526002600482015233602482015273__$364aad554dc80380f414546becdd2c1584$__9063ec46b6fc9060440160206040518083038186803b158015611b7257600080fd5b505af4158015611b86573d6000803e3d6000fd5b505050506040513d601f19601f82011682018060405250810190611baa91906123b1565b611bc65760405162461bcd60e51b815260040161056690612456565b600254600160f01b900460ff16600114611c225760405162461bcd60e51b815260206004820181905260248201527f41432e6f6e6c7950656e64696e673a20446f632069732066696e616c697a65646044820152606401610566565b60405163cc99e11b60e01b815260026004820152684174746f726e65797360b81b602482015273__$364aad554dc80380f414546becdd2c1584$__9063cc99e11b9060440160006040518083038186803b158015611c7f57600080fd5b505af4158015611c93573d6000803e3d6000fd5b5050604051632725ebef60e21b8152600260048201526000602482015273__$364aad554dc80380f414546becdd2c1584$__9250639c97afbc915060440160006040518083038186803b158015611ce957600080fd5b505af4158015611cfd573d6000803e3d6000fd5b50506002805460ff60f01b1916600160f11b17905550506040517f35012b512309c322acf68632cd6cb702ff0e1d776fbe9394e38ffc13b434fe7590600090a1565b60008054604051634de835e760e11b81523360048201526001600160a01b0390911690639bd06bce90602401602060405180830381600087803b158015611d8557600080fd5b505af11580156103b2573d6000803e3d6000fd5b600180546000916001600160a01b039091169063e06eba8c905b6040516001600160e01b031960e084901b16815260ff909116600482015260240160206040518083038186803b158015611dec57600080fd5b505afa158015611afd573d6000803e3d6000fd5b6001546000906001600160a01b031663e06eba8c82611db3565b6000611e258361086b565b611e3157506001610915565b63ffffffff831660009081526004602081905260408083209051639857dfd560e01b81526001820192810192909252919073__$8c1a4844a0a0988ea2454cf87145a95df1$__90639857dfd59060240160006040518083038186803b158015611e9957600080fd5b505af4158015611ead573d6000803e3d6000fd5b505050506040513d6000823e601f3d908101601f19168201604052611ed59190810190612691565b8051855191925090811115611ef05760009350505050610915565b60405163139a2fbd60e21b815273__$ccb256085f563a601d001f7c9087d87207$__90634e68bef490611f299085908990600401612710565b60206040518083038186803b158015611f4157600080fd5b505af4158015611f55573d6000803e3d6000fd5b505050506040513d601f19601f82011682018060405250810190611f7991906123b1565b9350505050610915565b6000546001600160a01b031615611fd45760405162461bcd60e51b815260206004820152601560248201527430b63932b0b23c9039b2ba103932b3a1b2b73a32b960591b6044820152606401610566565b6040516001600160a01b03821681527f318da6c7624c71cbc0afe346c9d8827f119d0ecefb241a7b0c87217a076a8e029060200160405180910390a1600080546001600160a01b0319166001600160a01b0392909216919091179055565b6001546001600160a01b03161561208b5760405162461bcd60e51b815260206004820152601960248201527f616c7265616479207365742067656e6572616c4b6565706572000000000000006044820152606401610566565b6040516001600160a01b03821681527fe513d3e0f0d0a3877029dcc588748679a7a3450ec1ec7ed56d96bd012c3e61aa9060200160405180910390a1600180546001600160a01b0319166001600160a01b0392909216919091179055565b50805460008255906000526020600020908101906117ad91905b808211156121175760008155600101612103565b5090565b64ffffffffff811681146117ad57600080fd5b6000806040838503121561214157600080fd5b8235915060208301356121538161211b565b809150509250929050565b63ffffffff811681146117ad57600080fd5b6000806040838503121561218357600080fd5b823561218e8161215e565b915060208301356121538161211b565b6000602082840312156121b057600080fd5b8135610ff48161211b565b6000602082840312156121cd57600080fd5b8135610ff48161215e565b6000602082840312156121ea57600080fd5b5035919050565b6001600160a01b03811681146117ad57600080fd5b6000806040838503121561221957600080fd5b8235612224816121f1565b946020939093013593505050565b65ffffffffffff811681146117ad57600080fd5b6000806040838503121561225957600080fd5b82356122648161215e565b9150602083013561215381612232565b60006020828403121561228657600080fd5b8135610ff4816121f1565b600080600080608085870312156122a757600080fd5b84356122b28161211b565b935060208501356122c2816121f1565b925060408501356122d2816121f1565b915060608501356122e2816121f1565b939692955090935050565b60006040820165ffffffffffff851683526020604081850152818551808452606086019150828701935060005b8181101561233d57845164ffffffffff168352938301939183019160010161231a565b5090979650505050505050565b6020808252825182820181905260009190848201906040850190845b8181101561238857835163ffffffff1683529284019291840191600101612366565b50909695505050505050565b6000602082840312156123a657600080fd5b8151610ff48161211b565b6000602082840312156123c357600080fd5b81518015158114610ff457600080fd5b60208082526013908201527241432e6f743a206e6f74204174746f726e657960681b604082015260600190565b60208082526036908201527f41432e6f776e65724f72446972656374426f6f6b65657065723a206e6569746860408201527532b91037bbb732b9103737b9103137b7b5b2b2b832b960511b606082015260800190565b60208082526026908201527f41432e6f6e6c794469726563744b65657065723a206e6f74206469726563742060408201526535b2b2b832b960d11b606082015260800190565b805160ff811681146124ad57600080fd5b919050565b6000602082840312156124c457600080fd5b610ff48261249c565b600082198211156124ee57634e487b7160e01b600052601160045260246000fd5b500190565b634e487b7160e01b600052604160045260246000fd5b604051601f8201601f1916810167ffffffffffffffff81118282101715612532576125326124f3565b604052919050565b805167ffffffffffffffff811681146124ad57600080fd5b600067ffffffffffffffff82111561256c5761256c6124f3565b5060051b60200190565b600082601f83011261258757600080fd5b8151602061259c61259783612552565b612509565b82815260059290921b840181019181810190868411156125bb57600080fd5b8286015b848110156125df5780516125d28161211b565b83529183019183016125bf565b509695505050505050565b6000602082840312156125fc57600080fd5b815167ffffffffffffffff8082111561261457600080fd5b908301906060828603121561262857600080fd5b604051606081018181108382111715612643576126436124f3565b60405282516126518161215e565b815261265f6020840161253a565b602082015260408301518281111561267657600080fd5b61268287828601612576565b60408301525095945050505050565b6000602082840312156126a357600080fd5b815167ffffffffffffffff8111156126ba57600080fd5b6126c684828501612576565b949350505050565b600081518084526020808501945080840160005b8381101561270557815164ffffffffff16875295820195908201906001016126e2565b509495945050505050565b60408152600061272360408301856126ce565b828103602084015261273581856126ce565b95945050505050565b60006020828403121561275057600080fd5b8151610ff48161215e565b60006020828403121561276d57600080fd5b815161ffff81168114610ff457600080fd5b600060c0828403121561279157600080fd5b60405160c0810181811067ffffffffffffffff821117156127b4576127b46124f3565b604052825181526127c76020840161253a565b60208201526127d86040840161253a565b604082015260608301516127eb81612232565b60608201526127fc6080840161249c565b608082015260a083015160a08201528091505092915050565b6000602080838503121561282857600080fd5b825167ffffffffffffffff81111561283f57600080fd5b8301601f8101851361285057600080fd5b805161285e61259782612552565b81815260059190911b8201830190838101908783111561287d57600080fd5b928401925b828410156128a45783516128958161215e565b82529284019290840190612882565b979650505050505050565b6000602082840312156128c157600080fd5b8151610ff4816121f156fe17ef568e3e12ab5b9c7254a8d58478811de00f9e6eb34345acd53bf8fd09d3eda264697066735822122054f661b5faa7507e43c58fac776502fcd6092ec5f8bbffc64288623780e87f3864736f6c63430008080033",
    "sourcePath": "/Users/kaptain/github.com/hardhat/comboox/contracts/books/boh/terms/LockUp.sol",
    "compiler": {
        "name": "solc",
        "version": "0.8.8+commit.dddeac2f"
    },
    "functionHashes": {
        "abandonRole(bytes32)": "3da9a600",
        "addKeyholder(uint32,uint40)": "1c2780aa",
        "delLocker(uint32)": "9815fbba",
        "finalized()": "b3f05b97",
        "getBookeeper()": "ed211023",
        "getGeneralCounsel()": "103f6edd",
        "getLocker(uint32)": "d3a9a4f5",
        "getOwner()": "893d20e8",
        "grantRole(bytes32,uint40)": "74099815",
        "hasRole(bytes32,uint40)": "79b2ec12",
        "init(uint40,address,address,address)": "821ee8ea",
        "isExempted(address,bytes32)": "52000f51",
        "isLocked(uint32)": "3d6a2679",
        "isTriggered(address,bytes32)": "8e5a886f",
        "lockContents()": "f045a769",
        "lockedShares()": "e95502fb",
        "removeKeyholder(uint32,uint40)": "e0f50d36",
        "renounceRole(bytes32)": "8bb9c5bf",
        "revokeRole(bytes32,uint40)": "17c51fec",
        "setDirectKeeper(address)": "6be8496f",
        "setGeneralCounsel(uint40)": "3178a9a9",
        "setLocker(uint32,uint48)": "589e2295",
        "setOwner(uint40)": "7ba706e8",
        "setRoleAdmin(bytes32,uint40)": "16dc517e"
    },
    "gasEstimates": {
        "creation": {
            "codeDepositCost": "2106000",
            "executionCost": "2243",
            "totalCost": "2108243"
        },
        "external": {
            "abandonRole(bytes32)": "infinite",
            "addKeyholder(uint32,uint40)": "infinite",
            "delLocker(uint32)": "infinite",
            "finalized()": "2349",
            "getBookeeper()": "infinite",
            "getGeneralCounsel()": "infinite",
            "getLocker(uint32)": "infinite",
            "getOwner()": "infinite",
            "grantRole(bytes32,uint40)": "infinite",
            "hasRole(bytes32,uint40)": "infinite",
            "init(uint40,address,address,address)": "infinite",
            "isExempted(address,bytes32)": "infinite",
            "isLocked(uint32)": "infinite",
            "isTriggered(address,bytes32)": "infinite",
            "lockContents()": "infinite",
            "lockedShares()": "infinite",
            "removeKeyholder(uint32,uint40)": "infinite",
            "renounceRole(bytes32)": "infinite",
            "revokeRole(bytes32,uint40)": "infinite",
            "setDirectKeeper(address)": "infinite",
            "setGeneralCounsel(uint40)": "infinite",
            "setLocker(uint32,uint48)": "infinite",
            "setOwner(uint40)": "infinite",
            "setRoleAdmin(bytes32,uint40)": "infinite"
        },
        "internal": {
            "_isExempted(uint32,uint40[] memory)": "infinite"
        }
    }
}