{
    "contractName": "Options",
    "abi": [
        {
            "anonymous": false,
            "inputs": [
                {
                    "indexed": false,
                    "internalType": "uint256",
                    "name": "owner",
                    "type": "uint256"
                },
                {
                    "indexed": false,
                    "internalType": "address",
                    "name": "directKeeper",
                    "type": "address"
                },
                {
                    "indexed": false,
                    "internalType": "address",
                    "name": "regCenter",
                    "type": "address"
                },
                {
                    "indexed": false,
                    "internalType": "address",
                    "name": "generalKeeper",
                    "type": "address"
                }
            ],
            "name": "Init",
            "type": "event"
        },
        {
            "anonymous": false,
            "inputs": [],
            "name": "LockContents",
            "type": "event"
        },
        {
            "anonymous": false,
            "inputs": [
                {
                    "indexed": false,
                    "internalType": "address",
                    "name": "keeper",
                    "type": "address"
                }
            ],
            "name": "SetDirectKeeper",
            "type": "event"
        },
        {
            "anonymous": false,
            "inputs": [
                {
                    "indexed": false,
                    "internalType": "uint256",
                    "name": "acct",
                    "type": "uint256"
                }
            ],
            "name": "SetGeneralCounsel",
            "type": "event"
        },
        {
            "anonymous": false,
            "inputs": [
                {
                    "indexed": false,
                    "internalType": "uint256",
                    "name": "acct",
                    "type": "uint256"
                }
            ],
            "name": "SetOwner",
            "type": "event"
        },
        {
            "inputs": [
                {
                    "internalType": "bytes32",
                    "name": "role",
                    "type": "bytes32"
                }
            ],
            "name": "abandonRole",
            "outputs": [],
            "stateMutability": "nonpayable",
            "type": "function"
        },
        {
            "inputs": [
                {
                    "internalType": "uint256",
                    "name": "seqOfOpt",
                    "type": "uint256"
                },
                {
                    "internalType": "uint256",
                    "name": "obligor",
                    "type": "uint256"
                }
            ],
            "name": "addObligorIntoOpt",
            "outputs": [
                {
                    "internalType": "bool",
                    "name": "flag",
                    "type": "bool"
                }
            ],
            "stateMutability": "nonpayable",
            "type": "function"
        },
        {
            "inputs": [],
            "name": "counterOfOptions",
            "outputs": [
                {
                    "internalType": "uint32",
                    "name": "",
                    "type": "uint32"
                }
            ],
            "stateMutability": "view",
            "type": "function"
        },
        {
            "inputs": [
                {
                    "internalType": "uint256",
                    "name": "snOfOpt",
                    "type": "uint256"
                },
                {
                    "internalType": "uint256",
                    "name": "snOfCond",
                    "type": "uint256"
                },
                {
                    "internalType": "uint256",
                    "name": "rightholder",
                    "type": "uint256"
                },
                {
                    "internalType": "uint256",
                    "name": "paid",
                    "type": "uint256"
                },
                {
                    "internalType": "uint256",
                    "name": "par",
                    "type": "uint256"
                }
            ],
            "name": "createOption",
            "outputs": [
                {
                    "components": [
                        {
                            "internalType": "uint32",
                            "name": "seqOfOpt",
                            "type": "uint32"
                        },
                        {
                            "internalType": "uint8",
                            "name": "typeOfOpt",
                            "type": "uint8"
                        },
                        {
                            "internalType": "uint16",
                            "name": "classOfShare",
                            "type": "uint16"
                        },
                        {
                            "internalType": "uint32",
                            "name": "rate",
                            "type": "uint32"
                        },
                        {
                            "internalType": "uint48",
                            "name": "issueDate",
                            "type": "uint48"
                        },
                        {
                            "internalType": "uint48",
                            "name": "triggerDate",
                            "type": "uint48"
                        },
                        {
                            "internalType": "uint16",
                            "name": "execDays",
                            "type": "uint16"
                        },
                        {
                            "internalType": "uint16",
                            "name": "closingDays",
                            "type": "uint16"
                        },
                        {
                            "internalType": "uint40",
                            "name": "obligor",
                            "type": "uint40"
                        }
                    ],
                    "internalType": "struct OptionsRepo.Head",
                    "name": "head",
                    "type": "tuple"
                }
            ],
            "stateMutability": "nonpayable",
            "type": "function"
        },
        {
            "inputs": [
                {
                    "internalType": "uint256",
                    "name": "seqOfOpt",
                    "type": "uint256"
                }
            ],
            "name": "delOption",
            "outputs": [
                {
                    "internalType": "bool",
                    "name": "flag",
                    "type": "bool"
                }
            ],
            "stateMutability": "nonpayable",
            "type": "function"
        },
        {
            "inputs": [],
            "name": "finalized",
            "outputs": [
                {
                    "internalType": "bool",
                    "name": "",
                    "type": "bool"
                }
            ],
            "stateMutability": "view",
            "type": "function"
        },
        {
            "inputs": [],
            "name": "getAllOptions",
            "outputs": [
                {
                    "components": [
                        {
                            "components": [
                                {
                                    "internalType": "uint32",
                                    "name": "seqOfOpt",
                                    "type": "uint32"
                                },
                                {
                                    "internalType": "uint8",
                                    "name": "typeOfOpt",
                                    "type": "uint8"
                                },
                                {
                                    "internalType": "uint16",
                                    "name": "classOfShare",
                                    "type": "uint16"
                                },
                                {
                                    "internalType": "uint32",
                                    "name": "rate",
                                    "type": "uint32"
                                },
                                {
                                    "internalType": "uint48",
                                    "name": "issueDate",
                                    "type": "uint48"
                                },
                                {
                                    "internalType": "uint48",
                                    "name": "triggerDate",
                                    "type": "uint48"
                                },
                                {
                                    "internalType": "uint16",
                                    "name": "execDays",
                                    "type": "uint16"
                                },
                                {
                                    "internalType": "uint16",
                                    "name": "closingDays",
                                    "type": "uint16"
                                },
                                {
                                    "internalType": "uint40",
                                    "name": "obligor",
                                    "type": "uint40"
                                }
                            ],
                            "internalType": "struct OptionsRepo.Head",
                            "name": "head",
                            "type": "tuple"
                        },
                        {
                            "components": [
                                {
                                    "internalType": "uint32",
                                    "name": "seq",
                                    "type": "uint32"
                                },
                                {
                                    "internalType": "uint8",
                                    "name": "logicOpr",
                                    "type": "uint8"
                                },
                                {
                                    "internalType": "uint8",
                                    "name": "compOpr1",
                                    "type": "uint8"
                                },
                                {
                                    "internalType": "uint64",
                                    "name": "para1",
                                    "type": "uint64"
                                },
                                {
                                    "internalType": "uint8",
                                    "name": "compOpr2",
                                    "type": "uint8"
                                },
                                {
                                    "internalType": "uint64",
                                    "name": "para2",
                                    "type": "uint64"
                                },
                                {
                                    "internalType": "uint8",
                                    "name": "compOpr3",
                                    "type": "uint8"
                                },
                                {
                                    "internalType": "uint64",
                                    "name": "para3",
                                    "type": "uint64"
                                }
                            ],
                            "internalType": "struct CondsRepo.Cond",
                            "name": "cond",
                            "type": "tuple"
                        },
                        {
                            "components": [
                                {
                                    "internalType": "uint48",
                                    "name": "closingDate",
                                    "type": "uint48"
                                },
                                {
                                    "internalType": "uint40",
                                    "name": "rightholder",
                                    "type": "uint40"
                                },
                                {
                                    "internalType": "uint64",
                                    "name": "paid",
                                    "type": "uint64"
                                },
                                {
                                    "internalType": "uint64",
                                    "name": "par",
                                    "type": "uint64"
                                },
                                {
                                    "internalType": "uint8",
                                    "name": "state",
                                    "type": "uint8"
                                },
                                {
                                    "internalType": "uint16",
                                    "name": "para",
                                    "type": "uint16"
                                },
                                {
                                    "internalType": "uint16",
                                    "name": "arg",
                                    "type": "uint16"
                                }
                            ],
                            "internalType": "struct OptionsRepo.Body",
                            "name": "body",
                            "type": "tuple"
                        }
                    ],
                    "internalType": "struct OptionsRepo.Option[]",
                    "name": "",
                    "type": "tuple[]"
                }
            ],
            "stateMutability": "view",
            "type": "function"
        },
        {
            "inputs": [],
            "name": "getBookeeper",
            "outputs": [
                {
                    "internalType": "address",
                    "name": "",
                    "type": "address"
                }
            ],
            "stateMutability": "view",
            "type": "function"
        },
        {
            "inputs": [],
            "name": "getGeneralCounsel",
            "outputs": [
                {
                    "internalType": "uint40",
                    "name": "",
                    "type": "uint40"
                }
            ],
            "stateMutability": "view",
            "type": "function"
        },
        {
            "inputs": [
                {
                    "internalType": "uint256",
                    "name": "seqOfOpt",
                    "type": "uint256"
                }
            ],
            "name": "getObligorsOfOption",
            "outputs": [
                {
                    "internalType": "uint256[]",
                    "name": "",
                    "type": "uint256[]"
                }
            ],
            "stateMutability": "view",
            "type": "function"
        },
        {
            "inputs": [
                {
                    "internalType": "uint256",
                    "name": "seqOfOpt",
                    "type": "uint256"
                }
            ],
            "name": "getOption",
            "outputs": [
                {
                    "components": [
                        {
                            "components": [
                                {
                                    "internalType": "uint32",
                                    "name": "seqOfOpt",
                                    "type": "uint32"
                                },
                                {
                                    "internalType": "uint8",
                                    "name": "typeOfOpt",
                                    "type": "uint8"
                                },
                                {
                                    "internalType": "uint16",
                                    "name": "classOfShare",
                                    "type": "uint16"
                                },
                                {
                                    "internalType": "uint32",
                                    "name": "rate",
                                    "type": "uint32"
                                },
                                {
                                    "internalType": "uint48",
                                    "name": "issueDate",
                                    "type": "uint48"
                                },
                                {
                                    "internalType": "uint48",
                                    "name": "triggerDate",
                                    "type": "uint48"
                                },
                                {
                                    "internalType": "uint16",
                                    "name": "execDays",
                                    "type": "uint16"
                                },
                                {
                                    "internalType": "uint16",
                                    "name": "closingDays",
                                    "type": "uint16"
                                },
                                {
                                    "internalType": "uint40",
                                    "name": "obligor",
                                    "type": "uint40"
                                }
                            ],
                            "internalType": "struct OptionsRepo.Head",
                            "name": "head",
                            "type": "tuple"
                        },
                        {
                            "components": [
                                {
                                    "internalType": "uint32",
                                    "name": "seq",
                                    "type": "uint32"
                                },
                                {
                                    "internalType": "uint8",
                                    "name": "logicOpr",
                                    "type": "uint8"
                                },
                                {
                                    "internalType": "uint8",
                                    "name": "compOpr1",
                                    "type": "uint8"
                                },
                                {
                                    "internalType": "uint64",
                                    "name": "para1",
                                    "type": "uint64"
                                },
                                {
                                    "internalType": "uint8",
                                    "name": "compOpr2",
                                    "type": "uint8"
                                },
                                {
                                    "internalType": "uint64",
                                    "name": "para2",
                                    "type": "uint64"
                                },
                                {
                                    "internalType": "uint8",
                                    "name": "compOpr3",
                                    "type": "uint8"
                                },
                                {
                                    "internalType": "uint64",
                                    "name": "para3",
                                    "type": "uint64"
                                }
                            ],
                            "internalType": "struct CondsRepo.Cond",
                            "name": "cond",
                            "type": "tuple"
                        },
                        {
                            "components": [
                                {
                                    "internalType": "uint48",
                                    "name": "closingDate",
                                    "type": "uint48"
                                },
                                {
                                    "internalType": "uint40",
                                    "name": "rightholder",
                                    "type": "uint40"
                                },
                                {
                                    "internalType": "uint64",
                                    "name": "paid",
                                    "type": "uint64"
                                },
                                {
                                    "internalType": "uint64",
                                    "name": "par",
                                    "type": "uint64"
                                },
                                {
                                    "internalType": "uint8",
                                    "name": "state",
                                    "type": "uint8"
                                },
                                {
                                    "internalType": "uint16",
                                    "name": "para",
                                    "type": "uint16"
                                },
                                {
                                    "internalType": "uint16",
                                    "name": "arg",
                                    "type": "uint16"
                                }
                            ],
                            "internalType": "struct OptionsRepo.Body",
                            "name": "body",
                            "type": "tuple"
                        }
                    ],
                    "internalType": "struct OptionsRepo.Option",
                    "name": "option",
                    "type": "tuple"
                }
            ],
            "stateMutability": "view",
            "type": "function"
        },
        {
            "inputs": [],
            "name": "getOwner",
            "outputs": [
                {
                    "internalType": "uint40",
                    "name": "",
                    "type": "uint40"
                }
            ],
            "stateMutability": "view",
            "type": "function"
        },
        {
            "inputs": [],
            "name": "getSNList",
            "outputs": [
                {
                    "internalType": "uint256[]",
                    "name": "",
                    "type": "uint256[]"
                }
            ],
            "stateMutability": "view",
            "type": "function"
        },
        {
            "inputs": [
                {
                    "internalType": "bytes32",
                    "name": "role",
                    "type": "bytes32"
                },
                {
                    "internalType": "uint256",
                    "name": "acct",
                    "type": "uint256"
                }
            ],
            "name": "grantRole",
            "outputs": [],
            "stateMutability": "nonpayable",
            "type": "function"
        },
        {
            "inputs": [
                {
                    "internalType": "bytes32",
                    "name": "role",
                    "type": "bytes32"
                },
                {
                    "internalType": "uint256",
                    "name": "acct",
                    "type": "uint256"
                }
            ],
            "name": "hasRole",
            "outputs": [
                {
                    "internalType": "bool",
                    "name": "",
                    "type": "bool"
                }
            ],
            "stateMutability": "view",
            "type": "function"
        },
        {
            "inputs": [
                {
                    "internalType": "uint256",
                    "name": "owner",
                    "type": "uint256"
                },
                {
                    "internalType": "address",
                    "name": "directKeeper",
                    "type": "address"
                },
                {
                    "internalType": "address",
                    "name": "regCenter",
                    "type": "address"
                },
                {
                    "internalType": "address",
                    "name": "generalKeeper",
                    "type": "address"
                }
            ],
            "name": "init",
            "outputs": [],
            "stateMutability": "nonpayable",
            "type": "function"
        },
        {
            "inputs": [
                {
                    "internalType": "uint256",
                    "name": "seqOfOpt",
                    "type": "uint256"
                },
                {
                    "internalType": "uint256",
                    "name": "acct",
                    "type": "uint256"
                }
            ],
            "name": "isObligor",
            "outputs": [
                {
                    "internalType": "bool",
                    "name": "",
                    "type": "bool"
                }
            ],
            "stateMutability": "view",
            "type": "function"
        },
        {
            "inputs": [
                {
                    "internalType": "uint256",
                    "name": "seqOfOpt",
                    "type": "uint256"
                }
            ],
            "name": "isOption",
            "outputs": [
                {
                    "internalType": "bool",
                    "name": "",
                    "type": "bool"
                }
            ],
            "stateMutability": "view",
            "type": "function"
        },
        {
            "inputs": [],
            "name": "lockContents",
            "outputs": [],
            "stateMutability": "nonpayable",
            "type": "function"
        },
        {
            "inputs": [
                {
                    "internalType": "uint256",
                    "name": "seqOfOpt",
                    "type": "uint256"
                },
                {
                    "internalType": "uint256",
                    "name": "obligor",
                    "type": "uint256"
                }
            ],
            "name": "removeObligorFromOpt",
            "outputs": [
                {
                    "internalType": "bool",
                    "name": "flag",
                    "type": "bool"
                }
            ],
            "stateMutability": "nonpayable",
            "type": "function"
        },
        {
            "inputs": [
                {
                    "internalType": "bytes32",
                    "name": "role",
                    "type": "bytes32"
                }
            ],
            "name": "renounceRole",
            "outputs": [],
            "stateMutability": "nonpayable",
            "type": "function"
        },
        {
            "inputs": [
                {
                    "internalType": "bytes32",
                    "name": "role",
                    "type": "bytes32"
                },
                {
                    "internalType": "uint256",
                    "name": "acct",
                    "type": "uint256"
                }
            ],
            "name": "revokeRole",
            "outputs": [],
            "stateMutability": "nonpayable",
            "type": "function"
        },
        {
            "inputs": [
                {
                    "internalType": "address",
                    "name": "keeper",
                    "type": "address"
                }
            ],
            "name": "setDirectKeeper",
            "outputs": [],
            "stateMutability": "nonpayable",
            "type": "function"
        },
        {
            "inputs": [
                {
                    "internalType": "uint256",
                    "name": "acct",
                    "type": "uint256"
                }
            ],
            "name": "setGeneralCounsel",
            "outputs": [],
            "stateMutability": "nonpayable",
            "type": "function"
        },
        {
            "inputs": [
                {
                    "internalType": "uint256",
                    "name": "acct",
                    "type": "uint256"
                }
            ],
            "name": "setOwner",
            "outputs": [],
            "stateMutability": "nonpayable",
            "type": "function"
        },
        {
            "inputs": [
                {
                    "internalType": "bytes32",
                    "name": "role",
                    "type": "bytes32"
                },
                {
                    "internalType": "uint256",
                    "name": "acct",
                    "type": "uint256"
                }
            ],
            "name": "setRoleAdmin",
            "outputs": [],
            "stateMutability": "nonpayable",
            "type": "function"
        }
    ],
    "bytecode": "608060405234801561001057600080fd5b5061273f806100206000396000f3fe608060405234801561001057600080fd5b506004361061018e5760003560e01c80636be8496f116100de578063b02f703c11610097578063dc890da911610071578063dc890da9146103c1578063e87a6f18146103d4578063ed211023146103dc578063f045a769146103fc57600080fd5b8063b02f703c1461035c578063b3be456a1461037c578063b3f05b97146103ad57600080fd5b80636be8496f146102e85780637e063c5a146102fb5780638041494e1461030e578063809bf77b14610321578063893d20e8146103415780638bb9c5bf1461034957600080fd5b80633bce3c301161014b5780634b4b0d37116101255780634b4b0d371461029a5780635171ebd4146102af57806356da88d1146102c25780635a601d61146102d557600080fd5b80633bce3c30146102615780633da9a600146102745780634a14beb11461028757600080fd5b8063103f6edd146101935780631368f327146101b657806319d61ad9146101f65780631b6ea9f91461020b5780631ce5e9a61461021e57806326d29afa1461023e575b600080fd5b61019b610404565b60405164ffffffffff90911681526020015b60405180910390f35b60008052600460209081527f17ef568e3e12ab5b9c7254a8d58478811de00f9e6eb34345acd53bf8fd09d3ec5460405163ffffffff9091168152016101ad565b610209610204366004611e1e565b610490565b005b610209610219366004611e1e565b610522565b61023161022c366004611e40565b610548565b6040516101ad9190612012565b61025161024c366004611e1e565b61099d565b60405190151581526020016101ad565b61025161026f366004611e1e565b610b36565b610209610282366004611e40565b610b84565b610209610295366004611e40565b610c0f565b6102a2610e6c565b6040516101ad9190612021565b6102096102bd366004611e1e565b610ef5565b6102516102d0366004611e1e565b610f1b565b6102516102e3366004611e40565b61105f565b6102096102f6366004612085565b611349565b610251610309366004611e1e565b6113fb565b61020961031c366004611e40565b611444565b61033461032f366004611e40565b6114fd565b6040516101ad91906120a9565b61019b61159c565b610209610357366004611e40565b6115d7565b61036f61036a3660046120e1565b6115fc565b6040516101ad919061211c565b61025161038a366004611e40565b600090815260046020526040902054600160581b900465ffffffffffff16151590565b60028054600160f01b900460ff1614610251565b6102096103cf36600461212b565b611784565b610334611866565b6103e46118f0565b6040516001600160a01b0390911681526020016101ad565b610209611976565b60405163e8c0cc1d60e01b81526002600482015260009073__$364aad554dc80380f414546becdd2c1584$__9063e8c0cc1d906024015b60206040518083038186803b15801561045357600080fd5b505af4158015610467573d6000803e3d6000fd5b505050506040513d601f19601f8201168201806040525081019061048b9190612198565b905090565b73__$364aad554dc80380f414546becdd2c1584$__6382daafaa600284846104b6611bba565b6040516001600160e01b031960e087901b16815260048101949094526024840192909252604483015264ffffffffff16606482015260840160006040518083038186803b15801561050657600080fd5b505af415801561051a573d6000803e3d6000fd5b505050505050565b73__$364aad554dc80380f414546becdd2c1584$__636320d75e600284846104b6611bba565b610550611d02565b600082815260046020526040902054600160581b900465ffffffffffff166105b65760405162461bcd60e51b815260206004820152601460248201527313d40b91d3ce881bdc1d081b9bdd08195e1a5cdd60621b60448201526064015b60405180910390fd5b6004600001600083815260200190815260200160002060405180606001604052908160008201604051806101200160405290816000820160009054906101000a900463ffffffff1663ffffffff1663ffffffff1681526020016000820160049054906101000a900460ff1660ff1660ff1681526020016000820160059054906101000a900461ffff1661ffff1661ffff1681526020016000820160079054906101000a900463ffffffff1663ffffffff1663ffffffff16815260200160008201600b9054906101000a900465ffffffffffff1665ffffffffffff1665ffffffffffff1681526020016000820160119054906101000a900465ffffffffffff1665ffffffffffff1665ffffffffffff1681526020016000820160179054906101000a900461ffff1661ffff1661ffff1681526020016000820160199054906101000a900461ffff1661ffff1661ffff16815260200160008201601b9054906101000a900464ffffffffff1664ffffffffff1664ffffffffff1681525050815260200160018201604051806101000160405290816000820160009054906101000a900463ffffffff1663ffffffff1663ffffffff1681526020016000820160049054906101000a900460ff1660ff1660ff1681526020016000820160059054906101000a900460ff1660ff1660ff1681526020016000820160069054906101000a90046001600160401b03166001600160401b03166001600160401b0316815260200160008201600e9054906101000a900460ff1660ff1660ff16815260200160008201600f9054906101000a90046001600160401b03166001600160401b03166001600160401b031681526020016000820160179054906101000a900460ff1660ff1660ff1681526020016000820160189054906101000a90046001600160401b03166001600160401b03166001600160401b0316815250508152602001600282016040518060e00160405290816000820160009054906101000a900465ffffffffffff1665ffffffffffff1665ffffffffffff1681526020016000820160069054906101000a900464ffffffffff1664ffffffffff1664ffffffffff16815260200160008201600b9054906101000a90046001600160401b03166001600160401b03166001600160401b031681526020016000820160139054906101000a90046001600160401b03166001600160401b03166001600160401b0316815260200160008201601b9054906101000a900460ff1660ff1660ff16815260200160008201601c9054906101000a900461ffff1661ffff1661ffff16815260200160008201601e9054906101000a900461ffff1661ffff1661ffff1681525050815250509050919050565b600073__$364aad554dc80380f414546becdd2c1584$__63a8ef95ac6002684174746f726e65797360b81b6109d0611bba565b6040516001600160e01b031960e086901b1681526004810193909352602483019190915264ffffffffff16604482015260640160206040518083038186803b158015610a1b57600080fd5b505af4158015610a2f573d6000803e3d6000fd5b505050506040513d601f19601f82011682018060405250810190610a5391906121b3565b610a6f5760405162461bcd60e51b81526004016105ad906121d5565b600083815260046020526040902054600160581b900465ffffffffffff1615610b30576000838152600560205260409081902090516392f13c3f60e01b815260048101919091526024810183905273__$8c1a4844a0a0988ea2454cf87145a95df1$__906392f13c3f906044015b60206040518083038186803b158015610af557600080fd5b505af4158015610b09573d6000803e3d6000fd5b505050506040513d601f19601f82011682018060405250810190610b2d91906121b3565b90505b92915050565b6000828152600560205260408082209051633f5f77cd60e01b815260048101919091526024810183905273__$8c1a4844a0a0988ea2454cf87145a95df1$__90633f5f77cd90604401610add565b73__$364aad554dc80380f414546becdd2c1584$__63c51b295f600283610ba9611bba565b6040516001600160e01b031960e086901b1681526004810193909352602483019190915264ffffffffff16604482015260640160006040518083038186803b158015610bf457600080fd5b505af4158015610c08573d6000803e3d6000fd5b5050505050565b604051633b11adbf60e21b81526002600482015233602482015273__$364aad554dc80380f414546becdd2c1584$__9063ec46b6fc9060440160206040518083038186803b158015610c6057600080fd5b505af4158015610c74573d6000803e3d6000fd5b505050506040513d601f19601f82011682018060405250810190610c9891906121b3565b80610d3d575073__$364aad554dc80380f414546becdd2c1584$__63fe2710866002610cc2611bba565b6040516001600160e01b031960e085901b168152600481019290925264ffffffffff16602482015260440160206040518083038186803b158015610d0557600080fd5b505af4158015610d19573d6000803e3d6000fd5b505050506040513d601f19601f82011682018060405250810190610d3d91906121b3565b610da85760405162461bcd60e51b815260206004820152603660248201527f41432e6f776e65724f72446972656374426f6f6b65657065723a206e6569746860448201527532b91037bbb732b9103737b9103137b7b5b2b2b832b960511b60648201526084016105ad565b73__$364aad554dc80380f414546becdd2c1584$__639b4510de600283610dcd611bba565b6040516001600160e01b031960e086901b1681526004810193909352602483019190915264ffffffffff16604482015260640160006040518083038186803b158015610e1857600080fd5b505af4158015610e2c573d6000803e3d6000fd5b505050507ff2735f34b69be1e6342dea95f9162f84d0db925fab655ca9f1f312ac8cbfc99d81604051610e6191815260200190565b60405180910390a150565b60405163741524b760e11b815260048082015260609073__$bd0f380ab135f83a7568cac3e5fc41e1e4$__9063e82a496e9060240160006040518083038186803b158015610eb957600080fd5b505af4158015610ecd573d6000803e3d6000fd5b505050506040513d6000823e601f3d908101601f1916820160405261048b91908101906124a6565b73__$364aad554dc80380f414546becdd2c1584$__63ee98b313600284846104b6611bba565b600073__$364aad554dc80380f414546becdd2c1584$__63a8ef95ac6002684174746f726e65797360b81b610f4e611bba565b6040516001600160e01b031960e086901b1681526004810193909352602483019190915264ffffffffff16604482015260640160206040518083038186803b158015610f9957600080fd5b505af4158015610fad573d6000803e3d6000fd5b505050506040513d601f19601f82011682018060405250810190610fd191906121b3565b610fed5760405162461bcd60e51b81526004016105ad906121d5565b600083815260046020526040902054600160581b900465ffffffffffff1615610b30576000838152600560205260409081902090516392fd02df60e01b815260048101919091526024810183905273__$8c1a4844a0a0988ea2454cf87145a95df1$__906392fd02df90604401610add565b600073__$364aad554dc80380f414546becdd2c1584$__63a8ef95ac6002684174746f726e65797360b81b611092611bba565b6040516001600160e01b031960e086901b1681526004810193909352602483019190915264ffffffffff16604482015260640160206040518083038186803b1580156110dd57600080fd5b505af41580156110f1573d6000803e3d6000fd5b505050506040513d601f19601f8201168201806040525081019061111591906121b3565b6111315760405162461bcd60e51b81526004016105ad906121d5565b600082815260046020818152604092839020835161012081018552905463ffffffff8082168352640100000000820460ff169383019390935265010000000000810461ffff9081168387015267010000000000000082049093166060830152600160581b810465ffffffffffff9081166080840152600160881b82041660a0830152600160b81b8104831660c0830152600160c81b810490921660e0820152600160d81b90910464ffffffffff16610100820152915163191b63f760e11b815273__$8c1a4844a0a0988ea2454cf87145a95df1$__916392fd02df9160069173__$bd0f380ab135f83a7568cac3e5fc41e1e4$__91633236c7ee916112389188910161211c565b60206040518083038186803b15801561125057600080fd5b505af4158015611264573d6000803e3d6000fd5b505050506040513d601f19601f820116820180604052508101906112889190612626565b6040516001600160e01b031960e085901b1681526004810192909252602482015260440160206040518083038186803b1580156112c457600080fd5b505af41580156112d8573d6000803e3d6000fd5b505050506040513d601f19601f820116820180604052508101906112fc91906121b3565b15611343576000838152600460209081526040808320838155600181018490556002018390556005909152812090818181816113388282611d98565b505050505050600191505b50919050565b604051630f07232560e01b8152600260048201526001600160a01b038216602482015233604482015273__$364aad554dc80380f414546becdd2c1584$__90630f0723259060640160006040518083038186803b1580156113a957600080fd5b505af41580156113bd573d6000803e3d6000fd5b50506040516001600160a01b03841681527fe435cbeab64e4eae6497b9d8289704bd709d624a80704ef3ca9af777534bc6ec92506020019050610e61565b604051632a3be56b60e21b815260026004820152602481018390526044810182905260009073__$364aad554dc80380f414546becdd2c1584$__9063a8ef95ac90606401610add565b73__$364aad554dc80380f414546becdd2c1584$__639b48160c600283611469611bba565b6040516001600160e01b031960e086901b1681526004810193909352602483019190915264ffffffffff16604482015260640160006040518083038186803b1580156114b457600080fd5b505af41580156114c8573d6000803e3d6000fd5b505050507f8b6f40f36b4ae8cc5f55e895036457c43da4ab1f80f58c46f5ff0d72a650033b81604051610e6191815260200190565b60008181526005602052604090819020905163034306e160e21b815260609173__$8c1a4844a0a0988ea2454cf87145a95df1$__91630d0c1b84916115489160040190815260200190565b60006040518083038186803b15801561156057600080fd5b505af4158015611574573d6000803e3d6000fd5b505050506040513d6000823e601f3d908101601f19168201604052610b30919081019061263f565b60405163987ad15360e01b81526002600482015260009073__$364aad554dc80380f414546becdd2c1584$__9063987ad1539060240161043b565b73__$364aad554dc80380f414546becdd2c1584$__63cc0d511b600283610ba9611bba565b611604611db9565b73__$364aad554dc80380f414546becdd2c1584$__63a8ef95ac6002684174746f726e65797360b81b611635611bba565b6040516001600160e01b031960e086901b1681526004810193909352602483019190915264ffffffffff16604482015260640160206040518083038186803b15801561168057600080fd5b505af4158015611694573d6000803e3d6000fd5b505050506040513d601f19601f820116820180604052508101906116b891906121b3565b6116d45760405162461bcd60e51b81526004016105ad906121d5565b6040516308c1f27160e01b81526004808201526024810187905260448101869052606481018590526084810184905260a4810183905273__$bd0f380ab135f83a7568cac3e5fc41e1e4$__906308c1f2719060c4016101206040518083038186803b15801561174257600080fd5b505af4158015611756573d6000803e3d6000fd5b505050506040513d601f19601f8201168201806040525081019061177a91906126cf565b9695505050505050565b604051636cdd0edf60e11b815260026004820152602481018590526001600160a01b038416604482015273__$364aad554dc80380f414546becdd2c1584$__9063d9ba1dbe9060640160006040518083038186803b1580156117e557600080fd5b505af41580156117f9573d6000803e3d6000fd5b5050505061180682611c14565b61180f81611c87565b604080518581526001600160a01b038581166020830152848116828401528316606082015290517f3abb2418c66fe32ba9c883030a75ce583971d9af9192b9b74e44e67c5e6c8c1f9181900360800190a150505050565b60405163034306e160e21b81526006600482015260609073__$8c1a4844a0a0988ea2454cf87145a95df1$__90630d0c1b849060240160006040518083038186803b1580156118b457600080fd5b505af41580156118c8573d6000803e3d6000fd5b505050506040513d6000823e601f3d908101601f1916820160405261048b919081019061263f565b604051633c3e56c160e11b81526002600482015260009073__$364aad554dc80380f414546becdd2c1584$__9063787cad829060240160206040518083038186803b15801561193e57600080fd5b505af4158015611952573d6000803e3d6000fd5b505050506040513d601f19601f8201168201806040525081019061048b91906126ec565b600254600160f01b900460ff166001146119d25760405162461bcd60e51b815260206004820152601760248201527f41432e4c433a20446f632069732066696e616c697a656400000000000000000060448201526064016105ad565b73__$364aad554dc80380f414546becdd2c1584$__63c51b295f6002684174746f726e65797360b81b611a03611bba565b6040516001600160e01b031960e086901b1681526004810193909352602483019190915264ffffffffff16604482015260640160006040518083038186803b158015611a4e57600080fd5b505af4158015611a62573d6000803e3d6000fd5b50505050600273__$364aad554dc80380f414546becdd2c1584$__639b4510de90916000611a8e611bba565b6040516001600160e01b031960e086901b1681526004810193909352602483019190915264ffffffffff16604482015260640160006040518083038186803b158015611ad957600080fd5b505af4158015611aed573d6000803e3d6000fd5b50505050600273__$364aad554dc80380f414546becdd2c1584$__639b48160c90916000611b19611bba565b6040516001600160e01b031960e086901b1681526004810193909352602483019190915264ffffffffff16604482015260640160006040518083038186803b158015611b6457600080fd5b505af4158015611b78573d6000803e3d6000fd5b50506002805460ff60f01b1916600160f11b17905550506040517f35012b512309c322acf68632cd6cb702ff0e1d776fbe9394e38ffc13b434fe7590600090a1565b60008054604051636ae3b70d60e11b81523360048201526001600160a01b039091169063d5c76e1a90602401602060405180830381600087803b158015611c0057600080fd5b505af1158015610467573d6000803e3d6000fd5b6000546001600160a01b031615611c655760405162461bcd60e51b815260206004820152601560248201527430b63932b0b23c9039b2ba103932b3a1b2b73a32b960591b60448201526064016105ad565b600080546001600160a01b0319166001600160a01b0392909216919091179055565b6001546001600160a01b031615611ce05760405162461bcd60e51b815260206004820152601960248201527f616c7265616479207365742067656e6572616c4b65657065720000000000000060448201526064016105ad565b600180546001600160a01b0319166001600160a01b0392909216919091179055565b6040518060600160405280611d15611db9565b8152604080516101008101825260008082526020828101829052928201819052606082018190526080820181905260a0820181905260c0820181905260e082015291019081526040805160e08101825260008082526020828101829052928201819052606082018190526080820181905260a0820181905260c082015291015290565b5080546000825590600052602060002090810190611db69190611e05565b50565b6040805161012081018252600080825260208201819052918101829052606081018290526080810182905260a0810182905260c0810182905260e0810182905261010081019190915290565b5b80821115611e1a5760008155600101611e06565b5090565b60008060408385031215611e3157600080fd5b50508035926020909101359150565b600060208284031215611e5257600080fd5b5035919050565b63ffffffff815116825260ff60208201511660208301526040810151611e85604084018261ffff169052565b506060810151611e9d606084018263ffffffff169052565b506080810151611eb7608084018265ffffffffffff169052565b5060a0810151611ed160a084018265ffffffffffff169052565b5060c0810151611ee760c084018261ffff169052565b5060e0810151611efd60e084018261ffff169052565b506101009081015164ffffffffff16910152565b611f1c828251611e59565b602081015163ffffffff81511661012084015260ff60208201511661014084015260ff6040820151166101608401526060810151611f666101808501826001600160401b03169052565b5060808181015160ff9081166101a086015260a0808401516001600160401b039081166101c088015260c08086015184166101e089015260e0909501518116610200880152604095860151805165ffffffffffff16610220890152602081015164ffffffffff1661024089015295860151811661026088015260608601511661028087015291840151166102a085015282015161ffff9081166102c0850152910151166102e090910152565b6103008101610b308284611f11565b6020808252825182820181905260009190848201906040850190845b8181101561206457612050838551611f11565b92840192610300929092019160010161203d565b50909695505050505050565b6001600160a01b0381168114611db657600080fd5b60006020828403121561209757600080fd5b81356120a281612070565b9392505050565b6020808252825182820181905260009190848201906040850190845b81811015612064578351835292840192918401916001016120c5565b600080600080600060a086880312156120f957600080fd5b505083359560208501359550604085013594606081013594506080013592509050565b6101208101610b308284611e59565b6000806000806080858703121561214157600080fd5b84359350602085013561215381612070565b9250604085013561216381612070565b9150606085013561217381612070565b939692955090935050565b805164ffffffffff8116811461219357600080fd5b919050565b6000602082840312156121aa57600080fd5b610b2d8261217e565b6000602082840312156121c557600080fd5b815180151581146120a257600080fd5b60208082526013908201527241432e6f743a206e6f74204174746f726e657960681b604082015260600190565b634e487b7160e01b600052604160045260246000fd5b60405161012081016001600160401b038111828210171561223b5761223b612202565b60405290565b604051606081016001600160401b038111828210171561223b5761223b612202565b60405161010081016001600160401b038111828210171561223b5761223b612202565b604051601f8201601f191681016001600160401b03811182821017156122ae576122ae612202565b604052919050565b60006001600160401b038211156122cf576122cf612202565b5060051b60200190565b805163ffffffff8116811461219357600080fd5b805160ff8116811461219357600080fd5b805161ffff8116811461219357600080fd5b805165ffffffffffff8116811461219357600080fd5b6000610120828403121561233957600080fd5b612341612218565b905061234c826122d9565b815261235a602083016122ed565b602082015261236b604083016122fe565b604082015261237c606083016122d9565b606082015261238d60808301612310565b608082015261239e60a08301612310565b60a08201526123af60c083016122fe565b60c08201526123c060e083016122fe565b60e08201526101006123d381840161217e565b9082015292915050565b80516001600160401b038116811461219357600080fd5b600060e0828403121561240657600080fd5b60405160e081018181106001600160401b038211171561242857612428612202565b60405290508061243783612310565b81526124456020840161217e565b6020820152612456604084016123dd565b6040820152612467606084016123dd565b6060820152612478608084016122ed565b608082015261248960a084016122fe565b60a082015261249a60c084016122fe565b60c08201525092915050565b600060208083850312156124b957600080fd5b82516001600160401b038111156124cf57600080fd5b8301601f810185136124e057600080fd5b80516124f36124ee826122b6565b612286565b818152610300918202830184019184820191908884111561251357600080fd5b938501935b8385101561261a57848903818112156125315760008081fd5b612539612241565b6125438b88612326565b815261010061011f198301121561255a5760008081fd5b612562612263565b915061257161012088016122d9565b825261258061014088016122ed565b8883015261259161016088016122ed565b604081818501526125a56101808a016123dd565b60608501526125b76101a08a016122ed565b60808501526125c96101c08a016123dd565b60a08501526125db6101e08a016122ed565b60c08501526125ed6102008a016123dd565b60e0850152838a8401526126058d6102208b016123f4565b90830152508452509384019391850191612518565b50979650505050505050565b60006020828403121561263857600080fd5b5051919050565b6000602080838503121561265257600080fd5b82516001600160401b0381111561266857600080fd5b8301601f8101851361267957600080fd5b80516126876124ee826122b6565b81815260059190911b820183019083810190878311156126a657600080fd5b928401925b828410156126c4578351825292840192908401906126ab565b979650505050505050565b600061012082840312156126e257600080fd5b610b2d8383612326565b6000602082840312156126fe57600080fd5b81516120a28161207056fea26469706673582212204d559fc02fa6f66aad340e125f32dd97b7bb54094ffdf170b5bc739af16d806f64736f6c63430008080033",
    "sourcePath": "/Users/kaptain/github.com/hardhat/comboox/contracts/books/boh/terms/Options.sol",
    "compiler": {
        "name": "solc",
        "version": "0.8.8+commit.dddeac2f"
    },
    "functionHashes": {
        "abandonRole(bytes32)": "3da9a600",
        "addObligorIntoOpt(uint256,uint256)": "26d29afa",
        "counterOfOptions()": "1368f327",
        "createOption(uint256,uint256,uint256,uint256,uint256)": "b02f703c",
        "delOption(uint256)": "5a601d61",
        "finalized()": "b3f05b97",
        "getAllOptions()": "4b4b0d37",
        "getBookeeper()": "ed211023",
        "getGeneralCounsel()": "103f6edd",
        "getObligorsOfOption(uint256)": "809bf77b",
        "getOption(uint256)": "1ce5e9a6",
        "getOwner()": "893d20e8",
        "getSNList()": "e87a6f18",
        "grantRole(bytes32,uint256)": "1b6ea9f9",
        "hasRole(bytes32,uint256)": "7e063c5a",
        "init(uint256,address,address,address)": "dc890da9",
        "isObligor(uint256,uint256)": "3bce3c30",
        "isOption(uint256)": "b3be456a",
        "lockContents()": "f045a769",
        "removeObligorFromOpt(uint256,uint256)": "56da88d1",
        "renounceRole(bytes32)": "8bb9c5bf",
        "revokeRole(bytes32,uint256)": "19d61ad9",
        "setDirectKeeper(address)": "6be8496f",
        "setGeneralCounsel(uint256)": "4a14beb1",
        "setOwner(uint256)": "8041494e",
        "setRoleAdmin(bytes32,uint256)": "5171ebd4"
    },
    "gasEstimates": {
        "creation": {
            "codeDepositCost": "2009400",
            "executionCost": "2127",
            "totalCost": "2011527"
        },
        "external": {
            "abandonRole(bytes32)": "infinite",
            "addObligorIntoOpt(uint256,uint256)": "infinite",
            "counterOfOptions()": "2356",
            "createOption(uint256,uint256,uint256,uint256,uint256)": "infinite",
            "delOption(uint256)": "infinite",
            "finalized()": "2416",
            "getAllOptions()": "infinite",
            "getBookeeper()": "infinite",
            "getGeneralCounsel()": "infinite",
            "getObligorsOfOption(uint256)": "infinite",
            "getOption(uint256)": "57970",
            "getOwner()": "infinite",
            "getSNList()": "infinite",
            "grantRole(bytes32,uint256)": "infinite",
            "hasRole(bytes32,uint256)": "infinite",
            "init(uint256,address,address,address)": "infinite",
            "isObligor(uint256,uint256)": "infinite",
            "isOption(uint256)": "2540",
            "lockContents()": "infinite",
            "removeObligorFromOpt(uint256,uint256)": "infinite",
            "renounceRole(bytes32)": "infinite",
            "revokeRole(bytes32,uint256)": "infinite",
            "setDirectKeeper(address)": "infinite",
            "setGeneralCounsel(uint256)": "infinite",
            "setOwner(uint256)": "infinite",
            "setRoleAdmin(bytes32,uint256)": "infinite"
        }
    }
}