{
    "contractName": "Options",
    "abi": [
        {
            "anonymous": false,
            "inputs": [
                {
                    "indexed": false,
                    "internalType": "uint40",
                    "name": "owner",
                    "type": "uint40"
                },
                {
                    "indexed": false,
                    "internalType": "address",
                    "name": "directKeeper",
                    "type": "address"
                },
                {
                    "indexed": false,
                    "internalType": "address",
                    "name": "regCenter",
                    "type": "address"
                },
                {
                    "indexed": false,
                    "internalType": "address",
                    "name": "generalKeeper",
                    "type": "address"
                }
            ],
            "name": "Init",
            "type": "event"
        },
        {
            "anonymous": false,
            "inputs": [],
            "name": "LockContents",
            "type": "event"
        },
        {
            "anonymous": false,
            "inputs": [
                {
                    "indexed": false,
                    "internalType": "address",
                    "name": "keeper",
                    "type": "address"
                }
            ],
            "name": "SetDirectKeeper",
            "type": "event"
        },
        {
            "anonymous": false,
            "inputs": [
                {
                    "indexed": false,
                    "internalType": "uint256",
                    "name": "acct",
                    "type": "uint256"
                }
            ],
            "name": "SetGeneralCounsel",
            "type": "event"
        },
        {
            "anonymous": false,
            "inputs": [
                {
                    "indexed": false,
                    "internalType": "address",
                    "name": "gk",
                    "type": "address"
                }
            ],
            "name": "SetGeneralKeeper",
            "type": "event"
        },
        {
            "anonymous": false,
            "inputs": [
                {
                    "indexed": false,
                    "internalType": "uint256",
                    "name": "acct",
                    "type": "uint256"
                }
            ],
            "name": "SetOwner",
            "type": "event"
        },
        {
            "anonymous": false,
            "inputs": [
                {
                    "indexed": false,
                    "internalType": "address",
                    "name": "rc",
                    "type": "address"
                }
            ],
            "name": "SetRegCenter",
            "type": "event"
        },
        {
            "inputs": [
                {
                    "internalType": "bytes32",
                    "name": "role",
                    "type": "bytes32"
                }
            ],
            "name": "abandonRole",
            "outputs": [],
            "stateMutability": "nonpayable",
            "type": "function"
        },
        {
            "inputs": [],
            "name": "counterOfOpts",
            "outputs": [
                {
                    "internalType": "uint32",
                    "name": "",
                    "type": "uint32"
                }
            ],
            "stateMutability": "view",
            "type": "function"
        },
        {
            "inputs": [
                {
                    "internalType": "bytes32",
                    "name": "sn",
                    "type": "bytes32"
                },
                {
                    "internalType": "uint40",
                    "name": "rightholder",
                    "type": "uint40"
                },
                {
                    "internalType": "uint40[]",
                    "name": "obligors",
                    "type": "uint40[]"
                },
                {
                    "internalType": "uint64",
                    "name": "paid",
                    "type": "uint64"
                },
                {
                    "internalType": "uint64",
                    "name": "par",
                    "type": "uint64"
                }
            ],
            "name": "createOption",
            "outputs": [
                {
                    "internalType": "bytes32",
                    "name": "_sn",
                    "type": "bytes32"
                }
            ],
            "stateMutability": "nonpayable",
            "type": "function"
        },
        {
            "inputs": [
                {
                    "internalType": "bytes32",
                    "name": "sn",
                    "type": "bytes32"
                }
            ],
            "name": "delOption",
            "outputs": [],
            "stateMutability": "nonpayable",
            "type": "function"
        },
        {
            "inputs": [],
            "name": "finalized",
            "outputs": [
                {
                    "internalType": "bool",
                    "name": "",
                    "type": "bool"
                }
            ],
            "stateMutability": "view",
            "type": "function"
        },
        {
            "inputs": [],
            "name": "getBookeeper",
            "outputs": [
                {
                    "internalType": "address",
                    "name": "",
                    "type": "address"
                }
            ],
            "stateMutability": "view",
            "type": "function"
        },
        {
            "inputs": [],
            "name": "getGeneralCounsel",
            "outputs": [
                {
                    "internalType": "uint40",
                    "name": "",
                    "type": "uint40"
                }
            ],
            "stateMutability": "view",
            "type": "function"
        },
        {
            "inputs": [
                {
                    "internalType": "bytes32",
                    "name": "sn",
                    "type": "bytes32"
                }
            ],
            "name": "getOption",
            "outputs": [
                {
                    "internalType": "uint40",
                    "name": "rightholder",
                    "type": "uint40"
                },
                {
                    "internalType": "uint64",
                    "name": "paid",
                    "type": "uint64"
                },
                {
                    "internalType": "uint64",
                    "name": "par",
                    "type": "uint64"
                }
            ],
            "stateMutability": "view",
            "type": "function"
        },
        {
            "inputs": [],
            "name": "getOwner",
            "outputs": [
                {
                    "internalType": "uint40",
                    "name": "",
                    "type": "uint40"
                }
            ],
            "stateMutability": "view",
            "type": "function"
        },
        {
            "inputs": [
                {
                    "internalType": "bytes32",
                    "name": "role",
                    "type": "bytes32"
                },
                {
                    "internalType": "uint40",
                    "name": "acct",
                    "type": "uint40"
                }
            ],
            "name": "grantRole",
            "outputs": [],
            "stateMutability": "nonpayable",
            "type": "function"
        },
        {
            "inputs": [
                {
                    "internalType": "bytes32",
                    "name": "role",
                    "type": "bytes32"
                },
                {
                    "internalType": "uint40",
                    "name": "acct",
                    "type": "uint40"
                }
            ],
            "name": "hasRole",
            "outputs": [
                {
                    "internalType": "bool",
                    "name": "",
                    "type": "bool"
                }
            ],
            "stateMutability": "view",
            "type": "function"
        },
        {
            "inputs": [
                {
                    "internalType": "uint40",
                    "name": "owner",
                    "type": "uint40"
                },
                {
                    "internalType": "address",
                    "name": "directKeeper",
                    "type": "address"
                },
                {
                    "internalType": "address",
                    "name": "regCenter",
                    "type": "address"
                },
                {
                    "internalType": "address",
                    "name": "generalKeeper",
                    "type": "address"
                }
            ],
            "name": "init",
            "outputs": [],
            "stateMutability": "nonpayable",
            "type": "function"
        },
        {
            "inputs": [
                {
                    "internalType": "bytes32",
                    "name": "sn",
                    "type": "bytes32"
                },
                {
                    "internalType": "uint40",
                    "name": "acct",
                    "type": "uint40"
                }
            ],
            "name": "isObligor",
            "outputs": [
                {
                    "internalType": "bool",
                    "name": "",
                    "type": "bool"
                }
            ],
            "stateMutability": "view",
            "type": "function"
        },
        {
            "inputs": [
                {
                    "internalType": "bytes32",
                    "name": "sn",
                    "type": "bytes32"
                }
            ],
            "name": "isOption",
            "outputs": [
                {
                    "internalType": "bool",
                    "name": "",
                    "type": "bool"
                }
            ],
            "stateMutability": "view",
            "type": "function"
        },
        {
            "inputs": [],
            "name": "lockContents",
            "outputs": [],
            "stateMutability": "nonpayable",
            "type": "function"
        },
        {
            "inputs": [
                {
                    "internalType": "bytes32",
                    "name": "sn",
                    "type": "bytes32"
                }
            ],
            "name": "obligorsOfOption",
            "outputs": [
                {
                    "internalType": "uint40[]",
                    "name": "",
                    "type": "uint40[]"
                }
            ],
            "stateMutability": "view",
            "type": "function"
        },
        {
            "inputs": [],
            "name": "optsList",
            "outputs": [
                {
                    "internalType": "bytes32[]",
                    "name": "",
                    "type": "bytes32[]"
                }
            ],
            "stateMutability": "view",
            "type": "function"
        },
        {
            "inputs": [],
            "name": "qtyOfOpts",
            "outputs": [
                {
                    "internalType": "uint256",
                    "name": "",
                    "type": "uint256"
                }
            ],
            "stateMutability": "view",
            "type": "function"
        },
        {
            "inputs": [
                {
                    "internalType": "bytes32",
                    "name": "role",
                    "type": "bytes32"
                }
            ],
            "name": "renounceRole",
            "outputs": [],
            "stateMutability": "nonpayable",
            "type": "function"
        },
        {
            "inputs": [
                {
                    "internalType": "bytes32",
                    "name": "role",
                    "type": "bytes32"
                },
                {
                    "internalType": "uint40",
                    "name": "acct",
                    "type": "uint40"
                }
            ],
            "name": "revokeRole",
            "outputs": [],
            "stateMutability": "nonpayable",
            "type": "function"
        },
        {
            "inputs": [
                {
                    "internalType": "address",
                    "name": "keeper",
                    "type": "address"
                }
            ],
            "name": "setDirectKeeper",
            "outputs": [],
            "stateMutability": "nonpayable",
            "type": "function"
        },
        {
            "inputs": [
                {
                    "internalType": "uint40",
                    "name": "acct",
                    "type": "uint40"
                }
            ],
            "name": "setGeneralCounsel",
            "outputs": [],
            "stateMutability": "nonpayable",
            "type": "function"
        },
        {
            "inputs": [
                {
                    "internalType": "uint40",
                    "name": "acct",
                    "type": "uint40"
                }
            ],
            "name": "setOwner",
            "outputs": [],
            "stateMutability": "nonpayable",
            "type": "function"
        },
        {
            "inputs": [
                {
                    "internalType": "bytes32",
                    "name": "role",
                    "type": "bytes32"
                },
                {
                    "internalType": "uint40",
                    "name": "acct",
                    "type": "uint40"
                }
            ],
            "name": "setRoleAdmin",
            "outputs": [],
            "stateMutability": "nonpayable",
            "type": "function"
        }
    ],
    "bytecode": "608060405234801561001057600080fd5b50611ca2806100206000396000f3fe608060405234801561001057600080fd5b50600436106101585760003560e01c806374099815116100c3578063907a85851161007c578063907a858514610360578063b3f05b9714610373578063be44ad0714610387578063ed2110231461039a578063eeda0912146103ba578063f045a769146103da57600080fd5b806374099815146102e957806379b2ec12146102fc5780637ba706e81461031f578063821ee8ea14610332578063893d20e8146103455780638bb9c5bf1461034d57600080fd5b806344374b701161011557806344374b70146101e457806361e083e61461025b578063656ebc8f1461026e5780636865ab4d146102815780636be8496f1461029657806372d19328146102a957600080fd5b8063103f6edd1461015d57806315f647831461018057806316dc517e1461019657806317c51fec146101ab5780633178a9a9146101be5780633da9a600146101d1575b600080fd5b6101656103e2565b60405164ffffffffff90911681526020015b60405180910390f35b61018861046e565b604051908152602001610177565b6101a96101a43660046116d9565b6104f4565b005b6101a96101b93660046116d9565b61058a565b6101a96101cc366004611709565b6105af565b6101a96101df366004611726565b6107b1565b61022d6101f2366004611726565b60009081526004602052604090206001810154600382015460029092015464ffffffffff9091169267ffffffffffffffff9283169290911690565b6040805164ffffffffff909416845267ffffffffffffffff9283166020850152911690820152606001610177565b6101a9610269366004611726565b6108c3565b61018861027c3660046117c7565b610a46565b610289610bd9565b60405161017791906118a6565b6101a96102a43660046118ff565b610c63565b60008052600460209081527f17ef568e3e12ab5b9c7254a8d58478811de00f9e6eb34345acd53bf8fd09d3ed5460405163ffffffff909116815201610177565b6101a96102f73660046116d9565b610d15565b61030f61030a3660046116d9565b610d3a565b6040519015158152602001610177565b6101a961032d366004611709565b610ddc565b6101a961034036600461191c565b610fce565b6101656110be565b6101a961035b366004611726565b6110f9565b61030f61036e366004611726565b611152565b60028054600160f01b900460ff161461030f565b61030f6103953660046116d9565b6111e5565b6103a261123d565b6040516001600160a01b039091168152602001610177565b6103cd6103c8366004611726565b6112c3565b6040516101779190611978565b6101a961135e565b60405163e8c0cc1d60e01b81526002600482015260009073__$364aad554dc80380f414546becdd2c1584$__9063e8c0cc1d906024015b60206040518083038186803b15801561043157600080fd5b505af4158015610445573d6000803e3d6000fd5b505050506040513d601f19601f8201168201806040525081019061046991906119b7565b905090565b60405163308194eb60e11b81526005600482015260009073__$8c1a4844a0a0988ea2454cf87145a95df1$__9063610329d69060240160206040518083038186803b1580156104bc57600080fd5b505af41580156104d0573d6000803e3d6000fd5b505050506040513d601f19601f8201168201806040525081019061046991906119d4565b73__$364aad554dc80380f414546becdd2c1584$__63427abff460028461051961157c565b6040516001600160e01b031960e086901b1681526004810193909352602483019190915264ffffffffff9081166044830152841660648201526084015b60006040518083038186803b15801561056e57600080fd5b505af4158015610582573d6000803e3d6000fd5b505050505050565b73__$364aad554dc80380f414546becdd2c1584$__638ce1584560028461051961157c565b604051633b11adbf60e21b81526002600482015233602482015273__$364aad554dc80380f414546becdd2c1584$__9063ec46b6fc9060440160206040518083038186803b15801561060057600080fd5b505af4158015610614573d6000803e3d6000fd5b505050506040513d601f19601f8201168201806040525081019061063891906119ed565b806106dd575073__$364aad554dc80380f414546becdd2c1584$__63fe271086600261066261157c565b6040516001600160e01b031960e085901b168152600481019290925264ffffffffff16602482015260440160206040518083038186803b1580156106a557600080fd5b505af41580156106b9573d6000803e3d6000fd5b505050506040513d601f19601f820116820180604052508101906106dd91906119ed565b6107025760405162461bcd60e51b81526004016106f990611a0f565b60405180910390fd5b604051632725ebef60e21b81526002600482015264ffffffffff8216602482015273__$364aad554dc80380f414546becdd2c1584$__90639c97afbc9060440160006040518083038186803b15801561075a57600080fd5b505af415801561076e573d6000803e3d6000fd5b505060405164ffffffffff841681527ff2735f34b69be1e6342dea95f9162f84d0db925fab655ca9f1f312ac8cbfc99d925060200190505b60405180910390a150565b604051633b11adbf60e21b81526002600482015233602482015273__$364aad554dc80380f414546becdd2c1584$__9063ec46b6fc9060440160206040518083038186803b15801561080257600080fd5b505af4158015610816573d6000803e3d6000fd5b505050506040513d601f19601f8201168201806040525081019061083a91906119ed565b6108565760405162461bcd60e51b81526004016106f990611a65565b60405163cc99e11b60e01b8152600260048201526024810182905273__$364aad554dc80380f414546becdd2c1584$__9063cc99e11b9060440160006040518083038186803b1580156108a857600080fd5b505af41580156108bc573d6000803e3d6000fd5b5050505050565b73__$364aad554dc80380f414546becdd2c1584$__63a8ef95ac6002684174746f726e65797360b81b6108f461157c565b6040516001600160e01b031960e086901b1681526004810193909352602483019190915264ffffffffff16604482015260640160206040518083038186803b15801561093f57600080fd5b505af4158015610953573d6000803e3d6000fd5b505050506040513d601f19601f8201168201806040525081019061097791906119ed565b6109b95760405162461bcd60e51b815260206004820152601360248201527241432e6f743a206e6f74204174746f726e657960681b60448201526064016106f9565b6040516391a5bf6d60e01b81526004808201526024810182905273__$bd0f380ab135f83a7568cac3e5fc41e1e4$__906391a5bf6d9060440160206040518083038186803b158015610a0a57600080fd5b505af4158015610a1e573d6000803e3d6000fd5b505050506040513d601f19601f82011682018060405250810190610a4291906119ed565b5050565b600073__$364aad554dc80380f414546becdd2c1584$__63a8ef95ac6002684174746f726e65797360b81b610a7961157c565b6040516001600160e01b031960e086901b1681526004810193909352602483019190915264ffffffffff16604482015260640160206040518083038186803b158015610ac457600080fd5b505af4158015610ad8573d6000803e3d6000fd5b505050506040513d601f19601f82011682018060405250810190610afc91906119ed565b610b3e5760405162461bcd60e51b815260206004820152601360248201527241432e6f743a206e6f74204174746f726e657960681b60448201526064016106f9565b6040516311d1ab7160e11b815273__$bd0f380ab135f83a7568cac3e5fc41e1e4$__906323a356e290610b7f906004908a908a908a908a908a908601611aab565b60206040518083038186803b158015610b9757600080fd5b505af4158015610bab573d6000803e3d6000fd5b505050506040513d601f19601f82011682018060405250810190610bcf91906119d4565b9695505050505050565b60405163107d9d2d60e31b81526005600482015260609073__$8c1a4844a0a0988ea2454cf87145a95df1$__906383ece9689060240160006040518083038186803b158015610c2757600080fd5b505af4158015610c3b573d6000803e3d6000fd5b505050506040513d6000823e601f3d908101601f191682016040526104699190810190611b2f565b604051630f07232560e01b8152600260048201523360248201526001600160a01b038216604482015273__$364aad554dc80380f414546becdd2c1584$__90630f0723259060640160006040518083038186803b158015610cc357600080fd5b505af4158015610cd7573d6000803e3d6000fd5b50506040516001600160a01b03841681527fe435cbeab64e4eae6497b9d8289704bd709d624a80704ef3ca9af777534bc6ec925060200190506107a6565b73__$364aad554dc80380f414546becdd2c1584$__63d2a15ba760028461051961157c565b604051632a3be56b60e21b8152600260048201526024810183905264ffffffffff8216604482015260009073__$364aad554dc80380f414546becdd2c1584$__9063a8ef95ac906064015b60206040518083038186803b158015610d9d57600080fd5b505af4158015610db1573d6000803e3d6000fd5b505050506040513d601f19601f82011682018060405250810190610dd591906119ed565b9392505050565b604051633b11adbf60e21b81526002600482015233602482015273__$364aad554dc80380f414546becdd2c1584$__9063ec46b6fc9060440160206040518083038186803b158015610e2d57600080fd5b505af4158015610e41573d6000803e3d6000fd5b505050506040513d601f19601f82011682018060405250810190610e6591906119ed565b80610f0a575073__$364aad554dc80380f414546becdd2c1584$__63fe2710866002610e8f61157c565b6040516001600160e01b031960e085901b168152600481019290925264ffffffffff16602482015260440160206040518083038186803b158015610ed257600080fd5b505af4158015610ee6573d6000803e3d6000fd5b505050506040513d601f19601f82011682018060405250810190610f0a91906119ed565b610f265760405162461bcd60e51b81526004016106f990611a0f565b60405163b6e38a2960e01b81526002600482015264ffffffffff8216602482015273__$364aad554dc80380f414546becdd2c1584$__9063b6e38a299060440160006040518083038186803b158015610f7e57600080fd5b505af4158015610f92573d6000803e3d6000fd5b505060405164ffffffffff841681527f8b6f40f36b4ae8cc5f55e895036457c43da4ab1f80f58c46f5ff0d72a650033b925060200190506107a6565b610fd7826115d6565b610fe081611675565b604051636cdd0edf60e11b81526002600482015264ffffffffff851660248201526001600160a01b038416604482015273__$364aad554dc80380f414546becdd2c1584$__9063d9ba1dbe9060640160006040518083038186803b15801561104757600080fd5b505af415801561105b573d6000803e3d6000fd5b50506040805164ffffffffff881681526001600160a01b038781166020830152868116828401528516606082015290517f4d18c0021addc919105cb1ed2c11ad241e859cc1d9e77d4ee1d9ca2cdc1f255b9350908190036080019150a150505050565b60405163987ad15360e01b81526002600482015260009073__$364aad554dc80380f414546becdd2c1584$__9063987ad15390602401610419565b600061110361157c565b604051637963595360e11b8152600260048201526024810184905264ffffffffff8216604482015290915073__$364aad554dc80380f414546becdd2c1584$__9063f2c6b2a690606401610556565b604051632627cd7f60e11b8152600560048201526024810182905260009073__$8c1a4844a0a0988ea2454cf87145a95df1$__90634c4f9afe9060440160206040518083038186803b1580156111a757600080fd5b505af41580156111bb573d6000803e3d6000fd5b505050506040513d601f19601f820116820180604052508101906111df91906119ed565b92915050565b60008281526004602081905260408083209051633f5f77cd60e01b81529082019181019190915264ffffffffff8316602482015273__$8c1a4844a0a0988ea2454cf87145a95df1$__90633f5f77cd90604401610d85565b604051633c3e56c160e11b81526002600482015260009073__$364aad554dc80380f414546becdd2c1584$__9063787cad829060240160206040518083038186803b15801561128b57600080fd5b505af415801561129f573d6000803e3d6000fd5b505050506040513d601f19601f820116820180604052508101906104699190611bc0565b6000818152600460208190526040918290209151639857dfd560e01b81529181019082015260609073__$8c1a4844a0a0988ea2454cf87145a95df1$__90639857dfd59060240160006040518083038186803b15801561132257600080fd5b505af4158015611336573d6000803e3d6000fd5b505050506040513d6000823e601f3d908101601f191682016040526111df9190810190611bdd565b604051633b11adbf60e21b81526002600482015233602482015273__$364aad554dc80380f414546becdd2c1584$__9063ec46b6fc9060440160206040518083038186803b1580156113af57600080fd5b505af41580156113c3573d6000803e3d6000fd5b505050506040513d601f19601f820116820180604052508101906113e791906119ed565b6114035760405162461bcd60e51b81526004016106f990611a65565b600254600160f01b900460ff1660011461145f5760405162461bcd60e51b815260206004820181905260248201527f41432e6f6e6c7950656e64696e673a20446f632069732066696e616c697a656460448201526064016106f9565b60405163cc99e11b60e01b815260026004820152684174746f726e65797360b81b602482015273__$364aad554dc80380f414546becdd2c1584$__9063cc99e11b9060440160006040518083038186803b1580156114bc57600080fd5b505af41580156114d0573d6000803e3d6000fd5b5050604051632725ebef60e21b8152600260048201526000602482015273__$364aad554dc80380f414546becdd2c1584$__9250639c97afbc915060440160006040518083038186803b15801561152657600080fd5b505af415801561153a573d6000803e3d6000fd5b50506002805460ff60f01b1916600160f11b17905550506040517f35012b512309c322acf68632cd6cb702ff0e1d776fbe9394e38ffc13b434fe7590600090a1565b60008054604051634de835e760e11b81523360048201526001600160a01b0390911690639bd06bce90602401602060405180830381600087803b1580156115c257600080fd5b505af1158015610445573d6000803e3d6000fd5b6000546001600160a01b0316156116275760405162461bcd60e51b815260206004820152601560248201527430b63932b0b23c9039b2ba103932b3a1b2b73a32b960591b60448201526064016106f9565b600080546001600160a01b0319166001600160a01b0383169081179091556040519081527f318da6c7624c71cbc0afe346c9d8827f119d0ecefb241a7b0c87217a076a8e02906020016107a6565b600180546001600160a01b0319166001600160a01b0383169081179091556040519081527fe513d3e0f0d0a3877029dcc588748679a7a3450ec1ec7ed56d96bd012c3e61aa906020016107a6565b64ffffffffff811681146116d657600080fd5b50565b600080604083850312156116ec57600080fd5b8235915060208301356116fe816116c3565b809150509250929050565b60006020828403121561171b57600080fd5b8135610dd5816116c3565b60006020828403121561173857600080fd5b5035919050565b634e487b7160e01b600052604160045260246000fd5b604051601f8201601f1916810167ffffffffffffffff8111828210171561177e5761177e61173f565b604052919050565b600067ffffffffffffffff8211156117a0576117a061173f565b5060051b60200190565b803567ffffffffffffffff811681146117c257600080fd5b919050565b600080600080600060a086880312156117df57600080fd5b853594506020808701356117f2816116c3565b9450604087013567ffffffffffffffff81111561180e57600080fd5b8701601f8101891361181f57600080fd5b803561183261182d82611786565b611755565b81815260059190911b8201830190838101908b83111561185157600080fd5b928401925b82841015611878578335611869816116c3565b82529284019290840190611856565b809750505050505061188c606087016117aa565b915061189a608087016117aa565b90509295509295909350565b6020808252825182820181905260009190848201906040850190845b818110156118de578351835292840192918401916001016118c2565b50909695505050505050565b6001600160a01b03811681146116d657600080fd5b60006020828403121561191157600080fd5b8135610dd5816118ea565b6000806000806080858703121561193257600080fd5b843561193d816116c3565b9350602085013561194d816118ea565b9250604085013561195d816118ea565b9150606085013561196d816118ea565b939692955090935050565b6020808252825182820181905260009190848201906040850190845b818110156118de57835164ffffffffff1683529284019291840191600101611994565b6000602082840312156119c957600080fd5b8151610dd5816116c3565b6000602082840312156119e657600080fd5b5051919050565b6000602082840312156119ff57600080fd5b81518015158114610dd557600080fd5b60208082526036908201527f41432e6f776e65724f72446972656374426f6f6b65657065723a206e6569746860408201527532b91037bbb732b9103737b9103137b7b5b2b2b832b960511b606082015260800190565b60208082526026908201527f41432e6f6e6c794469726563744b65657065723a206e6f74206469726563742060408201526535b2b2b832b960d11b606082015260800190565b600060c082018883526020888185015264ffffffffff808916604086015260c0606086015282885180855260e087019150838a01945060005b81811015611b02578551841683529484019491840191600101611ae4565b505067ffffffffffffffff97881660808701529590961660a0909401939093525091979650505050505050565b60006020808385031215611b4257600080fd5b825167ffffffffffffffff811115611b5957600080fd5b8301601f81018513611b6a57600080fd5b8051611b7861182d82611786565b81815260059190911b82018301908381019087831115611b9757600080fd5b928401925b82841015611bb557835182529284019290840190611b9c565b979650505050505050565b600060208284031215611bd257600080fd5b8151610dd5816118ea565b60006020808385031215611bf057600080fd5b825167ffffffffffffffff811115611c0757600080fd5b8301601f81018513611c1857600080fd5b8051611c2661182d82611786565b81815260059190911b82018301908381019087831115611c4557600080fd5b928401925b82841015611bb5578351611c5d816116c3565b82529284019290840190611c4a56fea2646970667358221220bdd4f2451d0b8018ec8bbff9198ca452c7ea86cd6a376e94f87f7bb704108a3d64736f6c63430008080033",
    "sourcePath": "/Users/kaptain/github.com/hardhat/comboox/contracts/books/boh/terms/Options.sol",
    "compiler": {
        "name": "solc",
        "version": "0.8.8+commit.dddeac2f"
    },
    "functionHashes": {
        "abandonRole(bytes32)": "3da9a600",
        "counterOfOpts()": "72d19328",
        "createOption(bytes32,uint40,uint40[],uint64,uint64)": "656ebc8f",
        "delOption(bytes32)": "61e083e6",
        "finalized()": "b3f05b97",
        "getBookeeper()": "ed211023",
        "getGeneralCounsel()": "103f6edd",
        "getOption(bytes32)": "44374b70",
        "getOwner()": "893d20e8",
        "grantRole(bytes32,uint40)": "74099815",
        "hasRole(bytes32,uint40)": "79b2ec12",
        "init(uint40,address,address,address)": "821ee8ea",
        "isObligor(bytes32,uint40)": "be44ad07",
        "isOption(bytes32)": "907a8585",
        "lockContents()": "f045a769",
        "obligorsOfOption(bytes32)": "eeda0912",
        "optsList()": "6865ab4d",
        "qtyOfOpts()": "15f64783",
        "renounceRole(bytes32)": "8bb9c5bf",
        "revokeRole(bytes32,uint40)": "17c51fec",
        "setDirectKeeper(address)": "6be8496f",
        "setGeneralCounsel(uint40)": "3178a9a9",
        "setOwner(uint40)": "7ba706e8",
        "setRoleAdmin(bytes32,uint40)": "16dc517e"
    },
    "gasEstimates": {
        "creation": {
            "codeDepositCost": "1466000",
            "executionCost": "1534",
            "totalCost": "1467534"
        },
        "external": {
            "abandonRole(bytes32)": "infinite",
            "counterOfOpts()": "2443",
            "createOption(bytes32,uint40,uint40[],uint64,uint64)": "infinite",
            "delOption(bytes32)": "infinite",
            "finalized()": "2371",
            "getBookeeper()": "infinite",
            "getGeneralCounsel()": "infinite",
            "getOption(bytes32)": "6790",
            "getOwner()": "infinite",
            "grantRole(bytes32,uint40)": "infinite",
            "hasRole(bytes32,uint40)": "infinite",
            "init(uint40,address,address,address)": "infinite",
            "isObligor(bytes32,uint40)": "infinite",
            "isOption(bytes32)": "infinite",
            "lockContents()": "infinite",
            "obligorsOfOption(bytes32)": "infinite",
            "optsList()": "infinite",
            "qtyOfOpts()": "infinite",
            "renounceRole(bytes32)": "infinite",
            "revokeRole(bytes32,uint40)": "infinite",
            "setDirectKeeper(address)": "infinite",
            "setGeneralCounsel(uint40)": "infinite",
            "setOwner(uint40)": "infinite",
            "setRoleAdmin(bytes32,uint40)": "infinite"
        }
    }
}