{
    "contractName": "Options",
    "abi": [
        {
            "anonymous": false,
            "inputs": [
                {
                    "indexed": false,
                    "internalType": "uint256",
                    "name": "owner",
                    "type": "uint256"
                },
                {
                    "indexed": false,
                    "internalType": "address",
                    "name": "directKeeper",
                    "type": "address"
                },
                {
                    "indexed": false,
                    "internalType": "address",
                    "name": "regCenter",
                    "type": "address"
                },
                {
                    "indexed": false,
                    "internalType": "address",
                    "name": "generalKeeper",
                    "type": "address"
                }
            ],
            "name": "Init",
            "type": "event"
        },
        {
            "anonymous": false,
            "inputs": [],
            "name": "LockContents",
            "type": "event"
        },
        {
            "anonymous": false,
            "inputs": [
                {
                    "indexed": false,
                    "internalType": "address",
                    "name": "keeper",
                    "type": "address"
                }
            ],
            "name": "SetDirectKeeper",
            "type": "event"
        },
        {
            "anonymous": false,
            "inputs": [
                {
                    "indexed": false,
                    "internalType": "uint256",
                    "name": "acct",
                    "type": "uint256"
                }
            ],
            "name": "SetGeneralCounsel",
            "type": "event"
        },
        {
            "anonymous": false,
            "inputs": [
                {
                    "indexed": false,
                    "internalType": "address",
                    "name": "gk",
                    "type": "address"
                }
            ],
            "name": "SetGeneralKeeper",
            "type": "event"
        },
        {
            "anonymous": false,
            "inputs": [
                {
                    "indexed": false,
                    "internalType": "uint256",
                    "name": "acct",
                    "type": "uint256"
                }
            ],
            "name": "SetOwner",
            "type": "event"
        },
        {
            "anonymous": false,
            "inputs": [
                {
                    "indexed": false,
                    "internalType": "address",
                    "name": "rc",
                    "type": "address"
                }
            ],
            "name": "SetRegCenter",
            "type": "event"
        },
        {
            "inputs": [
                {
                    "internalType": "bytes32",
                    "name": "role",
                    "type": "bytes32"
                }
            ],
            "name": "abandonRole",
            "outputs": [],
            "stateMutability": "nonpayable",
            "type": "function"
        },
        {
            "inputs": [
                {
                    "internalType": "uint256",
                    "name": "seqOfOpt",
                    "type": "uint256"
                },
                {
                    "internalType": "uint256",
                    "name": "obligor",
                    "type": "uint256"
                }
            ],
            "name": "addObligorIntoOpt",
            "outputs": [
                {
                    "internalType": "bool",
                    "name": "flag",
                    "type": "bool"
                }
            ],
            "stateMutability": "nonpayable",
            "type": "function"
        },
        {
            "inputs": [],
            "name": "counterOfOptions",
            "outputs": [
                {
                    "internalType": "uint32",
                    "name": "",
                    "type": "uint32"
                }
            ],
            "stateMutability": "view",
            "type": "function"
        },
        {
            "inputs": [
                {
                    "internalType": "uint256",
                    "name": "snOfOpt",
                    "type": "uint256"
                },
                {
                    "internalType": "uint256",
                    "name": "snOfCond",
                    "type": "uint256"
                },
                {
                    "internalType": "uint40",
                    "name": "rightholder",
                    "type": "uint40"
                },
                {
                    "internalType": "uint64",
                    "name": "paid",
                    "type": "uint64"
                },
                {
                    "internalType": "uint64",
                    "name": "par",
                    "type": "uint64"
                }
            ],
            "name": "createOption",
            "outputs": [
                {
                    "components": [
                        {
                            "internalType": "uint32",
                            "name": "seqOfOpt",
                            "type": "uint32"
                        },
                        {
                            "internalType": "uint8",
                            "name": "typeOfOpt",
                            "type": "uint8"
                        },
                        {
                            "internalType": "uint16",
                            "name": "classOfShare",
                            "type": "uint16"
                        },
                        {
                            "internalType": "uint32",
                            "name": "rate",
                            "type": "uint32"
                        },
                        {
                            "internalType": "uint48",
                            "name": "issueDate",
                            "type": "uint48"
                        },
                        {
                            "internalType": "uint48",
                            "name": "triggerDate",
                            "type": "uint48"
                        },
                        {
                            "internalType": "uint16",
                            "name": "execDays",
                            "type": "uint16"
                        },
                        {
                            "internalType": "uint16",
                            "name": "closingDays",
                            "type": "uint16"
                        },
                        {
                            "internalType": "uint40",
                            "name": "obligor",
                            "type": "uint40"
                        }
                    ],
                    "internalType": "struct OptionsRepo.Head",
                    "name": "head",
                    "type": "tuple"
                }
            ],
            "stateMutability": "nonpayable",
            "type": "function"
        },
        {
            "inputs": [
                {
                    "internalType": "uint256",
                    "name": "seqOfOpt",
                    "type": "uint256"
                }
            ],
            "name": "delOption",
            "outputs": [
                {
                    "internalType": "bool",
                    "name": "flag",
                    "type": "bool"
                }
            ],
            "stateMutability": "nonpayable",
            "type": "function"
        },
        {
            "inputs": [],
            "name": "finalized",
            "outputs": [
                {
                    "internalType": "bool",
                    "name": "",
                    "type": "bool"
                }
            ],
            "stateMutability": "view",
            "type": "function"
        },
        {
            "inputs": [],
            "name": "getAllOptions",
            "outputs": [
                {
                    "components": [
                        {
                            "components": [
                                {
                                    "internalType": "uint32",
                                    "name": "seqOfOpt",
                                    "type": "uint32"
                                },
                                {
                                    "internalType": "uint8",
                                    "name": "typeOfOpt",
                                    "type": "uint8"
                                },
                                {
                                    "internalType": "uint16",
                                    "name": "classOfShare",
                                    "type": "uint16"
                                },
                                {
                                    "internalType": "uint32",
                                    "name": "rate",
                                    "type": "uint32"
                                },
                                {
                                    "internalType": "uint48",
                                    "name": "issueDate",
                                    "type": "uint48"
                                },
                                {
                                    "internalType": "uint48",
                                    "name": "triggerDate",
                                    "type": "uint48"
                                },
                                {
                                    "internalType": "uint16",
                                    "name": "execDays",
                                    "type": "uint16"
                                },
                                {
                                    "internalType": "uint16",
                                    "name": "closingDays",
                                    "type": "uint16"
                                },
                                {
                                    "internalType": "uint40",
                                    "name": "obligor",
                                    "type": "uint40"
                                }
                            ],
                            "internalType": "struct OptionsRepo.Head",
                            "name": "head",
                            "type": "tuple"
                        },
                        {
                            "components": [
                                {
                                    "internalType": "uint32",
                                    "name": "seq",
                                    "type": "uint32"
                                },
                                {
                                    "internalType": "uint8",
                                    "name": "logicOpr",
                                    "type": "uint8"
                                },
                                {
                                    "internalType": "uint8",
                                    "name": "compOpr1",
                                    "type": "uint8"
                                },
                                {
                                    "internalType": "uint64",
                                    "name": "para1",
                                    "type": "uint64"
                                },
                                {
                                    "internalType": "uint8",
                                    "name": "compOpr2",
                                    "type": "uint8"
                                },
                                {
                                    "internalType": "uint64",
                                    "name": "para2",
                                    "type": "uint64"
                                },
                                {
                                    "internalType": "uint8",
                                    "name": "compOpr3",
                                    "type": "uint8"
                                },
                                {
                                    "internalType": "uint64",
                                    "name": "para3",
                                    "type": "uint64"
                                }
                            ],
                            "internalType": "struct CondsRepo.Cond",
                            "name": "cond",
                            "type": "tuple"
                        },
                        {
                            "components": [
                                {
                                    "internalType": "uint48",
                                    "name": "closingDate",
                                    "type": "uint48"
                                },
                                {
                                    "internalType": "uint40",
                                    "name": "rightholder",
                                    "type": "uint40"
                                },
                                {
                                    "internalType": "uint64",
                                    "name": "paid",
                                    "type": "uint64"
                                },
                                {
                                    "internalType": "uint64",
                                    "name": "par",
                                    "type": "uint64"
                                },
                                {
                                    "internalType": "uint8",
                                    "name": "state",
                                    "type": "uint8"
                                }
                            ],
                            "internalType": "struct OptionsRepo.Body",
                            "name": "body",
                            "type": "tuple"
                        }
                    ],
                    "internalType": "struct OptionsRepo.Option[]",
                    "name": "",
                    "type": "tuple[]"
                }
            ],
            "stateMutability": "view",
            "type": "function"
        },
        {
            "inputs": [],
            "name": "getBookeeper",
            "outputs": [
                {
                    "internalType": "address",
                    "name": "",
                    "type": "address"
                }
            ],
            "stateMutability": "view",
            "type": "function"
        },
        {
            "inputs": [],
            "name": "getGeneralCounsel",
            "outputs": [
                {
                    "internalType": "uint40",
                    "name": "",
                    "type": "uint40"
                }
            ],
            "stateMutability": "view",
            "type": "function"
        },
        {
            "inputs": [
                {
                    "internalType": "uint256",
                    "name": "seqOfOpt",
                    "type": "uint256"
                }
            ],
            "name": "getObligorsOfOption",
            "outputs": [
                {
                    "internalType": "uint256[]",
                    "name": "",
                    "type": "uint256[]"
                }
            ],
            "stateMutability": "view",
            "type": "function"
        },
        {
            "inputs": [
                {
                    "internalType": "uint256",
                    "name": "seqOfOpt",
                    "type": "uint256"
                }
            ],
            "name": "getOption",
            "outputs": [
                {
                    "components": [
                        {
                            "components": [
                                {
                                    "internalType": "uint32",
                                    "name": "seqOfOpt",
                                    "type": "uint32"
                                },
                                {
                                    "internalType": "uint8",
                                    "name": "typeOfOpt",
                                    "type": "uint8"
                                },
                                {
                                    "internalType": "uint16",
                                    "name": "classOfShare",
                                    "type": "uint16"
                                },
                                {
                                    "internalType": "uint32",
                                    "name": "rate",
                                    "type": "uint32"
                                },
                                {
                                    "internalType": "uint48",
                                    "name": "issueDate",
                                    "type": "uint48"
                                },
                                {
                                    "internalType": "uint48",
                                    "name": "triggerDate",
                                    "type": "uint48"
                                },
                                {
                                    "internalType": "uint16",
                                    "name": "execDays",
                                    "type": "uint16"
                                },
                                {
                                    "internalType": "uint16",
                                    "name": "closingDays",
                                    "type": "uint16"
                                },
                                {
                                    "internalType": "uint40",
                                    "name": "obligor",
                                    "type": "uint40"
                                }
                            ],
                            "internalType": "struct OptionsRepo.Head",
                            "name": "head",
                            "type": "tuple"
                        },
                        {
                            "components": [
                                {
                                    "internalType": "uint32",
                                    "name": "seq",
                                    "type": "uint32"
                                },
                                {
                                    "internalType": "uint8",
                                    "name": "logicOpr",
                                    "type": "uint8"
                                },
                                {
                                    "internalType": "uint8",
                                    "name": "compOpr1",
                                    "type": "uint8"
                                },
                                {
                                    "internalType": "uint64",
                                    "name": "para1",
                                    "type": "uint64"
                                },
                                {
                                    "internalType": "uint8",
                                    "name": "compOpr2",
                                    "type": "uint8"
                                },
                                {
                                    "internalType": "uint64",
                                    "name": "para2",
                                    "type": "uint64"
                                },
                                {
                                    "internalType": "uint8",
                                    "name": "compOpr3",
                                    "type": "uint8"
                                },
                                {
                                    "internalType": "uint64",
                                    "name": "para3",
                                    "type": "uint64"
                                }
                            ],
                            "internalType": "struct CondsRepo.Cond",
                            "name": "cond",
                            "type": "tuple"
                        },
                        {
                            "components": [
                                {
                                    "internalType": "uint48",
                                    "name": "closingDate",
                                    "type": "uint48"
                                },
                                {
                                    "internalType": "uint40",
                                    "name": "rightholder",
                                    "type": "uint40"
                                },
                                {
                                    "internalType": "uint64",
                                    "name": "paid",
                                    "type": "uint64"
                                },
                                {
                                    "internalType": "uint64",
                                    "name": "par",
                                    "type": "uint64"
                                },
                                {
                                    "internalType": "uint8",
                                    "name": "state",
                                    "type": "uint8"
                                }
                            ],
                            "internalType": "struct OptionsRepo.Body",
                            "name": "body",
                            "type": "tuple"
                        }
                    ],
                    "internalType": "struct OptionsRepo.Option",
                    "name": "option",
                    "type": "tuple"
                }
            ],
            "stateMutability": "view",
            "type": "function"
        },
        {
            "inputs": [],
            "name": "getOwner",
            "outputs": [
                {
                    "internalType": "uint40",
                    "name": "",
                    "type": "uint40"
                }
            ],
            "stateMutability": "view",
            "type": "function"
        },
        {
            "inputs": [],
            "name": "getSNList",
            "outputs": [
                {
                    "internalType": "uint256[]",
                    "name": "",
                    "type": "uint256[]"
                }
            ],
            "stateMutability": "view",
            "type": "function"
        },
        {
            "inputs": [
                {
                    "internalType": "bytes32",
                    "name": "role",
                    "type": "bytes32"
                },
                {
                    "internalType": "uint256",
                    "name": "acct",
                    "type": "uint256"
                }
            ],
            "name": "grantRole",
            "outputs": [],
            "stateMutability": "nonpayable",
            "type": "function"
        },
        {
            "inputs": [
                {
                    "internalType": "bytes32",
                    "name": "role",
                    "type": "bytes32"
                },
                {
                    "internalType": "uint256",
                    "name": "acct",
                    "type": "uint256"
                }
            ],
            "name": "hasRole",
            "outputs": [
                {
                    "internalType": "bool",
                    "name": "",
                    "type": "bool"
                }
            ],
            "stateMutability": "view",
            "type": "function"
        },
        {
            "inputs": [
                {
                    "internalType": "uint256",
                    "name": "owner",
                    "type": "uint256"
                },
                {
                    "internalType": "address",
                    "name": "directKeeper",
                    "type": "address"
                },
                {
                    "internalType": "address",
                    "name": "regCenter",
                    "type": "address"
                },
                {
                    "internalType": "address",
                    "name": "generalKeeper",
                    "type": "address"
                }
            ],
            "name": "init",
            "outputs": [],
            "stateMutability": "nonpayable",
            "type": "function"
        },
        {
            "inputs": [
                {
                    "internalType": "uint256",
                    "name": "seqOfOpt",
                    "type": "uint256"
                },
                {
                    "internalType": "uint256",
                    "name": "acct",
                    "type": "uint256"
                }
            ],
            "name": "isObligor",
            "outputs": [
                {
                    "internalType": "bool",
                    "name": "",
                    "type": "bool"
                }
            ],
            "stateMutability": "view",
            "type": "function"
        },
        {
            "inputs": [
                {
                    "internalType": "uint256",
                    "name": "seqOfOpt",
                    "type": "uint256"
                }
            ],
            "name": "isOption",
            "outputs": [
                {
                    "internalType": "bool",
                    "name": "",
                    "type": "bool"
                }
            ],
            "stateMutability": "view",
            "type": "function"
        },
        {
            "inputs": [],
            "name": "lockContents",
            "outputs": [],
            "stateMutability": "nonpayable",
            "type": "function"
        },
        {
            "inputs": [
                {
                    "internalType": "uint256",
                    "name": "seqOfOpt",
                    "type": "uint256"
                },
                {
                    "internalType": "uint256",
                    "name": "obligor",
                    "type": "uint256"
                }
            ],
            "name": "removeObligorFromOpt",
            "outputs": [
                {
                    "internalType": "bool",
                    "name": "flag",
                    "type": "bool"
                }
            ],
            "stateMutability": "nonpayable",
            "type": "function"
        },
        {
            "inputs": [
                {
                    "internalType": "bytes32",
                    "name": "role",
                    "type": "bytes32"
                }
            ],
            "name": "renounceRole",
            "outputs": [],
            "stateMutability": "nonpayable",
            "type": "function"
        },
        {
            "inputs": [
                {
                    "internalType": "bytes32",
                    "name": "role",
                    "type": "bytes32"
                },
                {
                    "internalType": "uint256",
                    "name": "acct",
                    "type": "uint256"
                }
            ],
            "name": "revokeRole",
            "outputs": [],
            "stateMutability": "nonpayable",
            "type": "function"
        },
        {
            "inputs": [
                {
                    "internalType": "address",
                    "name": "keeper",
                    "type": "address"
                }
            ],
            "name": "setDirectKeeper",
            "outputs": [],
            "stateMutability": "nonpayable",
            "type": "function"
        },
        {
            "inputs": [
                {
                    "internalType": "uint256",
                    "name": "acct",
                    "type": "uint256"
                }
            ],
            "name": "setGeneralCounsel",
            "outputs": [],
            "stateMutability": "nonpayable",
            "type": "function"
        },
        {
            "inputs": [
                {
                    "internalType": "uint256",
                    "name": "acct",
                    "type": "uint256"
                }
            ],
            "name": "setOwner",
            "outputs": [],
            "stateMutability": "nonpayable",
            "type": "function"
        },
        {
            "inputs": [
                {
                    "internalType": "bytes32",
                    "name": "role",
                    "type": "bytes32"
                },
                {
                    "internalType": "uint256",
                    "name": "acct",
                    "type": "uint256"
                }
            ],
            "name": "setRoleAdmin",
            "outputs": [],
            "stateMutability": "nonpayable",
            "type": "function"
        }
    ],
    "bytecode": "608060405234801561001057600080fd5b5061298e806100206000396000f3fe608060405234801561001057600080fd5b506004361061018e5760003560e01c80635a601d61116100de5780638bb9c5bf11610097578063dc890da911610071578063dc890da9146103c1578063e87a6f18146103d4578063ed211023146103dc578063f045a769146103fc57600080fd5b80638bb9c5bf14610369578063b3be456a1461037c578063b3f05b97146103ad57600080fd5b80635a601d61146102f55780636be8496f146103085780637e063c5a1461031b5780638041494e1461032e578063809bf77b14610341578063893d20e81461036157600080fd5b80633bce3c301161014b5780634a14beb1116101255780634a14beb1146102a75780634b4b0d37146102ba5780635171ebd4146102cf57806356da88d1146102e257600080fd5b80633bce3c30146102615780633da9a6001461027457806341ec8c4a1461028757600080fd5b8063103f6edd146101935780631368f327146101b657806319d61ad9146101f65780631b6ea9f91461020b5780631ce5e9a61461021e57806326d29afa1461023e575b600080fd5b61019b610404565b60405164ffffffffff90911681526020015b60405180910390f35b60008052600460209081527f17ef568e3e12ab5b9c7254a8d58478811de00f9e6eb34345acd53bf8fd09d3ec5460405163ffffffff9091168152016101ad565b610209610204366004611fb7565b610490565b005b610209610219366004611fb7565b610524565b61023161022c366004611fd9565b610549565b6040516101ad91906121a4565b61025161024c366004611fb7565b61095e565b60405190151581526020016101ad565b61025161026f366004611fb7565b610af7565b610209610282366004611fd9565b610b45565b61029a6102953660046121db565b610c57565b6040516101ad919061223a565b6102096102b5366004611fd9565b610dee565b6102c2610fde565b6040516101ad9190612249565b6102096102dd366004611fb7565b611067565b6102516102f0366004611fb7565b61108c565b610251610303366004611fd9565b6111d0565b6102096103163660046122ad565b6114c5565b610251610329366004611fb7565b611577565b61020961033c366004611fd9565b6115c0565b61035461034f366004611fd9565b6117a5565b6040516101ad91906122d1565b61019b611844565b610209610377366004611fd9565b61187f565b61025161038a366004611fd9565b600090815260046020526040902054600160581b900465ffffffffffff16151590565b60028054600160f01b900460ff1614610251565b6102096103cf366004612309565b6118d8565b6103546119bb565b6103e4611a45565b6040516001600160a01b0390911681526020016101ad565b610209611acb565b60405163e8c0cc1d60e01b81526002600482015260009073__$364aad554dc80380f414546becdd2c1584$__9063e8c0cc1d906024015b60206040518083038186803b15801561045357600080fd5b505af4158015610467573d6000803e3d6000fd5b505050506040513d601f19601f8201168201806040525081019061048b919061236c565b905090565b73__$364aad554dc80380f414546becdd2c1584$__6382daafaa6002846104b5611ce9565b6040516001600160e01b031960e086901b1681526004810193909352602483019190915264ffffffffff166044820152606481018490526084015b60006040518083038186803b15801561050857600080fd5b505af415801561051c573d6000803e3d6000fd5b505050505050565b73__$364aad554dc80380f414546becdd2c1584$__636320d75e6002846104b5611ce9565b610551611ea9565b600082815260046020526040902054600160581b900465ffffffffffff166105b75760405162461bcd60e51b815260206004820152601460248201527313d40b91d3ce881bdc1d081b9bdd08195e1a5cdd60621b60448201526064015b60405180910390fd5b6004600001600083815260200190815260200160002060405180606001604052908160008201604051806101200160405290816000820160009054906101000a900463ffffffff1663ffffffff1663ffffffff1681526020016000820160049054906101000a900460ff1660ff1660ff1681526020016000820160059054906101000a900461ffff1661ffff1661ffff1681526020016000820160079054906101000a900463ffffffff1663ffffffff1663ffffffff16815260200160008201600b9054906101000a900465ffffffffffff1665ffffffffffff1665ffffffffffff1681526020016000820160119054906101000a900465ffffffffffff1665ffffffffffff1665ffffffffffff1681526020016000820160179054906101000a900461ffff1661ffff1661ffff1681526020016000820160199054906101000a900461ffff1661ffff1661ffff16815260200160008201601b9054906101000a900464ffffffffff1664ffffffffff1664ffffffffff1681525050815260200160018201604051806101000160405290816000820160009054906101000a900463ffffffff1663ffffffff1663ffffffff1681526020016000820160049054906101000a900460ff1660ff1660ff1681526020016000820160059054906101000a900460ff1660ff1660ff1681526020016000820160069054906101000a90046001600160401b03166001600160401b03166001600160401b0316815260200160008201600e9054906101000a900460ff1660ff1660ff16815260200160008201600f9054906101000a90046001600160401b03166001600160401b03166001600160401b031681526020016000820160179054906101000a900460ff1660ff1660ff1681526020016000820160189054906101000a90046001600160401b03166001600160401b03166001600160401b0316815250508152602001600282016040518060a00160405290816000820160009054906101000a900465ffffffffffff1665ffffffffffff1665ffffffffffff1681526020016000820160069054906101000a900464ffffffffff1664ffffffffff1664ffffffffff16815260200160008201600b9054906101000a90046001600160401b03166001600160401b03166001600160401b031681526020016000820160139054906101000a90046001600160401b03166001600160401b03166001600160401b0316815260200160008201601b9054906101000a900460ff1660ff1660ff1681525050815250509050919050565b600073__$364aad554dc80380f414546becdd2c1584$__63a8ef95ac6002684174746f726e65797360b81b610991611ce9565b6040516001600160e01b031960e086901b1681526004810193909352602483019190915264ffffffffff16604482015260640160206040518083038186803b1580156109dc57600080fd5b505af41580156109f0573d6000803e3d6000fd5b505050506040513d601f19601f82011682018060405250810190610a149190612389565b610a305760405162461bcd60e51b81526004016105ae906123ab565b600083815260046020526040902054600160581b900465ffffffffffff1615610af1576000838152600560205260409081902090516392f13c3f60e01b815260048101919091526024810183905273__$8c1a4844a0a0988ea2454cf87145a95df1$__906392f13c3f906044015b60206040518083038186803b158015610ab657600080fd5b505af4158015610aca573d6000803e3d6000fd5b505050506040513d601f19601f82011682018060405250810190610aee9190612389565b90505b92915050565b6000828152600560205260408082209051633f5f77cd60e01b815260048101919091526024810183905273__$8c1a4844a0a0988ea2454cf87145a95df1$__90633f5f77cd90604401610a9e565b604051633b11adbf60e21b81526002600482015233602482015273__$364aad554dc80380f414546becdd2c1584$__9063ec46b6fc9060440160206040518083038186803b158015610b9657600080fd5b505af4158015610baa573d6000803e3d6000fd5b505050506040513d601f19601f82011682018060405250810190610bce9190612389565b610bea5760405162461bcd60e51b81526004016105ae906123d8565b60405163cc99e11b60e01b8152600260048201526024810182905273__$364aad554dc80380f414546becdd2c1584$__9063cc99e11b9060440160006040518083038186803b158015610c3c57600080fd5b505af4158015610c50573d6000803e3d6000fd5b5050505050565b610c5f611f31565b73__$364aad554dc80380f414546becdd2c1584$__63a8ef95ac6002684174746f726e65797360b81b610c90611ce9565b6040516001600160e01b031960e086901b1681526004810193909352602483019190915264ffffffffff16604482015260640160206040518083038186803b158015610cdb57600080fd5b505af4158015610cef573d6000803e3d6000fd5b505050506040513d601f19601f82011682018060405250810190610d139190612389565b610d2f5760405162461bcd60e51b81526004016105ae906123ab565b6040516398a5aa1560e01b8152600480820152602481018790526044810186905264ffffffffff851660648201526001600160401b038085166084830152831660a482015273__$bd0f380ab135f83a7568cac3e5fc41e1e4$__906398a5aa159060c4016101206040518083038186803b158015610dac57600080fd5b505af4158015610dc0573d6000803e3d6000fd5b505050506040513d601f19601f82011682018060405250810190610de491906125d6565b9695505050505050565b604051633b11adbf60e21b81526002600482015233602482015273__$364aad554dc80380f414546becdd2c1584$__9063ec46b6fc9060440160206040518083038186803b158015610e3f57600080fd5b505af4158015610e53573d6000803e3d6000fd5b505050506040513d601f19601f82011682018060405250810190610e779190612389565b80610f1c575073__$364aad554dc80380f414546becdd2c1584$__63fe2710866002610ea1611ce9565b6040516001600160e01b031960e085901b168152600481019290925264ffffffffff16602482015260440160206040518083038186803b158015610ee457600080fd5b505af4158015610ef8573d6000803e3d6000fd5b505050506040513d601f19601f82011682018060405250810190610f1c9190612389565b610f385760405162461bcd60e51b81526004016105ae906125f3565b604051632725ebef60e21b8152600260048201526024810182905273__$364aad554dc80380f414546becdd2c1584$__90639c97afbc9060440160006040518083038186803b158015610f8a57600080fd5b505af4158015610f9e573d6000803e3d6000fd5b505050507ff2735f34b69be1e6342dea95f9162f84d0db925fab655ca9f1f312ac8cbfc99d81604051610fd391815260200190565b60405180910390a150565b60405163741524b760e11b815260048082015260609073__$bd0f380ab135f83a7568cac3e5fc41e1e4$__9063e82a496e9060240160006040518083038186803b15801561102b57600080fd5b505af415801561103f573d6000803e3d6000fd5b505050506040513d6000823e601f3d908101601f1916820160405261048b919081019061270d565b73__$364aad554dc80380f414546becdd2c1584$__63ee98b3136002846104b5611ce9565b600073__$364aad554dc80380f414546becdd2c1584$__63a8ef95ac6002684174746f726e65797360b81b6110bf611ce9565b6040516001600160e01b031960e086901b1681526004810193909352602483019190915264ffffffffff16604482015260640160206040518083038186803b15801561110a57600080fd5b505af415801561111e573d6000803e3d6000fd5b505050506040513d601f19601f820116820180604052508101906111429190612389565b61115e5760405162461bcd60e51b81526004016105ae906123ab565b600083815260046020526040902054600160581b900465ffffffffffff1615610af1576000838152600560205260409081902090516392fd02df60e01b815260048101919091526024810183905273__$8c1a4844a0a0988ea2454cf87145a95df1$__906392fd02df90604401610a9e565b600073__$364aad554dc80380f414546becdd2c1584$__63a8ef95ac6002684174746f726e65797360b81b611203611ce9565b6040516001600160e01b031960e086901b1681526004810193909352602483019190915264ffffffffff16604482015260640160206040518083038186803b15801561124e57600080fd5b505af4158015611262573d6000803e3d6000fd5b505050506040513d601f19601f820116820180604052508101906112869190612389565b6112a25760405162461bcd60e51b81526004016105ae906123ab565b600082815260046020818152604092839020835161012081018552905463ffffffff8082168352640100000000820460ff169383019390935265010000000000810461ffff9081168387015267010000000000000082049093166060830152600160581b810465ffffffffffff9081166080840152600160881b82041660a0830152600160b81b8104831660c0830152600160c81b810490921660e0820152600160d81b90910464ffffffffff16610100820152915163191b63f760e11b815273__$8c1a4844a0a0988ea2454cf87145a95df1$__916392fd02df9160069173__$bd0f380ab135f83a7568cac3e5fc41e1e4$__91633236c7ee916113a99188910161223a565b60206040518083038186803b1580156113c157600080fd5b505af41580156113d5573d6000803e3d6000fd5b505050506040513d601f19601f820116820180604052508101906113f99190612892565b6040516001600160e01b031960e085901b1681526004810192909252602482015260440160206040518083038186803b15801561143557600080fd5b505af4158015611449573d6000803e3d6000fd5b505050506040513d601f19601f8201168201806040525081019061146d9190612389565b156114bf5760008381526004602090815260408083208381556001810184905560020180546001600160e01b03191690556005909152812090818181816114b48282611f7d565b505050505050600191505b50919050565b604051630f07232560e01b8152600260048201523360248201526001600160a01b038216604482015273__$364aad554dc80380f414546becdd2c1584$__90630f0723259060640160006040518083038186803b15801561152557600080fd5b505af4158015611539573d6000803e3d6000fd5b50506040516001600160a01b03841681527fe435cbeab64e4eae6497b9d8289704bd709d624a80704ef3ca9af777534bc6ec92506020019050610fd3565b604051632a3be56b60e21b815260026004820152602481018390526044810182905260009073__$364aad554dc80380f414546becdd2c1584$__9063a8ef95ac90606401610a9e565b604051633b11adbf60e21b81526002600482015233602482015273__$364aad554dc80380f414546becdd2c1584$__9063ec46b6fc9060440160206040518083038186803b15801561161157600080fd5b505af4158015611625573d6000803e3d6000fd5b505050506040513d601f19601f820116820180604052508101906116499190612389565b806116ee575073__$364aad554dc80380f414546becdd2c1584$__63fe2710866002611673611ce9565b6040516001600160e01b031960e085901b168152600481019290925264ffffffffff16602482015260440160206040518083038186803b1580156116b657600080fd5b505af41580156116ca573d6000803e3d6000fd5b505050506040513d601f19601f820116820180604052508101906116ee9190612389565b61170a5760405162461bcd60e51b81526004016105ae906125f3565b60405163b6e38a2960e01b8152600260048201526024810182905273__$364aad554dc80380f414546becdd2c1584$__9063b6e38a299060440160006040518083038186803b15801561175c57600080fd5b505af4158015611770573d6000803e3d6000fd5b505050507f8b6f40f36b4ae8cc5f55e895036457c43da4ab1f80f58c46f5ff0d72a650033b81604051610fd391815260200190565b60008181526005602052604090819020905163034306e160e21b815260609173__$8c1a4844a0a0988ea2454cf87145a95df1$__91630d0c1b84916117f09160040190815260200190565b60006040518083038186803b15801561180857600080fd5b505af415801561181c573d6000803e3d6000fd5b505050506040513d6000823e601f3d908101601f19168201604052610af191908101906128ab565b60405163987ad15360e01b81526002600482015260009073__$364aad554dc80380f414546becdd2c1584$__9063987ad1539060240161043b565b6000611889611ce9565b60405163cc0d511b60e01b8152600260048201526024810184905264ffffffffff8216604482015290915073__$364aad554dc80380f414546becdd2c1584$__9063cc0d511b906064016104f0565b6118e182611d43565b6118ea81611df2565b604051636cdd0edf60e11b815260026004820152602481018590526001600160a01b038416604482015273__$364aad554dc80380f414546becdd2c1584$__9063d9ba1dbe9060640160006040518083038186803b15801561194b57600080fd5b505af415801561195f573d6000803e3d6000fd5b5050604080518781526001600160a01b038781166020830152868116828401528516606082015290517f3abb2418c66fe32ba9c883030a75ce583971d9af9192b9b74e44e67c5e6c8c1f9350908190036080019150a150505050565b60405163034306e160e21b81526006600482015260609073__$8c1a4844a0a0988ea2454cf87145a95df1$__90630d0c1b849060240160006040518083038186803b158015611a0957600080fd5b505af4158015611a1d573d6000803e3d6000fd5b505050506040513d6000823e601f3d908101601f1916820160405261048b91908101906128ab565b604051633c3e56c160e11b81526002600482015260009073__$364aad554dc80380f414546becdd2c1584$__9063787cad829060240160206040518083038186803b158015611a9357600080fd5b505af4158015611aa7573d6000803e3d6000fd5b505050506040513d601f19601f8201168201806040525081019061048b919061293b565b604051633b11adbf60e21b81526002600482015233602482015273__$364aad554dc80380f414546becdd2c1584$__9063ec46b6fc9060440160206040518083038186803b158015611b1c57600080fd5b505af4158015611b30573d6000803e3d6000fd5b505050506040513d601f19601f82011682018060405250810190611b549190612389565b611b705760405162461bcd60e51b81526004016105ae906123d8565b600254600160f01b900460ff16600114611bcc5760405162461bcd60e51b815260206004820181905260248201527f41432e6f6e6c7950656e64696e673a20446f632069732066696e616c697a656460448201526064016105ae565b60405163cc99e11b60e01b815260026004820152684174746f726e65797360b81b602482015273__$364aad554dc80380f414546becdd2c1584$__9063cc99e11b9060440160006040518083038186803b158015611c2957600080fd5b505af4158015611c3d573d6000803e3d6000fd5b5050604051632725ebef60e21b8152600260048201526000602482015273__$364aad554dc80380f414546becdd2c1584$__9250639c97afbc915060440160006040518083038186803b158015611c9357600080fd5b505af4158015611ca7573d6000803e3d6000fd5b50506002805460ff60f01b1916600160f11b17905550506040517f35012b512309c322acf68632cd6cb702ff0e1d776fbe9394e38ffc13b434fe7590600090a1565b60008054604051634de835e760e11b81523360048201526001600160a01b0390911690639bd06bce90602401602060405180830381600087803b158015611d2f57600080fd5b505af1158015610467573d6000803e3d6000fd5b6000546001600160a01b031615611d945760405162461bcd60e51b815260206004820152601560248201527430b63932b0b23c9039b2ba103932b3a1b2b73a32b960591b60448201526064016105ae565b6040516001600160a01b03821681527f318da6c7624c71cbc0afe346c9d8827f119d0ecefb241a7b0c87217a076a8e029060200160405180910390a1600080546001600160a01b0319166001600160a01b0392909216919091179055565b6001546001600160a01b031615611e4b5760405162461bcd60e51b815260206004820152601960248201527f616c7265616479207365742067656e6572616c4b65657065720000000000000060448201526064016105ae565b6040516001600160a01b03821681527fe513d3e0f0d0a3877029dcc588748679a7a3450ec1ec7ed56d96bd012c3e61aa9060200160405180910390a1600180546001600160a01b0319166001600160a01b0392909216919091179055565b6040518060600160405280611ebc611f31565b8152604080516101008101825260008082526020828101829052928201819052606082018190526080820181905260a0820181905260c0820181905260e082015291019081526040805160a0810182526000808252602082810182905292820181905260608201819052608082015291015290565b6040805161012081018252600080825260208201819052918101829052606081018290526080810182905260a0810182905260c0810182905260e0810182905261010081019190915290565b5080546000825590600052602060002090810190611f9b9190611f9e565b50565b5b80821115611fb35760008155600101611f9f565b5090565b60008060408385031215611fca57600080fd5b50508035926020909101359150565b600060208284031215611feb57600080fd5b5035919050565b63ffffffff815116825260ff6020820151166020830152604081015161201e604084018261ffff169052565b506060810151612036606084018263ffffffff169052565b506080810151612050608084018265ffffffffffff169052565b5060a081015161206a60a084018265ffffffffffff169052565b5060c081015161208060c084018261ffff169052565b5060e081015161209660e084018261ffff169052565b506101009081015164ffffffffff16910152565b6120b5828251611ff2565b602081015163ffffffff81511661012084015260ff60208201511661014084015260ff60408201511661016084015260608101516120ff6101808501826001600160401b03169052565b50608081015160ff81166101a08501525060a08101516001600160401b0381166101c08501525060c081015160ff81166101e08501525060e001516001600160401b03811661020084015250604090810151805165ffffffffffff16610220840152602081015164ffffffffff16610240840152908101516001600160401b039081166102608401526060820151166102808301526080015160ff166102a090910152565b6102c08101610af182846120aa565b64ffffffffff81168114611f9b57600080fd5b6001600160401b0381168114611f9b57600080fd5b600080600080600060a086880312156121f357600080fd5b8535945060208601359350604086013561220c816121b3565b9250606086013561221c816121c6565b9150608086013561222c816121c6565b809150509295509295909350565b6101208101610af18284611ff2565b6020808252825182820181905260009190848201906040850190845b8181101561228c576122788385516120aa565b928401926102c09290920191600101612265565b50909695505050505050565b6001600160a01b0381168114611f9b57600080fd5b6000602082840312156122bf57600080fd5b81356122ca81612298565b9392505050565b6020808252825182820181905260009190848201906040850190845b8181101561228c578351835292840192918401916001016122ed565b6000806000806080858703121561231f57600080fd5b84359350602085013561233181612298565b9250604085013561234181612298565b9150606085013561235181612298565b939692955090935050565b8051612367816121b3565b919050565b60006020828403121561237e57600080fd5b81516122ca816121b3565b60006020828403121561239b57600080fd5b815180151581146122ca57600080fd5b60208082526013908201527241432e6f743a206e6f74204174746f726e657960681b604082015260600190565b60208082526026908201527f41432e6f6e6c794469726563744b65657065723a206e6f74206469726563742060408201526535b2b2b832b960d11b606082015260800190565b634e487b7160e01b600052604160045260246000fd5b60405161012081016001600160401b03811182821017156124575761245761241e565b60405290565b604051606081016001600160401b03811182821017156124575761245761241e565b60405161010081016001600160401b03811182821017156124575761245761241e565b604051601f8201601f191681016001600160401b03811182821017156124ca576124ca61241e565b604052919050565b805163ffffffff8116811461236757600080fd5b805160ff8116811461236757600080fd5b805161ffff8116811461236757600080fd5b805165ffffffffffff8116811461236757600080fd5b6000610120828403121561253257600080fd5b61253a612434565b9050612545826124d2565b8152612553602083016124e6565b6020820152612564604083016124f7565b6040820152612575606083016124d2565b606082015261258660808301612509565b608082015261259760a08301612509565b60a08201526125a860c083016124f7565b60c08201526125b960e083016124f7565b60e08201526101006125cc81840161235c565b9082015292915050565b600061012082840312156125e957600080fd5b610aee838361251f565b60208082526036908201527f41432e6f776e65724f72446972656374426f6f6b65657065723a206e6569746860408201527532b91037bbb732b9103737b9103137b7b5b2b2b832b960511b606082015260800190565b60006001600160401b038211156126625761266261241e565b5060051b60200190565b8051612367816121c6565b600060a0828403121561268957600080fd5b60405160a081018181106001600160401b03821117156126ab576126ab61241e565b6040529050806126ba83612509565b815260208301516126ca816121b3565b602082015260408301516126dd816121c6565b604082015260608301516126f0816121c6565b6060820152612701608084016124e6565b60808201525092915050565b6000602080838503121561272057600080fd5b82516001600160401b0381111561273657600080fd5b8301601f8101851361274757600080fd5b805161275a61275582612649565b6124a2565b8181526102c0918202830184019184820191908884111561277a57600080fd5b938501935b8385101561288657848903818112156127985760008081fd5b6127a061245d565b6127aa8b8861251f565b815261010061011f19830112156127c15760008081fd5b6127c961247f565b91506127d861012088016124d2565b82526127e761014088016124e6565b888301526127f861016088016124e6565b604081818501526101808901519150612810826121c6565b8160608501526128236101a08a016124e6565b60808501526128356101c08a0161266c565b60a08501526128476101e08a016124e6565b60c08501526128596102008a0161266c565b60e0850152838a8401526128718d6102208b01612677565b9083015250845250938401939185019161277f565b50979650505050505050565b6000602082840312156128a457600080fd5b5051919050565b600060208083850312156128be57600080fd5b82516001600160401b038111156128d457600080fd5b8301601f810185136128e557600080fd5b80516128f361275582612649565b81815260059190911b8201830190838101908783111561291257600080fd5b928401925b8284101561293057835182529284019290840190612917565b979650505050505050565b60006020828403121561294d57600080fd5b81516122ca8161229856fea26469706673582212206ce10affb494c4b16ed62d62a89293d295e656fa3742d7acecfe9dcc5514684564736f6c63430008080033",
    "sourcePath": "/Users/kaptain/github.com/hardhat/comboox/contracts/books/boh/terms/Options.sol",
    "compiler": {
        "name": "solc",
        "version": "0.8.8+commit.dddeac2f"
    },
    "functionHashes": {
        "abandonRole(bytes32)": "3da9a600",
        "addObligorIntoOpt(uint256,uint256)": "26d29afa",
        "counterOfOptions()": "1368f327",
        "createOption(uint256,uint256,uint40,uint64,uint64)": "41ec8c4a",
        "delOption(uint256)": "5a601d61",
        "finalized()": "b3f05b97",
        "getAllOptions()": "4b4b0d37",
        "getBookeeper()": "ed211023",
        "getGeneralCounsel()": "103f6edd",
        "getObligorsOfOption(uint256)": "809bf77b",
        "getOption(uint256)": "1ce5e9a6",
        "getOwner()": "893d20e8",
        "getSNList()": "e87a6f18",
        "grantRole(bytes32,uint256)": "1b6ea9f9",
        "hasRole(bytes32,uint256)": "7e063c5a",
        "init(uint256,address,address,address)": "dc890da9",
        "isObligor(uint256,uint256)": "3bce3c30",
        "isOption(uint256)": "b3be456a",
        "lockContents()": "f045a769",
        "removeObligorFromOpt(uint256,uint256)": "56da88d1",
        "renounceRole(bytes32)": "8bb9c5bf",
        "revokeRole(bytes32,uint256)": "19d61ad9",
        "setDirectKeeper(address)": "6be8496f",
        "setGeneralCounsel(uint256)": "4a14beb1",
        "setOwner(uint256)": "8041494e",
        "setRoleAdmin(bytes32,uint256)": "5171ebd4"
    },
    "gasEstimates": {
        "creation": {
            "codeDepositCost": "2127600",
            "executionCost": "2265",
            "totalCost": "2129865"
        },
        "external": {
            "abandonRole(bytes32)": "infinite",
            "addObligorIntoOpt(uint256,uint256)": "infinite",
            "counterOfOptions()": "2356",
            "createOption(uint256,uint256,uint40,uint64,uint64)": "infinite",
            "delOption(uint256)": "infinite",
            "finalized()": "2416",
            "getAllOptions()": "infinite",
            "getBookeeper()": "infinite",
            "getGeneralCounsel()": "infinite",
            "getObligorsOfOption(uint256)": "infinite",
            "getOption(uint256)": "53442",
            "getOwner()": "infinite",
            "getSNList()": "infinite",
            "grantRole(bytes32,uint256)": "infinite",
            "hasRole(bytes32,uint256)": "infinite",
            "init(uint256,address,address,address)": "infinite",
            "isObligor(uint256,uint256)": "infinite",
            "isOption(uint256)": "2540",
            "lockContents()": "infinite",
            "removeObligorFromOpt(uint256,uint256)": "infinite",
            "renounceRole(bytes32)": "infinite",
            "revokeRole(bytes32,uint256)": "infinite",
            "setDirectKeeper(address)": "infinite",
            "setGeneralCounsel(uint256)": "infinite",
            "setOwner(uint256)": "infinite",
            "setRoleAdmin(bytes32,uint256)": "infinite"
        }
    }
}