{
    "contractName": "TagAlong",
    "abi": [
        {
            "anonymous": false,
            "inputs": [
                {
                    "indexed": false,
                    "internalType": "uint256",
                    "name": "owner",
                    "type": "uint256"
                },
                {
                    "indexed": false,
                    "internalType": "address",
                    "name": "directKeeper",
                    "type": "address"
                },
                {
                    "indexed": false,
                    "internalType": "address",
                    "name": "regCenter",
                    "type": "address"
                },
                {
                    "indexed": false,
                    "internalType": "address",
                    "name": "generalKeeper",
                    "type": "address"
                }
            ],
            "name": "Init",
            "type": "event"
        },
        {
            "anonymous": false,
            "inputs": [],
            "name": "LockContents",
            "type": "event"
        },
        {
            "anonymous": false,
            "inputs": [
                {
                    "indexed": false,
                    "internalType": "address",
                    "name": "keeper",
                    "type": "address"
                }
            ],
            "name": "SetDirectKeeper",
            "type": "event"
        },
        {
            "anonymous": false,
            "inputs": [
                {
                    "indexed": false,
                    "internalType": "uint256",
                    "name": "acct",
                    "type": "uint256"
                }
            ],
            "name": "SetGeneralCounsel",
            "type": "event"
        },
        {
            "anonymous": false,
            "inputs": [
                {
                    "indexed": false,
                    "internalType": "uint256",
                    "name": "acct",
                    "type": "uint256"
                }
            ],
            "name": "SetOwner",
            "type": "event"
        },
        {
            "inputs": [
                {
                    "internalType": "bytes32",
                    "name": "role",
                    "type": "bytes32"
                }
            ],
            "name": "abandonRole",
            "outputs": [],
            "stateMutability": "nonpayable",
            "type": "function"
        },
        {
            "inputs": [
                {
                    "internalType": "uint256",
                    "name": "drager",
                    "type": "uint256"
                },
                {
                    "internalType": "uint256",
                    "name": "follower",
                    "type": "uint256"
                }
            ],
            "name": "addFollower",
            "outputs": [],
            "stateMutability": "nonpayable",
            "type": "function"
        },
        {
            "inputs": [
                {
                    "internalType": "uint256",
                    "name": "rule",
                    "type": "uint256"
                },
                {
                    "internalType": "uint256",
                    "name": "drager",
                    "type": "uint256"
                }
            ],
            "name": "createLink",
            "outputs": [],
            "stateMutability": "nonpayable",
            "type": "function"
        },
        {
            "inputs": [],
            "name": "dragers",
            "outputs": [
                {
                    "internalType": "uint256[]",
                    "name": "",
                    "type": "uint256[]"
                }
            ],
            "stateMutability": "view",
            "type": "function"
        },
        {
            "inputs": [],
            "name": "finalized",
            "outputs": [
                {
                    "internalType": "bool",
                    "name": "",
                    "type": "bool"
                }
            ],
            "stateMutability": "view",
            "type": "function"
        },
        {
            "inputs": [
                {
                    "internalType": "uint256",
                    "name": "drager",
                    "type": "uint256"
                }
            ],
            "name": "followers",
            "outputs": [
                {
                    "internalType": "uint256[]",
                    "name": "",
                    "type": "uint256[]"
                }
            ],
            "stateMutability": "view",
            "type": "function"
        },
        {
            "inputs": [],
            "name": "getBookeeper",
            "outputs": [
                {
                    "internalType": "address",
                    "name": "",
                    "type": "address"
                }
            ],
            "stateMutability": "view",
            "type": "function"
        },
        {
            "inputs": [],
            "name": "getGeneralCounsel",
            "outputs": [
                {
                    "internalType": "uint40",
                    "name": "",
                    "type": "uint40"
                }
            ],
            "stateMutability": "view",
            "type": "function"
        },
        {
            "inputs": [],
            "name": "getOwner",
            "outputs": [
                {
                    "internalType": "uint40",
                    "name": "",
                    "type": "uint40"
                }
            ],
            "stateMutability": "view",
            "type": "function"
        },
        {
            "inputs": [
                {
                    "internalType": "bytes32",
                    "name": "role",
                    "type": "bytes32"
                },
                {
                    "internalType": "uint256",
                    "name": "acct",
                    "type": "uint256"
                }
            ],
            "name": "grantRole",
            "outputs": [],
            "stateMutability": "nonpayable",
            "type": "function"
        },
        {
            "inputs": [
                {
                    "internalType": "bytes32",
                    "name": "role",
                    "type": "bytes32"
                },
                {
                    "internalType": "uint256",
                    "name": "acct",
                    "type": "uint256"
                }
            ],
            "name": "hasRole",
            "outputs": [
                {
                    "internalType": "bool",
                    "name": "",
                    "type": "bool"
                }
            ],
            "stateMutability": "view",
            "type": "function"
        },
        {
            "inputs": [
                {
                    "internalType": "uint256",
                    "name": "owner",
                    "type": "uint256"
                },
                {
                    "internalType": "address",
                    "name": "directKeeper",
                    "type": "address"
                },
                {
                    "internalType": "address",
                    "name": "regCenter",
                    "type": "address"
                },
                {
                    "internalType": "address",
                    "name": "generalKeeper",
                    "type": "address"
                }
            ],
            "name": "init",
            "outputs": [],
            "stateMutability": "nonpayable",
            "type": "function"
        },
        {
            "inputs": [
                {
                    "internalType": "uint256",
                    "name": "drager",
                    "type": "uint256"
                }
            ],
            "name": "isDrager",
            "outputs": [
                {
                    "internalType": "bool",
                    "name": "",
                    "type": "bool"
                }
            ],
            "stateMutability": "view",
            "type": "function"
        },
        {
            "inputs": [
                {
                    "internalType": "address",
                    "name": "ia",
                    "type": "address"
                },
                {
                    "components": [
                        {
                            "components": [
                                {
                                    "internalType": "uint8",
                                    "name": "typeOfDeal",
                                    "type": "uint8"
                                },
                                {
                                    "internalType": "uint16",
                                    "name": "seqOfDeal",
                                    "type": "uint16"
                                },
                                {
                                    "internalType": "uint16",
                                    "name": "preSeq",
                                    "type": "uint16"
                                },
                                {
                                    "internalType": "uint16",
                                    "name": "classOfShare",
                                    "type": "uint16"
                                },
                                {
                                    "internalType": "uint32",
                                    "name": "seqOfShare",
                                    "type": "uint32"
                                },
                                {
                                    "internalType": "uint40",
                                    "name": "seller",
                                    "type": "uint40"
                                },
                                {
                                    "internalType": "uint32",
                                    "name": "priceOfPaid",
                                    "type": "uint32"
                                },
                                {
                                    "internalType": "uint32",
                                    "name": "priceOfPar",
                                    "type": "uint32"
                                },
                                {
                                    "internalType": "uint48",
                                    "name": "closingDate",
                                    "type": "uint48"
                                }
                            ],
                            "internalType": "struct DealsRepo.Head",
                            "name": "head",
                            "type": "tuple"
                        },
                        {
                            "components": [
                                {
                                    "internalType": "uint40",
                                    "name": "buyer",
                                    "type": "uint40"
                                },
                                {
                                    "internalType": "uint40",
                                    "name": "groupOfBuyer",
                                    "type": "uint40"
                                },
                                {
                                    "internalType": "uint64",
                                    "name": "paid",
                                    "type": "uint64"
                                },
                                {
                                    "internalType": "uint64",
                                    "name": "par",
                                    "type": "uint64"
                                },
                                {
                                    "internalType": "uint8",
                                    "name": "state",
                                    "type": "uint8"
                                }
                            ],
                            "internalType": "struct DealsRepo.Body",
                            "name": "body",
                            "type": "tuple"
                        },
                        {
                            "internalType": "bytes32",
                            "name": "hashLock",
                            "type": "bytes32"
                        }
                    ],
                    "internalType": "struct DealsRepo.Deal",
                    "name": "deal",
                    "type": "tuple"
                }
            ],
            "name": "isExempted",
            "outputs": [
                {
                    "internalType": "bool",
                    "name": "",
                    "type": "bool"
                }
            ],
            "stateMutability": "view",
            "type": "function"
        },
        {
            "inputs": [
                {
                    "internalType": "uint256",
                    "name": "drager",
                    "type": "uint256"
                },
                {
                    "internalType": "uint256",
                    "name": "follower",
                    "type": "uint256"
                }
            ],
            "name": "isLinked",
            "outputs": [
                {
                    "internalType": "bool",
                    "name": "",
                    "type": "bool"
                }
            ],
            "stateMutability": "view",
            "type": "function"
        },
        {
            "inputs": [
                {
                    "internalType": "address",
                    "name": "ia",
                    "type": "address"
                },
                {
                    "components": [
                        {
                            "components": [
                                {
                                    "internalType": "uint8",
                                    "name": "typeOfDeal",
                                    "type": "uint8"
                                },
                                {
                                    "internalType": "uint16",
                                    "name": "seqOfDeal",
                                    "type": "uint16"
                                },
                                {
                                    "internalType": "uint16",
                                    "name": "preSeq",
                                    "type": "uint16"
                                },
                                {
                                    "internalType": "uint16",
                                    "name": "classOfShare",
                                    "type": "uint16"
                                },
                                {
                                    "internalType": "uint32",
                                    "name": "seqOfShare",
                                    "type": "uint32"
                                },
                                {
                                    "internalType": "uint40",
                                    "name": "seller",
                                    "type": "uint40"
                                },
                                {
                                    "internalType": "uint32",
                                    "name": "priceOfPaid",
                                    "type": "uint32"
                                },
                                {
                                    "internalType": "uint32",
                                    "name": "priceOfPar",
                                    "type": "uint32"
                                },
                                {
                                    "internalType": "uint48",
                                    "name": "closingDate",
                                    "type": "uint48"
                                }
                            ],
                            "internalType": "struct DealsRepo.Head",
                            "name": "head",
                            "type": "tuple"
                        },
                        {
                            "components": [
                                {
                                    "internalType": "uint40",
                                    "name": "buyer",
                                    "type": "uint40"
                                },
                                {
                                    "internalType": "uint40",
                                    "name": "groupOfBuyer",
                                    "type": "uint40"
                                },
                                {
                                    "internalType": "uint64",
                                    "name": "paid",
                                    "type": "uint64"
                                },
                                {
                                    "internalType": "uint64",
                                    "name": "par",
                                    "type": "uint64"
                                },
                                {
                                    "internalType": "uint8",
                                    "name": "state",
                                    "type": "uint8"
                                }
                            ],
                            "internalType": "struct DealsRepo.Body",
                            "name": "body",
                            "type": "tuple"
                        },
                        {
                            "internalType": "bytes32",
                            "name": "hashLock",
                            "type": "bytes32"
                        }
                    ],
                    "internalType": "struct DealsRepo.Deal",
                    "name": "deal",
                    "type": "tuple"
                }
            ],
            "name": "isTriggered",
            "outputs": [
                {
                    "internalType": "bool",
                    "name": "",
                    "type": "bool"
                }
            ],
            "stateMutability": "view",
            "type": "function"
        },
        {
            "inputs": [
                {
                    "internalType": "uint256",
                    "name": "drager",
                    "type": "uint256"
                }
            ],
            "name": "linkRule",
            "outputs": [
                {
                    "components": [
                        {
                            "internalType": "uint16",
                            "name": "seqOfRule",
                            "type": "uint16"
                        },
                        {
                            "internalType": "uint8",
                            "name": "qtyOfSubRule",
                            "type": "uint8"
                        },
                        {
                            "internalType": "uint8",
                            "name": "seqOfSubRule",
                            "type": "uint8"
                        },
                        {
                            "internalType": "uint40",
                            "name": "drager",
                            "type": "uint40"
                        },
                        {
                            "internalType": "uint40",
                            "name": "dragerGroup",
                            "type": "uint40"
                        },
                        {
                            "internalType": "uint8",
                            "name": "triggerType",
                            "type": "uint8"
                        },
                        {
                            "internalType": "uint16",
                            "name": "shareRatioThreshold",
                            "type": "uint16"
                        },
                        {
                            "internalType": "bool",
                            "name": "proRata",
                            "type": "bool"
                        },
                        {
                            "internalType": "uint32",
                            "name": "unitPrice",
                            "type": "uint32"
                        },
                        {
                            "internalType": "uint32",
                            "name": "roe",
                            "type": "uint32"
                        }
                    ],
                    "internalType": "struct RulesParser.LinkRule",
                    "name": "",
                    "type": "tuple"
                }
            ],
            "stateMutability": "view",
            "type": "function"
        },
        {
            "inputs": [],
            "name": "lockContents",
            "outputs": [],
            "stateMutability": "nonpayable",
            "type": "function"
        },
        {
            "inputs": [
                {
                    "internalType": "address",
                    "name": "ia",
                    "type": "address"
                },
                {
                    "components": [
                        {
                            "components": [
                                {
                                    "internalType": "uint8",
                                    "name": "typeOfDeal",
                                    "type": "uint8"
                                },
                                {
                                    "internalType": "uint16",
                                    "name": "seqOfDeal",
                                    "type": "uint16"
                                },
                                {
                                    "internalType": "uint16",
                                    "name": "preSeq",
                                    "type": "uint16"
                                },
                                {
                                    "internalType": "uint16",
                                    "name": "classOfShare",
                                    "type": "uint16"
                                },
                                {
                                    "internalType": "uint32",
                                    "name": "seqOfShare",
                                    "type": "uint32"
                                },
                                {
                                    "internalType": "uint40",
                                    "name": "seller",
                                    "type": "uint40"
                                },
                                {
                                    "internalType": "uint32",
                                    "name": "priceOfPaid",
                                    "type": "uint32"
                                },
                                {
                                    "internalType": "uint32",
                                    "name": "priceOfPar",
                                    "type": "uint32"
                                },
                                {
                                    "internalType": "uint48",
                                    "name": "closingDate",
                                    "type": "uint48"
                                }
                            ],
                            "internalType": "struct DealsRepo.Head",
                            "name": "head",
                            "type": "tuple"
                        },
                        {
                            "components": [
                                {
                                    "internalType": "uint40",
                                    "name": "buyer",
                                    "type": "uint40"
                                },
                                {
                                    "internalType": "uint40",
                                    "name": "groupOfBuyer",
                                    "type": "uint40"
                                },
                                {
                                    "internalType": "uint64",
                                    "name": "paid",
                                    "type": "uint64"
                                },
                                {
                                    "internalType": "uint64",
                                    "name": "par",
                                    "type": "uint64"
                                },
                                {
                                    "internalType": "uint8",
                                    "name": "state",
                                    "type": "uint8"
                                }
                            ],
                            "internalType": "struct DealsRepo.Body",
                            "name": "body",
                            "type": "tuple"
                        },
                        {
                            "internalType": "bytes32",
                            "name": "hashLock",
                            "type": "bytes32"
                        }
                    ],
                    "internalType": "struct DealsRepo.Deal",
                    "name": "deal",
                    "type": "tuple"
                },
                {
                    "components": [
                        {
                            "components": [
                                {
                                    "internalType": "uint32",
                                    "name": "seqOfShare",
                                    "type": "uint32"
                                },
                                {
                                    "internalType": "uint32",
                                    "name": "preSeq",
                                    "type": "uint32"
                                },
                                {
                                    "internalType": "uint16",
                                    "name": "class",
                                    "type": "uint16"
                                },
                                {
                                    "internalType": "uint48",
                                    "name": "issueDate",
                                    "type": "uint48"
                                },
                                {
                                    "internalType": "uint40",
                                    "name": "shareholder",
                                    "type": "uint40"
                                },
                                {
                                    "internalType": "uint32",
                                    "name": "priceOfPaid",
                                    "type": "uint32"
                                },
                                {
                                    "internalType": "uint32",
                                    "name": "priceOfPar",
                                    "type": "uint32"
                                },
                                {
                                    "internalType": "uint16",
                                    "name": "para",
                                    "type": "uint16"
                                },
                                {
                                    "internalType": "uint8",
                                    "name": "arg",
                                    "type": "uint8"
                                }
                            ],
                            "internalType": "struct SharesRepo.Head",
                            "name": "head",
                            "type": "tuple"
                        },
                        {
                            "components": [
                                {
                                    "internalType": "uint48",
                                    "name": "payInDeadline",
                                    "type": "uint48"
                                },
                                {
                                    "internalType": "uint64",
                                    "name": "paid",
                                    "type": "uint64"
                                },
                                {
                                    "internalType": "uint64",
                                    "name": "par",
                                    "type": "uint64"
                                },
                                {
                                    "internalType": "uint64",
                                    "name": "cleanPaid",
                                    "type": "uint64"
                                },
                                {
                                    "internalType": "uint8",
                                    "name": "state",
                                    "type": "uint8"
                                },
                                {
                                    "internalType": "uint8",
                                    "name": "para",
                                    "type": "uint8"
                                }
                            ],
                            "internalType": "struct SharesRepo.Body",
                            "name": "body",
                            "type": "tuple"
                        }
                    ],
                    "internalType": "struct SharesRepo.Share",
                    "name": "share",
                    "type": "tuple"
                },
                {
                    "internalType": "uint256",
                    "name": "caller",
                    "type": "uint256"
                }
            ],
            "name": "priceCheck",
            "outputs": [
                {
                    "internalType": "bool",
                    "name": "",
                    "type": "bool"
                }
            ],
            "stateMutability": "view",
            "type": "function"
        },
        {
            "inputs": [
                {
                    "internalType": "uint256",
                    "name": "drager",
                    "type": "uint256"
                }
            ],
            "name": "removeDrager",
            "outputs": [],
            "stateMutability": "nonpayable",
            "type": "function"
        },
        {
            "inputs": [
                {
                    "internalType": "uint256",
                    "name": "drager",
                    "type": "uint256"
                },
                {
                    "internalType": "uint256",
                    "name": "follower",
                    "type": "uint256"
                }
            ],
            "name": "removeFollower",
            "outputs": [],
            "stateMutability": "nonpayable",
            "type": "function"
        },
        {
            "inputs": [
                {
                    "internalType": "bytes32",
                    "name": "role",
                    "type": "bytes32"
                }
            ],
            "name": "renounceRole",
            "outputs": [],
            "stateMutability": "nonpayable",
            "type": "function"
        },
        {
            "inputs": [
                {
                    "internalType": "bytes32",
                    "name": "role",
                    "type": "bytes32"
                },
                {
                    "internalType": "uint256",
                    "name": "acct",
                    "type": "uint256"
                }
            ],
            "name": "revokeRole",
            "outputs": [],
            "stateMutability": "nonpayable",
            "type": "function"
        },
        {
            "inputs": [
                {
                    "internalType": "address",
                    "name": "keeper",
                    "type": "address"
                }
            ],
            "name": "setDirectKeeper",
            "outputs": [],
            "stateMutability": "nonpayable",
            "type": "function"
        },
        {
            "inputs": [
                {
                    "internalType": "uint256",
                    "name": "acct",
                    "type": "uint256"
                }
            ],
            "name": "setGeneralCounsel",
            "outputs": [],
            "stateMutability": "nonpayable",
            "type": "function"
        },
        {
            "inputs": [
                {
                    "internalType": "uint256",
                    "name": "acct",
                    "type": "uint256"
                }
            ],
            "name": "setOwner",
            "outputs": [],
            "stateMutability": "nonpayable",
            "type": "function"
        },
        {
            "inputs": [
                {
                    "internalType": "bytes32",
                    "name": "role",
                    "type": "bytes32"
                },
                {
                    "internalType": "uint256",
                    "name": "acct",
                    "type": "uint256"
                }
            ],
            "name": "setRoleAdmin",
            "outputs": [],
            "stateMutability": "nonpayable",
            "type": "function"
        }
    ],
    "bytecode": "608060405234801561001057600080fd5b5061339a806100206000396000f3fe608060405234801561001057600080fd5b50600436106101a95760003560e01c80637e063c5a116100f9578063b3f05b9711610097578063d249176e11610071578063d249176e14610499578063dc890da9146104ac578063ed211023146104bf578063f045a769146104df57600080fd5b8063b3f05b971461046a578063b4a952b31461047e578063ca93c8fc1461048657600080fd5b806389c29dbb116100d357806389c29dbb1461041e5780638bb9c5bf14610431578063a186aabb14610444578063b097b8571461045757600080fd5b80637e063c5a146103f05780638041494e14610403578063893d20e81461041657600080fd5b806321028eb9116101665780634a14beb1116101405780634a14beb1146103a45780635171ebd4146103b757806352fae48a146103ca5780636be8496f146103dd57600080fd5b806321028eb91461036b578063237006e01461037e5780633da9a6001461039157600080fd5b806306c4b208146101ae578063103f6edd146101d657806319d61ad9146101f45780631abc901f146102095780631b6ea9f9146102295780631ce69d391461023c575b600080fd5b6101c16101bc366004612ad9565b6104e7565b60405190151581526020015b60405180910390f35b6101de610b19565b60405164ffffffffff90911681526020016101cd565b610207610202366004612b10565b610ba5565b005b61021c610217366004612b32565b610c37565b6040516101cd9190612b4b565b610207610237366004612b10565b610cd7565b61035e61024a366004612b32565b6040805161014081018252600080825260208201819052918101829052606081018290526080810182905260a0810182905260c0810182905260e0810182905261010081018290526101208101919091525060009081526004602090815260409182902082516101408101845260029091015461ffff808216835260ff6201000083048116948401949094526301000000820484169483019490945264ffffffffff640100000000820481166060840152600160481b8204166080830152600160701b8104831660a0830152600160781b810490931660c0820152600160881b8304909116151560e082015263ffffffff600160901b83048116610100830152600160b01b90920490911661012082015290565b6040516101cd9190612b8f565b6101c1610379366004612d0f565b610cfd565b6101c161038c366004612ad9565b610ee8565b61020761039f366004612b32565b611385565b6102076103b2366004612b32565b611410565b6102076103c5366004612b10565b61166d565b6102076103d8366004612b32565b611693565b6102076103eb366004612e40565b61182c565b6101c16103fe366004612b10565b6118de565b610207610411366004612b32565b61197a565b6101de611a33565b61020761042c366004612b10565b611a6e565b61020761043f366004612b32565b611be2565b610207610452366004612b10565b611c07565b6101c1610465366004612b10565b611f31565b60028054600160f01b900460ff16146101c1565b61021c611f7d565b610207610494366004612b10565b612007565b6101c16104a7366004612b32565b612126565b6102076104ba366004612e5d565b6121b3565b6104c7612295565b6040516001600160a01b0390911681526020016101cd565b61020761231b565b6000600260ff16600160009054906101000a90046001600160a01b03166001600160a01b031663acd2d0576040518163ffffffff1660e01b815260040160206040518083038186803b15801561053c57600080fd5b505afa158015610550573d6000803e3d6000fd5b505050506040513d601f19601f820116820180604052508101906105749190612eb0565b6040516337066e9d60e11b81526001600160a01b0386811660048301529190911690636e0cdd3a9060240160806040518083038186803b1580156105b757600080fd5b505afa1580156105cb573d6000803e3d6000fd5b505050506040513d601f19601f820116820180604052508101906105ef9190612ed8565b6060015160ff161461060357506000610b13565b81515160ff166001148061061c575081515160ff166004145b1561062957506000610b13565b815160a00151604051633f5f77cd60e01b81526005600482015264ffffffffff909116602482015273__$8c1a4844a0a0988ea2454cf87145a95df1$__90633f5f77cd9060440160206040518083038186803b15801561068857600080fd5b505af415801561069c573d6000803e3d6000fd5b505050506040513d601f19601f820116820180604052508101906106c09190612f64565b6106cc57506000610b13565b815160a09081015164ffffffffff90811660009081526004602090815260409182902082516101408101845260029091015461ffff808216835260ff62010000830481169484019490945263010000008204841694830194909452640100000000810485166060830152600160481b81049094166080820152600160701b84048216948101859052600160781b840490921660c0830152600160881b830416151560e082015263ffffffff600160901b83048116610100830152600160b01b909204909116610120820152906107a6576001915050610b13565b600154604080516319fdcb7760e11b815290516000926001600160a01b0316916333fb96ee916004808301926020929190829003018186803b1580156107eb57600080fd5b505afa1580156107ff573d6000803e3d6000fd5b505050506040513d601f19601f820116820180604052508101906108239190612eb0565b6001600160a01b031663984199286040518163ffffffff1660e01b815260040160206040518083038186803b15801561085b57600080fd5b505afa15801561086f573d6000803e3d6000fd5b505050506040513d601f19601f820116820180604052508101906108939190612f8a565b9050600160009054906101000a90046001600160a01b03166001600160a01b03166333fb96ee6040518163ffffffff1660e01b815260040160206040518083038186803b1580156108e357600080fd5b505afa1580156108f7573d6000803e3d6000fd5b505050506040513d601f19601f8201168201806040525081019061091b9190612eb0565b845160a0015160405163302e2f6360e11b815264ffffffffff90911660048201526001600160a01b03919091169063605c5ec69060240160206040518083038186803b15801561096a57600080fd5b505afa15801561097e573d6000803e3d6000fd5b505050506040513d601f19601f820116820180604052508101906109a29190612f8a565b64ffffffffff168164ffffffffff16146109c157600092505050610b13565b600080600160009054906101000a90046001600160a01b03166001600160a01b031663acd2d0576040518163ffffffff1660e01b815260040160206040518083038186803b158015610a1257600080fd5b505afa158015610a26573d6000803e3d6000fd5b505050506040513d601f19601f82011682018060405250810190610a4a9190612eb0565b60405163deb5717560e01b81526001600160a01b038981166004830152919091169063deb5717590602401604080518083038186803b158015610a8c57600080fd5b505afa158015610aa0573d6000803e3d6000fd5b505050506040513d601f19601f82011682018060405250810190610ac49190612fb2565b915091508164ffffffffff168364ffffffffff1614610aea576001945050505050610b13565b8360c0015161ffff168161ffff1611610b0a576001945050505050610b13565b60009450505050505b92915050565b60405163e8c0cc1d60e01b81526002600482015260009073__$364aad554dc80380f414546becdd2c1584$__9063e8c0cc1d906024015b60206040518083038186803b158015610b6857600080fd5b505af4158015610b7c573d6000803e3d6000fd5b505050506040513d601f19601f82011682018060405250810190610ba09190612f8a565b905090565b73__$364aad554dc80380f414546becdd2c1584$__6382daafaa60028484610bcb61255f565b6040516001600160e01b031960e087901b16815260048101949094526024840192909252604483015264ffffffffff16606482015260840160006040518083038186803b158015610c1b57600080fd5b505af4158015610c2f573d6000803e3d6000fd5b505050505050565b600081815260046020819052604091829020915163034306e160e21b815260609273__$8c1a4844a0a0988ea2454cf87145a95df1$__92630d0c1b8492610c8392910190815260200190565b60006040518083038186803b158015610c9b57600080fd5b505af4158015610caf573d6000803e3d6000fd5b505050506040513d6000823e601f3d908101601f19168201604052610b13919081019061307c565b73__$364aad554dc80380f414546becdd2c1584$__636320d75e60028484610bcb61255f565b6000610d0985856104e7565b610d1557506000610ee0565b835160a0015164ffffffffff168214610d755760405162461bcd60e51b815260206004820152601b60248201527f44412e50433a2063616c6c6572206973206e6f7420647261676572000000000060448201526064015b60405180910390fd5b60008281526004602090815260409182902082516101408101845260029182015461ffff808216835260ff6201000083048116958401959095526301000000820485169583019590955264ffffffffff640100000000820481166060840152600160481b8204166080830152600160701b8104841660a08301819052600160781b820490951660c0830152600160881b8104909316151560e082015263ffffffff600160901b84048116610100830152600160b01b90930490921661012083015290911015610e48576001915050610ee0565b60a081015160ff1660021415610e8c5780610100015163ffffffff16856000015160c0015163ffffffff1610610e82576001915050610ee0565b6000915050610ee0565b80610120015163ffffffff16610ec5866000015160c00151866000015160a00151886000015161010001518860000151606001516125b9565b63ffffffff1610610eda576001915050610ee0565b60009150505b949350505050565b6001546040805163682ebf0560e01b815290516000926001600160a01b03169163682ebf05916004808301926020929190829003018186803b158015610f2d57600080fd5b505afa158015610f41573d6000803e3d6000fd5b505050506040513d601f19601f82011682018060405250810190610f659190612eb0565b604051634940318360e01b81526001600160a01b038581166004830152919091169063494031839060240160206040518083038186803b158015610fa857600080fd5b505afa158015610fbc573d6000803e3d6000fd5b505050506040513d601f19601f82011682018060405250810190610fe09190612f64565b6110205760405162461bcd60e51b81526020600482015260116024820152701b5bdd1a5bdb881393d5081c185cdcd959607a1b6044820152606401610d6c565b61102a83836104e7565b61103657506001610b13565b6001546040805163682ebf0560e01b815290516000926001600160a01b03169163682ebf05916004808301926020929190829003018186803b15801561107b57600080fd5b505afa15801561108f573d6000803e3d6000fd5b505050506040513d601f19601f820116820180604052508101906110b39190612eb0565b604051630597757b60e21b81526001600160a01b03868116600483015260016024830152919091169063165dd5ec9060440160006040518083038186803b1580156110fd57600080fd5b505afa158015611111573d6000803e3d6000fd5b505050506040513d6000823e601f3d908101601f1916820160405261113991908101906130bc565b6040015190506000846001600160a01b031663a8311aa86040518163ffffffff1660e01b815260040160006040518083038186803b15801561117a57600080fd5b505afa15801561118e573d6000803e3d6000fd5b505050506040513d6000823e601f3d908101601f191682016040526111b6919081019061307c565b604051630445cdfb60e11b815290915060009073__$ccb256085f563a601d001f7c9087d87207$__9063088b9bf6906111f5908690869060040161318a565b60006040518083038186803b15801561120d57600080fd5b505af4158015611221573d6000803e3d6000fd5b505050506040513d6000823e601f3d908101601f19168201604052611249919081019061307c565b855160a0015164ffffffffff166000908152600460208190526040808320905163034306e160e21b8152918201529192509073__$8c1a4844a0a0988ea2454cf87145a95df1$__90630d0c1b849060240160006040518083038186803b1580156112b257600080fd5b505af41580156112c6573d6000803e3d6000fd5b505050506040513d6000823e601f3d908101601f191682016040526112ee919081019061307c565b604051638410a30d60e01b815290915073__$ccb256085f563a601d001f7c9087d87207$__90638410a30d9061132a908490869060040161318a565b60206040518083038186803b15801561134257600080fd5b505af4158015611356573d6000803e3d6000fd5b505050506040513d601f19601f8201168201806040525081019061137a9190612f64565b979650505050505050565b73__$364aad554dc80380f414546becdd2c1584$__63c51b295f6002836113aa61255f565b6040516001600160e01b031960e086901b1681526004810193909352602483019190915264ffffffffff16604482015260640160006040518083038186803b1580156113f557600080fd5b505af4158015611409573d6000803e3d6000fd5b5050505050565b604051633b11adbf60e21b81526002600482015233602482015273__$364aad554dc80380f414546becdd2c1584$__9063ec46b6fc9060440160206040518083038186803b15801561146157600080fd5b505af4158015611475573d6000803e3d6000fd5b505050506040513d601f19601f820116820180604052508101906114999190612f64565b8061153e575073__$364aad554dc80380f414546becdd2c1584$__63fe27108660026114c361255f565b6040516001600160e01b031960e085901b168152600481019290925264ffffffffff16602482015260440160206040518083038186803b15801561150657600080fd5b505af415801561151a573d6000803e3d6000fd5b505050506040513d601f19601f8201168201806040525081019061153e9190612f64565b6115a95760405162461bcd60e51b815260206004820152603660248201527f41432e6f776e65724f72446972656374426f6f6b65657065723a206e6569746860448201527532b91037bbb732b9103737b9103137b7b5b2b2b832b960511b6064820152608401610d6c565b73__$364aad554dc80380f414546becdd2c1584$__639b4510de6002836115ce61255f565b6040516001600160e01b031960e086901b1681526004810193909352602483019190915264ffffffffff16604482015260640160006040518083038186803b15801561161957600080fd5b505af415801561162d573d6000803e3d6000fd5b505050507ff2735f34b69be1e6342dea95f9162f84d0db925fab655ca9f1f312ac8cbfc99d8160405161166291815260200190565b60405180910390a150565b73__$364aad554dc80380f414546becdd2c1584$__63ee98b31360028484610bcb61255f565b73__$364aad554dc80380f414546becdd2c1584$__63a8ef95ac6002684174746f726e65797360b81b6116c461255f565b6040516001600160e01b031960e086901b1681526004810193909352602483019190915264ffffffffff16604482015260640160206040518083038186803b15801561170f57600080fd5b505af4158015611723573d6000803e3d6000fd5b505050506040513d601f19601f820116820180604052508101906117479190612f64565b6117635760405162461bcd60e51b8152600401610d6c906131b8565b6040516392fd02df60e01b8152600560048201526024810182905273__$8c1a4844a0a0988ea2454cf87145a95df1$__906392fd02df9060440160206040518083038186803b1580156117b557600080fd5b505af41580156117c9573d6000803e3d6000fd5b505050506040513d601f19601f820116820180604052508101906117ed9190612f64565b15611829576000818152600460205260408120908181818161180f82826127af565b5050505060029190910180546001600160d01b0319169055505b50565b604051630f07232560e01b8152600260048201526001600160a01b038216602482015233604482015273__$364aad554dc80380f414546becdd2c1584$__90630f0723259060640160006040518083038186803b15801561188c57600080fd5b505af41580156118a0573d6000803e3d6000fd5b50506040516001600160a01b03841681527fe435cbeab64e4eae6497b9d8289704bd709d624a80704ef3ca9af777534bc6ec92506020019050611662565b604051632a3be56b60e21b815260026004820152602481018390526044810182905260009073__$364aad554dc80380f414546becdd2c1584$__9063a8ef95ac906064015b60206040518083038186803b15801561193b57600080fd5b505af415801561194f573d6000803e3d6000fd5b505050506040513d601f19601f820116820180604052508101906119739190612f64565b9392505050565b73__$364aad554dc80380f414546becdd2c1584$__639b48160c60028361199f61255f565b6040516001600160e01b031960e086901b1681526004810193909352602483019190915264ffffffffff16604482015260640160006040518083038186803b1580156119ea57600080fd5b505af41580156119fe573d6000803e3d6000fd5b505050507f8b6f40f36b4ae8cc5f55e895036457c43da4ab1f80f58c46f5ff0d72a650033b8160405161166291815260200190565b60405163987ad15360e01b81526002600482015260009073__$364aad554dc80380f414546becdd2c1584$__9063987ad15390602401610b50565b73__$364aad554dc80380f414546becdd2c1584$__63a8ef95ac6002684174746f726e65797360b81b611a9f61255f565b6040516001600160e01b031960e086901b1681526004810193909352602483019190915264ffffffffff16604482015260640160206040518083038186803b158015611aea57600080fd5b505af4158015611afe573d6000803e3d6000fd5b505050506040513d601f19601f82011682018060405250810190611b229190612f64565b611b3e5760405162461bcd60e51b8152600401610d6c906131b8565b60008281526004602081905260409182902091516392f13c3f60e01b815273__$8c1a4844a0a0988ea2454cf87145a95df1$__926392f13c3f92611b8d92869101918252602082015260400190565b60206040518083038186803b158015611ba557600080fd5b505af4158015611bb9573d6000803e3d6000fd5b505050506040513d601f19601f82011682018060405250810190611bdd9190612f64565b505050565b73__$364aad554dc80380f414546becdd2c1584$__63cc0d511b6002836113aa61255f565b73__$364aad554dc80380f414546becdd2c1584$__63a8ef95ac6002684174746f726e65797360b81b611c3861255f565b6040516001600160e01b031960e086901b1681526004810193909352602483019190915264ffffffffff16604482015260640160206040518083038186803b158015611c8357600080fd5b505af4158015611c97573d6000803e3d6000fd5b505050506040513d601f19601f82011682018060405250810190611cbb9190612f64565b611cd75760405162461bcd60e51b8152600401610d6c906131b8565b6040516392f13c3f60e01b8152600560048201526024810182905273__$8c1a4844a0a0988ea2454cf87145a95df1$__906392f13c3f9060440160206040518083038186803b158015611d2957600080fd5b505af4158015611d3d573d6000803e3d6000fd5b505050506040513d601f19601f82011682018060405250810190611d619190612f64565b15611f2d576040516354c9133560e01b81526004810183905273__$9d2c69e94fee47b9774dc8db4aa5c0bbec$__906354c91335906024016101406040518083038186803b158015611db257600080fd5b505af4158015611dc6573d6000803e3d6000fd5b505050506040513d601f19601f82011682018060405250810190611dea91906131e5565b60008281526004602090815260409182902083516002909101805492850151938501516060860151608087015160a088015160c089015160e08a01516101008b0151610120909b015161ffff98891662ffffff19909a16999099176201000060ff9b8c16021768ffffffffffff00000019166301000000968b169690960268ffffffffff0000000019169590951764010000000064ffffffffff95861602176effffffffffff0000000000000000001916600160481b949093169390930260ff60701b191691909117600160701b97909116969096029590951762ffffff60781b1916600160781b939095169290920260ff60881b191693909317600160881b911515919091021767ffffffffffffffff60901b1916600160901b63ffffffff9485160263ffffffff60b01b191617600160b01b93909116929092029190911790555b5050565b60008281526004602081905260408083209051633f5f77cd60e01b8152918201526024810183905273__$8c1a4844a0a0988ea2454cf87145a95df1$__90633f5f77cd90604401611923565b60405163034306e160e21b81526005600482015260609073__$8c1a4844a0a0988ea2454cf87145a95df1$__90630d0c1b849060240160006040518083038186803b158015611fcb57600080fd5b505af4158015611fdf573d6000803e3d6000fd5b505050506040513d6000823e601f3d908101601f19168201604052610ba0919081019061307c565b73__$364aad554dc80380f414546becdd2c1584$__63a8ef95ac6002684174746f726e65797360b81b61203861255f565b6040516001600160e01b031960e086901b1681526004810193909352602483019190915264ffffffffff16604482015260640160206040518083038186803b15801561208357600080fd5b505af4158015612097573d6000803e3d6000fd5b505050506040513d601f19601f820116820180604052508101906120bb9190612f64565b6120d75760405162461bcd60e51b8152600401610d6c906131b8565b60008281526004602081905260409182902091516392fd02df60e01b815273__$8c1a4844a0a0988ea2454cf87145a95df1$__926392fd02df92611b8d92869101918252602082015260400190565b604051633f5f77cd60e01b8152600560048201526024810182905260009073__$8c1a4844a0a0988ea2454cf87145a95df1$__90633f5f77cd9060440160206040518083038186803b15801561217b57600080fd5b505af415801561218f573d6000803e3d6000fd5b505050506040513d601f19601f82011682018060405250810190610b139190612f64565b604051636cdd0edf60e11b815260026004820152602481018590526001600160a01b038416604482015273__$364aad554dc80380f414546becdd2c1584$__9063d9ba1dbe9060640160006040518083038186803b15801561221457600080fd5b505af4158015612228573d6000803e3d6000fd5b50505050612235826126c1565b61223e81612734565b604080518581526001600160a01b038581166020830152848116828401528316606082015290517f3abb2418c66fe32ba9c883030a75ce583971d9af9192b9b74e44e67c5e6c8c1f9181900360800190a150505050565b604051633c3e56c160e11b81526002600482015260009073__$364aad554dc80380f414546becdd2c1584$__9063787cad829060240160206040518083038186803b1580156122e357600080fd5b505af41580156122f7573d6000803e3d6000fd5b505050506040513d601f19601f82011682018060405250810190610ba09190612eb0565b600254600160f01b900460ff166001146123775760405162461bcd60e51b815260206004820152601760248201527f41432e4c433a20446f632069732066696e616c697a65640000000000000000006044820152606401610d6c565b73__$364aad554dc80380f414546becdd2c1584$__63c51b295f6002684174746f726e65797360b81b6123a861255f565b6040516001600160e01b031960e086901b1681526004810193909352602483019190915264ffffffffff16604482015260640160006040518083038186803b1580156123f357600080fd5b505af4158015612407573d6000803e3d6000fd5b50505050600273__$364aad554dc80380f414546becdd2c1584$__639b4510de9091600061243361255f565b6040516001600160e01b031960e086901b1681526004810193909352602483019190915264ffffffffff16604482015260640160006040518083038186803b15801561247e57600080fd5b505af4158015612492573d6000803e3d6000fd5b50505050600273__$364aad554dc80380f414546becdd2c1584$__639b48160c909160006124be61255f565b6040516001600160e01b031960e086901b1681526004810193909352602483019190915264ffffffffff16604482015260640160006040518083038186803b15801561250957600080fd5b505af415801561251d573d6000803e3d6000fd5b50506002805460ff60f01b1916600160f11b17905550506040517f35012b512309c322acf68632cd6cb702ff0e1d776fbe9394e38ffc13b434fe7590600090a1565b60008054604051636ae3b70d60e11b81523360048201526001600160a01b039091169063d5c76e1a90602401602060405180830381600087803b1580156125a557600080fd5b505af1158015610b7c573d6000803e3d6000fd5b60008363ffffffff168563ffffffff16116126165760405162461bcd60e51b815260206004820152601b60248201527f524f453a204e454741544956452073656c6c696e6720707269636500000000006044820152606401610d6c565b8165ffffffffffff168365ffffffffffff16116126755760405162461bcd60e51b815260206004820152601c60248201527f524f453a204e4547415449564520686f6c64696e6720706572696f64000000006044820152606401610d6c565b600061268185876132c3565b9050600061268f84866132e8565b9050808661269f84612710613307565b6126a99190613333565b6126b7906301e13380613307565b61137a9190613333565b6000546001600160a01b0316156127125760405162461bcd60e51b815260206004820152601560248201527430b63932b0b23c9039b2ba103932b3a1b2b73a32b960591b6044820152606401610d6c565b600080546001600160a01b0319166001600160a01b0392909216919091179055565b6001546001600160a01b03161561278d5760405162461bcd60e51b815260206004820152601960248201527f616c7265616479207365742067656e6572616c4b6565706572000000000000006044820152606401610d6c565b600180546001600160a01b0319166001600160a01b0392909216919091179055565b508054600082559060005260206000209081019061182991905b808211156127dd57600081556001016127c9565b5090565b6001600160a01b038116811461182957600080fd5b634e487b7160e01b600052604160045260246000fd5b6040516060810167ffffffffffffffff8111828210171561282f5761282f6127f6565b60405290565b604051610120810167ffffffffffffffff8111828210171561282f5761282f6127f6565b6040805190810167ffffffffffffffff8111828210171561282f5761282f6127f6565b604051610140810167ffffffffffffffff8111828210171561282f5761282f6127f6565b60ff8116811461182957600080fd5b80356128ba816128a0565b919050565b61ffff8116811461182957600080fd5b80356128ba816128bf565b63ffffffff8116811461182957600080fd5b80356128ba816128da565b64ffffffffff8116811461182957600080fd5b80356128ba816128f7565b65ffffffffffff8116811461182957600080fd5b80356128ba81612915565b67ffffffffffffffff8116811461182957600080fd5b600060a0828403121561295c57600080fd5b60405160a0810181811067ffffffffffffffff8211171561297f5761297f6127f6565b6040529050808235612990816128f7565b815260208301356129a0816128f7565b602082015260408301356129b381612934565b604082015260608301356129c681612934565b606082015260808301356129d9816128a0565b6080919091015292915050565b60008183036101e08112156129fa57600080fd5b612a0261280c565b915061012080821215612a1457600080fd5b612a1c612835565b9150612a27846128af565b8252612a35602085016128cf565b6020830152612a46604085016128cf565b6040830152612a57606085016128cf565b6060830152612a68608085016128ec565b6080830152612a7960a0850161290a565b60a0830152612a8a60c085016128ec565b60c0830152612a9b60e085016128ec565b60e0830152610100612aae818601612929565b90830152818352612ac18585830161294a565b602084015250506101c0820135604082015292915050565b6000806102008385031215612aed57600080fd5b8235612af8816127e1565b9150612b0784602085016129e6565b90509250929050565b60008060408385031215612b2357600080fd5b50508035926020909101359150565b600060208284031215612b4457600080fd5b5035919050565b6020808252825182820181905260009190848201906040850190845b81811015612b8357835183529284019291840191600101612b67565b50909695505050505050565b815161ffff16815261014081016020830151612bb0602084018260ff169052565b506040830151612bc5604084018260ff169052565b506060830151612bde606084018264ffffffffff169052565b506080830151612bf7608084018264ffffffffff169052565b5060a0830151612c0c60a084018260ff169052565b5060c0830151612c2260c084018261ffff169052565b5060e0830151612c3660e084018215159052565b506101008381015163ffffffff908116918401919091526101209384015116929091019190915290565b600060c08284031215612c7257600080fd5b60405160c0810181811067ffffffffffffffff82111715612c9557612c956127f6565b6040529050808235612ca681612915565b81526020830135612cb681612934565b60208201526040830135612cc981612934565b60408201526060830135612cdc81612934565b60608201526080830135612cef816128a0565b608082015260a0830135612d02816128a0565b60a0919091015292915050565b600080600080848603610400811215612d2757600080fd5b8535612d32816127e1565b9450612d4187602088016129e6565b93506101ff19016101e0811215612d5757600080fd5b612d5f612859565b610120821215612d6e57600080fd5b612d76612835565b9150612d8561020088016128ec565b8252612d9461022088016128ec565b6020830152612da661024088016128cf565b6040830152612db86102608801612929565b6060830152612dca610280880161290a565b6080830152612ddc6102a088016128ec565b60a0830152612dee6102c088016128ec565b60c0830152612e006102e088016128cf565b60e0830152612e1261030088016128af565b610100830152818152612e29886103208901612c60565b6020820152949793965093946103e0013593505050565b600060208284031215612e5257600080fd5b8135611973816127e1565b60008060008060808587031215612e7357600080fd5b843593506020850135612e85816127e1565b92506040850135612e95816127e1565b91506060850135612ea5816127e1565b939692955090935050565b600060208284031215612ec257600080fd5b8151611973816127e1565b80516128ba816128a0565b600060808284031215612eea57600080fd5b6040516080810181811067ffffffffffffffff82111715612f0d57612f0d6127f6565b604052825181526020830151612f2281612915565b60208201526040830151612f3581612915565b60408201526060830151612f48816128a0565b60608201529392505050565b805180151581146128ba57600080fd5b600060208284031215612f7657600080fd5b61197382612f54565b80516128ba816128f7565b600060208284031215612f9c57600080fd5b8151611973816128f7565b80516128ba816128bf565b60008060408385031215612fc557600080fd5b8251612fd0816128f7565b6020840151909250612fe1816128bf565b809150509250929050565b600082601f830112612ffd57600080fd5b8151602067ffffffffffffffff8083111561301a5761301a6127f6565b8260051b604051601f19603f8301168101818110848211171561303f5761303f6127f6565b60405293845285810183019383810192508785111561305d57600080fd5b83870191505b8482101561137a57815183529183019190830190613063565b60006020828403121561308e57600080fd5b815167ffffffffffffffff8111156130a557600080fd5b610ee084828501612fec565b80516128ba816128da565b6000602082840312156130ce57600080fd5b815167ffffffffffffffff808211156130e657600080fd5b90830190606082860312156130fa57600080fd5b61310261280c565b825161310d816128da565b8152602083015161311d81612934565b602082015260408301518281111561313457600080fd5b61314087828601612fec565b60408301525095945050505050565b600081518084526020808501945080840160005b8381101561317f57815187529582019590820190600101613163565b509495945050505050565b60408152600061319d604083018561314f565b82810360208401526131af818561314f565b95945050505050565b60208082526013908201527241432e6f743a206e6f74204174746f726e657960681b604082015260600190565b600061014082840312156131f857600080fd5b61320061287c565b61320983612fa7565b815261321760208401612ecd565b602082015261322860408401612ecd565b604082015261323960608401612f7f565b606082015261324a60808401612f7f565b608082015261325b60a08401612ecd565b60a082015261326c60c08401612fa7565b60c082015261327d60e08401612f54565b60e08201526101006132908185016130b1565b908201526101206132a28482016130b1565b908201529392505050565b634e487b7160e01b600052601160045260246000fd5b600063ffffffff838116908316818110156132e0576132e06132ad565b039392505050565b600065ffffffffffff838116908316818110156132e0576132e06132ad565b600063ffffffff8083168185168183048111821515161561332a5761332a6132ad565b02949350505050565b600063ffffffff8084168061335857634e487b7160e01b600052601260045260246000fd5b9216919091049291505056fea26469706673582212202604b0efb7ad7962548ff104f8d01fe72594f49d267e6b8c43fc015ca3a3553664736f6c63430008080033",
    "sourcePath": "/Users/kaptain/github.com/hardhat/comboox/contracts/books/boh/terms/TagAlong.sol",
    "compiler": {
        "name": "solc",
        "version": "0.8.8+commit.dddeac2f"
    },
    "functionHashes": {
        "abandonRole(bytes32)": "3da9a600",
        "addFollower(uint256,uint256)": "89c29dbb",
        "createLink(uint256,uint256)": "a186aabb",
        "dragers()": "b4a952b3",
        "finalized()": "b3f05b97",
        "followers(uint256)": "1abc901f",
        "getBookeeper()": "ed211023",
        "getGeneralCounsel()": "103f6edd",
        "getOwner()": "893d20e8",
        "grantRole(bytes32,uint256)": "1b6ea9f9",
        "hasRole(bytes32,uint256)": "7e063c5a",
        "init(uint256,address,address,address)": "dc890da9",
        "isDrager(uint256)": "d249176e",
        "isExempted(address,((uint8,uint16,uint16,uint16,uint32,uint40,uint32,uint32,uint48),(uint40,uint40,uint64,uint64,uint8),bytes32))": "237006e0",
        "isLinked(uint256,uint256)": "b097b857",
        "isTriggered(address,((uint8,uint16,uint16,uint16,uint32,uint40,uint32,uint32,uint48),(uint40,uint40,uint64,uint64,uint8),bytes32))": "06c4b208",
        "linkRule(uint256)": "1ce69d39",
        "lockContents()": "f045a769",
        "priceCheck(address,((uint8,uint16,uint16,uint16,uint32,uint40,uint32,uint32,uint48),(uint40,uint40,uint64,uint64,uint8),bytes32),((uint32,uint32,uint16,uint48,uint40,uint32,uint32,uint16,uint8),(uint48,uint64,uint64,uint64,uint8,uint8)),uint256)": "21028eb9",
        "removeDrager(uint256)": "52fae48a",
        "removeFollower(uint256,uint256)": "ca93c8fc",
        "renounceRole(bytes32)": "8bb9c5bf",
        "revokeRole(bytes32,uint256)": "19d61ad9",
        "setDirectKeeper(address)": "6be8496f",
        "setGeneralCounsel(uint256)": "4a14beb1",
        "setOwner(uint256)": "8041494e",
        "setRoleAdmin(bytes32,uint256)": "5171ebd4"
    },
    "gasEstimates": {
        "creation": {
            "codeDepositCost": "2642000",
            "executionCost": "2862",
            "totalCost": "2644862"
        },
        "external": {
            "abandonRole(bytes32)": "infinite",
            "addFollower(uint256,uint256)": "infinite",
            "createLink(uint256,uint256)": "infinite",
            "dragers()": "infinite",
            "finalized()": "2361",
            "followers(uint256)": "infinite",
            "getBookeeper()": "infinite",
            "getGeneralCounsel()": "infinite",
            "getOwner()": "infinite",
            "grantRole(bytes32,uint256)": "infinite",
            "hasRole(bytes32,uint256)": "infinite",
            "init(uint256,address,address,address)": "infinite",
            "isDrager(uint256)": "infinite",
            "isExempted(address,((uint8,uint16,uint16,uint16,uint32,uint40,uint32,uint32,uint48),(uint40,uint40,uint64,uint64,uint8),bytes32))": "infinite",
            "isLinked(uint256,uint256)": "infinite",
            "isTriggered(address,((uint8,uint16,uint16,uint16,uint32,uint40,uint32,uint32,uint48),(uint40,uint40,uint64,uint64,uint8),bytes32))": "infinite",
            "linkRule(uint256)": "3739",
            "lockContents()": "infinite",
            "priceCheck(address,((uint8,uint16,uint16,uint16,uint32,uint40,uint32,uint32,uint48),(uint40,uint40,uint64,uint64,uint8),bytes32),((uint32,uint32,uint16,uint48,uint40,uint32,uint32,uint16,uint8),(uint48,uint64,uint64,uint64,uint8,uint8)),uint256)": "infinite",
            "removeDrager(uint256)": "infinite",
            "removeFollower(uint256,uint256)": "infinite",
            "renounceRole(bytes32)": "infinite",
            "revokeRole(bytes32,uint256)": "infinite",
            "setDirectKeeper(address)": "infinite",
            "setGeneralCounsel(uint256)": "infinite",
            "setOwner(uint256)": "infinite",
            "setRoleAdmin(bytes32,uint256)": "infinite"
        }
    }
}