{
    "contractName": "TagAlong",
    "abi": [
        {
            "anonymous": false,
            "inputs": [
                {
                    "indexed": false,
                    "internalType": "uint256",
                    "name": "owner",
                    "type": "uint256"
                },
                {
                    "indexed": false,
                    "internalType": "address",
                    "name": "directKeeper",
                    "type": "address"
                },
                {
                    "indexed": false,
                    "internalType": "address",
                    "name": "regCenter",
                    "type": "address"
                },
                {
                    "indexed": false,
                    "internalType": "address",
                    "name": "generalKeeper",
                    "type": "address"
                }
            ],
            "name": "Init",
            "type": "event"
        },
        {
            "anonymous": false,
            "inputs": [],
            "name": "LockContents",
            "type": "event"
        },
        {
            "anonymous": false,
            "inputs": [
                {
                    "indexed": false,
                    "internalType": "address",
                    "name": "keeper",
                    "type": "address"
                }
            ],
            "name": "SetDirectKeeper",
            "type": "event"
        },
        {
            "anonymous": false,
            "inputs": [
                {
                    "indexed": false,
                    "internalType": "uint256",
                    "name": "acct",
                    "type": "uint256"
                }
            ],
            "name": "SetGeneralCounsel",
            "type": "event"
        },
        {
            "anonymous": false,
            "inputs": [
                {
                    "indexed": false,
                    "internalType": "address",
                    "name": "gk",
                    "type": "address"
                }
            ],
            "name": "SetGeneralKeeper",
            "type": "event"
        },
        {
            "anonymous": false,
            "inputs": [
                {
                    "indexed": false,
                    "internalType": "uint256",
                    "name": "acct",
                    "type": "uint256"
                }
            ],
            "name": "SetOwner",
            "type": "event"
        },
        {
            "anonymous": false,
            "inputs": [
                {
                    "indexed": false,
                    "internalType": "address",
                    "name": "rc",
                    "type": "address"
                }
            ],
            "name": "SetRegCenter",
            "type": "event"
        },
        {
            "inputs": [
                {
                    "internalType": "bytes32",
                    "name": "role",
                    "type": "bytes32"
                }
            ],
            "name": "abandonRole",
            "outputs": [],
            "stateMutability": "nonpayable",
            "type": "function"
        },
        {
            "inputs": [
                {
                    "internalType": "uint256",
                    "name": "drager",
                    "type": "uint256"
                },
                {
                    "internalType": "uint256",
                    "name": "follower",
                    "type": "uint256"
                }
            ],
            "name": "addFollower",
            "outputs": [],
            "stateMutability": "nonpayable",
            "type": "function"
        },
        {
            "inputs": [
                {
                    "internalType": "bytes32",
                    "name": "rule",
                    "type": "bytes32"
                },
                {
                    "internalType": "uint256",
                    "name": "drager",
                    "type": "uint256"
                }
            ],
            "name": "createLink",
            "outputs": [],
            "stateMutability": "nonpayable",
            "type": "function"
        },
        {
            "inputs": [],
            "name": "dragers",
            "outputs": [
                {
                    "internalType": "uint256[]",
                    "name": "",
                    "type": "uint256[]"
                }
            ],
            "stateMutability": "view",
            "type": "function"
        },
        {
            "inputs": [],
            "name": "finalized",
            "outputs": [
                {
                    "internalType": "bool",
                    "name": "",
                    "type": "bool"
                }
            ],
            "stateMutability": "view",
            "type": "function"
        },
        {
            "inputs": [
                {
                    "internalType": "uint256",
                    "name": "drager",
                    "type": "uint256"
                }
            ],
            "name": "followers",
            "outputs": [
                {
                    "internalType": "uint256[]",
                    "name": "",
                    "type": "uint256[]"
                }
            ],
            "stateMutability": "view",
            "type": "function"
        },
        {
            "inputs": [],
            "name": "getBookeeper",
            "outputs": [
                {
                    "internalType": "address",
                    "name": "",
                    "type": "address"
                }
            ],
            "stateMutability": "view",
            "type": "function"
        },
        {
            "inputs": [],
            "name": "getGeneralCounsel",
            "outputs": [
                {
                    "internalType": "uint40",
                    "name": "",
                    "type": "uint40"
                }
            ],
            "stateMutability": "view",
            "type": "function"
        },
        {
            "inputs": [],
            "name": "getOwner",
            "outputs": [
                {
                    "internalType": "uint40",
                    "name": "",
                    "type": "uint40"
                }
            ],
            "stateMutability": "view",
            "type": "function"
        },
        {
            "inputs": [
                {
                    "internalType": "bytes32",
                    "name": "role",
                    "type": "bytes32"
                },
                {
                    "internalType": "uint256",
                    "name": "acct",
                    "type": "uint256"
                }
            ],
            "name": "grantRole",
            "outputs": [],
            "stateMutability": "nonpayable",
            "type": "function"
        },
        {
            "inputs": [
                {
                    "internalType": "bytes32",
                    "name": "role",
                    "type": "bytes32"
                },
                {
                    "internalType": "uint256",
                    "name": "acct",
                    "type": "uint256"
                }
            ],
            "name": "hasRole",
            "outputs": [
                {
                    "internalType": "bool",
                    "name": "",
                    "type": "bool"
                }
            ],
            "stateMutability": "view",
            "type": "function"
        },
        {
            "inputs": [
                {
                    "internalType": "uint256",
                    "name": "owner",
                    "type": "uint256"
                },
                {
                    "internalType": "address",
                    "name": "directKeeper",
                    "type": "address"
                },
                {
                    "internalType": "address",
                    "name": "regCenter",
                    "type": "address"
                },
                {
                    "internalType": "address",
                    "name": "generalKeeper",
                    "type": "address"
                }
            ],
            "name": "init",
            "outputs": [],
            "stateMutability": "nonpayable",
            "type": "function"
        },
        {
            "inputs": [
                {
                    "internalType": "uint256",
                    "name": "drager",
                    "type": "uint256"
                }
            ],
            "name": "isDrager",
            "outputs": [
                {
                    "internalType": "bool",
                    "name": "",
                    "type": "bool"
                }
            ],
            "stateMutability": "view",
            "type": "function"
        },
        {
            "inputs": [
                {
                    "internalType": "address",
                    "name": "ia",
                    "type": "address"
                },
                {
                    "components": [
                        {
                            "components": [
                                {
                                    "internalType": "uint8",
                                    "name": "typeOfDeal",
                                    "type": "uint8"
                                },
                                {
                                    "internalType": "uint16",
                                    "name": "seq",
                                    "type": "uint16"
                                },
                                {
                                    "internalType": "uint16",
                                    "name": "preSeq",
                                    "type": "uint16"
                                },
                                {
                                    "internalType": "uint16",
                                    "name": "classOfShare",
                                    "type": "uint16"
                                },
                                {
                                    "internalType": "uint32",
                                    "name": "seqOfShare",
                                    "type": "uint32"
                                },
                                {
                                    "internalType": "uint40",
                                    "name": "seller",
                                    "type": "uint40"
                                },
                                {
                                    "internalType": "uint32",
                                    "name": "priceOfPaid",
                                    "type": "uint32"
                                },
                                {
                                    "internalType": "uint32",
                                    "name": "priceOfPar",
                                    "type": "uint32"
                                },
                                {
                                    "internalType": "uint48",
                                    "name": "closingDate",
                                    "type": "uint48"
                                },
                                {
                                    "internalType": "uint8",
                                    "name": "state",
                                    "type": "uint8"
                                }
                            ],
                            "internalType": "struct IInvestmentAgreement.Head",
                            "name": "head",
                            "type": "tuple"
                        },
                        {
                            "components": [
                                {
                                    "internalType": "uint40",
                                    "name": "buyer",
                                    "type": "uint40"
                                },
                                {
                                    "internalType": "uint40",
                                    "name": "groupOfBuyer",
                                    "type": "uint40"
                                },
                                {
                                    "internalType": "uint64",
                                    "name": "paid",
                                    "type": "uint64"
                                },
                                {
                                    "internalType": "uint64",
                                    "name": "par",
                                    "type": "uint64"
                                }
                            ],
                            "internalType": "struct IInvestmentAgreement.Body",
                            "name": "body",
                            "type": "tuple"
                        },
                        {
                            "internalType": "bytes32",
                            "name": "hashLock",
                            "type": "bytes32"
                        }
                    ],
                    "internalType": "struct IInvestmentAgreement.Deal",
                    "name": "deal",
                    "type": "tuple"
                }
            ],
            "name": "isExempted",
            "outputs": [
                {
                    "internalType": "bool",
                    "name": "",
                    "type": "bool"
                }
            ],
            "stateMutability": "view",
            "type": "function"
        },
        {
            "inputs": [
                {
                    "internalType": "uint256",
                    "name": "drager",
                    "type": "uint256"
                },
                {
                    "internalType": "uint256",
                    "name": "follower",
                    "type": "uint256"
                }
            ],
            "name": "isLinked",
            "outputs": [
                {
                    "internalType": "bool",
                    "name": "",
                    "type": "bool"
                }
            ],
            "stateMutability": "view",
            "type": "function"
        },
        {
            "inputs": [
                {
                    "internalType": "address",
                    "name": "ia",
                    "type": "address"
                },
                {
                    "components": [
                        {
                            "components": [
                                {
                                    "internalType": "uint8",
                                    "name": "typeOfDeal",
                                    "type": "uint8"
                                },
                                {
                                    "internalType": "uint16",
                                    "name": "seq",
                                    "type": "uint16"
                                },
                                {
                                    "internalType": "uint16",
                                    "name": "preSeq",
                                    "type": "uint16"
                                },
                                {
                                    "internalType": "uint16",
                                    "name": "classOfShare",
                                    "type": "uint16"
                                },
                                {
                                    "internalType": "uint32",
                                    "name": "seqOfShare",
                                    "type": "uint32"
                                },
                                {
                                    "internalType": "uint40",
                                    "name": "seller",
                                    "type": "uint40"
                                },
                                {
                                    "internalType": "uint32",
                                    "name": "priceOfPaid",
                                    "type": "uint32"
                                },
                                {
                                    "internalType": "uint32",
                                    "name": "priceOfPar",
                                    "type": "uint32"
                                },
                                {
                                    "internalType": "uint48",
                                    "name": "closingDate",
                                    "type": "uint48"
                                },
                                {
                                    "internalType": "uint8",
                                    "name": "state",
                                    "type": "uint8"
                                }
                            ],
                            "internalType": "struct IInvestmentAgreement.Head",
                            "name": "head",
                            "type": "tuple"
                        },
                        {
                            "components": [
                                {
                                    "internalType": "uint40",
                                    "name": "buyer",
                                    "type": "uint40"
                                },
                                {
                                    "internalType": "uint40",
                                    "name": "groupOfBuyer",
                                    "type": "uint40"
                                },
                                {
                                    "internalType": "uint64",
                                    "name": "paid",
                                    "type": "uint64"
                                },
                                {
                                    "internalType": "uint64",
                                    "name": "par",
                                    "type": "uint64"
                                }
                            ],
                            "internalType": "struct IInvestmentAgreement.Body",
                            "name": "body",
                            "type": "tuple"
                        },
                        {
                            "internalType": "bytes32",
                            "name": "hashLock",
                            "type": "bytes32"
                        }
                    ],
                    "internalType": "struct IInvestmentAgreement.Deal",
                    "name": "deal",
                    "type": "tuple"
                }
            ],
            "name": "isTriggered",
            "outputs": [
                {
                    "internalType": "bool",
                    "name": "",
                    "type": "bool"
                }
            ],
            "stateMutability": "view",
            "type": "function"
        },
        {
            "inputs": [
                {
                    "internalType": "uint256",
                    "name": "drager",
                    "type": "uint256"
                }
            ],
            "name": "linkRule",
            "outputs": [
                {
                    "components": [
                        {
                            "internalType": "uint16",
                            "name": "seq",
                            "type": "uint16"
                        },
                        {
                            "internalType": "uint8",
                            "name": "qtyOfSubRule",
                            "type": "uint8"
                        },
                        {
                            "internalType": "uint8",
                            "name": "seqOfSubRule",
                            "type": "uint8"
                        },
                        {
                            "internalType": "uint40",
                            "name": "drager",
                            "type": "uint40"
                        },
                        {
                            "internalType": "uint40",
                            "name": "dragerGroup",
                            "type": "uint40"
                        },
                        {
                            "internalType": "uint8",
                            "name": "triggerType",
                            "type": "uint8"
                        },
                        {
                            "internalType": "uint16",
                            "name": "shareRatioThreshold",
                            "type": "uint16"
                        },
                        {
                            "internalType": "bool",
                            "name": "proRata",
                            "type": "bool"
                        },
                        {
                            "internalType": "uint32",
                            "name": "unitPrice",
                            "type": "uint32"
                        },
                        {
                            "internalType": "uint32",
                            "name": "roe",
                            "type": "uint32"
                        }
                    ],
                    "internalType": "struct RulesParser.LinkRule",
                    "name": "",
                    "type": "tuple"
                }
            ],
            "stateMutability": "view",
            "type": "function"
        },
        {
            "inputs": [],
            "name": "lockContents",
            "outputs": [],
            "stateMutability": "nonpayable",
            "type": "function"
        },
        {
            "inputs": [
                {
                    "internalType": "address",
                    "name": "ia",
                    "type": "address"
                },
                {
                    "components": [
                        {
                            "components": [
                                {
                                    "internalType": "uint8",
                                    "name": "typeOfDeal",
                                    "type": "uint8"
                                },
                                {
                                    "internalType": "uint16",
                                    "name": "seq",
                                    "type": "uint16"
                                },
                                {
                                    "internalType": "uint16",
                                    "name": "preSeq",
                                    "type": "uint16"
                                },
                                {
                                    "internalType": "uint16",
                                    "name": "classOfShare",
                                    "type": "uint16"
                                },
                                {
                                    "internalType": "uint32",
                                    "name": "seqOfShare",
                                    "type": "uint32"
                                },
                                {
                                    "internalType": "uint40",
                                    "name": "seller",
                                    "type": "uint40"
                                },
                                {
                                    "internalType": "uint32",
                                    "name": "priceOfPaid",
                                    "type": "uint32"
                                },
                                {
                                    "internalType": "uint32",
                                    "name": "priceOfPar",
                                    "type": "uint32"
                                },
                                {
                                    "internalType": "uint48",
                                    "name": "closingDate",
                                    "type": "uint48"
                                },
                                {
                                    "internalType": "uint8",
                                    "name": "state",
                                    "type": "uint8"
                                }
                            ],
                            "internalType": "struct IInvestmentAgreement.Head",
                            "name": "head",
                            "type": "tuple"
                        },
                        {
                            "components": [
                                {
                                    "internalType": "uint40",
                                    "name": "buyer",
                                    "type": "uint40"
                                },
                                {
                                    "internalType": "uint40",
                                    "name": "groupOfBuyer",
                                    "type": "uint40"
                                },
                                {
                                    "internalType": "uint64",
                                    "name": "paid",
                                    "type": "uint64"
                                },
                                {
                                    "internalType": "uint64",
                                    "name": "par",
                                    "type": "uint64"
                                }
                            ],
                            "internalType": "struct IInvestmentAgreement.Body",
                            "name": "body",
                            "type": "tuple"
                        },
                        {
                            "internalType": "bytes32",
                            "name": "hashLock",
                            "type": "bytes32"
                        }
                    ],
                    "internalType": "struct IInvestmentAgreement.Deal",
                    "name": "deal",
                    "type": "tuple"
                },
                {
                    "components": [
                        {
                            "internalType": "uint256",
                            "name": "sn",
                            "type": "uint256"
                        },
                        {
                            "components": [
                                {
                                    "internalType": "uint32",
                                    "name": "seq",
                                    "type": "uint32"
                                },
                                {
                                    "internalType": "uint32",
                                    "name": "preSeq",
                                    "type": "uint32"
                                },
                                {
                                    "internalType": "uint16",
                                    "name": "class",
                                    "type": "uint16"
                                },
                                {
                                    "internalType": "uint48",
                                    "name": "issueDate",
                                    "type": "uint48"
                                },
                                {
                                    "internalType": "uint48",
                                    "name": "payInDeadline",
                                    "type": "uint48"
                                },
                                {
                                    "internalType": "uint40",
                                    "name": "shareholder",
                                    "type": "uint40"
                                },
                                {
                                    "internalType": "uint32",
                                    "name": "price",
                                    "type": "uint32"
                                },
                                {
                                    "internalType": "uint8",
                                    "name": "state",
                                    "type": "uint8"
                                }
                            ],
                            "internalType": "struct SharesRepo.Head",
                            "name": "head",
                            "type": "tuple"
                        },
                        {
                            "components": [
                                {
                                    "internalType": "uint64",
                                    "name": "paid",
                                    "type": "uint64"
                                },
                                {
                                    "internalType": "uint64",
                                    "name": "par",
                                    "type": "uint64"
                                },
                                {
                                    "internalType": "uint64",
                                    "name": "cleanPaid",
                                    "type": "uint64"
                                },
                                {
                                    "internalType": "uint64",
                                    "name": "cleanPar",
                                    "type": "uint64"
                                }
                            ],
                            "internalType": "struct SharesRepo.Body",
                            "name": "body",
                            "type": "tuple"
                        }
                    ],
                    "internalType": "struct SharesRepo.Share",
                    "name": "share",
                    "type": "tuple"
                },
                {
                    "internalType": "uint256",
                    "name": "caller",
                    "type": "uint256"
                }
            ],
            "name": "priceCheck",
            "outputs": [
                {
                    "internalType": "bool",
                    "name": "",
                    "type": "bool"
                }
            ],
            "stateMutability": "view",
            "type": "function"
        },
        {
            "inputs": [
                {
                    "internalType": "uint256",
                    "name": "drager",
                    "type": "uint256"
                }
            ],
            "name": "removeDrager",
            "outputs": [],
            "stateMutability": "nonpayable",
            "type": "function"
        },
        {
            "inputs": [
                {
                    "internalType": "uint256",
                    "name": "drager",
                    "type": "uint256"
                },
                {
                    "internalType": "uint256",
                    "name": "follower",
                    "type": "uint256"
                }
            ],
            "name": "removeFollower",
            "outputs": [],
            "stateMutability": "nonpayable",
            "type": "function"
        },
        {
            "inputs": [
                {
                    "internalType": "bytes32",
                    "name": "role",
                    "type": "bytes32"
                }
            ],
            "name": "renounceRole",
            "outputs": [],
            "stateMutability": "nonpayable",
            "type": "function"
        },
        {
            "inputs": [
                {
                    "internalType": "bytes32",
                    "name": "role",
                    "type": "bytes32"
                },
                {
                    "internalType": "uint256",
                    "name": "acct",
                    "type": "uint256"
                }
            ],
            "name": "revokeRole",
            "outputs": [],
            "stateMutability": "nonpayable",
            "type": "function"
        },
        {
            "inputs": [
                {
                    "internalType": "address",
                    "name": "keeper",
                    "type": "address"
                }
            ],
            "name": "setDirectKeeper",
            "outputs": [],
            "stateMutability": "nonpayable",
            "type": "function"
        },
        {
            "inputs": [
                {
                    "internalType": "uint256",
                    "name": "acct",
                    "type": "uint256"
                }
            ],
            "name": "setGeneralCounsel",
            "outputs": [],
            "stateMutability": "nonpayable",
            "type": "function"
        },
        {
            "inputs": [
                {
                    "internalType": "uint256",
                    "name": "acct",
                    "type": "uint256"
                }
            ],
            "name": "setOwner",
            "outputs": [],
            "stateMutability": "nonpayable",
            "type": "function"
        },
        {
            "inputs": [
                {
                    "internalType": "bytes32",
                    "name": "role",
                    "type": "bytes32"
                },
                {
                    "internalType": "uint256",
                    "name": "acct",
                    "type": "uint256"
                }
            ],
            "name": "setRoleAdmin",
            "outputs": [],
            "stateMutability": "nonpayable",
            "type": "function"
        }
    ],
    "bytecode": "608060405234801561001057600080fd5b5061337d806100206000396000f3fe608060405234801561001057600080fd5b50600436106101a95760003560e01c80638041494e116100f9578063b9da1b6111610097578063d249176e11610071578063d249176e14610499578063dc890da9146104ac578063ed211023146104bf578063f045a769146104df57600080fd5b8063b9da1b6114610460578063c68f51f814610473578063ca93c8fc1461048657600080fd5b80638bb9c5bf116100d35780638bb9c5bf1461041e578063b097b85714610431578063b3f05b9714610444578063b4a952b31461045857600080fd5b80638041494e146103f0578063893d20e81461040357806389c29dbb1461040b57600080fd5b80633da9a6001161016657806352fae48a1161014057806352fae48a146103a457806368d89b56146103b75780636be8496f146103ca5780637e063c5a146103dd57600080fd5b80633da9a6001461036b5780634a14beb11461037e5780635171ebd41461039157600080fd5b8063103f6edd146101ae57806319d61ad9146101d15780631abc901f146101e65780631b6ea9f9146102065780631ce69d39146102195780633a8a879f14610348575b600080fd5b6101b66104e7565b60405164ffffffffff90911681526020015b60405180910390f35b6101e46101df36600461277b565b610573565b005b6101f96101f436600461279d565b610607565b6040516101c891906127b6565b6101e461021436600461277b565b6106ad565b61033b61022736600461279d565b6040805161014081018252600080825260208201819052918101829052606081018290526080810182905260a0810182905260c0810182905260e0810182905261010081018290526101208101919091525060009081526004602090815260409182902082516101408101845260029091015461ffff808216835260ff6201000083048116948401949094526301000000820484169483019490945264ffffffffff640100000000820481166060840152600160481b8204166080830152600160701b8104831660a0830152600160781b810490931660c0820152600160881b8304909116151560e082015263ffffffff600160901b83048116610100830152600160b01b90920490911661012082015290565b6040516101c891906127fa565b61035b610356366004612ba1565b6106d2565b60405190151581526020016101c8565b6101e461037936600461279d565b610b0b565b6101e461038c36600461279d565b610c26565b6101e461039f36600461277b565b610e16565b6101e46103b236600461279d565b610e3b565b61035b6103c5366004612ba1565b610fd4565b6101e46103d8366004612bd8565b611389565b61035b6103eb36600461277b565b61143b565b6101e46103fe36600461279d565b6114d7565b6101b66116bc565b6101e461041936600461277b565b6116f7565b6101e461042c36600461279d565b61186b565b61035b61043f36600461277b565b6118c4565b60028054600160f01b900460ff161461035b565b6101f9611910565b61035b61046e366004612c2c565b61199a565b6101e461048136600461277b565b611b80565b6101e461049436600461277b565b611eaa565b61035b6104a736600461279d565b611fc9565b6101e46104ba366004612d5c565b612056565b6104c7612139565b6040516001600160a01b0390911681526020016101c8565b6101e46121bf565b60405163e8c0cc1d60e01b81526002600482015260009073__$364aad554dc80380f414546becdd2c1584$__9063e8c0cc1d906024015b60206040518083038186803b15801561053657600080fd5b505af415801561054a573d6000803e3d6000fd5b505050506040513d601f19601f8201168201806040525081019061056e9190612dba565b905090565b73__$364aad554dc80380f414546becdd2c1584$__6382daafaa6002846105986123dd565b6040516001600160e01b031960e086901b1681526004810193909352602483019190915264ffffffffff166044820152606481018490526084015b60006040518083038186803b1580156105eb57600080fd5b505af41580156105ff573d6000803e3d6000fd5b505050505050565b600081815260046020819052604091829020915163034306e160e21b815260609273__$8c1a4844a0a0988ea2454cf87145a95df1$__92630d0c1b849261065392910190815260200190565b60006040518083038186803b15801561066b57600080fd5b505af415801561067f573d6000803e3d6000fd5b505050506040513d6000823e601f3d908101601f191682016040526106a79190810190612e67565b92915050565b73__$364aad554dc80380f414546becdd2c1584$__636320d75e6002846105986123dd565b600060026106de612437565b60405163de154c2760e01b81526001600160a01b038681166004830152919091169063de154c279060240160c06040518083038186803b15801561072157600080fd5b505afa158015610735573d6000803e3d6000fd5b505050506040513d601f19601f820116820180604052508101906107599190612ea7565b60a0015160ff161461076d575060006106a7565b81515160ff1660011480610786575081515160ff166004145b15610793575060006106a7565b815160a00151604051633f5f77cd60e01b81526005600482015264ffffffffff909116602482015273__$8c1a4844a0a0988ea2454cf87145a95df1$__90633f5f77cd9060440160206040518083038186803b1580156107f257600080fd5b505af4158015610806573d6000803e3d6000fd5b505050506040513d601f19601f8201168201806040525081019061082a9190612f62565b610836575060006106a7565b815160a09081015164ffffffffff90811660009081526004602090815260409182902082516101408101845260029091015461ffff808216835260ff62010000830481169484019490945263010000008204841694830194909452640100000000810485166060830152600160481b81049094166080820152600160701b84048216948101859052600160781b840490921660c0830152600160881b830416151560e082015263ffffffff600160901b83048116610100830152600160b01b909204909116610120820152906109105760019150506106a7565b600061091a61249a565b6001600160a01b031663984199286040518163ffffffff1660e01b815260040160206040518083038186803b15801561095257600080fd5b505afa158015610966573d6000803e3d6000fd5b505050506040513d601f19601f8201168201806040525081019061098a9190612dba565b905061099461249a565b845160a0015160405163302e2f6360e11b815264ffffffffff90911660048201526001600160a01b03919091169063605c5ec69060240160206040518083038186803b1580156109e357600080fd5b505afa1580156109f7573d6000803e3d6000fd5b505050506040513d601f19601f82011682018060405250810190610a1b9190612f7d565b8164ffffffffff1614610a33576000925050506106a7565b600080610a3e612437565b60405163deb5717560e01b81526001600160a01b038981166004830152919091169063deb5717590602401604080518083038186803b158015610a8057600080fd5b505afa158015610a94573d6000803e3d6000fd5b505050506040513d601f19601f82011682018060405250810190610ab89190612fa1565b915091508164ffffffffff168364ffffffffff1614610ade5760019450505050506106a7565b8360c0015161ffff168161ffff1611610afe5760019450505050506106a7565b5060009695505050505050565b604051633b11adbf60e21b81526002600482015233602482015273__$364aad554dc80380f414546becdd2c1584$__9063ec46b6fc9060440160206040518083038186803b158015610b5c57600080fd5b505af4158015610b70573d6000803e3d6000fd5b505050506040513d601f19601f82011682018060405250810190610b949190612f62565b610bb95760405162461bcd60e51b8152600401610bb090612fdb565b60405180910390fd5b60405163cc99e11b60e01b8152600260048201526024810182905273__$364aad554dc80380f414546becdd2c1584$__9063cc99e11b9060440160006040518083038186803b158015610c0b57600080fd5b505af4158015610c1f573d6000803e3d6000fd5b5050505050565b604051633b11adbf60e21b81526002600482015233602482015273__$364aad554dc80380f414546becdd2c1584$__9063ec46b6fc9060440160206040518083038186803b158015610c7757600080fd5b505af4158015610c8b573d6000803e3d6000fd5b505050506040513d601f19601f82011682018060405250810190610caf9190612f62565b80610d54575073__$364aad554dc80380f414546becdd2c1584$__63fe2710866002610cd96123dd565b6040516001600160e01b031960e085901b168152600481019290925264ffffffffff16602482015260440160206040518083038186803b158015610d1c57600080fd5b505af4158015610d30573d6000803e3d6000fd5b505050506040513d601f19601f82011682018060405250810190610d549190612f62565b610d705760405162461bcd60e51b8152600401610bb090613021565b604051632725ebef60e21b8152600260048201526024810182905273__$364aad554dc80380f414546becdd2c1584$__90639c97afbc9060440160006040518083038186803b158015610dc257600080fd5b505af4158015610dd6573d6000803e3d6000fd5b505050507ff2735f34b69be1e6342dea95f9162f84d0db925fab655ca9f1f312ac8cbfc99d81604051610e0b91815260200190565b60405180910390a150565b73__$364aad554dc80380f414546becdd2c1584$__63ee98b3136002846105986123dd565b73__$364aad554dc80380f414546becdd2c1584$__63a8ef95ac6002684174746f726e65797360b81b610e6c6123dd565b6040516001600160e01b031960e086901b1681526004810193909352602483019190915264ffffffffff16604482015260640160206040518083038186803b158015610eb757600080fd5b505af4158015610ecb573d6000803e3d6000fd5b505050506040513d601f19601f82011682018060405250810190610eef9190612f62565b610f0b5760405162461bcd60e51b8152600401610bb090613077565b6040516392fd02df60e01b8152600560048201526024810182905273__$8c1a4844a0a0988ea2454cf87145a95df1$__906392fd02df9060440160206040518083038186803b158015610f5d57600080fd5b505af4158015610f71573d6000803e3d6000fd5b505050506040513d601f19601f82011682018060405250810190610f959190612f62565b15610fd15760008181526004602052604081209081818181610fb78282612749565b5050505060029190910180546001600160d01b0319169055505b50565b600080610fdf6124b5565b604051634940318360e01b81526001600160a01b0386811660048301529192509082169063494031839060240160206040518083038186803b15801561102457600080fd5b505afa158015611038573d6000803e3d6000fd5b505050506040513d601f19601f8201168201806040525081019061105c9190612f62565b61109c5760405162461bcd60e51b81526020600482015260116024820152701b5bdd1a5bdb881393d5081c185cdcd959607a1b6044820152606401610bb0565b6110a684846106d2565b6110b45760019150506106a7565b604051638d5b658560e01b81526001600160a01b0385811660048301526001602483015260009190831690638d5b65859060440160006040518083038186803b15801561110057600080fd5b505afa158015611114573d6000803e3d6000fd5b505050506040513d6000823e601f3d908101601f1916820160405261113c91908101906130af565b6040015190506000856001600160a01b031663a8311aa86040518163ffffffff1660e01b815260040160006040518083038186803b15801561117d57600080fd5b505afa158015611191573d6000803e3d6000fd5b505050506040513d6000823e601f3d908101601f191682016040526111b99190810190612e67565b604051630445cdfb60e11b815290915060009073__$ccb256085f563a601d001f7c9087d87207$__9063088b9bf6906111f8908690869060040161317d565b60006040518083038186803b15801561121057600080fd5b505af4158015611224573d6000803e3d6000fd5b505050506040513d6000823e601f3d908101601f1916820160405261124c9190810190612e67565b865160a0015164ffffffffff166000908152600460208190526040808320905163034306e160e21b8152918201529192509073__$8c1a4844a0a0988ea2454cf87145a95df1$__90630d0c1b849060240160006040518083038186803b1580156112b557600080fd5b505af41580156112c9573d6000803e3d6000fd5b505050506040513d6000823e601f3d908101601f191682016040526112f19190810190612e67565b604051638410a30d60e01b815290915073__$ccb256085f563a601d001f7c9087d87207$__90638410a30d9061132d908490869060040161317d565b60206040518083038186803b15801561134557600080fd5b505af4158015611359573d6000803e3d6000fd5b505050506040513d601f19601f8201168201806040525081019061137d9190612f62565b98975050505050505050565b604051630f07232560e01b8152600260048201523360248201526001600160a01b038216604482015273__$364aad554dc80380f414546becdd2c1584$__90630f0723259060640160006040518083038186803b1580156113e957600080fd5b505af41580156113fd573d6000803e3d6000fd5b50506040516001600160a01b03841681527fe435cbeab64e4eae6497b9d8289704bd709d624a80704ef3ca9af777534bc6ec92506020019050610e0b565b604051632a3be56b60e21b815260026004820152602481018390526044810182905260009073__$364aad554dc80380f414546becdd2c1584$__9063a8ef95ac906064015b60206040518083038186803b15801561149857600080fd5b505af41580156114ac573d6000803e3d6000fd5b505050506040513d601f19601f820116820180604052508101906114d09190612f62565b9392505050565b604051633b11adbf60e21b81526002600482015233602482015273__$364aad554dc80380f414546becdd2c1584$__9063ec46b6fc9060440160206040518083038186803b15801561152857600080fd5b505af415801561153c573d6000803e3d6000fd5b505050506040513d601f19601f820116820180604052508101906115609190612f62565b80611605575073__$364aad554dc80380f414546becdd2c1584$__63fe271086600261158a6123dd565b6040516001600160e01b031960e085901b168152600481019290925264ffffffffff16602482015260440160206040518083038186803b1580156115cd57600080fd5b505af41580156115e1573d6000803e3d6000fd5b505050506040513d601f19601f820116820180604052508101906116059190612f62565b6116215760405162461bcd60e51b8152600401610bb090613021565b60405163b6e38a2960e01b8152600260048201526024810182905273__$364aad554dc80380f414546becdd2c1584$__9063b6e38a299060440160006040518083038186803b15801561167357600080fd5b505af4158015611687573d6000803e3d6000fd5b505050507f8b6f40f36b4ae8cc5f55e895036457c43da4ab1f80f58c46f5ff0d72a650033b81604051610e0b91815260200190565b60405163987ad15360e01b81526002600482015260009073__$364aad554dc80380f414546becdd2c1584$__9063987ad1539060240161051e565b73__$364aad554dc80380f414546becdd2c1584$__63a8ef95ac6002684174746f726e65797360b81b6117286123dd565b6040516001600160e01b031960e086901b1681526004810193909352602483019190915264ffffffffff16604482015260640160206040518083038186803b15801561177357600080fd5b505af4158015611787573d6000803e3d6000fd5b505050506040513d601f19601f820116820180604052508101906117ab9190612f62565b6117c75760405162461bcd60e51b8152600401610bb090613077565b60008281526004602081905260409182902091516392f13c3f60e01b815273__$8c1a4844a0a0988ea2454cf87145a95df1$__926392f13c3f9261181692869101918252602082015260400190565b60206040518083038186803b15801561182e57600080fd5b505af4158015611842573d6000803e3d6000fd5b505050506040513d601f19601f820116820180604052508101906118669190612f62565b505050565b60006118756123dd565b60405163cc0d511b60e01b8152600260048201526024810184905264ffffffffff8216604482015290915073__$364aad554dc80380f414546becdd2c1584$__9063cc0d511b906064016105d3565b60008281526004602081905260408083209051633f5f77cd60e01b8152918201526024810183905273__$8c1a4844a0a0988ea2454cf87145a95df1$__90633f5f77cd90604401611480565b60405163034306e160e21b81526005600482015260609073__$8c1a4844a0a0988ea2454cf87145a95df1$__90630d0c1b849060240160006040518083038186803b15801561195e57600080fd5b505af4158015611972573d6000803e3d6000fd5b505050506040513d6000823e601f3d908101601f1916820160405261056e9190810190612e67565b60006119a685856106d2565b6119b257506000611b78565b835160a0015164ffffffffff168214611a0d5760405162461bcd60e51b815260206004820152601b60248201527f44412e50433a2063616c6c6572206973206e6f742064726167657200000000006044820152606401610bb0565b60008281526004602090815260409182902082516101408101845260029182015461ffff808216835260ff6201000083048116958401959095526301000000820485169583019590955264ffffffffff640100000000820481166060840152600160481b8204166080830152600160701b8104841660a08301819052600160781b820490951660c0830152600160881b8104909316151560e082015263ffffffff600160901b84048116610100830152600160b01b90930490921661012083015290911015611ae0576001915050611b78565b60a081015160ff1660021415611b245780610100015163ffffffff16856000015160c0015163ffffffff1610611b1a576001915050611b78565b6000915050611b78565b80610120015163ffffffff16611b5d866000015160c00151866020015160c00151886000015161010001518860200151606001516124d0565b63ffffffff1610611b72576001915050611b78565b60009150505b949350505050565b73__$364aad554dc80380f414546becdd2c1584$__63a8ef95ac6002684174746f726e65797360b81b611bb16123dd565b6040516001600160e01b031960e086901b1681526004810193909352602483019190915264ffffffffff16604482015260640160206040518083038186803b158015611bfc57600080fd5b505af4158015611c10573d6000803e3d6000fd5b505050506040513d601f19601f82011682018060405250810190611c349190612f62565b611c505760405162461bcd60e51b8152600401610bb090613077565b6040516392f13c3f60e01b8152600560048201526024810182905273__$8c1a4844a0a0988ea2454cf87145a95df1$__906392f13c3f9060440160206040518083038186803b158015611ca257600080fd5b505af4158015611cb6573d6000803e3d6000fd5b505050506040513d601f19601f82011682018060405250810190611cda9190612f62565b15611ea657604051634666ce3160e11b81526004810183905273__$9d2c69e94fee47b9774dc8db4aa5c0bbec$__90638ccd9c62906024016101406040518083038186803b158015611d2b57600080fd5b505af4158015611d3f573d6000803e3d6000fd5b505050506040513d601f19601f82011682018060405250810190611d6391906131ab565b60008281526004602090815260409182902083516002909101805492850151938501516060860151608087015160a088015160c089015160e08a01516101008b0151610120909b015161ffff98891662ffffff19909a16999099176201000060ff9b8c16021768ffffffffffff00000019166301000000968b169690960268ffffffffff0000000019169590951764010000000064ffffffffff95861602176effffffffffff0000000000000000001916600160481b949093169390930260ff60701b191691909117600160701b97909116969096029590951762ffffff60781b1916600160781b939095169290920260ff60881b191693909317600160881b911515919091021767ffffffffffffffff60901b1916600160901b63ffffffff9485160263ffffffff60b01b191617600160b01b93909116929092029190911790555b5050565b73__$364aad554dc80380f414546becdd2c1584$__63a8ef95ac6002684174746f726e65797360b81b611edb6123dd565b6040516001600160e01b031960e086901b1681526004810193909352602483019190915264ffffffffff16604482015260640160206040518083038186803b158015611f2657600080fd5b505af4158015611f3a573d6000803e3d6000fd5b505050506040513d601f19601f82011682018060405250810190611f5e9190612f62565b611f7a5760405162461bcd60e51b8152600401610bb090613077565b60008281526004602081905260409182902091516392fd02df60e01b815273__$8c1a4844a0a0988ea2454cf87145a95df1$__926392fd02df9261181692869101918252602082015260400190565b604051633f5f77cd60e01b8152600560048201526024810182905260009073__$8c1a4844a0a0988ea2454cf87145a95df1$__90633f5f77cd9060440160206040518083038186803b15801561201e57600080fd5b505af4158015612032573d6000803e3d6000fd5b505050506040513d601f19601f820116820180604052508101906106a79190612f62565b61205f826125e3565b61206881612692565b604051636cdd0edf60e11b815260026004820152602481018590526001600160a01b038416604482015273__$364aad554dc80380f414546becdd2c1584$__9063d9ba1dbe9060640160006040518083038186803b1580156120c957600080fd5b505af41580156120dd573d6000803e3d6000fd5b5050604080518781526001600160a01b038781166020830152868116828401528516606082015290517f3abb2418c66fe32ba9c883030a75ce583971d9af9192b9b74e44e67c5e6c8c1f9350908190036080019150a150505050565b604051633c3e56c160e11b81526002600482015260009073__$364aad554dc80380f414546becdd2c1584$__9063787cad829060240160206040518083038186803b15801561218757600080fd5b505af415801561219b573d6000803e3d6000fd5b505050506040513d601f19601f8201168201806040525081019061056e9190613273565b604051633b11adbf60e21b81526002600482015233602482015273__$364aad554dc80380f414546becdd2c1584$__9063ec46b6fc9060440160206040518083038186803b15801561221057600080fd5b505af4158015612224573d6000803e3d6000fd5b505050506040513d601f19601f820116820180604052508101906122489190612f62565b6122645760405162461bcd60e51b8152600401610bb090612fdb565b600254600160f01b900460ff166001146122c05760405162461bcd60e51b815260206004820181905260248201527f41432e6f6e6c7950656e64696e673a20446f632069732066696e616c697a65646044820152606401610bb0565b60405163cc99e11b60e01b815260026004820152684174746f726e65797360b81b602482015273__$364aad554dc80380f414546becdd2c1584$__9063cc99e11b9060440160006040518083038186803b15801561231d57600080fd5b505af4158015612331573d6000803e3d6000fd5b5050604051632725ebef60e21b8152600260048201526000602482015273__$364aad554dc80380f414546becdd2c1584$__9250639c97afbc915060440160006040518083038186803b15801561238757600080fd5b505af415801561239b573d6000803e3d6000fd5b50506002805460ff60f01b1916600160f11b17905550506040517f35012b512309c322acf68632cd6cb702ff0e1d776fbe9394e38ffc13b434fe7590600090a1565b60008054604051634de835e760e11b81523360048201526001600160a01b0390911690639bd06bce90602401602060405180830381600087803b15801561242357600080fd5b505af115801561054a573d6000803e3d6000fd5b6001546000906001600160a01b031663e0ff5b8b825b6040516001600160e01b031960e084901b16815260ff909116600482015260240160206040518083038186803b15801561248657600080fd5b505afa15801561219b573d6000803e3d6000fd5b6001546000906001600160a01b031663e0ff5b8b600761244d565b6001546000906001600160a01b031663e0ff5b8b600261244d565b60008363ffffffff168563ffffffff161161252d5760405162461bcd60e51b815260206004820152601b60248201527f524f453a204e454741544956452073656c6c696e6720707269636500000000006044820152606401610bb0565b8165ffffffffffff168365ffffffffffff161161258c5760405162461bcd60e51b815260206004820152601c60248201527f524f453a204e4547415449564520686f6c64696e6720706572696f64000000006044820152606401610bb0565b600061259885876132a6565b905060006125a684866132cb565b905080866125b6846127106132ea565b6125c09190613316565b6125ce906301e133806132ea565b6125d89190613316565b979650505050505050565b6000546001600160a01b0316156126345760405162461bcd60e51b815260206004820152601560248201527430b63932b0b23c9039b2ba103932b3a1b2b73a32b960591b6044820152606401610bb0565b6040516001600160a01b03821681527f318da6c7624c71cbc0afe346c9d8827f119d0ecefb241a7b0c87217a076a8e029060200160405180910390a1600080546001600160a01b0319166001600160a01b0392909216919091179055565b6001546001600160a01b0316156126eb5760405162461bcd60e51b815260206004820152601960248201527f616c7265616479207365742067656e6572616c4b6565706572000000000000006044820152606401610bb0565b6040516001600160a01b03821681527fe513d3e0f0d0a3877029dcc588748679a7a3450ec1ec7ed56d96bd012c3e61aa9060200160405180910390a1600180546001600160a01b0319166001600160a01b0392909216919091179055565b5080546000825590600052602060002090810190610fd191905b808211156127775760008155600101612763565b5090565b6000806040838503121561278e57600080fd5b50508035926020909101359150565b6000602082840312156127af57600080fd5b5035919050565b6020808252825182820181905260009190848201906040850190845b818110156127ee578351835292840192918401916001016127d2565b50909695505050505050565b815161ffff1681526101408101602083015161281b602084018260ff169052565b506040830151612830604084018260ff169052565b506060830151612849606084018264ffffffffff169052565b506080830151612862608084018264ffffffffff169052565b5060a083015161287760a084018260ff169052565b5060c083015161288d60c084018261ffff169052565b5060e08301516128a160e084018215159052565b506101008381015163ffffffff908116918401919091526101209384015116929091019190915290565b6001600160a01b0381168114610fd157600080fd5b634e487b7160e01b600052604160045260246000fd5b6040516080810167ffffffffffffffff81118282101715612919576129196128e0565b60405290565b6040516060810167ffffffffffffffff81118282101715612919576129196128e0565b604051610140810167ffffffffffffffff81118282101715612919576129196128e0565b604051610100810167ffffffffffffffff81118282101715612919576129196128e0565b60ff81168114610fd157600080fd5b80356129a48161298a565b919050565b61ffff81168114610fd157600080fd5b80356129a4816129a9565b63ffffffff81168114610fd157600080fd5b80356129a4816129c4565b64ffffffffff81168114610fd157600080fd5b80356129a4816129e1565b65ffffffffffff81168114610fd157600080fd5b80356129a4816129ff565b67ffffffffffffffff81168114610fd157600080fd5b600060808284031215612a4657600080fd5b612a4e6128f6565b90508135612a5b816129e1565b81526020820135612a6b816129e1565b60208201526040820135612a7e81612a1e565b60408201526060820135612a9181612a1e565b606082015292915050565b60008183036101e0811215612ab057600080fd5b612ab861291f565b915061014080821215612aca57600080fd5b612ad2612942565b9150612add84612999565b8252612aeb602085016129b9565b6020830152612afc604085016129b9565b6040830152612b0d606085016129b9565b6060830152612b1e608085016129d6565b6080830152612b2f60a085016129f4565b60a0830152612b4060c085016129d6565b60c0830152612b5160e085016129d6565b60e0830152610100612b64818601612a13565b90830152610120612b76858201612999565b90830152818352612b8985858301612a34565b602084015250506101c0820135604082015292915050565b6000806102008385031215612bb557600080fd5b8235612bc0816128cb565b9150612bcf8460208501612a9c565b90509250929050565b600060208284031215612bea57600080fd5b81356114d0816128cb565b600060808284031215612c0757600080fd5b612c0f6128f6565b90508135612c1c81612a1e565b81526020820135612a6b81612a1e565b6000806000808486036103c0811215612c4457600080fd5b8535612c4f816128cb565b9450612c5e8760208801612a9c565b93506101a06101ff1982011215612c7457600080fd5b612c7c61291f565b610200870135815261010061021f1983011215612c9857600080fd5b612ca0612966565b9150610220870135612cb1816129c4565b8252612cc061024088016129d6565b6020830152612cd261026088016129b9565b6040830152612ce46102808801612a13565b6060830152612cf66102a08801612a13565b6080830152612d086102c088016129f4565b60a0830152612d1a6102e088016129d6565b60c0830152612d2c6103008801612999565b60e0830152816020820152612d45886103208901612bf5565b6040820152949793965093946103a0013593505050565b60008060008060808587031215612d7257600080fd5b843593506020850135612d84816128cb565b92506040850135612d94816128cb565b91506060850135612da4816128cb565b939692955090935050565b80516129a4816129e1565b600060208284031215612dcc57600080fd5b81516114d0816129e1565b600082601f830112612de857600080fd5b8151602067ffffffffffffffff80831115612e0557612e056128e0565b8260051b604051601f19603f83011681018181108482111715612e2a57612e2a6128e0565b604052938452858101830193838101925087851115612e4857600080fd5b83870191505b848210156125d857815183529183019190830190612e4e565b600060208284031215612e7957600080fd5b815167ffffffffffffffff811115612e9057600080fd5b611b7884828501612dd7565b80516129a48161298a565b600060c08284031215612eb957600080fd5b60405160c0810181811067ffffffffffffffff82111715612edc57612edc6128e0565b6040528251612eea8161298a565b81526020830151612efa816129e1565b60208201526040830151612f0d816129ff565b60408201526060830151612f20816129ff565b60608201526080830151612f33816129ff565b608082015260a0830151612f468161298a565b60a08201529392505050565b805180151581146129a457600080fd5b600060208284031215612f7457600080fd5b6114d082612f52565b600060208284031215612f8f57600080fd5b5051919050565b80516129a4816129a9565b60008060408385031215612fb457600080fd5b8251612fbf816129e1565b6020840151909250612fd0816129a9565b809150509250929050565b60208082526026908201527f41432e6f6e6c794469726563744b65657065723a206e6f74206469726563742060408201526535b2b2b832b960d11b606082015260800190565b60208082526036908201527f41432e6f776e65724f72446972656374426f6f6b65657065723a206e6569746860408201527532b91037bbb732b9103737b9103137b7b5b2b2b832b960511b606082015260800190565b60208082526013908201527241432e6f743a206e6f74204174746f726e657960681b604082015260600190565b80516129a4816129c4565b6000602082840312156130c157600080fd5b815167ffffffffffffffff808211156130d957600080fd5b90830190606082860312156130ed57600080fd5b6130f561291f565b8251613100816129c4565b8152602083015161311081612a1e565b602082015260408301518281111561312757600080fd5b61313387828601612dd7565b60408301525095945050505050565b600081518084526020808501945080840160005b8381101561317257815187529582019590820190600101613156565b509495945050505050565b6040815260006131906040830185613142565b82810360208401526131a28185613142565b95945050505050565b600061014082840312156131be57600080fd5b6131c6612942565b6131cf83612f96565b81526131dd60208401612e9c565b60208201526131ee60408401612e9c565b60408201526131ff60608401612daf565b606082015261321060808401612daf565b608082015261322160a08401612e9c565b60a082015261323260c08401612f96565b60c082015261324360e08401612f52565b60e08201526101006132568185016130a4565b908201526101206132688482016130a4565b908201529392505050565b60006020828403121561328557600080fd5b81516114d0816128cb565b634e487b7160e01b600052601160045260246000fd5b600063ffffffff838116908316818110156132c3576132c3613290565b039392505050565b600065ffffffffffff838116908316818110156132c3576132c3613290565b600063ffffffff8083168185168183048111821515161561330d5761330d613290565b02949350505050565b600063ffffffff8084168061333b57634e487b7160e01b600052601260045260246000fd5b9216919091049291505056fea26469706673582212203d6063cc46cffefb367c11e6a27e72852e50a0f83e8c3620e38a7ab93655ec9a64736f6c63430008080033",
    "sourcePath": "/Users/kaptain/github.com/hardhat/comboox/contracts/books/boh/terms/TagAlong.sol",
    "compiler": {
        "name": "solc",
        "version": "0.8.8+commit.dddeac2f"
    },
    "functionHashes": {
        "abandonRole(bytes32)": "3da9a600",
        "addFollower(uint256,uint256)": "89c29dbb",
        "createLink(bytes32,uint256)": "c68f51f8",
        "dragers()": "b4a952b3",
        "finalized()": "b3f05b97",
        "followers(uint256)": "1abc901f",
        "getBookeeper()": "ed211023",
        "getGeneralCounsel()": "103f6edd",
        "getOwner()": "893d20e8",
        "grantRole(bytes32,uint256)": "1b6ea9f9",
        "hasRole(bytes32,uint256)": "7e063c5a",
        "init(uint256,address,address,address)": "dc890da9",
        "isDrager(uint256)": "d249176e",
        "isExempted(address,((uint8,uint16,uint16,uint16,uint32,uint40,uint32,uint32,uint48,uint8),(uint40,uint40,uint64,uint64),bytes32))": "68d89b56",
        "isLinked(uint256,uint256)": "b097b857",
        "isTriggered(address,((uint8,uint16,uint16,uint16,uint32,uint40,uint32,uint32,uint48,uint8),(uint40,uint40,uint64,uint64),bytes32))": "3a8a879f",
        "linkRule(uint256)": "1ce69d39",
        "lockContents()": "f045a769",
        "priceCheck(address,((uint8,uint16,uint16,uint16,uint32,uint40,uint32,uint32,uint48,uint8),(uint40,uint40,uint64,uint64),bytes32),(uint256,(uint32,uint32,uint16,uint48,uint48,uint40,uint32,uint8),(uint64,uint64,uint64,uint64)),uint256)": "b9da1b61",
        "removeDrager(uint256)": "52fae48a",
        "removeFollower(uint256,uint256)": "ca93c8fc",
        "renounceRole(bytes32)": "8bb9c5bf",
        "revokeRole(bytes32,uint256)": "19d61ad9",
        "setDirectKeeper(address)": "6be8496f",
        "setGeneralCounsel(uint256)": "4a14beb1",
        "setOwner(uint256)": "8041494e",
        "setRoleAdmin(bytes32,uint256)": "5171ebd4"
    },
    "gasEstimates": {
        "creation": {
            "codeDepositCost": "2636200",
            "executionCost": "2854",
            "totalCost": "2639054"
        },
        "external": {
            "abandonRole(bytes32)": "infinite",
            "addFollower(uint256,uint256)": "infinite",
            "createLink(bytes32,uint256)": "infinite",
            "dragers()": "infinite",
            "finalized()": "2416",
            "followers(uint256)": "infinite",
            "getBookeeper()": "infinite",
            "getGeneralCounsel()": "infinite",
            "getOwner()": "infinite",
            "grantRole(bytes32,uint256)": "infinite",
            "hasRole(bytes32,uint256)": "infinite",
            "init(uint256,address,address,address)": "infinite",
            "isDrager(uint256)": "infinite",
            "isExempted(address,((uint8,uint16,uint16,uint16,uint32,uint40,uint32,uint32,uint48,uint8),(uint40,uint40,uint64,uint64),bytes32))": "infinite",
            "isLinked(uint256,uint256)": "infinite",
            "isTriggered(address,((uint8,uint16,uint16,uint16,uint32,uint40,uint32,uint32,uint48,uint8),(uint40,uint40,uint64,uint64),bytes32))": "infinite",
            "linkRule(uint256)": "3717",
            "lockContents()": "infinite",
            "priceCheck(address,((uint8,uint16,uint16,uint16,uint32,uint40,uint32,uint32,uint48,uint8),(uint40,uint40,uint64,uint64),bytes32),(uint256,(uint32,uint32,uint16,uint48,uint48,uint40,uint32,uint8),(uint64,uint64,uint64,uint64)),uint256)": "infinite",
            "removeDrager(uint256)": "infinite",
            "removeFollower(uint256,uint256)": "infinite",
            "renounceRole(bytes32)": "infinite",
            "revokeRole(bytes32,uint256)": "infinite",
            "setDirectKeeper(address)": "infinite",
            "setGeneralCounsel(uint256)": "infinite",
            "setOwner(uint256)": "infinite",
            "setRoleAdmin(bytes32,uint256)": "infinite"
        }
    }
}