{
    "contractName": "TagAlong",
    "abi": [
        {
            "anonymous": false,
            "inputs": [
                {
                    "indexed": false,
                    "internalType": "uint256",
                    "name": "owner",
                    "type": "uint256"
                },
                {
                    "indexed": false,
                    "internalType": "address",
                    "name": "directKeeper",
                    "type": "address"
                },
                {
                    "indexed": false,
                    "internalType": "address",
                    "name": "regCenter",
                    "type": "address"
                },
                {
                    "indexed": false,
                    "internalType": "address",
                    "name": "generalKeeper",
                    "type": "address"
                }
            ],
            "name": "Init",
            "type": "event"
        },
        {
            "anonymous": false,
            "inputs": [],
            "name": "LockContents",
            "type": "event"
        },
        {
            "anonymous": false,
            "inputs": [
                {
                    "indexed": false,
                    "internalType": "uint256",
                    "name": "title",
                    "type": "uint256"
                },
                {
                    "indexed": false,
                    "internalType": "address",
                    "name": "book",
                    "type": "address"
                }
            ],
            "name": "SetBookRuting",
            "type": "event"
        },
        {
            "anonymous": false,
            "inputs": [
                {
                    "indexed": false,
                    "internalType": "address",
                    "name": "keeper",
                    "type": "address"
                }
            ],
            "name": "SetDirectKeeper",
            "type": "event"
        },
        {
            "anonymous": false,
            "inputs": [
                {
                    "indexed": false,
                    "internalType": "uint256",
                    "name": "acct",
                    "type": "uint256"
                }
            ],
            "name": "SetGeneralCounsel",
            "type": "event"
        },
        {
            "anonymous": false,
            "inputs": [
                {
                    "indexed": false,
                    "internalType": "address",
                    "name": "gk",
                    "type": "address"
                }
            ],
            "name": "SetGeneralKeeper",
            "type": "event"
        },
        {
            "anonymous": false,
            "inputs": [
                {
                    "indexed": false,
                    "internalType": "uint256",
                    "name": "acct",
                    "type": "uint256"
                }
            ],
            "name": "SetOwner",
            "type": "event"
        },
        {
            "anonymous": false,
            "inputs": [
                {
                    "indexed": false,
                    "internalType": "address",
                    "name": "rc",
                    "type": "address"
                }
            ],
            "name": "SetRegCenter",
            "type": "event"
        },
        {
            "inputs": [
                {
                    "internalType": "bytes32",
                    "name": "role",
                    "type": "bytes32"
                }
            ],
            "name": "abandonRole",
            "outputs": [],
            "stateMutability": "nonpayable",
            "type": "function"
        },
        {
            "inputs": [
                {
                    "internalType": "uint256",
                    "name": "drager",
                    "type": "uint256"
                },
                {
                    "internalType": "uint256",
                    "name": "follower",
                    "type": "uint256"
                }
            ],
            "name": "addFollower",
            "outputs": [],
            "stateMutability": "nonpayable",
            "type": "function"
        },
        {
            "inputs": [
                {
                    "internalType": "uint256",
                    "name": "rule",
                    "type": "uint256"
                },
                {
                    "internalType": "uint256",
                    "name": "drager",
                    "type": "uint256"
                }
            ],
            "name": "createLink",
            "outputs": [],
            "stateMutability": "nonpayable",
            "type": "function"
        },
        {
            "inputs": [],
            "name": "dragers",
            "outputs": [
                {
                    "internalType": "uint256[]",
                    "name": "",
                    "type": "uint256[]"
                }
            ],
            "stateMutability": "view",
            "type": "function"
        },
        {
            "inputs": [],
            "name": "finalized",
            "outputs": [
                {
                    "internalType": "bool",
                    "name": "",
                    "type": "bool"
                }
            ],
            "stateMutability": "view",
            "type": "function"
        },
        {
            "inputs": [
                {
                    "internalType": "uint256",
                    "name": "drager",
                    "type": "uint256"
                }
            ],
            "name": "followers",
            "outputs": [
                {
                    "internalType": "uint256[]",
                    "name": "",
                    "type": "uint256[]"
                }
            ],
            "stateMutability": "view",
            "type": "function"
        },
        {
            "inputs": [],
            "name": "getBookeeper",
            "outputs": [
                {
                    "internalType": "address",
                    "name": "",
                    "type": "address"
                }
            ],
            "stateMutability": "view",
            "type": "function"
        },
        {
            "inputs": [],
            "name": "getGeneralCounsel",
            "outputs": [
                {
                    "internalType": "uint40",
                    "name": "",
                    "type": "uint40"
                }
            ],
            "stateMutability": "view",
            "type": "function"
        },
        {
            "inputs": [],
            "name": "getOwner",
            "outputs": [
                {
                    "internalType": "uint40",
                    "name": "",
                    "type": "uint40"
                }
            ],
            "stateMutability": "view",
            "type": "function"
        },
        {
            "inputs": [
                {
                    "internalType": "bytes32",
                    "name": "role",
                    "type": "bytes32"
                },
                {
                    "internalType": "uint256",
                    "name": "acct",
                    "type": "uint256"
                }
            ],
            "name": "grantRole",
            "outputs": [],
            "stateMutability": "nonpayable",
            "type": "function"
        },
        {
            "inputs": [
                {
                    "internalType": "bytes32",
                    "name": "role",
                    "type": "bytes32"
                },
                {
                    "internalType": "uint256",
                    "name": "acct",
                    "type": "uint256"
                }
            ],
            "name": "hasRole",
            "outputs": [
                {
                    "internalType": "bool",
                    "name": "",
                    "type": "bool"
                }
            ],
            "stateMutability": "view",
            "type": "function"
        },
        {
            "inputs": [
                {
                    "internalType": "uint256",
                    "name": "owner",
                    "type": "uint256"
                },
                {
                    "internalType": "address",
                    "name": "directKeeper",
                    "type": "address"
                },
                {
                    "internalType": "address",
                    "name": "regCenter",
                    "type": "address"
                },
                {
                    "internalType": "address",
                    "name": "generalKeeper",
                    "type": "address"
                }
            ],
            "name": "init",
            "outputs": [],
            "stateMutability": "nonpayable",
            "type": "function"
        },
        {
            "inputs": [],
            "name": "initBOA",
            "outputs": [],
            "stateMutability": "nonpayable",
            "type": "function"
        },
        {
            "inputs": [],
            "name": "initBOG",
            "outputs": [],
            "stateMutability": "nonpayable",
            "type": "function"
        },
        {
            "inputs": [],
            "name": "initROM",
            "outputs": [],
            "stateMutability": "nonpayable",
            "type": "function"
        },
        {
            "inputs": [
                {
                    "internalType": "uint256",
                    "name": "drager",
                    "type": "uint256"
                }
            ],
            "name": "isDrager",
            "outputs": [
                {
                    "internalType": "bool",
                    "name": "",
                    "type": "bool"
                }
            ],
            "stateMutability": "view",
            "type": "function"
        },
        {
            "inputs": [
                {
                    "internalType": "address",
                    "name": "ia",
                    "type": "address"
                },
                {
                    "components": [
                        {
                            "components": [
                                {
                                    "internalType": "uint8",
                                    "name": "typeOfDeal",
                                    "type": "uint8"
                                },
                                {
                                    "internalType": "uint16",
                                    "name": "seqOfDeal",
                                    "type": "uint16"
                                },
                                {
                                    "internalType": "uint16",
                                    "name": "preSeq",
                                    "type": "uint16"
                                },
                                {
                                    "internalType": "uint16",
                                    "name": "classOfShare",
                                    "type": "uint16"
                                },
                                {
                                    "internalType": "uint32",
                                    "name": "seqOfShare",
                                    "type": "uint32"
                                },
                                {
                                    "internalType": "uint40",
                                    "name": "seller",
                                    "type": "uint40"
                                },
                                {
                                    "internalType": "uint32",
                                    "name": "priceOfPaid",
                                    "type": "uint32"
                                },
                                {
                                    "internalType": "uint32",
                                    "name": "priceOfPar",
                                    "type": "uint32"
                                },
                                {
                                    "internalType": "uint48",
                                    "name": "closingDate",
                                    "type": "uint48"
                                }
                            ],
                            "internalType": "struct DealsRepo.Head",
                            "name": "head",
                            "type": "tuple"
                        },
                        {
                            "components": [
                                {
                                    "internalType": "uint40",
                                    "name": "buyer",
                                    "type": "uint40"
                                },
                                {
                                    "internalType": "uint40",
                                    "name": "groupOfBuyer",
                                    "type": "uint40"
                                },
                                {
                                    "internalType": "uint64",
                                    "name": "paid",
                                    "type": "uint64"
                                },
                                {
                                    "internalType": "uint64",
                                    "name": "par",
                                    "type": "uint64"
                                },
                                {
                                    "internalType": "uint8",
                                    "name": "state",
                                    "type": "uint8"
                                }
                            ],
                            "internalType": "struct DealsRepo.Body",
                            "name": "body",
                            "type": "tuple"
                        },
                        {
                            "internalType": "bytes32",
                            "name": "hashLock",
                            "type": "bytes32"
                        }
                    ],
                    "internalType": "struct DealsRepo.Deal",
                    "name": "deal",
                    "type": "tuple"
                }
            ],
            "name": "isExempted",
            "outputs": [
                {
                    "internalType": "bool",
                    "name": "",
                    "type": "bool"
                }
            ],
            "stateMutability": "view",
            "type": "function"
        },
        {
            "inputs": [
                {
                    "internalType": "uint256",
                    "name": "drager",
                    "type": "uint256"
                },
                {
                    "internalType": "uint256",
                    "name": "follower",
                    "type": "uint256"
                }
            ],
            "name": "isLinked",
            "outputs": [
                {
                    "internalType": "bool",
                    "name": "",
                    "type": "bool"
                }
            ],
            "stateMutability": "view",
            "type": "function"
        },
        {
            "inputs": [
                {
                    "internalType": "address",
                    "name": "ia",
                    "type": "address"
                },
                {
                    "components": [
                        {
                            "components": [
                                {
                                    "internalType": "uint8",
                                    "name": "typeOfDeal",
                                    "type": "uint8"
                                },
                                {
                                    "internalType": "uint16",
                                    "name": "seqOfDeal",
                                    "type": "uint16"
                                },
                                {
                                    "internalType": "uint16",
                                    "name": "preSeq",
                                    "type": "uint16"
                                },
                                {
                                    "internalType": "uint16",
                                    "name": "classOfShare",
                                    "type": "uint16"
                                },
                                {
                                    "internalType": "uint32",
                                    "name": "seqOfShare",
                                    "type": "uint32"
                                },
                                {
                                    "internalType": "uint40",
                                    "name": "seller",
                                    "type": "uint40"
                                },
                                {
                                    "internalType": "uint32",
                                    "name": "priceOfPaid",
                                    "type": "uint32"
                                },
                                {
                                    "internalType": "uint32",
                                    "name": "priceOfPar",
                                    "type": "uint32"
                                },
                                {
                                    "internalType": "uint48",
                                    "name": "closingDate",
                                    "type": "uint48"
                                }
                            ],
                            "internalType": "struct DealsRepo.Head",
                            "name": "head",
                            "type": "tuple"
                        },
                        {
                            "components": [
                                {
                                    "internalType": "uint40",
                                    "name": "buyer",
                                    "type": "uint40"
                                },
                                {
                                    "internalType": "uint40",
                                    "name": "groupOfBuyer",
                                    "type": "uint40"
                                },
                                {
                                    "internalType": "uint64",
                                    "name": "paid",
                                    "type": "uint64"
                                },
                                {
                                    "internalType": "uint64",
                                    "name": "par",
                                    "type": "uint64"
                                },
                                {
                                    "internalType": "uint8",
                                    "name": "state",
                                    "type": "uint8"
                                }
                            ],
                            "internalType": "struct DealsRepo.Body",
                            "name": "body",
                            "type": "tuple"
                        },
                        {
                            "internalType": "bytes32",
                            "name": "hashLock",
                            "type": "bytes32"
                        }
                    ],
                    "internalType": "struct DealsRepo.Deal",
                    "name": "deal",
                    "type": "tuple"
                }
            ],
            "name": "isTriggered",
            "outputs": [
                {
                    "internalType": "bool",
                    "name": "",
                    "type": "bool"
                }
            ],
            "stateMutability": "view",
            "type": "function"
        },
        {
            "inputs": [
                {
                    "internalType": "uint256",
                    "name": "drager",
                    "type": "uint256"
                }
            ],
            "name": "linkRule",
            "outputs": [
                {
                    "components": [
                        {
                            "internalType": "uint16",
                            "name": "seq",
                            "type": "uint16"
                        },
                        {
                            "internalType": "uint8",
                            "name": "qtyOfSubRule",
                            "type": "uint8"
                        },
                        {
                            "internalType": "uint8",
                            "name": "seqOfSubRule",
                            "type": "uint8"
                        },
                        {
                            "internalType": "uint40",
                            "name": "drager",
                            "type": "uint40"
                        },
                        {
                            "internalType": "uint40",
                            "name": "dragerGroup",
                            "type": "uint40"
                        },
                        {
                            "internalType": "uint8",
                            "name": "triggerType",
                            "type": "uint8"
                        },
                        {
                            "internalType": "uint16",
                            "name": "shareRatioThreshold",
                            "type": "uint16"
                        },
                        {
                            "internalType": "bool",
                            "name": "proRata",
                            "type": "bool"
                        },
                        {
                            "internalType": "uint32",
                            "name": "unitPrice",
                            "type": "uint32"
                        },
                        {
                            "internalType": "uint32",
                            "name": "roe",
                            "type": "uint32"
                        }
                    ],
                    "internalType": "struct RulesParser.LinkRule",
                    "name": "",
                    "type": "tuple"
                }
            ],
            "stateMutability": "view",
            "type": "function"
        },
        {
            "inputs": [],
            "name": "lockContents",
            "outputs": [],
            "stateMutability": "nonpayable",
            "type": "function"
        },
        {
            "inputs": [
                {
                    "internalType": "address",
                    "name": "ia",
                    "type": "address"
                },
                {
                    "components": [
                        {
                            "components": [
                                {
                                    "internalType": "uint8",
                                    "name": "typeOfDeal",
                                    "type": "uint8"
                                },
                                {
                                    "internalType": "uint16",
                                    "name": "seqOfDeal",
                                    "type": "uint16"
                                },
                                {
                                    "internalType": "uint16",
                                    "name": "preSeq",
                                    "type": "uint16"
                                },
                                {
                                    "internalType": "uint16",
                                    "name": "classOfShare",
                                    "type": "uint16"
                                },
                                {
                                    "internalType": "uint32",
                                    "name": "seqOfShare",
                                    "type": "uint32"
                                },
                                {
                                    "internalType": "uint40",
                                    "name": "seller",
                                    "type": "uint40"
                                },
                                {
                                    "internalType": "uint32",
                                    "name": "priceOfPaid",
                                    "type": "uint32"
                                },
                                {
                                    "internalType": "uint32",
                                    "name": "priceOfPar",
                                    "type": "uint32"
                                },
                                {
                                    "internalType": "uint48",
                                    "name": "closingDate",
                                    "type": "uint48"
                                }
                            ],
                            "internalType": "struct DealsRepo.Head",
                            "name": "head",
                            "type": "tuple"
                        },
                        {
                            "components": [
                                {
                                    "internalType": "uint40",
                                    "name": "buyer",
                                    "type": "uint40"
                                },
                                {
                                    "internalType": "uint40",
                                    "name": "groupOfBuyer",
                                    "type": "uint40"
                                },
                                {
                                    "internalType": "uint64",
                                    "name": "paid",
                                    "type": "uint64"
                                },
                                {
                                    "internalType": "uint64",
                                    "name": "par",
                                    "type": "uint64"
                                },
                                {
                                    "internalType": "uint8",
                                    "name": "state",
                                    "type": "uint8"
                                }
                            ],
                            "internalType": "struct DealsRepo.Body",
                            "name": "body",
                            "type": "tuple"
                        },
                        {
                            "internalType": "bytes32",
                            "name": "hashLock",
                            "type": "bytes32"
                        }
                    ],
                    "internalType": "struct DealsRepo.Deal",
                    "name": "deal",
                    "type": "tuple"
                },
                {
                    "components": [
                        {
                            "components": [
                                {
                                    "internalType": "uint32",
                                    "name": "seqOfShare",
                                    "type": "uint32"
                                },
                                {
                                    "internalType": "uint32",
                                    "name": "preSeq",
                                    "type": "uint32"
                                },
                                {
                                    "internalType": "uint16",
                                    "name": "class",
                                    "type": "uint16"
                                },
                                {
                                    "internalType": "uint48",
                                    "name": "issueDate",
                                    "type": "uint48"
                                },
                                {
                                    "internalType": "uint40",
                                    "name": "shareholder",
                                    "type": "uint40"
                                },
                                {
                                    "internalType": "uint32",
                                    "name": "price",
                                    "type": "uint32"
                                }
                            ],
                            "internalType": "struct SharesRepo.Head",
                            "name": "head",
                            "type": "tuple"
                        },
                        {
                            "components": [
                                {
                                    "internalType": "uint48",
                                    "name": "payInDeadline",
                                    "type": "uint48"
                                },
                                {
                                    "internalType": "uint64",
                                    "name": "paid",
                                    "type": "uint64"
                                },
                                {
                                    "internalType": "uint64",
                                    "name": "par",
                                    "type": "uint64"
                                },
                                {
                                    "internalType": "uint64",
                                    "name": "cleanPaid",
                                    "type": "uint64"
                                },
                                {
                                    "internalType": "uint8",
                                    "name": "state",
                                    "type": "uint8"
                                }
                            ],
                            "internalType": "struct SharesRepo.Body",
                            "name": "body",
                            "type": "tuple"
                        }
                    ],
                    "internalType": "struct SharesRepo.Share",
                    "name": "share",
                    "type": "tuple"
                },
                {
                    "internalType": "uint256",
                    "name": "caller",
                    "type": "uint256"
                }
            ],
            "name": "priceCheck",
            "outputs": [
                {
                    "internalType": "bool",
                    "name": "",
                    "type": "bool"
                }
            ],
            "stateMutability": "view",
            "type": "function"
        },
        {
            "inputs": [
                {
                    "internalType": "uint256",
                    "name": "drager",
                    "type": "uint256"
                }
            ],
            "name": "removeDrager",
            "outputs": [],
            "stateMutability": "nonpayable",
            "type": "function"
        },
        {
            "inputs": [
                {
                    "internalType": "uint256",
                    "name": "drager",
                    "type": "uint256"
                },
                {
                    "internalType": "uint256",
                    "name": "follower",
                    "type": "uint256"
                }
            ],
            "name": "removeFollower",
            "outputs": [],
            "stateMutability": "nonpayable",
            "type": "function"
        },
        {
            "inputs": [
                {
                    "internalType": "bytes32",
                    "name": "role",
                    "type": "bytes32"
                }
            ],
            "name": "renounceRole",
            "outputs": [],
            "stateMutability": "nonpayable",
            "type": "function"
        },
        {
            "inputs": [
                {
                    "internalType": "bytes32",
                    "name": "role",
                    "type": "bytes32"
                },
                {
                    "internalType": "uint256",
                    "name": "acct",
                    "type": "uint256"
                }
            ],
            "name": "revokeRole",
            "outputs": [],
            "stateMutability": "nonpayable",
            "type": "function"
        },
        {
            "inputs": [
                {
                    "internalType": "address",
                    "name": "keeper",
                    "type": "address"
                }
            ],
            "name": "setDirectKeeper",
            "outputs": [],
            "stateMutability": "nonpayable",
            "type": "function"
        },
        {
            "inputs": [
                {
                    "internalType": "uint256",
                    "name": "acct",
                    "type": "uint256"
                }
            ],
            "name": "setGeneralCounsel",
            "outputs": [],
            "stateMutability": "nonpayable",
            "type": "function"
        },
        {
            "inputs": [
                {
                    "internalType": "uint256",
                    "name": "acct",
                    "type": "uint256"
                }
            ],
            "name": "setOwner",
            "outputs": [],
            "stateMutability": "nonpayable",
            "type": "function"
        },
        {
            "inputs": [
                {
                    "internalType": "bytes32",
                    "name": "role",
                    "type": "bytes32"
                },
                {
                    "internalType": "uint256",
                    "name": "acct",
                    "type": "uint256"
                }
            ],
            "name": "setRoleAdmin",
            "outputs": [],
            "stateMutability": "nonpayable",
            "type": "function"
        }
    ],
    "bytecode": "608060405234801561001057600080fd5b5061356e806100206000396000f3fe608060405234801561001057600080fd5b50600436106101da5760003560e01c80637e063c5a11610104578063b3f05b97116100a2578063dc890da911610071578063dc890da9146104ee578063ed21102314610501578063f045a76914610521578063fa9e79341461052957600080fd5b8063b3f05b97146104ab578063b4a952b3146104c0578063ca93c8fc146104c8578063d249176e146104db57600080fd5b806389c29dbb116100de57806389c29dbb1461045f5780638bb9c5bf14610472578063a186aabb14610485578063b097b8571461049857600080fd5b80637e063c5a146104315780638041494e14610444578063893d20e81461045757600080fd5b8063237006e01161017c57806352fae48a1161014b57806352fae48a146103fb5780635f73395e1461040e57806368258858146104165780636be8496f1461041e57600080fd5b8063237006e0146103af5780633da9a600146103c25780634a14beb1146103d55780635171ebd4146103e857600080fd5b80631abc901f116101b85780631abc901f1461023a5780631b6ea9f91461025a5780631ce69d391461026d5780631e58c1491461039c57600080fd5b806306c4b208146101df578063103f6edd1461020757806319d61ad914610225575b600080fd5b6101f26101ed366004612cb5565b610531565b60405190151581526020015b60405180910390f35b61020f61097a565b60405164ffffffffff90911681526020016101fe565b610238610233366004612cec565b610a06565b005b61024d610248366004612d0e565b610a9a565b6040516101fe9190612d27565b610238610268366004612cec565b610b39565b61038f61027b366004612d0e565b6040805161014081018252600080825260208201819052918101829052606081018290526080810182905260a0810182905260c0810182905260e0810182905261010081018290526101208101919091525060009081526007602090815260409182902082516101408101845260029091015461ffff808216835260ff6201000083048116948401949094526301000000820484169483019490945264ffffffffff640100000000820481166060840152600160481b8204166080830152600160701b8104831660a0830152600160781b810490931660c0820152600160881b8304909116151560e082015263ffffffff600160901b83048116610100830152600160b01b90920490911661012082015290565b6040516101fe9190612d6b565b6101f26103aa366004612e73565b610b5e565b6101f26103bd366004612cb5565b610d49565b6102386103d0366004612d0e565b6110f4565b6102386103e3366004612d0e565b611206565b6102386103f6366004612cec565b6113f6565b610238610409366004612d0e565b61141b565b6102386115b4565b61023861168d565b61023861042c366004612f78565b61175f565b6101f261043f366004612cec565b611811565b610238610452366004612d0e565b6118ad565b61020f611a92565b61023861046d366004612cec565b611acd565b610238610480366004612d0e565b611c3d565b610238610493366004612cec565b611c96565b6101f26104a6366004612cec565b611fc0565b600554600160f01b900460ff166002146101f2565b61024d61200e565b6102386104d6366004612cec565b612098565b6101f26104e9366004612d0e565b6121b7565b6102386104fc366004612f95565b612244565b610509612327565b6040516001600160a01b0390911681526020016101fe565b6102386123ad565b6102386125cb565b6003546040516337066e9d60e11b81526001600160a01b038481166004830152600092600292911690636e0cdd3a9060240160806040518083038186803b15801561057b57600080fd5b505afa15801561058f573d6000803e3d6000fd5b505050506040513d601f19601f820116820180604052508101906105b39190612ff3565b6060015160ff16146105c757506000610974565b81515160ff16600114806105e0575081515160ff166004145b156105ed57506000610974565b815160a00151604051633f5f77cd60e01b81526008600482015264ffffffffff909116602482015273__$8c1a4844a0a0988ea2454cf87145a95df1$__90633f5f77cd9060440160206040518083038186803b15801561064c57600080fd5b505af4158015610660573d6000803e3d6000fd5b505050506040513d601f19601f82011682018060405250810190610684919061307f565b61069057506000610974565b815160a09081015164ffffffffff90811660009081526007602090815260409182902082516101408101845260029091015461ffff808216835260ff62010000830481169484019490945263010000008204841694830194909452640100000000810485166060830152600160481b81049094166080820152600160701b84048216948101859052600160781b840490921660c0830152600160881b830416151560e082015263ffffffff600160901b83048116610100830152600160b01b9092049091166101208201529061076a576001915050610974565b6000600460009054906101000a90046001600160a01b03166001600160a01b031663984199286040518163ffffffff1660e01b815260040160206040518083038186803b1580156107ba57600080fd5b505afa1580156107ce573d6000803e3d6000fd5b505050506040513d601f19601f820116820180604052508101906107f291906130a5565b60048054865160a0015160405163302e2f6360e11b81529394506001600160a01b039091169263605c5ec69261083692910164ffffffffff91909116815260200190565b60206040518083038186803b15801561084e57600080fd5b505afa158015610862573d6000803e3d6000fd5b505050506040513d601f19601f8201168201806040525081019061088691906130a5565b64ffffffffff168164ffffffffff16146108a557600092505050610974565b60035460405163deb5717560e01b81526001600160a01b038781166004830152600092839291169063deb5717590602401604080518083038186803b1580156108ed57600080fd5b505afa158015610901573d6000803e3d6000fd5b505050506040513d601f19601f8201168201806040525081019061092591906130cd565b915091508164ffffffffff168364ffffffffff161461094b576001945050505050610974565b8360c0015161ffff168161ffff161161096b576001945050505050610974565b60009450505050505b92915050565b60405163e8c0cc1d60e01b81526005600482015260009073__$364aad554dc80380f414546becdd2c1584$__9063e8c0cc1d906024015b60206040518083038186803b1580156109c957600080fd5b505af41580156109dd573d6000803e3d6000fd5b505050506040513d601f19601f82011682018060405250810190610a0191906130a5565b905090565b73__$364aad554dc80380f414546becdd2c1584$__6382daafaa600584610a2b61269e565b6040516001600160e01b031960e086901b1681526004810193909352602483019190915264ffffffffff166044820152606481018490526084015b60006040518083038186803b158015610a7e57600080fd5b505af4158015610a92573d6000803e3d6000fd5b505050505050565b60008181526007602052604090819020905163034306e160e21b815260609173__$8c1a4844a0a0988ea2454cf87145a95df1$__91630d0c1b8491610ae59160040190815260200190565b60006040518083038186803b158015610afd57600080fd5b505af4158015610b11573d6000803e3d6000fd5b505050506040513d6000823e601f3d908101601f191682016040526109749190810190613197565b73__$364aad554dc80380f414546becdd2c1584$__636320d75e600584610a2b61269e565b6000610b6a8585610531565b610b7657506000610d41565b835160a0015164ffffffffff168214610bd65760405162461bcd60e51b815260206004820152601b60248201527f44412e50433a2063616c6c6572206973206e6f7420647261676572000000000060448201526064015b60405180910390fd5b60008281526007602090815260409182902082516101408101845260029182015461ffff808216835260ff6201000083048116958401959095526301000000820485169583019590955264ffffffffff640100000000820481166060840152600160481b8204166080830152600160701b8104841660a08301819052600160781b820490951660c0830152600160881b8104909316151560e082015263ffffffff600160901b84048116610100830152600160b01b90930490921661012083015290911015610ca9576001915050610d41565b60a081015160ff1660021415610ced5780610100015163ffffffff16856000015160c0015163ffffffff1610610ce3576001915050610d41565b6000915050610d41565b80610120015163ffffffff16610d26866000015160c00151866000015160a00151886000015161010001518860000151606001516126f8565b63ffffffff1610610d3b576001915050610d41565b60009150505b949350505050565b600254604051634940318360e01b81526001600160a01b038481166004830152600092169063494031839060240160206040518083038186803b158015610d8f57600080fd5b505afa158015610da3573d6000803e3d6000fd5b505050506040513d601f19601f82011682018060405250810190610dc7919061307f565b610e075760405162461bcd60e51b81526020600482015260116024820152701b5bdd1a5bdb881393d5081c185cdcd959607a1b6044820152606401610bcd565b610e118383610531565b610e1d57506001610974565b600254604051638d5b658560e01b81526001600160a01b038581166004830152600160248301526000921690638d5b65859060440160006040518083038186803b158015610e6a57600080fd5b505afa158015610e7e573d6000803e3d6000fd5b505050506040513d6000823e601f3d908101601f19168201604052610ea691908101906131d7565b6040015190506000846001600160a01b031663a8311aa86040518163ffffffff1660e01b815260040160006040518083038186803b158015610ee757600080fd5b505afa158015610efb573d6000803e3d6000fd5b505050506040513d6000823e601f3d908101601f19168201604052610f239190810190613197565b604051630445cdfb60e11b815290915060009073__$ccb256085f563a601d001f7c9087d87207$__9063088b9bf690610f6290869086906004016132a5565b60006040518083038186803b158015610f7a57600080fd5b505af4158015610f8e573d6000803e3d6000fd5b505050506040513d6000823e601f3d908101601f19168201604052610fb69190810190613197565b855160a0015164ffffffffff16600090815260076020526040808220905163034306e160e21b815260048101919091529192509073__$8c1a4844a0a0988ea2454cf87145a95df1$__90630d0c1b849060240160006040518083038186803b15801561102157600080fd5b505af4158015611035573d6000803e3d6000fd5b505050506040513d6000823e601f3d908101601f1916820160405261105d9190810190613197565b604051638410a30d60e01b815290915073__$ccb256085f563a601d001f7c9087d87207$__90638410a30d9061109990849086906004016132a5565b60206040518083038186803b1580156110b157600080fd5b505af41580156110c5573d6000803e3d6000fd5b505050506040513d601f19601f820116820180604052508101906110e9919061307f565b979650505050505050565b604051633b11adbf60e21b81526005600482015233602482015273__$364aad554dc80380f414546becdd2c1584$__9063ec46b6fc9060440160206040518083038186803b15801561114557600080fd5b505af4158015611159573d6000803e3d6000fd5b505050506040513d601f19601f8201168201806040525081019061117d919061307f565b6111995760405162461bcd60e51b8152600401610bcd906132d3565b60405163cc99e11b60e01b8152600560048201526024810182905273__$364aad554dc80380f414546becdd2c1584$__9063cc99e11b9060440160006040518083038186803b1580156111eb57600080fd5b505af41580156111ff573d6000803e3d6000fd5b5050505050565b604051633b11adbf60e21b81526005600482015233602482015273__$364aad554dc80380f414546becdd2c1584$__9063ec46b6fc9060440160206040518083038186803b15801561125757600080fd5b505af415801561126b573d6000803e3d6000fd5b505050506040513d601f19601f8201168201806040525081019061128f919061307f565b80611334575073__$364aad554dc80380f414546becdd2c1584$__63fe27108660056112b961269e565b6040516001600160e01b031960e085901b168152600481019290925264ffffffffff16602482015260440160206040518083038186803b1580156112fc57600080fd5b505af4158015611310573d6000803e3d6000fd5b505050506040513d601f19601f82011682018060405250810190611334919061307f565b6113505760405162461bcd60e51b8152600401610bcd90613319565b604051632725ebef60e21b8152600560048201526024810182905273__$364aad554dc80380f414546becdd2c1584$__90639c97afbc9060440160006040518083038186803b1580156113a257600080fd5b505af41580156113b6573d6000803e3d6000fd5b505050507ff2735f34b69be1e6342dea95f9162f84d0db925fab655ca9f1f312ac8cbfc99d816040516113eb91815260200190565b60405180910390a150565b73__$364aad554dc80380f414546becdd2c1584$__63ee98b313600584610a2b61269e565b73__$364aad554dc80380f414546becdd2c1584$__63a8ef95ac6005684174746f726e65797360b81b61144c61269e565b6040516001600160e01b031960e086901b1681526004810193909352602483019190915264ffffffffff16604482015260640160206040518083038186803b15801561149757600080fd5b505af41580156114ab573d6000803e3d6000fd5b505050506040513d601f19601f820116820180604052508101906114cf919061307f565b6114eb5760405162461bcd60e51b8152600401610bcd9061336f565b6040516392fd02df60e01b8152600860048201526024810182905273__$8c1a4844a0a0988ea2454cf87145a95df1$__906392fd02df9060440160206040518083038186803b15801561153d57600080fd5b505af4158015611551573d6000803e3d6000fd5b505050506040513d601f19601f82011682018060405250810190611575919061307f565b156115b157600081815260076020526040812090818181816115978282612966565b5050505060029190910180546001600160d01b0319169055505b50565b60015460405163e0ff5b8b60e01b8152600060048201526001600160a01b039091169063e0ff5b8b9060240160206040518083038186803b1580156115f857600080fd5b505afa15801561160c573d6000803e3d6000fd5b505050506040513d601f19601f82011682018060405250810190611630919061339c565b600380546001600160a01b0319166001600160a01b03929092169182179055604080516000815260208101929092527f6aa5e483fe137161b095cd68564a336d1657057f57987b1ae21019134dbc8da291015b60405180910390a1565b60015460405163e0ff5b8b60e01b8152600260048201526001600160a01b039091169063e0ff5b8b9060240160206040518083038186803b1580156116d157600080fd5b505afa1580156116e5573d6000803e3d6000fd5b505050506040513d601f19601f82011682018060405250810190611709919061339c565b600280546001600160a01b0319166001600160a01b039290921691821781556040805191825260208201929092527f6aa5e483fe137161b095cd68564a336d1657057f57987b1ae21019134dbc8da29101611683565b604051630f07232560e01b8152600560048201523360248201526001600160a01b038216604482015273__$364aad554dc80380f414546becdd2c1584$__90630f0723259060640160006040518083038186803b1580156117bf57600080fd5b505af41580156117d3573d6000803e3d6000fd5b50506040516001600160a01b03841681527fe435cbeab64e4eae6497b9d8289704bd709d624a80704ef3ca9af777534bc6ec925060200190506113eb565b604051632a3be56b60e21b815260056004820152602481018390526044810182905260009073__$364aad554dc80380f414546becdd2c1584$__9063a8ef95ac906064015b60206040518083038186803b15801561186e57600080fd5b505af4158015611882573d6000803e3d6000fd5b505050506040513d601f19601f820116820180604052508101906118a6919061307f565b9392505050565b604051633b11adbf60e21b81526005600482015233602482015273__$364aad554dc80380f414546becdd2c1584$__9063ec46b6fc9060440160206040518083038186803b1580156118fe57600080fd5b505af4158015611912573d6000803e3d6000fd5b505050506040513d601f19601f82011682018060405250810190611936919061307f565b806119db575073__$364aad554dc80380f414546becdd2c1584$__63fe271086600561196061269e565b6040516001600160e01b031960e085901b168152600481019290925264ffffffffff16602482015260440160206040518083038186803b1580156119a357600080fd5b505af41580156119b7573d6000803e3d6000fd5b505050506040513d601f19601f820116820180604052508101906119db919061307f565b6119f75760405162461bcd60e51b8152600401610bcd90613319565b60405163b6e38a2960e01b8152600560048201526024810182905273__$364aad554dc80380f414546becdd2c1584$__9063b6e38a299060440160006040518083038186803b158015611a4957600080fd5b505af4158015611a5d573d6000803e3d6000fd5b505050507f8b6f40f36b4ae8cc5f55e895036457c43da4ab1f80f58c46f5ff0d72a650033b816040516113eb91815260200190565b60405163987ad15360e01b81526005600482015260009073__$364aad554dc80380f414546becdd2c1584$__9063987ad153906024016109b1565b73__$364aad554dc80380f414546becdd2c1584$__63a8ef95ac6005684174746f726e65797360b81b611afe61269e565b6040516001600160e01b031960e086901b1681526004810193909352602483019190915264ffffffffff16604482015260640160206040518083038186803b158015611b4957600080fd5b505af4158015611b5d573d6000803e3d6000fd5b505050506040513d601f19601f82011682018060405250810190611b81919061307f565b611b9d5760405162461bcd60e51b8152600401610bcd9061336f565b6000828152600760205260409081902090516392f13c3f60e01b815260048101919091526024810182905273__$8c1a4844a0a0988ea2454cf87145a95df1$__906392f13c3f906044015b60206040518083038186803b158015611c0057600080fd5b505af4158015611c14573d6000803e3d6000fd5b505050506040513d601f19601f82011682018060405250810190611c38919061307f565b505050565b6000611c4761269e565b60405163cc0d511b60e01b8152600560048201526024810184905264ffffffffff8216604482015290915073__$364aad554dc80380f414546becdd2c1584$__9063cc0d511b90606401610a66565b73__$364aad554dc80380f414546becdd2c1584$__63a8ef95ac6005684174746f726e65797360b81b611cc761269e565b6040516001600160e01b031960e086901b1681526004810193909352602483019190915264ffffffffff16604482015260640160206040518083038186803b158015611d1257600080fd5b505af4158015611d26573d6000803e3d6000fd5b505050506040513d601f19601f82011682018060405250810190611d4a919061307f565b611d665760405162461bcd60e51b8152600401610bcd9061336f565b6040516392f13c3f60e01b8152600860048201526024810182905273__$8c1a4844a0a0988ea2454cf87145a95df1$__906392f13c3f9060440160206040518083038186803b158015611db857600080fd5b505af4158015611dcc573d6000803e3d6000fd5b505050506040513d601f19601f82011682018060405250810190611df0919061307f565b15611fbc576040516354c9133560e01b81526004810183905273__$9d2c69e94fee47b9774dc8db4aa5c0bbec$__906354c91335906024016101406040518083038186803b158015611e4157600080fd5b505af4158015611e55573d6000803e3d6000fd5b505050506040513d601f19601f82011682018060405250810190611e7991906133b9565b60008281526007602090815260409182902083516002909101805492850151938501516060860151608087015160a088015160c089015160e08a01516101008b0151610120909b015161ffff98891662ffffff19909a16999099176201000060ff9b8c16021768ffffffffffff00000019166301000000968b169690960268ffffffffff0000000019169590951764010000000064ffffffffff95861602176effffffffffff0000000000000000001916600160481b949093169390930260ff60701b191691909117600160701b97909116969096029590951762ffffff60781b1916600160781b939095169290920260ff60881b191693909317600160881b911515919091021767ffffffffffffffff60901b1916600160901b63ffffffff9485160263ffffffff60b01b191617600160b01b93909116929092029190911790555b5050565b6000828152600760205260408082209051633f5f77cd60e01b815260048101919091526024810183905273__$8c1a4844a0a0988ea2454cf87145a95df1$__90633f5f77cd90604401611856565b60405163034306e160e21b81526008600482015260609073__$8c1a4844a0a0988ea2454cf87145a95df1$__90630d0c1b849060240160006040518083038186803b15801561205c57600080fd5b505af4158015612070573d6000803e3d6000fd5b505050506040513d6000823e601f3d908101601f19168201604052610a019190810190613197565b73__$364aad554dc80380f414546becdd2c1584$__63a8ef95ac6005684174746f726e65797360b81b6120c961269e565b6040516001600160e01b031960e086901b1681526004810193909352602483019190915264ffffffffff16604482015260640160206040518083038186803b15801561211457600080fd5b505af4158015612128573d6000803e3d6000fd5b505050506040513d601f19601f8201168201806040525081019061214c919061307f565b6121685760405162461bcd60e51b8152600401610bcd9061336f565b6000828152600760205260409081902090516392fd02df60e01b815260048101919091526024810182905273__$8c1a4844a0a0988ea2454cf87145a95df1$__906392fd02df90604401611be8565b604051633f5f77cd60e01b8152600860048201526024810182905260009073__$8c1a4844a0a0988ea2454cf87145a95df1$__90633f5f77cd9060440160206040518083038186803b15801561220c57600080fd5b505af4158015612220573d6000803e3d6000fd5b505050506040513d601f19601f82011682018060405250810190610974919061307f565b61224d82612800565b612256816128af565b604051636cdd0edf60e11b815260056004820152602481018590526001600160a01b038416604482015273__$364aad554dc80380f414546becdd2c1584$__9063d9ba1dbe9060640160006040518083038186803b1580156122b757600080fd5b505af41580156122cb573d6000803e3d6000fd5b5050604080518781526001600160a01b038781166020830152868116828401528516606082015290517f3abb2418c66fe32ba9c883030a75ce583971d9af9192b9b74e44e67c5e6c8c1f9350908190036080019150a150505050565b604051633c3e56c160e11b81526005600482015260009073__$364aad554dc80380f414546becdd2c1584$__9063787cad829060240160206040518083038186803b15801561237557600080fd5b505af4158015612389573d6000803e3d6000fd5b505050506040513d601f19601f82011682018060405250810190610a01919061339c565b604051633b11adbf60e21b81526005600482015233602482015273__$364aad554dc80380f414546becdd2c1584$__9063ec46b6fc9060440160206040518083038186803b1580156123fe57600080fd5b505af4158015612412573d6000803e3d6000fd5b505050506040513d601f19601f82011682018060405250810190612436919061307f565b6124525760405162461bcd60e51b8152600401610bcd906132d3565b600554600160f01b900460ff166001146124ae5760405162461bcd60e51b815260206004820181905260248201527f41432e6f6e6c7950656e64696e673a20446f632069732066696e616c697a65646044820152606401610bcd565b60405163cc99e11b60e01b815260056004820152684174746f726e65797360b81b602482015273__$364aad554dc80380f414546becdd2c1584$__9063cc99e11b9060440160006040518083038186803b15801561250b57600080fd5b505af415801561251f573d6000803e3d6000fd5b5050604051632725ebef60e21b8152600560048201526000602482015273__$364aad554dc80380f414546becdd2c1584$__9250639c97afbc915060440160006040518083038186803b15801561257557600080fd5b505af4158015612589573d6000803e3d6000fd5b50506005805460ff60f01b1916600160f11b17905550506040517f35012b512309c322acf68632cd6cb702ff0e1d776fbe9394e38ffc13b434fe7590600090a1565b60015460405163e0ff5b8b60e01b8152600760048201526001600160a01b039091169063e0ff5b8b9060240160206040518083038186803b15801561260f57600080fd5b505afa158015612623573d6000803e3d6000fd5b505050506040513d601f19601f82011682018060405250810190612647919061339c565b600480546001600160a01b0319166001600160a01b03929092169182179055604080516007815260208101929092527f6aa5e483fe137161b095cd68564a336d1657057f57987b1ae21019134dbc8da29101611683565b60008054604051636ae3b70d60e11b81523360048201526001600160a01b039091169063d5c76e1a90602401602060405180830381600087803b1580156126e457600080fd5b505af11580156109dd573d6000803e3d6000fd5b60008363ffffffff168563ffffffff16116127555760405162461bcd60e51b815260206004820152601b60248201527f524f453a204e454741544956452073656c6c696e6720707269636500000000006044820152606401610bcd565b8165ffffffffffff168365ffffffffffff16116127b45760405162461bcd60e51b815260206004820152601c60248201527f524f453a204e4547415449564520686f6c64696e6720706572696f64000000006044820152606401610bcd565b60006127c08587613497565b905060006127ce84866134bc565b905080866127de846127106134db565b6127e89190613507565b6127f6906301e133806134db565b6110e99190613507565b6000546001600160a01b0316156128515760405162461bcd60e51b815260206004820152601560248201527430b63932b0b23c9039b2ba103932b3a1b2b73a32b960591b6044820152606401610bcd565b6040516001600160a01b03821681527f318da6c7624c71cbc0afe346c9d8827f119d0ecefb241a7b0c87217a076a8e029060200160405180910390a1600080546001600160a01b0319166001600160a01b0392909216919091179055565b6001546001600160a01b0316156129085760405162461bcd60e51b815260206004820152601960248201527f616c7265616479207365742067656e6572616c4b6565706572000000000000006044820152606401610bcd565b6040516001600160a01b03821681527fe513d3e0f0d0a3877029dcc588748679a7a3450ec1ec7ed56d96bd012c3e61aa9060200160405180910390a1600180546001600160a01b0319166001600160a01b0392909216919091179055565b50805460008255906000526020600020908101906115b191905b808211156129945760008155600101612980565b5090565b6001600160a01b03811681146115b157600080fd5b634e487b7160e01b600052604160045260246000fd5b60405160a0810167ffffffffffffffff811182821017156129e6576129e66129ad565b60405290565b6040516060810167ffffffffffffffff811182821017156129e6576129e66129ad565b604051610120810167ffffffffffffffff811182821017156129e6576129e66129ad565b6040805190810167ffffffffffffffff811182821017156129e6576129e66129ad565b60405160c0810167ffffffffffffffff811182821017156129e6576129e66129ad565b604051610140810167ffffffffffffffff811182821017156129e6576129e66129ad565b60ff811681146115b157600080fd5b8035612ab781612a9d565b919050565b61ffff811681146115b157600080fd5b8035612ab781612abc565b63ffffffff811681146115b157600080fd5b8035612ab781612ad7565b64ffffffffff811681146115b157600080fd5b8035612ab781612af4565b65ffffffffffff811681146115b157600080fd5b8035612ab781612b12565b67ffffffffffffffff811681146115b157600080fd5b600060a08284031215612b5957600080fd5b612b616129c3565b90508135612b6e81612af4565b81526020820135612b7e81612af4565b60208201526040820135612b9181612b31565b60408201526060820135612ba481612b31565b60608201526080820135612bb781612a9d565b608082015292915050565b60008183036101e0811215612bd657600080fd5b612bde6129ec565b915061012080821215612bf057600080fd5b612bf8612a0f565b9150612c0384612aac565b8252612c1160208501612acc565b6020830152612c2260408501612acc565b6040830152612c3360608501612acc565b6060830152612c4460808501612ae9565b6080830152612c5560a08501612b07565b60a0830152612c6660c08501612ae9565b60c0830152612c7760e08501612ae9565b60e0830152610100612c8a818601612b26565b90830152818352612c9d85858301612b47565b602084015250506101c0820135604082015292915050565b6000806102008385031215612cc957600080fd5b8235612cd481612998565b9150612ce38460208501612bc2565b90509250929050565b60008060408385031215612cff57600080fd5b50508035926020909101359150565b600060208284031215612d2057600080fd5b5035919050565b6020808252825182820181905260009190848201906040850190845b81811015612d5f57835183529284019291840191600101612d43565b50909695505050505050565b815161ffff16815261014081016020830151612d8c602084018260ff169052565b506040830151612da1604084018260ff169052565b506060830151612dba606084018264ffffffffff169052565b506080830151612dd3608084018264ffffffffff169052565b5060a0830151612de860a084018260ff169052565b5060c0830151612dfe60c084018261ffff169052565b5060e0830151612e1260e084018215159052565b506101008381015163ffffffff908116918401919091526101209384015116929091019190915290565b600060a08284031215612e4e57600080fd5b612e566129c3565b90508135612e6381612b12565b81526020820135612b7e81612b31565b600080600080848603610380811215612e8b57600080fd5b8535612e9681612998565b9450612ea58760208801612bc2565b93506101ff1901610160811215612ebb57600080fd5b612ec3612a33565b60c0821215612ed157600080fd5b612ed9612a56565b9150610200870135612eea81612ad7565b8252610220870135612efb81612ad7565b6020830152610240870135612f0f81612abc565b6040830152610260870135612f2381612b12565b6060830152610280870135612f3781612af4565b60808301526102a0870135612f4b81612ad7565b60a0830152818152612f61886102c08901612e3c565b602082015294979396509394610360013593505050565b600060208284031215612f8a57600080fd5b81356118a681612998565b60008060008060808587031215612fab57600080fd5b843593506020850135612fbd81612998565b92506040850135612fcd81612998565b91506060850135612fdd81612998565b939692955090935050565b8051612ab781612a9d565b60006080828403121561300557600080fd5b6040516080810181811067ffffffffffffffff82111715613028576130286129ad565b60405282518152602083015161303d81612b12565b6020820152604083015161305081612b12565b6040820152606083015161306381612a9d565b60608201529392505050565b80518015158114612ab757600080fd5b60006020828403121561309157600080fd5b6118a68261306f565b8051612ab781612af4565b6000602082840312156130b757600080fd5b81516118a681612af4565b8051612ab781612abc565b600080604083850312156130e057600080fd5b82516130eb81612af4565b60208401519092506130fc81612abc565b809150509250929050565b600082601f83011261311857600080fd5b8151602067ffffffffffffffff80831115613135576131356129ad565b8260051b604051601f19603f8301168101818110848211171561315a5761315a6129ad565b60405293845285810183019383810192508785111561317857600080fd5b83870191505b848210156110e95781518352918301919083019061317e565b6000602082840312156131a957600080fd5b815167ffffffffffffffff8111156131c057600080fd5b610d4184828501613107565b8051612ab781612ad7565b6000602082840312156131e957600080fd5b815167ffffffffffffffff8082111561320157600080fd5b908301906060828603121561321557600080fd5b61321d6129ec565b825161322881612ad7565b8152602083015161323881612b31565b602082015260408301518281111561324f57600080fd5b61325b87828601613107565b60408301525095945050505050565b600081518084526020808501945080840160005b8381101561329a5781518752958201959082019060010161327e565b509495945050505050565b6040815260006132b8604083018561326a565b82810360208401526132ca818561326a565b95945050505050565b60208082526026908201527f41432e6f6e6c794469726563744b65657065723a206e6f74206469726563742060408201526535b2b2b832b960d11b606082015260800190565b60208082526036908201527f41432e6f776e65724f72446972656374426f6f6b65657065723a206e6569746860408201527532b91037bbb732b9103737b9103137b7b5b2b2b832b960511b606082015260800190565b60208082526013908201527241432e6f743a206e6f74204174746f726e657960681b604082015260600190565b6000602082840312156133ae57600080fd5b81516118a681612998565b600061014082840312156133cc57600080fd5b6133d4612a79565b6133dd836130c2565b81526133eb60208401612fe8565b60208201526133fc60408401612fe8565b604082015261340d6060840161309a565b606082015261341e6080840161309a565b608082015261342f60a08401612fe8565b60a082015261344060c084016130c2565b60c082015261345160e0840161306f565b60e08201526101006134648185016131cc565b908201526101206134768482016131cc565b908201529392505050565b634e487b7160e01b600052601160045260246000fd5b600063ffffffff838116908316818110156134b4576134b4613481565b039392505050565b600065ffffffffffff838116908316818110156134b4576134b4613481565b600063ffffffff808316818516818304811182151516156134fe576134fe613481565b02949350505050565b600063ffffffff8084168061352c57634e487b7160e01b600052601260045260246000fd5b9216919091049291505056fea264697066735822122026f2a6cac3e4b8d3d33b7cdaf64858ceeec6d82f4c44146d3401933e8be41b7564736f6c63430008080033",
    "sourcePath": "/Users/kaptain/github.com/hardhat/comboox/contracts/books/boh/terms/TagAlong.sol",
    "compiler": {
        "name": "solc",
        "version": "0.8.8+commit.dddeac2f"
    },
    "functionHashes": {
        "abandonRole(bytes32)": "3da9a600",
        "addFollower(uint256,uint256)": "89c29dbb",
        "createLink(uint256,uint256)": "a186aabb",
        "dragers()": "b4a952b3",
        "finalized()": "b3f05b97",
        "followers(uint256)": "1abc901f",
        "getBookeeper()": "ed211023",
        "getGeneralCounsel()": "103f6edd",
        "getOwner()": "893d20e8",
        "grantRole(bytes32,uint256)": "1b6ea9f9",
        "hasRole(bytes32,uint256)": "7e063c5a",
        "init(uint256,address,address,address)": "dc890da9",
        "initBOA()": "5f73395e",
        "initBOG()": "68258858",
        "initROM()": "fa9e7934",
        "isDrager(uint256)": "d249176e",
        "isExempted(address,((uint8,uint16,uint16,uint16,uint32,uint40,uint32,uint32,uint48),(uint40,uint40,uint64,uint64,uint8),bytes32))": "237006e0",
        "isLinked(uint256,uint256)": "b097b857",
        "isTriggered(address,((uint8,uint16,uint16,uint16,uint32,uint40,uint32,uint32,uint48),(uint40,uint40,uint64,uint64,uint8),bytes32))": "06c4b208",
        "linkRule(uint256)": "1ce69d39",
        "lockContents()": "f045a769",
        "priceCheck(address,((uint8,uint16,uint16,uint16,uint32,uint40,uint32,uint32,uint48),(uint40,uint40,uint64,uint64,uint8),bytes32),((uint32,uint32,uint16,uint48,uint40,uint32),(uint48,uint64,uint64,uint64,uint8)),uint256)": "1e58c149",
        "removeDrager(uint256)": "52fae48a",
        "removeFollower(uint256,uint256)": "ca93c8fc",
        "renounceRole(bytes32)": "8bb9c5bf",
        "revokeRole(bytes32,uint256)": "19d61ad9",
        "setDirectKeeper(address)": "6be8496f",
        "setGeneralCounsel(uint256)": "4a14beb1",
        "setOwner(uint256)": "8041494e",
        "setRoleAdmin(bytes32,uint256)": "5171ebd4"
    },
    "gasEstimates": {
        "creation": {
            "codeDepositCost": "2735600",
            "executionCost": "2976",
            "totalCost": "2738576"
        },
        "external": {
            "abandonRole(bytes32)": "infinite",
            "addFollower(uint256,uint256)": "infinite",
            "createLink(uint256,uint256)": "infinite",
            "dragers()": "infinite",
            "finalized()": "2361",
            "followers(uint256)": "infinite",
            "getBookeeper()": "infinite",
            "getGeneralCounsel()": "infinite",
            "getOwner()": "infinite",
            "grantRole(bytes32,uint256)": "infinite",
            "hasRole(bytes32,uint256)": "infinite",
            "init(uint256,address,address,address)": "infinite",
            "initBOA()": "infinite",
            "initBOG()": "infinite",
            "initROM()": "infinite",
            "isDrager(uint256)": "infinite",
            "isExempted(address,((uint8,uint16,uint16,uint16,uint32,uint40,uint32,uint32,uint48),(uint40,uint40,uint64,uint64,uint8),bytes32))": "infinite",
            "isLinked(uint256,uint256)": "infinite",
            "isTriggered(address,((uint8,uint16,uint16,uint16,uint32,uint40,uint32,uint32,uint48),(uint40,uint40,uint64,uint64,uint8),bytes32))": "infinite",
            "linkRule(uint256)": "3695",
            "lockContents()": "infinite",
            "priceCheck(address,((uint8,uint16,uint16,uint16,uint32,uint40,uint32,uint32,uint48),(uint40,uint40,uint64,uint64,uint8),bytes32),((uint32,uint32,uint16,uint48,uint40,uint32),(uint48,uint64,uint64,uint64,uint8)),uint256)": "infinite",
            "removeDrager(uint256)": "infinite",
            "removeFollower(uint256,uint256)": "infinite",
            "renounceRole(bytes32)": "infinite",
            "revokeRole(bytes32,uint256)": "infinite",
            "setDirectKeeper(address)": "infinite",
            "setGeneralCounsel(uint256)": "infinite",
            "setOwner(uint256)": "infinite",
            "setRoleAdmin(bytes32,uint256)": "infinite"
        }
    }
}