{
    "contractName": "BookOfIA",
    "abi": [
        {
            "anonymous": false,
            "inputs": [
                {
                    "indexed": false,
                    "internalType": "address",
                    "name": "ia",
                    "type": "address"
                },
                {
                    "indexed": false,
                    "internalType": "uint256",
                    "name": "seqOfDeal",
                    "type": "uint256"
                }
            ],
            "name": "AcceptFirstRefusalClaims",
            "type": "event"
        },
        {
            "anonymous": false,
            "inputs": [
                {
                    "indexed": false,
                    "internalType": "address",
                    "name": "ia",
                    "type": "address"
                },
                {
                    "indexed": false,
                    "internalType": "uint256",
                    "name": "follower",
                    "type": "uint256"
                },
                {
                    "indexed": false,
                    "internalType": "uint256",
                    "name": "seqOfShare",
                    "type": "uint256"
                },
                {
                    "indexed": false,
                    "internalType": "uint64",
                    "name": "amount",
                    "type": "uint64"
                }
            ],
            "name": "AddAlongDeal",
            "type": "event"
        },
        {
            "anonymous": false,
            "inputs": [
                {
                    "indexed": false,
                    "internalType": "address",
                    "name": "ia",
                    "type": "address"
                },
                {
                    "indexed": false,
                    "internalType": "bool",
                    "name": "dragAlong",
                    "type": "bool"
                },
                {
                    "indexed": false,
                    "internalType": "uint256",
                    "name": "seqOfDeal",
                    "type": "uint256"
                },
                {
                    "indexed": false,
                    "internalType": "uint256",
                    "name": "seqOfShare",
                    "type": "uint256"
                },
                {
                    "indexed": false,
                    "internalType": "uint64",
                    "name": "paid",
                    "type": "uint64"
                },
                {
                    "indexed": false,
                    "internalType": "uint64",
                    "name": "par",
                    "type": "uint64"
                },
                {
                    "indexed": false,
                    "internalType": "uint256",
                    "name": "claimer",
                    "type": "uint256"
                },
                {
                    "indexed": false,
                    "internalType": "bytes32",
                    "name": "sigHash",
                    "type": "bytes32"
                }
            ],
            "name": "ExecAlongRight",
            "type": "event"
        },
        {
            "anonymous": false,
            "inputs": [
                {
                    "indexed": false,
                    "internalType": "address",
                    "name": "ia",
                    "type": "address"
                },
                {
                    "indexed": false,
                    "internalType": "uint256",
                    "name": "seqOfDeal",
                    "type": "uint256"
                },
                {
                    "indexed": false,
                    "internalType": "uint256",
                    "name": "caller",
                    "type": "uint256"
                }
            ],
            "name": "ExecFirstRefusalRight",
            "type": "event"
        },
        {
            "anonymous": false,
            "inputs": [
                {
                    "indexed": false,
                    "internalType": "uint256",
                    "name": "owner",
                    "type": "uint256"
                },
                {
                    "indexed": false,
                    "internalType": "address",
                    "name": "directKeeper",
                    "type": "address"
                },
                {
                    "indexed": false,
                    "internalType": "address",
                    "name": "regCenter",
                    "type": "address"
                },
                {
                    "indexed": false,
                    "internalType": "address",
                    "name": "generalKeeper",
                    "type": "address"
                }
            ],
            "name": "Init",
            "type": "event"
        },
        {
            "anonymous": false,
            "inputs": [],
            "name": "LockContents",
            "type": "event"
        },
        {
            "anonymous": false,
            "inputs": [
                {
                    "indexed": false,
                    "internalType": "uint256",
                    "name": "title",
                    "type": "uint256"
                },
                {
                    "indexed": false,
                    "internalType": "address",
                    "name": "book",
                    "type": "address"
                }
            ],
            "name": "SetBookRuting",
            "type": "event"
        },
        {
            "anonymous": false,
            "inputs": [
                {
                    "indexed": false,
                    "internalType": "address",
                    "name": "keeper",
                    "type": "address"
                }
            ],
            "name": "SetDirectKeeper",
            "type": "event"
        },
        {
            "anonymous": false,
            "inputs": [
                {
                    "indexed": false,
                    "internalType": "uint256",
                    "name": "acct",
                    "type": "uint256"
                }
            ],
            "name": "SetGeneralCounsel",
            "type": "event"
        },
        {
            "anonymous": false,
            "inputs": [
                {
                    "indexed": false,
                    "internalType": "address",
                    "name": "gk",
                    "type": "address"
                }
            ],
            "name": "SetGeneralKeeper",
            "type": "event"
        },
        {
            "anonymous": false,
            "inputs": [
                {
                    "indexed": false,
                    "internalType": "uint256",
                    "name": "acct",
                    "type": "uint256"
                }
            ],
            "name": "SetOwner",
            "type": "event"
        },
        {
            "anonymous": false,
            "inputs": [
                {
                    "indexed": false,
                    "internalType": "address",
                    "name": "rc",
                    "type": "address"
                }
            ],
            "name": "SetRegCenter",
            "type": "event"
        },
        {
            "anonymous": false,
            "inputs": [
                {
                    "indexed": true,
                    "internalType": "address",
                    "name": "body",
                    "type": "address"
                },
                {
                    "indexed": false,
                    "internalType": "uint8",
                    "name": "state",
                    "type": "uint8"
                }
            ],
            "name": "UpdateStateOfFile",
            "type": "event"
        },
        {
            "inputs": [
                {
                    "internalType": "bytes32",
                    "name": "role",
                    "type": "bytes32"
                }
            ],
            "name": "abandonRole",
            "outputs": [],
            "stateMutability": "nonpayable",
            "type": "function"
        },
        {
            "inputs": [
                {
                    "internalType": "address",
                    "name": "ia",
                    "type": "address"
                },
                {
                    "internalType": "uint256",
                    "name": "seqOfDeal",
                    "type": "uint256"
                }
            ],
            "name": "acceptFirstRefusalClaims",
            "outputs": [
                {
                    "components": [
                        {
                            "internalType": "uint16",
                            "name": "seqOfDeal",
                            "type": "uint16"
                        },
                        {
                            "internalType": "uint40",
                            "name": "rightholder",
                            "type": "uint40"
                        },
                        {
                            "internalType": "uint64",
                            "name": "weight",
                            "type": "uint64"
                        },
                        {
                            "internalType": "uint64",
                            "name": "ratio",
                            "type": "uint64"
                        },
                        {
                            "internalType": "uint48",
                            "name": "sigDate",
                            "type": "uint48"
                        },
                        {
                            "internalType": "bytes32",
                            "name": "sigHash",
                            "type": "bytes32"
                        }
                    ],
                    "internalType": "struct FRClaims.Claim[]",
                    "name": "output",
                    "type": "tuple[]"
                }
            ],
            "stateMutability": "nonpayable",
            "type": "function"
        },
        {
            "inputs": [
                {
                    "internalType": "address",
                    "name": "body",
                    "type": "address"
                },
                {
                    "components": [
                        {
                            "internalType": "uint16",
                            "name": "seq",
                            "type": "uint16"
                        },
                        {
                            "internalType": "uint8",
                            "name": "qtyOfSubRule",
                            "type": "uint8"
                        },
                        {
                            "internalType": "uint8",
                            "name": "seqOfSubRule",
                            "type": "uint8"
                        },
                        {
                            "internalType": "uint8",
                            "name": "authority",
                            "type": "uint8"
                        },
                        {
                            "internalType": "uint16",
                            "name": "headRatio",
                            "type": "uint16"
                        },
                        {
                            "internalType": "uint16",
                            "name": "amountRatio",
                            "type": "uint16"
                        },
                        {
                            "internalType": "bool",
                            "name": "onlyAttendance",
                            "type": "bool"
                        },
                        {
                            "internalType": "bool",
                            "name": "impliedConsent",
                            "type": "bool"
                        },
                        {
                            "internalType": "bool",
                            "name": "partyAsConsent",
                            "type": "bool"
                        },
                        {
                            "internalType": "bool",
                            "name": "againstShallBuy",
                            "type": "bool"
                        },
                        {
                            "internalType": "uint8",
                            "name": "shaExecDays",
                            "type": "uint8"
                        },
                        {
                            "internalType": "uint8",
                            "name": "reviewDays",
                            "type": "uint8"
                        },
                        {
                            "internalType": "uint8",
                            "name": "votingDays",
                            "type": "uint8"
                        },
                        {
                            "internalType": "uint8",
                            "name": "execDaysForPutOpt",
                            "type": "uint8"
                        },
                        {
                            "internalType": "uint40[3]",
                            "name": "vetoers",
                            "type": "uint40[3]"
                        }
                    ],
                    "internalType": "struct RulesParser.VotingRule",
                    "name": "vr",
                    "type": "tuple"
                },
                {
                    "internalType": "bytes32",
                    "name": "docUrl",
                    "type": "bytes32"
                },
                {
                    "internalType": "bytes32",
                    "name": "docHash",
                    "type": "bytes32"
                }
            ],
            "name": "circulateDoc",
            "outputs": [],
            "stateMutability": "nonpayable",
            "type": "function"
        },
        {
            "inputs": [
                {
                    "internalType": "address",
                    "name": "ia",
                    "type": "address"
                },
                {
                    "internalType": "bytes32",
                    "name": "docUrl",
                    "type": "bytes32"
                },
                {
                    "internalType": "bytes32",
                    "name": "docHash",
                    "type": "bytes32"
                }
            ],
            "name": "circulateIA",
            "outputs": [],
            "stateMutability": "nonpayable",
            "type": "function"
        },
        {
            "inputs": [
                {
                    "internalType": "address",
                    "name": "ia",
                    "type": "address"
                },
                {
                    "internalType": "uint256",
                    "name": "seqOfDeal",
                    "type": "uint256"
                }
            ],
            "name": "claimsOfFR",
            "outputs": [
                {
                    "components": [
                        {
                            "internalType": "uint16",
                            "name": "seqOfDeal",
                            "type": "uint16"
                        },
                        {
                            "internalType": "uint40",
                            "name": "rightholder",
                            "type": "uint40"
                        },
                        {
                            "internalType": "uint64",
                            "name": "weight",
                            "type": "uint64"
                        },
                        {
                            "internalType": "uint64",
                            "name": "ratio",
                            "type": "uint64"
                        },
                        {
                            "internalType": "uint48",
                            "name": "sigDate",
                            "type": "uint48"
                        },
                        {
                            "internalType": "bytes32",
                            "name": "sigHash",
                            "type": "bytes32"
                        }
                    ],
                    "internalType": "struct FRClaims.Claim[]",
                    "name": "",
                    "type": "tuple[]"
                }
            ],
            "stateMutability": "view",
            "type": "function"
        },
        {
            "inputs": [
                {
                    "internalType": "uint16",
                    "name": "typeOfDoc",
                    "type": "uint16"
                },
                {
                    "internalType": "uint16",
                    "name": "version",
                    "type": "uint16"
                },
                {
                    "internalType": "uint40",
                    "name": "creator",
                    "type": "uint40"
                }
            ],
            "name": "createDoc",
            "outputs": [
                {
                    "internalType": "address",
                    "name": "body",
                    "type": "address"
                }
            ],
            "stateMutability": "nonpayable",
            "type": "function"
        },
        {
            "inputs": [
                {
                    "internalType": "address",
                    "name": "ia",
                    "type": "address"
                }
            ],
            "name": "createMockOfIA",
            "outputs": [
                {
                    "internalType": "bool",
                    "name": "",
                    "type": "bool"
                }
            ],
            "stateMutability": "nonpayable",
            "type": "function"
        },
        {
            "inputs": [
                {
                    "internalType": "address",
                    "name": "ia",
                    "type": "address"
                },
                {
                    "internalType": "bool",
                    "name": "dragAlong",
                    "type": "bool"
                },
                {
                    "internalType": "uint256",
                    "name": "seqOfDeal",
                    "type": "uint256"
                },
                {
                    "internalType": "uint256",
                    "name": "seqOfShare",
                    "type": "uint256"
                },
                {
                    "internalType": "uint64",
                    "name": "paid",
                    "type": "uint64"
                },
                {
                    "internalType": "uint64",
                    "name": "par",
                    "type": "uint64"
                },
                {
                    "internalType": "uint256",
                    "name": "caller",
                    "type": "uint256"
                },
                {
                    "internalType": "bytes32",
                    "name": "sigHash",
                    "type": "bytes32"
                }
            ],
            "name": "execAlongRight",
            "outputs": [],
            "stateMutability": "nonpayable",
            "type": "function"
        },
        {
            "inputs": [
                {
                    "internalType": "address",
                    "name": "ia",
                    "type": "address"
                },
                {
                    "internalType": "uint256",
                    "name": "seqOfDeal",
                    "type": "uint256"
                },
                {
                    "internalType": "uint256",
                    "name": "caller",
                    "type": "uint256"
                },
                {
                    "internalType": "bytes32",
                    "name": "sigHash",
                    "type": "bytes32"
                }
            ],
            "name": "execFirstRefusalRight",
            "outputs": [
                {
                    "internalType": "bool",
                    "name": "flag",
                    "type": "bool"
                }
            ],
            "stateMutability": "nonpayable",
            "type": "function"
        },
        {
            "inputs": [],
            "name": "filesList",
            "outputs": [
                {
                    "internalType": "address[]",
                    "name": "",
                    "type": "address[]"
                }
            ],
            "stateMutability": "view",
            "type": "function"
        },
        {
            "inputs": [],
            "name": "finalized",
            "outputs": [
                {
                    "internalType": "bool",
                    "name": "",
                    "type": "bool"
                }
            ],
            "stateMutability": "view",
            "type": "function"
        },
        {
            "inputs": [],
            "name": "getBookeeper",
            "outputs": [
                {
                    "internalType": "address",
                    "name": "",
                    "type": "address"
                }
            ],
            "stateMutability": "view",
            "type": "function"
        },
        {
            "inputs": [
                {
                    "internalType": "address",
                    "name": "ia",
                    "type": "address"
                },
                {
                    "internalType": "uint256",
                    "name": "seqOfDeal",
                    "type": "uint256"
                },
                {
                    "internalType": "uint256",
                    "name": "seqOfShare",
                    "type": "uint256"
                }
            ],
            "name": "getDTClaimForShare",
            "outputs": [
                {
                    "components": [
                        {
                            "internalType": "uint8",
                            "name": "typeOfClaim",
                            "type": "uint8"
                        },
                        {
                            "internalType": "uint32",
                            "name": "seqOfShare",
                            "type": "uint32"
                        },
                        {
                            "internalType": "uint64",
                            "name": "paid",
                            "type": "uint64"
                        },
                        {
                            "internalType": "uint64",
                            "name": "par",
                            "type": "uint64"
                        },
                        {
                            "internalType": "uint40",
                            "name": "claimer",
                            "type": "uint40"
                        },
                        {
                            "internalType": "uint48",
                            "name": "sigDate",
                            "type": "uint48"
                        },
                        {
                            "internalType": "bytes32",
                            "name": "sigHash",
                            "type": "bytes32"
                        }
                    ],
                    "internalType": "struct DTClaims.Claim",
                    "name": "",
                    "type": "tuple"
                }
            ],
            "stateMutability": "view",
            "type": "function"
        },
        {
            "inputs": [
                {
                    "internalType": "address",
                    "name": "ia",
                    "type": "address"
                },
                {
                    "internalType": "uint256",
                    "name": "seqOfDeal",
                    "type": "uint256"
                }
            ],
            "name": "getDTClaimsForDeal",
            "outputs": [
                {
                    "components": [
                        {
                            "internalType": "uint8",
                            "name": "typeOfClaim",
                            "type": "uint8"
                        },
                        {
                            "internalType": "uint32",
                            "name": "seqOfShare",
                            "type": "uint32"
                        },
                        {
                            "internalType": "uint64",
                            "name": "paid",
                            "type": "uint64"
                        },
                        {
                            "internalType": "uint64",
                            "name": "par",
                            "type": "uint64"
                        },
                        {
                            "internalType": "uint40",
                            "name": "claimer",
                            "type": "uint40"
                        },
                        {
                            "internalType": "uint48",
                            "name": "sigDate",
                            "type": "uint48"
                        },
                        {
                            "internalType": "bytes32",
                            "name": "sigHash",
                            "type": "bytes32"
                        }
                    ],
                    "internalType": "struct DTClaims.Claim[]",
                    "name": "",
                    "type": "tuple[]"
                }
            ],
            "stateMutability": "view",
            "type": "function"
        },
        {
            "inputs": [
                {
                    "internalType": "address",
                    "name": "ia",
                    "type": "address"
                }
            ],
            "name": "getDraggingDeals",
            "outputs": [
                {
                    "internalType": "uint256[]",
                    "name": "",
                    "type": "uint256[]"
                }
            ],
            "stateMutability": "view",
            "type": "function"
        },
        {
            "inputs": [],
            "name": "getGeneralCounsel",
            "outputs": [
                {
                    "internalType": "uint40",
                    "name": "",
                    "type": "uint40"
                }
            ],
            "stateMutability": "view",
            "type": "function"
        },
        {
            "inputs": [
                {
                    "internalType": "address",
                    "name": "body",
                    "type": "address"
                }
            ],
            "name": "getHeadOfFile",
            "outputs": [
                {
                    "components": [
                        {
                            "internalType": "uint256",
                            "name": "snOfDoc",
                            "type": "uint256"
                        },
                        {
                            "internalType": "uint48",
                            "name": "shaExecDeadline",
                            "type": "uint48"
                        },
                        {
                            "internalType": "uint48",
                            "name": "proposeDeadline",
                            "type": "uint48"
                        },
                        {
                            "internalType": "uint8",
                            "name": "state",
                            "type": "uint8"
                        }
                    ],
                    "internalType": "struct IFilesFolder.Head",
                    "name": "head",
                    "type": "tuple"
                }
            ],
            "stateMutability": "view",
            "type": "function"
        },
        {
            "inputs": [],
            "name": "getOwner",
            "outputs": [
                {
                    "internalType": "uint40",
                    "name": "",
                    "type": "uint40"
                }
            ],
            "stateMutability": "view",
            "type": "function"
        },
        {
            "inputs": [
                {
                    "internalType": "address",
                    "name": "body",
                    "type": "address"
                }
            ],
            "name": "getRefOfFile",
            "outputs": [
                {
                    "components": [
                        {
                            "internalType": "bytes32",
                            "name": "docUrl",
                            "type": "bytes32"
                        },
                        {
                            "internalType": "bytes32",
                            "name": "docHash",
                            "type": "bytes32"
                        }
                    ],
                    "internalType": "struct IFilesFolder.Ref",
                    "name": "ref",
                    "type": "tuple"
                }
            ],
            "stateMutability": "view",
            "type": "function"
        },
        {
            "inputs": [
                {
                    "internalType": "bytes32",
                    "name": "role",
                    "type": "bytes32"
                },
                {
                    "internalType": "uint256",
                    "name": "acct",
                    "type": "uint256"
                }
            ],
            "name": "grantRole",
            "outputs": [],
            "stateMutability": "nonpayable",
            "type": "function"
        },
        {
            "inputs": [
                {
                    "internalType": "address",
                    "name": "ia",
                    "type": "address"
                },
                {
                    "internalType": "uint256",
                    "name": "seqOfDeal",
                    "type": "uint256"
                }
            ],
            "name": "hasDTClaims",
            "outputs": [
                {
                    "internalType": "bool",
                    "name": "",
                    "type": "bool"
                }
            ],
            "stateMutability": "view",
            "type": "function"
        },
        {
            "inputs": [
                {
                    "internalType": "bytes32",
                    "name": "role",
                    "type": "bytes32"
                },
                {
                    "internalType": "uint256",
                    "name": "acct",
                    "type": "uint256"
                }
            ],
            "name": "hasRole",
            "outputs": [
                {
                    "internalType": "bool",
                    "name": "",
                    "type": "bool"
                }
            ],
            "stateMutability": "view",
            "type": "function"
        },
        {
            "inputs": [
                {
                    "internalType": "uint256",
                    "name": "owner",
                    "type": "uint256"
                },
                {
                    "internalType": "address",
                    "name": "directKeeper",
                    "type": "address"
                },
                {
                    "internalType": "address",
                    "name": "regCenter",
                    "type": "address"
                },
                {
                    "internalType": "address",
                    "name": "generalKeeper",
                    "type": "address"
                }
            ],
            "name": "init",
            "outputs": [],
            "stateMutability": "nonpayable",
            "type": "function"
        },
        {
            "inputs": [],
            "name": "initBOH",
            "outputs": [],
            "stateMutability": "nonpayable",
            "type": "function"
        },
        {
            "inputs": [],
            "name": "initBOS",
            "outputs": [],
            "stateMutability": "nonpayable",
            "type": "function"
        },
        {
            "inputs": [],
            "name": "initROM",
            "outputs": [],
            "stateMutability": "nonpayable",
            "type": "function"
        },
        {
            "inputs": [
                {
                    "internalType": "address",
                    "name": "ia",
                    "type": "address"
                },
                {
                    "internalType": "uint256",
                    "name": "acct",
                    "type": "uint256"
                }
            ],
            "name": "isFRClaimer",
            "outputs": [
                {
                    "internalType": "bool",
                    "name": "",
                    "type": "bool"
                }
            ],
            "stateMutability": "view",
            "type": "function"
        },
        {
            "inputs": [
                {
                    "internalType": "address",
                    "name": "body",
                    "type": "address"
                }
            ],
            "name": "isRegistered",
            "outputs": [
                {
                    "internalType": "bool",
                    "name": "",
                    "type": "bool"
                }
            ],
            "stateMutability": "view",
            "type": "function"
        },
        {
            "inputs": [],
            "name": "lockContents",
            "outputs": [],
            "stateMutability": "nonpayable",
            "type": "function"
        },
        {
            "inputs": [
                {
                    "internalType": "address",
                    "name": "ia",
                    "type": "address"
                },
                {
                    "internalType": "uint40",
                    "name": "buyer",
                    "type": "uint40"
                },
                {
                    "internalType": "uint40",
                    "name": "groupRep",
                    "type": "uint40"
                },
                {
                    "internalType": "uint64",
                    "name": "amount",
                    "type": "uint64"
                }
            ],
            "name": "mockDealOfBuy",
            "outputs": [
                {
                    "internalType": "bool",
                    "name": "flag",
                    "type": "bool"
                }
            ],
            "stateMutability": "nonpayable",
            "type": "function"
        },
        {
            "inputs": [
                {
                    "internalType": "address",
                    "name": "ia",
                    "type": "address"
                },
                {
                    "internalType": "uint40",
                    "name": "seller",
                    "type": "uint40"
                },
                {
                    "internalType": "uint64",
                    "name": "amount",
                    "type": "uint64"
                }
            ],
            "name": "mockDealOfSell",
            "outputs": [
                {
                    "internalType": "bool",
                    "name": "flag",
                    "type": "bool"
                }
            ],
            "stateMutability": "nonpayable",
            "type": "function"
        },
        {
            "inputs": [
                {
                    "internalType": "address",
                    "name": "ia",
                    "type": "address"
                },
                {
                    "internalType": "uint256",
                    "name": "acct",
                    "type": "uint256"
                }
            ],
            "name": "mockResultsOfAcct",
            "outputs": [
                {
                    "internalType": "uint40",
                    "name": "groupRep",
                    "type": "uint40"
                },
                {
                    "internalType": "uint16",
                    "name": "ratio",
                    "type": "uint16"
                }
            ],
            "stateMutability": "view",
            "type": "function"
        },
        {
            "inputs": [
                {
                    "internalType": "address",
                    "name": "ia",
                    "type": "address"
                }
            ],
            "name": "mockResultsOfIA",
            "outputs": [
                {
                    "internalType": "uint40",
                    "name": "controllor",
                    "type": "uint40"
                },
                {
                    "internalType": "uint16",
                    "name": "ratio",
                    "type": "uint16"
                }
            ],
            "stateMutability": "view",
            "type": "function"
        },
        {
            "inputs": [],
            "name": "qtyOfFiles",
            "outputs": [
                {
                    "internalType": "uint256",
                    "name": "",
                    "type": "uint256"
                }
            ],
            "stateMutability": "view",
            "type": "function"
        },
        {
            "inputs": [
                {
                    "internalType": "bytes32",
                    "name": "role",
                    "type": "bytes32"
                }
            ],
            "name": "renounceRole",
            "outputs": [],
            "stateMutability": "nonpayable",
            "type": "function"
        },
        {
            "inputs": [
                {
                    "internalType": "bytes32",
                    "name": "role",
                    "type": "bytes32"
                },
                {
                    "internalType": "uint256",
                    "name": "acct",
                    "type": "uint256"
                }
            ],
            "name": "revokeRole",
            "outputs": [],
            "stateMutability": "nonpayable",
            "type": "function"
        },
        {
            "inputs": [
                {
                    "internalType": "address",
                    "name": "keeper",
                    "type": "address"
                }
            ],
            "name": "setDirectKeeper",
            "outputs": [],
            "stateMutability": "nonpayable",
            "type": "function"
        },
        {
            "inputs": [
                {
                    "internalType": "uint256",
                    "name": "acct",
                    "type": "uint256"
                }
            ],
            "name": "setGeneralCounsel",
            "outputs": [],
            "stateMutability": "nonpayable",
            "type": "function"
        },
        {
            "inputs": [
                {
                    "internalType": "uint256",
                    "name": "acct",
                    "type": "uint256"
                }
            ],
            "name": "setOwner",
            "outputs": [],
            "stateMutability": "nonpayable",
            "type": "function"
        },
        {
            "inputs": [
                {
                    "internalType": "bytes32",
                    "name": "role",
                    "type": "bytes32"
                },
                {
                    "internalType": "uint256",
                    "name": "acct",
                    "type": "uint256"
                }
            ],
            "name": "setRoleAdmin",
            "outputs": [],
            "stateMutability": "nonpayable",
            "type": "function"
        },
        {
            "inputs": [
                {
                    "internalType": "address",
                    "name": "body",
                    "type": "address"
                },
                {
                    "internalType": "uint8",
                    "name": "state",
                    "type": "uint8"
                }
            ],
            "name": "setStateOfFile",
            "outputs": [],
            "stateMutability": "nonpayable",
            "type": "function"
        }
    ],
    "bytecode": "608060405234801561001057600080fd5b5061470b806100206000396000f3fe608060405234801561001057600080fd5b50600436106102535760003560e01c80638506c43f11610146578063c337eee3116100c3578063e0b6888d11610087578063e0b6888d146106c8578063ed211023146106db578063f045a769146106fb578063f15e645214610703578063fa9e793414610716578063fb255fcd1461071e57600080fd5b8063c337eee31461065c578063c3c5a5471461067c578063d9ee0f581461068f578063dc890da9146106a2578063deb57175146106b557600080fd5b80638fefe1cd1161010a5780638fefe1cd146105e95780639cf90506146105fe5780639ee4ad4e1461061e578063a0b7b8a714610634578063b3f05b971461064757600080fd5b80638506c43f1461056b578063893d20e81461057e5780638bb9c5bf146105865780638c32f23d146105995780638f6b6587146105ac57600080fd5b80634a14beb1116101d457806362ce0a281161019857806362ce0a28146104d45780636be8496f146104dc5780636e0cdd3a146104ef5780637e063c5a146105455780638041494e1461055857600080fd5b80634a14beb11461043a578063511b707d1461044d5780635171ebd41461046057806358598c35146104735780635f3bd6df146104a157600080fd5b806322ea18151161021b57806322ea1815146103d957806325cbca63146103f95780632e050d761461040157806332277b11146104145780633da9a6001461042757600080fd5b80630fc89eeb14610258578063103f6edd1461037057806310ba4e521461038e57806319d61ad9146103b15780631b6ea9f9146103c6575b600080fd5b61035a6102663660046135cf565b6040805160e081018252600080825260208201819052918101829052606081018290526080810182905260a0810182905260c0810191909152506001600160a01b03929092166000908152600b60209081526040808320938352928152828220600283528152828220938252928352819020815160e081018352815460ff81168252610100810463ffffffff16948201949094526501000000000084046001600160401b0390811693820193909352600160681b84049092166060830152600160a81b830464ffffffffff166080830152600160d01b90920465ffffffffffff1660a082015260019091015460c082015290565b604051610367919061366f565b60405180910390f35b610378610731565b60405164ffffffffff9091168152602001610367565b6103a161039c36600461367d565b6107bd565b6040519015158152602001610367565b6103c46103bf3660046136a9565b61086c565b005b6103c46103d43660046136a9565b610900565b6103ec6103e736600461367d565b610925565b60405161036791906136cb565b6103c46109d3565b6103a161040f36600461378c565b610aac565b6103a16104223660046137e8565b610c17565b6103c461043536600461380c565b610cc0565b6103c461044836600461380c565b610dd2565b6103c461045b36600461383f565b610fc2565b6103c461046e3660046136a9565b611185565b6104866104813660046137e8565b6111aa565b60408051825181526020928301519281019290925201610367565b6104b46104af36600461367d565b6112a3565b6040805164ffffffffff909316835261ffff909116602083015201610367565b6103c4611472565b6103c46104ea3660046137e8565b611545565b6105026104fd3660046137e8565b6115f7565b604080518251815260208084015165ffffffffffff9081169183019190915283830151169181019190915260609182015160ff1691810191909152608001610367565b6103a16105533660046136a9565b61172d565b6103c461056636600461380c565b611776565b6103c46105793660046135cf565b61195b565b610378611b92565b6103c461059436600461380c565b611bcd565b6103c46105a73660046139da565b611c26565b6103a16105ba36600461367d565b6001600160a01b03919091166000908152600a6020908152604080832093835260019093019052205460ff1690565b6105f1611e70565b6040516103679190613b3d565b61061161060c3660046137e8565b611efa565b6040516103679190613b8a565b610626611fa0565b604051908152602001610367565b6103ec61064236600461367d565b612026565b600554600160f01b900460ff166002146103a1565b61066f61066a36600461367d565b612164565b6040516103679190613bc2565b6103a161068a3660046137e8565b612264565b6103c461069d366004613c04565b6122f9565b6103c46106b0366004613c87565b612505565b6104b46106c33660046137e8565b6125e8565b6103a16106d6366004613ccf565b6127ae565b6106e3612907565b6040516001600160a01b039091168152602001610367565b6103c461298d565b6106e3610711366004613d1a565b612bab565b6103c4612dfd565b6103a161072c366004613d5a565b612ed0565b60405163e8c0cc1d60e01b81526005600482015260009073__$364aad554dc80380f414546becdd2c1584$__9063e8c0cc1d906024015b60206040518083038186803b15801561078057600080fd5b505af4158015610794573d6000803e3d6000fd5b505050506040513d601f19601f820116820180604052508101906107b89190613d95565b905090565b6001600160a01b0382166000908152600b60205260408082209051633f5f77cd60e01b8152600190910160048201526024810183905273__$8c1a4844a0a0988ea2454cf87145a95df1$__90633f5f77cd906044015b60206040518083038186803b15801561082b57600080fd5b505af415801561083f573d6000803e3d6000fd5b505050506040513d601f19601f820116820180604052508101906108639190613dbd565b90505b92915050565b73__$364aad554dc80380f414546becdd2c1584$__6382daafaa6005846108916130e9565b6040516001600160e01b031960e086901b1681526004810193909352602483019190915264ffffffffff166044820152606481018490526084015b60006040518083038186803b1580156108e457600080fd5b505af41580156108f8573d6000803e3d6000fd5b505050505050565b73__$364aad554dc80380f414546becdd2c1584$__636320d75e6005846108916130e9565b6001600160a01b0382166000908152600a602052604090819020905162066d7160e01b815260609173__$07942fe0769ef09db064459acc9c3554b6$__9162066d719161097f918690600401918252602082015260400190565b60006040518083038186803b15801561099757600080fd5b505af41580156109ab573d6000803e3d6000fd5b505050506040513d6000823e601f3d908101601f191682016040526108639190810190613e1e565b60015460405163e0ff5b8b60e01b8152600360048201526001600160a01b039091169063e0ff5b8b9060240160206040518083038186803b158015610a1757600080fd5b505afa158015610a2b573d6000803e3d6000fd5b505050506040513d601f19601f82011682018060405250810190610a4f9190613f29565b600280546001600160a01b0319166001600160a01b03929092169182179055604080516003815260208101929092527f6aa5e483fe137161b095cd68564a336d1657057f57987b1ae21019134dbc8da291015b60405180910390a1565b6001546040516335d2155560e11b81523360048201526000916001600160a01b031690636ba42aaa9060240160206040518083038186803b158015610af057600080fd5b505afa158015610b04573d6000803e3d6000fd5b505050506040513d601f19601f82011682018060405250810190610b289190613dbd565b610b4d5760405162461bcd60e51b8152600401610b4490613f46565b60405180910390fd5b6001600160a01b0385166000908152600c6020526040908190209051630620854960e41b8152600481019190915264ffffffffff8086166024830152841660448201526001600160401b038316606482015273__$0373da85302df7c003c5cc5214782e6132$__9063620854909060840160206040518083038186803b158015610bd657600080fd5b505af4158015610bea573d6000803e3d6000fd5b505050506040513d601f19601f82011682018060405250810190610c0e9190613dbd565b95945050505050565b6001546040516335d2155560e11b81523360048201526000916001600160a01b031690636ba42aaa9060240160206040518083038186803b158015610c5b57600080fd5b505afa158015610c6f573d6000803e3d6000fd5b505050506040513d601f19601f82011682018060405250810190610c939190613dbd565b610caf5760405162461bcd60e51b8152600401610b4490613f46565b610cb882613143565b90505b919050565b604051633b11adbf60e21b81526005600482015233602482015273__$364aad554dc80380f414546becdd2c1584$__9063ec46b6fc9060440160206040518083038186803b158015610d1157600080fd5b505af4158015610d25573d6000803e3d6000fd5b505050506040513d601f19601f82011682018060405250810190610d499190613dbd565b610d655760405162461bcd60e51b8152600401610b4490613f71565b60405163cc99e11b60e01b8152600560048201526024810182905273__$364aad554dc80380f414546becdd2c1584$__9063cc99e11b9060440160006040518083038186803b158015610db757600080fd5b505af4158015610dcb573d6000803e3d6000fd5b5050505050565b604051633b11adbf60e21b81526005600482015233602482015273__$364aad554dc80380f414546becdd2c1584$__9063ec46b6fc9060440160206040518083038186803b158015610e2357600080fd5b505af4158015610e37573d6000803e3d6000fd5b505050506040513d601f19601f82011682018060405250810190610e5b9190613dbd565b80610f00575073__$364aad554dc80380f414546becdd2c1584$__63fe2710866005610e856130e9565b6040516001600160e01b031960e085901b168152600481019290925264ffffffffff16602482015260440160206040518083038186803b158015610ec857600080fd5b505af4158015610edc573d6000803e3d6000fd5b505050506040513d601f19601f82011682018060405250810190610f009190613dbd565b610f1c5760405162461bcd60e51b8152600401610b4490613fb7565b604051632725ebef60e21b8152600560048201526024810182905273__$364aad554dc80380f414546becdd2c1584$__90639c97afbc9060440160006040518083038186803b158015610f6e57600080fd5b505af4158015610f82573d6000803e3d6000fd5b505050507ff2735f34b69be1e6342dea95f9162f84d0db925fab655ca9f1f312ac8cbfc99d81604051610fb791815260200190565b60405180910390a150565b60405163f698b0f160e01b8152600860048201526001600160a01b0383166024820152829073__$8c1a4844a0a0988ea2454cf87145a95df1$__9063f698b0f19060440160206040518083038186803b15801561101e57600080fd5b505af4158015611032573d6000803e3d6000fd5b505050506040513d601f19601f820116820180604052508101906110569190613dbd565b6110725760405162461bcd60e51b8152600401610b449061400d565b6001546040516335d2155560e11b81523360048201526001600160a01b0390911690636ba42aaa9060240160206040518083038186803b1580156110b557600080fd5b505afa1580156110c9573d6000803e3d6000fd5b505050506040513d601f19601f820116820180604052508101906110ed9190613dbd565b6111095760405162461bcd60e51b8152600401610b4490613f46565b60405160ff831681526001600160a01b038416907f2d08d607752701152f91f7b4b08b7903d35b1065aef684baddcee316cc28565d9060200160405180910390a2506001600160a01b039091166000908152600760205260409020600101805460ff909216600160601b0260ff60601b19909216919091179055565b73__$364aad554dc80380f414546becdd2c1584$__63ee98b3136005846108916130e9565b60408051808201825260008082526020820152905163f698b0f160e01b8152600860048201526001600160a01b0383166024820152829073__$8c1a4844a0a0988ea2454cf87145a95df1$__9063f698b0f19060440160206040518083038186803b15801561121857600080fd5b505af415801561122c573d6000803e3d6000fd5b505050506040513d601f19601f820116820180604052508101906112509190613dbd565b61126c5760405162461bcd60e51b8152600401610b449061400d565b50506001600160a01b0316600090815260076020908152604091829020825180840190935260028101548352600301549082015290565b6001600160a01b0382166000908152600c6020526040808220905163347f09bd60e11b8152600481018290526024810184905282919073__$0373da85302df7c003c5cc5214782e6132$__906368fe137a9060440160206040518083038186803b15801561131057600080fd5b505af4158015611324573d6000803e3d6000fd5b505050506040513d601f19601f820116820180604052508101906113489190613d95565b604051630c86a02d60e11b81526004810183905290935073__$0373da85302df7c003c5cc5214782e6132$__9063190d405a9060240160206040518083038186803b15801561139657600080fd5b505af41580156113aa573d6000803e3d6000fd5b505050506040513d601f19601f820116820180604052508101906113ce9190614044565b604051630776f0c360e51b81526004810183905264ffffffffff8516602482015273__$0373da85302df7c003c5cc5214782e6132$__9063eede18609060440160206040518083038186803b15801561142657600080fd5b505af415801561143a573d6000803e3d6000fd5b505050506040513d601f19601f8201168201806040525081019061145e9190614044565b6114689190614077565b9150509250929050565b60015460405163e0ff5b8b60e01b8152600660048201526001600160a01b039091169063e0ff5b8b9060240160206040518083038186803b1580156114b657600080fd5b505afa1580156114ca573d6000803e3d6000fd5b505050506040513d601f19601f820116820180604052508101906114ee9190613f29565b600480546001600160a01b0319166001600160a01b03929092169182179055604080516006815260208101929092527f6aa5e483fe137161b095cd68564a336d1657057f57987b1ae21019134dbc8da29101610aa2565b604051630f07232560e01b8152600560048201523360248201526001600160a01b038216604482015273__$364aad554dc80380f414546becdd2c1584$__90630f0723259060640160006040518083038186803b1580156115a557600080fd5b505af41580156115b9573d6000803e3d6000fd5b50506040516001600160a01b03841681527fe435cbeab64e4eae6497b9d8289704bd709d624a80704ef3ca9af777534bc6ec92506020019050610fb7565b604080516080810182526000808252602082018190528183018190526060820152905163f698b0f160e01b8152600860048201526001600160a01b0383166024820152829073__$8c1a4844a0a0988ea2454cf87145a95df1$__9063f698b0f19060440160206040518083038186803b15801561167357600080fd5b505af4158015611687573d6000803e3d6000fd5b505050506040513d601f19601f820116820180604052508101906116ab9190613dbd565b6116c75760405162461bcd60e51b8152600401610b449061400d565b50506001600160a01b031660009081526007602090815260409182902082516080810184528154815260019091015465ffffffffffff808216938301939093526601000000000000810490921692810192909252600160601b900460ff16606082015290565b604051632a3be56b60e21b815260056004820152602481018390526044810182905260009073__$364aad554dc80380f414546becdd2c1584$__9063a8ef95ac90606401610813565b604051633b11adbf60e21b81526005600482015233602482015273__$364aad554dc80380f414546becdd2c1584$__9063ec46b6fc9060440160206040518083038186803b1580156117c757600080fd5b505af41580156117db573d6000803e3d6000fd5b505050506040513d601f19601f820116820180604052508101906117ff9190613dbd565b806118a4575073__$364aad554dc80380f414546becdd2c1584$__63fe27108660056118296130e9565b6040516001600160e01b031960e085901b168152600481019290925264ffffffffff16602482015260440160206040518083038186803b15801561186c57600080fd5b505af4158015611880573d6000803e3d6000fd5b505050506040513d601f19601f820116820180604052508101906118a49190613dbd565b6118c05760405162461bcd60e51b8152600401610b4490613fb7565b60405163b6e38a2960e01b8152600560048201526024810182905273__$364aad554dc80380f414546becdd2c1584$__9063b6e38a299060440160006040518083038186803b15801561191257600080fd5b505af4158015611926573d6000803e3d6000fd5b505050507f8b6f40f36b4ae8cc5f55e895036457c43da4ab1f80f58c46f5ff0d72a650033b81604051610fb791815260200190565b604051633b11adbf60e21b81526005600482015233602482015273__$364aad554dc80380f414546becdd2c1584$__9063ec46b6fc9060440160206040518083038186803b1580156119ac57600080fd5b505af41580156119c0573d6000803e3d6000fd5b505050506040513d601f19601f820116820180604052508101906119e49190613dbd565b611a005760405162461bcd60e51b8152600401610b4490613f71565b6000836001600160a01b031663c0961f7f6040518163ffffffff1660e01b815260040160206040518083038186803b158015611a3b57600080fd5b505afa158015611a4f573d6000803e3d6000fd5b505050506040513d601f19601f82011682018060405250810190611a7391906140b6565b60ff1690506000611a8261336c565b6001600160a01b03166348462037836040518263ffffffff1660e01b8152600401611aaf91815260200190565b60206040518083038186803b158015611ac757600080fd5b505afa158015611adb573d6000803e3d6000fd5b505050506040513d601f19601f82011682018060405250810190611aff91906140d3565b60405163d1296c8f60e01b8152600481019190915273__$9d2c69e94fee47b9774dc8db4aa5c0bbec$__9063d1296c8f906024016102206040518083038186803b158015611b4c57600080fd5b505af4158015611b60573d6000803e3d6000fd5b505050506040513d601f19601f82011682018060405250810190611b84919061413a565b9050610dcb85828686611c26565b60405163987ad15360e01b81526005600482015260009073__$364aad554dc80380f414546becdd2c1584$__9063987ad15390602401610768565b6000611bd76130e9565b60405163cc0d511b60e01b8152600560048201526024810184905264ffffffffff8216604482015290915073__$364aad554dc80380f414546becdd2c1584$__9063cc0d511b906064016108cc565b604051633b11adbf60e21b81526005600482015233602482015273__$364aad554dc80380f414546becdd2c1584$__9063ec46b6fc9060440160206040518083038186803b158015611c7757600080fd5b505af4158015611c8b573d6000803e3d6000fd5b505050506040513d601f19601f82011682018060405250810190611caf9190613dbd565b611ccb5760405162461bcd60e51b8152600401610b4490613f71565b8360016001600160a01b038216600090815260076020526040902060010154600160601b900460ff908116911614611d455760405162461bcd60e51b815260206004820152601b60248201527f524f442e6d642e4f46503a20446f63206e6f742070656e64696e6700000000006044820152606401610b44565b604051600281526001600160a01b038616907f2d08d607752701152f91f7b4b08b7903d35b1065aef684baddcee316cc28565d9060200160405180910390a26001600160a01b0385166000908152600760205260409020610140850151611db29060ff166201518061425d565b611dbc904261428b565b60018201805465ffffffffffff191665ffffffffffff92909216919091179055610160850151611df29060ff166201518061425d565b6001820154611e09919065ffffffffffff1661428b565b600182018054600160611b6cffffffffffffff0000000000001990911665ffffffffffff9390931666010000000000000260ff60601b19169290921791909117905583151580611e5857508215155b156108f8576002810193909355506003909101555050565b604051638f65372b60e01b81526008600482015260609073__$8c1a4844a0a0988ea2454cf87145a95df1$__90638f65372b9060240160006040518083038186803b158015611ebe57600080fd5b505af4158015611ed2573d6000803e3d6000fd5b505050506040513d6000823e601f3d908101601f191682016040526107b891908101906142b5565b6001600160a01b0381166000908152600b602052604090819020905163034306e160e21b81526001909101600482015260609073__$8c1a4844a0a0988ea2454cf87145a95df1$__90630d0c1b849060240160006040518083038186803b158015611f6457600080fd5b505af4158015611f78573d6000803e3d6000fd5b505050506040513d6000823e601f3d908101601f19168201604052610cb8919081019061434e565b604051635e77c9af60e01b81526008600482015260009073__$8c1a4844a0a0988ea2454cf87145a95df1$__90635e77c9af9060240160206040518083038186803b158015611fee57600080fd5b505af4158015612002573d6000803e3d6000fd5b505050506040513d601f19601f820116820180604052508101906107b891906140d3565b6001546040516335d2155560e11b81523360048201526060916001600160a01b031690636ba42aaa9060240160206040518083038186803b15801561206a57600080fd5b505afa15801561207e573d6000803e3d6000fd5b505050506040513d601f19601f820116820180604052508101906120a29190613dbd565b6120be5760405162461bcd60e51b8152600401610b4490613f46565b604080516001600160a01b0385168152602081018490527f884c85d5a19d785032f5d98a5bccdc42523d5d57ca09ee467ea4b88fba651c15910160405180910390a16001600160a01b038381166000908152600a602052604090819020600354915163083fa51d60e41b81526004810191909152602481018590529116604482015273__$07942fe0769ef09db064459acc9c3554b6$__906383fa51d09060640161097f565b606061217083836107bd565b6121bc5760405162461bcd60e51b815260206004820152601960248201527f424f412e434f44543a206e6f20636c61696d7320666f756e64000000000000006044820152606401610b44565b6001600160a01b0383166000908152600b6020526040908190209051630354ffdd60e21b815260048101919091526024810183905273__$5725cd3286253580cd9593a3c0fbba90a3$__90630d53ff749060440160006040518083038186803b15801561222857600080fd5b505af415801561223c573d6000803e3d6000fd5b505050506040513d6000823e601f3d908101601f1916820160405261086391908101906143e7565b60405163f698b0f160e01b8152600860048201526001600160a01b038216602482015260009073__$8c1a4844a0a0988ea2454cf87145a95df1$__9063f698b0f19060440160206040518083038186803b1580156122c157600080fd5b505af41580156122d5573d6000803e3d6000fd5b505050506040513d601f19601f82011682018060405250810190610cb89190613dbd565b6001546040516335d2155560e11b81523360048201526001600160a01b0390911690636ba42aaa9060240160206040518083038186803b15801561233c57600080fd5b505afa158015612350573d6000803e3d6000fd5b505050506040513d601f19601f820116820180604052508101906123749190613dbd565b6123905760405162461bcd60e51b8152600401610b4490613f46565b6001600160a01b0388166000908152600b60205260409081902090516001621cdcdd60e31b031981526004810191909152871515602482015260448101879052606481018690526001600160401b038086166084830152841660a482015260c4810183905260e4810182905273__$5725cd3286253580cd9593a3c0fbba90a3$__9063ff191918906101040160206040518083038186803b15801561243457600080fd5b505af4158015612448573d6000803e3d6000fd5b505050506040513d601f19601f8201168201806040525081019061246c9190613dbd565b156124fb57604080516001600160a01b038a1681528815156020820152908101879052606081018690526001600160401b038086166080830152841660a082015260c0810183905260e081018290527f7e62fd03e27a8b5cdb4bc7ed778aac2358d8fa0e4366d32b85297b3e39831ede906101000160405180910390a16124fb886124f68a6115f7565b6133c5565b5050505050505050565b61250e82613451565b61251781613500565b604051636cdd0edf60e11b815260056004820152602481018590526001600160a01b038416604482015273__$364aad554dc80380f414546becdd2c1584$__9063d9ba1dbe9060640160006040518083038186803b15801561257857600080fd5b505af415801561258c573d6000803e3d6000fd5b5050604080518781526001600160a01b038781166020830152868116828401528516606082015290517f3abb2418c66fe32ba9c883030a75ce583971d9af9192b9b74e44e67c5e6c8c1f9350908190036080019150a150505050565b6001600160a01b0381166000908152600c6020526040808220905163feeac47f60e01b81526004810182905282919073__$0373da85302df7c003c5cc5214782e6132$__9063feeac47f9060240160206040518083038186803b15801561264e57600080fd5b505af4158015612662573d6000803e3d6000fd5b505050506040513d601f19601f820116820180604052508101906126869190613d95565b604051630c86a02d60e11b81526004810183905290935073__$0373da85302df7c003c5cc5214782e6132$__9063190d405a9060240160206040518083038186803b1580156126d457600080fd5b505af41580156126e8573d6000803e3d6000fd5b505050506040513d601f19601f8201168201806040525081019061270c9190614044565b604051630776f0c360e51b81526004810183905264ffffffffff8516602482015273__$0373da85302df7c003c5cc5214782e6132$__9063eede18609060440160206040518083038186803b15801561276457600080fd5b505af4158015612778573d6000803e3d6000fd5b505050506040513d601f19601f8201168201806040525081019061279c9190614044565b6127a69190614077565b915050915091565b6001546040516335d2155560e11b81523360048201526000916001600160a01b031690636ba42aaa9060240160206040518083038186803b1580156127f257600080fd5b505afa158015612806573d6000803e3d6000fd5b505050506040513d601f19601f8201168201806040525081019061282a9190613dbd565b6128465760405162461bcd60e51b8152600401610b4490613f46565b6001600160a01b0384166000908152600c6020526040908190209051637c4e14df60e01b8152600481019190915264ffffffffff841660248201526001600160401b038316604482015273__$0373da85302df7c003c5cc5214782e6132$__90637c4e14df9060640160206040518083038186803b1580156128c757600080fd5b505af41580156128db573d6000803e3d6000fd5b505050506040513d601f19601f820116820180604052508101906128ff9190613dbd565b949350505050565b604051633c3e56c160e11b81526005600482015260009073__$364aad554dc80380f414546becdd2c1584$__9063787cad829060240160206040518083038186803b15801561295557600080fd5b505af4158015612969573d6000803e3d6000fd5b505050506040513d601f19601f820116820180604052508101906107b89190613f29565b604051633b11adbf60e21b81526005600482015233602482015273__$364aad554dc80380f414546becdd2c1584$__9063ec46b6fc9060440160206040518083038186803b1580156129de57600080fd5b505af41580156129f2573d6000803e3d6000fd5b505050506040513d601f19601f82011682018060405250810190612a169190613dbd565b612a325760405162461bcd60e51b8152600401610b4490613f71565b600554600160f01b900460ff16600114612a8e5760405162461bcd60e51b815260206004820181905260248201527f41432e6f6e6c7950656e64696e673a20446f632069732066696e616c697a65646044820152606401610b44565b60405163cc99e11b60e01b815260056004820152684174746f726e65797360b81b602482015273__$364aad554dc80380f414546becdd2c1584$__9063cc99e11b9060440160006040518083038186803b158015612aeb57600080fd5b505af4158015612aff573d6000803e3d6000fd5b5050604051632725ebef60e21b8152600560048201526000602482015273__$364aad554dc80380f414546becdd2c1584$__9250639c97afbc915060440160006040518083038186803b158015612b5557600080fd5b505af4158015612b69573d6000803e3d6000fd5b50506005805460ff60f01b1916600160f11b17905550506040517f35012b512309c322acf68632cd6cb702ff0e1d776fbe9394e38ffc13b434fe7590600090a1565b604051633b11adbf60e21b81526005600482015233602482015260009073__$364aad554dc80380f414546becdd2c1584$__9063ec46b6fc9060440160206040518083038186803b158015612bff57600080fd5b505af4158015612c13573d6000803e3d6000fd5b505050506040513d601f19601f82011682018060405250810190612c379190613dbd565b612c535760405162461bcd60e51b8152600401610b4490613f71565b600080546040516378af322960e11b815261ffff80881660048301528616602482015264ffffffffff851660448201526001600160a01b039091169063f15e6452906064016040805180830381600087803b158015612cb157600080fd5b505af1158015612cc5573d6000803e3d6000fd5b505050506040513d601f19601f82011682018060405250810190612ce991906144f2565b604051633e244cf360e01b8152600860048201526001600160a01b038216602482015290935090915073__$8c1a4844a0a0988ea2454cf87145a95df1$__90633e244cf39060440160206040518083038186803b158015612d4957600080fd5b505af4158015612d5d573d6000803e3d6000fd5b505050506040513d601f19601f82011682018060405250810190612d819190613dbd565b15612df557604051600181526001600160a01b038316907f2d08d607752701152f91f7b4b08b7903d35b1065aef684baddcee316cc28565d9060200160405180910390a26001600160a01b0382166000908152600760205260409020818155600101805460ff60601b1916600160601b1790555b509392505050565b60015460405163e0ff5b8b60e01b8152600760048201526001600160a01b039091169063e0ff5b8b9060240160206040518083038186803b158015612e4157600080fd5b505afa158015612e55573d6000803e3d6000fd5b505050506040513d601f19601f82011682018060405250810190612e799190613f29565b600380546001600160a01b0319166001600160a01b03929092169182179055604080516007815260208101929092527f6aa5e483fe137161b095cd68564a336d1657057f57987b1ae21019134dbc8da29101610aa2565b6001546040516335d2155560e11b81523360048201526000916001600160a01b031690636ba42aaa9060240160206040518083038186803b158015612f1457600080fd5b505afa158015612f28573d6000803e3d6000fd5b505050506040513d601f19601f82011682018060405250810190612f4c9190613dbd565b612f685760405162461bcd60e51b8152600401610b4490613f46565b6000612f73866115f7565b905042816020015165ffffffffffff1611612fd05760405162461bcd60e51b815260206004820181905260248201527f424f412e454652523a206d69737365642073686145786563446561646c696e656044820152606401610b44565b6001600160a01b0386166000908152600a60205260409081902090516376ff595960e11b8152600481019190915260248101869052604481018590526064810184905273__$07942fe0769ef09db064459acc9c3554b6$__9063edfeb2b29060840160206040518083038186803b15801561304a57600080fd5b505af415801561305e573d6000803e3d6000fd5b505050506040513d601f19601f820116820180604052508101906130829190613dbd565b156130e057604080516001600160a01b0388168152602081018790529081018590527f467f092855caf5a74110a305218e0d11890e77b0fa3730e0f28e7133dc6214189060600160405180910390a16130db86826133c5565b600191505b50949350505050565b60008054604051636ae3b70d60e11b81523360048201526001600160a01b039091169063d5c76e1a90602401602060405180830381600087803b15801561312f57600080fd5b505af1158015610794573d6000803e3d6000fd5b6001600160a01b0381166000908152600c60205260408082209051636878e4e760e11b8152600481019190915273__$0373da85302df7c003c5cc5214782e6132$__9063d0f1c9ce9060240160206040518083038186803b1580156131a757600080fd5b505af41580156131bb573d6000803e3d6000fd5b505050506040513d601f19601f820116820180604052508101906131df9190614517565b63ffffffff16610cbb576001600160a01b038083166000908152600c602052604080822060035482516327150a5f60e21b8152925173__$0373da85302df7c003c5cc5214782e6132$__95630bbbb610959394921692639c54297c9260048082019391829003018186803b15801561325657600080fd5b505afa15801561326a573d6000803e3d6000fd5b505050506040513d6000823e601f3d908101601f191682016040526132929190810190614532565b6040518363ffffffff1660e01b81526004016132af929190614637565b60006040518083038186803b1580156132c757600080fd5b505af41580156132db573d6000803e3d6000fd5b505050506001600160a01b0382166000818152600c6020526040908190209051637b109bf560e01b81526004810191909152602481019190915273__$0373da85302df7c003c5cc5214782e6132$__90637b109bf59060440160006040518083038186803b15801561334c57600080fd5b505af4158015613360573d6000803e3d6000fd5b50600195945050505050565b60025460408051630bd7cecf60e21b815290516000926001600160a01b031691632f5f3b3c916004808301926020929190829003018186803b1580156133b157600080fd5b505afa158015612969573d6000803e3d6000fd5b600260ff16816060015160ff16111561344d576133e3826002610fc2565b6040818101519051632e4c9cd560e01b81526000600482015265ffffffffffff90911660248201526001600160a01b03831690632e4c9cd590604401600060405180830381600087803b15801561343957600080fd5b505af11580156108f8573d6000803e3d6000fd5b5050565b6000546001600160a01b0316156134a25760405162461bcd60e51b815260206004820152601560248201527430b63932b0b23c9039b2ba103932b3a1b2b73a32b960591b6044820152606401610b44565b6040516001600160a01b03821681527f318da6c7624c71cbc0afe346c9d8827f119d0ecefb241a7b0c87217a076a8e029060200160405180910390a1600080546001600160a01b0319166001600160a01b0392909216919091179055565b6001546001600160a01b0316156135595760405162461bcd60e51b815260206004820152601960248201527f616c7265616479207365742067656e6572616c4b6565706572000000000000006044820152606401610b44565b6040516001600160a01b03821681527fe513d3e0f0d0a3877029dcc588748679a7a3450ec1ec7ed56d96bd012c3e61aa9060200160405180910390a1600180546001600160a01b0319166001600160a01b0392909216919091179055565b6001600160a01b03811681146135cc57600080fd5b50565b6000806000606084860312156135e457600080fd5b83356135ef816135b7565b95602085013595506040909401359392505050565b60ff815116825263ffffffff602082015116602083015260408101516001600160401b038082166040850152806060840151166060850152505064ffffffffff608082015116608083015265ffffffffffff60a08201511660a083015260c081015160c08301525050565b60e081016108668284613604565b6000806040838503121561369057600080fd5b823561369b816135b7565b946020939093013593505050565b600080604083850312156136bc57600080fd5b50508035926020909101359150565b602080825282518282018190526000919060409081850190868401855b82811015613757578151805161ffff1685528681015164ffffffffff1687860152858101516001600160401b03908116878701526060808301519091169086015260808082015165ffffffffffff169086015260a0908101519085015260c090930192908501906001016136e8565b5091979650505050505050565b64ffffffffff811681146135cc57600080fd5b6001600160401b03811681146135cc57600080fd5b600080600080608085870312156137a257600080fd5b84356137ad816135b7565b935060208501356137bd81613764565b925060408501356137cd81613764565b915060608501356137dd81613777565b939692955090935050565b6000602082840312156137fa57600080fd5b8135613805816135b7565b9392505050565b60006020828403121561381e57600080fd5b5035919050565b60ff811681146135cc57600080fd5b8035610cbb81613825565b6000806040838503121561385257600080fd5b823561385d816135b7565b9150602083013561386d81613825565b809150509250929050565b634e487b7160e01b600052604160045260246000fd5b6040516101e081016001600160401b03811182821017156138b1576138b1613878565b60405290565b60405160c081016001600160401b03811182821017156138b1576138b1613878565b60405160e081016001600160401b03811182821017156138b1576138b1613878565b604051606081016001600160401b03811182821017156138b1576138b1613878565b604051601f8201601f191681016001600160401b038111828210171561394557613945613878565b604052919050565b61ffff811681146135cc57600080fd5b8035610cbb8161394d565b80151581146135cc57600080fd5b8035610cbb81613968565b600082601f83011261399257600080fd5b61399a6138fb565b8060608401858111156139ac57600080fd5b845b818110156139cf5780356139c181613764565b8452602093840193016139ae565b509095945050505050565b6000806000808486036102808112156139f257600080fd5b85356139fd816135b7565b9450610220601f1982011215613a1257600080fd5b50613a1b61388e565b613a276020870161395d565b8152613a3560408701613834565b6020820152613a4660608701613834565b6040820152613a5760808701613834565b6060820152613a6860a0870161395d565b6080820152613a7960c0870161395d565b60a0820152613a8a60e08701613976565b60c0820152610100613a9d818801613976565b60e0830152610120613ab0818901613976565b828401526101409150613ac4828901613976565b90830152610160613ad6888201613834565b828401526101809150613aea828901613834565b908301526101a0613afc888201613834565b828401526101c09150613b10828901613834565b90830152613b22886101e08901613981565b90820152939693955050505061024082013591610260013590565b6020808252825182820181905260009190848201906040850190845b81811015613b7e5783516001600160a01b031683529284019291840191600101613b59565b50909695505050505050565b6020808252825182820181905260009190848201906040850190845b81811015613b7e57835183529284019291840191600101613ba6565b6020808252825182820181905260009190848201906040850190845b81811015613b7e57613bf1838551613604565b9284019260e09290920191600101613bde565b600080600080600080600080610100898b031215613c2157600080fd5b8835613c2c816135b7565b97506020890135613c3c81613968565b965060408901359550606089013594506080890135613c5a81613777565b935060a0890135613c6a81613777565b979a969950949793969295929450505060c08201359160e0013590565b60008060008060808587031215613c9d57600080fd5b843593506020850135613caf816135b7565b92506040850135613cbf816135b7565b915060608501356137dd816135b7565b600080600060608486031215613ce457600080fd5b8335613cef816135b7565b92506020840135613cff81613764565b91506040840135613d0f81613777565b809150509250925092565b600080600060608486031215613d2f57600080fd5b8335613d3a8161394d565b92506020840135613d4a8161394d565b91506040840135613d0f81613764565b60008060008060808587031215613d7057600080fd5b8435613d7b816135b7565b966020860135965060408601359560600135945092505050565b600060208284031215613da757600080fd5b815161380581613764565b8051610cbb81613968565b600060208284031215613dcf57600080fd5b815161380581613968565b60006001600160401b03821115613df357613df3613878565b5060051b60200190565b8051610cbb8161394d565b805165ffffffffffff81168114610cbb57600080fd5b60006020808385031215613e3157600080fd5b82516001600160401b03811115613e4757600080fd5b8301601f81018513613e5857600080fd5b8051613e6b613e6682613dda565b61391d565b81815260c09182028301840191848201919088841115613e8a57600080fd5b938501935b83851015613f1d5780858a031215613ea75760008081fd5b613eaf6138b7565b8551613eba8161394d565b815285870151613ec981613764565b81880152604086810151613edc81613777565b90820152606086810151613eef81613777565b908201526080613f00878201613e08565b9082015260a0868101519082015283529384019391850191613e8f565b50979650505050505050565b600060208284031215613f3b57600080fd5b8151613805816135b7565b60208082526011908201527020a19737b59d103737ba1025b2b2b832b960791b604082015260600190565b60208082526026908201527f41432e6f6e6c794469726563744b65657065723a206e6f74206469726563742060408201526535b2b2b832b960d11b606082015260800190565b60208082526036908201527f41432e6f776e65724f72446972656374426f6f6b65657065723a206e6569746860408201527532b91037bbb732b9103737b9103137b7b5b2b2b832b960511b606082015260800190565b6020808252601d908201527f524f442e6d642e4f523a20646f63204e4f542072656769737465726564000000604082015260600190565b60006020828403121561405657600080fd5b815161380581613777565b634e487b7160e01b600052601160045260246000fd5b60006001600160401b038084168061409f57634e487b7160e01b600052601260045260246000fd5b92169190910492915050565b8051610cbb81613825565b6000602082840312156140c857600080fd5b815161380581613825565b6000602082840312156140e557600080fd5b5051919050565b600082601f8301126140fd57600080fd5b6141056138fb565b80606084018581111561411757600080fd5b845b818110156139cf57805161412c81613764565b845260209384019301614119565b6000610220828403121561414d57600080fd5b61415561388e565b61415e83613dfd565b815261416c602084016140ab565b602082015261417d604084016140ab565b604082015261418e606084016140ab565b606082015261419f60808401613dfd565b60808201526141b060a08401613dfd565b60a08201526141c160c08401613db2565b60c08201526141d260e08401613db2565b60e08201526101006141e5818501613db2565b908201526101206141f7848201613db2565b908201526101406142098482016140ab565b9082015261016061421b8482016140ab565b9082015261018061422d8482016140ab565b908201526101a061423f8482016140ab565b908201526101c0614252858583016140ec565b908201529392505050565b600065ffffffffffff8083168185168183048111821515161561428257614282614061565b02949350505050565b600065ffffffffffff8083168185168083038211156142ac576142ac614061565b01949350505050565b600060208083850312156142c857600080fd5b82516001600160401b038111156142de57600080fd5b8301601f810185136142ef57600080fd5b80516142fd613e6682613dda565b81815260059190911b8201830190838101908783111561431c57600080fd5b928401925b82841015614343578351614334816135b7565b82529284019290840190614321565b979650505050505050565b6000602080838503121561436157600080fd5b82516001600160401b0381111561437757600080fd5b8301601f8101851361438857600080fd5b8051614396613e6682613dda565b81815260059190911b820183019083810190878311156143b557600080fd5b928401925b82841015614343578351825292840192908401906143ba565b805163ffffffff81168114610cbb57600080fd5b600060208083850312156143fa57600080fd5b82516001600160401b0381111561441057600080fd5b8301601f8101851361442157600080fd5b805161442f613e6682613dda565b81815260e0918202830184019184820191908884111561444e57600080fd5b938501935b83851015613f1d5780858a03121561446b5760008081fd5b6144736138d9565b855161447e81613825565b815261448b8688016143d3565b8782015260408087015161449e81613777565b908201526060868101516144b181613777565b908201526080868101516144c481613764565b9082015260a06144d5878201613e08565b9082015260c0868101519082015283529384019391850191614453565b6000806040838503121561450557600080fd5b82519150602083015161386d816135b7565b60006020828403121561452957600080fd5b610863826143d3565b6000602080838503121561454557600080fd5b82516001600160401b0381111561455b57600080fd5b8301601f8101851361456c57600080fd5b805161457a613e6682613dda565b81815260c0918202830184019184820191908884111561459957600080fd5b938501935b83851015613f1d5780858a0312156145b65760008081fd5b6145be6138b7565b85516145c981613764565b8152858701516145d881613764565b818801526040868101516145eb81613764565b908201526060868101516145fe81613777565b9082015260808681015161461181613777565b9082015260a08681015161462481613825565b908201528352938401939185019161459e565b600060408083018584526020828186015281865180845260609350838701915082880160005b828110156146c6578151805164ffffffffff908116865286820151811687870152888201511688860152868101516001600160401b03908116888701526080808301519091169086015260a09081015160ff169085015260c0909301929084019060010161465d565b5091999850505050505050505056fea2646970667358221220b80d76a357177b8d20586efa5b522488e4834b510d3e11a2f001f1ed255cf78564736f6c63430008080033",
    "sourcePath": "/Users/kaptain/github.com/hardhat/comboox/contracts/books/boa/BookOfIA.sol",
    "compiler": {
        "name": "solc",
        "version": "0.8.8+commit.dddeac2f"
    },
    "functionHashes": {
        "abandonRole(bytes32)": "3da9a600",
        "acceptFirstRefusalClaims(address,uint256)": "a0b7b8a7",
        "circulateDoc(address,(uint16,uint8,uint8,uint8,uint16,uint16,bool,bool,bool,bool,uint8,uint8,uint8,uint8,uint40[3]),bytes32,bytes32)": "8c32f23d",
        "circulateIA(address,bytes32,bytes32)": "8506c43f",
        "claimsOfFR(address,uint256)": "22ea1815",
        "createDoc(uint16,uint16,uint40)": "f15e6452",
        "createMockOfIA(address)": "32277b11",
        "execAlongRight(address,bool,uint256,uint256,uint64,uint64,uint256,bytes32)": "d9ee0f58",
        "execFirstRefusalRight(address,uint256,uint256,bytes32)": "fb255fcd",
        "filesList()": "8fefe1cd",
        "finalized()": "b3f05b97",
        "getBookeeper()": "ed211023",
        "getDTClaimForShare(address,uint256,uint256)": "0fc89eeb",
        "getDTClaimsForDeal(address,uint256)": "c337eee3",
        "getDraggingDeals(address)": "9cf90506",
        "getGeneralCounsel()": "103f6edd",
        "getHeadOfFile(address)": "6e0cdd3a",
        "getOwner()": "893d20e8",
        "getRefOfFile(address)": "58598c35",
        "grantRole(bytes32,uint256)": "1b6ea9f9",
        "hasDTClaims(address,uint256)": "10ba4e52",
        "hasRole(bytes32,uint256)": "7e063c5a",
        "init(uint256,address,address,address)": "dc890da9",
        "initBOH()": "25cbca63",
        "initBOS()": "62ce0a28",
        "initROM()": "fa9e7934",
        "isFRClaimer(address,uint256)": "8f6b6587",
        "isRegistered(address)": "c3c5a547",
        "lockContents()": "f045a769",
        "mockDealOfBuy(address,uint40,uint40,uint64)": "2e050d76",
        "mockDealOfSell(address,uint40,uint64)": "e0b6888d",
        "mockResultsOfAcct(address,uint256)": "5f3bd6df",
        "mockResultsOfIA(address)": "deb57175",
        "qtyOfFiles()": "9ee4ad4e",
        "renounceRole(bytes32)": "8bb9c5bf",
        "revokeRole(bytes32,uint256)": "19d61ad9",
        "setDirectKeeper(address)": "6be8496f",
        "setGeneralCounsel(uint256)": "4a14beb1",
        "setOwner(uint256)": "8041494e",
        "setRoleAdmin(bytes32,uint256)": "5171ebd4",
        "setStateOfFile(address,uint8)": "511b707d"
    },
    "gasEstimates": {
        "creation": {
            "codeDepositCost": "3637400",
            "executionCost": "4097",
            "totalCost": "3641497"
        },
        "external": {
            "abandonRole(bytes32)": "infinite",
            "acceptFirstRefusalClaims(address,uint256)": "infinite",
            "circulateDoc(address,(uint16,uint8,uint8,uint8,uint16,uint16,bool,bool,bool,bool,uint8,uint8,uint8,uint8,uint40[3]),bytes32,bytes32)": "infinite",
            "circulateIA(address,bytes32,bytes32)": "infinite",
            "claimsOfFR(address,uint256)": "infinite",
            "createDoc(uint16,uint16,uint40)": "infinite",
            "createMockOfIA(address)": "infinite",
            "execAlongRight(address,bool,uint256,uint256,uint64,uint64,uint256,bytes32)": "infinite",
            "execFirstRefusalRight(address,uint256,uint256,bytes32)": "infinite",
            "filesList()": "infinite",
            "finalized()": "2460",
            "getBookeeper()": "infinite",
            "getDTClaimForShare(address,uint256,uint256)": "5680",
            "getDTClaimsForDeal(address,uint256)": "infinite",
            "getDraggingDeals(address)": "infinite",
            "getGeneralCounsel()": "infinite",
            "getHeadOfFile(address)": "infinite",
            "getOwner()": "infinite",
            "getRefOfFile(address)": "infinite",
            "grantRole(bytes32,uint256)": "infinite",
            "hasDTClaims(address,uint256)": "infinite",
            "hasRole(bytes32,uint256)": "infinite",
            "init(uint256,address,address,address)": "infinite",
            "initBOH()": "infinite",
            "initBOS()": "infinite",
            "initROM()": "infinite",
            "isFRClaimer(address,uint256)": "2785",
            "isRegistered(address)": "infinite",
            "lockContents()": "infinite",
            "mockDealOfBuy(address,uint40,uint40,uint64)": "infinite",
            "mockDealOfSell(address,uint40,uint64)": "infinite",
            "mockResultsOfAcct(address,uint256)": "infinite",
            "mockResultsOfIA(address)": "infinite",
            "qtyOfFiles()": "infinite",
            "renounceRole(bytes32)": "infinite",
            "revokeRole(bytes32,uint256)": "infinite",
            "setDirectKeeper(address)": "infinite",
            "setGeneralCounsel(uint256)": "infinite",
            "setOwner(uint256)": "infinite",
            "setRoleAdmin(bytes32,uint256)": "infinite",
            "setStateOfFile(address,uint8)": "infinite"
        },
        "internal": {
            "_createMockOfIA(address)": "infinite",
            "_resetDoc(address,struct IFilesFolder.Head memory)": "infinite"
        }
    }
}