{
    "contractName": "BookOfIA",
    "abi": [
        {
            "anonymous": false,
            "inputs": [
                {
                    "indexed": false,
                    "internalType": "address",
                    "name": "ia",
                    "type": "address"
                },
                {
                    "indexed": false,
                    "internalType": "uint256",
                    "name": "seqOfDeal",
                    "type": "uint256"
                }
            ],
            "name": "AcceptFirstRefusalClaims",
            "type": "event"
        },
        {
            "anonymous": false,
            "inputs": [
                {
                    "indexed": false,
                    "internalType": "address",
                    "name": "ia",
                    "type": "address"
                },
                {
                    "indexed": false,
                    "internalType": "uint256",
                    "name": "follower",
                    "type": "uint256"
                },
                {
                    "indexed": false,
                    "internalType": "uint256",
                    "name": "seqOfShare",
                    "type": "uint256"
                },
                {
                    "indexed": false,
                    "internalType": "uint64",
                    "name": "amount",
                    "type": "uint64"
                }
            ],
            "name": "AddAlongDeal",
            "type": "event"
        },
        {
            "anonymous": false,
            "inputs": [
                {
                    "indexed": false,
                    "internalType": "address",
                    "name": "ia",
                    "type": "address"
                },
                {
                    "indexed": false,
                    "internalType": "bool",
                    "name": "dragAlong",
                    "type": "bool"
                },
                {
                    "indexed": false,
                    "internalType": "uint256",
                    "name": "seqOfDeal",
                    "type": "uint256"
                },
                {
                    "indexed": false,
                    "internalType": "uint256",
                    "name": "seqOfShare",
                    "type": "uint256"
                },
                {
                    "indexed": false,
                    "internalType": "uint64",
                    "name": "paid",
                    "type": "uint64"
                },
                {
                    "indexed": false,
                    "internalType": "uint64",
                    "name": "par",
                    "type": "uint64"
                },
                {
                    "indexed": false,
                    "internalType": "uint256",
                    "name": "claimer",
                    "type": "uint256"
                },
                {
                    "indexed": false,
                    "internalType": "bytes32",
                    "name": "sigHash",
                    "type": "bytes32"
                }
            ],
            "name": "ExecAlongRight",
            "type": "event"
        },
        {
            "anonymous": false,
            "inputs": [
                {
                    "indexed": false,
                    "internalType": "address",
                    "name": "ia",
                    "type": "address"
                },
                {
                    "indexed": false,
                    "internalType": "uint256",
                    "name": "seqOfDeal",
                    "type": "uint256"
                },
                {
                    "indexed": false,
                    "internalType": "uint256",
                    "name": "caller",
                    "type": "uint256"
                }
            ],
            "name": "ExecFirstRefusalRight",
            "type": "event"
        },
        {
            "anonymous": false,
            "inputs": [
                {
                    "indexed": false,
                    "internalType": "uint256",
                    "name": "owner",
                    "type": "uint256"
                },
                {
                    "indexed": false,
                    "internalType": "address",
                    "name": "directKeeper",
                    "type": "address"
                },
                {
                    "indexed": false,
                    "internalType": "address",
                    "name": "regCenter",
                    "type": "address"
                },
                {
                    "indexed": false,
                    "internalType": "address",
                    "name": "generalKeeper",
                    "type": "address"
                }
            ],
            "name": "Init",
            "type": "event"
        },
        {
            "anonymous": false,
            "inputs": [],
            "name": "LockContents",
            "type": "event"
        },
        {
            "anonymous": false,
            "inputs": [
                {
                    "indexed": true,
                    "internalType": "address",
                    "name": "body",
                    "type": "address"
                }
            ],
            "name": "RemoveDoc",
            "type": "event"
        },
        {
            "anonymous": false,
            "inputs": [
                {
                    "indexed": false,
                    "internalType": "address",
                    "name": "keeper",
                    "type": "address"
                }
            ],
            "name": "SetDirectKeeper",
            "type": "event"
        },
        {
            "anonymous": false,
            "inputs": [
                {
                    "indexed": false,
                    "internalType": "uint256",
                    "name": "acct",
                    "type": "uint256"
                }
            ],
            "name": "SetGeneralCounsel",
            "type": "event"
        },
        {
            "anonymous": false,
            "inputs": [
                {
                    "indexed": false,
                    "internalType": "address",
                    "name": "gk",
                    "type": "address"
                }
            ],
            "name": "SetGeneralKeeper",
            "type": "event"
        },
        {
            "anonymous": false,
            "inputs": [
                {
                    "indexed": false,
                    "internalType": "uint256",
                    "name": "acct",
                    "type": "uint256"
                }
            ],
            "name": "SetOwner",
            "type": "event"
        },
        {
            "anonymous": false,
            "inputs": [
                {
                    "indexed": false,
                    "internalType": "address",
                    "name": "rc",
                    "type": "address"
                }
            ],
            "name": "SetRegCenter",
            "type": "event"
        },
        {
            "anonymous": false,
            "inputs": [
                {
                    "indexed": true,
                    "internalType": "address",
                    "name": "temp",
                    "type": "address"
                },
                {
                    "indexed": false,
                    "internalType": "uint256",
                    "name": "typeOfDoc",
                    "type": "uint256"
                }
            ],
            "name": "SetTemplate",
            "type": "event"
        },
        {
            "anonymous": false,
            "inputs": [
                {
                    "indexed": true,
                    "internalType": "address",
                    "name": "body",
                    "type": "address"
                },
                {
                    "indexed": false,
                    "internalType": "uint8",
                    "name": "state",
                    "type": "uint8"
                }
            ],
            "name": "UpdateStateOfDoc",
            "type": "event"
        },
        {
            "inputs": [
                {
                    "internalType": "bytes32",
                    "name": "role",
                    "type": "bytes32"
                }
            ],
            "name": "abandonRole",
            "outputs": [],
            "stateMutability": "nonpayable",
            "type": "function"
        },
        {
            "inputs": [
                {
                    "internalType": "address",
                    "name": "ia",
                    "type": "address"
                },
                {
                    "internalType": "uint256",
                    "name": "seqOfDeal",
                    "type": "uint256"
                }
            ],
            "name": "acceptFirstRefusalClaims",
            "outputs": [
                {
                    "components": [
                        {
                            "internalType": "uint16",
                            "name": "seqOfDeal",
                            "type": "uint16"
                        },
                        {
                            "internalType": "uint40",
                            "name": "rightholder",
                            "type": "uint40"
                        },
                        {
                            "internalType": "uint64",
                            "name": "weight",
                            "type": "uint64"
                        },
                        {
                            "internalType": "uint64",
                            "name": "ratio",
                            "type": "uint64"
                        },
                        {
                            "internalType": "uint48",
                            "name": "sigDate",
                            "type": "uint48"
                        },
                        {
                            "internalType": "bytes32",
                            "name": "sigHash",
                            "type": "bytes32"
                        }
                    ],
                    "internalType": "struct FRClaims.Claim[]",
                    "name": "output",
                    "type": "tuple[]"
                }
            ],
            "stateMutability": "nonpayable",
            "type": "function"
        },
        {
            "inputs": [
                {
                    "internalType": "address",
                    "name": "body",
                    "type": "address"
                },
                {
                    "components": [
                        {
                            "internalType": "uint16",
                            "name": "seq",
                            "type": "uint16"
                        },
                        {
                            "internalType": "uint8",
                            "name": "qtyOfSubRule",
                            "type": "uint8"
                        },
                        {
                            "internalType": "uint8",
                            "name": "seqOfSubRule",
                            "type": "uint8"
                        },
                        {
                            "internalType": "uint8",
                            "name": "authority",
                            "type": "uint8"
                        },
                        {
                            "internalType": "uint16",
                            "name": "headRatio",
                            "type": "uint16"
                        },
                        {
                            "internalType": "uint16",
                            "name": "amountRatio",
                            "type": "uint16"
                        },
                        {
                            "internalType": "bool",
                            "name": "onlyAttendance",
                            "type": "bool"
                        },
                        {
                            "internalType": "bool",
                            "name": "impliedConsent",
                            "type": "bool"
                        },
                        {
                            "internalType": "bool",
                            "name": "partyAsConsent",
                            "type": "bool"
                        },
                        {
                            "internalType": "bool",
                            "name": "againstShallBuy",
                            "type": "bool"
                        },
                        {
                            "internalType": "uint8",
                            "name": "shaExecDays",
                            "type": "uint8"
                        },
                        {
                            "internalType": "uint8",
                            "name": "reviewDays",
                            "type": "uint8"
                        },
                        {
                            "internalType": "uint8",
                            "name": "votingDays",
                            "type": "uint8"
                        },
                        {
                            "internalType": "uint8",
                            "name": "execDaysForPutOpt",
                            "type": "uint8"
                        },
                        {
                            "internalType": "uint40[3]",
                            "name": "vetoers",
                            "type": "uint40[3]"
                        }
                    ],
                    "internalType": "struct RulesParser.VotingRule",
                    "name": "vr",
                    "type": "tuple"
                },
                {
                    "internalType": "bytes32",
                    "name": "docUrl",
                    "type": "bytes32"
                },
                {
                    "internalType": "bytes32",
                    "name": "docHash",
                    "type": "bytes32"
                }
            ],
            "name": "circulateDoc",
            "outputs": [],
            "stateMutability": "nonpayable",
            "type": "function"
        },
        {
            "inputs": [
                {
                    "internalType": "address",
                    "name": "ia",
                    "type": "address"
                },
                {
                    "internalType": "bytes32",
                    "name": "docUrl",
                    "type": "bytes32"
                },
                {
                    "internalType": "bytes32",
                    "name": "docHash",
                    "type": "bytes32"
                }
            ],
            "name": "circulateIA",
            "outputs": [],
            "stateMutability": "nonpayable",
            "type": "function"
        },
        {
            "inputs": [
                {
                    "internalType": "address",
                    "name": "ia",
                    "type": "address"
                },
                {
                    "internalType": "uint256",
                    "name": "seqOfDeal",
                    "type": "uint256"
                }
            ],
            "name": "claimsOfFR",
            "outputs": [
                {
                    "components": [
                        {
                            "internalType": "uint16",
                            "name": "seqOfDeal",
                            "type": "uint16"
                        },
                        {
                            "internalType": "uint40",
                            "name": "rightholder",
                            "type": "uint40"
                        },
                        {
                            "internalType": "uint64",
                            "name": "weight",
                            "type": "uint64"
                        },
                        {
                            "internalType": "uint64",
                            "name": "ratio",
                            "type": "uint64"
                        },
                        {
                            "internalType": "uint48",
                            "name": "sigDate",
                            "type": "uint48"
                        },
                        {
                            "internalType": "bytes32",
                            "name": "sigHash",
                            "type": "bytes32"
                        }
                    ],
                    "internalType": "struct FRClaims.Claim[]",
                    "name": "",
                    "type": "tuple[]"
                }
            ],
            "stateMutability": "view",
            "type": "function"
        },
        {
            "inputs": [
                {
                    "internalType": "uint256",
                    "name": "typeOfDoc",
                    "type": "uint256"
                },
                {
                    "internalType": "uint256",
                    "name": "creator",
                    "type": "uint256"
                }
            ],
            "name": "createDoc",
            "outputs": [
                {
                    "internalType": "address",
                    "name": "body",
                    "type": "address"
                }
            ],
            "stateMutability": "nonpayable",
            "type": "function"
        },
        {
            "inputs": [
                {
                    "internalType": "address",
                    "name": "ia",
                    "type": "address"
                }
            ],
            "name": "createMockOfIA",
            "outputs": [
                {
                    "internalType": "bool",
                    "name": "",
                    "type": "bool"
                }
            ],
            "stateMutability": "nonpayable",
            "type": "function"
        },
        {
            "inputs": [],
            "name": "docsList",
            "outputs": [
                {
                    "internalType": "address[]",
                    "name": "",
                    "type": "address[]"
                }
            ],
            "stateMutability": "view",
            "type": "function"
        },
        {
            "inputs": [
                {
                    "internalType": "address",
                    "name": "ia",
                    "type": "address"
                },
                {
                    "internalType": "bool",
                    "name": "dragAlong",
                    "type": "bool"
                },
                {
                    "internalType": "uint256",
                    "name": "seqOfDeal",
                    "type": "uint256"
                },
                {
                    "internalType": "uint256",
                    "name": "seqOfShare",
                    "type": "uint256"
                },
                {
                    "internalType": "uint64",
                    "name": "paid",
                    "type": "uint64"
                },
                {
                    "internalType": "uint64",
                    "name": "par",
                    "type": "uint64"
                },
                {
                    "internalType": "uint256",
                    "name": "caller",
                    "type": "uint256"
                },
                {
                    "internalType": "bytes32",
                    "name": "sigHash",
                    "type": "bytes32"
                }
            ],
            "name": "execAlongRight",
            "outputs": [],
            "stateMutability": "nonpayable",
            "type": "function"
        },
        {
            "inputs": [
                {
                    "internalType": "address",
                    "name": "ia",
                    "type": "address"
                },
                {
                    "internalType": "uint256",
                    "name": "seqOfDeal",
                    "type": "uint256"
                },
                {
                    "internalType": "uint256",
                    "name": "caller",
                    "type": "uint256"
                },
                {
                    "internalType": "bytes32",
                    "name": "sigHash",
                    "type": "bytes32"
                }
            ],
            "name": "execFirstRefusalRight",
            "outputs": [
                {
                    "internalType": "bool",
                    "name": "flag",
                    "type": "bool"
                }
            ],
            "stateMutability": "nonpayable",
            "type": "function"
        },
        {
            "inputs": [],
            "name": "finalized",
            "outputs": [
                {
                    "internalType": "bool",
                    "name": "",
                    "type": "bool"
                }
            ],
            "stateMutability": "view",
            "type": "function"
        },
        {
            "inputs": [],
            "name": "getBookeeper",
            "outputs": [
                {
                    "internalType": "address",
                    "name": "",
                    "type": "address"
                }
            ],
            "stateMutability": "view",
            "type": "function"
        },
        {
            "inputs": [
                {
                    "internalType": "address",
                    "name": "ia",
                    "type": "address"
                },
                {
                    "internalType": "uint256",
                    "name": "seqOfDeal",
                    "type": "uint256"
                },
                {
                    "internalType": "uint256",
                    "name": "seqOfShare",
                    "type": "uint256"
                }
            ],
            "name": "getDTClaimForShare",
            "outputs": [
                {
                    "components": [
                        {
                            "internalType": "uint8",
                            "name": "typeOfClaim",
                            "type": "uint8"
                        },
                        {
                            "internalType": "uint32",
                            "name": "seqOfShare",
                            "type": "uint32"
                        },
                        {
                            "internalType": "uint64",
                            "name": "paid",
                            "type": "uint64"
                        },
                        {
                            "internalType": "uint64",
                            "name": "par",
                            "type": "uint64"
                        },
                        {
                            "internalType": "uint40",
                            "name": "claimer",
                            "type": "uint40"
                        },
                        {
                            "internalType": "uint48",
                            "name": "sigDate",
                            "type": "uint48"
                        },
                        {
                            "internalType": "bytes32",
                            "name": "sigHash",
                            "type": "bytes32"
                        }
                    ],
                    "internalType": "struct DTClaims.Claim",
                    "name": "",
                    "type": "tuple"
                }
            ],
            "stateMutability": "view",
            "type": "function"
        },
        {
            "inputs": [
                {
                    "internalType": "address",
                    "name": "ia",
                    "type": "address"
                },
                {
                    "internalType": "uint256",
                    "name": "seqOfDeal",
                    "type": "uint256"
                }
            ],
            "name": "getDTClaimsForDeal",
            "outputs": [
                {
                    "components": [
                        {
                            "internalType": "uint8",
                            "name": "typeOfClaim",
                            "type": "uint8"
                        },
                        {
                            "internalType": "uint32",
                            "name": "seqOfShare",
                            "type": "uint32"
                        },
                        {
                            "internalType": "uint64",
                            "name": "paid",
                            "type": "uint64"
                        },
                        {
                            "internalType": "uint64",
                            "name": "par",
                            "type": "uint64"
                        },
                        {
                            "internalType": "uint40",
                            "name": "claimer",
                            "type": "uint40"
                        },
                        {
                            "internalType": "uint48",
                            "name": "sigDate",
                            "type": "uint48"
                        },
                        {
                            "internalType": "bytes32",
                            "name": "sigHash",
                            "type": "bytes32"
                        }
                    ],
                    "internalType": "struct DTClaims.Claim[]",
                    "name": "",
                    "type": "tuple[]"
                }
            ],
            "stateMutability": "view",
            "type": "function"
        },
        {
            "inputs": [
                {
                    "internalType": "address",
                    "name": "ia",
                    "type": "address"
                }
            ],
            "name": "getDraggingDeals",
            "outputs": [
                {
                    "internalType": "uint256[]",
                    "name": "",
                    "type": "uint256[]"
                }
            ],
            "stateMutability": "view",
            "type": "function"
        },
        {
            "inputs": [],
            "name": "getGeneralCounsel",
            "outputs": [
                {
                    "internalType": "uint40",
                    "name": "",
                    "type": "uint40"
                }
            ],
            "stateMutability": "view",
            "type": "function"
        },
        {
            "inputs": [
                {
                    "internalType": "address",
                    "name": "body",
                    "type": "address"
                }
            ],
            "name": "getHeadOfDoc",
            "outputs": [
                {
                    "components": [
                        {
                            "internalType": "uint8",
                            "name": "typeOfDoc",
                            "type": "uint8"
                        },
                        {
                            "internalType": "uint40",
                            "name": "creator",
                            "type": "uint40"
                        },
                        {
                            "internalType": "uint48",
                            "name": "createDate",
                            "type": "uint48"
                        },
                        {
                            "internalType": "uint48",
                            "name": "shaExecDeadline",
                            "type": "uint48"
                        },
                        {
                            "internalType": "uint48",
                            "name": "proposeDeadline",
                            "type": "uint48"
                        },
                        {
                            "internalType": "uint8",
                            "name": "state",
                            "type": "uint8"
                        }
                    ],
                    "internalType": "struct IRepoOfDocs.Head",
                    "name": "head",
                    "type": "tuple"
                }
            ],
            "stateMutability": "view",
            "type": "function"
        },
        {
            "inputs": [],
            "name": "getOwner",
            "outputs": [
                {
                    "internalType": "uint40",
                    "name": "",
                    "type": "uint40"
                }
            ],
            "stateMutability": "view",
            "type": "function"
        },
        {
            "inputs": [
                {
                    "internalType": "address",
                    "name": "body",
                    "type": "address"
                }
            ],
            "name": "getRefOfDoc",
            "outputs": [
                {
                    "internalType": "bytes32",
                    "name": "docUrl",
                    "type": "bytes32"
                },
                {
                    "internalType": "bytes32",
                    "name": "docHash",
                    "type": "bytes32"
                }
            ],
            "stateMutability": "view",
            "type": "function"
        },
        {
            "inputs": [
                {
                    "internalType": "bytes32",
                    "name": "role",
                    "type": "bytes32"
                },
                {
                    "internalType": "uint256",
                    "name": "acct",
                    "type": "uint256"
                }
            ],
            "name": "grantRole",
            "outputs": [],
            "stateMutability": "nonpayable",
            "type": "function"
        },
        {
            "inputs": [
                {
                    "internalType": "address",
                    "name": "ia",
                    "type": "address"
                },
                {
                    "internalType": "uint256",
                    "name": "seqOfDeal",
                    "type": "uint256"
                }
            ],
            "name": "hasDTClaims",
            "outputs": [
                {
                    "internalType": "bool",
                    "name": "",
                    "type": "bool"
                }
            ],
            "stateMutability": "view",
            "type": "function"
        },
        {
            "inputs": [
                {
                    "internalType": "bytes32",
                    "name": "role",
                    "type": "bytes32"
                },
                {
                    "internalType": "uint256",
                    "name": "acct",
                    "type": "uint256"
                }
            ],
            "name": "hasRole",
            "outputs": [
                {
                    "internalType": "bool",
                    "name": "",
                    "type": "bool"
                }
            ],
            "stateMutability": "view",
            "type": "function"
        },
        {
            "inputs": [
                {
                    "internalType": "uint256",
                    "name": "owner",
                    "type": "uint256"
                },
                {
                    "internalType": "address",
                    "name": "directKeeper",
                    "type": "address"
                },
                {
                    "internalType": "address",
                    "name": "regCenter",
                    "type": "address"
                },
                {
                    "internalType": "address",
                    "name": "generalKeeper",
                    "type": "address"
                }
            ],
            "name": "init",
            "outputs": [],
            "stateMutability": "nonpayable",
            "type": "function"
        },
        {
            "inputs": [
                {
                    "internalType": "address",
                    "name": "ia",
                    "type": "address"
                },
                {
                    "internalType": "uint256",
                    "name": "acct",
                    "type": "uint256"
                }
            ],
            "name": "isFRClaimer",
            "outputs": [
                {
                    "internalType": "bool",
                    "name": "",
                    "type": "bool"
                }
            ],
            "stateMutability": "view",
            "type": "function"
        },
        {
            "inputs": [
                {
                    "internalType": "address",
                    "name": "body",
                    "type": "address"
                }
            ],
            "name": "isRegistered",
            "outputs": [
                {
                    "internalType": "bool",
                    "name": "",
                    "type": "bool"
                }
            ],
            "stateMutability": "view",
            "type": "function"
        },
        {
            "inputs": [],
            "name": "lockContents",
            "outputs": [],
            "stateMutability": "nonpayable",
            "type": "function"
        },
        {
            "inputs": [
                {
                    "internalType": "address",
                    "name": "ia",
                    "type": "address"
                },
                {
                    "internalType": "uint40",
                    "name": "buyer",
                    "type": "uint40"
                },
                {
                    "internalType": "uint40",
                    "name": "groupRep",
                    "type": "uint40"
                },
                {
                    "internalType": "uint64",
                    "name": "amount",
                    "type": "uint64"
                }
            ],
            "name": "mockDealOfBuy",
            "outputs": [
                {
                    "internalType": "bool",
                    "name": "flag",
                    "type": "bool"
                }
            ],
            "stateMutability": "nonpayable",
            "type": "function"
        },
        {
            "inputs": [
                {
                    "internalType": "address",
                    "name": "ia",
                    "type": "address"
                },
                {
                    "internalType": "uint40",
                    "name": "seller",
                    "type": "uint40"
                },
                {
                    "internalType": "uint64",
                    "name": "amount",
                    "type": "uint64"
                }
            ],
            "name": "mockDealOfSell",
            "outputs": [
                {
                    "internalType": "bool",
                    "name": "flag",
                    "type": "bool"
                }
            ],
            "stateMutability": "nonpayable",
            "type": "function"
        },
        {
            "inputs": [
                {
                    "internalType": "address",
                    "name": "ia",
                    "type": "address"
                },
                {
                    "internalType": "uint256",
                    "name": "acct",
                    "type": "uint256"
                }
            ],
            "name": "mockResultsOfAcct",
            "outputs": [
                {
                    "internalType": "uint40",
                    "name": "groupRep",
                    "type": "uint40"
                },
                {
                    "internalType": "uint16",
                    "name": "ratio",
                    "type": "uint16"
                }
            ],
            "stateMutability": "view",
            "type": "function"
        },
        {
            "inputs": [
                {
                    "internalType": "address",
                    "name": "ia",
                    "type": "address"
                }
            ],
            "name": "mockResultsOfIA",
            "outputs": [
                {
                    "internalType": "uint40",
                    "name": "controllor",
                    "type": "uint40"
                },
                {
                    "internalType": "uint16",
                    "name": "ratio",
                    "type": "uint16"
                }
            ],
            "stateMutability": "view",
            "type": "function"
        },
        {
            "inputs": [],
            "name": "qtyOfDocs",
            "outputs": [
                {
                    "internalType": "uint256",
                    "name": "",
                    "type": "uint256"
                }
            ],
            "stateMutability": "view",
            "type": "function"
        },
        {
            "inputs": [
                {
                    "internalType": "address",
                    "name": "body",
                    "type": "address"
                }
            ],
            "name": "removeDoc",
            "outputs": [],
            "stateMutability": "nonpayable",
            "type": "function"
        },
        {
            "inputs": [
                {
                    "internalType": "bytes32",
                    "name": "role",
                    "type": "bytes32"
                }
            ],
            "name": "renounceRole",
            "outputs": [],
            "stateMutability": "nonpayable",
            "type": "function"
        },
        {
            "inputs": [
                {
                    "internalType": "bytes32",
                    "name": "role",
                    "type": "bytes32"
                },
                {
                    "internalType": "uint256",
                    "name": "acct",
                    "type": "uint256"
                }
            ],
            "name": "revokeRole",
            "outputs": [],
            "stateMutability": "nonpayable",
            "type": "function"
        },
        {
            "inputs": [
                {
                    "internalType": "address",
                    "name": "keeper",
                    "type": "address"
                }
            ],
            "name": "setDirectKeeper",
            "outputs": [],
            "stateMutability": "nonpayable",
            "type": "function"
        },
        {
            "inputs": [
                {
                    "internalType": "uint256",
                    "name": "acct",
                    "type": "uint256"
                }
            ],
            "name": "setGeneralCounsel",
            "outputs": [],
            "stateMutability": "nonpayable",
            "type": "function"
        },
        {
            "inputs": [
                {
                    "internalType": "uint256",
                    "name": "acct",
                    "type": "uint256"
                }
            ],
            "name": "setOwner",
            "outputs": [],
            "stateMutability": "nonpayable",
            "type": "function"
        },
        {
            "inputs": [
                {
                    "internalType": "bytes32",
                    "name": "role",
                    "type": "bytes32"
                },
                {
                    "internalType": "uint256",
                    "name": "acct",
                    "type": "uint256"
                }
            ],
            "name": "setRoleAdmin",
            "outputs": [],
            "stateMutability": "nonpayable",
            "type": "function"
        },
        {
            "inputs": [
                {
                    "internalType": "address",
                    "name": "body",
                    "type": "address"
                },
                {
                    "internalType": "uint8",
                    "name": "state",
                    "type": "uint8"
                }
            ],
            "name": "setStateOfDoc",
            "outputs": [],
            "stateMutability": "nonpayable",
            "type": "function"
        },
        {
            "inputs": [
                {
                    "internalType": "address",
                    "name": "body",
                    "type": "address"
                },
                {
                    "internalType": "uint256",
                    "name": "typeOfDoc",
                    "type": "uint256"
                }
            ],
            "name": "setTemplate",
            "outputs": [],
            "stateMutability": "nonpayable",
            "type": "function"
        },
        {
            "inputs": [
                {
                    "internalType": "uint256",
                    "name": "typeOfDoc",
                    "type": "uint256"
                }
            ],
            "name": "tempReadyFor",
            "outputs": [
                {
                    "internalType": "bool",
                    "name": "",
                    "type": "bool"
                }
            ],
            "stateMutability": "view",
            "type": "function"
        },
        {
            "inputs": [
                {
                    "internalType": "uint256",
                    "name": "typeOfDoc",
                    "type": "uint256"
                }
            ],
            "name": "template",
            "outputs": [
                {
                    "internalType": "address",
                    "name": "",
                    "type": "address"
                }
            ],
            "stateMutability": "view",
            "type": "function"
        },
        {
            "inputs": [],
            "name": "tempsList",
            "outputs": [
                {
                    "internalType": "uint256[]",
                    "name": "",
                    "type": "uint256[]"
                }
            ],
            "stateMutability": "view",
            "type": "function"
        }
    ],
    "bytecode": "608060405234801561001057600080fd5b50614c32806100206000396000f3fe608060405234801561001057600080fd5b50600436106102695760003560e01c8063893d20e811610151578063d42186fa116100c3578063e0b6888d11610087578063e0b6888d14610743578063e71d875814610756578063ed2110231461077f578063ee4b47c114610787578063f045a7691461079d578063fb255fcd146107a557600080fd5b8063d42186fa1461067b578063d9ee0f581461068e578063dc890da9146106a1578063de154c27146106b4578063deb571751461073057600080fd5b80639cf90506116101155780639cf90506146105fb578063a0b7b8a71461060e578063b3f05b9714610621578063b70ebcd814610635578063c337eee314610648578063c3c5a5471461066857600080fd5b8063893d20e81461057d5780638a4640da146105855780638bb9c5bf146105985780638c32f23d146105ab5780638f6b6587146105be57600080fd5b8063309ed9c8116101ea5780635171ebd4116101ae5780635171ebd4146104eb5780635f3bd6df146104fe5780636be8496f146105315780637e063c5a146105445780638041494e146105575780638506c43f1461056a57600080fd5b8063309ed9c81461048857806332277b111461049d5780633da9a600146104b05780634a14beb1146104c35780634be157d5146104d657600080fd5b8063211f581611610231578063211f5816146103ef57806322ea18151461040257806324344f1114610422578063289aeb571461044d5780632e050d761461047557600080fd5b80630fc89eeb1461026e578063103f6edd1461038657806310ba4e52146103a457806319d61ad9146103c75780631b6ea9f9146103dc575b600080fd5b61037061027c366004613b5b565b6040805160e081018252600080825260208201819052918101829052606081018290526080810182905260a0810182905260c0810191909152506001600160a01b03929092166000908152600b60209081526040808320938352928152828220600283528152828220938252928352819020815160e081018352815460ff81168252610100810463ffffffff16948201949094526501000000000084046001600160401b0390811693820193909352600160681b84049092166060830152600160a81b830464ffffffffff166080830152600160d01b90920465ffffffffffff1660a082015260019091015460c082015290565b60405161037d9190613bfb565b60405180910390f35b61038e6107b8565b60405164ffffffffff909116815260200161037d565b6103b76103b2366004613c09565b610844565b604051901515815260200161037d565b6103da6103d5366004613c35565b6108f3565b005b6103da6103ea366004613c35565b610987565b6103da6103fd366004613c71565b6109ac565b610415610410366004613c09565b610b75565b60405161037d9190613caa565b610435610430366004613c35565b610c23565b6040516001600160a01b03909116815260200161037d565b61046061045b366004613d43565b6110a3565b6040805192835260208301919091520161037d565b6103b7610483366004613d8f565b611181565b6104906112e3565b60405161037d9190613deb565b6103b76104ab366004613d43565b61136d565b6103da6104be366004613e2f565b611416565b6103da6104d1366004613e2f565b611528565b6104de611718565b60405161037d9190613e48565b6103da6104f9366004613c35565b6117a2565b61051161050c366004613c09565b6117c7565b6040805164ffffffffff909316835261ffff90911660208301520161037d565b6103da61053f366004613d43565b611996565b6103b7610552366004613c35565b611a48565b6103da610565366004613e2f565b611a91565b6103da610578366004613b5b565b611c76565b61038e611ead565b6103b7610593366004613e2f565b611ee8565b6103da6105a6366004613e2f565b611f76565b6103da6105b9366004613feb565b611fcf565b6103b76105cc366004613c09565b6001600160a01b03919091166000908152600a6020908152604080832093835260019093019052205460ff1690565b610490610609366004613d43565b612201565b61041561061c366004613c09565b6122a7565b60028054600160f01b900460ff16146103b7565b6103da610643366004613c09565b6123f8565b61065b610656366004613c09565b61259b565b60405161037d919061414e565b6103b7610676366004613d43565b61269b565b6103da610689366004613d43565b6126e5565b6103da61069c366004614190565b612900565b6103da6106af366004614213565b612b0c565b6106c76106c2366004613d43565b612bef565b60405161037d9190600060c08201905060ff835116825264ffffffffff6020840151166020830152604083015165ffffffffffff8082166040850152806060860151166060850152806080860151166080850152505060ff60a08401511660a083015292915050565b61051161073e366004613d43565b612d56565b6103b761075136600461425b565b612f1c565b610435610764366004613e2f565b6000908152600460205260409020546001600160a01b031690565b610435613075565b61078f6130fb565b60405190815260200161037d565b6103da613181565b6103b76107b33660046142a6565b61339f565b60405163e8c0cc1d60e01b81526002600482015260009073__$364aad554dc80380f414546becdd2c1584$__9063e8c0cc1d906024015b60206040518083038186803b15801561080757600080fd5b505af415801561081b573d6000803e3d6000fd5b505050506040513d601f19601f8201168201806040525081019061083f91906142e1565b905090565b6001600160a01b0382166000908152600b60205260408082209051633f5f77cd60e01b8152600190910160048201526024810183905273__$8c1a4844a0a0988ea2454cf87145a95df1$__90633f5f77cd906044015b60206040518083038186803b1580156108b257600080fd5b505af41580156108c6573d6000803e3d6000fd5b505050506040513d601f19601f820116820180604052508101906108ea9190614309565b90505b92915050565b73__$364aad554dc80380f414546becdd2c1584$__6382daafaa6002846109186135b8565b6040516001600160e01b031960e086901b1681526004810193909352602483019190915264ffffffffff166044820152606481018490526084015b60006040518083038186803b15801561096b57600080fd5b505af415801561097f573d6000803e3d6000fd5b505050505050565b73__$364aad554dc80380f414546becdd2c1584$__636320d75e6002846109186135b8565b60405163f698b0f160e01b8152600860048201526001600160a01b0383166024820152829073__$8c1a4844a0a0988ea2454cf87145a95df1$__9063f698b0f19060440160206040518083038186803b158015610a0857600080fd5b505af4158015610a1c573d6000803e3d6000fd5b505050506040513d601f19601f82011682018060405250810190610a409190614309565b610a655760405162461bcd60e51b8152600401610a5c90614326565b60405180910390fd5b6001546040516335d2155560e11b81523360048201526001600160a01b0390911690636ba42aaa9060240160206040518083038186803b158015610aa857600080fd5b505afa158015610abc573d6000803e3d6000fd5b505050506040513d601f19601f82011682018060405250810190610ae09190614309565b610afc5760405162461bcd60e51b8152600401610a5c9061435d565b60405160ff831681526001600160a01b038416907f7d25780785c2b2fefad30c6603980e64e6005c311412119d7e4702f602fd730a9060200160405180910390a2506001600160a01b039091166000908152600760205260409020805460ff909216600160c01b0260ff60c01b19909216919091179055565b6001600160a01b0382166000908152600a602052604090819020905162066d7160e01b815260609173__$07942fe0769ef09db064459acc9c3554b6$__9162066d7191610bcf918690600401918252602082015260400190565b60006040518083038186803b158015610be757600080fd5b505af4158015610bfb573d6000803e3d6000fd5b505050506040513d6000823e601f3d908101601f191682016040526108ea91908101906143cc565b604051633b11adbf60e21b81526002600482015233602482015260009073__$364aad554dc80380f414546becdd2c1584$__9063ec46b6fc9060440160206040518083038186803b158015610c7757600080fd5b505af4158015610c8b573d6000803e3d6000fd5b505050506040513d601f19601f82011682018060405250810190610caf9190614309565b610ccb5760405162461bcd60e51b8152600401610a5c906144d7565b604051633f5f77cd60e01b81526005600482015260248101849052839073__$8c1a4844a0a0988ea2454cf87145a95df1$__90633f5f77cd9060440160206040518083038186803b158015610d1f57600080fd5b505af4158015610d33573d6000803e3d6000fd5b505050506040513d601f19601f82011682018060405250810190610d579190614309565b610da35760405162461bcd60e51b815260206004820152601b60248201527f524f442e6d642e54523a2074656d706c617465204e4f542073657400000000006044820152606401610a5c565b604051633f5f77cd60e01b8152600560048201526000602482018190529073__$8c1a4844a0a0988ea2454cf87145a95df1$__90633f5f77cd9060440160206040518083038186803b158015610df857600080fd5b505af4158015610e0c573d6000803e3d6000fd5b505050506040513d601f19601f82011682018060405250810190610e309190614309565b610e7c5760405162461bcd60e51b815260206004820152601b60248201527f524f442e6d642e54523a2074656d706c617465204e4f542073657400000000006044820152606401610a5c565b600085815260046020526040812054610e9d906001600160a01b0316613612565b604051633e244cf360e01b8152600860048201526001600160a01b038216602482015290915073__$8c1a4844a0a0988ea2454cf87145a95df1$__90633e244cf39060440160206040518083038186803b158015610efa57600080fd5b505af4158015610f0e573d6000803e3d6000fd5b505050506040513d601f19601f82011682018060405250810190610f329190614309565b1561109a579250826001600160a01b0381167f7d25780785c2b2fefad30c6603980e64e6005c311412119d7e4702f602fd730a600160405160ff909116815260200160405180910390a26040805160c08101825260ff8816815264ffffffffff8716602082015265ffffffffffff421691810191909152600060608201819052608082015260a08101600160ff9081169091526001600160a01b0386166000908152600760209081526040918290208451815492860151938601516060870151608088015160a0909801518716600160c01b0260ff60c01b1965ffffffffffff998a16600160901b021666ffffffffffffff60901b19928a16600160601b0265ffffffffffff60601b199a9094166601000000000000029990991671ffffffffffffffffffffffff0000000000001964ffffffffff9098166101000265ffffffffffff1990971694909816939093179490941794909416949094179290921716929092171790555b50505092915050565b60405163f698b0f160e01b8152600860048201526001600160a01b03821660248201526000908190839073__$8c1a4844a0a0988ea2454cf87145a95df1$__9063f698b0f19060440160206040518083038186803b15801561110457600080fd5b505af4158015611118573d6000803e3d6000fd5b505050506040513d601f19601f8201168201806040525081019061113c9190614309565b6111585760405162461bcd60e51b8152600401610a5c90614326565b5050506001600160a01b0316600090815260076020526040902060018101546002909101549091565b6001546040516335d2155560e11b81523360048201526000916001600160a01b031690636ba42aaa9060240160206040518083038186803b1580156111c557600080fd5b505afa1580156111d9573d6000803e3d6000fd5b505050506040513d601f19601f820116820180604052508101906111fd9190614309565b6112195760405162461bcd60e51b8152600401610a5c9061435d565b6001600160a01b0385166000908152600c6020526040908190209051630620854960e41b8152600481019190915264ffffffffff8086166024830152841660448201526001600160401b038316606482015273__$0373da85302df7c003c5cc5214782e6132$__9063620854909060840160206040518083038186803b1580156112a257600080fd5b505af41580156112b6573d6000803e3d6000fd5b505050506040513d601f19601f820116820180604052508101906112da9190614309565b95945050505050565b60405163034306e160e21b81526005600482015260609073__$8c1a4844a0a0988ea2454cf87145a95df1$__90630d0c1b849060240160006040518083038186803b15801561133157600080fd5b505af4158015611345573d6000803e3d6000fd5b505050506040513d6000823e601f3d908101601f1916820160405261083f919081019061451d565b6001546040516335d2155560e11b81523360048201526000916001600160a01b031690636ba42aaa9060240160206040518083038186803b1580156113b157600080fd5b505afa1580156113c5573d6000803e3d6000fd5b505050506040513d601f19601f820116820180604052508101906113e99190614309565b6114055760405162461bcd60e51b8152600401610a5c9061435d565b61140e82613664565b90505b919050565b604051633b11adbf60e21b81526002600482015233602482015273__$364aad554dc80380f414546becdd2c1584$__9063ec46b6fc9060440160206040518083038186803b15801561146757600080fd5b505af415801561147b573d6000803e3d6000fd5b505050506040513d601f19601f8201168201806040525081019061149f9190614309565b6114bb5760405162461bcd60e51b8152600401610a5c906144d7565b60405163cc99e11b60e01b8152600260048201526024810182905273__$364aad554dc80380f414546becdd2c1584$__9063cc99e11b9060440160006040518083038186803b15801561150d57600080fd5b505af4158015611521573d6000803e3d6000fd5b5050505050565b604051633b11adbf60e21b81526002600482015233602482015273__$364aad554dc80380f414546becdd2c1584$__9063ec46b6fc9060440160206040518083038186803b15801561157957600080fd5b505af415801561158d573d6000803e3d6000fd5b505050506040513d601f19601f820116820180604052508101906115b19190614309565b80611656575073__$364aad554dc80380f414546becdd2c1584$__63fe27108660026115db6135b8565b6040516001600160e01b031960e085901b168152600481019290925264ffffffffff16602482015260440160206040518083038186803b15801561161e57600080fd5b505af4158015611632573d6000803e3d6000fd5b505050506040513d601f19601f820116820180604052508101906116569190614309565b6116725760405162461bcd60e51b8152600401610a5c906145ad565b604051632725ebef60e21b8152600260048201526024810182905273__$364aad554dc80380f414546becdd2c1584$__90639c97afbc9060440160006040518083038186803b1580156116c457600080fd5b505af41580156116d8573d6000803e3d6000fd5b505050507ff2735f34b69be1e6342dea95f9162f84d0db925fab655ca9f1f312ac8cbfc99d8160405161170d91815260200190565b60405180910390a150565b604051638f65372b60e01b81526008600482015260609073__$8c1a4844a0a0988ea2454cf87145a95df1$__90638f65372b9060240160006040518083038186803b15801561176657600080fd5b505af415801561177a573d6000803e3d6000fd5b505050506040513d6000823e601f3d908101601f1916820160405261083f9190810190614603565b73__$364aad554dc80380f414546becdd2c1584$__63ee98b3136002846109186135b8565b6001600160a01b0382166000908152600c6020526040808220905163347f09bd60e11b8152600481018290526024810184905282919073__$0373da85302df7c003c5cc5214782e6132$__906368fe137a9060440160206040518083038186803b15801561183457600080fd5b505af4158015611848573d6000803e3d6000fd5b505050506040513d601f19601f8201168201806040525081019061186c91906142e1565b604051630c86a02d60e11b81526004810183905290935073__$0373da85302df7c003c5cc5214782e6132$__9063190d405a9060240160206040518083038186803b1580156118ba57600080fd5b505af41580156118ce573d6000803e3d6000fd5b505050506040513d601f19601f820116820180604052508101906118f29190614691565b604051630776f0c360e51b81526004810183905264ffffffffff8516602482015273__$0373da85302df7c003c5cc5214782e6132$__9063eede18609060440160206040518083038186803b15801561194a57600080fd5b505af415801561195e573d6000803e3d6000fd5b505050506040513d601f19601f820116820180604052508101906119829190614691565b61198c91906146c4565b9150509250929050565b604051630f07232560e01b8152600260048201523360248201526001600160a01b038216604482015273__$364aad554dc80380f414546becdd2c1584$__90630f0723259060640160006040518083038186803b1580156119f657600080fd5b505af4158015611a0a573d6000803e3d6000fd5b50506040516001600160a01b03841681527fe435cbeab64e4eae6497b9d8289704bd709d624a80704ef3ca9af777534bc6ec9250602001905061170d565b604051632a3be56b60e21b815260026004820152602481018390526044810182905260009073__$364aad554dc80380f414546becdd2c1584$__9063a8ef95ac9060640161089a565b604051633b11adbf60e21b81526002600482015233602482015273__$364aad554dc80380f414546becdd2c1584$__9063ec46b6fc9060440160206040518083038186803b158015611ae257600080fd5b505af4158015611af6573d6000803e3d6000fd5b505050506040513d601f19601f82011682018060405250810190611b1a9190614309565b80611bbf575073__$364aad554dc80380f414546becdd2c1584$__63fe2710866002611b446135b8565b6040516001600160e01b031960e085901b168152600481019290925264ffffffffff16602482015260440160206040518083038186803b158015611b8757600080fd5b505af4158015611b9b573d6000803e3d6000fd5b505050506040513d601f19601f82011682018060405250810190611bbf9190614309565b611bdb5760405162461bcd60e51b8152600401610a5c906145ad565b60405163b6e38a2960e01b8152600260048201526024810182905273__$364aad554dc80380f414546becdd2c1584$__9063b6e38a299060440160006040518083038186803b158015611c2d57600080fd5b505af4158015611c41573d6000803e3d6000fd5b505050507f8b6f40f36b4ae8cc5f55e895036457c43da4ab1f80f58c46f5ff0d72a650033b8160405161170d91815260200190565b604051633b11adbf60e21b81526002600482015233602482015273__$364aad554dc80380f414546becdd2c1584$__9063ec46b6fc9060440160206040518083038186803b158015611cc757600080fd5b505af4158015611cdb573d6000803e3d6000fd5b505050506040513d601f19601f82011682018060405250810190611cff9190614309565b611d1b5760405162461bcd60e51b8152600401610a5c906144d7565b6000836001600160a01b031663c0961f7f6040518163ffffffff1660e01b815260040160206040518083038186803b158015611d5657600080fd5b505afa158015611d6a573d6000803e3d6000fd5b505050506040513d601f19601f82011682018060405250810190611d8e9190614703565b60ff1690506000611d9d613894565b6001600160a01b03166348462037836040518263ffffffff1660e01b8152600401611dca91815260200190565b60206040518083038186803b158015611de257600080fd5b505afa158015611df6573d6000803e3d6000fd5b505050506040513d601f19601f82011682018060405250810190611e1a9190614720565b604051634281ec6b60e11b8152600481019190915273__$9d2c69e94fee47b9774dc8db4aa5c0bbec$__90638503d8d6906024016102206040518083038186803b158015611e6757600080fd5b505af4158015611e7b573d6000803e3d6000fd5b505050506040513d601f19601f82011682018060405250810190611e9f9190614787565b905061152185828686611fcf565b60405163987ad15360e01b81526002600482015260009073__$364aad554dc80380f414546becdd2c1584$__9063987ad153906024016107ef565b604051633f5f77cd60e01b8152600560048201526024810182905260009073__$8c1a4844a0a0988ea2454cf87145a95df1$__90633f5f77cd906044015b60206040518083038186803b158015611f3e57600080fd5b505af4158015611f52573d6000803e3d6000fd5b505050506040513d601f19601f8201168201806040525081019061140e9190614309565b6000611f806135b8565b60405163cc0d511b60e01b8152600260048201526024810184905264ffffffffff8216604482015290915073__$364aad554dc80380f414546becdd2c1584$__9063cc0d511b90606401610953565b604051633b11adbf60e21b81526002600482015233602482015273__$364aad554dc80380f414546becdd2c1584$__9063ec46b6fc9060440160206040518083038186803b15801561202057600080fd5b505af4158015612034573d6000803e3d6000fd5b505050506040513d601f19601f820116820180604052508101906120589190614309565b6120745760405162461bcd60e51b8152600401610a5c906144d7565b6001600160a01b038416600090815260076020526040902054849060ff600160c01b909104166001146120e95760405162461bcd60e51b815260206004820152601b60248201527f524f442e6d642e4f46503a20446f63206e6f742070656e64696e6700000000006044820152606401610a5c565b604051600281526001600160a01b038616907f7d25780785c2b2fefad30c6603980e64e6005c311412119d7e4702f602fd730a9060200160405180910390a26001600160a01b03851660009081526007602052604090206101408501516121569060ff16620151806148aa565b61216090426148d8565b815465ffffffffffff91909116600160601b0265ffffffffffff60601b1990911617815561016085015161219a9060ff16620151806148aa565b81546121b59190600160601b900465ffffffffffff166148d8565b815460018301959095556002820193909355600160c11b66ffffffffffffff60901b1990941665ffffffffffff909316600160901b0260ff60c01b191692909217929092179055505050565b6001600160a01b0381166000908152600b602052604090819020905163034306e160e21b81526001909101600482015260609073__$8c1a4844a0a0988ea2454cf87145a95df1$__90630d0c1b849060240160006040518083038186803b15801561226b57600080fd5b505af415801561227f573d6000803e3d6000fd5b505050506040513d6000823e601f3d908101601f1916820160405261140e919081019061451d565b6001546040516335d2155560e11b81523360048201526060916001600160a01b031690636ba42aaa9060240160206040518083038186803b1580156122eb57600080fd5b505afa1580156122ff573d6000803e3d6000fd5b505050506040513d601f19601f820116820180604052508101906123239190614309565b61233f5760405162461bcd60e51b8152600401610a5c9061435d565b604080516001600160a01b0385168152602081018490527f884c85d5a19d785032f5d98a5bccdc42523d5d57ca09ee467ea4b88fba651c15910160405180910390a16001600160a01b0383166000908152600a6020526040902073__$07942fe0769ef09db064459acc9c3554b6$__906383fa51d090846123be6138ea565b6040516001600160e01b031960e086901b168152600481019390935260248301919091526001600160a01b03166044820152606401610bcf565b604051633b11adbf60e21b81526002600482015233602482015273__$364aad554dc80380f414546becdd2c1584$__9063ec46b6fc9060440160206040518083038186803b15801561244957600080fd5b505af415801561245d573d6000803e3d6000fd5b505050506040513d601f19601f820116820180604052508101906124819190614309565b61249d5760405162461bcd60e51b8152600401610a5c906144d7565b816001600160a01b03167f69e0d9bafb5046296417aaeb6e5f2d326263f2c4211bc67a7d7fa7f03b0e4373826040516124d891815260200190565b60405180910390a260008181526004602081905260409182902080546001600160a01b0319166001600160a01b03861617905590516392f13c3f60e01b81526005918101919091526024810182905273__$8c1a4844a0a0988ea2454cf87145a95df1$__906392f13c3f9060440160206040518083038186803b15801561255e57600080fd5b505af4158015612572573d6000803e3d6000fd5b505050506040513d601f19601f820116820180604052508101906125969190614309565b505050565b60606125a78383610844565b6125f35760405162461bcd60e51b815260206004820152601960248201527f424f412e434f44543a206e6f20636c61696d7320666f756e64000000000000006044820152606401610a5c565b6001600160a01b0383166000908152600b6020526040908190209051630354ffdd60e21b815260048101919091526024810183905273__$5725cd3286253580cd9593a3c0fbba90a3$__90630d53ff749060440160006040518083038186803b15801561265f57600080fd5b505af4158015612673573d6000803e3d6000fd5b505050506040513d6000823e601f3d908101601f191682016040526108ea9190810190614916565b60405163f698b0f160e01b8152600860048201526001600160a01b038216602482015260009073__$8c1a4844a0a0988ea2454cf87145a95df1$__9063f698b0f190604401611f26565b604051633b11adbf60e21b81526002600482015233602482015273__$364aad554dc80380f414546becdd2c1584$__9063ec46b6fc9060440160206040518083038186803b15801561273657600080fd5b505af415801561274a573d6000803e3d6000fd5b505050506040513d601f19601f8201168201806040525081019061276e9190614309565b61278a5760405162461bcd60e51b8152600401610a5c906144d7565b6001600160a01b038116600090815260076020526040902054819060ff600160c01b909104166001146127ff5760405162461bcd60e51b815260206004820152601b60248201527f524f442e6d642e4f46503a20446f63206e6f742070656e64696e6700000000006044820152606401610a5c565b604051636ea2751560e01b8152600860048201526001600160a01b038316602482015273__$8c1a4844a0a0988ea2454cf87145a95df1$__90636ea275159060440160206040518083038186803b15801561285957600080fd5b505af415801561286d573d6000803e3d6000fd5b505050506040513d601f19601f820116820180604052508101906128919190614309565b156128fc576040516001600160a01b038316907f05633b380cd1dd8bb1af7cbbf29e862857a3f147da66cbb23bdad8f7e527830b90600090a26001600160a01b038216600090815260076020526040812080546001600160c81b031916815560018101829055600201555b5050565b6001546040516335d2155560e11b81523360048201526001600160a01b0390911690636ba42aaa9060240160206040518083038186803b15801561294357600080fd5b505afa158015612957573d6000803e3d6000fd5b505050506040513d601f19601f8201168201806040525081019061297b9190614309565b6129975760405162461bcd60e51b8152600401610a5c9061435d565b6001600160a01b0388166000908152600b60205260409081902090516001621cdcdd60e31b031981526004810191909152871515602482015260448101879052606481018690526001600160401b038086166084830152841660a482015260c4810183905260e4810182905273__$5725cd3286253580cd9593a3c0fbba90a3$__9063ff191918906101040160206040518083038186803b158015612a3b57600080fd5b505af4158015612a4f573d6000803e3d6000fd5b505050506040513d601f19601f82011682018060405250810190612a739190614309565b15612b0257604080516001600160a01b038a1681528815156020820152908101879052606081018690526001600160401b038086166080830152841660a082015260c0810183905260e081018290527f7e62fd03e27a8b5cdb4bc7ed778aac2358d8fa0e4366d32b85297b3e39831ede906101000160405180910390a1612b0288612afd8a612bef565b61393a565b5050505050505050565b612b15826139c2565b612b1e81613a71565b604051636cdd0edf60e11b815260026004820152602481018590526001600160a01b038416604482015273__$364aad554dc80380f414546becdd2c1584$__9063d9ba1dbe9060640160006040518083038186803b158015612b7f57600080fd5b505af4158015612b93573d6000803e3d6000fd5b5050604080518781526001600160a01b038781166020830152868116828401528516606082015290517f3abb2418c66fe32ba9c883030a75ce583971d9af9192b9b74e44e67c5e6c8c1f9350908190036080019150a150505050565b6040805160c081018252600080825260208201819052818301819052606082018190526080820181905260a0820152905163f698b0f160e01b8152600860048201526001600160a01b0383166024820152829073__$8c1a4844a0a0988ea2454cf87145a95df1$__9063f698b0f19060440160206040518083038186803b158015612c7957600080fd5b505af4158015612c8d573d6000803e3d6000fd5b505050506040513d601f19601f82011682018060405250810190612cb19190614309565b612ccd5760405162461bcd60e51b8152600401610a5c90614326565b50506001600160a01b0316600090815260076020908152604091829020825160c081018452905460ff808216835264ffffffffff6101008304169383019390935265ffffffffffff66010000000000008204811694830194909452600160601b810484166060830152600160901b81049093166080820152600160c01b9092041660a082015290565b6001600160a01b0381166000908152600c6020526040808220905163feeac47f60e01b81526004810182905282919073__$0373da85302df7c003c5cc5214782e6132$__9063feeac47f9060240160206040518083038186803b158015612dbc57600080fd5b505af4158015612dd0573d6000803e3d6000fd5b505050506040513d601f19601f82011682018060405250810190612df491906142e1565b604051630c86a02d60e11b81526004810183905290935073__$0373da85302df7c003c5cc5214782e6132$__9063190d405a9060240160206040518083038186803b158015612e4257600080fd5b505af4158015612e56573d6000803e3d6000fd5b505050506040513d601f19601f82011682018060405250810190612e7a9190614691565b604051630776f0c360e51b81526004810183905264ffffffffff8516602482015273__$0373da85302df7c003c5cc5214782e6132$__9063eede18609060440160206040518083038186803b158015612ed257600080fd5b505af4158015612ee6573d6000803e3d6000fd5b505050506040513d601f19601f82011682018060405250810190612f0a9190614691565b612f1491906146c4565b915050915091565b6001546040516335d2155560e11b81523360048201526000916001600160a01b031690636ba42aaa9060240160206040518083038186803b158015612f6057600080fd5b505afa158015612f74573d6000803e3d6000fd5b505050506040513d601f19601f82011682018060405250810190612f989190614309565b612fb45760405162461bcd60e51b8152600401610a5c9061435d565b6001600160a01b0384166000908152600c6020526040908190209051637c4e14df60e01b8152600481019190915264ffffffffff841660248201526001600160401b038316604482015273__$0373da85302df7c003c5cc5214782e6132$__90637c4e14df9060640160206040518083038186803b15801561303557600080fd5b505af4158015613049573d6000803e3d6000fd5b505050506040513d601f19601f8201168201806040525081019061306d9190614309565b949350505050565b604051633c3e56c160e11b81526002600482015260009073__$364aad554dc80380f414546becdd2c1584$__9063787cad829060240160206040518083038186803b1580156130c357600080fd5b505af41580156130d7573d6000803e3d6000fd5b505050506040513d601f19601f8201168201806040525081019061083f9190614a21565b604051635e77c9af60e01b81526008600482015260009073__$8c1a4844a0a0988ea2454cf87145a95df1$__90635e77c9af9060240160206040518083038186803b15801561314957600080fd5b505af415801561315d573d6000803e3d6000fd5b505050506040513d601f19601f8201168201806040525081019061083f9190614720565b604051633b11adbf60e21b81526002600482015233602482015273__$364aad554dc80380f414546becdd2c1584$__9063ec46b6fc9060440160206040518083038186803b1580156131d257600080fd5b505af41580156131e6573d6000803e3d6000fd5b505050506040513d601f19601f8201168201806040525081019061320a9190614309565b6132265760405162461bcd60e51b8152600401610a5c906144d7565b600254600160f01b900460ff166001146132825760405162461bcd60e51b815260206004820181905260248201527f41432e6f6e6c7950656e64696e673a20446f632069732066696e616c697a65646044820152606401610a5c565b60405163cc99e11b60e01b815260026004820152684174746f726e65797360b81b602482015273__$364aad554dc80380f414546becdd2c1584$__9063cc99e11b9060440160006040518083038186803b1580156132df57600080fd5b505af41580156132f3573d6000803e3d6000fd5b5050604051632725ebef60e21b8152600260048201526000602482015273__$364aad554dc80380f414546becdd2c1584$__9250639c97afbc915060440160006040518083038186803b15801561334957600080fd5b505af415801561335d573d6000803e3d6000fd5b50506002805460ff60f01b1916600160f11b17905550506040517f35012b512309c322acf68632cd6cb702ff0e1d776fbe9394e38ffc13b434fe7590600090a1565b6001546040516335d2155560e11b81523360048201526000916001600160a01b031690636ba42aaa9060240160206040518083038186803b1580156133e357600080fd5b505afa1580156133f7573d6000803e3d6000fd5b505050506040513d601f19601f8201168201806040525081019061341b9190614309565b6134375760405162461bcd60e51b8152600401610a5c9061435d565b600061344286612bef565b905042816060015165ffffffffffff161161349f5760405162461bcd60e51b815260206004820181905260248201527f424f412e454652523a206d69737365642073686145786563446561646c696e656044820152606401610a5c565b6001600160a01b0386166000908152600a60205260409081902090516376ff595960e11b8152600481019190915260248101869052604481018590526064810184905273__$07942fe0769ef09db064459acc9c3554b6$__9063edfeb2b29060840160206040518083038186803b15801561351957600080fd5b505af415801561352d573d6000803e3d6000fd5b505050506040513d601f19601f820116820180604052508101906135519190614309565b156135af57604080516001600160a01b0388168152602081018790529081018590527f467f092855caf5a74110a305218e0d11890e77b0fa3730e0f28e7133dc6214189060600160405180910390a16135aa868261393a565b600191505b50949350505050565b60008054604051634de835e760e11b81523360048201526001600160a01b0390911690639bd06bce90602401602060405180830381600087803b1580156135fe57600080fd5b505af115801561081b573d6000803e3d6000fd5b6000808260601b9050604051733d602d80600a3d3981f3363d3d373d3d3d363d7360601b81528160148201526e5af43d82803e903d91602b57fd5bf360881b60288201526037816000f0949350505050565b6001600160a01b0381166000908152600c60205260408082209051636878e4e760e11b8152600481019190915273__$0373da85302df7c003c5cc5214782e6132$__9063d0f1c9ce9060240160206040518083038186803b1580156136c857600080fd5b505af41580156136dc573d6000803e3d6000fd5b505050506040513d601f19601f820116820180604052508101906137009190614a3e565b63ffffffff16611411576001600160a01b0382166000908152600c6020526040902073__$0373da85302df7c003c5cc5214782e6132$__90630bbbb610906137466138ea565b6001600160a01b0316639c54297c6040518163ffffffff1660e01b815260040160006040518083038186803b15801561377e57600080fd5b505afa158015613792573d6000803e3d6000fd5b505050506040513d6000823e601f3d908101601f191682016040526137ba9190810190614a59565b6040518363ffffffff1660e01b81526004016137d7929190614b5e565b60006040518083038186803b1580156137ef57600080fd5b505af4158015613803573d6000803e3d6000fd5b505050506001600160a01b0382166000818152600c6020526040908190209051637b109bf560e01b81526004810191909152602481019190915273__$0373da85302df7c003c5cc5214782e6132$__90637b109bf59060440160006040518083038186803b15801561387457600080fd5b505af4158015613888573d6000803e3d6000fd5b50600195945050505050565b600061389e613b28565b6001600160a01b0316632f5f3b3c6040518163ffffffff1660e01b815260040160206040518083038186803b1580156138d657600080fd5b505afa1580156130d7573d6000803e3d6000fd5b6001546000906001600160a01b031663e0ff5b8b60075b6040516001600160e01b031960e084901b16815260ff909116600482015260240160206040518083038186803b1580156138d657600080fd5b600260ff168160a0015160ff1611156128fc576139588260026109ac565b6080810151604051632e4c9cd560e01b81526000600482015265ffffffffffff90911660248201526001600160a01b03831690632e4c9cd590604401600060405180830381600087803b1580156139ae57600080fd5b505af115801561097f573d6000803e3d6000fd5b6000546001600160a01b031615613a135760405162461bcd60e51b815260206004820152601560248201527430b63932b0b23c9039b2ba103932b3a1b2b73a32b960591b6044820152606401610a5c565b6040516001600160a01b03821681527f318da6c7624c71cbc0afe346c9d8827f119d0ecefb241a7b0c87217a076a8e029060200160405180910390a1600080546001600160a01b0319166001600160a01b0392909216919091179055565b6001546001600160a01b031615613aca5760405162461bcd60e51b815260206004820152601960248201527f616c7265616479207365742067656e6572616c4b6565706572000000000000006044820152606401610a5c565b6040516001600160a01b03821681527fe513d3e0f0d0a3877029dcc588748679a7a3450ec1ec7ed56d96bd012c3e61aa9060200160405180910390a1600180546001600160a01b0319166001600160a01b0392909216919091179055565b6001546000906001600160a01b031663e0ff5b8b6003613901565b6001600160a01b0381168114613b5857600080fd5b50565b600080600060608486031215613b7057600080fd5b8335613b7b81613b43565b95602085013595506040909401359392505050565b60ff815116825263ffffffff602082015116602083015260408101516001600160401b038082166040850152806060840151166060850152505064ffffffffff608082015116608083015265ffffffffffff60a08201511660a083015260c081015160c08301525050565b60e081016108ed8284613b90565b60008060408385031215613c1c57600080fd5b8235613c2781613b43565b946020939093013593505050565b60008060408385031215613c4857600080fd5b50508035926020909101359150565b60ff81168114613b5857600080fd5b803561141181613c57565b60008060408385031215613c8457600080fd5b8235613c8f81613b43565b91506020830135613c9f81613c57565b809150509250929050565b602080825282518282018190526000919060409081850190868401855b82811015613d36578151805161ffff1685528681015164ffffffffff1687860152858101516001600160401b03908116878701526060808301519091169086015260808082015165ffffffffffff169086015260a0908101519085015260c09093019290850190600101613cc7565b5091979650505050505050565b600060208284031215613d5557600080fd5b8135613d6081613b43565b9392505050565b64ffffffffff81168114613b5857600080fd5b6001600160401b0381168114613b5857600080fd5b60008060008060808587031215613da557600080fd5b8435613db081613b43565b93506020850135613dc081613d67565b92506040850135613dd081613d67565b91506060850135613de081613d7a565b939692955090935050565b6020808252825182820181905260009190848201906040850190845b81811015613e2357835183529284019291840191600101613e07565b50909695505050505050565b600060208284031215613e4157600080fd5b5035919050565b6020808252825182820181905260009190848201906040850190845b81811015613e235783516001600160a01b031683529284019291840191600101613e64565b634e487b7160e01b600052604160045260246000fd5b6040516101e081016001600160401b0381118282101715613ec257613ec2613e89565b60405290565b60405160c081016001600160401b0381118282101715613ec257613ec2613e89565b60405160e081016001600160401b0381118282101715613ec257613ec2613e89565b604051606081016001600160401b0381118282101715613ec257613ec2613e89565b604051601f8201601f191681016001600160401b0381118282101715613f5657613f56613e89565b604052919050565b61ffff81168114613b5857600080fd5b803561141181613f5e565b8015158114613b5857600080fd5b803561141181613f79565b600082601f830112613fa357600080fd5b613fab613f0c565b806060840185811115613fbd57600080fd5b845b81811015613fe0578035613fd281613d67565b845260209384019301613fbf565b509095945050505050565b60008060008084860361028081121561400357600080fd5b853561400e81613b43565b9450610220601f198201121561402357600080fd5b5061402c613e9f565b61403860208701613f6e565b815261404660408701613c66565b602082015261405760608701613c66565b604082015261406860808701613c66565b606082015261407960a08701613f6e565b608082015261408a60c08701613f6e565b60a082015261409b60e08701613f87565b60c08201526101006140ae818801613f87565b60e08301526101206140c1818901613f87565b8284015261014091506140d5828901613f87565b908301526101606140e7888201613c66565b8284015261018091506140fb828901613c66565b908301526101a061410d888201613c66565b828401526101c09150614121828901613c66565b90830152614133886101e08901613f92565b90820152939693955050505061024082013591610260013590565b6020808252825182820181905260009190848201906040850190845b81811015613e235761417d838551613b90565b9284019260e0929092019160010161416a565b600080600080600080600080610100898b0312156141ad57600080fd5b88356141b881613b43565b975060208901356141c881613f79565b9650604089013595506060890135945060808901356141e681613d7a565b935060a08901356141f681613d7a565b979a969950949793969295929450505060c08201359160e0013590565b6000806000806080858703121561422957600080fd5b84359350602085013561423b81613b43565b9250604085013561424b81613b43565b91506060850135613de081613b43565b60008060006060848603121561427057600080fd5b833561427b81613b43565b9250602084013561428b81613d67565b9150604084013561429b81613d7a565b809150509250925092565b600080600080608085870312156142bc57600080fd5b84356142c781613b43565b966020860135965060408601359560600135945092505050565b6000602082840312156142f357600080fd5b8151613d6081613d67565b805161141181613f79565b60006020828403121561431b57600080fd5b8151613d6081613f79565b6020808252601d908201527f524f442e6d642e4f523a20646f63204e4f542072656769737465726564000000604082015260600190565b60208082526011908201527020a19737b59d103737ba1025b2b2b832b960791b604082015260600190565b60006001600160401b038211156143a1576143a1613e89565b5060051b60200190565b805161141181613f5e565b805165ffffffffffff8116811461141157600080fd5b600060208083850312156143df57600080fd5b82516001600160401b038111156143f557600080fd5b8301601f8101851361440657600080fd5b805161441961441482614388565b613f2e565b81815260c0918202830184019184820191908884111561443857600080fd5b938501935b838510156144cb5780858a0312156144555760008081fd5b61445d613ec8565b855161446881613f5e565b81528587015161447781613d67565b8188015260408681015161448a81613d7a565b9082015260608681015161449d81613d7a565b9082015260806144ae8782016143b6565b9082015260a086810151908201528352938401939185019161443d565b50979650505050505050565b60208082526026908201527f41432e6f6e6c794469726563744b65657065723a206e6f74206469726563742060408201526535b2b2b832b960d11b606082015260800190565b6000602080838503121561453057600080fd5b82516001600160401b0381111561454657600080fd5b8301601f8101851361455757600080fd5b805161456561441482614388565b81815260059190911b8201830190838101908783111561458457600080fd5b928401925b828410156145a257835182529284019290840190614589565b979650505050505050565b60208082526036908201527f41432e6f776e65724f72446972656374426f6f6b65657065723a206e6569746860408201527532b91037bbb732b9103737b9103137b7b5b2b2b832b960511b606082015260800190565b6000602080838503121561461657600080fd5b82516001600160401b0381111561462c57600080fd5b8301601f8101851361463d57600080fd5b805161464b61441482614388565b81815260059190911b8201830190838101908783111561466a57600080fd5b928401925b828410156145a257835161468281613b43565b8252928401929084019061466f565b6000602082840312156146a357600080fd5b8151613d6081613d7a565b634e487b7160e01b600052601160045260246000fd5b60006001600160401b03808416806146ec57634e487b7160e01b600052601260045260246000fd5b92169190910492915050565b805161141181613c57565b60006020828403121561471557600080fd5b8151613d6081613c57565b60006020828403121561473257600080fd5b5051919050565b600082601f83011261474a57600080fd5b614752613f0c565b80606084018581111561476457600080fd5b845b81811015613fe057805161477981613d67565b845260209384019301614766565b6000610220828403121561479a57600080fd5b6147a2613e9f565b6147ab836143ab565b81526147b9602084016146f8565b60208201526147ca604084016146f8565b60408201526147db606084016146f8565b60608201526147ec608084016143ab565b60808201526147fd60a084016143ab565b60a082015261480e60c084016142fe565b60c082015261481f60e084016142fe565b60e08201526101006148328185016142fe565b908201526101206148448482016142fe565b908201526101406148568482016146f8565b908201526101606148688482016146f8565b9082015261018061487a8482016146f8565b908201526101a061488c8482016146f8565b908201526101c061489f85858301614739565b908201529392505050565b600065ffffffffffff808316818516818304811182151516156148cf576148cf6146ae565b02949350505050565b600065ffffffffffff8083168185168083038211156148f9576148f96146ae565b01949350505050565b805163ffffffff8116811461141157600080fd5b6000602080838503121561492957600080fd5b82516001600160401b0381111561493f57600080fd5b8301601f8101851361495057600080fd5b805161495e61441482614388565b81815260e0918202830184019184820191908884111561497d57600080fd5b938501935b838510156144cb5780858a03121561499a5760008081fd5b6149a2613eea565b85516149ad81613c57565b81526149ba868801614902565b878201526040808701516149cd81613d7a565b908201526060868101516149e081613d7a565b908201526080868101516149f381613d67565b9082015260a0614a048782016143b6565b9082015260c0868101519082015283529384019391850191614982565b600060208284031215614a3357600080fd5b8151613d6081613b43565b600060208284031215614a5057600080fd5b6108ea82614902565b60006020808385031215614a6c57600080fd5b82516001600160401b03811115614a8257600080fd5b8301601f81018513614a9357600080fd5b8051614aa161441482614388565b81815260c09182028301840191848201919088841115614ac057600080fd5b938501935b838510156144cb5780858a031215614add5760008081fd5b614ae5613ec8565b8551614af081613d67565b815285870151614aff81613d67565b81880152604086810151614b1281613d67565b90820152606086810151614b2581613d7a565b90820152608086810151614b3881613d7a565b9082015260a086810151614b4b81613c57565b9082015283529384019391850191614ac5565b600060408083018584526020828186015281865180845260609350838701915082880160005b82811015614bed578151805164ffffffffff908116865286820151811687870152888201511688860152868101516001600160401b03908116888701526080808301519091169086015260a09081015160ff169085015260c09093019290840190600101614b84565b5091999850505050505050505056fea2646970667358221220671918f947edf20f7b33ebd1ece149e3a17970f21f858f271f3330e2629a67f664736f6c63430008080033",
    "sourcePath": "/Users/kaptain/github.com/hardhat/comboox/contracts/books/boa/BookOfIA.sol",
    "compiler": {
        "name": "solc",
        "version": "0.8.8+commit.dddeac2f"
    },
    "functionHashes": {
        "abandonRole(bytes32)": "3da9a600",
        "acceptFirstRefusalClaims(address,uint256)": "a0b7b8a7",
        "circulateDoc(address,(uint16,uint8,uint8,uint8,uint16,uint16,bool,bool,bool,bool,uint8,uint8,uint8,uint8,uint40[3]),bytes32,bytes32)": "8c32f23d",
        "circulateIA(address,bytes32,bytes32)": "8506c43f",
        "claimsOfFR(address,uint256)": "22ea1815",
        "createDoc(uint256,uint256)": "24344f11",
        "createMockOfIA(address)": "32277b11",
        "docsList()": "4be157d5",
        "execAlongRight(address,bool,uint256,uint256,uint64,uint64,uint256,bytes32)": "d9ee0f58",
        "execFirstRefusalRight(address,uint256,uint256,bytes32)": "fb255fcd",
        "finalized()": "b3f05b97",
        "getBookeeper()": "ed211023",
        "getDTClaimForShare(address,uint256,uint256)": "0fc89eeb",
        "getDTClaimsForDeal(address,uint256)": "c337eee3",
        "getDraggingDeals(address)": "9cf90506",
        "getGeneralCounsel()": "103f6edd",
        "getHeadOfDoc(address)": "de154c27",
        "getOwner()": "893d20e8",
        "getRefOfDoc(address)": "289aeb57",
        "grantRole(bytes32,uint256)": "1b6ea9f9",
        "hasDTClaims(address,uint256)": "10ba4e52",
        "hasRole(bytes32,uint256)": "7e063c5a",
        "init(uint256,address,address,address)": "dc890da9",
        "isFRClaimer(address,uint256)": "8f6b6587",
        "isRegistered(address)": "c3c5a547",
        "lockContents()": "f045a769",
        "mockDealOfBuy(address,uint40,uint40,uint64)": "2e050d76",
        "mockDealOfSell(address,uint40,uint64)": "e0b6888d",
        "mockResultsOfAcct(address,uint256)": "5f3bd6df",
        "mockResultsOfIA(address)": "deb57175",
        "qtyOfDocs()": "ee4b47c1",
        "removeDoc(address)": "d42186fa",
        "renounceRole(bytes32)": "8bb9c5bf",
        "revokeRole(bytes32,uint256)": "19d61ad9",
        "setDirectKeeper(address)": "6be8496f",
        "setGeneralCounsel(uint256)": "4a14beb1",
        "setOwner(uint256)": "8041494e",
        "setRoleAdmin(bytes32,uint256)": "5171ebd4",
        "setStateOfDoc(address,uint8)": "211f5816",
        "setTemplate(address,uint256)": "b70ebcd8",
        "tempReadyFor(uint256)": "8a4640da",
        "template(uint256)": "e71d8758",
        "tempsList()": "309ed9c8"
    },
    "gasEstimates": {
        "creation": {
            "codeDepositCost": "3901200",
            "executionCost": "4437",
            "totalCost": "3905637"
        },
        "external": {
            "abandonRole(bytes32)": "infinite",
            "acceptFirstRefusalClaims(address,uint256)": "infinite",
            "circulateDoc(address,(uint16,uint8,uint8,uint8,uint16,uint16,bool,bool,bool,bool,uint8,uint8,uint8,uint8,uint40[3]),bytes32,bytes32)": "infinite",
            "circulateIA(address,bytes32,bytes32)": "infinite",
            "claimsOfFR(address,uint256)": "infinite",
            "createDoc(uint256,uint256)": "infinite",
            "createMockOfIA(address)": "infinite",
            "docsList()": "infinite",
            "execAlongRight(address,bool,uint256,uint256,uint64,uint64,uint256,bytes32)": "infinite",
            "execFirstRefusalRight(address,uint256,uint256,bytes32)": "infinite",
            "finalized()": "2416",
            "getBookeeper()": "infinite",
            "getDTClaimForShare(address,uint256,uint256)": "5680",
            "getDTClaimsForDeal(address,uint256)": "infinite",
            "getDraggingDeals(address)": "infinite",
            "getGeneralCounsel()": "infinite",
            "getHeadOfDoc(address)": "infinite",
            "getOwner()": "infinite",
            "getRefOfDoc(address)": "infinite",
            "grantRole(bytes32,uint256)": "infinite",
            "hasDTClaims(address,uint256)": "infinite",
            "hasRole(bytes32,uint256)": "infinite",
            "init(uint256,address,address,address)": "infinite",
            "isFRClaimer(address,uint256)": "2785",
            "isRegistered(address)": "infinite",
            "lockContents()": "infinite",
            "mockDealOfBuy(address,uint40,uint40,uint64)": "infinite",
            "mockDealOfSell(address,uint40,uint64)": "infinite",
            "mockResultsOfAcct(address,uint256)": "infinite",
            "mockResultsOfIA(address)": "infinite",
            "qtyOfDocs()": "infinite",
            "removeDoc(address)": "infinite",
            "renounceRole(bytes32)": "infinite",
            "revokeRole(bytes32,uint256)": "infinite",
            "setDirectKeeper(address)": "infinite",
            "setGeneralCounsel(uint256)": "infinite",
            "setOwner(uint256)": "infinite",
            "setRoleAdmin(bytes32,uint256)": "infinite",
            "setStateOfDoc(address,uint8)": "infinite",
            "setTemplate(address,uint256)": "infinite",
            "tempReadyFor(uint256)": "infinite",
            "template(uint256)": "2543",
            "tempsList()": "infinite"
        },
        "internal": {
            "_createMockOfIA(address)": "infinite",
            "_resetDoc(address,struct IRepoOfDocs.Head memory)": "infinite"
        }
    }
}