{
    "contractName": "BookOfIA",
    "abi": [
        {
            "anonymous": false,
            "inputs": [
                {
                    "indexed": false,
                    "internalType": "uint40",
                    "name": "owner",
                    "type": "uint40"
                },
                {
                    "indexed": false,
                    "internalType": "address",
                    "name": "directKeeper",
                    "type": "address"
                },
                {
                    "indexed": false,
                    "internalType": "address",
                    "name": "regCenter",
                    "type": "address"
                },
                {
                    "indexed": false,
                    "internalType": "address",
                    "name": "generalKeeper",
                    "type": "address"
                }
            ],
            "name": "Init",
            "type": "event"
        },
        {
            "anonymous": false,
            "inputs": [],
            "name": "LockContents",
            "type": "event"
        },
        {
            "anonymous": false,
            "inputs": [
                {
                    "indexed": true,
                    "internalType": "address",
                    "name": "body",
                    "type": "address"
                }
            ],
            "name": "RemoveDoc",
            "type": "event"
        },
        {
            "anonymous": false,
            "inputs": [
                {
                    "indexed": false,
                    "internalType": "address",
                    "name": "keeper",
                    "type": "address"
                }
            ],
            "name": "SetDirectKeeper",
            "type": "event"
        },
        {
            "anonymous": false,
            "inputs": [
                {
                    "indexed": false,
                    "internalType": "uint256",
                    "name": "acct",
                    "type": "uint256"
                }
            ],
            "name": "SetGeneralCounsel",
            "type": "event"
        },
        {
            "anonymous": false,
            "inputs": [
                {
                    "indexed": false,
                    "internalType": "address",
                    "name": "gk",
                    "type": "address"
                }
            ],
            "name": "SetGeneralKeeper",
            "type": "event"
        },
        {
            "anonymous": false,
            "inputs": [
                {
                    "indexed": false,
                    "internalType": "uint256",
                    "name": "acct",
                    "type": "uint256"
                }
            ],
            "name": "SetOwner",
            "type": "event"
        },
        {
            "anonymous": false,
            "inputs": [
                {
                    "indexed": false,
                    "internalType": "address",
                    "name": "rc",
                    "type": "address"
                }
            ],
            "name": "SetRegCenter",
            "type": "event"
        },
        {
            "anonymous": false,
            "inputs": [
                {
                    "indexed": true,
                    "internalType": "address",
                    "name": "temp",
                    "type": "address"
                },
                {
                    "indexed": false,
                    "internalType": "uint256",
                    "name": "typeOfDoc",
                    "type": "uint256"
                }
            ],
            "name": "SetTemplate",
            "type": "event"
        },
        {
            "anonymous": false,
            "inputs": [
                {
                    "indexed": true,
                    "internalType": "address",
                    "name": "body",
                    "type": "address"
                },
                {
                    "indexed": false,
                    "internalType": "uint8",
                    "name": "state",
                    "type": "uint8"
                }
            ],
            "name": "UpdateStateOfDoc",
            "type": "event"
        },
        {
            "inputs": [
                {
                    "internalType": "bytes32",
                    "name": "role",
                    "type": "bytes32"
                }
            ],
            "name": "abandonRole",
            "outputs": [],
            "stateMutability": "nonpayable",
            "type": "function"
        },
        {
            "inputs": [
                {
                    "internalType": "address",
                    "name": "ia",
                    "type": "address"
                },
                {
                    "internalType": "uint16",
                    "name": "seqOfDeal",
                    "type": "uint16"
                }
            ],
            "name": "acceptFirstRefusalClaims",
            "outputs": [
                {
                    "components": [
                        {
                            "internalType": "uint16",
                            "name": "seqOfDeal",
                            "type": "uint16"
                        },
                        {
                            "internalType": "uint40",
                            "name": "rightholder",
                            "type": "uint40"
                        },
                        {
                            "internalType": "uint64",
                            "name": "weight",
                            "type": "uint64"
                        },
                        {
                            "internalType": "uint64",
                            "name": "ratio",
                            "type": "uint64"
                        }
                    ],
                    "internalType": "struct FRClaims.Claim[]",
                    "name": "output",
                    "type": "tuple[]"
                }
            ],
            "stateMutability": "nonpayable",
            "type": "function"
        },
        {
            "inputs": [
                {
                    "internalType": "address",
                    "name": "body",
                    "type": "address"
                },
                {
                    "internalType": "bytes32",
                    "name": "rule",
                    "type": "bytes32"
                },
                {
                    "internalType": "bytes32",
                    "name": "docUrl",
                    "type": "bytes32"
                },
                {
                    "internalType": "bytes32",
                    "name": "docHash",
                    "type": "bytes32"
                }
            ],
            "name": "circulateDoc",
            "outputs": [],
            "stateMutability": "nonpayable",
            "type": "function"
        },
        {
            "inputs": [
                {
                    "internalType": "address",
                    "name": "ia",
                    "type": "address"
                },
                {
                    "internalType": "bytes32",
                    "name": "docUrl",
                    "type": "bytes32"
                },
                {
                    "internalType": "bytes32",
                    "name": "docHash",
                    "type": "bytes32"
                }
            ],
            "name": "circulateIA",
            "outputs": [],
            "stateMutability": "nonpayable",
            "type": "function"
        },
        {
            "inputs": [
                {
                    "internalType": "address",
                    "name": "ia",
                    "type": "address"
                },
                {
                    "internalType": "uint256",
                    "name": "seqOfDeal",
                    "type": "uint256"
                }
            ],
            "name": "claimsOfFR",
            "outputs": [
                {
                    "components": [
                        {
                            "internalType": "uint16",
                            "name": "seqOfDeal",
                            "type": "uint16"
                        },
                        {
                            "internalType": "uint40",
                            "name": "rightholder",
                            "type": "uint40"
                        },
                        {
                            "internalType": "uint64",
                            "name": "weight",
                            "type": "uint64"
                        },
                        {
                            "internalType": "uint64",
                            "name": "ratio",
                            "type": "uint64"
                        }
                    ],
                    "internalType": "struct FRClaims.Claim[]",
                    "name": "",
                    "type": "tuple[]"
                }
            ],
            "stateMutability": "view",
            "type": "function"
        },
        {
            "inputs": [
                {
                    "internalType": "uint8",
                    "name": "docType",
                    "type": "uint8"
                },
                {
                    "internalType": "uint40",
                    "name": "creator",
                    "type": "uint40"
                }
            ],
            "name": "createDoc",
            "outputs": [
                {
                    "internalType": "address",
                    "name": "body",
                    "type": "address"
                },
                {
                    "internalType": "address",
                    "name": "sigPage",
                    "type": "address"
                }
            ],
            "stateMutability": "nonpayable",
            "type": "function"
        },
        {
            "inputs": [
                {
                    "internalType": "address",
                    "name": "ia",
                    "type": "address"
                },
                {
                    "internalType": "uint40",
                    "name": "creator",
                    "type": "uint40"
                }
            ],
            "name": "createMockResults",
            "outputs": [
                {
                    "internalType": "address",
                    "name": "mock",
                    "type": "address"
                }
            ],
            "stateMutability": "nonpayable",
            "type": "function"
        },
        {
            "inputs": [],
            "name": "docsList",
            "outputs": [
                {
                    "internalType": "address[]",
                    "name": "",
                    "type": "address[]"
                }
            ],
            "stateMutability": "view",
            "type": "function"
        },
        {
            "inputs": [
                {
                    "internalType": "address",
                    "name": "ia",
                    "type": "address"
                },
                {
                    "internalType": "uint16",
                    "name": "seqOfDeal",
                    "type": "uint16"
                },
                {
                    "internalType": "uint40",
                    "name": "caller",
                    "type": "uint40"
                }
            ],
            "name": "execFirstRefusalRight",
            "outputs": [
                {
                    "internalType": "bool",
                    "name": "flag",
                    "type": "bool"
                }
            ],
            "stateMutability": "nonpayable",
            "type": "function"
        },
        {
            "inputs": [],
            "name": "finalized",
            "outputs": [
                {
                    "internalType": "bool",
                    "name": "",
                    "type": "bool"
                }
            ],
            "stateMutability": "view",
            "type": "function"
        },
        {
            "inputs": [],
            "name": "getBookeeper",
            "outputs": [
                {
                    "internalType": "address",
                    "name": "",
                    "type": "address"
                }
            ],
            "stateMutability": "view",
            "type": "function"
        },
        {
            "inputs": [],
            "name": "getGeneralCounsel",
            "outputs": [
                {
                    "internalType": "uint40",
                    "name": "",
                    "type": "uint40"
                }
            ],
            "stateMutability": "view",
            "type": "function"
        },
        {
            "inputs": [
                {
                    "internalType": "address",
                    "name": "body",
                    "type": "address"
                }
            ],
            "name": "getHeadOfDoc",
            "outputs": [
                {
                    "components": [
                        {
                            "internalType": "uint8",
                            "name": "docType",
                            "type": "uint8"
                        },
                        {
                            "internalType": "uint40",
                            "name": "creator",
                            "type": "uint40"
                        },
                        {
                            "internalType": "uint48",
                            "name": "createDate",
                            "type": "uint48"
                        },
                        {
                            "internalType": "uint48",
                            "name": "shaExecDeadline",
                            "type": "uint48"
                        },
                        {
                            "internalType": "uint48",
                            "name": "proposeDeadline",
                            "type": "uint48"
                        },
                        {
                            "internalType": "uint8",
                            "name": "state",
                            "type": "uint8"
                        }
                    ],
                    "internalType": "struct IRepoOfDocs.Head",
                    "name": "head",
                    "type": "tuple"
                }
            ],
            "stateMutability": "view",
            "type": "function"
        },
        {
            "inputs": [],
            "name": "getOwner",
            "outputs": [
                {
                    "internalType": "uint40",
                    "name": "",
                    "type": "uint40"
                }
            ],
            "stateMutability": "view",
            "type": "function"
        },
        {
            "inputs": [
                {
                    "internalType": "address",
                    "name": "body",
                    "type": "address"
                }
            ],
            "name": "getRefOfDoc",
            "outputs": [
                {
                    "internalType": "bytes32",
                    "name": "docUrl",
                    "type": "bytes32"
                },
                {
                    "internalType": "bytes32",
                    "name": "docHash",
                    "type": "bytes32"
                }
            ],
            "stateMutability": "view",
            "type": "function"
        },
        {
            "inputs": [
                {
                    "internalType": "bytes32",
                    "name": "role",
                    "type": "bytes32"
                },
                {
                    "internalType": "uint40",
                    "name": "acct",
                    "type": "uint40"
                }
            ],
            "name": "grantRole",
            "outputs": [],
            "stateMutability": "nonpayable",
            "type": "function"
        },
        {
            "inputs": [
                {
                    "internalType": "bytes32",
                    "name": "role",
                    "type": "bytes32"
                },
                {
                    "internalType": "uint40",
                    "name": "acct",
                    "type": "uint40"
                }
            ],
            "name": "hasRole",
            "outputs": [
                {
                    "internalType": "bool",
                    "name": "",
                    "type": "bool"
                }
            ],
            "stateMutability": "view",
            "type": "function"
        },
        {
            "inputs": [
                {
                    "internalType": "uint40",
                    "name": "owner",
                    "type": "uint40"
                },
                {
                    "internalType": "address",
                    "name": "directKeeper",
                    "type": "address"
                },
                {
                    "internalType": "address",
                    "name": "regCenter",
                    "type": "address"
                },
                {
                    "internalType": "address",
                    "name": "generalKeeper",
                    "type": "address"
                }
            ],
            "name": "init",
            "outputs": [],
            "stateMutability": "nonpayable",
            "type": "function"
        },
        {
            "inputs": [
                {
                    "internalType": "address",
                    "name": "body",
                    "type": "address"
                }
            ],
            "name": "isRegistered",
            "outputs": [
                {
                    "internalType": "bool",
                    "name": "",
                    "type": "bool"
                }
            ],
            "stateMutability": "view",
            "type": "function"
        },
        {
            "inputs": [],
            "name": "lockContents",
            "outputs": [],
            "stateMutability": "nonpayable",
            "type": "function"
        },
        {
            "inputs": [
                {
                    "internalType": "address",
                    "name": "ia",
                    "type": "address"
                }
            ],
            "name": "mockResultsOfIA",
            "outputs": [
                {
                    "internalType": "address",
                    "name": "",
                    "type": "address"
                }
            ],
            "stateMutability": "view",
            "type": "function"
        },
        {
            "inputs": [],
            "name": "qtyOfDocs",
            "outputs": [
                {
                    "internalType": "uint256",
                    "name": "",
                    "type": "uint256"
                }
            ],
            "stateMutability": "view",
            "type": "function"
        },
        {
            "inputs": [
                {
                    "internalType": "address",
                    "name": "body",
                    "type": "address"
                }
            ],
            "name": "removeDoc",
            "outputs": [],
            "stateMutability": "nonpayable",
            "type": "function"
        },
        {
            "inputs": [
                {
                    "internalType": "bytes32",
                    "name": "role",
                    "type": "bytes32"
                }
            ],
            "name": "renounceRole",
            "outputs": [],
            "stateMutability": "nonpayable",
            "type": "function"
        },
        {
            "inputs": [
                {
                    "internalType": "bytes32",
                    "name": "role",
                    "type": "bytes32"
                },
                {
                    "internalType": "uint40",
                    "name": "acct",
                    "type": "uint40"
                }
            ],
            "name": "revokeRole",
            "outputs": [],
            "stateMutability": "nonpayable",
            "type": "function"
        },
        {
            "inputs": [
                {
                    "internalType": "address",
                    "name": "keeper",
                    "type": "address"
                }
            ],
            "name": "setDirectKeeper",
            "outputs": [],
            "stateMutability": "nonpayable",
            "type": "function"
        },
        {
            "inputs": [
                {
                    "internalType": "uint40",
                    "name": "acct",
                    "type": "uint40"
                }
            ],
            "name": "setGeneralCounsel",
            "outputs": [],
            "stateMutability": "nonpayable",
            "type": "function"
        },
        {
            "inputs": [
                {
                    "internalType": "uint40",
                    "name": "acct",
                    "type": "uint40"
                }
            ],
            "name": "setOwner",
            "outputs": [],
            "stateMutability": "nonpayable",
            "type": "function"
        },
        {
            "inputs": [
                {
                    "internalType": "bytes32",
                    "name": "role",
                    "type": "bytes32"
                },
                {
                    "internalType": "uint40",
                    "name": "acct",
                    "type": "uint40"
                }
            ],
            "name": "setRoleAdmin",
            "outputs": [],
            "stateMutability": "nonpayable",
            "type": "function"
        },
        {
            "inputs": [
                {
                    "internalType": "address",
                    "name": "body",
                    "type": "address"
                },
                {
                    "internalType": "uint8",
                    "name": "state",
                    "type": "uint8"
                }
            ],
            "name": "setStateOfDoc",
            "outputs": [],
            "stateMutability": "nonpayable",
            "type": "function"
        },
        {
            "inputs": [
                {
                    "internalType": "address",
                    "name": "body",
                    "type": "address"
                },
                {
                    "internalType": "uint8",
                    "name": "typeOfDoc",
                    "type": "uint8"
                }
            ],
            "name": "setTemplate",
            "outputs": [],
            "stateMutability": "nonpayable",
            "type": "function"
        },
        {
            "inputs": [
                {
                    "internalType": "address",
                    "name": "body",
                    "type": "address"
                }
            ],
            "name": "sigPageOfDoc",
            "outputs": [
                {
                    "internalType": "contract ISigPage",
                    "name": "sigPage",
                    "type": "address"
                }
            ],
            "stateMutability": "view",
            "type": "function"
        },
        {
            "inputs": [
                {
                    "internalType": "uint8",
                    "name": "typeOfDoc",
                    "type": "uint8"
                }
            ],
            "name": "template",
            "outputs": [
                {
                    "internalType": "address",
                    "name": "",
                    "type": "address"
                }
            ],
            "stateMutability": "view",
            "type": "function"
        },
        {
            "inputs": [],
            "name": "tempsList",
            "outputs": [
                {
                    "internalType": "uint256[]",
                    "name": "",
                    "type": "uint256[]"
                }
            ],
            "stateMutability": "view",
            "type": "function"
        }
    ],
    "bytecode": "608060405234801561001057600080fd5b50613612806100206000396000f3fe608060405234801561001057600080fd5b50600436106102065760003560e01c8063821ee8ea1161011a578063c3c5a547116100ad578063df280c211161007c578063df280c2114610543578063e024966714610556578063ed21102314610569578063ee4b47c114610571578063f045a7691461058757600080fd5b8063c3c5a54714610475578063d42186fa14610488578063de154c271461049b578063deb571751461051757600080fd5b80638bb9c5bf116100e95780638bb9c5bf146104285780638de96c8d1461043b578063aa5965761461044e578063b3f05b971461046157600080fd5b8063821ee8ea146103c75780638506c43f146103da578063891613e7146103ed578063893d20e81461042057600080fd5b80633da9a6001161019d57806365a1f3d81161016c57806365a1f3d8146103585780636be8496f1461036b578063740998151461037e57806379b2ec12146103915780637ba706e8146103b457600080fd5b80633da9a600146102d95780634be157d5146102ec5780634efd15f214610301578063637d473f1461034557600080fd5b806322ea1815116101d957806322ea181514610269578063289aeb5714610289578063309ed9c8146102b15780633178a9a9146102c657600080fd5b8063103f6edd1461020b57806316dc517e1461022e57806317c51fec14610243578063211f581614610256575b600080fd5b61021361058f565b60405164ffffffffff90911681526020015b60405180910390f35b61024161023c366004612d39565b61061b565b005b610241610251366004612d39565b6106b1565b610241610264366004612d8d565b6106d6565b61027c610277366004612dbb565b61089f565b6040516102259190612de7565b61029c610297366004612e63565b610956565b60408051928352602083019190915201610225565b6102b9610a34565b6040516102259190612e87565b6102416102d4366004612ecb565b610abe565b6102416102e7366004612ee8565b610cb7565b6102f4610dc9565b6040516102259190612f01565b61032d61030f366004612f42565b60ff166000908152600460205260409020546001600160a01b031690565b6040516001600160a01b039091168152602001610225565b61027c610353366004612f6f565b610e53565b61032d610366366004612e63565b610fb4565b610241610379366004612e63565b61108a565b61024161038c366004612d39565b61113c565b6103a461039f366004612d39565b611161565b6040519015158152602001610225565b6102416103c2366004612ecb565b6111fb565b6102416103d5366004612f9d565b6113ed565b6102416103e8366004612ff9565b6114dd565b6104006103fb36600461302e565b61168f565b604080516001600160a01b03938416815292909116602083015201610225565b610213611b7a565b610241610436366004612ee8565b611bb5565b6103a461044936600461305c565b611c0e565b61024161045c366004612d8d565b611d5a565b60028054600160f01b900460ff16146103a4565b6103a4610483366004612e63565b611f00565b610241610496366004612e63565b611f95565b6104ae6104a9366004612e63565b6121c2565b6040516102259190600060c08201905060ff835116825264ffffffffff6020840151166020830152604083015165ffffffffffff8082166040850152806060860151166060850152806080860151166080850152505060ff60a08401511660a083015292915050565b61032d610525366004612e63565b6001600160a01b039081166000908152600b60205260409020541690565b61032d6105513660046130a7565b612329565b6102416105643660046130c5565b6123f3565b61032d612726565b6105796127ac565b604051908152602001610225565b610241612832565b60405163e8c0cc1d60e01b81526002600482015260009073__$364aad554dc80380f414546becdd2c1584$__9063e8c0cc1d906024015b60206040518083038186803b1580156105de57600080fd5b505af41580156105f2573d6000803e3d6000fd5b505050506040513d601f19601f820116820180604052508101906106169190613100565b905090565b73__$364aad554dc80380f414546becdd2c1584$__63427abff4600284610640612a50565b6040516001600160e01b031960e086901b1681526004810193909352602483019190915264ffffffffff9081166044830152841660648201526084015b60006040518083038186803b15801561069557600080fd5b505af41580156106a9573d6000803e3d6000fd5b505050505050565b73__$364aad554dc80380f414546becdd2c1584$__638ce15845600284610640612a50565b60405163f698b0f160e01b8152600860048201526001600160a01b0383166024820152829073__$8c1a4844a0a0988ea2454cf87145a95df1$__9063f698b0f19060440160206040518083038186803b15801561073257600080fd5b505af4158015610746573d6000803e3d6000fd5b505050506040513d601f19601f8201168201806040525081019061076a919061311d565b61078f5760405162461bcd60e51b81526004016107869061313f565b60405180910390fd5b6001546040516335d2155560e11b81523360048201526001600160a01b0390911690636ba42aaa9060240160206040518083038186803b1580156107d257600080fd5b505afa1580156107e6573d6000803e3d6000fd5b505050506040513d601f19601f8201168201806040525081019061080a919061311d565b6108265760405162461bcd60e51b815260040161078690613176565b60405160ff831681526001600160a01b038416907f7d25780785c2b2fefad30c6603980e64e6005c311412119d7e4702f602fd730a9060200160405180910390a2506001600160a01b039091166000908152600760205260409020805460ff909216600160c01b0260ff60c01b19909216919091179055565b6001600160a01b0382166000908152600a602052604090819020905162066d7160e01b815260609173__$07942fe0769ef09db064459acc9c3554b6$__9162066d71916108f9918690600401918252602082015260400190565b60006040518083038186803b15801561091157600080fd5b505af4158015610925573d6000803e3d6000fd5b505050506040513d6000823e601f3d908101601f1916820160405261094d9190810190613252565b90505b92915050565b60405163f698b0f160e01b8152600860048201526001600160a01b03821660248201526000908190839073__$8c1a4844a0a0988ea2454cf87145a95df1$__9063f698b0f19060440160206040518083038186803b1580156109b757600080fd5b505af41580156109cb573d6000803e3d6000fd5b505050506040513d601f19601f820116820180604052508101906109ef919061311d565b610a0b5760405162461bcd60e51b81526004016107869061313f565b5050506001600160a01b0316600090815260076020526040902060018101546002909101549091565b60405163034306e160e21b81526005600482015260609073__$8c1a4844a0a0988ea2454cf87145a95df1$__90630d0c1b849060240160006040518083038186803b158015610a8257600080fd5b505af4158015610a96573d6000803e3d6000fd5b505050506040513d6000823e601f3d908101601f191682016040526106169190810190613342565b604051633b11adbf60e21b81526002600482015233602482015273__$364aad554dc80380f414546becdd2c1584$__9063ec46b6fc9060440160206040518083038186803b158015610b0f57600080fd5b505af4158015610b23573d6000803e3d6000fd5b505050506040513d601f19601f82011682018060405250810190610b47919061311d565b80610bec575073__$364aad554dc80380f414546becdd2c1584$__63fe2710866002610b71612a50565b6040516001600160e01b031960e085901b168152600481019290925264ffffffffff16602482015260440160206040518083038186803b158015610bb457600080fd5b505af4158015610bc8573d6000803e3d6000fd5b505050506040513d601f19601f82011682018060405250810190610bec919061311d565b610c085760405162461bcd60e51b8152600401610786906133c8565b604051632725ebef60e21b81526002600482015264ffffffffff8216602482015273__$364aad554dc80380f414546becdd2c1584$__90639c97afbc9060440160006040518083038186803b158015610c6057600080fd5b505af4158015610c74573d6000803e3d6000fd5b505060405164ffffffffff841681527ff2735f34b69be1e6342dea95f9162f84d0db925fab655ca9f1f312ac8cbfc99d925060200190505b60405180910390a150565b604051633b11adbf60e21b81526002600482015233602482015273__$364aad554dc80380f414546becdd2c1584$__9063ec46b6fc9060440160206040518083038186803b158015610d0857600080fd5b505af4158015610d1c573d6000803e3d6000fd5b505050506040513d601f19601f82011682018060405250810190610d40919061311d565b610d5c5760405162461bcd60e51b81526004016107869061341e565b60405163cc99e11b60e01b8152600260048201526024810182905273__$364aad554dc80380f414546becdd2c1584$__9063cc99e11b9060440160006040518083038186803b158015610dae57600080fd5b505af4158015610dc2573d6000803e3d6000fd5b5050505050565b604051638f65372b60e01b81526008600482015260609073__$8c1a4844a0a0988ea2454cf87145a95df1$__90638f65372b9060240160006040518083038186803b158015610e1757600080fd5b505af4158015610e2b573d6000803e3d6000fd5b505050506040513d6000823e601f3d908101601f191682016040526106169190810190613464565b6001546040516335d2155560e11b81523360048201526060916001600160a01b031690636ba42aaa9060240160206040518083038186803b158015610e9757600080fd5b505afa158015610eab573d6000803e3d6000fd5b505050506040513d601f19601f82011682018060405250810190610ecf919061311d565b610eeb5760405162461bcd60e51b815260040161078690613176565b6000610ef5612aaa565b6001600160a01b038581166000908152600a60205260409081902090516317bcc96760e31b8152600481019190915261ffff86166024820152908216604482015290915073__$07942fe0769ef09db064459acc9c3554b6$__9063bde64b389060640160006040518083038186803b158015610f7057600080fd5b505af4158015610f84573d6000803e3d6000fd5b505050506040513d6000823e601f3d908101601f19168201604052610fac9190810190613252565b949350505050565b60405163f698b0f160e01b8152600860048201526001600160a01b0382166024820152600090829073__$8c1a4844a0a0988ea2454cf87145a95df1$__9063f698b0f19060440160206040518083038186803b15801561101357600080fd5b505af4158015611027573d6000803e3d6000fd5b505050506040513d601f19601f8201168201806040525081019061104b919061311d565b6110675760405162461bcd60e51b81526004016107869061313f565b50506001600160a01b039081166000908152600760205260409020600301541690565b604051630f07232560e01b8152600260048201523360248201526001600160a01b038216604482015273__$364aad554dc80380f414546becdd2c1584$__90630f0723259060640160006040518083038186803b1580156110ea57600080fd5b505af41580156110fe573d6000803e3d6000fd5b50506040516001600160a01b03841681527fe435cbeab64e4eae6497b9d8289704bd709d624a80704ef3ca9af777534bc6ec92506020019050610cac565b73__$364aad554dc80380f414546becdd2c1584$__63d2a15ba7600284610640612a50565b604051632a3be56b60e21b8152600260048201526024810183905264ffffffffff8216604482015260009073__$364aad554dc80380f414546becdd2c1584$__9063a8ef95ac9060640160206040518083038186803b1580156111c357600080fd5b505af41580156111d7573d6000803e3d6000fd5b505050506040513d601f19601f8201168201806040525081019061094d919061311d565b604051633b11adbf60e21b81526002600482015233602482015273__$364aad554dc80380f414546becdd2c1584$__9063ec46b6fc9060440160206040518083038186803b15801561124c57600080fd5b505af4158015611260573d6000803e3d6000fd5b505050506040513d601f19601f82011682018060405250810190611284919061311d565b80611329575073__$364aad554dc80380f414546becdd2c1584$__63fe27108660026112ae612a50565b6040516001600160e01b031960e085901b168152600481019290925264ffffffffff16602482015260440160206040518083038186803b1580156112f157600080fd5b505af4158015611305573d6000803e3d6000fd5b505050506040513d601f19601f82011682018060405250810190611329919061311d565b6113455760405162461bcd60e51b8152600401610786906133c8565b60405163b6e38a2960e01b81526002600482015264ffffffffff8216602482015273__$364aad554dc80380f414546becdd2c1584$__9063b6e38a299060440160006040518083038186803b15801561139d57600080fd5b505af41580156113b1573d6000803e3d6000fd5b505060405164ffffffffff841681527f8b6f40f36b4ae8cc5f55e895036457c43da4ab1f80f58c46f5ff0d72a650033b92506020019050610cac565b6113f682612b0e565b6113ff81612bbd565b604051636cdd0edf60e11b81526002600482015264ffffffffff851660248201526001600160a01b038416604482015273__$364aad554dc80380f414546becdd2c1584$__9063d9ba1dbe9060640160006040518083038186803b15801561146657600080fd5b505af415801561147a573d6000803e3d6000fd5b50506040805164ffffffffff881681526001600160a01b038781166020830152868116828401528516606082015290517f4d18c0021addc919105cb1ed2c11ad241e859cc1d9e77d4ee1d9ca2cdc1f255b9350908190036080019150a150505050565b604051633b11adbf60e21b81526002600482015233602482015273__$364aad554dc80380f414546becdd2c1584$__9063ec46b6fc9060440160206040518083038186803b15801561152e57600080fd5b505af4158015611542573d6000803e3d6000fd5b505050506040513d601f19601f82011682018060405250810190611566919061311d565b6115825760405162461bcd60e51b81526004016107869061341e565b6000836001600160a01b0316639b59d9806040518163ffffffff1660e01b815260040160206040518083038186803b1580156115bd57600080fd5b505afa1580156115d1573d6000803e3d6000fd5b505050506040513d601f19601f820116820180604052508101906115f591906134f3565b60ff1690506000611604612c74565b6001600160a01b03166348462037836040518263ffffffff1660e01b815260040161163191815260200190565b60206040518083038186803b15801561164957600080fd5b505afa15801561165d573d6000803e3d6000fd5b505050506040513d601f19601f820116820180604052508101906116819190613510565b9050610dc2858286866123f3565b604051633b11adbf60e21b815260026004820152336024820152600090819073__$364aad554dc80380f414546becdd2c1584$__9063ec46b6fc9060440160206040518083038186803b1580156116e557600080fd5b505af41580156116f9573d6000803e3d6000fd5b505050506040513d601f19601f8201168201806040525081019061171d919061311d565b6117395760405162461bcd60e51b81526004016107869061341e565b604051633f5f77cd60e01b81526005600482015260ff85166024820152849073__$8c1a4844a0a0988ea2454cf87145a95df1$__90633f5f77cd9060440160206040518083038186803b15801561178f57600080fd5b505af41580156117a3573d6000803e3d6000fd5b505050506040513d601f19601f820116820180604052508101906117c7919061311d565b6118135760405162461bcd60e51b815260206004820152601b60248201527f524f442e6d642e54523a2074656d706c617465204e4f542073657400000000006044820152606401610786565b6000604051633f5f77cd60e01b81526005600482015260ff8216602482015273__$8c1a4844a0a0988ea2454cf87145a95df1$__90633f5f77cd9060440160206040518083038186803b15801561186957600080fd5b505af415801561187d573d6000803e3d6000fd5b505050506040513d601f19601f820116820180604052508101906118a1919061311d565b6118ed5760405162461bcd60e51b815260206004820152601b60248201527f524f442e6d642e54523a2074656d706c617465204e4f542073657400000000006044820152606401610786565b60ff8616600090815260046020526040812054611912906001600160a01b0316612cb6565b604051633e244cf360e01b8152600860048201526001600160a01b038216602482015290915073__$8c1a4844a0a0988ea2454cf87145a95df1$__90633e244cf39060440160206040518083038186803b15801561196f57600080fd5b505af4158015611983573d6000803e3d6000fd5b505050506040513d601f19601f820116820180604052508101906119a7919061311d565b15611b70579350836001600160a01b0381167f7d25780785c2b2fefad30c6603980e64e6005c311412119d7e4702f602fd730a600160405160ff909116815260200160405180910390a26040805160c08101825260ff8916815264ffffffffff8816602082015265ffffffffffff421691810191909152600060608201819052608082015260a08101600160ff9081169091526001600160a01b03871660009081526007602090815260408083208551815493870151928701516060880151608089015160a09099015192881665ffffffffffff199096169590951761010064ffffffffff909516949094029390931771ffffffffffffffffffffffff0000000000001916660100000000000065ffffffffffff9485160265ffffffffffff60601b191617600160601b948416949094029390931766ffffffffffffff60901b1916600160901b929096169190910260ff60c01b191694909417600160c01b919093160291909117909155611b3c906004908060ff1681526020810191909152604001600020546001600160a01b0316612cb6565b6001600160a01b03868116600090815260076020526040902060030180546001600160a01b03191691831691909117905593505b5050509250929050565b60405163987ad15360e01b81526002600482015260009073__$364aad554dc80380f414546becdd2c1584$__9063987ad153906024016105c6565b6000611bbf612a50565b604051637963595360e11b8152600260048201526024810184905264ffffffffff8216604482015290915073__$364aad554dc80380f414546becdd2c1584$__9063f2c6b2a69060640161067d565b6001546040516335d2155560e11b81523360048201526000916001600160a01b031690636ba42aaa9060240160206040518083038186803b158015611c5257600080fd5b505afa158015611c66573d6000803e3d6000fd5b505050506040513d601f19601f82011682018060405250810190611c8a919061311d565b611ca65760405162461bcd60e51b815260040161078690613176565b6001600160a01b0384166000908152600a6020526040908190209051631315416f60e31b8152600481019190915261ffff8416602482015264ffffffffff8316604482015273__$07942fe0769ef09db064459acc9c3554b6$__906398aa0b789060640160206040518083038186803b158015611d2257600080fd5b505af4158015611d36573d6000803e3d6000fd5b505050506040513d601f19601f82011682018060405250810190610fac919061311d565b604051633b11adbf60e21b81526002600482015233602482015273__$364aad554dc80380f414546becdd2c1584$__9063ec46b6fc9060440160206040518083038186803b158015611dab57600080fd5b505af4158015611dbf573d6000803e3d6000fd5b505050506040513d601f19601f82011682018060405250810190611de3919061311d565b611dff5760405162461bcd60e51b81526004016107869061341e565b60405160ff821681526001600160a01b038316907f69e0d9bafb5046296417aaeb6e5f2d326263f2c4211bc67a7d7fa7f03b0e43739060200160405180910390a260ff811660008181526004602081905260409182902080546001600160a01b0319166001600160a01b03871617905590516392f13c3f60e01b8152600591810191909152602481019190915273__$8c1a4844a0a0988ea2454cf87145a95df1$__906392f13c3f9060440160206040518083038186803b158015611ec357600080fd5b505af4158015611ed7573d6000803e3d6000fd5b505050506040513d601f19601f82011682018060405250810190611efb919061311d565b505050565b60405163f698b0f160e01b8152600860048201526001600160a01b038216602482015260009073__$8c1a4844a0a0988ea2454cf87145a95df1$__9063f698b0f19060440160206040518083038186803b158015611f5d57600080fd5b505af4158015611f71573d6000803e3d6000fd5b505050506040513d601f19601f82011682018060405250810190610950919061311d565b604051633b11adbf60e21b81526002600482015233602482015273__$364aad554dc80380f414546becdd2c1584$__9063ec46b6fc9060440160206040518083038186803b158015611fe657600080fd5b505af4158015611ffa573d6000803e3d6000fd5b505050506040513d601f19601f8201168201806040525081019061201e919061311d565b61203a5760405162461bcd60e51b81526004016107869061341e565b6001600160a01b038116600090815260076020526040902054819060ff600160c01b909104166001146120af5760405162461bcd60e51b815260206004820152601b60248201527f524f442e6d642e4f46503a20446f63206e6f742070656e64696e6700000000006044820152606401610786565b604051636ea2751560e01b8152600860048201526001600160a01b038316602482015273__$8c1a4844a0a0988ea2454cf87145a95df1$__90636ea275159060440160206040518083038186803b15801561210957600080fd5b505af415801561211d573d6000803e3d6000fd5b505050506040513d601f19601f82011682018060405250810190612141919061311d565b156121be576040516001600160a01b038316907f05633b380cd1dd8bb1af7cbbf29e862857a3f147da66cbb23bdad8f7e527830b90600090a26001600160a01b03821660009081526007602052604081206003810180546001600160a01b031916905580546001600160c81b031916815560018101829055600201555b5050565b6040805160c081018252600080825260208201819052818301819052606082018190526080820181905260a0820152905163f698b0f160e01b8152600860048201526001600160a01b0383166024820152829073__$8c1a4844a0a0988ea2454cf87145a95df1$__9063f698b0f19060440160206040518083038186803b15801561224c57600080fd5b505af4158015612260573d6000803e3d6000fd5b505050506040513d601f19601f82011682018060405250810190612284919061311d565b6122a05760405162461bcd60e51b81526004016107869061313f565b50506001600160a01b0316600090815260076020908152604091829020825160c081018452905460ff808216835264ffffffffff6101008304169383019390935265ffffffffffff66010000000000008204811694830194909452600160601b810484166060830152600160901b81049093166080820152600160c01b9092041660a082015290565b6001546040516335d2155560e11b81523360048201526000916001600160a01b031690636ba42aaa9060240160206040518083038186803b15801561236d57600080fd5b505afa158015612381573d6000803e3d6000fd5b505050506040513d601f19601f820116820180604052508101906123a5919061311d565b6123c15760405162461bcd60e51b815260040161078690613176565b6001600160a01b038381166000908152600b602052604090205416610950576123eb60028361168f565b509392505050565b604051633b11adbf60e21b81526002600482015233602482015273__$364aad554dc80380f414546becdd2c1584$__9063ec46b6fc9060440160206040518083038186803b15801561244457600080fd5b505af4158015612458573d6000803e3d6000fd5b505050506040513d601f19601f8201168201806040525081019061247c919061311d565b6124985760405162461bcd60e51b81526004016107869061341e565b6001600160a01b038416600090815260076020526040902054849060ff600160c01b9091041660011461250d5760405162461bcd60e51b815260206004820152601b60248201527f524f442e6d642e4f46503a20446f63206e6f742070656e64696e6700000000006044820152606401610786565b604051600281526001600160a01b038616907f7d25780785c2b2fefad30c6603980e64e6005c311412119d7e4702f602fd730a9060200160405180910390a26001600160a01b03851660009081526007602052604080822090516362ce996560e11b81526004810187905290919073__$94c94c1f27eaba30857c7d0c37f90b5581$__9063c59d32ca9060240160206040518083038186803b1580156125b257600080fd5b505af41580156125c6573d6000803e3d6000fd5b505050506040513d601f19601f820116820180604052508101906125ea9190613529565b604051631aef24a760e01b81526004810188905290915060009073__$94c94c1f27eaba30857c7d0c37f90b5581$__90631aef24a79060240160206040518083038186803b15801561263b57600080fd5b505af415801561264f573d6000803e3d6000fd5b505050506040513d601f19601f820116820180604052508101906126739190613529565b90506126828262015180613567565b61268c9042613595565b835465ffffffffffff91909116600160601b0265ffffffffffff60601b199091161783556126bd8162015180613567565b83546126d89190600160601b900465ffffffffffff16613595565b8354600185019790975560028401959095555050600160c11b66ffffffffffffff60901b1990941665ffffffffffff909316600160901b0260ff60c01b191692909217929092179055505050565b604051633c3e56c160e11b81526002600482015260009073__$364aad554dc80380f414546becdd2c1584$__9063787cad829060240160206040518083038186803b15801561277457600080fd5b505af4158015612788573d6000803e3d6000fd5b505050506040513d601f19601f8201168201806040525081019061061691906135bf565b604051635e77c9af60e01b81526008600482015260009073__$8c1a4844a0a0988ea2454cf87145a95df1$__90635e77c9af9060240160206040518083038186803b1580156127fa57600080fd5b505af415801561280e573d6000803e3d6000fd5b505050506040513d601f19601f820116820180604052508101906106169190613510565b604051633b11adbf60e21b81526002600482015233602482015273__$364aad554dc80380f414546becdd2c1584$__9063ec46b6fc9060440160206040518083038186803b15801561288357600080fd5b505af4158015612897573d6000803e3d6000fd5b505050506040513d601f19601f820116820180604052508101906128bb919061311d565b6128d75760405162461bcd60e51b81526004016107869061341e565b600254600160f01b900460ff166001146129335760405162461bcd60e51b815260206004820181905260248201527f41432e6f6e6c7950656e64696e673a20446f632069732066696e616c697a65646044820152606401610786565b60405163cc99e11b60e01b815260026004820152684174746f726e65797360b81b602482015273__$364aad554dc80380f414546becdd2c1584$__9063cc99e11b9060440160006040518083038186803b15801561299057600080fd5b505af41580156129a4573d6000803e3d6000fd5b5050604051632725ebef60e21b8152600260048201526000602482015273__$364aad554dc80380f414546becdd2c1584$__9250639c97afbc915060440160006040518083038186803b1580156129fa57600080fd5b505af4158015612a0e573d6000803e3d6000fd5b50506002805460ff60f01b1916600160f11b17905550506040517f35012b512309c322acf68632cd6cb702ff0e1d776fbe9394e38ffc13b434fe7590600090a1565b60008054604051634de835e760e11b81523360048201526001600160a01b0390911690639bd06bce90602401602060405180830381600087803b158015612a9657600080fd5b505af11580156105f2573d6000803e3d6000fd5b6001546000906001600160a01b031663e06eba8c60075b6040516001600160e01b031960e084901b16815260ff909116600482015260240160206040518083038186803b158015612afa57600080fd5b505afa158015612788573d6000803e3d6000fd5b6000546001600160a01b031615612b5f5760405162461bcd60e51b815260206004820152601560248201527430b63932b0b23c9039b2ba103932b3a1b2b73a32b960591b6044820152606401610786565b6040516001600160a01b03821681527f318da6c7624c71cbc0afe346c9d8827f119d0ecefb241a7b0c87217a076a8e029060200160405180910390a1600080546001600160a01b0319166001600160a01b0392909216919091179055565b6001546001600160a01b031615612c165760405162461bcd60e51b815260206004820152601960248201527f616c7265616479207365742067656e6572616c4b6565706572000000000000006044820152606401610786565b6040516001600160a01b03821681527fe513d3e0f0d0a3877029dcc588748679a7a3450ec1ec7ed56d96bd012c3e61aa9060200160405180910390a1600180546001600160a01b0319166001600160a01b0392909216919091179055565b6000612c7e612d08565b6001600160a01b0316632f5f3b3c6040518163ffffffff1660e01b815260040160206040518083038186803b158015612afa57600080fd5b6000808260601b9050604051733d602d80600a3d3981f3363d3d373d3d3d363d7360601b81528160148201526e5af43d82803e903d91602b57fd5bf360881b60288201526037816000f0949350505050565b6001546000906001600160a01b031663e06eba8c6003612ac1565b64ffffffffff81168114612d3657600080fd5b50565b60008060408385031215612d4c57600080fd5b823591506020830135612d5e81612d23565b809150509250929050565b6001600160a01b0381168114612d3657600080fd5b60ff81168114612d3657600080fd5b60008060408385031215612da057600080fd5b8235612dab81612d69565b91506020830135612d5e81612d7e565b60008060408385031215612dce57600080fd5b8235612dd981612d69565b946020939093013593505050565b602080825282518282018190526000919060409081850190868401855b82811015612e56578151805161ffff1685528681015164ffffffffff16878601528581015167ffffffffffffffff90811687870152606091820151169085015260809093019290850190600101612e04565b5091979650505050505050565b600060208284031215612e7557600080fd5b8135612e8081612d69565b9392505050565b6020808252825182820181905260009190848201906040850190845b81811015612ebf57835183529284019291840191600101612ea3565b50909695505050505050565b600060208284031215612edd57600080fd5b8135612e8081612d23565b600060208284031215612efa57600080fd5b5035919050565b6020808252825182820181905260009190848201906040850190845b81811015612ebf5783516001600160a01b031683529284019291840191600101612f1d565b600060208284031215612f5457600080fd5b8135612e8081612d7e565b61ffff81168114612d3657600080fd5b60008060408385031215612f8257600080fd5b8235612f8d81612d69565b91506020830135612d5e81612f5f565b60008060008060808587031215612fb357600080fd5b8435612fbe81612d23565b93506020850135612fce81612d69565b92506040850135612fde81612d69565b91506060850135612fee81612d69565b939692955090935050565b60008060006060848603121561300e57600080fd5b833561301981612d69565b95602085013595506040909401359392505050565b6000806040838503121561304157600080fd5b823561304c81612d7e565b91506020830135612d5e81612d23565b60008060006060848603121561307157600080fd5b833561307c81612d69565b9250602084013561308c81612f5f565b9150604084013561309c81612d23565b809150509250925092565b600080604083850312156130ba57600080fd5b823561304c81612d69565b600080600080608085870312156130db57600080fd5b84356130e681612d69565b966020860135965060408601359560600135945092505050565b60006020828403121561311257600080fd5b8151612e8081612d23565b60006020828403121561312f57600080fd5b81518015158114612e8057600080fd5b6020808252601d908201527f524f442e6d642e4f523a20646f63204e4f542072656769737465726564000000604082015260600190565b60208082526011908201527020a19737b59d103737ba1025b2b2b832b960791b604082015260600190565b634e487b7160e01b600052604160045260246000fd5b6040516080810167ffffffffffffffff811182821017156131da576131da6131a1565b60405290565b604051601f8201601f1916810167ffffffffffffffff81118282101715613209576132096131a1565b604052919050565b600067ffffffffffffffff82111561322b5761322b6131a1565b5060051b60200190565b805167ffffffffffffffff8116811461324d57600080fd5b919050565b6000602080838503121561326557600080fd5b825167ffffffffffffffff81111561327c57600080fd5b8301601f8101851361328d57600080fd5b80516132a061329b82613211565b6131e0565b81815260079190911b820183019083810190878311156132bf57600080fd5b928401925b8284101561333757608084890312156132dd5760008081fd5b6132e56131b7565b84516132f081612f5f565b8152848601516132ff81612d23565b818701526040613310868201613235565b908201526060613321868201613235565b90820152825260809390930192908401906132c4565b979650505050505050565b6000602080838503121561335557600080fd5b825167ffffffffffffffff81111561336c57600080fd5b8301601f8101851361337d57600080fd5b805161338b61329b82613211565b81815260059190911b820183019083810190878311156133aa57600080fd5b928401925b82841015613337578351825292840192908401906133af565b60208082526036908201527f41432e6f776e65724f72446972656374426f6f6b65657065723a206e6569746860408201527532b91037bbb732b9103737b9103137b7b5b2b2b832b960511b606082015260800190565b60208082526026908201527f41432e6f6e6c794469726563744b65657065723a206e6f74206469726563742060408201526535b2b2b832b960d11b606082015260800190565b6000602080838503121561347757600080fd5b825167ffffffffffffffff81111561348e57600080fd5b8301601f8101851361349f57600080fd5b80516134ad61329b82613211565b81815260059190911b820183019083810190878311156134cc57600080fd5b928401925b828410156133375783516134e481612d69565b825292840192908401906134d1565b60006020828403121561350557600080fd5b8151612e8081612d7e565b60006020828403121561352257600080fd5b5051919050565b60006020828403121561353b57600080fd5b815165ffffffffffff81168114612e8057600080fd5b634e487b7160e01b600052601160045260246000fd5b600065ffffffffffff8083168185168183048111821515161561358c5761358c613551565b02949350505050565b600065ffffffffffff8083168185168083038211156135b6576135b6613551565b01949350505050565b6000602082840312156135d157600080fd5b8151612e8081612d6956fea26469706673582212202ef8d3a8219817942dc8808f922095e98534d330d994874c931922ad4e5c32f164736f6c63430008080033",
    "sourcePath": "/Users/kaptain/github.com/hardhat/comboox/contracts/books/boa/BookOfIA.sol",
    "compiler": {
        "name": "solc",
        "version": "0.8.8+commit.dddeac2f"
    },
    "functionHashes": {
        "abandonRole(bytes32)": "3da9a600",
        "acceptFirstRefusalClaims(address,uint16)": "637d473f",
        "circulateDoc(address,bytes32,bytes32,bytes32)": "e0249667",
        "circulateIA(address,bytes32,bytes32)": "8506c43f",
        "claimsOfFR(address,uint256)": "22ea1815",
        "createDoc(uint8,uint40)": "891613e7",
        "createMockResults(address,uint40)": "df280c21",
        "docsList()": "4be157d5",
        "execFirstRefusalRight(address,uint16,uint40)": "8de96c8d",
        "finalized()": "b3f05b97",
        "getBookeeper()": "ed211023",
        "getGeneralCounsel()": "103f6edd",
        "getHeadOfDoc(address)": "de154c27",
        "getOwner()": "893d20e8",
        "getRefOfDoc(address)": "289aeb57",
        "grantRole(bytes32,uint40)": "74099815",
        "hasRole(bytes32,uint40)": "79b2ec12",
        "init(uint40,address,address,address)": "821ee8ea",
        "isRegistered(address)": "c3c5a547",
        "lockContents()": "f045a769",
        "mockResultsOfIA(address)": "deb57175",
        "qtyOfDocs()": "ee4b47c1",
        "removeDoc(address)": "d42186fa",
        "renounceRole(bytes32)": "8bb9c5bf",
        "revokeRole(bytes32,uint40)": "17c51fec",
        "setDirectKeeper(address)": "6be8496f",
        "setGeneralCounsel(uint40)": "3178a9a9",
        "setOwner(uint40)": "7ba706e8",
        "setRoleAdmin(bytes32,uint40)": "16dc517e",
        "setStateOfDoc(address,uint8)": "211f5816",
        "setTemplate(address,uint8)": "aa596576",
        "sigPageOfDoc(address)": "65a1f3d8",
        "template(uint8)": "4efd15f2",
        "tempsList()": "309ed9c8"
    },
    "gasEstimates": {
        "creation": {
            "codeDepositCost": "2768400",
            "executionCost": "3015",
            "totalCost": "2771415"
        },
        "external": {
            "abandonRole(bytes32)": "infinite",
            "acceptFirstRefusalClaims(address,uint16)": "infinite",
            "circulateDoc(address,bytes32,bytes32,bytes32)": "infinite",
            "circulateIA(address,bytes32,bytes32)": "infinite",
            "claimsOfFR(address,uint256)": "infinite",
            "createDoc(uint8,uint40)": "infinite",
            "createMockResults(address,uint40)": "infinite",
            "docsList()": "infinite",
            "execFirstRefusalRight(address,uint16,uint40)": "infinite",
            "finalized()": "2438",
            "getBookeeper()": "infinite",
            "getGeneralCounsel()": "infinite",
            "getHeadOfDoc(address)": "infinite",
            "getOwner()": "infinite",
            "getRefOfDoc(address)": "infinite",
            "grantRole(bytes32,uint40)": "infinite",
            "hasRole(bytes32,uint40)": "infinite",
            "init(uint40,address,address,address)": "infinite",
            "isRegistered(address)": "infinite",
            "lockContents()": "infinite",
            "mockResultsOfIA(address)": "2672",
            "qtyOfDocs()": "infinite",
            "removeDoc(address)": "infinite",
            "renounceRole(bytes32)": "infinite",
            "revokeRole(bytes32,uint40)": "infinite",
            "setDirectKeeper(address)": "infinite",
            "setGeneralCounsel(uint40)": "infinite",
            "setOwner(uint40)": "infinite",
            "setRoleAdmin(bytes32,uint40)": "infinite",
            "setStateOfDoc(address,uint8)": "infinite",
            "setTemplate(address,uint8)": "infinite",
            "sigPageOfDoc(address)": "infinite",
            "template(uint8)": "2636",
            "tempsList()": "infinite"
        }
    }
}