{
    "contractName": "BookOfIA",
    "abi": [
        {
            "anonymous": false,
            "inputs": [
                {
                    "indexed": false,
                    "internalType": "uint40",
                    "name": "owner",
                    "type": "uint40"
                },
                {
                    "indexed": false,
                    "internalType": "address",
                    "name": "directKeeper",
                    "type": "address"
                },
                {
                    "indexed": false,
                    "internalType": "address",
                    "name": "regCenter",
                    "type": "address"
                },
                {
                    "indexed": false,
                    "internalType": "address",
                    "name": "generalKeeper",
                    "type": "address"
                }
            ],
            "name": "Init",
            "type": "event"
        },
        {
            "anonymous": false,
            "inputs": [],
            "name": "LockContents",
            "type": "event"
        },
        {
            "anonymous": false,
            "inputs": [
                {
                    "indexed": true,
                    "internalType": "address",
                    "name": "body",
                    "type": "address"
                }
            ],
            "name": "RemoveDoc",
            "type": "event"
        },
        {
            "anonymous": false,
            "inputs": [
                {
                    "indexed": false,
                    "internalType": "address",
                    "name": "keeper",
                    "type": "address"
                }
            ],
            "name": "SetDirectKeeper",
            "type": "event"
        },
        {
            "anonymous": false,
            "inputs": [
                {
                    "indexed": false,
                    "internalType": "uint256",
                    "name": "acct",
                    "type": "uint256"
                }
            ],
            "name": "SetGeneralCounsel",
            "type": "event"
        },
        {
            "anonymous": false,
            "inputs": [
                {
                    "indexed": false,
                    "internalType": "address",
                    "name": "gk",
                    "type": "address"
                }
            ],
            "name": "SetGeneralKeeper",
            "type": "event"
        },
        {
            "anonymous": false,
            "inputs": [
                {
                    "indexed": false,
                    "internalType": "uint256",
                    "name": "acct",
                    "type": "uint256"
                }
            ],
            "name": "SetOwner",
            "type": "event"
        },
        {
            "anonymous": false,
            "inputs": [
                {
                    "indexed": false,
                    "internalType": "address",
                    "name": "rc",
                    "type": "address"
                }
            ],
            "name": "SetRegCenter",
            "type": "event"
        },
        {
            "anonymous": false,
            "inputs": [
                {
                    "indexed": true,
                    "internalType": "address",
                    "name": "temp",
                    "type": "address"
                },
                {
                    "indexed": false,
                    "internalType": "uint256",
                    "name": "typeOfDoc",
                    "type": "uint256"
                }
            ],
            "name": "SetTemplate",
            "type": "event"
        },
        {
            "anonymous": false,
            "inputs": [
                {
                    "indexed": true,
                    "internalType": "address",
                    "name": "body",
                    "type": "address"
                },
                {
                    "indexed": false,
                    "internalType": "uint8",
                    "name": "state",
                    "type": "uint8"
                }
            ],
            "name": "UpdateStateOfDoc",
            "type": "event"
        },
        {
            "inputs": [
                {
                    "internalType": "bytes32",
                    "name": "role",
                    "type": "bytes32"
                }
            ],
            "name": "abandonRole",
            "outputs": [],
            "stateMutability": "nonpayable",
            "type": "function"
        },
        {
            "inputs": [
                {
                    "internalType": "address",
                    "name": "body",
                    "type": "address"
                },
                {
                    "internalType": "uint40",
                    "name": "caller",
                    "type": "uint40"
                },
                {
                    "internalType": "bytes32",
                    "name": "sigHash",
                    "type": "bytes32"
                }
            ],
            "name": "acceptDoc",
            "outputs": [],
            "stateMutability": "nonpayable",
            "type": "function"
        },
        {
            "inputs": [
                {
                    "internalType": "uint40",
                    "name": "acct",
                    "type": "uint40"
                },
                {
                    "internalType": "uint16",
                    "name": "seq",
                    "type": "uint16"
                }
            ],
            "name": "addBlank",
            "outputs": [],
            "stateMutability": "nonpayable",
            "type": "function"
        },
        {
            "inputs": [],
            "name": "bohAddr",
            "outputs": [
                {
                    "internalType": "address",
                    "name": "",
                    "type": "address"
                }
            ],
            "stateMutability": "view",
            "type": "function"
        },
        {
            "inputs": [
                {
                    "internalType": "address",
                    "name": "body",
                    "type": "address"
                },
                {
                    "internalType": "bytes32",
                    "name": "rule",
                    "type": "bytes32"
                },
                {
                    "internalType": "bytes32",
                    "name": "docUrl",
                    "type": "bytes32"
                },
                {
                    "internalType": "bytes32",
                    "name": "docHash",
                    "type": "bytes32"
                }
            ],
            "name": "circulateDoc",
            "outputs": [],
            "stateMutability": "nonpayable",
            "type": "function"
        },
        {
            "inputs": [
                {
                    "internalType": "address",
                    "name": "ia",
                    "type": "address"
                },
                {
                    "internalType": "bytes32",
                    "name": "docUrl",
                    "type": "bytes32"
                },
                {
                    "internalType": "bytes32",
                    "name": "docHash",
                    "type": "bytes32"
                }
            ],
            "name": "circulateIA",
            "outputs": [],
            "stateMutability": "nonpayable",
            "type": "function"
        },
        {
            "inputs": [
                {
                    "internalType": "uint8",
                    "name": "docType",
                    "type": "uint8"
                },
                {
                    "internalType": "uint40",
                    "name": "creator",
                    "type": "uint40"
                }
            ],
            "name": "createDoc",
            "outputs": [
                {
                    "internalType": "address",
                    "name": "body",
                    "type": "address"
                }
            ],
            "stateMutability": "nonpayable",
            "type": "function"
        },
        {
            "inputs": [
                {
                    "internalType": "address",
                    "name": "ia",
                    "type": "address"
                },
                {
                    "internalType": "uint40",
                    "name": "creator",
                    "type": "uint40"
                }
            ],
            "name": "createFRDeals",
            "outputs": [
                {
                    "internalType": "address",
                    "name": "frd",
                    "type": "address"
                }
            ],
            "stateMutability": "nonpayable",
            "type": "function"
        },
        {
            "inputs": [
                {
                    "internalType": "address",
                    "name": "ia",
                    "type": "address"
                },
                {
                    "internalType": "uint40",
                    "name": "creator",
                    "type": "uint40"
                }
            ],
            "name": "createMockResults",
            "outputs": [
                {
                    "internalType": "address",
                    "name": "mock",
                    "type": "address"
                }
            ],
            "stateMutability": "nonpayable",
            "type": "function"
        },
        {
            "inputs": [],
            "name": "docsList",
            "outputs": [
                {
                    "internalType": "address[]",
                    "name": "",
                    "type": "address[]"
                }
            ],
            "stateMutability": "view",
            "type": "function"
        },
        {
            "inputs": [],
            "name": "finalized",
            "outputs": [
                {
                    "internalType": "bool",
                    "name": "",
                    "type": "bool"
                }
            ],
            "stateMutability": "view",
            "type": "function"
        },
        {
            "inputs": [
                {
                    "internalType": "address",
                    "name": "ia",
                    "type": "address"
                }
            ],
            "name": "frDealsOfIA",
            "outputs": [
                {
                    "internalType": "address",
                    "name": "",
                    "type": "address"
                }
            ],
            "stateMutability": "view",
            "type": "function"
        },
        {
            "inputs": [],
            "name": "getBookeeper",
            "outputs": [
                {
                    "internalType": "address",
                    "name": "",
                    "type": "address"
                }
            ],
            "stateMutability": "view",
            "type": "function"
        },
        {
            "inputs": [],
            "name": "getGeneralCounsel",
            "outputs": [
                {
                    "internalType": "uint40",
                    "name": "",
                    "type": "uint40"
                }
            ],
            "stateMutability": "view",
            "type": "function"
        },
        {
            "inputs": [
                {
                    "internalType": "address",
                    "name": "body",
                    "type": "address"
                }
            ],
            "name": "getHeadOfDoc",
            "outputs": [
                {
                    "components": [
                        {
                            "internalType": "uint8",
                            "name": "docType",
                            "type": "uint8"
                        },
                        {
                            "internalType": "uint40",
                            "name": "creator",
                            "type": "uint40"
                        },
                        {
                            "internalType": "uint48",
                            "name": "createDate",
                            "type": "uint48"
                        },
                        {
                            "internalType": "uint48",
                            "name": "shaExecDeadline",
                            "type": "uint48"
                        },
                        {
                            "internalType": "uint48",
                            "name": "proposeDeadline",
                            "type": "uint48"
                        },
                        {
                            "internalType": "uint8",
                            "name": "state",
                            "type": "uint8"
                        }
                    ],
                    "internalType": "struct IRepoOfDocs.Head",
                    "name": "head",
                    "type": "tuple"
                }
            ],
            "stateMutability": "view",
            "type": "function"
        },
        {
            "inputs": [],
            "name": "getOwner",
            "outputs": [
                {
                    "internalType": "uint40",
                    "name": "",
                    "type": "uint40"
                }
            ],
            "stateMutability": "view",
            "type": "function"
        },
        {
            "inputs": [
                {
                    "internalType": "address",
                    "name": "body",
                    "type": "address"
                }
            ],
            "name": "getRefOfDoc",
            "outputs": [
                {
                    "internalType": "bytes32",
                    "name": "docUrl",
                    "type": "bytes32"
                },
                {
                    "internalType": "bytes32",
                    "name": "docHash",
                    "type": "bytes32"
                }
            ],
            "stateMutability": "view",
            "type": "function"
        },
        {
            "inputs": [
                {
                    "internalType": "bytes32",
                    "name": "role",
                    "type": "bytes32"
                },
                {
                    "internalType": "uint40",
                    "name": "acct",
                    "type": "uint40"
                }
            ],
            "name": "grantRole",
            "outputs": [],
            "stateMutability": "nonpayable",
            "type": "function"
        },
        {
            "inputs": [
                {
                    "internalType": "bytes32",
                    "name": "role",
                    "type": "bytes32"
                },
                {
                    "internalType": "uint40",
                    "name": "acct",
                    "type": "uint40"
                }
            ],
            "name": "hasRole",
            "outputs": [
                {
                    "internalType": "bool",
                    "name": "",
                    "type": "bool"
                }
            ],
            "stateMutability": "view",
            "type": "function"
        },
        {
            "inputs": [
                {
                    "internalType": "uint40",
                    "name": "owner",
                    "type": "uint40"
                },
                {
                    "internalType": "address",
                    "name": "directKeeper",
                    "type": "address"
                },
                {
                    "internalType": "address",
                    "name": "regCenter",
                    "type": "address"
                },
                {
                    "internalType": "address",
                    "name": "generalKeeper",
                    "type": "address"
                }
            ],
            "name": "init",
            "outputs": [],
            "stateMutability": "nonpayable",
            "type": "function"
        },
        {
            "inputs": [
                {
                    "internalType": "address",
                    "name": "body",
                    "type": "address"
                },
                {
                    "internalType": "uint40",
                    "name": "acct",
                    "type": "uint40"
                }
            ],
            "name": "isInitSigner",
            "outputs": [
                {
                    "internalType": "bool",
                    "name": "",
                    "type": "bool"
                }
            ],
            "stateMutability": "view",
            "type": "function"
        },
        {
            "inputs": [
                {
                    "internalType": "address",
                    "name": "body",
                    "type": "address"
                },
                {
                    "internalType": "uint40",
                    "name": "acct",
                    "type": "uint40"
                }
            ],
            "name": "isParty",
            "outputs": [
                {
                    "internalType": "bool",
                    "name": "",
                    "type": "bool"
                }
            ],
            "stateMutability": "view",
            "type": "function"
        },
        {
            "inputs": [
                {
                    "internalType": "address",
                    "name": "body",
                    "type": "address"
                }
            ],
            "name": "isRegistered",
            "outputs": [
                {
                    "internalType": "bool",
                    "name": "",
                    "type": "bool"
                }
            ],
            "stateMutability": "view",
            "type": "function"
        },
        {
            "inputs": [],
            "name": "lockContents",
            "outputs": [],
            "stateMutability": "nonpayable",
            "type": "function"
        },
        {
            "inputs": [
                {
                    "internalType": "address",
                    "name": "ia",
                    "type": "address"
                }
            ],
            "name": "mockResultsOfIA",
            "outputs": [
                {
                    "internalType": "address",
                    "name": "",
                    "type": "address"
                }
            ],
            "stateMutability": "view",
            "type": "function"
        },
        {
            "inputs": [
                {
                    "internalType": "address",
                    "name": "body",
                    "type": "address"
                }
            ],
            "name": "parasOfPage",
            "outputs": [
                {
                    "components": [
                        {
                            "internalType": "uint16",
                            "name": "seq",
                            "type": "uint16"
                        },
                        {
                            "internalType": "uint40",
                            "name": "signer",
                            "type": "uint40"
                        },
                        {
                            "internalType": "uint48",
                            "name": "sigDate",
                            "type": "uint48"
                        },
                        {
                            "internalType": "uint64",
                            "name": "blocknumber",
                            "type": "uint64"
                        },
                        {
                            "internalType": "bytes32",
                            "name": "sigHash",
                            "type": "bytes32"
                        }
                    ],
                    "internalType": "struct SigsRepo.Signature",
                    "name": "",
                    "type": "tuple"
                }
            ],
            "stateMutability": "view",
            "type": "function"
        },
        {
            "inputs": [
                {
                    "internalType": "address",
                    "name": "body",
                    "type": "address"
                }
            ],
            "name": "partiesOfDoc",
            "outputs": [
                {
                    "internalType": "uint256[]",
                    "name": "",
                    "type": "uint256[]"
                }
            ],
            "stateMutability": "view",
            "type": "function"
        },
        {
            "inputs": [
                {
                    "internalType": "address",
                    "name": "body",
                    "type": "address"
                }
            ],
            "name": "pushToNextState",
            "outputs": [],
            "stateMutability": "nonpayable",
            "type": "function"
        },
        {
            "inputs": [],
            "name": "qtyOfDocs",
            "outputs": [
                {
                    "internalType": "uint256",
                    "name": "",
                    "type": "uint256"
                }
            ],
            "stateMutability": "view",
            "type": "function"
        },
        {
            "inputs": [
                {
                    "internalType": "address",
                    "name": "body",
                    "type": "address"
                }
            ],
            "name": "qtyOfParties",
            "outputs": [
                {
                    "internalType": "uint256",
                    "name": "",
                    "type": "uint256"
                }
            ],
            "stateMutability": "view",
            "type": "function"
        },
        {
            "inputs": [
                {
                    "internalType": "uint40",
                    "name": "acct",
                    "type": "uint40"
                },
                {
                    "internalType": "uint16",
                    "name": "seq",
                    "type": "uint16"
                }
            ],
            "name": "removeBlank",
            "outputs": [],
            "stateMutability": "nonpayable",
            "type": "function"
        },
        {
            "inputs": [
                {
                    "internalType": "address",
                    "name": "body",
                    "type": "address"
                }
            ],
            "name": "removeDoc",
            "outputs": [],
            "stateMutability": "nonpayable",
            "type": "function"
        },
        {
            "inputs": [
                {
                    "internalType": "bytes32",
                    "name": "role",
                    "type": "bytes32"
                }
            ],
            "name": "renounceRole",
            "outputs": [],
            "stateMutability": "nonpayable",
            "type": "function"
        },
        {
            "inputs": [
                {
                    "internalType": "bytes32",
                    "name": "role",
                    "type": "bytes32"
                },
                {
                    "internalType": "uint40",
                    "name": "acct",
                    "type": "uint40"
                }
            ],
            "name": "revokeRole",
            "outputs": [],
            "stateMutability": "nonpayable",
            "type": "function"
        },
        {
            "inputs": [
                {
                    "internalType": "address",
                    "name": "boh",
                    "type": "address"
                }
            ],
            "name": "setBOH",
            "outputs": [],
            "stateMutability": "nonpayable",
            "type": "function"
        },
        {
            "inputs": [
                {
                    "internalType": "uint48",
                    "name": "deadline",
                    "type": "uint48"
                }
            ],
            "name": "setClosingDeadline",
            "outputs": [],
            "stateMutability": "nonpayable",
            "type": "function"
        },
        {
            "inputs": [
                {
                    "internalType": "address",
                    "name": "keeper",
                    "type": "address"
                }
            ],
            "name": "setDirectKeeper",
            "outputs": [],
            "stateMutability": "nonpayable",
            "type": "function"
        },
        {
            "inputs": [
                {
                    "internalType": "uint40",
                    "name": "acct",
                    "type": "uint40"
                }
            ],
            "name": "setGeneralCounsel",
            "outputs": [],
            "stateMutability": "nonpayable",
            "type": "function"
        },
        {
            "inputs": [
                {
                    "internalType": "uint40",
                    "name": "acct",
                    "type": "uint40"
                }
            ],
            "name": "setOwner",
            "outputs": [],
            "stateMutability": "nonpayable",
            "type": "function"
        },
        {
            "inputs": [
                {
                    "internalType": "bytes32",
                    "name": "role",
                    "type": "bytes32"
                },
                {
                    "internalType": "uint40",
                    "name": "acct",
                    "type": "uint40"
                }
            ],
            "name": "setRoleAdmin",
            "outputs": [],
            "stateMutability": "nonpayable",
            "type": "function"
        },
        {
            "inputs": [
                {
                    "internalType": "uint48",
                    "name": "deadline",
                    "type": "uint48"
                }
            ],
            "name": "setSigDeadline",
            "outputs": [],
            "stateMutability": "nonpayable",
            "type": "function"
        },
        {
            "inputs": [
                {
                    "internalType": "address",
                    "name": "body",
                    "type": "address"
                },
                {
                    "internalType": "uint8",
                    "name": "typeOfDoc",
                    "type": "uint8"
                }
            ],
            "name": "setTemplate",
            "outputs": [],
            "stateMutability": "nonpayable",
            "type": "function"
        },
        {
            "inputs": [
                {
                    "internalType": "address",
                    "name": "body",
                    "type": "address"
                },
                {
                    "internalType": "uint16",
                    "name": "seq",
                    "type": "uint16"
                },
                {
                    "internalType": "uint40",
                    "name": "acct",
                    "type": "uint40"
                }
            ],
            "name": "sigOfDeal",
            "outputs": [
                {
                    "components": [
                        {
                            "internalType": "uint16",
                            "name": "seq",
                            "type": "uint16"
                        },
                        {
                            "internalType": "uint40",
                            "name": "signer",
                            "type": "uint40"
                        },
                        {
                            "internalType": "uint48",
                            "name": "sigDate",
                            "type": "uint48"
                        },
                        {
                            "internalType": "uint64",
                            "name": "blocknumber",
                            "type": "uint64"
                        },
                        {
                            "internalType": "bytes32",
                            "name": "sigHash",
                            "type": "bytes32"
                        }
                    ],
                    "internalType": "struct SigsRepo.Signature",
                    "name": "",
                    "type": "tuple"
                }
            ],
            "stateMutability": "view",
            "type": "function"
        },
        {
            "inputs": [
                {
                    "internalType": "address",
                    "name": "body",
                    "type": "address"
                },
                {
                    "internalType": "uint40",
                    "name": "acct",
                    "type": "uint40"
                }
            ],
            "name": "sigOfDoc",
            "outputs": [
                {
                    "components": [
                        {
                            "internalType": "uint16",
                            "name": "seq",
                            "type": "uint16"
                        },
                        {
                            "internalType": "uint40",
                            "name": "signer",
                            "type": "uint40"
                        },
                        {
                            "internalType": "uint48",
                            "name": "sigDate",
                            "type": "uint48"
                        },
                        {
                            "internalType": "uint64",
                            "name": "blocknumber",
                            "type": "uint64"
                        },
                        {
                            "internalType": "bytes32",
                            "name": "sigHash",
                            "type": "bytes32"
                        }
                    ],
                    "internalType": "struct SigsRepo.Signature",
                    "name": "",
                    "type": "tuple"
                }
            ],
            "stateMutability": "view",
            "type": "function"
        },
        {
            "inputs": [
                {
                    "internalType": "address",
                    "name": "body",
                    "type": "address"
                },
                {
                    "internalType": "uint16",
                    "name": "seq",
                    "type": "uint16"
                },
                {
                    "internalType": "uint40",
                    "name": "caller",
                    "type": "uint40"
                },
                {
                    "internalType": "bytes32",
                    "name": "sigHash",
                    "type": "bytes32"
                }
            ],
            "name": "signDeal",
            "outputs": [],
            "stateMutability": "nonpayable",
            "type": "function"
        },
        {
            "inputs": [
                {
                    "internalType": "address",
                    "name": "body",
                    "type": "address"
                },
                {
                    "internalType": "uint40",
                    "name": "caller",
                    "type": "uint40"
                },
                {
                    "internalType": "bytes32",
                    "name": "sigHash",
                    "type": "bytes32"
                }
            ],
            "name": "signDoc",
            "outputs": [],
            "stateMutability": "nonpayable",
            "type": "function"
        },
        {
            "inputs": [
                {
                    "internalType": "uint8",
                    "name": "typeOfDoc",
                    "type": "uint8"
                }
            ],
            "name": "template",
            "outputs": [
                {
                    "internalType": "address",
                    "name": "",
                    "type": "address"
                }
            ],
            "stateMutability": "view",
            "type": "function"
        }
    ],
    "bytecode": "608060405234801561001057600080fd5b506143ed806100206000396000f3fe608060405234801561001057600080fd5b50600436106102955760003560e01c8063891613e711610167578063d6876305116100ce578063ea8457f811610087578063ea8457f81461071a578063ed194c881461072d578063ed2110231461073e578063ee4b47c114610746578063f045a7691461074e578063f43323ee1461075657600080fd5b8063d687630514610626578063dd4578aa14610639578063de154c271461064c578063deb57175146106c8578063df280c21146106f4578063e02496671461070757600080fd5b8063ad74d2a511610120578063ad74d2a5146105a6578063b3f05b97146105b9578063ba6bd79b146105cd578063c3c5a547146105e0578063d42186fa146105f3578063d63362771461060657600080fd5b8063891613e714610531578063893d20e8146105445780638bb9c5bf1461054c578063a1cb43811461055f578063a95027b314610580578063aa5965761461059357600080fd5b80634efd15f21161020b578063746e421f116101c4578063746e421f146104bf578063765f54a7146104d257806379b2ec12146104e55780637ba706e8146104f8578063821ee8ea1461050b5780638506c43f1461051e57600080fd5b80634efd15f21461041b5780635c049642146104475780636be8496f1461045a5780636f2947951461046d57806372d1a5131461048057806374099815146104ac57600080fd5b806329ce58881161025d57806329ce5888146103385780633178a9a91461035b5780633ced51a51461036e5780633da9a600146103e05780634794be07146103f35780634be157d51461040657600080fd5b80630a1cb7f31461029a578063103f6edd146102ca57806316dc517e146102e857806317c51fec146102fd578063289aeb5714610310575b600080fd5b6102ad6102a8366004613b5a565b610769565b6040516001600160a01b0390911681526020015b60405180910390f35b6102d261083f565b60405164ffffffffff90911681526020016102c1565b6102fb6102f6366004613b93565b6108cb565b005b6102fb61030b366004613b93565b610961565b61032361031e366004613bb8565b610986565b604080519283526020830191909152016102c1565b61034b610346366004613b5a565b610a5c565b60405190151581526020016102c1565b6102fb610369366004613bd5565b610b4a565b61038161037c366004613c02565b610d44565b6040516102c19190600060a08201905061ffff835116825264ffffffffff602084015116602083015265ffffffffffff604084015116604083015267ffffffffffffffff60608401511660608301526080830151608083015292915050565b6102fb6103ee366004613c4d565b610ed2565b6102fb610401366004613c7a565b610fe5565b61040e6110e6565b6040516102c19190613c97565b6102ad610429366004613cfa565b60ff166000908152600560205260409020546001600160a01b031690565b61034b610455366004613b5a565b611170565b6102fb610468366004613bb8565b6112d1565b6102fb61047b366004613d15565b611383565b6102ad61048e366004613bb8565b6001600160a01b039081166000908152600960205260409020541690565b6102fb6104ba366004613b93565b6114b1565b6103816104cd366004613b5a565b6114d6565b6102fb6104e0366004613d56565b611658565b61034b6104f3366004613b93565b61180e565b6102fb610506366004613bd5565b6118a8565b6102fb610519366004613da7565b611a9b565b6102fb61052c366004613e03565b611b8b565b6102ad61053f366004613e38565b611d3b565b6102d2612052565b6102fb61055a366004613c4d565b61208d565b61057261056d366004613bb8565b6120e6565b6040519081526020016102c1565b6102fb61058e366004613bb8565b61223e565b6102fb6105a1366004613e54565b612431565b6103816105b4366004613bb8565b61253f565b60028054600160f01b900460ff161461034b565b6102fb6105db366004613bb8565b6126ad565b61034b6105ee366004613bb8565b612775565b6102fb610601366004613bb8565b612802565b610619610614366004613bb8565b612a38565b6040516102c19190613e89565b6102fb610634366004613ec1565b612b8d565b6102fb610647366004613ec1565b612ccb565b61065f61065a366004613bb8565b612dd5565b6040516102c19190600060c08201905060ff835116825264ffffffffff6020840151166020830152604083015165ffffffffffff8082166040850152806060860151166060850152806080860151166080850152505060ff60a08401511660a083015292915050565b6102ad6106d6366004613bb8565b6001600160a01b039081166000908152600a60205260409020541690565b6102ad610702366004613b5a565b612f34565b6102fb610715366004613eef565b612ff8565b6102fb610728366004613c7a565b61332c565b6004546001600160a01b03166102ad565b6102ad61342d565b6105726134b3565b6102fb613539565b6102fb610764366004613d15565b613758565b6001546040516335d2155560e11b81523360048201526000916001600160a01b031690636ba42aaa90602401602060405180830381600087803b1580156107af57600080fd5b505af11580156107c3573d6000803e3d6000fd5b505050506040513d601f19601f820116820180604052508101906107e79190613f2a565b61080c5760405162461bcd60e51b815260040161080390613f4c565b60405180910390fd5b6001600160a01b038381166000908152600960205260409020541661083957610836600183611d3b565b90505b92915050565b60405163e8c0cc1d60e01b81526002600482015260009073__$364aad554dc80380f414546becdd2c1584$__9063e8c0cc1d906024015b60206040518083038186803b15801561088e57600080fd5b505af41580156108a2573d6000803e3d6000fd5b505050506040513d601f19601f820116820180604052508101906108c69190613f77565b905090565b73__$364aad554dc80380f414546becdd2c1584$__63427abff46002846108f06138fb565b6040516001600160e01b031960e086901b1681526004810193909352602483019190915264ffffffffff9081166044830152841660648201526084015b60006040518083038186803b15801561094557600080fd5b505af4158015610959573d6000803e3d6000fd5b505050505050565b73__$364aad554dc80380f414546becdd2c1584$__638ce158456002846108f06138fb565b60405163f698b0f160e01b81526000908190839073__$8c1a4844a0a0988ea2454cf87145a95df1$__9063f698b0f1906109c7906007908590600401613f94565b60206040518083038186803b1580156109df57600080fd5b505af41580156109f3573d6000803e3d6000fd5b505050506040513d601f19601f82011682018060405250810190610a179190613f2a565b610a335760405162461bcd60e51b815260040161080390613fab565b5050506001600160a01b0316600090815260066020526040902060018101546002909101549091565b60405163f698b0f160e01b8152600090839073__$8c1a4844a0a0988ea2454cf87145a95df1$__9063f698b0f190610a9b906007908590600401613f94565b60206040518083038186803b158015610ab357600080fd5b505af4158015610ac7573d6000803e3d6000fd5b505050506040513d601f19601f82011682018060405250810190610aeb9190613f2a565b610b075760405162461bcd60e51b815260040161080390613fab565b6001600160a01b038416600090815260066020908152604080832064ffffffffff8088168086526003909201909352922054620100009004161491505092915050565b604051633b11adbf60e21b815273__$364aad554dc80380f414546becdd2c1584$__9063ec46b6fc90610b84906002903390600401613f94565b60206040518083038186803b158015610b9c57600080fd5b505af4158015610bb0573d6000803e3d6000fd5b505050506040513d601f19601f82011682018060405250810190610bd49190613f2a565b80610c79575073__$364aad554dc80380f414546becdd2c1584$__63fe2710866002610bfe6138fb565b6040516001600160e01b031960e085901b168152600481019290925264ffffffffff16602482015260440160206040518083038186803b158015610c4157600080fd5b505af4158015610c55573d6000803e3d6000fd5b505050506040513d601f19601f82011682018060405250810190610c799190613f2a565b610c955760405162461bcd60e51b815260040161080390613fe2565b604051632725ebef60e21b81526002600482015264ffffffffff8216602482015273__$364aad554dc80380f414546becdd2c1584$__90639c97afbc9060440160006040518083038186803b158015610ced57600080fd5b505af4158015610d01573d6000803e3d6000fd5b505060405164ffffffffff841681527ff2735f34b69be1e6342dea95f9162f84d0db925fab655ca9f1f312ac8cbfc99d925060200190505b60405180910390a150565b6040805160a081018252600080825260208201819052818301819052606082018190526080820152905163f698b0f160e01b8152849073__$8c1a4844a0a0988ea2454cf87145a95df1$__9063f698b0f190610da7906007908590600401613f94565b60206040518083038186803b158015610dbf57600080fd5b505af4158015610dd3573d6000803e3d6000fd5b505050506040513d601f19601f82011682018060405250810190610df79190613f2a565b610e135760405162461bcd60e51b815260040161080390613fab565b6001600160a01b03851660009081526006602052604090819020905163d0e216db60e01b81526003909101600482015261ffff8516602482015264ffffffffff8416604482015273__$47b88465a20692378cf12e8e0c338f01dd$__9063d0e216db9060640160a06040518083038186803b158015610e9157600080fd5b505af4158015610ea5573d6000803e3d6000fd5b505050506040513d601f19601f82011682018060405250810190610ec9919061407f565b95945050505050565b604051633b11adbf60e21b815273__$364aad554dc80380f414546becdd2c1584$__9063ec46b6fc90610f0c906002903390600401613f94565b60206040518083038186803b158015610f2457600080fd5b505af4158015610f38573d6000803e3d6000fd5b505050506040513d601f19601f82011682018060405250810190610f5c9190613f2a565b610f785760405162461bcd60e51b815260040161080390614122565b60405163cc99e11b60e01b8152600260048201526024810182905273__$364aad554dc80380f414546becdd2c1584$__9063cc99e11b9060440160006040518083038186803b158015610fca57600080fd5b505af4158015610fde573d6000803e3d6000fd5b5050505050565b60405163f698b0f160e01b8152339073__$8c1a4844a0a0988ea2454cf87145a95df1$__9063f698b0f190611021906007908590600401613f94565b60206040518083038186803b15801561103957600080fd5b505af415801561104d573d6000803e3d6000fd5b505050506040513d601f19601f820116820180604052508101906110719190613f2a565b61108d5760405162461bcd60e51b815260040161080390613fab565b33600090815260066020526040908190209051630ac8cc2160e01b81526003909101600482015265ffffffffffff8316602482015273__$47b88465a20692378cf12e8e0c338f01dd$__90630ac8cc219060440161092d565b604051638f65372b60e01b81526007600482015260609073__$8c1a4844a0a0988ea2454cf87145a95df1$__90638f65372b9060240160006040518083038186803b15801561113457600080fd5b505af4158015611148573d6000803e3d6000fd5b505050506040513d6000823e601f3d908101601f191682016040526108c6919081019061418c565b60405163f698b0f160e01b8152600090839073__$8c1a4844a0a0988ea2454cf87145a95df1$__9063f698b0f1906111af906007908590600401613f94565b60206040518083038186803b1580156111c757600080fd5b505af41580156111db573d6000803e3d6000fd5b505050506040513d601f19601f820116820180604052508101906111ff9190613f2a565b61121b5760405162461bcd60e51b815260040161080390613fab565b6001600160a01b038416600090815260066020526040908190209051633f5f77cd60e01b815260049182019181019190915264ffffffffff8416602482015273__$8c1a4844a0a0988ea2454cf87145a95df1$__90633f5f77cd9060440160206040518083038186803b15801561129157600080fd5b505af41580156112a5573d6000803e3d6000fd5b505050506040513d601f19601f820116820180604052508101906112c99190613f2a565b949350505050565b604051630f07232560e01b8152600260048201523360248201526001600160a01b038216604482015273__$364aad554dc80380f414546becdd2c1584$__90630f0723259060640160006040518083038186803b15801561133157600080fd5b505af4158015611345573d6000803e3d6000fd5b50506040516001600160a01b03841681527fe435cbeab64e4eae6497b9d8289704bd709d624a80704ef3ca9af777534bc6ec92506020019050610d39565b604051633b11adbf60e21b815273__$364aad554dc80380f414546becdd2c1584$__9063ec46b6fc906113bd906002903390600401613f94565b60206040518083038186803b1580156113d557600080fd5b505af41580156113e9573d6000803e3d6000fd5b505050506040513d601f19601f8201168201806040525081019061140d9190613f2a565b6114295760405162461bcd60e51b815260040161080390614122565b6001600160a01b038316600090815260066020526040902054839060ff600160c01b9091041660021461149e5760405162461bcd60e51b815260206004820152601e60248201527f524f442e6d642e6f66633a20446f63206e6f742043697263756c6174656400006044820152606401610803565b6114ab8460008585611658565b50505050565b73__$364aad554dc80380f414546becdd2c1584$__63d2a15ba76002846108f06138fb565b6040805160a081018252600080825260208201819052818301819052606082018190526080820152905163f698b0f160e01b8152839073__$8c1a4844a0a0988ea2454cf87145a95df1$__9063f698b0f190611539906007908590600401613f94565b60206040518083038186803b15801561155157600080fd5b505af4158015611565573d6000803e3d6000fd5b505050506040513d601f19601f820116820180604052508101906115899190613f2a565b6115a55760405162461bcd60e51b815260040161080390613fab565b6001600160a01b038416600090815260066020526040808220905163d0e216db60e01b815260039091016004820152602481019190915264ffffffffff8416604482015273__$47b88465a20692378cf12e8e0c338f01dd$__9063d0e216db9060640160a06040518083038186803b15801561162057600080fd5b505af4158015611634573d6000803e3d6000fd5b505050506040513d601f19601f820116820180604052508101906112c9919061407f565b6001600160a01b038416600090815260066020526040902054849060ff600160c01b909104166002146116cd5760405162461bcd60e51b815260206004820152601e60248201527f524f442e6d642e6f66633a20446f63206e6f742043697263756c6174656400006044820152606401610803565b604051633b11adbf60e21b815273__$364aad554dc80380f414546becdd2c1584$__9063ec46b6fc90611707906002903390600401613f94565b60206040518083038186803b15801561171f57600080fd5b505af4158015611733573d6000803e3d6000fd5b505050506040513d601f19601f820116820180604052508101906117579190613f2a565b6117735760405162461bcd60e51b815260040161080390614122565b33600090815260066020526040908190209051638770fa4760e01b81526003909101600482015261ffff8516602482015264ffffffffff841660448201526064810183905273__$47b88465a20692378cf12e8e0c338f01dd$__90638770fa479060840160006040518083038186803b1580156117ef57600080fd5b505af4158015611803573d6000803e3d6000fd5b505050505050505050565b604051632a3be56b60e21b8152600260048201526024810183905264ffffffffff8216604482015260009073__$364aad554dc80380f414546becdd2c1584$__9063a8ef95ac9060640160206040518083038186803b15801561187057600080fd5b505af4158015611884573d6000803e3d6000fd5b505050506040513d601f19601f820116820180604052508101906108369190613f2a565b604051633b11adbf60e21b815273__$364aad554dc80380f414546becdd2c1584$__9063ec46b6fc906118e2906002903390600401613f94565b60206040518083038186803b1580156118fa57600080fd5b505af415801561190e573d6000803e3d6000fd5b505050506040513d601f19601f820116820180604052508101906119329190613f2a565b806119d7575073__$364aad554dc80380f414546becdd2c1584$__63fe271086600261195c6138fb565b6040516001600160e01b031960e085901b168152600481019290925264ffffffffff16602482015260440160206040518083038186803b15801561199f57600080fd5b505af41580156119b3573d6000803e3d6000fd5b505050506040513d601f19601f820116820180604052508101906119d79190613f2a565b6119f35760405162461bcd60e51b815260040161080390613fe2565b60405163b6e38a2960e01b81526002600482015264ffffffffff8216602482015273__$364aad554dc80380f414546becdd2c1584$__9063b6e38a299060440160006040518083038186803b158015611a4b57600080fd5b505af4158015611a5f573d6000803e3d6000fd5b505060405164ffffffffff841681527f8b6f40f36b4ae8cc5f55e895036457c43da4ab1f80f58c46f5ff0d72a650033b92506020019050610d39565b611aa482613955565b611aad816139f4565b604051636cdd0edf60e11b81526002600482015264ffffffffff851660248201526001600160a01b038416604482015273__$364aad554dc80380f414546becdd2c1584$__9063d9ba1dbe9060640160006040518083038186803b158015611b1457600080fd5b505af4158015611b28573d6000803e3d6000fd5b50506040805164ffffffffff881681526001600160a01b038781166020830152868116828401528516606082015290517f4d18c0021addc919105cb1ed2c11ad241e859cc1d9e77d4ee1d9ca2cdc1f255b9350908190036080019150a150505050565b604051633b11adbf60e21b815273__$364aad554dc80380f414546becdd2c1584$__9063ec46b6fc90611bc5906002903390600401613f94565b60206040518083038186803b158015611bdd57600080fd5b505af4158015611bf1573d6000803e3d6000fd5b505050506040513d601f19601f82011682018060405250810190611c159190613f2a565b611c315760405162461bcd60e51b815260040161080390614122565b6000836001600160a01b0316639b59d9806040518163ffffffff1660e01b815260040160206040518083038186803b158015611c6c57600080fd5b505afa158015611c80573d6000803e3d6000fd5b505050506040513d601f19601f82011682018060405250810190611ca4919061422b565b90506000611cb0613a42565b6001600160a01b03166348462037836040518263ffffffff1660e01b8152600401611cdd91815260200190565b60206040518083038186803b158015611cf557600080fd5b505afa158015611d09573d6000803e3d6000fd5b505050506040513d601f19601f82011682018060405250810190611d2d919061422b565b9050610fde85828686612ff8565b604051633b11adbf60e21b815260009073__$364aad554dc80380f414546becdd2c1584$__9063ec46b6fc90611d78906002903390600401613f94565b60206040518083038186803b158015611d9057600080fd5b505af4158015611da4573d6000803e3d6000fd5b505050506040513d601f19601f82011682018060405250810190611dc89190613f2a565b611de45760405162461bcd60e51b815260040161080390614122565b60ff831660009081526005602052604090205483906001600160a01b0316611e4e5760405162461bcd60e51b815260206004820152601b60248201527f524f442e6d642e74723a2074656d706c617465204e4f542073657400000000006044820152606401610803565b60ff8416600090815260056020526040812054611e73906001600160a01b0316613aa6565b604051633e244cf360e01b815290915073__$8c1a4844a0a0988ea2454cf87145a95df1$__90633e244cf390611eb0906007908590600401613f94565b60206040518083038186803b158015611ec857600080fd5b505af4158015611edc573d6000803e3d6000fd5b505050506040513d601f19601f82011682018060405250810190611f009190613f2a565b1561204a579150816001600160a01b0381167f7d25780785c2b2fefad30c6603980e64e6005c311412119d7e4702f602fd730a600160405160ff909116815260200160405180910390a26040805160c08101825260ff878116825264ffffffffff878116602080850191825265ffffffffffff42811686880190815260006060880181815260808901828152600160a08b019081526001600160a01b038f16845260069096529990912097518854955192519151995194518816600160c01b0260ff60c01b19958516600160901b029590951666ffffffffffffff60901b199a8516600160601b0265ffffffffffff60601b19939095166601000000000000029290921671ffffffffffffffffffffffff00000000000019939097166101000265ffffffffffff199096169716969096179390931792909216929092171793909316179190911790555b505092915050565b60405163987ad15360e01b81526002600482015260009073__$364aad554dc80380f414546becdd2c1584$__9063987ad15390602401610876565b60006120976138fb565b604051637963595360e11b8152600260048201526024810184905264ffffffffff8216604482015290915073__$364aad554dc80380f414546becdd2c1584$__9063f2c6b2a69060640161092d565b60405163f698b0f160e01b8152600090829073__$8c1a4844a0a0988ea2454cf87145a95df1$__9063f698b0f190612125906007908590600401613f94565b60206040518083038186803b15801561213d57600080fd5b505af4158015612151573d6000803e3d6000fd5b505050506040513d601f19601f820116820180604052508101906121759190613f2a565b6121915760405162461bcd60e51b815260040161080390613fab565b6001600160a01b03831660009081526006602052604090819020905163c2b46a8560e01b815273__$8c1a4844a0a0988ea2454cf87145a95df1$__9163c2b46a85916121e7916004908101910190815260200190565b60206040518083038186803b1580156121ff57600080fd5b505af4158015612213573d6000803e3d6000fd5b505050506040513d601f19601f82011682018060405250810190612237919061422b565b9392505050565b60405163f698b0f160e01b8152819073__$8c1a4844a0a0988ea2454cf87145a95df1$__9063f698b0f19061227a906007908590600401613f94565b60206040518083038186803b15801561229257600080fd5b505af41580156122a6573d6000803e3d6000fd5b505050506040513d601f19601f820116820180604052508101906122ca9190613f2a565b6122e65760405162461bcd60e51b815260040161080390613fab565b6001546040516335d2155560e11b81523360048201526001600160a01b0390911690636ba42aaa90602401602060405180830381600087803b15801561232b57600080fd5b505af115801561233f573d6000803e3d6000fd5b505050506040513d601f19601f820116820180604052508101906123639190613f2a565b61237f5760405162461bcd60e51b815260040161080390613f4c565b6001600160a01b0382166000818152600660205260409020547f7d25780785c2b2fefad30c6603980e64e6005c311412119d7e4702f602fd730a906123cf90600160c01b900460ff16600161425a565b60405160ff909116815260200160405180910390a26001600160a01b03821660009081526006602052604090208054600160c01b900460ff169060186124148361427f565b91906101000a81548160ff021916908360ff160217905550505050565b604051633b11adbf60e21b815273__$364aad554dc80380f414546becdd2c1584$__9063ec46b6fc9061246b906002903390600401613f94565b60206040518083038186803b15801561248357600080fd5b505af4158015612497573d6000803e3d6000fd5b505050506040513d601f19601f820116820180604052508101906124bb9190613f2a565b6124d75760405162461bcd60e51b815260040161080390614122565b60ff811660008181526005602090815260409182902080546001600160a01b0319166001600160a01b038716908117909155915192835290917f69e0d9bafb5046296417aaeb6e5f2d326263f2c4211bc67a7d7fa7f03b0e4373910160405180910390a25050565b6040805160a081018252600080825260208201819052818301819052606082018190526080820152905163f698b0f160e01b8152829073__$8c1a4844a0a0988ea2454cf87145a95df1$__9063f698b0f1906125a2906007908590600401613f94565b60206040518083038186803b1580156125ba57600080fd5b505af41580156125ce573d6000803e3d6000fd5b505050506040513d601f19601f820116820180604052508101906125f29190613f2a565b61260e5760405162461bcd60e51b815260040161080390613fab565b6001600160a01b0383166000908152600660205260409081902090516372f2266760e11b81526003909101600482015273__$47b88465a20692378cf12e8e0c338f01dd$__9063e5e44cce9060240160a06040518083038186803b15801561267557600080fd5b505af4158015612689573d6000803e3d6000fd5b505050506040513d601f19601f82011682018060405250810190612237919061407f565b604051633b11adbf60e21b815273__$364aad554dc80380f414546becdd2c1584$__9063ec46b6fc906126e7906002903390600401613f94565b60206040518083038186803b1580156126ff57600080fd5b505af4158015612713573d6000803e3d6000fd5b505050506040513d601f19601f820116820180604052508101906127379190613f2a565b6127535760405162461bcd60e51b815260040161080390614122565b600480546001600160a01b0319166001600160a01b0392909216919091179055565b60405163f698b0f160e01b815260009073__$8c1a4844a0a0988ea2454cf87145a95df1$__9063f698b0f1906127b2906007908690600401613f94565b60206040518083038186803b1580156127ca57600080fd5b505af41580156127de573d6000803e3d6000fd5b505050506040513d601f19601f820116820180604052508101906108399190613f2a565b604051633b11adbf60e21b815273__$364aad554dc80380f414546becdd2c1584$__9063ec46b6fc9061283c906002903390600401613f94565b60206040518083038186803b15801561285457600080fd5b505af4158015612868573d6000803e3d6000fd5b505050506040513d601f19601f8201168201806040525081019061288c9190613f2a565b6128a85760405162461bcd60e51b815260040161080390614122565b6001600160a01b038116600090815260066020526040902054819060ff600160c01b9091041660011461291d5760405162461bcd60e51b815260206004820152601b60248201527f524f442e6d642e6f66703a20646f63206e6f742070656e64696e6700000000006044820152606401610803565b604051636ea2751560e01b815273__$8c1a4844a0a0988ea2454cf87145a95df1$__90636ea2751590612957906007908690600401613f94565b60206040518083038186803b15801561296f57600080fd5b505af4158015612983573d6000803e3d6000fd5b505050506040513d601f19601f820116820180604052508101906129a79190613f2a565b15612a34576040516001600160a01b038316907f05633b380cd1dd8bb1af7cbbf29e862857a3f147da66cbb23bdad8f7e527830b90600090a26001600160a01b038216600090815260066020526040812080546001600160c81b0319168155600181018290556002810182905590600382018160048401818181612a2b8282613af8565b50505050505050505b5050565b60405163f698b0f160e01b8152606090829073__$8c1a4844a0a0988ea2454cf87145a95df1$__9063f698b0f190612a77906007908590600401613f94565b60206040518083038186803b158015612a8f57600080fd5b505af4158015612aa3573d6000803e3d6000fd5b505050506040513d601f19601f82011682018060405250810190612ac79190613f2a565b612ae35760405162461bcd60e51b815260040161080390613fab565b6001600160a01b03831660009081526006602052604090819020905163034306e160e21b815273__$8c1a4844a0a0988ea2454cf87145a95df1$__91630d0c1b8491612b39916004908101910190815260200190565b60006040518083038186803b158015612b5157600080fd5b505af4158015612b65573d6000803e3d6000fd5b505050506040513d6000823e601f3d908101601f19168201604052612237919081019061429f565b60405163f698b0f160e01b8152339073__$8c1a4844a0a0988ea2454cf87145a95df1$__9063f698b0f190612bc9906007908590600401613f94565b60206040518083038186803b158015612be157600080fd5b505af4158015612bf5573d6000803e3d6000fd5b505050506040513d601f19601f82011682018060405250810190612c199190613f2a565b612c355760405162461bcd60e51b815260040161080390613fab565b33600090815260066020526040908190209051600162a23d0760e01b031981526003909101600482015261ffff8316602482015264ffffffffff8416604482015273__$47b88465a20692378cf12e8e0c338f01dd$__9063ff5dc2f9906064015b60006040518083038186803b158015612cae57600080fd5b505af4158015612cc2573d6000803e3d6000fd5b50505050505050565b60405163f698b0f160e01b8152339073__$8c1a4844a0a0988ea2454cf87145a95df1$__9063f698b0f190612d07906007908590600401613f94565b60206040518083038186803b158015612d1f57600080fd5b505af4158015612d33573d6000803e3d6000fd5b505050506040513d601f19601f82011682018060405250810190612d579190613f2a565b612d735760405162461bcd60e51b815260040161080390613fab565b3360009081526006602052604090819020905163f4e846c760e01b81526003909101600482015261ffff8316602482015264ffffffffff8416604482015273__$47b88465a20692378cf12e8e0c338f01dd$__9063f4e846c790606401612c96565b6040805160c081018252600080825260208201819052818301819052606082018190526080820181905260a0820152905163f698b0f160e01b8152829073__$8c1a4844a0a0988ea2454cf87145a95df1$__9063f698b0f190612e3f906007908590600401613f94565b60206040518083038186803b158015612e5757600080fd5b505af4158015612e6b573d6000803e3d6000fd5b505050506040513d601f19601f82011682018060405250810190612e8f9190613f2a565b612eab5760405162461bcd60e51b815260040161080390613fab565b50506001600160a01b0316600090815260066020908152604091829020825160c081018452905460ff808216835264ffffffffff6101008304169383019390935265ffffffffffff66010000000000008204811694830194909452600160601b810484166060830152600160901b81049093166080820152600160c01b9092041660a082015290565b6001546040516335d2155560e11b81523360048201526000916001600160a01b031690636ba42aaa90602401602060405180830381600087803b158015612f7a57600080fd5b505af1158015612f8e573d6000803e3d6000fd5b505050506040513d601f19601f82011682018060405250810190612fb29190613f2a565b612fce5760405162461bcd60e51b815260040161080390613f4c565b6001600160a01b038381166000908152600a60205260409020541661083957610836600283611d3b565b604051633b11adbf60e21b815273__$364aad554dc80380f414546becdd2c1584$__9063ec46b6fc90613032906002903390600401613f94565b60206040518083038186803b15801561304a57600080fd5b505af415801561305e573d6000803e3d6000fd5b505050506040513d601f19601f820116820180604052508101906130829190613f2a565b61309e5760405162461bcd60e51b815260040161080390614122565b6001600160a01b038416600090815260066020526040902054849060ff600160c01b909104166001146131135760405162461bcd60e51b815260206004820152601b60248201527f524f442e6d642e6f66703a20646f63206e6f742070656e64696e6700000000006044820152606401610803565b604051600281526001600160a01b038616907f7d25780785c2b2fefad30c6603980e64e6005c311412119d7e4702f602fd730a9060200160405180910390a26001600160a01b03851660009081526006602052604080822090516362ce996560e11b81526004810187905290919073__$94c94c1f27eaba30857c7d0c37f90b5581$__9063c59d32ca9060240160206040518083038186803b1580156131b857600080fd5b505af41580156131cc573d6000803e3d6000fd5b505050506040513d601f19601f820116820180604052508101906131f09190614325565b604051631aef24a760e01b81526004810188905290915060009073__$94c94c1f27eaba30857c7d0c37f90b5581$__90631aef24a79060240160206040518083038186803b15801561324157600080fd5b505af4158015613255573d6000803e3d6000fd5b505050506040513d601f19601f820116820180604052508101906132799190614325565b90506132888262015180614342565b6132929042614370565b835465ffffffffffff91909116600160601b0265ffffffffffff60601b199091161783556132c38162015180614342565b83546132de9190600160601b900465ffffffffffff16614370565b8354600185019790975560028401959095555050600160c11b66ffffffffffffff60901b1990941665ffffffffffff909316600160901b0260ff60c01b191692909217929092179055505050565b60405163f698b0f160e01b8152339073__$8c1a4844a0a0988ea2454cf87145a95df1$__9063f698b0f190613368906007908590600401613f94565b60206040518083038186803b15801561338057600080fd5b505af4158015613394573d6000803e3d6000fd5b505050506040513d601f19601f820116820180604052508101906133b89190613f2a565b6133d45760405162461bcd60e51b815260040161080390613fab565b33600090815260066020526040908190209051635284fe6760e11b81526003909101600482015265ffffffffffff8316602482015273__$47b88465a20692378cf12e8e0c338f01dd$__9063a509fcce9060440161092d565b604051633c3e56c160e11b81526002600482015260009073__$364aad554dc80380f414546becdd2c1584$__9063787cad829060240160206040518083038186803b15801561347b57600080fd5b505af415801561348f573d6000803e3d6000fd5b505050506040513d601f19601f820116820180604052508101906108c6919061439a565b604051635e77c9af60e01b81526007600482015260009073__$8c1a4844a0a0988ea2454cf87145a95df1$__90635e77c9af9060240160206040518083038186803b15801561350157600080fd5b505af4158015613515573d6000803e3d6000fd5b505050506040513d601f19601f820116820180604052508101906108c6919061422b565b604051633b11adbf60e21b815273__$364aad554dc80380f414546becdd2c1584$__9063ec46b6fc90613573906002903390600401613f94565b60206040518083038186803b15801561358b57600080fd5b505af415801561359f573d6000803e3d6000fd5b505050506040513d601f19601f820116820180604052508101906135c39190613f2a565b6135df5760405162461bcd60e51b815260040161080390614122565b600254600160f01b900460ff1660011461363b5760405162461bcd60e51b815260206004820181905260248201527f41432e6f6e6c7950656e64696e673a20446f632069732066696e616c697a65646044820152606401610803565b60405163cc99e11b60e01b815260026004820152684174746f726e65797360b81b602482015273__$364aad554dc80380f414546becdd2c1584$__9063cc99e11b9060440160006040518083038186803b15801561369857600080fd5b505af41580156136ac573d6000803e3d6000fd5b5050604051632725ebef60e21b8152600260048201526000602482015273__$364aad554dc80380f414546becdd2c1584$__9250639c97afbc915060440160006040518083038186803b15801561370257600080fd5b505af4158015613716573d6000803e3d6000fd5b50506002805460ff60f01b1916600160f11b17905550506040517f35012b512309c322acf68632cd6cb702ff0e1d776fbe9394e38ffc13b434fe7590600090a1565b604051633b11adbf60e21b815273__$364aad554dc80380f414546becdd2c1584$__9063ec46b6fc90613792906002903390600401613f94565b60206040518083038186803b1580156137aa57600080fd5b505af41580156137be573d6000803e3d6000fd5b505050506040513d601f19601f820116820180604052508101906137e29190613f2a565b6137fe5760405162461bcd60e51b815260040161080390614122565b6001600160a01b0383166000908152600660205260409081902090516318a7841360e11b81526003909101600482015273__$47b88465a20692378cf12e8e0c338f01dd$__9063314f08269060240160206040518083038186803b15801561386557600080fd5b505af4158015613879573d6000803e3d6000fd5b505050506040513d601f19601f8201168201806040525081019061389d9190613f2a565b6138e95760405162461bcd60e51b815260206004820152601a60248201527f53502e41443a20446f63206e6f742065737461626c69736865640000000000006044820152606401610803565b6138f68360008484611658565b505050565b60008054604051634de835e760e11b81523360048201526001600160a01b0390911690639bd06bce90602401602060405180830381600087803b15801561394157600080fd5b505af11580156108a2573d6000803e3d6000fd5b6000546001600160a01b0316156139a65760405162461bcd60e51b815260206004820152601560248201527430b63932b0b23c9039b2ba103932b3a1b2b73a32b960591b6044820152606401610803565b600080546001600160a01b0319166001600160a01b0383169081179091556040519081527f318da6c7624c71cbc0afe346c9d8827f119d0ecefb241a7b0c87217a076a8e0290602001610d39565b600180546001600160a01b0319166001600160a01b0383169081179091556040519081527fe513d3e0f0d0a3877029dcc588748679a7a3450ec1ec7ed56d96bd012c3e61aa90602001610d39565b6000600460009054906101000a90046001600160a01b03166001600160a01b0316632f5f3b3c6040518163ffffffff1660e01b815260040160206040518083038186803b158015613a9257600080fd5b505afa15801561348f573d6000803e3d6000fd5b6000808260601b9050604051733d602d80600a3d3981f3363d3d373d3d3d363d7360601b81528160148201526e5af43d82803e903d91602b57fd5bf360881b60288201526037816000f0949350505050565b5080546000825590600052602060002090810190613b169190613b19565b50565b5b80821115613b2e5760008155600101613b1a565b5090565b6001600160a01b0381168114613b1657600080fd5b64ffffffffff81168114613b1657600080fd5b60008060408385031215613b6d57600080fd5b8235613b7881613b32565b91506020830135613b8881613b47565b809150509250929050565b60008060408385031215613ba657600080fd5b823591506020830135613b8881613b47565b600060208284031215613bca57600080fd5b813561223781613b32565b600060208284031215613be757600080fd5b813561223781613b47565b61ffff81168114613b1657600080fd5b600080600060608486031215613c1757600080fd5b8335613c2281613b32565b92506020840135613c3281613bf2565b91506040840135613c4281613b47565b809150509250925092565b600060208284031215613c5f57600080fd5b5035919050565b65ffffffffffff81168114613b1657600080fd5b600060208284031215613c8c57600080fd5b813561223781613c66565b6020808252825182820181905260009190848201906040850190845b81811015613cd85783516001600160a01b031683529284019291840191600101613cb3565b50909695505050505050565b803560ff81168114613cf557600080fd5b919050565b600060208284031215613d0c57600080fd5b61083682613ce4565b600080600060608486031215613d2a57600080fd5b8335613d3581613b32565b92506020840135613d4581613b47565b929592945050506040919091013590565b60008060008060808587031215613d6c57600080fd5b8435613d7781613b32565b93506020850135613d8781613bf2565b92506040850135613d9781613b47565b9396929550929360600135925050565b60008060008060808587031215613dbd57600080fd5b8435613dc881613b47565b93506020850135613dd881613b32565b92506040850135613de881613b32565b91506060850135613df881613b32565b939692955090935050565b600080600060608486031215613e1857600080fd5b8335613e2381613b32565b95602085013595506040909401359392505050565b60008060408385031215613e4b57600080fd5b613b7883613ce4565b60008060408385031215613e6757600080fd5b8235613e7281613b32565b9150613e8060208401613ce4565b90509250929050565b6020808252825182820181905260009190848201906040850190845b81811015613cd857835183529284019291840191600101613ea5565b60008060408385031215613ed457600080fd5b8235613edf81613b47565b91506020830135613b8881613bf2565b60008060008060808587031215613f0557600080fd5b8435613f1081613b32565b966020860135965060408601359560600135945092505050565b600060208284031215613f3c57600080fd5b8151801515811461223757600080fd5b60208082526011908201527020a19737b59d103737ba1025b2b2b832b960791b604082015260600190565b600060208284031215613f8957600080fd5b815161223781613b47565b9182526001600160a01b0316602082015260400190565b6020808252601d908201527f524f442e6d642e6f723a20646f63204e4f542072656769737465726564000000604082015260600190565b60208082526036908201527f41432e6f776e65724f72446972656374426f6f6b65657065723a206e6569746860408201527532b91037bbb732b9103737b9103137b7b5b2b2b832b960511b606082015260800190565b634e487b7160e01b600052604160045260246000fd5b604051601f8201601f1916810167ffffffffffffffff8111828210171561407757614077614038565b604052919050565b600060a0828403121561409157600080fd5b60405160a0810167ffffffffffffffff82821081831117156140b5576140b5614038565b81604052845191506140c682613bf2565b9082526020840151906140d882613b47565b816020840152604085015191506140ee82613c66565b81604084015260608501519150808216821461410957600080fd5b5060608201526080928301519281019290925250919050565b60208082526026908201527f41432e6f6e6c794469726563744b65657065723a206e6f74206469726563742060408201526535b2b2b832b960d11b606082015260800190565b600067ffffffffffffffff82111561418257614182614038565b5060051b60200190565b6000602080838503121561419f57600080fd5b825167ffffffffffffffff8111156141b657600080fd5b8301601f810185136141c757600080fd5b80516141da6141d582614168565b61404e565b81815260059190911b820183019083810190878311156141f957600080fd5b928401925b8284101561422057835161421181613b32565b825292840192908401906141fe565b979650505050505050565b60006020828403121561423d57600080fd5b5051919050565b634e487b7160e01b600052601160045260246000fd5b600060ff821660ff84168060ff0382111561427757614277614244565b019392505050565b600060ff821660ff81141561429657614296614244565b60010192915050565b600060208083850312156142b257600080fd5b825167ffffffffffffffff8111156142c957600080fd5b8301601f810185136142da57600080fd5b80516142e86141d582614168565b81815260059190911b8201830190838101908783111561430757600080fd5b928401925b828410156142205783518252928401929084019061430c565b60006020828403121561433757600080fd5b815161223781613c66565b600065ffffffffffff8083168185168183048111821515161561436757614367614244565b02949350505050565b600065ffffffffffff80831681851680830382111561439157614391614244565b01949350505050565b6000602082840312156143ac57600080fd5b815161223781613b3256fea26469706673582212201c351c37ae0083f7387d475ca5ad5a62063f537e576bfeed028df8de6c73c22364736f6c63430008080033",
    "sourcePath": "/Users/kaptain/github.com/hardhat/comboox/contracts/books/boa/BookOfIA.sol",
    "compiler": {
        "name": "solc",
        "version": "0.8.8+commit.dddeac2f"
    },
    "functionHashes": {
        "abandonRole(bytes32)": "3da9a600",
        "acceptDoc(address,uint40,bytes32)": "f43323ee",
        "addBlank(uint40,uint16)": "dd4578aa",
        "bohAddr()": "ed194c88",
        "circulateDoc(address,bytes32,bytes32,bytes32)": "e0249667",
        "circulateIA(address,bytes32,bytes32)": "8506c43f",
        "createDoc(uint8,uint40)": "891613e7",
        "createFRDeals(address,uint40)": "0a1cb7f3",
        "createMockResults(address,uint40)": "df280c21",
        "docsList()": "4be157d5",
        "finalized()": "b3f05b97",
        "frDealsOfIA(address)": "72d1a513",
        "getBookeeper()": "ed211023",
        "getGeneralCounsel()": "103f6edd",
        "getHeadOfDoc(address)": "de154c27",
        "getOwner()": "893d20e8",
        "getRefOfDoc(address)": "289aeb57",
        "grantRole(bytes32,uint40)": "74099815",
        "hasRole(bytes32,uint40)": "79b2ec12",
        "init(uint40,address,address,address)": "821ee8ea",
        "isInitSigner(address,uint40)": "29ce5888",
        "isParty(address,uint40)": "5c049642",
        "isRegistered(address)": "c3c5a547",
        "lockContents()": "f045a769",
        "mockResultsOfIA(address)": "deb57175",
        "parasOfPage(address)": "ad74d2a5",
        "partiesOfDoc(address)": "d6336277",
        "pushToNextState(address)": "a95027b3",
        "qtyOfDocs()": "ee4b47c1",
        "qtyOfParties(address)": "a1cb4381",
        "removeBlank(uint40,uint16)": "d6876305",
        "removeDoc(address)": "d42186fa",
        "renounceRole(bytes32)": "8bb9c5bf",
        "revokeRole(bytes32,uint40)": "17c51fec",
        "setBOH(address)": "ba6bd79b",
        "setClosingDeadline(uint48)": "4794be07",
        "setDirectKeeper(address)": "6be8496f",
        "setGeneralCounsel(uint40)": "3178a9a9",
        "setOwner(uint40)": "7ba706e8",
        "setRoleAdmin(bytes32,uint40)": "16dc517e",
        "setSigDeadline(uint48)": "ea8457f8",
        "setTemplate(address,uint8)": "aa596576",
        "sigOfDeal(address,uint16,uint40)": "3ced51a5",
        "sigOfDoc(address,uint40)": "746e421f",
        "signDeal(address,uint16,uint40,bytes32)": "765f54a7",
        "signDoc(address,uint40,bytes32)": "6f294795",
        "template(uint8)": "4efd15f2"
    },
    "gasEstimates": {
        "creation": {
            "codeDepositCost": "3477800",
            "executionCost": "3893",
            "totalCost": "3481693"
        },
        "external": {
            "abandonRole(bytes32)": "infinite",
            "acceptDoc(address,uint40,bytes32)": "infinite",
            "addBlank(uint40,uint16)": "infinite",
            "bohAddr()": "2386",
            "circulateDoc(address,bytes32,bytes32,bytes32)": "infinite",
            "circulateIA(address,bytes32,bytes32)": "infinite",
            "createDoc(uint8,uint40)": "infinite",
            "createFRDeals(address,uint40)": "infinite",
            "createMockResults(address,uint40)": "infinite",
            "docsList()": "infinite",
            "finalized()": "2394",
            "frDealsOfIA(address)": "2684",
            "getBookeeper()": "infinite",
            "getGeneralCounsel()": "infinite",
            "getHeadOfDoc(address)": "infinite",
            "getOwner()": "infinite",
            "getRefOfDoc(address)": "infinite",
            "grantRole(bytes32,uint40)": "infinite",
            "hasRole(bytes32,uint40)": "infinite",
            "init(uint40,address,address,address)": "infinite",
            "isInitSigner(address,uint40)": "infinite",
            "isParty(address,uint40)": "infinite",
            "isRegistered(address)": "infinite",
            "lockContents()": "infinite",
            "mockResultsOfIA(address)": "2661",
            "parasOfPage(address)": "infinite",
            "partiesOfDoc(address)": "infinite",
            "pushToNextState(address)": "infinite",
            "qtyOfDocs()": "infinite",
            "qtyOfParties(address)": "infinite",
            "removeBlank(uint40,uint16)": "infinite",
            "removeDoc(address)": "infinite",
            "renounceRole(bytes32)": "infinite",
            "revokeRole(bytes32,uint40)": "infinite",
            "setBOH(address)": "infinite",
            "setClosingDeadline(uint48)": "infinite",
            "setDirectKeeper(address)": "infinite",
            "setGeneralCounsel(uint40)": "infinite",
            "setOwner(uint40)": "infinite",
            "setRoleAdmin(bytes32,uint40)": "infinite",
            "setSigDeadline(uint48)": "infinite",
            "setTemplate(address,uint8)": "infinite",
            "sigOfDeal(address,uint16,uint40)": "infinite",
            "sigOfDoc(address,uint40)": "infinite",
            "signDeal(address,uint16,uint40,bytes32)": "infinite",
            "signDoc(address,uint40,bytes32)": "infinite",
            "template(uint8)": "2591"
        }
    }
}