{
    "contractName": "BookOfIA",
    "abi": [
        {
            "anonymous": false,
            "inputs": [
                {
                    "indexed": false,
                    "internalType": "address",
                    "name": "ia",
                    "type": "address"
                },
                {
                    "indexed": false,
                    "internalType": "uint256",
                    "name": "seqOfDeal",
                    "type": "uint256"
                }
            ],
            "name": "AcceptFirstRefusalClaims",
            "type": "event"
        },
        {
            "anonymous": false,
            "inputs": [
                {
                    "indexed": false,
                    "internalType": "address",
                    "name": "ia",
                    "type": "address"
                },
                {
                    "indexed": false,
                    "internalType": "uint256",
                    "name": "follower",
                    "type": "uint256"
                },
                {
                    "indexed": false,
                    "internalType": "uint256",
                    "name": "seqOfShare",
                    "type": "uint256"
                },
                {
                    "indexed": false,
                    "internalType": "uint64",
                    "name": "amount",
                    "type": "uint64"
                }
            ],
            "name": "AddAlongDeal",
            "type": "event"
        },
        {
            "anonymous": false,
            "inputs": [
                {
                    "indexed": false,
                    "internalType": "address",
                    "name": "ia",
                    "type": "address"
                },
                {
                    "indexed": false,
                    "internalType": "bool",
                    "name": "dragAlong",
                    "type": "bool"
                },
                {
                    "indexed": false,
                    "internalType": "uint256",
                    "name": "seqOfDeal",
                    "type": "uint256"
                },
                {
                    "indexed": false,
                    "internalType": "uint256",
                    "name": "seqOfShare",
                    "type": "uint256"
                },
                {
                    "indexed": false,
                    "internalType": "uint256",
                    "name": "paid",
                    "type": "uint256"
                },
                {
                    "indexed": false,
                    "internalType": "uint256",
                    "name": "par",
                    "type": "uint256"
                },
                {
                    "indexed": false,
                    "internalType": "uint256",
                    "name": "claimer",
                    "type": "uint256"
                },
                {
                    "indexed": false,
                    "internalType": "bytes32",
                    "name": "sigHash",
                    "type": "bytes32"
                }
            ],
            "name": "ExecAlongRight",
            "type": "event"
        },
        {
            "anonymous": false,
            "inputs": [
                {
                    "indexed": false,
                    "internalType": "address",
                    "name": "ia",
                    "type": "address"
                },
                {
                    "indexed": false,
                    "internalType": "uint256",
                    "name": "seqOfDeal",
                    "type": "uint256"
                },
                {
                    "indexed": false,
                    "internalType": "uint256",
                    "name": "caller",
                    "type": "uint256"
                }
            ],
            "name": "ExecFirstRefusalRight",
            "type": "event"
        },
        {
            "anonymous": false,
            "inputs": [
                {
                    "indexed": false,
                    "internalType": "uint256",
                    "name": "owner",
                    "type": "uint256"
                },
                {
                    "indexed": false,
                    "internalType": "address",
                    "name": "directKeeper",
                    "type": "address"
                },
                {
                    "indexed": false,
                    "internalType": "address",
                    "name": "regCenter",
                    "type": "address"
                },
                {
                    "indexed": false,
                    "internalType": "address",
                    "name": "generalKeeper",
                    "type": "address"
                }
            ],
            "name": "Init",
            "type": "event"
        },
        {
            "anonymous": false,
            "inputs": [],
            "name": "LockContents",
            "type": "event"
        },
        {
            "anonymous": false,
            "inputs": [
                {
                    "indexed": false,
                    "internalType": "address",
                    "name": "keeper",
                    "type": "address"
                }
            ],
            "name": "SetDirectKeeper",
            "type": "event"
        },
        {
            "anonymous": false,
            "inputs": [
                {
                    "indexed": false,
                    "internalType": "uint256",
                    "name": "acct",
                    "type": "uint256"
                }
            ],
            "name": "SetGeneralCounsel",
            "type": "event"
        },
        {
            "anonymous": false,
            "inputs": [
                {
                    "indexed": false,
                    "internalType": "uint256",
                    "name": "acct",
                    "type": "uint256"
                }
            ],
            "name": "SetOwner",
            "type": "event"
        },
        {
            "anonymous": false,
            "inputs": [
                {
                    "indexed": true,
                    "internalType": "address",
                    "name": "body",
                    "type": "address"
                },
                {
                    "indexed": false,
                    "internalType": "uint8",
                    "name": "state",
                    "type": "uint8"
                }
            ],
            "name": "UpdateStateOfFile",
            "type": "event"
        },
        {
            "inputs": [
                {
                    "internalType": "bytes32",
                    "name": "role",
                    "type": "bytes32"
                }
            ],
            "name": "abandonRole",
            "outputs": [],
            "stateMutability": "nonpayable",
            "type": "function"
        },
        {
            "inputs": [
                {
                    "internalType": "address",
                    "name": "ia",
                    "type": "address"
                },
                {
                    "internalType": "uint256",
                    "name": "seqOfDeal",
                    "type": "uint256"
                }
            ],
            "name": "acceptFirstRefusalClaims",
            "outputs": [
                {
                    "components": [
                        {
                            "internalType": "uint16",
                            "name": "seqOfDeal",
                            "type": "uint16"
                        },
                        {
                            "internalType": "uint40",
                            "name": "rightholder",
                            "type": "uint40"
                        },
                        {
                            "internalType": "uint64",
                            "name": "weight",
                            "type": "uint64"
                        },
                        {
                            "internalType": "uint64",
                            "name": "ratio",
                            "type": "uint64"
                        },
                        {
                            "internalType": "uint48",
                            "name": "sigDate",
                            "type": "uint48"
                        },
                        {
                            "internalType": "bytes32",
                            "name": "sigHash",
                            "type": "bytes32"
                        }
                    ],
                    "internalType": "struct FRClaims.Claim[]",
                    "name": "output",
                    "type": "tuple[]"
                }
            ],
            "stateMutability": "nonpayable",
            "type": "function"
        },
        {
            "inputs": [
                {
                    "internalType": "address",
                    "name": "body",
                    "type": "address"
                },
                {
                    "components": [
                        {
                            "internalType": "uint16",
                            "name": "seqOfRule",
                            "type": "uint16"
                        },
                        {
                            "internalType": "uint8",
                            "name": "qtyOfSubRule",
                            "type": "uint8"
                        },
                        {
                            "internalType": "uint8",
                            "name": "seqOfSubRule",
                            "type": "uint8"
                        },
                        {
                            "internalType": "uint16",
                            "name": "authority",
                            "type": "uint16"
                        },
                        {
                            "internalType": "uint16",
                            "name": "headRatio",
                            "type": "uint16"
                        },
                        {
                            "internalType": "uint16",
                            "name": "amountRatio",
                            "type": "uint16"
                        },
                        {
                            "internalType": "bool",
                            "name": "onlyAttendance",
                            "type": "bool"
                        },
                        {
                            "internalType": "bool",
                            "name": "impliedConsent",
                            "type": "bool"
                        },
                        {
                            "internalType": "bool",
                            "name": "partyAsConsent",
                            "type": "bool"
                        },
                        {
                            "internalType": "bool",
                            "name": "againstShallBuy",
                            "type": "bool"
                        },
                        {
                            "internalType": "uint16",
                            "name": "shaExecDays",
                            "type": "uint16"
                        },
                        {
                            "internalType": "uint16",
                            "name": "reviewDays",
                            "type": "uint16"
                        },
                        {
                            "internalType": "uint16",
                            "name": "votingDays",
                            "type": "uint16"
                        },
                        {
                            "internalType": "uint16",
                            "name": "execDaysForPutOpt",
                            "type": "uint16"
                        },
                        {
                            "internalType": "uint40[2]",
                            "name": "vetoers",
                            "type": "uint40[2]"
                        }
                    ],
                    "internalType": "struct RulesParser.VotingRule",
                    "name": "vr",
                    "type": "tuple"
                },
                {
                    "internalType": "bytes32",
                    "name": "docUrl",
                    "type": "bytes32"
                },
                {
                    "internalType": "bytes32",
                    "name": "docHash",
                    "type": "bytes32"
                }
            ],
            "name": "circulateDoc",
            "outputs": [],
            "stateMutability": "nonpayable",
            "type": "function"
        },
        {
            "inputs": [
                {
                    "internalType": "address",
                    "name": "ia",
                    "type": "address"
                },
                {
                    "internalType": "bytes32",
                    "name": "docUrl",
                    "type": "bytes32"
                },
                {
                    "internalType": "bytes32",
                    "name": "docHash",
                    "type": "bytes32"
                }
            ],
            "name": "circulateIA",
            "outputs": [],
            "stateMutability": "nonpayable",
            "type": "function"
        },
        {
            "inputs": [
                {
                    "internalType": "address",
                    "name": "ia",
                    "type": "address"
                },
                {
                    "internalType": "uint256",
                    "name": "seqOfDeal",
                    "type": "uint256"
                }
            ],
            "name": "claimsOfFR",
            "outputs": [
                {
                    "components": [
                        {
                            "internalType": "uint16",
                            "name": "seqOfDeal",
                            "type": "uint16"
                        },
                        {
                            "internalType": "uint40",
                            "name": "rightholder",
                            "type": "uint40"
                        },
                        {
                            "internalType": "uint64",
                            "name": "weight",
                            "type": "uint64"
                        },
                        {
                            "internalType": "uint64",
                            "name": "ratio",
                            "type": "uint64"
                        },
                        {
                            "internalType": "uint48",
                            "name": "sigDate",
                            "type": "uint48"
                        },
                        {
                            "internalType": "bytes32",
                            "name": "sigHash",
                            "type": "bytes32"
                        }
                    ],
                    "internalType": "struct FRClaims.Claim[]",
                    "name": "",
                    "type": "tuple[]"
                }
            ],
            "stateMutability": "view",
            "type": "function"
        },
        {
            "inputs": [
                {
                    "internalType": "address",
                    "name": "ia",
                    "type": "address"
                }
            ],
            "name": "createMockOfIA",
            "outputs": [
                {
                    "internalType": "bool",
                    "name": "",
                    "type": "bool"
                }
            ],
            "stateMutability": "nonpayable",
            "type": "function"
        },
        {
            "inputs": [
                {
                    "internalType": "address",
                    "name": "ia",
                    "type": "address"
                },
                {
                    "internalType": "bool",
                    "name": "dragAlong",
                    "type": "bool"
                },
                {
                    "internalType": "uint256",
                    "name": "seqOfDeal",
                    "type": "uint256"
                },
                {
                    "internalType": "uint256",
                    "name": "seqOfShare",
                    "type": "uint256"
                },
                {
                    "internalType": "uint256",
                    "name": "paid",
                    "type": "uint256"
                },
                {
                    "internalType": "uint256",
                    "name": "par",
                    "type": "uint256"
                },
                {
                    "internalType": "uint256",
                    "name": "caller",
                    "type": "uint256"
                },
                {
                    "internalType": "bytes32",
                    "name": "sigHash",
                    "type": "bytes32"
                }
            ],
            "name": "execAlongRight",
            "outputs": [],
            "stateMutability": "nonpayable",
            "type": "function"
        },
        {
            "inputs": [
                {
                    "internalType": "address",
                    "name": "ia",
                    "type": "address"
                },
                {
                    "internalType": "uint256",
                    "name": "seqOfDeal",
                    "type": "uint256"
                },
                {
                    "internalType": "uint256",
                    "name": "caller",
                    "type": "uint256"
                },
                {
                    "internalType": "bytes32",
                    "name": "sigHash",
                    "type": "bytes32"
                }
            ],
            "name": "execFirstRefusalRight",
            "outputs": [
                {
                    "internalType": "bool",
                    "name": "flag",
                    "type": "bool"
                }
            ],
            "stateMutability": "nonpayable",
            "type": "function"
        },
        {
            "inputs": [],
            "name": "filesList",
            "outputs": [
                {
                    "internalType": "address[]",
                    "name": "",
                    "type": "address[]"
                }
            ],
            "stateMutability": "view",
            "type": "function"
        },
        {
            "inputs": [],
            "name": "finalized",
            "outputs": [
                {
                    "internalType": "bool",
                    "name": "",
                    "type": "bool"
                }
            ],
            "stateMutability": "view",
            "type": "function"
        },
        {
            "inputs": [],
            "name": "getBookeeper",
            "outputs": [
                {
                    "internalType": "address",
                    "name": "",
                    "type": "address"
                }
            ],
            "stateMutability": "view",
            "type": "function"
        },
        {
            "inputs": [
                {
                    "internalType": "address",
                    "name": "ia",
                    "type": "address"
                },
                {
                    "internalType": "uint256",
                    "name": "seqOfDeal",
                    "type": "uint256"
                },
                {
                    "internalType": "uint256",
                    "name": "seqOfShare",
                    "type": "uint256"
                }
            ],
            "name": "getDTClaimForShare",
            "outputs": [
                {
                    "components": [
                        {
                            "internalType": "uint8",
                            "name": "typeOfClaim",
                            "type": "uint8"
                        },
                        {
                            "internalType": "uint32",
                            "name": "seqOfShare",
                            "type": "uint32"
                        },
                        {
                            "internalType": "uint64",
                            "name": "paid",
                            "type": "uint64"
                        },
                        {
                            "internalType": "uint64",
                            "name": "par",
                            "type": "uint64"
                        },
                        {
                            "internalType": "uint40",
                            "name": "claimer",
                            "type": "uint40"
                        },
                        {
                            "internalType": "uint48",
                            "name": "sigDate",
                            "type": "uint48"
                        },
                        {
                            "internalType": "bytes32",
                            "name": "sigHash",
                            "type": "bytes32"
                        }
                    ],
                    "internalType": "struct DTClaims.Claim",
                    "name": "",
                    "type": "tuple"
                }
            ],
            "stateMutability": "view",
            "type": "function"
        },
        {
            "inputs": [
                {
                    "internalType": "address",
                    "name": "ia",
                    "type": "address"
                },
                {
                    "internalType": "uint256",
                    "name": "seqOfDeal",
                    "type": "uint256"
                }
            ],
            "name": "getDTClaimsForDeal",
            "outputs": [
                {
                    "components": [
                        {
                            "internalType": "uint8",
                            "name": "typeOfClaim",
                            "type": "uint8"
                        },
                        {
                            "internalType": "uint32",
                            "name": "seqOfShare",
                            "type": "uint32"
                        },
                        {
                            "internalType": "uint64",
                            "name": "paid",
                            "type": "uint64"
                        },
                        {
                            "internalType": "uint64",
                            "name": "par",
                            "type": "uint64"
                        },
                        {
                            "internalType": "uint40",
                            "name": "claimer",
                            "type": "uint40"
                        },
                        {
                            "internalType": "uint48",
                            "name": "sigDate",
                            "type": "uint48"
                        },
                        {
                            "internalType": "bytes32",
                            "name": "sigHash",
                            "type": "bytes32"
                        }
                    ],
                    "internalType": "struct DTClaims.Claim[]",
                    "name": "",
                    "type": "tuple[]"
                }
            ],
            "stateMutability": "view",
            "type": "function"
        },
        {
            "inputs": [
                {
                    "internalType": "address",
                    "name": "ia",
                    "type": "address"
                }
            ],
            "name": "getDraggingDeals",
            "outputs": [
                {
                    "internalType": "uint256[]",
                    "name": "",
                    "type": "uint256[]"
                }
            ],
            "stateMutability": "view",
            "type": "function"
        },
        {
            "inputs": [],
            "name": "getGeneralCounsel",
            "outputs": [
                {
                    "internalType": "uint40",
                    "name": "",
                    "type": "uint40"
                }
            ],
            "stateMutability": "view",
            "type": "function"
        },
        {
            "inputs": [
                {
                    "internalType": "address",
                    "name": "body",
                    "type": "address"
                }
            ],
            "name": "getHeadOfFile",
            "outputs": [
                {
                    "components": [
                        {
                            "internalType": "uint256",
                            "name": "snOfDoc",
                            "type": "uint256"
                        },
                        {
                            "internalType": "uint48",
                            "name": "shaExecDeadline",
                            "type": "uint48"
                        },
                        {
                            "internalType": "uint48",
                            "name": "proposeDeadline",
                            "type": "uint48"
                        },
                        {
                            "internalType": "uint8",
                            "name": "state",
                            "type": "uint8"
                        }
                    ],
                    "internalType": "struct IFilesFolder.Head",
                    "name": "head",
                    "type": "tuple"
                }
            ],
            "stateMutability": "view",
            "type": "function"
        },
        {
            "inputs": [],
            "name": "getOwner",
            "outputs": [
                {
                    "internalType": "uint40",
                    "name": "",
                    "type": "uint40"
                }
            ],
            "stateMutability": "view",
            "type": "function"
        },
        {
            "inputs": [
                {
                    "internalType": "address",
                    "name": "body",
                    "type": "address"
                }
            ],
            "name": "getRefOfFile",
            "outputs": [
                {
                    "components": [
                        {
                            "internalType": "bytes32",
                            "name": "docUrl",
                            "type": "bytes32"
                        },
                        {
                            "internalType": "bytes32",
                            "name": "docHash",
                            "type": "bytes32"
                        }
                    ],
                    "internalType": "struct IFilesFolder.Ref",
                    "name": "ref",
                    "type": "tuple"
                }
            ],
            "stateMutability": "view",
            "type": "function"
        },
        {
            "inputs": [
                {
                    "internalType": "bytes32",
                    "name": "role",
                    "type": "bytes32"
                },
                {
                    "internalType": "uint256",
                    "name": "acct",
                    "type": "uint256"
                }
            ],
            "name": "grantRole",
            "outputs": [],
            "stateMutability": "nonpayable",
            "type": "function"
        },
        {
            "inputs": [
                {
                    "internalType": "address",
                    "name": "ia",
                    "type": "address"
                },
                {
                    "internalType": "uint256",
                    "name": "seqOfDeal",
                    "type": "uint256"
                }
            ],
            "name": "hasDTClaims",
            "outputs": [
                {
                    "internalType": "bool",
                    "name": "",
                    "type": "bool"
                }
            ],
            "stateMutability": "view",
            "type": "function"
        },
        {
            "inputs": [
                {
                    "internalType": "bytes32",
                    "name": "role",
                    "type": "bytes32"
                },
                {
                    "internalType": "uint256",
                    "name": "acct",
                    "type": "uint256"
                }
            ],
            "name": "hasRole",
            "outputs": [
                {
                    "internalType": "bool",
                    "name": "",
                    "type": "bool"
                }
            ],
            "stateMutability": "view",
            "type": "function"
        },
        {
            "inputs": [
                {
                    "internalType": "uint256",
                    "name": "owner",
                    "type": "uint256"
                },
                {
                    "internalType": "address",
                    "name": "directKeeper",
                    "type": "address"
                },
                {
                    "internalType": "address",
                    "name": "regCenter",
                    "type": "address"
                },
                {
                    "internalType": "address",
                    "name": "generalKeeper",
                    "type": "address"
                }
            ],
            "name": "init",
            "outputs": [],
            "stateMutability": "nonpayable",
            "type": "function"
        },
        {
            "inputs": [
                {
                    "internalType": "address",
                    "name": "ia",
                    "type": "address"
                },
                {
                    "internalType": "uint256",
                    "name": "acct",
                    "type": "uint256"
                }
            ],
            "name": "isFRClaimer",
            "outputs": [
                {
                    "internalType": "bool",
                    "name": "",
                    "type": "bool"
                }
            ],
            "stateMutability": "view",
            "type": "function"
        },
        {
            "inputs": [
                {
                    "internalType": "address",
                    "name": "body",
                    "type": "address"
                }
            ],
            "name": "isRegistered",
            "outputs": [
                {
                    "internalType": "bool",
                    "name": "",
                    "type": "bool"
                }
            ],
            "stateMutability": "view",
            "type": "function"
        },
        {
            "inputs": [],
            "name": "lockContents",
            "outputs": [],
            "stateMutability": "nonpayable",
            "type": "function"
        },
        {
            "inputs": [
                {
                    "internalType": "address",
                    "name": "ia",
                    "type": "address"
                },
                {
                    "internalType": "uint256",
                    "name": "buyer",
                    "type": "uint256"
                },
                {
                    "internalType": "uint256",
                    "name": "groupRep",
                    "type": "uint256"
                },
                {
                    "internalType": "uint256",
                    "name": "amount",
                    "type": "uint256"
                }
            ],
            "name": "mockDealOfBuy",
            "outputs": [
                {
                    "internalType": "bool",
                    "name": "flag",
                    "type": "bool"
                }
            ],
            "stateMutability": "nonpayable",
            "type": "function"
        },
        {
            "inputs": [
                {
                    "internalType": "address",
                    "name": "ia",
                    "type": "address"
                },
                {
                    "internalType": "uint256",
                    "name": "seller",
                    "type": "uint256"
                },
                {
                    "internalType": "uint256",
                    "name": "amount",
                    "type": "uint256"
                }
            ],
            "name": "mockDealOfSell",
            "outputs": [
                {
                    "internalType": "bool",
                    "name": "flag",
                    "type": "bool"
                }
            ],
            "stateMutability": "nonpayable",
            "type": "function"
        },
        {
            "inputs": [
                {
                    "internalType": "address",
                    "name": "ia",
                    "type": "address"
                },
                {
                    "internalType": "uint256",
                    "name": "acct",
                    "type": "uint256"
                }
            ],
            "name": "mockResultsOfAcct",
            "outputs": [
                {
                    "internalType": "uint40",
                    "name": "groupRep",
                    "type": "uint40"
                },
                {
                    "internalType": "uint16",
                    "name": "ratio",
                    "type": "uint16"
                }
            ],
            "stateMutability": "view",
            "type": "function"
        },
        {
            "inputs": [
                {
                    "internalType": "address",
                    "name": "ia",
                    "type": "address"
                }
            ],
            "name": "mockResultsOfIA",
            "outputs": [
                {
                    "internalType": "uint40",
                    "name": "controllor",
                    "type": "uint40"
                },
                {
                    "internalType": "uint16",
                    "name": "ratio",
                    "type": "uint16"
                }
            ],
            "stateMutability": "view",
            "type": "function"
        },
        {
            "inputs": [],
            "name": "qtyOfFiles",
            "outputs": [
                {
                    "internalType": "uint256",
                    "name": "",
                    "type": "uint256"
                }
            ],
            "stateMutability": "view",
            "type": "function"
        },
        {
            "inputs": [
                {
                    "internalType": "uint256",
                    "name": "snOfDoc",
                    "type": "uint256"
                },
                {
                    "internalType": "address",
                    "name": "body",
                    "type": "address"
                }
            ],
            "name": "regFile",
            "outputs": [],
            "stateMutability": "nonpayable",
            "type": "function"
        },
        {
            "inputs": [
                {
                    "internalType": "bytes32",
                    "name": "role",
                    "type": "bytes32"
                }
            ],
            "name": "renounceRole",
            "outputs": [],
            "stateMutability": "nonpayable",
            "type": "function"
        },
        {
            "inputs": [
                {
                    "internalType": "bytes32",
                    "name": "role",
                    "type": "bytes32"
                },
                {
                    "internalType": "uint256",
                    "name": "acct",
                    "type": "uint256"
                }
            ],
            "name": "revokeRole",
            "outputs": [],
            "stateMutability": "nonpayable",
            "type": "function"
        },
        {
            "inputs": [
                {
                    "internalType": "address",
                    "name": "keeper",
                    "type": "address"
                }
            ],
            "name": "setDirectKeeper",
            "outputs": [],
            "stateMutability": "nonpayable",
            "type": "function"
        },
        {
            "inputs": [
                {
                    "internalType": "uint256",
                    "name": "acct",
                    "type": "uint256"
                }
            ],
            "name": "setGeneralCounsel",
            "outputs": [],
            "stateMutability": "nonpayable",
            "type": "function"
        },
        {
            "inputs": [
                {
                    "internalType": "uint256",
                    "name": "acct",
                    "type": "uint256"
                }
            ],
            "name": "setOwner",
            "outputs": [],
            "stateMutability": "nonpayable",
            "type": "function"
        },
        {
            "inputs": [
                {
                    "internalType": "bytes32",
                    "name": "role",
                    "type": "bytes32"
                },
                {
                    "internalType": "uint256",
                    "name": "acct",
                    "type": "uint256"
                }
            ],
            "name": "setRoleAdmin",
            "outputs": [],
            "stateMutability": "nonpayable",
            "type": "function"
        },
        {
            "inputs": [
                {
                    "internalType": "address",
                    "name": "body",
                    "type": "address"
                },
                {
                    "internalType": "uint8",
                    "name": "state",
                    "type": "uint8"
                }
            ],
            "name": "setStateOfFile",
            "outputs": [],
            "stateMutability": "nonpayable",
            "type": "function"
        }
    ],
    "bytecode": "608060405234801561001057600080fd5b50614173806100206000396000f3fe608060405234801561001057600080fd5b50600436106102325760003560e01c80638041494e11610130578063b3f05b97116100b8578063deb571751161007c578063deb5717514610696578063e9c99eb2146106a9578063ed211023146106bc578063f045a769146106dc578063fb255fcd146106e457600080fd5b8063b3f05b9714610629578063c337eee31461063d578063c3c5a5471461065d578063d02ef14d14610670578063dc890da91461068357600080fd5b80638f6b6587116100ff5780638f6b65871461058e5780638fefe1cd146105cb5780639cf90506146105e05780639ee4ad4e14610600578063a0b7b8a71461061657600080fd5b80638041494e1461054d5780638506c43f14610560578063893d20e8146105735780638bb9c5bf1461057b57600080fd5b80634a11d76a116101be5780635f3bd6df116101825780635f3bd6df1461048b5780636894f921146104be5780636be8496f146104d15780636e0cdd3a146104e45780637e063c5a1461053a57600080fd5b80634a11d76a146104115780634a14beb114610424578063511b707d146104375780635171ebd41461044a57806358598c351461045d57600080fd5b806319d61ad91161020557806319d61ad9146103a55780631b6ea9f9146103b857806322ea1815146103cb57806332277b11146103eb5780633da9a600146103fe57600080fd5b80630b44c601146102375780630fc89eeb1461024c578063103f6edd1461036457806310ba4e5214610382575b600080fd5b61024a6102453660046131a6565b6106f7565b005b61034e61025a366004613211565b6040805160e081018252600080825260208201819052918101829052606081018290526080810182905260a0810182905260c0810191909152506001600160a01b03929092166000908152600860209081526040808320938352928152828220600283528152828220938252928352819020815160e081018352815460ff81168252610100810463ffffffff16948201949094526501000000000084046001600160401b0390811693820193909352600160681b84049092166060830152600160a81b830464ffffffffff166080830152600160d01b90920465ffffffffffff1660a082015260019091015460c082015290565b60405161035b91906132b1565b60405180910390f35b61036c6108f7565b60405164ffffffffff909116815260200161035b565b6103956103903660046132bf565b610983565b604051901515815260200161035b565b61024a6103b33660046132eb565b610a32565b61024a6103c63660046132eb565b610ac4565b6103de6103d93660046132bf565b610aea565b60405161035b919061330d565b6103956103f93660046133a6565b610b98565b61024a61040c3660046133ca565b610c41565b61039561041f366004613211565b610ccc565b61024a6104323660046133ca565b610e17565b61024a6104453660046133fd565b611074565b61024a6104583660046132eb565b611237565b61047061046b3660046133a6565b61125d565b6040805182518152602092830151928101929092520161035b565b61049e6104993660046132bf565b611356565b6040805164ffffffffff909316835261ffff90911660208301520161035b565b61024a6104cc366004613592565b611525565b61024a6104df3660046133a6565b611771565b6104f76104f23660046133a6565b611823565b604080518251815260208084015165ffffffffffff9081169183019190915283830151169181019190915260609182015160ff169181019190915260800161035b565b6103956105483660046132eb565b611959565b61024a61055b3660046133ca565b6119a2565b61024a61056e366004613211565b611a5b565b61036c611d10565b61024a6105893660046133ca565b611d4b565b61039561059c3660046132bf565b6001600160a01b0391909116600090815260076020908152604080832093835260019093019052205460ff1690565b6105d3611d70565b60405161035b91906136f5565b6105f36105ee3660046133a6565b611dfa565b60405161035b9190613742565b610608611ea0565b60405190815260200161035b565b6103de6106243660046132bf565b611f26565b60028054600160f01b900460ff1614610395565b61065061064b3660046132bf565b6120e6565b60405161035b919061377a565b61039561066b3660046133a6565b6121e6565b61024a61067e3660046137bc565b61227b565b61024a6106913660046137e1565b61242a565b61049e6106a43660046133a6565b61250c565b6103956106b7366004613834565b6126d2565b6106c4612825565b6040516001600160a01b03909116815260200161035b565b61024a6128ab565b6103956106f2366004613834565b612aef565b6001546040516335d2155560e11b81523360048201526001600160a01b0390911690636ba42aaa9060240160206040518083038186803b15801561073a57600080fd5b505afa15801561074e573d6000803e3d6000fd5b505050506040513d601f19601f82011682018060405250810190610772919061387a565b6107975760405162461bcd60e51b815260040161078e90613897565b60405180910390fd5b6001600160a01b038816600090815260086020526040908190209051631569751f60e21b81526004810191909152871515602482015260448101879052606481018690526084810185905260a4810184905260c4810183905260e4810182905273__$5725cd3286253580cd9593a3c0fbba90a3$__906355a5d47c906101040160206040518083038186803b15801561082f57600080fd5b505af4158015610843573d6000803e3d6000fd5b505050506040513d601f19601f82011682018060405250810190610867919061387a565b156108ed57604080516001600160a01b038a1681528815156020820152908101879052606081018690526080810185905260a0810184905260c0810183905260e081018290527f6f4e7a82b71217a6f4cc8794c5d75fe9d2d565555cdcb964db2abccc13b49249906101000160405180910390a16108ed886108e88a611823565b612d08565b5050505050505050565b60405163e8c0cc1d60e01b81526002600482015260009073__$364aad554dc80380f414546becdd2c1584$__9063e8c0cc1d906024015b60206040518083038186803b15801561094657600080fd5b505af415801561095a573d6000803e3d6000fd5b505050506040513d601f19601f8201168201806040525081019061097e91906138c2565b905090565b6001600160a01b0382166000908152600860205260408082209051633f5f77cd60e01b8152600190910160048201526024810183905273__$8c1a4844a0a0988ea2454cf87145a95df1$__90633f5f77cd906044015b60206040518083038186803b1580156109f157600080fd5b505af4158015610a05573d6000803e3d6000fd5b505050506040513d601f19601f82011682018060405250810190610a29919061387a565b90505b92915050565b73__$364aad554dc80380f414546becdd2c1584$__6382daafaa60028484610a58612d90565b6040516001600160e01b031960e087901b16815260048101949094526024840192909252604483015264ffffffffff16606482015260840160006040518083038186803b158015610aa857600080fd5b505af4158015610abc573d6000803e3d6000fd5b505050505050565b73__$364aad554dc80380f414546becdd2c1584$__636320d75e60028484610a58612d90565b6001600160a01b03821660009081526007602052604090819020905162066d7160e01b815260609173__$07942fe0769ef09db064459acc9c3554b6$__9162066d7191610b44918690600401918252602082015260400190565b60006040518083038186803b158015610b5c57600080fd5b505af4158015610b70573d6000803e3d6000fd5b505050506040513d6000823e601f3d908101601f19168201604052610a29919081019061393a565b6001546040516335d2155560e11b81523360048201526000916001600160a01b031690636ba42aaa9060240160206040518083038186803b158015610bdc57600080fd5b505afa158015610bf0573d6000803e3d6000fd5b505050506040513d601f19601f82011682018060405250810190610c14919061387a565b610c305760405162461bcd60e51b815260040161078e90613897565b610c3982612dea565b90505b919050565b73__$364aad554dc80380f414546becdd2c1584$__63c51b295f600283610c66612d90565b6040516001600160e01b031960e086901b1681526004810193909352602483019190915264ffffffffff16604482015260640160006040518083038186803b158015610cb157600080fd5b505af4158015610cc5573d6000803e3d6000fd5b5050505050565b6001546040516335d2155560e11b81523360048201526000916001600160a01b031690636ba42aaa9060240160206040518083038186803b158015610d1057600080fd5b505afa158015610d24573d6000803e3d6000fd5b505050506040513d601f19601f82011682018060405250810190610d48919061387a565b610d645760405162461bcd60e51b815260040161078e90613897565b6001600160a01b038416600090815260096020526040908190209051632e59cfad60e11b81526004810191909152602481018490526044810183905273__$0373da85302df7c003c5cc5214782e6132$__90635cb39f5a9060640160206040518083038186803b158015610dd757600080fd5b505af4158015610deb573d6000803e3d6000fd5b505050506040513d601f19601f82011682018060405250810190610e0f919061387a565b949350505050565b604051633b11adbf60e21b81526002600482015233602482015273__$364aad554dc80380f414546becdd2c1584$__9063ec46b6fc9060440160206040518083038186803b158015610e6857600080fd5b505af4158015610e7c573d6000803e3d6000fd5b505050506040513d601f19601f82011682018060405250810190610ea0919061387a565b80610f45575073__$364aad554dc80380f414546becdd2c1584$__63fe2710866002610eca612d90565b6040516001600160e01b031960e085901b168152600481019290925264ffffffffff16602482015260440160206040518083038186803b158015610f0d57600080fd5b505af4158015610f21573d6000803e3d6000fd5b505050506040513d601f19601f82011682018060405250810190610f45919061387a565b610fb05760405162461bcd60e51b815260206004820152603660248201527f41432e6f776e65724f72446972656374426f6f6b65657065723a206e6569746860448201527532b91037bbb732b9103737b9103137b7b5b2b2b832b960511b606482015260840161078e565b73__$364aad554dc80380f414546becdd2c1584$__639b4510de600283610fd5612d90565b6040516001600160e01b031960e086901b1681526004810193909352602483019190915264ffffffffff16604482015260640160006040518083038186803b15801561102057600080fd5b505af4158015611034573d6000803e3d6000fd5b505050507ff2735f34b69be1e6342dea95f9162f84d0db925fab655ca9f1f312ac8cbfc99d8160405161106991815260200190565b60405180910390a150565b60405163f698b0f160e01b8152600560048201526001600160a01b0383166024820152829073__$8c1a4844a0a0988ea2454cf87145a95df1$__9063f698b0f19060440160206040518083038186803b1580156110d057600080fd5b505af41580156110e4573d6000803e3d6000fd5b505050506040513d601f19601f82011682018060405250810190611108919061387a565b6111245760405162461bcd60e51b815260040161078e90613a41565b6001546040516335d2155560e11b81523360048201526001600160a01b0390911690636ba42aaa9060240160206040518083038186803b15801561116757600080fd5b505afa15801561117b573d6000803e3d6000fd5b505050506040513d601f19601f8201168201806040525081019061119f919061387a565b6111bb5760405162461bcd60e51b815260040161078e90613897565b60405160ff831681526001600160a01b038416907f2d08d607752701152f91f7b4b08b7903d35b1065aef684baddcee316cc28565d9060200160405180910390a2506001600160a01b039091166000908152600460205260409020600101805460ff909216600160601b0260ff60601b19909216919091179055565b73__$364aad554dc80380f414546becdd2c1584$__63ee98b31360028484610a58612d90565b60408051808201825260008082526020820152905163f698b0f160e01b8152600560048201526001600160a01b0383166024820152829073__$8c1a4844a0a0988ea2454cf87145a95df1$__9063f698b0f19060440160206040518083038186803b1580156112cb57600080fd5b505af41580156112df573d6000803e3d6000fd5b505050506040513d601f19601f82011682018060405250810190611303919061387a565b61131f5760405162461bcd60e51b815260040161078e90613a41565b50506001600160a01b0316600090815260046020908152604091829020825180840190935260028101548352600301549082015290565b6001600160a01b038216600090815260096020526040808220905163347f09bd60e11b8152600481018290526024810184905282919073__$0373da85302df7c003c5cc5214782e6132$__906368fe137a9060440160206040518083038186803b1580156113c357600080fd5b505af41580156113d7573d6000803e3d6000fd5b505050506040513d601f19601f820116820180604052508101906113fb91906138c2565b604051630c86a02d60e11b81526004810183905290935073__$0373da85302df7c003c5cc5214782e6132$__9063190d405a9060240160206040518083038186803b15801561144957600080fd5b505af415801561145d573d6000803e3d6000fd5b505050506040513d601f19601f820116820180604052508101906114819190613a78565b604051630776f0c360e51b81526004810183905264ffffffffff8516602482015273__$0373da85302df7c003c5cc5214782e6132$__9063eede18609060440160206040518083038186803b1580156114d957600080fd5b505af41580156114ed573d6000803e3d6000fd5b505050506040513d601f19601f820116820180604052508101906115119190613a78565b61151b9190613aa9565b9150509250929050565b604051633b11adbf60e21b81526002600482015233602482015273__$364aad554dc80380f414546becdd2c1584$__9063ec46b6fc9060440160206040518083038186803b15801561157657600080fd5b505af415801561158a573d6000803e3d6000fd5b505050506040513d601f19601f820116820180604052508101906115ae919061387a565b6115ca5760405162461bcd60e51b815260040161078e90613add565b8360016001600160a01b038216600090815260046020526040902060010154600160601b900460ff9081169116146116445760405162461bcd60e51b815260206004820152601b60248201527f524f442e6d642e4f46503a20446f63206e6f742070656e64696e670000000000604482015260640161078e565b604051600281526001600160a01b038616907f2d08d607752701152f91f7b4b08b7903d35b1065aef684baddcee316cc28565d9060200160405180910390a26001600160a01b03851660009081526004602052604090206101408501516116b29061ffff1662015180613b23565b6116bc9042613b51565b60018201805465ffffffffffff191665ffffffffffff929092169190911790556101608501516116f39061ffff1662015180613b23565b600182015461170a919065ffffffffffff16613b51565b600182018054600160611b6cffffffffffffff0000000000001990911665ffffffffffff9390931666010000000000000260ff60601b1916929092179190911790558315158061175957508215155b15610abc576002810193909355506003909101555050565b604051630f07232560e01b8152600260048201526001600160a01b038216602482015233604482015273__$364aad554dc80380f414546becdd2c1584$__90630f0723259060640160006040518083038186803b1580156117d157600080fd5b505af41580156117e5573d6000803e3d6000fd5b50506040516001600160a01b03841681527fe435cbeab64e4eae6497b9d8289704bd709d624a80704ef3ca9af777534bc6ec92506020019050611069565b604080516080810182526000808252602082018190528183018190526060820152905163f698b0f160e01b8152600560048201526001600160a01b0383166024820152829073__$8c1a4844a0a0988ea2454cf87145a95df1$__9063f698b0f19060440160206040518083038186803b15801561189f57600080fd5b505af41580156118b3573d6000803e3d6000fd5b505050506040513d601f19601f820116820180604052508101906118d7919061387a565b6118f35760405162461bcd60e51b815260040161078e90613a41565b50506001600160a01b031660009081526004602090815260409182902082516080810184528154815260019091015465ffffffffffff808216938301939093526601000000000000810490921692810192909252600160601b900460ff16606082015290565b604051632a3be56b60e21b815260026004820152602481018390526044810182905260009073__$364aad554dc80380f414546becdd2c1584$__9063a8ef95ac906064016109d9565b73__$364aad554dc80380f414546becdd2c1584$__639b48160c6002836119c7612d90565b6040516001600160e01b031960e086901b1681526004810193909352602483019190915264ffffffffff16604482015260640160006040518083038186803b158015611a1257600080fd5b505af4158015611a26573d6000803e3d6000fd5b505050507f8b6f40f36b4ae8cc5f55e895036457c43da4ab1f80f58c46f5ff0d72a650033b8160405161106991815260200190565b604051633b11adbf60e21b81526002600482015233602482015273__$364aad554dc80380f414546becdd2c1584$__9063ec46b6fc9060440160206040518083038186803b158015611aac57600080fd5b505af4158015611ac0573d6000803e3d6000fd5b505050506040513d601f19601f82011682018060405250810190611ae4919061387a565b611b005760405162461bcd60e51b815260040161078e90613add565b6000836001600160a01b031663c0961f7f6040518163ffffffff1660e01b815260040160206040518083038186803b158015611b3b57600080fd5b505afa158015611b4f573d6000803e3d6000fd5b505050506040513d601f19601f82011682018060405250810190611b739190613b86565b60ff1690506000600160009054906101000a90046001600160a01b03166001600160a01b031663a61adc286040518163ffffffff1660e01b815260040160206040518083038186803b158015611bc857600080fd5b505afa158015611bdc573d6000803e3d6000fd5b505050506040513d601f19601f82011682018060405250810190611c009190613ba3565b6001600160a01b03166348462037836040518263ffffffff1660e01b8152600401611c2d91815260200190565b60206040518083038186803b158015611c4557600080fd5b505afa158015611c59573d6000803e3d6000fd5b505050506040513d601f19601f82011682018060405250810190611c7d9190613bc0565b60405163d1296c8f60e01b8152600481019190915273__$9d2c69e94fee47b9774dc8db4aa5c0bbec$__9063d1296c8f906024016102006040518083038186803b158015611cca57600080fd5b505af4158015611cde573d6000803e3d6000fd5b505050506040513d601f19601f82011682018060405250810190611d029190613c27565b9050610cc585828686611525565b60405163987ad15360e01b81526002600482015260009073__$364aad554dc80380f414546becdd2c1584$__9063987ad1539060240161092e565b73__$364aad554dc80380f414546becdd2c1584$__63cc0d511b600283610c66612d90565b604051638f65372b60e01b81526005600482015260609073__$8c1a4844a0a0988ea2454cf87145a95df1$__90638f65372b9060240160006040518083038186803b158015611dbe57600080fd5b505af4158015611dd2573d6000803e3d6000fd5b505050506040513d6000823e601f3d908101601f1916820160405261097e9190810190613d4a565b6001600160a01b03811660009081526008602052604090819020905163034306e160e21b81526001909101600482015260609073__$8c1a4844a0a0988ea2454cf87145a95df1$__90630d0c1b849060240160006040518083038186803b158015611e6457600080fd5b505af4158015611e78573d6000803e3d6000fd5b505050506040513d6000823e601f3d908101601f19168201604052610c399190810190613de3565b604051635e77c9af60e01b81526005600482015260009073__$8c1a4844a0a0988ea2454cf87145a95df1$__90635e77c9af9060240160206040518083038186803b158015611eee57600080fd5b505af4158015611f02573d6000803e3d6000fd5b505050506040513d601f19601f8201168201806040525081019061097e9190613bc0565b6001546040516335d2155560e11b81523360048201526060916001600160a01b031690636ba42aaa9060240160206040518083038186803b158015611f6a57600080fd5b505afa158015611f7e573d6000803e3d6000fd5b505050506040513d601f19601f82011682018060405250810190611fa2919061387a565b611fbe5760405162461bcd60e51b815260040161078e90613897565b604080516001600160a01b0385168152602081018490527f884c85d5a19d785032f5d98a5bccdc42523d5d57ca09ee467ea4b88fba651c15910160405180910390a16001600160a01b0380841660009081526007602090815260409182902060015483516319fdcb7760e11b8152935173__$07942fe0769ef09db064459acc9c3554b6$__956383fa51d0959394899493909116926333fb96ee9260048083019392829003018186803b15801561207457600080fd5b505afa158015612088573d6000803e3d6000fd5b505050506040513d601f19601f820116820180604052508101906120ac9190613ba3565b6040516001600160e01b031960e086901b168152600481019390935260248301919091526001600160a01b03166044820152606401610b44565b60606120f28383610983565b61213e5760405162461bcd60e51b815260206004820152601960248201527f424f412e434f44543a206e6f20636c61696d7320666f756e6400000000000000604482015260640161078e565b6001600160a01b038316600090815260086020526040908190209051630354ffdd60e21b815260048101919091526024810183905273__$5725cd3286253580cd9593a3c0fbba90a3$__90630d53ff749060440160006040518083038186803b1580156121aa57600080fd5b505af41580156121be573d6000803e3d6000fd5b505050506040513d6000823e601f3d908101601f19168201604052610a299190810190613e7c565b60405163f698b0f160e01b8152600560048201526001600160a01b038216602482015260009073__$8c1a4844a0a0988ea2454cf87145a95df1$__9063f698b0f19060440160206040518083038186803b15801561224357600080fd5b505af4158015612257573d6000803e3d6000fd5b505050506040513d601f19601f82011682018060405250810190610c39919061387a565b604051633b11adbf60e21b81526002600482015233602482015273__$364aad554dc80380f414546becdd2c1584$__9063ec46b6fc9060440160206040518083038186803b1580156122cc57600080fd5b505af41580156122e0573d6000803e3d6000fd5b505050506040513d601f19601f82011682018060405250810190612304919061387a565b6123205760405162461bcd60e51b815260040161078e90613add565b604051633e244cf360e01b8152600560048201526001600160a01b038216602482015273__$8c1a4844a0a0988ea2454cf87145a95df1$__90633e244cf39060440160206040518083038186803b15801561237a57600080fd5b505af415801561238e573d6000803e3d6000fd5b505050506040513d601f19601f820116820180604052508101906123b2919061387a565b1561242657604051600181526001600160a01b038216907f2d08d607752701152f91f7b4b08b7903d35b1065aef684baddcee316cc28565d9060200160405180910390a26001600160a01b0381166000908152600460205260409020828155600101805460ff60601b1916600160601b1790555b5050565b604051636cdd0edf60e11b815260026004820152602481018590526001600160a01b038416604482015273__$364aad554dc80380f414546becdd2c1584$__9063d9ba1dbe9060640160006040518083038186803b15801561248b57600080fd5b505af415801561249f573d6000803e3d6000fd5b505050506124ac82613087565b6124b5816130fa565b604080518581526001600160a01b038581166020830152848116828401528316606082015290517f3abb2418c66fe32ba9c883030a75ce583971d9af9192b9b74e44e67c5e6c8c1f9181900360800190a150505050565b6001600160a01b038116600090815260096020526040808220905163feeac47f60e01b81526004810182905282919073__$0373da85302df7c003c5cc5214782e6132$__9063feeac47f9060240160206040518083038186803b15801561257257600080fd5b505af4158015612586573d6000803e3d6000fd5b505050506040513d601f19601f820116820180604052508101906125aa91906138c2565b604051630c86a02d60e11b81526004810183905290935073__$0373da85302df7c003c5cc5214782e6132$__9063190d405a9060240160206040518083038186803b1580156125f857600080fd5b505af415801561260c573d6000803e3d6000fd5b505050506040513d601f19601f820116820180604052508101906126309190613a78565b604051630776f0c360e51b81526004810183905264ffffffffff8516602482015273__$0373da85302df7c003c5cc5214782e6132$__9063eede18609060440160206040518083038186803b15801561268857600080fd5b505af415801561269c573d6000803e3d6000fd5b505050506040513d601f19601f820116820180604052508101906126c09190613a78565b6126ca9190613aa9565b915050915091565b6001546040516335d2155560e11b81523360048201526000916001600160a01b031690636ba42aaa9060240160206040518083038186803b15801561271657600080fd5b505afa15801561272a573d6000803e3d6000fd5b505050506040513d601f19601f8201168201806040525081019061274e919061387a565b61276a5760405162461bcd60e51b815260040161078e90613897565b6001600160a01b038516600090815260096020526040908190209051633b9496bd60e01b8152600481019190915260248101859052604481018490526064810183905273__$0373da85302df7c003c5cc5214782e6132$__90633b9496bd9060840160206040518083038186803b1580156127e457600080fd5b505af41580156127f8573d6000803e3d6000fd5b505050506040513d601f19601f8201168201806040525081019061281c919061387a565b95945050505050565b604051633c3e56c160e11b81526002600482015260009073__$364aad554dc80380f414546becdd2c1584$__9063787cad829060240160206040518083038186803b15801561287357600080fd5b505af4158015612887573d6000803e3d6000fd5b505050506040513d601f19601f8201168201806040525081019061097e9190613ba3565b600254600160f01b900460ff166001146129075760405162461bcd60e51b815260206004820152601760248201527f41432e4c433a20446f632069732066696e616c697a6564000000000000000000604482015260640161078e565b73__$364aad554dc80380f414546becdd2c1584$__63c51b295f6002684174746f726e65797360b81b612938612d90565b6040516001600160e01b031960e086901b1681526004810193909352602483019190915264ffffffffff16604482015260640160006040518083038186803b15801561298357600080fd5b505af4158015612997573d6000803e3d6000fd5b50505050600273__$364aad554dc80380f414546becdd2c1584$__639b4510de909160006129c3612d90565b6040516001600160e01b031960e086901b1681526004810193909352602483019190915264ffffffffff16604482015260640160006040518083038186803b158015612a0e57600080fd5b505af4158015612a22573d6000803e3d6000fd5b50505050600273__$364aad554dc80380f414546becdd2c1584$__639b48160c90916000612a4e612d90565b6040516001600160e01b031960e086901b1681526004810193909352602483019190915264ffffffffff16604482015260640160006040518083038186803b158015612a9957600080fd5b505af4158015612aad573d6000803e3d6000fd5b50506002805460ff60f01b1916600160f11b17905550506040517f35012b512309c322acf68632cd6cb702ff0e1d776fbe9394e38ffc13b434fe7590600090a1565b6001546040516335d2155560e11b81523360048201526000916001600160a01b031690636ba42aaa9060240160206040518083038186803b158015612b3357600080fd5b505afa158015612b47573d6000803e3d6000fd5b505050506040513d601f19601f82011682018060405250810190612b6b919061387a565b612b875760405162461bcd60e51b815260040161078e90613897565b6000612b9286611823565b905042816020015165ffffffffffff1611612bef5760405162461bcd60e51b815260206004820181905260248201527f424f412e454652523a206d69737365642073686145786563446561646c696e65604482015260640161078e565b6001600160a01b0386166000908152600760205260409081902090516376ff595960e11b8152600481019190915260248101869052604481018590526064810184905273__$07942fe0769ef09db064459acc9c3554b6$__9063edfeb2b29060840160206040518083038186803b158015612c6957600080fd5b505af4158015612c7d573d6000803e3d6000fd5b505050506040513d601f19601f82011682018060405250810190612ca1919061387a565b15612cff57604080516001600160a01b0388168152602081018790529081018590527f467f092855caf5a74110a305218e0d11890e77b0fa3730e0f28e7133dc6214189060600160405180910390a1612cfa8682612d08565b600191505b50949350505050565b600260ff16816060015160ff16111561242657612d26826002611074565b6040818101519051632e4c9cd560e01b81526000600482015265ffffffffffff90911660248201526001600160a01b03831690632e4c9cd590604401600060405180830381600087803b158015612d7c57600080fd5b505af1158015610abc573d6000803e3d6000fd5b60008054604051636ae3b70d60e11b81523360048201526001600160a01b039091169063d5c76e1a90602401602060405180830381600087803b158015612dd657600080fd5b505af115801561095a573d6000803e3d6000fd5b6001600160a01b038116600090815260096020526040808220905163b82cf6b760e01b8152600481019190915273__$0373da85302df7c003c5cc5214782e6132$__9063b82cf6b79060240160206040518083038186803b158015612e4e57600080fd5b505af4158015612e62573d6000803e3d6000fd5b505050506040513d601f19601f82011682018060405250810190612e869190613f83565b63ffffffff16610c3c576001600160a01b0380831660009081526009602090815260409182902060015483516319fdcb7760e11b8152935173__$0373da85302df7c003c5cc5214782e6132$__95630bbbb6109593949216926333fb96ee926004808301939192829003018186803b158015612f0157600080fd5b505afa158015612f15573d6000803e3d6000fd5b505050506040513d601f19601f82011682018060405250810190612f399190613ba3565b6001600160a01b0316639c54297c6040518163ffffffff1660e01b815260040160006040518083038186803b158015612f7157600080fd5b505afa158015612f85573d6000803e3d6000fd5b505050506040513d6000823e601f3d908101601f19168201604052612fad9190810190613f9e565b6040518363ffffffff1660e01b8152600401612fca92919061409f565b60006040518083038186803b158015612fe257600080fd5b505af4158015612ff6573d6000803e3d6000fd5b505050506001600160a01b038216600081815260096020526040908190209051637b109bf560e01b81526004810191909152602481019190915273__$0373da85302df7c003c5cc5214782e6132$__90637b109bf59060440160006040518083038186803b15801561306757600080fd5b505af415801561307b573d6000803e3d6000fd5b50600195945050505050565b6000546001600160a01b0316156130d85760405162461bcd60e51b815260206004820152601560248201527430b63932b0b23c9039b2ba103932b3a1b2b73a32b960591b604482015260640161078e565b600080546001600160a01b0319166001600160a01b0392909216919091179055565b6001546001600160a01b0316156131535760405162461bcd60e51b815260206004820152601960248201527f616c7265616479207365742067656e6572616c4b656570657200000000000000604482015260640161078e565b600180546001600160a01b0319166001600160a01b0392909216919091179055565b6001600160a01b038116811461318a57600080fd5b50565b801515811461318a57600080fd5b8035610c3c8161318d565b600080600080600080600080610100898b0312156131c357600080fd5b88356131ce81613175565b975060208901356131de8161318d565b979a9799505050506040860135956060810135956080820135955060a0820135945060c0820135935060e0909101359150565b60008060006060848603121561322657600080fd5b833561323181613175565b95602085013595506040909401359392505050565b60ff815116825263ffffffff602082015116602083015260408101516001600160401b038082166040850152806060840151166060850152505064ffffffffff608082015116608083015265ffffffffffff60a08201511660a083015260c081015160c08301525050565b60e08101610a2c8284613246565b600080604083850312156132d257600080fd5b82356132dd81613175565b946020939093013593505050565b600080604083850312156132fe57600080fd5b50508035926020909101359150565b602080825282518282018190526000919060409081850190868401855b82811015613399578151805161ffff1685528681015164ffffffffff1687860152858101516001600160401b03908116878701526060808301519091169086015260808082015165ffffffffffff169086015260a0908101519085015260c0909301929085019060010161332a565b5091979650505050505050565b6000602082840312156133b857600080fd5b81356133c381613175565b9392505050565b6000602082840312156133dc57600080fd5b5035919050565b60ff8116811461318a57600080fd5b8035610c3c816133e3565b6000806040838503121561341057600080fd5b823561341b81613175565b9150602083013561342b816133e3565b809150509250929050565b634e487b7160e01b600052604160045260246000fd5b6040516101e081016001600160401b038111828210171561346f5761346f613436565b60405290565b60405160c081016001600160401b038111828210171561346f5761346f613436565b60405160e081016001600160401b038111828210171561346f5761346f613436565b604080519081016001600160401b038111828210171561346f5761346f613436565b604051601f8201601f191681016001600160401b038111828210171561350357613503613436565b604052919050565b61ffff8116811461318a57600080fd5b8035610c3c8161350b565b64ffffffffff8116811461318a57600080fd5b600082601f83011261354a57600080fd5b6135526134b9565b80604084018581111561356457600080fd5b845b8181101561358757803561357981613526565b845260209384019301613566565b509095945050505050565b6000806000808486036102608112156135aa57600080fd5b85356135b581613175565b9450610200601f19820112156135ca57600080fd5b506135d361344c565b6135df6020870161351b565b81526135ed604087016133f2565b60208201526135fe606087016133f2565b604082015261360f6080870161351b565b606082015261362060a0870161351b565b608082015261363160c0870161351b565b60a082015261364260e0870161319b565b60c082015261010061365581880161319b565b60e083015261012061366881890161319b565b82840152610140915061367c82890161319b565b9083015261016061368e88820161351b565b8284015261018091506136a282890161351b565b908301526101a06136b488820161351b565b828401526101c091506136c882890161351b565b908301526136da886101e08901613539565b90820152939693955050505061022082013591610240013590565b6020808252825182820181905260009190848201906040850190845b818110156137365783516001600160a01b031683529284019291840191600101613711565b50909695505050505050565b6020808252825182820181905260009190848201906040850190845b818110156137365783518352928401929184019160010161375e565b6020808252825182820181905260009190848201906040850190845b81811015613736576137a9838551613246565b9284019260e09290920191600101613796565b600080604083850312156137cf57600080fd5b82359150602083013561342b81613175565b600080600080608085870312156137f757600080fd5b84359350602085013561380981613175565b9250604085013561381981613175565b9150606085013561382981613175565b939692955090935050565b6000806000806080858703121561384a57600080fd5b843561385581613175565b966020860135965060408601359560600135945092505050565b8051610c3c8161318d565b60006020828403121561388c57600080fd5b81516133c38161318d565b60208082526011908201527020a19737b59d103737ba1025b2b2b832b960791b604082015260600190565b6000602082840312156138d457600080fd5b81516133c381613526565b60006001600160401b038211156138f8576138f8613436565b5060051b60200190565b8051610c3c8161350b565b80516001600160401b0381168114610c3c57600080fd5b805165ffffffffffff81168114610c3c57600080fd5b6000602080838503121561394d57600080fd5b82516001600160401b0381111561396357600080fd5b8301601f8101851361397457600080fd5b8051613987613982826138df565b6134db565b81815260c091820283018401918482019190888411156139a657600080fd5b938501935b83851015613a355780858a0312156139c35760008081fd5b6139cb613475565b85516139d68161350b565b8152858701516139e581613526565b8188015260406139f687820161390d565b908201526060613a0787820161390d565b908201526080613a18878201613924565b9082015260a08681015190820152835293840193918501916139ab565b50979650505050505050565b6020808252601d908201527f524f442e6d642e4f523a20646f63204e4f542072656769737465726564000000604082015260600190565b600060208284031215613a8a57600080fd5b610a298261390d565b634e487b7160e01b600052601160045260246000fd5b60006001600160401b0380841680613ad157634e487b7160e01b600052601260045260246000fd5b92169190910492915050565b60208082526026908201527f41432e6f6e6c794469726563744b65657065723a206e6f74206469726563742060408201526535b2b2b832b960d11b606082015260800190565b600065ffffffffffff80831681851681830481118215151615613b4857613b48613a93565b02949350505050565b600065ffffffffffff808316818516808303821115613b7257613b72613a93565b01949350505050565b8051610c3c816133e3565b600060208284031215613b9857600080fd5b81516133c3816133e3565b600060208284031215613bb557600080fd5b81516133c381613175565b600060208284031215613bd257600080fd5b5051919050565b600082601f830112613bea57600080fd5b613bf26134b9565b806040840185811115613c0457600080fd5b845b81811015613587578051613c1981613526565b845260209384019301613c06565b60006102008284031215613c3a57600080fd5b613c4261344c565b613c4b83613902565b8152613c5960208401613b7b565b6020820152613c6a60408401613b7b565b6040820152613c7b60608401613902565b6060820152613c8c60808401613902565b6080820152613c9d60a08401613902565b60a0820152613cae60c0840161386f565b60c0820152613cbf60e0840161386f565b60e0820152610100613cd281850161386f565b90820152610120613ce484820161386f565b90820152610140613cf6848201613902565b90820152610160613d08848201613902565b90820152610180613d1a848201613902565b908201526101a0613d2c848201613902565b908201526101c0613d3f85858301613bd9565b908201529392505050565b60006020808385031215613d5d57600080fd5b82516001600160401b03811115613d7357600080fd5b8301601f81018513613d8457600080fd5b8051613d92613982826138df565b81815260059190911b82018301908381019087831115613db157600080fd5b928401925b82841015613dd8578351613dc981613175565b82529284019290840190613db6565b979650505050505050565b60006020808385031215613df657600080fd5b82516001600160401b03811115613e0c57600080fd5b8301601f81018513613e1d57600080fd5b8051613e2b613982826138df565b81815260059190911b82018301908381019087831115613e4a57600080fd5b928401925b82841015613dd857835182529284019290840190613e4f565b805163ffffffff81168114610c3c57600080fd5b60006020808385031215613e8f57600080fd5b82516001600160401b03811115613ea557600080fd5b8301601f81018513613eb657600080fd5b8051613ec4613982826138df565b81815260e09182028301840191848201919088841115613ee357600080fd5b938501935b83851015613a355780858a031215613f005760008081fd5b613f08613497565b8551613f13816133e3565b8152613f20868801613e68565b878201526040613f3181880161390d565b908201526060613f4287820161390d565b90820152608086810151613f5581613526565b9082015260a0613f66878201613924565b9082015260c0868101519082015283529384019391850191613ee8565b600060208284031215613f9557600080fd5b610a2982613e68565b60006020808385031215613fb157600080fd5b82516001600160401b03811115613fc757600080fd5b8301601f81018513613fd857600080fd5b8051613fe6613982826138df565b81815260c0918202830184019184820191908884111561400557600080fd5b938501935b83851015613a355780858a0312156140225760008081fd5b61402a613475565b855161403581613526565b81528587015161404481613526565b8188015260408681015161405781613526565b90820152606061406887820161390d565b90820152608061407987820161390d565b9082015260a08681015161408c816133e3565b908201528352938401939185019161400a565b600060408083018584526020828186015281865180845260609350838701915082880160005b8281101561412e578151805164ffffffffff908116865286820151811687870152888201511688860152868101516001600160401b03908116888701526080808301519091169086015260a09081015160ff169085015260c090930192908401906001016140c5565b5091999850505050505050505056fea2646970667358221220d785165ebf3e29e353edb3b5f42cca4e3214a3040fcea433c90c89e51fd836b864736f6c63430008080033",
    "sourcePath": "/Users/kaptain/github.com/hardhat/comboox/contracts/books/boa/BookOfIA.sol",
    "compiler": {
        "name": "solc",
        "version": "0.8.8+commit.dddeac2f"
    },
    "functionHashes": {
        "abandonRole(bytes32)": "3da9a600",
        "acceptFirstRefusalClaims(address,uint256)": "a0b7b8a7",
        "circulateDoc(address,(uint16,uint8,uint8,uint16,uint16,uint16,bool,bool,bool,bool,uint16,uint16,uint16,uint16,uint40[2]),bytes32,bytes32)": "6894f921",
        "circulateIA(address,bytes32,bytes32)": "8506c43f",
        "claimsOfFR(address,uint256)": "22ea1815",
        "createMockOfIA(address)": "32277b11",
        "execAlongRight(address,bool,uint256,uint256,uint256,uint256,uint256,bytes32)": "0b44c601",
        "execFirstRefusalRight(address,uint256,uint256,bytes32)": "fb255fcd",
        "filesList()": "8fefe1cd",
        "finalized()": "b3f05b97",
        "getBookeeper()": "ed211023",
        "getDTClaimForShare(address,uint256,uint256)": "0fc89eeb",
        "getDTClaimsForDeal(address,uint256)": "c337eee3",
        "getDraggingDeals(address)": "9cf90506",
        "getGeneralCounsel()": "103f6edd",
        "getHeadOfFile(address)": "6e0cdd3a",
        "getOwner()": "893d20e8",
        "getRefOfFile(address)": "58598c35",
        "grantRole(bytes32,uint256)": "1b6ea9f9",
        "hasDTClaims(address,uint256)": "10ba4e52",
        "hasRole(bytes32,uint256)": "7e063c5a",
        "init(uint256,address,address,address)": "dc890da9",
        "isFRClaimer(address,uint256)": "8f6b6587",
        "isRegistered(address)": "c3c5a547",
        "lockContents()": "f045a769",
        "mockDealOfBuy(address,uint256,uint256,uint256)": "e9c99eb2",
        "mockDealOfSell(address,uint256,uint256)": "4a11d76a",
        "mockResultsOfAcct(address,uint256)": "5f3bd6df",
        "mockResultsOfIA(address)": "deb57175",
        "qtyOfFiles()": "9ee4ad4e",
        "regFile(uint256,address)": "d02ef14d",
        "renounceRole(bytes32)": "8bb9c5bf",
        "revokeRole(bytes32,uint256)": "19d61ad9",
        "setDirectKeeper(address)": "6be8496f",
        "setGeneralCounsel(uint256)": "4a14beb1",
        "setOwner(uint256)": "8041494e",
        "setRoleAdmin(bytes32,uint256)": "5171ebd4",
        "setStateOfFile(address,uint8)": "511b707d"
    },
    "gasEstimates": {
        "creation": {
            "codeDepositCost": "3351000",
            "executionCost": "3731",
            "totalCost": "3354731"
        },
        "external": {
            "abandonRole(bytes32)": "infinite",
            "acceptFirstRefusalClaims(address,uint256)": "infinite",
            "circulateDoc(address,(uint16,uint8,uint8,uint16,uint16,uint16,bool,bool,bool,bool,uint16,uint16,uint16,uint16,uint40[2]),bytes32,bytes32)": "infinite",
            "circulateIA(address,bytes32,bytes32)": "infinite",
            "claimsOfFR(address,uint256)": "infinite",
            "createMockOfIA(address)": "infinite",
            "execAlongRight(address,bool,uint256,uint256,uint256,uint256,uint256,bytes32)": "infinite",
            "execFirstRefusalRight(address,uint256,uint256,bytes32)": "infinite",
            "filesList()": "infinite",
            "finalized()": "2372",
            "getBookeeper()": "infinite",
            "getDTClaimForShare(address,uint256,uint256)": "5702",
            "getDTClaimsForDeal(address,uint256)": "infinite",
            "getDraggingDeals(address)": "infinite",
            "getGeneralCounsel()": "infinite",
            "getHeadOfFile(address)": "infinite",
            "getOwner()": "infinite",
            "getRefOfFile(address)": "infinite",
            "grantRole(bytes32,uint256)": "infinite",
            "hasDTClaims(address,uint256)": "infinite",
            "hasRole(bytes32,uint256)": "infinite",
            "init(uint256,address,address,address)": "infinite",
            "isFRClaimer(address,uint256)": "2696",
            "isRegistered(address)": "infinite",
            "lockContents()": "infinite",
            "mockDealOfBuy(address,uint256,uint256,uint256)": "infinite",
            "mockDealOfSell(address,uint256,uint256)": "infinite",
            "mockResultsOfAcct(address,uint256)": "infinite",
            "mockResultsOfIA(address)": "infinite",
            "qtyOfFiles()": "infinite",
            "regFile(uint256,address)": "infinite",
            "renounceRole(bytes32)": "infinite",
            "revokeRole(bytes32,uint256)": "infinite",
            "setDirectKeeper(address)": "infinite",
            "setGeneralCounsel(uint256)": "infinite",
            "setOwner(uint256)": "infinite",
            "setRoleAdmin(bytes32,uint256)": "infinite",
            "setStateOfFile(address,uint8)": "infinite"
        },
        "internal": {
            "_createMockOfIA(address)": "infinite",
            "_resetDoc(address,struct IFilesFolder.Head memory)": "infinite"
        }
    }
}