{
    "contractName": "FirstRefusalDeals",
    "abi": [
        {
            "anonymous": false,
            "inputs": [
                {
                    "indexed": false,
                    "internalType": "uint16",
                    "name": "seqOfOD",
                    "type": "uint16"
                },
                {
                    "indexed": false,
                    "internalType": "uint16",
                    "name": "seqOfFR",
                    "type": "uint16"
                },
                {
                    "indexed": false,
                    "internalType": "uint64",
                    "name": "ratio",
                    "type": "uint64"
                }
            ],
            "name": "AcceptFirstRefusal",
            "type": "event"
        },
        {
            "anonymous": false,
            "inputs": [
                {
                    "indexed": false,
                    "internalType": "uint16",
                    "name": "seqOfOD",
                    "type": "uint16"
                },
                {
                    "indexed": false,
                    "internalType": "uint16",
                    "name": "seqOfFR",
                    "type": "uint16"
                },
                {
                    "indexed": false,
                    "internalType": "uint40",
                    "name": "acct",
                    "type": "uint40"
                }
            ],
            "name": "ExecFirstRefusal",
            "type": "event"
        },
        {
            "anonymous": false,
            "inputs": [
                {
                    "indexed": false,
                    "internalType": "uint40",
                    "name": "owner",
                    "type": "uint40"
                },
                {
                    "indexed": false,
                    "internalType": "address",
                    "name": "directKeeper",
                    "type": "address"
                },
                {
                    "indexed": false,
                    "internalType": "address",
                    "name": "regCenter",
                    "type": "address"
                },
                {
                    "indexed": false,
                    "internalType": "address",
                    "name": "generalKeeper",
                    "type": "address"
                }
            ],
            "name": "Init",
            "type": "event"
        },
        {
            "anonymous": false,
            "inputs": [],
            "name": "LockContents",
            "type": "event"
        },
        {
            "anonymous": false,
            "inputs": [
                {
                    "indexed": false,
                    "internalType": "address",
                    "name": "keeper",
                    "type": "address"
                }
            ],
            "name": "SetDirectKeeper",
            "type": "event"
        },
        {
            "anonymous": false,
            "inputs": [
                {
                    "indexed": false,
                    "internalType": "uint256",
                    "name": "acct",
                    "type": "uint256"
                }
            ],
            "name": "SetGeneralCounsel",
            "type": "event"
        },
        {
            "anonymous": false,
            "inputs": [
                {
                    "indexed": false,
                    "internalType": "address",
                    "name": "gk",
                    "type": "address"
                }
            ],
            "name": "SetGeneralKeeper",
            "type": "event"
        },
        {
            "anonymous": false,
            "inputs": [
                {
                    "indexed": false,
                    "internalType": "uint256",
                    "name": "acct",
                    "type": "uint256"
                }
            ],
            "name": "SetOwner",
            "type": "event"
        },
        {
            "anonymous": false,
            "inputs": [
                {
                    "indexed": false,
                    "internalType": "address",
                    "name": "rc",
                    "type": "address"
                }
            ],
            "name": "SetRegCenter",
            "type": "event"
        },
        {
            "inputs": [
                {
                    "internalType": "bytes32",
                    "name": "role",
                    "type": "bytes32"
                }
            ],
            "name": "abandonRole",
            "outputs": [],
            "stateMutability": "nonpayable",
            "type": "function"
        },
        {
            "inputs": [
                {
                    "internalType": "uint16",
                    "name": "seqOfOD",
                    "type": "uint16"
                },
                {
                    "internalType": "uint16",
                    "name": "seqOfFR",
                    "type": "uint16"
                }
            ],
            "name": "acceptFirstRefusal",
            "outputs": [
                {
                    "internalType": "uint64",
                    "name": "ratio",
                    "type": "uint64"
                }
            ],
            "stateMutability": "nonpayable",
            "type": "function"
        },
        {
            "inputs": [
                {
                    "internalType": "uint16",
                    "name": "seqOfOD",
                    "type": "uint16"
                },
                {
                    "internalType": "uint16",
                    "name": "seqOfFR",
                    "type": "uint16"
                },
                {
                    "internalType": "uint40",
                    "name": "acct",
                    "type": "uint40"
                }
            ],
            "name": "execFirstRefusalRight",
            "outputs": [],
            "stateMutability": "nonpayable",
            "type": "function"
        },
        {
            "inputs": [],
            "name": "finalized",
            "outputs": [
                {
                    "internalType": "bool",
                    "name": "",
                    "type": "bool"
                }
            ],
            "stateMutability": "view",
            "type": "function"
        },
        {
            "inputs": [],
            "name": "getBookeeper",
            "outputs": [
                {
                    "internalType": "address",
                    "name": "",
                    "type": "address"
                }
            ],
            "stateMutability": "view",
            "type": "function"
        },
        {
            "inputs": [],
            "name": "getGeneralCounsel",
            "outputs": [
                {
                    "internalType": "uint40",
                    "name": "",
                    "type": "uint40"
                }
            ],
            "stateMutability": "view",
            "type": "function"
        },
        {
            "inputs": [],
            "name": "getOwner",
            "outputs": [
                {
                    "internalType": "uint40",
                    "name": "",
                    "type": "uint40"
                }
            ],
            "stateMutability": "view",
            "type": "function"
        },
        {
            "inputs": [],
            "name": "getSHA",
            "outputs": [
                {
                    "internalType": "contract IShareholdersAgreement",
                    "name": "",
                    "type": "address"
                }
            ],
            "stateMutability": "view",
            "type": "function"
        },
        {
            "inputs": [
                {
                    "internalType": "bytes32",
                    "name": "role",
                    "type": "bytes32"
                },
                {
                    "internalType": "uint40",
                    "name": "acct",
                    "type": "uint40"
                }
            ],
            "name": "grantRole",
            "outputs": [],
            "stateMutability": "nonpayable",
            "type": "function"
        },
        {
            "inputs": [
                {
                    "internalType": "bytes32",
                    "name": "role",
                    "type": "bytes32"
                },
                {
                    "internalType": "uint40",
                    "name": "acct",
                    "type": "uint40"
                }
            ],
            "name": "hasRole",
            "outputs": [
                {
                    "internalType": "bool",
                    "name": "",
                    "type": "bool"
                }
            ],
            "stateMutability": "view",
            "type": "function"
        },
        {
            "inputs": [
                {
                    "internalType": "uint40",
                    "name": "owner",
                    "type": "uint40"
                },
                {
                    "internalType": "address",
                    "name": "directKeeper",
                    "type": "address"
                },
                {
                    "internalType": "address",
                    "name": "regCenter",
                    "type": "address"
                },
                {
                    "internalType": "address",
                    "name": "generalKeeper",
                    "type": "address"
                }
            ],
            "name": "init",
            "outputs": [],
            "stateMutability": "nonpayable",
            "type": "function"
        },
        {
            "inputs": [
                {
                    "internalType": "uint16",
                    "name": "seqOfOD",
                    "type": "uint16"
                },
                {
                    "internalType": "uint16",
                    "name": "seqOfFR",
                    "type": "uint16"
                }
            ],
            "name": "isFRDeal",
            "outputs": [
                {
                    "internalType": "bool",
                    "name": "",
                    "type": "bool"
                }
            ],
            "stateMutability": "view",
            "type": "function"
        },
        {
            "inputs": [
                {
                    "internalType": "uint16",
                    "name": "seqOfOD",
                    "type": "uint16"
                }
            ],
            "name": "isTargetDeal",
            "outputs": [
                {
                    "internalType": "bool",
                    "name": "",
                    "type": "bool"
                }
            ],
            "stateMutability": "view",
            "type": "function"
        },
        {
            "inputs": [],
            "name": "lockContents",
            "outputs": [],
            "stateMutability": "nonpayable",
            "type": "function"
        },
        {
            "inputs": [
                {
                    "internalType": "uint16",
                    "name": "seqOfOD",
                    "type": "uint16"
                },
                {
                    "internalType": "uint16",
                    "name": "seqOfFR",
                    "type": "uint16"
                }
            ],
            "name": "ratioOfFR",
            "outputs": [
                {
                    "internalType": "uint64",
                    "name": "",
                    "type": "uint64"
                }
            ],
            "stateMutability": "view",
            "type": "function"
        },
        {
            "inputs": [
                {
                    "internalType": "bytes32",
                    "name": "role",
                    "type": "bytes32"
                }
            ],
            "name": "renounceRole",
            "outputs": [],
            "stateMutability": "nonpayable",
            "type": "function"
        },
        {
            "inputs": [
                {
                    "internalType": "bytes32",
                    "name": "role",
                    "type": "bytes32"
                },
                {
                    "internalType": "uint40",
                    "name": "acct",
                    "type": "uint40"
                }
            ],
            "name": "revokeRole",
            "outputs": [],
            "stateMutability": "nonpayable",
            "type": "function"
        },
        {
            "inputs": [
                {
                    "internalType": "address",
                    "name": "keeper",
                    "type": "address"
                }
            ],
            "name": "setDirectKeeper",
            "outputs": [],
            "stateMutability": "nonpayable",
            "type": "function"
        },
        {
            "inputs": [
                {
                    "internalType": "uint40",
                    "name": "acct",
                    "type": "uint40"
                }
            ],
            "name": "setGeneralCounsel",
            "outputs": [],
            "stateMutability": "nonpayable",
            "type": "function"
        },
        {
            "inputs": [
                {
                    "internalType": "uint40",
                    "name": "acct",
                    "type": "uint40"
                }
            ],
            "name": "setOwner",
            "outputs": [],
            "stateMutability": "nonpayable",
            "type": "function"
        },
        {
            "inputs": [
                {
                    "internalType": "bytes32",
                    "name": "role",
                    "type": "bytes32"
                },
                {
                    "internalType": "uint40",
                    "name": "acct",
                    "type": "uint40"
                }
            ],
            "name": "setRoleAdmin",
            "outputs": [],
            "stateMutability": "nonpayable",
            "type": "function"
        },
        {
            "inputs": [
                {
                    "internalType": "uint16",
                    "name": "seqOfOD",
                    "type": "uint16"
                }
            ],
            "name": "sumOfWeight",
            "outputs": [
                {
                    "internalType": "uint64",
                    "name": "",
                    "type": "uint64"
                }
            ],
            "stateMutability": "view",
            "type": "function"
        },
        {
            "inputs": [
                {
                    "internalType": "uint16",
                    "name": "seqOfOD",
                    "type": "uint16"
                },
                {
                    "internalType": "uint16",
                    "name": "seqOfFR",
                    "type": "uint16"
                }
            ],
            "name": "weightOfFR",
            "outputs": [
                {
                    "internalType": "uint64",
                    "name": "",
                    "type": "uint64"
                }
            ],
            "stateMutability": "view",
            "type": "function"
        }
    ],
    "bytecode": "608060405234801561001057600080fd5b50611ba2806100206000396000f3fe608060405234801561001057600080fd5b506004361061014d5760003560e01c806374099815116100c35780639aec3cbf1161007c5780639aec3cbf14610373578063a61adc2814610386578063b3f05b97146103a6578063c44807f7146103ba578063ed211023146103e7578063f045a769146103ef57600080fd5b8063740998151461030c57806379b2ec121461031f5780637ba706e814610332578063821ee8ea14610345578063893d20e8146103585780638bb9c5bf1461036057600080fd5b806331e027491161011557806331e02749146102105780633da9a60014610251578063413db17f146102645780634bbac339146102b757806351dc39e1146102e65780636be8496f146102f957600080fd5b80630fcdaab714610152578063103f6edd146101b757806316dc517e146101d557806317c51fec146101ea5780633178a9a9146101fd575b600080fd5b61019a610160366004611808565b61ffff918216600090815260046020908152604080832093909416825260019092019091522054600160401b90046001600160401b031690565b6040516001600160401b0390911681526020015b60405180910390f35b6101bf6103f7565b60405164ffffffffff90911681526020016101ae565b6101e86101e3366004611851565b610483565b005b6101e86101f8366004611851565b610519565b6101e861020b366004611881565b61053e565b61019a61021e366004611808565b61ffff9182166000908152600460209081526040808320939094168252600190920190915220546001600160401b031690565b6101e861025f36600461189e565b610740565b6102a7610272366004611808565b61ffff9182166000908152600460209081526040808320939094168252600190920190915220546001600160401b0316151590565b60405190151581526020016101ae565b6102a76102c53660046118b7565b61ffff166000908152600460205260409020546001600160401b0316151590565b61019a6102f4366004611808565b610852565b6101e86103073660046118e7565b610abe565b6101e861031a366004611851565b610b70565b6102a761032d366004611851565b610b95565b6101e8610340366004611881565b610c36565b6101e8610353366004611904565b610e28565b6101bf610f1e565b6101e861036e36600461189e565b610f59565b6101e8610381366004611960565b610fb2565b61038e6112c4565b6040516001600160a01b0390911681526020016101ae565b60028054600160f01b900460ff16146102a7565b61019a6103c83660046118b7565b61ffff166000908152600460205260409020546001600160401b031690565b61038e6113b1565b6101e8611413565b60405163e8c0cc1d60e01b81526002600482015260009073__$364aad554dc80380f414546becdd2c1584$__9063e8c0cc1d906024015b60206040518083038186803b15801561044657600080fd5b505af415801561045a573d6000803e3d6000fd5b505050506040513d601f19601f8201168201806040525081019061047e91906119a7565b905090565b73__$364aad554dc80380f414546becdd2c1584$__63427abff46002846104a8611631565b6040516001600160e01b031960e086901b1681526004810193909352602483019190915264ffffffffff9081166044830152841660648201526084015b60006040518083038186803b1580156104fd57600080fd5b505af4158015610511573d6000803e3d6000fd5b505050505050565b73__$364aad554dc80380f414546becdd2c1584$__638ce158456002846104a8611631565b604051633b11adbf60e21b81526002600482015233602482015273__$364aad554dc80380f414546becdd2c1584$__9063ec46b6fc9060440160206040518083038186803b15801561058f57600080fd5b505af41580156105a3573d6000803e3d6000fd5b505050506040513d601f19601f820116820180604052508101906105c791906119c4565b8061066c575073__$364aad554dc80380f414546becdd2c1584$__63fe27108660026105f1611631565b6040516001600160e01b031960e085901b168152600481019290925264ffffffffff16602482015260440160206040518083038186803b15801561063457600080fd5b505af4158015610648573d6000803e3d6000fd5b505050506040513d601f19601f8201168201806040525081019061066c91906119c4565b6106915760405162461bcd60e51b8152600401610688906119e6565b60405180910390fd5b604051632725ebef60e21b81526002600482015264ffffffffff8216602482015273__$364aad554dc80380f414546becdd2c1584$__90639c97afbc9060440160006040518083038186803b1580156106e957600080fd5b505af41580156106fd573d6000803e3d6000fd5b505060405164ffffffffff841681527ff2735f34b69be1e6342dea95f9162f84d0db925fab655ca9f1f312ac8cbfc99d925060200190505b60405180910390a150565b604051633b11adbf60e21b81526002600482015233602482015273__$364aad554dc80380f414546becdd2c1584$__9063ec46b6fc9060440160206040518083038186803b15801561079157600080fd5b505af41580156107a5573d6000803e3d6000fd5b505050506040513d601f19601f820116820180604052508101906107c991906119c4565b6107e55760405162461bcd60e51b815260040161068890611a3c565b60405163cc99e11b60e01b8152600260048201526024810182905273__$364aad554dc80380f414546becdd2c1584$__9063cc99e11b9060440160006040518083038186803b15801561083757600080fd5b505af415801561084b573d6000803e3d6000fd5b5050505050565b604051633b11adbf60e21b81526002600482015233602482015260009073__$364aad554dc80380f414546becdd2c1584$__9063ec46b6fc9060440160206040518083038186803b1580156108a657600080fd5b505af41580156108ba573d6000803e3d6000fd5b505050506040513d601f19601f820116820180604052508101906108de91906119c4565b6108fa5760405162461bcd60e51b815260040161068890611a3c565b61ffff83166000908152600460205260409020546001600160401b0316806109585760405162461bcd60e51b815260206004820152601160248201527011949119585b1cc81b9bdd08199bdd5b99607a1b6044820152606401610688565b61ffff808516600090815260046020908152604080832093871683526001909301905220546001600160401b0316806109c75760405162461bcd60e51b8152602060048201526011602482015270119490db185a5b481b9bdd08199bdd5b99607a1b6044820152606401610688565b61ffff85811660009081526004602090815260408083209388168352600190930190522054600160401b90046001600160401b0316925082610a695781610a1082612710611a98565b610a1a9190611ac7565b61ffff86811660009081526004602090815260408083209389168352600190930190522080546fffffffffffffffff00000000000000001916600160401b6001600160401b0384160217905592505b6040805161ffff8781168252861660208201526001600160401b0385168183015290517f07c0dce43c93be77d61892f1f0ee2da452224a147472c16b8cd654c755de9cac9181900360600190a1505092915050565b604051630f07232560e01b8152600260048201523360248201526001600160a01b038216604482015273__$364aad554dc80380f414546becdd2c1584$__90630f0723259060640160006040518083038186803b158015610b1e57600080fd5b505af4158015610b32573d6000803e3d6000fd5b50506040516001600160a01b03841681527fe435cbeab64e4eae6497b9d8289704bd709d624a80704ef3ca9af777534bc6ec92506020019050610735565b73__$364aad554dc80380f414546becdd2c1584$__63d2a15ba76002846104a8611631565b604051632a3be56b60e21b8152600260048201526024810183905264ffffffffff8216604482015260009073__$364aad554dc80380f414546becdd2c1584$__9063a8ef95ac9060640160206040518083038186803b158015610bf757600080fd5b505af4158015610c0b573d6000803e3d6000fd5b505050506040513d601f19601f82011682018060405250810190610c2f91906119c4565b9392505050565b604051633b11adbf60e21b81526002600482015233602482015273__$364aad554dc80380f414546becdd2c1584$__9063ec46b6fc9060440160206040518083038186803b158015610c8757600080fd5b505af4158015610c9b573d6000803e3d6000fd5b505050506040513d601f19601f82011682018060405250810190610cbf91906119c4565b80610d64575073__$364aad554dc80380f414546becdd2c1584$__63fe2710866002610ce9611631565b6040516001600160e01b031960e085901b168152600481019290925264ffffffffff16602482015260440160206040518083038186803b158015610d2c57600080fd5b505af4158015610d40573d6000803e3d6000fd5b505050506040513d601f19601f82011682018060405250810190610d6491906119c4565b610d805760405162461bcd60e51b8152600401610688906119e6565b60405163b6e38a2960e01b81526002600482015264ffffffffff8216602482015273__$364aad554dc80380f414546becdd2c1584$__9063b6e38a299060440160006040518083038186803b158015610dd857600080fd5b505af4158015610dec573d6000803e3d6000fd5b505060405164ffffffffff841681527f8b6f40f36b4ae8cc5f55e895036457c43da4ab1f80f58c46f5ff0d72a650033b92506020019050610735565b610e318261168b565b610e3a8161173a565b604051636cdd0edf60e11b81526002600482015264ffffffffff851660248201526001600160a01b038416604482015273__$364aad554dc80380f414546becdd2c1584$__9063d9ba1dbe9060640160006040518083038186803b158015610ea157600080fd5b505af4158015610eb5573d6000803e3d6000fd5b50506040805164ffffffffff881681526001600160a01b0380881660208301528087169282019290925290841660608201527f4d18c0021addc919105cb1ed2c11ad241e859cc1d9e77d4ee1d9ca2cdc1f255b925060800190505b60405180910390a150505050565b60405163987ad15360e01b81526002600482015260009073__$364aad554dc80380f414546becdd2c1584$__9063987ad1539060240161042e565b6000610f63611631565b604051637963595360e11b8152600260048201526024810184905264ffffffffff8216604482015290915073__$364aad554dc80380f414546becdd2c1584$__9063f2c6b2a6906064016104e5565b604051633b11adbf60e21b81526002600482015233602482015273__$364aad554dc80380f414546becdd2c1584$__9063ec46b6fc9060440160206040518083038186803b15801561100357600080fd5b505af4158015611017573d6000803e3d6000fd5b505050506040513d601f19601f8201168201806040525081019061103b91906119c4565b6110575760405162461bcd60e51b815260040161068890611a3c565b60015460405163381baea360e21b8152600760048201526000916001600160a01b03169063e06eba8c9060240160206040518083038186803b15801561109c57600080fd5b505afa1580156110b0573d6000803e3d6000fd5b505050506040513d601f19601f820116820180604052508101906110d49190611afb565b604051636a03116960e11b815264ffffffffff841660048201526001600160a01b03919091169063d40622d29060240160206040518083038186803b15801561111c57600080fd5b505afa158015611130573d6000803e3d6000fd5b505050506040513d601f19601f820116820180604052508101906111549190611b18565b90506001600160401b0381166111ba5760405162461bcd60e51b815260206004820152602560248201527f6669727374207265667573616c207265717565737420686173205a45524f2077604482015264195a59da1d60da1b6064820152608401610688565b61ffff808516600090815260046020908152604080832093871683526001909301905220546001600160401b03166112be5761ffff8416600090815260046020526040812080548392906112189084906001600160401b0316611b41565b82546101009290920a6001600160401b0381810219909316918316021790915561ffff8681166000818152600460209081526040808320948a16808452600195909501825291829020805467ffffffffffffffff19169588169590951790945580519182529281019190915264ffffffffff8516918101919091527f37105e6f4cc739a03c1584507a426c599fb5b2ae43ef98cd7f30c1fe200d20389150606001610f10565b50505050565b60015460405163381baea360e21b8152600360048201526000916001600160a01b03169063e06eba8c9060240160206040518083038186803b15801561130957600080fd5b505afa15801561131d573d6000803e3d6000fd5b505050506040513d601f19601f820116820180604052508101906113419190611afb565b6001600160a01b0316632f5f3b3c6040518163ffffffff1660e01b815260040160206040518083038186803b15801561137957600080fd5b505afa15801561138d573d6000803e3d6000fd5b505050506040513d601f19601f8201168201806040525081019061047e9190611afb565b604051633c3e56c160e11b81526002600482015260009073__$364aad554dc80380f414546becdd2c1584$__9063787cad829060240160206040518083038186803b1580156113ff57600080fd5b505af415801561138d573d6000803e3d6000fd5b604051633b11adbf60e21b81526002600482015233602482015273__$364aad554dc80380f414546becdd2c1584$__9063ec46b6fc9060440160206040518083038186803b15801561146457600080fd5b505af4158015611478573d6000803e3d6000fd5b505050506040513d601f19601f8201168201806040525081019061149c91906119c4565b6114b85760405162461bcd60e51b815260040161068890611a3c565b600254600160f01b900460ff166001146115145760405162461bcd60e51b815260206004820181905260248201527f41432e6f6e6c7950656e64696e673a20446f632069732066696e616c697a65646044820152606401610688565b60405163cc99e11b60e01b815260026004820152684174746f726e65797360b81b602482015273__$364aad554dc80380f414546becdd2c1584$__9063cc99e11b9060440160006040518083038186803b15801561157157600080fd5b505af4158015611585573d6000803e3d6000fd5b5050604051632725ebef60e21b8152600260048201526000602482015273__$364aad554dc80380f414546becdd2c1584$__9250639c97afbc915060440160006040518083038186803b1580156115db57600080fd5b505af41580156115ef573d6000803e3d6000fd5b50506002805460ff60f01b1916600160f11b17905550506040517f35012b512309c322acf68632cd6cb702ff0e1d776fbe9394e38ffc13b434fe7590600090a1565b60008054604051634de835e760e11b81523360048201526001600160a01b0390911690639bd06bce90602401602060405180830381600087803b15801561167757600080fd5b505af115801561045a573d6000803e3d6000fd5b6000546001600160a01b0316156116dc5760405162461bcd60e51b815260206004820152601560248201527430b63932b0b23c9039b2ba103932b3a1b2b73a32b960591b6044820152606401610688565b6040516001600160a01b03821681527f318da6c7624c71cbc0afe346c9d8827f119d0ecefb241a7b0c87217a076a8e029060200160405180910390a1600080546001600160a01b0319166001600160a01b0392909216919091179055565b6001546001600160a01b0316156117935760405162461bcd60e51b815260206004820152601960248201527f616c7265616479207365742067656e6572616c4b6565706572000000000000006044820152606401610688565b6040516001600160a01b03821681527fe513d3e0f0d0a3877029dcc588748679a7a3450ec1ec7ed56d96bd012c3e61aa9060200160405180910390a1600180546001600160a01b0319166001600160a01b0392909216919091179055565b803561ffff8116811461180357600080fd5b919050565b6000806040838503121561181b57600080fd5b611824836117f1565b9150611832602084016117f1565b90509250929050565b64ffffffffff8116811461184e57600080fd5b50565b6000806040838503121561186457600080fd5b8235915060208301356118768161183b565b809150509250929050565b60006020828403121561189357600080fd5b8135610c2f8161183b565b6000602082840312156118b057600080fd5b5035919050565b6000602082840312156118c957600080fd5b610c2f826117f1565b6001600160a01b038116811461184e57600080fd5b6000602082840312156118f957600080fd5b8135610c2f816118d2565b6000806000806080858703121561191a57600080fd5b84356119258161183b565b93506020850135611935816118d2565b92506040850135611945816118d2565b91506060850135611955816118d2565b939692955090935050565b60008060006060848603121561197557600080fd5b61197e846117f1565b925061198c602085016117f1565b9150604084013561199c8161183b565b809150509250925092565b6000602082840312156119b957600080fd5b8151610c2f8161183b565b6000602082840312156119d657600080fd5b81518015158114610c2f57600080fd5b60208082526036908201527f41432e6f776e65724f72446972656374426f6f6b65657065723a206e6569746860408201527532b91037bbb732b9103737b9103137b7b5b2b2b832b960511b606082015260800190565b60208082526026908201527f41432e6f6e6c794469726563744b65657065723a206e6f74206469726563742060408201526535b2b2b832b960d11b606082015260800190565b634e487b7160e01b600052601160045260246000fd5b60006001600160401b0380831681851681830481118215151615611abe57611abe611a82565b02949350505050565b60006001600160401b0380841680611aef57634e487b7160e01b600052601260045260246000fd5b92169190910492915050565b600060208284031215611b0d57600080fd5b8151610c2f816118d2565b600060208284031215611b2a57600080fd5b81516001600160401b0381168114610c2f57600080fd5b60006001600160401b03808316818516808303821115611b6357611b63611a82565b0194935050505056fea26469706673582212205a63b1c862b3fb652a73b27f8a589639ebdadad63d9f19fe67f730920137fd3964736f6c63430008080033",
    "sourcePath": "/Users/kaptain/github.com/hardhat/comboox/contracts/books/boa/FirstRefusalDeals.sol",
    "compiler": {
        "name": "solc",
        "version": "0.8.8+commit.dddeac2f"
    },
    "functionHashes": {
        "abandonRole(bytes32)": "3da9a600",
        "acceptFirstRefusal(uint16,uint16)": "51dc39e1",
        "execFirstRefusalRight(uint16,uint16,uint40)": "9aec3cbf",
        "finalized()": "b3f05b97",
        "getBookeeper()": "ed211023",
        "getGeneralCounsel()": "103f6edd",
        "getOwner()": "893d20e8",
        "getSHA()": "a61adc28",
        "grantRole(bytes32,uint40)": "74099815",
        "hasRole(bytes32,uint40)": "79b2ec12",
        "init(uint40,address,address,address)": "821ee8ea",
        "isFRDeal(uint16,uint16)": "413db17f",
        "isTargetDeal(uint16)": "4bbac339",
        "lockContents()": "f045a769",
        "ratioOfFR(uint16,uint16)": "0fcdaab7",
        "renounceRole(bytes32)": "8bb9c5bf",
        "revokeRole(bytes32,uint40)": "17c51fec",
        "setDirectKeeper(address)": "6be8496f",
        "setGeneralCounsel(uint40)": "3178a9a9",
        "setOwner(uint40)": "7ba706e8",
        "setRoleAdmin(bytes32,uint40)": "16dc517e",
        "sumOfWeight(uint16)": "c44807f7",
        "weightOfFR(uint16,uint16)": "31e02749"
    },
    "gasEstimates": {
        "creation": {
            "codeDepositCost": "1414800",
            "executionCost": "1479",
            "totalCost": "1416279"
        },
        "external": {
            "abandonRole(bytes32)": "infinite",
            "acceptFirstRefusal(uint16,uint16)": "infinite",
            "execFirstRefusalRight(uint16,uint16,uint40)": "infinite",
            "finalized()": "2393",
            "getBookeeper()": "infinite",
            "getGeneralCounsel()": "infinite",
            "getOwner()": "infinite",
            "getSHA()": "infinite",
            "grantRole(bytes32,uint40)": "infinite",
            "hasRole(bytes32,uint40)": "infinite",
            "init(uint40,address,address,address)": "infinite",
            "isFRDeal(uint16,uint16)": "infinite",
            "isTargetDeal(uint16)": "2632",
            "lockContents()": "infinite",
            "ratioOfFR(uint16,uint16)": "infinite",
            "renounceRole(bytes32)": "infinite",
            "revokeRole(bytes32,uint40)": "infinite",
            "setDirectKeeper(address)": "infinite",
            "setGeneralCounsel(uint40)": "infinite",
            "setOwner(uint40)": "infinite",
            "setRoleAdmin(bytes32,uint40)": "infinite",
            "sumOfWeight(uint16)": "2629",
            "weightOfFR(uint16,uint16)": "infinite"
        }
    }
}