{
    "contractName": "MockResults",
    "abi": [
        {
            "anonymous": false,
            "inputs": [
                {
                    "indexed": true,
                    "internalType": "uint40",
                    "name": "follower",
                    "type": "uint40"
                },
                {
                    "indexed": false,
                    "internalType": "bytes32",
                    "name": "sharenumber",
                    "type": "bytes32"
                },
                {
                    "indexed": false,
                    "internalType": "uint64",
                    "name": "amount",
                    "type": "uint64"
                }
            ],
            "name": "AddAlongDeal",
            "type": "event"
        },
        {
            "anonymous": false,
            "inputs": [],
            "name": "CreateMockGM",
            "type": "event"
        },
        {
            "anonymous": false,
            "inputs": [
                {
                    "indexed": false,
                    "internalType": "uint40",
                    "name": "owner",
                    "type": "uint40"
                },
                {
                    "indexed": false,
                    "internalType": "address",
                    "name": "directKeeper",
                    "type": "address"
                },
                {
                    "indexed": false,
                    "internalType": "address",
                    "name": "regCenter",
                    "type": "address"
                },
                {
                    "indexed": false,
                    "internalType": "address",
                    "name": "generalKeeper",
                    "type": "address"
                }
            ],
            "name": "Init",
            "type": "event"
        },
        {
            "anonymous": false,
            "inputs": [],
            "name": "LockContents",
            "type": "event"
        },
        {
            "anonymous": false,
            "inputs": [
                {
                    "indexed": true,
                    "internalType": "uint40",
                    "name": "buyer",
                    "type": "uint40"
                },
                {
                    "indexed": false,
                    "internalType": "uint64",
                    "name": "amount",
                    "type": "uint64"
                }
            ],
            "name": "MockDealOfBuy",
            "type": "event"
        },
        {
            "anonymous": false,
            "inputs": [
                {
                    "indexed": true,
                    "internalType": "uint40",
                    "name": "seller",
                    "type": "uint40"
                },
                {
                    "indexed": false,
                    "internalType": "uint64",
                    "name": "amount",
                    "type": "uint64"
                }
            ],
            "name": "MockDealOfSell",
            "type": "event"
        },
        {
            "anonymous": false,
            "inputs": [
                {
                    "indexed": false,
                    "internalType": "address",
                    "name": "keeper",
                    "type": "address"
                }
            ],
            "name": "SetDirectKeeper",
            "type": "event"
        },
        {
            "anonymous": false,
            "inputs": [
                {
                    "indexed": false,
                    "internalType": "uint256",
                    "name": "acct",
                    "type": "uint256"
                }
            ],
            "name": "SetGeneralCounsel",
            "type": "event"
        },
        {
            "anonymous": false,
            "inputs": [
                {
                    "indexed": false,
                    "internalType": "address",
                    "name": "gk",
                    "type": "address"
                }
            ],
            "name": "SetGeneralKeeper",
            "type": "event"
        },
        {
            "anonymous": false,
            "inputs": [
                {
                    "indexed": false,
                    "internalType": "uint256",
                    "name": "acct",
                    "type": "uint256"
                }
            ],
            "name": "SetOwner",
            "type": "event"
        },
        {
            "anonymous": false,
            "inputs": [
                {
                    "indexed": false,
                    "internalType": "address",
                    "name": "rc",
                    "type": "address"
                }
            ],
            "name": "SetRegCenter",
            "type": "event"
        },
        {
            "inputs": [
                {
                    "internalType": "bytes32",
                    "name": "role",
                    "type": "bytes32"
                }
            ],
            "name": "abandonRole",
            "outputs": [],
            "stateMutability": "nonpayable",
            "type": "function"
        },
        {
            "inputs": [
                {
                    "internalType": "bytes32",
                    "name": "rule",
                    "type": "bytes32"
                },
                {
                    "internalType": "bytes32",
                    "name": "shareNumber",
                    "type": "bytes32"
                },
                {
                    "internalType": "uint64",
                    "name": "amount",
                    "type": "uint64"
                }
            ],
            "name": "addAlongDeal",
            "outputs": [],
            "stateMutability": "nonpayable",
            "type": "function"
        },
        {
            "inputs": [],
            "name": "createMockGM",
            "outputs": [],
            "stateMutability": "nonpayable",
            "type": "function"
        },
        {
            "inputs": [],
            "name": "finalized",
            "outputs": [
                {
                    "internalType": "bool",
                    "name": "",
                    "type": "bool"
                }
            ],
            "stateMutability": "view",
            "type": "function"
        },
        {
            "inputs": [],
            "name": "getBookeeper",
            "outputs": [
                {
                    "internalType": "address",
                    "name": "",
                    "type": "address"
                }
            ],
            "stateMutability": "view",
            "type": "function"
        },
        {
            "inputs": [],
            "name": "getGeneralCounsel",
            "outputs": [
                {
                    "internalType": "uint40",
                    "name": "",
                    "type": "uint40"
                }
            ],
            "stateMutability": "view",
            "type": "function"
        },
        {
            "inputs": [],
            "name": "getOwner",
            "outputs": [
                {
                    "internalType": "uint40",
                    "name": "",
                    "type": "uint40"
                }
            ],
            "stateMutability": "view",
            "type": "function"
        },
        {
            "inputs": [
                {
                    "internalType": "bytes32",
                    "name": "role",
                    "type": "bytes32"
                },
                {
                    "internalType": "uint40",
                    "name": "acct",
                    "type": "uint40"
                }
            ],
            "name": "grantRole",
            "outputs": [],
            "stateMutability": "nonpayable",
            "type": "function"
        },
        {
            "inputs": [
                {
                    "internalType": "bytes32",
                    "name": "role",
                    "type": "bytes32"
                },
                {
                    "internalType": "uint40",
                    "name": "acct",
                    "type": "uint40"
                }
            ],
            "name": "hasRole",
            "outputs": [
                {
                    "internalType": "bool",
                    "name": "",
                    "type": "bool"
                }
            ],
            "stateMutability": "view",
            "type": "function"
        },
        {
            "inputs": [
                {
                    "internalType": "uint40",
                    "name": "owner",
                    "type": "uint40"
                },
                {
                    "internalType": "address",
                    "name": "directKeeper",
                    "type": "address"
                },
                {
                    "internalType": "address",
                    "name": "regCenter",
                    "type": "address"
                },
                {
                    "internalType": "address",
                    "name": "generalKeeper",
                    "type": "address"
                }
            ],
            "name": "init",
            "outputs": [],
            "stateMutability": "nonpayable",
            "type": "function"
        },
        {
            "inputs": [],
            "name": "lockContents",
            "outputs": [],
            "stateMutability": "nonpayable",
            "type": "function"
        },
        {
            "inputs": [
                {
                    "internalType": "bytes32",
                    "name": "sn",
                    "type": "bytes32"
                },
                {
                    "internalType": "uint64",
                    "name": "amount",
                    "type": "uint64"
                }
            ],
            "name": "mockDealOfBuy",
            "outputs": [],
            "stateMutability": "nonpayable",
            "type": "function"
        },
        {
            "inputs": [
                {
                    "internalType": "uint32",
                    "name": "ssn",
                    "type": "uint32"
                },
                {
                    "internalType": "uint64",
                    "name": "amount",
                    "type": "uint64"
                }
            ],
            "name": "mockDealOfSell",
            "outputs": [],
            "stateMutability": "nonpayable",
            "type": "function"
        },
        {
            "inputs": [
                {
                    "internalType": "uint40",
                    "name": "acct",
                    "type": "uint40"
                }
            ],
            "name": "mockResults",
            "outputs": [
                {
                    "internalType": "uint40",
                    "name": "group",
                    "type": "uint40"
                },
                {
                    "internalType": "uint64",
                    "name": "sum",
                    "type": "uint64"
                }
            ],
            "stateMutability": "view",
            "type": "function"
        },
        {
            "inputs": [
                {
                    "internalType": "bytes32",
                    "name": "role",
                    "type": "bytes32"
                }
            ],
            "name": "renounceRole",
            "outputs": [],
            "stateMutability": "nonpayable",
            "type": "function"
        },
        {
            "inputs": [
                {
                    "internalType": "bytes32",
                    "name": "role",
                    "type": "bytes32"
                },
                {
                    "internalType": "uint40",
                    "name": "acct",
                    "type": "uint40"
                }
            ],
            "name": "revokeRole",
            "outputs": [],
            "stateMutability": "nonpayable",
            "type": "function"
        },
        {
            "inputs": [
                {
                    "internalType": "address",
                    "name": "keeper",
                    "type": "address"
                }
            ],
            "name": "setDirectKeeper",
            "outputs": [],
            "stateMutability": "nonpayable",
            "type": "function"
        },
        {
            "inputs": [
                {
                    "internalType": "uint40",
                    "name": "acct",
                    "type": "uint40"
                }
            ],
            "name": "setGeneralCounsel",
            "outputs": [],
            "stateMutability": "nonpayable",
            "type": "function"
        },
        {
            "inputs": [
                {
                    "internalType": "address",
                    "name": "ia",
                    "type": "address"
                }
            ],
            "name": "setIA",
            "outputs": [],
            "stateMutability": "nonpayable",
            "type": "function"
        },
        {
            "inputs": [
                {
                    "internalType": "uint40",
                    "name": "acct",
                    "type": "uint40"
                }
            ],
            "name": "setOwner",
            "outputs": [],
            "stateMutability": "nonpayable",
            "type": "function"
        },
        {
            "inputs": [],
            "name": "setROM",
            "outputs": [],
            "stateMutability": "nonpayable",
            "type": "function"
        },
        {
            "inputs": [
                {
                    "internalType": "bytes32",
                    "name": "role",
                    "type": "bytes32"
                },
                {
                    "internalType": "uint40",
                    "name": "acct",
                    "type": "uint40"
                }
            ],
            "name": "setRoleAdmin",
            "outputs": [],
            "stateMutability": "nonpayable",
            "type": "function"
        },
        {
            "inputs": [],
            "name": "topGroup",
            "outputs": [
                {
                    "internalType": "uint40",
                    "name": "controllor",
                    "type": "uint40"
                },
                {
                    "internalType": "uint64",
                    "name": "ratio",
                    "type": "uint64"
                }
            ],
            "stateMutability": "view",
            "type": "function"
        }
    ],
    "bytecode": "608060405234801561001057600080fd5b50613228806100206000396000f3fe608060405234801561001057600080fd5b506004361061014d5760003560e01c806379b2ec12116100c3578063b3f05b971161007c578063b3f05b97146102b0578063eb37db04146102c4578063ed211023146102d7578063f045a769146102f7578063f07b7083146102ff578063fa2b7fc21461031257600080fd5b806379b2ec12146102395780637ba706e81461025c578063821ee8ea1461026f578063893d20e8146102825780638bb9c5bf1461028a578063a57b3ff91461029d57600080fd5b80631dd014db116101155780631dd014db146101b85780633178a9a9146101c05780633da9a600146101d35780635346aa48146101e65780636be8496f14610213578063740998151461022657600080fd5b806301fe7d181461015257806307473d7b14610167578063103f6edd1461016f57806316dc517e1461019257806317c51fec146101a5575b600080fd5b610165610160366004612a00565b610325565b005b6101656105ec565b610177610738565b60405164ffffffffff90911681526020015b60405180910390f35b6101656101a0366004612a4c565b6107c4565b6101656101b3366004612a4c565b61085a565b61016561087f565b6101656101ce366004612a71565b610ae8565b6101656101e1366004612a8e565b610ce1565b6101ee610df3565b6040805164ffffffffff90931683526001600160401b03909116602083015201610189565b610165610221366004612abc565b610fa0565b610165610234366004612a4c565b611052565b61024c610247366004612a4c565b611077565b6040519015158152602001610189565b61016561026a366004612a71565b611118565b61016561027d366004612ad9565b61130a565b6101776113fa565b610165610298366004612a8e565b611435565b6101656102ab366004612b35565b61148e565b60028054600160f01b900460ff161461024c565b6101656102d2366004612b6e565b611939565b6102df611d07565b6040516001600160a01b039091168152602001610189565b610165611d8d565b6101ee61030d366004612a71565b611fab565b610165610320366004612abc565b6120da565b600061032f6121a1565b6040516352aadfd760e01b815263ffffffff851660048201526001600160a01b0391909116906352aadfd79060240160c06040518083038186803b15801561037657600080fd5b505afa15801561038a573d6000803e3d6000fd5b505050506040513d601f19601f820116820180604052508101906103ae9190612c2d565b8051604051630b7879eb60e21b8152600481019190915290915060009073__$94c94c1f27eaba30857c7d0c37f90b5581$__90632de1e7ac9060240160206040518083038186803b15801561040257600080fd5b505af4158015610416573d6000803e3d6000fd5b505050506040513d601f19601f8201168201806040525081019061043a9190612cad565b60405162960c4360e51b81526006600482015264ffffffffff821660248201526001600160401b03851660448201526001606482015290915073__$0373da85302df7c003c5cc5214782e6132$__906312c188609060840160206040518083038186803b1580156104aa57600080fd5b505af41580156104be573d6000803e3d6000fd5b505050506040513d601f19601f820116820180604052508101906104e29190612cca565b5064ffffffffff8116600090815260066020526040902054600160781b90046001600160401b03166105a057604051635730b14f60e01b81526006600482015264ffffffffff8216602482015273__$b59f66f9b4972d644e41bc4977edb0d217$__90635730b14f9060440160206040518083038186803b15801561056657600080fd5b505af415801561057a573d6000803e3d6000fd5b505050506040513d601f19601f8201168201806040525081019061059e9190612cca565b505b6040516001600160401b038416815264ffffffffff8216907fd5c855a50c9d4664d7f43c074d6a2bbc049840d703d6e6164ae1731a48aabc66906020015b60405180910390a250505050565b604051633b11adbf60e21b81526002600482015233602482015273__$364aad554dc80380f414546becdd2c1584$__9063ec46b6fc9060440160206040518083038186803b15801561063d57600080fd5b505af4158015610651573d6000803e3d6000fd5b505050506040513d601f19601f820116820180604052508101906106759190612cca565b61069a5760405162461bcd60e51b815260040161069190612cec565b60405180910390fd5b60015460405163381baea360e21b8152600760048201526001600160a01b039091169063e06eba8c9060240160206040518083038186803b1580156106de57600080fd5b505afa1580156106f2573d6000803e3d6000fd5b505050506040513d601f19601f820116820180604052508101906107169190612d32565b600580546001600160a01b0319166001600160a01b0392909216919091179055565b60405163e8c0cc1d60e01b81526002600482015260009073__$364aad554dc80380f414546becdd2c1584$__9063e8c0cc1d906024015b60206040518083038186803b15801561078757600080fd5b505af415801561079b573d6000803e3d6000fd5b505050506040513d601f19601f820116820180604052508101906107bf9190612cad565b905090565b73__$364aad554dc80380f414546becdd2c1584$__63427abff46002846107e96121fa565b6040516001600160e01b031960e086901b1681526004810193909352602483019190915264ffffffffff9081166044830152841660648201526084015b60006040518083038186803b15801561083e57600080fd5b505af4158015610852573d6000803e3d6000fd5b505050505050565b73__$364aad554dc80380f414546becdd2c1584$__638ce158456002846107e96121fa565b73__$364aad554dc80380f414546becdd2c1584$__63fe27108660026108a36121fa565b6040516001600160e01b031960e085901b168152600481019290925264ffffffffff16602482015260440160206040518083038186803b1580156108e657600080fd5b505af41580156108fa573d6000803e3d6000fd5b505050506040513d601f19601f8201168201806040525081019061091e9190612cca565b61095d5760405162461bcd60e51b815260206004820152601060248201526f20a19737bb9d103737ba1037bbb732b960811b6044820152606401610691565b600554604080516327150a5f60e21b815290516000926001600160a01b031691639c54297c9160048083019286929190829003018186803b1580156109a157600080fd5b505afa1580156109b5573d6000803e3d6000fd5b505050506040513d6000823e601f3d908101601f191682016040526109dd9190810190612d72565b6040516367a99ae160e11b8152600660048201526000602482015290915073__$b59f66f9b4972d644e41bc4977edb0d217$__9063cf5335c29060440160006040518083038186803b158015610a3257600080fd5b505af4158015610a46573d6000803e3d6000fd5b5050604051638ffd92b160e01b815273__$b59f66f9b4972d644e41bc4977edb0d217$__9250638ffd92b19150610a84906006908590600401612e86565b60006040518083038186803b158015610a9c57600080fd5b505af4158015610ab0573d6000803e3d6000fd5b50505050610abc612254565b6040517f8aa2599480d96c254f5879823bbe43a474944488334397b2cf5da7fea71ba3c890600090a150565b604051633b11adbf60e21b81526002600482015233602482015273__$364aad554dc80380f414546becdd2c1584$__9063ec46b6fc9060440160206040518083038186803b158015610b3957600080fd5b505af4158015610b4d573d6000803e3d6000fd5b505050506040513d601f19601f82011682018060405250810190610b719190612cca565b80610c16575073__$364aad554dc80380f414546becdd2c1584$__63fe2710866002610b9b6121fa565b6040516001600160e01b031960e085901b168152600481019290925264ffffffffff16602482015260440160206040518083038186803b158015610bde57600080fd5b505af4158015610bf2573d6000803e3d6000fd5b505050506040513d601f19601f82011682018060405250810190610c169190612cca565b610c325760405162461bcd60e51b815260040161069190612f24565b604051632725ebef60e21b81526002600482015264ffffffffff8216602482015273__$364aad554dc80380f414546becdd2c1584$__90639c97afbc9060440160006040518083038186803b158015610c8a57600080fd5b505af4158015610c9e573d6000803e3d6000fd5b505060405164ffffffffff841681527ff2735f34b69be1e6342dea95f9162f84d0db925fab655ca9f1f312ac8cbfc99d925060200190505b60405180910390a150565b604051633b11adbf60e21b81526002600482015233602482015273__$364aad554dc80380f414546becdd2c1584$__9063ec46b6fc9060440160206040518083038186803b158015610d3257600080fd5b505af4158015610d46573d6000803e3d6000fd5b505050506040513d601f19601f82011682018060405250810190610d6a9190612cca565b610d865760405162461bcd60e51b815260040161069190612cec565b60405163cc99e11b60e01b8152600260048201526024810182905273__$364aad554dc80380f414546becdd2c1584$__9063cc99e11b9060440160006040518083038186803b158015610dd857600080fd5b505af4158015610dec573d6000803e3d6000fd5b5050505050565b60405163488e477760e01b815260066004820152600090819073__$b59f66f9b4972d644e41bc4977edb0d217$__9063488e47779060240160206040518083038186803b158015610e4357600080fd5b505af4158015610e57573d6000803e3d6000fd5b505050506040513d601f19601f82011682018060405250810190610e7b9190612cad565b60405163396db24960e21b81526006600482015290925073__$b59f66f9b4972d644e41bc4977edb0d217$__9063e5b6c9249060240160206040518083038186803b158015610ec957600080fd5b505af4158015610edd573d6000803e3d6000fd5b505050506040513d601f19601f82011682018060405250810190610f019190612f7a565b604051639c9a670f60e01b81526006600482015273__$b59f66f9b4972d644e41bc4977edb0d217$__90639c9a670f9060240160206040518083038186803b158015610f4c57600080fd5b505af4158015610f60573d6000803e3d6000fd5b505050506040513d601f19601f82011682018060405250810190610f849190612f7a565b610f9090612710612fad565b610f9a9190612fdc565b90509091565b604051630f07232560e01b8152600260048201523360248201526001600160a01b038216604482015273__$364aad554dc80380f414546becdd2c1584$__90630f0723259060640160006040518083038186803b15801561100057600080fd5b505af4158015611014573d6000803e3d6000fd5b50506040516001600160a01b03841681527fe435cbeab64e4eae6497b9d8289704bd709d624a80704ef3ca9af777534bc6ec92506020019050610cd6565b73__$364aad554dc80380f414546becdd2c1584$__63d2a15ba76002846107e96121fa565b604051632a3be56b60e21b8152600260048201526024810183905264ffffffffff8216604482015260009073__$364aad554dc80380f414546becdd2c1584$__9063a8ef95ac9060640160206040518083038186803b1580156110d957600080fd5b505af41580156110ed573d6000803e3d6000fd5b505050506040513d601f19601f820116820180604052508101906111119190612cca565b9392505050565b604051633b11adbf60e21b81526002600482015233602482015273__$364aad554dc80380f414546becdd2c1584$__9063ec46b6fc9060440160206040518083038186803b15801561116957600080fd5b505af415801561117d573d6000803e3d6000fd5b505050506040513d601f19601f820116820180604052508101906111a19190612cca565b80611246575073__$364aad554dc80380f414546becdd2c1584$__63fe27108660026111cb6121fa565b6040516001600160e01b031960e085901b168152600481019290925264ffffffffff16602482015260440160206040518083038186803b15801561120e57600080fd5b505af4158015611222573d6000803e3d6000fd5b505050506040513d601f19601f820116820180604052508101906112469190612cca565b6112625760405162461bcd60e51b815260040161069190612f24565b60405163b6e38a2960e01b81526002600482015264ffffffffff8216602482015273__$364aad554dc80380f414546becdd2c1584$__9063b6e38a299060440160006040518083038186803b1580156112ba57600080fd5b505af41580156112ce573d6000803e3d6000fd5b505060405164ffffffffff841681527f8b6f40f36b4ae8cc5f55e895036457c43da4ab1f80f58c46f5ff0d72a650033b92506020019050610cd6565b6113138261258a565b61131c81612639565b604051636cdd0edf60e11b81526002600482015264ffffffffff851660248201526001600160a01b038416604482015273__$364aad554dc80380f414546becdd2c1584$__9063d9ba1dbe9060640160006040518083038186803b15801561138357600080fd5b505af4158015611397573d6000803e3d6000fd5b50506040805164ffffffffff881681526001600160a01b038781166020830152868116828401528516606082015290517f4d18c0021addc919105cb1ed2c11ad241e859cc1d9e77d4ee1d9ca2cdc1f255b9350908190036080019150a150505050565b60405163987ad15360e01b81526002600482015260009073__$364aad554dc80380f414546becdd2c1584$__9063987ad1539060240161076f565b600061143f6121fa565b604051637963595360e11b8152600260048201526024810184905264ffffffffff8216604482015290915073__$364aad554dc80380f414546becdd2c1584$__9063f2c6b2a690606401610826565b73__$364aad554dc80380f414546becdd2c1584$__63fe27108660026114b26121fa565b6040516001600160e01b031960e085901b168152600481019290925264ffffffffff16602482015260440160206040518083038186803b1580156114f557600080fd5b505af4158015611509573d6000803e3d6000fd5b505050506040513d601f19601f8201168201806040525081019061152d9190612cca565b61156c5760405162461bcd60e51b815260206004820152601060248201526f20a19737bb9d103737ba1037bbb732b960811b6044820152606401610691565b604051632bffcd1360e11b81526004810184905260009073__$b59f66f9b4972d644e41bc4977edb0d217$__90634f327b049060069073__$94c94c1f27eaba30857c7d0c37f90b5581$__906357ff9a269060240160206040518083038186803b1580156115d957600080fd5b505af41580156115ed573d6000803e3d6000fd5b505050506040513d601f19601f820116820180604052508101906116119190612cad565b6040516001600160e01b031960e085901b168152600481019290925264ffffffffff16602482015260440160206040518083038186803b15801561165457600080fd5b505af4158015611668573d6000803e3d6000fd5b505050506040513d601f19601f8201168201806040525081019061168c9190612cad565b604051630b7879eb60e21b81526004810185905290915060009073__$94c94c1f27eaba30857c7d0c37f90b5581$__90632de1e7ac9060240160206040518083038186803b1580156116dd57600080fd5b505af41580156116f1573d6000803e3d6000fd5b505050506040513d601f19601f820116820180604052508101906117159190612cad565b6040516313cc9ec160e21b81526006600482015264ffffffffff8216602482015290915060009073__$b59f66f9b4972d644e41bc4977edb0d217$__90634f327b049060440160206040518083038186803b15801561177357600080fd5b505af4158015611787573d6000803e3d6000fd5b505050506040513d601f19601f820116820180604052508101906117ab9190612cad565b60405163a008f1df60e01b81526004810188905290915073__$94c94c1f27eaba30857c7d0c37f90b5581$__9063a008f1df9060240160206040518083038186803b1580156117f957600080fd5b505af415801561180d573d6000803e3d6000fd5b505050506040513d601f19601f820116820180604052508101906118319190612cca565b15611841576118418382866126f0565b60405162960c4360e51b81526006600482015264ffffffffff831660248201526001600160401b03851660448201526001606482015273__$0373da85302df7c003c5cc5214782e6132$__906312c188609060840160206040518083038186803b1580156118ae57600080fd5b505af41580156118c2573d6000803e3d6000fd5b505050506040513d601f19601f820116820180604052508101906118e69190612cca565b50604080518681526001600160401b038616602082015264ffffffffff8416917fd421fdd8330c6cf010a2abac320c0b68bce096589df45f435add5e2964776cfd910160405180910390a2505050505050565b6040516309d73b9560e11b81526004810183905260009073__$94c94c1f27eaba30857c7d0c37f90b5581$__906313ae772a9060240160206040518083038186803b15801561198757600080fd5b505af415801561199b573d6000803e3d6000fd5b505050506040513d601f19601f820116820180604052508101906119bf9190612cad565b604051630c5333b960e11b81526006600482015264ffffffffff8216602482015290915073__$b59f66f9b4972d644e41bc4977edb0d217$__906318a667729060440160206040518083038186803b158015611a1a57600080fd5b505af4158015611a2e573d6000803e3d6000fd5b505050506040513d601f19601f82011682018060405250810190611a529190612cca565b611ae8576040516307fd405960e11b81526006600482015264ffffffffff8216602482015273__$b59f66f9b4972d644e41bc4977edb0d217$__90630ffa80b29060440160206040518083038186803b158015611aae57600080fd5b505af4158015611ac2573d6000803e3d6000fd5b505050506040513d601f19601f82011682018060405250810190611ae69190612cca565b505b60405162960c4360e51b81526006600482015264ffffffffff821660248201526001600160401b03831660448201526000606482015273__$0373da85302df7c003c5cc5214782e6132$__906312c188609060840160206040518083038186803b158015611b5557600080fd5b505af4158015611b69573d6000803e3d6000fd5b505050506040513d601f19601f82011682018060405250810190611b8d9190612cca565b50604051635284404d60e11b81526004810184905260009073__$94c94c1f27eaba30857c7d0c37f90b5581$__9063a508809a9060240160206040518083038186803b158015611bdc57600080fd5b505af4158015611bf0573d6000803e3d6000fd5b505050506040513d601f19601f82011682018060405250810190611c149190612cad565b90508164ffffffffff168164ffffffffff1614611cc55760405163a4a6eb0b60e01b81526006600482015264ffffffffff80841660248301528216604482015273__$b59f66f9b4972d644e41bc4977edb0d217$__9063a4a6eb0b9060640160206040518083038186803b158015611c8b57600080fd5b505af4158015611c9f573d6000803e3d6000fd5b505050506040513d601f19601f82011682018060405250810190611cc39190612cca565b505b6040516001600160401b038416815264ffffffffff8316907f0a8ddab1ab613dc9d3972f9f8cc2a893af636b27cc05120760c16bffe729ad0e906020016105de565b604051633c3e56c160e11b81526002600482015260009073__$364aad554dc80380f414546becdd2c1584$__9063787cad829060240160206040518083038186803b158015611d5557600080fd5b505af4158015611d69573d6000803e3d6000fd5b505050506040513d601f19601f820116820180604052508101906107bf9190612d32565b604051633b11adbf60e21b81526002600482015233602482015273__$364aad554dc80380f414546becdd2c1584$__9063ec46b6fc9060440160206040518083038186803b158015611dde57600080fd5b505af4158015611df2573d6000803e3d6000fd5b505050506040513d601f19601f82011682018060405250810190611e169190612cca565b611e325760405162461bcd60e51b815260040161069190612cec565b600254600160f01b900460ff16600114611e8e5760405162461bcd60e51b815260206004820181905260248201527f41432e6f6e6c7950656e64696e673a20446f632069732066696e616c697a65646044820152606401610691565b60405163cc99e11b60e01b815260026004820152684174746f726e65797360b81b602482015273__$364aad554dc80380f414546becdd2c1584$__9063cc99e11b9060440160006040518083038186803b158015611eeb57600080fd5b505af4158015611eff573d6000803e3d6000fd5b5050604051632725ebef60e21b8152600260048201526000602482015273__$364aad554dc80380f414546becdd2c1584$__9250639c97afbc915060440160006040518083038186803b158015611f5557600080fd5b505af4158015611f69573d6000803e3d6000fd5b50506002805460ff60f01b1916600160f11b17905550506040517f35012b512309c322acf68632cd6cb702ff0e1d776fbe9394e38ffc13b434fe7590600090a1565b6040516313cc9ec160e21b81526006600482015264ffffffffff82166024820152600090819073__$b59f66f9b4972d644e41bc4977edb0d217$__90634f327b049060440160206040518083038186803b15801561200857600080fd5b505af415801561201c573d6000803e3d6000fd5b505050506040513d601f19601f820116820180604052508101906120409190612cad565b604051634c694de960e01b81526006600482015264ffffffffff8516602482015290925073__$b59f66f9b4972d644e41bc4977edb0d217$__90634c694de99060440160206040518083038186803b15801561209b57600080fd5b505af41580156120af573d6000803e3d6000fd5b505050506040513d601f19601f820116820180604052508101906120d39190612f7a565b9050915091565b604051633b11adbf60e21b81526002600482015233602482015273__$364aad554dc80380f414546becdd2c1584$__9063ec46b6fc9060440160206040518083038186803b15801561212b57600080fd5b505af415801561213f573d6000803e3d6000fd5b505050506040513d601f19601f820116820180604052508101906121639190612cca565b61217f5760405162461bcd60e51b815260040161069190612cec565b600480546001600160a01b0319166001600160a01b0392909216919091179055565b60015460405163381baea360e21b8152600660048201526000916001600160a01b03169063e06eba8c9060240160206040518083038186803b1580156121e657600080fd5b505afa158015611d69573d6000803e3d6000fd5b60008054604051634de835e760e11b81523360048201526001600160a01b0390911690639bd06bce90602401602060405180830381600087803b15801561224057600080fd5b505af115801561079b573d6000803e3d6000fd5b6000600460009054906101000a90046001600160a01b03166001600160a01b031663f729d5b36040518163ffffffff1660e01b815260040160006040518083038186803b1580156122a457600080fd5b505afa1580156122b8573d6000803e3d6000fd5b505050506040513d6000823e601f3d908101601f191682016040526122e09190810190613010565b80519091505b8015612586576000826122fa6001846130a0565b8151811061230a5761230a6130b7565b60209081029190910101516004805460405163177bece160e21b815291820183905291925060009182916001600160a01b039091169063b7cd72939073__$94c94c1f27eaba30857c7d0c37f90b5581$__90635defb3849060240160206040518083038186803b15801561237d57600080fd5b505af4158015612391573d6000803e3d6000fd5b505050506040513d601f19601f820116820180604052508101906123b591906130cd565b6040516001600160e01b031960e084901b16815261ffff909116600482015260240160c06040518083038186803b1580156123ef57600080fd5b505afa158015612403573d6000803e3d6000fd5b505050506040513d601f19601f8201168201806040525081019061242791906130f1565b9050600560009054906101000a90046001600160a01b03166001600160a01b031663e4df91006040518163ffffffff1660e01b815260040160206040518083038186803b15801561247757600080fd5b505afa15801561248b573d6000803e3d6000fd5b505050506040513d601f19601f820116820180604052508101906124af9190612cca565b156124c057806040015191506124c8565b806020015191505b604051632805fd7360e21b81526004810184905260009073__$94c94c1f27eaba30857c7d0c37f90b5581$__9063a017f5cc9060240160206040518083038186803b15801561251657600080fd5b505af415801561252a573d6000803e3d6000fd5b505050506040513d601f19601f8201168201806040525081019061254e919061316b565b905063ffffffff811615612566576125668184610325565b6125708484611939565b8461257a81613188565b955050505050506122e6565b5050565b6000546001600160a01b0316156125db5760405162461bcd60e51b815260206004820152601560248201527430b63932b0b23c9039b2ba103932b3a1b2b73a32b960591b6044820152606401610691565b6040516001600160a01b03821681527f318da6c7624c71cbc0afe346c9d8827f119d0ecefb241a7b0c87217a076a8e029060200160405180910390a1600080546001600160a01b0319166001600160a01b0392909216919091179055565b6001546001600160a01b0316156126925760405162461bcd60e51b815260206004820152601960248201527f616c7265616479207365742067656e6572616c4b6565706572000000000000006044820152606401610691565b6040516001600160a01b03821681527fe513d3e0f0d0a3877029dcc588748679a7a3450ec1ec7ed56d96bd012c3e61aa9060200160405180910390a1600180546001600160a01b0319166001600160a01b0392909216919091179055565b600554604051631f0d88fd60e11b815264ffffffffff851660048201526000916001600160a01b031690633e1b11fa9060240160206040518083038186803b15801561273b57600080fd5b505afa15801561274f573d6000803e3d6000fd5b505050506040513d601f19601f820116820180604052508101906127739190612f7a565b604051634c694de960e01b81526006600482015264ffffffffff8616602482015290915060009073__$b59f66f9b4972d644e41bc4977edb0d217$__90634c694de99060440160206040518083038186803b1580156127d157600080fd5b505af41580156127e5573d6000803e3d6000fd5b505050506040513d601f19601f820116820180604052508101906128099190612f7a565b600554604051631f0d88fd60e11b815264ffffffffff871660048201529192506000916001600160a01b0390911690633e1b11fa9060240160206040518083038186803b15801561285957600080fd5b505afa15801561286d573d6000803e3d6000fd5b505050506040513d601f19601f820116820180604052508101906128919190612f7a565b604051634c694de960e01b81526006600482015264ffffffffff8716602482015290915060009073__$b59f66f9b4972d644e41bc4977edb0d217$__90634c694de99060440160206040518083038186803b1580156128ef57600080fd5b505af4158015612903573d6000803e3d6000fd5b505050506040513d601f19601f820116820180604052508101906129279190612f7a565b9050818486612936848461319f565b61294091906131c7565b61294a9190612fad565b6129549190612fdc565b6001600160401b0316612967848661319f565b6001600160401b031610156129cd5760405162461bcd60e51b815260206004820152602660248201527f4d522e616464416c6f6e674465616c3a2073656c6c20616d6f756e74206f76656044820152657220666c6f7760d01b6064820152608401610691565b50505050505050565b63ffffffff811681146129e857600080fd5b50565b6001600160401b03811681146129e857600080fd5b60008060408385031215612a1357600080fd5b8235612a1e816129d6565b91506020830135612a2e816129eb565b809150509250929050565b64ffffffffff811681146129e857600080fd5b60008060408385031215612a5f57600080fd5b823591506020830135612a2e81612a39565b600060208284031215612a8357600080fd5b813561111181612a39565b600060208284031215612aa057600080fd5b5035919050565b6001600160a01b03811681146129e857600080fd5b600060208284031215612ace57600080fd5b813561111181612aa7565b60008060008060808587031215612aef57600080fd5b8435612afa81612a39565b93506020850135612b0a81612aa7565b92506040850135612b1a81612aa7565b91506060850135612b2a81612aa7565b939692955090935050565b600080600060608486031215612b4a57600080fd5b83359250602084013591506040840135612b63816129eb565b809150509250925092565b60008060408385031215612b8157600080fd5b823591506020830135612a2e816129eb565b634e487b7160e01b600052604160045260246000fd5b60405160c081016001600160401b0381118282101715612bcb57612bcb612b93565b60405290565b604051601f8201601f191681016001600160401b0381118282101715612bf957612bf9612b93565b604052919050565b805165ffffffffffff81168114612c1757600080fd5b919050565b805160ff81168114612c1757600080fd5b600060c08284031215612c3f57600080fd5b612c47612ba9565b825181526020830151612c59816129eb565b60208201526040830151612c6c816129eb565b60408201526060830151612c7f816129eb565b6060820152612c9060808401612c01565b6080820152612ca160a08401612c1c565b60a08201529392505050565b600060208284031215612cbf57600080fd5b815161111181612a39565b600060208284031215612cdc57600080fd5b8151801515811461111157600080fd5b60208082526026908201527f41432e6f6e6c794469726563744b65657065723a206e6f74206469726563742060408201526535b2b2b832b960d11b606082015260800190565b600060208284031215612d4457600080fd5b815161111181612aa7565b60006001600160401b03821115612d6857612d68612b93565b5060051b60200190565b60006020808385031215612d8557600080fd5b82516001600160401b03811115612d9b57600080fd5b8301601f81018513612dac57600080fd5b8051612dbf612dba82612d4f565b612bd1565b81815260c09182028301840191848201919088841115612dde57600080fd5b938501935b83851015612e7a5780858a031215612dfb5760008081fd5b612e03612ba9565b8551612e0e81612a39565b815285870151612e1d81612a39565b81880152604086810151612e3081612a39565b90820152606086810151612e43816129eb565b90820152608086810151612e56816129eb565b9082015260a0612e67878201612c1c565b9082015283529384019391850191612de3565b50979650505050505050565b600060408083018584526020828186015281865180845260609350838701915082880160005b82811015612f15578151805164ffffffffff908116865286820151811687870152888201511688860152868101516001600160401b03908116888701526080808301519091169086015260a09081015160ff169085015260c09093019290840190600101612eac565b50919998505050505050505050565b60208082526036908201527f41432e6f776e65724f72446972656374426f6f6b65657065723a206e6569746860408201527532b91037bbb732b9103737b9103137b7b5b2b2b832b960511b606082015260800190565b600060208284031215612f8c57600080fd5b8151611111816129eb565b634e487b7160e01b600052601160045260246000fd5b60006001600160401b0380831681851681830481118215151615612fd357612fd3612f97565b02949350505050565b60006001600160401b038084168061300457634e487b7160e01b600052601260045260246000fd5b92169190910492915050565b6000602080838503121561302357600080fd5b82516001600160401b0381111561303957600080fd5b8301601f8101851361304a57600080fd5b8051613058612dba82612d4f565b81815260059190911b8201830190838101908783111561307757600080fd5b928401925b828410156130955783518252928401929084019061307c565b979650505050505050565b6000828210156130b2576130b2612f97565b500390565b634e487b7160e01b600052603260045260246000fd5b6000602082840312156130df57600080fd5b815161ffff8116811461111157600080fd5b600060c0828403121561310357600080fd5b61310b612ba9565b82518152602083015161311d816129eb565b60208201526040830151613130816129eb565b604082015261314160608401612c01565b606082015261315260808401612c1c565b608082015260a083015160a08201528091505092915050565b60006020828403121561317d57600080fd5b8151611111816129d6565b60008161319757613197612f97565b506000190190565b60006001600160401b03838116908316818110156131bf576131bf612f97565b039392505050565b60006001600160401b038083168185168083038211156131e9576131e9612f97565b0194935050505056fea264697066735822122026e990dac4781d6cb22a04e7273121fa1d7682fc4255e060d8fdbc3120892ff264736f6c63430008080033",
    "sourcePath": "/Users/kaptain/github.com/hardhat/comboox/contracts/books/boa/MockResults.sol",
    "compiler": {
        "name": "solc",
        "version": "0.8.8+commit.dddeac2f"
    },
    "functionHashes": {
        "abandonRole(bytes32)": "3da9a600",
        "addAlongDeal(bytes32,bytes32,uint64)": "a57b3ff9",
        "createMockGM()": "1dd014db",
        "finalized()": "b3f05b97",
        "getBookeeper()": "ed211023",
        "getGeneralCounsel()": "103f6edd",
        "getOwner()": "893d20e8",
        "grantRole(bytes32,uint40)": "74099815",
        "hasRole(bytes32,uint40)": "79b2ec12",
        "init(uint40,address,address,address)": "821ee8ea",
        "lockContents()": "f045a769",
        "mockDealOfBuy(bytes32,uint64)": "eb37db04",
        "mockDealOfSell(uint32,uint64)": "01fe7d18",
        "mockResults(uint40)": "f07b7083",
        "renounceRole(bytes32)": "8bb9c5bf",
        "revokeRole(bytes32,uint40)": "17c51fec",
        "setDirectKeeper(address)": "6be8496f",
        "setGeneralCounsel(uint40)": "3178a9a9",
        "setIA(address)": "fa2b7fc2",
        "setOwner(uint40)": "7ba706e8",
        "setROM()": "07473d7b",
        "setRoleAdmin(bytes32,uint40)": "16dc517e",
        "topGroup()": "5346aa48"
    },
    "gasEstimates": {
        "creation": {
            "codeDepositCost": "2568000",
            "executionCost": "2778",
            "totalCost": "2570778"
        },
        "external": {
            "abandonRole(bytes32)": "infinite",
            "addAlongDeal(bytes32,bytes32,uint64)": "infinite",
            "createMockGM()": "infinite",
            "finalized()": "2349",
            "getBookeeper()": "infinite",
            "getGeneralCounsel()": "infinite",
            "getOwner()": "infinite",
            "grantRole(bytes32,uint40)": "infinite",
            "hasRole(bytes32,uint40)": "infinite",
            "init(uint40,address,address,address)": "infinite",
            "lockContents()": "infinite",
            "mockDealOfBuy(bytes32,uint64)": "infinite",
            "mockDealOfSell(uint32,uint64)": "infinite",
            "mockResults(uint40)": "infinite",
            "renounceRole(bytes32)": "infinite",
            "revokeRole(bytes32,uint40)": "infinite",
            "setDirectKeeper(address)": "infinite",
            "setGeneralCounsel(uint40)": "infinite",
            "setIA(address)": "infinite",
            "setOwner(uint40)": "infinite",
            "setROM()": "infinite",
            "setRoleAdmin(bytes32,uint40)": "infinite",
            "topGroup()": "infinite"
        },
        "internal": {
            "_mockDealsOfIA()": "infinite",
            "_proRataCheck(uint40,uint40,uint64)": "infinite"
        }
    }
}