{
    "contractName": "MotionsRepo",
    "abi": [
        {
            "inputs": [
                {
                    "components": [
                        {
                            "internalType": "uint16",
                            "name": "typeOfMotion",
                            "type": "uint16"
                        },
                        {
                            "internalType": "uint64",
                            "name": "seqOfMotion",
                            "type": "uint64"
                        },
                        {
                            "internalType": "uint16",
                            "name": "seqOfVR",
                            "type": "uint16"
                        },
                        {
                            "internalType": "uint40",
                            "name": "creator",
                            "type": "uint40"
                        },
                        {
                            "internalType": "uint40",
                            "name": "executor",
                            "type": "uint40"
                        },
                        {
                            "internalType": "uint48",
                            "name": "createDate",
                            "type": "uint48"
                        },
                        {
                            "internalType": "uint32",
                            "name": "data",
                            "type": "uint32"
                        }
                    ],
                    "internalType": "struct MotionsRepo.Head",
                    "name": "head",
                    "type": "tuple"
                }
            ],
            "name": "codifyHead",
            "outputs": [
                {
                    "internalType": "uint256",
                    "name": "sn",
                    "type": "uint256"
                }
            ],
            "stateMutability": "pure",
            "type": "function"
        },
        {
            "inputs": [
                {
                    "internalType": "uint256",
                    "name": "sn",
                    "type": "uint256"
                }
            ],
            "name": "snParser",
            "outputs": [
                {
                    "components": [
                        {
                            "internalType": "uint16",
                            "name": "typeOfMotion",
                            "type": "uint16"
                        },
                        {
                            "internalType": "uint64",
                            "name": "seqOfMotion",
                            "type": "uint64"
                        },
                        {
                            "internalType": "uint16",
                            "name": "seqOfVR",
                            "type": "uint16"
                        },
                        {
                            "internalType": "uint40",
                            "name": "creator",
                            "type": "uint40"
                        },
                        {
                            "internalType": "uint40",
                            "name": "executor",
                            "type": "uint40"
                        },
                        {
                            "internalType": "uint48",
                            "name": "createDate",
                            "type": "uint48"
                        },
                        {
                            "internalType": "uint32",
                            "name": "data",
                            "type": "uint32"
                        }
                    ],
                    "internalType": "struct MotionsRepo.Head",
                    "name": "head",
                    "type": "tuple"
                }
            ],
            "stateMutability": "pure",
            "type": "function"
        }
    ],
    "bytecode": "61315161003a600b82828239805160001a60731461002d57634e487b7160e01b600052600060045260246000fd5b30600052607381538281f3fe73000000000000000000000000000000000000000030146080604052600436106101365760003560e01c8063a64ee9bd116100b7578063e346601c1161007b578063e346601c1461038f578063ea99737c146103a2578063f138788e146103b5578063f147aaca146103d6578063fe3aba27146103e957600080fd5b8063a64ee9bd14610309578063b34299c914610336578063befe8fe014610349578063bfdb52441461035c578063cc526e6b1461037c57600080fd5b806344aeddf2116100fe57806344aeddf2146101f457806350a11799146102145780635eeb98eb1461023457806377990786146102c45780637d359cfe146102f657600080fd5b80630363eeeb1461013b57806307621e53146101645780631541559a1461018f5780633ac594d6146101b157806341335f35146101d4575b600080fd5b61014e610149366004612407565b610416565b60405161015b919061252d565b60405180910390f35b610177610172366004612676565b6108e0565b6040516001600160401b03909116815260200161015b565b81801561019b57600080fd5b506101af6101aa3660046126bf565b61099b565b005b6101c46101bf366004612407565b610acb565b604051901515815260200161015b565b6101e76101e23660046126f1565b610afa565b60405161015b919061271d565b6102076102023660046126f1565b610bbe565b60405161015b9190612792565b81801561022057600080fd5b506101c461022f36600461282c565b610cde565b6102476102423660046126f1565b610e0d565b60405161015b9190600060e08201905064ffffffffff835116825260ff602084015116602083015263ffffffff604084015116604083015260608301516001600160401b03808216606085015265ffffffffffff60808601511660808501528060a08601511660a0850152505060c083015160c083015292915050565b8180156102d057600080fd5b506102e46102df366004612910565b610ee2565b60405160ff909116815260200161015b565b6101c4610304366004612407565b6111a2565b81801561031557600080fd5b50610329610324366004612ace565b6111ab565b60405161015b9190612b06565b6101c46103443660046126f1565b611483565b6101c46103573660046126bf565b61151e565b81801561036857600080fd5b506101c4610377366004612b14565b6115c9565b6101c461038a366004612407565b6119a7565b6101c461039d366004612407565b6119e7565b6103296103b0366004612b65565b611a24565b6103c86103c3366004612b7e565b611aab565b60405190815260200161015b565b6103c86103e43660046126f1565b611b51565b8180156103f557600080fd5b50610409610404366004612c45565b611bec565b60405161015b9190612db6565b61041e612205565b826000016000838152602001908152602001600020604051806080016040529081600082016040518060e00160405290816000820160009054906101000a900461ffff1661ffff1661ffff1681526020016000820160029054906101000a90046001600160401b03166001600160401b03166001600160401b0316815260200160008201600a9054906101000a900461ffff1661ffff1661ffff16815260200160008201600c9054906101000a900464ffffffffff1664ffffffffff1664ffffffffff1681526020016000820160119054906101000a900464ffffffffff1664ffffffffff1664ffffffffff1681526020016000820160169054906101000a900465ffffffffffff1665ffffffffffff1665ffffffffffff16815260200160008201601c9054906101000a900463ffffffff1663ffffffff1663ffffffff16815250508152602001600182016040518060e00160405290816000820160009054906101000a900464ffffffffff1664ffffffffff1664ffffffffff1681526020016000820160059054906101000a900465ffffffffffff1665ffffffffffff1665ffffffffffff16815260200160008201600b9054906101000a900465ffffffffffff1665ffffffffffff1665ffffffffffff1681526020016000820160119054906101000a900465ffffffffffff1665ffffffffffff1665ffffffffffff1681526020016000820160179054906101000a900465ffffffffffff1665ffffffffffff1665ffffffffffff16815260200160008201601d9054906101000a900461ffff1661ffff1661ffff16815260200160008201601f9054906101000a900460ff1660ff1660ff1681525050815260200160028201604051806102000160405290816000820160009054906101000a900461ffff1661ffff1661ffff1681526020016000820160029054906101000a900460ff1660ff1660ff1681526020016000820160039054906101000a900460ff1660ff1660ff1681526020016000820160049054906101000a900461ffff1661ffff1661ffff1681526020016000820160069054906101000a900461ffff1661ffff1661ffff1681526020016000820160089054906101000a900461ffff1661ffff1661ffff16815260200160008201600a9054906101000a900460ff1615151515815260200160008201600b9054906101000a900460ff1615151515815260200160008201600c9054906101000a900460ff1615151515815260200160008201600d9054906101000a900460ff1615151515815260200160008201600e9054906101000a900460ff1660ff1660ff16815260200160008201600f9054906101000a900460ff1660ff1660ff1681526020016000820160109054906101000a900460ff1660ff1660ff1681526020016000820160119054906101000a900460ff1660ff1660ff1681526020016000820160129054906101000a900460ff1660ff1660ff168152602001600182016002806020026040519081016040528092919082600280156108c1576020028201916000905b82829054906101000a900464ffffffffff1664ffffffffff16815260200190600501906020826004010492830192600103820291508084116108825790505b5050505050815250508152602001600482015481525050905092915050565b60008481526001860160205260408082209051631d6006dd60e21b8152600481019190915260248101859052604481018490526001600160a01b038316606482015273__$68438f465b222e285b1fb0cc5c3aa7ceb4$__906375801b749060840160206040518083038186803b15801561095957600080fd5b505af415801561096d573d6000803e3d6000fd5b505050506040513d601f19601f820116820180604052508101906109919190612dcf565b9695505050505050565b6000838152602085905260409020600481015483146109f95760405162461bcd60e51b81526020600482015260156024820152744d522e45523a2077726f6e6720636f6e74656e747360581b60448201526064015b60405180910390fd5b600181015460ff600160f81b90910416600314610a585760405162461bcd60e51b815260206004820152601860248201527f4d522e45523a206d6f74696f6e206e6f7420706173736564000000000000000060448201526064016109f0565b805464ffffffffff838116600160881b9092041614610aaf5760405162461bcd60e51b815260206004820152601360248201527226a91722a91d103737ba1032bc32b1baba37b960691b60448201526064016109f0565b60010180546001600160f81b0316600760f81b17905550505050565b600060035b600083815260208590526040902060010154600160f81b900460ff90811691161490505b92915050565b60408051606080820183526000808352602083015291810191909152600083815260018581016020526040918290209151632f859c2960e01b8152910160048201526024810183905273__$96a5e346267d6c5729e55e51038d941f73$__90632f859c299060440160006040518083038186803b158015610b7a57600080fd5b505af4158015610b8e573d6000803e3d6000fd5b505050506040513d6000823e601f3d908101601f19168201604052610bb69190810190612dec565b949350505050565b6040805160a08101825260008082526020820181905291810182905260608082019290925260808101919091526000838152600180860160209081526040808420868552825292839020835160a081018552815464ffffffffff811682526001600160401b03650100000000008204811683860152600160681b8204168287015263ffffffff600160a81b9091041660608201529281018054855181850281018501909652808652939491936080860193830182828015610ccc57602002820191906000526020600020906000905b82829054906101000a900464ffffffffff1664ffffffffff1681526020019060050190602082600401049283019260010382029150808411610c8d5790505b50505050508152505090509392505050565b6000848152602086905260408120600180820154600160f81b900460ff161480610d175750600181015460ff600160f81b909104166002145b610d585760405162461bcd60e51b81526020600482015260126024820152714d522e45443a2077726f6e6720737461746560701b60448201526064016109f0565b6000868152600188016020526040908190209051637960cf5b60e01b8152600481019190915260248101859052604481018690526064810184905273__$68438f465b222e285b1fb0cc5c3aa7ceb4$__90637960cf5b9060840160206040518083038186803b158015610dca57600080fd5b505af4158015610dde573d6000803e3d6000fd5b505050506040513d601f19601f82011682018060405250810190610e029190612ee4565b979650505050505050565b6040805160e081018252600080825260208201819052918101829052606081018290526080810182905260a0810182905260c08101919091526000838152600185810160205260409182902091516309cec88160e11b8152910160048201526024810183905273__$96a5e346267d6c5729e55e51038d941f73$__9063139d91029060440160e06040518083038186803b158015610eaa57600080fd5b505af4158015610ebe573d6000803e3d6000fd5b505050506040513d601f19601f82011682018060405250810190610bb69190612f0c565b60008281526020848152604080832060018701909252822060026001830154600160f81b900460ff908116911614610f515760405162461bcd60e51b81526020600482015260126024820152714d522e56543a2077726f6e6720737461746560701b60448201526064016109f0565b610f5b86866119e7565b610fa75760405162461bcd60e51b815260206004820152601960248201527f4d522e56543a20766f7465206e6f7420656e646564207965740000000000000060448201526064016109f0565b600080610fdd8360038601835b600691828204019190066005029054906101000a900464ffffffffff1664ffffffffff1661213f565b158015610ff65750610ff483600386016001610fb4565b155b1561113b5760028401546601000000000000900461ffff16611019576001611090565b85516001600160401b031661102f576000611090565b60028401548651604080890151600160008181529088016020529190912054660100000000000090930461ffff169261106e919063ffffffff16612fd5565b61107a90612710613000565b611084919061302f565b6001600160401b031610155b6002850154909250600160401b900461ffff166110ae576001611138565b600086602001516001600160401b0316116110ca576000611138565b6002840154602087810151606089015160016000818152908801909352604090922054600160401b90930461ffff169290916111169164010000000090046001600160401b0316612fd5565b61112290612710613000565b61112c919061302f565b6001600160401b031610155b90505b8180156111455750805b61116a576002840154600160681b900460ff1661116357600561116d565b600661116d565b60035b60019490940180546001600160f81b0316600160f81b60ff968716810291909117918290559004909316979650505050505050565b60006002610ad0565b6111b361226e565b825161ffff166112055760405162461bcd60e51b815260206004820152601860248201527f4d522e434d3a207a65726f20747970654f664d6f74696f6e000000000000000060448201526064016109f0565b6000836040015161ffff16116112535760405162461bcd60e51b815260206004820152601360248201527226a91721a69d103d32b9379039b2b8a7b32b2960691b60448201526064016109f0565b6000836060015164ffffffffff16116112a35760405162461bcd60e51b815260206004820152601260248201527126a91721a69d103d32b9379031b0b63632b960711b60448201526064016109f0565b6112ac8461219a565b6001600160401b0316602084015265ffffffffffff421660a084015260006112d384611aab565b6040516392f13c3f60e01b81526002870160048201526024810182905290915073__$8c1a4844a0a0988ea2454cf87145a95df1$__906392f13c3f9060440160206040518083038186803b15801561132a57600080fd5b505af415801561133e573d6000803e3d6000fd5b505050506040513d601f19601f820116820180604052508101906113629190612ee4565b505050602082810180516001600160401b03908116600090815295909252604094859020845181549251968601516060870151608088015160a089015160c08a015163ffffffff16600160e01b026001600160e01b0365ffffffffffff909216600160b01b0265ffffffffffff60b01b1964ffffffffff948516600160881b02166affffffffffffffffffffff60881b1994909516600160601b0264ffffffffff60601b1961ffff978816600160501b021666ffffffffffffff60501b199e909b16620100000269ffffffffffffffffffff19909a169690971695909517979097179a909a169690961792909217949094161792909217949094169390931783556004830155600190910180546001600160f81b0316600160f81b17905590565b6000828152600184810160205260408083209051636d4a140560e11b8152910160048201526024810183905273__$96a5e346267d6c5729e55e51038d941f73$__9063da94280a9060440160206040518083038186803b1580156114e657600080fd5b505af41580156114fa573d6000803e3d6000fd5b505050506040513d601f19601f82011682018060405250810190610bb69190612ee4565b6000838152600185810160205260408083209051633279a5fd60e21b815291016004820152602481018490526044810183905273__$96a5e346267d6c5729e55e51038d941f73$__9063c9e697f49060640160206040518083038186803b15801561158857600080fd5b505af415801561159c573d6000803e3d6000fd5b505050506040513d601f19601f820116820180604052508101906115c09190612ee4565b95945050505050565b600080861161161a5760405162461bcd60e51b815260206004820152601760248201527f4d522e43563a207a65726f207365714f664d6f74696f6e00000000000000000060448201526064016109f0565b6000851161165d5760405162461bcd60e51b815260206004820152601060248201526f13548b90d58e881e995c9bc81858d8dd60821b60448201526064016109f0565b60008681526020888152604080832060018b0183528184208985529283905292206116888a8a6119a7565b801561169b57506116998a8a6119e7565b155b80156116ad5750805464ffffffffff16155b1561199a578054600160a81b900463ffffffff16158015906116de57508054600160681b90046001600160401b0316155b156117c2576001830154604051631d6006dd60e21b815260048101849052602481018a9052600160581b90910465ffffffffffff1660448201526001600160a01b038616606482015273__$68438f465b222e285b1fb0cc5c3aa7ceb4$__906375801b749060840160206040518083038186803b15801561175e57600080fd5b505af4158015611772573d6000803e3d6000fd5b505050506040513d601f19601f820116820180604052508101906117969190612dcf565b81546001600160401b0391909116600160681b0267ffffffffffffffff60681b1990911617815561189b565b6001830154604051632bf82aab60e01b8152600481018a9052600160581b90910465ffffffffffff1660248201526001600160a01b03861690632bf82aab9060440160206040518083038186803b15801561181c57600080fd5b505afa158015611830573d6000803e3d6000fd5b505050506040513d601f19601f820116820180604052508101906118549190612dcf565b81548290600d90611876908490600160681b90046001600160401b0316612fd5565b92506101000a8154816001600160401b0302191690836001600160401b031602179055505b8054600160a81b900463ffffffff168160156118b683613063565b82546101009290920a63ffffffff81810219909316918316021790915582546040516311622f3b60e21b8152600186016004820152602481018c9052604481018b9052600160a81b82049092166064830152600160681b90046001600160401b0316608482015260a4810188905273__$96a5e346267d6c5729e55e51038d941f73$__9150634588bcec9060c40160206040518083038186803b15801561195c57600080fd5b505af4158015611970573d6000803e3d6000fd5b505050506040513d601f19601f820116820180604052508101906119949190612ee4565b50600193505b5050509695505050505050565b60006119b383836111a2565b80156119e0575060008281526020849052604090206001015442600160881b90910465ffffffffffff1611155b9392505050565b60006119f383836111a2565b80156119e05750506000908152602091909152604090206001015442600160b81b90910465ffffffffffff16111590565b611a2c61226e565b6040518060e0016040528060f084901c61ffff16815260200160b084901c6001600160401b0316815260200160a084901c61ffff168152602001607884901c64ffffffffff168152602001605084901c64ffffffffff168152602001602084901c65ffffffffffff1681526020018363ffffffff168152509050919050565b60008160c0015163ffffffff1660208360a0015165ffffffffffff16901b6050846080015164ffffffffff16901b6078856060015164ffffffffff16901b60a0866040015161ffff16901b60b087602001516001600160401b0316901b60f0886000015161ffff16901b611b1f9190613087565b611b299190613087565b611b339190613087565b611b3d9190613087565b611b479190613087565b610af49190613087565b6000828152600184016020526040808220905163154a26c760e31b815260048101919091526024810183905273__$68438f465b222e285b1fb0cc5c3aa7ceb4$__9063aa5136389060440160206040518083038186803b158015611bb457600080fd5b505af4158015611bc8573d6000803e3d6000fd5b505050506040513d601f19601f82011682018060405250810190610bb6919061309f565b6040805160e081018252600080825260208201819052918101829052606081018290526080810182905260a0810182905260c081019190915260008211611c6a5760405162461bcd60e51b815260206004820152601260248201527126a91728269d103d32b9379031b0b63632b960711b60448201526064016109f0565b600084815260208690526040902083518154600160501b900461ffff908116911614611ccf5760405162461bcd60e51b815260206004820152601460248201527326a91728269d103bb937b7339039b2b8a7b32b2960611b60448201526064016109f0565b600181810154600160f81b900460ff1614611d215760405162461bcd60e51b81526020600482015260126024820152714d522e504d3a2077726f6e6720737461746560701b60448201526064016109f0565b60004290506040518060e001604052808564ffffffffff1681526020018265ffffffffffff16815260200186610180015160ff1662015180611d6391906130b8565b611d6d90846130dd565b65ffffffffffff16815260200186610180015160ff1662015180611d9191906130b8565b611d9b90846130dd565b65ffffffffffff168152602001866101a0015160ff1687610180015160ff16611dc491906130dd565b611dd190620151806130b8565b611ddb90846130dd565b65ffffffffffff16815260006020820152604001600260ff168152509250828260010160008201518160000160006101000a81548164ffffffffff021916908364ffffffffff16021790555060208201518160000160056101000a81548165ffffffffffff021916908365ffffffffffff160217905550604082015181600001600b6101000a81548165ffffffffffff021916908365ffffffffffff16021790555060608201518160000160116101000a81548165ffffffffffff021916908365ffffffffffff16021790555060808201518160000160176101000a81548165ffffffffffff021916908365ffffffffffff16021790555060a082015181600001601d6101000a81548161ffff021916908361ffff16021790555060c082015181600001601f6101000a81548160ff021916908360ff160217905550905050848260020160008201518160000160006101000a81548161ffff021916908361ffff16021790555060208201518160000160026101000a81548160ff021916908360ff16021790555060408201518160000160036101000a81548160ff021916908360ff16021790555060608201518160000160046101000a81548161ffff021916908361ffff16021790555060808201518160000160066101000a81548161ffff021916908361ffff16021790555060a08201518160000160086101000a81548161ffff021916908361ffff16021790555060c082015181600001600a6101000a81548160ff02191690831515021790555060e082015181600001600b6101000a81548160ff02191690831515021790555061010082015181600001600c6101000a81548160ff02191690831515021790555061012082015181600001600d6101000a81548160ff02191690831515021790555061014082015181600001600e6101000a81548160ff021916908360ff16021790555061016082015181600001600f6101000a81548160ff021916908360ff1602179055506101808201518160000160106101000a81548160ff021916908360ff1602179055506101a08201518160000160116101000a81548160ff021916908360ff1602179055506101c08201518160000160126101000a81548160ff021916908360ff1602179055506101e0820151816001019060026121319291906122aa565b509050505050949350505050565b600080821180156119e057506000828152600284016020526040902054600160901b900465ffffffffffff1615806119e05750506000908152600291909101602052604090205460ff65010000000000909104166001141590565b600080805260208290526040812080546201000090046001600160401b03169060026121c5836130fe565b82546101009290920a6001600160401b03818102199093169183160217909155600080805260209490945260409093205462010000900490921692915050565b604051806080016040528061221861226e565b81526040805160e08101825260008082526020828101829052928201819052606082018190526080820181905260a0820181905260c08201529101908152602001612261612349565b8152602001600081525090565b6040805160e081018252600080825260208201819052918101829052606081018290526080810182905260a0810182905260c081019190915290565b6001830191839082156123395791602002820160005b8382111561230657835183826101000a81548164ffffffffff021916908364ffffffffff16021790555092602001926005016020816004010492830192600103026122c0565b80156123375782816101000a81549064ffffffffff0219169055600501602081600401049283019260010302612306565b505b506123459291506123d4565b5090565b6040805161020081018252600080825260208201819052918101829052606081018290526080810182905260a0810182905260c0810182905260e08101829052610100810182905261012081018290526101408101829052610160810182905261018081018290526101a081018290526101c08101919091526101e081016123cf6123e9565b905290565b5b8082111561234557600081556001016123d5565b60405180604001604052806002906020820280368337509192915050565b6000806040838503121561241a57600080fd5b50508035926020909101359150565b61ffff8082511683526001600160401b03602083015116602084015280604083015116604084015250606081015164ffffffffff8082166060850152806080840151166080850152505065ffffffffffff60a08201511660a083015263ffffffff60c08201511660c08301525050565b64ffffffffff8151168252602081015165ffffffffffff8082166020850152806040840151166040850152806060840151166060850152806080840151166080850152505061ffff60a08201511660a083015260ff60c08201511660c08301525050565b8060005b600281101561252757815164ffffffffff16845260209384019390910190600101612501565b50505050565b600061040082019050612541828451612429565b602083015161255360e0840182612499565b5060408301516101c061256c818501835161ffff169052565b60208201516101e06125828187018360ff169052565b604084015160ff908116610200880152606085015161ffff9081166102208901526080860151811661024089015260a08601511661026088015260c0850151151561028088015260e085015115156102a088015261010085015115156102c088015261012085015115156102e08801526101408501518116610300880152610160850151811661032088015261018085015181166103408801526101a08501518116610360880152928401519092166103808601525001516126486103a08401826124fd565b5060608301516103e083015292915050565b80356001600160a01b038116811461267157600080fd5b919050565b600080600080600060a0868803121561268e57600080fd5b853594506020860135935060408601359250606086013591506126b36080870161265a565b90509295509295909350565b600080600080608085870312156126d557600080fd5b5050823594602084013594506040840135936060013592509050565b60008060006060848603121561270657600080fd5b505081359360208301359350604090920135919050565b600060208083526080830163ffffffff855116828501526001600160401b0382860151166040850152604085015160608086015281815180845260a0870191508483019350600092505b808310156127875783518252928401926001929092019190840190612767565b509695505050505050565b6000602080835260c0830164ffffffffff8086511683860152828601516001600160401b038082166040880152806040890151166060880152505063ffffffff6060870151166080860152608086015160a08087015282815180855260e0880191508583019450600092505b80831015612820578451841682529385019360019290920191908501906127fe565b50979650505050505050565b600080600080600060a0868803121561284457600080fd5b505083359560208501359550604085013594606081013594506080013592509050565b634e487b7160e01b600052604160045260246000fd5b60405161020081016001600160401b03811182821017156128a0576128a0612867565b60405290565b604051606081016001600160401b03811182821017156128a0576128a0612867565b604051601f8201601f191681016001600160401b03811182821017156128f0576128f0612867565b604052919050565b6001600160401b038116811461290d57600080fd5b50565b600080600083850360c081121561292657600080fd5b84359350602085013592506080603f198201121561294357600080fd5b50604051608081018181106001600160401b038211171561296657612966612867565b6040908152850135612977816128f8565b81526060850135612987816128f8565b6020820152608085013561299a816128f8565b604082015260a08501356129ad816128f8565b606082015292959194509192509050565b803561ffff8116811461267157600080fd5b64ffffffffff8116811461290d57600080fd5b65ffffffffffff8116811461290d57600080fd5b63ffffffff8116811461290d57600080fd5b8035612671816129f7565b600060e08284031215612a2657600080fd5b60405160e081018181106001600160401b0382111715612a4857612a48612867565b604052905080612a57836129be565b81526020830135612a67816128f8565b6020820152612a78604084016129be565b60408201526060830135612a8b816129d0565b60608201526080830135612a9e816129d0565b608082015260a0830135612ab1816129e3565b60a0820152612ac260c08401612a09565b60c08201525092915050565b60008060006101208486031215612ae457600080fd5b83359250612af58560208601612a14565b915061010084013590509250925092565b60e08101610af48284612429565b60008060008060008060c08789031215612b2d57600080fd5b8635955060208701359450604087013593506060870135925060808701359150612b5960a0880161265a565b90509295509295509295565b600060208284031215612b7757600080fd5b5035919050565b600060e08284031215612b9057600080fd5b6119e08383612a14565b60ff8116811461290d57600080fd5b803561267181612b9a565b801515811461290d57600080fd5b803561267181612bb4565b600082601f830112612bde57600080fd5b604051604081018181106001600160401b0382111715612c0057612c00612867565b8060405250806040840185811115612c1757600080fd5b845b81811015612c3a578035612c2c816129d0565b835260209283019201612c19565b509195945050505050565b600080600080848603610280811215612c5d57600080fd5b853594506020860135935061022080603f1983011215612c7c57600080fd5b612c8461287d565b9150612c92604088016129be565b8252612ca060608801612ba9565b6020830152612cb160808801612ba9565b6040830152612cc260a088016129be565b6060830152612cd360c088016129be565b6080830152612ce460e088016129be565b60a0830152610100612cf7818901612bc2565b60c0840152610120612d0a818a01612bc2565b60e0850152610140612d1d818b01612bc2565b838601526101609250612d31838b01612bc2565b828601526101809150612d45828b01612ba9565b908501526101a0612d578a8201612ba9565b838601526101c09250612d6b838b01612ba9565b828601526101e09150612d7f828b01612ba9565b90850152612d906102008a01612ba9565b82850152612da08a848b01612bcd565b9084015250949793965094610260013593505050565b60e08101610af48284612499565b8051612671816128f8565b600060208284031215612de157600080fd5b81516119e0816128f8565b60006020808385031215612dff57600080fd5b82516001600160401b0380821115612e1657600080fd5b9084019060608287031215612e2a57600080fd5b612e326128a6565b8251612e3d816129f7565b815282840151612e4c816128f8565b81850152604083015182811115612e6257600080fd5b80840193505086601f840112612e7757600080fd5b825182811115612e8957612e89612867565b8060051b9250612e9a8584016128c8565b8181529284018501928581019089851115612eb457600080fd5b948601945b84861015612ed257855182529486019490860190612eb9565b60408401525090979650505050505050565b600060208284031215612ef657600080fd5b81516119e081612bb4565b8051612671816129e3565b600060e08284031215612f1e57600080fd5b60405160e081018181106001600160401b0382111715612f4057612f40612867565b6040528251612f4e816129d0565b81526020830151612f5e81612b9a565b60208201526040830151612f71816129f7565b60408201526060830151612f84816128f8565b6060820152612f9560808401612f01565b6080820152612fa660a08401612dc4565b60a082015260c083015160c08201528091505092915050565b634e487b7160e01b600052601160045260246000fd5b60006001600160401b03808316818516808303821115612ff757612ff7612fbf565b01949350505050565b60006001600160401b038083168185168183048111821515161561302657613026612fbf565b02949350505050565b60006001600160401b038084168061305757634e487b7160e01b600052601260045260246000fd5b92169190910492915050565b600063ffffffff8083168181141561307d5761307d612fbf565b6001019392505050565b6000821982111561309a5761309a612fbf565b500190565b6000602082840312156130b157600080fd5b5051919050565b600065ffffffffffff8083168185168183048111821515161561302657613026612fbf565b600065ffffffffffff808316818516808303821115612ff757612ff7612fbf565b60006001600160401b038083168181141561307d5761307d612fbf56fea26469706673582212201342613a6934055b79d870de8a7f31ba685b3924eec9c7fcc879511455c4a2ba64736f6c63430008080033",
    "sourcePath": "/Users/kaptain/github.com/hardhat/comboox/contracts/common/lib/MotionsRepo.sol",
    "compiler": {
        "name": "solc",
        "version": "0.8.8+commit.dddeac2f"
    },
    "functionHashes": {
        "castVote(MotionsRepo.Repo storage,uint256,uint256,uint256,bytes32,IRegisterOfMembers)": "bfdb5244",
        "codifyHead(MotionsRepo.Head)": "f138788e",
        "createMotion(MotionsRepo.Repo storage,MotionsRepo.Head,uint256)": "a64ee9bd",
        "entrustDelegate(MotionsRepo.Repo storage,uint256,uint256,uint256,uint256)": "50a11799",
        "execResolution(MotionsRepo.Repo storage,uint256,uint256,uint256)": "1541559a",
        "getBallot(MotionsRepo.Repo storage,uint256,uint256)": "5eeb98eb",
        "getCaseOfAttitude(MotionsRepo.Repo storage,uint256,uint256)": "41335f35",
        "getDelegateOf(MotionsRepo.Repo storage,uint256,uint256)": "f147aaca",
        "getLeavesWeightAtDate(MotionsRepo.Repo storage,uint256,uint256,uint256,IRegisterOfMembers)": "07621e53",
        "getMotion(MotionsRepo.Repo storage,uint256)": "0363eeeb",
        "getVoterOfDelegateMap(MotionsRepo.Repo storage,uint256,uint256)": "44aeddf2",
        "isPassed(MotionsRepo.Repo storage,uint256)": "3ac594d6",
        "isProposed(MotionsRepo.Repo storage,uint256)": "7d359cfe",
        "isVoted(MotionsRepo.Repo storage,uint256,uint256)": "b34299c9",
        "isVotedFor(MotionsRepo.Repo storage,uint256,uint256,uint256)": "befe8fe0",
        "proposeMotion(MotionsRepo.Repo storage,uint256,RulesParser.VotingRule,uint256)": "fe3aba27",
        "snParser(uint256)": "ea99737c",
        "voteCounting(MotionsRepo.Repo storage,uint256,MotionsRepo.VoteCalBase)": "77990786",
        "voteEnded(MotionsRepo.Repo storage,uint256)": "e346601c",
        "voteStarted(MotionsRepo.Repo storage,uint256)": "cc526e6b"
    },
    "gasEstimates": {
        "creation": {
            "codeDepositCost": "2525000",
            "executionCost": "2756",
            "totalCost": "2527756"
        },
        "external": {
            "castVote(MotionsRepo.Repo storage,uint256,uint256,uint256,bytes32,IRegisterOfMembers)": "infinite",
            "codifyHead(MotionsRepo.Head)": "infinite",
            "createMotion(MotionsRepo.Repo storage,MotionsRepo.Head,uint256)": "infinite",
            "entrustDelegate(MotionsRepo.Repo storage,uint256,uint256,uint256,uint256)": "infinite",
            "execResolution(MotionsRepo.Repo storage,uint256,uint256,uint256)": "31119",
            "getBallot(MotionsRepo.Repo storage,uint256,uint256)": "infinite",
            "getCaseOfAttitude(MotionsRepo.Repo storage,uint256,uint256)": "infinite",
            "getDelegateOf(MotionsRepo.Repo storage,uint256,uint256)": "infinite",
            "getLeavesWeightAtDate(MotionsRepo.Repo storage,uint256,uint256,uint256,IRegisterOfMembers)": "infinite",
            "getMotion(MotionsRepo.Repo storage,uint256)": "infinite",
            "getVoterOfDelegateMap(MotionsRepo.Repo storage,uint256,uint256)": "infinite",
            "isPassed(MotionsRepo.Repo storage,uint256)": "2620",
            "isProposed(MotionsRepo.Repo storage,uint256)": "2652",
            "isVoted(MotionsRepo.Repo storage,uint256,uint256)": "infinite",
            "isVotedFor(MotionsRepo.Repo storage,uint256,uint256,uint256)": "infinite",
            "proposeMotion(MotionsRepo.Repo storage,uint256,RulesParser.VotingRule,uint256)": "infinite",
            "snParser(uint256)": "1068",
            "voteCounting(MotionsRepo.Repo storage,uint256,MotionsRepo.VoteCalBase)": "infinite",
            "voteEnded(MotionsRepo.Repo storage,uint256)": "4837",
            "voteStarted(MotionsRepo.Repo storage,uint256)": "4931"
        },
        "internal": {
            "_increaseCounterOfMotion(struct MotionsRepo.Repo storage pointer)": "28867",
            "_isVetoed(struct MotionsRepo.Record storage pointer,uint256)": "4482"
        }
    }
}