{
    "contractName": "MotionsRepo",
    "abi": [
        {
            "inputs": [
                {
                    "components": [
                        {
                            "internalType": "uint16",
                            "name": "typeOfMotion",
                            "type": "uint16"
                        },
                        {
                            "internalType": "uint64",
                            "name": "seqOfMotion",
                            "type": "uint64"
                        },
                        {
                            "internalType": "uint16",
                            "name": "seqOfVR",
                            "type": "uint16"
                        },
                        {
                            "internalType": "uint40",
                            "name": "creator",
                            "type": "uint40"
                        },
                        {
                            "internalType": "uint40",
                            "name": "executor",
                            "type": "uint40"
                        },
                        {
                            "internalType": "uint48",
                            "name": "createDate",
                            "type": "uint48"
                        },
                        {
                            "internalType": "uint32",
                            "name": "data",
                            "type": "uint32"
                        }
                    ],
                    "internalType": "struct MotionsRepo.Head",
                    "name": "head",
                    "type": "tuple"
                }
            ],
            "name": "codifyHead",
            "outputs": [
                {
                    "internalType": "uint256",
                    "name": "sn",
                    "type": "uint256"
                }
            ],
            "stateMutability": "pure",
            "type": "function"
        },
        {
            "inputs": [
                {
                    "internalType": "uint256",
                    "name": "sn",
                    "type": "uint256"
                }
            ],
            "name": "snParser",
            "outputs": [
                {
                    "components": [
                        {
                            "internalType": "uint16",
                            "name": "typeOfMotion",
                            "type": "uint16"
                        },
                        {
                            "internalType": "uint64",
                            "name": "seqOfMotion",
                            "type": "uint64"
                        },
                        {
                            "internalType": "uint16",
                            "name": "seqOfVR",
                            "type": "uint16"
                        },
                        {
                            "internalType": "uint40",
                            "name": "creator",
                            "type": "uint40"
                        },
                        {
                            "internalType": "uint40",
                            "name": "executor",
                            "type": "uint40"
                        },
                        {
                            "internalType": "uint48",
                            "name": "createDate",
                            "type": "uint48"
                        },
                        {
                            "internalType": "uint32",
                            "name": "data",
                            "type": "uint32"
                        }
                    ],
                    "internalType": "struct MotionsRepo.Head",
                    "name": "head",
                    "type": "tuple"
                }
            ],
            "stateMutability": "pure",
            "type": "function"
        }
    ],
    "bytecode": "612f1661003a600b82828239805160001a60731461002d57634e487b7160e01b600052600060045260246000fd5b30600052607381538281f3fe73000000000000000000000000000000000000000030146080604052600436106101365760003560e01c80637d359cfe116100b7578063e346601c1161007b578063e346601c146104ce578063e605a9ee146104e1578063ea99737c14610503578063f138788e14610516578063f5cde0661461053757600080fd5b80637d359cfe14610418578063a64ee9bd1461042b578063b34299c914610458578063cc526e6b1461049b578063cdeadaa8146104ae57600080fd5b8063453d7193116100fe578063453d7193146101f05780634a0297cb146102105780635eeb98eb1461023b57806377990786146103a15780637d09b4ad146103d357600080fd5b80630363eeeb1461013b5780631617543e1461016457806322b59fb7146101945780633ac594d6146101bd57806344aeddf2146101d0575b600080fd5b61014e61014936600461231e565b610564565b60405161015b9190612444565b60405180910390f35b81801561017057600080fd5b5061018461017f366004612594565b610a1d565b604051901515815260200161015b565b6101a76101a23660046125f3565b610b60565b60405164ffffffffff909116815260200161015b565b6101846101cb36600461231e565b610c09565b6101e36101de36600461262c565b610c38565b60405161015b9190612658565b6102036101fe366004612703565b610d56565b60405161015b9190612738565b61022361021e3660046127da565b610e17565b6040516001600160401b03909116815260200161015b565b61032461024936600461262c565b6040805160e081018252600080825260208201819052918101829052606081018290526080810182905260a0810182905260c0810191909152506000828152600180850160209081526040808420858552600201825292839020835160e081018552815464ffffffffff8116825260ff600160281b8204169382019390935263ffffffff600160301b840416948101949094526001600160401b03600160501b83048116606086015265ffffffffffff600160901b8404166080860152600160c01b90920490911660a0840152015460c08201529392505050565b60405161015b9190600060e08201905064ffffffffff835116825260ff602084015116602083015263ffffffff604084015116604083015260608301516001600160401b03808216606085015265ffffffffffff60808601511660808501528060a08601511660a0850152505060c083015160c083015292915050565b8180156103ad57600080fd5b506103c16103bc366004612894565b610edf565b60405160ff909116815260200161015b565b6101846103e1366004612942565b60008381526001850160209081526040808320858452600201909152902054600160281b900460ff90811690821614949350505050565b61018461042636600461231e565b611199565b81801561043757600080fd5b5061044b610446366004612a37565b6111a2565b60405161015b9190612a6f565b61018461046636600461262c565b600091825260019290920160209081526040808320938352600290930190522054600160901b900465ffffffffffff16151590565b6101846104a936600461231e565b61147a565b8180156104ba57600080fd5b506101846104c9366004612a7d565b6114ba565b6101846104dc36600461231e565b61189a565b8180156104ed57600080fd5b506105016104fc366004612ad5565b6118d7565b005b61044b610511366004612b16565b611a02565b610529610524366004612b2f565b611a89565b60405190815260200161015b565b81801561054357600080fd5b50610557610552366004612bdc565b611b2f565b60405161015b9190612d38565b61056c612124565b826000016000838152602001908152602001600020604051806080016040529081600082016040518060e00160405290816000820160009054906101000a900461ffff1661ffff1661ffff1681526020016000820160029054906101000a90046001600160401b03166001600160401b03166001600160401b0316815260200160008201600a9054906101000a900461ffff1661ffff1661ffff16815260200160008201600c9054906101000a900464ffffffffff1664ffffffffff1664ffffffffff1681526020016000820160119054906101000a900464ffffffffff1664ffffffffff1664ffffffffff1681526020016000820160169054906101000a900465ffffffffffff1665ffffffffffff1665ffffffffffff16815260200160008201601c9054906101000a900463ffffffff1663ffffffff1663ffffffff16815250508152602001600182016040518060e00160405290816000820160009054906101000a900464ffffffffff1664ffffffffff1664ffffffffff1681526020016000820160059054906101000a900465ffffffffffff1665ffffffffffff1665ffffffffffff16815260200160008201600b9054906101000a900465ffffffffffff1665ffffffffffff1665ffffffffffff1681526020016000820160119054906101000a900465ffffffffffff1665ffffffffffff1665ffffffffffff1681526020016000820160179054906101000a900465ffffffffffff1665ffffffffffff1665ffffffffffff16815260200160008201601d9054906101000a900461ffff1661ffff1661ffff16815260200160008201601f9054906101000a900460ff1660ff1660ff1681525050815260200160028201604051806101e00160405290816000820160009054906101000a900461ffff1661ffff1661ffff1681526020016000820160029054906101000a900460ff1660ff1660ff1681526020016000820160039054906101000a900460ff1660ff1660ff1681526020016000820160049054906101000a900461ffff1661ffff1661ffff1681526020016000820160069054906101000a900461ffff1661ffff1661ffff1681526020016000820160089054906101000a900461ffff1661ffff1661ffff16815260200160008201600a9054906101000a900460ff1615151515815260200160008201600b9054906101000a900460ff1615151515815260200160008201600c9054906101000a900460ff1615151515815260200160008201600d9054906101000a900460ff1615151515815260200160008201600e9054906101000a900461ffff1661ffff1661ffff1681526020016000820160109054906101000a900461ffff1661ffff1661ffff1681526020016000820160129054906101000a900461ffff1661ffff1661ffff1681526020016000820160149054906101000a900461ffff1661ffff1661ffff168152602001600182016002806020026040519081016040528092919082600280156109fe576020028201916000905b82829054906101000a900464ffffffffff1664ffffffffff16815260200190600501906020826004010492830192600103820291508084116109bf5790505b5050505050815250508152602001600482015481525050905092915050565b6000848152602086905260408120600180820154600160f81b900460ff161480610a565750600181015460ff600160f81b909104166002145b610a9c5760405162461bcd60e51b81526020600482015260126024820152714d522e45443a2077726f6e6720737461746560701b60448201526064015b60405180910390fd5b6000868152600188016020526040908190209051630c59d5ef60e41b8152600481019190915264ffffffffff8086166024830152861660448201526001600160401b038416606482015273__$68438f465b222e285b1fb0cc5c3aa7ceb4$__9063c59d5ef09060840160206040518083038186803b158015610b1d57600080fd5b505af4158015610b31573d6000803e3d6000fd5b505050506040513d601f19601f82011682018060405250810190610b559190612d46565b979650505050505050565b600082815260018401602052604080822090516301cd7e5560e21b8152600481019190915264ffffffffff8316602482015273__$68438f465b222e285b1fb0cc5c3aa7ceb4$__90630735f9549060440160206040518083038186803b158015610bc957600080fd5b505af4158015610bdd573d6000803e3d6000fd5b505050506040513d601f19601f82011682018060405250810190610c019190612d63565b949350505050565b600060035b600083815260208590526040902060010154600160f81b900460ff90811691161490505b92915050565b6040805160a08101825260008082526020820181905291810182905260608082019290925260808101919091526000838152600180860160209081526040808420868552825292839020835160a081018552815464ffffffffff811682526001600160401b03600160281b8204811683860152600160681b8204168287015263ffffffff600160a81b9091041660608201529281018054855181850281018501909652808652939491936080860193830182828015610d4457602002820191906000526020600020906000905b82829054906101000a900464ffffffffff1664ffffffffff1681526020019060050190602082600401049283019260010382029150808411610d055790505b50505050508152505090509392505050565b60408051606080820183526000808352602083015291810191909152600083815260018581016020908152604080842060ff8716855283018252928390208351606081018552815463ffffffff8116825264010000000090046001600160401b031681840152928101805485518185028101850187528181529495929492860193830182828015610d4457602002820191906000526020600020905b815481526020019060010190808311610df25750505050508152505090509392505050565b600084815260018601602052604080822090516358aeb8bf60e01b8152600481019190915264ffffffffff8516602482015265ffffffffffff841660448201526001600160a01b038316606482015273__$68438f465b222e285b1fb0cc5c3aa7ceb4$__906358aeb8bf9060840160206040518083038186803b158015610e9d57600080fd5b505af4158015610eb1573d6000803e3d6000fd5b505050506040513d601f19601f82011682018060405250810190610ed59190612d80565b9695505050505050565b60008281526020848152604080832060018701909252822060026001830154600160f81b900460ff908116911614610f4e5760405162461bcd60e51b81526020600482015260126024820152714d522e56543a2077726f6e6720737461746560701b6044820152606401610a93565b610f58868661189a565b610fa45760405162461bcd60e51b815260206004820152601960248201527f4d522e56543a20766f7465206e6f7420656e64656420796574000000000000006044820152606401610a93565b600080610fda8360038601835b600691828204019190066005029054906101000a900464ffffffffff1664ffffffffff16612060565b158015610ff35750610ff183600386016001610fb1565b155b15611132576002840154600160301b900461ffff16611013576001611087565b85516001600160401b0316611029576000611087565b60028401548651604080890151600160008181529088016020529190912054600160301b90930461ffff1692611065919063ffffffff16612db3565b61107190612710612dde565b61107b9190612e0d565b6001600160401b031610155b6002850154909250600160401b900461ffff166110a557600161112f565b600086602001516001600160401b0316116110c157600061112f565b6002840154602087810151606089015160016000818152908801909352604090922054600160401b90930461ffff1692909161110d9164010000000090046001600160401b0316612db3565b61111990612710612dde565b6111239190612e0d565b6001600160401b031610155b90505b81801561113c5750805b611161576002840154600160681b900460ff1661115a576005611164565b6006611164565b60035b60019490940180546001600160f81b0316600160f81b60ff968716810291909117918290559004909316979650505050505050565b60006002610c0e565b6111aa61218d565b825161ffff166111fc5760405162461bcd60e51b815260206004820152601860248201527f4d522e434d3a207a65726f20747970654f664d6f74696f6e00000000000000006044820152606401610a93565b6000836040015161ffff161161124a5760405162461bcd60e51b815260206004820152601360248201527226a91721a69d103d32b9379039b2b8a7b32b2960691b6044820152606401610a93565b6000836060015164ffffffffff161161129a5760405162461bcd60e51b815260206004820152601260248201527126a91721a69d103d32b9379031b0b63632b960711b6044820152606401610a93565b6112a3846120b9565b6001600160401b0316602084015265ffffffffffff421660a084015260006112ca84611a89565b6040516392f13c3f60e01b81526002870160048201526024810182905290915073__$8c1a4844a0a0988ea2454cf87145a95df1$__906392f13c3f9060440160206040518083038186803b15801561132157600080fd5b505af4158015611335573d6000803e3d6000fd5b505050506040513d601f19601f820116820180604052508101906113599190612d46565b505050602082810180516001600160401b03908116600090815295909252604094859020845181549251968601516060870151608088015160a089015160c08a015163ffffffff16600160e01b026001600160e01b0365ffffffffffff909216600160b01b0265ffffffffffff60b01b1964ffffffffff948516600160881b02166affffffffffffffffffffff60881b1994909516600160601b0264ffffffffff60601b1961ffff978816600160501b021666ffffffffffffff60501b199e909b16620100000269ffffffffffffffffffff19909a169690971695909517979097179a909a169690961792909217949094161792909217949094169390931783556004830155600190910180546001600160f81b0316600160f81b17905590565b60006114868383611199565b80156114b3575060008281526020849052604090206001015442600160881b90910465ffffffffffff1611155b9392505050565b600080861161150b5760405162461bcd60e51b815260206004820152601760248201527f4d522e43563a207a65726f207365714f664d6f74696f6e0000000000000000006044820152606401610a93565b6000851161154e5760405162461bcd60e51b815260206004820152601060248201526f13548b90d58e881e995c9bc81858d8dd60821b6044820152606401610a93565b60008681526020888152604080832060018b0183528184208985529283905292206115798a8a61147a565b801561158c575061158a8a8a61189a565b155b801561159e5750805464ffffffffff16155b1561188d578054600160a81b900463ffffffff16158015906115cf57508054600160681b90046001600160401b0316155b156116b35760018301546040516358aeb8bf60e01b815260048101849052602481018a9052600160581b90910465ffffffffffff1660448201526001600160a01b038616606482015273__$68438f465b222e285b1fb0cc5c3aa7ceb4$__906358aeb8bf9060840160206040518083038186803b15801561164f57600080fd5b505af4158015611663573d6000803e3d6000fd5b505050506040513d601f19601f820116820180604052508101906116879190612d80565b81546001600160401b0391909116600160681b0267ffffffffffffffff60681b1990911617815561178c565b6001830154604051634bc8315f60e01b8152600481018a9052600160581b90910465ffffffffffff1660248201526001600160a01b03861690634bc8315f9060440160206040518083038186803b15801561170d57600080fd5b505afa158015611721573d6000803e3d6000fd5b505050506040513d601f19601f820116820180604052508101906117459190612d80565b81548290600d90611767908490600160681b90046001600160401b0316612db3565b92506101000a8154816001600160401b0302191690836001600160401b031602179055505b8054600160a81b900463ffffffff168160156117a783612e41565b82546101009290920a63ffffffff818102199093169183160217909155825460405163372d438160e21b8152600186016004820152602481018c905260ff8b166044820152600160a81b82049092166064830152600160681b90046001600160401b0316608482015260a4810188905273__$96a5e346267d6c5729e55e51038d941f73$__915063dcb50e049060c40160206040518083038186803b15801561184f57600080fd5b505af4158015611863573d6000803e3d6000fd5b505050506040513d601f19601f820116820180604052508101906118879190612d46565b50600193505b5050509695505050505050565b60006118a68383611199565b80156114b35750506000908152602091909152604090206001015442600160b81b90910465ffffffffffff16111590565b6000838152602085905260409020600481015483146119305760405162461bcd60e51b81526020600482015260156024820152744d522e45523a2077726f6e6720636f6e74656e747360581b6044820152606401610a93565b600181015460ff600160f81b9091041660031461198f5760405162461bcd60e51b815260206004820152601860248201527f4d522e45523a206d6f74696f6e206e6f742070617373656400000000000000006044820152606401610a93565b805464ffffffffff838116600160881b90920416146119e65760405162461bcd60e51b815260206004820152601360248201527226a91722a91d103737ba1032bc32b1baba37b960691b6044820152606401610a93565b60010180546001600160f81b0316600760f81b17905550505050565b611a0a61218d565b6040518060e0016040528060f084901c61ffff16815260200160b084901c6001600160401b0316815260200160a084901c61ffff168152602001607884901c64ffffffffff168152602001605084901c64ffffffffff168152602001602084901c65ffffffffffff1681526020018363ffffffff168152509050919050565b60008160c0015163ffffffff1660208360a0015165ffffffffffff16901b6050846080015164ffffffffff16901b6078856060015164ffffffffff16901b60a0866040015161ffff16901b60b087602001516001600160401b0316901b60f0886000015161ffff16901b611afd9190612e65565b611b079190612e65565b611b119190612e65565b611b1b9190612e65565b611b259190612e65565b610c329190612e65565b6040805160e081018252600080825260208201819052918101829052606081018290526080810182905260a0810182905260c081019190915260008264ffffffffff1611611bb45760405162461bcd60e51b815260206004820152601260248201527126a91728269d103d32b9379031b0b63632b960711b6044820152606401610a93565b600084815260208690526040902083518154600160501b900461ffff908116911614611c195760405162461bcd60e51b815260206004820152601460248201527326a91728269d103bb937b7339039b2b8a7b32b2960611b6044820152606401610a93565b600181810154600160f81b900460ff1614611c6b5760405162461bcd60e51b81526020600482015260126024820152714d522e504d3a2077726f6e6720737461746560701b6044820152606401610a93565b60004290506040518060e001604052808564ffffffffff1681526020018265ffffffffffff16815260200186610140015161ffff1662015180611cae9190612e7d565b611cb89084612ea2565b65ffffffffffff16815260200186610160015161ffff1662015180611cdd9190612e7d565b611ce79084612ea2565b65ffffffffffff16815260200186610180015161ffff1662015180611d0c9190612e7d565b611d169084612ea2565b65ffffffffffff16815260006020820152604001600260ff168152509250828260010160008201518160000160006101000a81548164ffffffffff021916908364ffffffffff16021790555060208201518160000160056101000a81548165ffffffffffff021916908365ffffffffffff160217905550604082015181600001600b6101000a81548165ffffffffffff021916908365ffffffffffff16021790555060608201518160000160116101000a81548165ffffffffffff021916908365ffffffffffff16021790555060808201518160000160176101000a81548165ffffffffffff021916908365ffffffffffff16021790555060a082015181600001601d6101000a81548161ffff021916908361ffff16021790555060c082015181600001601f6101000a81548160ff021916908360ff160217905550905050848260020160008201518160000160006101000a81548161ffff021916908361ffff16021790555060208201518160000160026101000a81548160ff021916908360ff16021790555060408201518160000160036101000a81548160ff021916908360ff16021790555060608201518160000160046101000a81548161ffff021916908361ffff16021790555060808201518160000160066101000a81548161ffff021916908361ffff16021790555060a08201518160000160086101000a81548161ffff021916908361ffff16021790555060c082015181600001600a6101000a81548160ff02191690831515021790555060e082015181600001600b6101000a81548160ff02191690831515021790555061010082015181600001600c6101000a81548160ff02191690831515021790555061012082015181600001600d6101000a81548160ff02191690831515021790555061014082015181600001600e6101000a81548161ffff021916908361ffff1602179055506101608201518160000160106101000a81548161ffff021916908361ffff1602179055506101808201518160000160126101000a81548161ffff021916908361ffff1602179055506101a08201518160000160146101000a81548161ffff021916908361ffff1602179055506101c0820151816001019060026120529291906121c9565b509050505050949350505050565b600080821180156114b357506000828152600284016020526040902054600160901b900465ffffffffffff1615806114b35750506000908152600291909101602052604090205460ff600160281b909104166001141590565b600080805260208290526040812080546201000090046001600160401b03169060026120e483612ec3565b82546101009290920a6001600160401b03818102199093169183160217909155600080805260209490945260409093205462010000900490921692915050565b604051806080016040528061213761218d565b81526040805160e08101825260008082526020828101829052928201819052606082018190526080820181905260a0820181905260c08201529101908152602001612180612268565b8152602001600081525090565b6040805160e081018252600080825260208201819052918101829052606081018290526080810182905260a0810182905260c081019190915290565b6001830191839082156122585791602002820160005b8382111561222557835183826101000a81548164ffffffffff021916908364ffffffffff16021790555092602001926005016020816004010492830192600103026121df565b80156122565782816101000a81549064ffffffffff0219169055600501602081600401049283019260010302612225565b505b506122649291506122eb565b5090565b604080516101e081018252600080825260208201819052918101829052606081018290526080810182905260a0810182905260c0810182905260e08101829052610100810182905261012081018290526101408101829052610160810182905261018081018290526101a08101919091526101c081016122e6612300565b905290565b5b8082111561226457600081556001016122ec565b60405180604001604052806002906020820280368337509192915050565b6000806040838503121561233157600080fd5b50508035926020909101359150565b61ffff8082511683526001600160401b03602083015116602084015280604083015116604084015250606081015164ffffffffff8082166060850152806080840151166080850152505065ffffffffffff60a08201511660a083015263ffffffff60c08201511660c08301525050565b64ffffffffff8151168252602081015165ffffffffffff8082166020850152806040840151166040850152806060840151166060850152806080840151166080850152505061ffff60a08201511660a083015260ff60c08201511660c08301525050565b8060005b600281101561243e57815164ffffffffff16845260209384019390910190600101612418565b50505050565b60006103e082019050612458828451612340565b602083015161246a60e08401826123b0565b5060408301516101c0612483818501835161ffff169052565b602082015160ff9081166101e0860152604083015116610200850152606082015161ffff9081166102208601526080830151811661024086015260a0830151811661026086015260c0830151151561028086015260e083015115156102a086015261010083015115156102c086015261012083015115156102e08601526101408301518116610300860152610160830151811661032086015261018083015181166103408601526101a0830151166103608501520151612547610380840182612414565b5060608301516103c083015292915050565b64ffffffffff8116811461256c57600080fd5b50565b803561257a81612559565b919050565b6001600160401b038116811461256c57600080fd5b600080600080600060a086880312156125ac57600080fd5b853594506020860135935060408601356125c581612559565b925060608601356125d581612559565b915060808601356125e58161257f565b809150509295509295909350565b60008060006060848603121561260857600080fd5b8335925060208401359150604084013561262181612559565b809150509250925092565b60008060006060848603121561264157600080fd5b505081359360208301359350604090920135919050565b6000602080835260c0830164ffffffffff8086511683860152828601516001600160401b038082166040880152806040890151166060880152505063ffffffff6060870151166080860152608086015160a08087015282815180855260e0880191508583019450600092505b808310156126e6578451841682529385019360019290920191908501906126c4565b50979650505050505050565b803560ff8116811461257a57600080fd5b60008060006060848603121561271857600080fd5b833592506020840135915061272f604085016126f2565b90509250925092565b600060208083526080830163ffffffff855116828501526001600160401b0382860151166040850152604085015160608086015281815180845260a0870191508483019350600092505b808310156127a25783518252928401926001929092019190840190612782565b509695505050505050565b803565ffffffffffff8116811461257a57600080fd5b80356001600160a01b038116811461257a57600080fd5b600080600080600060a086880312156127f257600080fd5b8535945060208601359350604086013561280b81612559565b9250612819606087016127ad565b9150612827608087016127c3565b90509295509295909350565b634e487b7160e01b600052604160045260246000fd5b60405160e081016001600160401b038111828210171561286b5761286b612833565b60405290565b6040516101e081016001600160401b038111828210171561286b5761286b612833565b600080600083850360c08112156128aa57600080fd5b84359350602085013592506080603f19820112156128c757600080fd5b50604051608081018181106001600160401b03821117156128ea576128ea612833565b60409081528501356128fb8161257f565b8152606085013561290b8161257f565b6020820152608085013561291e8161257f565b604082015260a08501356129318161257f565b606082015292959194509192509050565b6000806000806080858703121561295857600080fd5b843593506020850135925060408501359150612976606086016126f2565b905092959194509250565b803561ffff8116811461257a57600080fd5b600060e082840312156129a557600080fd5b6129ad612849565b90506129b882612981565b815260208201356129c88161257f565b60208201526129d960408301612981565b604082015260608201356129ec81612559565b606082015260808201356129ff81612559565b6080820152612a1060a083016127ad565b60a082015260c082013563ffffffff81168114612a2c57600080fd5b60c082015292915050565b60008060006101208486031215612a4d57600080fd5b83359250612a5e8560208601612993565b915061010084013590509250925092565b60e08101610c328284612340565b60008060008060008060c08789031215612a9657600080fd5b863595506020870135945060408701359350612ab4606088016126f2565b925060808701359150612ac960a088016127c3565b90509295509295509295565b60008060008060808587031215612aeb57600080fd5b8435935060208501359250604085013591506060850135612b0b81612559565b939692955090935050565b600060208284031215612b2857600080fd5b5035919050565b600060e08284031215612b4157600080fd5b6114b38383612993565b801515811461256c57600080fd5b803561257a81612b4b565b600082601f830112612b7557600080fd5b604051604081018181106001600160401b0382111715612b9757612b97612833565b8060405250806040840185811115612bae57600080fd5b845b81811015612bd1578035612bc381612559565b835260209283019201612bb0565b509195945050505050565b600080600080848603610260811215612bf457600080fd5b853594506020860135935061020080603f1983011215612c1357600080fd5b612c1b612871565b9150612c2960408801612981565b8252612c37606088016126f2565b6020830152612c48608088016126f2565b6040830152612c5960a08801612981565b6060830152612c6a60c08801612981565b6080830152612c7b60e08801612981565b60a0830152610100612c8e818901612b59565b60c0840152610120612ca1818a01612b59565b60e0850152610140612cb4818b01612b59565b838601526101609250612cc8838b01612b59565b828601526101809150612cdc828b01612981565b908501526101a0612cee8a8201612981565b838601526101c09250612d02838b01612981565b82860152612d136101e08b01612981565b9085015250612d2489898401612b64565b90830152509150612976610240860161256f565b60e08101610c3282846123b0565b600060208284031215612d5857600080fd5b81516114b381612b4b565b600060208284031215612d7557600080fd5b81516114b381612559565b600060208284031215612d9257600080fd5b81516114b38161257f565b634e487b7160e01b600052601160045260246000fd5b60006001600160401b03808316818516808303821115612dd557612dd5612d9d565b01949350505050565b60006001600160401b0380831681851681830481118215151615612e0457612e04612d9d565b02949350505050565b60006001600160401b0380841680612e3557634e487b7160e01b600052601260045260246000fd5b92169190910492915050565b600063ffffffff80831681811415612e5b57612e5b612d9d565b6001019392505050565b60008219821115612e7857612e78612d9d565b500190565b600065ffffffffffff80831681851681830481118215151615612e0457612e04612d9d565b600065ffffffffffff808316818516808303821115612dd557612dd5612d9d565b60006001600160401b0380831681811415612e5b57612e5b612d9d56fea2646970667358221220fe6ba5e52e4507f580c987fc2929757e38be5f9ab5072f742083e26d1c7ec60564736f6c63430008080033",
    "sourcePath": "/Users/kaptain/github.com/hardhat/comboox/contracts/common/lib/MotionsRepo.sol",
    "compiler": {
        "name": "solc",
        "version": "0.8.8+commit.dddeac2f"
    },
    "functionHashes": {
        "castVote(MotionsRepo.Repo storage,uint256,uint256,uint8,bytes32,IRegisterOfMembers)": "cdeadaa8",
        "codifyHead(MotionsRepo.Head)": "f138788e",
        "createMotion(MotionsRepo.Repo storage,MotionsRepo.Head,uint256)": "a64ee9bd",
        "entrustDelegate(MotionsRepo.Repo storage,uint256,uint40,uint40,uint64)": "1617543e",
        "execResolution(MotionsRepo.Repo storage,uint256,uint256,uint40)": "e605a9ee",
        "getBallot(MotionsRepo.Repo storage,uint256,uint256)": "5eeb98eb",
        "getCaseOfAttitude(MotionsRepo.Repo storage,uint256,uint8)": "453d7193",
        "getDelegateOf(MotionsRepo.Repo storage,uint256,uint40)": "22b59fb7",
        "getLeavesWeightAtDate(MotionsRepo.Repo storage,uint256,uint40,uint48,IRegisterOfMembers)": "4a0297cb",
        "getMotion(MotionsRepo.Repo storage,uint256)": "0363eeeb",
        "getVoterOfDelegateMap(MotionsRepo.Repo storage,uint256,uint256)": "44aeddf2",
        "isPassed(MotionsRepo.Repo storage,uint256)": "3ac594d6",
        "isProposed(MotionsRepo.Repo storage,uint256)": "7d359cfe",
        "isVoted(MotionsRepo.Repo storage,uint256,uint256)": "b34299c9",
        "isVotedFor(MotionsRepo.Repo storage,uint256,uint256,uint8)": "7d09b4ad",
        "proposeMotion(MotionsRepo.Repo storage,uint256,RulesParser.VotingRule,uint40)": "f5cde066",
        "snParser(uint256)": "ea99737c",
        "voteCounting(MotionsRepo.Repo storage,uint256,MotionsRepo.VoteCalBase)": "77990786",
        "voteEnded(MotionsRepo.Repo storage,uint256)": "e346601c",
        "voteStarted(MotionsRepo.Repo storage,uint256)": "cc526e6b"
    },
    "gasEstimates": {
        "creation": {
            "codeDepositCost": "2410800",
            "executionCost": "2626",
            "totalCost": "2413426"
        },
        "external": {
            "castVote(MotionsRepo.Repo storage,uint256,uint256,uint8,bytes32,IRegisterOfMembers)": "infinite",
            "codifyHead(MotionsRepo.Head)": "infinite",
            "createMotion(MotionsRepo.Repo storage,MotionsRepo.Head,uint256)": "infinite",
            "entrustDelegate(MotionsRepo.Repo storage,uint256,uint40,uint40,uint64)": "infinite",
            "execResolution(MotionsRepo.Repo storage,uint256,uint256,uint40)": "31170",
            "getBallot(MotionsRepo.Repo storage,uint256,uint256)": "5444",
            "getCaseOfAttitude(MotionsRepo.Repo storage,uint256,uint8)": "infinite",
            "getDelegateOf(MotionsRepo.Repo storage,uint256,uint40)": "infinite",
            "getLeavesWeightAtDate(MotionsRepo.Repo storage,uint256,uint40,uint48,IRegisterOfMembers)": "infinite",
            "getMotion(MotionsRepo.Repo storage,uint256)": "infinite",
            "getVoterOfDelegateMap(MotionsRepo.Repo storage,uint256,uint256)": "infinite",
            "isPassed(MotionsRepo.Repo storage,uint256)": "2620",
            "isProposed(MotionsRepo.Repo storage,uint256)": "2564",
            "isVoted(MotionsRepo.Repo storage,uint256,uint256)": "2660",
            "isVotedFor(MotionsRepo.Repo storage,uint256,uint256,uint8)": "2816",
            "proposeMotion(MotionsRepo.Repo storage,uint256,RulesParser.VotingRule,uint40)": "infinite",
            "snParser(uint256)": "1090",
            "voteCounting(MotionsRepo.Repo storage,uint256,MotionsRepo.VoteCalBase)": "infinite",
            "voteEnded(MotionsRepo.Repo storage,uint256)": "4837",
            "voteStarted(MotionsRepo.Repo storage,uint256)": "4909"
        },
        "internal": {
            "_increaseCounterOfMotion(struct MotionsRepo.Repo storage pointer)": "28867",
            "_isVetoed(struct MotionsRepo.Record storage pointer,uint256)": "4488"
        }
    }
}