{
    "contractName": "MotionsRepo",
    "abi": [
        {
            "inputs": [
                {
                    "components": [
                        {
                            "internalType": "uint16",
                            "name": "typeOfMotion",
                            "type": "uint16"
                        },
                        {
                            "internalType": "uint64",
                            "name": "seqOfMotion",
                            "type": "uint64"
                        },
                        {
                            "internalType": "uint16",
                            "name": "seqOfVR",
                            "type": "uint16"
                        },
                        {
                            "internalType": "uint40",
                            "name": "creator",
                            "type": "uint40"
                        },
                        {
                            "internalType": "uint40",
                            "name": "executor",
                            "type": "uint40"
                        },
                        {
                            "internalType": "uint48",
                            "name": "createDate",
                            "type": "uint48"
                        },
                        {
                            "internalType": "uint32",
                            "name": "data",
                            "type": "uint32"
                        }
                    ],
                    "internalType": "struct MotionsRepo.Head",
                    "name": "head",
                    "type": "tuple"
                }
            ],
            "name": "codifyHead",
            "outputs": [
                {
                    "internalType": "bytes32",
                    "name": "sn",
                    "type": "bytes32"
                }
            ],
            "stateMutability": "pure",
            "type": "function"
        },
        {
            "inputs": [
                {
                    "internalType": "bytes32",
                    "name": "sn",
                    "type": "bytes32"
                }
            ],
            "name": "snParser",
            "outputs": [
                {
                    "components": [
                        {
                            "internalType": "uint16",
                            "name": "typeOfMotion",
                            "type": "uint16"
                        },
                        {
                            "internalType": "uint64",
                            "name": "seqOfMotion",
                            "type": "uint64"
                        },
                        {
                            "internalType": "uint16",
                            "name": "seqOfVR",
                            "type": "uint16"
                        },
                        {
                            "internalType": "uint40",
                            "name": "creator",
                            "type": "uint40"
                        },
                        {
                            "internalType": "uint40",
                            "name": "executor",
                            "type": "uint40"
                        },
                        {
                            "internalType": "uint48",
                            "name": "createDate",
                            "type": "uint48"
                        },
                        {
                            "internalType": "uint32",
                            "name": "data",
                            "type": "uint32"
                        }
                    ],
                    "internalType": "struct MotionsRepo.Head",
                    "name": "head",
                    "type": "tuple"
                }
            ],
            "stateMutability": "pure",
            "type": "function"
        }
    ],
    "bytecode": "6148a961003a600b82828239805160001a60731461002d57634e487b7160e01b600052600060045260246000fd5b30600052607381538281f3fe730000000000000000000000000000000000000000301460806040526004361061014c5760003560e01c80637d359cfe116100c2578063d2e9901f11610086578063d2e9901f1461032b578063e346601c1461035d578063e512bd6014610370578063f138788e1461039d578063f147aaca146103be578063fbfad28e146103d157600080fd5b80637d359cfe146102bf578063b34299c9146102d2578063b6b061da146102e5578063befe8fe014610305578063cc526e6b1461031857600080fd5b806340c99dca1161011457806340c99dca146101ff57806341335f351461021f57806344aeddf21461023f5780635eeb98eb1461025f57806362a23fac1461027f5780637794ba5c1461029f57600080fd5b80630363eeeb14610151578063101bca471461017a5780631541559a1461019c5780631cfd0e3f146101bc5780633ac594d6146101dc575b600080fd5b61016461015f366004613669565b6103e4565b604051610171919061385e565b60405180910390f35b81801561018657600080fd5b5061019a61019536600461391d565b6108d9565b005b8180156101a857600080fd5b5061019a6101b7366004613972565b610ac8565b6101cf6101ca3660046139a4565b610bf3565b60405161017191906139f8565b6101ef6101ea366004613669565b610c85565b6040519015158152602001610171565b81801561020b57600080fd5b5061019a61021a366004613a0b565b610cb3565b61023261022d366004613a5d565b610e26565b6040516101719190613a89565b61025261024d366004613a5d565b610ef1565b6040516101719190613ae5565b61027261026d366004613a5d565b610fe1565b6040516101719190613b44565b81801561028b57600080fd5b5061019a61029a366004613be1565b6110be565b8180156102ab57600080fd5b5061019a6102ba36600461391d565b6112df565b6101ef6102cd366004613669565b611472565b6101ef6102e0366004613a5d565b61147b565b8180156102f157600080fd5b506101ef610300366004613c48565b611516565b6101ef610313366004613972565b611a3e565b6101ef610326366004613669565b611ae9565b81801561033757600080fd5b5061034b610346366004613df2565b611b29565b60405160ff9091168152602001610171565b6101ef61036b366004613669565b611e31565b81801561037c57600080fd5b5061039061038b366004613fde565b611e6e565b6040516101719190614016565b6103b06103ab366004614024565b6121db565b604051908152602001610171565b6103b06103cc366004613a5d565b6122af565b6103906103df3660046139a4565b61234a565b6103ec613457565b826000016000838152602001908152602001600020604051806080016040529081600082016040518060e00160405290816000820160009054906101000a900461ffff1661ffff1661ffff1681526020016000820160029054906101000a90046001600160401b03166001600160401b03166001600160401b0316815260200160008201600a9054906101000a900461ffff1661ffff1661ffff16815260200160008201600c9054906101000a900464ffffffffff1664ffffffffff1664ffffffffff1681526020016000820160119054906101000a900464ffffffffff1664ffffffffff1664ffffffffff1681526020016000820160169054906101000a900465ffffffffffff1665ffffffffffff1665ffffffffffff16815260200160008201601c9054906101000a900463ffffffff1663ffffffff1663ffffffff16815250508152602001600182016040518060e00160405290816000820160009054906101000a900464ffffffffff1664ffffffffff1664ffffffffff1681526020016000820160059054906101000a900465ffffffffffff1665ffffffffffff1665ffffffffffff16815260200160008201600b9054906101000a900465ffffffffffff1665ffffffffffff1665ffffffffffff1681526020016000820160119054906101000a900465ffffffffffff1665ffffffffffff1665ffffffffffff1681526020016000820160179054906101000a900465ffffffffffff1665ffffffffffff1665ffffffffffff16815260200160008201601d9054906101000a900461ffff1661ffff1661ffff16815260200160008201601f9054906101000a900460ff1660ff1660ff1681525050815260200160028201604051806102400160405290816000820160009054906101000a900461ffff1661ffff1661ffff1681526020016000820160029054906101000a900460ff1660ff1660ff1681526020016000820160039054906101000a900460ff1660ff1660ff1681526020016000820160049054906101000a900461ffff1661ffff1661ffff1681526020016000820160069054906101000a900461ffff1661ffff1661ffff1681526020016000820160089054906101000a900461ffff1661ffff1661ffff16815260200160008201600a9054906101000a900460ff1615151515815260200160008201600b9054906101000a900460ff1615151515815260200160008201600c9054906101000a900460ff1615151515815260200160008201600d9054906101000a900460ff1615151515815260200160008201600e9054906101000a900460ff1660ff1660ff16815260200160008201600f9054906101000a900460ff1660ff1660ff1681526020016000820160109054906101000a900460ff1660ff1660ff1681526020016000820160119054906101000a900460ff1660ff1660ff1681526020016000820160129054906101000a900460ff1660ff1660ff1681526020016000820160139054906101000a900460ff1660ff1660ff168152602001600182016002806020026040519081016040528092919082600280156108ac576020028201916000905b82829054906101000a900464ffffffffff1664ffffffffff168152602001906005019060208260040104928301926001038202915080841161086d5790505b50505091835250506002919091015461ffff16602091820152908252600592909201549101529392505050565b60405163d50c737760e01b8152600481018590526001600160a01b0382169063d50c73779060240160206040518083038186803b15801561091957600080fd5b505afa15801561092d573d6000803e3d6000fd5b505050506040513d601f19601f82011682018060405250810190610951919061404b565b6109a25760405162461bcd60e51b815260206004820152601b60248201527f4d522e63617374566f7465496e474d3a206e6f74204d656d626572000000000060448201526064015b60405180910390fd5b6000858152602087815260408083206001808b0184528285208986529384905293829020938101549151630ec6a75f60e41b81526004810184905260248101899052600160581b90920465ffffffffffff1660448301526001600160a01b0385166064830152929073__$35c56e942ad0015838e080019772ef040e$__9063ec6a75f09060840160006040518083038186803b158015610a4157600080fd5b505af4158015610a55573d6000803e3d6000fd5b50508254610abd92508b91508a908a908a90610a7f90600160a81b900463ffffffff16600161407e565b865463ffffffff9190911690610aae906001600160401b03600160681b8204811691600160281b9004166140a6565b6001600160401b03168b6123cb565b505050505050505050565b600083815260208590526040902060058101548314610b215760405162461bcd60e51b81526020600482015260156024820152744d522e45523a2077726f6e6720636f6e74656e747360581b6044820152606401610999565b600181015460ff600160f81b90910416600314610b805760405162461bcd60e51b815260206004820152601860248201527f4d522e45523a206d6f74696f6e206e6f742070617373656400000000000000006044820152606401610999565b805464ffffffffff838116600160881b9092041614610bd75760405162461bcd60e51b815260206004820152601360248201527226a91722a91d103737ba1032bc32b1baba37b960691b6044820152606401610999565b60010180546001600160f81b0316600760f81b17905550505050565b60405163034306e160e21b815260028201600482015260609073__$7cd488a7da041973c1a6bb5d41927e00e6$__90630d0c1b849060240160006040518083038186803b158015610c4357600080fd5b505af4158015610c57573d6000803e3d6000fd5b505050506040513d6000823e601f3d908101601f19168201604052610c7f9190810190614162565b92915050565b600060035b600083815260208590526040902060010154600160f81b900460ff908116911614905092915050565b604051634846203760e01b8152600060048201819052906001600160a01b0385169063484620379060240160206040518083038186803b158015610cf657600080fd5b505afa158015610d0a573d6000803e3d6000fd5b505050506040513d601f19601f82011682018060405250810190610d2e9190614196565b604051633d315f5b60e21b8152600481019190915273__$fd7bbdaedbcbc33e1887256b0ab47b2b43$__9063f4c57d6c906024016102206040518083038186803b158015610d7b57600080fd5b505af4158015610d8f573d6000803e3d6000fd5b505050506040513d601f19601f82011682018060405250810190610db391906141d0565b9050610dc68686848460e00151876125d5565b610e125760405162461bcd60e51b815260206004820152601d60248201527f4d522e504d54423a20686173206e6f2070726f706f73616c52696768740000006044820152606401610999565b610e1e868686856127e5565b505050505050565b6040805160808101825260008082526020820152606091810182905281810191909152600083815260018581016020526040918290209151632f859c2960e01b8152910160048201526024810183905273__$55576fa0ade7dce221f0ae7b1003668764$__90632f859c299060440160006040518083038186803b158015610ead57600080fd5b505af4158015610ec1573d6000803e3d6000fd5b505050506040513d6000823e601f3d908101601f19168201604052610ee9919081019061432c565b949350505050565b6040805160a08101825260008082526020820181905291810182905260608082019290925260808101919091526000838152600180860160209081526040808420868552825292839020835160a081018552815464ffffffffff811682526001600160401b03600160281b8204811683860152600160681b8204168287015263ffffffff600160a81b9091041660608201529281018054855181850281018501909652808652939491936080860193830182828015610fcf57602002820191906000526020600020905b815481526020019060010190808311610fbb575b50505050508152505090509392505050565b60408051610100810182526000808252602080830182905282840182905260608084018390526080840183905260a0840183905260c0840183905260e084015285825260018781019091529083902092516309cec88160e11b815292016004830152602482018390529073__$55576fa0ade7dce221f0ae7b1003668764$__9063139d91029060440160006040518083038186803b15801561108257600080fd5b505af4158015611096573d6000803e3d6000fd5b505050506040513d6000823e601f3d908101601f19168201604052610ee991908101906143ed565b60006001600160a01b038516156111d157604051634846203760e01b8152600060048201526001600160a01b0386169063484620379060240160206040518083038186803b15801561110f57600080fd5b505afa158015611123573d6000803e3d6000fd5b505050506040513d601f19601f820116820180604052508101906111479190614196565b604051633d315f5b60e21b8152600481019190915273__$fd7bbdaedbcbc33e1887256b0ab47b2b43$__9063f4c57d6c906024016102206040518083038186803b15801561119457600080fd5b505af41580156111a8573d6000803e3d6000fd5b505050506040513d601f19601f820116820180604052508101906111cc91906141d0565b611258565b604051633d315f5b60e21b8152600160b81b600482015273__$fd7bbdaedbcbc33e1887256b0ab47b2b43$__9063f4c57d6c906024016102206040518083038186803b15801561122057600080fd5b505af4158015611234573d6000803e3d6000fd5b505050506040513d601f19601f8201168201806040525081019061125891906141d0565b90506112678787838588612f37565b8061127e575061127e8787848460c00151876125d5565b6112ca5760405162461bcd60e51b815260206004820152601e60248201527f4d522e504d54474d3a20686173206e6f2070726f706f73616c526967687400006044820152606401610999565b6112d6878787856127e5565b50505050505050565b60405163492c77ff60e11b8152600481018590526001600160a01b03821690639258effe9060240160206040518083038186803b15801561131f57600080fd5b505afa158015611333573d6000803e3d6000fd5b505050506040513d601f19601f82011682018060405250810190611357919061404b565b61139b5760405162461bcd60e51b815260206004820152601560248201527426a91721ab21269d103737ba102234b932b1ba37b960591b6044820152606401610999565b6000858152600187016020908152604080832087845291829052918290209151637a00a34760e01b815260048101829052602481018790526001600160a01b038416604482015290919073__$35c56e942ad0015838e080019772ef040e$__90637a00a3479060640160006040518083038186803b15801561141c57600080fd5b505af4158015611430573d6000803e3d6000fd5b5050825461146892508a915089908990899061145a90600160a81b900463ffffffff16600161407e565b63ffffffff1660008a6123cb565b5050505050505050565b60006002610c8a565b6000828152600184810160205260408083209051636d4a140560e11b8152910160048201526024810183905273__$55576fa0ade7dce221f0ae7b1003668764$__9063da94280a9060440160206040518083038186803b1580156114de57600080fd5b505af41580156114f2573d6000803e3d6000fd5b505050506040513d601f19601f82011682018060405250810190610ee9919061404b565b6000858152602087905260408120600180820154600160f81b900460ff16148061154f5750600181015460ff600160f81b909104166002145b61159b5760405162461bcd60e51b815260206004820152601f60248201527f4d522e456e747275737444656c65676174653a2077726f6e67207374617465006044820152606401610999565b60405163d50c737760e01b8152600481018790526001600160a01b0385169063d50c73779060240160206040518083038186803b1580156115db57600080fd5b505afa1580156115ef573d6000803e3d6000fd5b505050506040513d601f19601f82011682018060405250810190611613919061404b565b8015611692575060405163d50c737760e01b8152600481018690526001600160a01b0385169063d50c73779060240160206040518083038186803b15801561165a57600080fd5b505afa15801561166e573d6000803e3d6000fd5b505050506040513d601f19601f82011682018060405250810190611692919061404b565b15611824576001810154600090600160581b900465ffffffffffff16158015906116cf57506001820154600160581b900465ffffffffffff164210155b15611769576001820154604051632bf82aab60e01b815260048101889052600160581b90910465ffffffffffff1660248201526001600160a01b03861690632bf82aab9060440160206040518083038186803b15801561172e57600080fd5b505afa158015611742573d6000803e3d6000fd5b505050506040513d601f19601f8201168201806040525081019061176691906144ca565b90505b600088815260018a016020526040908190209051637960cf5b60e01b8152600481019190915260248101879052604481018890526001600160401b038216606482015273__$35c56e942ad0015838e080019772ef040e$__90637960cf5b9060840160206040518083038186803b1580156117e357600080fd5b505af41580156117f7573d6000803e3d6000fd5b505050506040513d601f19601f8201168201806040525081019061181b919061404b565b92505050611a34565b60405163492c77ff60e11b8152600481018790526001600160a01b03841690639258effe9060240160206040518083038186803b15801561186457600080fd5b505afa158015611878573d6000803e3d6000fd5b505050506040513d601f19601f8201168201806040525081019061189c919061404b565b801561191b575060405163492c77ff60e11b8152600481018690526001600160a01b03841690639258effe9060240160206040518083038186803b1580156118e357600080fd5b505afa1580156118f7573d6000803e3d6000fd5b505050506040513d601f19601f8201168201806040525081019061191b919061404b565b156119d25760008781526001890160205260408082209051637960cf5b60e01b815260048101919091526024810187905260448101889052606481019190915273__$35c56e942ad0015838e080019772ef040e$__90637960cf5b9060840160206040518083038186803b15801561199257600080fd5b505af41580156119a6573d6000803e3d6000fd5b505050506040513d601f19601f820116820180604052508101906119ca919061404b565b915050611a34565b60405162461bcd60e51b815260206004820152603160248201527f4d522e656e747275737444656c65676174653a206e6f7420626f7468204d656d60448201527062657273206f72204469726563746f727360781b6064820152608401610999565b9695505050505050565b6000838152600185810160205260408083209051633279a5fd60e21b815291016004820152602481018490526044810183905273__$55576fa0ade7dce221f0ae7b1003668764$__9063c9e697f49060640160206040518083038186803b158015611aa857600080fd5b505af4158015611abc573d6000803e3d6000fd5b505050506040513d601f19601f82011682018060405250810190611ae0919061404b565b95945050505050565b6000611af58383611472565b8015611b22575060008281526020849052604090206001015442600160881b90910465ffffffffffff1611155b9392505050565b60008281526020858152604080832060018801909252822060026001830154600160f81b900460ff908116911614611b985760405162461bcd60e51b81526020600482015260126024820152714d522e56543a2077726f6e6720737461746560701b6044820152606401610999565b611ba28786611e31565b611bee5760405162461bcd60e51b815260206004820152601960248201527f4d522e56543a20766f7465206e6f7420656e64656420796574000000000000006044820152606401610999565b600282015461ffff6601000000000000820481161591600160401b900416156000828015611c195750815b905080158015611c265750885b8015611c635750611c61846003870160005b600691828204019190066005029054906101000a900464ffffffffff1664ffffffffff16613393565b155b8015611c7b5750611c7984600387016001611c38565b155b15611db85782611d0a57865163ffffffff16611ca957866101000151611ca2576000611d0d565b6001611d0d565b600285015487516040808a0151600160008181529089016020529190912054660100000000000090930461ffff1692611ce8919063ffffffff1661407e565b611cf4906127106144e7565b611cfe9190614529565b63ffffffff1611611d0d565b60015b925081611db257600087602001516001600160401b031611611d4157866101000151611d3a576000611db5565b6001611db5565b600285015460208881015160608a015160016000818152908901909352604090922054600160401b90930461ffff16929091611d8d9164010000000090046001600160401b03166140a6565b611d999061271061454c565b611da39190614572565b6001600160401b031611611db5565b60015b91505b8080611dd25750888015611dc95750825b8015611dd25750815b611df7576002850154600160681b900460ff16611df0576005611dfa565b6006611dfa565b60035b60019590950180546001600160f81b0316600160f81b60ff9788168102919091179182905590049094169998505050505050505050565b6000611e3d8383611472565b8015611b225750506000908152602091909152604090206001015442600160b81b90910465ffffffffffff16111590565b611e766134c0565b825161ffff16611ec85760405162461bcd60e51b815260206004820152601860248201527f4d522e434d3a207a65726f20747970654f664d6f74696f6e00000000000000006044820152606401610999565b6000836040015161ffff1611611f165760405162461bcd60e51b815260206004820152601360248201527226a91721a69d103d32b9379039b2b8a7b32b2960691b6044820152606401610999565b6000836060015164ffffffffff1611611f665760405162461bcd60e51b815260206004820152601260248201527126a91721a69d103d32b9379031b0b63632b960711b6044820152606401610999565b6020830151604051633f5f77cd60e01b81526002860160048201526001600160401b03909116602482015273__$7cd488a7da041973c1a6bb5d41927e00e6$__90633f5f77cd9060440160206040518083038186803b158015611fc857600080fd5b505af4158015611fdc573d6000803e3d6000fd5b505050506040513d601f19601f82011682018060405250810190612000919061404b565b6120ba5761200d846133ec565b6001600160401b0316602084018190524265ffffffffffff1660a08501526040516392f13c3f60e01b8152600286016004820152602481019190915273__$7cd488a7da041973c1a6bb5d41927e00e6$__906392f13c3f9060440160206040518083038186803b15801561208057600080fd5b505af4158015612094573d6000803e3d6000fd5b505050506040513d601f19601f820116820180604052508101906120b8919061404b565b505b50602082810180516001600160401b03908116600090815295909252604094859020845181549251968601516060870151608088015160a089015160c08a015161ffff95861669ffffffffffffffffffff1990981697909717620100009b9098169a909a029690961766ffffffffffffff60501b1916600160501b939092169290920264ffffffffff60601b191617600160601b64ffffffffff92831602176affffffffffffffffffffff60881b1916600160881b919094160265ffffffffffff60b01b191692909217600160b01b65ffffffffffff90961695909502949094176001600160e01b0316600160e01b63ffffffff909516949094029390931783556005830155600190910180546001600160f81b0316600160f81b17905590565b600080826000015183602001518460400151856060015186608001518760a001518860c00151604051602001612294979695949392919060f097881b6001600160f01b0319908116825260c09790971b6001600160c01b03191660028201529490961b909416600a84015260d891821b6001600160d81b0319908116600c850152911b16601182015260d09190911b6001600160d01b031916601682015260e09190911b6001600160e01b031916601c82015260200190565b60408051601f19818403018152919052602001519392505050565b6000828152600184016020526040808220905163154a26c760e31b815260048101919091526024810183905273__$35c56e942ad0015838e080019772ef040e$__9063aa5136389060440160206040518083038186803b15801561231257600080fd5b505af4158015612326573d6000803e3d6000fd5b505050506040513d601f19601f82011682018060405250810190610ee99190614196565b6123526134c0565b506040805160e08101825260f083901c81526001600160401b0360b084901c1660208083019190915260a084811c61ffff169383019390935264ffffffffff607885901c81166060840152605085901c16608083015265ffffffffffff9084901c169181019190915263ffffffff90911660c082015290565b6000861161241b5760405162461bcd60e51b815260206004820152601760248201527f4d522e43563a207a65726f207365714f664d6f74696f6e0000000000000000006044820152606401610999565b6124258787611ae9565b6124715760405162461bcd60e51b815260206004820152601760248201527f4d522e43563a20766f7465206e6f7420737461727465640000000000000000006044820152606401610999565b61247b8787611e31565b156124bf5760405162461bcd60e51b815260206004820152601460248201527313548b90d58e881d9bdd19481a5cc8115b99195960621b6044820152606401610999565b6000868152600188016020908152604080832088845291829052909120805464ffffffffff16156125325760405162461bcd60e51b815260206004820152601960248201527f4d522e43563a20656e747275737465642064656c6567617465000000000000006044820152606401610999565b6040516209e29360e61b815273__$55576fa0ade7dce221f0ae7b1003668764$__90630278a4c090612579906001808701918c918c918c918c918c918b019060040161458c565b60206040518083038186803b15801561259157600080fd5b505af41580156125a5573d6000803e3d6000fd5b505050506040513d601f19601f820116820180604052508101906125c9919061404b565b50505050505050505050565b60405163492c77ff60e11b8152600481018490526000906001600160a01b03831690639258effe9060240160206040518083038186803b15801561261857600080fd5b505afa15801561262c573d6000803e3d6000fd5b505050506040513d601f19601f82011682018060405250810190612650919061404b565b61265c57506000611ae0565b6000826001600160a01b031663695b2f606040518163ffffffff1660e01b815260040160206040518083038186803b15801561269757600080fd5b505afa1580156126ab573d6000803e3d6000fd5b505050506040513d601f19601f820116820180604052508101906126cf9190614196565b6000878152600189016020526040908190209051637a00a34760e01b81526004810191909152602481018790526001600160a01b038516604482015290915073__$35c56e942ad0015838e080019772ef040e$__90637a00a3479060640160006040518083038186803b15801561274557600080fd5b505af4158015612759573d6000803e3d6000fd5b5050505060008461ffff161180156127c9575060008681526001888101602090815260408084208985529091529091205461ffff86169183916127aa91600160a81b90910463ffffffff169061407e565b6127b6906127106144e7565b63ffffffff166127c69190614603565b10155b156127d8576001915050611ae0565b5060009695505050505050565b6000811161282a5760405162461bcd60e51b815260206004820152601260248201527126a91728269d103d32b9379031b0b63632b960711b6044820152606401610999565b6000838152600185016020908152604080832084845290915290205464ffffffffff161561289a5760405162461bcd60e51b815260206004820152601860248201527f4d522e504d3a20656e7472757365642064656c656761746500000000000000006044820152606401610999565b6000838152602085905260409020600180820154600160f81b900460ff16146128fa5760405162461bcd60e51b81526020600482015260126024820152714d522e504d3a2077726f6e6720737461746560701b6044820152606401610999565b60006001600160a01b03841615612a19578154604051634846203760e01b8152600160501b90910461ffff1660048201526001600160a01b0385169063484620379060240160206040518083038186803b15801561295757600080fd5b505afa15801561296b573d6000803e3d6000fd5b505050506040513d601f19601f8201168201806040525081019061298f9190614196565b604051634281ec6b60e11b8152600481019190915273__$fd7bbdaedbcbc33e1887256b0ab47b2b43$__90638503d8d6906024016102606040518083038186803b1580156129dc57600080fd5b505af41580156129f0573d6000803e3d6000fd5b505050506040513d601f19601f82011682018060405250810190612a14919061468f565b612ab1565b604051634281ec6b60e11b815271080c08000100001a0b00000100000100000160681b600482015273__$fd7bbdaedbcbc33e1887256b0ab47b2b43$__90638503d8d6906024016102606040518083038186803b158015612a7957600080fd5b505af4158015612a8d573d6000803e3d6000fd5b505050506040513d601f19601f82011682018060405250810190612ab1919061468f565b9050600042905060006040518060e001604052808664ffffffffff1681526020018365ffffffffffff16815260200184610180015160ff1662015180612af791906147e9565b612b01908561480e565b65ffffffffffff168152602001846101a0015160ff1685610180015160ff16612b2a919061480e565b612b3790620151806147e9565b612b41908561480e565b65ffffffffffff168152602001846101c0015160ff16856101a0015160ff1686610180015160ff16612b73919061480e565b612b7d919061480e565b612b8a90620151806147e9565b612b94908561480e565b65ffffffffffff16815260006020820152604001600260ff168152509050808460010160008201518160000160006101000a81548164ffffffffff021916908364ffffffffff16021790555060208201518160000160056101000a81548165ffffffffffff021916908365ffffffffffff160217905550604082015181600001600b6101000a81548165ffffffffffff021916908365ffffffffffff16021790555060608201518160000160116101000a81548165ffffffffffff021916908365ffffffffffff16021790555060808201518160000160176101000a81548165ffffffffffff021916908365ffffffffffff16021790555060a082015181600001601d6101000a81548161ffff021916908361ffff16021790555060c082015181600001601f6101000a81548160ff021916908360ff160217905550905050828460020160008201518160000160006101000a81548161ffff021916908361ffff16021790555060208201518160000160026101000a81548160ff021916908360ff16021790555060408201518160000160036101000a81548160ff021916908360ff16021790555060608201518160000160046101000a81548161ffff021916908361ffff16021790555060808201518160000160066101000a81548161ffff021916908361ffff16021790555060a08201518160000160086101000a81548161ffff021916908361ffff16021790555060c082015181600001600a6101000a81548160ff02191690831515021790555060e082015181600001600b6101000a81548160ff02191690831515021790555061010082015181600001600c6101000a81548160ff02191690831515021790555061012082015181600001600d6101000a81548160ff02191690831515021790555061014082015181600001600e6101000a81548160ff021916908360ff16021790555061016082015181600001600f6101000a81548160ff021916908360ff1602179055506101808201518160000160106101000a81548160ff021916908360ff1602179055506101a08201518160000160116101000a81548160ff021916908360ff1602179055506101c08201518160000160126101000a81548160ff021916908360ff1602179055506101e08201518160000160136101000a81548160ff021916908360ff16021790555061020082015181600101906002612f0c9291906134fc565b5061022091909101516002909101805461ffff191661ffff9092169190911790555050505050505050565b60405163d50c737760e01b8152600481018390526000906001600160a01b0383169063d50c73779060240160206040518083038186803b158015612f7a57600080fd5b505afa158015612f8e573d6000803e3d6000fd5b505050506040513d601f19601f82011682018060405250810190612fb2919061404b565b612fbe57506000611ae0565b6000826001600160a01b0316630d15fd776040518163ffffffff1660e01b815260040160206040518083038186803b158015612ff957600080fd5b505afa15801561300d573d6000803e3d6000fd5b505050506040513d601f19601f8201168201806040525081019061303191906144ca565b6001600160401b031690506000856080015161ffff161180156130f95750846080015161ffff1681846001600160a01b031663c2d7616e876040518263ffffffff1660e01b815260040161308791815260200190565b60206040518083038186803b15801561309f57600080fd5b505afa1580156130b3573d6000803e3d6000fd5b505050506040513d601f19601f820116820180604052508101906130d791906144ca565b6130e39061271061454c565b6001600160401b03166130f69190614603565b10155b15613108576001915050611ae0565b6000868152600188016020526040908190209051630ec6a75f60e41b8152600481018290526024810186905265ffffffffffff421660448201526001600160a01b038516606482015273__$35c56e942ad0015838e080019772ef040e$__9063ec6a75f09060840160006040518083038186803b15801561318857600080fd5b505af415801561319c573d6000803e3d6000fd5b505050600086815260208381526040808320815160a081018352815464ffffffffff811682526001600160401b03600160281b8204811683870152600160681b8204168285015263ffffffff600160a81b909104166060820152600182018054845181870281018701909552808552959650909491936080860193929083018282801561324857602002820191906000526020600020905b815481526020019060010190808311613234575b50505050508152505090506000876080015161ffff161180156132a65750866080015161ffff16838260400151836020015161328491906140a6565b6132909061271061454c565b6001600160401b03166132a39190614603565b10155b156132b75760019350505050611ae0565b60008760a0015161ffff1611801561337357508660a0015161ffff16856001600160a01b03166329d01b3a6040518163ffffffff1660e01b815260040160206040518083038186803b15801561330c57600080fd5b505afa158015613320573d6000803e3d6000fd5b505050506040513d601f19601f82011682018060405250810190613344919061482f565b606083015161335490600161407e565b613360906127106144e7565b61336a9190614529565b63ffffffff1610155b156133845760019350505050611ae0565b50600098975050505050505050565b60008082118015611b2257506000828152600284016020526040902054600160901b900465ffffffffffff161580611b225750506000908152600291909101602052604090205460ff600160281b909104166001141590565b600080805260208290526040812080546201000090046001600160401b03169060026134178361484c565b82546101009290920a6001600160401b03818102199093169183160217909155600080805260209490945260409093205462010000900490921692915050565b604051806080016040528061346a6134c0565b81526040805160e08101825260008082526020828101829052928201819052606082018190526080820181905260a0820181905260c082015291019081526020016134b361359b565b8152602001600081525090565b6040805160e081018252600080825260208201819052918101829052606081018290526080810182905260a0810182905260c081019190915290565b60018301918390821561358b5791602002820160005b8382111561355857835183826101000a81548164ffffffffff021916908364ffffffffff1602179055509260200192600501602081600401049283019260010302613512565b80156135895782816101000a81549064ffffffffff0219169055600501602081600401049283019260010302613558565b505b50613597929150613636565b5090565b6040805161024081018252600080825260208201819052918101829052606081018290526080810182905260a0810182905260c0810182905260e08101829052610100810182905261012081018290526101408101829052610160810182905261018081018290526101a081018290526101c081018290526101e0810191909152610200810161362961364b565b8152600060209091015290565b5b808211156135975760008155600101613637565b60405180604001604052806002906020820280368337509192915050565b6000806040838503121561367c57600080fd5b50508035926020909101359150565b61ffff8082511683526001600160401b03602083015116602084015280604083015116604084015250606081015164ffffffffff8082166060850152806080840151166080850152505065ffffffffffff60a08201511660a083015263ffffffff60c08201511660c08301525050565b8060005b600281101561372557815164ffffffffff168452602093840193909101906001016136ff565b50505050565b805161ffff1682526020810151613747602084018260ff169052565b50604081015161375c604084018260ff169052565b506060810151613772606084018261ffff169052565b506080810151613788608084018261ffff169052565b5060a081015161379e60a084018261ffff169052565b5060c08101516137b260c084018215159052565b5060e08101516137c660e084018215159052565b5061010081810151151590830152610120808201511515908301526101408082015160ff9081169184019190915261016080830151821690840152610180808301518216908401526101a0808301518216908401526101c0808301518216908401526101e0808301519091169083015261020080820151613849828501826136fb565b5050610220015161ffff166102409190910152565b60006104408201905061387282845161368b565b602083810151805164ffffffffff1660e08501529081015165ffffffffffff908116610100850152604082015181166101208501526060820151811661014085015260808201511661016084015260a081015161ffff81166101808501525060c0015160ff81166101a08401525060408301516138f36101c084018261372b565b50606083015161042083015292915050565b6001600160a01b038116811461391a57600080fd5b50565b60008060008060008060c0878903121561393657600080fd5b863595506020870135945060408701359350606087013592506080870135915060a087013561396481613905565b809150509295509295509295565b6000806000806080858703121561398857600080fd5b5050823594602084013594506040840135936060013592509050565b6000602082840312156139b657600080fd5b5035919050565b600081518084526020808501945080840160005b838110156139ed578151875295820195908201906001016139d1565b509495945050505050565b602081526000611b2260208301846139bd565b600080600080600060a08688031215613a2357600080fd5b85359450602086013593506040860135613a3c81613905565b92506060860135613a4c81613905565b949793965091946080013592915050565b600080600060608486031215613a7257600080fd5b505081359360208301359350604090920135919050565b6020815263ffffffff82511660208201526001600160401b0360208301511660408201526000604083015160806060840152613ac860a08401826139bd565b90506060840151601f19848303016080850152611ae082826139bd565b6020815264ffffffffff8251166020820152600060208301516001600160401b038082166040850152806040860151166060850152505063ffffffff6060840151166080830152608083015160a080840152610ee960c08401826139bd565b6020815264ffffffffff825116602082015260ff602083015116604082015260006040830151613b7c606084018263ffffffff169052565b5060608301516001600160401b038116608084015250608083015165ffffffffffff811660a08401525060a08301516001600160401b03811660c08401525060c083015160e083015260e0830151610100808185015250610ee96101208401826139bd565b60008060008060008060c08789031215613bfa57600080fd5b86359550602087013594506040870135613c1381613905565b93506060870135613c2381613905565b92506080870135613c3381613905565b8092505060a087013590509295509295509295565b60008060008060008060c08789031215613c6157600080fd5b863595506020870135945060408701359350606087013592506080870135613c8881613905565b915060a087013561396481613905565b801515811461391a57600080fd5b8035613cb181613c98565b919050565b634e487b7160e01b600052604160045260246000fd5b60405161012081016001600160401b0381118282101715613cef57613cef613cb6565b60405290565b60405161022081016001600160401b0381118282101715613cef57613cef613cb6565b604051608081016001600160401b0381118282101715613cef57613cef613cb6565b60405161010081016001600160401b0381118282101715613cef57613cef613cb6565b60405161024081016001600160401b0381118282101715613cef57613cef613cb6565b63ffffffff8116811461391a57600080fd5b8035613cb181613d80565b6001600160401b038116811461391a57600080fd5b8035613cb181613d9d565b61ffff8116811461391a57600080fd5b8035613cb181613dbd565b60ff8116811461391a57600080fd5b8035613cb181613dd8565b600080600080848603610180811215613e0a57600080fd5b853594506020860135613e1c81613c98565b935060408601359250610120605f198201811315613e3957600080fd5b613e41613ccc565b9150613e4f60608801613d92565b8252613e5d60808801613db2565b6020830152613e6e60a08801613d92565b6040830152613e7f60c08801613db2565b6060830152613e9060e08801613dcd565b6080830152610100613ea3818901613dcd565b60a0840152613eb3828901613dcd565b60c0840152613ec56101408901613de7565b60e0840152613ed76101608901613ca6565b9083015250939692955090935050565b64ffffffffff8116811461391a57600080fd5b8035613cb181613ee7565b65ffffffffffff8116811461391a57600080fd5b8035613cb181613f05565b600060e08284031215613f3657600080fd5b60405160e081018181106001600160401b0382111715613f5857613f58613cb6565b6040529050808235613f6981613dbd565b81526020830135613f7981613d9d565b60208201526040830135613f8c81613dbd565b60408201526060830135613f9f81613ee7565b6060820152613fb060808401613efa565b6080820152613fc160a08401613f19565b60a0820152613fd260c08401613d92565b60c08201525092915050565b60008060006101208486031215613ff457600080fd5b833592506140058560208601613f24565b915061010084013590509250925092565b60e08101610c7f828461368b565b600060e0828403121561403657600080fd5b611b228383613f24565b8051613cb181613c98565b60006020828403121561405d57600080fd5b8151611b2281613c98565b634e487b7160e01b600052601160045260246000fd5b600063ffffffff80831681851680830382111561409d5761409d614068565b01949350505050565b60006001600160401b0380831681851680830382111561409d5761409d614068565b600082601f8301126140d957600080fd5b815160206001600160401b03808311156140f5576140f5613cb6565b8260051b604051601f19603f8301168101818110848211171561411a5761411a613cb6565b60405293845285810183019383810192508785111561413857600080fd5b83870191505b848210156141575781518352918301919083019061413e565b979650505050505050565b60006020828403121561417457600080fd5b81516001600160401b0381111561418a57600080fd5b610ee9848285016140c8565b6000602082840312156141a857600080fd5b5051919050565b8051613cb181613dbd565b8051613cb181613dd8565b8051613cb181613f05565b600061022082840312156141e357600080fd5b6141eb613cf5565b6141f4836141af565b8152614202602084016141ba565b6020820152614213604084016141ba565b604082015261422460608401614040565b6060820152614235608084016141af565b608082015261424660a084016141af565b60a082015261425760c084016141af565b60c082015261426860e084016141af565b60e082015261010061427b8185016141af565b9082015261012061428d8482016141af565b9082015261014061429f8482016141ba565b908201526101606142b18482016141af565b908201526101806142c38482016141af565b908201526101a06142d58482016141c5565b908201526101c06142e78482016141ba565b908201526101e06142f98482016141ba565b9082015261020061430b8482016141af565b908201529392505050565b8051613cb181613d80565b8051613cb181613d9d565b60006020828403121561433e57600080fd5b81516001600160401b038082111561435557600080fd5b908301906080828603121561436957600080fd5b614371613d18565b825161437c81613d80565b8152602083015161438c81613d9d565b60208201526040830151828111156143a357600080fd5b6143af878286016140c8565b6040830152506060830151828111156143c757600080fd5b6143d3878286016140c8565b60608301525095945050505050565b8051613cb181613ee7565b6000602082840312156143ff57600080fd5b81516001600160401b038082111561441657600080fd5b90830190610100828603121561442b57600080fd5b614433613d3a565b61443c836143e2565b815261444a602084016141ba565b602082015261445b60408401614316565b604082015261446c60608401614321565b606082015261447d608084016141c5565b608082015261448e60a08401614321565b60a082015260c083015160c082015260e0830151828111156144af57600080fd5b6144bb878286016140c8565b60e08301525095945050505050565b6000602082840312156144dc57600080fd5b8151611b2281613d9d565b600063ffffffff8083168185168183048111821515161561450a5761450a614068565b02949350505050565b634e487b7160e01b600052601260045260246000fd5b600063ffffffff8084168061454057614540614513565b92169190910492915050565b60006001600160401b038083168185168183048111821515161561450a5761450a614068565b60006001600160401b038084168061454057614540614513565b600060e08201898352602089818501528860408501528760608501528660808501528560a085015260e060c0850152818554808452610100860191508660005282600020935060005b818110156145f1578454835260019485019492840192016145d5565b50909c9b505050505050505050505050565b60008261461257614612614513565b500490565b600082601f83011261462857600080fd5b604051604081018181106001600160401b038211171561464a5761464a613cb6565b806040525080604084018581111561466157600080fd5b845b8181101561468457805161467681613ee7565b835260209283019201614663565b509195945050505050565b600061026082840312156146a257600080fd5b6146aa613d5d565b6146b3836141af565b81526146c1602084016141ba565b60208201526146d2604084016141ba565b60408201526146e3606084016141af565b60608201526146f4608084016141af565b608082015261470560a084016141af565b60a082015261471660c08401614040565b60c082015261472760e08401614040565b60e082015261010061473a818501614040565b9082015261012061474c848201614040565b9082015261014061475e8482016141ba565b908201526101606147708482016141ba565b908201526101806147828482016141ba565b908201526101a06147948482016141ba565b908201526101c06147a68482016141ba565b908201526101e06147b88482016141ba565b908201526102006147cb85858301614617565b908201526147dc61024084016141af565b6102208201529392505050565b600065ffffffffffff8083168185168183048111821515161561450a5761450a614068565b600065ffffffffffff80831681851680830382111561409d5761409d614068565b60006020828403121561484157600080fd5b8151611b2281613d80565b60006001600160401b038083168181141561486957614869614068565b600101939250505056fea264697066735822122086c8716bcd509e9ca1218f228c733c06026a9ccc5cb52565e225f12533e0bf5764736f6c63430008080033",
    "sourcePath": "/Users/kaptain/github.com/comboox/comboox/contracts/common/lib/MotionsRepo.sol",
    "compiler": {
        "name": "solc",
        "version": "0.8.8+commit.dddeac2f"
    },
    "functionHashes": {
        "addMotion(MotionsRepo.Repo storage,MotionsRepo.Head,uint256)": "e512bd60",
        "castVoteInBoardMeeting(MotionsRepo.Repo storage,uint256,uint256,uint256,bytes32,IRegisterOfDirectors)": "7794ba5c",
        "castVoteInGeneralMeeting(MotionsRepo.Repo storage,uint256,uint256,uint256,bytes32,IRegisterOfMembers)": "101bca47",
        "codifyHead(MotionsRepo.Head)": "f138788e",
        "entrustDelegate(MotionsRepo.Repo storage,uint256,uint256,uint256,IRegisterOfMembers,IRegisterOfDirectors)": "b6b061da",
        "execResolution(MotionsRepo.Repo storage,uint256,uint256,uint256)": "1541559a",
        "getBallot(MotionsRepo.Repo storage,uint256,uint256)": "5eeb98eb",
        "getCaseOfAttitude(MotionsRepo.Repo storage,uint256,uint256)": "41335f35",
        "getDelegateOf(MotionsRepo.Repo storage,uint256,uint256)": "f147aaca",
        "getMotion(MotionsRepo.Repo storage,uint256)": "0363eeeb",
        "getSeqList(MotionsRepo.Repo storage)": "1cfd0e3f",
        "getVoterOfDelegateMap(MotionsRepo.Repo storage,uint256,uint256)": "44aeddf2",
        "isPassed(MotionsRepo.Repo storage,uint256)": "3ac594d6",
        "isProposed(MotionsRepo.Repo storage,uint256)": "7d359cfe",
        "isVoted(MotionsRepo.Repo storage,uint256,uint256)": "b34299c9",
        "isVotedFor(MotionsRepo.Repo storage,uint256,uint256,uint256)": "befe8fe0",
        "proposeMotionToBoard(MotionsRepo.Repo storage,uint256,IShareholdersAgreement,IRegisterOfDirectors,uint256)": "40c99dca",
        "proposeMotionToGeneralMeeting(MotionsRepo.Repo storage,uint256,IShareholdersAgreement,IRegisterOfMembers,IRegisterOfDirectors,uint256)": "62a23fac",
        "snParser(bytes32)": "fbfad28e",
        "voteCounting(MotionsRepo.Repo storage,bool,uint256,MotionsRepo.VoteCalBase)": "d2e9901f",
        "voteEnded(MotionsRepo.Repo storage,uint256)": "e346601c",
        "voteStarted(MotionsRepo.Repo storage,uint256)": "cc526e6b"
    },
    "gasEstimates": {
        "creation": {
            "codeDepositCost": "3720200",
            "executionCost": "4235",
            "totalCost": "3724435"
        },
        "external": {
            "addMotion(MotionsRepo.Repo storage,MotionsRepo.Head,uint256)": "infinite",
            "castVoteInBoardMeeting(MotionsRepo.Repo storage,uint256,uint256,uint256,bytes32,IRegisterOfDirectors)": "infinite",
            "castVoteInGeneralMeeting(MotionsRepo.Repo storage,uint256,uint256,uint256,bytes32,IRegisterOfMembers)": "infinite",
            "codifyHead(MotionsRepo.Head)": "infinite",
            "entrustDelegate(MotionsRepo.Repo storage,uint256,uint256,uint256,IRegisterOfMembers,IRegisterOfDirectors)": "infinite",
            "execResolution(MotionsRepo.Repo storage,uint256,uint256,uint256)": "31119",
            "getBallot(MotionsRepo.Repo storage,uint256,uint256)": "infinite",
            "getCaseOfAttitude(MotionsRepo.Repo storage,uint256,uint256)": "infinite",
            "getDelegateOf(MotionsRepo.Repo storage,uint256,uint256)": "infinite",
            "getMotion(MotionsRepo.Repo storage,uint256)": "infinite",
            "getSeqList(MotionsRepo.Repo storage)": "infinite",
            "getVoterOfDelegateMap(MotionsRepo.Repo storage,uint256,uint256)": "infinite",
            "isPassed(MotionsRepo.Repo storage,uint256)": "2641",
            "isProposed(MotionsRepo.Repo storage,uint256)": "2563",
            "isVoted(MotionsRepo.Repo storage,uint256,uint256)": "infinite",
            "isVotedFor(MotionsRepo.Repo storage,uint256,uint256,uint256)": "infinite",
            "proposeMotionToBoard(MotionsRepo.Repo storage,uint256,IShareholdersAgreement,IRegisterOfDirectors,uint256)": "infinite",
            "proposeMotionToGeneralMeeting(MotionsRepo.Repo storage,uint256,IShareholdersAgreement,IRegisterOfMembers,IRegisterOfDirectors,uint256)": "infinite",
            "snParser(bytes32)": "1173",
            "voteCounting(MotionsRepo.Repo storage,bool,uint256,MotionsRepo.VoteCalBase)": "infinite",
            "voteEnded(MotionsRepo.Repo storage,uint256)": "4858",
            "voteStarted(MotionsRepo.Repo storage,uint256)": "4930"
        },
        "internal": {
            "_castVote(struct MotionsRepo.Repo storage pointer,uint256,uint256,uint256,uint256,uint256,bytes32)": "infinite",
            "_directorProposalRightCheck(struct MotionsRepo.Repo storage pointer,uint256,uint256,uint16,contract IRegisterOfDirectors)": "infinite",
            "_increaseCounterOfMotion(struct MotionsRepo.Repo storage pointer)": "28867",
            "_isVetoed(struct MotionsRepo.Record storage pointer,uint256)": "4488",
            "_memberProposalRightCheck(struct MotionsRepo.Repo storage pointer,uint256,struct RulesParser.GovernanceRule memory,uint256,contract IRegisterOfMembers)": "infinite",
            "_proposeMotion(struct MotionsRepo.Repo storage pointer,uint256,contract IShareholdersAgreement,uint256)": "infinite"
        }
    }
}