{
    "contractName": "MotionsRepo",
    "abi": [
        {
            "inputs": [
                {
                    "components": [
                        {
                            "internalType": "uint16",
                            "name": "typeOfMotion",
                            "type": "uint16"
                        },
                        {
                            "internalType": "uint64",
                            "name": "seqOfMotion",
                            "type": "uint64"
                        },
                        {
                            "internalType": "uint16",
                            "name": "seqOfVR",
                            "type": "uint16"
                        },
                        {
                            "internalType": "uint40",
                            "name": "creator",
                            "type": "uint40"
                        },
                        {
                            "internalType": "uint40",
                            "name": "executor",
                            "type": "uint40"
                        },
                        {
                            "internalType": "uint48",
                            "name": "createDate",
                            "type": "uint48"
                        },
                        {
                            "internalType": "uint32",
                            "name": "data",
                            "type": "uint32"
                        }
                    ],
                    "internalType": "struct MotionsRepo.Head",
                    "name": "head",
                    "type": "tuple"
                }
            ],
            "name": "codifyHead",
            "outputs": [
                {
                    "internalType": "bytes32",
                    "name": "sn",
                    "type": "bytes32"
                }
            ],
            "stateMutability": "pure",
            "type": "function"
        },
        {
            "inputs": [
                {
                    "internalType": "bytes32",
                    "name": "sn",
                    "type": "bytes32"
                }
            ],
            "name": "snParser",
            "outputs": [
                {
                    "components": [
                        {
                            "internalType": "uint16",
                            "name": "typeOfMotion",
                            "type": "uint16"
                        },
                        {
                            "internalType": "uint64",
                            "name": "seqOfMotion",
                            "type": "uint64"
                        },
                        {
                            "internalType": "uint16",
                            "name": "seqOfVR",
                            "type": "uint16"
                        },
                        {
                            "internalType": "uint40",
                            "name": "creator",
                            "type": "uint40"
                        },
                        {
                            "internalType": "uint40",
                            "name": "executor",
                            "type": "uint40"
                        },
                        {
                            "internalType": "uint48",
                            "name": "createDate",
                            "type": "uint48"
                        },
                        {
                            "internalType": "uint32",
                            "name": "data",
                            "type": "uint32"
                        }
                    ],
                    "internalType": "struct MotionsRepo.Head",
                    "name": "head",
                    "type": "tuple"
                }
            ],
            "stateMutability": "pure",
            "type": "function"
        }
    ],
    "bytecode": "6131ad61003a600b82828239805160001a60731461002d57634e487b7160e01b600052600060045260246000fd5b30600052607381538281f3fe73000000000000000000000000000000000000000030146080604052600436106101365760003560e01c8063a64ee9bd116100b7578063e346601c1161007b578063e346601c1461038f578063f138788e146103a2578063f147aaca146103c3578063fbfad28e146103d6578063fe3aba27146103e957600080fd5b8063a64ee9bd14610309578063b34299c914610336578063befe8fe014610349578063bfdb52441461035c578063cc526e6b1461037c57600080fd5b806344aeddf2116100fe57806344aeddf2146101f457806350a11799146102145780635eeb98eb1461023457806377990786146102c45780637d359cfe146102f657600080fd5b80630363eeeb1461013b57806307621e53146101645780631541559a1461018f5780633ac594d6146101b157806341335f35146101d4575b600080fd5b61014e6101493660046123ca565b610416565b60405161015b91906124f0565b60405180910390f35b610177610172366004612639565b6108e0565b6040516001600160401b03909116815260200161015b565b81801561019b57600080fd5b506101af6101aa366004612682565b61099b565b005b6101c46101bf3660046123ca565b610acb565b604051901515815260200161015b565b6101e76101e23660046126b4565b610afa565b60405161015b91906126e0565b6102076102023660046126b4565b610bbe565b60405161015b9190612755565b81801561022057600080fd5b506101c461022f3660046127ef565b610cde565b6102476102423660046126b4565b610e0d565b60405161015b9190600060e08201905064ffffffffff835116825260ff602084015116602083015263ffffffff604084015116604083015260608301516001600160401b03808216606085015265ffffffffffff60808601511660808501528060a08601511660a0850152505060c083015160c083015292915050565b8180156102d057600080fd5b506102e46102df3660046128f5565b610ee2565b60405160ff909116815260200161015b565b6101c46103043660046123ca565b6111a2565b81801561031557600080fd5b50610329610324366004612ad2565b6111ab565b60405161015b9190612b0a565b6101c46103443660046126b4565b611483565b6101c4610357366004612682565b61151e565b81801561036857600080fd5b506101c4610377366004612b18565b6115c9565b6101c461038a3660046123ca565b6119a7565b6101c461039d3660046123ca565b6119e7565b6103b56103b0366004612b69565b611a24565b60405190815260200161015b565b6103b56103d13660046126b4565b611ad0565b6103296103e4366004612b85565b611b6b565b8180156103f557600080fd5b50610409610404366004612c49565b611baf565b60405161015b9190612dba565b61041e6121c8565b826000016000838152602001908152602001600020604051806080016040529081600082016040518060e00160405290816000820160009054906101000a900461ffff1661ffff1661ffff1681526020016000820160029054906101000a90046001600160401b03166001600160401b03166001600160401b0316815260200160008201600a9054906101000a900461ffff1661ffff1661ffff16815260200160008201600c9054906101000a900464ffffffffff1664ffffffffff1664ffffffffff1681526020016000820160119054906101000a900464ffffffffff1664ffffffffff1664ffffffffff1681526020016000820160169054906101000a900465ffffffffffff1665ffffffffffff1665ffffffffffff16815260200160008201601c9054906101000a900463ffffffff1663ffffffff1663ffffffff16815250508152602001600182016040518060e00160405290816000820160009054906101000a900464ffffffffff1664ffffffffff1664ffffffffff1681526020016000820160059054906101000a900465ffffffffffff1665ffffffffffff1665ffffffffffff16815260200160008201600b9054906101000a900465ffffffffffff1665ffffffffffff1665ffffffffffff1681526020016000820160119054906101000a900465ffffffffffff1665ffffffffffff1665ffffffffffff1681526020016000820160179054906101000a900465ffffffffffff1665ffffffffffff1665ffffffffffff16815260200160008201601d9054906101000a900461ffff1661ffff1661ffff16815260200160008201601f9054906101000a900460ff1660ff1660ff1681525050815260200160028201604051806102000160405290816000820160009054906101000a900461ffff1661ffff1661ffff1681526020016000820160029054906101000a900460ff1660ff1660ff1681526020016000820160039054906101000a900460ff1660ff1660ff1681526020016000820160049054906101000a900461ffff1661ffff1661ffff1681526020016000820160069054906101000a900461ffff1661ffff1661ffff1681526020016000820160089054906101000a900461ffff1661ffff1661ffff16815260200160008201600a9054906101000a900460ff1615151515815260200160008201600b9054906101000a900460ff1615151515815260200160008201600c9054906101000a900460ff1615151515815260200160008201600d9054906101000a900460ff1615151515815260200160008201600e9054906101000a900460ff1660ff1660ff16815260200160008201600f9054906101000a900460ff1660ff1660ff1681526020016000820160109054906101000a900460ff1660ff1660ff1681526020016000820160119054906101000a900460ff1660ff1660ff1681526020016000820160129054906101000a900460ff1660ff1660ff168152602001600182016002806020026040519081016040528092919082600280156108c1576020028201916000905b82829054906101000a900464ffffffffff1664ffffffffff16815260200190600501906020826004010492830192600103820291508084116108825790505b5050505050815250508152602001600482015481525050905092915050565b60008481526001860160205260408082209051631d6006dd60e21b8152600481019190915260248101859052604481018490526001600160a01b038316606482015273__$68438f465b222e285b1fb0cc5c3aa7ceb4$__906375801b749060840160206040518083038186803b15801561095957600080fd5b505af415801561096d573d6000803e3d6000fd5b505050506040513d601f19601f820116820180604052508101906109919190612dc8565b9695505050505050565b6000838152602085905260409020600481015483146109f95760405162461bcd60e51b81526020600482015260156024820152744d522e45523a2077726f6e6720636f6e74656e747360581b60448201526064015b60405180910390fd5b600181015460ff600160f81b90910416600314610a585760405162461bcd60e51b815260206004820152601860248201527f4d522e45523a206d6f74696f6e206e6f7420706173736564000000000000000060448201526064016109f0565b805464ffffffffff838116600160881b9092041614610aaf5760405162461bcd60e51b815260206004820152601360248201527226a91722a91d103737ba1032bc32b1baba37b960691b60448201526064016109f0565b60010180546001600160f81b0316600760f81b17905550505050565b600060035b600083815260208590526040902060010154600160f81b900460ff90811691161490505b92915050565b60408051606080820183526000808352602083015291810191909152600083815260018581016020526040918290209151632f859c2960e01b8152910160048201526024810183905273__$96a5e346267d6c5729e55e51038d941f73$__90632f859c299060440160006040518083038186803b158015610b7a57600080fd5b505af4158015610b8e573d6000803e3d6000fd5b505050506040513d6000823e601f3d908101601f19168201604052610bb69190810190612de5565b949350505050565b6040805160a08101825260008082526020820181905291810182905260608082019290925260808101919091526000838152600180860160209081526040808420868552825292839020835160a081018552815464ffffffffff811682526001600160401b03650100000000008204811683860152600160681b8204168287015263ffffffff600160a81b9091041660608201529281018054855181850281018501909652808652939491936080860193830182828015610ccc57602002820191906000526020600020906000905b82829054906101000a900464ffffffffff1664ffffffffff1681526020019060050190602082600401049283019260010382029150808411610c8d5790505b50505050508152505090509392505050565b6000848152602086905260408120600180820154600160f81b900460ff161480610d175750600181015460ff600160f81b909104166002145b610d585760405162461bcd60e51b81526020600482015260126024820152714d522e45443a2077726f6e6720737461746560701b60448201526064016109f0565b6000868152600188016020526040908190209051637960cf5b60e01b8152600481019190915260248101859052604481018690526064810184905273__$68438f465b222e285b1fb0cc5c3aa7ceb4$__90637960cf5b9060840160206040518083038186803b158015610dca57600080fd5b505af4158015610dde573d6000803e3d6000fd5b505050506040513d601f19601f82011682018060405250810190610e029190612edd565b979650505050505050565b6040805160e081018252600080825260208201819052918101829052606081018290526080810182905260a0810182905260c08101919091526000838152600185810160205260409182902091516309cec88160e11b8152910160048201526024810183905273__$96a5e346267d6c5729e55e51038d941f73$__9063139d91029060440160e06040518083038186803b158015610eaa57600080fd5b505af4158015610ebe573d6000803e3d6000fd5b505050506040513d601f19601f82011682018060405250810190610bb69190612efa565b60008281526020848152604080832060018701909252822060026001830154600160f81b900460ff908116911614610f515760405162461bcd60e51b81526020600482015260126024820152714d522e56543a2077726f6e6720737461746560701b60448201526064016109f0565b610f5b86866119e7565b610fa75760405162461bcd60e51b815260206004820152601960248201527f4d522e56543a20766f7465206e6f7420656e646564207965740000000000000060448201526064016109f0565b600080610fdd8360038601835b600691828204019190066005029054906101000a900464ffffffffff1664ffffffffff16612102565b158015610ff65750610ff483600386016001610fb4565b155b1561113b5760028401546601000000000000900461ffff16611019576001611090565b85516001600160401b031661102f576000611090565b60028401548651604080890151600160008181529088016020529190912054660100000000000090930461ffff169261106e919063ffffffff16612fa9565b61107a90612710612fd4565b6110849190613003565b6001600160401b031610155b6002850154909250600160401b900461ffff166110ae576001611138565b600086602001516001600160401b0316116110ca576000611138565b6002840154602087810151606089015160016000818152908801909352604090922054600160401b90930461ffff169290916111169164010000000090046001600160401b0316612fa9565b61112290612710612fd4565b61112c9190613003565b6001600160401b031610155b90505b8180156111455750805b61116a576002840154600160681b900460ff1661116357600561116d565b600661116d565b60035b60019490940180546001600160f81b0316600160f81b60ff968716810291909117918290559004909316979650505050505050565b60006002610ad0565b6111b3612231565b825161ffff166112055760405162461bcd60e51b815260206004820152601860248201527f4d522e434d3a207a65726f20747970654f664d6f74696f6e000000000000000060448201526064016109f0565b6000836040015161ffff16116112535760405162461bcd60e51b815260206004820152601360248201527226a91721a69d103d32b9379039b2b8a7b32b2960691b60448201526064016109f0565b6000836060015164ffffffffff16116112a35760405162461bcd60e51b815260206004820152601260248201527126a91721a69d103d32b9379031b0b63632b960711b60448201526064016109f0565b6112ac8461215d565b6001600160401b0316602084015265ffffffffffff421660a084015260006112d384611a24565b6040516313451ba360e11b81526002870160048201526024810182905290915073__$8c1a4844a0a0988ea2454cf87145a95df1$__9063268a37469060440160206040518083038186803b15801561132a57600080fd5b505af415801561133e573d6000803e3d6000fd5b505050506040513d601f19601f820116820180604052508101906113629190612edd565b505050602082810180516001600160401b03908116600090815295909252604094859020845181549251968601516060870151608088015160a089015160c08a015163ffffffff16600160e01b026001600160e01b0365ffffffffffff909216600160b01b0265ffffffffffff60b01b1964ffffffffff948516600160881b02166affffffffffffffffffffff60881b1994909516600160601b0264ffffffffff60601b1961ffff978816600160501b021666ffffffffffffff60501b199e909b16620100000269ffffffffffffffffffff19909a169690971695909517979097179a909a169690961792909217949094161792909217949094169390931783556004830155600190910180546001600160f81b0316600160f81b17905590565b6000828152600184810160205260408083209051636d4a140560e11b8152910160048201526024810183905273__$96a5e346267d6c5729e55e51038d941f73$__9063da94280a9060440160206040518083038186803b1580156114e657600080fd5b505af41580156114fa573d6000803e3d6000fd5b505050506040513d601f19601f82011682018060405250810190610bb69190612edd565b6000838152600185810160205260408083209051633279a5fd60e21b815291016004820152602481018490526044810183905273__$96a5e346267d6c5729e55e51038d941f73$__9063c9e697f49060640160206040518083038186803b15801561158857600080fd5b505af415801561159c573d6000803e3d6000fd5b505050506040513d601f19601f820116820180604052508101906115c09190612edd565b95945050505050565b600080861161161a5760405162461bcd60e51b815260206004820152601760248201527f4d522e43563a207a65726f207365714f664d6f74696f6e00000000000000000060448201526064016109f0565b6000851161165d5760405162461bcd60e51b815260206004820152601060248201526f13548b90d58e881e995c9bc81858d8dd60821b60448201526064016109f0565b60008681526020888152604080832060018b0183528184208985529283905292206116888a8a6119a7565b801561169b57506116998a8a6119e7565b155b80156116ad5750805464ffffffffff16155b1561199a578054600160a81b900463ffffffff16158015906116de57508054600160681b90046001600160401b0316155b156117c2576001830154604051631d6006dd60e21b815260048101849052602481018a9052600160581b90910465ffffffffffff1660448201526001600160a01b038616606482015273__$68438f465b222e285b1fb0cc5c3aa7ceb4$__906375801b749060840160206040518083038186803b15801561175e57600080fd5b505af4158015611772573d6000803e3d6000fd5b505050506040513d601f19601f820116820180604052508101906117969190612dc8565b81546001600160401b0391909116600160681b0267ffffffffffffffff60681b1990911617815561189b565b6001830154604051632bf82aab60e01b8152600481018a9052600160581b90910465ffffffffffff1660248201526001600160a01b03861690632bf82aab9060440160206040518083038186803b15801561181c57600080fd5b505afa158015611830573d6000803e3d6000fd5b505050506040513d601f19601f820116820180604052508101906118549190612dc8565b81548290600d90611876908490600160681b90046001600160401b0316612fa9565b92506101000a8154816001600160401b0302191690836001600160401b031602179055505b8054600160a81b900463ffffffff168160156118b683613037565b82546101009290920a63ffffffff81810219909316918316021790915582546040516311622f3b60e21b8152600186016004820152602481018c9052604481018b9052600160a81b82049092166064830152600160681b90046001600160401b0316608482015260a4810188905273__$96a5e346267d6c5729e55e51038d941f73$__9150634588bcec9060c40160206040518083038186803b15801561195c57600080fd5b505af4158015611970573d6000803e3d6000fd5b505050506040513d601f19601f820116820180604052508101906119949190612edd565b50600193505b5050509695505050505050565b60006119b383836111a2565b80156119e0575060008281526020849052604090206001015442600160881b90910465ffffffffffff1611155b9392505050565b60006119f383836111a2565b80156119e05750506000908152602091909152604090206001015442600160b81b90910465ffffffffffff16111590565b600080826000015183602001518460400151856060015186608001518760a001518860c00151604051602001611ab5979695949392919061ffff97881681526001600160401b0396909616602087015293909516604085015264ffffffffff918216606085015216608083015265ffffffffffff9290921660a082015263ffffffff9190911660c082015260e00190565b60408051601f19818403018152919052602001519392505050565b6000828152600184016020526040808220905163154a26c760e31b815260048101919091526024810183905273__$68438f465b222e285b1fb0cc5c3aa7ceb4$__9063aa5136389060440160206040518083038186803b158015611b3357600080fd5b505af4158015611b47573d6000803e3d6000fd5b505050506040513d601f19601f82011682018060405250810190610bb6919061305b565b611b73612231565b60408051602080825281830190925260009160208201818036833701905050905060208301519050808060200190518101906119e09190613074565b6040805160e081018252600080825260208201819052918101829052606081018290526080810182905260a0810182905260c081019190915260008211611c2d5760405162461bcd60e51b815260206004820152601260248201527126a91728269d103d32b9379031b0b63632b960711b60448201526064016109f0565b600084815260208690526040902083518154600160501b900461ffff908116911614611c925760405162461bcd60e51b815260206004820152601460248201527326a91728269d103bb937b7339039b2b8a7b32b2960611b60448201526064016109f0565b600181810154600160f81b900460ff1614611ce45760405162461bcd60e51b81526020600482015260126024820152714d522e504d3a2077726f6e6720737461746560701b60448201526064016109f0565b60004290506040518060e001604052808564ffffffffff1681526020018265ffffffffffff16815260200186610180015160ff1662015180611d269190613114565b611d309084613139565b65ffffffffffff16815260200186610180015160ff1662015180611d549190613114565b611d5e9084613139565b65ffffffffffff168152602001866101a0015160ff1687610180015160ff16611d879190613139565b611d949062015180613114565b611d9e9084613139565b65ffffffffffff16815260006020820152604001600260ff168152509250828260010160008201518160000160006101000a81548164ffffffffff021916908364ffffffffff16021790555060208201518160000160056101000a81548165ffffffffffff021916908365ffffffffffff160217905550604082015181600001600b6101000a81548165ffffffffffff021916908365ffffffffffff16021790555060608201518160000160116101000a81548165ffffffffffff021916908365ffffffffffff16021790555060808201518160000160176101000a81548165ffffffffffff021916908365ffffffffffff16021790555060a082015181600001601d6101000a81548161ffff021916908361ffff16021790555060c082015181600001601f6101000a81548160ff021916908360ff160217905550905050848260020160008201518160000160006101000a81548161ffff021916908361ffff16021790555060208201518160000160026101000a81548160ff021916908360ff16021790555060408201518160000160036101000a81548160ff021916908360ff16021790555060608201518160000160046101000a81548161ffff021916908361ffff16021790555060808201518160000160066101000a81548161ffff021916908361ffff16021790555060a08201518160000160086101000a81548161ffff021916908361ffff16021790555060c082015181600001600a6101000a81548160ff02191690831515021790555060e082015181600001600b6101000a81548160ff02191690831515021790555061010082015181600001600c6101000a81548160ff02191690831515021790555061012082015181600001600d6101000a81548160ff02191690831515021790555061014082015181600001600e6101000a81548160ff021916908360ff16021790555061016082015181600001600f6101000a81548160ff021916908360ff1602179055506101808201518160000160106101000a81548160ff021916908360ff1602179055506101a08201518160000160116101000a81548160ff021916908360ff1602179055506101c08201518160000160126101000a81548160ff021916908360ff1602179055506101e0820151816001019060026120f492919061226d565b509050505050949350505050565b600080821180156119e057506000828152600284016020526040902054600160901b900465ffffffffffff1615806119e05750506000908152600291909101602052604090205460ff65010000000000909104166001141590565b600080805260208290526040812080546201000090046001600160401b03169060026121888361315a565b82546101009290920a6001600160401b03818102199093169183160217909155600080805260209490945260409093205462010000900490921692915050565b60405180608001604052806121db612231565b81526040805160e08101825260008082526020828101829052928201819052606082018190526080820181905260a0820181905260c0820152910190815260200161222461230c565b8152602001600081525090565b6040805160e081018252600080825260208201819052918101829052606081018290526080810182905260a0810182905260c081019190915290565b6001830191839082156122fc5791602002820160005b838211156122c957835183826101000a81548164ffffffffff021916908364ffffffffff1602179055509260200192600501602081600401049283019260010302612283565b80156122fa5782816101000a81549064ffffffffff02191690556005016020816004010492830192600103026122c9565b505b50612308929150612397565b5090565b6040805161020081018252600080825260208201819052918101829052606081018290526080810182905260a0810182905260c0810182905260e08101829052610100810182905261012081018290526101408101829052610160810182905261018081018290526101a081018290526101c08101919091526101e081016123926123ac565b905290565b5b808211156123085760008155600101612398565b60405180604001604052806002906020820280368337509192915050565b600080604083850312156123dd57600080fd5b50508035926020909101359150565b61ffff8082511683526001600160401b03602083015116602084015280604083015116604084015250606081015164ffffffffff8082166060850152806080840151166080850152505065ffffffffffff60a08201511660a083015263ffffffff60c08201511660c08301525050565b64ffffffffff8151168252602081015165ffffffffffff8082166020850152806040840151166040850152806060840151166060850152806080840151166080850152505061ffff60a08201511660a083015260ff60c08201511660c08301525050565b8060005b60028110156124ea57815164ffffffffff168452602093840193909101906001016124c4565b50505050565b6000610400820190506125048284516123ec565b602083015161251660e084018261245c565b5060408301516101c061252f818501835161ffff169052565b60208201516101e06125458187018360ff169052565b604084015160ff908116610200880152606085015161ffff9081166102208901526080860151811661024089015260a08601511661026088015260c0850151151561028088015260e085015115156102a088015261010085015115156102c088015261012085015115156102e08801526101408501518116610300880152610160850151811661032088015261018085015181166103408801526101a085015181166103608801529284015190921661038086015250015161260b6103a08401826124c0565b5060608301516103e083015292915050565b80356001600160a01b038116811461263457600080fd5b919050565b600080600080600060a0868803121561265157600080fd5b853594506020860135935060408601359250606086013591506126766080870161261d565b90509295509295909350565b6000806000806080858703121561269857600080fd5b5050823594602084013594506040840135936060013592509050565b6000806000606084860312156126c957600080fd5b505081359360208301359350604090920135919050565b600060208083526080830163ffffffff855116828501526001600160401b0382860151166040850152604085015160608086015281815180845260a0870191508483019350600092505b8083101561274a578351825292840192600192909201919084019061272a565b509695505050505050565b6000602080835260c0830164ffffffffff8086511683860152828601516001600160401b038082166040880152806040890151166060880152505063ffffffff6060870151166080860152608086015160a08087015282815180855260e0880191508583019450600092505b808310156127e3578451841682529385019360019290920191908501906127c1565b50979650505050505050565b600080600080600060a0868803121561280757600080fd5b505083359560208501359550604085013594606081013594506080013592509050565b634e487b7160e01b600052604160045260246000fd5b60405161020081016001600160401b03811182821017156128635761286361282a565b60405290565b604051606081016001600160401b03811182821017156128635761286361282a565b60405160e081016001600160401b03811182821017156128635761286361282a565b604051601f8201601f191681016001600160401b03811182821017156128d5576128d561282a565b604052919050565b6001600160401b03811681146128f257600080fd5b50565b600080600083850360c081121561290b57600080fd5b84359350602085013592506080603f198201121561292857600080fd5b50604051608081018181106001600160401b038211171561294b5761294b61282a565b604090815285013561295c816128dd565b8152606085013561296c816128dd565b6020820152608085013561297f816128dd565b604082015260a0850135612992816128dd565b606082015292959194509192509050565b61ffff811681146128f257600080fd5b8035612634816129a3565b64ffffffffff811681146128f257600080fd5b8035612634816129be565b65ffffffffffff811681146128f257600080fd5b8035612634816129dc565b63ffffffff811681146128f257600080fd5b8035612634816129fb565b600060e08284031215612a2a57600080fd5b60405160e081018181106001600160401b0382111715612a4c57612a4c61282a565b6040529050808235612a5d816129a3565b81526020830135612a6d816128dd565b60208201526040830135612a80816129a3565b60408201526060830135612a93816129be565b6060820152612aa4608084016129d1565b6080820152612ab560a084016129f0565b60a0820152612ac660c08401612a0d565b60c08201525092915050565b60008060006101208486031215612ae857600080fd5b83359250612af98560208601612a18565b915061010084013590509250925092565b60e08101610af482846123ec565b60008060008060008060c08789031215612b3157600080fd5b8635955060208701359450604087013593506060870135925060808701359150612b5d60a0880161261d565b90509295509295509295565b600060e08284031215612b7b57600080fd5b6119e08383612a18565b600060208284031215612b9757600080fd5b5035919050565b60ff811681146128f257600080fd5b803561263481612b9e565b80151581146128f257600080fd5b803561263481612bb8565b600082601f830112612be257600080fd5b604051604081018181106001600160401b0382111715612c0457612c0461282a565b8060405250806040840185811115612c1b57600080fd5b845b81811015612c3e578035612c30816129be565b835260209283019201612c1d565b509195945050505050565b600080600080848603610280811215612c6157600080fd5b853594506020860135935061022080603f1983011215612c8057600080fd5b612c88612840565b9150612c96604088016129b3565b8252612ca460608801612bad565b6020830152612cb560808801612bad565b6040830152612cc660a088016129b3565b6060830152612cd760c088016129b3565b6080830152612ce860e088016129b3565b60a0830152610100612cfb818901612bc6565b60c0840152610120612d0e818a01612bc6565b60e0850152610140612d21818b01612bc6565b838601526101609250612d35838b01612bc6565b828601526101809150612d49828b01612bad565b908501526101a0612d5b8a8201612bad565b838601526101c09250612d6f838b01612bad565b828601526101e09150612d83828b01612bad565b90850152612d946102008a01612bad565b82850152612da48a848b01612bd1565b9084015250949793965094610260013593505050565b60e08101610af4828461245c565b600060208284031215612dda57600080fd5b81516119e0816128dd565b60006020808385031215612df857600080fd5b82516001600160401b0380821115612e0f57600080fd5b9084019060608287031215612e2357600080fd5b612e2b612869565b8251612e36816129fb565b815282840151612e45816128dd565b81850152604083015182811115612e5b57600080fd5b80840193505086601f840112612e7057600080fd5b825182811115612e8257612e8261282a565b8060051b9250612e938584016128ad565b8181529284018501928581019089851115612ead57600080fd5b948601945b84861015612ecb57855182529486019490860190612eb2565b60408401525090979650505050505050565b600060208284031215612eef57600080fd5b81516119e081612bb8565b600060e08284031215612f0c57600080fd5b612f1461288b565b8251612f1f816129be565b81526020830151612f2f81612b9e565b60208201526040830151612f42816129fb565b60408201526060830151612f55816128dd565b60608201526080830151612f68816129dc565b608082015260a0830151612f7b816128dd565b60a082015260c0928301519281019290925250919050565b634e487b7160e01b600052601160045260246000fd5b60006001600160401b03808316818516808303821115612fcb57612fcb612f93565b01949350505050565b60006001600160401b0380831681851681830481118215151615612ffa57612ffa612f93565b02949350505050565b60006001600160401b038084168061302b57634e487b7160e01b600052601260045260246000fd5b92169190910492915050565b600063ffffffff8083168181141561305157613051612f93565b6001019392505050565b60006020828403121561306d57600080fd5b5051919050565b600060e0828403121561308657600080fd5b61308e61288b565b8251613099816129a3565b815260208301516130a9816128dd565b602082015260408301516130bc816129a3565b604082015260608301516130cf816129be565b606082015260808301516130e2816129be565b608082015260a08301516130f5816129dc565b60a082015260c0830151613108816129fb565b60c08201529392505050565b600065ffffffffffff80831681851681830481118215151615612ffa57612ffa612f93565b600065ffffffffffff808316818516808303821115612fcb57612fcb612f93565b60006001600160401b038083168181141561305157613051612f9356fea26469706673582212201b46d126800d17729035a1253aeed07cd770029d5ad208e155cc3db300ae95f864736f6c63430008080033",
    "sourcePath": "/Users/kaptain/github.com/hardhat/comboox/contracts/common/lib/MotionsRepo.sol",
    "compiler": {
        "name": "solc",
        "version": "0.8.8+commit.dddeac2f"
    },
    "functionHashes": {
        "castVote(MotionsRepo.Repo storage,uint256,uint256,uint256,bytes32,IRegisterOfMembers)": "bfdb5244",
        "codifyHead(MotionsRepo.Head)": "f138788e",
        "createMotion(MotionsRepo.Repo storage,MotionsRepo.Head,uint256)": "a64ee9bd",
        "entrustDelegate(MotionsRepo.Repo storage,uint256,uint256,uint256,uint256)": "50a11799",
        "execResolution(MotionsRepo.Repo storage,uint256,uint256,uint256)": "1541559a",
        "getBallot(MotionsRepo.Repo storage,uint256,uint256)": "5eeb98eb",
        "getCaseOfAttitude(MotionsRepo.Repo storage,uint256,uint256)": "41335f35",
        "getDelegateOf(MotionsRepo.Repo storage,uint256,uint256)": "f147aaca",
        "getLeavesWeightAtDate(MotionsRepo.Repo storage,uint256,uint256,uint256,IRegisterOfMembers)": "07621e53",
        "getMotion(MotionsRepo.Repo storage,uint256)": "0363eeeb",
        "getVoterOfDelegateMap(MotionsRepo.Repo storage,uint256,uint256)": "44aeddf2",
        "isPassed(MotionsRepo.Repo storage,uint256)": "3ac594d6",
        "isProposed(MotionsRepo.Repo storage,uint256)": "7d359cfe",
        "isVoted(MotionsRepo.Repo storage,uint256,uint256)": "b34299c9",
        "isVotedFor(MotionsRepo.Repo storage,uint256,uint256,uint256)": "befe8fe0",
        "proposeMotion(MotionsRepo.Repo storage,uint256,RulesParser.VotingRule,uint256)": "fe3aba27",
        "snParser(bytes32)": "fbfad28e",
        "voteCounting(MotionsRepo.Repo storage,uint256,MotionsRepo.VoteCalBase)": "77990786",
        "voteEnded(MotionsRepo.Repo storage,uint256)": "e346601c",
        "voteStarted(MotionsRepo.Repo storage,uint256)": "cc526e6b"
    },
    "gasEstimates": {
        "creation": {
            "codeDepositCost": "2543400",
            "executionCost": "2779",
            "totalCost": "2546179"
        },
        "external": {
            "castVote(MotionsRepo.Repo storage,uint256,uint256,uint256,bytes32,IRegisterOfMembers)": "infinite",
            "codifyHead(MotionsRepo.Head)": "infinite",
            "createMotion(MotionsRepo.Repo storage,MotionsRepo.Head,uint256)": "infinite",
            "entrustDelegate(MotionsRepo.Repo storage,uint256,uint256,uint256,uint256)": "infinite",
            "execResolution(MotionsRepo.Repo storage,uint256,uint256,uint256)": "31119",
            "getBallot(MotionsRepo.Repo storage,uint256,uint256)": "infinite",
            "getCaseOfAttitude(MotionsRepo.Repo storage,uint256,uint256)": "infinite",
            "getDelegateOf(MotionsRepo.Repo storage,uint256,uint256)": "infinite",
            "getLeavesWeightAtDate(MotionsRepo.Repo storage,uint256,uint256,uint256,IRegisterOfMembers)": "infinite",
            "getMotion(MotionsRepo.Repo storage,uint256)": "infinite",
            "getVoterOfDelegateMap(MotionsRepo.Repo storage,uint256,uint256)": "infinite",
            "isPassed(MotionsRepo.Repo storage,uint256)": "2620",
            "isProposed(MotionsRepo.Repo storage,uint256)": "2652",
            "isVoted(MotionsRepo.Repo storage,uint256,uint256)": "infinite",
            "isVotedFor(MotionsRepo.Repo storage,uint256,uint256,uint256)": "infinite",
            "proposeMotion(MotionsRepo.Repo storage,uint256,RulesParser.VotingRule,uint256)": "infinite",
            "snParser(bytes32)": "infinite",
            "voteCounting(MotionsRepo.Repo storage,uint256,MotionsRepo.VoteCalBase)": "infinite",
            "voteEnded(MotionsRepo.Repo storage,uint256)": "4837",
            "voteStarted(MotionsRepo.Repo storage,uint256)": "4931"
        },
        "internal": {
            "_increaseCounterOfMotion(struct MotionsRepo.Repo storage pointer)": "28867",
            "_isVetoed(struct MotionsRepo.Record storage pointer,uint256)": "4482"
        }
    }
}