{
    "contractName": "RegisterOfMembers",
    "abi": [
        {
            "anonymous": false,
            "inputs": [
                {
                    "indexed": true,
                    "internalType": "uint256",
                    "name": "acct",
                    "type": "uint256"
                },
                {
                    "indexed": false,
                    "internalType": "uint32",
                    "name": "qtyOfMembers",
                    "type": "uint32"
                }
            ],
            "name": "AddMember",
            "type": "event"
        },
        {
            "anonymous": false,
            "inputs": [
                {
                    "indexed": true,
                    "internalType": "uint40",
                    "name": "acct",
                    "type": "uint40"
                },
                {
                    "indexed": true,
                    "internalType": "uint40",
                    "name": "root",
                    "type": "uint40"
                }
            ],
            "name": "AddMemberToGroup",
            "type": "event"
        },
        {
            "anonymous": false,
            "inputs": [
                {
                    "indexed": true,
                    "internalType": "uint32",
                    "name": "seqOfShare",
                    "type": "uint32"
                },
                {
                    "indexed": true,
                    "internalType": "uint40",
                    "name": "acct",
                    "type": "uint40"
                }
            ],
            "name": "AddShareToMember",
            "type": "event"
        },
        {
            "anonymous": false,
            "inputs": [
                {
                    "indexed": false,
                    "internalType": "uint64",
                    "name": "paid",
                    "type": "uint64"
                },
                {
                    "indexed": false,
                    "internalType": "uint64",
                    "name": "par",
                    "type": "uint64"
                }
            ],
            "name": "CapDecrease",
            "type": "event"
        },
        {
            "anonymous": false,
            "inputs": [
                {
                    "indexed": false,
                    "internalType": "uint64",
                    "name": "paid",
                    "type": "uint64"
                },
                {
                    "indexed": false,
                    "internalType": "uint64",
                    "name": "par",
                    "type": "uint64"
                }
            ],
            "name": "CapIncrease",
            "type": "event"
        },
        {
            "anonymous": false,
            "inputs": [
                {
                    "indexed": true,
                    "internalType": "uint40",
                    "name": "acct",
                    "type": "uint40"
                },
                {
                    "indexed": false,
                    "internalType": "uint64",
                    "name": "paid",
                    "type": "uint64"
                },
                {
                    "indexed": false,
                    "internalType": "uint64",
                    "name": "par",
                    "type": "uint64"
                },
                {
                    "indexed": false,
                    "internalType": "bool",
                    "name": "increase",
                    "type": "bool"
                }
            ],
            "name": "ChangeAmtOfMember",
            "type": "event"
        },
        {
            "anonymous": false,
            "inputs": [
                {
                    "indexed": true,
                    "internalType": "uint256",
                    "name": "orgRep",
                    "type": "uint256"
                },
                {
                    "indexed": true,
                    "internalType": "uint256",
                    "name": "newRep",
                    "type": "uint256"
                }
            ],
            "name": "ChangeGroupRep",
            "type": "event"
        },
        {
            "anonymous": false,
            "inputs": [
                {
                    "indexed": true,
                    "internalType": "uint40",
                    "name": "acct",
                    "type": "uint40"
                },
                {
                    "indexed": false,
                    "internalType": "uint64",
                    "name": "paid",
                    "type": "uint64"
                },
                {
                    "indexed": false,
                    "internalType": "uint64",
                    "name": "par",
                    "type": "uint64"
                },
                {
                    "indexed": false,
                    "internalType": "uint64",
                    "name": "blocknumber",
                    "type": "uint64"
                }
            ],
            "name": "DecreaseAmountFromMember",
            "type": "event"
        },
        {
            "anonymous": false,
            "inputs": [
                {
                    "indexed": false,
                    "internalType": "uint256",
                    "name": "owner",
                    "type": "uint256"
                },
                {
                    "indexed": false,
                    "internalType": "address",
                    "name": "directKeeper",
                    "type": "address"
                },
                {
                    "indexed": false,
                    "internalType": "address",
                    "name": "regCenter",
                    "type": "address"
                },
                {
                    "indexed": false,
                    "internalType": "address",
                    "name": "generalKeeper",
                    "type": "address"
                }
            ],
            "name": "Init",
            "type": "event"
        },
        {
            "anonymous": false,
            "inputs": [],
            "name": "LockContents",
            "type": "event"
        },
        {
            "anonymous": false,
            "inputs": [
                {
                    "indexed": true,
                    "internalType": "uint256",
                    "name": "acct",
                    "type": "uint256"
                },
                {
                    "indexed": true,
                    "internalType": "uint256",
                    "name": "root",
                    "type": "uint256"
                }
            ],
            "name": "RemoveMemberFromGroup",
            "type": "event"
        },
        {
            "anonymous": false,
            "inputs": [
                {
                    "indexed": true,
                    "internalType": "uint32",
                    "name": "seqOfShare",
                    "type": "uint32"
                },
                {
                    "indexed": true,
                    "internalType": "uint40",
                    "name": "acct",
                    "type": "uint40"
                }
            ],
            "name": "RemoveShareFromMember",
            "type": "event"
        },
        {
            "anonymous": false,
            "inputs": [
                {
                    "indexed": false,
                    "internalType": "bool",
                    "name": "basedOnPar",
                    "type": "bool"
                }
            ],
            "name": "SetAmtBase",
            "type": "event"
        },
        {
            "anonymous": false,
            "inputs": [
                {
                    "indexed": false,
                    "internalType": "address",
                    "name": "keeper",
                    "type": "address"
                }
            ],
            "name": "SetDirectKeeper",
            "type": "event"
        },
        {
            "anonymous": false,
            "inputs": [
                {
                    "indexed": false,
                    "internalType": "uint256",
                    "name": "acct",
                    "type": "uint256"
                }
            ],
            "name": "SetGeneralCounsel",
            "type": "event"
        },
        {
            "anonymous": false,
            "inputs": [
                {
                    "indexed": false,
                    "internalType": "address",
                    "name": "gk",
                    "type": "address"
                }
            ],
            "name": "SetGeneralKeeper",
            "type": "event"
        },
        {
            "anonymous": false,
            "inputs": [
                {
                    "indexed": false,
                    "internalType": "uint32",
                    "name": "max",
                    "type": "uint32"
                }
            ],
            "name": "SetMaxQtyOfMembers",
            "type": "event"
        },
        {
            "anonymous": false,
            "inputs": [
                {
                    "indexed": false,
                    "internalType": "uint256",
                    "name": "acct",
                    "type": "uint256"
                }
            ],
            "name": "SetOwner",
            "type": "event"
        },
        {
            "anonymous": false,
            "inputs": [
                {
                    "indexed": false,
                    "internalType": "address",
                    "name": "rc",
                    "type": "address"
                }
            ],
            "name": "SetRegCenter",
            "type": "event"
        },
        {
            "anonymous": false,
            "inputs": [
                {
                    "indexed": false,
                    "internalType": "bool",
                    "name": "basedOnPar",
                    "type": "bool"
                }
            ],
            "name": "SetVoteBase",
            "type": "event"
        },
        {
            "inputs": [
                {
                    "internalType": "bytes32",
                    "name": "role",
                    "type": "bytes32"
                }
            ],
            "name": "abandonRole",
            "outputs": [],
            "stateMutability": "nonpayable",
            "type": "function"
        },
        {
            "inputs": [
                {
                    "internalType": "uint256",
                    "name": "acct",
                    "type": "uint256"
                }
            ],
            "name": "addMember",
            "outputs": [],
            "stateMutability": "nonpayable",
            "type": "function"
        },
        {
            "inputs": [
                {
                    "internalType": "uint40",
                    "name": "acct",
                    "type": "uint40"
                },
                {
                    "internalType": "uint40",
                    "name": "root",
                    "type": "uint40"
                }
            ],
            "name": "addMemberToGroup",
            "outputs": [],
            "stateMutability": "nonpayable",
            "type": "function"
        },
        {
            "inputs": [
                {
                    "components": [
                        {
                            "components": [
                                {
                                    "internalType": "uint32",
                                    "name": "seq",
                                    "type": "uint32"
                                },
                                {
                                    "internalType": "uint32",
                                    "name": "preSeq",
                                    "type": "uint32"
                                },
                                {
                                    "internalType": "uint16",
                                    "name": "class",
                                    "type": "uint16"
                                },
                                {
                                    "internalType": "uint48",
                                    "name": "issueDate",
                                    "type": "uint48"
                                },
                                {
                                    "internalType": "uint48",
                                    "name": "payInDeadline",
                                    "type": "uint48"
                                },
                                {
                                    "internalType": "uint40",
                                    "name": "shareholder",
                                    "type": "uint40"
                                },
                                {
                                    "internalType": "uint32",
                                    "name": "price",
                                    "type": "uint32"
                                },
                                {
                                    "internalType": "uint8",
                                    "name": "state",
                                    "type": "uint8"
                                }
                            ],
                            "internalType": "struct SharesRepo.Head",
                            "name": "head",
                            "type": "tuple"
                        },
                        {
                            "components": [
                                {
                                    "internalType": "uint64",
                                    "name": "paid",
                                    "type": "uint64"
                                },
                                {
                                    "internalType": "uint64",
                                    "name": "par",
                                    "type": "uint64"
                                },
                                {
                                    "internalType": "uint64",
                                    "name": "cleanPaid",
                                    "type": "uint64"
                                },
                                {
                                    "internalType": "uint64",
                                    "name": "cleanPar",
                                    "type": "uint64"
                                }
                            ],
                            "internalType": "struct SharesRepo.Body",
                            "name": "body",
                            "type": "tuple"
                        }
                    ],
                    "internalType": "struct SharesRepo.Share",
                    "name": "share",
                    "type": "tuple"
                }
            ],
            "name": "addShareToMember",
            "outputs": [],
            "stateMutability": "nonpayable",
            "type": "function"
        },
        {
            "inputs": [
                {
                    "internalType": "uint256",
                    "name": "acct1",
                    "type": "uint256"
                },
                {
                    "internalType": "uint256",
                    "name": "acct2",
                    "type": "uint256"
                }
            ],
            "name": "affiliated",
            "outputs": [
                {
                    "internalType": "bool",
                    "name": "",
                    "type": "bool"
                }
            ],
            "stateMutability": "view",
            "type": "function"
        },
        {
            "inputs": [],
            "name": "basedOnPar",
            "outputs": [
                {
                    "internalType": "bool",
                    "name": "",
                    "type": "bool"
                }
            ],
            "stateMutability": "view",
            "type": "function"
        },
        {
            "inputs": [
                {
                    "internalType": "uint48",
                    "name": "date",
                    "type": "uint48"
                }
            ],
            "name": "capAtDate",
            "outputs": [
                {
                    "components": [
                        {
                            "internalType": "uint48",
                            "name": "timestamp",
                            "type": "uint48"
                        },
                        {
                            "internalType": "uint64",
                            "name": "paid",
                            "type": "uint64"
                        },
                        {
                            "internalType": "uint64",
                            "name": "par",
                            "type": "uint64"
                        },
                        {
                            "internalType": "uint64",
                            "name": "cleanPaid",
                            "type": "uint64"
                        }
                    ],
                    "internalType": "struct Checkpoints.Checkpoint",
                    "name": "cap",
                    "type": "tuple"
                }
            ],
            "stateMutability": "view",
            "type": "function"
        },
        {
            "inputs": [
                {
                    "internalType": "uint64",
                    "name": "paid",
                    "type": "uint64"
                },
                {
                    "internalType": "uint64",
                    "name": "par",
                    "type": "uint64"
                }
            ],
            "name": "capDecrease",
            "outputs": [],
            "stateMutability": "nonpayable",
            "type": "function"
        },
        {
            "inputs": [
                {
                    "internalType": "uint64",
                    "name": "paid",
                    "type": "uint64"
                },
                {
                    "internalType": "uint64",
                    "name": "par",
                    "type": "uint64"
                }
            ],
            "name": "capIncrease",
            "outputs": [],
            "stateMutability": "nonpayable",
            "type": "function"
        },
        {
            "inputs": [
                {
                    "internalType": "uint40",
                    "name": "acct",
                    "type": "uint40"
                },
                {
                    "internalType": "uint64",
                    "name": "deltaPaid",
                    "type": "uint64"
                },
                {
                    "internalType": "uint64",
                    "name": "deltaPar",
                    "type": "uint64"
                },
                {
                    "internalType": "bool",
                    "name": "increase",
                    "type": "bool"
                }
            ],
            "name": "changeAmtOfMember",
            "outputs": [],
            "stateMutability": "nonpayable",
            "type": "function"
        },
        {
            "inputs": [],
            "name": "controllor",
            "outputs": [
                {
                    "internalType": "uint40",
                    "name": "",
                    "type": "uint40"
                }
            ],
            "stateMutability": "view",
            "type": "function"
        },
        {
            "inputs": [
                {
                    "internalType": "uint256",
                    "name": "acct",
                    "type": "uint256"
                }
            ],
            "name": "deepOfGroup",
            "outputs": [
                {
                    "internalType": "uint256",
                    "name": "",
                    "type": "uint256"
                }
            ],
            "stateMutability": "view",
            "type": "function"
        },
        {
            "inputs": [],
            "name": "finalized",
            "outputs": [
                {
                    "internalType": "bool",
                    "name": "",
                    "type": "bool"
                }
            ],
            "stateMutability": "view",
            "type": "function"
        },
        {
            "inputs": [],
            "name": "getBookeeper",
            "outputs": [
                {
                    "internalType": "address",
                    "name": "",
                    "type": "address"
                }
            ],
            "stateMutability": "view",
            "type": "function"
        },
        {
            "inputs": [],
            "name": "getGeneralCounsel",
            "outputs": [
                {
                    "internalType": "uint40",
                    "name": "",
                    "type": "uint40"
                }
            ],
            "stateMutability": "view",
            "type": "function"
        },
        {
            "inputs": [
                {
                    "internalType": "uint16",
                    "name": "class",
                    "type": "uint16"
                }
            ],
            "name": "getMembersOfClass",
            "outputs": [
                {
                    "internalType": "uint256[]",
                    "name": "members",
                    "type": "uint256[]"
                }
            ],
            "stateMutability": "view",
            "type": "function"
        },
        {
            "inputs": [],
            "name": "getOwner",
            "outputs": [
                {
                    "internalType": "uint40",
                    "name": "",
                    "type": "uint40"
                }
            ],
            "stateMutability": "view",
            "type": "function"
        },
        {
            "inputs": [],
            "name": "getSnapshot",
            "outputs": [
                {
                    "components": [
                        {
                            "internalType": "uint40",
                            "name": "prev",
                            "type": "uint40"
                        },
                        {
                            "internalType": "uint40",
                            "name": "next",
                            "type": "uint40"
                        },
                        {
                            "internalType": "uint40",
                            "name": "ptr",
                            "type": "uint40"
                        },
                        {
                            "internalType": "uint64",
                            "name": "amt",
                            "type": "uint64"
                        },
                        {
                            "internalType": "uint64",
                            "name": "sum",
                            "type": "uint64"
                        },
                        {
                            "internalType": "uint8",
                            "name": "cat",
                            "type": "uint8"
                        }
                    ],
                    "internalType": "struct TopChain.Node[]",
                    "name": "",
                    "type": "tuple[]"
                }
            ],
            "stateMutability": "view",
            "type": "function"
        },
        {
            "inputs": [
                {
                    "internalType": "bytes32",
                    "name": "role",
                    "type": "bytes32"
                },
                {
                    "internalType": "uint256",
                    "name": "acct",
                    "type": "uint256"
                }
            ],
            "name": "grantRole",
            "outputs": [],
            "stateMutability": "nonpayable",
            "type": "function"
        },
        {
            "inputs": [
                {
                    "internalType": "uint256",
                    "name": "acct",
                    "type": "uint256"
                }
            ],
            "name": "groupRep",
            "outputs": [
                {
                    "internalType": "uint40",
                    "name": "",
                    "type": "uint40"
                }
            ],
            "stateMutability": "view",
            "type": "function"
        },
        {
            "inputs": [
                {
                    "internalType": "bytes32",
                    "name": "role",
                    "type": "bytes32"
                },
                {
                    "internalType": "uint256",
                    "name": "acct",
                    "type": "uint256"
                }
            ],
            "name": "hasRole",
            "outputs": [
                {
                    "internalType": "bool",
                    "name": "",
                    "type": "bool"
                }
            ],
            "stateMutability": "view",
            "type": "function"
        },
        {
            "inputs": [
                {
                    "internalType": "uint256",
                    "name": "owner",
                    "type": "uint256"
                },
                {
                    "internalType": "address",
                    "name": "directKeeper",
                    "type": "address"
                },
                {
                    "internalType": "address",
                    "name": "regCenter",
                    "type": "address"
                },
                {
                    "internalType": "address",
                    "name": "generalKeeper",
                    "type": "address"
                }
            ],
            "name": "init",
            "outputs": [],
            "stateMutability": "nonpayable",
            "type": "function"
        },
        {
            "inputs": [
                {
                    "internalType": "uint256",
                    "name": "acct",
                    "type": "uint256"
                },
                {
                    "internalType": "uint16",
                    "name": "class",
                    "type": "uint16"
                }
            ],
            "name": "isClassMember",
            "outputs": [
                {
                    "internalType": "bool",
                    "name": "flag",
                    "type": "bool"
                }
            ],
            "stateMutability": "view",
            "type": "function"
        },
        {
            "inputs": [
                {
                    "internalType": "uint256",
                    "name": "acct",
                    "type": "uint256"
                }
            ],
            "name": "isGroupRep",
            "outputs": [
                {
                    "internalType": "bool",
                    "name": "",
                    "type": "bool"
                }
            ],
            "stateMutability": "view",
            "type": "function"
        },
        {
            "inputs": [
                {
                    "internalType": "uint256",
                    "name": "acct",
                    "type": "uint256"
                }
            ],
            "name": "isMember",
            "outputs": [
                {
                    "internalType": "bool",
                    "name": "",
                    "type": "bool"
                }
            ],
            "stateMutability": "view",
            "type": "function"
        },
        {
            "inputs": [
                {
                    "internalType": "uint256",
                    "name": "seqOfShare",
                    "type": "uint256"
                }
            ],
            "name": "isSeqOfShare",
            "outputs": [
                {
                    "internalType": "bool",
                    "name": "",
                    "type": "bool"
                }
            ],
            "stateMutability": "view",
            "type": "function"
        },
        {
            "inputs": [],
            "name": "lockContents",
            "outputs": [],
            "stateMutability": "nonpayable",
            "type": "function"
        },
        {
            "inputs": [],
            "name": "maxQtyOfMembers",
            "outputs": [
                {
                    "internalType": "uint32",
                    "name": "",
                    "type": "uint32"
                }
            ],
            "stateMutability": "view",
            "type": "function"
        },
        {
            "inputs": [],
            "name": "membersList",
            "outputs": [
                {
                    "internalType": "uint256[]",
                    "name": "",
                    "type": "uint256[]"
                }
            ],
            "stateMutability": "view",
            "type": "function"
        },
        {
            "inputs": [
                {
                    "internalType": "uint256",
                    "name": "acct",
                    "type": "uint256"
                }
            ],
            "name": "membersOfGroup",
            "outputs": [
                {
                    "internalType": "uint256[]",
                    "name": "",
                    "type": "uint256[]"
                }
            ],
            "stateMutability": "view",
            "type": "function"
        },
        {
            "inputs": [],
            "name": "ownersEquity",
            "outputs": [
                {
                    "components": [
                        {
                            "internalType": "uint48",
                            "name": "timestamp",
                            "type": "uint48"
                        },
                        {
                            "internalType": "uint64",
                            "name": "paid",
                            "type": "uint64"
                        },
                        {
                            "internalType": "uint64",
                            "name": "par",
                            "type": "uint64"
                        },
                        {
                            "internalType": "uint64",
                            "name": "cleanPaid",
                            "type": "uint64"
                        }
                    ],
                    "internalType": "struct Checkpoints.Checkpoint",
                    "name": "cap",
                    "type": "tuple"
                }
            ],
            "stateMutability": "view",
            "type": "function"
        },
        {
            "inputs": [],
            "name": "qtyOfGroups",
            "outputs": [
                {
                    "internalType": "uint256",
                    "name": "",
                    "type": "uint256"
                }
            ],
            "stateMutability": "view",
            "type": "function"
        },
        {
            "inputs": [],
            "name": "qtyOfMembers",
            "outputs": [
                {
                    "internalType": "uint32",
                    "name": "",
                    "type": "uint32"
                }
            ],
            "stateMutability": "view",
            "type": "function"
        },
        {
            "inputs": [
                {
                    "internalType": "uint256",
                    "name": "acct",
                    "type": "uint256"
                },
                {
                    "internalType": "uint256",
                    "name": "root",
                    "type": "uint256"
                }
            ],
            "name": "removeMemberFromGroup",
            "outputs": [],
            "stateMutability": "nonpayable",
            "type": "function"
        },
        {
            "inputs": [
                {
                    "components": [
                        {
                            "components": [
                                {
                                    "internalType": "uint32",
                                    "name": "seq",
                                    "type": "uint32"
                                },
                                {
                                    "internalType": "uint32",
                                    "name": "preSeq",
                                    "type": "uint32"
                                },
                                {
                                    "internalType": "uint16",
                                    "name": "class",
                                    "type": "uint16"
                                },
                                {
                                    "internalType": "uint48",
                                    "name": "issueDate",
                                    "type": "uint48"
                                },
                                {
                                    "internalType": "uint48",
                                    "name": "payInDeadline",
                                    "type": "uint48"
                                },
                                {
                                    "internalType": "uint40",
                                    "name": "shareholder",
                                    "type": "uint40"
                                },
                                {
                                    "internalType": "uint32",
                                    "name": "price",
                                    "type": "uint32"
                                },
                                {
                                    "internalType": "uint8",
                                    "name": "state",
                                    "type": "uint8"
                                }
                            ],
                            "internalType": "struct SharesRepo.Head",
                            "name": "head",
                            "type": "tuple"
                        },
                        {
                            "components": [
                                {
                                    "internalType": "uint64",
                                    "name": "paid",
                                    "type": "uint64"
                                },
                                {
                                    "internalType": "uint64",
                                    "name": "par",
                                    "type": "uint64"
                                },
                                {
                                    "internalType": "uint64",
                                    "name": "cleanPaid",
                                    "type": "uint64"
                                },
                                {
                                    "internalType": "uint64",
                                    "name": "cleanPar",
                                    "type": "uint64"
                                }
                            ],
                            "internalType": "struct SharesRepo.Body",
                            "name": "body",
                            "type": "tuple"
                        }
                    ],
                    "internalType": "struct SharesRepo.Share",
                    "name": "share",
                    "type": "tuple"
                }
            ],
            "name": "removeShareFromMember",
            "outputs": [],
            "stateMutability": "nonpayable",
            "type": "function"
        },
        {
            "inputs": [
                {
                    "internalType": "bytes32",
                    "name": "role",
                    "type": "bytes32"
                }
            ],
            "name": "renounceRole",
            "outputs": [],
            "stateMutability": "nonpayable",
            "type": "function"
        },
        {
            "inputs": [
                {
                    "internalType": "bytes32",
                    "name": "role",
                    "type": "bytes32"
                },
                {
                    "internalType": "uint256",
                    "name": "acct",
                    "type": "uint256"
                }
            ],
            "name": "revokeRole",
            "outputs": [],
            "stateMutability": "nonpayable",
            "type": "function"
        },
        {
            "inputs": [
                {
                    "internalType": "bool",
                    "name": "onPar",
                    "type": "bool"
                }
            ],
            "name": "setAmtBase",
            "outputs": [],
            "stateMutability": "nonpayable",
            "type": "function"
        },
        {
            "inputs": [
                {
                    "internalType": "address",
                    "name": "keeper",
                    "type": "address"
                }
            ],
            "name": "setDirectKeeper",
            "outputs": [],
            "stateMutability": "nonpayable",
            "type": "function"
        },
        {
            "inputs": [
                {
                    "internalType": "uint256",
                    "name": "acct",
                    "type": "uint256"
                }
            ],
            "name": "setGeneralCounsel",
            "outputs": [],
            "stateMutability": "nonpayable",
            "type": "function"
        },
        {
            "inputs": [
                {
                    "internalType": "uint32",
                    "name": "max",
                    "type": "uint32"
                }
            ],
            "name": "setMaxQtyOfMembers",
            "outputs": [],
            "stateMutability": "nonpayable",
            "type": "function"
        },
        {
            "inputs": [
                {
                    "internalType": "uint256",
                    "name": "acct",
                    "type": "uint256"
                }
            ],
            "name": "setOwner",
            "outputs": [],
            "stateMutability": "nonpayable",
            "type": "function"
        },
        {
            "inputs": [
                {
                    "internalType": "bytes32",
                    "name": "role",
                    "type": "bytes32"
                },
                {
                    "internalType": "uint256",
                    "name": "acct",
                    "type": "uint256"
                }
            ],
            "name": "setRoleAdmin",
            "outputs": [],
            "stateMutability": "nonpayable",
            "type": "function"
        },
        {
            "inputs": [
                {
                    "internalType": "bool",
                    "name": "onPar",
                    "type": "bool"
                }
            ],
            "name": "setVoteBase",
            "outputs": [],
            "stateMutability": "nonpayable",
            "type": "function"
        },
        {
            "inputs": [
                {
                    "internalType": "uint256",
                    "name": "acct",
                    "type": "uint256"
                }
            ],
            "name": "sharesClipOfMember",
            "outputs": [
                {
                    "components": [
                        {
                            "internalType": "uint48",
                            "name": "timestamp",
                            "type": "uint48"
                        },
                        {
                            "internalType": "uint64",
                            "name": "paid",
                            "type": "uint64"
                        },
                        {
                            "internalType": "uint64",
                            "name": "par",
                            "type": "uint64"
                        },
                        {
                            "internalType": "uint64",
                            "name": "cleanPaid",
                            "type": "uint64"
                        }
                    ],
                    "internalType": "struct Checkpoints.Checkpoint",
                    "name": "clip",
                    "type": "tuple"
                }
            ],
            "stateMutability": "view",
            "type": "function"
        },
        {
            "inputs": [
                {
                    "internalType": "uint256",
                    "name": "acct",
                    "type": "uint256"
                }
            ],
            "name": "sharesInHand",
            "outputs": [
                {
                    "internalType": "uint256[]",
                    "name": "list",
                    "type": "uint256[]"
                }
            ],
            "stateMutability": "view",
            "type": "function"
        },
        {
            "inputs": [],
            "name": "sharesList",
            "outputs": [
                {
                    "internalType": "uint256[]",
                    "name": "",
                    "type": "uint256[]"
                }
            ],
            "stateMutability": "view",
            "type": "function"
        },
        {
            "inputs": [],
            "name": "totalVotes",
            "outputs": [
                {
                    "internalType": "uint64",
                    "name": "",
                    "type": "uint64"
                }
            ],
            "stateMutability": "view",
            "type": "function"
        },
        {
            "inputs": [
                {
                    "internalType": "uint256",
                    "name": "acct",
                    "type": "uint256"
                },
                {
                    "internalType": "uint48",
                    "name": "date",
                    "type": "uint48"
                }
            ],
            "name": "votesAtDate",
            "outputs": [
                {
                    "internalType": "uint64",
                    "name": "",
                    "type": "uint64"
                }
            ],
            "stateMutability": "view",
            "type": "function"
        },
        {
            "inputs": [
                {
                    "internalType": "uint256",
                    "name": "acct",
                    "type": "uint256"
                }
            ],
            "name": "votesInHand",
            "outputs": [
                {
                    "internalType": "uint64",
                    "name": "",
                    "type": "uint64"
                }
            ],
            "stateMutability": "view",
            "type": "function"
        },
        {
            "inputs": [],
            "name": "votesOfController",
            "outputs": [
                {
                    "internalType": "uint64",
                    "name": "",
                    "type": "uint64"
                }
            ],
            "stateMutability": "view",
            "type": "function"
        },
        {
            "inputs": [
                {
                    "internalType": "uint256",
                    "name": "acct",
                    "type": "uint256"
                }
            ],
            "name": "votesOfGroup",
            "outputs": [
                {
                    "internalType": "uint64",
                    "name": "",
                    "type": "uint64"
                }
            ],
            "stateMutability": "view",
            "type": "function"
        }
    ],
    "bytecode": "608060405234801561001057600080fd5b506144c4806100206000396000f3fe608060405234801561001057600080fd5b506004361061030c5760003560e01c8063893d20e81161019d578063c410c23a116100e9578063dc890da9116100a2578063e4df91001161007c578063e4df9100146106ec578063e80bf906146106f4578063ed21102314610707578063f045a7691461072757600080fd5b8063dc890da9146106be578063dd5042f4146106d1578063dd8a18e9146106d957600080fd5b8063c410c23a14610654578063c70bc6731461066a578063cd27821e1461067d578063d50c737714610690578063da6a43d6146106a3578063dc6599c5146106b657600080fd5b80639c54297c11610156578063b3f05b9711610130578063b3f05b9714610612578063b966ac4514610626578063bdc36f621461062e578063c2d7616e1461064157600080fd5b80639c54297c146105d75780639dd54c57146105ec578063a7ec068f146105ff57600080fd5b8063893d20e81461057b5780638bb9c5bf1461058357806396cfe1141461059657806398419928146105a95780639a09e43c146105b15780639a3ca24b146105c457600080fd5b80634a14beb11161025c57806368c1047b1161021557806372dd6529116101ef57806372dd6529146104ee5780637e063c5a1461054d5780638041494e146105605780638170c3b91461057357600080fd5b806368c1047b146104b55780636be8496f146104c857806372cc64f9146104db57600080fd5b80634a14beb1146104435780634bc8315f146104565780635171ebd41461046957806357f1929c1461047c5780635c3459341461048f578063605c5ec6146104a257600080fd5b80631b6ea9f9116102c95780633da9a600116102a35780633da9a600146104025780633f17cd451461041557806343eab73e1461041d57806348e451331461043057600080fd5b80631b6ea9f9146103b2578063218668fa146103c55780632898436f146103e557600080fd5b806304f4b88d146103115780630787c777146103395780630d15fd771461034c578063103f6edd1461036c5780631089f5ed1461038a57806319d61ad91461039f575b600080fd5b61032461031f3660046139f9565b61072f565b60405190151581526020015b60405180910390f35b610324610347366004613a25565b6107cd565b610354610869565b6040516001600160401b039091168152602001610330565b6103746108f3565b60405164ffffffffff9091168152602001610330565b61039d610398366004613a25565b61097a565b005b61039d6103ad366004613a3e565b610d7f565b61039d6103c0366004613a3e565b610e13565b6103d86103d3366004613a25565b610e38565b6040516103309190613a60565b6103ed610ece565b60405163ffffffff9091168152602001610330565b61039d610410366004613a25565b610f54565b610354611066565b6103d861042b366004613aa4565b611119565b61039d61043e366004613c83565b61115d565b61039d610451366004613a25565b61137b565b610354610464366004613d5a565b61156b565b61039d610477366004613a3e565b611605565b61035461048a366004613a25565b61162a565b61039d61049d366004613d8a565b6116b6565b6103746104b0366004613a25565b611800565b6103246104c3366004613a3e565b61188c565b61039d6104d6366004613dbc565b611973565b61039d6104e9366004613dd9565b611a25565b6105016104fc366004613e07565b611b99565b6040516103309190815165ffffffffffff1681526020808301516001600160401b0390811691830191909152604080840151821690830152606092830151169181019190915260800190565b61032461055b366004613a3e565b611c76565b61039d61056e366004613a25565b611cbf565b6103d8611ea4565b610374611f57565b61039d610591366004613a25565b611f92565b61039d6105a4366004613e32565b611feb565b6103746122ab565b6103246105bf366004613a25565b6122e5565b61039d6105d2366004613dd9565b612399565b6105df612505565b6040516103309190613e8e565b61039d6105fa366004613c83565b61258e565b61039d61060d366004613f26565b61286a565b60028054600160f01b900460ff1614610324565b6105016129de565b61039d61063c366004613f54565b612aad565b61035461064f366004613a25565b612c05565b61065c612c51565b604051908152602001610330565b610501610678366004613a25565b612cd6565b61065c61068b366004613a25565b612db3565b61032461069e366004613a25565b612e3f565b61039d6106b1366004613f54565b612e80565b6103ed612fd8565b61039d6106cc366004613f71565b613012565b6103d86130f5565b61039d6106e7366004613a3e565b61312f565b610324613438565b6103d8610702366004613a25565b6134bd565b61070f61357e565b6040516001600160a01b039091168152602001610330565b61039d613604565b60405163d1aa6a4f60e01b81526004808201526024810183905261ffff8216604482015260009073__$b59f66f9b4972d644e41bc4977edb0d217$__9063d1aa6a4f906064015b60206040518083038186803b15801561078e57600080fd5b505af41580156107a2573d6000803e3d6000fd5b505050506040513d601f19601f820116820180604052508101906107c69190613fb9565b9392505050565b60405163347f09bd60e11b815260048082015260248101829052600090829073__$0373da85302df7c003c5cc5214782e6132$__906368fe137a9060440160206040518083038186803b15801561082357600080fd5b505af4158015610837573d6000803e3d6000fd5b505050506040513d601f19601f8201168201806040525081019061085b9190613fd6565b64ffffffffff161492915050565b604051630c86a02d60e11b815260048082015260009073__$0373da85302df7c003c5cc5214782e6132$__9063190d405a9060240160206040518083038186803b1580156108b657600080fd5b505af41580156108ca573d6000803e3d6000fd5b505050506040513d601f19601f820116820180604052508101906108ee9190613ff3565b905090565b60405163e8c0cc1d60e01b81526002600482015260009073__$364aad554dc80380f414546becdd2c1584$__9063e8c0cc1d906024015b60206040518083038186803b15801561094257600080fd5b505af4158015610956573d6000803e3d6000fd5b505050506040513d601f19601f820116820180604052508101906108ee9190613fd6565b60015460405163e0ff5b8b60e01b8152600660048201526001600160a01b039091169063e0ff5b8b9060240160206040518083038186803b1580156109be57600080fd5b505afa1580156109d2573d6000803e3d6000fd5b505050506040513d601f19601f820116820180604052508101906109f69190614010565b6001600160a01b0316336001600160a01b031614610a2f5760405162461bcd60e51b8152600401610a269061402d565b60405180910390fd5b604051633f0a2aed60e21b815260048082015273__$0373da85302df7c003c5cc5214782e6132$__9063fc28abb49060240160206040518083038186803b158015610a7957600080fd5b505af4158015610a8d573d6000803e3d6000fd5b505050506040513d601f19601f82011682018060405250810190610ab1919061406e565b604051636878e4e760e11b815260048082015263ffffffff919091169073__$0373da85302df7c003c5cc5214782e6132$__9063d0f1c9ce9060240160206040518083038186803b158015610b0557600080fd5b505af4158015610b19573d6000803e3d6000fd5b505050506040513d601f19601f82011682018060405250810190610b3d919061406e565b63ffffffff161080610bd45750604051633f0a2aed60e21b815260048082015273__$0373da85302df7c003c5cc5214782e6132$__9063fc28abb49060240160206040518083038186803b158015610b9457600080fd5b505af4158015610ba8573d6000803e3d6000fd5b505050506040513d601f19601f82011682018060405250810190610bcc919061406e565b63ffffffff16155b610c2f5760405162461bcd60e51b815260206004820152602660248201527f524f4d2e6164644d656d6265723a20517479206f66204d656d62657273206f766044820152656572666c6f7760d01b6064820152608401610a26565b6040516324ac0fef60e11b81526004808201526024810182905273__$0373da85302df7c003c5cc5214782e6132$__906349581fde9060440160206040518083038186803b158015610c8057600080fd5b505af4158015610c94573d6000803e3d6000fd5b505050506040513d601f19601f82011682018060405250810190610cb89190613fb9565b15610d7c57604051636878e4e760e11b815260048082015281907f5659f1f96e42a4f1f64021a2123790ef443bf77ad9612c055b291db8d786cb099073__$0373da85302df7c003c5cc5214782e6132$__9063d0f1c9ce9060240160206040518083038186803b158015610d2b57600080fd5b505af4158015610d3f573d6000803e3d6000fd5b505050506040513d601f19601f82011682018060405250810190610d63919061406e565b60405163ffffffff909116815260200160405180910390a25b50565b73__$364aad554dc80380f414546becdd2c1584$__6382daafaa600284610da4613822565b6040516001600160e01b031960e086901b1681526004810193909352602483019190915264ffffffffff166044820152606481018490526084015b60006040518083038186803b158015610df757600080fd5b505af4158015610e0b573d6000803e3d6000fd5b505050505050565b73__$364aad554dc80380f414546becdd2c1584$__636320d75e600284610da4613822565b6040516222d07160e91b81526004808201526024810182905260609073__$0373da85302df7c003c5cc5214782e6132$__906345a0e200906044015b60006040518083038186803b158015610e8c57600080fd5b505af4158015610ea0573d6000803e3d6000fd5b505050506040513d6000823e601f3d908101601f19168201604052610ec891908101906140ae565b92915050565b604051633f0a2aed60e21b815260048082015260009073__$0373da85302df7c003c5cc5214782e6132$__9063fc28abb4906024015b60206040518083038186803b158015610f1c57600080fd5b505af4158015610f30573d6000803e3d6000fd5b505050506040513d601f19601f820116820180604052508101906108ee919061406e565b604051633b11adbf60e21b81526002600482015233602482015273__$364aad554dc80380f414546becdd2c1584$__9063ec46b6fc9060440160206040518083038186803b158015610fa557600080fd5b505af4158015610fb9573d6000803e3d6000fd5b505050506040513d601f19601f82011682018060405250810190610fdd9190613fb9565b610ff95760405162461bcd60e51b8152600401610a2690614143565b60405163cc99e11b60e01b8152600260048201526024810182905273__$364aad554dc80380f414546becdd2c1584$__9063cc99e11b9060440160006040518083038186803b15801561104b57600080fd5b505af415801561105f573d6000803e3d6000fd5b5050505050565b60405163feeac47f60e01b8152600480820152600090819073__$0373da85302df7c003c5cc5214782e6132$__9063feeac47f9060240160206040518083038186803b1580156110b557600080fd5b505af41580156110c9573d6000803e3d6000fd5b505050506040513d601f19601f820116820180604052508101906110ed9190613fd6565b64ffffffffff16600090815260046020526040902054600160b81b90046001600160401b031692915050565b6040516313a5f65760e11b815260048082015261ffff8216602482015260609073__$b59f66f9b4972d644e41bc4977edb0d217$__9063274becae90604401610e74565b60015460405163e0ff5b8b60e01b8152600660048201526001600160a01b039091169063e0ff5b8b9060240160206040518083038186803b1580156111a157600080fd5b505afa1580156111b5573d6000803e3d6000fd5b505050506040513d601f19601f820116820180604052508101906111d99190614010565b6001600160a01b0316336001600160a01b0316146112095760405162461bcd60e51b8152600401610a269061402d565b805160405163b16e8a7960e01b815273__$b59f66f9b4972d644e41bc4977edb0d217$__9163b16e8a7991611242916004918201614189565b60206040518083038186803b15801561125a57600080fd5b505af415801561126e573d6000803e3d6000fd5b505050506040513d601f19601f820116820180604052508101906112929190613fb9565b15610d7c57805160a00151602080830151805191015160405163232bbbdd60e01b815260048082015264ffffffffff90931660248401526001600160401b0391821660448401521660648201526001608482015273__$b59f66f9b4972d644e41bc4977edb0d217$__9063232bbbdd9060a40160006040518083038186803b15801561131d57600080fd5b505af4158015611331573d6000803e3d6000fd5b5050825160a0810151905160405164ffffffffff909216935063ffffffff1691507fc98c10dfe7493f4a7f21b247e20c3a4c933cc9cce3b214216be7d766b1fd304190600090a350565b604051633b11adbf60e21b81526002600482015233602482015273__$364aad554dc80380f414546becdd2c1584$__9063ec46b6fc9060440160206040518083038186803b1580156113cc57600080fd5b505af41580156113e0573d6000803e3d6000fd5b505050506040513d601f19601f820116820180604052508101906114049190613fb9565b806114a9575073__$364aad554dc80380f414546becdd2c1584$__63fe271086600261142e613822565b6040516001600160e01b031960e085901b168152600481019290925264ffffffffff16602482015260440160206040518083038186803b15801561147157600080fd5b505af4158015611485573d6000803e3d6000fd5b505050506040513d601f19601f820116820180604052508101906114a99190613fb9565b6114c55760405162461bcd60e51b8152600401610a2690614228565b604051632725ebef60e21b8152600260048201526024810182905273__$364aad554dc80380f414546becdd2c1584$__90639c97afbc9060440160006040518083038186803b15801561151757600080fd5b505af415801561152b573d6000803e3d6000fd5b505050507ff2735f34b69be1e6342dea95f9162f84d0db925fab655ca9f1f312ac8cbfc99d8160405161156091815260200190565b60405180910390a150565b60405163677d3fed60e01b81526004808201526024810183905265ffffffffffff8216604482015260009073__$b59f66f9b4972d644e41bc4977edb0d217$__9063677d3fed9060640160206040518083038186803b1580156115cd57600080fd5b505af41580156115e1573d6000803e3d6000fd5b505050506040513d601f19601f820116820180604052508101906107c69190613ff3565b73__$364aad554dc80380f414546becdd2c1584$__63ee98b313600284610da4613822565b604051630776f0c360e51b81526004808201526024810182905260009073__$0373da85302df7c003c5cc5214782e6132$__9063eede18609060440160206040518083038186803b15801561167e57600080fd5b505af4158015611692573d6000803e3d6000fd5b505050506040513d601f19601f82011682018060405250810190610ec89190613ff3565b604051633b11adbf60e21b81526002600482015233602482015273__$364aad554dc80380f414546becdd2c1584$__9063ec46b6fc9060440160206040518083038186803b15801561170757600080fd5b505af415801561171b573d6000803e3d6000fd5b505050506040513d601f19601f8201168201806040525081019061173f9190613fb9565b61175b5760405162461bcd60e51b8152600401610a2690614143565b604051630f98e91f60e21b815260048082015263ffffffff8216602482015273__$0373da85302df7c003c5cc5214782e6132$__90633e63a47c9060440160006040518083038186803b1580156117b157600080fd5b505af41580156117c5573d6000803e3d6000fd5b505060405163ffffffff841681527f18e8d00bc10556942bceb0c67df6414a97338d9c493be45f20fe85a3391c034492506020019050611560565b60405163347f09bd60e11b81526004808201526024810182905260009073__$0373da85302df7c003c5cc5214782e6132$__906368fe137a9060440160206040518083038186803b15801561185457600080fd5b505af4158015611868573d6000803e3d6000fd5b505050506040513d601f19601f82011682018060405250810190610ec89190613fd6565b60008261189881612e3f565b6118b45760405162461bcd60e51b8152600401610a269061427e565b826118be81612e3f565b6118da5760405162461bcd60e51b8152600401610a269061427e565b60405163fd0f8c6560e01b8152600480820152602481018690526044810185905273__$0373da85302df7c003c5cc5214782e6132$__9063fd0f8c659060640160206040518083038186803b15801561193257600080fd5b505af4158015611946573d6000803e3d6000fd5b505050506040513d601f19601f8201168201806040525081019061196a9190613fb9565b95945050505050565b604051630f07232560e01b8152600260048201523360248201526001600160a01b038216604482015273__$364aad554dc80380f414546becdd2c1584$__90630f0723259060640160006040518083038186803b1580156119d357600080fd5b505af41580156119e7573d6000803e3d6000fd5b50506040516001600160a01b03841681527fe435cbeab64e4eae6497b9d8289704bd709d624a80704ef3ca9af777534bc6ec92506020019050611560565b60015460405163e0ff5b8b60e01b8152600660048201526001600160a01b039091169063e0ff5b8b9060240160206040518083038186803b158015611a6957600080fd5b505afa158015611a7d573d6000803e3d6000fd5b505050506040513d601f19601f82011682018060405250810190611aa19190614010565b6001600160a01b0316336001600160a01b031614611ad15760405162461bcd60e51b8152600401610a269061402d565b604051628dc13760e51b81526004808201526001600160401b038084166024830152821660448201526000606482015273__$b59f66f9b4972d644e41bc4977edb0d217$__906311b826e09060840160006040518083038186803b158015611b3857600080fd5b505af4158015611b4c573d6000803e3d6000fd5b5050604080516001600160401b038087168252851660208201527fc6861a64b8a09b2aee31f61ebd300160e6fe6a19a7e830e5f6f273b99aa2360b93500190505b60405180910390a15050565b60408051608081018252600080825260208201819052918101829052606081019190915260008052600560205260405163e8fce06b60e01b81527f05b8ccbb9d4d8fb16ea74ce3c29a41f1b461fbdaff4714a0d9a8eb05499746bc600482015265ffffffffffff8316602482015273__$9d89bb4a2fad48898c323b0a17741df93a$__9063e8fce06b9060440160806040518083038186803b158015611c3e57600080fd5b505af4158015611c52573d6000803e3d6000fd5b505050506040513d601f19601f82011682018060405250810190610ec891906142b5565b604051632a3be56b60e21b815260026004820152602481018390526044810182905260009073__$364aad554dc80380f414546becdd2c1584$__9063a8ef95ac90606401610776565b604051633b11adbf60e21b81526002600482015233602482015273__$364aad554dc80380f414546becdd2c1584$__9063ec46b6fc9060440160206040518083038186803b158015611d1057600080fd5b505af4158015611d24573d6000803e3d6000fd5b505050506040513d601f19601f82011682018060405250810190611d489190613fb9565b80611ded575073__$364aad554dc80380f414546becdd2c1584$__63fe2710866002611d72613822565b6040516001600160e01b031960e085901b168152600481019290925264ffffffffff16602482015260440160206040518083038186803b158015611db557600080fd5b505af4158015611dc9573d6000803e3d6000fd5b505050506040513d601f19601f82011682018060405250810190611ded9190613fb9565b611e095760405162461bcd60e51b8152600401610a2690614228565b60405163b6e38a2960e01b8152600260048201526024810182905273__$364aad554dc80380f414546becdd2c1584$__9063b6e38a299060440160006040518083038186803b158015611e5b57600080fd5b505af4158015611e6f573d6000803e3d6000fd5b505050507f8b6f40f36b4ae8cc5f55e895036457c43da4ab1f80f58c46f5ff0d72a650033b8160405161156091815260200190565b60008052600560205260405163034306e160e21b81527f05b8ccbb9d4d8fb16ea74ce3c29a41f1b461fbdaff4714a0d9a8eb05499746bd600482015260609073__$8c1a4844a0a0988ea2454cf87145a95df1$__90630d0c1b84906024015b60006040518083038186803b158015611f1b57600080fd5b505af4158015611f2f573d6000803e3d6000fd5b505050506040513d6000823e601f3d908101601f191682016040526108ee91908101906140ae565b60405163987ad15360e01b81526002600482015260009073__$364aad554dc80380f414546becdd2c1584$__9063987ad1539060240161092a565b6000611f9c613822565b60405163cc0d511b60e01b8152600260048201526024810184905264ffffffffff8216604482015290915073__$364aad554dc80380f414546becdd2c1584$__9063cc0d511b90606401610ddf565b60015460405163e0ff5b8b60e01b8152600660048201526001600160a01b039091169063e0ff5b8b9060240160206040518083038186803b15801561202f57600080fd5b505afa158015612043573d6000803e3d6000fd5b505050506040513d601f19601f820116820180604052508101906120679190614010565b6001600160a01b0316336001600160a01b0316146120975760405162461bcd60e51b8152600401610a269061402d565b806121c25764ffffffffff841660009081526005602052604080822090516305ec572760e41b8152600481019190915273__$9d89bb4a2fad48898c323b0a17741df93a$__90635ec572709060240160806040518083038186803b1580156120fe57600080fd5b505af4158015612112573d6000803e3d6000fd5b505050506040513d601f19601f8201168201806040525081019061213691906142b5565b9050836001600160401b031681602001516001600160401b0316101580156121745750826001600160401b031681604001516001600160401b031610155b6121c05760405162461bcd60e51b815260206004820181905260248201527f524f4d2e43414f4d3a2070616964206f7220706172206e6f7420656e6f7567686044820152606401610a26565b505b604080516001600160401b0385811682528416602082015282151581830152905164ffffffffff8616917fb75922c4fa1fe23161046487099d13fe17adc0b8f482ca6168bb5631dc103f71919081900360600190a260405163232bbbdd60e01b815260048082015264ffffffffff851660248201526001600160401b03808516604483015283166064820152811515608482015273__$b59f66f9b4972d644e41bc4977edb0d217$__9063232bbbdd9060a40160006040518083038186803b15801561228d57600080fd5b505af41580156122a1573d6000803e3d6000fd5b5050505050505050565b60405163feeac47f60e01b815260048082015260009073__$0373da85302df7c003c5cc5214782e6132$__9063feeac47f9060240161092a565b60008080526005602052604051633f5f77cd60e01b81527f05b8ccbb9d4d8fb16ea74ce3c29a41f1b461fbdaff4714a0d9a8eb05499746bd60048201526024810183905273__$8c1a4844a0a0988ea2454cf87145a95df1$__90633f5f77cd906044015b60206040518083038186803b15801561236157600080fd5b505af4158015612375573d6000803e3d6000fd5b505050506040513d601f19601f82011682018060405250810190610ec89190613fb9565b60015460405163e0ff5b8b60e01b8152600660048201526001600160a01b039091169063e0ff5b8b9060240160206040518083038186803b1580156123dd57600080fd5b505afa1580156123f1573d6000803e3d6000fd5b505050506040513d601f19601f820116820180604052508101906124159190614010565b6001600160a01b0316336001600160a01b0316146124455760405162461bcd60e51b8152600401610a269061402d565b604051628dc13760e51b81526004808201526001600160401b038084166024830152821660448201526001606482015273__$b59f66f9b4972d644e41bc4977edb0d217$__906311b826e09060840160006040518083038186803b1580156124ac57600080fd5b505af41580156124c0573d6000803e3d6000fd5b5050604080516001600160401b038087168252851660208201527f0a14efe28272b5c25c09e98c3978ff1725a1c0e8e06d15885ec449e8083a3f7f9350019050611b8d565b60405163118158f560e11b815260048082015260609073__$0373da85302df7c003c5cc5214782e6132$__90632302b1ea9060240160006040518083038186803b15801561255257600080fd5b505af4158015612566573d6000803e3d6000fd5b505050506040513d6000823e601f3d908101601f191682016040526108ee9190810190614339565b60015460405163e0ff5b8b60e01b8152600660048201526001600160a01b039091169063e0ff5b8b9060240160206040518083038186803b1580156125d257600080fd5b505afa1580156125e6573d6000803e3d6000fd5b505050506040513d601f19601f8201168201806040525081019061260a9190614010565b6001600160a01b0316336001600160a01b03161461263a5760405162461bcd60e51b8152600401610a269061402d565b805160a0015160208083015180519101516126589291906000611feb565b8051604051631a5fec8b60e21b815273__$b59f66f9b4972d644e41bc4977edb0d217$__9163697fb22c91612691916004918201614189565b60206040518083038186803b1580156126a957600080fd5b505af41580156126bd573d6000803e3d6000fd5b505050506040513d601f19601f820116820180604052508101906126e19190613fb9565b15610d7c57805160a0015164ffffffffff1660009081526005602052604090819020905163c2b46a8560e01b81526001909101600482015273__$8c1a4844a0a0988ea2454cf87145a95df1$__9063c2b46a859060240160206040518083038186803b15801561275057600080fd5b505af4158015612764573d6000803e3d6000fd5b505050506040513d601f19601f82011682018060405250810190612788919061444a565b61282257805160a001516040516238e36760e11b815260048082015264ffffffffff909116602482015273__$b59f66f9b4972d644e41bc4977edb0d217$__906271c6ce9060440160206040518083038186803b1580156127e857600080fd5b505af41580156127fc573d6000803e3d6000fd5b505050506040513d601f19601f820116820180604052508101906128209190613fb9565b505b805160a0810151905160405164ffffffffff9092169163ffffffff909116907f9b8184045aa5752de9f9c7155b26141f222ac4abf9dd8fa634dbba785e2d8f1790600090a350565b6001546040516335d2155560e11b81523360048201526001600160a01b0390911690636ba42aaa9060240160206040518083038186803b1580156128ad57600080fd5b505afa1580156128c1573d6000803e3d6000fd5b505050506040513d601f19601f820116820180604052508101906128e59190613fb9565b6129015760405162461bcd60e51b8152600401610a2690614463565b604051630df234af60e21b815260048082015264ffffffffff80841660248301528216604482015273__$0373da85302df7c003c5cc5214782e6132$__906337c8d2bc9060640160206040518083038186803b15801561296057600080fd5b505af4158015612974573d6000803e3d6000fd5b505050506040513d601f19601f820116820180604052508101906129989190613fb9565b156129da578064ffffffffff168264ffffffffff167fd875de446030922d882c407a7bcd6f5371d1b13efa74a8be2dacd22334d8846660405160405180910390a35b5050565b6040805160808101825260008082526020820181905291810182905260608101919091526000805260056020526040516305ec572760e41b81527f05b8ccbb9d4d8fb16ea74ce3c29a41f1b461fbdaff4714a0d9a8eb05499746bc600482015273__$9d89bb4a2fad48898c323b0a17741df93a$__90635ec572709060240160806040518083038186803b158015612a7557600080fd5b505af4158015612a89573d6000803e3d6000fd5b505050506040513d601f19601f820116820180604052508101906108ee91906142b5565b6001546040516335d2155560e11b81523360048201526001600160a01b0390911690636ba42aaa9060240160206040518083038186803b158015612af057600080fd5b505afa158015612b04573d6000803e3d6000fd5b505050506040513d601f19601f82011682018060405250810190612b289190613fb9565b612b445760405162461bcd60e51b8152600401610a2690614463565b604051630d98f2af60e41b8152600480820152811515602482015273__$0373da85302df7c003c5cc5214782e6132$__9063d98f2af09060440160206040518083038186803b158015612b9657600080fd5b505af4158015612baa573d6000803e3d6000fd5b505050506040513d601f19601f82011682018060405250810190612bce9190613fb9565b15610d7c5760405181151581527f0b1b96bce125700569e932050b6c2b3da7dabbe97241d19ff114400cb3546be890602001611560565b600081612c1181612e3f565b612c2d5760405162461bcd60e51b8152600401610a269061427e565b5050600090815260046020526040902054600160781b90046001600160401b031690565b604051636c49485960e01b815260048082015260009073__$0373da85302df7c003c5cc5214782e6132$__90636c4948599060240160206040518083038186803b158015612c9e57600080fd5b505af4158015612cb2573d6000803e3d6000fd5b505050506040513d601f19601f820116820180604052508101906108ee919061444a565b60408051608081018252600080825260208201819052918101829052606081019190915281612d0481612e3f565b612d205760405162461bcd60e51b8152600401610a269061427e565b6000838152600560205260409081902090516305ec572760e41b8152600481019190915273__$9d89bb4a2fad48898c323b0a17741df93a$__90635ec572709060240160806040518083038186803b158015612d7b57600080fd5b505af4158015612d8f573d6000803e3d6000fd5b505050506040513d601f19601f820116820180604052508101906107c691906142b5565b6040516312a6722f60e31b81526004808201526024810182905260009073__$0373da85302df7c003c5cc5214782e6132$__9063953391789060440160206040518083038186803b158015612e0757600080fd5b505af4158015612e1b573d6000803e3d6000fd5b505050506040513d601f19601f82011682018060405250810190610ec8919061444a565b604051630a4225b960e41b81526004808201526024810182905260009073__$0373da85302df7c003c5cc5214782e6132$__9063a4225b9090604401612349565b6001546040516335d2155560e11b81523360048201526001600160a01b0390911690636ba42aaa9060240160206040518083038186803b158015612ec357600080fd5b505afa158015612ed7573d6000803e3d6000fd5b505050506040513d601f19601f82011682018060405250810190612efb9190613fb9565b612f175760405162461bcd60e51b8152600401610a2690614463565b6040516313f6237f60e01b8152600480820152811515602482015273__$b59f66f9b4972d644e41bc4977edb0d217$__906313f6237f9060440160206040518083038186803b158015612f6957600080fd5b505af4158015612f7d573d6000803e3d6000fd5b505050506040513d601f19601f82011682018060405250810190612fa19190613fb9565b15610d7c5760405181151581527f1e06c59992faf7c98f854af104dd450a2705f0e45c9bf4de8043c574c0079c1090602001611560565b604051636878e4e760e11b815260048082015260009073__$0373da85302df7c003c5cc5214782e6132$__9063d0f1c9ce90602401610f04565b61301b8261387c565b6130248161392b565b604051636cdd0edf60e11b815260026004820152602481018590526001600160a01b038416604482015273__$364aad554dc80380f414546becdd2c1584$__9063d9ba1dbe9060640160006040518083038186803b15801561308557600080fd5b505af4158015613099573d6000803e3d6000fd5b5050604080518781526001600160a01b038781166020830152868116828401528516606082015290517f3abb2418c66fe32ba9c883030a75ce583971d9af9192b9b74e44e67c5e6c8c1f9350908190036080019150a150505050565b604051632666ad2360e21b815260048082015260609073__$0373da85302df7c003c5cc5214782e6132$__9063999ab48c90602401611f03565b6001546040516335d2155560e11b81523360048201526001600160a01b0390911690636ba42aaa9060240160206040518083038186803b15801561317257600080fd5b505afa158015613186573d6000803e3d6000fd5b505050506040513d601f19601f820116820180604052508101906131aa9190613fb9565b6131c65760405162461bcd60e51b8152600401610a2690614463565b60405163347f09bd60e11b81526004808201526024810183905273__$0373da85302df7c003c5cc5214782e6132$__906368fe137a9060440160206040518083038186803b15801561321757600080fd5b505af415801561322b573d6000803e3d6000fd5b505050506040513d601f19601f8201168201806040525081019061324f9190613fd6565b64ffffffffff1681146132b35760405162461bcd60e51b815260206004820152602660248201527f524f4d2e524d46473a20526f6f74206973206e6f742067726f7570526570206f60448201526519881058d8dd60d21b6064820152608401610a26565b60405163b110cd5b60e01b81526004808201526024810183905260009073__$0373da85302df7c003c5cc5214782e6132$__9063b110cd5b9060440160206040518083038186803b15801561330757600080fd5b505af415801561331b573d6000803e3d6000fd5b505050506040513d601f19601f8201168201806040525081019061333f919061444a565b6040516305842a9b60e41b81526004808201526024810185905290915073__$0373da85302df7c003c5cc5214782e6132$__90635842a9b09060440160206040518083038186803b15801561339357600080fd5b505af41580156133a7573d6000803e3d6000fd5b505050506040513d601f19601f820116820180604052508101906133cb9190613fb9565b1561343357604051829084907f7f6e178e0d21cabade7232113cb77bf6fe6f1220aa7b5f8b37b6cff7387671ee90600090a38183141561343357604051819083907f15704695427fa23b834fbd6162af7c4ba7c47a6eebd02213f72cbb6cb65585a290600090a35b505050565b604051630f24363960e11b815260048082015260009073__$0373da85302df7c003c5cc5214782e6132$__90631e486c729060240160206040518083038186803b15801561348557600080fd5b505af4158015613499573d6000803e3d6000fd5b505050506040513d601f19601f820116820180604052508101906108ee9190613fb9565b6060816134c981612e3f565b6134e55760405162461bcd60e51b8152600401610a269061427e565b60008381526005602052604090819020905163034306e160e21b81526001909101600482015273__$8c1a4844a0a0988ea2454cf87145a95df1$__90630d0c1b849060240160006040518083038186803b15801561354257600080fd5b505af4158015613556573d6000803e3d6000fd5b505050506040513d6000823e601f3d908101601f191682016040526107c691908101906140ae565b604051633c3e56c160e11b81526002600482015260009073__$364aad554dc80380f414546becdd2c1584$__9063787cad829060240160206040518083038186803b1580156135cc57600080fd5b505af41580156135e0573d6000803e3d6000fd5b505050506040513d601f19601f820116820180604052508101906108ee9190614010565b604051633b11adbf60e21b81526002600482015233602482015273__$364aad554dc80380f414546becdd2c1584$__9063ec46b6fc9060440160206040518083038186803b15801561365557600080fd5b505af4158015613669573d6000803e3d6000fd5b505050506040513d601f19601f8201168201806040525081019061368d9190613fb9565b6136a95760405162461bcd60e51b8152600401610a2690614143565b600254600160f01b900460ff166001146137055760405162461bcd60e51b815260206004820181905260248201527f41432e6f6e6c7950656e64696e673a20446f632069732066696e616c697a65646044820152606401610a26565b60405163cc99e11b60e01b815260026004820152684174746f726e65797360b81b602482015273__$364aad554dc80380f414546becdd2c1584$__9063cc99e11b9060440160006040518083038186803b15801561376257600080fd5b505af4158015613776573d6000803e3d6000fd5b5050604051632725ebef60e21b8152600260048201526000602482015273__$364aad554dc80380f414546becdd2c1584$__9250639c97afbc915060440160006040518083038186803b1580156137cc57600080fd5b505af41580156137e0573d6000803e3d6000fd5b50506002805460ff60f01b1916600160f11b17905550506040517f35012b512309c322acf68632cd6cb702ff0e1d776fbe9394e38ffc13b434fe7590600090a1565b60008054604051634de835e760e11b81523360048201526001600160a01b0390911690639bd06bce90602401602060405180830381600087803b15801561386857600080fd5b505af1158015610956573d6000803e3d6000fd5b6000546001600160a01b0316156138cd5760405162461bcd60e51b815260206004820152601560248201527430b63932b0b23c9039b2ba103932b3a1b2b73a32b960591b6044820152606401610a26565b6040516001600160a01b03821681527f318da6c7624c71cbc0afe346c9d8827f119d0ecefb241a7b0c87217a076a8e029060200160405180910390a1600080546001600160a01b0319166001600160a01b0392909216919091179055565b6001546001600160a01b0316156139845760405162461bcd60e51b815260206004820152601960248201527f616c7265616479207365742067656e6572616c4b6565706572000000000000006044820152606401610a26565b6040516001600160a01b03821681527fe513d3e0f0d0a3877029dcc588748679a7a3450ec1ec7ed56d96bd012c3e61aa9060200160405180910390a1600180546001600160a01b0319166001600160a01b0392909216919091179055565b803561ffff811681146139f457600080fd5b919050565b60008060408385031215613a0c57600080fd5b82359150613a1c602084016139e2565b90509250929050565b600060208284031215613a3757600080fd5b5035919050565b60008060408385031215613a5157600080fd5b50508035926020909101359150565b6020808252825182820181905260009190848201906040850190845b81811015613a9857835183529284019291840191600101613a7c565b50909695505050505050565b600060208284031215613ab657600080fd5b6107c6826139e2565b634e487b7160e01b600052604160045260246000fd5b604080519081016001600160401b0381118282101715613af757613af7613abf565b60405290565b60405161010081016001600160401b0381118282101715613af757613af7613abf565b60405160c081016001600160401b0381118282101715613af757613af7613abf565b604051601f8201601f191681016001600160401b0381118282101715613b6a57613b6a613abf565b604052919050565b63ffffffff81168114610d7c57600080fd5b80356139f481613b72565b65ffffffffffff81168114610d7c57600080fd5b80356139f481613b8f565b64ffffffffff81168114610d7c57600080fd5b80356139f481613bae565b60ff81168114610d7c57600080fd5b80356139f481613bcc565b6001600160401b0381168114610d7c57600080fd5b600060808284031215613c0d57600080fd5b604051608081018181106001600160401b0382111715613c2f57613c2f613abf565b6040529050808235613c4081613be6565b81526020830135613c5081613be6565b60208201526040830135613c6381613be6565b60408201526060830135613c7681613be6565b6060919091015292915050565b6000818303610180811215613c9757600080fd5b613c9f613ad5565b61010080831215613caf57600080fd5b613cb7613afd565b92508435613cc481613b72565b8352613cd260208601613b84565b6020840152613ce3604086016139e2565b6040840152613cf460608601613ba3565b6060840152613d0560808601613ba3565b6080840152613d1660a08601613bc1565b60a0840152613d2760c08601613b84565b60c0840152613d3860e08601613bdb565b60e0840152828252613d4c86828701613bfb565b602083015250949350505050565b60008060408385031215613d6d57600080fd5b823591506020830135613d7f81613b8f565b809150509250929050565b600060208284031215613d9c57600080fd5b81356107c681613b72565b6001600160a01b0381168114610d7c57600080fd5b600060208284031215613dce57600080fd5b81356107c681613da7565b60008060408385031215613dec57600080fd5b8235613df781613be6565b91506020830135613d7f81613be6565b600060208284031215613e1957600080fd5b81356107c681613b8f565b8015158114610d7c57600080fd5b60008060008060808587031215613e4857600080fd5b8435613e5381613bae565b93506020850135613e6381613be6565b92506040850135613e7381613be6565b91506060850135613e8381613e24565b939692955090935050565b602080825282518282018190526000919060409081850190868401855b82811015613f19578151805164ffffffffff9081168652878201518116888701528682015116868601526060808201516001600160401b03908116918701919091526080808301519091169086015260a09081015160ff169085015260c09093019290850190600101613eab565b5091979650505050505050565b60008060408385031215613f3957600080fd5b8235613f4481613bae565b91506020830135613d7f81613bae565b600060208284031215613f6657600080fd5b81356107c681613e24565b60008060008060808587031215613f8757600080fd5b843593506020850135613f9981613da7565b92506040850135613fa981613da7565b91506060850135613e8381613da7565b600060208284031215613fcb57600080fd5b81516107c681613e24565b600060208284031215613fe857600080fd5b81516107c681613bae565b60006020828403121561400557600080fd5b81516107c681613be6565b60006020828403121561402257600080fd5b81516107c681613da7565b60208082526021908201527f524f4d2e6f6e6c79424f533a206d736753656e646572206973206e6f7420424f6040820152605360f81b606082015260800190565b60006020828403121561408057600080fd5b81516107c681613b72565b60006001600160401b038211156140a4576140a4613abf565b5060051b60200190565b600060208083850312156140c157600080fd5b82516001600160401b038111156140d757600080fd5b8301601f810185136140e857600080fd5b80516140fb6140f68261408b565b613b42565b81815260059190911b8201830190838101908783111561411a57600080fd5b928401925b828410156141385783518252928401929084019061411f565b979650505050505050565b60208082526026908201527f41432e6f6e6c794469726563744b65657065723a206e6f74206469726563742060408201526535b2b2b832b960d11b606082015260800190565b60006101208201905083825263ffffffff8084511660208401528060208501511660408401525061ffff604084015116606083015260608301516141d7608084018265ffffffffffff169052565b50608083015165ffffffffffff811660a08401525060a083015164ffffffffff811660c08401525060c083015163ffffffff811660e08401525060e083015160ff8116610100840152509392505050565b60208082526036908201527f41432e6f776e65724f72446972656374426f6f6b65657065723a206e6569746860408201527532b91037bbb732b9103737b9103137b7b5b2b2b832b960511b606082015260800190565b6020808252601b908201527f524f4d2e6d656d62657245786973743a204e4f54204d656d6265720000000000604082015260600190565b6000608082840312156142c757600080fd5b604051608081018181106001600160401b03821117156142e9576142e9613abf565b60405282516142f781613b8f565b8152602083015161430781613be6565b6020820152604083015161431a81613be6565b6040820152606083015161432d81613be6565b60608201529392505050565b6000602080838503121561434c57600080fd5b82516001600160401b0381111561436257600080fd5b8301601f8101851361437357600080fd5b80516143816140f68261408b565b81815260c091820283018401918482019190888411156143a057600080fd5b938501935b8385101561443e5780858a0312156143bd5760008081fd5b6143c5613b20565b85516143d081613bae565b8152858701516143df81613bae565b818801526040868101516143f281613bae565b9082015260608681015161440581613be6565b9082015260808681015161441881613be6565b9082015260a08681015161442b81613bcc565b90820152835293840193918501916143a5565b50979650505050505050565b60006020828403121561445c57600080fd5b5051919050565b60208082526011908201527020a19737b59d103737ba1025b2b2b832b960791b60408201526060019056fea26469706673582212201094a29a36f3d104463e15d4303b9a7e1a3661d35bd2e9c4cd47820bc10dc66764736f6c63430008080033",
    "sourcePath": "/Users/kaptain/github.com/hardhat/comboox/contracts/books/rom/RegisterOfMembers.sol",
    "compiler": {
        "name": "solc",
        "version": "0.8.8+commit.dddeac2f"
    },
    "functionHashes": {
        "abandonRole(bytes32)": "3da9a600",
        "addMember(uint256)": "1089f5ed",
        "addMemberToGroup(uint40,uint40)": "a7ec068f",
        "addShareToMember(((uint32,uint32,uint16,uint48,uint48,uint40,uint32,uint8),(uint64,uint64,uint64,uint64)))": "48e45133",
        "affiliated(uint256,uint256)": "68c1047b",
        "basedOnPar()": "e4df9100",
        "capAtDate(uint48)": "72dd6529",
        "capDecrease(uint64,uint64)": "72cc64f9",
        "capIncrease(uint64,uint64)": "9a3ca24b",
        "changeAmtOfMember(uint40,uint64,uint64,bool)": "96cfe114",
        "controllor()": "98419928",
        "deepOfGroup(uint256)": "cd27821e",
        "finalized()": "b3f05b97",
        "getBookeeper()": "ed211023",
        "getGeneralCounsel()": "103f6edd",
        "getMembersOfClass(uint16)": "43eab73e",
        "getOwner()": "893d20e8",
        "getSnapshot()": "9c54297c",
        "grantRole(bytes32,uint256)": "1b6ea9f9",
        "groupRep(uint256)": "605c5ec6",
        "hasRole(bytes32,uint256)": "7e063c5a",
        "init(uint256,address,address,address)": "dc890da9",
        "isClassMember(uint256,uint16)": "04f4b88d",
        "isGroupRep(uint256)": "0787c777",
        "isMember(uint256)": "d50c7377",
        "isSeqOfShare(uint256)": "9a09e43c",
        "lockContents()": "f045a769",
        "maxQtyOfMembers()": "2898436f",
        "membersList()": "dd5042f4",
        "membersOfGroup(uint256)": "218668fa",
        "ownersEquity()": "b966ac45",
        "qtyOfGroups()": "c410c23a",
        "qtyOfMembers()": "dc6599c5",
        "removeMemberFromGroup(uint256,uint256)": "dd8a18e9",
        "removeShareFromMember(((uint32,uint32,uint16,uint48,uint48,uint40,uint32,uint8),(uint64,uint64,uint64,uint64)))": "9dd54c57",
        "renounceRole(bytes32)": "8bb9c5bf",
        "revokeRole(bytes32,uint256)": "19d61ad9",
        "setAmtBase(bool)": "da6a43d6",
        "setDirectKeeper(address)": "6be8496f",
        "setGeneralCounsel(uint256)": "4a14beb1",
        "setMaxQtyOfMembers(uint32)": "5c345934",
        "setOwner(uint256)": "8041494e",
        "setRoleAdmin(bytes32,uint256)": "5171ebd4",
        "setVoteBase(bool)": "bdc36f62",
        "sharesClipOfMember(uint256)": "c70bc673",
        "sharesInHand(uint256)": "e80bf906",
        "sharesList()": "8170c3b9",
        "totalVotes()": "0d15fd77",
        "votesAtDate(uint256,uint48)": "4bc8315f",
        "votesInHand(uint256)": "c2d7616e",
        "votesOfController()": "3f17cd45",
        "votesOfGroup(uint256)": "57f1929c"
    },
    "gasEstimates": {
        "creation": {
            "codeDepositCost": "3520800",
            "executionCost": "3949",
            "totalCost": "3524749"
        },
        "external": {
            "abandonRole(bytes32)": "infinite",
            "addMember(uint256)": "infinite",
            "addMemberToGroup(uint40,uint40)": "infinite",
            "addShareToMember(((uint32,uint32,uint16,uint48,uint48,uint40,uint32,uint8),(uint64,uint64,uint64,uint64)))": "infinite",
            "affiliated(uint256,uint256)": "infinite",
            "basedOnPar()": "infinite",
            "capAtDate(uint48)": "infinite",
            "capDecrease(uint64,uint64)": "infinite",
            "capIncrease(uint64,uint64)": "infinite",
            "changeAmtOfMember(uint40,uint64,uint64,bool)": "infinite",
            "controllor()": "infinite",
            "deepOfGroup(uint256)": "infinite",
            "finalized()": "2383",
            "getBookeeper()": "infinite",
            "getGeneralCounsel()": "infinite",
            "getMembersOfClass(uint16)": "infinite",
            "getOwner()": "infinite",
            "getSnapshot()": "infinite",
            "grantRole(bytes32,uint256)": "infinite",
            "groupRep(uint256)": "infinite",
            "hasRole(bytes32,uint256)": "infinite",
            "init(uint256,address,address,address)": "infinite",
            "isClassMember(uint256,uint16)": "infinite",
            "isGroupRep(uint256)": "infinite",
            "isMember(uint256)": "infinite",
            "isSeqOfShare(uint256)": "infinite",
            "lockContents()": "infinite",
            "maxQtyOfMembers()": "infinite",
            "membersList()": "infinite",
            "membersOfGroup(uint256)": "infinite",
            "ownersEquity()": "infinite",
            "qtyOfGroups()": "infinite",
            "qtyOfMembers()": "infinite",
            "removeMemberFromGroup(uint256,uint256)": "infinite",
            "removeShareFromMember(((uint32,uint32,uint16,uint48,uint48,uint40,uint32,uint8),(uint64,uint64,uint64,uint64)))": "infinite",
            "renounceRole(bytes32)": "infinite",
            "revokeRole(bytes32,uint256)": "infinite",
            "setAmtBase(bool)": "infinite",
            "setDirectKeeper(address)": "infinite",
            "setGeneralCounsel(uint256)": "infinite",
            "setMaxQtyOfMembers(uint32)": "infinite",
            "setOwner(uint256)": "infinite",
            "setRoleAdmin(bytes32,uint256)": "infinite",
            "setVoteBase(bool)": "infinite",
            "sharesClipOfMember(uint256)": "infinite",
            "sharesInHand(uint256)": "infinite",
            "sharesList()": "infinite",
            "totalVotes()": "infinite",
            "votesAtDate(uint256,uint48)": "infinite",
            "votesInHand(uint256)": "infinite",
            "votesOfController()": "infinite",
            "votesOfGroup(uint256)": "infinite"
        }
    }
}