{
    "contractName": "RegisterOfMembers",
    "abi": [
        {
            "anonymous": false,
            "inputs": [
                {
                    "indexed": true,
                    "internalType": "uint256",
                    "name": "acct",
                    "type": "uint256"
                },
                {
                    "indexed": false,
                    "internalType": "uint32",
                    "name": "qtyOfMembers",
                    "type": "uint32"
                }
            ],
            "name": "AddMember",
            "type": "event"
        },
        {
            "anonymous": false,
            "inputs": [
                {
                    "indexed": true,
                    "internalType": "uint256",
                    "name": "acct",
                    "type": "uint256"
                },
                {
                    "indexed": true,
                    "internalType": "uint256",
                    "name": "root",
                    "type": "uint256"
                }
            ],
            "name": "AddMemberToGroup",
            "type": "event"
        },
        {
            "anonymous": false,
            "inputs": [
                {
                    "indexed": true,
                    "internalType": "uint32",
                    "name": "seqOfShare",
                    "type": "uint32"
                },
                {
                    "indexed": true,
                    "internalType": "uint40",
                    "name": "acct",
                    "type": "uint40"
                }
            ],
            "name": "AddShareToMember",
            "type": "event"
        },
        {
            "anonymous": false,
            "inputs": [
                {
                    "indexed": false,
                    "internalType": "uint256",
                    "name": "paid",
                    "type": "uint256"
                },
                {
                    "indexed": false,
                    "internalType": "uint256",
                    "name": "par",
                    "type": "uint256"
                }
            ],
            "name": "CapDecrease",
            "type": "event"
        },
        {
            "anonymous": false,
            "inputs": [
                {
                    "indexed": false,
                    "internalType": "uint256",
                    "name": "paid",
                    "type": "uint256"
                },
                {
                    "indexed": false,
                    "internalType": "uint256",
                    "name": "par",
                    "type": "uint256"
                }
            ],
            "name": "CapIncrease",
            "type": "event"
        },
        {
            "anonymous": false,
            "inputs": [
                {
                    "indexed": true,
                    "internalType": "uint256",
                    "name": "acct",
                    "type": "uint256"
                },
                {
                    "indexed": false,
                    "internalType": "uint256",
                    "name": "paid",
                    "type": "uint256"
                },
                {
                    "indexed": false,
                    "internalType": "uint256",
                    "name": "par",
                    "type": "uint256"
                },
                {
                    "indexed": false,
                    "internalType": "bool",
                    "name": "increase",
                    "type": "bool"
                }
            ],
            "name": "ChangeAmtOfMember",
            "type": "event"
        },
        {
            "anonymous": false,
            "inputs": [
                {
                    "indexed": true,
                    "internalType": "uint256",
                    "name": "orgRep",
                    "type": "uint256"
                },
                {
                    "indexed": true,
                    "internalType": "uint256",
                    "name": "newRep",
                    "type": "uint256"
                }
            ],
            "name": "ChangeGroupRep",
            "type": "event"
        },
        {
            "anonymous": false,
            "inputs": [
                {
                    "indexed": false,
                    "internalType": "uint256",
                    "name": "owner",
                    "type": "uint256"
                },
                {
                    "indexed": false,
                    "internalType": "address",
                    "name": "directKeeper",
                    "type": "address"
                },
                {
                    "indexed": false,
                    "internalType": "address",
                    "name": "regCenter",
                    "type": "address"
                },
                {
                    "indexed": false,
                    "internalType": "address",
                    "name": "generalKeeper",
                    "type": "address"
                }
            ],
            "name": "Init",
            "type": "event"
        },
        {
            "anonymous": false,
            "inputs": [],
            "name": "LockContents",
            "type": "event"
        },
        {
            "anonymous": false,
            "inputs": [
                {
                    "indexed": true,
                    "internalType": "uint256",
                    "name": "acct",
                    "type": "uint256"
                },
                {
                    "indexed": true,
                    "internalType": "uint256",
                    "name": "root",
                    "type": "uint256"
                }
            ],
            "name": "RemoveMemberFromGroup",
            "type": "event"
        },
        {
            "anonymous": false,
            "inputs": [
                {
                    "indexed": true,
                    "internalType": "uint32",
                    "name": "seqOfShare",
                    "type": "uint32"
                },
                {
                    "indexed": true,
                    "internalType": "uint40",
                    "name": "acct",
                    "type": "uint40"
                }
            ],
            "name": "RemoveShareFromMember",
            "type": "event"
        },
        {
            "anonymous": false,
            "inputs": [
                {
                    "indexed": false,
                    "internalType": "bool",
                    "name": "basedOnPar",
                    "type": "bool"
                }
            ],
            "name": "SetAmtBase",
            "type": "event"
        },
        {
            "anonymous": false,
            "inputs": [
                {
                    "indexed": false,
                    "internalType": "address",
                    "name": "keeper",
                    "type": "address"
                }
            ],
            "name": "SetDirectKeeper",
            "type": "event"
        },
        {
            "anonymous": false,
            "inputs": [
                {
                    "indexed": false,
                    "internalType": "uint256",
                    "name": "acct",
                    "type": "uint256"
                }
            ],
            "name": "SetGeneralCounsel",
            "type": "event"
        },
        {
            "anonymous": false,
            "inputs": [
                {
                    "indexed": false,
                    "internalType": "uint256",
                    "name": "max",
                    "type": "uint256"
                }
            ],
            "name": "SetMaxQtyOfMembers",
            "type": "event"
        },
        {
            "anonymous": false,
            "inputs": [
                {
                    "indexed": false,
                    "internalType": "uint256",
                    "name": "acct",
                    "type": "uint256"
                }
            ],
            "name": "SetOwner",
            "type": "event"
        },
        {
            "anonymous": false,
            "inputs": [
                {
                    "indexed": false,
                    "internalType": "bool",
                    "name": "basedOnPar",
                    "type": "bool"
                }
            ],
            "name": "SetVoteBase",
            "type": "event"
        },
        {
            "inputs": [
                {
                    "internalType": "bytes32",
                    "name": "role",
                    "type": "bytes32"
                }
            ],
            "name": "abandonRole",
            "outputs": [],
            "stateMutability": "nonpayable",
            "type": "function"
        },
        {
            "inputs": [
                {
                    "internalType": "uint256",
                    "name": "acct",
                    "type": "uint256"
                }
            ],
            "name": "addMember",
            "outputs": [],
            "stateMutability": "nonpayable",
            "type": "function"
        },
        {
            "inputs": [
                {
                    "internalType": "uint256",
                    "name": "acct",
                    "type": "uint256"
                },
                {
                    "internalType": "uint256",
                    "name": "root",
                    "type": "uint256"
                }
            ],
            "name": "addMemberToGroup",
            "outputs": [],
            "stateMutability": "nonpayable",
            "type": "function"
        },
        {
            "inputs": [
                {
                    "components": [
                        {
                            "components": [
                                {
                                    "internalType": "uint32",
                                    "name": "seqOfShare",
                                    "type": "uint32"
                                },
                                {
                                    "internalType": "uint32",
                                    "name": "preSeq",
                                    "type": "uint32"
                                },
                                {
                                    "internalType": "uint16",
                                    "name": "class",
                                    "type": "uint16"
                                },
                                {
                                    "internalType": "uint48",
                                    "name": "issueDate",
                                    "type": "uint48"
                                },
                                {
                                    "internalType": "uint40",
                                    "name": "shareholder",
                                    "type": "uint40"
                                },
                                {
                                    "internalType": "uint32",
                                    "name": "priceOfPaid",
                                    "type": "uint32"
                                },
                                {
                                    "internalType": "uint32",
                                    "name": "priceOfPar",
                                    "type": "uint32"
                                },
                                {
                                    "internalType": "uint16",
                                    "name": "para",
                                    "type": "uint16"
                                },
                                {
                                    "internalType": "uint8",
                                    "name": "arg",
                                    "type": "uint8"
                                }
                            ],
                            "internalType": "struct SharesRepo.Head",
                            "name": "head",
                            "type": "tuple"
                        },
                        {
                            "components": [
                                {
                                    "internalType": "uint48",
                                    "name": "payInDeadline",
                                    "type": "uint48"
                                },
                                {
                                    "internalType": "uint64",
                                    "name": "paid",
                                    "type": "uint64"
                                },
                                {
                                    "internalType": "uint64",
                                    "name": "par",
                                    "type": "uint64"
                                },
                                {
                                    "internalType": "uint64",
                                    "name": "cleanPaid",
                                    "type": "uint64"
                                },
                                {
                                    "internalType": "uint8",
                                    "name": "state",
                                    "type": "uint8"
                                },
                                {
                                    "internalType": "uint8",
                                    "name": "para",
                                    "type": "uint8"
                                }
                            ],
                            "internalType": "struct SharesRepo.Body",
                            "name": "body",
                            "type": "tuple"
                        }
                    ],
                    "internalType": "struct SharesRepo.Share",
                    "name": "share",
                    "type": "tuple"
                }
            ],
            "name": "addShareToMember",
            "outputs": [],
            "stateMutability": "nonpayable",
            "type": "function"
        },
        {
            "inputs": [
                {
                    "internalType": "uint256",
                    "name": "acct1",
                    "type": "uint256"
                },
                {
                    "internalType": "uint256",
                    "name": "acct2",
                    "type": "uint256"
                }
            ],
            "name": "affiliated",
            "outputs": [
                {
                    "internalType": "bool",
                    "name": "",
                    "type": "bool"
                }
            ],
            "stateMutability": "view",
            "type": "function"
        },
        {
            "inputs": [],
            "name": "basedOnPar",
            "outputs": [
                {
                    "internalType": "bool",
                    "name": "",
                    "type": "bool"
                }
            ],
            "stateMutability": "view",
            "type": "function"
        },
        {
            "inputs": [
                {
                    "internalType": "uint256",
                    "name": "date",
                    "type": "uint256"
                }
            ],
            "name": "capAtDate",
            "outputs": [
                {
                    "components": [
                        {
                            "internalType": "uint48",
                            "name": "timestamp",
                            "type": "uint48"
                        },
                        {
                            "internalType": "uint64",
                            "name": "paid",
                            "type": "uint64"
                        },
                        {
                            "internalType": "uint64",
                            "name": "par",
                            "type": "uint64"
                        },
                        {
                            "internalType": "uint64",
                            "name": "cleanPaid",
                            "type": "uint64"
                        }
                    ],
                    "internalType": "struct Checkpoints.Checkpoint",
                    "name": "cap",
                    "type": "tuple"
                }
            ],
            "stateMutability": "view",
            "type": "function"
        },
        {
            "inputs": [
                {
                    "internalType": "uint256",
                    "name": "paid",
                    "type": "uint256"
                },
                {
                    "internalType": "uint256",
                    "name": "par",
                    "type": "uint256"
                }
            ],
            "name": "capDecrease",
            "outputs": [],
            "stateMutability": "nonpayable",
            "type": "function"
        },
        {
            "inputs": [
                {
                    "internalType": "uint256",
                    "name": "paid",
                    "type": "uint256"
                },
                {
                    "internalType": "uint256",
                    "name": "par",
                    "type": "uint256"
                }
            ],
            "name": "capIncrease",
            "outputs": [],
            "stateMutability": "nonpayable",
            "type": "function"
        },
        {
            "inputs": [
                {
                    "internalType": "uint256",
                    "name": "acct",
                    "type": "uint256"
                },
                {
                    "internalType": "uint256",
                    "name": "deltaPaid",
                    "type": "uint256"
                },
                {
                    "internalType": "uint256",
                    "name": "deltaPar",
                    "type": "uint256"
                },
                {
                    "internalType": "bool",
                    "name": "increase",
                    "type": "bool"
                }
            ],
            "name": "changeAmtOfMember",
            "outputs": [],
            "stateMutability": "nonpayable",
            "type": "function"
        },
        {
            "inputs": [],
            "name": "controllor",
            "outputs": [
                {
                    "internalType": "uint40",
                    "name": "",
                    "type": "uint40"
                }
            ],
            "stateMutability": "view",
            "type": "function"
        },
        {
            "inputs": [
                {
                    "internalType": "uint256",
                    "name": "acct",
                    "type": "uint256"
                }
            ],
            "name": "deepOfGroup",
            "outputs": [
                {
                    "internalType": "uint256",
                    "name": "",
                    "type": "uint256"
                }
            ],
            "stateMutability": "view",
            "type": "function"
        },
        {
            "inputs": [],
            "name": "finalized",
            "outputs": [
                {
                    "internalType": "bool",
                    "name": "",
                    "type": "bool"
                }
            ],
            "stateMutability": "view",
            "type": "function"
        },
        {
            "inputs": [],
            "name": "getBookeeper",
            "outputs": [
                {
                    "internalType": "address",
                    "name": "",
                    "type": "address"
                }
            ],
            "stateMutability": "view",
            "type": "function"
        },
        {
            "inputs": [],
            "name": "getGeneralCounsel",
            "outputs": [
                {
                    "internalType": "uint40",
                    "name": "",
                    "type": "uint40"
                }
            ],
            "stateMutability": "view",
            "type": "function"
        },
        {
            "inputs": [
                {
                    "internalType": "uint256",
                    "name": "class",
                    "type": "uint256"
                }
            ],
            "name": "getMembersOfClass",
            "outputs": [
                {
                    "internalType": "uint256[]",
                    "name": "members",
                    "type": "uint256[]"
                }
            ],
            "stateMutability": "view",
            "type": "function"
        },
        {
            "inputs": [],
            "name": "getNumOfMembers",
            "outputs": [
                {
                    "internalType": "uint32",
                    "name": "",
                    "type": "uint32"
                }
            ],
            "stateMutability": "view",
            "type": "function"
        },
        {
            "inputs": [],
            "name": "getOwner",
            "outputs": [
                {
                    "internalType": "uint40",
                    "name": "",
                    "type": "uint40"
                }
            ],
            "stateMutability": "view",
            "type": "function"
        },
        {
            "inputs": [],
            "name": "getSnapshot",
            "outputs": [
                {
                    "components": [
                        {
                            "internalType": "uint40",
                            "name": "prev",
                            "type": "uint40"
                        },
                        {
                            "internalType": "uint40",
                            "name": "next",
                            "type": "uint40"
                        },
                        {
                            "internalType": "uint40",
                            "name": "ptr",
                            "type": "uint40"
                        },
                        {
                            "internalType": "uint64",
                            "name": "amt",
                            "type": "uint64"
                        },
                        {
                            "internalType": "uint64",
                            "name": "sum",
                            "type": "uint64"
                        },
                        {
                            "internalType": "uint8",
                            "name": "cat",
                            "type": "uint8"
                        }
                    ],
                    "internalType": "struct TopChain.Node[]",
                    "name": "",
                    "type": "tuple[]"
                }
            ],
            "stateMutability": "view",
            "type": "function"
        },
        {
            "inputs": [
                {
                    "internalType": "bytes32",
                    "name": "role",
                    "type": "bytes32"
                },
                {
                    "internalType": "uint256",
                    "name": "acct",
                    "type": "uint256"
                }
            ],
            "name": "grantRole",
            "outputs": [],
            "stateMutability": "nonpayable",
            "type": "function"
        },
        {
            "inputs": [
                {
                    "internalType": "uint256",
                    "name": "acct",
                    "type": "uint256"
                }
            ],
            "name": "groupRep",
            "outputs": [
                {
                    "internalType": "uint40",
                    "name": "",
                    "type": "uint40"
                }
            ],
            "stateMutability": "view",
            "type": "function"
        },
        {
            "inputs": [
                {
                    "internalType": "bytes32",
                    "name": "role",
                    "type": "bytes32"
                },
                {
                    "internalType": "uint256",
                    "name": "acct",
                    "type": "uint256"
                }
            ],
            "name": "hasRole",
            "outputs": [
                {
                    "internalType": "bool",
                    "name": "",
                    "type": "bool"
                }
            ],
            "stateMutability": "view",
            "type": "function"
        },
        {
            "inputs": [
                {
                    "internalType": "uint256",
                    "name": "owner",
                    "type": "uint256"
                },
                {
                    "internalType": "address",
                    "name": "directKeeper",
                    "type": "address"
                },
                {
                    "internalType": "address",
                    "name": "regCenter",
                    "type": "address"
                },
                {
                    "internalType": "address",
                    "name": "generalKeeper",
                    "type": "address"
                }
            ],
            "name": "init",
            "outputs": [],
            "stateMutability": "nonpayable",
            "type": "function"
        },
        {
            "inputs": [
                {
                    "internalType": "uint256",
                    "name": "acct",
                    "type": "uint256"
                },
                {
                    "internalType": "uint256",
                    "name": "class",
                    "type": "uint256"
                }
            ],
            "name": "isClassMember",
            "outputs": [
                {
                    "internalType": "bool",
                    "name": "flag",
                    "type": "bool"
                }
            ],
            "stateMutability": "view",
            "type": "function"
        },
        {
            "inputs": [
                {
                    "internalType": "uint256",
                    "name": "acct",
                    "type": "uint256"
                }
            ],
            "name": "isGroupRep",
            "outputs": [
                {
                    "internalType": "bool",
                    "name": "",
                    "type": "bool"
                }
            ],
            "stateMutability": "view",
            "type": "function"
        },
        {
            "inputs": [
                {
                    "internalType": "uint256",
                    "name": "acct",
                    "type": "uint256"
                }
            ],
            "name": "isMember",
            "outputs": [
                {
                    "internalType": "bool",
                    "name": "",
                    "type": "bool"
                }
            ],
            "stateMutability": "view",
            "type": "function"
        },
        {
            "inputs": [
                {
                    "internalType": "uint256",
                    "name": "seqOfShare",
                    "type": "uint256"
                }
            ],
            "name": "isSeqOfShare",
            "outputs": [
                {
                    "internalType": "bool",
                    "name": "",
                    "type": "bool"
                }
            ],
            "stateMutability": "view",
            "type": "function"
        },
        {
            "inputs": [],
            "name": "lockContents",
            "outputs": [],
            "stateMutability": "nonpayable",
            "type": "function"
        },
        {
            "inputs": [],
            "name": "maxQtyOfMembers",
            "outputs": [
                {
                    "internalType": "uint32",
                    "name": "",
                    "type": "uint32"
                }
            ],
            "stateMutability": "view",
            "type": "function"
        },
        {
            "inputs": [],
            "name": "membersList",
            "outputs": [
                {
                    "internalType": "uint256[]",
                    "name": "",
                    "type": "uint256[]"
                }
            ],
            "stateMutability": "view",
            "type": "function"
        },
        {
            "inputs": [
                {
                    "internalType": "uint256",
                    "name": "acct",
                    "type": "uint256"
                }
            ],
            "name": "membersOfGroup",
            "outputs": [
                {
                    "internalType": "uint256[]",
                    "name": "",
                    "type": "uint256[]"
                }
            ],
            "stateMutability": "view",
            "type": "function"
        },
        {
            "inputs": [],
            "name": "ownersEquity",
            "outputs": [
                {
                    "components": [
                        {
                            "internalType": "uint48",
                            "name": "timestamp",
                            "type": "uint48"
                        },
                        {
                            "internalType": "uint64",
                            "name": "paid",
                            "type": "uint64"
                        },
                        {
                            "internalType": "uint64",
                            "name": "par",
                            "type": "uint64"
                        },
                        {
                            "internalType": "uint64",
                            "name": "cleanPaid",
                            "type": "uint64"
                        }
                    ],
                    "internalType": "struct Checkpoints.Checkpoint",
                    "name": "cap",
                    "type": "tuple"
                }
            ],
            "stateMutability": "view",
            "type": "function"
        },
        {
            "inputs": [],
            "name": "qtyOfGroups",
            "outputs": [
                {
                    "internalType": "uint256",
                    "name": "",
                    "type": "uint256"
                }
            ],
            "stateMutability": "view",
            "type": "function"
        },
        {
            "inputs": [
                {
                    "internalType": "uint256",
                    "name": "acct",
                    "type": "uint256"
                },
                {
                    "internalType": "uint256",
                    "name": "root",
                    "type": "uint256"
                }
            ],
            "name": "removeMemberFromGroup",
            "outputs": [],
            "stateMutability": "nonpayable",
            "type": "function"
        },
        {
            "inputs": [
                {
                    "components": [
                        {
                            "components": [
                                {
                                    "internalType": "uint32",
                                    "name": "seqOfShare",
                                    "type": "uint32"
                                },
                                {
                                    "internalType": "uint32",
                                    "name": "preSeq",
                                    "type": "uint32"
                                },
                                {
                                    "internalType": "uint16",
                                    "name": "class",
                                    "type": "uint16"
                                },
                                {
                                    "internalType": "uint48",
                                    "name": "issueDate",
                                    "type": "uint48"
                                },
                                {
                                    "internalType": "uint40",
                                    "name": "shareholder",
                                    "type": "uint40"
                                },
                                {
                                    "internalType": "uint32",
                                    "name": "priceOfPaid",
                                    "type": "uint32"
                                },
                                {
                                    "internalType": "uint32",
                                    "name": "priceOfPar",
                                    "type": "uint32"
                                },
                                {
                                    "internalType": "uint16",
                                    "name": "para",
                                    "type": "uint16"
                                },
                                {
                                    "internalType": "uint8",
                                    "name": "arg",
                                    "type": "uint8"
                                }
                            ],
                            "internalType": "struct SharesRepo.Head",
                            "name": "head",
                            "type": "tuple"
                        },
                        {
                            "components": [
                                {
                                    "internalType": "uint48",
                                    "name": "payInDeadline",
                                    "type": "uint48"
                                },
                                {
                                    "internalType": "uint64",
                                    "name": "paid",
                                    "type": "uint64"
                                },
                                {
                                    "internalType": "uint64",
                                    "name": "par",
                                    "type": "uint64"
                                },
                                {
                                    "internalType": "uint64",
                                    "name": "cleanPaid",
                                    "type": "uint64"
                                },
                                {
                                    "internalType": "uint8",
                                    "name": "state",
                                    "type": "uint8"
                                },
                                {
                                    "internalType": "uint8",
                                    "name": "para",
                                    "type": "uint8"
                                }
                            ],
                            "internalType": "struct SharesRepo.Body",
                            "name": "body",
                            "type": "tuple"
                        }
                    ],
                    "internalType": "struct SharesRepo.Share",
                    "name": "share",
                    "type": "tuple"
                }
            ],
            "name": "removeShareFromMember",
            "outputs": [],
            "stateMutability": "nonpayable",
            "type": "function"
        },
        {
            "inputs": [
                {
                    "internalType": "bytes32",
                    "name": "role",
                    "type": "bytes32"
                }
            ],
            "name": "renounceRole",
            "outputs": [],
            "stateMutability": "nonpayable",
            "type": "function"
        },
        {
            "inputs": [
                {
                    "internalType": "bytes32",
                    "name": "role",
                    "type": "bytes32"
                },
                {
                    "internalType": "uint256",
                    "name": "acct",
                    "type": "uint256"
                }
            ],
            "name": "revokeRole",
            "outputs": [],
            "stateMutability": "nonpayable",
            "type": "function"
        },
        {
            "inputs": [
                {
                    "internalType": "bool",
                    "name": "onPar",
                    "type": "bool"
                }
            ],
            "name": "setAmtBase",
            "outputs": [],
            "stateMutability": "nonpayable",
            "type": "function"
        },
        {
            "inputs": [
                {
                    "internalType": "address",
                    "name": "keeper",
                    "type": "address"
                }
            ],
            "name": "setDirectKeeper",
            "outputs": [],
            "stateMutability": "nonpayable",
            "type": "function"
        },
        {
            "inputs": [
                {
                    "internalType": "uint256",
                    "name": "acct",
                    "type": "uint256"
                }
            ],
            "name": "setGeneralCounsel",
            "outputs": [],
            "stateMutability": "nonpayable",
            "type": "function"
        },
        {
            "inputs": [
                {
                    "internalType": "uint256",
                    "name": "max",
                    "type": "uint256"
                }
            ],
            "name": "setMaxQtyOfMembers",
            "outputs": [],
            "stateMutability": "nonpayable",
            "type": "function"
        },
        {
            "inputs": [
                {
                    "internalType": "uint256",
                    "name": "acct",
                    "type": "uint256"
                }
            ],
            "name": "setOwner",
            "outputs": [],
            "stateMutability": "nonpayable",
            "type": "function"
        },
        {
            "inputs": [
                {
                    "internalType": "bytes32",
                    "name": "role",
                    "type": "bytes32"
                },
                {
                    "internalType": "uint256",
                    "name": "acct",
                    "type": "uint256"
                }
            ],
            "name": "setRoleAdmin",
            "outputs": [],
            "stateMutability": "nonpayable",
            "type": "function"
        },
        {
            "inputs": [
                {
                    "internalType": "bool",
                    "name": "onPar",
                    "type": "bool"
                }
            ],
            "name": "setVoteBase",
            "outputs": [],
            "stateMutability": "nonpayable",
            "type": "function"
        },
        {
            "inputs": [
                {
                    "internalType": "uint256",
                    "name": "acct",
                    "type": "uint256"
                }
            ],
            "name": "sharesClipOfMember",
            "outputs": [
                {
                    "components": [
                        {
                            "internalType": "uint48",
                            "name": "timestamp",
                            "type": "uint48"
                        },
                        {
                            "internalType": "uint64",
                            "name": "paid",
                            "type": "uint64"
                        },
                        {
                            "internalType": "uint64",
                            "name": "par",
                            "type": "uint64"
                        },
                        {
                            "internalType": "uint64",
                            "name": "cleanPaid",
                            "type": "uint64"
                        }
                    ],
                    "internalType": "struct Checkpoints.Checkpoint",
                    "name": "clip",
                    "type": "tuple"
                }
            ],
            "stateMutability": "view",
            "type": "function"
        },
        {
            "inputs": [
                {
                    "internalType": "uint256",
                    "name": "acct",
                    "type": "uint256"
                }
            ],
            "name": "sharesInHand",
            "outputs": [
                {
                    "internalType": "uint256[]",
                    "name": "list",
                    "type": "uint256[]"
                }
            ],
            "stateMutability": "view",
            "type": "function"
        },
        {
            "inputs": [],
            "name": "sharesList",
            "outputs": [
                {
                    "internalType": "uint256[]",
                    "name": "",
                    "type": "uint256[]"
                }
            ],
            "stateMutability": "view",
            "type": "function"
        },
        {
            "inputs": [],
            "name": "totalVotes",
            "outputs": [
                {
                    "internalType": "uint64",
                    "name": "",
                    "type": "uint64"
                }
            ],
            "stateMutability": "view",
            "type": "function"
        },
        {
            "inputs": [
                {
                    "internalType": "uint256",
                    "name": "acct",
                    "type": "uint256"
                },
                {
                    "internalType": "uint256",
                    "name": "date",
                    "type": "uint256"
                }
            ],
            "name": "votesAtDate",
            "outputs": [
                {
                    "internalType": "uint64",
                    "name": "",
                    "type": "uint64"
                }
            ],
            "stateMutability": "view",
            "type": "function"
        },
        {
            "inputs": [
                {
                    "internalType": "uint256",
                    "name": "acct",
                    "type": "uint256"
                }
            ],
            "name": "votesInHand",
            "outputs": [
                {
                    "internalType": "uint64",
                    "name": "",
                    "type": "uint64"
                }
            ],
            "stateMutability": "view",
            "type": "function"
        },
        {
            "inputs": [],
            "name": "votesOfController",
            "outputs": [
                {
                    "internalType": "uint64",
                    "name": "",
                    "type": "uint64"
                }
            ],
            "stateMutability": "view",
            "type": "function"
        },
        {
            "inputs": [
                {
                    "internalType": "uint256",
                    "name": "acct",
                    "type": "uint256"
                }
            ],
            "name": "votesOfGroup",
            "outputs": [
                {
                    "internalType": "uint64",
                    "name": "",
                    "type": "uint64"
                }
            ],
            "stateMutability": "view",
            "type": "function"
        }
    ],
    "bytecode": "608060405234801561001057600080fd5b50614132806100206000396000f3fe608060405234801561001057600080fd5b506004361061030c5760003560e01c80638041494e1161019d578063c410c23a116100e9578063dd5042f4116100a2578063e80bf9061161007c578063e80bf906146106e1578063eca9cb1d146106f4578063ed21102314610707578063f045a7691461072757600080fd5b8063dd5042f4146106be578063dd8a18e9146106c6578063e4df9100146106d957600080fd5b8063c410c23a14610649578063c70bc6731461065f578063cd27821e14610672578063d50c737714610685578063da6a43d614610698578063dc890da9146106ab57600080fd5b80639a09e43c11610156578063b966ac4511610130578063b966ac45146105bc578063ba52f4ac14610610578063bdc36f6214610623578063c2d7616e1461063657600080fd5b80639a09e43c146105805780639c54297c14610593578063b3f05b97146105a857600080fd5b80638041494e1461052f5780638170c3b914610542578063851aa5a01461054a578063893d20e81461055d5780638bb9c5bf14610565578063984199281461057857600080fd5b806329d01b3a1161025c5780634a14beb111610215578063605c5ec6116101ef578063605c5ec6146104e357806368c1047b146104f65780636be8496f146105095780637e063c5a1461051c57600080fd5b80634a14beb1146104aa5780635171ebd4146104bd57806357f1929c146104d057600080fd5b806329d01b3a1461044e5780632bf82aab1461045657806331846b711461046957806337f8f90a1461047c5780633da9a6001461048f5780633f17cd45146104a257600080fd5b806317bb90d6116102c95780631b6ea9f9116102a35780631b6ea9f9146103f85780631ed0e6f71461040b578063218668fa1461041e5780632898436f1461043157600080fd5b806317bb90d6146103b257806319951c8a146103d257806319d61ad9146103e557600080fd5b80630787c777146103115780630aaa5dae146103395780630d15fd771461034e578063103f6edd1461036e5780631089f5ed1461038c57806311aa51291461039f575b600080fd5b61032461031f3660046137e7565b61072f565b60405190151581526020015b60405180910390f35b61034c610347366004613800565b6107cb565b005b610356610936565b6040516001600160401b039091168152602001610330565b6103766109c0565b60405164ffffffffff9091168152602001610330565b61034c61039a3660046137e7565b610a47565b61034c6103ad366004613830565b610e43565b6103c56103c03660046137e7565b6110c9565b6040516103309190613871565b61034c6103e0366004613a96565b611160565b61034c6103f3366004613800565b611382565b61034c610406366004613800565b611414565b610324610419366004613800565b61143a565b6103c561042c3660046137e7565b6114d5565b610439611515565b60405163ffffffff9091168152602001610330565b61043961159b565b610356610464366004613800565b6115d5565b61034c610477366004613a96565b611668565b61034c61048a366004613800565b611966565b61034c61049d3660046137e7565b611ac0565b610356611b4b565b61034c6104b83660046137e7565b611bfe565b61034c6104cb366004613800565b611e5b565b6103566104de3660046137e7565b611e81565b6103766104f13660046137e7565b611f0d565b610324610504366004613800565b611f99565b61034c610517366004613b92565b612080565b61032461052a366004613800565b612132565b61034c61053d3660046137e7565b61217b565b6103c5612234565b61034c6105583660046137e7565b6122e7565b610376612465565b61034c6105733660046137e7565b6124a0565b6103766124c5565b61032461058e3660046137e7565b6124ff565b61059b6125b3565b6040516103309190613baf565b60028054600160f01b900460ff1614610324565b6105c461263c565b6040516103309190815165ffffffffffff1681526020808301516001600160401b0390811691830191909152604080840151821690830152606092830151169181019190915260800190565b6105c461061e3660046137e7565b61270b565b61034c610631366004613c47565b6127e1565b6103566106443660046137e7565b612939565b610651612985565b604051908152602001610330565b6105c461066d3660046137e7565b612a0a565b6106516106803660046137e7565b612ae7565b6103246106933660046137e7565b612b73565b61034c6106a6366004613c47565b612bb4565b61034c6106b9366004613c64565b612d0c565b6103c5612dee565b61034c6106d4366004613800565b612e28565b610324613131565b6103c56106ef3660046137e7565b6131b6565b61034c610702366004613800565b613277565b61070f6133d5565b6040516001600160a01b039091168152602001610330565b61034c61345b565b60405163347f09bd60e11b815260048082015260248101829052600090829073__$0373da85302df7c003c5cc5214782e6132$__906368fe137a9060440160206040518083038186803b15801561078557600080fd5b505af4158015610799573d6000803e3d6000fd5b505050506040513d601f19601f820116820180604052508101906107bd9190613cac565b64ffffffffff161492915050565b60015460405163e0ff5b8b60e01b8152600660048201526001600160a01b039091169063e0ff5b8b9060240160206040518083038186803b15801561080f57600080fd5b505afa158015610823573d6000803e3d6000fd5b505050506040513d601f19601f820116820180604052508101906108479190613cc9565b6001600160a01b0316336001600160a01b0316146108805760405162461bcd60e51b815260040161087790613ce6565b60405180910390fd5b6040516379602c2f60e01b815260048082015260248101839052604481018290526000606482015273__$b59f66f9b4972d644e41bc4977edb0d217$__906379602c2f9060840160006040518083038186803b1580156108df57600080fd5b505af41580156108f3573d6000803e3d6000fd5b505060408051858152602081018590527f9f5c0c4f7f427b42ca7fb66912d0fc64b0aa6879e6e007e556e148d7f744cf3993500190505b60405180910390a15050565b604051630c86a02d60e11b815260048082015260009073__$0373da85302df7c003c5cc5214782e6132$__9063190d405a9060240160206040518083038186803b15801561098357600080fd5b505af4158015610997573d6000803e3d6000fd5b505050506040513d601f19601f820116820180604052508101906109bb9190613d27565b905090565b60405163e8c0cc1d60e01b81526002600482015260009073__$364aad554dc80380f414546becdd2c1584$__9063e8c0cc1d906024015b60206040518083038186803b158015610a0f57600080fd5b505af4158015610a23573d6000803e3d6000fd5b505050506040513d601f19601f820116820180604052508101906109bb9190613cac565b60015460405163e0ff5b8b60e01b8152600660048201526001600160a01b039091169063e0ff5b8b9060240160206040518083038186803b158015610a8b57600080fd5b505afa158015610a9f573d6000803e3d6000fd5b505050506040513d601f19601f82011682018060405250810190610ac39190613cc9565b6001600160a01b0316336001600160a01b031614610af35760405162461bcd60e51b815260040161087790613ce6565b604051633f0a2aed60e21b815260048082015273__$0373da85302df7c003c5cc5214782e6132$__9063fc28abb49060240160206040518083038186803b158015610b3d57600080fd5b505af4158015610b51573d6000803e3d6000fd5b505050506040513d601f19601f82011682018060405250810190610b759190613d44565b60405163b82cf6b760e01b815260048082015263ffffffff919091169073__$0373da85302df7c003c5cc5214782e6132$__9063b82cf6b79060240160206040518083038186803b158015610bc957600080fd5b505af4158015610bdd573d6000803e3d6000fd5b505050506040513d601f19601f82011682018060405250810190610c019190613d44565b63ffffffff161080610c985750604051633f0a2aed60e21b815260048082015273__$0373da85302df7c003c5cc5214782e6132$__9063fc28abb49060240160206040518083038186803b158015610c5857600080fd5b505af4158015610c6c573d6000803e3d6000fd5b505050506040513d601f19601f82011682018060405250810190610c909190613d44565b63ffffffff16155b610cf35760405162461bcd60e51b815260206004820152602660248201527f524f4d2e6164644d656d6265723a20517479206f66204d656d62657273206f766044820152656572666c6f7760d01b6064820152608401610877565b6040516324ac0fef60e11b81526004808201526024810182905273__$0373da85302df7c003c5cc5214782e6132$__906349581fde9060440160206040518083038186803b158015610d4457600080fd5b505af4158015610d58573d6000803e3d6000fd5b505050506040513d601f19601f82011682018060405250810190610d7c9190613d61565b15610e405760405163b82cf6b760e01b815260048082015281907f5659f1f96e42a4f1f64021a2123790ef443bf77ad9612c055b291db8d786cb099073__$0373da85302df7c003c5cc5214782e6132$__9063b82cf6b79060240160206040518083038186803b158015610def57600080fd5b505af4158015610e03573d6000803e3d6000fd5b505050506040513d601f19601f82011682018060405250810190610e279190613d44565b60405163ffffffff909116815260200160405180910390a25b50565b60015460405163e0ff5b8b60e01b8152600660048201526001600160a01b039091169063e0ff5b8b9060240160206040518083038186803b158015610e8757600080fd5b505afa158015610e9b573d6000803e3d6000fd5b505050506040513d601f19601f82011682018060405250810190610ebf9190613cc9565b6001600160a01b0316336001600160a01b031614610eef5760405162461bcd60e51b815260040161087790613ce6565b806110005760008481526005602052604080822090516305ec572760e41b8152600481019190915273__$9d89bb4a2fad48898c323b0a17741df93a$__90635ec572709060240160806040518083038186803b158015610f4e57600080fd5b505af4158015610f62573d6000803e3d6000fd5b505050506040513d601f19601f82011682018060405250810190610f869190613d7e565b90508381602001516001600160401b031610158015610fb257508281604001516001600160401b031610155b610ffe5760405162461bcd60e51b815260206004820181905260248201527f524f4d2e43414f4d3a2070616964206f7220706172206e6f7420656e6f7567686044820152606401610877565b505b604080518481526020810184905282151581830152905185917f088dbd4c54cc2ee22c8831741b89bea910306950c1aeb77c7b5a100f72ecd97d919081900360600190a260405163c149bc7d60e01b8152600480820152602481018590526044810184905260648101839052811515608482015273__$b59f66f9b4972d644e41bc4977edb0d217$__9063c149bc7d9060a40160006040518083038186803b1580156110ab57600080fd5b505af41580156110bf573d6000803e3d6000fd5b5050505050505050565b60405163e9e4a35960e01b81526004808201526024810182905260609073__$b59f66f9b4972d644e41bc4977edb0d217$__9063e9e4a359906044015b60006040518083038186803b15801561111e57600080fd5b505af4158015611132573d6000803e3d6000fd5b505050506040513d6000823e601f3d908101601f1916820160405261115a9190810190613e25565b92915050565b60015460405163e0ff5b8b60e01b8152600660048201526001600160a01b039091169063e0ff5b8b9060240160206040518083038186803b1580156111a457600080fd5b505afa1580156111b8573d6000803e3d6000fd5b505050506040513d601f19601f820116820180604052508101906111dc9190613cc9565b6001600160a01b0316336001600160a01b03161461120c5760405162461bcd60e51b815260040161087790613ce6565b805160405163b16e8a7960e01b815273__$b59f66f9b4972d644e41bc4977edb0d217$__9163b16e8a7991611245916004918201613eba565b60206040518083038186803b15801561125d57600080fd5b505af4158015611271573d6000803e3d6000fd5b505050506040513d601f19601f820116820180604052508101906112959190613d61565b15610e405780516080015160208083015190810151604091820151915163c149bc7d60e01b815260048082015264ffffffffff90931660248401526001600160401b0390811660448401521660648201526001608482015273__$b59f66f9b4972d644e41bc4977edb0d217$__9063c149bc7d9060a40160006040518083038186803b15801561132457600080fd5b505af4158015611338573d6000803e3d6000fd5b505082516080810151905160405164ffffffffff909216935063ffffffff1691507fc98c10dfe7493f4a7f21b247e20c3a4c933cc9cce3b214216be7d766b1fd304190600090a350565b73__$364aad554dc80380f414546becdd2c1584$__6382daafaa600284846113a861369f565b6040516001600160e01b031960e087901b16815260048101949094526024840192909252604483015264ffffffffff16606482015260840160006040518083038186803b1580156113f857600080fd5b505af415801561140c573d6000803e3d6000fd5b505050505050565b73__$364aad554dc80380f414546becdd2c1584$__636320d75e600284846113a861369f565b604051637c966ea760e01b8152600480820152602481018390526044810182905260009073__$b59f66f9b4972d644e41bc4977edb0d217$__90637c966ea7906064015b60206040518083038186803b15801561149657600080fd5b505af41580156114aa573d6000803e3d6000fd5b505050506040513d601f19601f820116820180604052508101906114ce9190613d61565b9392505050565b6040516222d07160e91b81526004808201526024810182905260609073__$0373da85302df7c003c5cc5214782e6132$__906345a0e20090604401611106565b604051633f0a2aed60e21b815260048082015260009073__$0373da85302df7c003c5cc5214782e6132$__9063fc28abb4906024015b60206040518083038186803b15801561156357600080fd5b505af4158015611577573d6000803e3d6000fd5b505050506040513d601f19601f820116820180604052508101906109bb9190613d44565b60405163b82cf6b760e01b815260048082015260009073__$0373da85302df7c003c5cc5214782e6132$__9063b82cf6b79060240161154b565b604051630513b9bb60e01b8152600480820152602481018390526044810182905260009073__$b59f66f9b4972d644e41bc4977edb0d217$__90630513b9bb9060640160206040518083038186803b15801561163057600080fd5b505af4158015611644573d6000803e3d6000fd5b505050506040513d601f19601f820116820180604052508101906114ce9190613d27565b60015460405163e0ff5b8b60e01b8152600660048201526001600160a01b039091169063e0ff5b8b9060240160206040518083038186803b1580156116ac57600080fd5b505afa1580156116c0573d6000803e3d6000fd5b505050506040513d601f19601f820116820180604052508101906116e49190613cc9565b6001600160a01b0316336001600160a01b0316146117145760405162461bcd60e51b815260040161087790613ce6565b61175281600001516080015164ffffffffff168260200151602001516001600160401b03168360200151604001516001600160401b03166000610e43565b8051604051631a5fec8b60e21b815273__$b59f66f9b4972d644e41bc4977edb0d217$__9163697fb22c9161178b916004918201613eba565b60206040518083038186803b1580156117a357600080fd5b505af41580156117b7573d6000803e3d6000fd5b505050506040513d601f19601f820116820180604052508101906117db9190613d61565b15610e405780516080015164ffffffffff1660009081526005602052604090819020905163c2b46a8560e01b81526001909101600482015273__$8c1a4844a0a0988ea2454cf87145a95df1$__9063c2b46a859060240160206040518083038186803b15801561184a57600080fd5b505af415801561185e573d6000803e3d6000fd5b505050506040513d601f19601f820116820180604052508101906118829190613f70565b61191e57805160800151604051630901965960e11b815260048082015264ffffffffff909116602482015273__$b59f66f9b4972d644e41bc4977edb0d217$__906312032cb29060440160206040518083038186803b1580156118e457600080fd5b505af41580156118f8573d6000803e3d6000fd5b505050506040513d601f19601f8201168201806040525081019061191c9190613d61565b505b80516080810151905160405164ffffffffff9092169163ffffffff909116907f9b8184045aa5752de9f9c7155b26141f222ac4abf9dd8fa634dbba785e2d8f1790600090a350565b60015460405163e0ff5b8b60e01b8152600660048201526001600160a01b039091169063e0ff5b8b9060240160206040518083038186803b1580156119aa57600080fd5b505afa1580156119be573d6000803e3d6000fd5b505050506040513d601f19601f820116820180604052508101906119e29190613cc9565b6001600160a01b0316336001600160a01b031614611a125760405162461bcd60e51b815260040161087790613ce6565b6040516379602c2f60e01b815260048082015260248101839052604481018290526001606482015273__$b59f66f9b4972d644e41bc4977edb0d217$__906379602c2f9060840160006040518083038186803b158015611a7157600080fd5b505af4158015611a85573d6000803e3d6000fd5b505060408051858152602081018590527f86a0852ece11caed84e8a6cb7279145aa48fe9f5ad7e9cc7e73bcb03101ac49e935001905061092a565b73__$364aad554dc80380f414546becdd2c1584$__63c51b295f600283611ae561369f565b6040516001600160e01b031960e086901b1681526004810193909352602483019190915264ffffffffff16604482015260640160006040518083038186803b158015611b3057600080fd5b505af4158015611b44573d6000803e3d6000fd5b5050505050565b60405163feeac47f60e01b8152600480820152600090819073__$0373da85302df7c003c5cc5214782e6132$__9063feeac47f9060240160206040518083038186803b158015611b9a57600080fd5b505af4158015611bae573d6000803e3d6000fd5b505050506040513d601f19601f82011682018060405250810190611bd29190613cac565b64ffffffffff16600090815260046020526040902054600160b81b90046001600160401b031692915050565b604051633b11adbf60e21b81526002600482015233602482015273__$364aad554dc80380f414546becdd2c1584$__9063ec46b6fc9060440160206040518083038186803b158015611c4f57600080fd5b505af4158015611c63573d6000803e3d6000fd5b505050506040513d601f19601f82011682018060405250810190611c879190613d61565b80611d2c575073__$364aad554dc80380f414546becdd2c1584$__63fe2710866002611cb161369f565b6040516001600160e01b031960e085901b168152600481019290925264ffffffffff16602482015260440160206040518083038186803b158015611cf457600080fd5b505af4158015611d08573d6000803e3d6000fd5b505050506040513d601f19601f82011682018060405250810190611d2c9190613d61565b611d975760405162461bcd60e51b815260206004820152603660248201527f41432e6f776e65724f72446972656374426f6f6b65657065723a206e6569746860448201527532b91037bbb732b9103737b9103137b7b5b2b2b832b960511b6064820152608401610877565b73__$364aad554dc80380f414546becdd2c1584$__639b4510de600283611dbc61369f565b6040516001600160e01b031960e086901b1681526004810193909352602483019190915264ffffffffff16604482015260640160006040518083038186803b158015611e0757600080fd5b505af4158015611e1b573d6000803e3d6000fd5b505050507ff2735f34b69be1e6342dea95f9162f84d0db925fab655ca9f1f312ac8cbfc99d81604051611e5091815260200190565b60405180910390a150565b73__$364aad554dc80380f414546becdd2c1584$__63ee98b313600284846113a861369f565b604051630776f0c360e51b81526004808201526024810182905260009073__$0373da85302df7c003c5cc5214782e6132$__9063eede18609060440160206040518083038186803b158015611ed557600080fd5b505af4158015611ee9573d6000803e3d6000fd5b505050506040513d601f19601f8201168201806040525081019061115a9190613d27565b60405163347f09bd60e11b81526004808201526024810182905260009073__$0373da85302df7c003c5cc5214782e6132$__906368fe137a9060440160206040518083038186803b158015611f6157600080fd5b505af4158015611f75573d6000803e3d6000fd5b505050506040513d601f19601f8201168201806040525081019061115a9190613cac565b600082611fa581612b73565b611fc15760405162461bcd60e51b815260040161087790613f89565b82611fcb81612b73565b611fe75760405162461bcd60e51b815260040161087790613f89565b60405163fd0f8c6560e01b8152600480820152602481018690526044810185905273__$0373da85302df7c003c5cc5214782e6132$__9063fd0f8c659060640160206040518083038186803b15801561203f57600080fd5b505af4158015612053573d6000803e3d6000fd5b505050506040513d601f19601f820116820180604052508101906120779190613d61565b95945050505050565b604051630f07232560e01b8152600260048201526001600160a01b038216602482015233604482015273__$364aad554dc80380f414546becdd2c1584$__90630f0723259060640160006040518083038186803b1580156120e057600080fd5b505af41580156120f4573d6000803e3d6000fd5b50506040516001600160a01b03841681527fe435cbeab64e4eae6497b9d8289704bd709d624a80704ef3ca9af777534bc6ec92506020019050611e50565b604051632a3be56b60e21b815260026004820152602481018390526044810182905260009073__$364aad554dc80380f414546becdd2c1584$__9063a8ef95ac9060640161147e565b73__$364aad554dc80380f414546becdd2c1584$__639b48160c6002836121a061369f565b6040516001600160e01b031960e086901b1681526004810193909352602483019190915264ffffffffff16604482015260640160006040518083038186803b1580156121eb57600080fd5b505af41580156121ff573d6000803e3d6000fd5b505050507f8b6f40f36b4ae8cc5f55e895036457c43da4ab1f80f58c46f5ff0d72a650033b81604051611e5091815260200190565b60008052600560205260405163034306e160e21b81527f05b8ccbb9d4d8fb16ea74ce3c29a41f1b461fbdaff4714a0d9a8eb05499746bd600482015260609073__$8c1a4844a0a0988ea2454cf87145a95df1$__90630d0c1b84906024015b60006040518083038186803b1580156122ab57600080fd5b505af41580156122bf573d6000803e3d6000fd5b505050506040513d6000823e601f3d908101601f191682016040526109bb9190810190613e25565b604051633b11adbf60e21b81526002600482015233602482015273__$364aad554dc80380f414546becdd2c1584$__9063ec46b6fc9060440160206040518083038186803b15801561233857600080fd5b505af415801561234c573d6000803e3d6000fd5b505050506040513d601f19601f820116820180604052508101906123709190613d61565b6123cb5760405162461bcd60e51b815260206004820152602660248201527f41432e6f6e6c794469726563744b65657065723a206e6f74206469726563742060448201526535b2b2b832b960d11b6064820152608401610877565b60405163b6b6442960e01b81526004808201526024810182905273__$0373da85302df7c003c5cc5214782e6132$__9063b6b644299060440160006040518083038186803b15801561241c57600080fd5b505af4158015612430573d6000803e3d6000fd5b505050507f65670568408e48c4c83cf403e3440e7bde8ac34f6cc7f452d32e3a2bd21a9c9181604051611e5091815260200190565b60405163987ad15360e01b81526002600482015260009073__$364aad554dc80380f414546becdd2c1584$__9063987ad153906024016109f7565b73__$364aad554dc80380f414546becdd2c1584$__63cc0d511b600283611ae561369f565b60405163feeac47f60e01b815260048082015260009073__$0373da85302df7c003c5cc5214782e6132$__9063feeac47f906024016109f7565b60008080526005602052604051633f5f77cd60e01b81527f05b8ccbb9d4d8fb16ea74ce3c29a41f1b461fbdaff4714a0d9a8eb05499746bd60048201526024810183905273__$8c1a4844a0a0988ea2454cf87145a95df1$__90633f5f77cd906044015b60206040518083038186803b15801561257b57600080fd5b505af415801561258f573d6000803e3d6000fd5b505050506040513d601f19601f8201168201806040525081019061115a9190613d61565b60405163118158f560e11b815260048082015260609073__$0373da85302df7c003c5cc5214782e6132$__90632302b1ea9060240160006040518083038186803b15801561260057600080fd5b505af4158015612614573d6000803e3d6000fd5b505050506040513d6000823e601f3d908101601f191682016040526109bb9190810190613fc0565b6040805160808101825260008082526020820181905291810182905260608101919091526000805260056020526040516305ec572760e41b81527f05b8ccbb9d4d8fb16ea74ce3c29a41f1b461fbdaff4714a0d9a8eb05499746bc600482015273__$9d89bb4a2fad48898c323b0a17741df93a$__90635ec572709060240160806040518083038186803b1580156126d357600080fd5b505af41580156126e7573d6000803e3d6000fd5b505050506040513d601f19601f820116820180604052508101906109bb9190613d7e565b60408051608081018252600080825260208201819052918101829052606081019190915260008052600560205260405163e8fce06b60e01b81527f05b8ccbb9d4d8fb16ea74ce3c29a41f1b461fbdaff4714a0d9a8eb05499746bc60048201526024810183905273__$9d89bb4a2fad48898c323b0a17741df93a$__9063e8fce06b9060440160806040518083038186803b1580156127a957600080fd5b505af41580156127bd573d6000803e3d6000fd5b505050506040513d601f19601f8201168201806040525081019061115a9190613d7e565b6001546040516335d2155560e11b81523360048201526001600160a01b0390911690636ba42aaa9060240160206040518083038186803b15801561282457600080fd5b505afa158015612838573d6000803e3d6000fd5b505050506040513d601f19601f8201168201806040525081019061285c9190613d61565b6128785760405162461bcd60e51b8152600401610877906140d1565b604051630d98f2af60e41b8152600480820152811515602482015273__$0373da85302df7c003c5cc5214782e6132$__9063d98f2af09060440160206040518083038186803b1580156128ca57600080fd5b505af41580156128de573d6000803e3d6000fd5b505050506040513d601f19601f820116820180604052508101906129029190613d61565b15610e405760405181151581527f0b1b96bce125700569e932050b6c2b3da7dabbe97241d19ff114400cb3546be890602001611e50565b60008161294581612b73565b6129615760405162461bcd60e51b815260040161087790613f89565b5050600090815260046020526040902054600160781b90046001600160401b031690565b604051636c49485960e01b815260048082015260009073__$0373da85302df7c003c5cc5214782e6132$__90636c4948599060240160206040518083038186803b1580156129d257600080fd5b505af41580156129e6573d6000803e3d6000fd5b505050506040513d601f19601f820116820180604052508101906109bb9190613f70565b60408051608081018252600080825260208201819052918101829052606081019190915281612a3881612b73565b612a545760405162461bcd60e51b815260040161087790613f89565b6000838152600560205260409081902090516305ec572760e41b8152600481019190915273__$9d89bb4a2fad48898c323b0a17741df93a$__90635ec572709060240160806040518083038186803b158015612aaf57600080fd5b505af4158015612ac3573d6000803e3d6000fd5b505050506040513d601f19601f820116820180604052508101906114ce9190613d7e565b6040516312a6722f60e31b81526004808201526024810182905260009073__$0373da85302df7c003c5cc5214782e6132$__9063953391789060440160206040518083038186803b158015612b3b57600080fd5b505af4158015612b4f573d6000803e3d6000fd5b505050506040513d601f19601f8201168201806040525081019061115a9190613f70565b604051630a4225b960e41b81526004808201526024810182905260009073__$0373da85302df7c003c5cc5214782e6132$__9063a4225b9090604401612563565b6001546040516335d2155560e11b81523360048201526001600160a01b0390911690636ba42aaa9060240160206040518083038186803b158015612bf757600080fd5b505afa158015612c0b573d6000803e3d6000fd5b505050506040513d601f19601f82011682018060405250810190612c2f9190613d61565b612c4b5760405162461bcd60e51b8152600401610877906140d1565b6040516313f6237f60e01b8152600480820152811515602482015273__$b59f66f9b4972d644e41bc4977edb0d217$__906313f6237f9060440160206040518083038186803b158015612c9d57600080fd5b505af4158015612cb1573d6000803e3d6000fd5b505050506040513d601f19601f82011682018060405250810190612cd59190613d61565b15610e405760405181151581527f1e06c59992faf7c98f854af104dd450a2705f0e45c9bf4de8043c574c0079c1090602001611e50565b604051636cdd0edf60e11b815260026004820152602481018590526001600160a01b038416604482015273__$364aad554dc80380f414546becdd2c1584$__9063d9ba1dbe9060640160006040518083038186803b158015612d6d57600080fd5b505af4158015612d81573d6000803e3d6000fd5b50505050612d8e826136f9565b612d978161376c565b604080518581526001600160a01b038581166020830152848116828401528316606082015290517f3abb2418c66fe32ba9c883030a75ce583971d9af9192b9b74e44e67c5e6c8c1f9181900360800190a150505050565b604051632666ad2360e21b815260048082015260609073__$0373da85302df7c003c5cc5214782e6132$__9063999ab48c90602401612293565b6001546040516335d2155560e11b81523360048201526001600160a01b0390911690636ba42aaa9060240160206040518083038186803b158015612e6b57600080fd5b505afa158015612e7f573d6000803e3d6000fd5b505050506040513d601f19601f82011682018060405250810190612ea39190613d61565b612ebf5760405162461bcd60e51b8152600401610877906140d1565b60405163347f09bd60e11b81526004808201526024810183905273__$0373da85302df7c003c5cc5214782e6132$__906368fe137a9060440160206040518083038186803b158015612f1057600080fd5b505af4158015612f24573d6000803e3d6000fd5b505050506040513d601f19601f82011682018060405250810190612f489190613cac565b64ffffffffff168114612fac5760405162461bcd60e51b815260206004820152602660248201527f524f4d2e524d46473a20526f6f74206973206e6f742067726f7570526570206f60448201526519881058d8dd60d21b6064820152608401610877565b60405163b110cd5b60e01b81526004808201526024810183905260009073__$0373da85302df7c003c5cc5214782e6132$__9063b110cd5b9060440160206040518083038186803b15801561300057600080fd5b505af4158015613014573d6000803e3d6000fd5b505050506040513d601f19601f820116820180604052508101906130389190613f70565b6040516305842a9b60e41b81526004808201526024810185905290915073__$0373da85302df7c003c5cc5214782e6132$__90635842a9b09060440160206040518083038186803b15801561308c57600080fd5b505af41580156130a0573d6000803e3d6000fd5b505050506040513d601f19601f820116820180604052508101906130c49190613d61565b1561312c57604051829084907f7f6e178e0d21cabade7232113cb77bf6fe6f1220aa7b5f8b37b6cff7387671ee90600090a38183141561312c57604051819083907f15704695427fa23b834fbd6162af7c4ba7c47a6eebd02213f72cbb6cb65585a290600090a35b505050565b604051630f24363960e11b815260048082015260009073__$0373da85302df7c003c5cc5214782e6132$__90631e486c729060240160206040518083038186803b15801561317e57600080fd5b505af4158015613192573d6000803e3d6000fd5b505050506040513d601f19601f820116820180604052508101906109bb9190613d61565b6060816131c281612b73565b6131de5760405162461bcd60e51b815260040161087790613f89565b60008381526005602052604090819020905163034306e160e21b81526001909101600482015273__$8c1a4844a0a0988ea2454cf87145a95df1$__90630d0c1b849060240160006040518083038186803b15801561323b57600080fd5b505af415801561324f573d6000803e3d6000fd5b505050506040513d6000823e601f3d908101601f191682016040526114ce9190810190613e25565b6001546040516335d2155560e11b81523360048201526001600160a01b0390911690636ba42aaa9060240160206040518083038186803b1580156132ba57600080fd5b505afa1580156132ce573d6000803e3d6000fd5b505050506040513d601f19601f820116820180604052508101906132f29190613d61565b61330e5760405162461bcd60e51b8152600401610877906140d1565b604051630df234af60e21b8152600480820152602481018390526044810182905273__$0373da85302df7c003c5cc5214782e6132$__906337c8d2bc9060640160206040518083038186803b15801561336657600080fd5b505af415801561337a573d6000803e3d6000fd5b505050506040513d601f19601f8201168201806040525081019061339e9190613d61565b156133d157604051819083907f3350b2acbac0aab07d3382e79a507540c3dba600aa4f5a841ca9158c6550b21a90600090a35b5050565b604051633c3e56c160e11b81526002600482015260009073__$364aad554dc80380f414546becdd2c1584$__9063787cad829060240160206040518083038186803b15801561342357600080fd5b505af4158015613437573d6000803e3d6000fd5b505050506040513d601f19601f820116820180604052508101906109bb9190613cc9565b600254600160f01b900460ff166001146134b75760405162461bcd60e51b815260206004820152601760248201527f41432e4c433a20446f632069732066696e616c697a65640000000000000000006044820152606401610877565b73__$364aad554dc80380f414546becdd2c1584$__63c51b295f6002684174746f726e65797360b81b6134e861369f565b6040516001600160e01b031960e086901b1681526004810193909352602483019190915264ffffffffff16604482015260640160006040518083038186803b15801561353357600080fd5b505af4158015613547573d6000803e3d6000fd5b50505050600273__$364aad554dc80380f414546becdd2c1584$__639b4510de9091600061357361369f565b6040516001600160e01b031960e086901b1681526004810193909352602483019190915264ffffffffff16604482015260640160006040518083038186803b1580156135be57600080fd5b505af41580156135d2573d6000803e3d6000fd5b50505050600273__$364aad554dc80380f414546becdd2c1584$__639b48160c909160006135fe61369f565b6040516001600160e01b031960e086901b1681526004810193909352602483019190915264ffffffffff16604482015260640160006040518083038186803b15801561364957600080fd5b505af415801561365d573d6000803e3d6000fd5b50506002805460ff60f01b1916600160f11b17905550506040517f35012b512309c322acf68632cd6cb702ff0e1d776fbe9394e38ffc13b434fe7590600090a1565b60008054604051636ae3b70d60e11b81523360048201526001600160a01b039091169063d5c76e1a90602401602060405180830381600087803b1580156136e557600080fd5b505af1158015610a23573d6000803e3d6000fd5b6000546001600160a01b03161561374a5760405162461bcd60e51b815260206004820152601560248201527430b63932b0b23c9039b2ba103932b3a1b2b73a32b960591b6044820152606401610877565b600080546001600160a01b0319166001600160a01b0392909216919091179055565b6001546001600160a01b0316156137c55760405162461bcd60e51b815260206004820152601960248201527f616c7265616479207365742067656e6572616c4b6565706572000000000000006044820152606401610877565b600180546001600160a01b0319166001600160a01b0392909216919091179055565b6000602082840312156137f957600080fd5b5035919050565b6000806040838503121561381357600080fd5b50508035926020909101359150565b8015158114610e4057600080fd5b6000806000806080858703121561384657600080fd5b843593506020850135925060408501359150606085013561386681613822565b939692955090935050565b6020808252825182820181905260009190848201906040850190845b818110156138a95783518352928401929184019160010161388d565b50909695505050505050565b634e487b7160e01b600052604160045260246000fd5b60405160c081016001600160401b03811182821017156138ed576138ed6138b5565b60405290565b604080519081016001600160401b03811182821017156138ed576138ed6138b5565b60405161012081016001600160401b03811182821017156138ed576138ed6138b5565b604051601f8201601f191681016001600160401b0381118282101715613960576139606138b5565b604052919050565b63ffffffff81168114610e4057600080fd5b803561398581613968565b919050565b803561ffff8116811461398557600080fd5b65ffffffffffff81168114610e4057600080fd5b80356139858161399c565b64ffffffffff81168114610e4057600080fd5b8035613985816139bb565b60ff81168114610e4057600080fd5b8035613985816139d9565b6001600160401b0381168114610e4057600080fd5b600060c08284031215613a1a57600080fd5b613a226138cb565b90508135613a2f8161399c565b81526020820135613a3f816139f3565b60208201526040820135613a52816139f3565b60408201526060820135613a65816139f3565b60608201526080820135613a78816139d9565b608082015260a0820135613a8b816139d9565b60a082015292915050565b60008183036101e0811215613aaa57600080fd5b613ab26138f3565b61012080831215613ac257600080fd5b613aca613915565b9250613ad58561397a565b8352613ae36020860161397a565b6020840152613af46040860161398a565b6040840152613b05606086016139b0565b6060840152613b16608086016139ce565b6080840152613b2760a0860161397a565b60a0840152613b3860c0860161397a565b60c0840152613b4960e0860161398a565b60e0840152610100613b5c8187016139e8565b90840152828252613b6f86868301613a08565b602083015250949350505050565b6001600160a01b0381168114610e4057600080fd5b600060208284031215613ba457600080fd5b81356114ce81613b7d565b602080825282518282018190526000919060409081850190868401855b82811015613c3a578151805164ffffffffff9081168652878201518116888701528682015116868601526060808201516001600160401b03908116918701919091526080808301519091169086015260a09081015160ff169085015260c09093019290850190600101613bcc565b5091979650505050505050565b600060208284031215613c5957600080fd5b81356114ce81613822565b60008060008060808587031215613c7a57600080fd5b843593506020850135613c8c81613b7d565b92506040850135613c9c81613b7d565b9150606085013561386681613b7d565b600060208284031215613cbe57600080fd5b81516114ce816139bb565b600060208284031215613cdb57600080fd5b81516114ce81613b7d565b60208082526021908201527f524f4d2e6d662e4f424f533a206d736753656e646572206973206e6f7420424f6040820152605360f81b606082015260800190565b600060208284031215613d3957600080fd5b81516114ce816139f3565b600060208284031215613d5657600080fd5b81516114ce81613968565b600060208284031215613d7357600080fd5b81516114ce81613822565b600060808284031215613d9057600080fd5b604051608081018181106001600160401b0382111715613db257613db26138b5565b6040528251613dc08161399c565b81526020830151613dd0816139f3565b60208201526040830151613de3816139f3565b60408201526060830151613df6816139f3565b60608201529392505050565b60006001600160401b03821115613e1b57613e1b6138b5565b5060051b60200190565b60006020808385031215613e3857600080fd5b82516001600160401b03811115613e4e57600080fd5b8301601f81018513613e5f57600080fd5b8051613e72613e6d82613e02565b613938565b81815260059190911b82018301908381019087831115613e9157600080fd5b928401925b82841015613eaf57835182529284019290840190613e96565b979650505050505050565b60006101408201905083825263ffffffff808451166020840152806020850151166040840152506040830151613ef6606084018261ffff169052565b50606083015165ffffffffffff8116608084015250608083015164ffffffffff811660a08401525060a083015163ffffffff811660c08401525060c083015163ffffffff811660e08401525060e0830151610100613f598185018361ffff169052565b84015160ff81166101208501529050509392505050565b600060208284031215613f8257600080fd5b5051919050565b6020808252601b908201527f524f4d2e6d656d62657245786973743a204e4f54204d656d6265720000000000604082015260600190565b60006020808385031215613fd357600080fd5b82516001600160401b03811115613fe957600080fd5b8301601f81018513613ffa57600080fd5b8051614008613e6d82613e02565b81815260c0918202830184019184820191908884111561402757600080fd5b938501935b838510156140c55780858a0312156140445760008081fd5b61404c6138cb565b8551614057816139bb565b815285870151614066816139bb565b81880152604086810151614079816139bb565b9082015260608681015161408c816139f3565b9082015260808681015161409f816139f3565b9082015260a0868101516140b2816139d9565b908201528352938401939185019161402c565b50979650505050505050565b60208082526011908201527020a19737b59d103737ba1025b2b2b832b960791b60408201526060019056fea26469706673582212205e3e9cec2fb43e1d7da6ba9e8644a1b9765e780bf02113228442ed3f426fbac164736f6c63430008080033",
    "sourcePath": "/Users/kaptain/github.com/hardhat/comboox/contracts/books/rom/RegisterOfMembers.sol",
    "compiler": {
        "name": "solc",
        "version": "0.8.8+commit.dddeac2f"
    },
    "functionHashes": {
        "abandonRole(bytes32)": "3da9a600",
        "addMember(uint256)": "1089f5ed",
        "addMemberToGroup(uint256,uint256)": "eca9cb1d",
        "addShareToMember(((uint32,uint32,uint16,uint48,uint40,uint32,uint32,uint16,uint8),(uint48,uint64,uint64,uint64,uint8,uint8)))": "19951c8a",
        "affiliated(uint256,uint256)": "68c1047b",
        "basedOnPar()": "e4df9100",
        "capAtDate(uint256)": "ba52f4ac",
        "capDecrease(uint256,uint256)": "0aaa5dae",
        "capIncrease(uint256,uint256)": "37f8f90a",
        "changeAmtOfMember(uint256,uint256,uint256,bool)": "11aa5129",
        "controllor()": "98419928",
        "deepOfGroup(uint256)": "cd27821e",
        "finalized()": "b3f05b97",
        "getBookeeper()": "ed211023",
        "getGeneralCounsel()": "103f6edd",
        "getMembersOfClass(uint256)": "17bb90d6",
        "getNumOfMembers()": "29d01b3a",
        "getOwner()": "893d20e8",
        "getSnapshot()": "9c54297c",
        "grantRole(bytes32,uint256)": "1b6ea9f9",
        "groupRep(uint256)": "605c5ec6",
        "hasRole(bytes32,uint256)": "7e063c5a",
        "init(uint256,address,address,address)": "dc890da9",
        "isClassMember(uint256,uint256)": "1ed0e6f7",
        "isGroupRep(uint256)": "0787c777",
        "isMember(uint256)": "d50c7377",
        "isSeqOfShare(uint256)": "9a09e43c",
        "lockContents()": "f045a769",
        "maxQtyOfMembers()": "2898436f",
        "membersList()": "dd5042f4",
        "membersOfGroup(uint256)": "218668fa",
        "ownersEquity()": "b966ac45",
        "qtyOfGroups()": "c410c23a",
        "removeMemberFromGroup(uint256,uint256)": "dd8a18e9",
        "removeShareFromMember(((uint32,uint32,uint16,uint48,uint40,uint32,uint32,uint16,uint8),(uint48,uint64,uint64,uint64,uint8,uint8)))": "31846b71",
        "renounceRole(bytes32)": "8bb9c5bf",
        "revokeRole(bytes32,uint256)": "19d61ad9",
        "setAmtBase(bool)": "da6a43d6",
        "setDirectKeeper(address)": "6be8496f",
        "setGeneralCounsel(uint256)": "4a14beb1",
        "setMaxQtyOfMembers(uint256)": "851aa5a0",
        "setOwner(uint256)": "8041494e",
        "setRoleAdmin(bytes32,uint256)": "5171ebd4",
        "setVoteBase(bool)": "bdc36f62",
        "sharesClipOfMember(uint256)": "c70bc673",
        "sharesInHand(uint256)": "e80bf906",
        "sharesList()": "8170c3b9",
        "totalVotes()": "0d15fd77",
        "votesAtDate(uint256,uint256)": "2bf82aab",
        "votesInHand(uint256)": "c2d7616e",
        "votesOfController()": "3f17cd45",
        "votesOfGroup(uint256)": "57f1929c"
    },
    "gasEstimates": {
        "creation": {
            "codeDepositCost": "3338000",
            "executionCost": "3715",
            "totalCost": "3341715"
        },
        "external": {
            "abandonRole(bytes32)": "infinite",
            "addMember(uint256)": "infinite",
            "addMemberToGroup(uint256,uint256)": "infinite",
            "addShareToMember(((uint32,uint32,uint16,uint48,uint40,uint32,uint32,uint16,uint8),(uint48,uint64,uint64,uint64,uint8,uint8)))": "infinite",
            "affiliated(uint256,uint256)": "infinite",
            "basedOnPar()": "infinite",
            "capAtDate(uint256)": "infinite",
            "capDecrease(uint256,uint256)": "infinite",
            "capIncrease(uint256,uint256)": "infinite",
            "changeAmtOfMember(uint256,uint256,uint256,bool)": "infinite",
            "controllor()": "infinite",
            "deepOfGroup(uint256)": "infinite",
            "finalized()": "2428",
            "getBookeeper()": "infinite",
            "getGeneralCounsel()": "infinite",
            "getMembersOfClass(uint256)": "infinite",
            "getNumOfMembers()": "infinite",
            "getOwner()": "infinite",
            "getSnapshot()": "infinite",
            "grantRole(bytes32,uint256)": "infinite",
            "groupRep(uint256)": "infinite",
            "hasRole(bytes32,uint256)": "infinite",
            "init(uint256,address,address,address)": "infinite",
            "isClassMember(uint256,uint256)": "infinite",
            "isGroupRep(uint256)": "infinite",
            "isMember(uint256)": "infinite",
            "isSeqOfShare(uint256)": "infinite",
            "lockContents()": "infinite",
            "maxQtyOfMembers()": "infinite",
            "membersList()": "infinite",
            "membersOfGroup(uint256)": "infinite",
            "ownersEquity()": "infinite",
            "qtyOfGroups()": "infinite",
            "removeMemberFromGroup(uint256,uint256)": "infinite",
            "removeShareFromMember(((uint32,uint32,uint16,uint48,uint40,uint32,uint32,uint16,uint8),(uint48,uint64,uint64,uint64,uint8,uint8)))": "infinite",
            "renounceRole(bytes32)": "infinite",
            "revokeRole(bytes32,uint256)": "infinite",
            "setAmtBase(bool)": "infinite",
            "setDirectKeeper(address)": "infinite",
            "setGeneralCounsel(uint256)": "infinite",
            "setMaxQtyOfMembers(uint256)": "infinite",
            "setOwner(uint256)": "infinite",
            "setRoleAdmin(bytes32,uint256)": "infinite",
            "setVoteBase(bool)": "infinite",
            "sharesClipOfMember(uint256)": "infinite",
            "sharesInHand(uint256)": "infinite",
            "sharesList()": "infinite",
            "totalVotes()": "infinite",
            "votesAtDate(uint256,uint256)": "infinite",
            "votesInHand(uint256)": "infinite",
            "votesOfController()": "infinite",
            "votesOfGroup(uint256)": "infinite"
        }
    }
}