{
    "contractName": "RegisterOfMembers",
    "abi": [
        {
            "anonymous": false,
            "inputs": [
                {
                    "indexed": true,
                    "internalType": "uint256",
                    "name": "acct",
                    "type": "uint256"
                },
                {
                    "indexed": false,
                    "internalType": "uint32",
                    "name": "qtyOfMembers",
                    "type": "uint32"
                }
            ],
            "name": "AddMember",
            "type": "event"
        },
        {
            "anonymous": false,
            "inputs": [
                {
                    "indexed": true,
                    "internalType": "uint40",
                    "name": "acct",
                    "type": "uint40"
                },
                {
                    "indexed": true,
                    "internalType": "uint40",
                    "name": "root",
                    "type": "uint40"
                }
            ],
            "name": "AddMemberToGroup",
            "type": "event"
        },
        {
            "anonymous": false,
            "inputs": [
                {
                    "indexed": true,
                    "internalType": "uint32",
                    "name": "seqOfShare",
                    "type": "uint32"
                },
                {
                    "indexed": true,
                    "internalType": "uint40",
                    "name": "acct",
                    "type": "uint40"
                }
            ],
            "name": "AddShareToMember",
            "type": "event"
        },
        {
            "anonymous": false,
            "inputs": [
                {
                    "indexed": false,
                    "internalType": "uint64",
                    "name": "paid",
                    "type": "uint64"
                },
                {
                    "indexed": false,
                    "internalType": "uint64",
                    "name": "par",
                    "type": "uint64"
                }
            ],
            "name": "CapDecrease",
            "type": "event"
        },
        {
            "anonymous": false,
            "inputs": [
                {
                    "indexed": false,
                    "internalType": "uint64",
                    "name": "paid",
                    "type": "uint64"
                },
                {
                    "indexed": false,
                    "internalType": "uint64",
                    "name": "par",
                    "type": "uint64"
                }
            ],
            "name": "CapIncrease",
            "type": "event"
        },
        {
            "anonymous": false,
            "inputs": [
                {
                    "indexed": true,
                    "internalType": "uint40",
                    "name": "acct",
                    "type": "uint40"
                },
                {
                    "indexed": false,
                    "internalType": "uint64",
                    "name": "paid",
                    "type": "uint64"
                },
                {
                    "indexed": false,
                    "internalType": "uint64",
                    "name": "par",
                    "type": "uint64"
                },
                {
                    "indexed": false,
                    "internalType": "bool",
                    "name": "increase",
                    "type": "bool"
                }
            ],
            "name": "ChangeAmtOfMember",
            "type": "event"
        },
        {
            "anonymous": false,
            "inputs": [
                {
                    "indexed": true,
                    "internalType": "uint256",
                    "name": "orgRep",
                    "type": "uint256"
                },
                {
                    "indexed": true,
                    "internalType": "uint256",
                    "name": "newRep",
                    "type": "uint256"
                }
            ],
            "name": "ChangeGroupRep",
            "type": "event"
        },
        {
            "anonymous": false,
            "inputs": [
                {
                    "indexed": true,
                    "internalType": "uint40",
                    "name": "acct",
                    "type": "uint40"
                },
                {
                    "indexed": false,
                    "internalType": "uint64",
                    "name": "paid",
                    "type": "uint64"
                },
                {
                    "indexed": false,
                    "internalType": "uint64",
                    "name": "par",
                    "type": "uint64"
                },
                {
                    "indexed": false,
                    "internalType": "uint64",
                    "name": "blocknumber",
                    "type": "uint64"
                }
            ],
            "name": "DecreaseAmountFromMember",
            "type": "event"
        },
        {
            "anonymous": false,
            "inputs": [
                {
                    "indexed": false,
                    "internalType": "uint256",
                    "name": "owner",
                    "type": "uint256"
                },
                {
                    "indexed": false,
                    "internalType": "address",
                    "name": "directKeeper",
                    "type": "address"
                },
                {
                    "indexed": false,
                    "internalType": "address",
                    "name": "regCenter",
                    "type": "address"
                },
                {
                    "indexed": false,
                    "internalType": "address",
                    "name": "generalKeeper",
                    "type": "address"
                }
            ],
            "name": "Init",
            "type": "event"
        },
        {
            "anonymous": false,
            "inputs": [],
            "name": "LockContents",
            "type": "event"
        },
        {
            "anonymous": false,
            "inputs": [
                {
                    "indexed": true,
                    "internalType": "uint256",
                    "name": "acct",
                    "type": "uint256"
                },
                {
                    "indexed": true,
                    "internalType": "uint256",
                    "name": "root",
                    "type": "uint256"
                }
            ],
            "name": "RemoveMemberFromGroup",
            "type": "event"
        },
        {
            "anonymous": false,
            "inputs": [
                {
                    "indexed": true,
                    "internalType": "uint32",
                    "name": "seqOfShare",
                    "type": "uint32"
                },
                {
                    "indexed": true,
                    "internalType": "uint40",
                    "name": "acct",
                    "type": "uint40"
                }
            ],
            "name": "RemoveShareFromMember",
            "type": "event"
        },
        {
            "anonymous": false,
            "inputs": [
                {
                    "indexed": false,
                    "internalType": "bool",
                    "name": "basedOnPar",
                    "type": "bool"
                }
            ],
            "name": "SetAmtBase",
            "type": "event"
        },
        {
            "anonymous": false,
            "inputs": [
                {
                    "indexed": false,
                    "internalType": "address",
                    "name": "keeper",
                    "type": "address"
                }
            ],
            "name": "SetDirectKeeper",
            "type": "event"
        },
        {
            "anonymous": false,
            "inputs": [
                {
                    "indexed": false,
                    "internalType": "uint256",
                    "name": "acct",
                    "type": "uint256"
                }
            ],
            "name": "SetGeneralCounsel",
            "type": "event"
        },
        {
            "anonymous": false,
            "inputs": [
                {
                    "indexed": false,
                    "internalType": "address",
                    "name": "gk",
                    "type": "address"
                }
            ],
            "name": "SetGeneralKeeper",
            "type": "event"
        },
        {
            "anonymous": false,
            "inputs": [
                {
                    "indexed": false,
                    "internalType": "uint32",
                    "name": "max",
                    "type": "uint32"
                }
            ],
            "name": "SetMaxQtyOfMembers",
            "type": "event"
        },
        {
            "anonymous": false,
            "inputs": [
                {
                    "indexed": false,
                    "internalType": "uint256",
                    "name": "acct",
                    "type": "uint256"
                }
            ],
            "name": "SetOwner",
            "type": "event"
        },
        {
            "anonymous": false,
            "inputs": [
                {
                    "indexed": false,
                    "internalType": "address",
                    "name": "rc",
                    "type": "address"
                }
            ],
            "name": "SetRegCenter",
            "type": "event"
        },
        {
            "anonymous": false,
            "inputs": [
                {
                    "indexed": false,
                    "internalType": "bool",
                    "name": "basedOnPar",
                    "type": "bool"
                }
            ],
            "name": "SetVoteBase",
            "type": "event"
        },
        {
            "inputs": [
                {
                    "internalType": "bytes32",
                    "name": "role",
                    "type": "bytes32"
                }
            ],
            "name": "abandonRole",
            "outputs": [],
            "stateMutability": "nonpayable",
            "type": "function"
        },
        {
            "inputs": [
                {
                    "internalType": "uint256",
                    "name": "acct",
                    "type": "uint256"
                }
            ],
            "name": "addMember",
            "outputs": [],
            "stateMutability": "nonpayable",
            "type": "function"
        },
        {
            "inputs": [
                {
                    "internalType": "uint40",
                    "name": "acct",
                    "type": "uint40"
                },
                {
                    "internalType": "uint40",
                    "name": "root",
                    "type": "uint40"
                }
            ],
            "name": "addMemberToGroup",
            "outputs": [],
            "stateMutability": "nonpayable",
            "type": "function"
        },
        {
            "inputs": [
                {
                    "internalType": "uint32",
                    "name": "seqOfShare",
                    "type": "uint32"
                },
                {
                    "internalType": "uint40",
                    "name": "acct",
                    "type": "uint40"
                }
            ],
            "name": "addShareToMember",
            "outputs": [],
            "stateMutability": "nonpayable",
            "type": "function"
        },
        {
            "inputs": [
                {
                    "internalType": "uint256",
                    "name": "acct1",
                    "type": "uint256"
                },
                {
                    "internalType": "uint256",
                    "name": "acct2",
                    "type": "uint256"
                }
            ],
            "name": "affiliated",
            "outputs": [
                {
                    "internalType": "bool",
                    "name": "",
                    "type": "bool"
                }
            ],
            "stateMutability": "view",
            "type": "function"
        },
        {
            "inputs": [],
            "name": "basedOnPar",
            "outputs": [
                {
                    "internalType": "bool",
                    "name": "",
                    "type": "bool"
                }
            ],
            "stateMutability": "view",
            "type": "function"
        },
        {
            "inputs": [
                {
                    "internalType": "uint48",
                    "name": "date",
                    "type": "uint48"
                }
            ],
            "name": "capAtDate",
            "outputs": [
                {
                    "components": [
                        {
                            "internalType": "uint48",
                            "name": "timestamp",
                            "type": "uint48"
                        },
                        {
                            "internalType": "uint64",
                            "name": "paid",
                            "type": "uint64"
                        },
                        {
                            "internalType": "uint64",
                            "name": "par",
                            "type": "uint64"
                        },
                        {
                            "internalType": "uint64",
                            "name": "cleanPaid",
                            "type": "uint64"
                        }
                    ],
                    "internalType": "struct Checkpoints.Checkpoint",
                    "name": "cap",
                    "type": "tuple"
                }
            ],
            "stateMutability": "view",
            "type": "function"
        },
        {
            "inputs": [
                {
                    "internalType": "uint64",
                    "name": "paid",
                    "type": "uint64"
                },
                {
                    "internalType": "uint64",
                    "name": "par",
                    "type": "uint64"
                }
            ],
            "name": "capDecrease",
            "outputs": [],
            "stateMutability": "nonpayable",
            "type": "function"
        },
        {
            "inputs": [
                {
                    "internalType": "uint64",
                    "name": "paid",
                    "type": "uint64"
                },
                {
                    "internalType": "uint64",
                    "name": "par",
                    "type": "uint64"
                }
            ],
            "name": "capIncrease",
            "outputs": [],
            "stateMutability": "nonpayable",
            "type": "function"
        },
        {
            "inputs": [
                {
                    "internalType": "uint40",
                    "name": "acct",
                    "type": "uint40"
                },
                {
                    "internalType": "uint64",
                    "name": "deltaPaid",
                    "type": "uint64"
                },
                {
                    "internalType": "uint64",
                    "name": "deltaPar",
                    "type": "uint64"
                },
                {
                    "internalType": "bool",
                    "name": "increase",
                    "type": "bool"
                }
            ],
            "name": "changeAmtOfMember",
            "outputs": [],
            "stateMutability": "nonpayable",
            "type": "function"
        },
        {
            "inputs": [],
            "name": "controllor",
            "outputs": [
                {
                    "internalType": "uint40",
                    "name": "",
                    "type": "uint40"
                }
            ],
            "stateMutability": "view",
            "type": "function"
        },
        {
            "inputs": [
                {
                    "internalType": "uint256",
                    "name": "acct",
                    "type": "uint256"
                }
            ],
            "name": "deepOfGroup",
            "outputs": [
                {
                    "internalType": "uint256",
                    "name": "",
                    "type": "uint256"
                }
            ],
            "stateMutability": "view",
            "type": "function"
        },
        {
            "inputs": [],
            "name": "finalized",
            "outputs": [
                {
                    "internalType": "bool",
                    "name": "",
                    "type": "bool"
                }
            ],
            "stateMutability": "view",
            "type": "function"
        },
        {
            "inputs": [],
            "name": "getBookeeper",
            "outputs": [
                {
                    "internalType": "address",
                    "name": "",
                    "type": "address"
                }
            ],
            "stateMutability": "view",
            "type": "function"
        },
        {
            "inputs": [],
            "name": "getGeneralCounsel",
            "outputs": [
                {
                    "internalType": "uint40",
                    "name": "",
                    "type": "uint40"
                }
            ],
            "stateMutability": "view",
            "type": "function"
        },
        {
            "inputs": [],
            "name": "getOwner",
            "outputs": [
                {
                    "internalType": "uint40",
                    "name": "",
                    "type": "uint40"
                }
            ],
            "stateMutability": "view",
            "type": "function"
        },
        {
            "inputs": [],
            "name": "getSnapshot",
            "outputs": [
                {
                    "components": [
                        {
                            "internalType": "uint40",
                            "name": "prev",
                            "type": "uint40"
                        },
                        {
                            "internalType": "uint40",
                            "name": "next",
                            "type": "uint40"
                        },
                        {
                            "internalType": "uint40",
                            "name": "ptr",
                            "type": "uint40"
                        },
                        {
                            "internalType": "uint64",
                            "name": "amt",
                            "type": "uint64"
                        },
                        {
                            "internalType": "uint64",
                            "name": "sum",
                            "type": "uint64"
                        },
                        {
                            "internalType": "uint8",
                            "name": "cat",
                            "type": "uint8"
                        }
                    ],
                    "internalType": "struct TopChain.Node[]",
                    "name": "",
                    "type": "tuple[]"
                }
            ],
            "stateMutability": "view",
            "type": "function"
        },
        {
            "inputs": [
                {
                    "internalType": "bytes32",
                    "name": "role",
                    "type": "bytes32"
                },
                {
                    "internalType": "uint256",
                    "name": "acct",
                    "type": "uint256"
                }
            ],
            "name": "grantRole",
            "outputs": [],
            "stateMutability": "nonpayable",
            "type": "function"
        },
        {
            "inputs": [
                {
                    "internalType": "uint256",
                    "name": "acct",
                    "type": "uint256"
                }
            ],
            "name": "groupRep",
            "outputs": [
                {
                    "internalType": "uint40",
                    "name": "",
                    "type": "uint40"
                }
            ],
            "stateMutability": "view",
            "type": "function"
        },
        {
            "inputs": [
                {
                    "internalType": "bytes32",
                    "name": "role",
                    "type": "bytes32"
                },
                {
                    "internalType": "uint256",
                    "name": "acct",
                    "type": "uint256"
                }
            ],
            "name": "hasRole",
            "outputs": [
                {
                    "internalType": "bool",
                    "name": "",
                    "type": "bool"
                }
            ],
            "stateMutability": "view",
            "type": "function"
        },
        {
            "inputs": [
                {
                    "internalType": "uint256",
                    "name": "owner",
                    "type": "uint256"
                },
                {
                    "internalType": "address",
                    "name": "directKeeper",
                    "type": "address"
                },
                {
                    "internalType": "address",
                    "name": "regCenter",
                    "type": "address"
                },
                {
                    "internalType": "address",
                    "name": "generalKeeper",
                    "type": "address"
                }
            ],
            "name": "init",
            "outputs": [],
            "stateMutability": "nonpayable",
            "type": "function"
        },
        {
            "inputs": [
                {
                    "internalType": "uint256",
                    "name": "acct",
                    "type": "uint256"
                }
            ],
            "name": "isGroupRep",
            "outputs": [
                {
                    "internalType": "bool",
                    "name": "",
                    "type": "bool"
                }
            ],
            "stateMutability": "view",
            "type": "function"
        },
        {
            "inputs": [
                {
                    "internalType": "uint256",
                    "name": "acct",
                    "type": "uint256"
                }
            ],
            "name": "isMember",
            "outputs": [
                {
                    "internalType": "bool",
                    "name": "",
                    "type": "bool"
                }
            ],
            "stateMutability": "view",
            "type": "function"
        },
        {
            "inputs": [
                {
                    "internalType": "uint256",
                    "name": "seqOfShare",
                    "type": "uint256"
                }
            ],
            "name": "isSeqOfShare",
            "outputs": [
                {
                    "internalType": "bool",
                    "name": "",
                    "type": "bool"
                }
            ],
            "stateMutability": "view",
            "type": "function"
        },
        {
            "inputs": [],
            "name": "lockContents",
            "outputs": [],
            "stateMutability": "nonpayable",
            "type": "function"
        },
        {
            "inputs": [],
            "name": "maxQtyOfMembers",
            "outputs": [
                {
                    "internalType": "uint32",
                    "name": "",
                    "type": "uint32"
                }
            ],
            "stateMutability": "view",
            "type": "function"
        },
        {
            "inputs": [],
            "name": "membersList",
            "outputs": [
                {
                    "internalType": "uint256[]",
                    "name": "",
                    "type": "uint256[]"
                }
            ],
            "stateMutability": "view",
            "type": "function"
        },
        {
            "inputs": [
                {
                    "internalType": "uint256",
                    "name": "acct",
                    "type": "uint256"
                }
            ],
            "name": "membersOfGroup",
            "outputs": [
                {
                    "internalType": "uint256[]",
                    "name": "",
                    "type": "uint256[]"
                }
            ],
            "stateMutability": "view",
            "type": "function"
        },
        {
            "inputs": [],
            "name": "ownersEquity",
            "outputs": [
                {
                    "components": [
                        {
                            "internalType": "uint48",
                            "name": "timestamp",
                            "type": "uint48"
                        },
                        {
                            "internalType": "uint64",
                            "name": "paid",
                            "type": "uint64"
                        },
                        {
                            "internalType": "uint64",
                            "name": "par",
                            "type": "uint64"
                        },
                        {
                            "internalType": "uint64",
                            "name": "cleanPaid",
                            "type": "uint64"
                        }
                    ],
                    "internalType": "struct Checkpoints.Checkpoint",
                    "name": "cap",
                    "type": "tuple"
                }
            ],
            "stateMutability": "view",
            "type": "function"
        },
        {
            "inputs": [],
            "name": "qtyOfGroups",
            "outputs": [
                {
                    "internalType": "uint256",
                    "name": "",
                    "type": "uint256"
                }
            ],
            "stateMutability": "view",
            "type": "function"
        },
        {
            "inputs": [],
            "name": "qtyOfMembers",
            "outputs": [
                {
                    "internalType": "uint32",
                    "name": "",
                    "type": "uint32"
                }
            ],
            "stateMutability": "view",
            "type": "function"
        },
        {
            "inputs": [
                {
                    "internalType": "uint256",
                    "name": "acct",
                    "type": "uint256"
                },
                {
                    "internalType": "uint256",
                    "name": "root",
                    "type": "uint256"
                }
            ],
            "name": "removeMemberFromGroup",
            "outputs": [],
            "stateMutability": "nonpayable",
            "type": "function"
        },
        {
            "inputs": [
                {
                    "internalType": "uint32",
                    "name": "seqOfShare",
                    "type": "uint32"
                },
                {
                    "internalType": "uint40",
                    "name": "acct",
                    "type": "uint40"
                }
            ],
            "name": "removeShareFromMember",
            "outputs": [],
            "stateMutability": "nonpayable",
            "type": "function"
        },
        {
            "inputs": [
                {
                    "internalType": "bytes32",
                    "name": "role",
                    "type": "bytes32"
                }
            ],
            "name": "renounceRole",
            "outputs": [],
            "stateMutability": "nonpayable",
            "type": "function"
        },
        {
            "inputs": [
                {
                    "internalType": "bytes32",
                    "name": "role",
                    "type": "bytes32"
                },
                {
                    "internalType": "uint256",
                    "name": "acct",
                    "type": "uint256"
                }
            ],
            "name": "revokeRole",
            "outputs": [],
            "stateMutability": "nonpayable",
            "type": "function"
        },
        {
            "inputs": [
                {
                    "internalType": "bool",
                    "name": "onPar",
                    "type": "bool"
                }
            ],
            "name": "setAmtBase",
            "outputs": [],
            "stateMutability": "nonpayable",
            "type": "function"
        },
        {
            "inputs": [
                {
                    "internalType": "address",
                    "name": "keeper",
                    "type": "address"
                }
            ],
            "name": "setDirectKeeper",
            "outputs": [],
            "stateMutability": "nonpayable",
            "type": "function"
        },
        {
            "inputs": [
                {
                    "internalType": "uint256",
                    "name": "acct",
                    "type": "uint256"
                }
            ],
            "name": "setGeneralCounsel",
            "outputs": [],
            "stateMutability": "nonpayable",
            "type": "function"
        },
        {
            "inputs": [
                {
                    "internalType": "uint32",
                    "name": "max",
                    "type": "uint32"
                }
            ],
            "name": "setMaxQtyOfMembers",
            "outputs": [],
            "stateMutability": "nonpayable",
            "type": "function"
        },
        {
            "inputs": [
                {
                    "internalType": "uint256",
                    "name": "acct",
                    "type": "uint256"
                }
            ],
            "name": "setOwner",
            "outputs": [],
            "stateMutability": "nonpayable",
            "type": "function"
        },
        {
            "inputs": [
                {
                    "internalType": "bytes32",
                    "name": "role",
                    "type": "bytes32"
                },
                {
                    "internalType": "uint256",
                    "name": "acct",
                    "type": "uint256"
                }
            ],
            "name": "setRoleAdmin",
            "outputs": [],
            "stateMutability": "nonpayable",
            "type": "function"
        },
        {
            "inputs": [
                {
                    "internalType": "bool",
                    "name": "onPar",
                    "type": "bool"
                }
            ],
            "name": "setVoteBase",
            "outputs": [],
            "stateMutability": "nonpayable",
            "type": "function"
        },
        {
            "inputs": [
                {
                    "internalType": "uint256",
                    "name": "acct",
                    "type": "uint256"
                }
            ],
            "name": "sharesClipOfMember",
            "outputs": [
                {
                    "components": [
                        {
                            "internalType": "uint48",
                            "name": "timestamp",
                            "type": "uint48"
                        },
                        {
                            "internalType": "uint64",
                            "name": "paid",
                            "type": "uint64"
                        },
                        {
                            "internalType": "uint64",
                            "name": "par",
                            "type": "uint64"
                        },
                        {
                            "internalType": "uint64",
                            "name": "cleanPaid",
                            "type": "uint64"
                        }
                    ],
                    "internalType": "struct Checkpoints.Checkpoint",
                    "name": "clip",
                    "type": "tuple"
                }
            ],
            "stateMutability": "view",
            "type": "function"
        },
        {
            "inputs": [
                {
                    "internalType": "uint256",
                    "name": "acct",
                    "type": "uint256"
                }
            ],
            "name": "sharesInHand",
            "outputs": [
                {
                    "internalType": "uint256[]",
                    "name": "list",
                    "type": "uint256[]"
                }
            ],
            "stateMutability": "view",
            "type": "function"
        },
        {
            "inputs": [],
            "name": "sharesList",
            "outputs": [
                {
                    "internalType": "uint256[]",
                    "name": "",
                    "type": "uint256[]"
                }
            ],
            "stateMutability": "view",
            "type": "function"
        },
        {
            "inputs": [],
            "name": "totalVotes",
            "outputs": [
                {
                    "internalType": "uint64",
                    "name": "",
                    "type": "uint64"
                }
            ],
            "stateMutability": "view",
            "type": "function"
        },
        {
            "inputs": [
                {
                    "internalType": "uint256",
                    "name": "acct",
                    "type": "uint256"
                },
                {
                    "internalType": "uint48",
                    "name": "date",
                    "type": "uint48"
                }
            ],
            "name": "votesAtDate",
            "outputs": [
                {
                    "internalType": "uint64",
                    "name": "",
                    "type": "uint64"
                }
            ],
            "stateMutability": "view",
            "type": "function"
        },
        {
            "inputs": [
                {
                    "internalType": "uint256",
                    "name": "acct",
                    "type": "uint256"
                }
            ],
            "name": "votesInHand",
            "outputs": [
                {
                    "internalType": "uint64",
                    "name": "",
                    "type": "uint64"
                }
            ],
            "stateMutability": "view",
            "type": "function"
        },
        {
            "inputs": [],
            "name": "votesOfController",
            "outputs": [
                {
                    "internalType": "uint64",
                    "name": "",
                    "type": "uint64"
                }
            ],
            "stateMutability": "view",
            "type": "function"
        },
        {
            "inputs": [
                {
                    "internalType": "uint256",
                    "name": "acct",
                    "type": "uint256"
                }
            ],
            "name": "votesOfGroup",
            "outputs": [
                {
                    "internalType": "uint64",
                    "name": "",
                    "type": "uint64"
                }
            ],
            "stateMutability": "view",
            "type": "function"
        }
    ],
    "bytecode": "608060405234801561001057600080fd5b50614479806100206000396000f3fe608060405234801561001057600080fd5b50600436106102d65760003560e01c80638bb9c5bf11610182578063c410c23a116100e9578063dc890da9116100a2578063e4df91001161007c578063e4df910014610690578063e80bf90614610698578063ed211023146106ab578063f045a769146106cb57600080fd5b8063dc890da914610662578063dd5042f414610675578063dd8a18e91461067d57600080fd5b8063c410c23a146105f8578063c70bc6731461060e578063cd27821e14610621578063d50c737714610634578063da6a43d614610647578063dc6599c51461065a57600080fd5b8063a03510c51161013b578063a03510c514610590578063a7ec068f146105a3578063b3f05b97146105b6578063b966ac45146105ca578063bdc36f62146105d2578063c2d7616e146105e557600080fd5b80638bb9c5bf1461052757806396cfe1141461053a578063984199281461054d5780639a09e43c146105555780639a3ca24b146105685780639c54297c1461057b57600080fd5b80635171ebd4116102415780636be8496f116101fa5780637e063c5a116101d45780637e063c5a146104f15780638041494e146105045780638170c3b914610517578063893d20e81461051f57600080fd5b80636be8496f1461046c57806372cc64f91461047f57806372dd65291461049257600080fd5b80635171ebd4146103fa57806357f1929c1461040d5780635c34593414610420578063605c5ec61461043357806368c1047b146104465780636bdc37301461045957600080fd5b8063218668fa11610293578063218668fa1461037c5780632898436f1461039c5780633da9a600146103b95780633f17cd45146103cc5780634a14beb1146103d45780634bc8315f146103e757600080fd5b80630787c777146102db5780630d15fd7714610303578063103f6edd146103235780631089f5ed1461034157806319d61ad9146103565780631b6ea9f914610369575b600080fd5b6102ee6102e9366004613a68565b6106d3565b60405190151581526020015b60405180910390f35b61030b61076f565b6040516001600160401b0390911681526020016102fa565b61032b6107f9565b60405164ffffffffff90911681526020016102fa565b61035461034f366004613a68565b610880565b005b610354610364366004613a81565b610c85565b610354610377366004613a81565b610d19565b61038f61038a366004613a68565b610d3e565b6040516102fa9190613aa3565b6103a4610dd3565b60405163ffffffff90911681526020016102fa565b6103546103c7366004613a68565b610e59565b61030b610f6b565b6103546103e2366004613a68565b61101e565b61030b6103f5366004613afb565b61120e565b610354610408366004613a81565b6112af565b61030b61041b366004613a68565b6112d4565b61035461042e366004613b3d565b611360565b61032b610441366004613a68565b6114aa565b6102ee610454366004613a81565b611536565b610354610467366004613b6d565b61161d565b61035461047a366004613bb0565b6118ce565b61035461048d366004613be2565b611980565b6104a56104a0366004613c10565b611af4565b6040516102fa9190815165ffffffffffff1681526020808301516001600160401b0390811691830191909152604080840151821690830152606092830151169181019190915260800190565b6102ee6104ff366004613a81565b611bd1565b610354610512366004613a68565b611c65565b61038f611e4a565b61032b611efd565b610354610535366004613a68565b611f38565b610354610548366004613c3b565b611f91565b61032b612251565b6102ee610563366004613a68565b61228b565b610354610576366004613be2565b61233f565b6105836124ab565b6040516102fa9190613c97565b61035461059e366004613b6d565b612534565b6103546105b1366004613d2f565b612898565b60028054600160f01b900460ff16146102ee565b6104a5612a0c565b6103546105e0366004613d4d565b612adb565b61030b6105f3366004613a68565b612c33565b610600612c7f565b6040519081526020016102fa565b6104a561061c366004613a68565b612d04565b61060061062f366004613a68565b612de1565b6102ee610642366004613a68565b612e6d565b610354610655366004613d4d565b612eae565b6103a4613006565b610354610670366004613d6a565b613040565b61038f613123565b61035461068b366004613a81565b61315d565b6102ee613465565b61038f6106a6366004613a68565b6134ea565b6106b36135ab565b6040516001600160a01b0390911681526020016102fa565b610354613631565b60405163347f09bd60e11b815260048082015260248101829052600090829073__$0373da85302df7c003c5cc5214782e6132$__906368fe137a9060440160206040518083038186803b15801561072957600080fd5b505af415801561073d573d6000803e3d6000fd5b505050506040513d601f19601f820116820180604052508101906107619190613dc2565b64ffffffffff161492915050565b604051630c86a02d60e11b815260048082015260009073__$0373da85302df7c003c5cc5214782e6132$__9063190d405a9060240160206040518083038186803b1580156107bc57600080fd5b505af41580156107d0573d6000803e3d6000fd5b505050506040513d601f19601f820116820180604052508101906107f49190613ddf565b905090565b60405163e8c0cc1d60e01b81526002600482015260009073__$364aad554dc80380f414546becdd2c1584$__9063e8c0cc1d906024015b60206040518083038186803b15801561084857600080fd5b505af415801561085c573d6000803e3d6000fd5b505050506040513d601f19601f820116820180604052508101906107f49190613dc2565b60015460405163e0ff5b8b60e01b8152600660048201526001600160a01b039091169063e0ff5b8b9060240160206040518083038186803b1580156108c457600080fd5b505afa1580156108d8573d6000803e3d6000fd5b505050506040513d601f19601f820116820180604052508101906108fc9190613dfc565b6001600160a01b0316336001600160a01b0316146109355760405162461bcd60e51b815260040161092c90613e19565b60405180910390fd5b604051633f0a2aed60e21b815260048082015273__$0373da85302df7c003c5cc5214782e6132$__9063fc28abb49060240160206040518083038186803b15801561097f57600080fd5b505af4158015610993573d6000803e3d6000fd5b505050506040513d601f19601f820116820180604052508101906109b79190613e65565b604051636878e4e760e11b815260048082015263ffffffff919091169073__$0373da85302df7c003c5cc5214782e6132$__9063d0f1c9ce9060240160206040518083038186803b158015610a0b57600080fd5b505af4158015610a1f573d6000803e3d6000fd5b505050506040513d601f19601f82011682018060405250810190610a439190613e65565b63ffffffff161080610ada5750604051633f0a2aed60e21b815260048082015273__$0373da85302df7c003c5cc5214782e6132$__9063fc28abb49060240160206040518083038186803b158015610a9a57600080fd5b505af4158015610aae573d6000803e3d6000fd5b505050506040513d601f19601f82011682018060405250810190610ad29190613e65565b63ffffffff16155b610b355760405162461bcd60e51b815260206004820152602660248201527f524f4d2e6164644d656d6265723a20517479206f66204d656d62657273206f766044820152656572666c6f7760d01b606482015260840161092c565b6040516324ac0fef60e11b81526004808201526024810182905273__$0373da85302df7c003c5cc5214782e6132$__906349581fde9060440160206040518083038186803b158015610b8657600080fd5b505af4158015610b9a573d6000803e3d6000fd5b505050506040513d601f19601f82011682018060405250810190610bbe9190613e82565b15610c8257604051636878e4e760e11b815260048082015281907f5659f1f96e42a4f1f64021a2123790ef443bf77ad9612c055b291db8d786cb099073__$0373da85302df7c003c5cc5214782e6132$__9063d0f1c9ce9060240160206040518083038186803b158015610c3157600080fd5b505af4158015610c45573d6000803e3d6000fd5b505050506040513d601f19601f82011682018060405250810190610c699190613e65565b60405163ffffffff909116815260200160405180910390a25b50565b73__$364aad554dc80380f414546becdd2c1584$__6382daafaa600284610caa61384f565b6040516001600160e01b031960e086901b1681526004810193909352602483019190915264ffffffffff166044820152606481018490526084015b60006040518083038186803b158015610cfd57600080fd5b505af4158015610d11573d6000803e3d6000fd5b505050505050565b73__$364aad554dc80380f414546becdd2c1584$__636320d75e600284610caa61384f565b6040516222d07160e91b81526004808201526024810182905260609073__$0373da85302df7c003c5cc5214782e6132$__906345a0e2009060440160006040518083038186803b158015610d9157600080fd5b505af4158015610da5573d6000803e3d6000fd5b505050506040513d6000823e601f3d908101601f19168201604052610dcd9190810190613f75565b92915050565b604051633f0a2aed60e21b815260048082015260009073__$0373da85302df7c003c5cc5214782e6132$__9063fc28abb4906024015b60206040518083038186803b158015610e2157600080fd5b505af4158015610e35573d6000803e3d6000fd5b505050506040513d601f19601f820116820180604052508101906107f49190613e65565b604051633b11adbf60e21b81526002600482015233602482015273__$364aad554dc80380f414546becdd2c1584$__9063ec46b6fc9060440160206040518083038186803b158015610eaa57600080fd5b505af4158015610ebe573d6000803e3d6000fd5b505050506040513d601f19601f82011682018060405250810190610ee29190613e82565b610efe5760405162461bcd60e51b815260040161092c9061400a565b60405163cc99e11b60e01b8152600260048201526024810182905273__$364aad554dc80380f414546becdd2c1584$__9063cc99e11b9060440160006040518083038186803b158015610f5057600080fd5b505af4158015610f64573d6000803e3d6000fd5b5050505050565b60405163feeac47f60e01b8152600480820152600090819073__$0373da85302df7c003c5cc5214782e6132$__9063feeac47f9060240160206040518083038186803b158015610fba57600080fd5b505af4158015610fce573d6000803e3d6000fd5b505050506040513d601f19601f82011682018060405250810190610ff29190613dc2565b64ffffffffff16600090815260046020526040902054600160b81b90046001600160401b031692915050565b604051633b11adbf60e21b81526002600482015233602482015273__$364aad554dc80380f414546becdd2c1584$__9063ec46b6fc9060440160206040518083038186803b15801561106f57600080fd5b505af4158015611083573d6000803e3d6000fd5b505050506040513d601f19601f820116820180604052508101906110a79190613e82565b8061114c575073__$364aad554dc80380f414546becdd2c1584$__63fe27108660026110d161384f565b6040516001600160e01b031960e085901b168152600481019290925264ffffffffff16602482015260440160206040518083038186803b15801561111457600080fd5b505af4158015611128573d6000803e3d6000fd5b505050506040513d601f19601f8201168201806040525081019061114c9190613e82565b6111685760405162461bcd60e51b815260040161092c90614050565b604051632725ebef60e21b8152600260048201526024810182905273__$364aad554dc80380f414546becdd2c1584$__90639c97afbc9060440160006040518083038186803b1580156111ba57600080fd5b505af41580156111ce573d6000803e3d6000fd5b505050507ff2735f34b69be1e6342dea95f9162f84d0db925fab655ca9f1f312ac8cbfc99d8160405161120391815260200190565b60405180910390a150565b60405163677d3fed60e01b81526004808201526024810183905265ffffffffffff8216604482015260009073__$b59f66f9b4972d644e41bc4977edb0d217$__9063677d3fed9060640160206040518083038186803b15801561127057600080fd5b505af4158015611284573d6000803e3d6000fd5b505050506040513d601f19601f820116820180604052508101906112a89190613ddf565b9392505050565b73__$364aad554dc80380f414546becdd2c1584$__63ee98b313600284610caa61384f565b604051630776f0c360e51b81526004808201526024810182905260009073__$0373da85302df7c003c5cc5214782e6132$__9063eede18609060440160206040518083038186803b15801561132857600080fd5b505af415801561133c573d6000803e3d6000fd5b505050506040513d601f19601f82011682018060405250810190610dcd9190613ddf565b604051633b11adbf60e21b81526002600482015233602482015273__$364aad554dc80380f414546becdd2c1584$__9063ec46b6fc9060440160206040518083038186803b1580156113b157600080fd5b505af41580156113c5573d6000803e3d6000fd5b505050506040513d601f19601f820116820180604052508101906113e99190613e82565b6114055760405162461bcd60e51b815260040161092c9061400a565b604051630f98e91f60e21b815260048082015263ffffffff8216602482015273__$0373da85302df7c003c5cc5214782e6132$__90633e63a47c9060440160006040518083038186803b15801561145b57600080fd5b505af415801561146f573d6000803e3d6000fd5b505060405163ffffffff841681527f18e8d00bc10556942bceb0c67df6414a97338d9c493be45f20fe85a3391c034492506020019050611203565b60405163347f09bd60e11b81526004808201526024810182905260009073__$0373da85302df7c003c5cc5214782e6132$__906368fe137a9060440160206040518083038186803b1580156114fe57600080fd5b505af4158015611512573d6000803e3d6000fd5b505050506040513d601f19601f82011682018060405250810190610dcd9190613dc2565b60008261154281612e6d565b61155e5760405162461bcd60e51b815260040161092c906140a6565b8261156881612e6d565b6115845760405162461bcd60e51b815260040161092c906140a6565b60405163fd0f8c6560e01b8152600480820152602481018690526044810185905273__$0373da85302df7c003c5cc5214782e6132$__9063fd0f8c659060640160206040518083038186803b1580156115dc57600080fd5b505af41580156115f0573d6000803e3d6000fd5b505050506040513d601f19601f820116820180604052508101906116149190613e82565b95945050505050565b60015460405163e0ff5b8b60e01b8152600660048201526001600160a01b039091169063e0ff5b8b9060240160206040518083038186803b15801561166157600080fd5b505afa158015611675573d6000803e3d6000fd5b505050506040513d601f19601f820116820180604052508101906116999190613dfc565b6001600160a01b0316336001600160a01b0316146116c95760405162461bcd60e51b815260040161092c90613e19565b60006116d36138a9565b6040516319f6b4bf60e31b815263ffffffff851660048201526001600160a01b03919091169063cfb5a5f8906024016101806040518083038186803b15801561171b57600080fd5b505afa15801561172f573d6000803e3d6000fd5b505050506040513d601f19601f820116820180604052508101906117539190614195565b60405163ed978c7d60e01b815260048082015263ffffffff8516602482015264ffffffffff8416604482015290915073__$b59f66f9b4972d644e41bc4977edb0d217$__9063ed978c7d9060640160206040518083038186803b1580156117b957600080fd5b505af41580156117cd573d6000803e3d6000fd5b505050506040513d601f19601f820116820180604052508101906117f19190613e82565b156118c957602081810151805191015160405163232bbbdd60e01b815260048082015264ffffffffff851660248201526001600160401b039283166044820152911660648201526001608482015273__$b59f66f9b4972d644e41bc4977edb0d217$__9063232bbbdd9060a40160006040518083038186803b15801561187657600080fd5b505af415801561188a573d6000803e3d6000fd5b505060405164ffffffffff8516925063ffffffff861691507fc98c10dfe7493f4a7f21b247e20c3a4c933cc9cce3b214216be7d766b1fd304190600090a35b505050565b604051630f07232560e01b8152600260048201523360248201526001600160a01b038216604482015273__$364aad554dc80380f414546becdd2c1584$__90630f0723259060640160006040518083038186803b15801561192e57600080fd5b505af4158015611942573d6000803e3d6000fd5b50506040516001600160a01b03841681527fe435cbeab64e4eae6497b9d8289704bd709d624a80704ef3ca9af777534bc6ec92506020019050611203565b60015460405163e0ff5b8b60e01b8152600660048201526001600160a01b039091169063e0ff5b8b9060240160206040518083038186803b1580156119c457600080fd5b505afa1580156119d8573d6000803e3d6000fd5b505050506040513d601f19601f820116820180604052508101906119fc9190613dfc565b6001600160a01b0316336001600160a01b031614611a2c5760405162461bcd60e51b815260040161092c90613e19565b604051628dc13760e51b81526004808201526001600160401b038084166024830152821660448201526000606482015273__$b59f66f9b4972d644e41bc4977edb0d217$__906311b826e09060840160006040518083038186803b158015611a9357600080fd5b505af4158015611aa7573d6000803e3d6000fd5b5050604080516001600160401b038087168252851660208201527fc6861a64b8a09b2aee31f61ebd300160e6fe6a19a7e830e5f6f273b99aa2360b93500190505b60405180910390a15050565b60408051608081018252600080825260208201819052918101829052606081019190915260008052600560205260405163e8fce06b60e01b81527f05b8ccbb9d4d8fb16ea74ce3c29a41f1b461fbdaff4714a0d9a8eb05499746bc600482015265ffffffffffff8316602482015273__$9d89bb4a2fad48898c323b0a17741df93a$__9063e8fce06b9060440160806040518083038186803b158015611b9957600080fd5b505af4158015611bad573d6000803e3d6000fd5b505050506040513d601f19601f82011682018060405250810190610dcd919061426c565b604051632a3be56b60e21b815260026004820152602481018390526044810182905260009073__$364aad554dc80380f414546becdd2c1584$__9063a8ef95ac9060640160206040518083038186803b158015611c2d57600080fd5b505af4158015611c41573d6000803e3d6000fd5b505050506040513d601f19601f820116820180604052508101906112a89190613e82565b604051633b11adbf60e21b81526002600482015233602482015273__$364aad554dc80380f414546becdd2c1584$__9063ec46b6fc9060440160206040518083038186803b158015611cb657600080fd5b505af4158015611cca573d6000803e3d6000fd5b505050506040513d601f19601f82011682018060405250810190611cee9190613e82565b80611d93575073__$364aad554dc80380f414546becdd2c1584$__63fe2710866002611d1861384f565b6040516001600160e01b031960e085901b168152600481019290925264ffffffffff16602482015260440160206040518083038186803b158015611d5b57600080fd5b505af4158015611d6f573d6000803e3d6000fd5b505050506040513d601f19601f82011682018060405250810190611d939190613e82565b611daf5760405162461bcd60e51b815260040161092c90614050565b60405163b6e38a2960e01b8152600260048201526024810182905273__$364aad554dc80380f414546becdd2c1584$__9063b6e38a299060440160006040518083038186803b158015611e0157600080fd5b505af4158015611e15573d6000803e3d6000fd5b505050507f8b6f40f36b4ae8cc5f55e895036457c43da4ab1f80f58c46f5ff0d72a650033b8160405161120391815260200190565b60008052600560205260405163034306e160e21b81527f05b8ccbb9d4d8fb16ea74ce3c29a41f1b461fbdaff4714a0d9a8eb05499746bd600482015260609073__$8c1a4844a0a0988ea2454cf87145a95df1$__90630d0c1b84906024015b60006040518083038186803b158015611ec157600080fd5b505af4158015611ed5573d6000803e3d6000fd5b505050506040513d6000823e601f3d908101601f191682016040526107f49190810190613f75565b60405163987ad15360e01b81526002600482015260009073__$364aad554dc80380f414546becdd2c1584$__9063987ad15390602401610830565b6000611f4261384f565b60405163cc0d511b60e01b8152600260048201526024810184905264ffffffffff8216604482015290915073__$364aad554dc80380f414546becdd2c1584$__9063cc0d511b90606401610ce5565b60015460405163e0ff5b8b60e01b8152600660048201526001600160a01b039091169063e0ff5b8b9060240160206040518083038186803b158015611fd557600080fd5b505afa158015611fe9573d6000803e3d6000fd5b505050506040513d601f19601f8201168201806040525081019061200d9190613dfc565b6001600160a01b0316336001600160a01b03161461203d5760405162461bcd60e51b815260040161092c90613e19565b806121685764ffffffffff841660009081526005602052604080822090516305ec572760e41b8152600481019190915273__$9d89bb4a2fad48898c323b0a17741df93a$__90635ec572709060240160806040518083038186803b1580156120a457600080fd5b505af41580156120b8573d6000803e3d6000fd5b505050506040513d601f19601f820116820180604052508101906120dc919061426c565b9050836001600160401b031681602001516001600160401b03161015801561211a5750826001600160401b031681604001516001600160401b031610155b6121665760405162461bcd60e51b815260206004820181905260248201527f524f4d2e43414f4d3a2070616964206f7220706172206e6f7420656e6f756768604482015260640161092c565b505b604080516001600160401b0385811682528416602082015282151581830152905164ffffffffff8616917fb75922c4fa1fe23161046487099d13fe17adc0b8f482ca6168bb5631dc103f71919081900360600190a260405163232bbbdd60e01b815260048082015264ffffffffff851660248201526001600160401b03808516604483015283166064820152811515608482015273__$b59f66f9b4972d644e41bc4977edb0d217$__9063232bbbdd9060a40160006040518083038186803b15801561223357600080fd5b505af4158015612247573d6000803e3d6000fd5b5050505050505050565b60405163feeac47f60e01b815260048082015260009073__$0373da85302df7c003c5cc5214782e6132$__9063feeac47f90602401610830565b60008080526005602052604051633f5f77cd60e01b81527f05b8ccbb9d4d8fb16ea74ce3c29a41f1b461fbdaff4714a0d9a8eb05499746bd60048201526024810183905273__$8c1a4844a0a0988ea2454cf87145a95df1$__90633f5f77cd906044015b60206040518083038186803b15801561230757600080fd5b505af415801561231b573d6000803e3d6000fd5b505050506040513d601f19601f82011682018060405250810190610dcd9190613e82565b60015460405163e0ff5b8b60e01b8152600660048201526001600160a01b039091169063e0ff5b8b9060240160206040518083038186803b15801561238357600080fd5b505afa158015612397573d6000803e3d6000fd5b505050506040513d601f19601f820116820180604052508101906123bb9190613dfc565b6001600160a01b0316336001600160a01b0316146123eb5760405162461bcd60e51b815260040161092c90613e19565b604051628dc13760e51b81526004808201526001600160401b038084166024830152821660448201526001606482015273__$b59f66f9b4972d644e41bc4977edb0d217$__906311b826e09060840160006040518083038186803b15801561245257600080fd5b505af4158015612466573d6000803e3d6000fd5b5050604080516001600160401b038087168252851660208201527f0a14efe28272b5c25c09e98c3978ff1725a1c0e8e06d15885ec449e8083a3f7f9350019050611ae8565b60405163118158f560e11b815260048082015260609073__$0373da85302df7c003c5cc5214782e6132$__90632302b1ea9060240160006040518083038186803b1580156124f857600080fd5b505af415801561250c573d6000803e3d6000fd5b505050506040513d6000823e601f3d908101601f191682016040526107f491908101906142f0565b60015460405163e0ff5b8b60e01b8152600660048201526001600160a01b039091169063e0ff5b8b9060240160206040518083038186803b15801561257857600080fd5b505afa15801561258c573d6000803e3d6000fd5b505050506040513d601f19601f820116820180604052508101906125b09190613dfc565b6001600160a01b0316336001600160a01b0316146125e05760405162461bcd60e51b815260040161092c90613e19565b60006125ea6138a9565b6040516319f6b4bf60e31b815263ffffffff851660048201526001600160a01b03919091169063cfb5a5f8906024016101806040518083038186803b15801561263257600080fd5b505afa158015612646573d6000803e3d6000fd5b505050506040513d601f19601f8201168201806040525081019061266a9190614195565b9050612689828260200151600001518360200151602001516000611f91565b6040516339810c9760e11b815260048082015263ffffffff8416602482015264ffffffffff8316604482015273__$b59f66f9b4972d644e41bc4977edb0d217$__90637302192e9060640160206040518083038186803b1580156126ec57600080fd5b505af4158015612700573d6000803e3d6000fd5b505050506040513d601f19601f820116820180604052508101906127249190613e82565b156118c95764ffffffffff821660009081526005602052604090819020905163c2b46a8560e01b81526001909101600482015273__$8c1a4844a0a0988ea2454cf87145a95df1$__9063c2b46a859060240160206040518083038186803b15801561278e57600080fd5b505af41580156127a2573d6000803e3d6000fd5b505050506040513d601f19601f820116820180604052508101906127c691906143ff565b612859576040516238e36760e11b815260048082015264ffffffffff8316602482015273__$b59f66f9b4972d644e41bc4977edb0d217$__906271c6ce9060440160206040518083038186803b15801561281f57600080fd5b505af4158015612833573d6000803e3d6000fd5b505050506040513d601f19601f820116820180604052508101906128579190613e82565b505b60405164ffffffffff83169063ffffffff8516907f9b8184045aa5752de9f9c7155b26141f222ac4abf9dd8fa634dbba785e2d8f1790600090a3505050565b6001546040516335d2155560e11b81523360048201526001600160a01b0390911690636ba42aaa9060240160206040518083038186803b1580156128db57600080fd5b505afa1580156128ef573d6000803e3d6000fd5b505050506040513d601f19601f820116820180604052508101906129139190613e82565b61292f5760405162461bcd60e51b815260040161092c90614418565b604051630df234af60e21b815260048082015264ffffffffff80841660248301528216604482015273__$0373da85302df7c003c5cc5214782e6132$__906337c8d2bc9060640160206040518083038186803b15801561298e57600080fd5b505af41580156129a2573d6000803e3d6000fd5b505050506040513d601f19601f820116820180604052508101906129c69190613e82565b15612a08578064ffffffffff168264ffffffffff167fd875de446030922d882c407a7bcd6f5371d1b13efa74a8be2dacd22334d8846660405160405180910390a35b5050565b6040805160808101825260008082526020820181905291810182905260608101919091526000805260056020526040516305ec572760e41b81527f05b8ccbb9d4d8fb16ea74ce3c29a41f1b461fbdaff4714a0d9a8eb05499746bc600482015273__$9d89bb4a2fad48898c323b0a17741df93a$__90635ec572709060240160806040518083038186803b158015612aa357600080fd5b505af4158015612ab7573d6000803e3d6000fd5b505050506040513d601f19601f820116820180604052508101906107f4919061426c565b6001546040516335d2155560e11b81523360048201526001600160a01b0390911690636ba42aaa9060240160206040518083038186803b158015612b1e57600080fd5b505afa158015612b32573d6000803e3d6000fd5b505050506040513d601f19601f82011682018060405250810190612b569190613e82565b612b725760405162461bcd60e51b815260040161092c90614418565b604051630d98f2af60e41b8152600480820152811515602482015273__$0373da85302df7c003c5cc5214782e6132$__9063d98f2af09060440160206040518083038186803b158015612bc457600080fd5b505af4158015612bd8573d6000803e3d6000fd5b505050506040513d601f19601f82011682018060405250810190612bfc9190613e82565b15610c825760405181151581527f0b1b96bce125700569e932050b6c2b3da7dabbe97241d19ff114400cb3546be890602001611203565b600081612c3f81612e6d565b612c5b5760405162461bcd60e51b815260040161092c906140a6565b5050600090815260046020526040902054600160781b90046001600160401b031690565b604051636c49485960e01b815260048082015260009073__$0373da85302df7c003c5cc5214782e6132$__90636c4948599060240160206040518083038186803b158015612ccc57600080fd5b505af4158015612ce0573d6000803e3d6000fd5b505050506040513d601f19601f820116820180604052508101906107f491906143ff565b60408051608081018252600080825260208201819052918101829052606081019190915281612d3281612e6d565b612d4e5760405162461bcd60e51b815260040161092c906140a6565b6000838152600560205260409081902090516305ec572760e41b8152600481019190915273__$9d89bb4a2fad48898c323b0a17741df93a$__90635ec572709060240160806040518083038186803b158015612da957600080fd5b505af4158015612dbd573d6000803e3d6000fd5b505050506040513d601f19601f820116820180604052508101906112a8919061426c565b6040516312a6722f60e31b81526004808201526024810182905260009073__$0373da85302df7c003c5cc5214782e6132$__9063953391789060440160206040518083038186803b158015612e3557600080fd5b505af4158015612e49573d6000803e3d6000fd5b505050506040513d601f19601f82011682018060405250810190610dcd91906143ff565b604051630a4225b960e41b81526004808201526024810182905260009073__$0373da85302df7c003c5cc5214782e6132$__9063a4225b90906044016122ef565b6001546040516335d2155560e11b81523360048201526001600160a01b0390911690636ba42aaa9060240160206040518083038186803b158015612ef157600080fd5b505afa158015612f05573d6000803e3d6000fd5b505050506040513d601f19601f82011682018060405250810190612f299190613e82565b612f455760405162461bcd60e51b815260040161092c90614418565b6040516313f6237f60e01b8152600480820152811515602482015273__$b59f66f9b4972d644e41bc4977edb0d217$__906313f6237f9060440160206040518083038186803b158015612f9757600080fd5b505af4158015612fab573d6000803e3d6000fd5b505050506040513d601f19601f82011682018060405250810190612fcf9190613e82565b15610c825760405181151581527f1e06c59992faf7c98f854af104dd450a2705f0e45c9bf4de8043c574c0079c1090602001611203565b604051636878e4e760e11b815260048082015260009073__$0373da85302df7c003c5cc5214782e6132$__9063d0f1c9ce90602401610e09565b61304982613902565b613052816139b1565b604051636cdd0edf60e11b815260026004820152602481018590526001600160a01b038416604482015273__$364aad554dc80380f414546becdd2c1584$__9063d9ba1dbe9060640160006040518083038186803b1580156130b357600080fd5b505af41580156130c7573d6000803e3d6000fd5b5050604080518781526001600160a01b038781166020830152868116828401528516606082015290517f3abb2418c66fe32ba9c883030a75ce583971d9af9192b9b74e44e67c5e6c8c1f9350908190036080019150a150505050565b604051632666ad2360e21b815260048082015260609073__$0373da85302df7c003c5cc5214782e6132$__9063999ab48c90602401611ea9565b6001546040516335d2155560e11b81523360048201526001600160a01b0390911690636ba42aaa9060240160206040518083038186803b1580156131a057600080fd5b505afa1580156131b4573d6000803e3d6000fd5b505050506040513d601f19601f820116820180604052508101906131d89190613e82565b6131f45760405162461bcd60e51b815260040161092c90614418565b60405163347f09bd60e11b81526004808201526024810183905273__$0373da85302df7c003c5cc5214782e6132$__906368fe137a9060440160206040518083038186803b15801561324557600080fd5b505af4158015613259573d6000803e3d6000fd5b505050506040513d601f19601f8201168201806040525081019061327d9190613dc2565b64ffffffffff1681146132e15760405162461bcd60e51b815260206004820152602660248201527f524f4d2e524d46473a20526f6f74206973206e6f742067726f7570526570206f60448201526519881058d8dd60d21b606482015260840161092c565b60405163b110cd5b60e01b81526004808201526024810183905260009073__$0373da85302df7c003c5cc5214782e6132$__9063b110cd5b9060440160206040518083038186803b15801561333557600080fd5b505af4158015613349573d6000803e3d6000fd5b505050506040513d601f19601f8201168201806040525081019061336d91906143ff565b6040516305842a9b60e41b81526004808201526024810185905290915073__$0373da85302df7c003c5cc5214782e6132$__90635842a9b09060440160206040518083038186803b1580156133c157600080fd5b505af41580156133d5573d6000803e3d6000fd5b505050506040513d601f19601f820116820180604052508101906133f99190613e82565b156118c957604051829084907f7f6e178e0d21cabade7232113cb77bf6fe6f1220aa7b5f8b37b6cff7387671ee90600090a3818314156118c957604051819083907f15704695427fa23b834fbd6162af7c4ba7c47a6eebd02213f72cbb6cb65585a290600090a3505050565b604051630f24363960e11b815260048082015260009073__$0373da85302df7c003c5cc5214782e6132$__90631e486c729060240160206040518083038186803b1580156134b257600080fd5b505af41580156134c6573d6000803e3d6000fd5b505050506040513d601f19601f820116820180604052508101906107f49190613e82565b6060816134f681612e6d565b6135125760405162461bcd60e51b815260040161092c906140a6565b60008381526005602052604090819020905163034306e160e21b81526001909101600482015273__$8c1a4844a0a0988ea2454cf87145a95df1$__90630d0c1b849060240160006040518083038186803b15801561356f57600080fd5b505af4158015613583573d6000803e3d6000fd5b505050506040513d6000823e601f3d908101601f191682016040526112a89190810190613f75565b604051633c3e56c160e11b81526002600482015260009073__$364aad554dc80380f414546becdd2c1584$__9063787cad829060240160206040518083038186803b1580156135f957600080fd5b505af415801561360d573d6000803e3d6000fd5b505050506040513d601f19601f820116820180604052508101906107f49190613dfc565b604051633b11adbf60e21b81526002600482015233602482015273__$364aad554dc80380f414546becdd2c1584$__9063ec46b6fc9060440160206040518083038186803b15801561368257600080fd5b505af4158015613696573d6000803e3d6000fd5b505050506040513d601f19601f820116820180604052508101906136ba9190613e82565b6136d65760405162461bcd60e51b815260040161092c9061400a565b600254600160f01b900460ff166001146137325760405162461bcd60e51b815260206004820181905260248201527f41432e6f6e6c7950656e64696e673a20446f632069732066696e616c697a6564604482015260640161092c565b60405163cc99e11b60e01b815260026004820152684174746f726e65797360b81b602482015273__$364aad554dc80380f414546becdd2c1584$__9063cc99e11b9060440160006040518083038186803b15801561378f57600080fd5b505af41580156137a3573d6000803e3d6000fd5b5050604051632725ebef60e21b8152600260048201526000602482015273__$364aad554dc80380f414546becdd2c1584$__9250639c97afbc915060440160006040518083038186803b1580156137f957600080fd5b505af415801561380d573d6000803e3d6000fd5b50506002805460ff60f01b1916600160f11b17905550506040517f35012b512309c322acf68632cd6cb702ff0e1d776fbe9394e38ffc13b434fe7590600090a1565b60008054604051634de835e760e11b81523360048201526001600160a01b0390911690639bd06bce90602401602060405180830381600087803b15801561389557600080fd5b505af115801561085c573d6000803e3d6000fd5b60015460405163e0ff5b8b60e01b8152600660048201526000916001600160a01b03169063e0ff5b8b9060240160206040518083038186803b1580156138ee57600080fd5b505afa15801561360d573d6000803e3d6000fd5b6000546001600160a01b0316156139535760405162461bcd60e51b815260206004820152601560248201527430b63932b0b23c9039b2ba103932b3a1b2b73a32b960591b604482015260640161092c565b6040516001600160a01b03821681527f318da6c7624c71cbc0afe346c9d8827f119d0ecefb241a7b0c87217a076a8e029060200160405180910390a1600080546001600160a01b0319166001600160a01b0392909216919091179055565b6001546001600160a01b031615613a0a5760405162461bcd60e51b815260206004820152601960248201527f616c7265616479207365742067656e6572616c4b656570657200000000000000604482015260640161092c565b6040516001600160a01b03821681527fe513d3e0f0d0a3877029dcc588748679a7a3450ec1ec7ed56d96bd012c3e61aa9060200160405180910390a1600180546001600160a01b0319166001600160a01b0392909216919091179055565b600060208284031215613a7a57600080fd5b5035919050565b60008060408385031215613a9457600080fd5b50508035926020909101359150565b6020808252825182820181905260009190848201906040850190845b81811015613adb57835183529284019291840191600101613abf565b50909695505050505050565b65ffffffffffff81168114610c8257600080fd5b60008060408385031215613b0e57600080fd5b823591506020830135613b2081613ae7565b809150509250929050565b63ffffffff81168114610c8257600080fd5b600060208284031215613b4f57600080fd5b81356112a881613b2b565b64ffffffffff81168114610c8257600080fd5b60008060408385031215613b8057600080fd5b8235613b8b81613b2b565b91506020830135613b2081613b5a565b6001600160a01b0381168114610c8257600080fd5b600060208284031215613bc257600080fd5b81356112a881613b9b565b6001600160401b0381168114610c8257600080fd5b60008060408385031215613bf557600080fd5b8235613c0081613bcd565b91506020830135613b2081613bcd565b600060208284031215613c2257600080fd5b81356112a881613ae7565b8015158114610c8257600080fd5b60008060008060808587031215613c5157600080fd5b8435613c5c81613b5a565b93506020850135613c6c81613bcd565b92506040850135613c7c81613bcd565b91506060850135613c8c81613c2d565b939692955090935050565b602080825282518282018190526000919060409081850190868401855b82811015613d22578151805164ffffffffff9081168652878201518116888701528682015116868601526060808201516001600160401b03908116918701919091526080808301519091169086015260a09081015160ff169085015260c09093019290850190600101613cb4565b5091979650505050505050565b60008060408385031215613d4257600080fd5b8235613b8b81613b5a565b600060208284031215613d5f57600080fd5b81356112a881613c2d565b60008060008060808587031215613d8057600080fd5b843593506020850135613d9281613b9b565b92506040850135613da281613b9b565b91506060850135613c8c81613b9b565b8051613dbd81613b5a565b919050565b600060208284031215613dd457600080fd5b81516112a881613b5a565b600060208284031215613df157600080fd5b81516112a881613bcd565b600060208284031215613e0e57600080fd5b81516112a881613b9b565b60208082526021908201527f524f4d2e6f6e6c79424f533a206d736753656e646572206973206e6f7420424f6040820152605360f81b606082015260800190565b8051613dbd81613b2b565b600060208284031215613e7757600080fd5b81516112a881613b2b565b600060208284031215613e9457600080fd5b81516112a881613c2d565b634e487b7160e01b600052604160045260246000fd5b604080519081016001600160401b0381118282101715613ed757613ed7613e9f565b60405290565b60405161010081016001600160401b0381118282101715613ed757613ed7613e9f565b60405160c081016001600160401b0381118282101715613ed757613ed7613e9f565b604051601f8201601f191681016001600160401b0381118282101715613f4a57613f4a613e9f565b604052919050565b60006001600160401b03821115613f6b57613f6b613e9f565b5060051b60200190565b60006020808385031215613f8857600080fd5b82516001600160401b03811115613f9e57600080fd5b8301601f81018513613faf57600080fd5b8051613fc2613fbd82613f52565b613f22565b81815260059190911b82018301908381019087831115613fe157600080fd5b928401925b82841015613fff57835182529284019290840190613fe6565b979650505050505050565b60208082526026908201527f41432e6f6e6c794469726563744b65657065723a206e6f74206469726563742060408201526535b2b2b832b960d11b606082015260800190565b60208082526036908201527f41432e6f776e65724f72446972656374426f6f6b65657065723a206e6569746860408201527532b91037bbb732b9103737b9103137b7b5b2b2b832b960511b606082015260800190565b6020808252601b908201527f524f4d2e6d656d62657245786973743a204e4f54204d656d6265720000000000604082015260600190565b805161ffff81168114613dbd57600080fd5b8051613dbd81613ae7565b805160ff81168114613dbd57600080fd5b60006080828403121561411d57600080fd5b604051608081018181106001600160401b038211171561413f5761413f613e9f565b8060405250809150825161415281613bcd565b8152602083015161416281613bcd565b6020820152604083015161417581613bcd565b6040820152606083015161418881613bcd565b6060919091015292915050565b60008183036101808112156141a957600080fd5b6141b1613eb5565b610100808312156141c157600080fd5b6141c9613edd565b925084516141d681613b2b565b83526141e460208601613e5a565b60208401526141f5604086016140dd565b6040840152614206606086016140ef565b6060840152614217608086016140ef565b608084015261422860a08601613db2565b60a084015261423960c08601613e5a565b60c084015261424a60e086016140fa565b60e084015282825261425e8682870161410b565b602083015250949350505050565b60006080828403121561427e57600080fd5b604051608081018181106001600160401b03821117156142a0576142a0613e9f565b60405282516142ae81613ae7565b815260208301516142be81613bcd565b602082015260408301516142d181613bcd565b604082015260608301516142e481613bcd565b60608201529392505050565b6000602080838503121561430357600080fd5b82516001600160401b0381111561431957600080fd5b8301601f8101851361432a57600080fd5b8051614338613fbd82613f52565b81815260c0918202830184019184820191908884111561435757600080fd5b938501935b838510156143f35780858a0312156143745760008081fd5b61437c613f00565b855161438781613b5a565b81528587015161439681613b5a565b818801526040868101516143a981613b5a565b908201526060868101516143bc81613bcd565b908201526080868101516143cf81613bcd565b9082015260a06143e08782016140fa565b908201528352938401939185019161435c565b50979650505050505050565b60006020828403121561441157600080fd5b5051919050565b60208082526011908201527020a19737b59d103737ba1025b2b2b832b960791b60408201526060019056fea2646970667358221220f47153fc45f5359b5e5db0a2e072655ab52427d078aa386546a2e4687930ccdf64736f6c63430008080033",
    "sourcePath": "/Users/kaptain/github.com/hardhat/comboox/contracts/books/rom/RegisterOfMembers.sol",
    "compiler": {
        "name": "solc",
        "version": "0.8.8+commit.dddeac2f"
    },
    "functionHashes": {
        "abandonRole(bytes32)": "3da9a600",
        "addMember(uint256)": "1089f5ed",
        "addMemberToGroup(uint40,uint40)": "a7ec068f",
        "addShareToMember(uint32,uint40)": "6bdc3730",
        "affiliated(uint256,uint256)": "68c1047b",
        "basedOnPar()": "e4df9100",
        "capAtDate(uint48)": "72dd6529",
        "capDecrease(uint64,uint64)": "72cc64f9",
        "capIncrease(uint64,uint64)": "9a3ca24b",
        "changeAmtOfMember(uint40,uint64,uint64,bool)": "96cfe114",
        "controllor()": "98419928",
        "deepOfGroup(uint256)": "cd27821e",
        "finalized()": "b3f05b97",
        "getBookeeper()": "ed211023",
        "getGeneralCounsel()": "103f6edd",
        "getOwner()": "893d20e8",
        "getSnapshot()": "9c54297c",
        "grantRole(bytes32,uint256)": "1b6ea9f9",
        "groupRep(uint256)": "605c5ec6",
        "hasRole(bytes32,uint256)": "7e063c5a",
        "init(uint256,address,address,address)": "dc890da9",
        "isGroupRep(uint256)": "0787c777",
        "isMember(uint256)": "d50c7377",
        "isSeqOfShare(uint256)": "9a09e43c",
        "lockContents()": "f045a769",
        "maxQtyOfMembers()": "2898436f",
        "membersList()": "dd5042f4",
        "membersOfGroup(uint256)": "218668fa",
        "ownersEquity()": "b966ac45",
        "qtyOfGroups()": "c410c23a",
        "qtyOfMembers()": "dc6599c5",
        "removeMemberFromGroup(uint256,uint256)": "dd8a18e9",
        "removeShareFromMember(uint32,uint40)": "a03510c5",
        "renounceRole(bytes32)": "8bb9c5bf",
        "revokeRole(bytes32,uint256)": "19d61ad9",
        "setAmtBase(bool)": "da6a43d6",
        "setDirectKeeper(address)": "6be8496f",
        "setGeneralCounsel(uint256)": "4a14beb1",
        "setMaxQtyOfMembers(uint32)": "5c345934",
        "setOwner(uint256)": "8041494e",
        "setRoleAdmin(bytes32,uint256)": "5171ebd4",
        "setVoteBase(bool)": "bdc36f62",
        "sharesClipOfMember(uint256)": "c70bc673",
        "sharesInHand(uint256)": "e80bf906",
        "sharesList()": "8170c3b9",
        "totalVotes()": "0d15fd77",
        "votesAtDate(uint256,uint48)": "4bc8315f",
        "votesInHand(uint256)": "c2d7616e",
        "votesOfController()": "3f17cd45",
        "votesOfGroup(uint256)": "57f1929c"
    },
    "gasEstimates": {
        "creation": {
            "codeDepositCost": "3505800",
            "executionCost": "3925",
            "totalCost": "3509725"
        },
        "external": {
            "abandonRole(bytes32)": "infinite",
            "addMember(uint256)": "infinite",
            "addMemberToGroup(uint40,uint40)": "infinite",
            "addShareToMember(uint32,uint40)": "infinite",
            "affiliated(uint256,uint256)": "infinite",
            "basedOnPar()": "infinite",
            "capAtDate(uint48)": "infinite",
            "capDecrease(uint64,uint64)": "infinite",
            "capIncrease(uint64,uint64)": "infinite",
            "changeAmtOfMember(uint40,uint64,uint64,bool)": "infinite",
            "controllor()": "infinite",
            "deepOfGroup(uint256)": "infinite",
            "finalized()": "2405",
            "getBookeeper()": "infinite",
            "getGeneralCounsel()": "infinite",
            "getOwner()": "infinite",
            "getSnapshot()": "infinite",
            "grantRole(bytes32,uint256)": "infinite",
            "groupRep(uint256)": "infinite",
            "hasRole(bytes32,uint256)": "infinite",
            "init(uint256,address,address,address)": "infinite",
            "isGroupRep(uint256)": "infinite",
            "isMember(uint256)": "infinite",
            "isSeqOfShare(uint256)": "infinite",
            "lockContents()": "infinite",
            "maxQtyOfMembers()": "infinite",
            "membersList()": "infinite",
            "membersOfGroup(uint256)": "infinite",
            "ownersEquity()": "infinite",
            "qtyOfGroups()": "infinite",
            "qtyOfMembers()": "infinite",
            "removeMemberFromGroup(uint256,uint256)": "infinite",
            "removeShareFromMember(uint32,uint40)": "infinite",
            "renounceRole(bytes32)": "infinite",
            "revokeRole(bytes32,uint256)": "infinite",
            "setAmtBase(bool)": "infinite",
            "setDirectKeeper(address)": "infinite",
            "setGeneralCounsel(uint256)": "infinite",
            "setMaxQtyOfMembers(uint32)": "infinite",
            "setOwner(uint256)": "infinite",
            "setRoleAdmin(bytes32,uint256)": "infinite",
            "setVoteBase(bool)": "infinite",
            "sharesClipOfMember(uint256)": "infinite",
            "sharesInHand(uint256)": "infinite",
            "sharesList()": "infinite",
            "totalVotes()": "infinite",
            "votesAtDate(uint256,uint48)": "infinite",
            "votesInHand(uint256)": "infinite",
            "votesOfController()": "infinite",
            "votesOfGroup(uint256)": "infinite"
        }
    }
}