{
    "contractName": "RegisterOfMembers",
    "abi": [
        {
            "anonymous": false,
            "inputs": [
                {
                    "indexed": true,
                    "internalType": "uint256",
                    "name": "acct",
                    "type": "uint256"
                },
                {
                    "indexed": false,
                    "internalType": "uint32",
                    "name": "qtyOfMembers",
                    "type": "uint32"
                }
            ],
            "name": "AddMember",
            "type": "event"
        },
        {
            "anonymous": false,
            "inputs": [
                {
                    "indexed": true,
                    "internalType": "uint40",
                    "name": "acct",
                    "type": "uint40"
                },
                {
                    "indexed": true,
                    "internalType": "uint40",
                    "name": "root",
                    "type": "uint40"
                }
            ],
            "name": "AddMemberToGroup",
            "type": "event"
        },
        {
            "anonymous": false,
            "inputs": [
                {
                    "indexed": true,
                    "internalType": "uint32",
                    "name": "seqOfShare",
                    "type": "uint32"
                },
                {
                    "indexed": true,
                    "internalType": "uint40",
                    "name": "acct",
                    "type": "uint40"
                }
            ],
            "name": "AddShareToMember",
            "type": "event"
        },
        {
            "anonymous": false,
            "inputs": [
                {
                    "indexed": false,
                    "internalType": "uint64",
                    "name": "paid",
                    "type": "uint64"
                },
                {
                    "indexed": false,
                    "internalType": "uint64",
                    "name": "par",
                    "type": "uint64"
                }
            ],
            "name": "CapDecrease",
            "type": "event"
        },
        {
            "anonymous": false,
            "inputs": [
                {
                    "indexed": false,
                    "internalType": "uint64",
                    "name": "paid",
                    "type": "uint64"
                },
                {
                    "indexed": false,
                    "internalType": "uint64",
                    "name": "par",
                    "type": "uint64"
                }
            ],
            "name": "CapIncrease",
            "type": "event"
        },
        {
            "anonymous": false,
            "inputs": [
                {
                    "indexed": true,
                    "internalType": "uint40",
                    "name": "acct",
                    "type": "uint40"
                },
                {
                    "indexed": false,
                    "internalType": "uint64",
                    "name": "paid",
                    "type": "uint64"
                },
                {
                    "indexed": false,
                    "internalType": "uint64",
                    "name": "par",
                    "type": "uint64"
                },
                {
                    "indexed": false,
                    "internalType": "bool",
                    "name": "increase",
                    "type": "bool"
                }
            ],
            "name": "ChangeAmtOfMember",
            "type": "event"
        },
        {
            "anonymous": false,
            "inputs": [
                {
                    "indexed": true,
                    "internalType": "uint256",
                    "name": "orgRep",
                    "type": "uint256"
                },
                {
                    "indexed": true,
                    "internalType": "uint256",
                    "name": "newRep",
                    "type": "uint256"
                }
            ],
            "name": "ChangeGroupRep",
            "type": "event"
        },
        {
            "anonymous": false,
            "inputs": [
                {
                    "indexed": true,
                    "internalType": "uint40",
                    "name": "acct",
                    "type": "uint40"
                },
                {
                    "indexed": false,
                    "internalType": "uint64",
                    "name": "paid",
                    "type": "uint64"
                },
                {
                    "indexed": false,
                    "internalType": "uint64",
                    "name": "par",
                    "type": "uint64"
                },
                {
                    "indexed": false,
                    "internalType": "uint64",
                    "name": "blocknumber",
                    "type": "uint64"
                }
            ],
            "name": "DecreaseAmountFromMember",
            "type": "event"
        },
        {
            "anonymous": false,
            "inputs": [
                {
                    "indexed": false,
                    "internalType": "uint256",
                    "name": "owner",
                    "type": "uint256"
                },
                {
                    "indexed": false,
                    "internalType": "address",
                    "name": "directKeeper",
                    "type": "address"
                },
                {
                    "indexed": false,
                    "internalType": "address",
                    "name": "regCenter",
                    "type": "address"
                },
                {
                    "indexed": false,
                    "internalType": "address",
                    "name": "generalKeeper",
                    "type": "address"
                }
            ],
            "name": "Init",
            "type": "event"
        },
        {
            "anonymous": false,
            "inputs": [],
            "name": "LockContents",
            "type": "event"
        },
        {
            "anonymous": false,
            "inputs": [
                {
                    "indexed": true,
                    "internalType": "uint256",
                    "name": "acct",
                    "type": "uint256"
                },
                {
                    "indexed": true,
                    "internalType": "uint256",
                    "name": "root",
                    "type": "uint256"
                }
            ],
            "name": "RemoveMemberFromGroup",
            "type": "event"
        },
        {
            "anonymous": false,
            "inputs": [
                {
                    "indexed": true,
                    "internalType": "uint32",
                    "name": "seqOfShare",
                    "type": "uint32"
                },
                {
                    "indexed": true,
                    "internalType": "uint40",
                    "name": "acct",
                    "type": "uint40"
                }
            ],
            "name": "RemoveShareFromMember",
            "type": "event"
        },
        {
            "anonymous": false,
            "inputs": [
                {
                    "indexed": false,
                    "internalType": "bool",
                    "name": "basedOnPar",
                    "type": "bool"
                }
            ],
            "name": "SetAmtBase",
            "type": "event"
        },
        {
            "anonymous": false,
            "inputs": [
                {
                    "indexed": false,
                    "internalType": "address",
                    "name": "keeper",
                    "type": "address"
                }
            ],
            "name": "SetDirectKeeper",
            "type": "event"
        },
        {
            "anonymous": false,
            "inputs": [
                {
                    "indexed": false,
                    "internalType": "uint256",
                    "name": "acct",
                    "type": "uint256"
                }
            ],
            "name": "SetGeneralCounsel",
            "type": "event"
        },
        {
            "anonymous": false,
            "inputs": [
                {
                    "indexed": false,
                    "internalType": "address",
                    "name": "gk",
                    "type": "address"
                }
            ],
            "name": "SetGeneralKeeper",
            "type": "event"
        },
        {
            "anonymous": false,
            "inputs": [
                {
                    "indexed": false,
                    "internalType": "uint32",
                    "name": "max",
                    "type": "uint32"
                }
            ],
            "name": "SetMaxQtyOfMembers",
            "type": "event"
        },
        {
            "anonymous": false,
            "inputs": [
                {
                    "indexed": false,
                    "internalType": "uint256",
                    "name": "acct",
                    "type": "uint256"
                }
            ],
            "name": "SetOwner",
            "type": "event"
        },
        {
            "anonymous": false,
            "inputs": [
                {
                    "indexed": false,
                    "internalType": "address",
                    "name": "rc",
                    "type": "address"
                }
            ],
            "name": "SetRegCenter",
            "type": "event"
        },
        {
            "anonymous": false,
            "inputs": [
                {
                    "indexed": false,
                    "internalType": "bool",
                    "name": "basedOnPar",
                    "type": "bool"
                }
            ],
            "name": "SetVoteBase",
            "type": "event"
        },
        {
            "inputs": [
                {
                    "internalType": "bytes32",
                    "name": "role",
                    "type": "bytes32"
                }
            ],
            "name": "abandonRole",
            "outputs": [],
            "stateMutability": "nonpayable",
            "type": "function"
        },
        {
            "inputs": [
                {
                    "internalType": "uint256",
                    "name": "acct",
                    "type": "uint256"
                }
            ],
            "name": "addMember",
            "outputs": [],
            "stateMutability": "nonpayable",
            "type": "function"
        },
        {
            "inputs": [
                {
                    "internalType": "uint40",
                    "name": "acct",
                    "type": "uint40"
                },
                {
                    "internalType": "uint40",
                    "name": "root",
                    "type": "uint40"
                }
            ],
            "name": "addMemberToGroup",
            "outputs": [],
            "stateMutability": "nonpayable",
            "type": "function"
        },
        {
            "inputs": [
                {
                    "internalType": "uint32",
                    "name": "seqOfShare",
                    "type": "uint32"
                },
                {
                    "internalType": "uint40",
                    "name": "acct",
                    "type": "uint40"
                }
            ],
            "name": "addShareToMember",
            "outputs": [],
            "stateMutability": "nonpayable",
            "type": "function"
        },
        {
            "inputs": [
                {
                    "internalType": "uint256",
                    "name": "acct1",
                    "type": "uint256"
                },
                {
                    "internalType": "uint256",
                    "name": "acct2",
                    "type": "uint256"
                }
            ],
            "name": "affiliated",
            "outputs": [
                {
                    "internalType": "bool",
                    "name": "",
                    "type": "bool"
                }
            ],
            "stateMutability": "view",
            "type": "function"
        },
        {
            "inputs": [],
            "name": "basedOnPar",
            "outputs": [
                {
                    "internalType": "bool",
                    "name": "",
                    "type": "bool"
                }
            ],
            "stateMutability": "view",
            "type": "function"
        },
        {
            "inputs": [
                {
                    "internalType": "uint48",
                    "name": "date",
                    "type": "uint48"
                }
            ],
            "name": "capAtDate",
            "outputs": [
                {
                    "components": [
                        {
                            "internalType": "uint48",
                            "name": "timestamp",
                            "type": "uint48"
                        },
                        {
                            "internalType": "uint64",
                            "name": "paid",
                            "type": "uint64"
                        },
                        {
                            "internalType": "uint64",
                            "name": "par",
                            "type": "uint64"
                        },
                        {
                            "internalType": "uint64",
                            "name": "cleanPar",
                            "type": "uint64"
                        }
                    ],
                    "internalType": "struct Checkpoints.Checkpoint",
                    "name": "cap",
                    "type": "tuple"
                }
            ],
            "stateMutability": "view",
            "type": "function"
        },
        {
            "inputs": [
                {
                    "internalType": "uint64",
                    "name": "paid",
                    "type": "uint64"
                },
                {
                    "internalType": "uint64",
                    "name": "par",
                    "type": "uint64"
                }
            ],
            "name": "capDecrease",
            "outputs": [],
            "stateMutability": "nonpayable",
            "type": "function"
        },
        {
            "inputs": [
                {
                    "internalType": "uint64",
                    "name": "paid",
                    "type": "uint64"
                },
                {
                    "internalType": "uint64",
                    "name": "par",
                    "type": "uint64"
                }
            ],
            "name": "capIncrease",
            "outputs": [],
            "stateMutability": "nonpayable",
            "type": "function"
        },
        {
            "inputs": [
                {
                    "internalType": "uint40",
                    "name": "acct",
                    "type": "uint40"
                },
                {
                    "internalType": "uint64",
                    "name": "deltaPaid",
                    "type": "uint64"
                },
                {
                    "internalType": "uint64",
                    "name": "deltaPar",
                    "type": "uint64"
                },
                {
                    "internalType": "bool",
                    "name": "increase",
                    "type": "bool"
                }
            ],
            "name": "changeAmtOfMember",
            "outputs": [],
            "stateMutability": "nonpayable",
            "type": "function"
        },
        {
            "inputs": [],
            "name": "controllor",
            "outputs": [
                {
                    "internalType": "uint40",
                    "name": "",
                    "type": "uint40"
                }
            ],
            "stateMutability": "view",
            "type": "function"
        },
        {
            "inputs": [
                {
                    "internalType": "uint256",
                    "name": "acct",
                    "type": "uint256"
                }
            ],
            "name": "deepOfGroup",
            "outputs": [
                {
                    "internalType": "uint32",
                    "name": "",
                    "type": "uint32"
                }
            ],
            "stateMutability": "view",
            "type": "function"
        },
        {
            "inputs": [],
            "name": "finalized",
            "outputs": [
                {
                    "internalType": "bool",
                    "name": "",
                    "type": "bool"
                }
            ],
            "stateMutability": "view",
            "type": "function"
        },
        {
            "inputs": [],
            "name": "getBookeeper",
            "outputs": [
                {
                    "internalType": "address",
                    "name": "",
                    "type": "address"
                }
            ],
            "stateMutability": "view",
            "type": "function"
        },
        {
            "inputs": [],
            "name": "getGeneralCounsel",
            "outputs": [
                {
                    "internalType": "uint256",
                    "name": "",
                    "type": "uint256"
                }
            ],
            "stateMutability": "view",
            "type": "function"
        },
        {
            "inputs": [],
            "name": "getOwner",
            "outputs": [
                {
                    "internalType": "uint256",
                    "name": "",
                    "type": "uint256"
                }
            ],
            "stateMutability": "view",
            "type": "function"
        },
        {
            "inputs": [],
            "name": "getSnapshot",
            "outputs": [
                {
                    "components": [
                        {
                            "internalType": "uint40",
                            "name": "prev",
                            "type": "uint40"
                        },
                        {
                            "internalType": "uint40",
                            "name": "next",
                            "type": "uint40"
                        },
                        {
                            "internalType": "uint40",
                            "name": "ptr",
                            "type": "uint40"
                        },
                        {
                            "internalType": "uint64",
                            "name": "amt",
                            "type": "uint64"
                        },
                        {
                            "internalType": "uint64",
                            "name": "sum",
                            "type": "uint64"
                        },
                        {
                            "internalType": "uint8",
                            "name": "cat",
                            "type": "uint8"
                        }
                    ],
                    "internalType": "struct TopChain.Node[]",
                    "name": "",
                    "type": "tuple[]"
                }
            ],
            "stateMutability": "view",
            "type": "function"
        },
        {
            "inputs": [
                {
                    "internalType": "bytes32",
                    "name": "role",
                    "type": "bytes32"
                },
                {
                    "internalType": "uint256",
                    "name": "acct",
                    "type": "uint256"
                }
            ],
            "name": "grantRole",
            "outputs": [],
            "stateMutability": "nonpayable",
            "type": "function"
        },
        {
            "inputs": [
                {
                    "internalType": "uint256",
                    "name": "acct",
                    "type": "uint256"
                }
            ],
            "name": "groupRep",
            "outputs": [
                {
                    "internalType": "uint256",
                    "name": "",
                    "type": "uint256"
                }
            ],
            "stateMutability": "view",
            "type": "function"
        },
        {
            "inputs": [
                {
                    "internalType": "bytes32",
                    "name": "role",
                    "type": "bytes32"
                },
                {
                    "internalType": "uint256",
                    "name": "acct",
                    "type": "uint256"
                }
            ],
            "name": "hasRole",
            "outputs": [
                {
                    "internalType": "bool",
                    "name": "",
                    "type": "bool"
                }
            ],
            "stateMutability": "view",
            "type": "function"
        },
        {
            "inputs": [
                {
                    "internalType": "uint256",
                    "name": "owner",
                    "type": "uint256"
                },
                {
                    "internalType": "address",
                    "name": "directKeeper",
                    "type": "address"
                },
                {
                    "internalType": "address",
                    "name": "regCenter",
                    "type": "address"
                },
                {
                    "internalType": "address",
                    "name": "generalKeeper",
                    "type": "address"
                }
            ],
            "name": "init",
            "outputs": [],
            "stateMutability": "nonpayable",
            "type": "function"
        },
        {
            "inputs": [
                {
                    "internalType": "uint256",
                    "name": "acct",
                    "type": "uint256"
                }
            ],
            "name": "isGroupRep",
            "outputs": [
                {
                    "internalType": "bool",
                    "name": "",
                    "type": "bool"
                }
            ],
            "stateMutability": "view",
            "type": "function"
        },
        {
            "inputs": [
                {
                    "internalType": "uint256",
                    "name": "acct",
                    "type": "uint256"
                }
            ],
            "name": "isMember",
            "outputs": [
                {
                    "internalType": "bool",
                    "name": "",
                    "type": "bool"
                }
            ],
            "stateMutability": "view",
            "type": "function"
        },
        {
            "inputs": [
                {
                    "internalType": "uint256",
                    "name": "seqOfShare",
                    "type": "uint256"
                }
            ],
            "name": "isSeqOfShare",
            "outputs": [
                {
                    "internalType": "bool",
                    "name": "",
                    "type": "bool"
                }
            ],
            "stateMutability": "view",
            "type": "function"
        },
        {
            "inputs": [],
            "name": "lockContents",
            "outputs": [],
            "stateMutability": "nonpayable",
            "type": "function"
        },
        {
            "inputs": [],
            "name": "maxQtyOfMembers",
            "outputs": [
                {
                    "internalType": "uint32",
                    "name": "",
                    "type": "uint32"
                }
            ],
            "stateMutability": "view",
            "type": "function"
        },
        {
            "inputs": [],
            "name": "membersList",
            "outputs": [
                {
                    "internalType": "uint256[]",
                    "name": "",
                    "type": "uint256[]"
                }
            ],
            "stateMutability": "view",
            "type": "function"
        },
        {
            "inputs": [
                {
                    "internalType": "uint256",
                    "name": "acct",
                    "type": "uint256"
                }
            ],
            "name": "membersOfGroup",
            "outputs": [
                {
                    "internalType": "uint256[]",
                    "name": "",
                    "type": "uint256[]"
                }
            ],
            "stateMutability": "view",
            "type": "function"
        },
        {
            "inputs": [],
            "name": "ownersEquity",
            "outputs": [
                {
                    "components": [
                        {
                            "internalType": "uint48",
                            "name": "timestamp",
                            "type": "uint48"
                        },
                        {
                            "internalType": "uint64",
                            "name": "paid",
                            "type": "uint64"
                        },
                        {
                            "internalType": "uint64",
                            "name": "par",
                            "type": "uint64"
                        },
                        {
                            "internalType": "uint64",
                            "name": "cleanPar",
                            "type": "uint64"
                        }
                    ],
                    "internalType": "struct Checkpoints.Checkpoint",
                    "name": "cap",
                    "type": "tuple"
                }
            ],
            "stateMutability": "view",
            "type": "function"
        },
        {
            "inputs": [],
            "name": "qtyOfGroups",
            "outputs": [
                {
                    "internalType": "uint32",
                    "name": "",
                    "type": "uint32"
                }
            ],
            "stateMutability": "view",
            "type": "function"
        },
        {
            "inputs": [],
            "name": "qtyOfMembers",
            "outputs": [
                {
                    "internalType": "uint32",
                    "name": "",
                    "type": "uint32"
                }
            ],
            "stateMutability": "view",
            "type": "function"
        },
        {
            "inputs": [
                {
                    "internalType": "uint256",
                    "name": "acct",
                    "type": "uint256"
                },
                {
                    "internalType": "uint256",
                    "name": "root",
                    "type": "uint256"
                }
            ],
            "name": "removeMemberFromGroup",
            "outputs": [],
            "stateMutability": "nonpayable",
            "type": "function"
        },
        {
            "inputs": [
                {
                    "internalType": "uint32",
                    "name": "seqOfShare",
                    "type": "uint32"
                },
                {
                    "internalType": "uint40",
                    "name": "acct",
                    "type": "uint40"
                }
            ],
            "name": "removeShareFromMember",
            "outputs": [],
            "stateMutability": "nonpayable",
            "type": "function"
        },
        {
            "inputs": [
                {
                    "internalType": "bytes32",
                    "name": "role",
                    "type": "bytes32"
                }
            ],
            "name": "renounceRole",
            "outputs": [],
            "stateMutability": "nonpayable",
            "type": "function"
        },
        {
            "inputs": [
                {
                    "internalType": "bytes32",
                    "name": "role",
                    "type": "bytes32"
                },
                {
                    "internalType": "uint256",
                    "name": "acct",
                    "type": "uint256"
                }
            ],
            "name": "revokeRole",
            "outputs": [],
            "stateMutability": "nonpayable",
            "type": "function"
        },
        {
            "inputs": [
                {
                    "internalType": "bool",
                    "name": "onPar",
                    "type": "bool"
                }
            ],
            "name": "setAmtBase",
            "outputs": [],
            "stateMutability": "nonpayable",
            "type": "function"
        },
        {
            "inputs": [
                {
                    "internalType": "address",
                    "name": "keeper",
                    "type": "address"
                }
            ],
            "name": "setDirectKeeper",
            "outputs": [],
            "stateMutability": "nonpayable",
            "type": "function"
        },
        {
            "inputs": [
                {
                    "internalType": "uint256",
                    "name": "acct",
                    "type": "uint256"
                }
            ],
            "name": "setGeneralCounsel",
            "outputs": [],
            "stateMutability": "nonpayable",
            "type": "function"
        },
        {
            "inputs": [
                {
                    "internalType": "uint32",
                    "name": "max",
                    "type": "uint32"
                }
            ],
            "name": "setMaxQtyOfMembers",
            "outputs": [],
            "stateMutability": "nonpayable",
            "type": "function"
        },
        {
            "inputs": [
                {
                    "internalType": "uint256",
                    "name": "acct",
                    "type": "uint256"
                }
            ],
            "name": "setOwner",
            "outputs": [],
            "stateMutability": "nonpayable",
            "type": "function"
        },
        {
            "inputs": [
                {
                    "internalType": "bytes32",
                    "name": "role",
                    "type": "bytes32"
                },
                {
                    "internalType": "uint256",
                    "name": "acct",
                    "type": "uint256"
                }
            ],
            "name": "setRoleAdmin",
            "outputs": [],
            "stateMutability": "nonpayable",
            "type": "function"
        },
        {
            "inputs": [
                {
                    "internalType": "bool",
                    "name": "onPar",
                    "type": "bool"
                }
            ],
            "name": "setVoteBase",
            "outputs": [],
            "stateMutability": "nonpayable",
            "type": "function"
        },
        {
            "inputs": [
                {
                    "internalType": "uint256",
                    "name": "acct",
                    "type": "uint256"
                }
            ],
            "name": "sharesClipOfMember",
            "outputs": [
                {
                    "components": [
                        {
                            "internalType": "uint48",
                            "name": "timestamp",
                            "type": "uint48"
                        },
                        {
                            "internalType": "uint64",
                            "name": "paid",
                            "type": "uint64"
                        },
                        {
                            "internalType": "uint64",
                            "name": "par",
                            "type": "uint64"
                        },
                        {
                            "internalType": "uint64",
                            "name": "cleanPar",
                            "type": "uint64"
                        }
                    ],
                    "internalType": "struct Checkpoints.Checkpoint",
                    "name": "clip",
                    "type": "tuple"
                }
            ],
            "stateMutability": "view",
            "type": "function"
        },
        {
            "inputs": [
                {
                    "internalType": "uint256",
                    "name": "acct",
                    "type": "uint256"
                }
            ],
            "name": "sharesInHand",
            "outputs": [
                {
                    "internalType": "uint256[]",
                    "name": "list",
                    "type": "uint256[]"
                }
            ],
            "stateMutability": "view",
            "type": "function"
        },
        {
            "inputs": [],
            "name": "sharesList",
            "outputs": [
                {
                    "internalType": "uint256[]",
                    "name": "",
                    "type": "uint256[]"
                }
            ],
            "stateMutability": "view",
            "type": "function"
        },
        {
            "inputs": [],
            "name": "totalVotes",
            "outputs": [
                {
                    "internalType": "uint64",
                    "name": "",
                    "type": "uint64"
                }
            ],
            "stateMutability": "view",
            "type": "function"
        },
        {
            "inputs": [
                {
                    "internalType": "uint256",
                    "name": "acct",
                    "type": "uint256"
                },
                {
                    "internalType": "uint48",
                    "name": "date",
                    "type": "uint48"
                }
            ],
            "name": "votesAtDate",
            "outputs": [
                {
                    "internalType": "uint64",
                    "name": "",
                    "type": "uint64"
                }
            ],
            "stateMutability": "view",
            "type": "function"
        },
        {
            "inputs": [
                {
                    "internalType": "uint256",
                    "name": "acct",
                    "type": "uint256"
                }
            ],
            "name": "votesInHand",
            "outputs": [
                {
                    "internalType": "uint64",
                    "name": "",
                    "type": "uint64"
                }
            ],
            "stateMutability": "view",
            "type": "function"
        },
        {
            "inputs": [],
            "name": "votesOfController",
            "outputs": [
                {
                    "internalType": "uint64",
                    "name": "",
                    "type": "uint64"
                }
            ],
            "stateMutability": "view",
            "type": "function"
        },
        {
            "inputs": [
                {
                    "internalType": "uint256",
                    "name": "acct",
                    "type": "uint256"
                }
            ],
            "name": "votesOfGroup",
            "outputs": [
                {
                    "internalType": "uint64",
                    "name": "",
                    "type": "uint64"
                }
            ],
            "stateMutability": "view",
            "type": "function"
        }
    ],
    "bytecode": "608060405234801561001057600080fd5b50614426806100206000396000f3fe608060405234801561001057600080fd5b50600436106102d65760003560e01c80638bb9c5bf11610182578063c410c23a116100e9578063dc890da9116100a2578063e4df91001161007c578063e4df910014610690578063e80bf90614610698578063ed211023146106ab578063f045a769146106cb57600080fd5b8063dc890da914610662578063dd5042f414610675578063dd8a18e91461067d57600080fd5b8063c410c23a14610606578063c70bc6731461060e578063cd27821e14610621578063d50c737714610634578063da6a43d614610647578063dc6599c51461065a57600080fd5b8063a03510c51161013b578063a03510c51461059e578063a7ec068f146105b1578063b3f05b97146105c4578063b966ac45146105d8578063bdc36f62146105e0578063c2d7616e146105f357600080fd5b80638bb9c5bf1461051f57806396cfe1141461053257806398419928146105455780639a09e43c146105635780639a3ca24b146105765780639c54297c1461058957600080fd5b80635171ebd4116102415780636be8496f116101fa5780637e063c5a116101d45780637e063c5a146104e95780638041494e146104fc5780638170c3b91461050f578063893d20e81461051757600080fd5b80636be8496f1461046457806372cc64f91461047757806372dd65291461048a57600080fd5b80635171ebd4146103f257806357f1929c146104055780635c34593414610418578063605c5ec61461042b57806368c1047b1461043e5780636bdc37301461045157600080fd5b8063218668fa11610293578063218668fa146103745780632898436f146103945780633da9a600146103b15780633f17cd45146103c45780634a14beb1146103cc5780634bc8315f146103df57600080fd5b80630787c777146102db5780630d15fd7714610303578063103f6edd146103235780631089f5ed1461033957806319d61ad91461034e5780631b6ea9f914610361575b600080fd5b6102ee6102e9366004613a5e565b6106d3565b60405190151581526020015b60405180910390f35b61030b610768565b6040516001600160401b0390911681526020016102fa565b61032b6107f2565b6040519081526020016102fa565b61034c610347366004613a5e565b610879565b005b61034c61035c366004613a77565b610c7e565b61034c61036f366004613a77565b610d12565b610387610382366004613a5e565b610d37565b6040516102fa9190613a99565b61039c610dcc565b60405163ffffffff90911681526020016102fa565b61034c6103bf366004613a5e565b610e52565b61030b610f64565b61034c6103da366004613a5e565b611017565b61030b6103ed366004613af1565b611207565b61034c610400366004613a77565b6112a8565b61030b610413366004613a5e565b6112cd565b61034c610426366004613b33565b611359565b61032b610439366004613a5e565b6114a3565b6102ee61044c366004613a77565b61152f565b61034c61045f366004613b63565b611616565b61034c610472366004613ba6565b6118c7565b61034c610485366004613bd8565b611979565b61049d610498366004613c06565b611aee565b6040516102fa9190815165ffffffffffff1681526020808301516001600160401b0390811691830191909152604080840151821690830152606092830151169181019190915260800190565b6102ee6104f7366004613a77565b611bcb565b61034c61050a366004613a5e565b611c5f565b610387611e44565b61032b611ef7565b61034c61052d366004613a5e565b611f32565b61034c610540366004613c31565b611f8b565b61054d61224b565b60405164ffffffffff90911681526020016102fa565b6102ee610571366004613a5e565b6122d0565b61034c610584366004613bd8565b612384565b6105916124f1565b6040516102fa9190613c8d565b61034c6105ac366004613b63565b61257a565b61034c6105bf366004613d25565b6128e0565b60028054600160f01b900460ff16146102ee565b61049d612a54565b61034c6105ee366004613d43565b612b23565b61030b610601366004613a5e565b612c7b565b61039c612cc7565b61049d61061c366004613a5e565b612d01565b61039c61062f366004613a5e565b612dde565b6102ee610642366004613a5e565b612e6a565b61034c610655366004613d43565b612eab565b61039c613003565b61034c610670366004613d60565b61303d565b610387613120565b61034c61068b366004613a77565b61315a565b6102ee61345b565b6103876106a6366004613a5e565b6134e0565b6106b36135a1565b6040516001600160a01b0390911681526020016102fa565b61034c613627565b60405163347f09bd60e11b815260048082015260248101829052600090829073__$0373da85302df7c003c5cc5214782e6132$__906368fe137a9060440160206040518083038186803b15801561072957600080fd5b505af415801561073d573d6000803e3d6000fd5b505050506040513d601f19601f820116820180604052508101906107619190613da8565b1492915050565b604051630c86a02d60e11b815260048082015260009073__$0373da85302df7c003c5cc5214782e6132$__9063190d405a9060240160206040518083038186803b1580156107b557600080fd5b505af41580156107c9573d6000803e3d6000fd5b505050506040513d601f19601f820116820180604052508101906107ed9190613dc1565b905090565b60405163e8c0cc1d60e01b81526002600482015260009073__$364aad554dc80380f414546becdd2c1584$__9063e8c0cc1d906024015b60206040518083038186803b15801561084157600080fd5b505af4158015610855573d6000803e3d6000fd5b505050506040513d601f19601f820116820180604052508101906107ed9190613da8565b60015460405163381baea360e21b8152600660048201526001600160a01b039091169063e06eba8c9060240160206040518083038186803b1580156108bd57600080fd5b505afa1580156108d1573d6000803e3d6000fd5b505050506040513d601f19601f820116820180604052508101906108f59190613dde565b6001600160a01b0316336001600160a01b03161461092e5760405162461bcd60e51b815260040161092590613dfb565b60405180910390fd5b604051633f0a2aed60e21b815260048082015273__$0373da85302df7c003c5cc5214782e6132$__9063fc28abb49060240160206040518083038186803b15801561097857600080fd5b505af415801561098c573d6000803e3d6000fd5b505050506040513d601f19601f820116820180604052508101906109b09190613e4c565b604051636878e4e760e11b815260048082015263ffffffff919091169073__$0373da85302df7c003c5cc5214782e6132$__9063d0f1c9ce9060240160206040518083038186803b158015610a0457600080fd5b505af4158015610a18573d6000803e3d6000fd5b505050506040513d601f19601f82011682018060405250810190610a3c9190613e4c565b63ffffffff161080610ad35750604051633f0a2aed60e21b815260048082015273__$0373da85302df7c003c5cc5214782e6132$__9063fc28abb49060240160206040518083038186803b158015610a9357600080fd5b505af4158015610aa7573d6000803e3d6000fd5b505050506040513d601f19601f82011682018060405250810190610acb9190613e4c565b63ffffffff16155b610b2e5760405162461bcd60e51b815260206004820152602660248201527f524f4d2e6164644d656d6265723a20517479206f66204d656d62657273206f766044820152656572666c6f7760d01b6064820152608401610925565b6040516324ac0fef60e11b81526004808201526024810182905273__$0373da85302df7c003c5cc5214782e6132$__906349581fde9060440160206040518083038186803b158015610b7f57600080fd5b505af4158015610b93573d6000803e3d6000fd5b505050506040513d601f19601f82011682018060405250810190610bb79190613e69565b15610c7b57604051636878e4e760e11b815260048082015281907f5659f1f96e42a4f1f64021a2123790ef443bf77ad9612c055b291db8d786cb099073__$0373da85302df7c003c5cc5214782e6132$__9063d0f1c9ce9060240160206040518083038186803b158015610c2a57600080fd5b505af4158015610c3e573d6000803e3d6000fd5b505050506040513d601f19601f82011682018060405250810190610c629190613e4c565b60405163ffffffff909116815260200160405180910390a25b50565b73__$364aad554dc80380f414546becdd2c1584$__6382daafaa600284610ca3613845565b6040516001600160e01b031960e086901b1681526004810193909352602483019190915264ffffffffff166044820152606481018490526084015b60006040518083038186803b158015610cf657600080fd5b505af4158015610d0a573d6000803e3d6000fd5b505050505050565b73__$364aad554dc80380f414546becdd2c1584$__636320d75e600284610ca3613845565b6040516222d07160e91b81526004808201526024810182905260609073__$0373da85302df7c003c5cc5214782e6132$__906345a0e2009060440160006040518083038186803b158015610d8a57600080fd5b505af4158015610d9e573d6000803e3d6000fd5b505050506040513d6000823e601f3d908101601f19168201604052610dc69190810190613f39565b92915050565b604051633f0a2aed60e21b815260048082015260009073__$0373da85302df7c003c5cc5214782e6132$__9063fc28abb4906024015b60206040518083038186803b158015610e1a57600080fd5b505af4158015610e2e573d6000803e3d6000fd5b505050506040513d601f19601f820116820180604052508101906107ed9190613e4c565b604051633b11adbf60e21b81526002600482015233602482015273__$364aad554dc80380f414546becdd2c1584$__9063ec46b6fc9060440160206040518083038186803b158015610ea357600080fd5b505af4158015610eb7573d6000803e3d6000fd5b505050506040513d601f19601f82011682018060405250810190610edb9190613e69565b610ef75760405162461bcd60e51b815260040161092590613fce565b60405163cc99e11b60e01b8152600260048201526024810182905273__$364aad554dc80380f414546becdd2c1584$__9063cc99e11b9060440160006040518083038186803b158015610f4957600080fd5b505af4158015610f5d573d6000803e3d6000fd5b5050505050565b60405163feeac47f60e01b8152600480820152600090819073__$0373da85302df7c003c5cc5214782e6132$__9063feeac47f9060240160206040518083038186803b158015610fb357600080fd5b505af4158015610fc7573d6000803e3d6000fd5b505050506040513d601f19601f82011682018060405250810190610feb919061401f565b64ffffffffff16600090815260046020526040902054600160b81b90046001600160401b031692915050565b604051633b11adbf60e21b81526002600482015233602482015273__$364aad554dc80380f414546becdd2c1584$__9063ec46b6fc9060440160206040518083038186803b15801561106857600080fd5b505af415801561107c573d6000803e3d6000fd5b505050506040513d601f19601f820116820180604052508101906110a09190613e69565b80611145575073__$364aad554dc80380f414546becdd2c1584$__63fe27108660026110ca613845565b6040516001600160e01b031960e085901b168152600481019290925264ffffffffff16602482015260440160206040518083038186803b15801561110d57600080fd5b505af4158015611121573d6000803e3d6000fd5b505050506040513d601f19601f820116820180604052508101906111459190613e69565b6111615760405162461bcd60e51b81526004016109259061403c565b604051632725ebef60e21b8152600260048201526024810182905273__$364aad554dc80380f414546becdd2c1584$__90639c97afbc9060440160006040518083038186803b1580156111b357600080fd5b505af41580156111c7573d6000803e3d6000fd5b505050507ff2735f34b69be1e6342dea95f9162f84d0db925fab655ca9f1f312ac8cbfc99d816040516111fc91815260200190565b60405180910390a150565b60405163fc5bc27560e01b81526004808201526024810183905265ffffffffffff8216604482015260009073__$b59f66f9b4972d644e41bc4977edb0d217$__9063fc5bc2759060640160206040518083038186803b15801561126957600080fd5b505af415801561127d573d6000803e3d6000fd5b505050506040513d601f19601f820116820180604052508101906112a19190613dc1565b9392505050565b73__$364aad554dc80380f414546becdd2c1584$__63ee98b313600284610ca3613845565b604051630776f0c360e51b81526004808201526024810182905260009073__$0373da85302df7c003c5cc5214782e6132$__9063eede18609060440160206040518083038186803b15801561132157600080fd5b505af4158015611335573d6000803e3d6000fd5b505050506040513d601f19601f82011682018060405250810190610dc69190613dc1565b604051633b11adbf60e21b81526002600482015233602482015273__$364aad554dc80380f414546becdd2c1584$__9063ec46b6fc9060440160206040518083038186803b1580156113aa57600080fd5b505af41580156113be573d6000803e3d6000fd5b505050506040513d601f19601f820116820180604052508101906113e29190613e69565b6113fe5760405162461bcd60e51b815260040161092590613fce565b604051630f98e91f60e21b815260048082015263ffffffff8216602482015273__$0373da85302df7c003c5cc5214782e6132$__90633e63a47c9060440160006040518083038186803b15801561145457600080fd5b505af4158015611468573d6000803e3d6000fd5b505060405163ffffffff841681527f18e8d00bc10556942bceb0c67df6414a97338d9c493be45f20fe85a3391c0344925060200190506111fc565b60405163347f09bd60e11b81526004808201526024810182905260009073__$0373da85302df7c003c5cc5214782e6132$__906368fe137a9060440160206040518083038186803b1580156114f757600080fd5b505af415801561150b573d6000803e3d6000fd5b505050506040513d601f19601f82011682018060405250810190610dc69190613da8565b60008261153b81612e6a565b6115575760405162461bcd60e51b815260040161092590614092565b8261156181612e6a565b61157d5760405162461bcd60e51b815260040161092590614092565b60405163fd0f8c6560e01b8152600480820152602481018690526044810185905273__$0373da85302df7c003c5cc5214782e6132$__9063fd0f8c659060640160206040518083038186803b1580156115d557600080fd5b505af41580156115e9573d6000803e3d6000fd5b505050506040513d601f19601f8201168201806040525081019061160d9190613e69565b95945050505050565b60015460405163381baea360e21b8152600660048201526001600160a01b039091169063e06eba8c9060240160206040518083038186803b15801561165a57600080fd5b505afa15801561166e573d6000803e3d6000fd5b505050506040513d601f19601f820116820180604052508101906116929190613dde565b6001600160a01b0316336001600160a01b0316146116c25760405162461bcd60e51b815260040161092590613dfb565b60006116cc61389f565b6040516319f6b4bf60e31b815263ffffffff851660048201526001600160a01b03919091169063cfb5a5f8906024016101606040518083038186803b15801561171457600080fd5b505afa158015611728573d6000803e3d6000fd5b505050506040513d601f19601f8201168201806040525081019061174c9190614174565b60405163f543339960e01b815260048082015263ffffffff8516602482015264ffffffffff8416604482015290915073__$b59f66f9b4972d644e41bc4977edb0d217$__9063f54333999060640160206040518083038186803b1580156117b257600080fd5b505af41580156117c6573d6000803e3d6000fd5b505050506040513d601f19601f820116820180604052508101906117ea9190613e69565b156118c25760208181015180519101516040516396be611b60e01b815260048082015264ffffffffff851660248201526001600160401b039283166044820152911660648201526001608482015273__$b59f66f9b4972d644e41bc4977edb0d217$__906396be611b9060a40160006040518083038186803b15801561186f57600080fd5b505af4158015611883573d6000803e3d6000fd5b505060405164ffffffffff8516925063ffffffff861691507fc98c10dfe7493f4a7f21b247e20c3a4c933cc9cce3b214216be7d766b1fd304190600090a35b505050565b604051630f07232560e01b8152600260048201523360248201526001600160a01b038216604482015273__$364aad554dc80380f414546becdd2c1584$__90630f0723259060640160006040518083038186803b15801561192757600080fd5b505af415801561193b573d6000803e3d6000fd5b50506040516001600160a01b03841681527fe435cbeab64e4eae6497b9d8289704bd709d624a80704ef3ca9af777534bc6ec925060200190506111fc565b60015460405163381baea360e21b8152600660048201526001600160a01b039091169063e06eba8c9060240160206040518083038186803b1580156119bd57600080fd5b505afa1580156119d1573d6000803e3d6000fd5b505050506040513d601f19601f820116820180604052508101906119f59190613dde565b6001600160a01b0316336001600160a01b031614611a255760405162461bcd60e51b815260040161092590613dfb565b604051638998361160e01b81526004808201526001600160401b038084166024830152821660448201526000606482015273__$b59f66f9b4972d644e41bc4977edb0d217$__9063899836119060840160006040518083038186803b158015611a8d57600080fd5b505af4158015611aa1573d6000803e3d6000fd5b5050604080516001600160401b038087168252851660208201527fc6861a64b8a09b2aee31f61ebd300160e6fe6a19a7e830e5f6f273b99aa2360b93500190505b60405180910390a15050565b60408051608081018252600080825260208201819052918101829052606081019190915260008052600560205260405163e8fce06b60e01b81527f05b8ccbb9d4d8fb16ea74ce3c29a41f1b461fbdaff4714a0d9a8eb05499746bc600482015265ffffffffffff8316602482015273__$9d89bb4a2fad48898c323b0a17741df93a$__9063e8fce06b9060440160806040518083038186803b158015611b9357600080fd5b505af4158015611ba7573d6000803e3d6000fd5b505050506040513d601f19601f82011682018060405250810190610dc69190614232565b604051632a3be56b60e21b815260026004820152602481018390526044810182905260009073__$364aad554dc80380f414546becdd2c1584$__9063a8ef95ac9060640160206040518083038186803b158015611c2757600080fd5b505af4158015611c3b573d6000803e3d6000fd5b505050506040513d601f19601f820116820180604052508101906112a19190613e69565b604051633b11adbf60e21b81526002600482015233602482015273__$364aad554dc80380f414546becdd2c1584$__9063ec46b6fc9060440160206040518083038186803b158015611cb057600080fd5b505af4158015611cc4573d6000803e3d6000fd5b505050506040513d601f19601f82011682018060405250810190611ce89190613e69565b80611d8d575073__$364aad554dc80380f414546becdd2c1584$__63fe2710866002611d12613845565b6040516001600160e01b031960e085901b168152600481019290925264ffffffffff16602482015260440160206040518083038186803b158015611d5557600080fd5b505af4158015611d69573d6000803e3d6000fd5b505050506040513d601f19601f82011682018060405250810190611d8d9190613e69565b611da95760405162461bcd60e51b81526004016109259061403c565b60405163b6e38a2960e01b8152600260048201526024810182905273__$364aad554dc80380f414546becdd2c1584$__9063b6e38a299060440160006040518083038186803b158015611dfb57600080fd5b505af4158015611e0f573d6000803e3d6000fd5b505050507f8b6f40f36b4ae8cc5f55e895036457c43da4ab1f80f58c46f5ff0d72a650033b816040516111fc91815260200190565b60008052600560205260405163034306e160e21b81527f05b8ccbb9d4d8fb16ea74ce3c29a41f1b461fbdaff4714a0d9a8eb05499746bd600482015260609073__$8c1a4844a0a0988ea2454cf87145a95df1$__90630d0c1b84906024015b60006040518083038186803b158015611ebb57600080fd5b505af4158015611ecf573d6000803e3d6000fd5b505050506040513d6000823e601f3d908101601f191682016040526107ed9190810190613f39565b60405163987ad15360e01b81526002600482015260009073__$364aad554dc80380f414546becdd2c1584$__9063987ad15390602401610829565b6000611f3c613845565b60405163cc0d511b60e01b8152600260048201526024810184905264ffffffffff8216604482015290915073__$364aad554dc80380f414546becdd2c1584$__9063cc0d511b90606401610cde565b60015460405163381baea360e21b8152600660048201526001600160a01b039091169063e06eba8c9060240160206040518083038186803b158015611fcf57600080fd5b505afa158015611fe3573d6000803e3d6000fd5b505050506040513d601f19601f820116820180604052508101906120079190613dde565b6001600160a01b0316336001600160a01b0316146120375760405162461bcd60e51b815260040161092590613dfb565b806121625764ffffffffff841660009081526005602052604080822090516305ec572760e41b8152600481019190915273__$9d89bb4a2fad48898c323b0a17741df93a$__90635ec572709060240160806040518083038186803b15801561209e57600080fd5b505af41580156120b2573d6000803e3d6000fd5b505050506040513d601f19601f820116820180604052508101906120d69190614232565b9050836001600160401b031681602001516001600160401b0316101580156121145750826001600160401b031681604001516001600160401b031610155b6121605760405162461bcd60e51b815260206004820181905260248201527f524f4d2e43414f4d3a2070616964206f7220706172206e6f7420656e6f7567686044820152606401610925565b505b604080516001600160401b0385811682528416602082015282151581830152905164ffffffffff8616917fb75922c4fa1fe23161046487099d13fe17adc0b8f482ca6168bb5631dc103f71919081900360600190a26040516396be611b60e01b815260048082015264ffffffffff851660248201526001600160401b03808516604483015283166064820152811515608482015273__$b59f66f9b4972d644e41bc4977edb0d217$__906396be611b9060a40160006040518083038186803b15801561222d57600080fd5b505af4158015612241573d6000803e3d6000fd5b5050505050505050565b60405163feeac47f60e01b815260048082015260009073__$0373da85302df7c003c5cc5214782e6132$__9063feeac47f9060240160206040518083038186803b15801561229857600080fd5b505af41580156122ac573d6000803e3d6000fd5b505050506040513d601f19601f820116820180604052508101906107ed919061401f565b60008080526005602052604051633f5f77cd60e01b81527f05b8ccbb9d4d8fb16ea74ce3c29a41f1b461fbdaff4714a0d9a8eb05499746bd60048201526024810183905273__$8c1a4844a0a0988ea2454cf87145a95df1$__90633f5f77cd906044015b60206040518083038186803b15801561234c57600080fd5b505af4158015612360573d6000803e3d6000fd5b505050506040513d601f19601f82011682018060405250810190610dc69190613e69565b60015460405163381baea360e21b8152600660048201526001600160a01b039091169063e06eba8c9060240160206040518083038186803b1580156123c857600080fd5b505afa1580156123dc573d6000803e3d6000fd5b505050506040513d601f19601f820116820180604052508101906124009190613dde565b6001600160a01b0316336001600160a01b0316146124305760405162461bcd60e51b815260040161092590613dfb565b604051638998361160e01b81526004808201526001600160401b038084166024830152821660448201526001606482015273__$b59f66f9b4972d644e41bc4977edb0d217$__9063899836119060840160006040518083038186803b15801561249857600080fd5b505af41580156124ac573d6000803e3d6000fd5b5050604080516001600160401b038087168252851660208201527f0a14efe28272b5c25c09e98c3978ff1725a1c0e8e06d15885ec449e8083a3f7f9350019050611ae2565b60405163118158f560e11b815260048082015260609073__$0373da85302df7c003c5cc5214782e6132$__90632302b1ea9060240160006040518083038186803b15801561253e57600080fd5b505af4158015612552573d6000803e3d6000fd5b505050506040513d6000823e601f3d908101601f191682016040526107ed91908101906142b6565b60015460405163381baea360e21b8152600660048201526001600160a01b039091169063e06eba8c9060240160206040518083038186803b1580156125be57600080fd5b505afa1580156125d2573d6000803e3d6000fd5b505050506040513d601f19601f820116820180604052508101906125f69190613dde565b6001600160a01b0316336001600160a01b0316146126265760405162461bcd60e51b815260040161092590613dfb565b600061263061389f565b6040516319f6b4bf60e31b815263ffffffff851660048201526001600160a01b03919091169063cfb5a5f8906024016101606040518083038186803b15801561267857600080fd5b505afa15801561268c573d6000803e3d6000fd5b505050506040513d601f19601f820116820180604052508101906126b09190614174565b90506126cf828260200151600001518360200151602001516000611f8b565b60405163b582c18560e01b815260048082015263ffffffff8416602482015264ffffffffff8316604482015273__$b59f66f9b4972d644e41bc4977edb0d217$__9063b582c1859060640160206040518083038186803b15801561273257600080fd5b505af4158015612746573d6000803e3d6000fd5b505050506040513d601f19601f8201168201806040525081019061276a9190613e69565b156118c25764ffffffffff821660009081526005602052604090819020905163c2b46a8560e01b81526001909101600482015273__$8c1a4844a0a0988ea2454cf87145a95df1$__9063c2b46a859060240160206040518083038186803b1580156127d457600080fd5b505af41580156127e8573d6000803e3d6000fd5b505050506040513d601f19601f8201168201806040525081019061280c9190613da8565b6128a157604051635730b14f60e01b815260048082015264ffffffffff8316602482015273__$b59f66f9b4972d644e41bc4977edb0d217$__90635730b14f9060440160206040518083038186803b15801561286757600080fd5b505af415801561287b573d6000803e3d6000fd5b505050506040513d601f19601f8201168201806040525081019061289f9190613e69565b505b60405164ffffffffff83169063ffffffff8516907f9b8184045aa5752de9f9c7155b26141f222ac4abf9dd8fa634dbba785e2d8f1790600090a3505050565b6001546040516335d2155560e11b81523360048201526001600160a01b0390911690636ba42aaa9060240160206040518083038186803b15801561292357600080fd5b505afa158015612937573d6000803e3d6000fd5b505050506040513d601f19601f8201168201806040525081019061295b9190613e69565b6129775760405162461bcd60e51b8152600401610925906143c5565b604051630df234af60e21b815260048082015264ffffffffff80841660248301528216604482015273__$0373da85302df7c003c5cc5214782e6132$__906337c8d2bc9060640160206040518083038186803b1580156129d657600080fd5b505af41580156129ea573d6000803e3d6000fd5b505050506040513d601f19601f82011682018060405250810190612a0e9190613e69565b15612a50578064ffffffffff168264ffffffffff167fd875de446030922d882c407a7bcd6f5371d1b13efa74a8be2dacd22334d8846660405160405180910390a35b5050565b6040805160808101825260008082526020820181905291810182905260608101919091526000805260056020526040516305ec572760e41b81527f05b8ccbb9d4d8fb16ea74ce3c29a41f1b461fbdaff4714a0d9a8eb05499746bc600482015273__$9d89bb4a2fad48898c323b0a17741df93a$__90635ec572709060240160806040518083038186803b158015612aeb57600080fd5b505af4158015612aff573d6000803e3d6000fd5b505050506040513d601f19601f820116820180604052508101906107ed9190614232565b6001546040516335d2155560e11b81523360048201526001600160a01b0390911690636ba42aaa9060240160206040518083038186803b158015612b6657600080fd5b505afa158015612b7a573d6000803e3d6000fd5b505050506040513d601f19601f82011682018060405250810190612b9e9190613e69565b612bba5760405162461bcd60e51b8152600401610925906143c5565b604051630d98f2af60e41b8152600480820152811515602482015273__$0373da85302df7c003c5cc5214782e6132$__9063d98f2af09060440160206040518083038186803b158015612c0c57600080fd5b505af4158015612c20573d6000803e3d6000fd5b505050506040513d601f19601f82011682018060405250810190612c449190613e69565b15610c7b5760405181151581527f0b1b96bce125700569e932050b6c2b3da7dabbe97241d19ff114400cb3546be8906020016111fc565b600081612c8781612e6a565b612ca35760405162461bcd60e51b815260040161092590614092565b5050600090815260046020526040902054600160781b90046001600160401b031690565b604051636c49485960e01b815260048082015260009073__$0373da85302df7c003c5cc5214782e6132$__90636c49485990602401610e02565b60408051608081018252600080825260208201819052918101829052606081019190915281612d2f81612e6a565b612d4b5760405162461bcd60e51b815260040161092590614092565b6000838152600560205260409081902090516305ec572760e41b8152600481019190915273__$9d89bb4a2fad48898c323b0a17741df93a$__90635ec572709060240160806040518083038186803b158015612da657600080fd5b505af4158015612dba573d6000803e3d6000fd5b505050506040513d601f19601f820116820180604052508101906112a19190614232565b6040516312a6722f60e31b81526004808201526024810182905260009073__$0373da85302df7c003c5cc5214782e6132$__9063953391789060440160206040518083038186803b158015612e3257600080fd5b505af4158015612e46573d6000803e3d6000fd5b505050506040513d601f19601f82011682018060405250810190610dc69190613e4c565b604051630a4225b960e41b81526004808201526024810182905260009073__$0373da85302df7c003c5cc5214782e6132$__9063a4225b9090604401612334565b6001546040516335d2155560e11b81523360048201526001600160a01b0390911690636ba42aaa9060240160206040518083038186803b158015612eee57600080fd5b505afa158015612f02573d6000803e3d6000fd5b505050506040513d601f19601f82011682018060405250810190612f269190613e69565b612f425760405162461bcd60e51b8152600401610925906143c5565b6040516318dfa6cd60e11b8152600480820152811515602482015273__$b59f66f9b4972d644e41bc4977edb0d217$__906331bf4d9a9060440160206040518083038186803b158015612f9457600080fd5b505af4158015612fa8573d6000803e3d6000fd5b505050506040513d601f19601f82011682018060405250810190612fcc9190613e69565b15610c7b5760405181151581527f1e06c59992faf7c98f854af104dd450a2705f0e45c9bf4de8043c574c0079c10906020016111fc565b604051636878e4e760e11b815260048082015260009073__$0373da85302df7c003c5cc5214782e6132$__9063d0f1c9ce90602401610e02565b613046826138f8565b61304f816139a7565b604051636cdd0edf60e11b815260026004820152602481018590526001600160a01b038416604482015273__$364aad554dc80380f414546becdd2c1584$__9063d9ba1dbe9060640160006040518083038186803b1580156130b057600080fd5b505af41580156130c4573d6000803e3d6000fd5b5050604080518781526001600160a01b038781166020830152868116828401528516606082015290517f3abb2418c66fe32ba9c883030a75ce583971d9af9192b9b74e44e67c5e6c8c1f9350908190036080019150a150505050565b604051632666ad2360e21b815260048082015260609073__$0373da85302df7c003c5cc5214782e6132$__9063999ab48c90602401611ea3565b6001546040516335d2155560e11b81523360048201526001600160a01b0390911690636ba42aaa9060240160206040518083038186803b15801561319d57600080fd5b505afa1580156131b1573d6000803e3d6000fd5b505050506040513d601f19601f820116820180604052508101906131d59190613e69565b6131f15760405162461bcd60e51b8152600401610925906143c5565b60405163347f09bd60e11b81526004808201526024810183905273__$0373da85302df7c003c5cc5214782e6132$__906368fe137a9060440160206040518083038186803b15801561324257600080fd5b505af4158015613256573d6000803e3d6000fd5b505050506040513d601f19601f8201168201806040525081019061327a9190613da8565b81146132d75760405162461bcd60e51b815260206004820152602660248201527f524f4d2e524d46473a20526f6f74206973206e6f742067726f7570526570206f60448201526519881058d8dd60d21b6064820152608401610925565b60405163b110cd5b60e01b81526004808201526024810183905260009073__$0373da85302df7c003c5cc5214782e6132$__9063b110cd5b9060440160206040518083038186803b15801561332b57600080fd5b505af415801561333f573d6000803e3d6000fd5b505050506040513d601f19601f820116820180604052508101906133639190613da8565b6040516305842a9b60e41b81526004808201526024810185905290915073__$0373da85302df7c003c5cc5214782e6132$__90635842a9b09060440160206040518083038186803b1580156133b757600080fd5b505af41580156133cb573d6000803e3d6000fd5b505050506040513d601f19601f820116820180604052508101906133ef9190613e69565b156118c257604051829084907f7f6e178e0d21cabade7232113cb77bf6fe6f1220aa7b5f8b37b6cff7387671ee90600090a3818314156118c257604051819083907f15704695427fa23b834fbd6162af7c4ba7c47a6eebd02213f72cbb6cb65585a290600090a3505050565b604051630f24363960e11b815260048082015260009073__$0373da85302df7c003c5cc5214782e6132$__90631e486c729060240160206040518083038186803b1580156134a857600080fd5b505af41580156134bc573d6000803e3d6000fd5b505050506040513d601f19601f820116820180604052508101906107ed9190613e69565b6060816134ec81612e6a565b6135085760405162461bcd60e51b815260040161092590614092565b60008381526005602052604090819020905163034306e160e21b81526001909101600482015273__$8c1a4844a0a0988ea2454cf87145a95df1$__90630d0c1b849060240160006040518083038186803b15801561356557600080fd5b505af4158015613579573d6000803e3d6000fd5b505050506040513d6000823e601f3d908101601f191682016040526112a19190810190613f39565b604051633c3e56c160e11b81526002600482015260009073__$364aad554dc80380f414546becdd2c1584$__9063787cad829060240160206040518083038186803b1580156135ef57600080fd5b505af4158015613603573d6000803e3d6000fd5b505050506040513d601f19601f820116820180604052508101906107ed9190613dde565b604051633b11adbf60e21b81526002600482015233602482015273__$364aad554dc80380f414546becdd2c1584$__9063ec46b6fc9060440160206040518083038186803b15801561367857600080fd5b505af415801561368c573d6000803e3d6000fd5b505050506040513d601f19601f820116820180604052508101906136b09190613e69565b6136cc5760405162461bcd60e51b815260040161092590613fce565b600254600160f01b900460ff166001146137285760405162461bcd60e51b815260206004820181905260248201527f41432e6f6e6c7950656e64696e673a20446f632069732066696e616c697a65646044820152606401610925565b60405163cc99e11b60e01b815260026004820152684174746f726e65797360b81b602482015273__$364aad554dc80380f414546becdd2c1584$__9063cc99e11b9060440160006040518083038186803b15801561378557600080fd5b505af4158015613799573d6000803e3d6000fd5b5050604051632725ebef60e21b8152600260048201526000602482015273__$364aad554dc80380f414546becdd2c1584$__9250639c97afbc915060440160006040518083038186803b1580156137ef57600080fd5b505af4158015613803573d6000803e3d6000fd5b50506002805460ff60f01b1916600160f11b17905550506040517f35012b512309c322acf68632cd6cb702ff0e1d776fbe9394e38ffc13b434fe7590600090a1565b60008054604051634de835e760e11b81523360048201526001600160a01b0390911690639bd06bce90602401602060405180830381600087803b15801561388b57600080fd5b505af11580156122ac573d6000803e3d6000fd5b60015460405163381baea360e21b8152600660048201526000916001600160a01b03169063e06eba8c9060240160206040518083038186803b1580156138e457600080fd5b505afa158015613603573d6000803e3d6000fd5b6000546001600160a01b0316156139495760405162461bcd60e51b815260206004820152601560248201527430b63932b0b23c9039b2ba103932b3a1b2b73a32b960591b6044820152606401610925565b6040516001600160a01b03821681527f318da6c7624c71cbc0afe346c9d8827f119d0ecefb241a7b0c87217a076a8e029060200160405180910390a1600080546001600160a01b0319166001600160a01b0392909216919091179055565b6001546001600160a01b031615613a005760405162461bcd60e51b815260206004820152601960248201527f616c7265616479207365742067656e6572616c4b6565706572000000000000006044820152606401610925565b6040516001600160a01b03821681527fe513d3e0f0d0a3877029dcc588748679a7a3450ec1ec7ed56d96bd012c3e61aa9060200160405180910390a1600180546001600160a01b0319166001600160a01b0392909216919091179055565b600060208284031215613a7057600080fd5b5035919050565b60008060408385031215613a8a57600080fd5b50508035926020909101359150565b6020808252825182820181905260009190848201906040850190845b81811015613ad157835183529284019291840191600101613ab5565b50909695505050505050565b65ffffffffffff81168114610c7b57600080fd5b60008060408385031215613b0457600080fd5b823591506020830135613b1681613add565b809150509250929050565b63ffffffff81168114610c7b57600080fd5b600060208284031215613b4557600080fd5b81356112a181613b21565b64ffffffffff81168114610c7b57600080fd5b60008060408385031215613b7657600080fd5b8235613b8181613b21565b91506020830135613b1681613b50565b6001600160a01b0381168114610c7b57600080fd5b600060208284031215613bb857600080fd5b81356112a181613b91565b6001600160401b0381168114610c7b57600080fd5b60008060408385031215613beb57600080fd5b8235613bf681613bc3565b91506020830135613b1681613bc3565b600060208284031215613c1857600080fd5b81356112a181613add565b8015158114610c7b57600080fd5b60008060008060808587031215613c4757600080fd5b8435613c5281613b50565b93506020850135613c6281613bc3565b92506040850135613c7281613bc3565b91506060850135613c8281613c23565b939692955090935050565b602080825282518282018190526000919060409081850190868401855b82811015613d18578151805164ffffffffff9081168652878201518116888701528682015116868601526060808201516001600160401b03908116918701919091526080808301519091169086015260a09081015160ff169085015260c09093019290850190600101613caa565b5091979650505050505050565b60008060408385031215613d3857600080fd5b8235613b8181613b50565b600060208284031215613d5557600080fd5b81356112a181613c23565b60008060008060808587031215613d7657600080fd5b843593506020850135613d8881613b91565b92506040850135613d9881613b91565b91506060850135613c8281613b91565b600060208284031215613dba57600080fd5b5051919050565b600060208284031215613dd357600080fd5b81516112a181613bc3565b600060208284031215613df057600080fd5b81516112a181613b91565b60208082526021908201527f524f4d2e6f6e6c79424f533a206d736753656e646572206973206e6f7420424f6040820152605360f81b606082015260800190565b8051613e4781613b21565b919050565b600060208284031215613e5e57600080fd5b81516112a181613b21565b600060208284031215613e7b57600080fd5b81516112a181613c23565b634e487b7160e01b600052604160045260246000fd5b604080519081016001600160401b0381118282101715613ebe57613ebe613e86565b60405290565b60405160c081016001600160401b0381118282101715613ebe57613ebe613e86565b604051601f8201601f191681016001600160401b0381118282101715613f0e57613f0e613e86565b604052919050565b60006001600160401b03821115613f2f57613f2f613e86565b5060051b60200190565b60006020808385031215613f4c57600080fd5b82516001600160401b03811115613f6257600080fd5b8301601f81018513613f7357600080fd5b8051613f86613f8182613f16565b613ee6565b81815260059190911b82018301908381019087831115613fa557600080fd5b928401925b82841015613fc357835182529284019290840190613faa565b979650505050505050565b60208082526026908201527f41432e6f6e6c794469726563744b65657065723a206e6f74206469726563742060408201526535b2b2b832b960d11b606082015260800190565b8051613e4781613b50565b60006020828403121561403157600080fd5b81516112a181613b50565b60208082526036908201527f41432e6f776e65724f72446972656374426f6f6b65657065723a206e6569746860408201527532b91037bbb732b9103737b9103137b7b5b2b2b832b960511b606082015260800190565b6020808252601b908201527f524f4d2e6d656d62657245786973743a204e4f54204d656d6265720000000000604082015260600190565b805160ff81168114613e4757600080fd5b600060a082840312156140ec57600080fd5b60405160a081018181106001600160401b038211171561410e5761410e613e86565b8060405250809150825161412181613bc3565b8152602083015161413181613bc3565b6020820152604083015161414481613bc3565b6040820152606083015161415781613add565b6060820152614168608084016140c9565b60808201525092915050565b600081830361016081121561418857600080fd5b614190613e9c565b60c082121561419e57600080fd5b6141a6613ec4565b9150835161ffff811681146141ba57600080fd5b825260208401516141ca81613b21565b602083015260408401516141dd81613add565b60408301526141ee60608501614014565b60608301526141ff60808501613e3c565b608083015261421060a08501613e3c565b60a08301528181526142258560c086016140da565b6020820152949350505050565b60006080828403121561424457600080fd5b604051608081018181106001600160401b038211171561426657614266613e86565b604052825161427481613add565b8152602083015161428481613bc3565b6020820152604083015161429781613bc3565b604082015260608301516142aa81613bc3565b60608201529392505050565b600060208083850312156142c957600080fd5b82516001600160401b038111156142df57600080fd5b8301601f810185136142f057600080fd5b80516142fe613f8182613f16565b81815260c0918202830184019184820191908884111561431d57600080fd5b938501935b838510156143b95780858a03121561433a5760008081fd5b614342613ec4565b855161434d81613b50565b81528587015161435c81613b50565b8188015260408681015161436f81613b50565b9082015260608681015161438281613bc3565b9082015260808681015161439581613bc3565b9082015260a06143a68782016140c9565b9082015283529384019391850191614322565b50979650505050505050565b60208082526011908201527020a19737b59d103737ba1025b2b2b832b960791b60408201526060019056fea264697066735822122010c289cc820eb0cd46a5b637505b52af01d7f5f6219db094e0d8454885c45ae064736f6c63430008080033",
    "sourcePath": "/Users/kaptain/github.com/hardhat/comboox/contracts/books/rom/RegisterOfMembers.sol",
    "compiler": {
        "name": "solc",
        "version": "0.8.8+commit.dddeac2f"
    },
    "functionHashes": {
        "abandonRole(bytes32)": "3da9a600",
        "addMember(uint256)": "1089f5ed",
        "addMemberToGroup(uint40,uint40)": "a7ec068f",
        "addShareToMember(uint32,uint40)": "6bdc3730",
        "affiliated(uint256,uint256)": "68c1047b",
        "basedOnPar()": "e4df9100",
        "capAtDate(uint48)": "72dd6529",
        "capDecrease(uint64,uint64)": "72cc64f9",
        "capIncrease(uint64,uint64)": "9a3ca24b",
        "changeAmtOfMember(uint40,uint64,uint64,bool)": "96cfe114",
        "controllor()": "98419928",
        "deepOfGroup(uint256)": "cd27821e",
        "finalized()": "b3f05b97",
        "getBookeeper()": "ed211023",
        "getGeneralCounsel()": "103f6edd",
        "getOwner()": "893d20e8",
        "getSnapshot()": "9c54297c",
        "grantRole(bytes32,uint256)": "1b6ea9f9",
        "groupRep(uint256)": "605c5ec6",
        "hasRole(bytes32,uint256)": "7e063c5a",
        "init(uint256,address,address,address)": "dc890da9",
        "isGroupRep(uint256)": "0787c777",
        "isMember(uint256)": "d50c7377",
        "isSeqOfShare(uint256)": "9a09e43c",
        "lockContents()": "f045a769",
        "maxQtyOfMembers()": "2898436f",
        "membersList()": "dd5042f4",
        "membersOfGroup(uint256)": "218668fa",
        "ownersEquity()": "b966ac45",
        "qtyOfGroups()": "c410c23a",
        "qtyOfMembers()": "dc6599c5",
        "removeMemberFromGroup(uint256,uint256)": "dd8a18e9",
        "removeShareFromMember(uint32,uint40)": "a03510c5",
        "renounceRole(bytes32)": "8bb9c5bf",
        "revokeRole(bytes32,uint256)": "19d61ad9",
        "setAmtBase(bool)": "da6a43d6",
        "setDirectKeeper(address)": "6be8496f",
        "setGeneralCounsel(uint256)": "4a14beb1",
        "setMaxQtyOfMembers(uint32)": "5c345934",
        "setOwner(uint256)": "8041494e",
        "setRoleAdmin(bytes32,uint256)": "5171ebd4",
        "setVoteBase(bool)": "bdc36f62",
        "sharesClipOfMember(uint256)": "c70bc673",
        "sharesInHand(uint256)": "e80bf906",
        "sharesList()": "8170c3b9",
        "totalVotes()": "0d15fd77",
        "votesAtDate(uint256,uint48)": "4bc8315f",
        "votesInHand(uint256)": "c2d7616e",
        "votesOfController()": "3f17cd45",
        "votesOfGroup(uint256)": "57f1929c"
    },
    "gasEstimates": {
        "creation": {
            "codeDepositCost": "3489200",
            "executionCost": "3909",
            "totalCost": "3493109"
        },
        "external": {
            "abandonRole(bytes32)": "infinite",
            "addMember(uint256)": "infinite",
            "addMemberToGroup(uint40,uint40)": "infinite",
            "addShareToMember(uint32,uint40)": "infinite",
            "affiliated(uint256,uint256)": "infinite",
            "basedOnPar()": "infinite",
            "capAtDate(uint48)": "infinite",
            "capDecrease(uint64,uint64)": "infinite",
            "capIncrease(uint64,uint64)": "infinite",
            "changeAmtOfMember(uint40,uint64,uint64,bool)": "infinite",
            "controllor()": "infinite",
            "deepOfGroup(uint256)": "infinite",
            "finalized()": "2405",
            "getBookeeper()": "infinite",
            "getGeneralCounsel()": "infinite",
            "getOwner()": "infinite",
            "getSnapshot()": "infinite",
            "grantRole(bytes32,uint256)": "infinite",
            "groupRep(uint256)": "infinite",
            "hasRole(bytes32,uint256)": "infinite",
            "init(uint256,address,address,address)": "infinite",
            "isGroupRep(uint256)": "infinite",
            "isMember(uint256)": "infinite",
            "isSeqOfShare(uint256)": "infinite",
            "lockContents()": "infinite",
            "maxQtyOfMembers()": "infinite",
            "membersList()": "infinite",
            "membersOfGroup(uint256)": "infinite",
            "ownersEquity()": "infinite",
            "qtyOfGroups()": "infinite",
            "qtyOfMembers()": "infinite",
            "removeMemberFromGroup(uint256,uint256)": "infinite",
            "removeShareFromMember(uint32,uint40)": "infinite",
            "renounceRole(bytes32)": "infinite",
            "revokeRole(bytes32,uint256)": "infinite",
            "setAmtBase(bool)": "infinite",
            "setDirectKeeper(address)": "infinite",
            "setGeneralCounsel(uint256)": "infinite",
            "setMaxQtyOfMembers(uint32)": "infinite",
            "setOwner(uint256)": "infinite",
            "setRoleAdmin(bytes32,uint256)": "infinite",
            "setVoteBase(bool)": "infinite",
            "sharesClipOfMember(uint256)": "infinite",
            "sharesInHand(uint256)": "infinite",
            "sharesList()": "infinite",
            "totalVotes()": "infinite",
            "votesAtDate(uint256,uint48)": "infinite",
            "votesInHand(uint256)": "infinite",
            "votesOfController()": "infinite",
            "votesOfGroup(uint256)": "infinite"
        }
    }
}