{
    "contractName": "RegisterOfMembers",
    "abi": [
        {
            "anonymous": false,
            "inputs": [
                {
                    "indexed": true,
                    "internalType": "uint256",
                    "name": "acct",
                    "type": "uint256"
                },
                {
                    "indexed": false,
                    "internalType": "uint32",
                    "name": "qtyOfMembers",
                    "type": "uint32"
                }
            ],
            "name": "AddMember",
            "type": "event"
        },
        {
            "anonymous": false,
            "inputs": [
                {
                    "indexed": true,
                    "internalType": "uint40",
                    "name": "acct",
                    "type": "uint40"
                },
                {
                    "indexed": true,
                    "internalType": "uint40",
                    "name": "root",
                    "type": "uint40"
                }
            ],
            "name": "AddMemberToGroup",
            "type": "event"
        },
        {
            "anonymous": false,
            "inputs": [
                {
                    "indexed": true,
                    "internalType": "uint32",
                    "name": "seqOfShare",
                    "type": "uint32"
                },
                {
                    "indexed": true,
                    "internalType": "uint40",
                    "name": "acct",
                    "type": "uint40"
                }
            ],
            "name": "AddShareToMember",
            "type": "event"
        },
        {
            "anonymous": false,
            "inputs": [
                {
                    "indexed": false,
                    "internalType": "uint64",
                    "name": "paid",
                    "type": "uint64"
                },
                {
                    "indexed": false,
                    "internalType": "uint64",
                    "name": "par",
                    "type": "uint64"
                }
            ],
            "name": "CapDecrease",
            "type": "event"
        },
        {
            "anonymous": false,
            "inputs": [
                {
                    "indexed": false,
                    "internalType": "uint64",
                    "name": "paid",
                    "type": "uint64"
                },
                {
                    "indexed": false,
                    "internalType": "uint64",
                    "name": "par",
                    "type": "uint64"
                }
            ],
            "name": "CapIncrease",
            "type": "event"
        },
        {
            "anonymous": false,
            "inputs": [
                {
                    "indexed": true,
                    "internalType": "uint40",
                    "name": "acct",
                    "type": "uint40"
                },
                {
                    "indexed": false,
                    "internalType": "uint64",
                    "name": "paid",
                    "type": "uint64"
                },
                {
                    "indexed": false,
                    "internalType": "uint64",
                    "name": "par",
                    "type": "uint64"
                },
                {
                    "indexed": false,
                    "internalType": "bool",
                    "name": "increase",
                    "type": "bool"
                }
            ],
            "name": "ChangeAmtOfMember",
            "type": "event"
        },
        {
            "anonymous": false,
            "inputs": [
                {
                    "indexed": true,
                    "internalType": "uint256",
                    "name": "orgRep",
                    "type": "uint256"
                },
                {
                    "indexed": true,
                    "internalType": "uint256",
                    "name": "newRep",
                    "type": "uint256"
                }
            ],
            "name": "ChangeGroupRep",
            "type": "event"
        },
        {
            "anonymous": false,
            "inputs": [
                {
                    "indexed": true,
                    "internalType": "uint40",
                    "name": "acct",
                    "type": "uint40"
                },
                {
                    "indexed": false,
                    "internalType": "uint64",
                    "name": "paid",
                    "type": "uint64"
                },
                {
                    "indexed": false,
                    "internalType": "uint64",
                    "name": "par",
                    "type": "uint64"
                },
                {
                    "indexed": false,
                    "internalType": "uint64",
                    "name": "blocknumber",
                    "type": "uint64"
                }
            ],
            "name": "DecreaseAmountFromMember",
            "type": "event"
        },
        {
            "anonymous": false,
            "inputs": [
                {
                    "indexed": false,
                    "internalType": "uint256",
                    "name": "owner",
                    "type": "uint256"
                },
                {
                    "indexed": false,
                    "internalType": "address",
                    "name": "directKeeper",
                    "type": "address"
                },
                {
                    "indexed": false,
                    "internalType": "address",
                    "name": "regCenter",
                    "type": "address"
                },
                {
                    "indexed": false,
                    "internalType": "address",
                    "name": "generalKeeper",
                    "type": "address"
                }
            ],
            "name": "Init",
            "type": "event"
        },
        {
            "anonymous": false,
            "inputs": [],
            "name": "LockContents",
            "type": "event"
        },
        {
            "anonymous": false,
            "inputs": [
                {
                    "indexed": true,
                    "internalType": "uint256",
                    "name": "acct",
                    "type": "uint256"
                },
                {
                    "indexed": true,
                    "internalType": "uint256",
                    "name": "root",
                    "type": "uint256"
                }
            ],
            "name": "RemoveMemberFromGroup",
            "type": "event"
        },
        {
            "anonymous": false,
            "inputs": [
                {
                    "indexed": true,
                    "internalType": "uint32",
                    "name": "seqOfShare",
                    "type": "uint32"
                },
                {
                    "indexed": true,
                    "internalType": "uint40",
                    "name": "acct",
                    "type": "uint40"
                }
            ],
            "name": "RemoveShareFromMember",
            "type": "event"
        },
        {
            "anonymous": false,
            "inputs": [
                {
                    "indexed": false,
                    "internalType": "bool",
                    "name": "basedOnPar",
                    "type": "bool"
                }
            ],
            "name": "SetAmtBase",
            "type": "event"
        },
        {
            "anonymous": false,
            "inputs": [
                {
                    "indexed": false,
                    "internalType": "uint256",
                    "name": "title",
                    "type": "uint256"
                },
                {
                    "indexed": false,
                    "internalType": "address",
                    "name": "book",
                    "type": "address"
                }
            ],
            "name": "SetBookRuting",
            "type": "event"
        },
        {
            "anonymous": false,
            "inputs": [
                {
                    "indexed": false,
                    "internalType": "address",
                    "name": "keeper",
                    "type": "address"
                }
            ],
            "name": "SetDirectKeeper",
            "type": "event"
        },
        {
            "anonymous": false,
            "inputs": [
                {
                    "indexed": false,
                    "internalType": "uint256",
                    "name": "acct",
                    "type": "uint256"
                }
            ],
            "name": "SetGeneralCounsel",
            "type": "event"
        },
        {
            "anonymous": false,
            "inputs": [
                {
                    "indexed": false,
                    "internalType": "address",
                    "name": "gk",
                    "type": "address"
                }
            ],
            "name": "SetGeneralKeeper",
            "type": "event"
        },
        {
            "anonymous": false,
            "inputs": [
                {
                    "indexed": false,
                    "internalType": "uint32",
                    "name": "max",
                    "type": "uint32"
                }
            ],
            "name": "SetMaxQtyOfMembers",
            "type": "event"
        },
        {
            "anonymous": false,
            "inputs": [
                {
                    "indexed": false,
                    "internalType": "uint256",
                    "name": "acct",
                    "type": "uint256"
                }
            ],
            "name": "SetOwner",
            "type": "event"
        },
        {
            "anonymous": false,
            "inputs": [
                {
                    "indexed": false,
                    "internalType": "address",
                    "name": "rc",
                    "type": "address"
                }
            ],
            "name": "SetRegCenter",
            "type": "event"
        },
        {
            "anonymous": false,
            "inputs": [
                {
                    "indexed": false,
                    "internalType": "bool",
                    "name": "basedOnPar",
                    "type": "bool"
                }
            ],
            "name": "SetVoteBase",
            "type": "event"
        },
        {
            "inputs": [
                {
                    "internalType": "bytes32",
                    "name": "role",
                    "type": "bytes32"
                }
            ],
            "name": "abandonRole",
            "outputs": [],
            "stateMutability": "nonpayable",
            "type": "function"
        },
        {
            "inputs": [
                {
                    "internalType": "uint256",
                    "name": "acct",
                    "type": "uint256"
                }
            ],
            "name": "addMember",
            "outputs": [],
            "stateMutability": "nonpayable",
            "type": "function"
        },
        {
            "inputs": [
                {
                    "internalType": "uint40",
                    "name": "acct",
                    "type": "uint40"
                },
                {
                    "internalType": "uint40",
                    "name": "root",
                    "type": "uint40"
                }
            ],
            "name": "addMemberToGroup",
            "outputs": [],
            "stateMutability": "nonpayable",
            "type": "function"
        },
        {
            "inputs": [
                {
                    "components": [
                        {
                            "components": [
                                {
                                    "internalType": "uint32",
                                    "name": "seqOfShare",
                                    "type": "uint32"
                                },
                                {
                                    "internalType": "uint32",
                                    "name": "preSeq",
                                    "type": "uint32"
                                },
                                {
                                    "internalType": "uint16",
                                    "name": "class",
                                    "type": "uint16"
                                },
                                {
                                    "internalType": "uint48",
                                    "name": "issueDate",
                                    "type": "uint48"
                                },
                                {
                                    "internalType": "uint40",
                                    "name": "shareholder",
                                    "type": "uint40"
                                },
                                {
                                    "internalType": "uint32",
                                    "name": "price",
                                    "type": "uint32"
                                }
                            ],
                            "internalType": "struct SharesRepo.Head",
                            "name": "head",
                            "type": "tuple"
                        },
                        {
                            "components": [
                                {
                                    "internalType": "uint48",
                                    "name": "payInDeadline",
                                    "type": "uint48"
                                },
                                {
                                    "internalType": "uint64",
                                    "name": "paid",
                                    "type": "uint64"
                                },
                                {
                                    "internalType": "uint64",
                                    "name": "par",
                                    "type": "uint64"
                                },
                                {
                                    "internalType": "uint64",
                                    "name": "cleanPaid",
                                    "type": "uint64"
                                },
                                {
                                    "internalType": "uint8",
                                    "name": "state",
                                    "type": "uint8"
                                }
                            ],
                            "internalType": "struct SharesRepo.Body",
                            "name": "body",
                            "type": "tuple"
                        }
                    ],
                    "internalType": "struct SharesRepo.Share",
                    "name": "share",
                    "type": "tuple"
                }
            ],
            "name": "addShareToMember",
            "outputs": [],
            "stateMutability": "nonpayable",
            "type": "function"
        },
        {
            "inputs": [
                {
                    "internalType": "uint256",
                    "name": "acct1",
                    "type": "uint256"
                },
                {
                    "internalType": "uint256",
                    "name": "acct2",
                    "type": "uint256"
                }
            ],
            "name": "affiliated",
            "outputs": [
                {
                    "internalType": "bool",
                    "name": "",
                    "type": "bool"
                }
            ],
            "stateMutability": "view",
            "type": "function"
        },
        {
            "inputs": [],
            "name": "basedOnPar",
            "outputs": [
                {
                    "internalType": "bool",
                    "name": "",
                    "type": "bool"
                }
            ],
            "stateMutability": "view",
            "type": "function"
        },
        {
            "inputs": [
                {
                    "internalType": "uint48",
                    "name": "date",
                    "type": "uint48"
                }
            ],
            "name": "capAtDate",
            "outputs": [
                {
                    "components": [
                        {
                            "internalType": "uint48",
                            "name": "timestamp",
                            "type": "uint48"
                        },
                        {
                            "internalType": "uint64",
                            "name": "paid",
                            "type": "uint64"
                        },
                        {
                            "internalType": "uint64",
                            "name": "par",
                            "type": "uint64"
                        },
                        {
                            "internalType": "uint64",
                            "name": "cleanPaid",
                            "type": "uint64"
                        }
                    ],
                    "internalType": "struct Checkpoints.Checkpoint",
                    "name": "cap",
                    "type": "tuple"
                }
            ],
            "stateMutability": "view",
            "type": "function"
        },
        {
            "inputs": [
                {
                    "internalType": "uint64",
                    "name": "paid",
                    "type": "uint64"
                },
                {
                    "internalType": "uint64",
                    "name": "par",
                    "type": "uint64"
                }
            ],
            "name": "capDecrease",
            "outputs": [],
            "stateMutability": "nonpayable",
            "type": "function"
        },
        {
            "inputs": [
                {
                    "internalType": "uint64",
                    "name": "paid",
                    "type": "uint64"
                },
                {
                    "internalType": "uint64",
                    "name": "par",
                    "type": "uint64"
                }
            ],
            "name": "capIncrease",
            "outputs": [],
            "stateMutability": "nonpayable",
            "type": "function"
        },
        {
            "inputs": [
                {
                    "internalType": "uint40",
                    "name": "acct",
                    "type": "uint40"
                },
                {
                    "internalType": "uint64",
                    "name": "deltaPaid",
                    "type": "uint64"
                },
                {
                    "internalType": "uint64",
                    "name": "deltaPar",
                    "type": "uint64"
                },
                {
                    "internalType": "bool",
                    "name": "increase",
                    "type": "bool"
                }
            ],
            "name": "changeAmtOfMember",
            "outputs": [],
            "stateMutability": "nonpayable",
            "type": "function"
        },
        {
            "inputs": [],
            "name": "controllor",
            "outputs": [
                {
                    "internalType": "uint40",
                    "name": "",
                    "type": "uint40"
                }
            ],
            "stateMutability": "view",
            "type": "function"
        },
        {
            "inputs": [
                {
                    "internalType": "uint256",
                    "name": "acct",
                    "type": "uint256"
                }
            ],
            "name": "deepOfGroup",
            "outputs": [
                {
                    "internalType": "uint256",
                    "name": "",
                    "type": "uint256"
                }
            ],
            "stateMutability": "view",
            "type": "function"
        },
        {
            "inputs": [],
            "name": "finalized",
            "outputs": [
                {
                    "internalType": "bool",
                    "name": "",
                    "type": "bool"
                }
            ],
            "stateMutability": "view",
            "type": "function"
        },
        {
            "inputs": [],
            "name": "getBookeeper",
            "outputs": [
                {
                    "internalType": "address",
                    "name": "",
                    "type": "address"
                }
            ],
            "stateMutability": "view",
            "type": "function"
        },
        {
            "inputs": [],
            "name": "getGeneralCounsel",
            "outputs": [
                {
                    "internalType": "uint40",
                    "name": "",
                    "type": "uint40"
                }
            ],
            "stateMutability": "view",
            "type": "function"
        },
        {
            "inputs": [
                {
                    "internalType": "uint16",
                    "name": "class",
                    "type": "uint16"
                }
            ],
            "name": "getMembersOfClass",
            "outputs": [
                {
                    "internalType": "uint256[]",
                    "name": "members",
                    "type": "uint256[]"
                }
            ],
            "stateMutability": "view",
            "type": "function"
        },
        {
            "inputs": [],
            "name": "getOwner",
            "outputs": [
                {
                    "internalType": "uint40",
                    "name": "",
                    "type": "uint40"
                }
            ],
            "stateMutability": "view",
            "type": "function"
        },
        {
            "inputs": [],
            "name": "getSnapshot",
            "outputs": [
                {
                    "components": [
                        {
                            "internalType": "uint40",
                            "name": "prev",
                            "type": "uint40"
                        },
                        {
                            "internalType": "uint40",
                            "name": "next",
                            "type": "uint40"
                        },
                        {
                            "internalType": "uint40",
                            "name": "ptr",
                            "type": "uint40"
                        },
                        {
                            "internalType": "uint64",
                            "name": "amt",
                            "type": "uint64"
                        },
                        {
                            "internalType": "uint64",
                            "name": "sum",
                            "type": "uint64"
                        },
                        {
                            "internalType": "uint8",
                            "name": "cat",
                            "type": "uint8"
                        }
                    ],
                    "internalType": "struct TopChain.Node[]",
                    "name": "",
                    "type": "tuple[]"
                }
            ],
            "stateMutability": "view",
            "type": "function"
        },
        {
            "inputs": [
                {
                    "internalType": "bytes32",
                    "name": "role",
                    "type": "bytes32"
                },
                {
                    "internalType": "uint256",
                    "name": "acct",
                    "type": "uint256"
                }
            ],
            "name": "grantRole",
            "outputs": [],
            "stateMutability": "nonpayable",
            "type": "function"
        },
        {
            "inputs": [
                {
                    "internalType": "uint256",
                    "name": "acct",
                    "type": "uint256"
                }
            ],
            "name": "groupRep",
            "outputs": [
                {
                    "internalType": "uint40",
                    "name": "",
                    "type": "uint40"
                }
            ],
            "stateMutability": "view",
            "type": "function"
        },
        {
            "inputs": [
                {
                    "internalType": "bytes32",
                    "name": "role",
                    "type": "bytes32"
                },
                {
                    "internalType": "uint256",
                    "name": "acct",
                    "type": "uint256"
                }
            ],
            "name": "hasRole",
            "outputs": [
                {
                    "internalType": "bool",
                    "name": "",
                    "type": "bool"
                }
            ],
            "stateMutability": "view",
            "type": "function"
        },
        {
            "inputs": [
                {
                    "internalType": "uint256",
                    "name": "owner",
                    "type": "uint256"
                },
                {
                    "internalType": "address",
                    "name": "directKeeper",
                    "type": "address"
                },
                {
                    "internalType": "address",
                    "name": "regCenter",
                    "type": "address"
                },
                {
                    "internalType": "address",
                    "name": "generalKeeper",
                    "type": "address"
                }
            ],
            "name": "init",
            "outputs": [],
            "stateMutability": "nonpayable",
            "type": "function"
        },
        {
            "inputs": [],
            "name": "initBOS",
            "outputs": [],
            "stateMutability": "nonpayable",
            "type": "function"
        },
        {
            "inputs": [
                {
                    "internalType": "uint256",
                    "name": "acct",
                    "type": "uint256"
                },
                {
                    "internalType": "uint16",
                    "name": "class",
                    "type": "uint16"
                }
            ],
            "name": "isClassMember",
            "outputs": [
                {
                    "internalType": "bool",
                    "name": "flag",
                    "type": "bool"
                }
            ],
            "stateMutability": "view",
            "type": "function"
        },
        {
            "inputs": [
                {
                    "internalType": "uint256",
                    "name": "acct",
                    "type": "uint256"
                }
            ],
            "name": "isGroupRep",
            "outputs": [
                {
                    "internalType": "bool",
                    "name": "",
                    "type": "bool"
                }
            ],
            "stateMutability": "view",
            "type": "function"
        },
        {
            "inputs": [
                {
                    "internalType": "uint256",
                    "name": "acct",
                    "type": "uint256"
                }
            ],
            "name": "isMember",
            "outputs": [
                {
                    "internalType": "bool",
                    "name": "",
                    "type": "bool"
                }
            ],
            "stateMutability": "view",
            "type": "function"
        },
        {
            "inputs": [
                {
                    "internalType": "uint256",
                    "name": "seqOfShare",
                    "type": "uint256"
                }
            ],
            "name": "isSeqOfShare",
            "outputs": [
                {
                    "internalType": "bool",
                    "name": "",
                    "type": "bool"
                }
            ],
            "stateMutability": "view",
            "type": "function"
        },
        {
            "inputs": [],
            "name": "lockContents",
            "outputs": [],
            "stateMutability": "nonpayable",
            "type": "function"
        },
        {
            "inputs": [],
            "name": "maxQtyOfMembers",
            "outputs": [
                {
                    "internalType": "uint32",
                    "name": "",
                    "type": "uint32"
                }
            ],
            "stateMutability": "view",
            "type": "function"
        },
        {
            "inputs": [],
            "name": "membersList",
            "outputs": [
                {
                    "internalType": "uint256[]",
                    "name": "",
                    "type": "uint256[]"
                }
            ],
            "stateMutability": "view",
            "type": "function"
        },
        {
            "inputs": [
                {
                    "internalType": "uint256",
                    "name": "acct",
                    "type": "uint256"
                }
            ],
            "name": "membersOfGroup",
            "outputs": [
                {
                    "internalType": "uint256[]",
                    "name": "",
                    "type": "uint256[]"
                }
            ],
            "stateMutability": "view",
            "type": "function"
        },
        {
            "inputs": [],
            "name": "ownersEquity",
            "outputs": [
                {
                    "components": [
                        {
                            "internalType": "uint48",
                            "name": "timestamp",
                            "type": "uint48"
                        },
                        {
                            "internalType": "uint64",
                            "name": "paid",
                            "type": "uint64"
                        },
                        {
                            "internalType": "uint64",
                            "name": "par",
                            "type": "uint64"
                        },
                        {
                            "internalType": "uint64",
                            "name": "cleanPaid",
                            "type": "uint64"
                        }
                    ],
                    "internalType": "struct Checkpoints.Checkpoint",
                    "name": "cap",
                    "type": "tuple"
                }
            ],
            "stateMutability": "view",
            "type": "function"
        },
        {
            "inputs": [],
            "name": "qtyOfGroups",
            "outputs": [
                {
                    "internalType": "uint256",
                    "name": "",
                    "type": "uint256"
                }
            ],
            "stateMutability": "view",
            "type": "function"
        },
        {
            "inputs": [],
            "name": "qtyOfMembers",
            "outputs": [
                {
                    "internalType": "uint32",
                    "name": "",
                    "type": "uint32"
                }
            ],
            "stateMutability": "view",
            "type": "function"
        },
        {
            "inputs": [
                {
                    "internalType": "uint256",
                    "name": "acct",
                    "type": "uint256"
                },
                {
                    "internalType": "uint256",
                    "name": "root",
                    "type": "uint256"
                }
            ],
            "name": "removeMemberFromGroup",
            "outputs": [],
            "stateMutability": "nonpayable",
            "type": "function"
        },
        {
            "inputs": [
                {
                    "components": [
                        {
                            "components": [
                                {
                                    "internalType": "uint32",
                                    "name": "seqOfShare",
                                    "type": "uint32"
                                },
                                {
                                    "internalType": "uint32",
                                    "name": "preSeq",
                                    "type": "uint32"
                                },
                                {
                                    "internalType": "uint16",
                                    "name": "class",
                                    "type": "uint16"
                                },
                                {
                                    "internalType": "uint48",
                                    "name": "issueDate",
                                    "type": "uint48"
                                },
                                {
                                    "internalType": "uint40",
                                    "name": "shareholder",
                                    "type": "uint40"
                                },
                                {
                                    "internalType": "uint32",
                                    "name": "price",
                                    "type": "uint32"
                                }
                            ],
                            "internalType": "struct SharesRepo.Head",
                            "name": "head",
                            "type": "tuple"
                        },
                        {
                            "components": [
                                {
                                    "internalType": "uint48",
                                    "name": "payInDeadline",
                                    "type": "uint48"
                                },
                                {
                                    "internalType": "uint64",
                                    "name": "paid",
                                    "type": "uint64"
                                },
                                {
                                    "internalType": "uint64",
                                    "name": "par",
                                    "type": "uint64"
                                },
                                {
                                    "internalType": "uint64",
                                    "name": "cleanPaid",
                                    "type": "uint64"
                                },
                                {
                                    "internalType": "uint8",
                                    "name": "state",
                                    "type": "uint8"
                                }
                            ],
                            "internalType": "struct SharesRepo.Body",
                            "name": "body",
                            "type": "tuple"
                        }
                    ],
                    "internalType": "struct SharesRepo.Share",
                    "name": "share",
                    "type": "tuple"
                }
            ],
            "name": "removeShareFromMember",
            "outputs": [],
            "stateMutability": "nonpayable",
            "type": "function"
        },
        {
            "inputs": [
                {
                    "internalType": "bytes32",
                    "name": "role",
                    "type": "bytes32"
                }
            ],
            "name": "renounceRole",
            "outputs": [],
            "stateMutability": "nonpayable",
            "type": "function"
        },
        {
            "inputs": [
                {
                    "internalType": "bytes32",
                    "name": "role",
                    "type": "bytes32"
                },
                {
                    "internalType": "uint256",
                    "name": "acct",
                    "type": "uint256"
                }
            ],
            "name": "revokeRole",
            "outputs": [],
            "stateMutability": "nonpayable",
            "type": "function"
        },
        {
            "inputs": [
                {
                    "internalType": "bool",
                    "name": "onPar",
                    "type": "bool"
                }
            ],
            "name": "setAmtBase",
            "outputs": [],
            "stateMutability": "nonpayable",
            "type": "function"
        },
        {
            "inputs": [
                {
                    "internalType": "address",
                    "name": "keeper",
                    "type": "address"
                }
            ],
            "name": "setDirectKeeper",
            "outputs": [],
            "stateMutability": "nonpayable",
            "type": "function"
        },
        {
            "inputs": [
                {
                    "internalType": "uint256",
                    "name": "acct",
                    "type": "uint256"
                }
            ],
            "name": "setGeneralCounsel",
            "outputs": [],
            "stateMutability": "nonpayable",
            "type": "function"
        },
        {
            "inputs": [
                {
                    "internalType": "uint32",
                    "name": "max",
                    "type": "uint32"
                }
            ],
            "name": "setMaxQtyOfMembers",
            "outputs": [],
            "stateMutability": "nonpayable",
            "type": "function"
        },
        {
            "inputs": [
                {
                    "internalType": "uint256",
                    "name": "acct",
                    "type": "uint256"
                }
            ],
            "name": "setOwner",
            "outputs": [],
            "stateMutability": "nonpayable",
            "type": "function"
        },
        {
            "inputs": [
                {
                    "internalType": "bytes32",
                    "name": "role",
                    "type": "bytes32"
                },
                {
                    "internalType": "uint256",
                    "name": "acct",
                    "type": "uint256"
                }
            ],
            "name": "setRoleAdmin",
            "outputs": [],
            "stateMutability": "nonpayable",
            "type": "function"
        },
        {
            "inputs": [
                {
                    "internalType": "bool",
                    "name": "onPar",
                    "type": "bool"
                }
            ],
            "name": "setVoteBase",
            "outputs": [],
            "stateMutability": "nonpayable",
            "type": "function"
        },
        {
            "inputs": [
                {
                    "internalType": "uint256",
                    "name": "acct",
                    "type": "uint256"
                }
            ],
            "name": "sharesClipOfMember",
            "outputs": [
                {
                    "components": [
                        {
                            "internalType": "uint48",
                            "name": "timestamp",
                            "type": "uint48"
                        },
                        {
                            "internalType": "uint64",
                            "name": "paid",
                            "type": "uint64"
                        },
                        {
                            "internalType": "uint64",
                            "name": "par",
                            "type": "uint64"
                        },
                        {
                            "internalType": "uint64",
                            "name": "cleanPaid",
                            "type": "uint64"
                        }
                    ],
                    "internalType": "struct Checkpoints.Checkpoint",
                    "name": "clip",
                    "type": "tuple"
                }
            ],
            "stateMutability": "view",
            "type": "function"
        },
        {
            "inputs": [
                {
                    "internalType": "uint256",
                    "name": "acct",
                    "type": "uint256"
                }
            ],
            "name": "sharesInHand",
            "outputs": [
                {
                    "internalType": "uint256[]",
                    "name": "list",
                    "type": "uint256[]"
                }
            ],
            "stateMutability": "view",
            "type": "function"
        },
        {
            "inputs": [],
            "name": "sharesList",
            "outputs": [
                {
                    "internalType": "uint256[]",
                    "name": "",
                    "type": "uint256[]"
                }
            ],
            "stateMutability": "view",
            "type": "function"
        },
        {
            "inputs": [],
            "name": "totalVotes",
            "outputs": [
                {
                    "internalType": "uint64",
                    "name": "",
                    "type": "uint64"
                }
            ],
            "stateMutability": "view",
            "type": "function"
        },
        {
            "inputs": [
                {
                    "internalType": "uint256",
                    "name": "acct",
                    "type": "uint256"
                },
                {
                    "internalType": "uint48",
                    "name": "date",
                    "type": "uint48"
                }
            ],
            "name": "votesAtDate",
            "outputs": [
                {
                    "internalType": "uint64",
                    "name": "",
                    "type": "uint64"
                }
            ],
            "stateMutability": "view",
            "type": "function"
        },
        {
            "inputs": [
                {
                    "internalType": "uint256",
                    "name": "acct",
                    "type": "uint256"
                }
            ],
            "name": "votesInHand",
            "outputs": [
                {
                    "internalType": "uint64",
                    "name": "",
                    "type": "uint64"
                }
            ],
            "stateMutability": "view",
            "type": "function"
        },
        {
            "inputs": [],
            "name": "votesOfController",
            "outputs": [
                {
                    "internalType": "uint64",
                    "name": "",
                    "type": "uint64"
                }
            ],
            "stateMutability": "view",
            "type": "function"
        },
        {
            "inputs": [
                {
                    "internalType": "uint256",
                    "name": "acct",
                    "type": "uint256"
                }
            ],
            "name": "votesOfGroup",
            "outputs": [
                {
                    "internalType": "uint64",
                    "name": "",
                    "type": "uint64"
                }
            ],
            "stateMutability": "view",
            "type": "function"
        }
    ],
    "bytecode": "608060405234801561001057600080fd5b50614565806100206000396000f3fe608060405234801561001057600080fd5b50600436106103275760003560e01c8063893d20e8116101b8578063c410c23a11610104578063dc890da9116100a2578063e4df91001161007c578063e4df910014610710578063e80bf90614610718578063ed2110231461072b578063f045a7691461074b57600080fd5b8063dc890da9146106e2578063dd5042f4146106f5578063dd8a18e9146106fd57600080fd5b8063d50c7377116100de578063d50c7377146106a1578063d7907a4f146106b4578063da6a43d6146106c7578063dc6599c5146106da57600080fd5b8063c410c23a14610665578063c70bc6731461067b578063cd27821e1461068e57600080fd5b80639c54297c11610171578063b3f05b971161014b578063b3f05b9714610622578063b966ac4514610637578063bdc36f621461063f578063c2d7616e1461065257600080fd5b80639c54297c146105e75780639f4fab2a146105fc578063a7ec068f1461060f57600080fd5b8063893d20e81461058b5780638bb9c5bf1461059357806396cfe114146105a657806398419928146105b95780639a09e43c146105c15780639a3ca24b146105d457600080fd5b80634bc8315f1161027757806368c1047b1161023057806372dd65291161020a57806372dd6529146104fe5780637e063c5a1461055d5780638041494e146105705780638170c3b91461058357600080fd5b806368c1047b146104c55780636be8496f146104d857806372cc64f9146104eb57600080fd5b80634bc8315f1461045e5780635171ebd41461047157806357f1929c146104845780635c34593414610497578063605c5ec6146104aa57806362ce0a28146104bd57600080fd5b80631b6ea9f9116102e45780633da9a600116102be5780633da9a6001461041d5780633f17cd451461043057806343eab73e146104385780634a14beb11461044b57600080fd5b80631b6ea9f9146103cd578063218668fa146103e05780632898436f1461040057600080fd5b806304f4b88d1461032c5780630787c777146103545780630d15fd7714610367578063103f6edd146103875780631089f5ed146103a557806319d61ad9146103ba575b600080fd5b61033f61033a366004613b27565b610753565b60405190151581526020015b60405180910390f35b61033f610362366004613b53565b6107f2565b61036f61088f565b6040516001600160401b03909116815260200161034b565b61038f61091a565b60405164ffffffffff909116815260200161034b565b6103b86103b3366004613b53565b6109a1565b005b6103b86103c8366004613b6c565b610dab565b6103b86103db366004613b6c565b610e3f565b6103f36103ee366004613b53565b610e64565b60405161034b9190613b8e565b610408610efb565b60405163ffffffff909116815260200161034b565b6103b861042b366004613b53565b610f82565b61036f611094565b6103f3610446366004613bd2565b611148565b6103b8610459366004613b53565b61118d565b61036f61046c366004613c01565b61137d565b6103b861047f366004613b6c565b611418565b61036f610492366004613b53565b61143d565b6103b86104a5366004613c43565b6114ca565b61038f6104b8366004613b53565b611615565b6103b86116a2565b61033f6104d3366004613b6c565b61177b565b6103b86104e6366004613c75565b611863565b6103b86104f9366004613ca7565b611915565b61051161050c366004613cd5565b611a8a565b60405161034b9190815165ffffffffffff1681526020808301516001600160401b0390811691830191909152604080840151821690830152606092830151169181019190915260800190565b61033f61056b366004613b6c565b611b67565b6103b861057e366004613b53565b611bb0565b6103f3611d95565b61038f611e48565b6103b86105a1366004613b53565b611e83565b6103b86105b4366004613d13565b611edc565b61038f61219d565b61033f6105cf366004613b53565b6121d8565b6103b86105e2366004613ca7565b61228c565b6105ef6123f9565b60405161034b9190613d6f565b6103b861060a366004613f41565b612483565b6103b861061d366004613ffc565b6126a7565b600354600160f01b900460ff1660021461033f565b61051161281c565b6103b861064d36600461402a565b6128eb565b61036f610660366004613b53565b612a44565b61066d612a90565b60405190815260200161034b565b610511610689366004613b53565b612b16565b61066d61069c366004613b53565b612bf3565b61033f6106af366004613b53565b612c80565b6103b86106c2366004613f41565b612cc2565b6103b86106d536600461402a565b612fa7565b610408613100565b6103b86106f0366004614047565b61313b565b6103f361321e565b6103b861070b366004613b6c565b613259565b61033f613565565b6103f3610726366004613b53565b6135eb565b6107336136ac565b6040516001600160a01b03909116815260200161034b565b6103b8613732565b60405163d1aa6a4f60e01b8152600560048201526024810183905261ffff8216604482015260009073__$b59f66f9b4972d644e41bc4977edb0d217$__9063d1aa6a4f906064015b60206040518083038186803b1580156107b357600080fd5b505af41580156107c7573d6000803e3d6000fd5b505050506040513d601f19601f820116820180604052508101906107eb919061408f565b9392505050565b60405163347f09bd60e11b81526005600482015260248101829052600090829073__$0373da85302df7c003c5cc5214782e6132$__906368fe137a9060440160206040518083038186803b15801561084957600080fd5b505af415801561085d573d6000803e3d6000fd5b505050506040513d601f19601f8201168201806040525081019061088191906140ac565b64ffffffffff161492915050565b604051630c86a02d60e11b81526005600482015260009073__$0373da85302df7c003c5cc5214782e6132$__9063190d405a9060240160206040518083038186803b1580156108dd57600080fd5b505af41580156108f1573d6000803e3d6000fd5b505050506040513d601f19601f8201168201806040525081019061091591906140c9565b905090565b60405163e8c0cc1d60e01b81526003600482015260009073__$364aad554dc80380f414546becdd2c1584$__9063e8c0cc1d906024015b60206040518083038186803b15801561096957600080fd5b505af415801561097d573d6000803e3d6000fd5b505050506040513d601f19601f8201168201806040525081019061091591906140ac565b60015460405163e0ff5b8b60e01b8152600660048201526001600160a01b039091169063e0ff5b8b9060240160206040518083038186803b1580156109e557600080fd5b505afa1580156109f9573d6000803e3d6000fd5b505050506040513d601f19601f82011682018060405250810190610a1d91906140e6565b6001600160a01b0316336001600160a01b031614610a565760405162461bcd60e51b8152600401610a4d90614103565b60405180910390fd5b604051633f0a2aed60e21b81526005600482015273__$0373da85302df7c003c5cc5214782e6132$__9063fc28abb49060240160206040518083038186803b158015610aa157600080fd5b505af4158015610ab5573d6000803e3d6000fd5b505050506040513d601f19601f82011682018060405250810190610ad99190614144565b604051636878e4e760e11b81526005600482015263ffffffff919091169073__$0373da85302df7c003c5cc5214782e6132$__9063d0f1c9ce9060240160206040518083038186803b158015610b2e57600080fd5b505af4158015610b42573d6000803e3d6000fd5b505050506040513d601f19601f82011682018060405250810190610b669190614144565b63ffffffff161080610bfe5750604051633f0a2aed60e21b81526005600482015273__$0373da85302df7c003c5cc5214782e6132$__9063fc28abb49060240160206040518083038186803b158015610bbe57600080fd5b505af4158015610bd2573d6000803e3d6000fd5b505050506040513d601f19601f82011682018060405250810190610bf69190614144565b63ffffffff16155b610c595760405162461bcd60e51b815260206004820152602660248201527f524f4d2e6164644d656d6265723a20517479206f66204d656d62657273206f766044820152656572666c6f7760d01b6064820152608401610a4d565b6040516324ac0fef60e11b8152600560048201526024810182905273__$0373da85302df7c003c5cc5214782e6132$__906349581fde9060440160206040518083038186803b158015610cab57600080fd5b505af4158015610cbf573d6000803e3d6000fd5b505050506040513d601f19601f82011682018060405250810190610ce3919061408f565b15610da857604051636878e4e760e11b81526005600482015281907f5659f1f96e42a4f1f64021a2123790ef443bf77ad9612c055b291db8d786cb099073__$0373da85302df7c003c5cc5214782e6132$__9063d0f1c9ce9060240160206040518083038186803b158015610d5757600080fd5b505af4158015610d6b573d6000803e3d6000fd5b505050506040513d601f19601f82011682018060405250810190610d8f9190614144565b60405163ffffffff909116815260200160405180910390a25b50565b73__$364aad554dc80380f414546becdd2c1584$__6382daafaa600384610dd0613950565b6040516001600160e01b031960e086901b1681526004810193909352602483019190915264ffffffffff166044820152606481018490526084015b60006040518083038186803b158015610e2357600080fd5b505af4158015610e37573d6000803e3d6000fd5b505050505050565b73__$364aad554dc80380f414546becdd2c1584$__636320d75e600384610dd0613950565b6040516222d07160e91b8152600560048201526024810182905260609073__$0373da85302df7c003c5cc5214782e6132$__906345a0e200906044015b60006040518083038186803b158015610eb957600080fd5b505af4158015610ecd573d6000803e3d6000fd5b505050506040513d6000823e601f3d908101601f19168201604052610ef59190810190614184565b92915050565b604051633f0a2aed60e21b81526005600482015260009073__$0373da85302df7c003c5cc5214782e6132$__9063fc28abb4906024015b60206040518083038186803b158015610f4a57600080fd5b505af4158015610f5e573d6000803e3d6000fd5b505050506040513d601f19601f820116820180604052508101906109159190614144565b604051633b11adbf60e21b81526003600482015233602482015273__$364aad554dc80380f414546becdd2c1584$__9063ec46b6fc9060440160206040518083038186803b158015610fd357600080fd5b505af4158015610fe7573d6000803e3d6000fd5b505050506040513d601f19601f8201168201806040525081019061100b919061408f565b6110275760405162461bcd60e51b8152600401610a4d90614219565b60405163cc99e11b60e01b8152600360048201526024810182905273__$364aad554dc80380f414546becdd2c1584$__9063cc99e11b9060440160006040518083038186803b15801561107957600080fd5b505af415801561108d573d6000803e3d6000fd5b5050505050565b60405163feeac47f60e01b815260056004820152600090819073__$0373da85302df7c003c5cc5214782e6132$__9063feeac47f9060240160206040518083038186803b1580156110e457600080fd5b505af41580156110f8573d6000803e3d6000fd5b505050506040513d601f19601f8201168201806040525081019061111c91906140ac565b64ffffffffff16600090815260056020526040902054600160b81b90046001600160401b031692915050565b6040516313a5f65760e11b81526005600482015261ffff8216602482015260609073__$b59f66f9b4972d644e41bc4977edb0d217$__9063274becae90604401610ea1565b604051633b11adbf60e21b81526003600482015233602482015273__$364aad554dc80380f414546becdd2c1584$__9063ec46b6fc9060440160206040518083038186803b1580156111de57600080fd5b505af41580156111f2573d6000803e3d6000fd5b505050506040513d601f19601f82011682018060405250810190611216919061408f565b806112bb575073__$364aad554dc80380f414546becdd2c1584$__63fe2710866003611240613950565b6040516001600160e01b031960e085901b168152600481019290925264ffffffffff16602482015260440160206040518083038186803b15801561128357600080fd5b505af4158015611297573d6000803e3d6000fd5b505050506040513d601f19601f820116820180604052508101906112bb919061408f565b6112d75760405162461bcd60e51b8152600401610a4d9061425f565b604051632725ebef60e21b8152600360048201526024810182905273__$364aad554dc80380f414546becdd2c1584$__90639c97afbc9060440160006040518083038186803b15801561132957600080fd5b505af415801561133d573d6000803e3d6000fd5b505050507ff2735f34b69be1e6342dea95f9162f84d0db925fab655ca9f1f312ac8cbfc99d8160405161137291815260200190565b60405180910390a150565b60405163677d3fed60e01b8152600560048201526024810183905265ffffffffffff8216604482015260009073__$b59f66f9b4972d644e41bc4977edb0d217$__9063677d3fed9060640160206040518083038186803b1580156113e057600080fd5b505af41580156113f4573d6000803e3d6000fd5b505050506040513d601f19601f820116820180604052508101906107eb91906140c9565b73__$364aad554dc80380f414546becdd2c1584$__63ee98b313600384610dd0613950565b604051630776f0c360e51b8152600560048201526024810182905260009073__$0373da85302df7c003c5cc5214782e6132$__9063eede18609060440160206040518083038186803b15801561149257600080fd5b505af41580156114a6573d6000803e3d6000fd5b505050506040513d601f19601f82011682018060405250810190610ef591906140c9565b604051633b11adbf60e21b81526003600482015233602482015273__$364aad554dc80380f414546becdd2c1584$__9063ec46b6fc9060440160206040518083038186803b15801561151b57600080fd5b505af415801561152f573d6000803e3d6000fd5b505050506040513d601f19601f82011682018060405250810190611553919061408f565b61156f5760405162461bcd60e51b8152600401610a4d90614219565b604051630f98e91f60e21b81526005600482015263ffffffff8216602482015273__$0373da85302df7c003c5cc5214782e6132$__90633e63a47c9060440160006040518083038186803b1580156115c657600080fd5b505af41580156115da573d6000803e3d6000fd5b505060405163ffffffff841681527f18e8d00bc10556942bceb0c67df6414a97338d9c493be45f20fe85a3391c034492506020019050611372565b60405163347f09bd60e11b8152600560048201526024810182905260009073__$0373da85302df7c003c5cc5214782e6132$__906368fe137a9060440160206040518083038186803b15801561166a57600080fd5b505af415801561167e573d6000803e3d6000fd5b505050506040513d601f19601f82011682018060405250810190610ef591906140ac565b60015460405163e0ff5b8b60e01b8152600660048201526001600160a01b039091169063e0ff5b8b9060240160206040518083038186803b1580156116e657600080fd5b505afa1580156116fa573d6000803e3d6000fd5b505050506040513d601f19601f8201168201806040525081019061171e91906140e6565b600280546001600160a01b03929092166001600160a01b031990921682179055604080516006815260208101929092527f6aa5e483fe137161b095cd68564a336d1657057f57987b1ae21019134dbc8da2910160405180910390a1565b60008261178781612c80565b6117a35760405162461bcd60e51b8152600401610a4d906142b5565b826117ad81612c80565b6117c95760405162461bcd60e51b8152600401610a4d906142b5565b60405163fd0f8c6560e01b815260056004820152602481018690526044810185905273__$0373da85302df7c003c5cc5214782e6132$__9063fd0f8c659060640160206040518083038186803b15801561182257600080fd5b505af4158015611836573d6000803e3d6000fd5b505050506040513d601f19601f8201168201806040525081019061185a919061408f565b95945050505050565b604051630f07232560e01b8152600360048201523360248201526001600160a01b038216604482015273__$364aad554dc80380f414546becdd2c1584$__90630f0723259060640160006040518083038186803b1580156118c357600080fd5b505af41580156118d7573d6000803e3d6000fd5b50506040516001600160a01b03841681527fe435cbeab64e4eae6497b9d8289704bd709d624a80704ef3ca9af777534bc6ec92506020019050611372565b60015460405163e0ff5b8b60e01b8152600660048201526001600160a01b039091169063e0ff5b8b9060240160206040518083038186803b15801561195957600080fd5b505afa15801561196d573d6000803e3d6000fd5b505050506040513d601f19601f8201168201806040525081019061199191906140e6565b6001600160a01b0316336001600160a01b0316146119c15760405162461bcd60e51b8152600401610a4d90614103565b604051628dc13760e51b8152600560048201526001600160401b038084166024830152821660448201526000606482015273__$b59f66f9b4972d644e41bc4977edb0d217$__906311b826e09060840160006040518083038186803b158015611a2957600080fd5b505af4158015611a3d573d6000803e3d6000fd5b5050604080516001600160401b038087168252851660208201527fc6861a64b8a09b2aee31f61ebd300160e6fe6a19a7e830e5f6f273b99aa2360b93500190505b60405180910390a15050565b60408051608081018252600080825260208201819052918101829052606081019190915260008052600660205260405163e8fce06b60e01b81527f54cdd369e4e8a8515e52ca72ec816c2101831ad1f18bf44102ed171459c9b4f8600482015265ffffffffffff8316602482015273__$9d89bb4a2fad48898c323b0a17741df93a$__9063e8fce06b9060440160806040518083038186803b158015611b2f57600080fd5b505af4158015611b43573d6000803e3d6000fd5b505050506040513d601f19601f82011682018060405250810190610ef591906142ec565b604051632a3be56b60e21b815260036004820152602481018390526044810182905260009073__$364aad554dc80380f414546becdd2c1584$__9063a8ef95ac9060640161079b565b604051633b11adbf60e21b81526003600482015233602482015273__$364aad554dc80380f414546becdd2c1584$__9063ec46b6fc9060440160206040518083038186803b158015611c0157600080fd5b505af4158015611c15573d6000803e3d6000fd5b505050506040513d601f19601f82011682018060405250810190611c39919061408f565b80611cde575073__$364aad554dc80380f414546becdd2c1584$__63fe2710866003611c63613950565b6040516001600160e01b031960e085901b168152600481019290925264ffffffffff16602482015260440160206040518083038186803b158015611ca657600080fd5b505af4158015611cba573d6000803e3d6000fd5b505050506040513d601f19601f82011682018060405250810190611cde919061408f565b611cfa5760405162461bcd60e51b8152600401610a4d9061425f565b60405163b6e38a2960e01b8152600360048201526024810182905273__$364aad554dc80380f414546becdd2c1584$__9063b6e38a299060440160006040518083038186803b158015611d4c57600080fd5b505af4158015611d60573d6000803e3d6000fd5b505050507f8b6f40f36b4ae8cc5f55e895036457c43da4ab1f80f58c46f5ff0d72a650033b8160405161137291815260200190565b60008052600660205260405163034306e160e21b81527f54cdd369e4e8a8515e52ca72ec816c2101831ad1f18bf44102ed171459c9b4f9600482015260609073__$8c1a4844a0a0988ea2454cf87145a95df1$__90630d0c1b84906024015b60006040518083038186803b158015611e0c57600080fd5b505af4158015611e20573d6000803e3d6000fd5b505050506040513d6000823e601f3d908101601f191682016040526109159190810190614184565b60405163987ad15360e01b81526003600482015260009073__$364aad554dc80380f414546becdd2c1584$__9063987ad15390602401610951565b6000611e8d613950565b60405163cc0d511b60e01b8152600360048201526024810184905264ffffffffff8216604482015290915073__$364aad554dc80380f414546becdd2c1584$__9063cc0d511b90606401610e0b565b60015460405163e0ff5b8b60e01b8152600660048201526001600160a01b039091169063e0ff5b8b9060240160206040518083038186803b158015611f2057600080fd5b505afa158015611f34573d6000803e3d6000fd5b505050506040513d601f19601f82011682018060405250810190611f5891906140e6565b6001600160a01b0316336001600160a01b031614611f885760405162461bcd60e51b8152600401610a4d90614103565b806120b35764ffffffffff841660009081526006602052604080822090516305ec572760e41b8152600481019190915273__$9d89bb4a2fad48898c323b0a17741df93a$__90635ec572709060240160806040518083038186803b158015611fef57600080fd5b505af4158015612003573d6000803e3d6000fd5b505050506040513d601f19601f8201168201806040525081019061202791906142ec565b9050836001600160401b031681602001516001600160401b0316101580156120655750826001600160401b031681604001516001600160401b031610155b6120b15760405162461bcd60e51b815260206004820181905260248201527f524f4d2e43414f4d3a2070616964206f7220706172206e6f7420656e6f7567686044820152606401610a4d565b505b604080516001600160401b0385811682528416602082015282151581830152905164ffffffffff8616917fb75922c4fa1fe23161046487099d13fe17adc0b8f482ca6168bb5631dc103f71919081900360600190a260405163232bbbdd60e01b81526005600482015264ffffffffff851660248201526001600160401b03808516604483015283166064820152811515608482015273__$b59f66f9b4972d644e41bc4977edb0d217$__9063232bbbdd9060a40160006040518083038186803b15801561217f57600080fd5b505af4158015612193573d6000803e3d6000fd5b5050505050505050565b60405163feeac47f60e01b81526005600482015260009073__$0373da85302df7c003c5cc5214782e6132$__9063feeac47f90602401610951565b60008080526006602052604051633f5f77cd60e01b81527f54cdd369e4e8a8515e52ca72ec816c2101831ad1f18bf44102ed171459c9b4f960048201526024810183905273__$8c1a4844a0a0988ea2454cf87145a95df1$__90633f5f77cd906044015b60206040518083038186803b15801561225457600080fd5b505af4158015612268573d6000803e3d6000fd5b505050506040513d601f19601f82011682018060405250810190610ef5919061408f565b60015460405163e0ff5b8b60e01b8152600660048201526001600160a01b039091169063e0ff5b8b9060240160206040518083038186803b1580156122d057600080fd5b505afa1580156122e4573d6000803e3d6000fd5b505050506040513d601f19601f8201168201806040525081019061230891906140e6565b6001600160a01b0316336001600160a01b0316146123385760405162461bcd60e51b8152600401610a4d90614103565b604051628dc13760e51b8152600560048201526001600160401b038084166024830152821660448201526001606482015273__$b59f66f9b4972d644e41bc4977edb0d217$__906311b826e09060840160006040518083038186803b1580156123a057600080fd5b505af41580156123b4573d6000803e3d6000fd5b5050604080516001600160401b038087168252851660208201527f0a14efe28272b5c25c09e98c3978ff1725a1c0e8e06d15885ec449e8083a3f7f9350019050611a7e565b60405163118158f560e11b81526005600482015260609073__$0373da85302df7c003c5cc5214782e6132$__90632302b1ea9060240160006040518083038186803b15801561244757600080fd5b505af415801561245b573d6000803e3d6000fd5b505050506040513d6000823e601f3d908101601f191682016040526109159190810190614370565b60015460405163e0ff5b8b60e01b8152600660048201526001600160a01b039091169063e0ff5b8b9060240160206040518083038186803b1580156124c757600080fd5b505afa1580156124db573d6000803e3d6000fd5b505050506040513d601f19601f820116820180604052508101906124ff91906140e6565b6001600160a01b0316336001600160a01b03161461252f5760405162461bcd60e51b8152600401610a4d90614103565b805160405163b16e8a7960e01b815273__$b59f66f9b4972d644e41bc4977edb0d217$__9163b16e8a799161256991600591600401614481565b60206040518083038186803b15801561258157600080fd5b505af4158015612595573d6000803e3d6000fd5b505050506040513d601f19601f820116820180604052508101906125b9919061408f565b15610da85780516080015160208083015190810151604091820151915163232bbbdd60e01b81526005600482015264ffffffffff90931660248401526001600160401b0390811660448401521660648201526001608482015273__$b59f66f9b4972d644e41bc4977edb0d217$__9063232bbbdd9060a40160006040518083038186803b15801561264957600080fd5b505af415801561265d573d6000803e3d6000fd5b505082516080810151905160405164ffffffffff909216935063ffffffff1691507fc98c10dfe7493f4a7f21b247e20c3a4c933cc9cce3b214216be7d766b1fd304190600090a350565b6001546040516335d2155560e11b81523360048201526001600160a01b0390911690636ba42aaa9060240160206040518083038186803b1580156126ea57600080fd5b505afa1580156126fe573d6000803e3d6000fd5b505050506040513d601f19601f82011682018060405250810190612722919061408f565b61273e5760405162461bcd60e51b8152600401610a4d906144eb565b604051630df234af60e21b81526005600482015264ffffffffff80841660248301528216604482015273__$0373da85302df7c003c5cc5214782e6132$__906337c8d2bc9060640160206040518083038186803b15801561279e57600080fd5b505af41580156127b2573d6000803e3d6000fd5b505050506040513d601f19601f820116820180604052508101906127d6919061408f565b15612818578064ffffffffff168264ffffffffff167fd875de446030922d882c407a7bcd6f5371d1b13efa74a8be2dacd22334d8846660405160405180910390a35b5050565b6040805160808101825260008082526020820181905291810182905260608101919091526000805260066020526040516305ec572760e41b81527f54cdd369e4e8a8515e52ca72ec816c2101831ad1f18bf44102ed171459c9b4f8600482015273__$9d89bb4a2fad48898c323b0a17741df93a$__90635ec572709060240160806040518083038186803b1580156128b357600080fd5b505af41580156128c7573d6000803e3d6000fd5b505050506040513d601f19601f8201168201806040525081019061091591906142ec565b6001546040516335d2155560e11b81523360048201526001600160a01b0390911690636ba42aaa9060240160206040518083038186803b15801561292e57600080fd5b505afa158015612942573d6000803e3d6000fd5b505050506040513d601f19601f82011682018060405250810190612966919061408f565b6129825760405162461bcd60e51b8152600401610a4d906144eb565b604051630d98f2af60e41b815260056004820152811515602482015273__$0373da85302df7c003c5cc5214782e6132$__9063d98f2af09060440160206040518083038186803b1580156129d557600080fd5b505af41580156129e9573d6000803e3d6000fd5b505050506040513d601f19601f82011682018060405250810190612a0d919061408f565b15610da85760405181151581527f0b1b96bce125700569e932050b6c2b3da7dabbe97241d19ff114400cb3546be890602001611372565b600081612a5081612c80565b612a6c5760405162461bcd60e51b8152600401610a4d906142b5565b5050600090815260056020526040902054600160781b90046001600160401b031690565b604051636c49485960e01b81526005600482015260009073__$0373da85302df7c003c5cc5214782e6132$__90636c4948599060240160206040518083038186803b158015612ade57600080fd5b505af4158015612af2573d6000803e3d6000fd5b505050506040513d601f19601f820116820180604052508101906109159190614516565b60408051608081018252600080825260208201819052918101829052606081019190915281612b4481612c80565b612b605760405162461bcd60e51b8152600401610a4d906142b5565b6000838152600660205260409081902090516305ec572760e41b8152600481019190915273__$9d89bb4a2fad48898c323b0a17741df93a$__90635ec572709060240160806040518083038186803b158015612bbb57600080fd5b505af4158015612bcf573d6000803e3d6000fd5b505050506040513d601f19601f820116820180604052508101906107eb91906142ec565b6040516312a6722f60e31b8152600560048201526024810182905260009073__$0373da85302df7c003c5cc5214782e6132$__9063953391789060440160206040518083038186803b158015612c4857600080fd5b505af4158015612c5c573d6000803e3d6000fd5b505050506040513d601f19601f82011682018060405250810190610ef59190614516565b604051630a4225b960e41b8152600560048201526024810182905260009073__$0373da85302df7c003c5cc5214782e6132$__9063a4225b909060440161223c565b60015460405163e0ff5b8b60e01b8152600660048201526001600160a01b039091169063e0ff5b8b9060240160206040518083038186803b158015612d0657600080fd5b505afa158015612d1a573d6000803e3d6000fd5b505050506040513d601f19601f82011682018060405250810190612d3e91906140e6565b6001600160a01b0316336001600160a01b031614612d6e5760405162461bcd60e51b8152600401610a4d90614103565b612d938160000151608001518260200151602001518360200151604001516000611edc565b8051604051631a5fec8b60e21b815273__$b59f66f9b4972d644e41bc4977edb0d217$__9163697fb22c91612dcd91600591600401614481565b60206040518083038186803b158015612de557600080fd5b505af4158015612df9573d6000803e3d6000fd5b505050506040513d601f19601f82011682018060405250810190612e1d919061408f565b15610da85780516080015164ffffffffff1660009081526006602052604090819020905163c2b46a8560e01b81526001909101600482015273__$8c1a4844a0a0988ea2454cf87145a95df1$__9063c2b46a859060240160206040518083038186803b158015612e8c57600080fd5b505af4158015612ea0573d6000803e3d6000fd5b505050506040513d601f19601f82011682018060405250810190612ec49190614516565b612f5f578051608001516040516238e36760e11b81526005600482015264ffffffffff909116602482015273__$b59f66f9b4972d644e41bc4977edb0d217$__906271c6ce9060440160206040518083038186803b158015612f2557600080fd5b505af4158015612f39573d6000803e3d6000fd5b505050506040513d601f19601f82011682018060405250810190612f5d919061408f565b505b80516080810151905160405164ffffffffff9092169163ffffffff909116907f9b8184045aa5752de9f9c7155b26141f222ac4abf9dd8fa634dbba785e2d8f1790600090a350565b6001546040516335d2155560e11b81523360048201526001600160a01b0390911690636ba42aaa9060240160206040518083038186803b158015612fea57600080fd5b505afa158015612ffe573d6000803e3d6000fd5b505050506040513d601f19601f82011682018060405250810190613022919061408f565b61303e5760405162461bcd60e51b8152600401610a4d906144eb565b6040516313f6237f60e01b815260056004820152811515602482015273__$b59f66f9b4972d644e41bc4977edb0d217$__906313f6237f9060440160206040518083038186803b15801561309157600080fd5b505af41580156130a5573d6000803e3d6000fd5b505050506040513d601f19601f820116820180604052508101906130c9919061408f565b15610da85760405181151581527f1e06c59992faf7c98f854af104dd450a2705f0e45c9bf4de8043c574c0079c1090602001611372565b604051636878e4e760e11b81526005600482015260009073__$0373da85302df7c003c5cc5214782e6132$__9063d0f1c9ce90602401610f32565b613144826139aa565b61314d81613a59565b604051636cdd0edf60e11b815260036004820152602481018590526001600160a01b038416604482015273__$364aad554dc80380f414546becdd2c1584$__9063d9ba1dbe9060640160006040518083038186803b1580156131ae57600080fd5b505af41580156131c2573d6000803e3d6000fd5b5050604080518781526001600160a01b038781166020830152868116828401528516606082015290517f3abb2418c66fe32ba9c883030a75ce583971d9af9192b9b74e44e67c5e6c8c1f9350908190036080019150a150505050565b604051632666ad2360e21b81526005600482015260609073__$0373da85302df7c003c5cc5214782e6132$__9063999ab48c90602401611df4565b6001546040516335d2155560e11b81523360048201526001600160a01b0390911690636ba42aaa9060240160206040518083038186803b15801561329c57600080fd5b505afa1580156132b0573d6000803e3d6000fd5b505050506040513d601f19601f820116820180604052508101906132d4919061408f565b6132f05760405162461bcd60e51b8152600401610a4d906144eb565b60405163347f09bd60e11b8152600560048201526024810183905273__$0373da85302df7c003c5cc5214782e6132$__906368fe137a9060440160206040518083038186803b15801561334257600080fd5b505af4158015613356573d6000803e3d6000fd5b505050506040513d601f19601f8201168201806040525081019061337a91906140ac565b64ffffffffff1681146133de5760405162461bcd60e51b815260206004820152602660248201527f524f4d2e524d46473a20526f6f74206973206e6f742067726f7570526570206f60448201526519881058d8dd60d21b6064820152608401610a4d565b60405163b110cd5b60e01b8152600560048201526024810183905260009073__$0373da85302df7c003c5cc5214782e6132$__9063b110cd5b9060440160206040518083038186803b15801561343357600080fd5b505af4158015613447573d6000803e3d6000fd5b505050506040513d601f19601f8201168201806040525081019061346b9190614516565b6040516305842a9b60e41b8152600560048201526024810185905290915073__$0373da85302df7c003c5cc5214782e6132$__90635842a9b09060440160206040518083038186803b1580156134c057600080fd5b505af41580156134d4573d6000803e3d6000fd5b505050506040513d601f19601f820116820180604052508101906134f8919061408f565b1561356057604051829084907f7f6e178e0d21cabade7232113cb77bf6fe6f1220aa7b5f8b37b6cff7387671ee90600090a38183141561356057604051819083907f15704695427fa23b834fbd6162af7c4ba7c47a6eebd02213f72cbb6cb65585a290600090a35b505050565b604051630f24363960e11b81526005600482015260009073__$0373da85302df7c003c5cc5214782e6132$__90631e486c729060240160206040518083038186803b1580156135b357600080fd5b505af41580156135c7573d6000803e3d6000fd5b505050506040513d601f19601f82011682018060405250810190610915919061408f565b6060816135f781612c80565b6136135760405162461bcd60e51b8152600401610a4d906142b5565b60008381526006602052604090819020905163034306e160e21b81526001909101600482015273__$8c1a4844a0a0988ea2454cf87145a95df1$__90630d0c1b849060240160006040518083038186803b15801561367057600080fd5b505af4158015613684573d6000803e3d6000fd5b505050506040513d6000823e601f3d908101601f191682016040526107eb9190810190614184565b604051633c3e56c160e11b81526003600482015260009073__$364aad554dc80380f414546becdd2c1584$__9063787cad829060240160206040518083038186803b1580156136fa57600080fd5b505af415801561370e573d6000803e3d6000fd5b505050506040513d601f19601f8201168201806040525081019061091591906140e6565b604051633b11adbf60e21b81526003600482015233602482015273__$364aad554dc80380f414546becdd2c1584$__9063ec46b6fc9060440160206040518083038186803b15801561378357600080fd5b505af4158015613797573d6000803e3d6000fd5b505050506040513d601f19601f820116820180604052508101906137bb919061408f565b6137d75760405162461bcd60e51b8152600401610a4d90614219565b600354600160f01b900460ff166001146138335760405162461bcd60e51b815260206004820181905260248201527f41432e6f6e6c7950656e64696e673a20446f632069732066696e616c697a65646044820152606401610a4d565b60405163cc99e11b60e01b815260036004820152684174746f726e65797360b81b602482015273__$364aad554dc80380f414546becdd2c1584$__9063cc99e11b9060440160006040518083038186803b15801561389057600080fd5b505af41580156138a4573d6000803e3d6000fd5b5050604051632725ebef60e21b8152600360048201526000602482015273__$364aad554dc80380f414546becdd2c1584$__9250639c97afbc915060440160006040518083038186803b1580156138fa57600080fd5b505af415801561390e573d6000803e3d6000fd5b50506003805460ff60f01b1916600160f11b17905550506040517f35012b512309c322acf68632cd6cb702ff0e1d776fbe9394e38ffc13b434fe7590600090a1565b60008054604051636ae3b70d60e11b81523360048201526001600160a01b039091169063d5c76e1a90602401602060405180830381600087803b15801561399657600080fd5b505af115801561097d573d6000803e3d6000fd5b6000546001600160a01b0316156139fb5760405162461bcd60e51b815260206004820152601560248201527430b63932b0b23c9039b2ba103932b3a1b2b73a32b960591b6044820152606401610a4d565b6040516001600160a01b03821681527f318da6c7624c71cbc0afe346c9d8827f119d0ecefb241a7b0c87217a076a8e029060200160405180910390a1600080546001600160a01b0319166001600160a01b0392909216919091179055565b6001546001600160a01b031615613ab25760405162461bcd60e51b815260206004820152601960248201527f616c7265616479207365742067656e6572616c4b6565706572000000000000006044820152606401610a4d565b6040516001600160a01b03821681527fe513d3e0f0d0a3877029dcc588748679a7a3450ec1ec7ed56d96bd012c3e61aa9060200160405180910390a1600180546001600160a01b0319166001600160a01b0392909216919091179055565b803561ffff81168114613b2257600080fd5b919050565b60008060408385031215613b3a57600080fd5b82359150613b4a60208401613b10565b90509250929050565b600060208284031215613b6557600080fd5b5035919050565b60008060408385031215613b7f57600080fd5b50508035926020909101359150565b6020808252825182820181905260009190848201906040850190845b81811015613bc657835183529284019291840191600101613baa565b50909695505050505050565b600060208284031215613be457600080fd5b6107eb82613b10565b65ffffffffffff81168114610da857600080fd5b60008060408385031215613c1457600080fd5b823591506020830135613c2681613bed565b809150509250929050565b63ffffffff81168114610da857600080fd5b600060208284031215613c5557600080fd5b81356107eb81613c31565b6001600160a01b0381168114610da857600080fd5b600060208284031215613c8757600080fd5b81356107eb81613c60565b6001600160401b0381168114610da857600080fd5b60008060408385031215613cba57600080fd5b8235613cc581613c92565b91506020830135613c2681613c92565b600060208284031215613ce757600080fd5b81356107eb81613bed565b64ffffffffff81168114610da857600080fd5b8015158114610da857600080fd5b60008060008060808587031215613d2957600080fd5b8435613d3481613cf2565b93506020850135613d4481613c92565b92506040850135613d5481613c92565b91506060850135613d6481613d05565b939692955090935050565b602080825282518282018190526000919060409081850190868401855b82811015613dfa578151805164ffffffffff9081168652878201518116888701528682015116868601526060808201516001600160401b03908116918701919091526080808301519091169086015260a09081015160ff169085015260c09093019290850190600101613d8c565b5091979650505050505050565b634e487b7160e01b600052604160045260246000fd5b604080519081016001600160401b0381118282101715613e3f57613e3f613e07565b60405290565b60405160c081016001600160401b0381118282101715613e3f57613e3f613e07565b604051601f8201601f191681016001600160401b0381118282101715613e8f57613e8f613e07565b604052919050565b60ff81168114610da857600080fd5b600060a08284031215613eb857600080fd5b60405160a081018181106001600160401b0382111715613eda57613eda613e07565b6040529050808235613eeb81613bed565b81526020830135613efb81613c92565b60208201526040830135613f0e81613c92565b60408201526060830135613f2181613c92565b60608201526080830135613f3481613e97565b6080919091015292915050565b6000818303610160811215613f5557600080fd5b613f5d613e1d565b60c0821215613f6b57600080fd5b613f73613e45565b91508335613f8081613c31565b82526020840135613f9081613c31565b6020830152613fa160408501613b10565b60408301526060840135613fb481613bed565b60608301526080840135613fc781613cf2565b608083015260a0840135613fda81613c31565b60a0830152818152613fef8560c08601613ea6565b6020820152949350505050565b6000806040838503121561400f57600080fd5b823561401a81613cf2565b91506020830135613c2681613cf2565b60006020828403121561403c57600080fd5b81356107eb81613d05565b6000806000806080858703121561405d57600080fd5b84359350602085013561406f81613c60565b9250604085013561407f81613c60565b91506060850135613d6481613c60565b6000602082840312156140a157600080fd5b81516107eb81613d05565b6000602082840312156140be57600080fd5b81516107eb81613cf2565b6000602082840312156140db57600080fd5b81516107eb81613c92565b6000602082840312156140f857600080fd5b81516107eb81613c60565b60208082526021908201527f524f4d2e6f6e6c79424f533a206d736753656e646572206973206e6f7420424f6040820152605360f81b606082015260800190565b60006020828403121561415657600080fd5b81516107eb81613c31565b60006001600160401b0382111561417a5761417a613e07565b5060051b60200190565b6000602080838503121561419757600080fd5b82516001600160401b038111156141ad57600080fd5b8301601f810185136141be57600080fd5b80516141d16141cc82614161565b613e67565b81815260059190911b820183019083810190878311156141f057600080fd5b928401925b8284101561420e578351825292840192908401906141f5565b979650505050505050565b60208082526026908201527f41432e6f6e6c794469726563744b65657065723a206e6f74206469726563742060408201526535b2b2b832b960d11b606082015260800190565b60208082526036908201527f41432e6f776e65724f72446972656374426f6f6b65657065723a206e6569746860408201527532b91037bbb732b9103737b9103137b7b5b2b2b832b960511b606082015260800190565b6020808252601b908201527f524f4d2e6d656d62657245786973743a204e4f54204d656d6265720000000000604082015260600190565b6000608082840312156142fe57600080fd5b604051608081018181106001600160401b038211171561432057614320613e07565b604052825161432e81613bed565b8152602083015161433e81613c92565b6020820152604083015161435181613c92565b6040820152606083015161436481613c92565b60608201529392505050565b6000602080838503121561438357600080fd5b82516001600160401b0381111561439957600080fd5b8301601f810185136143aa57600080fd5b80516143b86141cc82614161565b81815260c091820283018401918482019190888411156143d757600080fd5b938501935b838510156144755780858a0312156143f45760008081fd5b6143fc613e45565b855161440781613cf2565b81528587015161441681613cf2565b8188015260408681015161442981613cf2565b9082015260608681015161443c81613c92565b9082015260808681015161444f81613c92565b9082015260a08681015161446281613e97565b90820152835293840193918501916143dc565b50979650505050505050565b600060e08201905083825263ffffffff80845116602084015280602085015116604084015261ffff604085015116606084015265ffffffffffff606085015116608084015264ffffffffff60808501511660a08401528060a08501511660c0840152509392505050565b60208082526011908201527020a19737b59d103737ba1025b2b2b832b960791b604082015260600190565b60006020828403121561452857600080fd5b505191905056fea26469706673582212206f2b2ab02977e20e15d5d6ba298e51d4cd0506ed1983e3ca2e7b4a127498f09d64736f6c63430008080033",
    "sourcePath": "/Users/kaptain/github.com/hardhat/comboox/contracts/books/rom/RegisterOfMembers.sol",
    "compiler": {
        "name": "solc",
        "version": "0.8.8+commit.dddeac2f"
    },
    "functionHashes": {
        "abandonRole(bytes32)": "3da9a600",
        "addMember(uint256)": "1089f5ed",
        "addMemberToGroup(uint40,uint40)": "a7ec068f",
        "addShareToMember(((uint32,uint32,uint16,uint48,uint40,uint32),(uint48,uint64,uint64,uint64,uint8)))": "9f4fab2a",
        "affiliated(uint256,uint256)": "68c1047b",
        "basedOnPar()": "e4df9100",
        "capAtDate(uint48)": "72dd6529",
        "capDecrease(uint64,uint64)": "72cc64f9",
        "capIncrease(uint64,uint64)": "9a3ca24b",
        "changeAmtOfMember(uint40,uint64,uint64,bool)": "96cfe114",
        "controllor()": "98419928",
        "deepOfGroup(uint256)": "cd27821e",
        "finalized()": "b3f05b97",
        "getBookeeper()": "ed211023",
        "getGeneralCounsel()": "103f6edd",
        "getMembersOfClass(uint16)": "43eab73e",
        "getOwner()": "893d20e8",
        "getSnapshot()": "9c54297c",
        "grantRole(bytes32,uint256)": "1b6ea9f9",
        "groupRep(uint256)": "605c5ec6",
        "hasRole(bytes32,uint256)": "7e063c5a",
        "init(uint256,address,address,address)": "dc890da9",
        "initBOS()": "62ce0a28",
        "isClassMember(uint256,uint16)": "04f4b88d",
        "isGroupRep(uint256)": "0787c777",
        "isMember(uint256)": "d50c7377",
        "isSeqOfShare(uint256)": "9a09e43c",
        "lockContents()": "f045a769",
        "maxQtyOfMembers()": "2898436f",
        "membersList()": "dd5042f4",
        "membersOfGroup(uint256)": "218668fa",
        "ownersEquity()": "b966ac45",
        "qtyOfGroups()": "c410c23a",
        "qtyOfMembers()": "dc6599c5",
        "removeMemberFromGroup(uint256,uint256)": "dd8a18e9",
        "removeShareFromMember(((uint32,uint32,uint16,uint48,uint40,uint32),(uint48,uint64,uint64,uint64,uint8)))": "d7907a4f",
        "renounceRole(bytes32)": "8bb9c5bf",
        "revokeRole(bytes32,uint256)": "19d61ad9",
        "setAmtBase(bool)": "da6a43d6",
        "setDirectKeeper(address)": "6be8496f",
        "setGeneralCounsel(uint256)": "4a14beb1",
        "setMaxQtyOfMembers(uint32)": "5c345934",
        "setOwner(uint256)": "8041494e",
        "setRoleAdmin(bytes32,uint256)": "5171ebd4",
        "setVoteBase(bool)": "bdc36f62",
        "sharesClipOfMember(uint256)": "c70bc673",
        "sharesInHand(uint256)": "e80bf906",
        "sharesList()": "8170c3b9",
        "totalVotes()": "0d15fd77",
        "votesAtDate(uint256,uint48)": "4bc8315f",
        "votesInHand(uint256)": "c2d7616e",
        "votesOfController()": "3f17cd45",
        "votesOfGroup(uint256)": "57f1929c"
    },
    "gasEstimates": {
        "creation": {
            "codeDepositCost": "3553000",
            "executionCost": "3990",
            "totalCost": "3556990"
        },
        "external": {
            "abandonRole(bytes32)": "infinite",
            "addMember(uint256)": "infinite",
            "addMemberToGroup(uint40,uint40)": "infinite",
            "addShareToMember(((uint32,uint32,uint16,uint48,uint40,uint32),(uint48,uint64,uint64,uint64,uint8)))": "infinite",
            "affiliated(uint256,uint256)": "infinite",
            "basedOnPar()": "infinite",
            "capAtDate(uint48)": "infinite",
            "capDecrease(uint64,uint64)": "infinite",
            "capIncrease(uint64,uint64)": "infinite",
            "changeAmtOfMember(uint40,uint64,uint64,bool)": "infinite",
            "controllor()": "infinite",
            "deepOfGroup(uint256)": "infinite",
            "finalized()": "2383",
            "getBookeeper()": "infinite",
            "getGeneralCounsel()": "infinite",
            "getMembersOfClass(uint16)": "infinite",
            "getOwner()": "infinite",
            "getSnapshot()": "infinite",
            "grantRole(bytes32,uint256)": "infinite",
            "groupRep(uint256)": "infinite",
            "hasRole(bytes32,uint256)": "infinite",
            "init(uint256,address,address,address)": "infinite",
            "initBOS()": "infinite",
            "isClassMember(uint256,uint16)": "infinite",
            "isGroupRep(uint256)": "infinite",
            "isMember(uint256)": "infinite",
            "isSeqOfShare(uint256)": "infinite",
            "lockContents()": "infinite",
            "maxQtyOfMembers()": "infinite",
            "membersList()": "infinite",
            "membersOfGroup(uint256)": "infinite",
            "ownersEquity()": "infinite",
            "qtyOfGroups()": "infinite",
            "qtyOfMembers()": "infinite",
            "removeMemberFromGroup(uint256,uint256)": "infinite",
            "removeShareFromMember(((uint32,uint32,uint16,uint48,uint40,uint32),(uint48,uint64,uint64,uint64,uint8)))": "infinite",
            "renounceRole(bytes32)": "infinite",
            "revokeRole(bytes32,uint256)": "infinite",
            "setAmtBase(bool)": "infinite",
            "setDirectKeeper(address)": "infinite",
            "setGeneralCounsel(uint256)": "infinite",
            "setMaxQtyOfMembers(uint32)": "infinite",
            "setOwner(uint256)": "infinite",
            "setRoleAdmin(bytes32,uint256)": "infinite",
            "setVoteBase(bool)": "infinite",
            "sharesClipOfMember(uint256)": "infinite",
            "sharesInHand(uint256)": "infinite",
            "sharesList()": "infinite",
            "totalVotes()": "infinite",
            "votesAtDate(uint256,uint48)": "infinite",
            "votesInHand(uint256)": "infinite",
            "votesOfController()": "infinite",
            "votesOfGroup(uint256)": "infinite"
        }
    }
}