{
    "contractName": "RegisterOfMembers",
    "abi": [
        {
            "anonymous": false,
            "inputs": [
                {
                    "indexed": true,
                    "internalType": "uint40",
                    "name": "acct",
                    "type": "uint40"
                },
                {
                    "indexed": false,
                    "internalType": "uint32",
                    "name": "qtyOfMembers",
                    "type": "uint32"
                }
            ],
            "name": "AddMember",
            "type": "event"
        },
        {
            "anonymous": false,
            "inputs": [
                {
                    "indexed": true,
                    "internalType": "uint40",
                    "name": "acct",
                    "type": "uint40"
                },
                {
                    "indexed": true,
                    "internalType": "uint40",
                    "name": "root",
                    "type": "uint40"
                }
            ],
            "name": "AddMemberToGroup",
            "type": "event"
        },
        {
            "anonymous": false,
            "inputs": [
                {
                    "indexed": true,
                    "internalType": "bytes32",
                    "name": "sharenumber",
                    "type": "bytes32"
                },
                {
                    "indexed": true,
                    "internalType": "uint40",
                    "name": "acct",
                    "type": "uint40"
                }
            ],
            "name": "AddShareToMember",
            "type": "event"
        },
        {
            "anonymous": false,
            "inputs": [
                {
                    "indexed": false,
                    "internalType": "uint64",
                    "name": "paid",
                    "type": "uint64"
                },
                {
                    "indexed": false,
                    "internalType": "uint64",
                    "name": "par",
                    "type": "uint64"
                },
                {
                    "indexed": false,
                    "internalType": "uint64",
                    "name": "blocknumber",
                    "type": "uint64"
                }
            ],
            "name": "CapDecrease",
            "type": "event"
        },
        {
            "anonymous": false,
            "inputs": [
                {
                    "indexed": false,
                    "internalType": "uint64",
                    "name": "paid",
                    "type": "uint64"
                },
                {
                    "indexed": false,
                    "internalType": "uint64",
                    "name": "par",
                    "type": "uint64"
                },
                {
                    "indexed": false,
                    "internalType": "uint64",
                    "name": "blocknumber",
                    "type": "uint64"
                }
            ],
            "name": "CapIncrease",
            "type": "event"
        },
        {
            "anonymous": false,
            "inputs": [
                {
                    "indexed": true,
                    "internalType": "uint40",
                    "name": "acct",
                    "type": "uint40"
                },
                {
                    "indexed": false,
                    "internalType": "uint64",
                    "name": "paid",
                    "type": "uint64"
                },
                {
                    "indexed": false,
                    "internalType": "uint64",
                    "name": "par",
                    "type": "uint64"
                },
                {
                    "indexed": false,
                    "internalType": "bool",
                    "name": "increase",
                    "type": "bool"
                },
                {
                    "indexed": false,
                    "internalType": "uint64",
                    "name": "blocknumber",
                    "type": "uint64"
                }
            ],
            "name": "ChangeAmtOfMember",
            "type": "event"
        },
        {
            "anonymous": false,
            "inputs": [
                {
                    "indexed": true,
                    "internalType": "uint40",
                    "name": "orgRep",
                    "type": "uint40"
                },
                {
                    "indexed": true,
                    "internalType": "uint40",
                    "name": "newRep",
                    "type": "uint40"
                }
            ],
            "name": "ChangeGroupRep",
            "type": "event"
        },
        {
            "anonymous": false,
            "inputs": [
                {
                    "indexed": true,
                    "internalType": "uint40",
                    "name": "acct",
                    "type": "uint40"
                },
                {
                    "indexed": false,
                    "internalType": "uint64",
                    "name": "paid",
                    "type": "uint64"
                },
                {
                    "indexed": false,
                    "internalType": "uint64",
                    "name": "par",
                    "type": "uint64"
                },
                {
                    "indexed": false,
                    "internalType": "uint64",
                    "name": "blocknumber",
                    "type": "uint64"
                }
            ],
            "name": "DecreaseAmountFromMember",
            "type": "event"
        },
        {
            "anonymous": false,
            "inputs": [
                {
                    "indexed": false,
                    "internalType": "uint40",
                    "name": "owner",
                    "type": "uint40"
                },
                {
                    "indexed": false,
                    "internalType": "address",
                    "name": "directKeeper",
                    "type": "address"
                },
                {
                    "indexed": false,
                    "internalType": "address",
                    "name": "regCenter",
                    "type": "address"
                },
                {
                    "indexed": false,
                    "internalType": "address",
                    "name": "generalKeeper",
                    "type": "address"
                }
            ],
            "name": "Init",
            "type": "event"
        },
        {
            "anonymous": false,
            "inputs": [],
            "name": "LockContents",
            "type": "event"
        },
        {
            "anonymous": false,
            "inputs": [
                {
                    "indexed": true,
                    "internalType": "uint40",
                    "name": "acct",
                    "type": "uint40"
                },
                {
                    "indexed": false,
                    "internalType": "uint32",
                    "name": "qtyOfMembers",
                    "type": "uint32"
                }
            ],
            "name": "RemoveMember",
            "type": "event"
        },
        {
            "anonymous": false,
            "inputs": [
                {
                    "indexed": true,
                    "internalType": "uint40",
                    "name": "acct",
                    "type": "uint40"
                },
                {
                    "indexed": true,
                    "internalType": "uint40",
                    "name": "root",
                    "type": "uint40"
                }
            ],
            "name": "RemoveMemberFromGroup",
            "type": "event"
        },
        {
            "anonymous": false,
            "inputs": [
                {
                    "indexed": true,
                    "internalType": "bytes32",
                    "name": "sn",
                    "type": "bytes32"
                },
                {
                    "indexed": true,
                    "internalType": "uint40",
                    "name": "acct",
                    "type": "uint40"
                }
            ],
            "name": "RemoveShareFromMember",
            "type": "event"
        },
        {
            "anonymous": false,
            "inputs": [
                {
                    "indexed": false,
                    "internalType": "bool",
                    "name": "basedOnPar",
                    "type": "bool"
                }
            ],
            "name": "SetAmtBase",
            "type": "event"
        },
        {
            "anonymous": false,
            "inputs": [
                {
                    "indexed": false,
                    "internalType": "address",
                    "name": "keeper",
                    "type": "address"
                }
            ],
            "name": "SetDirectKeeper",
            "type": "event"
        },
        {
            "anonymous": false,
            "inputs": [
                {
                    "indexed": false,
                    "internalType": "uint256",
                    "name": "acct",
                    "type": "uint256"
                }
            ],
            "name": "SetGeneralCounsel",
            "type": "event"
        },
        {
            "anonymous": false,
            "inputs": [
                {
                    "indexed": false,
                    "internalType": "address",
                    "name": "gk",
                    "type": "address"
                }
            ],
            "name": "SetGeneralKeeper",
            "type": "event"
        },
        {
            "anonymous": false,
            "inputs": [
                {
                    "indexed": false,
                    "internalType": "uint8",
                    "name": "max",
                    "type": "uint8"
                }
            ],
            "name": "SetMaxQtyOfMembers",
            "type": "event"
        },
        {
            "anonymous": false,
            "inputs": [
                {
                    "indexed": false,
                    "internalType": "uint256",
                    "name": "acct",
                    "type": "uint256"
                }
            ],
            "name": "SetOwner",
            "type": "event"
        },
        {
            "anonymous": false,
            "inputs": [
                {
                    "indexed": false,
                    "internalType": "address",
                    "name": "rc",
                    "type": "address"
                }
            ],
            "name": "SetRegCenter",
            "type": "event"
        },
        {
            "anonymous": false,
            "inputs": [
                {
                    "indexed": false,
                    "internalType": "bool",
                    "name": "basedOnPar",
                    "type": "bool"
                }
            ],
            "name": "SetVoteBase",
            "type": "event"
        },
        {
            "inputs": [
                {
                    "internalType": "bytes32",
                    "name": "role",
                    "type": "bytes32"
                }
            ],
            "name": "abandonRole",
            "outputs": [],
            "stateMutability": "nonpayable",
            "type": "function"
        },
        {
            "inputs": [
                {
                    "internalType": "uint40",
                    "name": "acct",
                    "type": "uint40"
                }
            ],
            "name": "addMember",
            "outputs": [],
            "stateMutability": "nonpayable",
            "type": "function"
        },
        {
            "inputs": [
                {
                    "internalType": "uint40",
                    "name": "acct",
                    "type": "uint40"
                },
                {
                    "internalType": "uint40",
                    "name": "root",
                    "type": "uint40"
                }
            ],
            "name": "addMemberToGroup",
            "outputs": [],
            "stateMutability": "nonpayable",
            "type": "function"
        },
        {
            "inputs": [
                {
                    "internalType": "uint32",
                    "name": "ssn",
                    "type": "uint32"
                },
                {
                    "internalType": "uint40",
                    "name": "acct",
                    "type": "uint40"
                }
            ],
            "name": "addShareToMember",
            "outputs": [],
            "stateMutability": "nonpayable",
            "type": "function"
        },
        {
            "inputs": [
                {
                    "internalType": "uint40",
                    "name": "acct1",
                    "type": "uint40"
                },
                {
                    "internalType": "uint40",
                    "name": "acct2",
                    "type": "uint40"
                }
            ],
            "name": "affiliated",
            "outputs": [
                {
                    "internalType": "bool",
                    "name": "",
                    "type": "bool"
                }
            ],
            "stateMutability": "view",
            "type": "function"
        },
        {
            "inputs": [],
            "name": "basedOnPar",
            "outputs": [
                {
                    "internalType": "bool",
                    "name": "",
                    "type": "bool"
                }
            ],
            "stateMutability": "view",
            "type": "function"
        },
        {
            "inputs": [
                {
                    "internalType": "uint48",
                    "name": "date",
                    "type": "uint48"
                }
            ],
            "name": "capAtDate",
            "outputs": [
                {
                    "internalType": "uint64",
                    "name": "paid",
                    "type": "uint64"
                },
                {
                    "internalType": "uint64",
                    "name": "par",
                    "type": "uint64"
                }
            ],
            "stateMutability": "view",
            "type": "function"
        },
        {
            "inputs": [
                {
                    "internalType": "uint64",
                    "name": "paid",
                    "type": "uint64"
                },
                {
                    "internalType": "uint64",
                    "name": "par",
                    "type": "uint64"
                }
            ],
            "name": "capDecrease",
            "outputs": [],
            "stateMutability": "nonpayable",
            "type": "function"
        },
        {
            "inputs": [
                {
                    "internalType": "uint64",
                    "name": "paid",
                    "type": "uint64"
                },
                {
                    "internalType": "uint64",
                    "name": "par",
                    "type": "uint64"
                }
            ],
            "name": "capIncrease",
            "outputs": [],
            "stateMutability": "nonpayable",
            "type": "function"
        },
        {
            "inputs": [
                {
                    "internalType": "uint40",
                    "name": "acct",
                    "type": "uint40"
                },
                {
                    "internalType": "uint64",
                    "name": "deltaPaid",
                    "type": "uint64"
                },
                {
                    "internalType": "uint64",
                    "name": "deltaPar",
                    "type": "uint64"
                },
                {
                    "internalType": "bool",
                    "name": "increase",
                    "type": "bool"
                }
            ],
            "name": "changeAmtOfMember",
            "outputs": [],
            "stateMutability": "nonpayable",
            "type": "function"
        },
        {
            "inputs": [],
            "name": "controllor",
            "outputs": [
                {
                    "internalType": "uint40",
                    "name": "",
                    "type": "uint40"
                }
            ],
            "stateMutability": "view",
            "type": "function"
        },
        {
            "inputs": [
                {
                    "internalType": "uint40",
                    "name": "acct",
                    "type": "uint40"
                }
            ],
            "name": "deepOfGroup",
            "outputs": [
                {
                    "internalType": "uint32",
                    "name": "",
                    "type": "uint32"
                }
            ],
            "stateMutability": "view",
            "type": "function"
        },
        {
            "inputs": [],
            "name": "finalized",
            "outputs": [
                {
                    "internalType": "bool",
                    "name": "",
                    "type": "bool"
                }
            ],
            "stateMutability": "view",
            "type": "function"
        },
        {
            "inputs": [],
            "name": "getBOS",
            "outputs": [
                {
                    "internalType": "contract IBookOfShares",
                    "name": "_bos",
                    "type": "address"
                }
            ],
            "stateMutability": "view",
            "type": "function"
        },
        {
            "inputs": [],
            "name": "getBookeeper",
            "outputs": [
                {
                    "internalType": "address",
                    "name": "",
                    "type": "address"
                }
            ],
            "stateMutability": "view",
            "type": "function"
        },
        {
            "inputs": [],
            "name": "getGeneralCounsel",
            "outputs": [
                {
                    "internalType": "uint40",
                    "name": "",
                    "type": "uint40"
                }
            ],
            "stateMutability": "view",
            "type": "function"
        },
        {
            "inputs": [],
            "name": "getOwner",
            "outputs": [
                {
                    "internalType": "uint40",
                    "name": "",
                    "type": "uint40"
                }
            ],
            "stateMutability": "view",
            "type": "function"
        },
        {
            "inputs": [],
            "name": "getSnapshot",
            "outputs": [
                {
                    "components": [
                        {
                            "internalType": "uint40",
                            "name": "prev",
                            "type": "uint40"
                        },
                        {
                            "internalType": "uint40",
                            "name": "next",
                            "type": "uint40"
                        },
                        {
                            "internalType": "uint40",
                            "name": "ptr",
                            "type": "uint40"
                        },
                        {
                            "internalType": "uint64",
                            "name": "amt",
                            "type": "uint64"
                        },
                        {
                            "internalType": "uint64",
                            "name": "sum",
                            "type": "uint64"
                        },
                        {
                            "internalType": "uint8",
                            "name": "cat",
                            "type": "uint8"
                        }
                    ],
                    "internalType": "struct TopChain.Node[]",
                    "name": "",
                    "type": "tuple[]"
                }
            ],
            "stateMutability": "view",
            "type": "function"
        },
        {
            "inputs": [
                {
                    "internalType": "bytes32",
                    "name": "role",
                    "type": "bytes32"
                },
                {
                    "internalType": "uint40",
                    "name": "acct",
                    "type": "uint40"
                }
            ],
            "name": "grantRole",
            "outputs": [],
            "stateMutability": "nonpayable",
            "type": "function"
        },
        {
            "inputs": [
                {
                    "internalType": "uint40",
                    "name": "acct",
                    "type": "uint40"
                }
            ],
            "name": "groupRep",
            "outputs": [
                {
                    "internalType": "uint40",
                    "name": "",
                    "type": "uint40"
                }
            ],
            "stateMutability": "view",
            "type": "function"
        },
        {
            "inputs": [
                {
                    "internalType": "bytes32",
                    "name": "role",
                    "type": "bytes32"
                },
                {
                    "internalType": "uint40",
                    "name": "acct",
                    "type": "uint40"
                }
            ],
            "name": "hasRole",
            "outputs": [
                {
                    "internalType": "bool",
                    "name": "",
                    "type": "bool"
                }
            ],
            "stateMutability": "view",
            "type": "function"
        },
        {
            "inputs": [
                {
                    "internalType": "uint40",
                    "name": "owner",
                    "type": "uint40"
                },
                {
                    "internalType": "address",
                    "name": "directKeeper",
                    "type": "address"
                },
                {
                    "internalType": "address",
                    "name": "regCenter",
                    "type": "address"
                },
                {
                    "internalType": "address",
                    "name": "generalKeeper",
                    "type": "address"
                }
            ],
            "name": "init",
            "outputs": [],
            "stateMutability": "nonpayable",
            "type": "function"
        },
        {
            "inputs": [
                {
                    "internalType": "uint40",
                    "name": "acct",
                    "type": "uint40"
                }
            ],
            "name": "isGroupRep",
            "outputs": [
                {
                    "internalType": "bool",
                    "name": "",
                    "type": "bool"
                }
            ],
            "stateMutability": "view",
            "type": "function"
        },
        {
            "inputs": [
                {
                    "internalType": "uint40",
                    "name": "acct",
                    "type": "uint40"
                }
            ],
            "name": "isMember",
            "outputs": [
                {
                    "internalType": "bool",
                    "name": "",
                    "type": "bool"
                }
            ],
            "stateMutability": "view",
            "type": "function"
        },
        {
            "inputs": [
                {
                    "internalType": "bytes32",
                    "name": "sharenumber",
                    "type": "bytes32"
                }
            ],
            "name": "isShareNumber",
            "outputs": [
                {
                    "internalType": "bool",
                    "name": "",
                    "type": "bool"
                }
            ],
            "stateMutability": "view",
            "type": "function"
        },
        {
            "inputs": [],
            "name": "lockContents",
            "outputs": [],
            "stateMutability": "nonpayable",
            "type": "function"
        },
        {
            "inputs": [],
            "name": "maxQtyOfMembers",
            "outputs": [
                {
                    "internalType": "uint32",
                    "name": "",
                    "type": "uint32"
                }
            ],
            "stateMutability": "view",
            "type": "function"
        },
        {
            "inputs": [],
            "name": "membersList",
            "outputs": [
                {
                    "internalType": "uint40[]",
                    "name": "",
                    "type": "uint40[]"
                }
            ],
            "stateMutability": "view",
            "type": "function"
        },
        {
            "inputs": [
                {
                    "internalType": "uint40",
                    "name": "acct",
                    "type": "uint40"
                }
            ],
            "name": "membersOfGroup",
            "outputs": [
                {
                    "internalType": "uint40[]",
                    "name": "",
                    "type": "uint40[]"
                }
            ],
            "stateMutability": "view",
            "type": "function"
        },
        {
            "inputs": [],
            "name": "paidCap",
            "outputs": [
                {
                    "internalType": "uint64",
                    "name": "",
                    "type": "uint64"
                }
            ],
            "stateMutability": "view",
            "type": "function"
        },
        {
            "inputs": [
                {
                    "internalType": "uint40",
                    "name": "acct",
                    "type": "uint40"
                }
            ],
            "name": "paidOfMember",
            "outputs": [
                {
                    "internalType": "uint64",
                    "name": "paid",
                    "type": "uint64"
                }
            ],
            "stateMutability": "view",
            "type": "function"
        },
        {
            "inputs": [],
            "name": "parCap",
            "outputs": [
                {
                    "internalType": "uint64",
                    "name": "",
                    "type": "uint64"
                }
            ],
            "stateMutability": "view",
            "type": "function"
        },
        {
            "inputs": [
                {
                    "internalType": "uint40",
                    "name": "acct",
                    "type": "uint40"
                }
            ],
            "name": "parOfMember",
            "outputs": [
                {
                    "internalType": "uint64",
                    "name": "par",
                    "type": "uint64"
                }
            ],
            "stateMutability": "view",
            "type": "function"
        },
        {
            "inputs": [],
            "name": "qtyOfGroups",
            "outputs": [
                {
                    "internalType": "uint32",
                    "name": "",
                    "type": "uint32"
                }
            ],
            "stateMutability": "view",
            "type": "function"
        },
        {
            "inputs": [],
            "name": "qtyOfMembers",
            "outputs": [
                {
                    "internalType": "uint32",
                    "name": "",
                    "type": "uint32"
                }
            ],
            "stateMutability": "view",
            "type": "function"
        },
        {
            "inputs": [
                {
                    "internalType": "uint40",
                    "name": "acct",
                    "type": "uint40"
                },
                {
                    "internalType": "uint40",
                    "name": "root",
                    "type": "uint40"
                }
            ],
            "name": "removeMemberFromGroup",
            "outputs": [],
            "stateMutability": "nonpayable",
            "type": "function"
        },
        {
            "inputs": [
                {
                    "internalType": "uint32",
                    "name": "ssn",
                    "type": "uint32"
                },
                {
                    "internalType": "uint40",
                    "name": "acct",
                    "type": "uint40"
                }
            ],
            "name": "removeShareFromMember",
            "outputs": [],
            "stateMutability": "nonpayable",
            "type": "function"
        },
        {
            "inputs": [
                {
                    "internalType": "bytes32",
                    "name": "role",
                    "type": "bytes32"
                }
            ],
            "name": "renounceRole",
            "outputs": [],
            "stateMutability": "nonpayable",
            "type": "function"
        },
        {
            "inputs": [
                {
                    "internalType": "bytes32",
                    "name": "role",
                    "type": "bytes32"
                },
                {
                    "internalType": "uint40",
                    "name": "acct",
                    "type": "uint40"
                }
            ],
            "name": "revokeRole",
            "outputs": [],
            "stateMutability": "nonpayable",
            "type": "function"
        },
        {
            "inputs": [
                {
                    "internalType": "bool",
                    "name": "onPar",
                    "type": "bool"
                }
            ],
            "name": "setAmtBase",
            "outputs": [],
            "stateMutability": "nonpayable",
            "type": "function"
        },
        {
            "inputs": [
                {
                    "internalType": "address",
                    "name": "keeper",
                    "type": "address"
                }
            ],
            "name": "setDirectKeeper",
            "outputs": [],
            "stateMutability": "nonpayable",
            "type": "function"
        },
        {
            "inputs": [
                {
                    "internalType": "uint40",
                    "name": "acct",
                    "type": "uint40"
                }
            ],
            "name": "setGeneralCounsel",
            "outputs": [],
            "stateMutability": "nonpayable",
            "type": "function"
        },
        {
            "inputs": [
                {
                    "internalType": "uint8",
                    "name": "max",
                    "type": "uint8"
                }
            ],
            "name": "setMaxQtyOfMembers",
            "outputs": [],
            "stateMutability": "nonpayable",
            "type": "function"
        },
        {
            "inputs": [
                {
                    "internalType": "uint40",
                    "name": "acct",
                    "type": "uint40"
                }
            ],
            "name": "setOwner",
            "outputs": [],
            "stateMutability": "nonpayable",
            "type": "function"
        },
        {
            "inputs": [
                {
                    "internalType": "bytes32",
                    "name": "role",
                    "type": "bytes32"
                },
                {
                    "internalType": "uint40",
                    "name": "acct",
                    "type": "uint40"
                }
            ],
            "name": "setRoleAdmin",
            "outputs": [],
            "stateMutability": "nonpayable",
            "type": "function"
        },
        {
            "inputs": [
                {
                    "internalType": "bool",
                    "name": "onPar",
                    "type": "bool"
                }
            ],
            "name": "setVoteBase",
            "outputs": [],
            "stateMutability": "nonpayable",
            "type": "function"
        },
        {
            "inputs": [
                {
                    "internalType": "uint40",
                    "name": "acct",
                    "type": "uint40"
                }
            ],
            "name": "sharesInHand",
            "outputs": [
                {
                    "internalType": "bytes32[]",
                    "name": "",
                    "type": "bytes32[]"
                }
            ],
            "stateMutability": "view",
            "type": "function"
        },
        {
            "inputs": [],
            "name": "sharesList",
            "outputs": [
                {
                    "internalType": "bytes32[]",
                    "name": "",
                    "type": "bytes32[]"
                }
            ],
            "stateMutability": "view",
            "type": "function"
        },
        {
            "inputs": [],
            "name": "totalVotes",
            "outputs": [
                {
                    "internalType": "uint64",
                    "name": "",
                    "type": "uint64"
                }
            ],
            "stateMutability": "view",
            "type": "function"
        },
        {
            "inputs": [
                {
                    "internalType": "uint256",
                    "name": "acct",
                    "type": "uint256"
                },
                {
                    "internalType": "uint48",
                    "name": "date",
                    "type": "uint48"
                }
            ],
            "name": "votesAtDate",
            "outputs": [
                {
                    "internalType": "uint64",
                    "name": "",
                    "type": "uint64"
                }
            ],
            "stateMutability": "view",
            "type": "function"
        },
        {
            "inputs": [
                {
                    "internalType": "uint40",
                    "name": "acct",
                    "type": "uint40"
                }
            ],
            "name": "votesInHand",
            "outputs": [
                {
                    "internalType": "uint64",
                    "name": "",
                    "type": "uint64"
                }
            ],
            "stateMutability": "view",
            "type": "function"
        },
        {
            "inputs": [],
            "name": "votesOfController",
            "outputs": [
                {
                    "internalType": "uint64",
                    "name": "",
                    "type": "uint64"
                }
            ],
            "stateMutability": "view",
            "type": "function"
        },
        {
            "inputs": [
                {
                    "internalType": "uint40",
                    "name": "acct",
                    "type": "uint40"
                }
            ],
            "name": "votesOfGroup",
            "outputs": [
                {
                    "internalType": "uint64",
                    "name": "",
                    "type": "uint64"
                }
            ],
            "stateMutability": "view",
            "type": "function"
        }
    ],
    "bytecode": "608060405234801561001057600080fd5b506144f4806100206000396000f3fe608060405234801561001057600080fd5b50600436106103275760003560e01c806379b2ec12116101b8578063a7ec068f11610104578063dc6599c5116100a2578063eb8b90bb1161007c578063eb8b90bb146106d7578063ed211023146106ea578063f01e100f1461070a578063f045a7691461071257600080fd5b8063dc6599c5146106bf578063dd5042f4146106c7578063e4df9100146106cf57600080fd5b8063c410c23a116100de578063c410c23a1461067e578063c5916f4b14610686578063d40622d214610699578063da6a43d6146106ac57600080fd5b8063a7ec068f14610644578063b3f05b9714610657578063bdc36f621461066b57600080fd5b80638bb9c5bf11610171578063984199281161014b57806398419928146106015780639a3ca24b146106095780639c54297c1461061c578063a03510c51461063157600080fd5b80638bb9c5bf146105d3578063930afdd2146105e657806396cfe114146105ee57600080fd5b806379b2ec12146105775780637ba706e81461058a5780637c0d7a901461059d5780638170c3b9146105b0578063821ee8ea146105b8578063893d20e8146105cb57600080fd5b806347569cc4116102775780636be8496f1161023057806372cc64f91161020a57806372cc64f91461050b57806372dd65291461051e57806374099815146105515780637573aad41461056457600080fd5b80636be8496f146104c55780636f57aaad146104d85780637276c101146104f857600080fd5b806347569cc41461045e57806347686cf2146104715780634bc8315f146104845780634ce57ba31461049757806363492374146104aa5780636bdc3730146104b257600080fd5b80632898436f116102e45780633da9a600116102be5780633da9a600146104105780633e1b11fa146104235780633e211006146104365780633f17cd451461045657600080fd5b80632898436f146103cd578063296f687b146103ea5780633178a9a9146103fd57600080fd5b80630d15fd771461032c5780631022489b14610351578063103f6edd1461036657806316dc517e1461038457806317c51fec1461039757806325d112b2146103aa575b600080fd5b61033461071a565b6040516001600160401b0390911681526020015b60405180910390f35b61036461035f366004613b71565b6107a5565b005b61036e6108f9565b60405164ffffffffff9091168152602001610348565b610364610392366004613ba1565b610980565b6103646103a5366004613ba1565b610a16565b6103bd6103b8366004613bd1565b610a3b565b6040519015158152602001610348565b6103d5610ad4565b60405163ffffffff9091168152602001610348565b6103646103f8366004613bd1565b610b5a565b61036461040b366004613bd1565b610f63565b61036461041e366004613bee565b611155565b610334610431366004613bd1565b611267565b610449610444366004613bd1565b6112f9565b6040516103489190613c07565b6103346113bb565b6103d561046c366004613bd1565b6113f5565b61036e61047f366004613bd1565b611487565b610334610492366004613c5f565b611519565b6103bd6104a5366004613bee565b6115b4565b6103346115f5565b6103646104c0366004613c96565b61162f565b6103646104d3366004613cd9565b6118f8565b6104eb6104e6366004613bd1565b6119aa565b6040516103489190613cf6565b610364610506366004613d35565b611a40565b610364610519366004613d68565b611da4565b61053161052c366004613d96565b611f51565b604080516001600160401b03938416815292909116602083015201610348565b61036461055f366004613ba1565b611fee565b610334610572366004613bd1565b612013565b6103bd610585366004613ba1565b612091565b610364610598366004613bd1565b61212b565b6103346105ab366004613bd1565b61231d565b610449612389565b6103646105c6366004613db3565b612412565b61036e612502565b6103646105e1366004613bee565b61253d565b610334612596565b6103646105fc366004613e1d565b6125d0565b61036e6129af565b610364610617366004613d68565b6129e9565b610624612b8d565b6040516103489190613e6e565b61036461063f366004613c96565b612c16565b610364610652366004613d35565b612f5e565b60028054600160f01b900460ff16146103bd565b610364610679366004613f06565b6130d2565b6103d561322a565b6103bd610694366004613bd1565b613264565b6103346106a7366004613bd1565b6132ab565b6103646106ba366004613f06565b613317565b6103d561346f565b6104eb6134a9565b6103bd613532565b6103bd6106e5366004613d35565b6135b7565b6106f26136a5565b6040516001600160a01b039091168152602001610348565b6106f261372b565b610364613784565b60405163396db24960e21b815260048082015260009073__$b59f66f9b4972d644e41bc4977edb0d217$__9063e5b6c924906024015b60206040518083038186803b15801561076857600080fd5b505af415801561077c573d6000803e3d6000fd5b505050506040513d601f19601f820116820180604052508101906107a09190613f23565b905090565b604051633b11adbf60e21b81526002600482015233602482015273__$364aad554dc80380f414546becdd2c1584$__9063ec46b6fc9060440160206040518083038186803b1580156107f657600080fd5b505af415801561080a573d6000803e3d6000fd5b505050506040513d601f19601f8201168201806040525081019061082e9190613f40565b6108535760405162461bcd60e51b815260040161084a90613f5d565b60405180910390fd5b6040516367a99ae160e11b815260048082015260ff8216602482015273__$b59f66f9b4972d644e41bc4977edb0d217$__9063cf5335c29060440160006040518083038186803b1580156108a657600080fd5b505af41580156108ba573d6000803e3d6000fd5b505060405160ff841681527fbb351d06f255e16d990e5244b88f41001dfdfd37dd4d4f050e410d6c65bef52f925060200190505b60405180910390a150565b60405163e8c0cc1d60e01b81526002600482015260009073__$364aad554dc80380f414546becdd2c1584$__9063e8c0cc1d906024015b60206040518083038186803b15801561094857600080fd5b505af415801561095c573d6000803e3d6000fd5b505050506040513d601f19601f820116820180604052508101906107a09190613fa3565b73__$364aad554dc80380f414546becdd2c1584$__63427abff46002846109a56139a2565b6040516001600160e01b031960e086901b1681526004810193909352602483019190915264ffffffffff9081166044830152841660648201526084015b60006040518083038186803b1580156109fa57600080fd5b505af4158015610a0e573d6000803e3d6000fd5b505050505050565b73__$364aad554dc80380f414546becdd2c1584$__638ce158456002846109a56139a2565b6040516355d3f86560e11b815260048082015264ffffffffff8216602482015260009073__$b59f66f9b4972d644e41bc4977edb0d217$__9063aba7f0ca906044015b60206040518083038186803b158015610a9657600080fd5b505af4158015610aaa573d6000803e3d6000fd5b505050506040513d601f19601f82011682018060405250810190610ace9190613f40565b92915050565b60405163b10d4aaf60e01b815260048082015260009073__$b59f66f9b4972d644e41bc4977edb0d217$__9063b10d4aaf906024015b60206040518083038186803b158015610b2257600080fd5b505af4158015610b36573d6000803e3d6000fd5b505050506040513d601f19601f820116820180604052508101906107a09190613fc0565b60015460405163381baea360e21b8152600660048201526001600160a01b039091169063e06eba8c9060240160206040518083038186803b158015610b9e57600080fd5b505afa158015610bb2573d6000803e3d6000fd5b505050506040513d601f19601f82011682018060405250810190610bd69190613fdd565b6001600160a01b0316336001600160a01b031614610c065760405162461bcd60e51b815260040161084a90613ffa565b60405163b10d4aaf60e01b815260048082015273__$b59f66f9b4972d644e41bc4977edb0d217$__9063b10d4aaf9060240160206040518083038186803b158015610c5057600080fd5b505af4158015610c64573d6000803e3d6000fd5b505050506040513d601f19601f82011682018060405250810190610c889190613fc0565b604051635f5eed2960e11b815260048181015263ffffffff919091169073__$b59f66f9b4972d644e41bc4977edb0d217$__9063bebdda529060240160206040518083038186803b158015610cdc57600080fd5b505af4158015610cf0573d6000803e3d6000fd5b505050506040513d601f19601f82011682018060405250810190610d149190613fc0565b63ffffffff161080610dab575060405163b10d4aaf60e01b815260048082015273__$b59f66f9b4972d644e41bc4977edb0d217$__9063b10d4aaf9060240160206040518083038186803b158015610d6b57600080fd5b505af4158015610d7f573d6000803e3d6000fd5b505050506040513d601f19601f82011682018060405250810190610da39190613fc0565b63ffffffff16155b610e065760405162461bcd60e51b815260206004820152602660248201527f524f4d2e6164644d656d6265723a20517479206f66204d656d62657273206f766044820152656572666c6f7760d01b606482015260840161084a565b6040516307fd405960e11b815260048082015264ffffffffff8216602482015273__$b59f66f9b4972d644e41bc4977edb0d217$__90630ffa80b29060440160206040518083038186803b158015610e5d57600080fd5b505af4158015610e71573d6000803e3d6000fd5b505050506040513d601f19601f82011682018060405250810190610e959190613f40565b15610f6057604051635f5eed2960e11b815260048082015264ffffffffff8216907f3bb602f821c087967ddc0b76fc3c4cab1661aec51b0fb7b17e97583dfaf44efc9073__$b59f66f9b4972d644e41bc4977edb0d217$__9063bebdda529060240160206040518083038186803b158015610f0f57600080fd5b505af4158015610f23573d6000803e3d6000fd5b505050506040513d601f19601f82011682018060405250810190610f479190613fc0565b60405163ffffffff909116815260200160405180910390a25b50565b604051633b11adbf60e21b81526002600482015233602482015273__$364aad554dc80380f414546becdd2c1584$__9063ec46b6fc9060440160206040518083038186803b158015610fb457600080fd5b505af4158015610fc8573d6000803e3d6000fd5b505050506040513d601f19601f82011682018060405250810190610fec9190613f40565b80611091575073__$364aad554dc80380f414546becdd2c1584$__63fe27108660026110166139a2565b6040516001600160e01b031960e085901b168152600481019290925264ffffffffff16602482015260440160206040518083038186803b15801561105957600080fd5b505af415801561106d573d6000803e3d6000fd5b505050506040513d601f19601f820116820180604052508101906110919190613f40565b6110ad5760405162461bcd60e51b815260040161084a9061403b565b604051632725ebef60e21b81526002600482015264ffffffffff8216602482015273__$364aad554dc80380f414546becdd2c1584$__90639c97afbc9060440160006040518083038186803b15801561110557600080fd5b505af4158015611119573d6000803e3d6000fd5b505060405164ffffffffff841681527ff2735f34b69be1e6342dea95f9162f84d0db925fab655ca9f1f312ac8cbfc99d925060200190506108ee565b604051633b11adbf60e21b81526002600482015233602482015273__$364aad554dc80380f414546becdd2c1584$__9063ec46b6fc9060440160206040518083038186803b1580156111a657600080fd5b505af41580156111ba573d6000803e3d6000fd5b505050506040513d601f19601f820116820180604052508101906111de9190613f40565b6111fa5760405162461bcd60e51b815260040161084a90613f5d565b60405163cc99e11b60e01b8152600260048201526024810182905273__$364aad554dc80380f414546becdd2c1584$__9063cc99e11b9060440160006040518083038186803b15801561124c57600080fd5b505af4158015611260573d6000803e3d6000fd5b5050505050565b604051634c694de960e01b815260048082015264ffffffffff8216602482015260009073__$b59f66f9b4972d644e41bc4977edb0d217$__90634c694de99060440160206040518083038186803b1580156112c157600080fd5b505af41580156112d5573d6000803e3d6000fd5b505050506040513d601f19601f82011682018060405250810190610ace9190613f23565b60608161130581613264565b6113215760405162461bcd60e51b815260040161084a90614091565b6040516347ae69ff60e11b815260048082015264ffffffffff8416602482015273__$b59f66f9b4972d644e41bc4977edb0d217$__90638f5cd3fe9060440160006040518083038186803b15801561137857600080fd5b505af415801561138c573d6000803e3d6000fd5b505050506040513d6000823e601f3d908101601f191682016040526113b49190810190614159565b9392505050565b604051639c9a670f60e01b815260048082015260009073__$b59f66f9b4972d644e41bc4977edb0d217$__90639c9a670f90602401610750565b604051631f6939eb60e21b815260048082015264ffffffffff8216602482015260009073__$b59f66f9b4972d644e41bc4977edb0d217$__90637da4e7ac9060440160206040518083038186803b15801561144f57600080fd5b505af4158015611463573d6000803e3d6000fd5b505050506040513d601f19601f82011682018060405250810190610ace9190613fc0565b6040516313cc9ec160e21b815260048082015264ffffffffff8216602482015260009073__$b59f66f9b4972d644e41bc4977edb0d217$__90634f327b049060440160206040518083038186803b1580156114e157600080fd5b505af41580156114f5573d6000803e3d6000fd5b505050506040513d601f19601f82011682018060405250810190610ace9190613fa3565b60405163fc5bc27560e01b81526004808201526024810183905265ffffffffffff8216604482015260009073__$b59f66f9b4972d644e41bc4977edb0d217$__9063fc5bc275906064015b60206040518083038186803b15801561157c57600080fd5b505af4158015611590573d6000803e3d6000fd5b505050506040513d601f19601f820116820180604052508101906113b49190613f23565b6040516305e93d3b60e41b81526004808201526024810182905260009073__$b59f66f9b4972d644e41bc4977edb0d217$__90635e93d3b090604401610a7e565b6040516372e42c9b60e01b815260048082015260009073__$b59f66f9b4972d644e41bc4977edb0d217$__906372e42c9b90602401610750565b60015460405163381baea360e21b8152600660048201526001600160a01b039091169063e06eba8c9060240160206040518083038186803b15801561167357600080fd5b505afa158015611687573d6000803e3d6000fd5b505050506040513d601f19601f820116820180604052508101906116ab9190613fdd565b6001600160a01b0316336001600160a01b0316146116db5760405162461bcd60e51b815260040161084a90613ffa565b60006116e561372b565b6040516352aadfd760e01b815263ffffffff851660048201526001600160a01b0391909116906352aadfd79060240160c06040518083038186803b15801561172c57600080fd5b505afa158015611740573d6000803e3d6000fd5b505050506040513d601f19601f8201168201806040525081019061176491906141ee565b805160405163293995ab60e11b8152600480820152602481019190915264ffffffffff8416604482015290915073__$b59f66f9b4972d644e41bc4977edb0d217$__906352732b569060640160206040518083038186803b1580156117c857600080fd5b505af41580156117dc573d6000803e3d6000fd5b505050506040513d601f19601f820116820180604052508101906118009190613f40565b156118f357602081015160408083015190516396be611b60e01b815260048082015264ffffffffff851660248201526001600160401b039283166044820152911660648201526001608482015273__$b59f66f9b4972d644e41bc4977edb0d217$__906396be611b9060a40160206040518083038186803b15801561188457600080fd5b505af4158015611898573d6000803e3d6000fd5b505050506040513d601f19601f820116820180604052508101906118bc919061428f565b50805160405164ffffffffff841691907fc77f6f0fd395aaf1f80bb2dad784d3d8013b9a3e5a19a487530d38e28a59f87990600090a35b505050565b604051630f07232560e01b8152600260048201523360248201526001600160a01b038216604482015273__$364aad554dc80380f414546becdd2c1584$__90630f0723259060640160006040518083038186803b15801561195857600080fd5b505af415801561196c573d6000803e3d6000fd5b50506040516001600160a01b03841681527fe435cbeab64e4eae6497b9d8289704bd709d624a80704ef3ca9af777534bc6ec925060200190506108ee565b604051633c82496360e11b815260048082015264ffffffffff8216602482015260609073__$b59f66f9b4972d644e41bc4977edb0d217$__9063790492c69060440160006040518083038186803b158015611a0457600080fd5b505af4158015611a18573d6000803e3d6000fd5b505050506040513d6000823e601f3d908101601f19168201604052610ace91908101906142ac565b6001546040516335d2155560e11b81523360048201526001600160a01b0390911690636ba42aaa9060240160206040518083038186803b158015611a8357600080fd5b505afa158015611a97573d6000803e3d6000fd5b505050506040513d601f19601f82011682018060405250810190611abb9190613f40565b611ad75760405162461bcd60e51b815260040161084a9061433a565b6040516313cc9ec160e21b815260048082015264ffffffffff8316602482015273__$b59f66f9b4972d644e41bc4977edb0d217$__90634f327b049060440160206040518083038186803b158015611b2e57600080fd5b505af4158015611b42573d6000803e3d6000fd5b505050506040513d601f19601f82011682018060405250810190611b669190613fa3565b64ffffffffff168164ffffffffff1614611be85760405162461bcd60e51b815260206004820152603760248201527f424f532e72656d6f76654d656d62657246726f6d47726f75703a20526f6f742060448201527f6973206e6f742067726f7570526570206f662041636374000000000000000000606482015260840161084a565b60405163a9ae027160e01b815260048082015264ffffffffff8316602482015260009073__$b59f66f9b4972d644e41bc4977edb0d217$__9063a9ae02719060440160206040518083038186803b158015611c4257600080fd5b505af4158015611c56573d6000803e3d6000fd5b505050506040513d601f19601f82011682018060405250810190611c7a9190613fa3565b604051634ab224df60e11b815260048082015264ffffffffff8516602482015290915073__$b59f66f9b4972d644e41bc4977edb0d217$__9063956449be9060440160206040518083038186803b158015611cd457600080fd5b505af4158015611ce8573d6000803e3d6000fd5b505050506040513d601f19601f82011682018060405250810190611d0c9190613f40565b156118f3578164ffffffffff168364ffffffffff167f97e5722a7d71ae913aa936dea2954fedfbbd51adb128649131686f38c7ceac9e60405160405180910390a38164ffffffffff168364ffffffffff1614156118f3578064ffffffffff168264ffffffffff167fbfafe08f29352d5c17ceff4491e2d806c8500c8721d5de49df5b41870666218260405160405180910390a3505050565b60015460405163381baea360e21b8152600660048201526001600160a01b039091169063e06eba8c9060240160206040518083038186803b158015611de857600080fd5b505afa158015611dfc573d6000803e3d6000fd5b505050506040513d601f19601f82011682018060405250810190611e209190613fdd565b6001600160a01b0316336001600160a01b031614611e505760405162461bcd60e51b815260040161084a90613ffa565b604051638998361160e01b81526004808201526001600160401b038084166024830152821660448201526000606482018190529073__$b59f66f9b4972d644e41bc4977edb0d217$__9063899836119060840160206040518083038186803b158015611ebb57600080fd5b505af4158015611ecf573d6000803e3d6000fd5b505050506040513d601f19601f82011682018060405250810190611ef3919061428f565b604080516001600160401b0380871682528516602082015265ffffffffffff9290921690820181905291507f6e0c74e0e4c238ad72470269eb20ec0d38bb947e82f79025f7341295bb3623e7906060015b60405180910390a1505050565b60405163f1993c5960e01b815260048082015265ffffffffffff82166024820152600090819073__$b59f66f9b4972d644e41bc4977edb0d217$__9063f1993c5990604401604080518083038186803b158015611fad57600080fd5b505af4158015611fc1573d6000803e3d6000fd5b505050506040513d601f19601f82011682018060405250810190611fe59190614365565b91509150915091565b73__$364aad554dc80380f414546becdd2c1584$__63d2a15ba76002846109a56139a2565b60008161201f81613264565b61203b5760405162461bcd60e51b815260040161084a90614091565b60405162cc52b760e41b815260048082015264ffffffffff8416602482015273__$b59f66f9b4972d644e41bc4977edb0d217$__90630cc52b709060440160206040518083038186803b15801561157c57600080fd5b604051632a3be56b60e21b8152600260048201526024810183905264ffffffffff8216604482015260009073__$364aad554dc80380f414546becdd2c1584$__9063a8ef95ac9060640160206040518083038186803b1580156120f357600080fd5b505af4158015612107573d6000803e3d6000fd5b505050506040513d601f19601f820116820180604052508101906113b49190613f40565b604051633b11adbf60e21b81526002600482015233602482015273__$364aad554dc80380f414546becdd2c1584$__9063ec46b6fc9060440160206040518083038186803b15801561217c57600080fd5b505af4158015612190573d6000803e3d6000fd5b505050506040513d601f19601f820116820180604052508101906121b49190613f40565b80612259575073__$364aad554dc80380f414546becdd2c1584$__63fe27108660026121de6139a2565b6040516001600160e01b031960e085901b168152600481019290925264ffffffffff16602482015260440160206040518083038186803b15801561222157600080fd5b505af4158015612235573d6000803e3d6000fd5b505050506040513d601f19601f820116820180604052508101906122599190613f40565b6122755760405162461bcd60e51b815260040161084a9061403b565b60405163b6e38a2960e01b81526002600482015264ffffffffff8216602482015273__$364aad554dc80380f414546becdd2c1584$__9063b6e38a299060440160006040518083038186803b1580156122cd57600080fd5b505af41580156122e1573d6000803e3d6000fd5b505060405164ffffffffff841681527f8b6f40f36b4ae8cc5f55e895036457c43da4ab1f80f58c46f5ff0d72a650033b925060200190506108ee565b60008161232981613264565b6123455760405162461bcd60e51b815260040161084a90614091565b604051631bbc4b4960e21b815260048082015264ffffffffff8416602482015273__$b59f66f9b4972d644e41bc4977edb0d217$__90636ef12d2490604401611564565b60405163069f587760e31b815260048082015260609073__$b59f66f9b4972d644e41bc4977edb0d217$__906334fac3b89060240160006040518083038186803b1580156123d657600080fd5b505af41580156123ea573d6000803e3d6000fd5b505050506040513d6000823e601f3d908101601f191682016040526107a09190810190614159565b61241b826139fc565b61242481613aab565b604051636cdd0edf60e11b81526002600482015264ffffffffff851660248201526001600160a01b038416604482015273__$364aad554dc80380f414546becdd2c1584$__9063d9ba1dbe9060640160006040518083038186803b15801561248b57600080fd5b505af415801561249f573d6000803e3d6000fd5b50506040805164ffffffffff881681526001600160a01b038781166020830152868116828401528516606082015290517f4d18c0021addc919105cb1ed2c11ad241e859cc1d9e77d4ee1d9ca2cdc1f255b9350908190036080019150a150505050565b60405163987ad15360e01b81526002600482015260009073__$364aad554dc80380f414546becdd2c1584$__9063987ad15390602401610930565b60006125476139a2565b604051637963595360e11b8152600260048201526024810184905264ffffffffff8216604482015290915073__$364aad554dc80380f414546becdd2c1584$__9063f2c6b2a6906064016109e2565b60405163ccd9ded360e01b815260048082015260009073__$b59f66f9b4972d644e41bc4977edb0d217$__9063ccd9ded390602401610750565b60015460405163381baea360e21b8152600660048201526001600160a01b039091169063e06eba8c9060240160206040518083038186803b15801561261457600080fd5b505afa158015612628573d6000803e3d6000fd5b505050506040513d601f19601f8201168201806040525081019061264c9190613fdd565b6001600160a01b0316336001600160a01b03161461267c5760405162461bcd60e51b815260040161084a90613ffa565b8061288d57604051631bbc4b4960e21b815260048082015264ffffffffff851660248201526001600160401b0384169073__$b59f66f9b4972d644e41bc4977edb0d217$__90636ef12d249060440160206040518083038186803b1580156126e357600080fd5b505af41580156126f7573d6000803e3d6000fd5b505050506040513d601f19601f8201168201806040525081019061271b9190613f23565b6001600160401b031610156127885760405162461bcd60e51b815260206004820152602d60248201527f524f6d2e6368616e6765416d744f664d656d6265723a207061696420616d6f7560448201526c0dce840dcdee840cadcdeeaced609b1b606482015260840161084a565b60405162cc52b760e41b815260048082015264ffffffffff851660248201526001600160401b0383169073__$b59f66f9b4972d644e41bc4977edb0d217$__90630cc52b709060440160206040518083038186803b1580156127e957600080fd5b505af41580156127fd573d6000803e3d6000fd5b505050506040513d601f19601f820116820180604052508101906128219190613f23565b6001600160401b0316101561288d5760405162461bcd60e51b815260206004820152602c60248201527f524f6d2e6368616e6765416d744f664d656d6265723a2070617220616d6f756e60448201526b0e840dcdee840cadcdeeaced60a31b606482015260840161084a565b6040516396be611b60e01b815260048082015264ffffffffff851660248201526001600160401b03808516604483015283166064820152811515608482015260009073__$b59f66f9b4972d644e41bc4977edb0d217$__906396be611b9060a40160206040518083038186803b15801561290657600080fd5b505af415801561291a573d6000803e3d6000fd5b505050506040513d601f19601f8201168201806040525081019061293e919061428f565b604080516001600160401b038781168252861660208201528415158183015265ffffffffffff9290921660608301819052905190925064ffffffffff8716917f6dbebfdc4141b210d813713e1bd83d8b3ad3a3a25f6d44a4f1f66a8b57511b8a919081900360800190a25050505050565b60405163488e477760e01b815260048082015260009073__$b59f66f9b4972d644e41bc4977edb0d217$__9063488e477790602401610930565b60015460405163381baea360e21b8152600660048201526001600160a01b039091169063e06eba8c9060240160206040518083038186803b158015612a2d57600080fd5b505afa158015612a41573d6000803e3d6000fd5b505050506040513d601f19601f82011682018060405250810190612a659190613fdd565b6001600160a01b0316336001600160a01b031614612a955760405162461bcd60e51b815260040161084a90613ffa565b604051638998361160e01b81526004808201526001600160401b038084166024830152821660448201526001606482015260009073__$b59f66f9b4972d644e41bc4977edb0d217$__9063899836119060840160206040518083038186803b158015612b0057600080fd5b505af4158015612b14573d6000803e3d6000fd5b505050506040513d601f19601f82011682018060405250810190612b38919061428f565b604080516001600160401b0380871682528516602082015265ffffffffffff9290921690820181905291507f7a57ac200bb412a4ad90ca031319e8512a104b173407a89f0fe88fccd392552890606001611f44565b604051636461f0cd60e11b815260048082015260609073__$b59f66f9b4972d644e41bc4977edb0d217$__9063c8c3e19a9060240160006040518083038186803b158015612bda57600080fd5b505af4158015612bee573d6000803e3d6000fd5b505050506040513d6000823e601f3d908101601f191682016040526107a09190810190614394565b60015460405163381baea360e21b8152600660048201526001600160a01b039091169063e06eba8c9060240160206040518083038186803b158015612c5a57600080fd5b505afa158015612c6e573d6000803e3d6000fd5b505050506040513d601f19601f82011682018060405250810190612c929190613fdd565b6001600160a01b0316336001600160a01b031614612cc25760405162461bcd60e51b815260040161084a90613ffa565b6000612ccc61372b565b6040516352aadfd760e01b815263ffffffff851660048201526001600160a01b0391909116906352aadfd79060240160c06040518083038186803b158015612d1357600080fd5b505afa158015612d27573d6000803e3d6000fd5b505050506040513d601f19601f82011682018060405250810190612d4b91906141ee565b9050612d62828260200151836040015160006125d0565b805160405163053162ad60e41b8152600480820152602481019190915264ffffffffff8316604482015273__$b59f66f9b4972d644e41bc4977edb0d217$__906353162ad09060640160206040518083038186803b158015612dc357600080fd5b505af4158015612dd7573d6000803e3d6000fd5b505050506040513d601f19601f82011682018060405250810190612dfb9190613f40565b156118f3576040516319af9a9b60e31b815260048082015264ffffffffff8316602482015273__$b59f66f9b4972d644e41bc4977edb0d217$__9063cd7cd4d89060440160206040518083038186803b158015612e5757600080fd5b505af4158015612e6b573d6000803e3d6000fd5b505050506040513d601f19601f82011682018060405250810190612e8f91906144a5565b612f2457604051635730b14f60e01b815260048082015264ffffffffff8316602482015273__$b59f66f9b4972d644e41bc4977edb0d217$__90635730b14f9060440160206040518083038186803b158015612eea57600080fd5b505af4158015612efe573d6000803e3d6000fd5b505050506040513d601f19601f82011682018060405250810190612f229190613f40565b505b805160405164ffffffffff841691907f39208c748516036968e43f1666e20c73817b15b7d90263241548bb18d6b71d4990600090a3505050565b6001546040516335d2155560e11b81523360048201526001600160a01b0390911690636ba42aaa9060240160206040518083038186803b158015612fa157600080fd5b505afa158015612fb5573d6000803e3d6000fd5b505050506040513d601f19601f82011682018060405250810190612fd99190613f40565b612ff55760405162461bcd60e51b815260040161084a9061433a565b60405163a4a6eb0b60e01b815260048082015264ffffffffff80841660248301528216604482015273__$b59f66f9b4972d644e41bc4977edb0d217$__9063a4a6eb0b9060640160206040518083038186803b15801561305457600080fd5b505af4158015613068573d6000803e3d6000fd5b505050506040513d601f19601f8201168201806040525081019061308c9190613f40565b156130ce578064ffffffffff168264ffffffffff167fd875de446030922d882c407a7bcd6f5371d1b13efa74a8be2dacd22334d8846660405160405180910390a35b5050565b6001546040516335d2155560e11b81523360048201526001600160a01b0390911690636ba42aaa9060240160206040518083038186803b15801561311557600080fd5b505afa158015613129573d6000803e3d6000fd5b505050506040513d601f19601f8201168201806040525081019061314d9190613f40565b6131695760405162461bcd60e51b815260040161084a9061433a565b604051631073c49160e11b8152600480820152811515602482015273__$b59f66f9b4972d644e41bc4977edb0d217$__906320e789229060440160206040518083038186803b1580156131bb57600080fd5b505af41580156131cf573d6000803e3d6000fd5b505050506040513d601f19601f820116820180604052508101906131f39190613f40565b15610f605760405181151581527f0b1b96bce125700569e932050b6c2b3da7dabbe97241d19ff114400cb3546be8906020016108ee565b6040516308a85f8160e31b815260048082015260009073__$b59f66f9b4972d644e41bc4977edb0d217$__90634542fc0890602401610b0a565b604051630c5333b960e11b815260048082015264ffffffffff8216602482015260009073__$b59f66f9b4972d644e41bc4977edb0d217$__906318a6677290604401610a7e565b6000816132b781613264565b6132d35760405162461bcd60e51b815260040161084a90614091565b604051633064b51560e11b815260048082015264ffffffffff8416602482015273__$b59f66f9b4972d644e41bc4977edb0d217$__906360c96a2a90604401611564565b6001546040516335d2155560e11b81523360048201526001600160a01b0390911690636ba42aaa9060240160206040518083038186803b15801561335a57600080fd5b505afa15801561336e573d6000803e3d6000fd5b505050506040513d601f19601f820116820180604052508101906133929190613f40565b6133ae5760405162461bcd60e51b815260040161084a9061433a565b6040516318dfa6cd60e11b8152600480820152811515602482015273__$b59f66f9b4972d644e41bc4977edb0d217$__906331bf4d9a9060440160206040518083038186803b15801561340057600080fd5b505af4158015613414573d6000803e3d6000fd5b505050506040513d601f19601f820116820180604052508101906134389190613f40565b15610f605760405181151581527f1e06c59992faf7c98f854af104dd450a2705f0e45c9bf4de8043c574c0079c10906020016108ee565b604051635f5eed2960e11b815260048082015260009073__$b59f66f9b4972d644e41bc4977edb0d217$__9063bebdda5290602401610b0a565b604051630956622960e01b815260048082015260609073__$b59f66f9b4972d644e41bc4977edb0d217$__9063095662299060240160006040518083038186803b1580156134f657600080fd5b505af415801561350a573d6000803e3d6000fd5b505050506040513d6000823e601f3d908101601f191682016040526107a091908101906142ac565b6040516337f5537560e01b815260048082015260009073__$b59f66f9b4972d644e41bc4977edb0d217$__906337f553759060240160206040518083038186803b15801561357f57600080fd5b505af4158015613593573d6000803e3d6000fd5b505050506040513d601f19601f820116820180604052508101906107a09190613f40565b6000826135c381613264565b6135df5760405162461bcd60e51b815260040161084a90614091565b826135e981613264565b6136055760405162461bcd60e51b815260040161084a90614091565b6040516373db3c9160e11b815260048082015264ffffffffff80871660248301528516604482015273__$b59f66f9b4972d644e41bc4977edb0d217$__9063e7b679229060640160206040518083038186803b15801561366457600080fd5b505af4158015613678573d6000803e3d6000fd5b505050506040513d601f19601f8201168201806040525081019061369c9190613f40565b95945050505050565b604051633c3e56c160e11b81526002600482015260009073__$364aad554dc80380f414546becdd2c1584$__9063787cad829060240160206040518083038186803b1580156136f357600080fd5b505af4158015613707573d6000803e3d6000fd5b505050506040513d601f19601f820116820180604052508101906107a09190613fdd565b60015460405163381baea360e21b8152600660048201526000916001600160a01b03169063e06eba8c9060240160206040518083038186803b15801561377057600080fd5b505afa158015613707573d6000803e3d6000fd5b604051633b11adbf60e21b81526002600482015233602482015273__$364aad554dc80380f414546becdd2c1584$__9063ec46b6fc9060440160206040518083038186803b1580156137d557600080fd5b505af41580156137e9573d6000803e3d6000fd5b505050506040513d601f19601f8201168201806040525081019061380d9190613f40565b6138295760405162461bcd60e51b815260040161084a90613f5d565b600254600160f01b900460ff166001146138855760405162461bcd60e51b815260206004820181905260248201527f41432e6f6e6c7950656e64696e673a20446f632069732066696e616c697a6564604482015260640161084a565b60405163cc99e11b60e01b815260026004820152684174746f726e65797360b81b602482015273__$364aad554dc80380f414546becdd2c1584$__9063cc99e11b9060440160006040518083038186803b1580156138e257600080fd5b505af41580156138f6573d6000803e3d6000fd5b5050604051632725ebef60e21b8152600260048201526000602482015273__$364aad554dc80380f414546becdd2c1584$__9250639c97afbc915060440160006040518083038186803b15801561394c57600080fd5b505af4158015613960573d6000803e3d6000fd5b50506002805460ff60f01b1916600160f11b17905550506040517f35012b512309c322acf68632cd6cb702ff0e1d776fbe9394e38ffc13b434fe7590600090a1565b60008054604051634de835e760e11b81523360048201526001600160a01b0390911690639bd06bce90602401602060405180830381600087803b1580156139e857600080fd5b505af115801561095c573d6000803e3d6000fd5b6000546001600160a01b031615613a4d5760405162461bcd60e51b815260206004820152601560248201527430b63932b0b23c9039b2ba103932b3a1b2b73a32b960591b604482015260640161084a565b6040516001600160a01b03821681527f318da6c7624c71cbc0afe346c9d8827f119d0ecefb241a7b0c87217a076a8e029060200160405180910390a1600080546001600160a01b0319166001600160a01b0392909216919091179055565b6001546001600160a01b031615613b045760405162461bcd60e51b815260206004820152601960248201527f616c7265616479207365742067656e6572616c4b656570657200000000000000604482015260640161084a565b6040516001600160a01b03821681527fe513d3e0f0d0a3877029dcc588748679a7a3450ec1ec7ed56d96bd012c3e61aa9060200160405180910390a1600180546001600160a01b0319166001600160a01b0392909216919091179055565b60ff81168114610f6057600080fd5b600060208284031215613b8357600080fd5b81356113b481613b62565b64ffffffffff81168114610f6057600080fd5b60008060408385031215613bb457600080fd5b823591506020830135613bc681613b8e565b809150509250929050565b600060208284031215613be357600080fd5b81356113b481613b8e565b600060208284031215613c0057600080fd5b5035919050565b6020808252825182820181905260009190848201906040850190845b81811015613c3f57835183529284019291840191600101613c23565b50909695505050505050565b65ffffffffffff81168114610f6057600080fd5b60008060408385031215613c7257600080fd5b823591506020830135613bc681613c4b565b63ffffffff81168114610f6057600080fd5b60008060408385031215613ca957600080fd5b8235613cb481613c84565b91506020830135613bc681613b8e565b6001600160a01b0381168114610f6057600080fd5b600060208284031215613ceb57600080fd5b81356113b481613cc4565b6020808252825182820181905260009190848201906040850190845b81811015613c3f57835164ffffffffff1683529284019291840191600101613d12565b60008060408385031215613d4857600080fd5b8235613cb481613b8e565b6001600160401b0381168114610f6057600080fd5b60008060408385031215613d7b57600080fd5b8235613d8681613d53565b91506020830135613bc681613d53565b600060208284031215613da857600080fd5b81356113b481613c4b565b60008060008060808587031215613dc957600080fd5b8435613dd481613b8e565b93506020850135613de481613cc4565b92506040850135613df481613cc4565b91506060850135613e0481613cc4565b939692955090935050565b8015158114610f6057600080fd5b60008060008060808587031215613e3357600080fd5b8435613e3e81613b8e565b93506020850135613e4e81613d53565b92506040850135613e5e81613d53565b91506060850135613e0481613e0f565b602080825282518282018190526000919060409081850190868401855b82811015613ef9578151805164ffffffffff9081168652878201518116888701528682015116868601526060808201516001600160401b03908116918701919091526080808301519091169086015260a09081015160ff169085015260c09093019290850190600101613e8b565b5091979650505050505050565b600060208284031215613f1857600080fd5b81356113b481613e0f565b600060208284031215613f3557600080fd5b81516113b481613d53565b600060208284031215613f5257600080fd5b81516113b481613e0f565b60208082526026908201527f41432e6f6e6c794469726563744b65657065723a206e6f74206469726563742060408201526535b2b2b832b960d11b606082015260800190565b600060208284031215613fb557600080fd5b81516113b481613b8e565b600060208284031215613fd257600080fd5b81516113b481613c84565b600060208284031215613fef57600080fd5b81516113b481613cc4565b60208082526021908201527f524f4d2e6f6e6c79424f533a206d736753656e646572206973206e6f7420626f6040820152607360f81b606082015260800190565b60208082526036908201527f41432e6f776e65724f72446972656374426f6f6b65657065723a206e6569746860408201527532b91037bbb732b9103737b9103137b7b5b2b2b832b960511b606082015260800190565b6020808252601b908201527f524f4d2e6d656d62657245786973743a204e4f54204d656d6265720000000000604082015260600190565b634e487b7160e01b600052604160045260246000fd5b60405160c081016001600160401b0381118282101715614100576141006140c8565b60405290565b604051601f8201601f191681016001600160401b038111828210171561412e5761412e6140c8565b604052919050565b60006001600160401b0382111561414f5761414f6140c8565b5060051b60200190565b6000602080838503121561416c57600080fd5b82516001600160401b0381111561418257600080fd5b8301601f8101851361419357600080fd5b80516141a66141a182614136565b614106565b81815260059190911b820183019083810190878311156141c557600080fd5b928401925b828410156141e3578351825292840192908401906141ca565b979650505050505050565b600060c0828403121561420057600080fd5b60405160c081018181106001600160401b0382111715614222576142226140c8565b60405282518152602083015161423781613d53565b6020820152604083015161424a81613d53565b6040820152606083015161425d81613d53565b6060820152608083015161427081613c4b565b608082015260a083015161428381613b62565b60a08201529392505050565b6000602082840312156142a157600080fd5b81516113b481613c4b565b600060208083850312156142bf57600080fd5b82516001600160401b038111156142d557600080fd5b8301601f810185136142e657600080fd5b80516142f46141a182614136565b81815260059190911b8201830190838101908783111561431357600080fd5b928401925b828410156141e357835161432b81613b8e565b82529284019290840190614318565b60208082526011908201527020a19737b59d103737ba1025b2b2b832b960791b604082015260600190565b6000806040838503121561437857600080fd5b825161438381613d53565b6020840151909250613bc681613d53565b600060208083850312156143a757600080fd5b82516001600160401b038111156143bd57600080fd5b8301601f810185136143ce57600080fd5b80516143dc6141a182614136565b81815260c091820283018401918482019190888411156143fb57600080fd5b938501935b838510156144995780858a0312156144185760008081fd5b6144206140de565b855161442b81613b8e565b81528587015161443a81613b8e565b8188015260408681015161444d81613b8e565b9082015260608681015161446081613d53565b9082015260808681015161447381613d53565b9082015260a08681015161448681613b62565b9082015283529384019391850191614400565b50979650505050505050565b6000602082840312156144b757600080fd5b505191905056fea264697066735822122067175c8a8e4674c23f915546298594dd736cfb0aea7d6d6ab5e51d4e89953cb964736f6c63430008080033",
    "sourcePath": "/Users/kaptain/github.com/hardhat/comboox/contracts/books/rom/RegisterOfMembers.sol",
    "compiler": {
        "name": "solc",
        "version": "0.8.8+commit.dddeac2f"
    },
    "functionHashes": {
        "abandonRole(bytes32)": "3da9a600",
        "addMember(uint40)": "296f687b",
        "addMemberToGroup(uint40,uint40)": "a7ec068f",
        "addShareToMember(uint32,uint40)": "6bdc3730",
        "affiliated(uint40,uint40)": "eb8b90bb",
        "basedOnPar()": "e4df9100",
        "capAtDate(uint48)": "72dd6529",
        "capDecrease(uint64,uint64)": "72cc64f9",
        "capIncrease(uint64,uint64)": "9a3ca24b",
        "changeAmtOfMember(uint40,uint64,uint64,bool)": "96cfe114",
        "controllor()": "98419928",
        "deepOfGroup(uint40)": "47569cc4",
        "finalized()": "b3f05b97",
        "getBOS()": "f01e100f",
        "getBookeeper()": "ed211023",
        "getGeneralCounsel()": "103f6edd",
        "getOwner()": "893d20e8",
        "getSnapshot()": "9c54297c",
        "grantRole(bytes32,uint40)": "74099815",
        "groupRep(uint40)": "47686cf2",
        "hasRole(bytes32,uint40)": "79b2ec12",
        "init(uint40,address,address,address)": "821ee8ea",
        "isGroupRep(uint40)": "25d112b2",
        "isMember(uint40)": "c5916f4b",
        "isShareNumber(bytes32)": "4ce57ba3",
        "lockContents()": "f045a769",
        "maxQtyOfMembers()": "2898436f",
        "membersList()": "dd5042f4",
        "membersOfGroup(uint40)": "6f57aaad",
        "paidCap()": "63492374",
        "paidOfMember(uint40)": "7c0d7a90",
        "parCap()": "930afdd2",
        "parOfMember(uint40)": "7573aad4",
        "qtyOfGroups()": "c410c23a",
        "qtyOfMembers()": "dc6599c5",
        "removeMemberFromGroup(uint40,uint40)": "7276c101",
        "removeShareFromMember(uint32,uint40)": "a03510c5",
        "renounceRole(bytes32)": "8bb9c5bf",
        "revokeRole(bytes32,uint40)": "17c51fec",
        "setAmtBase(bool)": "da6a43d6",
        "setDirectKeeper(address)": "6be8496f",
        "setGeneralCounsel(uint40)": "3178a9a9",
        "setMaxQtyOfMembers(uint8)": "1022489b",
        "setOwner(uint40)": "7ba706e8",
        "setRoleAdmin(bytes32,uint40)": "16dc517e",
        "setVoteBase(bool)": "bdc36f62",
        "sharesInHand(uint40)": "3e211006",
        "sharesList()": "8170c3b9",
        "totalVotes()": "0d15fd77",
        "votesAtDate(uint256,uint48)": "4bc8315f",
        "votesInHand(uint40)": "d40622d2",
        "votesOfController()": "3f17cd45",
        "votesOfGroup(uint40)": "3e1b11fa"
    },
    "gasEstimates": {
        "creation": {
            "codeDepositCost": "3530400",
            "executionCost": "3958",
            "totalCost": "3534358"
        },
        "external": {
            "abandonRole(bytes32)": "infinite",
            "addMember(uint40)": "infinite",
            "addMemberToGroup(uint40,uint40)": "infinite",
            "addShareToMember(uint32,uint40)": "infinite",
            "affiliated(uint40,uint40)": "infinite",
            "basedOnPar()": "infinite",
            "capAtDate(uint48)": "infinite",
            "capDecrease(uint64,uint64)": "infinite",
            "capIncrease(uint64,uint64)": "infinite",
            "changeAmtOfMember(uint40,uint64,uint64,bool)": "infinite",
            "controllor()": "infinite",
            "deepOfGroup(uint40)": "infinite",
            "finalized()": "2417",
            "getBOS()": "infinite",
            "getBookeeper()": "infinite",
            "getGeneralCounsel()": "infinite",
            "getOwner()": "infinite",
            "getSnapshot()": "infinite",
            "grantRole(bytes32,uint40)": "infinite",
            "groupRep(uint40)": "infinite",
            "hasRole(bytes32,uint40)": "infinite",
            "init(uint40,address,address,address)": "infinite",
            "isGroupRep(uint40)": "infinite",
            "isMember(uint40)": "infinite",
            "isShareNumber(bytes32)": "infinite",
            "lockContents()": "infinite",
            "maxQtyOfMembers()": "infinite",
            "membersList()": "infinite",
            "membersOfGroup(uint40)": "infinite",
            "paidCap()": "infinite",
            "paidOfMember(uint40)": "infinite",
            "parCap()": "infinite",
            "parOfMember(uint40)": "infinite",
            "qtyOfGroups()": "infinite",
            "qtyOfMembers()": "infinite",
            "removeMemberFromGroup(uint40,uint40)": "infinite",
            "removeShareFromMember(uint32,uint40)": "infinite",
            "renounceRole(bytes32)": "infinite",
            "revokeRole(bytes32,uint40)": "infinite",
            "setAmtBase(bool)": "infinite",
            "setDirectKeeper(address)": "infinite",
            "setGeneralCounsel(uint40)": "infinite",
            "setMaxQtyOfMembers(uint8)": "infinite",
            "setOwner(uint40)": "infinite",
            "setRoleAdmin(bytes32,uint40)": "infinite",
            "setVoteBase(bool)": "infinite",
            "sharesInHand(uint40)": "infinite",
            "sharesList()": "infinite",
            "totalVotes()": "infinite",
            "votesAtDate(uint256,uint48)": "infinite",
            "votesInHand(uint40)": "infinite",
            "votesOfController()": "infinite",
            "votesOfGroup(uint40)": "infinite"
        }
    }
}