{
    "contractName": "BookOfDirectors",
    "abi": [
        {
            "anonymous": false,
            "inputs": [
                {
                    "indexed": true,
                    "internalType": "uint40",
                    "name": "acct",
                    "type": "uint40"
                },
                {
                    "indexed": false,
                    "internalType": "uint8",
                    "name": "title",
                    "type": "uint8"
                },
                {
                    "indexed": false,
                    "internalType": "uint40",
                    "name": "appointer",
                    "type": "uint40"
                },
                {
                    "indexed": false,
                    "internalType": "uint48",
                    "name": "startDate",
                    "type": "uint48"
                },
                {
                    "indexed": false,
                    "internalType": "uint48",
                    "name": "endDate",
                    "type": "uint48"
                }
            ],
            "name": "AddDirector",
            "type": "event"
        },
        {
            "anonymous": false,
            "inputs": [
                {
                    "indexed": true,
                    "internalType": "uint40",
                    "name": "acct",
                    "type": "uint40"
                },
                {
                    "indexed": false,
                    "internalType": "uint8",
                    "name": "title",
                    "type": "uint8"
                },
                {
                    "indexed": false,
                    "internalType": "uint40",
                    "name": "appointer",
                    "type": "uint40"
                }
            ],
            "name": "AppointOfficer",
            "type": "event"
        },
        {
            "anonymous": false,
            "inputs": [
                {
                    "indexed": true,
                    "internalType": "uint256",
                    "name": "motionId",
                    "type": "uint256"
                },
                {
                    "indexed": false,
                    "internalType": "uint40",
                    "name": "caller",
                    "type": "uint40"
                },
                {
                    "indexed": false,
                    "internalType": "uint8",
                    "name": "attitude",
                    "type": "uint8"
                },
                {
                    "indexed": false,
                    "internalType": "bytes32",
                    "name": "sigHash",
                    "type": "bytes32"
                }
            ],
            "name": "CastVote",
            "type": "event"
        },
        {
            "anonymous": false,
            "inputs": [
                {
                    "indexed": true,
                    "internalType": "uint256",
                    "name": "motionId",
                    "type": "uint256"
                },
                {
                    "indexed": false,
                    "internalType": "uint40",
                    "name": "principal",
                    "type": "uint40"
                },
                {
                    "indexed": false,
                    "internalType": "uint40",
                    "name": "delegate",
                    "type": "uint40"
                },
                {
                    "indexed": false,
                    "internalType": "uint64",
                    "name": "weight",
                    "type": "uint64"
                }
            ],
            "name": "EntrustDelegate",
            "type": "event"
        },
        {
            "anonymous": false,
            "inputs": [
                {
                    "indexed": true,
                    "internalType": "uint256",
                    "name": "motionId",
                    "type": "uint256"
                },
                {
                    "indexed": false,
                    "internalType": "bool",
                    "name": "flag",
                    "type": "bool"
                }
            ],
            "name": "ExecuteAction",
            "type": "event"
        },
        {
            "anonymous": false,
            "inputs": [
                {
                    "indexed": false,
                    "internalType": "uint40",
                    "name": "owner",
                    "type": "uint40"
                },
                {
                    "indexed": false,
                    "internalType": "address",
                    "name": "directKeeper",
                    "type": "address"
                },
                {
                    "indexed": false,
                    "internalType": "address",
                    "name": "regCenter",
                    "type": "address"
                },
                {
                    "indexed": false,
                    "internalType": "address",
                    "name": "generalKeeper",
                    "type": "address"
                }
            ],
            "name": "Init",
            "type": "event"
        },
        {
            "anonymous": false,
            "inputs": [],
            "name": "LockContents",
            "type": "event"
        },
        {
            "anonymous": false,
            "inputs": [
                {
                    "indexed": true,
                    "internalType": "uint256",
                    "name": "motionId",
                    "type": "uint256"
                },
                {
                    "indexed": false,
                    "internalType": "bytes32",
                    "name": "rule",
                    "type": "bytes32"
                },
                {
                    "indexed": false,
                    "internalType": "uint40",
                    "name": "proposer",
                    "type": "uint40"
                },
                {
                    "indexed": false,
                    "internalType": "uint40",
                    "name": "executor",
                    "type": "uint40"
                }
            ],
            "name": "ProposeMotion",
            "type": "event"
        },
        {
            "anonymous": false,
            "inputs": [
                {
                    "indexed": true,
                    "internalType": "uint40",
                    "name": "acct",
                    "type": "uint40"
                }
            ],
            "name": "RemoveDirector",
            "type": "event"
        },
        {
            "anonymous": false,
            "inputs": [
                {
                    "indexed": false,
                    "internalType": "address",
                    "name": "keeper",
                    "type": "address"
                }
            ],
            "name": "SetDirectKeeper",
            "type": "event"
        },
        {
            "anonymous": false,
            "inputs": [
                {
                    "indexed": false,
                    "internalType": "uint256",
                    "name": "acct",
                    "type": "uint256"
                }
            ],
            "name": "SetGeneralCounsel",
            "type": "event"
        },
        {
            "anonymous": false,
            "inputs": [
                {
                    "indexed": false,
                    "internalType": "address",
                    "name": "gk",
                    "type": "address"
                }
            ],
            "name": "SetGeneralKeeper",
            "type": "event"
        },
        {
            "anonymous": false,
            "inputs": [
                {
                    "indexed": false,
                    "internalType": "uint8",
                    "name": "max",
                    "type": "uint8"
                }
            ],
            "name": "SetMaxQtyOfDirectors",
            "type": "event"
        },
        {
            "anonymous": false,
            "inputs": [
                {
                    "indexed": false,
                    "internalType": "uint256",
                    "name": "acct",
                    "type": "uint256"
                }
            ],
            "name": "SetOwner",
            "type": "event"
        },
        {
            "anonymous": false,
            "inputs": [
                {
                    "indexed": false,
                    "internalType": "address",
                    "name": "rc",
                    "type": "address"
                }
            ],
            "name": "SetRegCenter",
            "type": "event"
        },
        {
            "anonymous": false,
            "inputs": [
                {
                    "indexed": true,
                    "internalType": "uint256",
                    "name": "motionId",
                    "type": "uint256"
                },
                {
                    "indexed": false,
                    "internalType": "uint8",
                    "name": "state",
                    "type": "uint8"
                }
            ],
            "name": "VoteCounting",
            "type": "event"
        },
        {
            "inputs": [
                {
                    "internalType": "bytes32",
                    "name": "role",
                    "type": "bytes32"
                }
            ],
            "name": "abandonRole",
            "outputs": [],
            "stateMutability": "nonpayable",
            "type": "function"
        },
        {
            "inputs": [
                {
                    "internalType": "uint16",
                    "name": "seqOfVR",
                    "type": "uint16"
                },
                {
                    "internalType": "uint8",
                    "name": "title",
                    "type": "uint8"
                },
                {
                    "internalType": "uint40",
                    "name": "nominator",
                    "type": "uint40"
                },
                {
                    "internalType": "uint40",
                    "name": "candidate",
                    "type": "uint40"
                }
            ],
            "name": "appointOfficer",
            "outputs": [],
            "stateMutability": "nonpayable",
            "type": "function"
        },
        {
            "inputs": [],
            "name": "boaAddr",
            "outputs": [
                {
                    "internalType": "address",
                    "name": "",
                    "type": "address"
                }
            ],
            "stateMutability": "view",
            "type": "function"
        },
        {
            "inputs": [
                {
                    "internalType": "uint256",
                    "name": "acct",
                    "type": "uint256"
                }
            ],
            "name": "boardSeatsOf",
            "outputs": [
                {
                    "internalType": "uint256",
                    "name": "",
                    "type": "uint256"
                }
            ],
            "stateMutability": "view",
            "type": "function"
        },
        {
            "inputs": [],
            "name": "bodAddr",
            "outputs": [
                {
                    "internalType": "address",
                    "name": "",
                    "type": "address"
                }
            ],
            "stateMutability": "view",
            "type": "function"
        },
        {
            "inputs": [],
            "name": "bohAddr",
            "outputs": [
                {
                    "internalType": "address",
                    "name": "",
                    "type": "address"
                }
            ],
            "stateMutability": "view",
            "type": "function"
        },
        {
            "inputs": [
                {
                    "internalType": "uint256",
                    "name": "motionId",
                    "type": "uint256"
                },
                {
                    "internalType": "uint40",
                    "name": "caller",
                    "type": "uint40"
                },
                {
                    "internalType": "uint8",
                    "name": "attitude",
                    "type": "uint8"
                },
                {
                    "internalType": "bytes32",
                    "name": "sigHash",
                    "type": "bytes32"
                }
            ],
            "name": "castVote",
            "outputs": [],
            "stateMutability": "nonpayable",
            "type": "function"
        },
        {
            "inputs": [],
            "name": "directors",
            "outputs": [
                {
                    "internalType": "uint40[]",
                    "name": "",
                    "type": "uint40[]"
                }
            ],
            "stateMutability": "view",
            "type": "function"
        },
        {
            "inputs": [
                {
                    "internalType": "uint256",
                    "name": "motionId",
                    "type": "uint256"
                },
                {
                    "internalType": "uint40",
                    "name": "principal",
                    "type": "uint40"
                },
                {
                    "internalType": "uint40",
                    "name": "delegate",
                    "type": "uint40"
                }
            ],
            "name": "entrustDelegate",
            "outputs": [],
            "stateMutability": "nonpayable",
            "type": "function"
        },
        {
            "inputs": [
                {
                    "internalType": "uint16",
                    "name": "seqOfVR",
                    "type": "uint16"
                },
                {
                    "internalType": "address[]",
                    "name": "targets",
                    "type": "address[]"
                },
                {
                    "internalType": "uint256[]",
                    "name": "values",
                    "type": "uint256[]"
                },
                {
                    "internalType": "bytes[]",
                    "name": "params",
                    "type": "bytes[]"
                },
                {
                    "internalType": "uint40",
                    "name": "caller",
                    "type": "uint40"
                },
                {
                    "internalType": "bytes32",
                    "name": "desHash",
                    "type": "bytes32"
                }
            ],
            "name": "execAction",
            "outputs": [
                {
                    "internalType": "uint256",
                    "name": "",
                    "type": "uint256"
                }
            ],
            "stateMutability": "nonpayable",
            "type": "function"
        },
        {
            "inputs": [],
            "name": "finalized",
            "outputs": [
                {
                    "internalType": "bool",
                    "name": "",
                    "type": "bool"
                }
            ],
            "stateMutability": "view",
            "type": "function"
        },
        {
            "inputs": [
                {
                    "internalType": "uint256",
                    "name": "motionId",
                    "type": "uint256"
                },
                {
                    "internalType": "uint40",
                    "name": "acct",
                    "type": "uint40"
                }
            ],
            "name": "getBallot",
            "outputs": [
                {
                    "components": [
                        {
                            "internalType": "uint40",
                            "name": "acct",
                            "type": "uint40"
                        },
                        {
                            "internalType": "uint8",
                            "name": "attitude",
                            "type": "uint8"
                        },
                        {
                            "internalType": "uint32",
                            "name": "head",
                            "type": "uint32"
                        },
                        {
                            "internalType": "uint64",
                            "name": "weight",
                            "type": "uint64"
                        },
                        {
                            "internalType": "uint48",
                            "name": "sigDate",
                            "type": "uint48"
                        },
                        {
                            "internalType": "uint64",
                            "name": "blocknumber",
                            "type": "uint64"
                        },
                        {
                            "internalType": "bytes32",
                            "name": "sigHash",
                            "type": "bytes32"
                        }
                    ],
                    "internalType": "struct BallotsBox.Ballot",
                    "name": "",
                    "type": "tuple"
                }
            ],
            "stateMutability": "view",
            "type": "function"
        },
        {
            "inputs": [],
            "name": "getBookeeper",
            "outputs": [
                {
                    "internalType": "address",
                    "name": "",
                    "type": "address"
                }
            ],
            "stateMutability": "view",
            "type": "function"
        },
        {
            "inputs": [
                {
                    "internalType": "uint256",
                    "name": "motionId",
                    "type": "uint256"
                },
                {
                    "internalType": "uint8",
                    "name": "atti",
                    "type": "uint8"
                }
            ],
            "name": "getCaseOfAttitude",
            "outputs": [
                {
                    "components": [
                        {
                            "internalType": "uint32",
                            "name": "sumOfHead",
                            "type": "uint32"
                        },
                        {
                            "internalType": "uint64",
                            "name": "sumOfWeight",
                            "type": "uint64"
                        },
                        {
                            "internalType": "uint40[]",
                            "name": "voters",
                            "type": "uint40[]"
                        }
                    ],
                    "internalType": "struct BallotsBox.Case",
                    "name": "",
                    "type": "tuple"
                }
            ],
            "stateMutability": "view",
            "type": "function"
        },
        {
            "inputs": [
                {
                    "internalType": "uint256",
                    "name": "motionId",
                    "type": "uint256"
                },
                {
                    "internalType": "uint40",
                    "name": "acct",
                    "type": "uint40"
                }
            ],
            "name": "getDelegateOf",
            "outputs": [
                {
                    "internalType": "uint40",
                    "name": "",
                    "type": "uint40"
                }
            ],
            "stateMutability": "view",
            "type": "function"
        },
        {
            "inputs": [
                {
                    "internalType": "uint40",
                    "name": "acct",
                    "type": "uint40"
                }
            ],
            "name": "getDirector",
            "outputs": [
                {
                    "components": [
                        {
                            "internalType": "uint8",
                            "name": "title",
                            "type": "uint8"
                        },
                        {
                            "internalType": "uint40",
                            "name": "acct",
                            "type": "uint40"
                        },
                        {
                            "internalType": "uint40",
                            "name": "appointer",
                            "type": "uint40"
                        },
                        {
                            "internalType": "uint48",
                            "name": "startDate",
                            "type": "uint48"
                        },
                        {
                            "internalType": "uint48",
                            "name": "endDate",
                            "type": "uint48"
                        }
                    ],
                    "internalType": "struct IBookOfDirectors.Officer",
                    "name": "director",
                    "type": "tuple"
                }
            ],
            "stateMutability": "view",
            "type": "function"
        },
        {
            "inputs": [],
            "name": "getGeneralCounsel",
            "outputs": [
                {
                    "internalType": "uint40",
                    "name": "",
                    "type": "uint40"
                }
            ],
            "stateMutability": "view",
            "type": "function"
        },
        {
            "inputs": [
                {
                    "internalType": "uint256",
                    "name": "motionId",
                    "type": "uint256"
                }
            ],
            "name": "getHeadOfMotion",
            "outputs": [
                {
                    "components": [
                        {
                            "internalType": "uint8",
                            "name": "state",
                            "type": "uint8"
                        },
                        {
                            "internalType": "uint40",
                            "name": "proposer",
                            "type": "uint40"
                        },
                        {
                            "internalType": "uint40",
                            "name": "executor",
                            "type": "uint40"
                        },
                        {
                            "internalType": "uint48",
                            "name": "proposeDate",
                            "type": "uint48"
                        },
                        {
                            "internalType": "uint48",
                            "name": "shareRegDate",
                            "type": "uint48"
                        },
                        {
                            "internalType": "uint48",
                            "name": "voteStartDate",
                            "type": "uint48"
                        }
                    ],
                    "internalType": "struct MotionsRepo.Head",
                    "name": "head",
                    "type": "tuple"
                }
            ],
            "stateMutability": "view",
            "type": "function"
        },
        {
            "inputs": [],
            "name": "getOwner",
            "outputs": [
                {
                    "internalType": "uint40",
                    "name": "",
                    "type": "uint40"
                }
            ],
            "stateMutability": "view",
            "type": "function"
        },
        {
            "inputs": [
                {
                    "internalType": "uint256",
                    "name": "motionId",
                    "type": "uint256"
                },
                {
                    "internalType": "uint40",
                    "name": "acct",
                    "type": "uint40"
                }
            ],
            "name": "getVoterOfDelegateMap",
            "outputs": [
                {
                    "components": [
                        {
                            "internalType": "uint40",
                            "name": "delegate",
                            "type": "uint40"
                        },
                        {
                            "internalType": "uint64",
                            "name": "weight",
                            "type": "uint64"
                        },
                        {
                            "internalType": "uint64",
                            "name": "repWeight",
                            "type": "uint64"
                        },
                        {
                            "internalType": "uint32",
                            "name": "repHead",
                            "type": "uint32"
                        },
                        {
                            "internalType": "uint40[]",
                            "name": "principals",
                            "type": "uint40[]"
                        }
                    ],
                    "internalType": "struct DelegateMap.Voter",
                    "name": "",
                    "type": "tuple"
                }
            ],
            "stateMutability": "view",
            "type": "function"
        },
        {
            "inputs": [
                {
                    "internalType": "uint256",
                    "name": "motionId",
                    "type": "uint256"
                }
            ],
            "name": "getVotingRuleOfMotion",
            "outputs": [
                {
                    "internalType": "bytes32",
                    "name": "",
                    "type": "bytes32"
                }
            ],
            "stateMutability": "view",
            "type": "function"
        },
        {
            "inputs": [
                {
                    "internalType": "bytes32",
                    "name": "role",
                    "type": "bytes32"
                },
                {
                    "internalType": "uint40",
                    "name": "acct",
                    "type": "uint40"
                }
            ],
            "name": "grantRole",
            "outputs": [],
            "stateMutability": "nonpayable",
            "type": "function"
        },
        {
            "inputs": [
                {
                    "internalType": "bytes32",
                    "name": "role",
                    "type": "bytes32"
                },
                {
                    "internalType": "uint40",
                    "name": "acct",
                    "type": "uint40"
                }
            ],
            "name": "hasRole",
            "outputs": [
                {
                    "internalType": "bool",
                    "name": "",
                    "type": "bool"
                }
            ],
            "stateMutability": "view",
            "type": "function"
        },
        {
            "inputs": [
                {
                    "internalType": "uint40",
                    "name": "owner",
                    "type": "uint40"
                },
                {
                    "internalType": "address",
                    "name": "directKeeper",
                    "type": "address"
                },
                {
                    "internalType": "address",
                    "name": "regCenter",
                    "type": "address"
                },
                {
                    "internalType": "address",
                    "name": "generalKeeper",
                    "type": "address"
                }
            ],
            "name": "init",
            "outputs": [],
            "stateMutability": "nonpayable",
            "type": "function"
        },
        {
            "inputs": [
                {
                    "internalType": "uint40",
                    "name": "acct",
                    "type": "uint40"
                }
            ],
            "name": "isDirector",
            "outputs": [
                {
                    "internalType": "bool",
                    "name": "",
                    "type": "bool"
                }
            ],
            "stateMutability": "view",
            "type": "function"
        },
        {
            "inputs": [
                {
                    "internalType": "uint256",
                    "name": "motionId",
                    "type": "uint256"
                }
            ],
            "name": "isExecuted",
            "outputs": [
                {
                    "internalType": "bool",
                    "name": "",
                    "type": "bool"
                }
            ],
            "stateMutability": "view",
            "type": "function"
        },
        {
            "inputs": [
                {
                    "internalType": "uint40",
                    "name": "acct",
                    "type": "uint40"
                }
            ],
            "name": "isOfficer",
            "outputs": [
                {
                    "internalType": "bool",
                    "name": "",
                    "type": "bool"
                }
            ],
            "stateMutability": "view",
            "type": "function"
        },
        {
            "inputs": [
                {
                    "internalType": "uint256",
                    "name": "motionId",
                    "type": "uint256"
                }
            ],
            "name": "isPassed",
            "outputs": [
                {
                    "internalType": "bool",
                    "name": "",
                    "type": "bool"
                }
            ],
            "stateMutability": "view",
            "type": "function"
        },
        {
            "inputs": [
                {
                    "internalType": "uint256",
                    "name": "motionId",
                    "type": "uint256"
                }
            ],
            "name": "isProposed",
            "outputs": [
                {
                    "internalType": "bool",
                    "name": "",
                    "type": "bool"
                }
            ],
            "stateMutability": "view",
            "type": "function"
        },
        {
            "inputs": [
                {
                    "internalType": "uint256",
                    "name": "motionId",
                    "type": "uint256"
                },
                {
                    "internalType": "uint40",
                    "name": "acct",
                    "type": "uint40"
                }
            ],
            "name": "isVoted",
            "outputs": [
                {
                    "internalType": "bool",
                    "name": "",
                    "type": "bool"
                }
            ],
            "stateMutability": "view",
            "type": "function"
        },
        {
            "inputs": [
                {
                    "internalType": "uint256",
                    "name": "motionId",
                    "type": "uint256"
                },
                {
                    "internalType": "uint40",
                    "name": "acct",
                    "type": "uint40"
                },
                {
                    "internalType": "uint8",
                    "name": "atti",
                    "type": "uint8"
                }
            ],
            "name": "isVotedFor",
            "outputs": [
                {
                    "internalType": "bool",
                    "name": "",
                    "type": "bool"
                }
            ],
            "stateMutability": "view",
            "type": "function"
        },
        {
            "inputs": [],
            "name": "lockContents",
            "outputs": [],
            "stateMutability": "nonpayable",
            "type": "function"
        },
        {
            "inputs": [],
            "name": "maxQtyOfDirectors",
            "outputs": [
                {
                    "internalType": "uint8",
                    "name": "",
                    "type": "uint8"
                }
            ],
            "stateMutability": "view",
            "type": "function"
        },
        {
            "inputs": [
                {
                    "internalType": "uint256",
                    "name": "motionId",
                    "type": "uint256"
                }
            ],
            "name": "motionExecuted",
            "outputs": [],
            "stateMutability": "nonpayable",
            "type": "function"
        },
        {
            "inputs": [
                {
                    "internalType": "uint16",
                    "name": "seqOfVR",
                    "type": "uint16"
                },
                {
                    "internalType": "uint8",
                    "name": "title",
                    "type": "uint8"
                },
                {
                    "internalType": "uint40",
                    "name": "nominator",
                    "type": "uint40"
                },
                {
                    "internalType": "uint40",
                    "name": "candidate",
                    "type": "uint40"
                }
            ],
            "name": "nominateOfficer",
            "outputs": [],
            "stateMutability": "nonpayable",
            "type": "function"
        },
        {
            "inputs": [
                {
                    "internalType": "uint16",
                    "name": "seqOfVR",
                    "type": "uint16"
                },
                {
                    "internalType": "address[]",
                    "name": "targets",
                    "type": "address[]"
                },
                {
                    "internalType": "uint256[]",
                    "name": "values",
                    "type": "uint256[]"
                },
                {
                    "internalType": "bytes[]",
                    "name": "params",
                    "type": "bytes[]"
                },
                {
                    "internalType": "bytes32",
                    "name": "desHash",
                    "type": "bytes32"
                },
                {
                    "internalType": "uint40",
                    "name": "proposer",
                    "type": "uint40"
                },
                {
                    "internalType": "uint40",
                    "name": "executor",
                    "type": "uint40"
                }
            ],
            "name": "proposeAction",
            "outputs": [],
            "stateMutability": "nonpayable",
            "type": "function"
        },
        {
            "inputs": [
                {
                    "internalType": "address",
                    "name": "doc",
                    "type": "address"
                },
                {
                    "internalType": "uint16",
                    "name": "seqOfVR",
                    "type": "uint16"
                },
                {
                    "internalType": "uint40",
                    "name": "proposer",
                    "type": "uint40"
                },
                {
                    "internalType": "uint40",
                    "name": "executor",
                    "type": "uint40"
                }
            ],
            "name": "proposeDoc",
            "outputs": [],
            "stateMutability": "nonpayable",
            "type": "function"
        },
        {
            "inputs": [
                {
                    "internalType": "uint256",
                    "name": "motionId",
                    "type": "uint256"
                },
                {
                    "internalType": "uint16",
                    "name": "seqOfVR",
                    "type": "uint16"
                },
                {
                    "internalType": "uint40",
                    "name": "proposer",
                    "type": "uint40"
                },
                {
                    "internalType": "uint40",
                    "name": "executor",
                    "type": "uint40"
                }
            ],
            "name": "proposeMotion",
            "outputs": [],
            "stateMutability": "nonpayable",
            "type": "function"
        },
        {
            "inputs": [],
            "name": "qtyOfDirectors",
            "outputs": [
                {
                    "internalType": "uint16",
                    "name": "",
                    "type": "uint16"
                }
            ],
            "stateMutability": "view",
            "type": "function"
        },
        {
            "inputs": [
                {
                    "internalType": "uint40",
                    "name": "acct",
                    "type": "uint40"
                }
            ],
            "name": "removeDirector",
            "outputs": [],
            "stateMutability": "nonpayable",
            "type": "function"
        },
        {
            "inputs": [
                {
                    "internalType": "bytes32",
                    "name": "role",
                    "type": "bytes32"
                }
            ],
            "name": "renounceRole",
            "outputs": [],
            "stateMutability": "nonpayable",
            "type": "function"
        },
        {
            "inputs": [
                {
                    "internalType": "bytes32",
                    "name": "role",
                    "type": "bytes32"
                },
                {
                    "internalType": "uint40",
                    "name": "acct",
                    "type": "uint40"
                }
            ],
            "name": "revokeRole",
            "outputs": [],
            "stateMutability": "nonpayable",
            "type": "function"
        },
        {
            "inputs": [],
            "name": "romAddr",
            "outputs": [
                {
                    "internalType": "address",
                    "name": "",
                    "type": "address"
                }
            ],
            "stateMutability": "view",
            "type": "function"
        },
        {
            "inputs": [
                {
                    "internalType": "address",
                    "name": "boa",
                    "type": "address"
                }
            ],
            "name": "setBOA",
            "outputs": [],
            "stateMutability": "nonpayable",
            "type": "function"
        },
        {
            "inputs": [
                {
                    "internalType": "address",
                    "name": "bod",
                    "type": "address"
                }
            ],
            "name": "setBOD",
            "outputs": [],
            "stateMutability": "nonpayable",
            "type": "function"
        },
        {
            "inputs": [
                {
                    "internalType": "address",
                    "name": "boh",
                    "type": "address"
                }
            ],
            "name": "setBOH",
            "outputs": [],
            "stateMutability": "nonpayable",
            "type": "function"
        },
        {
            "inputs": [
                {
                    "internalType": "address",
                    "name": "keeper",
                    "type": "address"
                }
            ],
            "name": "setDirectKeeper",
            "outputs": [],
            "stateMutability": "nonpayable",
            "type": "function"
        },
        {
            "inputs": [
                {
                    "internalType": "uint40",
                    "name": "acct",
                    "type": "uint40"
                }
            ],
            "name": "setGeneralCounsel",
            "outputs": [],
            "stateMutability": "nonpayable",
            "type": "function"
        },
        {
            "inputs": [
                {
                    "internalType": "uint8",
                    "name": "max",
                    "type": "uint8"
                }
            ],
            "name": "setMaxQtyOfDirectors",
            "outputs": [],
            "stateMutability": "nonpayable",
            "type": "function"
        },
        {
            "inputs": [
                {
                    "internalType": "uint40",
                    "name": "acct",
                    "type": "uint40"
                }
            ],
            "name": "setOwner",
            "outputs": [],
            "stateMutability": "nonpayable",
            "type": "function"
        },
        {
            "inputs": [
                {
                    "internalType": "address",
                    "name": "rom",
                    "type": "address"
                }
            ],
            "name": "setROM",
            "outputs": [],
            "stateMutability": "nonpayable",
            "type": "function"
        },
        {
            "inputs": [
                {
                    "internalType": "bytes32",
                    "name": "role",
                    "type": "bytes32"
                },
                {
                    "internalType": "uint40",
                    "name": "acct",
                    "type": "uint40"
                }
            ],
            "name": "setRoleAdmin",
            "outputs": [],
            "stateMutability": "nonpayable",
            "type": "function"
        },
        {
            "inputs": [
                {
                    "internalType": "bytes32",
                    "name": "bsRule",
                    "type": "bytes32"
                },
                {
                    "internalType": "uint8",
                    "name": "title",
                    "type": "uint8"
                },
                {
                    "internalType": "uint40",
                    "name": "candidate",
                    "type": "uint40"
                },
                {
                    "internalType": "uint40",
                    "name": "nominator",
                    "type": "uint40"
                }
            ],
            "name": "takePosition",
            "outputs": [],
            "stateMutability": "nonpayable",
            "type": "function"
        },
        {
            "inputs": [
                {
                    "internalType": "uint256",
                    "name": "motionId",
                    "type": "uint256"
                }
            ],
            "name": "voteCounting",
            "outputs": [
                {
                    "internalType": "bool",
                    "name": "flag",
                    "type": "bool"
                }
            ],
            "stateMutability": "nonpayable",
            "type": "function"
        },
        {
            "inputs": [
                {
                    "internalType": "uint8",
                    "name": "title",
                    "type": "uint8"
                }
            ],
            "name": "whoIs",
            "outputs": [
                {
                    "internalType": "uint40",
                    "name": "",
                    "type": "uint40"
                }
            ],
            "stateMutability": "view",
            "type": "function"
        }
    ],
    "bytecode": "608060405234801561001057600080fd5b506150ae806100206000396000f3fe608060405234801561001057600080fd5b506004361061035d5760003560e01c8063821ee8ea116101d3578063cba36bf311610104578063f117bdb7116100a2578063f755c0031161007c578063f755c00314610a90578063f8fb9e1d14610ad9578063fd8f19c214610aec578063ff77c05514610aff57600080fd5b8063f117bdb714610a57578063f3c54fac14610a6a578063f5efdb2614610a7d57600080fd5b8063ed194c88116100de578063ed194c8814610a23578063ed21102314610a34578063ee7c1be114610a3c578063f045a76914610a4f57600080fd5b8063cba36bf3146109ec578063db34d934146109ff578063e10f01c714610a1257600080fd5b8063aaf7bfc611610171578063b801769d1161014b578063b801769d14610995578063ba6bd79b146109b5578063bbd8b649146109c8578063bf0d4ace146109d957600080fd5b8063aaf7bfc61461094b578063ae26d1d01461096e578063b3f05b971461098157600080fd5b80638bb9c5bf116101ad5780638bb9c5bf146108e05780638d5b6585146108f3578063916d953c146109135780639766a0b31461093857600080fd5b8063821ee8ea1461089f578063893d20e8146108b25780638b741818146108ba57600080fd5b806349403183116102ad5780636be8496f1161024b57806376a6bf521161022557806376a6bf521461085357806379b2ec12146108665780637ba706e81461087957806381ab05cb1461088c57600080fd5b80636be8496f14610818578063709a5a101461082b578063740998151461084057600080fd5b806364525a0d1161028757806364525a0d14610501578063655ae9ed1461062957806365e0bce21461063c5780636644b03b146107a557600080fd5b806349403183146104c8578063569ff3ff146104db57806359269f82146104ee57600080fd5b8063216eeebf1161031a57806338cc78be116102f457806338cc78be146104745780633da9a6001461048f578063402fbbf7146104a2578063485ca4ce146104b557600080fd5b8063216eeebf1461042d57806326802f39146104405780633178a9a91461046157600080fd5b806304302b9a146103625780630b1e17b414610392578063103f6edd146103d4578063122d93e9146103f257806316dc517e1461040757806317c51fec1461041a575b600080fd5b60008052600b60209081526000805160206150598339815191525460405160ff9091168152015b60405180910390f35b6103c46103a0366004614413565b64ffffffffff9081166000818152600b602052604090205461010090049091161490565b6040519015158152602001610389565b6103dc610b12565b60405164ffffffffff9091168152602001610389565b61040561040036600461444f565b610b9e565b005b6104056104153660046144ab565b610fe0565b6104056104283660046144ab565b611076565b61040561043b3660046144f0565b61109b565b61045361044e366004614730565b611175565b604051908152602001610389565b61040561046f366004614413565b61138c565b61047c611585565b60405161ffff9091168152602001610389565b61040561049d3660046147e7565b61160b565b6103c46104b03660046144ab565b611716565b6104056104c3366004614800565b611752565b6103c46104d63660046147e7565b611a59565b6104056104e9366004614828565b611a7e565b6103c46104fc3660046147e7565b611b45565b6105bd61050f3660046147e7565b6040805160c081018252600080825260208201819052918101829052606081018290526080810182905260a081019190915250600090815260086020908152604091829020825160c081018452905460ff8116825264ffffffffff6101008204811693830193909352600160301b81049092169281019290925265ffffffffffff600160581b820481166060840152600160881b820481166080840152600160b81b9091041660a082015290565b6040516103899190600060c08201905060ff8351168252602083015164ffffffffff80821660208501528060408601511660408501525050606083015165ffffffffffff80821660608501528060808601511660808501528060a08601511660a0850152505092915050565b610405610637366004614828565b611bd3565b61072861064a3660046144ab565b6040805160e081018252600080825260208201819052918101829052606081018290526080810182905260a0810182905260c081019190915250600091825260086020908152604080842064ffffffffff9384168552600401825292839020835160e0810185528154938416815265010000000000840460ff1692810192909252600160301b830463ffffffff1693820193909352600160501b82046001600160401b039081166060830152600160901b830465ffffffffffff166080830152600160c01b90920490911660a082015260019091015460c082015290565b6040516103899190600060e08201905064ffffffffff835116825260ff602084015116602083015263ffffffff604084015116604083015260608301516001600160401b03808216606085015265ffffffffffff60808601511660808501528060a08601511660a0850152505060c083015160c083015292915050565b6107b86107b3366004614413565b611c9a565b6040516103899190600060a08201905060ff8351168252602083015164ffffffffff80821660208501528060408601511660408501525050606083015165ffffffffffff8082166060850152806080860151166080850152505092915050565b610405610826366004614828565b611dfa565b610833611eac565b6040516103899190614845565b61040561084e3660046144ab565b611f36565b6103c46108613660046147e7565b611f5b565b6103c46108743660046144ab565b611f64565b610405610887366004614413565b612005565b61040561089a366004614890565b6121f7565b6104056108ad3660046148d2565b61246f565b6103dc61255f565b6104536108c83660046147e7565b6000908152600e602052604090205463ffffffff1690565b6104056108ee3660046147e7565b61259a565b610906610901366004614923565b6125f3565b604051610389919061498a565b6007546001600160a01b03165b6040516001600160a01b039091168152602001610389565b6103c4610946366004614413565b6126e1565b6104536109593660046147e7565b60009081526008602052604090206001015490565b61040561097c366004614828565b612729565b60028054600160f01b900460ff16146103c4565b6109a86109a33660046144ab565b6127f0565b60405161038991906149d0565b6104056109c3366004614828565b6128ee565b6005546001600160a01b0316610920565b6104056109e736600461444f565b6129b5565b6104056109fa366004614a2f565b612ab7565b610405610a0d366004614413565b612c80565b6004546001600160a01b0316610920565b6006546001600160a01b0316610920565b610920612eb2565b610405610a4a366004614a77565b612f38565b610405612fe9565b610405610a653660046147e7565b613207565b610405610a78366004614a9f565b6132bb565b6103dc610a8b366004614b66565b613387565b6103c4610a9e366004614b83565b600092835260086020908152604080852064ffffffffff9490941685526004909301905291205465010000000000900460ff90811691161490565b6103c4610ae73660046147e7565b61344f565b6103dc610afa3660046144ab565b61376a565b610405610b0d366004614b66565b61380b565b60405163e8c0cc1d60e01b81526002600482015260009073__$364aad554dc80380f414546becdd2c1584$__9063e8c0cc1d906024015b60206040518083038186803b158015610b6157600080fd5b505af4158015610b75573d6000803e3d6000fd5b505050506040513d601f19601f82011682018060405250810190610b999190614bba565b905090565b604051633b11adbf60e21b81526002600482015233602482015273__$364aad554dc80380f414546becdd2c1584$__9063ec46b6fc9060440160206040518083038186803b158015610bef57600080fd5b505af4158015610c03573d6000803e3d6000fd5b505050506040513d601f19601f82011682018060405250810190610c279190614bd7565b610c4c5760405162461bcd60e51b8152600401610c4390614bf9565b60405180910390fd5b610c55816126e1565b80610c7e575064ffffffffff8082166000818152600b6020526040902054610100900490911614155b610cd65760405162461bcd60e51b8152602060048201526024808201527f424f444b2e414f3a206f666669636572206e6565647320746f207175697420666044820152631a5c9cdd60e21b6064820152608401610c43565b6000610ce06138fc565b604051634846203760e01b815261ffff871660048201526001600160a01b03919091169063484620379060240160206040518083038186803b158015610d2557600080fd5b505afa158015610d39573d6000803e3d6000fd5b505050506040513d601f19601f82011682018060405250810190610d5d9190614c3f565b604051639289cdbf60e01b81526004810182905290915073__$94c94c1f27eaba30857c7d0c37f90b5581$__90639289cdbf9060240160206040518083038186803b158015610dab57600080fd5b505af4158015610dbf573d6000803e3d6000fd5b505050506040513d601f19601f82011682018060405250810190610de39190614c58565b61ffff16158015610e785750604051634e09ccd960e11b81526004810182905273__$94c94c1f27eaba30857c7d0c37f90b5581$__90639c1399b29060240160206040518083038186803b158015610e3a57600080fd5b505af4158015610e4e573d6000803e3d6000fd5b505050506040513d601f19601f82011682018060405250810190610e729190614c58565b61ffff16155b610ec45760405162461bcd60e51b815260206004820181905260248201527f424f442e414f3a206e6f6d696e6174696f6e206e6565647320746f20766f74656044820152606401610c43565b6040805160ff8616815264ffffffffff85811660208301528416917fd1ea0513a474f7ac542c798874891f6e26bf7577bbc178a4ca4da5a15b1d6407910160405180910390a2506040805160a08101825260ff948516815264ffffffffff928316602080830182815295851683850190815265ffffffffffff42811660608601908152600060808701818152958152600b909452959092209351845497519151955193518316600160881b0265ffffffffffff60881b1994909316600160581b0265ffffffffffff60581b19968816600160301b029690961670ffffffffffffffffffffff00000000000019929097166101000265ffffffffffff19909816981697909717959095179590951692909217179290921617905550565b73__$364aad554dc80380f414546becdd2c1584$__63427abff4600284611005613955565b6040516001600160e01b031960e086901b1681526004810193909352602483019190915264ffffffffff9081166044830152841660648201526084015b60006040518083038186803b15801561105a57600080fd5b505af415801561106e573d6000803e3d6000fd5b505050505050565b73__$364aad554dc80380f414546becdd2c1584$__638ce15845600284611005613955565b604051633b11adbf60e21b81526002600482015233602482015273__$364aad554dc80380f414546becdd2c1584$__9063ec46b6fc9060440160206040518083038186803b1580156110ec57600080fd5b505af4158015611100573d6000803e3d6000fd5b505050506040513d601f19601f820116820180604052508101906111249190614bd7565b6111405760405162461bcd60e51b8152600401610c4390614bf9565b600061116061ffff60a01b60a086901b166001600160a01b038716614c8b565b905061116e81858585611752565b5050505050565b604051633b11adbf60e21b81526002600482015233602482015260009073__$364aad554dc80380f414546becdd2c1584$__9063ec46b6fc9060440160206040518083038186803b1580156111c957600080fd5b505af41580156111dd573d6000803e3d6000fd5b505050506040513d601f19601f820116820180604052508101906112019190614bd7565b61121d5760405162461bcd60e51b8152600401610c4390614bf9565b600061122c88888888876139af565b600081815260086020526040902080549192509060ff166002146112925760405162461bcd60e51b815260206004820152601860248201527f4d4d2e45413a20766f74696e67204e4f542070617373656400000000000000006044820152606401610c43565b805464ffffffffff868116600160301b90920416146112f35760405162461bcd60e51b815260206004820152601a60248201527f4d4d2e45413a2063616c6c6572206e6f74206578656375746f720000000000006044820152606401610c43565b6112fe8888886139ec565b15611349576040516001815282907fc8744c074a42d37db7f38fa5954f2926e37ca8068b94c263efed1b4565066e469060200160405180910390a2805460ff19166006178155611380565b6040516000815282907fc8744c074a42d37db7f38fa5954f2926e37ca8068b94c263efed1b4565066e469060200160405180910390a25b50979650505050505050565b604051633b11adbf60e21b81526002600482015233602482015273__$364aad554dc80380f414546becdd2c1584$__9063ec46b6fc9060440160206040518083038186803b1580156113dd57600080fd5b505af41580156113f1573d6000803e3d6000fd5b505050506040513d601f19601f820116820180604052508101906114159190614bd7565b806114ba575073__$364aad554dc80380f414546becdd2c1584$__63fe271086600261143f613955565b6040516001600160e01b031960e085901b168152600481019290925264ffffffffff16602482015260440160206040518083038186803b15801561148257600080fd5b505af4158015611496573d6000803e3d6000fd5b505050506040513d601f19601f820116820180604052508101906114ba9190614bd7565b6114d65760405162461bcd60e51b8152600401610c4390614ca3565b604051632725ebef60e21b81526002600482015264ffffffffff8216602482015273__$364aad554dc80380f414546becdd2c1584$__90639c97afbc9060440160006040518083038186803b15801561152e57600080fd5b505af4158015611542573d6000803e3d6000fd5b505060405164ffffffffff841681527ff2735f34b69be1e6342dea95f9162f84d0db925fab655ca9f1f312ac8cbfc99d925060200190505b60405180910390a150565b60405163c2b46a8560e01b8152600c600482015260009073__$8c1a4844a0a0988ea2454cf87145a95df1$__9063c2b46a859060240160206040518083038186803b1580156115d357600080fd5b505af41580156115e7573d6000803e3d6000fd5b505050506040513d601f19601f82011682018060405250810190610b999190614c3f565b604051633b11adbf60e21b81526002600482015233602482015273__$364aad554dc80380f414546becdd2c1584$__9063ec46b6fc9060440160206040518083038186803b15801561165c57600080fd5b505af4158015611670573d6000803e3d6000fd5b505050506040513d601f19601f820116820180604052508101906116949190614bd7565b6116b05760405162461bcd60e51b8152600401610c4390614bf9565b60405163cc99e11b60e01b8152600260048201526024810182905273__$364aad554dc80380f414546becdd2c1584$__9063cc99e11b9060440160006040518083038186803b15801561170257600080fd5b505af415801561116e573d6000803e3d6000fd5b600082815260086020908152604080832064ffffffffff85168452600401909152902054600160901b900465ffffffffffff1615155b92915050565b6001546040516335d2155560e11b81523360048201526001600160a01b0390911690636ba42aaa90602401602060405180830381600087803b15801561179757600080fd5b505af11580156117ab573d6000803e3d6000fd5b505050506040513d601f19601f820116820180604052508101906117cf9190614bd7565b6117eb5760405162461bcd60e51b8152600401610c4390614cf9565b6040516392f13c3f60e01b8152600960048201526024810185905273__$8c1a4844a0a0988ea2454cf87145a95df1$__906392f13c3f9060440160206040518083038186803b15801561183d57600080fd5b505af4158015611851573d6000803e3d6000fd5b505050506040513d601f19601f820116820180604052508101906118759190614bd7565b15611a0b576000848152600860205260408120906118916138fc565b604051634846203760e01b815261ffff871660048201526001600160a01b03919091169063484620379060240160206040518083038186803b1580156118d657600080fd5b505afa1580156118ea573d6000803e3d6000fd5b505050506040513d601f19601f8201168201806040525081019061190e9190614c3f565b9050857f627d56ad3c367bb4555b0df4775ad1d2ab2781e09079a524ef0389838ded9ad382868660405161195c9392919092835264ffffffffff918216602084015216604082015260600190565b60405180910390a2604051630a489ec560e21b8152600481018390526024810182905264ffffffffff80861660448301528416606482015273__$c69e6785922941bfe0f11afdbfcce85492$__906329227b149060840160206040518083038186803b1580156119cb57600080fd5b505af41580156119df573d6000803e3d6000fd5b505050506040513d601f19601f82011682018060405250810190611a039190614bd7565b505050611a53565b60405162461bcd60e51b815260206004820152601e60248201527f4d4d2e504d3a206d6f74696f6e20616c72656164792070726f706f73656400006044820152606401610c43565b50505050565b600060025b6000928352600860205260409092205460ff908116921691909114919050565b604051633b11adbf60e21b81526002600482015233602482015273__$364aad554dc80380f414546becdd2c1584$__9063ec46b6fc9060440160206040518083038186803b158015611acf57600080fd5b505af4158015611ae3573d6000803e3d6000fd5b505050506040513d601f19601f82011682018060405250810190611b079190614bd7565b611b235760405162461bcd60e51b8152600401610c4390614bf9565b600780546001600160a01b0319166001600160a01b0392909216919091179055565b604051633f5f77cd60e01b8152600960048201526024810182905260009073__$8c1a4844a0a0988ea2454cf87145a95df1$__90633f5f77cd906044015b60206040518083038186803b158015611b9b57600080fd5b505af4158015611baf573d6000803e3d6000fd5b505050506040513d601f19601f8201168201806040525081019061174c9190614bd7565b604051633b11adbf60e21b81526002600482015233602482015273__$364aad554dc80380f414546becdd2c1584$__9063ec46b6fc9060440160206040518083038186803b158015611c2457600080fd5b505af4158015611c38573d6000803e3d6000fd5b505050506040513d601f19601f82011682018060405250810190611c5c9190614bd7565b611c785760405162461bcd60e51b8152600401610c4390614bf9565b600480546001600160a01b0319166001600160a01b0392909216919091179055565b6040805160a081018252600080825260208201819052918101829052606081018290526080810191909152600554604051639766a0b360e01b815264ffffffffff8416600482015283916001600160a01b031690639766a0b39060240160206040518083038186803b158015611d0f57600080fd5b505afa158015611d23573d6000803e3d6000fd5b505050506040513d601f19601f82011682018060405250810190611d479190614bd7565b611d885760405162461bcd60e51b8152602060048201526012602482015271191a5c9958dd1bdc881393d508195e1a5cdd60721b6044820152606401610c43565b505064ffffffffff9081166000908152600b6020908152604091829020825160a081018452905460ff811682526101008104851692820192909252600160301b82049093169183019190915265ffffffffffff600160581b820481166060840152600160881b90910416608082015290565b604051630f07232560e01b8152600260048201523360248201526001600160a01b038216604482015273__$364aad554dc80380f414546becdd2c1584$__90630f0723259060640160006040518083038186803b158015611e5a57600080fd5b505af4158015611e6e573d6000803e3d6000fd5b50506040516001600160a01b03841681527fe435cbeab64e4eae6497b9d8289704bd709d624a80704ef3ca9af777534bc6ec9250602001905061157a565b604051639857dfd560e01b8152600c600482015260609073__$8c1a4844a0a0988ea2454cf87145a95df1$__90639857dfd59060240160006040518083038186803b158015611efa57600080fd5b505af4158015611f0e573d6000803e3d6000fd5b505050506040513d6000823e601f3d908101601f19168201604052610b999190810190614d24565b73__$364aad554dc80380f414546becdd2c1584$__63d2a15ba7600284611005613955565b60006006611a5e565b604051632a3be56b60e21b8152600260048201526024810183905264ffffffffff8216604482015260009073__$364aad554dc80380f414546becdd2c1584$__9063a8ef95ac9060640160206040518083038186803b158015611fc657600080fd5b505af4158015611fda573d6000803e3d6000fd5b505050506040513d601f19601f82011682018060405250810190611ffe9190614bd7565b9392505050565b604051633b11adbf60e21b81526002600482015233602482015273__$364aad554dc80380f414546becdd2c1584$__9063ec46b6fc9060440160206040518083038186803b15801561205657600080fd5b505af415801561206a573d6000803e3d6000fd5b505050506040513d601f19601f8201168201806040525081019061208e9190614bd7565b80612133575073__$364aad554dc80380f414546becdd2c1584$__63fe27108660026120b8613955565b6040516001600160e01b031960e085901b168152600481019290925264ffffffffff16602482015260440160206040518083038186803b1580156120fb57600080fd5b505af415801561210f573d6000803e3d6000fd5b505050506040513d601f19601f820116820180604052508101906121339190614bd7565b61214f5760405162461bcd60e51b8152600401610c4390614ca3565b60405163b6e38a2960e01b81526002600482015264ffffffffff8216602482015273__$364aad554dc80380f414546becdd2c1584$__9063b6e38a299060440160006040518083038186803b1580156121a757600080fd5b505af41580156121bb573d6000803e3d6000fd5b505060405164ffffffffff841681527f8b6f40f36b4ae8cc5f55e895036457c43da4ab1f80f58c46f5ff0d72a650033b9250602001905061157a565b604051633b11adbf60e21b81526002600482015233602482015273__$364aad554dc80380f414546becdd2c1584$__9063ec46b6fc9060440160206040518083038186803b15801561224857600080fd5b505af415801561225c573d6000803e3d6000fd5b505050506040513d601f19601f820116820180604052508101906122809190614bd7565b61229c5760405162461bcd60e51b8152600401610c4390614bf9565b60008381526008602052604090208054610100900464ffffffffff166123045760405162461bcd60e51b815260206004820152601a60248201527f4d4d2e45443a206d6f74696f6e206e6f742070726f706f7365640000000000006044820152606401610c43565b805442600160881b90910465ffffffffffff1611156123655760405162461bcd60e51b815260206004820152601d60248201527f4d4d2e45443a206e6f74207265616368207368617265526567446174650000006044820152606401610c43565b60006123718285613aca565b6040805164ffffffffff8781168252861660208201526001600160401b03831681830152905191925086917fb1a13591212fd5b19c6e7f7f751202a89ab4d611159b1eac9a0882d87a26f4639181900360600190a2604051630c59d5ef60e41b815260028301600482015264ffffffffff8086166024830152841660448201526001600160401b038216606482015273__$68438f465b222e285b1fb0cc5c3aa7ceb4$__9063c59d5ef09060840160206040518083038186803b15801561243757600080fd5b505af415801561244b573d6000803e3d6000fd5b505050506040513d601f19601f8201168201806040525081019061106e9190614bd7565b61247882613bfe565b61248181613c9d565b604051636cdd0edf60e11b81526002600482015264ffffffffff851660248201526001600160a01b038416604482015273__$364aad554dc80380f414546becdd2c1584$__9063d9ba1dbe9060640160006040518083038186803b1580156124e857600080fd5b505af41580156124fc573d6000803e3d6000fd5b50506040805164ffffffffff881681526001600160a01b038781166020830152868116828401528516606082015290517f4d18c0021addc919105cb1ed2c11ad241e859cc1d9e77d4ee1d9ca2cdc1f255b9350908190036080019150a150505050565b60405163987ad15360e01b81526002600482015260009073__$364aad554dc80380f414546becdd2c1584$__9063987ad15390602401610b49565b60006125a4613955565b604051637963595360e11b8152600260048201526024810184905264ffffffffff8216604482015290915073__$364aad554dc80380f414546becdd2c1584$__9063f2c6b2a690606401611042565b60408051606080820183526000808352602083015291810191909152600083815260086020908152604080832060ff861684526003018252918290208251606081018452815463ffffffff8116825264010000000090046001600160401b031681840152600182018054855181860281018601875281815292959394938601938301828280156126d057602002820191906000526020600020906000905b82829054906101000a900464ffffffffff1664ffffffffff16815260200190600501906020826004010492830192600103820291508084116126915790505b505050505081525050905092915050565b604051633f5f77cd60e01b8152600c600482015264ffffffffff8216602482015260009073__$8c1a4844a0a0988ea2454cf87145a95df1$__90633f5f77cd90604401611b83565b604051633b11adbf60e21b81526002600482015233602482015273__$364aad554dc80380f414546becdd2c1584$__9063ec46b6fc9060440160206040518083038186803b15801561277a57600080fd5b505af415801561278e573d6000803e3d6000fd5b505050506040513d601f19601f820116820180604052508101906127b29190614bd7565b6127ce5760405162461bcd60e51b8152600401610c4390614bf9565b600580546001600160a01b0319166001600160a01b0392909216919091179055565b6040805160a0810182526000808252602082018190529181018290526060808201929092526080810191909152600083815260086020908152604080832064ffffffffff86811685526002909101835292819020815160a081018352815494851681526501000000000085046001600160401b0390811682860152600160681b86041681840152600160a81b90940463ffffffff1660608501526001810180548351818602810186019094528084529193608086019392908301828280156126d0576000918252602091829020805464ffffffffff168452908202830192909160059101808411612691579050505050505081525050905092915050565b604051633b11adbf60e21b81526002600482015233602482015273__$364aad554dc80380f414546becdd2c1584$__9063ec46b6fc9060440160206040518083038186803b15801561293f57600080fd5b505af4158015612953573d6000803e3d6000fd5b505050506040513d601f19601f820116820180604052508101906129779190614bd7565b6129935760405162461bcd60e51b8152600401610c4390614bf9565b600680546001600160a01b0319166001600160a01b0392909216919091179055565b6001546040516335d2155560e11b81523360048201526001600160a01b0390911690636ba42aaa90602401602060405180830381600087803b1580156129fa57600080fd5b505af1158015612a0e573d6000803e3d6000fd5b505050506040513d601f19601f82011682018060405250810190612a329190614bd7565b612a4e5760405162461bcd60e51b8152600401610c4390614cf9565b6040805161ffff8616602082015260ff85169181019190915264ffffffffff80841660608301528216608082015265ffffffffffff421660a082015260009060c0016040516020818303038152906040528051906020012060001c905061116e81868585611752565b604051633b11adbf60e21b81526002600482015233602482015273__$364aad554dc80380f414546becdd2c1584$__9063ec46b6fc9060440160206040518083038186803b158015612b0857600080fd5b505af4158015612b1c573d6000803e3d6000fd5b505050506040513d601f19601f82011682018060405250810190612b409190614bd7565b612b5c5760405162461bcd60e51b8152600401610c4390614bf9565b600084815260086020526040812090612b758286613aca565b6040516344608ce560e11b81526004810184905264ffffffffff8716602482015260ff861660448201526001600160401b03821660648201526084810185905290915073__$c69e6785922941bfe0f11afdbfcce85492$__906388c119ca9060a40160206040518083038186803b158015612bef57600080fd5b505af4158015612c03573d6000803e3d6000fd5b505050506040513d601f19601f82011682018060405250810190612c279190614bd7565b1561106e576040805164ffffffffff8716815260ff8616602082015290810184905286907f7d6d616d8dd56a61aaf1656d07a79f82048ceb4787ce992bdc7dca75f55a1ccc9060600160405180910390a2505050505050565b604051633b11adbf60e21b81526002600482015233602482015273__$364aad554dc80380f414546becdd2c1584$__9063ec46b6fc9060440160206040518083038186803b158015612cd157600080fd5b505af4158015612ce5573d6000803e3d6000fd5b505050506040513d601f19601f82011682018060405250810190612d099190614bd7565b612d255760405162461bcd60e51b8152600401610c4390614bf9565b612d2e816126e1565b15612eaf5764ffffffffff81166000908152600b602052604090205460ff1660011415612d845760008052600b60205260008051602061505983398151915280546affffffffff00000000000019169055612dcc565b64ffffffffff81166000908152600b602052604090205460ff1660021415612dcc5760008052600b602052600080516020615059833981519152805465ffffffffff00191690555b64ffffffffff81166000818152600b60205260409081902080546001600160b81b0319169055516392fd02df60e01b8152600c6004820152602481019190915273__$8c1a4844a0a0988ea2454cf87145a95df1$__906392fd02df9060440160206040518083038186803b158015612e4357600080fd5b505af4158015612e57573d6000803e3d6000fd5b505050506040513d601f19601f82011682018060405250810190612e7b9190614bd7565b5060405164ffffffffff8216907f129167e299de0f10ec16d80f509a04c4fc1f4a42ade5062665cb6efd8931113f90600090a25b50565b604051633c3e56c160e11b81526002600482015260009073__$364aad554dc80380f414546becdd2c1584$__9063787cad829060240160206040518083038186803b158015612f0057600080fd5b505af4158015612f14573d6000803e3d6000fd5b505050506040513d601f19601f82011682018060405250810190610b999190614dbd565b604051633b11adbf60e21b81526002600482015233602482015273__$364aad554dc80380f414546becdd2c1584$__9063ec46b6fc9060440160206040518083038186803b158015612f8957600080fd5b505af4158015612f9d573d6000803e3d6000fd5b505050506040513d601f19601f82011682018060405250810190612fc19190614bd7565b612fdd5760405162461bcd60e51b8152600401610c4390614bf9565b611a5384838584613ceb565b604051633b11adbf60e21b81526002600482015233602482015273__$364aad554dc80380f414546becdd2c1584$__9063ec46b6fc9060440160206040518083038186803b15801561303a57600080fd5b505af415801561304e573d6000803e3d6000fd5b505050506040513d601f19601f820116820180604052508101906130729190614bd7565b61308e5760405162461bcd60e51b8152600401610c4390614bf9565b600254600160f01b900460ff166001146130ea5760405162461bcd60e51b815260206004820181905260248201527f41432e6f6e6c7950656e64696e673a20446f632069732066696e616c697a65646044820152606401610c43565b60405163cc99e11b60e01b815260026004820152684174746f726e65797360b81b602482015273__$364aad554dc80380f414546becdd2c1584$__9063cc99e11b9060440160006040518083038186803b15801561314757600080fd5b505af415801561315b573d6000803e3d6000fd5b5050604051632725ebef60e21b8152600260048201526000602482015273__$364aad554dc80380f414546becdd2c1584$__9250639c97afbc915060440160006040518083038186803b1580156131b157600080fd5b505af41580156131c5573d6000803e3d6000fd5b50506002805460ff60f01b1916600160f11b17905550506040517f35012b512309c322acf68632cd6cb702ff0e1d776fbe9394e38ffc13b434fe7590600090a1565b6001546040516335d2155560e11b81523360048201526001600160a01b0390911690636ba42aaa90602401602060405180830381600087803b15801561324c57600080fd5b505af1158015613260573d6000803e3d6000fd5b505050506040513d601f19601f820116820180604052508101906132849190614bd7565b6132a05760405162461bcd60e51b8152600401610c4390614cf9565b6000908152600860205260409020805460ff19166006179055565b604051633b11adbf60e21b81526002600482015233602482015273__$364aad554dc80380f414546becdd2c1584$__9063ec46b6fc9060440160206040518083038186803b15801561330c57600080fd5b505af4158015613320573d6000803e3d6000fd5b505050506040513d601f19601f820116820180604052508101906133449190614bd7565b6133605760405162461bcd60e51b8152600401610c4390614bf9565b600061336f88888888886139af565b905061337d81898585611752565b5050505050505050565b600060ff8216600114156133c157505060008052600b60205260008051602061505983398151915254600160301b900464ffffffffff1690565b60ff8216600214156133f757505060008052600b60205260008051602061505983398151915254610100900464ffffffffff1690565b60405162461bcd60e51b815260206004820152602260248201527f424f442e77686f49733a2076616c7565206f66207469746c65206f766572666c6044820152616f7760f01b6064820152608401610c43565b919050565b604051633b11adbf60e21b81526002600482015233602482015260009073__$364aad554dc80380f414546becdd2c1584$__9063ec46b6fc9060440160206040518083038186803b1580156134a357600080fd5b505af41580156134b7573d6000803e3d6000fd5b505050506040513d601f19601f820116820180604052508101906134db9190614bd7565b6134f75760405162461bcd60e51b8152600401610c4390614bf9565b600082815260086020526040902061350e8361436b565b156135d857600061351e846143aa565b600754600554604051634f50af9160e01b815260048101869052602481018890526001600160a01b03808516604483015292831660648201529116608482015290915073__$c69e6785922941bfe0f11afdbfcce85492$__90634f50af919060a40160206040518083038186803b15801561359857600080fd5b505af41580156135ac573d6000803e3d6000fd5b505050506040513d601f19601f820116820180604052508101906135d09190614bd7565b92505061367b565b600754600554604051632de9f5b360e01b8152600481018490526001600160a01b0392831660248201529116604482015273__$c69e6785922941bfe0f11afdbfcce85492$__90632de9f5b39060640160206040518083038186803b15801561364057600080fd5b505af4158015613654573d6000803e3d6000fd5b505050506040513d601f19601f820116820180604052508101906136789190614bd7565b91505b8161371b576001810154604051637198a37f60e01b8152600481019190915273__$94c94c1f27eaba30857c7d0c37f90b5581$__90637198a37f9060240160206040518083038186803b1580156136d157600080fd5b505af41580156136e5573d6000803e3d6000fd5b505050506040513d601f19601f820116820180604052508101906137099190614bd7565b61371457600461371e565b600561371e565b60025b815460ff191660ff91909116908117825560405190815283907f09dabc8247f652d3170a3738595d35365582b55eebeee44e1059d298185264839060200160405180910390a250919050565b60008281526008602052604080822090516301cd7e5560e21b81526002909101600482015264ffffffffff8316602482015273__$68438f465b222e285b1fb0cc5c3aa7ceb4$__90630735f9549060440160206040518083038186803b1580156137d357600080fd5b505af41580156137e7573d6000803e3d6000fd5b505050506040513d601f19601f82011682018060405250810190611ffe9190614bba565b6001546040516335d2155560e11b81523360048201526001600160a01b0390911690636ba42aaa90602401602060405180830381600087803b15801561385057600080fd5b505af1158015613864573d6000803e3d6000fd5b505050506040513d601f19601f820116820180604052508101906138889190614bd7565b6138a45760405162461bcd60e51b8152600401610c4390614cf9565b60008052600b6020908152600080516020615059833981519152805460ff191660ff84169081179091556040519081527fb8601f37e3a796370ca7305c82ef56c156c4fef62313ed48a038656a3cbb1ff3910161157a565b60065460408051630bd7cecf60e21b815290516000926001600160a01b031691632f5f3b3c916004808301926020929190829003018186803b15801561394157600080fd5b505afa158015612f14573d6000803e3d6000fd5b60008054604051634de835e760e11b81523360048201526001600160a01b0390911690639bd06bce90602401602060405180830381600087803b15801561399b57600080fd5b505af1158015610b75573d6000803e3d6000fd5b600085858585856040516020016139ca959493929190614e73565b60408051601f1981840301815291905280516020909101209695505050505050565b6000805b8451811015613ac257848181518110613a0b57613a0b614f21565b60200260200101516001600160a01b0316848281518110613a2e57613a2e614f21565b6020026020010151848381518110613a4857613a48614f21565b6020026020010151604051613a5d9190614f37565b60006040518083038185875af1925050503d8060008114613a9a576040519150601f19603f3d011682016040523d82523d6000602084013e613a9f565b606091505b50508092505081613ab05750611ffe565b80613aba81614f53565b9150506139f0565b509392505050565b6001820154604051624494ab60e71b815260009173__$94c94c1f27eaba30857c7d0c37f90b5581$__9163224a558091613b0a9160040190815260200190565b60206040518083038186803b158015613b2257600080fd5b505af4158015613b36573d6000803e3d6000fd5b505050506040513d601f19601f82011682018060405250810190613b5a9190614f6e565b60ff166001141561174c576007548354604051634bc8315f60e01b815264ffffffffff85166004820152600160881b90910465ffffffffffff1660248201526001600160a01b0390911690634bc8315f9060440160206040518083038186803b158015613bc657600080fd5b505afa158015613bda573d6000803e3d6000fd5b505050506040513d601f19601f82011682018060405250810190611ffe9190614f8b565b6000546001600160a01b031615613c4f5760405162461bcd60e51b815260206004820152601560248201527430b63932b0b23c9039b2ba103932b3a1b2b73a32b960591b6044820152606401610c43565b600080546001600160a01b0319166001600160a01b0383169081179091556040519081527f318da6c7624c71cbc0afe346c9d8827f119d0ecefb241a7b0c87217a076a8e029060200161157a565b600180546001600160a01b0319166001600160a01b0383169081179091556040519081527fe513d3e0f0d0a3877029dcc588748679a7a3450ec1ec7ed56d96bd012c3e61aa9060200161157a565b613cf4836126e1565b613d835760008052600b6020526000805160206150598339815191525460ff16613d1c611585565b61ffff1610613d835760405162461bcd60e51b815260206004820152602d60248201527f424f442e6164644469726563746f723a206e756d626572206f6620646972656360448201526c746f7273206f766572666c6f7760981b6064820152608401610c43565b426000613d8e6138fc565b604051634846203760e01b8152600060048201526001600160a01b03919091169063484620379060240160206040518083038186803b158015613dd057600080fd5b505afa158015613de4573d6000803e3d6000fd5b505050506040513d601f19601f82011682018060405250810190613e089190614c3f565b6040516301cbb64760e41b81526004810182905290915060009073__$94c94c1f27eaba30857c7d0c37f90b5581$__90631cbb64709060240160206040518083038186803b158015613e5957600080fd5b505af4158015613e6d573d6000803e3d6000fd5b505050506040513d601f19601f82011682018060405250810190613e919190614fb4565b613e9f906301e13380614fdc565b613ea9908461500a565b64ffffffffff85166000908152600e60205260409081902054905162ae4af360e71b8152600481018a905291925063ffffffff169073__$94c94c1f27eaba30857c7d0c37f90b5581$__9063572579809060240160206040518083038186803b158015613f1557600080fd5b505af4158015613f29573d6000803e3d6000fd5b505050506040513d601f19601f82011682018060405250810190613f4d9190614f6e565b60ff1610613fa95760405162461bcd60e51b8152602060048201526024808201527f424f442e6164644469726563746f723a20426f617264207365657473207573656044820152630642075760e41b6064820152608401610c43565b6040805160a08101825260ff808816825264ffffffffff808a1660208085018281528a841686880190815265ffffffffffff808c16606089019081528a821660808a019081526000968752600b909552989094209651875492519151985193518516600160881b0265ffffffffffff60881b1994909516600160581b0265ffffffffffff60581b19998716600160301b029990991670ffffffffffffffffffffff00000000000019929096166101000265ffffffffffff199093169616959095171793909316919091179390931716919091179055600160ff168560ff1614156141575760008052600b60205260008051602061505983398151915254600160301b900464ffffffffff166140f65760008052600b60205260008051602061505983398151915280546affffffffff0000000000001916600160301b64ffffffffff891602179055614228565b60405162461bcd60e51b815260206004820152603060248201527f424f442e6164644469726563746f723a2043686169726d616e277320706f736960448201526f1d1a5bdb881a5cc81bd8d8dd5c1a595960821b6064820152608401610c43565b60ff8516600214156142285760008052600b60205260008051602061505983398151915254610100900464ffffffffff166141c35760008052600b602052600080516020615059833981519152805465ffffffffff00191661010064ffffffffff891602179055614228565b60405162461bcd60e51b815260206004820152603460248201527f424f442e6164644469726563746f723a205669636543686169726d616e2773206044820152731c1bdcda5d1a5bdb881a5cc81bd8d8dd5c1a595960621b6064820152608401610c43565b6040516392f13c3f60e01b8152600c600482015264ffffffffff8716602482015273__$8c1a4844a0a0988ea2454cf87145a95df1$__906392f13c3f9060440160206040518083038186803b15801561428057600080fd5b505af4158015614294573d6000803e3d6000fd5b505050506040513d601f19601f820116820180604052508101906142b89190614bd7565b15614362576040805160ff8716815264ffffffffff868116602083015265ffffffffffff86811683850152841660608301529151918816917feb24dd82cd757c6c1ee6f16772513fc8eb118695ce3373185a3f3400872db2c49181900360800190a264ffffffffff84166000908152600e60205260408120805463ffffffff169161434283615034565b91906101000a81548163ffffffff021916908363ffffffff160217905550505b50505050505050565b600060a082901c82158015614384575060008161ffff16115b8015614395575060108161ffff1611155b80156143a3575060b083901c155b5050919050565b600060a082901c600861ffff821614806143c857508061ffff166010145b156143e0576006546001600160a01b031691506143ef565b6004546001600160a01b031691505b50919050565b64ffffffffff81168114612eaf57600080fd5b803561344a816143f5565b60006020828403121561442557600080fd5b8135611ffe816143f5565b61ffff81168114612eaf57600080fd5b60ff81168114612eaf57600080fd5b6000806000806080858703121561446557600080fd5b843561447081614430565b9350602085013561448081614440565b92506040850135614490816143f5565b915060608501356144a0816143f5565b939692955090935050565b600080604083850312156144be57600080fd5b8235915060208301356144d0816143f5565b809150509250929050565b6001600160a01b0381168114612eaf57600080fd5b6000806000806080858703121561450657600080fd5b8435614511816144db565b9350602085013561448081614430565b634e487b7160e01b600052604160045260246000fd5b604051601f8201601f191681016001600160401b038111828210171561455f5761455f614521565b604052919050565b60006001600160401b0382111561458057614580614521565b5060051b60200190565b600082601f83011261459b57600080fd5b813560206145b06145ab83614567565b614537565b82815260059290921b840181019181810190868411156145cf57600080fd5b8286015b848110156145f35780356145e6816144db565b83529183019183016145d3565b509695505050505050565b600082601f83011261460f57600080fd5b8135602061461f6145ab83614567565b82815260059290921b8401810191818101908684111561463e57600080fd5b8286015b848110156145f35780358352918301918301614642565b6000601f838184011261466b57600080fd5b8235602061467b6145ab83614567565b82815260059290921b8501810191818101908784111561469a57600080fd5b8287015b848110156113805780356001600160401b03808211156146be5760008081fd5b818a0191508a603f8301126146d35760008081fd5b858201356040828211156146e9576146e9614521565b6146fa828b01601f19168901614537565b92508183528c818386010111156147115760008081fd5b818185018985013750600090820187015284525091830191830161469e565b60008060008060008060c0878903121561474957600080fd5b863561475481614430565b955060208701356001600160401b038082111561477057600080fd5b61477c8a838b0161458a565b9650604089013591508082111561479257600080fd5b61479e8a838b016145fe565b955060608901359150808211156147b457600080fd5b506147c189828a01614659565b93505060808701356147d2816143f5565b8092505060a087013590509295509295509295565b6000602082840312156147f957600080fd5b5035919050565b6000806000806080858703121561481657600080fd5b84359350602085013561448081614430565b60006020828403121561483a57600080fd5b8135611ffe816144db565b6020808252825182820181905260009190848201906040850190845b8181101561488457835164ffffffffff1683529284019291840191600101614861565b50909695505050505050565b6000806000606084860312156148a557600080fd5b8335925060208401356148b7816143f5565b915060408401356148c7816143f5565b809150509250925092565b600080600080608085870312156148e857600080fd5b84356148f3816143f5565b93506020850135614903816144db565b92506040850135614913816144db565b915060608501356144a0816144db565b6000806040838503121561493657600080fd5b8235915060208301356144d081614440565b600081518084526020808501945080840160005b8381101561497f57815164ffffffffff168752958201959082019060010161495c565b509495945050505050565b6020815263ffffffff82511660208201526001600160401b036020830151166040820152600060408301516060808401526149c86080840182614948565b949350505050565b6020815264ffffffffff8251166020820152600060208301516001600160401b038082166040850152806040860151166060850152505063ffffffff6060840151166080830152608083015160a0808401526149c860c0840182614948565b60008060008060808587031215614a4557600080fd5b843593506020850135614a57816143f5565b92506040850135614a6781614440565b9396929550929360600135925050565b60008060008060808587031215614a8d57600080fd5b84359350602085013561448081614440565b600080600080600080600060e0888a031215614aba57600080fd5b8735614ac581614430565b965060208801356001600160401b0380821115614ae157600080fd5b614aed8b838c0161458a565b975060408a0135915080821115614b0357600080fd5b614b0f8b838c016145fe565b965060608a0135915080821115614b2557600080fd5b50614b328a828b01614659565b9450506080880135925060a0880135614b4a816143f5565b9150614b5860c08901614408565b905092959891949750929550565b600060208284031215614b7857600080fd5b8135611ffe81614440565b600080600060608486031215614b9857600080fd5b833592506020840135614baa816143f5565b915060408401356148c781614440565b600060208284031215614bcc57600080fd5b8151611ffe816143f5565b600060208284031215614be957600080fd5b81518015158114611ffe57600080fd5b60208082526026908201527f41432e6f6e6c794469726563744b65657065723a206e6f74206469726563742060408201526535b2b2b832b960d11b606082015260800190565b600060208284031215614c5157600080fd5b5051919050565b600060208284031215614c6a57600080fd5b8151611ffe81614430565b634e487b7160e01b600052601160045260246000fd5b60008219821115614c9e57614c9e614c75565b500190565b60208082526036908201527f41432e6f776e65724f72446972656374426f6f6b65657065723a206e6569746860408201527532b91037bbb732b9103737b9103137b7b5b2b2b832b960511b606082015260800190565b60208082526011908201527020a19737b59d103737ba1025b2b2b832b960791b604082015260600190565b60006020808385031215614d3757600080fd5b82516001600160401b03811115614d4d57600080fd5b8301601f81018513614d5e57600080fd5b8051614d6c6145ab82614567565b81815260059190911b82018301908381019087831115614d8b57600080fd5b928401925b82841015614db2578351614da3816143f5565b82529284019290840190614d90565b979650505050505050565b600060208284031215614dcf57600080fd5b8151611ffe816144db565b60005b83811015614df5578181015183820152602001614ddd565b83811115611a535750506000910152565b600081518084526020808501808196508360051b8101915082860160005b85811015614e6657828403895281518051808652614e4781888801898501614dda565b99860199601f01601f1916949094018501935090840190600101614e24565b5091979650505050505050565b600060a0820161ffff88168352602060a08185015281885180845260c086019150828a01935060005b81811015614ec15784516001600160a01b031683529383019391830191600101614e9c565b50508481036040860152875180825290820192508188019060005b81811015614ef857825185529383019391830191600101614edc565b505050508281036060840152614f0e8186614e06565b9150508260808301529695505050505050565b634e487b7160e01b600052603260045260246000fd5b60008251614f49818460208701614dda565b9190910192915050565b6000600019821415614f6757614f67614c75565b5060010190565b600060208284031215614f8057600080fd5b8151611ffe81614440565b600060208284031215614f9d57600080fd5b81516001600160401b0381168114611ffe57600080fd5b600060208284031215614fc657600080fd5b815165ffffffffffff81168114611ffe57600080fd5b600065ffffffffffff8083168185168183048111821515161561500157615001614c75565b02949350505050565b600065ffffffffffff80831681851680830382111561502b5761502b614c75565b01949350505050565b600063ffffffff8083168181141561504e5761504e614c75565b600101939250505056fedf7de25b7f1fd6d0b5205f0e18f1f35bd7b8d84cce336588d184533ce43a6f76a264697066735822122050fb78024f8f461a9d30f3060f8df4ec6c6308d65d1be970400503fd0acbd06264736f6c63430008080033",
    "sourcePath": "/Users/kaptain/github.com/hardhat/comboox/contracts/books/bod/BookOfDirectors.sol",
    "compiler": {
        "name": "solc",
        "version": "0.8.8+commit.dddeac2f"
    },
    "functionHashes": {
        "abandonRole(bytes32)": "3da9a600",
        "appointOfficer(uint16,uint8,uint40,uint40)": "122d93e9",
        "boaAddr()": "e10f01c7",
        "boardSeatsOf(uint256)": "8b741818",
        "bodAddr()": "bbd8b649",
        "bohAddr()": "ed194c88",
        "castVote(uint256,uint40,uint8,bytes32)": "cba36bf3",
        "directors()": "709a5a10",
        "entrustDelegate(uint256,uint40,uint40)": "81ab05cb",
        "execAction(uint16,address[],uint256[],bytes[],uint40,bytes32)": "26802f39",
        "finalized()": "b3f05b97",
        "getBallot(uint256,uint40)": "65e0bce2",
        "getBookeeper()": "ed211023",
        "getCaseOfAttitude(uint256,uint8)": "8d5b6585",
        "getDelegateOf(uint256,uint40)": "fd8f19c2",
        "getDirector(uint40)": "6644b03b",
        "getGeneralCounsel()": "103f6edd",
        "getHeadOfMotion(uint256)": "64525a0d",
        "getOwner()": "893d20e8",
        "getVoterOfDelegateMap(uint256,uint40)": "b801769d",
        "getVotingRuleOfMotion(uint256)": "aaf7bfc6",
        "grantRole(bytes32,uint40)": "74099815",
        "hasRole(bytes32,uint40)": "79b2ec12",
        "init(uint40,address,address,address)": "821ee8ea",
        "isDirector(uint40)": "9766a0b3",
        "isExecuted(uint256)": "76a6bf52",
        "isOfficer(uint40)": "0b1e17b4",
        "isPassed(uint256)": "49403183",
        "isProposed(uint256)": "59269f82",
        "isVoted(uint256,uint40)": "402fbbf7",
        "isVotedFor(uint256,uint40,uint8)": "f755c003",
        "lockContents()": "f045a769",
        "maxQtyOfDirectors()": "04302b9a",
        "motionExecuted(uint256)": "f117bdb7",
        "nominateOfficer(uint16,uint8,uint40,uint40)": "bf0d4ace",
        "proposeAction(uint16,address[],uint256[],bytes[],bytes32,uint40,uint40)": "f3c54fac",
        "proposeDoc(address,uint16,uint40,uint40)": "216eeebf",
        "proposeMotion(uint256,uint16,uint40,uint40)": "485ca4ce",
        "qtyOfDirectors()": "38cc78be",
        "removeDirector(uint40)": "db34d934",
        "renounceRole(bytes32)": "8bb9c5bf",
        "revokeRole(bytes32,uint40)": "17c51fec",
        "romAddr()": "916d953c",
        "setBOA(address)": "655ae9ed",
        "setBOD(address)": "ae26d1d0",
        "setBOH(address)": "ba6bd79b",
        "setDirectKeeper(address)": "6be8496f",
        "setGeneralCounsel(uint40)": "3178a9a9",
        "setMaxQtyOfDirectors(uint8)": "ff77c055",
        "setOwner(uint40)": "7ba706e8",
        "setROM(address)": "569ff3ff",
        "setRoleAdmin(bytes32,uint40)": "16dc517e",
        "takePosition(bytes32,uint8,uint40,uint40)": "ee7c1be1",
        "voteCounting(uint256)": "f8fb9e1d",
        "whoIs(uint8)": "f5efdb26"
    },
    "gasEstimates": {
        "creation": {
            "codeDepositCost": "4130800",
            "executionCost": "4742",
            "totalCost": "4135542"
        },
        "external": {
            "abandonRole(bytes32)": "infinite",
            "appointOfficer(uint16,uint8,uint40,uint40)": "infinite",
            "boaAddr()": "2443",
            "boardSeatsOf(uint256)": "2557",
            "bodAddr()": "2442",
            "bohAddr()": "2398",
            "castVote(uint256,uint40,uint8,bytes32)": "infinite",
            "directors()": "infinite",
            "entrustDelegate(uint256,uint40,uint40)": "infinite",
            "execAction(uint16,address[],uint256[],bytes[],uint40,bytes32)": "infinite",
            "finalized()": "2439",
            "getBallot(uint256,uint40)": "5550",
            "getBookeeper()": "infinite",
            "getCaseOfAttitude(uint256,uint8)": "infinite",
            "getDelegateOf(uint256,uint40)": "infinite",
            "getDirector(uint40)": "infinite",
            "getGeneralCounsel()": "infinite",
            "getHeadOfMotion(uint256)": "3141",
            "getOwner()": "infinite",
            "getVoterOfDelegateMap(uint256,uint40)": "infinite",
            "getVotingRuleOfMotion(uint256)": "2512",
            "grantRole(bytes32,uint40)": "infinite",
            "hasRole(bytes32,uint40)": "infinite",
            "init(uint40,address,address,address)": "infinite",
            "isDirector(uint40)": "infinite",
            "isExecuted(uint256)": "2579",
            "isOfficer(uint40)": "2611",
            "isPassed(uint256)": "2570",
            "isProposed(uint256)": "infinite",
            "isVoted(uint256,uint40)": "2783",
            "isVotedFor(uint256,uint40,uint8)": "infinite",
            "lockContents()": "infinite",
            "maxQtyOfDirectors()": "infinite",
            "motionExecuted(uint256)": "infinite",
            "nominateOfficer(uint16,uint8,uint40,uint40)": "infinite",
            "proposeAction(uint16,address[],uint256[],bytes[],bytes32,uint40,uint40)": "infinite",
            "proposeDoc(address,uint16,uint40,uint40)": "infinite",
            "proposeMotion(uint256,uint16,uint40,uint40)": "infinite",
            "qtyOfDirectors()": "infinite",
            "removeDirector(uint40)": "infinite",
            "renounceRole(bytes32)": "infinite",
            "revokeRole(bytes32,uint40)": "infinite",
            "romAddr()": "2432",
            "setBOA(address)": "infinite",
            "setBOD(address)": "infinite",
            "setBOH(address)": "infinite",
            "setDirectKeeper(address)": "infinite",
            "setGeneralCounsel(uint40)": "infinite",
            "setMaxQtyOfDirectors(uint8)": "infinite",
            "setOwner(uint40)": "infinite",
            "setROM(address)": "infinite",
            "setRoleAdmin(bytes32,uint40)": "infinite",
            "takePosition(bytes32,uint8,uint40,uint40)": "infinite",
            "voteCounting(uint256)": "infinite",
            "whoIs(uint8)": "infinite"
        },
        "internal": {
            "_addDirector(bytes32,uint40,uint8,uint40)": "infinite"
        }
    }
}