{
    "contractName": "BookOfDirectors",
    "abi": [
        {
            "anonymous": false,
            "inputs": [
                {
                    "indexed": true,
                    "internalType": "bytes32",
                    "name": "snOfPos",
                    "type": "bytes32"
                }
            ],
            "name": "AddPosition",
            "type": "event"
        },
        {
            "anonymous": false,
            "inputs": [
                {
                    "indexed": true,
                    "internalType": "uint256",
                    "name": "seqOfMotion",
                    "type": "uint256"
                },
                {
                    "indexed": true,
                    "internalType": "uint256",
                    "name": "caller",
                    "type": "uint256"
                },
                {
                    "indexed": true,
                    "internalType": "uint256",
                    "name": "attitude",
                    "type": "uint256"
                },
                {
                    "indexed": false,
                    "internalType": "bytes32",
                    "name": "sigHash",
                    "type": "bytes32"
                }
            ],
            "name": "CastVoteInBoardMeeting",
            "type": "event"
        },
        {
            "anonymous": false,
            "inputs": [
                {
                    "indexed": true,
                    "internalType": "uint256",
                    "name": "seqOfMotion",
                    "type": "uint256"
                },
                {
                    "indexed": true,
                    "internalType": "uint256",
                    "name": "caller",
                    "type": "uint256"
                },
                {
                    "indexed": true,
                    "internalType": "uint256",
                    "name": "attitude",
                    "type": "uint256"
                },
                {
                    "indexed": false,
                    "internalType": "bytes32",
                    "name": "sigHash",
                    "type": "bytes32"
                }
            ],
            "name": "CastVoteInGeneralMeeting",
            "type": "event"
        },
        {
            "anonymous": false,
            "inputs": [
                {
                    "indexed": true,
                    "internalType": "bytes32",
                    "name": "snOfMotion",
                    "type": "bytes32"
                },
                {
                    "indexed": true,
                    "internalType": "uint256",
                    "name": "contents",
                    "type": "uint256"
                }
            ],
            "name": "CreateMotion",
            "type": "event"
        },
        {
            "anonymous": false,
            "inputs": [
                {
                    "indexed": true,
                    "internalType": "uint256",
                    "name": "seqOfMotion",
                    "type": "uint256"
                },
                {
                    "indexed": true,
                    "internalType": "uint256",
                    "name": "delegate",
                    "type": "uint256"
                },
                {
                    "indexed": true,
                    "internalType": "uint256",
                    "name": "principal",
                    "type": "uint256"
                }
            ],
            "name": "EntrustDelegate",
            "type": "event"
        },
        {
            "anonymous": false,
            "inputs": [
                {
                    "indexed": true,
                    "internalType": "uint256",
                    "name": "seqOfMotion",
                    "type": "uint256"
                },
                {
                    "indexed": true,
                    "internalType": "uint256",
                    "name": "caller",
                    "type": "uint256"
                }
            ],
            "name": "ExecResolution",
            "type": "event"
        },
        {
            "anonymous": false,
            "inputs": [
                {
                    "indexed": true,
                    "internalType": "uint256",
                    "name": "owner",
                    "type": "uint256"
                },
                {
                    "indexed": true,
                    "internalType": "address",
                    "name": "directKeeper",
                    "type": "address"
                },
                {
                    "indexed": false,
                    "internalType": "address",
                    "name": "regCenter",
                    "type": "address"
                },
                {
                    "indexed": true,
                    "internalType": "address",
                    "name": "generalKeeper",
                    "type": "address"
                }
            ],
            "name": "Init",
            "type": "event"
        },
        {
            "anonymous": false,
            "inputs": [],
            "name": "LockContents",
            "type": "event"
        },
        {
            "anonymous": false,
            "inputs": [
                {
                    "indexed": true,
                    "internalType": "uint256",
                    "name": "seqOfMotion",
                    "type": "uint256"
                },
                {
                    "indexed": true,
                    "internalType": "uint256",
                    "name": "proposer",
                    "type": "uint256"
                }
            ],
            "name": "ProposeMotionToBoard",
            "type": "event"
        },
        {
            "anonymous": false,
            "inputs": [
                {
                    "indexed": true,
                    "internalType": "uint256",
                    "name": "seqOfMotion",
                    "type": "uint256"
                },
                {
                    "indexed": true,
                    "internalType": "uint256",
                    "name": "proposer",
                    "type": "uint256"
                }
            ],
            "name": "ProposeMotionToGeneralMeeting",
            "type": "event"
        },
        {
            "anonymous": false,
            "inputs": [
                {
                    "indexed": true,
                    "internalType": "uint256",
                    "name": "seqOfPos",
                    "type": "uint256"
                },
                {
                    "indexed": true,
                    "internalType": "uint256",
                    "name": "caller",
                    "type": "uint256"
                }
            ],
            "name": "QuitPosition",
            "type": "event"
        },
        {
            "anonymous": false,
            "inputs": [
                {
                    "indexed": true,
                    "internalType": "address",
                    "name": "target",
                    "type": "address"
                }
            ],
            "name": "RemoveDirectKeeper",
            "type": "event"
        },
        {
            "anonymous": false,
            "inputs": [
                {
                    "indexed": true,
                    "internalType": "uint256",
                    "name": "seqOfPos",
                    "type": "uint256"
                }
            ],
            "name": "RemoveOfficer",
            "type": "event"
        },
        {
            "anonymous": false,
            "inputs": [
                {
                    "indexed": true,
                    "internalType": "uint256",
                    "name": "seqOfPos",
                    "type": "uint256"
                }
            ],
            "name": "RemovePosition",
            "type": "event"
        },
        {
            "anonymous": false,
            "inputs": [
                {
                    "indexed": true,
                    "internalType": "address",
                    "name": "keeper",
                    "type": "address"
                }
            ],
            "name": "SetDirectKeeper",
            "type": "event"
        },
        {
            "anonymous": false,
            "inputs": [
                {
                    "indexed": true,
                    "internalType": "uint256",
                    "name": "acct",
                    "type": "uint256"
                }
            ],
            "name": "SetGeneralCounsel",
            "type": "event"
        },
        {
            "anonymous": false,
            "inputs": [
                {
                    "indexed": true,
                    "internalType": "uint256",
                    "name": "acct",
                    "type": "uint256"
                }
            ],
            "name": "SetOwner",
            "type": "event"
        },
        {
            "anonymous": false,
            "inputs": [
                {
                    "indexed": true,
                    "internalType": "uint256",
                    "name": "seqOfPos",
                    "type": "uint256"
                },
                {
                    "indexed": true,
                    "internalType": "uint256",
                    "name": "caller",
                    "type": "uint256"
                }
            ],
            "name": "TakePosition",
            "type": "event"
        },
        {
            "anonymous": false,
            "inputs": [
                {
                    "indexed": true,
                    "internalType": "uint256",
                    "name": "seqOfMotion",
                    "type": "uint256"
                },
                {
                    "indexed": true,
                    "internalType": "uint8",
                    "name": "result",
                    "type": "uint8"
                }
            ],
            "name": "VoteCounting",
            "type": "event"
        },
        {
            "inputs": [
                {
                    "internalType": "bytes32",
                    "name": "role",
                    "type": "bytes32"
                }
            ],
            "name": "abandonRole",
            "outputs": [],
            "stateMutability": "nonpayable",
            "type": "function"
        },
        {
            "inputs": [
                {
                    "internalType": "uint256",
                    "name": "seqOfMotion",
                    "type": "uint256"
                },
                {
                    "internalType": "uint256",
                    "name": "attitude",
                    "type": "uint256"
                },
                {
                    "internalType": "bytes32",
                    "name": "sigHash",
                    "type": "bytes32"
                },
                {
                    "internalType": "uint256",
                    "name": "caller",
                    "type": "uint256"
                }
            ],
            "name": "castVoteInBoardMeeting",
            "outputs": [],
            "stateMutability": "nonpayable",
            "type": "function"
        },
        {
            "inputs": [
                {
                    "internalType": "uint256",
                    "name": "seqOfMotion",
                    "type": "uint256"
                },
                {
                    "internalType": "uint256",
                    "name": "attitude",
                    "type": "uint256"
                },
                {
                    "internalType": "bytes32",
                    "name": "sigHash",
                    "type": "bytes32"
                },
                {
                    "internalType": "uint256",
                    "name": "caller",
                    "type": "uint256"
                }
            ],
            "name": "castVoteInGeneralMeeting",
            "outputs": [],
            "stateMutability": "nonpayable",
            "type": "function"
        },
        {
            "inputs": [
                {
                    "internalType": "uint256",
                    "name": "seqOfVR",
                    "type": "uint256"
                },
                {
                    "internalType": "address[]",
                    "name": "targets",
                    "type": "address[]"
                },
                {
                    "internalType": "uint256[]",
                    "name": "values",
                    "type": "uint256[]"
                },
                {
                    "internalType": "bytes[]",
                    "name": "params",
                    "type": "bytes[]"
                },
                {
                    "internalType": "bytes32",
                    "name": "desHash",
                    "type": "bytes32"
                },
                {
                    "internalType": "uint256",
                    "name": "executor",
                    "type": "uint256"
                },
                {
                    "internalType": "uint256",
                    "name": "proposer",
                    "type": "uint256"
                }
            ],
            "name": "createAction",
            "outputs": [
                {
                    "internalType": "uint64",
                    "name": "",
                    "type": "uint64"
                }
            ],
            "stateMutability": "nonpayable",
            "type": "function"
        },
        {
            "inputs": [
                {
                    "internalType": "address",
                    "name": "doc",
                    "type": "address"
                },
                {
                    "internalType": "uint256",
                    "name": "seqOfVR",
                    "type": "uint256"
                },
                {
                    "internalType": "uint256",
                    "name": "executor",
                    "type": "uint256"
                },
                {
                    "internalType": "uint256",
                    "name": "proposer",
                    "type": "uint256"
                }
            ],
            "name": "createMotionToApproveDoc",
            "outputs": [
                {
                    "internalType": "uint64",
                    "name": "",
                    "type": "uint64"
                }
            ],
            "stateMutability": "nonpayable",
            "type": "function"
        },
        {
            "inputs": [
                {
                    "internalType": "uint256",
                    "name": "seqOfPos",
                    "type": "uint256"
                },
                {
                    "internalType": "uint256",
                    "name": "seqOfVR",
                    "type": "uint256"
                },
                {
                    "internalType": "uint256",
                    "name": "nominator",
                    "type": "uint256"
                }
            ],
            "name": "createMotionToRemoveOfficer",
            "outputs": [
                {
                    "internalType": "uint64",
                    "name": "",
                    "type": "uint64"
                }
            ],
            "stateMutability": "nonpayable",
            "type": "function"
        },
        {
            "inputs": [
                {
                    "internalType": "bytes32",
                    "name": "snOfPos",
                    "type": "bytes32"
                }
            ],
            "name": "createPosition",
            "outputs": [],
            "stateMutability": "nonpayable",
            "type": "function"
        },
        {
            "inputs": [
                {
                    "internalType": "uint256",
                    "name": "seqOfMotion",
                    "type": "uint256"
                },
                {
                    "internalType": "uint256",
                    "name": "delegate",
                    "type": "uint256"
                },
                {
                    "internalType": "uint256",
                    "name": "principal",
                    "type": "uint256"
                }
            ],
            "name": "entrustDelegate",
            "outputs": [],
            "stateMutability": "nonpayable",
            "type": "function"
        },
        {
            "inputs": [
                {
                    "internalType": "uint256",
                    "name": "seqOfVR",
                    "type": "uint256"
                },
                {
                    "internalType": "address[]",
                    "name": "targets",
                    "type": "address[]"
                },
                {
                    "internalType": "uint256[]",
                    "name": "values",
                    "type": "uint256[]"
                },
                {
                    "internalType": "bytes[]",
                    "name": "params",
                    "type": "bytes[]"
                },
                {
                    "internalType": "bytes32",
                    "name": "desHash",
                    "type": "bytes32"
                },
                {
                    "internalType": "uint256",
                    "name": "seqOfMotion",
                    "type": "uint256"
                },
                {
                    "internalType": "uint256",
                    "name": "caller",
                    "type": "uint256"
                }
            ],
            "name": "execAction",
            "outputs": [
                {
                    "internalType": "uint256",
                    "name": "contents",
                    "type": "uint256"
                }
            ],
            "stateMutability": "nonpayable",
            "type": "function"
        },
        {
            "inputs": [
                {
                    "internalType": "uint256",
                    "name": "seqOfMotion",
                    "type": "uint256"
                },
                {
                    "internalType": "uint256",
                    "name": "contents",
                    "type": "uint256"
                },
                {
                    "internalType": "uint256",
                    "name": "caller",
                    "type": "uint256"
                }
            ],
            "name": "execResolution",
            "outputs": [],
            "stateMutability": "nonpayable",
            "type": "function"
        },
        {
            "inputs": [],
            "name": "finalized",
            "outputs": [
                {
                    "internalType": "bool",
                    "name": "",
                    "type": "bool"
                }
            ],
            "stateMutability": "view",
            "type": "function"
        },
        {
            "inputs": [
                {
                    "internalType": "uint256",
                    "name": "seqOfMotion",
                    "type": "uint256"
                },
                {
                    "internalType": "uint256",
                    "name": "acct",
                    "type": "uint256"
                }
            ],
            "name": "getBallot",
            "outputs": [
                {
                    "components": [
                        {
                            "internalType": "uint40",
                            "name": "acct",
                            "type": "uint40"
                        },
                        {
                            "internalType": "uint8",
                            "name": "attitude",
                            "type": "uint8"
                        },
                        {
                            "internalType": "uint32",
                            "name": "head",
                            "type": "uint32"
                        },
                        {
                            "internalType": "uint64",
                            "name": "weight",
                            "type": "uint64"
                        },
                        {
                            "internalType": "uint48",
                            "name": "sigDate",
                            "type": "uint48"
                        },
                        {
                            "internalType": "uint64",
                            "name": "blocknumber",
                            "type": "uint64"
                        },
                        {
                            "internalType": "bytes32",
                            "name": "sigHash",
                            "type": "bytes32"
                        }
                    ],
                    "internalType": "struct BallotsBox.Ballot",
                    "name": "",
                    "type": "tuple"
                }
            ],
            "stateMutability": "view",
            "type": "function"
        },
        {
            "inputs": [
                {
                    "internalType": "uint256",
                    "name": "acct",
                    "type": "uint256"
                }
            ],
            "name": "getBoardSeatsOccupied",
            "outputs": [
                {
                    "internalType": "uint256",
                    "name": "",
                    "type": "uint256"
                }
            ],
            "stateMutability": "view",
            "type": "function"
        },
        {
            "inputs": [],
            "name": "getBookeeper",
            "outputs": [
                {
                    "internalType": "address",
                    "name": "",
                    "type": "address"
                }
            ],
            "stateMutability": "view",
            "type": "function"
        },
        {
            "inputs": [
                {
                    "internalType": "uint256",
                    "name": "seqOfMotion",
                    "type": "uint256"
                },
                {
                    "internalType": "uint256",
                    "name": "atti",
                    "type": "uint256"
                }
            ],
            "name": "getCaseOfAttitude",
            "outputs": [
                {
                    "components": [
                        {
                            "internalType": "uint32",
                            "name": "sumOfHead",
                            "type": "uint32"
                        },
                        {
                            "internalType": "uint64",
                            "name": "sumOfWeight",
                            "type": "uint64"
                        },
                        {
                            "internalType": "uint256[]",
                            "name": "voters",
                            "type": "uint256[]"
                        }
                    ],
                    "internalType": "struct BallotsBox.Case",
                    "name": "",
                    "type": "tuple"
                }
            ],
            "stateMutability": "view",
            "type": "function"
        },
        {
            "inputs": [
                {
                    "internalType": "uint256",
                    "name": "seqOfMotion",
                    "type": "uint256"
                },
                {
                    "internalType": "uint256",
                    "name": "acct",
                    "type": "uint256"
                }
            ],
            "name": "getDelegateOf",
            "outputs": [
                {
                    "internalType": "uint256",
                    "name": "",
                    "type": "uint256"
                }
            ],
            "stateMutability": "view",
            "type": "function"
        },
        {
            "inputs": [],
            "name": "getDirectorsList",
            "outputs": [
                {
                    "internalType": "uint256[]",
                    "name": "",
                    "type": "uint256[]"
                }
            ],
            "stateMutability": "view",
            "type": "function"
        },
        {
            "inputs": [],
            "name": "getDirectorsPosList",
            "outputs": [
                {
                    "internalType": "uint256[]",
                    "name": "",
                    "type": "uint256[]"
                }
            ],
            "stateMutability": "view",
            "type": "function"
        },
        {
            "inputs": [],
            "name": "getGeneralCounsel",
            "outputs": [
                {
                    "internalType": "uint40",
                    "name": "",
                    "type": "uint40"
                }
            ],
            "stateMutability": "view",
            "type": "function"
        },
        {
            "inputs": [
                {
                    "internalType": "uint256",
                    "name": "seqOfMotion",
                    "type": "uint256"
                },
                {
                    "internalType": "uint256",
                    "name": "caller",
                    "type": "uint256"
                },
                {
                    "internalType": "contract IBookOfDirectors",
                    "name": "_bod",
                    "type": "address"
                }
            ],
            "name": "getLeavesHeadcountOfDirectors",
            "outputs": [
                {
                    "internalType": "uint32",
                    "name": "head",
                    "type": "uint32"
                }
            ],
            "stateMutability": "view",
            "type": "function"
        },
        {
            "inputs": [
                {
                    "internalType": "uint256",
                    "name": "seqOfMotion",
                    "type": "uint256"
                },
                {
                    "internalType": "uint256",
                    "name": "caller",
                    "type": "uint256"
                },
                {
                    "internalType": "uint256",
                    "name": "baseDate",
                    "type": "uint256"
                },
                {
                    "internalType": "contract IRegisterOfMembers",
                    "name": "_rom",
                    "type": "address"
                }
            ],
            "name": "getLeavesWeightAtDate",
            "outputs": [
                {
                    "components": [
                        {
                            "internalType": "uint64",
                            "name": "weight",
                            "type": "uint64"
                        },
                        {
                            "internalType": "uint32",
                            "name": "emptyHead",
                            "type": "uint32"
                        }
                    ],
                    "internalType": "struct DelegateMap.LeavesInfo",
                    "name": "info",
                    "type": "tuple"
                }
            ],
            "stateMutability": "view",
            "type": "function"
        },
        {
            "inputs": [],
            "name": "getManagersList",
            "outputs": [
                {
                    "internalType": "uint256[]",
                    "name": "",
                    "type": "uint256[]"
                }
            ],
            "stateMutability": "view",
            "type": "function"
        },
        {
            "inputs": [],
            "name": "getManagersPosList",
            "outputs": [
                {
                    "internalType": "uint256[]",
                    "name": "",
                    "type": "uint256[]"
                }
            ],
            "stateMutability": "view",
            "type": "function"
        },
        {
            "inputs": [
                {
                    "internalType": "uint256",
                    "name": "seqOfMotion",
                    "type": "uint256"
                }
            ],
            "name": "getMotion",
            "outputs": [
                {
                    "components": [
                        {
                            "components": [
                                {
                                    "internalType": "uint16",
                                    "name": "typeOfMotion",
                                    "type": "uint16"
                                },
                                {
                                    "internalType": "uint64",
                                    "name": "seqOfMotion",
                                    "type": "uint64"
                                },
                                {
                                    "internalType": "uint16",
                                    "name": "seqOfVR",
                                    "type": "uint16"
                                },
                                {
                                    "internalType": "uint40",
                                    "name": "creator",
                                    "type": "uint40"
                                },
                                {
                                    "internalType": "uint40",
                                    "name": "executor",
                                    "type": "uint40"
                                },
                                {
                                    "internalType": "uint48",
                                    "name": "createDate",
                                    "type": "uint48"
                                },
                                {
                                    "internalType": "uint32",
                                    "name": "data",
                                    "type": "uint32"
                                }
                            ],
                            "internalType": "struct MotionsRepo.Head",
                            "name": "head",
                            "type": "tuple"
                        },
                        {
                            "components": [
                                {
                                    "internalType": "uint40",
                                    "name": "proposer",
                                    "type": "uint40"
                                },
                                {
                                    "internalType": "uint48",
                                    "name": "proposeDate",
                                    "type": "uint48"
                                },
                                {
                                    "internalType": "uint48",
                                    "name": "shareRegDate",
                                    "type": "uint48"
                                },
                                {
                                    "internalType": "uint48",
                                    "name": "voteStartDate",
                                    "type": "uint48"
                                },
                                {
                                    "internalType": "uint48",
                                    "name": "voteEndDate",
                                    "type": "uint48"
                                },
                                {
                                    "internalType": "uint16",
                                    "name": "para",
                                    "type": "uint16"
                                },
                                {
                                    "internalType": "uint8",
                                    "name": "state",
                                    "type": "uint8"
                                }
                            ],
                            "internalType": "struct MotionsRepo.Body",
                            "name": "body",
                            "type": "tuple"
                        },
                        {
                            "components": [
                                {
                                    "internalType": "uint16",
                                    "name": "seqOfRule",
                                    "type": "uint16"
                                },
                                {
                                    "internalType": "uint8",
                                    "name": "qtyOfSubRule",
                                    "type": "uint8"
                                },
                                {
                                    "internalType": "uint8",
                                    "name": "seqOfSubRule",
                                    "type": "uint8"
                                },
                                {
                                    "internalType": "uint16",
                                    "name": "authority",
                                    "type": "uint16"
                                },
                                {
                                    "internalType": "uint16",
                                    "name": "headRatio",
                                    "type": "uint16"
                                },
                                {
                                    "internalType": "uint16",
                                    "name": "amountRatio",
                                    "type": "uint16"
                                },
                                {
                                    "internalType": "bool",
                                    "name": "onlyAttendance",
                                    "type": "bool"
                                },
                                {
                                    "internalType": "bool",
                                    "name": "impliedConsent",
                                    "type": "bool"
                                },
                                {
                                    "internalType": "bool",
                                    "name": "partyAsConsent",
                                    "type": "bool"
                                },
                                {
                                    "internalType": "bool",
                                    "name": "againstShallBuy",
                                    "type": "bool"
                                },
                                {
                                    "internalType": "uint8",
                                    "name": "shaExecDays",
                                    "type": "uint8"
                                },
                                {
                                    "internalType": "uint8",
                                    "name": "shaConfirmDays",
                                    "type": "uint8"
                                },
                                {
                                    "internalType": "uint8",
                                    "name": "reconsiderDays",
                                    "type": "uint8"
                                },
                                {
                                    "internalType": "uint8",
                                    "name": "votePrepareDays",
                                    "type": "uint8"
                                },
                                {
                                    "internalType": "uint8",
                                    "name": "votingDays",
                                    "type": "uint8"
                                },
                                {
                                    "internalType": "uint8",
                                    "name": "execDaysForPutOpt",
                                    "type": "uint8"
                                },
                                {
                                    "internalType": "uint40[2]",
                                    "name": "vetoers",
                                    "type": "uint40[2]"
                                },
                                {
                                    "internalType": "uint16",
                                    "name": "para",
                                    "type": "uint16"
                                }
                            ],
                            "internalType": "struct RulesParser.VotingRule",
                            "name": "votingRule",
                            "type": "tuple"
                        },
                        {
                            "internalType": "uint256",
                            "name": "contents",
                            "type": "uint256"
                        }
                    ],
                    "internalType": "struct MotionsRepo.Motion",
                    "name": "motion",
                    "type": "tuple"
                }
            ],
            "stateMutability": "view",
            "type": "function"
        },
        {
            "inputs": [],
            "name": "getNumOfDirectors",
            "outputs": [
                {
                    "internalType": "uint256",
                    "name": "",
                    "type": "uint256"
                }
            ],
            "stateMutability": "view",
            "type": "function"
        },
        {
            "inputs": [],
            "name": "getNumOfManagers",
            "outputs": [
                {
                    "internalType": "uint256",
                    "name": "",
                    "type": "uint256"
                }
            ],
            "stateMutability": "view",
            "type": "function"
        },
        {
            "inputs": [],
            "name": "getOwner",
            "outputs": [
                {
                    "internalType": "uint40",
                    "name": "",
                    "type": "uint40"
                }
            ],
            "stateMutability": "view",
            "type": "function"
        },
        {
            "inputs": [
                {
                    "internalType": "uint256",
                    "name": "acct",
                    "type": "uint256"
                }
            ],
            "name": "getPosInHand",
            "outputs": [
                {
                    "internalType": "uint256[]",
                    "name": "",
                    "type": "uint256[]"
                }
            ],
            "stateMutability": "view",
            "type": "function"
        },
        {
            "inputs": [
                {
                    "internalType": "uint256",
                    "name": "seqOfPos",
                    "type": "uint256"
                }
            ],
            "name": "getPosition",
            "outputs": [
                {
                    "components": [
                        {
                            "internalType": "uint16",
                            "name": "title",
                            "type": "uint16"
                        },
                        {
                            "internalType": "uint16",
                            "name": "seqOfPos",
                            "type": "uint16"
                        },
                        {
                            "internalType": "uint40",
                            "name": "acct",
                            "type": "uint40"
                        },
                        {
                            "internalType": "uint40",
                            "name": "nominator",
                            "type": "uint40"
                        },
                        {
                            "internalType": "uint48",
                            "name": "startDate",
                            "type": "uint48"
                        },
                        {
                            "internalType": "uint48",
                            "name": "endDate",
                            "type": "uint48"
                        },
                        {
                            "internalType": "uint16",
                            "name": "seqOfVR",
                            "type": "uint16"
                        },
                        {
                            "internalType": "uint16",
                            "name": "titleOfNominator",
                            "type": "uint16"
                        },
                        {
                            "internalType": "uint16",
                            "name": "argu",
                            "type": "uint16"
                        }
                    ],
                    "internalType": "struct OfficersRepo.Position",
                    "name": "",
                    "type": "tuple"
                }
            ],
            "stateMutability": "view",
            "type": "function"
        },
        {
            "inputs": [],
            "name": "getSeqList",
            "outputs": [
                {
                    "internalType": "uint256[]",
                    "name": "",
                    "type": "uint256[]"
                }
            ],
            "stateMutability": "view",
            "type": "function"
        },
        {
            "inputs": [
                {
                    "internalType": "uint256",
                    "name": "seqOfMotion",
                    "type": "uint256"
                },
                {
                    "internalType": "uint256",
                    "name": "acct",
                    "type": "uint256"
                }
            ],
            "name": "getVoterOfDelegateMap",
            "outputs": [
                {
                    "components": [
                        {
                            "internalType": "uint40",
                            "name": "delegate",
                            "type": "uint40"
                        },
                        {
                            "internalType": "uint64",
                            "name": "weight",
                            "type": "uint64"
                        },
                        {
                            "internalType": "uint64",
                            "name": "repWeight",
                            "type": "uint64"
                        },
                        {
                            "internalType": "uint32",
                            "name": "repHead",
                            "type": "uint32"
                        },
                        {
                            "internalType": "uint40[]",
                            "name": "principals",
                            "type": "uint40[]"
                        }
                    ],
                    "internalType": "struct DelegateMap.Voter",
                    "name": "",
                    "type": "tuple"
                }
            ],
            "stateMutability": "view",
            "type": "function"
        },
        {
            "inputs": [
                {
                    "internalType": "bytes32",
                    "name": "role",
                    "type": "bytes32"
                },
                {
                    "internalType": "uint256",
                    "name": "acct",
                    "type": "uint256"
                }
            ],
            "name": "grantRole",
            "outputs": [],
            "stateMutability": "nonpayable",
            "type": "function"
        },
        {
            "inputs": [
                {
                    "internalType": "uint256",
                    "name": "seqOfPos",
                    "type": "uint256"
                },
                {
                    "internalType": "uint256",
                    "name": "acct",
                    "type": "uint256"
                }
            ],
            "name": "hasNominationRight",
            "outputs": [
                {
                    "internalType": "bool",
                    "name": "",
                    "type": "bool"
                }
            ],
            "stateMutability": "view",
            "type": "function"
        },
        {
            "inputs": [
                {
                    "internalType": "uint256",
                    "name": "acct",
                    "type": "uint256"
                },
                {
                    "internalType": "uint256",
                    "name": "seqOfPos",
                    "type": "uint256"
                }
            ],
            "name": "hasPosition",
            "outputs": [
                {
                    "internalType": "bool",
                    "name": "",
                    "type": "bool"
                }
            ],
            "stateMutability": "view",
            "type": "function"
        },
        {
            "inputs": [
                {
                    "internalType": "bytes32",
                    "name": "role",
                    "type": "bytes32"
                },
                {
                    "internalType": "uint256",
                    "name": "acct",
                    "type": "uint256"
                }
            ],
            "name": "hasRole",
            "outputs": [
                {
                    "internalType": "bool",
                    "name": "",
                    "type": "bool"
                }
            ],
            "stateMutability": "view",
            "type": "function"
        },
        {
            "inputs": [
                {
                    "internalType": "uint256",
                    "name": "acct",
                    "type": "uint256"
                },
                {
                    "internalType": "uint256",
                    "name": "title",
                    "type": "uint256"
                }
            ],
            "name": "hasTitle",
            "outputs": [
                {
                    "internalType": "bool",
                    "name": "flag",
                    "type": "bool"
                }
            ],
            "stateMutability": "view",
            "type": "function"
        },
        {
            "inputs": [
                {
                    "internalType": "uint256",
                    "name": "owner",
                    "type": "uint256"
                },
                {
                    "internalType": "address",
                    "name": "directKeeper",
                    "type": "address"
                },
                {
                    "internalType": "address",
                    "name": "regCenter",
                    "type": "address"
                },
                {
                    "internalType": "address",
                    "name": "generalKeeper",
                    "type": "address"
                }
            ],
            "name": "init",
            "outputs": [],
            "stateMutability": "nonpayable",
            "type": "function"
        },
        {
            "inputs": [
                {
                    "internalType": "uint256",
                    "name": "acct",
                    "type": "uint256"
                }
            ],
            "name": "isDirector",
            "outputs": [
                {
                    "internalType": "bool",
                    "name": "",
                    "type": "bool"
                }
            ],
            "stateMutability": "view",
            "type": "function"
        },
        {
            "inputs": [
                {
                    "internalType": "uint256",
                    "name": "acct",
                    "type": "uint256"
                }
            ],
            "name": "isManager",
            "outputs": [
                {
                    "internalType": "bool",
                    "name": "",
                    "type": "bool"
                }
            ],
            "stateMutability": "view",
            "type": "function"
        },
        {
            "inputs": [
                {
                    "internalType": "uint256",
                    "name": "seqOfPos",
                    "type": "uint256"
                }
            ],
            "name": "isOccupied",
            "outputs": [
                {
                    "internalType": "bool",
                    "name": "",
                    "type": "bool"
                }
            ],
            "stateMutability": "view",
            "type": "function"
        },
        {
            "inputs": [
                {
                    "internalType": "uint256",
                    "name": "seqOfMotion",
                    "type": "uint256"
                }
            ],
            "name": "isPassed",
            "outputs": [
                {
                    "internalType": "bool",
                    "name": "",
                    "type": "bool"
                }
            ],
            "stateMutability": "view",
            "type": "function"
        },
        {
            "inputs": [
                {
                    "internalType": "uint256",
                    "name": "seqOfMotion",
                    "type": "uint256"
                }
            ],
            "name": "isProposed",
            "outputs": [
                {
                    "internalType": "bool",
                    "name": "",
                    "type": "bool"
                }
            ],
            "stateMutability": "view",
            "type": "function"
        },
        {
            "inputs": [
                {
                    "internalType": "uint256",
                    "name": "seqOfMotion",
                    "type": "uint256"
                },
                {
                    "internalType": "uint256",
                    "name": "acct",
                    "type": "uint256"
                }
            ],
            "name": "isVoted",
            "outputs": [
                {
                    "internalType": "bool",
                    "name": "",
                    "type": "bool"
                }
            ],
            "stateMutability": "view",
            "type": "function"
        },
        {
            "inputs": [
                {
                    "internalType": "uint256",
                    "name": "seqOfMotion",
                    "type": "uint256"
                },
                {
                    "internalType": "uint256",
                    "name": "acct",
                    "type": "uint256"
                },
                {
                    "internalType": "uint256",
                    "name": "atti",
                    "type": "uint256"
                }
            ],
            "name": "isVotedFor",
            "outputs": [
                {
                    "internalType": "bool",
                    "name": "",
                    "type": "bool"
                }
            ],
            "stateMutability": "view",
            "type": "function"
        },
        {
            "inputs": [],
            "name": "lockContents",
            "outputs": [],
            "stateMutability": "nonpayable",
            "type": "function"
        },
        {
            "inputs": [
                {
                    "internalType": "uint256",
                    "name": "seqOfPos",
                    "type": "uint256"
                },
                {
                    "internalType": "uint256",
                    "name": "seqOfVR",
                    "type": "uint256"
                },
                {
                    "internalType": "uint256",
                    "name": "candidate",
                    "type": "uint256"
                },
                {
                    "internalType": "uint256",
                    "name": "nominator",
                    "type": "uint256"
                }
            ],
            "name": "nominateOfficer",
            "outputs": [
                {
                    "internalType": "uint64",
                    "name": "",
                    "type": "uint64"
                }
            ],
            "stateMutability": "nonpayable",
            "type": "function"
        },
        {
            "inputs": [
                {
                    "internalType": "uint256",
                    "name": "seqOfPos",
                    "type": "uint256"
                }
            ],
            "name": "posExist",
            "outputs": [
                {
                    "internalType": "bool",
                    "name": "",
                    "type": "bool"
                }
            ],
            "stateMutability": "view",
            "type": "function"
        },
        {
            "inputs": [
                {
                    "internalType": "uint256",
                    "name": "seqOfMotion",
                    "type": "uint256"
                },
                {
                    "internalType": "uint256",
                    "name": "caller",
                    "type": "uint256"
                }
            ],
            "name": "proposeMotionToBoard",
            "outputs": [],
            "stateMutability": "nonpayable",
            "type": "function"
        },
        {
            "inputs": [
                {
                    "internalType": "uint256",
                    "name": "seqOfMotion",
                    "type": "uint256"
                },
                {
                    "internalType": "uint256",
                    "name": "proposer",
                    "type": "uint256"
                }
            ],
            "name": "proposeMotionToGeneralMeeting",
            "outputs": [],
            "stateMutability": "nonpayable",
            "type": "function"
        },
        {
            "inputs": [
                {
                    "internalType": "uint256",
                    "name": "seqOfPos",
                    "type": "uint256"
                },
                {
                    "internalType": "uint256",
                    "name": "caller",
                    "type": "uint256"
                }
            ],
            "name": "quitPosition",
            "outputs": [],
            "stateMutability": "nonpayable",
            "type": "function"
        },
        {
            "inputs": [
                {
                    "internalType": "address",
                    "name": "target",
                    "type": "address"
                }
            ],
            "name": "removeDirectKeeper",
            "outputs": [],
            "stateMutability": "nonpayable",
            "type": "function"
        },
        {
            "inputs": [
                {
                    "internalType": "uint256",
                    "name": "seqOfPos",
                    "type": "uint256"
                }
            ],
            "name": "removeOfficer",
            "outputs": [],
            "stateMutability": "nonpayable",
            "type": "function"
        },
        {
            "inputs": [
                {
                    "internalType": "uint256",
                    "name": "seqOfPos",
                    "type": "uint256"
                }
            ],
            "name": "removePosition",
            "outputs": [],
            "stateMutability": "nonpayable",
            "type": "function"
        },
        {
            "inputs": [
                {
                    "internalType": "bytes32",
                    "name": "role",
                    "type": "bytes32"
                }
            ],
            "name": "renounceRole",
            "outputs": [],
            "stateMutability": "nonpayable",
            "type": "function"
        },
        {
            "inputs": [
                {
                    "internalType": "bytes32",
                    "name": "role",
                    "type": "bytes32"
                },
                {
                    "internalType": "uint256",
                    "name": "acct",
                    "type": "uint256"
                }
            ],
            "name": "revokeRole",
            "outputs": [],
            "stateMutability": "nonpayable",
            "type": "function"
        },
        {
            "inputs": [
                {
                    "internalType": "address",
                    "name": "keeper",
                    "type": "address"
                }
            ],
            "name": "setDirectKeeper",
            "outputs": [],
            "stateMutability": "nonpayable",
            "type": "function"
        },
        {
            "inputs": [
                {
                    "internalType": "uint256",
                    "name": "acct",
                    "type": "uint256"
                }
            ],
            "name": "setGeneralCounsel",
            "outputs": [],
            "stateMutability": "nonpayable",
            "type": "function"
        },
        {
            "inputs": [
                {
                    "internalType": "uint256",
                    "name": "acct",
                    "type": "uint256"
                }
            ],
            "name": "setOwner",
            "outputs": [],
            "stateMutability": "nonpayable",
            "type": "function"
        },
        {
            "inputs": [
                {
                    "internalType": "bytes32",
                    "name": "role",
                    "type": "bytes32"
                },
                {
                    "internalType": "uint256",
                    "name": "acct",
                    "type": "uint256"
                }
            ],
            "name": "setRoleAdmin",
            "outputs": [],
            "stateMutability": "nonpayable",
            "type": "function"
        },
        {
            "inputs": [
                {
                    "internalType": "uint256",
                    "name": "seqOfPos",
                    "type": "uint256"
                },
                {
                    "internalType": "uint256",
                    "name": "caller",
                    "type": "uint256"
                }
            ],
            "name": "takePosition",
            "outputs": [],
            "stateMutability": "nonpayable",
            "type": "function"
        },
        {
            "inputs": [
                {
                    "components": [
                        {
                            "internalType": "uint16",
                            "name": "title",
                            "type": "uint16"
                        },
                        {
                            "internalType": "uint16",
                            "name": "seqOfPos",
                            "type": "uint16"
                        },
                        {
                            "internalType": "uint40",
                            "name": "acct",
                            "type": "uint40"
                        },
                        {
                            "internalType": "uint40",
                            "name": "nominator",
                            "type": "uint40"
                        },
                        {
                            "internalType": "uint48",
                            "name": "startDate",
                            "type": "uint48"
                        },
                        {
                            "internalType": "uint48",
                            "name": "endDate",
                            "type": "uint48"
                        },
                        {
                            "internalType": "uint16",
                            "name": "seqOfVR",
                            "type": "uint16"
                        },
                        {
                            "internalType": "uint16",
                            "name": "titleOfNominator",
                            "type": "uint16"
                        },
                        {
                            "internalType": "uint16",
                            "name": "argu",
                            "type": "uint16"
                        }
                    ],
                    "internalType": "struct OfficersRepo.Position",
                    "name": "pos",
                    "type": "tuple"
                }
            ],
            "name": "updatePosition",
            "outputs": [],
            "stateMutability": "nonpayable",
            "type": "function"
        },
        {
            "inputs": [
                {
                    "internalType": "bool",
                    "name": "flag0",
                    "type": "bool"
                },
                {
                    "internalType": "uint256",
                    "name": "seqOfMotion",
                    "type": "uint256"
                },
                {
                    "components": [
                        {
                            "internalType": "uint32",
                            "name": "totalHead",
                            "type": "uint32"
                        },
                        {
                            "internalType": "uint64",
                            "name": "totalWeight",
                            "type": "uint64"
                        },
                        {
                            "internalType": "uint32",
                            "name": "supportHead",
                            "type": "uint32"
                        },
                        {
                            "internalType": "uint64",
                            "name": "supportWeight",
                            "type": "uint64"
                        },
                        {
                            "internalType": "uint16",
                            "name": "attendHeadRatio",
                            "type": "uint16"
                        },
                        {
                            "internalType": "uint16",
                            "name": "attendWeightRatio",
                            "type": "uint16"
                        },
                        {
                            "internalType": "uint16",
                            "name": "para",
                            "type": "uint16"
                        },
                        {
                            "internalType": "uint8",
                            "name": "state",
                            "type": "uint8"
                        },
                        {
                            "internalType": "bool",
                            "name": "unaniConsent",
                            "type": "bool"
                        }
                    ],
                    "internalType": "struct MotionsRepo.VoteCalBase",
                    "name": "base",
                    "type": "tuple"
                }
            ],
            "name": "voteCounting",
            "outputs": [
                {
                    "internalType": "uint8",
                    "name": "result",
                    "type": "uint8"
                }
            ],
            "stateMutability": "nonpayable",
            "type": "function"
        },
        {
            "inputs": [
                {
                    "internalType": "uint256",
                    "name": "seqOfMotion",
                    "type": "uint256"
                }
            ],
            "name": "voteEnded",
            "outputs": [
                {
                    "internalType": "bool",
                    "name": "",
                    "type": "bool"
                }
            ],
            "stateMutability": "view",
            "type": "function"
        },
        {
            "inputs": [
                {
                    "internalType": "uint256",
                    "name": "seqOfMotion",
                    "type": "uint256"
                }
            ],
            "name": "voteStarted",
            "outputs": [
                {
                    "internalType": "bool",
                    "name": "",
                    "type": "bool"
                }
            ],
            "stateMutability": "view",
            "type": "function"
        }
    ],
    "bytecode": "608060405234801561001057600080fd5b50615dc880620000216000396000f3fe608060405234801561001057600080fd5b50600436106103d05760003560e01c80637e063c5a116101ff578063c04674221161011a578063eb02c301116100ad578063f045a7691161007c578063f045a76914610948578063f04e47ab14610950578063fb03054814610975578063fe1bdff21461098857600080fd5b8063eb02c301146108e2578063ec2fbbff14610902578063ec83613b14610915578063ed2110231461092857600080fd5b8063d9677b0c116100e9578063d9677b0c14610896578063da8b76bc146108a9578063dc890da9146108bc578063ea56efc6146108cf57600080fd5b8063c046742214610820578063c1416b0c14610833578063c41f49b014610846578063c708ed821461088357600080fd5b80639371bd1e11610192578063ab86a9d911610161578063ab86a9d9146107c6578063ad15aad2146107d9578063b3f05b97146107f9578063b43a401d1461080d57600080fd5b80639371bd1e1461077a5780639a51cdfc1461078d578063a0d100ef146107a0578063a1e1d621146107b357600080fd5b80638988c0cf116101ce5780638988c0cf146107395780638bb9c5bf146107415780639258effe14610754578063931a675a1461076757600080fd5b80637e063c5a146107035780638041494e14610716578063818b3d1114610729578063893d20e81461073157600080fd5b80633e78db5b116102ef57806359269f8211610282578063695b2f6011610251578063695b2f60146106c25780636998d28d146106ca5780636be8496f146106dd5780636ed7e039146106f057600080fd5b806359269f82146106695780635c2753bf1461067c5780635d7ad88f1461068f57806361df743f146106a257600080fd5b80634a14beb1116102be5780634a14beb1146106055780634f6413ac146106185780635171ebd414610643578063590022aa1461065657600080fd5b80633e78db5b146105c457806340749570146105cc57806348c01a8b146105df57806349403183146105f257600080fd5b80631ad1ea44116103675780632700b4cc116103365780632700b4cc146105835780632d3eaa40146105965780633af442ac146105a95780633da9a600146105b157600080fd5b80631ad1ea44146105205780631b6ea9f91461053357806322d49e2c14610546578063243fbc211461056e57600080fd5b8063103f6edd116103a3578063103f6edd146104bc578063165dd5ec146104da578063171c5c04146104fa57806319d61ad91461050d57600080fd5b8063015c98ce146103d55780630d358757146103ea5780630d8a741d146104835780630ff51f3914610499575b600080fd5b6103e86103e3366004614677565b61099b565b005b6103fd6103f8366004614690565b610b89565b60405161047a9190600060e08201905064ffffffffff835116825260ff602084015116602083015263ffffffff604084015116604083015260608301516001600160401b03808216606085015265ffffffffffff60808601511660808501528060a08601511660a0850152505060c083015160c083015292915050565b60405180910390f35b61048b610c57565b60405190815260200161047a565b6104ac6104a7366004614690565b610ce3565b604051901515815260200161047a565b6104c4610e16565b60405164ffffffffff909116815260200161047a565b6104ed6104e8366004614690565b610e9d565b60405161047a91906146b2565b6103e8610508366004614677565b610f49565b6103e861051b366004614690565b611108565b6103e861052e366004614690565b61119a565b6103e8610541366004614690565b611308565b61055961055436600461473c565b61132e565b60405163ffffffff909116815260200161047a565b6105766113d8565b60405161047a91906147b0565b6103e861059136600461493a565b611462565b6103e86105a43660046149f0565b6116a6565b610576611876565b6103e86105bf366004614677565b6118b1565b61057661193c565b6104ac6105da366004614690565b611977565b6103e86105ed366004614690565b6119e7565b6104ac610600366004614677565b611c51565b6103e8610613366004614677565b611cde565b61062b610626366004614a1c565b611f34565b6040516001600160401b03909116815260200161047a565b6103e8610651366004614690565b611ff4565b61048b610664366004614677565b61201a565b6104ac610677366004614677565b6120a7565b61048b61068a366004614ba8565b6120e8565b6103e861069d366004614cb4565b61229d565b6106b56106b0366004614690565b6123d3565b60405161047a9190614cd1565b61048b612490565b6103e86106d8366004614690565b6124cb565b6103e86106eb366004614cb4565b6126b9565b6105766106fe366004614677565b612768565b6104ac610711366004614690565b6127f9565b6103e8610724366004614677565b612842565b6105766128f8565b6104c4612933565b61057661296e565b6103e861074f366004614677565b6129a9565b6104ac610762366004614677565b6129ce565b6104ac610775366004614690565b612a10565b6104ac6107883660046149f0565b612a59565b61048b61079b366004614690565b612afa565b6103e86107ae366004614a1c565b612b8d565b6104ac6107c1366004614677565b612d94565b61062b6107d4366004614ba8565b612dd5565b6107ec6107e7366004614677565b612eaa565b60405161047a9190614f32565b60028054600160f01b900460ff16146104ac565b6104ac61081b366004614677565b612f3c565b6103e861082e366004614677565b612f7d565b6104ac610841366004614677565b613161565b610859610854366004614fd9565b6131a3565b6040805182516001600160401b0316815260209283015163ffffffff16928101929092520161047a565b6104ac610891366004614677565b61325a565b6103e86108a4366004614a1c565b61329c565b61062b6108b736600461501a565b613495565b6103e86108ca366004615055565b613555565b6104ac6108dd366004614690565b613624565b6108f56108f0366004614677565b61366c565b60405161047a9190615152565b6104ac610910366004614677565b61373c565b6103e8610923366004614690565b61377e565b610930613a75565b6040516001600160a01b03909116815260200161047a565b6103e8613afb565b61096361095e3660046151d1565b613d45565b60405160ff909116815260200161047a565b61062b6109833660046149f0565b613eb5565b6103e86109963660046149f0565b613f6c565b604051633b11adbf60e21b815273__$a374c895e6fa8c448878668e00d93ef99a$__9063ec46b6fc906109d59060029033906004016152be565b60206040518083038186803b1580156109ed57600080fd5b505af4158015610a01573d6000803e3d6000fd5b505050506040513d601f19601f82011682018060405250810190610a2591906152e0565b80610aa657506001546040516335d2155560e11b81523360048201526001600160a01b0390911690636ba42aaa9060240160206040518083038186803b158015610a6e57600080fd5b505afa158015610a82573d6000803e3d6000fd5b505050506040513d601f19601f82011682018060405250810190610aa691906152e0565b610acb5760405162461bcd60e51b8152600401610ac2906152fd565b60405180910390fd5b60405163237729b760e11b8152600860048201526024810182905273__$cac151d8046b3f585e8c62b90c0a43c925$__906346ee536e9060440160206040518083038186803b158015610b1d57600080fd5b505af4158015610b31573d6000803e3d6000fd5b505050506040513d601f19601f82011682018060405250810190610b5591906152e0565b15610b865760405181907f83d09ac25a8ca169d7fe1417d21e96774f81fe694d0f3345c9e43091028b784f90600090a25b50565b6040805160e081018252600080825260208201819052818301819052606082018190526080820181905260a0820181905260c08201529051635eeb98eb60e01b8152600480820152602481018490526044810183905273__$48fdb68298ec07f9843b28bfe921898719$__90635eeb98eb9060640160e06040518083038186803b158015610c1657600080fd5b505af4158015610c2a573d6000803e3d6000fd5b505050506040513d601f19601f82011682018060405250810190610c4e9190615354565b90505b92915050565b604051631f8e877560e31b81526008600482015260009073__$cac151d8046b3f585e8c62b90c0a43c925$__9063fc743ba8906024015b60206040518083038186803b158015610ca657600080fd5b505af4158015610cba573d6000803e3d6000fd5b505050506040513d601f19601f82011682018060405250810190610cde91906153ed565b905090565b6000600873__$cac151d8046b3f585e8c62b90c0a43c925$__63ebe78bae90918585600160009054906101000a90046001600160a01b03166001600160a01b03166333fb96ee6040518163ffffffff1660e01b815260040160206040518083038186803b158015610d5357600080fd5b505afa158015610d67573d6000803e3d6000fd5b505050506040513d601f19601f82011682018060405250810190610d8b9190615406565b6040516001600160e01b031960e087901b1681526004810194909452602484019290925260448301526001600160a01b031660648201526084015b60206040518083038186803b158015610dde57600080fd5b505af4158015610df2573d6000803e3d6000fd5b505050506040513d601f19601f82011682018060405250810190610c4e91906152e0565b60405163e8c0cc1d60e01b81526002600482015260009073__$a374c895e6fa8c448878668e00d93ef99a$__9063e8c0cc1d906024015b60206040518083038186803b158015610e6557600080fd5b505af4158015610e79573d6000803e3d6000fd5b505050506040513d601f19601f82011682018060405250810190610cde9190615423565b6040805160608082018352600080835260208301528183015290516341335f3560e01b8152600480820152602481018490526044810183905273__$48fdb68298ec07f9843b28bfe921898719$__906341335f359060640160006040518083038186803b158015610f0d57600080fd5b505af4158015610f21573d6000803e3d6000fd5b505050506040513d6000823e601f3d908101601f19168201604052610c4e919081019061549b565b604051633b11adbf60e21b815273__$a374c895e6fa8c448878668e00d93ef99a$__9063ec46b6fc90610f839060029033906004016152be565b60206040518083038186803b158015610f9b57600080fd5b505af4158015610faf573d6000803e3d6000fd5b505050506040513d601f19601f82011682018060405250810190610fd391906152e0565b8061105457506001546040516335d2155560e11b81523360048201526001600160a01b0390911690636ba42aaa9060240160206040518083038186803b15801561101c57600080fd5b505afa158015611030573d6000803e3d6000fd5b505050506040513d601f19601f8201168201806040525081019061105491906152e0565b6110705760405162461bcd60e51b8152600401610ac2906152fd565b604051631cfcf5bb60e01b8152600860048201526024810182905273__$cac151d8046b3f585e8c62b90c0a43c925$__90631cfcf5bb9060440160006040518083038186803b1580156110c257600080fd5b505af41580156110d6573d6000803e3d6000fd5b50506040518392507f40e1f721dc027d7b46727280f238c5329a60edf78761142a44e0079a184038b29150600090a250565b73__$a374c895e6fa8c448878668e00d93ef99a$__6382daafaa6002848461112e61420e565b6040516001600160e01b031960e087901b16815260048101949094526024840192909252604483015264ffffffffff16606482015260840160006040518083038186803b15801561117e57600080fd5b505af4158015611192573d6000803e3d6000fd5b505050505050565b604051633b11adbf60e21b815273__$a374c895e6fa8c448878668e00d93ef99a$__9063ec46b6fc906111d49060029033906004016152be565b60206040518083038186803b1580156111ec57600080fd5b505af4158015611200573d6000803e3d6000fd5b505050506040513d601f19601f8201168201806040525081019061122491906152e0565b6112405760405162461bcd60e51b8152600401610ac290615543565b604051630f6aaa3d60e31b815260086004820152602481018390526044810182905273__$cac151d8046b3f585e8c62b90c0a43c925$__90637b5551e89060640160206040518083038186803b15801561129957600080fd5b505af41580156112ad573d6000803e3d6000fd5b505050506040513d601f19601f820116820180604052508101906112d191906152e0565b1561130457604051819083907f8df12027acaa8fd5048ef73602c642f80b2ed947f5e5a493497dc4cfa4de00c990600090a35b5050565b73__$a374c895e6fa8c448878668e00d93ef99a$__636320d75e6002848461112e61420e565b604051630180521b60e11b815260048082015260248101849052604481018390526001600160a01b038216606482015260009073__$48fdb68298ec07f9843b28bfe921898719$__90630300a4369060840160206040518083038186803b15801561139857600080fd5b505af41580156113ac573d6000803e3d6000fd5b505050506040513d601f19601f820116820180604052508101906113d09190615589565b949350505050565b604051631cfd0e3f60e01b815260048082015260609073__$48fdb68298ec07f9843b28bfe921898719$__90631cfd0e3f906024015b60006040518083038186803b15801561142657600080fd5b505af415801561143a573d6000803e3d6000fd5b505050506040513d6000823e601f3d908101601f19168201604052610cde91908101906155a6565b604051633b11adbf60e21b815273__$a374c895e6fa8c448878668e00d93ef99a$__9063ec46b6fc9061149c9060029033906004016152be565b60206040518083038186803b1580156114b457600080fd5b505af41580156114c8573d6000803e3d6000fd5b505050506040513d601f19601f820116820180604052508101906114ec91906152e0565b8061156d57506001546040516335d2155560e11b81523360048201526001600160a01b0390911690636ba42aaa9060240160206040518083038186803b15801561153557600080fd5b505afa158015611549573d6000803e3d6000fd5b505050506040513d601f19601f8201168201806040525081019061156d91906152e0565b6115895760405162461bcd60e51b8152600401610ac2906152fd565b60405163a96535f760e01b815273__$cac151d8046b3f585e8c62b90c0a43c925$__9063a96535f7906115c39060089085906004016155da565b60006040518083038186803b1580156115db57600080fd5b505af41580156115ef573d6000803e3d6000fd5b50506040516307adc09360e11b815273__$cac151d8046b3f585e8c62b90c0a43c925$__9250630f5b8126915061162a908490600401615152565b60206040518083038186803b15801561164257600080fd5b505af4158015611656573d6000803e3d6000fd5b505050506040513d601f19601f8201168201806040525081019061167a91906153ed565b6040517f40e1f721dc027d7b46727280f238c5329a60edf78761142a44e0079a184038b290600090a250565b604051633b11adbf60e21b815273__$a374c895e6fa8c448878668e00d93ef99a$__9063ec46b6fc906116e09060029033906004016152be565b60206040518083038186803b1580156116f857600080fd5b505af415801561170c573d6000803e3d6000fd5b505050506040513d601f19601f8201168201806040525081019061173091906152e0565b806117b157506001546040516335d2155560e11b81523360048201526001600160a01b0390911690636ba42aaa9060240160206040518083038186803b15801561177957600080fd5b505afa15801561178d573d6000803e3d6000fd5b505050506040513d601f19601f820116820180604052508101906117b191906152e0565b6117cd5760405162461bcd60e51b8152600401610ac2906152fd565b604051630aa0aacd60e11b815260048082015260248101849052604481018390526064810182905273__$48fdb68298ec07f9843b28bfe921898719$__90631541559a9060840160006040518083038186803b15801561182c57600080fd5b505af4158015611840573d6000803e3d6000fd5b50506040518392508591507fae42f3be1ee887ec3af249092d8ce9d9a13ac3c2a8e40639341a77ac2e012de390600090a3505050565b60405163071d9bc560e41b81526008600482015260609073__$cac151d8046b3f585e8c62b90c0a43c925$__906371d9bc509060240161140e565b73__$a374c895e6fa8c448878668e00d93ef99a$__63c51b295f6002836118d661420e565b6040516001600160e01b031960e086901b1681526004810193909352602483019190915264ffffffffff16604482015260640160006040518083038186803b15801561192157600080fd5b505af4158015611935573d6000803e3d6000fd5b5050505050565b604051639620d16360e01b81526008600482015260609073__$cac151d8046b3f585e8c62b90c0a43c925$__90639620d1639060240161140e565b6000600873__$cac151d8046b3f585e8c62b90c0a43c925$__63fda2767690918585600160009054906101000a90046001600160a01b03166001600160a01b03166333fb96ee6040518163ffffffff1660e01b815260040160206040518083038186803b158015610d5357600080fd5b604051633b11adbf60e21b815273__$a374c895e6fa8c448878668e00d93ef99a$__9063ec46b6fc90611a219060029033906004016152be565b60206040518083038186803b158015611a3957600080fd5b505af4158015611a4d573d6000803e3d6000fd5b505050506040513d601f19601f82011682018060405250810190611a7191906152e0565b611a8d5760405162461bcd60e51b8152600401610ac290615543565b600154604080516314c35b8560e31b8152905173__$48fdb68298ec07f9843b28bfe921898719$__9263bf9c528f9260049287926001600160a01b03169163a61adc2891818601916020919081900387018186803b158015611aee57600080fd5b505afa158015611b02573d6000803e3d6000fd5b505050506040513d601f19601f82011682018060405250810190611b269190615406565b600160009054906101000a90046001600160a01b03166001600160a01b0316639262826d6040518163ffffffff1660e01b815260040160206040518083038186803b158015611b7457600080fd5b505afa158015611b88573d6000803e3d6000fd5b505050506040513d601f19601f82011682018060405250810190611bac9190615406565b6040516001600160e01b031960e087901b168152600481019490945260248401929092526001600160a01b0390811660448401521660648201526084810184905260a40160006040518083038186803b158015611c0857600080fd5b505af4158015611c1c573d6000803e3d6000fd5b50506040518392508491507f3d2af26c55ce885099e5c58435ae4f943566dfc69236ab845a1c4dbd824a7b9c90600090a35050565b604051631d62ca6b60e11b81526004808201526024810182905260009073__$48fdb68298ec07f9843b28bfe921898719$__90633ac594d6906044015b60206040518083038186803b158015611ca657600080fd5b505af4158015611cba573d6000803e3d6000fd5b505050506040513d601f19601f82011682018060405250810190610c5191906152e0565b604051633b11adbf60e21b815273__$a374c895e6fa8c448878668e00d93ef99a$__9063ec46b6fc90611d189060029033906004016152be565b60206040518083038186803b158015611d3057600080fd5b505af4158015611d44573d6000803e3d6000fd5b505050506040513d601f19601f82011682018060405250810190611d6891906152e0565b80611e0d575073__$a374c895e6fa8c448878668e00d93ef99a$__63fe2710866002611d9261420e565b6040516001600160e01b031960e085901b168152600481019290925264ffffffffff16602482015260440160206040518083038186803b158015611dd557600080fd5b505af4158015611de9573d6000803e3d6000fd5b505050506040513d601f19601f82011682018060405250810190611e0d91906152e0565b611e785760405162461bcd60e51b815260206004820152603660248201527f41432e6f776e65724f72446972656374426f6f6b65657065723a206e6569746860448201527532b91037bbb732b9103737b9103137b7b5b2b2b832b960511b6064820152608401610ac2565b73__$a374c895e6fa8c448878668e00d93ef99a$__6313a187d2600283611e9d61420e565b6040516001600160e01b031960e086901b1681526004810193909352602483019190915264ffffffffff16604482015233606482015260840160006040518083038186803b158015611eee57600080fd5b505af4158015611f02573d6000803e3d6000fd5b50506040518392507ff2735f34b69be1e6342dea95f9162f84d0db925fab655ca9f1f312ac8cbfc99d9150600090a250565b604051633b11adbf60e21b815260009073__$a374c895e6fa8c448878668e00d93ef99a$__9063ec46b6fc90611f719060029033906004016152be565b60206040518083038186803b158015611f8957600080fd5b505af4158015611f9d573d6000803e3d6000fd5b505050506040513d601f19601f82011682018060405250810190611fc191906152e0565b611fdd5760405162461bcd60e51b8152600401610ac290615543565b611feb600185848689614268565b95945050505050565b73__$a374c895e6fa8c448878668e00d93ef99a$__63ee98b3136002848461112e61420e565b60405163735f272760e11b8152600860048201526024810182905260009073__$cac151d8046b3f585e8c62b90c0a43c925$__9063e6be4e4e9060440160206040518083038186803b15801561206f57600080fd5b505af4158015612083573d6000803e3d6000fd5b505050506040513d601f19601f82011682018060405250810190610c5191906153ed565b604051633e9ace7f60e11b81526004808201526024810182905260009073__$48fdb68298ec07f9843b28bfe921898719$__90637d359cfe90604401611c8e565b604051633b11adbf60e21b815260009073__$a374c895e6fa8c448878668e00d93ef99a$__9063ec46b6fc906121259060029033906004016152be565b60206040518083038186803b15801561213d57600080fd5b505af4158015612151573d6000803e3d6000fd5b505050506040513d601f19601f8201168201806040525081019061217591906152e0565b6121915760405162461bcd60e51b8152600401610ac290615543565b604051630363eeeb60e01b81526004808201526024810184905260009073__$48fdb68298ec07f9843b28bfe921898719$__90630363eeeb906044016104406040518083038186803b1580156121e657600080fd5b505af41580156121fa573d6000803e3d6000fd5b505050506040513d601f19601f8201168201806040525081019061221e919061586a565b80515190915061ffff166004146122775760405162461bcd60e51b815260206004820152601960248201527f4d4d2e45413a2077726f6e6720747970654f664d6f74696f6e000000000000006044820152606401610ac2565b61228489898989896143f8565b91506122918483856116a6565b50979650505050505050565b604051633b11adbf60e21b815273__$a374c895e6fa8c448878668e00d93ef99a$__9063ec46b6fc906122d79060029033906004016152be565b60206040518083038186803b1580156122ef57600080fd5b505af4158015612303573d6000803e3d6000fd5b505050506040513d601f19601f8201168201806040525081019061232791906152e0565b6123435760405162461bcd60e51b8152600401610ac290615543565b604051636be8496f60e01b81523360048201526001600160a01b03821690636be8496f90602401600060405180830381600087803b15801561238457600080fd5b505af1158015612398573d6000803e3d6000fd5b50506040516001600160a01b03841692507f64dd6e84044f0067086012335dcfab3188db6615b5cc7debf18c9a621ebd5d919150600090a250565b6040805160a081018252600080825260208201819052818301819052606080830191909152608082015290516322576ef960e11b8152600480820152602481018490526044810183905273__$48fdb68298ec07f9843b28bfe921898719$__906344aeddf29060640160006040518083038186803b15801561245457600080fd5b505af4158015612468573d6000803e3d6000fd5b505050506040513d6000823e601f3d908101601f19168201604052610c4e919081019061595e565b60405163574ed54360e11b81526008600482015260009073__$cac151d8046b3f585e8c62b90c0a43c925$__9063ae9daa8690602401610c8e565b604051633b11adbf60e21b815273__$a374c895e6fa8c448878668e00d93ef99a$__9063ec46b6fc906125059060029033906004016152be565b60206040518083038186803b15801561251d57600080fd5b505af4158015612531573d6000803e3d6000fd5b505050506040513d601f19601f8201168201806040525081019061255591906152e0565b806125d657506001546040516335d2155560e11b81523360048201526001600160a01b0390911690636ba42aaa9060240160206040518083038186803b15801561259e57600080fd5b505afa1580156125b2573d6000803e3d6000fd5b505050506040513d601f19601f820116820180604052508101906125d691906152e0565b6125f25760405162461bcd60e51b8152600401610ac2906152fd565b604051630e8d204f60e21b815260086004820152602481018390526044810182905273__$cac151d8046b3f585e8c62b90c0a43c925$__90633a34813c9060640160206040518083038186803b15801561264b57600080fd5b505af415801561265f573d6000803e3d6000fd5b505050506040513d601f19601f8201168201806040525081019061268391906152e0565b1561130457604051819083907f77c53029d6a4952a4b1cb94b27c51631566ba0d84804f9250d505b4f0fdb517090600090a35050565b604051630f07232560e01b8152600260048201526001600160a01b038216602482015233604482015273__$a374c895e6fa8c448878668e00d93ef99a$__90630f0723259060640160006040518083038186803b15801561271957600080fd5b505af415801561272d573d6000803e3d6000fd5b50506040516001600160a01b03841692507fe435cbeab64e4eae6497b9d8289704bd709d624a80704ef3ca9af777534bc6ec9150600090a250565b604051636b01b91b60e11b8152600860048201526024810182905260609073__$cac151d8046b3f585e8c62b90c0a43c925$__9063d60372369060440160006040518083038186803b1580156127bd57600080fd5b505af41580156127d1573d6000803e3d6000fd5b505050506040513d6000823e601f3d908101601f19168201604052610c5191908101906155a6565b604051632a3be56b60e21b815260026004820152602481018390526044810182905260009073__$a374c895e6fa8c448878668e00d93ef99a$__9063a8ef95ac90606401610dc6565b73__$a374c895e6fa8c448878668e00d93ef99a$__639b48160c60028361286761420e565b6040516001600160e01b031960e086901b1681526004810193909352602483019190915264ffffffffff16604482015260640160006040518083038186803b1580156128b257600080fd5b505af41580156128c6573d6000803e3d6000fd5b50506040518392507f8b6f40f36b4ae8cc5f55e895036457c43da4ab1f80f58c46f5ff0d72a650033b9150600090a250565b60405163927190d160e01b81526008600482015260609073__$cac151d8046b3f585e8c62b90c0a43c925$__9063927190d19060240161140e565b60405163987ad15360e01b81526002600482015260009073__$a374c895e6fa8c448878668e00d93ef99a$__9063987ad15390602401610e4d565b6040516307b445ef60e21b81526008600482015260609073__$cac151d8046b3f585e8c62b90c0a43c925$__90631ed117bc9060240161140e565b73__$a374c895e6fa8c448878668e00d93ef99a$__63cc0d511b6002836118d661420e565b6040516366e6822360e11b8152600860048201526024810182905260009073__$cac151d8046b3f585e8c62b90c0a43c925$__9063cdcd044690604401611c8e565b60405163d7dfe4f560e01b815260086004820152602481018390526044810182905260009073__$cac151d8046b3f585e8c62b90c0a43c925$__9063d7dfe4f590606401610dc6565b6040516305f7f47f60e51b815260048082015260248101849052604481018390526064810182905260009073__$48fdb68298ec07f9843b28bfe921898719$__9063befe8fe09060840160206040518083038186803b158015612abb57600080fd5b505af4158015612acf573d6000803e3d6000fd5b505050506040513d601f19601f820116820180604052508101906113d091906152e0565b9392505050565b6040516378a3d56560e11b8152600480820152602481018390526044810182905260009073__$48fdb68298ec07f9843b28bfe921898719$__9063f147aaca9060640160206040518083038186803b158015612b5557600080fd5b505af4158015612b69573d6000803e3d6000fd5b505050506040513d601f19601f82011682018060405250810190610c4e91906153ed565b604051633b11adbf60e21b815273__$a374c895e6fa8c448878668e00d93ef99a$__9063ec46b6fc90612bc79060029033906004016152be565b60206040518083038186803b158015612bdf57600080fd5b505af4158015612bf3573d6000803e3d6000fd5b505050506040513d601f19601f82011682018060405250810190612c1791906152e0565b612c335760405162461bcd60e51b8152600401610ac290615543565b600473__$48fdb68298ec07f9843b28bfe921898719$__63101bca47909186848787600160009054906101000a90046001600160a01b03166001600160a01b03166333fb96ee6040518163ffffffff1660e01b815260040160206040518083038186803b158015612ca357600080fd5b505afa158015612cb7573d6000803e3d6000fd5b505050506040513d601f19601f82011682018060405250810190612cdb9190615406565b6040516001600160e01b031960e089901b168152600481019690965260248601949094526044850192909252606484015260848301526001600160a01b031660a482015260c40160006040518083038186803b158015612d3a57600080fd5b505af4158015612d4e573d6000803e3d6000fd5b505050508281857f30261d848cf8e6ce809b7c0881ef706076b3ad592520b89d6f929408b9fa80d885604051612d8691815260200190565b60405180910390a450505050565b60405163cc526e6b60e01b81526004808201526024810182905260009073__$48fdb68298ec07f9843b28bfe921898719$__9063cc526e6b90604401611c8e565b604051633b11adbf60e21b815260009073__$a374c895e6fa8c448878668e00d93ef99a$__9063ec46b6fc90612e129060029033906004016152be565b60206040518083038186803b158015612e2a57600080fd5b505af4158015612e3e573d6000803e3d6000fd5b505050506040513d601f19601f82011682018060405250810190612e6291906152e0565b612e7e5760405162461bcd60e51b8152600401610ac290615543565b6000612e8d89898989896143f8565b9050612e9d60048a858785614268565b9998505050505050505050565b612eb2614523565b604051630363eeeb60e01b81526004808201526024810183905273__$48fdb68298ec07f9843b28bfe921898719$__90630363eeeb906044016104406040518083038186803b158015612f0457600080fd5b505af4158015612f18573d6000803e3d6000fd5b505050506040513d601f19601f82011682018060405250810190610c51919061586a565b6040516338d1980760e21b81526004808201526024810182905260009073__$48fdb68298ec07f9843b28bfe921898719$__9063e346601c90604401611c8e565b604051633b11adbf60e21b815273__$a374c895e6fa8c448878668e00d93ef99a$__9063ec46b6fc90612fb79060029033906004016152be565b60206040518083038186803b158015612fcf57600080fd5b505af4158015612fe3573d6000803e3d6000fd5b505050506040513d601f19601f8201168201806040525081019061300791906152e0565b8061308857506001546040516335d2155560e11b81523360048201526001600160a01b0390911690636ba42aaa9060240160206040518083038186803b15801561305057600080fd5b505afa158015613064573d6000803e3d6000fd5b505050506040513d601f19601f8201168201806040525081019061308891906152e0565b6130a45760405162461bcd60e51b8152600401610ac2906152fd565b6040516329e7cbdf60e01b8152600860048201526024810182905273__$cac151d8046b3f585e8c62b90c0a43c925$__906329e7cbdf9060440160206040518083038186803b1580156130f657600080fd5b505af415801561310a573d6000803e3d6000fd5b505050506040513d601f19601f8201168201806040525081019061312e91906152e0565b15610b865760405181907fe8c64f4381287aebaa1af0fc4393402f518289dba624a7bc351a825d332173f290600090a250565b604051630186f31360e41b8152600860048201526024810182905260009073__$cac151d8046b3f585e8c62b90c0a43c925$__9063186f313090604401611c8e565b6040805180820182526000808252602082015290516307621e5360e01b81526004808201526024810186905260448101859052606481018490526001600160a01b038316608482015273__$48fdb68298ec07f9843b28bfe921898719$__906307621e539060a401604080518083038186803b15801561322257600080fd5b505af4158015613236573d6000803e3d6000fd5b505050506040513d601f19601f82011682018060405250810190611feb9190615a75565b6040516325a67f0760e01b8152600860048201526024810182905260009073__$cac151d8046b3f585e8c62b90c0a43c925$__906325a67f0790604401611c8e565b604051633b11adbf60e21b815273__$a374c895e6fa8c448878668e00d93ef99a$__9063ec46b6fc906132d69060029033906004016152be565b60206040518083038186803b1580156132ee57600080fd5b505af4158015613302573d6000803e3d6000fd5b505050506040513d601f19601f8201168201806040525081019061332691906152e0565b6133425760405162461bcd60e51b8152600401610ac290615543565b600473__$48fdb68298ec07f9843b28bfe921898719$__63bf2abd50909186848787600160009054906101000a90046001600160a01b03166001600160a01b0316639262826d6040518163ffffffff1660e01b815260040160206040518083038186803b1580156133b257600080fd5b505afa1580156133c6573d6000803e3d6000fd5b505050506040513d601f19601f820116820180604052508101906133ea9190615406565b6040516001600160e01b031960e089901b168152600481019690965260248601949094526044850192909252606484015260848301526001600160a01b031660a482015260c40160006040518083038186803b15801561344957600080fd5b505af415801561345d573d6000803e3d6000fd5b505050508281857fe3a6e11aafb69b98aed10406bfbda036914bbe977ca10676d99665efa0d9af4885604051612d8691815260200190565b604051633b11adbf60e21b815260009073__$a374c895e6fa8c448878668e00d93ef99a$__9063ec46b6fc906134d29060029033906004016152be565b60206040518083038186803b1580156134ea57600080fd5b505af41580156134fe573d6000803e3d6000fd5b505050506040513d601f19601f8201168201806040525081019061352291906152e0565b61353e5760405162461bcd60e51b8152600401610ac290615543565b611feb60038584866001600160a01b038a16614268565b604051636cdd0edf60e11b815260026004820152602481018590526001600160a01b038416604482015273__$a374c895e6fa8c448878668e00d93ef99a$__9063d9ba1dbe9060640160006040518083038186803b1580156135b657600080fd5b505af41580156135ca573d6000803e3d6000fd5b505050506135d782614435565b6135e0816144a8565b6040516001600160a01b038381168252808316919085169086907f3abb2418c66fe32ba9c883030a75ce583971d9af9192b9b74e44e67c5e6c8c1f90602001612d86565b60405163b34299c960e01b8152600480820152602481018390526044810182905260009073__$48fdb68298ec07f9843b28bfe921898719$__9063b34299c990606401610dc6565b6040805161012081018252600080825260208201819052818301819052606082018190526080820181905260a0820181905260c0820181905260e08201819052610100820152905163027fbbbb60e21b8152600860048201526024810183905273__$cac151d8046b3f585e8c62b90c0a43c925$__906309feeeec906044016101206040518083038186803b15801561370457600080fd5b505af4158015613718573d6000803e3d6000fd5b505050506040513d601f19601f82011682018060405250810190610c519190615ab6565b60405163cd1a58a760e01b8152600860048201526024810182905260009073__$cac151d8046b3f585e8c62b90c0a43c925$__9063cd1a58a790604401611c8e565b604051633b11adbf60e21b815273__$a374c895e6fa8c448878668e00d93ef99a$__9063ec46b6fc906137b89060029033906004016152be565b60206040518083038186803b1580156137d057600080fd5b505af41580156137e4573d6000803e3d6000fd5b505050506040513d601f19601f8201168201806040525081019061380891906152e0565b6138245760405162461bcd60e51b8152600401610ac290615543565b600154604080516314c35b8560e31b8152905173__$48fdb68298ec07f9843b28bfe921898719$__9263e5493ad69260049287926001600160a01b03169163a61adc2891818601916020919081900387018186803b15801561388557600080fd5b505afa158015613899573d6000803e3d6000fd5b505050506040513d601f19601f820116820180604052508101906138bd9190615406565b600160009054906101000a90046001600160a01b03166001600160a01b03166333fb96ee6040518163ffffffff1660e01b815260040160206040518083038186803b15801561390b57600080fd5b505afa15801561391f573d6000803e3d6000fd5b505050506040513d601f19601f820116820180604052508101906139439190615406565b600160009054906101000a90046001600160a01b03166001600160a01b0316639262826d6040518163ffffffff1660e01b815260040160206040518083038186803b15801561399157600080fd5b505afa1580156139a5573d6000803e3d6000fd5b505050506040513d601f19601f820116820180604052508101906139c99190615406565b6040516001600160e01b031960e088901b168152600481019590955260248501939093526001600160a01b0391821660448501528116606484015216608482015260a4810184905260c40160006040518083038186803b158015613a2c57600080fd5b505af4158015613a40573d6000803e3d6000fd5b50506040518392508491507fca7b9ebcec0c47f48df2212822ec599138f81b1824e05efae9d69ad494c4fd9790600090a35050565b604051633c3e56c160e11b81526002600482015260009073__$a374c895e6fa8c448878668e00d93ef99a$__9063787cad829060240160206040518083038186803b158015613ac357600080fd5b505af4158015613ad7573d6000803e3d6000fd5b505050506040513d601f19601f82011682018060405250810190610cde9190615406565b600254600160f01b900460ff16600114613b575760405162461bcd60e51b815260206004820152601760248201527f41432e4c433a20446f632069732066696e616c697a65640000000000000000006044820152606401610ac2565b73__$a374c895e6fa8c448878668e00d93ef99a$__63c51b295f6002684174746f726e65797360b81b613b8861420e565b6040516001600160e01b031960e086901b1681526004810193909352602483019190915264ffffffffff16604482015260640160006040518083038186803b158015613bd357600080fd5b505af4158015613be7573d6000803e3d6000fd5b50505050600273__$a374c895e6fa8c448878668e00d93ef99a$__6313a187d290916000613c1361420e565b6040516001600160e01b031960e086901b1681526004810193909352602483019190915264ffffffffff16604482015233606482015260840160006040518083038186803b158015613c6457600080fd5b505af4158015613c78573d6000803e3d6000fd5b50505050600273__$a374c895e6fa8c448878668e00d93ef99a$__639b48160c90916000613ca461420e565b6040516001600160e01b031960e086901b1681526004810193909352602483019190915264ffffffffff16604482015260640160006040518083038186803b158015613cef57600080fd5b505af4158015613d03573d6000803e3d6000fd5b50506002805460ff60f01b1916600160f11b17905550506040517f35012b512309c322acf68632cd6cb702ff0e1d776fbe9394e38ffc13b434fe7590600090a1565b604051633b11adbf60e21b815260009073__$a374c895e6fa8c448878668e00d93ef99a$__9063ec46b6fc90613d829060029033906004016152be565b60206040518083038186803b158015613d9a57600080fd5b505af4158015613dae573d6000803e3d6000fd5b505050506040513d601f19601f82011682018060405250810190613dd291906152e0565b613dee5760405162461bcd60e51b8152600401610ac290615543565b60405163d2e9901f60e01b815273__$48fdb68298ec07f9843b28bfe921898719$__9063d2e9901f90613e2b906004908890889088908401615b61565b60206040518083038186803b158015613e4357600080fd5b505af4158015613e57573d6000803e3d6000fd5b505050506040513d601f19601f82011682018060405250810190613e7b9190615c24565b90508060ff16837f09dabc8247f652d3170a3738595d35365582b55eebeee44e1059d2981852648360405160405180910390a39392505050565b604051633b11adbf60e21b815260009073__$a374c895e6fa8c448878668e00d93ef99a$__9063ec46b6fc90613ef29060029033906004016152be565b60206040518083038186803b158015613f0a57600080fd5b505af4158015613f1e573d6000803e3d6000fd5b505050506040513d601f19601f82011682018060405250810190613f4291906152e0565b613f5e5760405162461bcd60e51b8152600401610ac290615543565b6113d0600284848088614268565b604051633b11adbf60e21b815273__$a374c895e6fa8c448878668e00d93ef99a$__9063ec46b6fc90613fa69060029033906004016152be565b60206040518083038186803b158015613fbe57600080fd5b505af4158015613fd2573d6000803e3d6000fd5b505050506040513d601f19601f82011682018060405250810190613ff691906152e0565b6140125760405162461bcd60e51b8152600401610ac290615543565b600473__$48fdb68298ec07f9843b28bfe921898719$__63052075289091858585600160009054906101000a90046001600160a01b03166001600160a01b03166333fb96ee6040518163ffffffff1660e01b815260040160206040518083038186803b15801561408157600080fd5b505afa158015614095573d6000803e3d6000fd5b505050506040513d601f19601f820116820180604052508101906140b99190615406565b600160009054906101000a90046001600160a01b03166001600160a01b0316639262826d6040518163ffffffff1660e01b815260040160206040518083038186803b15801561410757600080fd5b505afa15801561411b573d6000803e3d6000fd5b505050506040513d601f19601f8201168201806040525081019061413f9190615406565b6040516001600160e01b031960e089901b16815260048101969096526024860194909452604485019290925260648401526001600160a01b0390811660848401521660a482015260c40160206040518083038186803b1580156141a157600080fd5b505af41580156141b5573d6000803e3d6000fd5b505050506040513d601f19601f820116820180604052508101906141d991906152e0565b508082847ffb530b01fe8da7c67ca83c49ce04d6ca6adbb57fb2b332097e62c6fe6cc6859b60405160405180910390a4505050565b60008054604051636ae3b70d60e11b81523360048201526001600160a01b039091169063d5c76e1a90602401602060405180830381600087803b15801561425457600080fd5b505af1158015610e79573d6000803e3d6000fd5b6040805160e08101825260006020820181905260a0820181905260c0820181905260ff8816825261ffff87168284015264ffffffffff868116606084015285166080830152915163072895eb60e51b815273__$48fdb68298ec07f9843b28bfe921898719$__9063e512bd60906142e790600490859088908301615c41565b60e06040518083038186803b1580156142ff57600080fd5b505af4158015614313573d6000803e3d6000fd5b505050506040513d601f19601f820116820180604052508101906143379190615c65565b90508273__$48fdb68298ec07f9843b28bfe921898719$__63f138788e836040518263ffffffff1660e01b81526004016143719190615c81565b60206040518083038186803b15801561438957600080fd5b505af415801561439d573d6000803e3d6000fd5b505050506040513d601f19601f820116820180604052508101906143c191906153ed565b6040517f3ac733a5e01b133fe59ace4c20e40ab1916d571ff364ec4819dc2951be83642e90600090a3602001519695505050505050565b60008585858585604051602001614413959493929190615c8f565b60408051601f1981840301815291905280516020909101209695505050505050565b6000546001600160a01b0316156144865760405162461bcd60e51b815260206004820152601560248201527430b63932b0b23c9039b2ba103932b3a1b2b73a32b960591b6044820152606401610ac2565b600080546001600160a01b0319166001600160a01b0392909216919091179055565b6001546001600160a01b0316156145015760405162461bcd60e51b815260206004820152601960248201527f616c7265616479207365742067656e6572616c4b6565706572000000000000006044820152606401610ac2565b600180546001600160a01b0319166001600160a01b0392909216919091179055565b60408051610160810190915260006080820181815260a0830182905260c0830182905260e0830182905261010083018290526101208301829052610140830191909152819081526040805160e08101825260008082526020828101829052928201819052606082018190526080820181905260a0820181905260c082015291019081526020016145b16145be565b8152602001600081525090565b6040805161024081018252600080825260208201819052918101829052606081018290526080810182905260a0810182905260c0810182905260e08101829052610100810182905261012081018290526101408101829052610160810182905261018081018290526101a081018290526101c081018290526101e0810191909152610200810161464c614659565b8152600060209091015290565b60405180604001604052806002906020820280368337509192915050565b60006020828403121561468957600080fd5b5035919050565b600080604083850312156146a357600080fd5b50508035926020909101359150565b600060208083526080830163ffffffff855116828501526001600160401b0382860151166040850152604085015160608086015281815180845260a0870191508483019350600092505b8083101561471c57835182529284019260019290920191908401906146fc565b509695505050505050565b6001600160a01b0381168114610b8657600080fd5b60008060006060848603121561475157600080fd5b8335925060208401359150604084013561476a81614727565b809150509250925092565b600081518084526020808501945080840160005b838110156147a557815187529582019590820190600101614789565b509495945050505050565b602081526000610c4e6020830184614775565b634e487b7160e01b600052604160045260246000fd5b60405161012081016001600160401b03811182821017156147fc576147fc6147c3565b60405290565b60405160e081016001600160401b03811182821017156147fc576147fc6147c3565b604080519081016001600160401b03811182821017156147fc576147fc6147c3565b60405161024081016001600160401b03811182821017156147fc576147fc6147c3565b604051608081016001600160401b03811182821017156147fc576147fc6147c3565b60405160a081016001600160401b03811182821017156147fc576147fc6147c3565b604051601f8201601f191681016001600160401b03811182821017156148d5576148d56147c3565b604052919050565b61ffff81168114610b8657600080fd5b80356148f8816148dd565b919050565b64ffffffffff81168114610b8657600080fd5b80356148f8816148fd565b65ffffffffffff81168114610b8657600080fd5b80356148f88161491b565b6000610120828403121561494d57600080fd5b6149556147d9565b61495e836148ed565b815261496c602084016148ed565b602082015261497d60408401614910565b604082015261498e60608401614910565b606082015261499f6080840161492f565b60808201526149b060a0840161492f565b60a08201526149c160c084016148ed565b60c08201526149d260e084016148ed565b60e08201526101006149e58185016148ed565b908201529392505050565b600080600060608486031215614a0557600080fd5b505081359360208301359350604090920135919050565b60008060008060808587031215614a3257600080fd5b5050823594602084013594506040840135936060013592509050565b60006001600160401b03821115614a6757614a676147c3565b5060051b60200190565b600082601f830112614a8257600080fd5b81356020614a97614a9283614a4e565b6148ad565b82815260059290921b84018101918181019086841115614ab657600080fd5b8286015b8481101561471c5780358352918301918301614aba565b6000601f8381840112614ae357600080fd5b82356020614af3614a9283614a4e565b82815260059290921b85018101918181019087841115614b1257600080fd5b8287015b848110156122915780356001600160401b0380821115614b365760008081fd5b818a0191508a603f830112614b4b5760008081fd5b85820135604082821115614b6157614b616147c3565b614b72828b01601f191689016148ad565b92508183528c81838601011115614b895760008081fd5b8181850189850137506000908201870152845250918301918301614b16565b600080600080600080600060e0888a031215614bc357600080fd5b873596506020808901356001600160401b0380821115614be257600080fd5b818b0191508b601f830112614bf657600080fd5b8135614c04614a9282614a4e565b81815260059190911b8301840190848101908e831115614c2357600080fd5b938501935b82851015614c4a578435614c3b81614727565b82529385019390850190614c28565b9a50505060408b0135925080831115614c6257600080fd5b614c6e8c848d01614a71565b975060608b0135925080831115614c8457600080fd5b5050614c928a828b01614ad1565b979a969950949760808101359660a0820135965060c090910135945092505050565b600060208284031215614cc657600080fd5b8135612af381614727565b6000602080835260c0830164ffffffffff8086511683860152828601516001600160401b038082166040880152806040890151166060880152505063ffffffff6060870151166080860152608086015160a08087015282815180855260e0880191508583019450600092505b8083101561229157845184168252938501936001929092019190850190614d3d565b61ffff8082511683526001600160401b03602083015116602084015280604083015116604084015250606081015164ffffffffff8082166060850152806080840151166080850152505065ffffffffffff60a08201511660a083015263ffffffff60c08201511660c08301525050565b8060005b6002811015614df957815164ffffffffff16845260209384019390910190600101614dd3565b50505050565b805161ffff1682526020810151614e1b602084018260ff169052565b506040810151614e30604084018260ff169052565b506060810151614e46606084018261ffff169052565b506080810151614e5c608084018261ffff169052565b5060a0810151614e7260a084018261ffff169052565b5060c0810151614e8660c084018215159052565b5060e0810151614e9a60e084018215159052565b5061010081810151151590830152610120808201511515908301526101408082015160ff9081169184019190915261016080830151821690840152610180808301518216908401526101a0808301518216908401526101c0808301518216908401526101e0808301519091169083015261020080820151614f1d82850182614dcf565b5050610220015161ffff166102409190910152565b600061044082019050614f46828451614d5f565b602083810151805164ffffffffff1660e08501529081015165ffffffffffff908116610100850152604082015181166101208501526060820151811661014085015260808201511661016084015260a081015161ffff81166101808501525060c0015160ff81166101a0840152506040830151614fc76101c0840182614dff565b50606083015161042083015292915050565b60008060008060808587031215614fef57600080fd5b843593506020850135925060408501359150606085013561500f81614727565b939692955090935050565b6000806000806080858703121561503057600080fd5b843561503b81614727565b966020860135965060408601359560600135945092505050565b6000806000806080858703121561506b57600080fd5b84359350602085013561507d81614727565b9250604085013561508d81614727565b9150606085013561500f81614727565b61ffff8082511683528060208301511660208401525064ffffffffff604082015116604083015260608101516150dc606084018264ffffffffff169052565b5060808101516150f6608084018265ffffffffffff169052565b5060a081015161511060a084018265ffffffffffff169052565b5060c081015161512660c084018261ffff169052565b5060e081015161513c60e084018261ffff169052565b506101008181015161ffff811684830152614df9565b6101208101610c51828461509d565b8015158114610b8657600080fd5b80356148f881615161565b63ffffffff81168114610b8657600080fd5b80356148f88161517a565b6001600160401b0381168114610b8657600080fd5b80356148f881615197565b60ff81168114610b8657600080fd5b80356148f8816151b7565b60008060008385036101608112156151e857600080fd5b84356151f381615161565b935060208501359250610120603f19820181131561521057600080fd5b6152186147d9565b91506152266040870161518c565b8252615234606087016151ac565b60208301526152456080870161518c565b604083015261525660a087016151ac565b606083015261526760c087016148ed565b608083015261527860e087016148ed565b60a083015261010061528b8188016148ed565b60c084015261529b8288016151c6565b60e08401526152ad610140880161516f565b818401525050809150509250925092565b9182526001600160a01b0316602082015260400190565b80516148f881615161565b6000602082840312156152f257600080fd5b8151612af381615161565b60208082526011908201527020a19737b59d103737ba1025b2b2b832b960791b604082015260600190565b80516148f8816148fd565b80516148f8816151b7565b80516148f88161517a565b80516148f88161491b565b600060e0828403121561536657600080fd5b61536e614802565b8251615379816148fd565b81526020830151615389816151b7565b6020820152604083015161539c8161517a565b604082015260608301516153af81615197565b606082015260808301516153c28161491b565b608082015260a08301516153d581615197565b60a082015260c0928301519281019290925250919050565b6000602082840312156153ff57600080fd5b5051919050565b60006020828403121561541857600080fd5b8151612af381614727565b60006020828403121561543557600080fd5b8151612af3816148fd565b600082601f83011261545157600080fd5b81516020615461614a9283614a4e565b82815260059290921b8401810191818101908684111561548057600080fd5b8286015b8481101561471c5780518352918301918301615484565b6000602082840312156154ad57600080fd5b81516001600160401b03808211156154c457600080fd5b90830190606082860312156154d857600080fd5b6040516060810181811083821117156154f3576154f36147c3565b60405282516155018161517a565b8152602083015161551181615197565b602082015260408301518281111561552857600080fd5b61553487828601615440565b60408301525095945050505050565b60208082526026908201527f41432e6f6e6c794469726563744b65657065723a206e6f74206469726563742060408201526535b2b2b832b960d11b606082015260800190565b60006020828403121561559b57600080fd5b8151612af38161517a565b6000602082840312156155b857600080fd5b81516001600160401b038111156155ce57600080fd5b6113d084828501615440565b8281526101408101612af3602083018461509d565b80516148f8816148dd565b600060e0828403121561560c57600080fd5b60405160e081018181106001600160401b038211171561562e5761562e6147c3565b80604052508091508251615641816148dd565b8152602083015161565181615197565b60208201526040830151615664816148dd565b60408201526060830151615677816148fd565b606082015261568860808401615328565b608082015261569960a08401615349565b60a08201526156aa60c0840161533e565b60c08201525092915050565b600082601f8301126156c757600080fd5b6156cf614824565b8060408401858111156156e157600080fd5b845b818110156157045780516156f6816148fd565b8452602093840193016156e3565b509095945050505050565b6000610260828403121561572257600080fd5b61572a614846565b9050615735826155ef565b815261574360208301615333565b602082015261575460408301615333565b6040820152615765606083016155ef565b6060820152615776608083016155ef565b608082015261578760a083016155ef565b60a082015261579860c083016152d5565b60c08201526157a960e083016152d5565b60e08201526101006157bc8184016152d5565b908201526101206157ce8382016152d5565b908201526101406157e0838201615333565b908201526101606157f2838201615333565b90820152610180615804838201615333565b908201526101a0615816838201615333565b908201526101c0615828838201615333565b908201526101e061583a838201615333565b9082015261020061584d848483016156b6565b9082015261585e61024083016155ef565b61022082015292915050565b600081830361044081121561587e57600080fd5b615886614869565b61589085856155fa565b815260e060df19830112156158a457600080fd5b6158ac614802565b915060e08401516158bc816148fd565b82526101008401516158cd8161491b565b60208301526101208401516158e18161491b565b60408301526101408401516158f58161491b565b60608301526159076101608501615349565b608083015261591961018085016155ef565b60a083015261592b6101a08501615333565b60c0830152816020820152615944856101c0860161570f565b604082015261042093909301516060840152509092915050565b6000602080838503121561597157600080fd5b82516001600160401b038082111561598857600080fd5b9084019060a0828703121561599c57600080fd5b6159a461488b565b82516159af816148fd565b8152828401516159be81615197565b8185015260408301516159d081615197565b604082015260608301516159e38161517a565b60608201526080830151828111156159fa57600080fd5b80840193505086601f840112615a0f57600080fd5b82519150615a1f614a9283614a4e565b82815260059290921b83018401918481019088841115615a3e57600080fd5b938501935b83851015615a65578451615a56816148fd565b82529385019390850190615a43565b6080830152509695505050505050565b600060408284031215615a8757600080fd5b615a8f614824565b8251615a9a81615197565b81526020830151615aaa8161517a565b60208201529392505050565b60006101208284031215615ac957600080fd5b615ad16147d9565b615ada836155ef565b8152615ae8602084016155ef565b6020820152615af960408401615328565b6040820152615b0a60608401615328565b6060820152615b1b60808401615349565b6080820152615b2c60a08401615349565b60a0820152615b3d60c084016155ef565b60c0820152615b4e60e084016155ef565b60e08201526101006149e58185016155ef565b600061018082019050858252841515602083015283604083015263ffffffff83511660608301526001600160401b0360208401511660808301526040830151615bb260a084018263ffffffff169052565b5060608301516001600160401b03811660c084015250608083015161ffff811660e08401525060a0830151610100615bef8185018361ffff169052565b60c085015161ffff1661012085015260e085015160ff1661014085015290930151151561016090920191909152949350505050565b600060208284031215615c3657600080fd5b8151612af3816151b7565b8381526101208101615c566020830185614d5f565b82610100830152949350505050565b600060e08284031215615c7757600080fd5b610c4e83836155fa565b60e08101610c518284614d5f565b600060a08201878352602060a08185015281885180845260c086019150828a01935060005b81811015615cd95784516001600160a01b031683529383019391830191600101615cb4565b50508481036040860152615ced8189614775565b92505083820360608501528186518084528284019150828160051b85010183890160005b83811015615d7857601f19808885030186528251805180865260005b81811015615d48578281018a01518782018b01528901615d2d565b81811115615d595760008a83890101525b5096880196601f01909116939093018601925090850190600101615d11565b50508095505050505050826080830152969550505050505056fea264697066735822122085d6ab9e28f87f7b26b99a637503e1b27083bb85c9d97a25a37fc37331be689b64736f6c63430008080033",
    "sourcePath": "/Users/kaptain/github.com/comboox/comboox/contracts/books/bod/BookOfDirectors.sol",
    "compiler": {
        "name": "solc",
        "version": "0.8.8+commit.dddeac2f"
    },
    "functionHashes": {
        "abandonRole(bytes32)": "3da9a600",
        "castVoteInBoardMeeting(uint256,uint256,bytes32,uint256)": "d9677b0c",
        "castVoteInGeneralMeeting(uint256,uint256,bytes32,uint256)": "a0d100ef",
        "createAction(uint256,address[],uint256[],bytes[],bytes32,uint256,uint256)": "ab86a9d9",
        "createMotionToApproveDoc(address,uint256,uint256,uint256)": "da8b76bc",
        "createMotionToRemoveOfficer(uint256,uint256,uint256)": "fb030548",
        "createPosition(bytes32)": "171c5c04",
        "entrustDelegate(uint256,uint256,uint256)": "fe1bdff2",
        "execAction(uint256,address[],uint256[],bytes[],bytes32,uint256,uint256)": "5c2753bf",
        "execResolution(uint256,uint256,uint256)": "2d3eaa40",
        "finalized()": "b3f05b97",
        "getBallot(uint256,uint256)": "0d358757",
        "getBoardSeatsOccupied(uint256)": "590022aa",
        "getBookeeper()": "ed211023",
        "getCaseOfAttitude(uint256,uint256)": "165dd5ec",
        "getDelegateOf(uint256,uint256)": "9a51cdfc",
        "getDirectorsList()": "8988c0cf",
        "getDirectorsPosList()": "3e78db5b",
        "getGeneralCounsel()": "103f6edd",
        "getLeavesHeadcountOfDirectors(uint256,uint256,address)": "22d49e2c",
        "getLeavesWeightAtDate(uint256,uint256,uint256,address)": "c41f49b0",
        "getManagersList()": "3af442ac",
        "getManagersPosList()": "818b3d11",
        "getMotion(uint256)": "ad15aad2",
        "getNumOfDirectors()": "695b2f60",
        "getNumOfManagers()": "0d8a741d",
        "getOwner()": "893d20e8",
        "getPosInHand(uint256)": "6ed7e039",
        "getPosition(uint256)": "eb02c301",
        "getSeqList()": "243fbc21",
        "getVoterOfDelegateMap(uint256,uint256)": "61df743f",
        "grantRole(bytes32,uint256)": "1b6ea9f9",
        "hasNominationRight(uint256,uint256)": "40749570",
        "hasPosition(uint256,uint256)": "931a675a",
        "hasRole(bytes32,uint256)": "7e063c5a",
        "hasTitle(uint256,uint256)": "0ff51f39",
        "init(uint256,address,address,address)": "dc890da9",
        "isDirector(uint256)": "9258effe",
        "isManager(uint256)": "c708ed82",
        "isOccupied(uint256)": "ec2fbbff",
        "isPassed(uint256)": "49403183",
        "isProposed(uint256)": "59269f82",
        "isVoted(uint256,uint256)": "ea56efc6",
        "isVotedFor(uint256,uint256,uint256)": "9371bd1e",
        "lockContents()": "f045a769",
        "nominateOfficer(uint256,uint256,uint256,uint256)": "4f6413ac",
        "posExist(uint256)": "c1416b0c",
        "proposeMotionToBoard(uint256,uint256)": "48c01a8b",
        "proposeMotionToGeneralMeeting(uint256,uint256)": "ec83613b",
        "quitPosition(uint256,uint256)": "1ad1ea44",
        "removeDirectKeeper(address)": "5d7ad88f",
        "removeOfficer(uint256)": "015c98ce",
        "removePosition(uint256)": "c0467422",
        "renounceRole(bytes32)": "8bb9c5bf",
        "revokeRole(bytes32,uint256)": "19d61ad9",
        "setDirectKeeper(address)": "6be8496f",
        "setGeneralCounsel(uint256)": "4a14beb1",
        "setOwner(uint256)": "8041494e",
        "setRoleAdmin(bytes32,uint256)": "5171ebd4",
        "takePosition(uint256,uint256)": "6998d28d",
        "updatePosition((uint16,uint16,uint40,uint40,uint48,uint48,uint16,uint16,uint16))": "2700b4cc",
        "voteCounting(bool,uint256,(uint32,uint64,uint32,uint64,uint16,uint16,uint16,uint8,bool))": "f04e47ab",
        "voteEnded(uint256)": "b43a401d",
        "voteStarted(uint256)": "a1e1d621"
    },
    "gasEstimates": {
        "creation": {
            "codeDepositCost": "4801600",
            "executionCost": "5658",
            "totalCost": "4807258"
        },
        "external": {
            "abandonRole(bytes32)": "infinite",
            "castVoteInBoardMeeting(uint256,uint256,bytes32,uint256)": "infinite",
            "castVoteInGeneralMeeting(uint256,uint256,bytes32,uint256)": "infinite",
            "createAction(uint256,address[],uint256[],bytes[],bytes32,uint256,uint256)": "infinite",
            "createMotionToApproveDoc(address,uint256,uint256,uint256)": "infinite",
            "createMotionToRemoveOfficer(uint256,uint256,uint256)": "infinite",
            "createPosition(bytes32)": "infinite",
            "entrustDelegate(uint256,uint256,uint256)": "infinite",
            "execAction(uint256,address[],uint256[],bytes[],bytes32,uint256,uint256)": "infinite",
            "execResolution(uint256,uint256,uint256)": "infinite",
            "finalized()": "2438",
            "getBallot(uint256,uint256)": "infinite",
            "getBoardSeatsOccupied(uint256)": "infinite",
            "getBookeeper()": "infinite",
            "getCaseOfAttitude(uint256,uint256)": "infinite",
            "getDelegateOf(uint256,uint256)": "infinite",
            "getDirectorsList()": "infinite",
            "getDirectorsPosList()": "infinite",
            "getGeneralCounsel()": "infinite",
            "getLeavesHeadcountOfDirectors(uint256,uint256,address)": "infinite",
            "getLeavesWeightAtDate(uint256,uint256,uint256,address)": "infinite",
            "getManagersList()": "infinite",
            "getManagersPosList()": "infinite",
            "getMotion(uint256)": "infinite",
            "getNumOfDirectors()": "infinite",
            "getNumOfManagers()": "infinite",
            "getOwner()": "infinite",
            "getPosInHand(uint256)": "infinite",
            "getPosition(uint256)": "infinite",
            "getSeqList()": "infinite",
            "getVoterOfDelegateMap(uint256,uint256)": "infinite",
            "grantRole(bytes32,uint256)": "infinite",
            "hasNominationRight(uint256,uint256)": "infinite",
            "hasPosition(uint256,uint256)": "infinite",
            "hasRole(bytes32,uint256)": "infinite",
            "hasTitle(uint256,uint256)": "infinite",
            "init(uint256,address,address,address)": "infinite",
            "isDirector(uint256)": "infinite",
            "isManager(uint256)": "infinite",
            "isOccupied(uint256)": "infinite",
            "isPassed(uint256)": "infinite",
            "isProposed(uint256)": "infinite",
            "isVoted(uint256,uint256)": "infinite",
            "isVotedFor(uint256,uint256,uint256)": "infinite",
            "lockContents()": "infinite",
            "nominateOfficer(uint256,uint256,uint256,uint256)": "infinite",
            "posExist(uint256)": "infinite",
            "proposeMotionToBoard(uint256,uint256)": "infinite",
            "proposeMotionToGeneralMeeting(uint256,uint256)": "infinite",
            "quitPosition(uint256,uint256)": "infinite",
            "removeDirectKeeper(address)": "infinite",
            "removeOfficer(uint256)": "infinite",
            "removePosition(uint256)": "infinite",
            "renounceRole(bytes32)": "infinite",
            "revokeRole(bytes32,uint256)": "infinite",
            "setDirectKeeper(address)": "infinite",
            "setGeneralCounsel(uint256)": "infinite",
            "setOwner(uint256)": "infinite",
            "setRoleAdmin(bytes32,uint256)": "infinite",
            "takePosition(uint256,uint256)": "infinite",
            "updatePosition((uint16,uint16,uint40,uint40,uint48,uint48,uint16,uint16,uint16))": "infinite",
            "voteCounting(bool,uint256,(uint32,uint64,uint32,uint64,uint16,uint16,uint16,uint8,bool))": "infinite",
            "voteEnded(uint256)": "infinite",
            "voteStarted(uint256)": "infinite"
        }
    }
}