{
    "contractName": "BookOfDirectors",
    "abi": [
        {
            "anonymous": false,
            "inputs": [
                {
                    "indexed": true,
                    "internalType": "uint40",
                    "name": "acct",
                    "type": "uint40"
                },
                {
                    "indexed": false,
                    "internalType": "uint8",
                    "name": "title",
                    "type": "uint8"
                },
                {
                    "indexed": false,
                    "internalType": "uint40",
                    "name": "appointer",
                    "type": "uint40"
                },
                {
                    "indexed": false,
                    "internalType": "uint48",
                    "name": "startDate",
                    "type": "uint48"
                },
                {
                    "indexed": false,
                    "internalType": "uint48",
                    "name": "endDate",
                    "type": "uint48"
                }
            ],
            "name": "AddDirector",
            "type": "event"
        },
        {
            "anonymous": false,
            "inputs": [
                {
                    "indexed": true,
                    "internalType": "uint40",
                    "name": "acct",
                    "type": "uint40"
                },
                {
                    "indexed": false,
                    "internalType": "uint8",
                    "name": "title",
                    "type": "uint8"
                },
                {
                    "indexed": false,
                    "internalType": "uint40",
                    "name": "appointer",
                    "type": "uint40"
                }
            ],
            "name": "AppointOfficer",
            "type": "event"
        },
        {
            "anonymous": false,
            "inputs": [
                {
                    "indexed": true,
                    "internalType": "uint256",
                    "name": "motionId",
                    "type": "uint256"
                },
                {
                    "indexed": false,
                    "internalType": "uint40",
                    "name": "caller",
                    "type": "uint40"
                },
                {
                    "indexed": false,
                    "internalType": "uint8",
                    "name": "attitude",
                    "type": "uint8"
                },
                {
                    "indexed": false,
                    "internalType": "bytes32",
                    "name": "sigHash",
                    "type": "bytes32"
                }
            ],
            "name": "CastVote",
            "type": "event"
        },
        {
            "anonymous": false,
            "inputs": [
                {
                    "indexed": true,
                    "internalType": "uint256",
                    "name": "motionId",
                    "type": "uint256"
                },
                {
                    "indexed": false,
                    "internalType": "uint40",
                    "name": "principal",
                    "type": "uint40"
                },
                {
                    "indexed": false,
                    "internalType": "uint40",
                    "name": "delegate",
                    "type": "uint40"
                },
                {
                    "indexed": false,
                    "internalType": "uint64",
                    "name": "weight",
                    "type": "uint64"
                }
            ],
            "name": "EntrustDelegate",
            "type": "event"
        },
        {
            "anonymous": false,
            "inputs": [
                {
                    "indexed": true,
                    "internalType": "uint256",
                    "name": "motionId",
                    "type": "uint256"
                },
                {
                    "indexed": false,
                    "internalType": "bool",
                    "name": "flag",
                    "type": "bool"
                }
            ],
            "name": "ExecuteAction",
            "type": "event"
        },
        {
            "anonymous": false,
            "inputs": [
                {
                    "indexed": false,
                    "internalType": "uint40",
                    "name": "owner",
                    "type": "uint40"
                },
                {
                    "indexed": false,
                    "internalType": "address",
                    "name": "directKeeper",
                    "type": "address"
                },
                {
                    "indexed": false,
                    "internalType": "address",
                    "name": "regCenter",
                    "type": "address"
                },
                {
                    "indexed": false,
                    "internalType": "address",
                    "name": "generalKeeper",
                    "type": "address"
                }
            ],
            "name": "Init",
            "type": "event"
        },
        {
            "anonymous": false,
            "inputs": [],
            "name": "LockContents",
            "type": "event"
        },
        {
            "anonymous": false,
            "inputs": [
                {
                    "indexed": true,
                    "internalType": "uint256",
                    "name": "motionId",
                    "type": "uint256"
                },
                {
                    "indexed": false,
                    "internalType": "bytes32",
                    "name": "rule",
                    "type": "bytes32"
                },
                {
                    "indexed": false,
                    "internalType": "uint40",
                    "name": "proposer",
                    "type": "uint40"
                },
                {
                    "indexed": false,
                    "internalType": "uint40",
                    "name": "executor",
                    "type": "uint40"
                }
            ],
            "name": "ProposeMotion",
            "type": "event"
        },
        {
            "anonymous": false,
            "inputs": [
                {
                    "indexed": true,
                    "internalType": "uint40",
                    "name": "acct",
                    "type": "uint40"
                }
            ],
            "name": "RemoveDirector",
            "type": "event"
        },
        {
            "anonymous": false,
            "inputs": [
                {
                    "indexed": false,
                    "internalType": "address",
                    "name": "keeper",
                    "type": "address"
                }
            ],
            "name": "SetDirectKeeper",
            "type": "event"
        },
        {
            "anonymous": false,
            "inputs": [
                {
                    "indexed": false,
                    "internalType": "uint256",
                    "name": "acct",
                    "type": "uint256"
                }
            ],
            "name": "SetGeneralCounsel",
            "type": "event"
        },
        {
            "anonymous": false,
            "inputs": [
                {
                    "indexed": false,
                    "internalType": "address",
                    "name": "gk",
                    "type": "address"
                }
            ],
            "name": "SetGeneralKeeper",
            "type": "event"
        },
        {
            "anonymous": false,
            "inputs": [
                {
                    "indexed": false,
                    "internalType": "uint8",
                    "name": "max",
                    "type": "uint8"
                }
            ],
            "name": "SetMaxQtyOfDirectors",
            "type": "event"
        },
        {
            "anonymous": false,
            "inputs": [
                {
                    "indexed": false,
                    "internalType": "uint256",
                    "name": "acct",
                    "type": "uint256"
                }
            ],
            "name": "SetOwner",
            "type": "event"
        },
        {
            "anonymous": false,
            "inputs": [
                {
                    "indexed": false,
                    "internalType": "address",
                    "name": "rc",
                    "type": "address"
                }
            ],
            "name": "SetRegCenter",
            "type": "event"
        },
        {
            "anonymous": false,
            "inputs": [
                {
                    "indexed": true,
                    "internalType": "uint256",
                    "name": "motionId",
                    "type": "uint256"
                },
                {
                    "indexed": false,
                    "internalType": "uint8",
                    "name": "state",
                    "type": "uint8"
                }
            ],
            "name": "VoteCounting",
            "type": "event"
        },
        {
            "inputs": [
                {
                    "internalType": "bytes32",
                    "name": "role",
                    "type": "bytes32"
                }
            ],
            "name": "abandonRole",
            "outputs": [],
            "stateMutability": "nonpayable",
            "type": "function"
        },
        {
            "inputs": [
                {
                    "internalType": "uint16",
                    "name": "seqOfVR",
                    "type": "uint16"
                },
                {
                    "internalType": "uint8",
                    "name": "title",
                    "type": "uint8"
                },
                {
                    "internalType": "uint40",
                    "name": "nominator",
                    "type": "uint40"
                },
                {
                    "internalType": "uint40",
                    "name": "candidate",
                    "type": "uint40"
                }
            ],
            "name": "appointOfficer",
            "outputs": [],
            "stateMutability": "nonpayable",
            "type": "function"
        },
        {
            "inputs": [
                {
                    "internalType": "uint256",
                    "name": "acct",
                    "type": "uint256"
                }
            ],
            "name": "boardSeatsOf",
            "outputs": [
                {
                    "internalType": "uint256",
                    "name": "",
                    "type": "uint256"
                }
            ],
            "stateMutability": "view",
            "type": "function"
        },
        {
            "inputs": [
                {
                    "internalType": "uint256",
                    "name": "motionId",
                    "type": "uint256"
                },
                {
                    "internalType": "uint40",
                    "name": "caller",
                    "type": "uint40"
                },
                {
                    "internalType": "uint8",
                    "name": "attitude",
                    "type": "uint8"
                },
                {
                    "internalType": "bytes32",
                    "name": "sigHash",
                    "type": "bytes32"
                }
            ],
            "name": "castVote",
            "outputs": [],
            "stateMutability": "nonpayable",
            "type": "function"
        },
        {
            "inputs": [],
            "name": "directors",
            "outputs": [
                {
                    "internalType": "uint40[]",
                    "name": "",
                    "type": "uint40[]"
                }
            ],
            "stateMutability": "view",
            "type": "function"
        },
        {
            "inputs": [
                {
                    "internalType": "uint256",
                    "name": "motionId",
                    "type": "uint256"
                },
                {
                    "internalType": "uint40",
                    "name": "principal",
                    "type": "uint40"
                },
                {
                    "internalType": "uint40",
                    "name": "delegate",
                    "type": "uint40"
                }
            ],
            "name": "entrustDelegate",
            "outputs": [],
            "stateMutability": "nonpayable",
            "type": "function"
        },
        {
            "inputs": [
                {
                    "internalType": "uint16",
                    "name": "seqOfVR",
                    "type": "uint16"
                },
                {
                    "internalType": "address[]",
                    "name": "targets",
                    "type": "address[]"
                },
                {
                    "internalType": "uint256[]",
                    "name": "values",
                    "type": "uint256[]"
                },
                {
                    "internalType": "bytes[]",
                    "name": "params",
                    "type": "bytes[]"
                },
                {
                    "internalType": "uint40",
                    "name": "caller",
                    "type": "uint40"
                },
                {
                    "internalType": "bytes32",
                    "name": "desHash",
                    "type": "bytes32"
                }
            ],
            "name": "execAction",
            "outputs": [
                {
                    "internalType": "uint256",
                    "name": "",
                    "type": "uint256"
                }
            ],
            "stateMutability": "nonpayable",
            "type": "function"
        },
        {
            "inputs": [],
            "name": "finalized",
            "outputs": [
                {
                    "internalType": "bool",
                    "name": "",
                    "type": "bool"
                }
            ],
            "stateMutability": "view",
            "type": "function"
        },
        {
            "inputs": [
                {
                    "internalType": "uint256",
                    "name": "motionId",
                    "type": "uint256"
                },
                {
                    "internalType": "uint40",
                    "name": "acct",
                    "type": "uint40"
                }
            ],
            "name": "getBallot",
            "outputs": [
                {
                    "components": [
                        {
                            "internalType": "uint40",
                            "name": "acct",
                            "type": "uint40"
                        },
                        {
                            "internalType": "uint8",
                            "name": "attitude",
                            "type": "uint8"
                        },
                        {
                            "internalType": "uint32",
                            "name": "head",
                            "type": "uint32"
                        },
                        {
                            "internalType": "uint64",
                            "name": "weight",
                            "type": "uint64"
                        },
                        {
                            "internalType": "uint48",
                            "name": "sigDate",
                            "type": "uint48"
                        },
                        {
                            "internalType": "uint64",
                            "name": "blocknumber",
                            "type": "uint64"
                        },
                        {
                            "internalType": "bytes32",
                            "name": "sigHash",
                            "type": "bytes32"
                        }
                    ],
                    "internalType": "struct BallotsBox.Ballot",
                    "name": "",
                    "type": "tuple"
                }
            ],
            "stateMutability": "view",
            "type": "function"
        },
        {
            "inputs": [],
            "name": "getBookeeper",
            "outputs": [
                {
                    "internalType": "address",
                    "name": "",
                    "type": "address"
                }
            ],
            "stateMutability": "view",
            "type": "function"
        },
        {
            "inputs": [
                {
                    "internalType": "uint256",
                    "name": "motionId",
                    "type": "uint256"
                },
                {
                    "internalType": "uint8",
                    "name": "atti",
                    "type": "uint8"
                }
            ],
            "name": "getCaseOfAttitude",
            "outputs": [
                {
                    "components": [
                        {
                            "internalType": "uint32",
                            "name": "sumOfHead",
                            "type": "uint32"
                        },
                        {
                            "internalType": "uint64",
                            "name": "sumOfWeight",
                            "type": "uint64"
                        },
                        {
                            "internalType": "uint40[]",
                            "name": "voters",
                            "type": "uint40[]"
                        }
                    ],
                    "internalType": "struct BallotsBox.Case",
                    "name": "",
                    "type": "tuple"
                }
            ],
            "stateMutability": "view",
            "type": "function"
        },
        {
            "inputs": [
                {
                    "internalType": "uint256",
                    "name": "motionId",
                    "type": "uint256"
                },
                {
                    "internalType": "uint40",
                    "name": "acct",
                    "type": "uint40"
                }
            ],
            "name": "getDelegateOf",
            "outputs": [
                {
                    "internalType": "uint40",
                    "name": "",
                    "type": "uint40"
                }
            ],
            "stateMutability": "view",
            "type": "function"
        },
        {
            "inputs": [
                {
                    "internalType": "uint40",
                    "name": "acct",
                    "type": "uint40"
                }
            ],
            "name": "getDirector",
            "outputs": [
                {
                    "components": [
                        {
                            "internalType": "uint8",
                            "name": "title",
                            "type": "uint8"
                        },
                        {
                            "internalType": "uint40",
                            "name": "acct",
                            "type": "uint40"
                        },
                        {
                            "internalType": "uint40",
                            "name": "appointer",
                            "type": "uint40"
                        },
                        {
                            "internalType": "uint48",
                            "name": "startDate",
                            "type": "uint48"
                        },
                        {
                            "internalType": "uint48",
                            "name": "endDate",
                            "type": "uint48"
                        }
                    ],
                    "internalType": "struct IBookOfDirectors.Officer",
                    "name": "",
                    "type": "tuple"
                }
            ],
            "stateMutability": "view",
            "type": "function"
        },
        {
            "inputs": [],
            "name": "getGeneralCounsel",
            "outputs": [
                {
                    "internalType": "uint40",
                    "name": "",
                    "type": "uint40"
                }
            ],
            "stateMutability": "view",
            "type": "function"
        },
        {
            "inputs": [
                {
                    "internalType": "uint256",
                    "name": "motionId",
                    "type": "uint256"
                }
            ],
            "name": "getHeadOfMotion",
            "outputs": [
                {
                    "components": [
                        {
                            "internalType": "uint8",
                            "name": "state",
                            "type": "uint8"
                        },
                        {
                            "internalType": "uint40",
                            "name": "proposer",
                            "type": "uint40"
                        },
                        {
                            "internalType": "uint40",
                            "name": "executor",
                            "type": "uint40"
                        },
                        {
                            "internalType": "uint48",
                            "name": "proposeDate",
                            "type": "uint48"
                        },
                        {
                            "internalType": "uint48",
                            "name": "shareRegDate",
                            "type": "uint48"
                        },
                        {
                            "internalType": "uint48",
                            "name": "voteStartDate",
                            "type": "uint48"
                        }
                    ],
                    "internalType": "struct MotionsRepo.Head",
                    "name": "head",
                    "type": "tuple"
                }
            ],
            "stateMutability": "view",
            "type": "function"
        },
        {
            "inputs": [],
            "name": "getOwner",
            "outputs": [
                {
                    "internalType": "uint40",
                    "name": "",
                    "type": "uint40"
                }
            ],
            "stateMutability": "view",
            "type": "function"
        },
        {
            "inputs": [],
            "name": "getSHA",
            "outputs": [
                {
                    "internalType": "contract IShareholdersAgreement",
                    "name": "",
                    "type": "address"
                }
            ],
            "stateMutability": "view",
            "type": "function"
        },
        {
            "inputs": [
                {
                    "internalType": "uint256",
                    "name": "motionId",
                    "type": "uint256"
                },
                {
                    "internalType": "uint40",
                    "name": "acct",
                    "type": "uint40"
                }
            ],
            "name": "getVoterOfDelegateMap",
            "outputs": [
                {
                    "components": [
                        {
                            "internalType": "uint40",
                            "name": "delegate",
                            "type": "uint40"
                        },
                        {
                            "internalType": "uint64",
                            "name": "weight",
                            "type": "uint64"
                        },
                        {
                            "internalType": "uint64",
                            "name": "repWeight",
                            "type": "uint64"
                        },
                        {
                            "internalType": "uint32",
                            "name": "repHead",
                            "type": "uint32"
                        },
                        {
                            "internalType": "uint40[]",
                            "name": "principals",
                            "type": "uint40[]"
                        }
                    ],
                    "internalType": "struct DelegateMap.Voter",
                    "name": "",
                    "type": "tuple"
                }
            ],
            "stateMutability": "view",
            "type": "function"
        },
        {
            "inputs": [
                {
                    "internalType": "uint256",
                    "name": "motionId",
                    "type": "uint256"
                }
            ],
            "name": "getVotingRuleOfMotion",
            "outputs": [
                {
                    "internalType": "bytes32",
                    "name": "",
                    "type": "bytes32"
                }
            ],
            "stateMutability": "view",
            "type": "function"
        },
        {
            "inputs": [
                {
                    "internalType": "bytes32",
                    "name": "role",
                    "type": "bytes32"
                },
                {
                    "internalType": "uint40",
                    "name": "acct",
                    "type": "uint40"
                }
            ],
            "name": "grantRole",
            "outputs": [],
            "stateMutability": "nonpayable",
            "type": "function"
        },
        {
            "inputs": [
                {
                    "internalType": "bytes32",
                    "name": "role",
                    "type": "bytes32"
                },
                {
                    "internalType": "uint40",
                    "name": "acct",
                    "type": "uint40"
                }
            ],
            "name": "hasRole",
            "outputs": [
                {
                    "internalType": "bool",
                    "name": "",
                    "type": "bool"
                }
            ],
            "stateMutability": "view",
            "type": "function"
        },
        {
            "inputs": [
                {
                    "internalType": "uint40",
                    "name": "owner",
                    "type": "uint40"
                },
                {
                    "internalType": "address",
                    "name": "directKeeper",
                    "type": "address"
                },
                {
                    "internalType": "address",
                    "name": "regCenter",
                    "type": "address"
                },
                {
                    "internalType": "address",
                    "name": "generalKeeper",
                    "type": "address"
                }
            ],
            "name": "init",
            "outputs": [],
            "stateMutability": "nonpayable",
            "type": "function"
        },
        {
            "inputs": [
                {
                    "internalType": "uint40",
                    "name": "acct",
                    "type": "uint40"
                }
            ],
            "name": "isDirector",
            "outputs": [
                {
                    "internalType": "bool",
                    "name": "",
                    "type": "bool"
                }
            ],
            "stateMutability": "view",
            "type": "function"
        },
        {
            "inputs": [
                {
                    "internalType": "uint256",
                    "name": "motionId",
                    "type": "uint256"
                }
            ],
            "name": "isExecuted",
            "outputs": [
                {
                    "internalType": "bool",
                    "name": "",
                    "type": "bool"
                }
            ],
            "stateMutability": "view",
            "type": "function"
        },
        {
            "inputs": [
                {
                    "internalType": "uint40",
                    "name": "acct",
                    "type": "uint40"
                }
            ],
            "name": "isOfficer",
            "outputs": [
                {
                    "internalType": "bool",
                    "name": "",
                    "type": "bool"
                }
            ],
            "stateMutability": "view",
            "type": "function"
        },
        {
            "inputs": [
                {
                    "internalType": "uint256",
                    "name": "motionId",
                    "type": "uint256"
                }
            ],
            "name": "isPassed",
            "outputs": [
                {
                    "internalType": "bool",
                    "name": "",
                    "type": "bool"
                }
            ],
            "stateMutability": "view",
            "type": "function"
        },
        {
            "inputs": [
                {
                    "internalType": "uint256",
                    "name": "motionId",
                    "type": "uint256"
                }
            ],
            "name": "isProposed",
            "outputs": [
                {
                    "internalType": "bool",
                    "name": "",
                    "type": "bool"
                }
            ],
            "stateMutability": "view",
            "type": "function"
        },
        {
            "inputs": [
                {
                    "internalType": "uint256",
                    "name": "motionId",
                    "type": "uint256"
                },
                {
                    "internalType": "uint40",
                    "name": "acct",
                    "type": "uint40"
                }
            ],
            "name": "isVoted",
            "outputs": [
                {
                    "internalType": "bool",
                    "name": "",
                    "type": "bool"
                }
            ],
            "stateMutability": "view",
            "type": "function"
        },
        {
            "inputs": [
                {
                    "internalType": "uint256",
                    "name": "motionId",
                    "type": "uint256"
                },
                {
                    "internalType": "uint40",
                    "name": "acct",
                    "type": "uint40"
                },
                {
                    "internalType": "uint8",
                    "name": "atti",
                    "type": "uint8"
                }
            ],
            "name": "isVotedFor",
            "outputs": [
                {
                    "internalType": "bool",
                    "name": "",
                    "type": "bool"
                }
            ],
            "stateMutability": "view",
            "type": "function"
        },
        {
            "inputs": [],
            "name": "lockContents",
            "outputs": [],
            "stateMutability": "nonpayable",
            "type": "function"
        },
        {
            "inputs": [],
            "name": "maxQtyOfDirectors",
            "outputs": [
                {
                    "internalType": "uint8",
                    "name": "",
                    "type": "uint8"
                }
            ],
            "stateMutability": "view",
            "type": "function"
        },
        {
            "inputs": [
                {
                    "internalType": "uint256",
                    "name": "motionId",
                    "type": "uint256"
                }
            ],
            "name": "motionExecuted",
            "outputs": [],
            "stateMutability": "nonpayable",
            "type": "function"
        },
        {
            "inputs": [
                {
                    "internalType": "uint16",
                    "name": "seqOfVR",
                    "type": "uint16"
                },
                {
                    "internalType": "uint8",
                    "name": "title",
                    "type": "uint8"
                },
                {
                    "internalType": "uint40",
                    "name": "nominator",
                    "type": "uint40"
                },
                {
                    "internalType": "uint40",
                    "name": "candidate",
                    "type": "uint40"
                }
            ],
            "name": "nominateOfficer",
            "outputs": [],
            "stateMutability": "nonpayable",
            "type": "function"
        },
        {
            "inputs": [
                {
                    "internalType": "uint16",
                    "name": "seqOfVR",
                    "type": "uint16"
                },
                {
                    "internalType": "address[]",
                    "name": "targets",
                    "type": "address[]"
                },
                {
                    "internalType": "uint256[]",
                    "name": "values",
                    "type": "uint256[]"
                },
                {
                    "internalType": "bytes[]",
                    "name": "params",
                    "type": "bytes[]"
                },
                {
                    "internalType": "bytes32",
                    "name": "desHash",
                    "type": "bytes32"
                },
                {
                    "internalType": "uint40",
                    "name": "proposer",
                    "type": "uint40"
                },
                {
                    "internalType": "uint40",
                    "name": "executor",
                    "type": "uint40"
                }
            ],
            "name": "proposeAction",
            "outputs": [],
            "stateMutability": "nonpayable",
            "type": "function"
        },
        {
            "inputs": [
                {
                    "internalType": "address",
                    "name": "doc",
                    "type": "address"
                },
                {
                    "internalType": "uint16",
                    "name": "seqOfVR",
                    "type": "uint16"
                },
                {
                    "internalType": "uint40",
                    "name": "proposer",
                    "type": "uint40"
                },
                {
                    "internalType": "uint40",
                    "name": "executor",
                    "type": "uint40"
                }
            ],
            "name": "proposeDoc",
            "outputs": [],
            "stateMutability": "nonpayable",
            "type": "function"
        },
        {
            "inputs": [
                {
                    "internalType": "uint256",
                    "name": "motionId",
                    "type": "uint256"
                },
                {
                    "internalType": "uint16",
                    "name": "seqOfVR",
                    "type": "uint16"
                },
                {
                    "internalType": "uint40",
                    "name": "proposer",
                    "type": "uint40"
                },
                {
                    "internalType": "uint40",
                    "name": "executor",
                    "type": "uint40"
                }
            ],
            "name": "proposeMotion",
            "outputs": [],
            "stateMutability": "nonpayable",
            "type": "function"
        },
        {
            "inputs": [],
            "name": "qtyOfDirectors",
            "outputs": [
                {
                    "internalType": "uint16",
                    "name": "",
                    "type": "uint16"
                }
            ],
            "stateMutability": "view",
            "type": "function"
        },
        {
            "inputs": [
                {
                    "internalType": "uint40",
                    "name": "acct",
                    "type": "uint40"
                }
            ],
            "name": "removeDirector",
            "outputs": [],
            "stateMutability": "nonpayable",
            "type": "function"
        },
        {
            "inputs": [
                {
                    "internalType": "bytes32",
                    "name": "role",
                    "type": "bytes32"
                }
            ],
            "name": "renounceRole",
            "outputs": [],
            "stateMutability": "nonpayable",
            "type": "function"
        },
        {
            "inputs": [
                {
                    "internalType": "bytes32",
                    "name": "role",
                    "type": "bytes32"
                },
                {
                    "internalType": "uint40",
                    "name": "acct",
                    "type": "uint40"
                }
            ],
            "name": "revokeRole",
            "outputs": [],
            "stateMutability": "nonpayable",
            "type": "function"
        },
        {
            "inputs": [
                {
                    "internalType": "address",
                    "name": "keeper",
                    "type": "address"
                }
            ],
            "name": "setDirectKeeper",
            "outputs": [],
            "stateMutability": "nonpayable",
            "type": "function"
        },
        {
            "inputs": [
                {
                    "internalType": "uint40",
                    "name": "acct",
                    "type": "uint40"
                }
            ],
            "name": "setGeneralCounsel",
            "outputs": [],
            "stateMutability": "nonpayable",
            "type": "function"
        },
        {
            "inputs": [
                {
                    "internalType": "uint8",
                    "name": "max",
                    "type": "uint8"
                }
            ],
            "name": "setMaxQtyOfDirectors",
            "outputs": [],
            "stateMutability": "nonpayable",
            "type": "function"
        },
        {
            "inputs": [
                {
                    "internalType": "uint40",
                    "name": "acct",
                    "type": "uint40"
                }
            ],
            "name": "setOwner",
            "outputs": [],
            "stateMutability": "nonpayable",
            "type": "function"
        },
        {
            "inputs": [
                {
                    "internalType": "bytes32",
                    "name": "role",
                    "type": "bytes32"
                },
                {
                    "internalType": "uint40",
                    "name": "acct",
                    "type": "uint40"
                }
            ],
            "name": "setRoleAdmin",
            "outputs": [],
            "stateMutability": "nonpayable",
            "type": "function"
        },
        {
            "inputs": [
                {
                    "internalType": "bytes32",
                    "name": "bsRule",
                    "type": "bytes32"
                },
                {
                    "internalType": "uint8",
                    "name": "title",
                    "type": "uint8"
                },
                {
                    "internalType": "uint40",
                    "name": "candidate",
                    "type": "uint40"
                },
                {
                    "internalType": "uint40",
                    "name": "nominator",
                    "type": "uint40"
                }
            ],
            "name": "takePosition",
            "outputs": [],
            "stateMutability": "nonpayable",
            "type": "function"
        },
        {
            "inputs": [
                {
                    "internalType": "uint256",
                    "name": "motionId",
                    "type": "uint256"
                }
            ],
            "name": "voteCounting",
            "outputs": [
                {
                    "internalType": "bool",
                    "name": "flag",
                    "type": "bool"
                }
            ],
            "stateMutability": "nonpayable",
            "type": "function"
        },
        {
            "inputs": [
                {
                    "internalType": "uint8",
                    "name": "title",
                    "type": "uint8"
                }
            ],
            "name": "whoIs",
            "outputs": [
                {
                    "internalType": "uint40",
                    "name": "",
                    "type": "uint40"
                }
            ],
            "stateMutability": "view",
            "type": "function"
        }
    ],
    "bytecode": "608060405234801561001057600080fd5b50614fd9806100206000396000f3fe608060405234801561001057600080fd5b50600436106102a05760003560e01c806381ab05cb11610167578063cba36bf3116100ce578063f3c54fac11610087578063f3c54fac14610927578063f5efdb261461093a578063f755c0031461094d578063f8fb9e1d14610995578063fd8f19c2146109a8578063ff77c055146109bb57600080fd5b8063cba36bf3146108cb578063db34d934146108de578063ed211023146108f1578063ee7c1be1146108f9578063f045a7691461090c578063f117bdb71461091457600080fd5b80639766a0b3116101205780639766a0b31461082e578063a61adc2814610841578063aaf7bfc614610861578063b3f05b9714610884578063b801769d14610898578063bf0d4ace146108b857600080fd5b806381ab05cb146107a7578063821ee8ea146107ba578063893d20e8146107cd5780638b741818146107d55780638bb9c5bf146107fb5780638d5b65851461080e57600080fd5b8063485ca4ce1161020b5780636be8496f116101c45780636be8496f14610733578063709a5a1014610746578063740998151461075b57806376a6bf521461076e57806379b2ec12146107815780637ba706e81461079457600080fd5b8063485ca4ce146103f8578063494031831461040b57806359269f821461041e57806364525a0d1461043157806365e0bce2146105595780636644b03b146106c057600080fd5b8063216eeebf1161025d578063216eeebf1461037057806326802f39146103835780633178a9a9146103a457806338cc78be146103b75780633da9a600146103d2578063402fbbf7146103e557600080fd5b806304302b9a146102a55780630b1e17b4146102d5578063103f6edd14610317578063122d93e91461033557806316dc517e1461034a57806317c51fec1461035d575b600080fd5b6000805260076020908152600080516020614f848339815191525460405160ff9091168152015b60405180910390f35b6103076102e336600461430e565b64ffffffffff90811660008181526007602052604090205461010090049091161490565b60405190151581526020016102cc565b61031f6109ce565b60405164ffffffffff90911681526020016102cc565b61034861034336600461434a565b610a5a565b005b6103486103583660046143a6565b610e9c565b61034861036b3660046143a6565b610f32565b61034861037e3660046143eb565b610f57565b61039661039136600461462b565b611031565b6040519081526020016102cc565b6103486103b236600461430e565b611248565b6103bf611441565b60405161ffff90911681526020016102cc565b6103486103e03660046146e2565b6114c7565b6103076103f33660046143a6565b6115d2565b6103486104063660046146fb565b61160d565b6103076104193660046146e2565b611912565b61030761042c3660046146e2565b611937565b6104ed61043f3660046146e2565b6040805160c081018252600080825260208201819052918101829052606081018290526080810182905260a081019190915250600090815260046020908152604091829020825160c081018452905460ff8116825264ffffffffff6101008204811693830193909352600160301b81049092169281019290925265ffffffffffff600160581b820481166060840152600160881b820481166080840152600160b81b9091041660a082015290565b6040516102cc9190600060c08201905060ff8351168252602083015164ffffffffff80821660208501528060408601511660408501525050606083015165ffffffffffff80821660608501528060808601511660808501528060a08601511660a0850152505092915050565b6106436105673660046143a6565b6040805160e081018252600080825260208201819052918101829052606081018290526080810182905260a0810182905260c081019190915250600091825260046020818152604080852064ffffffffff9485168652909201815292819020815160e0810183528154938416815265010000000000840460ff1694810194909452600160301b830463ffffffff1691840191909152600160501b82046001600160401b039081166060850152600160901b830465ffffffffffff166080850152600160c01b90920490911660a08301526001015460c082015290565b6040516102cc9190600060e08201905064ffffffffff835116825260ff602084015116602083015263ffffffff604084015116604083015260608301516001600160401b03808216606085015265ffffffffffff60808601511660808501528060a08601511660a0850152505060c083015160c083015292915050565b6106d36106ce36600461430e565b6119c5565b6040516102cc9190600060a08201905060ff8351168252602083015164ffffffffff80821660208501528060408601511660408501525050606083015165ffffffffffff8082166060850152806080860151166080850152505092915050565b610348610741366004614723565b611b39565b61074e611beb565b6040516102cc9190614740565b6103486107693660046143a6565b611c75565b61030761077c3660046146e2565b611c9a565b61030761078f3660046143a6565b611ca3565b6103486107a236600461430e565b611d44565b6103486107b536600461478b565b611f36565b6103486107c83660046147cd565b6121ae565b61031f61229e565b6103966107e33660046146e2565b6000908152600a602052604090205463ffffffff1690565b6103486108093660046146e2565b6122d9565b61082161081c36600461481e565b612332565b6040516102cc9190614885565b61030761083c36600461430e565b612420565b610849612468565b6040516001600160a01b0390911681526020016102cc565b61039661086f3660046146e2565b60009081526004602052604090206001015490565b60028054600160f01b900460ff1614610307565b6108ab6108a63660046143a6565b612555565b6040516102cc91906148cb565b6103486108c636600461434a565b612653565b6103486108d936600461492a565b612753565b6103486108ec36600461430e565b61291c565b610849612b4e565b610348610907366004614972565b612bb0565b610348612c61565b6103486109223660046146e2565b612e7f565b61034861093536600461499a565b612f31565b61031f610948366004614a61565b612ffd565b61030761095b366004614a7e565b600092835260046020818152604080862064ffffffffff95909516865293909101905291205465010000000000900460ff90811691161490565b6103076109a33660046146e2565b6130c5565b61031f6109b63660046143a6565b6134e1565b6103486109c9366004614a61565b613586565b60405163e8c0cc1d60e01b81526002600482015260009073__$364aad554dc80380f414546becdd2c1584$__9063e8c0cc1d906024015b60206040518083038186803b158015610a1d57600080fd5b505af4158015610a31573d6000803e3d6000fd5b505050506040513d601f19601f82011682018060405250810190610a559190614ab5565b905090565b604051633b11adbf60e21b81526002600482015233602482015273__$364aad554dc80380f414546becdd2c1584$__9063ec46b6fc9060440160206040518083038186803b158015610aab57600080fd5b505af4158015610abf573d6000803e3d6000fd5b505050506040513d601f19601f82011682018060405250810190610ae39190614ad2565b610b085760405162461bcd60e51b8152600401610aff90614af4565b60405180910390fd5b610b1181612420565b80610b3a575064ffffffffff808216600081815260076020526040902054610100900490911614155b610b925760405162461bcd60e51b8152602060048201526024808201527f424f444b2e414f3a206f666669636572206e6565647320746f207175697420666044820152631a5c9cdd60e21b6064820152608401610aff565b6000610b9c612468565b604051634846203760e01b815261ffff871660048201526001600160a01b03919091169063484620379060240160206040518083038186803b158015610be157600080fd5b505afa158015610bf5573d6000803e3d6000fd5b505050506040513d601f19601f82011682018060405250810190610c199190614b3a565b604051639289cdbf60e01b81526004810182905290915073__$94c94c1f27eaba30857c7d0c37f90b5581$__90639289cdbf9060240160206040518083038186803b158015610c6757600080fd5b505af4158015610c7b573d6000803e3d6000fd5b505050506040513d601f19601f82011682018060405250810190610c9f9190614b53565b61ffff16158015610d345750604051634e09ccd960e11b81526004810182905273__$94c94c1f27eaba30857c7d0c37f90b5581$__90639c1399b29060240160206040518083038186803b158015610cf657600080fd5b505af4158015610d0a573d6000803e3d6000fd5b505050506040513d601f19601f82011682018060405250810190610d2e9190614b53565b61ffff16155b610d805760405162461bcd60e51b815260206004820181905260248201527f424f442e414f3a206e6f6d696e6174696f6e206e6565647320746f20766f74656044820152606401610aff565b6040805160ff8616815264ffffffffff85811660208301528416917fd1ea0513a474f7ac542c798874891f6e26bf7577bbc178a4ca4da5a15b1d6407910160405180910390a2506040805160a08101825260ff948516815264ffffffffff928316602080830182815295851683850190815265ffffffffffff428116606086019081526000608087018181529581526007909452959092209351845497519151955193518316600160881b0265ffffffffffff60881b1994909316600160581b0265ffffffffffff60581b19968816600160301b029690961670ffffffffffffffffffffff00000000000019929097166101000265ffffffffffff19909816981697909717959095179590951692909217179290921617905550565b73__$364aad554dc80380f414546becdd2c1584$__63427abff4600284610ec1613675565b6040516001600160e01b031960e086901b1681526004810193909352602483019190915264ffffffffff9081166044830152841660648201526084015b60006040518083038186803b158015610f1657600080fd5b505af4158015610f2a573d6000803e3d6000fd5b505050505050565b73__$364aad554dc80380f414546becdd2c1584$__638ce15845600284610ec1613675565b604051633b11adbf60e21b81526002600482015233602482015273__$364aad554dc80380f414546becdd2c1584$__9063ec46b6fc9060440160206040518083038186803b158015610fa857600080fd5b505af4158015610fbc573d6000803e3d6000fd5b505050506040513d601f19601f82011682018060405250810190610fe09190614ad2565b610ffc5760405162461bcd60e51b8152600401610aff90614af4565b600061101c61ffff60a01b60a086901b166001600160a01b038716614b86565b905061102a8185858561160d565b5050505050565b604051633b11adbf60e21b81526002600482015233602482015260009073__$364aad554dc80380f414546becdd2c1584$__9063ec46b6fc9060440160206040518083038186803b15801561108557600080fd5b505af4158015611099573d6000803e3d6000fd5b505050506040513d601f19601f820116820180604052508101906110bd9190614ad2565b6110d95760405162461bcd60e51b8152600401610aff90614af4565b60006110e888888888876136cf565b600081815260046020526040902080549192509060ff1660021461114e5760405162461bcd60e51b815260206004820152601860248201527f4d4d2e45413a20766f74696e67204e4f542070617373656400000000000000006044820152606401610aff565b805464ffffffffff868116600160301b90920416146111af5760405162461bcd60e51b815260206004820152601a60248201527f4d4d2e45413a2063616c6c6572206e6f74206578656375746f720000000000006044820152606401610aff565b6111ba88888861370c565b15611205576040516001815282907fc8744c074a42d37db7f38fa5954f2926e37ca8068b94c263efed1b4565066e469060200160405180910390a2805460ff1916600617815561123c565b6040516000815282907fc8744c074a42d37db7f38fa5954f2926e37ca8068b94c263efed1b4565066e469060200160405180910390a25b50979650505050505050565b604051633b11adbf60e21b81526002600482015233602482015273__$364aad554dc80380f414546becdd2c1584$__9063ec46b6fc9060440160206040518083038186803b15801561129957600080fd5b505af41580156112ad573d6000803e3d6000fd5b505050506040513d601f19601f820116820180604052508101906112d19190614ad2565b80611376575073__$364aad554dc80380f414546becdd2c1584$__63fe27108660026112fb613675565b6040516001600160e01b031960e085901b168152600481019290925264ffffffffff16602482015260440160206040518083038186803b15801561133e57600080fd5b505af4158015611352573d6000803e3d6000fd5b505050506040513d601f19601f820116820180604052508101906113769190614ad2565b6113925760405162461bcd60e51b8152600401610aff90614b9e565b604051632725ebef60e21b81526002600482015264ffffffffff8216602482015273__$364aad554dc80380f414546becdd2c1584$__90639c97afbc9060440160006040518083038186803b1580156113ea57600080fd5b505af41580156113fe573d6000803e3d6000fd5b505060405164ffffffffff841681527ff2735f34b69be1e6342dea95f9162f84d0db925fab655ca9f1f312ac8cbfc99d925060200190505b60405180910390a150565b60405163c2b46a8560e01b81526008600482015260009073__$8c1a4844a0a0988ea2454cf87145a95df1$__9063c2b46a859060240160206040518083038186803b15801561148f57600080fd5b505af41580156114a3573d6000803e3d6000fd5b505050506040513d601f19601f82011682018060405250810190610a559190614b3a565b604051633b11adbf60e21b81526002600482015233602482015273__$364aad554dc80380f414546becdd2c1584$__9063ec46b6fc9060440160206040518083038186803b15801561151857600080fd5b505af415801561152c573d6000803e3d6000fd5b505050506040513d601f19601f820116820180604052508101906115509190614ad2565b61156c5760405162461bcd60e51b8152600401610aff90614af4565b60405163cc99e11b60e01b8152600260048201526024810182905273__$364aad554dc80380f414546becdd2c1584$__9063cc99e11b9060440160006040518083038186803b1580156115be57600080fd5b505af415801561102a573d6000803e3d6000fd5b600082815260046020818152604080842064ffffffffff861685529092019052902054600160901b900465ffffffffffff1615155b92915050565b6001546040516335d2155560e11b81523360048201526001600160a01b0390911690636ba42aaa9060240160206040518083038186803b15801561165057600080fd5b505afa158015611664573d6000803e3d6000fd5b505050506040513d601f19601f820116820180604052508101906116889190614ad2565b6116a45760405162461bcd60e51b8152600401610aff90614bf4565b6040516392f13c3f60e01b8152600560048201526024810185905273__$8c1a4844a0a0988ea2454cf87145a95df1$__906392f13c3f9060440160206040518083038186803b1580156116f657600080fd5b505af415801561170a573d6000803e3d6000fd5b505050506040513d601f19601f8201168201806040525081019061172e9190614ad2565b156118c45760008481526004602052604081209061174a612468565b604051634846203760e01b815261ffff871660048201526001600160a01b03919091169063484620379060240160206040518083038186803b15801561178f57600080fd5b505afa1580156117a3573d6000803e3d6000fd5b505050506040513d601f19601f820116820180604052508101906117c79190614b3a565b9050857f627d56ad3c367bb4555b0df4775ad1d2ab2781e09079a524ef0389838ded9ad38286866040516118159392919092835264ffffffffff918216602084015216604082015260600190565b60405180910390a2604051630a489ec560e21b8152600481018390526024810182905264ffffffffff80861660448301528416606482015273__$c69e6785922941bfe0f11afdbfcce85492$__906329227b149060840160206040518083038186803b15801561188457600080fd5b505af4158015611898573d6000803e3d6000fd5b505050506040513d601f19601f820116820180604052508101906118bc9190614ad2565b50505061190c565b60405162461bcd60e51b815260206004820152601e60248201527f4d4d2e504d3a206d6f74696f6e20616c72656164792070726f706f73656400006044820152606401610aff565b50505050565b600060025b6000928352600460205260409092205460ff908116921691909114919050565b604051633f5f77cd60e01b8152600560048201526024810182905260009073__$8c1a4844a0a0988ea2454cf87145a95df1$__90633f5f77cd906044015b60206040518083038186803b15801561198d57600080fd5b505af41580156119a1573d6000803e3d6000fd5b505050506040513d601f19601f820116820180604052508101906116079190614ad2565b6040805160a0810182526000808252602082018190528183018190526060820181905260808201529051633f5f77cd60e01b81526008600482015264ffffffffff8316602482015273__$8c1a4844a0a0988ea2454cf87145a95df1$__90633f5f77cd9060440160206040518083038186803b158015611a4457600080fd5b505af4158015611a58573d6000803e3d6000fd5b505050506040513d601f19601f82011682018060405250810190611a7c9190614ad2565b611ac85760405162461bcd60e51b815260206004820152601c60248201527f424f442e47443a2061636374206973206e6f74204469726563746f72000000006044820152606401610aff565b5064ffffffffff908116600090815260076020908152604091829020825160a081018452905460ff811682526101008104851692820192909252600160301b82049093169183019190915265ffffffffffff600160581b820481166060840152600160881b90910416608082015290565b604051630f07232560e01b8152600260048201523360248201526001600160a01b038216604482015273__$364aad554dc80380f414546becdd2c1584$__90630f0723259060640160006040518083038186803b158015611b9957600080fd5b505af4158015611bad573d6000803e3d6000fd5b50506040516001600160a01b03841681527fe435cbeab64e4eae6497b9d8289704bd709d624a80704ef3ca9af777534bc6ec92506020019050611436565b604051639857dfd560e01b81526008600482015260609073__$8c1a4844a0a0988ea2454cf87145a95df1$__90639857dfd59060240160006040518083038186803b158015611c3957600080fd5b505af4158015611c4d573d6000803e3d6000fd5b505050506040513d6000823e601f3d908101601f19168201604052610a559190810190614c1f565b73__$364aad554dc80380f414546becdd2c1584$__63d2a15ba7600284610ec1613675565b60006006611917565b604051632a3be56b60e21b8152600260048201526024810183905264ffffffffff8216604482015260009073__$364aad554dc80380f414546becdd2c1584$__9063a8ef95ac9060640160206040518083038186803b158015611d0557600080fd5b505af4158015611d19573d6000803e3d6000fd5b505050506040513d601f19601f82011682018060405250810190611d3d9190614ad2565b9392505050565b604051633b11adbf60e21b81526002600482015233602482015273__$364aad554dc80380f414546becdd2c1584$__9063ec46b6fc9060440160206040518083038186803b158015611d9557600080fd5b505af4158015611da9573d6000803e3d6000fd5b505050506040513d601f19601f82011682018060405250810190611dcd9190614ad2565b80611e72575073__$364aad554dc80380f414546becdd2c1584$__63fe2710866002611df7613675565b6040516001600160e01b031960e085901b168152600481019290925264ffffffffff16602482015260440160206040518083038186803b158015611e3a57600080fd5b505af4158015611e4e573d6000803e3d6000fd5b505050506040513d601f19601f82011682018060405250810190611e729190614ad2565b611e8e5760405162461bcd60e51b8152600401610aff90614b9e565b60405163b6e38a2960e01b81526002600482015264ffffffffff8216602482015273__$364aad554dc80380f414546becdd2c1584$__9063b6e38a299060440160006040518083038186803b158015611ee657600080fd5b505af4158015611efa573d6000803e3d6000fd5b505060405164ffffffffff841681527f8b6f40f36b4ae8cc5f55e895036457c43da4ab1f80f58c46f5ff0d72a650033b92506020019050611436565b604051633b11adbf60e21b81526002600482015233602482015273__$364aad554dc80380f414546becdd2c1584$__9063ec46b6fc9060440160206040518083038186803b158015611f8757600080fd5b505af4158015611f9b573d6000803e3d6000fd5b505050506040513d601f19601f82011682018060405250810190611fbf9190614ad2565b611fdb5760405162461bcd60e51b8152600401610aff90614af4565b60008381526004602052604090208054610100900464ffffffffff166120435760405162461bcd60e51b815260206004820152601a60248201527f4d4d2e45443a206d6f74696f6e206e6f742070726f706f7365640000000000006044820152606401610aff565b805442600160881b90910465ffffffffffff1611156120a45760405162461bcd60e51b815260206004820152601d60248201527f4d4d2e45443a206e6f74207265616368207368617265526567446174650000006044820152606401610aff565b60006120b082856137ea565b6040805164ffffffffff8781168252861660208201526001600160401b03831681830152905191925086917fb1a13591212fd5b19c6e7f7f751202a89ab4d611159b1eac9a0882d87a26f4639181900360600190a2604051630c59d5ef60e41b815260028301600482015264ffffffffff8086166024830152841660448201526001600160401b038216606482015273__$68438f465b222e285b1fb0cc5c3aa7ceb4$__9063c59d5ef09060840160206040518083038186803b15801561217657600080fd5b505af415801561218a573d6000803e3d6000fd5b505050506040513d601f19601f82011682018060405250810190610f2a9190614ad2565b6121b7826139a0565b6121c081613a4f565b604051636cdd0edf60e11b81526002600482015264ffffffffff851660248201526001600160a01b038416604482015273__$364aad554dc80380f414546becdd2c1584$__9063d9ba1dbe9060640160006040518083038186803b15801561222757600080fd5b505af415801561223b573d6000803e3d6000fd5b50506040805164ffffffffff881681526001600160a01b038781166020830152868116828401528516606082015290517f4d18c0021addc919105cb1ed2c11ad241e859cc1d9e77d4ee1d9ca2cdc1f255b9350908190036080019150a150505050565b60405163987ad15360e01b81526002600482015260009073__$364aad554dc80380f414546becdd2c1584$__9063987ad15390602401610a05565b60006122e3613675565b604051637963595360e11b8152600260048201526024810184905264ffffffffff8216604482015290915073__$364aad554dc80380f414546becdd2c1584$__9063f2c6b2a690606401610efe565b60408051606080820183526000808352602083015291810191909152600083815260046020908152604080832060ff861684526003018252918290208251606081018452815463ffffffff8116825264010000000090046001600160401b0316818401526001820180548551818602810186018752818152929593949386019383018282801561240f57602002820191906000526020600020906000905b82829054906101000a900464ffffffffff1664ffffffffff16815260200190600501906020826004010492830192600103820291508084116123d05790505b505050505081525050905092915050565b604051633f5f77cd60e01b81526008600482015264ffffffffff8216602482015260009073__$8c1a4844a0a0988ea2454cf87145a95df1$__90633f5f77cd90604401611975565b60015460405163381baea360e21b8152600360048201526000916001600160a01b03169063e06eba8c9060240160206040518083038186803b1580156124ad57600080fd5b505afa1580156124c1573d6000803e3d6000fd5b505050506040513d601f19601f820116820180604052508101906124e59190614cb8565b6001600160a01b0316632f5f3b3c6040518163ffffffff1660e01b815260040160206040518083038186803b15801561251d57600080fd5b505afa158015612531573d6000803e3d6000fd5b505050506040513d601f19601f82011682018060405250810190610a559190614cb8565b6040805160a0810182526000808252602082018190529181018290526060808201929092526080810191909152600083815260046020908152604080832064ffffffffff86811685526002909101835292819020815160a081018352815494851681526501000000000085046001600160401b0390811682860152600160681b86041681840152600160a81b90940463ffffffff16606085015260018101805483518186028101860190945280845291936080860193929083018282801561240f576000918252602091829020805464ffffffffff1684529082028301929091600591018084116123d0579050505050505081525050905092915050565b6001546040516335d2155560e11b81523360048201526001600160a01b0390911690636ba42aaa9060240160206040518083038186803b15801561269657600080fd5b505afa1580156126aa573d6000803e3d6000fd5b505050506040513d601f19601f820116820180604052508101906126ce9190614ad2565b6126ea5760405162461bcd60e51b8152600401610aff90614bf4565b6040805161ffff8616602082015260ff85169181019190915264ffffffffff80841660608301528216608082015265ffffffffffff421660a082015260009060c0016040516020818303038152906040528051906020012060001c905061102a8186858561160d565b604051633b11adbf60e21b81526002600482015233602482015273__$364aad554dc80380f414546becdd2c1584$__9063ec46b6fc9060440160206040518083038186803b1580156127a457600080fd5b505af41580156127b8573d6000803e3d6000fd5b505050506040513d601f19601f820116820180604052508101906127dc9190614ad2565b6127f85760405162461bcd60e51b8152600401610aff90614af4565b60008481526004602052604081209061281182866137ea565b6040516344608ce560e11b81526004810184905264ffffffffff8716602482015260ff861660448201526001600160401b03821660648201526084810185905290915073__$c69e6785922941bfe0f11afdbfcce85492$__906388c119ca9060a40160206040518083038186803b15801561288b57600080fd5b505af415801561289f573d6000803e3d6000fd5b505050506040513d601f19601f820116820180604052508101906128c39190614ad2565b15610f2a576040805164ffffffffff8716815260ff8616602082015290810184905286907f7d6d616d8dd56a61aaf1656d07a79f82048ceb4787ce992bdc7dca75f55a1ccc9060600160405180910390a2505050505050565b604051633b11adbf60e21b81526002600482015233602482015273__$364aad554dc80380f414546becdd2c1584$__9063ec46b6fc9060440160206040518083038186803b15801561296d57600080fd5b505af4158015612981573d6000803e3d6000fd5b505050506040513d601f19601f820116820180604052508101906129a59190614ad2565b6129c15760405162461bcd60e51b8152600401610aff90614af4565b6129ca81612420565b15612b4b5764ffffffffff811660009081526007602052604090205460ff1660011415612a2057600080526007602052600080516020614f8483398151915280546affffffffff00000000000019169055612a68565b64ffffffffff811660009081526007602052604090205460ff1660021415612a6857600080526007602052600080516020614f84833981519152805465ffffffffff00191690555b64ffffffffff81166000818152600760205260409081902080546001600160b81b0319169055516392fd02df60e01b815260086004820152602481019190915273__$8c1a4844a0a0988ea2454cf87145a95df1$__906392fd02df9060440160206040518083038186803b158015612adf57600080fd5b505af4158015612af3573d6000803e3d6000fd5b505050506040513d601f19601f82011682018060405250810190612b179190614ad2565b5060405164ffffffffff8216907f129167e299de0f10ec16d80f509a04c4fc1f4a42ade5062665cb6efd8931113f90600090a25b50565b604051633c3e56c160e11b81526002600482015260009073__$364aad554dc80380f414546becdd2c1584$__9063787cad829060240160206040518083038186803b158015612b9c57600080fd5b505af4158015612531573d6000803e3d6000fd5b604051633b11adbf60e21b81526002600482015233602482015273__$364aad554dc80380f414546becdd2c1584$__9063ec46b6fc9060440160206040518083038186803b158015612c0157600080fd5b505af4158015612c15573d6000803e3d6000fd5b505050506040513d601f19601f82011682018060405250810190612c399190614ad2565b612c555760405162461bcd60e51b8152600401610aff90614af4565b61190c84838584613b06565b604051633b11adbf60e21b81526002600482015233602482015273__$364aad554dc80380f414546becdd2c1584$__9063ec46b6fc9060440160206040518083038186803b158015612cb257600080fd5b505af4158015612cc6573d6000803e3d6000fd5b505050506040513d601f19601f82011682018060405250810190612cea9190614ad2565b612d065760405162461bcd60e51b8152600401610aff90614af4565b600254600160f01b900460ff16600114612d625760405162461bcd60e51b815260206004820181905260248201527f41432e6f6e6c7950656e64696e673a20446f632069732066696e616c697a65646044820152606401610aff565b60405163cc99e11b60e01b815260026004820152684174746f726e65797360b81b602482015273__$364aad554dc80380f414546becdd2c1584$__9063cc99e11b9060440160006040518083038186803b158015612dbf57600080fd5b505af4158015612dd3573d6000803e3d6000fd5b5050604051632725ebef60e21b8152600260048201526000602482015273__$364aad554dc80380f414546becdd2c1584$__9250639c97afbc915060440160006040518083038186803b158015612e2957600080fd5b505af4158015612e3d573d6000803e3d6000fd5b50506002805460ff60f01b1916600160f11b17905550506040517f35012b512309c322acf68632cd6cb702ff0e1d776fbe9394e38ffc13b434fe7590600090a1565b6001546040516335d2155560e11b81523360048201526001600160a01b0390911690636ba42aaa9060240160206040518083038186803b158015612ec257600080fd5b505afa158015612ed6573d6000803e3d6000fd5b505050506040513d601f19601f82011682018060405250810190612efa9190614ad2565b612f165760405162461bcd60e51b8152600401610aff90614bf4565b6000908152600460205260409020805460ff19166006179055565b604051633b11adbf60e21b81526002600482015233602482015273__$364aad554dc80380f414546becdd2c1584$__9063ec46b6fc9060440160206040518083038186803b158015612f8257600080fd5b505af4158015612f96573d6000803e3d6000fd5b505050506040513d601f19601f82011682018060405250810190612fba9190614ad2565b612fd65760405162461bcd60e51b8152600401610aff90614af4565b6000612fe588888888886136cf565b9050612ff38189858561160d565b5050505050505050565b600060ff821660011415613037575050600080526007602052600080516020614f8483398151915254600160301b900464ffffffffff1690565b60ff82166002141561306d575050600080526007602052600080516020614f8483398151915254610100900464ffffffffff1690565b60405162461bcd60e51b815260206004820152602260248201527f424f442e77686f49733a2076616c7565206f66207469746c65206f766572666c6044820152616f7760f01b6064820152608401610aff565b919050565b604051633b11adbf60e21b81526002600482015233602482015260009073__$364aad554dc80380f414546becdd2c1584$__9063ec46b6fc9060440160206040518083038186803b15801561311957600080fd5b505af415801561312d573d6000803e3d6000fd5b505050506040513d601f19601f820116820180604052508101906131519190614ad2565b61316d5760405162461bcd60e51b8152600401610aff90614af4565b60008281526004602052604081206001549091906001600160a01b031663e06eba8c60076040516001600160e01b031960e084901b16815260ff909116600482015260240160206040518083038186803b1580156131ca57600080fd5b505afa1580156131de573d6000803e3d6000fd5b505050506040513d601f19601f820116820180604052508101906132029190614cb8565b6001805460405163381baea360e21b815260048101929092529192506000916001600160a01b03169063e06eba8c9060240160206040518083038186803b15801561324c57600080fd5b505afa158015613260573d6000803e3d6000fd5b505050506040513d601f19601f820116820180604052508101906132849190614cb8565b905061328f85614186565b1561335357600061329f866141c5565b604051634f50af9160e01b815260048101869052602481018890526001600160a01b03808316604483015280861660648301528416608482015290915073__$c69e6785922941bfe0f11afdbfcce85492$__90634f50af919060a40160206040518083038186803b15801561331357600080fd5b505af4158015613327573d6000803e3d6000fd5b505050506040513d601f19601f8201168201806040525081019061334b9190614ad2565b9450506133f0565b604051632de9f5b360e01b8152600481018490526001600160a01b0380841660248301528216604482015273__$c69e6785922941bfe0f11afdbfcce85492$__90632de9f5b39060640160206040518083038186803b1580156133b557600080fd5b505af41580156133c9573d6000803e3d6000fd5b505050506040513d601f19601f820116820180604052508101906133ed9190614ad2565b93505b83613490576001830154604051637198a37f60e01b8152600481019190915273__$94c94c1f27eaba30857c7d0c37f90b5581$__90637198a37f9060240160206040518083038186803b15801561344657600080fd5b505af415801561345a573d6000803e3d6000fd5b505050506040513d601f19601f8201168201806040525081019061347e9190614ad2565b613489576004613493565b6005613493565b60025b835460ff191660ff91909116908117845560405190815285907f09dabc8247f652d3170a3738595d35365582b55eebeee44e1059d298185264839060200160405180910390a2505050919050565b600082815260046020819052604080832090516301cd7e5560e21b815260029091019181019190915264ffffffffff8316602482015273__$68438f465b222e285b1fb0cc5c3aa7ceb4$__90630735f9549060440160206040518083038186803b15801561354e57600080fd5b505af4158015613562573d6000803e3d6000fd5b505050506040513d601f19601f82011682018060405250810190611d3d9190614ab5565b6001546040516335d2155560e11b81523360048201526001600160a01b0390911690636ba42aaa9060240160206040518083038186803b1580156135c957600080fd5b505afa1580156135dd573d6000803e3d6000fd5b505050506040513d601f19601f820116820180604052508101906136019190614ad2565b61361d5760405162461bcd60e51b8152600401610aff90614bf4565b6000805260076020908152600080516020614f84833981519152805460ff191660ff84169081179091556040519081527fb8601f37e3a796370ca7305c82ef56c156c4fef62313ed48a038656a3cbb1ff39101611436565b60008054604051634de835e760e11b81523360048201526001600160a01b0390911690639bd06bce90602401602060405180830381600087803b1580156136bb57600080fd5b505af1158015610a31573d6000803e3d6000fd5b600085858585856040516020016136ea959493929190614d6e565b60408051601f1981840301815291905280516020909101209695505050505050565b6000805b84518110156137e25784818151811061372b5761372b614e1c565b60200260200101516001600160a01b031684828151811061374e5761374e614e1c565b602002602001015184838151811061376857613768614e1c565b602002602001015160405161377d9190614e32565b60006040518083038185875af1925050503d80600081146137ba576040519150601f19603f3d011682016040523d82523d6000602084013e6137bf565b606091505b505080925050816137d05750611d3d565b806137da81614e4e565b915050613710565b509392505050565b6001820154604051624494ab60e71b8152600481019190915260009060029073__$94c94c1f27eaba30857c7d0c37f90b5581$__9063224a55809060240160206040518083038186803b15801561384057600080fd5b505af4158015613854573d6000803e3d6000fd5b505050506040513d601f19601f820116820180604052508101906138789190614e69565b6138829190614e86565b60ff16600114156116075760015460405163381baea360e21b8152600760048201526001600160a01b039091169063e06eba8c9060240160206040518083038186803b1580156138d157600080fd5b505afa1580156138e5573d6000803e3d6000fd5b505050506040513d601f19601f820116820180604052508101906139099190614cb8565b8354604051634bc8315f60e01b815264ffffffffff85166004820152600160881b90910465ffffffffffff1660248201526001600160a01b039190911690634bc8315f9060440160206040518083038186803b15801561396857600080fd5b505afa15801561397c573d6000803e3d6000fd5b505050506040513d601f19601f82011682018060405250810190611d3d9190614eb6565b6000546001600160a01b0316156139f15760405162461bcd60e51b815260206004820152601560248201527430b63932b0b23c9039b2ba103932b3a1b2b73a32b960591b6044820152606401610aff565b6040516001600160a01b03821681527f318da6c7624c71cbc0afe346c9d8827f119d0ecefb241a7b0c87217a076a8e029060200160405180910390a1600080546001600160a01b0319166001600160a01b0392909216919091179055565b6001546001600160a01b031615613aa85760405162461bcd60e51b815260206004820152601960248201527f616c7265616479207365742067656e6572616c4b6565706572000000000000006044820152606401610aff565b6040516001600160a01b03821681527fe513d3e0f0d0a3877029dcc588748679a7a3450ec1ec7ed56d96bd012c3e61aa9060200160405180910390a1600180546001600160a01b0319166001600160a01b0392909216919091179055565b613b0f83612420565b613b9e57600080526007602052600080516020614f848339815191525460ff16613b37611441565b61ffff1610613b9e5760405162461bcd60e51b815260206004820152602d60248201527f424f442e6164644469726563746f723a206e756d626572206f6620646972656360448201526c746f7273206f766572666c6f7760981b6064820152608401610aff565b426000613ba9612468565b604051634846203760e01b8152600060048201526001600160a01b03919091169063484620379060240160206040518083038186803b158015613beb57600080fd5b505afa158015613bff573d6000803e3d6000fd5b505050506040513d601f19601f82011682018060405250810190613c239190614b3a565b6040516301cbb64760e41b81526004810182905290915060009073__$94c94c1f27eaba30857c7d0c37f90b5581$__90631cbb64709060240160206040518083038186803b158015613c7457600080fd5b505af4158015613c88573d6000803e3d6000fd5b505050506040513d601f19601f82011682018060405250810190613cac9190614edf565b613cba906301e13380614f07565b613cc49084614f35565b64ffffffffff85166000908152600a60205260409081902054905162ae4af360e71b8152600481018a905291925063ffffffff169073__$94c94c1f27eaba30857c7d0c37f90b5581$__9063572579809060240160206040518083038186803b158015613d3057600080fd5b505af4158015613d44573d6000803e3d6000fd5b505050506040513d601f19601f82011682018060405250810190613d689190614e69565b60ff1610613dc45760405162461bcd60e51b8152602060048201526024808201527f424f442e6164644469726563746f723a20426f617264207365657473207573656044820152630642075760e41b6064820152608401610aff565b6040805160a08101825260ff808816825264ffffffffff808a1660208085018281528a841686880190815265ffffffffffff808c16606089019081528a821660808a0190815260009687526007909552989094209651875492519151985193518516600160881b0265ffffffffffff60881b1994909516600160581b0265ffffffffffff60581b19998716600160301b029990991670ffffffffffffffffffffff00000000000019929096166101000265ffffffffffff199093169616959095171793909316919091179390931716919091179055600160ff168560ff161415613f7257600080526007602052600080516020614f8483398151915254600160301b900464ffffffffff16613f1157600080526007602052600080516020614f8483398151915280546affffffffff0000000000001916600160301b64ffffffffff891602179055614043565b60405162461bcd60e51b815260206004820152603060248201527f424f442e6164644469726563746f723a2043686169726d616e277320706f736960448201526f1d1a5bdb881a5cc81bd8d8dd5c1a595960821b6064820152608401610aff565b60ff85166002141561404357600080526007602052600080516020614f8483398151915254610100900464ffffffffff16613fde57600080526007602052600080516020614f84833981519152805465ffffffffff00191661010064ffffffffff891602179055614043565b60405162461bcd60e51b815260206004820152603460248201527f424f442e6164644469726563746f723a205669636543686169726d616e2773206044820152731c1bdcda5d1a5bdb881a5cc81bd8d8dd5c1a595960621b6064820152608401610aff565b6040516392f13c3f60e01b81526008600482015264ffffffffff8716602482015273__$8c1a4844a0a0988ea2454cf87145a95df1$__906392f13c3f9060440160206040518083038186803b15801561409b57600080fd5b505af41580156140af573d6000803e3d6000fd5b505050506040513d601f19601f820116820180604052508101906140d39190614ad2565b1561417d576040805160ff8716815264ffffffffff868116602083015265ffffffffffff86811683850152841660608301529151918816917feb24dd82cd757c6c1ee6f16772513fc8eb118695ce3373185a3f3400872db2c49181900360800190a264ffffffffff84166000908152600a60205260408120805463ffffffff169161415d83614f5f565b91906101000a81548163ffffffff021916908363ffffffff160217905550505b50505050505050565b600060a082901c8215801561419f575060008161ffff16115b80156141b0575060108161ffff1611155b80156141be575060b083901c155b5050919050565b600060a082901c600861ffff821614806141e357508061ffff166010145b1561426b5760015460405163381baea360e21b8152600360048201526001600160a01b039091169063e06eba8c9060240160206040518083038186803b15801561422c57600080fd5b505afa158015614240573d6000803e3d6000fd5b505050506040513d601f19601f820116820180604052508101906142649190614cb8565b91506142ea565b60015460405163381baea360e21b8152600060048201526001600160a01b039091169063e06eba8c9060240160206040518083038186803b1580156142af57600080fd5b505afa1580156142c3573d6000803e3d6000fd5b505050506040513d601f19601f820116820180604052508101906142e79190614cb8565b91505b50919050565b64ffffffffff81168114612b4b57600080fd5b80356130c0816142f0565b60006020828403121561432057600080fd5b8135611d3d816142f0565b61ffff81168114612b4b57600080fd5b60ff81168114612b4b57600080fd5b6000806000806080858703121561436057600080fd5b843561436b8161432b565b9350602085013561437b8161433b565b9250604085013561438b816142f0565b9150606085013561439b816142f0565b939692955090935050565b600080604083850312156143b957600080fd5b8235915060208301356143cb816142f0565b809150509250929050565b6001600160a01b0381168114612b4b57600080fd5b6000806000806080858703121561440157600080fd5b843561440c816143d6565b9350602085013561437b8161432b565b634e487b7160e01b600052604160045260246000fd5b604051601f8201601f191681016001600160401b038111828210171561445a5761445a61441c565b604052919050565b60006001600160401b0382111561447b5761447b61441c565b5060051b60200190565b600082601f83011261449657600080fd5b813560206144ab6144a683614462565b614432565b82815260059290921b840181019181810190868411156144ca57600080fd5b8286015b848110156144ee5780356144e1816143d6565b83529183019183016144ce565b509695505050505050565b600082601f83011261450a57600080fd5b8135602061451a6144a683614462565b82815260059290921b8401810191818101908684111561453957600080fd5b8286015b848110156144ee578035835291830191830161453d565b6000601f838184011261456657600080fd5b823560206145766144a683614462565b82815260059290921b8501810191818101908784111561459557600080fd5b8287015b8481101561123c5780356001600160401b03808211156145b95760008081fd5b818a0191508a603f8301126145ce5760008081fd5b858201356040828211156145e4576145e461441c565b6145f5828b01601f19168901614432565b92508183528c8183860101111561460c5760008081fd5b8181850189850137506000908201870152845250918301918301614599565b60008060008060008060c0878903121561464457600080fd5b863561464f8161432b565b955060208701356001600160401b038082111561466b57600080fd5b6146778a838b01614485565b9650604089013591508082111561468d57600080fd5b6146998a838b016144f9565b955060608901359150808211156146af57600080fd5b506146bc89828a01614554565b93505060808701356146cd816142f0565b8092505060a087013590509295509295509295565b6000602082840312156146f457600080fd5b5035919050565b6000806000806080858703121561471157600080fd5b84359350602085013561437b8161432b565b60006020828403121561473557600080fd5b8135611d3d816143d6565b6020808252825182820181905260009190848201906040850190845b8181101561477f57835164ffffffffff168352928401929184019160010161475c565b50909695505050505050565b6000806000606084860312156147a057600080fd5b8335925060208401356147b2816142f0565b915060408401356147c2816142f0565b809150509250925092565b600080600080608085870312156147e357600080fd5b84356147ee816142f0565b935060208501356147fe816143d6565b9250604085013561480e816143d6565b9150606085013561439b816143d6565b6000806040838503121561483157600080fd5b8235915060208301356143cb8161433b565b600081518084526020808501945080840160005b8381101561487a57815164ffffffffff1687529582019590820190600101614857565b509495945050505050565b6020815263ffffffff82511660208201526001600160401b036020830151166040820152600060408301516060808401526148c36080840182614843565b949350505050565b6020815264ffffffffff8251166020820152600060208301516001600160401b038082166040850152806040860151166060850152505063ffffffff6060840151166080830152608083015160a0808401526148c360c0840182614843565b6000806000806080858703121561494057600080fd5b843593506020850135614952816142f0565b925060408501356149628161433b565b9396929550929360600135925050565b6000806000806080858703121561498857600080fd5b84359350602085013561437b8161433b565b600080600080600080600060e0888a0312156149b557600080fd5b87356149c08161432b565b965060208801356001600160401b03808211156149dc57600080fd5b6149e88b838c01614485565b975060408a01359150808211156149fe57600080fd5b614a0a8b838c016144f9565b965060608a0135915080821115614a2057600080fd5b50614a2d8a828b01614554565b9450506080880135925060a0880135614a45816142f0565b9150614a5360c08901614303565b905092959891949750929550565b600060208284031215614a7357600080fd5b8135611d3d8161433b565b600080600060608486031215614a9357600080fd5b833592506020840135614aa5816142f0565b915060408401356147c28161433b565b600060208284031215614ac757600080fd5b8151611d3d816142f0565b600060208284031215614ae457600080fd5b81518015158114611d3d57600080fd5b60208082526026908201527f41432e6f6e6c794469726563744b65657065723a206e6f74206469726563742060408201526535b2b2b832b960d11b606082015260800190565b600060208284031215614b4c57600080fd5b5051919050565b600060208284031215614b6557600080fd5b8151611d3d8161432b565b634e487b7160e01b600052601160045260246000fd5b60008219821115614b9957614b99614b70565b500190565b60208082526036908201527f41432e6f776e65724f72446972656374426f6f6b65657065723a206e6569746860408201527532b91037bbb732b9103737b9103137b7b5b2b2b832b960511b606082015260800190565b60208082526011908201527020a19737b59d103737ba1025b2b2b832b960791b604082015260600190565b60006020808385031215614c3257600080fd5b82516001600160401b03811115614c4857600080fd5b8301601f81018513614c5957600080fd5b8051614c676144a682614462565b81815260059190911b82018301908381019087831115614c8657600080fd5b928401925b82841015614cad578351614c9e816142f0565b82529284019290840190614c8b565b979650505050505050565b600060208284031215614cca57600080fd5b8151611d3d816143d6565b60005b83811015614cf0578181015183820152602001614cd8565b8381111561190c5750506000910152565b600081518084526020808501808196508360051b8101915082860160005b85811015614d6157828403895281518051808652614d4281888801898501614cd5565b99860199601f01601f1916949094018501935090840190600101614d1f565b5091979650505050505050565b600060a0820161ffff88168352602060a08185015281885180845260c086019150828a01935060005b81811015614dbc5784516001600160a01b031683529383019391830191600101614d97565b50508481036040860152875180825290820192508188019060005b81811015614df357825185529383019391830191600101614dd7565b505050508281036060840152614e098186614d01565b9150508260808301529695505050505050565b634e487b7160e01b600052603260045260246000fd5b60008251614e44818460208701614cd5565b9190910192915050565b6000600019821415614e6257614e62614b70565b5060010190565b600060208284031215614e7b57600080fd5b8151611d3d8161433b565b600060ff831680614ea757634e487b7160e01b600052601260045260246000fd5b8060ff84160691505092915050565b600060208284031215614ec857600080fd5b81516001600160401b0381168114611d3d57600080fd5b600060208284031215614ef157600080fd5b815165ffffffffffff81168114611d3d57600080fd5b600065ffffffffffff80831681851681830481118215151615614f2c57614f2c614b70565b02949350505050565b600065ffffffffffff808316818516808303821115614f5657614f56614b70565b01949350505050565b600063ffffffff80831681811415614f7957614f79614b70565b600101939250505056fe6d5257204ebe7d88fd91ae87941cb2dd9d8062b64ae5a2bd2d28ec40b9fbf6dfa2646970667358221220bf8994e56ba6e6077ba5013d23b63007d6291c9b2ec52e60720e99cc9e013e0664736f6c63430008080033",
    "sourcePath": "/Users/kaptain/github.com/hardhat/comboox/contracts/books/bod/BookOfDirectors.sol",
    "compiler": {
        "name": "solc",
        "version": "0.8.8+commit.dddeac2f"
    },
    "functionHashes": {
        "abandonRole(bytes32)": "3da9a600",
        "appointOfficer(uint16,uint8,uint40,uint40)": "122d93e9",
        "boardSeatsOf(uint256)": "8b741818",
        "castVote(uint256,uint40,uint8,bytes32)": "cba36bf3",
        "directors()": "709a5a10",
        "entrustDelegate(uint256,uint40,uint40)": "81ab05cb",
        "execAction(uint16,address[],uint256[],bytes[],uint40,bytes32)": "26802f39",
        "finalized()": "b3f05b97",
        "getBallot(uint256,uint40)": "65e0bce2",
        "getBookeeper()": "ed211023",
        "getCaseOfAttitude(uint256,uint8)": "8d5b6585",
        "getDelegateOf(uint256,uint40)": "fd8f19c2",
        "getDirector(uint40)": "6644b03b",
        "getGeneralCounsel()": "103f6edd",
        "getHeadOfMotion(uint256)": "64525a0d",
        "getOwner()": "893d20e8",
        "getSHA()": "a61adc28",
        "getVoterOfDelegateMap(uint256,uint40)": "b801769d",
        "getVotingRuleOfMotion(uint256)": "aaf7bfc6",
        "grantRole(bytes32,uint40)": "74099815",
        "hasRole(bytes32,uint40)": "79b2ec12",
        "init(uint40,address,address,address)": "821ee8ea",
        "isDirector(uint40)": "9766a0b3",
        "isExecuted(uint256)": "76a6bf52",
        "isOfficer(uint40)": "0b1e17b4",
        "isPassed(uint256)": "49403183",
        "isProposed(uint256)": "59269f82",
        "isVoted(uint256,uint40)": "402fbbf7",
        "isVotedFor(uint256,uint40,uint8)": "f755c003",
        "lockContents()": "f045a769",
        "maxQtyOfDirectors()": "04302b9a",
        "motionExecuted(uint256)": "f117bdb7",
        "nominateOfficer(uint16,uint8,uint40,uint40)": "bf0d4ace",
        "proposeAction(uint16,address[],uint256[],bytes[],bytes32,uint40,uint40)": "f3c54fac",
        "proposeDoc(address,uint16,uint40,uint40)": "216eeebf",
        "proposeMotion(uint256,uint16,uint40,uint40)": "485ca4ce",
        "qtyOfDirectors()": "38cc78be",
        "removeDirector(uint40)": "db34d934",
        "renounceRole(bytes32)": "8bb9c5bf",
        "revokeRole(bytes32,uint40)": "17c51fec",
        "setDirectKeeper(address)": "6be8496f",
        "setGeneralCounsel(uint40)": "3178a9a9",
        "setMaxQtyOfDirectors(uint8)": "ff77c055",
        "setOwner(uint40)": "7ba706e8",
        "setRoleAdmin(bytes32,uint40)": "16dc517e",
        "takePosition(bytes32,uint8,uint40,uint40)": "ee7c1be1",
        "voteCounting(uint256)": "f8fb9e1d",
        "whoIs(uint8)": "f5efdb26"
    },
    "gasEstimates": {
        "creation": {
            "codeDepositCost": "4088200",
            "executionCost": "4682",
            "totalCost": "4092882"
        },
        "external": {
            "abandonRole(bytes32)": "infinite",
            "appointOfficer(uint16,uint8,uint40,uint40)": "infinite",
            "boardSeatsOf(uint256)": "2556",
            "castVote(uint256,uint40,uint8,bytes32)": "infinite",
            "directors()": "infinite",
            "entrustDelegate(uint256,uint40,uint40)": "infinite",
            "execAction(uint16,address[],uint256[],bytes[],uint40,bytes32)": "infinite",
            "finalized()": "2438",
            "getBallot(uint256,uint40)": "5569",
            "getBookeeper()": "infinite",
            "getCaseOfAttitude(uint256,uint8)": "infinite",
            "getDelegateOf(uint256,uint40)": "infinite",
            "getDirector(uint40)": "infinite",
            "getGeneralCounsel()": "infinite",
            "getHeadOfMotion(uint256)": "3185",
            "getOwner()": "infinite",
            "getSHA()": "infinite",
            "getVoterOfDelegateMap(uint256,uint40)": "infinite",
            "getVotingRuleOfMotion(uint256)": "2533",
            "grantRole(bytes32,uint40)": "infinite",
            "hasRole(bytes32,uint40)": "infinite",
            "init(uint40,address,address,address)": "infinite",
            "isDirector(uint40)": "infinite",
            "isExecuted(uint256)": "2623",
            "isOfficer(uint40)": "2611",
            "isPassed(uint256)": "2569",
            "isProposed(uint256)": "infinite",
            "isVoted(uint256,uint40)": "2827",
            "isVotedFor(uint256,uint40,uint8)": "infinite",
            "lockContents()": "infinite",
            "maxQtyOfDirectors()": "infinite",
            "motionExecuted(uint256)": "infinite",
            "nominateOfficer(uint16,uint8,uint40,uint40)": "infinite",
            "proposeAction(uint16,address[],uint256[],bytes[],bytes32,uint40,uint40)": "infinite",
            "proposeDoc(address,uint16,uint40,uint40)": "infinite",
            "proposeMotion(uint256,uint16,uint40,uint40)": "infinite",
            "qtyOfDirectors()": "infinite",
            "removeDirector(uint40)": "infinite",
            "renounceRole(bytes32)": "infinite",
            "revokeRole(bytes32,uint40)": "infinite",
            "setDirectKeeper(address)": "infinite",
            "setGeneralCounsel(uint40)": "infinite",
            "setMaxQtyOfDirectors(uint8)": "infinite",
            "setOwner(uint40)": "infinite",
            "setRoleAdmin(bytes32,uint40)": "infinite",
            "takePosition(bytes32,uint8,uint40,uint40)": "infinite",
            "voteCounting(uint256)": "infinite",
            "whoIs(uint8)": "infinite"
        },
        "internal": {
            "_addDirector(bytes32,uint40,uint8,uint40)": "infinite"
        }
    }
}