{
    "contractName": "BookOfDirectors",
    "abi": [
        {
            "anonymous": false,
            "inputs": [
                {
                    "indexed": true,
                    "internalType": "bytes32",
                    "name": "snOfPos",
                    "type": "bytes32"
                }
            ],
            "name": "AddPosition",
            "type": "event"
        },
        {
            "anonymous": false,
            "inputs": [
                {
                    "indexed": true,
                    "internalType": "uint256",
                    "name": "seqOfMotion",
                    "type": "uint256"
                },
                {
                    "indexed": true,
                    "internalType": "uint256",
                    "name": "caller",
                    "type": "uint256"
                },
                {
                    "indexed": true,
                    "internalType": "uint256",
                    "name": "attitude",
                    "type": "uint256"
                },
                {
                    "indexed": false,
                    "internalType": "bytes32",
                    "name": "sigHash",
                    "type": "bytes32"
                }
            ],
            "name": "CastVote",
            "type": "event"
        },
        {
            "anonymous": false,
            "inputs": [
                {
                    "indexed": true,
                    "internalType": "bytes32",
                    "name": "snOfMotion",
                    "type": "bytes32"
                },
                {
                    "indexed": true,
                    "internalType": "uint256",
                    "name": "contents",
                    "type": "uint256"
                }
            ],
            "name": "CreateMotion",
            "type": "event"
        },
        {
            "anonymous": false,
            "inputs": [
                {
                    "indexed": true,
                    "internalType": "uint256",
                    "name": "seqOfMotion",
                    "type": "uint256"
                },
                {
                    "indexed": false,
                    "internalType": "uint256",
                    "name": "delegate",
                    "type": "uint256"
                },
                {
                    "indexed": false,
                    "internalType": "uint256",
                    "name": "principal",
                    "type": "uint256"
                },
                {
                    "indexed": false,
                    "internalType": "uint256",
                    "name": "weight",
                    "type": "uint256"
                }
            ],
            "name": "EntrustDelegate",
            "type": "event"
        },
        {
            "anonymous": false,
            "inputs": [
                {
                    "indexed": true,
                    "internalType": "uint256",
                    "name": "contents",
                    "type": "uint256"
                },
                {
                    "indexed": false,
                    "internalType": "bool",
                    "name": "result",
                    "type": "bool"
                }
            ],
            "name": "ExecAction",
            "type": "event"
        },
        {
            "anonymous": false,
            "inputs": [
                {
                    "indexed": true,
                    "internalType": "uint256",
                    "name": "seqOfMotion",
                    "type": "uint256"
                },
                {
                    "indexed": true,
                    "internalType": "uint256",
                    "name": "caller",
                    "type": "uint256"
                }
            ],
            "name": "ExecResolution",
            "type": "event"
        },
        {
            "anonymous": false,
            "inputs": [
                {
                    "indexed": false,
                    "internalType": "uint256",
                    "name": "owner",
                    "type": "uint256"
                },
                {
                    "indexed": false,
                    "internalType": "address",
                    "name": "directKeeper",
                    "type": "address"
                },
                {
                    "indexed": false,
                    "internalType": "address",
                    "name": "regCenter",
                    "type": "address"
                },
                {
                    "indexed": false,
                    "internalType": "address",
                    "name": "generalKeeper",
                    "type": "address"
                }
            ],
            "name": "Init",
            "type": "event"
        },
        {
            "anonymous": false,
            "inputs": [],
            "name": "LockContents",
            "type": "event"
        },
        {
            "anonymous": false,
            "inputs": [
                {
                    "indexed": true,
                    "internalType": "uint256",
                    "name": "seqOfMotion",
                    "type": "uint256"
                },
                {
                    "indexed": true,
                    "internalType": "uint256",
                    "name": "proposer",
                    "type": "uint256"
                }
            ],
            "name": "ProposeMotion",
            "type": "event"
        },
        {
            "anonymous": false,
            "inputs": [
                {
                    "indexed": true,
                    "internalType": "uint256",
                    "name": "seqOfPos",
                    "type": "uint256"
                },
                {
                    "indexed": true,
                    "internalType": "uint256",
                    "name": "caller",
                    "type": "uint256"
                }
            ],
            "name": "QuitPosition",
            "type": "event"
        },
        {
            "anonymous": false,
            "inputs": [
                {
                    "indexed": false,
                    "internalType": "address",
                    "name": "target",
                    "type": "address"
                }
            ],
            "name": "RemoveDirectKeeper",
            "type": "event"
        },
        {
            "anonymous": false,
            "inputs": [
                {
                    "indexed": true,
                    "internalType": "uint256",
                    "name": "seqOfMotion",
                    "type": "uint256"
                },
                {
                    "indexed": true,
                    "internalType": "uint256",
                    "name": "seqOfPos",
                    "type": "uint256"
                },
                {
                    "indexed": false,
                    "internalType": "uint256",
                    "name": "target",
                    "type": "uint256"
                },
                {
                    "indexed": false,
                    "internalType": "uint256",
                    "name": "caller",
                    "type": "uint256"
                }
            ],
            "name": "RemoveOfficer",
            "type": "event"
        },
        {
            "anonymous": false,
            "inputs": [
                {
                    "indexed": true,
                    "internalType": "uint256",
                    "name": "seqOfPos",
                    "type": "uint256"
                }
            ],
            "name": "RemovePosition",
            "type": "event"
        },
        {
            "anonymous": false,
            "inputs": [
                {
                    "indexed": false,
                    "internalType": "address",
                    "name": "keeper",
                    "type": "address"
                }
            ],
            "name": "SetDirectKeeper",
            "type": "event"
        },
        {
            "anonymous": false,
            "inputs": [
                {
                    "indexed": false,
                    "internalType": "uint256",
                    "name": "acct",
                    "type": "uint256"
                }
            ],
            "name": "SetGeneralCounsel",
            "type": "event"
        },
        {
            "anonymous": false,
            "inputs": [
                {
                    "indexed": false,
                    "internalType": "uint256",
                    "name": "acct",
                    "type": "uint256"
                }
            ],
            "name": "SetOwner",
            "type": "event"
        },
        {
            "anonymous": false,
            "inputs": [
                {
                    "indexed": true,
                    "internalType": "bytes32",
                    "name": "snOfPos",
                    "type": "bytes32"
                }
            ],
            "name": "TakePosition",
            "type": "event"
        },
        {
            "anonymous": false,
            "inputs": [
                {
                    "indexed": true,
                    "internalType": "uint256",
                    "name": "seqOfMotion",
                    "type": "uint256"
                },
                {
                    "indexed": true,
                    "internalType": "uint8",
                    "name": "result",
                    "type": "uint8"
                }
            ],
            "name": "VoteCounting",
            "type": "event"
        },
        {
            "inputs": [
                {
                    "internalType": "bytes32",
                    "name": "role",
                    "type": "bytes32"
                }
            ],
            "name": "abandonRole",
            "outputs": [],
            "stateMutability": "nonpayable",
            "type": "function"
        },
        {
            "inputs": [
                {
                    "internalType": "uint256",
                    "name": "seqOfMotion",
                    "type": "uint256"
                },
                {
                    "internalType": "uint256",
                    "name": "attitude",
                    "type": "uint256"
                },
                {
                    "internalType": "bytes32",
                    "name": "sigHash",
                    "type": "bytes32"
                },
                {
                    "internalType": "contract IRegisterOfMembers",
                    "name": "_rom",
                    "type": "address"
                },
                {
                    "internalType": "uint256",
                    "name": "caller",
                    "type": "uint256"
                }
            ],
            "name": "castVote",
            "outputs": [],
            "stateMutability": "nonpayable",
            "type": "function"
        },
        {
            "inputs": [
                {
                    "components": [
                        {
                            "internalType": "uint16",
                            "name": "typeOfMotion",
                            "type": "uint16"
                        },
                        {
                            "internalType": "uint64",
                            "name": "seqOfMotion",
                            "type": "uint64"
                        },
                        {
                            "internalType": "uint16",
                            "name": "seqOfVR",
                            "type": "uint16"
                        },
                        {
                            "internalType": "uint40",
                            "name": "creator",
                            "type": "uint40"
                        },
                        {
                            "internalType": "uint40",
                            "name": "executor",
                            "type": "uint40"
                        },
                        {
                            "internalType": "uint48",
                            "name": "createDate",
                            "type": "uint48"
                        },
                        {
                            "internalType": "uint32",
                            "name": "data",
                            "type": "uint32"
                        }
                    ],
                    "internalType": "struct MotionsRepo.Head",
                    "name": "head",
                    "type": "tuple"
                },
                {
                    "internalType": "uint256",
                    "name": "contents",
                    "type": "uint256"
                }
            ],
            "name": "createMotion",
            "outputs": [
                {
                    "internalType": "uint64",
                    "name": "",
                    "type": "uint64"
                }
            ],
            "stateMutability": "nonpayable",
            "type": "function"
        },
        {
            "inputs": [
                {
                    "internalType": "bytes32",
                    "name": "snOfPos",
                    "type": "bytes32"
                }
            ],
            "name": "createPosition",
            "outputs": [],
            "stateMutability": "nonpayable",
            "type": "function"
        },
        {
            "inputs": [
                {
                    "internalType": "uint256",
                    "name": "seqOfMotion",
                    "type": "uint256"
                },
                {
                    "internalType": "uint256",
                    "name": "delegate",
                    "type": "uint256"
                },
                {
                    "internalType": "uint256",
                    "name": "principal",
                    "type": "uint256"
                },
                {
                    "internalType": "uint256",
                    "name": "weight",
                    "type": "uint256"
                }
            ],
            "name": "entrustDelegate",
            "outputs": [],
            "stateMutability": "nonpayable",
            "type": "function"
        },
        {
            "inputs": [
                {
                    "internalType": "uint256",
                    "name": "seqOfVR",
                    "type": "uint256"
                },
                {
                    "internalType": "address[]",
                    "name": "targets",
                    "type": "address[]"
                },
                {
                    "internalType": "uint256[]",
                    "name": "values",
                    "type": "uint256[]"
                },
                {
                    "internalType": "bytes[]",
                    "name": "params",
                    "type": "bytes[]"
                },
                {
                    "internalType": "bytes32",
                    "name": "desHash",
                    "type": "bytes32"
                },
                {
                    "internalType": "uint256",
                    "name": "seqOfMotion",
                    "type": "uint256"
                },
                {
                    "internalType": "uint256",
                    "name": "caller",
                    "type": "uint256"
                }
            ],
            "name": "execAction",
            "outputs": [],
            "stateMutability": "nonpayable",
            "type": "function"
        },
        {
            "inputs": [
                {
                    "internalType": "uint256",
                    "name": "seqOfMotion",
                    "type": "uint256"
                },
                {
                    "internalType": "uint256",
                    "name": "contents",
                    "type": "uint256"
                },
                {
                    "internalType": "uint256",
                    "name": "caller",
                    "type": "uint256"
                }
            ],
            "name": "execResolution",
            "outputs": [],
            "stateMutability": "nonpayable",
            "type": "function"
        },
        {
            "inputs": [],
            "name": "finalized",
            "outputs": [
                {
                    "internalType": "bool",
                    "name": "",
                    "type": "bool"
                }
            ],
            "stateMutability": "view",
            "type": "function"
        },
        {
            "inputs": [
                {
                    "internalType": "uint256",
                    "name": "seqOfMotion",
                    "type": "uint256"
                },
                {
                    "internalType": "uint256",
                    "name": "acct",
                    "type": "uint256"
                }
            ],
            "name": "getBallot",
            "outputs": [
                {
                    "components": [
                        {
                            "internalType": "uint40",
                            "name": "acct",
                            "type": "uint40"
                        },
                        {
                            "internalType": "uint8",
                            "name": "attitude",
                            "type": "uint8"
                        },
                        {
                            "internalType": "uint32",
                            "name": "head",
                            "type": "uint32"
                        },
                        {
                            "internalType": "uint64",
                            "name": "weight",
                            "type": "uint64"
                        },
                        {
                            "internalType": "uint48",
                            "name": "sigDate",
                            "type": "uint48"
                        },
                        {
                            "internalType": "uint64",
                            "name": "blocknumber",
                            "type": "uint64"
                        },
                        {
                            "internalType": "bytes32",
                            "name": "sigHash",
                            "type": "bytes32"
                        }
                    ],
                    "internalType": "struct BallotsBox.Ballot",
                    "name": "",
                    "type": "tuple"
                }
            ],
            "stateMutability": "view",
            "type": "function"
        },
        {
            "inputs": [
                {
                    "internalType": "uint256",
                    "name": "acct",
                    "type": "uint256"
                }
            ],
            "name": "getBoardSeatsOccupied",
            "outputs": [
                {
                    "internalType": "uint256",
                    "name": "num",
                    "type": "uint256"
                }
            ],
            "stateMutability": "view",
            "type": "function"
        },
        {
            "inputs": [
                {
                    "internalType": "uint256",
                    "name": "acct",
                    "type": "uint256"
                }
            ],
            "name": "getBoardSeatsQuota",
            "outputs": [
                {
                    "internalType": "uint256",
                    "name": "quota",
                    "type": "uint256"
                }
            ],
            "stateMutability": "view",
            "type": "function"
        },
        {
            "inputs": [],
            "name": "getBookeeper",
            "outputs": [
                {
                    "internalType": "address",
                    "name": "",
                    "type": "address"
                }
            ],
            "stateMutability": "view",
            "type": "function"
        },
        {
            "inputs": [
                {
                    "internalType": "uint256",
                    "name": "seqOfMotion",
                    "type": "uint256"
                },
                {
                    "internalType": "uint256",
                    "name": "atti",
                    "type": "uint256"
                }
            ],
            "name": "getCaseOfAttitude",
            "outputs": [
                {
                    "components": [
                        {
                            "internalType": "uint32",
                            "name": "sumOfHead",
                            "type": "uint32"
                        },
                        {
                            "internalType": "uint64",
                            "name": "sumOfWeight",
                            "type": "uint64"
                        },
                        {
                            "internalType": "uint256[]",
                            "name": "voters",
                            "type": "uint256[]"
                        }
                    ],
                    "internalType": "struct BallotsBox.Case",
                    "name": "",
                    "type": "tuple"
                }
            ],
            "stateMutability": "view",
            "type": "function"
        },
        {
            "inputs": [
                {
                    "internalType": "uint256",
                    "name": "seqOfMotion",
                    "type": "uint256"
                },
                {
                    "internalType": "uint256",
                    "name": "acct",
                    "type": "uint256"
                }
            ],
            "name": "getDelegateOf",
            "outputs": [
                {
                    "internalType": "uint256",
                    "name": "",
                    "type": "uint256"
                }
            ],
            "stateMutability": "view",
            "type": "function"
        },
        {
            "inputs": [],
            "name": "getDirectorsList",
            "outputs": [
                {
                    "internalType": "uint256[]",
                    "name": "list",
                    "type": "uint256[]"
                }
            ],
            "stateMutability": "view",
            "type": "function"
        },
        {
            "inputs": [],
            "name": "getFullPosInfo",
            "outputs": [
                {
                    "components": [
                        {
                            "internalType": "uint16",
                            "name": "title",
                            "type": "uint16"
                        },
                        {
                            "internalType": "uint16",
                            "name": "seqOfPos",
                            "type": "uint16"
                        },
                        {
                            "internalType": "uint40",
                            "name": "acct",
                            "type": "uint40"
                        },
                        {
                            "internalType": "uint40",
                            "name": "nominator",
                            "type": "uint40"
                        },
                        {
                            "internalType": "uint48",
                            "name": "startDate",
                            "type": "uint48"
                        },
                        {
                            "internalType": "uint48",
                            "name": "endDate",
                            "type": "uint48"
                        },
                        {
                            "internalType": "uint16",
                            "name": "seqOfVR",
                            "type": "uint16"
                        },
                        {
                            "internalType": "uint16",
                            "name": "para",
                            "type": "uint16"
                        },
                        {
                            "internalType": "uint16",
                            "name": "arg",
                            "type": "uint16"
                        }
                    ],
                    "internalType": "struct OfficersRepo.Position[]",
                    "name": "list",
                    "type": "tuple[]"
                }
            ],
            "stateMutability": "view",
            "type": "function"
        },
        {
            "inputs": [],
            "name": "getGeneralCounsel",
            "outputs": [
                {
                    "internalType": "uint40",
                    "name": "",
                    "type": "uint40"
                }
            ],
            "stateMutability": "view",
            "type": "function"
        },
        {
            "inputs": [
                {
                    "internalType": "uint256",
                    "name": "seqOfMotion",
                    "type": "uint256"
                },
                {
                    "internalType": "uint256",
                    "name": "caller",
                    "type": "uint256"
                },
                {
                    "internalType": "uint256",
                    "name": "baseDate",
                    "type": "uint256"
                },
                {
                    "internalType": "contract IRegisterOfMembers",
                    "name": "_rom",
                    "type": "address"
                }
            ],
            "name": "getLeavesWeightAtDate",
            "outputs": [
                {
                    "internalType": "uint64",
                    "name": "weight",
                    "type": "uint64"
                }
            ],
            "stateMutability": "view",
            "type": "function"
        },
        {
            "inputs": [
                {
                    "internalType": "uint256",
                    "name": "seqOfMotion",
                    "type": "uint256"
                }
            ],
            "name": "getMotion",
            "outputs": [
                {
                    "components": [
                        {
                            "components": [
                                {
                                    "internalType": "uint16",
                                    "name": "typeOfMotion",
                                    "type": "uint16"
                                },
                                {
                                    "internalType": "uint64",
                                    "name": "seqOfMotion",
                                    "type": "uint64"
                                },
                                {
                                    "internalType": "uint16",
                                    "name": "seqOfVR",
                                    "type": "uint16"
                                },
                                {
                                    "internalType": "uint40",
                                    "name": "creator",
                                    "type": "uint40"
                                },
                                {
                                    "internalType": "uint40",
                                    "name": "executor",
                                    "type": "uint40"
                                },
                                {
                                    "internalType": "uint48",
                                    "name": "createDate",
                                    "type": "uint48"
                                },
                                {
                                    "internalType": "uint32",
                                    "name": "data",
                                    "type": "uint32"
                                }
                            ],
                            "internalType": "struct MotionsRepo.Head",
                            "name": "head",
                            "type": "tuple"
                        },
                        {
                            "components": [
                                {
                                    "internalType": "uint40",
                                    "name": "proposer",
                                    "type": "uint40"
                                },
                                {
                                    "internalType": "uint48",
                                    "name": "proposeDate",
                                    "type": "uint48"
                                },
                                {
                                    "internalType": "uint48",
                                    "name": "shareRegDate",
                                    "type": "uint48"
                                },
                                {
                                    "internalType": "uint48",
                                    "name": "voteStartDate",
                                    "type": "uint48"
                                },
                                {
                                    "internalType": "uint48",
                                    "name": "voteEndDate",
                                    "type": "uint48"
                                },
                                {
                                    "internalType": "uint16",
                                    "name": "para",
                                    "type": "uint16"
                                },
                                {
                                    "internalType": "uint8",
                                    "name": "state",
                                    "type": "uint8"
                                }
                            ],
                            "internalType": "struct MotionsRepo.Body",
                            "name": "body",
                            "type": "tuple"
                        },
                        {
                            "components": [
                                {
                                    "internalType": "uint16",
                                    "name": "seqOfRule",
                                    "type": "uint16"
                                },
                                {
                                    "internalType": "uint8",
                                    "name": "qtyOfSubRule",
                                    "type": "uint8"
                                },
                                {
                                    "internalType": "uint8",
                                    "name": "seqOfSubRule",
                                    "type": "uint8"
                                },
                                {
                                    "internalType": "uint16",
                                    "name": "authority",
                                    "type": "uint16"
                                },
                                {
                                    "internalType": "uint16",
                                    "name": "headRatio",
                                    "type": "uint16"
                                },
                                {
                                    "internalType": "uint16",
                                    "name": "amountRatio",
                                    "type": "uint16"
                                },
                                {
                                    "internalType": "bool",
                                    "name": "onlyAttendance",
                                    "type": "bool"
                                },
                                {
                                    "internalType": "bool",
                                    "name": "impliedConsent",
                                    "type": "bool"
                                },
                                {
                                    "internalType": "bool",
                                    "name": "partyAsConsent",
                                    "type": "bool"
                                },
                                {
                                    "internalType": "bool",
                                    "name": "againstShallBuy",
                                    "type": "bool"
                                },
                                {
                                    "internalType": "uint8",
                                    "name": "shaExecDays",
                                    "type": "uint8"
                                },
                                {
                                    "internalType": "uint8",
                                    "name": "reviewDays",
                                    "type": "uint8"
                                },
                                {
                                    "internalType": "uint8",
                                    "name": "reconsiderDays",
                                    "type": "uint8"
                                },
                                {
                                    "internalType": "uint8",
                                    "name": "votePrepareDays",
                                    "type": "uint8"
                                },
                                {
                                    "internalType": "uint8",
                                    "name": "votingDays",
                                    "type": "uint8"
                                },
                                {
                                    "internalType": "uint8",
                                    "name": "execDaysForPutOpt",
                                    "type": "uint8"
                                },
                                {
                                    "internalType": "uint40[2]",
                                    "name": "vetoers",
                                    "type": "uint40[2]"
                                },
                                {
                                    "internalType": "uint16",
                                    "name": "para",
                                    "type": "uint16"
                                }
                            ],
                            "internalType": "struct RulesParser.VotingRule",
                            "name": "votingRule",
                            "type": "tuple"
                        },
                        {
                            "internalType": "uint256",
                            "name": "contents",
                            "type": "uint256"
                        }
                    ],
                    "internalType": "struct MotionsRepo.Motion",
                    "name": "motion",
                    "type": "tuple"
                }
            ],
            "stateMutability": "view",
            "type": "function"
        },
        {
            "inputs": [],
            "name": "getNumOfDirectors",
            "outputs": [
                {
                    "internalType": "uint256",
                    "name": "num",
                    "type": "uint256"
                }
            ],
            "stateMutability": "view",
            "type": "function"
        },
        {
            "inputs": [],
            "name": "getNumOfOfficers",
            "outputs": [
                {
                    "internalType": "uint256",
                    "name": "num",
                    "type": "uint256"
                }
            ],
            "stateMutability": "view",
            "type": "function"
        },
        {
            "inputs": [],
            "name": "getOffList",
            "outputs": [
                {
                    "internalType": "uint256[]",
                    "name": "ls",
                    "type": "uint256[]"
                }
            ],
            "stateMutability": "view",
            "type": "function"
        },
        {
            "inputs": [
                {
                    "internalType": "uint256",
                    "name": "acct",
                    "type": "uint256"
                }
            ],
            "name": "getOfficer",
            "outputs": [
                {
                    "components": [
                        {
                            "internalType": "uint16",
                            "name": "title",
                            "type": "uint16"
                        },
                        {
                            "internalType": "uint16",
                            "name": "seqOfPos",
                            "type": "uint16"
                        },
                        {
                            "internalType": "uint40",
                            "name": "acct",
                            "type": "uint40"
                        },
                        {
                            "internalType": "uint40",
                            "name": "nominator",
                            "type": "uint40"
                        },
                        {
                            "internalType": "uint48",
                            "name": "startDate",
                            "type": "uint48"
                        },
                        {
                            "internalType": "uint48",
                            "name": "endDate",
                            "type": "uint48"
                        },
                        {
                            "internalType": "uint16",
                            "name": "seqOfVR",
                            "type": "uint16"
                        },
                        {
                            "internalType": "uint16",
                            "name": "para",
                            "type": "uint16"
                        },
                        {
                            "internalType": "uint16",
                            "name": "arg",
                            "type": "uint16"
                        }
                    ],
                    "internalType": "struct OfficersRepo.Position[]",
                    "name": "ls",
                    "type": "tuple[]"
                }
            ],
            "stateMutability": "view",
            "type": "function"
        },
        {
            "inputs": [],
            "name": "getOwner",
            "outputs": [
                {
                    "internalType": "uint40",
                    "name": "",
                    "type": "uint40"
                }
            ],
            "stateMutability": "view",
            "type": "function"
        },
        {
            "inputs": [
                {
                    "internalType": "uint256",
                    "name": "acct",
                    "type": "uint256"
                }
            ],
            "name": "getPosInHand",
            "outputs": [
                {
                    "internalType": "uint256[]",
                    "name": "ls",
                    "type": "uint256[]"
                }
            ],
            "stateMutability": "view",
            "type": "function"
        },
        {
            "inputs": [],
            "name": "getPosList",
            "outputs": [
                {
                    "internalType": "bytes32[]",
                    "name": "list",
                    "type": "bytes32[]"
                }
            ],
            "stateMutability": "view",
            "type": "function"
        },
        {
            "inputs": [
                {
                    "internalType": "uint256",
                    "name": "seqOfPos",
                    "type": "uint256"
                }
            ],
            "name": "getPosition",
            "outputs": [
                {
                    "components": [
                        {
                            "internalType": "uint16",
                            "name": "title",
                            "type": "uint16"
                        },
                        {
                            "internalType": "uint16",
                            "name": "seqOfPos",
                            "type": "uint16"
                        },
                        {
                            "internalType": "uint40",
                            "name": "acct",
                            "type": "uint40"
                        },
                        {
                            "internalType": "uint40",
                            "name": "nominator",
                            "type": "uint40"
                        },
                        {
                            "internalType": "uint48",
                            "name": "startDate",
                            "type": "uint48"
                        },
                        {
                            "internalType": "uint48",
                            "name": "endDate",
                            "type": "uint48"
                        },
                        {
                            "internalType": "uint16",
                            "name": "seqOfVR",
                            "type": "uint16"
                        },
                        {
                            "internalType": "uint16",
                            "name": "para",
                            "type": "uint16"
                        },
                        {
                            "internalType": "uint16",
                            "name": "arg",
                            "type": "uint16"
                        }
                    ],
                    "internalType": "struct OfficersRepo.Position",
                    "name": "pos",
                    "type": "tuple"
                }
            ],
            "stateMutability": "view",
            "type": "function"
        },
        {
            "inputs": [
                {
                    "internalType": "uint256",
                    "name": "seqOfMotion",
                    "type": "uint256"
                },
                {
                    "internalType": "uint256",
                    "name": "acct",
                    "type": "uint256"
                }
            ],
            "name": "getVoterOfDelegateMap",
            "outputs": [
                {
                    "components": [
                        {
                            "internalType": "uint40",
                            "name": "delegate",
                            "type": "uint40"
                        },
                        {
                            "internalType": "uint64",
                            "name": "weight",
                            "type": "uint64"
                        },
                        {
                            "internalType": "uint64",
                            "name": "repWeight",
                            "type": "uint64"
                        },
                        {
                            "internalType": "uint32",
                            "name": "repHead",
                            "type": "uint32"
                        },
                        {
                            "internalType": "uint40[]",
                            "name": "principals",
                            "type": "uint40[]"
                        }
                    ],
                    "internalType": "struct DelegateMap.Voter",
                    "name": "",
                    "type": "tuple"
                }
            ],
            "stateMutability": "view",
            "type": "function"
        },
        {
            "inputs": [
                {
                    "internalType": "bytes32",
                    "name": "role",
                    "type": "bytes32"
                },
                {
                    "internalType": "uint256",
                    "name": "acct",
                    "type": "uint256"
                }
            ],
            "name": "grantRole",
            "outputs": [],
            "stateMutability": "nonpayable",
            "type": "function"
        },
        {
            "inputs": [
                {
                    "internalType": "uint256",
                    "name": "acct",
                    "type": "uint256"
                },
                {
                    "internalType": "uint256",
                    "name": "seqOfPos",
                    "type": "uint256"
                }
            ],
            "name": "hasPosition",
            "outputs": [
                {
                    "internalType": "bool",
                    "name": "flag",
                    "type": "bool"
                }
            ],
            "stateMutability": "view",
            "type": "function"
        },
        {
            "inputs": [
                {
                    "internalType": "bytes32",
                    "name": "role",
                    "type": "bytes32"
                },
                {
                    "internalType": "uint256",
                    "name": "acct",
                    "type": "uint256"
                }
            ],
            "name": "hasRole",
            "outputs": [
                {
                    "internalType": "bool",
                    "name": "",
                    "type": "bool"
                }
            ],
            "stateMutability": "view",
            "type": "function"
        },
        {
            "inputs": [
                {
                    "internalType": "uint256",
                    "name": "owner",
                    "type": "uint256"
                },
                {
                    "internalType": "address",
                    "name": "directKeeper",
                    "type": "address"
                },
                {
                    "internalType": "address",
                    "name": "regCenter",
                    "type": "address"
                },
                {
                    "internalType": "address",
                    "name": "generalKeeper",
                    "type": "address"
                }
            ],
            "name": "init",
            "outputs": [],
            "stateMutability": "nonpayable",
            "type": "function"
        },
        {
            "inputs": [
                {
                    "internalType": "uint256",
                    "name": "acct",
                    "type": "uint256"
                }
            ],
            "name": "isDirector",
            "outputs": [
                {
                    "internalType": "bool",
                    "name": "flag",
                    "type": "bool"
                }
            ],
            "stateMutability": "view",
            "type": "function"
        },
        {
            "inputs": [
                {
                    "internalType": "uint256",
                    "name": "seqOfPos",
                    "type": "uint256"
                }
            ],
            "name": "isOccupied",
            "outputs": [
                {
                    "internalType": "bool",
                    "name": "flag",
                    "type": "bool"
                }
            ],
            "stateMutability": "view",
            "type": "function"
        },
        {
            "inputs": [
                {
                    "internalType": "uint256",
                    "name": "acct",
                    "type": "uint256"
                }
            ],
            "name": "isOfficer",
            "outputs": [
                {
                    "internalType": "bool",
                    "name": "",
                    "type": "bool"
                }
            ],
            "stateMutability": "view",
            "type": "function"
        },
        {
            "inputs": [
                {
                    "internalType": "uint256",
                    "name": "seqOfMotion",
                    "type": "uint256"
                }
            ],
            "name": "isPassed",
            "outputs": [
                {
                    "internalType": "bool",
                    "name": "",
                    "type": "bool"
                }
            ],
            "stateMutability": "view",
            "type": "function"
        },
        {
            "inputs": [
                {
                    "internalType": "uint256",
                    "name": "seqOfMotion",
                    "type": "uint256"
                }
            ],
            "name": "isProposed",
            "outputs": [
                {
                    "internalType": "bool",
                    "name": "",
                    "type": "bool"
                }
            ],
            "stateMutability": "view",
            "type": "function"
        },
        {
            "inputs": [
                {
                    "internalType": "uint256",
                    "name": "seqOfMotion",
                    "type": "uint256"
                },
                {
                    "internalType": "uint256",
                    "name": "acct",
                    "type": "uint256"
                }
            ],
            "name": "isVoted",
            "outputs": [
                {
                    "internalType": "bool",
                    "name": "",
                    "type": "bool"
                }
            ],
            "stateMutability": "view",
            "type": "function"
        },
        {
            "inputs": [
                {
                    "internalType": "uint256",
                    "name": "seqOfMotion",
                    "type": "uint256"
                },
                {
                    "internalType": "uint256",
                    "name": "acct",
                    "type": "uint256"
                },
                {
                    "internalType": "uint256",
                    "name": "atti",
                    "type": "uint256"
                }
            ],
            "name": "isVotedFor",
            "outputs": [
                {
                    "internalType": "bool",
                    "name": "",
                    "type": "bool"
                }
            ],
            "stateMutability": "view",
            "type": "function"
        },
        {
            "inputs": [],
            "name": "lockContents",
            "outputs": [],
            "stateMutability": "nonpayable",
            "type": "function"
        },
        {
            "inputs": [
                {
                    "internalType": "uint256",
                    "name": "seqOfPos",
                    "type": "uint256"
                },
                {
                    "internalType": "uint256",
                    "name": "seqOfVR",
                    "type": "uint256"
                },
                {
                    "internalType": "uint256",
                    "name": "candidate",
                    "type": "uint256"
                },
                {
                    "internalType": "uint256",
                    "name": "nominator",
                    "type": "uint256"
                }
            ],
            "name": "nominateOfficer",
            "outputs": [
                {
                    "internalType": "uint64",
                    "name": "",
                    "type": "uint64"
                }
            ],
            "stateMutability": "nonpayable",
            "type": "function"
        },
        {
            "inputs": [
                {
                    "internalType": "uint256",
                    "name": "seqOfPos",
                    "type": "uint256"
                }
            ],
            "name": "posExist",
            "outputs": [
                {
                    "internalType": "bool",
                    "name": "flag",
                    "type": "bool"
                }
            ],
            "stateMutability": "view",
            "type": "function"
        },
        {
            "inputs": [
                {
                    "internalType": "uint256",
                    "name": "seqOfVR",
                    "type": "uint256"
                },
                {
                    "internalType": "address[]",
                    "name": "targets",
                    "type": "address[]"
                },
                {
                    "internalType": "uint256[]",
                    "name": "values",
                    "type": "uint256[]"
                },
                {
                    "internalType": "bytes[]",
                    "name": "params",
                    "type": "bytes[]"
                },
                {
                    "internalType": "bytes32",
                    "name": "desHash",
                    "type": "bytes32"
                },
                {
                    "internalType": "uint256",
                    "name": "executor",
                    "type": "uint256"
                },
                {
                    "internalType": "uint256",
                    "name": "proposer",
                    "type": "uint256"
                }
            ],
            "name": "proposeAction",
            "outputs": [
                {
                    "internalType": "uint64",
                    "name": "",
                    "type": "uint64"
                }
            ],
            "stateMutability": "nonpayable",
            "type": "function"
        },
        {
            "inputs": [
                {
                    "internalType": "address",
                    "name": "doc",
                    "type": "address"
                },
                {
                    "internalType": "uint256",
                    "name": "seqOfVR",
                    "type": "uint256"
                },
                {
                    "internalType": "uint256",
                    "name": "executor",
                    "type": "uint256"
                },
                {
                    "internalType": "uint256",
                    "name": "proposer",
                    "type": "uint256"
                }
            ],
            "name": "proposeDoc",
            "outputs": [
                {
                    "internalType": "uint64",
                    "name": "",
                    "type": "uint64"
                }
            ],
            "stateMutability": "nonpayable",
            "type": "function"
        },
        {
            "inputs": [
                {
                    "internalType": "uint256",
                    "name": "seqOfMotion",
                    "type": "uint256"
                },
                {
                    "internalType": "uint256",
                    "name": "proposer",
                    "type": "uint256"
                }
            ],
            "name": "proposeMotion",
            "outputs": [],
            "stateMutability": "nonpayable",
            "type": "function"
        },
        {
            "inputs": [
                {
                    "internalType": "uint256",
                    "name": "seqOfPos",
                    "type": "uint256"
                },
                {
                    "internalType": "uint256",
                    "name": "seqOfVR",
                    "type": "uint256"
                },
                {
                    "internalType": "uint256",
                    "name": "nominator",
                    "type": "uint256"
                }
            ],
            "name": "proposeToRemoveOfficer",
            "outputs": [
                {
                    "internalType": "uint64",
                    "name": "",
                    "type": "uint64"
                }
            ],
            "stateMutability": "nonpayable",
            "type": "function"
        },
        {
            "inputs": [
                {
                    "internalType": "uint256",
                    "name": "seqOfPos",
                    "type": "uint256"
                },
                {
                    "internalType": "uint256",
                    "name": "caller",
                    "type": "uint256"
                }
            ],
            "name": "quitPosition",
            "outputs": [],
            "stateMutability": "nonpayable",
            "type": "function"
        },
        {
            "inputs": [
                {
                    "internalType": "address",
                    "name": "target",
                    "type": "address"
                }
            ],
            "name": "removeDirectKeeper",
            "outputs": [],
            "stateMutability": "nonpayable",
            "type": "function"
        },
        {
            "inputs": [
                {
                    "internalType": "uint256",
                    "name": "seqOfMotion",
                    "type": "uint256"
                },
                {
                    "internalType": "uint256",
                    "name": "seqOfPos",
                    "type": "uint256"
                },
                {
                    "internalType": "uint256",
                    "name": "target",
                    "type": "uint256"
                },
                {
                    "internalType": "uint256",
                    "name": "caller",
                    "type": "uint256"
                }
            ],
            "name": "removeOfficer",
            "outputs": [],
            "stateMutability": "nonpayable",
            "type": "function"
        },
        {
            "inputs": [
                {
                    "internalType": "uint256",
                    "name": "seqOfPos",
                    "type": "uint256"
                }
            ],
            "name": "removePosition",
            "outputs": [],
            "stateMutability": "nonpayable",
            "type": "function"
        },
        {
            "inputs": [
                {
                    "internalType": "bytes32",
                    "name": "role",
                    "type": "bytes32"
                }
            ],
            "name": "renounceRole",
            "outputs": [],
            "stateMutability": "nonpayable",
            "type": "function"
        },
        {
            "inputs": [
                {
                    "internalType": "bytes32",
                    "name": "role",
                    "type": "bytes32"
                },
                {
                    "internalType": "uint256",
                    "name": "acct",
                    "type": "uint256"
                }
            ],
            "name": "revokeRole",
            "outputs": [],
            "stateMutability": "nonpayable",
            "type": "function"
        },
        {
            "inputs": [
                {
                    "internalType": "address",
                    "name": "keeper",
                    "type": "address"
                }
            ],
            "name": "setDirectKeeper",
            "outputs": [],
            "stateMutability": "nonpayable",
            "type": "function"
        },
        {
            "inputs": [
                {
                    "internalType": "uint256",
                    "name": "acct",
                    "type": "uint256"
                }
            ],
            "name": "setGeneralCounsel",
            "outputs": [],
            "stateMutability": "nonpayable",
            "type": "function"
        },
        {
            "inputs": [
                {
                    "internalType": "uint256",
                    "name": "acct",
                    "type": "uint256"
                }
            ],
            "name": "setOwner",
            "outputs": [],
            "stateMutability": "nonpayable",
            "type": "function"
        },
        {
            "inputs": [
                {
                    "internalType": "bytes32",
                    "name": "role",
                    "type": "bytes32"
                },
                {
                    "internalType": "uint256",
                    "name": "acct",
                    "type": "uint256"
                }
            ],
            "name": "setRoleAdmin",
            "outputs": [],
            "stateMutability": "nonpayable",
            "type": "function"
        },
        {
            "inputs": [
                {
                    "internalType": "uint256",
                    "name": "seqOfPos",
                    "type": "uint256"
                },
                {
                    "internalType": "uint256",
                    "name": "caller",
                    "type": "uint256"
                }
            ],
            "name": "takePosition",
            "outputs": [],
            "stateMutability": "nonpayable",
            "type": "function"
        },
        {
            "inputs": [
                {
                    "components": [
                        {
                            "internalType": "uint16",
                            "name": "title",
                            "type": "uint16"
                        },
                        {
                            "internalType": "uint16",
                            "name": "seqOfPos",
                            "type": "uint16"
                        },
                        {
                            "internalType": "uint40",
                            "name": "acct",
                            "type": "uint40"
                        },
                        {
                            "internalType": "uint40",
                            "name": "nominator",
                            "type": "uint40"
                        },
                        {
                            "internalType": "uint48",
                            "name": "startDate",
                            "type": "uint48"
                        },
                        {
                            "internalType": "uint48",
                            "name": "endDate",
                            "type": "uint48"
                        },
                        {
                            "internalType": "uint16",
                            "name": "seqOfVR",
                            "type": "uint16"
                        },
                        {
                            "internalType": "uint16",
                            "name": "para",
                            "type": "uint16"
                        },
                        {
                            "internalType": "uint16",
                            "name": "arg",
                            "type": "uint16"
                        }
                    ],
                    "internalType": "struct OfficersRepo.Position",
                    "name": "pos",
                    "type": "tuple"
                }
            ],
            "name": "updatePosition",
            "outputs": [],
            "stateMutability": "nonpayable",
            "type": "function"
        },
        {
            "inputs": [
                {
                    "internalType": "uint256",
                    "name": "seqOfMotion",
                    "type": "uint256"
                },
                {
                    "components": [
                        {
                            "internalType": "uint64",
                            "name": "totalHead",
                            "type": "uint64"
                        },
                        {
                            "internalType": "uint64",
                            "name": "totalWeight",
                            "type": "uint64"
                        },
                        {
                            "internalType": "uint64",
                            "name": "supportHead",
                            "type": "uint64"
                        },
                        {
                            "internalType": "uint64",
                            "name": "supportWeight",
                            "type": "uint64"
                        }
                    ],
                    "internalType": "struct MotionsRepo.VoteCalBase",
                    "name": "base",
                    "type": "tuple"
                }
            ],
            "name": "voteCounting",
            "outputs": [
                {
                    "internalType": "uint8",
                    "name": "result",
                    "type": "uint8"
                }
            ],
            "stateMutability": "nonpayable",
            "type": "function"
        },
        {
            "inputs": [
                {
                    "internalType": "uint256",
                    "name": "seqOfMotion",
                    "type": "uint256"
                }
            ],
            "name": "voteEnded",
            "outputs": [
                {
                    "internalType": "bool",
                    "name": "",
                    "type": "bool"
                }
            ],
            "stateMutability": "view",
            "type": "function"
        },
        {
            "inputs": [
                {
                    "internalType": "uint256",
                    "name": "seqOfMotion",
                    "type": "uint256"
                }
            ],
            "name": "voteStarted",
            "outputs": [
                {
                    "internalType": "bool",
                    "name": "",
                    "type": "bool"
                }
            ],
            "stateMutability": "view",
            "type": "function"
        }
    ],
    "bytecode": "608060405234801561001057600080fd5b506160fe80620000216000396000f3fe608060405234801561001057600080fd5b50600436106103af5760003560e01c80637e063c5a116101f4578063ad15aad21161011a578063cd43b165116100ad578063eb02c3011161007c578063eb02c301146108cc578063ec2fbbff146108ec578063ed211023146108ff578063f045a7691461091f57600080fd5b8063cd43b1651461088b578063d5ae463a1461089e578063dc890da9146108a6578063ea56efc6146108b957600080fd5b8063bbfd607d116100e9578063bbfd607d1461083f578063c046742214610852578063c1416b0c14610865578063c41f49b01461087857600080fd5b8063ad15aad2146107f0578063af3cc2d814610810578063b3f05b9714610818578063b43a401d1461082c57600080fd5b80638bb9c5bf116101925780639a51cdfc116101615780639a51cdfc14610792578063a0743e71146107a5578063a1e1d621146107ca578063a8780799146107dd57600080fd5b80638bb9c5bf146107465780639258effe14610759578063931a675a1461076c5780639371bd1e1461077f57600080fd5b80638041494e116101ce5780638041494e1461071057806388125cf714610723578063893d20e8146107365780638988c0cf1461073e57600080fd5b80637e063c5a146106d55780637f1c7d61146106e85780637f3e404a146106fb57600080fd5b80634f6413ac116102d957806361df743f116102775780636be8496f116102465780636be8496f1461067a5780636ed7e0391461068d5780636f51df87146106ad5780637cd699f3146106c057600080fd5b806361df743f1461062c57806365a47e811461064c578063695b2f601461065f5780636998d28d1461066757600080fd5b8063590022aa116102b3578063590022aa146105e057806359269f82146105f35780635c2753bf146106065780635d7ad88f1461061957600080fd5b80634f6413ac146105a75780635171ebd4146105ba578063585aebc6146105cd57600080fd5b806319d61ad9116103515780632d3eaa40116103205780632d3eaa401461054b5780633da9a6001461055e57806349403183146105715780634a14beb11461059457600080fd5b806319d61ad9146104ff5780631ad1ea44146105125780631b6ea9f9146105255780632700b4cc1461053857600080fd5b8063102e69601161038d578063102e69601461048d578063103f6edd146104ae578063165dd5ec146104cc578063171c5c04146104ec57600080fd5b8063096f3abe146103b45780630d358757146103c95780630e6d37cc14610462575b600080fd5b6103c76103c2366004614697565b610927565b005b6103dc6103d7366004614697565b61110f565b6040516104599190600060e08201905064ffffffffff835116825260ff602084015116602083015263ffffffff604084015116604083015260608301516001600160401b03808216606085015265ffffffffffff60808601511660808501528060a08601511660a0850152505060c083015160c083015292915050565b60405180910390f35b610475610470366004614840565b6111dd565b6040516001600160401b039091168152602001610459565b6104a061049b3660046148f3565b6113cd565b604051908152602001610459565b6104b661145b565b60405164ffffffffff9091168152602001610459565b6104df6104da366004614697565b6114e7565b604051610459919061490c565b6103c76104fa3660046148f3565b611593565b6103c761050d366004614697565b611752565b6103c7610520366004614697565b6117e4565b6103c7610533366004614697565b611952565b6103c7610546366004614981565b611978565b6103c7610559366004614a37565b611bbc565b6103c761056c3660046148f3565b611d8c565b61058461057f3660046148f3565b611e17565b6040519015158152602001610459565b6103c76105a23660046148f3565b611ea4565b6104756105b5366004614a63565b612102565b6103c76105c8366004614697565b6121ea565b6103c76105db366004614a63565b612210565b6104a06105ee3660046148f3565b61239e565b6105846106013660046148f3565b6123e0565b6103c7610614366004614c10565b612421565b6103c7610627366004614d1c565b612656565b61063f61063a366004614697565b61278f565b6040516104599190614d39565b61047561065a366004614a37565b61284c565b6104a0612934565b6103c7610675366004614697565b6129bb565b6103c7610688366004614d1c565b612ba9565b6106a061069b3660046148f3565b612c5b565b6040516104599190614e02565b6105846106bb3660046148f3565b612cec565b6106c8612d2e565b6040516104599190614eca565b6105846106e3366004614697565b612db8565b6106c86106f63660046148f3565b612e4d565b610703612ede565b6040516104599190614f19565b6103c761071e3660046148f3565b612f68565b6103c7610731366004614f51565b613021565b6104b66131bc565b6106a06131f7565b6103c76107543660046148f3565b613282565b6105846107673660046148f3565b6132a7565b61058461077a366004614697565b6132e9565b61058461078d366004614a37565b613332565b6104a06107a0366004614697565b6133d4565b6107b86107b3366004614f9a565b613467565b60405160ff9091168152602001610459565b6105846107d83660046148f3565b613609565b6103c76107eb366004614a63565b61364a565b6108036107fe3660046148f3565b6137ca565b60405161045991906151ee565b6106a061385c565b60028054600160f01b900460ff1614610584565b61058461083a3660046148f3565b613897565b61047561084d366004614c10565b6138d8565b6103c76108603660046148f3565b6139d5565b6105846108733660046148f3565b613bba565b610475610886366004615295565b613bfc565b6104756108993660046152d6565b613cae565b6104a0613d95565b6103c76108b4366004615311565b613dd0565b6105846108c7366004614697565b613eb2565b6108df6108da3660046148f3565b613efa565b6040516104599190615359565b6105846108fa3660046148f3565b613fca565b61090761400c565b6040516001600160a01b039091168152602001610459565b6103c7614092565b604051633b11adbf60e21b815273__$364aad554dc80380f414546becdd2c1584$__9063ec46b6fc90610961906002903390600401615368565b60206040518083038186803b15801561097957600080fd5b505af415801561098d573d6000803e3d6000fd5b505050506040513d601f19601f820116820180604052508101906109b1919061538f565b6109d65760405162461bcd60e51b81526004016109cd906153aa565b60405180910390fd5b600060046000016000848152602001908152602001600020604051806080016040529081600082016040518060e00160405290816000820160009054906101000a900461ffff1661ffff1661ffff1681526020016000820160029054906101000a90046001600160401b03166001600160401b03166001600160401b0316815260200160008201600a9054906101000a900461ffff1661ffff1661ffff16815260200160008201600c9054906101000a900464ffffffffff1664ffffffffff1664ffffffffff1681526020016000820160119054906101000a900464ffffffffff1664ffffffffff1664ffffffffff1681526020016000820160169054906101000a900465ffffffffffff1665ffffffffffff1665ffffffffffff16815260200160008201601c9054906101000a900463ffffffff1663ffffffff1663ffffffff16815250508152602001600182016040518060e00160405290816000820160009054906101000a900464ffffffffff1664ffffffffff1664ffffffffff1681526020016000820160059054906101000a900465ffffffffffff1665ffffffffffff1665ffffffffffff16815260200160008201600b9054906101000a900465ffffffffffff1665ffffffffffff1665ffffffffffff1681526020016000820160119054906101000a900465ffffffffffff1665ffffffffffff1665ffffffffffff1681526020016000820160179054906101000a900465ffffffffffff1665ffffffffffff1665ffffffffffff16815260200160008201601d9054906101000a900461ffff1661ffff1661ffff16815260200160008201601f9054906101000a900460ff1660ff1660ff1681525050815260200160028201604051806102400160405290816000820160009054906101000a900461ffff1661ffff1661ffff1681526020016000820160029054906101000a900460ff1660ff1660ff1681526020016000820160039054906101000a900460ff1660ff1660ff1681526020016000820160049054906101000a900461ffff1661ffff1661ffff1681526020016000820160069054906101000a900461ffff1661ffff1661ffff1681526020016000820160089054906101000a900461ffff1661ffff1661ffff16815260200160008201600a9054906101000a900460ff1615151515815260200160008201600b9054906101000a900460ff1615151515815260200160008201600c9054906101000a900460ff1615151515815260200160008201600d9054906101000a900460ff1615151515815260200160008201600e9054906101000a900460ff1660ff1660ff16815260200160008201600f9054906101000a900460ff1660ff1660ff1681526020016000820160109054906101000a900460ff1660ff1660ff1681526020016000820160119054906101000a900460ff1660ff1660ff1681526020016000820160129054906101000a900460ff1660ff1660ff1681526020016000820160139054906101000a900460ff1660ff1660ff16815260200160018201600280602002604051908101604052809291908260028015610e99576020028201916000905b82829054906101000a900464ffffffffff1664ffffffffff1681526020019060050190602082600401049283019260010382029150808411610e5a5790505b50505091835250506002919091015461ffff166020918201529082526005929092015490820152600154604080516314c35b8560e31b815290519394506000936001600160a01b039092169263a61adc2892600480840193829003018186803b158015610f0557600080fd5b505afa158015610f19573d6000803e3d6000fd5b505050506040513d601f19601f82011682018060405250810190610f3d91906153f0565b82516040908101519051634846203760e01b815261ffff90911660048201526001600160a01b03919091169063484620379060240160206040518083038186803b158015610f8a57600080fd5b505afa158015610f9e573d6000803e3d6000fd5b505050506040513d601f19601f82011682018060405250810190610fc2919061540d565b604051634281ec6b60e11b8152600481019190915273__$9d2c69e94fee47b9774dc8db4aa5c0bbec$__90638503d8d6906024016102606040518083038186803b15801561100f57600080fd5b505af4158015611023573d6000803e3d6000fd5b505050506040513d601f19601f820116820180604052508101906110479190615620565b60405163fe3aba2760e01b815290915073__$c69e6785922941bfe0f11afdbfcce85492$__9063fe3aba279061108790600490889086908990840161563d565b60e06040518083038186803b15801561109f57600080fd5b505af41580156110b3573d6000803e3d6000fd5b505050506040513d601f19601f820116820180604052508101906110d7919061586d565b6020830152604051839085907f2eed72fdf855f1461258147d82bc92c0cec2d5d72f85c0471ce349f51b37d95d90600090a350505050565b6040805160e081018252600080825260208201819052818301819052606082018190526080820181905260a0820181905260c08201529051635eeb98eb60e01b8152600480820152602481018490526044810183905273__$c69e6785922941bfe0f11afdbfcce85492$__90635eeb98eb9060640160e06040518083038186803b15801561119c57600080fd5b505af41580156111b0573d6000803e3d6000fd5b505050506040513d601f19601f820116820180604052508101906111d49190615894565b90505b92915050565b604051633b11adbf60e21b815260009073__$364aad554dc80380f414546becdd2c1584$__9063ec46b6fc9061121a906002903390600401615368565b60206040518083038186803b15801561123257600080fd5b505af4158015611246573d6000803e3d6000fd5b505050506040513d601f19601f8201168201806040525081019061126a919061538f565b6112865760405162461bcd60e51b81526004016109cd906153aa565b60405163a64ee9bd60e01b815273__$c69e6785922941bfe0f11afdbfcce85492$__9063a64ee9bd906112c190600490879087908301615947565b60e06040518083038186803b1580156112d957600080fd5b505af41580156112ed573d6000803e3d6000fd5b505050506040513d601f19601f820116820180604052508101906113119190615a01565b92508173__$c69e6785922941bfe0f11afdbfcce85492$__63f138788e856040518263ffffffff1660e01b815260040161134b9190615a1d565b60206040518083038186803b15801561136357600080fd5b505af4158015611377573d6000803e3d6000fd5b505050506040513d601f19601f8201168201806040525081019061139b919061540d565b6040517f3ac733a5e01b133fe59ace4c20e40ab1916d571ff364ec4819dc2951be83642e90600090a350506020015190565b604051630c6fabf960e01b8152600860048201526024810182905260009073__$7a4ed30ec9e2427a80f3902cbd8b50441b$__90630c6fabf9906044015b60206040518083038186803b15801561142357600080fd5b505af4158015611437573d6000803e3d6000fd5b505050506040513d601f19601f820116820180604052508101906111d7919061540d565b60405163e8c0cc1d60e01b81526002600482015260009073__$364aad554dc80380f414546becdd2c1584$__9063e8c0cc1d906024015b60206040518083038186803b1580156114aa57600080fd5b505af41580156114be573d6000803e3d6000fd5b505050506040513d601f19601f820116820180604052508101906114e29190615a2b565b905090565b6040805160608082018352600080835260208301528183015290516341335f3560e01b8152600480820152602481018490526044810183905273__$c69e6785922941bfe0f11afdbfcce85492$__906341335f359060640160006040518083038186803b15801561155757600080fd5b505af415801561156b573d6000803e3d6000fd5b505050506040513d6000823e601f3d908101601f191682016040526111d49190810190615aa3565b604051633b11adbf60e21b815273__$364aad554dc80380f414546becdd2c1584$__9063ec46b6fc906115cd906002903390600401615368565b60206040518083038186803b1580156115e557600080fd5b505af41580156115f9573d6000803e3d6000fd5b505050506040513d601f19601f8201168201806040525081019061161d919061538f565b8061169e57506001546040516335d2155560e11b81523360048201526001600160a01b0390911690636ba42aaa9060240160206040518083038186803b15801561166657600080fd5b505afa15801561167a573d6000803e3d6000fd5b505050506040513d601f19601f8201168201806040525081019061169e919061538f565b6116ba5760405162461bcd60e51b81526004016109cd90615b4b565b604051631cfcf5bb60e01b8152600860048201526024810182905273__$7a4ed30ec9e2427a80f3902cbd8b50441b$__90631cfcf5bb9060440160006040518083038186803b15801561170c57600080fd5b505af4158015611720573d6000803e3d6000fd5b50506040518392507f40e1f721dc027d7b46727280f238c5329a60edf78761142a44e0079a184038b29150600090a250565b73__$364aad554dc80380f414546becdd2c1584$__6382daafaa600284846117786142d6565b6040516001600160e01b031960e087901b16815260048101949094526024840192909252604483015264ffffffffff16606482015260840160006040518083038186803b1580156117c857600080fd5b505af41580156117dc573d6000803e3d6000fd5b505050505050565b604051633b11adbf60e21b815273__$364aad554dc80380f414546becdd2c1584$__9063ec46b6fc9061181e906002903390600401615368565b60206040518083038186803b15801561183657600080fd5b505af415801561184a573d6000803e3d6000fd5b505050506040513d601f19601f8201168201806040525081019061186e919061538f565b61188a5760405162461bcd60e51b81526004016109cd906153aa565b604051630f6aaa3d60e31b815260086004820152602481018390526044810182905273__$7a4ed30ec9e2427a80f3902cbd8b50441b$__90637b5551e89060640160206040518083038186803b1580156118e357600080fd5b505af41580156118f7573d6000803e3d6000fd5b505050506040513d601f19601f8201168201806040525081019061191b919061538f565b1561194e57604051819083907f8df12027acaa8fd5048ef73602c642f80b2ed947f5e5a493497dc4cfa4de00c990600090a35b5050565b73__$364aad554dc80380f414546becdd2c1584$__636320d75e600284846117786142d6565b604051633b11adbf60e21b815273__$364aad554dc80380f414546becdd2c1584$__9063ec46b6fc906119b2906002903390600401615368565b60206040518083038186803b1580156119ca57600080fd5b505af41580156119de573d6000803e3d6000fd5b505050506040513d601f19601f82011682018060405250810190611a02919061538f565b80611a8357506001546040516335d2155560e11b81523360048201526001600160a01b0390911690636ba42aaa9060240160206040518083038186803b158015611a4b57600080fd5b505afa158015611a5f573d6000803e3d6000fd5b505050506040513d601f19601f82011682018060405250810190611a83919061538f565b611a9f5760405162461bcd60e51b81526004016109cd90615b4b565b60405163a96535f760e01b815273__$7a4ed30ec9e2427a80f3902cbd8b50441b$__9063a96535f790611ad9906008908590600401615b76565b60006040518083038186803b158015611af157600080fd5b505af4158015611b05573d6000803e3d6000fd5b50506040516307adc09360e11b815273__$7a4ed30ec9e2427a80f3902cbd8b50441b$__9250630f5b81269150611b40908490600401615359565b60206040518083038186803b158015611b5857600080fd5b505af4158015611b6c573d6000803e3d6000fd5b505050506040513d601f19601f82011682018060405250810190611b90919061540d565b6040517f40e1f721dc027d7b46727280f238c5329a60edf78761142a44e0079a184038b290600090a250565b604051633b11adbf60e21b815273__$364aad554dc80380f414546becdd2c1584$__9063ec46b6fc90611bf6906002903390600401615368565b60206040518083038186803b158015611c0e57600080fd5b505af4158015611c22573d6000803e3d6000fd5b505050506040513d601f19601f82011682018060405250810190611c46919061538f565b80611cc757506001546040516335d2155560e11b81523360048201526001600160a01b0390911690636ba42aaa9060240160206040518083038186803b158015611c8f57600080fd5b505afa158015611ca3573d6000803e3d6000fd5b505050506040513d601f19601f82011682018060405250810190611cc7919061538f565b611ce35760405162461bcd60e51b81526004016109cd90615b4b565b604051630aa0aacd60e11b815260048082015260248101849052604481018390526064810182905273__$c69e6785922941bfe0f11afdbfcce85492$__90631541559a9060840160006040518083038186803b158015611d4257600080fd5b505af4158015611d56573d6000803e3d6000fd5b50506040518392508591507fae42f3be1ee887ec3af249092d8ce9d9a13ac3c2a8e40639341a77ac2e012de390600090a3505050565b73__$364aad554dc80380f414546becdd2c1584$__63c51b295f600283611db16142d6565b6040516001600160e01b031960e086901b1681526004810193909352602483019190915264ffffffffff16604482015260640160006040518083038186803b158015611dfc57600080fd5b505af4158015611e10573d6000803e3d6000fd5b5050505050565b604051631d62ca6b60e11b81526004808201526024810182905260009073__$c69e6785922941bfe0f11afdbfcce85492$__90633ac594d6906044015b60206040518083038186803b158015611e6c57600080fd5b505af4158015611e80573d6000803e3d6000fd5b505050506040513d601f19601f820116820180604052508101906111d7919061538f565b604051633b11adbf60e21b815273__$364aad554dc80380f414546becdd2c1584$__9063ec46b6fc90611ede906002903390600401615368565b60206040518083038186803b158015611ef657600080fd5b505af4158015611f0a573d6000803e3d6000fd5b505050506040513d601f19601f82011682018060405250810190611f2e919061538f565b80611fd3575073__$364aad554dc80380f414546becdd2c1584$__63fe2710866002611f586142d6565b6040516001600160e01b031960e085901b168152600481019290925264ffffffffff16602482015260440160206040518083038186803b158015611f9b57600080fd5b505af4158015611faf573d6000803e3d6000fd5b505050506040513d601f19601f82011682018060405250810190611fd3919061538f565b61203e5760405162461bcd60e51b815260206004820152603660248201527f41432e6f776e65724f72446972656374426f6f6b65657065723a206e6569746860448201527532b91037bbb732b9103737b9103137b7b5b2b2b832b960511b60648201526084016109cd565b73__$364aad554dc80380f414546becdd2c1584$__639b4510de6002836120636142d6565b6040516001600160e01b031960e086901b1681526004810193909352602483019190915264ffffffffff16604482015260640160006040518083038186803b1580156120ae57600080fd5b505af41580156120c2573d6000803e3d6000fd5b505050507ff2735f34b69be1e6342dea95f9162f84d0db925fab655ca9f1f312ac8cbfc99d816040516120f791815260200190565b60405180910390a150565b604051633b11adbf60e21b815260009073__$364aad554dc80380f414546becdd2c1584$__9063ec46b6fc9061213f906002903390600401615368565b60206040518083038186803b15801561215757600080fd5b505af415801561216b573d6000803e3d6000fd5b505050506040513d601f19601f8201168201806040525081019061218f919061538f565b6121ab5760405162461bcd60e51b81526004016109cd906153aa565b6121b3614539565b6001815261ffff8516604082015264ffffffffff8381166060830152841660808201526121e081876111dd565b9695505050505050565b73__$364aad554dc80380f414546becdd2c1584$__63ee98b313600284846117786142d6565b604051633b11adbf60e21b815273__$364aad554dc80380f414546becdd2c1584$__9063ec46b6fc9061224a906002903390600401615368565b60206040518083038186803b15801561226257600080fd5b505af4158015612276573d6000803e3d6000fd5b505050506040513d601f19601f8201168201806040525081019061229a919061538f565b6122b65760405162461bcd60e51b81526004016109cd906153aa565b6040516350a1179960e01b81526004808201526024810185905260448101849052606481018390526084810182905273__$c69e6785922941bfe0f11afdbfcce85492$__906350a117999060a40160206040518083038186803b15801561231c57600080fd5b505af4158015612330573d6000803e3d6000fd5b505050506040513d601f19601f82011682018060405250810190612354919061538f565b50604080518481526020810184905290810182905284907f3e23c378c06ec59e11c122258c99a9ada1318ed2d864c4eee514bcd853151f2f9060600160405180910390a250505050565b60405163735f272760e11b8152600860048201526024810182905260009073__$7a4ed30ec9e2427a80f3902cbd8b50441b$__9063e6be4e4e9060440161140b565b604051633e9ace7f60e11b81526004808201526024810182905260009073__$c69e6785922941bfe0f11afdbfcce85492$__90637d359cfe90604401611e54565b604051633b11adbf60e21b815273__$364aad554dc80380f414546becdd2c1584$__9063ec46b6fc9061245b906002903390600401615368565b60206040518083038186803b15801561247357600080fd5b505af4158015612487573d6000803e3d6000fd5b505050506040513d601f19601f820116820180604052508101906124ab919061538f565b6124c75760405162461bcd60e51b81526004016109cd906153aa565b604051630363eeeb60e01b81526004808201526024810183905260009073__$c69e6785922941bfe0f11afdbfcce85492$__90630363eeeb906044016104406040518083038186803b15801561251c57600080fd5b505af4158015612530573d6000803e3d6000fd5b505050506040513d601f19601f820116820180604052508101906125549190615b8b565b80515190915061ffff166004146125ad5760405162461bcd60e51b815260206004820152601960248201527f4d4d2e45413a2077726f6e6720747970654f664d6f74696f6e0000000000000060448201526064016109cd565b60006125bc8989898989614330565b90506125c9848285611bbc565b6125d488888861436d565b15612614576040516001815281907f90d27aa223d991b1f5ce114c8bd3a03525a9f3e05799b7b66fb9f431df931f139060200160405180910390a261264b565b6040516000815281907f90d27aa223d991b1f5ce114c8bd3a03525a9f3e05799b7b66fb9f431df931f139060200160405180910390a25b505050505050505050565b604051633b11adbf60e21b815273__$364aad554dc80380f414546becdd2c1584$__9063ec46b6fc90612690906002903390600401615368565b60206040518083038186803b1580156126a857600080fd5b505af41580156126bc573d6000803e3d6000fd5b505050506040513d601f19601f820116820180604052508101906126e0919061538f565b6126fc5760405162461bcd60e51b81526004016109cd906153aa565b604051636be8496f60e01b81523360048201526001600160a01b03821690636be8496f90602401600060405180830381600087803b15801561273d57600080fd5b505af1158015612751573d6000803e3d6000fd5b50506040516001600160a01b03841681527f64dd6e84044f0067086012335dcfab3188db6615b5cc7debf18c9a621ebd5d91925060200190506120f7565b6040805160a081018252600080825260208201819052818301819052606080830191909152608082015290516322576ef960e11b8152600480820152602481018490526044810183905273__$c69e6785922941bfe0f11afdbfcce85492$__906344aeddf29060640160006040518083038186803b15801561281057600080fd5b505af4158015612824573d6000803e3d6000fd5b505050506040513d6000823e601f3d908101601f191682016040526111d49190810190615bea565b604051633b11adbf60e21b815260009073__$364aad554dc80380f414546becdd2c1584$__9063ec46b6fc90612889906002903390600401615368565b60206040518083038186803b1580156128a157600080fd5b505af41580156128b5573d6000803e3d6000fd5b505050506040513d601f19601f820116820180604052508101906128d9919061538f565b6128f55760405162461bcd60e51b81526004016109cd906153aa565b6128fd614539565b6002815261ffff8416604082015264ffffffffff831660608201819052608082015261292981866111dd565b9150505b9392505050565b60405163574ed54360e11b81526008600482015260009073__$7a4ed30ec9e2427a80f3902cbd8b50441b$__9063ae9daa86906024015b60206040518083038186803b15801561298357600080fd5b505af4158015612997573d6000803e3d6000fd5b505050506040513d601f19601f820116820180604052508101906114e2919061540d565b604051633b11adbf60e21b815273__$364aad554dc80380f414546becdd2c1584$__9063ec46b6fc906129f5906002903390600401615368565b60206040518083038186803b158015612a0d57600080fd5b505af4158015612a21573d6000803e3d6000fd5b505050506040513d601f19601f82011682018060405250810190612a45919061538f565b80612ac657506001546040516335d2155560e11b81523360048201526001600160a01b0390911690636ba42aaa9060240160206040518083038186803b158015612a8e57600080fd5b505afa158015612aa2573d6000803e3d6000fd5b505050506040513d601f19601f82011682018060405250810190612ac6919061538f565b612ae25760405162461bcd60e51b81526004016109cd90615b4b565b604051630e8d204f60e21b815260086004820152602481018390526044810182905260009073__$7a4ed30ec9e2427a80f3902cbd8b50441b$__90633a34813c9060640160206040518083038186803b158015612b3e57600080fd5b505af4158015612b52573d6000803e3d6000fd5b505050506040513d601f19601f82011682018060405250810190612b76919061540d565b60405190915081907f6b1bd5dd4ffcc55f7d91178fbadb5f9e2d6a7942ff1535e43d9bf92f4f47e59390600090a2505050565b604051630f07232560e01b8152600260048201526001600160a01b038216602482015233604482015273__$364aad554dc80380f414546becdd2c1584$__90630f0723259060640160006040518083038186803b158015612c0957600080fd5b505af4158015612c1d573d6000803e3d6000fd5b50506040516001600160a01b03841681527fe435cbeab64e4eae6497b9d8289704bd709d624a80704ef3ca9af777534bc6ec925060200190506120f7565b604051636b01b91b60e11b8152600860048201526024810182905260609073__$7a4ed30ec9e2427a80f3902cbd8b50441b$__9063d60372369060440160006040518083038186803b158015612cb057600080fd5b505af4158015612cc4573d6000803e3d6000fd5b505050506040513d6000823e601f3d908101601f191682016040526111d79190810190615d01565b604051634e1deb8b60e01b8152600860048201526024810182905260009073__$7a4ed30ec9e2427a80f3902cbd8b50441b$__90634e1deb8b90604401611e54565b604051635421a02760e01b81526008600482015260609073__$7a4ed30ec9e2427a80f3902cbd8b50441b$__90635421a0279060240160006040518083038186803b158015612d7c57600080fd5b505af4158015612d90573d6000803e3d6000fd5b505050506040513d6000823e601f3d908101601f191682016040526114e29190810190615dec565b604051632a3be56b60e21b815260026004820152602481018390526044810182905260009073__$364aad554dc80380f414546becdd2c1584$__9063a8ef95ac906064015b60206040518083038186803b158015612e1557600080fd5b505af4158015612e29573d6000803e3d6000fd5b505050506040513d601f19601f820116820180604052508101906111d4919061538f565b604051632f4d90f760e01b8152600860048201526024810182905260609073__$7a4ed30ec9e2427a80f3902cbd8b50441b$__90632f4d90f79060440160006040518083038186803b158015612ea257600080fd5b505af4158015612eb6573d6000803e3d6000fd5b505050506040513d6000823e601f3d908101601f191682016040526111d79190810190615dec565b60405163055e32f160e11b81526008600482015260609073__$7a4ed30ec9e2427a80f3902cbd8b50441b$__90630abc65e29060240160006040518083038186803b158015612f2c57600080fd5b505af4158015612f40573d6000803e3d6000fd5b505050506040513d6000823e601f3d908101601f191682016040526114e29190810190615e7a565b73__$364aad554dc80380f414546becdd2c1584$__639b48160c600283612f8d6142d6565b6040516001600160e01b031960e086901b1681526004810193909352602483019190915264ffffffffff16604482015260640160006040518083038186803b158015612fd857600080fd5b505af4158015612fec573d6000803e3d6000fd5b505050507f8b6f40f36b4ae8cc5f55e895036457c43da4ab1f80f58c46f5ff0d72a650033b816040516120f791815260200190565b604051633b11adbf60e21b815273__$364aad554dc80380f414546becdd2c1584$__9063ec46b6fc9061305b906002903390600401615368565b60206040518083038186803b15801561307357600080fd5b505af4158015613087573d6000803e3d6000fd5b505050506040513d601f19601f820116820180604052508101906130ab919061538f565b6130c75760405162461bcd60e51b81526004016109cd906153aa565b604051632ff6d49160e21b8152600480820152602481018690526044810182905260648101859052608481018490526001600160a01b03831660a482015273__$c69e6785922941bfe0f11afdbfcce85492$__9063bfdb52449060c40160206040518083038186803b15801561313c57600080fd5b505af4158015613150573d6000803e3d6000fd5b505050506040513d601f19601f82011682018060405250810190613174919061538f565b15611e10578381867fb965bea85bac4cc500b2313003c13f639d5e21aca4edd1e830b5ce70ea881a50866040516131ad91815260200190565b60405180910390a45050505050565b60405163987ad15360e01b81526002600482015260009073__$364aad554dc80380f414546becdd2c1584$__9063987ad15390602401611492565b6040516307b445ef60e21b81526008600482015260609073__$7a4ed30ec9e2427a80f3902cbd8b50441b$__90631ed117bc906024015b60006040518083038186803b15801561324657600080fd5b505af415801561325a573d6000803e3d6000fd5b505050506040513d6000823e601f3d908101601f191682016040526114e29190810190615d01565b73__$364aad554dc80380f414546becdd2c1584$__63cc0d511b600283611db16142d6565b6040516366e6822360e11b8152600860048201526024810182905260009073__$7a4ed30ec9e2427a80f3902cbd8b50441b$__9063cdcd044690604401611e54565b60405163d7dfe4f560e01b815260086004820152602481018390526044810182905260009073__$7a4ed30ec9e2427a80f3902cbd8b50441b$__9063d7dfe4f590606401612dfd565b6040516305f7f47f60e51b815260048082015260248101849052604481018390526064810182905260009073__$c69e6785922941bfe0f11afdbfcce85492$__9063befe8fe09060840160206040518083038186803b15801561339457600080fd5b505af41580156133a8573d6000803e3d6000fd5b505050506040513d601f19601f820116820180604052508101906133cc919061538f565b949350505050565b6040516378a3d56560e11b8152600480820152602481018390526044810182905260009073__$c69e6785922941bfe0f11afdbfcce85492$__9063f147aaca9060640160206040518083038186803b15801561342f57600080fd5b505af4158015613443573d6000803e3d6000fd5b505050506040513d601f19601f820116820180604052508101906111d4919061540d565b604051633b11adbf60e21b815260009073__$364aad554dc80380f414546becdd2c1584$__9063ec46b6fc906134a4906002903390600401615368565b60206040518083038186803b1580156134bc57600080fd5b505af41580156134d0573d6000803e3d6000fd5b505050506040513d601f19601f820116820180604052508101906134f4919061538f565b6135105760405162461bcd60e51b81526004016109cd906153aa565b60408051633bcc83c360e11b81526004808201526024810185905283516001600160401b0390811660448301526020850151811660648301529184015182166084820152606084015190911660a482015273__$c69e6785922941bfe0f11afdbfcce85492$__9063779907869060c40160206040518083038186803b15801561359857600080fd5b505af41580156135ac573d6000803e3d6000fd5b505050506040513d601f19601f820116820180604052508101906135d09190615f0a565b90508060ff16837f09dabc8247f652d3170a3738595d35365582b55eebeee44e1059d2981852648360405160405180910390a392915050565b60405163cc526e6b60e01b81526004808201526024810182905260009073__$c69e6785922941bfe0f11afdbfcce85492$__9063cc526e6b90604401611e54565b604051633b11adbf60e21b815273__$364aad554dc80380f414546becdd2c1584$__9063ec46b6fc90613684906002903390600401615368565b60206040518083038186803b15801561369c57600080fd5b505af41580156136b0573d6000803e3d6000fd5b505050506040513d601f19601f820116820180604052508101906136d4919061538f565b6136f05760405162461bcd60e51b81526004016109cd906153aa565b604051630f6aaa3d60e31b815260086004820152602481018490526044810183905273__$7a4ed30ec9e2427a80f3902cbd8b50441b$__90637b5551e89060640160206040518083038186803b15801561374957600080fd5b505af415801561375d573d6000803e3d6000fd5b505050506040513d601f19601f82011682018060405250810190613781919061538f565b156137c4576040805183815260208101839052849186917f87b8f479d198217a8c89161520d8294e7e652356dfb1dbd7b5edc487ecf8b41e910160405180910390a35b50505050565b6137d2614575565b604051630363eeeb60e01b81526004808201526024810183905273__$c69e6785922941bfe0f11afdbfcce85492$__90630363eeeb906044016104406040518083038186803b15801561382457600080fd5b505af4158015613838573d6000803e3d6000fd5b505050506040513d601f19601f820116820180604052508101906111d79190615b8b565b604051631e7572ad60e11b81526008600482015260609073__$7a4ed30ec9e2427a80f3902cbd8b50441b$__90633ceae55a9060240161322e565b6040516338d1980760e21b81526004808201526024810182905260009073__$c69e6785922941bfe0f11afdbfcce85492$__9063e346601c90604401611e54565b604051633b11adbf60e21b815260009073__$364aad554dc80380f414546becdd2c1584$__9063ec46b6fc90613915906002903390600401615368565b60206040518083038186803b15801561392d57600080fd5b505af4158015613941573d6000803e3d6000fd5b505050506040513d601f19601f82011682018060405250810190613965919061538f565b6139815760405162461bcd60e51b81526004016109cd906153aa565b613989614539565b6004815261ffff8916604082015264ffffffffff83811660608301528416608082015260006139bb8a8a8a8a8a614330565b90506139c782826111dd565b9a9950505050505050505050565b604051633b11adbf60e21b815273__$364aad554dc80380f414546becdd2c1584$__9063ec46b6fc90613a0f906002903390600401615368565b60206040518083038186803b158015613a2757600080fd5b505af4158015613a3b573d6000803e3d6000fd5b505050506040513d601f19601f82011682018060405250810190613a5f919061538f565b80613ae057506001546040516335d2155560e11b81523360048201526001600160a01b0390911690636ba42aaa9060240160206040518083038186803b158015613aa857600080fd5b505afa158015613abc573d6000803e3d6000fd5b505050506040513d601f19601f82011682018060405250810190613ae0919061538f565b613afc5760405162461bcd60e51b81526004016109cd90615b4b565b6040516329e7cbdf60e01b8152600860048201526024810182905273__$7a4ed30ec9e2427a80f3902cbd8b50441b$__906329e7cbdf9060440160206040518083038186803b158015613b4e57600080fd5b505af4158015613b62573d6000803e3d6000fd5b505050506040513d601f19601f82011682018060405250810190613b86919061538f565b15613bb75760405181907fe8c64f4381287aebaa1af0fc4393402f518289dba624a7bc351a825d332173f290600090a25b50565b604051630186f31360e41b8152600860048201526024810182905260009073__$7a4ed30ec9e2427a80f3902cbd8b50441b$__9063186f313090604401611e54565b6040516307621e5360e01b81526004808201526024810185905260448101849052606481018390526001600160a01b038216608482015260009073__$c69e6785922941bfe0f11afdbfcce85492$__906307621e539060a40160206040518083038186803b158015613c6d57600080fd5b505af4158015613c81573d6000803e3d6000fd5b505050506040513d601f19601f82011682018060405250810190613ca59190615f25565b95945050505050565b604051633b11adbf60e21b815260009073__$364aad554dc80380f414546becdd2c1584$__9063ec46b6fc90613ceb906002903390600401615368565b60206040518083038186803b158015613d0357600080fd5b505af4158015613d17573d6000803e3d6000fd5b505050506040513d601f19601f82011682018060405250810190613d3b919061538f565b613d575760405162461bcd60e51b81526004016109cd906153aa565b613d5f614539565b6003815261ffff8516604082015264ffffffffff8381166060830152841660808201526121e0816001600160a01b0388166111dd565b604051633af572cb60e01b81526008600482015260009073__$7a4ed30ec9e2427a80f3902cbd8b50441b$__90633af572cb9060240161296b565b604051636cdd0edf60e11b815260026004820152602481018590526001600160a01b038416604482015273__$364aad554dc80380f414546becdd2c1584$__9063d9ba1dbe9060640160006040518083038186803b158015613e3157600080fd5b505af4158015613e45573d6000803e3d6000fd5b50505050613e528261444b565b613e5b816144be565b604080518581526001600160a01b038581166020830152848116828401528316606082015290517f3abb2418c66fe32ba9c883030a75ce583971d9af9192b9b74e44e67c5e6c8c1f9181900360800190a150505050565b60405163b34299c960e01b8152600480820152602481018390526044810182905260009073__$c69e6785922941bfe0f11afdbfcce85492$__9063b34299c990606401612dfd565b6040805161012081018252600080825260208201819052818301819052606082018190526080820181905260a0820181905260c0820181905260e08201819052610100820152905163027fbbbb60e21b8152600860048201526024810183905273__$7a4ed30ec9e2427a80f3902cbd8b50441b$__906309feeeec906044016101206040518083038186803b158015613f9257600080fd5b505af4158015613fa6573d6000803e3d6000fd5b505050506040513d601f19601f820116820180604052508101906111d79190615f42565b60405163cd1a58a760e01b8152600860048201526024810182905260009073__$7a4ed30ec9e2427a80f3902cbd8b50441b$__9063cd1a58a790604401611e54565b604051633c3e56c160e11b81526002600482015260009073__$364aad554dc80380f414546becdd2c1584$__9063787cad829060240160206040518083038186803b15801561405a57600080fd5b505af415801561406e573d6000803e3d6000fd5b505050506040513d601f19601f820116820180604052508101906114e291906153f0565b600254600160f01b900460ff166001146140ee5760405162461bcd60e51b815260206004820152601760248201527f41432e4c433a20446f632069732066696e616c697a656400000000000000000060448201526064016109cd565b73__$364aad554dc80380f414546becdd2c1584$__63c51b295f6002684174746f726e65797360b81b61411f6142d6565b6040516001600160e01b031960e086901b1681526004810193909352602483019190915264ffffffffff16604482015260640160006040518083038186803b15801561416a57600080fd5b505af415801561417e573d6000803e3d6000fd5b50505050600273__$364aad554dc80380f414546becdd2c1584$__639b4510de909160006141aa6142d6565b6040516001600160e01b031960e086901b1681526004810193909352602483019190915264ffffffffff16604482015260640160006040518083038186803b1580156141f557600080fd5b505af4158015614209573d6000803e3d6000fd5b50505050600273__$364aad554dc80380f414546becdd2c1584$__639b48160c909160006142356142d6565b6040516001600160e01b031960e086901b1681526004810193909352602483019190915264ffffffffff16604482015260640160006040518083038186803b15801561428057600080fd5b505af4158015614294573d6000803e3d6000fd5b50506002805460ff60f01b1916600160f11b17905550506040517f35012b512309c322acf68632cd6cb702ff0e1d776fbe9394e38ffc13b434fe7590600090a1565b60008054604051636ae3b70d60e11b81523360048201526001600160a01b039091169063d5c76e1a90602401602060405180830381600087803b15801561431c57600080fd5b505af11580156114be573d6000803e3d6000fd5b6000858585858560405160200161434b959493929190615f8b565b60408051601f1981840301815291905280516020909101209695505050505050565b6000805b84518110156144435784818151811061438c5761438c61606d565b60200260200101516001600160a01b03168482815181106143af576143af61606d565b60200260200101518483815181106143c9576143c961606d565b60200260200101516040516143de9190616083565b60006040518083038185875af1925050503d806000811461441b576040519150601f19603f3d011682016040523d82523d6000602084013e614420565b606091505b50508092505081614431575061292d565b8061443b8161609f565b915050614371565b509392505050565b6000546001600160a01b03161561449c5760405162461bcd60e51b815260206004820152601560248201527430b63932b0b23c9039b2ba103932b3a1b2b73a32b960591b60448201526064016109cd565b600080546001600160a01b0319166001600160a01b0392909216919091179055565b6001546001600160a01b0316156145175760405162461bcd60e51b815260206004820152601960248201527f616c7265616479207365742067656e6572616c4b65657065720000000000000060448201526064016109cd565b600180546001600160a01b0319166001600160a01b0392909216919091179055565b6040805160e081018252600080825260208201819052918101829052606081018290526080810182905260a0810182905260c081019190915290565b6040518060800160405280614588614539565b81526040805160e08101825260008082526020828101829052928201819052606082018190526080820181905260a0820181905260c082015291019081526020016145d16145de565b8152602001600081525090565b6040805161024081018252600080825260208201819052918101829052606081018290526080810182905260a0810182905260c0810182905260e08101829052610100810182905261012081018290526101408101829052610160810182905261018081018290526101a081018290526101c081018290526101e0810191909152610200810161466c614679565b8152600060209091015290565b60405180604001604052806002906020820280368337509192915050565b600080604083850312156146aa57600080fd5b50508035926020909101359150565b634e487b7160e01b600052604160045260246000fd5b60405160e081016001600160401b03811182821017156146f1576146f16146b9565b60405290565b60405161012081016001600160401b03811182821017156146f1576146f16146b9565b604051608081016001600160401b03811182821017156146f1576146f16146b9565b60405161024081016001600160401b03811182821017156146f1576146f16146b9565b60405160a081016001600160401b03811182821017156146f1576146f16146b9565b604051601f8201601f191681016001600160401b03811182821017156147a9576147a96146b9565b604052919050565b61ffff81168114613bb757600080fd5b80356147cc816147b1565b919050565b6001600160401b0381168114613bb757600080fd5b64ffffffffff81168114613bb757600080fd5b80356147cc816147e6565b65ffffffffffff81168114613bb757600080fd5b80356147cc81614804565b63ffffffff81168114613bb757600080fd5b80356147cc81614823565b60008082840361010081121561485557600080fd5b60e081121561486357600080fd5b5061486c6146cf565b8335614877816147b1565b81526020840135614887816147d1565b6020820152604084013561489a816147b1565b604082015260608401356148ad816147e6565b60608201526148be608085016147f9565b60808201526148cf60a08501614818565b60a08201526148e060c08501614835565b60c08201529460e0939093013593505050565b60006020828403121561490557600080fd5b5035919050565b600060208083526080830163ffffffff855116828501526001600160401b0382860151166040850152604085015160608086015281815180845260a0870191508483019350600092505b808310156149765783518252928401926001929092019190840190614956565b509695505050505050565b6000610120828403121561499457600080fd5b61499c6146f7565b6149a5836147c1565b81526149b3602084016147c1565b60208201526149c4604084016147f9565b60408201526149d5606084016147f9565b60608201526149e660808401614818565b60808201526149f760a08401614818565b60a0820152614a0860c084016147c1565b60c0820152614a1960e084016147c1565b60e0820152610100614a2c8185016147c1565b908201529392505050565b600080600060608486031215614a4c57600080fd5b505081359360208301359350604090920135919050565b60008060008060808587031215614a7957600080fd5b5050823594602084013594506040840135936060013592509050565b60006001600160401b03821115614aae57614aae6146b9565b5060051b60200190565b6001600160a01b0381168114613bb757600080fd5b600082601f830112614ade57600080fd5b81356020614af3614aee83614a95565b614781565b82815260059290921b84018101918181019086841115614b1257600080fd5b8286015b848110156149765780358352918301918301614b16565b6000601f8381840112614b3f57600080fd5b82356020614b4f614aee83614a95565b82815260059290921b85018101918181019087841115614b6e57600080fd5b8287015b84811015614c045780356001600160401b0380821115614b925760008081fd5b818a0191508a603f830112614ba75760008081fd5b85820135604082821115614bbd57614bbd6146b9565b614bce828b01601f19168901614781565b92508183528c81838601011115614be55760008081fd5b8181850189850137506000908201870152845250918301918301614b72565b50979650505050505050565b600080600080600080600060e0888a031215614c2b57600080fd5b873596506020808901356001600160401b0380821115614c4a57600080fd5b818b0191508b601f830112614c5e57600080fd5b8135614c6c614aee82614a95565b81815260059190911b8301840190848101908e831115614c8b57600080fd5b938501935b82851015614cb2578435614ca381614ab8565b82529385019390850190614c90565b9a50505060408b0135925080831115614cca57600080fd5b614cd68c848d01614acd565b975060608b0135925080831115614cec57600080fd5b5050614cfa8a828b01614b2d565b979a969950949760808101359660a0820135965060c090910135945092505050565b600060208284031215614d2e57600080fd5b813561292d81614ab8565b6000602080835260c0830164ffffffffff8086511683860152828601516001600160401b038082166040880152806040890151166060880152505063ffffffff6060870151166080860152608086015160a08087015282815180855260e0880191508583019450600092505b80831015614c0457845184168252938501936001929092019190850190614da5565b600081518084526020808501945080840160005b83811015614df757815187529582019590820190600101614ddb565b509495945050505050565b6020815260006111d46020830184614dc7565b61ffff8082511683528060208301511660208401525064ffffffffff60408201511660408301526060810151614e54606084018264ffffffffff169052565b506080810151614e6e608084018265ffffffffffff169052565b5060a0810151614e8860a084018265ffffffffffff169052565b5060c0810151614e9e60c084018261ffff169052565b5060e0810151614eb460e084018261ffff169052565b506101008181015161ffff8116848301526137c4565b6020808252825182820181905260009190848201906040850190845b81811015614f0d57614ef9838551614e15565b928401926101209290920191600101614ee6565b50909695505050505050565b6020808252825182820181905260009190848201906040850190845b81811015614f0d57835183529284019291840191600101614f35565b600080600080600060a08688031215614f6957600080fd5b8535945060208601359350604086013592506060860135614f8981614ab8565b949793965091946080013592915050565b60008082840360a0811215614fae57600080fd5b833592506080601f1982011215614fc457600080fd5b50614fcd61471a565b6020840135614fdb816147d1565b81526040840135614feb816147d1565b60208201526060840135614ffe816147d1565b60408201526080840135615011816147d1565b6060820152919491935090915050565b61ffff8082511683526001600160401b03602083015116602084015280604083015116604084015250606081015164ffffffffff8082166060850152806080840151166080850152505065ffffffffffff60a08201511660a083015263ffffffff60c08201511660c08301525050565b8060005b60028110156137c457815164ffffffffff16845260209384019390910190600101615095565b805161ffff16825260208101516150d7602084018260ff169052565b5060408101516150ec604084018260ff169052565b506060810151615102606084018261ffff169052565b506080810151615118608084018261ffff169052565b5060a081015161512e60a084018261ffff169052565b5060c081015161514260c084018215159052565b5060e081015161515660e084018215159052565b5061010081810151151590830152610120808201511515908301526101408082015160ff9081169184019190915261016080830151821690840152610180808301518216908401526101a0808301518216908401526101c0808301518216908401526101e08083015190911690830152610200808201516151d982850182615091565b5050610220015161ffff166102409190910152565b600061044082019050615202828451615021565b602083810151805164ffffffffff1660e08501529081015165ffffffffffff908116610100850152604082015181166101208501526060820151811661014085015260808201511661016084015260a081015161ffff81166101808501525060c0015160ff81166101a08401525060408301516152836101c08401826150bb565b50606083015161042083015292915050565b600080600080608085870312156152ab57600080fd5b84359350602085013592506040850135915060608501356152cb81614ab8565b939692955090935050565b600080600080608085870312156152ec57600080fd5b84356152f781614ab8565b966020860135965060408601359560600135945092505050565b6000806000806080858703121561532757600080fd5b84359350602085013561533981614ab8565b9250604085013561534981614ab8565b915060608501356152cb81614ab8565b61012081016111d78284614e15565b9182526001600160a01b0316602082015260400190565b805180151581146147cc57600080fd5b6000602082840312156153a157600080fd5b6111d48261537f565b60208082526026908201527f41432e6f6e6c794469726563744b65657065723a206e6f74206469726563742060408201526535b2b2b832b960d11b606082015260800190565b60006020828403121561540257600080fd5b815161292d81614ab8565b60006020828403121561541f57600080fd5b5051919050565b80516147cc816147b1565b805160ff811681146147cc57600080fd5b80516147cc816147e6565b600082601f83011261545e57600080fd5b604051604081018181106001600160401b0382111715615480576154806146b9565b806040525080604084018581111561549757600080fd5b845b818110156154ba5780516154ac816147e6565b835260209283019201615499565b509195945050505050565b600061026082840312156154d857600080fd5b6154e061473c565b90506154eb82615426565b81526154f960208301615431565b602082015261550a60408301615431565b604082015261551b60608301615426565b606082015261552c60808301615426565b608082015261553d60a08301615426565b60a082015261554e60c0830161537f565b60c082015261555f60e0830161537f565b60e082015261010061557281840161537f565b9082015261012061558483820161537f565b90820152610140615596838201615431565b908201526101606155a8838201615431565b908201526101806155ba838201615431565b908201526101a06155cc838201615431565b908201526101c06155de838201615431565b908201526101e06155f0838201615431565b908201526102006156038484830161544d565b908201526156146102408301615426565b61022082015292915050565b6000610260828403121561563357600080fd5b6111d483836154c5565b84815260208101849052825161ffff1660408201526102c08101602084015160ff8116606084015250604084015160ff8116608084015250606084015161ffff811660a084015250608084015161ffff811660c08401525060a084015161ffff811660e08401525060c08401516101006156ba8185018315159052565b60e086015191506101206156d18186018415159052565b908601519150610140906156e88583018415159052565b86015191506101606156fd8582018415159052565b908601519150610180906157158583018460ff169052565b86015191506101a061572b8582018460ff169052565b9086015191506101c0906157438583018460ff169052565b86015191506101e06157598582018460ff169052565b908601519150610200906157718583018460ff169052565b86015191506102206157878582018460ff169052565b81870151925061579b610240860184615091565b86015161ffff811661028086015291506157b29050565b50826102a083015295945050505050565b80516147cc81614804565b600060e082840312156157e057600080fd5b6157e86146cf565b905081516157f5816147e6565b8152602082015161580581614804565b6020820152604082015161581881614804565b6040820152606082015161582b81614804565b6060820152608082015161583e81614804565b608082015260a0820151615851816147b1565b60a082015261586260c08301615431565b60c082015292915050565b600060e0828403121561587f57600080fd5b6111d483836157ce565b80516147cc816147d1565b600060e082840312156158a657600080fd5b60405160e081018181106001600160401b03821117156158c8576158c86146b9565b60405282516158d6816147e6565b81526158e460208401615431565b602082015260408301516158f781614823565b6040820152606083015161590a816147d1565b6060820152608083015161591d81614804565b608082015261592e60a08401615889565b60a082015260c083015160c08201528091505092915050565b838152610120810161595c6020830185615021565b82610100830152949350505050565b600060e0828403121561597d57600080fd5b6159856146cf565b90508151615992816147b1565b815260208201516159a2816147d1565b602082015260408201516159b5816147b1565b604082015260608201516159c8816147e6565b606082015260808201516159db816147e6565b608082015260a08201516159ee81614804565b60a082015260c082015161586281614823565b600060e08284031215615a1357600080fd5b6111d4838361596b565b60e081016111d78284615021565b600060208284031215615a3d57600080fd5b815161292d816147e6565b600082601f830112615a5957600080fd5b81516020615a69614aee83614a95565b82815260059290921b84018101918181019086841115615a8857600080fd5b8286015b848110156149765780518352918301918301615a8c565b600060208284031215615ab557600080fd5b81516001600160401b0380821115615acc57600080fd5b9083019060608286031215615ae057600080fd5b604051606081018181108382111715615afb57615afb6146b9565b6040528251615b0981614823565b81526020830151615b19816147d1565b6020820152604083015182811115615b3057600080fd5b615b3c87828601615a48565b60408301525095945050505050565b60208082526011908201527020a19737b59d103737ba1025b2b2b832b960791b604082015260600190565b828152610140810161292d6020830184614e15565b60006104408284031215615b9e57600080fd5b615ba661471a565b615bb0848461596b565b8152615bbf8460e085016157ce565b6020820152615bd2846101c085016154c5565b60408201526104209290920151606083015250919050565b60006020808385031215615bfd57600080fd5b82516001600160401b0380821115615c1457600080fd5b9084019060a08287031215615c2857600080fd5b615c3061475f565b8251615c3b816147e6565b815282840151615c4a816147d1565b818501526040830151615c5c816147d1565b60408201526060830151615c6f81614823565b6060820152608083015182811115615c8657600080fd5b80840193505086601f840112615c9b57600080fd5b82519150615cab614aee83614a95565b82815260059290921b83018401918481019088841115615cca57600080fd5b938501935b83851015615cf1578451615ce2816147e6565b82529385019390850190615ccf565b6080830152509695505050505050565b600060208284031215615d1357600080fd5b81516001600160401b03811115615d2957600080fd5b6133cc84828501615a48565b60006101208284031215615d4857600080fd5b615d506146f7565b9050615d5b82615426565b8152615d6960208301615426565b6020820152615d7a60408301615442565b6040820152615d8b60608301615442565b6060820152615d9c608083016157c3565b6080820152615dad60a083016157c3565b60a0820152615dbe60c08301615426565b60c0820152615dcf60e08301615426565b60e0820152610100615de2818401615426565b9082015292915050565b60006020808385031215615dff57600080fd5b82516001600160401b03811115615e1557600080fd5b8301601f81018513615e2657600080fd5b8051615e34614aee82614a95565b8181526101209182028301840191848201919088841115615e5457600080fd5b938501935b83851015614c0457615e6b8986615d35565b83529384019391850191615e59565b60006020808385031215615e8d57600080fd5b82516001600160401b03811115615ea357600080fd5b8301601f81018513615eb457600080fd5b8051615ec2614aee82614a95565b81815260059190911b82018301908381019087831115615ee157600080fd5b928401925b82841015615eff57835182529284019290840190615ee6565b979650505050505050565b600060208284031215615f1c57600080fd5b6111d482615431565b600060208284031215615f3757600080fd5b815161292d816147d1565b60006101208284031215615f5557600080fd5b6111d48383615d35565b60005b83811015615f7a578181015183820152602001615f62565b838111156137c45750506000910152565b600060a08201878352602060a08185015281885180845260c086019150828a01935060005b81811015615fd55784516001600160a01b031683529383019391830191600101615fb0565b50508481036040860152615fe98189614dc7565b92505083820360608501528186518084528284019150828160051b85010183890160005b8381101561605357601f198088850301865282518051808652616035818a88018b8501615f5f565b96880196601f0190911693909301860192509085019060010161600d565b505080955050505050508260808301529695505050505050565b634e487b7160e01b600052603260045260246000fd5b60008251616095818460208701615f5f565b9190910192915050565b60006000198214156160c157634e487b7160e01b600052601160045260246000fd5b506001019056fea264697066735822122003a2dc4a02cc86e88bff5f199775ae5316db7c1c24d146c7b18d8d2cbf4c435d64736f6c63430008080033",
    "sourcePath": "/Users/kaptain/github.com/hardhat/comboox/contracts/books/bod/BookOfDirectors.sol",
    "compiler": {
        "name": "solc",
        "version": "0.8.8+commit.dddeac2f"
    },
    "functionHashes": {
        "abandonRole(bytes32)": "3da9a600",
        "castVote(uint256,uint256,bytes32,address,uint256)": "88125cf7",
        "createMotion((uint16,uint64,uint16,uint40,uint40,uint48,uint32),uint256)": "0e6d37cc",
        "createPosition(bytes32)": "171c5c04",
        "entrustDelegate(uint256,uint256,uint256,uint256)": "585aebc6",
        "execAction(uint256,address[],uint256[],bytes[],bytes32,uint256,uint256)": "5c2753bf",
        "execResolution(uint256,uint256,uint256)": "2d3eaa40",
        "finalized()": "b3f05b97",
        "getBallot(uint256,uint256)": "0d358757",
        "getBoardSeatsOccupied(uint256)": "590022aa",
        "getBoardSeatsQuota(uint256)": "102e6960",
        "getBookeeper()": "ed211023",
        "getCaseOfAttitude(uint256,uint256)": "165dd5ec",
        "getDelegateOf(uint256,uint256)": "9a51cdfc",
        "getDirectorsList()": "8988c0cf",
        "getFullPosInfo()": "7cd699f3",
        "getGeneralCounsel()": "103f6edd",
        "getLeavesWeightAtDate(uint256,uint256,uint256,address)": "c41f49b0",
        "getMotion(uint256)": "ad15aad2",
        "getNumOfDirectors()": "695b2f60",
        "getNumOfOfficers()": "d5ae463a",
        "getOffList()": "af3cc2d8",
        "getOfficer(uint256)": "7f1c7d61",
        "getOwner()": "893d20e8",
        "getPosInHand(uint256)": "6ed7e039",
        "getPosList()": "7f3e404a",
        "getPosition(uint256)": "eb02c301",
        "getVoterOfDelegateMap(uint256,uint256)": "61df743f",
        "grantRole(bytes32,uint256)": "1b6ea9f9",
        "hasPosition(uint256,uint256)": "931a675a",
        "hasRole(bytes32,uint256)": "7e063c5a",
        "init(uint256,address,address,address)": "dc890da9",
        "isDirector(uint256)": "9258effe",
        "isOccupied(uint256)": "ec2fbbff",
        "isOfficer(uint256)": "6f51df87",
        "isPassed(uint256)": "49403183",
        "isProposed(uint256)": "59269f82",
        "isVoted(uint256,uint256)": "ea56efc6",
        "isVotedFor(uint256,uint256,uint256)": "9371bd1e",
        "lockContents()": "f045a769",
        "nominateOfficer(uint256,uint256,uint256,uint256)": "4f6413ac",
        "posExist(uint256)": "c1416b0c",
        "proposeAction(uint256,address[],uint256[],bytes[],bytes32,uint256,uint256)": "bbfd607d",
        "proposeDoc(address,uint256,uint256,uint256)": "cd43b165",
        "proposeMotion(uint256,uint256)": "096f3abe",
        "proposeToRemoveOfficer(uint256,uint256,uint256)": "65a47e81",
        "quitPosition(uint256,uint256)": "1ad1ea44",
        "removeDirectKeeper(address)": "5d7ad88f",
        "removeOfficer(uint256,uint256,uint256,uint256)": "a8780799",
        "removePosition(uint256)": "c0467422",
        "renounceRole(bytes32)": "8bb9c5bf",
        "revokeRole(bytes32,uint256)": "19d61ad9",
        "setDirectKeeper(address)": "6be8496f",
        "setGeneralCounsel(uint256)": "4a14beb1",
        "setOwner(uint256)": "8041494e",
        "setRoleAdmin(bytes32,uint256)": "5171ebd4",
        "takePosition(uint256,uint256)": "6998d28d",
        "updatePosition((uint16,uint16,uint40,uint40,uint48,uint48,uint16,uint16,uint16))": "2700b4cc",
        "voteCounting(uint256,(uint64,uint64,uint64,uint64))": "a0743e71",
        "voteEnded(uint256)": "b43a401d",
        "voteStarted(uint256)": "a1e1d621"
    },
    "gasEstimates": {
        "creation": {
            "codeDepositCost": "4966000",
            "executionCost": "5883",
            "totalCost": "4971883"
        },
        "external": {
            "abandonRole(bytes32)": "infinite",
            "castVote(uint256,uint256,bytes32,address,uint256)": "infinite",
            "createMotion((uint16,uint64,uint16,uint40,uint40,uint48,uint32),uint256)": "infinite",
            "createPosition(bytes32)": "infinite",
            "entrustDelegate(uint256,uint256,uint256,uint256)": "infinite",
            "execAction(uint256,address[],uint256[],bytes[],bytes32,uint256,uint256)": "infinite",
            "execResolution(uint256,uint256,uint256)": "infinite",
            "finalized()": "2439",
            "getBallot(uint256,uint256)": "infinite",
            "getBoardSeatsOccupied(uint256)": "infinite",
            "getBoardSeatsQuota(uint256)": "infinite",
            "getBookeeper()": "infinite",
            "getCaseOfAttitude(uint256,uint256)": "infinite",
            "getDelegateOf(uint256,uint256)": "infinite",
            "getDirectorsList()": "infinite",
            "getFullPosInfo()": "infinite",
            "getGeneralCounsel()": "infinite",
            "getLeavesWeightAtDate(uint256,uint256,uint256,address)": "infinite",
            "getMotion(uint256)": "infinite",
            "getNumOfDirectors()": "infinite",
            "getNumOfOfficers()": "infinite",
            "getOffList()": "infinite",
            "getOfficer(uint256)": "infinite",
            "getOwner()": "infinite",
            "getPosInHand(uint256)": "infinite",
            "getPosList()": "infinite",
            "getPosition(uint256)": "infinite",
            "getVoterOfDelegateMap(uint256,uint256)": "infinite",
            "grantRole(bytes32,uint256)": "infinite",
            "hasPosition(uint256,uint256)": "infinite",
            "hasRole(bytes32,uint256)": "infinite",
            "init(uint256,address,address,address)": "infinite",
            "isDirector(uint256)": "infinite",
            "isOccupied(uint256)": "infinite",
            "isOfficer(uint256)": "infinite",
            "isPassed(uint256)": "infinite",
            "isProposed(uint256)": "infinite",
            "isVoted(uint256,uint256)": "infinite",
            "isVotedFor(uint256,uint256,uint256)": "infinite",
            "lockContents()": "infinite",
            "nominateOfficer(uint256,uint256,uint256,uint256)": "infinite",
            "posExist(uint256)": "infinite",
            "proposeAction(uint256,address[],uint256[],bytes[],bytes32,uint256,uint256)": "infinite",
            "proposeDoc(address,uint256,uint256,uint256)": "infinite",
            "proposeMotion(uint256,uint256)": "infinite",
            "proposeToRemoveOfficer(uint256,uint256,uint256)": "infinite",
            "quitPosition(uint256,uint256)": "infinite",
            "removeDirectKeeper(address)": "infinite",
            "removeOfficer(uint256,uint256,uint256,uint256)": "infinite",
            "removePosition(uint256)": "infinite",
            "renounceRole(bytes32)": "infinite",
            "revokeRole(bytes32,uint256)": "infinite",
            "setDirectKeeper(address)": "infinite",
            "setGeneralCounsel(uint256)": "infinite",
            "setOwner(uint256)": "infinite",
            "setRoleAdmin(bytes32,uint256)": "infinite",
            "takePosition(uint256,uint256)": "infinite",
            "updatePosition((uint16,uint16,uint40,uint40,uint48,uint48,uint16,uint16,uint16))": "infinite",
            "voteCounting(uint256,(uint64,uint64,uint64,uint64))": "infinite",
            "voteEnded(uint256)": "infinite",
            "voteStarted(uint256)": "infinite"
        }
    }
}