{
    "contractName": "BookOfDirectors",
    "abi": [
        {
            "anonymous": false,
            "inputs": [
                {
                    "indexed": true,
                    "internalType": "bytes32",
                    "name": "snOfPos",
                    "type": "bytes32"
                }
            ],
            "name": "AddPosition",
            "type": "event"
        },
        {
            "anonymous": false,
            "inputs": [
                {
                    "indexed": true,
                    "internalType": "uint256",
                    "name": "seqOfMotion",
                    "type": "uint256"
                },
                {
                    "indexed": true,
                    "internalType": "uint256",
                    "name": "caller",
                    "type": "uint256"
                },
                {
                    "indexed": true,
                    "internalType": "uint256",
                    "name": "attitude",
                    "type": "uint256"
                },
                {
                    "indexed": false,
                    "internalType": "bytes32",
                    "name": "sigHash",
                    "type": "bytes32"
                }
            ],
            "name": "CastVote",
            "type": "event"
        },
        {
            "anonymous": false,
            "inputs": [
                {
                    "indexed": true,
                    "internalType": "bytes32",
                    "name": "snOfMotion",
                    "type": "bytes32"
                },
                {
                    "indexed": true,
                    "internalType": "uint256",
                    "name": "contents",
                    "type": "uint256"
                }
            ],
            "name": "CreateMotion",
            "type": "event"
        },
        {
            "anonymous": false,
            "inputs": [
                {
                    "indexed": true,
                    "internalType": "uint256",
                    "name": "seqOfMotion",
                    "type": "uint256"
                },
                {
                    "indexed": false,
                    "internalType": "uint256",
                    "name": "delegate",
                    "type": "uint256"
                },
                {
                    "indexed": false,
                    "internalType": "uint256",
                    "name": "principal",
                    "type": "uint256"
                },
                {
                    "indexed": false,
                    "internalType": "uint256",
                    "name": "weight",
                    "type": "uint256"
                }
            ],
            "name": "EntrustDelegate",
            "type": "event"
        },
        {
            "anonymous": false,
            "inputs": [
                {
                    "indexed": true,
                    "internalType": "uint256",
                    "name": "contents",
                    "type": "uint256"
                },
                {
                    "indexed": false,
                    "internalType": "bool",
                    "name": "result",
                    "type": "bool"
                }
            ],
            "name": "ExecAction",
            "type": "event"
        },
        {
            "anonymous": false,
            "inputs": [
                {
                    "indexed": true,
                    "internalType": "uint256",
                    "name": "seqOfMotion",
                    "type": "uint256"
                },
                {
                    "indexed": true,
                    "internalType": "uint256",
                    "name": "caller",
                    "type": "uint256"
                }
            ],
            "name": "ExecResolution",
            "type": "event"
        },
        {
            "anonymous": false,
            "inputs": [
                {
                    "indexed": false,
                    "internalType": "uint256",
                    "name": "owner",
                    "type": "uint256"
                },
                {
                    "indexed": false,
                    "internalType": "address",
                    "name": "directKeeper",
                    "type": "address"
                },
                {
                    "indexed": false,
                    "internalType": "address",
                    "name": "regCenter",
                    "type": "address"
                },
                {
                    "indexed": false,
                    "internalType": "address",
                    "name": "generalKeeper",
                    "type": "address"
                }
            ],
            "name": "Init",
            "type": "event"
        },
        {
            "anonymous": false,
            "inputs": [],
            "name": "LockContents",
            "type": "event"
        },
        {
            "anonymous": false,
            "inputs": [
                {
                    "indexed": true,
                    "internalType": "uint256",
                    "name": "seqOfMotion",
                    "type": "uint256"
                },
                {
                    "indexed": true,
                    "internalType": "uint256",
                    "name": "proposer",
                    "type": "uint256"
                }
            ],
            "name": "ProposeMotion",
            "type": "event"
        },
        {
            "anonymous": false,
            "inputs": [
                {
                    "indexed": true,
                    "internalType": "uint256",
                    "name": "seqOfPos",
                    "type": "uint256"
                },
                {
                    "indexed": true,
                    "internalType": "uint256",
                    "name": "caller",
                    "type": "uint256"
                }
            ],
            "name": "QuitPosition",
            "type": "event"
        },
        {
            "anonymous": false,
            "inputs": [
                {
                    "indexed": false,
                    "internalType": "address",
                    "name": "target",
                    "type": "address"
                }
            ],
            "name": "RemoveDirectKeeper",
            "type": "event"
        },
        {
            "anonymous": false,
            "inputs": [
                {
                    "indexed": true,
                    "internalType": "uint256",
                    "name": "seqOfMotion",
                    "type": "uint256"
                },
                {
                    "indexed": true,
                    "internalType": "uint256",
                    "name": "seqOfPos",
                    "type": "uint256"
                },
                {
                    "indexed": false,
                    "internalType": "uint256",
                    "name": "target",
                    "type": "uint256"
                },
                {
                    "indexed": false,
                    "internalType": "uint256",
                    "name": "caller",
                    "type": "uint256"
                }
            ],
            "name": "RemoveOfficer",
            "type": "event"
        },
        {
            "anonymous": false,
            "inputs": [
                {
                    "indexed": true,
                    "internalType": "uint256",
                    "name": "seqOfPos",
                    "type": "uint256"
                }
            ],
            "name": "RemovePosition",
            "type": "event"
        },
        {
            "anonymous": false,
            "inputs": [
                {
                    "indexed": false,
                    "internalType": "address",
                    "name": "keeper",
                    "type": "address"
                }
            ],
            "name": "SetDirectKeeper",
            "type": "event"
        },
        {
            "anonymous": false,
            "inputs": [
                {
                    "indexed": false,
                    "internalType": "uint256",
                    "name": "acct",
                    "type": "uint256"
                }
            ],
            "name": "SetGeneralCounsel",
            "type": "event"
        },
        {
            "anonymous": false,
            "inputs": [
                {
                    "indexed": false,
                    "internalType": "uint256",
                    "name": "acct",
                    "type": "uint256"
                }
            ],
            "name": "SetOwner",
            "type": "event"
        },
        {
            "anonymous": false,
            "inputs": [
                {
                    "indexed": true,
                    "internalType": "bytes32",
                    "name": "snOfPos",
                    "type": "bytes32"
                }
            ],
            "name": "TakePosition",
            "type": "event"
        },
        {
            "anonymous": false,
            "inputs": [
                {
                    "indexed": true,
                    "internalType": "uint256",
                    "name": "seqOfMotion",
                    "type": "uint256"
                },
                {
                    "indexed": true,
                    "internalType": "uint8",
                    "name": "result",
                    "type": "uint8"
                }
            ],
            "name": "VoteCounting",
            "type": "event"
        },
        {
            "inputs": [
                {
                    "internalType": "bytes32",
                    "name": "role",
                    "type": "bytes32"
                }
            ],
            "name": "abandonRole",
            "outputs": [],
            "stateMutability": "nonpayable",
            "type": "function"
        },
        {
            "inputs": [
                {
                    "internalType": "uint256",
                    "name": "seqOfMotion",
                    "type": "uint256"
                },
                {
                    "internalType": "uint256",
                    "name": "attitude",
                    "type": "uint256"
                },
                {
                    "internalType": "bytes32",
                    "name": "sigHash",
                    "type": "bytes32"
                },
                {
                    "internalType": "contract IRegisterOfMembers",
                    "name": "_rom",
                    "type": "address"
                },
                {
                    "internalType": "uint256",
                    "name": "caller",
                    "type": "uint256"
                }
            ],
            "name": "castVote",
            "outputs": [],
            "stateMutability": "nonpayable",
            "type": "function"
        },
        {
            "inputs": [
                {
                    "components": [
                        {
                            "internalType": "uint16",
                            "name": "typeOfMotion",
                            "type": "uint16"
                        },
                        {
                            "internalType": "uint64",
                            "name": "seqOfMotion",
                            "type": "uint64"
                        },
                        {
                            "internalType": "uint16",
                            "name": "seqOfVR",
                            "type": "uint16"
                        },
                        {
                            "internalType": "uint40",
                            "name": "creator",
                            "type": "uint40"
                        },
                        {
                            "internalType": "uint40",
                            "name": "executor",
                            "type": "uint40"
                        },
                        {
                            "internalType": "uint48",
                            "name": "createDate",
                            "type": "uint48"
                        },
                        {
                            "internalType": "uint32",
                            "name": "data",
                            "type": "uint32"
                        }
                    ],
                    "internalType": "struct MotionsRepo.Head",
                    "name": "head",
                    "type": "tuple"
                },
                {
                    "internalType": "uint256",
                    "name": "contents",
                    "type": "uint256"
                }
            ],
            "name": "createMotion",
            "outputs": [
                {
                    "internalType": "uint64",
                    "name": "",
                    "type": "uint64"
                }
            ],
            "stateMutability": "nonpayable",
            "type": "function"
        },
        {
            "inputs": [
                {
                    "internalType": "bytes32",
                    "name": "snOfPos",
                    "type": "bytes32"
                }
            ],
            "name": "createPosition",
            "outputs": [],
            "stateMutability": "nonpayable",
            "type": "function"
        },
        {
            "inputs": [
                {
                    "internalType": "uint256",
                    "name": "seqOfMotion",
                    "type": "uint256"
                },
                {
                    "internalType": "uint256",
                    "name": "delegate",
                    "type": "uint256"
                },
                {
                    "internalType": "uint256",
                    "name": "principal",
                    "type": "uint256"
                },
                {
                    "internalType": "uint256",
                    "name": "weight",
                    "type": "uint256"
                }
            ],
            "name": "entrustDelegate",
            "outputs": [],
            "stateMutability": "nonpayable",
            "type": "function"
        },
        {
            "inputs": [
                {
                    "internalType": "uint256",
                    "name": "seqOfVR",
                    "type": "uint256"
                },
                {
                    "internalType": "address[]",
                    "name": "targets",
                    "type": "address[]"
                },
                {
                    "internalType": "uint256[]",
                    "name": "values",
                    "type": "uint256[]"
                },
                {
                    "internalType": "bytes[]",
                    "name": "params",
                    "type": "bytes[]"
                },
                {
                    "internalType": "bytes32",
                    "name": "desHash",
                    "type": "bytes32"
                },
                {
                    "internalType": "uint256",
                    "name": "seqOfMotion",
                    "type": "uint256"
                },
                {
                    "internalType": "uint256",
                    "name": "caller",
                    "type": "uint256"
                }
            ],
            "name": "execAction",
            "outputs": [],
            "stateMutability": "nonpayable",
            "type": "function"
        },
        {
            "inputs": [
                {
                    "internalType": "uint256",
                    "name": "seqOfMotion",
                    "type": "uint256"
                },
                {
                    "internalType": "uint256",
                    "name": "contents",
                    "type": "uint256"
                },
                {
                    "internalType": "uint256",
                    "name": "caller",
                    "type": "uint256"
                }
            ],
            "name": "execResolution",
            "outputs": [],
            "stateMutability": "nonpayable",
            "type": "function"
        },
        {
            "inputs": [],
            "name": "finalized",
            "outputs": [
                {
                    "internalType": "bool",
                    "name": "",
                    "type": "bool"
                }
            ],
            "stateMutability": "view",
            "type": "function"
        },
        {
            "inputs": [
                {
                    "internalType": "uint256",
                    "name": "seqOfMotion",
                    "type": "uint256"
                },
                {
                    "internalType": "uint256",
                    "name": "acct",
                    "type": "uint256"
                }
            ],
            "name": "getBallot",
            "outputs": [
                {
                    "components": [
                        {
                            "internalType": "uint40",
                            "name": "acct",
                            "type": "uint40"
                        },
                        {
                            "internalType": "uint8",
                            "name": "attitude",
                            "type": "uint8"
                        },
                        {
                            "internalType": "uint32",
                            "name": "head",
                            "type": "uint32"
                        },
                        {
                            "internalType": "uint64",
                            "name": "weight",
                            "type": "uint64"
                        },
                        {
                            "internalType": "uint48",
                            "name": "sigDate",
                            "type": "uint48"
                        },
                        {
                            "internalType": "uint64",
                            "name": "blocknumber",
                            "type": "uint64"
                        },
                        {
                            "internalType": "bytes32",
                            "name": "sigHash",
                            "type": "bytes32"
                        }
                    ],
                    "internalType": "struct BallotsBox.Ballot",
                    "name": "",
                    "type": "tuple"
                }
            ],
            "stateMutability": "view",
            "type": "function"
        },
        {
            "inputs": [
                {
                    "internalType": "uint256",
                    "name": "acct",
                    "type": "uint256"
                }
            ],
            "name": "getBoardSeatsOccupied",
            "outputs": [
                {
                    "internalType": "uint256",
                    "name": "num",
                    "type": "uint256"
                }
            ],
            "stateMutability": "view",
            "type": "function"
        },
        {
            "inputs": [
                {
                    "internalType": "uint256",
                    "name": "acct",
                    "type": "uint256"
                }
            ],
            "name": "getBoardSeatsQuota",
            "outputs": [
                {
                    "internalType": "uint256",
                    "name": "quota",
                    "type": "uint256"
                }
            ],
            "stateMutability": "view",
            "type": "function"
        },
        {
            "inputs": [],
            "name": "getBookeeper",
            "outputs": [
                {
                    "internalType": "address",
                    "name": "",
                    "type": "address"
                }
            ],
            "stateMutability": "view",
            "type": "function"
        },
        {
            "inputs": [
                {
                    "internalType": "uint256",
                    "name": "seqOfMotion",
                    "type": "uint256"
                },
                {
                    "internalType": "uint256",
                    "name": "atti",
                    "type": "uint256"
                }
            ],
            "name": "getCaseOfAttitude",
            "outputs": [
                {
                    "components": [
                        {
                            "internalType": "uint32",
                            "name": "sumOfHead",
                            "type": "uint32"
                        },
                        {
                            "internalType": "uint64",
                            "name": "sumOfWeight",
                            "type": "uint64"
                        },
                        {
                            "internalType": "uint256[]",
                            "name": "voters",
                            "type": "uint256[]"
                        }
                    ],
                    "internalType": "struct BallotsBox.Case",
                    "name": "",
                    "type": "tuple"
                }
            ],
            "stateMutability": "view",
            "type": "function"
        },
        {
            "inputs": [
                {
                    "internalType": "uint256",
                    "name": "seqOfMotion",
                    "type": "uint256"
                },
                {
                    "internalType": "uint256",
                    "name": "acct",
                    "type": "uint256"
                }
            ],
            "name": "getDelegateOf",
            "outputs": [
                {
                    "internalType": "uint256",
                    "name": "",
                    "type": "uint256"
                }
            ],
            "stateMutability": "view",
            "type": "function"
        },
        {
            "inputs": [],
            "name": "getDirectorsList",
            "outputs": [
                {
                    "internalType": "uint256[]",
                    "name": "list",
                    "type": "uint256[]"
                }
            ],
            "stateMutability": "view",
            "type": "function"
        },
        {
            "inputs": [],
            "name": "getFullPosInfo",
            "outputs": [
                {
                    "components": [
                        {
                            "internalType": "uint16",
                            "name": "title",
                            "type": "uint16"
                        },
                        {
                            "internalType": "uint16",
                            "name": "seqOfPos",
                            "type": "uint16"
                        },
                        {
                            "internalType": "uint40",
                            "name": "acct",
                            "type": "uint40"
                        },
                        {
                            "internalType": "uint40",
                            "name": "nominator",
                            "type": "uint40"
                        },
                        {
                            "internalType": "uint48",
                            "name": "startDate",
                            "type": "uint48"
                        },
                        {
                            "internalType": "uint48",
                            "name": "endDate",
                            "type": "uint48"
                        },
                        {
                            "internalType": "uint16",
                            "name": "seqOfVR",
                            "type": "uint16"
                        },
                        {
                            "internalType": "uint16",
                            "name": "para",
                            "type": "uint16"
                        },
                        {
                            "internalType": "uint16",
                            "name": "arg",
                            "type": "uint16"
                        }
                    ],
                    "internalType": "struct OfficersRepo.Position[]",
                    "name": "list",
                    "type": "tuple[]"
                }
            ],
            "stateMutability": "view",
            "type": "function"
        },
        {
            "inputs": [],
            "name": "getGeneralCounsel",
            "outputs": [
                {
                    "internalType": "uint40",
                    "name": "",
                    "type": "uint40"
                }
            ],
            "stateMutability": "view",
            "type": "function"
        },
        {
            "inputs": [
                {
                    "internalType": "uint256",
                    "name": "seqOfMotion",
                    "type": "uint256"
                },
                {
                    "internalType": "uint256",
                    "name": "caller",
                    "type": "uint256"
                },
                {
                    "internalType": "uint256",
                    "name": "baseDate",
                    "type": "uint256"
                },
                {
                    "internalType": "contract IRegisterOfMembers",
                    "name": "_rom",
                    "type": "address"
                }
            ],
            "name": "getLeavesWeightAtDate",
            "outputs": [
                {
                    "internalType": "uint64",
                    "name": "weight",
                    "type": "uint64"
                }
            ],
            "stateMutability": "view",
            "type": "function"
        },
        {
            "inputs": [
                {
                    "internalType": "uint256",
                    "name": "seqOfMotion",
                    "type": "uint256"
                }
            ],
            "name": "getMotion",
            "outputs": [
                {
                    "components": [
                        {
                            "components": [
                                {
                                    "internalType": "uint16",
                                    "name": "typeOfMotion",
                                    "type": "uint16"
                                },
                                {
                                    "internalType": "uint64",
                                    "name": "seqOfMotion",
                                    "type": "uint64"
                                },
                                {
                                    "internalType": "uint16",
                                    "name": "seqOfVR",
                                    "type": "uint16"
                                },
                                {
                                    "internalType": "uint40",
                                    "name": "creator",
                                    "type": "uint40"
                                },
                                {
                                    "internalType": "uint40",
                                    "name": "executor",
                                    "type": "uint40"
                                },
                                {
                                    "internalType": "uint48",
                                    "name": "createDate",
                                    "type": "uint48"
                                },
                                {
                                    "internalType": "uint32",
                                    "name": "data",
                                    "type": "uint32"
                                }
                            ],
                            "internalType": "struct MotionsRepo.Head",
                            "name": "head",
                            "type": "tuple"
                        },
                        {
                            "components": [
                                {
                                    "internalType": "uint40",
                                    "name": "proposer",
                                    "type": "uint40"
                                },
                                {
                                    "internalType": "uint48",
                                    "name": "proposeDate",
                                    "type": "uint48"
                                },
                                {
                                    "internalType": "uint48",
                                    "name": "shareRegDate",
                                    "type": "uint48"
                                },
                                {
                                    "internalType": "uint48",
                                    "name": "voteStartDate",
                                    "type": "uint48"
                                },
                                {
                                    "internalType": "uint48",
                                    "name": "voteEndDate",
                                    "type": "uint48"
                                },
                                {
                                    "internalType": "uint16",
                                    "name": "para",
                                    "type": "uint16"
                                },
                                {
                                    "internalType": "uint8",
                                    "name": "state",
                                    "type": "uint8"
                                }
                            ],
                            "internalType": "struct MotionsRepo.Body",
                            "name": "body",
                            "type": "tuple"
                        },
                        {
                            "components": [
                                {
                                    "internalType": "uint16",
                                    "name": "seqOfRule",
                                    "type": "uint16"
                                },
                                {
                                    "internalType": "uint8",
                                    "name": "qtyOfSubRule",
                                    "type": "uint8"
                                },
                                {
                                    "internalType": "uint8",
                                    "name": "seqOfSubRule",
                                    "type": "uint8"
                                },
                                {
                                    "internalType": "uint16",
                                    "name": "authority",
                                    "type": "uint16"
                                },
                                {
                                    "internalType": "uint16",
                                    "name": "headRatio",
                                    "type": "uint16"
                                },
                                {
                                    "internalType": "uint16",
                                    "name": "amountRatio",
                                    "type": "uint16"
                                },
                                {
                                    "internalType": "bool",
                                    "name": "onlyAttendance",
                                    "type": "bool"
                                },
                                {
                                    "internalType": "bool",
                                    "name": "impliedConsent",
                                    "type": "bool"
                                },
                                {
                                    "internalType": "bool",
                                    "name": "partyAsConsent",
                                    "type": "bool"
                                },
                                {
                                    "internalType": "bool",
                                    "name": "againstShallBuy",
                                    "type": "bool"
                                },
                                {
                                    "internalType": "uint8",
                                    "name": "shaExecDays",
                                    "type": "uint8"
                                },
                                {
                                    "internalType": "uint8",
                                    "name": "reviewDays",
                                    "type": "uint8"
                                },
                                {
                                    "internalType": "uint8",
                                    "name": "reconsiderDays",
                                    "type": "uint8"
                                },
                                {
                                    "internalType": "uint8",
                                    "name": "votingDays",
                                    "type": "uint8"
                                },
                                {
                                    "internalType": "uint8",
                                    "name": "execDaysForPutOpt",
                                    "type": "uint8"
                                },
                                {
                                    "internalType": "uint40[2]",
                                    "name": "vetoers",
                                    "type": "uint40[2]"
                                }
                            ],
                            "internalType": "struct RulesParser.VotingRule",
                            "name": "votingRule",
                            "type": "tuple"
                        },
                        {
                            "internalType": "uint256",
                            "name": "contents",
                            "type": "uint256"
                        }
                    ],
                    "internalType": "struct MotionsRepo.Motion",
                    "name": "motion",
                    "type": "tuple"
                }
            ],
            "stateMutability": "view",
            "type": "function"
        },
        {
            "inputs": [],
            "name": "getNumOfDirectors",
            "outputs": [
                {
                    "internalType": "uint256",
                    "name": "num",
                    "type": "uint256"
                }
            ],
            "stateMutability": "view",
            "type": "function"
        },
        {
            "inputs": [],
            "name": "getNumOfOfficers",
            "outputs": [
                {
                    "internalType": "uint256",
                    "name": "num",
                    "type": "uint256"
                }
            ],
            "stateMutability": "view",
            "type": "function"
        },
        {
            "inputs": [],
            "name": "getOffList",
            "outputs": [
                {
                    "internalType": "uint256[]",
                    "name": "ls",
                    "type": "uint256[]"
                }
            ],
            "stateMutability": "view",
            "type": "function"
        },
        {
            "inputs": [
                {
                    "internalType": "uint256",
                    "name": "acct",
                    "type": "uint256"
                }
            ],
            "name": "getOfficer",
            "outputs": [
                {
                    "components": [
                        {
                            "internalType": "uint16",
                            "name": "title",
                            "type": "uint16"
                        },
                        {
                            "internalType": "uint16",
                            "name": "seqOfPos",
                            "type": "uint16"
                        },
                        {
                            "internalType": "uint40",
                            "name": "acct",
                            "type": "uint40"
                        },
                        {
                            "internalType": "uint40",
                            "name": "nominator",
                            "type": "uint40"
                        },
                        {
                            "internalType": "uint48",
                            "name": "startDate",
                            "type": "uint48"
                        },
                        {
                            "internalType": "uint48",
                            "name": "endDate",
                            "type": "uint48"
                        },
                        {
                            "internalType": "uint16",
                            "name": "seqOfVR",
                            "type": "uint16"
                        },
                        {
                            "internalType": "uint16",
                            "name": "para",
                            "type": "uint16"
                        },
                        {
                            "internalType": "uint16",
                            "name": "arg",
                            "type": "uint16"
                        }
                    ],
                    "internalType": "struct OfficersRepo.Position[]",
                    "name": "ls",
                    "type": "tuple[]"
                }
            ],
            "stateMutability": "view",
            "type": "function"
        },
        {
            "inputs": [],
            "name": "getOwner",
            "outputs": [
                {
                    "internalType": "uint40",
                    "name": "",
                    "type": "uint40"
                }
            ],
            "stateMutability": "view",
            "type": "function"
        },
        {
            "inputs": [
                {
                    "internalType": "uint256",
                    "name": "acct",
                    "type": "uint256"
                }
            ],
            "name": "getPosInHand",
            "outputs": [
                {
                    "internalType": "uint256[]",
                    "name": "ls",
                    "type": "uint256[]"
                }
            ],
            "stateMutability": "view",
            "type": "function"
        },
        {
            "inputs": [],
            "name": "getPosList",
            "outputs": [
                {
                    "internalType": "bytes32[]",
                    "name": "list",
                    "type": "bytes32[]"
                }
            ],
            "stateMutability": "view",
            "type": "function"
        },
        {
            "inputs": [
                {
                    "internalType": "uint256",
                    "name": "seqOfPos",
                    "type": "uint256"
                }
            ],
            "name": "getPosition",
            "outputs": [
                {
                    "components": [
                        {
                            "internalType": "uint16",
                            "name": "title",
                            "type": "uint16"
                        },
                        {
                            "internalType": "uint16",
                            "name": "seqOfPos",
                            "type": "uint16"
                        },
                        {
                            "internalType": "uint40",
                            "name": "acct",
                            "type": "uint40"
                        },
                        {
                            "internalType": "uint40",
                            "name": "nominator",
                            "type": "uint40"
                        },
                        {
                            "internalType": "uint48",
                            "name": "startDate",
                            "type": "uint48"
                        },
                        {
                            "internalType": "uint48",
                            "name": "endDate",
                            "type": "uint48"
                        },
                        {
                            "internalType": "uint16",
                            "name": "seqOfVR",
                            "type": "uint16"
                        },
                        {
                            "internalType": "uint16",
                            "name": "para",
                            "type": "uint16"
                        },
                        {
                            "internalType": "uint16",
                            "name": "arg",
                            "type": "uint16"
                        }
                    ],
                    "internalType": "struct OfficersRepo.Position",
                    "name": "pos",
                    "type": "tuple"
                }
            ],
            "stateMutability": "view",
            "type": "function"
        },
        {
            "inputs": [
                {
                    "internalType": "uint256",
                    "name": "seqOfMotion",
                    "type": "uint256"
                },
                {
                    "internalType": "uint256",
                    "name": "acct",
                    "type": "uint256"
                }
            ],
            "name": "getVoterOfDelegateMap",
            "outputs": [
                {
                    "components": [
                        {
                            "internalType": "uint40",
                            "name": "delegate",
                            "type": "uint40"
                        },
                        {
                            "internalType": "uint64",
                            "name": "weight",
                            "type": "uint64"
                        },
                        {
                            "internalType": "uint64",
                            "name": "repWeight",
                            "type": "uint64"
                        },
                        {
                            "internalType": "uint32",
                            "name": "repHead",
                            "type": "uint32"
                        },
                        {
                            "internalType": "uint40[]",
                            "name": "principals",
                            "type": "uint40[]"
                        }
                    ],
                    "internalType": "struct DelegateMap.Voter",
                    "name": "",
                    "type": "tuple"
                }
            ],
            "stateMutability": "view",
            "type": "function"
        },
        {
            "inputs": [
                {
                    "internalType": "bytes32",
                    "name": "role",
                    "type": "bytes32"
                },
                {
                    "internalType": "uint256",
                    "name": "acct",
                    "type": "uint256"
                }
            ],
            "name": "grantRole",
            "outputs": [],
            "stateMutability": "nonpayable",
            "type": "function"
        },
        {
            "inputs": [
                {
                    "internalType": "uint256",
                    "name": "acct",
                    "type": "uint256"
                },
                {
                    "internalType": "uint256",
                    "name": "seqOfPos",
                    "type": "uint256"
                }
            ],
            "name": "hasPosition",
            "outputs": [
                {
                    "internalType": "bool",
                    "name": "flag",
                    "type": "bool"
                }
            ],
            "stateMutability": "view",
            "type": "function"
        },
        {
            "inputs": [
                {
                    "internalType": "bytes32",
                    "name": "role",
                    "type": "bytes32"
                },
                {
                    "internalType": "uint256",
                    "name": "acct",
                    "type": "uint256"
                }
            ],
            "name": "hasRole",
            "outputs": [
                {
                    "internalType": "bool",
                    "name": "",
                    "type": "bool"
                }
            ],
            "stateMutability": "view",
            "type": "function"
        },
        {
            "inputs": [
                {
                    "internalType": "uint256",
                    "name": "owner",
                    "type": "uint256"
                },
                {
                    "internalType": "address",
                    "name": "directKeeper",
                    "type": "address"
                },
                {
                    "internalType": "address",
                    "name": "regCenter",
                    "type": "address"
                },
                {
                    "internalType": "address",
                    "name": "generalKeeper",
                    "type": "address"
                }
            ],
            "name": "init",
            "outputs": [],
            "stateMutability": "nonpayable",
            "type": "function"
        },
        {
            "inputs": [
                {
                    "internalType": "uint256",
                    "name": "acct",
                    "type": "uint256"
                }
            ],
            "name": "isDirector",
            "outputs": [
                {
                    "internalType": "bool",
                    "name": "flag",
                    "type": "bool"
                }
            ],
            "stateMutability": "view",
            "type": "function"
        },
        {
            "inputs": [
                {
                    "internalType": "uint256",
                    "name": "seqOfPos",
                    "type": "uint256"
                }
            ],
            "name": "isOccupied",
            "outputs": [
                {
                    "internalType": "bool",
                    "name": "flag",
                    "type": "bool"
                }
            ],
            "stateMutability": "view",
            "type": "function"
        },
        {
            "inputs": [
                {
                    "internalType": "uint256",
                    "name": "acct",
                    "type": "uint256"
                }
            ],
            "name": "isOfficer",
            "outputs": [
                {
                    "internalType": "bool",
                    "name": "",
                    "type": "bool"
                }
            ],
            "stateMutability": "view",
            "type": "function"
        },
        {
            "inputs": [
                {
                    "internalType": "uint256",
                    "name": "seqOfMotion",
                    "type": "uint256"
                }
            ],
            "name": "isPassed",
            "outputs": [
                {
                    "internalType": "bool",
                    "name": "",
                    "type": "bool"
                }
            ],
            "stateMutability": "view",
            "type": "function"
        },
        {
            "inputs": [
                {
                    "internalType": "uint256",
                    "name": "seqOfMotion",
                    "type": "uint256"
                }
            ],
            "name": "isProposed",
            "outputs": [
                {
                    "internalType": "bool",
                    "name": "",
                    "type": "bool"
                }
            ],
            "stateMutability": "view",
            "type": "function"
        },
        {
            "inputs": [
                {
                    "internalType": "uint256",
                    "name": "seqOfMotion",
                    "type": "uint256"
                },
                {
                    "internalType": "uint256",
                    "name": "acct",
                    "type": "uint256"
                }
            ],
            "name": "isVoted",
            "outputs": [
                {
                    "internalType": "bool",
                    "name": "",
                    "type": "bool"
                }
            ],
            "stateMutability": "view",
            "type": "function"
        },
        {
            "inputs": [
                {
                    "internalType": "uint256",
                    "name": "seqOfMotion",
                    "type": "uint256"
                },
                {
                    "internalType": "uint256",
                    "name": "acct",
                    "type": "uint256"
                },
                {
                    "internalType": "uint256",
                    "name": "atti",
                    "type": "uint256"
                }
            ],
            "name": "isVotedFor",
            "outputs": [
                {
                    "internalType": "bool",
                    "name": "",
                    "type": "bool"
                }
            ],
            "stateMutability": "view",
            "type": "function"
        },
        {
            "inputs": [],
            "name": "lockContents",
            "outputs": [],
            "stateMutability": "nonpayable",
            "type": "function"
        },
        {
            "inputs": [
                {
                    "internalType": "uint256",
                    "name": "seqOfPos",
                    "type": "uint256"
                },
                {
                    "internalType": "uint256",
                    "name": "seqOfVR",
                    "type": "uint256"
                },
                {
                    "internalType": "uint256",
                    "name": "candidate",
                    "type": "uint256"
                },
                {
                    "internalType": "uint256",
                    "name": "nominator",
                    "type": "uint256"
                }
            ],
            "name": "nominateOfficer",
            "outputs": [
                {
                    "internalType": "uint64",
                    "name": "",
                    "type": "uint64"
                }
            ],
            "stateMutability": "nonpayable",
            "type": "function"
        },
        {
            "inputs": [
                {
                    "internalType": "uint256",
                    "name": "seqOfPos",
                    "type": "uint256"
                }
            ],
            "name": "posExist",
            "outputs": [
                {
                    "internalType": "bool",
                    "name": "flag",
                    "type": "bool"
                }
            ],
            "stateMutability": "view",
            "type": "function"
        },
        {
            "inputs": [
                {
                    "internalType": "uint256",
                    "name": "seqOfVR",
                    "type": "uint256"
                },
                {
                    "internalType": "address[]",
                    "name": "targets",
                    "type": "address[]"
                },
                {
                    "internalType": "uint256[]",
                    "name": "values",
                    "type": "uint256[]"
                },
                {
                    "internalType": "bytes[]",
                    "name": "params",
                    "type": "bytes[]"
                },
                {
                    "internalType": "bytes32",
                    "name": "desHash",
                    "type": "bytes32"
                },
                {
                    "internalType": "uint256",
                    "name": "executor",
                    "type": "uint256"
                },
                {
                    "internalType": "uint256",
                    "name": "proposer",
                    "type": "uint256"
                }
            ],
            "name": "proposeAction",
            "outputs": [
                {
                    "internalType": "uint64",
                    "name": "",
                    "type": "uint64"
                }
            ],
            "stateMutability": "nonpayable",
            "type": "function"
        },
        {
            "inputs": [
                {
                    "internalType": "address",
                    "name": "doc",
                    "type": "address"
                },
                {
                    "internalType": "uint256",
                    "name": "seqOfVR",
                    "type": "uint256"
                },
                {
                    "internalType": "uint256",
                    "name": "executor",
                    "type": "uint256"
                },
                {
                    "internalType": "uint256",
                    "name": "proposer",
                    "type": "uint256"
                }
            ],
            "name": "proposeDoc",
            "outputs": [
                {
                    "internalType": "uint64",
                    "name": "",
                    "type": "uint64"
                }
            ],
            "stateMutability": "nonpayable",
            "type": "function"
        },
        {
            "inputs": [
                {
                    "internalType": "uint256",
                    "name": "seqOfMotion",
                    "type": "uint256"
                },
                {
                    "internalType": "uint256",
                    "name": "proposer",
                    "type": "uint256"
                }
            ],
            "name": "proposeMotion",
            "outputs": [],
            "stateMutability": "nonpayable",
            "type": "function"
        },
        {
            "inputs": [
                {
                    "internalType": "uint256",
                    "name": "seqOfPos",
                    "type": "uint256"
                },
                {
                    "internalType": "uint256",
                    "name": "seqOfVR",
                    "type": "uint256"
                },
                {
                    "internalType": "uint256",
                    "name": "nominator",
                    "type": "uint256"
                }
            ],
            "name": "proposeToRemoveOfficer",
            "outputs": [
                {
                    "internalType": "uint64",
                    "name": "",
                    "type": "uint64"
                }
            ],
            "stateMutability": "nonpayable",
            "type": "function"
        },
        {
            "inputs": [
                {
                    "internalType": "uint256",
                    "name": "seqOfPos",
                    "type": "uint256"
                },
                {
                    "internalType": "uint256",
                    "name": "caller",
                    "type": "uint256"
                }
            ],
            "name": "quitPosition",
            "outputs": [],
            "stateMutability": "nonpayable",
            "type": "function"
        },
        {
            "inputs": [
                {
                    "internalType": "address",
                    "name": "target",
                    "type": "address"
                }
            ],
            "name": "removeDirectKeeper",
            "outputs": [],
            "stateMutability": "nonpayable",
            "type": "function"
        },
        {
            "inputs": [
                {
                    "internalType": "uint256",
                    "name": "seqOfMotion",
                    "type": "uint256"
                },
                {
                    "internalType": "uint256",
                    "name": "seqOfPos",
                    "type": "uint256"
                },
                {
                    "internalType": "uint256",
                    "name": "target",
                    "type": "uint256"
                },
                {
                    "internalType": "uint256",
                    "name": "caller",
                    "type": "uint256"
                }
            ],
            "name": "removeOfficer",
            "outputs": [],
            "stateMutability": "nonpayable",
            "type": "function"
        },
        {
            "inputs": [
                {
                    "internalType": "uint256",
                    "name": "seqOfPos",
                    "type": "uint256"
                }
            ],
            "name": "removePosition",
            "outputs": [],
            "stateMutability": "nonpayable",
            "type": "function"
        },
        {
            "inputs": [
                {
                    "internalType": "bytes32",
                    "name": "role",
                    "type": "bytes32"
                }
            ],
            "name": "renounceRole",
            "outputs": [],
            "stateMutability": "nonpayable",
            "type": "function"
        },
        {
            "inputs": [
                {
                    "internalType": "bytes32",
                    "name": "role",
                    "type": "bytes32"
                },
                {
                    "internalType": "uint256",
                    "name": "acct",
                    "type": "uint256"
                }
            ],
            "name": "revokeRole",
            "outputs": [],
            "stateMutability": "nonpayable",
            "type": "function"
        },
        {
            "inputs": [
                {
                    "internalType": "address",
                    "name": "keeper",
                    "type": "address"
                }
            ],
            "name": "setDirectKeeper",
            "outputs": [],
            "stateMutability": "nonpayable",
            "type": "function"
        },
        {
            "inputs": [
                {
                    "internalType": "uint256",
                    "name": "acct",
                    "type": "uint256"
                }
            ],
            "name": "setGeneralCounsel",
            "outputs": [],
            "stateMutability": "nonpayable",
            "type": "function"
        },
        {
            "inputs": [
                {
                    "internalType": "uint256",
                    "name": "acct",
                    "type": "uint256"
                }
            ],
            "name": "setOwner",
            "outputs": [],
            "stateMutability": "nonpayable",
            "type": "function"
        },
        {
            "inputs": [
                {
                    "internalType": "bytes32",
                    "name": "role",
                    "type": "bytes32"
                },
                {
                    "internalType": "uint256",
                    "name": "acct",
                    "type": "uint256"
                }
            ],
            "name": "setRoleAdmin",
            "outputs": [],
            "stateMutability": "nonpayable",
            "type": "function"
        },
        {
            "inputs": [
                {
                    "internalType": "uint256",
                    "name": "seqOfPos",
                    "type": "uint256"
                },
                {
                    "internalType": "uint256",
                    "name": "caller",
                    "type": "uint256"
                }
            ],
            "name": "takePosition",
            "outputs": [],
            "stateMutability": "nonpayable",
            "type": "function"
        },
        {
            "inputs": [
                {
                    "components": [
                        {
                            "internalType": "uint16",
                            "name": "title",
                            "type": "uint16"
                        },
                        {
                            "internalType": "uint16",
                            "name": "seqOfPos",
                            "type": "uint16"
                        },
                        {
                            "internalType": "uint40",
                            "name": "acct",
                            "type": "uint40"
                        },
                        {
                            "internalType": "uint40",
                            "name": "nominator",
                            "type": "uint40"
                        },
                        {
                            "internalType": "uint48",
                            "name": "startDate",
                            "type": "uint48"
                        },
                        {
                            "internalType": "uint48",
                            "name": "endDate",
                            "type": "uint48"
                        },
                        {
                            "internalType": "uint16",
                            "name": "seqOfVR",
                            "type": "uint16"
                        },
                        {
                            "internalType": "uint16",
                            "name": "para",
                            "type": "uint16"
                        },
                        {
                            "internalType": "uint16",
                            "name": "arg",
                            "type": "uint16"
                        }
                    ],
                    "internalType": "struct OfficersRepo.Position",
                    "name": "pos",
                    "type": "tuple"
                }
            ],
            "name": "updatePosition",
            "outputs": [],
            "stateMutability": "nonpayable",
            "type": "function"
        },
        {
            "inputs": [
                {
                    "internalType": "uint256",
                    "name": "seqOfMotion",
                    "type": "uint256"
                },
                {
                    "components": [
                        {
                            "internalType": "uint64",
                            "name": "totalHead",
                            "type": "uint64"
                        },
                        {
                            "internalType": "uint64",
                            "name": "totalWeight",
                            "type": "uint64"
                        },
                        {
                            "internalType": "uint64",
                            "name": "supportHead",
                            "type": "uint64"
                        },
                        {
                            "internalType": "uint64",
                            "name": "supportWeight",
                            "type": "uint64"
                        }
                    ],
                    "internalType": "struct MotionsRepo.VoteCalBase",
                    "name": "base",
                    "type": "tuple"
                }
            ],
            "name": "voteCounting",
            "outputs": [
                {
                    "internalType": "uint8",
                    "name": "result",
                    "type": "uint8"
                }
            ],
            "stateMutability": "nonpayable",
            "type": "function"
        },
        {
            "inputs": [
                {
                    "internalType": "uint256",
                    "name": "seqOfMotion",
                    "type": "uint256"
                }
            ],
            "name": "voteEnded",
            "outputs": [
                {
                    "internalType": "bool",
                    "name": "",
                    "type": "bool"
                }
            ],
            "stateMutability": "view",
            "type": "function"
        },
        {
            "inputs": [
                {
                    "internalType": "uint256",
                    "name": "seqOfMotion",
                    "type": "uint256"
                }
            ],
            "name": "voteStarted",
            "outputs": [
                {
                    "internalType": "bool",
                    "name": "",
                    "type": "bool"
                }
            ],
            "stateMutability": "view",
            "type": "function"
        }
    ],
    "bytecode": "608060405234801561001057600080fd5b5061604480620000216000396000f3fe608060405234801561001057600080fd5b50600436106103af5760003560e01c80637e063c5a116101f4578063ad15aad21161011a578063cd43b165116100ad578063eb02c3011161007c578063eb02c301146108cc578063ec2fbbff146108ec578063ed211023146108ff578063f045a7691461091f57600080fd5b8063cd43b1651461088b578063d5ae463a1461089e578063dc890da9146108a6578063ea56efc6146108b957600080fd5b8063bbfd607d116100e9578063bbfd607d1461083f578063c046742214610852578063c1416b0c14610865578063c41f49b01461087857600080fd5b8063ad15aad2146107f0578063af3cc2d814610810578063b3f05b9714610818578063b43a401d1461082c57600080fd5b80638bb9c5bf116101925780639a51cdfc116101615780639a51cdfc14610792578063a0743e71146107a5578063a1e1d621146107ca578063a8780799146107dd57600080fd5b80638bb9c5bf146107465780639258effe14610759578063931a675a1461076c5780639371bd1e1461077f57600080fd5b80638041494e116101ce5780638041494e1461071057806388125cf714610723578063893d20e8146107365780638988c0cf1461073e57600080fd5b80637e063c5a146106d55780637f1c7d61146106e85780637f3e404a146106fb57600080fd5b80634f6413ac116102d957806361df743f116102775780636be8496f116102465780636be8496f1461067a5780636ed7e0391461068d5780636f51df87146106ad5780637cd699f3146106c057600080fd5b806361df743f1461062c57806365a47e811461064c578063695b2f601461065f5780636998d28d1461066757600080fd5b8063590022aa116102b3578063590022aa146105e057806359269f82146105f35780635c2753bf146106065780635d7ad88f1461061957600080fd5b80634f6413ac146105a75780635171ebd4146105ba578063585aebc6146105cd57600080fd5b806319d61ad9116103515780632d3eaa40116103205780632d3eaa401461054b5780633da9a6001461055e57806349403183146105715780634a14beb11461059457600080fd5b806319d61ad9146104ff5780631ad1ea44146105125780631b6ea9f9146105255780632700b4cc1461053857600080fd5b8063102e69601161038d578063102e69601461048d578063103f6edd146104ae578063165dd5ec146104cc578063171c5c04146104ec57600080fd5b8063096f3abe146103b45780630d358757146103c95780630e6d37cc14610462575b600080fd5b6103c76103c2366004614667565b610927565b005b6103dc6103d7366004614667565b6110ef565b6040516104599190600060e08201905064ffffffffff835116825260ff602084015116602083015263ffffffff604084015116604083015260608301516001600160401b03808216606085015265ffffffffffff60808601511660808501528060a08601511660a0850152505060c083015160c083015292915050565b60405180910390f35b610475610470366004614810565b6111bd565b6040516001600160401b039091168152602001610459565b6104a061049b3660046148c3565b6113ad565b604051908152602001610459565b6104b661143b565b60405164ffffffffff9091168152602001610459565b6104df6104da366004614667565b6114c7565b60405161045991906148dc565b6103c76104fa3660046148c3565b611573565b6103c761050d366004614667565b611732565b6103c7610520366004614667565b6117c4565b6103c7610533366004614667565b611932565b6103c7610546366004614951565b611958565b6103c7610559366004614a07565b611b9c565b6103c761056c3660046148c3565b611d6c565b61058461057f3660046148c3565b611df7565b6040519015158152602001610459565b6103c76105a23660046148c3565b611e84565b6104756105b5366004614a33565b6120e2565b6103c76105c8366004614667565b6121ca565b6103c76105db366004614a33565b6121f0565b6104a06105ee3660046148c3565b61237e565b6105846106013660046148c3565b6123c0565b6103c7610614366004614be0565b612401565b6103c7610627366004614cec565b612636565b61063f61063a366004614667565b61276f565b6040516104599190614d09565b61047561065a366004614a07565b61282c565b6104a0612914565b6103c7610675366004614667565b61299b565b6103c7610688366004614cec565b612b89565b6106a061069b3660046148c3565b612c3b565b6040516104599190614dd2565b6105846106bb3660046148c3565b612ccc565b6106c8612d0e565b6040516104599190614e9a565b6105846106e3366004614667565b612d98565b6106c86106f63660046148c3565b612e2d565b610703612ebe565b6040516104599190614ee9565b6103c761071e3660046148c3565b612f48565b6103c7610731366004614f21565b613001565b6104b661319c565b6106a06131d7565b6103c76107543660046148c3565b613262565b6105846107673660046148c3565b613287565b61058461077a366004614667565b6132c9565b61058461078d366004614a07565b613312565b6104a06107a0366004614667565b6133b4565b6107b86107b3366004614f6a565b613447565b60405160ff9091168152602001610459565b6105846107d83660046148c3565b6135e9565b6103c76107eb366004614a33565b61362a565b6108036107fe3660046148c3565b6137aa565b604051610459919061519c565b6106a061383c565b60028054600160f01b900460ff1614610584565b61058461083a3660046148c3565b613877565b61047561084d366004614be0565b6138b8565b6103c76108603660046148c3565b6139b5565b6105846108733660046148c3565b613b9a565b610475610886366004615243565b613bdc565b610475610899366004615284565b613c8e565b6104a0613d75565b6103c76108b43660046152bf565b613db0565b6105846108c7366004614667565b613e92565b6108df6108da3660046148c3565b613eda565b6040516104599190615307565b6105846108fa3660046148c3565b613faa565b610907613fec565b6040516001600160a01b039091168152602001610459565b6103c7614072565b604051633b11adbf60e21b815273__$364aad554dc80380f414546becdd2c1584$__9063ec46b6fc90610961906002903390600401615316565b60206040518083038186803b15801561097957600080fd5b505af415801561098d573d6000803e3d6000fd5b505050506040513d601f19601f820116820180604052508101906109b1919061533d565b6109d65760405162461bcd60e51b81526004016109cd90615358565b60405180910390fd5b600060046000016000848152602001908152602001600020604051806080016040529081600082016040518060e00160405290816000820160009054906101000a900461ffff1661ffff1661ffff1681526020016000820160029054906101000a90046001600160401b03166001600160401b03166001600160401b0316815260200160008201600a9054906101000a900461ffff1661ffff1661ffff16815260200160008201600c9054906101000a900464ffffffffff1664ffffffffff1664ffffffffff1681526020016000820160119054906101000a900464ffffffffff1664ffffffffff1664ffffffffff1681526020016000820160169054906101000a900465ffffffffffff1665ffffffffffff1665ffffffffffff16815260200160008201601c9054906101000a900463ffffffff1663ffffffff1663ffffffff16815250508152602001600182016040518060e00160405290816000820160009054906101000a900464ffffffffff1664ffffffffff1664ffffffffff1681526020016000820160059054906101000a900465ffffffffffff1665ffffffffffff1665ffffffffffff16815260200160008201600b9054906101000a900465ffffffffffff1665ffffffffffff1665ffffffffffff1681526020016000820160119054906101000a900465ffffffffffff1665ffffffffffff1665ffffffffffff1681526020016000820160179054906101000a900465ffffffffffff1665ffffffffffff1665ffffffffffff16815260200160008201601d9054906101000a900461ffff1661ffff1661ffff16815260200160008201601f9054906101000a900460ff1660ff1660ff1681525050815260200160028201604051806102000160405290816000820160009054906101000a900461ffff1661ffff1661ffff1681526020016000820160029054906101000a900460ff1660ff1660ff1681526020016000820160039054906101000a900460ff1660ff1660ff1681526020016000820160049054906101000a900461ffff1661ffff1661ffff1681526020016000820160069054906101000a900461ffff1661ffff1661ffff1681526020016000820160089054906101000a900461ffff1661ffff1661ffff16815260200160008201600a9054906101000a900460ff1615151515815260200160008201600b9054906101000a900460ff1615151515815260200160008201600c9054906101000a900460ff1615151515815260200160008201600d9054906101000a900460ff1615151515815260200160008201600e9054906101000a900460ff1660ff1660ff16815260200160008201600f9054906101000a900460ff1660ff1660ff1681526020016000820160109054906101000a900460ff1660ff1660ff1681526020016000820160119054906101000a900460ff1660ff1660ff1681526020016000820160129054906101000a900460ff1660ff1660ff16815260200160018201600280602002604051908101604052809291908260028015610e7c576020028201916000905b82829054906101000a900464ffffffffff1664ffffffffff1681526020019060050190602082600401049283019260010382029150808411610e3d5790505b505050505081525050815260200160048201548152505090506000600160009054906101000a90046001600160a01b03166001600160a01b031663a61adc286040518163ffffffff1660e01b815260040160206040518083038186803b158015610ee557600080fd5b505afa158015610ef9573d6000803e3d6000fd5b505050506040513d601f19601f82011682018060405250810190610f1d919061539e565b82516040908101519051634846203760e01b815261ffff90911660048201526001600160a01b03919091169063484620379060240160206040518083038186803b158015610f6a57600080fd5b505afa158015610f7e573d6000803e3d6000fd5b505050506040513d601f19601f82011682018060405250810190610fa291906153bb565b60405163d1296c8f60e01b8152600481019190915273__$9d2c69e94fee47b9774dc8db4aa5c0bbec$__9063d1296c8f906024016102206040518083038186803b158015610fef57600080fd5b505af4158015611003573d6000803e3d6000fd5b505050506040513d601f19601f8201168201806040525081019061102791906155a9565b60405163fe3aba2760e01b815290915073__$c69e6785922941bfe0f11afdbfcce85492$__9063fe3aba27906110679060049088908690899084016155c6565b60e06040518083038186803b15801561107f57600080fd5b505af4158015611093573d6000803e3d6000fd5b505050506040513d601f19601f820116820180604052508101906110b791906157bd565b6020830152604051839085907f2eed72fdf855f1461258147d82bc92c0cec2d5d72f85c0471ce349f51b37d95d90600090a350505050565b6040805160e081018252600080825260208201819052818301819052606082018190526080820181905260a0820181905260c08201529051635eeb98eb60e01b8152600480820152602481018490526044810183905273__$c69e6785922941bfe0f11afdbfcce85492$__90635eeb98eb9060640160e06040518083038186803b15801561117c57600080fd5b505af4158015611190573d6000803e3d6000fd5b505050506040513d601f19601f820116820180604052508101906111b491906157e4565b90505b92915050565b604051633b11adbf60e21b815260009073__$364aad554dc80380f414546becdd2c1584$__9063ec46b6fc906111fa906002903390600401615316565b60206040518083038186803b15801561121257600080fd5b505af4158015611226573d6000803e3d6000fd5b505050506040513d601f19601f8201168201806040525081019061124a919061533d565b6112665760405162461bcd60e51b81526004016109cd90615358565b60405163a64ee9bd60e01b815273__$c69e6785922941bfe0f11afdbfcce85492$__9063a64ee9bd906112a190600490879087908301615897565b60e06040518083038186803b1580156112b957600080fd5b505af41580156112cd573d6000803e3d6000fd5b505050506040513d601f19601f820116820180604052508101906112f19190615951565b92508173__$c69e6785922941bfe0f11afdbfcce85492$__63f138788e856040518263ffffffff1660e01b815260040161132b919061596d565b60206040518083038186803b15801561134357600080fd5b505af4158015611357573d6000803e3d6000fd5b505050506040513d601f19601f8201168201806040525081019061137b91906153bb565b6040517f3ac733a5e01b133fe59ace4c20e40ab1916d571ff364ec4819dc2951be83642e90600090a350506020015190565b604051630c6fabf960e01b8152600860048201526024810182905260009073__$7a4ed30ec9e2427a80f3902cbd8b50441b$__90630c6fabf9906044015b60206040518083038186803b15801561140357600080fd5b505af4158015611417573d6000803e3d6000fd5b505050506040513d601f19601f820116820180604052508101906111b791906153bb565b60405163e8c0cc1d60e01b81526002600482015260009073__$364aad554dc80380f414546becdd2c1584$__9063e8c0cc1d906024015b60206040518083038186803b15801561148a57600080fd5b505af415801561149e573d6000803e3d6000fd5b505050506040513d601f19601f820116820180604052508101906114c2919061597b565b905090565b6040805160608082018352600080835260208301528183015290516341335f3560e01b8152600480820152602481018490526044810183905273__$c69e6785922941bfe0f11afdbfcce85492$__906341335f359060640160006040518083038186803b15801561153757600080fd5b505af415801561154b573d6000803e3d6000fd5b505050506040513d6000823e601f3d908101601f191682016040526111b491908101906159f3565b604051633b11adbf60e21b815273__$364aad554dc80380f414546becdd2c1584$__9063ec46b6fc906115ad906002903390600401615316565b60206040518083038186803b1580156115c557600080fd5b505af41580156115d9573d6000803e3d6000fd5b505050506040513d601f19601f820116820180604052508101906115fd919061533d565b8061167e57506001546040516335d2155560e11b81523360048201526001600160a01b0390911690636ba42aaa9060240160206040518083038186803b15801561164657600080fd5b505afa15801561165a573d6000803e3d6000fd5b505050506040513d601f19601f8201168201806040525081019061167e919061533d565b61169a5760405162461bcd60e51b81526004016109cd90615a9b565b604051631cfcf5bb60e01b8152600860048201526024810182905273__$7a4ed30ec9e2427a80f3902cbd8b50441b$__90631cfcf5bb9060440160006040518083038186803b1580156116ec57600080fd5b505af4158015611700573d6000803e3d6000fd5b50506040518392507f40e1f721dc027d7b46727280f238c5329a60edf78761142a44e0079a184038b29150600090a250565b73__$364aad554dc80380f414546becdd2c1584$__6382daafaa600284846117586142b6565b6040516001600160e01b031960e087901b16815260048101949094526024840192909252604483015264ffffffffff16606482015260840160006040518083038186803b1580156117a857600080fd5b505af41580156117bc573d6000803e3d6000fd5b505050505050565b604051633b11adbf60e21b815273__$364aad554dc80380f414546becdd2c1584$__9063ec46b6fc906117fe906002903390600401615316565b60206040518083038186803b15801561181657600080fd5b505af415801561182a573d6000803e3d6000fd5b505050506040513d601f19601f8201168201806040525081019061184e919061533d565b61186a5760405162461bcd60e51b81526004016109cd90615358565b604051630f6aaa3d60e31b815260086004820152602481018390526044810182905273__$7a4ed30ec9e2427a80f3902cbd8b50441b$__90637b5551e89060640160206040518083038186803b1580156118c357600080fd5b505af41580156118d7573d6000803e3d6000fd5b505050506040513d601f19601f820116820180604052508101906118fb919061533d565b1561192e57604051819083907f8df12027acaa8fd5048ef73602c642f80b2ed947f5e5a493497dc4cfa4de00c990600090a35b5050565b73__$364aad554dc80380f414546becdd2c1584$__636320d75e600284846117586142b6565b604051633b11adbf60e21b815273__$364aad554dc80380f414546becdd2c1584$__9063ec46b6fc90611992906002903390600401615316565b60206040518083038186803b1580156119aa57600080fd5b505af41580156119be573d6000803e3d6000fd5b505050506040513d601f19601f820116820180604052508101906119e2919061533d565b80611a6357506001546040516335d2155560e11b81523360048201526001600160a01b0390911690636ba42aaa9060240160206040518083038186803b158015611a2b57600080fd5b505afa158015611a3f573d6000803e3d6000fd5b505050506040513d601f19601f82011682018060405250810190611a63919061533d565b611a7f5760405162461bcd60e51b81526004016109cd90615a9b565b60405163a96535f760e01b815273__$7a4ed30ec9e2427a80f3902cbd8b50441b$__9063a96535f790611ab9906008908590600401615ac6565b60006040518083038186803b158015611ad157600080fd5b505af4158015611ae5573d6000803e3d6000fd5b50506040516307adc09360e11b815273__$7a4ed30ec9e2427a80f3902cbd8b50441b$__9250630f5b81269150611b20908490600401615307565b60206040518083038186803b158015611b3857600080fd5b505af4158015611b4c573d6000803e3d6000fd5b505050506040513d601f19601f82011682018060405250810190611b7091906153bb565b6040517f40e1f721dc027d7b46727280f238c5329a60edf78761142a44e0079a184038b290600090a250565b604051633b11adbf60e21b815273__$364aad554dc80380f414546becdd2c1584$__9063ec46b6fc90611bd6906002903390600401615316565b60206040518083038186803b158015611bee57600080fd5b505af4158015611c02573d6000803e3d6000fd5b505050506040513d601f19601f82011682018060405250810190611c26919061533d565b80611ca757506001546040516335d2155560e11b81523360048201526001600160a01b0390911690636ba42aaa9060240160206040518083038186803b158015611c6f57600080fd5b505afa158015611c83573d6000803e3d6000fd5b505050506040513d601f19601f82011682018060405250810190611ca7919061533d565b611cc35760405162461bcd60e51b81526004016109cd90615a9b565b604051630aa0aacd60e11b815260048082015260248101849052604481018390526064810182905273__$c69e6785922941bfe0f11afdbfcce85492$__90631541559a9060840160006040518083038186803b158015611d2257600080fd5b505af4158015611d36573d6000803e3d6000fd5b50506040518392508591507fae42f3be1ee887ec3af249092d8ce9d9a13ac3c2a8e40639341a77ac2e012de390600090a3505050565b73__$364aad554dc80380f414546becdd2c1584$__63c51b295f600283611d916142b6565b6040516001600160e01b031960e086901b1681526004810193909352602483019190915264ffffffffff16604482015260640160006040518083038186803b158015611ddc57600080fd5b505af4158015611df0573d6000803e3d6000fd5b5050505050565b604051631d62ca6b60e11b81526004808201526024810182905260009073__$c69e6785922941bfe0f11afdbfcce85492$__90633ac594d6906044015b60206040518083038186803b158015611e4c57600080fd5b505af4158015611e60573d6000803e3d6000fd5b505050506040513d601f19601f820116820180604052508101906111b7919061533d565b604051633b11adbf60e21b815273__$364aad554dc80380f414546becdd2c1584$__9063ec46b6fc90611ebe906002903390600401615316565b60206040518083038186803b158015611ed657600080fd5b505af4158015611eea573d6000803e3d6000fd5b505050506040513d601f19601f82011682018060405250810190611f0e919061533d565b80611fb3575073__$364aad554dc80380f414546becdd2c1584$__63fe2710866002611f386142b6565b6040516001600160e01b031960e085901b168152600481019290925264ffffffffff16602482015260440160206040518083038186803b158015611f7b57600080fd5b505af4158015611f8f573d6000803e3d6000fd5b505050506040513d601f19601f82011682018060405250810190611fb3919061533d565b61201e5760405162461bcd60e51b815260206004820152603660248201527f41432e6f776e65724f72446972656374426f6f6b65657065723a206e6569746860448201527532b91037bbb732b9103737b9103137b7b5b2b2b832b960511b60648201526084016109cd565b73__$364aad554dc80380f414546becdd2c1584$__639b4510de6002836120436142b6565b6040516001600160e01b031960e086901b1681526004810193909352602483019190915264ffffffffff16604482015260640160006040518083038186803b15801561208e57600080fd5b505af41580156120a2573d6000803e3d6000fd5b505050507ff2735f34b69be1e6342dea95f9162f84d0db925fab655ca9f1f312ac8cbfc99d816040516120d791815260200190565b60405180910390a150565b604051633b11adbf60e21b815260009073__$364aad554dc80380f414546becdd2c1584$__9063ec46b6fc9061211f906002903390600401615316565b60206040518083038186803b15801561213757600080fd5b505af415801561214b573d6000803e3d6000fd5b505050506040513d601f19601f8201168201806040525081019061216f919061533d565b61218b5760405162461bcd60e51b81526004016109cd90615358565b612193614519565b6001815261ffff8516604082015264ffffffffff8381166060830152841660808201526121c081876111bd565b9695505050505050565b73__$364aad554dc80380f414546becdd2c1584$__63ee98b313600284846117586142b6565b604051633b11adbf60e21b815273__$364aad554dc80380f414546becdd2c1584$__9063ec46b6fc9061222a906002903390600401615316565b60206040518083038186803b15801561224257600080fd5b505af4158015612256573d6000803e3d6000fd5b505050506040513d601f19601f8201168201806040525081019061227a919061533d565b6122965760405162461bcd60e51b81526004016109cd90615358565b6040516350a1179960e01b81526004808201526024810185905260448101849052606481018390526084810182905273__$c69e6785922941bfe0f11afdbfcce85492$__906350a117999060a40160206040518083038186803b1580156122fc57600080fd5b505af4158015612310573d6000803e3d6000fd5b505050506040513d601f19601f82011682018060405250810190612334919061533d565b50604080518481526020810184905290810182905284907f3e23c378c06ec59e11c122258c99a9ada1318ed2d864c4eee514bcd853151f2f9060600160405180910390a250505050565b60405163735f272760e11b8152600860048201526024810182905260009073__$7a4ed30ec9e2427a80f3902cbd8b50441b$__9063e6be4e4e906044016113eb565b604051633e9ace7f60e11b81526004808201526024810182905260009073__$c69e6785922941bfe0f11afdbfcce85492$__90637d359cfe90604401611e34565b604051633b11adbf60e21b815273__$364aad554dc80380f414546becdd2c1584$__9063ec46b6fc9061243b906002903390600401615316565b60206040518083038186803b15801561245357600080fd5b505af4158015612467573d6000803e3d6000fd5b505050506040513d601f19601f8201168201806040525081019061248b919061533d565b6124a75760405162461bcd60e51b81526004016109cd90615358565b604051630363eeeb60e01b81526004808201526024810183905260009073__$c69e6785922941bfe0f11afdbfcce85492$__90630363eeeb906044016104006040518083038186803b1580156124fc57600080fd5b505af4158015612510573d6000803e3d6000fd5b505050506040513d601f19601f820116820180604052508101906125349190615adb565b80515190915061ffff1660041461258d5760405162461bcd60e51b815260206004820152601960248201527f4d4d2e45413a2077726f6e6720747970654f664d6f74696f6e0000000000000060448201526064016109cd565b600061259c8989898989614310565b90506125a9848285611b9c565b6125b488888861434d565b156125f4576040516001815281907f90d27aa223d991b1f5ce114c8bd3a03525a9f3e05799b7b66fb9f431df931f139060200160405180910390a261262b565b6040516000815281907f90d27aa223d991b1f5ce114c8bd3a03525a9f3e05799b7b66fb9f431df931f139060200160405180910390a25b505050505050505050565b604051633b11adbf60e21b815273__$364aad554dc80380f414546becdd2c1584$__9063ec46b6fc90612670906002903390600401615316565b60206040518083038186803b15801561268857600080fd5b505af415801561269c573d6000803e3d6000fd5b505050506040513d601f19601f820116820180604052508101906126c0919061533d565b6126dc5760405162461bcd60e51b81526004016109cd90615358565b604051636be8496f60e01b81523360048201526001600160a01b03821690636be8496f90602401600060405180830381600087803b15801561271d57600080fd5b505af1158015612731573d6000803e3d6000fd5b50506040516001600160a01b03841681527f64dd6e84044f0067086012335dcfab3188db6615b5cc7debf18c9a621ebd5d91925060200190506120d7565b6040805160a081018252600080825260208201819052818301819052606080830191909152608082015290516322576ef960e11b8152600480820152602481018490526044810183905273__$c69e6785922941bfe0f11afdbfcce85492$__906344aeddf29060640160006040518083038186803b1580156127f057600080fd5b505af4158015612804573d6000803e3d6000fd5b505050506040513d6000823e601f3d908101601f191682016040526111b49190810190615b3a565b604051633b11adbf60e21b815260009073__$364aad554dc80380f414546becdd2c1584$__9063ec46b6fc90612869906002903390600401615316565b60206040518083038186803b15801561288157600080fd5b505af4158015612895573d6000803e3d6000fd5b505050506040513d601f19601f820116820180604052508101906128b9919061533d565b6128d55760405162461bcd60e51b81526004016109cd90615358565b6128dd614519565b6002815261ffff8416604082015264ffffffffff831660608201819052608082015261290981866111bd565b9150505b9392505050565b60405163574ed54360e11b81526008600482015260009073__$7a4ed30ec9e2427a80f3902cbd8b50441b$__9063ae9daa86906024015b60206040518083038186803b15801561296357600080fd5b505af4158015612977573d6000803e3d6000fd5b505050506040513d601f19601f820116820180604052508101906114c291906153bb565b604051633b11adbf60e21b815273__$364aad554dc80380f414546becdd2c1584$__9063ec46b6fc906129d5906002903390600401615316565b60206040518083038186803b1580156129ed57600080fd5b505af4158015612a01573d6000803e3d6000fd5b505050506040513d601f19601f82011682018060405250810190612a25919061533d565b80612aa657506001546040516335d2155560e11b81523360048201526001600160a01b0390911690636ba42aaa9060240160206040518083038186803b158015612a6e57600080fd5b505afa158015612a82573d6000803e3d6000fd5b505050506040513d601f19601f82011682018060405250810190612aa6919061533d565b612ac25760405162461bcd60e51b81526004016109cd90615a9b565b604051630e8d204f60e21b815260086004820152602481018390526044810182905260009073__$7a4ed30ec9e2427a80f3902cbd8b50441b$__90633a34813c9060640160206040518083038186803b158015612b1e57600080fd5b505af4158015612b32573d6000803e3d6000fd5b505050506040513d601f19601f82011682018060405250810190612b5691906153bb565b60405190915081907f6b1bd5dd4ffcc55f7d91178fbadb5f9e2d6a7942ff1535e43d9bf92f4f47e59390600090a2505050565b604051630f07232560e01b8152600260048201526001600160a01b038216602482015233604482015273__$364aad554dc80380f414546becdd2c1584$__90630f0723259060640160006040518083038186803b158015612be957600080fd5b505af4158015612bfd573d6000803e3d6000fd5b50506040516001600160a01b03841681527fe435cbeab64e4eae6497b9d8289704bd709d624a80704ef3ca9af777534bc6ec925060200190506120d7565b604051636b01b91b60e11b8152600860048201526024810182905260609073__$7a4ed30ec9e2427a80f3902cbd8b50441b$__9063d60372369060440160006040518083038186803b158015612c9057600080fd5b505af4158015612ca4573d6000803e3d6000fd5b505050506040513d6000823e601f3d908101601f191682016040526111b79190810190615c51565b604051634e1deb8b60e01b8152600860048201526024810182905260009073__$7a4ed30ec9e2427a80f3902cbd8b50441b$__90634e1deb8b90604401611e34565b604051635421a02760e01b81526008600482015260609073__$7a4ed30ec9e2427a80f3902cbd8b50441b$__90635421a0279060240160006040518083038186803b158015612d5c57600080fd5b505af4158015612d70573d6000803e3d6000fd5b505050506040513d6000823e601f3d908101601f191682016040526114c29190810190615d32565b604051632a3be56b60e21b815260026004820152602481018390526044810182905260009073__$364aad554dc80380f414546becdd2c1584$__9063a8ef95ac906064015b60206040518083038186803b158015612df557600080fd5b505af4158015612e09573d6000803e3d6000fd5b505050506040513d601f19601f820116820180604052508101906111b4919061533d565b604051632f4d90f760e01b8152600860048201526024810182905260609073__$7a4ed30ec9e2427a80f3902cbd8b50441b$__90632f4d90f79060440160006040518083038186803b158015612e8257600080fd5b505af4158015612e96573d6000803e3d6000fd5b505050506040513d6000823e601f3d908101601f191682016040526111b79190810190615d32565b60405163055e32f160e11b81526008600482015260609073__$7a4ed30ec9e2427a80f3902cbd8b50441b$__90630abc65e29060240160006040518083038186803b158015612f0c57600080fd5b505af4158015612f20573d6000803e3d6000fd5b505050506040513d6000823e601f3d908101601f191682016040526114c29190810190615dc0565b73__$364aad554dc80380f414546becdd2c1584$__639b48160c600283612f6d6142b6565b6040516001600160e01b031960e086901b1681526004810193909352602483019190915264ffffffffff16604482015260640160006040518083038186803b158015612fb857600080fd5b505af4158015612fcc573d6000803e3d6000fd5b505050507f8b6f40f36b4ae8cc5f55e895036457c43da4ab1f80f58c46f5ff0d72a650033b816040516120d791815260200190565b604051633b11adbf60e21b815273__$364aad554dc80380f414546becdd2c1584$__9063ec46b6fc9061303b906002903390600401615316565b60206040518083038186803b15801561305357600080fd5b505af4158015613067573d6000803e3d6000fd5b505050506040513d601f19601f8201168201806040525081019061308b919061533d565b6130a75760405162461bcd60e51b81526004016109cd90615358565b604051632ff6d49160e21b8152600480820152602481018690526044810182905260648101859052608481018490526001600160a01b03831660a482015273__$c69e6785922941bfe0f11afdbfcce85492$__9063bfdb52449060c40160206040518083038186803b15801561311c57600080fd5b505af4158015613130573d6000803e3d6000fd5b505050506040513d601f19601f82011682018060405250810190613154919061533d565b15611df0578381867fb965bea85bac4cc500b2313003c13f639d5e21aca4edd1e830b5ce70ea881a508660405161318d91815260200190565b60405180910390a45050505050565b60405163987ad15360e01b81526002600482015260009073__$364aad554dc80380f414546becdd2c1584$__9063987ad15390602401611472565b6040516307b445ef60e21b81526008600482015260609073__$7a4ed30ec9e2427a80f3902cbd8b50441b$__90631ed117bc906024015b60006040518083038186803b15801561322657600080fd5b505af415801561323a573d6000803e3d6000fd5b505050506040513d6000823e601f3d908101601f191682016040526114c29190810190615c51565b73__$364aad554dc80380f414546becdd2c1584$__63cc0d511b600283611d916142b6565b6040516366e6822360e11b8152600860048201526024810182905260009073__$7a4ed30ec9e2427a80f3902cbd8b50441b$__9063cdcd044690604401611e34565b60405163d7dfe4f560e01b815260086004820152602481018390526044810182905260009073__$7a4ed30ec9e2427a80f3902cbd8b50441b$__9063d7dfe4f590606401612ddd565b6040516305f7f47f60e51b815260048082015260248101849052604481018390526064810182905260009073__$c69e6785922941bfe0f11afdbfcce85492$__9063befe8fe09060840160206040518083038186803b15801561337457600080fd5b505af4158015613388573d6000803e3d6000fd5b505050506040513d601f19601f820116820180604052508101906133ac919061533d565b949350505050565b6040516378a3d56560e11b8152600480820152602481018390526044810182905260009073__$c69e6785922941bfe0f11afdbfcce85492$__9063f147aaca9060640160206040518083038186803b15801561340f57600080fd5b505af4158015613423573d6000803e3d6000fd5b505050506040513d601f19601f820116820180604052508101906111b491906153bb565b604051633b11adbf60e21b815260009073__$364aad554dc80380f414546becdd2c1584$__9063ec46b6fc90613484906002903390600401615316565b60206040518083038186803b15801561349c57600080fd5b505af41580156134b0573d6000803e3d6000fd5b505050506040513d601f19601f820116820180604052508101906134d4919061533d565b6134f05760405162461bcd60e51b81526004016109cd90615358565b60408051633bcc83c360e11b81526004808201526024810185905283516001600160401b0390811660448301526020850151811660648301529184015182166084820152606084015190911660a482015273__$c69e6785922941bfe0f11afdbfcce85492$__9063779907869060c40160206040518083038186803b15801561357857600080fd5b505af415801561358c573d6000803e3d6000fd5b505050506040513d601f19601f820116820180604052508101906135b09190615e50565b90508060ff16837f09dabc8247f652d3170a3738595d35365582b55eebeee44e1059d2981852648360405160405180910390a392915050565b60405163cc526e6b60e01b81526004808201526024810182905260009073__$c69e6785922941bfe0f11afdbfcce85492$__9063cc526e6b90604401611e34565b604051633b11adbf60e21b815273__$364aad554dc80380f414546becdd2c1584$__9063ec46b6fc90613664906002903390600401615316565b60206040518083038186803b15801561367c57600080fd5b505af4158015613690573d6000803e3d6000fd5b505050506040513d601f19601f820116820180604052508101906136b4919061533d565b6136d05760405162461bcd60e51b81526004016109cd90615358565b604051630f6aaa3d60e31b815260086004820152602481018490526044810183905273__$7a4ed30ec9e2427a80f3902cbd8b50441b$__90637b5551e89060640160206040518083038186803b15801561372957600080fd5b505af415801561373d573d6000803e3d6000fd5b505050506040513d601f19601f82011682018060405250810190613761919061533d565b156137a4576040805183815260208101839052849186917f87b8f479d198217a8c89161520d8294e7e652356dfb1dbd7b5edc487ecf8b41e910160405180910390a35b50505050565b6137b2614555565b604051630363eeeb60e01b81526004808201526024810183905273__$c69e6785922941bfe0f11afdbfcce85492$__90630363eeeb906044016104006040518083038186803b15801561380457600080fd5b505af4158015613818573d6000803e3d6000fd5b505050506040513d601f19601f820116820180604052508101906111b79190615adb565b604051631e7572ad60e11b81526008600482015260609073__$7a4ed30ec9e2427a80f3902cbd8b50441b$__90633ceae55a9060240161320e565b6040516338d1980760e21b81526004808201526024810182905260009073__$c69e6785922941bfe0f11afdbfcce85492$__9063e346601c90604401611e34565b604051633b11adbf60e21b815260009073__$364aad554dc80380f414546becdd2c1584$__9063ec46b6fc906138f5906002903390600401615316565b60206040518083038186803b15801561390d57600080fd5b505af4158015613921573d6000803e3d6000fd5b505050506040513d601f19601f82011682018060405250810190613945919061533d565b6139615760405162461bcd60e51b81526004016109cd90615358565b613969614519565b6004815261ffff8916604082015264ffffffffff838116606083015284166080820152600061399b8a8a8a8a8a614310565b90506139a782826111bd565b9a9950505050505050505050565b604051633b11adbf60e21b815273__$364aad554dc80380f414546becdd2c1584$__9063ec46b6fc906139ef906002903390600401615316565b60206040518083038186803b158015613a0757600080fd5b505af4158015613a1b573d6000803e3d6000fd5b505050506040513d601f19601f82011682018060405250810190613a3f919061533d565b80613ac057506001546040516335d2155560e11b81523360048201526001600160a01b0390911690636ba42aaa9060240160206040518083038186803b158015613a8857600080fd5b505afa158015613a9c573d6000803e3d6000fd5b505050506040513d601f19601f82011682018060405250810190613ac0919061533d565b613adc5760405162461bcd60e51b81526004016109cd90615a9b565b6040516329e7cbdf60e01b8152600860048201526024810182905273__$7a4ed30ec9e2427a80f3902cbd8b50441b$__906329e7cbdf9060440160206040518083038186803b158015613b2e57600080fd5b505af4158015613b42573d6000803e3d6000fd5b505050506040513d601f19601f82011682018060405250810190613b66919061533d565b15613b975760405181907fe8c64f4381287aebaa1af0fc4393402f518289dba624a7bc351a825d332173f290600090a25b50565b604051630186f31360e41b8152600860048201526024810182905260009073__$7a4ed30ec9e2427a80f3902cbd8b50441b$__9063186f313090604401611e34565b6040516307621e5360e01b81526004808201526024810185905260448101849052606481018390526001600160a01b038216608482015260009073__$c69e6785922941bfe0f11afdbfcce85492$__906307621e539060a40160206040518083038186803b158015613c4d57600080fd5b505af4158015613c61573d6000803e3d6000fd5b505050506040513d601f19601f82011682018060405250810190613c859190615e6b565b95945050505050565b604051633b11adbf60e21b815260009073__$364aad554dc80380f414546becdd2c1584$__9063ec46b6fc90613ccb906002903390600401615316565b60206040518083038186803b158015613ce357600080fd5b505af4158015613cf7573d6000803e3d6000fd5b505050506040513d601f19601f82011682018060405250810190613d1b919061533d565b613d375760405162461bcd60e51b81526004016109cd90615358565b613d3f614519565b6003815261ffff8516604082015264ffffffffff8381166060830152841660808201526121c0816001600160a01b0388166111bd565b604051633af572cb60e01b81526008600482015260009073__$7a4ed30ec9e2427a80f3902cbd8b50441b$__90633af572cb9060240161294b565b604051636cdd0edf60e11b815260026004820152602481018590526001600160a01b038416604482015273__$364aad554dc80380f414546becdd2c1584$__9063d9ba1dbe9060640160006040518083038186803b158015613e1157600080fd5b505af4158015613e25573d6000803e3d6000fd5b50505050613e328261442b565b613e3b8161449e565b604080518581526001600160a01b038581166020830152848116828401528316606082015290517f3abb2418c66fe32ba9c883030a75ce583971d9af9192b9b74e44e67c5e6c8c1f9181900360800190a150505050565b60405163b34299c960e01b8152600480820152602481018390526044810182905260009073__$c69e6785922941bfe0f11afdbfcce85492$__9063b34299c990606401612ddd565b6040805161012081018252600080825260208201819052818301819052606082018190526080820181905260a0820181905260c0820181905260e08201819052610100820152905163027fbbbb60e21b8152600860048201526024810183905273__$7a4ed30ec9e2427a80f3902cbd8b50441b$__906309feeeec906044016101206040518083038186803b158015613f7257600080fd5b505af4158015613f86573d6000803e3d6000fd5b505050506040513d601f19601f820116820180604052508101906111b79190615e88565b60405163cd1a58a760e01b8152600860048201526024810182905260009073__$7a4ed30ec9e2427a80f3902cbd8b50441b$__9063cd1a58a790604401611e34565b604051633c3e56c160e11b81526002600482015260009073__$364aad554dc80380f414546becdd2c1584$__9063787cad829060240160206040518083038186803b15801561403a57600080fd5b505af415801561404e573d6000803e3d6000fd5b505050506040513d601f19601f820116820180604052508101906114c2919061539e565b600254600160f01b900460ff166001146140ce5760405162461bcd60e51b815260206004820152601760248201527f41432e4c433a20446f632069732066696e616c697a656400000000000000000060448201526064016109cd565b73__$364aad554dc80380f414546becdd2c1584$__63c51b295f6002684174746f726e65797360b81b6140ff6142b6565b6040516001600160e01b031960e086901b1681526004810193909352602483019190915264ffffffffff16604482015260640160006040518083038186803b15801561414a57600080fd5b505af415801561415e573d6000803e3d6000fd5b50505050600273__$364aad554dc80380f414546becdd2c1584$__639b4510de9091600061418a6142b6565b6040516001600160e01b031960e086901b1681526004810193909352602483019190915264ffffffffff16604482015260640160006040518083038186803b1580156141d557600080fd5b505af41580156141e9573d6000803e3d6000fd5b50505050600273__$364aad554dc80380f414546becdd2c1584$__639b48160c909160006142156142b6565b6040516001600160e01b031960e086901b1681526004810193909352602483019190915264ffffffffff16604482015260640160006040518083038186803b15801561426057600080fd5b505af4158015614274573d6000803e3d6000fd5b50506002805460ff60f01b1916600160f11b17905550506040517f35012b512309c322acf68632cd6cb702ff0e1d776fbe9394e38ffc13b434fe7590600090a1565b60008054604051636ae3b70d60e11b81523360048201526001600160a01b039091169063d5c76e1a90602401602060405180830381600087803b1580156142fc57600080fd5b505af115801561149e573d6000803e3d6000fd5b6000858585858560405160200161432b959493929190615ed1565b60408051601f1981840301815291905280516020909101209695505050505050565b6000805b84518110156144235784818151811061436c5761436c615fb3565b60200260200101516001600160a01b031684828151811061438f5761438f615fb3565b60200260200101518483815181106143a9576143a9615fb3565b60200260200101516040516143be9190615fc9565b60006040518083038185875af1925050503d80600081146143fb576040519150601f19603f3d011682016040523d82523d6000602084013e614400565b606091505b50508092505081614411575061290d565b8061441b81615fe5565b915050614351565b509392505050565b6000546001600160a01b03161561447c5760405162461bcd60e51b815260206004820152601560248201527430b63932b0b23c9039b2ba103932b3a1b2b73a32b960591b60448201526064016109cd565b600080546001600160a01b0319166001600160a01b0392909216919091179055565b6001546001600160a01b0316156144f75760405162461bcd60e51b815260206004820152601960248201527f616c7265616479207365742067656e6572616c4b65657065720000000000000060448201526064016109cd565b600180546001600160a01b0319166001600160a01b0392909216919091179055565b6040805160e081018252600080825260208201819052918101829052606081018290526080810182905260a0810182905260c081019190915290565b6040518060800160405280614568614519565b81526040805160e08101825260008082526020828101829052928201819052606082018190526080820181905260a0820181905260c082015291019081526020016145b16145be565b8152602001600081525090565b6040805161020081018252600080825260208201819052918101829052606081018290526080810182905260a0810182905260c0810182905260e08101829052610100810182905261012081018290526101408101829052610160810182905261018081018290526101a081018290526101c08101919091526101e08101614644614649565b905290565b60405180604001604052806002906020820280368337509192915050565b6000806040838503121561467a57600080fd5b50508035926020909101359150565b634e487b7160e01b600052604160045260246000fd5b60405160e081016001600160401b03811182821017156146c1576146c1614689565b60405290565b60405161012081016001600160401b03811182821017156146c1576146c1614689565b604051608081016001600160401b03811182821017156146c1576146c1614689565b60405161020081016001600160401b03811182821017156146c1576146c1614689565b60405160a081016001600160401b03811182821017156146c1576146c1614689565b604051601f8201601f191681016001600160401b038111828210171561477957614779614689565b604052919050565b61ffff81168114613b9757600080fd5b803561479c81614781565b919050565b6001600160401b0381168114613b9757600080fd5b64ffffffffff81168114613b9757600080fd5b803561479c816147b6565b65ffffffffffff81168114613b9757600080fd5b803561479c816147d4565b63ffffffff81168114613b9757600080fd5b803561479c816147f3565b60008082840361010081121561482557600080fd5b60e081121561483357600080fd5b5061483c61469f565b833561484781614781565b81526020840135614857816147a1565b6020820152604084013561486a81614781565b6040820152606084013561487d816147b6565b606082015261488e608085016147c9565b608082015261489f60a085016147e8565b60a08201526148b060c08501614805565b60c08201529460e0939093013593505050565b6000602082840312156148d557600080fd5b5035919050565b600060208083526080830163ffffffff855116828501526001600160401b0382860151166040850152604085015160608086015281815180845260a0870191508483019350600092505b808310156149465783518252928401926001929092019190840190614926565b509695505050505050565b6000610120828403121561496457600080fd5b61496c6146c7565b61497583614791565b815261498360208401614791565b6020820152614994604084016147c9565b60408201526149a5606084016147c9565b60608201526149b6608084016147e8565b60808201526149c760a084016147e8565b60a08201526149d860c08401614791565b60c08201526149e960e08401614791565b60e08201526101006149fc818501614791565b908201529392505050565b600080600060608486031215614a1c57600080fd5b505081359360208301359350604090920135919050565b60008060008060808587031215614a4957600080fd5b5050823594602084013594506040840135936060013592509050565b60006001600160401b03821115614a7e57614a7e614689565b5060051b60200190565b6001600160a01b0381168114613b9757600080fd5b600082601f830112614aae57600080fd5b81356020614ac3614abe83614a65565b614751565b82815260059290921b84018101918181019086841115614ae257600080fd5b8286015b848110156149465780358352918301918301614ae6565b6000601f8381840112614b0f57600080fd5b82356020614b1f614abe83614a65565b82815260059290921b85018101918181019087841115614b3e57600080fd5b8287015b84811015614bd45780356001600160401b0380821115614b625760008081fd5b818a0191508a603f830112614b775760008081fd5b85820135604082821115614b8d57614b8d614689565b614b9e828b01601f19168901614751565b92508183528c81838601011115614bb55760008081fd5b8181850189850137506000908201870152845250918301918301614b42565b50979650505050505050565b600080600080600080600060e0888a031215614bfb57600080fd5b873596506020808901356001600160401b0380821115614c1a57600080fd5b818b0191508b601f830112614c2e57600080fd5b8135614c3c614abe82614a65565b81815260059190911b8301840190848101908e831115614c5b57600080fd5b938501935b82851015614c82578435614c7381614a88565b82529385019390850190614c60565b9a50505060408b0135925080831115614c9a57600080fd5b614ca68c848d01614a9d565b975060608b0135925080831115614cbc57600080fd5b5050614cca8a828b01614afd565b979a969950949760808101359660a0820135965060c090910135945092505050565b600060208284031215614cfe57600080fd5b813561290d81614a88565b6000602080835260c0830164ffffffffff8086511683860152828601516001600160401b038082166040880152806040890151166060880152505063ffffffff6060870151166080860152608086015160a08087015282815180855260e0880191508583019450600092505b80831015614bd457845184168252938501936001929092019190850190614d75565b600081518084526020808501945080840160005b83811015614dc757815187529582019590820190600101614dab565b509495945050505050565b6020815260006111b46020830184614d97565b61ffff8082511683528060208301511660208401525064ffffffffff60408201511660408301526060810151614e24606084018264ffffffffff169052565b506080810151614e3e608084018265ffffffffffff169052565b5060a0810151614e5860a084018265ffffffffffff169052565b5060c0810151614e6e60c084018261ffff169052565b5060e0810151614e8460e084018261ffff169052565b506101008181015161ffff8116848301526137a4565b6020808252825182820181905260009190848201906040850190845b81811015614edd57614ec9838551614de5565b928401926101209290920191600101614eb6565b50909695505050505050565b6020808252825182820181905260009190848201906040850190845b81811015614edd57835183529284019291840191600101614f05565b600080600080600060a08688031215614f3957600080fd5b8535945060208601359350604086013592506060860135614f5981614a88565b949793965091946080013592915050565b60008082840360a0811215614f7e57600080fd5b833592506080601f1982011215614f9457600080fd5b50614f9d6146ea565b6020840135614fab816147a1565b81526040840135614fbb816147a1565b60208201526060840135614fce816147a1565b60408201526080840135614fe1816147a1565b6060820152919491935090915050565b61ffff8082511683526001600160401b03602083015116602084015280604083015116604084015250606081015164ffffffffff8082166060850152806080840151166080850152505065ffffffffffff60a08201511660a083015263ffffffff60c08201511660c08301525050565b8060005b60028110156137a457815164ffffffffff16845260209384019390910190600101615065565b805161ffff16825260208101516150a7602084018260ff169052565b5060408101516150bc604084018260ff169052565b5060608101516150d2606084018261ffff169052565b5060808101516150e8608084018261ffff169052565b5060a08101516150fe60a084018261ffff169052565b5060c081015161511260c084018215159052565b5060e081015161512660e084018215159052565b5061010081810151151590830152610120808201511515908301526101408082015160ff9081169184019190915261016080830151821690840152610180808301518216908401526101a0808301518216908401526101c080830151909116908301526101e0808201516137a482850182615061565b6000610400820190506151b0828451614ff1565b602083810151805164ffffffffff1660e08501529081015165ffffffffffff908116610100850152604082015181166101208501526060820151811661014085015260808201511661016084015260a081015161ffff81166101808501525060c0015160ff81166101a08401525060408301516152316101c084018261508b565b5060608301516103e083015292915050565b6000806000806080858703121561525957600080fd5b843593506020850135925060408501359150606085013561527981614a88565b939692955090935050565b6000806000806080858703121561529a57600080fd5b84356152a581614a88565b966020860135965060408601359560600135945092505050565b600080600080608085870312156152d557600080fd5b8435935060208501356152e781614a88565b925060408501356152f781614a88565b9150606085013561527981614a88565b61012081016111b78284614de5565b9182526001600160a01b0316602082015260400190565b8051801515811461479c57600080fd5b60006020828403121561534f57600080fd5b6111b48261532d565b60208082526026908201527f41432e6f6e6c794469726563744b65657065723a206e6f74206469726563742060408201526535b2b2b832b960d11b606082015260800190565b6000602082840312156153b057600080fd5b815161290d81614a88565b6000602082840312156153cd57600080fd5b5051919050565b805161479c81614781565b805160ff8116811461479c57600080fd5b805161479c816147b6565b600082601f83011261540c57600080fd5b604051604081018181106001600160401b038211171561542e5761542e614689565b806040525080604084018581111561544557600080fd5b845b8181101561546857805161545a816147b6565b835260209283019201615447565b509195945050505050565b6000610220828403121561548657600080fd5b61548e61470c565b9050615499826153d4565b81526154a7602083016153df565b60208201526154b8604083016153df565b60408201526154c9606083016153d4565b60608201526154da608083016153d4565b60808201526154eb60a083016153d4565b60a08201526154fc60c0830161532d565b60c082015261550d60e0830161532d565b60e082015261010061552081840161532d565b9082015261012061553283820161532d565b908201526101406155448382016153df565b908201526101606155568382016153df565b908201526101806155688382016153df565b908201526101a061557a8382016153df565b908201526101c061558c8382016153df565b908201526101e061559f848483016153fb565b9082015292915050565b600061022082840312156155bc57600080fd5b6111b48383615473565b84815260208101849052825161ffff1660408201526102808101602084015160ff8116606084015250604084015160ff8116608084015250606084015161ffff811660a084015250608084015161ffff811660c08401525060a084015161ffff811660e08401525060c08401516101006156438185018315159052565b60e0860151915061012061565a8186018415159052565b908601519150610140906156718583018415159052565b86015191506101606156868582018415159052565b9086015191506101809061569e8583018460ff169052565b86015191506101a06156b48582018460ff169052565b9086015191506101c0906156cc8583018460ff169052565b86015191506101e06156e28582018460ff169052565b9086015160ff166102008501528501519050615702610220840182615061565b508261026083015295945050505050565b805161479c816147d4565b600060e0828403121561573057600080fd5b61573861469f565b90508151615745816147b6565b81526020820151615755816147d4565b60208201526040820151615768816147d4565b6040820152606082015161577b816147d4565b6060820152608082015161578e816147d4565b608082015260a08201516157a181614781565b60a08201526157b260c083016153df565b60c082015292915050565b600060e082840312156157cf57600080fd5b6111b4838361571e565b805161479c816147a1565b600060e082840312156157f657600080fd5b60405160e081018181106001600160401b038211171561581857615818614689565b6040528251615826816147b6565b8152615834602084016153df565b60208201526040830151615847816147f3565b6040820152606083015161585a816147a1565b6060820152608083015161586d816147d4565b608082015261587e60a084016157d9565b60a082015260c083015160c08201528091505092915050565b83815261012081016158ac6020830185614ff1565b82610100830152949350505050565b600060e082840312156158cd57600080fd5b6158d561469f565b905081516158e281614781565b815260208201516158f2816147a1565b6020820152604082015161590581614781565b60408201526060820151615918816147b6565b6060820152608082015161592b816147b6565b608082015260a082015161593e816147d4565b60a082015260c08201516157b2816147f3565b600060e0828403121561596357600080fd5b6111b483836158bb565b60e081016111b78284614ff1565b60006020828403121561598d57600080fd5b815161290d816147b6565b600082601f8301126159a957600080fd5b815160206159b9614abe83614a65565b82815260059290921b840181019181810190868411156159d857600080fd5b8286015b8481101561494657805183529183019183016159dc565b600060208284031215615a0557600080fd5b81516001600160401b0380821115615a1c57600080fd5b9083019060608286031215615a3057600080fd5b604051606081018181108382111715615a4b57615a4b614689565b6040528251615a59816147f3565b81526020830151615a69816147a1565b6020820152604083015182811115615a8057600080fd5b615a8c87828601615998565b60408301525095945050505050565b60208082526011908201527020a19737b59d103737ba1025b2b2b832b960791b604082015260600190565b828152610140810161290d6020830184614de5565b60006104008284031215615aee57600080fd5b615af66146ea565b615b0084846158bb565b8152615b0f8460e0850161571e565b6020820152615b22846101c08501615473565b60408201526103e09290920151606083015250919050565b60006020808385031215615b4d57600080fd5b82516001600160401b0380821115615b6457600080fd5b9084019060a08287031215615b7857600080fd5b615b8061472f565b8251615b8b816147b6565b815282840151615b9a816147a1565b818501526040830151615bac816147a1565b60408201526060830151615bbf816147f3565b6060820152608083015182811115615bd657600080fd5b80840193505086601f840112615beb57600080fd5b82519150615bfb614abe83614a65565b82815260059290921b83018401918481019088841115615c1a57600080fd5b938501935b83851015615c41578451615c32816147b6565b82529385019390850190615c1f565b6080830152509695505050505050565b600060208284031215615c6357600080fd5b81516001600160401b03811115615c7957600080fd5b6133ac84828501615998565b60006101208284031215615c9857600080fd5b615ca06146c7565b9050615cab826153d4565b8152615cb9602083016153d4565b6020820152615cca604083016153f0565b6040820152615cdb606083016153f0565b6060820152615cec60808301615713565b6080820152615cfd60a08301615713565b60a0820152615d0e60c083016153d4565b60c0820152615d1f60e083016153d4565b60e082015261010061559f8184016153d4565b60006020808385031215615d4557600080fd5b82516001600160401b03811115615d5b57600080fd5b8301601f81018513615d6c57600080fd5b8051615d7a614abe82614a65565b8181526101209182028301840191848201919088841115615d9a57600080fd5b938501935b83851015614bd457615db18986615c85565b83529384019391850191615d9f565b60006020808385031215615dd357600080fd5b82516001600160401b03811115615de957600080fd5b8301601f81018513615dfa57600080fd5b8051615e08614abe82614a65565b81815260059190911b82018301908381019087831115615e2757600080fd5b928401925b82841015615e4557835182529284019290840190615e2c565b979650505050505050565b600060208284031215615e6257600080fd5b6111b4826153df565b600060208284031215615e7d57600080fd5b815161290d816147a1565b60006101208284031215615e9b57600080fd5b6111b48383615c85565b60005b83811015615ec0578181015183820152602001615ea8565b838111156137a45750506000910152565b600060a08201878352602060a08185015281885180845260c086019150828a01935060005b81811015615f1b5784516001600160a01b031683529383019391830191600101615ef6565b50508481036040860152615f2f8189614d97565b92505083820360608501528186518084528284019150828160051b85010183890160005b83811015615f9957601f198088850301865282518051808652615f7b818a88018b8501615ea5565b96880196601f01909116939093018601925090850190600101615f53565b505080955050505050508260808301529695505050505050565b634e487b7160e01b600052603260045260246000fd5b60008251615fdb818460208701615ea5565b9190910192915050565b600060001982141561600757634e487b7160e01b600052601160045260246000fd5b506001019056fea2646970667358221220608aa2b649e0e450b438f25a103b5161c665f968bc07904cdd1156820bdec62f64736f6c63430008080033",
    "sourcePath": "/Users/kaptain/github.com/hardhat/comboox/contracts/books/bod/BookOfDirectors.sol",
    "compiler": {
        "name": "solc",
        "version": "0.8.8+commit.dddeac2f"
    },
    "functionHashes": {
        "abandonRole(bytes32)": "3da9a600",
        "castVote(uint256,uint256,bytes32,address,uint256)": "88125cf7",
        "createMotion((uint16,uint64,uint16,uint40,uint40,uint48,uint32),uint256)": "0e6d37cc",
        "createPosition(bytes32)": "171c5c04",
        "entrustDelegate(uint256,uint256,uint256,uint256)": "585aebc6",
        "execAction(uint256,address[],uint256[],bytes[],bytes32,uint256,uint256)": "5c2753bf",
        "execResolution(uint256,uint256,uint256)": "2d3eaa40",
        "finalized()": "b3f05b97",
        "getBallot(uint256,uint256)": "0d358757",
        "getBoardSeatsOccupied(uint256)": "590022aa",
        "getBoardSeatsQuota(uint256)": "102e6960",
        "getBookeeper()": "ed211023",
        "getCaseOfAttitude(uint256,uint256)": "165dd5ec",
        "getDelegateOf(uint256,uint256)": "9a51cdfc",
        "getDirectorsList()": "8988c0cf",
        "getFullPosInfo()": "7cd699f3",
        "getGeneralCounsel()": "103f6edd",
        "getLeavesWeightAtDate(uint256,uint256,uint256,address)": "c41f49b0",
        "getMotion(uint256)": "ad15aad2",
        "getNumOfDirectors()": "695b2f60",
        "getNumOfOfficers()": "d5ae463a",
        "getOffList()": "af3cc2d8",
        "getOfficer(uint256)": "7f1c7d61",
        "getOwner()": "893d20e8",
        "getPosInHand(uint256)": "6ed7e039",
        "getPosList()": "7f3e404a",
        "getPosition(uint256)": "eb02c301",
        "getVoterOfDelegateMap(uint256,uint256)": "61df743f",
        "grantRole(bytes32,uint256)": "1b6ea9f9",
        "hasPosition(uint256,uint256)": "931a675a",
        "hasRole(bytes32,uint256)": "7e063c5a",
        "init(uint256,address,address,address)": "dc890da9",
        "isDirector(uint256)": "9258effe",
        "isOccupied(uint256)": "ec2fbbff",
        "isOfficer(uint256)": "6f51df87",
        "isPassed(uint256)": "49403183",
        "isProposed(uint256)": "59269f82",
        "isVoted(uint256,uint256)": "ea56efc6",
        "isVotedFor(uint256,uint256,uint256)": "9371bd1e",
        "lockContents()": "f045a769",
        "nominateOfficer(uint256,uint256,uint256,uint256)": "4f6413ac",
        "posExist(uint256)": "c1416b0c",
        "proposeAction(uint256,address[],uint256[],bytes[],bytes32,uint256,uint256)": "bbfd607d",
        "proposeDoc(address,uint256,uint256,uint256)": "cd43b165",
        "proposeMotion(uint256,uint256)": "096f3abe",
        "proposeToRemoveOfficer(uint256,uint256,uint256)": "65a47e81",
        "quitPosition(uint256,uint256)": "1ad1ea44",
        "removeDirectKeeper(address)": "5d7ad88f",
        "removeOfficer(uint256,uint256,uint256,uint256)": "a8780799",
        "removePosition(uint256)": "c0467422",
        "renounceRole(bytes32)": "8bb9c5bf",
        "revokeRole(bytes32,uint256)": "19d61ad9",
        "setDirectKeeper(address)": "6be8496f",
        "setGeneralCounsel(uint256)": "4a14beb1",
        "setOwner(uint256)": "8041494e",
        "setRoleAdmin(bytes32,uint256)": "5171ebd4",
        "takePosition(uint256,uint256)": "6998d28d",
        "updatePosition((uint16,uint16,uint40,uint40,uint48,uint48,uint16,uint16,uint16))": "2700b4cc",
        "voteCounting(uint256,(uint64,uint64,uint64,uint64))": "a0743e71",
        "voteEnded(uint256)": "b43a401d",
        "voteStarted(uint256)": "a1e1d621"
    },
    "gasEstimates": {
        "creation": {
            "codeDepositCost": "4928800",
            "executionCost": "5838",
            "totalCost": "4934638"
        },
        "external": {
            "abandonRole(bytes32)": "infinite",
            "castVote(uint256,uint256,bytes32,address,uint256)": "infinite",
            "createMotion((uint16,uint64,uint16,uint40,uint40,uint48,uint32),uint256)": "infinite",
            "createPosition(bytes32)": "infinite",
            "entrustDelegate(uint256,uint256,uint256,uint256)": "infinite",
            "execAction(uint256,address[],uint256[],bytes[],bytes32,uint256,uint256)": "infinite",
            "execResolution(uint256,uint256,uint256)": "infinite",
            "finalized()": "2439",
            "getBallot(uint256,uint256)": "infinite",
            "getBoardSeatsOccupied(uint256)": "infinite",
            "getBoardSeatsQuota(uint256)": "infinite",
            "getBookeeper()": "infinite",
            "getCaseOfAttitude(uint256,uint256)": "infinite",
            "getDelegateOf(uint256,uint256)": "infinite",
            "getDirectorsList()": "infinite",
            "getFullPosInfo()": "infinite",
            "getGeneralCounsel()": "infinite",
            "getLeavesWeightAtDate(uint256,uint256,uint256,address)": "infinite",
            "getMotion(uint256)": "infinite",
            "getNumOfDirectors()": "infinite",
            "getNumOfOfficers()": "infinite",
            "getOffList()": "infinite",
            "getOfficer(uint256)": "infinite",
            "getOwner()": "infinite",
            "getPosInHand(uint256)": "infinite",
            "getPosList()": "infinite",
            "getPosition(uint256)": "infinite",
            "getVoterOfDelegateMap(uint256,uint256)": "infinite",
            "grantRole(bytes32,uint256)": "infinite",
            "hasPosition(uint256,uint256)": "infinite",
            "hasRole(bytes32,uint256)": "infinite",
            "init(uint256,address,address,address)": "infinite",
            "isDirector(uint256)": "infinite",
            "isOccupied(uint256)": "infinite",
            "isOfficer(uint256)": "infinite",
            "isPassed(uint256)": "infinite",
            "isProposed(uint256)": "infinite",
            "isVoted(uint256,uint256)": "infinite",
            "isVotedFor(uint256,uint256,uint256)": "infinite",
            "lockContents()": "infinite",
            "nominateOfficer(uint256,uint256,uint256,uint256)": "infinite",
            "posExist(uint256)": "infinite",
            "proposeAction(uint256,address[],uint256[],bytes[],bytes32,uint256,uint256)": "infinite",
            "proposeDoc(address,uint256,uint256,uint256)": "infinite",
            "proposeMotion(uint256,uint256)": "infinite",
            "proposeToRemoveOfficer(uint256,uint256,uint256)": "infinite",
            "quitPosition(uint256,uint256)": "infinite",
            "removeDirectKeeper(address)": "infinite",
            "removeOfficer(uint256,uint256,uint256,uint256)": "infinite",
            "removePosition(uint256)": "infinite",
            "renounceRole(bytes32)": "infinite",
            "revokeRole(bytes32,uint256)": "infinite",
            "setDirectKeeper(address)": "infinite",
            "setGeneralCounsel(uint256)": "infinite",
            "setOwner(uint256)": "infinite",
            "setRoleAdmin(bytes32,uint256)": "infinite",
            "takePosition(uint256,uint256)": "infinite",
            "updatePosition((uint16,uint16,uint40,uint40,uint48,uint48,uint16,uint16,uint16))": "infinite",
            "voteCounting(uint256,(uint64,uint64,uint64,uint64))": "infinite",
            "voteEnded(uint256)": "infinite",
            "voteStarted(uint256)": "infinite"
        }
    }
}