{
    "contractName": "BookOfDirectors",
    "abi": [
        {
            "anonymous": false,
            "inputs": [
                {
                    "indexed": true,
                    "internalType": "uint256",
                    "name": "acct",
                    "type": "uint256"
                },
                {
                    "indexed": false,
                    "internalType": "uint8",
                    "name": "title",
                    "type": "uint8"
                },
                {
                    "indexed": false,
                    "internalType": "uint256",
                    "name": "appointer",
                    "type": "uint256"
                },
                {
                    "indexed": false,
                    "internalType": "uint48",
                    "name": "startDate",
                    "type": "uint48"
                },
                {
                    "indexed": false,
                    "internalType": "uint48",
                    "name": "endDate",
                    "type": "uint48"
                }
            ],
            "name": "AddDirector",
            "type": "event"
        },
        {
            "anonymous": false,
            "inputs": [
                {
                    "indexed": true,
                    "internalType": "uint256",
                    "name": "acct",
                    "type": "uint256"
                },
                {
                    "indexed": false,
                    "internalType": "uint8",
                    "name": "title",
                    "type": "uint8"
                },
                {
                    "indexed": false,
                    "internalType": "uint256",
                    "name": "appointer",
                    "type": "uint256"
                }
            ],
            "name": "AppointOfficer",
            "type": "event"
        },
        {
            "anonymous": false,
            "inputs": [
                {
                    "indexed": true,
                    "internalType": "uint256",
                    "name": "motionId",
                    "type": "uint256"
                },
                {
                    "indexed": false,
                    "internalType": "uint256",
                    "name": "caller",
                    "type": "uint256"
                },
                {
                    "indexed": false,
                    "internalType": "uint8",
                    "name": "attitude",
                    "type": "uint8"
                },
                {
                    "indexed": false,
                    "internalType": "bytes32",
                    "name": "sigHash",
                    "type": "bytes32"
                }
            ],
            "name": "CastVote",
            "type": "event"
        },
        {
            "anonymous": false,
            "inputs": [
                {
                    "indexed": true,
                    "internalType": "uint256",
                    "name": "motionId",
                    "type": "uint256"
                },
                {
                    "indexed": false,
                    "internalType": "uint256",
                    "name": "principal",
                    "type": "uint256"
                },
                {
                    "indexed": false,
                    "internalType": "uint256",
                    "name": "delegate",
                    "type": "uint256"
                },
                {
                    "indexed": false,
                    "internalType": "uint64",
                    "name": "weight",
                    "type": "uint64"
                }
            ],
            "name": "EntrustDelegate",
            "type": "event"
        },
        {
            "anonymous": false,
            "inputs": [
                {
                    "indexed": true,
                    "internalType": "uint256",
                    "name": "motionId",
                    "type": "uint256"
                },
                {
                    "indexed": false,
                    "internalType": "bool",
                    "name": "flag",
                    "type": "bool"
                }
            ],
            "name": "ExecuteAction",
            "type": "event"
        },
        {
            "anonymous": false,
            "inputs": [
                {
                    "indexed": false,
                    "internalType": "uint256",
                    "name": "owner",
                    "type": "uint256"
                },
                {
                    "indexed": false,
                    "internalType": "address",
                    "name": "directKeeper",
                    "type": "address"
                },
                {
                    "indexed": false,
                    "internalType": "address",
                    "name": "regCenter",
                    "type": "address"
                },
                {
                    "indexed": false,
                    "internalType": "address",
                    "name": "generalKeeper",
                    "type": "address"
                }
            ],
            "name": "Init",
            "type": "event"
        },
        {
            "anonymous": false,
            "inputs": [],
            "name": "LockContents",
            "type": "event"
        },
        {
            "anonymous": false,
            "inputs": [
                {
                    "indexed": true,
                    "internalType": "uint256",
                    "name": "motionId",
                    "type": "uint256"
                },
                {
                    "indexed": false,
                    "internalType": "uint256",
                    "name": "seqOfRule",
                    "type": "uint256"
                },
                {
                    "indexed": false,
                    "internalType": "uint256",
                    "name": "proposer",
                    "type": "uint256"
                },
                {
                    "indexed": false,
                    "internalType": "uint256",
                    "name": "executor",
                    "type": "uint256"
                }
            ],
            "name": "ProposeMotion",
            "type": "event"
        },
        {
            "anonymous": false,
            "inputs": [
                {
                    "indexed": true,
                    "internalType": "uint256",
                    "name": "acct",
                    "type": "uint256"
                }
            ],
            "name": "RemoveDirector",
            "type": "event"
        },
        {
            "anonymous": false,
            "inputs": [
                {
                    "indexed": false,
                    "internalType": "address",
                    "name": "keeper",
                    "type": "address"
                }
            ],
            "name": "SetDirectKeeper",
            "type": "event"
        },
        {
            "anonymous": false,
            "inputs": [
                {
                    "indexed": false,
                    "internalType": "uint256",
                    "name": "acct",
                    "type": "uint256"
                }
            ],
            "name": "SetGeneralCounsel",
            "type": "event"
        },
        {
            "anonymous": false,
            "inputs": [
                {
                    "indexed": false,
                    "internalType": "address",
                    "name": "gk",
                    "type": "address"
                }
            ],
            "name": "SetGeneralKeeper",
            "type": "event"
        },
        {
            "anonymous": false,
            "inputs": [
                {
                    "indexed": false,
                    "internalType": "uint8",
                    "name": "max",
                    "type": "uint8"
                }
            ],
            "name": "SetMaxQtyOfDirectors",
            "type": "event"
        },
        {
            "anonymous": false,
            "inputs": [
                {
                    "indexed": false,
                    "internalType": "uint256",
                    "name": "acct",
                    "type": "uint256"
                }
            ],
            "name": "SetOwner",
            "type": "event"
        },
        {
            "anonymous": false,
            "inputs": [
                {
                    "indexed": false,
                    "internalType": "address",
                    "name": "rc",
                    "type": "address"
                }
            ],
            "name": "SetRegCenter",
            "type": "event"
        },
        {
            "anonymous": false,
            "inputs": [
                {
                    "indexed": true,
                    "internalType": "uint256",
                    "name": "motionId",
                    "type": "uint256"
                },
                {
                    "indexed": false,
                    "internalType": "uint8",
                    "name": "state",
                    "type": "uint8"
                }
            ],
            "name": "VoteCounting",
            "type": "event"
        },
        {
            "inputs": [
                {
                    "internalType": "bytes32",
                    "name": "role",
                    "type": "bytes32"
                }
            ],
            "name": "abandonRole",
            "outputs": [],
            "stateMutability": "nonpayable",
            "type": "function"
        },
        {
            "inputs": [
                {
                    "internalType": "uint256",
                    "name": "seqOfVR",
                    "type": "uint256"
                },
                {
                    "internalType": "uint8",
                    "name": "title",
                    "type": "uint8"
                },
                {
                    "internalType": "uint256",
                    "name": "nominator",
                    "type": "uint256"
                },
                {
                    "internalType": "uint256",
                    "name": "candidate",
                    "type": "uint256"
                }
            ],
            "name": "appointOfficer",
            "outputs": [],
            "stateMutability": "nonpayable",
            "type": "function"
        },
        {
            "inputs": [
                {
                    "internalType": "uint256",
                    "name": "acct",
                    "type": "uint256"
                }
            ],
            "name": "boardSeatsOf",
            "outputs": [
                {
                    "internalType": "uint256",
                    "name": "",
                    "type": "uint256"
                }
            ],
            "stateMutability": "view",
            "type": "function"
        },
        {
            "inputs": [
                {
                    "internalType": "uint256",
                    "name": "motionId",
                    "type": "uint256"
                },
                {
                    "internalType": "uint256",
                    "name": "caller",
                    "type": "uint256"
                },
                {
                    "internalType": "uint8",
                    "name": "attitude",
                    "type": "uint8"
                },
                {
                    "internalType": "bytes32",
                    "name": "sigHash",
                    "type": "bytes32"
                }
            ],
            "name": "castVote",
            "outputs": [],
            "stateMutability": "nonpayable",
            "type": "function"
        },
        {
            "inputs": [],
            "name": "directors",
            "outputs": [
                {
                    "internalType": "uint256[]",
                    "name": "",
                    "type": "uint256[]"
                }
            ],
            "stateMutability": "view",
            "type": "function"
        },
        {
            "inputs": [
                {
                    "internalType": "uint256",
                    "name": "motionId",
                    "type": "uint256"
                },
                {
                    "internalType": "uint256",
                    "name": "principal",
                    "type": "uint256"
                },
                {
                    "internalType": "uint256",
                    "name": "delegate",
                    "type": "uint256"
                }
            ],
            "name": "entrustDelegate",
            "outputs": [],
            "stateMutability": "nonpayable",
            "type": "function"
        },
        {
            "inputs": [
                {
                    "internalType": "uint256",
                    "name": "seqOfVR",
                    "type": "uint256"
                },
                {
                    "internalType": "address[]",
                    "name": "targets",
                    "type": "address[]"
                },
                {
                    "internalType": "uint256[]",
                    "name": "values",
                    "type": "uint256[]"
                },
                {
                    "internalType": "bytes[]",
                    "name": "params",
                    "type": "bytes[]"
                },
                {
                    "internalType": "uint256",
                    "name": "caller",
                    "type": "uint256"
                },
                {
                    "internalType": "bytes32",
                    "name": "desHash",
                    "type": "bytes32"
                }
            ],
            "name": "execAction",
            "outputs": [
                {
                    "internalType": "uint256",
                    "name": "",
                    "type": "uint256"
                }
            ],
            "stateMutability": "nonpayable",
            "type": "function"
        },
        {
            "inputs": [],
            "name": "finalized",
            "outputs": [
                {
                    "internalType": "bool",
                    "name": "",
                    "type": "bool"
                }
            ],
            "stateMutability": "view",
            "type": "function"
        },
        {
            "inputs": [
                {
                    "internalType": "uint256",
                    "name": "motionId",
                    "type": "uint256"
                },
                {
                    "internalType": "uint256",
                    "name": "acct",
                    "type": "uint256"
                }
            ],
            "name": "getBallot",
            "outputs": [
                {
                    "components": [
                        {
                            "internalType": "uint40",
                            "name": "acct",
                            "type": "uint40"
                        },
                        {
                            "internalType": "uint8",
                            "name": "attitude",
                            "type": "uint8"
                        },
                        {
                            "internalType": "uint32",
                            "name": "head",
                            "type": "uint32"
                        },
                        {
                            "internalType": "uint64",
                            "name": "weight",
                            "type": "uint64"
                        },
                        {
                            "internalType": "uint48",
                            "name": "sigDate",
                            "type": "uint48"
                        },
                        {
                            "internalType": "uint64",
                            "name": "blocknumber",
                            "type": "uint64"
                        },
                        {
                            "internalType": "bytes32",
                            "name": "sigHash",
                            "type": "bytes32"
                        }
                    ],
                    "internalType": "struct BallotsBox.Ballot",
                    "name": "",
                    "type": "tuple"
                }
            ],
            "stateMutability": "view",
            "type": "function"
        },
        {
            "inputs": [],
            "name": "getBookeeper",
            "outputs": [
                {
                    "internalType": "address",
                    "name": "",
                    "type": "address"
                }
            ],
            "stateMutability": "view",
            "type": "function"
        },
        {
            "inputs": [
                {
                    "internalType": "uint256",
                    "name": "motionId",
                    "type": "uint256"
                },
                {
                    "internalType": "uint8",
                    "name": "atti",
                    "type": "uint8"
                }
            ],
            "name": "getCaseOfAttitude",
            "outputs": [
                {
                    "components": [
                        {
                            "internalType": "uint32",
                            "name": "sumOfHead",
                            "type": "uint32"
                        },
                        {
                            "internalType": "uint64",
                            "name": "sumOfWeight",
                            "type": "uint64"
                        },
                        {
                            "internalType": "uint40[]",
                            "name": "voters",
                            "type": "uint40[]"
                        }
                    ],
                    "internalType": "struct BallotsBox.Case",
                    "name": "",
                    "type": "tuple"
                }
            ],
            "stateMutability": "view",
            "type": "function"
        },
        {
            "inputs": [
                {
                    "internalType": "uint256",
                    "name": "motionId",
                    "type": "uint256"
                },
                {
                    "internalType": "uint256",
                    "name": "acct",
                    "type": "uint256"
                }
            ],
            "name": "getDelegateOf",
            "outputs": [
                {
                    "internalType": "uint40",
                    "name": "",
                    "type": "uint40"
                }
            ],
            "stateMutability": "view",
            "type": "function"
        },
        {
            "inputs": [
                {
                    "internalType": "uint256",
                    "name": "acct",
                    "type": "uint256"
                }
            ],
            "name": "getDirector",
            "outputs": [
                {
                    "components": [
                        {
                            "internalType": "uint8",
                            "name": "title",
                            "type": "uint8"
                        },
                        {
                            "internalType": "uint40",
                            "name": "acct",
                            "type": "uint40"
                        },
                        {
                            "internalType": "uint40",
                            "name": "appointer",
                            "type": "uint40"
                        },
                        {
                            "internalType": "uint48",
                            "name": "startDate",
                            "type": "uint48"
                        },
                        {
                            "internalType": "uint48",
                            "name": "endDate",
                            "type": "uint48"
                        }
                    ],
                    "internalType": "struct IBookOfDirectors.Officer",
                    "name": "",
                    "type": "tuple"
                }
            ],
            "stateMutability": "view",
            "type": "function"
        },
        {
            "inputs": [],
            "name": "getGeneralCounsel",
            "outputs": [
                {
                    "internalType": "uint40",
                    "name": "",
                    "type": "uint40"
                }
            ],
            "stateMutability": "view",
            "type": "function"
        },
        {
            "inputs": [
                {
                    "internalType": "uint256",
                    "name": "motionId",
                    "type": "uint256"
                }
            ],
            "name": "getHeadOfMotion",
            "outputs": [
                {
                    "components": [
                        {
                            "internalType": "uint8",
                            "name": "state",
                            "type": "uint8"
                        },
                        {
                            "internalType": "uint40",
                            "name": "proposer",
                            "type": "uint40"
                        },
                        {
                            "internalType": "uint40",
                            "name": "executor",
                            "type": "uint40"
                        },
                        {
                            "internalType": "uint48",
                            "name": "proposeDate",
                            "type": "uint48"
                        },
                        {
                            "internalType": "uint48",
                            "name": "shareRegDate",
                            "type": "uint48"
                        },
                        {
                            "internalType": "uint48",
                            "name": "voteStartDate",
                            "type": "uint48"
                        }
                    ],
                    "internalType": "struct MotionsRepo.Head",
                    "name": "head",
                    "type": "tuple"
                }
            ],
            "stateMutability": "view",
            "type": "function"
        },
        {
            "inputs": [],
            "name": "getOwner",
            "outputs": [
                {
                    "internalType": "uint40",
                    "name": "",
                    "type": "uint40"
                }
            ],
            "stateMutability": "view",
            "type": "function"
        },
        {
            "inputs": [
                {
                    "internalType": "uint256",
                    "name": "motionId",
                    "type": "uint256"
                },
                {
                    "internalType": "uint256",
                    "name": "acct",
                    "type": "uint256"
                }
            ],
            "name": "getVoterOfDelegateMap",
            "outputs": [
                {
                    "components": [
                        {
                            "internalType": "uint40",
                            "name": "delegate",
                            "type": "uint40"
                        },
                        {
                            "internalType": "uint64",
                            "name": "weight",
                            "type": "uint64"
                        },
                        {
                            "internalType": "uint64",
                            "name": "repWeight",
                            "type": "uint64"
                        },
                        {
                            "internalType": "uint32",
                            "name": "repHead",
                            "type": "uint32"
                        },
                        {
                            "internalType": "uint40[]",
                            "name": "principals",
                            "type": "uint40[]"
                        }
                    ],
                    "internalType": "struct DelegateMap.Voter",
                    "name": "",
                    "type": "tuple"
                }
            ],
            "stateMutability": "view",
            "type": "function"
        },
        {
            "inputs": [
                {
                    "internalType": "uint256",
                    "name": "motionId",
                    "type": "uint256"
                }
            ],
            "name": "getVotingRuleOfMotion",
            "outputs": [
                {
                    "components": [
                        {
                            "internalType": "uint16",
                            "name": "seq",
                            "type": "uint16"
                        },
                        {
                            "internalType": "uint8",
                            "name": "qtyOfSubRule",
                            "type": "uint8"
                        },
                        {
                            "internalType": "uint8",
                            "name": "seqOfSubRule",
                            "type": "uint8"
                        },
                        {
                            "internalType": "uint8",
                            "name": "authority",
                            "type": "uint8"
                        },
                        {
                            "internalType": "uint16",
                            "name": "headRatio",
                            "type": "uint16"
                        },
                        {
                            "internalType": "uint16",
                            "name": "amountRatio",
                            "type": "uint16"
                        },
                        {
                            "internalType": "bool",
                            "name": "onlyAttendance",
                            "type": "bool"
                        },
                        {
                            "internalType": "bool",
                            "name": "impliedConsent",
                            "type": "bool"
                        },
                        {
                            "internalType": "bool",
                            "name": "partyAsConsent",
                            "type": "bool"
                        },
                        {
                            "internalType": "bool",
                            "name": "againstShallBuy",
                            "type": "bool"
                        },
                        {
                            "internalType": "uint8",
                            "name": "shaExecDays",
                            "type": "uint8"
                        },
                        {
                            "internalType": "uint8",
                            "name": "reviewDays",
                            "type": "uint8"
                        },
                        {
                            "internalType": "uint8",
                            "name": "votingDays",
                            "type": "uint8"
                        },
                        {
                            "internalType": "uint8",
                            "name": "execDaysForPutOpt",
                            "type": "uint8"
                        },
                        {
                            "internalType": "uint40[3]",
                            "name": "vetoers",
                            "type": "uint40[3]"
                        }
                    ],
                    "internalType": "struct RulesParser.VotingRule",
                    "name": "m",
                    "type": "tuple"
                }
            ],
            "stateMutability": "view",
            "type": "function"
        },
        {
            "inputs": [
                {
                    "internalType": "bytes32",
                    "name": "role",
                    "type": "bytes32"
                },
                {
                    "internalType": "uint256",
                    "name": "acct",
                    "type": "uint256"
                }
            ],
            "name": "grantRole",
            "outputs": [],
            "stateMutability": "nonpayable",
            "type": "function"
        },
        {
            "inputs": [
                {
                    "internalType": "bytes32",
                    "name": "role",
                    "type": "bytes32"
                },
                {
                    "internalType": "uint256",
                    "name": "acct",
                    "type": "uint256"
                }
            ],
            "name": "hasRole",
            "outputs": [
                {
                    "internalType": "bool",
                    "name": "",
                    "type": "bool"
                }
            ],
            "stateMutability": "view",
            "type": "function"
        },
        {
            "inputs": [
                {
                    "internalType": "uint256",
                    "name": "owner",
                    "type": "uint256"
                },
                {
                    "internalType": "address",
                    "name": "directKeeper",
                    "type": "address"
                },
                {
                    "internalType": "address",
                    "name": "regCenter",
                    "type": "address"
                },
                {
                    "internalType": "address",
                    "name": "generalKeeper",
                    "type": "address"
                }
            ],
            "name": "init",
            "outputs": [],
            "stateMutability": "nonpayable",
            "type": "function"
        },
        {
            "inputs": [
                {
                    "internalType": "uint256",
                    "name": "acct",
                    "type": "uint256"
                }
            ],
            "name": "isDirector",
            "outputs": [
                {
                    "internalType": "bool",
                    "name": "",
                    "type": "bool"
                }
            ],
            "stateMutability": "view",
            "type": "function"
        },
        {
            "inputs": [
                {
                    "internalType": "uint256",
                    "name": "motionId",
                    "type": "uint256"
                }
            ],
            "name": "isExecuted",
            "outputs": [
                {
                    "internalType": "bool",
                    "name": "",
                    "type": "bool"
                }
            ],
            "stateMutability": "view",
            "type": "function"
        },
        {
            "inputs": [
                {
                    "internalType": "uint256",
                    "name": "acct",
                    "type": "uint256"
                }
            ],
            "name": "isOfficer",
            "outputs": [
                {
                    "internalType": "bool",
                    "name": "",
                    "type": "bool"
                }
            ],
            "stateMutability": "view",
            "type": "function"
        },
        {
            "inputs": [
                {
                    "internalType": "uint256",
                    "name": "motionId",
                    "type": "uint256"
                }
            ],
            "name": "isPassed",
            "outputs": [
                {
                    "internalType": "bool",
                    "name": "",
                    "type": "bool"
                }
            ],
            "stateMutability": "view",
            "type": "function"
        },
        {
            "inputs": [
                {
                    "internalType": "uint256",
                    "name": "motionId",
                    "type": "uint256"
                }
            ],
            "name": "isProposed",
            "outputs": [
                {
                    "internalType": "bool",
                    "name": "",
                    "type": "bool"
                }
            ],
            "stateMutability": "view",
            "type": "function"
        },
        {
            "inputs": [
                {
                    "internalType": "uint256",
                    "name": "motionId",
                    "type": "uint256"
                },
                {
                    "internalType": "uint256",
                    "name": "acct",
                    "type": "uint256"
                }
            ],
            "name": "isVoted",
            "outputs": [
                {
                    "internalType": "bool",
                    "name": "",
                    "type": "bool"
                }
            ],
            "stateMutability": "view",
            "type": "function"
        },
        {
            "inputs": [
                {
                    "internalType": "uint256",
                    "name": "motionId",
                    "type": "uint256"
                },
                {
                    "internalType": "uint256",
                    "name": "acct",
                    "type": "uint256"
                },
                {
                    "internalType": "uint8",
                    "name": "atti",
                    "type": "uint8"
                }
            ],
            "name": "isVotedFor",
            "outputs": [
                {
                    "internalType": "bool",
                    "name": "",
                    "type": "bool"
                }
            ],
            "stateMutability": "view",
            "type": "function"
        },
        {
            "inputs": [],
            "name": "lockContents",
            "outputs": [],
            "stateMutability": "nonpayable",
            "type": "function"
        },
        {
            "inputs": [],
            "name": "maxQtyOfDirectors",
            "outputs": [
                {
                    "internalType": "uint8",
                    "name": "",
                    "type": "uint8"
                }
            ],
            "stateMutability": "view",
            "type": "function"
        },
        {
            "inputs": [
                {
                    "internalType": "uint256",
                    "name": "motionId",
                    "type": "uint256"
                }
            ],
            "name": "motionExecuted",
            "outputs": [],
            "stateMutability": "nonpayable",
            "type": "function"
        },
        {
            "inputs": [
                {
                    "internalType": "uint256",
                    "name": "seqOfVR",
                    "type": "uint256"
                },
                {
                    "internalType": "uint8",
                    "name": "title",
                    "type": "uint8"
                },
                {
                    "internalType": "uint256",
                    "name": "nominator",
                    "type": "uint256"
                },
                {
                    "internalType": "uint256",
                    "name": "candidate",
                    "type": "uint256"
                }
            ],
            "name": "nominateOfficer",
            "outputs": [],
            "stateMutability": "nonpayable",
            "type": "function"
        },
        {
            "inputs": [
                {
                    "internalType": "uint256",
                    "name": "seqOfVR",
                    "type": "uint256"
                },
                {
                    "internalType": "address[]",
                    "name": "targets",
                    "type": "address[]"
                },
                {
                    "internalType": "uint256[]",
                    "name": "values",
                    "type": "uint256[]"
                },
                {
                    "internalType": "bytes[]",
                    "name": "params",
                    "type": "bytes[]"
                },
                {
                    "internalType": "bytes32",
                    "name": "desHash",
                    "type": "bytes32"
                },
                {
                    "internalType": "uint256",
                    "name": "proposer",
                    "type": "uint256"
                },
                {
                    "internalType": "uint256",
                    "name": "executor",
                    "type": "uint256"
                }
            ],
            "name": "proposeAction",
            "outputs": [],
            "stateMutability": "nonpayable",
            "type": "function"
        },
        {
            "inputs": [
                {
                    "internalType": "address",
                    "name": "doc",
                    "type": "address"
                },
                {
                    "internalType": "uint256",
                    "name": "seqOfVR",
                    "type": "uint256"
                },
                {
                    "internalType": "uint256",
                    "name": "proposer",
                    "type": "uint256"
                },
                {
                    "internalType": "uint256",
                    "name": "executor",
                    "type": "uint256"
                }
            ],
            "name": "proposeDoc",
            "outputs": [],
            "stateMutability": "nonpayable",
            "type": "function"
        },
        {
            "inputs": [
                {
                    "internalType": "uint256",
                    "name": "motionId",
                    "type": "uint256"
                },
                {
                    "internalType": "uint256",
                    "name": "seqOfVR",
                    "type": "uint256"
                },
                {
                    "internalType": "uint256",
                    "name": "proposer",
                    "type": "uint256"
                },
                {
                    "internalType": "uint256",
                    "name": "executor",
                    "type": "uint256"
                }
            ],
            "name": "proposeMotion",
            "outputs": [],
            "stateMutability": "nonpayable",
            "type": "function"
        },
        {
            "inputs": [],
            "name": "qtyOfDirectors",
            "outputs": [
                {
                    "internalType": "uint16",
                    "name": "",
                    "type": "uint16"
                }
            ],
            "stateMutability": "view",
            "type": "function"
        },
        {
            "inputs": [
                {
                    "internalType": "uint256",
                    "name": "acct",
                    "type": "uint256"
                }
            ],
            "name": "removeDirector",
            "outputs": [],
            "stateMutability": "nonpayable",
            "type": "function"
        },
        {
            "inputs": [
                {
                    "internalType": "bytes32",
                    "name": "role",
                    "type": "bytes32"
                }
            ],
            "name": "renounceRole",
            "outputs": [],
            "stateMutability": "nonpayable",
            "type": "function"
        },
        {
            "inputs": [
                {
                    "internalType": "bytes32",
                    "name": "role",
                    "type": "bytes32"
                },
                {
                    "internalType": "uint256",
                    "name": "acct",
                    "type": "uint256"
                }
            ],
            "name": "revokeRole",
            "outputs": [],
            "stateMutability": "nonpayable",
            "type": "function"
        },
        {
            "inputs": [
                {
                    "internalType": "address",
                    "name": "keeper",
                    "type": "address"
                }
            ],
            "name": "setDirectKeeper",
            "outputs": [],
            "stateMutability": "nonpayable",
            "type": "function"
        },
        {
            "inputs": [
                {
                    "internalType": "uint256",
                    "name": "acct",
                    "type": "uint256"
                }
            ],
            "name": "setGeneralCounsel",
            "outputs": [],
            "stateMutability": "nonpayable",
            "type": "function"
        },
        {
            "inputs": [
                {
                    "internalType": "uint8",
                    "name": "max",
                    "type": "uint8"
                }
            ],
            "name": "setMaxQtyOfDirectors",
            "outputs": [],
            "stateMutability": "nonpayable",
            "type": "function"
        },
        {
            "inputs": [
                {
                    "internalType": "uint256",
                    "name": "acct",
                    "type": "uint256"
                }
            ],
            "name": "setOwner",
            "outputs": [],
            "stateMutability": "nonpayable",
            "type": "function"
        },
        {
            "inputs": [
                {
                    "internalType": "bytes32",
                    "name": "role",
                    "type": "bytes32"
                },
                {
                    "internalType": "uint256",
                    "name": "acct",
                    "type": "uint256"
                }
            ],
            "name": "setRoleAdmin",
            "outputs": [],
            "stateMutability": "nonpayable",
            "type": "function"
        },
        {
            "inputs": [
                {
                    "internalType": "uint256",
                    "name": "seqOfBSR",
                    "type": "uint256"
                },
                {
                    "internalType": "uint8",
                    "name": "title",
                    "type": "uint8"
                },
                {
                    "internalType": "uint256",
                    "name": "candidate",
                    "type": "uint256"
                },
                {
                    "internalType": "uint256",
                    "name": "nominator",
                    "type": "uint256"
                }
            ],
            "name": "takePosition",
            "outputs": [],
            "stateMutability": "nonpayable",
            "type": "function"
        },
        {
            "inputs": [
                {
                    "internalType": "uint256",
                    "name": "motionId",
                    "type": "uint256"
                }
            ],
            "name": "voteCounting",
            "outputs": [
                {
                    "internalType": "bool",
                    "name": "flag",
                    "type": "bool"
                }
            ],
            "stateMutability": "nonpayable",
            "type": "function"
        },
        {
            "inputs": [
                {
                    "internalType": "uint8",
                    "name": "title",
                    "type": "uint8"
                }
            ],
            "name": "whoIs",
            "outputs": [
                {
                    "internalType": "uint40",
                    "name": "",
                    "type": "uint40"
                }
            ],
            "stateMutability": "view",
            "type": "function"
        }
    ],
    "bytecode": "608060405234801561001057600080fd5b50615380806100206000396000f3fe608060405234801561001057600080fd5b50600436106102955760003560e01c806382405f4511610167578063d9732b81116100ce578063f045a76911610087578063f045a76914610898578063f117bdb7146108a0578063f5efdb26146108b3578063f8fb9e1d146108c6578063fe1bdff2146108d9578063ff77c055146108ec57600080fd5b8063d9732b811461078c578063db8b9a831461079f578063dc890da9146107b2578063e0231b81146107c5578063ea56efc614610838578063ed2110231461087857600080fd5b80639a51cdfc116101205780639a51cdfc1461070c578063aaf7bfc61461071f578063afd267641461073f578063b3f05b9714610752578063bbfd607d14610766578063cd43b1651461077957600080fd5b806382405f451461065a578063893d20e8146106985780638b741818146106a05780638bb9c5bf146106c65780638d5b6585146106d95780639258effe146106f957600080fd5b8063494031831161020b5780636be8496f116101c45780636be8496f146105cc5780636f51df87146105df578063709a5a101461060c57806376a6bf52146106215780637e063c5a146106345780638041494e1461064757600080fd5b806349403183146104285780634a14beb11461044b5780635171ebd41461045e57806359269f821461047157806361df743f1461048457806364525a0d146104a457600080fd5b806319d61ad91161025d57806319d61ad9146103a05780631b6ea9f9146103b3578063240a6438146103c65780632de32075146103e757806338cc78be146103fa5780633da9a6001461041557600080fd5b806304302b9a1461029a57806307eef1cc146102ca5780630d358757146102df578063103f6edd1461036f578063160392d71461038d575b600080fd5b600080526007602090815260008051602061532b8339815191525460405160ff9091168152015b60405180910390f35b6102dd6102d8366004614177565b6108ff565b005b6102f26102ed3660046141a9565b610c74565b6040516102c19190600060e08201905064ffffffffff835116825260ff602084015116602083015263ffffffff604084015116604083015260608301516001600160401b03808216606085015265ffffffffffff60808601511660808501528060a08601511660a0850152505060c083015160c083015292915050565b610377610d4e565b60405164ffffffffff90911681526020016102c1565b6102dd61039b3660046141cb565b610dda565b6102dd6103ae3660046141a9565b610fec565b6102dd6103c13660046141a9565b611080565b6103d96103d4366004614453565b6110a5565b6040519081526020016102c1565b6102dd6103f5366004614505565b6112b9565b610402611475565b60405161ffff90911681526020016102c1565b6102dd6104233660046141cb565b6114fb565b61043b6104363660046141cb565b61160d565b60405190151581526020016102c1565b6102dd6104593660046141cb565b611632565b6102dd61046c3660046141a9565b611822565b61043b61047f3660046141cb565b611847565b6104976104923660046141a9565b6118d5565b6040516102c19190614586565b6105606104b23660046141cb565b6040805160c081018252600080825260208201819052918101829052606081018290526080810182905260a081019190915250600090815260046020908152604091829020825160c081018452905460ff8116825264ffffffffff6101008204811693830193909352600160301b81049092169281019290925265ffffffffffff600160581b820481166060840152600160881b820481166080840152600160b81b9091041660a082015290565b6040516102c19190600060c08201905060ff8351168252602083015164ffffffffff80821660208501528060408601511660408501525050606083015165ffffffffffff80821660608501528060808601511660808501528060a08601511660a0850152505092915050565b6102dd6105da3660046145ed565b6119f5565b61043b6105ed3660046141cb565b600081815260076020526040902054610100900464ffffffffff161490565b610614611aa7565b6040516102c1919061463a565b61043b61062f3660046141cb565b611b31565b61043b6106423660046141a9565b611b3a565b6102dd6106553660046141cb565b611bd5565b61043b61066836600461464d565b600092835260046020908152604080852093855260059093019052912054600160281b900460ff90811691161490565b610377611dba565b6103d96106ae3660046141cb565b6000908152600a602052604090205463ffffffff1690565b6102dd6106d43660046141cb565b611df5565b6106ec6106e7366004614686565b611e4e565b6040516102c191906146b6565b61043b6107073660046141cb565b611f13565b61037761071a3660046141a9565b611f55565b61073261072d3660046141cb565b611ffa565b6040516102c1919061471e565b6102dd61074d36600461482e565b612173565b60028054600160f01b900460ff161461043b565b6102dd61077436600461486b565b612336565b6102dd610787366004614917565b612402565b6102dd61079a36600461482e565b6124ce565b6102dd6107ad36600461482e565b6125bc565b6102dd6107c0366004614952565b61296d565b6107d86107d33660046141cb565b612a50565b6040516102c19190600060a08201905060ff8351168252602083015164ffffffffff80821660208501528060408601511660408501525050606083015165ffffffffffff8082166060850152806080860151166080850152505092915050565b61043b6108463660046141a9565b600091825260046020908152604080842092845260059092019052902054600160901b900465ffffffffffff16151590565b610880612bbb565b6040516001600160a01b0390911681526020016102c1565b6102dd612c41565b6102dd6108ae3660046141cb565b612e5f565b6103776108c13660046149a5565b612f11565b61043b6108d43660046141cb565b612fd9565b6102dd6108e73660046149c2565b613270565b6102dd6108fa3660046149a5565b6134d9565b6001546040516335d2155560e11b81523360048201526001600160a01b0390911690636ba42aaa9060240160206040518083038186803b15801561094257600080fd5b505afa158015610956573d6000803e3d6000fd5b505050506040513d601f19601f8201168201806040525081019061097a91906149fe565b61099f5760405162461bcd60e51b815260040161099690614a19565b60405180910390fd5b6040516392f13c3f60e01b8152600560048201526024810185905273__$8c1a4844a0a0988ea2454cf87145a95df1$__906392f13c3f9060440160206040518083038186803b1580156109f157600080fd5b505af4158015610a05573d6000803e3d6000fd5b505050506040513d601f19601f82011682018060405250810190610a2991906149fe565b15610c265760008481526004602052604081209073__$9d2c69e94fee47b9774dc8db4aa5c0bbec$__638503d8d6610a5f6135c8565b6001600160a01b03166348462037886040518263ffffffff1660e01b8152600401610a8c91815260200190565b60206040518083038186803b158015610aa457600080fd5b505afa158015610ab8573d6000803e3d6000fd5b505050506040513d601f19601f82011682018060405250810190610adc9190614a44565b6040518263ffffffff1660e01b8152600401610afa91815260200190565b6102206040518083038186803b158015610b1357600080fd5b505af4158015610b27573d6000803e3d6000fd5b505050506040513d601f19601f82011682018060405250810190610b4b9190614b03565b604080518781526020810187905290810185905290915086907f102abc62b8c3148424781563c44df7db4171db4f83b87e45a09bfc3ff3dd18969060600160405180910390a260405163223a8eed60e11b815273__$c69e6785922941bfe0f11afdbfcce85492$__906344751dda90610bce908590859089908990600401614c26565b60206040518083038186803b158015610be657600080fd5b505af4158015610bfa573d6000803e3d6000fd5b505050506040513d601f19601f82011682018060405250810190610c1e91906149fe565b505050610c6e565b60405162461bcd60e51b815260206004820152601e60248201527f4d4d2e504d3a206d6f74696f6e20616c72656164792070726f706f73656400006044820152606401610996565b50505050565b6040805160e081018252600080825260208201819052918101829052606081018290526080810182905260a0810182905260c0810191909152506000828152600460209081526040808320848452600501825291829020825160e081018452815464ffffffffff8116825260ff600160281b8204169382019390935263ffffffff600160301b840416938101939093526001600160401b03600160501b83048116606085015265ffffffffffff600160901b8404166080850152600160c01b90920490911660a08301526001015460c08201525b92915050565b60405163e8c0cc1d60e01b81526002600482015260009073__$364aad554dc80380f414546becdd2c1584$__9063e8c0cc1d906024015b60206040518083038186803b158015610d9d57600080fd5b505af4158015610db1573d6000803e3d6000fd5b505050506040513d601f19601f82011682018060405250810190610dd59190614d53565b905090565b604051633b11adbf60e21b81526002600482015233602482015273__$364aad554dc80380f414546becdd2c1584$__9063ec46b6fc9060440160206040518083038186803b158015610e2b57600080fd5b505af4158015610e3f573d6000803e3d6000fd5b505050506040513d601f19601f82011682018060405250810190610e6391906149fe565b610e7f5760405162461bcd60e51b815260040161099690614d6e565b610e8881611f13565b15610fe95760008181526007602052604090205460ff1660011415610ed65760008052600760205260008051602061532b83398151915280546affffffffff00000000000019169055610f16565b60008181526007602052604090205460ff1660021415610f165760008052600760205260008051602061532b833981519152805465ffffffffff00191690555b6000818152600760205260409081902080546001600160b81b0319169055516392fd02df60e01b8152600860048201526024810182905273__$8c1a4844a0a0988ea2454cf87145a95df1$__906392fd02df9060440160206040518083038186803b158015610f8457600080fd5b505af4158015610f98573d6000803e3d6000fd5b505050506040513d601f19601f82011682018060405250810190610fbc91906149fe565b5060405181907fdba21057eb6032f8813df1a7832b2d302550d32ed0d024011568e17612a5529890600090a25b50565b73__$364aad554dc80380f414546becdd2c1584$__6382daafaa60028461101161361e565b6040516001600160e01b031960e086901b1681526004810193909352602483019190915264ffffffffff166044820152606481018490526084015b60006040518083038186803b15801561106457600080fd5b505af4158015611078573d6000803e3d6000fd5b505050505050565b73__$364aad554dc80380f414546becdd2c1584$__636320d75e60028461101161361e565b604051633b11adbf60e21b81526002600482015233602482015260009073__$364aad554dc80380f414546becdd2c1584$__9063ec46b6fc9060440160206040518083038186803b1580156110f957600080fd5b505af415801561110d573d6000803e3d6000fd5b505050506040513d601f19601f8201168201806040525081019061113191906149fe565b61114d5760405162461bcd60e51b815260040161099690614d6e565b600061115c8888888887613678565b600081815260046020526040902080549192509060ff166002146111c25760405162461bcd60e51b815260206004820152601860248201527f4d4d2e45413a20766f74696e67204e4f542070617373656400000000000000006044820152606401610996565b8054600160301b900464ffffffffff1685146112205760405162461bcd60e51b815260206004820152601a60248201527f4d4d2e45413a2063616c6c6572206e6f74206578656375746f720000000000006044820152606401610996565b61122b8888886136b5565b15611276576040516001815282907fc8744c074a42d37db7f38fa5954f2926e37ca8068b94c263efed1b4565066e469060200160405180910390a2805460ff191660061781556112ad565b6040516000815282907fc8744c074a42d37db7f38fa5954f2926e37ca8068b94c263efed1b4565066e469060200160405180910390a25b50979650505050505050565b604051633b11adbf60e21b81526002600482015233602482015273__$364aad554dc80380f414546becdd2c1584$__9063ec46b6fc9060440160206040518083038186803b15801561130a57600080fd5b505af415801561131e573d6000803e3d6000fd5b505050506040513d601f19601f8201168201806040525081019061134291906149fe565b61135e5760405162461bcd60e51b815260040161099690614d6e565b6000848152600460205260408120906113778286613793565b604051635063fbad60e11b8152600481018490526024810187905260ff861660448201526001600160401b03821660648201526084810185905290915073__$c69e6785922941bfe0f11afdbfcce85492$__9063a0c7f75a9060a40160206040518083038186803b1580156113eb57600080fd5b505af41580156113ff573d6000803e3d6000fd5b505050506040513d601f19601f8201168201806040525081019061142391906149fe565b15611078576040805186815260ff8616602082015290810184905286907f479d980d169d88df4cc262d98fe45a41bb84b9fec75d61e6724e28f103836c3f9060600160405180910390a2505050505050565b60405163c2b46a8560e01b81526008600482015260009073__$8c1a4844a0a0988ea2454cf87145a95df1$__9063c2b46a859060240160206040518083038186803b1580156114c357600080fd5b505af41580156114d7573d6000803e3d6000fd5b505050506040513d601f19601f82011682018060405250810190610dd59190614a44565b604051633b11adbf60e21b81526002600482015233602482015273__$364aad554dc80380f414546becdd2c1584$__9063ec46b6fc9060440160206040518083038186803b15801561154c57600080fd5b505af4158015611560573d6000803e3d6000fd5b505050506040513d601f19601f8201168201806040525081019061158491906149fe565b6115a05760405162461bcd60e51b815260040161099690614d6e565b60405163cc99e11b60e01b8152600260048201526024810182905273__$364aad554dc80380f414546becdd2c1584$__9063cc99e11b9060440160006040518083038186803b1580156115f257600080fd5b505af4158015611606573d6000803e3d6000fd5b5050505050565b600060025b6000928352600460205260409092205460ff908116921691909114919050565b604051633b11adbf60e21b81526002600482015233602482015273__$364aad554dc80380f414546becdd2c1584$__9063ec46b6fc9060440160206040518083038186803b15801561168357600080fd5b505af4158015611697573d6000803e3d6000fd5b505050506040513d601f19601f820116820180604052508101906116bb91906149fe565b80611760575073__$364aad554dc80380f414546becdd2c1584$__63fe27108660026116e561361e565b6040516001600160e01b031960e085901b168152600481019290925264ffffffffff16602482015260440160206040518083038186803b15801561172857600080fd5b505af415801561173c573d6000803e3d6000fd5b505050506040513d601f19601f8201168201806040525081019061176091906149fe565b61177c5760405162461bcd60e51b815260040161099690614dca565b604051632725ebef60e21b8152600260048201526024810182905273__$364aad554dc80380f414546becdd2c1584$__90639c97afbc9060440160006040518083038186803b1580156117ce57600080fd5b505af41580156117e2573d6000803e3d6000fd5b505050507ff2735f34b69be1e6342dea95f9162f84d0db925fab655ca9f1f312ac8cbfc99d8160405161181791815260200190565b60405180910390a150565b73__$364aad554dc80380f414546becdd2c1584$__63ee98b31360028461101161361e565b604051633f5f77cd60e01b8152600560048201526024810182905260009073__$8c1a4844a0a0988ea2454cf87145a95df1$__90633f5f77cd906044015b60206040518083038186803b15801561189d57600080fd5b505af41580156118b1573d6000803e3d6000fd5b505050506040513d601f19601f82011682018060405250810190610d4891906149fe565b6040805160a08101825260008082526020820181905291810182905260608082019290925260808101919091526000838152600460209081526040808320858452600301825291829020825160a081018452815464ffffffffff811682526001600160401b03600160281b8204811683860152600160681b8204168286015263ffffffff600160a81b90910416606082015260018201805485518186028101860190965280865291949293608086019392908301828280156119e457602002820191906000526020600020906000905b82829054906101000a900464ffffffffff1664ffffffffff16815260200190600501906020826004010492830192600103820291508084116119a55790505b505050505081525050905092915050565b604051630f07232560e01b8152600260048201523360248201526001600160a01b038216604482015273__$364aad554dc80380f414546becdd2c1584$__90630f0723259060640160006040518083038186803b158015611a5557600080fd5b505af4158015611a69573d6000803e3d6000fd5b50506040516001600160a01b03841681527fe435cbeab64e4eae6497b9d8289704bd709d624a80704ef3ca9af777534bc6ec92506020019050611817565b60405163034306e160e21b81526008600482015260609073__$8c1a4844a0a0988ea2454cf87145a95df1$__90630d0c1b849060240160006040518083038186803b158015611af557600080fd5b505af4158015611b09573d6000803e3d6000fd5b505050506040513d6000823e601f3d908101601f19168201604052610dd59190810190614e20565b60006006611612565b604051632a3be56b60e21b815260026004820152602481018390526044810182905260009073__$364aad554dc80380f414546becdd2c1584$__9063a8ef95ac9060640160206040518083038186803b158015611b9657600080fd5b505af4158015611baa573d6000803e3d6000fd5b505050506040513d601f19601f82011682018060405250810190611bce91906149fe565b9392505050565b604051633b11adbf60e21b81526002600482015233602482015273__$364aad554dc80380f414546becdd2c1584$__9063ec46b6fc9060440160206040518083038186803b158015611c2657600080fd5b505af4158015611c3a573d6000803e3d6000fd5b505050506040513d601f19601f82011682018060405250810190611c5e91906149fe565b80611d03575073__$364aad554dc80380f414546becdd2c1584$__63fe2710866002611c8861361e565b6040516001600160e01b031960e085901b168152600481019290925264ffffffffff16602482015260440160206040518083038186803b158015611ccb57600080fd5b505af4158015611cdf573d6000803e3d6000fd5b505050506040513d601f19601f82011682018060405250810190611d0391906149fe565b611d1f5760405162461bcd60e51b815260040161099690614dca565b60405163b6e38a2960e01b8152600260048201526024810182905273__$364aad554dc80380f414546becdd2c1584$__9063b6e38a299060440160006040518083038186803b158015611d7157600080fd5b505af4158015611d85573d6000803e3d6000fd5b505050507f8b6f40f36b4ae8cc5f55e895036457c43da4ab1f80f58c46f5ff0d72a650033b8160405161181791815260200190565b60405163987ad15360e01b81526002600482015260009073__$364aad554dc80380f414546becdd2c1584$__9063987ad15390602401610d85565b6000611dff61361e565b60405163cc0d511b60e01b8152600260048201526024810184905264ffffffffff8216604482015290915073__$364aad554dc80380f414546becdd2c1584$__9063cc0d511b9060640161104c565b60408051606080820183526000808352602083015291810191909152600083815260046020818152604080842060ff871685529092018152918190208151606081018352815463ffffffff8116825264010000000090046001600160401b0316818501526001820180548451818702810187018652818152929593948601938301828280156119e4576000918252602091829020805464ffffffffff1684529082028301929091600591018084116119a5579050505050505081525050905092915050565b604051633f5f77cd60e01b8152600860048201526024810182905260009073__$8c1a4844a0a0988ea2454cf87145a95df1$__90633f5f77cd90604401611885565b600082815260046020819052604080832090516301cd7e5560e21b815260039091019181019190915264ffffffffff8316602482015273__$68438f465b222e285b1fb0cc5c3aa7ceb4$__90630735f9549060440160206040518083038186803b158015611fc257600080fd5b505af4158015611fd6573d6000803e3d6000fd5b505050506040513d601f19601f82011682018060405250810190611bce9190614d53565b6120026140d6565b60008281526004602090815260409182902082516101e08101845260018201805461ffff808216845260ff6201000083048116968501969096526301000000820486168488015264010000000082048616606080860191909152600160281b830482166080860152670100000000000000830490911660a0850152690100000000000000000082048616151560c0850152600160501b82048616151560e0850152600160581b820486161515610100850152600160601b820486161515610120850152600160681b82048616610140850152600160701b82048616610160850152600160781b82048616610180850152600160801b9091049094166101a0830152845193840190945292916101c084019160020160038282826020028201916000905b82829054906101000a900464ffffffffff1664ffffffffff16815260200190600501906020826004010492830192600103820291508084116121255790505050505050815250509050919050565b604051633b11adbf60e21b81526002600482015233602482015273__$364aad554dc80380f414546becdd2c1584$__9063ec46b6fc9060440160206040518083038186803b1580156121c457600080fd5b505af41580156121d8573d6000803e3d6000fd5b505050506040513d601f19601f820116820180604052508101906121fc91906149fe565b6122185760405162461bcd60e51b815260040161099690614d6e565b600073__$9d2c69e94fee47b9774dc8db4aa5c0bbec$__6366e5ec3361223c6135c8565b6001600160a01b03166348462037886040518263ffffffff1660e01b815260040161226991815260200190565b60206040518083038186803b15801561228157600080fd5b505afa158015612295573d6000803e3d6000fd5b505050506040513d601f19601f820116820180604052508101906122b99190614a44565b6040518263ffffffff1660e01b81526004016122d791815260200190565b6102606040518083038186803b1580156122f057600080fd5b505af4158015612304573d6000803e3d6000fd5b505050506040513d601f19601f820116820180604052508101906123289190614f07565b905061160681848685613856565b604051633b11adbf60e21b81526002600482015233602482015273__$364aad554dc80380f414546becdd2c1584$__9063ec46b6fc9060440160206040518083038186803b15801561238757600080fd5b505af415801561239b573d6000803e3d6000fd5b505050506040513d601f19601f820116820180604052508101906123bf91906149fe565b6123db5760405162461bcd60e51b815260040161099690614d6e565b60006123ea8888888888613678565b90506123f8818985856108ff565b5050505050505050565b604051633b11adbf60e21b81526002600482015233602482015273__$364aad554dc80380f414546becdd2c1584$__9063ec46b6fc9060440160206040518083038186803b15801561245357600080fd5b505af4158015612467573d6000803e3d6000fd5b505050506040513d601f19601f8201168201806040525081019061248b91906149fe565b6124a75760405162461bcd60e51b815260040161099690614d6e565b60006124c06001600160a01b03861660a086901b614ffc565b9050611606818585856108ff565b6001546040516335d2155560e11b81523360048201526001600160a01b0390911690636ba42aaa9060240160206040518083038186803b15801561251157600080fd5b505afa158015612525573d6000803e3d6000fd5b505050506040513d601f19601f8201168201806040525081019061254991906149fe565b6125655760405162461bcd60e51b815260040161099690614a19565b60408051602080820187905260ff86168284015260608201859052608082018490524265ffffffffffff1660a0808401919091528351808403909101815260c09092019092528051910120611606818685856108ff565b604051633b11adbf60e21b81526002600482015233602482015273__$364aad554dc80380f414546becdd2c1584$__9063ec46b6fc9060440160206040518083038186803b15801561260d57600080fd5b505af4158015612621573d6000803e3d6000fd5b505050506040513d601f19601f8201168201806040525081019061264591906149fe565b6126615760405162461bcd60e51b815260040161099690614d6e565b61266a81611f13565b8061268f5750600081815260076020526040902054610100900464ffffffffff168114155b6126e75760405162461bcd60e51b8152602060048201526024808201527f424f444b2e414f3a206f666669636572206e6565647320746f207175697420666044820152631a5c9cdd60e21b6064820152608401610996565b60006126f16135c8565b6001600160a01b03166348462037866040518263ffffffff1660e01b815260040161271e91815260200190565b60206040518083038186803b15801561273657600080fd5b505afa15801561274a573d6000803e3d6000fd5b505050506040513d601f19601f8201168201806040525081019061276e9190614a44565b604051634281ec6b60e11b8152600481019190915273__$9d2c69e94fee47b9774dc8db4aa5c0bbec$__90638503d8d6906024016102206040518083038186803b1580156127bb57600080fd5b505af41580156127cf573d6000803e3d6000fd5b505050506040513d601f19601f820116820180604052508101906127f39190614b03565b90508060a0015161ffff1660001480156128135750608081015161ffff16155b61285f5760405162461bcd60e51b815260206004820181905260248201527f424f442e414f3a206e6f6d696e6174696f6e206e6565647320746f20766f74656044820152606401610996565b6040805160ff861681526020810185905283917f463c8f04c8c97fbb81513e3dd0a86ef0bfcaf5fa16eb707f01353748bf6df1ef910160405180910390a2506040805160a08101825260ff948516815264ffffffffff808416602080840191825295821683850190815265ffffffffffff428116606086019081526000608087018181529881526007909952959097209351845492519151955196518816600160881b0265ffffffffffff60881b1997909816600160581b0265ffffffffffff60581b19968516600160301b029690961670ffffffffffffffffffffff00000000000019929094166101000265ffffffffffff19909316981697909717179590951694909417171617905550565b61297682613ea8565b61297f81613f57565b604051636cdd0edf60e11b815260026004820152602481018590526001600160a01b038416604482015273__$364aad554dc80380f414546becdd2c1584$__9063d9ba1dbe9060640160006040518083038186803b1580156129e057600080fd5b505af41580156129f4573d6000803e3d6000fd5b5050604080518781526001600160a01b038781166020830152868116828401528516606082015290517f3abb2418c66fe32ba9c883030a75ce583971d9af9192b9b74e44e67c5e6c8c1f9350908190036080019150a150505050565b6040805160a0810182526000808252602082018190528183018190526060820181905260808201529051633f5f77cd60e01b8152600860048201526024810183905273__$8c1a4844a0a0988ea2454cf87145a95df1$__90633f5f77cd9060440160206040518083038186803b158015612ac957600080fd5b505af4158015612add573d6000803e3d6000fd5b505050506040513d601f19601f82011682018060405250810190612b0191906149fe565b612b4d5760405162461bcd60e51b815260206004820152601c60248201527f424f442e47443a2061636374206973206e6f74204469726563746f72000000006044820152606401610996565b50600090815260076020908152604091829020825160a081018452905460ff8116825264ffffffffff6101008204811693830193909352600160301b81049092169281019290925265ffffffffffff600160581b820481166060840152600160881b90910416608082015290565b604051633c3e56c160e11b81526002600482015260009073__$364aad554dc80380f414546becdd2c1584$__9063787cad829060240160206040518083038186803b158015612c0957600080fd5b505af4158015612c1d573d6000803e3d6000fd5b505050506040513d601f19601f82011682018060405250810190610dd59190615014565b604051633b11adbf60e21b81526002600482015233602482015273__$364aad554dc80380f414546becdd2c1584$__9063ec46b6fc9060440160206040518083038186803b158015612c9257600080fd5b505af4158015612ca6573d6000803e3d6000fd5b505050506040513d601f19601f82011682018060405250810190612cca91906149fe565b612ce65760405162461bcd60e51b815260040161099690614d6e565b600254600160f01b900460ff16600114612d425760405162461bcd60e51b815260206004820181905260248201527f41432e6f6e6c7950656e64696e673a20446f632069732066696e616c697a65646044820152606401610996565b60405163cc99e11b60e01b815260026004820152684174746f726e65797360b81b602482015273__$364aad554dc80380f414546becdd2c1584$__9063cc99e11b9060440160006040518083038186803b158015612d9f57600080fd5b505af4158015612db3573d6000803e3d6000fd5b5050604051632725ebef60e21b8152600260048201526000602482015273__$364aad554dc80380f414546becdd2c1584$__9250639c97afbc915060440160006040518083038186803b158015612e0957600080fd5b505af4158015612e1d573d6000803e3d6000fd5b50506002805460ff60f01b1916600160f11b17905550506040517f35012b512309c322acf68632cd6cb702ff0e1d776fbe9394e38ffc13b434fe7590600090a1565b6001546040516335d2155560e11b81523360048201526001600160a01b0390911690636ba42aaa9060240160206040518083038186803b158015612ea257600080fd5b505afa158015612eb6573d6000803e3d6000fd5b505050506040513d601f19601f82011682018060405250810190612eda91906149fe565b612ef65760405162461bcd60e51b815260040161099690614a19565b6000908152600460205260409020805460ff19166006179055565b600060ff821660011415612f4b57505060008052600760205260008051602061532b83398151915254600160301b900464ffffffffff1690565b60ff821660021415612f8157505060008052600760205260008051602061532b83398151915254610100900464ffffffffff1690565b60405162461bcd60e51b815260206004820152602260248201527f424f442e77686f49733a2076616c7565206f66207469746c65206f766572666c6044820152616f7760f01b6064820152608401610996565b919050565b604051633b11adbf60e21b81526002600482015233602482015260009073__$364aad554dc80380f414546becdd2c1584$__9063ec46b6fc9060440160206040518083038186803b15801561302d57600080fd5b505af4158015613041573d6000803e3d6000fd5b505050506040513d601f19601f8201168201806040525081019061306591906149fe565b6130815760405162461bcd60e51b815260040161099690614d6e565b60008281526004602052604081209061309861400e565b905060006130a461405e565b90506130af8561407c565b1561315c57604051630483108960e51b815260048101849052602481018690526001600160a01b0380841660448301528216606482015273__$c69e6785922941bfe0f11afdbfcce85492$__9063906211209060840160206040518083038186803b15801561311d57600080fd5b505af4158015613131573d6000803e3d6000fd5b505050506040513d601f19601f8201168201806040525081019061315591906149fe565b93506131f9565b604051632de9f5b360e01b8152600481018490526001600160a01b0380841660248301528216604482015273__$c69e6785922941bfe0f11afdbfcce85492$__90632de9f5b39060640160206040518083038186803b1580156131be57600080fd5b505af41580156131d2573d6000803e3d6000fd5b505050506040513d601f19601f820116820180604052508101906131f691906149fe565b93505b8361321f576001830154600160601b900460ff16613218576004613222565b6005613222565b60025b835460ff191660ff91909116908117845560405190815285907f09dabc8247f652d3170a3738595d35365582b55eebeee44e1059d298185264839060200160405180910390a2505050919050565b604051633b11adbf60e21b81526002600482015233602482015273__$364aad554dc80380f414546becdd2c1584$__9063ec46b6fc9060440160206040518083038186803b1580156132c157600080fd5b505af41580156132d5573d6000803e3d6000fd5b505050506040513d601f19601f820116820180604052508101906132f991906149fe565b6133155760405162461bcd60e51b815260040161099690614d6e565b60008381526004602052604090208054610100900464ffffffffff1661337d5760405162461bcd60e51b815260206004820152601a60248201527f4d4d2e45443a206d6f74696f6e206e6f742070726f706f7365640000000000006044820152606401610996565b805442600160881b90910465ffffffffffff1611156133de5760405162461bcd60e51b815260206004820152601d60248201527f4d4d2e45443a206e6f74207265616368207368617265526567446174650000006044820152606401610996565b60006133ea8285613793565b60408051868152602081018690526001600160401b03831681830152905191925086917f9312e29b165b47befe1d8dbc089fea17ef2aea172e8dbbb5114e67e8e621cab79181900360600190a2604051631b9d77ab60e21b815260038301600482015260248101859052604481018490526001600160401b038216606482015273__$68438f465b222e285b1fb0cc5c3aa7ceb4$__90636e75deac9060840160206040518083038186803b1580156134a157600080fd5b505af41580156134b5573d6000803e3d6000fd5b505050506040513d601f19601f8201168201806040525081019061107891906149fe565b6001546040516335d2155560e11b81523360048201526001600160a01b0390911690636ba42aaa9060240160206040518083038186803b15801561351c57600080fd5b505afa158015613530573d6000803e3d6000fd5b505050506040513d601f19601f8201168201806040525081019061355491906149fe565b6135705760405162461bcd60e51b815260040161099690614a19565b600080526007602090815260008051602061532b833981519152805460ff191660ff84169081179091556040519081527fb8601f37e3a796370ca7305c82ef56c156c4fef62313ed48a038656a3cbb1ff39101611817565b60006135d26140bb565b6001600160a01b0316632f5f3b3c6040518163ffffffff1660e01b815260040160206040518083038186803b15801561360a57600080fd5b505afa158015612c1d573d6000803e3d6000fd5b60008054604051634de835e760e11b81523360048201526001600160a01b0390911690639bd06bce90602401602060405180830381600087803b15801561366457600080fd5b505af1158015610db1573d6000803e3d6000fd5b6000858585858560405160200161369395949392919061505d565b60408051601f1981840301815291905280516020909101209695505050505050565b6000805b845181101561378b578481815181106136d4576136d461513f565b60200260200101516001600160a01b03168482815181106136f7576136f761513f565b60200260200101518483815181106137115761371161513f565b60200260200101516040516137269190615155565b60006040518083038185875af1925050503d8060008114613763576040519150601f19603f3d011682016040523d82523d6000602084013e613768565b606091505b505080925050816137795750611bce565b8061378381615171565b9150506136b9565b509392505050565b60018201546000906137b290600290640100000000900460ff1661518c565b60ff1660011415610d48576137c561400e565b8354604051634bc8315f60e01b815260048101859052600160881b90910465ffffffffffff1660248201526001600160a01b039190911690634bc8315f9060440160206040518083038186803b15801561381e57600080fd5b505afa158015613832573d6000803e3d6000fd5b505050506040513d601f19601f82011682018060405250810190611bce91906151bc565b61385f83611f13565b6138ee5760008052600760205260008051602061532b8339815191525460ff16613887611475565b61ffff16106138ee5760405162461bcd60e51b815260206004820152602d60248201527f424f442e6164644469726563746f723a206e756d626572206f6620646972656360448201526c746f7273206f766572666c6f7760981b6064820152608401610996565b4260006138f96135c8565b604051634846203760e01b8152600060048201526001600160a01b03919091169063484620379060240160206040518083038186803b15801561393b57600080fd5b505afa15801561394f573d6000803e3d6000fd5b505050506040513d601f19601f820116820180604052508101906139739190614a44565b604051633d315f5b60e21b8152600481019190915273__$9d2c69e94fee47b9774dc8db4aa5c0bbec$__9063f4c57d6c906024016101006040518083038186803b1580156139c057600080fd5b505af41580156139d4573d6000803e3d6000fd5b505050506040513d601f19601f820116820180604052508101906139f891906151e5565b905060008160c0015160ff166301e13380613a1391906152ae565b613a1d90846152dc565b6000858152600a6020526040902054608089015191925063ffffffff1661ffff90911610613a995760405162461bcd60e51b8152602060048201526024808201527f424f442e6164644469726563746f723a20426f617264207365657473207573656044820152630642075760e41b6064820152608401610996565b6040518060a001604052808660ff1681526020018764ffffffffff1681526020018564ffffffffff1681526020018465ffffffffffff1681526020018265ffffffffffff168152506007600088815260200190815260200160002060008201518160000160006101000a81548160ff021916908360ff16021790555060208201518160000160016101000a81548164ffffffffff021916908364ffffffffff16021790555060408201518160000160066101000a81548164ffffffffff021916908364ffffffffff160217905550606082015181600001600b6101000a81548165ffffffffffff021916908365ffffffffffff16021790555060808201518160000160116101000a81548165ffffffffffff021916908365ffffffffffff1602179055509050506001600c811115613bd357613bd3614db4565b60ff168560ff161415613caa5760008052600760205260008051602061532b83398151915254600160301b900464ffffffffff16613c495760008052600760205260008051602061532b83398151915280546affffffffff0000000000001916600160301b64ffffffffff891602179055613d7b565b60405162461bcd60e51b815260206004820152603060248201527f424f442e6164644469726563746f723a2043686169726d616e277320706f736960448201526f1d1a5bdb881a5cc81bd8d8dd5c1a595960821b6064820152608401610996565b60ff851660021415613d7b5760008052600760205260008051602061532b83398151915254610100900464ffffffffff16613d165760008052600760205260008051602061532b833981519152805465ffffffffff00191661010064ffffffffff891602179055613d7b565b60405162461bcd60e51b815260206004820152603460248201527f424f442e6164644469726563746f723a205669636543686169726d616e2773206044820152731c1bdcda5d1a5bdb881a5cc81bd8d8dd5c1a595960621b6064820152608401610996565b6040516392f13c3f60e01b8152600860048201526024810187905273__$8c1a4844a0a0988ea2454cf87145a95df1$__906392f13c3f9060440160206040518083038186803b158015613dcd57600080fd5b505af4158015613de1573d6000803e3d6000fd5b505050506040513d601f19601f82011682018060405250810190613e0591906149fe565b15613e9f576040805160ff871681526020810186905265ffffffffffff8581168284015283166060820152905187917f534cc618711157129c8ac7073f9e36c1f261149f4ed20f59077e8da529b23cdd919081900360800190a26000848152600a60205260408120805463ffffffff1691613e7f83615306565b91906101000a81548163ffffffff021916908363ffffffff160217905550505b50505050505050565b6000546001600160a01b031615613ef95760405162461bcd60e51b815260206004820152601560248201527430b63932b0b23c9039b2ba103932b3a1b2b73a32b960591b6044820152606401610996565b6040516001600160a01b03821681527f318da6c7624c71cbc0afe346c9d8827f119d0ecefb241a7b0c87217a076a8e029060200160405180910390a1600080546001600160a01b0319166001600160a01b0392909216919091179055565b6001546001600160a01b031615613fb05760405162461bcd60e51b815260206004820152601960248201527f616c7265616479207365742067656e6572616c4b6565706572000000000000006044820152606401610996565b6040516001600160a01b03821681527fe513d3e0f0d0a3877029dcc588748679a7a3450ec1ec7ed56d96bd012c3e61aa9060200160405180910390a1600180546001600160a01b0319166001600160a01b0392909216919091179055565b6001546000906001600160a01b031663e06eba8c60075b6040516001600160e01b031960e084901b16815260ff909116600482015260240160206040518083038186803b15801561360a57600080fd5b600180546000916001600160a01b039091169063e06eba8c90614025565b600060a082901c82158015614095575060008161ffff16115b80156140a6575060108161ffff1611155b80156140b4575060b083901c155b5050919050565b6001546000906001600160a01b031663e06eba8c6003614025565b604080516101e081018252600080825260208201819052918101829052606081018290526080810182905260a0810182905260c0810182905260e08101829052610100810182905261012081018290526101408101829052610160810182905261018081018290526101a08101919091526101c08101614154614159565b905290565b60405180606001604052806003906020820280368337509192915050565b6000806000806080858703121561418d57600080fd5b5050823594602084013594506040840135936060013592509050565b600080604083850312156141bc57600080fd5b50508035926020909101359150565b6000602082840312156141dd57600080fd5b5035919050565b634e487b7160e01b600052604160045260246000fd5b6040516101e081016001600160401b038111828210171561421d5761421d6141e4565b60405290565b60405160e081016001600160401b038111828210171561421d5761421d6141e4565b604051601f8201601f191681016001600160401b038111828210171561426d5761426d6141e4565b604052919050565b60006001600160401b0382111561428e5761428e6141e4565b5060051b60200190565b6001600160a01b0381168114610fe957600080fd5b600082601f8301126142be57600080fd5b813560206142d36142ce83614275565b614245565b82815260059290921b840181019181810190868411156142f257600080fd5b8286015b8481101561431657803561430981614298565b83529183019183016142f6565b509695505050505050565b600082601f83011261433257600080fd5b813560206143426142ce83614275565b82815260059290921b8401810191818101908684111561436157600080fd5b8286015b848110156143165780358352918301918301614365565b6000601f838184011261438e57600080fd5b8235602061439e6142ce83614275565b82815260059290921b850181019181810190878411156143bd57600080fd5b8287015b848110156112ad5780356001600160401b03808211156143e15760008081fd5b818a0191508a603f8301126143f65760008081fd5b8582013560408282111561440c5761440c6141e4565b61441d828b01601f19168901614245565b92508183528c818386010111156144345760008081fd5b81818501898501375060009082018701528452509183019183016143c1565b60008060008060008060c0878903121561446c57600080fd5b8635955060208701356001600160401b038082111561448a57600080fd5b6144968a838b016142ad565b965060408901359150808211156144ac57600080fd5b6144b88a838b01614321565b955060608901359150808211156144ce57600080fd5b506144db89828a0161437c565b9350506080870135915060a087013590509295509295509295565b60ff81168114610fe957600080fd5b6000806000806080858703121561451b57600080fd5b84359350602085013592506040850135614534816144f6565b9396929550929360600135925050565b600081518084526020808501945080840160005b8381101561457b57815164ffffffffff1687529582019590820190600101614558565b509495945050505050565b6020815264ffffffffff8251166020820152600060208301516001600160401b038082166040850152806040860151166060850152505063ffffffff6060840151166080830152608083015160a0808401526145e560c0840182614544565b949350505050565b6000602082840312156145ff57600080fd5b8135611bce81614298565b600081518084526020808501945080840160005b8381101561457b5781518752958201959082019060010161461e565b602081526000611bce602083018461460a565b60008060006060848603121561466257600080fd5b8335925060208401359150604084013561467b816144f6565b809150509250925092565b6000806040838503121561469957600080fd5b8235915060208301356146ab816144f6565b809150509250929050565b6020815263ffffffff82511660208201526001600160401b036020830151166040820152600060408301516060808401526145e56080840182614544565b8060005b6003811015610c6e57815164ffffffffff168452602093840193909101906001016146f8565b815161ffff1681526102208101602083015161473f602084018260ff169052565b506040830151614754604084018260ff169052565b506060830151614769606084018260ff169052565b50608083015161477f608084018261ffff169052565b5060a083015161479560a084018261ffff169052565b5060c08301516147a960c084018215159052565b5060e08301516147bd60e084018215159052565b5061010083810151151590830152610120808401511515908301526101408084015160ff9081169184019190915261016080850151821690840152610180808501518216908401526101a080850151909116908301526101c080840151614826828501826146f4565b505092915050565b6000806000806080858703121561484457600080fd5b843593506020850135614856816144f6565b93969395505050506040820135916060013590565b600080600080600080600060e0888a03121561488657600080fd5b8735965060208801356001600160401b03808211156148a457600080fd5b6148b08b838c016142ad565b975060408a01359150808211156148c657600080fd5b6148d28b838c01614321565b965060608a01359150808211156148e857600080fd5b506148f58a828b0161437c565b979a969950949760808101359660a0820135965060c090910135945092505050565b6000806000806080858703121561492d57600080fd5b843561493881614298565b966020860135965060408601359560600135945092505050565b6000806000806080858703121561496857600080fd5b84359350602085013561497a81614298565b9250604085013561498a81614298565b9150606085013561499a81614298565b939692955090935050565b6000602082840312156149b757600080fd5b8135611bce816144f6565b6000806000606084860312156149d757600080fd5b505081359360208301359350604090920135919050565b80518015158114612fd457600080fd5b600060208284031215614a1057600080fd5b611bce826149ee565b60208082526011908201527020a19737b59d103737ba1025b2b2b832b960791b604082015260600190565b600060208284031215614a5657600080fd5b5051919050565b805161ffff81168114612fd457600080fd5b8051612fd4816144f6565b805164ffffffffff81168114612fd457600080fd5b600082601f830112614aa057600080fd5b604051606081018181106001600160401b0382111715614ac257614ac26141e4565b604052806060840185811115614ad757600080fd5b845b81811015614af857614aea81614a7a565b835260209283019201614ad9565b509195945050505050565b60006102208284031215614b1657600080fd5b614b1e6141fa565b614b2783614a5d565b8152614b3560208401614a6f565b6020820152614b4660408401614a6f565b6040820152614b5760608401614a6f565b6060820152614b6860808401614a5d565b6080820152614b7960a08401614a5d565b60a0820152614b8a60c084016149ee565b60c0820152614b9b60e084016149ee565b60e0820152610100614bae8185016149ee565b90820152610120614bc08482016149ee565b90820152610140614bd2848201614a6f565b90820152610160614be4848201614a6f565b90820152610180614bf6848201614a6f565b908201526101a0614c08848201614a6f565b908201526101c0614c1b85858301614a8f565b908201529392505050565b848152835161ffff1660208201526102808101602085015160ff8116604084015250604085015160ff8116606084015250606085015160ff8116608084015250608085015161ffff811660a08401525060a085015161ffff811660c08401525060c085015180151560e08401525060e0850151610100614ca98185018315159052565b8601519050610120614cbe8482018315159052565b8601519050610140614cd38482018315159052565b8601519050610160614ce98482018360ff169052565b8601519050610180614cff8482018360ff169052565b86015190506101a0614d158482018360ff169052565b86015190506101c0614d2b8482018360ff169052565b8601519050614d3e6101e08401826146f4565b50610240820193909352610260015292915050565b600060208284031215614d6557600080fd5b611bce82614a7a565b60208082526026908201527f41432e6f6e6c794469726563744b65657065723a206e6f74206469726563742060408201526535b2b2b832b960d11b606082015260800190565b634e487b7160e01b600052602160045260246000fd5b60208082526036908201527f41432e6f776e65724f72446972656374426f6f6b65657065723a206e6569746860408201527532b91037bbb732b9103737b9103137b7b5b2b2b832b960511b606082015260800190565b60006020808385031215614e3357600080fd5b82516001600160401b03811115614e4957600080fd5b8301601f81018513614e5a57600080fd5b8051614e686142ce82614275565b81815260059190911b82018301908381019087831115614e8757600080fd5b928401925b82841015614ea557835182529284019290840190614e8c565b979650505050505050565b600082601f830112614ec157600080fd5b614ec9614223565b8060e0840185811115614edb57600080fd5b845b81811015614efc57614eee81614a5d565b845260209384019301614edd565b509095945050505050565b60006102608284031215614f1a57600080fd5b614f22614223565b614f2b83614a5d565b8152602080840151614f3c816144f6565b828201526040840151614f4e816144f6565b6040830152614f5f60608501614a7a565b6060830152614f7060808501614a5d565b60808301528460bf850112614f8457600080fd5b614f8c614223565b80610180860187811115614f9f57600080fd5b60a087015b81811015614fc4578051614fb7816144f6565b8452928401928401614fa4565b508160a0860152614fd58882614eb0565b60c086015250929695505050505050565b634e487b7160e01b600052601160045260246000fd5b6000821982111561500f5761500f614fe6565b500190565b60006020828403121561502657600080fd5b8151611bce81614298565b60005b8381101561504c578181015183820152602001615034565b83811115610c6e5750506000910152565b600060a08201878352602060a08185015281885180845260c086019150828a01935060005b818110156150a75784516001600160a01b031683529383019391830191600101615082565b505084810360408601526150bb818961460a565b92505083820360608501528186518084528284019150828160051b85010183890160005b8381101561512557601f198088850301865282518051808652615107818a88018b8501615031565b96880196601f019091169390930186019250908501906001016150df565b505080955050505050508260808301529695505050505050565b634e487b7160e01b600052603260045260246000fd5b60008251615167818460208701615031565b9190910192915050565b600060001982141561518557615185614fe6565b5060010190565b600060ff8316806151ad57634e487b7160e01b600052601260045260246000fd5b8060ff84160691505092915050565b6000602082840312156151ce57600080fd5b81516001600160401b0381168114611bce57600080fd5b60006101008083850312156151f957600080fd5b604051908101906001600160401b038211818310171561521b5761521b6141e4565b8160405261522884614a5d565b81526020840151915061523a826144f6565b81602082015261524c60408501614a6f565b604082015261525d606085016149ee565b606082015261526e60808501614a5d565b608082015261527f60a08501614a6f565b60a082015261529060c08501614a6f565b60c08201526152a160e08501614a5d565b60e0820152949350505050565b600065ffffffffffff808316818516818304811182151516156152d3576152d3614fe6565b02949350505050565b600065ffffffffffff8083168185168083038211156152fd576152fd614fe6565b01949350505050565b600063ffffffff8083168181141561532057615320614fe6565b600101939250505056fe6d5257204ebe7d88fd91ae87941cb2dd9d8062b64ae5a2bd2d28ec40b9fbf6dfa2646970667358221220a3aa57d11f6319c5a2fb87d323c162101d05a2ca5f8b58824da056bd549bbdeb64736f6c63430008080033",
    "sourcePath": "/Users/kaptain/github.com/hardhat/comboox/contracts/books/bod/BookOfDirectors.sol",
    "compiler": {
        "name": "solc",
        "version": "0.8.8+commit.dddeac2f"
    },
    "functionHashes": {
        "abandonRole(bytes32)": "3da9a600",
        "appointOfficer(uint256,uint8,uint256,uint256)": "db8b9a83",
        "boardSeatsOf(uint256)": "8b741818",
        "castVote(uint256,uint256,uint8,bytes32)": "2de32075",
        "directors()": "709a5a10",
        "entrustDelegate(uint256,uint256,uint256)": "fe1bdff2",
        "execAction(uint256,address[],uint256[],bytes[],uint256,bytes32)": "240a6438",
        "finalized()": "b3f05b97",
        "getBallot(uint256,uint256)": "0d358757",
        "getBookeeper()": "ed211023",
        "getCaseOfAttitude(uint256,uint8)": "8d5b6585",
        "getDelegateOf(uint256,uint256)": "9a51cdfc",
        "getDirector(uint256)": "e0231b81",
        "getGeneralCounsel()": "103f6edd",
        "getHeadOfMotion(uint256)": "64525a0d",
        "getOwner()": "893d20e8",
        "getVoterOfDelegateMap(uint256,uint256)": "61df743f",
        "getVotingRuleOfMotion(uint256)": "aaf7bfc6",
        "grantRole(bytes32,uint256)": "1b6ea9f9",
        "hasRole(bytes32,uint256)": "7e063c5a",
        "init(uint256,address,address,address)": "dc890da9",
        "isDirector(uint256)": "9258effe",
        "isExecuted(uint256)": "76a6bf52",
        "isOfficer(uint256)": "6f51df87",
        "isPassed(uint256)": "49403183",
        "isProposed(uint256)": "59269f82",
        "isVoted(uint256,uint256)": "ea56efc6",
        "isVotedFor(uint256,uint256,uint8)": "82405f45",
        "lockContents()": "f045a769",
        "maxQtyOfDirectors()": "04302b9a",
        "motionExecuted(uint256)": "f117bdb7",
        "nominateOfficer(uint256,uint8,uint256,uint256)": "d9732b81",
        "proposeAction(uint256,address[],uint256[],bytes[],bytes32,uint256,uint256)": "bbfd607d",
        "proposeDoc(address,uint256,uint256,uint256)": "cd43b165",
        "proposeMotion(uint256,uint256,uint256,uint256)": "07eef1cc",
        "qtyOfDirectors()": "38cc78be",
        "removeDirector(uint256)": "160392d7",
        "renounceRole(bytes32)": "8bb9c5bf",
        "revokeRole(bytes32,uint256)": "19d61ad9",
        "setDirectKeeper(address)": "6be8496f",
        "setGeneralCounsel(uint256)": "4a14beb1",
        "setMaxQtyOfDirectors(uint8)": "ff77c055",
        "setOwner(uint256)": "8041494e",
        "setRoleAdmin(bytes32,uint256)": "5171ebd4",
        "takePosition(uint256,uint8,uint256,uint256)": "afd26764",
        "voteCounting(uint256)": "f8fb9e1d",
        "whoIs(uint8)": "f5efdb26"
    },
    "gasEstimates": {
        "creation": {
            "codeDepositCost": "4275200",
            "executionCost": "4930",
            "totalCost": "4280130"
        },
        "external": {
            "abandonRole(bytes32)": "infinite",
            "appointOfficer(uint256,uint8,uint256,uint256)": "infinite",
            "boardSeatsOf(uint256)": "2534",
            "castVote(uint256,uint256,uint8,bytes32)": "infinite",
            "directors()": "infinite",
            "entrustDelegate(uint256,uint256,uint256)": "infinite",
            "execAction(uint256,address[],uint256[],bytes[],uint256,bytes32)": "infinite",
            "finalized()": "2438",
            "getBallot(uint256,uint256)": "5466",
            "getBookeeper()": "infinite",
            "getCaseOfAttitude(uint256,uint8)": "infinite",
            "getDelegateOf(uint256,uint256)": "infinite",
            "getDirector(uint256)": "infinite",
            "getGeneralCounsel()": "infinite",
            "getHeadOfMotion(uint256)": "3229",
            "getOwner()": "infinite",
            "getVoterOfDelegateMap(uint256,uint256)": "infinite",
            "getVotingRuleOfMotion(uint256)": "infinite",
            "grantRole(bytes32,uint256)": "infinite",
            "hasRole(bytes32,uint256)": "infinite",
            "init(uint256,address,address,address)": "infinite",
            "isDirector(uint256)": "infinite",
            "isExecuted(uint256)": "2623",
            "isOfficer(uint256)": "2531",
            "isPassed(uint256)": "2547",
            "isProposed(uint256)": "infinite",
            "isVoted(uint256,uint256)": "2710",
            "isVotedFor(uint256,uint256,uint8)": "2723",
            "lockContents()": "infinite",
            "maxQtyOfDirectors()": "infinite",
            "motionExecuted(uint256)": "infinite",
            "nominateOfficer(uint256,uint8,uint256,uint256)": "infinite",
            "proposeAction(uint256,address[],uint256[],bytes[],bytes32,uint256,uint256)": "infinite",
            "proposeDoc(address,uint256,uint256,uint256)": "infinite",
            "proposeMotion(uint256,uint256,uint256,uint256)": "infinite",
            "qtyOfDirectors()": "infinite",
            "removeDirector(uint256)": "infinite",
            "renounceRole(bytes32)": "infinite",
            "revokeRole(bytes32,uint256)": "infinite",
            "setDirectKeeper(address)": "infinite",
            "setGeneralCounsel(uint256)": "infinite",
            "setMaxQtyOfDirectors(uint8)": "infinite",
            "setOwner(uint256)": "infinite",
            "setRoleAdmin(bytes32,uint256)": "infinite",
            "takePosition(uint256,uint8,uint256,uint256)": "infinite",
            "voteCounting(uint256)": "infinite",
            "whoIs(uint8)": "infinite"
        },
        "internal": {
            "_addDirector(struct RulesParser.BoardSeatsRule memory,uint256,uint8,uint256)": "infinite"
        }
    }
}