{
    "contractName": "BOGSetting",
    "abi": [
        {
            "anonymous": false,
            "inputs": [
                {
                    "indexed": false,
                    "internalType": "uint256",
                    "name": "title",
                    "type": "uint256"
                },
                {
                    "indexed": false,
                    "internalType": "address",
                    "name": "book",
                    "type": "address"
                }
            ],
            "name": "SetBookRuting",
            "type": "event"
        },
        {
            "anonymous": false,
            "inputs": [
                {
                    "indexed": false,
                    "internalType": "address",
                    "name": "gk",
                    "type": "address"
                }
            ],
            "name": "SetGeneralKeeper",
            "type": "event"
        },
        {
            "anonymous": false,
            "inputs": [
                {
                    "indexed": false,
                    "internalType": "address",
                    "name": "rc",
                    "type": "address"
                }
            ],
            "name": "SetRegCenter",
            "type": "event"
        },
        {
            "inputs": [],
            "name": "initBOG",
            "outputs": [],
            "stateMutability": "nonpayable",
            "type": "function"
        }
    ],
    "bytecode": "608060405234801561001057600080fd5b50610178806100206000396000f3fe608060405234801561001057600080fd5b506004361061002b5760003560e01c80636825885814610030575b600080fd5b61003861003a565b005b60015460405163e0ff5b8b60e01b8152600260048201526001600160a01b039091169063e0ff5b8b9060240160206040518083038186803b15801561007e57600080fd5b505afa158015610092573d6000803e3d6000fd5b505050506040513d601f19601f820116820180604052508101906100b69190610112565b600280546001600160a01b03929092166001600160a01b0319909216821781556040805191825260208201929092527f6aa5e483fe137161b095cd68564a336d1657057f57987b1ae21019134dbc8da2910160405180910390a1565b60006020828403121561012457600080fd5b81516001600160a01b038116811461013b57600080fd5b939250505056fea26469706673582212200186801b70b11b1337acb1f521fb25689e360febf8b8a7bfb4155848d4189c1364736f6c63430008080033",
    "sourcePath": "/Users/kaptain/github.com/hardhat/comboox/contracts/common/ruting/BOGSetting.sol",
    "compiler": {
        "name": "solc",
        "version": "0.8.8+commit.dddeac2f"
    },
    "functionHashes": {
        "initBOG()": "68258858"
    },
    "gasEstimates": {
        "creation": {
            "codeDepositCost": "75200",
            "executionCost": "123",
            "totalCost": "75323"
        },
        "external": {
            "initBOG()": "infinite"
        }
    }
}