{
    "contractName": "BOHSetting",
    "abi": [
        {
            "anonymous": false,
            "inputs": [
                {
                    "indexed": false,
                    "internalType": "address",
                    "name": "gk",
                    "type": "address"
                }
            ],
            "name": "SetGeneralKeeper",
            "type": "event"
        },
        {
            "anonymous": false,
            "inputs": [
                {
                    "indexed": false,
                    "internalType": "address",
                    "name": "rc",
                    "type": "address"
                }
            ],
            "name": "SetRegCenter",
            "type": "event"
        },
        {
            "inputs": [],
            "name": "getSHA",
            "outputs": [
                {
                    "internalType": "contract IShareholdersAgreement",
                    "name": "_sha",
                    "type": "address"
                }
            ],
            "stateMutability": "view",
            "type": "function"
        }
    ],
    "bytecode": "608060405234801561001057600080fd5b506101ac806100206000396000f3fe608060405234801561001057600080fd5b506004361061002b5760003560e01c8063a61adc2814610030575b600080fd5b610038610054565b6040516001600160a01b03909116815260200160405180910390f35b60015460405163381baea360e21b8152600360048201526000916001600160a01b03169063e06eba8c9060240160206040518083038186803b15801561009957600080fd5b505afa1580156100ad573d6000803e3d6000fd5b505050506040513d601f19601f820116820180604052508101906100d19190610146565b6001600160a01b0316632f5f3b3c6040518163ffffffff1660e01b815260040160206040518083038186803b15801561010957600080fd5b505afa15801561011d573d6000803e3d6000fd5b505050506040513d601f19601f820116820180604052508101906101419190610146565b905090565b60006020828403121561015857600080fd5b81516001600160a01b038116811461016f57600080fd5b939250505056fea2646970667358221220afb4765124573175ac2b4c5a790bfdd7afdf5ab7365d0275c717a38a35cdcc2764736f6c63430008080033",
    "sourcePath": "/Users/kaptain/github.com/hardhat/comboox/contracts/common/ruting/BOHSetting.sol",
    "compiler": {
        "name": "solc",
        "version": "0.8.8+commit.dddeac2f"
    },
    "functionHashes": {
        "getSHA()": "a61adc28"
    },
    "gasEstimates": {
        "creation": {
            "codeDepositCost": "85600",
            "executionCost": "135",
            "totalCost": "85735"
        },
        "external": {
            "getSHA()": "infinite"
        }
    }
}