{
    "contractName": "BOHSetting",
    "abi": [
        {
            "anonymous": false,
            "inputs": [
                {
                    "indexed": false,
                    "internalType": "uint256",
                    "name": "title",
                    "type": "uint256"
                },
                {
                    "indexed": false,
                    "internalType": "address",
                    "name": "book",
                    "type": "address"
                }
            ],
            "name": "SetBookRuting",
            "type": "event"
        },
        {
            "anonymous": false,
            "inputs": [
                {
                    "indexed": false,
                    "internalType": "address",
                    "name": "gk",
                    "type": "address"
                }
            ],
            "name": "SetGeneralKeeper",
            "type": "event"
        },
        {
            "anonymous": false,
            "inputs": [
                {
                    "indexed": false,
                    "internalType": "address",
                    "name": "rc",
                    "type": "address"
                }
            ],
            "name": "SetRegCenter",
            "type": "event"
        },
        {
            "inputs": [],
            "name": "initBOH",
            "outputs": [],
            "stateMutability": "nonpayable",
            "type": "function"
        }
    ],
    "bytecode": "608060405234801561001057600080fd5b50610179806100206000396000f3fe608060405234801561001057600080fd5b506004361061002b5760003560e01c806325cbca6314610030575b600080fd5b61003861003a565b005b60015460405163e0ff5b8b60e01b8152600360048201526001600160a01b039091169063e0ff5b8b9060240160206040518083038186803b15801561007e57600080fd5b505afa158015610092573d6000803e3d6000fd5b505050506040513d601f19601f820116820180604052508101906100b69190610113565b600280546001600160a01b03929092166001600160a01b031990921682179055604080516003815260208101929092527f6aa5e483fe137161b095cd68564a336d1657057f57987b1ae21019134dbc8da2910160405180910390a1565b60006020828403121561012557600080fd5b81516001600160a01b038116811461013c57600080fd5b939250505056fea2646970667358221220e9f662dfea94ba6c1d7159f950fe5c2c1ff4226147ec057f436ab18b2cb1a9ee64736f6c63430008080033",
    "sourcePath": "/Users/kaptain/github.com/hardhat/comboox/contracts/common/ruting/BOHSetting.sol",
    "compiler": {
        "name": "solc",
        "version": "0.8.8+commit.dddeac2f"
    },
    "functionHashes": {
        "initBOH()": "25cbca63"
    },
    "gasEstimates": {
        "creation": {
            "codeDepositCost": "75400",
            "executionCost": "123",
            "totalCost": "75523"
        },
        "external": {
            "initBOH()": "infinite"
        },
        "internal": {
            "_getSHA()": "infinite"
        }
    }
}