{
    "contractName": "BOSSetting",
    "abi": [
        {
            "anonymous": false,
            "inputs": [
                {
                    "indexed": false,
                    "internalType": "address",
                    "name": "gk",
                    "type": "address"
                }
            ],
            "name": "SetGeneralKeeper",
            "type": "event"
        },
        {
            "anonymous": false,
            "inputs": [
                {
                    "indexed": false,
                    "internalType": "address",
                    "name": "rc",
                    "type": "address"
                }
            ],
            "name": "SetRegCenter",
            "type": "event"
        },
        {
            "inputs": [],
            "name": "getBOS",
            "outputs": [
                {
                    "internalType": "contract IBookOfShares",
                    "name": "_bos",
                    "type": "address"
                }
            ],
            "stateMutability": "view",
            "type": "function"
        }
    ],
    "bytecode": "608060405234801561001057600080fd5b50610131806100206000396000f3fe6080604052348015600f57600080fd5b506004361060285760003560e01c8063f01e100f14602d575b600080fd5b6033604f565b6040516001600160a01b03909116815260200160405180910390f35b60015460405163381baea360e21b8152600660048201526000916001600160a01b03169063e06eba8c9060240160206040518083038186803b158015609357600080fd5b505afa15801560a6573d6000803e3d6000fd5b505050506040513d601f19601f8201168201806040525081019060c8919060cd565b905090565b60006020828403121560de57600080fd5b81516001600160a01b038116811460f457600080fd5b939250505056fea2646970667358221220efadfe6304dea242c5552620059a827a7ee5e498fb488bd83fb71f63f56f22a064736f6c63430008080033",
    "sourcePath": "/Users/kaptain/github.com/hardhat/comboox/contracts/common/ruting/BOSSetting.sol",
    "compiler": {
        "name": "solc",
        "version": "0.8.8+commit.dddeac2f"
    },
    "functionHashes": {
        "getBOS()": "f01e100f"
    },
    "gasEstimates": {
        "creation": {
            "codeDepositCost": "61000",
            "executionCost": "111",
            "totalCost": "61111"
        },
        "external": {
            "getBOS()": "infinite"
        }
    }
}