{
    "contractName": "MeetingMinutes",
    "abi": [
        {
            "anonymous": false,
            "inputs": [
                {
                    "indexed": true,
                    "internalType": "uint256",
                    "name": "seqOfMotion",
                    "type": "uint256"
                },
                {
                    "indexed": true,
                    "internalType": "uint256",
                    "name": "caller",
                    "type": "uint256"
                },
                {
                    "indexed": true,
                    "internalType": "uint8",
                    "name": "attitude",
                    "type": "uint8"
                },
                {
                    "indexed": false,
                    "internalType": "bytes32",
                    "name": "sigHash",
                    "type": "bytes32"
                }
            ],
            "name": "CastVote",
            "type": "event"
        },
        {
            "anonymous": false,
            "inputs": [
                {
                    "indexed": true,
                    "internalType": "uint256",
                    "name": "snOfMotion",
                    "type": "uint256"
                },
                {
                    "indexed": true,
                    "internalType": "uint256",
                    "name": "contents",
                    "type": "uint256"
                }
            ],
            "name": "CreateMotion",
            "type": "event"
        },
        {
            "anonymous": false,
            "inputs": [
                {
                    "indexed": true,
                    "internalType": "uint256",
                    "name": "seqOfMotion",
                    "type": "uint256"
                },
                {
                    "indexed": false,
                    "internalType": "uint256",
                    "name": "delegate",
                    "type": "uint256"
                },
                {
                    "indexed": false,
                    "internalType": "uint256",
                    "name": "principal",
                    "type": "uint256"
                },
                {
                    "indexed": false,
                    "internalType": "uint64",
                    "name": "weight",
                    "type": "uint64"
                }
            ],
            "name": "EntrustDelegate",
            "type": "event"
        },
        {
            "anonymous": false,
            "inputs": [
                {
                    "indexed": true,
                    "internalType": "uint256",
                    "name": "contents",
                    "type": "uint256"
                },
                {
                    "indexed": false,
                    "internalType": "bool",
                    "name": "result",
                    "type": "bool"
                }
            ],
            "name": "ExecAction",
            "type": "event"
        },
        {
            "anonymous": false,
            "inputs": [
                {
                    "indexed": true,
                    "internalType": "uint256",
                    "name": "seqOfMotion",
                    "type": "uint256"
                },
                {
                    "indexed": true,
                    "internalType": "uint256",
                    "name": "caller",
                    "type": "uint256"
                }
            ],
            "name": "ExecResolution",
            "type": "event"
        },
        {
            "anonymous": false,
            "inputs": [
                {
                    "indexed": false,
                    "internalType": "uint256",
                    "name": "owner",
                    "type": "uint256"
                },
                {
                    "indexed": false,
                    "internalType": "address",
                    "name": "directKeeper",
                    "type": "address"
                },
                {
                    "indexed": false,
                    "internalType": "address",
                    "name": "regCenter",
                    "type": "address"
                },
                {
                    "indexed": false,
                    "internalType": "address",
                    "name": "generalKeeper",
                    "type": "address"
                }
            ],
            "name": "Init",
            "type": "event"
        },
        {
            "anonymous": false,
            "inputs": [],
            "name": "LockContents",
            "type": "event"
        },
        {
            "anonymous": false,
            "inputs": [
                {
                    "indexed": true,
                    "internalType": "uint256",
                    "name": "seqOfMotion",
                    "type": "uint256"
                },
                {
                    "indexed": true,
                    "internalType": "uint256",
                    "name": "proposer",
                    "type": "uint256"
                }
            ],
            "name": "ProposeMotion",
            "type": "event"
        },
        {
            "anonymous": false,
            "inputs": [
                {
                    "indexed": false,
                    "internalType": "address",
                    "name": "keeper",
                    "type": "address"
                }
            ],
            "name": "SetDirectKeeper",
            "type": "event"
        },
        {
            "anonymous": false,
            "inputs": [
                {
                    "indexed": false,
                    "internalType": "uint256",
                    "name": "acct",
                    "type": "uint256"
                }
            ],
            "name": "SetGeneralCounsel",
            "type": "event"
        },
        {
            "anonymous": false,
            "inputs": [
                {
                    "indexed": false,
                    "internalType": "uint256",
                    "name": "acct",
                    "type": "uint256"
                }
            ],
            "name": "SetOwner",
            "type": "event"
        },
        {
            "anonymous": false,
            "inputs": [
                {
                    "indexed": true,
                    "internalType": "uint256",
                    "name": "seqOfMotion",
                    "type": "uint256"
                },
                {
                    "indexed": true,
                    "internalType": "uint8",
                    "name": "result",
                    "type": "uint8"
                }
            ],
            "name": "VoteCounting",
            "type": "event"
        },
        {
            "inputs": [
                {
                    "internalType": "bytes32",
                    "name": "role",
                    "type": "bytes32"
                }
            ],
            "name": "abandonRole",
            "outputs": [],
            "stateMutability": "nonpayable",
            "type": "function"
        },
        {
            "inputs": [
                {
                    "internalType": "uint256",
                    "name": "seqOfMotion",
                    "type": "uint256"
                },
                {
                    "internalType": "uint8",
                    "name": "attitude",
                    "type": "uint8"
                },
                {
                    "internalType": "bytes32",
                    "name": "sigHash",
                    "type": "bytes32"
                },
                {
                    "internalType": "contract IRegisterOfMembers",
                    "name": "_rom",
                    "type": "address"
                },
                {
                    "internalType": "uint256",
                    "name": "caller",
                    "type": "uint256"
                }
            ],
            "name": "castVote",
            "outputs": [],
            "stateMutability": "nonpayable",
            "type": "function"
        },
        {
            "inputs": [
                {
                    "components": [
                        {
                            "internalType": "uint16",
                            "name": "typeOfMotion",
                            "type": "uint16"
                        },
                        {
                            "internalType": "uint64",
                            "name": "seqOfMotion",
                            "type": "uint64"
                        },
                        {
                            "internalType": "uint16",
                            "name": "seqOfVR",
                            "type": "uint16"
                        },
                        {
                            "internalType": "uint40",
                            "name": "creator",
                            "type": "uint40"
                        },
                        {
                            "internalType": "uint40",
                            "name": "executor",
                            "type": "uint40"
                        },
                        {
                            "internalType": "uint48",
                            "name": "createDate",
                            "type": "uint48"
                        },
                        {
                            "internalType": "uint32",
                            "name": "data",
                            "type": "uint32"
                        }
                    ],
                    "internalType": "struct MotionsRepo.Head",
                    "name": "head",
                    "type": "tuple"
                },
                {
                    "internalType": "uint256",
                    "name": "contents",
                    "type": "uint256"
                }
            ],
            "name": "createMotion",
            "outputs": [
                {
                    "internalType": "uint64",
                    "name": "",
                    "type": "uint64"
                }
            ],
            "stateMutability": "nonpayable",
            "type": "function"
        },
        {
            "inputs": [
                {
                    "internalType": "uint256",
                    "name": "seqOfMotion",
                    "type": "uint256"
                },
                {
                    "internalType": "uint40",
                    "name": "delegate",
                    "type": "uint40"
                },
                {
                    "internalType": "uint40",
                    "name": "principal",
                    "type": "uint40"
                },
                {
                    "internalType": "uint64",
                    "name": "weight",
                    "type": "uint64"
                }
            ],
            "name": "entrustDelegate",
            "outputs": [],
            "stateMutability": "nonpayable",
            "type": "function"
        },
        {
            "inputs": [
                {
                    "internalType": "uint16",
                    "name": "seqOfVR",
                    "type": "uint16"
                },
                {
                    "internalType": "address[]",
                    "name": "targets",
                    "type": "address[]"
                },
                {
                    "internalType": "uint256[]",
                    "name": "values",
                    "type": "uint256[]"
                },
                {
                    "internalType": "bytes[]",
                    "name": "params",
                    "type": "bytes[]"
                },
                {
                    "internalType": "bytes32",
                    "name": "desHash",
                    "type": "bytes32"
                },
                {
                    "internalType": "uint256",
                    "name": "seqOfMotion",
                    "type": "uint256"
                },
                {
                    "internalType": "uint40",
                    "name": "caller",
                    "type": "uint40"
                }
            ],
            "name": "execAction",
            "outputs": [],
            "stateMutability": "nonpayable",
            "type": "function"
        },
        {
            "inputs": [
                {
                    "internalType": "uint256",
                    "name": "seqOfMotion",
                    "type": "uint256"
                },
                {
                    "internalType": "uint256",
                    "name": "contents",
                    "type": "uint256"
                },
                {
                    "internalType": "uint40",
                    "name": "caller",
                    "type": "uint40"
                }
            ],
            "name": "execResolution",
            "outputs": [],
            "stateMutability": "nonpayable",
            "type": "function"
        },
        {
            "inputs": [],
            "name": "finalized",
            "outputs": [
                {
                    "internalType": "bool",
                    "name": "",
                    "type": "bool"
                }
            ],
            "stateMutability": "view",
            "type": "function"
        },
        {
            "inputs": [
                {
                    "internalType": "uint256",
                    "name": "seqOfMotion",
                    "type": "uint256"
                },
                {
                    "internalType": "uint256",
                    "name": "acct",
                    "type": "uint256"
                }
            ],
            "name": "getBallot",
            "outputs": [
                {
                    "components": [
                        {
                            "internalType": "uint40",
                            "name": "acct",
                            "type": "uint40"
                        },
                        {
                            "internalType": "uint8",
                            "name": "attitude",
                            "type": "uint8"
                        },
                        {
                            "internalType": "uint32",
                            "name": "head",
                            "type": "uint32"
                        },
                        {
                            "internalType": "uint64",
                            "name": "weight",
                            "type": "uint64"
                        },
                        {
                            "internalType": "uint48",
                            "name": "sigDate",
                            "type": "uint48"
                        },
                        {
                            "internalType": "uint64",
                            "name": "blocknumber",
                            "type": "uint64"
                        },
                        {
                            "internalType": "bytes32",
                            "name": "sigHash",
                            "type": "bytes32"
                        }
                    ],
                    "internalType": "struct BallotsBox.Ballot",
                    "name": "",
                    "type": "tuple"
                }
            ],
            "stateMutability": "view",
            "type": "function"
        },
        {
            "inputs": [],
            "name": "getBookeeper",
            "outputs": [
                {
                    "internalType": "address",
                    "name": "",
                    "type": "address"
                }
            ],
            "stateMutability": "view",
            "type": "function"
        },
        {
            "inputs": [
                {
                    "internalType": "uint256",
                    "name": "seqOfMotion",
                    "type": "uint256"
                },
                {
                    "internalType": "uint8",
                    "name": "atti",
                    "type": "uint8"
                }
            ],
            "name": "getCaseOfAttitude",
            "outputs": [
                {
                    "components": [
                        {
                            "internalType": "uint32",
                            "name": "sumOfHead",
                            "type": "uint32"
                        },
                        {
                            "internalType": "uint64",
                            "name": "sumOfWeight",
                            "type": "uint64"
                        },
                        {
                            "internalType": "uint256[]",
                            "name": "voters",
                            "type": "uint256[]"
                        }
                    ],
                    "internalType": "struct BallotsBox.Case",
                    "name": "",
                    "type": "tuple"
                }
            ],
            "stateMutability": "view",
            "type": "function"
        },
        {
            "inputs": [
                {
                    "internalType": "uint256",
                    "name": "seqOfMotion",
                    "type": "uint256"
                },
                {
                    "internalType": "uint40",
                    "name": "acct",
                    "type": "uint40"
                }
            ],
            "name": "getDelegateOf",
            "outputs": [
                {
                    "internalType": "uint40",
                    "name": "",
                    "type": "uint40"
                }
            ],
            "stateMutability": "view",
            "type": "function"
        },
        {
            "inputs": [],
            "name": "getGeneralCounsel",
            "outputs": [
                {
                    "internalType": "uint40",
                    "name": "",
                    "type": "uint40"
                }
            ],
            "stateMutability": "view",
            "type": "function"
        },
        {
            "inputs": [
                {
                    "internalType": "uint256",
                    "name": "seqOfMotion",
                    "type": "uint256"
                },
                {
                    "internalType": "uint40",
                    "name": "caller",
                    "type": "uint40"
                },
                {
                    "internalType": "uint48",
                    "name": "baseDate",
                    "type": "uint48"
                },
                {
                    "internalType": "contract IRegisterOfMembers",
                    "name": "_rom",
                    "type": "address"
                }
            ],
            "name": "getLeavesWeightAtDate",
            "outputs": [
                {
                    "internalType": "uint64",
                    "name": "weight",
                    "type": "uint64"
                }
            ],
            "stateMutability": "view",
            "type": "function"
        },
        {
            "inputs": [
                {
                    "internalType": "uint256",
                    "name": "seqOfMotion",
                    "type": "uint256"
                }
            ],
            "name": "getMotion",
            "outputs": [
                {
                    "components": [
                        {
                            "components": [
                                {
                                    "internalType": "uint16",
                                    "name": "typeOfMotion",
                                    "type": "uint16"
                                },
                                {
                                    "internalType": "uint64",
                                    "name": "seqOfMotion",
                                    "type": "uint64"
                                },
                                {
                                    "internalType": "uint16",
                                    "name": "seqOfVR",
                                    "type": "uint16"
                                },
                                {
                                    "internalType": "uint40",
                                    "name": "creator",
                                    "type": "uint40"
                                },
                                {
                                    "internalType": "uint40",
                                    "name": "executor",
                                    "type": "uint40"
                                },
                                {
                                    "internalType": "uint48",
                                    "name": "createDate",
                                    "type": "uint48"
                                },
                                {
                                    "internalType": "uint32",
                                    "name": "data",
                                    "type": "uint32"
                                }
                            ],
                            "internalType": "struct MotionsRepo.Head",
                            "name": "head",
                            "type": "tuple"
                        },
                        {
                            "components": [
                                {
                                    "internalType": "uint40",
                                    "name": "proposer",
                                    "type": "uint40"
                                },
                                {
                                    "internalType": "uint48",
                                    "name": "proposeDate",
                                    "type": "uint48"
                                },
                                {
                                    "internalType": "uint48",
                                    "name": "shareRegDate",
                                    "type": "uint48"
                                },
                                {
                                    "internalType": "uint48",
                                    "name": "voteStartDate",
                                    "type": "uint48"
                                },
                                {
                                    "internalType": "uint48",
                                    "name": "voteEndDate",
                                    "type": "uint48"
                                },
                                {
                                    "internalType": "uint16",
                                    "name": "para",
                                    "type": "uint16"
                                },
                                {
                                    "internalType": "uint8",
                                    "name": "state",
                                    "type": "uint8"
                                }
                            ],
                            "internalType": "struct MotionsRepo.Body",
                            "name": "body",
                            "type": "tuple"
                        },
                        {
                            "components": [
                                {
                                    "internalType": "uint16",
                                    "name": "seq",
                                    "type": "uint16"
                                },
                                {
                                    "internalType": "uint8",
                                    "name": "qtyOfSubRule",
                                    "type": "uint8"
                                },
                                {
                                    "internalType": "uint8",
                                    "name": "seqOfSubRule",
                                    "type": "uint8"
                                },
                                {
                                    "internalType": "uint16",
                                    "name": "authority",
                                    "type": "uint16"
                                },
                                {
                                    "internalType": "uint16",
                                    "name": "headRatio",
                                    "type": "uint16"
                                },
                                {
                                    "internalType": "uint16",
                                    "name": "amountRatio",
                                    "type": "uint16"
                                },
                                {
                                    "internalType": "bool",
                                    "name": "onlyAttendance",
                                    "type": "bool"
                                },
                                {
                                    "internalType": "bool",
                                    "name": "impliedConsent",
                                    "type": "bool"
                                },
                                {
                                    "internalType": "bool",
                                    "name": "partyAsConsent",
                                    "type": "bool"
                                },
                                {
                                    "internalType": "bool",
                                    "name": "againstShallBuy",
                                    "type": "bool"
                                },
                                {
                                    "internalType": "uint16",
                                    "name": "shaExecDays",
                                    "type": "uint16"
                                },
                                {
                                    "internalType": "uint16",
                                    "name": "reviewDays",
                                    "type": "uint16"
                                },
                                {
                                    "internalType": "uint16",
                                    "name": "votingDays",
                                    "type": "uint16"
                                },
                                {
                                    "internalType": "uint16",
                                    "name": "execDaysForPutOpt",
                                    "type": "uint16"
                                },
                                {
                                    "internalType": "uint40[2]",
                                    "name": "vetoers",
                                    "type": "uint40[2]"
                                }
                            ],
                            "internalType": "struct RulesParser.VotingRule",
                            "name": "votingRule",
                            "type": "tuple"
                        },
                        {
                            "internalType": "uint256",
                            "name": "contents",
                            "type": "uint256"
                        }
                    ],
                    "internalType": "struct MotionsRepo.Motion",
                    "name": "motion",
                    "type": "tuple"
                }
            ],
            "stateMutability": "view",
            "type": "function"
        },
        {
            "inputs": [],
            "name": "getOwner",
            "outputs": [
                {
                    "internalType": "uint40",
                    "name": "",
                    "type": "uint40"
                }
            ],
            "stateMutability": "view",
            "type": "function"
        },
        {
            "inputs": [
                {
                    "internalType": "uint256",
                    "name": "seqOfMotion",
                    "type": "uint256"
                },
                {
                    "internalType": "uint256",
                    "name": "acct",
                    "type": "uint256"
                }
            ],
            "name": "getVoterOfDelegateMap",
            "outputs": [
                {
                    "components": [
                        {
                            "internalType": "uint40",
                            "name": "delegate",
                            "type": "uint40"
                        },
                        {
                            "internalType": "uint64",
                            "name": "weight",
                            "type": "uint64"
                        },
                        {
                            "internalType": "uint64",
                            "name": "repWeight",
                            "type": "uint64"
                        },
                        {
                            "internalType": "uint32",
                            "name": "repHead",
                            "type": "uint32"
                        },
                        {
                            "internalType": "uint40[]",
                            "name": "principals",
                            "type": "uint40[]"
                        }
                    ],
                    "internalType": "struct DelegateMap.Voter",
                    "name": "",
                    "type": "tuple"
                }
            ],
            "stateMutability": "view",
            "type": "function"
        },
        {
            "inputs": [
                {
                    "internalType": "bytes32",
                    "name": "role",
                    "type": "bytes32"
                },
                {
                    "internalType": "uint256",
                    "name": "acct",
                    "type": "uint256"
                }
            ],
            "name": "grantRole",
            "outputs": [],
            "stateMutability": "nonpayable",
            "type": "function"
        },
        {
            "inputs": [
                {
                    "internalType": "bytes32",
                    "name": "role",
                    "type": "bytes32"
                },
                {
                    "internalType": "uint256",
                    "name": "acct",
                    "type": "uint256"
                }
            ],
            "name": "hasRole",
            "outputs": [
                {
                    "internalType": "bool",
                    "name": "",
                    "type": "bool"
                }
            ],
            "stateMutability": "view",
            "type": "function"
        },
        {
            "inputs": [
                {
                    "internalType": "uint256",
                    "name": "owner",
                    "type": "uint256"
                },
                {
                    "internalType": "address",
                    "name": "directKeeper",
                    "type": "address"
                },
                {
                    "internalType": "address",
                    "name": "regCenter",
                    "type": "address"
                },
                {
                    "internalType": "address",
                    "name": "generalKeeper",
                    "type": "address"
                }
            ],
            "name": "init",
            "outputs": [],
            "stateMutability": "nonpayable",
            "type": "function"
        },
        {
            "inputs": [
                {
                    "internalType": "uint256",
                    "name": "seqOfMotion",
                    "type": "uint256"
                }
            ],
            "name": "isPassed",
            "outputs": [
                {
                    "internalType": "bool",
                    "name": "",
                    "type": "bool"
                }
            ],
            "stateMutability": "view",
            "type": "function"
        },
        {
            "inputs": [
                {
                    "internalType": "uint256",
                    "name": "seqOfMotion",
                    "type": "uint256"
                }
            ],
            "name": "isProposed",
            "outputs": [
                {
                    "internalType": "bool",
                    "name": "",
                    "type": "bool"
                }
            ],
            "stateMutability": "view",
            "type": "function"
        },
        {
            "inputs": [
                {
                    "internalType": "uint256",
                    "name": "seqOfMotion",
                    "type": "uint256"
                },
                {
                    "internalType": "uint256",
                    "name": "acct",
                    "type": "uint256"
                }
            ],
            "name": "isVoted",
            "outputs": [
                {
                    "internalType": "bool",
                    "name": "",
                    "type": "bool"
                }
            ],
            "stateMutability": "view",
            "type": "function"
        },
        {
            "inputs": [
                {
                    "internalType": "uint256",
                    "name": "seqOfMotion",
                    "type": "uint256"
                },
                {
                    "internalType": "uint256",
                    "name": "acct",
                    "type": "uint256"
                },
                {
                    "internalType": "uint8",
                    "name": "atti",
                    "type": "uint8"
                }
            ],
            "name": "isVotedFor",
            "outputs": [
                {
                    "internalType": "bool",
                    "name": "",
                    "type": "bool"
                }
            ],
            "stateMutability": "view",
            "type": "function"
        },
        {
            "inputs": [],
            "name": "lockContents",
            "outputs": [],
            "stateMutability": "nonpayable",
            "type": "function"
        },
        {
            "inputs": [
                {
                    "internalType": "uint256",
                    "name": "seqOfPos",
                    "type": "uint256"
                },
                {
                    "internalType": "uint16",
                    "name": "seqOfVR",
                    "type": "uint16"
                },
                {
                    "internalType": "uint40",
                    "name": "candidate",
                    "type": "uint40"
                },
                {
                    "internalType": "uint40",
                    "name": "nominator",
                    "type": "uint40"
                }
            ],
            "name": "nominateOfficer",
            "outputs": [
                {
                    "internalType": "uint64",
                    "name": "",
                    "type": "uint64"
                }
            ],
            "stateMutability": "nonpayable",
            "type": "function"
        },
        {
            "inputs": [
                {
                    "internalType": "uint16",
                    "name": "seqOfVR",
                    "type": "uint16"
                },
                {
                    "internalType": "address[]",
                    "name": "targets",
                    "type": "address[]"
                },
                {
                    "internalType": "uint256[]",
                    "name": "values",
                    "type": "uint256[]"
                },
                {
                    "internalType": "bytes[]",
                    "name": "params",
                    "type": "bytes[]"
                },
                {
                    "internalType": "bytes32",
                    "name": "desHash",
                    "type": "bytes32"
                },
                {
                    "internalType": "uint40",
                    "name": "executor",
                    "type": "uint40"
                },
                {
                    "internalType": "uint40",
                    "name": "proposer",
                    "type": "uint40"
                }
            ],
            "name": "proposeAction",
            "outputs": [
                {
                    "internalType": "uint64",
                    "name": "",
                    "type": "uint64"
                }
            ],
            "stateMutability": "nonpayable",
            "type": "function"
        },
        {
            "inputs": [
                {
                    "internalType": "address",
                    "name": "doc",
                    "type": "address"
                },
                {
                    "internalType": "uint16",
                    "name": "seqOfVR",
                    "type": "uint16"
                },
                {
                    "internalType": "uint40",
                    "name": "executor",
                    "type": "uint40"
                },
                {
                    "internalType": "uint40",
                    "name": "proposer",
                    "type": "uint40"
                }
            ],
            "name": "proposeDoc",
            "outputs": [
                {
                    "internalType": "uint64",
                    "name": "",
                    "type": "uint64"
                }
            ],
            "stateMutability": "nonpayable",
            "type": "function"
        },
        {
            "inputs": [
                {
                    "internalType": "uint256",
                    "name": "seqOfMotion",
                    "type": "uint256"
                },
                {
                    "internalType": "uint40",
                    "name": "proposer",
                    "type": "uint40"
                }
            ],
            "name": "proposeMotion",
            "outputs": [],
            "stateMutability": "nonpayable",
            "type": "function"
        },
        {
            "inputs": [
                {
                    "internalType": "uint256",
                    "name": "seqOfPos",
                    "type": "uint256"
                },
                {
                    "internalType": "uint16",
                    "name": "seqOfVR",
                    "type": "uint16"
                },
                {
                    "internalType": "uint40",
                    "name": "nominator",
                    "type": "uint40"
                }
            ],
            "name": "proposeToRemoveOfficer",
            "outputs": [
                {
                    "internalType": "uint64",
                    "name": "",
                    "type": "uint64"
                }
            ],
            "stateMutability": "nonpayable",
            "type": "function"
        },
        {
            "inputs": [
                {
                    "internalType": "bytes32",
                    "name": "role",
                    "type": "bytes32"
                }
            ],
            "name": "renounceRole",
            "outputs": [],
            "stateMutability": "nonpayable",
            "type": "function"
        },
        {
            "inputs": [
                {
                    "internalType": "bytes32",
                    "name": "role",
                    "type": "bytes32"
                },
                {
                    "internalType": "uint256",
                    "name": "acct",
                    "type": "uint256"
                }
            ],
            "name": "revokeRole",
            "outputs": [],
            "stateMutability": "nonpayable",
            "type": "function"
        },
        {
            "inputs": [
                {
                    "internalType": "address",
                    "name": "keeper",
                    "type": "address"
                }
            ],
            "name": "setDirectKeeper",
            "outputs": [],
            "stateMutability": "nonpayable",
            "type": "function"
        },
        {
            "inputs": [
                {
                    "internalType": "uint256",
                    "name": "acct",
                    "type": "uint256"
                }
            ],
            "name": "setGeneralCounsel",
            "outputs": [],
            "stateMutability": "nonpayable",
            "type": "function"
        },
        {
            "inputs": [
                {
                    "internalType": "uint256",
                    "name": "acct",
                    "type": "uint256"
                }
            ],
            "name": "setOwner",
            "outputs": [],
            "stateMutability": "nonpayable",
            "type": "function"
        },
        {
            "inputs": [
                {
                    "internalType": "bytes32",
                    "name": "role",
                    "type": "bytes32"
                },
                {
                    "internalType": "uint256",
                    "name": "acct",
                    "type": "uint256"
                }
            ],
            "name": "setRoleAdmin",
            "outputs": [],
            "stateMutability": "nonpayable",
            "type": "function"
        },
        {
            "inputs": [
                {
                    "internalType": "uint256",
                    "name": "seqOfMotion",
                    "type": "uint256"
                },
                {
                    "components": [
                        {
                            "internalType": "uint64",
                            "name": "totalHead",
                            "type": "uint64"
                        },
                        {
                            "internalType": "uint64",
                            "name": "totalWeight",
                            "type": "uint64"
                        },
                        {
                            "internalType": "uint64",
                            "name": "supportHead",
                            "type": "uint64"
                        },
                        {
                            "internalType": "uint64",
                            "name": "supportWeight",
                            "type": "uint64"
                        }
                    ],
                    "internalType": "struct MotionsRepo.VoteCalBase",
                    "name": "base",
                    "type": "tuple"
                }
            ],
            "name": "voteCounting",
            "outputs": [],
            "stateMutability": "nonpayable",
            "type": "function"
        },
        {
            "inputs": [
                {
                    "internalType": "uint256",
                    "name": "seqOfMotion",
                    "type": "uint256"
                }
            ],
            "name": "voteEnded",
            "outputs": [
                {
                    "internalType": "bool",
                    "name": "",
                    "type": "bool"
                }
            ],
            "stateMutability": "view",
            "type": "function"
        },
        {
            "inputs": [
                {
                    "internalType": "uint256",
                    "name": "seqOfMotion",
                    "type": "uint256"
                }
            ],
            "name": "voteStarted",
            "outputs": [
                {
                    "internalType": "bool",
                    "name": "",
                    "type": "bool"
                }
            ],
            "stateMutability": "view",
            "type": "function"
        }
    ],
    "bytecode": "608060405234801561001057600080fd5b50614722806100206000396000f3fe608060405234801561001057600080fd5b50600436106102325760003560e01c806382405f4511610130578063b43a401d116100b8578063f045a7691161007c578063f045a7691461058f578063f3c54fac14610597578063fb446ba1146105aa578063fcf68f52146105bd578063fd8f19c2146105d057600080fd5b8063b43a401d14610523578063d408acdd14610536578063dc890da914610549578063ea56efc61461055c578063ed2110231461056f57600080fd5b8063a0743e71116100ff578063a0743e71146104b6578063a1e1d621146104c9578063a836a3e3146104dc578063ad15aad2146104ef578063b3f05b971461050f57600080fd5b806382405f4514610468578063893d20e81461047b5780638bb9c5bf146104835780638d5b65851461049657600080fd5b80634a14beb1116101be5780636be8496f116101825780636be8496f146104095780636c0c8b541461041c5780637ac0fb781461042f5780637e063c5a146104425780638041494e1461045557600080fd5b80634a14beb11461039d5780635171ebd4146103b057806352cad28e146103c357806359269f82146103d657806361df743f146103e957600080fd5b80631b6ea9f9116102055780631b6ea9f91461032e578063216eeebf146103415780633be1de09146103545780633da9a60014610367578063494031831461037a57600080fd5b80630d358757146102375780630e6d37cc146102d0578063103f6edd146102fb57806319d61ad914610319575b600080fd5b61024a610245366004613033565b6105e3565b6040516102c79190600060e08201905064ffffffffff835116825260ff602084015116602083015263ffffffff604084015116604083015260608301516001600160401b03808216606085015265ffffffffffff60808601511660808501528060a08601511660a0850152505060c083015160c083015292915050565b60405180910390f35b6102e36102de3660046131d3565b6106b1565b6040516001600160401b0390911681526020016102c7565b6103036108a9565b60405164ffffffffff90911681526020016102c7565b61032c610327366004613033565b610935565b005b61032c61033c366004613033565b6109c7565b6102e361034f36600461329b565b6109ed565b61032c6103623660046132f7565b610add565b61032c610375366004613330565b610c4e565b61038d610388366004613330565b610cd9565b60405190151581526020016102c7565b61032c6103ab366004613330565b610d66565b61032c6103be366004613033565b610fc3565b61032c6103d136600461351e565b610fe9565b61038d6103e4366004613330565b611221565b6103fc6103f7366004613033565b611262565b6040516102c791906135e0565b61032c61041736600461366e565b61131f565b61032c61042a36600461368b565b6113d1565b61032c61043d3660046136ca565b611b85565b61038d610450366004613033565b611d24565b61032c610463366004613330565b611db9565b61038d61047636600461371c565b611e72565b610303611f18565b61032c610491366004613330565b611f53565b6104a96104a436600461374a565b611f78565b6040516102c791906137aa565b61032c6104c43660046137f0565b612026565b61038d6104d7366004613330565b6121c6565b6102e36104ea366004613877565b612207565b6105026104fd366004613330565b6122c6565b6040516102c79190613a64565b60028054600160f01b900460ff161461038d565b61038d610531366004613330565b612358565b6102e3610544366004613b0b565b612399565b61032c610557366004613b33565b612476565b61038d61056a366004613033565b612558565b6105776125a0565b6040516001600160a01b0390911681526020016102c7565b61032c612626565b6102e36105a5366004613b6b565b61286a565b61032c6105b8366004613c32565b612969565b6102e36105cb366004613c7a565b612b15565b6103036105de36600461368b565b612bf1565b6040805160e081018252600080825260208201819052818301819052606082018190526080820181905260a0820181905260c08201529051635eeb98eb60e01b8152600480820152602481018490526044810183905273__$c69e6785922941bfe0f11afdbfcce85492$__90635eeb98eb9060640160e06040518083038186803b15801561067057600080fd5b505af4158015610684573d6000803e3d6000fd5b505050506040513d601f19601f820116820180604052508101906106a89190613cd2565b90505b92915050565b604051633b11adbf60e21b81526002600482015233602482015260009073__$364aad554dc80380f414546becdd2c1584$__9063ec46b6fc9060440160206040518083038186803b15801561070557600080fd5b505af4158015610719573d6000803e3d6000fd5b505050506040513d601f19601f8201168201806040525081019061073d9190613d95565b6107625760405162461bcd60e51b815260040161075990613db0565b60405180910390fd5b60405163a64ee9bd60e01b815273__$c69e6785922941bfe0f11afdbfcce85492$__9063a64ee9bd9061079d90600490879087908301613df6565b60e06040518083038186803b1580156107b557600080fd5b505af41580156107c9573d6000803e3d6000fd5b505050506040513d601f19601f820116820180604052508101906107ed9190613ec6565b92508173__$c69e6785922941bfe0f11afdbfcce85492$__63f138788e856040518263ffffffff1660e01b81526004016108279190613ee2565b60206040518083038186803b15801561083f57600080fd5b505af4158015610853573d6000803e3d6000fd5b505050506040513d601f19601f820116820180604052508101906108779190613ef0565b6040517f915432c0784e970b467614ce80b3663923a68cf213b9a5a7de3acfe74badb6d990600090a350506020015190565b60405163e8c0cc1d60e01b81526002600482015260009073__$364aad554dc80380f414546becdd2c1584$__9063e8c0cc1d906024015b60206040518083038186803b1580156108f857600080fd5b505af415801561090c573d6000803e3d6000fd5b505050506040513d601f19601f820116820180604052508101906109309190613f09565b905090565b73__$364aad554dc80380f414546becdd2c1584$__6382daafaa6002848461095b612c8a565b6040516001600160e01b031960e087901b16815260048101949094526024840192909252604483015264ffffffffff16606482015260840160006040518083038186803b1580156109ab57600080fd5b505af41580156109bf573d6000803e3d6000fd5b505050505050565b73__$364aad554dc80380f414546becdd2c1584$__636320d75e6002848461095b612c8a565b604051633b11adbf60e21b81526002600482015233602482015260009073__$364aad554dc80380f414546becdd2c1584$__9063ec46b6fc9060440160206040518083038186803b158015610a4157600080fd5b505af4158015610a55573d6000803e3d6000fd5b505050506040513d601f19601f82011682018060405250810190610a799190613d95565b610a955760405162461bcd60e51b815260040161075990613db0565b610a9d612eed565b6003815261ffff8516604082015264ffffffffff838116606083015284166080820152610ad3816001600160a01b0388166106b1565b9695505050505050565b6001546040516335d2155560e11b81523360048201526001600160a01b0390911690636ba42aaa9060240160206040518083038186803b158015610b2057600080fd5b505afa158015610b34573d6000803e3d6000fd5b505050506040513d601f19601f82011682018060405250810190610b589190613d95565b610b985760405162461bcd60e51b815260206004820152601160248201527020a19737b59d103737ba1025b2b2b832b960791b6044820152606401610759565b604051637302d4f760e11b8152600480820152602481018490526044810183905264ffffffffff8216606482015273__$c69e6785922941bfe0f11afdbfcce85492$__9063e605a9ee9060840160006040518083038186803b158015610bfd57600080fd5b505af4158015610c11573d6000803e3d6000fd5b505060405164ffffffffff841692508591507fae42f3be1ee887ec3af249092d8ce9d9a13ac3c2a8e40639341a77ac2e012de390600090a3505050565b73__$364aad554dc80380f414546becdd2c1584$__63c51b295f600283610c73612c8a565b6040516001600160e01b031960e086901b1681526004810193909352602483019190915264ffffffffff16604482015260640160006040518083038186803b158015610cbe57600080fd5b505af4158015610cd2573d6000803e3d6000fd5b5050505050565b604051631d62ca6b60e11b81526004808201526024810182905260009073__$c69e6785922941bfe0f11afdbfcce85492$__90633ac594d6906044015b60206040518083038186803b158015610d2e57600080fd5b505af4158015610d42573d6000803e3d6000fd5b505050506040513d601f19601f820116820180604052508101906106ab9190613d95565b604051633b11adbf60e21b81526002600482015233602482015273__$364aad554dc80380f414546becdd2c1584$__9063ec46b6fc9060440160206040518083038186803b158015610db757600080fd5b505af4158015610dcb573d6000803e3d6000fd5b505050506040513d601f19601f82011682018060405250810190610def9190613d95565b80610e94575073__$364aad554dc80380f414546becdd2c1584$__63fe2710866002610e19612c8a565b6040516001600160e01b031960e085901b168152600481019290925264ffffffffff16602482015260440160206040518083038186803b158015610e5c57600080fd5b505af4158015610e70573d6000803e3d6000fd5b505050506040513d601f19601f82011682018060405250810190610e949190613d95565b610eff5760405162461bcd60e51b815260206004820152603660248201527f41432e6f776e65724f72446972656374426f6f6b65657065723a206e6569746860448201527532b91037bbb732b9103737b9103137b7b5b2b2b832b960511b6064820152608401610759565b73__$364aad554dc80380f414546becdd2c1584$__639b4510de600283610f24612c8a565b6040516001600160e01b031960e086901b1681526004810193909352602483019190915264ffffffffff16604482015260640160006040518083038186803b158015610f6f57600080fd5b505af4158015610f83573d6000803e3d6000fd5b505050507ff2735f34b69be1e6342dea95f9162f84d0db925fab655ca9f1f312ac8cbfc99d81604051610fb891815260200190565b60405180910390a150565b73__$364aad554dc80380f414546becdd2c1584$__63ee98b3136002848461095b612c8a565b604051633b11adbf60e21b81526002600482015233602482015273__$364aad554dc80380f414546becdd2c1584$__9063ec46b6fc9060440160206040518083038186803b15801561103a57600080fd5b505af415801561104e573d6000803e3d6000fd5b505050506040513d601f19601f820116820180604052508101906110729190613d95565b61108e5760405162461bcd60e51b815260040161075990613db0565b604051630363eeeb60e01b81526004808201526024810183905260009073__$c69e6785922941bfe0f11afdbfcce85492$__90630363eeeb906044016103e06040518083038186803b1580156110e357600080fd5b505af41580156110f7573d6000803e3d6000fd5b505050506040513d601f19601f8201168201806040525081019061111b9190614158565b80515190915061ffff166004146111745760405162461bcd60e51b815260206004820152601960248201527f4d4d2e45413a2077726f6e6720747970654f664d6f74696f6e000000000000006044820152606401610759565b60006111878961ffff1689898989612ce4565b9050611194848285610add565b61119f888888612d21565b156111df576040516001815281907f90d27aa223d991b1f5ce114c8bd3a03525a9f3e05799b7b66fb9f431df931f139060200160405180910390a2611216565b6040516000815281907f90d27aa223d991b1f5ce114c8bd3a03525a9f3e05799b7b66fb9f431df931f139060200160405180910390a25b505050505050505050565b604051633e9ace7f60e11b81526004808201526024810182905260009073__$c69e6785922941bfe0f11afdbfcce85492$__90637d359cfe90604401610d16565b6040805160a081018252600080825260208201819052818301819052606080830191909152608082015290516322576ef960e11b8152600480820152602481018490526044810183905273__$c69e6785922941bfe0f11afdbfcce85492$__906344aeddf29060640160006040518083038186803b1580156112e357600080fd5b505af41580156112f7573d6000803e3d6000fd5b505050506040513d6000823e601f3d908101601f191682016040526106a891908101906141b7565b604051630f07232560e01b8152600260048201526001600160a01b038216602482015233604482015273__$364aad554dc80380f414546becdd2c1584$__90630f0723259060640160006040518083038186803b15801561137f57600080fd5b505af4158015611393573d6000803e3d6000fd5b50506040516001600160a01b03841681527fe435cbeab64e4eae6497b9d8289704bd709d624a80704ef3ca9af777534bc6ec92506020019050610fb8565b604051633b11adbf60e21b81526002600482015233602482015273__$364aad554dc80380f414546becdd2c1584$__9063ec46b6fc9060440160206040518083038186803b15801561142257600080fd5b505af4158015611436573d6000803e3d6000fd5b505050506040513d601f19601f8201168201806040525081019061145a9190613d95565b6114765760405162461bcd60e51b815260040161075990613db0565b600060046000016000848152602001908152602001600020604051806080016040529081600082016040518060e00160405290816000820160009054906101000a900461ffff1661ffff1661ffff1681526020016000820160029054906101000a90046001600160401b03166001600160401b03166001600160401b0316815260200160008201600a9054906101000a900461ffff1661ffff1661ffff16815260200160008201600c9054906101000a900464ffffffffff1664ffffffffff1664ffffffffff1681526020016000820160119054906101000a900464ffffffffff1664ffffffffff1664ffffffffff1681526020016000820160169054906101000a900465ffffffffffff1665ffffffffffff1665ffffffffffff16815260200160008201601c9054906101000a900463ffffffff1663ffffffff1663ffffffff16815250508152602001600182016040518060e00160405290816000820160009054906101000a900464ffffffffff1664ffffffffff1664ffffffffff1681526020016000820160059054906101000a900465ffffffffffff1665ffffffffffff1665ffffffffffff16815260200160008201600b9054906101000a900465ffffffffffff1665ffffffffffff1665ffffffffffff1681526020016000820160119054906101000a900465ffffffffffff1665ffffffffffff1665ffffffffffff1681526020016000820160179054906101000a900465ffffffffffff1665ffffffffffff1665ffffffffffff16815260200160008201601d9054906101000a900461ffff1661ffff1661ffff16815260200160008201601f9054906101000a900460ff1660ff1660ff1681525050815260200160028201604051806101e00160405290816000820160009054906101000a900461ffff1661ffff1661ffff1681526020016000820160029054906101000a900460ff1660ff1660ff1681526020016000820160039054906101000a900460ff1660ff1660ff1681526020016000820160049054906101000a900461ffff1661ffff1661ffff1681526020016000820160069054906101000a900461ffff1661ffff1661ffff1681526020016000820160089054906101000a900461ffff1661ffff1661ffff16815260200160008201600a9054906101000a900460ff1615151515815260200160008201600b9054906101000a900460ff1615151515815260200160008201600c9054906101000a900460ff1615151515815260200160008201600d9054906101000a900460ff1615151515815260200160008201600e9054906101000a900461ffff1661ffff1661ffff1681526020016000820160109054906101000a900461ffff1661ffff1661ffff1681526020016000820160129054906101000a900461ffff1661ffff1661ffff1681526020016000820160149054906101000a900461ffff1661ffff1661ffff1681526020016001820160028060200260405190810160405280929190826002801561190b576020028201916000905b82829054906101000a900464ffffffffff1664ffffffffff16815260200190600501906020826004010492830192600103820291508084116118cc5790505b505050505081525050815260200160048201548152505090506000600160009054906101000a90046001600160a01b03166001600160a01b031663a61adc286040518163ffffffff1660e01b815260040160206040518083038186803b15801561197457600080fd5b505afa158015611988573d6000803e3d6000fd5b505050506040513d601f19601f820116820180604052508101906119ac91906142ce565b82516040908101519051634846203760e01b815261ffff90911660048201526001600160a01b03919091169063484620379060240160206040518083038186803b1580156119f957600080fd5b505afa158015611a0d573d6000803e3d6000fd5b505050506040513d601f19601f82011682018060405250810190611a319190613ef0565b60405163d1296c8f60e01b8152600481019190915273__$9d2c69e94fee47b9774dc8db4aa5c0bbec$__9063d1296c8f906024016102006040518083038186803b158015611a7e57600080fd5b505af4158015611a92573d6000803e3d6000fd5b505050506040513d601f19601f82011682018060405250810190611ab691906142eb565b604051637ae6f03360e11b815290915073__$c69e6785922941bfe0f11afdbfcce85492$__9063f5cde06690611af6906004908890869089908401614308565b60e06040518083038186803b158015611b0e57600080fd5b505af4158015611b22573d6000803e3d6000fd5b505050506040513d601f19601f82011682018060405250810190611b469190614445565b602083015260405164ffffffffff84169085907f2eed72fdf855f1461258147d82bc92c0cec2d5d72f85c0471ce349f51b37d95d90600090a350505050565b604051633b11adbf60e21b81526002600482015233602482015273__$364aad554dc80380f414546becdd2c1584$__9063ec46b6fc9060440160206040518083038186803b158015611bd657600080fd5b505af4158015611bea573d6000803e3d6000fd5b505050506040513d601f19601f82011682018060405250810190611c0e9190613d95565b611c2a5760405162461bcd60e51b815260040161075990613db0565b6040516319bd5b5560e31b8152600480820152602481018690526044810182905260ff85166064820152608481018490526001600160a01b03831660a482015273__$c69e6785922941bfe0f11afdbfcce85492$__9063cdeadaa89060c40160206040518083038186803b158015611ca157600080fd5b505af4158015611cb5573d6000803e3d6000fd5b505050506040513d601f19601f82011682018060405250810190611cd99190613d95565b15610cd2578360ff1681867f479d980d169d88df4cc262d98fe45a41bb84b9fec75d61e6724e28f103836c3f86604051611d1591815260200190565b60405180910390a45050505050565b604051632a3be56b60e21b815260026004820152602481018390526044810182905260009073__$364aad554dc80380f414546becdd2c1584$__9063a8ef95ac906064015b60206040518083038186803b158015611d8157600080fd5b505af4158015611d95573d6000803e3d6000fd5b505050506040513d601f19601f820116820180604052508101906106a89190613d95565b73__$364aad554dc80380f414546becdd2c1584$__639b48160c600283611dde612c8a565b6040516001600160e01b031960e086901b1681526004810193909352602483019190915264ffffffffff16604482015260640160006040518083038186803b158015611e2957600080fd5b505af4158015611e3d573d6000803e3d6000fd5b505050507f8b6f40f36b4ae8cc5f55e895036457c43da4ab1f80f58c46f5ff0d72a650033b81604051610fb891815260200190565b604051637d09b4ad60e01b8152600480820152602481018490526044810183905260ff8216606482015260009073__$c69e6785922941bfe0f11afdbfcce85492$__90637d09b4ad9060840160206040518083038186803b158015611ed657600080fd5b505af4158015611eea573d6000803e3d6000fd5b505050506040513d601f19601f82011682018060405250810190611f0e9190613d95565b90505b9392505050565b60405163987ad15360e01b81526002600482015260009073__$364aad554dc80380f414546becdd2c1584$__9063987ad153906024016108e0565b73__$364aad554dc80380f414546becdd2c1584$__63cc0d511b600283610c73612c8a565b60408051606080820183526000808352602083015281830152905163453d719360e01b81526004808201526024810184905260ff8316604482015273__$c69e6785922941bfe0f11afdbfcce85492$__9063453d71939060640160006040518083038186803b158015611fea57600080fd5b505af4158015611ffe573d6000803e3d6000fd5b505050506040513d6000823e601f3d908101601f191682016040526106a89190810190614461565b604051633b11adbf60e21b81526002600482015233602482015273__$364aad554dc80380f414546becdd2c1584$__9063ec46b6fc9060440160206040518083038186803b15801561207757600080fd5b505af415801561208b573d6000803e3d6000fd5b505050506040513d601f19601f820116820180604052508101906120af9190613d95565b6120cb5760405162461bcd60e51b815260040161075990613db0565b60408051633bcc83c360e11b81526004808201526024810184905282516001600160401b0390811660448301526020840151811660648301529183015182166084820152606083015190911660a482015260009073__$c69e6785922941bfe0f11afdbfcce85492$__9063779907869060c40160206040518083038186803b15801561215657600080fd5b505af415801561216a573d6000803e3d6000fd5b505050506040513d601f19601f8201168201806040525081019061218e9190614549565b90508060ff16837f09dabc8247f652d3170a3738595d35365582b55eebeee44e1059d2981852648360405160405180910390a3505050565b60405163cc526e6b60e01b81526004808201526024810182905260009073__$c69e6785922941bfe0f11afdbfcce85492$__9063cc526e6b90604401610d16565b604051634a0297cb60e01b81526004808201526024810185905264ffffffffff8416604482015265ffffffffffff831660648201526001600160a01b038216608482015260009073__$c69e6785922941bfe0f11afdbfcce85492$__90634a0297cb9060a40160206040518083038186803b15801561228557600080fd5b505af4158015612299573d6000803e3d6000fd5b505050506040513d601f19601f820116820180604052508101906122bd9190614566565b95945050505050565b6122ce612f29565b604051630363eeeb60e01b81526004808201526024810183905273__$c69e6785922941bfe0f11afdbfcce85492$__90630363eeeb906044016103e06040518083038186803b15801561232057600080fd5b505af4158015612334573d6000803e3d6000fd5b505050506040513d601f19601f820116820180604052508101906106ab9190614158565b6040516338d1980760e21b81526004808201526024810182905260009073__$c69e6785922941bfe0f11afdbfcce85492$__9063e346601c90604401610d16565b604051633b11adbf60e21b81526002600482015233602482015260009073__$364aad554dc80380f414546becdd2c1584$__9063ec46b6fc9060440160206040518083038186803b1580156123ed57600080fd5b505af4158015612401573d6000803e3d6000fd5b505050506040513d601f19601f820116820180604052508101906124259190613d95565b6124415760405162461bcd60e51b815260040161075990613db0565b612449612eed565b6001815261ffff8516604082015264ffffffffff838116606083015284166080820152610ad381876106b1565b604051636cdd0edf60e11b815260026004820152602481018590526001600160a01b038416604482015273__$364aad554dc80380f414546becdd2c1584$__9063d9ba1dbe9060640160006040518083038186803b1580156124d757600080fd5b505af41580156124eb573d6000803e3d6000fd5b505050506124f882612dff565b61250181612e72565b604080518581526001600160a01b038581166020830152848116828401528316606082015290517f3abb2418c66fe32ba9c883030a75ce583971d9af9192b9b74e44e67c5e6c8c1f9181900360800190a150505050565b60405163b34299c960e01b8152600480820152602481018390526044810182905260009073__$c69e6785922941bfe0f11afdbfcce85492$__9063b34299c990606401611d69565b604051633c3e56c160e11b81526002600482015260009073__$364aad554dc80380f414546becdd2c1584$__9063787cad829060240160206040518083038186803b1580156125ee57600080fd5b505af4158015612602573d6000803e3d6000fd5b505050506040513d601f19601f8201168201806040525081019061093091906142ce565b600254600160f01b900460ff166001146126825760405162461bcd60e51b815260206004820152601760248201527f41432e4c433a20446f632069732066696e616c697a65640000000000000000006044820152606401610759565b73__$364aad554dc80380f414546becdd2c1584$__63c51b295f6002684174746f726e65797360b81b6126b3612c8a565b6040516001600160e01b031960e086901b1681526004810193909352602483019190915264ffffffffff16604482015260640160006040518083038186803b1580156126fe57600080fd5b505af4158015612712573d6000803e3d6000fd5b50505050600273__$364aad554dc80380f414546becdd2c1584$__639b4510de9091600061273e612c8a565b6040516001600160e01b031960e086901b1681526004810193909352602483019190915264ffffffffff16604482015260640160006040518083038186803b15801561278957600080fd5b505af415801561279d573d6000803e3d6000fd5b50505050600273__$364aad554dc80380f414546becdd2c1584$__639b48160c909160006127c9612c8a565b6040516001600160e01b031960e086901b1681526004810193909352602483019190915264ffffffffff16604482015260640160006040518083038186803b15801561281457600080fd5b505af4158015612828573d6000803e3d6000fd5b50506002805460ff60f01b1916600160f11b17905550506040517f35012b512309c322acf68632cd6cb702ff0e1d776fbe9394e38ffc13b434fe7590600090a1565b604051633b11adbf60e21b81526002600482015233602482015260009073__$364aad554dc80380f414546becdd2c1584$__9063ec46b6fc9060440160206040518083038186803b1580156128be57600080fd5b505af41580156128d2573d6000803e3d6000fd5b505050506040513d601f19601f820116820180604052508101906128f69190613d95565b6129125760405162461bcd60e51b815260040161075990613db0565b61291a612eed565b6004815261ffff89166040820181905264ffffffffff84811660608401528516608083015260009061294f908a8a8a8a612ce4565b905061295b82826106b1565b9a9950505050505050505050565b604051633b11adbf60e21b81526002600482015233602482015273__$364aad554dc80380f414546becdd2c1584$__9063ec46b6fc9060440160206040518083038186803b1580156129ba57600080fd5b505af41580156129ce573d6000803e3d6000fd5b505050506040513d601f19601f820116820180604052508101906129f29190613d95565b612a0e5760405162461bcd60e51b815260040161075990613db0565b604051630b0baa1f60e11b81526004808201526024810185905264ffffffffff8085166044830152831660648201526001600160401b038216608482015273__$c69e6785922941bfe0f11afdbfcce85492$__90631617543e9060a40160206040518083038186803b158015612a8357600080fd5b505af4158015612a97573d6000803e3d6000fd5b505050506040513d601f19601f82011682018060405250810190612abb9190613d95565b506040805164ffffffffff8581168252841660208201526001600160401b03831681830152905185917f9312e29b165b47befe1d8dbc089fea17ef2aea172e8dbbb5114e67e8e621cab7919081900360600190a250505050565b604051633b11adbf60e21b81526002600482015233602482015260009073__$364aad554dc80380f414546becdd2c1584$__9063ec46b6fc9060440160206040518083038186803b158015612b6957600080fd5b505af4158015612b7d573d6000803e3d6000fd5b505050506040513d601f19601f82011682018060405250810190612ba19190613d95565b612bbd5760405162461bcd60e51b815260040161075990613db0565b612bc5612eed565b6002815261ffff8416604082015264ffffffffff83166060820181905260808201526122bd81866106b1565b6040516322b59fb760e01b81526004808201526024810183905264ffffffffff8216604482015260009073__$c69e6785922941bfe0f11afdbfcce85492$__906322b59fb79060640160206040518083038186803b158015612c5257600080fd5b505af4158015612c66573d6000803e3d6000fd5b505050506040513d601f19601f820116820180604052508101906106a89190613f09565b60008054604051636ae3b70d60e11b81523360048201526001600160a01b039091169063d5c76e1a90602401602060405180830381600087803b158015612cd057600080fd5b505af115801561090c573d6000803e3d6000fd5b60008585858585604051602001612cff9594939291906145af565b60408051601f1981840301815291905280516020909101209695505050505050565b6000805b8451811015612df757848181518110612d4057612d40614691565b60200260200101516001600160a01b0316848281518110612d6357612d63614691565b6020026020010151848381518110612d7d57612d7d614691565b6020026020010151604051612d9291906146a7565b60006040518083038185875af1925050503d8060008114612dcf576040519150601f19603f3d011682016040523d82523d6000602084013e612dd4565b606091505b50508092505081612de55750611f11565b80612def816146c3565b915050612d25565b509392505050565b6000546001600160a01b031615612e505760405162461bcd60e51b815260206004820152601560248201527430b63932b0b23c9039b2ba103932b3a1b2b73a32b960591b6044820152606401610759565b600080546001600160a01b0319166001600160a01b0392909216919091179055565b6001546001600160a01b031615612ecb5760405162461bcd60e51b815260206004820152601960248201527f616c7265616479207365742067656e6572616c4b6565706572000000000000006044820152606401610759565b600180546001600160a01b0319166001600160a01b0392909216919091179055565b6040805160e081018252600080825260208201819052918101829052606081018290526080810182905260a0810182905260c081019190915290565b6040518060800160405280612f3c612eed565b81526040805160e08101825260008082526020828101829052928201819052606082018190526080820181905260a0820181905260c08201529101908152602001612f85612f92565b8152602001600081525090565b604080516101e081018252600080825260208201819052918101829052606081018290526080810182905260a0810182905260c0810182905260e08101829052610100810182905261012081018290526101408101829052610160810182905261018081018290526101a08101919091526101c08101613010613015565b905290565b60405180604001604052806002906020820280368337509192915050565b6000806040838503121561304657600080fd5b50508035926020909101359150565b634e487b7160e01b600052604160045260246000fd5b60405160e081016001600160401b038111828210171561308d5761308d613055565b60405290565b604051608081016001600160401b038111828210171561308d5761308d613055565b6040516101e081016001600160401b038111828210171561308d5761308d613055565b60405160a081016001600160401b038111828210171561308d5761308d613055565b604051606081016001600160401b038111828210171561308d5761308d613055565b604051601f8201601f191681016001600160401b038111828210171561314457613144613055565b604052919050565b61ffff8116811461315c57600080fd5b50565b6001600160401b038116811461315c57600080fd5b64ffffffffff8116811461315c57600080fd5b803561319281613174565b919050565b65ffffffffffff8116811461315c57600080fd5b803561319281613197565b63ffffffff8116811461315c57600080fd5b8035613192816131b6565b6000808284036101008112156131e857600080fd5b60e08112156131f657600080fd5b506131ff61306b565b833561320a8161314c565b8152602084013561321a8161315f565b6020820152604084013561322d8161314c565b6040820152606084013561324081613174565b606082015261325160808501613187565b608082015261326260a085016131ab565b60a082015261327360c085016131c8565b60c08201529460e0939093013593505050565b6001600160a01b038116811461315c57600080fd5b600080600080608085870312156132b157600080fd5b84356132bc81613286565b935060208501356132cc8161314c565b925060408501356132dc81613174565b915060608501356132ec81613174565b939692955090935050565b60008060006060848603121561330c57600080fd5b8335925060208401359150604084013561332581613174565b809150509250925092565b60006020828403121561334257600080fd5b5035919050565b60006001600160401b0382111561336257613362613055565b5060051b60200190565b600082601f83011261337d57600080fd5b8135602061339261338d83613349565b61311c565b82815260059290921b840181019181810190868411156133b157600080fd5b8286015b848110156133d55780356133c881613286565b83529183019183016133b5565b509695505050505050565b600082601f8301126133f157600080fd5b8135602061340161338d83613349565b82815260059290921b8401810191818101908684111561342057600080fd5b8286015b848110156133d55780358352918301918301613424565b6000601f838184011261344d57600080fd5b8235602061345d61338d83613349565b82815260059290921b8501810191818101908784111561347c57600080fd5b8287015b848110156135125780356001600160401b03808211156134a05760008081fd5b818a0191508a603f8301126134b55760008081fd5b858201356040828211156134cb576134cb613055565b6134dc828b01601f1916890161311c565b92508183528c818386010111156134f35760008081fd5b8181850189850137506000908201870152845250918301918301613480565b50979650505050505050565b600080600080600080600060e0888a03121561353957600080fd5b87356135448161314c565b965060208801356001600160401b038082111561356057600080fd5b61356c8b838c0161336c565b975060408a013591508082111561358257600080fd5b61358e8b838c016133e0565b965060608a01359150808211156135a457600080fd5b506135b18a828b0161343b565b9450506080880135925060a0880135915060c08801356135d081613174565b8091505092959891949750929550565b6000602080835260c0830164ffffffffff8086511683860152828601516001600160401b038082166040880152806040890151166060880152505063ffffffff6060870151166080860152608086015160a08087015282815180855260e0880191508583019450600092505b808310156135125784518416825293850193600192909201919085019061364c565b60006020828403121561368057600080fd5b8135611f1181613286565b6000806040838503121561369e57600080fd5b8235915060208301356136b081613174565b809150509250929050565b60ff8116811461315c57600080fd5b600080600080600060a086880312156136e257600080fd5b8535945060208601356136f4816136bb565b935060408601359250606086013561370b81613286565b949793965091946080013592915050565b60008060006060848603121561373157600080fd5b83359250602084013591506040840135613325816136bb565b6000806040838503121561375d57600080fd5b8235915060208301356136b0816136bb565b600081518084526020808501945080840160005b8381101561379f57815187529582019590820190600101613783565b509495945050505050565b6020815263ffffffff82511660208201526001600160401b036020830151166040820152600060408301516060808401526137e8608084018261376f565b949350505050565b60008082840360a081121561380457600080fd5b833592506080601f198201121561381a57600080fd5b50613823613093565b60208401356138318161315f565b815260408401356138418161315f565b602082015260608401356138548161315f565b604082015260808401356138678161315f565b6060820152919491935090915050565b6000806000806080858703121561388d57600080fd5b84359350602085013561389f81613174565b925060408501356138af81613197565b915060608501356132ec81613286565b61ffff8082511683526001600160401b03602083015116602084015280604083015116604084015250606081015164ffffffffff8082166060850152806080840151166080850152505065ffffffffffff60a08201511660a083015263ffffffff60c08201511660c08301525050565b8060005b600281101561395957815164ffffffffff16845260209384019390910190600101613933565b50505050565b805161ffff168252602081015161397b602084018260ff169052565b506040810151613990604084018260ff169052565b5060608101516139a6606084018261ffff169052565b5060808101516139bc608084018261ffff169052565b5060a08101516139d260a084018261ffff169052565b5060c08101516139e660c084018215159052565b5060e08101516139fa60e084018215159052565b5061010081810151151590830152610120808201511515908301526101408082015161ffff9081169184019190915261016080830151821690840152610180808301518216908401526101a080830151909116908301526101c0808201516139598285018261392f565b60006103e082019050613a788284516138bf565b602083810151805164ffffffffff1660e08501529081015165ffffffffffff908116610100850152604082015181166101208501526060820151811661014085015260808201511661016084015260a081015161ffff81166101808501525060c0015160ff81166101a0840152506040830151613af96101c084018261395f565b5060608301516103c083015292915050565b60008060008060808587031215613b2157600080fd5b8435935060208501356132cc8161314c565b60008060008060808587031215613b4957600080fd5b843593506020850135613b5b81613286565b925060408501356138af81613286565b600080600080600080600060e0888a031215613b8657600080fd5b8735613b918161314c565b965060208801356001600160401b0380821115613bad57600080fd5b613bb98b838c0161336c565b975060408a0135915080821115613bcf57600080fd5b613bdb8b838c016133e0565b965060608a0135915080821115613bf157600080fd5b50613bfe8a828b0161343b565b9450506080880135925060a0880135613c1681613174565b9150613c2460c08901613187565b905092959891949750929550565b60008060008060808587031215613c4857600080fd5b843593506020850135613c5a81613174565b92506040850135613c6a81613174565b915060608501356132ec8161315f565b600080600060608486031215613c8f57600080fd5b833592506020840135613ca18161314c565b9150604084013561332581613174565b8051613192816136bb565b80516131928161315f565b805161319281613197565b600060e08284031215613ce457600080fd5b60405160e081018181106001600160401b0382111715613d0657613d06613055565b6040528251613d1481613174565b81526020830151613d24816136bb565b60208201526040830151613d37816131b6565b60408201526060830151613d4a8161315f565b6060820152613d5b60808401613cc7565b6080820152613d6c60a08401613cbc565b60a082015260c083015160c08201528091505092915050565b8051801515811461319257600080fd5b600060208284031215613da757600080fd5b6106a882613d85565b60208082526026908201527f41432e6f6e6c794469726563744b65657065723a206e6f74206469726563742060408201526535b2b2b832b960d11b606082015260800190565b8381526101208101613e0b60208301856138bf565b82610100830152949350505050565b80516131928161314c565b600060e08284031215613e3757600080fd5b613e3f61306b565b90508151613e4c8161314c565b81526020820151613e5c8161315f565b60208201526040820151613e6f8161314c565b60408201526060820151613e8281613174565b60608201526080820151613e9581613174565b608082015260a0820151613ea881613197565b60a082015260c0820151613ebb816131b6565b60c082015292915050565b600060e08284031215613ed857600080fd5b6106a88383613e25565b60e081016106ab82846138bf565b600060208284031215613f0257600080fd5b5051919050565b600060208284031215613f1b57600080fd5b8151611f1181613174565b600060e08284031215613f3857600080fd5b613f4061306b565b90508151613f4d81613174565b81526020820151613f5d81613197565b60208201526040820151613f7081613197565b60408201526060820151613f8381613197565b60608201526080820151613f9681613197565b608082015260a0820151613fa98161314c565b60a082015260c0820151613ebb816136bb565b600082601f830112613fcd57600080fd5b604051604081018181106001600160401b0382111715613fef57613fef613055565b806040525080604084018581111561400657600080fd5b845b8181101561402957805161401b81613174565b835260209283019201614008565b509195945050505050565b6000610200828403121561404757600080fd5b61404f6130b5565b905061405a82613e1a565b815261406860208301613cb1565b602082015261407960408301613cb1565b604082015261408a60608301613e1a565b606082015261409b60808301613e1a565b60808201526140ac60a08301613e1a565b60a08201526140bd60c08301613d85565b60c08201526140ce60e08301613d85565b60e08201526101006140e1818401613d85565b908201526101206140f3838201613d85565b90820152610140614105838201613e1a565b90820152610160614117838201613e1a565b90820152610180614129838201613e1a565b908201526101a061413b838201613e1a565b908201526101c061414e84848301613fbc565b9082015292915050565b60006103e0828403121561416b57600080fd5b614173613093565b61417d8484613e25565b815261418c8460e08501613f26565b602082015261419f846101c08501614034565b60408201526103c09290920151606083015250919050565b600060208083850312156141ca57600080fd5b82516001600160401b03808211156141e157600080fd5b9084019060a082870312156141f557600080fd5b6141fd6130d8565b825161420881613174565b8152828401516142178161315f565b8185015260408301516142298161315f565b6040820152606083015161423c816131b6565b606082015260808301518281111561425357600080fd5b80840193505086601f84011261426857600080fd5b8251915061427861338d83613349565b82815260059290921b8301840191848101908884111561429757600080fd5b938501935b838510156142be5784516142af81613174565b8252938501939085019061429c565b6080830152509695505050505050565b6000602082840312156142e057600080fd5b8151611f1181613286565b600061020082840312156142fe57600080fd5b6106a88383614034565b84815260208101849052825161ffff1660408201526102608101602084015160ff8116606084015250604084015160ff8116608084015250606084015161ffff811660a084015250608084015161ffff811660c08401525060a084015161ffff811660e08401525060c08401516101006143858185018315159052565b60e0860151915061012061439c8186018415159052565b908601519150610140906143b38583018415159052565b86015191506101606143c88582018415159052565b908601519150610180906143e18583018461ffff169052565b86015191506101a06143f88582018461ffff169052565b9086015191506101c0906144118583018461ffff169052565b86015161ffff166101e0850152850151905061443161020084018261392f565b5064ffffffffff83166102408301526122bd565b600060e0828403121561445757600080fd5b6106a88383613f26565b6000602080838503121561447457600080fd5b82516001600160401b038082111561448b57600080fd5b908401906060828703121561449f57600080fd5b6144a76130fa565b82516144b2816131b6565b8152828401516144c18161315f565b818501526040830151828111156144d757600080fd5b80840193505086601f8401126144ec57600080fd5b825191506144fc61338d83613349565b82815260059290921b8301840191848101908884111561451b57600080fd5b938501935b8385101561453957845182529385019390850190614520565b6040830152509695505050505050565b60006020828403121561455b57600080fd5b8151611f11816136bb565b60006020828403121561457857600080fd5b8151611f118161315f565b60005b8381101561459e578181015183820152602001614586565b838111156139595750506000910152565b600060a08201878352602060a08185015281885180845260c086019150828a01935060005b818110156145f95784516001600160a01b0316835293830193918301916001016145d4565b5050848103604086015261460d818961376f565b92505083820360608501528186518084528284019150828160051b85010183890160005b8381101561467757601f198088850301865282518051808652614659818a88018b8501614583565b96880196601f01909116939093018601925090850190600101614631565b505080955050505050508260808301529695505050505050565b634e487b7160e01b600052603260045260246000fd5b600082516146b9818460208701614583565b9190910192915050565b60006000198214156146e557634e487b7160e01b600052601160045260246000fd5b506001019056fea2646970667358221220677598de558b9199cbf6423fbb8d18ef49cda6539f0c48b941f78190f0032dad64736f6c63430008080033",
    "sourcePath": "/Users/kaptain/github.com/hardhat/comboox/contracts/common/components/MeetingMinutes.sol",
    "compiler": {
        "name": "solc",
        "version": "0.8.8+commit.dddeac2f"
    },
    "functionHashes": {
        "abandonRole(bytes32)": "3da9a600",
        "castVote(uint256,uint8,bytes32,address,uint256)": "7ac0fb78",
        "createMotion((uint16,uint64,uint16,uint40,uint40,uint48,uint32),uint256)": "0e6d37cc",
        "entrustDelegate(uint256,uint40,uint40,uint64)": "fb446ba1",
        "execAction(uint16,address[],uint256[],bytes[],bytes32,uint256,uint40)": "52cad28e",
        "execResolution(uint256,uint256,uint40)": "3be1de09",
        "finalized()": "b3f05b97",
        "getBallot(uint256,uint256)": "0d358757",
        "getBookeeper()": "ed211023",
        "getCaseOfAttitude(uint256,uint8)": "8d5b6585",
        "getDelegateOf(uint256,uint40)": "fd8f19c2",
        "getGeneralCounsel()": "103f6edd",
        "getLeavesWeightAtDate(uint256,uint40,uint48,address)": "a836a3e3",
        "getMotion(uint256)": "ad15aad2",
        "getOwner()": "893d20e8",
        "getVoterOfDelegateMap(uint256,uint256)": "61df743f",
        "grantRole(bytes32,uint256)": "1b6ea9f9",
        "hasRole(bytes32,uint256)": "7e063c5a",
        "init(uint256,address,address,address)": "dc890da9",
        "isPassed(uint256)": "49403183",
        "isProposed(uint256)": "59269f82",
        "isVoted(uint256,uint256)": "ea56efc6",
        "isVotedFor(uint256,uint256,uint8)": "82405f45",
        "lockContents()": "f045a769",
        "nominateOfficer(uint256,uint16,uint40,uint40)": "d408acdd",
        "proposeAction(uint16,address[],uint256[],bytes[],bytes32,uint40,uint40)": "f3c54fac",
        "proposeDoc(address,uint16,uint40,uint40)": "216eeebf",
        "proposeMotion(uint256,uint40)": "6c0c8b54",
        "proposeToRemoveOfficer(uint256,uint16,uint40)": "fcf68f52",
        "renounceRole(bytes32)": "8bb9c5bf",
        "revokeRole(bytes32,uint256)": "19d61ad9",
        "setDirectKeeper(address)": "6be8496f",
        "setGeneralCounsel(uint256)": "4a14beb1",
        "setOwner(uint256)": "8041494e",
        "setRoleAdmin(bytes32,uint256)": "5171ebd4",
        "voteCounting(uint256,(uint64,uint64,uint64,uint64))": "a0743e71",
        "voteEnded(uint256)": "b43a401d",
        "voteStarted(uint256)": "a1e1d621"
    },
    "gasEstimates": {
        "creation": {
            "codeDepositCost": "3642000",
            "executionCost": "4105",
            "totalCost": "3646105"
        },
        "external": {
            "abandonRole(bytes32)": "infinite",
            "castVote(uint256,uint8,bytes32,address,uint256)": "infinite",
            "createMotion((uint16,uint64,uint16,uint40,uint40,uint48,uint32),uint256)": "infinite",
            "entrustDelegate(uint256,uint40,uint40,uint64)": "infinite",
            "execAction(uint16,address[],uint256[],bytes[],bytes32,uint256,uint40)": "infinite",
            "execResolution(uint256,uint256,uint40)": "infinite",
            "finalized()": "2460",
            "getBallot(uint256,uint256)": "infinite",
            "getBookeeper()": "infinite",
            "getCaseOfAttitude(uint256,uint8)": "infinite",
            "getDelegateOf(uint256,uint40)": "infinite",
            "getGeneralCounsel()": "infinite",
            "getLeavesWeightAtDate(uint256,uint40,uint48,address)": "infinite",
            "getMotion(uint256)": "infinite",
            "getOwner()": "infinite",
            "getVoterOfDelegateMap(uint256,uint256)": "infinite",
            "grantRole(bytes32,uint256)": "infinite",
            "hasRole(bytes32,uint256)": "infinite",
            "init(uint256,address,address,address)": "infinite",
            "isPassed(uint256)": "infinite",
            "isProposed(uint256)": "infinite",
            "isVoted(uint256,uint256)": "infinite",
            "isVotedFor(uint256,uint256,uint8)": "infinite",
            "lockContents()": "infinite",
            "nominateOfficer(uint256,uint16,uint40,uint40)": "infinite",
            "proposeAction(uint16,address[],uint256[],bytes[],bytes32,uint40,uint40)": "infinite",
            "proposeDoc(address,uint16,uint40,uint40)": "infinite",
            "proposeMotion(uint256,uint40)": "infinite",
            "proposeToRemoveOfficer(uint256,uint16,uint40)": "infinite",
            "renounceRole(bytes32)": "infinite",
            "revokeRole(bytes32,uint256)": "infinite",
            "setDirectKeeper(address)": "infinite",
            "setGeneralCounsel(uint256)": "infinite",
            "setOwner(uint256)": "infinite",
            "setRoleAdmin(bytes32,uint256)": "infinite",
            "voteCounting(uint256,(uint64,uint64,uint64,uint64))": "infinite",
            "voteEnded(uint256)": "infinite",
            "voteStarted(uint256)": "infinite"
        },
        "internal": {
            "_execute(address[] memory,uint256[] memory,bytes memory[] memory)": "infinite",
            "_hashAction(uint256,address[] memory,uint256[] memory,bytes memory[] memory,bytes32)": "infinite"
        }
    }
}