{
    "contractName": "MeetingMinutes",
    "abi": [
        {
            "anonymous": false,
            "inputs": [
                {
                    "indexed": true,
                    "internalType": "uint256",
                    "name": "seqOfMotion",
                    "type": "uint256"
                },
                {
                    "indexed": true,
                    "internalType": "uint256",
                    "name": "caller",
                    "type": "uint256"
                },
                {
                    "indexed": true,
                    "internalType": "uint256",
                    "name": "attitude",
                    "type": "uint256"
                },
                {
                    "indexed": false,
                    "internalType": "bytes32",
                    "name": "sigHash",
                    "type": "bytes32"
                }
            ],
            "name": "CastVote",
            "type": "event"
        },
        {
            "anonymous": false,
            "inputs": [
                {
                    "indexed": true,
                    "internalType": "uint256",
                    "name": "snOfMotion",
                    "type": "uint256"
                },
                {
                    "indexed": true,
                    "internalType": "uint256",
                    "name": "contents",
                    "type": "uint256"
                }
            ],
            "name": "CreateMotion",
            "type": "event"
        },
        {
            "anonymous": false,
            "inputs": [
                {
                    "indexed": true,
                    "internalType": "uint256",
                    "name": "seqOfMotion",
                    "type": "uint256"
                },
                {
                    "indexed": false,
                    "internalType": "uint256",
                    "name": "delegate",
                    "type": "uint256"
                },
                {
                    "indexed": false,
                    "internalType": "uint256",
                    "name": "principal",
                    "type": "uint256"
                },
                {
                    "indexed": false,
                    "internalType": "uint256",
                    "name": "weight",
                    "type": "uint256"
                }
            ],
            "name": "EntrustDelegate",
            "type": "event"
        },
        {
            "anonymous": false,
            "inputs": [
                {
                    "indexed": true,
                    "internalType": "uint256",
                    "name": "contents",
                    "type": "uint256"
                },
                {
                    "indexed": false,
                    "internalType": "bool",
                    "name": "result",
                    "type": "bool"
                }
            ],
            "name": "ExecAction",
            "type": "event"
        },
        {
            "anonymous": false,
            "inputs": [
                {
                    "indexed": true,
                    "internalType": "uint256",
                    "name": "seqOfMotion",
                    "type": "uint256"
                },
                {
                    "indexed": true,
                    "internalType": "uint256",
                    "name": "caller",
                    "type": "uint256"
                }
            ],
            "name": "ExecResolution",
            "type": "event"
        },
        {
            "anonymous": false,
            "inputs": [
                {
                    "indexed": false,
                    "internalType": "uint256",
                    "name": "owner",
                    "type": "uint256"
                },
                {
                    "indexed": false,
                    "internalType": "address",
                    "name": "directKeeper",
                    "type": "address"
                },
                {
                    "indexed": false,
                    "internalType": "address",
                    "name": "regCenter",
                    "type": "address"
                },
                {
                    "indexed": false,
                    "internalType": "address",
                    "name": "generalKeeper",
                    "type": "address"
                }
            ],
            "name": "Init",
            "type": "event"
        },
        {
            "anonymous": false,
            "inputs": [],
            "name": "LockContents",
            "type": "event"
        },
        {
            "anonymous": false,
            "inputs": [
                {
                    "indexed": true,
                    "internalType": "uint256",
                    "name": "seqOfMotion",
                    "type": "uint256"
                },
                {
                    "indexed": true,
                    "internalType": "uint256",
                    "name": "proposer",
                    "type": "uint256"
                }
            ],
            "name": "ProposeMotion",
            "type": "event"
        },
        {
            "anonymous": false,
            "inputs": [
                {
                    "indexed": false,
                    "internalType": "address",
                    "name": "keeper",
                    "type": "address"
                }
            ],
            "name": "SetDirectKeeper",
            "type": "event"
        },
        {
            "anonymous": false,
            "inputs": [
                {
                    "indexed": false,
                    "internalType": "uint256",
                    "name": "acct",
                    "type": "uint256"
                }
            ],
            "name": "SetGeneralCounsel",
            "type": "event"
        },
        {
            "anonymous": false,
            "inputs": [
                {
                    "indexed": false,
                    "internalType": "uint256",
                    "name": "acct",
                    "type": "uint256"
                }
            ],
            "name": "SetOwner",
            "type": "event"
        },
        {
            "anonymous": false,
            "inputs": [
                {
                    "indexed": true,
                    "internalType": "uint256",
                    "name": "seqOfMotion",
                    "type": "uint256"
                },
                {
                    "indexed": true,
                    "internalType": "uint8",
                    "name": "result",
                    "type": "uint8"
                }
            ],
            "name": "VoteCounting",
            "type": "event"
        },
        {
            "inputs": [
                {
                    "internalType": "bytes32",
                    "name": "role",
                    "type": "bytes32"
                }
            ],
            "name": "abandonRole",
            "outputs": [],
            "stateMutability": "nonpayable",
            "type": "function"
        },
        {
            "inputs": [
                {
                    "internalType": "uint256",
                    "name": "seqOfMotion",
                    "type": "uint256"
                },
                {
                    "internalType": "uint256",
                    "name": "attitude",
                    "type": "uint256"
                },
                {
                    "internalType": "bytes32",
                    "name": "sigHash",
                    "type": "bytes32"
                },
                {
                    "internalType": "contract IRegisterOfMembers",
                    "name": "_rom",
                    "type": "address"
                },
                {
                    "internalType": "uint256",
                    "name": "caller",
                    "type": "uint256"
                }
            ],
            "name": "castVote",
            "outputs": [],
            "stateMutability": "nonpayable",
            "type": "function"
        },
        {
            "inputs": [
                {
                    "components": [
                        {
                            "internalType": "uint16",
                            "name": "typeOfMotion",
                            "type": "uint16"
                        },
                        {
                            "internalType": "uint64",
                            "name": "seqOfMotion",
                            "type": "uint64"
                        },
                        {
                            "internalType": "uint16",
                            "name": "seqOfVR",
                            "type": "uint16"
                        },
                        {
                            "internalType": "uint40",
                            "name": "creator",
                            "type": "uint40"
                        },
                        {
                            "internalType": "uint40",
                            "name": "executor",
                            "type": "uint40"
                        },
                        {
                            "internalType": "uint48",
                            "name": "createDate",
                            "type": "uint48"
                        },
                        {
                            "internalType": "uint32",
                            "name": "data",
                            "type": "uint32"
                        }
                    ],
                    "internalType": "struct MotionsRepo.Head",
                    "name": "head",
                    "type": "tuple"
                },
                {
                    "internalType": "uint256",
                    "name": "contents",
                    "type": "uint256"
                }
            ],
            "name": "createMotion",
            "outputs": [
                {
                    "internalType": "uint64",
                    "name": "",
                    "type": "uint64"
                }
            ],
            "stateMutability": "nonpayable",
            "type": "function"
        },
        {
            "inputs": [
                {
                    "internalType": "uint256",
                    "name": "seqOfMotion",
                    "type": "uint256"
                },
                {
                    "internalType": "uint256",
                    "name": "delegate",
                    "type": "uint256"
                },
                {
                    "internalType": "uint256",
                    "name": "principal",
                    "type": "uint256"
                },
                {
                    "internalType": "uint256",
                    "name": "weight",
                    "type": "uint256"
                }
            ],
            "name": "entrustDelegate",
            "outputs": [],
            "stateMutability": "nonpayable",
            "type": "function"
        },
        {
            "inputs": [
                {
                    "internalType": "uint256",
                    "name": "seqOfVR",
                    "type": "uint256"
                },
                {
                    "internalType": "address[]",
                    "name": "targets",
                    "type": "address[]"
                },
                {
                    "internalType": "uint256[]",
                    "name": "values",
                    "type": "uint256[]"
                },
                {
                    "internalType": "bytes[]",
                    "name": "params",
                    "type": "bytes[]"
                },
                {
                    "internalType": "bytes32",
                    "name": "desHash",
                    "type": "bytes32"
                },
                {
                    "internalType": "uint256",
                    "name": "seqOfMotion",
                    "type": "uint256"
                },
                {
                    "internalType": "uint256",
                    "name": "caller",
                    "type": "uint256"
                }
            ],
            "name": "execAction",
            "outputs": [],
            "stateMutability": "nonpayable",
            "type": "function"
        },
        {
            "inputs": [
                {
                    "internalType": "uint256",
                    "name": "seqOfMotion",
                    "type": "uint256"
                },
                {
                    "internalType": "uint256",
                    "name": "contents",
                    "type": "uint256"
                },
                {
                    "internalType": "uint256",
                    "name": "caller",
                    "type": "uint256"
                }
            ],
            "name": "execResolution",
            "outputs": [],
            "stateMutability": "nonpayable",
            "type": "function"
        },
        {
            "inputs": [],
            "name": "finalized",
            "outputs": [
                {
                    "internalType": "bool",
                    "name": "",
                    "type": "bool"
                }
            ],
            "stateMutability": "view",
            "type": "function"
        },
        {
            "inputs": [
                {
                    "internalType": "uint256",
                    "name": "seqOfMotion",
                    "type": "uint256"
                },
                {
                    "internalType": "uint256",
                    "name": "acct",
                    "type": "uint256"
                }
            ],
            "name": "getBallot",
            "outputs": [
                {
                    "components": [
                        {
                            "internalType": "uint40",
                            "name": "acct",
                            "type": "uint40"
                        },
                        {
                            "internalType": "uint8",
                            "name": "attitude",
                            "type": "uint8"
                        },
                        {
                            "internalType": "uint32",
                            "name": "head",
                            "type": "uint32"
                        },
                        {
                            "internalType": "uint64",
                            "name": "weight",
                            "type": "uint64"
                        },
                        {
                            "internalType": "uint48",
                            "name": "sigDate",
                            "type": "uint48"
                        },
                        {
                            "internalType": "uint64",
                            "name": "blocknumber",
                            "type": "uint64"
                        },
                        {
                            "internalType": "bytes32",
                            "name": "sigHash",
                            "type": "bytes32"
                        }
                    ],
                    "internalType": "struct BallotsBox.Ballot",
                    "name": "",
                    "type": "tuple"
                }
            ],
            "stateMutability": "view",
            "type": "function"
        },
        {
            "inputs": [],
            "name": "getBookeeper",
            "outputs": [
                {
                    "internalType": "address",
                    "name": "",
                    "type": "address"
                }
            ],
            "stateMutability": "view",
            "type": "function"
        },
        {
            "inputs": [
                {
                    "internalType": "uint256",
                    "name": "seqOfMotion",
                    "type": "uint256"
                },
                {
                    "internalType": "uint256",
                    "name": "atti",
                    "type": "uint256"
                }
            ],
            "name": "getCaseOfAttitude",
            "outputs": [
                {
                    "components": [
                        {
                            "internalType": "uint32",
                            "name": "sumOfHead",
                            "type": "uint32"
                        },
                        {
                            "internalType": "uint64",
                            "name": "sumOfWeight",
                            "type": "uint64"
                        },
                        {
                            "internalType": "uint256[]",
                            "name": "voters",
                            "type": "uint256[]"
                        }
                    ],
                    "internalType": "struct BallotsBox.Case",
                    "name": "",
                    "type": "tuple"
                }
            ],
            "stateMutability": "view",
            "type": "function"
        },
        {
            "inputs": [
                {
                    "internalType": "uint256",
                    "name": "seqOfMotion",
                    "type": "uint256"
                },
                {
                    "internalType": "uint256",
                    "name": "acct",
                    "type": "uint256"
                }
            ],
            "name": "getDelegateOf",
            "outputs": [
                {
                    "internalType": "uint256",
                    "name": "",
                    "type": "uint256"
                }
            ],
            "stateMutability": "view",
            "type": "function"
        },
        {
            "inputs": [],
            "name": "getGeneralCounsel",
            "outputs": [
                {
                    "internalType": "uint40",
                    "name": "",
                    "type": "uint40"
                }
            ],
            "stateMutability": "view",
            "type": "function"
        },
        {
            "inputs": [
                {
                    "internalType": "uint256",
                    "name": "seqOfMotion",
                    "type": "uint256"
                },
                {
                    "internalType": "uint256",
                    "name": "caller",
                    "type": "uint256"
                },
                {
                    "internalType": "uint256",
                    "name": "baseDate",
                    "type": "uint256"
                },
                {
                    "internalType": "contract IRegisterOfMembers",
                    "name": "_rom",
                    "type": "address"
                }
            ],
            "name": "getLeavesWeightAtDate",
            "outputs": [
                {
                    "internalType": "uint64",
                    "name": "weight",
                    "type": "uint64"
                }
            ],
            "stateMutability": "view",
            "type": "function"
        },
        {
            "inputs": [
                {
                    "internalType": "uint256",
                    "name": "seqOfMotion",
                    "type": "uint256"
                }
            ],
            "name": "getMotion",
            "outputs": [
                {
                    "components": [
                        {
                            "components": [
                                {
                                    "internalType": "uint16",
                                    "name": "typeOfMotion",
                                    "type": "uint16"
                                },
                                {
                                    "internalType": "uint64",
                                    "name": "seqOfMotion",
                                    "type": "uint64"
                                },
                                {
                                    "internalType": "uint16",
                                    "name": "seqOfVR",
                                    "type": "uint16"
                                },
                                {
                                    "internalType": "uint40",
                                    "name": "creator",
                                    "type": "uint40"
                                },
                                {
                                    "internalType": "uint40",
                                    "name": "executor",
                                    "type": "uint40"
                                },
                                {
                                    "internalType": "uint48",
                                    "name": "createDate",
                                    "type": "uint48"
                                },
                                {
                                    "internalType": "uint32",
                                    "name": "data",
                                    "type": "uint32"
                                }
                            ],
                            "internalType": "struct MotionsRepo.Head",
                            "name": "head",
                            "type": "tuple"
                        },
                        {
                            "components": [
                                {
                                    "internalType": "uint40",
                                    "name": "proposer",
                                    "type": "uint40"
                                },
                                {
                                    "internalType": "uint48",
                                    "name": "proposeDate",
                                    "type": "uint48"
                                },
                                {
                                    "internalType": "uint48",
                                    "name": "shareRegDate",
                                    "type": "uint48"
                                },
                                {
                                    "internalType": "uint48",
                                    "name": "voteStartDate",
                                    "type": "uint48"
                                },
                                {
                                    "internalType": "uint48",
                                    "name": "voteEndDate",
                                    "type": "uint48"
                                },
                                {
                                    "internalType": "uint16",
                                    "name": "para",
                                    "type": "uint16"
                                },
                                {
                                    "internalType": "uint8",
                                    "name": "state",
                                    "type": "uint8"
                                }
                            ],
                            "internalType": "struct MotionsRepo.Body",
                            "name": "body",
                            "type": "tuple"
                        },
                        {
                            "components": [
                                {
                                    "internalType": "uint16",
                                    "name": "seqOfRule",
                                    "type": "uint16"
                                },
                                {
                                    "internalType": "uint8",
                                    "name": "qtyOfSubRule",
                                    "type": "uint8"
                                },
                                {
                                    "internalType": "uint8",
                                    "name": "seqOfSubRule",
                                    "type": "uint8"
                                },
                                {
                                    "internalType": "uint16",
                                    "name": "authority",
                                    "type": "uint16"
                                },
                                {
                                    "internalType": "uint16",
                                    "name": "headRatio",
                                    "type": "uint16"
                                },
                                {
                                    "internalType": "uint16",
                                    "name": "amountRatio",
                                    "type": "uint16"
                                },
                                {
                                    "internalType": "bool",
                                    "name": "onlyAttendance",
                                    "type": "bool"
                                },
                                {
                                    "internalType": "bool",
                                    "name": "impliedConsent",
                                    "type": "bool"
                                },
                                {
                                    "internalType": "bool",
                                    "name": "partyAsConsent",
                                    "type": "bool"
                                },
                                {
                                    "internalType": "bool",
                                    "name": "againstShallBuy",
                                    "type": "bool"
                                },
                                {
                                    "internalType": "uint16",
                                    "name": "shaExecDays",
                                    "type": "uint16"
                                },
                                {
                                    "internalType": "uint16",
                                    "name": "reviewDays",
                                    "type": "uint16"
                                },
                                {
                                    "internalType": "uint16",
                                    "name": "votingDays",
                                    "type": "uint16"
                                },
                                {
                                    "internalType": "uint16",
                                    "name": "execDaysForPutOpt",
                                    "type": "uint16"
                                },
                                {
                                    "internalType": "uint40[2]",
                                    "name": "vetoers",
                                    "type": "uint40[2]"
                                }
                            ],
                            "internalType": "struct RulesParser.VotingRule",
                            "name": "votingRule",
                            "type": "tuple"
                        },
                        {
                            "internalType": "uint256",
                            "name": "contents",
                            "type": "uint256"
                        }
                    ],
                    "internalType": "struct MotionsRepo.Motion",
                    "name": "motion",
                    "type": "tuple"
                }
            ],
            "stateMutability": "view",
            "type": "function"
        },
        {
            "inputs": [],
            "name": "getOwner",
            "outputs": [
                {
                    "internalType": "uint40",
                    "name": "",
                    "type": "uint40"
                }
            ],
            "stateMutability": "view",
            "type": "function"
        },
        {
            "inputs": [
                {
                    "internalType": "uint256",
                    "name": "seqOfMotion",
                    "type": "uint256"
                },
                {
                    "internalType": "uint256",
                    "name": "acct",
                    "type": "uint256"
                }
            ],
            "name": "getVoterOfDelegateMap",
            "outputs": [
                {
                    "components": [
                        {
                            "internalType": "uint40",
                            "name": "delegate",
                            "type": "uint40"
                        },
                        {
                            "internalType": "uint64",
                            "name": "weight",
                            "type": "uint64"
                        },
                        {
                            "internalType": "uint64",
                            "name": "repWeight",
                            "type": "uint64"
                        },
                        {
                            "internalType": "uint32",
                            "name": "repHead",
                            "type": "uint32"
                        },
                        {
                            "internalType": "uint40[]",
                            "name": "principals",
                            "type": "uint40[]"
                        }
                    ],
                    "internalType": "struct DelegateMap.Voter",
                    "name": "",
                    "type": "tuple"
                }
            ],
            "stateMutability": "view",
            "type": "function"
        },
        {
            "inputs": [
                {
                    "internalType": "bytes32",
                    "name": "role",
                    "type": "bytes32"
                },
                {
                    "internalType": "uint256",
                    "name": "acct",
                    "type": "uint256"
                }
            ],
            "name": "grantRole",
            "outputs": [],
            "stateMutability": "nonpayable",
            "type": "function"
        },
        {
            "inputs": [
                {
                    "internalType": "bytes32",
                    "name": "role",
                    "type": "bytes32"
                },
                {
                    "internalType": "uint256",
                    "name": "acct",
                    "type": "uint256"
                }
            ],
            "name": "hasRole",
            "outputs": [
                {
                    "internalType": "bool",
                    "name": "",
                    "type": "bool"
                }
            ],
            "stateMutability": "view",
            "type": "function"
        },
        {
            "inputs": [
                {
                    "internalType": "uint256",
                    "name": "owner",
                    "type": "uint256"
                },
                {
                    "internalType": "address",
                    "name": "directKeeper",
                    "type": "address"
                },
                {
                    "internalType": "address",
                    "name": "regCenter",
                    "type": "address"
                },
                {
                    "internalType": "address",
                    "name": "generalKeeper",
                    "type": "address"
                }
            ],
            "name": "init",
            "outputs": [],
            "stateMutability": "nonpayable",
            "type": "function"
        },
        {
            "inputs": [
                {
                    "internalType": "uint256",
                    "name": "seqOfMotion",
                    "type": "uint256"
                }
            ],
            "name": "isPassed",
            "outputs": [
                {
                    "internalType": "bool",
                    "name": "",
                    "type": "bool"
                }
            ],
            "stateMutability": "view",
            "type": "function"
        },
        {
            "inputs": [
                {
                    "internalType": "uint256",
                    "name": "seqOfMotion",
                    "type": "uint256"
                }
            ],
            "name": "isProposed",
            "outputs": [
                {
                    "internalType": "bool",
                    "name": "",
                    "type": "bool"
                }
            ],
            "stateMutability": "view",
            "type": "function"
        },
        {
            "inputs": [
                {
                    "internalType": "uint256",
                    "name": "seqOfMotion",
                    "type": "uint256"
                },
                {
                    "internalType": "uint256",
                    "name": "acct",
                    "type": "uint256"
                }
            ],
            "name": "isVoted",
            "outputs": [
                {
                    "internalType": "bool",
                    "name": "",
                    "type": "bool"
                }
            ],
            "stateMutability": "view",
            "type": "function"
        },
        {
            "inputs": [
                {
                    "internalType": "uint256",
                    "name": "seqOfMotion",
                    "type": "uint256"
                },
                {
                    "internalType": "uint256",
                    "name": "acct",
                    "type": "uint256"
                },
                {
                    "internalType": "uint256",
                    "name": "atti",
                    "type": "uint256"
                }
            ],
            "name": "isVotedFor",
            "outputs": [
                {
                    "internalType": "bool",
                    "name": "",
                    "type": "bool"
                }
            ],
            "stateMutability": "view",
            "type": "function"
        },
        {
            "inputs": [],
            "name": "lockContents",
            "outputs": [],
            "stateMutability": "nonpayable",
            "type": "function"
        },
        {
            "inputs": [
                {
                    "internalType": "uint256",
                    "name": "seqOfPos",
                    "type": "uint256"
                },
                {
                    "internalType": "uint256",
                    "name": "seqOfVR",
                    "type": "uint256"
                },
                {
                    "internalType": "uint256",
                    "name": "candidate",
                    "type": "uint256"
                },
                {
                    "internalType": "uint256",
                    "name": "nominator",
                    "type": "uint256"
                }
            ],
            "name": "nominateOfficer",
            "outputs": [
                {
                    "internalType": "uint64",
                    "name": "",
                    "type": "uint64"
                }
            ],
            "stateMutability": "nonpayable",
            "type": "function"
        },
        {
            "inputs": [
                {
                    "internalType": "uint256",
                    "name": "seqOfVR",
                    "type": "uint256"
                },
                {
                    "internalType": "address[]",
                    "name": "targets",
                    "type": "address[]"
                },
                {
                    "internalType": "uint256[]",
                    "name": "values",
                    "type": "uint256[]"
                },
                {
                    "internalType": "bytes[]",
                    "name": "params",
                    "type": "bytes[]"
                },
                {
                    "internalType": "bytes32",
                    "name": "desHash",
                    "type": "bytes32"
                },
                {
                    "internalType": "uint256",
                    "name": "executor",
                    "type": "uint256"
                },
                {
                    "internalType": "uint256",
                    "name": "proposer",
                    "type": "uint256"
                }
            ],
            "name": "proposeAction",
            "outputs": [
                {
                    "internalType": "uint64",
                    "name": "",
                    "type": "uint64"
                }
            ],
            "stateMutability": "nonpayable",
            "type": "function"
        },
        {
            "inputs": [
                {
                    "internalType": "address",
                    "name": "doc",
                    "type": "address"
                },
                {
                    "internalType": "uint256",
                    "name": "seqOfVR",
                    "type": "uint256"
                },
                {
                    "internalType": "uint256",
                    "name": "executor",
                    "type": "uint256"
                },
                {
                    "internalType": "uint256",
                    "name": "proposer",
                    "type": "uint256"
                }
            ],
            "name": "proposeDoc",
            "outputs": [
                {
                    "internalType": "uint64",
                    "name": "",
                    "type": "uint64"
                }
            ],
            "stateMutability": "nonpayable",
            "type": "function"
        },
        {
            "inputs": [
                {
                    "internalType": "uint256",
                    "name": "seqOfMotion",
                    "type": "uint256"
                },
                {
                    "internalType": "uint256",
                    "name": "proposer",
                    "type": "uint256"
                }
            ],
            "name": "proposeMotion",
            "outputs": [],
            "stateMutability": "nonpayable",
            "type": "function"
        },
        {
            "inputs": [
                {
                    "internalType": "uint256",
                    "name": "seqOfPos",
                    "type": "uint256"
                },
                {
                    "internalType": "uint256",
                    "name": "seqOfVR",
                    "type": "uint256"
                },
                {
                    "internalType": "uint256",
                    "name": "nominator",
                    "type": "uint256"
                }
            ],
            "name": "proposeToRemoveOfficer",
            "outputs": [
                {
                    "internalType": "uint64",
                    "name": "",
                    "type": "uint64"
                }
            ],
            "stateMutability": "nonpayable",
            "type": "function"
        },
        {
            "inputs": [
                {
                    "internalType": "bytes32",
                    "name": "role",
                    "type": "bytes32"
                }
            ],
            "name": "renounceRole",
            "outputs": [],
            "stateMutability": "nonpayable",
            "type": "function"
        },
        {
            "inputs": [
                {
                    "internalType": "bytes32",
                    "name": "role",
                    "type": "bytes32"
                },
                {
                    "internalType": "uint256",
                    "name": "acct",
                    "type": "uint256"
                }
            ],
            "name": "revokeRole",
            "outputs": [],
            "stateMutability": "nonpayable",
            "type": "function"
        },
        {
            "inputs": [
                {
                    "internalType": "address",
                    "name": "keeper",
                    "type": "address"
                }
            ],
            "name": "setDirectKeeper",
            "outputs": [],
            "stateMutability": "nonpayable",
            "type": "function"
        },
        {
            "inputs": [
                {
                    "internalType": "uint256",
                    "name": "acct",
                    "type": "uint256"
                }
            ],
            "name": "setGeneralCounsel",
            "outputs": [],
            "stateMutability": "nonpayable",
            "type": "function"
        },
        {
            "inputs": [
                {
                    "internalType": "uint256",
                    "name": "acct",
                    "type": "uint256"
                }
            ],
            "name": "setOwner",
            "outputs": [],
            "stateMutability": "nonpayable",
            "type": "function"
        },
        {
            "inputs": [
                {
                    "internalType": "bytes32",
                    "name": "role",
                    "type": "bytes32"
                },
                {
                    "internalType": "uint256",
                    "name": "acct",
                    "type": "uint256"
                }
            ],
            "name": "setRoleAdmin",
            "outputs": [],
            "stateMutability": "nonpayable",
            "type": "function"
        },
        {
            "inputs": [
                {
                    "internalType": "uint256",
                    "name": "seqOfMotion",
                    "type": "uint256"
                },
                {
                    "components": [
                        {
                            "internalType": "uint64",
                            "name": "totalHead",
                            "type": "uint64"
                        },
                        {
                            "internalType": "uint64",
                            "name": "totalWeight",
                            "type": "uint64"
                        },
                        {
                            "internalType": "uint64",
                            "name": "supportHead",
                            "type": "uint64"
                        },
                        {
                            "internalType": "uint64",
                            "name": "supportWeight",
                            "type": "uint64"
                        }
                    ],
                    "internalType": "struct MotionsRepo.VoteCalBase",
                    "name": "base",
                    "type": "tuple"
                }
            ],
            "name": "voteCounting",
            "outputs": [],
            "stateMutability": "nonpayable",
            "type": "function"
        },
        {
            "inputs": [
                {
                    "internalType": "uint256",
                    "name": "seqOfMotion",
                    "type": "uint256"
                }
            ],
            "name": "voteEnded",
            "outputs": [
                {
                    "internalType": "bool",
                    "name": "",
                    "type": "bool"
                }
            ],
            "stateMutability": "view",
            "type": "function"
        },
        {
            "inputs": [
                {
                    "internalType": "uint256",
                    "name": "seqOfMotion",
                    "type": "uint256"
                }
            ],
            "name": "voteStarted",
            "outputs": [
                {
                    "internalType": "bool",
                    "name": "",
                    "type": "bool"
                }
            ],
            "stateMutability": "view",
            "type": "function"
        }
    ],
    "bytecode": "608060405234801561001057600080fd5b506144df806100206000396000f3fe608060405234801561001057600080fd5b50600436106102325760003560e01c80637e063c5a11610130578063ad15aad2116100b8578063cd43b1651161007c578063cd43b16514610590578063dc890da9146105a3578063ea56efc6146105b6578063ed211023146105c9578063f045a769146105e957600080fd5b8063ad15aad214610523578063b3f05b9714610543578063b43a401d14610557578063bbfd607d1461056a578063c41f49b01461057d57600080fd5b80638bb9c5bf116100ff5780638bb9c5bf146104b65780639371bd1e146104c95780639a51cdfc146104dc578063a0743e71146104fd578063a1e1d6211461051057600080fd5b80637e063c5a146104755780638041494e1461048857806388125cf71461049b578063893d20e8146104ae57600080fd5b806349403183116101be57806359269f821161018257806359269f82146104095780635c2753bf1461041c57806361df743f1461042f57806365a47e811461044f5780636be8496f1461046257600080fd5b8063494031831461039a5780634a14beb1146103bd5780634f6413ac146103d05780635171ebd4146103e3578063585aebc6146103f657600080fd5b8063165dd5ec11610205578063165dd5ec1461032e57806319d61ad91461034e5780631b6ea9f9146103615780632d3eaa40146103745780633da9a6001461038757600080fd5b8063096f3abe146102375780630d3587571461024c5780630e6d37cc146102e5578063103f6edd14610310575b600080fd5b61024a610245366004612ff4565b6105f1565b005b61025f61025a366004612ff4565b610da7565b6040516102dc9190600060e08201905064ffffffffff835116825260ff602084015116602083015263ffffffff604084015116604083015260608301516001600160401b03808216606085015265ffffffffffff60808601511660808501528060a08601511660a0850152505060c083015160c083015292915050565b60405180910390f35b6102f86102f3366004613194565b610e75565b6040516001600160401b0390911681526020016102dc565b610318611064565b60405164ffffffffff90911681526020016102dc565b61034161033c366004612ff4565b6110f0565b6040516102dc9190613247565b61024a61035c366004612ff4565b61119c565b61024a61036f366004612ff4565b61122e565b61024a6103823660046132bc565b611254565b61024a6103953660046132e8565b6113b8565b6103ad6103a83660046132e8565b611443565b60405190151581526020016102dc565b61024a6103cb3660046132e8565b6114d0565b6102f86103de366004613301565b61172d565b61024a6103f1366004612ff4565b611814565b61024a610404366004613301565b61183a565b6103ad6104173660046132e8565b6119c7565b61024a61042a3660046134ae565b611a08565b61044261043d366004612ff4565b611c3c565b6040516102dc91906135ba565b6102f861045d3660046132bc565b611cf9565b61024a610470366004613648565b611de0565b6103ad610483366004612ff4565b611e92565b61024a6104963660046132e8565b611f27565b61024a6104a9366004613665565b611fe0565b61031861217a565b61024a6104c43660046132e8565b6121b5565b6103ad6104d73660046132bc565b6121da565b6104ef6104ea366004612ff4565b61227c565b6040519081526020016102dc565b61024a61050b3660046136ae565b61230f565b6103ad61051e3660046132e8565b6124af565b6105366105313660046132e8565b6124f0565b6040516102dc91906138da565b60028054600160f01b900460ff16146103ad565b6103ad6105653660046132e8565b612582565b6102f86105783660046134ae565b6125c3565b6102f861058b366004613981565b6126bf565b6102f861059e3660046139c2565b612771565b61024a6105b13660046139fd565b612857565b6103ad6105c4366004612ff4565b612939565b6105d1612981565b6040516001600160a01b0390911681526020016102dc565b61024a612a07565b604051633b11adbf60e21b81526002600482015233602482015273__$364aad554dc80380f414546becdd2c1584$__9063ec46b6fc9060440160206040518083038186803b15801561064257600080fd5b505af4158015610656573d6000803e3d6000fd5b505050506040513d601f19601f8201168201806040525081019061067a9190613a55565b61069f5760405162461bcd60e51b815260040161069690613a70565b60405180910390fd5b600060046000016000848152602001908152602001600020604051806080016040529081600082016040518060e00160405290816000820160009054906101000a900461ffff1661ffff1661ffff1681526020016000820160029054906101000a90046001600160401b03166001600160401b03166001600160401b0316815260200160008201600a9054906101000a900461ffff1661ffff1661ffff16815260200160008201600c9054906101000a900464ffffffffff1664ffffffffff1664ffffffffff1681526020016000820160119054906101000a900464ffffffffff1664ffffffffff1664ffffffffff1681526020016000820160169054906101000a900465ffffffffffff1665ffffffffffff1665ffffffffffff16815260200160008201601c9054906101000a900463ffffffff1663ffffffff1663ffffffff16815250508152602001600182016040518060e00160405290816000820160009054906101000a900464ffffffffff1664ffffffffff1664ffffffffff1681526020016000820160059054906101000a900465ffffffffffff1665ffffffffffff1665ffffffffffff16815260200160008201600b9054906101000a900465ffffffffffff1665ffffffffffff1665ffffffffffff1681526020016000820160119054906101000a900465ffffffffffff1665ffffffffffff1665ffffffffffff1681526020016000820160179054906101000a900465ffffffffffff1665ffffffffffff1665ffffffffffff16815260200160008201601d9054906101000a900461ffff1661ffff1661ffff16815260200160008201601f9054906101000a900460ff1660ff1660ff1681525050815260200160028201604051806101e00160405290816000820160009054906101000a900461ffff1661ffff1661ffff1681526020016000820160029054906101000a900460ff1660ff1660ff1681526020016000820160039054906101000a900460ff1660ff1660ff1681526020016000820160049054906101000a900461ffff1661ffff1661ffff1681526020016000820160069054906101000a900461ffff1661ffff1661ffff1681526020016000820160089054906101000a900461ffff1661ffff1661ffff16815260200160008201600a9054906101000a900460ff1615151515815260200160008201600b9054906101000a900460ff1615151515815260200160008201600c9054906101000a900460ff1615151515815260200160008201600d9054906101000a900460ff1615151515815260200160008201600e9054906101000a900461ffff1661ffff1661ffff1681526020016000820160109054906101000a900461ffff1661ffff1661ffff1681526020016000820160129054906101000a900461ffff1661ffff1661ffff1681526020016000820160149054906101000a900461ffff1661ffff1661ffff16815260200160018201600280602002604051908101604052809291908260028015610b34576020028201916000905b82829054906101000a900464ffffffffff1664ffffffffff1681526020019060050190602082600401049283019260010382029150808411610af55790505b505050505081525050815260200160048201548152505090506000600160009054906101000a90046001600160a01b03166001600160a01b031663a61adc286040518163ffffffff1660e01b815260040160206040518083038186803b158015610b9d57600080fd5b505afa158015610bb1573d6000803e3d6000fd5b505050506040513d601f19601f82011682018060405250810190610bd59190613ab6565b82516040908101519051634846203760e01b815261ffff90911660048201526001600160a01b03919091169063484620379060240160206040518083038186803b158015610c2257600080fd5b505afa158015610c36573d6000803e3d6000fd5b505050506040513d601f19601f82011682018060405250810190610c5a9190613ad3565b60405163d1296c8f60e01b8152600481019190915273__$9d2c69e94fee47b9774dc8db4aa5c0bbec$__9063d1296c8f906024016102006040518083038186803b158015610ca757600080fd5b505af4158015610cbb573d6000803e3d6000fd5b505050506040513d601f19601f82011682018060405250810190610cdf9190613ca4565b60405163fe3aba2760e01b815290915073__$c69e6785922941bfe0f11afdbfcce85492$__9063fe3aba2790610d1f906004908890869089908401613cc1565b60e06040518083038186803b158015610d3757600080fd5b505af4158015610d4b573d6000803e3d6000fd5b505050506040513d601f19601f82011682018060405250810190610d6f9190613e9a565b6020830152604051839085907f2eed72fdf855f1461258147d82bc92c0cec2d5d72f85c0471ce349f51b37d95d90600090a350505050565b6040805160e081018252600080825260208201819052818301819052606082018190526080820181905260a0820181905260c08201529051635eeb98eb60e01b8152600480820152602481018490526044810183905273__$c69e6785922941bfe0f11afdbfcce85492$__90635eeb98eb9060640160e06040518083038186803b158015610e3457600080fd5b505af4158015610e48573d6000803e3d6000fd5b505050506040513d601f19601f82011682018060405250810190610e6c9190613ec1565b90505b92915050565b604051633b11adbf60e21b81526002600482015233602482015260009073__$364aad554dc80380f414546becdd2c1584$__9063ec46b6fc9060440160206040518083038186803b158015610ec957600080fd5b505af4158015610edd573d6000803e3d6000fd5b505050506040513d601f19601f82011682018060405250810190610f019190613a55565b610f1d5760405162461bcd60e51b815260040161069690613a70565b60405163a64ee9bd60e01b815273__$c69e6785922941bfe0f11afdbfcce85492$__9063a64ee9bd90610f5890600490879087908301613f74565b60e06040518083038186803b158015610f7057600080fd5b505af4158015610f84573d6000803e3d6000fd5b505050506040513d601f19601f82011682018060405250810190610fa8919061402e565b92508173__$c69e6785922941bfe0f11afdbfcce85492$__63f138788e856040518263ffffffff1660e01b8152600401610fe2919061404a565b60206040518083038186803b158015610ffa57600080fd5b505af415801561100e573d6000803e3d6000fd5b505050506040513d601f19601f820116820180604052508101906110329190613ad3565b6040517f915432c0784e970b467614ce80b3663923a68cf213b9a5a7de3acfe74badb6d990600090a350506020015190565b60405163e8c0cc1d60e01b81526002600482015260009073__$364aad554dc80380f414546becdd2c1584$__9063e8c0cc1d906024015b60206040518083038186803b1580156110b357600080fd5b505af41580156110c7573d6000803e3d6000fd5b505050506040513d601f19601f820116820180604052508101906110eb9190614058565b905090565b6040805160608082018352600080835260208301528183015290516341335f3560e01b8152600480820152602481018490526044810183905273__$c69e6785922941bfe0f11afdbfcce85492$__906341335f359060640160006040518083038186803b15801561116057600080fd5b505af4158015611174573d6000803e3d6000fd5b505050506040513d6000823e601f3d908101601f19168201604052610e6c9190810190614075565b73__$364aad554dc80380f414546becdd2c1584$__6382daafaa600284846111c2612c4b565b6040516001600160e01b031960e087901b16815260048101949094526024840192909252604483015264ffffffffff16606482015260840160006040518083038186803b15801561121257600080fd5b505af4158015611226573d6000803e3d6000fd5b505050505050565b73__$364aad554dc80380f414546becdd2c1584$__636320d75e600284846111c2612c4b565b6001546040516335d2155560e11b81523360048201526001600160a01b0390911690636ba42aaa9060240160206040518083038186803b15801561129757600080fd5b505afa1580156112ab573d6000803e3d6000fd5b505050506040513d601f19601f820116820180604052508101906112cf9190613a55565b61130f5760405162461bcd60e51b815260206004820152601160248201527020a19737b59d103737ba1025b2b2b832b960791b6044820152606401610696565b604051630aa0aacd60e11b815260048082015260248101849052604481018390526064810182905273__$c69e6785922941bfe0f11afdbfcce85492$__90631541559a9060840160006040518083038186803b15801561136e57600080fd5b505af4158015611382573d6000803e3d6000fd5b50506040518392508591507fae42f3be1ee887ec3af249092d8ce9d9a13ac3c2a8e40639341a77ac2e012de390600090a3505050565b73__$364aad554dc80380f414546becdd2c1584$__63c51b295f6002836113dd612c4b565b6040516001600160e01b031960e086901b1681526004810193909352602483019190915264ffffffffff16604482015260640160006040518083038186803b15801561142857600080fd5b505af415801561143c573d6000803e3d6000fd5b5050505050565b604051631d62ca6b60e11b81526004808201526024810182905260009073__$c69e6785922941bfe0f11afdbfcce85492$__90633ac594d6906044015b60206040518083038186803b15801561149857600080fd5b505af41580156114ac573d6000803e3d6000fd5b505050506040513d601f19601f82011682018060405250810190610e6f9190613a55565b604051633b11adbf60e21b81526002600482015233602482015273__$364aad554dc80380f414546becdd2c1584$__9063ec46b6fc9060440160206040518083038186803b15801561152157600080fd5b505af4158015611535573d6000803e3d6000fd5b505050506040513d601f19601f820116820180604052508101906115599190613a55565b806115fe575073__$364aad554dc80380f414546becdd2c1584$__63fe2710866002611583612c4b565b6040516001600160e01b031960e085901b168152600481019290925264ffffffffff16602482015260440160206040518083038186803b1580156115c657600080fd5b505af41580156115da573d6000803e3d6000fd5b505050506040513d601f19601f820116820180604052508101906115fe9190613a55565b6116695760405162461bcd60e51b815260206004820152603660248201527f41432e6f776e65724f72446972656374426f6f6b65657065723a206e6569746860448201527532b91037bbb732b9103737b9103137b7b5b2b2b832b960511b6064820152608401610696565b73__$364aad554dc80380f414546becdd2c1584$__639b4510de60028361168e612c4b565b6040516001600160e01b031960e086901b1681526004810193909352602483019190915264ffffffffff16604482015260640160006040518083038186803b1580156116d957600080fd5b505af41580156116ed573d6000803e3d6000fd5b505050507ff2735f34b69be1e6342dea95f9162f84d0db925fab655ca9f1f312ac8cbfc99d8160405161172291815260200190565b60405180910390a150565b604051633b11adbf60e21b81526002600482015233602482015260009073__$364aad554dc80380f414546becdd2c1584$__9063ec46b6fc9060440160206040518083038186803b15801561178157600080fd5b505af4158015611795573d6000803e3d6000fd5b505050506040513d601f19601f820116820180604052508101906117b99190613a55565b6117d55760405162461bcd60e51b815260040161069690613a70565b6117dd612eae565b6001815261ffff8516604082015264ffffffffff83811660608301528416608082015261180a8187610e75565b9695505050505050565b73__$364aad554dc80380f414546becdd2c1584$__63ee98b313600284846111c2612c4b565b604051633b11adbf60e21b81526002600482015233602482015273__$364aad554dc80380f414546becdd2c1584$__9063ec46b6fc9060440160206040518083038186803b15801561188b57600080fd5b505af415801561189f573d6000803e3d6000fd5b505050506040513d601f19601f820116820180604052508101906118c39190613a55565b6118df5760405162461bcd60e51b815260040161069690613a70565b6040516350a1179960e01b81526004808201526024810185905260448101849052606481018390526084810182905273__$c69e6785922941bfe0f11afdbfcce85492$__906350a117999060a40160206040518083038186803b15801561194557600080fd5b505af4158015611959573d6000803e3d6000fd5b505050506040513d601f19601f8201168201806040525081019061197d9190613a55565b50604080518481526020810184905290810182905284907f3e23c378c06ec59e11c122258c99a9ada1318ed2d864c4eee514bcd853151f2f9060600160405180910390a250505050565b604051633e9ace7f60e11b81526004808201526024810182905260009073__$c69e6785922941bfe0f11afdbfcce85492$__90637d359cfe90604401611480565b604051633b11adbf60e21b81526002600482015233602482015273__$364aad554dc80380f414546becdd2c1584$__9063ec46b6fc9060440160206040518083038186803b158015611a5957600080fd5b505af4158015611a6d573d6000803e3d6000fd5b505050506040513d601f19601f82011682018060405250810190611a919190613a55565b611aad5760405162461bcd60e51b815260040161069690613a70565b604051630363eeeb60e01b81526004808201526024810183905260009073__$c69e6785922941bfe0f11afdbfcce85492$__90630363eeeb906044016103e06040518083038186803b158015611b0257600080fd5b505af4158015611b16573d6000803e3d6000fd5b505050506040513d601f19601f82011682018060405250810190611b3a919061415d565b80515190915061ffff16600414611b935760405162461bcd60e51b815260206004820152601960248201527f4d4d2e45413a2077726f6e6720747970654f664d6f74696f6e000000000000006044820152606401610696565b6000611ba28989898989612ca5565b9050611baf848285611254565b611bba888888612ce2565b15611bfa576040516001815281907f90d27aa223d991b1f5ce114c8bd3a03525a9f3e05799b7b66fb9f431df931f139060200160405180910390a2611c31565b6040516000815281907f90d27aa223d991b1f5ce114c8bd3a03525a9f3e05799b7b66fb9f431df931f139060200160405180910390a25b505050505050505050565b6040805160a081018252600080825260208201819052818301819052606080830191909152608082015290516322576ef960e11b8152600480820152602481018490526044810183905273__$c69e6785922941bfe0f11afdbfcce85492$__906344aeddf29060640160006040518083038186803b158015611cbd57600080fd5b505af4158015611cd1573d6000803e3d6000fd5b505050506040513d6000823e601f3d908101601f19168201604052610e6c91908101906141bc565b604051633b11adbf60e21b81526002600482015233602482015260009073__$364aad554dc80380f414546becdd2c1584$__9063ec46b6fc9060440160206040518083038186803b158015611d4d57600080fd5b505af4158015611d61573d6000803e3d6000fd5b505050506040513d601f19601f82011682018060405250810190611d859190613a55565b611da15760405162461bcd60e51b815260040161069690613a70565b611da9612eae565b6002815261ffff8416604082015264ffffffffff8316606082018190526080820152611dd58186610e75565b9150505b9392505050565b604051630f07232560e01b8152600260048201526001600160a01b038216602482015233604482015273__$364aad554dc80380f414546becdd2c1584$__90630f0723259060640160006040518083038186803b158015611e4057600080fd5b505af4158015611e54573d6000803e3d6000fd5b50506040516001600160a01b03841681527fe435cbeab64e4eae6497b9d8289704bd709d624a80704ef3ca9af777534bc6ec92506020019050611722565b604051632a3be56b60e21b815260026004820152602481018390526044810182905260009073__$364aad554dc80380f414546becdd2c1584$__9063a8ef95ac906064015b60206040518083038186803b158015611eef57600080fd5b505af4158015611f03573d6000803e3d6000fd5b505050506040513d601f19601f82011682018060405250810190610e6c9190613a55565b73__$364aad554dc80380f414546becdd2c1584$__639b48160c600283611f4c612c4b565b6040516001600160e01b031960e086901b1681526004810193909352602483019190915264ffffffffff16604482015260640160006040518083038186803b158015611f9757600080fd5b505af4158015611fab573d6000803e3d6000fd5b505050507f8b6f40f36b4ae8cc5f55e895036457c43da4ab1f80f58c46f5ff0d72a650033b8160405161172291815260200190565b604051633b11adbf60e21b81526002600482015233602482015273__$364aad554dc80380f414546becdd2c1584$__9063ec46b6fc9060440160206040518083038186803b15801561203157600080fd5b505af4158015612045573d6000803e3d6000fd5b505050506040513d601f19601f820116820180604052508101906120699190613a55565b6120855760405162461bcd60e51b815260040161069690613a70565b604051632ff6d49160e21b8152600480820152602481018690526044810182905260648101859052608481018490526001600160a01b03831660a482015273__$c69e6785922941bfe0f11afdbfcce85492$__9063bfdb52449060c40160206040518083038186803b1580156120fa57600080fd5b505af415801561210e573d6000803e3d6000fd5b505050506040513d601f19601f820116820180604052508101906121329190613a55565b1561143c578381867fb965bea85bac4cc500b2313003c13f639d5e21aca4edd1e830b5ce70ea881a508660405161216b91815260200190565b60405180910390a45050505050565b60405163987ad15360e01b81526002600482015260009073__$364aad554dc80380f414546becdd2c1584$__9063987ad1539060240161109b565b73__$364aad554dc80380f414546becdd2c1584$__63cc0d511b6002836113dd612c4b565b6040516305f7f47f60e51b815260048082015260248101849052604481018390526064810182905260009073__$c69e6785922941bfe0f11afdbfcce85492$__9063befe8fe09060840160206040518083038186803b15801561223c57600080fd5b505af4158015612250573d6000803e3d6000fd5b505050506040513d601f19601f820116820180604052508101906122749190613a55565b949350505050565b6040516378a3d56560e11b8152600480820152602481018390526044810182905260009073__$c69e6785922941bfe0f11afdbfcce85492$__9063f147aaca9060640160206040518083038186803b1580156122d757600080fd5b505af41580156122eb573d6000803e3d6000fd5b505050506040513d601f19601f82011682018060405250810190610e6c9190613ad3565b604051633b11adbf60e21b81526002600482015233602482015273__$364aad554dc80380f414546becdd2c1584$__9063ec46b6fc9060440160206040518083038186803b15801561236057600080fd5b505af4158015612374573d6000803e3d6000fd5b505050506040513d601f19601f820116820180604052508101906123989190613a55565b6123b45760405162461bcd60e51b815260040161069690613a70565b60408051633bcc83c360e11b81526004808201526024810184905282516001600160401b0390811660448301526020840151811660648301529183015182166084820152606083015190911660a482015260009073__$c69e6785922941bfe0f11afdbfcce85492$__9063779907869060c40160206040518083038186803b15801561243f57600080fd5b505af4158015612453573d6000803e3d6000fd5b505050506040513d601f19601f8201168201806040525081019061247791906142d3565b90508060ff16837f09dabc8247f652d3170a3738595d35365582b55eebeee44e1059d2981852648360405160405180910390a3505050565b60405163cc526e6b60e01b81526004808201526024810182905260009073__$c69e6785922941bfe0f11afdbfcce85492$__9063cc526e6b90604401611480565b6124f8612eea565b604051630363eeeb60e01b81526004808201526024810183905273__$c69e6785922941bfe0f11afdbfcce85492$__90630363eeeb906044016103e06040518083038186803b15801561254a57600080fd5b505af415801561255e573d6000803e3d6000fd5b505050506040513d601f19601f82011682018060405250810190610e6f919061415d565b6040516338d1980760e21b81526004808201526024810182905260009073__$c69e6785922941bfe0f11afdbfcce85492$__9063e346601c90604401611480565b604051633b11adbf60e21b81526002600482015233602482015260009073__$364aad554dc80380f414546becdd2c1584$__9063ec46b6fc9060440160206040518083038186803b15801561261757600080fd5b505af415801561262b573d6000803e3d6000fd5b505050506040513d601f19601f8201168201806040525081019061264f9190613a55565b61266b5760405162461bcd60e51b815260040161069690613a70565b612673612eae565b6004815261ffff8916604082015264ffffffffff83811660608301528416608082015260006126a58a8a8a8a8a612ca5565b90506126b18282610e75565b9a9950505050505050505050565b6040516307621e5360e01b81526004808201526024810185905260448101849052606481018390526001600160a01b038216608482015260009073__$c69e6785922941bfe0f11afdbfcce85492$__906307621e539060a40160206040518083038186803b15801561273057600080fd5b505af4158015612744573d6000803e3d6000fd5b505050506040513d601f19601f8201168201806040525081019061276891906142ee565b95945050505050565b604051633b11adbf60e21b81526002600482015233602482015260009073__$364aad554dc80380f414546becdd2c1584$__9063ec46b6fc9060440160206040518083038186803b1580156127c557600080fd5b505af41580156127d9573d6000803e3d6000fd5b505050506040513d601f19601f820116820180604052508101906127fd9190613a55565b6128195760405162461bcd60e51b815260040161069690613a70565b612821612eae565b6003815261ffff8516604082015264ffffffffff83811660608301528416608082015261180a816001600160a01b038816610e75565b604051636cdd0edf60e11b815260026004820152602481018590526001600160a01b038416604482015273__$364aad554dc80380f414546becdd2c1584$__9063d9ba1dbe9060640160006040518083038186803b1580156128b857600080fd5b505af41580156128cc573d6000803e3d6000fd5b505050506128d982612dc0565b6128e281612e33565b604080518581526001600160a01b038581166020830152848116828401528316606082015290517f3abb2418c66fe32ba9c883030a75ce583971d9af9192b9b74e44e67c5e6c8c1f9181900360800190a150505050565b60405163b34299c960e01b8152600480820152602481018390526044810182905260009073__$c69e6785922941bfe0f11afdbfcce85492$__9063b34299c990606401611ed7565b604051633c3e56c160e11b81526002600482015260009073__$364aad554dc80380f414546becdd2c1584$__9063787cad829060240160206040518083038186803b1580156129cf57600080fd5b505af41580156129e3573d6000803e3d6000fd5b505050506040513d601f19601f820116820180604052508101906110eb9190613ab6565b600254600160f01b900460ff16600114612a635760405162461bcd60e51b815260206004820152601760248201527f41432e4c433a20446f632069732066696e616c697a65640000000000000000006044820152606401610696565b73__$364aad554dc80380f414546becdd2c1584$__63c51b295f6002684174746f726e65797360b81b612a94612c4b565b6040516001600160e01b031960e086901b1681526004810193909352602483019190915264ffffffffff16604482015260640160006040518083038186803b158015612adf57600080fd5b505af4158015612af3573d6000803e3d6000fd5b50505050600273__$364aad554dc80380f414546becdd2c1584$__639b4510de90916000612b1f612c4b565b6040516001600160e01b031960e086901b1681526004810193909352602483019190915264ffffffffff16604482015260640160006040518083038186803b158015612b6a57600080fd5b505af4158015612b7e573d6000803e3d6000fd5b50505050600273__$364aad554dc80380f414546becdd2c1584$__639b48160c90916000612baa612c4b565b6040516001600160e01b031960e086901b1681526004810193909352602483019190915264ffffffffff16604482015260640160006040518083038186803b158015612bf557600080fd5b505af4158015612c09573d6000803e3d6000fd5b50506002805460ff60f01b1916600160f11b17905550506040517f35012b512309c322acf68632cd6cb702ff0e1d776fbe9394e38ffc13b434fe7590600090a1565b60008054604051636ae3b70d60e11b81523360048201526001600160a01b039091169063d5c76e1a90602401602060405180830381600087803b158015612c9157600080fd5b505af11580156110c7573d6000803e3d6000fd5b60008585858585604051602001612cc09594939291906143a4565b60408051601f1981840301815291905280516020909101209695505050505050565b6000805b8451811015612db857848181518110612d0157612d0161444e565b60200260200101516001600160a01b0316848281518110612d2457612d2461444e565b6020026020010151848381518110612d3e57612d3e61444e565b6020026020010151604051612d539190614464565b60006040518083038185875af1925050503d8060008114612d90576040519150601f19603f3d011682016040523d82523d6000602084013e612d95565b606091505b50508092505081612da65750611dd9565b80612db081614480565b915050612ce6565b509392505050565b6000546001600160a01b031615612e115760405162461bcd60e51b815260206004820152601560248201527430b63932b0b23c9039b2ba103932b3a1b2b73a32b960591b6044820152606401610696565b600080546001600160a01b0319166001600160a01b0392909216919091179055565b6001546001600160a01b031615612e8c5760405162461bcd60e51b815260206004820152601960248201527f616c7265616479207365742067656e6572616c4b6565706572000000000000006044820152606401610696565b600180546001600160a01b0319166001600160a01b0392909216919091179055565b6040805160e081018252600080825260208201819052918101829052606081018290526080810182905260a0810182905260c081019190915290565b6040518060800160405280612efd612eae565b81526040805160e08101825260008082526020828101829052928201819052606082018190526080820181905260a0820181905260c08201529101908152602001612f46612f53565b8152602001600081525090565b604080516101e081018252600080825260208201819052918101829052606081018290526080810182905260a0810182905260c0810182905260e08101829052610100810182905261012081018290526101408101829052610160810182905261018081018290526101a08101919091526101c08101612fd1612fd6565b905290565b60405180604001604052806002906020820280368337509192915050565b6000806040838503121561300757600080fd5b50508035926020909101359150565b634e487b7160e01b600052604160045260246000fd5b60405160e081016001600160401b038111828210171561304e5761304e613016565b60405290565b604051608081016001600160401b038111828210171561304e5761304e613016565b6040516101e081016001600160401b038111828210171561304e5761304e613016565b604051606081016001600160401b038111828210171561304e5761304e613016565b60405160a081016001600160401b038111828210171561304e5761304e613016565b604051601f8201601f191681016001600160401b038111828210171561310557613105613016565b604052919050565b61ffff8116811461311d57600080fd5b50565b6001600160401b038116811461311d57600080fd5b64ffffffffff8116811461311d57600080fd5b803561315381613135565b919050565b65ffffffffffff8116811461311d57600080fd5b803561315381613158565b63ffffffff8116811461311d57600080fd5b803561315381613177565b6000808284036101008112156131a957600080fd5b60e08112156131b757600080fd5b506131c061302c565b83356131cb8161310d565b815260208401356131db81613120565b602082015260408401356131ee8161310d565b6040820152606084013561320181613135565b606082015261321260808501613148565b608082015261322360a0850161316c565b60a082015261323460c08501613189565b60c08201529460e0939093013593505050565b600060208083526080830163ffffffff855116828501526001600160401b0382860151166040850152604085015160608086015281815180845260a0870191508483019350600092505b808310156132b15783518252928401926001929092019190840190613291565b509695505050505050565b6000806000606084860312156132d157600080fd5b505081359360208301359350604090920135919050565b6000602082840312156132fa57600080fd5b5035919050565b6000806000806080858703121561331757600080fd5b5050823594602084013594506040840135936060013592509050565b60006001600160401b0382111561334c5761334c613016565b5060051b60200190565b6001600160a01b038116811461311d57600080fd5b600082601f83011261337c57600080fd5b8135602061339161338c83613333565b6130dd565b82815260059290921b840181019181810190868411156133b057600080fd5b8286015b848110156132b157803583529183019183016133b4565b6000601f83818401126133dd57600080fd5b823560206133ed61338c83613333565b82815260059290921b8501810191818101908784111561340c57600080fd5b8287015b848110156134a25780356001600160401b03808211156134305760008081fd5b818a0191508a603f8301126134455760008081fd5b8582013560408282111561345b5761345b613016565b61346c828b01601f191689016130dd565b92508183528c818386010111156134835760008081fd5b8181850189850137506000908201870152845250918301918301613410565b50979650505050505050565b600080600080600080600060e0888a0312156134c957600080fd5b873596506020808901356001600160401b03808211156134e857600080fd5b818b0191508b601f8301126134fc57600080fd5b813561350a61338c82613333565b81815260059190911b8301840190848101908e83111561352957600080fd5b938501935b8285101561355057843561354181613356565b8252938501939085019061352e565b9a50505060408b013592508083111561356857600080fd5b6135748c848d0161336b565b975060608b013592508083111561358a57600080fd5b50506135988a828b016133cb565b979a969950949760808101359660a0820135965060c090910135945092505050565b6000602080835260c0830164ffffffffff8086511683860152828601516001600160401b038082166040880152806040890151166060880152505063ffffffff6060870151166080860152608086015160a08087015282815180855260e0880191508583019450600092505b808310156134a257845184168252938501936001929092019190850190613626565b60006020828403121561365a57600080fd5b8135611dd981613356565b600080600080600060a0868803121561367d57600080fd5b853594506020860135935060408601359250606086013561369d81613356565b949793965091946080013592915050565b60008082840360a08112156136c257600080fd5b833592506080601f19820112156136d857600080fd5b506136e1613054565b60208401356136ef81613120565b815260408401356136ff81613120565b6020820152606084013561371281613120565b6040820152608084013561372581613120565b6060820152919491935090915050565b61ffff8082511683526001600160401b03602083015116602084015280604083015116604084015250606081015164ffffffffff8082166060850152806080840151166080850152505065ffffffffffff60a08201511660a083015263ffffffff60c08201511660c08301525050565b8060005b60028110156137cf57815164ffffffffff168452602093840193909101906001016137a9565b50505050565b805161ffff16825260208101516137f1602084018260ff169052565b506040810151613806604084018260ff169052565b50606081015161381c606084018261ffff169052565b506080810151613832608084018261ffff169052565b5060a081015161384860a084018261ffff169052565b5060c081015161385c60c084018215159052565b5060e081015161387060e084018215159052565b5061010081810151151590830152610120808201511515908301526101408082015161ffff9081169184019190915261016080830151821690840152610180808301518216908401526101a080830151909116908301526101c0808201516137cf828501826137a5565b60006103e0820190506138ee828451613735565b602083810151805164ffffffffff1660e08501529081015165ffffffffffff908116610100850152604082015181166101208501526060820151811661014085015260808201511661016084015260a081015161ffff81166101808501525060c0015160ff81166101a084015250604083015161396f6101c08401826137d5565b5060608301516103c083015292915050565b6000806000806080858703121561399757600080fd5b84359350602085013592506040850135915060608501356139b781613356565b939692955090935050565b600080600080608085870312156139d857600080fd5b84356139e381613356565b966020860135965060408601359560600135945092505050565b60008060008060808587031215613a1357600080fd5b843593506020850135613a2581613356565b92506040850135613a3581613356565b915060608501356139b781613356565b8051801515811461315357600080fd5b600060208284031215613a6757600080fd5b610e6c82613a45565b60208082526026908201527f41432e6f6e6c794469726563744b65657065723a206e6f74206469726563742060408201526535b2b2b832b960d11b606082015260800190565b600060208284031215613ac857600080fd5b8151611dd981613356565b600060208284031215613ae557600080fd5b5051919050565b80516131538161310d565b805160ff8116811461315357600080fd5b600082601f830112613b1957600080fd5b604051604081018181106001600160401b0382111715613b3b57613b3b613016565b8060405250806040840185811115613b5257600080fd5b845b81811015613b75578051613b6781613135565b835260209283019201613b54565b509195945050505050565b60006102008284031215613b9357600080fd5b613b9b613076565b9050613ba682613aec565b8152613bb460208301613af7565b6020820152613bc560408301613af7565b6040820152613bd660608301613aec565b6060820152613be760808301613aec565b6080820152613bf860a08301613aec565b60a0820152613c0960c08301613a45565b60c0820152613c1a60e08301613a45565b60e0820152610100613c2d818401613a45565b90820152610120613c3f838201613a45565b90820152610140613c51838201613aec565b90820152610160613c63838201613aec565b90820152610180613c75838201613aec565b908201526101a0613c87838201613aec565b908201526101c0613c9a84848301613b08565b9082015292915050565b60006102008284031215613cb757600080fd5b610e6c8383613b80565b84815260208101849052825161ffff1660408201526102608101602084015160ff8116606084015250604084015160ff8116608084015250606084015161ffff811660a084015250608084015161ffff811660c08401525060a084015161ffff811660e08401525060c0840151610100613d3e8185018315159052565b60e08601519150610120613d558186018415159052565b90860151915061014090613d6c8583018415159052565b8601519150610160613d818582018415159052565b90860151915061018090613d9a8583018461ffff169052565b86015191506101a0613db18582018461ffff169052565b9086015191506101c090613dca8583018461ffff169052565b86015161ffff166101e08501528501519050613dea6102008401826137a5565b508261024083015295945050505050565b600060e08284031215613e0d57600080fd5b613e1561302c565b90508151613e2281613135565b81526020820151613e3281613158565b60208201526040820151613e4581613158565b60408201526060820151613e5881613158565b60608201526080820151613e6b81613158565b608082015260a0820151613e7e8161310d565b60a0820152613e8f60c08301613af7565b60c082015292915050565b600060e08284031215613eac57600080fd5b610e6c8383613dfb565b805161315381613120565b600060e08284031215613ed357600080fd5b60405160e081018181106001600160401b0382111715613ef557613ef5613016565b6040528251613f0381613135565b8152613f1160208401613af7565b60208201526040830151613f2481613177565b60408201526060830151613f3781613120565b60608201526080830151613f4a81613158565b6080820152613f5b60a08401613eb6565b60a082015260c083015160c08201528091505092915050565b8381526101208101613f896020830185613735565b82610100830152949350505050565b600060e08284031215613faa57600080fd5b613fb261302c565b90508151613fbf8161310d565b81526020820151613fcf81613120565b60208201526040820151613fe28161310d565b60408201526060820151613ff581613135565b6060820152608082015161400881613135565b608082015260a082015161401b81613158565b60a082015260c0820151613e8f81613177565b600060e0828403121561404057600080fd5b610e6c8383613f98565b60e08101610e6f8284613735565b60006020828403121561406a57600080fd5b8151611dd981613135565b6000602080838503121561408857600080fd5b82516001600160401b038082111561409f57600080fd5b90840190606082870312156140b357600080fd5b6140bb613099565b82516140c681613177565b8152828401516140d581613120565b818501526040830151828111156140eb57600080fd5b80840193505086601f84011261410057600080fd5b8251915061411061338c83613333565b82815260059290921b8301840191848101908884111561412f57600080fd5b938501935b8385101561414d57845182529385019390850190614134565b6040830152509695505050505050565b60006103e0828403121561417057600080fd5b614178613054565b6141828484613f98565b81526141918460e08501613dfb565b60208201526141a4846101c08501613b80565b60408201526103c09290920151606083015250919050565b600060208083850312156141cf57600080fd5b82516001600160401b03808211156141e657600080fd5b9084019060a082870312156141fa57600080fd5b6142026130bb565b825161420d81613135565b81528284015161421c81613120565b81850152604083015161422e81613120565b6040820152606083015161424181613177565b606082015260808301518281111561425857600080fd5b80840193505086601f84011261426d57600080fd5b8251915061427d61338c83613333565b82815260059290921b8301840191848101908884111561429c57600080fd5b938501935b838510156142c35784516142b481613135565b825293850193908501906142a1565b6080830152509695505050505050565b6000602082840312156142e557600080fd5b610e6c82613af7565b60006020828403121561430057600080fd5b8151611dd981613120565b60005b8381101561432657818101518382015260200161430e565b838111156137cf5750506000910152565b600081518084526020808501808196508360051b8101915082860160005b85811015614397578284038952815180518086526143788188880189850161430b565b99860199601f01601f1916949094018501935090840190600101614355565b5091979650505050505050565b600060a08201878352602060a08185015281885180845260c086019150828a01935060005b818110156143ee5784516001600160a01b0316835293830193918301916001016143c9565b50508481036040860152875180825290820192508188019060005b8181101561442557825185529383019391830191600101614409565b50505050828103606084015261443b8186614337565b9150508260808301529695505050505050565b634e487b7160e01b600052603260045260246000fd5b6000825161447681846020870161430b565b9190910192915050565b60006000198214156144a257634e487b7160e01b600052601160045260246000fd5b506001019056fea26469706673582212201f3e77ef052646d43ba22ace53a3ef1ddd478c5cfbeafe9beda286fd8c3249dd64736f6c63430008080033",
    "sourcePath": "/Users/kaptain/github.com/hardhat/comboox/contracts/common/components/MeetingMinutes.sol",
    "compiler": {
        "name": "solc",
        "version": "0.8.8+commit.dddeac2f"
    },
    "functionHashes": {
        "abandonRole(bytes32)": "3da9a600",
        "castVote(uint256,uint256,bytes32,address,uint256)": "88125cf7",
        "createMotion((uint16,uint64,uint16,uint40,uint40,uint48,uint32),uint256)": "0e6d37cc",
        "entrustDelegate(uint256,uint256,uint256,uint256)": "585aebc6",
        "execAction(uint256,address[],uint256[],bytes[],bytes32,uint256,uint256)": "5c2753bf",
        "execResolution(uint256,uint256,uint256)": "2d3eaa40",
        "finalized()": "b3f05b97",
        "getBallot(uint256,uint256)": "0d358757",
        "getBookeeper()": "ed211023",
        "getCaseOfAttitude(uint256,uint256)": "165dd5ec",
        "getDelegateOf(uint256,uint256)": "9a51cdfc",
        "getGeneralCounsel()": "103f6edd",
        "getLeavesWeightAtDate(uint256,uint256,uint256,address)": "c41f49b0",
        "getMotion(uint256)": "ad15aad2",
        "getOwner()": "893d20e8",
        "getVoterOfDelegateMap(uint256,uint256)": "61df743f",
        "grantRole(bytes32,uint256)": "1b6ea9f9",
        "hasRole(bytes32,uint256)": "7e063c5a",
        "init(uint256,address,address,address)": "dc890da9",
        "isPassed(uint256)": "49403183",
        "isProposed(uint256)": "59269f82",
        "isVoted(uint256,uint256)": "ea56efc6",
        "isVotedFor(uint256,uint256,uint256)": "9371bd1e",
        "lockContents()": "f045a769",
        "nominateOfficer(uint256,uint256,uint256,uint256)": "4f6413ac",
        "proposeAction(uint256,address[],uint256[],bytes[],bytes32,uint256,uint256)": "bbfd607d",
        "proposeDoc(address,uint256,uint256,uint256)": "cd43b165",
        "proposeMotion(uint256,uint256)": "096f3abe",
        "proposeToRemoveOfficer(uint256,uint256,uint256)": "65a47e81",
        "renounceRole(bytes32)": "8bb9c5bf",
        "revokeRole(bytes32,uint256)": "19d61ad9",
        "setDirectKeeper(address)": "6be8496f",
        "setGeneralCounsel(uint256)": "4a14beb1",
        "setOwner(uint256)": "8041494e",
        "setRoleAdmin(bytes32,uint256)": "5171ebd4",
        "voteCounting(uint256,(uint64,uint64,uint64,uint64))": "a0743e71",
        "voteEnded(uint256)": "b43a401d",
        "voteStarted(uint256)": "a1e1d621"
    },
    "gasEstimates": {
        "creation": {
            "codeDepositCost": "3526200",
            "executionCost": "3949",
            "totalCost": "3530149"
        },
        "external": {
            "abandonRole(bytes32)": "infinite",
            "castVote(uint256,uint256,bytes32,address,uint256)": "infinite",
            "createMotion((uint16,uint64,uint16,uint40,uint40,uint48,uint32),uint256)": "infinite",
            "entrustDelegate(uint256,uint256,uint256,uint256)": "infinite",
            "execAction(uint256,address[],uint256[],bytes[],bytes32,uint256,uint256)": "infinite",
            "execResolution(uint256,uint256,uint256)": "infinite",
            "finalized()": "2394",
            "getBallot(uint256,uint256)": "infinite",
            "getBookeeper()": "infinite",
            "getCaseOfAttitude(uint256,uint256)": "infinite",
            "getDelegateOf(uint256,uint256)": "infinite",
            "getGeneralCounsel()": "infinite",
            "getLeavesWeightAtDate(uint256,uint256,uint256,address)": "infinite",
            "getMotion(uint256)": "infinite",
            "getOwner()": "infinite",
            "getVoterOfDelegateMap(uint256,uint256)": "infinite",
            "grantRole(bytes32,uint256)": "infinite",
            "hasRole(bytes32,uint256)": "infinite",
            "init(uint256,address,address,address)": "infinite",
            "isPassed(uint256)": "infinite",
            "isProposed(uint256)": "infinite",
            "isVoted(uint256,uint256)": "infinite",
            "isVotedFor(uint256,uint256,uint256)": "infinite",
            "lockContents()": "infinite",
            "nominateOfficer(uint256,uint256,uint256,uint256)": "infinite",
            "proposeAction(uint256,address[],uint256[],bytes[],bytes32,uint256,uint256)": "infinite",
            "proposeDoc(address,uint256,uint256,uint256)": "infinite",
            "proposeMotion(uint256,uint256)": "infinite",
            "proposeToRemoveOfficer(uint256,uint256,uint256)": "infinite",
            "renounceRole(bytes32)": "infinite",
            "revokeRole(bytes32,uint256)": "infinite",
            "setDirectKeeper(address)": "infinite",
            "setGeneralCounsel(uint256)": "infinite",
            "setOwner(uint256)": "infinite",
            "setRoleAdmin(bytes32,uint256)": "infinite",
            "voteCounting(uint256,(uint64,uint64,uint64,uint64))": "infinite",
            "voteEnded(uint256)": "infinite",
            "voteStarted(uint256)": "infinite"
        },
        "internal": {
            "_execute(address[] memory,uint256[] memory,bytes memory[] memory)": "infinite",
            "_hashAction(uint256,address[] memory,uint256[] memory,bytes memory[] memory,bytes32)": "infinite"
        }
    }
}