{
    "contractName": "MeetingMinutes",
    "abi": [
        {
            "anonymous": false,
            "inputs": [
                {
                    "indexed": true,
                    "internalType": "uint256",
                    "name": "seqOfMotion",
                    "type": "uint256"
                },
                {
                    "indexed": true,
                    "internalType": "uint256",
                    "name": "caller",
                    "type": "uint256"
                },
                {
                    "indexed": true,
                    "internalType": "uint256",
                    "name": "attitude",
                    "type": "uint256"
                },
                {
                    "indexed": false,
                    "internalType": "bytes32",
                    "name": "sigHash",
                    "type": "bytes32"
                }
            ],
            "name": "CastVote",
            "type": "event"
        },
        {
            "anonymous": false,
            "inputs": [
                {
                    "indexed": true,
                    "internalType": "bytes32",
                    "name": "snOfMotion",
                    "type": "bytes32"
                },
                {
                    "indexed": true,
                    "internalType": "uint256",
                    "name": "contents",
                    "type": "uint256"
                }
            ],
            "name": "CreateMotion",
            "type": "event"
        },
        {
            "anonymous": false,
            "inputs": [
                {
                    "indexed": true,
                    "internalType": "uint256",
                    "name": "seqOfMotion",
                    "type": "uint256"
                },
                {
                    "indexed": false,
                    "internalType": "uint256",
                    "name": "delegate",
                    "type": "uint256"
                },
                {
                    "indexed": false,
                    "internalType": "uint256",
                    "name": "principal",
                    "type": "uint256"
                },
                {
                    "indexed": false,
                    "internalType": "uint256",
                    "name": "weight",
                    "type": "uint256"
                }
            ],
            "name": "EntrustDelegate",
            "type": "event"
        },
        {
            "anonymous": false,
            "inputs": [
                {
                    "indexed": true,
                    "internalType": "uint256",
                    "name": "contents",
                    "type": "uint256"
                },
                {
                    "indexed": false,
                    "internalType": "bool",
                    "name": "result",
                    "type": "bool"
                }
            ],
            "name": "ExecAction",
            "type": "event"
        },
        {
            "anonymous": false,
            "inputs": [
                {
                    "indexed": true,
                    "internalType": "uint256",
                    "name": "seqOfMotion",
                    "type": "uint256"
                },
                {
                    "indexed": true,
                    "internalType": "uint256",
                    "name": "caller",
                    "type": "uint256"
                }
            ],
            "name": "ExecResolution",
            "type": "event"
        },
        {
            "anonymous": false,
            "inputs": [
                {
                    "indexed": false,
                    "internalType": "uint256",
                    "name": "owner",
                    "type": "uint256"
                },
                {
                    "indexed": false,
                    "internalType": "address",
                    "name": "directKeeper",
                    "type": "address"
                },
                {
                    "indexed": false,
                    "internalType": "address",
                    "name": "regCenter",
                    "type": "address"
                },
                {
                    "indexed": false,
                    "internalType": "address",
                    "name": "generalKeeper",
                    "type": "address"
                }
            ],
            "name": "Init",
            "type": "event"
        },
        {
            "anonymous": false,
            "inputs": [],
            "name": "LockContents",
            "type": "event"
        },
        {
            "anonymous": false,
            "inputs": [
                {
                    "indexed": true,
                    "internalType": "uint256",
                    "name": "seqOfMotion",
                    "type": "uint256"
                },
                {
                    "indexed": true,
                    "internalType": "uint256",
                    "name": "proposer",
                    "type": "uint256"
                }
            ],
            "name": "ProposeMotion",
            "type": "event"
        },
        {
            "anonymous": false,
            "inputs": [
                {
                    "indexed": false,
                    "internalType": "address",
                    "name": "target",
                    "type": "address"
                }
            ],
            "name": "RemoveDirectKeeper",
            "type": "event"
        },
        {
            "anonymous": false,
            "inputs": [
                {
                    "indexed": false,
                    "internalType": "address",
                    "name": "keeper",
                    "type": "address"
                }
            ],
            "name": "SetDirectKeeper",
            "type": "event"
        },
        {
            "anonymous": false,
            "inputs": [
                {
                    "indexed": false,
                    "internalType": "uint256",
                    "name": "acct",
                    "type": "uint256"
                }
            ],
            "name": "SetGeneralCounsel",
            "type": "event"
        },
        {
            "anonymous": false,
            "inputs": [
                {
                    "indexed": false,
                    "internalType": "uint256",
                    "name": "acct",
                    "type": "uint256"
                }
            ],
            "name": "SetOwner",
            "type": "event"
        },
        {
            "anonymous": false,
            "inputs": [
                {
                    "indexed": true,
                    "internalType": "uint256",
                    "name": "seqOfMotion",
                    "type": "uint256"
                },
                {
                    "indexed": true,
                    "internalType": "uint8",
                    "name": "result",
                    "type": "uint8"
                }
            ],
            "name": "VoteCounting",
            "type": "event"
        },
        {
            "inputs": [
                {
                    "internalType": "bytes32",
                    "name": "role",
                    "type": "bytes32"
                }
            ],
            "name": "abandonRole",
            "outputs": [],
            "stateMutability": "nonpayable",
            "type": "function"
        },
        {
            "inputs": [
                {
                    "internalType": "uint256",
                    "name": "seqOfMotion",
                    "type": "uint256"
                },
                {
                    "internalType": "uint256",
                    "name": "attitude",
                    "type": "uint256"
                },
                {
                    "internalType": "bytes32",
                    "name": "sigHash",
                    "type": "bytes32"
                },
                {
                    "internalType": "contract IRegisterOfMembers",
                    "name": "_rom",
                    "type": "address"
                },
                {
                    "internalType": "uint256",
                    "name": "caller",
                    "type": "uint256"
                }
            ],
            "name": "castVote",
            "outputs": [],
            "stateMutability": "nonpayable",
            "type": "function"
        },
        {
            "inputs": [
                {
                    "components": [
                        {
                            "internalType": "uint16",
                            "name": "typeOfMotion",
                            "type": "uint16"
                        },
                        {
                            "internalType": "uint64",
                            "name": "seqOfMotion",
                            "type": "uint64"
                        },
                        {
                            "internalType": "uint16",
                            "name": "seqOfVR",
                            "type": "uint16"
                        },
                        {
                            "internalType": "uint40",
                            "name": "creator",
                            "type": "uint40"
                        },
                        {
                            "internalType": "uint40",
                            "name": "executor",
                            "type": "uint40"
                        },
                        {
                            "internalType": "uint48",
                            "name": "createDate",
                            "type": "uint48"
                        },
                        {
                            "internalType": "uint32",
                            "name": "data",
                            "type": "uint32"
                        }
                    ],
                    "internalType": "struct MotionsRepo.Head",
                    "name": "head",
                    "type": "tuple"
                },
                {
                    "internalType": "uint256",
                    "name": "contents",
                    "type": "uint256"
                }
            ],
            "name": "createMotion",
            "outputs": [
                {
                    "internalType": "uint64",
                    "name": "",
                    "type": "uint64"
                }
            ],
            "stateMutability": "nonpayable",
            "type": "function"
        },
        {
            "inputs": [
                {
                    "internalType": "uint256",
                    "name": "seqOfMotion",
                    "type": "uint256"
                },
                {
                    "internalType": "uint256",
                    "name": "delegate",
                    "type": "uint256"
                },
                {
                    "internalType": "uint256",
                    "name": "principal",
                    "type": "uint256"
                },
                {
                    "internalType": "uint256",
                    "name": "weight",
                    "type": "uint256"
                }
            ],
            "name": "entrustDelegate",
            "outputs": [],
            "stateMutability": "nonpayable",
            "type": "function"
        },
        {
            "inputs": [
                {
                    "internalType": "uint256",
                    "name": "seqOfVR",
                    "type": "uint256"
                },
                {
                    "internalType": "address[]",
                    "name": "targets",
                    "type": "address[]"
                },
                {
                    "internalType": "uint256[]",
                    "name": "values",
                    "type": "uint256[]"
                },
                {
                    "internalType": "bytes[]",
                    "name": "params",
                    "type": "bytes[]"
                },
                {
                    "internalType": "bytes32",
                    "name": "desHash",
                    "type": "bytes32"
                },
                {
                    "internalType": "uint256",
                    "name": "seqOfMotion",
                    "type": "uint256"
                },
                {
                    "internalType": "uint256",
                    "name": "caller",
                    "type": "uint256"
                }
            ],
            "name": "execAction",
            "outputs": [],
            "stateMutability": "nonpayable",
            "type": "function"
        },
        {
            "inputs": [
                {
                    "internalType": "uint256",
                    "name": "seqOfMotion",
                    "type": "uint256"
                },
                {
                    "internalType": "uint256",
                    "name": "contents",
                    "type": "uint256"
                },
                {
                    "internalType": "uint256",
                    "name": "caller",
                    "type": "uint256"
                }
            ],
            "name": "execResolution",
            "outputs": [],
            "stateMutability": "nonpayable",
            "type": "function"
        },
        {
            "inputs": [],
            "name": "finalized",
            "outputs": [
                {
                    "internalType": "bool",
                    "name": "",
                    "type": "bool"
                }
            ],
            "stateMutability": "view",
            "type": "function"
        },
        {
            "inputs": [
                {
                    "internalType": "uint256",
                    "name": "seqOfMotion",
                    "type": "uint256"
                },
                {
                    "internalType": "uint256",
                    "name": "acct",
                    "type": "uint256"
                }
            ],
            "name": "getBallot",
            "outputs": [
                {
                    "components": [
                        {
                            "internalType": "uint40",
                            "name": "acct",
                            "type": "uint40"
                        },
                        {
                            "internalType": "uint8",
                            "name": "attitude",
                            "type": "uint8"
                        },
                        {
                            "internalType": "uint32",
                            "name": "head",
                            "type": "uint32"
                        },
                        {
                            "internalType": "uint64",
                            "name": "weight",
                            "type": "uint64"
                        },
                        {
                            "internalType": "uint48",
                            "name": "sigDate",
                            "type": "uint48"
                        },
                        {
                            "internalType": "uint64",
                            "name": "blocknumber",
                            "type": "uint64"
                        },
                        {
                            "internalType": "bytes32",
                            "name": "sigHash",
                            "type": "bytes32"
                        }
                    ],
                    "internalType": "struct BallotsBox.Ballot",
                    "name": "",
                    "type": "tuple"
                }
            ],
            "stateMutability": "view",
            "type": "function"
        },
        {
            "inputs": [],
            "name": "getBookeeper",
            "outputs": [
                {
                    "internalType": "address",
                    "name": "",
                    "type": "address"
                }
            ],
            "stateMutability": "view",
            "type": "function"
        },
        {
            "inputs": [
                {
                    "internalType": "uint256",
                    "name": "seqOfMotion",
                    "type": "uint256"
                },
                {
                    "internalType": "uint256",
                    "name": "atti",
                    "type": "uint256"
                }
            ],
            "name": "getCaseOfAttitude",
            "outputs": [
                {
                    "components": [
                        {
                            "internalType": "uint32",
                            "name": "sumOfHead",
                            "type": "uint32"
                        },
                        {
                            "internalType": "uint64",
                            "name": "sumOfWeight",
                            "type": "uint64"
                        },
                        {
                            "internalType": "uint256[]",
                            "name": "voters",
                            "type": "uint256[]"
                        }
                    ],
                    "internalType": "struct BallotsBox.Case",
                    "name": "",
                    "type": "tuple"
                }
            ],
            "stateMutability": "view",
            "type": "function"
        },
        {
            "inputs": [
                {
                    "internalType": "uint256",
                    "name": "seqOfMotion",
                    "type": "uint256"
                },
                {
                    "internalType": "uint256",
                    "name": "acct",
                    "type": "uint256"
                }
            ],
            "name": "getDelegateOf",
            "outputs": [
                {
                    "internalType": "uint256",
                    "name": "",
                    "type": "uint256"
                }
            ],
            "stateMutability": "view",
            "type": "function"
        },
        {
            "inputs": [],
            "name": "getGeneralCounsel",
            "outputs": [
                {
                    "internalType": "uint40",
                    "name": "",
                    "type": "uint40"
                }
            ],
            "stateMutability": "view",
            "type": "function"
        },
        {
            "inputs": [
                {
                    "internalType": "uint256",
                    "name": "seqOfMotion",
                    "type": "uint256"
                },
                {
                    "internalType": "uint256",
                    "name": "caller",
                    "type": "uint256"
                },
                {
                    "internalType": "uint256",
                    "name": "baseDate",
                    "type": "uint256"
                },
                {
                    "internalType": "contract IRegisterOfMembers",
                    "name": "_rom",
                    "type": "address"
                }
            ],
            "name": "getLeavesWeightAtDate",
            "outputs": [
                {
                    "internalType": "uint64",
                    "name": "weight",
                    "type": "uint64"
                }
            ],
            "stateMutability": "view",
            "type": "function"
        },
        {
            "inputs": [
                {
                    "internalType": "uint256",
                    "name": "seqOfMotion",
                    "type": "uint256"
                }
            ],
            "name": "getMotion",
            "outputs": [
                {
                    "components": [
                        {
                            "components": [
                                {
                                    "internalType": "uint16",
                                    "name": "typeOfMotion",
                                    "type": "uint16"
                                },
                                {
                                    "internalType": "uint64",
                                    "name": "seqOfMotion",
                                    "type": "uint64"
                                },
                                {
                                    "internalType": "uint16",
                                    "name": "seqOfVR",
                                    "type": "uint16"
                                },
                                {
                                    "internalType": "uint40",
                                    "name": "creator",
                                    "type": "uint40"
                                },
                                {
                                    "internalType": "uint40",
                                    "name": "executor",
                                    "type": "uint40"
                                },
                                {
                                    "internalType": "uint48",
                                    "name": "createDate",
                                    "type": "uint48"
                                },
                                {
                                    "internalType": "uint32",
                                    "name": "data",
                                    "type": "uint32"
                                }
                            ],
                            "internalType": "struct MotionsRepo.Head",
                            "name": "head",
                            "type": "tuple"
                        },
                        {
                            "components": [
                                {
                                    "internalType": "uint40",
                                    "name": "proposer",
                                    "type": "uint40"
                                },
                                {
                                    "internalType": "uint48",
                                    "name": "proposeDate",
                                    "type": "uint48"
                                },
                                {
                                    "internalType": "uint48",
                                    "name": "shareRegDate",
                                    "type": "uint48"
                                },
                                {
                                    "internalType": "uint48",
                                    "name": "voteStartDate",
                                    "type": "uint48"
                                },
                                {
                                    "internalType": "uint48",
                                    "name": "voteEndDate",
                                    "type": "uint48"
                                },
                                {
                                    "internalType": "uint16",
                                    "name": "para",
                                    "type": "uint16"
                                },
                                {
                                    "internalType": "uint8",
                                    "name": "state",
                                    "type": "uint8"
                                }
                            ],
                            "internalType": "struct MotionsRepo.Body",
                            "name": "body",
                            "type": "tuple"
                        },
                        {
                            "components": [
                                {
                                    "internalType": "uint16",
                                    "name": "seqOfRule",
                                    "type": "uint16"
                                },
                                {
                                    "internalType": "uint8",
                                    "name": "qtyOfSubRule",
                                    "type": "uint8"
                                },
                                {
                                    "internalType": "uint8",
                                    "name": "seqOfSubRule",
                                    "type": "uint8"
                                },
                                {
                                    "internalType": "uint16",
                                    "name": "authority",
                                    "type": "uint16"
                                },
                                {
                                    "internalType": "uint16",
                                    "name": "headRatio",
                                    "type": "uint16"
                                },
                                {
                                    "internalType": "uint16",
                                    "name": "amountRatio",
                                    "type": "uint16"
                                },
                                {
                                    "internalType": "bool",
                                    "name": "onlyAttendance",
                                    "type": "bool"
                                },
                                {
                                    "internalType": "bool",
                                    "name": "impliedConsent",
                                    "type": "bool"
                                },
                                {
                                    "internalType": "bool",
                                    "name": "partyAsConsent",
                                    "type": "bool"
                                },
                                {
                                    "internalType": "bool",
                                    "name": "againstShallBuy",
                                    "type": "bool"
                                },
                                {
                                    "internalType": "uint8",
                                    "name": "shaExecDays",
                                    "type": "uint8"
                                },
                                {
                                    "internalType": "uint8",
                                    "name": "reviewDays",
                                    "type": "uint8"
                                },
                                {
                                    "internalType": "uint8",
                                    "name": "reconsiderDays",
                                    "type": "uint8"
                                },
                                {
                                    "internalType": "uint8",
                                    "name": "votePrepareDays",
                                    "type": "uint8"
                                },
                                {
                                    "internalType": "uint8",
                                    "name": "votingDays",
                                    "type": "uint8"
                                },
                                {
                                    "internalType": "uint8",
                                    "name": "execDaysForPutOpt",
                                    "type": "uint8"
                                },
                                {
                                    "internalType": "uint40[2]",
                                    "name": "vetoers",
                                    "type": "uint40[2]"
                                },
                                {
                                    "internalType": "uint16",
                                    "name": "para",
                                    "type": "uint16"
                                }
                            ],
                            "internalType": "struct RulesParser.VotingRule",
                            "name": "votingRule",
                            "type": "tuple"
                        },
                        {
                            "internalType": "uint256",
                            "name": "contents",
                            "type": "uint256"
                        }
                    ],
                    "internalType": "struct MotionsRepo.Motion",
                    "name": "motion",
                    "type": "tuple"
                }
            ],
            "stateMutability": "view",
            "type": "function"
        },
        {
            "inputs": [],
            "name": "getOwner",
            "outputs": [
                {
                    "internalType": "uint40",
                    "name": "",
                    "type": "uint40"
                }
            ],
            "stateMutability": "view",
            "type": "function"
        },
        {
            "inputs": [
                {
                    "internalType": "uint256",
                    "name": "seqOfMotion",
                    "type": "uint256"
                },
                {
                    "internalType": "uint256",
                    "name": "acct",
                    "type": "uint256"
                }
            ],
            "name": "getVoterOfDelegateMap",
            "outputs": [
                {
                    "components": [
                        {
                            "internalType": "uint40",
                            "name": "delegate",
                            "type": "uint40"
                        },
                        {
                            "internalType": "uint64",
                            "name": "weight",
                            "type": "uint64"
                        },
                        {
                            "internalType": "uint64",
                            "name": "repWeight",
                            "type": "uint64"
                        },
                        {
                            "internalType": "uint32",
                            "name": "repHead",
                            "type": "uint32"
                        },
                        {
                            "internalType": "uint40[]",
                            "name": "principals",
                            "type": "uint40[]"
                        }
                    ],
                    "internalType": "struct DelegateMap.Voter",
                    "name": "",
                    "type": "tuple"
                }
            ],
            "stateMutability": "view",
            "type": "function"
        },
        {
            "inputs": [
                {
                    "internalType": "bytes32",
                    "name": "role",
                    "type": "bytes32"
                },
                {
                    "internalType": "uint256",
                    "name": "acct",
                    "type": "uint256"
                }
            ],
            "name": "grantRole",
            "outputs": [],
            "stateMutability": "nonpayable",
            "type": "function"
        },
        {
            "inputs": [
                {
                    "internalType": "bytes32",
                    "name": "role",
                    "type": "bytes32"
                },
                {
                    "internalType": "uint256",
                    "name": "acct",
                    "type": "uint256"
                }
            ],
            "name": "hasRole",
            "outputs": [
                {
                    "internalType": "bool",
                    "name": "",
                    "type": "bool"
                }
            ],
            "stateMutability": "view",
            "type": "function"
        },
        {
            "inputs": [
                {
                    "internalType": "uint256",
                    "name": "owner",
                    "type": "uint256"
                },
                {
                    "internalType": "address",
                    "name": "directKeeper",
                    "type": "address"
                },
                {
                    "internalType": "address",
                    "name": "regCenter",
                    "type": "address"
                },
                {
                    "internalType": "address",
                    "name": "generalKeeper",
                    "type": "address"
                }
            ],
            "name": "init",
            "outputs": [],
            "stateMutability": "nonpayable",
            "type": "function"
        },
        {
            "inputs": [
                {
                    "internalType": "uint256",
                    "name": "seqOfMotion",
                    "type": "uint256"
                }
            ],
            "name": "isPassed",
            "outputs": [
                {
                    "internalType": "bool",
                    "name": "",
                    "type": "bool"
                }
            ],
            "stateMutability": "view",
            "type": "function"
        },
        {
            "inputs": [
                {
                    "internalType": "uint256",
                    "name": "seqOfMotion",
                    "type": "uint256"
                }
            ],
            "name": "isProposed",
            "outputs": [
                {
                    "internalType": "bool",
                    "name": "",
                    "type": "bool"
                }
            ],
            "stateMutability": "view",
            "type": "function"
        },
        {
            "inputs": [
                {
                    "internalType": "uint256",
                    "name": "seqOfMotion",
                    "type": "uint256"
                },
                {
                    "internalType": "uint256",
                    "name": "acct",
                    "type": "uint256"
                }
            ],
            "name": "isVoted",
            "outputs": [
                {
                    "internalType": "bool",
                    "name": "",
                    "type": "bool"
                }
            ],
            "stateMutability": "view",
            "type": "function"
        },
        {
            "inputs": [
                {
                    "internalType": "uint256",
                    "name": "seqOfMotion",
                    "type": "uint256"
                },
                {
                    "internalType": "uint256",
                    "name": "acct",
                    "type": "uint256"
                },
                {
                    "internalType": "uint256",
                    "name": "atti",
                    "type": "uint256"
                }
            ],
            "name": "isVotedFor",
            "outputs": [
                {
                    "internalType": "bool",
                    "name": "",
                    "type": "bool"
                }
            ],
            "stateMutability": "view",
            "type": "function"
        },
        {
            "inputs": [],
            "name": "lockContents",
            "outputs": [],
            "stateMutability": "nonpayable",
            "type": "function"
        },
        {
            "inputs": [
                {
                    "internalType": "uint256",
                    "name": "seqOfPos",
                    "type": "uint256"
                },
                {
                    "internalType": "uint256",
                    "name": "seqOfVR",
                    "type": "uint256"
                },
                {
                    "internalType": "uint256",
                    "name": "candidate",
                    "type": "uint256"
                },
                {
                    "internalType": "uint256",
                    "name": "nominator",
                    "type": "uint256"
                }
            ],
            "name": "nominateOfficer",
            "outputs": [
                {
                    "internalType": "uint64",
                    "name": "",
                    "type": "uint64"
                }
            ],
            "stateMutability": "nonpayable",
            "type": "function"
        },
        {
            "inputs": [
                {
                    "internalType": "uint256",
                    "name": "seqOfVR",
                    "type": "uint256"
                },
                {
                    "internalType": "address[]",
                    "name": "targets",
                    "type": "address[]"
                },
                {
                    "internalType": "uint256[]",
                    "name": "values",
                    "type": "uint256[]"
                },
                {
                    "internalType": "bytes[]",
                    "name": "params",
                    "type": "bytes[]"
                },
                {
                    "internalType": "bytes32",
                    "name": "desHash",
                    "type": "bytes32"
                },
                {
                    "internalType": "uint256",
                    "name": "executor",
                    "type": "uint256"
                },
                {
                    "internalType": "uint256",
                    "name": "proposer",
                    "type": "uint256"
                }
            ],
            "name": "proposeAction",
            "outputs": [
                {
                    "internalType": "uint64",
                    "name": "",
                    "type": "uint64"
                }
            ],
            "stateMutability": "nonpayable",
            "type": "function"
        },
        {
            "inputs": [
                {
                    "internalType": "address",
                    "name": "doc",
                    "type": "address"
                },
                {
                    "internalType": "uint256",
                    "name": "seqOfVR",
                    "type": "uint256"
                },
                {
                    "internalType": "uint256",
                    "name": "executor",
                    "type": "uint256"
                },
                {
                    "internalType": "uint256",
                    "name": "proposer",
                    "type": "uint256"
                }
            ],
            "name": "proposeDoc",
            "outputs": [
                {
                    "internalType": "uint64",
                    "name": "",
                    "type": "uint64"
                }
            ],
            "stateMutability": "nonpayable",
            "type": "function"
        },
        {
            "inputs": [
                {
                    "internalType": "uint256",
                    "name": "seqOfMotion",
                    "type": "uint256"
                },
                {
                    "internalType": "uint256",
                    "name": "proposer",
                    "type": "uint256"
                }
            ],
            "name": "proposeMotion",
            "outputs": [],
            "stateMutability": "nonpayable",
            "type": "function"
        },
        {
            "inputs": [
                {
                    "internalType": "uint256",
                    "name": "seqOfPos",
                    "type": "uint256"
                },
                {
                    "internalType": "uint256",
                    "name": "seqOfVR",
                    "type": "uint256"
                },
                {
                    "internalType": "uint256",
                    "name": "nominator",
                    "type": "uint256"
                }
            ],
            "name": "proposeToRemoveOfficer",
            "outputs": [
                {
                    "internalType": "uint64",
                    "name": "",
                    "type": "uint64"
                }
            ],
            "stateMutability": "nonpayable",
            "type": "function"
        },
        {
            "inputs": [
                {
                    "internalType": "address",
                    "name": "target",
                    "type": "address"
                }
            ],
            "name": "removeDirectKeeper",
            "outputs": [],
            "stateMutability": "nonpayable",
            "type": "function"
        },
        {
            "inputs": [
                {
                    "internalType": "bytes32",
                    "name": "role",
                    "type": "bytes32"
                }
            ],
            "name": "renounceRole",
            "outputs": [],
            "stateMutability": "nonpayable",
            "type": "function"
        },
        {
            "inputs": [
                {
                    "internalType": "bytes32",
                    "name": "role",
                    "type": "bytes32"
                },
                {
                    "internalType": "uint256",
                    "name": "acct",
                    "type": "uint256"
                }
            ],
            "name": "revokeRole",
            "outputs": [],
            "stateMutability": "nonpayable",
            "type": "function"
        },
        {
            "inputs": [
                {
                    "internalType": "address",
                    "name": "keeper",
                    "type": "address"
                }
            ],
            "name": "setDirectKeeper",
            "outputs": [],
            "stateMutability": "nonpayable",
            "type": "function"
        },
        {
            "inputs": [
                {
                    "internalType": "uint256",
                    "name": "acct",
                    "type": "uint256"
                }
            ],
            "name": "setGeneralCounsel",
            "outputs": [],
            "stateMutability": "nonpayable",
            "type": "function"
        },
        {
            "inputs": [
                {
                    "internalType": "uint256",
                    "name": "acct",
                    "type": "uint256"
                }
            ],
            "name": "setOwner",
            "outputs": [],
            "stateMutability": "nonpayable",
            "type": "function"
        },
        {
            "inputs": [
                {
                    "internalType": "bytes32",
                    "name": "role",
                    "type": "bytes32"
                },
                {
                    "internalType": "uint256",
                    "name": "acct",
                    "type": "uint256"
                }
            ],
            "name": "setRoleAdmin",
            "outputs": [],
            "stateMutability": "nonpayable",
            "type": "function"
        },
        {
            "inputs": [
                {
                    "internalType": "uint256",
                    "name": "seqOfMotion",
                    "type": "uint256"
                },
                {
                    "components": [
                        {
                            "internalType": "uint64",
                            "name": "totalHead",
                            "type": "uint64"
                        },
                        {
                            "internalType": "uint64",
                            "name": "totalWeight",
                            "type": "uint64"
                        },
                        {
                            "internalType": "uint64",
                            "name": "supportHead",
                            "type": "uint64"
                        },
                        {
                            "internalType": "uint64",
                            "name": "supportWeight",
                            "type": "uint64"
                        }
                    ],
                    "internalType": "struct MotionsRepo.VoteCalBase",
                    "name": "base",
                    "type": "tuple"
                }
            ],
            "name": "voteCounting",
            "outputs": [
                {
                    "internalType": "uint8",
                    "name": "result",
                    "type": "uint8"
                }
            ],
            "stateMutability": "nonpayable",
            "type": "function"
        },
        {
            "inputs": [
                {
                    "internalType": "uint256",
                    "name": "seqOfMotion",
                    "type": "uint256"
                }
            ],
            "name": "voteEnded",
            "outputs": [
                {
                    "internalType": "bool",
                    "name": "",
                    "type": "bool"
                }
            ],
            "stateMutability": "view",
            "type": "function"
        },
        {
            "inputs": [
                {
                    "internalType": "uint256",
                    "name": "seqOfMotion",
                    "type": "uint256"
                }
            ],
            "name": "voteStarted",
            "outputs": [
                {
                    "internalType": "bool",
                    "name": "",
                    "type": "bool"
                }
            ],
            "stateMutability": "view",
            "type": "function"
        }
    ],
    "bytecode": "608060405234801561001057600080fd5b506147d1806100206000396000f3fe608060405234801561001057600080fd5b506004361061023d5760003560e01c80636be8496f1161013b578063ad15aad2116100b8578063cd43b1651161007c578063cd43b165146105c0578063dc890da9146105d3578063ea56efc6146105e6578063ed211023146105f9578063f045a7691461061957600080fd5b8063ad15aad214610553578063b3f05b9714610573578063b43a401d14610587578063bbfd607d1461059a578063c41f49b0146105ad57600080fd5b80638bb9c5bf116100ff5780638bb9c5bf146104d45780639371bd1e146104e75780639a51cdfc146104fa578063a0743e711461051b578063a1e1d6211461054057600080fd5b80636be8496f146104805780637e063c5a146104935780638041494e146104a657806388125cf7146104b9578063893d20e8146104cc57600080fd5b806349403183116101c957806359269f821161018d57806359269f82146104145780635c2753bf146104275780635d7ad88f1461043a57806361df743f1461044d57806365a47e811461046d57600080fd5b806349403183146103a55780634a14beb1146103c85780634f6413ac146103db5780635171ebd4146103ee578063585aebc61461040157600080fd5b8063165dd5ec11610210578063165dd5ec1461033957806319d61ad9146103595780631b6ea9f91461036c5780632d3eaa401461037f5780633da9a6001461039257600080fd5b8063096f3abe146102425780630d358757146102575780630e6d37cc146102f0578063103f6edd1461031b575b600080fd5b610255610250366004613235565b610621565b005b61026a610265366004613235565b610e08565b6040516102e79190600060e08201905064ffffffffff835116825260ff602084015116602083015263ffffffff604084015116604083015260608301516001600160401b03808216606085015265ffffffffffff60808601511660808501528060a08601511660a0850152505060c083015160c083015292915050565b60405180910390f35b6103036102fe3660046133d5565b610ed6565b6040516001600160401b0390911681526020016102e7565b6103236110c5565b60405164ffffffffff90911681526020016102e7565b61034c610347366004613235565b611151565b6040516102e79190613488565b610255610367366004613235565b6111fd565b61025561037a366004613235565b61128f565b61025561038d3660046134fd565b6112b5565b6102556103a0366004613529565b6114a8565b6103b86103b3366004613529565b611533565b60405190151581526020016102e7565b6102556103d6366004613529565b6115c0565b6103036103e9366004613542565b61181d565b6102556103fc366004613235565b611904565b61025561040f366004613542565b61192a565b6103b8610422366004613529565b611ab7565b6102556104353660046136ef565b611af8565b6102556104483660046137fb565b611d2c565b61046061045b366004613235565b611e64565b6040516102e79190613818565b61030361047b3660046134fd565b611f21565b61025561048e3660046137fb565b612008565b6103b86104a1366004613235565b6120ba565b6102556104b4366004613529565b61214f565b6102556104c73660046138a6565b612208565b6103236123a2565b6102556104e2366004613529565b6123dd565b6103b86104f53660046134fd565b612402565b61050d610508366004613235565b6124a4565b6040519081526020016102e7565b61052e6105293660046138ef565b612537565b60405160ff90911681526020016102e7565b6103b861054e366004613529565b6126d8565b610566610561366004613529565b612719565b6040516102e79190613b49565b60028054600160f01b900460ff16146103b8565b6103b8610595366004613529565b6127ab565b6103036105a83660046136ef565b6127ec565b6103036105bb366004613bf0565b6128e8565b6103036105ce366004613c31565b61299a565b6102556105e1366004613c6c565b612a80565b6103b86105f4366004613235565b612b62565b610601612baa565b6040516001600160a01b0390911681526020016102e7565b610255612c30565b604051633b11adbf60e21b81526002600482015233602482015273__$364aad554dc80380f414546becdd2c1584$__9063ec46b6fc9060440160206040518083038186803b15801561067257600080fd5b505af4158015610686573d6000803e3d6000fd5b505050506040513d601f19601f820116820180604052508101906106aa9190613cc4565b6106cf5760405162461bcd60e51b81526004016106c690613cdf565b60405180910390fd5b600060046000016000848152602001908152602001600020604051806080016040529081600082016040518060e00160405290816000820160009054906101000a900461ffff1661ffff1661ffff1681526020016000820160029054906101000a90046001600160401b03166001600160401b03166001600160401b0316815260200160008201600a9054906101000a900461ffff1661ffff1661ffff16815260200160008201600c9054906101000a900464ffffffffff1664ffffffffff1664ffffffffff1681526020016000820160119054906101000a900464ffffffffff1664ffffffffff1664ffffffffff1681526020016000820160169054906101000a900465ffffffffffff1665ffffffffffff1665ffffffffffff16815260200160008201601c9054906101000a900463ffffffff1663ffffffff1663ffffffff16815250508152602001600182016040518060e00160405290816000820160009054906101000a900464ffffffffff1664ffffffffff1664ffffffffff1681526020016000820160059054906101000a900465ffffffffffff1665ffffffffffff1665ffffffffffff16815260200160008201600b9054906101000a900465ffffffffffff1665ffffffffffff1665ffffffffffff1681526020016000820160119054906101000a900465ffffffffffff1665ffffffffffff1665ffffffffffff1681526020016000820160179054906101000a900465ffffffffffff1665ffffffffffff1665ffffffffffff16815260200160008201601d9054906101000a900461ffff1661ffff1661ffff16815260200160008201601f9054906101000a900460ff1660ff1660ff1681525050815260200160028201604051806102400160405290816000820160009054906101000a900461ffff1661ffff1661ffff1681526020016000820160029054906101000a900460ff1660ff1660ff1681526020016000820160039054906101000a900460ff1660ff1660ff1681526020016000820160049054906101000a900461ffff1661ffff1661ffff1681526020016000820160069054906101000a900461ffff1661ffff1661ffff1681526020016000820160089054906101000a900461ffff1661ffff1661ffff16815260200160008201600a9054906101000a900460ff1615151515815260200160008201600b9054906101000a900460ff1615151515815260200160008201600c9054906101000a900460ff1615151515815260200160008201600d9054906101000a900460ff1615151515815260200160008201600e9054906101000a900460ff1660ff1660ff16815260200160008201600f9054906101000a900460ff1660ff1660ff1681526020016000820160109054906101000a900460ff1660ff1660ff1681526020016000820160119054906101000a900460ff1660ff1660ff1681526020016000820160129054906101000a900460ff1660ff1660ff1681526020016000820160139054906101000a900460ff1660ff1660ff16815260200160018201600280602002604051908101604052809291908260028015610b92576020028201916000905b82829054906101000a900464ffffffffff1664ffffffffff1681526020019060050190602082600401049283019260010382029150808411610b535790505b50505091835250506002919091015461ffff166020918201529082526005929092015490820152600154604080516314c35b8560e31b815290519394506000936001600160a01b039092169263a61adc2892600480840193829003018186803b158015610bfe57600080fd5b505afa158015610c12573d6000803e3d6000fd5b505050506040513d601f19601f82011682018060405250810190610c369190613d25565b82516040908101519051634846203760e01b815261ffff90911660048201526001600160a01b03919091169063484620379060240160206040518083038186803b158015610c8357600080fd5b505afa158015610c97573d6000803e3d6000fd5b505050506040513d601f19601f82011682018060405250810190610cbb9190613d42565b604051634281ec6b60e11b8152600481019190915273__$9d2c69e94fee47b9774dc8db4aa5c0bbec$__90638503d8d6906024016102606040518083038186803b158015610d0857600080fd5b505af4158015610d1c573d6000803e3d6000fd5b505050506040513d601f19601f82011682018060405250810190610d409190613f4a565b60405163fe3aba2760e01b815290915073__$c69e6785922941bfe0f11afdbfcce85492$__9063fe3aba2790610d80906004908890869089908401613f67565b60e06040518083038186803b158015610d9857600080fd5b505af4158015610dac573d6000803e3d6000fd5b505050506040513d601f19601f82011682018060405250810190610dd0919061418c565b6020830152604051839085907f2eed72fdf855f1461258147d82bc92c0cec2d5d72f85c0471ce349f51b37d95d90600090a350505050565b6040805160e081018252600080825260208201819052818301819052606082018190526080820181905260a0820181905260c08201529051635eeb98eb60e01b8152600480820152602481018490526044810183905273__$c69e6785922941bfe0f11afdbfcce85492$__90635eeb98eb9060640160e06040518083038186803b158015610e9557600080fd5b505af4158015610ea9573d6000803e3d6000fd5b505050506040513d601f19601f82011682018060405250810190610ecd91906141b3565b90505b92915050565b604051633b11adbf60e21b81526002600482015233602482015260009073__$364aad554dc80380f414546becdd2c1584$__9063ec46b6fc9060440160206040518083038186803b158015610f2a57600080fd5b505af4158015610f3e573d6000803e3d6000fd5b505050506040513d601f19601f82011682018060405250810190610f629190613cc4565b610f7e5760405162461bcd60e51b81526004016106c690613cdf565b60405163a64ee9bd60e01b815273__$c69e6785922941bfe0f11afdbfcce85492$__9063a64ee9bd90610fb990600490879087908301614266565b60e06040518083038186803b158015610fd157600080fd5b505af4158015610fe5573d6000803e3d6000fd5b505050506040513d601f19601f820116820180604052508101906110099190614320565b92508173__$c69e6785922941bfe0f11afdbfcce85492$__63f138788e856040518263ffffffff1660e01b8152600401611043919061433c565b60206040518083038186803b15801561105b57600080fd5b505af415801561106f573d6000803e3d6000fd5b505050506040513d601f19601f820116820180604052508101906110939190613d42565b6040517f3ac733a5e01b133fe59ace4c20e40ab1916d571ff364ec4819dc2951be83642e90600090a350506020015190565b60405163e8c0cc1d60e01b81526002600482015260009073__$364aad554dc80380f414546becdd2c1584$__9063e8c0cc1d906024015b60206040518083038186803b15801561111457600080fd5b505af4158015611128573d6000803e3d6000fd5b505050506040513d601f19601f8201168201806040525081019061114c919061434a565b905090565b6040805160608082018352600080835260208301528183015290516341335f3560e01b8152600480820152602481018490526044810183905273__$c69e6785922941bfe0f11afdbfcce85492$__906341335f359060640160006040518083038186803b1580156111c157600080fd5b505af41580156111d5573d6000803e3d6000fd5b505050506040513d6000823e601f3d908101601f19168201604052610ecd9190810190614367565b73__$364aad554dc80380f414546becdd2c1584$__6382daafaa60028484611223612e74565b6040516001600160e01b031960e087901b16815260048101949094526024840192909252604483015264ffffffffff16606482015260840160006040518083038186803b15801561127357600080fd5b505af4158015611287573d6000803e3d6000fd5b505050505050565b73__$364aad554dc80380f414546becdd2c1584$__636320d75e60028484611223612e74565b604051633b11adbf60e21b81526002600482015233602482015273__$364aad554dc80380f414546becdd2c1584$__9063ec46b6fc9060440160206040518083038186803b15801561130657600080fd5b505af415801561131a573d6000803e3d6000fd5b505050506040513d601f19601f8201168201806040525081019061133e9190613cc4565b806113bf57506001546040516335d2155560e11b81523360048201526001600160a01b0390911690636ba42aaa9060240160206040518083038186803b15801561138757600080fd5b505afa15801561139b573d6000803e3d6000fd5b505050506040513d601f19601f820116820180604052508101906113bf9190613cc4565b6113ff5760405162461bcd60e51b815260206004820152601160248201527020a19737b59d103737ba1025b2b2b832b960791b60448201526064016106c6565b604051630aa0aacd60e11b815260048082015260248101849052604481018390526064810182905273__$c69e6785922941bfe0f11afdbfcce85492$__90631541559a9060840160006040518083038186803b15801561145e57600080fd5b505af4158015611472573d6000803e3d6000fd5b50506040518392508591507fae42f3be1ee887ec3af249092d8ce9d9a13ac3c2a8e40639341a77ac2e012de390600090a3505050565b73__$364aad554dc80380f414546becdd2c1584$__63c51b295f6002836114cd612e74565b6040516001600160e01b031960e086901b1681526004810193909352602483019190915264ffffffffff16604482015260640160006040518083038186803b15801561151857600080fd5b505af415801561152c573d6000803e3d6000fd5b5050505050565b604051631d62ca6b60e11b81526004808201526024810182905260009073__$c69e6785922941bfe0f11afdbfcce85492$__90633ac594d6906044015b60206040518083038186803b15801561158857600080fd5b505af415801561159c573d6000803e3d6000fd5b505050506040513d601f19601f82011682018060405250810190610ed09190613cc4565b604051633b11adbf60e21b81526002600482015233602482015273__$364aad554dc80380f414546becdd2c1584$__9063ec46b6fc9060440160206040518083038186803b15801561161157600080fd5b505af4158015611625573d6000803e3d6000fd5b505050506040513d601f19601f820116820180604052508101906116499190613cc4565b806116ee575073__$364aad554dc80380f414546becdd2c1584$__63fe2710866002611673612e74565b6040516001600160e01b031960e085901b168152600481019290925264ffffffffff16602482015260440160206040518083038186803b1580156116b657600080fd5b505af41580156116ca573d6000803e3d6000fd5b505050506040513d601f19601f820116820180604052508101906116ee9190613cc4565b6117595760405162461bcd60e51b815260206004820152603660248201527f41432e6f776e65724f72446972656374426f6f6b65657065723a206e6569746860448201527532b91037bbb732b9103737b9103137b7b5b2b2b832b960511b60648201526084016106c6565b73__$364aad554dc80380f414546becdd2c1584$__639b4510de60028361177e612e74565b6040516001600160e01b031960e086901b1681526004810193909352602483019190915264ffffffffff16604482015260640160006040518083038186803b1580156117c957600080fd5b505af41580156117dd573d6000803e3d6000fd5b505050507ff2735f34b69be1e6342dea95f9162f84d0db925fab655ca9f1f312ac8cbfc99d8160405161181291815260200190565b60405180910390a150565b604051633b11adbf60e21b81526002600482015233602482015260009073__$364aad554dc80380f414546becdd2c1584$__9063ec46b6fc9060440160206040518083038186803b15801561187157600080fd5b505af4158015611885573d6000803e3d6000fd5b505050506040513d601f19601f820116820180604052508101906118a99190613cc4565b6118c55760405162461bcd60e51b81526004016106c690613cdf565b6118cd6130d7565b6001815261ffff8516604082015264ffffffffff8381166060830152841660808201526118fa8187610ed6565b9695505050505050565b73__$364aad554dc80380f414546becdd2c1584$__63ee98b31360028484611223612e74565b604051633b11adbf60e21b81526002600482015233602482015273__$364aad554dc80380f414546becdd2c1584$__9063ec46b6fc9060440160206040518083038186803b15801561197b57600080fd5b505af415801561198f573d6000803e3d6000fd5b505050506040513d601f19601f820116820180604052508101906119b39190613cc4565b6119cf5760405162461bcd60e51b81526004016106c690613cdf565b6040516350a1179960e01b81526004808201526024810185905260448101849052606481018390526084810182905273__$c69e6785922941bfe0f11afdbfcce85492$__906350a117999060a40160206040518083038186803b158015611a3557600080fd5b505af4158015611a49573d6000803e3d6000fd5b505050506040513d601f19601f82011682018060405250810190611a6d9190613cc4565b50604080518481526020810184905290810182905284907f3e23c378c06ec59e11c122258c99a9ada1318ed2d864c4eee514bcd853151f2f9060600160405180910390a250505050565b604051633e9ace7f60e11b81526004808201526024810182905260009073__$c69e6785922941bfe0f11afdbfcce85492$__90637d359cfe90604401611570565b604051633b11adbf60e21b81526002600482015233602482015273__$364aad554dc80380f414546becdd2c1584$__9063ec46b6fc9060440160206040518083038186803b158015611b4957600080fd5b505af4158015611b5d573d6000803e3d6000fd5b505050506040513d601f19601f82011682018060405250810190611b819190613cc4565b611b9d5760405162461bcd60e51b81526004016106c690613cdf565b604051630363eeeb60e01b81526004808201526024810183905260009073__$c69e6785922941bfe0f11afdbfcce85492$__90630363eeeb906044016104406040518083038186803b158015611bf257600080fd5b505af4158015611c06573d6000803e3d6000fd5b505050506040513d601f19601f82011682018060405250810190611c2a919061444f565b80515190915061ffff16600414611c835760405162461bcd60e51b815260206004820152601960248201527f4d4d2e45413a2077726f6e6720747970654f664d6f74696f6e0000000000000060448201526064016106c6565b6000611c928989898989612ece565b9050611c9f8482856112b5565b611caa888888612f0b565b15611cea576040516001815281907f90d27aa223d991b1f5ce114c8bd3a03525a9f3e05799b7b66fb9f431df931f139060200160405180910390a2611d21565b6040516000815281907f90d27aa223d991b1f5ce114c8bd3a03525a9f3e05799b7b66fb9f431df931f139060200160405180910390a25b505050505050505050565b604051633b11adbf60e21b81526002600482015233602482015273__$364aad554dc80380f414546becdd2c1584$__9063ec46b6fc9060440160206040518083038186803b158015611d7d57600080fd5b505af4158015611d91573d6000803e3d6000fd5b505050506040513d601f19601f82011682018060405250810190611db59190613cc4565b611dd15760405162461bcd60e51b81526004016106c690613cdf565b604051636be8496f60e01b81523360048201526001600160a01b03821690636be8496f90602401600060405180830381600087803b158015611e1257600080fd5b505af1158015611e26573d6000803e3d6000fd5b50506040516001600160a01b03841681527f64dd6e84044f0067086012335dcfab3188db6615b5cc7debf18c9a621ebd5d9192506020019050611812565b6040805160a081018252600080825260208201819052818301819052606080830191909152608082015290516322576ef960e11b8152600480820152602481018490526044810183905273__$c69e6785922941bfe0f11afdbfcce85492$__906344aeddf29060640160006040518083038186803b158015611ee557600080fd5b505af4158015611ef9573d6000803e3d6000fd5b505050506040513d6000823e601f3d908101601f19168201604052610ecd91908101906144ae565b604051633b11adbf60e21b81526002600482015233602482015260009073__$364aad554dc80380f414546becdd2c1584$__9063ec46b6fc9060440160206040518083038186803b158015611f7557600080fd5b505af4158015611f89573d6000803e3d6000fd5b505050506040513d601f19601f82011682018060405250810190611fad9190613cc4565b611fc95760405162461bcd60e51b81526004016106c690613cdf565b611fd16130d7565b6002815261ffff8416604082015264ffffffffff8316606082018190526080820152611ffd8186610ed6565b9150505b9392505050565b604051630f07232560e01b8152600260048201526001600160a01b038216602482015233604482015273__$364aad554dc80380f414546becdd2c1584$__90630f0723259060640160006040518083038186803b15801561206857600080fd5b505af415801561207c573d6000803e3d6000fd5b50506040516001600160a01b03841681527fe435cbeab64e4eae6497b9d8289704bd709d624a80704ef3ca9af777534bc6ec92506020019050611812565b604051632a3be56b60e21b815260026004820152602481018390526044810182905260009073__$364aad554dc80380f414546becdd2c1584$__9063a8ef95ac906064015b60206040518083038186803b15801561211757600080fd5b505af415801561212b573d6000803e3d6000fd5b505050506040513d601f19601f82011682018060405250810190610ecd9190613cc4565b73__$364aad554dc80380f414546becdd2c1584$__639b48160c600283612174612e74565b6040516001600160e01b031960e086901b1681526004810193909352602483019190915264ffffffffff16604482015260640160006040518083038186803b1580156121bf57600080fd5b505af41580156121d3573d6000803e3d6000fd5b505050507f8b6f40f36b4ae8cc5f55e895036457c43da4ab1f80f58c46f5ff0d72a650033b8160405161181291815260200190565b604051633b11adbf60e21b81526002600482015233602482015273__$364aad554dc80380f414546becdd2c1584$__9063ec46b6fc9060440160206040518083038186803b15801561225957600080fd5b505af415801561226d573d6000803e3d6000fd5b505050506040513d601f19601f820116820180604052508101906122919190613cc4565b6122ad5760405162461bcd60e51b81526004016106c690613cdf565b604051632ff6d49160e21b8152600480820152602481018690526044810182905260648101859052608481018490526001600160a01b03831660a482015273__$c69e6785922941bfe0f11afdbfcce85492$__9063bfdb52449060c40160206040518083038186803b15801561232257600080fd5b505af4158015612336573d6000803e3d6000fd5b505050506040513d601f19601f8201168201806040525081019061235a9190613cc4565b1561152c578381867fb965bea85bac4cc500b2313003c13f639d5e21aca4edd1e830b5ce70ea881a508660405161239391815260200190565b60405180910390a45050505050565b60405163987ad15360e01b81526002600482015260009073__$364aad554dc80380f414546becdd2c1584$__9063987ad153906024016110fc565b73__$364aad554dc80380f414546becdd2c1584$__63cc0d511b6002836114cd612e74565b6040516305f7f47f60e51b815260048082015260248101849052604481018390526064810182905260009073__$c69e6785922941bfe0f11afdbfcce85492$__9063befe8fe09060840160206040518083038186803b15801561246457600080fd5b505af4158015612478573d6000803e3d6000fd5b505050506040513d601f19601f8201168201806040525081019061249c9190613cc4565b949350505050565b6040516378a3d56560e11b8152600480820152602481018390526044810182905260009073__$c69e6785922941bfe0f11afdbfcce85492$__9063f147aaca9060640160206040518083038186803b1580156124ff57600080fd5b505af4158015612513573d6000803e3d6000fd5b505050506040513d601f19601f82011682018060405250810190610ecd9190613d42565b604051633b11adbf60e21b81526002600482015233602482015260009073__$364aad554dc80380f414546becdd2c1584$__9063ec46b6fc9060440160206040518083038186803b15801561258b57600080fd5b505af415801561259f573d6000803e3d6000fd5b505050506040513d601f19601f820116820180604052508101906125c39190613cc4565b6125df5760405162461bcd60e51b81526004016106c690613cdf565b60408051633bcc83c360e11b81526004808201526024810185905283516001600160401b0390811660448301526020850151811660648301529184015182166084820152606084015190911660a482015273__$c69e6785922941bfe0f11afdbfcce85492$__9063779907869060c40160206040518083038186803b15801561266757600080fd5b505af415801561267b573d6000803e3d6000fd5b505050506040513d601f19601f8201168201806040525081019061269f91906145c5565b90508060ff16837f09dabc8247f652d3170a3738595d35365582b55eebeee44e1059d2981852648360405160405180910390a392915050565b60405163cc526e6b60e01b81526004808201526024810182905260009073__$c69e6785922941bfe0f11afdbfcce85492$__9063cc526e6b90604401611570565b612721613113565b604051630363eeeb60e01b81526004808201526024810183905273__$c69e6785922941bfe0f11afdbfcce85492$__90630363eeeb906044016104406040518083038186803b15801561277357600080fd5b505af4158015612787573d6000803e3d6000fd5b505050506040513d601f19601f82011682018060405250810190610ed0919061444f565b6040516338d1980760e21b81526004808201526024810182905260009073__$c69e6785922941bfe0f11afdbfcce85492$__9063e346601c90604401611570565b604051633b11adbf60e21b81526002600482015233602482015260009073__$364aad554dc80380f414546becdd2c1584$__9063ec46b6fc9060440160206040518083038186803b15801561284057600080fd5b505af4158015612854573d6000803e3d6000fd5b505050506040513d601f19601f820116820180604052508101906128789190613cc4565b6128945760405162461bcd60e51b81526004016106c690613cdf565b61289c6130d7565b6004815261ffff8916604082015264ffffffffff83811660608301528416608082015260006128ce8a8a8a8a8a612ece565b90506128da8282610ed6565b9a9950505050505050505050565b6040516307621e5360e01b81526004808201526024810185905260448101849052606481018390526001600160a01b038216608482015260009073__$c69e6785922941bfe0f11afdbfcce85492$__906307621e539060a40160206040518083038186803b15801561295957600080fd5b505af415801561296d573d6000803e3d6000fd5b505050506040513d601f19601f8201168201806040525081019061299191906145e0565b95945050505050565b604051633b11adbf60e21b81526002600482015233602482015260009073__$364aad554dc80380f414546becdd2c1584$__9063ec46b6fc9060440160206040518083038186803b1580156129ee57600080fd5b505af4158015612a02573d6000803e3d6000fd5b505050506040513d601f19601f82011682018060405250810190612a269190613cc4565b612a425760405162461bcd60e51b81526004016106c690613cdf565b612a4a6130d7565b6003815261ffff8516604082015264ffffffffff8381166060830152841660808201526118fa816001600160a01b038816610ed6565b604051636cdd0edf60e11b815260026004820152602481018590526001600160a01b038416604482015273__$364aad554dc80380f414546becdd2c1584$__9063d9ba1dbe9060640160006040518083038186803b158015612ae157600080fd5b505af4158015612af5573d6000803e3d6000fd5b50505050612b0282612fe9565b612b0b8161305c565b604080518581526001600160a01b038581166020830152848116828401528316606082015290517f3abb2418c66fe32ba9c883030a75ce583971d9af9192b9b74e44e67c5e6c8c1f9181900360800190a150505050565b60405163b34299c960e01b8152600480820152602481018390526044810182905260009073__$c69e6785922941bfe0f11afdbfcce85492$__9063b34299c9906064016120ff565b604051633c3e56c160e11b81526002600482015260009073__$364aad554dc80380f414546becdd2c1584$__9063787cad829060240160206040518083038186803b158015612bf857600080fd5b505af4158015612c0c573d6000803e3d6000fd5b505050506040513d601f19601f8201168201806040525081019061114c9190613d25565b600254600160f01b900460ff16600114612c8c5760405162461bcd60e51b815260206004820152601760248201527f41432e4c433a20446f632069732066696e616c697a656400000000000000000060448201526064016106c6565b73__$364aad554dc80380f414546becdd2c1584$__63c51b295f6002684174746f726e65797360b81b612cbd612e74565b6040516001600160e01b031960e086901b1681526004810193909352602483019190915264ffffffffff16604482015260640160006040518083038186803b158015612d0857600080fd5b505af4158015612d1c573d6000803e3d6000fd5b50505050600273__$364aad554dc80380f414546becdd2c1584$__639b4510de90916000612d48612e74565b6040516001600160e01b031960e086901b1681526004810193909352602483019190915264ffffffffff16604482015260640160006040518083038186803b158015612d9357600080fd5b505af4158015612da7573d6000803e3d6000fd5b50505050600273__$364aad554dc80380f414546becdd2c1584$__639b48160c90916000612dd3612e74565b6040516001600160e01b031960e086901b1681526004810193909352602483019190915264ffffffffff16604482015260640160006040518083038186803b158015612e1e57600080fd5b505af4158015612e32573d6000803e3d6000fd5b50506002805460ff60f01b1916600160f11b17905550506040517f35012b512309c322acf68632cd6cb702ff0e1d776fbe9394e38ffc13b434fe7590600090a1565b60008054604051636ae3b70d60e11b81523360048201526001600160a01b039091169063d5c76e1a90602401602060405180830381600087803b158015612eba57600080fd5b505af1158015611128573d6000803e3d6000fd5b60008585858585604051602001612ee9959493929190614696565b60408051601f1981840301815291905280516020909101209695505050505050565b6000805b8451811015612fe157848181518110612f2a57612f2a614740565b60200260200101516001600160a01b0316848281518110612f4d57612f4d614740565b6020026020010151848381518110612f6757612f67614740565b6020026020010151604051612f7c9190614756565b60006040518083038185875af1925050503d8060008114612fb9576040519150601f19603f3d011682016040523d82523d6000602084013e612fbe565b606091505b50508092505081612fcf5750612001565b80612fd981614772565b915050612f0f565b509392505050565b6000546001600160a01b03161561303a5760405162461bcd60e51b815260206004820152601560248201527430b63932b0b23c9039b2ba103932b3a1b2b73a32b960591b60448201526064016106c6565b600080546001600160a01b0319166001600160a01b0392909216919091179055565b6001546001600160a01b0316156130b55760405162461bcd60e51b815260206004820152601960248201527f616c7265616479207365742067656e6572616c4b65657065720000000000000060448201526064016106c6565b600180546001600160a01b0319166001600160a01b0392909216919091179055565b6040805160e081018252600080825260208201819052918101829052606081018290526080810182905260a0810182905260c081019190915290565b60405180608001604052806131266130d7565b81526040805160e08101825260008082526020828101829052928201819052606082018190526080820181905260a0820181905260c0820152910190815260200161316f61317c565b8152602001600081525090565b6040805161024081018252600080825260208201819052918101829052606081018290526080810182905260a0810182905260c0810182905260e08101829052610100810182905261012081018290526101408101829052610160810182905261018081018290526101a081018290526101c081018290526101e0810191909152610200810161320a613217565b8152600060209091015290565b60405180604001604052806002906020820280368337509192915050565b6000806040838503121561324857600080fd5b50508035926020909101359150565b634e487b7160e01b600052604160045260246000fd5b60405160e081016001600160401b038111828210171561328f5761328f613257565b60405290565b604051608081016001600160401b038111828210171561328f5761328f613257565b60405161024081016001600160401b038111828210171561328f5761328f613257565b604051606081016001600160401b038111828210171561328f5761328f613257565b60405160a081016001600160401b038111828210171561328f5761328f613257565b604051601f8201601f191681016001600160401b038111828210171561334657613346613257565b604052919050565b61ffff8116811461335e57600080fd5b50565b6001600160401b038116811461335e57600080fd5b64ffffffffff8116811461335e57600080fd5b803561339481613376565b919050565b65ffffffffffff8116811461335e57600080fd5b803561339481613399565b63ffffffff8116811461335e57600080fd5b8035613394816133b8565b6000808284036101008112156133ea57600080fd5b60e08112156133f857600080fd5b5061340161326d565b833561340c8161334e565b8152602084013561341c81613361565b6020820152604084013561342f8161334e565b6040820152606084013561344281613376565b606082015261345360808501613389565b608082015261346460a085016133ad565b60a082015261347560c085016133ca565b60c08201529460e0939093013593505050565b600060208083526080830163ffffffff855116828501526001600160401b0382860151166040850152604085015160608086015281815180845260a0870191508483019350600092505b808310156134f257835182529284019260019290920191908401906134d2565b509695505050505050565b60008060006060848603121561351257600080fd5b505081359360208301359350604090920135919050565b60006020828403121561353b57600080fd5b5035919050565b6000806000806080858703121561355857600080fd5b5050823594602084013594506040840135936060013592509050565b60006001600160401b0382111561358d5761358d613257565b5060051b60200190565b6001600160a01b038116811461335e57600080fd5b600082601f8301126135bd57600080fd5b813560206135d26135cd83613574565b61331e565b82815260059290921b840181019181810190868411156135f157600080fd5b8286015b848110156134f257803583529183019183016135f5565b6000601f838184011261361e57600080fd5b8235602061362e6135cd83613574565b82815260059290921b8501810191818101908784111561364d57600080fd5b8287015b848110156136e35780356001600160401b03808211156136715760008081fd5b818a0191508a603f8301126136865760008081fd5b8582013560408282111561369c5761369c613257565b6136ad828b01601f1916890161331e565b92508183528c818386010111156136c45760008081fd5b8181850189850137506000908201870152845250918301918301613651565b50979650505050505050565b600080600080600080600060e0888a03121561370a57600080fd5b873596506020808901356001600160401b038082111561372957600080fd5b818b0191508b601f83011261373d57600080fd5b813561374b6135cd82613574565b81815260059190911b8301840190848101908e83111561376a57600080fd5b938501935b8285101561379157843561378281613597565b8252938501939085019061376f565b9a50505060408b01359250808311156137a957600080fd5b6137b58c848d016135ac565b975060608b01359250808311156137cb57600080fd5b50506137d98a828b0161360c565b979a969950949760808101359660a0820135965060c090910135945092505050565b60006020828403121561380d57600080fd5b813561200181613597565b6000602080835260c0830164ffffffffff8086511683860152828601516001600160401b038082166040880152806040890151166060880152505063ffffffff6060870151166080860152608086015160a08087015282815180855260e0880191508583019450600092505b808310156136e357845184168252938501936001929092019190850190613884565b600080600080600060a086880312156138be57600080fd5b85359450602086013593506040860135925060608601356138de81613597565b949793965091946080013592915050565b60008082840360a081121561390357600080fd5b833592506080601f198201121561391957600080fd5b50613922613295565b602084013561393081613361565b8152604084013561394081613361565b6020820152606084013561395381613361565b6040820152608084013561396681613361565b6060820152919491935090915050565b61ffff8082511683526001600160401b03602083015116602084015280604083015116604084015250606081015164ffffffffff8082166060850152806080840151166080850152505065ffffffffffff60a08201511660a083015263ffffffff60c08201511660c08301525050565b8060005b6002811015613a1057815164ffffffffff168452602093840193909101906001016139ea565b50505050565b805161ffff1682526020810151613a32602084018260ff169052565b506040810151613a47604084018260ff169052565b506060810151613a5d606084018261ffff169052565b506080810151613a73608084018261ffff169052565b5060a0810151613a8960a084018261ffff169052565b5060c0810151613a9d60c084018215159052565b5060e0810151613ab160e084018215159052565b5061010081810151151590830152610120808201511515908301526101408082015160ff9081169184019190915261016080830151821690840152610180808301518216908401526101a0808301518216908401526101c0808301518216908401526101e0808301519091169083015261020080820151613b34828501826139e6565b5050610220015161ffff166102409190910152565b600061044082019050613b5d828451613976565b602083810151805164ffffffffff1660e08501529081015165ffffffffffff908116610100850152604082015181166101208501526060820151811661014085015260808201511661016084015260a081015161ffff81166101808501525060c0015160ff81166101a0840152506040830151613bde6101c0840182613a16565b50606083015161042083015292915050565b60008060008060808587031215613c0657600080fd5b8435935060208501359250604085013591506060850135613c2681613597565b939692955090935050565b60008060008060808587031215613c4757600080fd5b8435613c5281613597565b966020860135965060408601359560600135945092505050565b60008060008060808587031215613c8257600080fd5b843593506020850135613c9481613597565b92506040850135613ca481613597565b91506060850135613c2681613597565b8051801515811461339457600080fd5b600060208284031215613cd657600080fd5b610ecd82613cb4565b60208082526026908201527f41432e6f6e6c794469726563744b65657065723a206e6f74206469726563742060408201526535b2b2b832b960d11b606082015260800190565b600060208284031215613d3757600080fd5b815161200181613597565b600060208284031215613d5457600080fd5b5051919050565b80516133948161334e565b805160ff8116811461339457600080fd5b600082601f830112613d8857600080fd5b604051604081018181106001600160401b0382111715613daa57613daa613257565b8060405250806040840185811115613dc157600080fd5b845b81811015613de4578051613dd681613376565b835260209283019201613dc3565b509195945050505050565b60006102608284031215613e0257600080fd5b613e0a6132b7565b9050613e1582613d5b565b8152613e2360208301613d66565b6020820152613e3460408301613d66565b6040820152613e4560608301613d5b565b6060820152613e5660808301613d5b565b6080820152613e6760a08301613d5b565b60a0820152613e7860c08301613cb4565b60c0820152613e8960e08301613cb4565b60e0820152610100613e9c818401613cb4565b90820152610120613eae838201613cb4565b90820152610140613ec0838201613d66565b90820152610160613ed2838201613d66565b90820152610180613ee4838201613d66565b908201526101a0613ef6838201613d66565b908201526101c0613f08838201613d66565b908201526101e0613f1a838201613d66565b90820152610200613f2d84848301613d77565b90820152613f3e6102408301613d5b565b61022082015292915050565b60006102608284031215613f5d57600080fd5b610ecd8383613def565b84815260208101849052825161ffff1660408201526102c08101602084015160ff8116606084015250604084015160ff8116608084015250606084015161ffff811660a084015250608084015161ffff811660c08401525060a084015161ffff811660e08401525060c0840151610100613fe48185018315159052565b60e08601519150610120613ffb8186018415159052565b908601519150610140906140128583018415159052565b86015191506101606140278582018415159052565b9086015191506101809061403f8583018460ff169052565b86015191506101a06140558582018460ff169052565b9086015191506101c09061406d8583018460ff169052565b86015191506101e06140838582018460ff169052565b9086015191506102009061409b8583018460ff169052565b86015191506102206140b18582018460ff169052565b8187015192506140c56102408601846139e6565b86015161ffff811661028086015291506140dc9050565b50826102a083015295945050505050565b600060e082840312156140ff57600080fd5b61410761326d565b9050815161411481613376565b8152602082015161412481613399565b6020820152604082015161413781613399565b6040820152606082015161414a81613399565b6060820152608082015161415d81613399565b608082015260a08201516141708161334e565b60a082015261418160c08301613d66565b60c082015292915050565b600060e0828403121561419e57600080fd5b610ecd83836140ed565b805161339481613361565b600060e082840312156141c557600080fd5b60405160e081018181106001600160401b03821117156141e7576141e7613257565b60405282516141f581613376565b815261420360208401613d66565b60208201526040830151614216816133b8565b6040820152606083015161422981613361565b6060820152608083015161423c81613399565b608082015261424d60a084016141a8565b60a082015260c083015160c08201528091505092915050565b838152610120810161427b6020830185613976565b82610100830152949350505050565b600060e0828403121561429c57600080fd5b6142a461326d565b905081516142b18161334e565b815260208201516142c181613361565b602082015260408201516142d48161334e565b604082015260608201516142e781613376565b606082015260808201516142fa81613376565b608082015260a082015161430d81613399565b60a082015260c0820151614181816133b8565b600060e0828403121561433257600080fd5b610ecd838361428a565b60e08101610ed08284613976565b60006020828403121561435c57600080fd5b815161200181613376565b6000602080838503121561437a57600080fd5b82516001600160401b038082111561439157600080fd5b90840190606082870312156143a557600080fd5b6143ad6132da565b82516143b8816133b8565b8152828401516143c781613361565b818501526040830151828111156143dd57600080fd5b80840193505086601f8401126143f257600080fd5b825191506144026135cd83613574565b82815260059290921b8301840191848101908884111561442157600080fd5b938501935b8385101561443f57845182529385019390850190614426565b6040830152509695505050505050565b6000610440828403121561446257600080fd5b61446a613295565b614474848461428a565b81526144838460e085016140ed565b6020820152614496846101c08501613def565b60408201526104209290920151606083015250919050565b600060208083850312156144c157600080fd5b82516001600160401b03808211156144d857600080fd5b9084019060a082870312156144ec57600080fd5b6144f46132fc565b82516144ff81613376565b81528284015161450e81613361565b81850152604083015161452081613361565b60408201526060830151614533816133b8565b606082015260808301518281111561454a57600080fd5b80840193505086601f84011261455f57600080fd5b8251915061456f6135cd83613574565b82815260059290921b8301840191848101908884111561458e57600080fd5b938501935b838510156145b55784516145a681613376565b82529385019390850190614593565b6080830152509695505050505050565b6000602082840312156145d757600080fd5b610ecd82613d66565b6000602082840312156145f257600080fd5b815161200181613361565b60005b83811015614618578181015183820152602001614600565b83811115613a105750506000910152565b600081518084526020808501808196508360051b8101915082860160005b858110156146895782840389528151805180865261466a818888018985016145fd565b99860199601f01601f1916949094018501935090840190600101614647565b5091979650505050505050565b600060a08201878352602060a08185015281885180845260c086019150828a01935060005b818110156146e05784516001600160a01b0316835293830193918301916001016146bb565b50508481036040860152875180825290820192508188019060005b81811015614717578251855293830193918301916001016146fb565b50505050828103606084015261472d8186614629565b9150508260808301529695505050505050565b634e487b7160e01b600052603260045260246000fd5b600082516147688184602087016145fd565b9190910192915050565b600060001982141561479457634e487b7160e01b600052601160045260246000fd5b506001019056fea2646970667358221220ec092426112115708a2dcea57d5eb567494e3de20fb705df8e280d2aa17c4c0864736f6c63430008080033",
    "sourcePath": "/Users/kaptain/github.com/hardhat/comboox/contracts/common/components/MeetingMinutes.sol",
    "compiler": {
        "name": "solc",
        "version": "0.8.8+commit.dddeac2f"
    },
    "functionHashes": {
        "abandonRole(bytes32)": "3da9a600",
        "castVote(uint256,uint256,bytes32,address,uint256)": "88125cf7",
        "createMotion((uint16,uint64,uint16,uint40,uint40,uint48,uint32),uint256)": "0e6d37cc",
        "entrustDelegate(uint256,uint256,uint256,uint256)": "585aebc6",
        "execAction(uint256,address[],uint256[],bytes[],bytes32,uint256,uint256)": "5c2753bf",
        "execResolution(uint256,uint256,uint256)": "2d3eaa40",
        "finalized()": "b3f05b97",
        "getBallot(uint256,uint256)": "0d358757",
        "getBookeeper()": "ed211023",
        "getCaseOfAttitude(uint256,uint256)": "165dd5ec",
        "getDelegateOf(uint256,uint256)": "9a51cdfc",
        "getGeneralCounsel()": "103f6edd",
        "getLeavesWeightAtDate(uint256,uint256,uint256,address)": "c41f49b0",
        "getMotion(uint256)": "ad15aad2",
        "getOwner()": "893d20e8",
        "getVoterOfDelegateMap(uint256,uint256)": "61df743f",
        "grantRole(bytes32,uint256)": "1b6ea9f9",
        "hasRole(bytes32,uint256)": "7e063c5a",
        "init(uint256,address,address,address)": "dc890da9",
        "isPassed(uint256)": "49403183",
        "isProposed(uint256)": "59269f82",
        "isVoted(uint256,uint256)": "ea56efc6",
        "isVotedFor(uint256,uint256,uint256)": "9371bd1e",
        "lockContents()": "f045a769",
        "nominateOfficer(uint256,uint256,uint256,uint256)": "4f6413ac",
        "proposeAction(uint256,address[],uint256[],bytes[],bytes32,uint256,uint256)": "bbfd607d",
        "proposeDoc(address,uint256,uint256,uint256)": "cd43b165",
        "proposeMotion(uint256,uint256)": "096f3abe",
        "proposeToRemoveOfficer(uint256,uint256,uint256)": "65a47e81",
        "removeDirectKeeper(address)": "5d7ad88f",
        "renounceRole(bytes32)": "8bb9c5bf",
        "revokeRole(bytes32,uint256)": "19d61ad9",
        "setDirectKeeper(address)": "6be8496f",
        "setGeneralCounsel(uint256)": "4a14beb1",
        "setOwner(uint256)": "8041494e",
        "setRoleAdmin(bytes32,uint256)": "5171ebd4",
        "voteCounting(uint256,(uint64,uint64,uint64,uint64))": "a0743e71",
        "voteEnded(uint256)": "b43a401d",
        "voteStarted(uint256)": "a1e1d621"
    },
    "gasEstimates": {
        "creation": {
            "codeDepositCost": "3677000",
            "executionCost": "4146",
            "totalCost": "3681146"
        },
        "external": {
            "abandonRole(bytes32)": "infinite",
            "castVote(uint256,uint256,bytes32,address,uint256)": "infinite",
            "createMotion((uint16,uint64,uint16,uint40,uint40,uint48,uint32),uint256)": "infinite",
            "entrustDelegate(uint256,uint256,uint256,uint256)": "infinite",
            "execAction(uint256,address[],uint256[],bytes[],bytes32,uint256,uint256)": "infinite",
            "execResolution(uint256,uint256,uint256)": "infinite",
            "finalized()": "2394",
            "getBallot(uint256,uint256)": "infinite",
            "getBookeeper()": "infinite",
            "getCaseOfAttitude(uint256,uint256)": "infinite",
            "getDelegateOf(uint256,uint256)": "infinite",
            "getGeneralCounsel()": "infinite",
            "getLeavesWeightAtDate(uint256,uint256,uint256,address)": "infinite",
            "getMotion(uint256)": "infinite",
            "getOwner()": "infinite",
            "getVoterOfDelegateMap(uint256,uint256)": "infinite",
            "grantRole(bytes32,uint256)": "infinite",
            "hasRole(bytes32,uint256)": "infinite",
            "init(uint256,address,address,address)": "infinite",
            "isPassed(uint256)": "infinite",
            "isProposed(uint256)": "infinite",
            "isVoted(uint256,uint256)": "infinite",
            "isVotedFor(uint256,uint256,uint256)": "infinite",
            "lockContents()": "infinite",
            "nominateOfficer(uint256,uint256,uint256,uint256)": "infinite",
            "proposeAction(uint256,address[],uint256[],bytes[],bytes32,uint256,uint256)": "infinite",
            "proposeDoc(address,uint256,uint256,uint256)": "infinite",
            "proposeMotion(uint256,uint256)": "infinite",
            "proposeToRemoveOfficer(uint256,uint256,uint256)": "infinite",
            "removeDirectKeeper(address)": "infinite",
            "renounceRole(bytes32)": "infinite",
            "revokeRole(bytes32,uint256)": "infinite",
            "setDirectKeeper(address)": "infinite",
            "setGeneralCounsel(uint256)": "infinite",
            "setOwner(uint256)": "infinite",
            "setRoleAdmin(bytes32,uint256)": "infinite",
            "voteCounting(uint256,(uint64,uint64,uint64,uint64))": "infinite",
            "voteEnded(uint256)": "infinite",
            "voteStarted(uint256)": "infinite"
        },
        "internal": {
            "_execute(address[] memory,uint256[] memory,bytes memory[] memory)": "infinite",
            "_hashAction(uint256,address[] memory,uint256[] memory,bytes memory[] memory,bytes32)": "infinite"
        }
    }
}