{
    "contractName": "MeetingMinutes",
    "abi": [
        {
            "anonymous": false,
            "inputs": [
                {
                    "indexed": true,
                    "internalType": "uint256",
                    "name": "seqOfMotion",
                    "type": "uint256"
                },
                {
                    "indexed": true,
                    "internalType": "uint256",
                    "name": "caller",
                    "type": "uint256"
                },
                {
                    "indexed": true,
                    "internalType": "uint256",
                    "name": "attitude",
                    "type": "uint256"
                },
                {
                    "indexed": false,
                    "internalType": "bytes32",
                    "name": "sigHash",
                    "type": "bytes32"
                }
            ],
            "name": "CastVoteInBoardMeeting",
            "type": "event"
        },
        {
            "anonymous": false,
            "inputs": [
                {
                    "indexed": true,
                    "internalType": "uint256",
                    "name": "seqOfMotion",
                    "type": "uint256"
                },
                {
                    "indexed": true,
                    "internalType": "uint256",
                    "name": "caller",
                    "type": "uint256"
                },
                {
                    "indexed": true,
                    "internalType": "uint256",
                    "name": "attitude",
                    "type": "uint256"
                },
                {
                    "indexed": false,
                    "internalType": "bytes32",
                    "name": "sigHash",
                    "type": "bytes32"
                }
            ],
            "name": "CastVoteInGeneralMeeting",
            "type": "event"
        },
        {
            "anonymous": false,
            "inputs": [
                {
                    "indexed": true,
                    "internalType": "bytes32",
                    "name": "snOfMotion",
                    "type": "bytes32"
                },
                {
                    "indexed": true,
                    "internalType": "uint256",
                    "name": "contents",
                    "type": "uint256"
                }
            ],
            "name": "CreateMotion",
            "type": "event"
        },
        {
            "anonymous": false,
            "inputs": [
                {
                    "indexed": true,
                    "internalType": "uint256",
                    "name": "seqOfMotion",
                    "type": "uint256"
                },
                {
                    "indexed": true,
                    "internalType": "uint256",
                    "name": "delegate",
                    "type": "uint256"
                },
                {
                    "indexed": true,
                    "internalType": "uint256",
                    "name": "principal",
                    "type": "uint256"
                }
            ],
            "name": "EntrustDelegate",
            "type": "event"
        },
        {
            "anonymous": false,
            "inputs": [
                {
                    "indexed": true,
                    "internalType": "uint256",
                    "name": "seqOfMotion",
                    "type": "uint256"
                },
                {
                    "indexed": true,
                    "internalType": "uint256",
                    "name": "caller",
                    "type": "uint256"
                }
            ],
            "name": "ExecResolution",
            "type": "event"
        },
        {
            "anonymous": false,
            "inputs": [
                {
                    "indexed": true,
                    "internalType": "uint256",
                    "name": "owner",
                    "type": "uint256"
                },
                {
                    "indexed": true,
                    "internalType": "address",
                    "name": "directKeeper",
                    "type": "address"
                },
                {
                    "indexed": false,
                    "internalType": "address",
                    "name": "regCenter",
                    "type": "address"
                },
                {
                    "indexed": true,
                    "internalType": "address",
                    "name": "generalKeeper",
                    "type": "address"
                }
            ],
            "name": "Init",
            "type": "event"
        },
        {
            "anonymous": false,
            "inputs": [],
            "name": "LockContents",
            "type": "event"
        },
        {
            "anonymous": false,
            "inputs": [
                {
                    "indexed": true,
                    "internalType": "uint256",
                    "name": "seqOfMotion",
                    "type": "uint256"
                },
                {
                    "indexed": true,
                    "internalType": "uint256",
                    "name": "proposer",
                    "type": "uint256"
                }
            ],
            "name": "ProposeMotionToBoard",
            "type": "event"
        },
        {
            "anonymous": false,
            "inputs": [
                {
                    "indexed": true,
                    "internalType": "uint256",
                    "name": "seqOfMotion",
                    "type": "uint256"
                },
                {
                    "indexed": true,
                    "internalType": "uint256",
                    "name": "proposer",
                    "type": "uint256"
                }
            ],
            "name": "ProposeMotionToGeneralMeeting",
            "type": "event"
        },
        {
            "anonymous": false,
            "inputs": [
                {
                    "indexed": true,
                    "internalType": "address",
                    "name": "target",
                    "type": "address"
                }
            ],
            "name": "RemoveDirectKeeper",
            "type": "event"
        },
        {
            "anonymous": false,
            "inputs": [
                {
                    "indexed": true,
                    "internalType": "address",
                    "name": "keeper",
                    "type": "address"
                }
            ],
            "name": "SetDirectKeeper",
            "type": "event"
        },
        {
            "anonymous": false,
            "inputs": [
                {
                    "indexed": true,
                    "internalType": "uint256",
                    "name": "acct",
                    "type": "uint256"
                }
            ],
            "name": "SetGeneralCounsel",
            "type": "event"
        },
        {
            "anonymous": false,
            "inputs": [
                {
                    "indexed": true,
                    "internalType": "uint256",
                    "name": "acct",
                    "type": "uint256"
                }
            ],
            "name": "SetOwner",
            "type": "event"
        },
        {
            "anonymous": false,
            "inputs": [
                {
                    "indexed": true,
                    "internalType": "uint256",
                    "name": "seqOfMotion",
                    "type": "uint256"
                },
                {
                    "indexed": true,
                    "internalType": "uint8",
                    "name": "result",
                    "type": "uint8"
                }
            ],
            "name": "VoteCounting",
            "type": "event"
        },
        {
            "inputs": [
                {
                    "internalType": "bytes32",
                    "name": "role",
                    "type": "bytes32"
                }
            ],
            "name": "abandonRole",
            "outputs": [],
            "stateMutability": "nonpayable",
            "type": "function"
        },
        {
            "inputs": [
                {
                    "internalType": "uint256",
                    "name": "seqOfMotion",
                    "type": "uint256"
                },
                {
                    "internalType": "uint256",
                    "name": "attitude",
                    "type": "uint256"
                },
                {
                    "internalType": "bytes32",
                    "name": "sigHash",
                    "type": "bytes32"
                },
                {
                    "internalType": "uint256",
                    "name": "caller",
                    "type": "uint256"
                }
            ],
            "name": "castVoteInBoardMeeting",
            "outputs": [],
            "stateMutability": "nonpayable",
            "type": "function"
        },
        {
            "inputs": [
                {
                    "internalType": "uint256",
                    "name": "seqOfMotion",
                    "type": "uint256"
                },
                {
                    "internalType": "uint256",
                    "name": "attitude",
                    "type": "uint256"
                },
                {
                    "internalType": "bytes32",
                    "name": "sigHash",
                    "type": "bytes32"
                },
                {
                    "internalType": "uint256",
                    "name": "caller",
                    "type": "uint256"
                }
            ],
            "name": "castVoteInGeneralMeeting",
            "outputs": [],
            "stateMutability": "nonpayable",
            "type": "function"
        },
        {
            "inputs": [
                {
                    "internalType": "uint256",
                    "name": "seqOfVR",
                    "type": "uint256"
                },
                {
                    "internalType": "address[]",
                    "name": "targets",
                    "type": "address[]"
                },
                {
                    "internalType": "uint256[]",
                    "name": "values",
                    "type": "uint256[]"
                },
                {
                    "internalType": "bytes[]",
                    "name": "params",
                    "type": "bytes[]"
                },
                {
                    "internalType": "bytes32",
                    "name": "desHash",
                    "type": "bytes32"
                },
                {
                    "internalType": "uint256",
                    "name": "executor",
                    "type": "uint256"
                },
                {
                    "internalType": "uint256",
                    "name": "proposer",
                    "type": "uint256"
                }
            ],
            "name": "createAction",
            "outputs": [
                {
                    "internalType": "uint64",
                    "name": "",
                    "type": "uint64"
                }
            ],
            "stateMutability": "nonpayable",
            "type": "function"
        },
        {
            "inputs": [
                {
                    "internalType": "address",
                    "name": "doc",
                    "type": "address"
                },
                {
                    "internalType": "uint256",
                    "name": "seqOfVR",
                    "type": "uint256"
                },
                {
                    "internalType": "uint256",
                    "name": "executor",
                    "type": "uint256"
                },
                {
                    "internalType": "uint256",
                    "name": "proposer",
                    "type": "uint256"
                }
            ],
            "name": "createMotionToApproveDoc",
            "outputs": [
                {
                    "internalType": "uint64",
                    "name": "",
                    "type": "uint64"
                }
            ],
            "stateMutability": "nonpayable",
            "type": "function"
        },
        {
            "inputs": [
                {
                    "internalType": "uint256",
                    "name": "seqOfPos",
                    "type": "uint256"
                },
                {
                    "internalType": "uint256",
                    "name": "seqOfVR",
                    "type": "uint256"
                },
                {
                    "internalType": "uint256",
                    "name": "nominator",
                    "type": "uint256"
                }
            ],
            "name": "createMotionToRemoveOfficer",
            "outputs": [
                {
                    "internalType": "uint64",
                    "name": "",
                    "type": "uint64"
                }
            ],
            "stateMutability": "nonpayable",
            "type": "function"
        },
        {
            "inputs": [
                {
                    "internalType": "uint256",
                    "name": "seqOfMotion",
                    "type": "uint256"
                },
                {
                    "internalType": "uint256",
                    "name": "delegate",
                    "type": "uint256"
                },
                {
                    "internalType": "uint256",
                    "name": "principal",
                    "type": "uint256"
                }
            ],
            "name": "entrustDelegate",
            "outputs": [],
            "stateMutability": "nonpayable",
            "type": "function"
        },
        {
            "inputs": [
                {
                    "internalType": "uint256",
                    "name": "seqOfVR",
                    "type": "uint256"
                },
                {
                    "internalType": "address[]",
                    "name": "targets",
                    "type": "address[]"
                },
                {
                    "internalType": "uint256[]",
                    "name": "values",
                    "type": "uint256[]"
                },
                {
                    "internalType": "bytes[]",
                    "name": "params",
                    "type": "bytes[]"
                },
                {
                    "internalType": "bytes32",
                    "name": "desHash",
                    "type": "bytes32"
                },
                {
                    "internalType": "uint256",
                    "name": "seqOfMotion",
                    "type": "uint256"
                },
                {
                    "internalType": "uint256",
                    "name": "caller",
                    "type": "uint256"
                }
            ],
            "name": "execAction",
            "outputs": [
                {
                    "internalType": "uint256",
                    "name": "contents",
                    "type": "uint256"
                }
            ],
            "stateMutability": "nonpayable",
            "type": "function"
        },
        {
            "inputs": [
                {
                    "internalType": "uint256",
                    "name": "seqOfMotion",
                    "type": "uint256"
                },
                {
                    "internalType": "uint256",
                    "name": "contents",
                    "type": "uint256"
                },
                {
                    "internalType": "uint256",
                    "name": "caller",
                    "type": "uint256"
                }
            ],
            "name": "execResolution",
            "outputs": [],
            "stateMutability": "nonpayable",
            "type": "function"
        },
        {
            "inputs": [],
            "name": "finalized",
            "outputs": [
                {
                    "internalType": "bool",
                    "name": "",
                    "type": "bool"
                }
            ],
            "stateMutability": "view",
            "type": "function"
        },
        {
            "inputs": [
                {
                    "internalType": "uint256",
                    "name": "seqOfMotion",
                    "type": "uint256"
                },
                {
                    "internalType": "uint256",
                    "name": "acct",
                    "type": "uint256"
                }
            ],
            "name": "getBallot",
            "outputs": [
                {
                    "components": [
                        {
                            "internalType": "uint40",
                            "name": "acct",
                            "type": "uint40"
                        },
                        {
                            "internalType": "uint8",
                            "name": "attitude",
                            "type": "uint8"
                        },
                        {
                            "internalType": "uint32",
                            "name": "head",
                            "type": "uint32"
                        },
                        {
                            "internalType": "uint64",
                            "name": "weight",
                            "type": "uint64"
                        },
                        {
                            "internalType": "uint48",
                            "name": "sigDate",
                            "type": "uint48"
                        },
                        {
                            "internalType": "uint64",
                            "name": "blocknumber",
                            "type": "uint64"
                        },
                        {
                            "internalType": "bytes32",
                            "name": "sigHash",
                            "type": "bytes32"
                        }
                    ],
                    "internalType": "struct BallotsBox.Ballot",
                    "name": "",
                    "type": "tuple"
                }
            ],
            "stateMutability": "view",
            "type": "function"
        },
        {
            "inputs": [],
            "name": "getBookeeper",
            "outputs": [
                {
                    "internalType": "address",
                    "name": "",
                    "type": "address"
                }
            ],
            "stateMutability": "view",
            "type": "function"
        },
        {
            "inputs": [
                {
                    "internalType": "uint256",
                    "name": "seqOfMotion",
                    "type": "uint256"
                },
                {
                    "internalType": "uint256",
                    "name": "atti",
                    "type": "uint256"
                }
            ],
            "name": "getCaseOfAttitude",
            "outputs": [
                {
                    "components": [
                        {
                            "internalType": "uint32",
                            "name": "sumOfHead",
                            "type": "uint32"
                        },
                        {
                            "internalType": "uint64",
                            "name": "sumOfWeight",
                            "type": "uint64"
                        },
                        {
                            "internalType": "uint256[]",
                            "name": "voters",
                            "type": "uint256[]"
                        }
                    ],
                    "internalType": "struct BallotsBox.Case",
                    "name": "",
                    "type": "tuple"
                }
            ],
            "stateMutability": "view",
            "type": "function"
        },
        {
            "inputs": [
                {
                    "internalType": "uint256",
                    "name": "seqOfMotion",
                    "type": "uint256"
                },
                {
                    "internalType": "uint256",
                    "name": "acct",
                    "type": "uint256"
                }
            ],
            "name": "getDelegateOf",
            "outputs": [
                {
                    "internalType": "uint256",
                    "name": "",
                    "type": "uint256"
                }
            ],
            "stateMutability": "view",
            "type": "function"
        },
        {
            "inputs": [],
            "name": "getGeneralCounsel",
            "outputs": [
                {
                    "internalType": "uint40",
                    "name": "",
                    "type": "uint40"
                }
            ],
            "stateMutability": "view",
            "type": "function"
        },
        {
            "inputs": [
                {
                    "internalType": "uint256",
                    "name": "seqOfMotion",
                    "type": "uint256"
                },
                {
                    "internalType": "uint256",
                    "name": "caller",
                    "type": "uint256"
                },
                {
                    "internalType": "contract IBookOfDirectors",
                    "name": "_bod",
                    "type": "address"
                }
            ],
            "name": "getLeavesHeadcountOfDirectors",
            "outputs": [
                {
                    "internalType": "uint32",
                    "name": "head",
                    "type": "uint32"
                }
            ],
            "stateMutability": "view",
            "type": "function"
        },
        {
            "inputs": [
                {
                    "internalType": "uint256",
                    "name": "seqOfMotion",
                    "type": "uint256"
                },
                {
                    "internalType": "uint256",
                    "name": "caller",
                    "type": "uint256"
                },
                {
                    "internalType": "uint256",
                    "name": "baseDate",
                    "type": "uint256"
                },
                {
                    "internalType": "contract IRegisterOfMembers",
                    "name": "_rom",
                    "type": "address"
                }
            ],
            "name": "getLeavesWeightAtDate",
            "outputs": [
                {
                    "components": [
                        {
                            "internalType": "uint64",
                            "name": "weight",
                            "type": "uint64"
                        },
                        {
                            "internalType": "uint32",
                            "name": "emptyHead",
                            "type": "uint32"
                        }
                    ],
                    "internalType": "struct DelegateMap.LeavesInfo",
                    "name": "info",
                    "type": "tuple"
                }
            ],
            "stateMutability": "view",
            "type": "function"
        },
        {
            "inputs": [
                {
                    "internalType": "uint256",
                    "name": "seqOfMotion",
                    "type": "uint256"
                }
            ],
            "name": "getMotion",
            "outputs": [
                {
                    "components": [
                        {
                            "components": [
                                {
                                    "internalType": "uint16",
                                    "name": "typeOfMotion",
                                    "type": "uint16"
                                },
                                {
                                    "internalType": "uint64",
                                    "name": "seqOfMotion",
                                    "type": "uint64"
                                },
                                {
                                    "internalType": "uint16",
                                    "name": "seqOfVR",
                                    "type": "uint16"
                                },
                                {
                                    "internalType": "uint40",
                                    "name": "creator",
                                    "type": "uint40"
                                },
                                {
                                    "internalType": "uint40",
                                    "name": "executor",
                                    "type": "uint40"
                                },
                                {
                                    "internalType": "uint48",
                                    "name": "createDate",
                                    "type": "uint48"
                                },
                                {
                                    "internalType": "uint32",
                                    "name": "data",
                                    "type": "uint32"
                                }
                            ],
                            "internalType": "struct MotionsRepo.Head",
                            "name": "head",
                            "type": "tuple"
                        },
                        {
                            "components": [
                                {
                                    "internalType": "uint40",
                                    "name": "proposer",
                                    "type": "uint40"
                                },
                                {
                                    "internalType": "uint48",
                                    "name": "proposeDate",
                                    "type": "uint48"
                                },
                                {
                                    "internalType": "uint48",
                                    "name": "shareRegDate",
                                    "type": "uint48"
                                },
                                {
                                    "internalType": "uint48",
                                    "name": "voteStartDate",
                                    "type": "uint48"
                                },
                                {
                                    "internalType": "uint48",
                                    "name": "voteEndDate",
                                    "type": "uint48"
                                },
                                {
                                    "internalType": "uint16",
                                    "name": "para",
                                    "type": "uint16"
                                },
                                {
                                    "internalType": "uint8",
                                    "name": "state",
                                    "type": "uint8"
                                }
                            ],
                            "internalType": "struct MotionsRepo.Body",
                            "name": "body",
                            "type": "tuple"
                        },
                        {
                            "components": [
                                {
                                    "internalType": "uint16",
                                    "name": "seqOfRule",
                                    "type": "uint16"
                                },
                                {
                                    "internalType": "uint8",
                                    "name": "qtyOfSubRule",
                                    "type": "uint8"
                                },
                                {
                                    "internalType": "uint8",
                                    "name": "seqOfSubRule",
                                    "type": "uint8"
                                },
                                {
                                    "internalType": "uint16",
                                    "name": "authority",
                                    "type": "uint16"
                                },
                                {
                                    "internalType": "uint16",
                                    "name": "headRatio",
                                    "type": "uint16"
                                },
                                {
                                    "internalType": "uint16",
                                    "name": "amountRatio",
                                    "type": "uint16"
                                },
                                {
                                    "internalType": "bool",
                                    "name": "onlyAttendance",
                                    "type": "bool"
                                },
                                {
                                    "internalType": "bool",
                                    "name": "impliedConsent",
                                    "type": "bool"
                                },
                                {
                                    "internalType": "bool",
                                    "name": "partyAsConsent",
                                    "type": "bool"
                                },
                                {
                                    "internalType": "bool",
                                    "name": "againstShallBuy",
                                    "type": "bool"
                                },
                                {
                                    "internalType": "uint8",
                                    "name": "shaExecDays",
                                    "type": "uint8"
                                },
                                {
                                    "internalType": "uint8",
                                    "name": "shaConfirmDays",
                                    "type": "uint8"
                                },
                                {
                                    "internalType": "uint8",
                                    "name": "reconsiderDays",
                                    "type": "uint8"
                                },
                                {
                                    "internalType": "uint8",
                                    "name": "votePrepareDays",
                                    "type": "uint8"
                                },
                                {
                                    "internalType": "uint8",
                                    "name": "votingDays",
                                    "type": "uint8"
                                },
                                {
                                    "internalType": "uint8",
                                    "name": "execDaysForPutOpt",
                                    "type": "uint8"
                                },
                                {
                                    "internalType": "uint40[2]",
                                    "name": "vetoers",
                                    "type": "uint40[2]"
                                },
                                {
                                    "internalType": "uint16",
                                    "name": "para",
                                    "type": "uint16"
                                }
                            ],
                            "internalType": "struct RulesParser.VotingRule",
                            "name": "votingRule",
                            "type": "tuple"
                        },
                        {
                            "internalType": "uint256",
                            "name": "contents",
                            "type": "uint256"
                        }
                    ],
                    "internalType": "struct MotionsRepo.Motion",
                    "name": "motion",
                    "type": "tuple"
                }
            ],
            "stateMutability": "view",
            "type": "function"
        },
        {
            "inputs": [],
            "name": "getOwner",
            "outputs": [
                {
                    "internalType": "uint40",
                    "name": "",
                    "type": "uint40"
                }
            ],
            "stateMutability": "view",
            "type": "function"
        },
        {
            "inputs": [],
            "name": "getSeqList",
            "outputs": [
                {
                    "internalType": "uint256[]",
                    "name": "",
                    "type": "uint256[]"
                }
            ],
            "stateMutability": "view",
            "type": "function"
        },
        {
            "inputs": [
                {
                    "internalType": "uint256",
                    "name": "seqOfMotion",
                    "type": "uint256"
                },
                {
                    "internalType": "uint256",
                    "name": "acct",
                    "type": "uint256"
                }
            ],
            "name": "getVoterOfDelegateMap",
            "outputs": [
                {
                    "components": [
                        {
                            "internalType": "uint40",
                            "name": "delegate",
                            "type": "uint40"
                        },
                        {
                            "internalType": "uint64",
                            "name": "weight",
                            "type": "uint64"
                        },
                        {
                            "internalType": "uint64",
                            "name": "repWeight",
                            "type": "uint64"
                        },
                        {
                            "internalType": "uint32",
                            "name": "repHead",
                            "type": "uint32"
                        },
                        {
                            "internalType": "uint40[]",
                            "name": "principals",
                            "type": "uint40[]"
                        }
                    ],
                    "internalType": "struct DelegateMap.Voter",
                    "name": "",
                    "type": "tuple"
                }
            ],
            "stateMutability": "view",
            "type": "function"
        },
        {
            "inputs": [
                {
                    "internalType": "bytes32",
                    "name": "role",
                    "type": "bytes32"
                },
                {
                    "internalType": "uint256",
                    "name": "acct",
                    "type": "uint256"
                }
            ],
            "name": "grantRole",
            "outputs": [],
            "stateMutability": "nonpayable",
            "type": "function"
        },
        {
            "inputs": [
                {
                    "internalType": "bytes32",
                    "name": "role",
                    "type": "bytes32"
                },
                {
                    "internalType": "uint256",
                    "name": "acct",
                    "type": "uint256"
                }
            ],
            "name": "hasRole",
            "outputs": [
                {
                    "internalType": "bool",
                    "name": "",
                    "type": "bool"
                }
            ],
            "stateMutability": "view",
            "type": "function"
        },
        {
            "inputs": [
                {
                    "internalType": "uint256",
                    "name": "owner",
                    "type": "uint256"
                },
                {
                    "internalType": "address",
                    "name": "directKeeper",
                    "type": "address"
                },
                {
                    "internalType": "address",
                    "name": "regCenter",
                    "type": "address"
                },
                {
                    "internalType": "address",
                    "name": "generalKeeper",
                    "type": "address"
                }
            ],
            "name": "init",
            "outputs": [],
            "stateMutability": "nonpayable",
            "type": "function"
        },
        {
            "inputs": [
                {
                    "internalType": "uint256",
                    "name": "seqOfMotion",
                    "type": "uint256"
                }
            ],
            "name": "isPassed",
            "outputs": [
                {
                    "internalType": "bool",
                    "name": "",
                    "type": "bool"
                }
            ],
            "stateMutability": "view",
            "type": "function"
        },
        {
            "inputs": [
                {
                    "internalType": "uint256",
                    "name": "seqOfMotion",
                    "type": "uint256"
                }
            ],
            "name": "isProposed",
            "outputs": [
                {
                    "internalType": "bool",
                    "name": "",
                    "type": "bool"
                }
            ],
            "stateMutability": "view",
            "type": "function"
        },
        {
            "inputs": [
                {
                    "internalType": "uint256",
                    "name": "seqOfMotion",
                    "type": "uint256"
                },
                {
                    "internalType": "uint256",
                    "name": "acct",
                    "type": "uint256"
                }
            ],
            "name": "isVoted",
            "outputs": [
                {
                    "internalType": "bool",
                    "name": "",
                    "type": "bool"
                }
            ],
            "stateMutability": "view",
            "type": "function"
        },
        {
            "inputs": [
                {
                    "internalType": "uint256",
                    "name": "seqOfMotion",
                    "type": "uint256"
                },
                {
                    "internalType": "uint256",
                    "name": "acct",
                    "type": "uint256"
                },
                {
                    "internalType": "uint256",
                    "name": "atti",
                    "type": "uint256"
                }
            ],
            "name": "isVotedFor",
            "outputs": [
                {
                    "internalType": "bool",
                    "name": "",
                    "type": "bool"
                }
            ],
            "stateMutability": "view",
            "type": "function"
        },
        {
            "inputs": [],
            "name": "lockContents",
            "outputs": [],
            "stateMutability": "nonpayable",
            "type": "function"
        },
        {
            "inputs": [
                {
                    "internalType": "uint256",
                    "name": "seqOfPos",
                    "type": "uint256"
                },
                {
                    "internalType": "uint256",
                    "name": "seqOfVR",
                    "type": "uint256"
                },
                {
                    "internalType": "uint256",
                    "name": "candidate",
                    "type": "uint256"
                },
                {
                    "internalType": "uint256",
                    "name": "nominator",
                    "type": "uint256"
                }
            ],
            "name": "nominateOfficer",
            "outputs": [
                {
                    "internalType": "uint64",
                    "name": "",
                    "type": "uint64"
                }
            ],
            "stateMutability": "nonpayable",
            "type": "function"
        },
        {
            "inputs": [
                {
                    "internalType": "uint256",
                    "name": "seqOfMotion",
                    "type": "uint256"
                },
                {
                    "internalType": "uint256",
                    "name": "caller",
                    "type": "uint256"
                }
            ],
            "name": "proposeMotionToBoard",
            "outputs": [],
            "stateMutability": "nonpayable",
            "type": "function"
        },
        {
            "inputs": [
                {
                    "internalType": "uint256",
                    "name": "seqOfMotion",
                    "type": "uint256"
                },
                {
                    "internalType": "uint256",
                    "name": "proposer",
                    "type": "uint256"
                }
            ],
            "name": "proposeMotionToGeneralMeeting",
            "outputs": [],
            "stateMutability": "nonpayable",
            "type": "function"
        },
        {
            "inputs": [
                {
                    "internalType": "address",
                    "name": "target",
                    "type": "address"
                }
            ],
            "name": "removeDirectKeeper",
            "outputs": [],
            "stateMutability": "nonpayable",
            "type": "function"
        },
        {
            "inputs": [
                {
                    "internalType": "bytes32",
                    "name": "role",
                    "type": "bytes32"
                }
            ],
            "name": "renounceRole",
            "outputs": [],
            "stateMutability": "nonpayable",
            "type": "function"
        },
        {
            "inputs": [
                {
                    "internalType": "bytes32",
                    "name": "role",
                    "type": "bytes32"
                },
                {
                    "internalType": "uint256",
                    "name": "acct",
                    "type": "uint256"
                }
            ],
            "name": "revokeRole",
            "outputs": [],
            "stateMutability": "nonpayable",
            "type": "function"
        },
        {
            "inputs": [
                {
                    "internalType": "address",
                    "name": "keeper",
                    "type": "address"
                }
            ],
            "name": "setDirectKeeper",
            "outputs": [],
            "stateMutability": "nonpayable",
            "type": "function"
        },
        {
            "inputs": [
                {
                    "internalType": "uint256",
                    "name": "acct",
                    "type": "uint256"
                }
            ],
            "name": "setGeneralCounsel",
            "outputs": [],
            "stateMutability": "nonpayable",
            "type": "function"
        },
        {
            "inputs": [
                {
                    "internalType": "uint256",
                    "name": "acct",
                    "type": "uint256"
                }
            ],
            "name": "setOwner",
            "outputs": [],
            "stateMutability": "nonpayable",
            "type": "function"
        },
        {
            "inputs": [
                {
                    "internalType": "bytes32",
                    "name": "role",
                    "type": "bytes32"
                },
                {
                    "internalType": "uint256",
                    "name": "acct",
                    "type": "uint256"
                }
            ],
            "name": "setRoleAdmin",
            "outputs": [],
            "stateMutability": "nonpayable",
            "type": "function"
        },
        {
            "inputs": [
                {
                    "internalType": "bool",
                    "name": "flag0",
                    "type": "bool"
                },
                {
                    "internalType": "uint256",
                    "name": "seqOfMotion",
                    "type": "uint256"
                },
                {
                    "components": [
                        {
                            "internalType": "uint32",
                            "name": "totalHead",
                            "type": "uint32"
                        },
                        {
                            "internalType": "uint64",
                            "name": "totalWeight",
                            "type": "uint64"
                        },
                        {
                            "internalType": "uint32",
                            "name": "supportHead",
                            "type": "uint32"
                        },
                        {
                            "internalType": "uint64",
                            "name": "supportWeight",
                            "type": "uint64"
                        },
                        {
                            "internalType": "uint16",
                            "name": "attendHeadRatio",
                            "type": "uint16"
                        },
                        {
                            "internalType": "uint16",
                            "name": "attendWeightRatio",
                            "type": "uint16"
                        },
                        {
                            "internalType": "uint16",
                            "name": "para",
                            "type": "uint16"
                        },
                        {
                            "internalType": "uint8",
                            "name": "state",
                            "type": "uint8"
                        },
                        {
                            "internalType": "bool",
                            "name": "unaniConsent",
                            "type": "bool"
                        }
                    ],
                    "internalType": "struct MotionsRepo.VoteCalBase",
                    "name": "base",
                    "type": "tuple"
                }
            ],
            "name": "voteCounting",
            "outputs": [
                {
                    "internalType": "uint8",
                    "name": "result",
                    "type": "uint8"
                }
            ],
            "stateMutability": "nonpayable",
            "type": "function"
        },
        {
            "inputs": [
                {
                    "internalType": "uint256",
                    "name": "seqOfMotion",
                    "type": "uint256"
                }
            ],
            "name": "voteEnded",
            "outputs": [
                {
                    "internalType": "bool",
                    "name": "",
                    "type": "bool"
                }
            ],
            "stateMutability": "view",
            "type": "function"
        },
        {
            "inputs": [
                {
                    "internalType": "uint256",
                    "name": "seqOfMotion",
                    "type": "uint256"
                }
            ],
            "name": "voteStarted",
            "outputs": [
                {
                    "internalType": "bool",
                    "name": "",
                    "type": "bool"
                }
            ],
            "stateMutability": "view",
            "type": "function"
        }
    ],
    "bytecode": "608060405234801561001057600080fd5b50614779806100206000396000f3fe608060405234801561001057600080fd5b506004361061025e5760003560e01c8063893d20e811610146578063c41f49b0116100c3578063ec83613b11610087578063ec83613b14610636578063ed21102314610649578063f045a76914610669578063f04e47ab14610671578063fb03054814610696578063fe1bdff2146106a957600080fd5b8063c41f49b0146105ad578063d9677b0c146105ea578063da8b76bc146105fd578063dc890da914610610578063ea56efc61461062357600080fd5b8063a1e1d6211161010a578063a1e1d62114610540578063ab86a9d914610553578063ad15aad214610566578063b3f05b9714610586578063b43a401d1461059a57600080fd5b8063893d20e8146104ec5780638bb9c5bf146104f45780639371bd1e146105075780639a51cdfc1461051a578063a0d100ef1461052d57600080fd5b806349403183116101df5780635c2753bf116101a35780635c2753bf1461045f5780635d7ad88f1461048057806361df743f146104935780636be8496f146104b35780637e063c5a146104c65780638041494e146104d957600080fd5b806349403183146103d85780634a14beb1146103fb5780634f6413ac1461040e5780635171ebd41461043957806359269f821461044c57600080fd5b806322d49e2c1161022657806322d49e2c14610362578063243fbc211461038a5780632d3eaa401461039f5780633da9a600146103b257806348c01a8b146103c557600080fd5b80630d35875714610263578063103f6edd146102fc578063165dd5ec1461031a57806319d61ad91461033a5780631b6ea9f91461034f575b600080fd5b6102766102713660046132db565b6106bc565b6040516102f39190600060e08201905064ffffffffff835116825260ff602084015116602083015263ffffffff604084015116604083015260608301516001600160401b03808216606085015265ffffffffffff60808601511660808501528060a08601511660a0850152505060c083015160c083015292915050565b60405180910390f35b61030461078a565b60405164ffffffffff90911681526020016102f3565b61032d6103283660046132db565b610816565b6040516102f391906132fd565b61034d6103483660046132db565b6108c2565b005b61034d61035d3660046132db565b610954565b61037561037036600461338a565b61097a565b60405163ffffffff90911681526020016102f3565b610392610a24565b6040516102f391906133fe565b61034d6103ad366004613411565b610aad565b61034d6103c036600461343d565b610ca5565b61034d6103d33660046132db565b610d30565b6103eb6103e636600461343d565b610f99565b60405190151581526020016102f3565b61034d61040936600461343d565b611026565b61042161041c366004613456565b61127b565b6040516001600160401b0390911681526020016102f3565b61034d6104473660046132db565b61133a565b6103eb61045a36600461343d565b611360565b61047261046d3660046136fc565b6113a1565b6040519081526020016102f3565b61034d61048e366004613808565b611555565b6104a66104a13660046132db565b61168a565b6040516102f3919061382c565b61034d6104c1366004613808565b611747565b6103eb6104d43660046132db565b6117f6565b61034d6104e736600461343d565b61188b565b610304611941565b61034d61050236600461343d565b61197c565b6103eb610515366004613411565b6119a1565b6104726105283660046132db565b611a3b565b61034d61053b366004613456565b611ace565b6103eb61054e36600461343d565b611cd4565b6104216105613660046136fc565b611d15565b61057961057436600461343d565b611de9565b6040516102f39190613a8d565b60028054600160f01b900460ff16146103eb565b6103eb6105a836600461343d565b611e7b565b6105c06105bb366004613b34565b611ebc565b6040805182516001600160401b0316815260209283015163ffffffff1692810192909252016102f3565b61034d6105f8366004613456565b611f73565b61042161060b366004613b75565b61216b565b61034d61061e366004613bb0565b6122cf565b6103eb6106313660046132db565b61239e565b61034d6106443660046132db565b6123e6565b6106516126dc565b6040516001600160a01b0390911681526020016102f3565b61034d612762565b61068461067f366004613c88565b6129ac565b60405160ff90911681526020016102f3565b6104216106a4366004613411565b612b1b565b61034d6106b7366004613411565b612bd1565b6040805160e081018252600080825260208201819052818301819052606082018190526080820181905260a0820181905260c08201529051635eeb98eb60e01b8152600480820152602481018490526044810183905273__$48fdb68298ec07f9843b28bfe921898719$__90635eeb98eb9060640160e06040518083038186803b15801561074957600080fd5b505af415801561075d573d6000803e3d6000fd5b505050506040513d601f19601f820116820180604052508101906107819190613dab565b90505b92915050565b60405163e8c0cc1d60e01b81526002600482015260009073__$a374c895e6fa8c448878668e00d93ef99a$__9063e8c0cc1d906024015b60206040518083038186803b1580156107d957600080fd5b505af41580156107ed573d6000803e3d6000fd5b505050506040513d601f19601f820116820180604052508101906108119190613e40565b905090565b6040805160608082018352600080835260208301528183015290516341335f3560e01b8152600480820152602481018490526044810183905273__$48fdb68298ec07f9843b28bfe921898719$__906341335f359060640160006040518083038186803b15801561088657600080fd5b505af415801561089a573d6000803e3d6000fd5b505050506040513d6000823e601f3d908101601f191682016040526107819190810190613eb6565b73__$a374c895e6fa8c448878668e00d93ef99a$__6382daafaa600284846108e8612e72565b6040516001600160e01b031960e087901b16815260048101949094526024840192909252604483015264ffffffffff16606482015260840160006040518083038186803b15801561093857600080fd5b505af415801561094c573d6000803e3d6000fd5b505050505050565b73__$a374c895e6fa8c448878668e00d93ef99a$__636320d75e600284846108e8612e72565b604051630180521b60e11b815260048082015260248101849052604481018390526001600160a01b038216606482015260009073__$48fdb68298ec07f9843b28bfe921898719$__90630300a4369060840160206040518083038186803b1580156109e457600080fd5b505af41580156109f8573d6000803e3d6000fd5b505050506040513d601f19601f82011682018060405250810190610a1c9190613f5e565b949350505050565b604051631cfd0e3f60e01b815260048082015260609073__$48fdb68298ec07f9843b28bfe921898719$__90631cfd0e3f9060240160006040518083038186803b158015610a7157600080fd5b505af4158015610a85573d6000803e3d6000fd5b505050506040513d6000823e601f3d908101601f191682016040526108119190810190613f7b565b604051633b11adbf60e21b81526002600482015233602482015273__$a374c895e6fa8c448878668e00d93ef99a$__9063ec46b6fc9060440160206040518083038186803b158015610afe57600080fd5b505af4158015610b12573d6000803e3d6000fd5b505050506040513d601f19601f82011682018060405250810190610b369190613fba565b80610bb757506001546040516335d2155560e11b81523360048201526001600160a01b0390911690636ba42aaa9060240160206040518083038186803b158015610b7f57600080fd5b505afa158015610b93573d6000803e3d6000fd5b505050506040513d601f19601f82011682018060405250810190610bb79190613fba565b610bfc5760405162461bcd60e51b815260206004820152601160248201527020a19737b59d103737ba1025b2b2b832b960791b60448201526064015b60405180910390fd5b604051630aa0aacd60e11b815260048082015260248101849052604481018390526064810182905273__$48fdb68298ec07f9843b28bfe921898719$__90631541559a9060840160006040518083038186803b158015610c5b57600080fd5b505af4158015610c6f573d6000803e3d6000fd5b50506040518392508591507fae42f3be1ee887ec3af249092d8ce9d9a13ac3c2a8e40639341a77ac2e012de390600090a3505050565b73__$a374c895e6fa8c448878668e00d93ef99a$__63c51b295f600283610cca612e72565b6040516001600160e01b031960e086901b1681526004810193909352602483019190915264ffffffffff16604482015260640160006040518083038186803b158015610d1557600080fd5b505af4158015610d29573d6000803e3d6000fd5b5050505050565b604051633b11adbf60e21b81526002600482015233602482015273__$a374c895e6fa8c448878668e00d93ef99a$__9063ec46b6fc9060440160206040518083038186803b158015610d8157600080fd5b505af4158015610d95573d6000803e3d6000fd5b505050506040513d601f19601f82011682018060405250810190610db99190613fba565b610dd55760405162461bcd60e51b8152600401610bf390613fd7565b600154604080516314c35b8560e31b8152905173__$48fdb68298ec07f9843b28bfe921898719$__9263bf9c528f9260049287926001600160a01b03169163a61adc2891818601916020919081900387018186803b158015610e3657600080fd5b505afa158015610e4a573d6000803e3d6000fd5b505050506040513d601f19601f82011682018060405250810190610e6e919061401d565b600160009054906101000a90046001600160a01b03166001600160a01b0316639262826d6040518163ffffffff1660e01b815260040160206040518083038186803b158015610ebc57600080fd5b505afa158015610ed0573d6000803e3d6000fd5b505050506040513d601f19601f82011682018060405250810190610ef4919061401d565b6040516001600160e01b031960e087901b168152600481019490945260248401929092526001600160a01b0390811660448401521660648201526084810184905260a40160006040518083038186803b158015610f5057600080fd5b505af4158015610f64573d6000803e3d6000fd5b50506040518392508491507f3d2af26c55ce885099e5c58435ae4f943566dfc69236ab845a1c4dbd824a7b9c90600090a35050565b604051631d62ca6b60e11b81526004808201526024810182905260009073__$48fdb68298ec07f9843b28bfe921898719$__90633ac594d6906044015b60206040518083038186803b158015610fee57600080fd5b505af4158015611002573d6000803e3d6000fd5b505050506040513d601f19601f820116820180604052508101906107849190613fba565b604051633b11adbf60e21b81526002600482015233602482015273__$a374c895e6fa8c448878668e00d93ef99a$__9063ec46b6fc9060440160206040518083038186803b15801561107757600080fd5b505af415801561108b573d6000803e3d6000fd5b505050506040513d601f19601f820116820180604052508101906110af9190613fba565b80611154575073__$a374c895e6fa8c448878668e00d93ef99a$__63fe27108660026110d9612e72565b6040516001600160e01b031960e085901b168152600481019290925264ffffffffff16602482015260440160206040518083038186803b15801561111c57600080fd5b505af4158015611130573d6000803e3d6000fd5b505050506040513d601f19601f820116820180604052508101906111549190613fba565b6111bf5760405162461bcd60e51b815260206004820152603660248201527f41432e6f776e65724f72446972656374426f6f6b65657065723a206e6569746860448201527532b91037bbb732b9103737b9103137b7b5b2b2b832b960511b6064820152608401610bf3565b73__$a374c895e6fa8c448878668e00d93ef99a$__6313a187d26002836111e4612e72565b6040516001600160e01b031960e086901b1681526004810193909352602483019190915264ffffffffff16604482015233606482015260840160006040518083038186803b15801561123557600080fd5b505af4158015611249573d6000803e3d6000fd5b50506040518392507ff2735f34b69be1e6342dea95f9162f84d0db925fab655ca9f1f312ac8cbfc99d9150600090a250565b604051633b11adbf60e21b81526002600482015233602482015260009073__$a374c895e6fa8c448878668e00d93ef99a$__9063ec46b6fc9060440160206040518083038186803b1580156112cf57600080fd5b505af41580156112e3573d6000803e3d6000fd5b505050506040513d601f19601f820116820180604052508101906113079190613fba565b6113235760405162461bcd60e51b8152600401610bf390613fd7565b611331600185848689612ecc565b95945050505050565b73__$a374c895e6fa8c448878668e00d93ef99a$__63ee98b313600284846108e8612e72565b604051633e9ace7f60e11b81526004808201526024810182905260009073__$48fdb68298ec07f9843b28bfe921898719$__90637d359cfe90604401610fd6565b604051633b11adbf60e21b81526002600482015233602482015260009073__$a374c895e6fa8c448878668e00d93ef99a$__9063ec46b6fc9060440160206040518083038186803b1580156113f557600080fd5b505af4158015611409573d6000803e3d6000fd5b505050506040513d601f19601f8201168201806040525081019061142d9190613fba565b6114495760405162461bcd60e51b8152600401610bf390613fd7565b604051630363eeeb60e01b81526004808201526024810184905260009073__$48fdb68298ec07f9843b28bfe921898719$__90630363eeeb906044016104406040518083038186803b15801561149e57600080fd5b505af41580156114b2573d6000803e3d6000fd5b505050506040513d601f19601f820116820180604052508101906114d691906142b4565b80515190915061ffff1660041461152f5760405162461bcd60e51b815260206004820152601960248201527f4d4d2e45413a2077726f6e6720747970654f664d6f74696f6e000000000000006044820152606401610bf3565b61153c898989898961305c565b9150611549848385610aad565b50979650505050505050565b604051633b11adbf60e21b81526002600482015233602482015273__$a374c895e6fa8c448878668e00d93ef99a$__9063ec46b6fc9060440160206040518083038186803b1580156115a657600080fd5b505af41580156115ba573d6000803e3d6000fd5b505050506040513d601f19601f820116820180604052508101906115de9190613fba565b6115fa5760405162461bcd60e51b8152600401610bf390613fd7565b604051636be8496f60e01b81523360048201526001600160a01b03821690636be8496f90602401600060405180830381600087803b15801561163b57600080fd5b505af115801561164f573d6000803e3d6000fd5b50506040516001600160a01b03841692507f64dd6e84044f0067086012335dcfab3188db6615b5cc7debf18c9a621ebd5d919150600090a250565b6040805160a081018252600080825260208201819052818301819052606080830191909152608082015290516322576ef960e11b8152600480820152602481018490526044810183905273__$48fdb68298ec07f9843b28bfe921898719$__906344aeddf29060640160006040518083038186803b15801561170b57600080fd5b505af415801561171f573d6000803e3d6000fd5b505050506040513d6000823e601f3d908101601f1916820160405261078191908101906143a5565b604051630f07232560e01b8152600260048201526001600160a01b038216602482015233604482015273__$a374c895e6fa8c448878668e00d93ef99a$__90630f0723259060640160006040518083038186803b1580156117a757600080fd5b505af41580156117bb573d6000803e3d6000fd5b50506040516001600160a01b03841692507fe435cbeab64e4eae6497b9d8289704bd709d624a80704ef3ca9af777534bc6ec9150600090a250565b604051632a3be56b60e21b815260026004820152602481018390526044810182905260009073__$a374c895e6fa8c448878668e00d93ef99a$__9063a8ef95ac906064015b60206040518083038186803b15801561185357600080fd5b505af4158015611867573d6000803e3d6000fd5b505050506040513d601f19601f820116820180604052508101906107819190613fba565b73__$a374c895e6fa8c448878668e00d93ef99a$__639b48160c6002836118b0612e72565b6040516001600160e01b031960e086901b1681526004810193909352602483019190915264ffffffffff16604482015260640160006040518083038186803b1580156118fb57600080fd5b505af415801561190f573d6000803e3d6000fd5b50506040518392507f8b6f40f36b4ae8cc5f55e895036457c43da4ab1f80f58c46f5ff0d72a650033b9150600090a250565b60405163987ad15360e01b81526002600482015260009073__$a374c895e6fa8c448878668e00d93ef99a$__9063987ad153906024016107c1565b73__$a374c895e6fa8c448878668e00d93ef99a$__63cc0d511b600283610cca612e72565b6040516305f7f47f60e51b815260048082015260248101849052604481018390526064810182905260009073__$48fdb68298ec07f9843b28bfe921898719$__9063befe8fe09060840160206040518083038186803b158015611a0357600080fd5b505af4158015611a17573d6000803e3d6000fd5b505050506040513d601f19601f82011682018060405250810190610a1c9190613fba565b6040516378a3d56560e11b8152600480820152602481018390526044810182905260009073__$48fdb68298ec07f9843b28bfe921898719$__9063f147aaca9060640160206040518083038186803b158015611a9657600080fd5b505af4158015611aaa573d6000803e3d6000fd5b505050506040513d601f19601f8201168201806040525081019061078191906144b8565b604051633b11adbf60e21b81526002600482015233602482015273__$a374c895e6fa8c448878668e00d93ef99a$__9063ec46b6fc9060440160206040518083038186803b158015611b1f57600080fd5b505af4158015611b33573d6000803e3d6000fd5b505050506040513d601f19601f82011682018060405250810190611b579190613fba565b611b735760405162461bcd60e51b8152600401610bf390613fd7565b600473__$48fdb68298ec07f9843b28bfe921898719$__63101bca47909186848787600160009054906101000a90046001600160a01b03166001600160a01b03166333fb96ee6040518163ffffffff1660e01b815260040160206040518083038186803b158015611be357600080fd5b505afa158015611bf7573d6000803e3d6000fd5b505050506040513d601f19601f82011682018060405250810190611c1b919061401d565b6040516001600160e01b031960e089901b168152600481019690965260248601949094526044850192909252606484015260848301526001600160a01b031660a482015260c40160006040518083038186803b158015611c7a57600080fd5b505af4158015611c8e573d6000803e3d6000fd5b505050508281857f30261d848cf8e6ce809b7c0881ef706076b3ad592520b89d6f929408b9fa80d885604051611cc691815260200190565b60405180910390a450505050565b60405163cc526e6b60e01b81526004808201526024810182905260009073__$48fdb68298ec07f9843b28bfe921898719$__9063cc526e6b90604401610fd6565b604051633b11adbf60e21b81526002600482015233602482015260009073__$a374c895e6fa8c448878668e00d93ef99a$__9063ec46b6fc9060440160206040518083038186803b158015611d6957600080fd5b505af4158015611d7d573d6000803e3d6000fd5b505050506040513d601f19601f82011682018060405250810190611da19190613fba565b611dbd5760405162461bcd60e51b8152600401610bf390613fd7565b6000611dcc898989898961305c565b9050611ddc60048a858785612ecc565b9998505050505050505050565b611df1613187565b604051630363eeeb60e01b81526004808201526024810183905273__$48fdb68298ec07f9843b28bfe921898719$__90630363eeeb906044016104406040518083038186803b158015611e4357600080fd5b505af4158015611e57573d6000803e3d6000fd5b505050506040513d601f19601f8201168201806040525081019061078491906142b4565b6040516338d1980760e21b81526004808201526024810182905260009073__$48fdb68298ec07f9843b28bfe921898719$__9063e346601c90604401610fd6565b6040805180820182526000808252602082015290516307621e5360e01b81526004808201526024810186905260448101859052606481018490526001600160a01b038316608482015273__$48fdb68298ec07f9843b28bfe921898719$__906307621e539060a401604080518083038186803b158015611f3b57600080fd5b505af4158015611f4f573d6000803e3d6000fd5b505050506040513d601f19601f8201168201806040525081019061133191906144d1565b604051633b11adbf60e21b81526002600482015233602482015273__$a374c895e6fa8c448878668e00d93ef99a$__9063ec46b6fc9060440160206040518083038186803b158015611fc457600080fd5b505af4158015611fd8573d6000803e3d6000fd5b505050506040513d601f19601f82011682018060405250810190611ffc9190613fba565b6120185760405162461bcd60e51b8152600401610bf390613fd7565b600473__$48fdb68298ec07f9843b28bfe921898719$__63bf2abd50909186848787600160009054906101000a90046001600160a01b03166001600160a01b0316639262826d6040518163ffffffff1660e01b815260040160206040518083038186803b15801561208857600080fd5b505afa15801561209c573d6000803e3d6000fd5b505050506040513d601f19601f820116820180604052508101906120c0919061401d565b6040516001600160e01b031960e089901b168152600481019690965260248601949094526044850192909252606484015260848301526001600160a01b031660a482015260c40160006040518083038186803b15801561211f57600080fd5b505af4158015612133573d6000803e3d6000fd5b505050508281857fe3a6e11aafb69b98aed10406bfbda036914bbe977ca10676d99665efa0d9af4885604051611cc691815260200190565b604051633b11adbf60e21b81526002600482015233602482015260009073__$a374c895e6fa8c448878668e00d93ef99a$__9063ec46b6fc9060440160206040518083038186803b1580156121bf57600080fd5b505af41580156121d3573d6000803e3d6000fd5b505050506040513d601f19601f820116820180604052508101906121f79190613fba565b8061227857506001546040516335d2155560e11b81523360048201526001600160a01b0390911690636ba42aaa9060240160206040518083038186803b15801561224057600080fd5b505afa158015612254573d6000803e3d6000fd5b505050506040513d601f19601f820116820180604052508101906122789190613fba565b6122b85760405162461bcd60e51b815260206004820152601160248201527020a19737b59d103737ba1025b2b2b832b960791b6044820152606401610bf3565b61133160038584866001600160a01b038a16612ecc565b604051636cdd0edf60e11b815260026004820152602481018590526001600160a01b038416604482015273__$a374c895e6fa8c448878668e00d93ef99a$__9063d9ba1dbe9060640160006040518083038186803b15801561233057600080fd5b505af4158015612344573d6000803e3d6000fd5b5050505061235182613099565b61235a8161310c565b6040516001600160a01b038381168252808316919085169086907f3abb2418c66fe32ba9c883030a75ce583971d9af9192b9b74e44e67c5e6c8c1f90602001611cc6565b60405163b34299c960e01b8152600480820152602481018390526044810182905260009073__$48fdb68298ec07f9843b28bfe921898719$__9063b34299c99060640161183b565b604051633b11adbf60e21b81526002600482015233602482015273__$a374c895e6fa8c448878668e00d93ef99a$__9063ec46b6fc9060440160206040518083038186803b15801561243757600080fd5b505af415801561244b573d6000803e3d6000fd5b505050506040513d601f19601f8201168201806040525081019061246f9190613fba565b61248b5760405162461bcd60e51b8152600401610bf390613fd7565b600154604080516314c35b8560e31b8152905173__$48fdb68298ec07f9843b28bfe921898719$__9263e5493ad69260049287926001600160a01b03169163a61adc2891818601916020919081900387018186803b1580156124ec57600080fd5b505afa158015612500573d6000803e3d6000fd5b505050506040513d601f19601f82011682018060405250810190612524919061401d565b600160009054906101000a90046001600160a01b03166001600160a01b03166333fb96ee6040518163ffffffff1660e01b815260040160206040518083038186803b15801561257257600080fd5b505afa158015612586573d6000803e3d6000fd5b505050506040513d601f19601f820116820180604052508101906125aa919061401d565b600160009054906101000a90046001600160a01b03166001600160a01b0316639262826d6040518163ffffffff1660e01b815260040160206040518083038186803b1580156125f857600080fd5b505afa15801561260c573d6000803e3d6000fd5b505050506040513d601f19601f82011682018060405250810190612630919061401d565b6040516001600160e01b031960e088901b168152600481019590955260248501939093526001600160a01b0391821660448501528116606484015216608482015260a4810184905260c40160006040518083038186803b15801561269357600080fd5b505af41580156126a7573d6000803e3d6000fd5b50506040518392508491507fca7b9ebcec0c47f48df2212822ec599138f81b1824e05efae9d69ad494c4fd9790600090a35050565b604051633c3e56c160e11b81526002600482015260009073__$a374c895e6fa8c448878668e00d93ef99a$__9063787cad829060240160206040518083038186803b15801561272a57600080fd5b505af415801561273e573d6000803e3d6000fd5b505050506040513d601f19601f82011682018060405250810190610811919061401d565b600254600160f01b900460ff166001146127be5760405162461bcd60e51b815260206004820152601760248201527f41432e4c433a20446f632069732066696e616c697a65640000000000000000006044820152606401610bf3565b73__$a374c895e6fa8c448878668e00d93ef99a$__63c51b295f6002684174746f726e65797360b81b6127ef612e72565b6040516001600160e01b031960e086901b1681526004810193909352602483019190915264ffffffffff16604482015260640160006040518083038186803b15801561283a57600080fd5b505af415801561284e573d6000803e3d6000fd5b50505050600273__$a374c895e6fa8c448878668e00d93ef99a$__6313a187d29091600061287a612e72565b6040516001600160e01b031960e086901b1681526004810193909352602483019190915264ffffffffff16604482015233606482015260840160006040518083038186803b1580156128cb57600080fd5b505af41580156128df573d6000803e3d6000fd5b50505050600273__$a374c895e6fa8c448878668e00d93ef99a$__639b48160c9091600061290b612e72565b6040516001600160e01b031960e086901b1681526004810193909352602483019190915264ffffffffff16604482015260640160006040518083038186803b15801561295657600080fd5b505af415801561296a573d6000803e3d6000fd5b50506002805460ff60f01b1916600160f11b17905550506040517f35012b512309c322acf68632cd6cb702ff0e1d776fbe9394e38ffc13b434fe7590600090a1565b604051633b11adbf60e21b81526002600482015233602482015260009073__$a374c895e6fa8c448878668e00d93ef99a$__9063ec46b6fc9060440160206040518083038186803b158015612a0057600080fd5b505af4158015612a14573d6000803e3d6000fd5b505050506040513d601f19601f82011682018060405250810190612a389190613fba565b612a545760405162461bcd60e51b8152600401610bf390613fd7565b60405163d2e9901f60e01b815273__$48fdb68298ec07f9843b28bfe921898719$__9063d2e9901f90612a91906004908890889088908401614512565b60206040518083038186803b158015612aa957600080fd5b505af4158015612abd573d6000803e3d6000fd5b505050506040513d601f19601f82011682018060405250810190612ae191906145d5565b90508060ff16837f09dabc8247f652d3170a3738595d35365582b55eebeee44e1059d2981852648360405160405180910390a39392505050565b604051633b11adbf60e21b81526002600482015233602482015260009073__$a374c895e6fa8c448878668e00d93ef99a$__9063ec46b6fc9060440160206040518083038186803b158015612b6f57600080fd5b505af4158015612b83573d6000803e3d6000fd5b505050506040513d601f19601f82011682018060405250810190612ba79190613fba565b612bc35760405162461bcd60e51b8152600401610bf390613fd7565b610a1c600284848088612ecc565b604051633b11adbf60e21b81526002600482015233602482015273__$a374c895e6fa8c448878668e00d93ef99a$__9063ec46b6fc9060440160206040518083038186803b158015612c2257600080fd5b505af4158015612c36573d6000803e3d6000fd5b505050506040513d601f19601f82011682018060405250810190612c5a9190613fba565b612c765760405162461bcd60e51b8152600401610bf390613fd7565b600473__$48fdb68298ec07f9843b28bfe921898719$__63052075289091858585600160009054906101000a90046001600160a01b03166001600160a01b03166333fb96ee6040518163ffffffff1660e01b815260040160206040518083038186803b158015612ce557600080fd5b505afa158015612cf9573d6000803e3d6000fd5b505050506040513d601f19601f82011682018060405250810190612d1d919061401d565b600160009054906101000a90046001600160a01b03166001600160a01b0316639262826d6040518163ffffffff1660e01b815260040160206040518083038186803b158015612d6b57600080fd5b505afa158015612d7f573d6000803e3d6000fd5b505050506040513d601f19601f82011682018060405250810190612da3919061401d565b6040516001600160e01b031960e089901b16815260048101969096526024860194909452604485019290925260648401526001600160a01b0390811660848401521660a482015260c40160206040518083038186803b158015612e0557600080fd5b505af4158015612e19573d6000803e3d6000fd5b505050506040513d601f19601f82011682018060405250810190612e3d9190613fba565b508082847ffb530b01fe8da7c67ca83c49ce04d6ca6adbb57fb2b332097e62c6fe6cc6859b60405160405180910390a4505050565b60008054604051636ae3b70d60e11b81523360048201526001600160a01b039091169063d5c76e1a90602401602060405180830381600087803b158015612eb857600080fd5b505af11580156107ed573d6000803e3d6000fd5b6040805160e08101825260ff8716815260006020820181905261ffff87168284015264ffffffffff80871660608401528516608083015260a0820181905260c08201819052915163072895eb60e51b815273__$48fdb68298ec07f9843b28bfe921898719$__9063e512bd6090612f4b906004908590889083016145f2565b60e06040518083038186803b158015612f6357600080fd5b505af4158015612f77573d6000803e3d6000fd5b505050506040513d601f19601f82011682018060405250810190612f9b9190614616565b90508273__$48fdb68298ec07f9843b28bfe921898719$__63f138788e836040518263ffffffff1660e01b8152600401612fd59190614632565b60206040518083038186803b158015612fed57600080fd5b505af4158015613001573d6000803e3d6000fd5b505050506040513d601f19601f8201168201806040525081019061302591906144b8565b6040517f3ac733a5e01b133fe59ace4c20e40ab1916d571ff364ec4819dc2951be83642e90600090a3602001519695505050505050565b60008585858585604051602001613077959493929190614640565b60408051601f1981840301815291905280516020909101209695505050505050565b6000546001600160a01b0316156130ea5760405162461bcd60e51b815260206004820152601560248201527430b63932b0b23c9039b2ba103932b3a1b2b73a32b960591b6044820152606401610bf3565b600080546001600160a01b0319166001600160a01b0392909216919091179055565b6001546001600160a01b0316156131655760405162461bcd60e51b815260206004820152601960248201527f616c7265616479207365742067656e6572616c4b6565706572000000000000006044820152606401610bf3565b600180546001600160a01b0319166001600160a01b0392909216919091179055565b60408051610160810190915260006080820181815260a0830182905260c0830182905260e0830182905261010083018290526101208301829052610140830191909152819081526040805160e08101825260008082526020828101829052928201819052606082018190526080820181905260a0820181905260c08201529101908152602001613215613222565b8152602001600081525090565b6040805161024081018252600080825260208201819052918101829052606081018290526080810182905260a0810182905260c0810182905260e08101829052610100810182905261012081018290526101408101829052610160810182905261018081018290526101a081018290526101c081018290526101e081019190915261020081016132b06132bd565b8152600060209091015290565b60405180604001604052806002906020820280368337509192915050565b600080604083850312156132ee57600080fd5b50508035926020909101359150565b600060208083526080830163ffffffff855116828501526001600160401b0382860151166040850152604085015160608086015281815180845260a0870191508483019350600092505b808310156133675783518252928401926001929092019190840190613347565b509695505050505050565b6001600160a01b038116811461338757600080fd5b50565b60008060006060848603121561339f57600080fd5b833592506020840135915060408401356133b881613372565b809150509250925092565b600081518084526020808501945080840160005b838110156133f3578151875295820195908201906001016133d7565b509495945050505050565b60208152600061078160208301846133c3565b60008060006060848603121561342657600080fd5b505081359360208301359350604090920135919050565b60006020828403121561344f57600080fd5b5035919050565b6000806000806080858703121561346c57600080fd5b5050823594602084013594506040840135936060013592509050565b634e487b7160e01b600052604160045260246000fd5b60405161012081016001600160401b03811182821017156134c1576134c1613488565b60405290565b60405160e081016001600160401b03811182821017156134c1576134c1613488565b604080519081016001600160401b03811182821017156134c1576134c1613488565b60405161024081016001600160401b03811182821017156134c1576134c1613488565b604051608081016001600160401b03811182821017156134c1576134c1613488565b60405160a081016001600160401b03811182821017156134c1576134c1613488565b604051601f8201601f191681016001600160401b038111828210171561359a5761359a613488565b604052919050565b60006001600160401b038211156135bb576135bb613488565b5060051b60200190565b600082601f8301126135d657600080fd5b813560206135eb6135e6836135a2565b613572565b82815260059290921b8401810191818101908684111561360a57600080fd5b8286015b84811015613367578035835291830191830161360e565b6000601f838184011261363757600080fd5b823560206136476135e6836135a2565b82815260059290921b8501810191818101908784111561366657600080fd5b8287015b848110156115495780356001600160401b038082111561368a5760008081fd5b818a0191508a603f83011261369f5760008081fd5b858201356040828211156136b5576136b5613488565b6136c6828b01601f19168901613572565b92508183528c818386010111156136dd5760008081fd5b818185018985013750600090820187015284525091830191830161366a565b600080600080600080600060e0888a03121561371757600080fd5b873596506020808901356001600160401b038082111561373657600080fd5b818b0191508b601f83011261374a57600080fd5b81356137586135e6826135a2565b81815260059190911b8301840190848101908e83111561377757600080fd5b938501935b8285101561379e57843561378f81613372565b8252938501939085019061377c565b9a50505060408b01359250808311156137b657600080fd5b6137c28c848d016135c5565b975060608b01359250808311156137d857600080fd5b50506137e68a828b01613625565b979a969950949760808101359660a0820135965060c090910135945092505050565b60006020828403121561381a57600080fd5b813561382581613372565b9392505050565b6000602080835260c0830164ffffffffff8086511683860152828601516001600160401b038082166040880152806040890151166060880152505063ffffffff6060870151166080860152608086015160a08087015282815180855260e0880191508583019450600092505b8083101561154957845184168252938501936001929092019190850190613898565b61ffff8082511683526001600160401b03602083015116602084015280604083015116604084015250606081015164ffffffffff8082166060850152806080840151166080850152505065ffffffffffff60a08201511660a083015263ffffffff60c08201511660c08301525050565b8060005b600281101561395457815164ffffffffff1684526020938401939091019060010161392e565b50505050565b805161ffff1682526020810151613976602084018260ff169052565b50604081015161398b604084018260ff169052565b5060608101516139a1606084018261ffff169052565b5060808101516139b7608084018261ffff169052565b5060a08101516139cd60a084018261ffff169052565b5060c08101516139e160c084018215159052565b5060e08101516139f560e084018215159052565b5061010081810151151590830152610120808201511515908301526101408082015160ff9081169184019190915261016080830151821690840152610180808301518216908401526101a0808301518216908401526101c0808301518216908401526101e0808301519091169083015261020080820151613a788285018261392a565b5050610220015161ffff166102409190910152565b600061044082019050613aa18284516138ba565b602083810151805164ffffffffff1660e08501529081015165ffffffffffff908116610100850152604082015181166101208501526060820151811661014085015260808201511661016084015260a081015161ffff81166101808501525060c0015160ff81166101a0840152506040830151613b226101c084018261395a565b50606083015161042083015292915050565b60008060008060808587031215613b4a57600080fd5b8435935060208501359250604085013591506060850135613b6a81613372565b939692955090935050565b60008060008060808587031215613b8b57600080fd5b8435613b9681613372565b966020860135965060408601359560600135945092505050565b60008060008060808587031215613bc657600080fd5b843593506020850135613bd881613372565b92506040850135613be881613372565b91506060850135613b6a81613372565b801515811461338757600080fd5b8035613c1181613bf8565b919050565b63ffffffff8116811461338757600080fd5b8035613c1181613c16565b6001600160401b038116811461338757600080fd5b8035613c1181613c33565b61ffff8116811461338757600080fd5b8035613c1181613c53565b60ff8116811461338757600080fd5b8035613c1181613c6e565b6000806000838503610160811215613c9f57600080fd5b8435613caa81613bf8565b935060208501359250610120603f198201811315613cc757600080fd5b613ccf61349e565b9150613cdd60408701613c28565b8252613ceb60608701613c48565b6020830152613cfc60808701613c28565b6040830152613d0d60a08701613c48565b6060830152613d1e60c08701613c63565b6080830152613d2f60e08701613c63565b60a0830152610100613d42818801613c63565b60c0840152613d52828801613c7d565b60e0840152613d646101408801613c06565b818401525050809150509250925092565b805164ffffffffff81168114613c1157600080fd5b8051613c1181613c6e565b805165ffffffffffff81168114613c1157600080fd5b600060e08284031215613dbd57600080fd5b613dc56134c7565b613dce83613d75565b81526020830151613dde81613c6e565b60208201526040830151613df181613c16565b60408201526060830151613e0481613c33565b6060820152613e1560808401613d95565b608082015260a0830151613e2881613c33565b60a082015260c0928301519281019290925250919050565b600060208284031215613e5257600080fd5b61078182613d75565b600082601f830112613e6c57600080fd5b81516020613e7c6135e6836135a2565b82815260059290921b84018101918181019086841115613e9b57600080fd5b8286015b848110156133675780518352918301918301613e9f565b600060208284031215613ec857600080fd5b81516001600160401b0380821115613edf57600080fd5b9083019060608286031215613ef357600080fd5b604051606081018181108382111715613f0e57613f0e613488565b6040528251613f1c81613c16565b81526020830151613f2c81613c33565b6020820152604083015182811115613f4357600080fd5b613f4f87828601613e5b565b60408301525095945050505050565b600060208284031215613f7057600080fd5b815161382581613c16565b600060208284031215613f8d57600080fd5b81516001600160401b03811115613fa357600080fd5b610a1c84828501613e5b565b8051613c1181613bf8565b600060208284031215613fcc57600080fd5b815161382581613bf8565b60208082526026908201527f41432e6f6e6c794469726563744b65657065723a206e6f74206469726563742060408201526535b2b2b832b960d11b606082015260800190565b60006020828403121561402f57600080fd5b815161382581613372565b8051613c1181613c53565b600060e0828403121561405757600080fd5b60405160e081018181106001600160401b038211171561407957614079613488565b8060405250809150825161408c81613c53565b8152602083015161409c81613c33565b602082015260408301516140af81613c53565b60408201526140c060608401613d75565b60608201526140d160808401613d75565b60808201526140e260a08401613d95565b60a082015260c08301516140f581613c16565b60c0919091015292915050565b600082601f83011261411357600080fd5b61411b6134e9565b80604084018581111561412d57600080fd5b845b8181101561414e5761414081613d75565b84526020938401930161412f565b509095945050505050565b6000610260828403121561416c57600080fd5b61417461350b565b905061417f8261403a565b815261418d60208301613d8a565b602082015261419e60408301613d8a565b60408201526141af6060830161403a565b60608201526141c06080830161403a565b60808201526141d160a0830161403a565b60a08201526141e260c08301613faf565b60c08201526141f360e08301613faf565b60e0820152610100614206818401613faf565b90820152610120614218838201613faf565b9082015261014061422a838201613d8a565b9082015261016061423c838201613d8a565b9082015261018061424e838201613d8a565b908201526101a0614260838201613d8a565b908201526101c0614272838201613d8a565b908201526101e0614284838201613d8a565b9082015261020061429784848301614102565b908201526142a8610240830161403a565b61022082015292915050565b60008183036104408112156142c857600080fd5b6142d061352e565b6142da8585614045565b815260e060df19830112156142ee57600080fd5b6142f66134c7565b915061430460e08501613d75565b82526143136101008501613d95565b60208301526143256101208501613d95565b60408301526143376101408501613d95565b60608301526143496101608501613d95565b608083015261018084015161435d81613c53565b60a08301526101a084015161437181613c6e565b60c08301526020810182905261438b856101c08601614159565b604082015261042093909301516060840152509092915050565b600060208083850312156143b857600080fd5b82516001600160401b03808211156143cf57600080fd5b9084019060a082870312156143e357600080fd5b6143eb613550565b6143f483613d75565b81528383015161440381613c33565b81850152604083015161441581613c33565b6040820152606083015161442881613c16565b606082015260808301518281111561443f57600080fd5b80840193505086601f84011261445457600080fd5b825191506144646135e6836135a2565b82815260059290921b8301840191848101908884111561448357600080fd5b938501935b838510156144a85761449985613d75565b82529385019390850190614488565b6080830152509695505050505050565b6000602082840312156144ca57600080fd5b5051919050565b6000604082840312156144e357600080fd5b6144eb6134e9565b82516144f681613c33565b8152602083015161450681613c16565b60208201529392505050565b600061018082019050858252841515602083015283604083015263ffffffff83511660608301526001600160401b036020840151166080830152604083015161456360a084018263ffffffff169052565b5060608301516001600160401b03811660c084015250608083015161ffff811660e08401525060a08301516101006145a08185018361ffff169052565b60c085015161ffff1661012085015260e085015160ff1661014085015290930151151561016090920191909152949350505050565b6000602082840312156145e757600080fd5b815161382581613c6e565b838152610120810161460760208301856138ba565b82610100830152949350505050565b600060e0828403121561462857600080fd5b6107818383614045565b60e0810161078482846138ba565b600060a08201878352602060a08185015281885180845260c086019150828a01935060005b8181101561468a5784516001600160a01b031683529383019391830191600101614665565b5050848103604086015261469e81896133c3565b92505083820360608501528186518084528284019150828160051b85010183890160005b8381101561472957601f19808885030186528251805180865260005b818110156146f9578281018a01518782018b015289016146de565b8181111561470a5760008a83890101525b5096880196601f019091169390930186019250908501906001016146c2565b50508095505050505050826080830152969550505050505056fea26469706673582212208c9cf486ad9871f9bf8a3999c48be451dbb2eceb6f0f35f3bd999dbc9935d6fb64736f6c63430008080033",
    "sourcePath": "/Users/kaptain/github.com/comboox/comboox/contracts/common/components/MeetingMinutes.sol",
    "compiler": {
        "name": "solc",
        "version": "0.8.8+commit.dddeac2f"
    },
    "functionHashes": {
        "abandonRole(bytes32)": "3da9a600",
        "castVoteInBoardMeeting(uint256,uint256,bytes32,uint256)": "d9677b0c",
        "castVoteInGeneralMeeting(uint256,uint256,bytes32,uint256)": "a0d100ef",
        "createAction(uint256,address[],uint256[],bytes[],bytes32,uint256,uint256)": "ab86a9d9",
        "createMotionToApproveDoc(address,uint256,uint256,uint256)": "da8b76bc",
        "createMotionToRemoveOfficer(uint256,uint256,uint256)": "fb030548",
        "entrustDelegate(uint256,uint256,uint256)": "fe1bdff2",
        "execAction(uint256,address[],uint256[],bytes[],bytes32,uint256,uint256)": "5c2753bf",
        "execResolution(uint256,uint256,uint256)": "2d3eaa40",
        "finalized()": "b3f05b97",
        "getBallot(uint256,uint256)": "0d358757",
        "getBookeeper()": "ed211023",
        "getCaseOfAttitude(uint256,uint256)": "165dd5ec",
        "getDelegateOf(uint256,uint256)": "9a51cdfc",
        "getGeneralCounsel()": "103f6edd",
        "getLeavesHeadcountOfDirectors(uint256,uint256,address)": "22d49e2c",
        "getLeavesWeightAtDate(uint256,uint256,uint256,address)": "c41f49b0",
        "getMotion(uint256)": "ad15aad2",
        "getOwner()": "893d20e8",
        "getSeqList()": "243fbc21",
        "getVoterOfDelegateMap(uint256,uint256)": "61df743f",
        "grantRole(bytes32,uint256)": "1b6ea9f9",
        "hasRole(bytes32,uint256)": "7e063c5a",
        "init(uint256,address,address,address)": "dc890da9",
        "isPassed(uint256)": "49403183",
        "isProposed(uint256)": "59269f82",
        "isVoted(uint256,uint256)": "ea56efc6",
        "isVotedFor(uint256,uint256,uint256)": "9371bd1e",
        "lockContents()": "f045a769",
        "nominateOfficer(uint256,uint256,uint256,uint256)": "4f6413ac",
        "proposeMotionToBoard(uint256,uint256)": "48c01a8b",
        "proposeMotionToGeneralMeeting(uint256,uint256)": "ec83613b",
        "removeDirectKeeper(address)": "5d7ad88f",
        "renounceRole(bytes32)": "8bb9c5bf",
        "revokeRole(bytes32,uint256)": "19d61ad9",
        "setDirectKeeper(address)": "6be8496f",
        "setGeneralCounsel(uint256)": "4a14beb1",
        "setOwner(uint256)": "8041494e",
        "setRoleAdmin(bytes32,uint256)": "5171ebd4",
        "voteCounting(bool,uint256,(uint32,uint64,uint32,uint64,uint16,uint16,uint16,uint8,bool))": "f04e47ab",
        "voteEnded(uint256)": "b43a401d",
        "voteStarted(uint256)": "a1e1d621"
    },
    "gasEstimates": {
        "creation": {
            "codeDepositCost": "3659400",
            "executionCost": "4122",
            "totalCost": "3663522"
        },
        "external": {
            "abandonRole(bytes32)": "infinite",
            "castVoteInBoardMeeting(uint256,uint256,bytes32,uint256)": "infinite",
            "castVoteInGeneralMeeting(uint256,uint256,bytes32,uint256)": "infinite",
            "createAction(uint256,address[],uint256[],bytes[],bytes32,uint256,uint256)": "infinite",
            "createMotionToApproveDoc(address,uint256,uint256,uint256)": "infinite",
            "createMotionToRemoveOfficer(uint256,uint256,uint256)": "infinite",
            "entrustDelegate(uint256,uint256,uint256)": "infinite",
            "execAction(uint256,address[],uint256[],bytes[],bytes32,uint256,uint256)": "infinite",
            "execResolution(uint256,uint256,uint256)": "infinite",
            "finalized()": "2438",
            "getBallot(uint256,uint256)": "infinite",
            "getBookeeper()": "infinite",
            "getCaseOfAttitude(uint256,uint256)": "infinite",
            "getDelegateOf(uint256,uint256)": "infinite",
            "getGeneralCounsel()": "infinite",
            "getLeavesHeadcountOfDirectors(uint256,uint256,address)": "infinite",
            "getLeavesWeightAtDate(uint256,uint256,uint256,address)": "infinite",
            "getMotion(uint256)": "infinite",
            "getOwner()": "infinite",
            "getSeqList()": "infinite",
            "getVoterOfDelegateMap(uint256,uint256)": "infinite",
            "grantRole(bytes32,uint256)": "infinite",
            "hasRole(bytes32,uint256)": "infinite",
            "init(uint256,address,address,address)": "infinite",
            "isPassed(uint256)": "infinite",
            "isProposed(uint256)": "infinite",
            "isVoted(uint256,uint256)": "infinite",
            "isVotedFor(uint256,uint256,uint256)": "infinite",
            "lockContents()": "infinite",
            "nominateOfficer(uint256,uint256,uint256,uint256)": "infinite",
            "proposeMotionToBoard(uint256,uint256)": "infinite",
            "proposeMotionToGeneralMeeting(uint256,uint256)": "infinite",
            "removeDirectKeeper(address)": "infinite",
            "renounceRole(bytes32)": "infinite",
            "revokeRole(bytes32,uint256)": "infinite",
            "setDirectKeeper(address)": "infinite",
            "setGeneralCounsel(uint256)": "infinite",
            "setOwner(uint256)": "infinite",
            "setRoleAdmin(bytes32,uint256)": "infinite",
            "voteCounting(bool,uint256,(uint32,uint64,uint32,uint64,uint16,uint16,uint16,uint8,bool))": "infinite",
            "voteEnded(uint256)": "infinite",
            "voteStarted(uint256)": "infinite"
        },
        "internal": {
            "_addMotion(uint256,uint256,uint256,uint256,uint256)": "infinite",
            "_hashAction(uint256,address[] memory,uint256[] memory,bytes memory[] memory,bytes32)": "infinite"
        }
    }
}