{
    "contractName": "MeetingMinutes",
    "abi": [
        {
            "anonymous": false,
            "inputs": [
                {
                    "indexed": true,
                    "internalType": "uint256",
                    "name": "seqOfMotion",
                    "type": "uint256"
                },
                {
                    "indexed": true,
                    "internalType": "uint256",
                    "name": "caller",
                    "type": "uint256"
                },
                {
                    "indexed": true,
                    "internalType": "uint256",
                    "name": "attitude",
                    "type": "uint256"
                },
                {
                    "indexed": false,
                    "internalType": "bytes32",
                    "name": "sigHash",
                    "type": "bytes32"
                }
            ],
            "name": "CastVote",
            "type": "event"
        },
        {
            "anonymous": false,
            "inputs": [
                {
                    "indexed": true,
                    "internalType": "bytes32",
                    "name": "snOfMotion",
                    "type": "bytes32"
                },
                {
                    "indexed": true,
                    "internalType": "uint256",
                    "name": "contents",
                    "type": "uint256"
                }
            ],
            "name": "CreateMotion",
            "type": "event"
        },
        {
            "anonymous": false,
            "inputs": [
                {
                    "indexed": true,
                    "internalType": "uint256",
                    "name": "seqOfMotion",
                    "type": "uint256"
                },
                {
                    "indexed": true,
                    "internalType": "uint256",
                    "name": "delegate",
                    "type": "uint256"
                },
                {
                    "indexed": true,
                    "internalType": "uint256",
                    "name": "principal",
                    "type": "uint256"
                },
                {
                    "indexed": false,
                    "internalType": "uint256",
                    "name": "weight",
                    "type": "uint256"
                }
            ],
            "name": "EntrustDelegate",
            "type": "event"
        },
        {
            "anonymous": false,
            "inputs": [
                {
                    "indexed": true,
                    "internalType": "uint256",
                    "name": "seqOfMotion",
                    "type": "uint256"
                },
                {
                    "indexed": true,
                    "internalType": "uint256",
                    "name": "caller",
                    "type": "uint256"
                }
            ],
            "name": "ExecResolution",
            "type": "event"
        },
        {
            "anonymous": false,
            "inputs": [
                {
                    "indexed": true,
                    "internalType": "uint256",
                    "name": "owner",
                    "type": "uint256"
                },
                {
                    "indexed": true,
                    "internalType": "address",
                    "name": "directKeeper",
                    "type": "address"
                },
                {
                    "indexed": false,
                    "internalType": "address",
                    "name": "regCenter",
                    "type": "address"
                },
                {
                    "indexed": true,
                    "internalType": "address",
                    "name": "generalKeeper",
                    "type": "address"
                }
            ],
            "name": "Init",
            "type": "event"
        },
        {
            "anonymous": false,
            "inputs": [],
            "name": "LockContents",
            "type": "event"
        },
        {
            "anonymous": false,
            "inputs": [
                {
                    "indexed": true,
                    "internalType": "uint256",
                    "name": "seqOfMotion",
                    "type": "uint256"
                },
                {
                    "indexed": true,
                    "internalType": "uint256",
                    "name": "proposer",
                    "type": "uint256"
                }
            ],
            "name": "ProposeMotion",
            "type": "event"
        },
        {
            "anonymous": false,
            "inputs": [
                {
                    "indexed": true,
                    "internalType": "address",
                    "name": "target",
                    "type": "address"
                }
            ],
            "name": "RemoveDirectKeeper",
            "type": "event"
        },
        {
            "anonymous": false,
            "inputs": [
                {
                    "indexed": true,
                    "internalType": "address",
                    "name": "keeper",
                    "type": "address"
                }
            ],
            "name": "SetDirectKeeper",
            "type": "event"
        },
        {
            "anonymous": false,
            "inputs": [
                {
                    "indexed": true,
                    "internalType": "uint256",
                    "name": "acct",
                    "type": "uint256"
                }
            ],
            "name": "SetGeneralCounsel",
            "type": "event"
        },
        {
            "anonymous": false,
            "inputs": [
                {
                    "indexed": true,
                    "internalType": "uint256",
                    "name": "acct",
                    "type": "uint256"
                }
            ],
            "name": "SetOwner",
            "type": "event"
        },
        {
            "anonymous": false,
            "inputs": [
                {
                    "indexed": true,
                    "internalType": "uint256",
                    "name": "seqOfMotion",
                    "type": "uint256"
                },
                {
                    "indexed": true,
                    "internalType": "uint8",
                    "name": "result",
                    "type": "uint8"
                }
            ],
            "name": "VoteCounting",
            "type": "event"
        },
        {
            "inputs": [
                {
                    "internalType": "bytes32",
                    "name": "role",
                    "type": "bytes32"
                }
            ],
            "name": "abandonRole",
            "outputs": [],
            "stateMutability": "nonpayable",
            "type": "function"
        },
        {
            "inputs": [
                {
                    "components": [
                        {
                            "internalType": "uint16",
                            "name": "typeOfMotion",
                            "type": "uint16"
                        },
                        {
                            "internalType": "uint64",
                            "name": "seqOfMotion",
                            "type": "uint64"
                        },
                        {
                            "internalType": "uint16",
                            "name": "seqOfVR",
                            "type": "uint16"
                        },
                        {
                            "internalType": "uint40",
                            "name": "creator",
                            "type": "uint40"
                        },
                        {
                            "internalType": "uint40",
                            "name": "executor",
                            "type": "uint40"
                        },
                        {
                            "internalType": "uint48",
                            "name": "createDate",
                            "type": "uint48"
                        },
                        {
                            "internalType": "uint32",
                            "name": "data",
                            "type": "uint32"
                        }
                    ],
                    "internalType": "struct MotionsRepo.Head",
                    "name": "head",
                    "type": "tuple"
                },
                {
                    "internalType": "uint256",
                    "name": "contents",
                    "type": "uint256"
                }
            ],
            "name": "addMotion",
            "outputs": [
                {
                    "internalType": "uint64",
                    "name": "",
                    "type": "uint64"
                }
            ],
            "stateMutability": "nonpayable",
            "type": "function"
        },
        {
            "inputs": [
                {
                    "internalType": "uint256",
                    "name": "seqOfMotion",
                    "type": "uint256"
                },
                {
                    "internalType": "uint256",
                    "name": "attitude",
                    "type": "uint256"
                },
                {
                    "internalType": "bytes32",
                    "name": "sigHash",
                    "type": "bytes32"
                },
                {
                    "internalType": "contract IRegisterOfMembers",
                    "name": "_rom",
                    "type": "address"
                },
                {
                    "internalType": "uint256",
                    "name": "caller",
                    "type": "uint256"
                }
            ],
            "name": "castVote",
            "outputs": [],
            "stateMutability": "nonpayable",
            "type": "function"
        },
        {
            "inputs": [
                {
                    "internalType": "uint256",
                    "name": "seqOfMotion",
                    "type": "uint256"
                },
                {
                    "internalType": "uint256",
                    "name": "delegate",
                    "type": "uint256"
                },
                {
                    "internalType": "uint256",
                    "name": "principal",
                    "type": "uint256"
                },
                {
                    "internalType": "uint256",
                    "name": "weight",
                    "type": "uint256"
                }
            ],
            "name": "entrustDelegate",
            "outputs": [],
            "stateMutability": "nonpayable",
            "type": "function"
        },
        {
            "inputs": [
                {
                    "internalType": "uint256",
                    "name": "seqOfVR",
                    "type": "uint256"
                },
                {
                    "internalType": "address[]",
                    "name": "targets",
                    "type": "address[]"
                },
                {
                    "internalType": "uint256[]",
                    "name": "values",
                    "type": "uint256[]"
                },
                {
                    "internalType": "bytes[]",
                    "name": "params",
                    "type": "bytes[]"
                },
                {
                    "internalType": "bytes32",
                    "name": "desHash",
                    "type": "bytes32"
                },
                {
                    "internalType": "uint256",
                    "name": "seqOfMotion",
                    "type": "uint256"
                },
                {
                    "internalType": "uint256",
                    "name": "caller",
                    "type": "uint256"
                }
            ],
            "name": "execAction",
            "outputs": [
                {
                    "internalType": "uint256",
                    "name": "contents",
                    "type": "uint256"
                }
            ],
            "stateMutability": "nonpayable",
            "type": "function"
        },
        {
            "inputs": [
                {
                    "internalType": "uint256",
                    "name": "seqOfMotion",
                    "type": "uint256"
                },
                {
                    "internalType": "uint256",
                    "name": "contents",
                    "type": "uint256"
                },
                {
                    "internalType": "uint256",
                    "name": "caller",
                    "type": "uint256"
                }
            ],
            "name": "execResolution",
            "outputs": [],
            "stateMutability": "nonpayable",
            "type": "function"
        },
        {
            "inputs": [],
            "name": "finalized",
            "outputs": [
                {
                    "internalType": "bool",
                    "name": "",
                    "type": "bool"
                }
            ],
            "stateMutability": "view",
            "type": "function"
        },
        {
            "inputs": [
                {
                    "internalType": "uint256",
                    "name": "seqOfMotion",
                    "type": "uint256"
                },
                {
                    "internalType": "uint256",
                    "name": "acct",
                    "type": "uint256"
                }
            ],
            "name": "getBallot",
            "outputs": [
                {
                    "components": [
                        {
                            "internalType": "uint40",
                            "name": "acct",
                            "type": "uint40"
                        },
                        {
                            "internalType": "uint8",
                            "name": "attitude",
                            "type": "uint8"
                        },
                        {
                            "internalType": "uint32",
                            "name": "head",
                            "type": "uint32"
                        },
                        {
                            "internalType": "uint64",
                            "name": "weight",
                            "type": "uint64"
                        },
                        {
                            "internalType": "uint48",
                            "name": "sigDate",
                            "type": "uint48"
                        },
                        {
                            "internalType": "uint64",
                            "name": "blocknumber",
                            "type": "uint64"
                        },
                        {
                            "internalType": "bytes32",
                            "name": "sigHash",
                            "type": "bytes32"
                        }
                    ],
                    "internalType": "struct BallotsBox.Ballot",
                    "name": "",
                    "type": "tuple"
                }
            ],
            "stateMutability": "view",
            "type": "function"
        },
        {
            "inputs": [],
            "name": "getBookeeper",
            "outputs": [
                {
                    "internalType": "address",
                    "name": "",
                    "type": "address"
                }
            ],
            "stateMutability": "view",
            "type": "function"
        },
        {
            "inputs": [
                {
                    "internalType": "uint256",
                    "name": "seqOfMotion",
                    "type": "uint256"
                },
                {
                    "internalType": "uint256",
                    "name": "atti",
                    "type": "uint256"
                }
            ],
            "name": "getCaseOfAttitude",
            "outputs": [
                {
                    "components": [
                        {
                            "internalType": "uint32",
                            "name": "sumOfHead",
                            "type": "uint32"
                        },
                        {
                            "internalType": "uint64",
                            "name": "sumOfWeight",
                            "type": "uint64"
                        },
                        {
                            "internalType": "uint256[]",
                            "name": "voters",
                            "type": "uint256[]"
                        }
                    ],
                    "internalType": "struct BallotsBox.Case",
                    "name": "",
                    "type": "tuple"
                }
            ],
            "stateMutability": "view",
            "type": "function"
        },
        {
            "inputs": [
                {
                    "internalType": "uint256",
                    "name": "seqOfMotion",
                    "type": "uint256"
                },
                {
                    "internalType": "uint256",
                    "name": "acct",
                    "type": "uint256"
                }
            ],
            "name": "getDelegateOf",
            "outputs": [
                {
                    "internalType": "uint256",
                    "name": "",
                    "type": "uint256"
                }
            ],
            "stateMutability": "view",
            "type": "function"
        },
        {
            "inputs": [],
            "name": "getGeneralCounsel",
            "outputs": [
                {
                    "internalType": "uint40",
                    "name": "",
                    "type": "uint40"
                }
            ],
            "stateMutability": "view",
            "type": "function"
        },
        {
            "inputs": [
                {
                    "internalType": "uint256",
                    "name": "seqOfMotion",
                    "type": "uint256"
                },
                {
                    "internalType": "uint256",
                    "name": "caller",
                    "type": "uint256"
                },
                {
                    "internalType": "uint256",
                    "name": "baseDate",
                    "type": "uint256"
                },
                {
                    "internalType": "contract IRegisterOfMembers",
                    "name": "_rom",
                    "type": "address"
                }
            ],
            "name": "getLeavesWeightAtDate",
            "outputs": [
                {
                    "internalType": "uint64",
                    "name": "weight",
                    "type": "uint64"
                }
            ],
            "stateMutability": "view",
            "type": "function"
        },
        {
            "inputs": [
                {
                    "internalType": "uint256",
                    "name": "seqOfMotion",
                    "type": "uint256"
                }
            ],
            "name": "getMotion",
            "outputs": [
                {
                    "components": [
                        {
                            "components": [
                                {
                                    "internalType": "uint16",
                                    "name": "typeOfMotion",
                                    "type": "uint16"
                                },
                                {
                                    "internalType": "uint64",
                                    "name": "seqOfMotion",
                                    "type": "uint64"
                                },
                                {
                                    "internalType": "uint16",
                                    "name": "seqOfVR",
                                    "type": "uint16"
                                },
                                {
                                    "internalType": "uint40",
                                    "name": "creator",
                                    "type": "uint40"
                                },
                                {
                                    "internalType": "uint40",
                                    "name": "executor",
                                    "type": "uint40"
                                },
                                {
                                    "internalType": "uint48",
                                    "name": "createDate",
                                    "type": "uint48"
                                },
                                {
                                    "internalType": "uint32",
                                    "name": "data",
                                    "type": "uint32"
                                }
                            ],
                            "internalType": "struct MotionsRepo.Head",
                            "name": "head",
                            "type": "tuple"
                        },
                        {
                            "components": [
                                {
                                    "internalType": "uint40",
                                    "name": "proposer",
                                    "type": "uint40"
                                },
                                {
                                    "internalType": "uint48",
                                    "name": "proposeDate",
                                    "type": "uint48"
                                },
                                {
                                    "internalType": "uint48",
                                    "name": "shareRegDate",
                                    "type": "uint48"
                                },
                                {
                                    "internalType": "uint48",
                                    "name": "voteStartDate",
                                    "type": "uint48"
                                },
                                {
                                    "internalType": "uint48",
                                    "name": "voteEndDate",
                                    "type": "uint48"
                                },
                                {
                                    "internalType": "uint16",
                                    "name": "para",
                                    "type": "uint16"
                                },
                                {
                                    "internalType": "uint8",
                                    "name": "state",
                                    "type": "uint8"
                                }
                            ],
                            "internalType": "struct MotionsRepo.Body",
                            "name": "body",
                            "type": "tuple"
                        },
                        {
                            "components": [
                                {
                                    "internalType": "uint16",
                                    "name": "seqOfRule",
                                    "type": "uint16"
                                },
                                {
                                    "internalType": "uint8",
                                    "name": "qtyOfSubRule",
                                    "type": "uint8"
                                },
                                {
                                    "internalType": "uint8",
                                    "name": "seqOfSubRule",
                                    "type": "uint8"
                                },
                                {
                                    "internalType": "uint16",
                                    "name": "authority",
                                    "type": "uint16"
                                },
                                {
                                    "internalType": "uint16",
                                    "name": "headRatio",
                                    "type": "uint16"
                                },
                                {
                                    "internalType": "uint16",
                                    "name": "amountRatio",
                                    "type": "uint16"
                                },
                                {
                                    "internalType": "bool",
                                    "name": "onlyAttendance",
                                    "type": "bool"
                                },
                                {
                                    "internalType": "bool",
                                    "name": "impliedConsent",
                                    "type": "bool"
                                },
                                {
                                    "internalType": "bool",
                                    "name": "partyAsConsent",
                                    "type": "bool"
                                },
                                {
                                    "internalType": "bool",
                                    "name": "againstShallBuy",
                                    "type": "bool"
                                },
                                {
                                    "internalType": "uint8",
                                    "name": "shaExecDays",
                                    "type": "uint8"
                                },
                                {
                                    "internalType": "uint8",
                                    "name": "reviewDays",
                                    "type": "uint8"
                                },
                                {
                                    "internalType": "uint8",
                                    "name": "reconsiderDays",
                                    "type": "uint8"
                                },
                                {
                                    "internalType": "uint8",
                                    "name": "votePrepareDays",
                                    "type": "uint8"
                                },
                                {
                                    "internalType": "uint8",
                                    "name": "votingDays",
                                    "type": "uint8"
                                },
                                {
                                    "internalType": "uint8",
                                    "name": "execDaysForPutOpt",
                                    "type": "uint8"
                                },
                                {
                                    "internalType": "uint40[2]",
                                    "name": "vetoers",
                                    "type": "uint40[2]"
                                },
                                {
                                    "internalType": "uint16",
                                    "name": "para",
                                    "type": "uint16"
                                }
                            ],
                            "internalType": "struct RulesParser.VotingRule",
                            "name": "votingRule",
                            "type": "tuple"
                        },
                        {
                            "internalType": "uint256",
                            "name": "contents",
                            "type": "uint256"
                        }
                    ],
                    "internalType": "struct MotionsRepo.Motion",
                    "name": "motion",
                    "type": "tuple"
                }
            ],
            "stateMutability": "view",
            "type": "function"
        },
        {
            "inputs": [],
            "name": "getOwner",
            "outputs": [
                {
                    "internalType": "uint40",
                    "name": "",
                    "type": "uint40"
                }
            ],
            "stateMutability": "view",
            "type": "function"
        },
        {
            "inputs": [],
            "name": "getSeqList",
            "outputs": [
                {
                    "internalType": "uint256[]",
                    "name": "",
                    "type": "uint256[]"
                }
            ],
            "stateMutability": "view",
            "type": "function"
        },
        {
            "inputs": [
                {
                    "internalType": "uint256",
                    "name": "seqOfMotion",
                    "type": "uint256"
                },
                {
                    "internalType": "uint256",
                    "name": "acct",
                    "type": "uint256"
                }
            ],
            "name": "getVoterOfDelegateMap",
            "outputs": [
                {
                    "components": [
                        {
                            "internalType": "uint40",
                            "name": "delegate",
                            "type": "uint40"
                        },
                        {
                            "internalType": "uint64",
                            "name": "weight",
                            "type": "uint64"
                        },
                        {
                            "internalType": "uint64",
                            "name": "repWeight",
                            "type": "uint64"
                        },
                        {
                            "internalType": "uint32",
                            "name": "repHead",
                            "type": "uint32"
                        },
                        {
                            "internalType": "uint40[]",
                            "name": "principals",
                            "type": "uint40[]"
                        }
                    ],
                    "internalType": "struct DelegateMap.Voter",
                    "name": "",
                    "type": "tuple"
                }
            ],
            "stateMutability": "view",
            "type": "function"
        },
        {
            "inputs": [
                {
                    "internalType": "bytes32",
                    "name": "role",
                    "type": "bytes32"
                },
                {
                    "internalType": "uint256",
                    "name": "acct",
                    "type": "uint256"
                }
            ],
            "name": "grantRole",
            "outputs": [],
            "stateMutability": "nonpayable",
            "type": "function"
        },
        {
            "inputs": [
                {
                    "internalType": "bytes32",
                    "name": "role",
                    "type": "bytes32"
                },
                {
                    "internalType": "uint256",
                    "name": "acct",
                    "type": "uint256"
                }
            ],
            "name": "hasRole",
            "outputs": [
                {
                    "internalType": "bool",
                    "name": "",
                    "type": "bool"
                }
            ],
            "stateMutability": "view",
            "type": "function"
        },
        {
            "inputs": [
                {
                    "internalType": "uint256",
                    "name": "owner",
                    "type": "uint256"
                },
                {
                    "internalType": "address",
                    "name": "directKeeper",
                    "type": "address"
                },
                {
                    "internalType": "address",
                    "name": "regCenter",
                    "type": "address"
                },
                {
                    "internalType": "address",
                    "name": "generalKeeper",
                    "type": "address"
                }
            ],
            "name": "init",
            "outputs": [],
            "stateMutability": "nonpayable",
            "type": "function"
        },
        {
            "inputs": [
                {
                    "internalType": "uint256",
                    "name": "seqOfMotion",
                    "type": "uint256"
                }
            ],
            "name": "isPassed",
            "outputs": [
                {
                    "internalType": "bool",
                    "name": "",
                    "type": "bool"
                }
            ],
            "stateMutability": "view",
            "type": "function"
        },
        {
            "inputs": [
                {
                    "internalType": "uint256",
                    "name": "seqOfMotion",
                    "type": "uint256"
                }
            ],
            "name": "isProposed",
            "outputs": [
                {
                    "internalType": "bool",
                    "name": "",
                    "type": "bool"
                }
            ],
            "stateMutability": "view",
            "type": "function"
        },
        {
            "inputs": [
                {
                    "internalType": "uint256",
                    "name": "seqOfMotion",
                    "type": "uint256"
                },
                {
                    "internalType": "uint256",
                    "name": "acct",
                    "type": "uint256"
                }
            ],
            "name": "isVoted",
            "outputs": [
                {
                    "internalType": "bool",
                    "name": "",
                    "type": "bool"
                }
            ],
            "stateMutability": "view",
            "type": "function"
        },
        {
            "inputs": [
                {
                    "internalType": "uint256",
                    "name": "seqOfMotion",
                    "type": "uint256"
                },
                {
                    "internalType": "uint256",
                    "name": "acct",
                    "type": "uint256"
                },
                {
                    "internalType": "uint256",
                    "name": "atti",
                    "type": "uint256"
                }
            ],
            "name": "isVotedFor",
            "outputs": [
                {
                    "internalType": "bool",
                    "name": "",
                    "type": "bool"
                }
            ],
            "stateMutability": "view",
            "type": "function"
        },
        {
            "inputs": [],
            "name": "lockContents",
            "outputs": [],
            "stateMutability": "nonpayable",
            "type": "function"
        },
        {
            "inputs": [
                {
                    "internalType": "uint256",
                    "name": "seqOfPos",
                    "type": "uint256"
                },
                {
                    "internalType": "uint256",
                    "name": "seqOfVR",
                    "type": "uint256"
                },
                {
                    "internalType": "uint256",
                    "name": "candidate",
                    "type": "uint256"
                },
                {
                    "internalType": "uint256",
                    "name": "nominator",
                    "type": "uint256"
                }
            ],
            "name": "nominateOfficer",
            "outputs": [
                {
                    "internalType": "uint64",
                    "name": "",
                    "type": "uint64"
                }
            ],
            "stateMutability": "nonpayable",
            "type": "function"
        },
        {
            "inputs": [
                {
                    "internalType": "uint256",
                    "name": "seqOfVR",
                    "type": "uint256"
                },
                {
                    "internalType": "address[]",
                    "name": "targets",
                    "type": "address[]"
                },
                {
                    "internalType": "uint256[]",
                    "name": "values",
                    "type": "uint256[]"
                },
                {
                    "internalType": "bytes[]",
                    "name": "params",
                    "type": "bytes[]"
                },
                {
                    "internalType": "bytes32",
                    "name": "desHash",
                    "type": "bytes32"
                },
                {
                    "internalType": "uint256",
                    "name": "executor",
                    "type": "uint256"
                },
                {
                    "internalType": "uint256",
                    "name": "proposer",
                    "type": "uint256"
                }
            ],
            "name": "proposeAction",
            "outputs": [
                {
                    "internalType": "uint64",
                    "name": "",
                    "type": "uint64"
                }
            ],
            "stateMutability": "nonpayable",
            "type": "function"
        },
        {
            "inputs": [
                {
                    "internalType": "address",
                    "name": "doc",
                    "type": "address"
                },
                {
                    "internalType": "uint256",
                    "name": "seqOfVR",
                    "type": "uint256"
                },
                {
                    "internalType": "uint256",
                    "name": "executor",
                    "type": "uint256"
                },
                {
                    "internalType": "uint256",
                    "name": "proposer",
                    "type": "uint256"
                }
            ],
            "name": "proposeDoc",
            "outputs": [
                {
                    "internalType": "uint64",
                    "name": "",
                    "type": "uint64"
                }
            ],
            "stateMutability": "nonpayable",
            "type": "function"
        },
        {
            "inputs": [
                {
                    "internalType": "uint256",
                    "name": "seqOfMotion",
                    "type": "uint256"
                },
                {
                    "internalType": "uint256",
                    "name": "proposer",
                    "type": "uint256"
                }
            ],
            "name": "proposeMotion",
            "outputs": [],
            "stateMutability": "nonpayable",
            "type": "function"
        },
        {
            "inputs": [
                {
                    "internalType": "uint256",
                    "name": "seqOfPos",
                    "type": "uint256"
                },
                {
                    "internalType": "uint256",
                    "name": "seqOfVR",
                    "type": "uint256"
                },
                {
                    "internalType": "uint256",
                    "name": "nominator",
                    "type": "uint256"
                }
            ],
            "name": "proposeToRemoveOfficer",
            "outputs": [
                {
                    "internalType": "uint64",
                    "name": "",
                    "type": "uint64"
                }
            ],
            "stateMutability": "nonpayable",
            "type": "function"
        },
        {
            "inputs": [
                {
                    "internalType": "address",
                    "name": "target",
                    "type": "address"
                }
            ],
            "name": "removeDirectKeeper",
            "outputs": [],
            "stateMutability": "nonpayable",
            "type": "function"
        },
        {
            "inputs": [
                {
                    "internalType": "bytes32",
                    "name": "role",
                    "type": "bytes32"
                }
            ],
            "name": "renounceRole",
            "outputs": [],
            "stateMutability": "nonpayable",
            "type": "function"
        },
        {
            "inputs": [
                {
                    "internalType": "bytes32",
                    "name": "role",
                    "type": "bytes32"
                },
                {
                    "internalType": "uint256",
                    "name": "acct",
                    "type": "uint256"
                }
            ],
            "name": "revokeRole",
            "outputs": [],
            "stateMutability": "nonpayable",
            "type": "function"
        },
        {
            "inputs": [
                {
                    "internalType": "address",
                    "name": "keeper",
                    "type": "address"
                }
            ],
            "name": "setDirectKeeper",
            "outputs": [],
            "stateMutability": "nonpayable",
            "type": "function"
        },
        {
            "inputs": [
                {
                    "internalType": "uint256",
                    "name": "acct",
                    "type": "uint256"
                }
            ],
            "name": "setGeneralCounsel",
            "outputs": [],
            "stateMutability": "nonpayable",
            "type": "function"
        },
        {
            "inputs": [
                {
                    "internalType": "uint256",
                    "name": "acct",
                    "type": "uint256"
                }
            ],
            "name": "setOwner",
            "outputs": [],
            "stateMutability": "nonpayable",
            "type": "function"
        },
        {
            "inputs": [
                {
                    "internalType": "bytes32",
                    "name": "role",
                    "type": "bytes32"
                },
                {
                    "internalType": "uint256",
                    "name": "acct",
                    "type": "uint256"
                }
            ],
            "name": "setRoleAdmin",
            "outputs": [],
            "stateMutability": "nonpayable",
            "type": "function"
        },
        {
            "inputs": [
                {
                    "internalType": "uint256",
                    "name": "seqOfMotion",
                    "type": "uint256"
                },
                {
                    "components": [
                        {
                            "internalType": "uint64",
                            "name": "totalHead",
                            "type": "uint64"
                        },
                        {
                            "internalType": "uint64",
                            "name": "totalWeight",
                            "type": "uint64"
                        },
                        {
                            "internalType": "uint64",
                            "name": "supportHead",
                            "type": "uint64"
                        },
                        {
                            "internalType": "uint64",
                            "name": "supportWeight",
                            "type": "uint64"
                        }
                    ],
                    "internalType": "struct MotionsRepo.VoteCalBase",
                    "name": "base",
                    "type": "tuple"
                }
            ],
            "name": "voteCounting",
            "outputs": [
                {
                    "internalType": "uint8",
                    "name": "result",
                    "type": "uint8"
                }
            ],
            "stateMutability": "nonpayable",
            "type": "function"
        },
        {
            "inputs": [
                {
                    "internalType": "uint256",
                    "name": "seqOfMotion",
                    "type": "uint256"
                }
            ],
            "name": "voteEnded",
            "outputs": [
                {
                    "internalType": "bool",
                    "name": "",
                    "type": "bool"
                }
            ],
            "stateMutability": "view",
            "type": "function"
        },
        {
            "inputs": [
                {
                    "internalType": "uint256",
                    "name": "seqOfMotion",
                    "type": "uint256"
                }
            ],
            "name": "voteStarted",
            "outputs": [
                {
                    "internalType": "bool",
                    "name": "",
                    "type": "bool"
                }
            ],
            "stateMutability": "view",
            "type": "function"
        }
    ],
    "bytecode": "608060405234801561001057600080fd5b50613eea806100206000396000f3fe608060405234801561001057600080fd5b50600436106102485760003560e01c80637e063c5a1161013b578063ad15aad2116100b8578063cd43b1651161007c578063cd43b165146105e0578063dc890da9146105f3578063ea56efc614610606578063ed21102314610619578063f045a7691461063957600080fd5b8063ad15aad214610573578063b3f05b9714610593578063b43a401d146105a7578063bbfd607d146105ba578063c41f49b0146105cd57600080fd5b80638bb9c5bf116100ff5780638bb9c5bf146105025780639371bd1e146105155780639a51cdfc14610528578063a0743e711461053b578063a1e1d6211461056057600080fd5b80637e063c5a146104ae5780637ee423de146104c15780638041494e146104d457806388125cf7146104e7578063893d20e8146104fa57600080fd5b80634a14beb1116101c95780635c2753bf1161018d5780635c2753bf146104345780635d7ad88f1461045557806361df743f1461046857806365a47e81146104885780636be8496f1461049b57600080fd5b80634a14beb1146103bd5780634f6413ac146103d05780635171ebd4146103fb578063585aebc61461040e57806359269f821461042157600080fd5b80631b6ea9f9116102105780631b6ea9f91461034c578063243fbc211461035f5780632d3eaa40146103745780633da9a60014610387578063494031831461039a57600080fd5b8063096f3abe1461024d5780630d35875714610262578063103f6edd146102fb578063165dd5ec1461031957806319d61ad914610339575b600080fd5b61026061025b366004612b4d565b610641565b005b610275610270366004612b4d565b610825565b6040516102f29190600060e08201905064ffffffffff835116825260ff602084015116602083015263ffffffff604084015116604083015260608301516001600160401b03808216606085015265ffffffffffff60808601511660808501528060a08601511660a0850152505060c083015160c083015292915050565b60405180910390f35b6103036108f3565b60405164ffffffffff90911681526020016102f2565b61032c610327366004612b4d565b61097f565b6040516102f29190612b6f565b610260610347366004612b4d565b610a2b565b61026061035a366004612b4d565b610abd565b610367610ae3565b6040516102f29190612c1f565b610260610382366004612c32565b610b6c565b610260610395366004612c5e565b610d5f565b6103ad6103a8366004612c5e565b610dea565b60405190151581526020016102f2565b6102606103cb366004612c5e565b610e77565b6103e36103de366004612c77565b6110cc565b6040516001600160401b0390911681526020016102f2565b610260610409366004612b4d565b6111b3565b61026061041c366004612c77565b6111d9565b6103ad61042f366004612c5e565b61135f565b610447610442366004612ef0565b6113a0565b6040519081526020016102f2565b610260610463366004612ffc565b611554565b61047b610476366004612b4d565b611689565b6040516102f29190613020565b6103e3610496366004612c32565b611746565b6102606104a9366004612ffc565b61182b565b6103ad6104bc366004612b4d565b6118da565b6103e36104cf366004613132565b61196f565b6102606104e2366004612c5e565b611b5e565b6102606104f53660046131e5565b611c14565b610303611dae565b610260610510366004612c5e565b611de9565b6103ad610523366004612c32565b611e0e565b610447610536366004612b4d565b611eb0565b61054e61054936600461322e565b611f43565b60405160ff90911681526020016102f2565b6103ad61056e366004612c5e565b6120e4565b610586610581366004612c5e565b612125565b6040516102f29190613488565b60028054600160f01b900460ff16146103ad565b6103ad6105b5366004612c5e565b6121b7565b6103e36105c8366004612ef0565b6121f8565b6103e36105db36600461352f565b6122f4565b6103e36105ee366004613570565b61239d565b6102606106013660046135ab565b612483565b6103ad610614366004612b4d565b612552565b61062161259a565b6040516001600160a01b0390911681526020016102f2565b610260612620565b604051633b11adbf60e21b81526002600482015233602482015273__$a374c895e6fa8c448878668e00d93ef99a$__9063ec46b6fc9060440160206040518083038186803b15801561069257600080fd5b505af41580156106a6573d6000803e3d6000fd5b505050506040513d601f19601f820116820180604052508101906106ca9190613603565b6106ef5760405162461bcd60e51b81526004016106e69061361e565b60405180910390fd5b600154604080516314c35b8560e31b8152905173__$48fdb68298ec07f9843b28bfe921898719$__9263304251129260049287926001600160a01b03169163a61adc2891818601916020919081900387018186803b15801561075057600080fd5b505afa158015610764573d6000803e3d6000fd5b505050506040513d601f19601f820116820180604052508101906107889190613664565b6040516001600160e01b031960e086901b168152600481019390935260248301919091526001600160a01b031660448201526064810184905260840160006040518083038186803b1580156107dc57600080fd5b505af41580156107f0573d6000803e3d6000fd5b50506040518392508491507f2eed72fdf855f1461258147d82bc92c0cec2d5d72f85c0471ce349f51b37d95d90600090a35050565b6040805160e081018252600080825260208201819052818301819052606082018190526080820181905260a0820181905260c08201529051635eeb98eb60e01b8152600480820152602481018490526044810183905273__$48fdb68298ec07f9843b28bfe921898719$__90635eeb98eb9060640160e06040518083038186803b1580156108b257600080fd5b505af41580156108c6573d6000803e3d6000fd5b505050506040513d601f19601f820116820180604052508101906108ea919061369d565b90505b92915050565b60405163e8c0cc1d60e01b81526002600482015260009073__$a374c895e6fa8c448878668e00d93ef99a$__9063e8c0cc1d906024015b60206040518083038186803b15801561094257600080fd5b505af4158015610956573d6000803e3d6000fd5b505050506040513d601f19601f8201168201806040525081019061097a9190613734565b905090565b6040805160608082018352600080835260208301528183015290516341335f3560e01b8152600480820152602481018490526044810183905273__$48fdb68298ec07f9843b28bfe921898719$__906341335f359060640160006040518083038186803b1580156109ef57600080fd5b505af4158015610a03573d6000803e3d6000fd5b505050506040513d6000823e601f3d908101601f191682016040526108ea91908101906137ac565b73__$a374c895e6fa8c448878668e00d93ef99a$__6382daafaa60028484610a5161286a565b6040516001600160e01b031960e087901b16815260048101949094526024840192909252604483015264ffffffffff16606482015260840160006040518083038186803b158015610aa157600080fd5b505af4158015610ab5573d6000803e3d6000fd5b505050505050565b73__$a374c895e6fa8c448878668e00d93ef99a$__636320d75e60028484610a5161286a565b604051631cfd0e3f60e01b815260048082015260609073__$48fdb68298ec07f9843b28bfe921898719$__90631cfd0e3f9060240160006040518083038186803b158015610b3057600080fd5b505af4158015610b44573d6000803e3d6000fd5b505050506040513d6000823e601f3d908101601f1916820160405261097a9190810190613854565b604051633b11adbf60e21b81526002600482015233602482015273__$a374c895e6fa8c448878668e00d93ef99a$__9063ec46b6fc9060440160206040518083038186803b158015610bbd57600080fd5b505af4158015610bd1573d6000803e3d6000fd5b505050506040513d601f19601f82011682018060405250810190610bf59190613603565b80610c7657506001546040516335d2155560e11b81523360048201526001600160a01b0390911690636ba42aaa9060240160206040518083038186803b158015610c3e57600080fd5b505afa158015610c52573d6000803e3d6000fd5b505050506040513d601f19601f82011682018060405250810190610c769190613603565b610cb65760405162461bcd60e51b815260206004820152601160248201527020a19737b59d103737ba1025b2b2b832b960791b60448201526064016106e6565b604051630aa0aacd60e11b815260048082015260248101849052604481018390526064810182905273__$48fdb68298ec07f9843b28bfe921898719$__90631541559a9060840160006040518083038186803b158015610d1557600080fd5b505af4158015610d29573d6000803e3d6000fd5b50506040518392508591507fae42f3be1ee887ec3af249092d8ce9d9a13ac3c2a8e40639341a77ac2e012de390600090a3505050565b73__$a374c895e6fa8c448878668e00d93ef99a$__63c51b295f600283610d8461286a565b6040516001600160e01b031960e086901b1681526004810193909352602483019190915264ffffffffff16604482015260640160006040518083038186803b158015610dcf57600080fd5b505af4158015610de3573d6000803e3d6000fd5b5050505050565b604051631d62ca6b60e11b81526004808201526024810182905260009073__$48fdb68298ec07f9843b28bfe921898719$__90633ac594d6906044015b60206040518083038186803b158015610e3f57600080fd5b505af4158015610e53573d6000803e3d6000fd5b505050506040513d601f19601f820116820180604052508101906108ed9190613603565b604051633b11adbf60e21b81526002600482015233602482015273__$a374c895e6fa8c448878668e00d93ef99a$__9063ec46b6fc9060440160206040518083038186803b158015610ec857600080fd5b505af4158015610edc573d6000803e3d6000fd5b505050506040513d601f19601f82011682018060405250810190610f009190613603565b80610fa5575073__$a374c895e6fa8c448878668e00d93ef99a$__63fe2710866002610f2a61286a565b6040516001600160e01b031960e085901b168152600481019290925264ffffffffff16602482015260440160206040518083038186803b158015610f6d57600080fd5b505af4158015610f81573d6000803e3d6000fd5b505050506040513d601f19601f82011682018060405250810190610fa59190613603565b6110105760405162461bcd60e51b815260206004820152603660248201527f41432e6f776e65724f72446972656374426f6f6b65657065723a206e6569746860448201527532b91037bbb732b9103737b9103137b7b5b2b2b832b960511b60648201526084016106e6565b73__$a374c895e6fa8c448878668e00d93ef99a$__6313a187d260028361103561286a565b6040516001600160e01b031960e086901b1681526004810193909352602483019190915264ffffffffff16604482015233606482015260840160006040518083038186803b15801561108657600080fd5b505af415801561109a573d6000803e3d6000fd5b50506040518392507ff2735f34b69be1e6342dea95f9162f84d0db925fab655ca9f1f312ac8cbfc99d9150600090a250565b604051633b11adbf60e21b81526002600482015233602482015260009073__$a374c895e6fa8c448878668e00d93ef99a$__9063ec46b6fc9060440160206040518083038186803b15801561112057600080fd5b505af4158015611134573d6000803e3d6000fd5b505050506040513d601f19601f820116820180604052508101906111589190613603565b6111745760405162461bcd60e51b81526004016106e69061361e565b61117c6129ef565b6001815261ffff8516604082015264ffffffffff8381166060830152841660808201526111a9818761196f565b9695505050505050565b73__$a374c895e6fa8c448878668e00d93ef99a$__63ee98b31360028484610a5161286a565b604051633b11adbf60e21b81526002600482015233602482015273__$a374c895e6fa8c448878668e00d93ef99a$__9063ec46b6fc9060440160206040518083038186803b15801561122a57600080fd5b505af415801561123e573d6000803e3d6000fd5b505050506040513d601f19601f820116820180604052508101906112629190613603565b61127e5760405162461bcd60e51b81526004016106e69061361e565b6040516350a1179960e01b81526004808201526024810185905260448101849052606481018390526084810182905273__$48fdb68298ec07f9843b28bfe921898719$__906350a117999060a40160206040518083038186803b1580156112e457600080fd5b505af41580156112f8573d6000803e3d6000fd5b505050506040513d601f19601f8201168201806040525081019061131c9190613603565b508183857f3e23c378c06ec59e11c122258c99a9ada1318ed2d864c4eee514bcd853151f2f8460405161135191815260200190565b60405180910390a450505050565b604051633e9ace7f60e11b81526004808201526024810182905260009073__$48fdb68298ec07f9843b28bfe921898719$__90637d359cfe90604401610e27565b604051633b11adbf60e21b81526002600482015233602482015260009073__$a374c895e6fa8c448878668e00d93ef99a$__9063ec46b6fc9060440160206040518083038186803b1580156113f457600080fd5b505af4158015611408573d6000803e3d6000fd5b505050506040513d601f19601f8201168201806040525081019061142c9190613603565b6114485760405162461bcd60e51b81526004016106e69061361e565b604051630363eeeb60e01b81526004808201526024810184905260009073__$48fdb68298ec07f9843b28bfe921898719$__90630363eeeb906044016104406040518083038186803b15801561149d57600080fd5b505af41580156114b1573d6000803e3d6000fd5b505050506040513d601f19601f820116820180604052508101906114d59190613b07565b80515190915061ffff1660041461152e5760405162461bcd60e51b815260206004820152601960248201527f4d4d2e45413a2077726f6e6720747970654f664d6f74696f6e0000000000000060448201526064016106e6565b61153b89898989896128c4565b9150611548848385610b6c565b50979650505050505050565b604051633b11adbf60e21b81526002600482015233602482015273__$a374c895e6fa8c448878668e00d93ef99a$__9063ec46b6fc9060440160206040518083038186803b1580156115a557600080fd5b505af41580156115b9573d6000803e3d6000fd5b505050506040513d601f19601f820116820180604052508101906115dd9190613603565b6115f95760405162461bcd60e51b81526004016106e69061361e565b604051636be8496f60e01b81523360048201526001600160a01b03821690636be8496f90602401600060405180830381600087803b15801561163a57600080fd5b505af115801561164e573d6000803e3d6000fd5b50506040516001600160a01b03841692507f64dd6e84044f0067086012335dcfab3188db6615b5cc7debf18c9a621ebd5d919150600090a250565b6040805160a081018252600080825260208201819052818301819052606080830191909152608082015290516322576ef960e11b8152600480820152602481018490526044810183905273__$48fdb68298ec07f9843b28bfe921898719$__906344aeddf29060640160006040518083038186803b15801561170a57600080fd5b505af415801561171e573d6000803e3d6000fd5b505050506040513d6000823e601f3d908101601f191682016040526108ea9190810190613bfb565b604051633b11adbf60e21b81526002600482015233602482015260009073__$a374c895e6fa8c448878668e00d93ef99a$__9063ec46b6fc9060440160206040518083038186803b15801561179a57600080fd5b505af41580156117ae573d6000803e3d6000fd5b505050506040513d601f19601f820116820180604052508101906117d29190613603565b6117ee5760405162461bcd60e51b81526004016106e69061361e565b6117f66129ef565b6002815261ffff8416604082015264ffffffffff8316606082018190526080820152611822818661196f565b95945050505050565b604051630f07232560e01b8152600260048201526001600160a01b038216602482015233604482015273__$a374c895e6fa8c448878668e00d93ef99a$__90630f0723259060640160006040518083038186803b15801561188b57600080fd5b505af415801561189f573d6000803e3d6000fd5b50506040516001600160a01b03841692507fe435cbeab64e4eae6497b9d8289704bd709d624a80704ef3ca9af777534bc6ec9150600090a250565b604051632a3be56b60e21b815260026004820152602481018390526044810182905260009073__$a374c895e6fa8c448878668e00d93ef99a$__9063a8ef95ac906064015b60206040518083038186803b15801561193757600080fd5b505af415801561194b573d6000803e3d6000fd5b505050506040513d601f19601f820116820180604052508101906108ea9190613603565b604051633b11adbf60e21b81526002600482015233602482015260009073__$a374c895e6fa8c448878668e00d93ef99a$__9063ec46b6fc9060440160206040518083038186803b1580156119c357600080fd5b505af41580156119d7573d6000803e3d6000fd5b505050506040513d601f19601f820116820180604052508101906119fb9190613603565b611a175760405162461bcd60e51b81526004016106e69061361e565b60405163072895eb60e51b815273__$48fdb68298ec07f9843b28bfe921898719$__9063e512bd6090611a5290600490879087908301613d12565b60e06040518083038186803b158015611a6a57600080fd5b505af4158015611a7e573d6000803e3d6000fd5b505050506040513d601f19601f82011682018060405250810190611aa29190613d36565b92508173__$48fdb68298ec07f9843b28bfe921898719$__63f138788e856040518263ffffffff1660e01b8152600401611adc9190613d52565b60206040518083038186803b158015611af457600080fd5b505af4158015611b08573d6000803e3d6000fd5b505050506040513d601f19601f82011682018060405250810190611b2c9190613d60565b6040517f3ac733a5e01b133fe59ace4c20e40ab1916d571ff364ec4819dc2951be83642e90600090a350506020015190565b73__$a374c895e6fa8c448878668e00d93ef99a$__639b48160c600283611b8361286a565b6040516001600160e01b031960e086901b1681526004810193909352602483019190915264ffffffffff16604482015260640160006040518083038186803b158015611bce57600080fd5b505af4158015611be2573d6000803e3d6000fd5b50506040518392507f8b6f40f36b4ae8cc5f55e895036457c43da4ab1f80f58c46f5ff0d72a650033b9150600090a250565b604051633b11adbf60e21b81526002600482015233602482015273__$a374c895e6fa8c448878668e00d93ef99a$__9063ec46b6fc9060440160206040518083038186803b158015611c6557600080fd5b505af4158015611c79573d6000803e3d6000fd5b505050506040513d601f19601f82011682018060405250810190611c9d9190613603565b611cb95760405162461bcd60e51b81526004016106e69061361e565b604051632ff6d49160e21b8152600480820152602481018690526044810182905260648101859052608481018490526001600160a01b03831660a482015273__$48fdb68298ec07f9843b28bfe921898719$__9063bfdb52449060c40160206040518083038186803b158015611d2e57600080fd5b505af4158015611d42573d6000803e3d6000fd5b505050506040513d601f19601f82011682018060405250810190611d669190613603565b15610de3578381867fb965bea85bac4cc500b2313003c13f639d5e21aca4edd1e830b5ce70ea881a5086604051611d9f91815260200190565b60405180910390a45050505050565b60405163987ad15360e01b81526002600482015260009073__$a374c895e6fa8c448878668e00d93ef99a$__9063987ad1539060240161092a565b73__$a374c895e6fa8c448878668e00d93ef99a$__63cc0d511b600283610d8461286a565b6040516305f7f47f60e51b815260048082015260248101849052604481018390526064810182905260009073__$48fdb68298ec07f9843b28bfe921898719$__9063befe8fe09060840160206040518083038186803b158015611e7057600080fd5b505af4158015611e84573d6000803e3d6000fd5b505050506040513d601f19601f82011682018060405250810190611ea89190613603565b949350505050565b6040516378a3d56560e11b8152600480820152602481018390526044810182905260009073__$48fdb68298ec07f9843b28bfe921898719$__9063f147aaca9060640160206040518083038186803b158015611f0b57600080fd5b505af4158015611f1f573d6000803e3d6000fd5b505050506040513d601f19601f820116820180604052508101906108ea9190613d60565b604051633b11adbf60e21b81526002600482015233602482015260009073__$a374c895e6fa8c448878668e00d93ef99a$__9063ec46b6fc9060440160206040518083038186803b158015611f9757600080fd5b505af4158015611fab573d6000803e3d6000fd5b505050506040513d601f19601f82011682018060405250810190611fcf9190613603565b611feb5760405162461bcd60e51b81526004016106e69061361e565b60408051633bcc83c360e11b81526004808201526024810185905283516001600160401b0390811660448301526020850151811660648301529184015182166084820152606084015190911660a482015273__$48fdb68298ec07f9843b28bfe921898719$__9063779907869060c40160206040518083038186803b15801561207357600080fd5b505af4158015612087573d6000803e3d6000fd5b505050506040513d601f19601f820116820180604052508101906120ab9190613d79565b90508060ff16837f09dabc8247f652d3170a3738595d35365582b55eebeee44e1059d2981852648360405160405180910390a392915050565b60405163cc526e6b60e01b81526004808201526024810182905260009073__$48fdb68298ec07f9843b28bfe921898719$__9063cc526e6b90604401610e27565b61212d612a2b565b604051630363eeeb60e01b81526004808201526024810183905273__$48fdb68298ec07f9843b28bfe921898719$__90630363eeeb906044016104406040518083038186803b15801561217f57600080fd5b505af4158015612193573d6000803e3d6000fd5b505050506040513d601f19601f820116820180604052508101906108ed9190613b07565b6040516338d1980760e21b81526004808201526024810182905260009073__$48fdb68298ec07f9843b28bfe921898719$__9063e346601c90604401610e27565b604051633b11adbf60e21b81526002600482015233602482015260009073__$a374c895e6fa8c448878668e00d93ef99a$__9063ec46b6fc9060440160206040518083038186803b15801561224c57600080fd5b505af4158015612260573d6000803e3d6000fd5b505050506040513d601f19601f820116820180604052508101906122849190613603565b6122a05760405162461bcd60e51b81526004016106e69061361e565b6122a86129ef565b6004815261ffff8916604082015264ffffffffff83811660608301528416608082015260006122da8a8a8a8a8a6128c4565b90506122e6828261196f565b9a9950505050505050505050565b6040516307621e5360e01b81526004808201526024810185905260448101849052606481018390526001600160a01b038216608482015260009073__$48fdb68298ec07f9843b28bfe921898719$__906307621e539060a40160206040518083038186803b15801561236557600080fd5b505af4158015612379573d6000803e3d6000fd5b505050506040513d601f19601f820116820180604052508101906118229190613d94565b604051633b11adbf60e21b81526002600482015233602482015260009073__$a374c895e6fa8c448878668e00d93ef99a$__9063ec46b6fc9060440160206040518083038186803b1580156123f157600080fd5b505af4158015612405573d6000803e3d6000fd5b505050506040513d601f19601f820116820180604052508101906124299190613603565b6124455760405162461bcd60e51b81526004016106e69061361e565b61244d6129ef565b6003815261ffff8516604082015264ffffffffff8381166060830152841660808201526111a9816001600160a01b03881661196f565b604051636cdd0edf60e11b815260026004820152602481018590526001600160a01b038416604482015273__$a374c895e6fa8c448878668e00d93ef99a$__9063d9ba1dbe9060640160006040518083038186803b1580156124e457600080fd5b505af41580156124f8573d6000803e3d6000fd5b5050505061250582612901565b61250e81612974565b6040516001600160a01b038381168252808316919085169086907f3abb2418c66fe32ba9c883030a75ce583971d9af9192b9b74e44e67c5e6c8c1f90602001611351565b60405163b34299c960e01b8152600480820152602481018390526044810182905260009073__$48fdb68298ec07f9843b28bfe921898719$__9063b34299c99060640161191f565b604051633c3e56c160e11b81526002600482015260009073__$a374c895e6fa8c448878668e00d93ef99a$__9063787cad829060240160206040518083038186803b1580156125e857600080fd5b505af41580156125fc573d6000803e3d6000fd5b505050506040513d601f19601f8201168201806040525081019061097a9190613664565b600254600160f01b900460ff1660011461267c5760405162461bcd60e51b815260206004820152601760248201527f41432e4c433a20446f632069732066696e616c697a656400000000000000000060448201526064016106e6565b73__$a374c895e6fa8c448878668e00d93ef99a$__63c51b295f6002684174746f726e65797360b81b6126ad61286a565b6040516001600160e01b031960e086901b1681526004810193909352602483019190915264ffffffffff16604482015260640160006040518083038186803b1580156126f857600080fd5b505af415801561270c573d6000803e3d6000fd5b50505050600273__$a374c895e6fa8c448878668e00d93ef99a$__6313a187d29091600061273861286a565b6040516001600160e01b031960e086901b1681526004810193909352602483019190915264ffffffffff16604482015233606482015260840160006040518083038186803b15801561278957600080fd5b505af415801561279d573d6000803e3d6000fd5b50505050600273__$a374c895e6fa8c448878668e00d93ef99a$__639b48160c909160006127c961286a565b6040516001600160e01b031960e086901b1681526004810193909352602483019190915264ffffffffff16604482015260640160006040518083038186803b15801561281457600080fd5b505af4158015612828573d6000803e3d6000fd5b50506002805460ff60f01b1916600160f11b17905550506040517f35012b512309c322acf68632cd6cb702ff0e1d776fbe9394e38ffc13b434fe7590600090a1565b60008054604051636ae3b70d60e11b81523360048201526001600160a01b039091169063d5c76e1a90602401602060405180830381600087803b1580156128b057600080fd5b505af1158015610956573d6000803e3d6000fd5b600085858585856040516020016128df959493929190613db1565b60408051601f1981840301815291905280516020909101209695505050505050565b6000546001600160a01b0316156129525760405162461bcd60e51b815260206004820152601560248201527430b63932b0b23c9039b2ba103932b3a1b2b73a32b960591b60448201526064016106e6565b600080546001600160a01b0319166001600160a01b0392909216919091179055565b6001546001600160a01b0316156129cd5760405162461bcd60e51b815260206004820152601960248201527f616c7265616479207365742067656e6572616c4b65657065720000000000000060448201526064016106e6565b600180546001600160a01b0319166001600160a01b0392909216919091179055565b6040805160e081018252600080825260208201819052918101829052606081018290526080810182905260a0810182905260c081019190915290565b6040518060800160405280612a3e6129ef565b81526040805160e08101825260008082526020828101829052928201819052606082018190526080820181905260a0820181905260c08201529101908152602001612a87612a94565b8152602001600081525090565b6040805161024081018252600080825260208201819052918101829052606081018290526080810182905260a0810182905260c0810182905260e08101829052610100810182905261012081018290526101408101829052610160810182905261018081018290526101a081018290526101c081018290526101e08101919091526102008101612b22612b2f565b8152600060209091015290565b60405180604001604052806002906020820280368337509192915050565b60008060408385031215612b6057600080fd5b50508035926020909101359150565b600060208083526080830163ffffffff855116828501526001600160401b0382860151166040850152604085015160608086015281815180845260a0870191508483019350600092505b80831015612bd95783518252928401926001929092019190840190612bb9565b509695505050505050565b600081518084526020808501945080840160005b83811015612c1457815187529582019590820190600101612bf8565b509495945050505050565b6020815260006108ea6020830184612be4565b600080600060608486031215612c4757600080fd5b505081359360208301359350604090920135919050565b600060208284031215612c7057600080fd5b5035919050565b60008060008060808587031215612c8d57600080fd5b5050823594602084013594506040840135936060013592509050565b634e487b7160e01b600052604160045260246000fd5b60405160e081016001600160401b0381118282101715612ce157612ce1612ca9565b60405290565b604051608081016001600160401b0381118282101715612ce157612ce1612ca9565b60405161024081016001600160401b0381118282101715612ce157612ce1612ca9565b60405160a081016001600160401b0381118282101715612ce157612ce1612ca9565b604051601f8201601f191681016001600160401b0381118282101715612d7657612d76612ca9565b604052919050565b60006001600160401b03821115612d9757612d97612ca9565b5060051b60200190565b6001600160a01b0381168114612db657600080fd5b50565b600082601f830112612dca57600080fd5b81356020612ddf612dda83612d7e565b612d4e565b82815260059290921b84018101918181019086841115612dfe57600080fd5b8286015b84811015612bd95780358352918301918301612e02565b6000601f8381840112612e2b57600080fd5b82356020612e3b612dda83612d7e565b82815260059290921b85018101918181019087841115612e5a57600080fd5b8287015b848110156115485780356001600160401b0380821115612e7e5760008081fd5b818a0191508a603f830112612e935760008081fd5b85820135604082821115612ea957612ea9612ca9565b612eba828b01601f19168901612d4e565b92508183528c81838601011115612ed15760008081fd5b8181850189850137506000908201870152845250918301918301612e5e565b600080600080600080600060e0888a031215612f0b57600080fd5b873596506020808901356001600160401b0380821115612f2a57600080fd5b818b0191508b601f830112612f3e57600080fd5b8135612f4c612dda82612d7e565b81815260059190911b8301840190848101908e831115612f6b57600080fd5b938501935b82851015612f92578435612f8381612da1565b82529385019390850190612f70565b9a50505060408b0135925080831115612faa57600080fd5b612fb68c848d01612db9565b975060608b0135925080831115612fcc57600080fd5b5050612fda8a828b01612e19565b979a969950949760808101359660a0820135965060c090910135945092505050565b60006020828403121561300e57600080fd5b813561301981612da1565b9392505050565b6000602080835260c0830164ffffffffff8086511683860152828601516001600160401b038082166040880152806040890151166060880152505063ffffffff6060870151166080860152608086015160a08087015282815180855260e0880191508583019450600092505b808310156115485784518416825293850193600192909201919085019061308c565b61ffff81168114612db657600080fd5b6001600160401b0381168114612db657600080fd5b64ffffffffff81168114612db657600080fd5b80356130f1816130d3565b919050565b65ffffffffffff81168114612db657600080fd5b80356130f1816130f6565b63ffffffff81168114612db657600080fd5b80356130f181613115565b60008082840361010081121561314757600080fd5b60e081121561315557600080fd5b5061315e612cbf565b8335613169816130ae565b81526020840135613179816130be565b6020820152604084013561318c816130ae565b6040820152606084013561319f816130d3565b60608201526131b0608085016130e6565b60808201526131c160a0850161310a565b60a08201526131d260c08501613127565b60c08201529460e0939093013593505050565b600080600080600060a086880312156131fd57600080fd5b853594506020860135935060408601359250606086013561321d81612da1565b949793965091946080013592915050565b60008082840360a081121561324257600080fd5b833592506080601f198201121561325857600080fd5b50613261612ce7565b602084013561326f816130be565b8152604084013561327f816130be565b60208201526060840135613292816130be565b604082015260808401356132a5816130be565b6060820152919491935090915050565b61ffff8082511683526001600160401b03602083015116602084015280604083015116604084015250606081015164ffffffffff8082166060850152806080840151166080850152505065ffffffffffff60a08201511660a083015263ffffffff60c08201511660c08301525050565b8060005b600281101561334f57815164ffffffffff16845260209384019390910190600101613329565b50505050565b805161ffff1682526020810151613371602084018260ff169052565b506040810151613386604084018260ff169052565b50606081015161339c606084018261ffff169052565b5060808101516133b2608084018261ffff169052565b5060a08101516133c860a084018261ffff169052565b5060c08101516133dc60c084018215159052565b5060e08101516133f060e084018215159052565b5061010081810151151590830152610120808201511515908301526101408082015160ff9081169184019190915261016080830151821690840152610180808301518216908401526101a0808301518216908401526101c0808301518216908401526101e080830151909116908301526102008082015161347382850182613325565b5050610220015161ffff166102409190910152565b60006104408201905061349c8284516132b5565b602083810151805164ffffffffff1660e08501529081015165ffffffffffff908116610100850152604082015181166101208501526060820151811661014085015260808201511661016084015260a081015161ffff81166101808501525060c0015160ff81166101a084015250604083015161351d6101c0840182613355565b50606083015161042083015292915050565b6000806000806080858703121561354557600080fd5b843593506020850135925060408501359150606085013561356581612da1565b939692955090935050565b6000806000806080858703121561358657600080fd5b843561359181612da1565b966020860135965060408601359560600135945092505050565b600080600080608085870312156135c157600080fd5b8435935060208501356135d381612da1565b925060408501356135e381612da1565b9150606085013561356581612da1565b805180151581146130f157600080fd5b60006020828403121561361557600080fd5b6108ea826135f3565b60208082526026908201527f41432e6f6e6c794469726563744b65657065723a206e6f74206469726563742060408201526535b2b2b832b960d11b606082015260800190565b60006020828403121561367657600080fd5b815161301981612da1565b805160ff811681146130f157600080fd5b80516130f1816130f6565b600060e082840312156136af57600080fd5b6136b7612cbf565b82516136c2816130d3565b81526136d060208401613681565b602082015260408301516136e381613115565b604082015260608301516136f6816130be565b60608201526080830151613709816130f6565b608082015260a083015161371c816130be565b60a082015260c0928301519281019290925250919050565b60006020828403121561374657600080fd5b8151613019816130d3565b600082601f83011261376257600080fd5b81516020613772612dda83612d7e565b82815260059290921b8401810191818101908684111561379157600080fd5b8286015b84811015612bd95780518352918301918301613795565b6000602082840312156137be57600080fd5b81516001600160401b03808211156137d557600080fd5b90830190606082860312156137e957600080fd5b60405160608101818110838211171561380457613804612ca9565b604052825161381281613115565b81526020830151613822816130be565b602082015260408301518281111561383957600080fd5b61384587828601613751565b60408301525095945050505050565b60006020828403121561386657600080fd5b81516001600160401b0381111561387c57600080fd5b611ea884828501613751565b80516130f1816130ae565b600060e082840312156138a557600080fd5b6138ad612cbf565b905081516138ba816130ae565b815260208201516138ca816130be565b602082015260408201516138dd816130ae565b604082015260608201516138f0816130d3565b60608201526080820151613903816130d3565b608082015260a0820151613916816130f6565b60a082015260c082015161392981613115565b60c082015292915050565b600082601f83011261394557600080fd5b604051604081018181106001600160401b038211171561396757613967612ca9565b806040525080604084018581111561397e57600080fd5b845b818110156139a1578051613993816130d3565b835260209283019201613980565b509195945050505050565b600061026082840312156139bf57600080fd5b6139c7612d09565b90506139d282613888565b81526139e060208301613681565b60208201526139f160408301613681565b6040820152613a0260608301613888565b6060820152613a1360808301613888565b6080820152613a2460a08301613888565b60a0820152613a3560c083016135f3565b60c0820152613a4660e083016135f3565b60e0820152610100613a598184016135f3565b90820152610120613a6b8382016135f3565b90820152610140613a7d838201613681565b90820152610160613a8f838201613681565b90820152610180613aa1838201613681565b908201526101a0613ab3838201613681565b908201526101c0613ac5838201613681565b908201526101e0613ad7838201613681565b90820152610200613aea84848301613934565b90820152613afb6102408301613888565b61022082015292915050565b6000818303610440811215613b1b57600080fd5b613b23612ce7565b613b2d8585613893565b815260e060df1983011215613b4157600080fd5b613b49612cbf565b915060e0840151613b59816130d3565b8252610100840151613b6a816130f6565b6020830152610120840151613b7e816130f6565b6040830152610140840151613b92816130f6565b6060830152613ba46101608501613692565b6080830152613bb66101808501613888565b60a0830152613bc86101a08501613681565b60c0830152816020820152613be1856101c086016139ac565b604082015261042093909301516060840152509092915050565b60006020808385031215613c0e57600080fd5b82516001600160401b0380821115613c2557600080fd5b9084019060a08287031215613c3957600080fd5b613c41612d2c565b8251613c4c816130d3565b815282840151613c5b816130be565b818501526040830151613c6d816130be565b60408201526060830151613c8081613115565b6060820152608083015182811115613c9757600080fd5b80840193505086601f840112613cac57600080fd5b82519150613cbc612dda83612d7e565b82815260059290921b83018401918481019088841115613cdb57600080fd5b938501935b83851015613d02578451613cf3816130d3565b82529385019390850190613ce0565b6080830152509695505050505050565b8381526101208101613d2760208301856132b5565b82610100830152949350505050565b600060e08284031215613d4857600080fd5b6108ea8383613893565b60e081016108ed82846132b5565b600060208284031215613d7257600080fd5b5051919050565b600060208284031215613d8b57600080fd5b6108ea82613681565b600060208284031215613da657600080fd5b8151613019816130be565b600060a08201878352602060a08185015281885180845260c086019150828a01935060005b81811015613dfb5784516001600160a01b031683529383019391830191600101613dd6565b50508481036040860152613e0f8189612be4565b92505083820360608501528186518084528284019150828160051b85010183890160005b83811015613e9a57601f19808885030186528251805180865260005b81811015613e6a578281018a01518782018b01528901613e4f565b81811115613e7b5760008a83890101525b5096880196601f01909116939093018601925090850190600101613e33565b50508095505050505050826080830152969550505050505056fea264697066735822122055773333434c2de21bc84dc745a597385d9177a77319a386be31f143de0ab0bf64736f6c63430008080033",
    "sourcePath": "/Users/kaptain/github.com/comboox/comboox/contracts/common/components/MeetingMinutes.sol",
    "compiler": {
        "name": "solc",
        "version": "0.8.8+commit.dddeac2f"
    },
    "functionHashes": {
        "abandonRole(bytes32)": "3da9a600",
        "addMotion((uint16,uint64,uint16,uint40,uint40,uint48,uint32),uint256)": "7ee423de",
        "castVote(uint256,uint256,bytes32,address,uint256)": "88125cf7",
        "entrustDelegate(uint256,uint256,uint256,uint256)": "585aebc6",
        "execAction(uint256,address[],uint256[],bytes[],bytes32,uint256,uint256)": "5c2753bf",
        "execResolution(uint256,uint256,uint256)": "2d3eaa40",
        "finalized()": "b3f05b97",
        "getBallot(uint256,uint256)": "0d358757",
        "getBookeeper()": "ed211023",
        "getCaseOfAttitude(uint256,uint256)": "165dd5ec",
        "getDelegateOf(uint256,uint256)": "9a51cdfc",
        "getGeneralCounsel()": "103f6edd",
        "getLeavesWeightAtDate(uint256,uint256,uint256,address)": "c41f49b0",
        "getMotion(uint256)": "ad15aad2",
        "getOwner()": "893d20e8",
        "getSeqList()": "243fbc21",
        "getVoterOfDelegateMap(uint256,uint256)": "61df743f",
        "grantRole(bytes32,uint256)": "1b6ea9f9",
        "hasRole(bytes32,uint256)": "7e063c5a",
        "init(uint256,address,address,address)": "dc890da9",
        "isPassed(uint256)": "49403183",
        "isProposed(uint256)": "59269f82",
        "isVoted(uint256,uint256)": "ea56efc6",
        "isVotedFor(uint256,uint256,uint256)": "9371bd1e",
        "lockContents()": "f045a769",
        "nominateOfficer(uint256,uint256,uint256,uint256)": "4f6413ac",
        "proposeAction(uint256,address[],uint256[],bytes[],bytes32,uint256,uint256)": "bbfd607d",
        "proposeDoc(address,uint256,uint256,uint256)": "cd43b165",
        "proposeMotion(uint256,uint256)": "096f3abe",
        "proposeToRemoveOfficer(uint256,uint256,uint256)": "65a47e81",
        "removeDirectKeeper(address)": "5d7ad88f",
        "renounceRole(bytes32)": "8bb9c5bf",
        "revokeRole(bytes32,uint256)": "19d61ad9",
        "setDirectKeeper(address)": "6be8496f",
        "setGeneralCounsel(uint256)": "4a14beb1",
        "setOwner(uint256)": "8041494e",
        "setRoleAdmin(bytes32,uint256)": "5171ebd4",
        "voteCounting(uint256,(uint64,uint64,uint64,uint64))": "a0743e71",
        "voteEnded(uint256)": "b43a401d",
        "voteStarted(uint256)": "a1e1d621"
    },
    "gasEstimates": {
        "creation": {
            "codeDepositCost": "3221200",
            "executionCost": "3571",
            "totalCost": "3224771"
        },
        "external": {
            "abandonRole(bytes32)": "infinite",
            "addMotion((uint16,uint64,uint16,uint40,uint40,uint48,uint32),uint256)": "infinite",
            "castVote(uint256,uint256,bytes32,address,uint256)": "infinite",
            "entrustDelegate(uint256,uint256,uint256,uint256)": "infinite",
            "execAction(uint256,address[],uint256[],bytes[],bytes32,uint256,uint256)": "infinite",
            "execResolution(uint256,uint256,uint256)": "infinite",
            "finalized()": "2394",
            "getBallot(uint256,uint256)": "infinite",
            "getBookeeper()": "infinite",
            "getCaseOfAttitude(uint256,uint256)": "infinite",
            "getDelegateOf(uint256,uint256)": "infinite",
            "getGeneralCounsel()": "infinite",
            "getLeavesWeightAtDate(uint256,uint256,uint256,address)": "infinite",
            "getMotion(uint256)": "infinite",
            "getOwner()": "infinite",
            "getSeqList()": "infinite",
            "getVoterOfDelegateMap(uint256,uint256)": "infinite",
            "grantRole(bytes32,uint256)": "infinite",
            "hasRole(bytes32,uint256)": "infinite",
            "init(uint256,address,address,address)": "infinite",
            "isPassed(uint256)": "infinite",
            "isProposed(uint256)": "infinite",
            "isVoted(uint256,uint256)": "infinite",
            "isVotedFor(uint256,uint256,uint256)": "infinite",
            "lockContents()": "infinite",
            "nominateOfficer(uint256,uint256,uint256,uint256)": "infinite",
            "proposeAction(uint256,address[],uint256[],bytes[],bytes32,uint256,uint256)": "infinite",
            "proposeDoc(address,uint256,uint256,uint256)": "infinite",
            "proposeMotion(uint256,uint256)": "infinite",
            "proposeToRemoveOfficer(uint256,uint256,uint256)": "infinite",
            "removeDirectKeeper(address)": "infinite",
            "renounceRole(bytes32)": "infinite",
            "revokeRole(bytes32,uint256)": "infinite",
            "setDirectKeeper(address)": "infinite",
            "setGeneralCounsel(uint256)": "infinite",
            "setOwner(uint256)": "infinite",
            "setRoleAdmin(bytes32,uint256)": "infinite",
            "voteCounting(uint256,(uint64,uint64,uint64,uint64))": "infinite",
            "voteEnded(uint256)": "infinite",
            "voteStarted(uint256)": "infinite"
        },
        "internal": {
            "_hashAction(uint256,address[] memory,uint256[] memory,bytes memory[] memory,bytes32)": "infinite"
        }
    }
}