{
    "contractName": "MeetingMinutes",
    "abi": [
        {
            "anonymous": false,
            "inputs": [
                {
                    "indexed": true,
                    "internalType": "uint256",
                    "name": "seqOfMotion",
                    "type": "uint256"
                },
                {
                    "indexed": true,
                    "internalType": "uint256",
                    "name": "caller",
                    "type": "uint256"
                },
                {
                    "indexed": true,
                    "internalType": "uint256",
                    "name": "attitude",
                    "type": "uint256"
                },
                {
                    "indexed": false,
                    "internalType": "bytes32",
                    "name": "sigHash",
                    "type": "bytes32"
                }
            ],
            "name": "CastVoteInBoardMeeting",
            "type": "event"
        },
        {
            "anonymous": false,
            "inputs": [
                {
                    "indexed": true,
                    "internalType": "uint256",
                    "name": "seqOfMotion",
                    "type": "uint256"
                },
                {
                    "indexed": true,
                    "internalType": "uint256",
                    "name": "caller",
                    "type": "uint256"
                },
                {
                    "indexed": true,
                    "internalType": "uint256",
                    "name": "attitude",
                    "type": "uint256"
                },
                {
                    "indexed": false,
                    "internalType": "bytes32",
                    "name": "sigHash",
                    "type": "bytes32"
                }
            ],
            "name": "CastVoteInGeneralMeeting",
            "type": "event"
        },
        {
            "anonymous": false,
            "inputs": [
                {
                    "indexed": true,
                    "internalType": "bytes32",
                    "name": "snOfMotion",
                    "type": "bytes32"
                },
                {
                    "indexed": true,
                    "internalType": "uint256",
                    "name": "contents",
                    "type": "uint256"
                }
            ],
            "name": "CreateMotion",
            "type": "event"
        },
        {
            "anonymous": false,
            "inputs": [
                {
                    "indexed": true,
                    "internalType": "uint256",
                    "name": "seqOfMotion",
                    "type": "uint256"
                },
                {
                    "indexed": true,
                    "internalType": "uint256",
                    "name": "delegate",
                    "type": "uint256"
                },
                {
                    "indexed": true,
                    "internalType": "uint256",
                    "name": "principal",
                    "type": "uint256"
                }
            ],
            "name": "EntrustDelegate",
            "type": "event"
        },
        {
            "anonymous": false,
            "inputs": [
                {
                    "indexed": true,
                    "internalType": "uint256",
                    "name": "seqOfMotion",
                    "type": "uint256"
                },
                {
                    "indexed": true,
                    "internalType": "uint256",
                    "name": "caller",
                    "type": "uint256"
                }
            ],
            "name": "ExecResolution",
            "type": "event"
        },
        {
            "anonymous": false,
            "inputs": [
                {
                    "indexed": true,
                    "internalType": "uint256",
                    "name": "owner",
                    "type": "uint256"
                },
                {
                    "indexed": true,
                    "internalType": "address",
                    "name": "directKeeper",
                    "type": "address"
                },
                {
                    "indexed": false,
                    "internalType": "address",
                    "name": "regCenter",
                    "type": "address"
                },
                {
                    "indexed": true,
                    "internalType": "address",
                    "name": "generalKeeper",
                    "type": "address"
                }
            ],
            "name": "Init",
            "type": "event"
        },
        {
            "anonymous": false,
            "inputs": [],
            "name": "LockContents",
            "type": "event"
        },
        {
            "anonymous": false,
            "inputs": [
                {
                    "indexed": true,
                    "internalType": "uint256",
                    "name": "seqOfMotion",
                    "type": "uint256"
                },
                {
                    "indexed": true,
                    "internalType": "uint256",
                    "name": "proposer",
                    "type": "uint256"
                }
            ],
            "name": "ProposeMotionToBoard",
            "type": "event"
        },
        {
            "anonymous": false,
            "inputs": [
                {
                    "indexed": true,
                    "internalType": "uint256",
                    "name": "seqOfMotion",
                    "type": "uint256"
                },
                {
                    "indexed": true,
                    "internalType": "uint256",
                    "name": "proposer",
                    "type": "uint256"
                }
            ],
            "name": "ProposeMotionToGeneralMeeting",
            "type": "event"
        },
        {
            "anonymous": false,
            "inputs": [
                {
                    "indexed": true,
                    "internalType": "address",
                    "name": "target",
                    "type": "address"
                }
            ],
            "name": "RemoveDirectKeeper",
            "type": "event"
        },
        {
            "anonymous": false,
            "inputs": [
                {
                    "indexed": true,
                    "internalType": "address",
                    "name": "keeper",
                    "type": "address"
                }
            ],
            "name": "SetDirectKeeper",
            "type": "event"
        },
        {
            "anonymous": false,
            "inputs": [
                {
                    "indexed": true,
                    "internalType": "uint256",
                    "name": "acct",
                    "type": "uint256"
                }
            ],
            "name": "SetGeneralCounsel",
            "type": "event"
        },
        {
            "anonymous": false,
            "inputs": [
                {
                    "indexed": true,
                    "internalType": "uint256",
                    "name": "acct",
                    "type": "uint256"
                }
            ],
            "name": "SetOwner",
            "type": "event"
        },
        {
            "anonymous": false,
            "inputs": [
                {
                    "indexed": true,
                    "internalType": "uint256",
                    "name": "seqOfMotion",
                    "type": "uint256"
                },
                {
                    "indexed": true,
                    "internalType": "uint8",
                    "name": "result",
                    "type": "uint8"
                }
            ],
            "name": "VoteCounting",
            "type": "event"
        },
        {
            "inputs": [
                {
                    "internalType": "bytes32",
                    "name": "role",
                    "type": "bytes32"
                }
            ],
            "name": "abandonRole",
            "outputs": [],
            "stateMutability": "nonpayable",
            "type": "function"
        },
        {
            "inputs": [
                {
                    "internalType": "uint256",
                    "name": "seqOfMotion",
                    "type": "uint256"
                },
                {
                    "internalType": "uint256",
                    "name": "attitude",
                    "type": "uint256"
                },
                {
                    "internalType": "bytes32",
                    "name": "sigHash",
                    "type": "bytes32"
                },
                {
                    "internalType": "uint256",
                    "name": "caller",
                    "type": "uint256"
                }
            ],
            "name": "castVoteInBoardMeeting",
            "outputs": [],
            "stateMutability": "nonpayable",
            "type": "function"
        },
        {
            "inputs": [
                {
                    "internalType": "uint256",
                    "name": "seqOfMotion",
                    "type": "uint256"
                },
                {
                    "internalType": "uint256",
                    "name": "attitude",
                    "type": "uint256"
                },
                {
                    "internalType": "bytes32",
                    "name": "sigHash",
                    "type": "bytes32"
                },
                {
                    "internalType": "uint256",
                    "name": "caller",
                    "type": "uint256"
                }
            ],
            "name": "castVoteInGeneralMeeting",
            "outputs": [],
            "stateMutability": "nonpayable",
            "type": "function"
        },
        {
            "inputs": [
                {
                    "internalType": "uint256",
                    "name": "seqOfVR",
                    "type": "uint256"
                },
                {
                    "internalType": "address[]",
                    "name": "targets",
                    "type": "address[]"
                },
                {
                    "internalType": "uint256[]",
                    "name": "values",
                    "type": "uint256[]"
                },
                {
                    "internalType": "bytes[]",
                    "name": "params",
                    "type": "bytes[]"
                },
                {
                    "internalType": "bytes32",
                    "name": "desHash",
                    "type": "bytes32"
                },
                {
                    "internalType": "uint256",
                    "name": "executor",
                    "type": "uint256"
                },
                {
                    "internalType": "uint256",
                    "name": "proposer",
                    "type": "uint256"
                }
            ],
            "name": "createAction",
            "outputs": [
                {
                    "internalType": "uint64",
                    "name": "",
                    "type": "uint64"
                }
            ],
            "stateMutability": "nonpayable",
            "type": "function"
        },
        {
            "inputs": [
                {
                    "internalType": "address",
                    "name": "doc",
                    "type": "address"
                },
                {
                    "internalType": "uint256",
                    "name": "seqOfVR",
                    "type": "uint256"
                },
                {
                    "internalType": "uint256",
                    "name": "executor",
                    "type": "uint256"
                },
                {
                    "internalType": "uint256",
                    "name": "proposer",
                    "type": "uint256"
                }
            ],
            "name": "createMotionToApproveDoc",
            "outputs": [
                {
                    "internalType": "uint64",
                    "name": "",
                    "type": "uint64"
                }
            ],
            "stateMutability": "nonpayable",
            "type": "function"
        },
        {
            "inputs": [
                {
                    "internalType": "uint256",
                    "name": "seqOfPos",
                    "type": "uint256"
                },
                {
                    "internalType": "uint256",
                    "name": "seqOfVR",
                    "type": "uint256"
                },
                {
                    "internalType": "uint256",
                    "name": "nominator",
                    "type": "uint256"
                }
            ],
            "name": "createMotionToRemoveOfficer",
            "outputs": [
                {
                    "internalType": "uint64",
                    "name": "",
                    "type": "uint64"
                }
            ],
            "stateMutability": "nonpayable",
            "type": "function"
        },
        {
            "inputs": [
                {
                    "internalType": "uint256",
                    "name": "seqOfMotion",
                    "type": "uint256"
                },
                {
                    "internalType": "uint256",
                    "name": "delegate",
                    "type": "uint256"
                },
                {
                    "internalType": "uint256",
                    "name": "principal",
                    "type": "uint256"
                }
            ],
            "name": "entrustDelegate",
            "outputs": [],
            "stateMutability": "nonpayable",
            "type": "function"
        },
        {
            "inputs": [
                {
                    "internalType": "uint256",
                    "name": "seqOfVR",
                    "type": "uint256"
                },
                {
                    "internalType": "address[]",
                    "name": "targets",
                    "type": "address[]"
                },
                {
                    "internalType": "uint256[]",
                    "name": "values",
                    "type": "uint256[]"
                },
                {
                    "internalType": "bytes[]",
                    "name": "params",
                    "type": "bytes[]"
                },
                {
                    "internalType": "bytes32",
                    "name": "desHash",
                    "type": "bytes32"
                },
                {
                    "internalType": "uint256",
                    "name": "seqOfMotion",
                    "type": "uint256"
                },
                {
                    "internalType": "uint256",
                    "name": "caller",
                    "type": "uint256"
                }
            ],
            "name": "execAction",
            "outputs": [
                {
                    "internalType": "uint256",
                    "name": "contents",
                    "type": "uint256"
                }
            ],
            "stateMutability": "nonpayable",
            "type": "function"
        },
        {
            "inputs": [
                {
                    "internalType": "uint256",
                    "name": "seqOfMotion",
                    "type": "uint256"
                },
                {
                    "internalType": "uint256",
                    "name": "contents",
                    "type": "uint256"
                },
                {
                    "internalType": "uint256",
                    "name": "caller",
                    "type": "uint256"
                }
            ],
            "name": "execResolution",
            "outputs": [],
            "stateMutability": "nonpayable",
            "type": "function"
        },
        {
            "inputs": [],
            "name": "finalized",
            "outputs": [
                {
                    "internalType": "bool",
                    "name": "",
                    "type": "bool"
                }
            ],
            "stateMutability": "view",
            "type": "function"
        },
        {
            "inputs": [
                {
                    "internalType": "uint256",
                    "name": "seqOfMotion",
                    "type": "uint256"
                },
                {
                    "internalType": "uint256",
                    "name": "acct",
                    "type": "uint256"
                }
            ],
            "name": "getBallot",
            "outputs": [
                {
                    "components": [
                        {
                            "internalType": "uint40",
                            "name": "acct",
                            "type": "uint40"
                        },
                        {
                            "internalType": "uint8",
                            "name": "attitude",
                            "type": "uint8"
                        },
                        {
                            "internalType": "uint32",
                            "name": "head",
                            "type": "uint32"
                        },
                        {
                            "internalType": "uint64",
                            "name": "weight",
                            "type": "uint64"
                        },
                        {
                            "internalType": "uint48",
                            "name": "sigDate",
                            "type": "uint48"
                        },
                        {
                            "internalType": "uint64",
                            "name": "blocknumber",
                            "type": "uint64"
                        },
                        {
                            "internalType": "bytes32",
                            "name": "sigHash",
                            "type": "bytes32"
                        }
                    ],
                    "internalType": "struct BallotsBox.Ballot",
                    "name": "",
                    "type": "tuple"
                }
            ],
            "stateMutability": "view",
            "type": "function"
        },
        {
            "inputs": [],
            "name": "getBookeeper",
            "outputs": [
                {
                    "internalType": "address",
                    "name": "",
                    "type": "address"
                }
            ],
            "stateMutability": "view",
            "type": "function"
        },
        {
            "inputs": [
                {
                    "internalType": "uint256",
                    "name": "seqOfMotion",
                    "type": "uint256"
                },
                {
                    "internalType": "uint256",
                    "name": "atti",
                    "type": "uint256"
                }
            ],
            "name": "getCaseOfAttitude",
            "outputs": [
                {
                    "components": [
                        {
                            "internalType": "uint32",
                            "name": "sumOfHead",
                            "type": "uint32"
                        },
                        {
                            "internalType": "uint64",
                            "name": "sumOfWeight",
                            "type": "uint64"
                        },
                        {
                            "internalType": "uint256[]",
                            "name": "voters",
                            "type": "uint256[]"
                        }
                    ],
                    "internalType": "struct BallotsBox.Case",
                    "name": "",
                    "type": "tuple"
                }
            ],
            "stateMutability": "view",
            "type": "function"
        },
        {
            "inputs": [
                {
                    "internalType": "uint256",
                    "name": "seqOfMotion",
                    "type": "uint256"
                },
                {
                    "internalType": "uint256",
                    "name": "acct",
                    "type": "uint256"
                }
            ],
            "name": "getDelegateOf",
            "outputs": [
                {
                    "internalType": "uint256",
                    "name": "",
                    "type": "uint256"
                }
            ],
            "stateMutability": "view",
            "type": "function"
        },
        {
            "inputs": [],
            "name": "getGeneralCounsel",
            "outputs": [
                {
                    "internalType": "uint40",
                    "name": "",
                    "type": "uint40"
                }
            ],
            "stateMutability": "view",
            "type": "function"
        },
        {
            "inputs": [
                {
                    "internalType": "uint256",
                    "name": "seqOfMotion",
                    "type": "uint256"
                },
                {
                    "internalType": "uint256",
                    "name": "caller",
                    "type": "uint256"
                },
                {
                    "internalType": "contract IBookOfDirectors",
                    "name": "_bod",
                    "type": "address"
                }
            ],
            "name": "getLeavesHeadcountOfDirectors",
            "outputs": [
                {
                    "internalType": "uint32",
                    "name": "head",
                    "type": "uint32"
                }
            ],
            "stateMutability": "view",
            "type": "function"
        },
        {
            "inputs": [
                {
                    "internalType": "uint256",
                    "name": "seqOfMotion",
                    "type": "uint256"
                },
                {
                    "internalType": "uint256",
                    "name": "caller",
                    "type": "uint256"
                },
                {
                    "internalType": "uint256",
                    "name": "baseDate",
                    "type": "uint256"
                },
                {
                    "internalType": "contract IRegisterOfMembers",
                    "name": "_rom",
                    "type": "address"
                }
            ],
            "name": "getLeavesWeightAtDate",
            "outputs": [
                {
                    "components": [
                        {
                            "internalType": "uint64",
                            "name": "weight",
                            "type": "uint64"
                        },
                        {
                            "internalType": "uint32",
                            "name": "emptyHead",
                            "type": "uint32"
                        }
                    ],
                    "internalType": "struct DelegateMap.LeavesInfo",
                    "name": "info",
                    "type": "tuple"
                }
            ],
            "stateMutability": "view",
            "type": "function"
        },
        {
            "inputs": [
                {
                    "internalType": "uint256",
                    "name": "seqOfMotion",
                    "type": "uint256"
                }
            ],
            "name": "getMotion",
            "outputs": [
                {
                    "components": [
                        {
                            "components": [
                                {
                                    "internalType": "uint16",
                                    "name": "typeOfMotion",
                                    "type": "uint16"
                                },
                                {
                                    "internalType": "uint64",
                                    "name": "seqOfMotion",
                                    "type": "uint64"
                                },
                                {
                                    "internalType": "uint16",
                                    "name": "seqOfVR",
                                    "type": "uint16"
                                },
                                {
                                    "internalType": "uint40",
                                    "name": "creator",
                                    "type": "uint40"
                                },
                                {
                                    "internalType": "uint40",
                                    "name": "executor",
                                    "type": "uint40"
                                },
                                {
                                    "internalType": "uint48",
                                    "name": "createDate",
                                    "type": "uint48"
                                },
                                {
                                    "internalType": "uint32",
                                    "name": "data",
                                    "type": "uint32"
                                }
                            ],
                            "internalType": "struct MotionsRepo.Head",
                            "name": "head",
                            "type": "tuple"
                        },
                        {
                            "components": [
                                {
                                    "internalType": "uint40",
                                    "name": "proposer",
                                    "type": "uint40"
                                },
                                {
                                    "internalType": "uint48",
                                    "name": "proposeDate",
                                    "type": "uint48"
                                },
                                {
                                    "internalType": "uint48",
                                    "name": "shareRegDate",
                                    "type": "uint48"
                                },
                                {
                                    "internalType": "uint48",
                                    "name": "voteStartDate",
                                    "type": "uint48"
                                },
                                {
                                    "internalType": "uint48",
                                    "name": "voteEndDate",
                                    "type": "uint48"
                                },
                                {
                                    "internalType": "uint16",
                                    "name": "para",
                                    "type": "uint16"
                                },
                                {
                                    "internalType": "uint8",
                                    "name": "state",
                                    "type": "uint8"
                                }
                            ],
                            "internalType": "struct MotionsRepo.Body",
                            "name": "body",
                            "type": "tuple"
                        },
                        {
                            "components": [
                                {
                                    "internalType": "uint16",
                                    "name": "seqOfRule",
                                    "type": "uint16"
                                },
                                {
                                    "internalType": "uint8",
                                    "name": "qtyOfSubRule",
                                    "type": "uint8"
                                },
                                {
                                    "internalType": "uint8",
                                    "name": "seqOfSubRule",
                                    "type": "uint8"
                                },
                                {
                                    "internalType": "uint16",
                                    "name": "authority",
                                    "type": "uint16"
                                },
                                {
                                    "internalType": "uint16",
                                    "name": "headRatio",
                                    "type": "uint16"
                                },
                                {
                                    "internalType": "uint16",
                                    "name": "amountRatio",
                                    "type": "uint16"
                                },
                                {
                                    "internalType": "bool",
                                    "name": "onlyAttendance",
                                    "type": "bool"
                                },
                                {
                                    "internalType": "bool",
                                    "name": "impliedConsent",
                                    "type": "bool"
                                },
                                {
                                    "internalType": "bool",
                                    "name": "partyAsConsent",
                                    "type": "bool"
                                },
                                {
                                    "internalType": "bool",
                                    "name": "againstShallBuy",
                                    "type": "bool"
                                },
                                {
                                    "internalType": "uint8",
                                    "name": "shaExecDays",
                                    "type": "uint8"
                                },
                                {
                                    "internalType": "uint8",
                                    "name": "shaConfirmDays",
                                    "type": "uint8"
                                },
                                {
                                    "internalType": "uint8",
                                    "name": "reconsiderDays",
                                    "type": "uint8"
                                },
                                {
                                    "internalType": "uint8",
                                    "name": "votePrepareDays",
                                    "type": "uint8"
                                },
                                {
                                    "internalType": "uint8",
                                    "name": "votingDays",
                                    "type": "uint8"
                                },
                                {
                                    "internalType": "uint8",
                                    "name": "execDaysForPutOpt",
                                    "type": "uint8"
                                },
                                {
                                    "internalType": "uint40[2]",
                                    "name": "vetoers",
                                    "type": "uint40[2]"
                                },
                                {
                                    "internalType": "uint16",
                                    "name": "para",
                                    "type": "uint16"
                                }
                            ],
                            "internalType": "struct RulesParser.VotingRule",
                            "name": "votingRule",
                            "type": "tuple"
                        },
                        {
                            "internalType": "uint256",
                            "name": "contents",
                            "type": "uint256"
                        }
                    ],
                    "internalType": "struct MotionsRepo.Motion",
                    "name": "motion",
                    "type": "tuple"
                }
            ],
            "stateMutability": "view",
            "type": "function"
        },
        {
            "inputs": [],
            "name": "getOwner",
            "outputs": [
                {
                    "internalType": "uint40",
                    "name": "",
                    "type": "uint40"
                }
            ],
            "stateMutability": "view",
            "type": "function"
        },
        {
            "inputs": [],
            "name": "getSeqList",
            "outputs": [
                {
                    "internalType": "uint256[]",
                    "name": "",
                    "type": "uint256[]"
                }
            ],
            "stateMutability": "view",
            "type": "function"
        },
        {
            "inputs": [
                {
                    "internalType": "uint256",
                    "name": "seqOfMotion",
                    "type": "uint256"
                },
                {
                    "internalType": "uint256",
                    "name": "acct",
                    "type": "uint256"
                }
            ],
            "name": "getVoterOfDelegateMap",
            "outputs": [
                {
                    "components": [
                        {
                            "internalType": "uint40",
                            "name": "delegate",
                            "type": "uint40"
                        },
                        {
                            "internalType": "uint64",
                            "name": "weight",
                            "type": "uint64"
                        },
                        {
                            "internalType": "uint64",
                            "name": "repWeight",
                            "type": "uint64"
                        },
                        {
                            "internalType": "uint32",
                            "name": "repHead",
                            "type": "uint32"
                        },
                        {
                            "internalType": "uint40[]",
                            "name": "principals",
                            "type": "uint40[]"
                        }
                    ],
                    "internalType": "struct DelegateMap.Voter",
                    "name": "",
                    "type": "tuple"
                }
            ],
            "stateMutability": "view",
            "type": "function"
        },
        {
            "inputs": [
                {
                    "internalType": "bytes32",
                    "name": "role",
                    "type": "bytes32"
                },
                {
                    "internalType": "uint256",
                    "name": "acct",
                    "type": "uint256"
                }
            ],
            "name": "grantRole",
            "outputs": [],
            "stateMutability": "nonpayable",
            "type": "function"
        },
        {
            "inputs": [
                {
                    "internalType": "bytes32",
                    "name": "role",
                    "type": "bytes32"
                },
                {
                    "internalType": "uint256",
                    "name": "acct",
                    "type": "uint256"
                }
            ],
            "name": "hasRole",
            "outputs": [
                {
                    "internalType": "bool",
                    "name": "",
                    "type": "bool"
                }
            ],
            "stateMutability": "view",
            "type": "function"
        },
        {
            "inputs": [
                {
                    "internalType": "uint256",
                    "name": "owner",
                    "type": "uint256"
                },
                {
                    "internalType": "address",
                    "name": "directKeeper",
                    "type": "address"
                },
                {
                    "internalType": "address",
                    "name": "regCenter",
                    "type": "address"
                },
                {
                    "internalType": "address",
                    "name": "generalKeeper",
                    "type": "address"
                }
            ],
            "name": "init",
            "outputs": [],
            "stateMutability": "nonpayable",
            "type": "function"
        },
        {
            "inputs": [
                {
                    "internalType": "uint256",
                    "name": "seqOfMotion",
                    "type": "uint256"
                }
            ],
            "name": "isPassed",
            "outputs": [
                {
                    "internalType": "bool",
                    "name": "",
                    "type": "bool"
                }
            ],
            "stateMutability": "view",
            "type": "function"
        },
        {
            "inputs": [
                {
                    "internalType": "uint256",
                    "name": "seqOfMotion",
                    "type": "uint256"
                }
            ],
            "name": "isProposed",
            "outputs": [
                {
                    "internalType": "bool",
                    "name": "",
                    "type": "bool"
                }
            ],
            "stateMutability": "view",
            "type": "function"
        },
        {
            "inputs": [
                {
                    "internalType": "uint256",
                    "name": "seqOfMotion",
                    "type": "uint256"
                },
                {
                    "internalType": "uint256",
                    "name": "acct",
                    "type": "uint256"
                }
            ],
            "name": "isVoted",
            "outputs": [
                {
                    "internalType": "bool",
                    "name": "",
                    "type": "bool"
                }
            ],
            "stateMutability": "view",
            "type": "function"
        },
        {
            "inputs": [
                {
                    "internalType": "uint256",
                    "name": "seqOfMotion",
                    "type": "uint256"
                },
                {
                    "internalType": "uint256",
                    "name": "acct",
                    "type": "uint256"
                },
                {
                    "internalType": "uint256",
                    "name": "atti",
                    "type": "uint256"
                }
            ],
            "name": "isVotedFor",
            "outputs": [
                {
                    "internalType": "bool",
                    "name": "",
                    "type": "bool"
                }
            ],
            "stateMutability": "view",
            "type": "function"
        },
        {
            "inputs": [],
            "name": "lockContents",
            "outputs": [],
            "stateMutability": "nonpayable",
            "type": "function"
        },
        {
            "inputs": [
                {
                    "internalType": "uint256",
                    "name": "seqOfPos",
                    "type": "uint256"
                },
                {
                    "internalType": "uint256",
                    "name": "seqOfVR",
                    "type": "uint256"
                },
                {
                    "internalType": "uint256",
                    "name": "candidate",
                    "type": "uint256"
                },
                {
                    "internalType": "uint256",
                    "name": "nominator",
                    "type": "uint256"
                }
            ],
            "name": "nominateOfficer",
            "outputs": [
                {
                    "internalType": "uint64",
                    "name": "",
                    "type": "uint64"
                }
            ],
            "stateMutability": "nonpayable",
            "type": "function"
        },
        {
            "inputs": [
                {
                    "internalType": "uint256",
                    "name": "seqOfMotion",
                    "type": "uint256"
                },
                {
                    "internalType": "uint256",
                    "name": "caller",
                    "type": "uint256"
                }
            ],
            "name": "proposeMotionToBoard",
            "outputs": [],
            "stateMutability": "nonpayable",
            "type": "function"
        },
        {
            "inputs": [
                {
                    "internalType": "uint256",
                    "name": "seqOfMotion",
                    "type": "uint256"
                },
                {
                    "internalType": "uint256",
                    "name": "proposer",
                    "type": "uint256"
                }
            ],
            "name": "proposeMotionToGeneralMeeting",
            "outputs": [],
            "stateMutability": "nonpayable",
            "type": "function"
        },
        {
            "inputs": [
                {
                    "internalType": "address",
                    "name": "target",
                    "type": "address"
                }
            ],
            "name": "removeDirectKeeper",
            "outputs": [],
            "stateMutability": "nonpayable",
            "type": "function"
        },
        {
            "inputs": [
                {
                    "internalType": "bytes32",
                    "name": "role",
                    "type": "bytes32"
                }
            ],
            "name": "renounceRole",
            "outputs": [],
            "stateMutability": "nonpayable",
            "type": "function"
        },
        {
            "inputs": [
                {
                    "internalType": "bytes32",
                    "name": "role",
                    "type": "bytes32"
                },
                {
                    "internalType": "uint256",
                    "name": "acct",
                    "type": "uint256"
                }
            ],
            "name": "revokeRole",
            "outputs": [],
            "stateMutability": "nonpayable",
            "type": "function"
        },
        {
            "inputs": [
                {
                    "internalType": "address",
                    "name": "keeper",
                    "type": "address"
                }
            ],
            "name": "setDirectKeeper",
            "outputs": [],
            "stateMutability": "nonpayable",
            "type": "function"
        },
        {
            "inputs": [
                {
                    "internalType": "uint256",
                    "name": "acct",
                    "type": "uint256"
                }
            ],
            "name": "setGeneralCounsel",
            "outputs": [],
            "stateMutability": "nonpayable",
            "type": "function"
        },
        {
            "inputs": [
                {
                    "internalType": "uint256",
                    "name": "acct",
                    "type": "uint256"
                }
            ],
            "name": "setOwner",
            "outputs": [],
            "stateMutability": "nonpayable",
            "type": "function"
        },
        {
            "inputs": [
                {
                    "internalType": "bytes32",
                    "name": "role",
                    "type": "bytes32"
                },
                {
                    "internalType": "uint256",
                    "name": "acct",
                    "type": "uint256"
                }
            ],
            "name": "setRoleAdmin",
            "outputs": [],
            "stateMutability": "nonpayable",
            "type": "function"
        },
        {
            "inputs": [
                {
                    "internalType": "bool",
                    "name": "flag0",
                    "type": "bool"
                },
                {
                    "internalType": "uint256",
                    "name": "seqOfMotion",
                    "type": "uint256"
                },
                {
                    "components": [
                        {
                            "internalType": "uint32",
                            "name": "totalHead",
                            "type": "uint32"
                        },
                        {
                            "internalType": "uint64",
                            "name": "totalWeight",
                            "type": "uint64"
                        },
                        {
                            "internalType": "uint32",
                            "name": "supportHead",
                            "type": "uint32"
                        },
                        {
                            "internalType": "uint64",
                            "name": "supportWeight",
                            "type": "uint64"
                        },
                        {
                            "internalType": "uint16",
                            "name": "attendHeadRatio",
                            "type": "uint16"
                        },
                        {
                            "internalType": "uint16",
                            "name": "attendWeightRatio",
                            "type": "uint16"
                        },
                        {
                            "internalType": "uint16",
                            "name": "para",
                            "type": "uint16"
                        },
                        {
                            "internalType": "uint8",
                            "name": "state",
                            "type": "uint8"
                        },
                        {
                            "internalType": "bool",
                            "name": "unaniConsent",
                            "type": "bool"
                        }
                    ],
                    "internalType": "struct MotionsRepo.VoteCalBase",
                    "name": "base",
                    "type": "tuple"
                }
            ],
            "name": "voteCounting",
            "outputs": [
                {
                    "internalType": "uint8",
                    "name": "result",
                    "type": "uint8"
                }
            ],
            "stateMutability": "nonpayable",
            "type": "function"
        },
        {
            "inputs": [
                {
                    "internalType": "uint256",
                    "name": "seqOfMotion",
                    "type": "uint256"
                }
            ],
            "name": "voteEnded",
            "outputs": [
                {
                    "internalType": "bool",
                    "name": "",
                    "type": "bool"
                }
            ],
            "stateMutability": "view",
            "type": "function"
        },
        {
            "inputs": [
                {
                    "internalType": "uint256",
                    "name": "seqOfMotion",
                    "type": "uint256"
                }
            ],
            "name": "voteStarted",
            "outputs": [
                {
                    "internalType": "bool",
                    "name": "",
                    "type": "bool"
                }
            ],
            "stateMutability": "view",
            "type": "function"
        }
    ],
    "bytecode": "608060405234801561001057600080fd5b506146d4806100206000396000f3fe608060405234801561001057600080fd5b506004361061025e5760003560e01c8063893d20e811610146578063c41f49b0116100c3578063ec83613b11610087578063ec83613b14610636578063ed21102314610649578063f045a76914610669578063f04e47ab14610671578063fb03054814610696578063fe1bdff2146106a957600080fd5b8063c41f49b0146105ad578063d9677b0c146105ea578063da8b76bc146105fd578063dc890da914610610578063ea56efc61461062357600080fd5b8063a1e1d6211161010a578063a1e1d62114610540578063ab86a9d914610553578063ad15aad214610566578063b3f05b9714610586578063b43a401d1461059a57600080fd5b8063893d20e8146104ec5780638bb9c5bf146104f45780639371bd1e146105075780639a51cdfc1461051a578063a0d100ef1461052d57600080fd5b806349403183116101df5780635c2753bf116101a35780635c2753bf1461045f5780635d7ad88f1461048057806361df743f146104935780636be8496f146104b35780637e063c5a146104c65780638041494e146104d957600080fd5b806349403183146103d85780634a14beb1146103fb5780634f6413ac1461040e5780635171ebd41461043957806359269f821461044c57600080fd5b806322d49e2c1161022657806322d49e2c14610362578063243fbc211461038a5780632d3eaa401461039f5780633da9a600146103b257806348c01a8b146103c557600080fd5b80630d35875714610263578063103f6edd146102fc578063165dd5ec1461031a57806319d61ad91461033a5780631b6ea9f91461034f575b600080fd5b610276610271366004613236565b6106bc565b6040516102f39190600060e08201905064ffffffffff835116825260ff602084015116602083015263ffffffff604084015116604083015260608301516001600160401b03808216606085015265ffffffffffff60808601511660808501528060a08601511660a0850152505060c083015160c083015292915050565b60405180910390f35b61030461078a565b60405164ffffffffff90911681526020016102f3565b61032d610328366004613236565b610816565b6040516102f39190613258565b61034d610348366004613236565b6108c2565b005b61034d61035d366004613236565b610954565b6103756103703660046132e5565b61097a565b60405163ffffffff90911681526020016102f3565b610392610a24565b6040516102f39190613359565b61034d6103ad36600461336c565b610aad565b61034d6103c0366004613398565b610ca5565b61034d6103d3366004613236565b610d30565b6103eb6103e6366004613398565b610f99565b60405190151581526020016102f3565b61034d610409366004613398565b611026565b61042161041c3660046133b1565b61127b565b6040516001600160401b0390911681526020016102f3565b61034d610447366004613236565b61133a565b6103eb61045a366004613398565b611360565b61047261046d366004613657565b6113a1565b6040519081526020016102f3565b61034d61048e366004613763565b611555565b6104a66104a1366004613236565b61168a565b6040516102f39190613787565b61034d6104c1366004613763565b611747565b6103eb6104d4366004613236565b6117f6565b61034d6104e7366004613398565b61188b565b610304611941565b61034d610502366004613398565b61197c565b6103eb61051536600461336c565b6119a1565b610472610528366004613236565b611a3b565b61034d61053b3660046133b1565b611ace565b6103eb61054e366004613398565b611cd4565b610421610561366004613657565b611d15565b610579610574366004613398565b611de9565b6040516102f391906139e8565b60028054600160f01b900460ff16146103eb565b6103eb6105a8366004613398565b611e7b565b6105c06105bb366004613a8f565b611ebc565b6040805182516001600160401b0316815260209283015163ffffffff1692810192909252016102f3565b61034d6105f83660046133b1565b611f73565b61042161060b366004613ad0565b61216b565b61034d61061e366004613b0b565b61222a565b6103eb610631366004613236565b6122f9565b61034d610644366004613236565b612341565b610651612637565b6040516001600160a01b0390911681526020016102f3565b61034d6126bd565b61068461067f366004613be3565b612907565b60405160ff90911681526020016102f3565b6104216106a436600461336c565b612a76565b61034d6106b736600461336c565b612b2c565b6040805160e081018252600080825260208201819052818301819052606082018190526080820181905260a0820181905260c08201529051635eeb98eb60e01b8152600480820152602481018490526044810183905273__$48fdb68298ec07f9843b28bfe921898719$__90635eeb98eb9060640160e06040518083038186803b15801561074957600080fd5b505af415801561075d573d6000803e3d6000fd5b505050506040513d601f19601f820116820180604052508101906107819190613d06565b90505b92915050565b60405163e8c0cc1d60e01b81526002600482015260009073__$a374c895e6fa8c448878668e00d93ef99a$__9063e8c0cc1d906024015b60206040518083038186803b1580156107d957600080fd5b505af41580156107ed573d6000803e3d6000fd5b505050506040513d601f19601f820116820180604052508101906108119190613d9b565b905090565b6040805160608082018352600080835260208301528183015290516341335f3560e01b8152600480820152602481018490526044810183905273__$48fdb68298ec07f9843b28bfe921898719$__906341335f359060640160006040518083038186803b15801561088657600080fd5b505af415801561089a573d6000803e3d6000fd5b505050506040513d6000823e601f3d908101601f191682016040526107819190810190613e11565b73__$a374c895e6fa8c448878668e00d93ef99a$__6382daafaa600284846108e8612dcd565b6040516001600160e01b031960e087901b16815260048101949094526024840192909252604483015264ffffffffff16606482015260840160006040518083038186803b15801561093857600080fd5b505af415801561094c573d6000803e3d6000fd5b505050505050565b73__$a374c895e6fa8c448878668e00d93ef99a$__636320d75e600284846108e8612dcd565b604051630180521b60e11b815260048082015260248101849052604481018390526001600160a01b038216606482015260009073__$48fdb68298ec07f9843b28bfe921898719$__90630300a4369060840160206040518083038186803b1580156109e457600080fd5b505af41580156109f8573d6000803e3d6000fd5b505050506040513d601f19601f82011682018060405250810190610a1c9190613eb9565b949350505050565b604051631cfd0e3f60e01b815260048082015260609073__$48fdb68298ec07f9843b28bfe921898719$__90631cfd0e3f9060240160006040518083038186803b158015610a7157600080fd5b505af4158015610a85573d6000803e3d6000fd5b505050506040513d6000823e601f3d908101601f191682016040526108119190810190613ed6565b604051633b11adbf60e21b81526002600482015233602482015273__$a374c895e6fa8c448878668e00d93ef99a$__9063ec46b6fc9060440160206040518083038186803b158015610afe57600080fd5b505af4158015610b12573d6000803e3d6000fd5b505050506040513d601f19601f82011682018060405250810190610b369190613f15565b80610bb757506001546040516335d2155560e11b81523360048201526001600160a01b0390911690636ba42aaa9060240160206040518083038186803b158015610b7f57600080fd5b505afa158015610b93573d6000803e3d6000fd5b505050506040513d601f19601f82011682018060405250810190610bb79190613f15565b610bfc5760405162461bcd60e51b815260206004820152601160248201527020a19737b59d103737ba1025b2b2b832b960791b60448201526064015b60405180910390fd5b604051630aa0aacd60e11b815260048082015260248101849052604481018390526064810182905273__$48fdb68298ec07f9843b28bfe921898719$__90631541559a9060840160006040518083038186803b158015610c5b57600080fd5b505af4158015610c6f573d6000803e3d6000fd5b50506040518392508591507fae42f3be1ee887ec3af249092d8ce9d9a13ac3c2a8e40639341a77ac2e012de390600090a3505050565b73__$a374c895e6fa8c448878668e00d93ef99a$__63c51b295f600283610cca612dcd565b6040516001600160e01b031960e086901b1681526004810193909352602483019190915264ffffffffff16604482015260640160006040518083038186803b158015610d1557600080fd5b505af4158015610d29573d6000803e3d6000fd5b5050505050565b604051633b11adbf60e21b81526002600482015233602482015273__$a374c895e6fa8c448878668e00d93ef99a$__9063ec46b6fc9060440160206040518083038186803b158015610d8157600080fd5b505af4158015610d95573d6000803e3d6000fd5b505050506040513d601f19601f82011682018060405250810190610db99190613f15565b610dd55760405162461bcd60e51b8152600401610bf390613f32565b600154604080516314c35b8560e31b8152905173__$48fdb68298ec07f9843b28bfe921898719$__9263bf9c528f9260049287926001600160a01b03169163a61adc2891818601916020919081900387018186803b158015610e3657600080fd5b505afa158015610e4a573d6000803e3d6000fd5b505050506040513d601f19601f82011682018060405250810190610e6e9190613f78565b600160009054906101000a90046001600160a01b03166001600160a01b0316639262826d6040518163ffffffff1660e01b815260040160206040518083038186803b158015610ebc57600080fd5b505afa158015610ed0573d6000803e3d6000fd5b505050506040513d601f19601f82011682018060405250810190610ef49190613f78565b6040516001600160e01b031960e087901b168152600481019490945260248401929092526001600160a01b0390811660448401521660648201526084810184905260a40160006040518083038186803b158015610f5057600080fd5b505af4158015610f64573d6000803e3d6000fd5b50506040518392508491507f3d2af26c55ce885099e5c58435ae4f943566dfc69236ab845a1c4dbd824a7b9c90600090a35050565b604051631d62ca6b60e11b81526004808201526024810182905260009073__$48fdb68298ec07f9843b28bfe921898719$__90633ac594d6906044015b60206040518083038186803b158015610fee57600080fd5b505af4158015611002573d6000803e3d6000fd5b505050506040513d601f19601f820116820180604052508101906107849190613f15565b604051633b11adbf60e21b81526002600482015233602482015273__$a374c895e6fa8c448878668e00d93ef99a$__9063ec46b6fc9060440160206040518083038186803b15801561107757600080fd5b505af415801561108b573d6000803e3d6000fd5b505050506040513d601f19601f820116820180604052508101906110af9190613f15565b80611154575073__$a374c895e6fa8c448878668e00d93ef99a$__63fe27108660026110d9612dcd565b6040516001600160e01b031960e085901b168152600481019290925264ffffffffff16602482015260440160206040518083038186803b15801561111c57600080fd5b505af4158015611130573d6000803e3d6000fd5b505050506040513d601f19601f820116820180604052508101906111549190613f15565b6111bf5760405162461bcd60e51b815260206004820152603660248201527f41432e6f776e65724f72446972656374426f6f6b65657065723a206e6569746860448201527532b91037bbb732b9103737b9103137b7b5b2b2b832b960511b6064820152608401610bf3565b73__$a374c895e6fa8c448878668e00d93ef99a$__6313a187d26002836111e4612dcd565b6040516001600160e01b031960e086901b1681526004810193909352602483019190915264ffffffffff16604482015233606482015260840160006040518083038186803b15801561123557600080fd5b505af4158015611249573d6000803e3d6000fd5b50506040518392507ff2735f34b69be1e6342dea95f9162f84d0db925fab655ca9f1f312ac8cbfc99d9150600090a250565b604051633b11adbf60e21b81526002600482015233602482015260009073__$a374c895e6fa8c448878668e00d93ef99a$__9063ec46b6fc9060440160206040518083038186803b1580156112cf57600080fd5b505af41580156112e3573d6000803e3d6000fd5b505050506040513d601f19601f820116820180604052508101906113079190613f15565b6113235760405162461bcd60e51b8152600401610bf390613f32565b611331600185848689612e27565b95945050505050565b73__$a374c895e6fa8c448878668e00d93ef99a$__63ee98b313600284846108e8612dcd565b604051633e9ace7f60e11b81526004808201526024810182905260009073__$48fdb68298ec07f9843b28bfe921898719$__90637d359cfe90604401610fd6565b604051633b11adbf60e21b81526002600482015233602482015260009073__$a374c895e6fa8c448878668e00d93ef99a$__9063ec46b6fc9060440160206040518083038186803b1580156113f557600080fd5b505af4158015611409573d6000803e3d6000fd5b505050506040513d601f19601f8201168201806040525081019061142d9190613f15565b6114495760405162461bcd60e51b8152600401610bf390613f32565b604051630363eeeb60e01b81526004808201526024810184905260009073__$48fdb68298ec07f9843b28bfe921898719$__90630363eeeb906044016104406040518083038186803b15801561149e57600080fd5b505af41580156114b2573d6000803e3d6000fd5b505050506040513d601f19601f820116820180604052508101906114d6919061420f565b80515190915061ffff1660041461152f5760405162461bcd60e51b815260206004820152601960248201527f4d4d2e45413a2077726f6e6720747970654f664d6f74696f6e000000000000006044820152606401610bf3565b61153c8989898989612fb7565b9150611549848385610aad565b50979650505050505050565b604051633b11adbf60e21b81526002600482015233602482015273__$a374c895e6fa8c448878668e00d93ef99a$__9063ec46b6fc9060440160206040518083038186803b1580156115a657600080fd5b505af41580156115ba573d6000803e3d6000fd5b505050506040513d601f19601f820116820180604052508101906115de9190613f15565b6115fa5760405162461bcd60e51b8152600401610bf390613f32565b604051636be8496f60e01b81523360048201526001600160a01b03821690636be8496f90602401600060405180830381600087803b15801561163b57600080fd5b505af115801561164f573d6000803e3d6000fd5b50506040516001600160a01b03841692507f64dd6e84044f0067086012335dcfab3188db6615b5cc7debf18c9a621ebd5d919150600090a250565b6040805160a081018252600080825260208201819052818301819052606080830191909152608082015290516322576ef960e11b8152600480820152602481018490526044810183905273__$48fdb68298ec07f9843b28bfe921898719$__906344aeddf29060640160006040518083038186803b15801561170b57600080fd5b505af415801561171f573d6000803e3d6000fd5b505050506040513d6000823e601f3d908101601f191682016040526107819190810190614300565b604051630f07232560e01b8152600260048201526001600160a01b038216602482015233604482015273__$a374c895e6fa8c448878668e00d93ef99a$__90630f0723259060640160006040518083038186803b1580156117a757600080fd5b505af41580156117bb573d6000803e3d6000fd5b50506040516001600160a01b03841692507fe435cbeab64e4eae6497b9d8289704bd709d624a80704ef3ca9af777534bc6ec9150600090a250565b604051632a3be56b60e21b815260026004820152602481018390526044810182905260009073__$a374c895e6fa8c448878668e00d93ef99a$__9063a8ef95ac906064015b60206040518083038186803b15801561185357600080fd5b505af4158015611867573d6000803e3d6000fd5b505050506040513d601f19601f820116820180604052508101906107819190613f15565b73__$a374c895e6fa8c448878668e00d93ef99a$__639b48160c6002836118b0612dcd565b6040516001600160e01b031960e086901b1681526004810193909352602483019190915264ffffffffff16604482015260640160006040518083038186803b1580156118fb57600080fd5b505af415801561190f573d6000803e3d6000fd5b50506040518392507f8b6f40f36b4ae8cc5f55e895036457c43da4ab1f80f58c46f5ff0d72a650033b9150600090a250565b60405163987ad15360e01b81526002600482015260009073__$a374c895e6fa8c448878668e00d93ef99a$__9063987ad153906024016107c1565b73__$a374c895e6fa8c448878668e00d93ef99a$__63cc0d511b600283610cca612dcd565b6040516305f7f47f60e51b815260048082015260248101849052604481018390526064810182905260009073__$48fdb68298ec07f9843b28bfe921898719$__9063befe8fe09060840160206040518083038186803b158015611a0357600080fd5b505af4158015611a17573d6000803e3d6000fd5b505050506040513d601f19601f82011682018060405250810190610a1c9190613f15565b6040516378a3d56560e11b8152600480820152602481018390526044810182905260009073__$48fdb68298ec07f9843b28bfe921898719$__9063f147aaca9060640160206040518083038186803b158015611a9657600080fd5b505af4158015611aaa573d6000803e3d6000fd5b505050506040513d601f19601f820116820180604052508101906107819190614413565b604051633b11adbf60e21b81526002600482015233602482015273__$a374c895e6fa8c448878668e00d93ef99a$__9063ec46b6fc9060440160206040518083038186803b158015611b1f57600080fd5b505af4158015611b33573d6000803e3d6000fd5b505050506040513d601f19601f82011682018060405250810190611b579190613f15565b611b735760405162461bcd60e51b8152600401610bf390613f32565b600473__$48fdb68298ec07f9843b28bfe921898719$__63101bca47909186848787600160009054906101000a90046001600160a01b03166001600160a01b03166333fb96ee6040518163ffffffff1660e01b815260040160206040518083038186803b158015611be357600080fd5b505afa158015611bf7573d6000803e3d6000fd5b505050506040513d601f19601f82011682018060405250810190611c1b9190613f78565b6040516001600160e01b031960e089901b168152600481019690965260248601949094526044850192909252606484015260848301526001600160a01b031660a482015260c40160006040518083038186803b158015611c7a57600080fd5b505af4158015611c8e573d6000803e3d6000fd5b505050508281857f30261d848cf8e6ce809b7c0881ef706076b3ad592520b89d6f929408b9fa80d885604051611cc691815260200190565b60405180910390a450505050565b60405163cc526e6b60e01b81526004808201526024810182905260009073__$48fdb68298ec07f9843b28bfe921898719$__9063cc526e6b90604401610fd6565b604051633b11adbf60e21b81526002600482015233602482015260009073__$a374c895e6fa8c448878668e00d93ef99a$__9063ec46b6fc9060440160206040518083038186803b158015611d6957600080fd5b505af4158015611d7d573d6000803e3d6000fd5b505050506040513d601f19601f82011682018060405250810190611da19190613f15565b611dbd5760405162461bcd60e51b8152600401610bf390613f32565b6000611dcc8989898989612fb7565b9050611ddc60048a858785612e27565b9998505050505050505050565b611df16130e2565b604051630363eeeb60e01b81526004808201526024810183905273__$48fdb68298ec07f9843b28bfe921898719$__90630363eeeb906044016104406040518083038186803b158015611e4357600080fd5b505af4158015611e57573d6000803e3d6000fd5b505050506040513d601f19601f82011682018060405250810190610784919061420f565b6040516338d1980760e21b81526004808201526024810182905260009073__$48fdb68298ec07f9843b28bfe921898719$__9063e346601c90604401610fd6565b6040805180820182526000808252602082015290516307621e5360e01b81526004808201526024810186905260448101859052606481018490526001600160a01b038316608482015273__$48fdb68298ec07f9843b28bfe921898719$__906307621e539060a401604080518083038186803b158015611f3b57600080fd5b505af4158015611f4f573d6000803e3d6000fd5b505050506040513d601f19601f82011682018060405250810190611331919061442c565b604051633b11adbf60e21b81526002600482015233602482015273__$a374c895e6fa8c448878668e00d93ef99a$__9063ec46b6fc9060440160206040518083038186803b158015611fc457600080fd5b505af4158015611fd8573d6000803e3d6000fd5b505050506040513d601f19601f82011682018060405250810190611ffc9190613f15565b6120185760405162461bcd60e51b8152600401610bf390613f32565b600473__$48fdb68298ec07f9843b28bfe921898719$__63bf2abd50909186848787600160009054906101000a90046001600160a01b03166001600160a01b0316639262826d6040518163ffffffff1660e01b815260040160206040518083038186803b15801561208857600080fd5b505afa15801561209c573d6000803e3d6000fd5b505050506040513d601f19601f820116820180604052508101906120c09190613f78565b6040516001600160e01b031960e089901b168152600481019690965260248601949094526044850192909252606484015260848301526001600160a01b031660a482015260c40160006040518083038186803b15801561211f57600080fd5b505af4158015612133573d6000803e3d6000fd5b505050508281857fe3a6e11aafb69b98aed10406bfbda036914bbe977ca10676d99665efa0d9af4885604051611cc691815260200190565b604051633b11adbf60e21b81526002600482015233602482015260009073__$a374c895e6fa8c448878668e00d93ef99a$__9063ec46b6fc9060440160206040518083038186803b1580156121bf57600080fd5b505af41580156121d3573d6000803e3d6000fd5b505050506040513d601f19601f820116820180604052508101906121f79190613f15565b6122135760405162461bcd60e51b8152600401610bf390613f32565b61133160038584866001600160a01b038a16612e27565b604051636cdd0edf60e11b815260026004820152602481018590526001600160a01b038416604482015273__$a374c895e6fa8c448878668e00d93ef99a$__9063d9ba1dbe9060640160006040518083038186803b15801561228b57600080fd5b505af415801561229f573d6000803e3d6000fd5b505050506122ac82612ff4565b6122b581613067565b6040516001600160a01b038381168252808316919085169086907f3abb2418c66fe32ba9c883030a75ce583971d9af9192b9b74e44e67c5e6c8c1f90602001611cc6565b60405163b34299c960e01b8152600480820152602481018390526044810182905260009073__$48fdb68298ec07f9843b28bfe921898719$__9063b34299c99060640161183b565b604051633b11adbf60e21b81526002600482015233602482015273__$a374c895e6fa8c448878668e00d93ef99a$__9063ec46b6fc9060440160206040518083038186803b15801561239257600080fd5b505af41580156123a6573d6000803e3d6000fd5b505050506040513d601f19601f820116820180604052508101906123ca9190613f15565b6123e65760405162461bcd60e51b8152600401610bf390613f32565b600154604080516314c35b8560e31b8152905173__$48fdb68298ec07f9843b28bfe921898719$__9263e5493ad69260049287926001600160a01b03169163a61adc2891818601916020919081900387018186803b15801561244757600080fd5b505afa15801561245b573d6000803e3d6000fd5b505050506040513d601f19601f8201168201806040525081019061247f9190613f78565b600160009054906101000a90046001600160a01b03166001600160a01b03166333fb96ee6040518163ffffffff1660e01b815260040160206040518083038186803b1580156124cd57600080fd5b505afa1580156124e1573d6000803e3d6000fd5b505050506040513d601f19601f820116820180604052508101906125059190613f78565b600160009054906101000a90046001600160a01b03166001600160a01b0316639262826d6040518163ffffffff1660e01b815260040160206040518083038186803b15801561255357600080fd5b505afa158015612567573d6000803e3d6000fd5b505050506040513d601f19601f8201168201806040525081019061258b9190613f78565b6040516001600160e01b031960e088901b168152600481019590955260248501939093526001600160a01b0391821660448501528116606484015216608482015260a4810184905260c40160006040518083038186803b1580156125ee57600080fd5b505af4158015612602573d6000803e3d6000fd5b50506040518392508491507fca7b9ebcec0c47f48df2212822ec599138f81b1824e05efae9d69ad494c4fd9790600090a35050565b604051633c3e56c160e11b81526002600482015260009073__$a374c895e6fa8c448878668e00d93ef99a$__9063787cad829060240160206040518083038186803b15801561268557600080fd5b505af4158015612699573d6000803e3d6000fd5b505050506040513d601f19601f820116820180604052508101906108119190613f78565b600254600160f01b900460ff166001146127195760405162461bcd60e51b815260206004820152601760248201527f41432e4c433a20446f632069732066696e616c697a65640000000000000000006044820152606401610bf3565b73__$a374c895e6fa8c448878668e00d93ef99a$__63c51b295f6002684174746f726e65797360b81b61274a612dcd565b6040516001600160e01b031960e086901b1681526004810193909352602483019190915264ffffffffff16604482015260640160006040518083038186803b15801561279557600080fd5b505af41580156127a9573d6000803e3d6000fd5b50505050600273__$a374c895e6fa8c448878668e00d93ef99a$__6313a187d2909160006127d5612dcd565b6040516001600160e01b031960e086901b1681526004810193909352602483019190915264ffffffffff16604482015233606482015260840160006040518083038186803b15801561282657600080fd5b505af415801561283a573d6000803e3d6000fd5b50505050600273__$a374c895e6fa8c448878668e00d93ef99a$__639b48160c90916000612866612dcd565b6040516001600160e01b031960e086901b1681526004810193909352602483019190915264ffffffffff16604482015260640160006040518083038186803b1580156128b157600080fd5b505af41580156128c5573d6000803e3d6000fd5b50506002805460ff60f01b1916600160f11b17905550506040517f35012b512309c322acf68632cd6cb702ff0e1d776fbe9394e38ffc13b434fe7590600090a1565b604051633b11adbf60e21b81526002600482015233602482015260009073__$a374c895e6fa8c448878668e00d93ef99a$__9063ec46b6fc9060440160206040518083038186803b15801561295b57600080fd5b505af415801561296f573d6000803e3d6000fd5b505050506040513d601f19601f820116820180604052508101906129939190613f15565b6129af5760405162461bcd60e51b8152600401610bf390613f32565b60405163d2e9901f60e01b815273__$48fdb68298ec07f9843b28bfe921898719$__9063d2e9901f906129ec90600490889088908890840161446d565b60206040518083038186803b158015612a0457600080fd5b505af4158015612a18573d6000803e3d6000fd5b505050506040513d601f19601f82011682018060405250810190612a3c9190614530565b90508060ff16837f09dabc8247f652d3170a3738595d35365582b55eebeee44e1059d2981852648360405160405180910390a39392505050565b604051633b11adbf60e21b81526002600482015233602482015260009073__$a374c895e6fa8c448878668e00d93ef99a$__9063ec46b6fc9060440160206040518083038186803b158015612aca57600080fd5b505af4158015612ade573d6000803e3d6000fd5b505050506040513d601f19601f82011682018060405250810190612b029190613f15565b612b1e5760405162461bcd60e51b8152600401610bf390613f32565b610a1c600284848088612e27565b604051633b11adbf60e21b81526002600482015233602482015273__$a374c895e6fa8c448878668e00d93ef99a$__9063ec46b6fc9060440160206040518083038186803b158015612b7d57600080fd5b505af4158015612b91573d6000803e3d6000fd5b505050506040513d601f19601f82011682018060405250810190612bb59190613f15565b612bd15760405162461bcd60e51b8152600401610bf390613f32565b600473__$48fdb68298ec07f9843b28bfe921898719$__63052075289091858585600160009054906101000a90046001600160a01b03166001600160a01b03166333fb96ee6040518163ffffffff1660e01b815260040160206040518083038186803b158015612c4057600080fd5b505afa158015612c54573d6000803e3d6000fd5b505050506040513d601f19601f82011682018060405250810190612c789190613f78565b600160009054906101000a90046001600160a01b03166001600160a01b0316639262826d6040518163ffffffff1660e01b815260040160206040518083038186803b158015612cc657600080fd5b505afa158015612cda573d6000803e3d6000fd5b505050506040513d601f19601f82011682018060405250810190612cfe9190613f78565b6040516001600160e01b031960e089901b16815260048101969096526024860194909452604485019290925260648401526001600160a01b0390811660848401521660a482015260c40160206040518083038186803b158015612d6057600080fd5b505af4158015612d74573d6000803e3d6000fd5b505050506040513d601f19601f82011682018060405250810190612d989190613f15565b508082847ffb530b01fe8da7c67ca83c49ce04d6ca6adbb57fb2b332097e62c6fe6cc6859b60405160405180910390a4505050565b60008054604051636ae3b70d60e11b81523360048201526001600160a01b039091169063d5c76e1a90602401602060405180830381600087803b158015612e1357600080fd5b505af11580156107ed573d6000803e3d6000fd5b6040805160e08101825260006020820181905260a0820181905260c0820181905260ff8816825261ffff87168284015264ffffffffff868116606084015285166080830152915163072895eb60e51b815273__$48fdb68298ec07f9843b28bfe921898719$__9063e512bd6090612ea69060049085908890830161454d565b60e06040518083038186803b158015612ebe57600080fd5b505af4158015612ed2573d6000803e3d6000fd5b505050506040513d601f19601f82011682018060405250810190612ef69190614571565b90508273__$48fdb68298ec07f9843b28bfe921898719$__63f138788e836040518263ffffffff1660e01b8152600401612f30919061458d565b60206040518083038186803b158015612f4857600080fd5b505af4158015612f5c573d6000803e3d6000fd5b505050506040513d601f19601f82011682018060405250810190612f809190614413565b6040517f3ac733a5e01b133fe59ace4c20e40ab1916d571ff364ec4819dc2951be83642e90600090a3602001519695505050505050565b60008585858585604051602001612fd295949392919061459b565b60408051601f1981840301815291905280516020909101209695505050505050565b6000546001600160a01b0316156130455760405162461bcd60e51b815260206004820152601560248201527430b63932b0b23c9039b2ba103932b3a1b2b73a32b960591b6044820152606401610bf3565b600080546001600160a01b0319166001600160a01b0392909216919091179055565b6001546001600160a01b0316156130c05760405162461bcd60e51b815260206004820152601960248201527f616c7265616479207365742067656e6572616c4b6565706572000000000000006044820152606401610bf3565b600180546001600160a01b0319166001600160a01b0392909216919091179055565b60408051610160810190915260006080820181815260a0830182905260c0830182905260e0830182905261010083018290526101208301829052610140830191909152819081526040805160e08101825260008082526020828101829052928201819052606082018190526080820181905260a0820181905260c0820152910190815260200161317061317d565b8152602001600081525090565b6040805161024081018252600080825260208201819052918101829052606081018290526080810182905260a0810182905260c0810182905260e08101829052610100810182905261012081018290526101408101829052610160810182905261018081018290526101a081018290526101c081018290526101e0810191909152610200810161320b613218565b8152600060209091015290565b60405180604001604052806002906020820280368337509192915050565b6000806040838503121561324957600080fd5b50508035926020909101359150565b600060208083526080830163ffffffff855116828501526001600160401b0382860151166040850152604085015160608086015281815180845260a0870191508483019350600092505b808310156132c257835182529284019260019290920191908401906132a2565b509695505050505050565b6001600160a01b03811681146132e257600080fd5b50565b6000806000606084860312156132fa57600080fd5b83359250602084013591506040840135613313816132cd565b809150509250925092565b600081518084526020808501945080840160005b8381101561334e57815187529582019590820190600101613332565b509495945050505050565b602081526000610781602083018461331e565b60008060006060848603121561338157600080fd5b505081359360208301359350604090920135919050565b6000602082840312156133aa57600080fd5b5035919050565b600080600080608085870312156133c757600080fd5b5050823594602084013594506040840135936060013592509050565b634e487b7160e01b600052604160045260246000fd5b60405161012081016001600160401b038111828210171561341c5761341c6133e3565b60405290565b60405160e081016001600160401b038111828210171561341c5761341c6133e3565b604080519081016001600160401b038111828210171561341c5761341c6133e3565b60405161024081016001600160401b038111828210171561341c5761341c6133e3565b604051608081016001600160401b038111828210171561341c5761341c6133e3565b60405160a081016001600160401b038111828210171561341c5761341c6133e3565b604051601f8201601f191681016001600160401b03811182821017156134f5576134f56133e3565b604052919050565b60006001600160401b03821115613516576135166133e3565b5060051b60200190565b600082601f83011261353157600080fd5b81356020613546613541836134fd565b6134cd565b82815260059290921b8401810191818101908684111561356557600080fd5b8286015b848110156132c25780358352918301918301613569565b6000601f838184011261359257600080fd5b823560206135a2613541836134fd565b82815260059290921b850181019181810190878411156135c157600080fd5b8287015b848110156115495780356001600160401b03808211156135e55760008081fd5b818a0191508a603f8301126135fa5760008081fd5b85820135604082821115613610576136106133e3565b613621828b01601f191689016134cd565b92508183528c818386010111156136385760008081fd5b81818501898501375060009082018701528452509183019183016135c5565b600080600080600080600060e0888a03121561367257600080fd5b873596506020808901356001600160401b038082111561369157600080fd5b818b0191508b601f8301126136a557600080fd5b81356136b3613541826134fd565b81815260059190911b8301840190848101908e8311156136d257600080fd5b938501935b828510156136f95784356136ea816132cd565b825293850193908501906136d7565b9a50505060408b013592508083111561371157600080fd5b61371d8c848d01613520565b975060608b013592508083111561373357600080fd5b50506137418a828b01613580565b979a969950949760808101359660a0820135965060c090910135945092505050565b60006020828403121561377557600080fd5b8135613780816132cd565b9392505050565b6000602080835260c0830164ffffffffff8086511683860152828601516001600160401b038082166040880152806040890151166060880152505063ffffffff6060870151166080860152608086015160a08087015282815180855260e0880191508583019450600092505b80831015611549578451841682529385019360019290920191908501906137f3565b61ffff8082511683526001600160401b03602083015116602084015280604083015116604084015250606081015164ffffffffff8082166060850152806080840151166080850152505065ffffffffffff60a08201511660a083015263ffffffff60c08201511660c08301525050565b8060005b60028110156138af57815164ffffffffff16845260209384019390910190600101613889565b50505050565b805161ffff16825260208101516138d1602084018260ff169052565b5060408101516138e6604084018260ff169052565b5060608101516138fc606084018261ffff169052565b506080810151613912608084018261ffff169052565b5060a081015161392860a084018261ffff169052565b5060c081015161393c60c084018215159052565b5060e081015161395060e084018215159052565b5061010081810151151590830152610120808201511515908301526101408082015160ff9081169184019190915261016080830151821690840152610180808301518216908401526101a0808301518216908401526101c0808301518216908401526101e08083015190911690830152610200808201516139d382850182613885565b5050610220015161ffff166102409190910152565b6000610440820190506139fc828451613815565b602083810151805164ffffffffff1660e08501529081015165ffffffffffff908116610100850152604082015181166101208501526060820151811661014085015260808201511661016084015260a081015161ffff81166101808501525060c0015160ff81166101a0840152506040830151613a7d6101c08401826138b5565b50606083015161042083015292915050565b60008060008060808587031215613aa557600080fd5b8435935060208501359250604085013591506060850135613ac5816132cd565b939692955090935050565b60008060008060808587031215613ae657600080fd5b8435613af1816132cd565b966020860135965060408601359560600135945092505050565b60008060008060808587031215613b2157600080fd5b843593506020850135613b33816132cd565b92506040850135613b43816132cd565b91506060850135613ac5816132cd565b80151581146132e257600080fd5b8035613b6c81613b53565b919050565b63ffffffff811681146132e257600080fd5b8035613b6c81613b71565b6001600160401b03811681146132e257600080fd5b8035613b6c81613b8e565b61ffff811681146132e257600080fd5b8035613b6c81613bae565b60ff811681146132e257600080fd5b8035613b6c81613bc9565b6000806000838503610160811215613bfa57600080fd5b8435613c0581613b53565b935060208501359250610120603f198201811315613c2257600080fd5b613c2a6133f9565b9150613c3860408701613b83565b8252613c4660608701613ba3565b6020830152613c5760808701613b83565b6040830152613c6860a08701613ba3565b6060830152613c7960c08701613bbe565b6080830152613c8a60e08701613bbe565b60a0830152610100613c9d818801613bbe565b60c0840152613cad828801613bd8565b60e0840152613cbf6101408801613b61565b818401525050809150509250925092565b805164ffffffffff81168114613b6c57600080fd5b8051613b6c81613bc9565b805165ffffffffffff81168114613b6c57600080fd5b600060e08284031215613d1857600080fd5b613d20613422565b613d2983613cd0565b81526020830151613d3981613bc9565b60208201526040830151613d4c81613b71565b60408201526060830151613d5f81613b8e565b6060820152613d7060808401613cf0565b608082015260a0830151613d8381613b8e565b60a082015260c0928301519281019290925250919050565b600060208284031215613dad57600080fd5b61078182613cd0565b600082601f830112613dc757600080fd5b81516020613dd7613541836134fd565b82815260059290921b84018101918181019086841115613df657600080fd5b8286015b848110156132c25780518352918301918301613dfa565b600060208284031215613e2357600080fd5b81516001600160401b0380821115613e3a57600080fd5b9083019060608286031215613e4e57600080fd5b604051606081018181108382111715613e6957613e696133e3565b6040528251613e7781613b71565b81526020830151613e8781613b8e565b6020820152604083015182811115613e9e57600080fd5b613eaa87828601613db6565b60408301525095945050505050565b600060208284031215613ecb57600080fd5b815161378081613b71565b600060208284031215613ee857600080fd5b81516001600160401b03811115613efe57600080fd5b610a1c84828501613db6565b8051613b6c81613b53565b600060208284031215613f2757600080fd5b815161378081613b53565b60208082526026908201527f41432e6f6e6c794469726563744b65657065723a206e6f74206469726563742060408201526535b2b2b832b960d11b606082015260800190565b600060208284031215613f8a57600080fd5b8151613780816132cd565b8051613b6c81613bae565b600060e08284031215613fb257600080fd5b60405160e081018181106001600160401b0382111715613fd457613fd46133e3565b80604052508091508251613fe781613bae565b81526020830151613ff781613b8e565b6020820152604083015161400a81613bae565b604082015261401b60608401613cd0565b606082015261402c60808401613cd0565b608082015261403d60a08401613cf0565b60a082015260c083015161405081613b71565b60c0919091015292915050565b600082601f83011261406e57600080fd5b614076613444565b80604084018581111561408857600080fd5b845b818110156140a95761409b81613cd0565b84526020938401930161408a565b509095945050505050565b600061026082840312156140c757600080fd5b6140cf613466565b90506140da82613f95565b81526140e860208301613ce5565b60208201526140f960408301613ce5565b604082015261410a60608301613f95565b606082015261411b60808301613f95565b608082015261412c60a08301613f95565b60a082015261413d60c08301613f0a565b60c082015261414e60e08301613f0a565b60e0820152610100614161818401613f0a565b90820152610120614173838201613f0a565b90820152610140614185838201613ce5565b90820152610160614197838201613ce5565b908201526101806141a9838201613ce5565b908201526101a06141bb838201613ce5565b908201526101c06141cd838201613ce5565b908201526101e06141df838201613ce5565b908201526102006141f28484830161405d565b908201526142036102408301613f95565b61022082015292915050565b600081830361044081121561422357600080fd5b61422b613489565b6142358585613fa0565b815260e060df198301121561424957600080fd5b614251613422565b915061425f60e08501613cd0565b825261426e6101008501613cf0565b60208301526142806101208501613cf0565b60408301526142926101408501613cf0565b60608301526142a46101608501613cf0565b60808301526101808401516142b881613bae565b60a08301526101a08401516142cc81613bc9565b60c0830152602081018290526142e6856101c086016140b4565b604082015261042093909301516060840152509092915050565b6000602080838503121561431357600080fd5b82516001600160401b038082111561432a57600080fd5b9084019060a0828703121561433e57600080fd5b6143466134ab565b61434f83613cd0565b81528383015161435e81613b8e565b81850152604083015161437081613b8e565b6040820152606083015161438381613b71565b606082015260808301518281111561439a57600080fd5b80840193505086601f8401126143af57600080fd5b825191506143bf613541836134fd565b82815260059290921b830184019184810190888411156143de57600080fd5b938501935b83851015614403576143f485613cd0565b825293850193908501906143e3565b6080830152509695505050505050565b60006020828403121561442557600080fd5b5051919050565b60006040828403121561443e57600080fd5b614446613444565b825161445181613b8e565b8152602083015161446181613b71565b60208201529392505050565b600061018082019050858252841515602083015283604083015263ffffffff83511660608301526001600160401b03602084015116608083015260408301516144be60a084018263ffffffff169052565b5060608301516001600160401b03811660c084015250608083015161ffff811660e08401525060a08301516101006144fb8185018361ffff169052565b60c085015161ffff1661012085015260e085015160ff1661014085015290930151151561016090920191909152949350505050565b60006020828403121561454257600080fd5b815161378081613bc9565b83815261012081016145626020830185613815565b82610100830152949350505050565b600060e0828403121561458357600080fd5b6107818383613fa0565b60e081016107848284613815565b600060a08201878352602060a08185015281885180845260c086019150828a01935060005b818110156145e55784516001600160a01b0316835293830193918301916001016145c0565b505084810360408601526145f9818961331e565b92505083820360608501528186518084528284019150828160051b85010183890160005b8381101561468457601f19808885030186528251805180865260005b81811015614654578281018a01518782018b01528901614639565b818111156146655760008a83890101525b5096880196601f0190911693909301860192509085019060010161461d565b50508095505050505050826080830152969550505050505056fea2646970667358221220acc50940cccd02030c20c7903d5efb0aa770c5724f4c63bffffbebbb146fa8e564736f6c63430008080033",
    "sourcePath": "/Users/kaptain/github.com/comboox/comboox/contracts/common/components/MeetingMinutes.sol",
    "compiler": {
        "name": "solc",
        "version": "0.8.8+commit.dddeac2f"
    },
    "functionHashes": {
        "abandonRole(bytes32)": "3da9a600",
        "castVoteInBoardMeeting(uint256,uint256,bytes32,uint256)": "d9677b0c",
        "castVoteInGeneralMeeting(uint256,uint256,bytes32,uint256)": "a0d100ef",
        "createAction(uint256,address[],uint256[],bytes[],bytes32,uint256,uint256)": "ab86a9d9",
        "createMotionToApproveDoc(address,uint256,uint256,uint256)": "da8b76bc",
        "createMotionToRemoveOfficer(uint256,uint256,uint256)": "fb030548",
        "entrustDelegate(uint256,uint256,uint256)": "fe1bdff2",
        "execAction(uint256,address[],uint256[],bytes[],bytes32,uint256,uint256)": "5c2753bf",
        "execResolution(uint256,uint256,uint256)": "2d3eaa40",
        "finalized()": "b3f05b97",
        "getBallot(uint256,uint256)": "0d358757",
        "getBookeeper()": "ed211023",
        "getCaseOfAttitude(uint256,uint256)": "165dd5ec",
        "getDelegateOf(uint256,uint256)": "9a51cdfc",
        "getGeneralCounsel()": "103f6edd",
        "getLeavesHeadcountOfDirectors(uint256,uint256,address)": "22d49e2c",
        "getLeavesWeightAtDate(uint256,uint256,uint256,address)": "c41f49b0",
        "getMotion(uint256)": "ad15aad2",
        "getOwner()": "893d20e8",
        "getSeqList()": "243fbc21",
        "getVoterOfDelegateMap(uint256,uint256)": "61df743f",
        "grantRole(bytes32,uint256)": "1b6ea9f9",
        "hasRole(bytes32,uint256)": "7e063c5a",
        "init(uint256,address,address,address)": "dc890da9",
        "isPassed(uint256)": "49403183",
        "isProposed(uint256)": "59269f82",
        "isVoted(uint256,uint256)": "ea56efc6",
        "isVotedFor(uint256,uint256,uint256)": "9371bd1e",
        "lockContents()": "f045a769",
        "nominateOfficer(uint256,uint256,uint256,uint256)": "4f6413ac",
        "proposeMotionToBoard(uint256,uint256)": "48c01a8b",
        "proposeMotionToGeneralMeeting(uint256,uint256)": "ec83613b",
        "removeDirectKeeper(address)": "5d7ad88f",
        "renounceRole(bytes32)": "8bb9c5bf",
        "revokeRole(bytes32,uint256)": "19d61ad9",
        "setDirectKeeper(address)": "6be8496f",
        "setGeneralCounsel(uint256)": "4a14beb1",
        "setOwner(uint256)": "8041494e",
        "setRoleAdmin(bytes32,uint256)": "5171ebd4",
        "voteCounting(bool,uint256,(uint32,uint64,uint32,uint64,uint16,uint16,uint16,uint8,bool))": "f04e47ab",
        "voteEnded(uint256)": "b43a401d",
        "voteStarted(uint256)": "a1e1d621"
    },
    "gasEstimates": {
        "creation": {
            "codeDepositCost": "3626400",
            "executionCost": "4080",
            "totalCost": "3630480"
        },
        "external": {
            "abandonRole(bytes32)": "infinite",
            "castVoteInBoardMeeting(uint256,uint256,bytes32,uint256)": "infinite",
            "castVoteInGeneralMeeting(uint256,uint256,bytes32,uint256)": "infinite",
            "createAction(uint256,address[],uint256[],bytes[],bytes32,uint256,uint256)": "infinite",
            "createMotionToApproveDoc(address,uint256,uint256,uint256)": "infinite",
            "createMotionToRemoveOfficer(uint256,uint256,uint256)": "infinite",
            "entrustDelegate(uint256,uint256,uint256)": "infinite",
            "execAction(uint256,address[],uint256[],bytes[],bytes32,uint256,uint256)": "infinite",
            "execResolution(uint256,uint256,uint256)": "infinite",
            "finalized()": "2438",
            "getBallot(uint256,uint256)": "infinite",
            "getBookeeper()": "infinite",
            "getCaseOfAttitude(uint256,uint256)": "infinite",
            "getDelegateOf(uint256,uint256)": "infinite",
            "getGeneralCounsel()": "infinite",
            "getLeavesHeadcountOfDirectors(uint256,uint256,address)": "infinite",
            "getLeavesWeightAtDate(uint256,uint256,uint256,address)": "infinite",
            "getMotion(uint256)": "infinite",
            "getOwner()": "infinite",
            "getSeqList()": "infinite",
            "getVoterOfDelegateMap(uint256,uint256)": "infinite",
            "grantRole(bytes32,uint256)": "infinite",
            "hasRole(bytes32,uint256)": "infinite",
            "init(uint256,address,address,address)": "infinite",
            "isPassed(uint256)": "infinite",
            "isProposed(uint256)": "infinite",
            "isVoted(uint256,uint256)": "infinite",
            "isVotedFor(uint256,uint256,uint256)": "infinite",
            "lockContents()": "infinite",
            "nominateOfficer(uint256,uint256,uint256,uint256)": "infinite",
            "proposeMotionToBoard(uint256,uint256)": "infinite",
            "proposeMotionToGeneralMeeting(uint256,uint256)": "infinite",
            "removeDirectKeeper(address)": "infinite",
            "renounceRole(bytes32)": "infinite",
            "revokeRole(bytes32,uint256)": "infinite",
            "setDirectKeeper(address)": "infinite",
            "setGeneralCounsel(uint256)": "infinite",
            "setOwner(uint256)": "infinite",
            "setRoleAdmin(bytes32,uint256)": "infinite",
            "voteCounting(bool,uint256,(uint32,uint64,uint32,uint64,uint16,uint16,uint16,uint8,bool))": "infinite",
            "voteEnded(uint256)": "infinite",
            "voteStarted(uint256)": "infinite"
        },
        "internal": {
            "_addMotion(uint256,uint256,uint256,uint256,uint256)": "infinite",
            "_hashAction(uint256,address[] memory,uint256[] memory,bytes memory[] memory,bytes32)": "infinite"
        }
    }
}