{
    "contractName": "MeetingMinutes",
    "abi": [
        {
            "anonymous": false,
            "inputs": [
                {
                    "indexed": true,
                    "internalType": "uint256",
                    "name": "motionId",
                    "type": "uint256"
                },
                {
                    "indexed": false,
                    "internalType": "uint256",
                    "name": "caller",
                    "type": "uint256"
                },
                {
                    "indexed": false,
                    "internalType": "uint8",
                    "name": "attitude",
                    "type": "uint8"
                },
                {
                    "indexed": false,
                    "internalType": "bytes32",
                    "name": "sigHash",
                    "type": "bytes32"
                }
            ],
            "name": "CastVote",
            "type": "event"
        },
        {
            "anonymous": false,
            "inputs": [
                {
                    "indexed": true,
                    "internalType": "uint256",
                    "name": "motionId",
                    "type": "uint256"
                },
                {
                    "indexed": false,
                    "internalType": "uint256",
                    "name": "principal",
                    "type": "uint256"
                },
                {
                    "indexed": false,
                    "internalType": "uint256",
                    "name": "delegate",
                    "type": "uint256"
                },
                {
                    "indexed": false,
                    "internalType": "uint64",
                    "name": "weight",
                    "type": "uint64"
                }
            ],
            "name": "EntrustDelegate",
            "type": "event"
        },
        {
            "anonymous": false,
            "inputs": [
                {
                    "indexed": true,
                    "internalType": "uint256",
                    "name": "motionId",
                    "type": "uint256"
                },
                {
                    "indexed": false,
                    "internalType": "bool",
                    "name": "flag",
                    "type": "bool"
                }
            ],
            "name": "ExecuteAction",
            "type": "event"
        },
        {
            "anonymous": false,
            "inputs": [
                {
                    "indexed": false,
                    "internalType": "uint256",
                    "name": "owner",
                    "type": "uint256"
                },
                {
                    "indexed": false,
                    "internalType": "address",
                    "name": "directKeeper",
                    "type": "address"
                },
                {
                    "indexed": false,
                    "internalType": "address",
                    "name": "regCenter",
                    "type": "address"
                },
                {
                    "indexed": false,
                    "internalType": "address",
                    "name": "generalKeeper",
                    "type": "address"
                }
            ],
            "name": "Init",
            "type": "event"
        },
        {
            "anonymous": false,
            "inputs": [],
            "name": "LockContents",
            "type": "event"
        },
        {
            "anonymous": false,
            "inputs": [
                {
                    "indexed": true,
                    "internalType": "uint256",
                    "name": "motionId",
                    "type": "uint256"
                },
                {
                    "indexed": false,
                    "internalType": "uint256",
                    "name": "seqOfRule",
                    "type": "uint256"
                },
                {
                    "indexed": false,
                    "internalType": "uint256",
                    "name": "proposer",
                    "type": "uint256"
                },
                {
                    "indexed": false,
                    "internalType": "uint256",
                    "name": "executor",
                    "type": "uint256"
                }
            ],
            "name": "ProposeMotion",
            "type": "event"
        },
        {
            "anonymous": false,
            "inputs": [
                {
                    "indexed": false,
                    "internalType": "address",
                    "name": "keeper",
                    "type": "address"
                }
            ],
            "name": "SetDirectKeeper",
            "type": "event"
        },
        {
            "anonymous": false,
            "inputs": [
                {
                    "indexed": false,
                    "internalType": "uint256",
                    "name": "acct",
                    "type": "uint256"
                }
            ],
            "name": "SetGeneralCounsel",
            "type": "event"
        },
        {
            "anonymous": false,
            "inputs": [
                {
                    "indexed": false,
                    "internalType": "address",
                    "name": "gk",
                    "type": "address"
                }
            ],
            "name": "SetGeneralKeeper",
            "type": "event"
        },
        {
            "anonymous": false,
            "inputs": [
                {
                    "indexed": false,
                    "internalType": "uint256",
                    "name": "acct",
                    "type": "uint256"
                }
            ],
            "name": "SetOwner",
            "type": "event"
        },
        {
            "anonymous": false,
            "inputs": [
                {
                    "indexed": false,
                    "internalType": "address",
                    "name": "rc",
                    "type": "address"
                }
            ],
            "name": "SetRegCenter",
            "type": "event"
        },
        {
            "anonymous": false,
            "inputs": [
                {
                    "indexed": true,
                    "internalType": "uint256",
                    "name": "motionId",
                    "type": "uint256"
                },
                {
                    "indexed": false,
                    "internalType": "uint8",
                    "name": "state",
                    "type": "uint8"
                }
            ],
            "name": "VoteCounting",
            "type": "event"
        },
        {
            "inputs": [
                {
                    "internalType": "bytes32",
                    "name": "role",
                    "type": "bytes32"
                }
            ],
            "name": "abandonRole",
            "outputs": [],
            "stateMutability": "nonpayable",
            "type": "function"
        },
        {
            "inputs": [
                {
                    "internalType": "uint256",
                    "name": "motionId",
                    "type": "uint256"
                },
                {
                    "internalType": "uint256",
                    "name": "caller",
                    "type": "uint256"
                },
                {
                    "internalType": "uint8",
                    "name": "attitude",
                    "type": "uint8"
                },
                {
                    "internalType": "bytes32",
                    "name": "sigHash",
                    "type": "bytes32"
                }
            ],
            "name": "castVote",
            "outputs": [],
            "stateMutability": "nonpayable",
            "type": "function"
        },
        {
            "inputs": [
                {
                    "internalType": "uint256",
                    "name": "motionId",
                    "type": "uint256"
                },
                {
                    "internalType": "uint256",
                    "name": "principal",
                    "type": "uint256"
                },
                {
                    "internalType": "uint256",
                    "name": "delegate",
                    "type": "uint256"
                }
            ],
            "name": "entrustDelegate",
            "outputs": [],
            "stateMutability": "nonpayable",
            "type": "function"
        },
        {
            "inputs": [
                {
                    "internalType": "uint256",
                    "name": "seqOfVR",
                    "type": "uint256"
                },
                {
                    "internalType": "address[]",
                    "name": "targets",
                    "type": "address[]"
                },
                {
                    "internalType": "uint256[]",
                    "name": "values",
                    "type": "uint256[]"
                },
                {
                    "internalType": "bytes[]",
                    "name": "params",
                    "type": "bytes[]"
                },
                {
                    "internalType": "uint256",
                    "name": "caller",
                    "type": "uint256"
                },
                {
                    "internalType": "bytes32",
                    "name": "desHash",
                    "type": "bytes32"
                }
            ],
            "name": "execAction",
            "outputs": [
                {
                    "internalType": "uint256",
                    "name": "",
                    "type": "uint256"
                }
            ],
            "stateMutability": "nonpayable",
            "type": "function"
        },
        {
            "inputs": [],
            "name": "finalized",
            "outputs": [
                {
                    "internalType": "bool",
                    "name": "",
                    "type": "bool"
                }
            ],
            "stateMutability": "view",
            "type": "function"
        },
        {
            "inputs": [
                {
                    "internalType": "uint256",
                    "name": "motionId",
                    "type": "uint256"
                },
                {
                    "internalType": "uint256",
                    "name": "acct",
                    "type": "uint256"
                }
            ],
            "name": "getBallot",
            "outputs": [
                {
                    "components": [
                        {
                            "internalType": "uint40",
                            "name": "acct",
                            "type": "uint40"
                        },
                        {
                            "internalType": "uint8",
                            "name": "attitude",
                            "type": "uint8"
                        },
                        {
                            "internalType": "uint32",
                            "name": "head",
                            "type": "uint32"
                        },
                        {
                            "internalType": "uint64",
                            "name": "weight",
                            "type": "uint64"
                        },
                        {
                            "internalType": "uint48",
                            "name": "sigDate",
                            "type": "uint48"
                        },
                        {
                            "internalType": "uint64",
                            "name": "blocknumber",
                            "type": "uint64"
                        },
                        {
                            "internalType": "bytes32",
                            "name": "sigHash",
                            "type": "bytes32"
                        }
                    ],
                    "internalType": "struct BallotsBox.Ballot",
                    "name": "",
                    "type": "tuple"
                }
            ],
            "stateMutability": "view",
            "type": "function"
        },
        {
            "inputs": [],
            "name": "getBookeeper",
            "outputs": [
                {
                    "internalType": "address",
                    "name": "",
                    "type": "address"
                }
            ],
            "stateMutability": "view",
            "type": "function"
        },
        {
            "inputs": [
                {
                    "internalType": "uint256",
                    "name": "motionId",
                    "type": "uint256"
                },
                {
                    "internalType": "uint8",
                    "name": "atti",
                    "type": "uint8"
                }
            ],
            "name": "getCaseOfAttitude",
            "outputs": [
                {
                    "components": [
                        {
                            "internalType": "uint32",
                            "name": "sumOfHead",
                            "type": "uint32"
                        },
                        {
                            "internalType": "uint64",
                            "name": "sumOfWeight",
                            "type": "uint64"
                        },
                        {
                            "internalType": "uint256[]",
                            "name": "voters",
                            "type": "uint256[]"
                        }
                    ],
                    "internalType": "struct BallotsBox.Case",
                    "name": "",
                    "type": "tuple"
                }
            ],
            "stateMutability": "view",
            "type": "function"
        },
        {
            "inputs": [
                {
                    "internalType": "uint256",
                    "name": "motionId",
                    "type": "uint256"
                },
                {
                    "internalType": "uint256",
                    "name": "acct",
                    "type": "uint256"
                }
            ],
            "name": "getDelegateOf",
            "outputs": [
                {
                    "internalType": "uint40",
                    "name": "",
                    "type": "uint40"
                }
            ],
            "stateMutability": "view",
            "type": "function"
        },
        {
            "inputs": [],
            "name": "getGeneralCounsel",
            "outputs": [
                {
                    "internalType": "uint40",
                    "name": "",
                    "type": "uint40"
                }
            ],
            "stateMutability": "view",
            "type": "function"
        },
        {
            "inputs": [
                {
                    "internalType": "uint256",
                    "name": "motionId",
                    "type": "uint256"
                }
            ],
            "name": "getHeadOfMotion",
            "outputs": [
                {
                    "components": [
                        {
                            "internalType": "uint8",
                            "name": "state",
                            "type": "uint8"
                        },
                        {
                            "internalType": "uint40",
                            "name": "proposer",
                            "type": "uint40"
                        },
                        {
                            "internalType": "uint40",
                            "name": "executor",
                            "type": "uint40"
                        },
                        {
                            "internalType": "uint48",
                            "name": "proposeDate",
                            "type": "uint48"
                        },
                        {
                            "internalType": "uint48",
                            "name": "shareRegDate",
                            "type": "uint48"
                        },
                        {
                            "internalType": "uint48",
                            "name": "voteStartDate",
                            "type": "uint48"
                        }
                    ],
                    "internalType": "struct MotionsRepo.Head",
                    "name": "head",
                    "type": "tuple"
                }
            ],
            "stateMutability": "view",
            "type": "function"
        },
        {
            "inputs": [],
            "name": "getOwner",
            "outputs": [
                {
                    "internalType": "uint40",
                    "name": "",
                    "type": "uint40"
                }
            ],
            "stateMutability": "view",
            "type": "function"
        },
        {
            "inputs": [
                {
                    "internalType": "uint256",
                    "name": "motionId",
                    "type": "uint256"
                },
                {
                    "internalType": "uint256",
                    "name": "acct",
                    "type": "uint256"
                }
            ],
            "name": "getVoterOfDelegateMap",
            "outputs": [
                {
                    "components": [
                        {
                            "internalType": "uint40",
                            "name": "delegate",
                            "type": "uint40"
                        },
                        {
                            "internalType": "uint64",
                            "name": "weight",
                            "type": "uint64"
                        },
                        {
                            "internalType": "uint64",
                            "name": "repWeight",
                            "type": "uint64"
                        },
                        {
                            "internalType": "uint32",
                            "name": "repHead",
                            "type": "uint32"
                        },
                        {
                            "internalType": "uint40[]",
                            "name": "principals",
                            "type": "uint40[]"
                        }
                    ],
                    "internalType": "struct DelegateMap.Voter",
                    "name": "",
                    "type": "tuple"
                }
            ],
            "stateMutability": "view",
            "type": "function"
        },
        {
            "inputs": [
                {
                    "internalType": "uint256",
                    "name": "motionId",
                    "type": "uint256"
                }
            ],
            "name": "getVotingRuleOfMotion",
            "outputs": [
                {
                    "components": [
                        {
                            "internalType": "uint16",
                            "name": "seq",
                            "type": "uint16"
                        },
                        {
                            "internalType": "uint8",
                            "name": "qtyOfSubRule",
                            "type": "uint8"
                        },
                        {
                            "internalType": "uint8",
                            "name": "seqOfSubRule",
                            "type": "uint8"
                        },
                        {
                            "internalType": "uint8",
                            "name": "authority",
                            "type": "uint8"
                        },
                        {
                            "internalType": "uint16",
                            "name": "headRatio",
                            "type": "uint16"
                        },
                        {
                            "internalType": "uint16",
                            "name": "amountRatio",
                            "type": "uint16"
                        },
                        {
                            "internalType": "bool",
                            "name": "onlyAttendance",
                            "type": "bool"
                        },
                        {
                            "internalType": "bool",
                            "name": "impliedConsent",
                            "type": "bool"
                        },
                        {
                            "internalType": "bool",
                            "name": "partyAsConsent",
                            "type": "bool"
                        },
                        {
                            "internalType": "bool",
                            "name": "againstShallBuy",
                            "type": "bool"
                        },
                        {
                            "internalType": "uint8",
                            "name": "shaExecDays",
                            "type": "uint8"
                        },
                        {
                            "internalType": "uint8",
                            "name": "reviewDays",
                            "type": "uint8"
                        },
                        {
                            "internalType": "uint8",
                            "name": "votingDays",
                            "type": "uint8"
                        },
                        {
                            "internalType": "uint8",
                            "name": "execDaysForPutOpt",
                            "type": "uint8"
                        },
                        {
                            "internalType": "uint40[3]",
                            "name": "vetoers",
                            "type": "uint40[3]"
                        }
                    ],
                    "internalType": "struct RulesParser.VotingRule",
                    "name": "m",
                    "type": "tuple"
                }
            ],
            "stateMutability": "view",
            "type": "function"
        },
        {
            "inputs": [
                {
                    "internalType": "bytes32",
                    "name": "role",
                    "type": "bytes32"
                },
                {
                    "internalType": "uint256",
                    "name": "acct",
                    "type": "uint256"
                }
            ],
            "name": "grantRole",
            "outputs": [],
            "stateMutability": "nonpayable",
            "type": "function"
        },
        {
            "inputs": [
                {
                    "internalType": "bytes32",
                    "name": "role",
                    "type": "bytes32"
                },
                {
                    "internalType": "uint256",
                    "name": "acct",
                    "type": "uint256"
                }
            ],
            "name": "hasRole",
            "outputs": [
                {
                    "internalType": "bool",
                    "name": "",
                    "type": "bool"
                }
            ],
            "stateMutability": "view",
            "type": "function"
        },
        {
            "inputs": [
                {
                    "internalType": "uint256",
                    "name": "owner",
                    "type": "uint256"
                },
                {
                    "internalType": "address",
                    "name": "directKeeper",
                    "type": "address"
                },
                {
                    "internalType": "address",
                    "name": "regCenter",
                    "type": "address"
                },
                {
                    "internalType": "address",
                    "name": "generalKeeper",
                    "type": "address"
                }
            ],
            "name": "init",
            "outputs": [],
            "stateMutability": "nonpayable",
            "type": "function"
        },
        {
            "inputs": [
                {
                    "internalType": "uint256",
                    "name": "motionId",
                    "type": "uint256"
                }
            ],
            "name": "isExecuted",
            "outputs": [
                {
                    "internalType": "bool",
                    "name": "",
                    "type": "bool"
                }
            ],
            "stateMutability": "view",
            "type": "function"
        },
        {
            "inputs": [
                {
                    "internalType": "uint256",
                    "name": "motionId",
                    "type": "uint256"
                }
            ],
            "name": "isPassed",
            "outputs": [
                {
                    "internalType": "bool",
                    "name": "",
                    "type": "bool"
                }
            ],
            "stateMutability": "view",
            "type": "function"
        },
        {
            "inputs": [
                {
                    "internalType": "uint256",
                    "name": "motionId",
                    "type": "uint256"
                }
            ],
            "name": "isProposed",
            "outputs": [
                {
                    "internalType": "bool",
                    "name": "",
                    "type": "bool"
                }
            ],
            "stateMutability": "view",
            "type": "function"
        },
        {
            "inputs": [
                {
                    "internalType": "uint256",
                    "name": "motionId",
                    "type": "uint256"
                },
                {
                    "internalType": "uint256",
                    "name": "acct",
                    "type": "uint256"
                }
            ],
            "name": "isVoted",
            "outputs": [
                {
                    "internalType": "bool",
                    "name": "",
                    "type": "bool"
                }
            ],
            "stateMutability": "view",
            "type": "function"
        },
        {
            "inputs": [
                {
                    "internalType": "uint256",
                    "name": "motionId",
                    "type": "uint256"
                },
                {
                    "internalType": "uint256",
                    "name": "acct",
                    "type": "uint256"
                },
                {
                    "internalType": "uint8",
                    "name": "atti",
                    "type": "uint8"
                }
            ],
            "name": "isVotedFor",
            "outputs": [
                {
                    "internalType": "bool",
                    "name": "",
                    "type": "bool"
                }
            ],
            "stateMutability": "view",
            "type": "function"
        },
        {
            "inputs": [],
            "name": "lockContents",
            "outputs": [],
            "stateMutability": "nonpayable",
            "type": "function"
        },
        {
            "inputs": [
                {
                    "internalType": "uint256",
                    "name": "motionId",
                    "type": "uint256"
                }
            ],
            "name": "motionExecuted",
            "outputs": [],
            "stateMutability": "nonpayable",
            "type": "function"
        },
        {
            "inputs": [
                {
                    "internalType": "uint256",
                    "name": "seqOfVR",
                    "type": "uint256"
                },
                {
                    "internalType": "uint8",
                    "name": "title",
                    "type": "uint8"
                },
                {
                    "internalType": "uint256",
                    "name": "nominator",
                    "type": "uint256"
                },
                {
                    "internalType": "uint256",
                    "name": "candidate",
                    "type": "uint256"
                }
            ],
            "name": "nominateOfficer",
            "outputs": [],
            "stateMutability": "nonpayable",
            "type": "function"
        },
        {
            "inputs": [
                {
                    "internalType": "uint256",
                    "name": "seqOfVR",
                    "type": "uint256"
                },
                {
                    "internalType": "address[]",
                    "name": "targets",
                    "type": "address[]"
                },
                {
                    "internalType": "uint256[]",
                    "name": "values",
                    "type": "uint256[]"
                },
                {
                    "internalType": "bytes[]",
                    "name": "params",
                    "type": "bytes[]"
                },
                {
                    "internalType": "bytes32",
                    "name": "desHash",
                    "type": "bytes32"
                },
                {
                    "internalType": "uint256",
                    "name": "proposer",
                    "type": "uint256"
                },
                {
                    "internalType": "uint256",
                    "name": "executor",
                    "type": "uint256"
                }
            ],
            "name": "proposeAction",
            "outputs": [],
            "stateMutability": "nonpayable",
            "type": "function"
        },
        {
            "inputs": [
                {
                    "internalType": "address",
                    "name": "doc",
                    "type": "address"
                },
                {
                    "internalType": "uint256",
                    "name": "seqOfVR",
                    "type": "uint256"
                },
                {
                    "internalType": "uint256",
                    "name": "proposer",
                    "type": "uint256"
                },
                {
                    "internalType": "uint256",
                    "name": "executor",
                    "type": "uint256"
                }
            ],
            "name": "proposeDoc",
            "outputs": [],
            "stateMutability": "nonpayable",
            "type": "function"
        },
        {
            "inputs": [
                {
                    "internalType": "uint256",
                    "name": "motionId",
                    "type": "uint256"
                },
                {
                    "internalType": "uint256",
                    "name": "seqOfVR",
                    "type": "uint256"
                },
                {
                    "internalType": "uint256",
                    "name": "proposer",
                    "type": "uint256"
                },
                {
                    "internalType": "uint256",
                    "name": "executor",
                    "type": "uint256"
                }
            ],
            "name": "proposeMotion",
            "outputs": [],
            "stateMutability": "nonpayable",
            "type": "function"
        },
        {
            "inputs": [
                {
                    "internalType": "bytes32",
                    "name": "role",
                    "type": "bytes32"
                }
            ],
            "name": "renounceRole",
            "outputs": [],
            "stateMutability": "nonpayable",
            "type": "function"
        },
        {
            "inputs": [
                {
                    "internalType": "bytes32",
                    "name": "role",
                    "type": "bytes32"
                },
                {
                    "internalType": "uint256",
                    "name": "acct",
                    "type": "uint256"
                }
            ],
            "name": "revokeRole",
            "outputs": [],
            "stateMutability": "nonpayable",
            "type": "function"
        },
        {
            "inputs": [
                {
                    "internalType": "address",
                    "name": "keeper",
                    "type": "address"
                }
            ],
            "name": "setDirectKeeper",
            "outputs": [],
            "stateMutability": "nonpayable",
            "type": "function"
        },
        {
            "inputs": [
                {
                    "internalType": "uint256",
                    "name": "acct",
                    "type": "uint256"
                }
            ],
            "name": "setGeneralCounsel",
            "outputs": [],
            "stateMutability": "nonpayable",
            "type": "function"
        },
        {
            "inputs": [
                {
                    "internalType": "uint256",
                    "name": "acct",
                    "type": "uint256"
                }
            ],
            "name": "setOwner",
            "outputs": [],
            "stateMutability": "nonpayable",
            "type": "function"
        },
        {
            "inputs": [
                {
                    "internalType": "bytes32",
                    "name": "role",
                    "type": "bytes32"
                },
                {
                    "internalType": "uint256",
                    "name": "acct",
                    "type": "uint256"
                }
            ],
            "name": "setRoleAdmin",
            "outputs": [],
            "stateMutability": "nonpayable",
            "type": "function"
        },
        {
            "inputs": [
                {
                    "internalType": "uint256",
                    "name": "motionId",
                    "type": "uint256"
                }
            ],
            "name": "voteCounting",
            "outputs": [
                {
                    "internalType": "bool",
                    "name": "flag",
                    "type": "bool"
                }
            ],
            "stateMutability": "nonpayable",
            "type": "function"
        }
    ],
    "bytecode": "608060405234801561001057600080fd5b50613b86806100206000396000f3fe608060405234801561001057600080fd5b50600436106102115760003560e01c80638041494e11610125578063cd43b165116100ad578063ed2110231161007c578063ed2110231461068b578063f045a769146106ab578063f117bdb7146106b3578063f8fb9e1d146106c6578063fe1bdff2146106d957600080fd5b8063cd43b16514610612578063d9732b8114610625578063dc890da914610638578063ea56efc61461064b57600080fd5b80638d5b6585116100f45780638d5b6585146105985780639a51cdfc146105b8578063aaf7bfc6146105cb578063b3f05b97146105eb578063bbfd607d146105ff57600080fd5b80638041494e1461052c57806382405f451461053f578063893d20e81461057d5780638bb9c5bf1461058557600080fd5b806349403183116101a857806361df743f1161017757806361df743f146103ab57806364525a0d146103cb5780636be8496f146104f357806376a6bf52146105065780637e063c5a1461051957600080fd5b8063494031831461034f5780634a14beb1146103725780635171ebd41461038557806359269f821461039857600080fd5b80631b6ea9f9116101e45780631b6ea9f9146102f5578063240a6438146103085780632de32075146103295780633da9a6001461033c57600080fd5b806307eef1cc146102165780630d3587571461022b578063103f6edd146102c457806319d61ad9146102e2575b600080fd5b610229610224366004612d10565b6106ec565b005b61023e610239366004612d42565b610a61565b6040516102bb9190600060e08201905064ffffffffff835116825260ff602084015116602083015263ffffffff604084015116604083015260608301516001600160401b03808216606085015265ffffffffffff60808601511660808501528060a08601511660a0850152505060c083015160c083015292915050565b60405180910390f35b6102cc610b3b565b60405164ffffffffff90911681526020016102bb565b6102296102f0366004612d42565b610bc7565b610229610303366004612d42565b610c5b565b61031b610316366004612fb4565b610c80565b6040519081526020016102bb565b610229610337366004613066565b610e94565b61022961034a3660046130a5565b611050565b61036261035d3660046130a5565b611162565b60405190151581526020016102bb565b6102296103803660046130a5565b611187565b610229610393366004612d42565b611377565b6103626103a63660046130a5565b61139c565b6103be6103b9366004612d42565b611429565b6040516102bb91906130be565b6104876103d93660046130a5565b6040805160c081018252600080825260208201819052918101829052606081018290526080810182905260a081019190915250600090815260046020908152604091829020825160c081018452905460ff8116825264ffffffffff6101008204811693830193909352600160301b81049092169281019290925265ffffffffffff600160581b820481166060840152600160881b820481166080840152600160b81b9091041660a082015290565b6040516102bb9190600060c08201905060ff8351168252602083015164ffffffffff80821660208501528060408601511660408501525050606083015165ffffffffffff80821660608501528060808601511660808501528060a08601511660a0850152505092915050565b61022961050136600461314c565b611549565b6103626105143660046130a5565b6115fb565b610362610527366004612d42565b611604565b61022961053a3660046130a5565b61169f565b61036261054d366004613169565b600092835260046020908152604080852093855260059093019052912054600160281b900460ff90811691161490565b6102cc611884565b6102296105933660046130a5565b6118bf565b6105ab6105a63660046131a2565b611918565b6040516102bb919061320d565b6102cc6105c6366004612d42565b6119d6565b6105de6105d93660046130a5565b611a7b565b6040516102bb919061327d565b60028054600160f01b900460ff1614610362565b61022961060d36600461338d565b611bf4565b610229610620366004613439565b611cc0565b610229610633366004613474565b611d8c565b6102296106463660046134b1565b611e7a565b610362610659366004612d42565b600091825260046020908152604080842092845260059092019052902054600160901b900465ffffffffffff16151590565b610693611f5d565b6040516001600160a01b0390911681526020016102bb565b610229611fe3565b6102296106c13660046130a5565b612201565b6103626106d43660046130a5565b6122b3565b6102296106e7366004613504565b61254a565b6001546040516335d2155560e11b81523360048201526001600160a01b0390911690636ba42aaa9060240160206040518083038186803b15801561072f57600080fd5b505afa158015610743573d6000803e3d6000fd5b505050506040513d601f19601f820116820180604052508101906107679190613545565b61078c5760405162461bcd60e51b815260040161078390613560565b60405180910390fd5b6040516392f13c3f60e01b8152600560048201526024810185905273__$8c1a4844a0a0988ea2454cf87145a95df1$__906392f13c3f9060440160206040518083038186803b1580156107de57600080fd5b505af41580156107f2573d6000803e3d6000fd5b505050506040513d601f19601f820116820180604052508101906108169190613545565b15610a135760008481526004602052604081209073__$9d2c69e94fee47b9774dc8db4aa5c0bbec$__638503d8d661084c6127b3565b6001600160a01b03166348462037886040518263ffffffff1660e01b815260040161087991815260200190565b60206040518083038186803b15801561089157600080fd5b505afa1580156108a5573d6000803e3d6000fd5b505050506040513d601f19601f820116820180604052508101906108c9919061358b565b6040518263ffffffff1660e01b81526004016108e791815260200190565b6102206040518083038186803b15801561090057600080fd5b505af4158015610914573d6000803e3d6000fd5b505050506040513d601f19601f82011682018060405250810190610938919061364a565b604080518781526020810187905290810185905290915086907f102abc62b8c3148424781563c44df7db4171db4f83b87e45a09bfc3ff3dd18969060600160405180910390a260405163223a8eed60e11b815273__$c69e6785922941bfe0f11afdbfcce85492$__906344751dda906109bb90859085908990899060040161376d565b60206040518083038186803b1580156109d357600080fd5b505af41580156109e7573d6000803e3d6000fd5b505050506040513d601f19601f82011682018060405250810190610a0b9190613545565b505050610a5b565b60405162461bcd60e51b815260206004820152601e60248201527f4d4d2e504d3a206d6f74696f6e20616c72656164792070726f706f73656400006044820152606401610783565b50505050565b6040805160e081018252600080825260208201819052918101829052606081018290526080810182905260a0810182905260c0810191909152506000828152600460209081526040808320848452600501825291829020825160e081018452815464ffffffffff8116825260ff600160281b8204169382019390935263ffffffff600160301b840416938101939093526001600160401b03600160501b83048116606085015265ffffffffffff600160901b8404166080850152600160c01b90920490911660a08301526001015460c08201525b92915050565b60405163e8c0cc1d60e01b81526002600482015260009073__$364aad554dc80380f414546becdd2c1584$__9063e8c0cc1d906024015b60206040518083038186803b158015610b8a57600080fd5b505af4158015610b9e573d6000803e3d6000fd5b505050506040513d601f19601f82011682018060405250810190610bc2919061389a565b905090565b73__$364aad554dc80380f414546becdd2c1584$__6382daafaa600284610bec612809565b6040516001600160e01b031960e086901b1681526004810193909352602483019190915264ffffffffff166044820152606481018490526084015b60006040518083038186803b158015610c3f57600080fd5b505af4158015610c53573d6000803e3d6000fd5b505050505050565b73__$364aad554dc80380f414546becdd2c1584$__636320d75e600284610bec612809565b604051633b11adbf60e21b81526002600482015233602482015260009073__$364aad554dc80380f414546becdd2c1584$__9063ec46b6fc9060440160206040518083038186803b158015610cd457600080fd5b505af4158015610ce8573d6000803e3d6000fd5b505050506040513d601f19601f82011682018060405250810190610d0c9190613545565b610d285760405162461bcd60e51b8152600401610783906138b5565b6000610d378888888887612863565b600081815260046020526040902080549192509060ff16600214610d9d5760405162461bcd60e51b815260206004820152601860248201527f4d4d2e45413a20766f74696e67204e4f542070617373656400000000000000006044820152606401610783565b8054600160301b900464ffffffffff168514610dfb5760405162461bcd60e51b815260206004820152601a60248201527f4d4d2e45413a2063616c6c6572206e6f74206578656375746f720000000000006044820152606401610783565b610e068888886128a0565b15610e51576040516001815282907fc8744c074a42d37db7f38fa5954f2926e37ca8068b94c263efed1b4565066e469060200160405180910390a2805460ff19166006178155610e88565b6040516000815282907fc8744c074a42d37db7f38fa5954f2926e37ca8068b94c263efed1b4565066e469060200160405180910390a25b50979650505050505050565b604051633b11adbf60e21b81526002600482015233602482015273__$364aad554dc80380f414546becdd2c1584$__9063ec46b6fc9060440160206040518083038186803b158015610ee557600080fd5b505af4158015610ef9573d6000803e3d6000fd5b505050506040513d601f19601f82011682018060405250810190610f1d9190613545565b610f395760405162461bcd60e51b8152600401610783906138b5565b600084815260046020526040812090610f52828661297e565b604051635063fbad60e11b8152600481018490526024810187905260ff861660448201526001600160401b03821660648201526084810185905290915073__$c69e6785922941bfe0f11afdbfcce85492$__9063a0c7f75a9060a40160206040518083038186803b158015610fc657600080fd5b505af4158015610fda573d6000803e3d6000fd5b505050506040513d601f19601f82011682018060405250810190610ffe9190613545565b15610c53576040805186815260ff8616602082015290810184905286907f479d980d169d88df4cc262d98fe45a41bb84b9fec75d61e6724e28f103836c3f9060600160405180910390a2505050505050565b604051633b11adbf60e21b81526002600482015233602482015273__$364aad554dc80380f414546becdd2c1584$__9063ec46b6fc9060440160206040518083038186803b1580156110a157600080fd5b505af41580156110b5573d6000803e3d6000fd5b505050506040513d601f19601f820116820180604052508101906110d99190613545565b6110f55760405162461bcd60e51b8152600401610783906138b5565b60405163cc99e11b60e01b8152600260048201526024810182905273__$364aad554dc80380f414546becdd2c1584$__9063cc99e11b9060440160006040518083038186803b15801561114757600080fd5b505af415801561115b573d6000803e3d6000fd5b5050505050565b600060025b6000928352600460205260409092205460ff908116921691909114919050565b604051633b11adbf60e21b81526002600482015233602482015273__$364aad554dc80380f414546becdd2c1584$__9063ec46b6fc9060440160206040518083038186803b1580156111d857600080fd5b505af41580156111ec573d6000803e3d6000fd5b505050506040513d601f19601f820116820180604052508101906112109190613545565b806112b5575073__$364aad554dc80380f414546becdd2c1584$__63fe271086600261123a612809565b6040516001600160e01b031960e085901b168152600481019290925264ffffffffff16602482015260440160206040518083038186803b15801561127d57600080fd5b505af4158015611291573d6000803e3d6000fd5b505050506040513d601f19601f820116820180604052508101906112b59190613545565b6112d15760405162461bcd60e51b8152600401610783906138fb565b604051632725ebef60e21b8152600260048201526024810182905273__$364aad554dc80380f414546becdd2c1584$__90639c97afbc9060440160006040518083038186803b15801561132357600080fd5b505af4158015611337573d6000803e3d6000fd5b505050507ff2735f34b69be1e6342dea95f9162f84d0db925fab655ca9f1f312ac8cbfc99d8160405161136c91815260200190565b60405180910390a150565b73__$364aad554dc80380f414546becdd2c1584$__63ee98b313600284610bec612809565b604051633f5f77cd60e01b8152600560048201526024810182905260009073__$8c1a4844a0a0988ea2454cf87145a95df1$__90633f5f77cd9060440160206040518083038186803b1580156113f157600080fd5b505af4158015611405573d6000803e3d6000fd5b505050506040513d601f19601f82011682018060405250810190610b359190613545565b6040805160a08101825260008082526020820181905291810182905260608082019290925260808101919091526000838152600460209081526040808320858452600301825291829020825160a081018452815464ffffffffff811682526001600160401b03600160281b8204811683860152600160681b8204168286015263ffffffff600160a81b909104166060820152600182018054855181860281018601909652808652919492936080860193929083018282801561153857602002820191906000526020600020906000905b82829054906101000a900464ffffffffff1664ffffffffff16815260200190600501906020826004010492830192600103820291508084116114f95790505b505050505081525050905092915050565b604051630f07232560e01b8152600260048201523360248201526001600160a01b038216604482015273__$364aad554dc80380f414546becdd2c1584$__90630f0723259060640160006040518083038186803b1580156115a957600080fd5b505af41580156115bd573d6000803e3d6000fd5b50506040516001600160a01b03841681527fe435cbeab64e4eae6497b9d8289704bd709d624a80704ef3ca9af777534bc6ec9250602001905061136c565b60006006611167565b604051632a3be56b60e21b815260026004820152602481018390526044810182905260009073__$364aad554dc80380f414546becdd2c1584$__9063a8ef95ac9060640160206040518083038186803b15801561166057600080fd5b505af4158015611674573d6000803e3d6000fd5b505050506040513d601f19601f820116820180604052508101906116989190613545565b9392505050565b604051633b11adbf60e21b81526002600482015233602482015273__$364aad554dc80380f414546becdd2c1584$__9063ec46b6fc9060440160206040518083038186803b1580156116f057600080fd5b505af4158015611704573d6000803e3d6000fd5b505050506040513d601f19601f820116820180604052508101906117289190613545565b806117cd575073__$364aad554dc80380f414546becdd2c1584$__63fe2710866002611752612809565b6040516001600160e01b031960e085901b168152600481019290925264ffffffffff16602482015260440160206040518083038186803b15801561179557600080fd5b505af41580156117a9573d6000803e3d6000fd5b505050506040513d601f19601f820116820180604052508101906117cd9190613545565b6117e95760405162461bcd60e51b8152600401610783906138fb565b60405163b6e38a2960e01b8152600260048201526024810182905273__$364aad554dc80380f414546becdd2c1584$__9063b6e38a299060440160006040518083038186803b15801561183b57600080fd5b505af415801561184f573d6000803e3d6000fd5b505050507f8b6f40f36b4ae8cc5f55e895036457c43da4ab1f80f58c46f5ff0d72a650033b8160405161136c91815260200190565b60405163987ad15360e01b81526002600482015260009073__$364aad554dc80380f414546becdd2c1584$__9063987ad15390602401610b72565b60006118c9612809565b60405163cc0d511b60e01b8152600260048201526024810184905264ffffffffff8216604482015290915073__$364aad554dc80380f414546becdd2c1584$__9063cc0d511b90606401610c27565b60408051606080820183526000808352602083015291810191909152600083815260046020818152604080842060ff871685529092018152918190208151606081018352815463ffffffff8116825264010000000090046001600160401b03168185015260018201805484518187028101870186528181529295939486019383018282801561153857602002820191906000526020600020905b8154815260200190600101908083116119b257505050505081525050905092915050565b600082815260046020819052604080832090516301cd7e5560e21b815260039091019181019190915264ffffffffff8316602482015273__$68438f465b222e285b1fb0cc5c3aa7ceb4$__90630735f9549060440160206040518083038186803b158015611a4357600080fd5b505af4158015611a57573d6000803e3d6000fd5b505050506040513d601f19601f82011682018060405250810190611698919061389a565b611a83612c6f565b60008281526004602090815260409182902082516101e08101845260018201805461ffff808216845260ff6201000083048116968501969096526301000000820486168488015264010000000082048616606080860191909152600160281b830482166080860152670100000000000000830490911660a0850152690100000000000000000082048616151560c0850152600160501b82048616151560e0850152600160581b820486161515610100850152600160601b820486161515610120850152600160681b82048616610140850152600160701b82048616610160850152600160781b82048616610180850152600160801b9091049094166101a0830152845193840190945292916101c084019160020160038282826020028201916000905b82829054906101000a900464ffffffffff1664ffffffffff1681526020019060050190602082600401049283019260010382029150808411611ba65790505050505050815250509050919050565b604051633b11adbf60e21b81526002600482015233602482015273__$364aad554dc80380f414546becdd2c1584$__9063ec46b6fc9060440160206040518083038186803b158015611c4557600080fd5b505af4158015611c59573d6000803e3d6000fd5b505050506040513d601f19601f82011682018060405250810190611c7d9190613545565b611c995760405162461bcd60e51b8152600401610783906138b5565b6000611ca88888888888612863565b9050611cb6818985856106ec565b5050505050505050565b604051633b11adbf60e21b81526002600482015233602482015273__$364aad554dc80380f414546becdd2c1584$__9063ec46b6fc9060440160206040518083038186803b158015611d1157600080fd5b505af4158015611d25573d6000803e3d6000fd5b505050506040513d601f19601f82011682018060405250810190611d499190613545565b611d655760405162461bcd60e51b8152600401610783906138b5565b6000611d7e6001600160a01b03861660a086901b613967565b905061115b818585856106ec565b6001546040516335d2155560e11b81523360048201526001600160a01b0390911690636ba42aaa9060240160206040518083038186803b158015611dcf57600080fd5b505afa158015611de3573d6000803e3d6000fd5b505050506040513d601f19601f82011682018060405250810190611e079190613545565b611e235760405162461bcd60e51b815260040161078390613560565b60408051602080820187905260ff86168284015260608201859052608082018490524265ffffffffffff1660a0808401919091528351808403909101815260c0909201909252805191012061115b818685856106ec565b611e8382612a41565b611e8c81612af0565b604051636cdd0edf60e11b815260026004820152602481018590526001600160a01b038416604482015273__$364aad554dc80380f414546becdd2c1584$__9063d9ba1dbe9060640160006040518083038186803b158015611eed57600080fd5b505af4158015611f01573d6000803e3d6000fd5b5050604080518781526001600160a01b038781166020830152868116828401528516606082015290517f3abb2418c66fe32ba9c883030a75ce583971d9af9192b9b74e44e67c5e6c8c1f9350908190036080019150a150505050565b604051633c3e56c160e11b81526002600482015260009073__$364aad554dc80380f414546becdd2c1584$__9063787cad829060240160206040518083038186803b158015611fab57600080fd5b505af4158015611fbf573d6000803e3d6000fd5b505050506040513d601f19601f82011682018060405250810190610bc2919061397f565b604051633b11adbf60e21b81526002600482015233602482015273__$364aad554dc80380f414546becdd2c1584$__9063ec46b6fc9060440160206040518083038186803b15801561203457600080fd5b505af4158015612048573d6000803e3d6000fd5b505050506040513d601f19601f8201168201806040525081019061206c9190613545565b6120885760405162461bcd60e51b8152600401610783906138b5565b600254600160f01b900460ff166001146120e45760405162461bcd60e51b815260206004820181905260248201527f41432e6f6e6c7950656e64696e673a20446f632069732066696e616c697a65646044820152606401610783565b60405163cc99e11b60e01b815260026004820152684174746f726e65797360b81b602482015273__$364aad554dc80380f414546becdd2c1584$__9063cc99e11b9060440160006040518083038186803b15801561214157600080fd5b505af4158015612155573d6000803e3d6000fd5b5050604051632725ebef60e21b8152600260048201526000602482015273__$364aad554dc80380f414546becdd2c1584$__9250639c97afbc915060440160006040518083038186803b1580156121ab57600080fd5b505af41580156121bf573d6000803e3d6000fd5b50506002805460ff60f01b1916600160f11b17905550506040517f35012b512309c322acf68632cd6cb702ff0e1d776fbe9394e38ffc13b434fe7590600090a1565b6001546040516335d2155560e11b81523360048201526001600160a01b0390911690636ba42aaa9060240160206040518083038186803b15801561224457600080fd5b505afa158015612258573d6000803e3d6000fd5b505050506040513d601f19601f8201168201806040525081019061227c9190613545565b6122985760405162461bcd60e51b815260040161078390613560565b6000908152600460205260409020805460ff19166006179055565b604051633b11adbf60e21b81526002600482015233602482015260009073__$364aad554dc80380f414546becdd2c1584$__9063ec46b6fc9060440160206040518083038186803b15801561230757600080fd5b505af415801561231b573d6000803e3d6000fd5b505050506040513d601f19601f8201168201806040525081019061233f9190613545565b61235b5760405162461bcd60e51b8152600401610783906138b5565b600082815260046020526040812090612372612ba7565b9050600061237e612bf7565b905061238985612c15565b1561243657604051630483108960e51b815260048101849052602481018690526001600160a01b0380841660448301528216606482015273__$c69e6785922941bfe0f11afdbfcce85492$__9063906211209060840160206040518083038186803b1580156123f757600080fd5b505af415801561240b573d6000803e3d6000fd5b505050506040513d601f19601f8201168201806040525081019061242f9190613545565b93506124d3565b604051632de9f5b360e01b8152600481018490526001600160a01b0380841660248301528216604482015273__$c69e6785922941bfe0f11afdbfcce85492$__90632de9f5b39060640160206040518083038186803b15801561249857600080fd5b505af41580156124ac573d6000803e3d6000fd5b505050506040513d601f19601f820116820180604052508101906124d09190613545565b93505b836124f9576001830154600160601b900460ff166124f25760046124fc565b60056124fc565b60025b835460ff191660ff91909116908117845560405190815285907f09dabc8247f652d3170a3738595d35365582b55eebeee44e1059d298185264839060200160405180910390a2505050919050565b604051633b11adbf60e21b81526002600482015233602482015273__$364aad554dc80380f414546becdd2c1584$__9063ec46b6fc9060440160206040518083038186803b15801561259b57600080fd5b505af41580156125af573d6000803e3d6000fd5b505050506040513d601f19601f820116820180604052508101906125d39190613545565b6125ef5760405162461bcd60e51b8152600401610783906138b5565b60008381526004602052604090208054610100900464ffffffffff166126575760405162461bcd60e51b815260206004820152601a60248201527f4d4d2e45443a206d6f74696f6e206e6f742070726f706f7365640000000000006044820152606401610783565b805442600160881b90910465ffffffffffff1611156126b85760405162461bcd60e51b815260206004820152601d60248201527f4d4d2e45443a206e6f74207265616368207368617265526567446174650000006044820152606401610783565b60006126c4828561297e565b60408051868152602081018690526001600160401b03831681830152905191925086917f9312e29b165b47befe1d8dbc089fea17ef2aea172e8dbbb5114e67e8e621cab79181900360600190a2604051631b9d77ab60e21b815260038301600482015260248101859052604481018490526001600160401b038216606482015273__$68438f465b222e285b1fb0cc5c3aa7ceb4$__90636e75deac9060840160206040518083038186803b15801561277b57600080fd5b505af415801561278f573d6000803e3d6000fd5b505050506040513d601f19601f82011682018060405250810190610c539190613545565b60006127bd612c54565b6001600160a01b0316632f5f3b3c6040518163ffffffff1660e01b815260040160206040518083038186803b1580156127f557600080fd5b505afa158015611fbf573d6000803e3d6000fd5b60008054604051634de835e760e11b81523360048201526001600160a01b0390911690639bd06bce90602401602060405180830381600087803b15801561284f57600080fd5b505af1158015610b9e573d6000803e3d6000fd5b6000858585858560405160200161287e9594939291906139c8565b60408051601f1981840301815291905280516020909101209695505050505050565b6000805b8451811015612976578481815181106128bf576128bf613aaa565b60200260200101516001600160a01b03168482815181106128e2576128e2613aaa565b60200260200101518483815181106128fc576128fc613aaa565b60200260200101516040516129119190613ac0565b60006040518083038185875af1925050503d806000811461294e576040519150601f19603f3d011682016040523d82523d6000602084013e612953565b606091505b505080925050816129645750611698565b8061296e81613adc565b9150506128a4565b509392505050565b600182015460009061299d90600290640100000000900460ff16613af7565b60ff1660011415610b35576129b0612ba7565b8354604051634bc8315f60e01b815260048101859052600160881b90910465ffffffffffff1660248201526001600160a01b039190911690634bc8315f9060440160206040518083038186803b158015612a0957600080fd5b505afa158015612a1d573d6000803e3d6000fd5b505050506040513d601f19601f820116820180604052508101906116989190613b27565b6000546001600160a01b031615612a925760405162461bcd60e51b815260206004820152601560248201527430b63932b0b23c9039b2ba103932b3a1b2b73a32b960591b6044820152606401610783565b6040516001600160a01b03821681527f318da6c7624c71cbc0afe346c9d8827f119d0ecefb241a7b0c87217a076a8e029060200160405180910390a1600080546001600160a01b0319166001600160a01b0392909216919091179055565b6001546001600160a01b031615612b495760405162461bcd60e51b815260206004820152601960248201527f616c7265616479207365742067656e6572616c4b6565706572000000000000006044820152606401610783565b6040516001600160a01b03821681527fe513d3e0f0d0a3877029dcc588748679a7a3450ec1ec7ed56d96bd012c3e61aa9060200160405180910390a1600180546001600160a01b0319166001600160a01b0392909216919091179055565b6001546000906001600160a01b031663e0ff5b8b60075b6040516001600160e01b031960e084901b16815260ff909116600482015260240160206040518083038186803b1580156127f557600080fd5b600180546000916001600160a01b039091169063e0ff5b8b90612bbe565b600060a082901c82158015612c2e575060008161ffff16115b8015612c3f575060108161ffff1611155b8015612c4d575060b083901c155b5050919050565b6001546000906001600160a01b031663e0ff5b8b6003612bbe565b604080516101e081018252600080825260208201819052918101829052606081018290526080810182905260a0810182905260c0810182905260e08101829052610100810182905261012081018290526101408101829052610160810182905261018081018290526101a08101919091526101c08101612ced612cf2565b905290565b60405180606001604052806003906020820280368337509192915050565b60008060008060808587031215612d2657600080fd5b5050823594602084013594506040840135936060013592509050565b60008060408385031215612d5557600080fd5b50508035926020909101359150565b634e487b7160e01b600052604160045260246000fd5b6040516101e081016001600160401b0381118282101715612d9d57612d9d612d64565b60405290565b604051601f8201601f191681016001600160401b0381118282101715612dcb57612dcb612d64565b604052919050565b60006001600160401b03821115612dec57612dec612d64565b5060051b60200190565b6001600160a01b0381168114612e0b57600080fd5b50565b600082601f830112612e1f57600080fd5b81356020612e34612e2f83612dd3565b612da3565b82815260059290921b84018101918181019086841115612e5357600080fd5b8286015b84811015612e77578035612e6a81612df6565b8352918301918301612e57565b509695505050505050565b600082601f830112612e9357600080fd5b81356020612ea3612e2f83612dd3565b82815260059290921b84018101918181019086841115612ec257600080fd5b8286015b84811015612e775780358352918301918301612ec6565b6000601f8381840112612eef57600080fd5b82356020612eff612e2f83612dd3565b82815260059290921b85018101918181019087841115612f1e57600080fd5b8287015b84811015610e885780356001600160401b0380821115612f425760008081fd5b818a0191508a603f830112612f575760008081fd5b85820135604082821115612f6d57612f6d612d64565b612f7e828b01601f19168901612da3565b92508183528c81838601011115612f955760008081fd5b8181850189850137506000908201870152845250918301918301612f22565b60008060008060008060c08789031215612fcd57600080fd5b8635955060208701356001600160401b0380821115612feb57600080fd5b612ff78a838b01612e0e565b9650604089013591508082111561300d57600080fd5b6130198a838b01612e82565b9550606089013591508082111561302f57600080fd5b5061303c89828a01612edd565b9350506080870135915060a087013590509295509295509295565b60ff81168114612e0b57600080fd5b6000806000806080858703121561307c57600080fd5b8435935060208501359250604085013561309581613057565b9396929550929360600135925050565b6000602082840312156130b757600080fd5b5035919050565b6000602080835260c0830164ffffffffff8086511683860152828601516001600160401b038082166040880152806040890151166060880152505063ffffffff6060870151166080860152608086015160a08087015282815180855260e0880191508583019450600092505b80831015610e885784518416825293850193600192909201919085019061312a565b60006020828403121561315e57600080fd5b813561169881612df6565b60008060006060848603121561317e57600080fd5b8335925060208401359150604084013561319781613057565b809150509250925092565b600080604083850312156131b557600080fd5b8235915060208301356131c781613057565b809150509250929050565b600081518084526020808501945080840160005b83811015613202578151875295820195908201906001016131e6565b509495945050505050565b6020815263ffffffff82511660208201526001600160401b0360208301511660408201526000604083015160608084015261324b60808401826131d2565b949350505050565b8060005b6003811015610a5b57815164ffffffffff16845260209384019390910190600101613257565b815161ffff1681526102208101602083015161329e602084018260ff169052565b5060408301516132b3604084018260ff169052565b5060608301516132c8606084018260ff169052565b5060808301516132de608084018261ffff169052565b5060a08301516132f460a084018261ffff169052565b5060c083015161330860c084018215159052565b5060e083015161331c60e084018215159052565b5061010083810151151590830152610120808401511515908301526101408084015160ff9081169184019190915261016080850151821690840152610180808501518216908401526101a080850151909116908301526101c08084015161338582850182613253565b505092915050565b600080600080600080600060e0888a0312156133a857600080fd5b8735965060208801356001600160401b03808211156133c657600080fd5b6133d28b838c01612e0e565b975060408a01359150808211156133e857600080fd5b6133f48b838c01612e82565b965060608a013591508082111561340a57600080fd5b506134178a828b01612edd565b979a969950949760808101359660a0820135965060c090910135945092505050565b6000806000806080858703121561344f57600080fd5b843561345a81612df6565b966020860135965060408601359560600135945092505050565b6000806000806080858703121561348a57600080fd5b84359350602085013561349c81613057565b93969395505050506040820135916060013590565b600080600080608085870312156134c757600080fd5b8435935060208501356134d981612df6565b925060408501356134e981612df6565b915060608501356134f981612df6565b939692955090935050565b60008060006060848603121561351957600080fd5b505081359360208301359350604090920135919050565b8051801515811461354057600080fd5b919050565b60006020828403121561355757600080fd5b61169882613530565b60208082526011908201527020a19737b59d103737ba1025b2b2b832b960791b604082015260600190565b60006020828403121561359d57600080fd5b5051919050565b805161ffff8116811461354057600080fd5b805161354081613057565b805164ffffffffff8116811461354057600080fd5b600082601f8301126135e757600080fd5b604051606081018181106001600160401b038211171561360957613609612d64565b60405280606084018581111561361e57600080fd5b845b8181101561363f57613631816135c1565b835260209283019201613620565b509195945050505050565b6000610220828403121561365d57600080fd5b613665612d7a565b61366e836135a4565b815261367c602084016135b6565b602082015261368d604084016135b6565b604082015261369e606084016135b6565b60608201526136af608084016135a4565b60808201526136c060a084016135a4565b60a08201526136d160c08401613530565b60c08201526136e260e08401613530565b60e08201526101006136f5818501613530565b90820152610120613707848201613530565b908201526101406137198482016135b6565b9082015261016061372b8482016135b6565b9082015261018061373d8482016135b6565b908201526101a061374f8482016135b6565b908201526101c0613762858583016135d6565b908201529392505050565b848152835161ffff1660208201526102808101602085015160ff8116604084015250604085015160ff8116606084015250606085015160ff8116608084015250608085015161ffff811660a08401525060a085015161ffff811660c08401525060c085015180151560e08401525060e08501516101006137f08185018315159052565b86015190506101206138058482018315159052565b860151905061014061381a8482018315159052565b86015190506101606138308482018360ff169052565b86015190506101806138468482018360ff169052565b86015190506101a061385c8482018360ff169052565b86015190506101c06138728482018360ff169052565b86015190506138856101e0840182613253565b50610240820193909352610260015292915050565b6000602082840312156138ac57600080fd5b611698826135c1565b60208082526026908201527f41432e6f6e6c794469726563744b65657065723a206e6f74206469726563742060408201526535b2b2b832b960d11b606082015260800190565b60208082526036908201527f41432e6f776e65724f72446972656374426f6f6b65657065723a206e6569746860408201527532b91037bbb732b9103737b9103137b7b5b2b2b832b960511b606082015260800190565b634e487b7160e01b600052601160045260246000fd5b6000821982111561397a5761397a613951565b500190565b60006020828403121561399157600080fd5b815161169881612df6565b60005b838110156139b757818101518382015260200161399f565b83811115610a5b5750506000910152565b600060a08201878352602060a08185015281885180845260c086019150828a01935060005b81811015613a125784516001600160a01b0316835293830193918301916001016139ed565b50508481036040860152613a2681896131d2565b92505083820360608501528186518084528284019150828160051b85010183890160005b83811015613a9057601f198088850301865282518051808652613a72818a88018b850161399c565b96880196601f01909116939093018601925090850190600101613a4a565b505080955050505050508260808301529695505050505050565b634e487b7160e01b600052603260045260246000fd5b60008251613ad281846020870161399c565b9190910192915050565b6000600019821415613af057613af0613951565b5060010190565b600060ff831680613b1857634e487b7160e01b600052601260045260246000fd5b8060ff84160691505092915050565b600060208284031215613b3957600080fd5b81516001600160401b038116811461169857600080fdfea26469706673582212200a7ed1a5f71c676381a16468631027c95a7d00fcfe856bbd8ba22f34f598991f64736f6c63430008080033",
    "sourcePath": "/Users/kaptain/github.com/hardhat/comboox/contracts/common/components/MeetingMinutes.sol",
    "compiler": {
        "name": "solc",
        "version": "0.8.8+commit.dddeac2f"
    },
    "functionHashes": {
        "abandonRole(bytes32)": "3da9a600",
        "castVote(uint256,uint256,uint8,bytes32)": "2de32075",
        "entrustDelegate(uint256,uint256,uint256)": "fe1bdff2",
        "execAction(uint256,address[],uint256[],bytes[],uint256,bytes32)": "240a6438",
        "finalized()": "b3f05b97",
        "getBallot(uint256,uint256)": "0d358757",
        "getBookeeper()": "ed211023",
        "getCaseOfAttitude(uint256,uint8)": "8d5b6585",
        "getDelegateOf(uint256,uint256)": "9a51cdfc",
        "getGeneralCounsel()": "103f6edd",
        "getHeadOfMotion(uint256)": "64525a0d",
        "getOwner()": "893d20e8",
        "getVoterOfDelegateMap(uint256,uint256)": "61df743f",
        "getVotingRuleOfMotion(uint256)": "aaf7bfc6",
        "grantRole(bytes32,uint256)": "1b6ea9f9",
        "hasRole(bytes32,uint256)": "7e063c5a",
        "init(uint256,address,address,address)": "dc890da9",
        "isExecuted(uint256)": "76a6bf52",
        "isPassed(uint256)": "49403183",
        "isProposed(uint256)": "59269f82",
        "isVoted(uint256,uint256)": "ea56efc6",
        "isVotedFor(uint256,uint256,uint8)": "82405f45",
        "lockContents()": "f045a769",
        "motionExecuted(uint256)": "f117bdb7",
        "nominateOfficer(uint256,uint8,uint256,uint256)": "d9732b81",
        "proposeAction(uint256,address[],uint256[],bytes[],bytes32,uint256,uint256)": "bbfd607d",
        "proposeDoc(address,uint256,uint256,uint256)": "cd43b165",
        "proposeMotion(uint256,uint256,uint256,uint256)": "07eef1cc",
        "renounceRole(bytes32)": "8bb9c5bf",
        "revokeRole(bytes32,uint256)": "19d61ad9",
        "setDirectKeeper(address)": "6be8496f",
        "setGeneralCounsel(uint256)": "4a14beb1",
        "setOwner(uint256)": "8041494e",
        "setRoleAdmin(bytes32,uint256)": "5171ebd4",
        "voteCounting(uint256)": "f8fb9e1d"
    },
    "gasEstimates": {
        "creation": {
            "codeDepositCost": "3047600",
            "executionCost": "3357",
            "totalCost": "3050957"
        },
        "external": {
            "abandonRole(bytes32)": "infinite",
            "castVote(uint256,uint256,uint8,bytes32)": "infinite",
            "entrustDelegate(uint256,uint256,uint256)": "infinite",
            "execAction(uint256,address[],uint256[],bytes[],uint256,bytes32)": "infinite",
            "finalized()": "2438",
            "getBallot(uint256,uint256)": "5444",
            "getBookeeper()": "infinite",
            "getCaseOfAttitude(uint256,uint8)": "infinite",
            "getDelegateOf(uint256,uint256)": "infinite",
            "getGeneralCounsel()": "infinite",
            "getHeadOfMotion(uint256)": "3140",
            "getOwner()": "infinite",
            "getVoterOfDelegateMap(uint256,uint256)": "infinite",
            "getVotingRuleOfMotion(uint256)": "infinite",
            "grantRole(bytes32,uint256)": "infinite",
            "hasRole(bytes32,uint256)": "infinite",
            "init(uint256,address,address,address)": "infinite",
            "isExecuted(uint256)": "2623",
            "isPassed(uint256)": "2547",
            "isProposed(uint256)": "infinite",
            "isVoted(uint256,uint256)": "2688",
            "isVotedFor(uint256,uint256,uint8)": "2745",
            "lockContents()": "infinite",
            "motionExecuted(uint256)": "infinite",
            "nominateOfficer(uint256,uint8,uint256,uint256)": "infinite",
            "proposeAction(uint256,address[],uint256[],bytes[],bytes32,uint256,uint256)": "infinite",
            "proposeDoc(address,uint256,uint256,uint256)": "infinite",
            "proposeMotion(uint256,uint256,uint256,uint256)": "infinite",
            "renounceRole(bytes32)": "infinite",
            "revokeRole(bytes32,uint256)": "infinite",
            "setDirectKeeper(address)": "infinite",
            "setGeneralCounsel(uint256)": "infinite",
            "setOwner(uint256)": "infinite",
            "setRoleAdmin(bytes32,uint256)": "infinite",
            "voteCounting(uint256)": "infinite"
        },
        "internal": {
            "_execute(address[] memory,uint256[] memory,bytes memory[] memory)": "infinite",
            "_getDocRepo(uint256)": "infinite",
            "_getWeight(struct MotionsRepo.Motion storage pointer,uint256)": "infinite",
            "_hashAction(uint256,address[] memory,uint256[] memory,bytes memory[] memory,bytes32)": "infinite",
            "_isDocApproval(uint256)": "156"
        }
    }
}