{
    "contractName": "MeetingMinutes",
    "abi": [
        {
            "anonymous": false,
            "inputs": [
                {
                    "indexed": true,
                    "internalType": "uint256",
                    "name": "motionId",
                    "type": "uint256"
                },
                {
                    "indexed": false,
                    "internalType": "uint256",
                    "name": "caller",
                    "type": "uint256"
                },
                {
                    "indexed": false,
                    "internalType": "uint8",
                    "name": "attitude",
                    "type": "uint8"
                },
                {
                    "indexed": false,
                    "internalType": "bytes32",
                    "name": "sigHash",
                    "type": "bytes32"
                }
            ],
            "name": "CastVote",
            "type": "event"
        },
        {
            "anonymous": false,
            "inputs": [
                {
                    "indexed": true,
                    "internalType": "uint256",
                    "name": "motionId",
                    "type": "uint256"
                },
                {
                    "indexed": false,
                    "internalType": "uint256",
                    "name": "principal",
                    "type": "uint256"
                },
                {
                    "indexed": false,
                    "internalType": "uint256",
                    "name": "delegate",
                    "type": "uint256"
                },
                {
                    "indexed": false,
                    "internalType": "uint64",
                    "name": "weight",
                    "type": "uint64"
                }
            ],
            "name": "EntrustDelegate",
            "type": "event"
        },
        {
            "anonymous": false,
            "inputs": [
                {
                    "indexed": true,
                    "internalType": "uint256",
                    "name": "motionId",
                    "type": "uint256"
                },
                {
                    "indexed": false,
                    "internalType": "bool",
                    "name": "flag",
                    "type": "bool"
                }
            ],
            "name": "ExecuteAction",
            "type": "event"
        },
        {
            "anonymous": false,
            "inputs": [
                {
                    "indexed": false,
                    "internalType": "uint256",
                    "name": "owner",
                    "type": "uint256"
                },
                {
                    "indexed": false,
                    "internalType": "address",
                    "name": "directKeeper",
                    "type": "address"
                },
                {
                    "indexed": false,
                    "internalType": "address",
                    "name": "regCenter",
                    "type": "address"
                },
                {
                    "indexed": false,
                    "internalType": "address",
                    "name": "generalKeeper",
                    "type": "address"
                }
            ],
            "name": "Init",
            "type": "event"
        },
        {
            "anonymous": false,
            "inputs": [],
            "name": "LockContents",
            "type": "event"
        },
        {
            "anonymous": false,
            "inputs": [
                {
                    "indexed": true,
                    "internalType": "uint256",
                    "name": "motionId",
                    "type": "uint256"
                },
                {
                    "indexed": false,
                    "internalType": "uint256",
                    "name": "seqOfRule",
                    "type": "uint256"
                },
                {
                    "indexed": false,
                    "internalType": "uint256",
                    "name": "proposer",
                    "type": "uint256"
                },
                {
                    "indexed": false,
                    "internalType": "uint256",
                    "name": "executor",
                    "type": "uint256"
                }
            ],
            "name": "ProposeMotion",
            "type": "event"
        },
        {
            "anonymous": false,
            "inputs": [
                {
                    "indexed": false,
                    "internalType": "uint256",
                    "name": "title",
                    "type": "uint256"
                },
                {
                    "indexed": false,
                    "internalType": "address",
                    "name": "book",
                    "type": "address"
                }
            ],
            "name": "SetBookRuting",
            "type": "event"
        },
        {
            "anonymous": false,
            "inputs": [
                {
                    "indexed": false,
                    "internalType": "address",
                    "name": "keeper",
                    "type": "address"
                }
            ],
            "name": "SetDirectKeeper",
            "type": "event"
        },
        {
            "anonymous": false,
            "inputs": [
                {
                    "indexed": false,
                    "internalType": "uint256",
                    "name": "acct",
                    "type": "uint256"
                }
            ],
            "name": "SetGeneralCounsel",
            "type": "event"
        },
        {
            "anonymous": false,
            "inputs": [
                {
                    "indexed": false,
                    "internalType": "address",
                    "name": "gk",
                    "type": "address"
                }
            ],
            "name": "SetGeneralKeeper",
            "type": "event"
        },
        {
            "anonymous": false,
            "inputs": [
                {
                    "indexed": false,
                    "internalType": "uint256",
                    "name": "acct",
                    "type": "uint256"
                }
            ],
            "name": "SetOwner",
            "type": "event"
        },
        {
            "anonymous": false,
            "inputs": [
                {
                    "indexed": false,
                    "internalType": "address",
                    "name": "rc",
                    "type": "address"
                }
            ],
            "name": "SetRegCenter",
            "type": "event"
        },
        {
            "anonymous": false,
            "inputs": [
                {
                    "indexed": true,
                    "internalType": "uint256",
                    "name": "motionId",
                    "type": "uint256"
                },
                {
                    "indexed": false,
                    "internalType": "uint8",
                    "name": "state",
                    "type": "uint8"
                }
            ],
            "name": "VoteCounting",
            "type": "event"
        },
        {
            "inputs": [
                {
                    "internalType": "bytes32",
                    "name": "role",
                    "type": "bytes32"
                }
            ],
            "name": "abandonRole",
            "outputs": [],
            "stateMutability": "nonpayable",
            "type": "function"
        },
        {
            "inputs": [
                {
                    "internalType": "uint256",
                    "name": "motionId",
                    "type": "uint256"
                },
                {
                    "internalType": "uint256",
                    "name": "caller",
                    "type": "uint256"
                },
                {
                    "internalType": "uint8",
                    "name": "attitude",
                    "type": "uint8"
                },
                {
                    "internalType": "bytes32",
                    "name": "sigHash",
                    "type": "bytes32"
                }
            ],
            "name": "castVote",
            "outputs": [],
            "stateMutability": "nonpayable",
            "type": "function"
        },
        {
            "inputs": [
                {
                    "internalType": "uint256",
                    "name": "motionId",
                    "type": "uint256"
                },
                {
                    "internalType": "uint256",
                    "name": "principal",
                    "type": "uint256"
                },
                {
                    "internalType": "uint256",
                    "name": "delegate",
                    "type": "uint256"
                }
            ],
            "name": "entrustDelegate",
            "outputs": [],
            "stateMutability": "nonpayable",
            "type": "function"
        },
        {
            "inputs": [
                {
                    "internalType": "uint256",
                    "name": "seqOfVR",
                    "type": "uint256"
                },
                {
                    "internalType": "address[]",
                    "name": "targets",
                    "type": "address[]"
                },
                {
                    "internalType": "uint256[]",
                    "name": "values",
                    "type": "uint256[]"
                },
                {
                    "internalType": "bytes[]",
                    "name": "params",
                    "type": "bytes[]"
                },
                {
                    "internalType": "uint256",
                    "name": "caller",
                    "type": "uint256"
                },
                {
                    "internalType": "bytes32",
                    "name": "desHash",
                    "type": "bytes32"
                }
            ],
            "name": "execAction",
            "outputs": [
                {
                    "internalType": "uint256",
                    "name": "",
                    "type": "uint256"
                }
            ],
            "stateMutability": "nonpayable",
            "type": "function"
        },
        {
            "inputs": [],
            "name": "finalized",
            "outputs": [
                {
                    "internalType": "bool",
                    "name": "",
                    "type": "bool"
                }
            ],
            "stateMutability": "view",
            "type": "function"
        },
        {
            "inputs": [
                {
                    "internalType": "uint256",
                    "name": "motionId",
                    "type": "uint256"
                },
                {
                    "internalType": "uint256",
                    "name": "acct",
                    "type": "uint256"
                }
            ],
            "name": "getBallot",
            "outputs": [
                {
                    "components": [
                        {
                            "internalType": "uint40",
                            "name": "acct",
                            "type": "uint40"
                        },
                        {
                            "internalType": "uint8",
                            "name": "attitude",
                            "type": "uint8"
                        },
                        {
                            "internalType": "uint32",
                            "name": "head",
                            "type": "uint32"
                        },
                        {
                            "internalType": "uint64",
                            "name": "weight",
                            "type": "uint64"
                        },
                        {
                            "internalType": "uint48",
                            "name": "sigDate",
                            "type": "uint48"
                        },
                        {
                            "internalType": "uint64",
                            "name": "blocknumber",
                            "type": "uint64"
                        },
                        {
                            "internalType": "bytes32",
                            "name": "sigHash",
                            "type": "bytes32"
                        }
                    ],
                    "internalType": "struct BallotsBox.Ballot",
                    "name": "",
                    "type": "tuple"
                }
            ],
            "stateMutability": "view",
            "type": "function"
        },
        {
            "inputs": [],
            "name": "getBookeeper",
            "outputs": [
                {
                    "internalType": "address",
                    "name": "",
                    "type": "address"
                }
            ],
            "stateMutability": "view",
            "type": "function"
        },
        {
            "inputs": [
                {
                    "internalType": "uint256",
                    "name": "motionId",
                    "type": "uint256"
                },
                {
                    "internalType": "uint8",
                    "name": "atti",
                    "type": "uint8"
                }
            ],
            "name": "getCaseOfAttitude",
            "outputs": [
                {
                    "components": [
                        {
                            "internalType": "uint32",
                            "name": "sumOfHead",
                            "type": "uint32"
                        },
                        {
                            "internalType": "uint64",
                            "name": "sumOfWeight",
                            "type": "uint64"
                        },
                        {
                            "internalType": "uint256[]",
                            "name": "voters",
                            "type": "uint256[]"
                        }
                    ],
                    "internalType": "struct BallotsBox.Case",
                    "name": "",
                    "type": "tuple"
                }
            ],
            "stateMutability": "view",
            "type": "function"
        },
        {
            "inputs": [
                {
                    "internalType": "uint256",
                    "name": "motionId",
                    "type": "uint256"
                },
                {
                    "internalType": "uint256",
                    "name": "acct",
                    "type": "uint256"
                }
            ],
            "name": "getDelegateOf",
            "outputs": [
                {
                    "internalType": "uint40",
                    "name": "",
                    "type": "uint40"
                }
            ],
            "stateMutability": "view",
            "type": "function"
        },
        {
            "inputs": [],
            "name": "getGeneralCounsel",
            "outputs": [
                {
                    "internalType": "uint40",
                    "name": "",
                    "type": "uint40"
                }
            ],
            "stateMutability": "view",
            "type": "function"
        },
        {
            "inputs": [
                {
                    "internalType": "uint256",
                    "name": "motionId",
                    "type": "uint256"
                }
            ],
            "name": "getHeadOfMotion",
            "outputs": [
                {
                    "components": [
                        {
                            "internalType": "uint8",
                            "name": "state",
                            "type": "uint8"
                        },
                        {
                            "internalType": "uint40",
                            "name": "proposer",
                            "type": "uint40"
                        },
                        {
                            "internalType": "uint40",
                            "name": "executor",
                            "type": "uint40"
                        },
                        {
                            "internalType": "uint48",
                            "name": "proposeDate",
                            "type": "uint48"
                        },
                        {
                            "internalType": "uint48",
                            "name": "shareRegDate",
                            "type": "uint48"
                        },
                        {
                            "internalType": "uint48",
                            "name": "voteStartDate",
                            "type": "uint48"
                        }
                    ],
                    "internalType": "struct MotionsRepo.Head",
                    "name": "head",
                    "type": "tuple"
                }
            ],
            "stateMutability": "view",
            "type": "function"
        },
        {
            "inputs": [],
            "name": "getOwner",
            "outputs": [
                {
                    "internalType": "uint40",
                    "name": "",
                    "type": "uint40"
                }
            ],
            "stateMutability": "view",
            "type": "function"
        },
        {
            "inputs": [
                {
                    "internalType": "uint256",
                    "name": "motionId",
                    "type": "uint256"
                },
                {
                    "internalType": "uint256",
                    "name": "acct",
                    "type": "uint256"
                }
            ],
            "name": "getVoterOfDelegateMap",
            "outputs": [
                {
                    "components": [
                        {
                            "internalType": "uint40",
                            "name": "delegate",
                            "type": "uint40"
                        },
                        {
                            "internalType": "uint64",
                            "name": "weight",
                            "type": "uint64"
                        },
                        {
                            "internalType": "uint64",
                            "name": "repWeight",
                            "type": "uint64"
                        },
                        {
                            "internalType": "uint32",
                            "name": "repHead",
                            "type": "uint32"
                        },
                        {
                            "internalType": "uint40[]",
                            "name": "principals",
                            "type": "uint40[]"
                        }
                    ],
                    "internalType": "struct DelegateMap.Voter",
                    "name": "",
                    "type": "tuple"
                }
            ],
            "stateMutability": "view",
            "type": "function"
        },
        {
            "inputs": [
                {
                    "internalType": "uint256",
                    "name": "motionId",
                    "type": "uint256"
                }
            ],
            "name": "getVotingRuleOfMotion",
            "outputs": [
                {
                    "components": [
                        {
                            "internalType": "uint16",
                            "name": "seq",
                            "type": "uint16"
                        },
                        {
                            "internalType": "uint8",
                            "name": "qtyOfSubRule",
                            "type": "uint8"
                        },
                        {
                            "internalType": "uint8",
                            "name": "seqOfSubRule",
                            "type": "uint8"
                        },
                        {
                            "internalType": "uint8",
                            "name": "authority",
                            "type": "uint8"
                        },
                        {
                            "internalType": "uint16",
                            "name": "headRatio",
                            "type": "uint16"
                        },
                        {
                            "internalType": "uint16",
                            "name": "amountRatio",
                            "type": "uint16"
                        },
                        {
                            "internalType": "bool",
                            "name": "onlyAttendance",
                            "type": "bool"
                        },
                        {
                            "internalType": "bool",
                            "name": "impliedConsent",
                            "type": "bool"
                        },
                        {
                            "internalType": "bool",
                            "name": "partyAsConsent",
                            "type": "bool"
                        },
                        {
                            "internalType": "bool",
                            "name": "againstShallBuy",
                            "type": "bool"
                        },
                        {
                            "internalType": "uint8",
                            "name": "shaExecDays",
                            "type": "uint8"
                        },
                        {
                            "internalType": "uint8",
                            "name": "reviewDays",
                            "type": "uint8"
                        },
                        {
                            "internalType": "uint8",
                            "name": "votingDays",
                            "type": "uint8"
                        },
                        {
                            "internalType": "uint8",
                            "name": "execDaysForPutOpt",
                            "type": "uint8"
                        },
                        {
                            "internalType": "uint40[3]",
                            "name": "vetoers",
                            "type": "uint40[3]"
                        }
                    ],
                    "internalType": "struct RulesParser.VotingRule",
                    "name": "m",
                    "type": "tuple"
                }
            ],
            "stateMutability": "view",
            "type": "function"
        },
        {
            "inputs": [
                {
                    "internalType": "bytes32",
                    "name": "role",
                    "type": "bytes32"
                },
                {
                    "internalType": "uint256",
                    "name": "acct",
                    "type": "uint256"
                }
            ],
            "name": "grantRole",
            "outputs": [],
            "stateMutability": "nonpayable",
            "type": "function"
        },
        {
            "inputs": [
                {
                    "internalType": "bytes32",
                    "name": "role",
                    "type": "bytes32"
                },
                {
                    "internalType": "uint256",
                    "name": "acct",
                    "type": "uint256"
                }
            ],
            "name": "hasRole",
            "outputs": [
                {
                    "internalType": "bool",
                    "name": "",
                    "type": "bool"
                }
            ],
            "stateMutability": "view",
            "type": "function"
        },
        {
            "inputs": [
                {
                    "internalType": "uint256",
                    "name": "owner",
                    "type": "uint256"
                },
                {
                    "internalType": "address",
                    "name": "directKeeper",
                    "type": "address"
                },
                {
                    "internalType": "address",
                    "name": "regCenter",
                    "type": "address"
                },
                {
                    "internalType": "address",
                    "name": "generalKeeper",
                    "type": "address"
                }
            ],
            "name": "init",
            "outputs": [],
            "stateMutability": "nonpayable",
            "type": "function"
        },
        {
            "inputs": [],
            "name": "initBOD",
            "outputs": [],
            "stateMutability": "nonpayable",
            "type": "function"
        },
        {
            "inputs": [],
            "name": "initBOH",
            "outputs": [],
            "stateMutability": "nonpayable",
            "type": "function"
        },
        {
            "inputs": [],
            "name": "initROM",
            "outputs": [],
            "stateMutability": "nonpayable",
            "type": "function"
        },
        {
            "inputs": [
                {
                    "internalType": "uint256",
                    "name": "motionId",
                    "type": "uint256"
                }
            ],
            "name": "isExecuted",
            "outputs": [
                {
                    "internalType": "bool",
                    "name": "",
                    "type": "bool"
                }
            ],
            "stateMutability": "view",
            "type": "function"
        },
        {
            "inputs": [
                {
                    "internalType": "uint256",
                    "name": "motionId",
                    "type": "uint256"
                }
            ],
            "name": "isPassed",
            "outputs": [
                {
                    "internalType": "bool",
                    "name": "",
                    "type": "bool"
                }
            ],
            "stateMutability": "view",
            "type": "function"
        },
        {
            "inputs": [
                {
                    "internalType": "uint256",
                    "name": "motionId",
                    "type": "uint256"
                }
            ],
            "name": "isProposed",
            "outputs": [
                {
                    "internalType": "bool",
                    "name": "",
                    "type": "bool"
                }
            ],
            "stateMutability": "view",
            "type": "function"
        },
        {
            "inputs": [
                {
                    "internalType": "uint256",
                    "name": "motionId",
                    "type": "uint256"
                },
                {
                    "internalType": "uint256",
                    "name": "acct",
                    "type": "uint256"
                }
            ],
            "name": "isVoted",
            "outputs": [
                {
                    "internalType": "bool",
                    "name": "",
                    "type": "bool"
                }
            ],
            "stateMutability": "view",
            "type": "function"
        },
        {
            "inputs": [
                {
                    "internalType": "uint256",
                    "name": "motionId",
                    "type": "uint256"
                },
                {
                    "internalType": "uint256",
                    "name": "acct",
                    "type": "uint256"
                },
                {
                    "internalType": "uint8",
                    "name": "atti",
                    "type": "uint8"
                }
            ],
            "name": "isVotedFor",
            "outputs": [
                {
                    "internalType": "bool",
                    "name": "",
                    "type": "bool"
                }
            ],
            "stateMutability": "view",
            "type": "function"
        },
        {
            "inputs": [],
            "name": "lockContents",
            "outputs": [],
            "stateMutability": "nonpayable",
            "type": "function"
        },
        {
            "inputs": [
                {
                    "internalType": "uint256",
                    "name": "motionId",
                    "type": "uint256"
                }
            ],
            "name": "motionExecuted",
            "outputs": [],
            "stateMutability": "nonpayable",
            "type": "function"
        },
        {
            "inputs": [
                {
                    "internalType": "uint256",
                    "name": "seqOfVR",
                    "type": "uint256"
                },
                {
                    "internalType": "uint8",
                    "name": "title",
                    "type": "uint8"
                },
                {
                    "internalType": "uint40",
                    "name": "nominator",
                    "type": "uint40"
                },
                {
                    "internalType": "uint40",
                    "name": "candidate",
                    "type": "uint40"
                }
            ],
            "name": "nominateOfficer",
            "outputs": [],
            "stateMutability": "nonpayable",
            "type": "function"
        },
        {
            "inputs": [
                {
                    "internalType": "uint256",
                    "name": "seqOfVR",
                    "type": "uint256"
                },
                {
                    "internalType": "address[]",
                    "name": "targets",
                    "type": "address[]"
                },
                {
                    "internalType": "uint256[]",
                    "name": "values",
                    "type": "uint256[]"
                },
                {
                    "internalType": "bytes[]",
                    "name": "params",
                    "type": "bytes[]"
                },
                {
                    "internalType": "bytes32",
                    "name": "desHash",
                    "type": "bytes32"
                },
                {
                    "internalType": "uint40",
                    "name": "proposer",
                    "type": "uint40"
                },
                {
                    "internalType": "uint40",
                    "name": "executor",
                    "type": "uint40"
                }
            ],
            "name": "proposeAction",
            "outputs": [],
            "stateMutability": "nonpayable",
            "type": "function"
        },
        {
            "inputs": [
                {
                    "internalType": "address",
                    "name": "doc",
                    "type": "address"
                },
                {
                    "internalType": "uint256",
                    "name": "seqOfVR",
                    "type": "uint256"
                },
                {
                    "internalType": "uint40",
                    "name": "proposer",
                    "type": "uint40"
                },
                {
                    "internalType": "uint40",
                    "name": "executor",
                    "type": "uint40"
                }
            ],
            "name": "proposeDoc",
            "outputs": [],
            "stateMutability": "nonpayable",
            "type": "function"
        },
        {
            "inputs": [
                {
                    "internalType": "uint256",
                    "name": "motionId",
                    "type": "uint256"
                },
                {
                    "internalType": "uint256",
                    "name": "seqOfVR",
                    "type": "uint256"
                },
                {
                    "internalType": "uint40",
                    "name": "proposer",
                    "type": "uint40"
                },
                {
                    "internalType": "uint40",
                    "name": "executor",
                    "type": "uint40"
                }
            ],
            "name": "proposeMotion",
            "outputs": [],
            "stateMutability": "nonpayable",
            "type": "function"
        },
        {
            "inputs": [
                {
                    "internalType": "bytes32",
                    "name": "role",
                    "type": "bytes32"
                }
            ],
            "name": "renounceRole",
            "outputs": [],
            "stateMutability": "nonpayable",
            "type": "function"
        },
        {
            "inputs": [
                {
                    "internalType": "bytes32",
                    "name": "role",
                    "type": "bytes32"
                },
                {
                    "internalType": "uint256",
                    "name": "acct",
                    "type": "uint256"
                }
            ],
            "name": "revokeRole",
            "outputs": [],
            "stateMutability": "nonpayable",
            "type": "function"
        },
        {
            "inputs": [
                {
                    "internalType": "address",
                    "name": "keeper",
                    "type": "address"
                }
            ],
            "name": "setDirectKeeper",
            "outputs": [],
            "stateMutability": "nonpayable",
            "type": "function"
        },
        {
            "inputs": [
                {
                    "internalType": "uint256",
                    "name": "acct",
                    "type": "uint256"
                }
            ],
            "name": "setGeneralCounsel",
            "outputs": [],
            "stateMutability": "nonpayable",
            "type": "function"
        },
        {
            "inputs": [
                {
                    "internalType": "uint256",
                    "name": "acct",
                    "type": "uint256"
                }
            ],
            "name": "setOwner",
            "outputs": [],
            "stateMutability": "nonpayable",
            "type": "function"
        },
        {
            "inputs": [
                {
                    "internalType": "bytes32",
                    "name": "role",
                    "type": "bytes32"
                },
                {
                    "internalType": "uint256",
                    "name": "acct",
                    "type": "uint256"
                }
            ],
            "name": "setRoleAdmin",
            "outputs": [],
            "stateMutability": "nonpayable",
            "type": "function"
        },
        {
            "inputs": [
                {
                    "internalType": "uint256",
                    "name": "motionId",
                    "type": "uint256"
                }
            ],
            "name": "voteCounting",
            "outputs": [
                {
                    "internalType": "bool",
                    "name": "flag",
                    "type": "bool"
                }
            ],
            "stateMutability": "nonpayable",
            "type": "function"
        }
    ],
    "bytecode": "608060405234801561001057600080fd5b50613d54806100206000396000f3fe608060405234801561001057600080fd5b50600436106102325760003560e01c80637e063c5a11610130578063b3f05b97116100b8578063f045a7691161007c578063f045a769146106dd578063f117bdb7146106e5578063f8fb9e1d146106f8578063fa9e79341461070b578063fe1bdff21461071357600080fd5b8063b3f05b9714610642578063ba1d3d5e14610657578063dc890da91461066a578063ea56efc61461067d578063ed211023146106bd57600080fd5b80638bb9c5bf116100ff5780638bb9c5bf146105c95780638d5b6585146105dc578063939ed3af146105fc5780639a51cdfc1461060f578063aaf7bfc61461062257600080fd5b80637e063c5a1461055d5780638041494e1461057057806382405f4514610583578063893d20e8146105c157600080fd5b80633da9a600116101be5780635ff3fd0f116101825780635ff3fd0f146103e757806361df743f146103ef57806364525a0d1461040f5780636be8496f1461053757806376a6bf521461054a57600080fd5b80633da9a60014610378578063494031831461038b5780634a14beb1146103ae5780635171ebd4146103c157806359269f82146103d457600080fd5b8063240a643811610205578063240a64381461031657806325cbca63146103375780632de320751461033f5780632f0b357b14610352578063371eda0f1461036557600080fd5b80630d35875714610237578063103f6edd146102d057806319d61ad9146102ee5780631b6ea9f914610303575b600080fd5b61024a610245366004612e96565b610726565b6040516102c79190600060e08201905064ffffffffff835116825260ff602084015116602083015263ffffffff604084015116604083015260608301516001600160401b03808216606085015265ffffffffffff60808601511660808501528060a08601511660a0850152505060c083015160c083015292915050565b60405180910390f35b6102d8610800565b60405164ffffffffff90911681526020016102c7565b6103016102fc366004612e96565b61088c565b005b610301610311366004612e96565b610920565b610329610324366004613114565b610945565b6040519081526020016102c7565b610301610b64565b61030161034d3660046131c6565b610c3c565b610301610360366004613218565b610df8565b610301610373366004613262565b6110d1565b610301610386366004613324565b61119d565b61039e610399366004613324565b6112a8565b60405190151581526020016102c7565b6103016103bc366004613324565b6112cd565b6103016103cf366004612e96565b6114bd565b61039e6103e2366004613324565b6114e2565b61030161156f565b6104026103fd366004612e96565b611642565b6040516102c7919061333d565b6104cb61041d366004613324565b6040805160c081018252600080825260208201819052918101829052606081018290526080810182905260a081019190915250600090815260076020908152604091829020825160c081018452905460ff8116825264ffffffffff6101008204811693830193909352600160301b81049092169281019290925265ffffffffffff600160581b820481166060840152600160881b820481166080840152600160b81b9091041660a082015290565b6040516102c79190600060c08201905060ff8351168252602083015164ffffffffff80821660208501528060408601511660408501525050606083015165ffffffffffff80821660608501528060808601511660808501528060a08601511660a0850152505092915050565b6103016105453660046133cb565b611762565b61039e610558366004613324565b611814565b61039e61056b366004612e96565b61181d565b61030161057e366004613324565b6118b8565b61039e6105913660046133e8565b600092835260076020908152604080852093855260059093019052912054600160281b900460ff90811691161490565b6102d8611a9d565b6103016105d7366004613324565b611ad8565b6105ef6105ea366004613421565b611b31565b6040516102c7919061348c565b61030161060a3660046134d2565b611bf0565b6102d861061d366004612e96565b611cbc565b610635610630366004613324565b611d5d565b6040516102c7919061353a565b600554600160f01b900460ff1660021461039e565b61030161066536600461364a565b611ed6565b610301610678366004613682565b611fcb565b61039e61068b366004612e96565b600091825260076020908152604080842092845260059092019052902054600160901b900465ffffffffffff16151590565b6106c56120ae565b6040516001600160a01b0390911681526020016102c7565b610301612134565b6103016106f3366004613324565b612352565b61039e610706366004613324565b612404565b61030161268c565b6103016107213660046136ca565b61275f565b6040805160e081018252600080825260208201819052918101829052606081018290526080810182905260a0810182905260c0810191909152506000828152600760209081526040808320848452600501825291829020825160e081018452815464ffffffffff8116825260ff600160281b8204169382019390935263ffffffff600160301b840416938101939093526001600160401b03600160501b83048116606085015265ffffffffffff600160901b8404166080850152600160c01b90920490911660a08301526001015460c08201525b92915050565b60405163e8c0cc1d60e01b81526005600482015260009073__$364aad554dc80380f414546becdd2c1584$__9063e8c0cc1d906024015b60206040518083038186803b15801561084f57600080fd5b505af4158015610863573d6000803e3d6000fd5b505050506040513d601f19601f8201168201806040525081019061088791906136f6565b905090565b73__$364aad554dc80380f414546becdd2c1584$__6382daafaa6005846108b16129c8565b6040516001600160e01b031960e086901b1681526004810193909352602483019190915264ffffffffff166044820152606481018490526084015b60006040518083038186803b15801561090457600080fd5b505af4158015610918573d6000803e3d6000fd5b505050505050565b73__$364aad554dc80380f414546becdd2c1584$__636320d75e6005846108b16129c8565b604051633b11adbf60e21b81526005600482015233602482015260009073__$364aad554dc80380f414546becdd2c1584$__9063ec46b6fc9060440160206040518083038186803b15801561099957600080fd5b505af41580156109ad573d6000803e3d6000fd5b505050506040513d601f19601f820116820180604052508101906109d19190613728565b6109f65760405162461bcd60e51b81526004016109ed90613743565b60405180910390fd5b6000610a058888888887612a22565b600081815260076020526040902080549192509060ff16600214610a6b5760405162461bcd60e51b815260206004820152601860248201527f4d4d2e45413a20766f74696e67204e4f5420706173736564000000000000000060448201526064016109ed565b8054600160301b900464ffffffffff168514610ac95760405162461bcd60e51b815260206004820152601a60248201527f4d4d2e45413a2063616c6c6572206e6f74206578656375746f7200000000000060448201526064016109ed565b610ad4888888612a5f565b15610b1f576040516001815282907fc8744c074a42d37db7f38fa5954f2926e37ca8068b94c263efed1b4565066e469060200160405180910390a2805460ff19166006178155610b56565b6040516000815282907fc8744c074a42d37db7f38fa5954f2926e37ca8068b94c263efed1b4565066e469060200160405180910390a25b5090505b9695505050505050565b60015460405163e0ff5b8b60e01b8152600360048201526001600160a01b039091169063e0ff5b8b9060240160206040518083038186803b158015610ba857600080fd5b505afa158015610bbc573d6000803e3d6000fd5b505050506040513d601f19601f82011682018060405250810190610be09190613789565b600380546001600160a01b0319166001600160a01b039290921691821781556040805191825260208201929092527f6aa5e483fe137161b095cd68564a336d1657057f57987b1ae21019134dbc8da291015b60405180910390a1565b604051633b11adbf60e21b81526005600482015233602482015273__$364aad554dc80380f414546becdd2c1584$__9063ec46b6fc9060440160206040518083038186803b158015610c8d57600080fd5b505af4158015610ca1573d6000803e3d6000fd5b505050506040513d601f19601f82011682018060405250810190610cc59190613728565b610ce15760405162461bcd60e51b81526004016109ed90613743565b600084815260076020526040812090610cfa8286612b3d565b604051635063fbad60e11b8152600481018490526024810187905260ff861660448201526001600160401b03821660648201526084810185905290915073__$c69e6785922941bfe0f11afdbfcce85492$__9063a0c7f75a9060a40160206040518083038186803b158015610d6e57600080fd5b505af4158015610d82573d6000803e3d6000fd5b505050506040513d601f19601f82011682018060405250810190610da69190613728565b15610918576040805186815260ff8616602082015290810184905286907f479d980d169d88df4cc262d98fe45a41bb84b9fec75d61e6724e28f103836c3f9060600160405180910390a2505050505050565b6001546040516335d2155560e11b81523360048201526001600160a01b0390911690636ba42aaa9060240160206040518083038186803b158015610e3b57600080fd5b505afa158015610e4f573d6000803e3d6000fd5b505050506040513d601f19601f82011682018060405250810190610e739190613728565b610e8f5760405162461bcd60e51b81526004016109ed906137a6565b6000610e99612bf7565b6001600160a01b03166348462037856040518263ffffffff1660e01b8152600401610ec691815260200190565b60206040518083038186803b158015610ede57600080fd5b505afa158015610ef2573d6000803e3d6000fd5b505050506040513d601f19601f82011682018060405250810190610f1691906137d1565b60405163d1296c8f60e01b8152600481019190915273__$9d2c69e94fee47b9774dc8db4aa5c0bbec$__9063d1296c8f906024016102206040518083038186803b158015610f6357600080fd5b505af4158015610f77573d6000803e3d6000fd5b505050506040513d601f19601f82011682018060405250810190610f9b919061387d565b604051630dddfe0560e21b815290915073__$c69e6785922941bfe0f11afdbfcce85492$__90633777f81490610fde9060079089908690899089906004016139a0565b60206040518083038186803b158015610ff657600080fd5b505af415801561100a573d6000803e3d6000fd5b505050506040513d601f19601f8201168201806040525081019061102e9190613728565b15611082576040805185815264ffffffffff8581166020830152841681830152905186917f102abc62b8c3148424781563c44df7db4171db4f83b87e45a09bfc3ff3dd1896919081900360600190a26110ca565b60405162461bcd60e51b815260206004820152601e60248201527f4d4d2e504d3a206d6f74696f6e20616c72656164792070726f706f736564000060448201526064016109ed565b5050505050565b604051633b11adbf60e21b81526005600482015233602482015273__$364aad554dc80380f414546becdd2c1584$__9063ec46b6fc9060440160206040518083038186803b15801561112257600080fd5b505af4158015611136573d6000803e3d6000fd5b505050506040513d601f19601f8201168201806040525081019061115a9190613728565b6111765760405162461bcd60e51b81526004016109ed90613743565b60006111858888888888612a22565b905061119381898585610df8565b5050505050505050565b604051633b11adbf60e21b81526005600482015233602482015273__$364aad554dc80380f414546becdd2c1584$__9063ec46b6fc9060440160206040518083038186803b1580156111ee57600080fd5b505af4158015611202573d6000803e3d6000fd5b505050506040513d601f19601f820116820180604052508101906112269190613728565b6112425760405162461bcd60e51b81526004016109ed90613743565b60405163cc99e11b60e01b8152600560048201526024810182905273__$364aad554dc80380f414546becdd2c1584$__9063cc99e11b9060440160006040518083038186803b15801561129457600080fd5b505af41580156110ca573d6000803e3d6000fd5b600060025b6000928352600760205260409092205460ff908116921691909114919050565b604051633b11adbf60e21b81526005600482015233602482015273__$364aad554dc80380f414546becdd2c1584$__9063ec46b6fc9060440160206040518083038186803b15801561131e57600080fd5b505af4158015611332573d6000803e3d6000fd5b505050506040513d601f19601f820116820180604052508101906113569190613728565b806113fb575073__$364aad554dc80380f414546becdd2c1584$__63fe27108660056113806129c8565b6040516001600160e01b031960e085901b168152600481019290925264ffffffffff16602482015260440160206040518083038186803b1580156113c357600080fd5b505af41580156113d7573d6000803e3d6000fd5b505050506040513d601f19601f820116820180604052508101906113fb9190613728565b6114175760405162461bcd60e51b81526004016109ed90613ae6565b604051632725ebef60e21b8152600560048201526024810182905273__$364aad554dc80380f414546becdd2c1584$__90639c97afbc9060440160006040518083038186803b15801561146957600080fd5b505af415801561147d573d6000803e3d6000fd5b505050507ff2735f34b69be1e6342dea95f9162f84d0db925fab655ca9f1f312ac8cbfc99d816040516114b291815260200190565b60405180910390a150565b73__$364aad554dc80380f414546becdd2c1584$__63ee98b3136005846108b16129c8565b604051633f5f77cd60e01b8152600860048201526024810182905260009073__$8c1a4844a0a0988ea2454cf87145a95df1$__90633f5f77cd9060440160206040518083038186803b15801561153757600080fd5b505af415801561154b573d6000803e3d6000fd5b505050506040513d601f19601f820116820180604052508101906107fa9190613728565b6001805460405163e0ff5b8b60e01b815260048101929092526001600160a01b03169063e0ff5b8b9060240160206040518083038186803b1580156115b357600080fd5b505afa1580156115c7573d6000803e3d6000fd5b505050506040513d601f19601f820116820180604052508101906115eb9190613789565b600280546001600160a01b0319166001600160a01b03929092169182179055604080516001815260208101929092527f6aa5e483fe137161b095cd68564a336d1657057f57987b1ae21019134dbc8da29101610c32565b6040805160a08101825260008082526020820181905291810182905260608082019290925260808101919091526000838152600760209081526040808320858452600301825291829020825160a081018452815464ffffffffff811682526001600160401b03600160281b8204811683860152600160681b8204168286015263ffffffff600160a81b909104166060820152600182018054855181860281018601909652808652919492936080860193929083018282801561175157602002820191906000526020600020906000905b82829054906101000a900464ffffffffff1664ffffffffff16815260200190600501906020826004010492830192600103820291508084116117125790505b505050505081525050905092915050565b604051630f07232560e01b8152600560048201523360248201526001600160a01b038216604482015273__$364aad554dc80380f414546becdd2c1584$__90630f0723259060640160006040518083038186803b1580156117c257600080fd5b505af41580156117d6573d6000803e3d6000fd5b50506040516001600160a01b03841681527fe435cbeab64e4eae6497b9d8289704bd709d624a80704ef3ca9af777534bc6ec925060200190506114b2565b600060066112ad565b604051632a3be56b60e21b815260056004820152602481018390526044810182905260009073__$364aad554dc80380f414546becdd2c1584$__9063a8ef95ac9060640160206040518083038186803b15801561187957600080fd5b505af415801561188d573d6000803e3d6000fd5b505050506040513d601f19601f820116820180604052508101906118b19190613728565b9392505050565b604051633b11adbf60e21b81526005600482015233602482015273__$364aad554dc80380f414546becdd2c1584$__9063ec46b6fc9060440160206040518083038186803b15801561190957600080fd5b505af415801561191d573d6000803e3d6000fd5b505050506040513d601f19601f820116820180604052508101906119419190613728565b806119e6575073__$364aad554dc80380f414546becdd2c1584$__63fe271086600561196b6129c8565b6040516001600160e01b031960e085901b168152600481019290925264ffffffffff16602482015260440160206040518083038186803b1580156119ae57600080fd5b505af41580156119c2573d6000803e3d6000fd5b505050506040513d601f19601f820116820180604052508101906119e69190613728565b611a025760405162461bcd60e51b81526004016109ed90613ae6565b60405163b6e38a2960e01b8152600560048201526024810182905273__$364aad554dc80380f414546becdd2c1584$__9063b6e38a299060440160006040518083038186803b158015611a5457600080fd5b505af4158015611a68573d6000803e3d6000fd5b505050507f8b6f40f36b4ae8cc5f55e895036457c43da4ab1f80f58c46f5ff0d72a650033b816040516114b291815260200190565b60405163987ad15360e01b81526005600482015260009073__$364aad554dc80380f414546becdd2c1584$__9063987ad15390602401610837565b6000611ae26129c8565b60405163cc0d511b60e01b8152600560048201526024810184905264ffffffffff8216604482015290915073__$364aad554dc80380f414546becdd2c1584$__9063cc0d511b906064016108ec565b60408051606080820183526000808352602083015291810191909152600083815260076020908152604080832060ff861684526004018252918290208251606081018452815463ffffffff8116825264010000000090046001600160401b0316818401526001820180548551818602810186018752818152929593949386019383018282801561175157602002820191906000526020600020905b815481526020019060010190808311611bcc57505050505081525050905092915050565b604051633b11adbf60e21b81526005600482015233602482015273__$364aad554dc80380f414546becdd2c1584$__9063ec46b6fc9060440160206040518083038186803b158015611c4157600080fd5b505af4158015611c55573d6000803e3d6000fd5b505050506040513d601f19601f82011682018060405250810190611c799190613728565b611c955760405162461bcd60e51b81526004016109ed90613743565b6000611cae6001600160a01b03861660a086901b613b52565b90506110ca81858585610df8565b60008281526007602052604080822090516301cd7e5560e21b81526003909101600482015264ffffffffff8316602482015273__$68438f465b222e285b1fb0cc5c3aa7ceb4$__90630735f9549060440160206040518083038186803b158015611d2557600080fd5b505af4158015611d39573d6000803e3d6000fd5b505050506040513d601f19601f820116820180604052508101906118b191906136f6565b611d65612df5565b60008281526007602090815260409182902082516101e08101845260018201805461ffff808216845260ff6201000083048116968501969096526301000000820486168488015264010000000082048616606080860191909152600160281b830482166080860152670100000000000000830490911660a0850152690100000000000000000082048616151560c0850152600160501b82048616151560e0850152600160581b820486161515610100850152600160601b820486161515610120850152600160681b82048616610140850152600160701b82048616610160850152600160781b82048616610180850152600160801b9091049094166101a0830152845193840190945292916101c084019160020160038282826020028201916000905b82829054906101000a900464ffffffffff1664ffffffffff1681526020019060050190602082600401049283019260010382029150808411611e885790505050505050815250509050919050565b6001546040516335d2155560e11b81523360048201526001600160a01b0390911690636ba42aaa9060240160206040518083038186803b158015611f1957600080fd5b505afa158015611f2d573d6000803e3d6000fd5b505050506040513d601f19601f82011682018060405250810190611f519190613728565b611f6d5760405162461bcd60e51b81526004016109ed906137a6565b60408051602080820187905260ff86168284015264ffffffffff8581166060840152841660808301524265ffffffffffff1660a0808401919091528351808403909101815260c090920190925280519101206110ca81868585610df8565b611fd482612c50565b611fdd81612cff565b604051636cdd0edf60e11b815260056004820152602481018590526001600160a01b038416604482015273__$364aad554dc80380f414546becdd2c1584$__9063d9ba1dbe9060640160006040518083038186803b15801561203e57600080fd5b505af4158015612052573d6000803e3d6000fd5b5050604080518781526001600160a01b038781166020830152868116828401528516606082015290517f3abb2418c66fe32ba9c883030a75ce583971d9af9192b9b74e44e67c5e6c8c1f9350908190036080019150a150505050565b604051633c3e56c160e11b81526005600482015260009073__$364aad554dc80380f414546becdd2c1584$__9063787cad829060240160206040518083038186803b1580156120fc57600080fd5b505af4158015612110573d6000803e3d6000fd5b505050506040513d601f19601f820116820180604052508101906108879190613789565b604051633b11adbf60e21b81526005600482015233602482015273__$364aad554dc80380f414546becdd2c1584$__9063ec46b6fc9060440160206040518083038186803b15801561218557600080fd5b505af4158015612199573d6000803e3d6000fd5b505050506040513d601f19601f820116820180604052508101906121bd9190613728565b6121d95760405162461bcd60e51b81526004016109ed90613743565b600554600160f01b900460ff166001146122355760405162461bcd60e51b815260206004820181905260248201527f41432e6f6e6c7950656e64696e673a20446f632069732066696e616c697a656460448201526064016109ed565b60405163cc99e11b60e01b815260056004820152684174746f726e65797360b81b602482015273__$364aad554dc80380f414546becdd2c1584$__9063cc99e11b9060440160006040518083038186803b15801561229257600080fd5b505af41580156122a6573d6000803e3d6000fd5b5050604051632725ebef60e21b8152600560048201526000602482015273__$364aad554dc80380f414546becdd2c1584$__9250639c97afbc915060440160006040518083038186803b1580156122fc57600080fd5b505af4158015612310573d6000803e3d6000fd5b50506005805460ff60f01b1916600160f11b17905550506040517f35012b512309c322acf68632cd6cb702ff0e1d776fbe9394e38ffc13b434fe7590600090a1565b6001546040516335d2155560e11b81523360048201526001600160a01b0390911690636ba42aaa9060240160206040518083038186803b15801561239557600080fd5b505afa1580156123a9573d6000803e3d6000fd5b505050506040513d601f19601f820116820180604052508101906123cd9190613728565b6123e95760405162461bcd60e51b81526004016109ed906137a6565b6000908152600760205260409020805460ff19166006179055565b604051633b11adbf60e21b81526005600482015233602482015260009073__$364aad554dc80380f414546becdd2c1584$__9063ec46b6fc9060440160206040518083038186803b15801561245857600080fd5b505af415801561246c573d6000803e3d6000fd5b505050506040513d601f19601f820116820180604052508101906124909190613728565b6124ac5760405162461bcd60e51b81526004016109ed90613743565b60008281526007602052604090206124c383612db6565b156125755760048054600254604051630483108960e51b8152928301849052602483018690526001600160a01b03918216604484015216606482015273__$c69e6785922941bfe0f11afdbfcce85492$__9063906211209060840160206040518083038186803b15801561253657600080fd5b505af415801561254a573d6000803e3d6000fd5b505050506040513d601f19601f8201168201806040525081019061256e9190613728565b9150612617565b60048054600254604051632de9f5b360e01b81529283018490526001600160a01b03918216602484015216604482015273__$c69e6785922941bfe0f11afdbfcce85492$__90632de9f5b39060640160206040518083038186803b1580156125dc57600080fd5b505af41580156125f0573d6000803e3d6000fd5b505050506040513d601f19601f820116820180604052508101906126149190613728565b91505b8161263d576001810154600160601b900460ff16612636576004612640565b6005612640565b60025b815460ff191660ff91909116908117825560405190815283907f09dabc8247f652d3170a3738595d35365582b55eebeee44e1059d298185264839060200160405180910390a250919050565b60015460405163e0ff5b8b60e01b8152600760048201526001600160a01b039091169063e0ff5b8b9060240160206040518083038186803b1580156126d057600080fd5b505afa1580156126e4573d6000803e3d6000fd5b505050506040513d601f19601f820116820180604052508101906127089190613789565b600480546001600160a01b0319166001600160a01b03929092169182179055604080516007815260208101929092527f6aa5e483fe137161b095cd68564a336d1657057f57987b1ae21019134dbc8da29101610c32565b604051633b11adbf60e21b81526005600482015233602482015273__$364aad554dc80380f414546becdd2c1584$__9063ec46b6fc9060440160206040518083038186803b1580156127b057600080fd5b505af41580156127c4573d6000803e3d6000fd5b505050506040513d601f19601f820116820180604052508101906127e89190613728565b6128045760405162461bcd60e51b81526004016109ed90613743565b60008381526007602052604090208054610100900464ffffffffff1661286c5760405162461bcd60e51b815260206004820152601a60248201527f4d4d2e45443a206d6f74696f6e206e6f742070726f706f73656400000000000060448201526064016109ed565b805442600160881b90910465ffffffffffff1611156128cd5760405162461bcd60e51b815260206004820152601d60248201527f4d4d2e45443a206e6f742072656163682073686172655265674461746500000060448201526064016109ed565b60006128d98285612b3d565b60408051868152602081018690526001600160401b03831681830152905191925086917f9312e29b165b47befe1d8dbc089fea17ef2aea172e8dbbb5114e67e8e621cab79181900360600190a2604051631b9d77ab60e21b815260038301600482015260248101859052604481018490526001600160401b038216606482015273__$68438f465b222e285b1fb0cc5c3aa7ceb4$__90636e75deac9060840160206040518083038186803b15801561299057600080fd5b505af41580156129a4573d6000803e3d6000fd5b505050506040513d601f19601f820116820180604052508101906109189190613728565b60008054604051636ae3b70d60e11b81523360048201526001600160a01b039091169063d5c76e1a90602401602060405180830381600087803b158015612a0e57600080fd5b505af1158015610863573d6000803e3d6000fd5b60008585858585604051602001612a3d959493929190613b96565b60408051601f1981840301815291905280516020909101209695505050505050565b6000805b8451811015612b3557848181518110612a7e57612a7e613c78565b60200260200101516001600160a01b0316848281518110612aa157612aa1613c78565b6020026020010151848381518110612abb57612abb613c78565b6020026020010151604051612ad09190613c8e565b60006040518083038185875af1925050503d8060008114612b0d576040519150601f19603f3d011682016040523d82523d6000602084013e612b12565b606091505b50508092505081612b2357506118b1565b80612b2d81613caa565b915050612a63565b509392505050565b6001820154600090612b5c90600290640100000000900460ff16613cc5565b60ff16600114156107fa57600480548454604051634bc8315f60e01b8152928301859052600160881b900465ffffffffffff1660248301526001600160a01b031690634bc8315f9060440160206040518083038186803b158015612bbf57600080fd5b505afa158015612bd3573d6000803e3d6000fd5b505050506040513d601f19601f820116820180604052508101906118b19190613cf5565b60035460408051630bd7cecf60e21b815290516000926001600160a01b031691632f5f3b3c916004808301926020929190829003018186803b158015612c3c57600080fd5b505afa158015612110573d6000803e3d6000fd5b6000546001600160a01b031615612ca15760405162461bcd60e51b815260206004820152601560248201527430b63932b0b23c9039b2ba103932b3a1b2b73a32b960591b60448201526064016109ed565b6040516001600160a01b03821681527f318da6c7624c71cbc0afe346c9d8827f119d0ecefb241a7b0c87217a076a8e029060200160405180910390a1600080546001600160a01b0319166001600160a01b0392909216919091179055565b6001546001600160a01b031615612d585760405162461bcd60e51b815260206004820152601960248201527f616c7265616479207365742067656e6572616c4b65657065720000000000000060448201526064016109ed565b6040516001600160a01b03821681527fe513d3e0f0d0a3877029dcc588748679a7a3450ec1ec7ed56d96bd012c3e61aa9060200160405180910390a1600180546001600160a01b0319166001600160a01b0392909216919091179055565b600060a082901c82158015612dcf575060008161ffff16115b8015612de0575060108161ffff1611155b8015612dee575060b083901c155b5050919050565b604080516101e081018252600080825260208201819052918101829052606081018290526080810182905260a0810182905260c0810182905260e08101829052610100810182905261012081018290526101408101829052610160810182905261018081018290526101a08101919091526101c08101612e73612e78565b905290565b60405180606001604052806003906020820280368337509192915050565b60008060408385031215612ea957600080fd5b50508035926020909101359150565b634e487b7160e01b600052604160045260246000fd5b6040516101e081016001600160401b0381118282101715612ef157612ef1612eb8565b60405290565b604051601f8201601f191681016001600160401b0381118282101715612f1f57612f1f612eb8565b604052919050565b60006001600160401b03821115612f4057612f40612eb8565b5060051b60200190565b6001600160a01b0381168114612f5f57600080fd5b50565b600082601f830112612f7357600080fd5b81356020612f88612f8383612f27565b612ef7565b82815260059290921b84018101918181019086841115612fa757600080fd5b8286015b84811015612fcb578035612fbe81612f4a565b8352918301918301612fab565b509695505050505050565b600082601f830112612fe757600080fd5b81356020612ff7612f8383612f27565b82815260059290921b8401810191818101908684111561301657600080fd5b8286015b84811015612fcb578035835291830191830161301a565b6000601f838184011261304357600080fd5b82356020613053612f8383612f27565b82815260059290921b8501810191818101908784111561307257600080fd5b8287015b848110156131085780356001600160401b03808211156130965760008081fd5b818a0191508a603f8301126130ab5760008081fd5b858201356040828211156130c1576130c1612eb8565b6130d2828b01601f19168901612ef7565b92508183528c818386010111156130e95760008081fd5b8181850189850137506000908201870152845250918301918301613076565b50979650505050505050565b60008060008060008060c0878903121561312d57600080fd5b8635955060208701356001600160401b038082111561314b57600080fd5b6131578a838b01612f62565b9650604089013591508082111561316d57600080fd5b6131798a838b01612fd6565b9550606089013591508082111561318f57600080fd5b5061319c89828a01613031565b9350506080870135915060a087013590509295509295509295565b60ff81168114612f5f57600080fd5b600080600080608085870312156131dc57600080fd5b843593506020850135925060408501356131f5816131b7565b9396929550929360600135925050565b64ffffffffff81168114612f5f57600080fd5b6000806000806080858703121561322e57600080fd5b8435935060208501359250604085013561324781613205565b9150606085013561325781613205565b939692955090935050565b600080600080600080600060e0888a03121561327d57600080fd5b8735965060208801356001600160401b038082111561329b57600080fd5b6132a78b838c01612f62565b975060408a01359150808211156132bd57600080fd5b6132c98b838c01612fd6565b965060608a01359150808211156132df57600080fd5b506132ec8a828b01613031565b9450506080880135925060a088013561330481613205565b915060c088013561331481613205565b8091505092959891949750929550565b60006020828403121561333657600080fd5b5035919050565b6000602080835260c0830164ffffffffff8086511683860152828601516001600160401b038082166040880152806040890151166060880152505063ffffffff6060870151166080860152608086015160a08087015282815180855260e0880191508583019450600092505b80831015613108578451841682529385019360019290920191908501906133a9565b6000602082840312156133dd57600080fd5b81356118b181612f4a565b6000806000606084860312156133fd57600080fd5b83359250602084013591506040840135613416816131b7565b809150509250925092565b6000806040838503121561343457600080fd5b823591506020830135613446816131b7565b809150509250929050565b600081518084526020808501945080840160005b8381101561348157815187529582019590820190600101613465565b509495945050505050565b6020815263ffffffff82511660208201526001600160401b036020830151166040820152600060408301516060808401526134ca6080840182613451565b949350505050565b600080600080608085870312156134e857600080fd5b84356134f381612f4a565b935060208501359250604085013561324781613205565b8060005b600381101561353457815164ffffffffff1684526020938401939091019060010161350e565b50505050565b815161ffff1681526102208101602083015161355b602084018260ff169052565b506040830151613570604084018260ff169052565b506060830151613585606084018260ff169052565b50608083015161359b608084018261ffff169052565b5060a08301516135b160a084018261ffff169052565b5060c08301516135c560c084018215159052565b5060e08301516135d960e084018215159052565b5061010083810151151590830152610120808401511515908301526101408084015160ff9081169184019190915261016080850151821690840152610180808501518216908401526101a080850151909116908301526101c0808401516136428285018261350a565b505092915050565b6000806000806080858703121561366057600080fd5b843593506020850135613672816131b7565b9250604085013561324781613205565b6000806000806080858703121561369857600080fd5b8435935060208501356136aa81612f4a565b925060408501356136ba81612f4a565b9150606085013561325781612f4a565b6000806000606084860312156136df57600080fd5b505081359360208301359350604090920135919050565b60006020828403121561370857600080fd5b81516118b181613205565b8051801515811461372357600080fd5b919050565b60006020828403121561373a57600080fd5b6118b182613713565b60208082526026908201527f41432e6f6e6c794469726563744b65657065723a206e6f74206469726563742060408201526535b2b2b832b960d11b606082015260800190565b60006020828403121561379b57600080fd5b81516118b181612f4a565b60208082526011908201527020a19737b59d103737ba1025b2b2b832b960791b604082015260600190565b6000602082840312156137e357600080fd5b5051919050565b805161ffff8116811461372357600080fd5b8051613723816131b7565b600082601f83011261381857600080fd5b604051606081018181106001600160401b038211171561383a5761383a612eb8565b60405280606084018581111561384f57600080fd5b845b8181101561387257805161386481613205565b835260209283019201613851565b509195945050505050565b6000610220828403121561389057600080fd5b613898612ece565b6138a1836137ea565b81526138af602084016137fc565b60208201526138c0604084016137fc565b60408201526138d1606084016137fc565b60608201526138e2608084016137ea565b60808201526138f360a084016137ea565b60a082015261390460c08401613713565b60c082015261391560e08401613713565b60e0820152610100613928818501613713565b9082015261012061393a848201613713565b9082015261014061394c8482016137fc565b9082015261016061395e8482016137fc565b908201526101806139708482016137fc565b908201526101a06139828482016137fc565b908201526101c061399585858301613807565b908201529392505050565b85815260208101859052835161ffff1660408201526102a08101602085015160ff8116606084015250604085015160ff8116608084015250606085015160ff811660a084015250608085015161ffff811660c08401525060a085015161ffff811660e08401525060c0850151610100613a1c8185018315159052565b60e08701519150610120613a338186018415159052565b90870151915061014090613a4a8583018415159052565b8701519150610160613a5f8582018415159052565b90870151915061018090613a778583018460ff169052565b87015191506101a0613a8d8582018460ff169052565b9087015191506101c090613aa58583018460ff169052565b87015160ff166101e08501528601519050613ac461020084018261350a565b5064ffffffffff841661026083015264ffffffffff8316610280830152610b5a565b60208082526036908201527f41432e6f776e65724f72446972656374426f6f6b65657065723a206e6569746860408201527532b91037bbb732b9103737b9103137b7b5b2b2b832b960511b606082015260800190565b634e487b7160e01b600052601160045260246000fd5b60008219821115613b6557613b65613b3c565b500190565b60005b83811015613b85578181015183820152602001613b6d565b838111156135345750506000910152565b600060a08201878352602060a08185015281885180845260c086019150828a01935060005b81811015613be05784516001600160a01b031683529383019391830191600101613bbb565b50508481036040860152613bf48189613451565b92505083820360608501528186518084528284019150828160051b85010183890160005b83811015613c5e57601f198088850301865282518051808652613c40818a88018b8501613b6a565b96880196601f01909116939093018601925090850190600101613c18565b505080955050505050508260808301529695505050505050565b634e487b7160e01b600052603260045260246000fd5b60008251613ca0818460208701613b6a565b9190910192915050565b6000600019821415613cbe57613cbe613b3c565b5060010190565b600060ff831680613ce657634e487b7160e01b600052601260045260246000fd5b8060ff84160691505092915050565b600060208284031215613d0757600080fd5b81516001600160401b03811681146118b157600080fdfea2646970667358221220a166e26329dfcaea8a8de5bcf420c4a296cdf3202179c32854301a621242d4b464736f6c63430008080033",
    "sourcePath": "/Users/kaptain/github.com/hardhat/comboox/contracts/common/components/MeetingMinutes.sol",
    "compiler": {
        "name": "solc",
        "version": "0.8.8+commit.dddeac2f"
    },
    "functionHashes": {
        "abandonRole(bytes32)": "3da9a600",
        "castVote(uint256,uint256,uint8,bytes32)": "2de32075",
        "entrustDelegate(uint256,uint256,uint256)": "fe1bdff2",
        "execAction(uint256,address[],uint256[],bytes[],uint256,bytes32)": "240a6438",
        "finalized()": "b3f05b97",
        "getBallot(uint256,uint256)": "0d358757",
        "getBookeeper()": "ed211023",
        "getCaseOfAttitude(uint256,uint8)": "8d5b6585",
        "getDelegateOf(uint256,uint256)": "9a51cdfc",
        "getGeneralCounsel()": "103f6edd",
        "getHeadOfMotion(uint256)": "64525a0d",
        "getOwner()": "893d20e8",
        "getVoterOfDelegateMap(uint256,uint256)": "61df743f",
        "getVotingRuleOfMotion(uint256)": "aaf7bfc6",
        "grantRole(bytes32,uint256)": "1b6ea9f9",
        "hasRole(bytes32,uint256)": "7e063c5a",
        "init(uint256,address,address,address)": "dc890da9",
        "initBOD()": "5ff3fd0f",
        "initBOH()": "25cbca63",
        "initROM()": "fa9e7934",
        "isExecuted(uint256)": "76a6bf52",
        "isPassed(uint256)": "49403183",
        "isProposed(uint256)": "59269f82",
        "isVoted(uint256,uint256)": "ea56efc6",
        "isVotedFor(uint256,uint256,uint8)": "82405f45",
        "lockContents()": "f045a769",
        "motionExecuted(uint256)": "f117bdb7",
        "nominateOfficer(uint256,uint8,uint40,uint40)": "ba1d3d5e",
        "proposeAction(uint256,address[],uint256[],bytes[],bytes32,uint40,uint40)": "371eda0f",
        "proposeDoc(address,uint256,uint40,uint40)": "939ed3af",
        "proposeMotion(uint256,uint256,uint40,uint40)": "2f0b357b",
        "renounceRole(bytes32)": "8bb9c5bf",
        "revokeRole(bytes32,uint256)": "19d61ad9",
        "setDirectKeeper(address)": "6be8496f",
        "setGeneralCounsel(uint256)": "4a14beb1",
        "setOwner(uint256)": "8041494e",
        "setRoleAdmin(bytes32,uint256)": "5171ebd4",
        "voteCounting(uint256)": "f8fb9e1d"
    },
    "gasEstimates": {
        "creation": {
            "codeDepositCost": "3140000",
            "executionCost": "3467",
            "totalCost": "3143467"
        },
        "external": {
            "abandonRole(bytes32)": "infinite",
            "castVote(uint256,uint256,uint8,bytes32)": "infinite",
            "entrustDelegate(uint256,uint256,uint256)": "infinite",
            "execAction(uint256,address[],uint256[],bytes[],uint256,bytes32)": "infinite",
            "finalized()": "2372",
            "getBallot(uint256,uint256)": "5422",
            "getBookeeper()": "infinite",
            "getCaseOfAttitude(uint256,uint8)": "infinite",
            "getDelegateOf(uint256,uint256)": "infinite",
            "getGeneralCounsel()": "infinite",
            "getHeadOfMotion(uint256)": "3162",
            "getOwner()": "infinite",
            "getVoterOfDelegateMap(uint256,uint256)": "infinite",
            "getVotingRuleOfMotion(uint256)": "infinite",
            "grantRole(bytes32,uint256)": "infinite",
            "hasRole(bytes32,uint256)": "infinite",
            "init(uint256,address,address,address)": "infinite",
            "initBOD()": "infinite",
            "initBOH()": "infinite",
            "initROM()": "infinite",
            "isExecuted(uint256)": "2645",
            "isPassed(uint256)": "2569",
            "isProposed(uint256)": "infinite",
            "isVoted(uint256,uint256)": "2688",
            "isVotedFor(uint256,uint256,uint8)": "2767",
            "lockContents()": "infinite",
            "motionExecuted(uint256)": "infinite",
            "nominateOfficer(uint256,uint8,uint40,uint40)": "infinite",
            "proposeAction(uint256,address[],uint256[],bytes[],bytes32,uint40,uint40)": "infinite",
            "proposeDoc(address,uint256,uint40,uint40)": "infinite",
            "proposeMotion(uint256,uint256,uint40,uint40)": "infinite",
            "renounceRole(bytes32)": "infinite",
            "revokeRole(bytes32,uint256)": "infinite",
            "setDirectKeeper(address)": "infinite",
            "setGeneralCounsel(uint256)": "infinite",
            "setOwner(uint256)": "infinite",
            "setRoleAdmin(bytes32,uint256)": "infinite",
            "voteCounting(uint256)": "infinite"
        },
        "internal": {
            "_execute(address[] memory,uint256[] memory,bytes memory[] memory)": "infinite",
            "_getDocRepo(uint256)": "infinite",
            "_getWeight(struct MotionsRepo.Motion storage pointer,uint256)": "infinite",
            "_hashAction(uint256,address[] memory,uint256[] memory,bytes memory[] memory,bytes32)": "infinite",
            "_isDocApproval(uint256)": "156"
        }
    }
}