{
    "contractName": "MeetingMinutes",
    "abi": [
        {
            "anonymous": false,
            "inputs": [
                {
                    "indexed": true,
                    "internalType": "uint256",
                    "name": "motionId",
                    "type": "uint256"
                },
                {
                    "indexed": false,
                    "internalType": "uint40",
                    "name": "caller",
                    "type": "uint40"
                },
                {
                    "indexed": false,
                    "internalType": "uint8",
                    "name": "attitude",
                    "type": "uint8"
                },
                {
                    "indexed": false,
                    "internalType": "bytes32",
                    "name": "sigHash",
                    "type": "bytes32"
                }
            ],
            "name": "CastVote",
            "type": "event"
        },
        {
            "anonymous": false,
            "inputs": [
                {
                    "indexed": true,
                    "internalType": "uint256",
                    "name": "motionId",
                    "type": "uint256"
                },
                {
                    "indexed": false,
                    "internalType": "uint40",
                    "name": "principal",
                    "type": "uint40"
                },
                {
                    "indexed": false,
                    "internalType": "uint40",
                    "name": "delegate",
                    "type": "uint40"
                },
                {
                    "indexed": false,
                    "internalType": "uint64",
                    "name": "weight",
                    "type": "uint64"
                }
            ],
            "name": "EntrustDelegate",
            "type": "event"
        },
        {
            "anonymous": false,
            "inputs": [
                {
                    "indexed": true,
                    "internalType": "uint256",
                    "name": "motionId",
                    "type": "uint256"
                },
                {
                    "indexed": false,
                    "internalType": "bool",
                    "name": "flag",
                    "type": "bool"
                }
            ],
            "name": "ExecuteAction",
            "type": "event"
        },
        {
            "anonymous": false,
            "inputs": [
                {
                    "indexed": false,
                    "internalType": "uint40",
                    "name": "owner",
                    "type": "uint40"
                },
                {
                    "indexed": false,
                    "internalType": "address",
                    "name": "directKeeper",
                    "type": "address"
                },
                {
                    "indexed": false,
                    "internalType": "address",
                    "name": "regCenter",
                    "type": "address"
                },
                {
                    "indexed": false,
                    "internalType": "address",
                    "name": "generalKeeper",
                    "type": "address"
                }
            ],
            "name": "Init",
            "type": "event"
        },
        {
            "anonymous": false,
            "inputs": [],
            "name": "LockContents",
            "type": "event"
        },
        {
            "anonymous": false,
            "inputs": [
                {
                    "indexed": true,
                    "internalType": "uint256",
                    "name": "motionId",
                    "type": "uint256"
                },
                {
                    "indexed": false,
                    "internalType": "bytes32",
                    "name": "rule",
                    "type": "bytes32"
                },
                {
                    "indexed": false,
                    "internalType": "uint40",
                    "name": "proposer",
                    "type": "uint40"
                },
                {
                    "indexed": false,
                    "internalType": "uint40",
                    "name": "executor",
                    "type": "uint40"
                }
            ],
            "name": "ProposeMotion",
            "type": "event"
        },
        {
            "anonymous": false,
            "inputs": [
                {
                    "indexed": false,
                    "internalType": "address",
                    "name": "keeper",
                    "type": "address"
                }
            ],
            "name": "SetDirectKeeper",
            "type": "event"
        },
        {
            "anonymous": false,
            "inputs": [
                {
                    "indexed": false,
                    "internalType": "uint256",
                    "name": "acct",
                    "type": "uint256"
                }
            ],
            "name": "SetGeneralCounsel",
            "type": "event"
        },
        {
            "anonymous": false,
            "inputs": [
                {
                    "indexed": false,
                    "internalType": "address",
                    "name": "gk",
                    "type": "address"
                }
            ],
            "name": "SetGeneralKeeper",
            "type": "event"
        },
        {
            "anonymous": false,
            "inputs": [
                {
                    "indexed": false,
                    "internalType": "uint256",
                    "name": "acct",
                    "type": "uint256"
                }
            ],
            "name": "SetOwner",
            "type": "event"
        },
        {
            "anonymous": false,
            "inputs": [
                {
                    "indexed": false,
                    "internalType": "address",
                    "name": "rc",
                    "type": "address"
                }
            ],
            "name": "SetRegCenter",
            "type": "event"
        },
        {
            "anonymous": false,
            "inputs": [
                {
                    "indexed": true,
                    "internalType": "uint256",
                    "name": "motionId",
                    "type": "uint256"
                },
                {
                    "indexed": false,
                    "internalType": "uint8",
                    "name": "state",
                    "type": "uint8"
                }
            ],
            "name": "VoteCounting",
            "type": "event"
        },
        {
            "inputs": [
                {
                    "internalType": "bytes32",
                    "name": "role",
                    "type": "bytes32"
                }
            ],
            "name": "abandonRole",
            "outputs": [],
            "stateMutability": "nonpayable",
            "type": "function"
        },
        {
            "inputs": [
                {
                    "internalType": "uint256",
                    "name": "motionId",
                    "type": "uint256"
                },
                {
                    "internalType": "uint40",
                    "name": "caller",
                    "type": "uint40"
                },
                {
                    "internalType": "uint8",
                    "name": "attitude",
                    "type": "uint8"
                },
                {
                    "internalType": "bytes32",
                    "name": "sigHash",
                    "type": "bytes32"
                }
            ],
            "name": "castVote",
            "outputs": [],
            "stateMutability": "nonpayable",
            "type": "function"
        },
        {
            "inputs": [
                {
                    "internalType": "uint256",
                    "name": "motionId",
                    "type": "uint256"
                },
                {
                    "internalType": "uint40",
                    "name": "principal",
                    "type": "uint40"
                },
                {
                    "internalType": "uint40",
                    "name": "delegate",
                    "type": "uint40"
                }
            ],
            "name": "entrustDelegate",
            "outputs": [],
            "stateMutability": "nonpayable",
            "type": "function"
        },
        {
            "inputs": [
                {
                    "internalType": "uint16",
                    "name": "seqOfVR",
                    "type": "uint16"
                },
                {
                    "internalType": "address[]",
                    "name": "targets",
                    "type": "address[]"
                },
                {
                    "internalType": "uint256[]",
                    "name": "values",
                    "type": "uint256[]"
                },
                {
                    "internalType": "bytes[]",
                    "name": "params",
                    "type": "bytes[]"
                },
                {
                    "internalType": "uint40",
                    "name": "caller",
                    "type": "uint40"
                },
                {
                    "internalType": "bytes32",
                    "name": "desHash",
                    "type": "bytes32"
                }
            ],
            "name": "execAction",
            "outputs": [
                {
                    "internalType": "uint256",
                    "name": "",
                    "type": "uint256"
                }
            ],
            "stateMutability": "nonpayable",
            "type": "function"
        },
        {
            "inputs": [],
            "name": "finalized",
            "outputs": [
                {
                    "internalType": "bool",
                    "name": "",
                    "type": "bool"
                }
            ],
            "stateMutability": "view",
            "type": "function"
        },
        {
            "inputs": [
                {
                    "internalType": "uint256",
                    "name": "motionId",
                    "type": "uint256"
                },
                {
                    "internalType": "uint40",
                    "name": "acct",
                    "type": "uint40"
                }
            ],
            "name": "getBallot",
            "outputs": [
                {
                    "components": [
                        {
                            "internalType": "uint40",
                            "name": "acct",
                            "type": "uint40"
                        },
                        {
                            "internalType": "uint8",
                            "name": "attitude",
                            "type": "uint8"
                        },
                        {
                            "internalType": "uint32",
                            "name": "head",
                            "type": "uint32"
                        },
                        {
                            "internalType": "uint64",
                            "name": "weight",
                            "type": "uint64"
                        },
                        {
                            "internalType": "uint48",
                            "name": "sigDate",
                            "type": "uint48"
                        },
                        {
                            "internalType": "uint64",
                            "name": "blocknumber",
                            "type": "uint64"
                        },
                        {
                            "internalType": "bytes32",
                            "name": "sigHash",
                            "type": "bytes32"
                        }
                    ],
                    "internalType": "struct BallotsBox.Ballot",
                    "name": "",
                    "type": "tuple"
                }
            ],
            "stateMutability": "view",
            "type": "function"
        },
        {
            "inputs": [],
            "name": "getBookeeper",
            "outputs": [
                {
                    "internalType": "address",
                    "name": "",
                    "type": "address"
                }
            ],
            "stateMutability": "view",
            "type": "function"
        },
        {
            "inputs": [
                {
                    "internalType": "uint256",
                    "name": "motionId",
                    "type": "uint256"
                },
                {
                    "internalType": "uint8",
                    "name": "atti",
                    "type": "uint8"
                }
            ],
            "name": "getCaseOfAttitude",
            "outputs": [
                {
                    "components": [
                        {
                            "internalType": "uint32",
                            "name": "sumOfHead",
                            "type": "uint32"
                        },
                        {
                            "internalType": "uint64",
                            "name": "sumOfWeight",
                            "type": "uint64"
                        },
                        {
                            "internalType": "uint40[]",
                            "name": "voters",
                            "type": "uint40[]"
                        }
                    ],
                    "internalType": "struct BallotsBox.Case",
                    "name": "",
                    "type": "tuple"
                }
            ],
            "stateMutability": "view",
            "type": "function"
        },
        {
            "inputs": [
                {
                    "internalType": "uint256",
                    "name": "motionId",
                    "type": "uint256"
                },
                {
                    "internalType": "uint40",
                    "name": "acct",
                    "type": "uint40"
                }
            ],
            "name": "getDelegateOf",
            "outputs": [
                {
                    "internalType": "uint40",
                    "name": "",
                    "type": "uint40"
                }
            ],
            "stateMutability": "view",
            "type": "function"
        },
        {
            "inputs": [],
            "name": "getGeneralCounsel",
            "outputs": [
                {
                    "internalType": "uint40",
                    "name": "",
                    "type": "uint40"
                }
            ],
            "stateMutability": "view",
            "type": "function"
        },
        {
            "inputs": [
                {
                    "internalType": "uint256",
                    "name": "motionId",
                    "type": "uint256"
                }
            ],
            "name": "getHeadOfMotion",
            "outputs": [
                {
                    "components": [
                        {
                            "internalType": "uint8",
                            "name": "state",
                            "type": "uint8"
                        },
                        {
                            "internalType": "uint40",
                            "name": "proposer",
                            "type": "uint40"
                        },
                        {
                            "internalType": "uint40",
                            "name": "executor",
                            "type": "uint40"
                        },
                        {
                            "internalType": "uint48",
                            "name": "proposeDate",
                            "type": "uint48"
                        },
                        {
                            "internalType": "uint48",
                            "name": "shareRegDate",
                            "type": "uint48"
                        },
                        {
                            "internalType": "uint48",
                            "name": "voteStartDate",
                            "type": "uint48"
                        }
                    ],
                    "internalType": "struct MotionsRepo.Head",
                    "name": "head",
                    "type": "tuple"
                }
            ],
            "stateMutability": "view",
            "type": "function"
        },
        {
            "inputs": [],
            "name": "getOwner",
            "outputs": [
                {
                    "internalType": "uint40",
                    "name": "",
                    "type": "uint40"
                }
            ],
            "stateMutability": "view",
            "type": "function"
        },
        {
            "inputs": [
                {
                    "internalType": "uint256",
                    "name": "motionId",
                    "type": "uint256"
                },
                {
                    "internalType": "uint40",
                    "name": "acct",
                    "type": "uint40"
                }
            ],
            "name": "getVoterOfDelegateMap",
            "outputs": [
                {
                    "components": [
                        {
                            "internalType": "uint40",
                            "name": "delegate",
                            "type": "uint40"
                        },
                        {
                            "internalType": "uint64",
                            "name": "weight",
                            "type": "uint64"
                        },
                        {
                            "internalType": "uint64",
                            "name": "repWeight",
                            "type": "uint64"
                        },
                        {
                            "internalType": "uint32",
                            "name": "repHead",
                            "type": "uint32"
                        },
                        {
                            "internalType": "uint40[]",
                            "name": "principals",
                            "type": "uint40[]"
                        }
                    ],
                    "internalType": "struct DelegateMap.Voter",
                    "name": "",
                    "type": "tuple"
                }
            ],
            "stateMutability": "view",
            "type": "function"
        },
        {
            "inputs": [
                {
                    "internalType": "uint256",
                    "name": "motionId",
                    "type": "uint256"
                }
            ],
            "name": "getVotingRuleOfMotion",
            "outputs": [
                {
                    "internalType": "bytes32",
                    "name": "",
                    "type": "bytes32"
                }
            ],
            "stateMutability": "view",
            "type": "function"
        },
        {
            "inputs": [
                {
                    "internalType": "bytes32",
                    "name": "role",
                    "type": "bytes32"
                },
                {
                    "internalType": "uint40",
                    "name": "acct",
                    "type": "uint40"
                }
            ],
            "name": "grantRole",
            "outputs": [],
            "stateMutability": "nonpayable",
            "type": "function"
        },
        {
            "inputs": [
                {
                    "internalType": "bytes32",
                    "name": "role",
                    "type": "bytes32"
                },
                {
                    "internalType": "uint40",
                    "name": "acct",
                    "type": "uint40"
                }
            ],
            "name": "hasRole",
            "outputs": [
                {
                    "internalType": "bool",
                    "name": "",
                    "type": "bool"
                }
            ],
            "stateMutability": "view",
            "type": "function"
        },
        {
            "inputs": [
                {
                    "internalType": "uint40",
                    "name": "owner",
                    "type": "uint40"
                },
                {
                    "internalType": "address",
                    "name": "directKeeper",
                    "type": "address"
                },
                {
                    "internalType": "address",
                    "name": "regCenter",
                    "type": "address"
                },
                {
                    "internalType": "address",
                    "name": "generalKeeper",
                    "type": "address"
                }
            ],
            "name": "init",
            "outputs": [],
            "stateMutability": "nonpayable",
            "type": "function"
        },
        {
            "inputs": [
                {
                    "internalType": "uint256",
                    "name": "motionId",
                    "type": "uint256"
                }
            ],
            "name": "isExecuted",
            "outputs": [
                {
                    "internalType": "bool",
                    "name": "",
                    "type": "bool"
                }
            ],
            "stateMutability": "view",
            "type": "function"
        },
        {
            "inputs": [
                {
                    "internalType": "uint256",
                    "name": "motionId",
                    "type": "uint256"
                }
            ],
            "name": "isPassed",
            "outputs": [
                {
                    "internalType": "bool",
                    "name": "",
                    "type": "bool"
                }
            ],
            "stateMutability": "view",
            "type": "function"
        },
        {
            "inputs": [
                {
                    "internalType": "uint256",
                    "name": "motionId",
                    "type": "uint256"
                }
            ],
            "name": "isProposed",
            "outputs": [
                {
                    "internalType": "bool",
                    "name": "",
                    "type": "bool"
                }
            ],
            "stateMutability": "view",
            "type": "function"
        },
        {
            "inputs": [
                {
                    "internalType": "uint256",
                    "name": "motionId",
                    "type": "uint256"
                },
                {
                    "internalType": "uint40",
                    "name": "acct",
                    "type": "uint40"
                }
            ],
            "name": "isVoted",
            "outputs": [
                {
                    "internalType": "bool",
                    "name": "",
                    "type": "bool"
                }
            ],
            "stateMutability": "view",
            "type": "function"
        },
        {
            "inputs": [
                {
                    "internalType": "uint256",
                    "name": "motionId",
                    "type": "uint256"
                },
                {
                    "internalType": "uint40",
                    "name": "acct",
                    "type": "uint40"
                },
                {
                    "internalType": "uint8",
                    "name": "atti",
                    "type": "uint8"
                }
            ],
            "name": "isVotedFor",
            "outputs": [
                {
                    "internalType": "bool",
                    "name": "",
                    "type": "bool"
                }
            ],
            "stateMutability": "view",
            "type": "function"
        },
        {
            "inputs": [],
            "name": "lockContents",
            "outputs": [],
            "stateMutability": "nonpayable",
            "type": "function"
        },
        {
            "inputs": [
                {
                    "internalType": "uint256",
                    "name": "motionId",
                    "type": "uint256"
                }
            ],
            "name": "motionExecuted",
            "outputs": [],
            "stateMutability": "nonpayable",
            "type": "function"
        },
        {
            "inputs": [
                {
                    "internalType": "uint16",
                    "name": "seqOfVR",
                    "type": "uint16"
                },
                {
                    "internalType": "uint8",
                    "name": "title",
                    "type": "uint8"
                },
                {
                    "internalType": "uint40",
                    "name": "nominator",
                    "type": "uint40"
                },
                {
                    "internalType": "uint40",
                    "name": "candidate",
                    "type": "uint40"
                }
            ],
            "name": "nominateOfficer",
            "outputs": [],
            "stateMutability": "nonpayable",
            "type": "function"
        },
        {
            "inputs": [
                {
                    "internalType": "uint16",
                    "name": "seqOfVR",
                    "type": "uint16"
                },
                {
                    "internalType": "address[]",
                    "name": "targets",
                    "type": "address[]"
                },
                {
                    "internalType": "uint256[]",
                    "name": "values",
                    "type": "uint256[]"
                },
                {
                    "internalType": "bytes[]",
                    "name": "params",
                    "type": "bytes[]"
                },
                {
                    "internalType": "bytes32",
                    "name": "desHash",
                    "type": "bytes32"
                },
                {
                    "internalType": "uint40",
                    "name": "proposer",
                    "type": "uint40"
                },
                {
                    "internalType": "uint40",
                    "name": "executor",
                    "type": "uint40"
                }
            ],
            "name": "proposeAction",
            "outputs": [],
            "stateMutability": "nonpayable",
            "type": "function"
        },
        {
            "inputs": [
                {
                    "internalType": "address",
                    "name": "doc",
                    "type": "address"
                },
                {
                    "internalType": "uint16",
                    "name": "seqOfVR",
                    "type": "uint16"
                },
                {
                    "internalType": "uint40",
                    "name": "proposer",
                    "type": "uint40"
                },
                {
                    "internalType": "uint40",
                    "name": "executor",
                    "type": "uint40"
                }
            ],
            "name": "proposeDoc",
            "outputs": [],
            "stateMutability": "nonpayable",
            "type": "function"
        },
        {
            "inputs": [
                {
                    "internalType": "uint256",
                    "name": "motionId",
                    "type": "uint256"
                },
                {
                    "internalType": "uint16",
                    "name": "seqOfVR",
                    "type": "uint16"
                },
                {
                    "internalType": "uint40",
                    "name": "proposer",
                    "type": "uint40"
                },
                {
                    "internalType": "uint40",
                    "name": "executor",
                    "type": "uint40"
                }
            ],
            "name": "proposeMotion",
            "outputs": [],
            "stateMutability": "nonpayable",
            "type": "function"
        },
        {
            "inputs": [
                {
                    "internalType": "bytes32",
                    "name": "role",
                    "type": "bytes32"
                }
            ],
            "name": "renounceRole",
            "outputs": [],
            "stateMutability": "nonpayable",
            "type": "function"
        },
        {
            "inputs": [
                {
                    "internalType": "bytes32",
                    "name": "role",
                    "type": "bytes32"
                },
                {
                    "internalType": "uint40",
                    "name": "acct",
                    "type": "uint40"
                }
            ],
            "name": "revokeRole",
            "outputs": [],
            "stateMutability": "nonpayable",
            "type": "function"
        },
        {
            "inputs": [
                {
                    "internalType": "address",
                    "name": "keeper",
                    "type": "address"
                }
            ],
            "name": "setDirectKeeper",
            "outputs": [],
            "stateMutability": "nonpayable",
            "type": "function"
        },
        {
            "inputs": [
                {
                    "internalType": "uint40",
                    "name": "acct",
                    "type": "uint40"
                }
            ],
            "name": "setGeneralCounsel",
            "outputs": [],
            "stateMutability": "nonpayable",
            "type": "function"
        },
        {
            "inputs": [
                {
                    "internalType": "uint40",
                    "name": "acct",
                    "type": "uint40"
                }
            ],
            "name": "setOwner",
            "outputs": [],
            "stateMutability": "nonpayable",
            "type": "function"
        },
        {
            "inputs": [
                {
                    "internalType": "bytes32",
                    "name": "role",
                    "type": "bytes32"
                },
                {
                    "internalType": "uint40",
                    "name": "acct",
                    "type": "uint40"
                }
            ],
            "name": "setRoleAdmin",
            "outputs": [],
            "stateMutability": "nonpayable",
            "type": "function"
        },
        {
            "inputs": [
                {
                    "internalType": "uint256",
                    "name": "motionId",
                    "type": "uint256"
                }
            ],
            "name": "voteCounting",
            "outputs": [
                {
                    "internalType": "bool",
                    "name": "flag",
                    "type": "bool"
                }
            ],
            "stateMutability": "nonpayable",
            "type": "function"
        }
    ],
    "bytecode": "608060405234801561001057600080fd5b506138cc806100206000396000f3fe608060405234801561001057600080fd5b50600436106102115760003560e01c80637ba706e811610125578063bf0d4ace116100ad578063f117bdb71161007c578063f117bdb71461070b578063f3c54fac1461071e578063f755c00314610731578063f8fb9e1d14610779578063fd8f19c21461078c57600080fd5b8063bf0d4ace146106bd578063cba36bf3146106d0578063ed211023146106e3578063f045a7691461070357600080fd5b80638bb9c5bf116100f45780638bb9c5bf146106335780638d5b658514610646578063aaf7bfc614610666578063b3f05b9714610689578063b801769d1461069d57600080fd5b80637ba706e8146105f257806381ab05cb14610605578063821ee8ea14610618578063893d20e81461062b57600080fd5b8063485ca4ce116101a857806365e0bce21161017757806365e0bce21461043f5780636be8496f146105a657806374099815146105b957806376a6bf52146105cc57806379b2ec12146105df57600080fd5b8063485ca4ce146102de57806349403183146102f157806359269f821461030457806364525a0d1461031757600080fd5b806326802f39116101e457806326802f39146102745780633178a9a9146102955780633da9a600146102a8578063402fbbf7146102bb57600080fd5b8063103f6edd1461021657806316dc517e1461023957806317c51fec1461024e578063216eeebf14610261575b600080fd5b61021e61079f565b60405164ffffffffff90911681526020015b60405180910390f35b61024c610247366004612e0a565b61082b565b005b61024c61025c366004612e0a565b6108c1565b61024c61026f366004612e66565b6108e6565b6102876102823660046130cf565b6109c9565b604051908152602001610230565b61024c6102a3366004613184565b610be0565b61024c6102b63660046131a1565b610dd9565b6102ce6102c9366004612e0a565b610ee4565b6040519015158152602001610230565b61024c6102ec3660046131ba565b610f1f565b6102ce6102ff3660046131a1565b611224565b6102ce6103123660046131a1565b611249565b6103d36103253660046131a1565b6040805160c081018252600080825260208201819052918101829052606081018290526080810182905260a081019190915250600090815260046020908152604091829020825160c081018452905460ff8116825264ffffffffff6101008204811693830193909352600160301b81049092169281019290925265ffffffffffff600160581b820481166060840152600160881b820481166080840152600160b81b9091041660a082015290565b6040516102309190600060c08201905060ff8351168252602083015164ffffffffff80821660208501528060408601511660408501525050606083015165ffffffffffff80821660608501528060808601511660808501528060a08601511660a0850152505092915050565b61052961044d366004612e0a565b6040805160e081018252600080825260208201819052918101829052606081018290526080810182905260a0810182905260c081019190915250600091825260046020818152604080852064ffffffffff9485168652909201815292819020815160e0810183528154938416815265010000000000840460ff1694810194909452600160301b830463ffffffff1691840191909152600160501b82046001600160401b039081166060850152600160901b830465ffffffffffff166080850152600160c01b90920490911660a08301526001015460c082015290565b6040516102309190600060e08201905064ffffffffff835116825260ff602084015116602083015263ffffffff604084015116604083015260608301516001600160401b03808216606085015265ffffffffffff60808601511660808501528060a08601511660a0850152505060c083015160c083015292915050565b61024c6105b43660046131e0565b6112d6565b61024c6105c7366004612e0a565b611388565b6102ce6105da3660046131a1565b6113ad565b6102ce6105ed366004612e0a565b6113b6565b61024c610600366004613184565b611457565b61024c6106133660046131fd565b611649565b61024c61062636600461323f565b6118c1565b61021e6119b1565b61024c6106413660046131a1565b6119ec565b61065961065436600461329f565b611a45565b6040516102309190613306565b6102876106743660046131a1565b60009081526004602052604090206001015490565b60028054600160f01b900460ff16146102ce565b6106b06106ab366004612e0a565b611b33565b604051610230919061334c565b61024c6106cb3660046133ab565b611c31565b61024c6106de3660046133da565b611d31565b6106eb611efa565b6040516001600160a01b039091168152602001610230565b61024c611f80565b61024c6107193660046131a1565b61219e565b61024c61072c366004613422565b612250565b6102ce61073f3660046134eb565b600092835260046020818152604080862064ffffffffff95909516865293909101905291205465010000000000900460ff90811691161490565b6102ce6107873660046131a1565b61231c565b61021e61079a366004612e0a565b6126ba565b60405163e8c0cc1d60e01b81526002600482015260009073__$364aad554dc80380f414546becdd2c1584$__9063e8c0cc1d906024015b60206040518083038186803b1580156107ee57600080fd5b505af4158015610802573d6000803e3d6000fd5b505050506040513d601f19601f820116820180604052508101906108269190613522565b905090565b73__$364aad554dc80380f414546becdd2c1584$__63427abff460028461085061275f565b6040516001600160e01b031960e086901b1681526004810193909352602483019190915264ffffffffff9081166044830152841660648201526084015b60006040518083038186803b1580156108a557600080fd5b505af41580156108b9573d6000803e3d6000fd5b505050505050565b73__$364aad554dc80380f414546becdd2c1584$__638ce1584560028461085061275f565b604051633b11adbf60e21b81526002600482015233602482015273__$364aad554dc80380f414546becdd2c1584$__9063ec46b6fc9060440160206040518083038186803b15801561093757600080fd5b505af415801561094b573d6000803e3d6000fd5b505050506040513d601f19601f8201168201806040525081019061096f919061353f565b6109945760405162461bcd60e51b815260040161098b90613561565b60405180910390fd5b60006109b461ffff60a01b60a086901b166001600160a01b0387166135bd565b90506109c281858585610f1f565b5050505050565b604051633b11adbf60e21b81526002600482015233602482015260009073__$364aad554dc80380f414546becdd2c1584$__9063ec46b6fc9060440160206040518083038186803b158015610a1d57600080fd5b505af4158015610a31573d6000803e3d6000fd5b505050506040513d601f19601f82011682018060405250810190610a55919061353f565b610a715760405162461bcd60e51b815260040161098b90613561565b6000610a8088888888876127b9565b600081815260046020526040902080549192509060ff16600214610ae65760405162461bcd60e51b815260206004820152601860248201527f4d4d2e45413a20766f74696e67204e4f54207061737365640000000000000000604482015260640161098b565b805464ffffffffff868116600160301b9092041614610b475760405162461bcd60e51b815260206004820152601a60248201527f4d4d2e45413a2063616c6c6572206e6f74206578656375746f72000000000000604482015260640161098b565b610b528888886127f6565b15610b9d576040516001815282907fc8744c074a42d37db7f38fa5954f2926e37ca8068b94c263efed1b4565066e469060200160405180910390a2805460ff19166006178155610bd4565b6040516000815282907fc8744c074a42d37db7f38fa5954f2926e37ca8068b94c263efed1b4565066e469060200160405180910390a25b50979650505050505050565b604051633b11adbf60e21b81526002600482015233602482015273__$364aad554dc80380f414546becdd2c1584$__9063ec46b6fc9060440160206040518083038186803b158015610c3157600080fd5b505af4158015610c45573d6000803e3d6000fd5b505050506040513d601f19601f82011682018060405250810190610c69919061353f565b80610d0e575073__$364aad554dc80380f414546becdd2c1584$__63fe2710866002610c9361275f565b6040516001600160e01b031960e085901b168152600481019290925264ffffffffff16602482015260440160206040518083038186803b158015610cd657600080fd5b505af4158015610cea573d6000803e3d6000fd5b505050506040513d601f19601f82011682018060405250810190610d0e919061353f565b610d2a5760405162461bcd60e51b815260040161098b906135d5565b604051632725ebef60e21b81526002600482015264ffffffffff8216602482015273__$364aad554dc80380f414546becdd2c1584$__90639c97afbc9060440160006040518083038186803b158015610d8257600080fd5b505af4158015610d96573d6000803e3d6000fd5b505060405164ffffffffff841681527ff2735f34b69be1e6342dea95f9162f84d0db925fab655ca9f1f312ac8cbfc99d925060200190505b60405180910390a150565b604051633b11adbf60e21b81526002600482015233602482015273__$364aad554dc80380f414546becdd2c1584$__9063ec46b6fc9060440160206040518083038186803b158015610e2a57600080fd5b505af4158015610e3e573d6000803e3d6000fd5b505050506040513d601f19601f82011682018060405250810190610e62919061353f565b610e7e5760405162461bcd60e51b815260040161098b90613561565b60405163cc99e11b60e01b8152600260048201526024810182905273__$364aad554dc80380f414546becdd2c1584$__9063cc99e11b9060440160006040518083038186803b158015610ed057600080fd5b505af41580156109c2573d6000803e3d6000fd5b600082815260046020818152604080842064ffffffffff861685529092019052902054600160901b900465ffffffffffff1615155b92915050565b6001546040516335d2155560e11b81523360048201526001600160a01b0390911690636ba42aaa9060240160206040518083038186803b158015610f6257600080fd5b505afa158015610f76573d6000803e3d6000fd5b505050506040513d601f19601f82011682018060405250810190610f9a919061353f565b610fb65760405162461bcd60e51b815260040161098b9061362b565b6040516392f13c3f60e01b8152600560048201526024810185905273__$8c1a4844a0a0988ea2454cf87145a95df1$__906392f13c3f9060440160206040518083038186803b15801561100857600080fd5b505af415801561101c573d6000803e3d6000fd5b505050506040513d601f19601f82011682018060405250810190611040919061353f565b156111d65760008481526004602052604081209061105c6128d4565b604051634846203760e01b815261ffff871660048201526001600160a01b03919091169063484620379060240160206040518083038186803b1580156110a157600080fd5b505afa1580156110b5573d6000803e3d6000fd5b505050506040513d601f19601f820116820180604052508101906110d99190613656565b9050857f627d56ad3c367bb4555b0df4775ad1d2ab2781e09079a524ef0389838ded9ad38286866040516111279392919092835264ffffffffff918216602084015216604082015260600190565b60405180910390a2604051630a489ec560e21b8152600481018390526024810182905264ffffffffff80861660448301528416606482015273__$c69e6785922941bfe0f11afdbfcce85492$__906329227b149060840160206040518083038186803b15801561119657600080fd5b505af41580156111aa573d6000803e3d6000fd5b505050506040513d601f19601f820116820180604052508101906111ce919061353f565b50505061121e565b60405162461bcd60e51b815260206004820152601e60248201527f4d4d2e504d3a206d6f74696f6e20616c72656164792070726f706f7365640000604482015260640161098b565b50505050565b600060025b6000928352600460205260409092205460ff908116921691909114919050565b604051633f5f77cd60e01b8152600560048201526024810182905260009073__$8c1a4844a0a0988ea2454cf87145a95df1$__90633f5f77cd9060440160206040518083038186803b15801561129e57600080fd5b505af41580156112b2573d6000803e3d6000fd5b505050506040513d601f19601f82011682018060405250810190610f19919061353f565b604051630f07232560e01b8152600260048201523360248201526001600160a01b038216604482015273__$364aad554dc80380f414546becdd2c1584$__90630f0723259060640160006040518083038186803b15801561133657600080fd5b505af415801561134a573d6000803e3d6000fd5b50506040516001600160a01b03841681527fe435cbeab64e4eae6497b9d8289704bd709d624a80704ef3ca9af777534bc6ec92506020019050610dce565b73__$364aad554dc80380f414546becdd2c1584$__63d2a15ba760028461085061275f565b60006006611229565b604051632a3be56b60e21b8152600260048201526024810183905264ffffffffff8216604482015260009073__$364aad554dc80380f414546becdd2c1584$__9063a8ef95ac9060640160206040518083038186803b15801561141857600080fd5b505af415801561142c573d6000803e3d6000fd5b505050506040513d601f19601f82011682018060405250810190611450919061353f565b9392505050565b604051633b11adbf60e21b81526002600482015233602482015273__$364aad554dc80380f414546becdd2c1584$__9063ec46b6fc9060440160206040518083038186803b1580156114a857600080fd5b505af41580156114bc573d6000803e3d6000fd5b505050506040513d601f19601f820116820180604052508101906114e0919061353f565b80611585575073__$364aad554dc80380f414546becdd2c1584$__63fe271086600261150a61275f565b6040516001600160e01b031960e085901b168152600481019290925264ffffffffff16602482015260440160206040518083038186803b15801561154d57600080fd5b505af4158015611561573d6000803e3d6000fd5b505050506040513d601f19601f82011682018060405250810190611585919061353f565b6115a15760405162461bcd60e51b815260040161098b906135d5565b60405163b6e38a2960e01b81526002600482015264ffffffffff8216602482015273__$364aad554dc80380f414546becdd2c1584$__9063b6e38a299060440160006040518083038186803b1580156115f957600080fd5b505af415801561160d573d6000803e3d6000fd5b505060405164ffffffffff841681527f8b6f40f36b4ae8cc5f55e895036457c43da4ab1f80f58c46f5ff0d72a650033b92506020019050610dce565b604051633b11adbf60e21b81526002600482015233602482015273__$364aad554dc80380f414546becdd2c1584$__9063ec46b6fc9060440160206040518083038186803b15801561169a57600080fd5b505af41580156116ae573d6000803e3d6000fd5b505050506040513d601f19601f820116820180604052508101906116d2919061353f565b6116ee5760405162461bcd60e51b815260040161098b90613561565b60008381526004602052604090208054610100900464ffffffffff166117565760405162461bcd60e51b815260206004820152601a60248201527f4d4d2e45443a206d6f74696f6e206e6f742070726f706f736564000000000000604482015260640161098b565b805442600160881b90910465ffffffffffff1611156117b75760405162461bcd60e51b815260206004820152601d60248201527f4d4d2e45443a206e6f7420726561636820736861726552656744617465000000604482015260640161098b565b60006117c3828561299d565b6040805164ffffffffff8781168252861660208201526001600160401b03831681830152905191925086917fb1a13591212fd5b19c6e7f7f751202a89ab4d611159b1eac9a0882d87a26f4639181900360600190a2604051630c59d5ef60e41b815260028301600482015264ffffffffff8086166024830152841660448201526001600160401b038216606482015273__$68438f465b222e285b1fb0cc5c3aa7ceb4$__9063c59d5ef09060840160206040518083038186803b15801561188957600080fd5b505af415801561189d573d6000803e3d6000fd5b505050506040513d601f19601f820116820180604052508101906108b9919061353f565b6118ca82612adf565b6118d381612b8e565b604051636cdd0edf60e11b81526002600482015264ffffffffff851660248201526001600160a01b038416604482015273__$364aad554dc80380f414546becdd2c1584$__9063d9ba1dbe9060640160006040518083038186803b15801561193a57600080fd5b505af415801561194e573d6000803e3d6000fd5b50506040805164ffffffffff881681526001600160a01b038781166020830152868116828401528516606082015290517f4d18c0021addc919105cb1ed2c11ad241e859cc1d9e77d4ee1d9ca2cdc1f255b9350908190036080019150a150505050565b60405163987ad15360e01b81526002600482015260009073__$364aad554dc80380f414546becdd2c1584$__9063987ad153906024016107d6565b60006119f661275f565b604051637963595360e11b8152600260048201526024810184905264ffffffffff8216604482015290915073__$364aad554dc80380f414546becdd2c1584$__9063f2c6b2a69060640161088d565b60408051606080820183526000808352602083015291810191909152600083815260046020908152604080832060ff861684526003018252918290208251606081018452815463ffffffff8116825264010000000090046001600160401b03168184015260018201805485518186028101860187528181529295939493860193830182828015611b2257602002820191906000526020600020906000905b82829054906101000a900464ffffffffff1664ffffffffff1681526020019060050190602082600401049283019260010382029150808411611ae35790505b505050505081525050905092915050565b6040805160a0810182526000808252602082018190529181018290526060808201929092526080810191909152600083815260046020908152604080832064ffffffffff86811685526002909101835292819020815160a081018352815494851681526501000000000085046001600160401b0390811682860152600160681b86041681840152600160a81b90940463ffffffff166060850152600181018054835181860281018601909452808452919360808601939290830182828015611b22576000918252602091829020805464ffffffffff168452908202830192909160059101808411611ae3579050505050505081525050905092915050565b6001546040516335d2155560e11b81523360048201526001600160a01b0390911690636ba42aaa9060240160206040518083038186803b158015611c7457600080fd5b505afa158015611c88573d6000803e3d6000fd5b505050506040513d601f19601f82011682018060405250810190611cac919061353f565b611cc85760405162461bcd60e51b815260040161098b9061362b565b6040805161ffff8616602082015260ff85169181019190915264ffffffffff80841660608301528216608082015265ffffffffffff421660a082015260009060c0016040516020818303038152906040528051906020012060001c90506109c281868585610f1f565b604051633b11adbf60e21b81526002600482015233602482015273__$364aad554dc80380f414546becdd2c1584$__9063ec46b6fc9060440160206040518083038186803b158015611d8257600080fd5b505af4158015611d96573d6000803e3d6000fd5b505050506040513d601f19601f82011682018060405250810190611dba919061353f565b611dd65760405162461bcd60e51b815260040161098b90613561565b600084815260046020526040812090611def828661299d565b6040516344608ce560e11b81526004810184905264ffffffffff8716602482015260ff861660448201526001600160401b03821660648201526084810185905290915073__$c69e6785922941bfe0f11afdbfcce85492$__906388c119ca9060a40160206040518083038186803b158015611e6957600080fd5b505af4158015611e7d573d6000803e3d6000fd5b505050506040513d601f19601f82011682018060405250810190611ea1919061353f565b156108b9576040805164ffffffffff8716815260ff8616602082015290810184905286907f7d6d616d8dd56a61aaf1656d07a79f82048ceb4787ce992bdc7dca75f55a1ccc9060600160405180910390a2505050505050565b604051633c3e56c160e11b81526002600482015260009073__$364aad554dc80380f414546becdd2c1584$__9063787cad829060240160206040518083038186803b158015611f4857600080fd5b505af4158015611f5c573d6000803e3d6000fd5b505050506040513d601f19601f82011682018060405250810190610826919061366f565b604051633b11adbf60e21b81526002600482015233602482015273__$364aad554dc80380f414546becdd2c1584$__9063ec46b6fc9060440160206040518083038186803b158015611fd157600080fd5b505af4158015611fe5573d6000803e3d6000fd5b505050506040513d601f19601f82011682018060405250810190612009919061353f565b6120255760405162461bcd60e51b815260040161098b90613561565b600254600160f01b900460ff166001146120815760405162461bcd60e51b815260206004820181905260248201527f41432e6f6e6c7950656e64696e673a20446f632069732066696e616c697a6564604482015260640161098b565b60405163cc99e11b60e01b815260026004820152684174746f726e65797360b81b602482015273__$364aad554dc80380f414546becdd2c1584$__9063cc99e11b9060440160006040518083038186803b1580156120de57600080fd5b505af41580156120f2573d6000803e3d6000fd5b5050604051632725ebef60e21b8152600260048201526000602482015273__$364aad554dc80380f414546becdd2c1584$__9250639c97afbc915060440160006040518083038186803b15801561214857600080fd5b505af415801561215c573d6000803e3d6000fd5b50506002805460ff60f01b1916600160f11b17905550506040517f35012b512309c322acf68632cd6cb702ff0e1d776fbe9394e38ffc13b434fe7590600090a1565b6001546040516335d2155560e11b81523360048201526001600160a01b0390911690636ba42aaa9060240160206040518083038186803b1580156121e157600080fd5b505afa1580156121f5573d6000803e3d6000fd5b505050506040513d601f19601f82011682018060405250810190612219919061353f565b6122355760405162461bcd60e51b815260040161098b9061362b565b6000908152600460205260409020805460ff19166006179055565b604051633b11adbf60e21b81526002600482015233602482015273__$364aad554dc80380f414546becdd2c1584$__9063ec46b6fc9060440160206040518083038186803b1580156122a157600080fd5b505af41580156122b5573d6000803e3d6000fd5b505050506040513d601f19601f820116820180604052508101906122d9919061353f565b6122f55760405162461bcd60e51b815260040161098b90613561565b600061230488888888886127b9565b905061231281898585610f1f565b5050505050505050565b604051633b11adbf60e21b81526002600482015233602482015260009073__$364aad554dc80380f414546becdd2c1584$__9063ec46b6fc9060440160206040518083038186803b15801561237057600080fd5b505af4158015612384573d6000803e3d6000fd5b505050506040513d601f19601f820116820180604052508101906123a8919061353f565b6123c45760405162461bcd60e51b815260040161098b90613561565b6000828152600460205260408120906123db612c45565b6001805460405163381baea360e21b815260048101929092529192506000916001600160a01b03169063e06eba8c9060240160206040518083038186803b15801561242557600080fd5b505afa158015612439573d6000803e3d6000fd5b505050506040513d601f19601f8201168201806040525081019061245d919061366f565b905061246885612c8a565b1561252c57600061247886612cc9565b604051634f50af9160e01b815260048101869052602481018890526001600160a01b03808316604483015280861660648301528416608482015290915073__$c69e6785922941bfe0f11afdbfcce85492$__90634f50af919060a40160206040518083038186803b1580156124ec57600080fd5b505af4158015612500573d6000803e3d6000fd5b505050506040513d601f19601f82011682018060405250810190612524919061353f565b9450506125c9565b604051632de9f5b360e01b8152600481018490526001600160a01b0380841660248301528216604482015273__$c69e6785922941bfe0f11afdbfcce85492$__90632de9f5b39060640160206040518083038186803b15801561258e57600080fd5b505af41580156125a2573d6000803e3d6000fd5b505050506040513d601f19601f820116820180604052508101906125c6919061353f565b93505b83612669576001830154604051637198a37f60e01b8152600481019190915273__$94c94c1f27eaba30857c7d0c37f90b5581$__90637198a37f9060240160206040518083038186803b15801561261f57600080fd5b505af4158015612633573d6000803e3d6000fd5b505050506040513d601f19601f82011682018060405250810190612657919061353f565b61266257600461266c565b600561266c565b60025b835460ff191660ff91909116908117845560405190815285907f09dabc8247f652d3170a3738595d35365582b55eebeee44e1059d298185264839060200160405180910390a2505050919050565b600082815260046020819052604080832090516301cd7e5560e21b815260029091019181019190915264ffffffffff8316602482015273__$68438f465b222e285b1fb0cc5c3aa7ceb4$__90630735f9549060440160206040518083038186803b15801561272757600080fd5b505af415801561273b573d6000803e3d6000fd5b505050506040513d601f19601f820116820180604052508101906114509190613522565b60008054604051634de835e760e11b81523360048201526001600160a01b0390911690639bd06bce90602401602060405180830381600087803b1580156127a557600080fd5b505af1158015610802573d6000803e3d6000fd5b600085858585856040516020016127d4959493929190613725565b60408051601f1981840301815291905280516020909101209695505050505050565b6000805b84518110156128cc57848181518110612815576128156137d3565b60200260200101516001600160a01b0316848281518110612838576128386137d3565b6020026020010151848381518110612852576128526137d3565b602002602001015160405161286791906137e9565b60006040518083038185875af1925050503d80600081146128a4576040519150601f19603f3d011682016040523d82523d6000602084013e6128a9565b606091505b505080925050816128ba5750611450565b806128c481613805565b9150506127fa565b509392505050565b60015460405163381baea360e21b8152600360048201526000916001600160a01b03169063e06eba8c9060240160206040518083038186803b15801561291957600080fd5b505afa15801561292d573d6000803e3d6000fd5b505050506040513d601f19601f82011682018060405250810190612951919061366f565b6001600160a01b0316632f5f3b3c6040518163ffffffff1660e01b815260040160206040518083038186803b15801561298957600080fd5b505afa158015611f5c573d6000803e3d6000fd5b6001820154604051624494ab60e71b8152600481019190915260009060029073__$94c94c1f27eaba30857c7d0c37f90b5581$__9063224a55809060240160206040518083038186803b1580156129f357600080fd5b505af4158015612a07573d6000803e3d6000fd5b505050506040513d601f19601f82011682018060405250810190612a2b9190613820565b612a35919061383d565b60ff1660011415610f1957612a48612c45565b8354604051634bc8315f60e01b815264ffffffffff85166004820152600160881b90910465ffffffffffff1660248201526001600160a01b039190911690634bc8315f9060440160206040518083038186803b158015612aa757600080fd5b505afa158015612abb573d6000803e3d6000fd5b505050506040513d601f19601f82011682018060405250810190611450919061386d565b6000546001600160a01b031615612b305760405162461bcd60e51b815260206004820152601560248201527430b63932b0b23c9039b2ba103932b3a1b2b73a32b960591b604482015260640161098b565b6040516001600160a01b03821681527f318da6c7624c71cbc0afe346c9d8827f119d0ecefb241a7b0c87217a076a8e029060200160405180910390a1600080546001600160a01b0319166001600160a01b0392909216919091179055565b6001546001600160a01b031615612be75760405162461bcd60e51b815260206004820152601960248201527f616c7265616479207365742067656e6572616c4b656570657200000000000000604482015260640161098b565b6040516001600160a01b03821681527fe513d3e0f0d0a3877029dcc588748679a7a3450ec1ec7ed56d96bd012c3e61aa9060200160405180910390a1600180546001600160a01b0319166001600160a01b0392909216919091179055565b60015460405163381baea360e21b8152600760048201526000916001600160a01b03169063e06eba8c9060240160206040518083038186803b15801561298957600080fd5b600060a082901c82158015612ca3575060008161ffff16115b8015612cb4575060108161ffff1611155b8015612cc2575060b083901c155b5050919050565b600060a082901c600861ffff82161480612ce757508061ffff166010145b15612d6f5760015460405163381baea360e21b8152600360048201526001600160a01b039091169063e06eba8c9060240160206040518083038186803b158015612d3057600080fd5b505afa158015612d44573d6000803e3d6000fd5b505050506040513d601f19601f82011682018060405250810190612d68919061366f565b9150612dee565b60015460405163381baea360e21b8152600060048201526001600160a01b039091169063e06eba8c9060240160206040518083038186803b158015612db357600080fd5b505afa158015612dc7573d6000803e3d6000fd5b505050506040513d601f19601f82011682018060405250810190612deb919061366f565b91505b50919050565b64ffffffffff81168114612e0757600080fd5b50565b60008060408385031215612e1d57600080fd5b823591506020830135612e2f81612df4565b809150509250929050565b6001600160a01b0381168114612e0757600080fd5b803561ffff81168114612e6157600080fd5b919050565b60008060008060808587031215612e7c57600080fd5b8435612e8781612e3a565b9350612e9560208601612e4f565b92506040850135612ea581612df4565b91506060850135612eb581612df4565b939692955090935050565b634e487b7160e01b600052604160045260246000fd5b604051601f8201601f191681016001600160401b0381118282101715612efe57612efe612ec0565b604052919050565b60006001600160401b03821115612f1f57612f1f612ec0565b5060051b60200190565b600082601f830112612f3a57600080fd5b81356020612f4f612f4a83612f06565b612ed6565b82815260059290921b84018101918181019086841115612f6e57600080fd5b8286015b84811015612f92578035612f8581612e3a565b8352918301918301612f72565b509695505050505050565b600082601f830112612fae57600080fd5b81356020612fbe612f4a83612f06565b82815260059290921b84018101918181019086841115612fdd57600080fd5b8286015b84811015612f925780358352918301918301612fe1565b6000601f838184011261300a57600080fd5b8235602061301a612f4a83612f06565b82815260059290921b8501810191818101908784111561303957600080fd5b8287015b84811015610bd45780356001600160401b038082111561305d5760008081fd5b818a0191508a603f8301126130725760008081fd5b8582013560408282111561308857613088612ec0565b613099828b01601f19168901612ed6565b92508183528c818386010111156130b05760008081fd5b818185018985013750600090820187015284525091830191830161303d565b60008060008060008060c087890312156130e857600080fd5b6130f187612e4f565b955060208701356001600160401b038082111561310d57600080fd5b6131198a838b01612f29565b9650604089013591508082111561312f57600080fd5b61313b8a838b01612f9d565b9550606089013591508082111561315157600080fd5b5061315e89828a01612ff8565b935050608087013561316f81612df4565b8092505060a087013590509295509295509295565b60006020828403121561319657600080fd5b813561145081612df4565b6000602082840312156131b357600080fd5b5035919050565b600080600080608085870312156131d057600080fd5b84359350612e9560208601612e4f565b6000602082840312156131f257600080fd5b813561145081612e3a565b60008060006060848603121561321257600080fd5b83359250602084013561322481612df4565b9150604084013561323481612df4565b809150509250925092565b6000806000806080858703121561325557600080fd5b843561326081612df4565b9350602085013561327081612e3a565b9250604085013561328081612e3a565b91506060850135612eb581612e3a565b60ff81168114612e0757600080fd5b600080604083850312156132b257600080fd5b823591506020830135612e2f81613290565b600081518084526020808501945080840160005b838110156132fb57815164ffffffffff16875295820195908201906001016132d8565b509495945050505050565b6020815263ffffffff82511660208201526001600160401b0360208301511660408201526000604083015160608084015261334460808401826132c4565b949350505050565b6020815264ffffffffff8251166020820152600060208301516001600160401b038082166040850152806040860151166060850152505063ffffffff6060840151166080830152608083015160a08084015261334460c08401826132c4565b600080600080608085870312156133c157600080fd5b6133ca85612e4f565b93506020850135612e9581613290565b600080600080608085870312156133f057600080fd5b84359350602085013561340281612df4565b9250604085013561341281613290565b9396929550929360600135925050565b600080600080600080600060e0888a03121561343d57600080fd5b61344688612e4f565b965060208801356001600160401b038082111561346257600080fd5b61346e8b838c01612f29565b975060408a013591508082111561348457600080fd5b6134908b838c01612f9d565b965060608a01359150808211156134a657600080fd5b506134b38a828b01612ff8565b9450506080880135925060a08801356134cb81612df4565b915060c08801356134db81612df4565b8091505092959891949750929550565b60008060006060848603121561350057600080fd5b83359250602084013561351281612df4565b9150604084013561323481613290565b60006020828403121561353457600080fd5b815161145081612df4565b60006020828403121561355157600080fd5b8151801515811461145057600080fd5b60208082526026908201527f41432e6f6e6c794469726563744b65657065723a206e6f74206469726563742060408201526535b2b2b832b960d11b606082015260800190565b634e487b7160e01b600052601160045260246000fd5b600082198211156135d0576135d06135a7565b500190565b60208082526036908201527f41432e6f776e65724f72446972656374426f6f6b65657065723a206e6569746860408201527532b91037bbb732b9103737b9103137b7b5b2b2b832b960511b606082015260800190565b60208082526011908201527020a19737b59d103737ba1025b2b2b832b960791b604082015260600190565b60006020828403121561366857600080fd5b5051919050565b60006020828403121561368157600080fd5b815161145081612e3a565b60005b838110156136a757818101518382015260200161368f565b8381111561121e5750506000910152565b600081518084526020808501808196508360051b8101915082860160005b85811015613718578284038952815180518086526136f98188880189850161368c565b99860199601f01601f19169490940185019350908401906001016136d6565b5091979650505050505050565b600060a0820161ffff88168352602060a08185015281885180845260c086019150828a01935060005b818110156137735784516001600160a01b03168352938301939183019160010161374e565b50508481036040860152875180825290820192508188019060005b818110156137aa5782518552938301939183019160010161378e565b5050505082810360608401526137c081866136b8565b9150508260808301529695505050505050565b634e487b7160e01b600052603260045260246000fd5b600082516137fb81846020870161368c565b9190910192915050565b6000600019821415613819576138196135a7565b5060010190565b60006020828403121561383257600080fd5b815161145081613290565b600060ff83168061385e57634e487b7160e01b600052601260045260246000fd5b8060ff84160691505092915050565b60006020828403121561387f57600080fd5b81516001600160401b038116811461145057600080fdfea2646970667358221220a889cfcdc5711f47bf97c53e54dea4e297451297616428c2ab74655c2a777cf164736f6c63430008080033",
    "sourcePath": "/Users/kaptain/github.com/hardhat/comboox/contracts/common/components/MeetingMinutes.sol",
    "compiler": {
        "name": "solc",
        "version": "0.8.8+commit.dddeac2f"
    },
    "functionHashes": {
        "abandonRole(bytes32)": "3da9a600",
        "castVote(uint256,uint40,uint8,bytes32)": "cba36bf3",
        "entrustDelegate(uint256,uint40,uint40)": "81ab05cb",
        "execAction(uint16,address[],uint256[],bytes[],uint40,bytes32)": "26802f39",
        "finalized()": "b3f05b97",
        "getBallot(uint256,uint40)": "65e0bce2",
        "getBookeeper()": "ed211023",
        "getCaseOfAttitude(uint256,uint8)": "8d5b6585",
        "getDelegateOf(uint256,uint40)": "fd8f19c2",
        "getGeneralCounsel()": "103f6edd",
        "getHeadOfMotion(uint256)": "64525a0d",
        "getOwner()": "893d20e8",
        "getVoterOfDelegateMap(uint256,uint40)": "b801769d",
        "getVotingRuleOfMotion(uint256)": "aaf7bfc6",
        "grantRole(bytes32,uint40)": "74099815",
        "hasRole(bytes32,uint40)": "79b2ec12",
        "init(uint40,address,address,address)": "821ee8ea",
        "isExecuted(uint256)": "76a6bf52",
        "isPassed(uint256)": "49403183",
        "isProposed(uint256)": "59269f82",
        "isVoted(uint256,uint40)": "402fbbf7",
        "isVotedFor(uint256,uint40,uint8)": "f755c003",
        "lockContents()": "f045a769",
        "motionExecuted(uint256)": "f117bdb7",
        "nominateOfficer(uint16,uint8,uint40,uint40)": "bf0d4ace",
        "proposeAction(uint16,address[],uint256[],bytes[],bytes32,uint40,uint40)": "f3c54fac",
        "proposeDoc(address,uint16,uint40,uint40)": "216eeebf",
        "proposeMotion(uint256,uint16,uint40,uint40)": "485ca4ce",
        "renounceRole(bytes32)": "8bb9c5bf",
        "revokeRole(bytes32,uint40)": "17c51fec",
        "setDirectKeeper(address)": "6be8496f",
        "setGeneralCounsel(uint40)": "3178a9a9",
        "setOwner(uint40)": "7ba706e8",
        "setRoleAdmin(bytes32,uint40)": "16dc517e",
        "voteCounting(uint256)": "f8fb9e1d"
    },
    "gasEstimates": {
        "creation": {
            "codeDepositCost": "2908000",
            "executionCost": "3185",
            "totalCost": "2911185"
        },
        "external": {
            "abandonRole(bytes32)": "infinite",
            "castVote(uint256,uint40,uint8,bytes32)": "infinite",
            "entrustDelegate(uint256,uint40,uint40)": "infinite",
            "execAction(uint16,address[],uint256[],bytes[],uint40,bytes32)": "infinite",
            "finalized()": "2438",
            "getBallot(uint256,uint40)": "5480",
            "getBookeeper()": "infinite",
            "getCaseOfAttitude(uint256,uint8)": "infinite",
            "getDelegateOf(uint256,uint40)": "infinite",
            "getGeneralCounsel()": "infinite",
            "getHeadOfMotion(uint256)": "3185",
            "getOwner()": "infinite",
            "getVoterOfDelegateMap(uint256,uint40)": "infinite",
            "getVotingRuleOfMotion(uint256)": "2533",
            "grantRole(bytes32,uint40)": "infinite",
            "hasRole(bytes32,uint40)": "infinite",
            "init(uint40,address,address,address)": "infinite",
            "isExecuted(uint256)": "2623",
            "isPassed(uint256)": "2569",
            "isProposed(uint256)": "infinite",
            "isVoted(uint256,uint40)": "2783",
            "isVotedFor(uint256,uint40,uint8)": "infinite",
            "lockContents()": "infinite",
            "motionExecuted(uint256)": "infinite",
            "nominateOfficer(uint16,uint8,uint40,uint40)": "infinite",
            "proposeAction(uint16,address[],uint256[],bytes[],bytes32,uint40,uint40)": "infinite",
            "proposeDoc(address,uint16,uint40,uint40)": "infinite",
            "proposeMotion(uint256,uint16,uint40,uint40)": "infinite",
            "renounceRole(bytes32)": "infinite",
            "revokeRole(bytes32,uint40)": "infinite",
            "setDirectKeeper(address)": "infinite",
            "setGeneralCounsel(uint40)": "infinite",
            "setOwner(uint40)": "infinite",
            "setRoleAdmin(bytes32,uint40)": "infinite",
            "voteCounting(uint256)": "infinite"
        },
        "internal": {
            "_execute(address[] memory,uint256[] memory,bytes memory[] memory)": "infinite",
            "_getDocRepo(uint256)": "infinite",
            "_getWeight(struct MotionsRepo.Motion storage pointer,uint40)": "infinite",
            "_hashAction(uint16,address[] memory,uint256[] memory,bytes memory[] memory,bytes32)": "infinite",
            "_isDocApproval(uint256)": "156"
        }
    }
}