{
    "contractName": "RepoOfDocs",
    "abi": [
        {
            "anonymous": false,
            "inputs": [
                {
                    "indexed": false,
                    "internalType": "uint256",
                    "name": "owner",
                    "type": "uint256"
                },
                {
                    "indexed": false,
                    "internalType": "address",
                    "name": "directKeeper",
                    "type": "address"
                },
                {
                    "indexed": false,
                    "internalType": "address",
                    "name": "regCenter",
                    "type": "address"
                },
                {
                    "indexed": false,
                    "internalType": "address",
                    "name": "generalKeeper",
                    "type": "address"
                }
            ],
            "name": "Init",
            "type": "event"
        },
        {
            "anonymous": false,
            "inputs": [],
            "name": "LockContents",
            "type": "event"
        },
        {
            "anonymous": false,
            "inputs": [
                {
                    "indexed": true,
                    "internalType": "address",
                    "name": "body",
                    "type": "address"
                }
            ],
            "name": "RemoveDoc",
            "type": "event"
        },
        {
            "anonymous": false,
            "inputs": [
                {
                    "indexed": false,
                    "internalType": "address",
                    "name": "keeper",
                    "type": "address"
                }
            ],
            "name": "SetDirectKeeper",
            "type": "event"
        },
        {
            "anonymous": false,
            "inputs": [
                {
                    "indexed": false,
                    "internalType": "uint256",
                    "name": "acct",
                    "type": "uint256"
                }
            ],
            "name": "SetGeneralCounsel",
            "type": "event"
        },
        {
            "anonymous": false,
            "inputs": [
                {
                    "indexed": false,
                    "internalType": "address",
                    "name": "gk",
                    "type": "address"
                }
            ],
            "name": "SetGeneralKeeper",
            "type": "event"
        },
        {
            "anonymous": false,
            "inputs": [
                {
                    "indexed": false,
                    "internalType": "uint256",
                    "name": "acct",
                    "type": "uint256"
                }
            ],
            "name": "SetOwner",
            "type": "event"
        },
        {
            "anonymous": false,
            "inputs": [
                {
                    "indexed": false,
                    "internalType": "address",
                    "name": "rc",
                    "type": "address"
                }
            ],
            "name": "SetRegCenter",
            "type": "event"
        },
        {
            "anonymous": false,
            "inputs": [
                {
                    "indexed": true,
                    "internalType": "address",
                    "name": "temp",
                    "type": "address"
                },
                {
                    "indexed": false,
                    "internalType": "uint256",
                    "name": "typeOfDoc",
                    "type": "uint256"
                }
            ],
            "name": "SetTemplate",
            "type": "event"
        },
        {
            "anonymous": false,
            "inputs": [
                {
                    "indexed": true,
                    "internalType": "address",
                    "name": "body",
                    "type": "address"
                },
                {
                    "indexed": false,
                    "internalType": "uint8",
                    "name": "state",
                    "type": "uint8"
                }
            ],
            "name": "UpdateStateOfDoc",
            "type": "event"
        },
        {
            "inputs": [
                {
                    "internalType": "bytes32",
                    "name": "role",
                    "type": "bytes32"
                }
            ],
            "name": "abandonRole",
            "outputs": [],
            "stateMutability": "nonpayable",
            "type": "function"
        },
        {
            "inputs": [
                {
                    "internalType": "address",
                    "name": "body",
                    "type": "address"
                },
                {
                    "components": [
                        {
                            "internalType": "uint16",
                            "name": "seq",
                            "type": "uint16"
                        },
                        {
                            "internalType": "uint8",
                            "name": "qtyOfSubRule",
                            "type": "uint8"
                        },
                        {
                            "internalType": "uint8",
                            "name": "seqOfSubRule",
                            "type": "uint8"
                        },
                        {
                            "internalType": "uint8",
                            "name": "authority",
                            "type": "uint8"
                        },
                        {
                            "internalType": "uint16",
                            "name": "headRatio",
                            "type": "uint16"
                        },
                        {
                            "internalType": "uint16",
                            "name": "amountRatio",
                            "type": "uint16"
                        },
                        {
                            "internalType": "bool",
                            "name": "onlyAttendance",
                            "type": "bool"
                        },
                        {
                            "internalType": "bool",
                            "name": "impliedConsent",
                            "type": "bool"
                        },
                        {
                            "internalType": "bool",
                            "name": "partyAsConsent",
                            "type": "bool"
                        },
                        {
                            "internalType": "bool",
                            "name": "againstShallBuy",
                            "type": "bool"
                        },
                        {
                            "internalType": "uint8",
                            "name": "shaExecDays",
                            "type": "uint8"
                        },
                        {
                            "internalType": "uint8",
                            "name": "reviewDays",
                            "type": "uint8"
                        },
                        {
                            "internalType": "uint8",
                            "name": "votingDays",
                            "type": "uint8"
                        },
                        {
                            "internalType": "uint8",
                            "name": "execDaysForPutOpt",
                            "type": "uint8"
                        },
                        {
                            "internalType": "uint40[3]",
                            "name": "vetoers",
                            "type": "uint40[3]"
                        }
                    ],
                    "internalType": "struct RulesParser.VotingRule",
                    "name": "vr",
                    "type": "tuple"
                },
                {
                    "internalType": "bytes32",
                    "name": "docUrl",
                    "type": "bytes32"
                },
                {
                    "internalType": "bytes32",
                    "name": "docHash",
                    "type": "bytes32"
                }
            ],
            "name": "circulateDoc",
            "outputs": [],
            "stateMutability": "nonpayable",
            "type": "function"
        },
        {
            "inputs": [
                {
                    "internalType": "uint8",
                    "name": "docType",
                    "type": "uint8"
                },
                {
                    "internalType": "uint256",
                    "name": "creator",
                    "type": "uint256"
                }
            ],
            "name": "createDoc",
            "outputs": [
                {
                    "internalType": "address",
                    "name": "body",
                    "type": "address"
                }
            ],
            "stateMutability": "nonpayable",
            "type": "function"
        },
        {
            "inputs": [],
            "name": "docsList",
            "outputs": [
                {
                    "internalType": "address[]",
                    "name": "",
                    "type": "address[]"
                }
            ],
            "stateMutability": "view",
            "type": "function"
        },
        {
            "inputs": [],
            "name": "finalized",
            "outputs": [
                {
                    "internalType": "bool",
                    "name": "",
                    "type": "bool"
                }
            ],
            "stateMutability": "view",
            "type": "function"
        },
        {
            "inputs": [],
            "name": "getBookeeper",
            "outputs": [
                {
                    "internalType": "address",
                    "name": "",
                    "type": "address"
                }
            ],
            "stateMutability": "view",
            "type": "function"
        },
        {
            "inputs": [],
            "name": "getGeneralCounsel",
            "outputs": [
                {
                    "internalType": "uint40",
                    "name": "",
                    "type": "uint40"
                }
            ],
            "stateMutability": "view",
            "type": "function"
        },
        {
            "inputs": [
                {
                    "internalType": "address",
                    "name": "body",
                    "type": "address"
                }
            ],
            "name": "getHeadOfDoc",
            "outputs": [
                {
                    "components": [
                        {
                            "internalType": "uint8",
                            "name": "docType",
                            "type": "uint8"
                        },
                        {
                            "internalType": "uint40",
                            "name": "creator",
                            "type": "uint40"
                        },
                        {
                            "internalType": "uint48",
                            "name": "createDate",
                            "type": "uint48"
                        },
                        {
                            "internalType": "uint48",
                            "name": "shaExecDeadline",
                            "type": "uint48"
                        },
                        {
                            "internalType": "uint48",
                            "name": "proposeDeadline",
                            "type": "uint48"
                        },
                        {
                            "internalType": "uint8",
                            "name": "state",
                            "type": "uint8"
                        }
                    ],
                    "internalType": "struct IRepoOfDocs.Head",
                    "name": "head",
                    "type": "tuple"
                }
            ],
            "stateMutability": "view",
            "type": "function"
        },
        {
            "inputs": [],
            "name": "getOwner",
            "outputs": [
                {
                    "internalType": "uint40",
                    "name": "",
                    "type": "uint40"
                }
            ],
            "stateMutability": "view",
            "type": "function"
        },
        {
            "inputs": [
                {
                    "internalType": "address",
                    "name": "body",
                    "type": "address"
                }
            ],
            "name": "getRefOfDoc",
            "outputs": [
                {
                    "internalType": "bytes32",
                    "name": "docUrl",
                    "type": "bytes32"
                },
                {
                    "internalType": "bytes32",
                    "name": "docHash",
                    "type": "bytes32"
                }
            ],
            "stateMutability": "view",
            "type": "function"
        },
        {
            "inputs": [
                {
                    "internalType": "bytes32",
                    "name": "role",
                    "type": "bytes32"
                },
                {
                    "internalType": "uint256",
                    "name": "acct",
                    "type": "uint256"
                }
            ],
            "name": "grantRole",
            "outputs": [],
            "stateMutability": "nonpayable",
            "type": "function"
        },
        {
            "inputs": [
                {
                    "internalType": "bytes32",
                    "name": "role",
                    "type": "bytes32"
                },
                {
                    "internalType": "uint256",
                    "name": "acct",
                    "type": "uint256"
                }
            ],
            "name": "hasRole",
            "outputs": [
                {
                    "internalType": "bool",
                    "name": "",
                    "type": "bool"
                }
            ],
            "stateMutability": "view",
            "type": "function"
        },
        {
            "inputs": [
                {
                    "internalType": "uint256",
                    "name": "owner",
                    "type": "uint256"
                },
                {
                    "internalType": "address",
                    "name": "directKeeper",
                    "type": "address"
                },
                {
                    "internalType": "address",
                    "name": "regCenter",
                    "type": "address"
                },
                {
                    "internalType": "address",
                    "name": "generalKeeper",
                    "type": "address"
                }
            ],
            "name": "init",
            "outputs": [],
            "stateMutability": "nonpayable",
            "type": "function"
        },
        {
            "inputs": [
                {
                    "internalType": "address",
                    "name": "body",
                    "type": "address"
                }
            ],
            "name": "isRegistered",
            "outputs": [
                {
                    "internalType": "bool",
                    "name": "",
                    "type": "bool"
                }
            ],
            "stateMutability": "view",
            "type": "function"
        },
        {
            "inputs": [],
            "name": "lockContents",
            "outputs": [],
            "stateMutability": "nonpayable",
            "type": "function"
        },
        {
            "inputs": [],
            "name": "qtyOfDocs",
            "outputs": [
                {
                    "internalType": "uint256",
                    "name": "",
                    "type": "uint256"
                }
            ],
            "stateMutability": "view",
            "type": "function"
        },
        {
            "inputs": [
                {
                    "internalType": "address",
                    "name": "body",
                    "type": "address"
                }
            ],
            "name": "removeDoc",
            "outputs": [],
            "stateMutability": "nonpayable",
            "type": "function"
        },
        {
            "inputs": [
                {
                    "internalType": "bytes32",
                    "name": "role",
                    "type": "bytes32"
                }
            ],
            "name": "renounceRole",
            "outputs": [],
            "stateMutability": "nonpayable",
            "type": "function"
        },
        {
            "inputs": [
                {
                    "internalType": "bytes32",
                    "name": "role",
                    "type": "bytes32"
                },
                {
                    "internalType": "uint256",
                    "name": "acct",
                    "type": "uint256"
                }
            ],
            "name": "revokeRole",
            "outputs": [],
            "stateMutability": "nonpayable",
            "type": "function"
        },
        {
            "inputs": [
                {
                    "internalType": "address",
                    "name": "keeper",
                    "type": "address"
                }
            ],
            "name": "setDirectKeeper",
            "outputs": [],
            "stateMutability": "nonpayable",
            "type": "function"
        },
        {
            "inputs": [
                {
                    "internalType": "uint256",
                    "name": "acct",
                    "type": "uint256"
                }
            ],
            "name": "setGeneralCounsel",
            "outputs": [],
            "stateMutability": "nonpayable",
            "type": "function"
        },
        {
            "inputs": [
                {
                    "internalType": "uint256",
                    "name": "acct",
                    "type": "uint256"
                }
            ],
            "name": "setOwner",
            "outputs": [],
            "stateMutability": "nonpayable",
            "type": "function"
        },
        {
            "inputs": [
                {
                    "internalType": "bytes32",
                    "name": "role",
                    "type": "bytes32"
                },
                {
                    "internalType": "uint256",
                    "name": "acct",
                    "type": "uint256"
                }
            ],
            "name": "setRoleAdmin",
            "outputs": [],
            "stateMutability": "nonpayable",
            "type": "function"
        },
        {
            "inputs": [
                {
                    "internalType": "address",
                    "name": "body",
                    "type": "address"
                },
                {
                    "internalType": "uint8",
                    "name": "state",
                    "type": "uint8"
                }
            ],
            "name": "setStateOfDoc",
            "outputs": [],
            "stateMutability": "nonpayable",
            "type": "function"
        },
        {
            "inputs": [
                {
                    "internalType": "address",
                    "name": "body",
                    "type": "address"
                },
                {
                    "internalType": "uint8",
                    "name": "typeOfDoc",
                    "type": "uint8"
                }
            ],
            "name": "setTemplate",
            "outputs": [],
            "stateMutability": "nonpayable",
            "type": "function"
        },
        {
            "inputs": [
                {
                    "internalType": "uint8",
                    "name": "typeOfDoc",
                    "type": "uint8"
                }
            ],
            "name": "tempReadyFor",
            "outputs": [
                {
                    "internalType": "bool",
                    "name": "",
                    "type": "bool"
                }
            ],
            "stateMutability": "view",
            "type": "function"
        },
        {
            "inputs": [
                {
                    "internalType": "uint8",
                    "name": "typeOfDoc",
                    "type": "uint8"
                }
            ],
            "name": "template",
            "outputs": [
                {
                    "internalType": "address",
                    "name": "",
                    "type": "address"
                }
            ],
            "stateMutability": "view",
            "type": "function"
        },
        {
            "inputs": [],
            "name": "tempsList",
            "outputs": [
                {
                    "internalType": "uint256[]",
                    "name": "",
                    "type": "uint256[]"
                }
            ],
            "stateMutability": "view",
            "type": "function"
        }
    ],
    "bytecode": "608060405234801561001057600080fd5b50612b17806100206000396000f3fe608060405234801561001057600080fd5b50600436106101c45760003560e01c80637e063c5a116100f9578063c3c5a54711610097578063de154c2711610071578063de154c27146103f3578063ed2110231461046f578063ee4b47c114610477578063f045a7691461048d57600080fd5b8063c3c5a547146103ba578063d42186fa146103cd578063dc890da9146103e057600080fd5b80638bb9c5bf116100d35780638bb9c5bf1461036d5780638c32f23d14610380578063aa59657614610393578063b3f05b97146103a657600080fd5b80637e063c5a1461033f5780638041494e14610352578063893d20e81461036557600080fd5b80633da9a600116101665780634be157d5116101405780634be157d5146102d85780634efd15f2146102ed5780635171ebd4146103195780636be8496f1461032c57600080fd5b80633da9a60014610287578063499de7181461029a5780634a14beb1146102c557600080fd5b80631b6ea9f9116101a25780631b6ea9f914610224578063211f581614610237578063289aeb571461024a578063309ed9c81461027257600080fd5b8063067488cf146101c9578063103f6edd146101f157806319d61ad91461020f575b600080fd5b6101dc6101d736600461239c565b610495565b60405190151581526020015b60405180910390f35b6101f961052b565b60405164ffffffffff90911681526020016101e8565b61022261021d3660046123b7565b6105b7565b005b6102226102323660046123b7565b61064b565b6102226102453660046123f1565b610670565b61025d610258366004612426565b61085d565b604080519283526020830191909152016101e8565b61027a61093b565b6040516101e89190612443565b610222610295366004612487565b6109c5565b6102ad6102a83660046124a0565b610ad7565b6040516001600160a01b0390911681526020016101e8565b6102226102d3366004612487565b610f5e565b6102e061114e565b6040516101e891906124ca565b6102ad6102fb36600461239c565b60ff166000908152600460205260409020546001600160a01b031690565b6102226103273660046123b7565b6111d8565b61022261033a366004612426565b6111fd565b6101dc61034d3660046123b7565b6112af565b610222610360366004612487565b61134a565b6101f961152f565b61022261037b366004612487565b61156a565b61022261038e366004612631565b6115c3565b6102226103a13660046123f1565b6117f5565b60028054600160f01b900460ff16146101dc565b6101dc6103c8366004612426565b61199b565b6102226103db366004612426565b6119e5565b6102226103ee366004612794565b611c00565b610406610401366004612426565b611ce3565b6040516101e89190600060c08201905060ff835116825264ffffffffff6020840151166020830152604083015165ffffffffffff8082166040850152806060860151166060850152806080860151166080850152505060ff60a08401511660a083015292915050565b6102ad611e4a565b61047f611ed0565b6040519081526020016101e8565b610222611f56565b604051633f5f77cd60e01b81526005600482015260ff8216602482015260009073__$8c1a4844a0a0988ea2454cf87145a95df1$__90633f5f77cd906044015b60206040518083038186803b1580156104ed57600080fd5b505af4158015610501573d6000803e3d6000fd5b505050506040513d601f19601f8201168201806040525081019061052591906127e7565b92915050565b60405163e8c0cc1d60e01b81526002600482015260009073__$364aad554dc80380f414546becdd2c1584$__9063e8c0cc1d906024015b60206040518083038186803b15801561057a57600080fd5b505af415801561058e573d6000803e3d6000fd5b505050506040513d601f19601f820116820180604052508101906105b29190612804565b905090565b73__$364aad554dc80380f414546becdd2c1584$__6382daafaa6002846105dc612174565b6040516001600160e01b031960e086901b1681526004810193909352602483019190915264ffffffffff166044820152606481018490526084015b60006040518083038186803b15801561062f57600080fd5b505af4158015610643573d6000803e3d6000fd5b505050505050565b73__$364aad554dc80380f414546becdd2c1584$__636320d75e6002846105dc612174565b60405163f698b0f160e01b8152600860048201526001600160a01b0383166024820152829073__$8c1a4844a0a0988ea2454cf87145a95df1$__9063f698b0f19060440160206040518083038186803b1580156106cc57600080fd5b505af41580156106e0573d6000803e3d6000fd5b505050506040513d601f19601f8201168201806040525081019061070491906127e7565b6107295760405162461bcd60e51b815260040161072090612821565b60405180910390fd5b6001546040516335d2155560e11b81523360048201526001600160a01b0390911690636ba42aaa9060240160206040518083038186803b15801561076c57600080fd5b505afa158015610780573d6000803e3d6000fd5b505050506040513d601f19601f820116820180604052508101906107a491906127e7565b6107e45760405162461bcd60e51b815260206004820152601160248201527020a19737b59d103737ba1025b2b2b832b960791b6044820152606401610720565b60405160ff831681526001600160a01b038416907f7d25780785c2b2fefad30c6603980e64e6005c311412119d7e4702f602fd730a9060200160405180910390a2506001600160a01b039091166000908152600760205260409020805460ff909216600160c01b0260ff60c01b19909216919091179055565b60405163f698b0f160e01b8152600860048201526001600160a01b03821660248201526000908190839073__$8c1a4844a0a0988ea2454cf87145a95df1$__9063f698b0f19060440160206040518083038186803b1580156108be57600080fd5b505af41580156108d2573d6000803e3d6000fd5b505050506040513d601f19601f820116820180604052508101906108f691906127e7565b6109125760405162461bcd60e51b815260040161072090612821565b5050506001600160a01b0316600090815260076020526040902060018101546002909101549091565b60405163034306e160e21b81526005600482015260609073__$8c1a4844a0a0988ea2454cf87145a95df1$__90630d0c1b849060240160006040518083038186803b15801561098957600080fd5b505af415801561099d573d6000803e3d6000fd5b505050506040513d6000823e601f3d908101601f191682016040526105b2919081019061287c565b604051633b11adbf60e21b81526002600482015233602482015273__$364aad554dc80380f414546becdd2c1584$__9063ec46b6fc9060440160206040518083038186803b158015610a1657600080fd5b505af4158015610a2a573d6000803e3d6000fd5b505050506040513d601f19601f82011682018060405250810190610a4e91906127e7565b610a6a5760405162461bcd60e51b815260040161072090612912565b60405163cc99e11b60e01b8152600260048201526024810182905273__$364aad554dc80380f414546becdd2c1584$__9063cc99e11b9060440160006040518083038186803b158015610abc57600080fd5b505af4158015610ad0573d6000803e3d6000fd5b5050505050565b604051633b11adbf60e21b81526002600482015233602482015260009073__$364aad554dc80380f414546becdd2c1584$__9063ec46b6fc9060440160206040518083038186803b158015610b2b57600080fd5b505af4158015610b3f573d6000803e3d6000fd5b505050506040513d601f19601f82011682018060405250810190610b6391906127e7565b610b7f5760405162461bcd60e51b815260040161072090612912565b604051633f5f77cd60e01b81526005600482015260ff84166024820152839073__$8c1a4844a0a0988ea2454cf87145a95df1$__90633f5f77cd9060440160206040518083038186803b158015610bd557600080fd5b505af4158015610be9573d6000803e3d6000fd5b505050506040513d601f19601f82011682018060405250810190610c0d91906127e7565b610c595760405162461bcd60e51b815260206004820152601b60248201527f524f442e6d642e54523a2074656d706c617465204e4f542073657400000000006044820152606401610720565b6000604051633f5f77cd60e01b81526005600482015260ff8216602482015273__$8c1a4844a0a0988ea2454cf87145a95df1$__90633f5f77cd9060440160206040518083038186803b158015610caf57600080fd5b505af4158015610cc3573d6000803e3d6000fd5b505050506040513d601f19601f82011682018060405250810190610ce791906127e7565b610d335760405162461bcd60e51b815260206004820152601b60248201527f524f442e6d642e54523a2074656d706c617465204e4f542073657400000000006044820152606401610720565b60ff8516600090815260046020526040812054610d58906001600160a01b03166121ce565b604051633e244cf360e01b8152600860048201526001600160a01b038216602482015290915073__$8c1a4844a0a0988ea2454cf87145a95df1$__90633e244cf39060440160206040518083038186803b158015610db557600080fd5b505af4158015610dc9573d6000803e3d6000fd5b505050506040513d601f19601f82011682018060405250810190610ded91906127e7565b15610f55579250826001600160a01b0381167f7d25780785c2b2fefad30c6603980e64e6005c311412119d7e4702f602fd730a600160405160ff909116815260200160405180910390a26040805160c08101825260ff8816815264ffffffffff8716602082015265ffffffffffff421691810191909152600060608201819052608082015260a08101600160ff9081169091526001600160a01b0386166000908152600760209081526040918290208451815492860151938601516060870151608088015160a0909801518716600160c01b0260ff60c01b1965ffffffffffff998a16600160901b021666ffffffffffffff60901b19928a16600160601b0265ffffffffffff60601b199a9094166601000000000000029990991671ffffffffffffffffffffffff0000000000001964ffffffffff9098166101000265ffffffffffff1990971694909816939093179490941794909416949094179290921716929092171790555b50505092915050565b604051633b11adbf60e21b81526002600482015233602482015273__$364aad554dc80380f414546becdd2c1584$__9063ec46b6fc9060440160206040518083038186803b158015610faf57600080fd5b505af4158015610fc3573d6000803e3d6000fd5b505050506040513d601f19601f82011682018060405250810190610fe791906127e7565b8061108c575073__$364aad554dc80380f414546becdd2c1584$__63fe2710866002611011612174565b6040516001600160e01b031960e085901b168152600481019290925264ffffffffff16602482015260440160206040518083038186803b15801561105457600080fd5b505af4158015611068573d6000803e3d6000fd5b505050506040513d601f19601f8201168201806040525081019061108c91906127e7565b6110a85760405162461bcd60e51b815260040161072090612958565b604051632725ebef60e21b8152600260048201526024810182905273__$364aad554dc80380f414546becdd2c1584$__90639c97afbc9060440160006040518083038186803b1580156110fa57600080fd5b505af415801561110e573d6000803e3d6000fd5b505050507ff2735f34b69be1e6342dea95f9162f84d0db925fab655ca9f1f312ac8cbfc99d8160405161114391815260200190565b60405180910390a150565b604051638f65372b60e01b81526008600482015260609073__$8c1a4844a0a0988ea2454cf87145a95df1$__90638f65372b9060240160006040518083038186803b15801561119c57600080fd5b505af41580156111b0573d6000803e3d6000fd5b505050506040513d6000823e601f3d908101601f191682016040526105b291908101906129ae565b73__$364aad554dc80380f414546becdd2c1584$__63ee98b3136002846105dc612174565b604051630f07232560e01b8152600260048201523360248201526001600160a01b038216604482015273__$364aad554dc80380f414546becdd2c1584$__90630f0723259060640160006040518083038186803b15801561125d57600080fd5b505af4158015611271573d6000803e3d6000fd5b50506040516001600160a01b03841681527fe435cbeab64e4eae6497b9d8289704bd709d624a80704ef3ca9af777534bc6ec92506020019050611143565b604051632a3be56b60e21b815260026004820152602481018390526044810182905260009073__$364aad554dc80380f414546becdd2c1584$__9063a8ef95ac9060640160206040518083038186803b15801561130b57600080fd5b505af415801561131f573d6000803e3d6000fd5b505050506040513d601f19601f8201168201806040525081019061134391906127e7565b9392505050565b604051633b11adbf60e21b81526002600482015233602482015273__$364aad554dc80380f414546becdd2c1584$__9063ec46b6fc9060440160206040518083038186803b15801561139b57600080fd5b505af41580156113af573d6000803e3d6000fd5b505050506040513d601f19601f820116820180604052508101906113d391906127e7565b80611478575073__$364aad554dc80380f414546becdd2c1584$__63fe27108660026113fd612174565b6040516001600160e01b031960e085901b168152600481019290925264ffffffffff16602482015260440160206040518083038186803b15801561144057600080fd5b505af4158015611454573d6000803e3d6000fd5b505050506040513d601f19601f8201168201806040525081019061147891906127e7565b6114945760405162461bcd60e51b815260040161072090612958565b60405163b6e38a2960e01b8152600260048201526024810182905273__$364aad554dc80380f414546becdd2c1584$__9063b6e38a299060440160006040518083038186803b1580156114e657600080fd5b505af41580156114fa573d6000803e3d6000fd5b505050507f8b6f40f36b4ae8cc5f55e895036457c43da4ab1f80f58c46f5ff0d72a650033b8160405161114391815260200190565b60405163987ad15360e01b81526002600482015260009073__$364aad554dc80380f414546becdd2c1584$__9063987ad15390602401610562565b6000611574612174565b60405163cc0d511b60e01b8152600260048201526024810184905264ffffffffff8216604482015290915073__$364aad554dc80380f414546becdd2c1584$__9063cc0d511b90606401610617565b604051633b11adbf60e21b81526002600482015233602482015273__$364aad554dc80380f414546becdd2c1584$__9063ec46b6fc9060440160206040518083038186803b15801561161457600080fd5b505af4158015611628573d6000803e3d6000fd5b505050506040513d601f19601f8201168201806040525081019061164c91906127e7565b6116685760405162461bcd60e51b815260040161072090612912565b6001600160a01b038416600090815260076020526040902054849060ff600160c01b909104166001146116dd5760405162461bcd60e51b815260206004820152601b60248201527f524f442e6d642e4f46503a20446f63206e6f742070656e64696e6700000000006044820152606401610720565b604051600281526001600160a01b038616907f7d25780785c2b2fefad30c6603980e64e6005c311412119d7e4702f602fd730a9060200160405180910390a26001600160a01b038516600090815260076020526040902061014085015161174a9060ff1662015180612a53565b6117549042612a81565b815465ffffffffffff91909116600160601b0265ffffffffffff60601b1990911617815561016085015161178e9060ff1662015180612a53565b81546117a99190600160601b900465ffffffffffff16612a81565b815460018301959095556002820193909355600160c11b66ffffffffffffff60901b1990941665ffffffffffff909316600160901b0260ff60c01b191692909217929092179055505050565b604051633b11adbf60e21b81526002600482015233602482015273__$364aad554dc80380f414546becdd2c1584$__9063ec46b6fc9060440160206040518083038186803b15801561184657600080fd5b505af415801561185a573d6000803e3d6000fd5b505050506040513d601f19601f8201168201806040525081019061187e91906127e7565b61189a5760405162461bcd60e51b815260040161072090612912565b60405160ff821681526001600160a01b038316907f69e0d9bafb5046296417aaeb6e5f2d326263f2c4211bc67a7d7fa7f03b0e43739060200160405180910390a260ff811660008181526004602081905260409182902080546001600160a01b0319166001600160a01b03871617905590516392f13c3f60e01b8152600591810191909152602481019190915273__$8c1a4844a0a0988ea2454cf87145a95df1$__906392f13c3f9060440160206040518083038186803b15801561195e57600080fd5b505af4158015611972573d6000803e3d6000fd5b505050506040513d601f19601f8201168201806040525081019061199691906127e7565b505050565b60405163f698b0f160e01b8152600860048201526001600160a01b038216602482015260009073__$8c1a4844a0a0988ea2454cf87145a95df1$__9063f698b0f1906044016104d5565b604051633b11adbf60e21b81526002600482015233602482015273__$364aad554dc80380f414546becdd2c1584$__9063ec46b6fc9060440160206040518083038186803b158015611a3657600080fd5b505af4158015611a4a573d6000803e3d6000fd5b505050506040513d601f19601f82011682018060405250810190611a6e91906127e7565b611a8a5760405162461bcd60e51b815260040161072090612912565b6001600160a01b038116600090815260076020526040902054819060ff600160c01b90910416600114611aff5760405162461bcd60e51b815260206004820152601b60248201527f524f442e6d642e4f46503a20446f63206e6f742070656e64696e6700000000006044820152606401610720565b604051636ea2751560e01b8152600860048201526001600160a01b038316602482015273__$8c1a4844a0a0988ea2454cf87145a95df1$__90636ea275159060440160206040518083038186803b158015611b5957600080fd5b505af4158015611b6d573d6000803e3d6000fd5b505050506040513d601f19601f82011682018060405250810190611b9191906127e7565b15611bfc576040516001600160a01b038316907f05633b380cd1dd8bb1af7cbbf29e862857a3f147da66cbb23bdad8f7e527830b90600090a26001600160a01b038216600090815260076020526040812080546001600160c81b031916815560018101829055600201555b5050565b611c0982612220565b611c12816122cf565b604051636cdd0edf60e11b815260026004820152602481018590526001600160a01b038416604482015273__$364aad554dc80380f414546becdd2c1584$__9063d9ba1dbe9060640160006040518083038186803b158015611c7357600080fd5b505af4158015611c87573d6000803e3d6000fd5b5050604080518781526001600160a01b038781166020830152868116828401528516606082015290517f3abb2418c66fe32ba9c883030a75ce583971d9af9192b9b74e44e67c5e6c8c1f9350908190036080019150a150505050565b6040805160c081018252600080825260208201819052818301819052606082018190526080820181905260a0820152905163f698b0f160e01b8152600860048201526001600160a01b0383166024820152829073__$8c1a4844a0a0988ea2454cf87145a95df1$__9063f698b0f19060440160206040518083038186803b158015611d6d57600080fd5b505af4158015611d81573d6000803e3d6000fd5b505050506040513d601f19601f82011682018060405250810190611da591906127e7565b611dc15760405162461bcd60e51b815260040161072090612821565b50506001600160a01b0316600090815260076020908152604091829020825160c081018452905460ff808216835264ffffffffff6101008304169383019390935265ffffffffffff66010000000000008204811694830194909452600160601b810484166060830152600160901b81049093166080820152600160c01b9092041660a082015290565b604051633c3e56c160e11b81526002600482015260009073__$364aad554dc80380f414546becdd2c1584$__9063787cad829060240160206040518083038186803b158015611e9857600080fd5b505af4158015611eac573d6000803e3d6000fd5b505050506040513d601f19601f820116820180604052508101906105b29190612aab565b604051635e77c9af60e01b81526008600482015260009073__$8c1a4844a0a0988ea2454cf87145a95df1$__90635e77c9af9060240160206040518083038186803b158015611f1e57600080fd5b505af4158015611f32573d6000803e3d6000fd5b505050506040513d601f19601f820116820180604052508101906105b29190612ac8565b604051633b11adbf60e21b81526002600482015233602482015273__$364aad554dc80380f414546becdd2c1584$__9063ec46b6fc9060440160206040518083038186803b158015611fa757600080fd5b505af4158015611fbb573d6000803e3d6000fd5b505050506040513d601f19601f82011682018060405250810190611fdf91906127e7565b611ffb5760405162461bcd60e51b815260040161072090612912565b600254600160f01b900460ff166001146120575760405162461bcd60e51b815260206004820181905260248201527f41432e6f6e6c7950656e64696e673a20446f632069732066696e616c697a65646044820152606401610720565b60405163cc99e11b60e01b815260026004820152684174746f726e65797360b81b602482015273__$364aad554dc80380f414546becdd2c1584$__9063cc99e11b9060440160006040518083038186803b1580156120b457600080fd5b505af41580156120c8573d6000803e3d6000fd5b5050604051632725ebef60e21b8152600260048201526000602482015273__$364aad554dc80380f414546becdd2c1584$__9250639c97afbc915060440160006040518083038186803b15801561211e57600080fd5b505af4158015612132573d6000803e3d6000fd5b50506002805460ff60f01b1916600160f11b17905550506040517f35012b512309c322acf68632cd6cb702ff0e1d776fbe9394e38ffc13b434fe7590600090a1565b60008054604051634de835e760e11b81523360048201526001600160a01b0390911690639bd06bce90602401602060405180830381600087803b1580156121ba57600080fd5b505af115801561058e573d6000803e3d6000fd5b6000808260601b9050604051733d602d80600a3d3981f3363d3d373d3d3d363d7360601b81528160148201526e5af43d82803e903d91602b57fd5bf360881b60288201526037816000f0949350505050565b6000546001600160a01b0316156122715760405162461bcd60e51b815260206004820152601560248201527430b63932b0b23c9039b2ba103932b3a1b2b73a32b960591b6044820152606401610720565b6040516001600160a01b03821681527f318da6c7624c71cbc0afe346c9d8827f119d0ecefb241a7b0c87217a076a8e029060200160405180910390a1600080546001600160a01b0319166001600160a01b0392909216919091179055565b6001546001600160a01b0316156123285760405162461bcd60e51b815260206004820152601960248201527f616c7265616479207365742067656e6572616c4b6565706572000000000000006044820152606401610720565b6040516001600160a01b03821681527fe513d3e0f0d0a3877029dcc588748679a7a3450ec1ec7ed56d96bd012c3e61aa9060200160405180910390a1600180546001600160a01b0319166001600160a01b0392909216919091179055565b803560ff8116811461239757600080fd5b919050565b6000602082840312156123ae57600080fd5b61134382612386565b600080604083850312156123ca57600080fd5b50508035926020909101359150565b6001600160a01b03811681146123ee57600080fd5b50565b6000806040838503121561240457600080fd5b823561240f816123d9565b915061241d60208401612386565b90509250929050565b60006020828403121561243857600080fd5b8135611343816123d9565b6020808252825182820181905260009190848201906040850190845b8181101561247b5783518352928401929184019160010161245f565b50909695505050505050565b60006020828403121561249957600080fd5b5035919050565b600080604083850312156124b357600080fd5b6124bc83612386565b946020939093013593505050565b6020808252825182820181905260009190848201906040850190845b8181101561247b5783516001600160a01b0316835292840192918401916001016124e6565b634e487b7160e01b600052604160045260246000fd5b6040516101e0810167ffffffffffffffff811182821017156125455761254561250b565b60405290565b604051601f8201601f1916810167ffffffffffffffff811182821017156125745761257461250b565b604052919050565b803561ffff8116811461239757600080fd5b80151581146123ee57600080fd5b80356123978161258e565b64ffffffffff811681146123ee57600080fd5b600082601f8301126125cb57600080fd5b6040516060810181811067ffffffffffffffff821117156125ee576125ee61250b565b60405280606084018581111561260357600080fd5b845b81811015612626578035612618816125a7565b835260209283019201612605565b509195945050505050565b60008060008084860361028081121561264957600080fd5b8535612654816123d9565b9450610220601f198201121561266957600080fd5b50612672612521565b61267e6020870161257c565b815261268c60408701612386565b602082015261269d60608701612386565b60408201526126ae60808701612386565b60608201526126bf60a0870161257c565b60808201526126d060c0870161257c565b60a08201526126e160e0870161259c565b60c08201526101006126f481880161259c565b60e083015261012061270781890161259c565b82840152610140915061271b82890161259c565b9083015261016061272d888201612386565b828401526101809150612741828901612386565b908301526101a0612753888201612386565b828401526101c09150612767828901612386565b90830152612779886101e089016125ba565b90820152939693955050505061024082013591610260013590565b600080600080608085870312156127aa57600080fd5b8435935060208501356127bc816123d9565b925060408501356127cc816123d9565b915060608501356127dc816123d9565b939692955090935050565b6000602082840312156127f957600080fd5b81516113438161258e565b60006020828403121561281657600080fd5b8151611343816125a7565b6020808252601d908201527f524f442e6d642e4f523a20646f63204e4f542072656769737465726564000000604082015260600190565b600067ffffffffffffffff8211156128725761287261250b565b5060051b60200190565b6000602080838503121561288f57600080fd5b825167ffffffffffffffff8111156128a657600080fd5b8301601f810185136128b757600080fd5b80516128ca6128c582612858565b61254b565b81815260059190911b820183019083810190878311156128e957600080fd5b928401925b82841015612907578351825292840192908401906128ee565b979650505050505050565b60208082526026908201527f41432e6f6e6c794469726563744b65657065723a206e6f74206469726563742060408201526535b2b2b832b960d11b606082015260800190565b60208082526036908201527f41432e6f776e65724f72446972656374426f6f6b65657065723a206e6569746860408201527532b91037bbb732b9103737b9103137b7b5b2b2b832b960511b606082015260800190565b600060208083850312156129c157600080fd5b825167ffffffffffffffff8111156129d857600080fd5b8301601f810185136129e957600080fd5b80516129f76128c582612858565b81815260059190911b82018301908381019087831115612a1657600080fd5b928401925b82841015612907578351612a2e816123d9565b82529284019290840190612a1b565b634e487b7160e01b600052601160045260246000fd5b600065ffffffffffff80831681851681830481118215151615612a7857612a78612a3d565b02949350505050565b600065ffffffffffff808316818516808303821115612aa257612aa2612a3d565b01949350505050565b600060208284031215612abd57600080fd5b8151611343816123d9565b600060208284031215612ada57600080fd5b505191905056fea2646970667358221220dc67759e8d411c0ff4b141556ea988e877c75076b881ad050eb179269b815cd964736f6c63430008080033",
    "sourcePath": "/Users/kaptain/github.com/hardhat/comboox/contracts/common/components/RepoOfDocs.sol",
    "compiler": {
        "name": "solc",
        "version": "0.8.8+commit.dddeac2f"
    },
    "functionHashes": {
        "abandonRole(bytes32)": "3da9a600",
        "circulateDoc(address,(uint16,uint8,uint8,uint8,uint16,uint16,bool,bool,bool,bool,uint8,uint8,uint8,uint8,uint40[3]),bytes32,bytes32)": "8c32f23d",
        "createDoc(uint8,uint256)": "499de718",
        "docsList()": "4be157d5",
        "finalized()": "b3f05b97",
        "getBookeeper()": "ed211023",
        "getGeneralCounsel()": "103f6edd",
        "getHeadOfDoc(address)": "de154c27",
        "getOwner()": "893d20e8",
        "getRefOfDoc(address)": "289aeb57",
        "grantRole(bytes32,uint256)": "1b6ea9f9",
        "hasRole(bytes32,uint256)": "7e063c5a",
        "init(uint256,address,address,address)": "dc890da9",
        "isRegistered(address)": "c3c5a547",
        "lockContents()": "f045a769",
        "qtyOfDocs()": "ee4b47c1",
        "removeDoc(address)": "d42186fa",
        "renounceRole(bytes32)": "8bb9c5bf",
        "revokeRole(bytes32,uint256)": "19d61ad9",
        "setDirectKeeper(address)": "6be8496f",
        "setGeneralCounsel(uint256)": "4a14beb1",
        "setOwner(uint256)": "8041494e",
        "setRoleAdmin(bytes32,uint256)": "5171ebd4",
        "setStateOfDoc(address,uint8)": "211f5816",
        "setTemplate(address,uint8)": "aa596576",
        "tempReadyFor(uint8)": "067488cf",
        "template(uint8)": "4efd15f2",
        "tempsList()": "309ed9c8"
    },
    "gasEstimates": {
        "creation": {
            "codeDepositCost": "2206200",
            "executionCost": "2353",
            "totalCost": "2208553"
        },
        "external": {
            "abandonRole(bytes32)": "infinite",
            "circulateDoc(address,(uint16,uint8,uint8,uint8,uint16,uint16,bool,bool,bool,bool,uint8,uint8,uint8,uint8,uint40[3]),bytes32,bytes32)": "infinite",
            "createDoc(uint8,uint256)": "infinite",
            "docsList()": "infinite",
            "finalized()": "2427",
            "getBookeeper()": "infinite",
            "getGeneralCounsel()": "infinite",
            "getHeadOfDoc(address)": "infinite",
            "getOwner()": "infinite",
            "getRefOfDoc(address)": "infinite",
            "grantRole(bytes32,uint256)": "infinite",
            "hasRole(bytes32,uint256)": "infinite",
            "init(uint256,address,address,address)": "infinite",
            "isRegistered(address)": "infinite",
            "lockContents()": "infinite",
            "qtyOfDocs()": "infinite",
            "removeDoc(address)": "infinite",
            "renounceRole(bytes32)": "infinite",
            "revokeRole(bytes32,uint256)": "infinite",
            "setDirectKeeper(address)": "infinite",
            "setGeneralCounsel(uint256)": "infinite",
            "setOwner(uint256)": "infinite",
            "setRoleAdmin(bytes32,uint256)": "infinite",
            "setStateOfDoc(address,uint8)": "infinite",
            "setTemplate(address,uint8)": "infinite",
            "tempReadyFor(uint8)": "infinite",
            "template(uint8)": "2619",
            "tempsList()": "infinite"
        }
    }
}