{
    "contractName": "RepoOfDocs",
    "abi": [
        {
            "anonymous": false,
            "inputs": [
                {
                    "indexed": false,
                    "internalType": "uint40",
                    "name": "owner",
                    "type": "uint40"
                },
                {
                    "indexed": false,
                    "internalType": "address",
                    "name": "directKeeper",
                    "type": "address"
                },
                {
                    "indexed": false,
                    "internalType": "address",
                    "name": "regCenter",
                    "type": "address"
                },
                {
                    "indexed": false,
                    "internalType": "address",
                    "name": "generalKeeper",
                    "type": "address"
                }
            ],
            "name": "Init",
            "type": "event"
        },
        {
            "anonymous": false,
            "inputs": [],
            "name": "LockContents",
            "type": "event"
        },
        {
            "anonymous": false,
            "inputs": [
                {
                    "indexed": true,
                    "internalType": "address",
                    "name": "body",
                    "type": "address"
                }
            ],
            "name": "RemoveDoc",
            "type": "event"
        },
        {
            "anonymous": false,
            "inputs": [
                {
                    "indexed": false,
                    "internalType": "address",
                    "name": "keeper",
                    "type": "address"
                }
            ],
            "name": "SetDirectKeeper",
            "type": "event"
        },
        {
            "anonymous": false,
            "inputs": [
                {
                    "indexed": false,
                    "internalType": "uint256",
                    "name": "acct",
                    "type": "uint256"
                }
            ],
            "name": "SetGeneralCounsel",
            "type": "event"
        },
        {
            "anonymous": false,
            "inputs": [
                {
                    "indexed": false,
                    "internalType": "address",
                    "name": "gk",
                    "type": "address"
                }
            ],
            "name": "SetGeneralKeeper",
            "type": "event"
        },
        {
            "anonymous": false,
            "inputs": [
                {
                    "indexed": false,
                    "internalType": "uint256",
                    "name": "acct",
                    "type": "uint256"
                }
            ],
            "name": "SetOwner",
            "type": "event"
        },
        {
            "anonymous": false,
            "inputs": [
                {
                    "indexed": false,
                    "internalType": "address",
                    "name": "rc",
                    "type": "address"
                }
            ],
            "name": "SetRegCenter",
            "type": "event"
        },
        {
            "anonymous": false,
            "inputs": [
                {
                    "indexed": true,
                    "internalType": "address",
                    "name": "temp",
                    "type": "address"
                },
                {
                    "indexed": false,
                    "internalType": "uint256",
                    "name": "typeOfDoc",
                    "type": "uint256"
                }
            ],
            "name": "SetTemplate",
            "type": "event"
        },
        {
            "anonymous": false,
            "inputs": [
                {
                    "indexed": true,
                    "internalType": "address",
                    "name": "body",
                    "type": "address"
                },
                {
                    "indexed": false,
                    "internalType": "uint8",
                    "name": "state",
                    "type": "uint8"
                }
            ],
            "name": "UpdateStateOfDoc",
            "type": "event"
        },
        {
            "inputs": [
                {
                    "internalType": "bytes32",
                    "name": "role",
                    "type": "bytes32"
                }
            ],
            "name": "abandonRole",
            "outputs": [],
            "stateMutability": "nonpayable",
            "type": "function"
        },
        {
            "inputs": [
                {
                    "internalType": "address",
                    "name": "body",
                    "type": "address"
                },
                {
                    "internalType": "uint40",
                    "name": "caller",
                    "type": "uint40"
                },
                {
                    "internalType": "bytes32",
                    "name": "sigHash",
                    "type": "bytes32"
                }
            ],
            "name": "acceptDoc",
            "outputs": [],
            "stateMutability": "nonpayable",
            "type": "function"
        },
        {
            "inputs": [
                {
                    "internalType": "uint40",
                    "name": "acct",
                    "type": "uint40"
                },
                {
                    "internalType": "uint16",
                    "name": "seq",
                    "type": "uint16"
                }
            ],
            "name": "addBlank",
            "outputs": [],
            "stateMutability": "nonpayable",
            "type": "function"
        },
        {
            "inputs": [
                {
                    "internalType": "address",
                    "name": "body",
                    "type": "address"
                },
                {
                    "internalType": "bytes32",
                    "name": "rule",
                    "type": "bytes32"
                },
                {
                    "internalType": "bytes32",
                    "name": "docUrl",
                    "type": "bytes32"
                },
                {
                    "internalType": "bytes32",
                    "name": "docHash",
                    "type": "bytes32"
                }
            ],
            "name": "circulateDoc",
            "outputs": [],
            "stateMutability": "nonpayable",
            "type": "function"
        },
        {
            "inputs": [
                {
                    "internalType": "uint8",
                    "name": "docType",
                    "type": "uint8"
                },
                {
                    "internalType": "uint40",
                    "name": "creator",
                    "type": "uint40"
                }
            ],
            "name": "createDoc",
            "outputs": [
                {
                    "internalType": "address",
                    "name": "body",
                    "type": "address"
                }
            ],
            "stateMutability": "nonpayable",
            "type": "function"
        },
        {
            "inputs": [],
            "name": "docsList",
            "outputs": [
                {
                    "internalType": "address[]",
                    "name": "",
                    "type": "address[]"
                }
            ],
            "stateMutability": "view",
            "type": "function"
        },
        {
            "inputs": [],
            "name": "finalized",
            "outputs": [
                {
                    "internalType": "bool",
                    "name": "",
                    "type": "bool"
                }
            ],
            "stateMutability": "view",
            "type": "function"
        },
        {
            "inputs": [],
            "name": "getBookeeper",
            "outputs": [
                {
                    "internalType": "address",
                    "name": "",
                    "type": "address"
                }
            ],
            "stateMutability": "view",
            "type": "function"
        },
        {
            "inputs": [],
            "name": "getGeneralCounsel",
            "outputs": [
                {
                    "internalType": "uint40",
                    "name": "",
                    "type": "uint40"
                }
            ],
            "stateMutability": "view",
            "type": "function"
        },
        {
            "inputs": [
                {
                    "internalType": "address",
                    "name": "body",
                    "type": "address"
                }
            ],
            "name": "getHeadOfDoc",
            "outputs": [
                {
                    "components": [
                        {
                            "internalType": "uint8",
                            "name": "docType",
                            "type": "uint8"
                        },
                        {
                            "internalType": "uint40",
                            "name": "creator",
                            "type": "uint40"
                        },
                        {
                            "internalType": "uint48",
                            "name": "createDate",
                            "type": "uint48"
                        },
                        {
                            "internalType": "uint48",
                            "name": "shaExecDeadline",
                            "type": "uint48"
                        },
                        {
                            "internalType": "uint48",
                            "name": "proposeDeadline",
                            "type": "uint48"
                        },
                        {
                            "internalType": "uint8",
                            "name": "state",
                            "type": "uint8"
                        }
                    ],
                    "internalType": "struct IRepoOfDocs.Head",
                    "name": "head",
                    "type": "tuple"
                }
            ],
            "stateMutability": "view",
            "type": "function"
        },
        {
            "inputs": [],
            "name": "getOwner",
            "outputs": [
                {
                    "internalType": "uint40",
                    "name": "",
                    "type": "uint40"
                }
            ],
            "stateMutability": "view",
            "type": "function"
        },
        {
            "inputs": [
                {
                    "internalType": "address",
                    "name": "body",
                    "type": "address"
                }
            ],
            "name": "getRefOfDoc",
            "outputs": [
                {
                    "internalType": "bytes32",
                    "name": "docUrl",
                    "type": "bytes32"
                },
                {
                    "internalType": "bytes32",
                    "name": "docHash",
                    "type": "bytes32"
                }
            ],
            "stateMutability": "view",
            "type": "function"
        },
        {
            "inputs": [
                {
                    "internalType": "bytes32",
                    "name": "role",
                    "type": "bytes32"
                },
                {
                    "internalType": "uint40",
                    "name": "acct",
                    "type": "uint40"
                }
            ],
            "name": "grantRole",
            "outputs": [],
            "stateMutability": "nonpayable",
            "type": "function"
        },
        {
            "inputs": [
                {
                    "internalType": "bytes32",
                    "name": "role",
                    "type": "bytes32"
                },
                {
                    "internalType": "uint40",
                    "name": "acct",
                    "type": "uint40"
                }
            ],
            "name": "hasRole",
            "outputs": [
                {
                    "internalType": "bool",
                    "name": "",
                    "type": "bool"
                }
            ],
            "stateMutability": "view",
            "type": "function"
        },
        {
            "inputs": [
                {
                    "internalType": "uint40",
                    "name": "owner",
                    "type": "uint40"
                },
                {
                    "internalType": "address",
                    "name": "directKeeper",
                    "type": "address"
                },
                {
                    "internalType": "address",
                    "name": "regCenter",
                    "type": "address"
                },
                {
                    "internalType": "address",
                    "name": "generalKeeper",
                    "type": "address"
                }
            ],
            "name": "init",
            "outputs": [],
            "stateMutability": "nonpayable",
            "type": "function"
        },
        {
            "inputs": [
                {
                    "internalType": "address",
                    "name": "body",
                    "type": "address"
                },
                {
                    "internalType": "uint40",
                    "name": "acct",
                    "type": "uint40"
                }
            ],
            "name": "isInitSigner",
            "outputs": [
                {
                    "internalType": "bool",
                    "name": "",
                    "type": "bool"
                }
            ],
            "stateMutability": "view",
            "type": "function"
        },
        {
            "inputs": [
                {
                    "internalType": "address",
                    "name": "body",
                    "type": "address"
                },
                {
                    "internalType": "uint40",
                    "name": "acct",
                    "type": "uint40"
                }
            ],
            "name": "isParty",
            "outputs": [
                {
                    "internalType": "bool",
                    "name": "",
                    "type": "bool"
                }
            ],
            "stateMutability": "view",
            "type": "function"
        },
        {
            "inputs": [
                {
                    "internalType": "address",
                    "name": "body",
                    "type": "address"
                }
            ],
            "name": "isRegistered",
            "outputs": [
                {
                    "internalType": "bool",
                    "name": "",
                    "type": "bool"
                }
            ],
            "stateMutability": "view",
            "type": "function"
        },
        {
            "inputs": [],
            "name": "lockContents",
            "outputs": [],
            "stateMutability": "nonpayable",
            "type": "function"
        },
        {
            "inputs": [
                {
                    "internalType": "address",
                    "name": "body",
                    "type": "address"
                }
            ],
            "name": "parasOfPage",
            "outputs": [
                {
                    "components": [
                        {
                            "internalType": "uint16",
                            "name": "seq",
                            "type": "uint16"
                        },
                        {
                            "internalType": "uint40",
                            "name": "signer",
                            "type": "uint40"
                        },
                        {
                            "internalType": "uint48",
                            "name": "sigDate",
                            "type": "uint48"
                        },
                        {
                            "internalType": "uint64",
                            "name": "blocknumber",
                            "type": "uint64"
                        },
                        {
                            "internalType": "bytes32",
                            "name": "sigHash",
                            "type": "bytes32"
                        }
                    ],
                    "internalType": "struct SigsRepo.Signature",
                    "name": "",
                    "type": "tuple"
                }
            ],
            "stateMutability": "view",
            "type": "function"
        },
        {
            "inputs": [
                {
                    "internalType": "address",
                    "name": "body",
                    "type": "address"
                }
            ],
            "name": "partiesOfDoc",
            "outputs": [
                {
                    "internalType": "uint256[]",
                    "name": "",
                    "type": "uint256[]"
                }
            ],
            "stateMutability": "view",
            "type": "function"
        },
        {
            "inputs": [
                {
                    "internalType": "address",
                    "name": "body",
                    "type": "address"
                }
            ],
            "name": "pushToNextState",
            "outputs": [],
            "stateMutability": "nonpayable",
            "type": "function"
        },
        {
            "inputs": [],
            "name": "qtyOfDocs",
            "outputs": [
                {
                    "internalType": "uint256",
                    "name": "",
                    "type": "uint256"
                }
            ],
            "stateMutability": "view",
            "type": "function"
        },
        {
            "inputs": [
                {
                    "internalType": "address",
                    "name": "body",
                    "type": "address"
                }
            ],
            "name": "qtyOfParties",
            "outputs": [
                {
                    "internalType": "uint256",
                    "name": "",
                    "type": "uint256"
                }
            ],
            "stateMutability": "view",
            "type": "function"
        },
        {
            "inputs": [
                {
                    "internalType": "uint40",
                    "name": "acct",
                    "type": "uint40"
                },
                {
                    "internalType": "uint16",
                    "name": "seq",
                    "type": "uint16"
                }
            ],
            "name": "removeBlank",
            "outputs": [],
            "stateMutability": "nonpayable",
            "type": "function"
        },
        {
            "inputs": [
                {
                    "internalType": "address",
                    "name": "body",
                    "type": "address"
                }
            ],
            "name": "removeDoc",
            "outputs": [],
            "stateMutability": "nonpayable",
            "type": "function"
        },
        {
            "inputs": [
                {
                    "internalType": "bytes32",
                    "name": "role",
                    "type": "bytes32"
                }
            ],
            "name": "renounceRole",
            "outputs": [],
            "stateMutability": "nonpayable",
            "type": "function"
        },
        {
            "inputs": [
                {
                    "internalType": "bytes32",
                    "name": "role",
                    "type": "bytes32"
                },
                {
                    "internalType": "uint40",
                    "name": "acct",
                    "type": "uint40"
                }
            ],
            "name": "revokeRole",
            "outputs": [],
            "stateMutability": "nonpayable",
            "type": "function"
        },
        {
            "inputs": [
                {
                    "internalType": "uint48",
                    "name": "deadline",
                    "type": "uint48"
                }
            ],
            "name": "setClosingDeadline",
            "outputs": [],
            "stateMutability": "nonpayable",
            "type": "function"
        },
        {
            "inputs": [
                {
                    "internalType": "address",
                    "name": "keeper",
                    "type": "address"
                }
            ],
            "name": "setDirectKeeper",
            "outputs": [],
            "stateMutability": "nonpayable",
            "type": "function"
        },
        {
            "inputs": [
                {
                    "internalType": "uint40",
                    "name": "acct",
                    "type": "uint40"
                }
            ],
            "name": "setGeneralCounsel",
            "outputs": [],
            "stateMutability": "nonpayable",
            "type": "function"
        },
        {
            "inputs": [
                {
                    "internalType": "uint40",
                    "name": "acct",
                    "type": "uint40"
                }
            ],
            "name": "setOwner",
            "outputs": [],
            "stateMutability": "nonpayable",
            "type": "function"
        },
        {
            "inputs": [
                {
                    "internalType": "bytes32",
                    "name": "role",
                    "type": "bytes32"
                },
                {
                    "internalType": "uint40",
                    "name": "acct",
                    "type": "uint40"
                }
            ],
            "name": "setRoleAdmin",
            "outputs": [],
            "stateMutability": "nonpayable",
            "type": "function"
        },
        {
            "inputs": [
                {
                    "internalType": "uint48",
                    "name": "deadline",
                    "type": "uint48"
                }
            ],
            "name": "setSigDeadline",
            "outputs": [],
            "stateMutability": "nonpayable",
            "type": "function"
        },
        {
            "inputs": [
                {
                    "internalType": "address",
                    "name": "body",
                    "type": "address"
                },
                {
                    "internalType": "uint8",
                    "name": "typeOfDoc",
                    "type": "uint8"
                }
            ],
            "name": "setTemplate",
            "outputs": [],
            "stateMutability": "nonpayable",
            "type": "function"
        },
        {
            "inputs": [
                {
                    "internalType": "address",
                    "name": "body",
                    "type": "address"
                },
                {
                    "internalType": "uint16",
                    "name": "seq",
                    "type": "uint16"
                },
                {
                    "internalType": "uint40",
                    "name": "acct",
                    "type": "uint40"
                }
            ],
            "name": "sigOfDeal",
            "outputs": [
                {
                    "components": [
                        {
                            "internalType": "uint16",
                            "name": "seq",
                            "type": "uint16"
                        },
                        {
                            "internalType": "uint40",
                            "name": "signer",
                            "type": "uint40"
                        },
                        {
                            "internalType": "uint48",
                            "name": "sigDate",
                            "type": "uint48"
                        },
                        {
                            "internalType": "uint64",
                            "name": "blocknumber",
                            "type": "uint64"
                        },
                        {
                            "internalType": "bytes32",
                            "name": "sigHash",
                            "type": "bytes32"
                        }
                    ],
                    "internalType": "struct SigsRepo.Signature",
                    "name": "",
                    "type": "tuple"
                }
            ],
            "stateMutability": "view",
            "type": "function"
        },
        {
            "inputs": [
                {
                    "internalType": "address",
                    "name": "body",
                    "type": "address"
                },
                {
                    "internalType": "uint40",
                    "name": "acct",
                    "type": "uint40"
                }
            ],
            "name": "sigOfDoc",
            "outputs": [
                {
                    "components": [
                        {
                            "internalType": "uint16",
                            "name": "seq",
                            "type": "uint16"
                        },
                        {
                            "internalType": "uint40",
                            "name": "signer",
                            "type": "uint40"
                        },
                        {
                            "internalType": "uint48",
                            "name": "sigDate",
                            "type": "uint48"
                        },
                        {
                            "internalType": "uint64",
                            "name": "blocknumber",
                            "type": "uint64"
                        },
                        {
                            "internalType": "bytes32",
                            "name": "sigHash",
                            "type": "bytes32"
                        }
                    ],
                    "internalType": "struct SigsRepo.Signature",
                    "name": "",
                    "type": "tuple"
                }
            ],
            "stateMutability": "view",
            "type": "function"
        },
        {
            "inputs": [
                {
                    "internalType": "address",
                    "name": "body",
                    "type": "address"
                },
                {
                    "internalType": "uint16",
                    "name": "seq",
                    "type": "uint16"
                },
                {
                    "internalType": "uint40",
                    "name": "caller",
                    "type": "uint40"
                },
                {
                    "internalType": "bytes32",
                    "name": "sigHash",
                    "type": "bytes32"
                }
            ],
            "name": "signDeal",
            "outputs": [],
            "stateMutability": "nonpayable",
            "type": "function"
        },
        {
            "inputs": [
                {
                    "internalType": "address",
                    "name": "body",
                    "type": "address"
                },
                {
                    "internalType": "uint40",
                    "name": "caller",
                    "type": "uint40"
                },
                {
                    "internalType": "bytes32",
                    "name": "sigHash",
                    "type": "bytes32"
                }
            ],
            "name": "signDoc",
            "outputs": [],
            "stateMutability": "nonpayable",
            "type": "function"
        },
        {
            "inputs": [
                {
                    "internalType": "uint8",
                    "name": "typeOfDoc",
                    "type": "uint8"
                }
            ],
            "name": "template",
            "outputs": [
                {
                    "internalType": "address",
                    "name": "",
                    "type": "address"
                }
            ],
            "stateMutability": "view",
            "type": "function"
        }
    ],
    "bytecode": "608060405234801561001057600080fd5b50613e48806100206000396000f3fe608060405234801561001057600080fd5b50600436106102485760003560e01c8063891613e71161013b578063d6336277116100b8578063ea8457f81161007c578063ea8457f814610629578063ed2110231461063c578063ee4b47c114610644578063f045a7691461064c578063f43323ee1461065457600080fd5b8063d633627714610554578063d687630514610574578063dd4578aa14610587578063de154c271461059a578063e02496671461061657600080fd5b8063aa596576116100ff578063aa596576146104f4578063ad74d2a514610507578063b3f05b971461051a578063c3c5a5471461052e578063d42186fa1461054157600080fd5b8063891613e714610492578063893d20e8146104a55780638bb9c5bf146104ad578063a1cb4381146104c0578063a95027b3146104e157600080fd5b80634efd15f2116101c9578063746e421f1161018d578063746e421f14610433578063765f54a71461044657806379b2ec12146104595780637ba706e81461046c578063821ee8ea1461047f57600080fd5b80634efd15f2146103a35780635c049642146103e75780636be8496f146103fa5780636f2947951461040d578063740998151461042057600080fd5b80633178a9a9116102105780633178a9a9146102e35780633ced51a5146102f65780633da9a600146103685780634794be071461037b5780634be157d51461038e57600080fd5b8063103f6edd1461024d57806316dc517e1461027057806317c51fec14610285578063289aeb571461029857806329ce5888146102c0575b600080fd5b610255610667565b60405164ffffffffff90911681526020015b60405180910390f35b61028361027e366004613600565b6106f3565b005b610283610293366004613600565b610789565b6102ab6102a6366004613645565b6107ae565b60408051928352602083019190915201610267565b6102d36102ce366004613662565b61088d565b6040519015158152602001610267565b6102836102f1366004613690565b61097b565b6103096103043660046136bd565b610b75565b6040516102679190600060a08201905061ffff835116825264ffffffffff602084015116602083015265ffffffffffff604084015116604083015267ffffffffffffffff60608401511660608301526080830151608083015292915050565b610283610376366004613708565b610d03565b610283610389366004613735565b610e16565b610396610f17565b6040516102679190613752565b6103cf6103b13660046137b5565b60ff166000908152600460205260409020546001600160a01b031690565b6040516001600160a01b039091168152602001610267565b6102d36103f5366004613662565b610fa1565b610283610408366004613645565b611102565b61028361041b3660046137d0565b6111b4565b61028361042e366004613600565b6112e2565b610309610441366004613662565b611307565b610283610454366004613811565b611489565b6102d3610467366004613600565b61163f565b61028361047a366004613690565b6116e0565b61028361048d366004613862565b6118d3565b6103cf6104a03660046138be565b6119c3565b610255611cda565b6102836104bb366004613708565b611d15565b6104d36104ce366004613645565b611d6e565b604051908152602001610267565b6102836104ef366004613645565b611ebf565b6102836105023660046138da565b6120d6565b610309610515366004613645565b6121e4565b60028054600160f01b900460ff16146102d3565b6102d361053c366004613645565b612352565b61028361054f366004613645565b6123e5565b610567610562366004613645565b61261b565b604051610267919061390f565b610283610582366004613947565b612770565b610283610595366004613947565b6128ae565b6105ad6105a8366004613645565b6129b8565b6040516102679190600060c08201905060ff835116825264ffffffffff6020840151166020830152604083015165ffffffffffff8082166040850152806060860151166060850152806080860151166080850152505060ff60a08401511660a083015292915050565b610283610624366004613975565b612b17565b610283610637366004613735565b612e4b565b6103cf612f4c565b6104d3612fd2565b610283613058565b6102836106623660046137d0565b613277565b60405163e8c0cc1d60e01b81526002600482015260009073__$364aad554dc80380f414546becdd2c1584$__9063e8c0cc1d906024015b60206040518083038186803b1580156106b657600080fd5b505af41580156106ca573d6000803e3d6000fd5b505050506040513d601f19601f820116820180604052508101906106ee91906139b0565b905090565b73__$364aad554dc80380f414546becdd2c1584$__63427abff460028461071861341a565b6040516001600160e01b031960e086901b1681526004810193909352602483019190915264ffffffffff9081166044830152841660648201526084015b60006040518083038186803b15801561076d57600080fd5b505af4158015610781573d6000803e3d6000fd5b505050505050565b73__$364aad554dc80380f414546becdd2c1584$__638ce1584560028461071861341a565b60405163f698b0f160e01b81526000908190839073__$8c1a4844a0a0988ea2454cf87145a95df1$__9063f698b0f1906107ef9060069085906004016139cd565b60206040518083038186803b15801561080757600080fd5b505af415801561081b573d6000803e3d6000fd5b505050506040513d601f19601f8201168201806040525081019061083f91906139e4565b6108645760405162461bcd60e51b815260040161085b90613a06565b60405180910390fd5b5050506001600160a01b0316600090815260056020526040902060018101546002909101549091565b60405163f698b0f160e01b8152600090839073__$8c1a4844a0a0988ea2454cf87145a95df1$__9063f698b0f1906108cc9060069085906004016139cd565b60206040518083038186803b1580156108e457600080fd5b505af41580156108f8573d6000803e3d6000fd5b505050506040513d601f19601f8201168201806040525081019061091c91906139e4565b6109385760405162461bcd60e51b815260040161085b90613a06565b6001600160a01b038416600090815260056020908152604080832064ffffffffff8088168086526003909201909352922054620100009004161491505092915050565b604051633b11adbf60e21b815273__$364aad554dc80380f414546becdd2c1584$__9063ec46b6fc906109b59060029033906004016139cd565b60206040518083038186803b1580156109cd57600080fd5b505af41580156109e1573d6000803e3d6000fd5b505050506040513d601f19601f82011682018060405250810190610a0591906139e4565b80610aaa575073__$364aad554dc80380f414546becdd2c1584$__63fe2710866002610a2f61341a565b6040516001600160e01b031960e085901b168152600481019290925264ffffffffff16602482015260440160206040518083038186803b158015610a7257600080fd5b505af4158015610a86573d6000803e3d6000fd5b505050506040513d601f19601f82011682018060405250810190610aaa91906139e4565b610ac65760405162461bcd60e51b815260040161085b90613a3d565b604051632725ebef60e21b81526002600482015264ffffffffff8216602482015273__$364aad554dc80380f414546becdd2c1584$__90639c97afbc9060440160006040518083038186803b158015610b1e57600080fd5b505af4158015610b32573d6000803e3d6000fd5b505060405164ffffffffff841681527ff2735f34b69be1e6342dea95f9162f84d0db925fab655ca9f1f312ac8cbfc99d925060200190505b60405180910390a150565b6040805160a081018252600080825260208201819052818301819052606082018190526080820152905163f698b0f160e01b8152849073__$8c1a4844a0a0988ea2454cf87145a95df1$__9063f698b0f190610bd89060069085906004016139cd565b60206040518083038186803b158015610bf057600080fd5b505af4158015610c04573d6000803e3d6000fd5b505050506040513d601f19601f82011682018060405250810190610c2891906139e4565b610c445760405162461bcd60e51b815260040161085b90613a06565b6001600160a01b03851660009081526005602052604090819020905163d0e216db60e01b81526003909101600482015261ffff8516602482015264ffffffffff8416604482015273__$47b88465a20692378cf12e8e0c338f01dd$__9063d0e216db9060640160a06040518083038186803b158015610cc257600080fd5b505af4158015610cd6573d6000803e3d6000fd5b505050506040513d601f19601f82011682018060405250810190610cfa9190613ada565b95945050505050565b604051633b11adbf60e21b815273__$364aad554dc80380f414546becdd2c1584$__9063ec46b6fc90610d3d9060029033906004016139cd565b60206040518083038186803b158015610d5557600080fd5b505af4158015610d69573d6000803e3d6000fd5b505050506040513d601f19601f82011682018060405250810190610d8d91906139e4565b610da95760405162461bcd60e51b815260040161085b90613b7d565b60405163cc99e11b60e01b8152600260048201526024810182905273__$364aad554dc80380f414546becdd2c1584$__9063cc99e11b9060440160006040518083038186803b158015610dfb57600080fd5b505af4158015610e0f573d6000803e3d6000fd5b5050505050565b60405163f698b0f160e01b8152339073__$8c1a4844a0a0988ea2454cf87145a95df1$__9063f698b0f190610e529060069085906004016139cd565b60206040518083038186803b158015610e6a57600080fd5b505af4158015610e7e573d6000803e3d6000fd5b505050506040513d601f19601f82011682018060405250810190610ea291906139e4565b610ebe5760405162461bcd60e51b815260040161085b90613a06565b33600090815260056020526040908190209051630ac8cc2160e01b81526003909101600482015265ffffffffffff8316602482015273__$47b88465a20692378cf12e8e0c338f01dd$__90630ac8cc2190604401610755565b604051638f65372b60e01b81526006600482015260609073__$8c1a4844a0a0988ea2454cf87145a95df1$__90638f65372b9060240160006040518083038186803b158015610f6557600080fd5b505af4158015610f79573d6000803e3d6000fd5b505050506040513d6000823e601f3d908101601f191682016040526106ee9190810190613be7565b60405163f698b0f160e01b8152600090839073__$8c1a4844a0a0988ea2454cf87145a95df1$__9063f698b0f190610fe09060069085906004016139cd565b60206040518083038186803b158015610ff857600080fd5b505af415801561100c573d6000803e3d6000fd5b505050506040513d601f19601f8201168201806040525081019061103091906139e4565b61104c5760405162461bcd60e51b815260040161085b90613a06565b6001600160a01b038416600090815260056020526040908190209051633f5f77cd60e01b815260049182019181019190915264ffffffffff8416602482015273__$8c1a4844a0a0988ea2454cf87145a95df1$__90633f5f77cd9060440160206040518083038186803b1580156110c257600080fd5b505af41580156110d6573d6000803e3d6000fd5b505050506040513d601f19601f820116820180604052508101906110fa91906139e4565b949350505050565b604051630f07232560e01b8152600260048201523360248201526001600160a01b038216604482015273__$364aad554dc80380f414546becdd2c1584$__90630f0723259060640160006040518083038186803b15801561116257600080fd5b505af4158015611176573d6000803e3d6000fd5b50506040516001600160a01b03841681527fe435cbeab64e4eae6497b9d8289704bd709d624a80704ef3ca9af777534bc6ec92506020019050610b6a565b604051633b11adbf60e21b815273__$364aad554dc80380f414546becdd2c1584$__9063ec46b6fc906111ee9060029033906004016139cd565b60206040518083038186803b15801561120657600080fd5b505af415801561121a573d6000803e3d6000fd5b505050506040513d601f19601f8201168201806040525081019061123e91906139e4565b61125a5760405162461bcd60e51b815260040161085b90613b7d565b6001600160a01b038316600090815260056020526040902054839060ff600160c01b909104166002146112cf5760405162461bcd60e51b815260206004820152601e60248201527f524f442e6d642e6f66633a20446f63206e6f742043697263756c617465640000604482015260640161085b565b6112dc8460008585611489565b50505050565b73__$364aad554dc80380f414546becdd2c1584$__63d2a15ba760028461071861341a565b6040805160a081018252600080825260208201819052818301819052606082018190526080820152905163f698b0f160e01b8152839073__$8c1a4844a0a0988ea2454cf87145a95df1$__9063f698b0f19061136a9060069085906004016139cd565b60206040518083038186803b15801561138257600080fd5b505af4158015611396573d6000803e3d6000fd5b505050506040513d601f19601f820116820180604052508101906113ba91906139e4565b6113d65760405162461bcd60e51b815260040161085b90613a06565b6001600160a01b038416600090815260056020526040808220905163d0e216db60e01b815260039091016004820152602481019190915264ffffffffff8416604482015273__$47b88465a20692378cf12e8e0c338f01dd$__9063d0e216db9060640160a06040518083038186803b15801561145157600080fd5b505af4158015611465573d6000803e3d6000fd5b505050506040513d601f19601f820116820180604052508101906110fa9190613ada565b6001600160a01b038416600090815260056020526040902054849060ff600160c01b909104166002146114fe5760405162461bcd60e51b815260206004820152601e60248201527f524f442e6d642e6f66633a20446f63206e6f742043697263756c617465640000604482015260640161085b565b604051633b11adbf60e21b815273__$364aad554dc80380f414546becdd2c1584$__9063ec46b6fc906115389060029033906004016139cd565b60206040518083038186803b15801561155057600080fd5b505af4158015611564573d6000803e3d6000fd5b505050506040513d601f19601f8201168201806040525081019061158891906139e4565b6115a45760405162461bcd60e51b815260040161085b90613b7d565b33600090815260056020526040908190209051638770fa4760e01b81526003909101600482015261ffff8516602482015264ffffffffff841660448201526064810183905273__$47b88465a20692378cf12e8e0c338f01dd$__90638770fa479060840160006040518083038186803b15801561162057600080fd5b505af4158015611634573d6000803e3d6000fd5b505050505050505050565b604051632a3be56b60e21b8152600260048201526024810183905264ffffffffff8216604482015260009073__$364aad554dc80380f414546becdd2c1584$__9063a8ef95ac9060640160206040518083038186803b1580156116a157600080fd5b505af41580156116b5573d6000803e3d6000fd5b505050506040513d601f19601f820116820180604052508101906116d991906139e4565b9392505050565b604051633b11adbf60e21b815273__$364aad554dc80380f414546becdd2c1584$__9063ec46b6fc9061171a9060029033906004016139cd565b60206040518083038186803b15801561173257600080fd5b505af4158015611746573d6000803e3d6000fd5b505050506040513d601f19601f8201168201806040525081019061176a91906139e4565b8061180f575073__$364aad554dc80380f414546becdd2c1584$__63fe271086600261179461341a565b6040516001600160e01b031960e085901b168152600481019290925264ffffffffff16602482015260440160206040518083038186803b1580156117d757600080fd5b505af41580156117eb573d6000803e3d6000fd5b505050506040513d601f19601f8201168201806040525081019061180f91906139e4565b61182b5760405162461bcd60e51b815260040161085b90613a3d565b60405163b6e38a2960e01b81526002600482015264ffffffffff8216602482015273__$364aad554dc80380f414546becdd2c1584$__9063b6e38a299060440160006040518083038186803b15801561188357600080fd5b505af4158015611897573d6000803e3d6000fd5b505060405164ffffffffff841681527f8b6f40f36b4ae8cc5f55e895036457c43da4ab1f80f58c46f5ff0d72a650033b92506020019050610b6a565b6118dc82613474565b6118e581613513565b604051636cdd0edf60e11b81526002600482015264ffffffffff851660248201526001600160a01b038416604482015273__$364aad554dc80380f414546becdd2c1584$__9063d9ba1dbe9060640160006040518083038186803b15801561194c57600080fd5b505af4158015611960573d6000803e3d6000fd5b50506040805164ffffffffff881681526001600160a01b038781166020830152868116828401528516606082015290517f4d18c0021addc919105cb1ed2c11ad241e859cc1d9e77d4ee1d9ca2cdc1f255b9350908190036080019150a150505050565b604051633b11adbf60e21b815260009073__$364aad554dc80380f414546becdd2c1584$__9063ec46b6fc90611a009060029033906004016139cd565b60206040518083038186803b158015611a1857600080fd5b505af4158015611a2c573d6000803e3d6000fd5b505050506040513d601f19601f82011682018060405250810190611a5091906139e4565b611a6c5760405162461bcd60e51b815260040161085b90613b7d565b60ff831660009081526004602052604090205483906001600160a01b0316611ad65760405162461bcd60e51b815260206004820152601b60248201527f524f442e6d642e74723a2074656d706c617465204e4f54207365740000000000604482015260640161085b565b60ff8416600090815260046020526040812054611afb906001600160a01b0316613561565b604051633e244cf360e01b815290915073__$8c1a4844a0a0988ea2454cf87145a95df1$__90633e244cf390611b389060069085906004016139cd565b60206040518083038186803b158015611b5057600080fd5b505af4158015611b64573d6000803e3d6000fd5b505050506040513d601f19601f82011682018060405250810190611b8891906139e4565b15611cd2579150816001600160a01b0381167f7d25780785c2b2fefad30c6603980e64e6005c311412119d7e4702f602fd730a600160405160ff909116815260200160405180910390a26040805160c08101825260ff878116825264ffffffffff878116602080850191825265ffffffffffff42811686880190815260006060880181815260808901828152600160a08b019081526001600160a01b038f16845260059096529990912097518854955192519151995194518816600160c01b0260ff60c01b19958516600160901b029590951666ffffffffffffff60901b199a8516600160601b0265ffffffffffff60601b19939095166601000000000000029290921671ffffffffffffffffffffffff00000000000019939097166101000265ffffffffffff199096169716969096179390931792909216929092171793909316179190911790555b505092915050565b60405163987ad15360e01b81526002600482015260009073__$364aad554dc80380f414546becdd2c1584$__9063987ad1539060240161069e565b6000611d1f61341a565b604051637963595360e11b8152600260048201526024810184905264ffffffffff8216604482015290915073__$364aad554dc80380f414546becdd2c1584$__9063f2c6b2a690606401610755565b60405163f698b0f160e01b8152600090829073__$8c1a4844a0a0988ea2454cf87145a95df1$__9063f698b0f190611dad9060069085906004016139cd565b60206040518083038186803b158015611dc557600080fd5b505af4158015611dd9573d6000803e3d6000fd5b505050506040513d601f19601f82011682018060405250810190611dfd91906139e4565b611e195760405162461bcd60e51b815260040161085b90613a06565b6001600160a01b03831660009081526005602052604090819020905163c2b46a8560e01b815273__$8c1a4844a0a0988ea2454cf87145a95df1$__9163c2b46a8591611e6f916004908101910190815260200190565b60206040518083038186803b158015611e8757600080fd5b505af4158015611e9b573d6000803e3d6000fd5b505050506040513d601f19601f820116820180604052508101906116d99190613c86565b60405163f698b0f160e01b8152819073__$8c1a4844a0a0988ea2454cf87145a95df1$__9063f698b0f190611efb9060069085906004016139cd565b60206040518083038186803b158015611f1357600080fd5b505af4158015611f27573d6000803e3d6000fd5b505050506040513d601f19601f82011682018060405250810190611f4b91906139e4565b611f675760405162461bcd60e51b815260040161085b90613a06565b6001546040516335d2155560e11b81523360048201526001600160a01b0390911690636ba42aaa90602401602060405180830381600087803b158015611fac57600080fd5b505af1158015611fc0573d6000803e3d6000fd5b505050506040513d601f19601f82011682018060405250810190611fe491906139e4565b6120245760405162461bcd60e51b815260206004820152601160248201527020a19737b59d103737ba1025b2b2b832b960791b604482015260640161085b565b6001600160a01b0382166000818152600560205260409020547f7d25780785c2b2fefad30c6603980e64e6005c311412119d7e4702f602fd730a9061207490600160c01b900460ff166001613cb5565b60405160ff909116815260200160405180910390a26001600160a01b03821660009081526005602052604090208054600160c01b900460ff169060186120b983613cda565b91906101000a81548160ff021916908360ff160217905550505050565b604051633b11adbf60e21b815273__$364aad554dc80380f414546becdd2c1584$__9063ec46b6fc906121109060029033906004016139cd565b60206040518083038186803b15801561212857600080fd5b505af415801561213c573d6000803e3d6000fd5b505050506040513d601f19601f8201168201806040525081019061216091906139e4565b61217c5760405162461bcd60e51b815260040161085b90613b7d565b60ff811660008181526004602090815260409182902080546001600160a01b0319166001600160a01b038716908117909155915192835290917f69e0d9bafb5046296417aaeb6e5f2d326263f2c4211bc67a7d7fa7f03b0e4373910160405180910390a25050565b6040805160a081018252600080825260208201819052818301819052606082018190526080820152905163f698b0f160e01b8152829073__$8c1a4844a0a0988ea2454cf87145a95df1$__9063f698b0f1906122479060069085906004016139cd565b60206040518083038186803b15801561225f57600080fd5b505af4158015612273573d6000803e3d6000fd5b505050506040513d601f19601f8201168201806040525081019061229791906139e4565b6122b35760405162461bcd60e51b815260040161085b90613a06565b6001600160a01b0383166000908152600560205260409081902090516372f2266760e11b81526003909101600482015273__$47b88465a20692378cf12e8e0c338f01dd$__9063e5e44cce9060240160a06040518083038186803b15801561231a57600080fd5b505af415801561232e573d6000803e3d6000fd5b505050506040513d601f19601f820116820180604052508101906116d99190613ada565b60405163f698b0f160e01b815260009073__$8c1a4844a0a0988ea2454cf87145a95df1$__9063f698b0f19061238f9060069086906004016139cd565b60206040518083038186803b1580156123a757600080fd5b505af41580156123bb573d6000803e3d6000fd5b505050506040513d601f19601f820116820180604052508101906123df91906139e4565b92915050565b604051633b11adbf60e21b815273__$364aad554dc80380f414546becdd2c1584$__9063ec46b6fc9061241f9060029033906004016139cd565b60206040518083038186803b15801561243757600080fd5b505af415801561244b573d6000803e3d6000fd5b505050506040513d601f19601f8201168201806040525081019061246f91906139e4565b61248b5760405162461bcd60e51b815260040161085b90613b7d565b6001600160a01b038116600090815260056020526040902054819060ff600160c01b909104166001146125005760405162461bcd60e51b815260206004820152601b60248201527f524f442e6d642e6f66703a20646f63206e6f742070656e64696e670000000000604482015260640161085b565b604051636ea2751560e01b815273__$8c1a4844a0a0988ea2454cf87145a95df1$__90636ea275159061253a9060069086906004016139cd565b60206040518083038186803b15801561255257600080fd5b505af4158015612566573d6000803e3d6000fd5b505050506040513d601f19601f8201168201806040525081019061258a91906139e4565b15612617576040516001600160a01b038316907f05633b380cd1dd8bb1af7cbbf29e862857a3f147da66cbb23bdad8f7e527830b90600090a26001600160a01b038216600090815260056020526040812080546001600160c81b031916815560018101829055600281018290559060038201816004840181818161260e82826135b3565b50505050505050505b5050565b60405163f698b0f160e01b8152606090829073__$8c1a4844a0a0988ea2454cf87145a95df1$__9063f698b0f19061265a9060069085906004016139cd565b60206040518083038186803b15801561267257600080fd5b505af4158015612686573d6000803e3d6000fd5b505050506040513d601f19601f820116820180604052508101906126aa91906139e4565b6126c65760405162461bcd60e51b815260040161085b90613a06565b6001600160a01b03831660009081526005602052604090819020905163034306e160e21b815273__$8c1a4844a0a0988ea2454cf87145a95df1$__91630d0c1b849161271c916004908101910190815260200190565b60006040518083038186803b15801561273457600080fd5b505af4158015612748573d6000803e3d6000fd5b505050506040513d6000823e601f3d908101601f191682016040526116d99190810190613cfa565b60405163f698b0f160e01b8152339073__$8c1a4844a0a0988ea2454cf87145a95df1$__9063f698b0f1906127ac9060069085906004016139cd565b60206040518083038186803b1580156127c457600080fd5b505af41580156127d8573d6000803e3d6000fd5b505050506040513d601f19601f820116820180604052508101906127fc91906139e4565b6128185760405162461bcd60e51b815260040161085b90613a06565b33600090815260056020526040908190209051600162a23d0760e01b031981526003909101600482015261ffff8316602482015264ffffffffff8416604482015273__$47b88465a20692378cf12e8e0c338f01dd$__9063ff5dc2f9906064015b60006040518083038186803b15801561289157600080fd5b505af41580156128a5573d6000803e3d6000fd5b50505050505050565b60405163f698b0f160e01b8152339073__$8c1a4844a0a0988ea2454cf87145a95df1$__9063f698b0f1906128ea9060069085906004016139cd565b60206040518083038186803b15801561290257600080fd5b505af4158015612916573d6000803e3d6000fd5b505050506040513d601f19601f8201168201806040525081019061293a91906139e4565b6129565760405162461bcd60e51b815260040161085b90613a06565b3360009081526005602052604090819020905163f4e846c760e01b81526003909101600482015261ffff8316602482015264ffffffffff8416604482015273__$47b88465a20692378cf12e8e0c338f01dd$__9063f4e846c790606401612879565b6040805160c081018252600080825260208201819052818301819052606082018190526080820181905260a0820152905163f698b0f160e01b8152829073__$8c1a4844a0a0988ea2454cf87145a95df1$__9063f698b0f190612a229060069085906004016139cd565b60206040518083038186803b158015612a3a57600080fd5b505af4158015612a4e573d6000803e3d6000fd5b505050506040513d601f19601f82011682018060405250810190612a7291906139e4565b612a8e5760405162461bcd60e51b815260040161085b90613a06565b50506001600160a01b0316600090815260056020908152604091829020825160c081018452905460ff808216835264ffffffffff6101008304169383019390935265ffffffffffff66010000000000008204811694830194909452600160601b810484166060830152600160901b81049093166080820152600160c01b9092041660a082015290565b604051633b11adbf60e21b815273__$364aad554dc80380f414546becdd2c1584$__9063ec46b6fc90612b519060029033906004016139cd565b60206040518083038186803b158015612b6957600080fd5b505af4158015612b7d573d6000803e3d6000fd5b505050506040513d601f19601f82011682018060405250810190612ba191906139e4565b612bbd5760405162461bcd60e51b815260040161085b90613b7d565b6001600160a01b038416600090815260056020526040902054849060ff600160c01b90910416600114612c325760405162461bcd60e51b815260206004820152601b60248201527f524f442e6d642e6f66703a20646f63206e6f742070656e64696e670000000000604482015260640161085b565b604051600281526001600160a01b038616907f7d25780785c2b2fefad30c6603980e64e6005c311412119d7e4702f602fd730a9060200160405180910390a26001600160a01b03851660009081526005602052604080822090516362ce996560e11b81526004810187905290919073__$94c94c1f27eaba30857c7d0c37f90b5581$__9063c59d32ca9060240160206040518083038186803b158015612cd757600080fd5b505af4158015612ceb573d6000803e3d6000fd5b505050506040513d601f19601f82011682018060405250810190612d0f9190613d80565b604051631aef24a760e01b81526004810188905290915060009073__$94c94c1f27eaba30857c7d0c37f90b5581$__90631aef24a79060240160206040518083038186803b158015612d6057600080fd5b505af4158015612d74573d6000803e3d6000fd5b505050506040513d601f19601f82011682018060405250810190612d989190613d80565b9050612da78262015180613d9d565b612db19042613dcb565b835465ffffffffffff91909116600160601b0265ffffffffffff60601b19909116178355612de28162015180613d9d565b8354612dfd9190600160601b900465ffffffffffff16613dcb565b8354600185019790975560028401959095555050600160c11b66ffffffffffffff60901b1990941665ffffffffffff909316600160901b0260ff60c01b191692909217929092179055505050565b60405163f698b0f160e01b8152339073__$8c1a4844a0a0988ea2454cf87145a95df1$__9063f698b0f190612e879060069085906004016139cd565b60206040518083038186803b158015612e9f57600080fd5b505af4158015612eb3573d6000803e3d6000fd5b505050506040513d601f19601f82011682018060405250810190612ed791906139e4565b612ef35760405162461bcd60e51b815260040161085b90613a06565b33600090815260056020526040908190209051635284fe6760e11b81526003909101600482015265ffffffffffff8316602482015273__$47b88465a20692378cf12e8e0c338f01dd$__9063a509fcce90604401610755565b604051633c3e56c160e11b81526002600482015260009073__$364aad554dc80380f414546becdd2c1584$__9063787cad829060240160206040518083038186803b158015612f9a57600080fd5b505af4158015612fae573d6000803e3d6000fd5b505050506040513d601f19601f820116820180604052508101906106ee9190613df5565b604051635e77c9af60e01b81526006600482015260009073__$8c1a4844a0a0988ea2454cf87145a95df1$__90635e77c9af9060240160206040518083038186803b15801561302057600080fd5b505af4158015613034573d6000803e3d6000fd5b505050506040513d601f19601f820116820180604052508101906106ee9190613c86565b604051633b11adbf60e21b815273__$364aad554dc80380f414546becdd2c1584$__9063ec46b6fc906130929060029033906004016139cd565b60206040518083038186803b1580156130aa57600080fd5b505af41580156130be573d6000803e3d6000fd5b505050506040513d601f19601f820116820180604052508101906130e291906139e4565b6130fe5760405162461bcd60e51b815260040161085b90613b7d565b600254600160f01b900460ff1660011461315a5760405162461bcd60e51b815260206004820181905260248201527f41432e6f6e6c7950656e64696e673a20446f632069732066696e616c697a6564604482015260640161085b565b60405163cc99e11b60e01b815260026004820152684174746f726e65797360b81b602482015273__$364aad554dc80380f414546becdd2c1584$__9063cc99e11b9060440160006040518083038186803b1580156131b757600080fd5b505af41580156131cb573d6000803e3d6000fd5b5050604051632725ebef60e21b8152600260048201526000602482015273__$364aad554dc80380f414546becdd2c1584$__9250639c97afbc915060440160006040518083038186803b15801561322157600080fd5b505af4158015613235573d6000803e3d6000fd5b50506002805460ff60f01b1916600160f11b17905550506040517f35012b512309c322acf68632cd6cb702ff0e1d776fbe9394e38ffc13b434fe7590600090a1565b604051633b11adbf60e21b815273__$364aad554dc80380f414546becdd2c1584$__9063ec46b6fc906132b19060029033906004016139cd565b60206040518083038186803b1580156132c957600080fd5b505af41580156132dd573d6000803e3d6000fd5b505050506040513d601f19601f8201168201806040525081019061330191906139e4565b61331d5760405162461bcd60e51b815260040161085b90613b7d565b6001600160a01b0383166000908152600560205260409081902090516318a7841360e11b81526003909101600482015273__$47b88465a20692378cf12e8e0c338f01dd$__9063314f08269060240160206040518083038186803b15801561338457600080fd5b505af4158015613398573d6000803e3d6000fd5b505050506040513d601f19601f820116820180604052508101906133bc91906139e4565b6134085760405162461bcd60e51b815260206004820152601a60248201527f53502e41443a20446f63206e6f742065737461626c6973686564000000000000604482015260640161085b565b6134158360008484611489565b505050565b60008054604051634de835e760e11b81523360048201526001600160a01b0390911690639bd06bce90602401602060405180830381600087803b15801561346057600080fd5b505af11580156106ca573d6000803e3d6000fd5b6000546001600160a01b0316156134c55760405162461bcd60e51b815260206004820152601560248201527430b63932b0b23c9039b2ba103932b3a1b2b73a32b960591b604482015260640161085b565b600080546001600160a01b0319166001600160a01b0383169081179091556040519081527f318da6c7624c71cbc0afe346c9d8827f119d0ecefb241a7b0c87217a076a8e0290602001610b6a565b600180546001600160a01b0319166001600160a01b0383169081179091556040519081527fe513d3e0f0d0a3877029dcc588748679a7a3450ec1ec7ed56d96bd012c3e61aa90602001610b6a565b6000808260601b9050604051733d602d80600a3d3981f3363d3d373d3d3d363d7360601b81528160148201526e5af43d82803e903d91602b57fd5bf360881b60288201526037816000f0949350505050565b50805460008255906000526020600020908101906135d191906135d4565b50565b5b808211156135e957600081556001016135d5565b5090565b64ffffffffff811681146135d157600080fd5b6000806040838503121561361357600080fd5b823591506020830135613625816135ed565b809150509250929050565b6001600160a01b03811681146135d157600080fd5b60006020828403121561365757600080fd5b81356116d981613630565b6000806040838503121561367557600080fd5b823561368081613630565b91506020830135613625816135ed565b6000602082840312156136a257600080fd5b81356116d9816135ed565b61ffff811681146135d157600080fd5b6000806000606084860312156136d257600080fd5b83356136dd81613630565b925060208401356136ed816136ad565b915060408401356136fd816135ed565b809150509250925092565b60006020828403121561371a57600080fd5b5035919050565b65ffffffffffff811681146135d157600080fd5b60006020828403121561374757600080fd5b81356116d981613721565b6020808252825182820181905260009190848201906040850190845b818110156137935783516001600160a01b03168352928401929184019160010161376e565b50909695505050505050565b803560ff811681146137b057600080fd5b919050565b6000602082840312156137c757600080fd5b6116d98261379f565b6000806000606084860312156137e557600080fd5b83356137f081613630565b92506020840135613800816135ed565b929592945050506040919091013590565b6000806000806080858703121561382757600080fd5b843561383281613630565b93506020850135613842816136ad565b92506040850135613852816135ed565b9396929550929360600135925050565b6000806000806080858703121561387857600080fd5b8435613883816135ed565b9350602085013561389381613630565b925060408501356138a381613630565b915060608501356138b381613630565b939692955090935050565b600080604083850312156138d157600080fd5b6136808361379f565b600080604083850312156138ed57600080fd5b82356138f881613630565b91506139066020840161379f565b90509250929050565b6020808252825182820181905260009190848201906040850190845b818110156137935783518352928401929184019160010161392b565b6000806040838503121561395a57600080fd5b8235613965816135ed565b91506020830135613625816136ad565b6000806000806080858703121561398b57600080fd5b843561399681613630565b966020860135965060408601359560600135945092505050565b6000602082840312156139c257600080fd5b81516116d9816135ed565b9182526001600160a01b0316602082015260400190565b6000602082840312156139f657600080fd5b815180151581146116d957600080fd5b6020808252601d908201527f524f442e6d642e6f723a20646f63204e4f542072656769737465726564000000604082015260600190565b60208082526036908201527f41432e6f776e65724f72446972656374426f6f6b65657065723a206e6569746860408201527532b91037bbb732b9103737b9103137b7b5b2b2b832b960511b606082015260800190565b634e487b7160e01b600052604160045260246000fd5b604051601f8201601f1916810167ffffffffffffffff81118282101715613ad257613ad2613a93565b604052919050565b600060a08284031215613aec57600080fd5b60405160a0810167ffffffffffffffff8282108183111715613b1057613b10613a93565b8160405284519150613b21826136ad565b908252602084015190613b33826135ed565b81602084015260408501519150613b4982613721565b816040840152606085015191508082168214613b6457600080fd5b5060608201526080928301519281019290925250919050565b60208082526026908201527f41432e6f6e6c794469726563744b65657065723a206e6f74206469726563742060408201526535b2b2b832b960d11b606082015260800190565b600067ffffffffffffffff821115613bdd57613bdd613a93565b5060051b60200190565b60006020808385031215613bfa57600080fd5b825167ffffffffffffffff811115613c1157600080fd5b8301601f81018513613c2257600080fd5b8051613c35613c3082613bc3565b613aa9565b81815260059190911b82018301908381019087831115613c5457600080fd5b928401925b82841015613c7b578351613c6c81613630565b82529284019290840190613c59565b979650505050505050565b600060208284031215613c9857600080fd5b5051919050565b634e487b7160e01b600052601160045260246000fd5b600060ff821660ff84168060ff03821115613cd257613cd2613c9f565b019392505050565b600060ff821660ff811415613cf157613cf1613c9f565b60010192915050565b60006020808385031215613d0d57600080fd5b825167ffffffffffffffff811115613d2457600080fd5b8301601f81018513613d3557600080fd5b8051613d43613c3082613bc3565b81815260059190911b82018301908381019087831115613d6257600080fd5b928401925b82841015613c7b57835182529284019290840190613d67565b600060208284031215613d9257600080fd5b81516116d981613721565b600065ffffffffffff80831681851681830481118215151615613dc257613dc2613c9f565b02949350505050565b600065ffffffffffff808316818516808303821115613dec57613dec613c9f565b01949350505050565b600060208284031215613e0757600080fd5b81516116d98161363056fea2646970667358221220140b8ea9484ac1e9cf0acf16cc864c79c581abae06a1b98d3ba8a341ad34cd8364736f6c63430008080033",
    "sourcePath": "/Users/kaptain/github.com/hardhat/comboox/contracts/common/components/RepoOfDocs.sol",
    "compiler": {
        "name": "solc",
        "version": "0.8.8+commit.dddeac2f"
    },
    "functionHashes": {
        "abandonRole(bytes32)": "3da9a600",
        "acceptDoc(address,uint40,bytes32)": "f43323ee",
        "addBlank(uint40,uint16)": "dd4578aa",
        "circulateDoc(address,bytes32,bytes32,bytes32)": "e0249667",
        "createDoc(uint8,uint40)": "891613e7",
        "docsList()": "4be157d5",
        "finalized()": "b3f05b97",
        "getBookeeper()": "ed211023",
        "getGeneralCounsel()": "103f6edd",
        "getHeadOfDoc(address)": "de154c27",
        "getOwner()": "893d20e8",
        "getRefOfDoc(address)": "289aeb57",
        "grantRole(bytes32,uint40)": "74099815",
        "hasRole(bytes32,uint40)": "79b2ec12",
        "init(uint40,address,address,address)": "821ee8ea",
        "isInitSigner(address,uint40)": "29ce5888",
        "isParty(address,uint40)": "5c049642",
        "isRegistered(address)": "c3c5a547",
        "lockContents()": "f045a769",
        "parasOfPage(address)": "ad74d2a5",
        "partiesOfDoc(address)": "d6336277",
        "pushToNextState(address)": "a95027b3",
        "qtyOfDocs()": "ee4b47c1",
        "qtyOfParties(address)": "a1cb4381",
        "removeBlank(uint40,uint16)": "d6876305",
        "removeDoc(address)": "d42186fa",
        "renounceRole(bytes32)": "8bb9c5bf",
        "revokeRole(bytes32,uint40)": "17c51fec",
        "setClosingDeadline(uint48)": "4794be07",
        "setDirectKeeper(address)": "6be8496f",
        "setGeneralCounsel(uint40)": "3178a9a9",
        "setOwner(uint40)": "7ba706e8",
        "setRoleAdmin(bytes32,uint40)": "16dc517e",
        "setSigDeadline(uint48)": "ea8457f8",
        "setTemplate(address,uint8)": "aa596576",
        "sigOfDeal(address,uint16,uint40)": "3ced51a5",
        "sigOfDoc(address,uint40)": "746e421f",
        "signDeal(address,uint16,uint40,bytes32)": "765f54a7",
        "signDoc(address,uint40,bytes32)": "6f294795",
        "template(uint8)": "4efd15f2"
    },
    "gasEstimates": {
        "creation": {
            "codeDepositCost": "3188800",
            "executionCost": "3531",
            "totalCost": "3192331"
        },
        "external": {
            "abandonRole(bytes32)": "infinite",
            "acceptDoc(address,uint40,bytes32)": "infinite",
            "addBlank(uint40,uint16)": "infinite",
            "circulateDoc(address,bytes32,bytes32,bytes32)": "infinite",
            "createDoc(uint8,uint40)": "infinite",
            "docsList()": "infinite",
            "finalized()": "2416",
            "getBookeeper()": "infinite",
            "getGeneralCounsel()": "infinite",
            "getHeadOfDoc(address)": "infinite",
            "getOwner()": "infinite",
            "getRefOfDoc(address)": "infinite",
            "grantRole(bytes32,uint40)": "infinite",
            "hasRole(bytes32,uint40)": "infinite",
            "init(uint40,address,address,address)": "infinite",
            "isInitSigner(address,uint40)": "infinite",
            "isParty(address,uint40)": "infinite",
            "isRegistered(address)": "infinite",
            "lockContents()": "infinite",
            "parasOfPage(address)": "infinite",
            "partiesOfDoc(address)": "infinite",
            "pushToNextState(address)": "infinite",
            "qtyOfDocs()": "infinite",
            "qtyOfParties(address)": "infinite",
            "removeBlank(uint40,uint16)": "infinite",
            "removeDoc(address)": "infinite",
            "renounceRole(bytes32)": "infinite",
            "revokeRole(bytes32,uint40)": "infinite",
            "setClosingDeadline(uint48)": "infinite",
            "setDirectKeeper(address)": "infinite",
            "setGeneralCounsel(uint40)": "infinite",
            "setOwner(uint40)": "infinite",
            "setRoleAdmin(bytes32,uint40)": "infinite",
            "setSigDeadline(uint48)": "infinite",
            "setTemplate(address,uint8)": "infinite",
            "sigOfDeal(address,uint16,uint40)": "infinite",
            "sigOfDoc(address,uint40)": "infinite",
            "signDeal(address,uint16,uint40,bytes32)": "infinite",
            "signDoc(address,uint40,bytes32)": "infinite",
            "template(uint8)": "2598"
        }
    }
}