{
    "contractName": "RepoOfDocs",
    "abi": [
        {
            "anonymous": false,
            "inputs": [
                {
                    "indexed": false,
                    "internalType": "uint256",
                    "name": "owner",
                    "type": "uint256"
                },
                {
                    "indexed": false,
                    "internalType": "address",
                    "name": "directKeeper",
                    "type": "address"
                },
                {
                    "indexed": false,
                    "internalType": "address",
                    "name": "regCenter",
                    "type": "address"
                },
                {
                    "indexed": false,
                    "internalType": "address",
                    "name": "generalKeeper",
                    "type": "address"
                }
            ],
            "name": "Init",
            "type": "event"
        },
        {
            "anonymous": false,
            "inputs": [],
            "name": "LockContents",
            "type": "event"
        },
        {
            "anonymous": false,
            "inputs": [
                {
                    "indexed": true,
                    "internalType": "address",
                    "name": "body",
                    "type": "address"
                }
            ],
            "name": "RemoveDoc",
            "type": "event"
        },
        {
            "anonymous": false,
            "inputs": [
                {
                    "indexed": false,
                    "internalType": "uint256",
                    "name": "title",
                    "type": "uint256"
                },
                {
                    "indexed": false,
                    "internalType": "address",
                    "name": "book",
                    "type": "address"
                }
            ],
            "name": "SetBookRuting",
            "type": "event"
        },
        {
            "anonymous": false,
            "inputs": [
                {
                    "indexed": false,
                    "internalType": "address",
                    "name": "keeper",
                    "type": "address"
                }
            ],
            "name": "SetDirectKeeper",
            "type": "event"
        },
        {
            "anonymous": false,
            "inputs": [
                {
                    "indexed": false,
                    "internalType": "uint256",
                    "name": "acct",
                    "type": "uint256"
                }
            ],
            "name": "SetGeneralCounsel",
            "type": "event"
        },
        {
            "anonymous": false,
            "inputs": [
                {
                    "indexed": false,
                    "internalType": "address",
                    "name": "gk",
                    "type": "address"
                }
            ],
            "name": "SetGeneralKeeper",
            "type": "event"
        },
        {
            "anonymous": false,
            "inputs": [
                {
                    "indexed": false,
                    "internalType": "uint256",
                    "name": "acct",
                    "type": "uint256"
                }
            ],
            "name": "SetOwner",
            "type": "event"
        },
        {
            "anonymous": false,
            "inputs": [
                {
                    "indexed": false,
                    "internalType": "address",
                    "name": "rc",
                    "type": "address"
                }
            ],
            "name": "SetRegCenter",
            "type": "event"
        },
        {
            "anonymous": false,
            "inputs": [
                {
                    "indexed": true,
                    "internalType": "address",
                    "name": "temp",
                    "type": "address"
                },
                {
                    "indexed": false,
                    "internalType": "uint256",
                    "name": "typeOfDoc",
                    "type": "uint256"
                }
            ],
            "name": "SetTemplate",
            "type": "event"
        },
        {
            "anonymous": false,
            "inputs": [
                {
                    "indexed": true,
                    "internalType": "address",
                    "name": "body",
                    "type": "address"
                },
                {
                    "indexed": false,
                    "internalType": "uint8",
                    "name": "state",
                    "type": "uint8"
                }
            ],
            "name": "UpdateStateOfDoc",
            "type": "event"
        },
        {
            "inputs": [
                {
                    "internalType": "bytes32",
                    "name": "role",
                    "type": "bytes32"
                }
            ],
            "name": "abandonRole",
            "outputs": [],
            "stateMutability": "nonpayable",
            "type": "function"
        },
        {
            "inputs": [
                {
                    "internalType": "address",
                    "name": "body",
                    "type": "address"
                },
                {
                    "components": [
                        {
                            "internalType": "uint16",
                            "name": "seq",
                            "type": "uint16"
                        },
                        {
                            "internalType": "uint8",
                            "name": "qtyOfSubRule",
                            "type": "uint8"
                        },
                        {
                            "internalType": "uint8",
                            "name": "seqOfSubRule",
                            "type": "uint8"
                        },
                        {
                            "internalType": "uint8",
                            "name": "authority",
                            "type": "uint8"
                        },
                        {
                            "internalType": "uint16",
                            "name": "headRatio",
                            "type": "uint16"
                        },
                        {
                            "internalType": "uint16",
                            "name": "amountRatio",
                            "type": "uint16"
                        },
                        {
                            "internalType": "bool",
                            "name": "onlyAttendance",
                            "type": "bool"
                        },
                        {
                            "internalType": "bool",
                            "name": "impliedConsent",
                            "type": "bool"
                        },
                        {
                            "internalType": "bool",
                            "name": "partyAsConsent",
                            "type": "bool"
                        },
                        {
                            "internalType": "bool",
                            "name": "againstShallBuy",
                            "type": "bool"
                        },
                        {
                            "internalType": "uint8",
                            "name": "shaExecDays",
                            "type": "uint8"
                        },
                        {
                            "internalType": "uint8",
                            "name": "reviewDays",
                            "type": "uint8"
                        },
                        {
                            "internalType": "uint8",
                            "name": "votingDays",
                            "type": "uint8"
                        },
                        {
                            "internalType": "uint8",
                            "name": "execDaysForPutOpt",
                            "type": "uint8"
                        },
                        {
                            "internalType": "uint40[3]",
                            "name": "vetoers",
                            "type": "uint40[3]"
                        }
                    ],
                    "internalType": "struct RulesParser.VotingRule",
                    "name": "vr",
                    "type": "tuple"
                },
                {
                    "internalType": "bytes32",
                    "name": "docUrl",
                    "type": "bytes32"
                },
                {
                    "internalType": "bytes32",
                    "name": "docHash",
                    "type": "bytes32"
                }
            ],
            "name": "circulateDoc",
            "outputs": [],
            "stateMutability": "nonpayable",
            "type": "function"
        },
        {
            "inputs": [
                {
                    "internalType": "uint256",
                    "name": "typeOfDoc",
                    "type": "uint256"
                },
                {
                    "internalType": "uint256",
                    "name": "creator",
                    "type": "uint256"
                }
            ],
            "name": "createDoc",
            "outputs": [
                {
                    "internalType": "address",
                    "name": "body",
                    "type": "address"
                }
            ],
            "stateMutability": "nonpayable",
            "type": "function"
        },
        {
            "inputs": [],
            "name": "docsList",
            "outputs": [
                {
                    "internalType": "address[]",
                    "name": "",
                    "type": "address[]"
                }
            ],
            "stateMutability": "view",
            "type": "function"
        },
        {
            "inputs": [],
            "name": "finalized",
            "outputs": [
                {
                    "internalType": "bool",
                    "name": "",
                    "type": "bool"
                }
            ],
            "stateMutability": "view",
            "type": "function"
        },
        {
            "inputs": [],
            "name": "getBookeeper",
            "outputs": [
                {
                    "internalType": "address",
                    "name": "",
                    "type": "address"
                }
            ],
            "stateMutability": "view",
            "type": "function"
        },
        {
            "inputs": [],
            "name": "getGeneralCounsel",
            "outputs": [
                {
                    "internalType": "uint40",
                    "name": "",
                    "type": "uint40"
                }
            ],
            "stateMutability": "view",
            "type": "function"
        },
        {
            "inputs": [
                {
                    "internalType": "address",
                    "name": "body",
                    "type": "address"
                }
            ],
            "name": "getHeadOfDoc",
            "outputs": [
                {
                    "components": [
                        {
                            "internalType": "uint8",
                            "name": "typeOfDoc",
                            "type": "uint8"
                        },
                        {
                            "internalType": "uint40",
                            "name": "creator",
                            "type": "uint40"
                        },
                        {
                            "internalType": "uint48",
                            "name": "createDate",
                            "type": "uint48"
                        },
                        {
                            "internalType": "uint48",
                            "name": "shaExecDeadline",
                            "type": "uint48"
                        },
                        {
                            "internalType": "uint48",
                            "name": "proposeDeadline",
                            "type": "uint48"
                        },
                        {
                            "internalType": "uint8",
                            "name": "state",
                            "type": "uint8"
                        }
                    ],
                    "internalType": "struct IRepoOfDocs.Head",
                    "name": "head",
                    "type": "tuple"
                }
            ],
            "stateMutability": "view",
            "type": "function"
        },
        {
            "inputs": [],
            "name": "getOwner",
            "outputs": [
                {
                    "internalType": "uint40",
                    "name": "",
                    "type": "uint40"
                }
            ],
            "stateMutability": "view",
            "type": "function"
        },
        {
            "inputs": [
                {
                    "internalType": "address",
                    "name": "body",
                    "type": "address"
                }
            ],
            "name": "getRefOfDoc",
            "outputs": [
                {
                    "internalType": "bytes32",
                    "name": "docUrl",
                    "type": "bytes32"
                },
                {
                    "internalType": "bytes32",
                    "name": "docHash",
                    "type": "bytes32"
                }
            ],
            "stateMutability": "view",
            "type": "function"
        },
        {
            "inputs": [
                {
                    "internalType": "bytes32",
                    "name": "role",
                    "type": "bytes32"
                },
                {
                    "internalType": "uint256",
                    "name": "acct",
                    "type": "uint256"
                }
            ],
            "name": "grantRole",
            "outputs": [],
            "stateMutability": "nonpayable",
            "type": "function"
        },
        {
            "inputs": [
                {
                    "internalType": "bytes32",
                    "name": "role",
                    "type": "bytes32"
                },
                {
                    "internalType": "uint256",
                    "name": "acct",
                    "type": "uint256"
                }
            ],
            "name": "hasRole",
            "outputs": [
                {
                    "internalType": "bool",
                    "name": "",
                    "type": "bool"
                }
            ],
            "stateMutability": "view",
            "type": "function"
        },
        {
            "inputs": [
                {
                    "internalType": "uint256",
                    "name": "owner",
                    "type": "uint256"
                },
                {
                    "internalType": "address",
                    "name": "directKeeper",
                    "type": "address"
                },
                {
                    "internalType": "address",
                    "name": "regCenter",
                    "type": "address"
                },
                {
                    "internalType": "address",
                    "name": "generalKeeper",
                    "type": "address"
                }
            ],
            "name": "init",
            "outputs": [],
            "stateMutability": "nonpayable",
            "type": "function"
        },
        {
            "inputs": [
                {
                    "internalType": "address",
                    "name": "body",
                    "type": "address"
                }
            ],
            "name": "isRegistered",
            "outputs": [
                {
                    "internalType": "bool",
                    "name": "",
                    "type": "bool"
                }
            ],
            "stateMutability": "view",
            "type": "function"
        },
        {
            "inputs": [],
            "name": "lockContents",
            "outputs": [],
            "stateMutability": "nonpayable",
            "type": "function"
        },
        {
            "inputs": [],
            "name": "qtyOfDocs",
            "outputs": [
                {
                    "internalType": "uint256",
                    "name": "",
                    "type": "uint256"
                }
            ],
            "stateMutability": "view",
            "type": "function"
        },
        {
            "inputs": [
                {
                    "internalType": "address",
                    "name": "body",
                    "type": "address"
                }
            ],
            "name": "removeDoc",
            "outputs": [],
            "stateMutability": "nonpayable",
            "type": "function"
        },
        {
            "inputs": [
                {
                    "internalType": "bytes32",
                    "name": "role",
                    "type": "bytes32"
                }
            ],
            "name": "renounceRole",
            "outputs": [],
            "stateMutability": "nonpayable",
            "type": "function"
        },
        {
            "inputs": [
                {
                    "internalType": "bytes32",
                    "name": "role",
                    "type": "bytes32"
                },
                {
                    "internalType": "uint256",
                    "name": "acct",
                    "type": "uint256"
                }
            ],
            "name": "revokeRole",
            "outputs": [],
            "stateMutability": "nonpayable",
            "type": "function"
        },
        {
            "inputs": [
                {
                    "internalType": "address",
                    "name": "keeper",
                    "type": "address"
                }
            ],
            "name": "setDirectKeeper",
            "outputs": [],
            "stateMutability": "nonpayable",
            "type": "function"
        },
        {
            "inputs": [
                {
                    "internalType": "uint256",
                    "name": "acct",
                    "type": "uint256"
                }
            ],
            "name": "setGeneralCounsel",
            "outputs": [],
            "stateMutability": "nonpayable",
            "type": "function"
        },
        {
            "inputs": [
                {
                    "internalType": "uint256",
                    "name": "acct",
                    "type": "uint256"
                }
            ],
            "name": "setOwner",
            "outputs": [],
            "stateMutability": "nonpayable",
            "type": "function"
        },
        {
            "inputs": [
                {
                    "internalType": "bytes32",
                    "name": "role",
                    "type": "bytes32"
                },
                {
                    "internalType": "uint256",
                    "name": "acct",
                    "type": "uint256"
                }
            ],
            "name": "setRoleAdmin",
            "outputs": [],
            "stateMutability": "nonpayable",
            "type": "function"
        },
        {
            "inputs": [
                {
                    "internalType": "address",
                    "name": "body",
                    "type": "address"
                },
                {
                    "internalType": "uint8",
                    "name": "state",
                    "type": "uint8"
                }
            ],
            "name": "setStateOfDoc",
            "outputs": [],
            "stateMutability": "nonpayable",
            "type": "function"
        },
        {
            "inputs": [
                {
                    "internalType": "address",
                    "name": "body",
                    "type": "address"
                },
                {
                    "internalType": "uint256",
                    "name": "typeOfDoc",
                    "type": "uint256"
                }
            ],
            "name": "setTemplate",
            "outputs": [],
            "stateMutability": "nonpayable",
            "type": "function"
        },
        {
            "inputs": [
                {
                    "internalType": "uint256",
                    "name": "typeOfDoc",
                    "type": "uint256"
                }
            ],
            "name": "tempReadyFor",
            "outputs": [
                {
                    "internalType": "bool",
                    "name": "",
                    "type": "bool"
                }
            ],
            "stateMutability": "view",
            "type": "function"
        },
        {
            "inputs": [
                {
                    "internalType": "uint256",
                    "name": "typeOfDoc",
                    "type": "uint256"
                }
            ],
            "name": "template",
            "outputs": [
                {
                    "internalType": "address",
                    "name": "",
                    "type": "address"
                }
            ],
            "stateMutability": "view",
            "type": "function"
        },
        {
            "inputs": [],
            "name": "tempsList",
            "outputs": [
                {
                    "internalType": "uint256[]",
                    "name": "",
                    "type": "uint256[]"
                }
            ],
            "stateMutability": "view",
            "type": "function"
        }
    ],
    "bytecode": "608060405234801561001057600080fd5b50612aef806100206000396000f3fe608060405234801561001057600080fd5b50600436106101c45760003560e01c8063893d20e8116100f9578063d42186fa11610097578063e71d875811610071578063e71d875814610443578063ed2110231461046c578063ee4b47c114610474578063f045a7691461048a57600080fd5b8063d42186fa146103a1578063dc890da9146103b4578063de154c27146103c757600080fd5b80638c32f23d116100d35780638c32f23d14610354578063b3f05b9714610367578063b70ebcd81461037b578063c3c5a5471461038e57600080fd5b8063893d20e8146103265780638a4640da1461032e5780638bb9c5bf1461034157600080fd5b80633da9a600116101665780635171ebd4116101405780635171ebd4146102ca5780636be8496f146102dd5780637e063c5a146102f05780638041494e1461031357600080fd5b80633da9a6001461028f5780634a14beb1146102a25780634be157d5146102b557600080fd5b8063211f5816116101a2578063211f58161461021457806324344f1114610227578063289aeb5714610252578063309ed9c81461027a57600080fd5b8063103f6edd146101c957806319d61ad9146101ec5780631b6ea9f914610201575b600080fd5b6101d1610492565b60405164ffffffffff90911681526020015b60405180910390f35b6101ff6101fa366004612377565b61051e565b005b6101ff61020f366004612377565b6105b2565b6101ff6102223660046123c7565b6105d7565b61023a610235366004612377565b6107c4565b6040516001600160a01b0390911681526020016101e3565b6102656102603660046123fc565b610c44565b604080519283526020830191909152016101e3565b610282610d22565b6040516101e39190612419565b6101ff61029d36600461245d565b610dac565b6101ff6102b036600461245d565b610ebe565b6102bd6110ae565b6040516101e39190612476565b6101ff6102d8366004612377565b611138565b6101ff6102eb3660046123fc565b61115d565b6103036102fe366004612377565b61120f565b60405190151581526020016101e3565b6101ff61032136600461245d565b6112aa565b6101d161148f565b61030361033c36600461245d565b6114ca565b6101ff61034f36600461245d565b61155e565b6101ff6103623660046125dd565b6115b7565b60028054600160f01b900460ff1614610303565b6101ff610389366004612740565b6117e9565b61030361039c3660046123fc565b61198c565b6101ff6103af3660046123fc565b6119d6565b6101ff6103c236600461276c565b611bf1565b6103da6103d53660046123fc565b611cd4565b6040516101e39190600060c08201905060ff835116825264ffffffffff6020840151166020830152604083015165ffffffffffff8082166040850152806060860151166060850152806080860151166080850152505060ff60a08401511660a083015292915050565b61023a61045136600461245d565b6000908152600460205260409020546001600160a01b031690565b61023a611e3b565b61047c611ec1565b6040519081526020016101e3565b6101ff611f47565b60405163e8c0cc1d60e01b81526002600482015260009073__$364aad554dc80380f414546becdd2c1584$__9063e8c0cc1d906024015b60206040518083038186803b1580156104e157600080fd5b505af41580156104f5573d6000803e3d6000fd5b505050506040513d601f19601f8201168201806040525081019061051991906127bf565b905090565b73__$364aad554dc80380f414546becdd2c1584$__6382daafaa600284610543612165565b6040516001600160e01b031960e086901b1681526004810193909352602483019190915264ffffffffff166044820152606481018490526084015b60006040518083038186803b15801561059657600080fd5b505af41580156105aa573d6000803e3d6000fd5b505050505050565b73__$364aad554dc80380f414546becdd2c1584$__636320d75e600284610543612165565b60405163f698b0f160e01b8152600860048201526001600160a01b0383166024820152829073__$8c1a4844a0a0988ea2454cf87145a95df1$__9063f698b0f19060440160206040518083038186803b15801561063357600080fd5b505af4158015610647573d6000803e3d6000fd5b505050506040513d601f19601f8201168201806040525081019061066b91906127dc565b6106905760405162461bcd60e51b8152600401610687906127f9565b60405180910390fd5b6001546040516335d2155560e11b81523360048201526001600160a01b0390911690636ba42aaa9060240160206040518083038186803b1580156106d357600080fd5b505afa1580156106e7573d6000803e3d6000fd5b505050506040513d601f19601f8201168201806040525081019061070b91906127dc565b61074b5760405162461bcd60e51b815260206004820152601160248201527020a19737b59d103737ba1025b2b2b832b960791b6044820152606401610687565b60405160ff831681526001600160a01b038416907f7d25780785c2b2fefad30c6603980e64e6005c311412119d7e4702f602fd730a9060200160405180910390a2506001600160a01b039091166000908152600760205260409020805460ff909216600160c01b0260ff60c01b19909216919091179055565b604051633b11adbf60e21b81526002600482015233602482015260009073__$364aad554dc80380f414546becdd2c1584$__9063ec46b6fc9060440160206040518083038186803b15801561081857600080fd5b505af415801561082c573d6000803e3d6000fd5b505050506040513d601f19601f8201168201806040525081019061085091906127dc565b61086c5760405162461bcd60e51b815260040161068790612830565b604051633f5f77cd60e01b81526005600482015260248101849052839073__$8c1a4844a0a0988ea2454cf87145a95df1$__90633f5f77cd9060440160206040518083038186803b1580156108c057600080fd5b505af41580156108d4573d6000803e3d6000fd5b505050506040513d601f19601f820116820180604052508101906108f891906127dc565b6109445760405162461bcd60e51b815260206004820152601b60248201527f524f442e6d642e54523a2074656d706c617465204e4f542073657400000000006044820152606401610687565b604051633f5f77cd60e01b8152600560048201526000602482018190529073__$8c1a4844a0a0988ea2454cf87145a95df1$__90633f5f77cd9060440160206040518083038186803b15801561099957600080fd5b505af41580156109ad573d6000803e3d6000fd5b505050506040513d601f19601f820116820180604052508101906109d191906127dc565b610a1d5760405162461bcd60e51b815260206004820152601b60248201527f524f442e6d642e54523a2074656d706c617465204e4f542073657400000000006044820152606401610687565b600085815260046020526040812054610a3e906001600160a01b03166121bf565b604051633e244cf360e01b8152600860048201526001600160a01b038216602482015290915073__$8c1a4844a0a0988ea2454cf87145a95df1$__90633e244cf39060440160206040518083038186803b158015610a9b57600080fd5b505af4158015610aaf573d6000803e3d6000fd5b505050506040513d601f19601f82011682018060405250810190610ad391906127dc565b15610c3b579250826001600160a01b0381167f7d25780785c2b2fefad30c6603980e64e6005c311412119d7e4702f602fd730a600160405160ff909116815260200160405180910390a26040805160c08101825260ff8816815264ffffffffff8716602082015265ffffffffffff421691810191909152600060608201819052608082015260a08101600160ff9081169091526001600160a01b0386166000908152600760209081526040918290208451815492860151938601516060870151608088015160a0909801518716600160c01b0260ff60c01b1965ffffffffffff998a16600160901b021666ffffffffffffff60901b19928a16600160601b0265ffffffffffff60601b199a9094166601000000000000029990991671ffffffffffffffffffffffff0000000000001964ffffffffff9098166101000265ffffffffffff1990971694909816939093179490941794909416949094179290921716929092171790555b50505092915050565b60405163f698b0f160e01b8152600860048201526001600160a01b03821660248201526000908190839073__$8c1a4844a0a0988ea2454cf87145a95df1$__9063f698b0f19060440160206040518083038186803b158015610ca557600080fd5b505af4158015610cb9573d6000803e3d6000fd5b505050506040513d601f19601f82011682018060405250810190610cdd91906127dc565b610cf95760405162461bcd60e51b8152600401610687906127f9565b5050506001600160a01b0316600090815260076020526040902060018101546002909101549091565b60405163034306e160e21b81526005600482015260609073__$8c1a4844a0a0988ea2454cf87145a95df1$__90630d0c1b849060240160006040518083038186803b158015610d7057600080fd5b505af4158015610d84573d6000803e3d6000fd5b505050506040513d6000823e601f3d908101601f19168201604052610519919081019061289a565b604051633b11adbf60e21b81526002600482015233602482015273__$364aad554dc80380f414546becdd2c1584$__9063ec46b6fc9060440160206040518083038186803b158015610dfd57600080fd5b505af4158015610e11573d6000803e3d6000fd5b505050506040513d601f19601f82011682018060405250810190610e3591906127dc565b610e515760405162461bcd60e51b815260040161068790612830565b60405163cc99e11b60e01b8152600260048201526024810182905273__$364aad554dc80380f414546becdd2c1584$__9063cc99e11b9060440160006040518083038186803b158015610ea357600080fd5b505af4158015610eb7573d6000803e3d6000fd5b5050505050565b604051633b11adbf60e21b81526002600482015233602482015273__$364aad554dc80380f414546becdd2c1584$__9063ec46b6fc9060440160206040518083038186803b158015610f0f57600080fd5b505af4158015610f23573d6000803e3d6000fd5b505050506040513d601f19601f82011682018060405250810190610f4791906127dc565b80610fec575073__$364aad554dc80380f414546becdd2c1584$__63fe2710866002610f71612165565b6040516001600160e01b031960e085901b168152600481019290925264ffffffffff16602482015260440160206040518083038186803b158015610fb457600080fd5b505af4158015610fc8573d6000803e3d6000fd5b505050506040513d601f19601f82011682018060405250810190610fec91906127dc565b6110085760405162461bcd60e51b815260040161068790612930565b604051632725ebef60e21b8152600260048201526024810182905273__$364aad554dc80380f414546becdd2c1584$__90639c97afbc9060440160006040518083038186803b15801561105a57600080fd5b505af415801561106e573d6000803e3d6000fd5b505050507ff2735f34b69be1e6342dea95f9162f84d0db925fab655ca9f1f312ac8cbfc99d816040516110a391815260200190565b60405180910390a150565b604051638f65372b60e01b81526008600482015260609073__$8c1a4844a0a0988ea2454cf87145a95df1$__90638f65372b9060240160006040518083038186803b1580156110fc57600080fd5b505af4158015611110573d6000803e3d6000fd5b505050506040513d6000823e601f3d908101601f191682016040526105199190810190612986565b73__$364aad554dc80380f414546becdd2c1584$__63ee98b313600284610543612165565b604051630f07232560e01b8152600260048201523360248201526001600160a01b038216604482015273__$364aad554dc80380f414546becdd2c1584$__90630f0723259060640160006040518083038186803b1580156111bd57600080fd5b505af41580156111d1573d6000803e3d6000fd5b50506040516001600160a01b03841681527fe435cbeab64e4eae6497b9d8289704bd709d624a80704ef3ca9af777534bc6ec925060200190506110a3565b604051632a3be56b60e21b815260026004820152602481018390526044810182905260009073__$364aad554dc80380f414546becdd2c1584$__9063a8ef95ac9060640160206040518083038186803b15801561126b57600080fd5b505af415801561127f573d6000803e3d6000fd5b505050506040513d601f19601f820116820180604052508101906112a391906127dc565b9392505050565b604051633b11adbf60e21b81526002600482015233602482015273__$364aad554dc80380f414546becdd2c1584$__9063ec46b6fc9060440160206040518083038186803b1580156112fb57600080fd5b505af415801561130f573d6000803e3d6000fd5b505050506040513d601f19601f8201168201806040525081019061133391906127dc565b806113d8575073__$364aad554dc80380f414546becdd2c1584$__63fe271086600261135d612165565b6040516001600160e01b031960e085901b168152600481019290925264ffffffffff16602482015260440160206040518083038186803b1580156113a057600080fd5b505af41580156113b4573d6000803e3d6000fd5b505050506040513d601f19601f820116820180604052508101906113d891906127dc565b6113f45760405162461bcd60e51b815260040161068790612930565b60405163b6e38a2960e01b8152600260048201526024810182905273__$364aad554dc80380f414546becdd2c1584$__9063b6e38a299060440160006040518083038186803b15801561144657600080fd5b505af415801561145a573d6000803e3d6000fd5b505050507f8b6f40f36b4ae8cc5f55e895036457c43da4ab1f80f58c46f5ff0d72a650033b816040516110a391815260200190565b60405163987ad15360e01b81526002600482015260009073__$364aad554dc80380f414546becdd2c1584$__9063987ad153906024016104c9565b604051633f5f77cd60e01b8152600560048201526024810182905260009073__$8c1a4844a0a0988ea2454cf87145a95df1$__90633f5f77cd906044015b60206040518083038186803b15801561152057600080fd5b505af4158015611534573d6000803e3d6000fd5b505050506040513d601f19601f8201168201806040525081019061155891906127dc565b92915050565b6000611568612165565b60405163cc0d511b60e01b8152600260048201526024810184905264ffffffffff8216604482015290915073__$364aad554dc80380f414546becdd2c1584$__9063cc0d511b9060640161057e565b604051633b11adbf60e21b81526002600482015233602482015273__$364aad554dc80380f414546becdd2c1584$__9063ec46b6fc9060440160206040518083038186803b15801561160857600080fd5b505af415801561161c573d6000803e3d6000fd5b505050506040513d601f19601f8201168201806040525081019061164091906127dc565b61165c5760405162461bcd60e51b815260040161068790612830565b6001600160a01b038416600090815260076020526040902054849060ff600160c01b909104166001146116d15760405162461bcd60e51b815260206004820152601b60248201527f524f442e6d642e4f46503a20446f63206e6f742070656e64696e6700000000006044820152606401610687565b604051600281526001600160a01b038616907f7d25780785c2b2fefad30c6603980e64e6005c311412119d7e4702f602fd730a9060200160405180910390a26001600160a01b038516600090815260076020526040902061014085015161173e9060ff1662015180612a2b565b6117489042612a59565b815465ffffffffffff91909116600160601b0265ffffffffffff60601b199091161781556101608501516117829060ff1662015180612a2b565b815461179d9190600160601b900465ffffffffffff16612a59565b815460018301959095556002820193909355600160c11b66ffffffffffffff60901b1990941665ffffffffffff909316600160901b0260ff60c01b191692909217929092179055505050565b604051633b11adbf60e21b81526002600482015233602482015273__$364aad554dc80380f414546becdd2c1584$__9063ec46b6fc9060440160206040518083038186803b15801561183a57600080fd5b505af415801561184e573d6000803e3d6000fd5b505050506040513d601f19601f8201168201806040525081019061187291906127dc565b61188e5760405162461bcd60e51b815260040161068790612830565b816001600160a01b03167f69e0d9bafb5046296417aaeb6e5f2d326263f2c4211bc67a7d7fa7f03b0e4373826040516118c991815260200190565b60405180910390a260008181526004602081905260409182902080546001600160a01b0319166001600160a01b03861617905590516392f13c3f60e01b81526005918101919091526024810182905273__$8c1a4844a0a0988ea2454cf87145a95df1$__906392f13c3f9060440160206040518083038186803b15801561194f57600080fd5b505af4158015611963573d6000803e3d6000fd5b505050506040513d601f19601f8201168201806040525081019061198791906127dc565b505050565b60405163f698b0f160e01b8152600860048201526001600160a01b038216602482015260009073__$8c1a4844a0a0988ea2454cf87145a95df1$__9063f698b0f190604401611508565b604051633b11adbf60e21b81526002600482015233602482015273__$364aad554dc80380f414546becdd2c1584$__9063ec46b6fc9060440160206040518083038186803b158015611a2757600080fd5b505af4158015611a3b573d6000803e3d6000fd5b505050506040513d601f19601f82011682018060405250810190611a5f91906127dc565b611a7b5760405162461bcd60e51b815260040161068790612830565b6001600160a01b038116600090815260076020526040902054819060ff600160c01b90910416600114611af05760405162461bcd60e51b815260206004820152601b60248201527f524f442e6d642e4f46503a20446f63206e6f742070656e64696e6700000000006044820152606401610687565b604051636ea2751560e01b8152600860048201526001600160a01b038316602482015273__$8c1a4844a0a0988ea2454cf87145a95df1$__90636ea275159060440160206040518083038186803b158015611b4a57600080fd5b505af4158015611b5e573d6000803e3d6000fd5b505050506040513d601f19601f82011682018060405250810190611b8291906127dc565b15611bed576040516001600160a01b038316907f05633b380cd1dd8bb1af7cbbf29e862857a3f147da66cbb23bdad8f7e527830b90600090a26001600160a01b038216600090815260076020526040812080546001600160c81b031916815560018101829055600201555b5050565b611bfa82612211565b611c03816122c0565b604051636cdd0edf60e11b815260026004820152602481018590526001600160a01b038416604482015273__$364aad554dc80380f414546becdd2c1584$__9063d9ba1dbe9060640160006040518083038186803b158015611c6457600080fd5b505af4158015611c78573d6000803e3d6000fd5b5050604080518781526001600160a01b038781166020830152868116828401528516606082015290517f3abb2418c66fe32ba9c883030a75ce583971d9af9192b9b74e44e67c5e6c8c1f9350908190036080019150a150505050565b6040805160c081018252600080825260208201819052818301819052606082018190526080820181905260a0820152905163f698b0f160e01b8152600860048201526001600160a01b0383166024820152829073__$8c1a4844a0a0988ea2454cf87145a95df1$__9063f698b0f19060440160206040518083038186803b158015611d5e57600080fd5b505af4158015611d72573d6000803e3d6000fd5b505050506040513d601f19601f82011682018060405250810190611d9691906127dc565b611db25760405162461bcd60e51b8152600401610687906127f9565b50506001600160a01b0316600090815260076020908152604091829020825160c081018452905460ff808216835264ffffffffff6101008304169383019390935265ffffffffffff66010000000000008204811694830194909452600160601b810484166060830152600160901b81049093166080820152600160c01b9092041660a082015290565b604051633c3e56c160e11b81526002600482015260009073__$364aad554dc80380f414546becdd2c1584$__9063787cad829060240160206040518083038186803b158015611e8957600080fd5b505af4158015611e9d573d6000803e3d6000fd5b505050506040513d601f19601f820116820180604052508101906105199190612a83565b604051635e77c9af60e01b81526008600482015260009073__$8c1a4844a0a0988ea2454cf87145a95df1$__90635e77c9af9060240160206040518083038186803b158015611f0f57600080fd5b505af4158015611f23573d6000803e3d6000fd5b505050506040513d601f19601f820116820180604052508101906105199190612aa0565b604051633b11adbf60e21b81526002600482015233602482015273__$364aad554dc80380f414546becdd2c1584$__9063ec46b6fc9060440160206040518083038186803b158015611f9857600080fd5b505af4158015611fac573d6000803e3d6000fd5b505050506040513d601f19601f82011682018060405250810190611fd091906127dc565b611fec5760405162461bcd60e51b815260040161068790612830565b600254600160f01b900460ff166001146120485760405162461bcd60e51b815260206004820181905260248201527f41432e6f6e6c7950656e64696e673a20446f632069732066696e616c697a65646044820152606401610687565b60405163cc99e11b60e01b815260026004820152684174746f726e65797360b81b602482015273__$364aad554dc80380f414546becdd2c1584$__9063cc99e11b9060440160006040518083038186803b1580156120a557600080fd5b505af41580156120b9573d6000803e3d6000fd5b5050604051632725ebef60e21b8152600260048201526000602482015273__$364aad554dc80380f414546becdd2c1584$__9250639c97afbc915060440160006040518083038186803b15801561210f57600080fd5b505af4158015612123573d6000803e3d6000fd5b50506002805460ff60f01b1916600160f11b17905550506040517f35012b512309c322acf68632cd6cb702ff0e1d776fbe9394e38ffc13b434fe7590600090a1565b60008054604051634de835e760e11b81523360048201526001600160a01b0390911690639bd06bce90602401602060405180830381600087803b1580156121ab57600080fd5b505af11580156104f5573d6000803e3d6000fd5b6000808260601b9050604051733d602d80600a3d3981f3363d3d373d3d3d363d7360601b81528160148201526e5af43d82803e903d91602b57fd5bf360881b60288201526037816000f0949350505050565b6000546001600160a01b0316156122625760405162461bcd60e51b815260206004820152601560248201527430b63932b0b23c9039b2ba103932b3a1b2b73a32b960591b6044820152606401610687565b6040516001600160a01b03821681527f318da6c7624c71cbc0afe346c9d8827f119d0ecefb241a7b0c87217a076a8e029060200160405180910390a1600080546001600160a01b0319166001600160a01b0392909216919091179055565b6001546001600160a01b0316156123195760405162461bcd60e51b815260206004820152601960248201527f616c7265616479207365742067656e6572616c4b6565706572000000000000006044820152606401610687565b6040516001600160a01b03821681527fe513d3e0f0d0a3877029dcc588748679a7a3450ec1ec7ed56d96bd012c3e61aa9060200160405180910390a1600180546001600160a01b0319166001600160a01b0392909216919091179055565b6000806040838503121561238a57600080fd5b50508035926020909101359150565b6001600160a01b03811681146123ae57600080fd5b50565b803560ff811681146123c257600080fd5b919050565b600080604083850312156123da57600080fd5b82356123e581612399565b91506123f3602084016123b1565b90509250929050565b60006020828403121561240e57600080fd5b81356112a381612399565b6020808252825182820181905260009190848201906040850190845b8181101561245157835183529284019291840191600101612435565b50909695505050505050565b60006020828403121561246f57600080fd5b5035919050565b6020808252825182820181905260009190848201906040850190845b818110156124515783516001600160a01b031683529284019291840191600101612492565b634e487b7160e01b600052604160045260246000fd5b6040516101e0810167ffffffffffffffff811182821017156124f1576124f16124b7565b60405290565b604051601f8201601f1916810167ffffffffffffffff81118282101715612520576125206124b7565b604052919050565b803561ffff811681146123c257600080fd5b80151581146123ae57600080fd5b80356123c28161253a565b64ffffffffff811681146123ae57600080fd5b600082601f83011261257757600080fd5b6040516060810181811067ffffffffffffffff8211171561259a5761259a6124b7565b6040528060608401858111156125af57600080fd5b845b818110156125d25780356125c481612553565b8352602092830192016125b1565b509195945050505050565b6000806000808486036102808112156125f557600080fd5b853561260081612399565b9450610220601f198201121561261557600080fd5b5061261e6124cd565b61262a60208701612528565b8152612638604087016123b1565b6020820152612649606087016123b1565b604082015261265a608087016123b1565b606082015261266b60a08701612528565b608082015261267c60c08701612528565b60a082015261268d60e08701612548565b60c08201526101006126a0818801612548565b60e08301526101206126b3818901612548565b8284015261014091506126c7828901612548565b908301526101606126d98882016123b1565b8284015261018091506126ed8289016123b1565b908301526101a06126ff8882016123b1565b828401526101c091506127138289016123b1565b90830152612725886101e08901612566565b90820152939693955050505061024082013591610260013590565b6000806040838503121561275357600080fd5b823561275e81612399565b946020939093013593505050565b6000806000806080858703121561278257600080fd5b84359350602085013561279481612399565b925060408501356127a481612399565b915060608501356127b481612399565b939692955090935050565b6000602082840312156127d157600080fd5b81516112a381612553565b6000602082840312156127ee57600080fd5b81516112a38161253a565b6020808252601d908201527f524f442e6d642e4f523a20646f63204e4f542072656769737465726564000000604082015260600190565b60208082526026908201527f41432e6f6e6c794469726563744b65657065723a206e6f74206469726563742060408201526535b2b2b832b960d11b606082015260800190565b600067ffffffffffffffff821115612890576128906124b7565b5060051b60200190565b600060208083850312156128ad57600080fd5b825167ffffffffffffffff8111156128c457600080fd5b8301601f810185136128d557600080fd5b80516128e86128e382612876565b6124f7565b81815260059190911b8201830190838101908783111561290757600080fd5b928401925b828410156129255783518252928401929084019061290c565b979650505050505050565b60208082526036908201527f41432e6f776e65724f72446972656374426f6f6b65657065723a206e6569746860408201527532b91037bbb732b9103737b9103137b7b5b2b2b832b960511b606082015260800190565b6000602080838503121561299957600080fd5b825167ffffffffffffffff8111156129b057600080fd5b8301601f810185136129c157600080fd5b80516129cf6128e382612876565b81815260059190911b820183019083810190878311156129ee57600080fd5b928401925b82841015612925578351612a0681612399565b825292840192908401906129f3565b634e487b7160e01b600052601160045260246000fd5b600065ffffffffffff80831681851681830481118215151615612a5057612a50612a15565b02949350505050565b600065ffffffffffff808316818516808303821115612a7a57612a7a612a15565b01949350505050565b600060208284031215612a9557600080fd5b81516112a381612399565b600060208284031215612ab257600080fd5b505191905056fea26469706673582212209a99c872aa384023be452f344e2df5dcba32325cf7c91fbffba6a39b02097bd264736f6c63430008080033",
    "sourcePath": "/Users/kaptain/github.com/hardhat/comboox/contracts/common/components/RepoOfDocs.sol",
    "compiler": {
        "name": "solc",
        "version": "0.8.8+commit.dddeac2f"
    },
    "functionHashes": {
        "abandonRole(bytes32)": "3da9a600",
        "circulateDoc(address,(uint16,uint8,uint8,uint8,uint16,uint16,bool,bool,bool,bool,uint8,uint8,uint8,uint8,uint40[3]),bytes32,bytes32)": "8c32f23d",
        "createDoc(uint256,uint256)": "24344f11",
        "docsList()": "4be157d5",
        "finalized()": "b3f05b97",
        "getBookeeper()": "ed211023",
        "getGeneralCounsel()": "103f6edd",
        "getHeadOfDoc(address)": "de154c27",
        "getOwner()": "893d20e8",
        "getRefOfDoc(address)": "289aeb57",
        "grantRole(bytes32,uint256)": "1b6ea9f9",
        "hasRole(bytes32,uint256)": "7e063c5a",
        "init(uint256,address,address,address)": "dc890da9",
        "isRegistered(address)": "c3c5a547",
        "lockContents()": "f045a769",
        "qtyOfDocs()": "ee4b47c1",
        "removeDoc(address)": "d42186fa",
        "renounceRole(bytes32)": "8bb9c5bf",
        "revokeRole(bytes32,uint256)": "19d61ad9",
        "setDirectKeeper(address)": "6be8496f",
        "setGeneralCounsel(uint256)": "4a14beb1",
        "setOwner(uint256)": "8041494e",
        "setRoleAdmin(bytes32,uint256)": "5171ebd4",
        "setStateOfDoc(address,uint8)": "211f5816",
        "setTemplate(address,uint256)": "b70ebcd8",
        "tempReadyFor(uint256)": "8a4640da",
        "template(uint256)": "e71d8758",
        "tempsList()": "309ed9c8"
    },
    "gasEstimates": {
        "creation": {
            "codeDepositCost": "2198200",
            "executionCost": "2346",
            "totalCost": "2200546"
        },
        "external": {
            "abandonRole(bytes32)": "infinite",
            "circulateDoc(address,(uint16,uint8,uint8,uint8,uint16,uint16,bool,bool,bool,bool,uint8,uint8,uint8,uint8,uint40[3]),bytes32,bytes32)": "infinite",
            "createDoc(uint256,uint256)": "infinite",
            "docsList()": "infinite",
            "finalized()": "2394",
            "getBookeeper()": "infinite",
            "getGeneralCounsel()": "infinite",
            "getHeadOfDoc(address)": "infinite",
            "getOwner()": "infinite",
            "getRefOfDoc(address)": "infinite",
            "grantRole(bytes32,uint256)": "infinite",
            "hasRole(bytes32,uint256)": "infinite",
            "init(uint256,address,address,address)": "infinite",
            "isRegistered(address)": "infinite",
            "lockContents()": "infinite",
            "qtyOfDocs()": "infinite",
            "removeDoc(address)": "infinite",
            "renounceRole(bytes32)": "infinite",
            "revokeRole(bytes32,uint256)": "infinite",
            "setDirectKeeper(address)": "infinite",
            "setGeneralCounsel(uint256)": "infinite",
            "setOwner(uint256)": "infinite",
            "setRoleAdmin(bytes32,uint256)": "infinite",
            "setStateOfDoc(address,uint8)": "infinite",
            "setTemplate(address,uint256)": "infinite",
            "tempReadyFor(uint256)": "infinite",
            "template(uint256)": "2521",
            "tempsList()": "infinite"
        }
    }
}