{
    "contractName": "RepoOfDocs",
    "abi": [
        {
            "anonymous": false,
            "inputs": [
                {
                    "indexed": false,
                    "internalType": "uint40",
                    "name": "owner",
                    "type": "uint40"
                },
                {
                    "indexed": false,
                    "internalType": "address",
                    "name": "directKeeper",
                    "type": "address"
                },
                {
                    "indexed": false,
                    "internalType": "address",
                    "name": "regCenter",
                    "type": "address"
                },
                {
                    "indexed": false,
                    "internalType": "address",
                    "name": "generalKeeper",
                    "type": "address"
                }
            ],
            "name": "Init",
            "type": "event"
        },
        {
            "anonymous": false,
            "inputs": [],
            "name": "LockContents",
            "type": "event"
        },
        {
            "anonymous": false,
            "inputs": [
                {
                    "indexed": true,
                    "internalType": "address",
                    "name": "body",
                    "type": "address"
                }
            ],
            "name": "RemoveDoc",
            "type": "event"
        },
        {
            "anonymous": false,
            "inputs": [
                {
                    "indexed": false,
                    "internalType": "address",
                    "name": "keeper",
                    "type": "address"
                }
            ],
            "name": "SetDirectKeeper",
            "type": "event"
        },
        {
            "anonymous": false,
            "inputs": [
                {
                    "indexed": false,
                    "internalType": "uint256",
                    "name": "acct",
                    "type": "uint256"
                }
            ],
            "name": "SetGeneralCounsel",
            "type": "event"
        },
        {
            "anonymous": false,
            "inputs": [
                {
                    "indexed": false,
                    "internalType": "address",
                    "name": "gk",
                    "type": "address"
                }
            ],
            "name": "SetGeneralKeeper",
            "type": "event"
        },
        {
            "anonymous": false,
            "inputs": [
                {
                    "indexed": false,
                    "internalType": "uint256",
                    "name": "acct",
                    "type": "uint256"
                }
            ],
            "name": "SetOwner",
            "type": "event"
        },
        {
            "anonymous": false,
            "inputs": [
                {
                    "indexed": false,
                    "internalType": "address",
                    "name": "rc",
                    "type": "address"
                }
            ],
            "name": "SetRegCenter",
            "type": "event"
        },
        {
            "anonymous": false,
            "inputs": [
                {
                    "indexed": true,
                    "internalType": "address",
                    "name": "temp",
                    "type": "address"
                },
                {
                    "indexed": false,
                    "internalType": "uint256",
                    "name": "typeOfDoc",
                    "type": "uint256"
                }
            ],
            "name": "SetTemplate",
            "type": "event"
        },
        {
            "anonymous": false,
            "inputs": [
                {
                    "indexed": true,
                    "internalType": "address",
                    "name": "body",
                    "type": "address"
                },
                {
                    "indexed": false,
                    "internalType": "uint8",
                    "name": "state",
                    "type": "uint8"
                }
            ],
            "name": "UpdateStateOfDoc",
            "type": "event"
        },
        {
            "inputs": [
                {
                    "internalType": "bytes32",
                    "name": "role",
                    "type": "bytes32"
                }
            ],
            "name": "abandonRole",
            "outputs": [],
            "stateMutability": "nonpayable",
            "type": "function"
        },
        {
            "inputs": [
                {
                    "internalType": "address",
                    "name": "body",
                    "type": "address"
                },
                {
                    "internalType": "uint40",
                    "name": "caller",
                    "type": "uint40"
                },
                {
                    "internalType": "bytes32",
                    "name": "sigHash",
                    "type": "bytes32"
                }
            ],
            "name": "acceptDoc",
            "outputs": [],
            "stateMutability": "nonpayable",
            "type": "function"
        },
        {
            "inputs": [
                {
                    "internalType": "uint40",
                    "name": "acct",
                    "type": "uint40"
                },
                {
                    "internalType": "uint16",
                    "name": "seq",
                    "type": "uint16"
                }
            ],
            "name": "addBlank",
            "outputs": [],
            "stateMutability": "nonpayable",
            "type": "function"
        },
        {
            "inputs": [
                {
                    "internalType": "address",
                    "name": "body",
                    "type": "address"
                },
                {
                    "internalType": "bytes32",
                    "name": "rule",
                    "type": "bytes32"
                },
                {
                    "internalType": "bytes32",
                    "name": "docUrl",
                    "type": "bytes32"
                },
                {
                    "internalType": "bytes32",
                    "name": "docHash",
                    "type": "bytes32"
                }
            ],
            "name": "circulateDoc",
            "outputs": [],
            "stateMutability": "nonpayable",
            "type": "function"
        },
        {
            "inputs": [
                {
                    "internalType": "address",
                    "name": "body",
                    "type": "address"
                }
            ],
            "name": "closingDeadline",
            "outputs": [
                {
                    "internalType": "uint48",
                    "name": "",
                    "type": "uint48"
                }
            ],
            "stateMutability": "view",
            "type": "function"
        },
        {
            "inputs": [
                {
                    "internalType": "uint8",
                    "name": "docType",
                    "type": "uint8"
                },
                {
                    "internalType": "uint40",
                    "name": "creator",
                    "type": "uint40"
                }
            ],
            "name": "createDoc",
            "outputs": [
                {
                    "internalType": "address",
                    "name": "body",
                    "type": "address"
                }
            ],
            "stateMutability": "nonpayable",
            "type": "function"
        },
        {
            "inputs": [],
            "name": "docsList",
            "outputs": [
                {
                    "internalType": "address[]",
                    "name": "",
                    "type": "address[]"
                }
            ],
            "stateMutability": "view",
            "type": "function"
        },
        {
            "inputs": [
                {
                    "internalType": "address",
                    "name": "body",
                    "type": "address"
                }
            ],
            "name": "established",
            "outputs": [
                {
                    "internalType": "bool",
                    "name": "",
                    "type": "bool"
                }
            ],
            "stateMutability": "view",
            "type": "function"
        },
        {
            "inputs": [],
            "name": "finalized",
            "outputs": [
                {
                    "internalType": "bool",
                    "name": "",
                    "type": "bool"
                }
            ],
            "stateMutability": "view",
            "type": "function"
        },
        {
            "inputs": [],
            "name": "getBookeeper",
            "outputs": [
                {
                    "internalType": "address",
                    "name": "",
                    "type": "address"
                }
            ],
            "stateMutability": "view",
            "type": "function"
        },
        {
            "inputs": [],
            "name": "getGeneralCounsel",
            "outputs": [
                {
                    "internalType": "uint40",
                    "name": "",
                    "type": "uint40"
                }
            ],
            "stateMutability": "view",
            "type": "function"
        },
        {
            "inputs": [
                {
                    "internalType": "address",
                    "name": "body",
                    "type": "address"
                }
            ],
            "name": "getHeadOfDoc",
            "outputs": [
                {
                    "components": [
                        {
                            "internalType": "uint8",
                            "name": "docType",
                            "type": "uint8"
                        },
                        {
                            "internalType": "uint40",
                            "name": "creator",
                            "type": "uint40"
                        },
                        {
                            "internalType": "uint48",
                            "name": "createDate",
                            "type": "uint48"
                        },
                        {
                            "internalType": "uint48",
                            "name": "shaExecDeadline",
                            "type": "uint48"
                        },
                        {
                            "internalType": "uint48",
                            "name": "proposeDeadline",
                            "type": "uint48"
                        },
                        {
                            "internalType": "uint8",
                            "name": "state",
                            "type": "uint8"
                        }
                    ],
                    "internalType": "struct IRepoOfDocs.Head",
                    "name": "head",
                    "type": "tuple"
                }
            ],
            "stateMutability": "view",
            "type": "function"
        },
        {
            "inputs": [],
            "name": "getOwner",
            "outputs": [
                {
                    "internalType": "uint40",
                    "name": "",
                    "type": "uint40"
                }
            ],
            "stateMutability": "view",
            "type": "function"
        },
        {
            "inputs": [
                {
                    "internalType": "address",
                    "name": "body",
                    "type": "address"
                }
            ],
            "name": "getRefOfDoc",
            "outputs": [
                {
                    "internalType": "bytes32",
                    "name": "docUrl",
                    "type": "bytes32"
                },
                {
                    "internalType": "bytes32",
                    "name": "docHash",
                    "type": "bytes32"
                }
            ],
            "stateMutability": "view",
            "type": "function"
        },
        {
            "inputs": [
                {
                    "internalType": "bytes32",
                    "name": "role",
                    "type": "bytes32"
                },
                {
                    "internalType": "uint40",
                    "name": "acct",
                    "type": "uint40"
                }
            ],
            "name": "grantRole",
            "outputs": [],
            "stateMutability": "nonpayable",
            "type": "function"
        },
        {
            "inputs": [
                {
                    "internalType": "bytes32",
                    "name": "role",
                    "type": "bytes32"
                },
                {
                    "internalType": "uint40",
                    "name": "acct",
                    "type": "uint40"
                }
            ],
            "name": "hasRole",
            "outputs": [
                {
                    "internalType": "bool",
                    "name": "",
                    "type": "bool"
                }
            ],
            "stateMutability": "view",
            "type": "function"
        },
        {
            "inputs": [
                {
                    "internalType": "uint40",
                    "name": "owner",
                    "type": "uint40"
                },
                {
                    "internalType": "address",
                    "name": "directKeeper",
                    "type": "address"
                },
                {
                    "internalType": "address",
                    "name": "regCenter",
                    "type": "address"
                },
                {
                    "internalType": "address",
                    "name": "generalKeeper",
                    "type": "address"
                }
            ],
            "name": "init",
            "outputs": [],
            "stateMutability": "nonpayable",
            "type": "function"
        },
        {
            "inputs": [
                {
                    "internalType": "address",
                    "name": "body",
                    "type": "address"
                },
                {
                    "internalType": "uint40",
                    "name": "acct",
                    "type": "uint40"
                }
            ],
            "name": "isInitSigner",
            "outputs": [
                {
                    "internalType": "bool",
                    "name": "",
                    "type": "bool"
                }
            ],
            "stateMutability": "view",
            "type": "function"
        },
        {
            "inputs": [
                {
                    "internalType": "address",
                    "name": "body",
                    "type": "address"
                },
                {
                    "internalType": "uint40",
                    "name": "acct",
                    "type": "uint40"
                }
            ],
            "name": "isParty",
            "outputs": [
                {
                    "internalType": "bool",
                    "name": "",
                    "type": "bool"
                }
            ],
            "stateMutability": "view",
            "type": "function"
        },
        {
            "inputs": [
                {
                    "internalType": "address",
                    "name": "body",
                    "type": "address"
                }
            ],
            "name": "isRegistered",
            "outputs": [
                {
                    "internalType": "bool",
                    "name": "",
                    "type": "bool"
                }
            ],
            "stateMutability": "view",
            "type": "function"
        },
        {
            "inputs": [],
            "name": "lockContents",
            "outputs": [],
            "stateMutability": "nonpayable",
            "type": "function"
        },
        {
            "inputs": [
                {
                    "internalType": "address",
                    "name": "body",
                    "type": "address"
                }
            ],
            "name": "parasOfPage",
            "outputs": [
                {
                    "components": [
                        {
                            "internalType": "uint16",
                            "name": "seq",
                            "type": "uint16"
                        },
                        {
                            "internalType": "uint40",
                            "name": "signer",
                            "type": "uint40"
                        },
                        {
                            "internalType": "uint48",
                            "name": "sigDate",
                            "type": "uint48"
                        },
                        {
                            "internalType": "uint64",
                            "name": "blocknumber",
                            "type": "uint64"
                        },
                        {
                            "internalType": "bytes32",
                            "name": "sigHash",
                            "type": "bytes32"
                        }
                    ],
                    "internalType": "struct SigsRepo.Signature",
                    "name": "",
                    "type": "tuple"
                }
            ],
            "stateMutability": "view",
            "type": "function"
        },
        {
            "inputs": [
                {
                    "internalType": "address",
                    "name": "body",
                    "type": "address"
                }
            ],
            "name": "partiesOfDoc",
            "outputs": [
                {
                    "internalType": "uint40[]",
                    "name": "",
                    "type": "uint40[]"
                }
            ],
            "stateMutability": "view",
            "type": "function"
        },
        {
            "inputs": [
                {
                    "internalType": "address",
                    "name": "body",
                    "type": "address"
                }
            ],
            "name": "pushToNextState",
            "outputs": [],
            "stateMutability": "nonpayable",
            "type": "function"
        },
        {
            "inputs": [],
            "name": "qtyOfDocs",
            "outputs": [
                {
                    "internalType": "uint256",
                    "name": "",
                    "type": "uint256"
                }
            ],
            "stateMutability": "view",
            "type": "function"
        },
        {
            "inputs": [
                {
                    "internalType": "address",
                    "name": "body",
                    "type": "address"
                }
            ],
            "name": "qtyOfParties",
            "outputs": [
                {
                    "internalType": "uint256",
                    "name": "",
                    "type": "uint256"
                }
            ],
            "stateMutability": "view",
            "type": "function"
        },
        {
            "inputs": [
                {
                    "internalType": "uint40",
                    "name": "acct",
                    "type": "uint40"
                },
                {
                    "internalType": "uint16",
                    "name": "seq",
                    "type": "uint16"
                }
            ],
            "name": "removeBlank",
            "outputs": [],
            "stateMutability": "nonpayable",
            "type": "function"
        },
        {
            "inputs": [
                {
                    "internalType": "address",
                    "name": "body",
                    "type": "address"
                }
            ],
            "name": "removeDoc",
            "outputs": [],
            "stateMutability": "nonpayable",
            "type": "function"
        },
        {
            "inputs": [
                {
                    "internalType": "bytes32",
                    "name": "role",
                    "type": "bytes32"
                }
            ],
            "name": "renounceRole",
            "outputs": [],
            "stateMutability": "nonpayable",
            "type": "function"
        },
        {
            "inputs": [
                {
                    "internalType": "bytes32",
                    "name": "role",
                    "type": "bytes32"
                },
                {
                    "internalType": "uint40",
                    "name": "acct",
                    "type": "uint40"
                }
            ],
            "name": "revokeRole",
            "outputs": [],
            "stateMutability": "nonpayable",
            "type": "function"
        },
        {
            "inputs": [
                {
                    "internalType": "uint48",
                    "name": "deadline",
                    "type": "uint48"
                }
            ],
            "name": "setClosingDeadline",
            "outputs": [],
            "stateMutability": "nonpayable",
            "type": "function"
        },
        {
            "inputs": [
                {
                    "internalType": "address",
                    "name": "keeper",
                    "type": "address"
                }
            ],
            "name": "setDirectKeeper",
            "outputs": [],
            "stateMutability": "nonpayable",
            "type": "function"
        },
        {
            "inputs": [
                {
                    "internalType": "uint40",
                    "name": "acct",
                    "type": "uint40"
                }
            ],
            "name": "setGeneralCounsel",
            "outputs": [],
            "stateMutability": "nonpayable",
            "type": "function"
        },
        {
            "inputs": [
                {
                    "internalType": "uint40",
                    "name": "acct",
                    "type": "uint40"
                }
            ],
            "name": "setOwner",
            "outputs": [],
            "stateMutability": "nonpayable",
            "type": "function"
        },
        {
            "inputs": [
                {
                    "internalType": "bytes32",
                    "name": "role",
                    "type": "bytes32"
                },
                {
                    "internalType": "uint40",
                    "name": "acct",
                    "type": "uint40"
                }
            ],
            "name": "setRoleAdmin",
            "outputs": [],
            "stateMutability": "nonpayable",
            "type": "function"
        },
        {
            "inputs": [
                {
                    "internalType": "uint48",
                    "name": "deadline",
                    "type": "uint48"
                }
            ],
            "name": "setSigDeadline",
            "outputs": [],
            "stateMutability": "nonpayable",
            "type": "function"
        },
        {
            "inputs": [
                {
                    "internalType": "address",
                    "name": "body",
                    "type": "address"
                },
                {
                    "internalType": "uint8",
                    "name": "typeOfDoc",
                    "type": "uint8"
                }
            ],
            "name": "setTemplate",
            "outputs": [],
            "stateMutability": "nonpayable",
            "type": "function"
        },
        {
            "inputs": [
                {
                    "internalType": "address",
                    "name": "body",
                    "type": "address"
                }
            ],
            "name": "sigDeadline",
            "outputs": [
                {
                    "internalType": "uint48",
                    "name": "",
                    "type": "uint48"
                }
            ],
            "stateMutability": "view",
            "type": "function"
        },
        {
            "inputs": [
                {
                    "internalType": "address",
                    "name": "body",
                    "type": "address"
                },
                {
                    "internalType": "uint16",
                    "name": "seq",
                    "type": "uint16"
                },
                {
                    "internalType": "uint40",
                    "name": "acct",
                    "type": "uint40"
                }
            ],
            "name": "sigOfDeal",
            "outputs": [
                {
                    "components": [
                        {
                            "internalType": "uint16",
                            "name": "seq",
                            "type": "uint16"
                        },
                        {
                            "internalType": "uint40",
                            "name": "signer",
                            "type": "uint40"
                        },
                        {
                            "internalType": "uint48",
                            "name": "sigDate",
                            "type": "uint48"
                        },
                        {
                            "internalType": "uint64",
                            "name": "blocknumber",
                            "type": "uint64"
                        },
                        {
                            "internalType": "bytes32",
                            "name": "sigHash",
                            "type": "bytes32"
                        }
                    ],
                    "internalType": "struct SigsRepo.Signature",
                    "name": "",
                    "type": "tuple"
                }
            ],
            "stateMutability": "view",
            "type": "function"
        },
        {
            "inputs": [
                {
                    "internalType": "address",
                    "name": "body",
                    "type": "address"
                },
                {
                    "internalType": "uint40",
                    "name": "acct",
                    "type": "uint40"
                }
            ],
            "name": "sigOfDoc",
            "outputs": [
                {
                    "components": [
                        {
                            "internalType": "uint16",
                            "name": "seq",
                            "type": "uint16"
                        },
                        {
                            "internalType": "uint40",
                            "name": "signer",
                            "type": "uint40"
                        },
                        {
                            "internalType": "uint48",
                            "name": "sigDate",
                            "type": "uint48"
                        },
                        {
                            "internalType": "uint64",
                            "name": "blocknumber",
                            "type": "uint64"
                        },
                        {
                            "internalType": "bytes32",
                            "name": "sigHash",
                            "type": "bytes32"
                        }
                    ],
                    "internalType": "struct SigsRepo.Signature",
                    "name": "",
                    "type": "tuple"
                }
            ],
            "stateMutability": "view",
            "type": "function"
        },
        {
            "inputs": [
                {
                    "internalType": "address",
                    "name": "body",
                    "type": "address"
                },
                {
                    "internalType": "uint16",
                    "name": "seq",
                    "type": "uint16"
                },
                {
                    "internalType": "uint40",
                    "name": "caller",
                    "type": "uint40"
                },
                {
                    "internalType": "bytes32",
                    "name": "sigHash",
                    "type": "bytes32"
                }
            ],
            "name": "signDeal",
            "outputs": [],
            "stateMutability": "nonpayable",
            "type": "function"
        },
        {
            "inputs": [
                {
                    "internalType": "address",
                    "name": "body",
                    "type": "address"
                },
                {
                    "internalType": "uint40",
                    "name": "caller",
                    "type": "uint40"
                },
                {
                    "internalType": "bytes32",
                    "name": "sigHash",
                    "type": "bytes32"
                }
            ],
            "name": "signDoc",
            "outputs": [],
            "stateMutability": "nonpayable",
            "type": "function"
        },
        {
            "inputs": [
                {
                    "internalType": "uint8",
                    "name": "typeOfDoc",
                    "type": "uint8"
                }
            ],
            "name": "template",
            "outputs": [
                {
                    "internalType": "address",
                    "name": "",
                    "type": "address"
                }
            ],
            "stateMutability": "view",
            "type": "function"
        }
    ],
    "bytecode": "608060405234801561001057600080fd5b50614222806100206000396000f3fe608060405234801561001057600080fd5b50600436106102695760003560e01c8063893d20e811610151578063d42186fa116100c3578063e024966711610087578063e024966714610687578063ea8457f81461069a578063ed211023146106ad578063ee4b47c1146106b5578063f045a769146106bd578063f43323ee146106c557600080fd5b8063d42186fa146105b2578063d6336277146105c5578063d6876305146105e5578063dd4578aa146105f8578063de154c271461060b57600080fd5b8063a95027b311610115578063a95027b31461053f578063aa59657614610552578063ad74d2a514610565578063b3f05b9714610578578063c3c5a5471461058c578063cbce7c441461059f57600080fd5b8063893d20e8146104c65780638bb9c5bf146104ce578063993d4de3146104e1578063a113062d1461050b578063a1cb43811461051e57600080fd5b80634efd15f2116101ea578063746e421f116101ae578063746e421f14610454578063765f54a71461046757806379b2ec121461047a5780637ba706e81461048d578063821ee8ea146104a0578063891613e7146104b357600080fd5b80634efd15f2146103c45780635c049642146104085780636be8496f1461041b5780636f2947951461042e578063740998151461044157600080fd5b80633178a9a9116102315780633178a9a9146103045780633ced51a5146103175780633da9a600146103895780634794be071461039c5780634be157d5146103af57600080fd5b8063103f6edd1461026e57806316dc517e1461029157806317c51fec146102a6578063289aeb57146102b957806329ce5888146102e1575b600080fd5b6102766106d8565b60405164ffffffffff90911681526020015b60405180910390f35b6102a461029f3660046139ca565b610764565b005b6102a46102b43660046139ca565b6107fa565b6102cc6102c7366004613a0f565b61081f565b60408051928352602083019190915201610288565b6102f46102ef366004613a2c565b6108fe565b6040519015158152602001610288565b6102a4610312366004613a5a565b6109ec565b61032a610325366004613a87565b610be6565b6040516102889190600060a08201905061ffff835116825264ffffffffff602084015116602083015265ffffffffffff604084015116604083015267ffffffffffffffff60608401511660608301526080830151608083015292915050565b6102a4610397366004613ad2565b610d74565b6102a46103aa366004613aff565b610e87565b6103b7610f88565b6040516102889190613b1c565b6103f06103d2366004613b7f565b60ff166000908152600460205260409020546001600160a01b031690565b6040516001600160a01b039091168152602001610288565b6102f4610416366004613a2c565b611012565b6102a4610429366004613a0f565b611173565b6102a461043c366004613b9a565b611225565b6102a461044f3660046139ca565b611353565b61032a610462366004613a2c565b611378565b6102a4610475366004613bdb565b6114fa565b6102f46104883660046139ca565b6116b0565b6102a461049b366004613a5a565b611751565b6102a46104ae366004613c2c565b611944565b6103f06104c1366004613c88565b611a34565b610276611d4b565b6102a46104dc366004613ad2565b611d86565b6104f46104ef366004613a0f565b611ddf565b60405165ffffffffffff9091168152602001610288565b6102f4610519366004613a0f565b611ec6565b61053161052c366004613a0f565b611fd8565b604051908152602001610288565b6102a461054d366004613a0f565b612129565b6102a4610560366004613ca4565b61233e565b61032a610573366004613a0f565b61244c565b60028054600160f01b900460ff16146102f4565b6102f461059a366004613a0f565b6125ba565b6104f46105ad366004613a0f565b61264d565b6102a46105c0366004613a0f565b612736565b6105d86105d3366004613a0f565b61296c565b6040516102889190613cd9565b6102a46105f3366004613d18565b612ac1565b6102a4610606366004613d18565b612bff565b61061e610619366004613a0f565b612d09565b6040516102889190600060c08201905060ff835116825264ffffffffff6020840151166020830152604083015165ffffffffffff8082166040850152806060860151166060850152806080860151166080850152505060ff60a08401511660a083015292915050565b6102a4610695366004613d46565b612e68565b6102a46106a8366004613aff565b61319c565b6103f061329d565b610531613323565b6102a46133a9565b6102a46106d3366004613b9a565b6135c8565b60405163e8c0cc1d60e01b81526002600482015260009073__$364aad554dc80380f414546becdd2c1584$__9063e8c0cc1d906024015b60206040518083038186803b15801561072757600080fd5b505af415801561073b573d6000803e3d6000fd5b505050506040513d601f19601f8201168201806040525081019061075f9190613d81565b905090565b73__$364aad554dc80380f414546becdd2c1584$__63427abff460028461078961376b565b6040516001600160e01b031960e086901b1681526004810193909352602483019190915264ffffffffff9081166044830152841660648201526084015b60006040518083038186803b1580156107de57600080fd5b505af41580156107f2573d6000803e3d6000fd5b505050505050565b73__$364aad554dc80380f414546becdd2c1584$__638ce1584560028461078961376b565b60405163f698b0f160e01b81526000908190839073__$8c1a4844a0a0988ea2454cf87145a95df1$__9063f698b0f190610860906006908590600401613d9e565b60206040518083038186803b15801561087857600080fd5b505af415801561088c573d6000803e3d6000fd5b505050506040513d601f19601f820116820180604052508101906108b09190613db5565b6108d55760405162461bcd60e51b81526004016108cc90613dd7565b60405180910390fd5b5050506001600160a01b0316600090815260056020526040902060018101546002909101549091565b60405163f698b0f160e01b8152600090839073__$8c1a4844a0a0988ea2454cf87145a95df1$__9063f698b0f19061093d906006908590600401613d9e565b60206040518083038186803b15801561095557600080fd5b505af4158015610969573d6000803e3d6000fd5b505050506040513d601f19601f8201168201806040525081019061098d9190613db5565b6109a95760405162461bcd60e51b81526004016108cc90613dd7565b6001600160a01b038416600090815260056020908152604080832064ffffffffff8088168086526003909201909352922054620100009004161491505092915050565b604051633b11adbf60e21b815273__$364aad554dc80380f414546becdd2c1584$__9063ec46b6fc90610a26906002903390600401613d9e565b60206040518083038186803b158015610a3e57600080fd5b505af4158015610a52573d6000803e3d6000fd5b505050506040513d601f19601f82011682018060405250810190610a769190613db5565b80610b1b575073__$364aad554dc80380f414546becdd2c1584$__63fe2710866002610aa061376b565b6040516001600160e01b031960e085901b168152600481019290925264ffffffffff16602482015260440160206040518083038186803b158015610ae357600080fd5b505af4158015610af7573d6000803e3d6000fd5b505050506040513d601f19601f82011682018060405250810190610b1b9190613db5565b610b375760405162461bcd60e51b81526004016108cc90613e0e565b604051632725ebef60e21b81526002600482015264ffffffffff8216602482015273__$364aad554dc80380f414546becdd2c1584$__90639c97afbc9060440160006040518083038186803b158015610b8f57600080fd5b505af4158015610ba3573d6000803e3d6000fd5b505060405164ffffffffff841681527ff2735f34b69be1e6342dea95f9162f84d0db925fab655ca9f1f312ac8cbfc99d925060200190505b60405180910390a150565b6040805160a081018252600080825260208201819052818301819052606082018190526080820152905163f698b0f160e01b8152849073__$8c1a4844a0a0988ea2454cf87145a95df1$__9063f698b0f190610c49906006908590600401613d9e565b60206040518083038186803b158015610c6157600080fd5b505af4158015610c75573d6000803e3d6000fd5b505050506040513d601f19601f82011682018060405250810190610c999190613db5565b610cb55760405162461bcd60e51b81526004016108cc90613dd7565b6001600160a01b03851660009081526005602052604090819020905163d0e216db60e01b81526003909101600482015261ffff8516602482015264ffffffffff8416604482015273__$47b88465a20692378cf12e8e0c338f01dd$__9063d0e216db9060640160a06040518083038186803b158015610d3357600080fd5b505af4158015610d47573d6000803e3d6000fd5b505050506040513d601f19601f82011682018060405250810190610d6b9190613eab565b95945050505050565b604051633b11adbf60e21b815273__$364aad554dc80380f414546becdd2c1584$__9063ec46b6fc90610dae906002903390600401613d9e565b60206040518083038186803b158015610dc657600080fd5b505af4158015610dda573d6000803e3d6000fd5b505050506040513d601f19601f82011682018060405250810190610dfe9190613db5565b610e1a5760405162461bcd60e51b81526004016108cc90613f4e565b60405163cc99e11b60e01b8152600260048201526024810182905273__$364aad554dc80380f414546becdd2c1584$__9063cc99e11b9060440160006040518083038186803b158015610e6c57600080fd5b505af4158015610e80573d6000803e3d6000fd5b5050505050565b60405163f698b0f160e01b8152339073__$8c1a4844a0a0988ea2454cf87145a95df1$__9063f698b0f190610ec3906006908590600401613d9e565b60206040518083038186803b158015610edb57600080fd5b505af4158015610eef573d6000803e3d6000fd5b505050506040513d601f19601f82011682018060405250810190610f139190613db5565b610f2f5760405162461bcd60e51b81526004016108cc90613dd7565b33600090815260056020526040908190209051630ac8cc2160e01b81526003909101600482015265ffffffffffff8316602482015273__$47b88465a20692378cf12e8e0c338f01dd$__90630ac8cc21906044016107c6565b604051638f65372b60e01b81526006600482015260609073__$8c1a4844a0a0988ea2454cf87145a95df1$__90638f65372b9060240160006040518083038186803b158015610fd657600080fd5b505af4158015610fea573d6000803e3d6000fd5b505050506040513d6000823e601f3d908101601f1916820160405261075f9190810190613fb8565b60405163f698b0f160e01b8152600090839073__$8c1a4844a0a0988ea2454cf87145a95df1$__9063f698b0f190611051906006908590600401613d9e565b60206040518083038186803b15801561106957600080fd5b505af415801561107d573d6000803e3d6000fd5b505050506040513d601f19601f820116820180604052508101906110a19190613db5565b6110bd5760405162461bcd60e51b81526004016108cc90613dd7565b6001600160a01b038416600090815260056020526040908190209051633f5f77cd60e01b815260049182019181019190915264ffffffffff8416602482015273__$8c1a4844a0a0988ea2454cf87145a95df1$__90633f5f77cd9060440160206040518083038186803b15801561113357600080fd5b505af4158015611147573d6000803e3d6000fd5b505050506040513d601f19601f8201168201806040525081019061116b9190613db5565b949350505050565b604051630f07232560e01b8152600260048201523360248201526001600160a01b038216604482015273__$364aad554dc80380f414546becdd2c1584$__90630f0723259060640160006040518083038186803b1580156111d357600080fd5b505af41580156111e7573d6000803e3d6000fd5b50506040516001600160a01b03841681527fe435cbeab64e4eae6497b9d8289704bd709d624a80704ef3ca9af777534bc6ec92506020019050610bdb565b604051633b11adbf60e21b815273__$364aad554dc80380f414546becdd2c1584$__9063ec46b6fc9061125f906002903390600401613d9e565b60206040518083038186803b15801561127757600080fd5b505af415801561128b573d6000803e3d6000fd5b505050506040513d601f19601f820116820180604052508101906112af9190613db5565b6112cb5760405162461bcd60e51b81526004016108cc90613f4e565b6001600160a01b038316600090815260056020526040902054839060ff600160c01b909104166002146113405760405162461bcd60e51b815260206004820152601e60248201527f524f442e6d642e6f66633a20446f63206e6f742043697263756c61746564000060448201526064016108cc565b61134d84600085856114fa565b50505050565b73__$364aad554dc80380f414546becdd2c1584$__63d2a15ba760028461078961376b565b6040805160a081018252600080825260208201819052818301819052606082018190526080820152905163f698b0f160e01b8152839073__$8c1a4844a0a0988ea2454cf87145a95df1$__9063f698b0f1906113db906006908590600401613d9e565b60206040518083038186803b1580156113f357600080fd5b505af4158015611407573d6000803e3d6000fd5b505050506040513d601f19601f8201168201806040525081019061142b9190613db5565b6114475760405162461bcd60e51b81526004016108cc90613dd7565b6001600160a01b038416600090815260056020526040808220905163d0e216db60e01b815260039091016004820152602481019190915264ffffffffff8416604482015273__$47b88465a20692378cf12e8e0c338f01dd$__9063d0e216db9060640160a06040518083038186803b1580156114c257600080fd5b505af41580156114d6573d6000803e3d6000fd5b505050506040513d601f19601f8201168201806040525081019061116b9190613eab565b6001600160a01b038416600090815260056020526040902054849060ff600160c01b9091041660021461156f5760405162461bcd60e51b815260206004820152601e60248201527f524f442e6d642e6f66633a20446f63206e6f742043697263756c61746564000060448201526064016108cc565b604051633b11adbf60e21b815273__$364aad554dc80380f414546becdd2c1584$__9063ec46b6fc906115a9906002903390600401613d9e565b60206040518083038186803b1580156115c157600080fd5b505af41580156115d5573d6000803e3d6000fd5b505050506040513d601f19601f820116820180604052508101906115f99190613db5565b6116155760405162461bcd60e51b81526004016108cc90613f4e565b33600090815260056020526040908190209051638770fa4760e01b81526003909101600482015261ffff8516602482015264ffffffffff841660448201526064810183905273__$47b88465a20692378cf12e8e0c338f01dd$__90638770fa479060840160006040518083038186803b15801561169157600080fd5b505af41580156116a5573d6000803e3d6000fd5b505050505050505050565b604051632a3be56b60e21b8152600260048201526024810183905264ffffffffff8216604482015260009073__$364aad554dc80380f414546becdd2c1584$__9063a8ef95ac9060640160206040518083038186803b15801561171257600080fd5b505af4158015611726573d6000803e3d6000fd5b505050506040513d601f19601f8201168201806040525081019061174a9190613db5565b9392505050565b604051633b11adbf60e21b815273__$364aad554dc80380f414546becdd2c1584$__9063ec46b6fc9061178b906002903390600401613d9e565b60206040518083038186803b1580156117a357600080fd5b505af41580156117b7573d6000803e3d6000fd5b505050506040513d601f19601f820116820180604052508101906117db9190613db5565b80611880575073__$364aad554dc80380f414546becdd2c1584$__63fe271086600261180561376b565b6040516001600160e01b031960e085901b168152600481019290925264ffffffffff16602482015260440160206040518083038186803b15801561184857600080fd5b505af415801561185c573d6000803e3d6000fd5b505050506040513d601f19601f820116820180604052508101906118809190613db5565b61189c5760405162461bcd60e51b81526004016108cc90613e0e565b60405163b6e38a2960e01b81526002600482015264ffffffffff8216602482015273__$364aad554dc80380f414546becdd2c1584$__9063b6e38a299060440160006040518083038186803b1580156118f457600080fd5b505af4158015611908573d6000803e3d6000fd5b505060405164ffffffffff841681527f8b6f40f36b4ae8cc5f55e895036457c43da4ab1f80f58c46f5ff0d72a650033b92506020019050610bdb565b61194d826137c5565b61195681613874565b604051636cdd0edf60e11b81526002600482015264ffffffffff851660248201526001600160a01b038416604482015273__$364aad554dc80380f414546becdd2c1584$__9063d9ba1dbe9060640160006040518083038186803b1580156119bd57600080fd5b505af41580156119d1573d6000803e3d6000fd5b50506040805164ffffffffff881681526001600160a01b038781166020830152868116828401528516606082015290517f4d18c0021addc919105cb1ed2c11ad241e859cc1d9e77d4ee1d9ca2cdc1f255b9350908190036080019150a150505050565b604051633b11adbf60e21b815260009073__$364aad554dc80380f414546becdd2c1584$__9063ec46b6fc90611a71906002903390600401613d9e565b60206040518083038186803b158015611a8957600080fd5b505af4158015611a9d573d6000803e3d6000fd5b505050506040513d601f19601f82011682018060405250810190611ac19190613db5565b611add5760405162461bcd60e51b81526004016108cc90613f4e565b60ff831660009081526004602052604090205483906001600160a01b0316611b475760405162461bcd60e51b815260206004820152601b60248201527f524f442e6d642e74723a2074656d706c617465204e4f5420736574000000000060448201526064016108cc565b60ff8416600090815260046020526040812054611b6c906001600160a01b031661392b565b604051633e244cf360e01b815290915073__$8c1a4844a0a0988ea2454cf87145a95df1$__90633e244cf390611ba9906006908590600401613d9e565b60206040518083038186803b158015611bc157600080fd5b505af4158015611bd5573d6000803e3d6000fd5b505050506040513d601f19601f82011682018060405250810190611bf99190613db5565b15611d43579150816001600160a01b0381167f7d25780785c2b2fefad30c6603980e64e6005c311412119d7e4702f602fd730a600160405160ff909116815260200160405180910390a26040805160c08101825260ff878116825264ffffffffff878116602080850191825265ffffffffffff42811686880190815260006060880181815260808901828152600160a08b019081526001600160a01b038f16845260059096529990912097518854955192519151995194518816600160c01b0260ff60c01b19958516600160901b029590951666ffffffffffffff60901b199a8516600160601b0265ffffffffffff60601b19939095166601000000000000029290921671ffffffffffffffffffffffff00000000000019939097166101000265ffffffffffff199096169716969096179390931792909216929092171793909316179190911790555b505092915050565b60405163987ad15360e01b81526002600482015260009073__$364aad554dc80380f414546becdd2c1584$__9063987ad1539060240161070f565b6000611d9061376b565b604051637963595360e11b8152600260048201526024810184905264ffffffffff8216604482015290915073__$364aad554dc80380f414546becdd2c1584$__9063f2c6b2a6906064016107c6565b60405163f698b0f160e01b8152600090829073__$8c1a4844a0a0988ea2454cf87145a95df1$__9063f698b0f190611e1e906006908590600401613d9e565b60206040518083038186803b158015611e3657600080fd5b505af4158015611e4a573d6000803e3d6000fd5b505050506040513d601f19601f82011682018060405250810190611e6e9190613db5565b611e8a5760405162461bcd60e51b81526004016108cc90613dd7565b50506001600160a01b03166000908152600560209081526040808320838052600301909152902054600160681b900467ffffffffffffffff1690565b60405163f698b0f160e01b8152600090829073__$8c1a4844a0a0988ea2454cf87145a95df1$__9063f698b0f190611f05906006908590600401613d9e565b60206040518083038186803b158015611f1d57600080fd5b505af4158015611f31573d6000803e3d6000fd5b505050506040513d601f19601f82011682018060405250810190611f559190613db5565b611f715760405162461bcd60e51b81526004016108cc90613dd7565b6001600160a01b0383166000908152600560205260409081902090516318a7841360e11b81526003909101600482015273__$47b88465a20692378cf12e8e0c338f01dd$__9063314f08269060240160206040518083038186803b15801561171257600080fd5b60405163f698b0f160e01b8152600090829073__$8c1a4844a0a0988ea2454cf87145a95df1$__9063f698b0f190612017906006908590600401613d9e565b60206040518083038186803b15801561202f57600080fd5b505af4158015612043573d6000803e3d6000fd5b505050506040513d601f19601f820116820180604052508101906120679190613db5565b6120835760405162461bcd60e51b81526004016108cc90613dd7565b6001600160a01b03831660009081526005602052604090819020905163c2b46a8560e01b815273__$8c1a4844a0a0988ea2454cf87145a95df1$__9163c2b46a85916120d9916004908101910190815260200190565b60206040518083038186803b1580156120f157600080fd5b505af4158015612105573d6000803e3d6000fd5b505050506040513d601f19601f8201168201806040525081019061174a9190614057565b60405163f698b0f160e01b8152819073__$8c1a4844a0a0988ea2454cf87145a95df1$__9063f698b0f190612165906006908590600401613d9e565b60206040518083038186803b15801561217d57600080fd5b505af4158015612191573d6000803e3d6000fd5b505050506040513d601f19601f820116820180604052508101906121b59190613db5565b6121d15760405162461bcd60e51b81526004016108cc90613dd7565b6001546040516335d2155560e11b81523360048201526001600160a01b0390911690636ba42aaa9060240160206040518083038186803b15801561221457600080fd5b505afa158015612228573d6000803e3d6000fd5b505050506040513d601f19601f8201168201806040525081019061224c9190613db5565b61228c5760405162461bcd60e51b815260206004820152601160248201527020a19737b59d103737ba1025b2b2b832b960791b60448201526064016108cc565b6001600160a01b0382166000818152600560205260409020547f7d25780785c2b2fefad30c6603980e64e6005c311412119d7e4702f602fd730a906122dc90600160c01b900460ff166001614086565b60405160ff909116815260200160405180910390a26001600160a01b03821660009081526005602052604090208054600160c01b900460ff16906018612321836140ab565b91906101000a81548160ff021916908360ff160217905550505050565b604051633b11adbf60e21b815273__$364aad554dc80380f414546becdd2c1584$__9063ec46b6fc90612378906002903390600401613d9e565b60206040518083038186803b15801561239057600080fd5b505af41580156123a4573d6000803e3d6000fd5b505050506040513d601f19601f820116820180604052508101906123c89190613db5565b6123e45760405162461bcd60e51b81526004016108cc90613f4e565b60ff811660008181526004602090815260409182902080546001600160a01b0319166001600160a01b038716908117909155915192835290917f69e0d9bafb5046296417aaeb6e5f2d326263f2c4211bc67a7d7fa7f03b0e4373910160405180910390a25050565b6040805160a081018252600080825260208201819052818301819052606082018190526080820152905163f698b0f160e01b8152829073__$8c1a4844a0a0988ea2454cf87145a95df1$__9063f698b0f1906124af906006908590600401613d9e565b60206040518083038186803b1580156124c757600080fd5b505af41580156124db573d6000803e3d6000fd5b505050506040513d601f19601f820116820180604052508101906124ff9190613db5565b61251b5760405162461bcd60e51b81526004016108cc90613dd7565b6001600160a01b0383166000908152600560205260409081902090516372f2266760e11b81526003909101600482015273__$47b88465a20692378cf12e8e0c338f01dd$__9063e5e44cce9060240160a06040518083038186803b15801561258257600080fd5b505af4158015612596573d6000803e3d6000fd5b505050506040513d601f19601f8201168201806040525081019061174a9190613eab565b60405163f698b0f160e01b815260009073__$8c1a4844a0a0988ea2454cf87145a95df1$__9063f698b0f1906125f7906006908690600401613d9e565b60206040518083038186803b15801561260f57600080fd5b505af4158015612623573d6000803e3d6000fd5b505050506040513d601f19601f820116820180604052508101906126479190613db5565b92915050565b60405163f698b0f160e01b8152600090829073__$8c1a4844a0a0988ea2454cf87145a95df1$__9063f698b0f19061268c906006908590600401613d9e565b60206040518083038186803b1580156126a457600080fd5b505af41580156126b8573d6000803e3d6000fd5b505050506040513d601f19601f820116820180604052508101906126dc9190613db5565b6126f85760405162461bcd60e51b81526004016108cc90613dd7565b50506001600160a01b03166000908152600560209081526040808320838052600301909152902054670100000000000000900465ffffffffffff1690565b604051633b11adbf60e21b815273__$364aad554dc80380f414546becdd2c1584$__9063ec46b6fc90612770906002903390600401613d9e565b60206040518083038186803b15801561278857600080fd5b505af415801561279c573d6000803e3d6000fd5b505050506040513d601f19601f820116820180604052508101906127c09190613db5565b6127dc5760405162461bcd60e51b81526004016108cc90613f4e565b6001600160a01b038116600090815260056020526040902054819060ff600160c01b909104166001146128515760405162461bcd60e51b815260206004820152601b60248201527f524f442e6d642e6f66703a20646f63206e6f742070656e64696e67000000000060448201526064016108cc565b604051636ea2751560e01b815273__$8c1a4844a0a0988ea2454cf87145a95df1$__90636ea275159061288b906006908690600401613d9e565b60206040518083038186803b1580156128a357600080fd5b505af41580156128b7573d6000803e3d6000fd5b505050506040513d601f19601f820116820180604052508101906128db9190613db5565b15612968576040516001600160a01b038316907f05633b380cd1dd8bb1af7cbbf29e862857a3f147da66cbb23bdad8f7e527830b90600090a26001600160a01b038216600090815260056020526040812080546001600160c81b031916815560018101829055600281018290559060038201816004840181818161295f828261397d565b50505050505050505b5050565b60405163f698b0f160e01b8152606090829073__$8c1a4844a0a0988ea2454cf87145a95df1$__9063f698b0f1906129ab906006908590600401613d9e565b60206040518083038186803b1580156129c357600080fd5b505af41580156129d7573d6000803e3d6000fd5b505050506040513d601f19601f820116820180604052508101906129fb9190613db5565b612a175760405162461bcd60e51b81526004016108cc90613dd7565b6001600160a01b038316600090815260056020526040908190209051639857dfd560e01b815273__$8c1a4844a0a0988ea2454cf87145a95df1$__91639857dfd591612a6d916004908101910190815260200190565b60006040518083038186803b158015612a8557600080fd5b505af4158015612a99573d6000803e3d6000fd5b505050506040513d6000823e601f3d908101601f1916820160405261174a91908101906140cb565b60405163f698b0f160e01b8152339073__$8c1a4844a0a0988ea2454cf87145a95df1$__9063f698b0f190612afd906006908590600401613d9e565b60206040518083038186803b158015612b1557600080fd5b505af4158015612b29573d6000803e3d6000fd5b505050506040513d601f19601f82011682018060405250810190612b4d9190613db5565b612b695760405162461bcd60e51b81526004016108cc90613dd7565b33600090815260056020526040908190209051600162a23d0760e01b031981526003909101600482015261ffff8316602482015264ffffffffff8416604482015273__$47b88465a20692378cf12e8e0c338f01dd$__9063ff5dc2f9906064015b60006040518083038186803b158015612be257600080fd5b505af4158015612bf6573d6000803e3d6000fd5b50505050505050565b60405163f698b0f160e01b8152339073__$8c1a4844a0a0988ea2454cf87145a95df1$__9063f698b0f190612c3b906006908590600401613d9e565b60206040518083038186803b158015612c5357600080fd5b505af4158015612c67573d6000803e3d6000fd5b505050506040513d601f19601f82011682018060405250810190612c8b9190613db5565b612ca75760405162461bcd60e51b81526004016108cc90613dd7565b3360009081526005602052604090819020905163f4e846c760e01b81526003909101600482015261ffff8316602482015264ffffffffff8416604482015273__$47b88465a20692378cf12e8e0c338f01dd$__9063f4e846c790606401612bca565b6040805160c081018252600080825260208201819052818301819052606082018190526080820181905260a0820152905163f698b0f160e01b8152829073__$8c1a4844a0a0988ea2454cf87145a95df1$__9063f698b0f190612d73906006908590600401613d9e565b60206040518083038186803b158015612d8b57600080fd5b505af4158015612d9f573d6000803e3d6000fd5b505050506040513d601f19601f82011682018060405250810190612dc39190613db5565b612ddf5760405162461bcd60e51b81526004016108cc90613dd7565b50506001600160a01b0316600090815260056020908152604091829020825160c081018452905460ff808216835264ffffffffff6101008304169383019390935265ffffffffffff66010000000000008204811694830194909452600160601b810484166060830152600160901b81049093166080820152600160c01b9092041660a082015290565b604051633b11adbf60e21b815273__$364aad554dc80380f414546becdd2c1584$__9063ec46b6fc90612ea2906002903390600401613d9e565b60206040518083038186803b158015612eba57600080fd5b505af4158015612ece573d6000803e3d6000fd5b505050506040513d601f19601f82011682018060405250810190612ef29190613db5565b612f0e5760405162461bcd60e51b81526004016108cc90613f4e565b6001600160a01b038416600090815260056020526040902054849060ff600160c01b90910416600114612f835760405162461bcd60e51b815260206004820152601b60248201527f524f442e6d642e6f66703a20646f63206e6f742070656e64696e67000000000060448201526064016108cc565b604051600281526001600160a01b038616907f7d25780785c2b2fefad30c6603980e64e6005c311412119d7e4702f602fd730a9060200160405180910390a26001600160a01b03851660009081526005602052604080822090516362ce996560e11b81526004810187905290919073__$94c94c1f27eaba30857c7d0c37f90b5581$__9063c59d32ca9060240160206040518083038186803b15801561302857600080fd5b505af415801561303c573d6000803e3d6000fd5b505050506040513d601f19601f82011682018060405250810190613060919061415a565b604051631aef24a760e01b81526004810188905290915060009073__$94c94c1f27eaba30857c7d0c37f90b5581$__90631aef24a79060240160206040518083038186803b1580156130b157600080fd5b505af41580156130c5573d6000803e3d6000fd5b505050506040513d601f19601f820116820180604052508101906130e9919061415a565b90506130f88262015180614177565b61310290426141a5565b835465ffffffffffff91909116600160601b0265ffffffffffff60601b199091161783556131338162015180614177565b835461314e9190600160601b900465ffffffffffff166141a5565b8354600185019790975560028401959095555050600160c11b66ffffffffffffff60901b1990941665ffffffffffff909316600160901b0260ff60c01b191692909217929092179055505050565b60405163f698b0f160e01b8152339073__$8c1a4844a0a0988ea2454cf87145a95df1$__9063f698b0f1906131d8906006908590600401613d9e565b60206040518083038186803b1580156131f057600080fd5b505af4158015613204573d6000803e3d6000fd5b505050506040513d601f19601f820116820180604052508101906132289190613db5565b6132445760405162461bcd60e51b81526004016108cc90613dd7565b33600090815260056020526040908190209051635284fe6760e11b81526003909101600482015265ffffffffffff8316602482015273__$47b88465a20692378cf12e8e0c338f01dd$__9063a509fcce906044016107c6565b604051633c3e56c160e11b81526002600482015260009073__$364aad554dc80380f414546becdd2c1584$__9063787cad829060240160206040518083038186803b1580156132eb57600080fd5b505af41580156132ff573d6000803e3d6000fd5b505050506040513d601f19601f8201168201806040525081019061075f91906141cf565b604051635e77c9af60e01b81526006600482015260009073__$8c1a4844a0a0988ea2454cf87145a95df1$__90635e77c9af9060240160206040518083038186803b15801561337157600080fd5b505af4158015613385573d6000803e3d6000fd5b505050506040513d601f19601f8201168201806040525081019061075f9190614057565b604051633b11adbf60e21b815273__$364aad554dc80380f414546becdd2c1584$__9063ec46b6fc906133e3906002903390600401613d9e565b60206040518083038186803b1580156133fb57600080fd5b505af415801561340f573d6000803e3d6000fd5b505050506040513d601f19601f820116820180604052508101906134339190613db5565b61344f5760405162461bcd60e51b81526004016108cc90613f4e565b600254600160f01b900460ff166001146134ab5760405162461bcd60e51b815260206004820181905260248201527f41432e6f6e6c7950656e64696e673a20446f632069732066696e616c697a656460448201526064016108cc565b60405163cc99e11b60e01b815260026004820152684174746f726e65797360b81b602482015273__$364aad554dc80380f414546becdd2c1584$__9063cc99e11b9060440160006040518083038186803b15801561350857600080fd5b505af415801561351c573d6000803e3d6000fd5b5050604051632725ebef60e21b8152600260048201526000602482015273__$364aad554dc80380f414546becdd2c1584$__9250639c97afbc915060440160006040518083038186803b15801561357257600080fd5b505af4158015613586573d6000803e3d6000fd5b50506002805460ff60f01b1916600160f11b17905550506040517f35012b512309c322acf68632cd6cb702ff0e1d776fbe9394e38ffc13b434fe7590600090a1565b604051633b11adbf60e21b815273__$364aad554dc80380f414546becdd2c1584$__9063ec46b6fc90613602906002903390600401613d9e565b60206040518083038186803b15801561361a57600080fd5b505af415801561362e573d6000803e3d6000fd5b505050506040513d601f19601f820116820180604052508101906136529190613db5565b61366e5760405162461bcd60e51b81526004016108cc90613f4e565b6001600160a01b0383166000908152600560205260409081902090516318a7841360e11b81526003909101600482015273__$47b88465a20692378cf12e8e0c338f01dd$__9063314f08269060240160206040518083038186803b1580156136d557600080fd5b505af41580156136e9573d6000803e3d6000fd5b505050506040513d601f19601f8201168201806040525081019061370d9190613db5565b6137595760405162461bcd60e51b815260206004820152601a60248201527f53502e41443a20446f63206e6f742065737461626c697368656400000000000060448201526064016108cc565b61376683600084846114fa565b505050565b60008054604051634de835e760e11b81523360048201526001600160a01b0390911690639bd06bce90602401602060405180830381600087803b1580156137b157600080fd5b505af115801561073b573d6000803e3d6000fd5b6000546001600160a01b0316156138165760405162461bcd60e51b815260206004820152601560248201527430b63932b0b23c9039b2ba103932b3a1b2b73a32b960591b60448201526064016108cc565b6040516001600160a01b03821681527f318da6c7624c71cbc0afe346c9d8827f119d0ecefb241a7b0c87217a076a8e029060200160405180910390a1600080546001600160a01b0319166001600160a01b0392909216919091179055565b6001546001600160a01b0316156138cd5760405162461bcd60e51b815260206004820152601960248201527f616c7265616479207365742067656e6572616c4b65657065720000000000000060448201526064016108cc565b6040516001600160a01b03821681527fe513d3e0f0d0a3877029dcc588748679a7a3450ec1ec7ed56d96bd012c3e61aa9060200160405180910390a1600180546001600160a01b0319166001600160a01b0392909216919091179055565b6000808260601b9050604051733d602d80600a3d3981f3363d3d373d3d3d363d7360601b81528160148201526e5af43d82803e903d91602b57fd5bf360881b60288201526037816000f0949350505050565b508054600082559060005260206000209081019061399b919061399e565b50565b5b808211156139b3576000815560010161399f565b5090565b64ffffffffff8116811461399b57600080fd5b600080604083850312156139dd57600080fd5b8235915060208301356139ef816139b7565b809150509250929050565b6001600160a01b038116811461399b57600080fd5b600060208284031215613a2157600080fd5b813561174a816139fa565b60008060408385031215613a3f57600080fd5b8235613a4a816139fa565b915060208301356139ef816139b7565b600060208284031215613a6c57600080fd5b813561174a816139b7565b61ffff8116811461399b57600080fd5b600080600060608486031215613a9c57600080fd5b8335613aa7816139fa565b92506020840135613ab781613a77565b91506040840135613ac7816139b7565b809150509250925092565b600060208284031215613ae457600080fd5b5035919050565b65ffffffffffff8116811461399b57600080fd5b600060208284031215613b1157600080fd5b813561174a81613aeb565b6020808252825182820181905260009190848201906040850190845b81811015613b5d5783516001600160a01b031683529284019291840191600101613b38565b50909695505050505050565b803560ff81168114613b7a57600080fd5b919050565b600060208284031215613b9157600080fd5b61174a82613b69565b600080600060608486031215613baf57600080fd5b8335613bba816139fa565b92506020840135613bca816139b7565b929592945050506040919091013590565b60008060008060808587031215613bf157600080fd5b8435613bfc816139fa565b93506020850135613c0c81613a77565b92506040850135613c1c816139b7565b9396929550929360600135925050565b60008060008060808587031215613c4257600080fd5b8435613c4d816139b7565b93506020850135613c5d816139fa565b92506040850135613c6d816139fa565b91506060850135613c7d816139fa565b939692955090935050565b60008060408385031215613c9b57600080fd5b613a4a83613b69565b60008060408385031215613cb757600080fd5b8235613cc2816139fa565b9150613cd060208401613b69565b90509250929050565b6020808252825182820181905260009190848201906040850190845b81811015613b5d57835164ffffffffff1683529284019291840191600101613cf5565b60008060408385031215613d2b57600080fd5b8235613d36816139b7565b915060208301356139ef81613a77565b60008060008060808587031215613d5c57600080fd5b8435613d67816139fa565b966020860135965060408601359560600135945092505050565b600060208284031215613d9357600080fd5b815161174a816139b7565b9182526001600160a01b0316602082015260400190565b600060208284031215613dc757600080fd5b8151801515811461174a57600080fd5b6020808252601d908201527f524f442e6d642e6f723a20646f63204e4f542072656769737465726564000000604082015260600190565b60208082526036908201527f41432e6f776e65724f72446972656374426f6f6b65657065723a206e6569746860408201527532b91037bbb732b9103737b9103137b7b5b2b2b832b960511b606082015260800190565b634e487b7160e01b600052604160045260246000fd5b604051601f8201601f1916810167ffffffffffffffff81118282101715613ea357613ea3613e64565b604052919050565b600060a08284031215613ebd57600080fd5b60405160a0810167ffffffffffffffff8282108183111715613ee157613ee1613e64565b8160405284519150613ef282613a77565b908252602084015190613f04826139b7565b81602084015260408501519150613f1a82613aeb565b816040840152606085015191508082168214613f3557600080fd5b5060608201526080928301519281019290925250919050565b60208082526026908201527f41432e6f6e6c794469726563744b65657065723a206e6f74206469726563742060408201526535b2b2b832b960d11b606082015260800190565b600067ffffffffffffffff821115613fae57613fae613e64565b5060051b60200190565b60006020808385031215613fcb57600080fd5b825167ffffffffffffffff811115613fe257600080fd5b8301601f81018513613ff357600080fd5b805161400661400182613f94565b613e7a565b81815260059190911b8201830190838101908783111561402557600080fd5b928401925b8284101561404c57835161403d816139fa565b8252928401929084019061402a565b979650505050505050565b60006020828403121561406957600080fd5b5051919050565b634e487b7160e01b600052601160045260246000fd5b600060ff821660ff84168060ff038211156140a3576140a3614070565b019392505050565b600060ff821660ff8114156140c2576140c2614070565b60010192915050565b600060208083850312156140de57600080fd5b825167ffffffffffffffff8111156140f557600080fd5b8301601f8101851361410657600080fd5b805161411461400182613f94565b81815260059190911b8201830190838101908783111561413357600080fd5b928401925b8284101561404c57835161414b816139b7565b82529284019290840190614138565b60006020828403121561416c57600080fd5b815161174a81613aeb565b600065ffffffffffff8083168185168183048111821515161561419c5761419c614070565b02949350505050565b600065ffffffffffff8083168185168083038211156141c6576141c6614070565b01949350505050565b6000602082840312156141e157600080fd5b815161174a816139fa56fea2646970667358221220fce0bcd37b0bac9bf57bf0e13982bba4e6fb41ad3dd0bf44f53bc0cbb085fc1b64736f6c63430008080033",
    "sourcePath": "/Users/kaptain/github.com/hardhat/comboox/contracts/common/components/RepoOfDocs.sol",
    "compiler": {
        "name": "solc",
        "version": "0.8.8+commit.dddeac2f"
    },
    "functionHashes": {
        "abandonRole(bytes32)": "3da9a600",
        "acceptDoc(address,uint40,bytes32)": "f43323ee",
        "addBlank(uint40,uint16)": "dd4578aa",
        "circulateDoc(address,bytes32,bytes32,bytes32)": "e0249667",
        "closingDeadline(address)": "993d4de3",
        "createDoc(uint8,uint40)": "891613e7",
        "docsList()": "4be157d5",
        "established(address)": "a113062d",
        "finalized()": "b3f05b97",
        "getBookeeper()": "ed211023",
        "getGeneralCounsel()": "103f6edd",
        "getHeadOfDoc(address)": "de154c27",
        "getOwner()": "893d20e8",
        "getRefOfDoc(address)": "289aeb57",
        "grantRole(bytes32,uint40)": "74099815",
        "hasRole(bytes32,uint40)": "79b2ec12",
        "init(uint40,address,address,address)": "821ee8ea",
        "isInitSigner(address,uint40)": "29ce5888",
        "isParty(address,uint40)": "5c049642",
        "isRegistered(address)": "c3c5a547",
        "lockContents()": "f045a769",
        "parasOfPage(address)": "ad74d2a5",
        "partiesOfDoc(address)": "d6336277",
        "pushToNextState(address)": "a95027b3",
        "qtyOfDocs()": "ee4b47c1",
        "qtyOfParties(address)": "a1cb4381",
        "removeBlank(uint40,uint16)": "d6876305",
        "removeDoc(address)": "d42186fa",
        "renounceRole(bytes32)": "8bb9c5bf",
        "revokeRole(bytes32,uint40)": "17c51fec",
        "setClosingDeadline(uint48)": "4794be07",
        "setDirectKeeper(address)": "6be8496f",
        "setGeneralCounsel(uint40)": "3178a9a9",
        "setOwner(uint40)": "7ba706e8",
        "setRoleAdmin(bytes32,uint40)": "16dc517e",
        "setSigDeadline(uint48)": "ea8457f8",
        "setTemplate(address,uint8)": "aa596576",
        "sigDeadline(address)": "cbce7c44",
        "sigOfDeal(address,uint16,uint40)": "3ced51a5",
        "sigOfDoc(address,uint40)": "746e421f",
        "signDeal(address,uint16,uint40,bytes32)": "765f54a7",
        "signDoc(address,uint40,bytes32)": "6f294795",
        "template(uint8)": "4efd15f2"
    },
    "gasEstimates": {
        "creation": {
            "codeDepositCost": "3386000",
            "executionCost": "3779",
            "totalCost": "3389779"
        },
        "external": {
            "abandonRole(bytes32)": "infinite",
            "acceptDoc(address,uint40,bytes32)": "infinite",
            "addBlank(uint40,uint16)": "infinite",
            "circulateDoc(address,bytes32,bytes32,bytes32)": "infinite",
            "closingDeadline(address)": "infinite",
            "createDoc(uint8,uint40)": "infinite",
            "docsList()": "infinite",
            "established(address)": "infinite",
            "finalized()": "2438",
            "getBookeeper()": "infinite",
            "getGeneralCounsel()": "infinite",
            "getHeadOfDoc(address)": "infinite",
            "getOwner()": "infinite",
            "getRefOfDoc(address)": "infinite",
            "grantRole(bytes32,uint40)": "infinite",
            "hasRole(bytes32,uint40)": "infinite",
            "init(uint40,address,address,address)": "infinite",
            "isInitSigner(address,uint40)": "infinite",
            "isParty(address,uint40)": "infinite",
            "isRegistered(address)": "infinite",
            "lockContents()": "infinite",
            "parasOfPage(address)": "infinite",
            "partiesOfDoc(address)": "infinite",
            "pushToNextState(address)": "infinite",
            "qtyOfDocs()": "infinite",
            "qtyOfParties(address)": "infinite",
            "removeBlank(uint40,uint16)": "infinite",
            "removeDoc(address)": "infinite",
            "renounceRole(bytes32)": "infinite",
            "revokeRole(bytes32,uint40)": "infinite",
            "setClosingDeadline(uint48)": "infinite",
            "setDirectKeeper(address)": "infinite",
            "setGeneralCounsel(uint40)": "infinite",
            "setOwner(uint40)": "infinite",
            "setRoleAdmin(bytes32,uint40)": "infinite",
            "setSigDeadline(uint48)": "infinite",
            "setTemplate(address,uint8)": "infinite",
            "sigDeadline(address)": "infinite",
            "sigOfDeal(address,uint16,uint40)": "infinite",
            "sigOfDoc(address,uint40)": "infinite",
            "signDeal(address,uint16,uint40,bytes32)": "infinite",
            "signDoc(address,uint40,bytes32)": "infinite",
            "template(uint8)": "2598"
        }
    }
}