{
    "contractName": "SigPage",
    "abi": [
        {
            "anonymous": false,
            "inputs": [
                {
                    "indexed": false,
                    "internalType": "uint256",
                    "name": "owner",
                    "type": "uint256"
                },
                {
                    "indexed": false,
                    "internalType": "address",
                    "name": "directKeeper",
                    "type": "address"
                },
                {
                    "indexed": false,
                    "internalType": "address",
                    "name": "regCenter",
                    "type": "address"
                },
                {
                    "indexed": false,
                    "internalType": "address",
                    "name": "generalKeeper",
                    "type": "address"
                }
            ],
            "name": "Init",
            "type": "event"
        },
        {
            "anonymous": false,
            "inputs": [],
            "name": "LockContents",
            "type": "event"
        },
        {
            "anonymous": false,
            "inputs": [
                {
                    "indexed": false,
                    "internalType": "address",
                    "name": "keeper",
                    "type": "address"
                }
            ],
            "name": "SetDirectKeeper",
            "type": "event"
        },
        {
            "anonymous": false,
            "inputs": [
                {
                    "indexed": false,
                    "internalType": "uint256",
                    "name": "acct",
                    "type": "uint256"
                }
            ],
            "name": "SetGeneralCounsel",
            "type": "event"
        },
        {
            "anonymous": false,
            "inputs": [
                {
                    "indexed": false,
                    "internalType": "uint256",
                    "name": "acct",
                    "type": "uint256"
                }
            ],
            "name": "SetOwner",
            "type": "event"
        },
        {
            "anonymous": false,
            "inputs": [
                {
                    "indexed": false,
                    "internalType": "bool",
                    "name": "initPage",
                    "type": "bool"
                },
                {
                    "indexed": false,
                    "internalType": "uint256",
                    "name": "SigDeadline",
                    "type": "uint256"
                }
            ],
            "name": "SetSigDeadline",
            "type": "event"
        },
        {
            "inputs": [
                {
                    "internalType": "bytes32",
                    "name": "role",
                    "type": "bytes32"
                }
            ],
            "name": "abandonRole",
            "outputs": [],
            "stateMutability": "nonpayable",
            "type": "function"
        },
        {
            "inputs": [
                {
                    "internalType": "bool",
                    "name": "beBuyer",
                    "type": "bool"
                },
                {
                    "internalType": "uint256",
                    "name": "seqOfDeal",
                    "type": "uint256"
                },
                {
                    "internalType": "uint256",
                    "name": "acct",
                    "type": "uint256"
                }
            ],
            "name": "addBlank",
            "outputs": [],
            "stateMutability": "nonpayable",
            "type": "function"
        },
        {
            "inputs": [],
            "name": "established",
            "outputs": [
                {
                    "internalType": "bool",
                    "name": "flag",
                    "type": "bool"
                }
            ],
            "stateMutability": "view",
            "type": "function"
        },
        {
            "inputs": [],
            "name": "finalized",
            "outputs": [
                {
                    "internalType": "bool",
                    "name": "",
                    "type": "bool"
                }
            ],
            "stateMutability": "view",
            "type": "function"
        },
        {
            "inputs": [],
            "name": "getBookeeper",
            "outputs": [
                {
                    "internalType": "address",
                    "name": "",
                    "type": "address"
                }
            ],
            "stateMutability": "view",
            "type": "function"
        },
        {
            "inputs": [
                {
                    "internalType": "bool",
                    "name": "initPage",
                    "type": "bool"
                }
            ],
            "name": "getBuyers",
            "outputs": [
                {
                    "internalType": "uint256[]",
                    "name": "buyers",
                    "type": "uint256[]"
                }
            ],
            "stateMutability": "view",
            "type": "function"
        },
        {
            "inputs": [],
            "name": "getGeneralCounsel",
            "outputs": [
                {
                    "internalType": "uint40",
                    "name": "",
                    "type": "uint40"
                }
            ],
            "stateMutability": "view",
            "type": "function"
        },
        {
            "inputs": [],
            "name": "getOwner",
            "outputs": [
                {
                    "internalType": "uint40",
                    "name": "",
                    "type": "uint40"
                }
            ],
            "stateMutability": "view",
            "type": "function"
        },
        {
            "inputs": [
                {
                    "internalType": "bool",
                    "name": "initPage",
                    "type": "bool"
                }
            ],
            "name": "getParasOfPage",
            "outputs": [
                {
                    "components": [
                        {
                            "internalType": "uint40",
                            "name": "signer",
                            "type": "uint40"
                        },
                        {
                            "internalType": "uint48",
                            "name": "sigDate",
                            "type": "uint48"
                        },
                        {
                            "internalType": "uint64",
                            "name": "blocknumber",
                            "type": "uint64"
                        },
                        {
                            "internalType": "bool",
                            "name": "flag",
                            "type": "bool"
                        },
                        {
                            "internalType": "uint16",
                            "name": "para",
                            "type": "uint16"
                        },
                        {
                            "internalType": "uint16",
                            "name": "arg",
                            "type": "uint16"
                        },
                        {
                            "internalType": "uint32",
                            "name": "data",
                            "type": "uint32"
                        },
                        {
                            "internalType": "uint32",
                            "name": "ref",
                            "type": "uint32"
                        }
                    ],
                    "internalType": "struct SigsRepo.Signature",
                    "name": "",
                    "type": "tuple"
                }
            ],
            "stateMutability": "view",
            "type": "function"
        },
        {
            "inputs": [],
            "name": "getParties",
            "outputs": [
                {
                    "internalType": "uint256[]",
                    "name": "parties",
                    "type": "uint256[]"
                }
            ],
            "stateMutability": "view",
            "type": "function"
        },
        {
            "inputs": [
                {
                    "internalType": "bool",
                    "name": "initPage",
                    "type": "bool"
                }
            ],
            "name": "getSellers",
            "outputs": [
                {
                    "internalType": "uint256[]",
                    "name": "sellers",
                    "type": "uint256[]"
                }
            ],
            "stateMutability": "view",
            "type": "function"
        },
        {
            "inputs": [
                {
                    "internalType": "bool",
                    "name": "initPage",
                    "type": "bool"
                },
                {
                    "internalType": "uint256",
                    "name": "acct",
                    "type": "uint256"
                }
            ],
            "name": "getSigOfParty",
            "outputs": [
                {
                    "internalType": "uint256[]",
                    "name": "seqOfDeals",
                    "type": "uint256[]"
                },
                {
                    "components": [
                        {
                            "internalType": "uint40",
                            "name": "signer",
                            "type": "uint40"
                        },
                        {
                            "internalType": "uint48",
                            "name": "sigDate",
                            "type": "uint48"
                        },
                        {
                            "internalType": "uint64",
                            "name": "blocknumber",
                            "type": "uint64"
                        },
                        {
                            "internalType": "bool",
                            "name": "flag",
                            "type": "bool"
                        },
                        {
                            "internalType": "uint16",
                            "name": "para",
                            "type": "uint16"
                        },
                        {
                            "internalType": "uint16",
                            "name": "arg",
                            "type": "uint16"
                        },
                        {
                            "internalType": "uint32",
                            "name": "data",
                            "type": "uint32"
                        },
                        {
                            "internalType": "uint32",
                            "name": "ref",
                            "type": "uint32"
                        }
                    ],
                    "internalType": "struct SigsRepo.Signature",
                    "name": "sig",
                    "type": "tuple"
                },
                {
                    "internalType": "bytes32",
                    "name": "sigHash",
                    "type": "bytes32"
                }
            ],
            "stateMutability": "view",
            "type": "function"
        },
        {
            "inputs": [
                {
                    "internalType": "bool",
                    "name": "initPage",
                    "type": "bool"
                }
            ],
            "name": "getSigsOfPage",
            "outputs": [
                {
                    "components": [
                        {
                            "internalType": "uint40",
                            "name": "signer",
                            "type": "uint40"
                        },
                        {
                            "internalType": "uint48",
                            "name": "sigDate",
                            "type": "uint48"
                        },
                        {
                            "internalType": "uint64",
                            "name": "blocknumber",
                            "type": "uint64"
                        },
                        {
                            "internalType": "bool",
                            "name": "flag",
                            "type": "bool"
                        },
                        {
                            "internalType": "uint16",
                            "name": "para",
                            "type": "uint16"
                        },
                        {
                            "internalType": "uint16",
                            "name": "arg",
                            "type": "uint16"
                        },
                        {
                            "internalType": "uint32",
                            "name": "data",
                            "type": "uint32"
                        },
                        {
                            "internalType": "uint32",
                            "name": "ref",
                            "type": "uint32"
                        }
                    ],
                    "internalType": "struct SigsRepo.Signature[]",
                    "name": "sigsOfBuyer",
                    "type": "tuple[]"
                },
                {
                    "components": [
                        {
                            "internalType": "uint40",
                            "name": "signer",
                            "type": "uint40"
                        },
                        {
                            "internalType": "uint48",
                            "name": "sigDate",
                            "type": "uint48"
                        },
                        {
                            "internalType": "uint64",
                            "name": "blocknumber",
                            "type": "uint64"
                        },
                        {
                            "internalType": "bool",
                            "name": "flag",
                            "type": "bool"
                        },
                        {
                            "internalType": "uint16",
                            "name": "para",
                            "type": "uint16"
                        },
                        {
                            "internalType": "uint16",
                            "name": "arg",
                            "type": "uint16"
                        },
                        {
                            "internalType": "uint32",
                            "name": "data",
                            "type": "uint32"
                        },
                        {
                            "internalType": "uint32",
                            "name": "ref",
                            "type": "uint32"
                        }
                    ],
                    "internalType": "struct SigsRepo.Signature[]",
                    "name": "sigsOfSeller",
                    "type": "tuple[]"
                }
            ],
            "stateMutability": "view",
            "type": "function"
        },
        {
            "inputs": [
                {
                    "internalType": "bytes32",
                    "name": "role",
                    "type": "bytes32"
                },
                {
                    "internalType": "uint256",
                    "name": "acct",
                    "type": "uint256"
                }
            ],
            "name": "grantRole",
            "outputs": [],
            "stateMutability": "nonpayable",
            "type": "function"
        },
        {
            "inputs": [
                {
                    "internalType": "bytes32",
                    "name": "role",
                    "type": "bytes32"
                },
                {
                    "internalType": "uint256",
                    "name": "acct",
                    "type": "uint256"
                }
            ],
            "name": "hasRole",
            "outputs": [
                {
                    "internalType": "bool",
                    "name": "",
                    "type": "bool"
                }
            ],
            "stateMutability": "view",
            "type": "function"
        },
        {
            "inputs": [
                {
                    "internalType": "uint256",
                    "name": "owner",
                    "type": "uint256"
                },
                {
                    "internalType": "address",
                    "name": "directKeeper",
                    "type": "address"
                },
                {
                    "internalType": "address",
                    "name": "regCenter",
                    "type": "address"
                },
                {
                    "internalType": "address",
                    "name": "generalKeeper",
                    "type": "address"
                }
            ],
            "name": "init",
            "outputs": [],
            "stateMutability": "nonpayable",
            "type": "function"
        },
        {
            "inputs": [
                {
                    "internalType": "bool",
                    "name": "initPage",
                    "type": "bool"
                },
                {
                    "internalType": "uint256",
                    "name": "acct",
                    "type": "uint256"
                }
            ],
            "name": "isBuyer",
            "outputs": [
                {
                    "internalType": "bool",
                    "name": "flag",
                    "type": "bool"
                }
            ],
            "stateMutability": "view",
            "type": "function"
        },
        {
            "inputs": [
                {
                    "internalType": "uint256",
                    "name": "acct",
                    "type": "uint256"
                }
            ],
            "name": "isParty",
            "outputs": [
                {
                    "internalType": "bool",
                    "name": "flag",
                    "type": "bool"
                }
            ],
            "stateMutability": "view",
            "type": "function"
        },
        {
            "inputs": [
                {
                    "internalType": "bool",
                    "name": "initPage",
                    "type": "bool"
                },
                {
                    "internalType": "uint256",
                    "name": "acct",
                    "type": "uint256"
                }
            ],
            "name": "isSeller",
            "outputs": [
                {
                    "internalType": "bool",
                    "name": "flag",
                    "type": "bool"
                }
            ],
            "stateMutability": "view",
            "type": "function"
        },
        {
            "inputs": [
                {
                    "internalType": "uint256",
                    "name": "acct",
                    "type": "uint256"
                }
            ],
            "name": "isSigner",
            "outputs": [
                {
                    "internalType": "bool",
                    "name": "flag",
                    "type": "bool"
                }
            ],
            "stateMutability": "view",
            "type": "function"
        },
        {
            "inputs": [],
            "name": "lockContents",
            "outputs": [],
            "stateMutability": "nonpayable",
            "type": "function"
        },
        {
            "inputs": [
                {
                    "internalType": "uint256",
                    "name": "seqOfDeal",
                    "type": "uint256"
                },
                {
                    "internalType": "uint256",
                    "name": "signer",
                    "type": "uint256"
                },
                {
                    "internalType": "uint256",
                    "name": "sigDate",
                    "type": "uint256"
                },
                {
                    "internalType": "bytes32",
                    "name": "sigHash",
                    "type": "bytes32"
                }
            ],
            "name": "regSig",
            "outputs": [
                {
                    "internalType": "bool",
                    "name": "flag",
                    "type": "bool"
                }
            ],
            "stateMutability": "nonpayable",
            "type": "function"
        },
        {
            "inputs": [
                {
                    "internalType": "bytes32",
                    "name": "role",
                    "type": "bytes32"
                }
            ],
            "name": "renounceRole",
            "outputs": [],
            "stateMutability": "nonpayable",
            "type": "function"
        },
        {
            "inputs": [
                {
                    "internalType": "bytes32",
                    "name": "role",
                    "type": "bytes32"
                },
                {
                    "internalType": "uint256",
                    "name": "acct",
                    "type": "uint256"
                }
            ],
            "name": "revokeRole",
            "outputs": [],
            "stateMutability": "nonpayable",
            "type": "function"
        },
        {
            "inputs": [
                {
                    "internalType": "address",
                    "name": "keeper",
                    "type": "address"
                }
            ],
            "name": "setDirectKeeper",
            "outputs": [],
            "stateMutability": "nonpayable",
            "type": "function"
        },
        {
            "inputs": [
                {
                    "internalType": "uint256",
                    "name": "acct",
                    "type": "uint256"
                }
            ],
            "name": "setGeneralCounsel",
            "outputs": [],
            "stateMutability": "nonpayable",
            "type": "function"
        },
        {
            "inputs": [
                {
                    "internalType": "uint256",
                    "name": "acct",
                    "type": "uint256"
                }
            ],
            "name": "setOwner",
            "outputs": [],
            "stateMutability": "nonpayable",
            "type": "function"
        },
        {
            "inputs": [
                {
                    "internalType": "bytes32",
                    "name": "role",
                    "type": "bytes32"
                },
                {
                    "internalType": "uint256",
                    "name": "acct",
                    "type": "uint256"
                }
            ],
            "name": "setRoleAdmin",
            "outputs": [],
            "stateMutability": "nonpayable",
            "type": "function"
        },
        {
            "inputs": [
                {
                    "internalType": "bool",
                    "name": "initPage",
                    "type": "bool"
                },
                {
                    "internalType": "uint256",
                    "name": "sigDeadline",
                    "type": "uint256"
                }
            ],
            "name": "setSigDeadline",
            "outputs": [],
            "stateMutability": "nonpayable",
            "type": "function"
        },
        {
            "inputs": [
                {
                    "internalType": "bool",
                    "name": "initPage",
                    "type": "bool"
                },
                {
                    "internalType": "uint256",
                    "name": "caller",
                    "type": "uint256"
                },
                {
                    "internalType": "bytes32",
                    "name": "sigHash",
                    "type": "bytes32"
                }
            ],
            "name": "signDoc",
            "outputs": [],
            "stateMutability": "nonpayable",
            "type": "function"
        }
    ],
    "bytecode": "608060405234801561001057600080fd5b506129d0806100206000396000f3fe608060405234801561001057600080fd5b50600436106101da5760003560e01c80637e063c5a11610104578063a959c69c116100a2578063dc890da911610071578063dc890da914610406578063ed21102314610419578063f045a76914610439578063f2724eb21461044157600080fd5b8063a959c69c146103ac578063b1152335146103bf578063b3f05b97146103d2578063ccb2f415146103e657600080fd5b80638bb9c5bf116100de5780638bb9c5bf1461035e5780638c5f917014610371578063a4052db414610384578063a8311aa81461039757600080fd5b80637e063c5a146103305780638041494e14610343578063893d20e81461035657600080fd5b80633da9a6001161017c57806350a31ef91161014b57806350a31ef9146102e45780635171ebd4146102f757806351b171a31461030a5780636be8496f1461031d57600080fd5b80633da9a600146102a35780634844f541146102b65780634a14beb1146102be5780634ee4f422146102d157600080fd5b80631b6ea9f9116101b85780631b6ea9f91461022a57806325abe7901461023d57806328769ede1461025e578063343673131461028157600080fd5b8063103f6edd146101df5780631958ac5a1461020257806319d61ad914610217575b600080fd5b6101e7610454565b60405164ffffffffff90911681526020015b60405180910390f35b610215610210366004612277565b6104e0565b005b6102156102253660046122ac565b610668565b6102156102383660046122ac565b6106fa565b61025061024b3660046122ce565b610720565b6040516101f99291906123c1565b61027161026c3660046123e6565b6107d2565b60405190151581526020016101f9565b61029461028f3660046123ff565b6108f5565b6040516101f99392919061245b565b6102156102b13660046123e6565b6109bd565b610271610a48565b6102156102cc3660046123e6565b610c19565b6102156102df3660046123ff565b610e76565b6102156102f2366004612277565b61108a565b6102156103053660046122ac565b61119f565b6102716103183660046123ff565b6111c5565b61021561032b3660046124a3565b6112ee565b61027161033e3660046122ac565b6113a0565b6102156103513660046123e6565b6113e9565b6101e76114a2565b61021561036c3660046123e6565b6114dd565b61027161037f3660046123e6565b611502565b6102716103923660046124c0565b6116f4565b61039f611834565b6040516101f991906124f2565b61039f6103ba3660046122ce565b611a14565b6102716103cd3660046123ff565b611b30565b60028054600160f01b900460ff1614610271565b6103f96103f43660046122ce565b611bb5565b6040516101f99190612505565b610215610414366004612514565b611cb7565b610421611d99565b6040516001600160a01b0390911681526020016101f9565b610215611e1f565b61039f61044f3660046122ce565b612063565b60405163e8c0cc1d60e01b81526002600482015260009073__$364aad554dc80380f414546becdd2c1584$__9063e8c0cc1d906024015b60206040518083038186803b1580156104a357600080fd5b505af41580156104b7573d6000803e3d6000fd5b505050506040513d601f19601f820116820180604052508101906104db9190612581565b905090565b6001546040516335d2155560e11b81523360048201526001600160a01b0390911690636ba42aaa9060240160206040518083038186803b15801561052357600080fd5b505afa158015610537573d6000803e3d6000fd5b505050506040513d601f19601f8201168201806040525081019061055b91906125a7565b6105805760405162461bcd60e51b8152600401610577906125c4565b60405180910390fd5b821561061d576040516368c2325360e01b8152600481810152602481018390526044810182905273__$47b88465a20692378cf12e8e0c338f01dd$__906368c23253906064015b60206040518083038186803b1580156105df57600080fd5b505af41580156105f3573d6000803e3d6000fd5b505050506040513d601f19601f8201168201806040525081019061061791906125a7565b50505050565b6040516368c2325360e01b815260096004820152602481018390526044810182905273__$47b88465a20692378cf12e8e0c338f01dd$__906368c23253906064016105c7565b505050565b73__$364aad554dc80380f414546becdd2c1584$__6382daafaa6002848461068e6120da565b6040516001600160e01b031960e087901b16815260048101949094526024840192909252604483015264ffffffffff16606482015260840160006040518083038186803b1580156106de57600080fd5b505af41580156106f2573d6000803e3d6000fd5b505050505050565b73__$364aad554dc80380f414546becdd2c1584$__636320d75e6002848461068e6120da565b60608082156107c957600460005b6005020173__$47b88465a20692378cf12e8e0c338f01dd$__63c018ec8790916040518263ffffffff1660e01b815260040161076c91815260200190565b60006040518083038186803b15801561078457600080fd5b505af4158015610798573d6000803e3d6000fd5b505050506040513d6000823e601f3d908101601f191682016040526107c091908101906127e9565b91509150915091565b6004600161072e565b6040516324d431a360e01b81526004818101526024810182905260009073__$47b88465a20692378cf12e8e0c338f01dd$__906324d431a39060440160206040518083038186803b15801561082657600080fd5b505af415801561083a573d6000803e3d6000fd5b505050506040513d601f19601f8201168201806040525081019061085e91906125a7565b806108ef57506040516324d431a360e01b8152600960048201526024810183905273__$47b88465a20692378cf12e8e0c338f01dd$__906324d431a3906044015b60206040518083038186803b1580156108b757600080fd5b505af41580156108cb573d6000803e3d6000fd5b505050506040513d601f19601f820116820180604052508101906108ef91906125a7565b92915050565b60606108ff612222565b600084156109ad57600460005b604051630b5b0ad560e01b81526005919091029190910160048201526024810185905273__$47b88465a20692378cf12e8e0c338f01dd$__90630b5b0ad59060440160006040518083038186803b15801561096657600080fd5b505af415801561097a573d6000803e3d6000fd5b505050506040513d6000823e601f3d908101601f191682016040526109a291908101906128a8565b9250925092506109b6565b6004600161090c565b9250925092565b73__$364aad554dc80380f414546becdd2c1584$__63c51b295f6002836109e26120da565b6040516001600160e01b031960e086901b1681526004810193909352602483019190915264ffffffffff16604482015260640160006040518083038186803b158015610a2d57600080fd5b505af4158015610a41573d6000803e3d6000fd5b5050505050565b60405163c2b46a8560e01b8152600a6004820152600090819073__$8c1a4844a0a0988ea2454cf87145a95df1$__9063c2b46a859060240160206040518083038186803b158015610a9857600080fd5b505af4158015610aac573d6000803e3d6000fd5b505050506040513d601f19601f82011682018060405250810190610ad09190612902565b11610b58576040516318a7841360e11b815260048181015273__$47b88465a20692378cf12e8e0c338f01dd$__9063314f0826906024015b60206040518083038186803b158015610b2057600080fd5b505af4158015610b34573d6000803e3d6000fd5b505050506040513d601f19601f820116820180604052508101906104db91906125a7565b6040516318a7841360e11b81526009600482015273__$47b88465a20692378cf12e8e0c338f01dd$__9063314f08269060240160206040518083038186803b158015610ba357600080fd5b505af4158015610bb7573d6000803e3d6000fd5b505050506040513d601f19601f82011682018060405250810190610bdb91906125a7565b80156104db57506040516318a7841360e11b815260048181015273__$47b88465a20692378cf12e8e0c338f01dd$__9063314f082690602401610b08565b604051633b11adbf60e21b81526002600482015233602482015273__$364aad554dc80380f414546becdd2c1584$__9063ec46b6fc9060440160206040518083038186803b158015610c6a57600080fd5b505af4158015610c7e573d6000803e3d6000fd5b505050506040513d601f19601f82011682018060405250810190610ca291906125a7565b80610d47575073__$364aad554dc80380f414546becdd2c1584$__63fe2710866002610ccc6120da565b6040516001600160e01b031960e085901b168152600481019290925264ffffffffff16602482015260440160206040518083038186803b158015610d0f57600080fd5b505af4158015610d23573d6000803e3d6000fd5b505050506040513d601f19601f82011682018060405250810190610d4791906125a7565b610db25760405162461bcd60e51b815260206004820152603660248201527f41432e6f776e65724f72446972656374426f6f6b65657065723a206e6569746860448201527532b91037bbb732b9103737b9103137b7b5b2b2b832b960511b6064820152608401610577565b73__$364aad554dc80380f414546becdd2c1584$__639b4510de600283610dd76120da565b6040516001600160e01b031960e086901b1681526004810193909352602483019190915264ffffffffff16604482015260640160006040518083038186803b158015610e2257600080fd5b505af4158015610e36573d6000803e3d6000fd5b505050507ff2735f34b69be1e6342dea95f9162f84d0db925fab655ca9f1f312ac8cbfc99d81604051610e6b91815260200190565b60405180910390a150565b73__$364aad554dc80380f414546becdd2c1584$__63a8ef95ac6002684174746f726e65797360b81b610ea76120da565b6040516001600160e01b031960e086901b1681526004810193909352602483019190915264ffffffffff16604482015260640160206040518083038186803b158015610ef257600080fd5b505af4158015610f06573d6000803e3d6000fd5b505050506040513d601f19601f82011682018060405250810190610f2a91906125a7565b610f6c5760405162461bcd60e51b815260206004820152601360248201527241432e6f743a206e6f74204174746f726e657960681b6044820152606401610577565b8115610fe0576040516370d1f55160e11b81526004818101526024810182905273__$47b88465a20692378cf12e8e0c338f01dd$__9063e1a3eaa29060440160006040518083038186803b158015610fc357600080fd5b505af4158015610fd7573d6000803e3d6000fd5b5050505061104b565b6040516370d1f55160e11b8152600960048201526024810182905273__$47b88465a20692378cf12e8e0c338f01dd$__9063e1a3eaa29060440160006040518083038186803b15801561103257600080fd5b505af4158015611046573d6000803e3d6000fd5b505050505b604080518315158152602081018390527f3389421e64790016f202b64f1477c9dd649b211109a6647cdc53dd31dbeabd2c910160405180910390a15050565b6001546040516335d2155560e11b81523360048201526001600160a01b0390911690636ba42aaa9060240160206040518083038186803b1580156110cd57600080fd5b505afa1580156110e1573d6000803e3d6000fd5b505050506040513d601f19601f8201168201806040525081019061110591906125a7565b6111215760405162461bcd60e51b8152600401610577906125c4565b604051630dfb57ab60e11b8152600960048201528315156024820152604481018390526064810182905273__$47b88465a20692378cf12e8e0c338f01dd$__90631bf6af569060840160006040518083038186803b15801561118257600080fd5b505af4158015611196573d6000803e3d6000fd5b50505050505050565b73__$364aad554dc80380f414546becdd2c1584$__63ee98b3136002848461068e6120da565b60008261125c57604051633f5f77cd60e01b8152600c60048201526024810183905273__$8c1a4844a0a0988ea2454cf87145a95df1$__90633f5f77cd906044015b60206040518083038186803b15801561121f57600080fd5b505af4158015611233573d6000803e3d6000fd5b505050506040513d601f19601f8201168201806040525081019061125791906125a7565b6112e7565b604051633f5f77cd60e01b8152600760048201526024810183905273__$8c1a4844a0a0988ea2454cf87145a95df1$__90633f5f77cd906044015b60206040518083038186803b1580156112af57600080fd5b505af41580156112c3573d6000803e3d6000fd5b505050506040513d601f19601f820116820180604052508101906112e791906125a7565b9392505050565b604051630f07232560e01b8152600260048201526001600160a01b038216602482015233604482015273__$364aad554dc80380f414546becdd2c1584$__90630f0723259060640160006040518083038186803b15801561134e57600080fd5b505af4158015611362573d6000803e3d6000fd5b50506040516001600160a01b03841681527fe435cbeab64e4eae6497b9d8289704bd709d624a80704ef3ca9af777534bc6ec92506020019050610e6b565b604051632a3be56b60e21b815260026004820152602481018390526044810182905260009073__$364aad554dc80380f414546becdd2c1584$__9063a8ef95ac90606401611297565b73__$364aad554dc80380f414546becdd2c1584$__639b48160c60028361140e6120da565b6040516001600160e01b031960e086901b1681526004810193909352602483019190915264ffffffffff16604482015260640160006040518083038186803b15801561145957600080fd5b505af415801561146d573d6000803e3d6000fd5b505050507f8b6f40f36b4ae8cc5f55e895036457c43da4ab1f80f58c46f5ff0d72a650033b81604051610e6b91815260200190565b60405163987ad15360e01b81526002600482015260009073__$364aad554dc80380f414546becdd2c1584$__9063987ad1539060240161048b565b73__$364aad554dc80380f414546becdd2c1584$__63cc0d511b6002836109e26120da565b604051633f5f77cd60e01b8152600560048201526024810182905260009073__$8c1a4844a0a0988ea2454cf87145a95df1$__90633f5f77cd9060440160206040518083038186803b15801561155757600080fd5b505af415801561156b573d6000803e3d6000fd5b505050506040513d601f19601f8201168201806040525081019061158f91906125a7565b8061161f5750604051633f5f77cd60e01b8152600760048201526024810183905273__$8c1a4844a0a0988ea2454cf87145a95df1$__90633f5f77cd9060440160206040518083038186803b1580156115e757600080fd5b505af41580156115fb573d6000803e3d6000fd5b505050506040513d601f19601f8201168201806040525081019061161f91906125a7565b806116af5750604051633f5f77cd60e01b8152600a60048201526024810183905273__$8c1a4844a0a0988ea2454cf87145a95df1$__90633f5f77cd9060440160206040518083038186803b15801561167757600080fd5b505af415801561168b573d6000803e3d6000fd5b505050506040513d601f19601f820116820180604052508101906116af91906125a7565b806108ef5750604051633f5f77cd60e01b8152600c60048201526024810183905273__$8c1a4844a0a0988ea2454cf87145a95df1$__90633f5f77cd9060440161089f565b6001546040516335d2155560e11b81523360048201526000916001600160a01b031690636ba42aaa9060240160206040518083038186803b15801561173857600080fd5b505afa15801561174c573d6000803e3d6000fd5b505050506040513d601f19601f8201168201806040525081019061177091906125a7565b61178c5760405162461bcd60e51b8152600401610577906125c4565b604051635cd0bc7d60e01b8152600960048201526024810186905260448101859052606481018490526084810183905273__$47b88465a20692378cf12e8e0c338f01dd$__90635cd0bc7d9060a40160206040518083038186803b1580156117f357600080fd5b505af4158015611807573d6000803e3d6000fd5b505050506040513d601f19601f8201168201806040525081019061182b91906125a7565b95945050505050565b606060006118426001611a14565b905073__$ccb256085f563a601d001f7c9087d87207$__63088b9bf6826118696000611a14565b6040518363ffffffff1660e01b815260040161188692919061291b565b60006040518083038186803b15801561189e57600080fd5b505af41580156118b2573d6000803e3d6000fd5b505050506040513d6000823e601f3d908101601f191682016040526118da9190810190612940565b5060006118e76001612063565b905073__$ccb256085f563a601d001f7c9087d87207$__63088b9bf68261190e6000612063565b6040518363ffffffff1660e01b815260040161192b92919061291b565b60006040518083038186803b15801561194357600080fd5b505af4158015611957573d6000803e3d6000fd5b505050506040513d6000823e601f3d908101601f1916820160405261197f9190810190612940565b50604051630445cdfb60e11b815273__$ccb256085f563a601d001f7c9087d87207$__9063088b9bf6906119b9908590859060040161291b565b60006040518083038186803b1580156119d157600080fd5b505af41580156119e5573d6000803e3d6000fd5b505050506040513d6000823e601f3d908101601f19168201604052611a0d9190810190612940565b9250505090565b606081611aa85760405163034306e160e21b81526005600482015273__$8c1a4844a0a0988ea2454cf87145a95df1$__90630d0c1b84906024015b60006040518083038186803b158015611a6757600080fd5b505af4158015611a7b573d6000803e3d6000fd5b505050506040513d6000823e601f3d908101601f19168201604052611aa39190810190612940565b6108ef565b60405163034306e160e21b81526005600482015273__$8c1a4844a0a0988ea2454cf87145a95df1$__90630d0c1b84906024015b60006040518083038186803b158015611af457600080fd5b505af4158015611b08573d6000803e3d6000fd5b505050506040513d6000823e601f3d908101601f191682016040526108ef9190810190612940565b600082611b7657604051633f5f77cd60e01b8152600a60048201526024810183905273__$8c1a4844a0a0988ea2454cf87145a95df1$__90633f5f77cd90604401611207565b604051633f5f77cd60e01b8152600560048201526024810183905273__$8c1a4844a0a0988ea2454cf87145a95df1$__90633f5f77cd90604401611297565b611bbd612222565b81611bf1576000805260096020527fec8156718a8372b1db44bb411437d0870f3e3790d4a08526d024ce1b0b668f6d611c1c565b6000805260046020527f17ef568e3e12ab5b9c7254a8d58478811de00f9e6eb34345acd53bf8fd09d3ee5b6040805161010081018252915464ffffffffff8116835265ffffffffffff65010000000000820416602084015267ffffffffffffffff600160581b8204169183019190915260ff600160981b8204161515606083015261ffff600160a01b820481166080840152600160b01b82041660a083015263ffffffff600160c01b8204811660c0840152600160e01b9091041660e082015292915050565b604051636cdd0edf60e11b815260026004820152602481018590526001600160a01b038416604482015273__$364aad554dc80380f414546becdd2c1584$__9063d9ba1dbe9060640160006040518083038186803b158015611d1857600080fd5b505af4158015611d2c573d6000803e3d6000fd5b50505050611d3982612134565b611d42816121a7565b604080518581526001600160a01b038581166020830152848116828401528316606082015290517f3abb2418c66fe32ba9c883030a75ce583971d9af9192b9b74e44e67c5e6c8c1f9181900360800190a150505050565b604051633c3e56c160e11b81526002600482015260009073__$364aad554dc80380f414546becdd2c1584$__9063787cad829060240160206040518083038186803b158015611de757600080fd5b505af4158015611dfb573d6000803e3d6000fd5b505050506040513d601f19601f820116820180604052508101906104db919061297d565b600254600160f01b900460ff16600114611e7b5760405162461bcd60e51b815260206004820152601760248201527f41432e4c433a20446f632069732066696e616c697a65640000000000000000006044820152606401610577565b73__$364aad554dc80380f414546becdd2c1584$__63c51b295f6002684174746f726e65797360b81b611eac6120da565b6040516001600160e01b031960e086901b1681526004810193909352602483019190915264ffffffffff16604482015260640160006040518083038186803b158015611ef757600080fd5b505af4158015611f0b573d6000803e3d6000fd5b50505050600273__$364aad554dc80380f414546becdd2c1584$__639b4510de90916000611f376120da565b6040516001600160e01b031960e086901b1681526004810193909352602483019190915264ffffffffff16604482015260640160006040518083038186803b158015611f8257600080fd5b505af4158015611f96573d6000803e3d6000fd5b50505050600273__$364aad554dc80380f414546becdd2c1584$__639b48160c90916000611fc26120da565b6040516001600160e01b031960e086901b1681526004810193909352602483019190915264ffffffffff16604482015260640160006040518083038186803b15801561200d57600080fd5b505af4158015612021573d6000803e3d6000fd5b50506002805460ff60f01b1916600160f11b17905550506040517f35012b512309c322acf68632cd6cb702ff0e1d776fbe9394e38ffc13b434fe7590600090a1565b6060816120a25760405163034306e160e21b8152600c600482015273__$8c1a4844a0a0988ea2454cf87145a95df1$__90630d0c1b8490602401611a4f565b60405163034306e160e21b81526007600482015273__$8c1a4844a0a0988ea2454cf87145a95df1$__90630d0c1b8490602401611adc565b60008054604051636ae3b70d60e11b81523360048201526001600160a01b039091169063d5c76e1a90602401602060405180830381600087803b15801561212057600080fd5b505af11580156104b7573d6000803e3d6000fd5b6000546001600160a01b0316156121855760405162461bcd60e51b815260206004820152601560248201527430b63932b0b23c9039b2ba103932b3a1b2b73a32b960591b6044820152606401610577565b600080546001600160a01b0319166001600160a01b0392909216919091179055565b6001546001600160a01b0316156122005760405162461bcd60e51b815260206004820152601960248201527f616c7265616479207365742067656e6572616c4b6565706572000000000000006044820152606401610577565b600180546001600160a01b0319166001600160a01b0392909216919091179055565b6040805161010081018252600080825260208201819052918101829052606081018290526080810182905260a0810182905260c0810182905260e081019190915290565b801515811461227457600080fd5b50565b60008060006060848603121561228c57600080fd5b833561229781612266565b95602085013595506040909401359392505050565b600080604083850312156122bf57600080fd5b50508035926020909101359150565b6000602082840312156122e057600080fd5b81356112e781612266565b64ffffffffff815116825265ffffffffffff602082015116602083015267ffffffffffffffff604082015116604083015260608101511515606083015261ffff608082015116608083015260a081015161234b60a084018261ffff169052565b5060c081015161236360c084018263ffffffff169052565b5060e081015161066360e084018263ffffffff169052565b600081518084526020808501945080840160005b838110156123b6576123a28783516122eb565b61010096909601959082019060010161238f565b509495945050505050565b6040815260006123d4604083018561237b565b828103602084015261182b818561237b565b6000602082840312156123f857600080fd5b5035919050565b6000806040838503121561241257600080fd5b823561241d81612266565b946020939093013593505050565b600081518084526020808501945080840160005b838110156123b65781518752958201959082019060010161243f565b600061014080835261246f8184018761242b565b91505061247f60208301856122eb565b82610120830152949350505050565b6001600160a01b038116811461227457600080fd5b6000602082840312156124b557600080fd5b81356112e78161248e565b600080600080608085870312156124d657600080fd5b5050823594602084013594506040840135936060013592509050565b6020815260006112e7602083018461242b565b61010081016108ef82846122eb565b6000806000806080858703121561252a57600080fd5b84359350602085013561253c8161248e565b9250604085013561254c8161248e565b9150606085013561255c8161248e565b939692955090935050565b805164ffffffffff8116811461257c57600080fd5b919050565b60006020828403121561259357600080fd5b6112e782612567565b805161257c81612266565b6000602082840312156125b957600080fd5b81516112e781612266565b60208082526011908201527020a19737b59d103737ba1025b2b2b832b960791b604082015260600190565b634e487b7160e01b600052604160045260246000fd5b604051610100810167ffffffffffffffff81118282101715612629576126296125ef565b60405290565b604051601f8201601f1916810167ffffffffffffffff81118282101715612658576126586125ef565b604052919050565b600067ffffffffffffffff82111561267a5761267a6125ef565b5060051b60200190565b805167ffffffffffffffff8116811461257c57600080fd5b805161ffff8116811461257c57600080fd5b805163ffffffff8116811461257c57600080fd5b600061010082840312156126d557600080fd5b6126dd612605565b90506126e882612567565b8152602082015165ffffffffffff8116811461270357600080fd5b602082015261271460408301612684565b60408201526127256060830161259c565b60608201526127366080830161269c565b608082015261274760a0830161269c565b60a082015261275860c083016126ae565b60c082015261276960e083016126ae565b60e082015292915050565b600082601f83011261278557600080fd5b8151602061279a61279583612660565b61262f565b82815260089290921b840181019181810190868411156127b957600080fd5b8286015b848110156127de576127cf88826126c2565b835291830191610100016127bd565b509695505050505050565b600080604083850312156127fc57600080fd5b825167ffffffffffffffff8082111561281457600080fd5b61282086838701612774565b9350602085015191508082111561283657600080fd5b5061284385828601612774565b9150509250929050565b600082601f83011261285e57600080fd5b8151602061286e61279583612660565b82815260059290921b8401810191818101908684111561288d57600080fd5b8286015b848110156127de5780518352918301918301612891565b600080600061014084860312156128be57600080fd5b835167ffffffffffffffff8111156128d557600080fd5b6128e18682870161284d565b9350506128f185602086016126c2565b915061012084015190509250925092565b60006020828403121561291457600080fd5b5051919050565b60408152600061292e604083018561242b565b828103602084015261182b818561242b565b60006020828403121561295257600080fd5b815167ffffffffffffffff81111561296957600080fd5b6129758482850161284d565b949350505050565b60006020828403121561298f57600080fd5b81516112e78161248e56fea264697066735822122074ba7c41d8f1d836217d61d9ba2ab26eeaebc5815b75d9b95114147dbe32035b64736f6c63430008080033",
    "sourcePath": "/Users/kaptain/github.com/hardhat/comboox/contracts/common/components/SigPage.sol",
    "compiler": {
        "name": "solc",
        "version": "0.8.8+commit.dddeac2f"
    },
    "functionHashes": {
        "abandonRole(bytes32)": "3da9a600",
        "addBlank(bool,uint256,uint256)": "50a31ef9",
        "established()": "4844f541",
        "finalized()": "b3f05b97",
        "getBookeeper()": "ed211023",
        "getBuyers(bool)": "a959c69c",
        "getGeneralCounsel()": "103f6edd",
        "getOwner()": "893d20e8",
        "getParasOfPage(bool)": "ccb2f415",
        "getParties()": "a8311aa8",
        "getSellers(bool)": "f2724eb2",
        "getSigOfParty(bool,uint256)": "34367313",
        "getSigsOfPage(bool)": "25abe790",
        "grantRole(bytes32,uint256)": "1b6ea9f9",
        "hasRole(bytes32,uint256)": "7e063c5a",
        "init(uint256,address,address,address)": "dc890da9",
        "isBuyer(bool,uint256)": "b1152335",
        "isParty(uint256)": "8c5f9170",
        "isSeller(bool,uint256)": "51b171a3",
        "isSigner(uint256)": "28769ede",
        "lockContents()": "f045a769",
        "regSig(uint256,uint256,uint256,bytes32)": "a4052db4",
        "renounceRole(bytes32)": "8bb9c5bf",
        "revokeRole(bytes32,uint256)": "19d61ad9",
        "setDirectKeeper(address)": "6be8496f",
        "setGeneralCounsel(uint256)": "4a14beb1",
        "setOwner(uint256)": "8041494e",
        "setRoleAdmin(bytes32,uint256)": "5171ebd4",
        "setSigDeadline(bool,uint256)": "4ee4f422",
        "signDoc(bool,uint256,bytes32)": "1958ac5a"
    },
    "gasEstimates": {
        "creation": {
            "codeDepositCost": "2140800",
            "executionCost": "2280",
            "totalCost": "2143080"
        },
        "external": {
            "abandonRole(bytes32)": "infinite",
            "addBlank(bool,uint256,uint256)": "infinite",
            "established()": "infinite",
            "finalized()": "2416",
            "getBookeeper()": "infinite",
            "getBuyers(bool)": "infinite",
            "getGeneralCounsel()": "infinite",
            "getOwner()": "infinite",
            "getParasOfPage(bool)": "3516",
            "getParties()": "infinite",
            "getSellers(bool)": "infinite",
            "getSigOfParty(bool,uint256)": "infinite",
            "getSigsOfPage(bool)": "infinite",
            "grantRole(bytes32,uint256)": "infinite",
            "hasRole(bytes32,uint256)": "infinite",
            "init(uint256,address,address,address)": "infinite",
            "isBuyer(bool,uint256)": "infinite",
            "isParty(uint256)": "infinite",
            "isSeller(bool,uint256)": "infinite",
            "isSigner(uint256)": "infinite",
            "lockContents()": "infinite",
            "regSig(uint256,uint256,uint256,bytes32)": "infinite",
            "renounceRole(bytes32)": "infinite",
            "revokeRole(bytes32,uint256)": "infinite",
            "setDirectKeeper(address)": "infinite",
            "setGeneralCounsel(uint256)": "infinite",
            "setOwner(uint256)": "infinite",
            "setRoleAdmin(bytes32,uint256)": "infinite",
            "setSigDeadline(bool,uint256)": "infinite",
            "signDoc(bool,uint256,bytes32)": "infinite"
        }
    }
}