{
    "contractName": "SigPage",
    "abi": [
        {
            "anonymous": false,
            "inputs": [
                {
                    "indexed": false,
                    "internalType": "uint256",
                    "name": "owner",
                    "type": "uint256"
                },
                {
                    "indexed": false,
                    "internalType": "address",
                    "name": "directKeeper",
                    "type": "address"
                },
                {
                    "indexed": false,
                    "internalType": "address",
                    "name": "regCenter",
                    "type": "address"
                },
                {
                    "indexed": false,
                    "internalType": "address",
                    "name": "generalKeeper",
                    "type": "address"
                }
            ],
            "name": "Init",
            "type": "event"
        },
        {
            "anonymous": false,
            "inputs": [],
            "name": "LockContents",
            "type": "event"
        },
        {
            "anonymous": false,
            "inputs": [
                {
                    "indexed": false,
                    "internalType": "address",
                    "name": "keeper",
                    "type": "address"
                }
            ],
            "name": "SetDirectKeeper",
            "type": "event"
        },
        {
            "anonymous": false,
            "inputs": [
                {
                    "indexed": false,
                    "internalType": "uint256",
                    "name": "acct",
                    "type": "uint256"
                }
            ],
            "name": "SetGeneralCounsel",
            "type": "event"
        },
        {
            "anonymous": false,
            "inputs": [
                {
                    "indexed": false,
                    "internalType": "address",
                    "name": "gk",
                    "type": "address"
                }
            ],
            "name": "SetGeneralKeeper",
            "type": "event"
        },
        {
            "anonymous": false,
            "inputs": [
                {
                    "indexed": false,
                    "internalType": "uint256",
                    "name": "acct",
                    "type": "uint256"
                }
            ],
            "name": "SetOwner",
            "type": "event"
        },
        {
            "anonymous": false,
            "inputs": [
                {
                    "indexed": false,
                    "internalType": "address",
                    "name": "rc",
                    "type": "address"
                }
            ],
            "name": "SetRegCenter",
            "type": "event"
        },
        {
            "anonymous": false,
            "inputs": [
                {
                    "indexed": false,
                    "internalType": "bool",
                    "name": "initPage",
                    "type": "bool"
                },
                {
                    "indexed": false,
                    "internalType": "uint48",
                    "name": "SigDeadline",
                    "type": "uint48"
                }
            ],
            "name": "SetSigDeadline",
            "type": "event"
        },
        {
            "inputs": [
                {
                    "internalType": "bytes32",
                    "name": "role",
                    "type": "bytes32"
                }
            ],
            "name": "abandonRole",
            "outputs": [],
            "stateMutability": "nonpayable",
            "type": "function"
        },
        {
            "inputs": [],
            "name": "established",
            "outputs": [
                {
                    "internalType": "bool",
                    "name": "flag",
                    "type": "bool"
                }
            ],
            "stateMutability": "view",
            "type": "function"
        },
        {
            "inputs": [],
            "name": "finalized",
            "outputs": [
                {
                    "internalType": "bool",
                    "name": "",
                    "type": "bool"
                }
            ],
            "stateMutability": "view",
            "type": "function"
        },
        {
            "inputs": [],
            "name": "getBookeeper",
            "outputs": [
                {
                    "internalType": "address",
                    "name": "",
                    "type": "address"
                }
            ],
            "stateMutability": "view",
            "type": "function"
        },
        {
            "inputs": [
                {
                    "internalType": "bool",
                    "name": "initPage",
                    "type": "bool"
                }
            ],
            "name": "getBuyers",
            "outputs": [
                {
                    "internalType": "uint256[]",
                    "name": "buyers",
                    "type": "uint256[]"
                }
            ],
            "stateMutability": "view",
            "type": "function"
        },
        {
            "inputs": [],
            "name": "getGeneralCounsel",
            "outputs": [
                {
                    "internalType": "uint40",
                    "name": "",
                    "type": "uint40"
                }
            ],
            "stateMutability": "view",
            "type": "function"
        },
        {
            "inputs": [],
            "name": "getOwner",
            "outputs": [
                {
                    "internalType": "uint40",
                    "name": "",
                    "type": "uint40"
                }
            ],
            "stateMutability": "view",
            "type": "function"
        },
        {
            "inputs": [
                {
                    "internalType": "bool",
                    "name": "initPage",
                    "type": "bool"
                }
            ],
            "name": "getParasOfPage",
            "outputs": [
                {
                    "components": [
                        {
                            "internalType": "uint40",
                            "name": "signer",
                            "type": "uint40"
                        },
                        {
                            "internalType": "uint48",
                            "name": "sigDate",
                            "type": "uint48"
                        },
                        {
                            "internalType": "uint64",
                            "name": "blocknumber",
                            "type": "uint64"
                        },
                        {
                            "internalType": "bytes32",
                            "name": "sigHash",
                            "type": "bytes32"
                        }
                    ],
                    "internalType": "struct SigsRepo.Signature",
                    "name": "",
                    "type": "tuple"
                }
            ],
            "stateMutability": "view",
            "type": "function"
        },
        {
            "inputs": [
                {
                    "internalType": "bool",
                    "name": "initPage",
                    "type": "bool"
                }
            ],
            "name": "getSellers",
            "outputs": [
                {
                    "internalType": "uint256[]",
                    "name": "sellers",
                    "type": "uint256[]"
                }
            ],
            "stateMutability": "view",
            "type": "function"
        },
        {
            "inputs": [
                {
                    "internalType": "bool",
                    "name": "initPage",
                    "type": "bool"
                },
                {
                    "internalType": "uint256",
                    "name": "acct",
                    "type": "uint256"
                }
            ],
            "name": "getSigOfParty",
            "outputs": [
                {
                    "internalType": "uint256[]",
                    "name": "seqOfDeals",
                    "type": "uint256[]"
                },
                {
                    "components": [
                        {
                            "internalType": "uint40",
                            "name": "signer",
                            "type": "uint40"
                        },
                        {
                            "internalType": "uint48",
                            "name": "sigDate",
                            "type": "uint48"
                        },
                        {
                            "internalType": "uint64",
                            "name": "blocknumber",
                            "type": "uint64"
                        },
                        {
                            "internalType": "bytes32",
                            "name": "sigHash",
                            "type": "bytes32"
                        }
                    ],
                    "internalType": "struct SigsRepo.Signature",
                    "name": "sig",
                    "type": "tuple"
                }
            ],
            "stateMutability": "view",
            "type": "function"
        },
        {
            "inputs": [
                {
                    "internalType": "bool",
                    "name": "initPage",
                    "type": "bool"
                }
            ],
            "name": "getSigsOfPage",
            "outputs": [
                {
                    "components": [
                        {
                            "internalType": "uint40",
                            "name": "signer",
                            "type": "uint40"
                        },
                        {
                            "internalType": "uint48",
                            "name": "sigDate",
                            "type": "uint48"
                        },
                        {
                            "internalType": "uint64",
                            "name": "blocknumber",
                            "type": "uint64"
                        },
                        {
                            "internalType": "bytes32",
                            "name": "sigHash",
                            "type": "bytes32"
                        }
                    ],
                    "internalType": "struct SigsRepo.Signature[]",
                    "name": "sigsOfBuyer",
                    "type": "tuple[]"
                },
                {
                    "components": [
                        {
                            "internalType": "uint40",
                            "name": "signer",
                            "type": "uint40"
                        },
                        {
                            "internalType": "uint48",
                            "name": "sigDate",
                            "type": "uint48"
                        },
                        {
                            "internalType": "uint64",
                            "name": "blocknumber",
                            "type": "uint64"
                        },
                        {
                            "internalType": "bytes32",
                            "name": "sigHash",
                            "type": "bytes32"
                        }
                    ],
                    "internalType": "struct SigsRepo.Signature[]",
                    "name": "sigsOfSeller",
                    "type": "tuple[]"
                }
            ],
            "stateMutability": "view",
            "type": "function"
        },
        {
            "inputs": [
                {
                    "internalType": "bytes32",
                    "name": "role",
                    "type": "bytes32"
                },
                {
                    "internalType": "uint256",
                    "name": "acct",
                    "type": "uint256"
                }
            ],
            "name": "grantRole",
            "outputs": [],
            "stateMutability": "nonpayable",
            "type": "function"
        },
        {
            "inputs": [
                {
                    "internalType": "bytes32",
                    "name": "role",
                    "type": "bytes32"
                },
                {
                    "internalType": "uint256",
                    "name": "acct",
                    "type": "uint256"
                }
            ],
            "name": "hasRole",
            "outputs": [
                {
                    "internalType": "bool",
                    "name": "",
                    "type": "bool"
                }
            ],
            "stateMutability": "view",
            "type": "function"
        },
        {
            "inputs": [
                {
                    "internalType": "uint256",
                    "name": "owner",
                    "type": "uint256"
                },
                {
                    "internalType": "address",
                    "name": "directKeeper",
                    "type": "address"
                },
                {
                    "internalType": "address",
                    "name": "regCenter",
                    "type": "address"
                },
                {
                    "internalType": "address",
                    "name": "generalKeeper",
                    "type": "address"
                }
            ],
            "name": "init",
            "outputs": [],
            "stateMutability": "nonpayable",
            "type": "function"
        },
        {
            "inputs": [
                {
                    "internalType": "bool",
                    "name": "initPage",
                    "type": "bool"
                },
                {
                    "internalType": "uint256",
                    "name": "acct",
                    "type": "uint256"
                }
            ],
            "name": "isBuyer",
            "outputs": [
                {
                    "internalType": "bool",
                    "name": "flag",
                    "type": "bool"
                }
            ],
            "stateMutability": "view",
            "type": "function"
        },
        {
            "inputs": [
                {
                    "internalType": "bool",
                    "name": "initPage",
                    "type": "bool"
                },
                {
                    "internalType": "uint256",
                    "name": "acct",
                    "type": "uint256"
                }
            ],
            "name": "isParty",
            "outputs": [
                {
                    "internalType": "bool",
                    "name": "flag",
                    "type": "bool"
                }
            ],
            "stateMutability": "view",
            "type": "function"
        },
        {
            "inputs": [
                {
                    "internalType": "bool",
                    "name": "initPage",
                    "type": "bool"
                },
                {
                    "internalType": "uint256",
                    "name": "acct",
                    "type": "uint256"
                }
            ],
            "name": "isSeller",
            "outputs": [
                {
                    "internalType": "bool",
                    "name": "flag",
                    "type": "bool"
                }
            ],
            "stateMutability": "view",
            "type": "function"
        },
        {
            "inputs": [
                {
                    "internalType": "bool",
                    "name": "initPage",
                    "type": "bool"
                },
                {
                    "internalType": "uint256",
                    "name": "acct",
                    "type": "uint256"
                }
            ],
            "name": "isSigner",
            "outputs": [
                {
                    "internalType": "bool",
                    "name": "flag",
                    "type": "bool"
                }
            ],
            "stateMutability": "view",
            "type": "function"
        },
        {
            "inputs": [],
            "name": "lockContents",
            "outputs": [],
            "stateMutability": "nonpayable",
            "type": "function"
        },
        {
            "inputs": [
                {
                    "internalType": "bytes32",
                    "name": "role",
                    "type": "bytes32"
                }
            ],
            "name": "renounceRole",
            "outputs": [],
            "stateMutability": "nonpayable",
            "type": "function"
        },
        {
            "inputs": [
                {
                    "internalType": "bytes32",
                    "name": "role",
                    "type": "bytes32"
                },
                {
                    "internalType": "uint256",
                    "name": "acct",
                    "type": "uint256"
                }
            ],
            "name": "revokeRole",
            "outputs": [],
            "stateMutability": "nonpayable",
            "type": "function"
        },
        {
            "inputs": [
                {
                    "internalType": "address",
                    "name": "keeper",
                    "type": "address"
                }
            ],
            "name": "setDirectKeeper",
            "outputs": [],
            "stateMutability": "nonpayable",
            "type": "function"
        },
        {
            "inputs": [
                {
                    "internalType": "uint256",
                    "name": "acct",
                    "type": "uint256"
                }
            ],
            "name": "setGeneralCounsel",
            "outputs": [],
            "stateMutability": "nonpayable",
            "type": "function"
        },
        {
            "inputs": [
                {
                    "internalType": "uint256",
                    "name": "acct",
                    "type": "uint256"
                }
            ],
            "name": "setOwner",
            "outputs": [],
            "stateMutability": "nonpayable",
            "type": "function"
        },
        {
            "inputs": [
                {
                    "internalType": "bytes32",
                    "name": "role",
                    "type": "bytes32"
                },
                {
                    "internalType": "uint256",
                    "name": "acct",
                    "type": "uint256"
                }
            ],
            "name": "setRoleAdmin",
            "outputs": [],
            "stateMutability": "nonpayable",
            "type": "function"
        },
        {
            "inputs": [
                {
                    "internalType": "bool",
                    "name": "initPage",
                    "type": "bool"
                },
                {
                    "internalType": "uint48",
                    "name": "sigDeadline",
                    "type": "uint48"
                }
            ],
            "name": "setSigDeadline",
            "outputs": [],
            "stateMutability": "nonpayable",
            "type": "function"
        },
        {
            "inputs": [
                {
                    "internalType": "bool",
                    "name": "initPage",
                    "type": "bool"
                },
                {
                    "internalType": "uint256",
                    "name": "caller",
                    "type": "uint256"
                },
                {
                    "internalType": "bytes32",
                    "name": "sigHash",
                    "type": "bytes32"
                }
            ],
            "name": "signDoc",
            "outputs": [],
            "stateMutability": "nonpayable",
            "type": "function"
        }
    ],
    "bytecode": "608060405234801561001057600080fd5b506123c5806100206000396000f3fe608060405234801561001057600080fd5b50600436106101a95760003560e01c80636be8496f116100f9578063b3f05b9711610097578063dc890da911610071578063dc890da9146103a6578063ed211023146103b9578063f045a769146103d9578063f2724eb2146103e157600080fd5b8063b3f05b971461035f578063cb2123e414610373578063ccb2f4151461038657600080fd5b8063893d20e8116100d3578063893d20e8146103115780638bb9c5bf14610319578063a959c69c1461032c578063b11523351461034c57600080fd5b80636be8496f146102d85780637e063c5a146102eb5780638041494e146102fe57600080fd5b806334367313116101665780634844f541116101405780634844f541146102975780634a14beb11461029f5780635171ebd4146102b257806351b171a3146102c557600080fd5b806334367313146102405780633da9a60014610261578063460a0d0b1461027457600080fd5b8063103f6edd146101ae5780631958ac5a146101d157806319d61ad9146101e65780631b6ea9f9146101f957806325abe7901461020c5780632e4c9cd51461022d575b600080fd5b6101b66103f4565b60405164ffffffffff90911681526020015b60405180910390f35b6101e46101df366004611d07565b610480565b005b6101e46101f4366004611d3c565b610611565b6101e4610207366004611d3c565b6106a5565b61021f61021a366004611d5e565b6106ca565b6040516101c8929190611dff565b6101e461023b366004611e41565b61077c565b61025361024e366004611e7a565b6109a5565b6040516101c8929190611ed6565b6101e461026f366004611ef8565b610a84565b610287610282366004611e7a565b610b96565b60405190151581526020016101c8565b610287610bb9565b6101e46102ad366004611ef8565b610d8a565b6101e46102c0366004611d3c565b610f7a565b6102876102d3366004611e7a565b610f9f565b6101e46102e6366004611f26565b6110c1565b6102876102f9366004611d3c565b611173565b6101e461030c366004611ef8565b6111c2565b6101b66113a7565b6101e4610327366004611ef8565b6113e2565b61033f61033a366004611d5e565b61143b565b6040516101c89190611f43565b61028761035a366004611e7a565b611557565b60028054600160f01b900460ff1614610287565b610287610381366004611e7a565b6115dc565b610399610394366004611d5e565b611660565b6040516101c89190611f56565b6101e46103b4366004611f64565b611738565b6103c161181b565b6040516001600160a01b0390911681526020016101c8565b6101e46118a1565b61033f6103ef366004611d5e565b611abf565b60405163e8c0cc1d60e01b81526002600482015260009073__$364aad554dc80380f414546becdd2c1584$__9063e8c0cc1d906024015b60206040518083038186803b15801561044357600080fd5b505af4158015610457573d6000803e3d6000fd5b505050506040513d601f19601f8201168201806040525081019061047b9190611fd1565b905090565b604051633b11adbf60e21b81526002600482015233602482015273__$364aad554dc80380f414546becdd2c1584$__9063ec46b6fc9060440160206040518083038186803b1580156104d157600080fd5b505af41580156104e5573d6000803e3d6000fd5b505050506040513d601f19601f820116820180604052508101906105099190611fec565b61052e5760405162461bcd60e51b815260040161052590612009565b60405180910390fd5b82156105cb576040516368c2325360e01b8152600481810152602481018390526044810182905273__$47b88465a20692378cf12e8e0c338f01dd$__906368c23253906064015b60206040518083038186803b15801561058d57600080fd5b505af41580156105a1573d6000803e3d6000fd5b505050506040513d601f19601f820116820180604052508101906105c59190611fec565b50505050565b6040516368c2325360e01b815260096004820152602481018390526044810182905273__$47b88465a20692378cf12e8e0c338f01dd$__906368c2325390606401610575565b73__$364aad554dc80380f414546becdd2c1584$__6382daafaa600284610636611b36565b6040516001600160e01b031960e086901b1681526004810193909352602483019190915264ffffffffff166044820152606481018490526084015b60006040518083038186803b15801561068957600080fd5b505af415801561069d573d6000803e3d6000fd5b505050505050565b73__$364aad554dc80380f414546becdd2c1584$__636320d75e600284610636611b36565b606080821561077357600460005b6005020173__$47b88465a20692378cf12e8e0c338f01dd$__63c018ec8790916040518263ffffffff1660e01b815260040161071691815260200190565b60006040518083038186803b15801561072e57600080fd5b505af4158015610742573d6000803e3d6000fd5b505050506040513d6000823e601f3d908101601f1916820160405261076a91908101906121b8565b91509150915091565b600460016106d8565b73__$364aad554dc80380f414546becdd2c1584$__63a8ef95ac6002684174746f726e65797360b81b6107ad611b36565b6040516001600160e01b031960e086901b1681526004810193909352602483019190915264ffffffffff16604482015260640160206040518083038186803b1580156107f857600080fd5b505af415801561080c573d6000803e3d6000fd5b505050506040513d601f19601f820116820180604052508101906108309190611fec565b6108725760405162461bcd60e51b815260206004820152601360248201527241432e6f743a206e6f74204174746f726e657960681b6044820152606401610525565b81156108ed57604051635284fe6760e11b815260048181015265ffffffffffff8216602482015273__$47b88465a20692378cf12e8e0c338f01dd$__9063a509fcce9060440160006040518083038186803b1580156108d057600080fd5b505af41580156108e4573d6000803e3d6000fd5b5050505061095f565b604051635284fe6760e11b81526009600482015265ffffffffffff8216602482015273__$47b88465a20692378cf12e8e0c338f01dd$__9063a509fcce9060440160006040518083038186803b15801561094657600080fd5b505af415801561095a573d6000803e3d6000fd5b505050505b60408051831515815265ffffffffffff831660208201527f523844b7b23204192ed69d6efc62131f2a86a16ecf1326fd0084e459b31cb62d910160405180910390a15050565b604080516080810182526000808252602082018190529181018290526060818101929092528315610a7457600460005b604051630b5b0ad560e01b81526005919091029190910160048201526024810184905273__$47b88465a20692378cf12e8e0c338f01dd$__90630b5b0ad59060440160006040518083038186803b158015610a2f57600080fd5b505af4158015610a43573d6000803e3d6000fd5b505050506040513d6000823e601f3d908101601f19168201604052610a6b9190810190612277565b91509150610a7d565b600460016109d5565b9250929050565b604051633b11adbf60e21b81526002600482015233602482015273__$364aad554dc80380f414546becdd2c1584$__9063ec46b6fc9060440160206040518083038186803b158015610ad557600080fd5b505af4158015610ae9573d6000803e3d6000fd5b505050506040513d601f19601f82011682018060405250810190610b0d9190611fec565b610b295760405162461bcd60e51b815260040161052590612009565b60405163cc99e11b60e01b8152600260048201526024810182905273__$364aad554dc80380f414546becdd2c1584$__9063cc99e11b9060440160006040518083038186803b158015610b7b57600080fd5b505af4158015610b8f573d6000803e3d6000fd5b5050505050565b6000610ba28383611557565b80610bb25750610bb28383610f9f565b9392505050565b60405163c2b46a8560e01b8152600a6004820152600090819073__$8c1a4844a0a0988ea2454cf87145a95df1$__9063c2b46a859060240160206040518083038186803b158015610c0957600080fd5b505af4158015610c1d573d6000803e3d6000fd5b505050506040513d601f19601f82011682018060405250810190610c4191906122c6565b11610cc9576040516318a7841360e11b815260048181015273__$47b88465a20692378cf12e8e0c338f01dd$__9063314f0826906024015b60206040518083038186803b158015610c9157600080fd5b505af4158015610ca5573d6000803e3d6000fd5b505050506040513d601f19601f8201168201806040525081019061047b9190611fec565b6040516318a7841360e11b81526009600482015273__$47b88465a20692378cf12e8e0c338f01dd$__9063314f08269060240160206040518083038186803b158015610d1457600080fd5b505af4158015610d28573d6000803e3d6000fd5b505050506040513d601f19601f82011682018060405250810190610d4c9190611fec565b801561047b57506040516318a7841360e11b815260048181015273__$47b88465a20692378cf12e8e0c338f01dd$__9063314f082690602401610c79565b604051633b11adbf60e21b81526002600482015233602482015273__$364aad554dc80380f414546becdd2c1584$__9063ec46b6fc9060440160206040518083038186803b158015610ddb57600080fd5b505af4158015610def573d6000803e3d6000fd5b505050506040513d601f19601f82011682018060405250810190610e139190611fec565b80610eb8575073__$364aad554dc80380f414546becdd2c1584$__63fe2710866002610e3d611b36565b6040516001600160e01b031960e085901b168152600481019290925264ffffffffff16602482015260440160206040518083038186803b158015610e8057600080fd5b505af4158015610e94573d6000803e3d6000fd5b505050506040513d601f19601f82011682018060405250810190610eb89190611fec565b610ed45760405162461bcd60e51b8152600401610525906122df565b604051632725ebef60e21b8152600260048201526024810182905273__$364aad554dc80380f414546becdd2c1584$__90639c97afbc9060440160006040518083038186803b158015610f2657600080fd5b505af4158015610f3a573d6000803e3d6000fd5b505050507ff2735f34b69be1e6342dea95f9162f84d0db925fab655ca9f1f312ac8cbfc99d81604051610f6f91815260200190565b60405180910390a150565b73__$364aad554dc80380f414546becdd2c1584$__63ee98b313600284610636611b36565b60008261103657604051633f5f77cd60e01b8152600c60048201526024810183905273__$8c1a4844a0a0988ea2454cf87145a95df1$__90633f5f77cd906044015b60206040518083038186803b158015610ff957600080fd5b505af415801561100d573d6000803e3d6000fd5b505050506040513d601f19601f820116820180604052508101906110319190611fec565b610bb2565b604051633f5f77cd60e01b8152600760048201526024810183905273__$8c1a4844a0a0988ea2454cf87145a95df1$__90633f5f77cd906044015b60206040518083038186803b15801561108957600080fd5b505af415801561109d573d6000803e3d6000fd5b505050506040513d601f19601f82011682018060405250810190610bb29190611fec565b604051630f07232560e01b8152600260048201523360248201526001600160a01b038216604482015273__$364aad554dc80380f414546becdd2c1584$__90630f0723259060640160006040518083038186803b15801561112157600080fd5b505af4158015611135573d6000803e3d6000fd5b50506040516001600160a01b03841681527fe435cbeab64e4eae6497b9d8289704bd709d624a80704ef3ca9af777534bc6ec92506020019050610f6f565b604051632a3be56b60e21b815260026004820152602481018390526044810182905260009073__$364aad554dc80380f414546becdd2c1584$__9063a8ef95ac90606401611071565b92915050565b604051633b11adbf60e21b81526002600482015233602482015273__$364aad554dc80380f414546becdd2c1584$__9063ec46b6fc9060440160206040518083038186803b15801561121357600080fd5b505af4158015611227573d6000803e3d6000fd5b505050506040513d601f19601f8201168201806040525081019061124b9190611fec565b806112f0575073__$364aad554dc80380f414546becdd2c1584$__63fe2710866002611275611b36565b6040516001600160e01b031960e085901b168152600481019290925264ffffffffff16602482015260440160206040518083038186803b1580156112b857600080fd5b505af41580156112cc573d6000803e3d6000fd5b505050506040513d601f19601f820116820180604052508101906112f09190611fec565b61130c5760405162461bcd60e51b8152600401610525906122df565b60405163b6e38a2960e01b8152600260048201526024810182905273__$364aad554dc80380f414546becdd2c1584$__9063b6e38a299060440160006040518083038186803b15801561135e57600080fd5b505af4158015611372573d6000803e3d6000fd5b505050507f8b6f40f36b4ae8cc5f55e895036457c43da4ab1f80f58c46f5ff0d72a650033b81604051610f6f91815260200190565b60405163987ad15360e01b81526002600482015260009073__$364aad554dc80380f414546becdd2c1584$__9063987ad1539060240161042b565b60006113ec611b36565b60405163cc0d511b60e01b8152600260048201526024810184905264ffffffffff8216604482015290915073__$364aad554dc80380f414546becdd2c1584$__9063cc0d511b90606401610671565b6060816114cf5760405163034306e160e21b81526005600482015273__$8c1a4844a0a0988ea2454cf87145a95df1$__90630d0c1b84906024015b60006040518083038186803b15801561148e57600080fd5b505af41580156114a2573d6000803e3d6000fd5b505050506040513d6000823e601f3d908101601f191682016040526114ca9190810190612335565b6111bc565b60405163034306e160e21b81526005600482015273__$8c1a4844a0a0988ea2454cf87145a95df1$__90630d0c1b84906024015b60006040518083038186803b15801561151b57600080fd5b505af415801561152f573d6000803e3d6000fd5b505050506040513d6000823e601f3d908101601f191682016040526111bc9190810190612335565b60008261159d57604051633f5f77cd60e01b8152600a60048201526024810183905273__$8c1a4844a0a0988ea2454cf87145a95df1$__90633f5f77cd90604401610fe1565b604051633f5f77cd60e01b8152600560048201526024810183905273__$8c1a4844a0a0988ea2454cf87145a95df1$__90633f5f77cd90604401611071565b600082611622576040516324d431a360e01b8152600960048201526024810183905273__$47b88465a20692378cf12e8e0c338f01dd$__906324d431a390604401610fe1565b6040516324d431a360e01b81526004818101526024810183905273__$47b88465a20692378cf12e8e0c338f01dd$__906324d431a390604401611071565b604080516080810182526000808252602082018190529181018290526060810191909152816116b8576000805260096020527fec8156718a8372b1db44bb411437d0870f3e3790d4a08526d024ce1b0b668f6d6116e3565b6000805260046020527f17ef568e3e12ab5b9c7254a8d58478811de00f9e6eb34345acd53bf8fd09d3ee5b60408051608081018252825464ffffffffff8116825265010000000000810465ffffffffffff166020830152600160581b900467ffffffffffffffff1691810191909152600190910154606082015292915050565b61174182611b90565b61174a81611c3f565b604051636cdd0edf60e11b815260026004820152602481018590526001600160a01b038416604482015273__$364aad554dc80380f414546becdd2c1584$__9063d9ba1dbe9060640160006040518083038186803b1580156117ab57600080fd5b505af41580156117bf573d6000803e3d6000fd5b5050604080518781526001600160a01b038781166020830152868116828401528516606082015290517f3abb2418c66fe32ba9c883030a75ce583971d9af9192b9b74e44e67c5e6c8c1f9350908190036080019150a150505050565b604051633c3e56c160e11b81526002600482015260009073__$364aad554dc80380f414546becdd2c1584$__9063787cad829060240160206040518083038186803b15801561186957600080fd5b505af415801561187d573d6000803e3d6000fd5b505050506040513d601f19601f8201168201806040525081019061047b9190612372565b604051633b11adbf60e21b81526002600482015233602482015273__$364aad554dc80380f414546becdd2c1584$__9063ec46b6fc9060440160206040518083038186803b1580156118f257600080fd5b505af4158015611906573d6000803e3d6000fd5b505050506040513d601f19601f8201168201806040525081019061192a9190611fec565b6119465760405162461bcd60e51b815260040161052590612009565b600254600160f01b900460ff166001146119a25760405162461bcd60e51b815260206004820181905260248201527f41432e6f6e6c7950656e64696e673a20446f632069732066696e616c697a65646044820152606401610525565b60405163cc99e11b60e01b815260026004820152684174746f726e65797360b81b602482015273__$364aad554dc80380f414546becdd2c1584$__9063cc99e11b9060440160006040518083038186803b1580156119ff57600080fd5b505af4158015611a13573d6000803e3d6000fd5b5050604051632725ebef60e21b8152600260048201526000602482015273__$364aad554dc80380f414546becdd2c1584$__9250639c97afbc915060440160006040518083038186803b158015611a6957600080fd5b505af4158015611a7d573d6000803e3d6000fd5b50506002805460ff60f01b1916600160f11b17905550506040517f35012b512309c322acf68632cd6cb702ff0e1d776fbe9394e38ffc13b434fe7590600090a1565b606081611afe5760405163034306e160e21b8152600c600482015273__$8c1a4844a0a0988ea2454cf87145a95df1$__90630d0c1b8490602401611476565b60405163034306e160e21b81526007600482015273__$8c1a4844a0a0988ea2454cf87145a95df1$__90630d0c1b8490602401611503565b60008054604051634de835e760e11b81523360048201526001600160a01b0390911690639bd06bce90602401602060405180830381600087803b158015611b7c57600080fd5b505af1158015610457573d6000803e3d6000fd5b6000546001600160a01b031615611be15760405162461bcd60e51b815260206004820152601560248201527430b63932b0b23c9039b2ba103932b3a1b2b73a32b960591b6044820152606401610525565b6040516001600160a01b03821681527f318da6c7624c71cbc0afe346c9d8827f119d0ecefb241a7b0c87217a076a8e029060200160405180910390a1600080546001600160a01b0319166001600160a01b0392909216919091179055565b6001546001600160a01b031615611c985760405162461bcd60e51b815260206004820152601960248201527f616c7265616479207365742067656e6572616c4b6565706572000000000000006044820152606401610525565b6040516001600160a01b03821681527fe513d3e0f0d0a3877029dcc588748679a7a3450ec1ec7ed56d96bd012c3e61aa9060200160405180910390a1600180546001600160a01b0319166001600160a01b0392909216919091179055565b8015158114611d0457600080fd5b50565b600080600060608486031215611d1c57600080fd5b8335611d2781611cf6565b95602085013595506040909401359392505050565b60008060408385031215611d4f57600080fd5b50508035926020909101359150565b600060208284031215611d7057600080fd5b8135610bb281611cf6565b64ffffffffff815116825265ffffffffffff602082015116602083015267ffffffffffffffff6040820151166040830152606081015160608301525050565b600081518084526020808501945080840160005b83811015611df457611de1878351611d7b565b6080969096019590820190600101611dce565b509495945050505050565b604081526000611e126040830185611dba565b8281036020840152611e248185611dba565b95945050505050565b65ffffffffffff81168114611d0457600080fd5b60008060408385031215611e5457600080fd5b8235611e5f81611cf6565b91506020830135611e6f81611e2d565b809150509250929050565b60008060408385031215611e8d57600080fd5b8235611e9881611cf6565b946020939093013593505050565b600081518084526020808501945080840160005b83811015611df457815187529582019590820190600101611eba565b60a081526000611ee960a0830185611ea6565b9050610bb26020830184611d7b565b600060208284031215611f0a57600080fd5b5035919050565b6001600160a01b0381168114611d0457600080fd5b600060208284031215611f3857600080fd5b8135610bb281611f11565b602081526000610bb26020830184611ea6565b608081016111bc8284611d7b565b60008060008060808587031215611f7a57600080fd5b843593506020850135611f8c81611f11565b92506040850135611f9c81611f11565b91506060850135611fac81611f11565b939692955090935050565b805164ffffffffff81168114611fcc57600080fd5b919050565b600060208284031215611fe357600080fd5b610bb282611fb7565b600060208284031215611ffe57600080fd5b8151610bb281611cf6565b60208082526026908201527f41432e6f6e6c794469726563744b65657065723a206e6f74206469726563742060408201526535b2b2b832b960d11b606082015260800190565b634e487b7160e01b600052604160045260246000fd5b604051601f8201601f1916810167ffffffffffffffff8111828210171561208e5761208e61204f565b604052919050565b600067ffffffffffffffff8211156120b0576120b061204f565b5060051b60200190565b6000608082840312156120cc57600080fd5b6040516080810167ffffffffffffffff82821081831117156120f0576120f061204f565b8160405282935061210085611fb7565b83526020850151915061211282611e2d565b81602084015260408501519150808216821461212d57600080fd5b506040820152606092830151920191909152919050565b600082601f83011261215557600080fd5b8151602061216a61216583612096565b612065565b82815260079290921b8401810191818101908684111561218957600080fd5b8286015b848110156121ad5761219f88826120ba565b83529183019160800161218d565b509695505050505050565b600080604083850312156121cb57600080fd5b825167ffffffffffffffff808211156121e357600080fd5b6121ef86838701612144565b9350602085015191508082111561220557600080fd5b5061221285828601612144565b9150509250929050565b600082601f83011261222d57600080fd5b8151602061223d61216583612096565b82815260059290921b8401810191818101908684111561225c57600080fd5b8286015b848110156121ad5780518352918301918301612260565b60008060a0838503121561228a57600080fd5b825167ffffffffffffffff8111156122a157600080fd5b6122ad8582860161221c565b9250506122bd84602085016120ba565b90509250929050565b6000602082840312156122d857600080fd5b5051919050565b60208082526036908201527f41432e6f776e65724f72446972656374426f6f6b65657065723a206e6569746860408201527532b91037bbb732b9103737b9103137b7b5b2b2b832b960511b606082015260800190565b60006020828403121561234757600080fd5b815167ffffffffffffffff81111561235e57600080fd5b61236a8482850161221c565b949350505050565b60006020828403121561238457600080fd5b8151610bb281611f1156fea26469706673582212205f2e1425b983d26530f0338c76d4fd38c6884fc2d09b823065a51c8fd7722a7e64736f6c63430008080033",
    "sourcePath": "/Users/kaptain/github.com/hardhat/comboox/contracts/common/components/SigPage.sol",
    "compiler": {
        "name": "solc",
        "version": "0.8.8+commit.dddeac2f"
    },
    "functionHashes": {
        "abandonRole(bytes32)": "3da9a600",
        "established()": "4844f541",
        "finalized()": "b3f05b97",
        "getBookeeper()": "ed211023",
        "getBuyers(bool)": "a959c69c",
        "getGeneralCounsel()": "103f6edd",
        "getOwner()": "893d20e8",
        "getParasOfPage(bool)": "ccb2f415",
        "getSellers(bool)": "f2724eb2",
        "getSigOfParty(bool,uint256)": "34367313",
        "getSigsOfPage(bool)": "25abe790",
        "grantRole(bytes32,uint256)": "1b6ea9f9",
        "hasRole(bytes32,uint256)": "7e063c5a",
        "init(uint256,address,address,address)": "dc890da9",
        "isBuyer(bool,uint256)": "b1152335",
        "isParty(bool,uint256)": "460a0d0b",
        "isSeller(bool,uint256)": "51b171a3",
        "isSigner(bool,uint256)": "cb2123e4",
        "lockContents()": "f045a769",
        "renounceRole(bytes32)": "8bb9c5bf",
        "revokeRole(bytes32,uint256)": "19d61ad9",
        "setDirectKeeper(address)": "6be8496f",
        "setGeneralCounsel(uint256)": "4a14beb1",
        "setOwner(uint256)": "8041494e",
        "setRoleAdmin(bytes32,uint256)": "5171ebd4",
        "setSigDeadline(bool,uint48)": "2e4c9cd5",
        "signDoc(bool,uint256,bytes32)": "1958ac5a"
    },
    "gasEstimates": {
        "creation": {
            "codeDepositCost": "1831400",
            "executionCost": "1933",
            "totalCost": "1833333"
        },
        "external": {
            "abandonRole(bytes32)": "infinite",
            "established()": "infinite",
            "finalized()": "2372",
            "getBookeeper()": "infinite",
            "getBuyers(bool)": "infinite",
            "getGeneralCounsel()": "infinite",
            "getOwner()": "infinite",
            "getParasOfPage(bool)": "5112",
            "getSellers(bool)": "infinite",
            "getSigOfParty(bool,uint256)": "infinite",
            "getSigsOfPage(bool)": "infinite",
            "grantRole(bytes32,uint256)": "infinite",
            "hasRole(bytes32,uint256)": "infinite",
            "init(uint256,address,address,address)": "infinite",
            "isBuyer(bool,uint256)": "infinite",
            "isParty(bool,uint256)": "infinite",
            "isSeller(bool,uint256)": "infinite",
            "isSigner(bool,uint256)": "infinite",
            "lockContents()": "infinite",
            "renounceRole(bytes32)": "infinite",
            "revokeRole(bytes32,uint256)": "infinite",
            "setDirectKeeper(address)": "infinite",
            "setGeneralCounsel(uint256)": "infinite",
            "setOwner(uint256)": "infinite",
            "setRoleAdmin(bytes32,uint256)": "infinite",
            "setSigDeadline(bool,uint48)": "infinite",
            "signDoc(bool,uint256,bytes32)": "infinite"
        }
    }
}