{
    "contractName": "SigPage",
    "abi": [
        {
            "anonymous": false,
            "inputs": [],
            "name": "CirculateDoc",
            "type": "event"
        },
        {
            "anonymous": false,
            "inputs": [
                {
                    "indexed": false,
                    "internalType": "uint256",
                    "name": "owner",
                    "type": "uint256"
                },
                {
                    "indexed": false,
                    "internalType": "address",
                    "name": "directKeeper",
                    "type": "address"
                },
                {
                    "indexed": false,
                    "internalType": "address",
                    "name": "regCenter",
                    "type": "address"
                },
                {
                    "indexed": false,
                    "internalType": "address",
                    "name": "generalKeeper",
                    "type": "address"
                }
            ],
            "name": "Init",
            "type": "event"
        },
        {
            "anonymous": false,
            "inputs": [],
            "name": "LockContents",
            "type": "event"
        },
        {
            "anonymous": false,
            "inputs": [
                {
                    "indexed": false,
                    "internalType": "uint256",
                    "name": "signingDays",
                    "type": "uint256"
                },
                {
                    "indexed": false,
                    "internalType": "uint256",
                    "name": "closingDays",
                    "type": "uint256"
                }
            ],
            "name": "SetDeadline",
            "type": "event"
        },
        {
            "anonymous": false,
            "inputs": [
                {
                    "indexed": false,
                    "internalType": "address",
                    "name": "keeper",
                    "type": "address"
                }
            ],
            "name": "SetDirectKeeper",
            "type": "event"
        },
        {
            "anonymous": false,
            "inputs": [
                {
                    "indexed": false,
                    "internalType": "uint256",
                    "name": "acct",
                    "type": "uint256"
                }
            ],
            "name": "SetGeneralCounsel",
            "type": "event"
        },
        {
            "anonymous": false,
            "inputs": [
                {
                    "indexed": false,
                    "internalType": "uint256",
                    "name": "acct",
                    "type": "uint256"
                }
            ],
            "name": "SetOwner",
            "type": "event"
        },
        {
            "inputs": [
                {
                    "internalType": "bytes32",
                    "name": "role",
                    "type": "bytes32"
                }
            ],
            "name": "abandonRole",
            "outputs": [],
            "stateMutability": "nonpayable",
            "type": "function"
        },
        {
            "inputs": [
                {
                    "internalType": "bool",
                    "name": "beBuyer",
                    "type": "bool"
                },
                {
                    "internalType": "uint256",
                    "name": "seqOfDeal",
                    "type": "uint256"
                },
                {
                    "internalType": "uint256",
                    "name": "acct",
                    "type": "uint256"
                }
            ],
            "name": "addBlank",
            "outputs": [],
            "stateMutability": "nonpayable",
            "type": "function"
        },
        {
            "inputs": [],
            "name": "circulateDoc",
            "outputs": [],
            "stateMutability": "nonpayable",
            "type": "function"
        },
        {
            "inputs": [],
            "name": "circulated",
            "outputs": [
                {
                    "internalType": "bool",
                    "name": "",
                    "type": "bool"
                }
            ],
            "stateMutability": "view",
            "type": "function"
        },
        {
            "inputs": [],
            "name": "established",
            "outputs": [
                {
                    "internalType": "bool",
                    "name": "flag",
                    "type": "bool"
                }
            ],
            "stateMutability": "view",
            "type": "function"
        },
        {
            "inputs": [],
            "name": "finalized",
            "outputs": [
                {
                    "internalType": "bool",
                    "name": "",
                    "type": "bool"
                }
            ],
            "stateMutability": "view",
            "type": "function"
        },
        {
            "inputs": [],
            "name": "getBookeeper",
            "outputs": [
                {
                    "internalType": "address",
                    "name": "",
                    "type": "address"
                }
            ],
            "stateMutability": "view",
            "type": "function"
        },
        {
            "inputs": [
                {
                    "internalType": "bool",
                    "name": "initPage",
                    "type": "bool"
                }
            ],
            "name": "getBuyers",
            "outputs": [
                {
                    "internalType": "uint256[]",
                    "name": "buyers",
                    "type": "uint256[]"
                }
            ],
            "stateMutability": "view",
            "type": "function"
        },
        {
            "inputs": [],
            "name": "getClosingDays",
            "outputs": [
                {
                    "internalType": "uint16",
                    "name": "",
                    "type": "uint16"
                }
            ],
            "stateMutability": "view",
            "type": "function"
        },
        {
            "inputs": [],
            "name": "getClosingDeadline",
            "outputs": [
                {
                    "internalType": "uint48",
                    "name": "",
                    "type": "uint48"
                }
            ],
            "stateMutability": "view",
            "type": "function"
        },
        {
            "inputs": [],
            "name": "getGeneralCounsel",
            "outputs": [
                {
                    "internalType": "uint40",
                    "name": "",
                    "type": "uint40"
                }
            ],
            "stateMutability": "view",
            "type": "function"
        },
        {
            "inputs": [],
            "name": "getOwner",
            "outputs": [
                {
                    "internalType": "uint40",
                    "name": "",
                    "type": "uint40"
                }
            ],
            "stateMutability": "view",
            "type": "function"
        },
        {
            "inputs": [
                {
                    "internalType": "bool",
                    "name": "initPage",
                    "type": "bool"
                }
            ],
            "name": "getParasOfPage",
            "outputs": [
                {
                    "components": [
                        {
                            "internalType": "uint40",
                            "name": "signer",
                            "type": "uint40"
                        },
                        {
                            "internalType": "uint48",
                            "name": "sigDate",
                            "type": "uint48"
                        },
                        {
                            "internalType": "uint64",
                            "name": "blocknumber",
                            "type": "uint64"
                        },
                        {
                            "internalType": "bool",
                            "name": "flag",
                            "type": "bool"
                        },
                        {
                            "internalType": "uint16",
                            "name": "para",
                            "type": "uint16"
                        },
                        {
                            "internalType": "uint16",
                            "name": "arg",
                            "type": "uint16"
                        },
                        {
                            "internalType": "uint16",
                            "name": "seq",
                            "type": "uint16"
                        },
                        {
                            "internalType": "uint16",
                            "name": "attr",
                            "type": "uint16"
                        },
                        {
                            "internalType": "uint32",
                            "name": "data",
                            "type": "uint32"
                        }
                    ],
                    "internalType": "struct SigsRepo.Signature",
                    "name": "",
                    "type": "tuple"
                }
            ],
            "stateMutability": "view",
            "type": "function"
        },
        {
            "inputs": [],
            "name": "getParties",
            "outputs": [
                {
                    "internalType": "uint256[]",
                    "name": "parties",
                    "type": "uint256[]"
                }
            ],
            "stateMutability": "view",
            "type": "function"
        },
        {
            "inputs": [
                {
                    "internalType": "bool",
                    "name": "initPage",
                    "type": "bool"
                }
            ],
            "name": "getSellers",
            "outputs": [
                {
                    "internalType": "uint256[]",
                    "name": "sellers",
                    "type": "uint256[]"
                }
            ],
            "stateMutability": "view",
            "type": "function"
        },
        {
            "inputs": [],
            "name": "getSigDeadline",
            "outputs": [
                {
                    "internalType": "uint48",
                    "name": "",
                    "type": "uint48"
                }
            ],
            "stateMutability": "view",
            "type": "function"
        },
        {
            "inputs": [
                {
                    "internalType": "bool",
                    "name": "initPage",
                    "type": "bool"
                },
                {
                    "internalType": "uint256",
                    "name": "acct",
                    "type": "uint256"
                }
            ],
            "name": "getSigOfParty",
            "outputs": [
                {
                    "internalType": "uint256[]",
                    "name": "seqOfDeals",
                    "type": "uint256[]"
                },
                {
                    "components": [
                        {
                            "internalType": "uint40",
                            "name": "signer",
                            "type": "uint40"
                        },
                        {
                            "internalType": "uint48",
                            "name": "sigDate",
                            "type": "uint48"
                        },
                        {
                            "internalType": "uint64",
                            "name": "blocknumber",
                            "type": "uint64"
                        },
                        {
                            "internalType": "bool",
                            "name": "flag",
                            "type": "bool"
                        },
                        {
                            "internalType": "uint16",
                            "name": "para",
                            "type": "uint16"
                        },
                        {
                            "internalType": "uint16",
                            "name": "arg",
                            "type": "uint16"
                        },
                        {
                            "internalType": "uint16",
                            "name": "seq",
                            "type": "uint16"
                        },
                        {
                            "internalType": "uint16",
                            "name": "attr",
                            "type": "uint16"
                        },
                        {
                            "internalType": "uint32",
                            "name": "data",
                            "type": "uint32"
                        }
                    ],
                    "internalType": "struct SigsRepo.Signature",
                    "name": "sig",
                    "type": "tuple"
                },
                {
                    "internalType": "bytes32",
                    "name": "sigHash",
                    "type": "bytes32"
                }
            ],
            "stateMutability": "view",
            "type": "function"
        },
        {
            "inputs": [],
            "name": "getSigningDays",
            "outputs": [
                {
                    "internalType": "uint16",
                    "name": "",
                    "type": "uint16"
                }
            ],
            "stateMutability": "view",
            "type": "function"
        },
        {
            "inputs": [
                {
                    "internalType": "bool",
                    "name": "initPage",
                    "type": "bool"
                }
            ],
            "name": "getSigsOfPage",
            "outputs": [
                {
                    "components": [
                        {
                            "internalType": "uint40",
                            "name": "signer",
                            "type": "uint40"
                        },
                        {
                            "internalType": "uint48",
                            "name": "sigDate",
                            "type": "uint48"
                        },
                        {
                            "internalType": "uint64",
                            "name": "blocknumber",
                            "type": "uint64"
                        },
                        {
                            "internalType": "bool",
                            "name": "flag",
                            "type": "bool"
                        },
                        {
                            "internalType": "uint16",
                            "name": "para",
                            "type": "uint16"
                        },
                        {
                            "internalType": "uint16",
                            "name": "arg",
                            "type": "uint16"
                        },
                        {
                            "internalType": "uint16",
                            "name": "seq",
                            "type": "uint16"
                        },
                        {
                            "internalType": "uint16",
                            "name": "attr",
                            "type": "uint16"
                        },
                        {
                            "internalType": "uint32",
                            "name": "data",
                            "type": "uint32"
                        }
                    ],
                    "internalType": "struct SigsRepo.Signature[]",
                    "name": "sigsOfBuyer",
                    "type": "tuple[]"
                },
                {
                    "components": [
                        {
                            "internalType": "uint40",
                            "name": "signer",
                            "type": "uint40"
                        },
                        {
                            "internalType": "uint48",
                            "name": "sigDate",
                            "type": "uint48"
                        },
                        {
                            "internalType": "uint64",
                            "name": "blocknumber",
                            "type": "uint64"
                        },
                        {
                            "internalType": "bool",
                            "name": "flag",
                            "type": "bool"
                        },
                        {
                            "internalType": "uint16",
                            "name": "para",
                            "type": "uint16"
                        },
                        {
                            "internalType": "uint16",
                            "name": "arg",
                            "type": "uint16"
                        },
                        {
                            "internalType": "uint16",
                            "name": "seq",
                            "type": "uint16"
                        },
                        {
                            "internalType": "uint16",
                            "name": "attr",
                            "type": "uint16"
                        },
                        {
                            "internalType": "uint32",
                            "name": "data",
                            "type": "uint32"
                        }
                    ],
                    "internalType": "struct SigsRepo.Signature[]",
                    "name": "sigsOfSeller",
                    "type": "tuple[]"
                }
            ],
            "stateMutability": "view",
            "type": "function"
        },
        {
            "inputs": [
                {
                    "internalType": "bytes32",
                    "name": "role",
                    "type": "bytes32"
                },
                {
                    "internalType": "uint256",
                    "name": "acct",
                    "type": "uint256"
                }
            ],
            "name": "grantRole",
            "outputs": [],
            "stateMutability": "nonpayable",
            "type": "function"
        },
        {
            "inputs": [
                {
                    "internalType": "bytes32",
                    "name": "role",
                    "type": "bytes32"
                },
                {
                    "internalType": "uint256",
                    "name": "acct",
                    "type": "uint256"
                }
            ],
            "name": "hasRole",
            "outputs": [
                {
                    "internalType": "bool",
                    "name": "",
                    "type": "bool"
                }
            ],
            "stateMutability": "view",
            "type": "function"
        },
        {
            "inputs": [
                {
                    "internalType": "uint256",
                    "name": "owner",
                    "type": "uint256"
                },
                {
                    "internalType": "address",
                    "name": "directKeeper",
                    "type": "address"
                },
                {
                    "internalType": "address",
                    "name": "regCenter",
                    "type": "address"
                },
                {
                    "internalType": "address",
                    "name": "generalKeeper",
                    "type": "address"
                }
            ],
            "name": "init",
            "outputs": [],
            "stateMutability": "nonpayable",
            "type": "function"
        },
        {
            "inputs": [
                {
                    "internalType": "bool",
                    "name": "initPage",
                    "type": "bool"
                },
                {
                    "internalType": "uint256",
                    "name": "acct",
                    "type": "uint256"
                }
            ],
            "name": "isBuyer",
            "outputs": [
                {
                    "internalType": "bool",
                    "name": "flag",
                    "type": "bool"
                }
            ],
            "stateMutability": "view",
            "type": "function"
        },
        {
            "inputs": [
                {
                    "internalType": "uint256",
                    "name": "acct",
                    "type": "uint256"
                }
            ],
            "name": "isParty",
            "outputs": [
                {
                    "internalType": "bool",
                    "name": "flag",
                    "type": "bool"
                }
            ],
            "stateMutability": "view",
            "type": "function"
        },
        {
            "inputs": [
                {
                    "internalType": "bool",
                    "name": "initPage",
                    "type": "bool"
                },
                {
                    "internalType": "uint256",
                    "name": "acct",
                    "type": "uint256"
                }
            ],
            "name": "isSeller",
            "outputs": [
                {
                    "internalType": "bool",
                    "name": "flag",
                    "type": "bool"
                }
            ],
            "stateMutability": "view",
            "type": "function"
        },
        {
            "inputs": [
                {
                    "internalType": "uint256",
                    "name": "acct",
                    "type": "uint256"
                }
            ],
            "name": "isSigner",
            "outputs": [
                {
                    "internalType": "bool",
                    "name": "flag",
                    "type": "bool"
                }
            ],
            "stateMutability": "view",
            "type": "function"
        },
        {
            "inputs": [],
            "name": "lockContents",
            "outputs": [],
            "stateMutability": "nonpayable",
            "type": "function"
        },
        {
            "inputs": [
                {
                    "internalType": "uint256",
                    "name": "seqOfDeal",
                    "type": "uint256"
                },
                {
                    "internalType": "uint256",
                    "name": "signer",
                    "type": "uint256"
                },
                {
                    "internalType": "uint256",
                    "name": "sigDate",
                    "type": "uint256"
                },
                {
                    "internalType": "bytes32",
                    "name": "sigHash",
                    "type": "bytes32"
                }
            ],
            "name": "regSig",
            "outputs": [
                {
                    "internalType": "bool",
                    "name": "flag",
                    "type": "bool"
                }
            ],
            "stateMutability": "nonpayable",
            "type": "function"
        },
        {
            "inputs": [
                {
                    "internalType": "bytes32",
                    "name": "role",
                    "type": "bytes32"
                }
            ],
            "name": "renounceRole",
            "outputs": [],
            "stateMutability": "nonpayable",
            "type": "function"
        },
        {
            "inputs": [
                {
                    "internalType": "bytes32",
                    "name": "role",
                    "type": "bytes32"
                },
                {
                    "internalType": "uint256",
                    "name": "acct",
                    "type": "uint256"
                }
            ],
            "name": "revokeRole",
            "outputs": [],
            "stateMutability": "nonpayable",
            "type": "function"
        },
        {
            "inputs": [
                {
                    "internalType": "uint256",
                    "name": "signingDays",
                    "type": "uint256"
                },
                {
                    "internalType": "uint256",
                    "name": "closingDays",
                    "type": "uint256"
                }
            ],
            "name": "setDeadline",
            "outputs": [],
            "stateMutability": "nonpayable",
            "type": "function"
        },
        {
            "inputs": [
                {
                    "internalType": "address",
                    "name": "keeper",
                    "type": "address"
                }
            ],
            "name": "setDirectKeeper",
            "outputs": [],
            "stateMutability": "nonpayable",
            "type": "function"
        },
        {
            "inputs": [
                {
                    "internalType": "uint256",
                    "name": "acct",
                    "type": "uint256"
                }
            ],
            "name": "setGeneralCounsel",
            "outputs": [],
            "stateMutability": "nonpayable",
            "type": "function"
        },
        {
            "inputs": [
                {
                    "internalType": "uint256",
                    "name": "acct",
                    "type": "uint256"
                }
            ],
            "name": "setOwner",
            "outputs": [],
            "stateMutability": "nonpayable",
            "type": "function"
        },
        {
            "inputs": [
                {
                    "internalType": "bytes32",
                    "name": "role",
                    "type": "bytes32"
                },
                {
                    "internalType": "uint256",
                    "name": "acct",
                    "type": "uint256"
                }
            ],
            "name": "setRoleAdmin",
            "outputs": [],
            "stateMutability": "nonpayable",
            "type": "function"
        },
        {
            "inputs": [
                {
                    "internalType": "bool",
                    "name": "initPage",
                    "type": "bool"
                },
                {
                    "internalType": "uint256",
                    "name": "caller",
                    "type": "uint256"
                },
                {
                    "internalType": "bytes32",
                    "name": "sigHash",
                    "type": "bytes32"
                }
            ],
            "name": "signDoc",
            "outputs": [
                {
                    "internalType": "bool",
                    "name": "",
                    "type": "bool"
                }
            ],
            "stateMutability": "nonpayable",
            "type": "function"
        }
    ],
    "bytecode": "608060405234801561001057600080fd5b50612d3d806100206000396000f3fe608060405234801561001057600080fd5b506004361061021b5760003560e01c80635b041ead11610125578063a8311aa8116100ad578063ccb2f4151161007c578063ccb2f41514610481578063dc890da9146104a1578063ed211023146104b4578063f045a769146104d4578063f2724eb2146104dc57600080fd5b8063a8311aa814610432578063a959c69c14610447578063b11523351461045a578063b3f05b971461046d57600080fd5b8063893d20e8116100f4578063893d20e8146103e95780638bb9c5bf146103f15780638c5f9170146104045780638d6a31d414610417578063a4052db41461041f57600080fd5b80635b041ead146103a85780636be8496f146103b05780637e063c5a146103c35780638041494e146103d657600080fd5b806334367313116101a85780635041de82116101775780635041de821461034c57806350a31ef9146103675780635171ebd41461037a57806351b171a31461038d57806357330fd2146103a057600080fd5b806334367313146102fc5780633da9a6001461031e5780634844f541146103315780634a14beb11461033957600080fd5b806319d61ad9116101ef57806319d61ad91461029a5780631b6ea9f9146102ad5780631c315ec6146102c057806325abe790146102c857806328769ede146102e957600080fd5b80629a0b3014610220578063103f6edd1461023557806315711620146102585780631958ac5a14610277575b600080fd5b61023361022e36600461254f565b6104ef565b005b61023d610698565b60405164ffffffffff90911681526020015b60405180910390f35b610260610724565b60405165ffffffffffff909116815260200161024f565b61028a610285366004612582565b6107aa565b604051901515815260200161024f565b6102336102a836600461254f565b6108fd565b6102336102bb36600461254f565b61098f565b61028a6109b5565b6102db6102d63660046125b7565b610a3b565b60405161024f9291906126d1565b61028a6102f73660046126f6565b610aed565b61030f61030a36600461270f565b610c10565b60405161024f9392919061276b565b61023361032c3660046126f6565b610cd8565b61028a610d63565b6102336103473660046126f6565b610ee8565b610354611145565b60405161ffff909116815260200161024f565b610233610375366004612582565b6111cb565b61023361038836600461254f565b6112e0565b61028a61039b36600461270f565b611306565b610260611428565b610233611462565b6102336103be3660046127b3565b611586565b61028a6103d136600461254f565b611638565b6102336103e43660046126f6565b611681565b61023d61173a565b6102336103ff3660046126f6565b611775565b61028a6104123660046126f6565b61179a565b61035461198c565b61028a61042d3660046127d0565b6119c6565b61043a611b06565b60405161024f9190612802565b61043a6104553660046125b7565b611ce6565b61028a61046836600461270f565b611e02565b60028054600160f01b900460ff161461028a565b61049461048f3660046125b7565b611e87565b60405161024f9190612815565b6102336104af366004612824565b611f98565b6104bc61207a565b6040516001600160a01b03909116815260200161024f565b610233612100565b61043a6104ea3660046125b7565b612344565b73__$364aad554dc80380f414546becdd2c1584$__63a8ef95ac6002684174746f726e65797360b81b6105206123bb565b6040516001600160e01b031960e086901b1681526004810193909352602483019190915264ffffffffff16604482015260640160206040518083038186803b15801561056b57600080fd5b505af415801561057f573d6000803e3d6000fd5b505050506040513d601f19601f820116820180604052508101906105a39190612887565b6105ea5760405162461bcd60e51b815260206004820152601360248201527241432e6f743a206e6f74204174746f726e657960681b60448201526064015b60405180910390fd5b60405163489f5f5960e01b8152600481810152602481018390526044810182905273__$47b88465a20692378cf12e8e0c338f01dd$__9063489f5f599060640160006040518083038186803b15801561064257600080fd5b505af4158015610656573d6000803e3d6000fd5b505060408051858152602081018590527f13d4af45b94d2742fb374afd916c2095bf9f35bf4ffaf4f5a59e83a1e734160e935001905060405180910390a15050565b60405163e8c0cc1d60e01b81526002600482015260009073__$364aad554dc80380f414546becdd2c1584$__9063e8c0cc1d906024015b60206040518083038186803b1580156106e757600080fd5b505af41580156106fb573d6000803e3d6000fd5b505050506040513d601f19601f8201168201806040525081019061071f91906128b9565b905090565b6040516361a92f2160e11b815260048181015260009073__$47b88465a20692378cf12e8e0c338f01dd$__9063c3525e42906024015b60206040518083038186803b15801561077257600080fd5b505af4158015610786573d6000803e3d6000fd5b505050506040513d601f19601f8201168201806040525081019061071f91906128ea565b6001546040516335d2155560e11b81523360048201526000916001600160a01b031690636ba42aaa9060240160206040518083038186803b1580156107ee57600080fd5b505afa158015610802573d6000803e3d6000fd5b505050506040513d601f19601f820116820180604052508101906108269190612887565b6108425760405162461bcd60e51b81526004016105e190612905565b83156108ed57600460005b6040516368c2325360e01b8152600591909102919091016004820152602481018490526044810183905273__$47b88465a20692378cf12e8e0c338f01dd$__906368c232539060640160206040518083038186803b1580156108ae57600080fd5b505af41580156108c2573d6000803e3d6000fd5b505050506040513d601f19601f820116820180604052508101906108e69190612887565b90506108f6565b6004600161084d565b9392505050565b73__$364aad554dc80380f414546becdd2c1584$__6382daafaa600284846109236123bb565b6040516001600160e01b031960e087901b16815260048101949094526024840192909252604483015264ffffffffff16606482015260840160006040518083038186803b15801561097357600080fd5b505af4158015610987573d6000803e3d6000fd5b505050505050565b73__$364aad554dc80380f414546becdd2c1584$__636320d75e600284846109236123bb565b60405163370143a760e21b815260048181015260009073__$47b88465a20692378cf12e8e0c338f01dd$__9063dc050e9c906024015b60206040518083038186803b158015610a0357600080fd5b505af4158015610a17573d6000803e3d6000fd5b505050506040513d601f19601f8201168201806040525081019061071f9190612887565b6060808215610ae457600460005b6005020173__$47b88465a20692378cf12e8e0c338f01dd$__63c018ec8790916040518263ffffffff1660e01b8152600401610a8791815260200190565b60006040518083038186803b158015610a9f57600080fd5b505af4158015610ab3573d6000803e3d6000fd5b505050506040513d6000823e601f3d908101601f19168201604052610adb9190810190612b30565b91509150915091565b60046001610a49565b6040516324d431a360e01b81526004818101526024810182905260009073__$47b88465a20692378cf12e8e0c338f01dd$__906324d431a39060440160206040518083038186803b158015610b4157600080fd5b505af4158015610b55573d6000803e3d6000fd5b505050506040513d601f19601f82011682018060405250810190610b799190612887565b80610c0a57506040516324d431a360e01b8152600960048201526024810183905273__$47b88465a20692378cf12e8e0c338f01dd$__906324d431a3906044015b60206040518083038186803b158015610bd257600080fd5b505af4158015610be6573d6000803e3d6000fd5b505050506040513d601f19601f82011682018060405250810190610c0a9190612887565b92915050565b6060610c1a612503565b60008415610cc857600460005b604051630b5b0ad560e01b81526005919091029190910160048201526024810185905273__$47b88465a20692378cf12e8e0c338f01dd$__90630b5b0ad59060440160006040518083038186803b158015610c8157600080fd5b505af4158015610c95573d6000803e3d6000fd5b505050506040513d6000823e601f3d908101601f19168201604052610cbd9190810190612bfa565b925092509250610cd1565b60046001610c27565b9250925092565b73__$364aad554dc80380f414546becdd2c1584$__63c51b295f600283610cfd6123bb565b6040516001600160e01b031960e086901b1681526004810193909352602483019190915264ffffffffff16604482015260640160006040518083038186803b158015610d4857600080fd5b505af4158015610d5c573d6000803e3d6000fd5b5050505050565b60405163c2b46a8560e01b8152600a6004820152600090819073__$8c1a4844a0a0988ea2454cf87145a95df1$__9063c2b46a859060240160206040518083038186803b158015610db357600080fd5b505af4158015610dc7573d6000803e3d6000fd5b505050506040513d601f19601f82011682018060405250810190610deb9190612c54565b11610e27576040516318a7841360e11b815260048181015273__$47b88465a20692378cf12e8e0c338f01dd$__9063314f0826906024016109eb565b6040516318a7841360e11b81526009600482015273__$47b88465a20692378cf12e8e0c338f01dd$__9063314f08269060240160206040518083038186803b158015610e7257600080fd5b505af4158015610e86573d6000803e3d6000fd5b505050506040513d601f19601f82011682018060405250810190610eaa9190612887565b801561071f57506040516318a7841360e11b815260048181015273__$47b88465a20692378cf12e8e0c338f01dd$__9063314f0826906024016109eb565b604051633b11adbf60e21b81526002600482015233602482015273__$364aad554dc80380f414546becdd2c1584$__9063ec46b6fc9060440160206040518083038186803b158015610f3957600080fd5b505af4158015610f4d573d6000803e3d6000fd5b505050506040513d601f19601f82011682018060405250810190610f719190612887565b80611016575073__$364aad554dc80380f414546becdd2c1584$__63fe2710866002610f9b6123bb565b6040516001600160e01b031960e085901b168152600481019290925264ffffffffff16602482015260440160206040518083038186803b158015610fde57600080fd5b505af4158015610ff2573d6000803e3d6000fd5b505050506040513d601f19601f820116820180604052508101906110169190612887565b6110815760405162461bcd60e51b815260206004820152603660248201527f41432e6f776e65724f72446972656374426f6f6b65657065723a206e6569746860448201527532b91037bbb732b9103737b9103137b7b5b2b2b832b960511b60648201526084016105e1565b73__$364aad554dc80380f414546becdd2c1584$__639b4510de6002836110a66123bb565b6040516001600160e01b031960e086901b1681526004810193909352602483019190915264ffffffffff16604482015260640160006040518083038186803b1580156110f157600080fd5b505af4158015611105573d6000803e3d6000fd5b505050507ff2735f34b69be1e6342dea95f9162f84d0db925fab655ca9f1f312ac8cbfc99d8160405161113a91815260200190565b60405180910390a150565b604051633143387560e21b815260048181015260009073__$47b88465a20692378cf12e8e0c338f01dd$__9063c50ce1d4906024015b60206040518083038186803b15801561119357600080fd5b505af41580156111a7573d6000803e3d6000fd5b505050506040513d601f19601f8201168201806040525081019061071f9190612c6d565b6001546040516335d2155560e11b81523360048201526001600160a01b0390911690636ba42aaa9060240160206040518083038186803b15801561120e57600080fd5b505afa158015611222573d6000803e3d6000fd5b505050506040513d601f19601f820116820180604052508101906112469190612887565b6112625760405162461bcd60e51b81526004016105e190612905565b604051630dfb57ab60e11b8152600960048201528315156024820152604481018390526064810182905273__$47b88465a20692378cf12e8e0c338f01dd$__90631bf6af569060840160006040518083038186803b1580156112c357600080fd5b505af41580156112d7573d6000803e3d6000fd5b50505050505050565b73__$364aad554dc80380f414546becdd2c1584$__63ee98b313600284846109236123bb565b60008261139d57604051633f5f77cd60e01b8152600c60048201526024810183905273__$8c1a4844a0a0988ea2454cf87145a95df1$__90633f5f77cd906044015b60206040518083038186803b15801561136057600080fd5b505af4158015611374573d6000803e3d6000fd5b505050506040513d601f19601f820116820180604052508101906113989190612887565b6108f6565b604051633f5f77cd60e01b8152600760048201526024810183905273__$8c1a4844a0a0988ea2454cf87145a95df1$__90633f5f77cd906044015b60206040518083038186803b1580156113f057600080fd5b505af4158015611404573d6000803e3d6000fd5b505050506040513d601f19601f820116820180604052508101906108f69190612887565b604051631197dba160e11b815260048181015260009073__$47b88465a20692378cf12e8e0c338f01dd$__9063232fb7429060240161075a565b6001546040516335d2155560e11b81523360048201526001600160a01b0390911690636ba42aaa9060240160206040518083038186803b1580156114a557600080fd5b505afa1580156114b9573d6000803e3d6000fd5b505050506040513d601f19601f820116820180604052508101906114dd9190612887565b6114f95760405162461bcd60e51b81526004016105e190612905565b60405163089ee29f60e01b815260048181015273__$47b88465a20692378cf12e8e0c338f01dd$__9063089ee29f9060240160006040518083038186803b15801561154357600080fd5b505af4158015611557573d6000803e3d6000fd5b50506040517fcd75a8458a0b82026b91f38cb5901e89ba19145af6cfe114527e789b707018df925060009150a1565b604051630f07232560e01b8152600260048201526001600160a01b038216602482015233604482015273__$364aad554dc80380f414546becdd2c1584$__90630f0723259060640160006040518083038186803b1580156115e657600080fd5b505af41580156115fa573d6000803e3d6000fd5b50506040516001600160a01b03841681527fe435cbeab64e4eae6497b9d8289704bd709d624a80704ef3ca9af777534bc6ec9250602001905061113a565b604051632a3be56b60e21b815260026004820152602481018390526044810182905260009073__$364aad554dc80380f414546becdd2c1584$__9063a8ef95ac906064016113d8565b73__$364aad554dc80380f414546becdd2c1584$__639b48160c6002836116a66123bb565b6040516001600160e01b031960e086901b1681526004810193909352602483019190915264ffffffffff16604482015260640160006040518083038186803b1580156116f157600080fd5b505af4158015611705573d6000803e3d6000fd5b505050507f8b6f40f36b4ae8cc5f55e895036457c43da4ab1f80f58c46f5ff0d72a650033b8160405161113a91815260200190565b60405163987ad15360e01b81526002600482015260009073__$364aad554dc80380f414546becdd2c1584$__9063987ad153906024016106cf565b73__$364aad554dc80380f414546becdd2c1584$__63cc0d511b600283610cfd6123bb565b604051633f5f77cd60e01b8152600560048201526024810182905260009073__$8c1a4844a0a0988ea2454cf87145a95df1$__90633f5f77cd9060440160206040518083038186803b1580156117ef57600080fd5b505af4158015611803573d6000803e3d6000fd5b505050506040513d601f19601f820116820180604052508101906118279190612887565b806118b75750604051633f5f77cd60e01b8152600760048201526024810183905273__$8c1a4844a0a0988ea2454cf87145a95df1$__90633f5f77cd9060440160206040518083038186803b15801561187f57600080fd5b505af4158015611893573d6000803e3d6000fd5b505050506040513d601f19601f820116820180604052508101906118b79190612887565b806119475750604051633f5f77cd60e01b8152600a60048201526024810183905273__$8c1a4844a0a0988ea2454cf87145a95df1$__90633f5f77cd9060440160206040518083038186803b15801561190f57600080fd5b505af4158015611923573d6000803e3d6000fd5b505050506040513d601f19601f820116820180604052508101906119479190612887565b80610c0a5750604051633f5f77cd60e01b8152600c60048201526024810183905273__$8c1a4844a0a0988ea2454cf87145a95df1$__90633f5f77cd90604401610bba565b604051630310ebfb60e21b815260048181015260009073__$47b88465a20692378cf12e8e0c338f01dd$__90630c43afec9060240161117b565b6001546040516335d2155560e11b81523360048201526000916001600160a01b031690636ba42aaa9060240160206040518083038186803b158015611a0a57600080fd5b505afa158015611a1e573d6000803e3d6000fd5b505050506040513d601f19601f82011682018060405250810190611a429190612887565b611a5e5760405162461bcd60e51b81526004016105e190612905565b604051635cd0bc7d60e01b8152600960048201526024810186905260448101859052606481018490526084810183905273__$47b88465a20692378cf12e8e0c338f01dd$__90635cd0bc7d9060a40160206040518083038186803b158015611ac557600080fd5b505af4158015611ad9573d6000803e3d6000fd5b505050506040513d601f19601f82011682018060405250810190611afd9190612887565b95945050505050565b60606000611b146001611ce6565b905073__$ccb256085f563a601d001f7c9087d87207$__63088b9bf682611b3b6000611ce6565b6040518363ffffffff1660e01b8152600401611b58929190612c88565b60006040518083038186803b158015611b7057600080fd5b505af4158015611b84573d6000803e3d6000fd5b505050506040513d6000823e601f3d908101601f19168201604052611bac9190810190612cad565b506000611bb96001612344565b905073__$ccb256085f563a601d001f7c9087d87207$__63088b9bf682611be06000612344565b6040518363ffffffff1660e01b8152600401611bfd929190612c88565b60006040518083038186803b158015611c1557600080fd5b505af4158015611c29573d6000803e3d6000fd5b505050506040513d6000823e601f3d908101601f19168201604052611c519190810190612cad565b50604051630445cdfb60e11b815273__$ccb256085f563a601d001f7c9087d87207$__9063088b9bf690611c8b9085908590600401612c88565b60006040518083038186803b158015611ca357600080fd5b505af4158015611cb7573d6000803e3d6000fd5b505050506040513d6000823e601f3d908101601f19168201604052611cdf9190810190612cad565b9250505090565b606081611d7a5760405163034306e160e21b81526005600482015273__$8c1a4844a0a0988ea2454cf87145a95df1$__90630d0c1b84906024015b60006040518083038186803b158015611d3957600080fd5b505af4158015611d4d573d6000803e3d6000fd5b505050506040513d6000823e601f3d908101601f19168201604052611d759190810190612cad565b610c0a565b60405163034306e160e21b81526005600482015273__$8c1a4844a0a0988ea2454cf87145a95df1$__90630d0c1b84906024015b60006040518083038186803b158015611dc657600080fd5b505af4158015611dda573d6000803e3d6000fd5b505050506040513d6000823e601f3d908101601f19168201604052610c0a9190810190612cad565b600082611e4857604051633f5f77cd60e01b8152600a60048201526024810183905273__$8c1a4844a0a0988ea2454cf87145a95df1$__90633f5f77cd90604401611348565b604051633f5f77cd60e01b8152600560048201526024810183905273__$8c1a4844a0a0988ea2454cf87145a95df1$__90633f5f77cd906044016113d8565b611e8f612503565b81611ec3576000805260096020527fec8156718a8372b1db44bb411437d0870f3e3790d4a08526d024ce1b0b668f6d611eee565b6000805260046020527f17ef568e3e12ab5b9c7254a8d58478811de00f9e6eb34345acd53bf8fd09d3ee5b6040805161012081018252915464ffffffffff8116835265ffffffffffff65010000000000820416602084015267ffffffffffffffff600160581b8204169183019190915260ff600160981b8204161515606083015261ffff600160a01b820481166080840152600160b01b8204811660a0840152600160c01b8204811660c0840152600160d01b82041660e083015263ffffffff600160e01b9091041661010082015292915050565b604051636cdd0edf60e11b815260026004820152602481018590526001600160a01b038416604482015273__$364aad554dc80380f414546becdd2c1584$__9063d9ba1dbe9060640160006040518083038186803b158015611ff957600080fd5b505af415801561200d573d6000803e3d6000fd5b5050505061201a82612415565b61202381612488565b604080518581526001600160a01b038581166020830152848116828401528316606082015290517f3abb2418c66fe32ba9c883030a75ce583971d9af9192b9b74e44e67c5e6c8c1f9181900360800190a150505050565b604051633c3e56c160e11b81526002600482015260009073__$364aad554dc80380f414546becdd2c1584$__9063787cad829060240160206040518083038186803b1580156120c857600080fd5b505af41580156120dc573d6000803e3d6000fd5b505050506040513d601f19601f8201168201806040525081019061071f9190612cea565b600254600160f01b900460ff1660011461215c5760405162461bcd60e51b815260206004820152601760248201527f41432e4c433a20446f632069732066696e616c697a656400000000000000000060448201526064016105e1565b73__$364aad554dc80380f414546becdd2c1584$__63c51b295f6002684174746f726e65797360b81b61218d6123bb565b6040516001600160e01b031960e086901b1681526004810193909352602483019190915264ffffffffff16604482015260640160006040518083038186803b1580156121d857600080fd5b505af41580156121ec573d6000803e3d6000fd5b50505050600273__$364aad554dc80380f414546becdd2c1584$__639b4510de909160006122186123bb565b6040516001600160e01b031960e086901b1681526004810193909352602483019190915264ffffffffff16604482015260640160006040518083038186803b15801561226357600080fd5b505af4158015612277573d6000803e3d6000fd5b50505050600273__$364aad554dc80380f414546becdd2c1584$__639b48160c909160006122a36123bb565b6040516001600160e01b031960e086901b1681526004810193909352602483019190915264ffffffffff16604482015260640160006040518083038186803b1580156122ee57600080fd5b505af4158015612302573d6000803e3d6000fd5b50506002805460ff60f01b1916600160f11b17905550506040517f35012b512309c322acf68632cd6cb702ff0e1d776fbe9394e38ffc13b434fe7590600090a1565b6060816123835760405163034306e160e21b8152600c600482015273__$8c1a4844a0a0988ea2454cf87145a95df1$__90630d0c1b8490602401611d21565b60405163034306e160e21b81526007600482015273__$8c1a4844a0a0988ea2454cf87145a95df1$__90630d0c1b8490602401611dae565b60008054604051636ae3b70d60e11b81523360048201526001600160a01b039091169063d5c76e1a90602401602060405180830381600087803b15801561240157600080fd5b505af11580156106fb573d6000803e3d6000fd5b6000546001600160a01b0316156124665760405162461bcd60e51b815260206004820152601560248201527430b63932b0b23c9039b2ba103932b3a1b2b73a32b960591b60448201526064016105e1565b600080546001600160a01b0319166001600160a01b0392909216919091179055565b6001546001600160a01b0316156124e15760405162461bcd60e51b815260206004820152601960248201527f616c7265616479207365742067656e6572616c4b65657065720000000000000060448201526064016105e1565b600180546001600160a01b0319166001600160a01b0392909216919091179055565b6040805161012081018252600080825260208201819052918101829052606081018290526080810182905260a0810182905260c0810182905260e0810182905261010081019190915290565b6000806040838503121561256257600080fd5b50508035926020909101359150565b801515811461257f57600080fd5b50565b60008060006060848603121561259757600080fd5b83356125a281612571565b95602085013595506040909401359392505050565b6000602082840312156125c957600080fd5b81356108f681612571565b64ffffffffff815116825265ffffffffffff6020820151166020830152604081015161260c604084018267ffffffffffffffff169052565b506060810151612620606084018215159052565b506080810151612636608084018261ffff169052565b5060a081015161264c60a084018261ffff169052565b5060c081015161266260c084018261ffff169052565b5060e081015161267860e084018261ffff169052565b506101009081015163ffffffff16910152565b600081518084526020808501945080840160005b838110156126c6576126b28783516125d4565b61012096909601959082019060010161269f565b509495945050505050565b6040815260006126e4604083018561268b565b8281036020840152611afd818561268b565b60006020828403121561270857600080fd5b5035919050565b6000806040838503121561272257600080fd5b823561272d81612571565b946020939093013593505050565b600081518084526020808501945080840160005b838110156126c65781518752958201959082019060010161274f565b600061016080835261277f8184018761273b565b91505061278f60208301856125d4565b82610140830152949350505050565b6001600160a01b038116811461257f57600080fd5b6000602082840312156127c557600080fd5b81356108f68161279e565b600080600080608085870312156127e657600080fd5b5050823594602084013594506040840135936060013592509050565b6020815260006108f6602083018461273b565b6101208101610c0a82846125d4565b6000806000806080858703121561283a57600080fd5b84359350602085013561284c8161279e565b9250604085013561285c8161279e565b9150606085013561286c8161279e565b939692955090935050565b805161288281612571565b919050565b60006020828403121561289957600080fd5b81516108f681612571565b805164ffffffffff8116811461288257600080fd5b6000602082840312156128cb57600080fd5b6108f6826128a4565b805165ffffffffffff8116811461288257600080fd5b6000602082840312156128fc57600080fd5b6108f6826128d4565b60208082526011908201527020a19737b59d103737ba1025b2b2b832b960791b604082015260600190565b634e487b7160e01b600052604160045260246000fd5b604051610120810167ffffffffffffffff8111828210171561296a5761296a612930565b60405290565b604051601f8201601f1916810167ffffffffffffffff8111828210171561299957612999612930565b604052919050565b600067ffffffffffffffff8211156129bb576129bb612930565b5060051b60200190565b805167ffffffffffffffff8116811461288257600080fd5b805161ffff8116811461288257600080fd5b805163ffffffff8116811461288257600080fd5b60006101208284031215612a1657600080fd5b612a1e612946565b9050612a29826128a4565b8152612a37602083016128d4565b6020820152612a48604083016129c5565b6040820152612a5960608301612877565b6060820152612a6a608083016129dd565b6080820152612a7b60a083016129dd565b60a0820152612a8c60c083016129dd565b60c0820152612a9d60e083016129dd565b60e0820152610100612ab08184016129ef565b9082015292915050565b600082601f830112612acb57600080fd5b81516020612ae0612adb836129a1565b612970565b8281526101209283028501820192828201919087851115612b0057600080fd5b8387015b85811015612b2357612b168982612a03565b8452928401928101612b04565b5090979650505050505050565b60008060408385031215612b4357600080fd5b825167ffffffffffffffff80821115612b5b57600080fd5b612b6786838701612aba565b93506020850151915080821115612b7d57600080fd5b50612b8a85828601612aba565b9150509250929050565b600082601f830112612ba557600080fd5b81516020612bb5612adb836129a1565b82815260059290921b84018101918181019086841115612bd457600080fd5b8286015b84811015612bef5780518352918301918301612bd8565b509695505050505050565b60008060006101608486031215612c1057600080fd5b835167ffffffffffffffff811115612c2757600080fd5b612c3386828701612b94565b935050612c438560208601612a03565b915061014084015190509250925092565b600060208284031215612c6657600080fd5b5051919050565b600060208284031215612c7f57600080fd5b6108f6826129dd565b604081526000612c9b604083018561273b565b8281036020840152611afd818561273b565b600060208284031215612cbf57600080fd5b815167ffffffffffffffff811115612cd657600080fd5b612ce284828501612b94565b949350505050565b600060208284031215612cfc57600080fd5b81516108f68161279e56fea2646970667358221220b6893e8ead14901a19c295b372b513ca05f32ac5c69b0d49487c5fb3bd474e0464736f6c63430008080033",
    "sourcePath": "/Users/kaptain/github.com/hardhat/comboox/contracts/common/components/SigPage.sol",
    "compiler": {
        "name": "solc",
        "version": "0.8.8+commit.dddeac2f"
    },
    "functionHashes": {
        "abandonRole(bytes32)": "3da9a600",
        "addBlank(bool,uint256,uint256)": "50a31ef9",
        "circulateDoc()": "5b041ead",
        "circulated()": "1c315ec6",
        "established()": "4844f541",
        "finalized()": "b3f05b97",
        "getBookeeper()": "ed211023",
        "getBuyers(bool)": "a959c69c",
        "getClosingDays()": "8d6a31d4",
        "getClosingDeadline()": "15711620",
        "getGeneralCounsel()": "103f6edd",
        "getOwner()": "893d20e8",
        "getParasOfPage(bool)": "ccb2f415",
        "getParties()": "a8311aa8",
        "getSellers(bool)": "f2724eb2",
        "getSigDeadline()": "57330fd2",
        "getSigOfParty(bool,uint256)": "34367313",
        "getSigningDays()": "5041de82",
        "getSigsOfPage(bool)": "25abe790",
        "grantRole(bytes32,uint256)": "1b6ea9f9",
        "hasRole(bytes32,uint256)": "7e063c5a",
        "init(uint256,address,address,address)": "dc890da9",
        "isBuyer(bool,uint256)": "b1152335",
        "isParty(uint256)": "8c5f9170",
        "isSeller(bool,uint256)": "51b171a3",
        "isSigner(uint256)": "28769ede",
        "lockContents()": "f045a769",
        "regSig(uint256,uint256,uint256,bytes32)": "a4052db4",
        "renounceRole(bytes32)": "8bb9c5bf",
        "revokeRole(bytes32,uint256)": "19d61ad9",
        "setDeadline(uint256,uint256)": "009a0b30",
        "setDirectKeeper(address)": "6be8496f",
        "setGeneralCounsel(uint256)": "4a14beb1",
        "setOwner(uint256)": "8041494e",
        "setRoleAdmin(bytes32,uint256)": "5171ebd4",
        "signDoc(bool,uint256,bytes32)": "1958ac5a"
    },
    "gasEstimates": {
        "creation": {
            "codeDepositCost": "2316200",
            "executionCost": "2478",
            "totalCost": "2318678"
        },
        "external": {
            "abandonRole(bytes32)": "infinite",
            "addBlank(bool,uint256,uint256)": "infinite",
            "circulateDoc()": "infinite",
            "circulated()": "infinite",
            "established()": "infinite",
            "finalized()": "2438",
            "getBookeeper()": "infinite",
            "getBuyers(bool)": "infinite",
            "getClosingDays()": "infinite",
            "getClosingDeadline()": "infinite",
            "getGeneralCounsel()": "infinite",
            "getOwner()": "infinite",
            "getParasOfPage(bool)": "3597",
            "getParties()": "infinite",
            "getSellers(bool)": "infinite",
            "getSigDeadline()": "infinite",
            "getSigOfParty(bool,uint256)": "infinite",
            "getSigningDays()": "infinite",
            "getSigsOfPage(bool)": "infinite",
            "grantRole(bytes32,uint256)": "infinite",
            "hasRole(bytes32,uint256)": "infinite",
            "init(uint256,address,address,address)": "infinite",
            "isBuyer(bool,uint256)": "infinite",
            "isParty(uint256)": "infinite",
            "isSeller(bool,uint256)": "infinite",
            "isSigner(uint256)": "infinite",
            "lockContents()": "infinite",
            "regSig(uint256,uint256,uint256,bytes32)": "infinite",
            "renounceRole(bytes32)": "infinite",
            "revokeRole(bytes32,uint256)": "infinite",
            "setDeadline(uint256,uint256)": "infinite",
            "setDirectKeeper(address)": "infinite",
            "setGeneralCounsel(uint256)": "infinite",
            "setOwner(uint256)": "infinite",
            "setRoleAdmin(bytes32,uint256)": "infinite",
            "signDoc(bool,uint256,bytes32)": "infinite"
        }
    }
}