{
  "_format": "hh-sol-artifact-1",
  "contractName": "ArrayUtils",
  "sourceName": "contracts/common/lib/ArrayUtils.sol",
  "abi": [
    {
      "inputs": [
        {
          "internalType": "uint40[]",
          "name": "arrA",
          "type": "uint40[]"
        },
        {
          "internalType": "uint40[]",
          "name": "arrB",
          "type": "uint40[]"
        }
      ],
      "name": "combine",
      "outputs": [
        {
          "internalType": "uint40[]",
          "name": "",
          "type": "uint40[]"
        }
      ],
      "stateMutability": "pure",
      "type": "function"
    },
    {
      "inputs": [
        {
          "internalType": "uint40[]",
          "name": "arrA",
          "type": "uint40[]"
        },
        {
          "internalType": "uint40[]",
          "name": "arrB",
          "type": "uint40[]"
        }
      ],
      "name": "fullyCoveredBy",
      "outputs": [
        {
          "internalType": "bool",
          "name": "",
          "type": "bool"
        }
      ],
      "stateMutability": "pure",
      "type": "function"
    },
    {
      "inputs": [
        {
          "internalType": "uint40[]",
          "name": "arrA",
          "type": "uint40[]"
        },
        {
          "internalType": "uint40[]",
          "name": "arrB",
          "type": "uint40[]"
        }
      ],
      "name": "minus",
      "outputs": [
        {
          "internalType": "uint40[]",
          "name": "",
          "type": "uint40[]"
        }
      ],
      "stateMutability": "pure",
      "type": "function"
    }
  ],
  "bytecode": "0x6109ff610053600b82828239805160001a607314610046577f4e487b7100000000000000000000000000000000000000000000000000000000600052600060045260246000fd5b30600052607381538281f3fe730000000000000000000000000000000000000000301460806040526004361061004b5760003560e01c8063472ee718146100505780634e68bef414610080578063a56e7abe146100b0575b600080fd5b61006a600480360381019061006591906106d6565b6100e0565b604051610077919061080c565b60405180910390f35b61009a600480360381019061009591906106d6565b610316565b6040516100a79190610849565b60405180910390f35b6100ca60048036038101906100c591906106d6565b6103d9565b6040516100d7919061080c565b60405180910390f35b606060008351905060008351905060008267ffffffffffffffff81111561010a57610109610556565b5b6040519080825280602002602001820160405280156101385781602001602082028036833780820191505090505b50905060005b60008414610251576000865193505b600084146101d35787600186610163919061089d565b81518110610174576101736108d1565b5b602002602001015164ffffffffff1687600186610191919061089d565b815181106101a2576101a16108d1565b5b602002602001015164ffffffffff1614156101c057600190506101d3565b83806101cb90610900565b94505061014d565b8061023d57876001866101e6919061089d565b815181106101f7576101f66108d1565b5b6020026020010151838381518110610212576102116108d1565b5b602002602001019064ffffffffff16908164ffffffffff168152505081806102399061092a565b9250505b848061024890610900565b9550505061013e565b60008167ffffffffffffffff81111561026d5761026c610556565b5b60405190808252806020026020018201604052801561029b5781602001602082028036833780820191505090505b509050600094505b81851015610308578285815181106102be576102bd6108d1565b5b60200260200101518186815181106102d9576102d86108d1565b5b602002602001019064ffffffffff16908164ffffffffff168152505084806103009061092a565b9550506102a3565b809550505050505092915050565b6000808351905060008351905060005b828110156103cb57600080600090505b838110156103a457878381518110610351576103506108d1565b5b602002602001015164ffffffffff16878281518110610373576103726108d1565b5b602002602001015164ffffffffff16141561039157600191506103a4565b808061039c9061092a565b915050610336565b50806103b75760009450505050506103d3565b5080806103c39061092a565b915050610326565b506001925050505b92915050565b606060008351905060008351905060008082846103f69190610973565b67ffffffffffffffff81111561040f5761040e610556565b5b60405190808252806020026020018201604052801561043d5781602001602082028036833780820191505090505b509050600091505b838210156104aa578682815181106104605761045f6108d1565b5b602002602001015181838151811061047b5761047a6108d1565b5b602002602001019064ffffffffff16908164ffffffffff168152505081806104a29061092a565b925050610445565b600091505b8282101561051f578582815181106104ca576104c96108d1565b5b60200260200101518183866104df9190610973565b815181106104f0576104ef6108d1565b5b602002602001019064ffffffffff16908164ffffffffff168152505081806105179061092a565b9250506104af565b8094505050505092915050565b6000604051905090565b600080fd5b600080fd5b600080fd5b6000601f19601f8301169050919050565b7f4e487b7100000000000000000000000000000000000000000000000000000000600052604160045260246000fd5b61058e82610545565b810181811067ffffffffffffffff821117156105ad576105ac610556565b5b80604052505050565b60006105c061052c565b90506105cc8282610585565b919050565b600067ffffffffffffffff8211156105ec576105eb610556565b5b602082029050602081019050919050565b600080fd5b600064ffffffffff82169050919050565b61061c81610602565b811461062757600080fd5b50565b60008135905061063981610613565b92915050565b600061065261064d846105d1565b6105b6565b90508083825260208201905060208402830185811115610675576106746105fd565b5b835b8181101561069e578061068a888261062a565b845260208401935050602081019050610677565b5050509392505050565b600082601f8301126106bd576106bc610540565b5b81356106cd84826020860161063f565b91505092915050565b600080604083850312156106ed576106ec610536565b5b600083013567ffffffffffffffff81111561070b5761070a61053b565b5b610717858286016106a8565b925050602083013567ffffffffffffffff8111156107385761073761053b565b5b610744858286016106a8565b9150509250929050565b600081519050919050565b600082825260208201905092915050565b6000819050602082019050919050565b61078381610602565b82525050565b6000610795838361077a565b60208301905092915050565b6000602082019050919050565b60006107b98261074e565b6107c38185610759565b93506107ce8361076a565b8060005b838110156107ff5781516107e68882610789565b97506107f1836107a1565b9250506001810190506107d2565b5085935050505092915050565b6000602082019050818103600083015261082681846107ae565b905092915050565b60008115159050919050565b6108438161082e565b82525050565b600060208201905061085e600083018461083a565b92915050565b6000819050919050565b7f4e487b7100000000000000000000000000000000000000000000000000000000600052601160045260246000fd5b60006108a882610864565b91506108b383610864565b9250828210156108c6576108c561086e565b5b828203905092915050565b7f4e487b7100000000000000000000000000000000000000000000000000000000600052603260045260246000fd5b600061090b82610864565b9150600082141561091f5761091e61086e565b5b600182039050919050565b600061093582610864565b91507fffffffffffffffffffffffffffffffffffffffffffffffffffffffffffffffff8214156109685761096761086e565b5b600182019050919050565b600061097e82610864565b915061098983610864565b9250827fffffffffffffffffffffffffffffffffffffffffffffffffffffffffffffffff038211156109be576109bd61086e565b5b82820190509291505056fea2646970667358221220c461846b78aa43ab7954230f5d27a232ea1ebe2ef8b91b1de33534386b1a029b64736f6c63430008080033",
  "linkReferences": {},
  "deployedLinkReferences": {}
}