{
  "_format": "hh-sol-artifact-1",
  "contractName": "DragAlong",
  "sourceName": "contracts/books/boh/terms/DragAlong.sol",
  "abi": [
    {
      "anonymous": false,
      "inputs": [
        {
          "indexed": false,
          "internalType": "uint40",
          "name": "owner",
          "type": "uint40"
        },
        {
          "indexed": false,
          "internalType": "address",
          "name": "directKeeper",
          "type": "address"
        },
        {
          "indexed": false,
          "internalType": "address",
          "name": "regCenter",
          "type": "address"
        },
        {
          "indexed": false,
          "internalType": "address",
          "name": "generalKeeper",
          "type": "address"
        }
      ],
      "name": "Init",
      "type": "event"
    },
    {
      "anonymous": false,
      "inputs": [],
      "name": "LockContents",
      "type": "event"
    },
    {
      "anonymous": false,
      "inputs": [
        {
          "indexed": false,
          "internalType": "address",
          "name": "keeper",
          "type": "address"
        }
      ],
      "name": "SetDirectKeeper",
      "type": "event"
    },
    {
      "anonymous": false,
      "inputs": [
        {
          "indexed": false,
          "internalType": "address",
          "name": "gk",
          "type": "address"
        }
      ],
      "name": "SetGeneralKeeper",
      "type": "event"
    },
    {
      "anonymous": false,
      "inputs": [
        {
          "indexed": false,
          "internalType": "uint8",
          "name": "title",
          "type": "uint8"
        },
        {
          "indexed": false,
          "internalType": "uint40",
          "name": "acct",
          "type": "uint40"
        }
      ],
      "name": "SetManager",
      "type": "event"
    },
    {
      "anonymous": false,
      "inputs": [
        {
          "indexed": false,
          "internalType": "address",
          "name": "rc",
          "type": "address"
        }
      ],
      "name": "SetRegCenter",
      "type": "event"
    },
    {
      "inputs": [
        {
          "internalType": "bytes32",
          "name": "role",
          "type": "bytes32"
        }
      ],
      "name": "abandonRole",
      "outputs": [],
      "stateMutability": "nonpayable",
      "type": "function"
    },
    {
      "inputs": [
        {
          "internalType": "uint40",
          "name": "drager",
          "type": "uint40"
        },
        {
          "internalType": "uint40",
          "name": "follower",
          "type": "uint40"
        }
      ],
      "name": "addFollower",
      "outputs": [],
      "stateMutability": "nonpayable",
      "type": "function"
    },
    {
      "inputs": [],
      "name": "boaAddr",
      "outputs": [
        {
          "internalType": "address",
          "name": "",
          "type": "address"
        }
      ],
      "stateMutability": "view",
      "type": "function"
    },
    {
      "inputs": [],
      "name": "bosAddr",
      "outputs": [
        {
          "internalType": "address",
          "name": "",
          "type": "address"
        }
      ],
      "stateMutability": "view",
      "type": "function"
    },
    {
      "inputs": [
        {
          "internalType": "bytes32",
          "name": "rule",
          "type": "bytes32"
        },
        {
          "internalType": "uint40",
          "name": "drager",
          "type": "uint40"
        }
      ],
      "name": "createLink",
      "outputs": [],
      "stateMutability": "nonpayable",
      "type": "function"
    },
    {
      "inputs": [
        {
          "internalType": "bytes32",
          "name": "rule",
          "type": "bytes32"
        }
      ],
      "name": "delLink",
      "outputs": [],
      "stateMutability": "nonpayable",
      "type": "function"
    },
    {
      "inputs": [],
      "name": "dragers",
      "outputs": [
        {
          "internalType": "uint40[]",
          "name": "",
          "type": "uint40[]"
        }
      ],
      "stateMutability": "view",
      "type": "function"
    },
    {
      "inputs": [],
      "name": "finalized",
      "outputs": [
        {
          "internalType": "bool",
          "name": "",
          "type": "bool"
        }
      ],
      "stateMutability": "view",
      "type": "function"
    },
    {
      "inputs": [
        {
          "internalType": "uint40",
          "name": "drager",
          "type": "uint40"
        }
      ],
      "name": "followers",
      "outputs": [
        {
          "internalType": "uint40[]",
          "name": "",
          "type": "uint40[]"
        }
      ],
      "stateMutability": "view",
      "type": "function"
    },
    {
      "inputs": [],
      "name": "getBookeeper",
      "outputs": [
        {
          "internalType": "address",
          "name": "",
          "type": "address"
        }
      ],
      "stateMutability": "view",
      "type": "function"
    },
    {
      "inputs": [
        {
          "internalType": "uint8",
          "name": "title",
          "type": "uint8"
        }
      ],
      "name": "getManager",
      "outputs": [
        {
          "internalType": "uint40",
          "name": "",
          "type": "uint40"
        }
      ],
      "stateMutability": "view",
      "type": "function"
    },
    {
      "inputs": [
        {
          "internalType": "uint8",
          "name": "title",
          "type": "uint8"
        }
      ],
      "name": "getManagerKey",
      "outputs": [
        {
          "internalType": "address",
          "name": "",
          "type": "address"
        }
      ],
      "stateMutability": "view",
      "type": "function"
    },
    {
      "inputs": [
        {
          "internalType": "bytes32",
          "name": "role",
          "type": "bytes32"
        },
        {
          "internalType": "uint40",
          "name": "acct",
          "type": "uint40"
        }
      ],
      "name": "grantRole",
      "outputs": [],
      "stateMutability": "nonpayable",
      "type": "function"
    },
    {
      "inputs": [
        {
          "internalType": "bytes32",
          "name": "role",
          "type": "bytes32"
        },
        {
          "internalType": "uint40",
          "name": "acct",
          "type": "uint40"
        }
      ],
      "name": "hasRole",
      "outputs": [
        {
          "internalType": "bool",
          "name": "",
          "type": "bool"
        }
      ],
      "stateMutability": "view",
      "type": "function"
    },
    {
      "inputs": [
        {
          "internalType": "uint40",
          "name": "owner",
          "type": "uint40"
        },
        {
          "internalType": "address",
          "name": "directKeeper",
          "type": "address"
        },
        {
          "internalType": "address",
          "name": "regCenter",
          "type": "address"
        },
        {
          "internalType": "address",
          "name": "generalKeeper",
          "type": "address"
        }
      ],
      "name": "init",
      "outputs": [],
      "stateMutability": "nonpayable",
      "type": "function"
    },
    {
      "inputs": [
        {
          "internalType": "uint40",
          "name": "drager",
          "type": "uint40"
        }
      ],
      "name": "isDrager",
      "outputs": [
        {
          "internalType": "bool",
          "name": "",
          "type": "bool"
        }
      ],
      "stateMutability": "view",
      "type": "function"
    },
    {
      "inputs": [
        {
          "internalType": "uint40",
          "name": "drager",
          "type": "uint40"
        },
        {
          "internalType": "uint40",
          "name": "follower",
          "type": "uint40"
        }
      ],
      "name": "isLinked",
      "outputs": [
        {
          "internalType": "bool",
          "name": "",
          "type": "bool"
        }
      ],
      "stateMutability": "view",
      "type": "function"
    },
    {
      "inputs": [
        {
          "internalType": "address",
          "name": "ia",
          "type": "address"
        },
        {
          "internalType": "bytes32",
          "name": "sn",
          "type": "bytes32"
        }
      ],
      "name": "isTriggered",
      "outputs": [
        {
          "internalType": "bool",
          "name": "",
          "type": "bool"
        }
      ],
      "stateMutability": "view",
      "type": "function"
    },
    {
      "inputs": [
        {
          "internalType": "uint40",
          "name": "drager",
          "type": "uint40"
        }
      ],
      "name": "linkRule",
      "outputs": [
        {
          "internalType": "bytes32",
          "name": "",
          "type": "bytes32"
        }
      ],
      "stateMutability": "view",
      "type": "function"
    },
    {
      "inputs": [],
      "name": "lockContents",
      "outputs": [],
      "stateMutability": "nonpayable",
      "type": "function"
    },
    {
      "inputs": [
        {
          "internalType": "address",
          "name": "ia",
          "type": "address"
        },
        {
          "internalType": "bytes32",
          "name": "sn",
          "type": "bytes32"
        },
        {
          "internalType": "bytes32",
          "name": "shareNumber",
          "type": "bytes32"
        },
        {
          "internalType": "uint40",
          "name": "caller",
          "type": "uint40"
        }
      ],
      "name": "priceCheck",
      "outputs": [
        {
          "internalType": "bool",
          "name": "",
          "type": "bool"
        }
      ],
      "stateMutability": "view",
      "type": "function"
    },
    {
      "inputs": [
        {
          "internalType": "uint40",
          "name": "drager",
          "type": "uint40"
        }
      ],
      "name": "removeDrager",
      "outputs": [],
      "stateMutability": "nonpayable",
      "type": "function"
    },
    {
      "inputs": [
        {
          "internalType": "uint40",
          "name": "drager",
          "type": "uint40"
        },
        {
          "internalType": "uint40",
          "name": "follower",
          "type": "uint40"
        }
      ],
      "name": "removeFollower",
      "outputs": [],
      "stateMutability": "nonpayable",
      "type": "function"
    },
    {
      "inputs": [
        {
          "internalType": "bytes32",
          "name": "role",
          "type": "bytes32"
        }
      ],
      "name": "renounceRole",
      "outputs": [],
      "stateMutability": "nonpayable",
      "type": "function"
    },
    {
      "inputs": [
        {
          "internalType": "bytes32",
          "name": "role",
          "type": "bytes32"
        },
        {
          "internalType": "uint40",
          "name": "acct",
          "type": "uint40"
        }
      ],
      "name": "revokeRole",
      "outputs": [],
      "stateMutability": "nonpayable",
      "type": "function"
    },
    {
      "inputs": [],
      "name": "romAddr",
      "outputs": [
        {
          "internalType": "address",
          "name": "",
          "type": "address"
        }
      ],
      "stateMutability": "view",
      "type": "function"
    },
    {
      "inputs": [
        {
          "internalType": "address",
          "name": "boa",
          "type": "address"
        }
      ],
      "name": "setBOA",
      "outputs": [],
      "stateMutability": "nonpayable",
      "type": "function"
    },
    {
      "inputs": [
        {
          "internalType": "address",
          "name": "bos",
          "type": "address"
        }
      ],
      "name": "setBOS",
      "outputs": [],
      "stateMutability": "nonpayable",
      "type": "function"
    },
    {
      "inputs": [
        {
          "internalType": "address",
          "name": "keeper",
          "type": "address"
        }
      ],
      "name": "setDirectKeeper",
      "outputs": [],
      "stateMutability": "nonpayable",
      "type": "function"
    },
    {
      "inputs": [
        {
          "internalType": "uint8",
          "name": "title",
          "type": "uint8"
        },
        {
          "internalType": "uint40",
          "name": "acct",
          "type": "uint40"
        }
      ],
      "name": "setManager",
      "outputs": [],
      "stateMutability": "nonpayable",
      "type": "function"
    },
    {
      "inputs": [
        {
          "internalType": "address",
          "name": "rom",
          "type": "address"
        }
      ],
      "name": "setROM",
      "outputs": [],
      "stateMutability": "nonpayable",
      "type": "function"
    },
    {
      "inputs": [
        {
          "internalType": "bytes32",
          "name": "role",
          "type": "bytes32"
        },
        {
          "internalType": "uint40",
          "name": "acct",
          "type": "uint40"
        }
      ],
      "name": "setRoleAdmin",
      "outputs": [],
      "stateMutability": "nonpayable",
      "type": "function"
    }
  ],
  "bytecode": "0x608060405234801561001057600080fd5b5061483d806100206000396000f3fe608060405234801561001057600080fd5b50600436106101f05760003560e01c806379b2ec121161010f578063c189bbd6116100a2578063ec786d2811610071578063ec786d28146105c3578063ed211023146105df578063f045a769146105fd578063f6b061a114610607576101f0565b8063c189bbd614610529578063dd8c2de614610545578063e10f01c714610575578063e275d5dd14610593576101f0565b8063916d953c116100de578063916d953c146104b1578063b1f21086146104cf578063b3f05b97146104ed578063b4a952b31461050b576101f0565b806379b2ec1214610419578063821ee8ea146104495780638bb9c5bf146104655780638e5a886f14610481576101f0565b8063512149411161018757806367286b251161015657806367286b25146103955780636be8496f146103c557806374099815146103e1578063790ff6af146103fd576101f0565b806351214941146102fd578063569ff3ff1461032d57806358be688914610349578063655ae9ed14610379576101f0565b80633e38dca0116101c35780633e38dca0146102795780634283a0ed14610295578063447cc1ee146102c55780634fd3880b146102e1576101f0565b806316dc517e146101f557806317c51fec1461021157806334518c721461022d5780633da9a6001461025d575b600080fd5b61020f600480360381019061020a919061346d565b610623565b005b61022b6004803603810190610226919061346d565b61069e565b005b610247600480360381019061024291906134ad565b610719565b6040516102549190613598565b60405180910390f35b610277600480360381019061027291906135ba565b6107dc565b005b610293600480360381019061028e919061346d565b610916565b005b6102af60048036038101906102aa91906135e7565b610b53565b6040516102bc9190613642565b60405180910390f35b6102df60048036038101906102da9190613696565b610c14565b005b6102fb60048036038101906102f691906135ba565b610e27565b005b61031760048036038101906103129190613734565b610fdd565b6040516103249190613642565b60405180910390f35b6103476004803603810190610342919061379b565b61175b565b005b610363600480360381019061035e91906134ad565b61186a565b6040516103709190613642565b60405180910390f35b610393600480360381019061038e919061379b565b6118ff565b005b6103af60048036038101906103aa91906137c8565b611a0e565b6040516103bc9190613804565b60405180910390f35b6103df60048036038101906103da919061379b565b611aa3565b005b6103fb60048036038101906103f6919061346d565b611b4b565b005b610417600480360381019061041291906134ad565b611bc6565b005b610433600480360381019061042e919061346d565b611d6d565b6040516104409190613642565b60405180910390f35b610463600480360381019061045e919061381f565b611e05565b005b61047f600480360381019061047a91906135ba565b611ec8565b005b61049b60048036038101906104969190613886565b611f46565b6040516104a89190613642565b60405180910390f35b6104b96126f3565b6040516104c691906138d5565b60405180910390f35b6104d761271d565b6040516104e491906138d5565b60405180910390f35b6104f5612747565b6040516105029190613642565b60405180910390f35b610513612766565b6040516105209190613598565b60405180910390f35b610543600480360381019061053e91906135e7565b6127fc565b005b61055f600480360381019061055a91906134ad565b6129ac565b60405161056c91906138ff565b60405180910390f35b61057d6129d0565b60405161058a91906138d5565b60405180910390f35b6105ad60048036038101906105a891906137c8565b6129fa565b6040516105ba91906138d5565b60405180910390f35b6105dd60048036038101906105d891906135e7565b612ab5565b005b6105e7612c65565b6040516105f491906138d5565b60405180910390f35b610605612cf6565b005b610621600480360381019061061c919061379b565b612f61565b005b600273__$6be8a34d719d54efe8ce2a1215b9d85036$__63427abff490918461064a613070565b856040518563ffffffff1660e01b815260040161066a949392919061393f565b60006040518083038186803b15801561068257600080fd5b505af4158015610696573d6000803e3d6000fd5b505050505050565b600273__$6be8a34d719d54efe8ce2a1215b9d85036$__638ce158459091846106c5613070565b856040518563ffffffff1660e01b81526004016106e5949392919061393f565b60006040518083038186803b1580156106fd57600080fd5b505af4158015610711573d6000803e3d6000fd5b505050505050565b6060600c6000600d60008564ffffffffff16815260200190815260200160002054815260200190815260200160002073__$60819bf3fa70e900ebaf23f60586c0d140$__639857dfd590916040518263ffffffff1660e01b8152600401610780919061398b565b60006040518083038186803b15801561079857600080fd5b505af41580156107ac573d6000803e3d6000fd5b505050506040513d6000823e3d601f19601f820116820180604052508101906107d59190613b14565b9050919050565b600273__$6be8a34d719d54efe8ce2a1215b9d85036$__63ec46b6fc9091336040518363ffffffff1660e01b8152600401610818929190613b6c565b60206040518083038186803b15801561083057600080fd5b505af4158015610844573d6000803e3d6000fd5b505050506040513d601f19601f820116820180604052508101906108689190613bc1565b6108a7576040517f08c379a000000000000000000000000000000000000000000000000000000000815260040161089e90613c4b565b60405180910390fd5b600273__$6be8a34d719d54efe8ce2a1215b9d85036$__63cc99e11b9091836040518363ffffffff1660e01b81526004016108e3929190613c6b565b60006040518083038186803b1580156108fb57600080fd5b505af415801561090f573d6000803e3d6000fd5b5050505050565b600273__$6be8a34d719d54efe8ce2a1215b9d85036$__63124d899c90917f4174746f726e657973000000000000000000000000000000000000000000000061095d613070565b6040518463ffffffff1660e01b815260040161097b93929190613c94565b60206040518083038186803b15801561099357600080fd5b505af41580156109a7573d6000803e3d6000fd5b505050506040513d601f19601f820116820180604052508101906109cb9190613bc1565b610a0a576040517f08c379a0000000000000000000000000000000000000000000000000000000008152600401610a0190613d17565b60405180910390fd5b600873__$60819bf3fa70e900ebaf23f60586c0d140$__6392f13c3f9091836040518363ffffffff1660e01b8152600401610a46929190613d7c565b60206040518083038186803b158015610a5e57600080fd5b505af4158015610a72573d6000803e3d6000fd5b505050506040513d601f19601f82011682018060405250810190610a969190613bc1565b8015610b2a5750600a73__$60819bf3fa70e900ebaf23f60586c0d140$__63268a37469091846040518363ffffffff1660e01b8152600401610ad9929190613dac565b60206040518083038186803b158015610af157600080fd5b505af4158015610b05573d6000803e3d6000fd5b505050506040513d601f19601f82011682018060405250810190610b299190613bc1565b5b15610b4f5781600d60008364ffffffffff168152602001908152602001600020819055505b5050565b6000600c6000600d60008664ffffffffff16815260200190815260200160002054815260200190815260200160002073__$60819bf3fa70e900ebaf23f60586c0d140$__633f5f77cd9091846040518363ffffffff1660e01b8152600401610bbc929190613d7c565b60206040518083038186803b158015610bd457600080fd5b505af4158015610be8573d6000803e3d6000fd5b505050506040513d601f19601f82011682018060405250810190610c0c9190613bc1565b905092915050565b600273__$6be8a34d719d54efe8ce2a1215b9d85036$__63ec46b6fc9091336040518363ffffffff1660e01b8152600401610c50929190613b6c565b60206040518083038186803b158015610c6857600080fd5b505af4158015610c7c573d6000803e3d6000fd5b505050506040513d601f19601f82011682018060405250810190610ca09190613bc1565b80610d3d5750600273__$6be8a34d719d54efe8ce2a1215b9d85036$__631a7b009c90916000610cce613070565b6040518463ffffffff1660e01b8152600401610cec93929190613e10565b60206040518083038186803b158015610d0457600080fd5b505af4158015610d18573d6000803e3d6000fd5b505050506040513d601f19601f82011682018060405250810190610d3c9190613bc1565b5b610d7c576040517f08c379a0000000000000000000000000000000000000000000000000000000008152600401610d7390613eb9565b60405180910390fd5b600273__$6be8a34d719d54efe8ce2a1215b9d85036$__63772d54e1909184846040518463ffffffff1660e01b8152600401610dba93929190613ee8565b60006040518083038186803b158015610dd257600080fd5b505af4158015610de6573d6000803e3d6000fd5b505050507f19ace7081860092e92d02f49f4f87bc6b5e9b491255f43c2c85d72985e9f47548282604051610e1b929190613f2e565b60405180910390a15050565b600273__$6be8a34d719d54efe8ce2a1215b9d85036$__63124d899c90917f4174746f726e6579730000000000000000000000000000000000000000000000610e6e613070565b6040518463ffffffff1660e01b8152600401610e8c93929190613c94565b60206040518083038186803b158015610ea457600080fd5b505af4158015610eb8573d6000803e3d6000fd5b505050506040513d601f19601f82011682018060405250810190610edc9190613bc1565b610f1b576040517f08c379a0000000000000000000000000000000000000000000000000000000008152600401610f1290613d17565b60405180910390fd5b600a73__$60819bf3fa70e900ebaf23f60586c0d140$__633d0444549091836040518363ffffffff1660e01b8152600401610f57929190613dac565b60206040518083038186803b158015610f6f57600080fd5b505af4158015610f83573d6000803e3d6000fd5b505050506040513d601f19601f82011682018060405250810190610fa79190613bc1565b15610fda57600c6000828152602001908152602001600020600080820160008082016000610fd591906133a8565b505050505b50565b6000610fe98585611f46565b610ff65760009050611753565b60008473__$5dc66471518b5e7762576f597300b6c9be$__63d914a1d090916040518263ffffffff1660e01b81526004016110319190613f57565b60206040518083038186803b15801561104957600080fd5b505af415801561105d573d6000803e3d6000fd5b505050506040513d601f19601f820116820180604052508101906110819190613f72565b90508064ffffffffff168364ffffffffff16146110d3576040517f08c379a00000000000000000000000000000000000000000000000000000000081526004016110ca90614011565b60405180910390fd5b611165838573__$5dc66471518b5e7762576f597300b6c9be$__632de1e7ac90916040518263ffffffff1660e01b81526004016111109190613f57565b60206040518083038186803b15801561112857600080fd5b505af415801561113c573d6000803e3d6000fd5b505050506040513d601f19601f820116820180604052508101906111609190613f72565b610b53565b6111a4576040517f08c379a000000000000000000000000000000000000000000000000000000000815260040161119b906140a3565b60405180910390fd5b60008573__$5dc66471518b5e7762576f597300b6c9be$__638b257a7190916040518263ffffffff1660e01b81526004016111df9190613f57565b60206040518083038186803b1580156111f757600080fd5b505af415801561120b573d6000803e3d6000fd5b505050506040513d601f19601f8201168201806040525081019061122f91906140ff565b905060008773ffffffffffffffffffffffffffffffffffffffff1663847d70e58873__$5dc66471518b5e7762576f597300b6c9be$__635defb38490916040518263ffffffff1660e01b81526004016112889190613f57565b60206040518083038186803b1580156112a057600080fd5b505af41580156112b4573d6000803e3d6000fd5b505050506040513d601f19601f820116820180604052508101906112d89190614166565b6040518263ffffffff1660e01b81526004016112f491906141a2565b60206040518083038186803b15801561130c57600080fd5b505afa158015611320573d6000803e3d6000fd5b505050506040513d601f19601f8201168201806040525081019061134491906141fb565b90506000600d60008764ffffffffff1681526020019081526020016000205490506002600381111561137957611378614228565b5b60ff168173__$5dc66471518b5e7762576f597300b6c9be$__63f3ddaa6490916040518263ffffffff1660e01b81526004016113b59190613f57565b60206040518083038186803b1580156113cd57600080fd5b505af41580156113e1573d6000803e3d6000fd5b505050506040513d601f19601f82011682018060405250810190611405919061426c565b60ff16101561141b576001945050505050611753565b6002600381111561142f5761142e614228565b5b60ff168173__$5dc66471518b5e7762576f597300b6c9be$__63f3ddaa6490916040518263ffffffff1660e01b815260040161146b9190613f57565b60206040518083038186803b15801561148357600080fd5b505af4158015611497573d6000803e3d6000fd5b505050506040513d601f19601f820116820180604052508101906114bb919061426c565b60ff161415611579578073__$5dc66471518b5e7762576f597300b6c9be$__63ed7d1de990916040518263ffffffff1660e01b81526004016114fd9190613f57565b60206040518083038186803b15801561151557600080fd5b505af4158015611529573d6000803e3d6000fd5b505050506040513d601f19601f8201168201806040525081019061154d91906140ff565b63ffffffff168363ffffffff161061156c576001945050505050611753565b6000945050505050611753565b60008773__$5dc66471518b5e7762576f597300b6c9be$__63ab9087e190916040518263ffffffff1660e01b81526004016115b49190613f57565b60206040518083038186803b1580156115cc57600080fd5b505af41580156115e0573d6000803e3d6000fd5b505050506040513d601f19601f8201168201806040525081019061160491906140ff565b905060008873__$5dc66471518b5e7762576f597300b6c9be$__639078172e90916040518263ffffffff1660e01b81526004016116419190613f57565b60206040518083038186803b15801561165957600080fd5b505af415801561166d573d6000803e3d6000fd5b505050506040513d601f19601f8201168201806040525081019061169191906141fb565b90508273__$5dc66471518b5e7762576f597300b6c9be$__632bb3152790916040518263ffffffff1660e01b81526004016116cc9190613f57565b60206040518083038186803b1580156116e457600080fd5b505af41580156116f8573d6000803e3d6000fd5b505050506040513d601f19601f8201168201806040525081019061171c91906140ff565b63ffffffff1661172e86848785613123565b63ffffffff16106117485760019650505050505050611753565b600096505050505050505b949350505050565b600273__$6be8a34d719d54efe8ce2a1215b9d85036$__63ec46b6fc9091336040518363ffffffff1660e01b8152600401611797929190613b6c565b60206040518083038186803b1580156117af57600080fd5b505af41580156117c3573d6000803e3d6000fd5b505050506040513d601f19601f820116820180604052508101906117e79190613bc1565b611826576040517f08c379a000000000000000000000000000000000000000000000000000000000815260040161181d90613c4b565b60405180910390fd5b80600560006101000a81548173ffffffffffffffffffffffffffffffffffffffff021916908373ffffffffffffffffffffffffffffffffffffffff16021790555050565b6000600873__$60819bf3fa70e900ebaf23f60586c0d140$__633f5f77cd9091846040518363ffffffff1660e01b81526004016118a8929190613d7c565b60206040518083038186803b1580156118c057600080fd5b505af41580156118d4573d6000803e3d6000fd5b505050506040513d601f19601f820116820180604052508101906118f89190613bc1565b9050919050565b600273__$6be8a34d719d54efe8ce2a1215b9d85036$__63ec46b6fc9091336040518363ffffffff1660e01b815260040161193b929190613b6c565b60206040518083038186803b15801561195357600080fd5b505af4158015611967573d6000803e3d6000fd5b505050506040513d601f19601f8201168201806040525081019061198b9190613bc1565b6119ca576040517f08c379a00000000000000000000000000000000000000000000000000000000081526004016119c190613c4b565b60405180910390fd5b80600760006101000a81548173ffffffffffffffffffffffffffffffffffffffff021916908373ffffffffffffffffffffffffffffffffffffffff16021790555050565b6000600273__$6be8a34d719d54efe8ce2a1215b9d85036$__63de7984ec9091846040518363ffffffff1660e01b8152600401611a4c929190614299565b60206040518083038186803b158015611a6457600080fd5b505af4158015611a78573d6000803e3d6000fd5b505050506040513d601f19601f82011682018060405250810190611a9c9190613f72565b9050919050565b600273__$6be8a34d719d54efe8ce2a1215b9d85036$__630f072325909133846040518463ffffffff1660e01b8152600401611ae1939291906142c2565b60006040518083038186803b158015611af957600080fd5b505af4158015611b0d573d6000803e3d6000fd5b505050507fe435cbeab64e4eae6497b9d8289704bd709d624a80704ef3ca9af777534bc6ec81604051611b4091906138d5565b60405180910390a150565b600273__$6be8a34d719d54efe8ce2a1215b9d85036$__63d2a15ba7909184611b72613070565b856040518563ffffffff1660e01b8152600401611b92949392919061393f565b60006040518083038186803b158015611baa57600080fd5b505af4158015611bbe573d6000803e3d6000fd5b505050505050565b600273__$6be8a34d719d54efe8ce2a1215b9d85036$__63124d899c90917f4174746f726e6579730000000000000000000000000000000000000000000000611c0d613070565b6040518463ffffffff1660e01b8152600401611c2b93929190613c94565b60206040518083038186803b158015611c4357600080fd5b505af4158015611c57573d6000803e3d6000fd5b505050506040513d601f19601f82011682018060405250810190611c7b9190613bc1565b611cba576040517f08c379a0000000000000000000000000000000000000000000000000000000008152600401611cb190613d17565b60405180910390fd5b600873__$60819bf3fa70e900ebaf23f60586c0d140$__6392fd02df9091836040518363ffffffff1660e01b8152600401611cf6929190613d7c565b60206040518083038186803b158015611d0e57600080fd5b505af4158015611d22573d6000803e3d6000fd5b505050506040513d601f19601f82011682018060405250810190611d469190613bc1565b15611d6a57600d60008264ffffffffff168152602001908152602001600020600090555b50565b6000600273__$6be8a34d719d54efe8ce2a1215b9d85036$__63124d899c909185856040518463ffffffff1660e01b8152600401611dad93929190613c94565b60206040518083038186803b158015611dc557600080fd5b505af4158015611dd9573d6000803e3d6000fd5b505050506040513d601f19601f82011682018060405250810190611dfd9190613bc1565b905092915050565b611e0e82613224565b611e178161332d565b600273__$6be8a34d719d54efe8ce2a1215b9d85036$__636f34afb1909186866040518463ffffffff1660e01b8152600401611e55939291906142f9565b60006040518083038186803b158015611e6d57600080fd5b505af4158015611e81573d6000803e3d6000fd5b505050507f4d18c0021addc919105cb1ed2c11ad241e859cc1d9e77d4ee1d9ca2cdc1f255b84848484604051611eba9493929190614330565b60405180910390a150505050565b6000611ed2613070565b9050600273__$6be8a34d719d54efe8ce2a1215b9d85036$__63f2c6b2a6909184846040518463ffffffff1660e01b8152600401611f1293929190613c94565b60006040518083038186803b158015611f2a57600080fd5b505af4158015611f3e573d6000803e3d6000fd5b505050505050565b600060026007811115611f5c57611f5b614228565b5b60ff16600760009054906101000a900473ffffffffffffffffffffffffffffffffffffffff1673ffffffffffffffffffffffffffffffffffffffff16636a564261856040518263ffffffff1660e01b8152600401611fba91906138d5565b60206040518083038186803b158015611fd257600080fd5b505afa158015611fe6573d6000803e3d6000fd5b505050506040513d601f19601f8201168201806040525081019061200a919061426c565b60ff161461201b57600090506126ed565b6001600c81111561202f5761202e614228565b5b60ff168273__$5dc66471518b5e7762576f597300b6c9be$__63c9b8f08e90916040518263ffffffff1660e01b815260040161206b9190613f57565b60206040518083038186803b15801561208357600080fd5b505af4158015612097573d6000803e3d6000fd5b505050506040513d601f19601f820116820180604052508101906120bb919061426c565b60ff16148061216a57506008600c8111156120d9576120d8614228565b5b60ff168273__$5dc66471518b5e7762576f597300b6c9be$__63c9b8f08e90916040518263ffffffff1660e01b81526004016121159190613f57565b60206040518083038186803b15801561212d57600080fd5b505af4158015612141573d6000803e3d6000fd5b505050506040513d601f19601f82011682018060405250810190612165919061426c565b60ff16145b1561217857600090506126ed565b60008273__$5dc66471518b5e7762576f597300b6c9be$__63d914a1d090916040518263ffffffff1660e01b81526004016121b39190613f57565b60206040518083038186803b1580156121cb57600080fd5b505af41580156121df573d6000803e3d6000fd5b505050506040513d601f19601f820116820180604052508101906122039190613f72565b9050600873__$60819bf3fa70e900ebaf23f60586c0d140$__633f5f77cd9091836040518363ffffffff1660e01b8152600401612241929190613d7c565b60206040518083038186803b15801561225957600080fd5b505af415801561226d573d6000803e3d6000fd5b505050506040513d601f19601f820116820180604052508101906122919190613bc1565b61229f5760009150506126ed565b6000600d60008364ffffffffff168152602001908152602001600020549050600060038111156122d2576122d1614228565b5b60ff168173__$5dc66471518b5e7762576f597300b6c9be$__63f3ddaa6490916040518263ffffffff1660e01b815260040161230e9190613f57565b60206040518083038186803b15801561232657600080fd5b505af415801561233a573d6000803e3d6000fd5b505050506040513d601f19601f8201168201806040525081019061235e919061426c565b60ff161415612372576001925050506126ed565b6000600560009054906101000a900473ffffffffffffffffffffffffffffffffffffffff1673ffffffffffffffffffffffffffffffffffffffff1663984199286040518163ffffffff1660e01b815260040160206040518083038186803b1580156123dc57600080fd5b505afa1580156123f0573d6000803e3d6000fd5b505050506040513d601f19601f820116820180604052508101906124149190613f72565b9050600560009054906101000a900473ffffffffffffffffffffffffffffffffffffffff1673ffffffffffffffffffffffffffffffffffffffff166347686cf2846040518263ffffffff1660e01b81526004016124719190613804565b60206040518083038186803b15801561248957600080fd5b505afa15801561249d573d6000803e3d6000fd5b505050506040513d601f19601f820116820180604052508101906124c19190613f72565b64ffffffffff168164ffffffffff16146124e157600093505050506126ed565b600080600760009054906101000a900473ffffffffffffffffffffffffffffffffffffffff1673ffffffffffffffffffffffffffffffffffffffff1663deb57175896040518263ffffffff1660e01b815260040161253f91906138d5565b60206040518083038186803b15801561255757600080fd5b505afa15801561256b573d6000803e3d6000fd5b505050506040513d601f19601f8201168201806040525081019061258f919061438a565b73ffffffffffffffffffffffffffffffffffffffff16635346aa486040518163ffffffff1660e01b8152600401604080518083038186803b1580156125d357600080fd5b505afa1580156125e7573d6000803e3d6000fd5b505050506040513d601f19601f8201168201806040525081019061260b91906143f7565b915091508164ffffffffff168364ffffffffff1614612632576001955050505050506126ed565b8373__$5dc66471518b5e7762576f597300b6c9be$__6320b2406390916040518263ffffffff1660e01b815260040161266b9190613f57565b60206040518083038186803b15801561268357600080fd5b505af4158015612697573d6000803e3d6000fd5b505050506040513d601f19601f820116820180604052508101906126bb9190614437565b67ffffffffffffffff168167ffffffffffffffff16116126e3576001955050505050506126ed565b6000955050505050505b92915050565b6000600560009054906101000a900473ffffffffffffffffffffffffffffffffffffffff16905090565b6000600660009054906101000a900473ffffffffffffffffffffffffffffffffffffffff16905090565b600060028060000160009054906101000a900460ff1660ff1614905090565b6060600873__$60819bf3fa70e900ebaf23f60586c0d140$__639857dfd590916040518263ffffffff1660e01b81526004016127a2919061398b565b60006040518083038186803b1580156127ba57600080fd5b505af41580156127ce573d6000803e3d6000fd5b505050506040513d6000823e3d601f19601f820116820180604052508101906127f79190613b14565b905090565b600273__$6be8a34d719d54efe8ce2a1215b9d85036$__63124d899c90917f4174746f726e6579730000000000000000000000000000000000000000000000612843613070565b6040518463ffffffff1660e01b815260040161286193929190613c94565b60206040518083038186803b15801561287957600080fd5b505af415801561288d573d6000803e3d6000fd5b505050506040513d601f19601f820116820180604052508101906128b19190613bc1565b6128f0576040517f08c379a00000000000000000000000000000000000000000000000000000000081526004016128e790613d17565b60405180910390fd5b600c6000600d60008564ffffffffff16815260200190815260200160002054815260200190815260200160002073__$60819bf3fa70e900ebaf23f60586c0d140$__6392f13c3f9091836040518363ffffffff1660e01b8152600401612957929190613d7c565b60206040518083038186803b15801561296f57600080fd5b505af4158015612983573d6000803e3d6000fd5b505050506040513d601f19601f820116820180604052508101906129a79190613bc1565b505050565b6000600d60008364ffffffffff168152602001908152602001600020549050919050565b6000600760009054906101000a900473ffffffffffffffffffffffffffffffffffffffff16905090565b60008060009054906101000a900473ffffffffffffffffffffffffffffffffffffffff1673ffffffffffffffffffffffffffffffffffffffff1663d8eaeca5612a4284611a0e565b6040518263ffffffff1660e01b8152600401612a5e9190613804565b60206040518083038186803b158015612a7657600080fd5b505afa158015612a8a573d6000803e3d6000fd5b505050506040513d601f19601f82011682018060405250810190612aae919061438a565b9050919050565b600273__$6be8a34d719d54efe8ce2a1215b9d85036$__63124d899c90917f4174746f726e6579730000000000000000000000000000000000000000000000612afc613070565b6040518463ffffffff1660e01b8152600401612b1a93929190613c94565b60206040518083038186803b158015612b3257600080fd5b505af4158015612b46573d6000803e3d6000fd5b505050506040513d601f19601f82011682018060405250810190612b6a9190613bc1565b612ba9576040517f08c379a0000000000000000000000000000000000000000000000000000000008152600401612ba090613d17565b60405180910390fd5b600c6000600d60008564ffffffffff16815260200190815260200160002054815260200190815260200160002073__$60819bf3fa70e900ebaf23f60586c0d140$__6392fd02df9091836040518363ffffffff1660e01b8152600401612c10929190613d7c565b60206040518083038186803b158015612c2857600080fd5b505af4158015612c3c573d6000803e3d6000fd5b505050506040513d601f19601f82011682018060405250810190612c609190613bc1565b505050565b6000600273__$6be8a34d719d54efe8ce2a1215b9d85036$__63787cad8290916040518263ffffffff1660e01b8152600401612ca19190614464565b60206040518083038186803b158015612cb957600080fd5b505af4158015612ccd573d6000803e3d6000fd5b505050506040513d601f19601f82011682018060405250810190612cf1919061438a565b905090565b6001600260000160009054906101000a900460ff1660ff1614612d4e576040517f08c379a0000000000000000000000000000000000000000000000000000000008152600401612d45906144cb565b60405180910390fd5b600273__$6be8a34d719d54efe8ce2a1215b9d85036$__63ec46b6fc9091336040518363ffffffff1660e01b8152600401612d8a929190613b6c565b60206040518083038186803b158015612da257600080fd5b505af4158015612db6573d6000803e3d6000fd5b505050506040513d601f19601f82011682018060405250810190612dda9190613bc1565b612e19576040517f08c379a0000000000000000000000000000000000000000000000000000000008152600401612e1090613c4b565b60405180910390fd5b600273__$6be8a34d719d54efe8ce2a1215b9d85036$__63cc99e11b90917f4174746f726e65797300000000000000000000000000000000000000000000006040518363ffffffff1660e01b8152600401612e75929190613c6b565b60006040518083038186803b158015612e8d57600080fd5b505af4158015612ea1573d6000803e3d6000fd5b50505050600273__$6be8a34d719d54efe8ce2a1215b9d85036$__63772d54e19091600160006040518463ffffffff1660e01b8152600401612ee593929190614557565b60006040518083038186803b158015612efd57600080fd5b505af4158015612f11573d6000803e3d6000fd5b5050505060028060000160006101000a81548160ff021916908360ff1602179055507f35012b512309c322acf68632cd6cb702ff0e1d776fbe9394e38ffc13b434fe7560405160405180910390a1565b600273__$6be8a34d719d54efe8ce2a1215b9d85036$__63ec46b6fc9091336040518363ffffffff1660e01b8152600401612f9d929190613b6c565b60206040518083038186803b158015612fb557600080fd5b505af4158015612fc9573d6000803e3d6000fd5b505050506040513d601f19601f82011682018060405250810190612fed9190613bc1565b61302c576040517f08c379a000000000000000000000000000000000000000000000000000000000815260040161302390613c4b565b60405180910390fd5b80600660006101000a81548173ffffffffffffffffffffffffffffffffffffffff021916908373ffffffffffffffffffffffffffffffffffffffff16021790555050565b60008060009054906101000a900473ffffffffffffffffffffffffffffffffffffffff1673ffffffffffffffffffffffffffffffffffffffff16639bd06bce336040518263ffffffff1660e01b81526004016130cc91906138d5565b602060405180830381600087803b1580156130e657600080fd5b505af11580156130fa573d6000803e3d6000fd5b505050506040513d601f19601f8201168201806040525081019061311e9190613f72565b905090565b60008363ffffffff168563ffffffff1611613173576040517f08c379a000000000000000000000000000000000000000000000000000000000815260040161316a906145da565b60405180910390fd5b8165ffffffffffff168365ffffffffffff16116131c5576040517f08c379a00000000000000000000000000000000000000000000000000000000081526004016131bc90614646565b60405180910390fd5b600084866131d39190614695565b9050600083856131e391906146c9565b9050806301e1338087612710856131fa91906146fd565b613204919061476a565b61320e91906146fd565b613218919061476a565b92505050949350505050565b600073ffffffffffffffffffffffffffffffffffffffff1660008054906101000a900473ffffffffffffffffffffffffffffffffffffffff1673ffffffffffffffffffffffffffffffffffffffff16146132b3576040517f08c379a00000000000000000000000000000000000000000000000000000000081526004016132aa906147e7565b60405180910390fd5b806000806101000a81548173ffffffffffffffffffffffffffffffffffffffff021916908373ffffffffffffffffffffffffffffffffffffffff1602179055507f318da6c7624c71cbc0afe346c9d8827f119d0ecefb241a7b0c87217a076a8e028160405161332291906138d5565b60405180910390a150565b80600160006101000a81548173ffffffffffffffffffffffffffffffffffffffff021916908373ffffffffffffffffffffffffffffffffffffffff1602179055507fe513d3e0f0d0a3877029dcc588748679a7a3450ec1ec7ed56d96bd012c3e61aa8160405161339d91906138d5565b60405180910390a150565b50805460008255906000526020600020908101906133c691906133c9565b50565b5b808211156133e25760008160009055506001016133ca565b5090565b6000604051905090565b600080fd5b600080fd5b6000819050919050565b61340d816133fa565b811461341857600080fd5b50565b60008135905061342a81613404565b92915050565b600064ffffffffff82169050919050565b61344a81613430565b811461345557600080fd5b50565b60008135905061346781613441565b92915050565b60008060408385031215613484576134836133f0565b5b60006134928582860161341b565b92505060206134a385828601613458565b9150509250929050565b6000602082840312156134c3576134c26133f0565b5b60006134d184828501613458565b91505092915050565b600081519050919050565b600082825260208201905092915050565b6000819050602082019050919050565b61350f81613430565b82525050565b60006135218383613506565b60208301905092915050565b6000602082019050919050565b6000613545826134da565b61354f81856134e5565b935061355a836134f6565b8060005b8381101561358b5781516135728882613515565b975061357d8361352d565b92505060018101905061355e565b5085935050505092915050565b600060208201905081810360008301526135b2818461353a565b905092915050565b6000602082840312156135d0576135cf6133f0565b5b60006135de8482850161341b565b91505092915050565b600080604083850312156135fe576135fd6133f0565b5b600061360c85828601613458565b925050602061361d85828601613458565b9150509250929050565b60008115159050919050565b61363c81613627565b82525050565b60006020820190506136576000830184613633565b92915050565b600060ff82169050919050565b6136738161365d565b811461367e57600080fd5b50565b6000813590506136908161366a565b92915050565b600080604083850312156136ad576136ac6133f0565b5b60006136bb85828601613681565b92505060206136cc85828601613458565b9150509250929050565b600073ffffffffffffffffffffffffffffffffffffffff82169050919050565b6000613701826136d6565b9050919050565b613711816136f6565b811461371c57600080fd5b50565b60008135905061372e81613708565b92915050565b6000806000806080858703121561374e5761374d6133f0565b5b600061375c8782880161371f565b945050602061376d8782880161341b565b935050604061377e8782880161341b565b925050606061378f87828801613458565b91505092959194509250565b6000602082840312156137b1576137b06133f0565b5b60006137bf8482850161371f565b91505092915050565b6000602082840312156137de576137dd6133f0565b5b60006137ec84828501613681565b91505092915050565b6137fe81613430565b82525050565b600060208201905061381960008301846137f5565b92915050565b60008060008060808587031215613839576138386133f0565b5b600061384787828801613458565b94505060206138588782880161371f565b93505060406138698782880161371f565b925050606061387a8782880161371f565b91505092959194509250565b6000806040838503121561389d5761389c6133f0565b5b60006138ab8582860161371f565b92505060206138bc8582860161341b565b9150509250929050565b6138cf816136f6565b82525050565b60006020820190506138ea60008301846138c6565b92915050565b6138f9816133fa565b82525050565b600060208201905061391460008301846138f0565b92915050565b8082525050565b61392a816133fa565b82525050565b61393981613430565b82525050565b6000608082019050613954600083018761391a565b6139616020830186613921565b61396e6040830185613930565b61397b6060830184613930565b95945050505050565b8082525050565b60006020820190506139a06000830184613984565b92915050565b600080fd5b6000601f19601f8301169050919050565b7f4e487b7100000000000000000000000000000000000000000000000000000000600052604160045260246000fd5b6139f4826139ab565b810181811067ffffffffffffffff82111715613a1357613a126139bc565b5b80604052505050565b6000613a266133e6565b9050613a3282826139eb565b919050565b600067ffffffffffffffff821115613a5257613a516139bc565b5b602082029050602081019050919050565b600080fd5b600081519050613a7781613441565b92915050565b6000613a90613a8b84613a37565b613a1c565b90508083825260208201905060208402830185811115613ab357613ab2613a63565b5b835b81811015613adc5780613ac88882613a68565b845260208401935050602081019050613ab5565b5050509392505050565b600082601f830112613afb57613afa6139a6565b5b8151613b0b848260208601613a7d565b91505092915050565b600060208284031215613b2a57613b296133f0565b5b600082015167ffffffffffffffff811115613b4857613b476133f5565b5b613b5484828501613ae6565b91505092915050565b613b66816136f6565b82525050565b6000604082019050613b81600083018561391a565b613b8e6020830184613b5d565b9392505050565b613b9e81613627565b8114613ba957600080fd5b50565b600081519050613bbb81613b95565b92915050565b600060208284031215613bd757613bd66133f0565b5b6000613be584828501613bac565b91505092915050565b600082825260208201905092915050565b7f41432e6f6e6c79444b3a206e6f7420646972656374206b656570657200000000600082015250565b6000613c35601c83613bee565b9150613c4082613bff565b602082019050919050565b60006020820190508181036000830152613c6481613c28565b9050919050565b6000604082019050613c80600083018561391a565b613c8d6020830184613921565b9392505050565b6000606082019050613ca9600083018661391a565b613cb66020830185613921565b613cc36040830184613930565b949350505050565b7f41432e6f6e6c794174746f726e65793a206e6f74204174746f726e6579000000600082015250565b6000613d01601d83613bee565b9150613d0c82613ccb565b602082019050919050565b60006020820190508181036000830152613d3081613cf4565b9050919050565b6000819050919050565b6000819050919050565b6000613d66613d61613d5c84613430565b613d41565b613d37565b9050919050565b613d7681613d4b565b82525050565b6000604082019050613d916000830185613984565b613d9e6020830184613d6d565b9392505050565b8082525050565b6000604082019050613dc16000830185613da5565b613dce6020830184613921565b9392505050565b6000819050919050565b6000613dfa613df5613df084613dd5565b613d41565b61365d565b9050919050565b613e0a81613ddf565b82525050565b6000606082019050613e25600083018661391a565b613e326020830185613e01565b613e3f6040830184613930565b949350505050565b7f41432e6f776e65724f72426f6f6b65657065723a206e656974686572206f776e60008201527f6572206e6f7220626f6f6b656570657200000000000000000000000000000000602082015250565b6000613ea3603083613bee565b9150613eae82613e47565b604082019050919050565b60006020820190508181036000830152613ed281613e96565b9050919050565b613ee28161365d565b82525050565b6000606082019050613efd600083018661391a565b613f0a6020830185613ed9565b613f176040830184613930565b949350505050565b613f288161365d565b82525050565b6000604082019050613f436000830185613f1f565b613f5060208301846137f5565b9392505050565b6000602082019050613f6c6000830184613921565b92915050565b600060208284031215613f8857613f876133f0565b5b6000613f9684828501613a68565b91505092915050565b7f44412e7072696365436865636b3a2063616c6c6572206973206e6f742064726160008201527f676572206f662044726167416c6f6e6700000000000000000000000000000000602082015250565b6000613ffb603083613bee565b915061400682613f9f565b604082019050919050565b6000602082019050818103600083015261402a81613fee565b9050919050565b7f44412e5072696365436865636b3a2063616c6c657220616e642074617267657460008201527f207368617265686f6c646572204e4f54206c696e6b6564000000000000000000602082015250565b600061408d603783613bee565b915061409882614031565b604082019050919050565b600060208201905081810360008301526140bc81614080565b9050919050565b600063ffffffff82169050919050565b6140dc816140c3565b81146140e757600080fd5b50565b6000815190506140f9816140d3565b92915050565b600060208284031215614115576141146133f0565b5b6000614123848285016140ea565b91505092915050565b600061ffff82169050919050565b6141438161412c565b811461414e57600080fd5b50565b6000815190506141608161413a565b92915050565b60006020828403121561417c5761417b6133f0565b5b600061418a84828501614151565b91505092915050565b61419c8161412c565b82525050565b60006020820190506141b76000830184614193565b92915050565b600065ffffffffffff82169050919050565b6141d8816141bd565b81146141e357600080fd5b50565b6000815190506141f5816141cf565b92915050565b600060208284031215614211576142106133f0565b5b600061421f848285016141e6565b91505092915050565b7f4e487b7100000000000000000000000000000000000000000000000000000000600052602160045260246000fd5b6000815190506142668161366a565b92915050565b600060208284031215614282576142816133f0565b5b600061429084828501614257565b91505092915050565b60006040820190506142ae600083018561391a565b6142bb6020830184613ed9565b9392505050565b60006060820190506142d7600083018661391a565b6142e46020830185613b5d565b6142f16040830184613b5d565b949350505050565b600060608201905061430e600083018661391a565b61431b6020830185613930565b6143286040830184613b5d565b949350505050565b600060808201905061434560008301876137f5565b61435260208301866138c6565b61435f60408301856138c6565b61436c60608301846138c6565b95945050505050565b60008151905061438481613708565b92915050565b6000602082840312156143a05761439f6133f0565b5b60006143ae84828501614375565b91505092915050565b600067ffffffffffffffff82169050919050565b6143d4816143b7565b81146143df57600080fd5b50565b6000815190506143f1816143cb565b92915050565b6000806040838503121561440e5761440d6133f0565b5b600061441c85828601613a68565b925050602061442d858286016143e2565b9150509250929050565b60006020828403121561444d5761444c6133f0565b5b600061445b848285016143e2565b91505092915050565b6000602082019050614479600083018461391a565b92915050565b7f41432e6f6e6c7950656e64696e673a20446f632069732066696e616c697a6564600082015250565b60006144b5602083613bee565b91506144c08261447f565b602082019050919050565b600060208201905081810360008301526144e4816144a8565b9050919050565b6000819050919050565b600061451061450b614506846144eb565b613d41565b61365d565b9050919050565b614520816144f5565b82525050565b600061454161453c61453784613dd5565b613d41565b613430565b9050919050565b61455181614526565b82525050565b600060608201905061456c600083018661391a565b6145796020830185614517565b6145866040830184614548565b949350505050565b7f4e454741544956452073656c6c696e6720707269636500000000000000000000600082015250565b60006145c4601683613bee565b91506145cf8261458e565b602082019050919050565b600060208201905081810360008301526145f3816145b7565b9050919050565b7f4e4547415449564520686f6c64696e6720706572696f64000000000000000000600082015250565b6000614630601783613bee565b915061463b826145fa565b602082019050919050565b6000602082019050818103600083015261465f81614623565b9050919050565b7f4e487b7100000000000000000000000000000000000000000000000000000000600052601160045260246000fd5b60006146a0826140c3565b91506146ab836140c3565b9250828210156146be576146bd614666565b5b828203905092915050565b60006146d4826141bd565b91506146df836141bd565b9250828210156146f2576146f1614666565b5b828203905092915050565b6000614708826140c3565b9150614713836140c3565b92508163ffffffff04831182151516156147305761472f614666565b5b828202905092915050565b7f4e487b7100000000000000000000000000000000000000000000000000000000600052601260045260246000fd5b6000614775826140c3565b9150614780836140c3565b9250826147905761478f61473b565b5b828204905092915050565b7f616c7265616479207365742072656743656e7465720000000000000000000000600082015250565b60006147d1601583613bee565b91506147dc8261479b565b602082019050919050565b60006020820190508181036000830152614800816147c4565b905091905056fea2646970667358221220ffe91b59019e292e954c3833bb6a5e5de45aed9ee5a21d1d187b892168d3be1064736f6c63430008080033",
  "linkReferences": {
    "contracts/common/lib/EnumerableSet.sol": {
      "EnumerableSet": [
        {
          "length": 20,
          "start": 1898
        },
        {
          "length": 20,
          "start": 2606
        },
        {
          "length": 20,
          "start": 2753
        },
        {
          "length": 20,
          "start": 2980
        },
        {
          "length": 20,
          "start": 3903
        },
        {
          "length": 20,
          "start": 6288
        },
        {
          "length": 20,
          "start": 7390
        },
        {
          "length": 20,
          "start": 8745
        },
        {
          "length": 20,
          "start": 10124
        },
        {
          "length": 20,
          "start": 10559
        },
        {
          "length": 20,
          "start": 11256
        }
      ]
    },
    "contracts/common/lib/RolesRepo.sol": {
      "RolesRepo": [
        {
          "length": 20,
          "start": 1607
        },
        {
          "length": 20,
          "start": 1730
        },
        {
          "length": 20,
          "start": 2048
        },
        {
          "length": 20,
          "start": 2251
        },
        {
          "length": 20,
          "start": 2362
        },
        {
          "length": 20,
          "start": 3128
        },
        {
          "length": 20,
          "start": 3274
        },
        {
          "length": 20,
          "start": 3488
        },
        {
          "length": 20,
          "start": 3659
        },
        {
          "length": 20,
          "start": 6015
        },
        {
          "length": 20,
          "start": 6435
        },
        {
          "length": 20,
          "start": 6708
        },
        {
          "length": 20,
          "start": 6855
        },
        {
          "length": 20,
          "start": 7023
        },
        {
          "length": 20,
          "start": 7146
        },
        {
          "length": 20,
          "start": 7571
        },
        {
          "length": 20,
          "start": 7739
        },
        {
          "length": 20,
          "start": 7928
        },
        {
          "length": 20,
          "start": 10272
        },
        {
          "length": 20,
          "start": 10969
        },
        {
          "length": 20,
          "start": 11403
        },
        {
          "length": 20,
          "start": 11634
        },
        {
          "length": 20,
          "start": 11837
        },
        {
          "length": 20,
          "start": 11977
        },
        {
          "length": 20,
          "start": 12165
        }
      ]
    },
    "contracts/common/lib/SNParser.sol": {
      "SNParser": [
        {
          "length": 20,
          "start": 4123
        },
        {
          "length": 20,
          "start": 4346
        },
        {
          "length": 20,
          "start": 4553
        },
        {
          "length": 20,
          "start": 4722
        },
        {
          "length": 20,
          "start": 5023
        },
        {
          "length": 20,
          "start": 5205
        },
        {
          "length": 20,
          "start": 5351
        },
        {
          "length": 20,
          "start": 5534
        },
        {
          "length": 20,
          "start": 5675
        },
        {
          "length": 20,
          "start": 5814
        },
        {
          "length": 20,
          "start": 8277
        },
        {
          "length": 20,
          "start": 8447
        },
        {
          "length": 20,
          "start": 8605
        },
        {
          "length": 20,
          "start": 8952
        },
        {
          "length": 20,
          "start": 9813
        }
      ]
    }
  },
  "deployedLinkReferences": {
    "contracts/common/lib/EnumerableSet.sol": {
      "EnumerableSet": [
        {
          "length": 20,
          "start": 1866
        },
        {
          "length": 20,
          "start": 2574
        },
        {
          "length": 20,
          "start": 2721
        },
        {
          "length": 20,
          "start": 2948
        },
        {
          "length": 20,
          "start": 3871
        },
        {
          "length": 20,
          "start": 6256
        },
        {
          "length": 20,
          "start": 7358
        },
        {
          "length": 20,
          "start": 8713
        },
        {
          "length": 20,
          "start": 10092
        },
        {
          "length": 20,
          "start": 10527
        },
        {
          "length": 20,
          "start": 11224
        }
      ]
    },
    "contracts/common/lib/RolesRepo.sol": {
      "RolesRepo": [
        {
          "length": 20,
          "start": 1575
        },
        {
          "length": 20,
          "start": 1698
        },
        {
          "length": 20,
          "start": 2016
        },
        {
          "length": 20,
          "start": 2219
        },
        {
          "length": 20,
          "start": 2330
        },
        {
          "length": 20,
          "start": 3096
        },
        {
          "length": 20,
          "start": 3242
        },
        {
          "length": 20,
          "start": 3456
        },
        {
          "length": 20,
          "start": 3627
        },
        {
          "length": 20,
          "start": 5983
        },
        {
          "length": 20,
          "start": 6403
        },
        {
          "length": 20,
          "start": 6676
        },
        {
          "length": 20,
          "start": 6823
        },
        {
          "length": 20,
          "start": 6991
        },
        {
          "length": 20,
          "start": 7114
        },
        {
          "length": 20,
          "start": 7539
        },
        {
          "length": 20,
          "start": 7707
        },
        {
          "length": 20,
          "start": 7896
        },
        {
          "length": 20,
          "start": 10240
        },
        {
          "length": 20,
          "start": 10937
        },
        {
          "length": 20,
          "start": 11371
        },
        {
          "length": 20,
          "start": 11602
        },
        {
          "length": 20,
          "start": 11805
        },
        {
          "length": 20,
          "start": 11945
        },
        {
          "length": 20,
          "start": 12133
        }
      ]
    },
    "contracts/common/lib/SNParser.sol": {
      "SNParser": [
        {
          "length": 20,
          "start": 4091
        },
        {
          "length": 20,
          "start": 4314
        },
        {
          "length": 20,
          "start": 4521
        },
        {
          "length": 20,
          "start": 4690
        },
        {
          "length": 20,
          "start": 4991
        },
        {
          "length": 20,
          "start": 5173
        },
        {
          "length": 20,
          "start": 5319
        },
        {
          "length": 20,
          "start": 5502
        },
        {
          "length": 20,
          "start": 5643
        },
        {
          "length": 20,
          "start": 5782
        },
        {
          "length": 20,
          "start": 8245
        },
        {
          "length": 20,
          "start": 8415
        },
        {
          "length": 20,
          "start": 8573
        },
        {
          "length": 20,
          "start": 8920
        },
        {
          "length": 20,
          "start": 9781
        }
      ]
    }
  }
}