{
  "_format": "hh-sol-artifact-1",
  "contractName": "MockResults",
  "sourceName": "contracts/books/boa/MockResults.sol",
  "abi": [
    {
      "anonymous": false,
      "inputs": [
        {
          "indexed": true,
          "internalType": "uint40",
          "name": "follower",
          "type": "uint40"
        },
        {
          "indexed": false,
          "internalType": "bytes32",
          "name": "sharenumber",
          "type": "bytes32"
        },
        {
          "indexed": false,
          "internalType": "uint64",
          "name": "amount",
          "type": "uint64"
        }
      ],
      "name": "AddAlongDeal",
      "type": "event"
    },
    {
      "anonymous": false,
      "inputs": [],
      "name": "CreateMockGM",
      "type": "event"
    },
    {
      "anonymous": false,
      "inputs": [
        {
          "indexed": false,
          "internalType": "uint40",
          "name": "owner",
          "type": "uint40"
        },
        {
          "indexed": false,
          "internalType": "address",
          "name": "directKeeper",
          "type": "address"
        },
        {
          "indexed": false,
          "internalType": "address",
          "name": "regCenter",
          "type": "address"
        },
        {
          "indexed": false,
          "internalType": "address",
          "name": "generalKeeper",
          "type": "address"
        }
      ],
      "name": "Init",
      "type": "event"
    },
    {
      "anonymous": false,
      "inputs": [],
      "name": "LockContents",
      "type": "event"
    },
    {
      "anonymous": false,
      "inputs": [
        {
          "indexed": true,
          "internalType": "uint40",
          "name": "buyer",
          "type": "uint40"
        },
        {
          "indexed": false,
          "internalType": "uint64",
          "name": "amount",
          "type": "uint64"
        }
      ],
      "name": "MockDealOfBuy",
      "type": "event"
    },
    {
      "anonymous": false,
      "inputs": [
        {
          "indexed": true,
          "internalType": "uint40",
          "name": "seller",
          "type": "uint40"
        },
        {
          "indexed": false,
          "internalType": "uint64",
          "name": "amount",
          "type": "uint64"
        }
      ],
      "name": "MockDealOfSell",
      "type": "event"
    },
    {
      "anonymous": false,
      "inputs": [
        {
          "indexed": false,
          "internalType": "address",
          "name": "keeper",
          "type": "address"
        }
      ],
      "name": "SetDirectKeeper",
      "type": "event"
    },
    {
      "anonymous": false,
      "inputs": [
        {
          "indexed": false,
          "internalType": "uint256",
          "name": "acct",
          "type": "uint256"
        }
      ],
      "name": "SetGeneralCounsel",
      "type": "event"
    },
    {
      "anonymous": false,
      "inputs": [
        {
          "indexed": false,
          "internalType": "address",
          "name": "gk",
          "type": "address"
        }
      ],
      "name": "SetGeneralKeeper",
      "type": "event"
    },
    {
      "anonymous": false,
      "inputs": [
        {
          "indexed": false,
          "internalType": "uint256",
          "name": "acct",
          "type": "uint256"
        }
      ],
      "name": "SetOwner",
      "type": "event"
    },
    {
      "anonymous": false,
      "inputs": [
        {
          "indexed": false,
          "internalType": "address",
          "name": "rc",
          "type": "address"
        }
      ],
      "name": "SetRegCenter",
      "type": "event"
    },
    {
      "inputs": [
        {
          "internalType": "bytes32",
          "name": "role",
          "type": "bytes32"
        }
      ],
      "name": "abandonRole",
      "outputs": [],
      "stateMutability": "nonpayable",
      "type": "function"
    },
    {
      "inputs": [
        {
          "internalType": "bytes32",
          "name": "rule",
          "type": "bytes32"
        },
        {
          "internalType": "bytes32",
          "name": "shareNumber",
          "type": "bytes32"
        },
        {
          "internalType": "uint64",
          "name": "amount",
          "type": "uint64"
        }
      ],
      "name": "addAlongDeal",
      "outputs": [],
      "stateMutability": "nonpayable",
      "type": "function"
    },
    {
      "inputs": [],
      "name": "createMockGM",
      "outputs": [],
      "stateMutability": "nonpayable",
      "type": "function"
    },
    {
      "inputs": [],
      "name": "finalized",
      "outputs": [
        {
          "internalType": "bool",
          "name": "",
          "type": "bool"
        }
      ],
      "stateMutability": "view",
      "type": "function"
    },
    {
      "inputs": [],
      "name": "getBookeeper",
      "outputs": [
        {
          "internalType": "address",
          "name": "",
          "type": "address"
        }
      ],
      "stateMutability": "view",
      "type": "function"
    },
    {
      "inputs": [],
      "name": "getGeneralCounsel",
      "outputs": [
        {
          "internalType": "uint40",
          "name": "",
          "type": "uint40"
        }
      ],
      "stateMutability": "view",
      "type": "function"
    },
    {
      "inputs": [],
      "name": "getOwner",
      "outputs": [
        {
          "internalType": "uint40",
          "name": "",
          "type": "uint40"
        }
      ],
      "stateMutability": "view",
      "type": "function"
    },
    {
      "inputs": [
        {
          "internalType": "bytes32",
          "name": "role",
          "type": "bytes32"
        },
        {
          "internalType": "uint40",
          "name": "acct",
          "type": "uint40"
        }
      ],
      "name": "grantRole",
      "outputs": [],
      "stateMutability": "nonpayable",
      "type": "function"
    },
    {
      "inputs": [
        {
          "internalType": "bytes32",
          "name": "role",
          "type": "bytes32"
        },
        {
          "internalType": "uint40",
          "name": "acct",
          "type": "uint40"
        }
      ],
      "name": "hasRole",
      "outputs": [
        {
          "internalType": "bool",
          "name": "",
          "type": "bool"
        }
      ],
      "stateMutability": "view",
      "type": "function"
    },
    {
      "inputs": [
        {
          "internalType": "uint40",
          "name": "owner",
          "type": "uint40"
        },
        {
          "internalType": "address",
          "name": "directKeeper",
          "type": "address"
        },
        {
          "internalType": "address",
          "name": "regCenter",
          "type": "address"
        },
        {
          "internalType": "address",
          "name": "generalKeeper",
          "type": "address"
        }
      ],
      "name": "init",
      "outputs": [],
      "stateMutability": "nonpayable",
      "type": "function"
    },
    {
      "inputs": [],
      "name": "lockContents",
      "outputs": [],
      "stateMutability": "nonpayable",
      "type": "function"
    },
    {
      "inputs": [
        {
          "internalType": "bytes32",
          "name": "sn",
          "type": "bytes32"
        },
        {
          "internalType": "uint64",
          "name": "amount",
          "type": "uint64"
        }
      ],
      "name": "mockDealOfBuy",
      "outputs": [],
      "stateMutability": "nonpayable",
      "type": "function"
    },
    {
      "inputs": [
        {
          "internalType": "uint32",
          "name": "ssn",
          "type": "uint32"
        },
        {
          "internalType": "uint64",
          "name": "amount",
          "type": "uint64"
        }
      ],
      "name": "mockDealOfSell",
      "outputs": [],
      "stateMutability": "nonpayable",
      "type": "function"
    },
    {
      "inputs": [
        {
          "internalType": "uint40",
          "name": "acct",
          "type": "uint40"
        }
      ],
      "name": "mockResults",
      "outputs": [
        {
          "internalType": "uint40",
          "name": "group",
          "type": "uint40"
        },
        {
          "internalType": "uint64",
          "name": "sum",
          "type": "uint64"
        }
      ],
      "stateMutability": "view",
      "type": "function"
    },
    {
      "inputs": [
        {
          "internalType": "bytes32",
          "name": "role",
          "type": "bytes32"
        }
      ],
      "name": "renounceRole",
      "outputs": [],
      "stateMutability": "nonpayable",
      "type": "function"
    },
    {
      "inputs": [
        {
          "internalType": "bytes32",
          "name": "role",
          "type": "bytes32"
        },
        {
          "internalType": "uint40",
          "name": "acct",
          "type": "uint40"
        }
      ],
      "name": "revokeRole",
      "outputs": [],
      "stateMutability": "nonpayable",
      "type": "function"
    },
    {
      "inputs": [
        {
          "internalType": "address",
          "name": "keeper",
          "type": "address"
        }
      ],
      "name": "setDirectKeeper",
      "outputs": [],
      "stateMutability": "nonpayable",
      "type": "function"
    },
    {
      "inputs": [
        {
          "internalType": "uint40",
          "name": "acct",
          "type": "uint40"
        }
      ],
      "name": "setGeneralCounsel",
      "outputs": [],
      "stateMutability": "nonpayable",
      "type": "function"
    },
    {
      "inputs": [
        {
          "internalType": "address",
          "name": "ia",
          "type": "address"
        }
      ],
      "name": "setIA",
      "outputs": [],
      "stateMutability": "nonpayable",
      "type": "function"
    },
    {
      "inputs": [
        {
          "internalType": "uint40",
          "name": "acct",
          "type": "uint40"
        }
      ],
      "name": "setOwner",
      "outputs": [],
      "stateMutability": "nonpayable",
      "type": "function"
    },
    {
      "inputs": [
        {
          "internalType": "bytes32",
          "name": "role",
          "type": "bytes32"
        },
        {
          "internalType": "uint40",
          "name": "acct",
          "type": "uint40"
        }
      ],
      "name": "setRoleAdmin",
      "outputs": [],
      "stateMutability": "nonpayable",
      "type": "function"
    },
    {
      "inputs": [],
      "name": "topGroup",
      "outputs": [
        {
          "internalType": "uint40",
          "name": "controllor",
          "type": "uint40"
        },
        {
          "internalType": "uint64",
          "name": "ratio",
          "type": "uint64"
        }
      ],
      "stateMutability": "view",
      "type": "function"
    }
  ],
  "bytecode": "0x608060405234801561001057600080fd5b5061454e806100206000396000f3fe608060405234801561001057600080fd5b50600436106101425760003560e01c80637ba706e8116100b8578063b3f05b971161007c578063b3f05b9714610310578063eb37db041461032e578063ed2110231461034a578063f045a76914610368578063f07b708314610372578063fa2b7fc2146103a357610142565b80637ba706e814610282578063821ee8ea1461029e578063893d20e8146102ba5780638bb9c5bf146102d8578063a57b3ff9146102f457610142565b80633178a9a91161010a5780633178a9a9146101c35780633da9a600146101df5780635346aa48146101fb5780636be8496f1461021a578063740998151461023657806379b2ec121461025257610142565b806301fe7d1814610147578063103f6edd1461016357806316dc517e1461018157806317c51fec1461019d5780631dd014db146101b9575b600080fd5b610161600480360381019061015c9190612def565b6103bf565b005b61016b610696565b6040516101789190612e4f565b60405180910390f35b61019b60048036038101906101969190612ecc565b610727565b005b6101b760048036038101906101b29190612ecc565b6107a2565b005b6101c161081d565b005b6101dd60048036038101906101d89190612f0c565b610a8d565b005b6101f960048036038101906101f49190612f39565b610c98565b005b610203610dd2565b604051610211929190612f75565b60405180910390f35b610234600480360381019061022f9190612ffc565b610f92565b005b610250600480360381019061024b9190612ecc565b61103a565b005b61026c60048036038101906102679190612ecc565b6110b5565b6040516102799190613044565b60405180910390f35b61029c60048036038101906102979190612f0c565b61114d565b005b6102b860048036038101906102b3919061305f565b611358565b005b6102c261141b565b6040516102cf9190612e4f565b60405180910390f35b6102f260048036038101906102ed9190612f39565b6114ac565b005b61030e600480360381019061030991906130c6565b61152a565b005b6103186119a9565b6040516103259190613044565b60405180910390f35b61034860048036038101906103439190613119565b6119c8565b005b610352611d7f565b60405161035f9190613168565b60405180910390f35b610370611e10565b005b61038c60048036038101906103879190612f0c565b612078565b60405161039a929190612f75565b60405180910390f35b6103bd60048036038101906103b89190612ffc565b61219c565b005b60006103c96122ab565b73ffffffffffffffffffffffffffffffffffffffff166352aadfd7846040518263ffffffff1660e01b81526004016104019190613192565b60c06040518083038186803b15801561041957600080fd5b505afa15801561042d573d6000803e3d6000fd5b505050506040513d601f19601f82011682018060405250810190610451919061337f565b90506000816000015173__$5dc66471518b5e7762576f597300b6c9be$__632de1e7ac90916040518263ffffffff1660e01b815260040161049291906133bb565b60206040518083038186803b1580156104aa57600080fd5b505af41580156104be573d6000803e3d6000fd5b505050506040513d601f19601f820116820180604052508101906104e291906133eb565b9050600560000173__$f22993e9701340721e6d6955768f6468e3$__6312c188609091838660016040518563ffffffff1660e01b8152600401610528949392919061344c565b60206040518083038186803b15801561054057600080fd5b505af4158015610554573d6000803e3d6000fd5b505050506040513d601f19601f8201168201806040525081019061057891906134bd565b506000600560000160000160008364ffffffffff168152602001908152602001600020600001600f9054906101000a900467ffffffffffffffff1667ffffffffffffffff16141561065157600573__$330d801566d47dfd9d211586531decf534$__635730b14f9091836040518363ffffffff1660e01b81526004016105ff9291906134f1565b60206040518083038186803b15801561061757600080fd5b505af415801561062b573d6000803e3d6000fd5b505050506040513d601f19601f8201168201806040525081019061064f91906134bd565b505b8064ffffffffff167fd5c855a50c9d4664d7f43c074d6a2bbc049840d703d6e6164ae1731a48aabc6684604051610688919061351a565b60405180910390a250505050565b6000600273__$6be8a34d719d54efe8ce2a1215b9d85036$__63e8c0cc1d90916040518263ffffffff1660e01b81526004016106d2919061353c565b60206040518083038186803b1580156106ea57600080fd5b505af41580156106fe573d6000803e3d6000fd5b505050506040513d601f19601f8201168201806040525081019061072291906133eb565b905090565b600273__$6be8a34d719d54efe8ce2a1215b9d85036$__63427abff490918461074e612370565b856040518563ffffffff1660e01b815260040161076e9493929190613557565b60006040518083038186803b15801561078657600080fd5b505af415801561079a573d6000803e3d6000fd5b505050505050565b600273__$6be8a34d719d54efe8ce2a1215b9d85036$__638ce158459091846107c9612370565b856040518563ffffffff1660e01b81526004016107e99493929190613557565b60006040518083038186803b15801561080157600080fd5b505af4158015610815573d6000803e3d6000fd5b505050505050565b600273__$6be8a34d719d54efe8ce2a1215b9d85036$__63fe2710869091610843612370565b6040518363ffffffff1660e01b81526004016108609291906135e1565b60206040518083038186803b15801561087857600080fd5b505af415801561088c573d6000803e3d6000fd5b505050506040513d601f19601f820116820180604052508101906108b091906134bd565b6108ef576040517f08c379a00000000000000000000000000000000000000000000000000000000081526004016108e690613667565b60405180910390fd5b60006108f9612423565b73ffffffffffffffffffffffffffffffffffffffff16639c54297c6040518163ffffffff1660e01b815260040160006040518083038186803b15801561093e57600080fd5b505afa158015610952573d6000803e3d6000fd5b505050506040513d6000823e3d601f19601f8201168201806040525081019061097b91906137f4565b9050600573__$330d801566d47dfd9d211586531decf534$__63cf5335c2909160006040518363ffffffff1660e01b81526004016109ba929190613878565b60006040518083038186803b1580156109d257600080fd5b505af41580156109e6573d6000803e3d6000fd5b50505050600573__$330d801566d47dfd9d211586531decf534$__638ffd92b19091836040518363ffffffff1660e01b8152600401610a269291906139f8565b60006040518083038186803b158015610a3e57600080fd5b505af4158015610a52573d6000803e3d6000fd5b50505050610a5e6124e7565b7f8aa2599480d96c254f5879823bbe43a474944488334397b2cf5da7fea71ba3c860405160405180910390a150565b600273__$6be8a34d719d54efe8ce2a1215b9d85036$__63ec46b6fc9091336040518363ffffffff1660e01b8152600401610ac9929190613a37565b60206040518083038186803b158015610ae157600080fd5b505af4158015610af5573d6000803e3d6000fd5b505050506040513d601f19601f82011682018060405250810190610b1991906134bd565b80610bb35750600273__$6be8a34d719d54efe8ce2a1215b9d85036$__63fe2710869091610b45612370565b6040518363ffffffff1660e01b8152600401610b629291906135e1565b60206040518083038186803b158015610b7a57600080fd5b505af4158015610b8e573d6000803e3d6000fd5b505050506040513d601f19601f82011682018060405250810190610bb291906134bd565b5b610bf2576040517f08c379a0000000000000000000000000000000000000000000000000000000008152600401610be990613ad2565b60405180910390fd5b600273__$6be8a34d719d54efe8ce2a1215b9d85036$__639c97afbc9091836040518363ffffffff1660e01b8152600401610c2e9291906135e1565b60006040518083038186803b158015610c4657600080fd5b505af4158015610c5a573d6000803e3d6000fd5b505050507ff2735f34b69be1e6342dea95f9162f84d0db925fab655ca9f1f312ac8cbfc99d81604051610c8d9190613b01565b60405180910390a150565b600273__$6be8a34d719d54efe8ce2a1215b9d85036$__63ec46b6fc9091336040518363ffffffff1660e01b8152600401610cd4929190613a37565b60206040518083038186803b158015610cec57600080fd5b505af4158015610d00573d6000803e3d6000fd5b505050506040513d601f19601f82011682018060405250810190610d2491906134bd565b610d63576040517f08c379a0000000000000000000000000000000000000000000000000000000008152600401610d5a90613b8e565b60405180910390fd5b600273__$6be8a34d719d54efe8ce2a1215b9d85036$__63cc99e11b9091836040518363ffffffff1660e01b8152600401610d9f929190613bae565b60006040518083038186803b158015610db757600080fd5b505af4158015610dcb573d6000803e3d6000fd5b5050505050565b600080600573__$330d801566d47dfd9d211586531decf534$__63488e477790916040518263ffffffff1660e01b8152600401610e0f9190613bd7565b60206040518083038186803b158015610e2757600080fd5b505af4158015610e3b573d6000803e3d6000fd5b505050506040513d601f19601f82011682018060405250810190610e5f91906133eb565b9150600573__$330d801566d47dfd9d211586531decf534$__63e5b6c92490916040518263ffffffff1660e01b8152600401610e9b9190613bd7565b60206040518083038186803b158015610eb357600080fd5b505af4158015610ec7573d6000803e3d6000fd5b505050506040513d601f19601f82011682018060405250810190610eeb9190613bf2565b612710600573__$330d801566d47dfd9d211586531decf534$__639c9a670f90916040518263ffffffff1660e01b8152600401610f289190613bd7565b60206040518083038186803b158015610f4057600080fd5b505af4158015610f54573d6000803e3d6000fd5b505050506040513d601f19601f82011682018060405250810190610f789190613bf2565b610f829190613c4e565b610f8c9190613cbf565b90509091565b600273__$6be8a34d719d54efe8ce2a1215b9d85036$__630f072325909133846040518463ffffffff1660e01b8152600401610fd093929190613cf0565b60006040518083038186803b158015610fe857600080fd5b505af4158015610ffc573d6000803e3d6000fd5b505050507fe435cbeab64e4eae6497b9d8289704bd709d624a80704ef3ca9af777534bc6ec8160405161102f9190613168565b60405180910390a150565b600273__$6be8a34d719d54efe8ce2a1215b9d85036$__63d2a15ba7909184611061612370565b856040518563ffffffff1660e01b81526004016110819493929190613557565b60006040518083038186803b15801561109957600080fd5b505af41580156110ad573d6000803e3d6000fd5b505050505050565b6000600273__$6be8a34d719d54efe8ce2a1215b9d85036$__63a8ef95ac909185856040518463ffffffff1660e01b81526004016110f593929190613d27565b60206040518083038186803b15801561110d57600080fd5b505af4158015611121573d6000803e3d6000fd5b505050506040513d601f19601f8201168201806040525081019061114591906134bd565b905092915050565b600273__$6be8a34d719d54efe8ce2a1215b9d85036$__63ec46b6fc9091336040518363ffffffff1660e01b8152600401611189929190613a37565b60206040518083038186803b1580156111a157600080fd5b505af41580156111b5573d6000803e3d6000fd5b505050506040513d601f19601f820116820180604052508101906111d991906134bd565b806112735750600273__$6be8a34d719d54efe8ce2a1215b9d85036$__63fe2710869091611205612370565b6040518363ffffffff1660e01b81526004016112229291906135e1565b60206040518083038186803b15801561123a57600080fd5b505af415801561124e573d6000803e3d6000fd5b505050506040513d601f19601f8201168201806040525081019061127291906134bd565b5b6112b2576040517f08c379a00000000000000000000000000000000000000000000000000000000081526004016112a990613ad2565b60405180910390fd5b600273__$6be8a34d719d54efe8ce2a1215b9d85036$__63b6e38a299091836040518363ffffffff1660e01b81526004016112ee9291906135e1565b60006040518083038186803b15801561130657600080fd5b505af415801561131a573d6000803e3d6000fd5b505050507f8b6f40f36b4ae8cc5f55e895036457c43da4ab1f80f58c46f5ff0d72a650033b8160405161134d9190613b01565b60405180910390a150565b6113618261286b565b61136a81612974565b600273__$6be8a34d719d54efe8ce2a1215b9d85036$__63d9ba1dbe909186866040518463ffffffff1660e01b81526004016113a893929190613d5e565b60006040518083038186803b1580156113c057600080fd5b505af41580156113d4573d6000803e3d6000fd5b505050507f4d18c0021addc919105cb1ed2c11ad241e859cc1d9e77d4ee1d9ca2cdc1f255b8484848460405161140d9493929190613d95565b60405180910390a150505050565b6000600273__$6be8a34d719d54efe8ce2a1215b9d85036$__63987ad15390916040518263ffffffff1660e01b8152600401611457919061353c565b60206040518083038186803b15801561146f57600080fd5b505af4158015611483573d6000803e3d6000fd5b505050506040513d601f19601f820116820180604052508101906114a791906133eb565b905090565b60006114b6612370565b9050600273__$6be8a34d719d54efe8ce2a1215b9d85036$__63f2c6b2a6909184846040518463ffffffff1660e01b81526004016114f693929190613dda565b60006040518083038186803b15801561150e57600080fd5b505af4158015611522573d6000803e3d6000fd5b505050505050565b600273__$6be8a34d719d54efe8ce2a1215b9d85036$__63fe2710869091611550612370565b6040518363ffffffff1660e01b815260040161156d9291906135e1565b60206040518083038186803b15801561158557600080fd5b505af4158015611599573d6000803e3d6000fd5b505050506040513d601f19601f820116820180604052508101906115bd91906134bd565b6115fc576040517f08c379a00000000000000000000000000000000000000000000000000000000081526004016115f390613667565b60405180910390fd5b6000600573__$330d801566d47dfd9d211586531decf534$__634f327b0490918673__$5dc66471518b5e7762576f597300b6c9be$__6357ff9a2690916040518263ffffffff1660e01b815260040161165591906133bb565b60206040518083038186803b15801561166d57600080fd5b505af4158015611681573d6000803e3d6000fd5b505050506040513d601f19601f820116820180604052508101906116a591906133eb565b6040518363ffffffff1660e01b81526004016116c29291906134f1565b60206040518083038186803b1580156116da57600080fd5b505af41580156116ee573d6000803e3d6000fd5b505050506040513d601f19601f8201168201806040525081019061171291906133eb565b905060008373__$5dc66471518b5e7762576f597300b6c9be$__632de1e7ac90916040518263ffffffff1660e01b815260040161174f91906133bb565b60206040518083038186803b15801561176757600080fd5b505af415801561177b573d6000803e3d6000fd5b505050506040513d601f19601f8201168201806040525081019061179f91906133eb565b90506000600573__$330d801566d47dfd9d211586531decf534$__634f327b049091846040518363ffffffff1660e01b81526004016117df9291906134f1565b60206040518083038186803b1580156117f757600080fd5b505af415801561180b573d6000803e3d6000fd5b505050506040513d601f19601f8201168201806040525081019061182f91906133eb565b90508573__$5dc66471518b5e7762576f597300b6c9be$__63a008f1df90916040518263ffffffff1660e01b815260040161186a91906133bb565b60206040518083038186803b15801561188257600080fd5b505af4158015611896573d6000803e3d6000fd5b505050506040513d601f19601f820116820180604052508101906118ba91906134bd565b156118cb576118ca838286612a80565b5b600560000173__$f22993e9701340721e6d6955768f6468e3$__6312c188609091848760016040518563ffffffff1660e01b815260040161190f949392919061344c565b60206040518083038186803b15801561192757600080fd5b505af415801561193b573d6000803e3d6000fd5b505050506040513d601f19601f8201168201806040525081019061195f91906134bd565b508164ffffffffff167fd421fdd8330c6cf010a2abac320c0b68bce096589df45f435add5e2964776cfd8686604051611999929190613e20565b60405180910390a2505050505050565b6000600280600001601e9054906101000a900460ff1660ff1614905090565b60008273__$5dc66471518b5e7762576f597300b6c9be$__6313ae772a90916040518263ffffffff1660e01b8152600401611a0391906133bb565b60206040518083038186803b158015611a1b57600080fd5b505af4158015611a2f573d6000803e3d6000fd5b505050506040513d601f19601f82011682018060405250810190611a5391906133eb565b9050600573__$330d801566d47dfd9d211586531decf534$__6318a667729091836040518363ffffffff1660e01b8152600401611a919291906134f1565b60206040518083038186803b158015611aa957600080fd5b505af4158015611abd573d6000803e3d6000fd5b505050506040513d601f19601f82011682018060405250810190611ae191906134bd565b611b7357600573__$330d801566d47dfd9d211586531decf534$__630ffa80b29091836040518363ffffffff1660e01b8152600401611b219291906134f1565b60206040518083038186803b158015611b3957600080fd5b505af4158015611b4d573d6000803e3d6000fd5b505050506040513d601f19601f82011682018060405250810190611b7191906134bd565b505b600560000173__$f22993e9701340721e6d6955768f6468e3$__6312c188609091838560006040518563ffffffff1660e01b8152600401611bb7949392919061344c565b60206040518083038186803b158015611bcf57600080fd5b505af4158015611be3573d6000803e3d6000fd5b505050506040513d601f19601f82011682018060405250810190611c0791906134bd565b5060008373__$5dc66471518b5e7762576f597300b6c9be$__63a508809a90916040518263ffffffff1660e01b8152600401611c4391906133bb565b60206040518083038186803b158015611c5b57600080fd5b505af4158015611c6f573d6000803e3d6000fd5b505050506040513d601f19601f82011682018060405250810190611c9391906133eb565b90508164ffffffffff168164ffffffffff1614611d3a57600573__$330d801566d47dfd9d211586531decf534$__63a4a6eb0b909184846040518463ffffffff1660e01b8152600401611ce893929190613e49565b60206040518083038186803b158015611d0057600080fd5b505af4158015611d14573d6000803e3d6000fd5b505050506040513d601f19601f82011682018060405250810190611d3891906134bd565b505b8164ffffffffff167f0a8ddab1ab613dc9d3972f9f8cc2a893af636b27cc05120760c16bffe729ad0e84604051611d71919061351a565b60405180910390a250505050565b6000600273__$6be8a34d719d54efe8ce2a1215b9d85036$__63787cad8290916040518263ffffffff1660e01b8152600401611dbb919061353c565b60206040518083038186803b158015611dd357600080fd5b505af4158015611de7573d6000803e3d6000fd5b505050506040513d601f19601f82011682018060405250810190611e0b9190613e95565b905090565b600273__$6be8a34d719d54efe8ce2a1215b9d85036$__63ec46b6fc9091336040518363ffffffff1660e01b8152600401611e4c929190613a37565b60206040518083038186803b158015611e6457600080fd5b505af4158015611e78573d6000803e3d6000fd5b505050506040513d601f19601f82011682018060405250810190611e9c91906134bd565b611edb576040517f08c379a0000000000000000000000000000000000000000000000000000000008152600401611ed290613b8e565b60405180910390fd5b60016002600001601e9054906101000a900460ff1660ff1614611f33576040517f08c379a0000000000000000000000000000000000000000000000000000000008152600401611f2a90613f0e565b60405180910390fd5b600273__$6be8a34d719d54efe8ce2a1215b9d85036$__63cc99e11b90917f4174746f726e65797300000000000000000000000000000000000000000000006040518363ffffffff1660e01b8152600401611f8f929190613bae565b60006040518083038186803b158015611fa757600080fd5b505af4158015611fbb573d6000803e3d6000fd5b50505050600273__$6be8a34d719d54efe8ce2a1215b9d85036$__639c97afbc909160006040518363ffffffff1660e01b8152600401611ffc929190613f5f565b60006040518083038186803b15801561201457600080fd5b505af4158015612028573d6000803e3d6000fd5b50505050600280600001601e6101000a81548160ff021916908360ff1602179055507f35012b512309c322acf68632cd6cb702ff0e1d776fbe9394e38ffc13b434fe7560405160405180910390a1565b600080600573__$330d801566d47dfd9d211586531decf534$__634f327b049091856040518363ffffffff1660e01b81526004016120b79291906134f1565b60206040518083038186803b1580156120cf57600080fd5b505af41580156120e3573d6000803e3d6000fd5b505050506040513d601f19601f8201168201806040525081019061210791906133eb565b9150600573__$330d801566d47dfd9d211586531decf534$__634c694de99091856040518363ffffffff1660e01b81526004016121459291906134f1565b60206040518083038186803b15801561215d57600080fd5b505af4158015612171573d6000803e3d6000fd5b505050506040513d601f19601f820116820180604052508101906121959190613bf2565b9050915091565b600273__$6be8a34d719d54efe8ce2a1215b9d85036$__63ec46b6fc9091336040518363ffffffff1660e01b81526004016121d8929190613a37565b60206040518083038186803b1580156121f057600080fd5b505af4158015612204573d6000803e3d6000fd5b505050506040513d601f19601f8201168201806040525081019061222891906134bd565b612267576040517f08c379a000000000000000000000000000000000000000000000000000000000815260040161225e90613b8e565b60405180910390fd5b80600460006101000a81548173ffffffffffffffffffffffffffffffffffffffff021916908373ffffffffffffffffffffffffffffffffffffffff16021790555050565b6000600160009054906101000a900473ffffffffffffffffffffffffffffffffffffffff1673ffffffffffffffffffffffffffffffffffffffff1663e06eba8c600660078111156122ff576122fe613f88565b5b6040518263ffffffff1660e01b815260040161231b9190613ff6565b60206040518083038186803b15801561233357600080fd5b505afa158015612347573d6000803e3d6000fd5b505050506040513d601f19601f8201168201806040525081019061236b9190613e95565b905090565b60008060009054906101000a900473ffffffffffffffffffffffffffffffffffffffff1673ffffffffffffffffffffffffffffffffffffffff16639bd06bce336040518263ffffffff1660e01b81526004016123cc9190613168565b602060405180830381600087803b1580156123e657600080fd5b505af11580156123fa573d6000803e3d6000fd5b505050506040513d601f19601f8201168201806040525081019061241e91906133eb565b905090565b6000600160009054906101000a900473ffffffffffffffffffffffffffffffffffffffff1673ffffffffffffffffffffffffffffffffffffffff1663e06eba8c60078081111561247657612475613f88565b5b6040518263ffffffff1660e01b81526004016124929190613ff6565b60206040518083038186803b1580156124aa57600080fd5b505afa1580156124be573d6000803e3d6000fd5b505050506040513d601f19601f820116820180604052508101906124e29190613e95565b905090565b6000600460009054906101000a900473ffffffffffffffffffffffffffffffffffffffff1673ffffffffffffffffffffffffffffffffffffffff1663f729d5b36040518163ffffffff1660e01b815260040160006040518083038186803b15801561255157600080fd5b505afa158015612565573d6000803e3d6000fd5b505050506040513d6000823e3d601f19601f8201168201806040525081019061258e91906140d4565b90506000815190505b60008114612867576000826001836125af919061411d565b815181106125c0576125bf614151565b5b60200260200101519050600080600460009054906101000a900473ffffffffffffffffffffffffffffffffffffffff1673ffffffffffffffffffffffffffffffffffffffff1663b7cd72938473__$5dc66471518b5e7762576f597300b6c9be$__635defb38490916040518263ffffffff1660e01b815260040161264491906133bb565b60206040518083038186803b15801561265c57600080fd5b505af4158015612670573d6000803e3d6000fd5b505050506040513d601f19601f8201168201806040525081019061269491906141ac565b6040518263ffffffff1660e01b81526004016126b091906141e8565b60c06040518083038186803b1580156126c857600080fd5b505afa1580156126dc573d6000803e3d6000fd5b505050506040513d601f19601f8201168201806040525081019061270091906142a3565b905061270a612423565b73ffffffffffffffffffffffffffffffffffffffff1663e4df91006040518163ffffffff1660e01b815260040160206040518083038186803b15801561274f57600080fd5b505afa158015612763573d6000803e3d6000fd5b505050506040513d601f19601f8201168201806040525081019061278791906134bd565b1561279857806040015191506127a0565b806020015191505b60008373__$5dc66471518b5e7762576f597300b6c9be$__63a017f5cc90916040518263ffffffff1660e01b81526004016127db91906133bb565b60206040518083038186803b1580156127f357600080fd5b505af4158015612807573d6000803e3d6000fd5b505050506040513d601f19601f8201168201806040525081019061282b91906142e5565b905060008163ffffffff16146128465761284581846103bf565b5b61285084846119c8565b848061285b90614312565b95505050505050612597565b5050565b600073ffffffffffffffffffffffffffffffffffffffff1660008054906101000a900473ffffffffffffffffffffffffffffffffffffffff1673ffffffffffffffffffffffffffffffffffffffff16146128fa576040517f08c379a00000000000000000000000000000000000000000000000000000000081526004016128f190614388565b60405180910390fd5b7f318da6c7624c71cbc0afe346c9d8827f119d0ecefb241a7b0c87217a076a8e02816040516129299190613168565b60405180910390a1806000806101000a81548173ffffffffffffffffffffffffffffffffffffffff021916908373ffffffffffffffffffffffffffffffffffffffff16021790555050565b600073ffffffffffffffffffffffffffffffffffffffff16600160009054906101000a900473ffffffffffffffffffffffffffffffffffffffff1673ffffffffffffffffffffffffffffffffffffffff1614612a05576040517f08c379a00000000000000000000000000000000000000000000000000000000081526004016129fc906143f4565b60405180910390fd5b7fe513d3e0f0d0a3877029dcc588748679a7a3450ec1ec7ed56d96bd012c3e61aa81604051612a349190613168565b60405180910390a180600160006101000a81548173ffffffffffffffffffffffffffffffffffffffff021916908373ffffffffffffffffffffffffffffffffffffffff16021790555050565b6000612a8a612423565b73ffffffffffffffffffffffffffffffffffffffff16633e1b11fa856040518263ffffffff1660e01b8152600401612ac29190612e4f565b60206040518083038186803b158015612ada57600080fd5b505afa158015612aee573d6000803e3d6000fd5b505050506040513d601f19601f82011682018060405250810190612b129190613bf2565b90506000600573__$330d801566d47dfd9d211586531decf534$__634c694de99091876040518363ffffffff1660e01b8152600401612b529291906134f1565b60206040518083038186803b158015612b6a57600080fd5b505af4158015612b7e573d6000803e3d6000fd5b505050506040513d601f19601f82011682018060405250810190612ba29190613bf2565b90506000612bae612423565b73ffffffffffffffffffffffffffffffffffffffff16633e1b11fa866040518263ffffffff1660e01b8152600401612be69190612e4f565b60206040518083038186803b158015612bfe57600080fd5b505afa158015612c12573d6000803e3d6000fd5b505050506040513d601f19601f82011682018060405250810190612c369190613bf2565b90506000600573__$330d801566d47dfd9d211586531decf534$__634c694de99091886040518363ffffffff1660e01b8152600401612c769291906134f1565b60206040518083038186803b158015612c8e57600080fd5b505af4158015612ca2573d6000803e3d6000fd5b505050506040513d601f19601f82011682018060405250810190612cc69190613bf2565b90508184868385612cd79190614414565b612ce19190614448565b612ceb9190613c4e565b612cf59190613cbf565b67ffffffffffffffff168385612d0b9190614414565b67ffffffffffffffff161015612d56576040517f08c379a0000000000000000000000000000000000000000000000000000000008152600401612d4d906144f8565b60405180910390fd5b50505050505050565b6000604051905090565b600080fd5b600080fd5b600063ffffffff82169050919050565b612d8c81612d73565b8114612d9757600080fd5b50565b600081359050612da981612d83565b92915050565b600067ffffffffffffffff82169050919050565b612dcc81612daf565b8114612dd757600080fd5b50565b600081359050612de981612dc3565b92915050565b60008060408385031215612e0657612e05612d69565b5b6000612e1485828601612d9a565b9250506020612e2585828601612dda565b9150509250929050565b600064ffffffffff82169050919050565b612e4981612e2f565b82525050565b6000602082019050612e646000830184612e40565b92915050565b6000819050919050565b612e7d81612e6a565b8114612e8857600080fd5b50565b600081359050612e9a81612e74565b92915050565b612ea981612e2f565b8114612eb457600080fd5b50565b600081359050612ec681612ea0565b92915050565b60008060408385031215612ee357612ee2612d69565b5b6000612ef185828601612e8b565b9250506020612f0285828601612eb7565b9150509250929050565b600060208284031215612f2257612f21612d69565b5b6000612f3084828501612eb7565b91505092915050565b600060208284031215612f4f57612f4e612d69565b5b6000612f5d84828501612e8b565b91505092915050565b612f6f81612daf565b82525050565b6000604082019050612f8a6000830185612e40565b612f976020830184612f66565b9392505050565b600073ffffffffffffffffffffffffffffffffffffffff82169050919050565b6000612fc982612f9e565b9050919050565b612fd981612fbe565b8114612fe457600080fd5b50565b600081359050612ff681612fd0565b92915050565b60006020828403121561301257613011612d69565b5b600061302084828501612fe7565b91505092915050565b60008115159050919050565b61303e81613029565b82525050565b60006020820190506130596000830184613035565b92915050565b6000806000806080858703121561307957613078612d69565b5b600061308787828801612eb7565b945050602061309887828801612fe7565b93505060406130a987828801612fe7565b92505060606130ba87828801612fe7565b91505092959194509250565b6000806000606084860312156130df576130de612d69565b5b60006130ed86828701612e8b565b93505060206130fe86828701612e8b565b925050604061310f86828701612dda565b9150509250925092565b600080604083850312156131305761312f612d69565b5b600061313e85828601612e8b565b925050602061314f85828601612dda565b9150509250929050565b61316281612fbe565b82525050565b600060208201905061317d6000830184613159565b92915050565b61318c81612d73565b82525050565b60006020820190506131a76000830184613183565b92915050565b600080fd5b6000601f19601f8301169050919050565b7f4e487b7100000000000000000000000000000000000000000000000000000000600052604160045260246000fd5b6131fb826131b2565b810181811067ffffffffffffffff8211171561321a576132196131c3565b5b80604052505050565b600061322d612d5f565b905061323982826131f2565b919050565b60008151905061324d81612e74565b92915050565b60008151905061326281612dc3565b92915050565b600065ffffffffffff82169050919050565b61328381613268565b811461328e57600080fd5b50565b6000815190506132a08161327a565b92915050565b600060ff82169050919050565b6132bc816132a6565b81146132c757600080fd5b50565b6000815190506132d9816132b3565b92915050565b600060c082840312156132f5576132f46131ad565b5b6132ff60c0613223565b9050600061330f8482850161323e565b600083015250602061332384828501613253565b602083015250604061333784828501613253565b604083015250606061334b84828501613253565b606083015250608061335f84828501613291565b60808301525060a0613373848285016132ca565b60a08301525092915050565b600060c0828403121561339557613394612d69565b5b60006133a3848285016132df565b91505092915050565b6133b581612e6a565b82525050565b60006020820190506133d060008301846133ac565b92915050565b6000815190506133e581612ea0565b92915050565b60006020828403121561340157613400612d69565b5b600061340f848285016133d6565b91505092915050565b8082525050565b61342881612e2f565b82525050565b61343781612daf565b82525050565b61344681613029565b82525050565b60006080820190506134616000830187613418565b61346e602083018661341f565b61347b604083018561342e565b613488606083018461343d565b95945050505050565b61349a81613029565b81146134a557600080fd5b50565b6000815190506134b781613491565b92915050565b6000602082840312156134d3576134d2612d69565b5b60006134e1848285016134a8565b91505092915050565b8082525050565b600060408201905061350660008301856134ea565b613513602083018461341f565b9392505050565b600060208201905061352f6000830184612f66565b92915050565b8082525050565b60006020820190506135516000830184613535565b92915050565b600060808201905061356c6000830187613535565b61357960208301866133ac565b613586604083018561341f565b613593606083018461341f565b95945050505050565b6000819050919050565b6000819050919050565b60006135cb6135c66135c184612e2f565b6135a6565b61359c565b9050919050565b6135db816135b0565b82525050565b60006040820190506135f66000830185613535565b61360360208301846135d2565b9392505050565b600082825260208201905092915050565b7f41432e6f773a206e6f74206f776e657200000000000000000000000000000000600082015250565b600061365160108361360a565b915061365c8261361b565b602082019050919050565b6000602082019050818103600083015261368081613644565b9050919050565b600080fd5b600067ffffffffffffffff8211156136a7576136a66131c3565b5b602082029050602081019050919050565b600080fd5b600060c082840312156136d3576136d26131ad565b5b6136dd60c0613223565b905060006136ed848285016133d6565b6000830152506020613701848285016133d6565b6020830152506040613715848285016133d6565b604083015250606061372984828501613253565b606083015250608061373d84828501613253565b60808301525060a0613751848285016132ca565b60a08301525092915050565b600061377061376b8461368c565b613223565b90508083825260208201905060c08402830185811115613793576137926136b8565b5b835b818110156137bc57806137a888826136bd565b84526020840193505060c081019050613795565b5050509392505050565b600082601f8301126137db576137da613687565b5b81516137eb84826020860161375d565b91505092915050565b60006020828403121561380a57613809612d69565b5b600082015167ffffffffffffffff81111561382857613827612d6e565b5b613834848285016137c6565b91505092915050565b6000819050919050565b600061386261385d6138588461383d565b6135a6565b612d73565b9050919050565b61387281613847565b82525050565b600060408201905061388d60008301856134ea565b61389a6020830184613869565b9392505050565b600081519050919050565b600082825260208201905092915050565b6000819050602082019050919050565b6138d681612e2f565b82525050565b6138e581612daf565b82525050565b6138f4816132a6565b82525050565b60c08201600082015161391060008501826138cd565b50602082015161392360208501826138cd565b50604082015161393660408501826138cd565b50606082015161394960608501826138dc565b50608082015161395c60808501826138dc565b5060a082015161396f60a08501826138eb565b50505050565b600061398183836138fa565b60c08301905092915050565b6000602082019050919050565b60006139a5826138a1565b6139af81856138ac565b93506139ba836138bd565b8060005b838110156139eb5781516139d28882613975565b97506139dd8361398d565b9250506001810190506139be565b5085935050505092915050565b6000604082019050613a0d60008301856134ea565b8181036020830152613a1f818461399a565b90509392505050565b613a3181612fbe565b82525050565b6000604082019050613a4c6000830185613535565b613a596020830184613a28565b9392505050565b7f41432e6f776e65724f72446972656374426f6f6b65657065723a206e6569746860008201527f6572206f776e6572206e6f7220626f6f6b656570657200000000000000000000602082015250565b6000613abc60368361360a565b9150613ac782613a60565b604082019050919050565b60006020820190508181036000830152613aeb81613aaf565b9050919050565b613afb816135b0565b82525050565b6000602082019050613b166000830184613af2565b92915050565b7f41432e6f6e6c794469726563744b65657065723a206e6f74206469726563742060008201527f6b65657065720000000000000000000000000000000000000000000000000000602082015250565b6000613b7860268361360a565b9150613b8382613b1c565b604082019050919050565b60006020820190508181036000830152613ba781613b6b565b9050919050565b6000604082019050613bc36000830185613535565b613bd060208301846133ac565b9392505050565b6000602082019050613bec60008301846134ea565b92915050565b600060208284031215613c0857613c07612d69565b5b6000613c1684828501613253565b91505092915050565b7f4e487b7100000000000000000000000000000000000000000000000000000000600052601160045260246000fd5b6000613c5982612daf565b9150613c6483612daf565b92508167ffffffffffffffff0483118215151615613c8557613c84613c1f565b5b828202905092915050565b7f4e487b7100000000000000000000000000000000000000000000000000000000600052601260045260246000fd5b6000613cca82612daf565b9150613cd583612daf565b925082613ce557613ce4613c90565b5b828204905092915050565b6000606082019050613d056000830186613535565b613d126020830185613a28565b613d1f6040830184613a28565b949350505050565b6000606082019050613d3c6000830186613535565b613d4960208301856133ac565b613d5660408301846135d2565b949350505050565b6000606082019050613d736000830186613535565b613d8060208301856135d2565b613d8d6040830184613a28565b949350505050565b6000608082019050613daa6000830187612e40565b613db76020830186613159565b613dc46040830185613159565b613dd16060830184613159565b95945050505050565b6000606082019050613def6000830186613535565b613dfc60208301856133ac565b613e09604083018461341f565b949350505050565b613e1a81612e6a565b82525050565b6000604082019050613e356000830185613e11565b613e426020830184612f66565b9392505050565b6000606082019050613e5e60008301866134ea565b613e6b602083018561341f565b613e78604083018461341f565b949350505050565b600081519050613e8f81612fd0565b92915050565b600060208284031215613eab57613eaa612d69565b5b6000613eb984828501613e80565b91505092915050565b7f41432e6f6e6c7950656e64696e673a20446f632069732066696e616c697a6564600082015250565b6000613ef860208361360a565b9150613f0382613ec2565b602082019050919050565b60006020820190508181036000830152613f2781613eeb565b9050919050565b6000613f49613f44613f3f8461383d565b6135a6565b61359c565b9050919050565b613f5981613f2e565b82525050565b6000604082019050613f746000830185613535565b613f816020830184613f50565b9392505050565b7f4e487b7100000000000000000000000000000000000000000000000000000000600052602160045260246000fd5b600061ffff82169050919050565b6000613fe0613fdb613fd6846132a6565b6135a6565b613fb7565b9050919050565b613ff081613fc5565b82525050565b600060208201905061400b6000830184613fe7565b92915050565b600067ffffffffffffffff82111561402c5761402b6131c3565b5b602082029050602081019050919050565b600061405061404b84614011565b613223565b90508083825260208201905060208402830185811115614073576140726136b8565b5b835b8181101561409c5780614088888261323e565b845260208401935050602081019050614075565b5050509392505050565b600082601f8301126140bb576140ba613687565b5b81516140cb84826020860161403d565b91505092915050565b6000602082840312156140ea576140e9612d69565b5b600082015167ffffffffffffffff81111561410857614107612d6e565b5b614114848285016140a6565b91505092915050565b60006141288261359c565b91506141338361359c565b92508282101561414657614145613c1f565b5b828203905092915050565b7f4e487b7100000000000000000000000000000000000000000000000000000000600052603260045260246000fd5b61418981613fb7565b811461419457600080fd5b50565b6000815190506141a681614180565b92915050565b6000602082840312156141c2576141c1612d69565b5b60006141d084828501614197565b91505092915050565b6141e281613fb7565b82525050565b60006020820190506141fd60008301846141d9565b92915050565b600060c08284031215614219576142186131ad565b5b61422360c0613223565b905060006142338482850161323e565b600083015250602061424784828501613253565b602083015250604061425b84828501613253565b604083015250606061426f84828501613291565b6060830152506080614283848285016132ca565b60808301525060a06142978482850161323e565b60a08301525092915050565b600060c082840312156142b9576142b8612d69565b5b60006142c784828501614203565b91505092915050565b6000815190506142df81612d83565b92915050565b6000602082840312156142fb576142fa612d69565b5b6000614309848285016142d0565b91505092915050565b600061431d8261359c565b9150600082141561433157614330613c1f565b5b600182039050919050565b7f616c7265616479207365742072656743656e7465720000000000000000000000600082015250565b600061437260158361360a565b915061437d8261433c565b602082019050919050565b600060208201905081810360008301526143a181614365565b9050919050565b7f616c7265616479207365742067656e6572616c4b656570657200000000000000600082015250565b60006143de60198361360a565b91506143e9826143a8565b602082019050919050565b6000602082019050818103600083015261440d816143d1565b9050919050565b600061441f82612daf565b915061442a83612daf565b92508282101561443d5761443c613c1f565b5b828203905092915050565b600061445382612daf565b915061445e83612daf565b92508267ffffffffffffffff0382111561447b5761447a613c1f565b5b828201905092915050565b7f4d522e616464416c6f6e674465616c3a2073656c6c20616d6f756e74206f766560008201527f7220666c6f770000000000000000000000000000000000000000000000000000602082015250565b60006144e260268361360a565b91506144ed82614486565b604082019050919050565b60006020820190508181036000830152614511816144d5565b905091905056fea264697066735822122065e30f88907bf761c7f81ee720984a6f1b6601457b35a769174a59d0f497e1bf64736f6c63430008080033",
  "linkReferences": {
    "contracts/common/lib/MembersRepo.sol": {
      "MembersRepo": [
        {
          "length": 20,
          "start": 1511
        },
        {
          "length": 20,
          "start": 2465
        },
        {
          "length": 20,
          "start": 2574
        },
        {
          "length": 20,
          "start": 3577
        },
        {
          "length": 20,
          "start": 3717
        },
        {
          "length": 20,
          "start": 3858
        },
        {
          "length": 20,
          "start": 5666
        },
        {
          "length": 20,
          "start": 6087
        },
        {
          "length": 20,
          "start": 6777
        },
        {
          "length": 20,
          "start": 6921
        },
        {
          "length": 20,
          "start": 7374
        },
        {
          "length": 20,
          "start": 8351
        },
        {
          "length": 20,
          "start": 8493
        },
        {
          "length": 20,
          "start": 11066
        },
        {
          "length": 20,
          "start": 11358
        }
      ]
    },
    "contracts/common/lib/RolesRepo.sol": {
      "RolesRepo": [
        {
          "length": 20,
          "start": 1724
        },
        {
          "length": 20,
          "start": 1867
        },
        {
          "length": 20,
          "start": 1990
        },
        {
          "length": 20,
          "start": 2113
        },
        {
          "length": 20,
          "start": 2737
        },
        {
          "length": 20,
          "start": 2883
        },
        {
          "length": 20,
          "start": 3094
        },
        {
          "length": 20,
          "start": 3260
        },
        {
          "length": 20,
          "start": 3463
        },
        {
          "length": 20,
          "start": 4022
        },
        {
          "length": 20,
          "start": 4190
        },
        {
          "length": 20,
          "start": 4315
        },
        {
          "length": 20,
          "start": 4465
        },
        {
          "length": 20,
          "start": 4611
        },
        {
          "length": 20,
          "start": 4822
        },
        {
          "length": 20,
          "start": 5006
        },
        {
          "length": 20,
          "start": 5185
        },
        {
          "length": 20,
          "start": 5340
        },
        {
          "length": 20,
          "start": 5454
        },
        {
          "length": 20,
          "start": 7589
        },
        {
          "length": 20,
          "start": 7732
        },
        {
          "length": 20,
          "start": 8023
        },
        {
          "length": 20,
          "start": 8163
        },
        {
          "length": 20,
          "start": 8640
        }
      ]
    },
    "contracts/common/lib/SNParser.sol": {
      "SNParser": [
        {
          "length": 20,
          "start": 1148
        },
        {
          "length": 20,
          "start": 5695
        },
        {
          "length": 20,
          "start": 5945
        },
        {
          "length": 20,
          "start": 6228
        },
        {
          "length": 20,
          "start": 6637
        },
        {
          "length": 20,
          "start": 7213
        },
        {
          "length": 20,
          "start": 9774
        },
        {
          "length": 20,
          "start": 10181
        }
      ]
    },
    "contracts/common/lib/TopChain.sol": {
      "TopChain": [
        {
          "length": 20,
          "start": 1291
        },
        {
          "length": 20,
          "start": 6386
        },
        {
          "length": 20,
          "start": 7066
        }
      ]
    }
  },
  "deployedLinkReferences": {
    "contracts/common/lib/MembersRepo.sol": {
      "MembersRepo": [
        {
          "length": 20,
          "start": 1479
        },
        {
          "length": 20,
          "start": 2433
        },
        {
          "length": 20,
          "start": 2542
        },
        {
          "length": 20,
          "start": 3545
        },
        {
          "length": 20,
          "start": 3685
        },
        {
          "length": 20,
          "start": 3826
        },
        {
          "length": 20,
          "start": 5634
        },
        {
          "length": 20,
          "start": 6055
        },
        {
          "length": 20,
          "start": 6745
        },
        {
          "length": 20,
          "start": 6889
        },
        {
          "length": 20,
          "start": 7342
        },
        {
          "length": 20,
          "start": 8319
        },
        {
          "length": 20,
          "start": 8461
        },
        {
          "length": 20,
          "start": 11034
        },
        {
          "length": 20,
          "start": 11326
        }
      ]
    },
    "contracts/common/lib/RolesRepo.sol": {
      "RolesRepo": [
        {
          "length": 20,
          "start": 1692
        },
        {
          "length": 20,
          "start": 1835
        },
        {
          "length": 20,
          "start": 1958
        },
        {
          "length": 20,
          "start": 2081
        },
        {
          "length": 20,
          "start": 2705
        },
        {
          "length": 20,
          "start": 2851
        },
        {
          "length": 20,
          "start": 3062
        },
        {
          "length": 20,
          "start": 3228
        },
        {
          "length": 20,
          "start": 3431
        },
        {
          "length": 20,
          "start": 3990
        },
        {
          "length": 20,
          "start": 4158
        },
        {
          "length": 20,
          "start": 4283
        },
        {
          "length": 20,
          "start": 4433
        },
        {
          "length": 20,
          "start": 4579
        },
        {
          "length": 20,
          "start": 4790
        },
        {
          "length": 20,
          "start": 4974
        },
        {
          "length": 20,
          "start": 5153
        },
        {
          "length": 20,
          "start": 5308
        },
        {
          "length": 20,
          "start": 5422
        },
        {
          "length": 20,
          "start": 7557
        },
        {
          "length": 20,
          "start": 7700
        },
        {
          "length": 20,
          "start": 7991
        },
        {
          "length": 20,
          "start": 8131
        },
        {
          "length": 20,
          "start": 8608
        }
      ]
    },
    "contracts/common/lib/SNParser.sol": {
      "SNParser": [
        {
          "length": 20,
          "start": 1116
        },
        {
          "length": 20,
          "start": 5663
        },
        {
          "length": 20,
          "start": 5913
        },
        {
          "length": 20,
          "start": 6196
        },
        {
          "length": 20,
          "start": 6605
        },
        {
          "length": 20,
          "start": 7181
        },
        {
          "length": 20,
          "start": 9742
        },
        {
          "length": 20,
          "start": 10149
        }
      ]
    },
    "contracts/common/lib/TopChain.sol": {
      "TopChain": [
        {
          "length": 20,
          "start": 1259
        },
        {
          "length": 20,
          "start": 6354
        },
        {
          "length": 20,
          "start": 7034
        }
      ]
    }
  }
}