{
  "_format": "hh-sol-artifact-1",
  "contractName": "ShareholdersAgreement",
  "sourceName": "contracts/books/boh/ShareholdersAgreement.sol",
  "abi": [
    {
      "anonymous": false,
      "inputs": [
        {
          "indexed": false,
          "internalType": "uint40",
          "name": "owner",
          "type": "uint40"
        },
        {
          "indexed": false,
          "internalType": "address",
          "name": "directKeeper",
          "type": "address"
        },
        {
          "indexed": false,
          "internalType": "address",
          "name": "regCenter",
          "type": "address"
        },
        {
          "indexed": false,
          "internalType": "address",
          "name": "generalKeeper",
          "type": "address"
        }
      ],
      "name": "Init",
      "type": "event"
    },
    {
      "anonymous": false,
      "inputs": [],
      "name": "LockContents",
      "type": "event"
    },
    {
      "anonymous": false,
      "inputs": [
        {
          "indexed": false,
          "internalType": "address",
          "name": "keeper",
          "type": "address"
        }
      ],
      "name": "SetDirectKeeper",
      "type": "event"
    },
    {
      "anonymous": false,
      "inputs": [
        {
          "indexed": false,
          "internalType": "address",
          "name": "gk",
          "type": "address"
        }
      ],
      "name": "SetGeneralKeeper",
      "type": "event"
    },
    {
      "anonymous": false,
      "inputs": [
        {
          "indexed": false,
          "internalType": "uint8",
          "name": "title",
          "type": "uint8"
        },
        {
          "indexed": false,
          "internalType": "uint40",
          "name": "acct",
          "type": "uint40"
        }
      ],
      "name": "SetManager",
      "type": "event"
    },
    {
      "anonymous": false,
      "inputs": [
        {
          "indexed": false,
          "internalType": "address",
          "name": "rc",
          "type": "address"
        }
      ],
      "name": "SetRegCenter",
      "type": "event"
    },
    {
      "inputs": [
        {
          "internalType": "bytes32",
          "name": "role",
          "type": "bytes32"
        }
      ],
      "name": "abandonRole",
      "outputs": [],
      "stateMutability": "nonpayable",
      "type": "function"
    },
    {
      "inputs": [
        {
          "internalType": "uint40",
          "name": "acct",
          "type": "uint40"
        },
        {
          "internalType": "uint16",
          "name": "ssn",
          "type": "uint16"
        }
      ],
      "name": "addBlank",
      "outputs": [],
      "stateMutability": "nonpayable",
      "type": "function"
    },
    {
      "inputs": [
        {
          "internalType": "uint40",
          "name": "acct",
          "type": "uint40"
        }
      ],
      "name": "addParty",
      "outputs": [],
      "stateMutability": "nonpayable",
      "type": "function"
    },
    {
      "inputs": [
        {
          "internalType": "bytes32",
          "name": "rule",
          "type": "bytes32"
        }
      ],
      "name": "addRule",
      "outputs": [],
      "stateMutability": "nonpayable",
      "type": "function"
    },
    {
      "inputs": [],
      "name": "boaAddr",
      "outputs": [
        {
          "internalType": "address",
          "name": "",
          "type": "address"
        }
      ],
      "stateMutability": "view",
      "type": "function"
    },
    {
      "inputs": [],
      "name": "bohAddr",
      "outputs": [
        {
          "internalType": "address",
          "name": "",
          "type": "address"
        }
      ],
      "stateMutability": "view",
      "type": "function"
    },
    {
      "inputs": [],
      "name": "bomAddr",
      "outputs": [
        {
          "internalType": "address",
          "name": "",
          "type": "address"
        }
      ],
      "stateMutability": "view",
      "type": "function"
    },
    {
      "inputs": [],
      "name": "bosAddr",
      "outputs": [
        {
          "internalType": "address",
          "name": "",
          "type": "address"
        }
      ],
      "stateMutability": "view",
      "type": "function"
    },
    {
      "inputs": [
        {
          "internalType": "uint8",
          "name": "title",
          "type": "uint8"
        }
      ],
      "name": "createTerm",
      "outputs": [
        {
          "internalType": "address",
          "name": "body",
          "type": "address"
        }
      ],
      "stateMutability": "nonpayable",
      "type": "function"
    },
    {
      "inputs": [],
      "name": "finalizeTerms",
      "outputs": [],
      "stateMutability": "nonpayable",
      "type": "function"
    },
    {
      "inputs": [],
      "name": "finalized",
      "outputs": [
        {
          "internalType": "bool",
          "name": "",
          "type": "bool"
        }
      ],
      "stateMutability": "view",
      "type": "function"
    },
    {
      "inputs": [],
      "name": "getBookeeper",
      "outputs": [
        {
          "internalType": "address",
          "name": "",
          "type": "address"
        }
      ],
      "stateMutability": "view",
      "type": "function"
    },
    {
      "inputs": [
        {
          "internalType": "uint8",
          "name": "title",
          "type": "uint8"
        }
      ],
      "name": "getManager",
      "outputs": [
        {
          "internalType": "uint40",
          "name": "",
          "type": "uint40"
        }
      ],
      "stateMutability": "view",
      "type": "function"
    },
    {
      "inputs": [
        {
          "internalType": "uint8",
          "name": "title",
          "type": "uint8"
        }
      ],
      "name": "getManagerKey",
      "outputs": [
        {
          "internalType": "address",
          "name": "",
          "type": "address"
        }
      ],
      "stateMutability": "view",
      "type": "function"
    },
    {
      "inputs": [
        {
          "internalType": "uint256",
          "name": "seq",
          "type": "uint256"
        }
      ],
      "name": "getRule",
      "outputs": [
        {
          "internalType": "bytes32",
          "name": "",
          "type": "bytes32"
        }
      ],
      "stateMutability": "view",
      "type": "function"
    },
    {
      "inputs": [
        {
          "internalType": "uint256",
          "name": "title",
          "type": "uint256"
        }
      ],
      "name": "getTerm",
      "outputs": [
        {
          "internalType": "address",
          "name": "",
          "type": "address"
        }
      ],
      "stateMutability": "view",
      "type": "function"
    },
    {
      "inputs": [
        {
          "internalType": "bytes32",
          "name": "role",
          "type": "bytes32"
        },
        {
          "internalType": "uint40",
          "name": "acct",
          "type": "uint40"
        }
      ],
      "name": "grantRole",
      "outputs": [],
      "stateMutability": "nonpayable",
      "type": "function"
    },
    {
      "inputs": [
        {
          "internalType": "bytes32",
          "name": "role",
          "type": "bytes32"
        },
        {
          "internalType": "uint40",
          "name": "acct",
          "type": "uint40"
        }
      ],
      "name": "hasRole",
      "outputs": [
        {
          "internalType": "bool",
          "name": "",
          "type": "bool"
        }
      ],
      "stateMutability": "view",
      "type": "function"
    },
    {
      "inputs": [
        {
          "internalType": "uint256",
          "name": "seq",
          "type": "uint256"
        }
      ],
      "name": "hasRule",
      "outputs": [
        {
          "internalType": "bool",
          "name": "",
          "type": "bool"
        }
      ],
      "stateMutability": "view",
      "type": "function"
    },
    {
      "inputs": [
        {
          "internalType": "uint256",
          "name": "title",
          "type": "uint256"
        }
      ],
      "name": "hasTitle",
      "outputs": [
        {
          "internalType": "bool",
          "name": "",
          "type": "bool"
        }
      ],
      "stateMutability": "view",
      "type": "function"
    },
    {
      "inputs": [
        {
          "internalType": "uint40",
          "name": "owner",
          "type": "uint40"
        },
        {
          "internalType": "address",
          "name": "directKeeper",
          "type": "address"
        },
        {
          "internalType": "address",
          "name": "regCenter",
          "type": "address"
        },
        {
          "internalType": "address",
          "name": "generalKeeper",
          "type": "address"
        }
      ],
      "name": "init",
      "outputs": [],
      "stateMutability": "nonpayable",
      "type": "function"
    },
    {
      "inputs": [],
      "name": "lockContents",
      "outputs": [],
      "stateMutability": "nonpayable",
      "type": "function"
    },
    {
      "inputs": [],
      "name": "qtyOfRules",
      "outputs": [
        {
          "internalType": "uint256",
          "name": "",
          "type": "uint256"
        }
      ],
      "stateMutability": "view",
      "type": "function"
    },
    {
      "inputs": [],
      "name": "qtyOfTerms",
      "outputs": [
        {
          "internalType": "uint256",
          "name": "",
          "type": "uint256"
        }
      ],
      "stateMutability": "view",
      "type": "function"
    },
    {
      "inputs": [
        {
          "internalType": "uint40",
          "name": "acct",
          "type": "uint40"
        },
        {
          "internalType": "uint16",
          "name": "ssn",
          "type": "uint16"
        }
      ],
      "name": "removeBlank",
      "outputs": [],
      "stateMutability": "nonpayable",
      "type": "function"
    },
    {
      "inputs": [
        {
          "internalType": "uint16",
          "name": "seq",
          "type": "uint16"
        }
      ],
      "name": "removeRule",
      "outputs": [],
      "stateMutability": "nonpayable",
      "type": "function"
    },
    {
      "inputs": [
        {
          "internalType": "uint8",
          "name": "title",
          "type": "uint8"
        }
      ],
      "name": "removeTerm",
      "outputs": [],
      "stateMutability": "nonpayable",
      "type": "function"
    },
    {
      "inputs": [
        {
          "internalType": "bytes32",
          "name": "role",
          "type": "bytes32"
        }
      ],
      "name": "renounceRole",
      "outputs": [],
      "stateMutability": "nonpayable",
      "type": "function"
    },
    {
      "inputs": [
        {
          "internalType": "bytes32",
          "name": "role",
          "type": "bytes32"
        },
        {
          "internalType": "uint40",
          "name": "acct",
          "type": "uint40"
        }
      ],
      "name": "revokeRole",
      "outputs": [],
      "stateMutability": "nonpayable",
      "type": "function"
    },
    {
      "inputs": [],
      "name": "rodAddr",
      "outputs": [
        {
          "internalType": "address",
          "name": "",
          "type": "address"
        }
      ],
      "stateMutability": "view",
      "type": "function"
    },
    {
      "inputs": [],
      "name": "romAddr",
      "outputs": [
        {
          "internalType": "address",
          "name": "",
          "type": "address"
        }
      ],
      "stateMutability": "view",
      "type": "function"
    },
    {
      "inputs": [],
      "name": "rules",
      "outputs": [
        {
          "internalType": "uint256[]",
          "name": "",
          "type": "uint256[]"
        }
      ],
      "stateMutability": "view",
      "type": "function"
    },
    {
      "inputs": [
        {
          "internalType": "address",
          "name": "boa",
          "type": "address"
        }
      ],
      "name": "setBOA",
      "outputs": [],
      "stateMutability": "nonpayable",
      "type": "function"
    },
    {
      "inputs": [
        {
          "internalType": "address",
          "name": "boh",
          "type": "address"
        }
      ],
      "name": "setBOH",
      "outputs": [],
      "stateMutability": "nonpayable",
      "type": "function"
    },
    {
      "inputs": [
        {
          "internalType": "address",
          "name": "bom",
          "type": "address"
        }
      ],
      "name": "setBOM",
      "outputs": [],
      "stateMutability": "nonpayable",
      "type": "function"
    },
    {
      "inputs": [
        {
          "internalType": "address",
          "name": "bos",
          "type": "address"
        }
      ],
      "name": "setBOS",
      "outputs": [],
      "stateMutability": "nonpayable",
      "type": "function"
    },
    {
      "inputs": [
        {
          "internalType": "uint48",
          "name": "deadline",
          "type": "uint48"
        }
      ],
      "name": "setClosingDeadline",
      "outputs": [],
      "stateMutability": "nonpayable",
      "type": "function"
    },
    {
      "inputs": [
        {
          "internalType": "address",
          "name": "keeper",
          "type": "address"
        }
      ],
      "name": "setDirectKeeper",
      "outputs": [],
      "stateMutability": "nonpayable",
      "type": "function"
    },
    {
      "inputs": [
        {
          "internalType": "uint8",
          "name": "title",
          "type": "uint8"
        },
        {
          "internalType": "uint40",
          "name": "acct",
          "type": "uint40"
        }
      ],
      "name": "setManager",
      "outputs": [],
      "stateMutability": "nonpayable",
      "type": "function"
    },
    {
      "inputs": [
        {
          "internalType": "address",
          "name": "rod",
          "type": "address"
        }
      ],
      "name": "setROD",
      "outputs": [],
      "stateMutability": "nonpayable",
      "type": "function"
    },
    {
      "inputs": [
        {
          "internalType": "address",
          "name": "rom",
          "type": "address"
        }
      ],
      "name": "setROM",
      "outputs": [],
      "stateMutability": "nonpayable",
      "type": "function"
    },
    {
      "inputs": [
        {
          "internalType": "bytes32",
          "name": "role",
          "type": "bytes32"
        },
        {
          "internalType": "uint40",
          "name": "acct",
          "type": "uint40"
        }
      ],
      "name": "setRoleAdmin",
      "outputs": [],
      "stateMutability": "nonpayable",
      "type": "function"
    },
    {
      "inputs": [
        {
          "internalType": "uint48",
          "name": "deadline",
          "type": "uint48"
        }
      ],
      "name": "setSigDeadline",
      "outputs": [],
      "stateMutability": "nonpayable",
      "type": "function"
    },
    {
      "inputs": [
        {
          "internalType": "uint256",
          "name": "title",
          "type": "uint256"
        },
        {
          "internalType": "address",
          "name": "ia",
          "type": "address"
        },
        {
          "internalType": "bytes32",
          "name": "snOfDeal",
          "type": "bytes32"
        }
      ],
      "name": "termIsExempted",
      "outputs": [
        {
          "internalType": "bool",
          "name": "",
          "type": "bool"
        }
      ],
      "stateMutability": "view",
      "type": "function"
    },
    {
      "inputs": [
        {
          "internalType": "uint256",
          "name": "title",
          "type": "uint256"
        },
        {
          "internalType": "address",
          "name": "ia",
          "type": "address"
        },
        {
          "internalType": "bytes32",
          "name": "snOfDeal",
          "type": "bytes32"
        }
      ],
      "name": "termIsTriggered",
      "outputs": [
        {
          "internalType": "bool",
          "name": "",
          "type": "bool"
        }
      ],
      "stateMutability": "view",
      "type": "function"
    },
    {
      "inputs": [],
      "name": "titles",
      "outputs": [
        {
          "internalType": "uint256[]",
          "name": "",
          "type": "uint256[]"
        }
      ],
      "stateMutability": "view",
      "type": "function"
    }
  ],
  "bytecode": "0x608060405234801561001057600080fd5b50614ef6806100206000396000f3fe608060405234801561001057600080fd5b506004361061028a5760003560e01c80638aeb46c31161015c578063d0c504b0116100ce578063ea8457f811610087578063ea8457f8146107b9578063ed194c88146107d5578063ed211023146107f3578063f045a76914610811578063f6b061a11461081b578063fd04390a146108375761028a565b8063d0c504b0146106e5578063d687630514610703578063dd4578aa1461071f578063e10f01c71461073b578063e179f98114610759578063e275d5dd146107895761028a565b8063b1f2108611610120578063b1f2108614610623578063b3f05b9714610641578063b71754c71461065f578063ba6bd79b1461068f578063bc3ffc70146106ab578063cd75bd3f146106c95761028a565b80638aeb46c31461058f5780638bb9c5bf146105ad578063916d953c146105c95780639f857ded146105e7578063a9acd944146106055761028a565b806352f6747a116102005780636be8496f116101b95780636be8496f146104d157806371765449146104ed578063740998151461051d57806379b2ec1214610539578063821ee8ea146105695780638969d43a146105855761028a565b806352f6747a14610413578063569ff3ff1461043157806363068e7f1461044d5780636451c6e514610469578063655ae9ed1461048557806367286b25146104a15761028a565b8063346ba94111610252578063346ba9411461032f578063379ef4a61461035f5780633da9a6001461038f578063447cc1ee146103ab5780634794be07146103c757806348462037146103e35761028a565b806305ee77351461028f57806316dc517e146102ab57806317c51fec146102c7578063230750a1146102e35780632f88bb5a146102ff575b600080fd5b6102a960048036038101906102a49190613b7b565b610853565b005b6102c560048036038101906102c09190613be5565b610b03565b005b6102e160048036038101906102dc9190613be5565b610b7e565b005b6102fd60048036038101906102f89190613c83565b610bf9565b005b61031960048036038101906103149190613ce6565b610d08565b6040516103269190613d54565b60405180910390f35b61034960048036038101906103449190613d6f565b610e34565b6040516103569190613dab565b60405180910390f35b61037960048036038101906103749190613d6f565b610e71565b6040516103869190613d54565b60405180910390f35b6103a960048036038101906103a49190613b7b565b610f06565b005b6103c560048036038101906103c09190613dff565b611040565b005b6103e160048036038101906103dc9190613e7d565b611253565b005b6103fd60048036038101906103f89190613d6f565b6113d7565b60405161040a9190613eb9565b60405180910390f35b61041b6113f4565b6040516104289190613f92565b60405180910390f35b61044b60048036038101906104469190613c83565b61148a565b005b61046760048036038101906104629190613fee565b611599565b005b610483600480360381019061047e9190613c83565b61173d565b005b61049f600480360381019061049a9190613c83565b61184c565b005b6104bb60048036038101906104b6919061401b565b61195b565b6040516104c89190614057565b60405180910390f35b6104eb60048036038101906104e69190613c83565b6119f0565b005b61050760048036038101906105029190613d6f565b611a98565b6040516105149190613d54565b60405180910390f35b61053760048036038101906105329190613be5565b611b2d565b005b610553600480360381019061054e9190613be5565b611ba8565b6040516105609190613d54565b60405180910390f35b610583600480360381019061057e9190614072565b611c40565b005b61058d611d03565b005b610597611fa4565b6040516105a49190613dab565b60405180910390f35b6105c760048036038101906105c29190613b7b565b611fce565b005b6105d161204c565b6040516105de9190613dab565b60405180910390f35b6105ef612076565b6040516105fc9190613dab565b60405180910390f35b61060d6120a0565b60405161061a9190613f92565b60405180910390f35b61062b612136565b6040516106389190613dab565b60405180910390f35b610649612160565b6040516106569190613d54565b60405180910390f35b6106796004803603810190610674919061401b565b61217f565b6040516106869190613dab565b60405180910390f35b6106a960048036038101906106a49190613c83565b6129d0565b005b6106b3612adf565b6040516106c091906140e8565b60405180910390f35b6106e360048036038101906106de919061401b565b612b70565b005b6106ed612d32565b6040516106fa91906140e8565b60405180910390f35b61071d60048036038101906107189190614103565b612dc3565b005b61073960048036038101906107349190614103565b612f4a565b005b610743612fdd565b6040516107509190613dab565b60405180910390f35b610773600480360381019061076e9190613ce6565b613007565b6040516107809190613d54565b60405180910390f35b6107a3600480360381019061079e919061401b565b61311a565b6040516107b09190613dab565b60405180910390f35b6107d360048036038101906107ce9190613e7d565b6131d5565b005b6107dd613359565b6040516107ea9190613dab565b60405180910390f35b6107fb613383565b6040516108089190613dab565b60405180910390f35b610819613414565b005b61083560048036038101906108309190613c83565b61367f565b005b610851600480360381019061084c9190614143565b61378e565b005b600273__$6be8a34d719d54efe8ce2a1215b9d85036$__63124d899c90917f4174746f726e657973000000000000000000000000000000000000000000000061089a613890565b6040518463ffffffff1660e01b81526004016108b893929190614195565b60206040518083038186803b1580156108d057600080fd5b505af41580156108e4573d6000803e3d6000fd5b505050506040513d601f19601f8201168201806040525081019061090891906141f8565b610947576040517f08c379a000000000000000000000000000000000000000000000000000000000815260040161093e90614282565b60405180910390fd5b80600e60008373__$5dc66471518b5e7762576f597300b6c9be$__637345708890916040518263ffffffff1660e01b815260040161098591906142a2565b60206040518083038186803b15801561099d57600080fd5b505af41580156109b1573d6000803e3d6000fd5b505050506040513d601f19601f820116820180604052508101906109d591906142d2565b61ffff16815260200190815260200160002081905550600f73__$60819bf3fa70e900ebaf23f60586c0d140$__6392f13c3f90918373__$5dc66471518b5e7762576f597300b6c9be$__637345708890916040518263ffffffff1660e01b8152600401610a4291906142a2565b60206040518083038186803b158015610a5a57600080fd5b505af4158015610a6e573d6000803e3d6000fd5b505050506040513d601f19601f82011682018060405250810190610a9291906142d2565b6040518363ffffffff1660e01b8152600401610aaf929190614341565b60206040518083038186803b158015610ac757600080fd5b505af4158015610adb573d6000803e3d6000fd5b505050506040513d601f19601f82011682018060405250810190610aff91906141f8565b5050565b600273__$6be8a34d719d54efe8ce2a1215b9d85036$__63427abff4909184610b2a613890565b856040518563ffffffff1660e01b8152600401610b4a949392919061436a565b60006040518083038186803b158015610b6257600080fd5b505af4158015610b76573d6000803e3d6000fd5b505050505050565b600273__$6be8a34d719d54efe8ce2a1215b9d85036$__638ce15845909184610ba5613890565b856040518563ffffffff1660e01b8152600401610bc5949392919061436a565b60006040518083038186803b158015610bdd57600080fd5b505af4158015610bf1573d6000803e3d6000fd5b505050505050565b600273__$6be8a34d719d54efe8ce2a1215b9d85036$__63ec46b6fc9091336040518363ffffffff1660e01b8152600401610c359291906143be565b60206040518083038186803b158015610c4d57600080fd5b505af4158015610c61573d6000803e3d6000fd5b505050506040513d601f19601f82011682018060405250810190610c8591906141f8565b610cc4576040517f08c379a0000000000000000000000000000000000000000000000000000000008152600401610cbb90614433565b60405180910390fd5b80600760006101000a81548173ffffffffffffffffffffffffffffffffffffffff021916908373ffffffffffffffffffffffffffffffffffffffff16021790555050565b600083610d1481611a98565b610d53576040517f08c379a0000000000000000000000000000000000000000000000000000000008152600401610d4a906144c5565b60405180910390fd5b610d5e858585613007565b610d6b5760019150610e2c565b600b600086815260200190815260200160002060009054906101000a900473ffffffffffffffffffffffffffffffffffffffff1673ffffffffffffffffffffffffffffffffffffffff166352000f5185856040518363ffffffff1660e01b8152600401610dd99291906144e5565b60206040518083038186803b158015610df157600080fd5b505afa158015610e05573d6000803e3d6000fd5b505050506040513d601f19601f82011682018060405250810190610e2991906141f8565b91505b509392505050565b6000600b600083815260200190815260200160002060009054906101000a900473ffffffffffffffffffffffffffffffffffffffff169050919050565b6000600f73__$60819bf3fa70e900ebaf23f60586c0d140$__633f5f77cd9091846040518363ffffffff1660e01b8152600401610eaf92919061451d565b60206040518083038186803b158015610ec757600080fd5b505af4158015610edb573d6000803e3d6000fd5b505050506040513d601f19601f82011682018060405250810190610eff91906141f8565b9050919050565b600273__$6be8a34d719d54efe8ce2a1215b9d85036$__63ec46b6fc9091336040518363ffffffff1660e01b8152600401610f429291906143be565b60206040518083038186803b158015610f5a57600080fd5b505af4158015610f6e573d6000803e3d6000fd5b505050506040513d601f19601f82011682018060405250810190610f9291906141f8565b610fd1576040517f08c379a0000000000000000000000000000000000000000000000000000000008152600401610fc890614433565b60405180910390fd5b600273__$6be8a34d719d54efe8ce2a1215b9d85036$__63cc99e11b9091836040518363ffffffff1660e01b815260040161100d929190614546565b60006040518083038186803b15801561102557600080fd5b505af4158015611039573d6000803e3d6000fd5b5050505050565b600273__$6be8a34d719d54efe8ce2a1215b9d85036$__63ec46b6fc9091336040518363ffffffff1660e01b815260040161107c9291906143be565b60206040518083038186803b15801561109457600080fd5b505af41580156110a8573d6000803e3d6000fd5b505050506040513d601f19601f820116820180604052508101906110cc91906141f8565b806111695750600273__$6be8a34d719d54efe8ce2a1215b9d85036$__631a7b009c909160006110fa613890565b6040518463ffffffff1660e01b8152600401611118939291906145aa565b60206040518083038186803b15801561113057600080fd5b505af4158015611144573d6000803e3d6000fd5b505050506040513d601f19601f8201168201806040525081019061116891906141f8565b5b6111a8576040517f08c379a000000000000000000000000000000000000000000000000000000000815260040161119f90614653565b60405180910390fd5b600273__$6be8a34d719d54efe8ce2a1215b9d85036$__63772d54e1909184846040518463ffffffff1660e01b81526004016111e693929190614682565b60006040518083038186803b1580156111fe57600080fd5b505af4158015611212573d6000803e3d6000fd5b505050507f19ace7081860092e92d02f49f4f87bc6b5e9b491255f43c2c85d72985e9f475482826040516112479291906146c8565b60405180910390a15050565b600273__$6be8a34d719d54efe8ce2a1215b9d85036$__63124d899c90917f4174746f726e657973000000000000000000000000000000000000000000000061129a613890565b6040518463ffffffff1660e01b81526004016112b893929190614195565b60206040518083038186803b1580156112d057600080fd5b505af41580156112e4573d6000803e3d6000fd5b505050506040513d601f19601f8201168201806040525081019061130891906141f8565b611347576040517f08c379a000000000000000000000000000000000000000000000000000000000815260040161133e90614282565b60405180910390fd5b600a60009054906101000a900473ffffffffffffffffffffffffffffffffffffffff1673ffffffffffffffffffffffffffffffffffffffff16634794be07826040518263ffffffff1660e01b81526004016113a29190614700565b600060405180830381600087803b1580156113bc57600080fd5b505af11580156113d0573d6000803e3d6000fd5b5050505050565b6000600e6000838152602001908152602001600020549050919050565b6060600f73__$60819bf3fa70e900ebaf23f60586c0d140$__630d0c1b8490916040518263ffffffff1660e01b8152600401611430919061471b565b60006040518083038186803b15801561144857600080fd5b505af415801561145c573d6000803e3d6000fd5b505050506040513d6000823e3d601f19601f8201168201806040525081019061148591906148a4565b905090565b600273__$6be8a34d719d54efe8ce2a1215b9d85036$__63ec46b6fc9091336040518363ffffffff1660e01b81526004016114c69291906143be565b60206040518083038186803b1580156114de57600080fd5b505af41580156114f2573d6000803e3d6000fd5b505050506040513d601f19601f8201168201806040525081019061151691906141f8565b611555576040517f08c379a000000000000000000000000000000000000000000000000000000000815260040161154c90614433565b60405180910390fd5b80600960006101000a81548173ffffffffffffffffffffffffffffffffffffffff021916908373ffffffffffffffffffffffffffffffffffffffff16021790555050565b600273__$6be8a34d719d54efe8ce2a1215b9d85036$__63124d899c90917f4174746f726e65797300000000000000000000000000000000000000000000006115e0613890565b6040518463ffffffff1660e01b81526004016115fe93929190614195565b60206040518083038186803b15801561161657600080fd5b505af415801561162a573d6000803e3d6000fd5b505050506040513d601f19601f8201168201806040525081019061164e91906141f8565b61168d576040517f08c379a000000000000000000000000000000000000000000000000000000000815260040161168490614282565b60405180910390fd5b600f73__$60819bf3fa70e900ebaf23f60586c0d140$__6392fd02df9091836040518363ffffffff1660e01b81526004016116c9929190614341565b60206040518083038186803b1580156116e157600080fd5b505af41580156116f5573d6000803e3d6000fd5b505050506040513d601f19601f8201168201806040525081019061171991906141f8565b1561173a57600e60008261ffff168152602001908152602001600020600090555b50565b600273__$6be8a34d719d54efe8ce2a1215b9d85036$__63ec46b6fc9091336040518363ffffffff1660e01b81526004016117799291906143be565b60206040518083038186803b15801561179157600080fd5b505af41580156117a5573d6000803e3d6000fd5b505050506040513d601f19601f820116820180604052508101906117c991906141f8565b611808576040517f08c379a00000000000000000000000000000000000000000000000000000000081526004016117ff90614433565b60405180910390fd5b80600a60006101000a81548173ffffffffffffffffffffffffffffffffffffffff021916908373ffffffffffffffffffffffffffffffffffffffff16021790555050565b600273__$6be8a34d719d54efe8ce2a1215b9d85036$__63ec46b6fc9091336040518363ffffffff1660e01b81526004016118889291906143be565b60206040518083038186803b1580156118a057600080fd5b505af41580156118b4573d6000803e3d6000fd5b505050506040513d601f19601f820116820180604052508101906118d891906141f8565b611917576040517f08c379a000000000000000000000000000000000000000000000000000000000815260040161190e90614433565b60405180910390fd5b80600560006101000a81548173ffffffffffffffffffffffffffffffffffffffff021916908373ffffffffffffffffffffffffffffffffffffffff16021790555050565b6000600273__$6be8a34d719d54efe8ce2a1215b9d85036$__63de7984ec9091846040518363ffffffff1660e01b81526004016119999291906148ed565b60206040518083038186803b1580156119b157600080fd5b505af41580156119c5573d6000803e3d6000fd5b505050506040513d601f19601f820116820180604052508101906119e9919061492b565b9050919050565b600273__$6be8a34d719d54efe8ce2a1215b9d85036$__630f072325909133846040518463ffffffff1660e01b8152600401611a2e93929190614958565b60006040518083038186803b158015611a4657600080fd5b505af4158015611a5a573d6000803e3d6000fd5b505050507fe435cbeab64e4eae6497b9d8289704bd709d624a80704ef3ca9af777534bc6ec81604051611a8d9190613dab565b60405180910390a150565b6000600c73__$60819bf3fa70e900ebaf23f60586c0d140$__633f5f77cd9091846040518363ffffffff1660e01b8152600401611ad692919061451d565b60206040518083038186803b158015611aee57600080fd5b505af4158015611b02573d6000803e3d6000fd5b505050506040513d601f19601f82011682018060405250810190611b2691906141f8565b9050919050565b600273__$6be8a34d719d54efe8ce2a1215b9d85036$__63d2a15ba7909184611b54613890565b856040518563ffffffff1660e01b8152600401611b74949392919061436a565b60006040518083038186803b158015611b8c57600080fd5b505af4158015611ba0573d6000803e3d6000fd5b505050505050565b6000600273__$6be8a34d719d54efe8ce2a1215b9d85036$__63124d899c909185856040518463ffffffff1660e01b8152600401611be893929190614195565b60206040518083038186803b158015611c0057600080fd5b505af4158015611c14573d6000803e3d6000fd5b505050506040513d601f19601f82011682018060405250810190611c3891906141f8565b905092915050565b611c4982613943565b611c5281613a4c565b600273__$6be8a34d719d54efe8ce2a1215b9d85036$__636f34afb1909186866040518463ffffffff1660e01b8152600401611c909392919061498f565b60006040518083038186803b158015611ca857600080fd5b505af4158015611cbc573d6000803e3d6000fd5b505050507f4d18c0021addc919105cb1ed2c11ad241e859cc1d9e77d4ee1d9ca2cdc1f255b84848484604051611cf594939291906149c6565b60405180910390a150505050565b600273__$6be8a34d719d54efe8ce2a1215b9d85036$__63ec46b6fc9091336040518363ffffffff1660e01b8152600401611d3f9291906143be565b60206040518083038186803b158015611d5757600080fd5b505af4158015611d6b573d6000803e3d6000fd5b505050506040513d601f19601f82011682018060405250810190611d8f91906141f8565b611dce576040517f08c379a0000000000000000000000000000000000000000000000000000000008152600401611dc590614433565b60405180910390fd5b6000600c73__$60819bf3fa70e900ebaf23f60586c0d140$__63c2b46a8590916040518263ffffffff1660e01b8152600401611e0a919061471b565b60206040518083038186803b158015611e2257600080fd5b505af4158015611e36573d6000803e3d6000fd5b505050506040513d601f19601f82011682018060405250810190611e5a9190614a0b565b905060005b81811015611f9857600b6000600c73__$60819bf3fa70e900ebaf23f60586c0d140$__63ef6982f09091856040518363ffffffff1660e01b8152600401611ea792919061451d565b60206040518083038186803b158015611ebf57600080fd5b505af4158015611ed3573d6000803e3d6000fd5b505050506040513d601f19601f82011682018060405250810190611ef79190614a0b565b815260200190815260200160002060009054906101000a900473ffffffffffffffffffffffffffffffffffffffff1673ffffffffffffffffffffffffffffffffffffffff1663f045a7696040518163ffffffff1660e01b8152600401600060405180830381600087803b158015611f6d57600080fd5b505af1158015611f81573d6000803e3d6000fd5b505050508080611f9090614a67565b915050611e5f565b50611fa1613414565b50565b6000600760009054906101000a900473ffffffffffffffffffffffffffffffffffffffff16905090565b6000611fd8613890565b9050600273__$6be8a34d719d54efe8ce2a1215b9d85036$__63f2c6b2a6909184846040518463ffffffff1660e01b815260040161201893929190614195565b60006040518083038186803b15801561203057600080fd5b505af4158015612044573d6000803e3d6000fd5b505050505050565b6000600960009054906101000a900473ffffffffffffffffffffffffffffffffffffffff16905090565b6000600a60009054906101000a900473ffffffffffffffffffffffffffffffffffffffff16905090565b6060600c73__$60819bf3fa70e900ebaf23f60586c0d140$__630d0c1b8490916040518263ffffffff1660e01b81526004016120dc919061471b565b60006040518083038186803b1580156120f457600080fd5b505af4158015612108573d6000803e3d6000fd5b505050506040513d6000823e3d601f19601f8201168201806040525081019061213191906148a4565b905090565b6000600860009054906101000a900473ffffffffffffffffffffffffffffffffffffffff16905090565b600060028060000160009054906101000a900460ff1660ff1614905090565b60006001600273__$6be8a34d719d54efe8ce2a1215b9d85036$__631a7b009c9091836121aa613890565b6040518463ffffffff1660e01b81526004016121c893929190614682565b60206040518083038186803b1580156121e057600080fd5b505af41580156121f4573d6000803e3d6000fd5b505050506040513d601f19601f8201168201806040525081019061221891906141f8565b612257576040517f08c379a000000000000000000000000000000000000000000000000000000000815260040161224e90614b22565b60405180910390fd5b82600660009054906101000a900473ffffffffffffffffffffffffffffffffffffffff1673ffffffffffffffffffffffffffffffffffffffff1663aa0d5597826040518263ffffffff1660e01b81526004016122b39190614b42565b60206040518083038186803b1580156122cb57600080fd5b505afa1580156122df573d6000803e3d6000fd5b505050506040513d601f19601f8201168201806040525081019061230391906141f8565b612342576040517f08c379a000000000000000000000000000000000000000000000000000000000815260040161233990614bcf565b60405180910390fd5b6123f5600660009054906101000a900473ffffffffffffffffffffffffffffffffffffffff1673ffffffffffffffffffffffffffffffffffffffff1663e62fb177866040518263ffffffff1660e01b81526004016123a09190614b42565b60206040518083038186803b1580156123b857600080fd5b505afa1580156123cc573d6000803e3d6000fd5b505050506040513d601f19601f820116820180604052508101906123f09190614c04565b613ac7565b92506000612403600061195b565b90506000612411600161195b565b90508473ffffffffffffffffffffffffffffffffffffffff1663821ee8ea833060008054906101000a900473ffffffffffffffffffffffffffffffffffffffff16600160009054906101000a900473ffffffffffffffffffffffffffffffffffffffff166040518563ffffffff1660e01b815260040161249494939291906149c6565b600060405180830381600087803b1580156124ae57600080fd5b505af11580156124c2573d6000803e3d6000fd5b505050508473ffffffffffffffffffffffffffffffffffffffff1663447cc1ee6001836040518363ffffffff1660e01b8152600401612502929190614c6c565b600060405180830381600087803b15801561251c57600080fd5b505af1158015612530573d6000803e3d6000fd5b505050506002600581111561254857612547614c95565b5b60ff168660ff16148061257357506001600581111561256a57612569614c95565b5b60ff168660ff16145b8061259657506004600581111561258d5761258c614c95565b5b60ff168660ff16145b15612629578473ffffffffffffffffffffffffffffffffffffffff1663230750a1600760009054906101000a900473ffffffffffffffffffffffffffffffffffffffff166040518263ffffffff1660e01b81526004016125f69190613dab565b600060405180830381600087803b15801561261057600080fd5b505af1158015612624573d6000803e3d6000fd5b505050505b6002600581111561263d5761263c614c95565b5b60ff168660ff16148061266857506003600581111561265f5761265e614c95565b5b60ff168660ff16145b8061268b57506004600581111561268257612681614c95565b5b60ff168660ff16145b1561271e578473ffffffffffffffffffffffffffffffffffffffff1663f6b061a1600860009054906101000a900473ffffffffffffffffffffffffffffffffffffffff166040518263ffffffff1660e01b81526004016126eb9190613dab565b600060405180830381600087803b15801561270557600080fd5b505af1158015612719573d6000803e3d6000fd5b505050505b6002600581111561273257612731614c95565b5b60ff168660ff16148061275d57506003600581111561275457612753614c95565b5b60ff168660ff16145b8061278057506004600581111561277757612776614c95565b5b60ff168660ff16145b15612813578473ffffffffffffffffffffffffffffffffffffffff1663569ff3ff600960009054906101000a900473ffffffffffffffffffffffffffffffffffffffff166040518263ffffffff1660e01b81526004016127e09190613dab565b600060405180830381600087803b1580156127fa57600080fd5b505af115801561280e573d6000803e3d6000fd5b505050505b6003600581111561282757612826614c95565b5b60ff168660ff16148061285257506004600581111561284957612848614c95565b5b60ff168660ff16145b156128e5578473ffffffffffffffffffffffffffffffffffffffff1663655ae9ed600560009054906101000a900473ffffffffffffffffffffffffffffffffffffffff166040518263ffffffff1660e01b81526004016128b29190613dab565b600060405180830381600087803b1580156128cc57600080fd5b505af11580156128e0573d6000803e3d6000fd5b505050505b84600b60008860ff16815260200190815260200160002060006101000a81548173ffffffffffffffffffffffffffffffffffffffff021916908373ffffffffffffffffffffffffffffffffffffffff160217905550600c73__$60819bf3fa70e900ebaf23f60586c0d140$__6392f13c3f9091886040518363ffffffff1660e01b8152600401612976929190614cf5565b60206040518083038186803b15801561298e57600080fd5b505af41580156129a2573d6000803e3d6000fd5b505050506040513d601f19601f820116820180604052508101906129c691906141f8565b5050505050919050565b600273__$6be8a34d719d54efe8ce2a1215b9d85036$__63ec46b6fc9091336040518363ffffffff1660e01b8152600401612a0c9291906143be565b60206040518083038186803b158015612a2457600080fd5b505af4158015612a38573d6000803e3d6000fd5b505050506040513d601f19601f82011682018060405250810190612a5c91906141f8565b612a9b576040517f08c379a0000000000000000000000000000000000000000000000000000000008152600401612a9290614433565b60405180910390fd5b80600660006101000a81548173ffffffffffffffffffffffffffffffffffffffff021916908373ffffffffffffffffffffffffffffffffffffffff16021790555050565b6000600c73__$60819bf3fa70e900ebaf23f60586c0d140$__63c2b46a8590916040518263ffffffff1660e01b8152600401612b1b919061471b565b60206040518083038186803b158015612b3357600080fd5b505af4158015612b47573d6000803e3d6000fd5b505050506040513d601f19601f82011682018060405250810190612b6b9190614a0b565b905090565b600273__$6be8a34d719d54efe8ce2a1215b9d85036$__63124d899c90917f4174746f726e6579730000000000000000000000000000000000000000000000612bb7613890565b6040518463ffffffff1660e01b8152600401612bd593929190614195565b60206040518083038186803b158015612bed57600080fd5b505af4158015612c01573d6000803e3d6000fd5b505050506040513d601f19601f82011682018060405250810190612c2591906141f8565b612c64576040517f08c379a0000000000000000000000000000000000000000000000000000000008152600401612c5b90614282565b60405180910390fd5b600c73__$60819bf3fa70e900ebaf23f60586c0d140$__6392fd02df9091836040518363ffffffff1660e01b8152600401612ca0929190614cf5565b60206040518083038186803b158015612cb857600080fd5b505af4158015612ccc573d6000803e3d6000fd5b505050506040513d601f19601f82011682018060405250810190612cf091906141f8565b15612d2f57600b60008260ff16815260200190815260200160002060006101000a81549073ffffffffffffffffffffffffffffffffffffffff02191690555b50565b6000600f73__$60819bf3fa70e900ebaf23f60586c0d140$__63c2b46a8590916040518263ffffffff1660e01b8152600401612d6e919061471b565b60206040518083038186803b158015612d8657600080fd5b505af4158015612d9a573d6000803e3d6000fd5b505050506040513d601f19601f82011682018060405250810190612dbe9190614a0b565b905090565b600273__$6be8a34d719d54efe8ce2a1215b9d85036$__63124d899c90917f4174746f726e6579730000000000000000000000000000000000000000000000612e0a613890565b6040518463ffffffff1660e01b8152600401612e2893929190614195565b60206040518083038186803b158015612e4057600080fd5b505af4158015612e54573d6000803e3d6000fd5b505050506040513d601f19601f82011682018060405250810190612e7891906141f8565b612eb7576040517f08c379a0000000000000000000000000000000000000000000000000000000008152600401612eae90614282565b60405180910390fd5b600a60009054906101000a900473ffffffffffffffffffffffffffffffffffffffff1673ffffffffffffffffffffffffffffffffffffffff1663d687630583836040518363ffffffff1660e01b8152600401612f14929190614d2d565b600060405180830381600087803b158015612f2e57600080fd5b505af1158015612f42573d6000803e3d6000fd5b505050505050565b600a60009054906101000a900473ffffffffffffffffffffffffffffffffffffffff1673ffffffffffffffffffffffffffffffffffffffff1663dd4578aa83836040518363ffffffff1660e01b8152600401612fa7929190614d2d565b600060405180830381600087803b158015612fc157600080fd5b505af1158015612fd5573d6000803e3d6000fd5b505050505050565b6000600560009054906101000a900473ffffffffffffffffffffffffffffffffffffffff16905090565b60008361301381611a98565b613052576040517f08c379a0000000000000000000000000000000000000000000000000000000008152600401613049906144c5565b60405180910390fd5b600b600086815260200190815260200160002060009054906101000a900473ffffffffffffffffffffffffffffffffffffffff1673ffffffffffffffffffffffffffffffffffffffff16638e5a886f85856040518363ffffffff1660e01b81526004016130c09291906144e5565b60206040518083038186803b1580156130d857600080fd5b505afa1580156130ec573d6000803e3d6000fd5b505050506040513d601f19601f8201168201806040525081019061311091906141f8565b9150509392505050565b60008060009054906101000a900473ffffffffffffffffffffffffffffffffffffffff1673ffffffffffffffffffffffffffffffffffffffff1663d8eaeca56131628461195b565b6040518263ffffffff1660e01b815260040161317e9190614057565b60206040518083038186803b15801561319657600080fd5b505afa1580156131aa573d6000803e3d6000fd5b505050506040513d601f19601f820116820180604052508101906131ce9190614c04565b9050919050565b600273__$6be8a34d719d54efe8ce2a1215b9d85036$__63124d899c90917f4174746f726e657973000000000000000000000000000000000000000000000061321c613890565b6040518463ffffffff1660e01b815260040161323a93929190614195565b60206040518083038186803b15801561325257600080fd5b505af4158015613266573d6000803e3d6000fd5b505050506040513d601f19601f8201168201806040525081019061328a91906141f8565b6132c9576040517f08c379a00000000000000000000000000000000000000000000000000000000081526004016132c090614282565b60405180910390fd5b600a60009054906101000a900473ffffffffffffffffffffffffffffffffffffffff1673ffffffffffffffffffffffffffffffffffffffff1663ea8457f8826040518263ffffffff1660e01b81526004016133249190614700565b600060405180830381600087803b15801561333e57600080fd5b505af1158015613352573d6000803e3d6000fd5b5050505050565b6000600660009054906101000a900473ffffffffffffffffffffffffffffffffffffffff16905090565b6000600273__$6be8a34d719d54efe8ce2a1215b9d85036$__63787cad8290916040518263ffffffff1660e01b81526004016133bf9190614d56565b60206040518083038186803b1580156133d757600080fd5b505af41580156133eb573d6000803e3d6000fd5b505050506040513d601f19601f8201168201806040525081019061340f9190614c04565b905090565b6001600260000160009054906101000a900460ff1660ff161461346c576040517f08c379a000000000000000000000000000000000000000000000000000000000815260040161346390614dbd565b60405180910390fd5b600273__$6be8a34d719d54efe8ce2a1215b9d85036$__63ec46b6fc9091336040518363ffffffff1660e01b81526004016134a89291906143be565b60206040518083038186803b1580156134c057600080fd5b505af41580156134d4573d6000803e3d6000fd5b505050506040513d601f19601f820116820180604052508101906134f891906141f8565b613537576040517f08c379a000000000000000000000000000000000000000000000000000000000815260040161352e90614433565b60405180910390fd5b600273__$6be8a34d719d54efe8ce2a1215b9d85036$__63cc99e11b90917f4174746f726e65797300000000000000000000000000000000000000000000006040518363ffffffff1660e01b8152600401613593929190614546565b60006040518083038186803b1580156135ab57600080fd5b505af41580156135bf573d6000803e3d6000fd5b50505050600273__$6be8a34d719d54efe8ce2a1215b9d85036$__63772d54e19091600160006040518463ffffffff1660e01b815260040161360393929190614e1d565b60006040518083038186803b15801561361b57600080fd5b505af415801561362f573d6000803e3d6000fd5b5050505060028060000160006101000a81548160ff021916908360ff1602179055507f35012b512309c322acf68632cd6cb702ff0e1d776fbe9394e38ffc13b434fe7560405160405180910390a1565b600273__$6be8a34d719d54efe8ce2a1215b9d85036$__63ec46b6fc9091336040518363ffffffff1660e01b81526004016136bb9291906143be565b60206040518083038186803b1580156136d357600080fd5b505af41580156136e7573d6000803e3d6000fd5b505050506040513d601f19601f8201168201806040525081019061370b91906141f8565b61374a576040517f08c379a000000000000000000000000000000000000000000000000000000000815260040161374190614433565b60405180910390fd5b80600860006101000a81548173ffffffffffffffffffffffffffffffffffffffff021916908373ffffffffffffffffffffffffffffffffffffffff16021790555050565b600273__$6be8a34d719d54efe8ce2a1215b9d85036$__63124d899c90917f4174746f726e65797300000000000000000000000000000000000000000000006137d5613890565b6040518463ffffffff1660e01b81526004016137f393929190614195565b60206040518083038186803b15801561380b57600080fd5b505af415801561381f573d6000803e3d6000fd5b505050506040513d601f19601f8201168201806040525081019061384391906141f8565b613882576040517f08c379a000000000000000000000000000000000000000000000000000000000815260040161387990614282565b60405180910390fd5b61388d816000612f4a565b50565b60008060009054906101000a900473ffffffffffffffffffffffffffffffffffffffff1673ffffffffffffffffffffffffffffffffffffffff16639bd06bce336040518263ffffffff1660e01b81526004016138ec9190613dab565b602060405180830381600087803b15801561390657600080fd5b505af115801561391a573d6000803e3d6000fd5b505050506040513d601f19601f8201168201806040525081019061393e919061492b565b905090565b600073ffffffffffffffffffffffffffffffffffffffff1660008054906101000a900473ffffffffffffffffffffffffffffffffffffffff1673ffffffffffffffffffffffffffffffffffffffff16146139d2576040517f08c379a00000000000000000000000000000000000000000000000000000000081526004016139c990614ea0565b60405180910390fd5b806000806101000a81548173ffffffffffffffffffffffffffffffffffffffff021916908373ffffffffffffffffffffffffffffffffffffffff1602179055507f318da6c7624c71cbc0afe346c9d8827f119d0ecefb241a7b0c87217a076a8e0281604051613a419190613dab565b60405180910390a150565b80600160006101000a81548173ffffffffffffffffffffffffffffffffffffffff021916908373ffffffffffffffffffffffffffffffffffffffff1602179055507fe513d3e0f0d0a3877029dcc588748679a7a3450ec1ec7ed56d96bd012c3e61aa81604051613abc9190613dab565b60405180910390a150565b6000808260601b90506040517f3d602d80600a3d3981f3363d3d373d3d3d363d7300000000000000000000000081528160148201527f5af43d82803e903d91602b57fd5bf3000000000000000000000000000000000060288201526037816000f092505050919050565b6000604051905090565b600080fd5b600080fd5b6000819050919050565b613b5881613b45565b8114613b6357600080fd5b50565b600081359050613b7581613b4f565b92915050565b600060208284031215613b9157613b90613b3b565b5b6000613b9f84828501613b66565b91505092915050565b600064ffffffffff82169050919050565b613bc281613ba8565b8114613bcd57600080fd5b50565b600081359050613bdf81613bb9565b92915050565b60008060408385031215613bfc57613bfb613b3b565b5b6000613c0a85828601613b66565b9250506020613c1b85828601613bd0565b9150509250929050565b600073ffffffffffffffffffffffffffffffffffffffff82169050919050565b6000613c5082613c25565b9050919050565b613c6081613c45565b8114613c6b57600080fd5b50565b600081359050613c7d81613c57565b92915050565b600060208284031215613c9957613c98613b3b565b5b6000613ca784828501613c6e565b91505092915050565b6000819050919050565b613cc381613cb0565b8114613cce57600080fd5b50565b600081359050613ce081613cba565b92915050565b600080600060608486031215613cff57613cfe613b3b565b5b6000613d0d86828701613cd1565b9350506020613d1e86828701613c6e565b9250506040613d2f86828701613b66565b9150509250925092565b60008115159050919050565b613d4e81613d39565b82525050565b6000602082019050613d696000830184613d45565b92915050565b600060208284031215613d8557613d84613b3b565b5b6000613d9384828501613cd1565b91505092915050565b613da581613c45565b82525050565b6000602082019050613dc06000830184613d9c565b92915050565b600060ff82169050919050565b613ddc81613dc6565b8114613de757600080fd5b50565b600081359050613df981613dd3565b92915050565b60008060408385031215613e1657613e15613b3b565b5b6000613e2485828601613dea565b9250506020613e3585828601613bd0565b9150509250929050565b600065ffffffffffff82169050919050565b613e5a81613e3f565b8114613e6557600080fd5b50565b600081359050613e7781613e51565b92915050565b600060208284031215613e9357613e92613b3b565b5b6000613ea184828501613e68565b91505092915050565b613eb381613b45565b82525050565b6000602082019050613ece6000830184613eaa565b92915050565b600081519050919050565b600082825260208201905092915050565b6000819050602082019050919050565b613f0981613cb0565b82525050565b6000613f1b8383613f00565b60208301905092915050565b6000602082019050919050565b6000613f3f82613ed4565b613f498185613edf565b9350613f5483613ef0565b8060005b83811015613f85578151613f6c8882613f0f565b9750613f7783613f27565b925050600181019050613f58565b5085935050505092915050565b60006020820190508181036000830152613fac8184613f34565b905092915050565b600061ffff82169050919050565b613fcb81613fb4565b8114613fd657600080fd5b50565b600081359050613fe881613fc2565b92915050565b60006020828403121561400457614003613b3b565b5b600061401284828501613fd9565b91505092915050565b60006020828403121561403157614030613b3b565b5b600061403f84828501613dea565b91505092915050565b61405181613ba8565b82525050565b600060208201905061406c6000830184614048565b92915050565b6000806000806080858703121561408c5761408b613b3b565b5b600061409a87828801613bd0565b94505060206140ab87828801613c6e565b93505060406140bc87828801613c6e565b92505060606140cd87828801613c6e565b91505092959194509250565b6140e281613cb0565b82525050565b60006020820190506140fd60008301846140d9565b92915050565b6000806040838503121561411a57614119613b3b565b5b600061412885828601613bd0565b925050602061413985828601613fd9565b9150509250929050565b60006020828403121561415957614158613b3b565b5b600061416784828501613bd0565b91505092915050565b8082525050565b61418081613b45565b82525050565b61418f81613ba8565b82525050565b60006060820190506141aa6000830186614170565b6141b76020830185614177565b6141c46040830184614186565b949350505050565b6141d581613d39565b81146141e057600080fd5b50565b6000815190506141f2816141cc565b92915050565b60006020828403121561420e5761420d613b3b565b5b600061421c848285016141e3565b91505092915050565b600082825260208201905092915050565b7f41432e6f6e6c794174746f726e65793a206e6f74204174746f726e6579000000600082015250565b600061426c601d83614225565b915061427782614236565b602082019050919050565b6000602082019050818103600083015261429b8161425f565b9050919050565b60006020820190506142b76000830184614177565b92915050565b6000815190506142cc81613fc2565b92915050565b6000602082840312156142e8576142e7613b3b565b5b60006142f6848285016142bd565b91505092915050565b8082525050565b6000819050919050565b600061432b61432661432184613fb4565b614306565b613cb0565b9050919050565b61433b81614310565b82525050565b600060408201905061435660008301856142ff565b6143636020830184614332565b9392505050565b600060808201905061437f6000830187614170565b61438c6020830186614177565b6143996040830185614186565b6143a66060830184614186565b95945050505050565b6143b881613c45565b82525050565b60006040820190506143d36000830185614170565b6143e060208301846143af565b9392505050565b7f41432e6f6e6c79444b3a206e6f7420646972656374206b656570657200000000600082015250565b600061441d601c83614225565b9150614428826143e7565b602082019050919050565b6000602082019050818103600083015261444c81614410565b9050919050565b7f5348412e7469746c6545786973743a2053484120646f6573206e6f742068617660008201527f652073756368207469746c650000000000000000000000000000000000000000602082015250565b60006144af602c83614225565b91506144ba82614453565b604082019050919050565b600060208201905081810360008301526144de816144a2565b9050919050565b60006040820190506144fa6000830185613d9c565b6145076020830184613eaa565b9392505050565b61451781613cb0565b82525050565b600060408201905061453260008301856142ff565b61453f602083018461450e565b9392505050565b600060408201905061455b6000830185614170565b6145686020830184614177565b9392505050565b6000819050919050565b600061459461458f61458a8461456f565b614306565b613dc6565b9050919050565b6145a481614579565b82525050565b60006060820190506145bf6000830186614170565b6145cc602083018561459b565b6145d96040830184614186565b949350505050565b7f41432e6f776e65724f72426f6f6b65657065723a206e656974686572206f776e60008201527f6572206e6f7220626f6f6b656570657200000000000000000000000000000000602082015250565b600061463d603083614225565b9150614648826145e1565b604082019050919050565b6000602082019050818103600083015261466c81614630565b9050919050565b61467c81613dc6565b82525050565b60006060820190506146976000830186614170565b6146a46020830185614673565b6146b16040830184614186565b949350505050565b6146c281613dc6565b82525050565b60006040820190506146dd60008301856146b9565b6146ea6020830184614048565b9392505050565b6146fa81613e3f565b82525050565b600060208201905061471560008301846146f1565b92915050565b600060208201905061473060008301846142ff565b92915050565b600080fd5b6000601f19601f8301169050919050565b7f4e487b7100000000000000000000000000000000000000000000000000000000600052604160045260246000fd5b6147848261473b565b810181811067ffffffffffffffff821117156147a3576147a261474c565b5b80604052505050565b60006147b6613b31565b90506147c2828261477b565b919050565b600067ffffffffffffffff8211156147e2576147e161474c565b5b602082029050602081019050919050565b600080fd5b60008151905061480781613cba565b92915050565b600061482061481b846147c7565b6147ac565b90508083825260208201905060208402830185811115614843576148426147f3565b5b835b8181101561486c578061485888826147f8565b845260208401935050602081019050614845565b5050509392505050565b600082601f83011261488b5761488a614736565b5b815161489b84826020860161480d565b91505092915050565b6000602082840312156148ba576148b9613b3b565b5b600082015167ffffffffffffffff8111156148d8576148d7613b40565b5b6148e484828501614876565b91505092915050565b60006040820190506149026000830185614170565b61490f6020830184614673565b9392505050565b60008151905061492581613bb9565b92915050565b60006020828403121561494157614940613b3b565b5b600061494f84828501614916565b91505092915050565b600060608201905061496d6000830186614170565b61497a60208301856143af565b61498760408301846143af565b949350505050565b60006060820190506149a46000830186614170565b6149b16020830185614186565b6149be60408301846143af565b949350505050565b60006080820190506149db6000830187614048565b6149e86020830186613d9c565b6149f56040830185613d9c565b614a026060830184613d9c565b95945050505050565b600060208284031215614a2157614a20613b3b565b5b6000614a2f848285016147f8565b91505092915050565b7f4e487b7100000000000000000000000000000000000000000000000000000000600052601160045260246000fd5b6000614a7282613cb0565b91507fffffffffffffffffffffffffffffffffffffffffffffffffffffffffffffffff821415614aa557614aa4614a38565b5b600182019050919050565b7f41432e6f6e6c794d616e616765723a206e6f742074686520737065636966696360008201527f206d616e61676572000000000000000000000000000000000000000000000000602082015250565b6000614b0c602883614225565b9150614b1782614ab0565b604082019050919050565b60006020820190508181036000830152614b3b81614aff565b9050919050565b6000602082019050614b5760008301846146b9565b92915050565b7f5348412e74656d705265616479466f723a2054656d706c617465204e4f54207260008201527f6561647900000000000000000000000000000000000000000000000000000000602082015250565b6000614bb9602483614225565b9150614bc482614b5d565b604082019050919050565b60006020820190508181036000830152614be881614bac565b9050919050565b600081519050614bfe81613c57565b92915050565b600060208284031215614c1a57614c19613b3b565b5b6000614c2884828501614bef565b91505092915050565b6000819050919050565b6000614c56614c51614c4c84614c31565b614306565b613dc6565b9050919050565b614c6681614c3b565b82525050565b6000604082019050614c816000830185614c5d565b614c8e6020830184614048565b9392505050565b7f4e487b7100000000000000000000000000000000000000000000000000000000600052602160045260246000fd5b6000614cdf614cda614cd584613dc6565b614306565b613cb0565b9050919050565b614cef81614cc4565b82525050565b6000604082019050614d0a60008301856142ff565b614d176020830184614ce6565b9392505050565b614d2781613fb4565b82525050565b6000604082019050614d426000830185614048565b614d4f6020830184614d1e565b9392505050565b6000602082019050614d6b6000830184614170565b92915050565b7f41432e6f6e6c7950656e64696e673a20446f632069732066696e616c697a6564600082015250565b6000614da7602083614225565b9150614db282614d71565b602082019050919050565b60006020820190508181036000830152614dd681614d9a565b9050919050565b614de681614c3b565b82525050565b6000614e07614e02614dfd8461456f565b614306565b613ba8565b9050919050565b614e1781614dec565b82525050565b6000606082019050614e326000830186614170565b614e3f6020830185614ddd565b614e4c6040830184614e0e565b949350505050565b7f616c7265616479207365742072656743656e7465720000000000000000000000600082015250565b6000614e8a601583614225565b9150614e9582614e54565b602082019050919050565b60006020820190508181036000830152614eb981614e7d565b905091905056fea26469706673582212200693dba2ba617a36d7fb9e9adfbaf76212a5d29b951ab6171acdee9c5008001d64736f6c63430008080033",
  "linkReferences": {
    "contracts/common/lib/EnumerableSet.sol": {
      "EnumerableSet": [
        {
          "length": 20,
          "start": 2575
        },
        {
          "length": 20,
          "start": 3735
        },
        {
          "length": 20,
          "start": 5146
        },
        {
          "length": 20,
          "start": 5809
        },
        {
          "length": 20,
          "start": 6846
        },
        {
          "length": 20,
          "start": 7668
        },
        {
          "length": 20,
          "start": 7823
        },
        {
          "length": 20,
          "start": 8390
        },
        {
          "length": 20,
          "start": 10590
        },
        {
          "length": 20,
          "start": 11013
        },
        {
          "length": 20,
          "start": 11400
        },
        {
          "length": 20,
          "start": 11608
        }
      ]
    },
    "contracts/common/lib/RolesRepo.sol": {
      "RolesRepo": [
        {
          "length": 20,
          "start": 2167
        },
        {
          "length": 20,
          "start": 2855
        },
        {
          "length": 20,
          "start": 2978
        },
        {
          "length": 20,
          "start": 3101
        },
        {
          "length": 20,
          "start": 3882
        },
        {
          "length": 20,
          "start": 4085
        },
        {
          "length": 20,
          "start": 4196
        },
        {
          "length": 20,
          "start": 4342
        },
        {
          "length": 20,
          "start": 4556
        },
        {
          "length": 20,
          "start": 4727
        },
        {
          "length": 20,
          "start": 5294
        },
        {
          "length": 20,
          "start": 5565
        },
        {
          "length": 20,
          "start": 5985
        },
        {
          "length": 20,
          "start": 6256
        },
        {
          "length": 20,
          "start": 6529
        },
        {
          "length": 20,
          "start": 6676
        },
        {
          "length": 20,
          "start": 6993
        },
        {
          "length": 20,
          "start": 7118
        },
        {
          "length": 20,
          "start": 7286
        },
        {
          "length": 20,
          "start": 7463
        },
        {
          "length": 20,
          "start": 8190
        },
        {
          "length": 20,
          "start": 8615
        },
        {
          "length": 20,
          "start": 10740
        },
        {
          "length": 20,
          "start": 11156
        },
        {
          "length": 20,
          "start": 11751
        },
        {
          "length": 20,
          "start": 12793
        },
        {
          "length": 20,
          "start": 13225
        },
        {
          "length": 20,
          "start": 13456
        },
        {
          "length": 20,
          "start": 13659
        },
        {
          "length": 20,
          "start": 13799
        },
        {
          "length": 20,
          "start": 13987
        },
        {
          "length": 20,
          "start": 14258
        }
      ]
    },
    "contracts/common/lib/SNParser.sol": {
      "SNParser": [
        {
          "length": 20,
          "start": 2415
        },
        {
          "length": 20,
          "start": 2604
        }
      ]
    }
  },
  "deployedLinkReferences": {
    "contracts/common/lib/EnumerableSet.sol": {
      "EnumerableSet": [
        {
          "length": 20,
          "start": 2543
        },
        {
          "length": 20,
          "start": 3703
        },
        {
          "length": 20,
          "start": 5114
        },
        {
          "length": 20,
          "start": 5777
        },
        {
          "length": 20,
          "start": 6814
        },
        {
          "length": 20,
          "start": 7636
        },
        {
          "length": 20,
          "start": 7791
        },
        {
          "length": 20,
          "start": 8358
        },
        {
          "length": 20,
          "start": 10558
        },
        {
          "length": 20,
          "start": 10981
        },
        {
          "length": 20,
          "start": 11368
        },
        {
          "length": 20,
          "start": 11576
        }
      ]
    },
    "contracts/common/lib/RolesRepo.sol": {
      "RolesRepo": [
        {
          "length": 20,
          "start": 2135
        },
        {
          "length": 20,
          "start": 2823
        },
        {
          "length": 20,
          "start": 2946
        },
        {
          "length": 20,
          "start": 3069
        },
        {
          "length": 20,
          "start": 3850
        },
        {
          "length": 20,
          "start": 4053
        },
        {
          "length": 20,
          "start": 4164
        },
        {
          "length": 20,
          "start": 4310
        },
        {
          "length": 20,
          "start": 4524
        },
        {
          "length": 20,
          "start": 4695
        },
        {
          "length": 20,
          "start": 5262
        },
        {
          "length": 20,
          "start": 5533
        },
        {
          "length": 20,
          "start": 5953
        },
        {
          "length": 20,
          "start": 6224
        },
        {
          "length": 20,
          "start": 6497
        },
        {
          "length": 20,
          "start": 6644
        },
        {
          "length": 20,
          "start": 6961
        },
        {
          "length": 20,
          "start": 7086
        },
        {
          "length": 20,
          "start": 7254
        },
        {
          "length": 20,
          "start": 7431
        },
        {
          "length": 20,
          "start": 8158
        },
        {
          "length": 20,
          "start": 8583
        },
        {
          "length": 20,
          "start": 10708
        },
        {
          "length": 20,
          "start": 11124
        },
        {
          "length": 20,
          "start": 11719
        },
        {
          "length": 20,
          "start": 12761
        },
        {
          "length": 20,
          "start": 13193
        },
        {
          "length": 20,
          "start": 13424
        },
        {
          "length": 20,
          "start": 13627
        },
        {
          "length": 20,
          "start": 13767
        },
        {
          "length": 20,
          "start": 13955
        },
        {
          "length": 20,
          "start": 14226
        }
      ]
    },
    "contracts/common/lib/SNParser.sol": {
      "SNParser": [
        {
          "length": 20,
          "start": 2383
        },
        {
          "length": 20,
          "start": 2572
        }
      ]
    }
  }
}