{
  "_format": "hh-sol-artifact-1",
  "contractName": "ShareholdersAgreement",
  "sourceName": "contracts/books/boh/ShareholdersAgreement.sol",
  "abi": [
    {
      "anonymous": false,
      "inputs": [
        {
          "indexed": false,
          "internalType": "uint40",
          "name": "owner",
          "type": "uint40"
        },
        {
          "indexed": false,
          "internalType": "address",
          "name": "directKeeper",
          "type": "address"
        },
        {
          "indexed": false,
          "internalType": "address",
          "name": "regCenter",
          "type": "address"
        },
        {
          "indexed": false,
          "internalType": "address",
          "name": "generalKeeper",
          "type": "address"
        }
      ],
      "name": "Init",
      "type": "event"
    },
    {
      "anonymous": false,
      "inputs": [],
      "name": "LockContents",
      "type": "event"
    },
    {
      "anonymous": false,
      "inputs": [
        {
          "indexed": false,
          "internalType": "address",
          "name": "keeper",
          "type": "address"
        }
      ],
      "name": "SetDirectKeeper",
      "type": "event"
    },
    {
      "anonymous": false,
      "inputs": [
        {
          "indexed": false,
          "internalType": "uint256",
          "name": "acct",
          "type": "uint256"
        }
      ],
      "name": "SetGeneralCounsel",
      "type": "event"
    },
    {
      "anonymous": false,
      "inputs": [
        {
          "indexed": false,
          "internalType": "address",
          "name": "gk",
          "type": "address"
        }
      ],
      "name": "SetGeneralKeeper",
      "type": "event"
    },
    {
      "anonymous": false,
      "inputs": [
        {
          "indexed": false,
          "internalType": "uint256",
          "name": "acct",
          "type": "uint256"
        }
      ],
      "name": "SetOwner",
      "type": "event"
    },
    {
      "anonymous": false,
      "inputs": [
        {
          "indexed": false,
          "internalType": "address",
          "name": "rc",
          "type": "address"
        }
      ],
      "name": "SetRegCenter",
      "type": "event"
    },
    {
      "inputs": [
        {
          "internalType": "bytes32",
          "name": "role",
          "type": "bytes32"
        }
      ],
      "name": "abandonRole",
      "outputs": [],
      "stateMutability": "nonpayable",
      "type": "function"
    },
    {
      "inputs": [
        {
          "internalType": "uint40",
          "name": "acct",
          "type": "uint40"
        }
      ],
      "name": "addParty",
      "outputs": [],
      "stateMutability": "nonpayable",
      "type": "function"
    },
    {
      "inputs": [
        {
          "internalType": "bytes32",
          "name": "rule",
          "type": "bytes32"
        }
      ],
      "name": "addRule",
      "outputs": [],
      "stateMutability": "nonpayable",
      "type": "function"
    },
    {
      "inputs": [
        {
          "internalType": "uint8",
          "name": "title",
          "type": "uint8"
        }
      ],
      "name": "createTerm",
      "outputs": [
        {
          "internalType": "address",
          "name": "body",
          "type": "address"
        }
      ],
      "stateMutability": "nonpayable",
      "type": "function"
    },
    {
      "inputs": [],
      "name": "finalizeTerms",
      "outputs": [],
      "stateMutability": "nonpayable",
      "type": "function"
    },
    {
      "inputs": [],
      "name": "finalized",
      "outputs": [
        {
          "internalType": "bool",
          "name": "",
          "type": "bool"
        }
      ],
      "stateMutability": "view",
      "type": "function"
    },
    {
      "inputs": [],
      "name": "getBookeeper",
      "outputs": [
        {
          "internalType": "address",
          "name": "",
          "type": "address"
        }
      ],
      "stateMutability": "view",
      "type": "function"
    },
    {
      "inputs": [],
      "name": "getGeneralCounsel",
      "outputs": [
        {
          "internalType": "uint40",
          "name": "",
          "type": "uint40"
        }
      ],
      "stateMutability": "view",
      "type": "function"
    },
    {
      "inputs": [],
      "name": "getOwner",
      "outputs": [
        {
          "internalType": "uint40",
          "name": "",
          "type": "uint40"
        }
      ],
      "stateMutability": "view",
      "type": "function"
    },
    {
      "inputs": [
        {
          "internalType": "uint256",
          "name": "seq",
          "type": "uint256"
        }
      ],
      "name": "getRule",
      "outputs": [
        {
          "internalType": "bytes32",
          "name": "",
          "type": "bytes32"
        }
      ],
      "stateMutability": "view",
      "type": "function"
    },
    {
      "inputs": [
        {
          "internalType": "uint256",
          "name": "title",
          "type": "uint256"
        }
      ],
      "name": "getTerm",
      "outputs": [
        {
          "internalType": "address",
          "name": "",
          "type": "address"
        }
      ],
      "stateMutability": "view",
      "type": "function"
    },
    {
      "inputs": [
        {
          "internalType": "bytes32",
          "name": "role",
          "type": "bytes32"
        },
        {
          "internalType": "uint40",
          "name": "acct",
          "type": "uint40"
        }
      ],
      "name": "grantRole",
      "outputs": [],
      "stateMutability": "nonpayable",
      "type": "function"
    },
    {
      "inputs": [
        {
          "internalType": "bytes32",
          "name": "role",
          "type": "bytes32"
        },
        {
          "internalType": "uint40",
          "name": "acct",
          "type": "uint40"
        }
      ],
      "name": "hasRole",
      "outputs": [
        {
          "internalType": "bool",
          "name": "",
          "type": "bool"
        }
      ],
      "stateMutability": "view",
      "type": "function"
    },
    {
      "inputs": [
        {
          "internalType": "uint256",
          "name": "seq",
          "type": "uint256"
        }
      ],
      "name": "hasRule",
      "outputs": [
        {
          "internalType": "bool",
          "name": "",
          "type": "bool"
        }
      ],
      "stateMutability": "view",
      "type": "function"
    },
    {
      "inputs": [
        {
          "internalType": "uint256",
          "name": "title",
          "type": "uint256"
        }
      ],
      "name": "hasTitle",
      "outputs": [
        {
          "internalType": "bool",
          "name": "",
          "type": "bool"
        }
      ],
      "stateMutability": "view",
      "type": "function"
    },
    {
      "inputs": [
        {
          "internalType": "uint40",
          "name": "owner",
          "type": "uint40"
        },
        {
          "internalType": "address",
          "name": "directKeeper",
          "type": "address"
        },
        {
          "internalType": "address",
          "name": "regCenter",
          "type": "address"
        },
        {
          "internalType": "address",
          "name": "generalKeeper",
          "type": "address"
        }
      ],
      "name": "init",
      "outputs": [],
      "stateMutability": "nonpayable",
      "type": "function"
    },
    {
      "inputs": [],
      "name": "lockContents",
      "outputs": [],
      "stateMutability": "nonpayable",
      "type": "function"
    },
    {
      "inputs": [],
      "name": "qtyOfRules",
      "outputs": [
        {
          "internalType": "uint256",
          "name": "",
          "type": "uint256"
        }
      ],
      "stateMutability": "view",
      "type": "function"
    },
    {
      "inputs": [],
      "name": "qtyOfTerms",
      "outputs": [
        {
          "internalType": "uint256",
          "name": "",
          "type": "uint256"
        }
      ],
      "stateMutability": "view",
      "type": "function"
    },
    {
      "inputs": [
        {
          "internalType": "uint40",
          "name": "acct",
          "type": "uint40"
        },
        {
          "internalType": "uint16",
          "name": "seq",
          "type": "uint16"
        }
      ],
      "name": "removeBlank",
      "outputs": [],
      "stateMutability": "nonpayable",
      "type": "function"
    },
    {
      "inputs": [
        {
          "internalType": "uint16",
          "name": "seq",
          "type": "uint16"
        }
      ],
      "name": "removeRule",
      "outputs": [],
      "stateMutability": "nonpayable",
      "type": "function"
    },
    {
      "inputs": [
        {
          "internalType": "uint8",
          "name": "title",
          "type": "uint8"
        }
      ],
      "name": "removeTerm",
      "outputs": [],
      "stateMutability": "nonpayable",
      "type": "function"
    },
    {
      "inputs": [
        {
          "internalType": "bytes32",
          "name": "role",
          "type": "bytes32"
        }
      ],
      "name": "renounceRole",
      "outputs": [],
      "stateMutability": "nonpayable",
      "type": "function"
    },
    {
      "inputs": [
        {
          "internalType": "bytes32",
          "name": "role",
          "type": "bytes32"
        },
        {
          "internalType": "uint40",
          "name": "acct",
          "type": "uint40"
        }
      ],
      "name": "revokeRole",
      "outputs": [],
      "stateMutability": "nonpayable",
      "type": "function"
    },
    {
      "inputs": [],
      "name": "rules",
      "outputs": [
        {
          "internalType": "uint256[]",
          "name": "",
          "type": "uint256[]"
        }
      ],
      "stateMutability": "view",
      "type": "function"
    },
    {
      "inputs": [
        {
          "internalType": "uint48",
          "name": "deadline",
          "type": "uint48"
        }
      ],
      "name": "setClosingDeadline",
      "outputs": [],
      "stateMutability": "nonpayable",
      "type": "function"
    },
    {
      "inputs": [
        {
          "internalType": "address",
          "name": "keeper",
          "type": "address"
        }
      ],
      "name": "setDirectKeeper",
      "outputs": [],
      "stateMutability": "nonpayable",
      "type": "function"
    },
    {
      "inputs": [
        {
          "internalType": "uint40",
          "name": "acct",
          "type": "uint40"
        }
      ],
      "name": "setGeneralCounsel",
      "outputs": [],
      "stateMutability": "nonpayable",
      "type": "function"
    },
    {
      "inputs": [
        {
          "internalType": "uint40",
          "name": "acct",
          "type": "uint40"
        }
      ],
      "name": "setOwner",
      "outputs": [],
      "stateMutability": "nonpayable",
      "type": "function"
    },
    {
      "inputs": [
        {
          "internalType": "contract IRepoOfDocs",
          "name": "rod",
          "type": "address"
        }
      ],
      "name": "setROD",
      "outputs": [],
      "stateMutability": "nonpayable",
      "type": "function"
    },
    {
      "inputs": [
        {
          "internalType": "bytes32",
          "name": "role",
          "type": "bytes32"
        },
        {
          "internalType": "uint40",
          "name": "acct",
          "type": "uint40"
        }
      ],
      "name": "setRoleAdmin",
      "outputs": [],
      "stateMutability": "nonpayable",
      "type": "function"
    },
    {
      "inputs": [
        {
          "internalType": "uint48",
          "name": "deadline",
          "type": "uint48"
        }
      ],
      "name": "setSigDeadline",
      "outputs": [],
      "stateMutability": "nonpayable",
      "type": "function"
    },
    {
      "inputs": [
        {
          "internalType": "uint256",
          "name": "title",
          "type": "uint256"
        },
        {
          "internalType": "address",
          "name": "ia",
          "type": "address"
        },
        {
          "internalType": "bytes32",
          "name": "snOfDeal",
          "type": "bytes32"
        }
      ],
      "name": "termIsExempted",
      "outputs": [
        {
          "internalType": "bool",
          "name": "",
          "type": "bool"
        }
      ],
      "stateMutability": "view",
      "type": "function"
    },
    {
      "inputs": [
        {
          "internalType": "uint256",
          "name": "title",
          "type": "uint256"
        },
        {
          "internalType": "address",
          "name": "ia",
          "type": "address"
        },
        {
          "internalType": "bytes32",
          "name": "snOfDeal",
          "type": "bytes32"
        }
      ],
      "name": "termIsTriggered",
      "outputs": [
        {
          "internalType": "bool",
          "name": "",
          "type": "bool"
        }
      ],
      "stateMutability": "view",
      "type": "function"
    },
    {
      "inputs": [],
      "name": "titles",
      "outputs": [
        {
          "internalType": "uint256[]",
          "name": "",
          "type": "uint256[]"
        }
      ],
      "stateMutability": "view",
      "type": "function"
    }
  ],
  "bytecode": "0x608060405234801561001057600080fd5b50614524806100206000396000f3fe608060405234801561001057600080fd5b50600436106102115760003560e01c806379b2ec1211610125578063bc3ffc70116100ad578063e179f9811161007c578063e179f981146105e6578063ea8457f814610616578063ed21102314610632578063f045a76914610650578063fd04390a1461065a57610211565b8063bc3ffc7014610572578063cd75bd3f14610590578063d0c504b0146105ac578063d6876305146105ca57610211565b80638969d43a116100f45780638969d43a146104e05780638bb9c5bf146104ea578063a9acd94414610506578063b3f05b9714610524578063b71754c71461054257610211565b806379b2ec121461045a5780637ba706e81461048a578063821ee8ea146104a6578063893d20e8146104c257610211565b80633da9a600116101a857806363068e7f1161017757806363068e7f146103ba5780636451c6e5146103d65780636be8496f146103f2578063717654491461040e578063740998151461043e57610211565b80633da9a600146103345780634794be0714610350578063484620371461036c57806352f6747a1461039c57610211565b80632f88bb5a116101e45780632f88bb5a146102885780633178a9a9146102b8578063346ba941146102d4578063379ef4a61461030457610211565b806305ee773514610216578063103f6edd1461023257806316dc517e1461025057806317c51fec1461026c575b600080fd5b610230600480360381019061022b919061322d565b610676565b005b61023a610926565b604051610247919061327a565b60405180910390f35b61026a600480360381019061026591906132c1565b6109b7565b005b610286600480360381019061028191906132c1565b610a32565b005b6102a2600480360381019061029d9190613395565b610aad565b6040516102af9190613403565b60405180910390f35b6102d260048036038101906102cd919061341e565b610bd9565b005b6102ee60048036038101906102e9919061344b565b610de4565b6040516102fb9190613487565b60405180910390f35b61031e6004803603810190610319919061344b565b610e21565b60405161032b9190613403565b60405180910390f35b61034e6004803603810190610349919061322d565b610eb6565b005b61036a600480360381019061036591906134e0565b610ff0565b005b6103866004803603810190610381919061344b565b611174565b604051610393919061351c565b60405180910390f35b6103a4611191565b6040516103b191906135f5565b60405180910390f35b6103d460048036038101906103cf9190613651565b611227565b005b6103f060048036038101906103eb91906136bc565b6113cb565b005b61040c600480360381019061040791906136e9565b6114da565b005b6104286004803603810190610423919061344b565b611582565b6040516104359190613403565b60405180910390f35b610458600480360381019061045391906132c1565b611617565b005b610474600480360381019061046f91906132c1565b611692565b6040516104819190613403565b60405180910390f35b6104a4600480360381019061049f919061341e565b61172a565b005b6104c060048036038101906104bb9190613716565b611935565b005b6104ca6119f8565b6040516104d7919061327a565b60405180910390f35b6104e8611a89565b005b61050460048036038101906104ff919061322d565b611d2a565b005b61050e611da8565b60405161051b91906135f5565b60405180910390f35b61052c611e3e565b6040516105399190613403565b60405180910390f35b61055c600480360381019061055791906137b6565b611e5d565b6040516105699190613487565b60405180910390f35b61057a612321565b60405161058791906137f2565b60405180910390f35b6105aa60048036038101906105a591906137b6565b6123b2565b005b6105b4612574565b6040516105c191906137f2565b60405180910390f35b6105e460048036038101906105df919061380d565b612605565b005b61060060048036038101906105fb9190613395565b61278c565b60405161060d9190613403565b60405180910390f35b610630600480360381019061062b91906134e0565b61289f565b005b61063a612a23565b6040516106479190613487565b60405180910390f35b610658612ab4565b005b610674600480360381019061066f919061341e565b612d1c565b005b600273__$6be8a34d719d54efe8ce2a1215b9d85036$__63a8ef95ac90917f4174746f726e65797300000000000000000000000000000000000000000000006106bd612e1e565b6040518463ffffffff1660e01b81526004016106db9392919061389e565b60206040518083038186803b1580156106f357600080fd5b505af4158015610707573d6000803e3d6000fd5b505050506040513d601f19601f8201168201806040525081019061072b9190613901565b61076a576040517f08c379a00000000000000000000000000000000000000000000000000000000081526004016107619061398b565b60405180910390fd5b80600860008373__$5dc66471518b5e7762576f597300b6c9be$__637345708890916040518263ffffffff1660e01b81526004016107a891906139ab565b60206040518083038186803b1580156107c057600080fd5b505af41580156107d4573d6000803e3d6000fd5b505050506040513d601f19601f820116820180604052508101906107f891906139db565b61ffff16815260200190815260200160002081905550600973__$60819bf3fa70e900ebaf23f60586c0d140$__6392f13c3f90918373__$5dc66471518b5e7762576f597300b6c9be$__637345708890916040518263ffffffff1660e01b815260040161086591906139ab565b60206040518083038186803b15801561087d57600080fd5b505af4158015610891573d6000803e3d6000fd5b505050506040513d601f19601f820116820180604052508101906108b591906139db565b6040518363ffffffff1660e01b81526004016108d2929190613a40565b60206040518083038186803b1580156108ea57600080fd5b505af41580156108fe573d6000803e3d6000fd5b505050506040513d601f19601f820116820180604052508101906109229190613901565b5050565b6000600273__$6be8a34d719d54efe8ce2a1215b9d85036$__63e8c0cc1d90916040518263ffffffff1660e01b81526004016109629190613a69565b60206040518083038186803b15801561097a57600080fd5b505af415801561098e573d6000803e3d6000fd5b505050506040513d601f19601f820116820180604052508101906109b29190613a99565b905090565b600273__$6be8a34d719d54efe8ce2a1215b9d85036$__63427abff49091846109de612e1e565b856040518563ffffffff1660e01b81526004016109fe9493929190613ad5565b60006040518083038186803b158015610a1657600080fd5b505af4158015610a2a573d6000803e3d6000fd5b505050505050565b600273__$6be8a34d719d54efe8ce2a1215b9d85036$__638ce15845909184610a59612e1e565b856040518563ffffffff1660e01b8152600401610a799493929190613ad5565b60006040518083038186803b158015610a9157600080fd5b505af4158015610aa5573d6000803e3d6000fd5b505050505050565b600083610ab981611582565b610af8576040517f08c379a0000000000000000000000000000000000000000000000000000000008152600401610aef90613b8c565b60405180910390fd5b610b0385858561278c565b610b105760019150610bd1565b6005600086815260200190815260200160002060009054906101000a900473ffffffffffffffffffffffffffffffffffffffff1673ffffffffffffffffffffffffffffffffffffffff166352000f5185856040518363ffffffff1660e01b8152600401610b7e929190613bac565b60206040518083038186803b158015610b9657600080fd5b505afa158015610baa573d6000803e3d6000fd5b505050506040513d601f19601f82011682018060405250810190610bce9190613901565b91505b509392505050565b600273__$6be8a34d719d54efe8ce2a1215b9d85036$__63ec46b6fc9091336040518363ffffffff1660e01b8152600401610c15929190613be4565b60206040518083038186803b158015610c2d57600080fd5b505af4158015610c41573d6000803e3d6000fd5b505050506040513d601f19601f82011682018060405250810190610c659190613901565b80610cff5750600273__$6be8a34d719d54efe8ce2a1215b9d85036$__63fe2710869091610c91612e1e565b6040518363ffffffff1660e01b8152600401610cae929190613c0d565b60206040518083038186803b158015610cc657600080fd5b505af4158015610cda573d6000803e3d6000fd5b505050506040513d601f19601f82011682018060405250810190610cfe9190613901565b5b610d3e576040517f08c379a0000000000000000000000000000000000000000000000000000000008152600401610d3590613ca8565b60405180910390fd5b600273__$6be8a34d719d54efe8ce2a1215b9d85036$__639c97afbc9091836040518363ffffffff1660e01b8152600401610d7a929190613c0d565b60006040518083038186803b158015610d9257600080fd5b505af4158015610da6573d6000803e3d6000fd5b505050507ff2735f34b69be1e6342dea95f9162f84d0db925fab655ca9f1f312ac8cbfc99d81604051610dd99190613cd7565b60405180910390a150565b60006005600083815260200190815260200160002060009054906101000a900473ffffffffffffffffffffffffffffffffffffffff169050919050565b6000600973__$60819bf3fa70e900ebaf23f60586c0d140$__633f5f77cd9091846040518363ffffffff1660e01b8152600401610e5f929190613d01565b60206040518083038186803b158015610e7757600080fd5b505af4158015610e8b573d6000803e3d6000fd5b505050506040513d601f19601f82011682018060405250810190610eaf9190613901565b9050919050565b600273__$6be8a34d719d54efe8ce2a1215b9d85036$__63ec46b6fc9091336040518363ffffffff1660e01b8152600401610ef2929190613be4565b60206040518083038186803b158015610f0a57600080fd5b505af4158015610f1e573d6000803e3d6000fd5b505050506040513d601f19601f82011682018060405250810190610f429190613901565b610f81576040517f08c379a0000000000000000000000000000000000000000000000000000000008152600401610f7890613d9c565b60405180910390fd5b600273__$6be8a34d719d54efe8ce2a1215b9d85036$__63cc99e11b9091836040518363ffffffff1660e01b8152600401610fbd929190613dbc565b60006040518083038186803b158015610fd557600080fd5b505af4158015610fe9573d6000803e3d6000fd5b5050505050565b600273__$6be8a34d719d54efe8ce2a1215b9d85036$__63a8ef95ac90917f4174746f726e6579730000000000000000000000000000000000000000000000611037612e1e565b6040518463ffffffff1660e01b81526004016110559392919061389e565b60206040518083038186803b15801561106d57600080fd5b505af4158015611081573d6000803e3d6000fd5b505050506040513d601f19601f820116820180604052508101906110a59190613901565b6110e4576040517f08c379a00000000000000000000000000000000000000000000000000000000081526004016110db9061398b565b60405180910390fd5b600460009054906101000a900473ffffffffffffffffffffffffffffffffffffffff1673ffffffffffffffffffffffffffffffffffffffff16634794be07826040518263ffffffff1660e01b815260040161113f9190613df4565b600060405180830381600087803b15801561115957600080fd5b505af115801561116d573d6000803e3d6000fd5b5050505050565b600060086000838152602001908152602001600020549050919050565b6060600973__$60819bf3fa70e900ebaf23f60586c0d140$__630d0c1b8490916040518263ffffffff1660e01b81526004016111cd9190613e0f565b60006040518083038186803b1580156111e557600080fd5b505af41580156111f9573d6000803e3d6000fd5b505050506040513d6000823e3d601f19601f820116820180604052508101906112229190613f98565b905090565b600273__$6be8a34d719d54efe8ce2a1215b9d85036$__63a8ef95ac90917f4174746f726e657973000000000000000000000000000000000000000000000061126e612e1e565b6040518463ffffffff1660e01b815260040161128c9392919061389e565b60206040518083038186803b1580156112a457600080fd5b505af41580156112b8573d6000803e3d6000fd5b505050506040513d601f19601f820116820180604052508101906112dc9190613901565b61131b576040517f08c379a00000000000000000000000000000000000000000000000000000000081526004016113129061398b565b60405180910390fd5b600973__$60819bf3fa70e900ebaf23f60586c0d140$__6392fd02df9091836040518363ffffffff1660e01b8152600401611357929190613a40565b60206040518083038186803b15801561136f57600080fd5b505af4158015611383573d6000803e3d6000fd5b505050506040513d601f19601f820116820180604052508101906113a79190613901565b156113c857600860008261ffff168152602001908152602001600020600090555b50565b600273__$6be8a34d719d54efe8ce2a1215b9d85036$__63ec46b6fc9091336040518363ffffffff1660e01b8152600401611407929190613be4565b60206040518083038186803b15801561141f57600080fd5b505af4158015611433573d6000803e3d6000fd5b505050506040513d601f19601f820116820180604052508101906114579190613901565b611496576040517f08c379a000000000000000000000000000000000000000000000000000000000815260040161148d90613d9c565b60405180910390fd5b80600460006101000a81548173ffffffffffffffffffffffffffffffffffffffff021916908373ffffffffffffffffffffffffffffffffffffffff16021790555050565b600273__$6be8a34d719d54efe8ce2a1215b9d85036$__630f072325909133846040518463ffffffff1660e01b815260040161151893929190613fe1565b60006040518083038186803b15801561153057600080fd5b505af4158015611544573d6000803e3d6000fd5b505050507fe435cbeab64e4eae6497b9d8289704bd709d624a80704ef3ca9af777534bc6ec816040516115779190613487565b60405180910390a150565b6000600673__$60819bf3fa70e900ebaf23f60586c0d140$__633f5f77cd9091846040518363ffffffff1660e01b81526004016115c0929190613d01565b60206040518083038186803b1580156115d857600080fd5b505af41580156115ec573d6000803e3d6000fd5b505050506040513d601f19601f820116820180604052508101906116109190613901565b9050919050565b600273__$6be8a34d719d54efe8ce2a1215b9d85036$__63d2a15ba790918461163e612e1e565b856040518563ffffffff1660e01b815260040161165e9493929190613ad5565b60006040518083038186803b15801561167657600080fd5b505af415801561168a573d6000803e3d6000fd5b505050505050565b6000600273__$6be8a34d719d54efe8ce2a1215b9d85036$__63a8ef95ac909185856040518463ffffffff1660e01b81526004016116d29392919061389e565b60206040518083038186803b1580156116ea57600080fd5b505af41580156116fe573d6000803e3d6000fd5b505050506040513d601f19601f820116820180604052508101906117229190613901565b905092915050565b600273__$6be8a34d719d54efe8ce2a1215b9d85036$__63ec46b6fc9091336040518363ffffffff1660e01b8152600401611766929190613be4565b60206040518083038186803b15801561177e57600080fd5b505af4158015611792573d6000803e3d6000fd5b505050506040513d601f19601f820116820180604052508101906117b69190613901565b806118505750600273__$6be8a34d719d54efe8ce2a1215b9d85036$__63fe27108690916117e2612e1e565b6040518363ffffffff1660e01b81526004016117ff929190613c0d565b60206040518083038186803b15801561181757600080fd5b505af415801561182b573d6000803e3d6000fd5b505050506040513d601f19601f8201168201806040525081019061184f9190613901565b5b61188f576040517f08c379a000000000000000000000000000000000000000000000000000000000815260040161188690613ca8565b60405180910390fd5b600273__$6be8a34d719d54efe8ce2a1215b9d85036$__63b6e38a299091836040518363ffffffff1660e01b81526004016118cb929190613c0d565b60006040518083038186803b1580156118e357600080fd5b505af41580156118f7573d6000803e3d6000fd5b505050507f8b6f40f36b4ae8cc5f55e895036457c43da4ab1f80f58c46f5ff0d72a650033b8160405161192a9190613cd7565b60405180910390a150565b61193e82612ed1565b61194781612fda565b600273__$6be8a34d719d54efe8ce2a1215b9d85036$__63d9ba1dbe909186866040518463ffffffff1660e01b815260040161198593929190614018565b60006040518083038186803b15801561199d57600080fd5b505af41580156119b1573d6000803e3d6000fd5b505050507f4d18c0021addc919105cb1ed2c11ad241e859cc1d9e77d4ee1d9ca2cdc1f255b848484846040516119ea949392919061404f565b60405180910390a150505050565b6000600273__$6be8a34d719d54efe8ce2a1215b9d85036$__63987ad15390916040518263ffffffff1660e01b8152600401611a349190613a69565b60206040518083038186803b158015611a4c57600080fd5b505af4158015611a60573d6000803e3d6000fd5b505050506040513d601f19601f82011682018060405250810190611a849190613a99565b905090565b600273__$6be8a34d719d54efe8ce2a1215b9d85036$__63ec46b6fc9091336040518363ffffffff1660e01b8152600401611ac5929190613be4565b60206040518083038186803b158015611add57600080fd5b505af4158015611af1573d6000803e3d6000fd5b505050506040513d601f19601f82011682018060405250810190611b159190613901565b611b54576040517f08c379a0000000000000000000000000000000000000000000000000000000008152600401611b4b90613d9c565b60405180910390fd5b6000600673__$60819bf3fa70e900ebaf23f60586c0d140$__63c2b46a8590916040518263ffffffff1660e01b8152600401611b909190613e0f565b60206040518083038186803b158015611ba857600080fd5b505af4158015611bbc573d6000803e3d6000fd5b505050506040513d601f19601f82011682018060405250810190611be09190614094565b905060005b81811015611d1e5760056000600673__$60819bf3fa70e900ebaf23f60586c0d140$__63ef6982f09091856040518363ffffffff1660e01b8152600401611c2d929190613d01565b60206040518083038186803b158015611c4557600080fd5b505af4158015611c59573d6000803e3d6000fd5b505050506040513d601f19601f82011682018060405250810190611c7d9190614094565b815260200190815260200160002060009054906101000a900473ffffffffffffffffffffffffffffffffffffffff1673ffffffffffffffffffffffffffffffffffffffff1663f045a7696040518163ffffffff1660e01b8152600401600060405180830381600087803b158015611cf357600080fd5b505af1158015611d07573d6000803e3d6000fd5b505050508080611d16906140f0565b915050611be5565b50611d27612ab4565b50565b6000611d34612e1e565b9050600273__$6be8a34d719d54efe8ce2a1215b9d85036$__63f2c6b2a6909184846040518463ffffffff1660e01b8152600401611d7493929190614139565b60006040518083038186803b158015611d8c57600080fd5b505af4158015611da0573d6000803e3d6000fd5b505050505050565b6060600673__$60819bf3fa70e900ebaf23f60586c0d140$__630d0c1b8490916040518263ffffffff1660e01b8152600401611de49190613e0f565b60006040518083038186803b158015611dfc57600080fd5b505af4158015611e10573d6000803e3d6000fd5b505050506040513d6000823e3d601f19601f82011682018060405250810190611e399190613f98565b905090565b6000600280600001601e9054906101000a900460ff1660ff1614905090565b6000600273__$6be8a34d719d54efe8ce2a1215b9d85036$__6331a349c09091611e85612e1e565b6040518363ffffffff1660e01b8152600401611ea2929190613c0d565b60206040518083038186803b158015611eba57600080fd5b505af4158015611ece573d6000803e3d6000fd5b505050506040513d601f19601f82011682018060405250810190611ef29190613901565b611f31576040517f08c379a0000000000000000000000000000000000000000000000000000000008152600401611f28906141bc565b60405180910390fd5b81600073ffffffffffffffffffffffffffffffffffffffff16600460009054906101000a900473ffffffffffffffffffffffffffffffffffffffff1673ffffffffffffffffffffffffffffffffffffffff16634efd15f2836040518263ffffffff1660e01b8152600401611fa591906141eb565b60206040518083038186803b158015611fbd57600080fd5b505afa158015611fd1573d6000803e3d6000fd5b505050506040513d601f19601f82011682018060405250810190611ff5919061421b565b73ffffffffffffffffffffffffffffffffffffffff16141561204c576040517f08c379a000000000000000000000000000000000000000000000000000000000815260040161204390614294565b60405180910390fd5b6120ff600460009054906101000a900473ffffffffffffffffffffffffffffffffffffffff1673ffffffffffffffffffffffffffffffffffffffff16634efd15f2856040518263ffffffff1660e01b81526004016120aa91906141eb565b60206040518083038186803b1580156120c257600080fd5b505afa1580156120d6573d6000803e3d6000fd5b505050506040513d601f19601f820116820180604052508101906120fa919061421b565b6130e6565b9150600061210b6119f8565b90506000612117610926565b90508373ffffffffffffffffffffffffffffffffffffffff1663821ee8ea833060008054906101000a900473ffffffffffffffffffffffffffffffffffffffff16600160009054906101000a900473ffffffffffffffffffffffffffffffffffffffff166040518563ffffffff1660e01b815260040161219a949392919061404f565b600060405180830381600087803b1580156121b457600080fd5b505af11580156121c8573d6000803e3d6000fd5b505050508373ffffffffffffffffffffffffffffffffffffffff16633178a9a9826040518263ffffffff1660e01b8152600401612205919061327a565b600060405180830381600087803b15801561221f57600080fd5b505af1158015612233573d6000803e3d6000fd5b5050505083600560008760ff16815260200190815260200160002060006101000a81548173ffffffffffffffffffffffffffffffffffffffff021916908373ffffffffffffffffffffffffffffffffffffffff160217905550600673__$60819bf3fa70e900ebaf23f60586c0d140$__6392f13c3f9091876040518363ffffffff1660e01b81526004016122c89291906142e5565b60206040518083038186803b1580156122e057600080fd5b505af41580156122f4573d6000803e3d6000fd5b505050506040513d601f19601f820116820180604052508101906123189190613901565b50505050919050565b6000600673__$60819bf3fa70e900ebaf23f60586c0d140$__63c2b46a8590916040518263ffffffff1660e01b815260040161235d9190613e0f565b60206040518083038186803b15801561237557600080fd5b505af4158015612389573d6000803e3d6000fd5b505050506040513d601f19601f820116820180604052508101906123ad9190614094565b905090565b600273__$6be8a34d719d54efe8ce2a1215b9d85036$__63a8ef95ac90917f4174746f726e65797300000000000000000000000000000000000000000000006123f9612e1e565b6040518463ffffffff1660e01b81526004016124179392919061389e565b60206040518083038186803b15801561242f57600080fd5b505af4158015612443573d6000803e3d6000fd5b505050506040513d601f19601f820116820180604052508101906124679190613901565b6124a6576040517f08c379a000000000000000000000000000000000000000000000000000000000815260040161249d9061398b565b60405180910390fd5b600673__$60819bf3fa70e900ebaf23f60586c0d140$__6392fd02df9091836040518363ffffffff1660e01b81526004016124e29291906142e5565b60206040518083038186803b1580156124fa57600080fd5b505af415801561250e573d6000803e3d6000fd5b505050506040513d601f19601f820116820180604052508101906125329190613901565b1561257157600560008260ff16815260200190815260200160002060006101000a81549073ffffffffffffffffffffffffffffffffffffffff02191690555b50565b6000600973__$60819bf3fa70e900ebaf23f60586c0d140$__63c2b46a8590916040518263ffffffff1660e01b81526004016125b09190613e0f565b60206040518083038186803b1580156125c857600080fd5b505af41580156125dc573d6000803e3d6000fd5b505050506040513d601f19601f820116820180604052508101906126009190614094565b905090565b600273__$6be8a34d719d54efe8ce2a1215b9d85036$__63a8ef95ac90917f4174746f726e657973000000000000000000000000000000000000000000000061264c612e1e565b6040518463ffffffff1660e01b815260040161266a9392919061389e565b60206040518083038186803b15801561268257600080fd5b505af4158015612696573d6000803e3d6000fd5b505050506040513d601f19601f820116820180604052508101906126ba9190613901565b6126f9576040517f08c379a00000000000000000000000000000000000000000000000000000000081526004016126f09061398b565b60405180910390fd5b600460009054906101000a900473ffffffffffffffffffffffffffffffffffffffff1673ffffffffffffffffffffffffffffffffffffffff1663d687630583836040518363ffffffff1660e01b815260040161275692919061431d565b600060405180830381600087803b15801561277057600080fd5b505af1158015612784573d6000803e3d6000fd5b505050505050565b60008361279881611582565b6127d7576040517f08c379a00000000000000000000000000000000000000000000000000000000081526004016127ce90613b8c565b60405180910390fd5b6005600086815260200190815260200160002060009054906101000a900473ffffffffffffffffffffffffffffffffffffffff1673ffffffffffffffffffffffffffffffffffffffff16638e5a886f85856040518363ffffffff1660e01b8152600401612845929190613bac565b60206040518083038186803b15801561285d57600080fd5b505afa158015612871573d6000803e3d6000fd5b505050506040513d601f19601f820116820180604052508101906128959190613901565b9150509392505050565b600273__$6be8a34d719d54efe8ce2a1215b9d85036$__63a8ef95ac90917f4174746f726e65797300000000000000000000000000000000000000000000006128e6612e1e565b6040518463ffffffff1660e01b81526004016129049392919061389e565b60206040518083038186803b15801561291c57600080fd5b505af4158015612930573d6000803e3d6000fd5b505050506040513d601f19601f820116820180604052508101906129549190613901565b612993576040517f08c379a000000000000000000000000000000000000000000000000000000000815260040161298a9061398b565b60405180910390fd5b600460009054906101000a900473ffffffffffffffffffffffffffffffffffffffff1673ffffffffffffffffffffffffffffffffffffffff1663ea8457f8826040518263ffffffff1660e01b81526004016129ee9190613df4565b600060405180830381600087803b158015612a0857600080fd5b505af1158015612a1c573d6000803e3d6000fd5b5050505050565b6000600273__$6be8a34d719d54efe8ce2a1215b9d85036$__63787cad8290916040518263ffffffff1660e01b8152600401612a5f9190613a69565b60206040518083038186803b158015612a7757600080fd5b505af4158015612a8b573d6000803e3d6000fd5b505050506040513d601f19601f82011682018060405250810190612aaf919061421b565b905090565b600273__$6be8a34d719d54efe8ce2a1215b9d85036$__63ec46b6fc9091336040518363ffffffff1660e01b8152600401612af0929190613be4565b60206040518083038186803b158015612b0857600080fd5b505af4158015612b1c573d6000803e3d6000fd5b505050506040513d601f19601f82011682018060405250810190612b409190613901565b612b7f576040517f08c379a0000000000000000000000000000000000000000000000000000000008152600401612b7690613d9c565b60405180910390fd5b60016002600001601e9054906101000a900460ff1660ff1614612bd7576040517f08c379a0000000000000000000000000000000000000000000000000000000008152600401612bce90614392565b60405180910390fd5b600273__$6be8a34d719d54efe8ce2a1215b9d85036$__63cc99e11b90917f4174746f726e65797300000000000000000000000000000000000000000000006040518363ffffffff1660e01b8152600401612c33929190613dbc565b60006040518083038186803b158015612c4b57600080fd5b505af4158015612c5f573d6000803e3d6000fd5b50505050600273__$6be8a34d719d54efe8ce2a1215b9d85036$__639c97afbc909160006040518363ffffffff1660e01b8152600401612ca09291906143ed565b60006040518083038186803b158015612cb857600080fd5b505af4158015612ccc573d6000803e3d6000fd5b50505050600280600001601e6101000a81548160ff021916908360ff1602179055507f35012b512309c322acf68632cd6cb702ff0e1d776fbe9394e38ffc13b434fe7560405160405180910390a1565b600273__$6be8a34d719d54efe8ce2a1215b9d85036$__63a8ef95ac90917f4174746f726e6579730000000000000000000000000000000000000000000000612d63612e1e565b6040518463ffffffff1660e01b8152600401612d819392919061389e565b60206040518083038186803b158015612d9957600080fd5b505af4158015612dad573d6000803e3d6000fd5b505050506040513d601f19601f82011682018060405250810190612dd19190613901565b612e10576040517f08c379a0000000000000000000000000000000000000000000000000000000008152600401612e079061398b565b60405180910390fd5b612e1b816000613150565b50565b60008060009054906101000a900473ffffffffffffffffffffffffffffffffffffffff1673ffffffffffffffffffffffffffffffffffffffff16639bd06bce336040518263ffffffff1660e01b8152600401612e7a9190613487565b602060405180830381600087803b158015612e9457600080fd5b505af1158015612ea8573d6000803e3d6000fd5b505050506040513d601f19601f82011682018060405250810190612ecc9190613a99565b905090565b600073ffffffffffffffffffffffffffffffffffffffff1660008054906101000a900473ffffffffffffffffffffffffffffffffffffffff1673ffffffffffffffffffffffffffffffffffffffff1614612f60576040517f08c379a0000000000000000000000000000000000000000000000000000000008152600401612f5790614462565b60405180910390fd5b7f318da6c7624c71cbc0afe346c9d8827f119d0ecefb241a7b0c87217a076a8e0281604051612f8f9190613487565b60405180910390a1806000806101000a81548173ffffffffffffffffffffffffffffffffffffffff021916908373ffffffffffffffffffffffffffffffffffffffff16021790555050565b600073ffffffffffffffffffffffffffffffffffffffff16600160009054906101000a900473ffffffffffffffffffffffffffffffffffffffff1673ffffffffffffffffffffffffffffffffffffffff161461306b576040517f08c379a0000000000000000000000000000000000000000000000000000000008152600401613062906144ce565b60405180910390fd5b7fe513d3e0f0d0a3877029dcc588748679a7a3450ec1ec7ed56d96bd012c3e61aa8160405161309a9190613487565b60405180910390a180600160006101000a81548173ffffffffffffffffffffffffffffffffffffffff021916908373ffffffffffffffffffffffffffffffffffffffff16021790555050565b6000808260601b90506040517f3d602d80600a3d3981f3363d3d373d3d3d363d7300000000000000000000000081528160148201527f5af43d82803e903d91602b57fd5bf3000000000000000000000000000000000060288201526037816000f092505050919050565b600460009054906101000a900473ffffffffffffffffffffffffffffffffffffffff1673ffffffffffffffffffffffffffffffffffffffff1663dd4578aa83836040518363ffffffff1660e01b81526004016131ad92919061431d565b600060405180830381600087803b1580156131c757600080fd5b505af11580156131db573d6000803e3d6000fd5b505050505050565b6000604051905090565b600080fd5b600080fd5b6000819050919050565b61320a816131f7565b811461321557600080fd5b50565b60008135905061322781613201565b92915050565b600060208284031215613243576132426131ed565b5b600061325184828501613218565b91505092915050565b600064ffffffffff82169050919050565b6132748161325a565b82525050565b600060208201905061328f600083018461326b565b92915050565b61329e8161325a565b81146132a957600080fd5b50565b6000813590506132bb81613295565b92915050565b600080604083850312156132d8576132d76131ed565b5b60006132e685828601613218565b92505060206132f7858286016132ac565b9150509250929050565b6000819050919050565b61331481613301565b811461331f57600080fd5b50565b6000813590506133318161330b565b92915050565b600073ffffffffffffffffffffffffffffffffffffffff82169050919050565b600061336282613337565b9050919050565b61337281613357565b811461337d57600080fd5b50565b60008135905061338f81613369565b92915050565b6000806000606084860312156133ae576133ad6131ed565b5b60006133bc86828701613322565b93505060206133cd86828701613380565b92505060406133de86828701613218565b9150509250925092565b60008115159050919050565b6133fd816133e8565b82525050565b600060208201905061341860008301846133f4565b92915050565b600060208284031215613434576134336131ed565b5b6000613442848285016132ac565b91505092915050565b600060208284031215613461576134606131ed565b5b600061346f84828501613322565b91505092915050565b61348181613357565b82525050565b600060208201905061349c6000830184613478565b92915050565b600065ffffffffffff82169050919050565b6134bd816134a2565b81146134c857600080fd5b50565b6000813590506134da816134b4565b92915050565b6000602082840312156134f6576134f56131ed565b5b6000613504848285016134cb565b91505092915050565b613516816131f7565b82525050565b6000602082019050613531600083018461350d565b92915050565b600081519050919050565b600082825260208201905092915050565b6000819050602082019050919050565b61356c81613301565b82525050565b600061357e8383613563565b60208301905092915050565b6000602082019050919050565b60006135a282613537565b6135ac8185613542565b93506135b783613553565b8060005b838110156135e85781516135cf8882613572565b97506135da8361358a565b9250506001810190506135bb565b5085935050505092915050565b6000602082019050818103600083015261360f8184613597565b905092915050565b600061ffff82169050919050565b61362e81613617565b811461363957600080fd5b50565b60008135905061364b81613625565b92915050565b600060208284031215613667576136666131ed565b5b60006136758482850161363c565b91505092915050565b600061368982613357565b9050919050565b6136998161367e565b81146136a457600080fd5b50565b6000813590506136b681613690565b92915050565b6000602082840312156136d2576136d16131ed565b5b60006136e0848285016136a7565b91505092915050565b6000602082840312156136ff576136fe6131ed565b5b600061370d84828501613380565b91505092915050565b600080600080608085870312156137305761372f6131ed565b5b600061373e878288016132ac565b945050602061374f87828801613380565b935050604061376087828801613380565b925050606061377187828801613380565b91505092959194509250565b600060ff82169050919050565b6137938161377d565b811461379e57600080fd5b50565b6000813590506137b08161378a565b92915050565b6000602082840312156137cc576137cb6131ed565b5b60006137da848285016137a1565b91505092915050565b6137ec81613301565b82525050565b600060208201905061380760008301846137e3565b92915050565b60008060408385031215613824576138236131ed565b5b6000613832858286016132ac565b92505060206138438582860161363c565b9150509250929050565b8082525050565b61385d816131f7565b82525050565b6000819050919050565b600061388861388361387e8461325a565b613863565b613301565b9050919050565b6138988161386d565b82525050565b60006060820190506138b3600083018661384d565b6138c06020830185613854565b6138cd604083018461388f565b949350505050565b6138de816133e8565b81146138e957600080fd5b50565b6000815190506138fb816138d5565b92915050565b600060208284031215613917576139166131ed565b5b6000613925848285016138ec565b91505092915050565b600082825260208201905092915050565b7f41432e6f743a206e6f74204174746f726e657900000000000000000000000000600082015250565b600061397560138361392e565b91506139808261393f565b602082019050919050565b600060208201905081810360008301526139a481613968565b9050919050565b60006020820190506139c06000830184613854565b92915050565b6000815190506139d581613625565b92915050565b6000602082840312156139f1576139f06131ed565b5b60006139ff848285016139c6565b91505092915050565b8082525050565b6000613a2a613a25613a2084613617565b613863565b613301565b9050919050565b613a3a81613a0f565b82525050565b6000604082019050613a556000830185613a08565b613a626020830184613a31565b9392505050565b6000602082019050613a7e600083018461384d565b92915050565b600081519050613a9381613295565b92915050565b600060208284031215613aaf57613aae6131ed565b5b6000613abd84828501613a84565b91505092915050565b613acf8161325a565b82525050565b6000608082019050613aea600083018761384d565b613af76020830186613854565b613b046040830185613ac6565b613b116060830184613ac6565b95945050505050565b7f5348412e7469746c6545786973743a2053484120646f6573206e6f742068617660008201527f652073756368207469746c650000000000000000000000000000000000000000602082015250565b6000613b76602c8361392e565b9150613b8182613b1a565b604082019050919050565b60006020820190508181036000830152613ba581613b69565b9050919050565b6000604082019050613bc16000830185613478565b613bce602083018461350d565b9392505050565b613bde81613357565b82525050565b6000604082019050613bf9600083018561384d565b613c066020830184613bd5565b9392505050565b6000604082019050613c22600083018561384d565b613c2f602083018461388f565b9392505050565b7f41432e6f776e65724f72446972656374426f6f6b65657065723a206e6569746860008201527f6572206f776e6572206e6f7220626f6f6b656570657200000000000000000000602082015250565b6000613c9260368361392e565b9150613c9d82613c36565b604082019050919050565b60006020820190508181036000830152613cc181613c85565b9050919050565b613cd18161386d565b82525050565b6000602082019050613cec6000830184613cc8565b92915050565b613cfb81613301565b82525050565b6000604082019050613d166000830185613a08565b613d236020830184613cf2565b9392505050565b7f41432e6f6e6c794469726563744b65657065723a206e6f74206469726563742060008201527f6b65657065720000000000000000000000000000000000000000000000000000602082015250565b6000613d8660268361392e565b9150613d9182613d2a565b604082019050919050565b60006020820190508181036000830152613db581613d79565b9050919050565b6000604082019050613dd1600083018561384d565b613dde6020830184613854565b9392505050565b613dee816134a2565b82525050565b6000602082019050613e096000830184613de5565b92915050565b6000602082019050613e246000830184613a08565b92915050565b600080fd5b6000601f19601f8301169050919050565b7f4e487b7100000000000000000000000000000000000000000000000000000000600052604160045260246000fd5b613e7882613e2f565b810181811067ffffffffffffffff82111715613e9757613e96613e40565b5b80604052505050565b6000613eaa6131e3565b9050613eb68282613e6f565b919050565b600067ffffffffffffffff821115613ed657613ed5613e40565b5b602082029050602081019050919050565b600080fd5b600081519050613efb8161330b565b92915050565b6000613f14613f0f84613ebb565b613ea0565b90508083825260208201905060208402830185811115613f3757613f36613ee7565b5b835b81811015613f605780613f4c8882613eec565b845260208401935050602081019050613f39565b5050509392505050565b600082601f830112613f7f57613f7e613e2a565b5b8151613f8f848260208601613f01565b91505092915050565b600060208284031215613fae57613fad6131ed565b5b600082015167ffffffffffffffff811115613fcc57613fcb6131f2565b5b613fd884828501613f6a565b91505092915050565b6000606082019050613ff6600083018661384d565b6140036020830185613bd5565b6140106040830184613bd5565b949350505050565b600060608201905061402d600083018661384d565b61403a602083018561388f565b6140476040830184613bd5565b949350505050565b6000608082019050614064600083018761326b565b6140716020830186613478565b61407e6040830185613478565b61408b6060830184613478565b95945050505050565b6000602082840312156140aa576140a96131ed565b5b60006140b884828501613eec565b91505092915050565b7f4e487b7100000000000000000000000000000000000000000000000000000000600052601160045260246000fd5b60006140fb82613301565b91507fffffffffffffffffffffffffffffffffffffffffffffffffffffffffffffffff82141561412e5761412d6140c1565b5b600182019050919050565b600060608201905061414e600083018661384d565b61415b6020830185613854565b6141686040830184613ac6565b949350505050565b7f41432e6f67633a206e6f742067656e6572616c20636f756e73656c0000000000600082015250565b60006141a6601b8361392e565b91506141b182614170565b602082019050919050565b600060208201905081810360008301526141d581614199565b9050919050565b6141e58161377d565b82525050565b600060208201905061420060008301846141dc565b92915050565b60008151905061421581613369565b92915050565b600060208284031215614231576142306131ed565b5b600061423f84828501614206565b91505092915050565b7f524f442e6d642e74723a2074656d706c617465204e4f54207365740000000000600082015250565b600061427e601b8361392e565b915061428982614248565b602082019050919050565b600060208201905081810360008301526142ad81614271565b9050919050565b60006142cf6142ca6142c58461377d565b613863565b613301565b9050919050565b6142df816142b4565b82525050565b60006040820190506142fa6000830185613a08565b61430760208301846142d6565b9392505050565b61431781613617565b82525050565b6000604082019050614332600083018561326b565b61433f602083018461430e565b9392505050565b7f41432e6f6e6c7950656e64696e673a20446f632069732066696e616c697a6564600082015250565b600061437c60208361392e565b915061438782614346565b602082019050919050565b600060208201905081810360008301526143ab8161436f565b9050919050565b6000819050919050565b60006143d76143d26143cd846143b2565b613863565b613301565b9050919050565b6143e7816143bc565b82525050565b6000604082019050614402600083018561384d565b61440f60208301846143de565b9392505050565b7f616c7265616479207365742072656743656e7465720000000000000000000000600082015250565b600061444c60158361392e565b915061445782614416565b602082019050919050565b6000602082019050818103600083015261447b8161443f565b9050919050565b7f616c7265616479207365742067656e6572616c4b656570657200000000000000600082015250565b60006144b860198361392e565b91506144c382614482565b602082019050919050565b600060208201905081810360008301526144e7816144ab565b905091905056fea264697066735822122081e170e0e20ca814047b46d3945bd58a54054b25e612eefb1cdc7adfe9a5758064736f6c63430008080033",
  "linkReferences": {
    "contracts/common/lib/EnumerableSet.sol": {
      "EnumerableSet": [
        {
          "length": 20,
          "start": 2098
        },
        {
          "length": 20,
          "start": 3655
        },
        {
          "length": 20,
          "start": 4535
        },
        {
          "length": 20,
          "start": 4927
        },
        {
          "length": 20,
          "start": 5544
        },
        {
          "length": 20,
          "start": 7034
        },
        {
          "length": 20,
          "start": 7189
        },
        {
          "length": 20,
          "start": 7630
        },
        {
          "length": 20,
          "start": 8880
        },
        {
          "length": 20,
          "start": 9031
        },
        {
          "length": 20,
          "start": 9418
        },
        {
          "length": 20,
          "start": 9626
        }
      ]
    },
    "contracts/common/lib/RolesRepo.sol": {
      "RolesRepo": [
        {
          "length": 20,
          "start": 1690
        },
        {
          "length": 20,
          "start": 2380
        },
        {
          "length": 20,
          "start": 2523
        },
        {
          "length": 20,
          "start": 2646
        },
        {
          "length": 20,
          "start": 3069
        },
        {
          "length": 20,
          "start": 3215
        },
        {
          "length": 20,
          "start": 3426
        },
        {
          "length": 20,
          "start": 3802
        },
        {
          "length": 20,
          "start": 4005
        },
        {
          "length": 20,
          "start": 4116
        },
        {
          "length": 20,
          "start": 4683
        },
        {
          "length": 20,
          "start": 5103
        },
        {
          "length": 20,
          "start": 5374
        },
        {
          "length": 20,
          "start": 5691
        },
        {
          "length": 20,
          "start": 5816
        },
        {
          "length": 20,
          "start": 5966
        },
        {
          "length": 20,
          "start": 6112
        },
        {
          "length": 20,
          "start": 6323
        },
        {
          "length": 20,
          "start": 6507
        },
        {
          "length": 20,
          "start": 6686
        },
        {
          "length": 20,
          "start": 6829
        },
        {
          "length": 20,
          "start": 7514
        },
        {
          "length": 20,
          "start": 7811
        },
        {
          "length": 20,
          "start": 9174
        },
        {
          "length": 20,
          "start": 9769
        },
        {
          "length": 20,
          "start": 10435
        },
        {
          "length": 20,
          "start": 10825
        },
        {
          "length": 20,
          "start": 10968
        },
        {
          "length": 20,
          "start": 11259
        },
        {
          "length": 20,
          "start": 11399
        },
        {
          "length": 20,
          "start": 11584
        }
      ]
    },
    "contracts/common/lib/SNParser.sol": {
      "SNParser": [
        {
          "length": 20,
          "start": 1938
        },
        {
          "length": 20,
          "start": 2127
        }
      ]
    }
  },
  "deployedLinkReferences": {
    "contracts/common/lib/EnumerableSet.sol": {
      "EnumerableSet": [
        {
          "length": 20,
          "start": 2066
        },
        {
          "length": 20,
          "start": 3623
        },
        {
          "length": 20,
          "start": 4503
        },
        {
          "length": 20,
          "start": 4895
        },
        {
          "length": 20,
          "start": 5512
        },
        {
          "length": 20,
          "start": 7002
        },
        {
          "length": 20,
          "start": 7157
        },
        {
          "length": 20,
          "start": 7598
        },
        {
          "length": 20,
          "start": 8848
        },
        {
          "length": 20,
          "start": 8999
        },
        {
          "length": 20,
          "start": 9386
        },
        {
          "length": 20,
          "start": 9594
        }
      ]
    },
    "contracts/common/lib/RolesRepo.sol": {
      "RolesRepo": [
        {
          "length": 20,
          "start": 1658
        },
        {
          "length": 20,
          "start": 2348
        },
        {
          "length": 20,
          "start": 2491
        },
        {
          "length": 20,
          "start": 2614
        },
        {
          "length": 20,
          "start": 3037
        },
        {
          "length": 20,
          "start": 3183
        },
        {
          "length": 20,
          "start": 3394
        },
        {
          "length": 20,
          "start": 3770
        },
        {
          "length": 20,
          "start": 3973
        },
        {
          "length": 20,
          "start": 4084
        },
        {
          "length": 20,
          "start": 4651
        },
        {
          "length": 20,
          "start": 5071
        },
        {
          "length": 20,
          "start": 5342
        },
        {
          "length": 20,
          "start": 5659
        },
        {
          "length": 20,
          "start": 5784
        },
        {
          "length": 20,
          "start": 5934
        },
        {
          "length": 20,
          "start": 6080
        },
        {
          "length": 20,
          "start": 6291
        },
        {
          "length": 20,
          "start": 6475
        },
        {
          "length": 20,
          "start": 6654
        },
        {
          "length": 20,
          "start": 6797
        },
        {
          "length": 20,
          "start": 7482
        },
        {
          "length": 20,
          "start": 7779
        },
        {
          "length": 20,
          "start": 9142
        },
        {
          "length": 20,
          "start": 9737
        },
        {
          "length": 20,
          "start": 10403
        },
        {
          "length": 20,
          "start": 10793
        },
        {
          "length": 20,
          "start": 10936
        },
        {
          "length": 20,
          "start": 11227
        },
        {
          "length": 20,
          "start": 11367
        },
        {
          "length": 20,
          "start": 11552
        }
      ]
    },
    "contracts/common/lib/SNParser.sol": {
      "SNParser": [
        {
          "length": 20,
          "start": 1906
        },
        {
          "length": 20,
          "start": 2095
        }
      ]
    }
  }
}