{
  "_format": "hh-sol-artifact-1",
  "contractName": "SNParser",
  "sourceName": "contracts/common/lib/SNParser.sol",
  "abi": [
    {
      "inputs": [
        {
          "internalType": "bytes32",
          "name": "sn",
          "type": "bytes32"
        }
      ],
      "name": "addMemberOfGUO",
      "outputs": [
        {
          "internalType": "bool",
          "name": "",
          "type": "bool"
        }
      ],
      "stateMutability": "pure",
      "type": "function"
    },
    {
      "inputs": [
        {
          "internalType": "bytes32",
          "name": "sn",
          "type": "bytes32"
        }
      ],
      "name": "againstShallBuyOfVR",
      "outputs": [
        {
          "internalType": "bool",
          "name": "",
          "type": "bool"
        }
      ],
      "stateMutability": "pure",
      "type": "function"
    },
    {
      "inputs": [
        {
          "internalType": "bytes32",
          "name": "sn",
          "type": "bytes32"
        },
        {
          "internalType": "uint256",
          "name": "seqOfTitle",
          "type": "uint256"
        }
      ],
      "name": "appointTitle",
      "outputs": [
        {
          "internalType": "uint8",
          "name": "",
          "type": "uint8"
        }
      ],
      "stateMutability": "pure",
      "type": "function"
    },
    {
      "inputs": [
        {
          "internalType": "bytes32",
          "name": "sn",
          "type": "bytes32"
        }
      ],
      "name": "basedOnPar",
      "outputs": [
        {
          "internalType": "bool",
          "name": "",
          "type": "bool"
        }
      ],
      "stateMutability": "pure",
      "type": "function"
    },
    {
      "inputs": [
        {
          "internalType": "bytes32",
          "name": "sn",
          "type": "bytes32"
        }
      ],
      "name": "basedOnParOfFR",
      "outputs": [
        {
          "internalType": "bool",
          "name": "",
          "type": "bool"
        }
      ],
      "stateMutability": "pure",
      "type": "function"
    },
    {
      "inputs": [
        {
          "internalType": "bytes32",
          "name": "sn",
          "type": "bytes32"
        }
      ],
      "name": "buyerOfDeal",
      "outputs": [
        {
          "internalType": "uint40",
          "name": "",
          "type": "uint40"
        }
      ],
      "stateMutability": "pure",
      "type": "function"
    },
    {
      "inputs": [
        {
          "internalType": "bytes32",
          "name": "sn",
          "type": "bytes32"
        }
      ],
      "name": "candidateOfMotion",
      "outputs": [
        {
          "internalType": "uint40",
          "name": "",
          "type": "uint40"
        }
      ],
      "stateMutability": "pure",
      "type": "function"
    },
    {
      "inputs": [
        {
          "internalType": "bytes32",
          "name": "sn",
          "type": "bytes32"
        },
        {
          "internalType": "uint32",
          "name": "data_1",
          "type": "uint32"
        },
        {
          "internalType": "uint32",
          "name": "data_2",
          "type": "uint32"
        }
      ],
      "name": "checkConditions",
      "outputs": [
        {
          "internalType": "bool",
          "name": "flag",
          "type": "bool"
        }
      ],
      "stateMutability": "pure",
      "type": "function"
    },
    {
      "inputs": [
        {
          "internalType": "bytes32",
          "name": "shareNumber",
          "type": "bytes32"
        }
      ],
      "name": "class",
      "outputs": [
        {
          "internalType": "uint16",
          "name": "",
          "type": "uint16"
        }
      ],
      "stateMutability": "pure",
      "type": "function"
    },
    {
      "inputs": [
        {
          "internalType": "bytes32",
          "name": "sn",
          "type": "bytes32"
        }
      ],
      "name": "classOfDeal",
      "outputs": [
        {
          "internalType": "uint16",
          "name": "",
          "type": "uint16"
        }
      ],
      "stateMutability": "pure",
      "type": "function"
    },
    {
      "inputs": [
        {
          "internalType": "bytes32",
          "name": "sn",
          "type": "bytes32"
        }
      ],
      "name": "classOfOpt",
      "outputs": [
        {
          "internalType": "uint16",
          "name": "",
          "type": "uint16"
        }
      ],
      "stateMutability": "pure",
      "type": "function"
    },
    {
      "inputs": [
        {
          "internalType": "bytes32",
          "name": "sn",
          "type": "bytes32"
        }
      ],
      "name": "closingDaysOfOpt",
      "outputs": [
        {
          "internalType": "uint64",
          "name": "",
          "type": "uint64"
        }
      ],
      "stateMutability": "pure",
      "type": "function"
    },
    {
      "inputs": [
        {
          "internalType": "bytes32",
          "name": "sn",
          "type": "bytes32"
        }
      ],
      "name": "compOperator_1",
      "outputs": [
        {
          "internalType": "uint8",
          "name": "",
          "type": "uint8"
        }
      ],
      "stateMutability": "pure",
      "type": "function"
    },
    {
      "inputs": [
        {
          "internalType": "bytes32",
          "name": "sn",
          "type": "bytes32"
        }
      ],
      "name": "compOperator_2",
      "outputs": [
        {
          "internalType": "uint8",
          "name": "",
          "type": "uint8"
        }
      ],
      "stateMutability": "pure",
      "type": "function"
    },
    {
      "inputs": [
        {
          "internalType": "bytes32",
          "name": "sn",
          "type": "bytes32"
        }
      ],
      "name": "createDateOfPld",
      "outputs": [
        {
          "internalType": "uint48",
          "name": "",
          "type": "uint48"
        }
      ],
      "stateMutability": "pure",
      "type": "function"
    },
    {
      "inputs": [
        {
          "internalType": "bytes32",
          "name": "sn",
          "type": "bytes32"
        }
      ],
      "name": "dealTypeOfFR",
      "outputs": [
        {
          "internalType": "uint8",
          "name": "",
          "type": "uint8"
        }
      ],
      "stateMutability": "pure",
      "type": "function"
    },
    {
      "inputs": [
        {
          "internalType": "bytes32",
          "name": "sn",
          "type": "bytes32"
        }
      ],
      "name": "debtorOfPld",
      "outputs": [
        {
          "internalType": "uint40",
          "name": "",
          "type": "uint40"
        }
      ],
      "stateMutability": "pure",
      "type": "function"
    },
    {
      "inputs": [
        {
          "internalType": "bytes32",
          "name": "sn",
          "type": "bytes32"
        }
      ],
      "name": "decisionPowerOfVR",
      "outputs": [
        {
          "internalType": "uint8",
          "name": "",
          "type": "uint8"
        }
      ],
      "stateMutability": "pure",
      "type": "function"
    },
    {
      "inputs": [
        {
          "internalType": "bytes32",
          "name": "sn",
          "type": "bytes32"
        }
      ],
      "name": "dragerGroupOfLink",
      "outputs": [
        {
          "internalType": "uint40",
          "name": "",
          "type": "uint40"
        }
      ],
      "stateMutability": "pure",
      "type": "function"
    },
    {
      "inputs": [
        {
          "internalType": "bytes32",
          "name": "sn",
          "type": "bytes32"
        }
      ],
      "name": "dragerOfLink",
      "outputs": [
        {
          "internalType": "uint40",
          "name": "",
          "type": "uint40"
        }
      ],
      "stateMutability": "pure",
      "type": "function"
    },
    {
      "inputs": [
        {
          "internalType": "bytes32",
          "name": "sn",
          "type": "bytes32"
        }
      ],
      "name": "execDaysForPutOptOfVR",
      "outputs": [
        {
          "internalType": "uint64",
          "name": "",
          "type": "uint64"
        }
      ],
      "stateMutability": "pure",
      "type": "function"
    },
    {
      "inputs": [
        {
          "internalType": "bytes32",
          "name": "sn",
          "type": "bytes32"
        }
      ],
      "name": "exerciseDaysOfOpt",
      "outputs": [
        {
          "internalType": "uint64",
          "name": "",
          "type": "uint64"
        }
      ],
      "stateMutability": "pure",
      "type": "function"
    },
    {
      "inputs": [
        {
          "internalType": "bytes32",
          "name": "sn",
          "type": "bytes32"
        }
      ],
      "name": "expireDateOfRCLocker",
      "outputs": [
        {
          "internalType": "uint32",
          "name": "",
          "type": "uint32"
        }
      ],
      "stateMutability": "pure",
      "type": "function"
    },
    {
      "inputs": [
        {
          "internalType": "bytes32",
          "name": "sn",
          "type": "bytes32"
        }
      ],
      "name": "fromOfRCLocker",
      "outputs": [
        {
          "internalType": "uint40",
          "name": "",
          "type": "uint40"
        }
      ],
      "stateMutability": "pure",
      "type": "function"
    },
    {
      "inputs": [
        {
          "internalType": "bytes32",
          "name": "sn",
          "type": "bytes32"
        }
      ],
      "name": "groupNoOfGUO",
      "outputs": [
        {
          "internalType": "uint40",
          "name": "",
          "type": "uint40"
        }
      ],
      "stateMutability": "pure",
      "type": "function"
    },
    {
      "inputs": [
        {
          "internalType": "bytes32",
          "name": "sn",
          "type": "bytes32"
        }
      ],
      "name": "groupOfBuyer",
      "outputs": [
        {
          "internalType": "uint40",
          "name": "",
          "type": "uint40"
        }
      ],
      "stateMutability": "pure",
      "type": "function"
    },
    {
      "inputs": [
        {
          "internalType": "bytes32",
          "name": "sn",
          "type": "bytes32"
        }
      ],
      "name": "hashLockOfBOSLocker",
      "outputs": [
        {
          "internalType": "bytes15",
          "name": "",
          "type": "bytes15"
        }
      ],
      "stateMutability": "pure",
      "type": "function"
    },
    {
      "inputs": [
        {
          "internalType": "bytes32",
          "name": "sn",
          "type": "bytes32"
        }
      ],
      "name": "hashLockOfRCLocker",
      "outputs": [
        {
          "internalType": "bytes15",
          "name": "",
          "type": "bytes15"
        }
      ],
      "stateMutability": "pure",
      "type": "function"
    },
    {
      "inputs": [
        {
          "internalType": "bytes32",
          "name": "hashValue",
          "type": "bytes32"
        }
      ],
      "name": "hashTrim",
      "outputs": [
        {
          "internalType": "bytes15",
          "name": "",
          "type": "bytes15"
        }
      ],
      "stateMutability": "pure",
      "type": "function"
    },
    {
      "inputs": [
        {
          "internalType": "bytes32",
          "name": "sn",
          "type": "bytes32"
        }
      ],
      "name": "impliedConsentOfVR",
      "outputs": [
        {
          "internalType": "bool",
          "name": "",
          "type": "bool"
        }
      ],
      "stateMutability": "pure",
      "type": "function"
    },
    {
      "inputs": [
        {
          "internalType": "bytes32",
          "name": "shareNumber",
          "type": "bytes32"
        }
      ],
      "name": "issueDate",
      "outputs": [
        {
          "internalType": "uint48",
          "name": "",
          "type": "uint48"
        }
      ],
      "stateMutability": "pure",
      "type": "function"
    },
    {
      "inputs": [
        {
          "internalType": "bytes32",
          "name": "shareNumber",
          "type": "bytes32"
        }
      ],
      "name": "issuePrice",
      "outputs": [
        {
          "internalType": "uint32",
          "name": "",
          "type": "uint32"
        }
      ],
      "stateMutability": "pure",
      "type": "function"
    },
    {
      "inputs": [
        {
          "internalType": "bytes32",
          "name": "sn",
          "type": "bytes32"
        }
      ],
      "name": "logOperator",
      "outputs": [
        {
          "internalType": "uint8",
          "name": "",
          "type": "uint8"
        }
      ],
      "stateMutability": "pure",
      "type": "function"
    },
    {
      "inputs": [
        {
          "internalType": "bytes32",
          "name": "sn",
          "type": "bytes32"
        }
      ],
      "name": "maxNumOfDirectors",
      "outputs": [
        {
          "internalType": "uint8",
          "name": "",
          "type": "uint8"
        }
      ],
      "stateMutability": "pure",
      "type": "function"
    },
    {
      "inputs": [
        {
          "internalType": "bytes32",
          "name": "sn",
          "type": "bytes32"
        }
      ],
      "name": "memberOfGUO",
      "outputs": [
        {
          "internalType": "uint40",
          "name": "",
          "type": "uint40"
        }
      ],
      "stateMutability": "pure",
      "type": "function"
    },
    {
      "inputs": [
        {
          "internalType": "bytes32",
          "name": "sn",
          "type": "bytes32"
        }
      ],
      "name": "membersEqualOfFR",
      "outputs": [
        {
          "internalType": "bool",
          "name": "",
          "type": "bool"
        }
      ],
      "stateMutability": "pure",
      "type": "function"
    },
    {
      "inputs": [
        {
          "internalType": "bytes32",
          "name": "sn",
          "type": "bytes32"
        },
        {
          "internalType": "uint256",
          "name": "seqOfTitle",
          "type": "uint256"
        }
      ],
      "name": "nominateTitle",
      "outputs": [
        {
          "internalType": "uint8",
          "name": "",
          "type": "uint8"
        }
      ],
      "stateMutability": "pure",
      "type": "function"
    },
    {
      "inputs": [
        {
          "internalType": "bytes32",
          "name": "sn",
          "type": "bytes32"
        }
      ],
      "name": "onlyAttendanceOfVR",
      "outputs": [
        {
          "internalType": "bool",
          "name": "",
          "type": "bool"
        }
      ],
      "stateMutability": "pure",
      "type": "function"
    },
    {
      "inputs": [
        {
          "internalType": "bytes32",
          "name": "sn",
          "type": "bytes32"
        }
      ],
      "name": "paidOfFt",
      "outputs": [
        {
          "internalType": "uint64",
          "name": "",
          "type": "uint64"
        }
      ],
      "stateMutability": "pure",
      "type": "function"
    },
    {
      "inputs": [
        {
          "internalType": "bytes32",
          "name": "sn",
          "type": "bytes32"
        }
      ],
      "name": "parOfFt",
      "outputs": [
        {
          "internalType": "uint64",
          "name": "",
          "type": "uint64"
        }
      ],
      "stateMutability": "pure",
      "type": "function"
    },
    {
      "inputs": [
        {
          "internalType": "bytes32",
          "name": "sn",
          "type": "bytes32"
        }
      ],
      "name": "para_1",
      "outputs": [
        {
          "internalType": "uint32",
          "name": "",
          "type": "uint32"
        }
      ],
      "stateMutability": "pure",
      "type": "function"
    },
    {
      "inputs": [
        {
          "internalType": "bytes32",
          "name": "sn",
          "type": "bytes32"
        }
      ],
      "name": "para_2",
      "outputs": [
        {
          "internalType": "uint32",
          "name": "",
          "type": "uint32"
        }
      ],
      "stateMutability": "pure",
      "type": "function"
    },
    {
      "inputs": [
        {
          "internalType": "bytes32",
          "name": "sn",
          "type": "bytes32"
        }
      ],
      "name": "partyAsConsentOfVR",
      "outputs": [
        {
          "internalType": "bool",
          "name": "",
          "type": "bool"
        }
      ],
      "stateMutability": "pure",
      "type": "function"
    },
    {
      "inputs": [
        {
          "internalType": "bytes32",
          "name": "sn",
          "type": "bytes32"
        }
      ],
      "name": "pledgorOfPld",
      "outputs": [
        {
          "internalType": "uint40",
          "name": "",
          "type": "uint40"
        }
      ],
      "stateMutability": "pure",
      "type": "function"
    },
    {
      "inputs": [
        {
          "internalType": "bytes32",
          "name": "shareNumber",
          "type": "bytes32"
        }
      ],
      "name": "preSSN",
      "outputs": [
        {
          "internalType": "uint32",
          "name": "",
          "type": "uint32"
        }
      ],
      "stateMutability": "pure",
      "type": "function"
    },
    {
      "inputs": [
        {
          "internalType": "bytes32",
          "name": "sn",
          "type": "bytes32"
        }
      ],
      "name": "preSeqOfDeal",
      "outputs": [
        {
          "internalType": "uint16",
          "name": "",
          "type": "uint16"
        }
      ],
      "stateMutability": "pure",
      "type": "function"
    },
    {
      "inputs": [
        {
          "internalType": "bytes32",
          "name": "sn",
          "type": "bytes32"
        }
      ],
      "name": "priceOfDeal",
      "outputs": [
        {
          "internalType": "uint32",
          "name": "",
          "type": "uint32"
        }
      ],
      "stateMutability": "pure",
      "type": "function"
    },
    {
      "inputs": [
        {
          "internalType": "bytes32",
          "name": "sn",
          "type": "bytes32"
        }
      ],
      "name": "proRataOfFR",
      "outputs": [
        {
          "internalType": "bool",
          "name": "",
          "type": "bool"
        }
      ],
      "stateMutability": "pure",
      "type": "function"
    },
    {
      "inputs": [
        {
          "internalType": "bytes32",
          "name": "sn",
          "type": "bytes32"
        }
      ],
      "name": "proRataOfLink",
      "outputs": [
        {
          "internalType": "bool",
          "name": "",
          "type": "bool"
        }
      ],
      "stateMutability": "pure",
      "type": "function"
    },
    {
      "inputs": [
        {
          "internalType": "bytes32",
          "name": "sn",
          "type": "bytes32"
        }
      ],
      "name": "proposalThreshold",
      "outputs": [
        {
          "internalType": "uint16",
          "name": "",
          "type": "uint16"
        }
      ],
      "stateMutability": "pure",
      "type": "function"
    },
    {
      "inputs": [
        {
          "internalType": "bytes32",
          "name": "sn",
          "type": "bytes32"
        }
      ],
      "name": "proposeBNOfMotion",
      "outputs": [
        {
          "internalType": "uint32",
          "name": "",
          "type": "uint32"
        }
      ],
      "stateMutability": "pure",
      "type": "function"
    },
    {
      "inputs": [
        {
          "internalType": "bytes32",
          "name": "sn",
          "type": "bytes32"
        }
      ],
      "name": "qtyOfBoardSeats",
      "outputs": [
        {
          "internalType": "uint8",
          "name": "",
          "type": "uint8"
        }
      ],
      "stateMutability": "pure",
      "type": "function"
    },
    {
      "inputs": [
        {
          "internalType": "bytes32",
          "name": "sn",
          "type": "bytes32"
        }
      ],
      "name": "qtyOfSubRule",
      "outputs": [
        {
          "internalType": "uint8",
          "name": "",
          "type": "uint8"
        }
      ],
      "stateMutability": "pure",
      "type": "function"
    },
    {
      "inputs": [
        {
          "internalType": "bytes32",
          "name": "sn",
          "type": "bytes32"
        }
      ],
      "name": "rateOfOpt",
      "outputs": [
        {
          "internalType": "uint32",
          "name": "",
          "type": "uint32"
        }
      ],
      "stateMutability": "pure",
      "type": "function"
    },
    {
      "inputs": [
        {
          "internalType": "bytes32",
          "name": "sn",
          "type": "bytes32"
        }
      ],
      "name": "ratioAmountOfVR",
      "outputs": [
        {
          "internalType": "uint16",
          "name": "",
          "type": "uint16"
        }
      ],
      "stateMutability": "pure",
      "type": "function"
    },
    {
      "inputs": [
        {
          "internalType": "bytes32",
          "name": "sn",
          "type": "bytes32"
        }
      ],
      "name": "ratioHeadOfVR",
      "outputs": [
        {
          "internalType": "uint16",
          "name": "",
          "type": "uint16"
        }
      ],
      "stateMutability": "pure",
      "type": "function"
    },
    {
      "inputs": [
        {
          "internalType": "bytes32",
          "name": "sn",
          "type": "bytes32"
        }
      ],
      "name": "reviewDaysOfVR",
      "outputs": [
        {
          "internalType": "uint64",
          "name": "",
          "type": "uint64"
        }
      ],
      "stateMutability": "pure",
      "type": "function"
    },
    {
      "inputs": [
        {
          "internalType": "bytes32",
          "name": "sn",
          "type": "bytes32"
        }
      ],
      "name": "rightholderOfBSR",
      "outputs": [
        {
          "internalType": "uint40",
          "name": "",
          "type": "uint40"
        }
      ],
      "stateMutability": "pure",
      "type": "function"
    },
    {
      "inputs": [
        {
          "internalType": "bytes32",
          "name": "sn",
          "type": "bytes32"
        },
        {
          "internalType": "uint256",
          "name": "seq",
          "type": "uint256"
        }
      ],
      "name": "rightholdersOfFR",
      "outputs": [
        {
          "internalType": "uint40",
          "name": "",
          "type": "uint40"
        }
      ],
      "stateMutability": "pure",
      "type": "function"
    },
    {
      "inputs": [
        {
          "internalType": "bytes32",
          "name": "sn",
          "type": "bytes32"
        }
      ],
      "name": "roeOfLink",
      "outputs": [
        {
          "internalType": "uint32",
          "name": "",
          "type": "uint32"
        }
      ],
      "stateMutability": "pure",
      "type": "function"
    },
    {
      "inputs": [
        {
          "internalType": "bytes32",
          "name": "sn",
          "type": "bytes32"
        }
      ],
      "name": "sellerOfDeal",
      "outputs": [
        {
          "internalType": "uint40",
          "name": "",
          "type": "uint40"
        }
      ],
      "stateMutability": "pure",
      "type": "function"
    },
    {
      "inputs": [
        {
          "internalType": "bytes32",
          "name": "sn",
          "type": "bytes32"
        }
      ],
      "name": "seqOfDeal",
      "outputs": [
        {
          "internalType": "uint16",
          "name": "",
          "type": "uint16"
        }
      ],
      "stateMutability": "pure",
      "type": "function"
    },
    {
      "inputs": [
        {
          "internalType": "bytes32",
          "name": "sn",
          "type": "bytes32"
        }
      ],
      "name": "seqOfOpt",
      "outputs": [
        {
          "internalType": "uint32",
          "name": "",
          "type": "uint32"
        }
      ],
      "stateMutability": "pure",
      "type": "function"
    },
    {
      "inputs": [
        {
          "internalType": "bytes32",
          "name": "sn",
          "type": "bytes32"
        }
      ],
      "name": "seqOfPld",
      "outputs": [
        {
          "internalType": "uint16",
          "name": "",
          "type": "uint16"
        }
      ],
      "stateMutability": "pure",
      "type": "function"
    },
    {
      "inputs": [
        {
          "internalType": "bytes32",
          "name": "sn",
          "type": "bytes32"
        }
      ],
      "name": "seqOfRule",
      "outputs": [
        {
          "internalType": "uint16",
          "name": "",
          "type": "uint16"
        }
      ],
      "stateMutability": "pure",
      "type": "function"
    },
    {
      "inputs": [
        {
          "internalType": "bytes32",
          "name": "sn",
          "type": "bytes32"
        }
      ],
      "name": "seqOfSubRule",
      "outputs": [
        {
          "internalType": "uint8",
          "name": "",
          "type": "uint8"
        }
      ],
      "stateMutability": "pure",
      "type": "function"
    },
    {
      "inputs": [
        {
          "internalType": "bytes32",
          "name": "sn",
          "type": "bytes32"
        }
      ],
      "name": "shaExecDaysOfVR",
      "outputs": [
        {
          "internalType": "uint64",
          "name": "",
          "type": "uint64"
        }
      ],
      "stateMutability": "pure",
      "type": "function"
    },
    {
      "inputs": [
        {
          "internalType": "bytes32",
          "name": "shareNumber",
          "type": "bytes32"
        }
      ],
      "name": "shareholder",
      "outputs": [
        {
          "internalType": "uint40",
          "name": "",
          "type": "uint40"
        }
      ],
      "stateMutability": "pure",
      "type": "function"
    },
    {
      "inputs": [
        {
          "internalType": "bytes32",
          "name": "sn",
          "type": "bytes32"
        }
      ],
      "name": "shortShareNumberOfFt",
      "outputs": [
        {
          "internalType": "uint32",
          "name": "",
          "type": "uint32"
        }
      ],
      "stateMutability": "pure",
      "type": "function"
    },
    {
      "inputs": [
        {
          "internalType": "bytes32",
          "name": "shareNumber",
          "type": "bytes32"
        }
      ],
      "name": "ssn",
      "outputs": [
        {
          "internalType": "uint32",
          "name": "",
          "type": "uint32"
        }
      ],
      "stateMutability": "pure",
      "type": "function"
    },
    {
      "inputs": [
        {
          "internalType": "bytes32",
          "name": "sn",
          "type": "bytes32"
        }
      ],
      "name": "ssnOfDeal",
      "outputs": [
        {
          "internalType": "uint32",
          "name": "",
          "type": "uint32"
        }
      ],
      "stateMutability": "pure",
      "type": "function"
    },
    {
      "inputs": [
        {
          "internalType": "bytes32",
          "name": "sn",
          "type": "bytes32"
        }
      ],
      "name": "ssnOfPld",
      "outputs": [
        {
          "internalType": "uint32",
          "name": "",
          "type": "uint32"
        }
      ],
      "stateMutability": "pure",
      "type": "function"
    },
    {
      "inputs": [
        {
          "internalType": "bytes32",
          "name": "sn",
          "type": "bytes32"
        }
      ],
      "name": "submitterOfMotion",
      "outputs": [
        {
          "internalType": "uint40",
          "name": "",
          "type": "uint40"
        }
      ],
      "stateMutability": "pure",
      "type": "function"
    },
    {
      "inputs": [
        {
          "internalType": "bytes32",
          "name": "sn",
          "type": "bytes32"
        }
      ],
      "name": "tenureOfBoard",
      "outputs": [
        {
          "internalType": "uint8",
          "name": "",
          "type": "uint8"
        }
      ],
      "stateMutability": "pure",
      "type": "function"
    },
    {
      "inputs": [
        {
          "internalType": "bytes32",
          "name": "sn",
          "type": "bytes32"
        }
      ],
      "name": "thresholdOfLink",
      "outputs": [
        {
          "internalType": "uint64",
          "name": "",
          "type": "uint64"
        }
      ],
      "stateMutability": "pure",
      "type": "function"
    },
    {
      "inputs": [
        {
          "internalType": "bytes32",
          "name": "sn",
          "type": "bytes32"
        }
      ],
      "name": "toOfRCLocker",
      "outputs": [
        {
          "internalType": "uint40",
          "name": "",
          "type": "uint40"
        }
      ],
      "stateMutability": "pure",
      "type": "function"
    },
    {
      "inputs": [
        {
          "internalType": "bytes32",
          "name": "sn",
          "type": "bytes32"
        }
      ],
      "name": "triggerBNOfOpt",
      "outputs": [
        {
          "internalType": "uint64",
          "name": "",
          "type": "uint64"
        }
      ],
      "stateMutability": "pure",
      "type": "function"
    },
    {
      "inputs": [
        {
          "internalType": "bytes32",
          "name": "sn",
          "type": "bytes32"
        }
      ],
      "name": "triggerTypeOfLink",
      "outputs": [
        {
          "internalType": "uint8",
          "name": "",
          "type": "uint8"
        }
      ],
      "stateMutability": "pure",
      "type": "function"
    },
    {
      "inputs": [
        {
          "internalType": "bytes32",
          "name": "sn",
          "type": "bytes32"
        }
      ],
      "name": "typeOfDeal",
      "outputs": [
        {
          "internalType": "uint8",
          "name": "",
          "type": "uint8"
        }
      ],
      "stateMutability": "pure",
      "type": "function"
    },
    {
      "inputs": [
        {
          "internalType": "bytes32",
          "name": "sn",
          "type": "bytes32"
        }
      ],
      "name": "typeOfMotion",
      "outputs": [
        {
          "internalType": "uint8",
          "name": "",
          "type": "uint8"
        }
      ],
      "stateMutability": "pure",
      "type": "function"
    },
    {
      "inputs": [
        {
          "internalType": "bytes32",
          "name": "sn",
          "type": "bytes32"
        }
      ],
      "name": "typeOfOpt",
      "outputs": [
        {
          "internalType": "uint8",
          "name": "",
          "type": "uint8"
        }
      ],
      "stateMutability": "pure",
      "type": "function"
    },
    {
      "inputs": [
        {
          "internalType": "bytes32",
          "name": "sn",
          "type": "bytes32"
        }
      ],
      "name": "unitPriceOfLink",
      "outputs": [
        {
          "internalType": "uint32",
          "name": "",
          "type": "uint32"
        }
      ],
      "stateMutability": "pure",
      "type": "function"
    },
    {
      "inputs": [
        {
          "internalType": "bytes32",
          "name": "sn",
          "type": "bytes32"
        }
      ],
      "name": "vetoer2OfVR",
      "outputs": [
        {
          "internalType": "uint40",
          "name": "",
          "type": "uint40"
        }
      ],
      "stateMutability": "pure",
      "type": "function"
    },
    {
      "inputs": [
        {
          "internalType": "bytes32",
          "name": "sn",
          "type": "bytes32"
        }
      ],
      "name": "vetoer3OfVR",
      "outputs": [
        {
          "internalType": "uint40",
          "name": "",
          "type": "uint40"
        }
      ],
      "stateMutability": "pure",
      "type": "function"
    },
    {
      "inputs": [
        {
          "internalType": "bytes32",
          "name": "sn",
          "type": "bytes32"
        }
      ],
      "name": "vetoerOfVR",
      "outputs": [
        {
          "internalType": "uint40",
          "name": "",
          "type": "uint40"
        }
      ],
      "stateMutability": "pure",
      "type": "function"
    },
    {
      "inputs": [
        {
          "internalType": "bytes32",
          "name": "sn",
          "type": "bytes32"
        }
      ],
      "name": "votingDaysOfVR",
      "outputs": [
        {
          "internalType": "uint64",
          "name": "",
          "type": "uint64"
        }
      ],
      "stateMutability": "pure",
      "type": "function"
    },
    {
      "inputs": [
        {
          "internalType": "bytes32",
          "name": "sn",
          "type": "bytes32"
        }
      ],
      "name": "votingDeadlineBNOfMotion",
      "outputs": [
        {
          "internalType": "uint32",
          "name": "",
          "type": "uint32"
        }
      ],
      "stateMutability": "pure",
      "type": "function"
    },
    {
      "inputs": [
        {
          "internalType": "bytes32",
          "name": "sn",
          "type": "bytes32"
        }
      ],
      "name": "weightRegBNOfMotion",
      "outputs": [
        {
          "internalType": "uint32",
          "name": "",
          "type": "uint32"
        }
      ],
      "stateMutability": "pure",
      "type": "function"
    }
  ],
  "bytecode": "0x61278a610053600b82828239805160001a607314610046577f4e487b7100000000000000000000000000000000000000000000000000000000600052600060045260246000fd5b30600052607381538281f3fe73000000000000000000000000000000000000000030146080604052600436106104e25760003560e01c80638b257a711161028d578063bf72e38611610166578063e15c1380116100d8578063efbb54f11161009c578063efbb54f114611447578063f3ddaa6414611477578063fb2ce97f146114a7578063fcbdc4ea146114d7578063fd4a1e3a14611507578063ffb807a014611537576104e2565b8063e15c138014611357578063e286da3814611387578063e367c55a146113b7578063e4576074146113e7578063ed7d1de914611417576104e2565b8063c9b8f08e1161012a578063c9b8f08e14611237578063cdd00ffd14611267578063d059a41914611297578063d5915cf1146112c7578063d914a1d0146112f7578063e0c11ffa14611327576104e2565b8063bf72e38614611147578063c22003ce14611177578063c223d3f2146111a7578063c59d32ca146111d7578063c78f17b014611207576104e2565b8063a539dc4d116101ff578063ab9087e1116101c3578063ab9087e114611027578063adf898a414611057578063b13e158614611087578063b3ecb0f7146110b7578063ba919ac7146110e7578063bca33b5214611117576104e2565b8063a539dc4d14610f37578063a67e797214610f67578063a72a6adf14610f97578063a73a027614610fc7578063a8b12c0814610ff7576104e2565b80639c1399b2116102515780639c1399b214610e175780639cfaf7b714610e475780639e3a54a014610e77578063a008f1df14610ea7578063a017f5cc14610ed7578063a508809a14610f07576104e2565b80638b257a7114610d275780639078172e14610d575780639289cdbf14610d87578063970770eb14610db75780639a47c9b114610de7576104e2565b806330efaa8c116103bf5780635391b5c4116103315780635defb384116102f55780635defb38414610c07578063632db43914610c375780637198a37f14610c675780637345708814610c9757806378995d6814610cc7578063897199a714610cf7576104e2565b80635391b5c414610b175780635725798014610b4757806357ff9a2614610b775780635d15039514610ba75780635dd1c49214610bd7576104e2565b80633b36c9cc116103835780633b36c9cc146109f75780633dfb030714610a27578063485a811a14610a57578063496cea8314610a875780634cfb64bb14610ab75780634f14ec7914610ae7576104e2565b806330efaa8c14610907578063318c49f314610937578063384494b01461096757806339486b87146109975780633a4376f3146109c7576104e2565b806320b24063116104585780632a223da91161041c5780632a223da9146107e75780632a323af6146108175780632bb31527146108475780632de1e7ac146108775780632f3c4e64146108a75780632f71ec0c146108d7576104e2565b806320b24063146106f7578063217cf12b1461072757806321aa0faf14610757578063248969221461078757806327f597c1146107b7576104e2565b80631977d7ea116104aa5780631977d7ea146105d75780631aef24a7146106075780631ba2c6f7146106375780631c68fbb9146106675780631cbb6470146106975780631d423f3c146106c7576104e2565b80630116c34a146104e75780630d28820a146105175780630eb3fa5a1461054757806313ae772a14610577578063173be8ea146105a7575b600080fd5b61050160048036038101906104fc9190612173565b611567565b60405161050e91906121bf565b60405180910390f35b610531600480360381019061052c9190612173565b611578565b60405161053e91906121bf565b60405180910390f35b610561600480360381019061055c9190612206565b611589565b60405161056e9190612274565b60405180910390f35b610591600480360381019061058c9190612173565b6117f0565b60405161059e91906122af565b60405180910390f35b6105c160048036038101906105bc9190612300565b611801565b6040516105ce919061235c565b60405180910390f35b6105f160048036038101906105ec9190612173565b61187f565b6040516105fe91906122af565b60405180910390f35b610621600480360381019061061c9190612173565b611890565b60405161062e919061239a565b60405180910390f35b610651600480360381019061064c9190612300565b6118b7565b60405161065e91906122af565b60405180910390f35b610681600480360381019061067c9190612173565b61192e565b60405161068e91906123f0565b60405180910390f35b6106b160048036038101906106ac9190612173565b61193c565b6040516106be919061235c565b60405180910390f35b6106e160048036038101906106dc9190612173565b611960565b6040516106ee91906123f0565b60405180910390f35b610711600480360381019061070c9190612173565b61196e565b60405161071e919061239a565b60405180910390f35b610741600480360381019061073c9190612173565b61197f565b60405161074e9190612428565b60405180910390f35b610771600480360381019061076c9190612173565b61198c565b60405161077e91906121bf565b60405180910390f35b6107a1600480360381019061079c9190612173565b61199d565b6040516107ae919061235c565b60405180910390f35b6107d160048036038101906107cc9190612173565b6119c1565b6040516107de9190612464565b60405180910390f35b61080160048036038101906107fc9190612173565b6119d2565b60405161080e9190612274565b60405180910390f35b610831600480360381019061082c9190612173565b6119fc565b60405161083e9190612274565b60405180910390f35b610861600480360381019061085c9190612173565b611a26565b60405161086e91906121bf565b60405180910390f35b610891600480360381019061088c9190612173565b611a37565b60405161089e91906122af565b60405180910390f35b6108c160048036038101906108bc9190612173565b611a48565b6040516108ce91906121bf565b60405180910390f35b6108f160048036038101906108ec9190612173565b611a59565b6040516108fe919061239a565b60405180910390f35b610921600480360381019061091c9190612173565b611a80565b60405161092e91906123f0565b60405180910390f35b610951600480360381019061094c9190612173565b611a8e565b60405161095e919061239a565b60405180910390f35b610981600480360381019061097c9190612173565b611a9f565b60405161098e91906121bf565b60405180910390f35b6109b160048036038101906109ac9190612173565b611aac565b6040516109be919061239a565b60405180910390f35b6109e160048036038101906109dc9190612173565b611ad3565b6040516109ee919061239a565b60405180910390f35b610a116004803603810190610a0c9190612173565b611afa565b604051610a1e919061235c565b60405180910390f35b610a416004803603810190610a3c9190612173565b611b1e565b604051610a4e91906122af565b60405180910390f35b610a716004803603810190610a6c9190612173565b611b2f565b604051610a7e91906122af565b60405180910390f35b610aa16004803603810190610a9c9190612173565b611b40565b604051610aae9190612274565b60405180910390f35b610ad16004803603810190610acc9190612173565b611b6a565b604051610ade91906121bf565b60405180910390f35b610b016004803603810190610afc9190612173565b611b77565b604051610b0e919061235c565b60405180910390f35b610b316004803603810190610b2c9190612173565b611b9b565b604051610b3e91906122af565b60405180910390f35b610b616004803603810190610b5c9190612173565b611bac565b604051610b6e919061235c565b60405180910390f35b610b916004803603810190610b8c9190612173565b611bd0565b604051610b9e91906122af565b60405180910390f35b610bc16004803603810190610bbc9190612173565b611bdd565b604051610bce91906121bf565b60405180910390f35b610bf16004803603810190610bec9190612173565b611bee565b604051610bfe9190612274565b60405180910390f35b610c216004803603810190610c1c9190612173565b611c18565b604051610c2e9190612428565b60405180910390f35b610c516004803603810190610c4c9190612173565b611c29565b604051610c5e9190612274565b60405180910390f35b610c816004803603810190610c7c9190612173565b611c53565b604051610c8e9190612274565b60405180910390f35b610cb16004803603810190610cac9190612173565b611c7d565b604051610cbe9190612428565b60405180910390f35b610ce16004803603810190610cdc9190612173565b611c8a565b604051610cee9190612428565b60405180910390f35b610d116004803603810190610d0c9190612173565b611c9b565b604051610d1e919061239a565b60405180910390f35b610d416004803603810190610d3c9190612173565b611cac565b604051610d4e91906121bf565b60405180910390f35b610d716004803603810190610d6c9190612173565b611cbd565b604051610d7e9190612464565b60405180910390f35b610da16004803603810190610d9c9190612173565b611cce565b604051610dae9190612428565b60405180910390f35b610dd16004803603810190610dcc9190612173565b611cdf565b604051610dde91906121bf565b60405180910390f35b610e016004803603810190610dfc9190612173565b611cf0565b604051610e0e91906122af565b60405180910390f35b610e316004803603810190610e2c9190612173565b611d01565b604051610e3e9190612428565b60405180910390f35b610e616004803603810190610e5c9190612173565b611d12565b604051610e6e9190612428565b60405180910390f35b610e916004803603810190610e8c9190612173565b611d23565b604051610e9e9190612274565b60405180910390f35b610ec16004803603810190610ebc9190612173565b611d4d565b604051610ece9190612274565b60405180910390f35b610ef16004803603810190610eec9190612173565b611d77565b604051610efe91906121bf565b60405180910390f35b610f216004803603810190610f1c9190612173565b611d88565b604051610f2e91906122af565b60405180910390f35b610f516004803603810190610f4c9190612173565b611d99565b604051610f5e919061235c565b60405180910390f35b610f816004803603810190610f7c9190612173565b611dbd565b604051610f8e919061235c565b60405180910390f35b610fb16004803603810190610fac9190612173565b611de1565b604051610fbe9190612428565b60405180910390f35b610fe16004803603810190610fdc9190612173565b611df2565b604051610fee91906121bf565b60405180910390f35b611011600480360381019061100c9190612173565b611e03565b60405161101e9190612274565b60405180910390f35b611041600480360381019061103c9190612173565b611e2d565b60405161104e91906121bf565b60405180910390f35b611071600480360381019061106c9190612173565b611e3e565b60405161107e9190612428565b60405180910390f35b6110a1600480360381019061109c9190612173565b611e4f565b6040516110ae919061235c565b60405180910390f35b6110d160048036038101906110cc9190612173565b611e73565b6040516110de91906122af565b60405180910390f35b61110160048036038101906110fc9190612173565b611e84565b60405161110e91906122af565b60405180910390f35b611131600480360381019061112c9190612173565b611e95565b60405161113e91906121bf565b60405180910390f35b611161600480360381019061115c9190612173565b611ea6565b60405161116e91906122af565b60405180910390f35b611191600480360381019061118c9190612173565b611eb7565b60405161119e919061235c565b60405180910390f35b6111c160048036038101906111bc9190612173565b611edb565b6040516111ce91906121bf565b60405180910390f35b6111f160048036038101906111ec9190612173565b611eec565b6040516111fe919061239a565b60405180910390f35b611221600480360381019061121c9190612173565b611f13565b60405161122e919061235c565b60405180910390f35b611251600480360381019061124c9190612173565b611f37565b60405161125e919061235c565b60405180910390f35b611281600480360381019061127c9190612173565b611f5b565b60405161128e91906122af565b60405180910390f35b6112b160048036038101906112ac9190612173565b611f6c565b6040516112be919061235c565b60405180910390f35b6112e160048036038101906112dc9190612173565b611f90565b6040516112ee919061239a565b60405180910390f35b611311600480360381019061130c9190612173565b611fa1565b60405161131e91906122af565b60405180910390f35b611341600480360381019061133c9190612300565b611fb2565b60405161134e919061235c565b60405180910390f35b611371600480360381019061136c9190612173565b612030565b60405161137e91906122af565b60405180910390f35b6113a1600480360381019061139c9190612173565b612041565b6040516113ae91906122af565b60405180910390f35b6113d160048036038101906113cc9190612173565b612052565b6040516113de919061239a565b60405180910390f35b61140160048036038101906113fc9190612173565b612079565b60405161140e91906121bf565b60405180910390f35b611431600480360381019061142c9190612173565b61208a565b60405161143e91906121bf565b60405180910390f35b611461600480360381019061145c9190612173565b61209b565b60405161146e9190612274565b60405180910390f35b611491600480360381019061148c9190612173565b6120c5565b60405161149e919061235c565b60405180910390f35b6114c160048036038101906114bc9190612173565b6120e9565b6040516114ce91906122af565b60405180910390f35b6114f160048036038101906114ec9190612173565b6120f6565b6040516114fe919061235c565b60405180910390f35b611521600480360381019061151c9190612173565b61211a565b60405161152e91906122af565b60405180910390f35b611551600480360381019061154c9190612173565b61212b565b60405161155e9190612428565b60405180910390f35b6000608882901b60e01c9050919050565b6000605082901b60e01c9050919050565b600080600060016115998761199d565b60ff1614156115c0576115ab86611edb565b63ffffffff168563ffffffff16119150611657565b60026115cb8761199d565b60ff1614156115f2576115dd86611edb565b63ffffffff168563ffffffff16109150611656565b60036115fd8761199d565b60ff1614156116255761160f86611edb565b63ffffffff168563ffffffff1610159150611655565b60046116308761199d565b60ff1614156116545761164286611edb565b63ffffffff168563ffffffff16111591505b5b5b5b600161166287611eb7565b60ff1614156116895761167486611cdf565b63ffffffff168463ffffffff16119050611720565b600261169487611eb7565b60ff1614156116bb576116a686611cdf565b63ffffffff168463ffffffff1610905061171f565b60036116c687611eb7565b60ff1614156116ee576116d886611cdf565b63ffffffff168463ffffffff161015905061171e565b60046116f987611eb7565b60ff16141561171d5761170b86611cdf565b63ffffffff168463ffffffff16111590505b5b5b5b600161172b87611dbd565b60ff1614156117455781801561173e5750805b92506117e7565b600261175087611dbd565b60ff1614156117695781806117625750805b92506117e6565b600361177487611dbd565b60ff161415611785578192506117e5565b600461179087611dbd565b60ff1614156117a1578092506117e4565b60056117ac87611dbd565b60ff1614156117c3578015158215151492506117e3565b60066117ce87611dbd565b60ff1614156117e257801515821515141592505b5b5b5b5b5b50509392505050565b6000605082901b60d81c9050919050565b600080821180156118125750600b82105b611851576040517f08c379a000000000000000000000000000000000000000000000000000000000815260040161184890612502565b60405180910390fd5b8282600961185f9190612551565b602081106118705761186f6125a7565b5b1a60f81b60f81c905092915050565b6000602882901b60d81c9050919050565b600081600e602081106118a6576118a56125a7565b5b1a60f81b60f81c60ff169050919050565b600080821180156118c85750600582105b611907576040517f08c379a00000000000000000000000000000000000000000000000000000000081526004016118fe90612648565b60405180910390fd5b6028826119149190612668565b60186119209190612551565b83901b60d81c905092915050565b6000607082901b9050919050565b600081600860208110611952576119516125a7565b5b1a60f81b60f81c9050919050565b6000608882901b9050919050565b6000605882901b60c01c9050919050565b60008160f01c9050919050565b6000601082901b60e01c9050919050565b6000816016602081106119b3576119b26125a7565b5b1a60f81b60f81c9050919050565b6000603082901b60d01c9050919050565b6000600182600b602081106119ea576119e96125a7565b5b1a60f81b60f81c60ff16149050919050565b6000600182600460208110611a1457611a136125a7565b5b1a60f81b60f81c60ff16149050919050565b600060c082901b60e01c9050919050565b6000606082901b60d81c9050919050565b6000605082901b60e01c9050919050565b600081600f60208110611a6f57611a6e6125a7565b5b1a60f81b60f81c60ff169050919050565b6000602082901b9050919050565b6000602882901b60c01c9050919050565b60008160e01c9050919050565b600081600e60208110611ac257611ac16125a7565b5b1a60f81b60f81c60ff169050919050565b600081601060208110611ae957611ae86125a7565b5b1a60f81b60f81c60ff169050919050565b600081600060208110611b1057611b0f6125a7565b5b1a60f81b60f81c9050919050565b6000608882901b60d81c9050919050565b6000602082901b60d81c9050919050565b6000600182600660208110611b5857611b576125a7565b5b1a60f81b60f81c60ff16149050919050565b60008160e01c9050919050565b600081600060208110611b8d57611b8c6125a7565b5b1a60f81b60f81c9050919050565b600060d882901b60d81c9050919050565b600081600960208110611bc257611bc16125a7565b5b1a60f81b60f81c9050919050565b60008160d81c9050919050565b600060a882901b60e01c9050919050565b6000600182600a60208110611c0657611c056125a7565b5b1a60f81b60f81c60ff16149050919050565b6000601082901b60f01c9050919050565b6000600182600760208110611c4157611c406125a7565b5b1a60f81b60f81c60ff16149050919050565b6000600182600c60208110611c6b57611c6a6125a7565b5b1a60f81b60f81c60ff16149050919050565b60008160f01c9050919050565b600060e082901b60f01c9050919050565b6000602082901b60c01c9050919050565b600060c082901b60e01c9050919050565b6000603082901b60d01c9050919050565b6000603882901b60f01c9050919050565b600060e082901b60e01c9050919050565b6000600882901b60d81c9050919050565b6000602882901b60f01c9050919050565b6000602082901b60f01c9050919050565b6000600182600560208110611d3b57611d3a6125a7565b5b1a60f81b60f81c60ff16149050919050565b6000600182601360208110611d6557611d646125a7565b5b1a60f81b60f81c60ff16149050919050565b600060a082901b60e01c9050919050565b6000607882901b60d81c9050919050565b600081600360208110611daf57611dae6125a7565b5b1a60f81b60f81c9050919050565b600081601560208110611dd357611dd26125a7565b5b1a60f81b60f81c9050919050565b6000607882901b60f01c9050919050565b6000603082901b60e01c9050919050565b6000600182600460208110611e1b57611e1a6125a7565b5b1a60f81b60f81c60ff16149050919050565b6000608882901b60e01c9050919050565b6000602882901b60f01c9050919050565b600081600260208110611e6557611e646125a7565b5b1a60f81b60f81c9050919050565b6000602882901b60d81c9050919050565b6000602882901b60d81c9050919050565b6000600882901b60e01c9050919050565b6000608882901b60d81c9050919050565b600081601b60208110611ecd57611ecc6125a7565b5b1a60f81b60f81c9050919050565b600060b882901b60e01c9050919050565b600081600d60208110611f0257611f016125a7565b5b1a60f81b60f81c60ff169050919050565b600081600460208110611f2957611f286125a7565b5b1a60f81b60f81c9050919050565b600081600460208110611f4d57611f4c6125a7565b5b1a60f81b60f81c9050919050565b600060b082901b60d81c9050919050565b600081600460208110611f8257611f816125a7565b5b1a60f81b60f81c9050919050565b6000606082901b60c01c9050919050565b6000602882901b60d81c9050919050565b60008082118015611fc35750600b82105b612002576040517f08c379a0000000000000000000000000000000000000000000000000000000008152600401611ff990612734565b60405180910390fd5b828260136120109190612551565b60208110612021576120206125a7565b5b1a60f81b60f81c905092915050565b6000605082901b60d81c9050919050565b6000606082901b60d81c9050919050565b600081600d60208110612068576120676125a7565b5b1a60f81b60f81c60ff169050919050565b6000607082901b60e01c9050919050565b600060a082901b60e01c9050919050565b60006001826009602081106120b3576120b26125a7565b5b1a60f81b60f81c60ff16149050919050565b600081600a602081106120db576120da6125a7565b5b1a60f81b60f81c9050919050565b60008160d81c9050919050565b60008160076020811061210c5761210b6125a7565b5b1a60f81b60f81c9050919050565b6000609082901b60d81c9050919050565b60008160f01c9050919050565b600080fd5b6000819050919050565b6121508161213d565b811461215b57600080fd5b50565b60008135905061216d81612147565b92915050565b60006020828403121561218957612188612138565b5b60006121978482850161215e565b91505092915050565b600063ffffffff82169050919050565b6121b9816121a0565b82525050565b60006020820190506121d460008301846121b0565b92915050565b6121e3816121a0565b81146121ee57600080fd5b50565b600081359050612200816121da565b92915050565b60008060006060848603121561221f5761221e612138565b5b600061222d8682870161215e565b935050602061223e868287016121f1565b925050604061224f868287016121f1565b9150509250925092565b60008115159050919050565b61226e81612259565b82525050565b60006020820190506122896000830184612265565b92915050565b600064ffffffffff82169050919050565b6122a98161228f565b82525050565b60006020820190506122c460008301846122a0565b92915050565b6000819050919050565b6122dd816122ca565b81146122e857600080fd5b50565b6000813590506122fa816122d4565b92915050565b6000806040838503121561231757612316612138565b5b60006123258582860161215e565b9250506020612336858286016122eb565b9150509250929050565b600060ff82169050919050565b61235681612340565b82525050565b6000602082019050612371600083018461234d565b92915050565b600067ffffffffffffffff82169050919050565b61239481612377565b82525050565b60006020820190506123af600083018461238b565b92915050565b60007fffffffffffffffffffffffffffffff000000000000000000000000000000000082169050919050565b6123ea816123b5565b82525050565b600060208201905061240560008301846123e1565b92915050565b600061ffff82169050919050565b6124228161240b565b82525050565b600060208201905061243d6000830184612419565b92915050565b600065ffffffffffff82169050919050565b61245e81612443565b82525050565b60006020820190506124796000830184612455565b92915050565b600082825260208201905092915050565b7f534e5061727365722e6170706f696e745469746c653a207365714f665469746c60008201527f65206f76657220666c6f77000000000000000000000000000000000000000000602082015250565b60006124ec602b8361247f565b91506124f782612490565b604082019050919050565b6000602082019050818103600083015261251b816124df565b9050919050565b7f4e487b7100000000000000000000000000000000000000000000000000000000600052601160045260246000fd5b600061255c826122ca565b9150612567836122ca565b9250827fffffffffffffffffffffffffffffffffffffffffffffffffffffffffffffffff0382111561259c5761259b612522565b5b828201905092915050565b7f4e487b7100000000000000000000000000000000000000000000000000000000600052603260045260246000fd5b7f534e5061727365722e726f663a207365714f665269676874686f6c646572206f60008201527f766572666c6f7700000000000000000000000000000000000000000000000000602082015250565b600061263260278361247f565b915061263d826125d6565b604082019050919050565b6000602082019050818103600083015261266181612625565b9050919050565b6000612673826122ca565b915061267e836122ca565b9250817fffffffffffffffffffffffffffffffffffffffffffffffffffffffffffffffff04831182151516156126b7576126b6612522565b5b828202905092915050565b7f534e5061727365722e6e6f6d696e6174655469746c653a207365714f6654697460008201527f6c65206f76657220666c6f770000000000000000000000000000000000000000602082015250565b600061271e602c8361247f565b9150612729826126c2565b604082019050919050565b6000602082019050818103600083015261274d81612711565b905091905056fea26469706673582212206d3bc94c3dd0e5f2ada5ff94c6d3aad5fb6f768dd41f486e47c90f1973e0a79264736f6c63430008080033",
  "linkReferences": {},
  "deployedLinkReferences": {}
}